{
  "transactions": [
    {
      "hash": "0x6efc1971d65a53021b8a9114c859dbe8250b38facc6d2f298d7238c23dbdbd0b",
      "transactionType": "CALL",
      "contractName": null,
      "contractAddress": "0x270e88f8683660553e8ba4eb2ad7c91a1710d769",
      "function": "sell(uint256)",
      "arguments": [
        "729944777651511833776"
      ],
      "transaction": {
        "from": "0xc77f7fed3b5cc8249adc428c5f44c9063b9734b4",
        "to": "0x270e88f8683660553e8ba4eb2ad7c91a1710d769",
        "gas": "0x16fec",
        "value": "0x0",
        "input": "0xe4849b320000000000000000000000000000000000000000000000279204cbdc61db34b0",
        "nonce": "0x7ae",
        "chainId": "0xaa36a7"
      },
      "additionalContracts": [],
      "isFixedGasLimit": false
    }
  ],
  "receipts": [
    {
      "status": "0x1",
      "cumulativeGasUsed": "0x9dd9a8",
      "logs": [
        {
          "address": "0x270e88f8683660553e8ba4eb2ad7c91a1710d769",
          "topics": [
            "0xddf252ad1be2c89b69c2b068fc378daa952ba7f163c4a11628f55a4df523b3ef",
            "0x000000000000000000000000c77f7fed3b5cc8249adc428c5f44c9063b9734b4",
            "0x0000000000000000000000000000000000000000000000000000000000000000"
          ],
          "data": "0x0000000000000000000000000000000000000000000000279204cbdc61db34b0",
          "blockHash": "0x836f2cdff458a84b082d1f51e942ce136463d0330cbc44cc7360ac2403120259",
          "blockNumber": "0x7254e3",
          "transactionHash": "0x6efc1971d65a53021b8a9114c859dbe8250b38facc6d2f298d7238c23dbdbd0b",
          "transactionIndex": "0x5e",
          "logIndex": "0x8c",
          "removed": false
        },
        {
          "address": "0x270e88f8683660553e8ba4eb2ad7c91a1710d769",
          "topics": [
            "0x4afcb4a87cdbd9974efdb92ee48bc8d7cd0ae4bf217004db3d080cbaee652ca7"
          ],
          "data": "0x000000000000000000000000000000000000000000000000000000006786ecac0000000000000000000000000000000000000000000000000004d58d611c81a20000000000000000000000000000000000000000000000000dc8277585f6ec31",
          "blockHash": "0x836f2cdff458a84b082d1f51e942ce136463d0330cbc44cc7360ac2403120259",
          "blockNumber": "0x7254e3",
          "transactionHash": "0x6efc1971d65a53021b8a9114c859dbe8250b38facc6d2f298d7238c23dbdbd0b",
          "transactionIndex": "0x5e",
          "logIndex": "0x8d",
          "removed": false
        }
      ],
      "logsBloom": "0x00000000000000000000000000000000000000000000000000000000000000000000000000000000000000000000000020000000000000004000000000000000000000000000000000000008000000000000000000000000000000000000000000000000020000000000000000000800020000000000000000000010000000000000000000010000000000000000000000000000000000000000010000000000000000000000000000000000000000004000000000000000000000000000000000000002000000800000000000000000000000000000080000008000000020000000000000000000000000000000000000000000000000000000000000000000",
      "type": "0x2",
      "transactionHash": "0x6efc1971d65a53021b8a9114c859dbe8250b38facc6d2f298d7238c23dbdbd0b",
      "transactionIndex": "0x5e",
      "blockHash": "0x836f2cdff458a84b082d1f51e942ce136463d0330cbc44cc7360ac2403120259",
      "blockNumber": "0x7254e3",
      "gasUsed": "0xfb93",
      "effectiveGasPrice": "0xd6a79934",
      "from": "0xc77f7fed3b5cc8249adc428c5f44c9063b9734b4",
      "to": "0x270e88f8683660553e8ba4eb2ad7c91a1710d769",
      "contractAddress": null
    }
  ],
  "libraries": [],
  "pending": [],
  "returns": {},
  "timestamp": 1736895661,
  "chain": 11155111,
  "commit": "51a374b"
}