{
  "transactions": [
    {
      "hash": "0xb7bcc11c347600f04f712dc732205b79042e0774ea8cbd9c4a444b7f74f5fc3a",
      "transactionType": "CALL",
      "contractName": null,
      "contractAddress": "0x8aafd3ede9adb0ff97c7aebce82a919afb1c8764",
      "function": "sell(uint256)",
      "arguments": [
        "13529481674930032"
      ],
      "transaction": {
        "from": "0xc77f7fed3b5cc8249adc428c5f44c9063b9734b4",
        "to": "0x8aafd3ede9adb0ff97c7aebce82a919afb1c8764",
        "gas": "0x1724d",
        "value": "0x0",
        "input": "0xe4849b32000000000000000000000000000000000000000000000000003010fded3ab770",
        "nonce": "0x14e6",
        "chainId": "0xaa36a7"
      },
      "additionalContracts": [],
      "isFixedGasLimit": false
    }
  ],
  "receipts": [
    {
      "status": "0x1",
      "cumulativeGasUsed": "0x19a549a",
      "logs": [
        {
          "address": "0x8aafd3ede9adb0ff97c7aebce82a919afb1c8764",
          "topics": [
            "0xddf252ad1be2c89b69c2b068fc378daa952ba7f163c4a11628f55a4df523b3ef",
            "0x000000000000000000000000c77f7fed3b5cc8249adc428c5f44c9063b9734b4",
            "0x0000000000000000000000000000000000000000000000000000000000000000"
          ],
          "data": "0x000000000000000000000000000000000000000000000000002fae8d4da2b1e0",
          "blockHash": "0x9eb3e2c3179863fbca69f28bbd9162389f3f1d4adc0357fec81e57542c77aef0",
          "blockNumber": "0x731c45",
          "transactionHash": "0xb7bcc11c347600f04f712dc732205b79042e0774ea8cbd9c4a444b7f74f5fc3a",
          "transactionIndex": "0xe9",
          "logIndex": "0x171",
          "removed": false
        },
        {
          "address": "0x8aafd3ede9adb0ff97c7aebce82a919afb1c8764",
          "topics": [
            "0xddf252ad1be2c89b69c2b068fc378daa952ba7f163c4a11628f55a4df523b3ef",
            "0x000000000000000000000000c77f7fed3b5cc8249adc428c5f44c9063b9734b4",
            "0x000000000000000000000000c77f7fed3b5cc8249adc428c5f44c9063b9734b4"
          ],
          "data": "0x000000000000000000000000000000000000000000000000000062709f980590",
          "blockHash": "0x9eb3e2c3179863fbca69f28bbd9162389f3f1d4adc0357fec81e57542c77aef0",
          "blockNumber": "0x731c45",
          "transactionHash": "0xb7bcc11c347600f04f712dc732205b79042e0774ea8cbd9c4a444b7f74f5fc3a",
          "transactionIndex": "0xe9",
          "logIndex": "0x172",
          "removed": false
        },
        {
          "address": "0x8aafd3ede9adb0ff97c7aebce82a919afb1c8764",
          "topics": [
            "0x4afcb4a87cdbd9974efdb92ee48bc8d7cd0ae4bf217004db3d080cbaee652ca7"
          ],
          "data": "0x00000000000000000000000000000000000000000000000000000000679050180000000000000000000000000000000000000000000000000010cab3530d86c800000000000000000000000000000000000000000000000000003a28bf80f4ae",
          "blockHash": "0x9eb3e2c3179863fbca69f28bbd9162389f3f1d4adc0357fec81e57542c77aef0",
          "blockNumber": "0x731c45",
          "transactionHash": "0xb7bcc11c347600f04f712dc732205b79042e0774ea8cbd9c4a444b7f74f5fc3a",
          "transactionIndex": "0xe9",
          "logIndex": "0x173",
          "removed": false
        }
      ],
      "logsBloom": "0x00000000000000000000000000000000000000000600000000000000000000000000000000000000000000000000000000000000000000004000000000000000000000000000004000000008000000000000000000000000000000000000000000000000020000000000000000000800020000000000000000000010000000000000000000000000000000000000000000000000000000000000010000000000000000000000000000000000000000004000000000000000000000000000000000000002000000800000000000000000000000000000080000000000000020000000000000000000000000000000000000000000000000000000000000000000",
      "type": "0x2",
      "transactionHash": "0xb7bcc11c347600f04f712dc732205b79042e0774ea8cbd9c4a444b7f74f5fc3a",
      "transactionIndex": "0xe9",
      "blockHash": "0x9eb3e2c3179863fbca69f28bbd9162389f3f1d4adc0357fec81e57542c77aef0",
      "blockNumber": "0x731c45",
      "gasUsed": "0xfd33",
      "effectiveGasPrice": "0x14367e496",
      "from": "0xc77f7fed3b5cc8249adc428c5f44c9063b9734b4",
      "to": "0x8aafd3ede9adb0ff97c7aebce82a919afb1c8764",
      "contractAddress": null
    }
  ],
  "libraries": [],
  "pending": [],
  "returns": {},
  "timestamp": 1737510937,
  "chain": 11155111,
  "commit": "1d2fb70"
}