{
  "transactions": [
    {
      "hash": "0x0f5d1adefd3832d3b0e149e41215429dda1dbd026cf8b3324134b3d7bdedf813",
      "transactionType": "CALL",
      "contractName": null,
      "contractAddress": "0xbf4a322f1496e5c3d34a9bcdb4c60567b38c7de2",
      "function": "buy(address)",
      "arguments": [
        "0xC77f7fed3b5Cc8249aDc428c5F44C9063B9734b4"
      ],
      "transaction": {
        "from": "0xc77f7fed3b5cc8249adc428c5f44c9063b9734b4",
        "to": "0xbf4a322f1496e5c3d34a9bcdb4c60567b38c7de2",
        "gas": "0x1b309",
        "value": "0xde0b6b3a7640000",
        "input": "0xf088d547000000000000000000000000c77f7fed3b5cc8249adc428c5f44c9063b9734b4",
        "nonce": "0xe0c",
        "chainId": "0xaa36a7"
      },
      "additionalContracts": [],
      "isFixedGasLimit": false
    }
  ],
  "receipts": [
    {
      "status": "0x1",
      "cumulativeGasUsed": "0x8c8314",
      "logs": [
        {
          "address": "0xbf4a322f1496e5c3d34a9bcdb4c60567b38c7de2",
          "topics": [
            "0xddf252ad1be2c89b69c2b068fc378daa952ba7f163c4a11628f55a4df523b3ef",
            "0x0000000000000000000000000000000000000000000000000000000000000000",
            "0x000000000000000000000000c77f7fed3b5cc8249adc428c5f44c9063b9734b4"
          ],
          "data": "0x0000000000000000000000000000000000000000000000349aa863faec371b53",
          "blockHash": "0x96c87943977e3922b9cb5faf6f72faaa40ab0b9068580c19b3c17eb693d4e3ab",
          "blockNumber": "0x7266f4",
          "transactionHash": "0x0f5d1adefd3832d3b0e149e41215429dda1dbd026cf8b3324134b3d7bdedf813",
          "transactionIndex": "0x39",
          "logIndex": "0x7b",
          "removed": false
        },
        {
          "address": "0xbf4a322f1496e5c3d34a9bcdb4c60567b38c7de2",
          "topics": [
            "0xddf252ad1be2c89b69c2b068fc378daa952ba7f163c4a11628f55a4df523b3ef",
            "0x0000000000000000000000000000000000000000000000000000000000000000",
            "0x000000000000000000000000c77f7fed3b5cc8249adc428c5f44c9063b9734b4"
          ],
          "data": "0x00000000000000000000000000000000000000000000000028d951b11ab10bcd",
          "blockHash": "0x96c87943977e3922b9cb5faf6f72faaa40ab0b9068580c19b3c17eb693d4e3ab",
          "blockNumber": "0x7266f4",
          "transactionHash": "0x0f5d1adefd3832d3b0e149e41215429dda1dbd026cf8b3324134b3d7bdedf813",
          "transactionIndex": "0x39",
          "logIndex": "0x7c",
          "removed": false
        },
        {
          "address": "0xbf4a322f1496e5c3d34a9bcdb4c60567b38c7de2",
          "topics": [
            "0x4afcb4a87cdbd9974efdb92ee48bc8d7cd0ae4bf217004db3d080cbaee652ca7"
          ],
          "data": "0x000000000000000000000000000000000000000000000000000000006787c6bc00000000000000000000000000000000000000000000000000039fe5c8149af40000000000000000000000000000000000000000000000000de0b6b3a7640000",
          "blockHash": "0x96c87943977e3922b9cb5faf6f72faaa40ab0b9068580c19b3c17eb693d4e3ab",
          "blockNumber": "0x7266f4",
          "transactionHash": "0x0f5d1adefd3832d3b0e149e41215429dda1dbd026cf8b3324134b3d7bdedf813",
          "transactionIndex": "0x39",
          "logIndex": "0x7d",
          "removed": false
        }
      ],
      "logsBloom": "0x00000000000000000000000000000000000000000000000000000000000000000000000000000000000000000000000000000000000000004000000000000000000000000000000000000008000000000000001000000000000000000000000000000000020000000000000000000800020000000000000000000010000000000000000000000000000000000000000000000000000008000000010000000000000000000000000000000000000000004000000000000000000000000000000000000002000000800000000000001000000000000000080000000000000020000000000000000000000000000000000000000000000000000000000000000000",
      "type": "0x2",
      "transactionHash": "0x0f5d1adefd3832d3b0e149e41215429dda1dbd026cf8b3324134b3d7bdedf813",
      "transactionIndex": "0x39",
      "blockHash": "0x96c87943977e3922b9cb5faf6f72faaa40ab0b9068580c19b3c17eb693d4e3ab",
      "blockNumber": "0x7266f4",
      "gasUsed": "0x13af6",
      "effectiveGasPrice": "0x39a51b5e7",
      "from": "0xc77f7fed3b5cc8249adc428c5f44c9063b9734b4",
      "to": "0xbf4a322f1496e5c3d34a9bcdb4c60567b38c7de2",
      "contractAddress": null
    }
  ],
  "libraries": [],
  "pending": [],
  "returns": {},
  "timestamp": 1736951485,
  "chain": 11155111,
  "commit": "51a374b"
}