{
  "transactions": [
    {
      "hash": "0x8cbbd981d3b71bca2e0e7929c07ae4481408af2b56684e8a21ecd46e7ee121bc",
      "transactionType": "CALL",
      "contractName": null,
      "contractAddress": "0x270e88f8683660553e8ba4eb2ad7c91a1710d769",
      "function": "buy(address)",
      "arguments": [
        "0xC77f7fed3b5Cc8249aDc428c5F44C9063B9734b4"
      ],
      "transaction": {
        "from": "0xc77f7fed3b5cc8249adc428c5f44c9063b9734b4",
        "to": "0x270e88f8683660553e8ba4eb2ad7c91a1710d769",
        "gas": "0x1b30c",
        "value": "0xde0b6b3a7640000",
        "input": "0xf088d547000000000000000000000000c77f7fed3b5cc8249adc428c5f44c9063b9734b4",
        "nonce": "0x72f",
        "chainId": "0xaa36a7"
      },
      "additionalContracts": [],
      "isFixedGasLimit": false
    }
  ],
  "receipts": [
    {
      "status": "0x1",
      "cumulativeGasUsed": "0x5c3843",
      "logs": [
        {
          "address": "0x270e88f8683660553e8ba4eb2ad7c91a1710d769",
          "topics": [
            "0xddf252ad1be2c89b69c2b068fc378daa952ba7f163c4a11628f55a4df523b3ef",
            "0x0000000000000000000000000000000000000000000000000000000000000000",
            "0x000000000000000000000000c77f7fed3b5cc8249adc428c5f44c9063b9734b4"
          ],
          "data": "0x0000000000000000000000000000000000000000000000280c500f5abf30baef",
          "blockHash": "0xec5f823f69d24320f4659cca584083d4c3a2ebe44f4a89fed7ce1993cffa08bc",
          "blockNumber": "0x725450",
          "transactionHash": "0x8cbbd981d3b71bca2e0e7929c07ae4481408af2b56684e8a21ecd46e7ee121bc",
          "transactionIndex": "0x34",
          "logIndex": "0x65",
          "removed": false
        },
        {
          "address": "0x270e88f8683660553e8ba4eb2ad7c91a1710d769",
          "topics": [
            "0xddf252ad1be2c89b69c2b068fc378daa952ba7f163c4a11628f55a4df523b3ef",
            "0x0000000000000000000000000000000000000000000000000000000000000000",
            "0x000000000000000000000000c77f7fed3b5cc8249adc428c5f44c9063b9734b4"
          ],
          "data": "0x0000000000000000000000000000000000000000000000001f19454251ca35b2",
          "blockHash": "0xec5f823f69d24320f4659cca584083d4c3a2ebe44f4a89fed7ce1993cffa08bc",
          "blockNumber": "0x725450",
          "transactionHash": "0x8cbbd981d3b71bca2e0e7929c07ae4481408af2b56684e8a21ecd46e7ee121bc",
          "transactionIndex": "0x34",
          "logIndex": "0x66",
          "removed": false
        },
        {
          "address": "0x270e88f8683660553e8ba4eb2ad7c91a1710d769",
          "topics": [
            "0x4afcb4a87cdbd9974efdb92ee48bc8d7cd0ae4bf217004db3d080cbaee652ca7"
          ],
          "data": "0x000000000000000000000000000000000000000000000000000000006786e5c80000000000000000000000000000000000000000000000000004c2e891aa08f10000000000000000000000000000000000000000000000000de0b6b3a7640000",
          "blockHash": "0xec5f823f69d24320f4659cca584083d4c3a2ebe44f4a89fed7ce1993cffa08bc",
          "blockNumber": "0x725450",
          "transactionHash": "0x8cbbd981d3b71bca2e0e7929c07ae4481408af2b56684e8a21ecd46e7ee121bc",
          "transactionIndex": "0x34",
          "logIndex": "0x67",
          "removed": false
        }
      ],
      "logsBloom": "0x00000000000000000000000000000000000000000000000000000000000000000000000000000000000000000000000020000000000000004000000000000000000000000000000000000008000000000000000000000000000000000000000000000000020000000000000000000800020000000000000000000010000000000000000000010000000000000000000000000000000000000000010000000000000000000000000000000000000000004000000000000000000000000000000000000002000000800000000000000000000000000000080000008000000020000000000000000000000000000000000000000000000000000000000000000000",
      "type": "0x2",
      "transactionHash": "0x8cbbd981d3b71bca2e0e7929c07ae4481408af2b56684e8a21ecd46e7ee121bc",
      "transactionIndex": "0x34",
      "blockHash": "0xec5f823f69d24320f4659cca584083d4c3a2ebe44f4a89fed7ce1993cffa08bc",
      "blockNumber": "0x725450",
      "gasUsed": "0x13af8",
      "effectiveGasPrice": "0x149ada523",
      "from": "0xc77f7fed3b5cc8249adc428c5f44c9063b9734b4",
      "to": "0x270e88f8683660553e8ba4eb2ad7c91a1710d769",
      "contractAddress": null
    }
  ],
  "libraries": [],
  "pending": [],
  "returns": {},
  "timestamp": 1736893898,
  "chain": 11155111,
  "commit": "51a374b"
}