{
  "transactions": [
    {
      "hash": "0xb92db2c009713cdff52b4e51e556ce4d62fcd70c529d70c9b891a8718870aaae",
      "transactionType": "CALL",
      "contractName": null,
      "contractAddress": "0x270e88f8683660553e8ba4eb2ad7c91a1710d769",
      "function": "sell(uint256)",
      "arguments": [
        "739575838940526646644"
      ],
      "transaction": {
        "from": "0xc77f7fed3b5cc8249adc428c5f44c9063b9734b4",
        "to": "0x270e88f8683660553e8ba4eb2ad7c91a1710d769",
        "gas": "0x16fec",
        "value": "0x0",
        "input": "0xe4849b3200000000000000000000000000000000000000000000002817ad33135f999574",
        "nonce": "0x740",
        "chainId": "0xaa36a7"
      },
      "additionalContracts": [],
      "isFixedGasLimit": false
    }
  ],
  "receipts": [
    {
      "status": "0x1",
      "cumulativeGasUsed": "0x215cadf",
      "logs": [
        {
          "address": "0x270e88f8683660553e8ba4eb2ad7c91a1710d769",
          "topics": [
            "0xddf252ad1be2c89b69c2b068fc378daa952ba7f163c4a11628f55a4df523b3ef",
            "0x000000000000000000000000c77f7fed3b5cc8249adc428c5f44c9063b9734b4",
            "0x0000000000000000000000000000000000000000000000000000000000000000"
          ],
          "data": "0x00000000000000000000000000000000000000000000002817ad33135f999574",
          "blockHash": "0x0eb971f75908eb23767fa4d2b8fe1f27ed66fe47f806b607aee84e35d760a924",
          "blockNumber": "0x725462",
          "transactionHash": "0xb92db2c009713cdff52b4e51e556ce4d62fcd70c529d70c9b891a8718870aaae",
          "transactionIndex": "0x46",
          "logIndex": "0x319",
          "removed": false
        },
        {
          "address": "0x270e88f8683660553e8ba4eb2ad7c91a1710d769",
          "topics": [
            "0x4afcb4a87cdbd9974efdb92ee48bc8d7cd0ae4bf217004db3d080cbaee652ca7"
          ],
          "data": "0x000000000000000000000000000000000000000000000000000000006786e6a00000000000000000000000000000000000000000000000000004c570ad6b78680000000000000000000000000000000000000000000000000dc82874bc75fcbd",
          "blockHash": "0x0eb971f75908eb23767fa4d2b8fe1f27ed66fe47f806b607aee84e35d760a924",
          "blockNumber": "0x725462",
          "transactionHash": "0xb92db2c009713cdff52b4e51e556ce4d62fcd70c529d70c9b891a8718870aaae",
          "transactionIndex": "0x46",
          "logIndex": "0x31a",
          "removed": false
        }
      ],
      "logsBloom": "0x00000000000000000000000000000000000000000000000000000000000000000000000000000000000000000000000020000000000000004000000000000000000000000000000000000008000000000000000000000000000000000000000000000000020000000000000000000800020000000000000000000010000000000000000000010000000000000000000000000000000000000000010000000000000000000000000000000000000000004000000000000000000000000000000000000002000000800000000000000000000000000000080000008000000020000000000000000000000000000000000000000000000000000000000000000000",
      "type": "0x2",
      "transactionHash": "0xb92db2c009713cdff52b4e51e556ce4d62fcd70c529d70c9b891a8718870aaae",
      "transactionIndex": "0x46",
      "blockHash": "0x0eb971f75908eb23767fa4d2b8fe1f27ed66fe47f806b607aee84e35d760a924",
      "blockNumber": "0x725462",
      "gasUsed": "0xfb93",
      "effectiveGasPrice": "0x1329d29d3",
      "from": "0xc77f7fed3b5cc8249adc428c5f44c9063b9734b4",
      "to": "0x270e88f8683660553e8ba4eb2ad7c91a1710d769",
      "contractAddress": null
    }
  ],
  "libraries": [],
  "pending": [],
  "returns": {},
  "timestamp": 1736894113,
  "chain": 11155111,
  "commit": "51a374b"
}