{
  "transactions": [
    {
      "hash": "0xe0c83ad734c096deccd7125a65d0df76e6eccff534423d335433788f60624758",
      "transactionType": "CALL",
      "contractName": null,
      "contractAddress": "0x270e88f8683660553e8ba4eb2ad7c91a1710d769",
      "function": "buy(address)",
      "arguments": [
        "0xC77f7fed3b5Cc8249aDc428c5F44C9063B9734b4"
      ],
      "transaction": {
        "from": "0xc77f7fed3b5cc8249adc428c5f44c9063b9734b4",
        "to": "0x270e88f8683660553e8ba4eb2ad7c91a1710d769",
        "gas": "0x1b30c",
        "value": "0xde0b6b3a7640000",
        "input": "0xf088d547000000000000000000000000c77f7fed3b5cc8249adc428c5f44c9063b9734b4",
        "nonce": "0x689",
        "chainId": "0xaa36a7"
      },
      "additionalContracts": [],
      "isFixedGasLimit": false
    }
  ],
  "receipts": [
    {
      "status": "0x1",
      "cumulativeGasUsed": "0x8fd033",
      "logs": [
        {
          "address": "0x270e88f8683660553e8ba4eb2ad7c91a1710d769",
          "topics": [
            "0xddf252ad1be2c89b69c2b068fc378daa952ba7f163c4a11628f55a4df523b3ef",
            "0x0000000000000000000000000000000000000000000000000000000000000000",
            "0x000000000000000000000000c77f7fed3b5cc8249adc428c5f44c9063b9734b4"
          ],
          "data": "0x000000000000000000000000000000000000000000000028dcfd074c2b2336aa",
          "blockHash": "0xd9db85c08144afa1bc17a63be90863f1ef685879020a1cb25bf02084b76276c4",
          "blockNumber": "0x72538a",
          "transactionHash": "0xe0c83ad734c096deccd7125a65d0df76e6eccff534423d335433788f60624758",
          "transactionIndex": "0x42",
          "logIndex": "0x82",
          "removed": false
        },
        {
          "address": "0x270e88f8683660553e8ba4eb2ad7c91a1710d769",
          "topics": [
            "0xddf252ad1be2c89b69c2b068fc378daa952ba7f163c4a11628f55a4df523b3ef",
            "0x0000000000000000000000000000000000000000000000000000000000000000",
            "0x000000000000000000000000c77f7fed3b5cc8249adc428c5f44c9063b9734b4"
          ],
          "data": "0x0000000000000000000000000000000000000000000000001fbb50769b1c8d1f",
          "blockHash": "0xd9db85c08144afa1bc17a63be90863f1ef685879020a1cb25bf02084b76276c4",
          "blockNumber": "0x72538a",
          "transactionHash": "0xe0c83ad734c096deccd7125a65d0df76e6eccff534423d335433788f60624758",
          "transactionIndex": "0x42",
          "logIndex": "0x83",
          "removed": false
        },
        {
          "address": "0x270e88f8683660553e8ba4eb2ad7c91a1710d769",
          "topics": [
            "0x4afcb4a87cdbd9974efdb92ee48bc8d7cd0ae4bf217004db3d080cbaee652ca7"
          ],
          "data": "0x000000000000000000000000000000000000000000000000000000006786dc800000000000000000000000000000000000000000000000000004aa98842673ce0000000000000000000000000000000000000000000000000de0b6b3a7640000",
          "blockHash": "0xd9db85c08144afa1bc17a63be90863f1ef685879020a1cb25bf02084b76276c4",
          "blockNumber": "0x72538a",
          "transactionHash": "0xe0c83ad734c096deccd7125a65d0df76e6eccff534423d335433788f60624758",
          "transactionIndex": "0x42",
          "logIndex": "0x84",
          "removed": false
        }
      ],
      "logsBloom": "0x00000000000000000000000000000000000000000000000000000000000000000000000000000000000000000000000020000000000000004000000000000000000000000000000000000008000000000000000000000000000000000000000000000000020000000000000000000800020000000000000000000010000000000000000000010000000000000000000000000000000000000000010000000000000000000000000000000000000000004000000000000000000000000000000000000002000000800000000000000000000000000000080000008000000020000000000000000000000000000000000000000000000000000000000000000000",
      "type": "0x2",
      "transactionHash": "0xe0c83ad734c096deccd7125a65d0df76e6eccff534423d335433788f60624758",
      "transactionIndex": "0x42",
      "blockHash": "0xd9db85c08144afa1bc17a63be90863f1ef685879020a1cb25bf02084b76276c4",
      "blockNumber": "0x72538a",
      "gasUsed": "0x13af8",
      "effectiveGasPrice": "0x2108b360a",
      "from": "0xc77f7fed3b5cc8249adc428c5f44c9063b9734b4",
      "to": "0x270e88f8683660553e8ba4eb2ad7c91a1710d769",
      "contractAddress": null
    }
  ],
  "libraries": [],
  "pending": [],
  "returns": {},
  "timestamp": 1736891522,
  "chain": 11155111,
  "commit": "51a374b"
}