{
  "transactions": [
    {
      "hash": "0x051a9583c45029b8a81889792bd529211670fffba1605711db0babdfd92a0df7",
      "transactionType": "CALL",
      "contractName": null,
      "contractAddress": "0x270e88f8683660553e8ba4eb2ad7c91a1710d769",
      "function": "sell(uint256)",
      "arguments": [
        "974200768744662691257"
      ],
      "transaction": {
        "from": "0xc77f7fed3b5cc8249adc428c5f44c9063b9734b4",
        "to": "0x270e88f8683660553e8ba4eb2ad7c91a1710d769",
        "gas": "0x16fec",
        "value": "0x0",
        "input": "0xe4849b32000000000000000000000000000000000000000000000034cfc065a2ea16edb9",
        "nonce": "0x54d",
        "chainId": "0xaa36a7"
      },
      "additionalContracts": [],
      "isFixedGasLimit": false
    }
  ],
  "receipts": [
    {
      "status": "0x1",
      "cumulativeGasUsed": "0x9d1297",
      "logs": [
        {
          "address": "0x270e88f8683660553e8ba4eb2ad7c91a1710d769",
          "topics": [
            "0xddf252ad1be2c89b69c2b068fc378daa952ba7f163c4a11628f55a4df523b3ef",
            "0x000000000000000000000000c77f7fed3b5cc8249adc428c5f44c9063b9734b4",
            "0x0000000000000000000000000000000000000000000000000000000000000000"
          ],
          "data": "0x000000000000000000000000000000000000000000000034cfc065a2ea16edb9",
          "blockHash": "0x5e94fecc32e565c6f5ba2c218e732b4cf24313aa3be540d9721a642435702df4",
          "blockNumber": "0x7251ec",
          "transactionHash": "0x051a9583c45029b8a81889792bd529211670fffba1605711db0babdfd92a0df7",
          "transactionIndex": "0x5a",
          "logIndex": "0x7c",
          "removed": false
        },
        {
          "address": "0x270e88f8683660553e8ba4eb2ad7c91a1710d769",
          "topics": [
            "0x4afcb4a87cdbd9974efdb92ee48bc8d7cd0ae4bf217004db3d080cbaee652ca7"
          ],
          "data": "0x000000000000000000000000000000000000000000000000000000006786c90000000000000000000000000000000000000000000000000000039f57342548310000000000000000000000000000000000000000000000000dc840a5242c0206",
          "blockHash": "0x5e94fecc32e565c6f5ba2c218e732b4cf24313aa3be540d9721a642435702df4",
          "blockNumber": "0x7251ec",
          "transactionHash": "0x051a9583c45029b8a81889792bd529211670fffba1605711db0babdfd92a0df7",
          "transactionIndex": "0x5a",
          "logIndex": "0x7d",
          "removed": false
        }
      ],
      "logsBloom": "0x00000000000000000000000000000000000000000000000000000000000000000000000000000000000000000000000020000000000000004000000000000000000000000000000000000008000000000000000000000000000000000000000000000000020000000000000000000800020000000000000000000010000000000000000000010000000000000000000000000000000000000000010000000000000000000000000000000000000000004000000000000000000000000000000000000002000000800000000000000000000000000000080000008000000020000000000000000000000000000000000000000000000000000000000000000000",
      "type": "0x2",
      "transactionHash": "0x051a9583c45029b8a81889792bd529211670fffba1605711db0babdfd92a0df7",
      "transactionIndex": "0x5a",
      "blockHash": "0x5e94fecc32e565c6f5ba2c218e732b4cf24313aa3be540d9721a642435702df4",
      "blockNumber": "0x7251ec",
      "gasUsed": "0xfb93",
      "effectiveGasPrice": "0x47b582f38",
      "from": "0xc77f7fed3b5cc8249adc428c5f44c9063b9734b4",
      "to": "0x270e88f8683660553e8ba4eb2ad7c91a1710d769",
      "contractAddress": null
    }
  ],
  "libraries": [],
  "pending": [],
  "returns": {},
  "timestamp": 1736886530,
  "chain": 11155111,
  "commit": "51a374b"
}