{
  "transactions": [
    {
      "hash": "0x293542a529ac0e458e4c73cf5b26614a8b2e5341baad2ad726dfab4b6a4bc78c",
      "transactionType": "CALL",
      "contractName": null,
      "contractAddress": "0x8aafd3ede9adb0ff97c7aebce82a919afb1c8764",
      "function": "sell(uint256)",
      "arguments": [
        "10269400010"
      ],
      "transaction": {
        "from": "0xc77f7fed3b5cc8249adc428c5f44c9063b9734b4",
        "to": "0x8aafd3ede9adb0ff97c7aebce82a919afb1c8764",
        "gas": "0x1722a",
        "value": "0x0",
        "input": "0xe4849b3200000000000000000000000000000000000000000000000000000002641a9bca",
        "nonce": "0x130c",
        "chainId": "0xaa36a7"
      },
      "additionalContracts": [],
      "isFixedGasLimit": false
    }
  ],
  "receipts": [
    {
      "status": "0x1",
      "cumulativeGasUsed": "0xa3c819",
      "logs": [
        {
          "address": "0x8aafd3ede9adb0ff97c7aebce82a919afb1c8764",
          "topics": [
            "0xddf252ad1be2c89b69c2b068fc378daa952ba7f163c4a11628f55a4df523b3ef",
            "0x000000000000000000000000c77f7fed3b5cc8249adc428c5f44c9063b9734b4",
            "0x0000000000000000000000000000000000000000000000000000000000000000"
          ],
          "data": "0x000000000000000000000000000000000000000000000000000000025f35050a",
          "blockHash": "0xd353f0736a6cf2572499dd2abf3605823e3b0d010c010724727276c443176e0c",
          "blockNumber": "0x731a17",
          "transactionHash": "0x293542a529ac0e458e4c73cf5b26614a8b2e5341baad2ad726dfab4b6a4bc78c",
          "transactionIndex": "0x68",
          "logIndex": "0x6b",
          "removed": false
        },
        {
          "address": "0x8aafd3ede9adb0ff97c7aebce82a919afb1c8764",
          "topics": [
            "0xddf252ad1be2c89b69c2b068fc378daa952ba7f163c4a11628f55a4df523b3ef",
            "0x000000000000000000000000c77f7fed3b5cc8249adc428c5f44c9063b9734b4",
            "0x000000000000000000000000c77f7fed3b5cc8249adc428c5f44c9063b9734b4"
          ],
          "data": "0x0000000000000000000000000000000000000000000000000000000004e596c0",
          "blockHash": "0xd353f0736a6cf2572499dd2abf3605823e3b0d010c010724727276c443176e0c",
          "blockNumber": "0x731a17",
          "transactionHash": "0x293542a529ac0e458e4c73cf5b26614a8b2e5341baad2ad726dfab4b6a4bc78c",
          "transactionIndex": "0x68",
          "logIndex": "0x6c",
          "removed": false
        },
        {
          "address": "0x8aafd3ede9adb0ff97c7aebce82a919afb1c8764",
          "topics": [
            "0x4afcb4a87cdbd9974efdb92ee48bc8d7cd0ae4bf217004db3d080cbaee652ca7"
          ],
          "data": "0x00000000000000000000000000000000000000000000000000000000679035e4000000000000000000000000000000000000000000000000000b5ba59d74cb1e0000000000000000000000000000000000000000000000000000000001f4f6d1",
          "blockHash": "0xd353f0736a6cf2572499dd2abf3605823e3b0d010c010724727276c443176e0c",
          "blockNumber": "0x731a17",
          "transactionHash": "0x293542a529ac0e458e4c73cf5b26614a8b2e5341baad2ad726dfab4b6a4bc78c",
          "transactionIndex": "0x68",
          "logIndex": "0x6d",
          "removed": false
        }
      ],
      "logsBloom": "0x00000000000000000000000000000000000000000600000000000000000000000000000000000000000000000000000000000000000000004000000000000000000000000000004000000008000000000000000000000000000000000000000000000000020000000000000000000800020000000000000000000010000000000000000000000000000000000000000000000000000000000000010000000000000000000000000000000000000000004000000000000000000000000000000000000002000000800000000000000000000000000000080000000000000020000000000000000000000000000000000000000000000000000000000000000000",
      "type": "0x2",
      "transactionHash": "0x293542a529ac0e458e4c73cf5b26614a8b2e5341baad2ad726dfab4b6a4bc78c",
      "transactionIndex": "0x68",
      "blockHash": "0xd353f0736a6cf2572499dd2abf3605823e3b0d010c010724727276c443176e0c",
      "blockNumber": "0x731a17",
      "gasUsed": "0xfd1b",
      "effectiveGasPrice": "0x482265ad",
      "from": "0xc77f7fed3b5cc8249adc428c5f44c9063b9734b4",
      "to": "0x8aafd3ede9adb0ff97c7aebce82a919afb1c8764",
      "contractAddress": null
    }
  ],
  "libraries": [],
  "pending": [],
  "returns": {},
  "timestamp": 1737504230,
  "chain": 11155111,
  "commit": "1d2fb70"
}