{
  "transactions": [
    {
      "hash": "0xe3124a6622a1d7c81b2bc6efead58ea34e541ce4cc9f009434ef1e44565e0677",
      "transactionType": "CALL",
      "contractName": null,
      "contractAddress": "0x8aafd3ede9adb0ff97c7aebce82a919afb1c8764",
      "function": "sell(uint256)",
      "arguments": [
        "6927094617"
      ],
      "transaction": {
        "from": "0xc77f7fed3b5cc8249adc428c5f44c9063b9734b4",
        "to": "0x8aafd3ede9adb0ff97c7aebce82a919afb1c8764",
        "gas": "0x1722a",
        "value": "0x0",
        "input": "0xe4849b32000000000000000000000000000000000000000000000000000000019ce31359",
        "nonce": "0x14e9",
        "chainId": "0xaa36a7"
      },
      "additionalContracts": [],
      "isFixedGasLimit": false
    }
  ],
  "receipts": [
    {
      "status": "0x1",
      "cumulativeGasUsed": "0x976983",
      "logs": [
        {
          "address": "0x8aafd3ede9adb0ff97c7aebce82a919afb1c8764",
          "topics": [
            "0xddf252ad1be2c89b69c2b068fc378daa952ba7f163c4a11628f55a4df523b3ef",
            "0x000000000000000000000000c77f7fed3b5cc8249adc428c5f44c9063b9734b4",
            "0x0000000000000000000000000000000000000000000000000000000000000000"
          ],
          "data": "0x0000000000000000000000000000000000000000000000000000000199957ba5",
          "blockHash": "0x4ac5c5bdddf1a7a07e75b12f87dd0f2289a77a665b8f8d8f5b58e8a82dbb4b6b",
          "blockNumber": "0x731c49",
          "transactionHash": "0xe3124a6622a1d7c81b2bc6efead58ea34e541ce4cc9f009434ef1e44565e0677",
          "transactionIndex": "0x50",
          "logIndex": "0xb4",
          "removed": false
        },
        {
          "address": "0x8aafd3ede9adb0ff97c7aebce82a919afb1c8764",
          "topics": [
            "0xddf252ad1be2c89b69c2b068fc378daa952ba7f163c4a11628f55a4df523b3ef",
            "0x000000000000000000000000c77f7fed3b5cc8249adc428c5f44c9063b9734b4",
            "0x000000000000000000000000c77f7fed3b5cc8249adc428c5f44c9063b9734b4"
          ],
          "data": "0x00000000000000000000000000000000000000000000000000000000034d97b4",
          "blockHash": "0x4ac5c5bdddf1a7a07e75b12f87dd0f2289a77a665b8f8d8f5b58e8a82dbb4b6b",
          "blockNumber": "0x731c49",
          "transactionHash": "0xe3124a6622a1d7c81b2bc6efead58ea34e541ce4cc9f009434ef1e44565e0677",
          "transactionIndex": "0x50",
          "logIndex": "0xb5",
          "removed": false
        },
        {
          "address": "0x8aafd3ede9adb0ff97c7aebce82a919afb1c8764",
          "topics": [
            "0x4afcb4a87cdbd9974efdb92ee48bc8d7cd0ae4bf217004db3d080cbaee652ca7"
          ],
          "data": "0x00000000000000000000000000000000000000000000000000000000679050480000000000000000000000000000000000000000000000000010cab353bae69f0000000000000000000000000000000000000000000000000000000001f39569",
          "blockHash": "0x4ac5c5bdddf1a7a07e75b12f87dd0f2289a77a665b8f8d8f5b58e8a82dbb4b6b",
          "blockNumber": "0x731c49",
          "transactionHash": "0xe3124a6622a1d7c81b2bc6efead58ea34e541ce4cc9f009434ef1e44565e0677",
          "transactionIndex": "0x50",
          "logIndex": "0xb6",
          "removed": false
        }
      ],
      "logsBloom": "0x00000000000000000000000000000000000000000600000000000000000000000000000000000000000000000000000000000000000000004000000000000000000000000000004000000008000000000000000000000000000000000000000000000000020000000000000000000800020000000000000000000010000000000000000000000000000000000000000000000000000000000000010000000000000000000000000000000000000000004000000000000000000000000000000000000002000000800000000000000000000000000000080000000000000020000000000000000000000000000000000000000000000000000000000000000000",
      "type": "0x2",
      "transactionHash": "0xe3124a6622a1d7c81b2bc6efead58ea34e541ce4cc9f009434ef1e44565e0677",
      "transactionIndex": "0x50",
      "blockHash": "0x4ac5c5bdddf1a7a07e75b12f87dd0f2289a77a665b8f8d8f5b58e8a82dbb4b6b",
      "blockNumber": "0x731c49",
      "gasUsed": "0xfd1b",
      "effectiveGasPrice": "0x15873c32b",
      "from": "0xc77f7fed3b5cc8249adc428c5f44c9063b9734b4",
      "to": "0x8aafd3ede9adb0ff97c7aebce82a919afb1c8764",
      "contractAddress": null
    }
  ],
  "libraries": [],
  "pending": [],
  "returns": {},
  "timestamp": 1737510985,
  "chain": 11155111,
  "commit": "1d2fb70"
}