{
  "transactions": [
    {
      "hash": "0xbc51910636bf5339e52b52a205bcb7a83749af6ad294fe1c4ba8382264a6dfb4",
      "transactionType": "CALL",
      "contractName": null,
      "contractAddress": "0x8aafd3ede9adb0ff97c7aebce82a919afb1c8764",
      "function": "sell(uint256)",
      "arguments": [
        "231461751403218408112"
      ],
      "transaction": {
        "from": "0xc77f7fed3b5cc8249adc428c5f44c9063b9734b4",
        "to": "0x8aafd3ede9adb0ff97c7aebce82a919afb1c8764",
        "gas": "0x17270",
        "value": "0x0",
        "input": "0xe4849b3200000000000000000000000000000000000000000000000c8c2d5490769b12b0",
        "nonce": "0x1466",
        "chainId": "0xaa36a7"
      },
      "additionalContracts": [],
      "isFixedGasLimit": false
    }
  ],
  "receipts": [
    {
      "status": "0x1",
      "cumulativeGasUsed": "0x15b0555",
      "logs": [
        {
          "address": "0x8aafd3ede9adb0ff97c7aebce82a919afb1c8764",
          "topics": [
            "0xddf252ad1be2c89b69c2b068fc378daa952ba7f163c4a11628f55a4df523b3ef",
            "0x000000000000000000000000c77f7fed3b5cc8249adc428c5f44c9063b9734b4",
            "0x0000000000000000000000000000000000000000000000000000000000000000"
          ],
          "data": "0x00000000000000000000000000000000000000000000000c727acaabfac6e370",
          "blockHash": "0x5166459f5166baefe05a8161b80802bc2631891b9c6d6c7bf8bd1e82ed5ac0c7",
          "blockNumber": "0x731bb1",
          "transactionHash": "0xbc51910636bf5339e52b52a205bcb7a83749af6ad294fe1c4ba8382264a6dfb4",
          "transactionIndex": "0xb0",
          "logIndex": "0x9b",
          "removed": false
        },
        {
          "address": "0x8aafd3ede9adb0ff97c7aebce82a919afb1c8764",
          "topics": [
            "0xddf252ad1be2c89b69c2b068fc378daa952ba7f163c4a11628f55a4df523b3ef",
            "0x000000000000000000000000c77f7fed3b5cc8249adc428c5f44c9063b9734b4",
            "0x000000000000000000000000c77f7fed3b5cc8249adc428c5f44c9063b9734b4"
          ],
          "data": "0x00000000000000000000000000000000000000000000000019b289e47bd42f40",
          "blockHash": "0x5166459f5166baefe05a8161b80802bc2631891b9c6d6c7bf8bd1e82ed5ac0c7",
          "blockNumber": "0x731bb1",
          "transactionHash": "0xbc51910636bf5339e52b52a205bcb7a83749af6ad294fe1c4ba8382264a6dfb4",
          "transactionIndex": "0xb0",
          "logIndex": "0x9c",
          "removed": false
        },
        {
          "address": "0x8aafd3ede9adb0ff97c7aebce82a919afb1c8764",
          "topics": [
            "0x4afcb4a87cdbd9974efdb92ee48bc8d7cd0ae4bf217004db3d080cbaee652ca7"
          ],
          "data": "0x0000000000000000000000000000000000000000000000000000000067904928000000000000000000000000000000000000000000000000000f5815fd1a58fa0000000000000000000000000000000000000000000000000dcd977723ea4c87",
          "blockHash": "0x5166459f5166baefe05a8161b80802bc2631891b9c6d6c7bf8bd1e82ed5ac0c7",
          "blockNumber": "0x731bb1",
          "transactionHash": "0xbc51910636bf5339e52b52a205bcb7a83749af6ad294fe1c4ba8382264a6dfb4",
          "transactionIndex": "0xb0",
          "logIndex": "0x9d",
          "removed": false
        }
      ],
      "logsBloom": "0x00000000000000000000000000000000000000000600000000000000000000000000000000000000000000000000000000000000000000004000000000000000000000000000004000000008000000000000000000000000000000000000000000000000020000000000000000000800020000000000000000000010000000000000000000000000000000000000000000000000000000000000010000000000000000000000000000000000000000004000000000000000000000000000000000000002000000800000000000000000000000000000080000000000000020000000000000000000000000000000000000000000000000000000000000000000",
      "type": "0x2",
      "transactionHash": "0xbc51910636bf5339e52b52a205bcb7a83749af6ad294fe1c4ba8382264a6dfb4",
      "transactionIndex": "0xb0",
      "blockHash": "0x5166459f5166baefe05a8161b80802bc2631891b9c6d6c7bf8bd1e82ed5ac0c7",
      "blockNumber": "0x731bb1",
      "gasUsed": "0xfd4b",
      "effectiveGasPrice": "0xfa9a4e98",
      "from": "0xc77f7fed3b5cc8249adc428c5f44c9063b9734b4",
      "to": "0x8aafd3ede9adb0ff97c7aebce82a919afb1c8764",
      "contractAddress": null
    }
  ],
  "libraries": [],
  "pending": [],
  "returns": {},
  "timestamp": 1737509161,
  "chain": 11155111,
  "commit": "1d2fb70"
}