{
  "transactions": [
    {
      "hash": "0x0e04c93713bdd59b48477b3c936dc1346fb023b348619b4ddf21bd819a790ce8",
      "transactionType": "CALL",
      "contractName": null,
      "contractAddress": "0xbf4a322f1496e5c3d34a9bcdb4c60567b38c7de2",
      "function": "sell(uint256)",
      "arguments": [
        "981034215505185829013"
      ],
      "transaction": {
        "from": "0xc77f7fed3b5cc8249adc428c5f44c9063b9734b4",
        "to": "0xbf4a322f1496e5c3d34a9bcdb4c60567b38c7de2",
        "gas": "0x16fea",
        "value": "0x0",
        "input": "0xe4849b320000000000000000000000000000000000000000000000352e95ad428a9d7095",
        "nonce": "0xbcb",
        "chainId": "0xaa36a7"
      },
      "additionalContracts": [],
      "isFixedGasLimit": false
    }
  ],
  "receipts": [
    {
      "status": "0x1",
      "cumulativeGasUsed": "0xe24160",
      "logs": [
        {
          "address": "0xbf4a322f1496e5c3d34a9bcdb4c60567b38c7de2",
          "topics": [
            "0xddf252ad1be2c89b69c2b068fc378daa952ba7f163c4a11628f55a4df523b3ef",
            "0x000000000000000000000000c77f7fed3b5cc8249adc428c5f44c9063b9734b4",
            "0x0000000000000000000000000000000000000000000000000000000000000000"
          ],
          "data": "0x0000000000000000000000000000000000000000000000352e95ad428a9d7095",
          "blockHash": "0x6ccbaba701bfaa3dc9e44b7fed8f41ffae3251a5c0072775a6c8ab5b19e5a9b4",
          "blockNumber": "0x725bea",
          "transactionHash": "0x0e04c93713bdd59b48477b3c936dc1346fb023b348619b4ddf21bd819a790ce8",
          "transactionIndex": "0x71",
          "logIndex": "0xbf",
          "removed": false
        },
        {
          "address": "0xbf4a322f1496e5c3d34a9bcdb4c60567b38c7de2",
          "topics": [
            "0x4afcb4a87cdbd9974efdb92ee48bc8d7cd0ae4bf217004db3d080cbaee652ca7"
          ],
          "data": "0x00000000000000000000000000000000000000000000000000000000678741540000000000000000000000000000000000000000000000000003989daeadc0ec0000000000000000000000000000000000000000000000000dc7e3e4788cec1b",
          "blockHash": "0x6ccbaba701bfaa3dc9e44b7fed8f41ffae3251a5c0072775a6c8ab5b19e5a9b4",
          "blockNumber": "0x725bea",
          "transactionHash": "0x0e04c93713bdd59b48477b3c936dc1346fb023b348619b4ddf21bd819a790ce8",
          "transactionIndex": "0x71",
          "logIndex": "0xc0",
          "removed": false
        }
      ],
      "logsBloom": "0x00000000000000000000000000000000000000000000000000000000000000000000000000000000000000000000000000000000000000004000000000000000000000000000000000000008000000000000001000000000000000000000000000000000020000000000000000000800020000000000000000000010000000000000000000000000000000000000000000000000000008000000010000000000000000000000000000000000000000004000000000000000000000000000000000000002000000800000000000001000000000000000080000000000000020000000000000000000000000000000000000000000000000000000000000000000",
      "type": "0x2",
      "transactionHash": "0x0e04c93713bdd59b48477b3c936dc1346fb023b348619b4ddf21bd819a790ce8",
      "transactionIndex": "0x71",
      "blockHash": "0x6ccbaba701bfaa3dc9e44b7fed8f41ffae3251a5c0072775a6c8ab5b19e5a9b4",
      "blockNumber": "0x725bea",
      "gasUsed": "0xfb91",
      "effectiveGasPrice": "0x7f1056ac",
      "from": "0xc77f7fed3b5cc8249adc428c5f44c9063b9734b4",
      "to": "0xbf4a322f1496e5c3d34a9bcdb4c60567b38c7de2",
      "contractAddress": null
    }
  ],
  "libraries": [],
  "pending": [],
  "returns": {},
  "timestamp": 1736917333,
  "chain": 11155111,
  "commit": "51a374b"
}