{
  "transactions": [
    {
      "hash": "0xa7c4e7698fcd68a25f385ad622083cc6da148aaf88b4b952d74f4fbf5640d8c1",
      "transactionType": "CALL",
      "contractName": null,
      "contractAddress": "0xbf4a322f1496e5c3d34a9bcdb4c60567b38c7de2",
      "function": "sell(uint256)",
      "arguments": [
        "978484427024942860413"
      ],
      "transaction": {
        "from": "0xc77f7fed3b5cc8249adc428c5f44c9063b9734b4",
        "to": "0xbf4a322f1496e5c3d34a9bcdb4c60567b38c7de2",
        "gas": "0x16fea",
        "value": "0x0",
        "input": "0xe4849b320000000000000000000000000000000000000000000000350b3302258159887d",
        "nonce": "0xc89",
        "chainId": "0xaa36a7"
      },
      "additionalContracts": [],
      "isFixedGasLimit": false
    }
  ],
  "receipts": [
    {
      "status": "0x1",
      "cumulativeGasUsed": "0x796d32",
      "logs": [
        {
          "address": "0xbf4a322f1496e5c3d34a9bcdb4c60567b38c7de2",
          "topics": [
            "0xddf252ad1be2c89b69c2b068fc378daa952ba7f163c4a11628f55a4df523b3ef",
            "0x000000000000000000000000c77f7fed3b5cc8249adc428c5f44c9063b9734b4",
            "0x0000000000000000000000000000000000000000000000000000000000000000"
          ],
          "data": "0x0000000000000000000000000000000000000000000000350b3302258159887d",
          "blockHash": "0x6f644b198892d021c7854c49aeaf6f6fabb68760889b6f28c82a3b4d91963ad5",
          "blockNumber": "0x725ccc",
          "transactionHash": "0xa7c4e7698fcd68a25f385ad622083cc6da148aaf88b4b952d74f4fbf5640d8c1",
          "transactionIndex": "0x48",
          "logIndex": "0x4d",
          "removed": false
        },
        {
          "address": "0xbf4a322f1496e5c3d34a9bcdb4c60567b38c7de2",
          "topics": [
            "0x4afcb4a87cdbd9974efdb92ee48bc8d7cd0ae4bf217004db3d080cbaee652ca7"
          ],
          "data": "0x0000000000000000000000000000000000000000000000000000000067874c0400000000000000000000000000000000000000000000000000039b03ceaed1880000000000000000000000000000000000000000000000000dc7e3de8ae503fa",
          "blockHash": "0x6f644b198892d021c7854c49aeaf6f6fabb68760889b6f28c82a3b4d91963ad5",
          "blockNumber": "0x725ccc",
          "transactionHash": "0xa7c4e7698fcd68a25f385ad622083cc6da148aaf88b4b952d74f4fbf5640d8c1",
          "transactionIndex": "0x48",
          "logIndex": "0x4e",
          "removed": false
        }
      ],
      "logsBloom": "0x00000000000000000000000000000000000000000000000000000000000000000000000000000000000000000000000000000000000000004000000000000000000000000000000000000008000000000000001000000000000000000000000000000000020000000000000000000800020000000000000000000010000000000000000000000000000000000000000000000000000008000000010000000000000000000000000000000000000000004000000000000000000000000000000000000002000000800000000000001000000000000000080000000000000020000000000000000000000000000000000000000000000000000000000000000000",
      "type": "0x2",
      "transactionHash": "0xa7c4e7698fcd68a25f385ad622083cc6da148aaf88b4b952d74f4fbf5640d8c1",
      "transactionIndex": "0x48",
      "blockHash": "0x6f644b198892d021c7854c49aeaf6f6fabb68760889b6f28c82a3b4d91963ad5",
      "blockNumber": "0x725ccc",
      "gasUsed": "0xfb91",
      "effectiveGasPrice": "0x291745603",
      "from": "0xc77f7fed3b5cc8249adc428c5f44c9063b9734b4",
      "to": "0xbf4a322f1496e5c3d34a9bcdb4c60567b38c7de2",
      "contractAddress": null
    }
  ],
  "libraries": [],
  "pending": [],
  "returns": {},
  "timestamp": 1736920069,
  "chain": 11155111,
  "commit": "51a374b"
}