{
  "transactions": [
    {
      "hash": "0xd4158d0123e1ff1d47312e1f508d7718d7469a7b3245eeea3a957e57910c2b9c",
      "transactionType": "CALL",
      "contractName": null,
      "contractAddress": "0x270e88f8683660553e8ba4eb2ad7c91a1710d769",
      "function": "sell(uint256)",
      "arguments": [
        "972053555703385375995"
      ],
      "transaction": {
        "from": "0xc77f7fed3b5cc8249adc428c5f44c9063b9734b4",
        "to": "0x270e88f8683660553e8ba4eb2ad7c91a1710d769",
        "gas": "0x16fec",
        "value": "0x0",
        "input": "0xe4849b32000000000000000000000000000000000000000000000034b1f3f6c073ab44fb",
        "nonce": "0x55b",
        "chainId": "0xaa36a7"
      },
      "additionalContracts": [],
      "isFixedGasLimit": false
    }
  ],
  "receipts": [
    {
      "status": "0x1",
      "cumulativeGasUsed": "0xcd1ecd",
      "logs": [
        {
          "address": "0x270e88f8683660553e8ba4eb2ad7c91a1710d769",
          "topics": [
            "0xddf252ad1be2c89b69c2b068fc378daa952ba7f163c4a11628f55a4df523b3ef",
            "0x000000000000000000000000c77f7fed3b5cc8249adc428c5f44c9063b9734b4",
            "0x0000000000000000000000000000000000000000000000000000000000000000"
          ],
          "data": "0x000000000000000000000000000000000000000000000034b1f3f6c073ab44fb",
          "blockHash": "0x5f074e8e48d9aeb7e3dde06055f6d8119b22fa52d9f802396a18630a1c52e11e",
          "blockNumber": "0x7251fe",
          "transactionHash": "0xd4158d0123e1ff1d47312e1f508d7718d7469a7b3245eeea3a957e57910c2b9c",
          "transactionIndex": "0x4c",
          "logIndex": "0x8d",
          "removed": false
        },
        {
          "address": "0x270e88f8683660553e8ba4eb2ad7c91a1710d769",
          "topics": [
            "0x4afcb4a87cdbd9974efdb92ee48bc8d7cd0ae4bf217004db3d080cbaee652ca7"
          ],
          "data": "0x000000000000000000000000000000000000000000000000000000006786c9d80000000000000000000000000000000000000000000000000003a16370e721180000000000000000000000000000000000000000000000000dc8406cafbad1fe",
          "blockHash": "0x5f074e8e48d9aeb7e3dde06055f6d8119b22fa52d9f802396a18630a1c52e11e",
          "blockNumber": "0x7251fe",
          "transactionHash": "0xd4158d0123e1ff1d47312e1f508d7718d7469a7b3245eeea3a957e57910c2b9c",
          "transactionIndex": "0x4c",
          "logIndex": "0x8e",
          "removed": false
        }
      ],
      "logsBloom": "0x00000000000000000000000000000000000000000000000000000000000000000000000000000000000000000000000020000000000000004000000000000000000000000000000000000008000000000000000000000000000000000000000000000000020000000000000000000800020000000000000000000010000000000000000000010000000000000000000000000000000000000000010000000000000000000000000000000000000000004000000000000000000000000000000000000002000000800000000000000000000000000000080000008000000020000000000000000000000000000000000000000000000000000000000000000000",
      "type": "0x2",
      "transactionHash": "0xd4158d0123e1ff1d47312e1f508d7718d7469a7b3245eeea3a957e57910c2b9c",
      "transactionIndex": "0x4c",
      "blockHash": "0x5f074e8e48d9aeb7e3dde06055f6d8119b22fa52d9f802396a18630a1c52e11e",
      "blockNumber": "0x7251fe",
      "gasUsed": "0xfb93",
      "effectiveGasPrice": "0x48430c0a5",
      "from": "0xc77f7fed3b5cc8249adc428c5f44c9063b9734b4",
      "to": "0x270e88f8683660553e8ba4eb2ad7c91a1710d769",
      "contractAddress": null
    }
  ],
  "libraries": [],
  "pending": [],
  "returns": {},
  "timestamp": 1736886746,
  "chain": 11155111,
  "commit": "51a374b"
}