{
  "transactions": [
    {
      "hash": "0xd77e125663b101e359688c21ab89711fac7cc8300e4699bedb6c7bc5b19d9d2c",
      "transactionType": "CALL",
      "contractName": null,
      "contractAddress": "0x8aafd3ede9adb0ff97c7aebce82a919afb1c8764",
      "function": "sell(uint256)",
      "arguments": [
        "186150034"
      ],
      "transaction": {
        "from": "0xc77f7fed3b5cc8249adc428c5f44c9063b9734b4",
        "to": "0x8aafd3ede9adb0ff97c7aebce82a919afb1c8764",
        "gas": "0x14e6c",
        "value": "0x0",
        "input": "0xe4849b32000000000000000000000000000000000000000000000000000000000b186c92",
        "nonce": "0x1083",
        "chainId": "0xaa36a7"
      },
      "additionalContracts": [],
      "isFixedGasLimit": false
    }
  ],
  "receipts": [
    {
      "status": "0x1",
      "cumulativeGasUsed": "0x160c198",
      "logs": [
        {
          "address": "0x8aafd3ede9adb0ff97c7aebce82a919afb1c8764",
          "topics": [
            "0xddf252ad1be2c89b69c2b068fc378daa952ba7f163c4a11628f55a4df523b3ef",
            "0x000000000000000000000000c77f7fed3b5cc8249adc428c5f44c9063b9734b4",
            "0x0000000000000000000000000000000000000000000000000000000000000000"
          ],
          "data": "0x000000000000000000000000000000000000000000000000000000000b01b362",
          "blockHash": "0xf25c3a7103c7cd02f3b3b88498232ab570a04eb606474f4b66f881a2a27c8ae7",
          "blockNumber": "0x73170e",
          "transactionHash": "0xd77e125663b101e359688c21ab89711fac7cc8300e4699bedb6c7bc5b19d9d2c",
          "transactionIndex": "0xe1",
          "logIndex": "0x172",
          "removed": false
        },
        {
          "address": "0x8aafd3ede9adb0ff97c7aebce82a919afb1c8764",
          "topics": [
            "0xddf252ad1be2c89b69c2b068fc378daa952ba7f163c4a11628f55a4df523b3ef",
            "0x000000000000000000000000c77f7fed3b5cc8249adc428c5f44c9063b9734b4",
            "0x000000000000000000000000c77f7fed3b5cc8249adc428c5f44c9063b9734b4"
          ],
          "data": "0x000000000000000000000000000000000000000000000000000000000016b930",
          "blockHash": "0xf25c3a7103c7cd02f3b3b88498232ab570a04eb606474f4b66f881a2a27c8ae7",
          "blockNumber": "0x73170e",
          "transactionHash": "0xd77e125663b101e359688c21ab89711fac7cc8300e4699bedb6c7bc5b19d9d2c",
          "transactionIndex": "0xe1",
          "logIndex": "0x173",
          "removed": false
        },
        {
          "address": "0x8aafd3ede9adb0ff97c7aebce82a919afb1c8764",
          "topics": [
            "0x4afcb4a87cdbd9974efdb92ee48bc8d7cd0ae4bf217004db3d080cbaee652ca7"
          ],
          "data": "0x00000000000000000000000000000000000000000000000000000000679011600000000000000000000000000000000000000000000000000004f9471c971ebf000000000000000000000000000000000000000000000000000000000003f9ff",
          "blockHash": "0xf25c3a7103c7cd02f3b3b88498232ab570a04eb606474f4b66f881a2a27c8ae7",
          "blockNumber": "0x73170e",
          "transactionHash": "0xd77e125663b101e359688c21ab89711fac7cc8300e4699bedb6c7bc5b19d9d2c",
          "transactionIndex": "0xe1",
          "logIndex": "0x174",
          "removed": false
        }
      ],
      "logsBloom": "0x00000000000000000000000000000000000000000600000000000000000000000000000000000000000000000000000000000000000000004000000000000000000000000000004000000008000000000000000000000000000000000000000000000000020000000000000000000800020000000000000000000010000000000000000000000000000000000000000000000000000000000000010000000000000000000000000000000000000000004000000000000000000000000000000000000002000000800000000000000000000000000000080000000000000020000000000000000000000000000000000000000000000000000000000000000000",
      "type": "0x2",
      "transactionHash": "0xd77e125663b101e359688c21ab89711fac7cc8300e4699bedb6c7bc5b19d9d2c",
      "transactionIndex": "0xe1",
      "blockHash": "0xf25c3a7103c7cd02f3b3b88498232ab570a04eb606474f4b66f881a2a27c8ae7",
      "blockNumber": "0x73170e",
      "gasUsed": "0xf21f",
      "effectiveGasPrice": "0x376c5ad0",
      "from": "0xc77f7fed3b5cc8249adc428c5f44c9063b9734b4",
      "to": "0x8aafd3ede9adb0ff97c7aebce82a919afb1c8764",
      "contractAddress": null
    }
  ],
  "libraries": [],
  "pending": [],
  "returns": {},
  "timestamp": 1737494885,
  "chain": 11155111,
  "commit": "1d2fb70"
}