{
  "transactions": [
    {
      "hash": "0x5dbb133229656a97634c8bbd1dcae2c074983797a80ee331ec4b6b4418360b8c",
      "transactionType": "CALL",
      "contractName": null,
      "contractAddress": "0xbf4a322f1496e5c3d34a9bcdb4c60567b38c7de2",
      "function": "sell(uint256)",
      "arguments": [
        "987290008687987891835"
      ],
      "transaction": {
        "from": "0xc77f7fed3b5cc8249adc428c5f44c9063b9734b4",
        "to": "0xbf4a322f1496e5c3d34a9bcdb4c60567b38c7de2",
        "gas": "0x16fea",
        "value": "0x0",
        "input": "0xe4849b320000000000000000000000000000000000000000000000358566b803dbd79e7b",
        "nonce": "0x9fd",
        "chainId": "0xaa36a7"
      },
      "additionalContracts": [],
      "isFixedGasLimit": false
    }
  ],
  "receipts": [
    {
      "status": "0x1",
      "cumulativeGasUsed": "0x88a03f",
      "logs": [
        {
          "address": "0xbf4a322f1496e5c3d34a9bcdb4c60567b38c7de2",
          "topics": [
            "0xddf252ad1be2c89b69c2b068fc378daa952ba7f163c4a11628f55a4df523b3ef",
            "0x000000000000000000000000c77f7fed3b5cc8249adc428c5f44c9063b9734b4",
            "0x0000000000000000000000000000000000000000000000000000000000000000"
          ],
          "data": "0x0000000000000000000000000000000000000000000000358566b803dbd79e7b",
          "blockHash": "0xef5296e52e663db0840dec6f26482a8cef718fb14c1f96c7da3cc714a015b0e1",
          "blockNumber": "0x7259b5",
          "transactionHash": "0x5dbb133229656a97634c8bbd1dcae2c074983797a80ee331ec4b6b4418360b8c",
          "transactionIndex": "0x56",
          "logIndex": "0x7e",
          "removed": false
        },
        {
          "address": "0xbf4a322f1496e5c3d34a9bcdb4c60567b38c7de2",
          "topics": [
            "0x4afcb4a87cdbd9974efdb92ee48bc8d7cd0ae4bf217004db3d080cbaee652ca7"
          ],
          "data": "0x00000000000000000000000000000000000000000000000000000000678726c0000000000000000000000000000000000000000000000000000392c86468422a0000000000000000000000000000000000000000000000000dc7e3f304015263",
          "blockHash": "0xef5296e52e663db0840dec6f26482a8cef718fb14c1f96c7da3cc714a015b0e1",
          "blockNumber": "0x7259b5",
          "transactionHash": "0x5dbb133229656a97634c8bbd1dcae2c074983797a80ee331ec4b6b4418360b8c",
          "transactionIndex": "0x56",
          "logIndex": "0x7f",
          "removed": false
        }
      ],
      "logsBloom": "0x00000000000000000000000000000000000000000000000000000000000000000000000000000000000000000000000000000000000000004000000000000000000000000000000000000008000000000000001000000000000000000000000000000000020000000000000000000800020000000000000000000010000000000000000000000000000000000000000000000000000008000000010000000000000000000000000000000000000000004000000000000000000000000000000000000002000000800000000000001000000000000000080000000000000020000000000000000000000000000000000000000000000000000000000000000000",
      "type": "0x2",
      "transactionHash": "0x5dbb133229656a97634c8bbd1dcae2c074983797a80ee331ec4b6b4418360b8c",
      "transactionIndex": "0x56",
      "blockHash": "0xef5296e52e663db0840dec6f26482a8cef718fb14c1f96c7da3cc714a015b0e1",
      "blockNumber": "0x7259b5",
      "gasUsed": "0xfb91",
      "effectiveGasPrice": "0x30781649c",
      "from": "0xc77f7fed3b5cc8249adc428c5f44c9063b9734b4",
      "to": "0xbf4a322f1496e5c3d34a9bcdb4c60567b38c7de2",
      "contractAddress": null
    }
  ],
  "libraries": [],
  "pending": [],
  "returns": {},
  "timestamp": 1736910529,
  "chain": 11155111,
  "commit": "51a374b"
}