{
  "transactions": [
    {
      "hash": "0xb70a149897af817d261ae586c8e9f758effdbf0952d52d93dec45d3bf5cebdb8",
      "transactionType": "CALL",
      "contractName": null,
      "contractAddress": "0x8aafd3ede9adb0ff97c7aebce82a919afb1c8764",
      "function": "sell(uint256)",
      "arguments": [
        "45484323"
      ],
      "transaction": {
        "from": "0xc77f7fed3b5cc8249adc428c5f44c9063b9734b4",
        "to": "0x8aafd3ede9adb0ff97c7aebce82a919afb1c8764",
        "gas": "0x15d88",
        "value": "0x0",
        "input": "0xe4849b320000000000000000000000000000000000000000000000000000000002b60923",
        "nonce": "0x1625",
        "chainId": "0xaa36a7"
      },
      "additionalContracts": [],
      "isFixedGasLimit": false
    }
  ],
  "receipts": [
    {
      "status": "0x1",
      "cumulativeGasUsed": "0xb4854a",
      "logs": [
        {
          "address": "0x8aafd3ede9adb0ff97c7aebce82a919afb1c8764",
          "topics": [
            "0xddf252ad1be2c89b69c2b068fc378daa952ba7f163c4a11628f55a4df523b3ef",
            "0x000000000000000000000000c77f7fed3b5cc8249adc428c5f44c9063b9734b4",
            "0x0000000000000000000000000000000000000000000000000000000000000000"
          ],
          "data": "0x0000000000000000000000000000000000000000000000000000000002b07bc1",
          "blockHash": "0x5cdf6507727202f8dc765a29208f4681deb9310477e8d8c6229b454d0574e1e2",
          "blockNumber": "0x731dbb",
          "transactionHash": "0xb70a149897af817d261ae586c8e9f758effdbf0952d52d93dec45d3bf5cebdb8",
          "transactionIndex": "0x72",
          "logIndex": "0x76",
          "removed": false
        },
        {
          "address": "0x8aafd3ede9adb0ff97c7aebce82a919afb1c8764",
          "topics": [
            "0xddf252ad1be2c89b69c2b068fc378daa952ba7f163c4a11628f55a4df523b3ef",
            "0x000000000000000000000000c77f7fed3b5cc8249adc428c5f44c9063b9734b4",
            "0x000000000000000000000000c77f7fed3b5cc8249adc428c5f44c9063b9734b4"
          ],
          "data": "0x0000000000000000000000000000000000000000000000000000000000058d62",
          "blockHash": "0x5cdf6507727202f8dc765a29208f4681deb9310477e8d8c6229b454d0574e1e2",
          "blockNumber": "0x731dbb",
          "transactionHash": "0xb70a149897af817d261ae586c8e9f758effdbf0952d52d93dec45d3bf5cebdb8",
          "transactionIndex": "0x72",
          "logIndex": "0x77",
          "removed": false
        },
        {
          "address": "0x8aafd3ede9adb0ff97c7aebce82a919afb1c8764",
          "topics": [
            "0x4afcb4a87cdbd9974efdb92ee48bc8d7cd0ae4bf217004db3d080cbaee652ca7"
          ],
          "data": "0x00000000000000000000000000000000000000000000000000000000679061ac00000000000000000000000000000000000000000000000000146fe1999e0df6000000000000000000000000000000000000000000000000000000000003fe11",
          "blockHash": "0x5cdf6507727202f8dc765a29208f4681deb9310477e8d8c6229b454d0574e1e2",
          "blockNumber": "0x731dbb",
          "transactionHash": "0xb70a149897af817d261ae586c8e9f758effdbf0952d52d93dec45d3bf5cebdb8",
          "transactionIndex": "0x72",
          "logIndex": "0x78",
          "removed": false
        }
      ],
      "logsBloom": "0x00000000000000000000000000000000000000000600000000000000000000000000000000000000000000000000000000000000000000004000000000000000000000000000004000000008000000000000000000000000000000000000000000000000020000000000000000000800020000000000000000000010000000000000000000000000000000000000000000000000000000000000010000000000000000000000000000000000000000004000000000000000000000000000000000000002000000800000000000000000000000000000080000000000000020000000000000000000000000000000000000000000000000000000000000000000",
      "type": "0x2",
      "transactionHash": "0xb70a149897af817d261ae586c8e9f758effdbf0952d52d93dec45d3bf5cebdb8",
      "transactionIndex": "0x72",
      "blockHash": "0x5cdf6507727202f8dc765a29208f4681deb9310477e8d8c6229b454d0574e1e2",
      "blockNumber": "0x731dbb",
      "gasUsed": "0xfd0f",
      "effectiveGasPrice": "0x60c28b31",
      "from": "0xc77f7fed3b5cc8249adc428c5f44c9063b9734b4",
      "to": "0x8aafd3ede9adb0ff97c7aebce82a919afb1c8764",
      "contractAddress": null
    }
  ],
  "libraries": [],
  "pending": [],
  "returns": {},
  "timestamp": 1737515437,
  "chain": 11155111,
  "commit": "1d2fb70"
}