{
  "transactions": [
    {
      "hash": "0x25b43e0b98f282078dbe25b9ee381e4b2c34e94045aebc7e98887f741e761f41",
      "transactionType": "CALL",
      "contractName": null,
      "contractAddress": "0x8aafd3ede9adb0ff97c7aebce82a919afb1c8764",
      "function": "sell(uint256)",
      "arguments": [
        "47550952886221798"
      ],
      "transaction": {
        "from": "0xc77f7fed3b5cc8249adc428c5f44c9063b9734b4",
        "to": "0x8aafd3ede9adb0ff97c7aebce82a919afb1c8764",
        "gas": "0x1724d",
        "value": "0x0",
        "input": "0xe4849b3200000000000000000000000000000000000000000000000000a8ef56f783bbe6",
        "nonce": "0xf37",
        "chainId": "0xaa36a7"
      },
      "additionalContracts": [],
      "isFixedGasLimit": false
    }
  ],
  "receipts": [
    {
      "status": "0x1",
      "cumulativeGasUsed": "0x17ced07",
      "logs": [
        {
          "address": "0x8aafd3ede9adb0ff97c7aebce82a919afb1c8764",
          "topics": [
            "0xddf252ad1be2c89b69c2b068fc378daa952ba7f163c4a11628f55a4df523b3ef",
            "0x000000000000000000000000c77f7fed3b5cc8249adc428c5f44c9063b9734b4",
            "0x0000000000000000000000000000000000000000000000000000000000000000"
          ],
          "data": "0x00000000000000000000000000000000000000000000000000a7955c6a453d78",
          "blockHash": "0x59ae590a5b2f5685f7e5650785b3f5ed5f5493a3f437a0b9fd2d93c28eacd62a",
          "blockNumber": "0x731590",
          "transactionHash": "0x25b43e0b98f282078dbe25b9ee381e4b2c34e94045aebc7e98887f741e761f41",
          "transactionIndex": "0xcc",
          "logIndex": "0x167",
          "removed": false
        },
        {
          "address": "0x8aafd3ede9adb0ff97c7aebce82a919afb1c8764",
          "topics": [
            "0xddf252ad1be2c89b69c2b068fc378daa952ba7f163c4a11628f55a4df523b3ef",
            "0x000000000000000000000000c77f7fed3b5cc8249adc428c5f44c9063b9734b4",
            "0x000000000000000000000000c77f7fed3b5cc8249adc428c5f44c9063b9734b4"
          ],
          "data": "0x000000000000000000000000000000000000000000000000000159fa8d3e7e6e",
          "blockHash": "0x59ae590a5b2f5685f7e5650785b3f5ed5f5493a3f437a0b9fd2d93c28eacd62a",
          "blockNumber": "0x731590",
          "transactionHash": "0x25b43e0b98f282078dbe25b9ee381e4b2c34e94045aebc7e98887f741e761f41",
          "transactionIndex": "0xcc",
          "logIndex": "0x168",
          "removed": false
        },
        {
          "address": "0x8aafd3ede9adb0ff97c7aebce82a919afb1c8764",
          "topics": [
            "0x4afcb4a87cdbd9974efdb92ee48bc8d7cd0ae4bf217004db3d080cbaee652ca7"
          ],
          "data": "0x00000000000000000000000000000000000000000000000000000000678fff6c0000000000000000000000000000000000000000000000000004bfdfc8ab5a92000000000000000000000000000000000000000000000000000039d0e3abe2c3",
          "blockHash": "0x59ae590a5b2f5685f7e5650785b3f5ed5f5493a3f437a0b9fd2d93c28eacd62a",
          "blockNumber": "0x731590",
          "transactionHash": "0x25b43e0b98f282078dbe25b9ee381e4b2c34e94045aebc7e98887f741e761f41",
          "transactionIndex": "0xcc",
          "logIndex": "0x169",
          "removed": false
        }
      ],
      "logsBloom": "0x00000000000000000000000000000000000000000600000000000000000000000000000000000000000000000000000000000000000000004000000000000000000000000000004000000008000000000000000000000000000000000000000000000000020000000000000000000800020000000000000000000010000000000000000000000000000000000000000000000000000000000000010000000000000000000000000000000000000000004000000000000000000000000000000000000002000000800000000000000000000000000000080000000000000020000000000000000000000000000000000000000000000000000000000000000000",
      "type": "0x2",
      "transactionHash": "0x25b43e0b98f282078dbe25b9ee381e4b2c34e94045aebc7e98887f741e761f41",
      "transactionIndex": "0xcc",
      "blockHash": "0x59ae590a5b2f5685f7e5650785b3f5ed5f5493a3f437a0b9fd2d93c28eacd62a",
      "blockNumber": "0x731590",
      "gasUsed": "0xfd33",
      "effectiveGasPrice": "0x5b604f8b",
      "from": "0xc77f7fed3b5cc8249adc428c5f44c9063b9734b4",
      "to": "0x8aafd3ede9adb0ff97c7aebce82a919afb1c8764",
      "contractAddress": null
    }
  ],
  "libraries": [],
  "pending": [],
  "returns": {},
  "timestamp": 1737490285,
  "chain": 11155111,
  "commit": "1d2fb70"
}