{
  "transactions": [
    {
      "hash": "0xfd713db785a8f3a87f132f56170c8d35e5b46ac2531a72408666c08e9f6bbfe0",
      "transactionType": "CALL",
      "contractName": null,
      "contractAddress": "0xbf4a322f1496e5c3d34a9bcdb4c60567b38c7de2",
      "function": "sell(uint256)",
      "arguments": [
        "977922576869378295657"
      ],
      "transaction": {
        "from": "0xc77f7fed3b5cc8249adc428c5f44c9063b9734b4",
        "to": "0xbf4a322f1496e5c3d34a9bcdb4c60567b38c7de2",
        "gas": "0x16fea",
        "value": "0x0",
        "input": "0xe4849b320000000000000000000000000000000000000000000000350366ea6825ed0769",
        "nonce": "0xcb3",
        "chainId": "0xaa36a7"
      },
      "additionalContracts": [],
      "isFixedGasLimit": false
    }
  ],
  "receipts": [
    {
      "status": "0x1",
      "cumulativeGasUsed": "0x7d383b",
      "logs": [
        {
          "address": "0xbf4a322f1496e5c3d34a9bcdb4c60567b38c7de2",
          "topics": [
            "0xddf252ad1be2c89b69c2b068fc378daa952ba7f163c4a11628f55a4df523b3ef",
            "0x000000000000000000000000c77f7fed3b5cc8249adc428c5f44c9063b9734b4",
            "0x0000000000000000000000000000000000000000000000000000000000000000"
          ],
          "data": "0x0000000000000000000000000000000000000000000000350366ea6825ed0769",
          "blockHash": "0x60c6483ec7dba5fca283aa7c0ae330e8776717366a0ec48ddd89cc3b1bc1ff2e",
          "blockNumber": "0x725d00",
          "transactionHash": "0xfd713db785a8f3a87f132f56170c8d35e5b46ac2531a72408666c08e9f6bbfe0",
          "transactionIndex": "0x5c",
          "logIndex": "0x80",
          "removed": false
        },
        {
          "address": "0xbf4a322f1496e5c3d34a9bcdb4c60567b38c7de2",
          "topics": [
            "0x4afcb4a87cdbd9974efdb92ee48bc8d7cd0ae4bf217004db3d080cbaee652ca7"
          ],
          "data": "0x0000000000000000000000000000000000000000000000000000000067874e7400000000000000000000000000000000000000000000000000039b8b8fb8c7910000000000000000000000000000000000000000000000000dc7e3dd3c799fa7",
          "blockHash": "0x60c6483ec7dba5fca283aa7c0ae330e8776717366a0ec48ddd89cc3b1bc1ff2e",
          "blockNumber": "0x725d00",
          "transactionHash": "0xfd713db785a8f3a87f132f56170c8d35e5b46ac2531a72408666c08e9f6bbfe0",
          "transactionIndex": "0x5c",
          "logIndex": "0x81",
          "removed": false
        }
      ],
      "logsBloom": "0x00000000000000000000000000000000000000000000000000000000000000000000000000000000000000000000000000000000000000004000000000000000000000000000000000000008000000000000001000000000000000000000000000000000020000000000000000000800020000000000000000000010000000000000000000000000000000000000000000000000000008000000010000000000000000000000000000000000000000004000000000000000000000000000000000000002000000800000000000001000000000000000080000000000000020000000000000000000000000000000000000000000000000000000000000000000",
      "type": "0x2",
      "transactionHash": "0xfd713db785a8f3a87f132f56170c8d35e5b46ac2531a72408666c08e9f6bbfe0",
      "transactionIndex": "0x5c",
      "blockHash": "0x60c6483ec7dba5fca283aa7c0ae330e8776717366a0ec48ddd89cc3b1bc1ff2e",
      "blockNumber": "0x725d00",
      "gasUsed": "0xfb91",
      "effectiveGasPrice": "0x22cb10b22",
      "from": "0xc77f7fed3b5cc8249adc428c5f44c9063b9734b4",
      "to": "0xbf4a322f1496e5c3d34a9bcdb4c60567b38c7de2",
      "contractAddress": null
    }
  ],
  "libraries": [],
  "pending": [],
  "returns": {},
  "timestamp": 1736920694,
  "chain": 11155111,
  "commit": "51a374b"
}