{
  "transactions": [
    {
      "hash": "0xf77d45abed8051ee5edf5402c568e4729e42d3befcc339e0293d1dc615b0ddf6",
      "transactionType": "CALL",
      "contractName": null,
      "contractAddress": "0x8aafd3ede9adb0ff97c7aebce82a919afb1c8764",
      "function": "sell(uint256)",
      "arguments": [
        "22902595572"
      ],
      "transaction": {
        "from": "0xc77f7fed3b5cc8249adc428c5f44c9063b9734b4",
        "to": "0x8aafd3ede9adb0ff97c7aebce82a919afb1c8764",
        "gas": "0x1722a",
        "value": "0x0",
        "input": "0xe4849b32000000000000000000000000000000000000000000000000000000055519dff4",
        "nonce": "0x110e",
        "chainId": "0xaa36a7"
      },
      "additionalContracts": [],
      "isFixedGasLimit": false
    }
  ],
  "receipts": [
    {
      "status": "0x1",
      "cumulativeGasUsed": "0xe746ef",
      "logs": [
        {
          "address": "0x8aafd3ede9adb0ff97c7aebce82a919afb1c8764",
          "topics": [
            "0xddf252ad1be2c89b69c2b068fc378daa952ba7f163c4a11628f55a4df523b3ef",
            "0x000000000000000000000000c77f7fed3b5cc8249adc428c5f44c9063b9734b4",
            "0x0000000000000000000000000000000000000000000000000000000000000000"
          ],
          "data": "0x000000000000000000000000000000000000000000000000000000054a2e25d8",
          "blockHash": "0xe08b0ac39af9f6ab631ca86bb5eba4a399508000477e13e425d29f1a01265ce4",
          "blockNumber": "0x7317be",
          "transactionHash": "0xf77d45abed8051ee5edf5402c568e4729e42d3befcc339e0293d1dc615b0ddf6",
          "transactionIndex": "0x87",
          "logIndex": "0xa2",
          "removed": false
        },
        {
          "address": "0x8aafd3ede9adb0ff97c7aebce82a919afb1c8764",
          "topics": [
            "0xddf252ad1be2c89b69c2b068fc378daa952ba7f163c4a11628f55a4df523b3ef",
            "0x000000000000000000000000c77f7fed3b5cc8249adc428c5f44c9063b9734b4",
            "0x000000000000000000000000c77f7fed3b5cc8249adc428c5f44c9063b9734b4"
          ],
          "data": "0x000000000000000000000000000000000000000000000000000000000aebba1c",
          "blockHash": "0xe08b0ac39af9f6ab631ca86bb5eba4a399508000477e13e425d29f1a01265ce4",
          "blockNumber": "0x7317be",
          "transactionHash": "0xf77d45abed8051ee5edf5402c568e4729e42d3befcc339e0293d1dc615b0ddf6",
          "transactionIndex": "0x87",
          "logIndex": "0xa3",
          "removed": false
        },
        {
          "address": "0x8aafd3ede9adb0ff97c7aebce82a919afb1c8764",
          "topics": [
            "0x4afcb4a87cdbd9974efdb92ee48bc8d7cd0ae4bf217004db3d080cbaee652ca7"
          ],
          "data": "0x00000000000000000000000000000000000000000000000000000000679019ac00000000000000000000000000000000000000000000000000050d9c906541880000000000000000000000000000000000000000000000000000000001f10f44",
          "blockHash": "0xe08b0ac39af9f6ab631ca86bb5eba4a399508000477e13e425d29f1a01265ce4",
          "blockNumber": "0x7317be",
          "transactionHash": "0xf77d45abed8051ee5edf5402c568e4729e42d3befcc339e0293d1dc615b0ddf6",
          "transactionIndex": "0x87",
          "logIndex": "0xa4",
          "removed": false
        }
      ],
      "logsBloom": "0x00000000000000000000000000000000000000000600000000000000000000000000000000000000000000000000000000000000000000004000000000000000000000000000004000000008000000000000000000000000000000000000000000000000020000000000000000000800020000000000000000000010000000000000000000000000000000000000000000000000000000000000010000000000000000000000000000000000000000004000000000000000000000000000000000000002000000800000000000000000000000000000080000000000000020000000000000000000000000000000000000000000000000000000000000000000",
      "type": "0x2",
      "transactionHash": "0xf77d45abed8051ee5edf5402c568e4729e42d3befcc339e0293d1dc615b0ddf6",
      "transactionIndex": "0x87",
      "blockHash": "0xe08b0ac39af9f6ab631ca86bb5eba4a399508000477e13e425d29f1a01265ce4",
      "blockNumber": "0x7317be",
      "gasUsed": "0xfd1b",
      "effectiveGasPrice": "0x48149e43",
      "from": "0xc77f7fed3b5cc8249adc428c5f44c9063b9734b4",
      "to": "0x8aafd3ede9adb0ff97c7aebce82a919afb1c8764",
      "contractAddress": null
    }
  ],
  "libraries": [],
  "pending": [],
  "returns": {},
  "timestamp": 1737497006,
  "chain": 11155111,
  "commit": "1d2fb70"
}