{
  "transactions": [
    {
      "hash": "0xa0dd332d62a2b99532cc10c2a53228533d2ade1727626cb3b17d12e42c650e05",
      "transactionType": "CALL",
      "contractName": null,
      "contractAddress": "0x8aafd3ede9adb0ff97c7aebce82a919afb1c8764",
      "function": "sell(uint256)",
      "arguments": [
        "5487737832"
      ],
      "transaction": {
        "from": "0xc77f7fed3b5cc8249adc428c5f44c9063b9734b4",
        "to": "0x8aafd3ede9adb0ff97c7aebce82a919afb1c8764",
        "gas": "0x1722a",
        "value": "0x0",
        "input": "0xe4849b320000000000000000000000000000000000000000000000000000000147183be8",
        "nonce": "0x1663",
        "chainId": "0xaa36a7"
      },
      "additionalContracts": [],
      "isFixedGasLimit": false
    }
  ],
  "receipts": [
    {
      "status": "0x1",
      "cumulativeGasUsed": "0xc7ecf9",
      "logs": [
        {
          "address": "0x8aafd3ede9adb0ff97c7aebce82a919afb1c8764",
          "topics": [
            "0xddf252ad1be2c89b69c2b068fc378daa952ba7f163c4a11628f55a4df523b3ef",
            "0x000000000000000000000000c77f7fed3b5cc8249adc428c5f44c9063b9734b4",
            "0x0000000000000000000000000000000000000000000000000000000000000000"
          ],
          "data": "0x00000000000000000000000000000000000000000000000000000001447a581a",
          "blockHash": "0xa64466a45557484f990638c5da26e24dd59dc0e4279e1f81c2fef823f9240d8b",
          "blockNumber": "0x731e07",
          "transactionHash": "0xa0dd332d62a2b99532cc10c2a53228533d2ade1727626cb3b17d12e42c650e05",
          "transactionIndex": "0x6f",
          "logIndex": "0xd0",
          "removed": false
        },
        {
          "address": "0x8aafd3ede9adb0ff97c7aebce82a919afb1c8764",
          "topics": [
            "0xddf252ad1be2c89b69c2b068fc378daa952ba7f163c4a11628f55a4df523b3ef",
            "0x000000000000000000000000c77f7fed3b5cc8249adc428c5f44c9063b9734b4",
            "0x000000000000000000000000c77f7fed3b5cc8249adc428c5f44c9063b9734b4"
          ],
          "data": "0x00000000000000000000000000000000000000000000000000000000029de3ce",
          "blockHash": "0xa64466a45557484f990638c5da26e24dd59dc0e4279e1f81c2fef823f9240d8b",
          "blockNumber": "0x731e07",
          "transactionHash": "0xa0dd332d62a2b99532cc10c2a53228533d2ade1727626cb3b17d12e42c650e05",
          "transactionIndex": "0x6f",
          "logIndex": "0xd1",
          "removed": false
        },
        {
          "address": "0x8aafd3ede9adb0ff97c7aebce82a919afb1c8764",
          "topics": [
            "0x4afcb4a87cdbd9974efdb92ee48bc8d7cd0ae4bf217004db3d080cbaee652ca7"
          ],
          "data": "0x000000000000000000000000000000000000000000000000000000006790653c00000000000000000000000000000000000000000000000000152b8a4008e1c50000000000000000000000000000000000000000000000000000000001f2f8af",
          "blockHash": "0xa64466a45557484f990638c5da26e24dd59dc0e4279e1f81c2fef823f9240d8b",
          "blockNumber": "0x731e07",
          "transactionHash": "0xa0dd332d62a2b99532cc10c2a53228533d2ade1727626cb3b17d12e42c650e05",
          "transactionIndex": "0x6f",
          "logIndex": "0xd2",
          "removed": false
        }
      ],
      "logsBloom": "0x00000000000000000000000000000000000000000600000000000000000000000000000000000000000000000000000000000000000000004000000000000000000000000000004000000008000000000000000000000000000000000000000000000000020000000000000000000800020000000000000000000010000000000000000000000000000000000000000000000000000000000000010000000000000000000000000000000000000000004000000000000000000000000000000000000002000000800000000000000000000000000000080000000000000020000000000000000000000000000000000000000000000000000000000000000000",
      "type": "0x2",
      "transactionHash": "0xa0dd332d62a2b99532cc10c2a53228533d2ade1727626cb3b17d12e42c650e05",
      "transactionIndex": "0x6f",
      "blockHash": "0xa64466a45557484f990638c5da26e24dd59dc0e4279e1f81c2fef823f9240d8b",
      "blockNumber": "0x731e07",
      "gasUsed": "0xfd1b",
      "effectiveGasPrice": "0x4536f3f3",
      "from": "0xc77f7fed3b5cc8249adc428c5f44c9063b9734b4",
      "to": "0x8aafd3ede9adb0ff97c7aebce82a919afb1c8764",
      "contractAddress": null
    }
  ],
  "libraries": [],
  "pending": [],
  "returns": {},
  "timestamp": 1737516349,
  "chain": 11155111,
  "commit": "1d2fb70"
}