{
  "transactions": [
    {
      "hash": "0x0e260e79db935d4562b4da49dd3f6f7e47defe9871678a33e77f799e63d2b1a7",
      "transactionType": "CALL",
      "contractName": null,
      "contractAddress": "0x270e88f8683660553e8ba4eb2ad7c91a1710d769",
      "function": "buy(address)",
      "arguments": [
        "0xC77f7fed3b5Cc8249aDc428c5F44C9063B9734b4"
      ],
      "transaction": {
        "from": "0xc77f7fed3b5cc8249adc428c5f44c9063b9734b4",
        "to": "0x270e88f8683660553e8ba4eb2ad7c91a1710d769",
        "gas": "0x1b30c",
        "value": "0xde0b6b3a7640000",
        "input": "0xf088d547000000000000000000000000c77f7fed3b5cc8249adc428c5f44c9063b9734b4",
        "nonce": "0x642",
        "chainId": "0xaa36a7"
      },
      "additionalContracts": [],
      "isFixedGasLimit": false
    }
  ],
  "receipts": [
    {
      "status": "0x1",
      "cumulativeGasUsed": "0xf23a05",
      "logs": [
        {
          "address": "0x270e88f8683660553e8ba4eb2ad7c91a1710d769",
          "topics": [
            "0xddf252ad1be2c89b69c2b068fc378daa952ba7f163c4a11628f55a4df523b3ef",
            "0x0000000000000000000000000000000000000000000000000000000000000000",
            "0x000000000000000000000000c77f7fed3b5cc8249adc428c5f44c9063b9734b4"
          ],
          "data": "0x00000000000000000000000000000000000000000000002c941793d9a8b589c4",
          "blockHash": "0x719f7a41c8acef3a2dcfb7ed4782fc50e8e217fbfb21aca7292bad6670d2504a",
          "blockNumber": "0x72532b",
          "transactionHash": "0x0e260e79db935d4562b4da49dd3f6f7e47defe9871678a33e77f799e63d2b1a7",
          "transactionIndex": "0xb6",
          "logIndex": "0xfe",
          "removed": false
        },
        {
          "address": "0x270e88f8683660553e8ba4eb2ad7c91a1710d769",
          "topics": [
            "0xddf252ad1be2c89b69c2b068fc378daa952ba7f163c4a11628f55a4df523b3ef",
            "0x0000000000000000000000000000000000000000000000000000000000000000",
            "0x000000000000000000000000c77f7fed3b5cc8249adc428c5f44c9063b9734b4"
          ],
          "data": "0x000000000000000000000000000000000000000000000000229de0f7c0ddf4c1",
          "blockHash": "0x719f7a41c8acef3a2dcfb7ed4782fc50e8e217fbfb21aca7292bad6670d2504a",
          "blockNumber": "0x72532b",
          "transactionHash": "0x0e260e79db935d4562b4da49dd3f6f7e47defe9871678a33e77f799e63d2b1a7",
          "transactionIndex": "0xb6",
          "logIndex": "0xff",
          "removed": false
        },
        {
          "address": "0x270e88f8683660553e8ba4eb2ad7c91a1710d769",
          "topics": [
            "0x4afcb4a87cdbd9974efdb92ee48bc8d7cd0ae4bf217004db3d080cbaee652ca7"
          ],
          "data": "0x000000000000000000000000000000000000000000000000000000006786d80c000000000000000000000000000000000000000000000000000446f2847ddbd90000000000000000000000000000000000000000000000000de0b6b3a7640000",
          "blockHash": "0x719f7a41c8acef3a2dcfb7ed4782fc50e8e217fbfb21aca7292bad6670d2504a",
          "blockNumber": "0x72532b",
          "transactionHash": "0x0e260e79db935d4562b4da49dd3f6f7e47defe9871678a33e77f799e63d2b1a7",
          "transactionIndex": "0xb6",
          "logIndex": "0x100",
          "removed": false
        }
      ],
      "logsBloom": "0x00000000000000000000000000000000000000000000000000000000000000000000000000000000000000000000000020000000000000004000000000000000000000000000000000000008000000000000000000000000000000000000000000000000020000000000000000000800020000000000000000000010000000000000000000010000000000000000000000000000000000000000010000000000000000000000000000000000000000004000000000000000000000000000000000000002000000800000000000000000000000000000080000008000000020000000000000000000000000000000000000000000000000000000000000000000",
      "type": "0x2",
      "transactionHash": "0x0e260e79db935d4562b4da49dd3f6f7e47defe9871678a33e77f799e63d2b1a7",
      "transactionIndex": "0xb6",
      "blockHash": "0x719f7a41c8acef3a2dcfb7ed4782fc50e8e217fbfb21aca7292bad6670d2504a",
      "blockNumber": "0x72532b",
      "gasUsed": "0x13af8",
      "effectiveGasPrice": "0x1c425a50b",
      "from": "0xc77f7fed3b5cc8249adc428c5f44c9063b9734b4",
      "to": "0x270e88f8683660553e8ba4eb2ad7c91a1710d769",
      "contractAddress": null
    }
  ],
  "libraries": [],
  "pending": [],
  "returns": {},
  "timestamp": 1736890382,
  "chain": 11155111,
  "commit": "51a374b"
}