{
  "transactions": [
    {
      "hash": "0x6fa8e088d035736afe1f11309e2b7e9f0b91b67fe955191578126a44905adcde",
      "transactionType": "CALL",
      "contractName": null,
      "contractAddress": "0x270e88f8683660553e8ba4eb2ad7c91a1710d769",
      "function": "buy(address)",
      "arguments": [
        "0xC77f7fed3b5Cc8249aDc428c5F44C9063B9734b4"
      ],
      "transaction": {
        "from": "0xc77f7fed3b5cc8249adc428c5f44c9063b9734b4",
        "to": "0x270e88f8683660553e8ba4eb2ad7c91a1710d769",
        "gas": "0x1b30c",
        "value": "0xde0b6b3a7640000",
        "input": "0xf088d547000000000000000000000000c77f7fed3b5cc8249adc428c5f44c9063b9734b4",
        "nonce": "0x70f",
        "chainId": "0xaa36a7"
      },
      "additionalContracts": [],
      "isFixedGasLimit": false
    }
  ],
  "receipts": [
    {
      "status": "0x1",
      "cumulativeGasUsed": "0x5883e4",
      "logs": [
        {
          "address": "0x270e88f8683660553e8ba4eb2ad7c91a1710d769",
          "topics": [
            "0xddf252ad1be2c89b69c2b068fc378daa952ba7f163c4a11628f55a4df523b3ef",
            "0x0000000000000000000000000000000000000000000000000000000000000000",
            "0x000000000000000000000000c77f7fed3b5cc8249adc428c5f44c9063b9734b4"
          ],
          "data": "0x00000000000000000000000000000000000000000000002833e3f8bd0e6225fd",
          "blockHash": "0x136523086a35f073495f4906cb9f4251e0e708e9ffd36c7fb4a3acccb2d7137c",
          "blockNumber": "0x725426",
          "transactionHash": "0x6fa8e088d035736afe1f11309e2b7e9f0b91b67fe955191578126a44905adcde",
          "transactionIndex": "0x3b",
          "logIndex": "0x58",
          "removed": false
        },
        {
          "address": "0x270e88f8683660553e8ba4eb2ad7c91a1710d769",
          "topics": [
            "0xddf252ad1be2c89b69c2b068fc378daa952ba7f163c4a11628f55a4df523b3ef",
            "0x0000000000000000000000000000000000000000000000000000000000000000",
            "0x000000000000000000000000c77f7fed3b5cc8249adc428c5f44c9063b9734b4"
          ],
          "data": "0x0000000000000000000000000000000000000000000000001f380108b824f33b",
          "blockHash": "0x136523086a35f073495f4906cb9f4251e0e708e9ffd36c7fb4a3acccb2d7137c",
          "blockNumber": "0x725426",
          "transactionHash": "0x6fa8e088d035736afe1f11309e2b7e9f0b91b67fe955191578126a44905adcde",
          "transactionIndex": "0x3b",
          "logIndex": "0x59",
          "removed": false
        },
        {
          "address": "0x270e88f8683660553e8ba4eb2ad7c91a1710d769",
          "topics": [
            "0x4afcb4a87cdbd9974efdb92ee48bc8d7cd0ae4bf217004db3d080cbaee652ca7"
          ],
          "data": "0x000000000000000000000000000000000000000000000000000000006786e3d00000000000000000000000000000000000000000000000000004be38b5960db10000000000000000000000000000000000000000000000000de0b6b3a7640000",
          "blockHash": "0x136523086a35f073495f4906cb9f4251e0e708e9ffd36c7fb4a3acccb2d7137c",
          "blockNumber": "0x725426",
          "transactionHash": "0x6fa8e088d035736afe1f11309e2b7e9f0b91b67fe955191578126a44905adcde",
          "transactionIndex": "0x3b",
          "logIndex": "0x5a",
          "removed": false
        }
      ],
      "logsBloom": "0x00000000000000000000000000000000000000000000000000000000000000000000000000000000000000000000000020000000000000004000000000000000000000000000000000000008000000000000000000000000000000000000000000000000020000000000000000000800020000000000000000000010000000000000000000010000000000000000000000000000000000000000010000000000000000000000000000000000000000004000000000000000000000000000000000000002000000800000000000000000000000000000080000008000000020000000000000000000000000000000000000000000000000000000000000000000",
      "type": "0x2",
      "transactionHash": "0x6fa8e088d035736afe1f11309e2b7e9f0b91b67fe955191578126a44905adcde",
      "transactionIndex": "0x3b",
      "blockHash": "0x136523086a35f073495f4906cb9f4251e0e708e9ffd36c7fb4a3acccb2d7137c",
      "blockNumber": "0x725426",
      "gasUsed": "0x13af8",
      "effectiveGasPrice": "0x143f9beda",
      "from": "0xc77f7fed3b5cc8249adc428c5f44c9063b9734b4",
      "to": "0x270e88f8683660553e8ba4eb2ad7c91a1710d769",
      "contractAddress": null
    }
  ],
  "libraries": [],
  "pending": [],
  "returns": {},
  "timestamp": 1736893392,
  "chain": 11155111,
  "commit": "51a374b"
}