{
  "transactions": [
    {
      "hash": "0x5f5e94e5f52feae7de6ee735e08c37ccb5462f0268484ffa2aec9c64af1e2f86",
      "transactionType": "CALL",
      "contractName": null,
      "contractAddress": "0x8aafd3ede9adb0ff97c7aebce82a919afb1c8764",
      "function": "sell(uint256)",
      "arguments": [
        "116926520453949"
      ],
      "transaction": {
        "from": "0xc77f7fed3b5cc8249adc428c5f44c9063b9734b4",
        "to": "0x8aafd3ede9adb0ff97c7aebce82a919afb1c8764",
        "gas": "0x15daa",
        "value": "0x0",
        "input": "0xe4849b3200000000000000000000000000000000000000000000000000006a5813b76b3d",
        "nonce": "0x147b",
        "chainId": "0xaa36a7"
      },
      "additionalContracts": [],
      "isFixedGasLimit": false
    }
  ],
  "receipts": [
    {
      "status": "0x1",
      "cumulativeGasUsed": "0xbcf74c",
      "logs": [
        {
          "address": "0x8aafd3ede9adb0ff97c7aebce82a919afb1c8764",
          "topics": [
            "0xddf252ad1be2c89b69c2b068fc378daa952ba7f163c4a11628f55a4df523b3ef",
            "0x000000000000000000000000c77f7fed3b5cc8249adc428c5f44c9063b9734b4",
            "0x0000000000000000000000000000000000000000000000000000000000000000"
          ],
          "data": "0x0000000000000000000000000000000000000000000000000000697e48ce870e",
          "blockHash": "0xf70c179a16889818dc7a743ac452ca289e6393fe5a1d1ba855e9deb4a0367d38",
          "blockNumber": "0x731bc8",
          "transactionHash": "0x5f5e94e5f52feae7de6ee735e08c37ccb5462f0268484ffa2aec9c64af1e2f86",
          "transactionIndex": "0x62",
          "logIndex": "0xf0",
          "removed": false
        },
        {
          "address": "0x8aafd3ede9adb0ff97c7aebce82a919afb1c8764",
          "topics": [
            "0xddf252ad1be2c89b69c2b068fc378daa952ba7f163c4a11628f55a4df523b3ef",
            "0x000000000000000000000000c77f7fed3b5cc8249adc428c5f44c9063b9734b4",
            "0x000000000000000000000000c77f7fed3b5cc8249adc428c5f44c9063b9734b4"
          ],
          "data": "0x000000000000000000000000000000000000000000000000000000d9cae8e42f",
          "blockHash": "0xf70c179a16889818dc7a743ac452ca289e6393fe5a1d1ba855e9deb4a0367d38",
          "blockNumber": "0x731bc8",
          "transactionHash": "0x5f5e94e5f52feae7de6ee735e08c37ccb5462f0268484ffa2aec9c64af1e2f86",
          "transactionIndex": "0x62",
          "logIndex": "0xf1",
          "removed": false
        },
        {
          "address": "0x8aafd3ede9adb0ff97c7aebce82a919afb1c8764",
          "topics": [
            "0x4afcb4a87cdbd9974efdb92ee48bc8d7cd0ae4bf217004db3d080cbaee652ca7"
          ],
          "data": "0x0000000000000000000000000000000000000000000000000000000067904a3c000000000000000000000000000000000000000000000000000f8d0e345fa48f000000000000000000000000000000000000000000000000000000772a6a757f",
          "blockHash": "0xf70c179a16889818dc7a743ac452ca289e6393fe5a1d1ba855e9deb4a0367d38",
          "blockNumber": "0x731bc8",
          "transactionHash": "0x5f5e94e5f52feae7de6ee735e08c37ccb5462f0268484ffa2aec9c64af1e2f86",
          "transactionIndex": "0x62",
          "logIndex": "0xf2",
          "removed": false
        }
      ],
      "logsBloom": "0x00000000000000000000000000000000000000000600000000000000000000000000000000000000000000000000000000000000000000004000000000000000000000000000004000000008000000000000000000000000000000000000000000000000020000000000000000000800020000000000000000000010000000000000000000000000000000000000000000000000000000000000010000000000000000000000000000000000000000004000000000000000000000000000000000000002000000800000000000000000000000000000080000000000000020000000000000000000000000000000000000000000000000000000000000000000",
      "type": "0x2",
      "transactionHash": "0x5f5e94e5f52feae7de6ee735e08c37ccb5462f0268484ffa2aec9c64af1e2f86",
      "transactionIndex": "0x62",
      "blockHash": "0xf70c179a16889818dc7a743ac452ca289e6393fe5a1d1ba855e9deb4a0367d38",
      "blockNumber": "0x731bc8",
      "gasUsed": "0xfd27",
      "effectiveGasPrice": "0x102bfb94b",
      "from": "0xc77f7fed3b5cc8249adc428c5f44c9063b9734b4",
      "to": "0x8aafd3ede9adb0ff97c7aebce82a919afb1c8764",
      "contractAddress": null
    }
  ],
  "libraries": [],
  "pending": [],
  "returns": {},
  "timestamp": 1737509439,
  "chain": 11155111,
  "commit": "1d2fb70"
}