{
  "transactions": [
    {
      "hash": "0x74532c6dea80dc815548ac604fb74fbcf80315e17b07ca61b50e98289ef1f86e",
      "transactionType": "CALL",
      "contractName": null,
      "contractAddress": "0x8aafd3ede9adb0ff97c7aebce82a919afb1c8764",
      "function": "sell(uint256)",
      "arguments": [
        "29345551343997317662"
      ],
      "transaction": {
        "from": "0xc77f7fed3b5cc8249adc428c5f44c9063b9734b4",
        "to": "0x8aafd3ede9adb0ff97c7aebce82a919afb1c8764",
        "gas": "0x17270",
        "value": "0x0",
        "input": "0xe4849b3200000000000000000000000000000000000000000000000197405777ccf2721e",
        "nonce": "0xe43",
        "chainId": "0xaa36a7"
      },
      "additionalContracts": [],
      "isFixedGasLimit": false
    }
  ],
  "receipts": [
    {
      "status": "0x1",
      "cumulativeGasUsed": "0x19564f8",
      "logs": [
        {
          "address": "0x8aafd3ede9adb0ff97c7aebce82a919afb1c8764",
          "topics": [
            "0xddf252ad1be2c89b69c2b068fc378daa952ba7f163c4a11628f55a4df523b3ef",
            "0x000000000000000000000000c77f7fed3b5cc8249adc428c5f44c9063b9734b4",
            "0x0000000000000000000000000000000000000000000000000000000000000000"
          ],
          "data": "0x00000000000000000000000000000000000000000000000193fe4a7af02be5f1",
          "blockHash": "0x8002ba0e5305250bb682801fb1efbe0484759f1e6d8637fc7b07336a1ad2e4d1",
          "blockNumber": "0x731382",
          "transactionHash": "0x74532c6dea80dc815548ac604fb74fbcf80315e17b07ca61b50e98289ef1f86e",
          "transactionIndex": "0xee",
          "logIndex": "0x1ff",
          "removed": false
        },
        {
          "address": "0x8aafd3ede9adb0ff97c7aebce82a919afb1c8764",
          "topics": [
            "0xddf252ad1be2c89b69c2b068fc378daa952ba7f163c4a11628f55a4df523b3ef",
            "0x000000000000000000000000c77f7fed3b5cc8249adc428c5f44c9063b9734b4",
            "0x000000000000000000000000c77f7fed3b5cc8249adc428c5f44c9063b9734b4"
          ],
          "data": "0x00000000000000000000000000000000000000000000000003420cfcdcc68c2d",
          "blockHash": "0x8002ba0e5305250bb682801fb1efbe0484759f1e6d8637fc7b07336a1ad2e4d1",
          "blockNumber": "0x731382",
          "transactionHash": "0x74532c6dea80dc815548ac604fb74fbcf80315e17b07ca61b50e98289ef1f86e",
          "transactionIndex": "0xee",
          "logIndex": "0x200",
          "removed": false
        },
        {
          "address": "0x8aafd3ede9adb0ff97c7aebce82a919afb1c8764",
          "topics": [
            "0x4afcb4a87cdbd9974efdb92ee48bc8d7cd0ae4bf217004db3d080cbaee652ca7"
          ],
          "data": "0x00000000000000000000000000000000000000000000000000000000678fe6ac0000000000000000000000000000000000000000000000000004b3a05211ece60000000000000000000000000000000000000000000000000089f8bd3d9a81ef",
          "blockHash": "0x8002ba0e5305250bb682801fb1efbe0484759f1e6d8637fc7b07336a1ad2e4d1",
          "blockNumber": "0x731382",
          "transactionHash": "0x74532c6dea80dc815548ac604fb74fbcf80315e17b07ca61b50e98289ef1f86e",
          "transactionIndex": "0xee",
          "logIndex": "0x201",
          "removed": false
        }
      ],
      "logsBloom": "0x00000000000000000000000000000000000000000600000000000000000000000000000000000000000000000000000000000000000000004000000000000000000000000000004000000008000000000000000000000000000000000000000000000000020000000000000000000800020000000000000000000010000000000000000000000000000000000000000000000000000000000000010000000000000000000000000000000000000000004000000000000000000000000000000000000002000000800000000000000000000000000000080000000000000020000000000000000000000000000000000000000000000000000000000000000000",
      "type": "0x2",
      "transactionHash": "0x74532c6dea80dc815548ac604fb74fbcf80315e17b07ca61b50e98289ef1f86e",
      "transactionIndex": "0xee",
      "blockHash": "0x8002ba0e5305250bb682801fb1efbe0484759f1e6d8637fc7b07336a1ad2e4d1",
      "blockNumber": "0x731382",
      "gasUsed": "0xfd4b",
      "effectiveGasPrice": "0x6782d55b",
      "from": "0xc77f7fed3b5cc8249adc428c5f44c9063b9734b4",
      "to": "0x8aafd3ede9adb0ff97c7aebce82a919afb1c8764",
      "contractAddress": null
    }
  ],
  "libraries": [],
  "pending": [],
  "returns": {},
  "timestamp": 1737483949,
  "chain": 11155111,
  "commit": "51a374b"
}