{
  "transactions": [
    {
      "hash": "0x3901475c2c47da5449e7bad04e38b2f24aba9240529d63815378db0cbb8630a5",
      "transactionType": "CALL",
      "contractName": null,
      "contractAddress": "0x5eb9cc76c3506942c1c0ead70e877dd5e4f00cb0",
      "function": "buy(address)",
      "arguments": [
        "0xC77f7fed3b5Cc8249aDc428c5F44C9063B9734b4"
      ],
      "transaction": {
        "from": "0xc77f7fed3b5cc8249adc428c5f44c9063b9734b4",
        "to": "0x5eb9cc76c3506942c1c0ead70e877dd5e4f00cb0",
        "gas": "0x1b30c",
        "value": "0xde0b6b3a7640000",
        "input": "0xf088d547000000000000000000000000c77f7fed3b5cc8249adc428c5f44c9063b9734b4",
        "nonce": "0x2d6",
        "chainId": "0xaa36a7"
      },
      "additionalContracts": [],
      "isFixedGasLimit": false
    }
  ],
  "receipts": [
    {
      "status": "0x1",
      "cumulativeGasUsed": "0x155c0ac",
      "logs": [
        {
          "address": "0x5eb9cc76c3506942c1c0ead70e877dd5e4f00cb0",
          "topics": [
            "0xddf252ad1be2c89b69c2b068fc378daa952ba7f163c4a11628f55a4df523b3ef",
            "0x0000000000000000000000000000000000000000000000000000000000000000",
            "0x000000000000000000000000c77f7fed3b5cc8249adc428c5f44c9063b9734b4"
          ],
          "data": "0x00000000000000000000000000000000000000000000003575aa6d51f69248f0",
          "blockHash": "0x700cd4e3c3ae735d535263689fe0a3b6694c2620ff8608c081fc5500c9697fad",
          "blockNumber": "0x724eb3",
          "transactionHash": "0x3901475c2c47da5449e7bad04e38b2f24aba9240529d63815378db0cbb8630a5",
          "transactionIndex": "0x9a",
          "logIndex": "0x12f",
          "removed": false
        },
        {
          "address": "0x5eb9cc76c3506942c1c0ead70e877dd5e4f00cb0",
          "topics": [
            "0xddf252ad1be2c89b69c2b068fc378daa952ba7f163c4a11628f55a4df523b3ef",
            "0x0000000000000000000000000000000000000000000000000000000000000000",
            "0x000000000000000000000000c77f7fed3b5cc8249adc428c5f44c9063b9734b4"
          ],
          "data": "0x000000000000000000000000000000000000000000000000298362e1ad2d65b4",
          "blockHash": "0x700cd4e3c3ae735d535263689fe0a3b6694c2620ff8608c081fc5500c9697fad",
          "blockNumber": "0x724eb3",
          "transactionHash": "0x3901475c2c47da5449e7bad04e38b2f24aba9240529d63815378db0cbb8630a5",
          "transactionIndex": "0x9a",
          "logIndex": "0x130",
          "removed": false
        },
        {
          "address": "0x5eb9cc76c3506942c1c0ead70e877dd5e4f00cb0",
          "topics": [
            "0x4afcb4a87cdbd9974efdb92ee48bc8d7cd0ae4bf217004db3d080cbaee652ca7"
          ],
          "data": "0x000000000000000000000000000000000000000000000000000000006786a2180000000000000000000000000000000000000000000000000003910a33a172d00000000000000000000000000000000000000000000000000de0b6b3a7640000",
          "blockHash": "0x700cd4e3c3ae735d535263689fe0a3b6694c2620ff8608c081fc5500c9697fad",
          "blockNumber": "0x724eb3",
          "transactionHash": "0x3901475c2c47da5449e7bad04e38b2f24aba9240529d63815378db0cbb8630a5",
          "transactionIndex": "0x9a",
          "logIndex": "0x131",
          "removed": false
        }
      ],
      "logsBloom": "0x00000000000000000000000000000000000000000000000000000000000000000000000000000000000000000000000000000000000000004000000000000000000000000000000000000008000000000000000000000000000000000000000000000000020000000000000004000800020000000000000000000010000000000000000000000000000000000000000000000000000000000000010000000000000000000000000000000000000000004000000000000000000000000000020000000002000000800000008000000000000000000000080000000000000020000000000000000000000000000000000000000000000000000000000000000000",
      "type": "0x2",
      "transactionHash": "0x3901475c2c47da5449e7bad04e38b2f24aba9240529d63815378db0cbb8630a5",
      "transactionIndex": "0x9a",
      "blockHash": "0x700cd4e3c3ae735d535263689fe0a3b6694c2620ff8608c081fc5500c9697fad",
      "blockNumber": "0x724eb3",
      "gasUsed": "0x13af8",
      "effectiveGasPrice": "0x45be852a8",
      "from": "0xc77f7fed3b5cc8249adc428c5f44c9063b9734b4",
      "to": "0x5eb9cc76c3506942c1c0ead70e877dd5e4f00cb0",
      "contractAddress": null
    }
  ],
  "libraries": [],
  "pending": [],
  "returns": {},
  "timestamp": 1736876569,
  "chain": 11155111,
  "commit": "51a374b"
}