{
  "transactions": [
    {
      "hash": "0x9eeda1d02827728502286c5582bc1e7f16072ce8519de168d62769ed489d3dc5",
      "transactionType": "CALL",
      "contractName": null,
      "contractAddress": "0x8aafd3ede9adb0ff97c7aebce82a919afb1c8764",
      "function": "sell(uint256)",
      "arguments": [
        "80910056882472"
      ],
      "transaction": {
        "from": "0xc77f7fed3b5cc8249adc428c5f44c9063b9734b4",
        "to": "0x8aafd3ede9adb0ff97c7aebce82a919afb1c8764",
        "gas": "0x15daa",
        "value": "0x0",
        "input": "0xe4849b320000000000000000000000000000000000000000000000000000499657330128",
        "nonce": "0x16cd",
        "chainId": "0xaa36a7"
      },
      "additionalContracts": [],
      "isFixedGasLimit": false
    }
  ],
  "receipts": [
    {
      "status": "0x1",
      "cumulativeGasUsed": "0xb7b7d8",
      "logs": [
        {
          "address": "0x8aafd3ede9adb0ff97c7aebce82a919afb1c8764",
          "topics": [
            "0xddf252ad1be2c89b69c2b068fc378daa952ba7f163c4a11628f55a4df523b3ef",
            "0x000000000000000000000000c77f7fed3b5cc8249adc428c5f44c9063b9734b4",
            "0x0000000000000000000000000000000000000000000000000000000000000000"
          ],
          "data": "0x000000000000000000000000000000000000000000000000000048ffa2471395",
          "blockHash": "0x988c977690e342e100e94ae59a70a3fad4701cdfa3452b11cbbbaf287e98ace4",
          "blockNumber": "0x731e87",
          "transactionHash": "0x9eeda1d02827728502286c5582bc1e7f16072ce8519de168d62769ed489d3dc5",
          "transactionIndex": "0x67",
          "logIndex": "0xae",
          "removed": false
        },
        {
          "address": "0x8aafd3ede9adb0ff97c7aebce82a919afb1c8764",
          "topics": [
            "0xddf252ad1be2c89b69c2b068fc378daa952ba7f163c4a11628f55a4df523b3ef",
            "0x000000000000000000000000c77f7fed3b5cc8249adc428c5f44c9063b9734b4",
            "0x000000000000000000000000c77f7fed3b5cc8249adc428c5f44c9063b9734b4"
          ],
          "data": "0x00000000000000000000000000000000000000000000000000000096b4ebed93",
          "blockHash": "0x988c977690e342e100e94ae59a70a3fad4701cdfa3452b11cbbbaf287e98ace4",
          "blockNumber": "0x731e87",
          "transactionHash": "0x9eeda1d02827728502286c5582bc1e7f16072ce8519de168d62769ed489d3dc5",
          "transactionIndex": "0x67",
          "logIndex": "0xaf",
          "removed": false
        },
        {
          "address": "0x8aafd3ede9adb0ff97c7aebce82a919afb1c8764",
          "topics": [
            "0x4afcb4a87cdbd9974efdb92ee48bc8d7cd0ae4bf217004db3d080cbaee652ca7"
          ],
          "data": "0x0000000000000000000000000000000000000000000000000000000067906b3c00000000000000000000000000000000000000000000000000166dec19a6355600000000000000000000000000000000000000000000000000000076eeaa8876",
          "blockHash": "0x988c977690e342e100e94ae59a70a3fad4701cdfa3452b11cbbbaf287e98ace4",
          "blockNumber": "0x731e87",
          "transactionHash": "0x9eeda1d02827728502286c5582bc1e7f16072ce8519de168d62769ed489d3dc5",
          "transactionIndex": "0x67",
          "logIndex": "0xb0",
          "removed": false
        }
      ],
      "logsBloom": "0x00000000000000000000000000000000000000000600000000000000000000000000000000000000000000000000000000000000000000004000000000000000000000000000004000000008000000000000000000000000000000000000000000000000020000000000000000000800020000000000000000000010000000000000000000000000000000000000000000000000000000000000010000000000000000000000000000000000000000004000000000000000000000000000000000000002000000800000000000000000000000000000080000000000000020000000000000000000000000000000000000000000000000000000000000000000",
      "type": "0x2",
      "transactionHash": "0x9eeda1d02827728502286c5582bc1e7f16072ce8519de168d62769ed489d3dc5",
      "transactionIndex": "0x67",
      "blockHash": "0x988c977690e342e100e94ae59a70a3fad4701cdfa3452b11cbbbaf287e98ace4",
      "blockNumber": "0x731e87",
      "gasUsed": "0xfd27",
      "effectiveGasPrice": "0x44818ed3",
      "from": "0xc77f7fed3b5cc8249adc428c5f44c9063b9734b4",
      "to": "0x8aafd3ede9adb0ff97c7aebce82a919afb1c8764",
      "contractAddress": null
    }
  ],
  "libraries": [],
  "pending": [],
  "returns": {},
  "timestamp": 1737517885,
  "chain": 11155111,
  "commit": "1d2fb70"
}