{
  "transactions": [
    {
      "hash": "0x2cfa8e212044b30d9824ead0f053a5223453820f0fe5a0d2205c212bb9d255b2",
      "transactionType": "CALL",
      "contractName": null,
      "contractAddress": "0x270e88f8683660553e8ba4eb2ad7c91a1710d769",
      "function": "buy(address)",
      "arguments": [
        "0xC77f7fed3b5Cc8249aDc428c5F44C9063B9734b4"
      ],
      "transaction": {
        "from": "0xc77f7fed3b5cc8249adc428c5f44c9063b9734b4",
        "to": "0x270e88f8683660553e8ba4eb2ad7c91a1710d769",
        "gas": "0x1b30c",
        "value": "0xde0b6b3a7640000",
        "input": "0xf088d547000000000000000000000000c77f7fed3b5cc8249adc428c5f44c9063b9734b4",
        "nonce": "0x64c",
        "chainId": "0xaa36a7"
      },
      "additionalContracts": [],
      "isFixedGasLimit": false
    }
  ],
  "receipts": [
    {
      "status": "0x1",
      "cumulativeGasUsed": "0xbd0c6f",
      "logs": [
        {
          "address": "0x270e88f8683660553e8ba4eb2ad7c91a1710d769",
          "topics": [
            "0xddf252ad1be2c89b69c2b068fc378daa952ba7f163c4a11628f55a4df523b3ef",
            "0x0000000000000000000000000000000000000000000000000000000000000000",
            "0x000000000000000000000000c77f7fed3b5cc8249adc428c5f44c9063b9734b4"
          ],
          "data": "0x00000000000000000000000000000000000000000000002c930a03c353f24fc6",
          "blockHash": "0x6bd9baafdb94d84fc13092012833c227f662185c5ec04023fad8bfb64db3d0db",
          "blockNumber": "0x725337",
          "transactionHash": "0x2cfa8e212044b30d9824ead0f053a5223453820f0fe5a0d2205c212bb9d255b2",
          "transactionIndex": "0x68",
          "logIndex": "0xbd",
          "removed": false
        },
        {
          "address": "0x270e88f8683660553e8ba4eb2ad7c91a1710d769",
          "topics": [
            "0xddf252ad1be2c89b69c2b068fc378daa952ba7f163c4a11628f55a4df523b3ef",
            "0x0000000000000000000000000000000000000000000000000000000000000000",
            "0x000000000000000000000000c77f7fed3b5cc8249adc428c5f44c9063b9734b4"
          ],
          "data": "0x000000000000000000000000000000000000000000000000229d0fa49eaae79a",
          "blockHash": "0x6bd9baafdb94d84fc13092012833c227f662185c5ec04023fad8bfb64db3d0db",
          "blockNumber": "0x725337",
          "transactionHash": "0x2cfa8e212044b30d9824ead0f053a5223453820f0fe5a0d2205c212bb9d255b2",
          "transactionIndex": "0x68",
          "logIndex": "0xbe",
          "removed": false
        },
        {
          "address": "0x270e88f8683660553e8ba4eb2ad7c91a1710d769",
          "topics": [
            "0x4afcb4a87cdbd9974efdb92ee48bc8d7cd0ae4bf217004db3d080cbaee652ca7"
          ],
          "data": "0x000000000000000000000000000000000000000000000000000000006786d89c0000000000000000000000000000000000000000000000000004470c62200abc0000000000000000000000000000000000000000000000000de0b6b3a7640000",
          "blockHash": "0x6bd9baafdb94d84fc13092012833c227f662185c5ec04023fad8bfb64db3d0db",
          "blockNumber": "0x725337",
          "transactionHash": "0x2cfa8e212044b30d9824ead0f053a5223453820f0fe5a0d2205c212bb9d255b2",
          "transactionIndex": "0x68",
          "logIndex": "0xbf",
          "removed": false
        }
      ],
      "logsBloom": "0x00000000000000000000000000000000000000000000000000000000000000000000000000000000000000000000000020000000000000004000000000000000000000000000000000000008000000000000000000000000000000000000000000000000020000000000000000000800020000000000000000000010000000000000000000010000000000000000000000000000000000000000010000000000000000000000000000000000000000004000000000000000000000000000000000000002000000800000000000000000000000000000080000008000000020000000000000000000000000000000000000000000000000000000000000000000",
      "type": "0x2",
      "transactionHash": "0x2cfa8e212044b30d9824ead0f053a5223453820f0fe5a0d2205c212bb9d255b2",
      "transactionIndex": "0x68",
      "blockHash": "0x6bd9baafdb94d84fc13092012833c227f662185c5ec04023fad8bfb64db3d0db",
      "blockNumber": "0x725337",
      "gasUsed": "0x13af8",
      "effectiveGasPrice": "0x1b9eff824",
      "from": "0xc77f7fed3b5cc8249adc428c5f44c9063b9734b4",
      "to": "0x270e88f8683660553e8ba4eb2ad7c91a1710d769",
      "contractAddress": null
    }
  ],
  "libraries": [],
  "pending": [],
  "returns": {},
  "timestamp": 1736890524,
  "chain": 11155111,
  "commit": "51a374b"
}