{
  "transactions": [
    {
      "hash": "0x6e393239ff14005b4d53f2030c4ebb16806f15a5c0688395e2d727bee4630bd4",
      "transactionType": "CALL",
      "contractName": null,
      "contractAddress": "0xbf4a322f1496e5c3d34a9bcdb4c60567b38c7de2",
      "function": "sell(uint256)",
      "arguments": [
        "981007306441002492034"
      ],
      "transaction": {
        "from": "0xc77f7fed3b5cc8249adc428c5f44c9063b9734b4",
        "to": "0xbf4a322f1496e5c3d34a9bcdb4c60567b38c7de2",
        "gas": "0x16fea",
        "value": "0x0",
        "input": "0xe4849b320000000000000000000000000000000000000000000000352e36139bcebaa082",
        "nonce": "0xbcd",
        "chainId": "0xaa36a7"
      },
      "additionalContracts": [],
      "isFixedGasLimit": false
    }
  ],
  "receipts": [
    {
      "status": "0x1",
      "cumulativeGasUsed": "0xc8abee",
      "logs": [
        {
          "address": "0xbf4a322f1496e5c3d34a9bcdb4c60567b38c7de2",
          "topics": [
            "0xddf252ad1be2c89b69c2b068fc378daa952ba7f163c4a11628f55a4df523b3ef",
            "0x000000000000000000000000c77f7fed3b5cc8249adc428c5f44c9063b9734b4",
            "0x0000000000000000000000000000000000000000000000000000000000000000"
          ],
          "data": "0x0000000000000000000000000000000000000000000000352e36139bcebaa082",
          "blockHash": "0x18b52c80e75a1c494d46465c1de34454cf63602d2d438c0d6e72e782e0b9b67a",
          "blockNumber": "0x725bed",
          "transactionHash": "0x6e393239ff14005b4d53f2030c4ebb16806f15a5c0688395e2d727bee4630bd4",
          "transactionIndex": "0x78",
          "logIndex": "0x91",
          "removed": false
        },
        {
          "address": "0xbf4a322f1496e5c3d34a9bcdb4c60567b38c7de2",
          "topics": [
            "0x4afcb4a87cdbd9974efdb92ee48bc8d7cd0ae4bf217004db3d080cbaee652ca7"
          ],
          "data": "0x0000000000000000000000000000000000000000000000000000000067874178000000000000000000000000000000000000000000000000000398a425953d840000000000000000000000000000000000000000000000000dc7e3e46888b63a",
          "blockHash": "0x18b52c80e75a1c494d46465c1de34454cf63602d2d438c0d6e72e782e0b9b67a",
          "blockNumber": "0x725bed",
          "transactionHash": "0x6e393239ff14005b4d53f2030c4ebb16806f15a5c0688395e2d727bee4630bd4",
          "transactionIndex": "0x78",
          "logIndex": "0x92",
          "removed": false
        }
      ],
      "logsBloom": "0x00000000000000000000000000000000000000000000000000000000000000000000000000000000000000000000000000000000000000004000000000000000000000000000000000000008000000000000001000000000000000000000000000000000020000000000000000000800020000000000000000000010000000000000000000000000000000000000000000000000000008000000010000000000000000000000000000000000000000004000000000000000000000000000000000000002000000800000000000001000000000000000080000000000000020000000000000000000000000000000000000000000000000000000000000000000",
      "type": "0x2",
      "transactionHash": "0x6e393239ff14005b4d53f2030c4ebb16806f15a5c0688395e2d727bee4630bd4",
      "transactionIndex": "0x78",
      "blockHash": "0x18b52c80e75a1c494d46465c1de34454cf63602d2d438c0d6e72e782e0b9b67a",
      "blockNumber": "0x725bed",
      "gasUsed": "0xfb91",
      "effectiveGasPrice": "0x84209be8",
      "from": "0xc77f7fed3b5cc8249adc428c5f44c9063b9734b4",
      "to": "0xbf4a322f1496e5c3d34a9bcdb4c60567b38c7de2",
      "contractAddress": null
    }
  ],
  "libraries": [],
  "pending": [],
  "returns": {},
  "timestamp": 1736917368,
  "chain": 11155111,
  "commit": "51a374b"
}