{
  "transactions": [
    {
      "hash": "0x7473e6209dc48615f98c880643755555b799a9ea6207a111be2ea3c6e285c795",
      "transactionType": "CALL",
      "contractName": null,
      "contractAddress": "0x8aafd3ede9adb0ff97c7aebce82a919afb1c8764",
      "function": "sell(uint256)",
      "arguments": [
        "583937128649"
      ],
      "transaction": {
        "from": "0xc77f7fed3b5cc8249adc428c5f44c9063b9734b4",
        "to": "0x8aafd3ede9adb0ff97c7aebce82a919afb1c8764",
        "gas": "0x1722a",
        "value": "0x0",
        "input": "0xe4849b3200000000000000000000000000000000000000000000000000000087f55d78c9",
        "nonce": "0x179d",
        "chainId": "0xaa36a7"
      },
      "additionalContracts": [],
      "isFixedGasLimit": false
    }
  ],
  "receipts": [
    {
      "status": "0x1",
      "cumulativeGasUsed": "0xd70d66",
      "logs": [
        {
          "address": "0x8aafd3ede9adb0ff97c7aebce82a919afb1c8764",
          "topics": [
            "0xddf252ad1be2c89b69c2b068fc378daa952ba7f163c4a11628f55a4df523b3ef",
            "0x000000000000000000000000c77f7fed3b5cc8249adc428c5f44c9063b9734b4",
            "0x0000000000000000000000000000000000000000000000000000000000000000"
          ],
          "data": "0x00000000000000000000000000000000000000000000000000000086deec1584",
          "blockHash": "0x288d76db33fce8155b3c11b03a9d7697f977b4024213e8d3eb5ebc8d1e9dc0e7",
          "blockNumber": "0x731f7c",
          "transactionHash": "0x7473e6209dc48615f98c880643755555b799a9ea6207a111be2ea3c6e285c795",
          "transactionIndex": "0x6c",
          "logIndex": "0xb5",
          "removed": false
        },
        {
          "address": "0x8aafd3ede9adb0ff97c7aebce82a919afb1c8764",
          "topics": [
            "0xddf252ad1be2c89b69c2b068fc378daa952ba7f163c4a11628f55a4df523b3ef",
            "0x000000000000000000000000c77f7fed3b5cc8249adc428c5f44c9063b9734b4",
            "0x000000000000000000000000c77f7fed3b5cc8249adc428c5f44c9063b9734b4"
          ],
          "data": "0x0000000000000000000000000000000000000000000000000000000116716345",
          "blockHash": "0x288d76db33fce8155b3c11b03a9d7697f977b4024213e8d3eb5ebc8d1e9dc0e7",
          "blockNumber": "0x731f7c",
          "transactionHash": "0x7473e6209dc48615f98c880643755555b799a9ea6207a111be2ea3c6e285c795",
          "transactionIndex": "0x6c",
          "logIndex": "0xb6",
          "removed": false
        },
        {
          "address": "0x8aafd3ede9adb0ff97c7aebce82a919afb1c8764",
          "topics": [
            "0x4afcb4a87cdbd9974efdb92ee48bc8d7cd0ae4bf217004db3d080cbaee652ca7"
          ],
          "data": "0x00000000000000000000000000000000000000000000000000000000679076b80000000000000000000000000000000000000000000000000018d9fbe3bea13e00000000000000000000000000000000000000000000000000000000f37755a6",
          "blockHash": "0x288d76db33fce8155b3c11b03a9d7697f977b4024213e8d3eb5ebc8d1e9dc0e7",
          "blockNumber": "0x731f7c",
          "transactionHash": "0x7473e6209dc48615f98c880643755555b799a9ea6207a111be2ea3c6e285c795",
          "transactionIndex": "0x6c",
          "logIndex": "0xb7",
          "removed": false
        }
      ],
      "logsBloom": "0x00000000000000000000000000000000000000000600000000000000000000000000000000000000000000000000000000000000000000004000000000000000000000000000004000000008000000000000000000000000000000000000000000000000020000000000000000000800020000000000000000000010000000000000000000000000000000000000000000000000000000000000010000000000000000000000000000000000000000004000000000000000000000000000000000000002000000800000000000000000000000000000080000000000000020000000000000000000000000000000000000000000000000000000000000000000",
      "type": "0x2",
      "transactionHash": "0x7473e6209dc48615f98c880643755555b799a9ea6207a111be2ea3c6e285c795",
      "transactionIndex": "0x6c",
      "blockHash": "0x288d76db33fce8155b3c11b03a9d7697f977b4024213e8d3eb5ebc8d1e9dc0e7",
      "blockNumber": "0x731f7c",
      "gasUsed": "0xfd1b",
      "effectiveGasPrice": "0x4d1e90da",
      "from": "0xc77f7fed3b5cc8249adc428c5f44c9063b9734b4",
      "to": "0x8aafd3ede9adb0ff97c7aebce82a919afb1c8764",
      "contractAddress": null
    }
  ],
  "libraries": [],
  "pending": [],
  "returns": {},
  "timestamp": 1737520826,
  "chain": 11155111,
  "commit": "1d2fb70"
}