{
  "transactions": [
    {
      "hash": "0xd5d50c5e9813b964b85c807c996874c57196be2e0b03f4e5ab39138e1344515e",
      "transactionType": "CALL",
      "contractName": null,
      "contractAddress": "0xbf4a322f1496e5c3d34a9bcdb4c60567b38c7de2",
      "function": "sell(uint256)",
      "arguments": [
        "984030323612476985187"
      ],
      "transaction": {
        "from": "0xc77f7fed3b5cc8249adc428c5f44c9063b9734b4",
        "to": "0xbf4a322f1496e5c3d34a9bcdb4c60567b38c7de2",
        "gas": "0x16fea",
        "value": "0x0",
        "input": "0xe4849b320000000000000000000000000000000000000000000000355829fdb59e5f4f63",
        "nonce": "0xaed",
        "chainId": "0xaa36a7"
      },
      "additionalContracts": [],
      "isFixedGasLimit": false
    }
  ],
  "receipts": [
    {
      "status": "0x1",
      "cumulativeGasUsed": "0xd0d1f0",
      "logs": [
        {
          "address": "0xbf4a322f1496e5c3d34a9bcdb4c60567b38c7de2",
          "topics": [
            "0xddf252ad1be2c89b69c2b068fc378daa952ba7f163c4a11628f55a4df523b3ef",
            "0x000000000000000000000000c77f7fed3b5cc8249adc428c5f44c9063b9734b4",
            "0x0000000000000000000000000000000000000000000000000000000000000000"
          ],
          "data": "0x0000000000000000000000000000000000000000000000355829fdb59e5f4f63",
          "blockHash": "0x6763b4820695f7c14db9a05d7ac1d198f386ff8291d54a8467cf7d26a61f494f",
          "blockNumber": "0x725ae2",
          "transactionHash": "0xd5d50c5e9813b964b85c807c996874c57196be2e0b03f4e5ab39138e1344515e",
          "transactionIndex": "0x74",
          "logIndex": "0x86",
          "removed": false
        },
        {
          "address": "0xbf4a322f1496e5c3d34a9bcdb4c60567b38c7de2",
          "topics": [
            "0x4afcb4a87cdbd9974efdb92ee48bc8d7cd0ae4bf217004db3d080cbaee652ca7"
          ],
          "data": "0x00000000000000000000000000000000000000000000000000000000678734e8000000000000000000000000000000000000000000000000000395d02072d2ac0000000000000000000000000000000000000000000000000dc7e3eb6fd871a0",
          "blockHash": "0x6763b4820695f7c14db9a05d7ac1d198f386ff8291d54a8467cf7d26a61f494f",
          "blockNumber": "0x725ae2",
          "transactionHash": "0xd5d50c5e9813b964b85c807c996874c57196be2e0b03f4e5ab39138e1344515e",
          "transactionIndex": "0x74",
          "logIndex": "0x87",
          "removed": false
        }
      ],
      "logsBloom": "0x00000000000000000000000000000000000000000000000000000000000000000000000000000000000000000000000000000000000000004000000000000000000000000000000000000008000000000000001000000000000000000000000000000000020000000000000000000800020000000000000000000010000000000000000000000000000000000000000000000000000008000000010000000000000000000000000000000000000000004000000000000000000000000000000000000002000000800000000000001000000000000000080000000000000020000000000000000000000000000000000000000000000000000000000000000000",
      "type": "0x2",
      "transactionHash": "0xd5d50c5e9813b964b85c807c996874c57196be2e0b03f4e5ab39138e1344515e",
      "transactionIndex": "0x74",
      "blockHash": "0x6763b4820695f7c14db9a05d7ac1d198f386ff8291d54a8467cf7d26a61f494f",
      "blockNumber": "0x725ae2",
      "gasUsed": "0xfb91",
      "effectiveGasPrice": "0xad09e339",
      "from": "0xc77f7fed3b5cc8249adc428c5f44c9063b9734b4",
      "to": "0xbf4a322f1496e5c3d34a9bcdb4c60567b38c7de2",
      "contractAddress": null
    }
  ],
  "libraries": [],
  "pending": [],
  "returns": {},
  "timestamp": 1736914153,
  "chain": 11155111,
  "commit": "51a374b"
}