{
  "transactions": [
    {
      "hash": "0x59e059d2dc0a323275c1faa2533b2e87793873505d06964753d5bcdb697fde91",
      "transactionType": "CALL",
      "contractName": null,
      "contractAddress": "0xd733d32bbc32b9da11d0a266572d231cd445ea4a",
      "function": "borrow(uint256,uint256)",
      "arguments": [
        "9999999999999990",
        "0"
      ],
      "transaction": {
        "from": "0xc77f7fed3b5cc8249adc428c5f44c9063b9734b4",
        "to": "0xd733d32bbc32b9da11d0a266572d231cd445ea4a",
        "gas": "0x5dbfc",
        "value": "0x0",
        "input": "0x0ecbcdab000000000000000000000000000000000000000000000000002386f26fc0fff60000000000000000000000000000000000000000000000000000000000000000",
        "nonce": "0x193a",
        "chainId": "0xaa36a7"
      },
      "additionalContracts": [],
      "isFixedGasLimit": false
    }
  ],
  "receipts": [
    {
      "status": "0x1",
      "cumulativeGasUsed": "0x21d7b21",
      "logs": [
        {
          "address": "0xd733d32bbc32b9da11d0a266572d231cd445ea4a",
          "topics": [
            "0xddf252ad1be2c89b69c2b068fc378daa952ba7f163c4a11628f55a4df523b3ef",
            "0x000000000000000000000000c77f7fed3b5cc8249adc428c5f44c9063b9734b4",
            "0x000000000000000000000000d733d32bbc32b9da11d0a266572d231cd445ea4a"
          ],
          "data": "0x0000000000000000000000000000000000000000000000008ac7230489e7ffff",
          "blockHash": "0xbfa3efc5cceea18f1104048a82f2e2f6af14627f708e912d0072c38460ceb538",
          "blockNumber": "0x739c38",
          "transactionHash": "0x59e059d2dc0a323275c1faa2533b2e87793873505d06964753d5bcdb697fde91",
          "transactionIndex": "0xd7",
          "logIndex": "0x213",
          "removed": false
        },
        {
          "address": "0xd733d32bbc32b9da11d0a266572d231cd445ea4a",
          "topics": [
            "0x03bbe564cb1b78e43195eeadbde99e5b89b19345862807fcfb59f884e4165e25"
          ],
          "data": "0x00000000000000000000000038818e389773445cd73adbaa37b8b169f458c6e1000000000000000000000000000000000000000000000000000002ba7def2fff",
          "blockHash": "0xbfa3efc5cceea18f1104048a82f2e2f6af14627f708e912d0072c38460ceb538",
          "blockNumber": "0x739c38",
          "transactionHash": "0x59e059d2dc0a323275c1faa2533b2e87793873505d06964753d5bcdb697fde91",
          "transactionIndex": "0xd7",
          "logIndex": "0x214",
          "removed": false
        },
        {
          "address": "0xd733d32bbc32b9da11d0a266572d231cd445ea4a",
          "topics": [
            "0x03bbe564cb1b78e43195eeadbde99e5b89b19345862807fcfb59f884e4165e25"
          ],
          "data": "0x000000000000000000000000c77f7fed3b5cc8249adc428c5f44c9063b9734b4000000000000000000000000000000000000000000000000002322e710d41ff7",
          "blockHash": "0xbfa3efc5cceea18f1104048a82f2e2f6af14627f708e912d0072c38460ceb538",
          "blockNumber": "0x739c38",
          "transactionHash": "0x59e059d2dc0a323275c1faa2533b2e87793873505d06964753d5bcdb697fde91",
          "transactionIndex": "0xd7",
          "logIndex": "0x215",
          "removed": false
        },
        {
          "address": "0xd733d32bbc32b9da11d0a266572d231cd445ea4a",
          "topics": [
            "0xaec00f5213a37254bc68a26b0685d1a5b2bf513e1e587c94c7df7f4a62b56c9c"
          ],
          "data": "0x0000000000000000000000000000000000000000000000008ac7230489e7ffff00000000000000000000000000000000000000000000000000232bff5f46bff600000000000000000000000000000000000000000000000000232bff5f46bff60000000000000000000000000000000000000000000000008ac7230489e7ffff",
          "blockHash": "0xbfa3efc5cceea18f1104048a82f2e2f6af14627f708e912d0072c38460ceb538",
          "blockNumber": "0x739c38",
          "transactionHash": "0x59e059d2dc0a323275c1faa2533b2e87793873505d06964753d5bcdb697fde91",
          "transactionIndex": "0xd7",
          "logIndex": "0x216",
          "removed": false
        },
        {
          "address": "0xd733d32bbc32b9da11d0a266572d231cd445ea4a",
          "topics": [
            "0x4afcb4a87cdbd9974efdb92ee48bc8d7cd0ae4bf217004db3d080cbaee652ca7"
          ],
          "data": "0x000000000000000000000000000000000000000000000000000000006796890c00000000000000000000000000000000000000000000000000038e21a006d7fe000000000000000000000000000000000000000000000000000009184e729fff",
          "blockHash": "0xbfa3efc5cceea18f1104048a82f2e2f6af14627f708e912d0072c38460ceb538",
          "blockNumber": "0x739c38",
          "transactionHash": "0x59e059d2dc0a323275c1faa2533b2e87793873505d06964753d5bcdb697fde91",
          "transactionIndex": "0xd7",
          "logIndex": "0x217",
          "removed": false
        }
      ],
      "logsBloom": "0x00000000000000020000000000000100400000000000000000000000000000000008000000000000000000000000000000002000000000004000000000000000000000000000000000000008000000000000000000000000000000000000000000000000000000000000000000000000020000000000000000000010000000000000000000000000000000000000000000000000000000000000010000000000000000000000000000000400000000004000000000000000000000001000020000040002000000800000000000000000000000000000080000000000000000100000000000000000000000000080000000000000000000000000008000000000",
      "type": "0x2",
      "transactionHash": "0x59e059d2dc0a323275c1faa2533b2e87793873505d06964753d5bcdb697fde91",
      "transactionIndex": "0xd7",
      "blockHash": "0xbfa3efc5cceea18f1104048a82f2e2f6af14627f708e912d0072c38460ceb538",
      "blockNumber": "0x739c38",
      "gasUsed": "0x401a2",
      "effectiveGasPrice": "0x13db86a07",
      "from": "0xc77f7fed3b5cc8249adc428c5f44c9063b9734b4",
      "to": "0xd733d32bbc32b9da11d0a266572d231cd445ea4a",
      "contractAddress": null
    }
  ],
  "libraries": [],
  "pending": [],
  "returns": {},
  "timestamp": 1737918733,
  "chain": 11155111,
  "commit": "f5162e9"
}