{
  "transactions": [
    {
      "hash": "0x6f37bbb7d4ee1dc2a43abecfe06e12951c86d18ab80cbc0a577124ad824b9238",
      "transactionType": "CALL",
      "contractName": null,
      "contractAddress": "0x8aafd3ede9adb0ff97c7aebce82a919afb1c8764",
      "function": "sell(uint256)",
      "arguments": [
        "145666896801070255888"
      ],
      "transaction": {
        "from": "0xc77f7fed3b5cc8249adc428c5f44c9063b9734b4",
        "to": "0x8aafd3ede9adb0ff97c7aebce82a919afb1c8764",
        "gas": "0x17270",
        "value": "0x0",
        "input": "0xe4849b32000000000000000000000000000000000000000000000007e588c6dd41470f10",
        "nonce": "0x176c",
        "chainId": "0xaa36a7"
      },
      "additionalContracts": [],
      "isFixedGasLimit": false
    }
  ],
  "receipts": [
    {
      "status": "0x1",
      "cumulativeGasUsed": "0x21f4311",
      "logs": [
        {
          "address": "0x8aafd3ede9adb0ff97c7aebce82a919afb1c8764",
          "topics": [
            "0xddf252ad1be2c89b69c2b068fc378daa952ba7f163c4a11628f55a4df523b3ef",
            "0x000000000000000000000000c77f7fed3b5cc8249adc428c5f44c9063b9734b4",
            "0x0000000000000000000000000000000000000000000000000000000000000000"
          ],
          "data": "0x000000000000000000000000000000000000000000000007d55cacb286632991",
          "blockHash": "0x1f63acdb5aa6f6140adc85712f809e1b58020cef88f2b2df9a247ac095a95f12",
          "blockNumber": "0x731f43",
          "transactionHash": "0x6f37bbb7d4ee1dc2a43abecfe06e12951c86d18ab80cbc0a577124ad824b9238",
          "transactionIndex": "0x59",
          "logIndex": "0x111a",
          "removed": false
        },
        {
          "address": "0x8aafd3ede9adb0ff97c7aebce82a919afb1c8764",
          "topics": [
            "0xddf252ad1be2c89b69c2b068fc378daa952ba7f163c4a11628f55a4df523b3ef",
            "0x000000000000000000000000c77f7fed3b5cc8249adc428c5f44c9063b9734b4",
            "0x000000000000000000000000c77f7fed3b5cc8249adc428c5f44c9063b9734b4"
          ],
          "data": "0x000000000000000000000000000000000000000000000000102c1a2abae3e57f",
          "blockHash": "0x1f63acdb5aa6f6140adc85712f809e1b58020cef88f2b2df9a247ac095a95f12",
          "blockNumber": "0x731f43",
          "transactionHash": "0x6f37bbb7d4ee1dc2a43abecfe06e12951c86d18ab80cbc0a577124ad824b9238",
          "transactionIndex": "0x59",
          "logIndex": "0x111b",
          "removed": false
        },
        {
          "address": "0x8aafd3ede9adb0ff97c7aebce82a919afb1c8764",
          "topics": [
            "0x4afcb4a87cdbd9974efdb92ee48bc8d7cd0ae4bf217004db3d080cbaee652ca7"
          ],
          "data": "0x000000000000000000000000000000000000000000000000000000006790740c000000000000000000000000000000000000000000000000001852cd728f84a50000000000000000000000000000000000000000000000000dcbcd96883e7448",
          "blockHash": "0x1f63acdb5aa6f6140adc85712f809e1b58020cef88f2b2df9a247ac095a95f12",
          "blockNumber": "0x731f43",
          "transactionHash": "0x6f37bbb7d4ee1dc2a43abecfe06e12951c86d18ab80cbc0a577124ad824b9238",
          "transactionIndex": "0x59",
          "logIndex": "0x111c",
          "removed": false
        }
      ],
      "logsBloom": "0x00000000000000000000000000000000000000000600000000000000000000000000000000000000000000000000000000000000000000004000000000000000000000000000004000000008000000000000000000000000000000000000000000000000020000000000000000000800020000000000000000000010000000000000000000000000000000000000000000000000000000000000010000000000000000000000000000000000000000004000000000000000000000000000000000000002000000800000000000000000000000000000080000000000000020000000000000000000000000000000000000000000000000000000000000000000",
      "type": "0x2",
      "transactionHash": "0x6f37bbb7d4ee1dc2a43abecfe06e12951c86d18ab80cbc0a577124ad824b9238",
      "transactionIndex": "0x59",
      "blockHash": "0x1f63acdb5aa6f6140adc85712f809e1b58020cef88f2b2df9a247ac095a95f12",
      "blockNumber": "0x731f43",
      "gasUsed": "0xfd4b",
      "effectiveGasPrice": "0x37562a41",
      "from": "0xc77f7fed3b5cc8249adc428c5f44c9063b9734b4",
      "to": "0x8aafd3ede9adb0ff97c7aebce82a919afb1c8764",
      "contractAddress": null
    }
  ],
  "libraries": [],
  "pending": [],
  "returns": {},
  "timestamp": 1737520142,
  "chain": 11155111,
  "commit": "1d2fb70"
}