{
  "transactions": [
    {
      "hash": "0x6a89bd8f1d97251732ea3653acb6c5db81fefb62bd67a50ca0d5de26b88582e2",
      "transactionType": "CALL",
      "contractName": null,
      "contractAddress": "0x8aafd3ede9adb0ff97c7aebce82a919afb1c8764",
      "function": "buy(address)",
      "arguments": [
        "0xC77f7fed3b5Cc8249aDc428c5F44C9063B9734b4"
      ],
      "transaction": {
        "from": "0xc77f7fed3b5cc8249adc428c5f44c9063b9734b4",
        "to": "0x8aafd3ede9adb0ff97c7aebce82a919afb1c8764",
        "gas": "0x156ea",
        "value": "0xde0b6b3a7640000",
        "input": "0xf088d547000000000000000000000000c77f7fed3b5cc8249adc428c5f44c9063b9734b4",
        "nonce": "0x17aa",
        "chainId": "0xaa36a7"
      },
      "additionalContracts": [],
      "isFixedGasLimit": false
    }
  ],
  "receipts": [
    {
      "status": "0x1",
      "cumulativeGasUsed": "0x18df389",
      "logs": [
        {
          "address": "0x8aafd3ede9adb0ff97c7aebce82a919afb1c8764",
          "topics": [
            "0xddf252ad1be2c89b69c2b068fc378daa952ba7f163c4a11628f55a4df523b3ef",
            "0x0000000000000000000000000000000000000000000000000000000000000000",
            "0x000000000000000000000000c77f7fed3b5cc8249adc428c5f44c9063b9734b4"
          ],
          "data": "0x000000000000000000000000000000000000000000000007a3caa763e3508ee2",
          "blockHash": "0xdc5a28663348988a990843267b6622ccc2679dde1a24817d04f1376097c760c0",
          "blockNumber": "0x731f8b",
          "transactionHash": "0x6a89bd8f1d97251732ea3653acb6c5db81fefb62bd67a50ca0d5de26b88582e2",
          "transactionIndex": "0xdf",
          "logIndex": "0x14d",
          "removed": false
        },
        {
          "address": "0x8aafd3ede9adb0ff97c7aebce82a919afb1c8764",
          "topics": [
            "0xddf252ad1be2c89b69c2b068fc378daa952ba7f163c4a11628f55a4df523b3ef",
            "0x0000000000000000000000000000000000000000000000000000000000000000",
            "0x000000000000000000000000c77f7fed3b5cc8249adc428c5f44c9063b9734b4"
          ],
          "data": "0x00000000000000000000000000000000000000000000000005eebd28b0c6c1ee",
          "blockHash": "0xdc5a28663348988a990843267b6622ccc2679dde1a24817d04f1376097c760c0",
          "blockNumber": "0x731f8b",
          "transactionHash": "0x6a89bd8f1d97251732ea3653acb6c5db81fefb62bd67a50ca0d5de26b88582e2",
          "transactionIndex": "0xdf",
          "logIndex": "0x14e",
          "removed": false
        },
        {
          "address": "0x8aafd3ede9adb0ff97c7aebce82a919afb1c8764",
          "topics": [
            "0x4afcb4a87cdbd9974efdb92ee48bc8d7cd0ae4bf217004db3d080cbaee652ca7"
          ],
          "data": "0x000000000000000000000000000000000000000000000000000000006790776c0000000000000000000000000000000000000000000000000018fbf9040c8d480000000000000000000000000000000000000000000000000de0b6b3a7640000",
          "blockHash": "0xdc5a28663348988a990843267b6622ccc2679dde1a24817d04f1376097c760c0",
          "blockNumber": "0x731f8b",
          "transactionHash": "0x6a89bd8f1d97251732ea3653acb6c5db81fefb62bd67a50ca0d5de26b88582e2",
          "transactionIndex": "0xdf",
          "logIndex": "0x14f",
          "removed": false
        }
      ],
      "logsBloom": "0x00000000000000000000000000000000000000000600000000000000000000000000000000000000000000000000000000000000000000004000000000000000000000000000004000000008000000000000000000000000000000000000000000000000020000000000000000000800020000000000000000000010000000000000000000000000000000000000000000000000000000000000010000000000000000000000000000000000000000004000000000000000000000000000000000000002000000800000000000000000000000000000080000000000000020000000000000000000000000000000000000000000000000000000000000000000",
      "type": "0x2",
      "transactionHash": "0x6a89bd8f1d97251732ea3653acb6c5db81fefb62bd67a50ca0d5de26b88582e2",
      "transactionIndex": "0xdf",
      "blockHash": "0xdc5a28663348988a990843267b6622ccc2679dde1a24817d04f1376097c760c0",
      "blockNumber": "0x731f8b",
      "gasUsed": "0xf844",
      "effectiveGasPrice": "0x333913c6",
      "from": "0xc77f7fed3b5cc8249adc428c5f44c9063b9734b4",
      "to": "0x8aafd3ede9adb0ff97c7aebce82a919afb1c8764",
      "contractAddress": null
    }
  ],
  "libraries": [],
  "pending": [],
  "returns": {},
  "timestamp": 1737521005,
  "chain": 11155111,
  "commit": "1d2fb70"
}