{
  "transactions": [
    {
      "hash": "0xfbbce2831d6a159bdceac18743b64c615f4ae55cf16ee53d21c08fe9eb9a3a3a",
      "transactionType": "CALL",
      "contractName": null,
      "contractAddress": "0x270e88f8683660553e8ba4eb2ad7c91a1710d769",
      "function": "sell(uint256)",
      "arguments": [
        "733417883067562321685"
      ],
      "transaction": {
        "from": "0xc77f7fed3b5cc8249adc428c5f44c9063b9734b4",
        "to": "0x270e88f8683660553e8ba4eb2ad7c91a1710d769",
        "gas": "0x16fec",
        "value": "0x0",
        "input": "0xe4849b32000000000000000000000000000000000000000000000027c237bed5e107e715",
        "nonce": "0x786",
        "chainId": "0xaa36a7"
      },
      "additionalContracts": [],
      "isFixedGasLimit": false
    }
  ],
  "receipts": [
    {
      "status": "0x1",
      "cumulativeGasUsed": "0x1182893",
      "logs": [
        {
          "address": "0x270e88f8683660553e8ba4eb2ad7c91a1710d769",
          "topics": [
            "0xddf252ad1be2c89b69c2b068fc378daa952ba7f163c4a11628f55a4df523b3ef",
            "0x000000000000000000000000c77f7fed3b5cc8249adc428c5f44c9063b9734b4",
            "0x0000000000000000000000000000000000000000000000000000000000000000"
          ],
          "data": "0x000000000000000000000000000000000000000000000027c237bed5e107e715",
          "blockHash": "0x24cb27cc403c786f19b1bbb58ee94d2d03fe7f9af2dbb4a2ef379ddd70c2073d",
          "blockNumber": "0x7254b6",
          "transactionHash": "0xfbbce2831d6a159bdceac18743b64c615f4ae55cf16ee53d21c08fe9eb9a3a3a",
          "transactionIndex": "0x4d",
          "logIndex": "0x75",
          "removed": false
        },
        {
          "address": "0x270e88f8683660553e8ba4eb2ad7c91a1710d769",
          "topics": [
            "0x4afcb4a87cdbd9974efdb92ee48bc8d7cd0ae4bf217004db3d080cbaee652ca7"
          ],
          "data": "0x000000000000000000000000000000000000000000000000000000006786ea900000000000000000000000000000000000000000000000000004cfb17606e01c0000000000000000000000000000000000000000000000000dc827d190f45b42",
          "blockHash": "0x24cb27cc403c786f19b1bbb58ee94d2d03fe7f9af2dbb4a2ef379ddd70c2073d",
          "blockNumber": "0x7254b6",
          "transactionHash": "0xfbbce2831d6a159bdceac18743b64c615f4ae55cf16ee53d21c08fe9eb9a3a3a",
          "transactionIndex": "0x4d",
          "logIndex": "0x76",
          "removed": false
        }
      ],
      "logsBloom": "0x00000000000000000000000000000000000000000000000000000000000000000000000000000000000000000000000020000000000000004000000000000000000000000000000000000008000000000000000000000000000000000000000000000000020000000000000000000800020000000000000000000010000000000000000000010000000000000000000000000000000000000000010000000000000000000000000000000000000000004000000000000000000000000000000000000002000000800000000000000000000000000000080000008000000020000000000000000000000000000000000000000000000000000000000000000000",
      "type": "0x2",
      "transactionHash": "0xfbbce2831d6a159bdceac18743b64c615f4ae55cf16ee53d21c08fe9eb9a3a3a",
      "transactionIndex": "0x4d",
      "blockHash": "0x24cb27cc403c786f19b1bbb58ee94d2d03fe7f9af2dbb4a2ef379ddd70c2073d",
      "blockNumber": "0x7254b6",
      "gasUsed": "0xfb93",
      "effectiveGasPrice": "0x116123875",
      "from": "0xc77f7fed3b5cc8249adc428c5f44c9063b9734b4",
      "to": "0x270e88f8683660553e8ba4eb2ad7c91a1710d769",
      "contractAddress": null
    }
  ],
  "libraries": [],
  "pending": [],
  "returns": {},
  "timestamp": 1736895122,
  "chain": 11155111,
  "commit": "51a374b"
}