{
  "transactions": [
    {
      "hash": "0xe65cb83046aa1a5c05e0a249fa33a405f6b353f594b0470ec43d0080903ea33e",
      "transactionType": "CALL",
      "contractName": null,
      "contractAddress": "0x5eb9cc76c3506942c1c0ead70e877dd5e4f00cb0",
      "function": "sell(uint256)",
      "arguments": [
        "989073228441562166295"
      ],
      "transaction": {
        "from": "0xc77f7fed3b5cc8249adc428c5f44c9063b9734b4",
        "to": "0x5eb9cc76c3506942c1c0ead70e877dd5e4f00cb0",
        "gas": "0x16fec",
        "value": "0x0",
        "input": "0xe4849b320000000000000000000000000000000000000000000000359e25fceedc18b417",
        "nonce": "0x4a9",
        "chainId": "0xaa36a7"
      },
      "additionalContracts": [],
      "isFixedGasLimit": false
    }
  ],
  "receipts": [
    {
      "status": "0x1",
      "cumulativeGasUsed": "0xf92101",
      "logs": [
        {
          "address": "0x5eb9cc76c3506942c1c0ead70e877dd5e4f00cb0",
          "topics": [
            "0xddf252ad1be2c89b69c2b068fc378daa952ba7f163c4a11628f55a4df523b3ef",
            "0x000000000000000000000000c77f7fed3b5cc8249adc428c5f44c9063b9734b4",
            "0x0000000000000000000000000000000000000000000000000000000000000000"
          ],
          "data": "0x0000000000000000000000000000000000000000000000359e25fceedc18b417",
          "blockHash": "0x9643e1ed43b9df427e7d7bf37403d38da651c86d7d65c89db4176dcaa795a736",
          "blockNumber": "0x7250e6",
          "transactionHash": "0xe65cb83046aa1a5c05e0a249fa33a405f6b353f594b0470ec43d0080903ea33e",
          "transactionIndex": "0x7a",
          "logIndex": "0xd9",
          "removed": false
        },
        {
          "address": "0x5eb9cc76c3506942c1c0ead70e877dd5e4f00cb0",
          "topics": [
            "0x4afcb4a87cdbd9974efdb92ee48bc8d7cd0ae4bf217004db3d080cbaee652ca7"
          ],
          "data": "0x000000000000000000000000000000000000000000000000000000006786bcac0000000000000000000000000000000000000000000000000003911bcc8ea5190000000000000000000000000000000000000000000000000dc7db1331b7cfd1",
          "blockHash": "0x9643e1ed43b9df427e7d7bf37403d38da651c86d7d65c89db4176dcaa795a736",
          "blockNumber": "0x7250e6",
          "transactionHash": "0xe65cb83046aa1a5c05e0a249fa33a405f6b353f594b0470ec43d0080903ea33e",
          "transactionIndex": "0x7a",
          "logIndex": "0xda",
          "removed": false
        }
      ],
      "logsBloom": "0x00000000000000000000000000000000000000000000000000000000000000000000000000000000000000000000000000000000000000004000000000000000000000000000000000000008000000000000000000000000000000000000000000000000020000000000000004000800020000000000000000000010000000000000000000000000000000000000000000000000000000000000010000000000000000000000000000000000000000004000000000000000000000000000020000000002000000800000008000000000000000000000080000000000000020000000000000000000000000000000000000000000000000000000000000000000",
      "type": "0x2",
      "transactionHash": "0xe65cb83046aa1a5c05e0a249fa33a405f6b353f594b0470ec43d0080903ea33e",
      "transactionIndex": "0x7a",
      "blockHash": "0x9643e1ed43b9df427e7d7bf37403d38da651c86d7d65c89db4176dcaa795a736",
      "blockNumber": "0x7250e6",
      "gasUsed": "0xfb93",
      "effectiveGasPrice": "0x25ec6b8bf",
      "from": "0xc77f7fed3b5cc8249adc428c5f44c9063b9734b4",
      "to": "0x5eb9cc76c3506942c1c0ead70e877dd5e4f00cb0",
      "contractAddress": null
    }
  ],
  "libraries": [],
  "pending": [],
  "returns": {},
  "timestamp": 1736883374,
  "chain": 11155111,
  "commit": "51a374b"
}