{
  "transactions": [
    {
      "hash": "0x308c23e8cabd34296b07fc7c72e43e0a3435090aa63c1e2c69064a50ca83d1c4",
      "transactionType": "CALL",
      "contractName": null,
      "contractAddress": "0x8aafd3ede9adb0ff97c7aebce82a919afb1c8764",
      "function": "sell(uint256)",
      "arguments": [
        "42622811200760776"
      ],
      "transaction": {
        "from": "0xc77f7fed3b5cc8249adc428c5f44c9063b9734b4",
        "to": "0x8aafd3ede9adb0ff97c7aebce82a919afb1c8764",
        "gas": "0x1724d",
        "value": "0x0",
        "input": "0xe4849b3200000000000000000000000000000000000000000000000000976d3890f32bc8",
        "nonce": "0x12c3",
        "chainId": "0xaa36a7"
      },
      "additionalContracts": [],
      "isFixedGasLimit": false
    }
  ],
  "receipts": [
    {
      "status": "0x1",
      "cumulativeGasUsed": "0x88794f",
      "logs": [
        {
          "address": "0x8aafd3ede9adb0ff97c7aebce82a919afb1c8764",
          "topics": [
            "0xddf252ad1be2c89b69c2b068fc378daa952ba7f163c4a11628f55a4df523b3ef",
            "0x000000000000000000000000c77f7fed3b5cc8249adc428c5f44c9063b9734b4",
            "0x0000000000000000000000000000000000000000000000000000000000000000"
          ],
          "data": "0x0000000000000000000000000000000000000000000000000096371964c84402",
          "blockHash": "0xee67482e8a6dc34615b8082bf70554bfc78f9f1589e51d378afb64aeba07a0f1",
          "blockNumber": "0x7319bc",
          "transactionHash": "0x308c23e8cabd34296b07fc7c72e43e0a3435090aa63c1e2c69064a50ca83d1c4",
          "transactionIndex": "0x7e",
          "logIndex": "0x6c",
          "removed": false
        },
        {
          "address": "0x8aafd3ede9adb0ff97c7aebce82a919afb1c8764",
          "topics": [
            "0xddf252ad1be2c89b69c2b068fc378daa952ba7f163c4a11628f55a4df523b3ef",
            "0x000000000000000000000000c77f7fed3b5cc8249adc428c5f44c9063b9734b4",
            "0x000000000000000000000000c77f7fed3b5cc8249adc428c5f44c9063b9734b4"
          ],
          "data": "0x0000000000000000000000000000000000000000000000000001361f2c2ae7c6",
          "blockHash": "0xee67482e8a6dc34615b8082bf70554bfc78f9f1589e51d378afb64aeba07a0f1",
          "blockNumber": "0x7319bc",
          "transactionHash": "0x308c23e8cabd34296b07fc7c72e43e0a3435090aa63c1e2c69064a50ca83d1c4",
          "transactionIndex": "0x7e",
          "logIndex": "0x6d",
          "removed": false
        },
        {
          "address": "0x8aafd3ede9adb0ff97c7aebce82a919afb1c8764",
          "topics": [
            "0x4afcb4a87cdbd9974efdb92ee48bc8d7cd0ae4bf217004db3d080cbaee652ca7"
          ],
          "data": "0x00000000000000000000000000000000000000000000000000000000679031a000000000000000000000000000000000000000000000000000054d8b33677e7a000000000000000000000000000000000000000000000000000039dcc18b7cb9",
          "blockHash": "0xee67482e8a6dc34615b8082bf70554bfc78f9f1589e51d378afb64aeba07a0f1",
          "blockNumber": "0x7319bc",
          "transactionHash": "0x308c23e8cabd34296b07fc7c72e43e0a3435090aa63c1e2c69064a50ca83d1c4",
          "transactionIndex": "0x7e",
          "logIndex": "0x6e",
          "removed": false
        }
      ],
      "logsBloom": "0x00000000000000000000000000000000000000000600000000000000000000000000000000000000000000000000000000000000000000004000000000000000000000000000004000000008000000000000000000000000000000000000000000000000020000000000000000000800020000000000000000000010000000000000000000000000000000000000000000000000000000000000010000000000000000000000000000000000000000004000000000000000000000000000000000000002000000800000000000000000000000000000080000000000000020000000000000000000000000000000000000000000000000000000000000000000",
      "type": "0x2",
      "transactionHash": "0x308c23e8cabd34296b07fc7c72e43e0a3435090aa63c1e2c69064a50ca83d1c4",
      "transactionIndex": "0x7e",
      "blockHash": "0xee67482e8a6dc34615b8082bf70554bfc78f9f1589e51d378afb64aeba07a0f1",
      "blockNumber": "0x7319bc",
      "gasUsed": "0xfd33",
      "effectiveGasPrice": "0x4688edef",
      "from": "0xc77f7fed3b5cc8249adc428c5f44c9063b9734b4",
      "to": "0x8aafd3ede9adb0ff97c7aebce82a919afb1c8764",
      "contractAddress": null
    }
  ],
  "libraries": [],
  "pending": [],
  "returns": {},
  "timestamp": 1737503138,
  "chain": 11155111,
  "commit": "1d2fb70"
}