{
  "transactions": [
    {
      "hash": "0x50256910071d7153d2e84b93ea12af4f0ac959dbc7b5e8efa4479d890cb05652",
      "transactionType": "CALL",
      "contractName": null,
      "contractAddress": "0x8aafd3ede9adb0ff97c7aebce82a919afb1c8764",
      "function": "sell(uint256)",
      "arguments": [
        "67502273"
      ],
      "transaction": {
        "from": "0xc77f7fed3b5cc8249adc428c5f44c9063b9734b4",
        "to": "0x8aafd3ede9adb0ff97c7aebce82a919afb1c8764",
        "gas": "0x17207",
        "value": "0x0",
        "input": "0xe4849b3200000000000000000000000000000000000000000000000000000000040600c1",
        "nonce": "0x13e5",
        "chainId": "0xaa36a7"
      },
      "additionalContracts": [],
      "isFixedGasLimit": false
    }
  ],
  "receipts": [
    {
      "status": "0x1",
      "cumulativeGasUsed": "0x125cdeb",
      "logs": [
        {
          "address": "0x8aafd3ede9adb0ff97c7aebce82a919afb1c8764",
          "topics": [
            "0xddf252ad1be2c89b69c2b068fc378daa952ba7f163c4a11628f55a4df523b3ef",
            "0x000000000000000000000000c77f7fed3b5cc8249adc428c5f44c9063b9734b4",
            "0x0000000000000000000000000000000000000000000000000000000000000000"
          ],
          "data": "0x0000000000000000000000000000000000000000000000000000000003fdc34f",
          "blockHash": "0x2d4ae3804bcc468fa4d5d16a1e5157704fb0b0b63709a8b56f0ebbf7c99aa456",
          "blockNumber": "0x731b15",
          "transactionHash": "0x50256910071d7153d2e84b93ea12af4f0ac959dbc7b5e8efa4479d890cb05652",
          "transactionIndex": "0x93",
          "logIndex": "0xcf",
          "removed": false
        },
        {
          "address": "0x8aafd3ede9adb0ff97c7aebce82a919afb1c8764",
          "topics": [
            "0xddf252ad1be2c89b69c2b068fc378daa952ba7f163c4a11628f55a4df523b3ef",
            "0x000000000000000000000000c77f7fed3b5cc8249adc428c5f44c9063b9734b4",
            "0x000000000000000000000000c77f7fed3b5cc8249adc428c5f44c9063b9734b4"
          ],
          "data": "0x0000000000000000000000000000000000000000000000000000000000083d72",
          "blockHash": "0x2d4ae3804bcc468fa4d5d16a1e5157704fb0b0b63709a8b56f0ebbf7c99aa456",
          "blockNumber": "0x731b15",
          "transactionHash": "0x50256910071d7153d2e84b93ea12af4f0ac959dbc7b5e8efa4479d890cb05652",
          "transactionIndex": "0x93",
          "logIndex": "0xd0",
          "removed": false
        },
        {
          "address": "0x8aafd3ede9adb0ff97c7aebce82a919afb1c8764",
          "topics": [
            "0x4afcb4a87cdbd9974efdb92ee48bc8d7cd0ae4bf217004db3d080cbaee652ca7"
          ],
          "data": "0x00000000000000000000000000000000000000000000000000000000679041cc000000000000000000000000000000000000000000000000000dcd854cbeb2460000000000000000000000000000000000000000000000000000000000040070",
          "blockHash": "0x2d4ae3804bcc468fa4d5d16a1e5157704fb0b0b63709a8b56f0ebbf7c99aa456",
          "blockNumber": "0x731b15",
          "transactionHash": "0x50256910071d7153d2e84b93ea12af4f0ac959dbc7b5e8efa4479d890cb05652",
          "transactionIndex": "0x93",
          "logIndex": "0xd1",
          "removed": false
        }
      ],
      "logsBloom": "0x00000000000000000000000000000000000000000600000000000000000000000000000000000000000000000000000000000000000000004000000000000000000000000000004000000008000000000000000000000000000000000000000000000000020000000000000000000800020000000000000000000010000000000000000000000000000000000000000000000000000000000000010000000000000000000000000000000000000000004000000000000000000000000000000000000002000000800000000000000000000000000000080000000000000020000000000000000000000000000000000000000000000000000000000000000000",
      "type": "0x2",
      "transactionHash": "0x50256910071d7153d2e84b93ea12af4f0ac959dbc7b5e8efa4479d890cb05652",
      "transactionIndex": "0x93",
      "blockHash": "0x2d4ae3804bcc468fa4d5d16a1e5157704fb0b0b63709a8b56f0ebbf7c99aa456",
      "blockNumber": "0x731b15",
      "gasUsed": "0xfd03",
      "effectiveGasPrice": "0x8f3a209c",
      "from": "0xc77f7fed3b5cc8249adc428c5f44c9063b9734b4",
      "to": "0x8aafd3ede9adb0ff97c7aebce82a919afb1c8764",
      "contractAddress": null
    }
  ],
  "libraries": [],
  "pending": [],
  "returns": {},
  "timestamp": 1737507277,
  "chain": 11155111,
  "commit": "1d2fb70"
}