{
  "transactions": [
    {
      "hash": "0x79f14840a859d101f58ab65d7e31adbeea72276cabc6521e01c7d8e741d74e08",
      "transactionType": "CALL",
      "contractName": null,
      "contractAddress": "0x5eb9cc76c3506942c1c0ead70e877dd5e4f00cb0",
      "function": "buy(address)",
      "arguments": [
        "0xC77f7fed3b5Cc8249aDc428c5F44C9063B9734b4"
      ],
      "transaction": {
        "from": "0xc77f7fed3b5cc8249adc428c5f44c9063b9734b4",
        "to": "0x5eb9cc76c3506942c1c0ead70e877dd5e4f00cb0",
        "gas": "0x1b30c",
        "value": "0xde0b6b3a7640000",
        "input": "0xf088d547000000000000000000000000c77f7fed3b5cc8249adc428c5f44c9063b9734b4",
        "nonce": "0x2ce",
        "chainId": "0xaa36a7"
      },
      "additionalContracts": [],
      "isFixedGasLimit": false
    }
  ],
  "receipts": [
    {
      "status": "0x1",
      "cumulativeGasUsed": "0xf60c15",
      "logs": [
        {
          "address": "0x5eb9cc76c3506942c1c0ead70e877dd5e4f00cb0",
          "topics": [
            "0xddf252ad1be2c89b69c2b068fc378daa952ba7f163c4a11628f55a4df523b3ef",
            "0x0000000000000000000000000000000000000000000000000000000000000000",
            "0x000000000000000000000000c77f7fed3b5cc8249adc428c5f44c9063b9734b4"
          ],
          "data": "0x00000000000000000000000000000000000000000000003575aef15fdb3b033d",
          "blockHash": "0x06f0a44a3f8c8d89b5f653b8570e539f413d15bec892c6cd27bafc20eb8abd41",
          "blockNumber": "0x724eaa",
          "transactionHash": "0x79f14840a859d101f58ab65d7e31adbeea72276cabc6521e01c7d8e741d74e08",
          "transactionIndex": "0x8f",
          "logIndex": "0xd9",
          "removed": false
        },
        {
          "address": "0x5eb9cc76c3506942c1c0ead70e877dd5e4f00cb0",
          "topics": [
            "0xddf252ad1be2c89b69c2b068fc378daa952ba7f163c4a11628f55a4df523b3ef",
            "0x0000000000000000000000000000000000000000000000000000000000000000",
            "0x000000000000000000000000c77f7fed3b5cc8249adc428c5f44c9063b9734b4"
          ],
          "data": "0x00000000000000000000000000000000000000000000000029836663645d3d25",
          "blockHash": "0x06f0a44a3f8c8d89b5f653b8570e539f413d15bec892c6cd27bafc20eb8abd41",
          "blockNumber": "0x724eaa",
          "transactionHash": "0x79f14840a859d101f58ab65d7e31adbeea72276cabc6521e01c7d8e741d74e08",
          "transactionIndex": "0x8f",
          "logIndex": "0xda",
          "removed": false
        },
        {
          "address": "0x5eb9cc76c3506942c1c0ead70e877dd5e4f00cb0",
          "topics": [
            "0x4afcb4a87cdbd9974efdb92ee48bc8d7cd0ae4bf217004db3d080cbaee652ca7"
          ],
          "data": "0x000000000000000000000000000000000000000000000000000000006786a1ac00000000000000000000000000000000000000000000000000039109e6812a310000000000000000000000000000000000000000000000000de0b6b3a7640000",
          "blockHash": "0x06f0a44a3f8c8d89b5f653b8570e539f413d15bec892c6cd27bafc20eb8abd41",
          "blockNumber": "0x724eaa",
          "transactionHash": "0x79f14840a859d101f58ab65d7e31adbeea72276cabc6521e01c7d8e741d74e08",
          "transactionIndex": "0x8f",
          "logIndex": "0xdb",
          "removed": false
        }
      ],
      "logsBloom": "0x00000000000000000000000000000000000000000000000000000000000000000000000000000000000000000000000000000000000000004000000000000000000000000000000000000008000000000000000000000000000000000000000000000000020000000000000004000800020000000000000000000010000000000000000000000000000000000000000000000000000000000000010000000000000000000000000000000000000000004000000000000000000000000000020000000002000000800000008000000000000000000000080000000000000020000000000000000000000000000000000000000000000000000000000000000000",
      "type": "0x2",
      "transactionHash": "0x79f14840a859d101f58ab65d7e31adbeea72276cabc6521e01c7d8e741d74e08",
      "transactionIndex": "0x8f",
      "blockHash": "0x06f0a44a3f8c8d89b5f653b8570e539f413d15bec892c6cd27bafc20eb8abd41",
      "blockNumber": "0x724eaa",
      "gasUsed": "0x13af8",
      "effectiveGasPrice": "0x45cbac1ab",
      "from": "0xc77f7fed3b5cc8249adc428c5f44c9063b9734b4",
      "to": "0x5eb9cc76c3506942c1c0ead70e877dd5e4f00cb0",
      "contractAddress": null
    }
  ],
  "libraries": [],
  "pending": [],
  "returns": {},
  "timestamp": 1736876461,
  "chain": 11155111,
  "commit": "51a374b"
}