{
  "transactions": [
    {
      "hash": "0x94219c4435c48580b839e8aab7d29a74e08498e20d3a33942eb8a9aa4c331ee8",
      "transactionType": "CALL",
      "contractName": null,
      "contractAddress": "0x8aafd3ede9adb0ff97c7aebce82a919afb1c8764",
      "function": "sell(uint256)",
      "arguments": [
        "86607293770663"
      ],
      "transaction": {
        "from": "0xc77f7fed3b5cc8249adc428c5f44c9063b9734b4",
        "to": "0x8aafd3ede9adb0ff97c7aebce82a919afb1c8764",
        "gas": "0x15daa",
        "value": "0x0",
        "input": "0xe4849b3200000000000000000000000000000000000000000000000000004ec4d4faeba7",
        "nonce": "0x164f",
        "chainId": "0xaa36a7"
      },
      "additionalContracts": [],
      "isFixedGasLimit": false
    }
  ],
  "receipts": [
    {
      "status": "0x1",
      "cumulativeGasUsed": "0x121eb19",
      "logs": [
        {
          "address": "0x8aafd3ede9adb0ff97c7aebce82a919afb1c8764",
          "topics": [
            "0xddf252ad1be2c89b69c2b068fc378daa952ba7f163c4a11628f55a4df523b3ef",
            "0x000000000000000000000000c77f7fed3b5cc8249adc428c5f44c9063b9734b4",
            "0x0000000000000000000000000000000000000000000000000000000000000000"
          ],
          "data": "0x00000000000000000000000000000000000000000000000000004e2383678152",
          "blockHash": "0xd4b9fc84b6ea4a138623252b1a8766300bd70ccfbbebaa74b0993dbbc7ba1e75",
          "blockNumber": "0x731dec",
          "transactionHash": "0x94219c4435c48580b839e8aab7d29a74e08498e20d3a33942eb8a9aa4c331ee8",
          "transactionIndex": "0x93",
          "logIndex": "0x128",
          "removed": false
        },
        {
          "address": "0x8aafd3ede9adb0ff97c7aebce82a919afb1c8764",
          "topics": [
            "0xddf252ad1be2c89b69c2b068fc378daa952ba7f163c4a11628f55a4df523b3ef",
            "0x000000000000000000000000c77f7fed3b5cc8249adc428c5f44c9063b9734b4",
            "0x000000000000000000000000c77f7fed3b5cc8249adc428c5f44c9063b9734b4"
          ],
          "data": "0x000000000000000000000000000000000000000000000000000000a151936a55",
          "blockHash": "0xd4b9fc84b6ea4a138623252b1a8766300bd70ccfbbebaa74b0993dbbc7ba1e75",
          "blockNumber": "0x731dec",
          "transactionHash": "0x94219c4435c48580b839e8aab7d29a74e08498e20d3a33942eb8a9aa4c331ee8",
          "transactionIndex": "0x93",
          "logIndex": "0x129",
          "removed": false
        },
        {
          "address": "0x8aafd3ede9adb0ff97c7aebce82a919afb1c8764",
          "topics": [
            "0x4afcb4a87cdbd9974efdb92ee48bc8d7cd0ae4bf217004db3d080cbaee652ca7"
          ],
          "data": "0x00000000000000000000000000000000000000000000000000000000679063f80000000000000000000000000000000000000000000000000014f5e4699a3fd300000000000000000000000000000000000000000000000000000076f83e7d63",
          "blockHash": "0xd4b9fc84b6ea4a138623252b1a8766300bd70ccfbbebaa74b0993dbbc7ba1e75",
          "blockNumber": "0x731dec",
          "transactionHash": "0x94219c4435c48580b839e8aab7d29a74e08498e20d3a33942eb8a9aa4c331ee8",
          "transactionIndex": "0x93",
          "logIndex": "0x12a",
          "removed": false
        }
      ],
      "logsBloom": "0x00000000000000000000000000000000000000000600000000000000000000000000000000000000000000000000000000000000000000004000000000000000000000000000004000000008000000000000000000000000000000000000000000000000020000000000000000000800020000000000000000000010000000000000000000000000000000000000000000000000000000000000010000000000000000000000000000000000000000004000000000000000000000000000000000000002000000800000000000000000000000000000080000000000000020000000000000000000000000000000000000000000000000000000000000000000",
      "type": "0x2",
      "transactionHash": "0x94219c4435c48580b839e8aab7d29a74e08498e20d3a33942eb8a9aa4c331ee8",
      "transactionIndex": "0x93",
      "blockHash": "0xd4b9fc84b6ea4a138623252b1a8766300bd70ccfbbebaa74b0993dbbc7ba1e75",
      "blockNumber": "0x731dec",
      "gasUsed": "0xfd27",
      "effectiveGasPrice": "0x491e8104",
      "from": "0xc77f7fed3b5cc8249adc428c5f44c9063b9734b4",
      "to": "0x8aafd3ede9adb0ff97c7aebce82a919afb1c8764",
      "contractAddress": null
    }
  ],
  "libraries": [],
  "pending": [],
  "returns": {},
  "timestamp": 1737516024,
  "chain": 11155111,
  "commit": "1d2fb70"
}