{
  "transactions": [
    {
      "hash": "0x6027edcbdc03a1a89797f114bccde1ac612bb790efd0f000b41f04b7c3bf1168",
      "transactionType": "CALL",
      "contractName": null,
      "contractAddress": "0xbf4a322f1496e5c3d34a9bcdb4c60567b38c7de2",
      "function": "buy(address)",
      "arguments": [
        "0xC77f7fed3b5Cc8249aDc428c5F44C9063B9734b4"
      ],
      "transaction": {
        "from": "0xc77f7fed3b5cc8249adc428c5f44c9063b9734b4",
        "to": "0xbf4a322f1496e5c3d34a9bcdb4c60567b38c7de2",
        "gas": "0x1b309",
        "value": "0xde0b6b3a7640000",
        "input": "0xf088d547000000000000000000000000c77f7fed3b5cc8249adc428c5f44c9063b9734b4",
        "nonce": "0xaf8",
        "chainId": "0xaa36a7"
      },
      "additionalContracts": [],
      "isFixedGasLimit": false
    }
  ],
  "receipts": [
    {
      "status": "0x1",
      "cumulativeGasUsed": "0xec2c3a",
      "logs": [
        {
          "address": "0xbf4a322f1496e5c3d34a9bcdb4c60567b38c7de2",
          "topics": [
            "0xddf252ad1be2c89b69c2b068fc378daa952ba7f163c4a11628f55a4df523b3ef",
            "0x0000000000000000000000000000000000000000000000000000000000000000",
            "0x000000000000000000000000c77f7fed3b5cc8249adc428c5f44c9063b9734b4"
          ],
          "data": "0x0000000000000000000000000000000000000000000000352c9e4c78d93fbb80",
          "blockHash": "0x6f3b1cca2cafe1514ee77be283a57a53170bd33134819577d9620b4bbdf94117",
          "blockNumber": "0x725aed",
          "transactionHash": "0x6027edcbdc03a1a89797f114bccde1ac612bb790efd0f000b41f04b7c3bf1168",
          "transactionIndex": "0x5e",
          "logIndex": "0xb2",
          "removed": false
        },
        {
          "address": "0xbf4a322f1496e5c3d34a9bcdb4c60567b38c7de2",
          "topics": [
            "0xddf252ad1be2c89b69c2b068fc378daa952ba7f163c4a11628f55a4df523b3ef",
            "0x0000000000000000000000000000000000000000000000000000000000000000",
            "0x000000000000000000000000c77f7fed3b5cc8249adc428c5f44c9063b9734b4"
          ],
          "data": "0x000000000000000000000000000000000000000000000000294aa99813faaa16",
          "blockHash": "0x6f3b1cca2cafe1514ee77be283a57a53170bd33134819577d9620b4bbdf94117",
          "blockNumber": "0x725aed",
          "transactionHash": "0x6027edcbdc03a1a89797f114bccde1ac612bb790efd0f000b41f04b7c3bf1168",
          "transactionIndex": "0x5e",
          "logIndex": "0xb3",
          "removed": false
        },
        {
          "address": "0xbf4a322f1496e5c3d34a9bcdb4c60567b38c7de2",
          "topics": [
            "0x4afcb4a87cdbd9974efdb92ee48bc8d7cd0ae4bf217004db3d080cbaee652ca7"
          ],
          "data": "0x000000000000000000000000000000000000000000000000000000006787356c000000000000000000000000000000000000000000000000000395f2c6ff3d620000000000000000000000000000000000000000000000000de0b6b3a7640000",
          "blockHash": "0x6f3b1cca2cafe1514ee77be283a57a53170bd33134819577d9620b4bbdf94117",
          "blockNumber": "0x725aed",
          "transactionHash": "0x6027edcbdc03a1a89797f114bccde1ac612bb790efd0f000b41f04b7c3bf1168",
          "transactionIndex": "0x5e",
          "logIndex": "0xb4",
          "removed": false
        }
      ],
      "logsBloom": "0x00000000000000000000000000000000000000000000000000000000000000000000000000000000000000000000000000000000000000004000000000000000000000000000000000000008000000000000001000000000000000000000000000000000020000000000000000000800020000000000000000000010000000000000000000000000000000000000000000000000000008000000010000000000000000000000000000000000000000004000000000000000000000000000000000000002000000800000000000001000000000000000080000000000000020000000000000000000000000000000000000000000000000000000000000000000",
      "type": "0x2",
      "transactionHash": "0x6027edcbdc03a1a89797f114bccde1ac612bb790efd0f000b41f04b7c3bf1168",
      "transactionIndex": "0x5e",
      "blockHash": "0x6f3b1cca2cafe1514ee77be283a57a53170bd33134819577d9620b4bbdf94117",
      "blockNumber": "0x725aed",
      "gasUsed": "0x13af6",
      "effectiveGasPrice": "0x986331b8",
      "from": "0xc77f7fed3b5cc8249adc428c5f44c9063b9734b4",
      "to": "0xbf4a322f1496e5c3d34a9bcdb4c60567b38c7de2",
      "contractAddress": null
    }
  ],
  "libraries": [],
  "pending": [],
  "returns": {},
  "timestamp": 1736914285,
  "chain": 11155111,
  "commit": "51a374b"
}