{
  "transactions": [
    {
      "hash": "0x5861c7ff2731ef2a417b2fb4256ce72d8aed0436497b36a0df2910e700ceada2",
      "transactionType": "CALL",
      "contractName": null,
      "contractAddress": "0xbf4a322f1496e5c3d34a9bcdb4c60567b38c7de2",
      "function": "sell(uint256)",
      "arguments": [
        "981518831158021825761"
      ],
      "transaction": {
        "from": "0xc77f7fed3b5cc8249adc428c5f44c9063b9734b4",
        "to": "0xbf4a322f1496e5c3d34a9bcdb4c60567b38c7de2",
        "gas": "0x16fea",
        "value": "0x0",
        "input": "0xe4849b32000000000000000000000000000000000000000000000035354f60a0ea7fa4e1",
        "nonce": "0xba7",
        "chainId": "0xaa36a7"
      },
      "additionalContracts": [],
      "isFixedGasLimit": false
    }
  ],
  "receipts": [
    {
      "status": "0x1",
      "cumulativeGasUsed": "0x114c855",
      "logs": [
        {
          "address": "0xbf4a322f1496e5c3d34a9bcdb4c60567b38c7de2",
          "topics": [
            "0xddf252ad1be2c89b69c2b068fc378daa952ba7f163c4a11628f55a4df523b3ef",
            "0x000000000000000000000000c77f7fed3b5cc8249adc428c5f44c9063b9734b4",
            "0x0000000000000000000000000000000000000000000000000000000000000000"
          ],
          "data": "0x000000000000000000000000000000000000000000000035354f60a0ea7fa4e1",
          "blockHash": "0xdfb0777ee9d659e81d017b3f00a3996da656f326e7fae41dcfe93b5c64a28a5d",
          "blockNumber": "0x725bbd",
          "transactionHash": "0x5861c7ff2731ef2a417b2fb4256ce72d8aed0436497b36a0df2910e700ceada2",
          "transactionIndex": "0x83",
          "logIndex": "0xbb",
          "removed": false
        },
        {
          "address": "0xbf4a322f1496e5c3d34a9bcdb4c60567b38c7de2",
          "topics": [
            "0x4afcb4a87cdbd9974efdb92ee48bc8d7cd0ae4bf217004db3d080cbaee652ca7"
          ],
          "data": "0x0000000000000000000000000000000000000000000000000000000067873f38000000000000000000000000000000000000000000000000000398295267fbf70000000000000000000000000000000000000000000000000dc7e3e598ff2166",
          "blockHash": "0xdfb0777ee9d659e81d017b3f00a3996da656f326e7fae41dcfe93b5c64a28a5d",
          "blockNumber": "0x725bbd",
          "transactionHash": "0x5861c7ff2731ef2a417b2fb4256ce72d8aed0436497b36a0df2910e700ceada2",
          "transactionIndex": "0x83",
          "logIndex": "0xbc",
          "removed": false
        }
      ],
      "logsBloom": "0x00000000000000000000000000000000000000000000000000000000000000000000000000000000000000000000000000000000000000004000000000000000000000000000000000000008000000000000001000000000000000000000000000000000020000000000000000000800020000000000000000000010000000000000000000000000000000000000000000000000000008000000010000000000000000000000000000000000000000004000000000000000000000000000000000000002000000800000000000001000000000000000080000000000000020000000000000000000000000000000000000000000000000000000000000000000",
      "type": "0x2",
      "transactionHash": "0x5861c7ff2731ef2a417b2fb4256ce72d8aed0436497b36a0df2910e700ceada2",
      "transactionIndex": "0x83",
      "blockHash": "0xdfb0777ee9d659e81d017b3f00a3996da656f326e7fae41dcfe93b5c64a28a5d",
      "blockNumber": "0x725bbd",
      "gasUsed": "0xfb91",
      "effectiveGasPrice": "0x53176485",
      "from": "0xc77f7fed3b5cc8249adc428c5f44c9063b9734b4",
      "to": "0xbf4a322f1496e5c3d34a9bcdb4c60567b38c7de2",
      "contractAddress": null
    }
  ],
  "libraries": [],
  "pending": [],
  "returns": {},
  "timestamp": 1736916793,
  "chain": 11155111,
  "commit": "51a374b"
}