{
  "transactions": [
    {
      "hash": "0x86f7be3516053c12eb6763f6c0181c8c0c5aebdb451218b75bd9182a5b404a18",
      "transactionType": "CALL",
      "contractName": null,
      "contractAddress": "0x8aafd3ede9adb0ff97c7aebce82a919afb1c8764",
      "function": "sell(uint256)",
      "arguments": [
        "1228404505440"
      ],
      "transaction": {
        "from": "0xc77f7fed3b5cc8249adc428c5f44c9063b9734b4",
        "to": "0x8aafd3ede9adb0ff97c7aebce82a919afb1c8764",
        "gas": "0x15daa",
        "value": "0x0",
        "input": "0xe4849b320000000000000000000000000000000000000000000000000000011e029d3b60",
        "nonce": "0x1338",
        "chainId": "0xaa36a7"
      },
      "additionalContracts": [],
      "isFixedGasLimit": false
    }
  ],
  "receipts": [
    {
      "status": "0x1",
      "cumulativeGasUsed": "0x99bc4b",
      "logs": [
        {
          "address": "0x8aafd3ede9adb0ff97c7aebce82a919afb1c8764",
          "topics": [
            "0xddf252ad1be2c89b69c2b068fc378daa952ba7f163c4a11628f55a4df523b3ef",
            "0x000000000000000000000000c77f7fed3b5cc8249adc428c5f44c9063b9734b4",
            "0x0000000000000000000000000000000000000000000000000000000000000000"
          ],
          "data": "0x0000000000000000000000000000000000000000000000000000011bb8dd8295",
          "blockHash": "0xca5f5ed5094095301f09597c0f576c4c9599b7e8e7c54c7eb5281796981044b7",
          "blockNumber": "0x731a4d",
          "transactionHash": "0x86f7be3516053c12eb6763f6c0181c8c0c5aebdb451218b75bd9182a5b404a18",
          "transactionIndex": "0x81",
          "logIndex": "0x76",
          "removed": false
        },
        {
          "address": "0x8aafd3ede9adb0ff97c7aebce82a919afb1c8764",
          "topics": [
            "0xddf252ad1be2c89b69c2b068fc378daa952ba7f163c4a11628f55a4df523b3ef",
            "0x000000000000000000000000c77f7fed3b5cc8249adc428c5f44c9063b9734b4",
            "0x000000000000000000000000c77f7fed3b5cc8249adc428c5f44c9063b9734b4"
          ],
          "data": "0x0000000000000000000000000000000000000000000000000000000249bfb8cb",
          "blockHash": "0xca5f5ed5094095301f09597c0f576c4c9599b7e8e7c54c7eb5281796981044b7",
          "blockNumber": "0x731a4d",
          "transactionHash": "0x86f7be3516053c12eb6763f6c0181c8c0c5aebdb451218b75bd9182a5b404a18",
          "transactionIndex": "0x81",
          "logIndex": "0x77",
          "removed": false
        },
        {
          "address": "0x8aafd3ede9adb0ff97c7aebce82a919afb1c8764",
          "topics": [
            "0x4afcb4a87cdbd9974efdb92ee48bc8d7cd0ae4bf217004db3d080cbaee652ca7"
          ],
          "data": "0x000000000000000000000000000000000000000000000000000000006790386c000000000000000000000000000000000000000000000000000bdd61fa15b97200000000000000000000000000000000000000000000000000000000f4860d2c",
          "blockHash": "0xca5f5ed5094095301f09597c0f576c4c9599b7e8e7c54c7eb5281796981044b7",
          "blockNumber": "0x731a4d",
          "transactionHash": "0x86f7be3516053c12eb6763f6c0181c8c0c5aebdb451218b75bd9182a5b404a18",
          "transactionIndex": "0x81",
          "logIndex": "0x78",
          "removed": false
        }
      ],
      "logsBloom": "0x00000000000000000000000000000000000000000600000000000000000000000000000000000000000000000000000000000000000000004000000000000000000000000000004000000008000000000000000000000000000000000000000000000000020000000000000000000800020000000000000000000010000000000000000000000000000000000000000000000000000000000000010000000000000000000000000000000000000000004000000000000000000000000000000000000002000000800000000000000000000000000000080000000000000020000000000000000000000000000000000000000000000000000000000000000000",
      "type": "0x2",
      "transactionHash": "0x86f7be3516053c12eb6763f6c0181c8c0c5aebdb451218b75bd9182a5b404a18",
      "transactionIndex": "0x81",
      "blockHash": "0xca5f5ed5094095301f09597c0f576c4c9599b7e8e7c54c7eb5281796981044b7",
      "blockNumber": "0x731a4d",
      "gasUsed": "0xfd27",
      "effectiveGasPrice": "0x4418693e",
      "from": "0xc77f7fed3b5cc8249adc428c5f44c9063b9734b4",
      "to": "0x8aafd3ede9adb0ff97c7aebce82a919afb1c8764",
      "contractAddress": null
    }
  ],
  "libraries": [],
  "pending": [],
  "returns": {},
  "timestamp": 1737504876,
  "chain": 11155111,
  "commit": "1d2fb70"
}