{
  "transactions": [
    {
      "hash": "0x43fefe86806bc2f8856c2c45f9e71e4d22dce172eafa3e3f9750947d69066359",
      "transactionType": "CALL",
      "contractName": null,
      "contractAddress": "0x8aafd3ede9adb0ff97c7aebce82a919afb1c8764",
      "function": "sell(uint256)",
      "arguments": [
        "1175567357558226315"
      ],
      "transaction": {
        "from": "0xc77f7fed3b5cc8249adc428c5f44c9063b9734b4",
        "to": "0x8aafd3ede9adb0ff97c7aebce82a919afb1c8764",
        "gas": "0x15dca",
        "value": "0x0",
        "input": "0xe4849b320000000000000000000000000000000000000000000000001050744884cd7d8b",
        "nonce": "0x175b",
        "chainId": "0xaa36a7"
      },
      "additionalContracts": [],
      "isFixedGasLimit": false
    }
  ],
  "receipts": [
    {
      "status": "0x1",
      "cumulativeGasUsed": "0xf96766",
      "logs": [
        {
          "address": "0x8aafd3ede9adb0ff97c7aebce82a919afb1c8764",
          "topics": [
            "0xddf252ad1be2c89b69c2b068fc378daa952ba7f163c4a11628f55a4df523b3ef",
            "0x000000000000000000000000c77f7fed3b5cc8249adc428c5f44c9063b9734b4",
            "0x0000000000000000000000000000000000000000000000000000000000000000"
          ],
          "data": "0x000000000000000000000000000000000000000000000000102f0ae7aebf8ef9",
          "blockHash": "0x0f3438c06c5b9ea0853fb36418d81be687f4bf6c71633e40e71112b40c8c9ef2",
          "blockNumber": "0x731f2e",
          "transactionHash": "0x43fefe86806bc2f8856c2c45f9e71e4d22dce172eafa3e3f9750947d69066359",
          "transactionIndex": "0xae",
          "logIndex": "0x12c",
          "removed": false
        },
        {
          "address": "0x8aafd3ede9adb0ff97c7aebce82a919afb1c8764",
          "topics": [
            "0xddf252ad1be2c89b69c2b068fc378daa952ba7f163c4a11628f55a4df523b3ef",
            "0x000000000000000000000000c77f7fed3b5cc8249adc428c5f44c9063b9734b4",
            "0x000000000000000000000000c77f7fed3b5cc8249adc428c5f44c9063b9734b4"
          ],
          "data": "0x00000000000000000000000000000000000000000000000000216960d60dee92",
          "blockHash": "0x0f3438c06c5b9ea0853fb36418d81be687f4bf6c71633e40e71112b40c8c9ef2",
          "blockNumber": "0x731f2e",
          "transactionHash": "0x43fefe86806bc2f8856c2c45f9e71e4d22dce172eafa3e3f9750947d69066359",
          "transactionIndex": "0xae",
          "logIndex": "0x12d",
          "removed": false
        },
        {
          "address": "0x8aafd3ede9adb0ff97c7aebce82a919afb1c8764",
          "topics": [
            "0x4afcb4a87cdbd9974efdb92ee48bc8d7cd0ae4bf217004db3d080cbaee652ca7"
          ],
          "data": "0x000000000000000000000000000000000000000000000000000000006790731000000000000000000000000000000000000000000000000000181cfce3084ad2000000000000000000000000000000000000000000000000001c589336a151a8",
          "blockHash": "0x0f3438c06c5b9ea0853fb36418d81be687f4bf6c71633e40e71112b40c8c9ef2",
          "blockNumber": "0x731f2e",
          "transactionHash": "0x43fefe86806bc2f8856c2c45f9e71e4d22dce172eafa3e3f9750947d69066359",
          "transactionIndex": "0xae",
          "logIndex": "0x12e",
          "removed": false
        }
      ],
      "logsBloom": "0x00000000000000000000000000000000000000000600000000000000000000000000000000000000000000000000000000000000000000004000000000000000000000000000004000000008000000000000000000000000000000000000000000000000020000000000000000000800020000000000000000000010000000000000000000000000000000000000000000000000000000000000010000000000000000000000000000000000000000004000000000000000000000000000000000000002000000800000000000000000000000000000080000000000000020000000000000000000000000000000000000000000000000000000000000000000",
      "type": "0x2",
      "transactionHash": "0x43fefe86806bc2f8856c2c45f9e71e4d22dce172eafa3e3f9750947d69066359",
      "transactionIndex": "0xae",
      "blockHash": "0x0f3438c06c5b9ea0853fb36418d81be687f4bf6c71633e40e71112b40c8c9ef2",
      "blockNumber": "0x731f2e",
      "gasUsed": "0xfd3f",
      "effectiveGasPrice": "0x3ff02f37",
      "from": "0xc77f7fed3b5cc8249adc428c5f44c9063b9734b4",
      "to": "0x8aafd3ede9adb0ff97c7aebce82a919afb1c8764",
      "contractAddress": null
    }
  ],
  "libraries": [],
  "pending": [],
  "returns": {},
  "timestamp": 1737519890,
  "chain": 11155111,
  "commit": "1d2fb70"
}