{
  "transactions": [
    {
      "hash": "0x0a4d1cad06a3c754b0493a3a8aef3efcd185cdb3923063bbda1c28a3364b4349",
      "transactionType": "CALL",
      "contractName": null,
      "contractAddress": "0x5eb9cc76c3506942c1c0ead70e877dd5e4f00cb0",
      "function": "sell(uint256)",
      "arguments": [
        "989133145683085365026"
      ],
      "transaction": {
        "from": "0xc77f7fed3b5cc8249adc428c5f44c9063b9734b4",
        "to": "0x5eb9cc76c3506942c1c0ead70e877dd5e4f00cb0",
        "gas": "0x16fec",
        "value": "0x0",
        "input": "0xe4849b320000000000000000000000000000000000000000000000359efadb58c5020f22",
        "nonce": "0x331",
        "chainId": "0xaa36a7"
      },
      "additionalContracts": [],
      "isFixedGasLimit": false
    }
  ],
  "receipts": [
    {
      "status": "0x1",
      "cumulativeGasUsed": "0x161ea42",
      "logs": [
        {
          "address": "0x5eb9cc76c3506942c1c0ead70e877dd5e4f00cb0",
          "topics": [
            "0xddf252ad1be2c89b69c2b068fc378daa952ba7f163c4a11628f55a4df523b3ef",
            "0x000000000000000000000000c77f7fed3b5cc8249adc428c5f44c9063b9734b4",
            "0x0000000000000000000000000000000000000000000000000000000000000000"
          ],
          "data": "0x0000000000000000000000000000000000000000000000359efadb58c5020f22",
          "blockHash": "0x5ee012fca7944f72c02c35b95e2067d95716d4def641ba06f1d4887a2d2c7180",
          "blockNumber": "0x724f1c",
          "transactionHash": "0x0a4d1cad06a3c754b0493a3a8aef3efcd185cdb3923063bbda1c28a3364b4349",
          "transactionIndex": "0x76",
          "logIndex": "0xac",
          "removed": false
        },
        {
          "address": "0x5eb9cc76c3506942c1c0ead70e877dd5e4f00cb0",
          "topics": [
            "0x4afcb4a87cdbd9974efdb92ee48bc8d7cd0ae4bf217004db3d080cbaee652ca7"
          ],
          "data": "0x000000000000000000000000000000000000000000000000000000006786a7040000000000000000000000000000000000000000000000000003910da3a14fd10000000000000000000000000000000000000000000000000dc7db1332226d3d",
          "blockHash": "0x5ee012fca7944f72c02c35b95e2067d95716d4def641ba06f1d4887a2d2c7180",
          "blockNumber": "0x724f1c",
          "transactionHash": "0x0a4d1cad06a3c754b0493a3a8aef3efcd185cdb3923063bbda1c28a3364b4349",
          "transactionIndex": "0x76",
          "logIndex": "0xad",
          "removed": false
        }
      ],
      "logsBloom": "0x00000000000000000000000000000000000000000000000000000000000000000000000000000000000000000000000000000000000000004000000000000000000000000000000000000008000000000000000000000000000000000000000000000000020000000000000004000800020000000000000000000010000000000000000000000000000000000000000000000000000000000000010000000000000000000000000000000000000000004000000000000000000000000000020000000002000000800000008000000000000000000000080000000000000020000000000000000000000000000000000000000000000000000000000000000000",
      "type": "0x2",
      "transactionHash": "0x0a4d1cad06a3c754b0493a3a8aef3efcd185cdb3923063bbda1c28a3364b4349",
      "transactionIndex": "0x76",
      "blockHash": "0x5ee012fca7944f72c02c35b95e2067d95716d4def641ba06f1d4887a2d2c7180",
      "blockNumber": "0x724f1c",
      "gasUsed": "0xfb93",
      "effectiveGasPrice": "0x691aaccba",
      "from": "0xc77f7fed3b5cc8249adc428c5f44c9063b9734b4",
      "to": "0x5eb9cc76c3506942c1c0ead70e877dd5e4f00cb0",
      "contractAddress": null
    }
  ],
  "libraries": [],
  "pending": [],
  "returns": {},
  "timestamp": 1736877831,
  "chain": 11155111,
  "commit": "51a374b"
}