{
  "transactions": [
    {
      "hash": "0xea60c7b6a756d4a666ccf645e8be402b86d4e729801cd8b32d9b58d5cc2f775f",
      "transactionType": "CALL",
      "contractName": null,
      "contractAddress": "0x8aafd3ede9adb0ff97c7aebce82a919afb1c8764",
      "function": "sell(uint256)",
      "arguments": [
        "1031571805666"
      ],
      "transaction": {
        "from": "0xc77f7fed3b5cc8249adc428c5f44c9063b9734b4",
        "to": "0x8aafd3ede9adb0ff97c7aebce82a919afb1c8764",
        "gas": "0x1722a",
        "value": "0x0",
        "input": "0xe4849b32000000000000000000000000000000000000000000000000000000f02e7895e2",
        "nonce": "0x13fe",
        "chainId": "0xaa36a7"
      },
      "additionalContracts": [],
      "isFixedGasLimit": false
    }
  ],
  "receipts": [
    {
      "status": "0x1",
      "cumulativeGasUsed": "0xe45c7e",
      "logs": [
        {
          "address": "0x8aafd3ede9adb0ff97c7aebce82a919afb1c8764",
          "topics": [
            "0xddf252ad1be2c89b69c2b068fc378daa952ba7f163c4a11628f55a4df523b3ef",
            "0x000000000000000000000000c77f7fed3b5cc8249adc428c5f44c9063b9734b4",
            "0x0000000000000000000000000000000000000000000000000000000000000000"
          ],
          "data": "0x000000000000000000000000000000000000000000000000000000ee42944af5",
          "blockHash": "0x2593636917f4ef9f5179633cbf05a560b1bb6348e961cbb99e46a9e84621757a",
          "blockNumber": "0x731b33",
          "transactionHash": "0xea60c7b6a756d4a666ccf645e8be402b86d4e729801cd8b32d9b58d5cc2f775f",
          "transactionIndex": "0x93",
          "logIndex": "0x92",
          "removed": false
        },
        {
          "address": "0x8aafd3ede9adb0ff97c7aebce82a919afb1c8764",
          "topics": [
            "0xddf252ad1be2c89b69c2b068fc378daa952ba7f163c4a11628f55a4df523b3ef",
            "0x000000000000000000000000c77f7fed3b5cc8249adc428c5f44c9063b9734b4",
            "0x000000000000000000000000c77f7fed3b5cc8249adc428c5f44c9063b9734b4"
          ],
          "data": "0x00000000000000000000000000000000000000000000000000000001ebe44aed",
          "blockHash": "0x2593636917f4ef9f5179633cbf05a560b1bb6348e961cbb99e46a9e84621757a",
          "blockNumber": "0x731b33",
          "transactionHash": "0xea60c7b6a756d4a666ccf645e8be402b86d4e729801cd8b32d9b58d5cc2f775f",
          "transactionIndex": "0x93",
          "logIndex": "0x93",
          "removed": false
        },
        {
          "address": "0x8aafd3ede9adb0ff97c7aebce82a919afb1c8764",
          "topics": [
            "0x4afcb4a87cdbd9974efdb92ee48bc8d7cd0ae4bf217004db3d080cbaee652ca7"
          ],
          "data": "0x0000000000000000000000000000000000000000000000000000000067904334000000000000000000000000000000000000000000000000000e1c44b93a1b2700000000000000000000000000000000000000000000000000000000f4352e01",
          "blockHash": "0x2593636917f4ef9f5179633cbf05a560b1bb6348e961cbb99e46a9e84621757a",
          "blockNumber": "0x731b33",
          "transactionHash": "0xea60c7b6a756d4a666ccf645e8be402b86d4e729801cd8b32d9b58d5cc2f775f",
          "transactionIndex": "0x93",
          "logIndex": "0x94",
          "removed": false
        }
      ],
      "logsBloom": "0x00000000000000000000000000000000000000000600000000000000000000000000000000000000000000000000000000000000000000004000000000000000000000000000004000000008000000000000000000000000000000000000000000000000020000000000000000000800020000000000000000000010000000000000000000000000000000000000000000000000000000000000010000000000000000000000000000000000000000004000000000000000000000000000000000000002000000800000000000000000000000000000080000000000000020000000000000000000000000000000000000000000000000000000000000000000",
      "type": "0x2",
      "transactionHash": "0xea60c7b6a756d4a666ccf645e8be402b86d4e729801cd8b32d9b58d5cc2f775f",
      "transactionIndex": "0x93",
      "blockHash": "0x2593636917f4ef9f5179633cbf05a560b1bb6348e961cbb99e46a9e84621757a",
      "blockNumber": "0x731b33",
      "gasUsed": "0xfd1b",
      "effectiveGasPrice": "0xb0656d76",
      "from": "0xc77f7fed3b5cc8249adc428c5f44c9063b9734b4",
      "to": "0x8aafd3ede9adb0ff97c7aebce82a919afb1c8764",
      "contractAddress": null
    }
  ],
  "libraries": [],
  "pending": [],
  "returns": {},
  "timestamp": 1737507638,
  "chain": 11155111,
  "commit": "1d2fb70"
}