{
  "transactions": [
    {
      "hash": "0x7b2cd95c79e7115f70f6d46fa8c5f4bbe0d134885ebb158fa542f382bd1b2c45",
      "transactionType": "CALL",
      "contractName": null,
      "contractAddress": "0xc35ac92a931c0a4a53ecc09338b9ed77044b1053",
      "function": "borrow(uint256,uint256)",
      "arguments": [
        "9999999999999989",
        "0"
      ],
      "transaction": {
        "from": "0xc77f7fed3b5cc8249adc428c5f44c9063b9734b4",
        "to": "0xc35ac92a931c0a4a53ecc09338b9ed77044b1053",
        "gas": "0x56e6f",
        "value": "0x0",
        "input": "0x0ecbcdab000000000000000000000000000000000000000000000000002386f26fc0fff50000000000000000000000000000000000000000000000000000000000000000",
        "nonce": "0x1889",
        "chainId": "0xaa36a7"
      },
      "additionalContracts": [],
      "isFixedGasLimit": false
    }
  ],
  "receipts": [
    {
      "status": "0x1",
      "cumulativeGasUsed": "0x107993d",
      "logs": [
        {
          "address": "0xc35ac92a931c0a4a53ecc09338b9ed77044b1053",
          "topics": [
            "0xddf252ad1be2c89b69c2b068fc378daa952ba7f163c4a11628f55a4df523b3ef",
            "0x000000000000000000000000c77f7fed3b5cc8249adc428c5f44c9063b9734b4",
            "0x000000000000000000000000c35ac92a931c0a4a53ecc09338b9ed77044b1053"
          ],
          "data": "0x0000000000000000000000000000000000000000000000008aae448e087a7ed4",
          "blockHash": "0xac67b803d512129435385aa17334534ede5192e150de54a07a2af2f3e1fca39b",
          "blockNumber": "0x737f2e",
          "transactionHash": "0x7b2cd95c79e7115f70f6d46fa8c5f4bbe0d134885ebb158fa542f382bd1b2c45",
          "transactionIndex": "0x6a",
          "logIndex": "0x186",
          "removed": false
        },
        {
          "address": "0xc35ac92a931c0a4a53ecc09338b9ed77044b1053",
          "topics": [
            "0xddf252ad1be2c89b69c2b068fc378daa952ba7f163c4a11628f55a4df523b3ef",
            "0x000000000000000000000000c35ac92a931c0a4a53ecc09338b9ed77044b1053",
            "0x000000000000000000000000c77f7fed3b5cc8249adc428c5f44c9063b9734b4"
          ],
          "data": "0x000000000000000000000000000000000000000000000000000aa692fc9276d7",
          "blockHash": "0xac67b803d512129435385aa17334534ede5192e150de54a07a2af2f3e1fca39b",
          "blockNumber": "0x737f2e",
          "transactionHash": "0x7b2cd95c79e7115f70f6d46fa8c5f4bbe0d134885ebb158fa542f382bd1b2c45",
          "transactionIndex": "0x6a",
          "logIndex": "0x187",
          "removed": false
        },
        {
          "address": "0xc35ac92a931c0a4a53ecc09338b9ed77044b1053",
          "topics": [
            "0xddf252ad1be2c89b69c2b068fc378daa952ba7f163c4a11628f55a4df523b3ef",
            "0x000000000000000000000000c35ac92a931c0a4a53ecc09338b9ed77044b1053",
            "0x0000000000000000000000000000000000000000000000000000000000000000"
          ],
          "data": "0x0000000000000000000000000000000000000000000000000018da01a2ab154c",
          "blockHash": "0xac67b803d512129435385aa17334534ede5192e150de54a07a2af2f3e1fca39b",
          "blockNumber": "0x737f2e",
          "transactionHash": "0x7b2cd95c79e7115f70f6d46fa8c5f4bbe0d134885ebb158fa542f382bd1b2c45",
          "transactionIndex": "0x6a",
          "logIndex": "0x188",
          "removed": false
        },
        {
          "address": "0xc35ac92a931c0a4a53ecc09338b9ed77044b1053",
          "topics": [
            "0x03bbe564cb1b78e43195eeadbde99e5b89b19345862807fcfb59f884e4165e25"
          ],
          "data": "0x000000000000000000000000c77f7fed3b5cc8249adc428c5f44c9063b9734b4000000000000000000000000000000000000000000000000002322fe594b07f6",
          "blockHash": "0xac67b803d512129435385aa17334534ede5192e150de54a07a2af2f3e1fca39b",
          "blockNumber": "0x737f2e",
          "transactionHash": "0x7b2cd95c79e7115f70f6d46fa8c5f4bbe0d134885ebb158fa542f382bd1b2c45",
          "transactionIndex": "0x6a",
          "logIndex": "0x189",
          "removed": false
        },
        {
          "address": "0xc35ac92a931c0a4a53ecc09338b9ed77044b1053",
          "topics": [
            "0xaec00f5213a37254bc68a26b0685d1a5b2bf513e1e587c94c7df7f4a62b56c9c"
          ],
          "data": "0x0000000000000000000000000000000000000000000000008a8ac3f9693cf2b1000000000000000000000000000000000000000000000000002322fe594b07f6000000000000000000000000000000000000000000000000002322fe594b07f60000000000000000000000000000000000000000000000008a8ac3f9693cf2b1",
          "blockHash": "0xac67b803d512129435385aa17334534ede5192e150de54a07a2af2f3e1fca39b",
          "blockNumber": "0x737f2e",
          "transactionHash": "0x7b2cd95c79e7115f70f6d46fa8c5f4bbe0d134885ebb158fa542f382bd1b2c45",
          "transactionIndex": "0x6a",
          "logIndex": "0x18a",
          "removed": false
        },
        {
          "address": "0xc35ac92a931c0a4a53ecc09338b9ed77044b1053",
          "topics": [
            "0x4afcb4a87cdbd9974efdb92ee48bc8d7cd0ae4bf217004db3d080cbaee652ca7"
          ],
          "data": "0x0000000000000000000000000000000000000000000000000000000067951c5000000000000000000000000000000000000000000000000000038ec4f2fa8f90000000000000000000000000000000000000000000000000000009184e729fff",
          "blockHash": "0xac67b803d512129435385aa17334534ede5192e150de54a07a2af2f3e1fca39b",
          "blockNumber": "0x737f2e",
          "transactionHash": "0x7b2cd95c79e7115f70f6d46fa8c5f4bbe0d134885ebb158fa542f382bd1b2c45",
          "transactionIndex": "0x6a",
          "logIndex": "0x18b",
          "removed": false
        }
      ],
      "logsBloom": "0x00000000000000008000000000000100400000000000000000000000000000002008000000000000000000000000000000002000000000004000000800000000000000000000000000000008000000000000000000000000000000000000100000000000020000000000000000000800020000000000000000000010000000000000000000000000000000000000010000000000000000000000010080000000000000000000000000000400000000004000000000000000000000001000000000000002000000800000000000000000000000000000080000000000000020000000000000000000000000000000000000000000000000000000000000000000",
      "type": "0x2",
      "transactionHash": "0x7b2cd95c79e7115f70f6d46fa8c5f4bbe0d134885ebb158fa542f382bd1b2c45",
      "transactionIndex": "0x6a",
      "blockHash": "0xac67b803d512129435385aa17334534ede5192e150de54a07a2af2f3e1fca39b",
      "blockNumber": "0x737f2e",
      "gasUsed": "0x3b6ba",
      "effectiveGasPrice": "0x4ada2d35c",
      "from": "0xc77f7fed3b5cc8249adc428c5f44c9063b9734b4",
      "to": "0xc35ac92a931c0a4a53ecc09338b9ed77044b1053",
      "contractAddress": null
    }
  ],
  "libraries": [],
  "pending": [],
  "returns": {},
  "timestamp": 1737825361,
  "chain": 11155111,
  "commit": "f5162e9"
}