{
  "transactions": [
    {
      "hash": "0x05746035a5d5b91bdb69ee2d3e1e1dbaad84c39ee04ede08ae39be82a079ca92",
      "transactionType": "CALL",
      "contractName": null,
      "contractAddress": "0x8aafd3ede9adb0ff97c7aebce82a919afb1c8764",
      "function": "sell(uint256)",
      "arguments": [
        "17526296605907137"
      ],
      "transaction": {
        "from": "0xc77f7fed3b5cc8249adc428c5f44c9063b9734b4",
        "to": "0x8aafd3ede9adb0ff97c7aebce82a919afb1c8764",
        "gas": "0x1724d",
        "value": "0x0",
        "input": "0xe4849b32000000000000000000000000000000000000000000000000003e4412eb6c58c1",
        "nonce": "0x1399",
        "chainId": "0xaa36a7"
      },
      "additionalContracts": [],
      "isFixedGasLimit": false
    }
  ],
  "receipts": [
    {
      "status": "0x1",
      "cumulativeGasUsed": "0x11b2e86",
      "logs": [
        {
          "address": "0x8aafd3ede9adb0ff97c7aebce82a919afb1c8764",
          "topics": [
            "0xddf252ad1be2c89b69c2b068fc378daa952ba7f163c4a11628f55a4df523b3ef",
            "0x000000000000000000000000c77f7fed3b5cc8249adc428c5f44c9063b9734b4",
            "0x0000000000000000000000000000000000000000000000000000000000000000"
          ],
          "data": "0x000000000000000000000000000000000000000000000000003dc48da5f4b228",
          "blockHash": "0x2a8605cc0d661ee98292de4a6cb23857159bf20f42e952c740e807b1152b59dd",
          "blockNumber": "0x731abd",
          "transactionHash": "0x05746035a5d5b91bdb69ee2d3e1e1dbaad84c39ee04ede08ae39be82a079ca92",
          "transactionIndex": "0xa3",
          "logIndex": "0xb2",
          "removed": false
        },
        {
          "address": "0x8aafd3ede9adb0ff97c7aebce82a919afb1c8764",
          "topics": [
            "0xddf252ad1be2c89b69c2b068fc378daa952ba7f163c4a11628f55a4df523b3ef",
            "0x000000000000000000000000c77f7fed3b5cc8249adc428c5f44c9063b9734b4",
            "0x000000000000000000000000c77f7fed3b5cc8249adc428c5f44c9063b9734b4"
          ],
          "data": "0x00000000000000000000000000000000000000000000000000007f854577a699",
          "blockHash": "0x2a8605cc0d661ee98292de4a6cb23857159bf20f42e952c740e807b1152b59dd",
          "blockNumber": "0x731abd",
          "transactionHash": "0x05746035a5d5b91bdb69ee2d3e1e1dbaad84c39ee04ede08ae39be82a079ca92",
          "transactionIndex": "0xa3",
          "logIndex": "0xb3",
          "removed": false
        },
        {
          "address": "0x8aafd3ede9adb0ff97c7aebce82a919afb1c8764",
          "topics": [
            "0x4afcb4a87cdbd9974efdb92ee48bc8d7cd0ae4bf217004db3d080cbaee652ca7"
          ],
          "data": "0x0000000000000000000000000000000000000000000000000000000067903dac000000000000000000000000000000000000000000000000000cfc0d0ca4116300000000000000000000000000000000000000000000000000003a421eb0ecfd",
          "blockHash": "0x2a8605cc0d661ee98292de4a6cb23857159bf20f42e952c740e807b1152b59dd",
          "blockNumber": "0x731abd",
          "transactionHash": "0x05746035a5d5b91bdb69ee2d3e1e1dbaad84c39ee04ede08ae39be82a079ca92",
          "transactionIndex": "0xa3",
          "logIndex": "0xb4",
          "removed": false
        }
      ],
      "logsBloom": "0x00000000000000000000000000000000000000000600000000000000000000000000000000000000000000000000000000000000000000004000000000000000000000000000004000000008000000000000000000000000000000000000000000000000020000000000000000000800020000000000000000000010000000000000000000000000000000000000000000000000000000000000010000000000000000000000000000000000000000004000000000000000000000000000000000000002000000800000000000000000000000000000080000000000000020000000000000000000000000000000000000000000000000000000000000000000",
      "type": "0x2",
      "transactionHash": "0x05746035a5d5b91bdb69ee2d3e1e1dbaad84c39ee04ede08ae39be82a079ca92",
      "transactionIndex": "0xa3",
      "blockHash": "0x2a8605cc0d661ee98292de4a6cb23857159bf20f42e952c740e807b1152b59dd",
      "blockNumber": "0x731abd",
      "gasUsed": "0xfd33",
      "effectiveGasPrice": "0x83f0a471",
      "from": "0xc77f7fed3b5cc8249adc428c5f44c9063b9734b4",
      "to": "0x8aafd3ede9adb0ff97c7aebce82a919afb1c8764",
      "contractAddress": null
    }
  ],
  "libraries": [],
  "pending": [],
  "returns": {},
  "timestamp": 1737506222,
  "chain": 11155111,
  "commit": "1d2fb70"
}