{
  "transactions": [
    {
      "hash": "0x9bd967fd26579c33d88fb8306ef5364be8e777b58898864de9989454f7c58ab5",
      "transactionType": "CALL",
      "contractName": null,
      "contractAddress": "0xbf4a322f1496e5c3d34a9bcdb4c60567b38c7de2",
      "function": "buy(address)",
      "arguments": [
        "0xC77f7fed3b5Cc8249aDc428c5F44C9063B9734b4"
      ],
      "transaction": {
        "from": "0xc77f7fed3b5cc8249adc428c5f44c9063b9734b4",
        "to": "0xbf4a322f1496e5c3d34a9bcdb4c60567b38c7de2",
        "gas": "0x1b309",
        "value": "0xde0b6b3a7640000",
        "input": "0xf088d547000000000000000000000000c77f7fed3b5cc8249adc428c5f44c9063b9734b4",
        "nonce": "0xb1e",
        "chainId": "0xaa36a7"
      },
      "additionalContracts": [],
      "isFixedGasLimit": false
    }
  ],
  "receipts": [
    {
      "status": "0x1",
      "cumulativeGasUsed": "0xedf357",
      "logs": [
        {
          "address": "0xbf4a322f1496e5c3d34a9bcdb4c60567b38c7de2",
          "topics": [
            "0xddf252ad1be2c89b69c2b068fc378daa952ba7f163c4a11628f55a4df523b3ef",
            "0x0000000000000000000000000000000000000000000000000000000000000000",
            "0x000000000000000000000000c77f7fed3b5cc8249adc428c5f44c9063b9734b4"
          ],
          "data": "0x0000000000000000000000000000000000000000000000352581d0b9f7190550",
          "blockHash": "0xc989e0e8bf6468aea94e7d356e90191f1a2a735b3da82f9892a39632b7f34fc2",
          "blockNumber": "0x725b19",
          "transactionHash": "0x9bd967fd26579c33d88fb8306ef5364be8e777b58898864de9989454f7c58ab5",
          "transactionIndex": "0x55",
          "logIndex": "0x95",
          "removed": false
        },
        {
          "address": "0xbf4a322f1496e5c3d34a9bcdb4c60567b38c7de2",
          "topics": [
            "0xddf252ad1be2c89b69c2b068fc378daa952ba7f163c4a11628f55a4df523b3ef",
            "0x0000000000000000000000000000000000000000000000000000000000000000",
            "0x000000000000000000000000c77f7fed3b5cc8249adc428c5f44c9063b9734b4"
          ],
          "data": "0x000000000000000000000000000000000000000000000000294523ed367e5326",
          "blockHash": "0xc989e0e8bf6468aea94e7d356e90191f1a2a735b3da82f9892a39632b7f34fc2",
          "blockNumber": "0x725b19",
          "transactionHash": "0x9bd967fd26579c33d88fb8306ef5364be8e777b58898864de9989454f7c58ab5",
          "transactionIndex": "0x55",
          "logIndex": "0x96",
          "removed": false
        },
        {
          "address": "0xbf4a322f1496e5c3d34a9bcdb4c60567b38c7de2",
          "topics": [
            "0x4afcb4a87cdbd9974efdb92ee48bc8d7cd0ae4bf217004db3d080cbaee652ca7"
          ],
          "data": "0x00000000000000000000000000000000000000000000000000000000678737880000000000000000000000000000000000000000000000000003966d9a22e41f0000000000000000000000000000000000000000000000000de0b6b3a7640000",
          "blockHash": "0xc989e0e8bf6468aea94e7d356e90191f1a2a735b3da82f9892a39632b7f34fc2",
          "blockNumber": "0x725b19",
          "transactionHash": "0x9bd967fd26579c33d88fb8306ef5364be8e777b58898864de9989454f7c58ab5",
          "transactionIndex": "0x55",
          "logIndex": "0x97",
          "removed": false
        }
      ],
      "logsBloom": "0x00000000000000000000000000000000000000000000000000000000000000000000000000000000000000000000000000000000000000004000000000000000000000000000000000000008000000000000001000000000000000000000000000000000020000000000000000000800020000000000000000000010000000000000000000000000000000000000000000000000000008000000010000000000000000000000000000000000000000004000000000000000000000000000000000000002000000800000000000001000000000000000080000000000000020000000000000000000000000000000000000000000000000000000000000000000",
      "type": "0x2",
      "transactionHash": "0x9bd967fd26579c33d88fb8306ef5364be8e777b58898864de9989454f7c58ab5",
      "transactionIndex": "0x55",
      "blockHash": "0xc989e0e8bf6468aea94e7d356e90191f1a2a735b3da82f9892a39632b7f34fc2",
      "blockNumber": "0x725b19",
      "gasUsed": "0x13af6",
      "effectiveGasPrice": "0x728ad85b",
      "from": "0xc77f7fed3b5cc8249adc428c5f44c9063b9734b4",
      "to": "0xbf4a322f1496e5c3d34a9bcdb4c60567b38c7de2",
      "contractAddress": null
    }
  ],
  "libraries": [],
  "pending": [],
  "returns": {},
  "timestamp": 1736914825,
  "chain": 11155111,
  "commit": "51a374b"
}