{
  "transactions": [
    {
      "hash": "0x290e8941c9d3f934b239d3957710ffc7bcc96982964bc773701fdb0f394c16c6",
      "transactionType": "CALL",
      "contractName": null,
      "contractAddress": "0x8aafd3ede9adb0ff97c7aebce82a919afb1c8764",
      "function": "sell(uint256)",
      "arguments": [
        "6678156735"
      ],
      "transaction": {
        "from": "0xc77f7fed3b5cc8249adc428c5f44c9063b9734b4",
        "to": "0x8aafd3ede9adb0ff97c7aebce82a919afb1c8764",
        "gas": "0x1722a",
        "value": "0x0",
        "input": "0xe4849b32000000000000000000000000000000000000000000000000000000018e0c95bf",
        "nonce": "0x151f",
        "chainId": "0xaa36a7"
      },
      "additionalContracts": [],
      "isFixedGasLimit": false
    }
  ],
  "receipts": [
    {
      "status": "0x1",
      "cumulativeGasUsed": "0xa5216d",
      "logs": [
        {
          "address": "0x8aafd3ede9adb0ff97c7aebce82a919afb1c8764",
          "topics": [
            "0xddf252ad1be2c89b69c2b068fc378daa952ba7f163c4a11628f55a4df523b3ef",
            "0x000000000000000000000000c77f7fed3b5cc8249adc428c5f44c9063b9734b4",
            "0x0000000000000000000000000000000000000000000000000000000000000000"
          ],
          "data": "0x000000000000000000000000000000000000000000000000000000018add615a",
          "blockHash": "0xfd9fec9f57bafa7745ba7082316b617d359c43507fc56c45d80423bf000f9f4d",
          "blockNumber": "0x731c81",
          "transactionHash": "0x290e8941c9d3f934b239d3957710ffc7bcc96982964bc773701fdb0f394c16c6",
          "transactionIndex": "0x5a",
          "logIndex": "0x86",
          "removed": false
        },
        {
          "address": "0x8aafd3ede9adb0ff97c7aebce82a919afb1c8764",
          "topics": [
            "0xddf252ad1be2c89b69c2b068fc378daa952ba7f163c4a11628f55a4df523b3ef",
            "0x000000000000000000000000c77f7fed3b5cc8249adc428c5f44c9063b9734b4",
            "0x000000000000000000000000c77f7fed3b5cc8249adc428c5f44c9063b9734b4"
          ],
          "data": "0x00000000000000000000000000000000000000000000000000000000032f3465",
          "blockHash": "0xfd9fec9f57bafa7745ba7082316b617d359c43507fc56c45d80423bf000f9f4d",
          "blockNumber": "0x731c81",
          "transactionHash": "0x290e8941c9d3f934b239d3957710ffc7bcc96982964bc773701fdb0f394c16c6",
          "transactionIndex": "0x5a",
          "logIndex": "0x87",
          "removed": false
        },
        {
          "address": "0x8aafd3ede9adb0ff97c7aebce82a919afb1c8764",
          "topics": [
            "0x4afcb4a87cdbd9974efdb92ee48bc8d7cd0ae4bf217004db3d080cbaee652ca7"
          ],
          "data": "0x00000000000000000000000000000000000000000000000000000000679052e800000000000000000000000000000000000000000000000000116a00d47228ae0000000000000000000000000000000000000000000000000000000001f37a85",
          "blockHash": "0xfd9fec9f57bafa7745ba7082316b617d359c43507fc56c45d80423bf000f9f4d",
          "blockNumber": "0x731c81",
          "transactionHash": "0x290e8941c9d3f934b239d3957710ffc7bcc96982964bc773701fdb0f394c16c6",
          "transactionIndex": "0x5a",
          "logIndex": "0x88",
          "removed": false
        }
      ],
      "logsBloom": "0x00000000000000000000000000000000000000000600000000000000000000000000000000000000000000000000000000000000000000004000000000000000000000000000004000000008000000000000000000000000000000000000000000000000020000000000000000000800020000000000000000000010000000000000000000000000000000000000000000000000000000000000010000000000000000000000000000000000000000004000000000000000000000000000000000000002000000800000000000000000000000000000080000000000000020000000000000000000000000000000000000000000000000000000000000000000",
      "type": "0x2",
      "transactionHash": "0x290e8941c9d3f934b239d3957710ffc7bcc96982964bc773701fdb0f394c16c6",
      "transactionIndex": "0x5a",
      "blockHash": "0xfd9fec9f57bafa7745ba7082316b617d359c43507fc56c45d80423bf000f9f4d",
      "blockNumber": "0x731c81",
      "gasUsed": "0xfd1b",
      "effectiveGasPrice": "0x15fa7f23e",
      "from": "0xc77f7fed3b5cc8249adc428c5f44c9063b9734b4",
      "to": "0x8aafd3ede9adb0ff97c7aebce82a919afb1c8764",
      "contractAddress": null
    }
  ],
  "libraries": [],
  "pending": [],
  "returns": {},
  "timestamp": 1737511658,
  "chain": 11155111,
  "commit": "1d2fb70"
}