{
  "transactions": [
    {
      "hash": "0x1f9fdce452188f807f2014bc5cfe8779873dc20bf423a38c6d326576ecfb0448",
      "transactionType": "CALL",
      "contractName": null,
      "contractAddress": "0x8aafd3ede9adb0ff97c7aebce82a919afb1c8764",
      "function": "sell(uint256)",
      "arguments": [
        "11493"
      ],
      "transaction": {
        "from": "0xc77f7fed3b5cc8249adc428c5f44c9063b9734b4",
        "to": "0x8aafd3ede9adb0ff97c7aebce82a919afb1c8764",
        "gas": "0x14e4c",
        "value": "0x0",
        "input": "0xe4849b320000000000000000000000000000000000000000000000000000000000002ce5",
        "nonce": "0x11c5",
        "chainId": "0xaa36a7"
      },
      "additionalContracts": [],
      "isFixedGasLimit": false
    }
  ],
  "receipts": [
    {
      "status": "0x1",
      "cumulativeGasUsed": "0x185545f",
      "logs": [
        {
          "address": "0x8aafd3ede9adb0ff97c7aebce82a919afb1c8764",
          "topics": [
            "0xddf252ad1be2c89b69c2b068fc378daa952ba7f163c4a11628f55a4df523b3ef",
            "0x000000000000000000000000c77f7fed3b5cc8249adc428c5f44c9063b9734b4",
            "0x0000000000000000000000000000000000000000000000000000000000000000"
          ],
          "data": "0x0000000000000000000000000000000000000000000000000000000000002c8a",
          "blockHash": "0x43c9a56c05f71a5ab5634c9631fea65f46f2d566108cd03802c857428ad75ae4",
          "blockNumber": "0x731897",
          "transactionHash": "0x1f9fdce452188f807f2014bc5cfe8779873dc20bf423a38c6d326576ecfb0448",
          "transactionIndex": "0xba",
          "logIndex": "0xfc",
          "removed": false
        },
        {
          "address": "0x8aafd3ede9adb0ff97c7aebce82a919afb1c8764",
          "topics": [
            "0xddf252ad1be2c89b69c2b068fc378daa952ba7f163c4a11628f55a4df523b3ef",
            "0x000000000000000000000000c77f7fed3b5cc8249adc428c5f44c9063b9734b4",
            "0x000000000000000000000000c77f7fed3b5cc8249adc428c5f44c9063b9734b4"
          ],
          "data": "0x000000000000000000000000000000000000000000000000000000000000005b",
          "blockHash": "0x43c9a56c05f71a5ab5634c9631fea65f46f2d566108cd03802c857428ad75ae4",
          "blockNumber": "0x731897",
          "transactionHash": "0x1f9fdce452188f807f2014bc5cfe8779873dc20bf423a38c6d326576ecfb0448",
          "transactionIndex": "0xba",
          "logIndex": "0xfd",
          "removed": false
        },
        {
          "address": "0x8aafd3ede9adb0ff97c7aebce82a919afb1c8764",
          "topics": [
            "0x4afcb4a87cdbd9974efdb92ee48bc8d7cd0ae4bf217004db3d080cbaee652ca7"
          ],
          "data": "0x00000000000000000000000000000000000000000000000000000000679023e4000000000000000000000000000000000000000000000000000527c2d0b8672a0000000000000000000000000000000000000000000000000000000000000010",
          "blockHash": "0x43c9a56c05f71a5ab5634c9631fea65f46f2d566108cd03802c857428ad75ae4",
          "blockNumber": "0x731897",
          "transactionHash": "0x1f9fdce452188f807f2014bc5cfe8779873dc20bf423a38c6d326576ecfb0448",
          "transactionIndex": "0xba",
          "logIndex": "0xfe",
          "removed": false
        }
      ],
      "logsBloom": "0x00000000000000000000000000000000000000000600000000000000000000000000000000000000000000000000000000000000000000004000000000000000000000000000004000000008000000000000000000000000000000000000000000000000020000000000000000000800020000000000000000000010000000000000000000000000000000000000000000000000000000000000010000000000000000000000000000000000000000004000000000000000000000000000000000000002000000800000000000000000000000000000080000000000000020000000000000000000000000000000000000000000000000000000000000000000",
      "type": "0x2",
      "transactionHash": "0x1f9fdce452188f807f2014bc5cfe8779873dc20bf423a38c6d326576ecfb0448",
      "transactionIndex": "0xba",
      "blockHash": "0x43c9a56c05f71a5ab5634c9631fea65f46f2d566108cd03802c857428ad75ae4",
      "blockNumber": "0x731897",
      "gasUsed": "0xf207",
      "effectiveGasPrice": "0x408953c8",
      "from": "0xc77f7fed3b5cc8249adc428c5f44c9063b9734b4",
      "to": "0x8aafd3ede9adb0ff97c7aebce82a919afb1c8764",
      "contractAddress": null
    }
  ],
  "libraries": [],
  "pending": [],
  "returns": {},
  "timestamp": 1737499622,
  "chain": 11155111,
  "commit": "1d2fb70"
}