{
  "transactions": [
    {
      "hash": "0x17daec71fb5463a4942321ce34c2152f46296545a0456f95decb07ede4f2e949",
      "transactionType": "CALL",
      "contractName": null,
      "contractAddress": "0x8aafd3ede9adb0ff97c7aebce82a919afb1c8764",
      "function": "sell(uint256)",
      "arguments": [
        "670291639577779075916"
      ],
      "transaction": {
        "from": "0xc77f7fed3b5cc8249adc428c5f44c9063b9734b4",
        "to": "0x8aafd3ede9adb0ff97c7aebce82a919afb1c8764",
        "gas": "0x17270",
        "value": "0x0",
        "input": "0xe4849b32000000000000000000000000000000000000000000000024562a46d6b3af7b4c",
        "nonce": "0x1285",
        "chainId": "0xaa36a7"
      },
      "additionalContracts": [],
      "isFixedGasLimit": false
    }
  ],
  "receipts": [
    {
      "status": "0x1",
      "cumulativeGasUsed": "0x9fff32",
      "logs": [
        {
          "address": "0x8aafd3ede9adb0ff97c7aebce82a919afb1c8764",
          "topics": [
            "0xddf252ad1be2c89b69c2b068fc378daa952ba7f163c4a11628f55a4df523b3ef",
            "0x000000000000000000000000c77f7fed3b5cc8249adc428c5f44c9063b9734b4",
            "0x0000000000000000000000000000000000000000000000000000000000000000"
          ],
          "data": "0x0000000000000000000000000000000000000000000000240bbf7147ac1a9f2d",
          "blockHash": "0xf2ef88db1b0be28ab81c1b60c863826fbf532eeaca59bbca8d5493a7b923a8a2",
          "blockNumber": "0x731971",
          "transactionHash": "0x17daec71fb5463a4942321ce34c2152f46296545a0456f95decb07ede4f2e949",
          "transactionIndex": "0x79",
          "logIndex": "0x80",
          "removed": false
        },
        {
          "address": "0x8aafd3ede9adb0ff97c7aebce82a919afb1c8764",
          "topics": [
            "0xddf252ad1be2c89b69c2b068fc378daa952ba7f163c4a11628f55a4df523b3ef",
            "0x000000000000000000000000c77f7fed3b5cc8249adc428c5f44c9063b9734b4",
            "0x000000000000000000000000c77f7fed3b5cc8249adc428c5f44c9063b9734b4"
          ],
          "data": "0x0000000000000000000000000000000000000000000000004a6ad58f0794dc1f",
          "blockHash": "0xf2ef88db1b0be28ab81c1b60c863826fbf532eeaca59bbca8d5493a7b923a8a2",
          "blockNumber": "0x731971",
          "transactionHash": "0x17daec71fb5463a4942321ce34c2152f46296545a0456f95decb07ede4f2e949",
          "transactionIndex": "0x79",
          "logIndex": "0x81",
          "removed": false
        },
        {
          "address": "0x8aafd3ede9adb0ff97c7aebce82a919afb1c8764",
          "topics": [
            "0x4afcb4a87cdbd9974efdb92ee48bc8d7cd0ae4bf217004db3d080cbaee652ca7"
          ],
          "data": "0x0000000000000000000000000000000000000000000000000000000067902e1c000000000000000000000000000000000000000000000000000544d0ad14b89e0000000000000000000000000000000000000000000000000dc8ee02b21e8c29",
          "blockHash": "0xf2ef88db1b0be28ab81c1b60c863826fbf532eeaca59bbca8d5493a7b923a8a2",
          "blockNumber": "0x731971",
          "transactionHash": "0x17daec71fb5463a4942321ce34c2152f46296545a0456f95decb07ede4f2e949",
          "transactionIndex": "0x79",
          "logIndex": "0x82",
          "removed": false
        }
      ],
      "logsBloom": "0x00000000000000000000000000000000000000000600000000000000000000000000000000000000000000000000000000000000000000004000000000000000000000000000004000000008000000000000000000000000000000000000000000000000020000000000000000000800020000000000000000000010000000000000000000000000000000000000000000000000000000000000010000000000000000000000000000000000000000004000000000000000000000000000000000000002000000800000000000000000000000000000080000000000000020000000000000000000000000000000000000000000000000000000000000000000",
      "type": "0x2",
      "transactionHash": "0x17daec71fb5463a4942321ce34c2152f46296545a0456f95decb07ede4f2e949",
      "transactionIndex": "0x79",
      "blockHash": "0xf2ef88db1b0be28ab81c1b60c863826fbf532eeaca59bbca8d5493a7b923a8a2",
      "blockNumber": "0x731971",
      "gasUsed": "0xfd4b",
      "effectiveGasPrice": "0x3f0d1aa1",
      "from": "0xc77f7fed3b5cc8249adc428c5f44c9063b9734b4",
      "to": "0x8aafd3ede9adb0ff97c7aebce82a919afb1c8764",
      "contractAddress": null
    }
  ],
  "libraries": [],
  "pending": [],
  "returns": {},
  "timestamp": 1737502237,
  "chain": 11155111,
  "commit": "1d2fb70"
}