{
  "transactions": [
    {
      "hash": "0xb69ce477b4c53ac3e49b65f137f7d55e8566cba9e48891ca2e0aa514dbf43f9b",
      "transactionType": "CALL",
      "contractName": null,
      "contractAddress": "0x8aafd3ede9adb0ff97c7aebce82a919afb1c8764",
      "function": "sell(uint256)",
      "arguments": [
        "887916029513"
      ],
      "transaction": {
        "from": "0xc77f7fed3b5cc8249adc428c5f44c9063b9734b4",
        "to": "0x8aafd3ede9adb0ff97c7aebce82a919afb1c8764",
        "gas": "0x1722a",
        "value": "0x0",
        "input": "0xe4849b32000000000000000000000000000000000000000000000000000000cebbeb6649",
        "nonce": "0x14c4",
        "chainId": "0xaa36a7"
      },
      "additionalContracts": [],
      "isFixedGasLimit": false
    }
  ],
  "receipts": [
    {
      "status": "0x1",
      "cumulativeGasUsed": "0x11603d6",
      "logs": [
        {
          "address": "0x8aafd3ede9adb0ff97c7aebce82a919afb1c8764",
          "topics": [
            "0xddf252ad1be2c89b69c2b068fc378daa952ba7f163c4a11628f55a4df523b3ef",
            "0x000000000000000000000000c77f7fed3b5cc8249adc428c5f44c9063b9734b4",
            "0x0000000000000000000000000000000000000000000000000000000000000000"
          ],
          "data": "0x000000000000000000000000000000000000000000000000000000cd1487365d",
          "blockHash": "0x9b57741ab14def660e2600aeeabbadf7d7cec6395996c21d6eb1a8ed5ff6f900",
          "blockNumber": "0x731c21",
          "transactionHash": "0xb69ce477b4c53ac3e49b65f137f7d55e8566cba9e48891ca2e0aa514dbf43f9b",
          "transactionIndex": "0xb0",
          "logIndex": "0x10e",
          "removed": false
        },
        {
          "address": "0x8aafd3ede9adb0ff97c7aebce82a919afb1c8764",
          "topics": [
            "0xddf252ad1be2c89b69c2b068fc378daa952ba7f163c4a11628f55a4df523b3ef",
            "0x000000000000000000000000c77f7fed3b5cc8249adc428c5f44c9063b9734b4",
            "0x000000000000000000000000c77f7fed3b5cc8249adc428c5f44c9063b9734b4"
          ],
          "data": "0x00000000000000000000000000000000000000000000000000000001a7642fec",
          "blockHash": "0x9b57741ab14def660e2600aeeabbadf7d7cec6395996c21d6eb1a8ed5ff6f900",
          "blockNumber": "0x731c21",
          "transactionHash": "0xb69ce477b4c53ac3e49b65f137f7d55e8566cba9e48891ca2e0aa514dbf43f9b",
          "transactionIndex": "0xb0",
          "logIndex": "0x10f",
          "removed": false
        },
        {
          "address": "0x8aafd3ede9adb0ff97c7aebce82a919afb1c8764",
          "topics": [
            "0x4afcb4a87cdbd9974efdb92ee48bc8d7cd0ae4bf217004db3d080cbaee652ca7"
          ],
          "data": "0x0000000000000000000000000000000000000000000000000000000067904e68000000000000000000000000000000000000000000000000001060ac0617a66400000000000000000000000000000000000000000000000000000000f3f93954",
          "blockHash": "0x9b57741ab14def660e2600aeeabbadf7d7cec6395996c21d6eb1a8ed5ff6f900",
          "blockNumber": "0x731c21",
          "transactionHash": "0xb69ce477b4c53ac3e49b65f137f7d55e8566cba9e48891ca2e0aa514dbf43f9b",
          "transactionIndex": "0xb0",
          "logIndex": "0x110",
          "removed": false
        }
      ],
      "logsBloom": "0x00000000000000000000000000000000000000000600000000000000000000000000000000000000000000000000000000000000000000004000000000000000000000000000004000000008000000000000000000000000000000000000000000000000020000000000000000000800020000000000000000000010000000000000000000000000000000000000000000000000000000000000010000000000000000000000000000000000000000004000000000000000000000000000000000000002000000800000000000000000000000000000080000000000000020000000000000000000000000000000000000000000000000000000000000000000",
      "type": "0x2",
      "transactionHash": "0xb69ce477b4c53ac3e49b65f137f7d55e8566cba9e48891ca2e0aa514dbf43f9b",
      "transactionIndex": "0xb0",
      "blockHash": "0x9b57741ab14def660e2600aeeabbadf7d7cec6395996c21d6eb1a8ed5ff6f900",
      "blockNumber": "0x731c21",
      "gasUsed": "0xfd1b",
      "effectiveGasPrice": "0x1115bdc05",
      "from": "0xc77f7fed3b5cc8249adc428c5f44c9063b9734b4",
      "to": "0x8aafd3ede9adb0ff97c7aebce82a919afb1c8764",
      "contractAddress": null
    }
  ],
  "libraries": [],
  "pending": [],
  "returns": {},
  "timestamp": 1737510505,
  "chain": 11155111,
  "commit": "1d2fb70"
}