{
  "transactions": [
    {
      "hash": "0x7284c5a9cd4b65b77fddf2968f5181c8c180f6f3e5fedd606195fd77056e58a4",
      "transactionType": "CALL",
      "contractName": null,
      "contractAddress": "0xbf4a322f1496e5c3d34a9bcdb4c60567b38c7de2",
      "function": "buy(address)",
      "arguments": [
        "0xC77f7fed3b5Cc8249aDc428c5F44C9063B9734b4"
      ],
      "transaction": {
        "from": "0xc77f7fed3b5cc8249adc428c5f44c9063b9734b4",
        "to": "0xbf4a322f1496e5c3d34a9bcdb4c60567b38c7de2",
        "gas": "0x1b309",
        "value": "0xde0b6b3a7640000",
        "input": "0xf088d547000000000000000000000000c77f7fed3b5cc8249adc428c5f44c9063b9734b4",
        "nonce": "0xd2e",
        "chainId": "0xaa36a7"
      },
      "additionalContracts": [],
      "isFixedGasLimit": false
    }
  ],
  "receipts": [
    {
      "status": "0x1",
      "cumulativeGasUsed": "0x7f867b",
      "logs": [
        {
          "address": "0xbf4a322f1496e5c3d34a9bcdb4c60567b38c7de2",
          "topics": [
            "0xddf252ad1be2c89b69c2b068fc378daa952ba7f163c4a11628f55a4df523b3ef",
            "0x0000000000000000000000000000000000000000000000000000000000000000",
            "0x000000000000000000000000c77f7fed3b5cc8249adc428c5f44c9063b9734b4"
          ],
          "data": "0x000000000000000000000000000000000000000000000034c37608a80c06798e",
          "blockHash": "0x71605be722088f4974853d831550ef2df21e46aa4c5e890ae9b42b595dbaa953",
          "blockNumber": "0x725d91",
          "transactionHash": "0x7284c5a9cd4b65b77fddf2968f5181c8c180f6f3e5fedd606195fd77056e58a4",
          "transactionIndex": "0x52",
          "logIndex": "0x76",
          "removed": false
        },
        {
          "address": "0xbf4a322f1496e5c3d34a9bcdb4c60567b38c7de2",
          "topics": [
            "0xddf252ad1be2c89b69c2b068fc378daa952ba7f163c4a11628f55a4df523b3ef",
            "0x0000000000000000000000000000000000000000000000000000000000000000",
            "0x000000000000000000000000c77f7fed3b5cc8249adc428c5f44c9063b9734b4"
          ],
          "data": "0x00000000000000000000000000000000000000000000000028f90117116c4eac",
          "blockHash": "0x71605be722088f4974853d831550ef2df21e46aa4c5e890ae9b42b595dbaa953",
          "blockNumber": "0x725d91",
          "transactionHash": "0x7284c5a9cd4b65b77fddf2968f5181c8c180f6f3e5fedd606195fd77056e58a4",
          "transactionIndex": "0x52",
          "logIndex": "0x77",
          "removed": false
        },
        {
          "address": "0xbf4a322f1496e5c3d34a9bcdb4c60567b38c7de2",
          "topics": [
            "0x4afcb4a87cdbd9974efdb92ee48bc8d7cd0ae4bf217004db3d080cbaee652ca7"
          ],
          "data": "0x000000000000000000000000000000000000000000000000000000006787554000000000000000000000000000000000000000000000000000039d183920acce0000000000000000000000000000000000000000000000000de0b6b3a7640000",
          "blockHash": "0x71605be722088f4974853d831550ef2df21e46aa4c5e890ae9b42b595dbaa953",
          "blockNumber": "0x725d91",
          "transactionHash": "0x7284c5a9cd4b65b77fddf2968f5181c8c180f6f3e5fedd606195fd77056e58a4",
          "transactionIndex": "0x52",
          "logIndex": "0x78",
          "removed": false
        }
      ],
      "logsBloom": "0x00000000000000000000000000000000000000000000000000000000000000000000000000000000000000000000000000000000000000004000000000000000000000000000000000000008000000000000001000000000000000000000000000000000020000000000000000000800020000000000000000000010000000000000000000000000000000000000000000000000000008000000010000000000000000000000000000000000000000004000000000000000000000000000000000000002000000800000000000001000000000000000080000000000000020000000000000000000000000000000000000000000000000000000000000000000",
      "type": "0x2",
      "transactionHash": "0x7284c5a9cd4b65b77fddf2968f5181c8c180f6f3e5fedd606195fd77056e58a4",
      "transactionIndex": "0x52",
      "blockHash": "0x71605be722088f4974853d831550ef2df21e46aa4c5e890ae9b42b595dbaa953",
      "blockNumber": "0x725d91",
      "gasUsed": "0x13af6",
      "effectiveGasPrice": "0x259403155",
      "from": "0xc77f7fed3b5cc8249adc428c5f44c9063b9734b4",
      "to": "0xbf4a322f1496e5c3d34a9bcdb4c60567b38c7de2",
      "contractAddress": null
    }
  ],
  "libraries": [],
  "pending": [],
  "returns": {},
  "timestamp": 1736922433,
  "chain": 11155111,
  "commit": "51a374b"
}