{
  "transactions": [
    {
      "hash": "0xd20f9765ca1932e74763c74db99325587ecb630f509c04f4b563c66bb7c8852e",
      "transactionType": "CALL",
      "contractName": null,
      "contractAddress": "0x00972455a43df7d89f165c5b82f30c20247bb610",
      "function": "borrow(uint256,uint256)",
      "arguments": [
        "3054771748868172",
        "0"
      ],
      "transaction": {
        "from": "0xc77f7fed3b5cc8249adc428c5f44c9063b9734b4",
        "to": "0x00972455a43df7d89f165c5b82f30c20247bb610",
        "gas": "0x23e8c",
        "value": "0x0",
        "input": "0x0ecbcdab000000000000000000000000000000000000000000000000000ada4c78f6104c0000000000000000000000000000000000000000000000000000000000000000",
        "nonce": "0x1873",
        "chainId": "0xaa36a7"
      },
      "additionalContracts": [],
      "isFixedGasLimit": false
    }
  ],
  "receipts": [
    {
      "status": "0x1",
      "cumulativeGasUsed": "0xa53d7a",
      "logs": [
        {
          "address": "0x00972455a43df7d89f165c5b82f30c20247bb610",
          "topics": [
            "0xddf252ad1be2c89b69c2b068fc378daa952ba7f163c4a11628f55a4df523b3ef",
            "0x000000000000000000000000c77f7fed3b5cc8249adc428c5f44c9063b9734b4",
            "0x00000000000000000000000000972455a43df7d89f165c5b82f30c20247bb610"
          ],
          "data": "0x0000000000000000000000000000000000000000000000002a4a290018b42f72",
          "blockHash": "0x601af321d3b9ecd2c78008ab29f99944894e2b707a97929a0399601a0ebed83d",
          "blockNumber": "0x737e58",
          "transactionHash": "0xd20f9765ca1932e74763c74db99325587ecb630f509c04f4b563c66bb7c8852e",
          "transactionIndex": "0x62",
          "logIndex": "0x8b",
          "removed": false
        },
        {
          "address": "0x00972455a43df7d89f165c5b82f30c20247bb610",
          "topics": [
            "0xddf252ad1be2c89b69c2b068fc378daa952ba7f163c4a11628f55a4df523b3ef",
            "0x00000000000000000000000000972455a43df7d89f165c5b82f30c20247bb610",
            "0x000000000000000000000000c77f7fed3b5cc8249adc428c5f44c9063b9734b4"
          ],
          "data": "0x000000000000000000000000000000000000000000000000000da86c01250241",
          "blockHash": "0x601af321d3b9ecd2c78008ab29f99944894e2b707a97929a0399601a0ebed83d",
          "blockNumber": "0x737e58",
          "transactionHash": "0xd20f9765ca1932e74763c74db99325587ecb630f509c04f4b563c66bb7c8852e",
          "transactionIndex": "0x62",
          "logIndex": "0x8c",
          "removed": false
        },
        {
          "address": "0x00972455a43df7d89f165c5b82f30c20247bb610",
          "topics": [
            "0xddf252ad1be2c89b69c2b068fc378daa952ba7f163c4a11628f55a4df523b3ef",
            "0x00000000000000000000000000972455a43df7d89f165c5b82f30c20247bb610",
            "0x0000000000000000000000000000000000000000000000000000000000000000"
          ],
          "data": "0x000000000000000000000000000000000000000000000000001fde5158010545",
          "blockHash": "0x601af321d3b9ecd2c78008ab29f99944894e2b707a97929a0399601a0ebed83d",
          "blockNumber": "0x737e58",
          "transactionHash": "0xd20f9765ca1932e74763c74db99325587ecb630f509c04f4b563c66bb7c8852e",
          "transactionIndex": "0x62",
          "logIndex": "0x8d",
          "removed": false
        },
        {
          "address": "0x00972455a43df7d89f165c5b82f30c20247bb610",
          "topics": [
            "0x03bbe564cb1b78e43195eeadbde99e5b89b19345862807fcfb59f884e4165e25"
          ],
          "data": "0x000000000000000000000000c77f7fed3b5cc8249adc428c5f44c9063b9734b4000000000000000000000000000000000000000000000000000ab2f300622ebe",
          "blockHash": "0x601af321d3b9ecd2c78008ab29f99944894e2b707a97929a0399601a0ebed83d",
          "blockNumber": "0x737e58",
          "transactionHash": "0xd20f9765ca1932e74763c74db99325587ecb630f509c04f4b563c66bb7c8852e",
          "transactionIndex": "0x62",
          "logIndex": "0x8e",
          "removed": false
        },
        {
          "address": "0x00972455a43df7d89f165c5b82f30c20247bb610",
          "topics": [
            "0xaec00f5213a37254bc68a26b0685d1a5b2bf513e1e587c94c7df7f4a62b56c9c"
          ],
          "data": "0x0000000000000000000000000000000000000000000000000000000000000000000000000000000000000000000000000000000000000000000000000000000000000000000000000000000000000000000000000000000000000000000000000000000000000000000000000000000000000000000000000000000000000000",
          "blockHash": "0x601af321d3b9ecd2c78008ab29f99944894e2b707a97929a0399601a0ebed83d",
          "blockNumber": "0x737e58",
          "transactionHash": "0xd20f9765ca1932e74763c74db99325587ecb630f509c04f4b563c66bb7c8852e",
          "transactionIndex": "0x62",
          "logIndex": "0x8f",
          "removed": false
        },
        {
          "address": "0x00972455a43df7d89f165c5b82f30c20247bb610",
          "topics": [
            "0xaec00f5213a37254bc68a26b0685d1a5b2bf513e1e587c94c7df7f4a62b56c9c"
          ],
          "data": "0x000000000000000000000000000000000000000000000000b35d53cf8ca56b66000000000000000000000000000000000000000000000000002d7bfe2ab424b5000000000000000000000000000000000000000000000000002d7bfe2ab424b5000000000000000000000000000000000000000000000000b35d53cf8ca56b66",
          "blockHash": "0x601af321d3b9ecd2c78008ab29f99944894e2b707a97929a0399601a0ebed83d",
          "blockNumber": "0x737e58",
          "transactionHash": "0xd20f9765ca1932e74763c74db99325587ecb630f509c04f4b563c66bb7c8852e",
          "transactionIndex": "0x62",
          "logIndex": "0x90",
          "removed": false
        },
        {
          "address": "0x00972455a43df7d89f165c5b82f30c20247bb610",
          "topics": [
            "0x4afcb4a87cdbd9974efdb92ee48bc8d7cd0ae4bf217004db3d080cbaee652ca7"
          ],
          "data": "0x00000000000000000000000000000000000000000000000000000000679511d00000000000000000000000000000000000000000000000000003905b9b4c847a00000000000000000000000000000000000000000000000000000baeef85f5c4",
          "blockHash": "0x601af321d3b9ecd2c78008ab29f99944894e2b707a97929a0399601a0ebed83d",
          "blockNumber": "0x737e58",
          "transactionHash": "0xd20f9765ca1932e74763c74db99325587ecb630f509c04f4b563c66bb7c8852e",
          "transactionIndex": "0x62",
          "logIndex": "0x91",
          "removed": false
        }
      ],
      "logsBloom": "0x00000000000008000000000000000100400000000000000000000000000000000008000000000000000000000000000000002800000000004400000000000000000000000000000000000008000000000000000000000000000000000000000000000000020000000000000000000800028000000000000000000010000000000000000000000000000000000000000000000000000000000000010000000000000000000000000000000400000000004000000000400000000040001000000000000002000000800000000000000000000000000000080000000000000020000000000000000000000000000000000000000000000000000000000000000000",
      "type": "0x2",
      "transactionHash": "0xd20f9765ca1932e74763c74db99325587ecb630f509c04f4b563c66bb7c8852e",
      "transactionIndex": "0x62",
      "blockHash": "0x601af321d3b9ecd2c78008ab29f99944894e2b707a97929a0399601a0ebed83d",
      "blockNumber": "0x737e58",
      "gasUsed": "0x19ff7",
      "effectiveGasPrice": "0x1f29aa436",
      "from": "0xc77f7fed3b5cc8249adc428c5f44c9063b9734b4",
      "to": "0x00972455a43df7d89f165c5b82f30c20247bb610",
      "contractAddress": null
    }
  ],
  "libraries": [],
  "pending": [],
  "returns": {},
  "timestamp": 1737822674,
  "chain": 11155111,
  "commit": "f5162e9"
}