{
  "transactions": [
    {
      "hash": "0x4f813b9250dd443c269ae0d4eaea7442c95840698a130085b2c46291c26d4ed4",
      "transactionType": "CALL",
      "contractName": null,
      "contractAddress": "0x5eb9cc76c3506942c1c0ead70e877dd5e4f00cb0",
      "function": "sell(uint256)",
      "arguments": [
        "989090119269566178741"
      ],
      "transaction": {
        "from": "0xc77f7fed3b5cc8249adc428c5f44c9063b9734b4",
        "to": "0x5eb9cc76c3506942c1c0ead70e877dd5e4f00cb0",
        "gas": "0x16fec",
        "value": "0x0",
        "input": "0xe4849b320000000000000000000000000000000000000000000000359e61ff0d373ce5b5",
        "nonce": "0x43f",
        "chainId": "0xaa36a7"
      },
      "additionalContracts": [],
      "isFixedGasLimit": false
    }
  ],
  "receipts": [
    {
      "status": "0x1",
      "cumulativeGasUsed": "0x1486075",
      "logs": [
        {
          "address": "0x5eb9cc76c3506942c1c0ead70e877dd5e4f00cb0",
          "topics": [
            "0xddf252ad1be2c89b69c2b068fc378daa952ba7f163c4a11628f55a4df523b3ef",
            "0x000000000000000000000000c77f7fed3b5cc8249adc428c5f44c9063b9734b4",
            "0x0000000000000000000000000000000000000000000000000000000000000000"
          ],
          "data": "0x0000000000000000000000000000000000000000000000359e61ff0d373ce5b5",
          "blockHash": "0x81f1765b64200d543a9b65ac61fc1bab0285d9525cc331f98f31168d4f6b4af1",
          "blockNumber": "0x72505e",
          "transactionHash": "0x4f813b9250dd443c269ae0d4eaea7442c95840698a130085b2c46291c26d4ed4",
          "transactionIndex": "0x81",
          "logIndex": "0xf2",
          "removed": false
        },
        {
          "address": "0x5eb9cc76c3506942c1c0ead70e877dd5e4f00cb0",
          "topics": [
            "0x4afcb4a87cdbd9974efdb92ee48bc8d7cd0ae4bf217004db3d080cbaee652ca7"
          ],
          "data": "0x000000000000000000000000000000000000000000000000000000006786b63400000000000000000000000000000000000000000000000000039117cea2e2d60000000000000000000000000000000000000000000000000dc7db1331d5dde7",
          "blockHash": "0x81f1765b64200d543a9b65ac61fc1bab0285d9525cc331f98f31168d4f6b4af1",
          "blockNumber": "0x72505e",
          "transactionHash": "0x4f813b9250dd443c269ae0d4eaea7442c95840698a130085b2c46291c26d4ed4",
          "transactionIndex": "0x81",
          "logIndex": "0xf3",
          "removed": false
        }
      ],
      "logsBloom": "0x00000000000000000000000000000000000000000000000000000000000000000000000000000000000000000000000000000000000000004000000000000000000000000000000000000008000000000000000000000000000000000000000000000000020000000000000004000800020000000000000000000010000000000000000000000000000000000000000000000000000000000000010000000000000000000000000000000000000000004000000000000000000000000000020000000002000000800000008000000000000000000000080000000000000020000000000000000000000000000000000000000000000000000000000000000000",
      "type": "0x2",
      "transactionHash": "0x4f813b9250dd443c269ae0d4eaea7442c95840698a130085b2c46291c26d4ed4",
      "transactionIndex": "0x81",
      "blockHash": "0x81f1765b64200d543a9b65ac61fc1bab0285d9525cc331f98f31168d4f6b4af1",
      "blockNumber": "0x72505e",
      "gasUsed": "0xfb93",
      "effectiveGasPrice": "0x25010ca2e",
      "from": "0xc77f7fed3b5cc8249adc428c5f44c9063b9734b4",
      "to": "0x5eb9cc76c3506942c1c0ead70e877dd5e4f00cb0",
      "contractAddress": null
    }
  ],
  "libraries": [],
  "pending": [],
  "returns": {},
  "timestamp": 1736881717,
  "chain": 11155111,
  "commit": "51a374b"
}