{
  "transactions": [
    {
      "hash": "0x249d37d2d927e2e3d1756c072375deb40d8307f6fe67daca94bd7413dab73823",
      "transactionType": "CALL",
      "contractName": null,
      "contractAddress": "0x5eb9cc76c3506942c1c0ead70e877dd5e4f00cb0",
      "function": "sell(uint256)",
      "arguments": [
        "989144301290248035005"
      ],
      "transaction": {
        "from": "0xc77f7fed3b5cc8249adc428c5f44c9063b9734b4",
        "to": "0x5eb9cc76c3506942c1c0ead70e877dd5e4f00cb0",
        "gas": "0x16fec",
        "value": "0x0",
        "input": "0xe4849b320000000000000000000000000000000000000000000000359f227d4ff7315abd",
        "nonce": "0x2eb",
        "chainId": "0xaa36a7"
      },
      "additionalContracts": [],
      "isFixedGasLimit": false
    }
  ],
  "receipts": [
    {
      "status": "0x1",
      "cumulativeGasUsed": "0x109a75f",
      "logs": [
        {
          "address": "0x5eb9cc76c3506942c1c0ead70e877dd5e4f00cb0",
          "topics": [
            "0xddf252ad1be2c89b69c2b068fc378daa952ba7f163c4a11628f55a4df523b3ef",
            "0x000000000000000000000000c77f7fed3b5cc8249adc428c5f44c9063b9734b4",
            "0x0000000000000000000000000000000000000000000000000000000000000000"
          ],
          "data": "0x0000000000000000000000000000000000000000000000359f227d4ff7315abd",
          "blockHash": "0x50ce0953e6d99d8bc90af5b0b54c61c8aa53608f33c6df97ccc980e449d1da0d",
          "blockNumber": "0x724ec9",
          "transactionHash": "0x249d37d2d927e2e3d1756c072375deb40d8307f6fe67daca94bd7413dab73823",
          "transactionIndex": "0x59",
          "logIndex": "0x91",
          "removed": false
        },
        {
          "address": "0x5eb9cc76c3506942c1c0ead70e877dd5e4f00cb0",
          "topics": [
            "0x4afcb4a87cdbd9974efdb92ee48bc8d7cd0ae4bf217004db3d080cbaee652ca7"
          ],
          "data": "0x000000000000000000000000000000000000000000000000000000006786a3200000000000000000000000000000000000000000000000000003910b00c6d4600000000000000000000000000000000000000000000000000dc7db13323646d3",
          "blockHash": "0x50ce0953e6d99d8bc90af5b0b54c61c8aa53608f33c6df97ccc980e449d1da0d",
          "blockNumber": "0x724ec9",
          "transactionHash": "0x249d37d2d927e2e3d1756c072375deb40d8307f6fe67daca94bd7413dab73823",
          "transactionIndex": "0x59",
          "logIndex": "0x92",
          "removed": false
        }
      ],
      "logsBloom": "0x00000000000000000000000000000000000000000000000000000000000000000000000000000000000000000000000000000000000000004000000000000000000000000000000000000008000000000000000000000000000000000000000000000000020000000000000004000800020000000000000000000010000000000000000000000000000000000000000000000000000000000000010000000000000000000000000000000000000000004000000000000000000000000000020000000002000000800000008000000000000000000000080000000000000020000000000000000000000000000000000000000000000000000000000000000000",
      "type": "0x2",
      "transactionHash": "0x249d37d2d927e2e3d1756c072375deb40d8307f6fe67daca94bd7413dab73823",
      "transactionIndex": "0x59",
      "blockHash": "0x50ce0953e6d99d8bc90af5b0b54c61c8aa53608f33c6df97ccc980e449d1da0d",
      "blockNumber": "0x724ec9",
      "gasUsed": "0xfb93",
      "effectiveGasPrice": "0x4b16d6638",
      "from": "0xc77f7fed3b5cc8249adc428c5f44c9063b9734b4",
      "to": "0x5eb9cc76c3506942c1c0ead70e877dd5e4f00cb0",
      "contractAddress": null
    }
  ],
  "libraries": [],
  "pending": [],
  "returns": {},
  "timestamp": 1736876835,
  "chain": 11155111,
  "commit": "51a374b"
}