{
  "transactions": [
    {
      "hash": "0xf6f5d4ac13d7db55faa0e223027d53168b09c71e6d73864f296e58c10b437d16",
      "transactionType": "CALL",
      "contractName": null,
      "contractAddress": "0x8aafd3ede9adb0ff97c7aebce82a919afb1c8764",
      "function": "sell(uint256)",
      "arguments": [
        "661725957375876718237"
      ],
      "transaction": {
        "from": "0xc77f7fed3b5cc8249adc428c5f44c9063b9734b4",
        "to": "0x8aafd3ede9adb0ff97c7aebce82a919afb1c8764",
        "gas": "0x17270",
        "value": "0x0",
        "input": "0xe4849b32000000000000000000000000000000000000000000000023df4adc424c68de9d",
        "nonce": "0x12fd",
        "chainId": "0xaa36a7"
      },
      "additionalContracts": [],
      "isFixedGasLimit": false
    }
  ],
  "receipts": [
    {
      "status": "0x1",
      "cumulativeGasUsed": "0xf08d2a",
      "logs": [
        {
          "address": "0x8aafd3ede9adb0ff97c7aebce82a919afb1c8764",
          "topics": [
            "0xddf252ad1be2c89b69c2b068fc378daa952ba7f163c4a11628f55a4df523b3ef",
            "0x0000000000000000000000008aafd3ede9adb0ff97c7aebce82a919afb1c8764",
            "0x0000000000000000000000000000000000000000000000000000000000000000"
          ],
          "data": "0x0000000000000000000000000000000000000000000002fa924dcac47dede61c",
          "blockHash": "0xe92317bfba61e191ab584ea3ee6d87d767e3f81eefa5c812cdba85c66bd3c453",
          "blockNumber": "0x731a05",
          "transactionHash": "0xf6f5d4ac13d7db55faa0e223027d53168b09c71e6d73864f296e58c10b437d16",
          "transactionIndex": "0xa0",
          "logIndex": "0xe1",
          "removed": false
        },
        {
          "address": "0x8aafd3ede9adb0ff97c7aebce82a919afb1c8764",
          "topics": [
            "0x4afcb4a87cdbd9974efdb92ee48bc8d7cd0ae4bf217004db3d080cbaee652ca7"
          ],
          "data": "0x000000000000000000000000000000000000000000000000000000006790350c000000000000000000000000000000000000000000000000000b18474cc3e07400000000000000000000000000000000000000000000000104c70af0e65d8000",
          "blockHash": "0xe92317bfba61e191ab584ea3ee6d87d767e3f81eefa5c812cdba85c66bd3c453",
          "blockNumber": "0x731a05",
          "transactionHash": "0xf6f5d4ac13d7db55faa0e223027d53168b09c71e6d73864f296e58c10b437d16",
          "transactionIndex": "0xa0",
          "logIndex": "0xe2",
          "removed": false
        },
        {
          "address": "0x8aafd3ede9adb0ff97c7aebce82a919afb1c8764",
          "topics": [
            "0xddf252ad1be2c89b69c2b068fc378daa952ba7f163c4a11628f55a4df523b3ef",
            "0x000000000000000000000000c77f7fed3b5cc8249adc428c5f44c9063b9734b4",
            "0x0000000000000000000000000000000000000000000000000000000000000000"
          ],
          "data": "0x00000000000000000000000000000000000000000000002395d37a3dac0deb2c",
          "blockHash": "0xe92317bfba61e191ab584ea3ee6d87d767e3f81eefa5c812cdba85c66bd3c453",
          "blockNumber": "0x731a05",
          "transactionHash": "0xf6f5d4ac13d7db55faa0e223027d53168b09c71e6d73864f296e58c10b437d16",
          "transactionIndex": "0xa0",
          "logIndex": "0xe3",
          "removed": false
        },
        {
          "address": "0x8aafd3ede9adb0ff97c7aebce82a919afb1c8764",
          "topics": [
            "0xddf252ad1be2c89b69c2b068fc378daa952ba7f163c4a11628f55a4df523b3ef",
            "0x000000000000000000000000c77f7fed3b5cc8249adc428c5f44c9063b9734b4",
            "0x000000000000000000000000c77f7fed3b5cc8249adc428c5f44c9063b9734b4"
          ],
          "data": "0x00000000000000000000000000000000000000000000000049776204a05af371",
          "blockHash": "0xe92317bfba61e191ab584ea3ee6d87d767e3f81eefa5c812cdba85c66bd3c453",
          "blockNumber": "0x731a05",
          "transactionHash": "0xf6f5d4ac13d7db55faa0e223027d53168b09c71e6d73864f296e58c10b437d16",
          "transactionIndex": "0xa0",
          "logIndex": "0xe4",
          "removed": false
        },
        {
          "address": "0x8aafd3ede9adb0ff97c7aebce82a919afb1c8764",
          "topics": [
            "0x4afcb4a87cdbd9974efdb92ee48bc8d7cd0ae4bf217004db3d080cbaee652ca7"
          ],
          "data": "0x000000000000000000000000000000000000000000000000000000006790350c000000000000000000000000000000000000000000000000000b416814eac86d0000000000000000000000000000000000000000000000001cadbe05056ea11f",
          "blockHash": "0xe92317bfba61e191ab584ea3ee6d87d767e3f81eefa5c812cdba85c66bd3c453",
          "blockNumber": "0x731a05",
          "transactionHash": "0xf6f5d4ac13d7db55faa0e223027d53168b09c71e6d73864f296e58c10b437d16",
          "transactionIndex": "0xa0",
          "logIndex": "0xe5",
          "removed": false
        }
      ],
      "logsBloom": "0x00000000000000000000000000000000000000000600000000000100000000000000000000000000000000000000000000800000000000004000000000000000000000000000004000000008000000000000000000000000000000000000000000000000020000000000000000000800020000000000000200000010000000000000000000000000000000000000000000000000000000000000010000000000000000000000000000000000000000004000000000000000000000000000000000000002000000800000000000000000000000000000080000000000000020000000000000000000000000000000000000000000000000000000000000000000",
      "type": "0x2",
      "transactionHash": "0xf6f5d4ac13d7db55faa0e223027d53168b09c71e6d73864f296e58c10b437d16",
      "transactionIndex": "0xa0",
      "blockHash": "0xe92317bfba61e191ab584ea3ee6d87d767e3f81eefa5c812cdba85c66bd3c453",
      "blockNumber": "0x731a05",
      "gasUsed": "0x13e35",
      "effectiveGasPrice": "0x485de768",
      "from": "0xc77f7fed3b5cc8249adc428c5f44c9063b9734b4",
      "to": "0x8aafd3ede9adb0ff97c7aebce82a919afb1c8764",
      "contractAddress": null
    }
  ],
  "libraries": [],
  "pending": [],
  "returns": {},
  "timestamp": 1737504012,
  "chain": 11155111,
  "commit": "1d2fb70"
}