{
  "transactions": [
    {
      "hash": "0x1d253ad45d35a97e0f26d9638924d328821b04821500d5c2474fa9c55069ed49",
      "transactionType": "CALL",
      "contractName": null,
      "contractAddress": "0x8aafd3ede9adb0ff97c7aebce82a919afb1c8764",
      "function": "sell(uint256)",
      "arguments": [
        "177049654"
      ],
      "transaction": {
        "from": "0xc77f7fed3b5cc8249adc428c5f44c9063b9734b4",
        "to": "0x8aafd3ede9adb0ff97c7aebce82a919afb1c8764",
        "gas": "0x15d88",
        "value": "0x0",
        "input": "0xe4849b32000000000000000000000000000000000000000000000000000000000a8d9036",
        "nonce": "0x1245",
        "chainId": "0xaa36a7"
      },
      "additionalContracts": [],
      "isFixedGasLimit": false
    }
  ],
  "receipts": [
    {
      "status": "0x1",
      "cumulativeGasUsed": "0x80a1b7",
      "logs": [
        {
          "address": "0x8aafd3ede9adb0ff97c7aebce82a919afb1c8764",
          "topics": [
            "0xddf252ad1be2c89b69c2b068fc378daa952ba7f163c4a11628f55a4df523b3ef",
            "0x000000000000000000000000c77f7fed3b5cc8249adc428c5f44c9063b9734b4",
            "0x0000000000000000000000000000000000000000000000000000000000000000"
          ],
          "data": "0x000000000000000000000000000000000000000000000000000000000a77f369",
          "blockHash": "0x24a7e8aba1005a413812cf80b3c93499622552f8908111350049eaf88354497c",
          "blockNumber": "0x731925",
          "transactionHash": "0x1d253ad45d35a97e0f26d9638924d328821b04821500d5c2474fa9c55069ed49",
          "transactionIndex": "0x7a",
          "logIndex": "0x7c",
          "removed": false
        },
        {
          "address": "0x8aafd3ede9adb0ff97c7aebce82a919afb1c8764",
          "topics": [
            "0xddf252ad1be2c89b69c2b068fc378daa952ba7f163c4a11628f55a4df523b3ef",
            "0x000000000000000000000000c77f7fed3b5cc8249adc428c5f44c9063b9734b4",
            "0x000000000000000000000000c77f7fed3b5cc8249adc428c5f44c9063b9734b4"
          ],
          "data": "0x0000000000000000000000000000000000000000000000000000000000159ccd",
          "blockHash": "0x24a7e8aba1005a413812cf80b3c93499622552f8908111350049eaf88354497c",
          "blockNumber": "0x731925",
          "transactionHash": "0x1d253ad45d35a97e0f26d9638924d328821b04821500d5c2474fa9c55069ed49",
          "transactionIndex": "0x7a",
          "logIndex": "0x7d",
          "removed": false
        },
        {
          "address": "0x8aafd3ede9adb0ff97c7aebce82a919afb1c8764",
          "topics": [
            "0x4afcb4a87cdbd9974efdb92ee48bc8d7cd0ae4bf217004db3d080cbaee652ca7"
          ],
          "data": "0x0000000000000000000000000000000000000000000000000000000067902a8c00000000000000000000000000000000000000000000000000053aa69653b008000000000000000000000000000000000000000000000000000000000003f9f0",
          "blockHash": "0x24a7e8aba1005a413812cf80b3c93499622552f8908111350049eaf88354497c",
          "blockNumber": "0x731925",
          "transactionHash": "0x1d253ad45d35a97e0f26d9638924d328821b04821500d5c2474fa9c55069ed49",
          "transactionIndex": "0x7a",
          "logIndex": "0x7e",
          "removed": false
        }
      ],
      "logsBloom": "0x00000000000000000000000000000000000000000600000000000000000000000000000000000000000000000000000000000000000000004000000000000000000000000000004000000008000000000000000000000000000000000000000000000000020000000000000000000800020000000000000000000010000000000000000000000000000000000000000000000000000000000000010000000000000000000000000000000000000000004000000000000000000000000000000000000002000000800000000000000000000000000000080000000000000020000000000000000000000000000000000000000000000000000000000000000000",
      "type": "0x2",
      "transactionHash": "0x1d253ad45d35a97e0f26d9638924d328821b04821500d5c2474fa9c55069ed49",
      "transactionIndex": "0x7a",
      "blockHash": "0x24a7e8aba1005a413812cf80b3c93499622552f8908111350049eaf88354497c",
      "blockNumber": "0x731925",
      "gasUsed": "0xfd0f",
      "effectiveGasPrice": "0x4ab308d3",
      "from": "0xc77f7fed3b5cc8249adc428c5f44c9063b9734b4",
      "to": "0x8aafd3ede9adb0ff97c7aebce82a919afb1c8764",
      "contractAddress": null
    }
  ],
  "libraries": [],
  "pending": [],
  "returns": {},
  "timestamp": 1737501326,
  "chain": 11155111,
  "commit": "1d2fb70"
}