{
  "transactions": [
    {
      "hash": "0x1beacb0a69f35dc82b7886bf5f219f356d8aa9fafed3d744c0bfa14c9ce7fe4a",
      "transactionType": "CALL",
      "contractName": null,
      "contractAddress": "0x8aafd3ede9adb0ff97c7aebce82a919afb1c8764",
      "function": "sell(uint256)",
      "arguments": [
        "188082779"
      ],
      "transaction": {
        "from": "0xc77f7fed3b5cc8249adc428c5f44c9063b9734b4",
        "to": "0x8aafd3ede9adb0ff97c7aebce82a919afb1c8764",
        "gas": "0x14e6c",
        "value": "0x0",
        "input": "0xe4849b32000000000000000000000000000000000000000000000000000000000b35ea5b",
        "nonce": "0x1029",
        "chainId": "0xaa36a7"
      },
      "additionalContracts": [],
      "isFixedGasLimit": false
    }
  ],
  "receipts": [
    {
      "status": "0x1",
      "cumulativeGasUsed": "0xb91bf7",
      "logs": [
        {
          "address": "0x8aafd3ede9adb0ff97c7aebce82a919afb1c8764",
          "topics": [
            "0xddf252ad1be2c89b69c2b068fc378daa952ba7f163c4a11628f55a4df523b3ef",
            "0x000000000000000000000000c77f7fed3b5cc8249adc428c5f44c9063b9734b4",
            "0x0000000000000000000000000000000000000000000000000000000000000000"
          ],
          "data": "0x000000000000000000000000000000000000000000000000000000000b1ef4c5",
          "blockHash": "0xc58cf6eaf6347b9af717e42c60a9840f822ada6e98c7c416df7b7a6751eb4fb3",
          "blockNumber": "0x7316a3",
          "transactionHash": "0x1beacb0a69f35dc82b7886bf5f219f356d8aa9fafed3d744c0bfa14c9ce7fe4a",
          "transactionIndex": "0x8e",
          "logIndex": "0x97",
          "removed": false
        },
        {
          "address": "0x8aafd3ede9adb0ff97c7aebce82a919afb1c8764",
          "topics": [
            "0xddf252ad1be2c89b69c2b068fc378daa952ba7f163c4a11628f55a4df523b3ef",
            "0x000000000000000000000000c77f7fed3b5cc8249adc428c5f44c9063b9734b4",
            "0x000000000000000000000000c77f7fed3b5cc8249adc428c5f44c9063b9734b4"
          ],
          "data": "0x000000000000000000000000000000000000000000000000000000000016f596",
          "blockHash": "0xc58cf6eaf6347b9af717e42c60a9840f822ada6e98c7c416df7b7a6751eb4fb3",
          "blockNumber": "0x7316a3",
          "transactionHash": "0x1beacb0a69f35dc82b7886bf5f219f356d8aa9fafed3d744c0bfa14c9ce7fe4a",
          "transactionIndex": "0x8e",
          "logIndex": "0x98",
          "removed": false
        },
        {
          "address": "0x8aafd3ede9adb0ff97c7aebce82a919afb1c8764",
          "topics": [
            "0x4afcb4a87cdbd9974efdb92ee48bc8d7cd0ae4bf217004db3d080cbaee652ca7"
          ],
          "data": "0x0000000000000000000000000000000000000000000000000000000067900c500000000000000000000000000000000000000000000000000004ec35507ed270000000000000000000000000000000000000000000000000000000000003fa02",
          "blockHash": "0xc58cf6eaf6347b9af717e42c60a9840f822ada6e98c7c416df7b7a6751eb4fb3",
          "blockNumber": "0x7316a3",
          "transactionHash": "0x1beacb0a69f35dc82b7886bf5f219f356d8aa9fafed3d744c0bfa14c9ce7fe4a",
          "transactionIndex": "0x8e",
          "logIndex": "0x99",
          "removed": false
        }
      ],
      "logsBloom": "0x00000000000000000000000000000000000000000600000000000000000000000000000000000000000000000000000000000000000000004000000000000000000000000000004000000008000000000000000000000000000000000000000000000000020000000000000000000800020000000000000000000010000000000000000000000000000000000000000000000000000000000000010000000000000000000000000000000000000000004000000000000000000000000000000000000002000000800000000000000000000000000000080000000000000020000000000000000000000000000000000000000000000000000000000000000000",
      "type": "0x2",
      "transactionHash": "0x1beacb0a69f35dc82b7886bf5f219f356d8aa9fafed3d744c0bfa14c9ce7fe4a",
      "transactionIndex": "0x8e",
      "blockHash": "0xc58cf6eaf6347b9af717e42c60a9840f822ada6e98c7c416df7b7a6751eb4fb3",
      "blockNumber": "0x7316a3",
      "gasUsed": "0xf21f",
      "effectiveGasPrice": "0x454d5eef",
      "from": "0xc77f7fed3b5cc8249adc428c5f44c9063b9734b4",
      "to": "0x8aafd3ede9adb0ff97c7aebce82a919afb1c8764",
      "contractAddress": null
    }
  ],
  "libraries": [],
  "pending": [],
  "returns": {},
  "timestamp": 1737493586,
  "chain": 11155111,
  "commit": "1d2fb70"
}