{
  "transactions": [
    {
      "hash": "0x1b532df59e99fdb796a7dd1a2bc0dc0bc32e91956ceec866e4afb24a2f41e915",
      "transactionType": "CALL",
      "contractName": null,
      "contractAddress": "0x8aafd3ede9adb0ff97c7aebce82a919afb1c8764",
      "function": "sell(uint256)",
      "arguments": [
        "366503599550067"
      ],
      "transaction": {
        "from": "0xc77f7fed3b5cc8249adc428c5f44c9063b9734b4",
        "to": "0x8aafd3ede9adb0ff97c7aebce82a919afb1c8764",
        "gas": "0x1724d",
        "value": "0x0",
        "input": "0xe4849b3200000000000000000000000000000000000000000000000000014d5544dc2e73",
        "nonce": "0x103a",
        "chainId": "0xaa36a7"
      },
      "additionalContracts": [],
      "isFixedGasLimit": false
    }
  ],
  "receipts": [
    {
      "status": "0x1",
      "cumulativeGasUsed": "0x98b1b5",
      "logs": [
        {
          "address": "0x8aafd3ede9adb0ff97c7aebce82a919afb1c8764",
          "topics": [
            "0xddf252ad1be2c89b69c2b068fc378daa952ba7f163c4a11628f55a4df523b3ef",
            "0x000000000000000000000000c77f7fed3b5cc8249adc428c5f44c9063b9734b4",
            "0x0000000000000000000000000000000000000000000000000000000000000000"
          ],
          "data": "0x00000000000000000000000000000000000000000000000000014aaa9a534083",
          "blockHash": "0x38e96f5cd9a8b8798089b0173c30236435054e9137ccca0bb5dcd0f25491c092",
          "blockNumber": "0x7316b8",
          "transactionHash": "0x1b532df59e99fdb796a7dd1a2bc0dc0bc32e91956ceec866e4afb24a2f41e915",
          "transactionIndex": "0x79",
          "logIndex": "0x7d",
          "removed": false
        },
        {
          "address": "0x8aafd3ede9adb0ff97c7aebce82a919afb1c8764",
          "topics": [
            "0xddf252ad1be2c89b69c2b068fc378daa952ba7f163c4a11628f55a4df523b3ef",
            "0x000000000000000000000000c77f7fed3b5cc8249adc428c5f44c9063b9734b4",
            "0x000000000000000000000000c77f7fed3b5cc8249adc428c5f44c9063b9734b4"
          ],
          "data": "0x000000000000000000000000000000000000000000000000000002aaaa88edf0",
          "blockHash": "0x38e96f5cd9a8b8798089b0173c30236435054e9137ccca0bb5dcd0f25491c092",
          "blockNumber": "0x7316b8",
          "transactionHash": "0x1b532df59e99fdb796a7dd1a2bc0dc0bc32e91956ceec866e4afb24a2f41e915",
          "transactionIndex": "0x79",
          "logIndex": "0x7e",
          "removed": false
        },
        {
          "address": "0x8aafd3ede9adb0ff97c7aebce82a919afb1c8764",
          "topics": [
            "0x4afcb4a87cdbd9974efdb92ee48bc8d7cd0ae4bf217004db3d080cbaee652ca7"
          ],
          "data": "0x0000000000000000000000000000000000000000000000000000000067900d580000000000000000000000000000000000000000000000000004ef1cc940680b0000000000000000000000000000000000000000000000000000007682ecd09f",
          "blockHash": "0x38e96f5cd9a8b8798089b0173c30236435054e9137ccca0bb5dcd0f25491c092",
          "blockNumber": "0x7316b8",
          "transactionHash": "0x1b532df59e99fdb796a7dd1a2bc0dc0bc32e91956ceec866e4afb24a2f41e915",
          "transactionIndex": "0x79",
          "logIndex": "0x7f",
          "removed": false
        }
      ],
      "logsBloom": "0x00000000000000000000000000000000000000000600000000000000000000000000000000000000000000000000000000000000000000004000000000000000000000000000004000000008000000000000000000000000000000000000000000000000020000000000000000000800020000000000000000000010000000000000000000000000000000000000000000000000000000000000010000000000000000000000000000000000000000004000000000000000000000000000000000000002000000800000000000000000000000000000080000000000000020000000000000000000000000000000000000000000000000000000000000000000",
      "type": "0x2",
      "transactionHash": "0x1b532df59e99fdb796a7dd1a2bc0dc0bc32e91956ceec866e4afb24a2f41e915",
      "transactionIndex": "0x79",
      "blockHash": "0x38e96f5cd9a8b8798089b0173c30236435054e9137ccca0bb5dcd0f25491c092",
      "blockNumber": "0x7316b8",
      "gasUsed": "0xfd33",
      "effectiveGasPrice": "0x4a9328b3",
      "from": "0xc77f7fed3b5cc8249adc428c5f44c9063b9734b4",
      "to": "0x8aafd3ede9adb0ff97c7aebce82a919afb1c8764",
      "contractAddress": null
    }
  ],
  "libraries": [],
  "pending": [],
  "returns": {},
  "timestamp": 1737493849,
  "chain": 11155111,
  "commit": "1d2fb70"
}