{
  "transactions": [
    {
      "hash": "0xe2c12e9e2f4ddfc697ec61534ab338d72851423d05d988ea02d6f094200ee3a4",
      "transactionType": "CALL",
      "contractName": null,
      "contractAddress": "0x270e88f8683660553e8ba4eb2ad7c91a1710d769",
      "function": "sell(uint256)",
      "arguments": [
        "740997887398139064481"
      ],
      "transaction": {
        "from": "0xc77f7fed3b5cc8249adc428c5f44c9063b9734b4",
        "to": "0x270e88f8683660553e8ba4eb2ad7c91a1710d769",
        "gas": "0x16fec",
        "value": "0x0",
        "input": "0xe4849b320000000000000000000000000000000000000000000000282b69549d10faf0a1",
        "nonce": "0x730",
        "chainId": "0xaa36a7"
      },
      "additionalContracts": [],
      "isFixedGasLimit": false
    }
  ],
  "receipts": [
    {
      "status": "0x1",
      "cumulativeGasUsed": "0x10fdca8",
      "logs": [
        {
          "address": "0x270e88f8683660553e8ba4eb2ad7c91a1710d769",
          "topics": [
            "0xddf252ad1be2c89b69c2b068fc378daa952ba7f163c4a11628f55a4df523b3ef",
            "0x000000000000000000000000c77f7fed3b5cc8249adc428c5f44c9063b9734b4",
            "0x0000000000000000000000000000000000000000000000000000000000000000"
          ],
          "data": "0x0000000000000000000000000000000000000000000000282b69549d10faf0a1",
          "blockHash": "0xeece7d80c12b7818ab65e19547b40ee23533f84eb80fc37c8efd766ad0b37108",
          "blockNumber": "0x725451",
          "transactionHash": "0xe2c12e9e2f4ddfc697ec61534ab338d72851423d05d988ea02d6f094200ee3a4",
          "transactionIndex": "0x46",
          "logIndex": "0x65",
          "removed": false
        },
        {
          "address": "0x270e88f8683660553e8ba4eb2ad7c91a1710d769",
          "topics": [
            "0x4afcb4a87cdbd9974efdb92ee48bc8d7cd0ae4bf217004db3d080cbaee652ca7"
          ],
          "data": "0x000000000000000000000000000000000000000000000000000000006786e5d40000000000000000000000000000000000000000000000000004c318bd78ea760000000000000000000000000000000000000000000000000dc8289a697ead2d",
          "blockHash": "0xeece7d80c12b7818ab65e19547b40ee23533f84eb80fc37c8efd766ad0b37108",
          "blockNumber": "0x725451",
          "transactionHash": "0xe2c12e9e2f4ddfc697ec61534ab338d72851423d05d988ea02d6f094200ee3a4",
          "transactionIndex": "0x46",
          "logIndex": "0x66",
          "removed": false
        }
      ],
      "logsBloom": "0x00000000000000000000000000000000000000000000000000000000000000000000000000000000000000000000000020000000000000004000000000000000000000000000000000000008000000000000000000000000000000000000000000000000020000000000000000000800020000000000000000000010000000000000000000010000000000000000000000000000000000000000010000000000000000000000000000000000000000004000000000000000000000000000000000000002000000800000000000000000000000000000080000008000000020000000000000000000000000000000000000000000000000000000000000000000",
      "type": "0x2",
      "transactionHash": "0xe2c12e9e2f4ddfc697ec61534ab338d72851423d05d988ea02d6f094200ee3a4",
      "transactionIndex": "0x46",
      "blockHash": "0xeece7d80c12b7818ab65e19547b40ee23533f84eb80fc37c8efd766ad0b37108",
      "blockNumber": "0x725451",
      "gasUsed": "0xfb93",
      "effectiveGasPrice": "0x141ae4e18",
      "from": "0xc77f7fed3b5cc8249adc428c5f44c9063b9734b4",
      "to": "0x270e88f8683660553e8ba4eb2ad7c91a1710d769",
      "contractAddress": null
    }
  ],
  "libraries": [],
  "pending": [],
  "returns": {},
  "timestamp": 1736893909,
  "chain": 11155111,
  "commit": "51a374b"
}