{
  "transactions": [
    {
      "hash": "0xe2c56a2a138a0e2ed9b5cf3f863b714adf33c3e725eef8ff33f96f9a91c70085",
      "transactionType": "CALL",
      "contractName": null,
      "contractAddress": "0x8aafd3ede9adb0ff97c7aebce82a919afb1c8764",
      "function": "sell(uint256)",
      "arguments": [
        "2895369489877"
      ],
      "transaction": {
        "from": "0xc77f7fed3b5cc8249adc428c5f44c9063b9734b4",
        "to": "0x8aafd3ede9adb0ff97c7aebce82a919afb1c8764",
        "gas": "0x15daa",
        "value": "0x0",
        "input": "0xe4849b32000000000000000000000000000000000000000000000000000002a221784dd5",
        "nonce": "0x10a9",
        "chainId": "0xaa36a7"
      },
      "additionalContracts": [],
      "isFixedGasLimit": false
    }
  ],
  "receipts": [
    {
      "status": "0x1",
      "cumulativeGasUsed": "0xa41dd8",
      "logs": [
        {
          "address": "0x8aafd3ede9adb0ff97c7aebce82a919afb1c8764",
          "topics": [
            "0xddf252ad1be2c89b69c2b068fc378daa952ba7f163c4a11628f55a4df523b3ef",
            "0x000000000000000000000000c77f7fed3b5cc8249adc428c5f44c9063b9734b4",
            "0x0000000000000000000000000000000000000000000000000000000000000000"
          ],
          "data": "0x0000000000000000000000000000000000000000000000000000029cbcd9a546",
          "blockHash": "0xe1cd21890705f091185415a285d326243a06fc6ba430132a1473e36077931bd5",
          "blockNumber": "0x73173c",
          "transactionHash": "0xe2c56a2a138a0e2ed9b5cf3f863b714adf33c3e725eef8ff33f96f9a91c70085",
          "transactionIndex": "0x6a",
          "logIndex": "0xbc",
          "removed": false
        },
        {
          "address": "0x8aafd3ede9adb0ff97c7aebce82a919afb1c8764",
          "topics": [
            "0xddf252ad1be2c89b69c2b068fc378daa952ba7f163c4a11628f55a4df523b3ef",
            "0x000000000000000000000000c77f7fed3b5cc8249adc428c5f44c9063b9734b4",
            "0x000000000000000000000000c77f7fed3b5cc8249adc428c5f44c9063b9734b4"
          ],
          "data": "0x00000000000000000000000000000000000000000000000000000005649ea88f",
          "blockHash": "0xe1cd21890705f091185415a285d326243a06fc6ba430132a1473e36077931bd5",
          "blockNumber": "0x73173c",
          "transactionHash": "0xe2c56a2a138a0e2ed9b5cf3f863b714adf33c3e725eef8ff33f96f9a91c70085",
          "transactionIndex": "0x6a",
          "logIndex": "0xbd",
          "removed": false
        },
        {
          "address": "0x8aafd3ede9adb0ff97c7aebce82a919afb1c8764",
          "topics": [
            "0x4afcb4a87cdbd9974efdb92ee48bc8d7cd0ae4bf217004db3d080cbaee652ca7"
          ],
          "data": "0x00000000000000000000000000000000000000000000000000000000679013940000000000000000000000000000000000000000000000000004ff16468fa42500000000000000000000000000000000000000000000000000000000f2b53ca7",
          "blockHash": "0xe1cd21890705f091185415a285d326243a06fc6ba430132a1473e36077931bd5",
          "blockNumber": "0x73173c",
          "transactionHash": "0xe2c56a2a138a0e2ed9b5cf3f863b714adf33c3e725eef8ff33f96f9a91c70085",
          "transactionIndex": "0x6a",
          "logIndex": "0xbe",
          "removed": false
        }
      ],
      "logsBloom": "0x00000000000000000000000000000000000000000600000000000000000000000000000000000000000000000000000000000000000000004000000000000000000000000000004000000008000000000000000000000000000000000000000000000000020000000000000000000800020000000000000000000010000000000000000000000000000000000000000000000000000000000000010000000000000000000000000000000000000000004000000000000000000000000000000000000002000000800000000000000000000000000000080000000000000020000000000000000000000000000000000000000000000000000000000000000000",
      "type": "0x2",
      "transactionHash": "0xe2c56a2a138a0e2ed9b5cf3f863b714adf33c3e725eef8ff33f96f9a91c70085",
      "transactionIndex": "0x6a",
      "blockHash": "0xe1cd21890705f091185415a285d326243a06fc6ba430132a1473e36077931bd5",
      "blockNumber": "0x73173c",
      "gasUsed": "0xfd27",
      "effectiveGasPrice": "0x47b7448d",
      "from": "0xc77f7fed3b5cc8249adc428c5f44c9063b9734b4",
      "to": "0x8aafd3ede9adb0ff97c7aebce82a919afb1c8764",
      "contractAddress": null
    }
  ],
  "libraries": [],
  "pending": [],
  "returns": {},
  "timestamp": 1737495445,
  "chain": 11155111,
  "commit": "1d2fb70"
}