{
  "transactions": [
    {
      "hash": "0xaf60651087754e9246a4c4aedd4e52917021184b283dc4e733080438c5e446fd",
      "transactionType": "CALL",
      "contractName": null,
      "contractAddress": "0xbf4a322f1496e5c3d34a9bcdb4c60567b38c7de2",
      "function": "sell(uint256)",
      "arguments": [
        "982030889466717938355"
      ],
      "transaction": {
        "from": "0xc77f7fed3b5cc8249adc428c5f44c9063b9734b4",
        "to": "0xbf4a322f1496e5c3d34a9bcdb4c60567b38c7de2",
        "gas": "0x16fea",
        "value": "0x0",
        "input": "0xe4849b320000000000000000000000000000000000000000000000353c6a92f2849e22b3",
        "nonce": "0xb81",
        "chainId": "0xaa36a7"
      },
      "additionalContracts": [],
      "isFixedGasLimit": false
    }
  ],
  "receipts": [
    {
      "status": "0x1",
      "cumulativeGasUsed": "0xb20936",
      "logs": [
        {
          "address": "0xbf4a322f1496e5c3d34a9bcdb4c60567b38c7de2",
          "topics": [
            "0xddf252ad1be2c89b69c2b068fc378daa952ba7f163c4a11628f55a4df523b3ef",
            "0x000000000000000000000000c77f7fed3b5cc8249adc428c5f44c9063b9734b4",
            "0x0000000000000000000000000000000000000000000000000000000000000000"
          ],
          "data": "0x0000000000000000000000000000000000000000000000353c6a92f2849e22b3",
          "blockHash": "0x5c595e04b8de3e5c9a757e6d832b346655e5c36035bc2b56e54bf5593f5aadd8",
          "blockNumber": "0x725b90",
          "transactionHash": "0xaf60651087754e9246a4c4aedd4e52917021184b283dc4e733080438c5e446fd",
          "transactionIndex": "0x49",
          "logIndex": "0x52",
          "removed": false
        },
        {
          "address": "0xbf4a322f1496e5c3d34a9bcdb4c60567b38c7de2",
          "topics": [
            "0x4afcb4a87cdbd9974efdb92ee48bc8d7cd0ae4bf217004db3d080cbaee652ca7"
          ],
          "data": "0x0000000000000000000000000000000000000000000000000000000067873d1c000000000000000000000000000000000000000000000000000397ae7f3cd2790000000000000000000000000000000000000000000000000dc7e3e6c9c6bd61",
          "blockHash": "0x5c595e04b8de3e5c9a757e6d832b346655e5c36035bc2b56e54bf5593f5aadd8",
          "blockNumber": "0x725b90",
          "transactionHash": "0xaf60651087754e9246a4c4aedd4e52917021184b283dc4e733080438c5e446fd",
          "transactionIndex": "0x49",
          "logIndex": "0x53",
          "removed": false
        }
      ],
      "logsBloom": "0x00000000000000000000000000000000000000000000000000000000000000000000000000000000000000000000000000000000000000004000000000000000000000000000000000000008000000000000001000000000000000000000000000000000020000000000000000000800020000000000000000000010000000000000000000000000000000000000000000000000000008000000010000000000000000000000000000000000000000004000000000000000000000000000000000000002000000800000000000001000000000000000080000000000000020000000000000000000000000000000000000000000000000000000000000000000",
      "type": "0x2",
      "transactionHash": "0xaf60651087754e9246a4c4aedd4e52917021184b283dc4e733080438c5e446fd",
      "transactionIndex": "0x49",
      "blockHash": "0x5c595e04b8de3e5c9a757e6d832b346655e5c36035bc2b56e54bf5593f5aadd8",
      "blockNumber": "0x725b90",
      "gasUsed": "0xfb91",
      "effectiveGasPrice": "0x448df5fc",
      "from": "0xc77f7fed3b5cc8249adc428c5f44c9063b9734b4",
      "to": "0xbf4a322f1496e5c3d34a9bcdb4c60567b38c7de2",
      "contractAddress": null
    }
  ],
  "libraries": [],
  "pending": [],
  "returns": {},
  "timestamp": 1736916253,
  "chain": 11155111,
  "commit": "51a374b"
}