{
  "transactions": [
    {
      "hash": "0x4d858c75ae292c9d850153e085d2d7804ce2de45d4077bd8a1eb445e3de246d0",
      "transactionType": "CALL",
      "contractName": null,
      "contractAddress": "0x8aafd3ede9adb0ff97c7aebce82a919afb1c8764",
      "function": "sell(uint256)",
      "arguments": [
        "3044903809550"
      ],
      "transaction": {
        "from": "0xc77f7fed3b5cc8249adc428c5f44c9063b9734b4",
        "to": "0x8aafd3ede9adb0ff97c7aebce82a919afb1c8764",
        "gas": "0x15daa",
        "value": "0x0",
        "input": "0xe4849b32000000000000000000000000000000000000000000000000000002c4f268f20e",
        "nonce": "0xf25",
        "chainId": "0xaa36a7"
      },
      "additionalContracts": [],
      "isFixedGasLimit": false
    }
  ],
  "receipts": [
    {
      "status": "0x1",
      "cumulativeGasUsed": "0x77e08e",
      "logs": [
        {
          "address": "0x8aafd3ede9adb0ff97c7aebce82a919afb1c8764",
          "topics": [
            "0xddf252ad1be2c89b69c2b068fc378daa952ba7f163c4a11628f55a4df523b3ef",
            "0x000000000000000000000000c77f7fed3b5cc8249adc428c5f44c9063b9734b4",
            "0x0000000000000000000000000000000000000000000000000000000000000000"
          ],
          "data": "0x000000000000000000000000000000000000000000000000000002bf467c9602",
          "blockHash": "0x45f3a4abafad7bb25c89793913cbdecc0c5001c0b3a3cb7240407ac20196f9dc",
          "blockNumber": "0x731577",
          "transactionHash": "0x4d858c75ae292c9d850153e085d2d7804ce2de45d4077bd8a1eb445e3de246d0",
          "transactionIndex": "0x6a",
          "logIndex": "0x87",
          "removed": false
        },
        {
          "address": "0x8aafd3ede9adb0ff97c7aebce82a919afb1c8764",
          "topics": [
            "0xddf252ad1be2c89b69c2b068fc378daa952ba7f163c4a11628f55a4df523b3ef",
            "0x000000000000000000000000c77f7fed3b5cc8249adc428c5f44c9063b9734b4",
            "0x000000000000000000000000c77f7fed3b5cc8249adc428c5f44c9063b9734b4"
          ],
          "data": "0x00000000000000000000000000000000000000000000000000000005abec5c0c",
          "blockHash": "0x45f3a4abafad7bb25c89793913cbdecc0c5001c0b3a3cb7240407ac20196f9dc",
          "blockNumber": "0x731577",
          "transactionHash": "0x4d858c75ae292c9d850153e085d2d7804ce2de45d4077bd8a1eb445e3de246d0",
          "transactionIndex": "0x6a",
          "logIndex": "0x88",
          "removed": false
        },
        {
          "address": "0x8aafd3ede9adb0ff97c7aebce82a919afb1c8764",
          "topics": [
            "0x4afcb4a87cdbd9974efdb92ee48bc8d7cd0ae4bf217004db3d080cbaee652ca7"
          ],
          "data": "0x00000000000000000000000000000000000000000000000000000000678ffe400000000000000000000000000000000000000000000000000004bf37e45fcab900000000000000000000000000000000000000000000000000000000f27f706b",
          "blockHash": "0x45f3a4abafad7bb25c89793913cbdecc0c5001c0b3a3cb7240407ac20196f9dc",
          "blockNumber": "0x731577",
          "transactionHash": "0x4d858c75ae292c9d850153e085d2d7804ce2de45d4077bd8a1eb445e3de246d0",
          "transactionIndex": "0x6a",
          "logIndex": "0x89",
          "removed": false
        }
      ],
      "logsBloom": "0x00000000000000000000000000000000000000000600000000000000000000000000000000000000000000000000000000000000000000004000000000000000000000000000004000000008000000000000000000000000000000000000000000000000020000000000000000000800020000000000000000000010000000000000000000000000000000000000000000000000000000000000010000000000000000000000000000000000000000004000000000000000000000000000000000000002000000800000000000000000000000000000080000000000000020000000000000000000000000000000000000000000000000000000000000000000",
      "type": "0x2",
      "transactionHash": "0x4d858c75ae292c9d850153e085d2d7804ce2de45d4077bd8a1eb445e3de246d0",
      "transactionIndex": "0x6a",
      "blockHash": "0x45f3a4abafad7bb25c89793913cbdecc0c5001c0b3a3cb7240407ac20196f9dc",
      "blockNumber": "0x731577",
      "gasUsed": "0xfd27",
      "effectiveGasPrice": "0x83f92f1f",
      "from": "0xc77f7fed3b5cc8249adc428c5f44c9063b9734b4",
      "to": "0x8aafd3ede9adb0ff97c7aebce82a919afb1c8764",
      "contractAddress": null
    }
  ],
  "libraries": [],
  "pending": [],
  "returns": {},
  "timestamp": 1737489986,
  "chain": 11155111,
  "commit": "1d2fb70"
}