{
  "transactions": [
    {
      "hash": "0x0fdf7e73e7ccb574ae709b2f411d0109a45315c26f62e252c3e8e90875b8bc52",
      "transactionType": "CALL",
      "contractName": null,
      "contractAddress": "0x8aafd3ede9adb0ff97c7aebce82a919afb1c8764",
      "function": "sell(uint256)",
      "arguments": [
        "218162769412969223389"
      ],
      "transaction": {
        "from": "0xc77f7fed3b5cc8249adc428c5f44c9063b9734b4",
        "to": "0x8aafd3ede9adb0ff97c7aebce82a919afb1c8764",
        "gas": "0x17270",
        "value": "0x0",
        "input": "0xe4849b3200000000000000000000000000000000000000000000000bd39ddae7bb7c54dd",
        "nonce": "0x14b7",
        "chainId": "0xaa36a7"
      },
      "additionalContracts": [],
      "isFixedGasLimit": false
    }
  ],
  "receipts": [
    {
      "status": "0x1",
      "cumulativeGasUsed": "0xcf90b9",
      "logs": [
        {
          "address": "0x8aafd3ede9adb0ff97c7aebce82a919afb1c8764",
          "topics": [
            "0xddf252ad1be2c89b69c2b068fc378daa952ba7f163c4a11628f55a4df523b3ef",
            "0x000000000000000000000000c77f7fed3b5cc8249adc428c5f44c9063b9734b4",
            "0x0000000000000000000000000000000000000000000000000000000000000000"
          ],
          "data": "0x00000000000000000000000000000000000000000000000bbb654bd78ae1bca2",
          "blockHash": "0x5c4c87e7c3f34bdb4b9303a7696f23fda3c9387f79a85f5de71cfc4b97c52239",
          "blockNumber": "0x731c11",
          "transactionHash": "0x0fdf7e73e7ccb574ae709b2f411d0109a45315c26f62e252c3e8e90875b8bc52",
          "transactionIndex": "0x7f",
          "logIndex": "0xe3",
          "removed": false
        },
        {
          "address": "0x8aafd3ede9adb0ff97c7aebce82a919afb1c8764",
          "topics": [
            "0xddf252ad1be2c89b69c2b068fc378daa952ba7f163c4a11628f55a4df523b3ef",
            "0x000000000000000000000000c77f7fed3b5cc8249adc428c5f44c9063b9734b4",
            "0x000000000000000000000000c77f7fed3b5cc8249adc428c5f44c9063b9734b4"
          ],
          "data": "0x00000000000000000000000000000000000000000000000018388f10309a983b",
          "blockHash": "0x5c4c87e7c3f34bdb4b9303a7696f23fda3c9387f79a85f5de71cfc4b97c52239",
          "blockNumber": "0x731c11",
          "transactionHash": "0x0fdf7e73e7ccb574ae709b2f411d0109a45315c26f62e252c3e8e90875b8bc52",
          "transactionIndex": "0x7f",
          "logIndex": "0xe4",
          "removed": false
        },
        {
          "address": "0x8aafd3ede9adb0ff97c7aebce82a919afb1c8764",
          "topics": [
            "0x4afcb4a87cdbd9974efdb92ee48bc8d7cd0ae4bf217004db3d080cbaee652ca7"
          ],
          "data": "0x0000000000000000000000000000000000000000000000000000000067904da800000000000000000000000000000000000000000000000000104606993364ab0000000000000000000000000000000000000000000000000dcd55b060a0db58",
          "blockHash": "0x5c4c87e7c3f34bdb4b9303a7696f23fda3c9387f79a85f5de71cfc4b97c52239",
          "blockNumber": "0x731c11",
          "transactionHash": "0x0fdf7e73e7ccb574ae709b2f411d0109a45315c26f62e252c3e8e90875b8bc52",
          "transactionIndex": "0x7f",
          "logIndex": "0xe5",
          "removed": false
        }
      ],
      "logsBloom": "0x00000000000000000000000000000000000000000600000000000000000000000000000000000000000000000000000000000000000000004000000000000000000000000000004000000008000000000000000000000000000000000000000000000000020000000000000000000800020000000000000000000010000000000000000000000000000000000000000000000000000000000000010000000000000000000000000000000000000000004000000000000000000000000000000000000002000000800000000000000000000000000000080000000000000020000000000000000000000000000000000000000000000000000000000000000000",
      "type": "0x2",
      "transactionHash": "0x0fdf7e73e7ccb574ae709b2f411d0109a45315c26f62e252c3e8e90875b8bc52",
      "transactionIndex": "0x7f",
      "blockHash": "0x5c4c87e7c3f34bdb4b9303a7696f23fda3c9387f79a85f5de71cfc4b97c52239",
      "blockNumber": "0x731c11",
      "gasUsed": "0xfd4b",
      "effectiveGasPrice": "0xf3c12165",
      "from": "0xc77f7fed3b5cc8249adc428c5f44c9063b9734b4",
      "to": "0x8aafd3ede9adb0ff97c7aebce82a919afb1c8764",
      "contractAddress": null
    }
  ],
  "libraries": [],
  "pending": [],
  "returns": {},
  "timestamp": 1737510312,
  "chain": 11155111,
  "commit": "1d2fb70"
}