{
  "transactions": [
    {
      "hash": "0xfdf468b98dc67880d4bde59168d73f14bb87273e17642e9887c9e067897a2494",
      "transactionType": "CALL",
      "contractName": null,
      "contractAddress": "0x270e88f8683660553e8ba4eb2ad7c91a1710d769",
      "function": "buy(address)",
      "arguments": [
        "0xC77f7fed3b5Cc8249aDc428c5F44C9063B9734b4"
      ],
      "transaction": {
        "from": "0xc77f7fed3b5cc8249adc428c5f44c9063b9734b4",
        "to": "0x270e88f8683660553e8ba4eb2ad7c91a1710d769",
        "gas": "0x1b30c",
        "value": "0xde0b6b3a7640000",
        "input": "0xf088d547000000000000000000000000c77f7fed3b5cc8249adc428c5f44c9063b9734b4",
        "nonce": "0x512",
        "chainId": "0xaa36a7"
      },
      "additionalContracts": [],
      "isFixedGasLimit": false
    }
  ],
  "receipts": [
    {
      "status": "0x1",
      "cumulativeGasUsed": "0x892b80",
      "logs": [
        {
          "address": "0x270e88f8683660553e8ba4eb2ad7c91a1710d769",
          "topics": [
            "0xddf252ad1be2c89b69c2b068fc378daa952ba7f163c4a11628f55a4df523b3ef",
            "0x0000000000000000000000000000000000000000000000000000000000000000",
            "0x000000000000000000000000c77f7fed3b5cc8249adc428c5f44c9063b9734b4"
          ],
          "data": "0x0000000000000000000000000000000000000000000000352359be946a66789f",
          "blockHash": "0x3449764e7bff278a4284b40ef31944345dbfacdf2bfe03b4ddee52f9a866a69a",
          "blockNumber": "0x7251a9",
          "transactionHash": "0xfdf468b98dc67880d4bde59168d73f14bb87273e17642e9887c9e067897a2494",
          "transactionIndex": "0x4a",
          "logIndex": "0x9a",
          "removed": false
        },
        {
          "address": "0x270e88f8683660553e8ba4eb2ad7c91a1710d769",
          "topics": [
            "0xddf252ad1be2c89b69c2b068fc378daa952ba7f163c4a11628f55a4df523b3ef",
            "0x0000000000000000000000000000000000000000000000000000000000000000",
            "0x000000000000000000000000c77f7fed3b5cc8249adc428c5f44c9063b9734b4"
          ],
          "data": "0x000000000000000000000000000000000000000000000000294377398880e7a6",
          "blockHash": "0x3449764e7bff278a4284b40ef31944345dbfacdf2bfe03b4ddee52f9a866a69a",
          "blockNumber": "0x7251a9",
          "transactionHash": "0xfdf468b98dc67880d4bde59168d73f14bb87273e17642e9887c9e067897a2494",
          "transactionIndex": "0x4a",
          "logIndex": "0x9b",
          "removed": false
        },
        {
          "address": "0x270e88f8683660553e8ba4eb2ad7c91a1710d769",
          "topics": [
            "0x4afcb4a87cdbd9974efdb92ee48bc8d7cd0ae4bf217004db3d080cbaee652ca7"
          ],
          "data": "0x000000000000000000000000000000000000000000000000000000006786c5d0000000000000000000000000000000000000000000000000000396ab42b62c2e0000000000000000000000000000000000000000000000000de0b6b3a7640000",
          "blockHash": "0x3449764e7bff278a4284b40ef31944345dbfacdf2bfe03b4ddee52f9a866a69a",
          "blockNumber": "0x7251a9",
          "transactionHash": "0xfdf468b98dc67880d4bde59168d73f14bb87273e17642e9887c9e067897a2494",
          "transactionIndex": "0x4a",
          "logIndex": "0x9c",
          "removed": false
        }
      ],
      "logsBloom": "0x00000000000000000000000000000000000000000000000000000000000000000000000000000000000000000000000020000000000000004000000000000000000000000000000000000008000000000000000000000000000000000000000000000000020000000000000000000800020000000000000000000010000000000000000000010000000000000000000000000000000000000000010000000000000000000000000000000000000000004000000000000000000000000000000000000002000000800000000000000000000000000000080000008000000020000000000000000000000000000000000000000000000000000000000000000000",
      "type": "0x2",
      "transactionHash": "0xfdf468b98dc67880d4bde59168d73f14bb87273e17642e9887c9e067897a2494",
      "transactionIndex": "0x4a",
      "blockHash": "0x3449764e7bff278a4284b40ef31944345dbfacdf2bfe03b4ddee52f9a866a69a",
      "blockNumber": "0x7251a9",
      "gasUsed": "0x13af8",
      "effectiveGasPrice": "0x43624cf6e",
      "from": "0xc77f7fed3b5cc8249adc428c5f44c9063b9734b4",
      "to": "0x270e88f8683660553e8ba4eb2ad7c91a1710d769",
      "contractAddress": null
    }
  ],
  "libraries": [],
  "pending": [],
  "returns": {},
  "timestamp": 1736885713,
  "chain": 11155111,
  "commit": "51a374b"
}