{
  "transactions": [
    {
      "hash": "0x2cfcb34c67de1d7a66978be5259d4354756ee15bf90cd4cedfd378df39d3a8b0",
      "transactionType": "CALL",
      "contractName": null,
      "contractAddress": "0xbf4a322f1496e5c3d34a9bcdb4c60567b38c7de2",
      "function": "sell(uint256)",
      "arguments": [
        "988763921400059774636"
      ],
      "transaction": {
        "from": "0xc77f7fed3b5cc8249adc428c5f44c9063b9734b4",
        "to": "0xbf4a322f1496e5c3d34a9bcdb4c60567b38c7de2",
        "gas": "0x16fea",
        "value": "0x0",
        "input": "0xe4849b3200000000000000000000000000000000000000000000003599db1bd14cd1c6ac",
        "nonce": "0x991",
        "chainId": "0xaa36a7"
      },
      "additionalContracts": [],
      "isFixedGasLimit": false
    }
  ],
  "receipts": [
    {
      "status": "0x1",
      "cumulativeGasUsed": "0x1367392",
      "logs": [
        {
          "address": "0xbf4a322f1496e5c3d34a9bcdb4c60567b38c7de2",
          "topics": [
            "0xddf252ad1be2c89b69c2b068fc378daa952ba7f163c4a11628f55a4df523b3ef",
            "0x000000000000000000000000c77f7fed3b5cc8249adc428c5f44c9063b9734b4",
            "0x0000000000000000000000000000000000000000000000000000000000000000"
          ],
          "data": "0x00000000000000000000000000000000000000000000003599db1bd14cd1c6ac",
          "blockHash": "0x543ed2224390155330988a2e11b7cd418adff9d0cced961d75bb3d26c6df8cf3",
          "blockNumber": "0x725936",
          "transactionHash": "0x2cfcb34c67de1d7a66978be5259d4354756ee15bf90cd4cedfd378df39d3a8b0",
          "transactionIndex": "0x96",
          "logIndex": "0xb2",
          "removed": false
        },
        {
          "address": "0xbf4a322f1496e5c3d34a9bcdb4c60567b38c7de2",
          "topics": [
            "0x4afcb4a87cdbd9974efdb92ee48bc8d7cd0ae4bf217004db3d080cbaee652ca7"
          ],
          "data": "0x00000000000000000000000000000000000000000000000000000000678720b40000000000000000000000000000000000000000000000000003916b4fe571590000000000000000000000000000000000000000000000000dc7e3f67145162a",
          "blockHash": "0x543ed2224390155330988a2e11b7cd418adff9d0cced961d75bb3d26c6df8cf3",
          "blockNumber": "0x725936",
          "transactionHash": "0x2cfcb34c67de1d7a66978be5259d4354756ee15bf90cd4cedfd378df39d3a8b0",
          "transactionIndex": "0x96",
          "logIndex": "0xb3",
          "removed": false
        }
      ],
      "logsBloom": "0x00000000000000000000000000000000000000000000000000000000000000000000000000000000000000000000000000000000000000004000000000000000000000000000000000000008000000000000001000000000000000000000000000000000020000000000000000000800020000000000000000000010000000000000000000000000000000000000000000000000000008000000010000000000000000000000000000000000000000004000000000000000000000000000000000000002000000800000000000001000000000000000080000000000000020000000000000000000000000000000000000000000000000000000000000000000",
      "type": "0x2",
      "transactionHash": "0x2cfcb34c67de1d7a66978be5259d4354756ee15bf90cd4cedfd378df39d3a8b0",
      "transactionIndex": "0x96",
      "blockHash": "0x543ed2224390155330988a2e11b7cd418adff9d0cced961d75bb3d26c6df8cf3",
      "blockNumber": "0x725936",
      "gasUsed": "0xfb91",
      "effectiveGasPrice": "0x1e6624816",
      "from": "0xc77f7fed3b5cc8249adc428c5f44c9063b9734b4",
      "to": "0xbf4a322f1496e5c3d34a9bcdb4c60567b38c7de2",
      "contractAddress": null
    }
  ],
  "libraries": [],
  "pending": [],
  "returns": {},
  "timestamp": 1736908984,
  "chain": 11155111,
  "commit": "51a374b"
}