{
  "transactions": [
    {
      "hash": "0x136f5b7ba5d3eaf3abbcfb720242a0eae0476e35479642905902bdeec3a42ae2",
      "transactionType": "CALL",
      "contractName": null,
      "contractAddress": "0x270e88f8683660553e8ba4eb2ad7c91a1710d769",
      "function": "buy(address)",
      "arguments": [
        "0xC77f7fed3b5Cc8249aDc428c5F44C9063B9734b4"
      ],
      "transaction": {
        "from": "0xc77f7fed3b5cc8249adc428c5f44c9063b9734b4",
        "to": "0x270e88f8683660553e8ba4eb2ad7c91a1710d769",
        "gas": "0x1b30c",
        "value": "0xde0b6b3a7640000",
        "input": "0xf088d547000000000000000000000000c77f7fed3b5cc8249adc428c5f44c9063b9734b4",
        "nonce": "0x693",
        "chainId": "0xaa36a7"
      },
      "additionalContracts": [],
      "isFixedGasLimit": false
    }
  ],
  "receipts": [
    {
      "status": "0x1",
      "cumulativeGasUsed": "0x9206a3",
      "logs": [
        {
          "address": "0x270e88f8683660553e8ba4eb2ad7c91a1710d769",
          "topics": [
            "0xddf252ad1be2c89b69c2b068fc378daa952ba7f163c4a11628f55a4df523b3ef",
            "0x0000000000000000000000000000000000000000000000000000000000000000",
            "0x000000000000000000000000c77f7fed3b5cc8249adc428c5f44c9063b9734b4"
          ],
          "data": "0x000000000000000000000000000000000000000000000028d02d8d9534a8995e",
          "blockHash": "0xb267225c8f3ea761387a90f5aff23dee6034db507ec440f804ddbf61cab342d6",
          "blockNumber": "0x725397",
          "transactionHash": "0x136f5b7ba5d3eaf3abbcfb720242a0eae0476e35479642905902bdeec3a42ae2",
          "transactionIndex": "0x3f",
          "logIndex": "0x7e",
          "removed": false
        },
        {
          "address": "0x270e88f8683660553e8ba4eb2ad7c91a1710d769",
          "topics": [
            "0xddf252ad1be2c89b69c2b068fc378daa952ba7f163c4a11628f55a4df523b3ef",
            "0x0000000000000000000000000000000000000000000000000000000000000000",
            "0x000000000000000000000000c77f7fed3b5cc8249adc428c5f44c9063b9734b4"
          ],
          "data": "0x0000000000000000000000000000000000000000000000001fb15dd6b8bdec72",
          "blockHash": "0xb267225c8f3ea761387a90f5aff23dee6034db507ec440f804ddbf61cab342d6",
          "blockNumber": "0x725397",
          "transactionHash": "0x136f5b7ba5d3eaf3abbcfb720242a0eae0476e35479642905902bdeec3a42ae2",
          "transactionIndex": "0x3f",
          "logIndex": "0x7f",
          "removed": false
        },
        {
          "address": "0x270e88f8683660553e8ba4eb2ad7c91a1710d769",
          "topics": [
            "0x4afcb4a87cdbd9974efdb92ee48bc8d7cd0ae4bf217004db3d080cbaee652ca7"
          ],
          "data": "0x000000000000000000000000000000000000000000000000000000006786dd1c0000000000000000000000000000000000000000000000000004ac0f7190f3790000000000000000000000000000000000000000000000000de0b6b3a7640000",
          "blockHash": "0xb267225c8f3ea761387a90f5aff23dee6034db507ec440f804ddbf61cab342d6",
          "blockNumber": "0x725397",
          "transactionHash": "0x136f5b7ba5d3eaf3abbcfb720242a0eae0476e35479642905902bdeec3a42ae2",
          "transactionIndex": "0x3f",
          "logIndex": "0x80",
          "removed": false
        }
      ],
      "logsBloom": "0x00000000000000000000000000000000000000000000000000000000000000000000000000000000000000000000000020000000000000004000000000000000000000000000000000000008000000000000000000000000000000000000000000000000020000000000000000000800020000000000000000000010000000000000000000010000000000000000000000000000000000000000010000000000000000000000000000000000000000004000000000000000000000000000000000000002000000800000000000000000000000000000080000008000000020000000000000000000000000000000000000000000000000000000000000000000",
      "type": "0x2",
      "transactionHash": "0x136f5b7ba5d3eaf3abbcfb720242a0eae0476e35479642905902bdeec3a42ae2",
      "transactionIndex": "0x3f",
      "blockHash": "0xb267225c8f3ea761387a90f5aff23dee6034db507ec440f804ddbf61cab342d6",
      "blockNumber": "0x725397",
      "gasUsed": "0x13af8",
      "effectiveGasPrice": "0x1f8b47e94",
      "from": "0xc77f7fed3b5cc8249adc428c5f44c9063b9734b4",
      "to": "0x270e88f8683660553e8ba4eb2ad7c91a1710d769",
      "contractAddress": null
    }
  ],
  "libraries": [],
  "pending": [],
  "returns": {},
  "timestamp": 1736891677,
  "chain": 11155111,
  "commit": "51a374b"
}