{
  "transactions": [
    {
      "hash": "0x636dcc36941f1b6691b97eb33b7dfef5d9dc0f584a107cb2088bf8c721a5cf20",
      "transactionType": "CALL",
      "contractName": null,
      "contractAddress": "0x5eb9cc76c3506942c1c0ead70e877dd5e4f00cb0",
      "function": "buy(address)",
      "arguments": [
        "0xC77f7fed3b5Cc8249aDc428c5F44C9063B9734b4"
      ],
      "transaction": {
        "from": "0xc77f7fed3b5cc8249adc428c5f44c9063b9734b4",
        "to": "0x5eb9cc76c3506942c1c0ead70e877dd5e4f00cb0",
        "gas": "0x1b30c",
        "value": "0xde0b6b3a7640000",
        "input": "0xf088d547000000000000000000000000c77f7fed3b5cc8249adc428c5f44c9063b9734b4",
        "nonce": "0x44a",
        "chainId": "0xaa36a7"
      },
      "additionalContracts": [],
      "isFixedGasLimit": false
    }
  ],
  "receipts": [
    {
      "status": "0x1",
      "cumulativeGasUsed": "0xa7dfd5",
      "logs": [
        {
          "address": "0x5eb9cc76c3506942c1c0ead70e877dd5e4f00cb0",
          "topics": [
            "0xddf252ad1be2c89b69c2b068fc378daa952ba7f163c4a11628f55a4df523b3ef",
            "0x0000000000000000000000000000000000000000000000000000000000000000",
            "0x000000000000000000000000c77f7fed3b5cc8249adc428c5f44c9063b9734b4"
          ],
          "data": "0x00000000000000000000000000000000000000000000003574d874166d98ab4a",
          "blockHash": "0x033a8ff3b23493bb18b1b64788dbd07290e102b6279e6df519365b9bf3dde2ab",
          "blockNumber": "0x72506b",
          "transactionHash": "0x636dcc36941f1b6691b97eb33b7dfef5d9dc0f584a107cb2088bf8c721a5cf20",
          "transactionIndex": "0x5a",
          "logIndex": "0xe8",
          "removed": false
        },
        {
          "address": "0x5eb9cc76c3506942c1c0ead70e877dd5e4f00cb0",
          "topics": [
            "0xddf252ad1be2c89b69c2b068fc378daa952ba7f163c4a11628f55a4df523b3ef",
            "0x0000000000000000000000000000000000000000000000000000000000000000",
            "0x000000000000000000000000c77f7fed3b5cc8249adc428c5f44c9063b9734b4"
          ],
          "data": "0x0000000000000000000000000000000000000000000000002982bfd475376329",
          "blockHash": "0x033a8ff3b23493bb18b1b64788dbd07290e102b6279e6df519365b9bf3dde2ab",
          "blockNumber": "0x72506b",
          "transactionHash": "0x636dcc36941f1b6691b97eb33b7dfef5d9dc0f584a107cb2088bf8c721a5cf20",
          "transactionIndex": "0x5a",
          "logIndex": "0xe9",
          "removed": false
        },
        {
          "address": "0x5eb9cc76c3506942c1c0ead70e877dd5e4f00cb0",
          "topics": [
            "0x4afcb4a87cdbd9974efdb92ee48bc8d7cd0ae4bf217004db3d080cbaee652ca7"
          ],
          "data": "0x000000000000000000000000000000000000000000000000000000006786b6d00000000000000000000000000000000000000000000000000003911835fea3c30000000000000000000000000000000000000000000000000de0b6b3a7640000",
          "blockHash": "0x033a8ff3b23493bb18b1b64788dbd07290e102b6279e6df519365b9bf3dde2ab",
          "blockNumber": "0x72506b",
          "transactionHash": "0x636dcc36941f1b6691b97eb33b7dfef5d9dc0f584a107cb2088bf8c721a5cf20",
          "transactionIndex": "0x5a",
          "logIndex": "0xea",
          "removed": false
        }
      ],
      "logsBloom": "0x00000000000000000000000000000000000000000000000000000000000000000000000000000000000000000000000000000000000000004000000000000000000000000000000000000008000000000000000000000000000000000000000000000000020000000000000004000800020000000000000000000010000000000000000000000000000000000000000000000000000000000000010000000000000000000000000000000000000000004000000000000000000000000000020000000002000000800000008000000000000000000000080000000000000020000000000000000000000000000000000000000000000000000000000000000000",
      "type": "0x2",
      "transactionHash": "0x636dcc36941f1b6691b97eb33b7dfef5d9dc0f584a107cb2088bf8c721a5cf20",
      "transactionIndex": "0x5a",
      "blockHash": "0x033a8ff3b23493bb18b1b64788dbd07290e102b6279e6df519365b9bf3dde2ab",
      "blockNumber": "0x72506b",
      "gasUsed": "0x13af8",
      "effectiveGasPrice": "0x249d34cc6",
      "from": "0xc77f7fed3b5cc8249adc428c5f44c9063b9734b4",
      "to": "0x5eb9cc76c3506942c1c0ead70e877dd5e4f00cb0",
      "contractAddress": null
    }
  ],
  "libraries": [],
  "pending": [],
  "returns": {},
  "timestamp": 1736881873,
  "chain": 11155111,
  "commit": "51a374b"
}