{
  "transactions": [
    {
      "hash": "0xb6497307520267fa19a5e2168951ac8c0c951a5db9561dda1d3a8cdc7007a403",
      "transactionType": "CALL",
      "contractName": null,
      "contractAddress": "0x8aafd3ede9adb0ff97c7aebce82a919afb1c8764",
      "function": "sell(uint256)",
      "arguments": [
        "1307249530344906093"
      ],
      "transaction": {
        "from": "0xc77f7fed3b5cc8249adc428c5f44c9063b9734b4",
        "to": "0x8aafd3ede9adb0ff97c7aebce82a919afb1c8764",
        "gas": "0x15dca",
        "value": "0x0",
        "input": "0xe4849b320000000000000000000000000000000000000000000000001224488591011d6d",
        "nonce": "0x168c",
        "chainId": "0xaa36a7"
      },
      "additionalContracts": [],
      "isFixedGasLimit": false
    }
  ],
  "receipts": [
    {
      "status": "0x1",
      "cumulativeGasUsed": "0xcdc784",
      "logs": [
        {
          "address": "0x8aafd3ede9adb0ff97c7aebce82a919afb1c8764",
          "topics": [
            "0xddf252ad1be2c89b69c2b068fc378daa952ba7f163c4a11628f55a4df523b3ef",
            "0x000000000000000000000000c77f7fed3b5cc8249adc428c5f44c9063b9734b4",
            "0x0000000000000000000000000000000000000000000000000000000000000000"
          ],
          "data": "0x00000000000000000000000000000000000000000000000011ff210791e46f1d",
          "blockHash": "0x460fc57e5303553c16127ee26fb033b9ba7bb0632b676888e683f3c5f106cd92",
          "blockNumber": "0x731e41",
          "transactionHash": "0xb6497307520267fa19a5e2168951ac8c0c951a5db9561dda1d3a8cdc7007a403",
          "transactionIndex": "0x78",
          "logIndex": "0xb4",
          "removed": false
        },
        {
          "address": "0x8aafd3ede9adb0ff97c7aebce82a919afb1c8764",
          "topics": [
            "0xddf252ad1be2c89b69c2b068fc378daa952ba7f163c4a11628f55a4df523b3ef",
            "0x000000000000000000000000c77f7fed3b5cc8249adc428c5f44c9063b9734b4",
            "0x000000000000000000000000c77f7fed3b5cc8249adc428c5f44c9063b9734b4"
          ],
          "data": "0x0000000000000000000000000000000000000000000000000025277dff1cae50",
          "blockHash": "0x460fc57e5303553c16127ee26fb033b9ba7bb0632b676888e683f3c5f106cd92",
          "blockNumber": "0x731e41",
          "transactionHash": "0xb6497307520267fa19a5e2168951ac8c0c951a5db9561dda1d3a8cdc7007a403",
          "transactionIndex": "0x78",
          "logIndex": "0xb5",
          "removed": false
        },
        {
          "address": "0x8aafd3ede9adb0ff97c7aebce82a919afb1c8764",
          "topics": [
            "0x4afcb4a87cdbd9974efdb92ee48bc8d7cd0ae4bf217004db3d080cbaee652ca7"
          ],
          "data": "0x00000000000000000000000000000000000000000000000000000000679067f40000000000000000000000000000000000000000000000000015b1c36b545500000000000000000000000000000000000000000000000000001c5bf2084ca958",
          "blockHash": "0x460fc57e5303553c16127ee26fb033b9ba7bb0632b676888e683f3c5f106cd92",
          "blockNumber": "0x731e41",
          "transactionHash": "0xb6497307520267fa19a5e2168951ac8c0c951a5db9561dda1d3a8cdc7007a403",
          "transactionIndex": "0x78",
          "logIndex": "0xb6",
          "removed": false
        }
      ],
      "logsBloom": "0x00000000000000000000000000000000000000000600000000000000000000000000000000000000000000000000000000000000000000004000000000000000000000000000004000000008000000000000000000000000000000000000000000000000020000000000000000000800020000000000000000000010000000000000000000000000000000000000000000000000000000000000010000000000000000000000000000000000000000004000000000000000000000000000000000000002000000800000000000000000000000000000080000000000000020000000000000000000000000000000000000000000000000000000000000000000",
      "type": "0x2",
      "transactionHash": "0xb6497307520267fa19a5e2168951ac8c0c951a5db9561dda1d3a8cdc7007a403",
      "transactionIndex": "0x78",
      "blockHash": "0x460fc57e5303553c16127ee26fb033b9ba7bb0632b676888e683f3c5f106cd92",
      "blockNumber": "0x731e41",
      "gasUsed": "0xfd3f",
      "effectiveGasPrice": "0x474d7b2e",
      "from": "0xc77f7fed3b5cc8249adc428c5f44c9063b9734b4",
      "to": "0x8aafd3ede9adb0ff97c7aebce82a919afb1c8764",
      "contractAddress": null
    }
  ],
  "libraries": [],
  "pending": [],
  "returns": {},
  "timestamp": 1737517045,
  "chain": 11155111,
  "commit": "1d2fb70"
}