{
  "transactions": [
    {
      "hash": "0x54d831a2c118d2e34599ae2410d45aa1ac3b053627a531814d537f9acc22ab02",
      "transactionType": "CALL",
      "contractName": null,
      "contractAddress": "0x8aafd3ede9adb0ff97c7aebce82a919afb1c8764",
      "function": "sell(uint256)",
      "arguments": [
        "1177559200365"
      ],
      "transaction": {
        "from": "0xc77f7fed3b5cc8249adc428c5f44c9063b9734b4",
        "to": "0x8aafd3ede9adb0ff97c7aebce82a919afb1c8764",
        "gas": "0x15daa",
        "value": "0x0",
        "input": "0xe4849b32000000000000000000000000000000000000000000000000000001122bff726d",
        "nonce": "0x1365",
        "chainId": "0xaa36a7"
      },
      "additionalContracts": [],
      "isFixedGasLimit": false
    }
  ],
  "receipts": [
    {
      "status": "0x1",
      "cumulativeGasUsed": "0x998bd8",
      "logs": [
        {
          "address": "0x8aafd3ede9adb0ff97c7aebce82a919afb1c8764",
          "topics": [
            "0xddf252ad1be2c89b69c2b068fc378daa952ba7f163c4a11628f55a4df523b3ef",
            "0x000000000000000000000000c77f7fed3b5cc8249adc428c5f44c9063b9734b4",
            "0x0000000000000000000000000000000000000000000000000000000000000000"
          ],
          "data": "0x0000000000000000000000000000000000000000000000000000010ffa7e6d6b",
          "blockHash": "0x8ccdcc2514d00e0fa6abffdd1a54624856707791343973dbe9d075102ebaa14f",
          "blockNumber": "0x731a85",
          "transactionHash": "0x54d831a2c118d2e34599ae2410d45aa1ac3b053627a531814d537f9acc22ab02",
          "transactionIndex": "0x75",
          "logIndex": "0x6f",
          "removed": false
        },
        {
          "address": "0x8aafd3ede9adb0ff97c7aebce82a919afb1c8764",
          "topics": [
            "0xddf252ad1be2c89b69c2b068fc378daa952ba7f163c4a11628f55a4df523b3ef",
            "0x000000000000000000000000c77f7fed3b5cc8249adc428c5f44c9063b9734b4",
            "0x000000000000000000000000c77f7fed3b5cc8249adc428c5f44c9063b9734b4"
          ],
          "data": "0x0000000000000000000000000000000000000000000000000000000231810502",
          "blockHash": "0x8ccdcc2514d00e0fa6abffdd1a54624856707791343973dbe9d075102ebaa14f",
          "blockNumber": "0x731a85",
          "transactionHash": "0x54d831a2c118d2e34599ae2410d45aa1ac3b053627a531814d537f9acc22ab02",
          "transactionIndex": "0x75",
          "logIndex": "0x70",
          "removed": false
        },
        {
          "address": "0x8aafd3ede9adb0ff97c7aebce82a919afb1c8764",
          "topics": [
            "0x4afcb4a87cdbd9974efdb92ee48bc8d7cd0ae4bf217004db3d080cbaee652ca7"
          ],
          "data": "0x0000000000000000000000000000000000000000000000000000000067903b0c000000000000000000000000000000000000000000000000000c5f7b5795fa7700000000000000000000000000000000000000000000000000000000f4714b19",
          "blockHash": "0x8ccdcc2514d00e0fa6abffdd1a54624856707791343973dbe9d075102ebaa14f",
          "blockNumber": "0x731a85",
          "transactionHash": "0x54d831a2c118d2e34599ae2410d45aa1ac3b053627a531814d537f9acc22ab02",
          "transactionIndex": "0x75",
          "logIndex": "0x71",
          "removed": false
        }
      ],
      "logsBloom": "0x00000000000000000000000000000000000000000600000000000000000000000000000000000000000000000000000000000000000000004000000000000000000000000000004000000008000000000000000000000000000000000000000000000000020000000000000000000800020000000000000000000010000000000000000000000000000000000000000000000000000000000000010000000000000000000000000000000000000000004000000000000000000000000000000000000002000000800000000000000000000000000000080000000000000020000000000000000000000000000000000000000000000000000000000000000000",
      "type": "0x2",
      "transactionHash": "0x54d831a2c118d2e34599ae2410d45aa1ac3b053627a531814d537f9acc22ab02",
      "transactionIndex": "0x75",
      "blockHash": "0x8ccdcc2514d00e0fa6abffdd1a54624856707791343973dbe9d075102ebaa14f",
      "blockNumber": "0x731a85",
      "gasUsed": "0xfd27",
      "effectiveGasPrice": "0x4f5bce3e",
      "from": "0xc77f7fed3b5cc8249adc428c5f44c9063b9734b4",
      "to": "0x8aafd3ede9adb0ff97c7aebce82a919afb1c8764",
      "contractAddress": null
    }
  ],
  "libraries": [],
  "pending": [],
  "returns": {},
  "timestamp": 1737505549,
  "chain": 11155111,
  "commit": "1d2fb70"
}