{
  "transactions": [
    {
      "hash": "0xbdcfc2975688c6ab093a22776e89698fe965abdf7687f9a1fea471677ffc44e7",
      "transactionType": "CALL",
      "contractName": null,
      "contractAddress": "0x8aafd3ede9adb0ff97c7aebce82a919afb1c8764",
      "function": "buy(address)",
      "arguments": [
        "0xC77f7fed3b5Cc8249aDc428c5F44C9063B9734b4"
      ],
      "transaction": {
        "from": "0xc77f7fed3b5cc8249adc428c5f44c9063b9734b4",
        "to": "0x8aafd3ede9adb0ff97c7aebce82a919afb1c8764",
        "gas": "0x156ea",
        "value": "0xde0b6b3a7640000",
        "input": "0xf088d547000000000000000000000000c77f7fed3b5cc8249adc428c5f44c9063b9734b4",
        "nonce": "0x12b6",
        "chainId": "0xaa36a7"
      },
      "additionalContracts": [],
      "isFixedGasLimit": false
    }
  ],
  "receipts": [
    {
      "status": "0x1",
      "cumulativeGasUsed": "0x21ab891",
      "logs": [
        {
          "address": "0x8aafd3ede9adb0ff97c7aebce82a919afb1c8764",
          "topics": [
            "0xddf252ad1be2c89b69c2b068fc378daa952ba7f163c4a11628f55a4df523b3ef",
            "0x0000000000000000000000000000000000000000000000000000000000000000",
            "0x000000000000000000000000c77f7fed3b5cc8249adc428c5f44c9063b9734b4"
          ],
          "data": "0x0000000000000000000000000000000000000000000000240848e62748dade7f",
          "blockHash": "0xbe77ae37a0af96fc2215e8427c1f982b5cbae39f79eb4da407220b6fcd4ade98",
          "blockNumber": "0x7319ad",
          "transactionHash": "0xbdcfc2975688c6ab093a22776e89698fe965abdf7687f9a1fea471677ffc44e7",
          "transactionIndex": "0x6f",
          "logIndex": "0x1109",
          "removed": false
        },
        {
          "address": "0x8aafd3ede9adb0ff97c7aebce82a919afb1c8764",
          "topics": [
            "0xddf252ad1be2c89b69c2b068fc378daa952ba7f163c4a11628f55a4df523b3ef",
            "0x0000000000000000000000000000000000000000000000000000000000000000",
            "0x000000000000000000000000c77f7fed3b5cc8249adc428c5f44c9063b9734b4"
          ],
          "data": "0x0000000000000000000000000000000000000000000000001bfaf8c50c57ba99",
          "blockHash": "0xbe77ae37a0af96fc2215e8427c1f982b5cbae39f79eb4da407220b6fcd4ade98",
          "blockNumber": "0x7319ad",
          "transactionHash": "0xbdcfc2975688c6ab093a22776e89698fe965abdf7687f9a1fea471677ffc44e7",
          "transactionIndex": "0x6f",
          "logIndex": "0x110a",
          "removed": false
        },
        {
          "address": "0x8aafd3ede9adb0ff97c7aebce82a919afb1c8764",
          "topics": [
            "0x4afcb4a87cdbd9974efdb92ee48bc8d7cd0ae4bf217004db3d080cbaee652ca7"
          ],
          "data": "0x00000000000000000000000000000000000000000000000000000000679030ec00000000000000000000000000000000000000000000000000054b0c1f103b2d0000000000000000000000000000000000000000000000000de0b6b3a7640000",
          "blockHash": "0xbe77ae37a0af96fc2215e8427c1f982b5cbae39f79eb4da407220b6fcd4ade98",
          "blockNumber": "0x7319ad",
          "transactionHash": "0xbdcfc2975688c6ab093a22776e89698fe965abdf7687f9a1fea471677ffc44e7",
          "transactionIndex": "0x6f",
          "logIndex": "0x110b",
          "removed": false
        }
      ],
      "logsBloom": "0x00000000000000000000000000000000000000000600000000000000000000000000000000000000000000000000000000000000000000004000000000000000000000000000004000000008000000000000000000000000000000000000000000000000020000000000000000000800020000000000000000000010000000000000000000000000000000000000000000000000000000000000010000000000000000000000000000000000000000004000000000000000000000000000000000000002000000800000000000000000000000000000080000000000000020000000000000000000000000000000000000000000000000000000000000000000",
      "type": "0x2",
      "transactionHash": "0xbdcfc2975688c6ab093a22776e89698fe965abdf7687f9a1fea471677ffc44e7",
      "transactionIndex": "0x6f",
      "blockHash": "0xbe77ae37a0af96fc2215e8427c1f982b5cbae39f79eb4da407220b6fcd4ade98",
      "blockNumber": "0x7319ad",
      "gasUsed": "0xf844",
      "effectiveGasPrice": "0x3cc66a9b",
      "from": "0xc77f7fed3b5cc8249adc428c5f44c9063b9734b4",
      "to": "0x8aafd3ede9adb0ff97c7aebce82a919afb1c8764",
      "contractAddress": null
    }
  ],
  "libraries": [],
  "pending": [],
  "returns": {},
  "timestamp": 1737502957,
  "chain": 11155111,
  "commit": "1d2fb70"
}