{
  "transactions": [
    {
      "hash": "0x2b8ac405507d9f014ce9d9073091b77e85dc528d6c1ddc5fead147d7c04f25ee",
      "transactionType": "CALL",
      "contractName": null,
      "contractAddress": "0x270e88f8683660553e8ba4eb2ad7c91a1710d769",
      "function": "sell(uint256)",
      "arguments": [
        "748554077185792714267"
      ],
      "transaction": {
        "from": "0xc77f7fed3b5cc8249adc428c5f44c9063b9734b4",
        "to": "0x270e88f8683660553e8ba4eb2ad7c91a1710d769",
        "gas": "0x16fec",
        "value": "0x0",
        "input": "0xe4849b3200000000000000000000000000000000000000000000002894464f30e582a61b",
        "nonce": "0x6dc",
        "chainId": "0xaa36a7"
      },
      "additionalContracts": [],
      "isFixedGasLimit": false
    }
  ],
  "receipts": [
    {
      "status": "0x1",
      "cumulativeGasUsed": "0x6fe2f2",
      "logs": [
        {
          "address": "0x270e88f8683660553e8ba4eb2ad7c91a1710d769",
          "topics": [
            "0xddf252ad1be2c89b69c2b068fc378daa952ba7f163c4a11628f55a4df523b3ef",
            "0x000000000000000000000000c77f7fed3b5cc8249adc428c5f44c9063b9734b4",
            "0x0000000000000000000000000000000000000000000000000000000000000000"
          ],
          "data": "0x00000000000000000000000000000000000000000000002894464f30e582a61b",
          "blockHash": "0xfb412e954a08fa794b88cc567aaadaa8a81eec9b45bc8f1bb39e377bb01eaf00",
          "blockNumber": "0x7253ef",
          "transactionHash": "0x2b8ac405507d9f014ce9d9073091b77e85dc528d6c1ddc5fead147d7c04f25ee",
          "transactionIndex": "0x46",
          "logIndex": "0x6d",
          "removed": false
        },
        {
          "address": "0x270e88f8683660553e8ba4eb2ad7c91a1710d769",
          "topics": [
            "0x4afcb4a87cdbd9974efdb92ee48bc8d7cd0ae4bf217004db3d080cbaee652ca7"
          ],
          "data": "0x000000000000000000000000000000000000000000000000000000006786e13c0000000000000000000000000000000000000000000000000004b6cb26baf5ef0000000000000000000000000000000000000000000000000dc8296293b9dca7",
          "blockHash": "0xfb412e954a08fa794b88cc567aaadaa8a81eec9b45bc8f1bb39e377bb01eaf00",
          "blockNumber": "0x7253ef",
          "transactionHash": "0x2b8ac405507d9f014ce9d9073091b77e85dc528d6c1ddc5fead147d7c04f25ee",
          "transactionIndex": "0x46",
          "logIndex": "0x6e",
          "removed": false
        }
      ],
      "logsBloom": "0x00000000000000000000000000000000000000000000000000000000000000000000000000000000000000000000000020000000000000004000000000000000000000000000000000000008000000000000000000000000000000000000000000000000020000000000000000000800020000000000000000000010000000000000000000010000000000000000000000000000000000000000010000000000000000000000000000000000000000004000000000000000000000000000000000000002000000800000000000000000000000000000080000008000000020000000000000000000000000000000000000000000000000000000000000000000",
      "type": "0x2",
      "transactionHash": "0x2b8ac405507d9f014ce9d9073091b77e85dc528d6c1ddc5fead147d7c04f25ee",
      "transactionIndex": "0x46",
      "blockHash": "0xfb412e954a08fa794b88cc567aaadaa8a81eec9b45bc8f1bb39e377bb01eaf00",
      "blockNumber": "0x7253ef",
      "gasUsed": "0xfb93",
      "effectiveGasPrice": "0x15a2af03a",
      "from": "0xc77f7fed3b5cc8249adc428c5f44c9063b9734b4",
      "to": "0x270e88f8683660553e8ba4eb2ad7c91a1710d769",
      "contractAddress": null
    }
  ],
  "libraries": [],
  "pending": [],
  "returns": {},
  "timestamp": 1736892733,
  "chain": 11155111,
  "commit": "51a374b"
}