{
  "transactions": [
    {
      "hash": "0x87aa9e8ceca27944c33dece3a764be3ee35d79065e04d7ae3eb34f1a390e7db7",
      "transactionType": "CALL",
      "contractName": null,
      "contractAddress": "0xbf4a322f1496e5c3d34a9bcdb4c60567b38c7de2",
      "function": "buy(address)",
      "arguments": [
        "0xC77f7fed3b5Cc8249aDc428c5F44C9063B9734b4"
      ],
      "transaction": {
        "from": "0xc77f7fed3b5cc8249adc428c5f44c9063b9734b4",
        "to": "0xbf4a322f1496e5c3d34a9bcdb4c60567b38c7de2",
        "gas": "0x1b309",
        "value": "0xde0b6b3a7640000",
        "input": "0xf088d547000000000000000000000000c77f7fed3b5cc8249adc428c5f44c9063b9734b4",
        "nonce": "0x95a",
        "chainId": "0xaa36a7"
      },
      "additionalContracts": [],
      "isFixedGasLimit": false
    }
  ],
  "receipts": [
    {
      "status": "0x1",
      "cumulativeGasUsed": "0x1290856",
      "logs": [
        {
          "address": "0xbf4a322f1496e5c3d34a9bcdb4c60567b38c7de2",
          "topics": [
            "0xddf252ad1be2c89b69c2b068fc378daa952ba7f163c4a11628f55a4df523b3ef",
            "0x0000000000000000000000000000000000000000000000000000000000000000",
            "0x000000000000000000000000c77f7fed3b5cc8249adc428c5f44c9063b9734b4"
          ],
          "data": "0x0000000000000000000000000000000000000000000000357a93f7fc518571e1",
          "blockHash": "0xe7c5b4bd832dede835be6eee820d83bf0fa27bc78d6e3c02a110395561f178f8",
          "blockNumber": "0x7258ed",
          "transactionHash": "0x87aa9e8ceca27944c33dece3a764be3ee35d79065e04d7ae3eb34f1a390e7db7",
          "transactionIndex": "0x8d",
          "logIndex": "0xd6",
          "removed": false
        },
        {
          "address": "0xbf4a322f1496e5c3d34a9bcdb4c60567b38c7de2",
          "topics": [
            "0xddf252ad1be2c89b69c2b068fc378daa952ba7f163c4a11628f55a4df523b3ef",
            "0x0000000000000000000000000000000000000000000000000000000000000000",
            "0x000000000000000000000000c77f7fed3b5cc8249adc428c5f44c9063b9734b4"
          ],
          "data": "0x00000000000000000000000000000000000000000000000029873367d1b7a4be",
          "blockHash": "0xe7c5b4bd832dede835be6eee820d83bf0fa27bc78d6e3c02a110395561f178f8",
          "blockNumber": "0x7258ed",
          "transactionHash": "0x87aa9e8ceca27944c33dece3a764be3ee35d79065e04d7ae3eb34f1a390e7db7",
          "transactionIndex": "0x8d",
          "logIndex": "0xd7",
          "removed": false
        },
        {
          "address": "0xbf4a322f1496e5c3d34a9bcdb4c60567b38c7de2",
          "topics": [
            "0x4afcb4a87cdbd9974efdb92ee48bc8d7cd0ae4bf217004db3d080cbaee652ca7"
          ],
          "data": "0x0000000000000000000000000000000000000000000000000000000067871d48000000000000000000000000000000000000000000000000000390b8a2cdbbb60000000000000000000000000000000000000000000000000de0b6b3a7640000",
          "blockHash": "0xe7c5b4bd832dede835be6eee820d83bf0fa27bc78d6e3c02a110395561f178f8",
          "blockNumber": "0x7258ed",
          "transactionHash": "0x87aa9e8ceca27944c33dece3a764be3ee35d79065e04d7ae3eb34f1a390e7db7",
          "transactionIndex": "0x8d",
          "logIndex": "0xd8",
          "removed": false
        }
      ],
      "logsBloom": "0x00000000000000000000000000000000000000000000000000000000000000000000000000000000000000000000000000000000000000004000000000000000000000000000000000000008000000000000001000000000000000000000000000000000020000000000000000000800020000000000000000000010000000000000000000000000000000000000000000000000000008000000010000000000000000000000000000000000000000004000000000000000000000000000000000000002000000800000000000001000000000000000080000000000000020000000000000000000000000000000000000000000000000000000000000000000",
      "type": "0x2",
      "transactionHash": "0x87aa9e8ceca27944c33dece3a764be3ee35d79065e04d7ae3eb34f1a390e7db7",
      "transactionIndex": "0x8d",
      "blockHash": "0xe7c5b4bd832dede835be6eee820d83bf0fa27bc78d6e3c02a110395561f178f8",
      "blockNumber": "0x7258ed",
      "gasUsed": "0x13af6",
      "effectiveGasPrice": "0x6ea968de",
      "from": "0xc77f7fed3b5cc8249adc428c5f44c9063b9734b4",
      "to": "0xbf4a322f1496e5c3d34a9bcdb4c60567b38c7de2",
      "contractAddress": null
    }
  ],
  "libraries": [],
  "pending": [],
  "returns": {},
  "timestamp": 1736908105,
  "chain": 11155111,
  "commit": "51a374b"
}