{
  "transactions": [
    {
      "hash": "0x17a078e8821f3deeec3b6c2e59d79135328527a928ea715c931e24c50f5bb5f1",
      "transactionType": "CALL",
      "contractName": null,
      "contractAddress": "0x00972455a43df7d89f165c5b82f30c20247bb610",
      "function": "borrow(uint256,uint256)",
      "arguments": [
        "99678761834502862",
        "0"
      ],
      "transaction": {
        "from": "0xc77f7fed3b5cc8249adc428c5f44c9063b9734b4",
        "to": "0x00972455a43df7d89f165c5b82f30c20247bb610",
        "gas": "0x2606a",
        "value": "0x0",
        "input": "0x0ecbcdab0000000000000000000000000000000000000000000000000162214e46cbdace0000000000000000000000000000000000000000000000000000000000000000",
        "nonce": "0x1879",
        "chainId": "0xaa36a7"
      },
      "additionalContracts": [],
      "isFixedGasLimit": false
    }
  ],
  "receipts": [
    {
      "status": "0x1",
      "cumulativeGasUsed": "0x1651cb0",
      "logs": [
        {
          "address": "0x00972455a43df7d89f165c5b82f30c20247bb610",
          "topics": [
            "0xddf252ad1be2c89b69c2b068fc378daa952ba7f163c4a11628f55a4df523b3ef",
            "0x000000000000000000000000c77f7fed3b5cc8249adc428c5f44c9063b9734b4",
            "0x00000000000000000000000000972455a43df7d89f165c5b82f30c20247bb610"
          ],
          "data": "0x000000000000000000000000000000000000000000000002dfd42abf814915c6",
          "blockHash": "0x80d0e2fea5aa8853ba8071224273945f98319ba4f24f472dc98f78d4a2b43bf1",
          "blockNumber": "0x737e9f",
          "transactionHash": "0x17a078e8821f3deeec3b6c2e59d79135328527a928ea715c931e24c50f5bb5f1",
          "transactionIndex": "0xc4",
          "logIndex": "0x126",
          "removed": false
        },
        {
          "address": "0x00972455a43df7d89f165c5b82f30c20247bb610",
          "topics": [
            "0xddf252ad1be2c89b69c2b068fc378daa952ba7f163c4a11628f55a4df523b3ef",
            "0x00000000000000000000000000972455a43df7d89f165c5b82f30c20247bb610",
            "0x000000000000000000000000c77f7fed3b5cc8249adc428c5f44c9063b9734b4"
          ],
          "data": "0x0000000000000000000000000000000000000000000000000070b12fea2baa79",
          "blockHash": "0x80d0e2fea5aa8853ba8071224273945f98319ba4f24f472dc98f78d4a2b43bf1",
          "blockNumber": "0x737e9f",
          "transactionHash": "0x17a078e8821f3deeec3b6c2e59d79135328527a928ea715c931e24c50f5bb5f1",
          "transactionIndex": "0xc4",
          "logIndex": "0x127",
          "removed": false
        },
        {
          "address": "0x00972455a43df7d89f165c5b82f30c20247bb610",
          "topics": [
            "0xddf252ad1be2c89b69c2b068fc378daa952ba7f163c4a11628f55a4df523b3ef",
            "0x00000000000000000000000000972455a43df7d89f165c5b82f30c20247bb610",
            "0x0000000000000000000000000000000000000000000000000000000000000000"
          ],
          "data": "0x0000000000000000000000000000000000000000000000000106f2c52265e31b",
          "blockHash": "0x80d0e2fea5aa8853ba8071224273945f98319ba4f24f472dc98f78d4a2b43bf1",
          "blockNumber": "0x737e9f",
          "transactionHash": "0x17a078e8821f3deeec3b6c2e59d79135328527a928ea715c931e24c50f5bb5f1",
          "transactionIndex": "0xc4",
          "logIndex": "0x128",
          "removed": false
        },
        {
          "address": "0x00972455a43df7d89f165c5b82f30c20247bb610",
          "topics": [
            "0x03bbe564cb1b78e43195eeadbde99e5b89b19345862807fcfb59f884e4165e25"
          ],
          "data": "0x000000000000000000000000c77f7fed3b5cc8249adc428c5f44c9063b9734b4000000000000000000000000000000000000000000000000015de3c1d7482087",
          "blockHash": "0x80d0e2fea5aa8853ba8071224273945f98319ba4f24f472dc98f78d4a2b43bf1",
          "blockNumber": "0x737e9f",
          "transactionHash": "0x17a078e8821f3deeec3b6c2e59d79135328527a928ea715c931e24c50f5bb5f1",
          "transactionIndex": "0xc4",
          "logIndex": "0x129",
          "removed": false
        },
        {
          "address": "0x00972455a43df7d89f165c5b82f30c20247bb610",
          "topics": [
            "0xaec00f5213a37254bc68a26b0685d1a5b2bf513e1e587c94c7df7f4a62b56c9c"
          ],
          "data": "0x0000000000000000000000000000000000000000000000000000000000000000000000000000000000000000000000000000000000000000000000000000000000000000000000000000000000000000000000000000000000000000000000000000000000000000000000000000000000000000000000000000000000000000",
          "blockHash": "0x80d0e2fea5aa8853ba8071224273945f98319ba4f24f472dc98f78d4a2b43bf1",
          "blockNumber": "0x737e9f",
          "transactionHash": "0x17a078e8821f3deeec3b6c2e59d79135328527a928ea715c931e24c50f5bb5f1",
          "transactionIndex": "0xc4",
          "logIndex": "0x12a",
          "removed": false
        },
        {
          "address": "0x00972455a43df7d89f165c5b82f30c20247bb610",
          "topics": [
            "0xaec00f5213a37254bc68a26b0685d1a5b2bf513e1e587c94c7df7f4a62b56c9c"
          ],
          "data": "0x000000000000000000000000000000000000000000000005c463af9e659f5a8700000000000000000000000000000000000000000000000002bdf1cdc8ed890e00000000000000000000000000000000000000000000000002bdf1cdc8ed890e000000000000000000000000000000000000000000000005c463af9e659f5a87",
          "blockHash": "0x80d0e2fea5aa8853ba8071224273945f98319ba4f24f472dc98f78d4a2b43bf1",
          "blockNumber": "0x737e9f",
          "transactionHash": "0x17a078e8821f3deeec3b6c2e59d79135328527a928ea715c931e24c50f5bb5f1",
          "transactionIndex": "0xc4",
          "logIndex": "0x12b",
          "removed": false
        },
        {
          "address": "0x00972455a43df7d89f165c5b82f30c20247bb610",
          "topics": [
            "0x4afcb4a87cdbd9974efdb92ee48bc8d7cd0ae4bf217004db3d080cbaee652ca7"
          ],
          "data": "0x000000000000000000000000000000000000000000000000000000006795153c0000000000000000000000000000000000000000000000000006aefe34e0f9fa0000000000000000000000000000000000000000000000000000b4c889c8d138",
          "blockHash": "0x80d0e2fea5aa8853ba8071224273945f98319ba4f24f472dc98f78d4a2b43bf1",
          "blockNumber": "0x737e9f",
          "transactionHash": "0x17a078e8821f3deeec3b6c2e59d79135328527a928ea715c931e24c50f5bb5f1",
          "transactionIndex": "0xc4",
          "logIndex": "0x12c",
          "removed": false
        }
      ],
      "logsBloom": "0x00000000000008000000000000000100400000000000000000000000000000000008000000000000000000000000000000002800000000004400000000000000000000000000000000000008000000000000000000000000000000000000000000000000020000000000000000000800028000000000000000000010000000000000000000000000000000000000000000000000000000000000010000000000000000000000000000000400000000004000000000400000000040001000000000000002000000800000000000000000000000000000080000000000000020000000000000000000000000000000000000000000000000000000000000000000",
      "type": "0x2",
      "transactionHash": "0x17a078e8821f3deeec3b6c2e59d79135328527a928ea715c931e24c50f5bb5f1",
      "transactionIndex": "0xc4",
      "blockHash": "0x80d0e2fea5aa8853ba8071224273945f98319ba4f24f472dc98f78d4a2b43bf1",
      "blockNumber": "0x737e9f",
      "gasUsed": "0x1a003",
      "effectiveGasPrice": "0x2d8c269ac",
      "from": "0xc77f7fed3b5cc8249adc428c5f44c9063b9734b4",
      "to": "0x00972455a43df7d89f165c5b82f30c20247bb610",
      "contractAddress": null
    }
  ],
  "libraries": [],
  "pending": [],
  "returns": {},
  "timestamp": 1737823549,
  "chain": 11155111,
  "commit": "f5162e9"
}