{
  "transactions": [
    {
      "hash": "0xe8ef947d384ae9ae2fd055c116f62941cc5df75108ceb73b256b42fb464f48f0",
      "transactionType": "CALL",
      "contractName": null,
      "contractAddress": "0xbf4a322f1496e5c3d34a9bcdb4c60567b38c7de2",
      "function": "sell(uint256)",
      "arguments": [
        "985766139640848271781"
      ],
      "transaction": {
        "from": "0xc77f7fed3b5cc8249adc428c5f44c9063b9734b4",
        "to": "0xbf4a322f1496e5c3d34a9bcdb4c60567b38c7de2",
        "gas": "0x16fea",
        "value": "0x0",
        "input": "0xe4849b320000000000000000000000000000000000000000000000357040d930c4df49a5",
        "nonce": "0xa6d",
        "chainId": "0xaa36a7"
      },
      "additionalContracts": [],
      "isFixedGasLimit": false
    }
  ],
  "receipts": [
    {
      "status": "0x1",
      "cumulativeGasUsed": "0x49831c",
      "logs": [
        {
          "address": "0xbf4a322f1496e5c3d34a9bcdb4c60567b38c7de2",
          "topics": [
            "0xddf252ad1be2c89b69c2b068fc378daa952ba7f163c4a11628f55a4df523b3ef",
            "0x000000000000000000000000c77f7fed3b5cc8249adc428c5f44c9063b9734b4",
            "0x0000000000000000000000000000000000000000000000000000000000000000"
          ],
          "data": "0x0000000000000000000000000000000000000000000000357040d930c4df49a5",
          "blockHash": "0x4040bf280706914e661734173886cf8d1faa48daf72e4b27551139e78e9f475c",
          "blockNumber": "0x725a4a",
          "transactionHash": "0xe8ef947d384ae9ae2fd055c116f62941cc5df75108ceb73b256b42fb464f48f0",
          "transactionIndex": "0x39",
          "logIndex": "0x61",
          "removed": false
        },
        {
          "address": "0xbf4a322f1496e5c3d34a9bcdb4c60567b38c7de2",
          "topics": [
            "0x4afcb4a87cdbd9974efdb92ee48bc8d7cd0ae4bf217004db3d080cbaee652ca7"
          ],
          "data": "0x0000000000000000000000000000000000000000000000000000000067872dc80000000000000000000000000000000000000000000000000003943266c91b060000000000000000000000000000000000000000000000000dc7e3ef7900b9e8",
          "blockHash": "0x4040bf280706914e661734173886cf8d1faa48daf72e4b27551139e78e9f475c",
          "blockNumber": "0x725a4a",
          "transactionHash": "0xe8ef947d384ae9ae2fd055c116f62941cc5df75108ceb73b256b42fb464f48f0",
          "transactionIndex": "0x39",
          "logIndex": "0x62",
          "removed": false
        }
      ],
      "logsBloom": "0x00000000000000000000000000000000000000000000000000000000000000000000000000000000000000000000000000000000000000004000000000000000000000000000000000000008000000000000001000000000000000000000000000000000020000000000000000000800020000000000000000000010000000000000000000000000000000000000000000000000000008000000010000000000000000000000000000000000000000004000000000000000000000000000000000000002000000800000000000001000000000000000080000000000000020000000000000000000000000000000000000000000000000000000000000000000",
      "type": "0x2",
      "transactionHash": "0xe8ef947d384ae9ae2fd055c116f62941cc5df75108ceb73b256b42fb464f48f0",
      "transactionIndex": "0x39",
      "blockHash": "0x4040bf280706914e661734173886cf8d1faa48daf72e4b27551139e78e9f475c",
      "blockNumber": "0x725a4a",
      "gasUsed": "0xfb91",
      "effectiveGasPrice": "0x399402821",
      "from": "0xc77f7fed3b5cc8249adc428c5f44c9063b9734b4",
      "to": "0xbf4a322f1496e5c3d34a9bcdb4c60567b38c7de2",
      "contractAddress": null
    }
  ],
  "libraries": [],
  "pending": [],
  "returns": {},
  "timestamp": 1736912329,
  "chain": 11155111,
  "commit": "51a374b"
}