{
  "transactions": [
    {
      "hash": "0x23b7d7013e449a0ad536fa0339aa6d106bcc7bdd1935d2af8d93b155fc3799f6",
      "transactionType": "CALL",
      "contractName": null,
      "contractAddress": "0x8aafd3ede9adb0ff97c7aebce82a919afb1c8764",
      "function": "sell(uint256)",
      "arguments": [
        "19530479979191797"
      ],
      "transaction": {
        "from": "0xc77f7fed3b5cc8249adc428c5f44c9063b9734b4",
        "to": "0x8aafd3ede9adb0ff97c7aebce82a919afb1c8764",
        "gas": "0x1724d",
        "value": "0x0",
        "input": "0xe4849b32000000000000000000000000000000000000000000000000004562de3973ddf5",
        "nonce": "0x1324",
        "chainId": "0xaa36a7"
      },
      "additionalContracts": [],
      "isFixedGasLimit": false
    }
  ],
  "receipts": [
    {
      "status": "0x1",
      "cumulativeGasUsed": "0xc8ef86",
      "logs": [
        {
          "address": "0x8aafd3ede9adb0ff97c7aebce82a919afb1c8764",
          "topics": [
            "0xddf252ad1be2c89b69c2b068fc378daa952ba7f163c4a11628f55a4df523b3ef",
            "0x000000000000000000000000c77f7fed3b5cc8249adc428c5f44c9063b9734b4",
            "0x0000000000000000000000000000000000000000000000000000000000000000"
          ],
          "data": "0x0000000000000000000000000000000000000000000000000044d4c3dee18837",
          "blockHash": "0x026a9476d18840cd7a3decaf3cd68e61450ed9c4a621b008d96239620585982d",
          "blockNumber": "0x731a34",
          "transactionHash": "0x23b7d7013e449a0ad536fa0339aa6d106bcc7bdd1935d2af8d93b155fc3799f6",
          "transactionIndex": "0x95",
          "logIndex": "0xcc",
          "removed": false
        },
        {
          "address": "0x8aafd3ede9adb0ff97c7aebce82a919afb1c8764",
          "topics": [
            "0xddf252ad1be2c89b69c2b068fc378daa952ba7f163c4a11628f55a4df523b3ef",
            "0x000000000000000000000000c77f7fed3b5cc8249adc428c5f44c9063b9734b4",
            "0x000000000000000000000000c77f7fed3b5cc8249adc428c5f44c9063b9734b4"
          ],
          "data": "0x00000000000000000000000000000000000000000000000000008e1a5a9255be",
          "blockHash": "0x026a9476d18840cd7a3decaf3cd68e61450ed9c4a621b008d96239620585982d",
          "blockNumber": "0x731a34",
          "transactionHash": "0x23b7d7013e449a0ad536fa0339aa6d106bcc7bdd1935d2af8d93b155fc3799f6",
          "transactionIndex": "0x95",
          "logIndex": "0xcd",
          "removed": false
        },
        {
          "address": "0x8aafd3ede9adb0ff97c7aebce82a919afb1c8764",
          "topics": [
            "0x4afcb4a87cdbd9974efdb92ee48bc8d7cd0ae4bf217004db3d080cbaee652ca7"
          ],
          "data": "0x0000000000000000000000000000000000000000000000000000000067903740000000000000000000000000000000000000000000000000000ba9718dd5425c00000000000000000000000000000000000000000000000000003a4e9f77dba6",
          "blockHash": "0x026a9476d18840cd7a3decaf3cd68e61450ed9c4a621b008d96239620585982d",
          "blockNumber": "0x731a34",
          "transactionHash": "0x23b7d7013e449a0ad536fa0339aa6d106bcc7bdd1935d2af8d93b155fc3799f6",
          "transactionIndex": "0x95",
          "logIndex": "0xce",
          "removed": false
        }
      ],
      "logsBloom": "0x00000000000000000000000000000000000000000600000000000000000000000000000000000000000000000000000000000000000000004000000000000000000000000000004000000008000000000000000000000000000000000000000000000000020000000000000000000800020000000000000000000010000000000000000000000000000000000000000000000000000000000000010000000000000000000000000000000000000000004000000000000000000000000000000000000002000000800000000000000000000000000000080000000000000020000000000000000000000000000000000000000000000000000000000000000000",
      "type": "0x2",
      "transactionHash": "0x23b7d7013e449a0ad536fa0339aa6d106bcc7bdd1935d2af8d93b155fc3799f6",
      "transactionIndex": "0x95",
      "blockHash": "0x026a9476d18840cd7a3decaf3cd68e61450ed9c4a621b008d96239620585982d",
      "blockNumber": "0x731a34",
      "gasUsed": "0xfd33",
      "effectiveGasPrice": "0x3e6d5f89",
      "from": "0xc77f7fed3b5cc8249adc428c5f44c9063b9734b4",
      "to": "0x8aafd3ede9adb0ff97c7aebce82a919afb1c8764",
      "contractAddress": null
    }
  ],
  "libraries": [],
  "pending": [],
  "returns": {},
  "timestamp": 1737504577,
  "chain": 11155111,
  "commit": "1d2fb70"
}