{
  "transactions": [
    {
      "hash": "0x5daeab5d7055448cfd0cf47867b443bd66a739e817486e8ed00669d13c7a5a4f",
      "transactionType": "CALL",
      "contractName": null,
      "contractAddress": "0x270e88f8683660553e8ba4eb2ad7c91a1710d769",
      "function": "buy(address)",
      "arguments": [
        "0xC77f7fed3b5Cc8249aDc428c5F44C9063B9734b4"
      ],
      "transaction": {
        "from": "0xc77f7fed3b5cc8249adc428c5f44c9063b9734b4",
        "to": "0x270e88f8683660553e8ba4eb2ad7c91a1710d769",
        "gas": "0x1b30c",
        "value": "0xde0b6b3a7640000",
        "input": "0xf088d547000000000000000000000000c77f7fed3b5cc8249adc428c5f44c9063b9734b4",
        "nonce": "0x68d",
        "chainId": "0xaa36a7"
      },
      "additionalContracts": [],
      "isFixedGasLimit": false
    }
  ],
  "receipts": [
    {
      "status": "0x1",
      "cumulativeGasUsed": "0xa58137",
      "logs": [
        {
          "address": "0x270e88f8683660553e8ba4eb2ad7c91a1710d769",
          "topics": [
            "0xddf252ad1be2c89b69c2b068fc378daa952ba7f163c4a11628f55a4df523b3ef",
            "0x0000000000000000000000000000000000000000000000000000000000000000",
            "0x000000000000000000000000c77f7fed3b5cc8249adc428c5f44c9063b9734b4"
          ],
          "data": "0x000000000000000000000000000000000000000000000028d7dc46a0d802de0c",
          "blockHash": "0x053dc5d5d66d3a0eac4476db7901abb88ec7d9616e9824c19974e644af278849",
          "blockNumber": "0x72538f",
          "transactionHash": "0x5daeab5d7055448cfd0cf47867b443bd66a739e817486e8ed00669d13c7a5a4f",
          "transactionIndex": "0x35",
          "logIndex": "0x65",
          "removed": false
        },
        {
          "address": "0x270e88f8683660553e8ba4eb2ad7c91a1710d769",
          "topics": [
            "0xddf252ad1be2c89b69c2b068fc378daa952ba7f163c4a11628f55a4df523b3ef",
            "0x0000000000000000000000000000000000000000000000000000000000000000",
            "0x000000000000000000000000c77f7fed3b5cc8249adc428c5f44c9063b9734b4"
          ],
          "data": "0x0000000000000000000000000000000000000000000000001fb75510ed57c3cb",
          "blockHash": "0x053dc5d5d66d3a0eac4476db7901abb88ec7d9616e9824c19974e644af278849",
          "blockNumber": "0x72538f",
          "transactionHash": "0x5daeab5d7055448cfd0cf47867b443bd66a739e817486e8ed00669d13c7a5a4f",
          "transactionIndex": "0x35",
          "logIndex": "0x66",
          "removed": false
        },
        {
          "address": "0x270e88f8683660553e8ba4eb2ad7c91a1710d769",
          "topics": [
            "0x4afcb4a87cdbd9974efdb92ee48bc8d7cd0ae4bf217004db3d080cbaee652ca7"
          ],
          "data": "0x000000000000000000000000000000000000000000000000000000006786dcbc0000000000000000000000000000000000000000000000000004ab2e7ca796490000000000000000000000000000000000000000000000000de0b6b3a7640000",
          "blockHash": "0x053dc5d5d66d3a0eac4476db7901abb88ec7d9616e9824c19974e644af278849",
          "blockNumber": "0x72538f",
          "transactionHash": "0x5daeab5d7055448cfd0cf47867b443bd66a739e817486e8ed00669d13c7a5a4f",
          "transactionIndex": "0x35",
          "logIndex": "0x67",
          "removed": false
        }
      ],
      "logsBloom": "0x00000000000000000000000000000000000000000000000000000000000000000000000000000000000000000000000020000000000000004000000000000000000000000000000000000008000000000000000000000000000000000000000000000000020000000000000000000800020000000000000000000010000000000000000000010000000000000000000000000000000000000000010000000000000000000000000000000000000000004000000000000000000000000000000000000002000000800000000000000000000000000000080000008000000020000000000000000000000000000000000000000000000000000000000000000000",
      "type": "0x2",
      "transactionHash": "0x5daeab5d7055448cfd0cf47867b443bd66a739e817486e8ed00669d13c7a5a4f",
      "transactionIndex": "0x35",
      "blockHash": "0x053dc5d5d66d3a0eac4476db7901abb88ec7d9616e9824c19974e644af278849",
      "blockNumber": "0x72538f",
      "gasUsed": "0x13af8",
      "effectiveGasPrice": "0x1eaf1697c",
      "from": "0xc77f7fed3b5cc8249adc428c5f44c9063b9734b4",
      "to": "0x270e88f8683660553e8ba4eb2ad7c91a1710d769",
      "contractAddress": null
    }
  ],
  "libraries": [],
  "pending": [],
  "returns": {},
  "timestamp": 1736891580,
  "chain": 11155111,
  "commit": "51a374b"
}