{
  "transactions": [
    {
      "hash": "0x81646d5f6fc2b38f2df96c10f37127e9482289a8b74fcb1c69720daf98d2f153",
      "transactionType": "CALL",
      "contractName": null,
      "contractAddress": "0x5eb9cc76c3506942c1c0ead70e877dd5e4f00cb0",
      "function": "sell(uint256)",
      "arguments": [
        "989070997620614362710"
      ],
      "transaction": {
        "from": "0xc77f7fed3b5cc8249adc428c5f44c9063b9734b4",
        "to": "0x5eb9cc76c3506942c1c0ead70e877dd5e4f00cb0",
        "gas": "0x16fec",
        "value": "0x0",
        "input": "0xe4849b320000000000000000000000000000000000000000000000359e1e100361f1f656",
        "nonce": "0x4b7",
        "chainId": "0xaa36a7"
      },
      "additionalContracts": [],
      "isFixedGasLimit": false
    }
  ],
  "receipts": [
    {
      "status": "0x1",
      "cumulativeGasUsed": "0x127691c",
      "logs": [
        {
          "address": "0x5eb9cc76c3506942c1c0ead70e877dd5e4f00cb0",
          "topics": [
            "0xddf252ad1be2c89b69c2b068fc378daa952ba7f163c4a11628f55a4df523b3ef",
            "0x000000000000000000000000c77f7fed3b5cc8249adc428c5f44c9063b9734b4",
            "0x0000000000000000000000000000000000000000000000000000000000000000"
          ],
          "data": "0x0000000000000000000000000000000000000000000000359e1e100361f1f656",
          "blockHash": "0x6b859bd2d05ec1e0ada14e8a37e3d0004ca8e175ebfb7a9ef1c12a3e733f1b35",
          "blockNumber": "0x7250f6",
          "transactionHash": "0x81646d5f6fc2b38f2df96c10f37127e9482289a8b74fcb1c69720daf98d2f153",
          "transactionIndex": "0x44",
          "logIndex": "0x56",
          "removed": false
        },
        {
          "address": "0x5eb9cc76c3506942c1c0ead70e877dd5e4f00cb0",
          "topics": [
            "0x4afcb4a87cdbd9974efdb92ee48bc8d7cd0ae4bf217004db3d080cbaee652ca7"
          ],
          "data": "0x000000000000000000000000000000000000000000000000000000006786bd6c0000000000000000000000000000000000000000000000000003911c538724310000000000000000000000000000000000000000000000000dc7db1331b3d7a3",
          "blockHash": "0x6b859bd2d05ec1e0ada14e8a37e3d0004ca8e175ebfb7a9ef1c12a3e733f1b35",
          "blockNumber": "0x7250f6",
          "transactionHash": "0x81646d5f6fc2b38f2df96c10f37127e9482289a8b74fcb1c69720daf98d2f153",
          "transactionIndex": "0x44",
          "logIndex": "0x57",
          "removed": false
        }
      ],
      "logsBloom": "0x00000000000000000000000000000000000000000000000000000000000000000000000000000000000000000000000000000000000000004000000000000000000000000000000000000008000000000000000000000000000000000000000000000000020000000000000004000800020000000000000000000010000000000000000000000000000000000000000000000000000000000000010000000000000000000000000000000000000000004000000000000000000000000000020000000002000000800000008000000000000000000000080000000000000020000000000000000000000000000000000000000000000000000000000000000000",
      "type": "0x2",
      "transactionHash": "0x81646d5f6fc2b38f2df96c10f37127e9482289a8b74fcb1c69720daf98d2f153",
      "transactionIndex": "0x44",
      "blockHash": "0x6b859bd2d05ec1e0ada14e8a37e3d0004ca8e175ebfb7a9ef1c12a3e733f1b35",
      "blockNumber": "0x7250f6",
      "gasUsed": "0xfb93",
      "effectiveGasPrice": "0x2c0f7a9ef",
      "from": "0xc77f7fed3b5cc8249adc428c5f44c9063b9734b4",
      "to": "0x5eb9cc76c3506942c1c0ead70e877dd5e4f00cb0",
      "contractAddress": null
    }
  ],
  "libraries": [],
  "pending": [],
  "returns": {},
  "timestamp": 1736883565,
  "chain": 11155111,
  "commit": "51a374b"
}