{
  "transactions": [
    {
      "hash": "0x90871b3c2100cbd1b553c3c4ff1b4b391b81b67a9e5f7fc7cd9d35d2b03dd09f",
      "transactionType": "CALL",
      "contractName": null,
      "contractAddress": "0xbf4a322f1496e5c3d34a9bcdb4c60567b38c7de2",
      "function": "sell(uint256)",
      "arguments": [
        "983922038012600974002"
      ],
      "transaction": {
        "from": "0xc77f7fed3b5cc8249adc428c5f44c9063b9734b4",
        "to": "0xbf4a322f1496e5c3d34a9bcdb4c60567b38c7de2",
        "gas": "0x16fea",
        "value": "0x0",
        "input": "0xe4849b3200000000000000000000000000000000000000000000003556a94887b378fab2",
        "nonce": "0xaf5",
        "chainId": "0xaa36a7"
      },
      "additionalContracts": [],
      "isFixedGasLimit": false
    }
  ],
  "receipts": [
    {
      "status": "0x1",
      "cumulativeGasUsed": "0x980ecc",
      "logs": [
        {
          "address": "0xbf4a322f1496e5c3d34a9bcdb4c60567b38c7de2",
          "topics": [
            "0xddf252ad1be2c89b69c2b068fc378daa952ba7f163c4a11628f55a4df523b3ef",
            "0x000000000000000000000000c77f7fed3b5cc8249adc428c5f44c9063b9734b4",
            "0x0000000000000000000000000000000000000000000000000000000000000000"
          ],
          "data": "0x00000000000000000000000000000000000000000000003556a94887b378fab2",
          "blockHash": "0x55831f161d3ed9ed61d4392d67151bf160d1b1b01695c460889db739068872ca",
          "blockNumber": "0x725aea",
          "transactionHash": "0x90871b3c2100cbd1b553c3c4ff1b4b391b81b67a9e5f7fc7cd9d35d2b03dd09f",
          "transactionIndex": "0x6b",
          "logIndex": "0x68",
          "removed": false
        },
        {
          "address": "0xbf4a322f1496e5c3d34a9bcdb4c60567b38c7de2",
          "topics": [
            "0x4afcb4a87cdbd9974efdb92ee48bc8d7cd0ae4bf217004db3d080cbaee652ca7"
          ],
          "data": "0x0000000000000000000000000000000000000000000000000000000067873548000000000000000000000000000000000000000000000000000395e9fc0e395b0000000000000000000000000000000000000000000000000dc7e3eb2f64cc93",
          "blockHash": "0x55831f161d3ed9ed61d4392d67151bf160d1b1b01695c460889db739068872ca",
          "blockNumber": "0x725aea",
          "transactionHash": "0x90871b3c2100cbd1b553c3c4ff1b4b391b81b67a9e5f7fc7cd9d35d2b03dd09f",
          "transactionIndex": "0x6b",
          "logIndex": "0x69",
          "removed": false
        }
      ],
      "logsBloom": "0x00000000000000000000000000000000000000000000000000000000000000000000000000000000000000000000000000000000000000004000000000000000000000000000000000000008000000000000001000000000000000000000000000000000020000000000000000000800020000000000000000000010000000000000000000000000000000000000000000000000000008000000010000000000000000000000000000000000000000004000000000000000000000000000000000000002000000800000000000001000000000000000080000000000000020000000000000000000000000000000000000000000000000000000000000000000",
      "type": "0x2",
      "transactionHash": "0x90871b3c2100cbd1b553c3c4ff1b4b391b81b67a9e5f7fc7cd9d35d2b03dd09f",
      "transactionIndex": "0x6b",
      "blockHash": "0x55831f161d3ed9ed61d4392d67151bf160d1b1b01695c460889db739068872ca",
      "blockNumber": "0x725aea",
      "gasUsed": "0xfb91",
      "effectiveGasPrice": "0x9f73fd8d",
      "from": "0xc77f7fed3b5cc8249adc428c5f44c9063b9734b4",
      "to": "0xbf4a322f1496e5c3d34a9bcdb4c60567b38c7de2",
      "contractAddress": null
    }
  ],
  "libraries": [],
  "pending": [],
  "returns": {},
  "timestamp": 1736914249,
  "chain": 11155111,
  "commit": "51a374b"
}