{
  "transactions": [
    {
      "hash": "0x678336069670ddbef1c21d43748abfdf7fe20e77a8fcd5715ebd6036aa4b07ee",
      "transactionType": "CALL",
      "contractName": null,
      "contractAddress": "0x8aafd3ede9adb0ff97c7aebce82a919afb1c8764",
      "function": "sell(uint256)",
      "arguments": [
        "16857871302722059"
      ],
      "transaction": {
        "from": "0xc77f7fed3b5cc8249adc428c5f44c9063b9734b4",
        "to": "0x8aafd3ede9adb0ff97c7aebce82a919afb1c8764",
        "gas": "0x1724d",
        "value": "0x0",
        "input": "0xe4849b32000000000000000000000000000000000000000000000000003be42506ab020b",
        "nonce": "0x13c6",
        "chainId": "0xaa36a7"
      },
      "additionalContracts": [],
      "isFixedGasLimit": false
    }
  ],
  "receipts": [
    {
      "status": "0x1",
      "cumulativeGasUsed": "0x6abd42",
      "logs": [
        {
          "address": "0x8aafd3ede9adb0ff97c7aebce82a919afb1c8764",
          "topics": [
            "0xddf252ad1be2c89b69c2b068fc378daa952ba7f163c4a11628f55a4df523b3ef",
            "0x000000000000000000000000c77f7fed3b5cc8249adc428c5f44c9063b9734b4",
            "0x0000000000000000000000000000000000000000000000000000000000000000"
          ],
          "data": "0x000000000000000000000000000000000000000000000000003b697ccb38fffb",
          "blockHash": "0x9c76f8436ea29a55bfa312a53651833276d95cfe8d8ede1bccb8441e66badbb4",
          "blockNumber": "0x731af1",
          "transactionHash": "0x678336069670ddbef1c21d43748abfdf7fe20e77a8fcd5715ebd6036aa4b07ee",
          "transactionIndex": "0x45",
          "logIndex": "0x71",
          "removed": false
        },
        {
          "address": "0x8aafd3ede9adb0ff97c7aebce82a919afb1c8764",
          "topics": [
            "0xddf252ad1be2c89b69c2b068fc378daa952ba7f163c4a11628f55a4df523b3ef",
            "0x000000000000000000000000c77f7fed3b5cc8249adc428c5f44c9063b9734b4",
            "0x000000000000000000000000c77f7fed3b5cc8249adc428c5f44c9063b9734b4"
          ],
          "data": "0x00000000000000000000000000000000000000000000000000007aa83b720210",
          "blockHash": "0x9c76f8436ea29a55bfa312a53651833276d95cfe8d8ede1bccb8441e66badbb4",
          "blockNumber": "0x731af1",
          "transactionHash": "0x678336069670ddbef1c21d43748abfdf7fe20e77a8fcd5715ebd6036aa4b07ee",
          "transactionIndex": "0x45",
          "logIndex": "0x72",
          "removed": false
        },
        {
          "address": "0x8aafd3ede9adb0ff97c7aebce82a919afb1c8764",
          "topics": [
            "0x4afcb4a87cdbd9974efdb92ee48bc8d7cd0ae4bf217004db3d080cbaee652ca7"
          ],
          "data": "0x000000000000000000000000000000000000000000000000000000006790401c000000000000000000000000000000000000000000000000000d7ee0d2aeac3600000000000000000000000000000000000000000000000000003a3deb3c9dd8",
          "blockHash": "0x9c76f8436ea29a55bfa312a53651833276d95cfe8d8ede1bccb8441e66badbb4",
          "blockNumber": "0x731af1",
          "transactionHash": "0x678336069670ddbef1c21d43748abfdf7fe20e77a8fcd5715ebd6036aa4b07ee",
          "transactionIndex": "0x45",
          "logIndex": "0x73",
          "removed": false
        }
      ],
      "logsBloom": "0x00000000000000000000000000000000000000000600000000000000000000000000000000000000000000000000000000000000000000004000000000000000000000000000004000000008000000000000000000000000000000000000000000000000020000000000000000000800020000000000000000000010000000000000000000000000000000000000000000000000000000000000010000000000000000000000000000000000000000004000000000000000000000000000000000000002000000800000000000000000000000000000080000000000000020000000000000000000000000000000000000000000000000000000000000000000",
      "type": "0x2",
      "transactionHash": "0x678336069670ddbef1c21d43748abfdf7fe20e77a8fcd5715ebd6036aa4b07ee",
      "transactionIndex": "0x45",
      "blockHash": "0x9c76f8436ea29a55bfa312a53651833276d95cfe8d8ede1bccb8441e66badbb4",
      "blockNumber": "0x731af1",
      "gasUsed": "0xfd33",
      "effectiveGasPrice": "0x88bcbeed",
      "from": "0xc77f7fed3b5cc8249adc428c5f44c9063b9734b4",
      "to": "0x8aafd3ede9adb0ff97c7aebce82a919afb1c8764",
      "contractAddress": null
    }
  ],
  "libraries": [],
  "pending": [],
  "returns": {},
  "timestamp": 1737506845,
  "chain": 11155111,
  "commit": "1d2fb70"
}