{
  "transactions": [
    {
      "hash": "0x18811d64d9d48d20748b2bb39d10fab0374a56539f6421bd17e160649fc8dc01",
      "transactionType": "CALL",
      "contractName": null,
      "contractAddress": "0x270e88f8683660553e8ba4eb2ad7c91a1710d769",
      "function": "buy(address)",
      "arguments": [
        "0xC77f7fed3b5Cc8249aDc428c5F44C9063B9734b4"
      ],
      "transaction": {
        "from": "0xc77f7fed3b5cc8249adc428c5f44c9063b9734b4",
        "to": "0x270e88f8683660553e8ba4eb2ad7c91a1710d769",
        "gas": "0x1b30c",
        "value": "0xde0b6b3a7640000",
        "input": "0xf088d547000000000000000000000000c77f7fed3b5cc8249adc428c5f44c9063b9734b4",
        "nonce": "0x67b",
        "chainId": "0xaa36a7"
      },
      "additionalContracts": [],
      "isFixedGasLimit": false
    }
  ],
  "receipts": [
    {
      "status": "0x1",
      "cumulativeGasUsed": "0x14db2e9",
      "logs": [
        {
          "address": "0x270e88f8683660553e8ba4eb2ad7c91a1710d769",
          "topics": [
            "0xddf252ad1be2c89b69c2b068fc378daa952ba7f163c4a11628f55a4df523b3ef",
            "0x0000000000000000000000000000000000000000000000000000000000000000",
            "0x000000000000000000000000c77f7fed3b5cc8249adc428c5f44c9063b9734b4"
          ],
          "data": "0x000000000000000000000000000000000000000000000028eef9cc435140eb29",
          "blockHash": "0x36fd13487b0aaef009d39aca6060735274d0b9c2d40df34f49e0844906934a9c",
          "blockNumber": "0x725379",
          "transactionHash": "0x18811d64d9d48d20748b2bb39d10fab0374a56539f6421bd17e160649fc8dc01",
          "transactionIndex": "0x50",
          "logIndex": "0xfe",
          "removed": false
        },
        {
          "address": "0x270e88f8683660553e8ba4eb2ad7c91a1710d769",
          "topics": [
            "0xddf252ad1be2c89b69c2b068fc378daa952ba7f163c4a11628f55a4df523b3ef",
            "0x0000000000000000000000000000000000000000000000000000000000000000",
            "0x000000000000000000000000c77f7fed3b5cc8249adc428c5f44c9063b9734b4"
          ],
          "data": "0x0000000000000000000000000000000000000000000000001fc948394b841361",
          "blockHash": "0x36fd13487b0aaef009d39aca6060735274d0b9c2d40df34f49e0844906934a9c",
          "blockNumber": "0x725379",
          "transactionHash": "0x18811d64d9d48d20748b2bb39d10fab0374a56539f6421bd17e160649fc8dc01",
          "transactionIndex": "0x50",
          "logIndex": "0xff",
          "removed": false
        },
        {
          "address": "0x270e88f8683660553e8ba4eb2ad7c91a1710d769",
          "topics": [
            "0x4afcb4a87cdbd9974efdb92ee48bc8d7cd0ae4bf217004db3d080cbaee652ca7"
          ],
          "data": "0x000000000000000000000000000000000000000000000000000000006786dbb40000000000000000000000000000000000000000000000000004a88b9f09622a0000000000000000000000000000000000000000000000000de0b6b3a7640000",
          "blockHash": "0x36fd13487b0aaef009d39aca6060735274d0b9c2d40df34f49e0844906934a9c",
          "blockNumber": "0x725379",
          "transactionHash": "0x18811d64d9d48d20748b2bb39d10fab0374a56539f6421bd17e160649fc8dc01",
          "transactionIndex": "0x50",
          "logIndex": "0x100",
          "removed": false
        }
      ],
      "logsBloom": "0x00000000000000000000000000000000000000000000000000000000000000000000000000000000000000000000000020000000000000004000000000000000000000000000000000000008000000000000000000000000000000000000000000000000020000000000000000000800020000000000000000000010000000000000000000010000000000000000000000000000000000000000010000000000000000000000000000000000000000004000000000000000000000000000000000000002000000800000000000000000000000000000080000008000000020000000000000000000000000000000000000000000000000000000000000000000",
      "type": "0x2",
      "transactionHash": "0x18811d64d9d48d20748b2bb39d10fab0374a56539f6421bd17e160649fc8dc01",
      "transactionIndex": "0x50",
      "blockHash": "0x36fd13487b0aaef009d39aca6060735274d0b9c2d40df34f49e0844906934a9c",
      "blockNumber": "0x725379",
      "gasUsed": "0x13af8",
      "effectiveGasPrice": "0x1eacad8ac",
      "from": "0xc77f7fed3b5cc8249adc428c5f44c9063b9734b4",
      "to": "0x270e88f8683660553e8ba4eb2ad7c91a1710d769",
      "contractAddress": null
    }
  ],
  "libraries": [],
  "pending": [],
  "returns": {},
  "timestamp": 1736891317,
  "chain": 11155111,
  "commit": "51a374b"
}