{
  "transactions": [
    {
      "hash": "0xc1d45b3238e3360bb4a3c2706332fac66effdd3a312f7373cac5fdb18f22d268",
      "transactionType": "CALL",
      "contractName": null,
      "contractAddress": "0xbf4a322f1496e5c3d34a9bcdb4c60567b38c7de2",
      "function": "sell(uint256)",
      "arguments": [
        "986337039085719067615"
      ],
      "transaction": {
        "from": "0xc77f7fed3b5cc8249adc428c5f44c9063b9734b4",
        "to": "0xbf4a322f1496e5c3d34a9bcdb4c60567b38c7de2",
        "gas": "0x16fea",
        "value": "0x0",
        "input": "0xe4849b32000000000000000000000000000000000000000000000035782d1735fadd1bdf",
        "nonce": "0xa43",
        "chainId": "0xaa36a7"
      },
      "additionalContracts": [],
      "isFixedGasLimit": false
    }
  ],
  "receipts": [
    {
      "status": "0x1",
      "cumulativeGasUsed": "0x67a100",
      "logs": [
        {
          "address": "0xbf4a322f1496e5c3d34a9bcdb4c60567b38c7de2",
          "topics": [
            "0xddf252ad1be2c89b69c2b068fc378daa952ba7f163c4a11628f55a4df523b3ef",
            "0x000000000000000000000000c77f7fed3b5cc8249adc428c5f44c9063b9734b4",
            "0x0000000000000000000000000000000000000000000000000000000000000000"
          ],
          "data": "0x000000000000000000000000000000000000000000000035782d1735fadd1bdf",
          "blockHash": "0x21e7b3db764b4d2272e48092f8206d6343c9b66023728fb08632b15b1b7f5988",
          "blockNumber": "0x725a1b",
          "transactionHash": "0xc1d45b3238e3360bb4a3c2706332fac66effdd3a312f7373cac5fdb18f22d268",
          "transactionIndex": "0x47",
          "logIndex": "0x69",
          "removed": false
        },
        {
          "address": "0xbf4a322f1496e5c3d34a9bcdb4c60567b38c7de2",
          "topics": [
            "0x4afcb4a87cdbd9974efdb92ee48bc8d7cd0ae4bf217004db3d080cbaee652ca7"
          ],
          "data": "0x0000000000000000000000000000000000000000000000000000000067872b94000000000000000000000000000000000000000000000000000393aaa5e2a27c0000000000000000000000000000000000000000000000000dc7e3f0cccd0b2f",
          "blockHash": "0x21e7b3db764b4d2272e48092f8206d6343c9b66023728fb08632b15b1b7f5988",
          "blockNumber": "0x725a1b",
          "transactionHash": "0xc1d45b3238e3360bb4a3c2706332fac66effdd3a312f7373cac5fdb18f22d268",
          "transactionIndex": "0x47",
          "logIndex": "0x6a",
          "removed": false
        }
      ],
      "logsBloom": "0x00000000000000000000000000000000000000000000000000000000000000000000000000000000000000000000000000000000000000004000000000000000000000000000000000000008000000000000001000000000000000000000000000000000020000000000000000000800020000000000000000000010000000000000000000000000000000000000000000000000000008000000010000000000000000000000000000000000000000004000000000000000000000000000000000000002000000800000000000001000000000000000080000000000000020000000000000000000000000000000000000000000000000000000000000000000",
      "type": "0x2",
      "transactionHash": "0xc1d45b3238e3360bb4a3c2706332fac66effdd3a312f7373cac5fdb18f22d268",
      "transactionIndex": "0x47",
      "blockHash": "0x21e7b3db764b4d2272e48092f8206d6343c9b66023728fb08632b15b1b7f5988",
      "blockNumber": "0x725a1b",
      "gasUsed": "0xfb91",
      "effectiveGasPrice": "0x6ccbe8557",
      "from": "0xc77f7fed3b5cc8249adc428c5f44c9063b9734b4",
      "to": "0xbf4a322f1496e5c3d34a9bcdb4c60567b38c7de2",
      "contractAddress": null
    }
  ],
  "libraries": [],
  "pending": [],
  "returns": {},
  "timestamp": 1736911765,
  "chain": 11155111,
  "commit": "51a374b"
}