{
  "transactions": [
    {
      "hash": "0xcf8380c44afc99ddcddfeda347fb5adc38eb25b919c08600856f62953c754beb",
      "transactionType": "CALL",
      "contractName": null,
      "contractAddress": "0x8aafd3ede9adb0ff97c7aebce82a919afb1c8764",
      "function": "sell(uint256)",
      "arguments": [
        "1112866340105"
      ],
      "transaction": {
        "from": "0xc77f7fed3b5cc8249adc428c5f44c9063b9734b4",
        "to": "0x8aafd3ede9adb0ff97c7aebce82a919afb1c8764",
        "gas": "0x1722a",
        "value": "0x0",
        "input": "0xe4849b32000000000000000000000000000000000000000000000000000001031c00bd09",
        "nonce": "0x13a4",
        "chainId": "0xaa36a7"
      },
      "additionalContracts": [],
      "isFixedGasLimit": false
    }
  ],
  "receipts": [
    {
      "status": "0x1",
      "cumulativeGasUsed": "0xbe88aa",
      "logs": [
        {
          "address": "0x8aafd3ede9adb0ff97c7aebce82a919afb1c8764",
          "topics": [
            "0xddf252ad1be2c89b69c2b068fc378daa952ba7f163c4a11628f55a4df523b3ef",
            "0x000000000000000000000000c77f7fed3b5cc8249adc428c5f44c9063b9734b4",
            "0x0000000000000000000000000000000000000000000000000000000000000000"
          ],
          "data": "0x000000000000000000000000000000000000000000000000000001010958cbe9",
          "blockHash": "0x1e9fc67aef5c6298b2c1cb9bb49cb20b8c7094e8a3288c0ff1a19620c9b5230a",
          "blockNumber": "0x731aca",
          "transactionHash": "0xcf8380c44afc99ddcddfeda347fb5adc38eb25b919c08600856f62953c754beb",
          "transactionIndex": "0x64",
          "logIndex": "0x86",
          "removed": false
        },
        {
          "address": "0x8aafd3ede9adb0ff97c7aebce82a919afb1c8764",
          "topics": [
            "0xddf252ad1be2c89b69c2b068fc378daa952ba7f163c4a11628f55a4df523b3ef",
            "0x000000000000000000000000c77f7fed3b5cc8249adc428c5f44c9063b9734b4",
            "0x000000000000000000000000c77f7fed3b5cc8249adc428c5f44c9063b9734b4"
          ],
          "data": "0x0000000000000000000000000000000000000000000000000000000212a7f120",
          "blockHash": "0x1e9fc67aef5c6298b2c1cb9bb49cb20b8c7094e8a3288c0ff1a19620c9b5230a",
          "blockNumber": "0x731aca",
          "transactionHash": "0xcf8380c44afc99ddcddfeda347fb5adc38eb25b919c08600856f62953c754beb",
          "transactionIndex": "0x64",
          "logIndex": "0x87",
          "removed": false
        },
        {
          "address": "0x8aafd3ede9adb0ff97c7aebce82a919afb1c8764",
          "topics": [
            "0x4afcb4a87cdbd9974efdb92ee48bc8d7cd0ae4bf217004db3d080cbaee652ca7"
          ],
          "data": "0x0000000000000000000000000000000000000000000000000000000067903e48000000000000000000000000000000000000000000000000000d16310237e92a00000000000000000000000000000000000000000000000000000000f456c039",
          "blockHash": "0x1e9fc67aef5c6298b2c1cb9bb49cb20b8c7094e8a3288c0ff1a19620c9b5230a",
          "blockNumber": "0x731aca",
          "transactionHash": "0xcf8380c44afc99ddcddfeda347fb5adc38eb25b919c08600856f62953c754beb",
          "transactionIndex": "0x64",
          "logIndex": "0x88",
          "removed": false
        }
      ],
      "logsBloom": "0x00000000000000000000000000000000000000000600000000000000000000000000000000000000000000000000000000000000000000004000000000000000000000000000004000000008000000000000000000000000000000000000000000000000020000000000000000000800020000000000000000000010000000000000000000000000000000000000000000000000000000000000010000000000000000000000000000000000000000004000000000000000000000000000000000000002000000800000000000000000000000000000080000000000000020000000000000000000000000000000000000000000000000000000000000000000",
      "type": "0x2",
      "transactionHash": "0xcf8380c44afc99ddcddfeda347fb5adc38eb25b919c08600856f62953c754beb",
      "transactionIndex": "0x64",
      "blockHash": "0x1e9fc67aef5c6298b2c1cb9bb49cb20b8c7094e8a3288c0ff1a19620c9b5230a",
      "blockNumber": "0x731aca",
      "gasUsed": "0xfd1b",
      "effectiveGasPrice": "0x87c88540",
      "from": "0xc77f7fed3b5cc8249adc428c5f44c9063b9734b4",
      "to": "0x8aafd3ede9adb0ff97c7aebce82a919afb1c8764",
      "contractAddress": null
    }
  ],
  "libraries": [],
  "pending": [],
  "returns": {},
  "timestamp": 1737506378,
  "chain": 11155111,
  "commit": "1d2fb70"
}