{
  "transactions": [
    {
      "hash": "0xf6bcd49e127b4102d291117d4181bad2095d63d7576225e4acc68800554e5e17",
      "transactionType": "CALL",
      "contractName": null,
      "contractAddress": "0x8aafd3ede9adb0ff97c7aebce82a919afb1c8764",
      "function": "sell(uint256)",
      "arguments": [
        "255589551093327412354"
      ],
      "transaction": {
        "from": "0xc77f7fed3b5cc8249adc428c5f44c9063b9734b4",
        "to": "0x8aafd3ede9adb0ff97c7aebce82a919afb1c8764",
        "gas": "0x17270",
        "value": "0x0",
        "input": "0xe4849b3200000000000000000000000000000000000000000000000ddb047e8c43553c82",
        "nonce": "0x13e8",
        "chainId": "0xaa36a7"
      },
      "additionalContracts": [],
      "isFixedGasLimit": false
    }
  ],
  "receipts": [
    {
      "status": "0x1",
      "cumulativeGasUsed": "0x119c21b",
      "logs": [
        {
          "address": "0x8aafd3ede9adb0ff97c7aebce82a919afb1c8764",
          "topics": [
            "0xddf252ad1be2c89b69c2b068fc378daa952ba7f163c4a11628f55a4df523b3ef",
            "0x000000000000000000000000c77f7fed3b5cc8249adc428c5f44c9063b9734b4",
            "0x0000000000000000000000000000000000000000000000000000000000000000"
          ],
          "data": "0x00000000000000000000000000000000000000000000000dbea433ceb9940ae0",
          "blockHash": "0x28e21b89dc9b9ff832982113133e29911d47a326465f9a46b3837a3cdd77fbaf",
          "blockNumber": "0x731b18",
          "transactionHash": "0xf6bcd49e127b4102d291117d4181bad2095d63d7576225e4acc68800554e5e17",
          "transactionIndex": "0x83",
          "logIndex": "0x86",
          "removed": false
        },
        {
          "address": "0x8aafd3ede9adb0ff97c7aebce82a919afb1c8764",
          "topics": [
            "0xddf252ad1be2c89b69c2b068fc378daa952ba7f163c4a11628f55a4df523b3ef",
            "0x000000000000000000000000c77f7fed3b5cc8249adc428c5f44c9063b9734b4",
            "0x000000000000000000000000c77f7fed3b5cc8249adc428c5f44c9063b9734b4"
          ],
          "data": "0x0000000000000000000000000000000000000000000000001c604abd89c131a2",
          "blockHash": "0x28e21b89dc9b9ff832982113133e29911d47a326465f9a46b3837a3cdd77fbaf",
          "blockNumber": "0x731b18",
          "transactionHash": "0xf6bcd49e127b4102d291117d4181bad2095d63d7576225e4acc68800554e5e17",
          "transactionIndex": "0x83",
          "logIndex": "0x87",
          "removed": false
        },
        {
          "address": "0x8aafd3ede9adb0ff97c7aebce82a919afb1c8764",
          "topics": [
            "0x4afcb4a87cdbd9974efdb92ee48bc8d7cd0ae4bf217004db3d080cbaee652ca7"
          ],
          "data": "0x00000000000000000000000000000000000000000000000000000000679041f0000000000000000000000000000000000000000000000000000de798c6038ba60000000000000000000000000000000000000000000000000dce0a73e0df3808",
          "blockHash": "0x28e21b89dc9b9ff832982113133e29911d47a326465f9a46b3837a3cdd77fbaf",
          "blockNumber": "0x731b18",
          "transactionHash": "0xf6bcd49e127b4102d291117d4181bad2095d63d7576225e4acc68800554e5e17",
          "transactionIndex": "0x83",
          "logIndex": "0x88",
          "removed": false
        }
      ],
      "logsBloom": "0x00000000000000000000000000000000000000000600000000000000000000000000000000000000000000000000000000000000000000004000000000000000000000000000004000000008000000000000000000000000000000000000000000000000020000000000000000000800020000000000000000000010000000000000000000000000000000000000000000000000000000000000010000000000000000000000000000000000000000004000000000000000000000000000000000000002000000800000000000000000000000000000080000000000000020000000000000000000000000000000000000000000000000000000000000000000",
      "type": "0x2",
      "transactionHash": "0xf6bcd49e127b4102d291117d4181bad2095d63d7576225e4acc68800554e5e17",
      "transactionIndex": "0x83",
      "blockHash": "0x28e21b89dc9b9ff832982113133e29911d47a326465f9a46b3837a3cdd77fbaf",
      "blockNumber": "0x731b18",
      "gasUsed": "0xfd4b",
      "effectiveGasPrice": "0x906c3a7f",
      "from": "0xc77f7fed3b5cc8249adc428c5f44c9063b9734b4",
      "to": "0x8aafd3ede9adb0ff97c7aebce82a919afb1c8764",
      "contractAddress": null
    }
  ],
  "libraries": [],
  "pending": [],
  "returns": {},
  "timestamp": 1737507314,
  "chain": 11155111,
  "commit": "1d2fb70"
}