{
  "transactions": [
    {
      "hash": "0x568e382b4fcfbc2c422fc31552f072e226d5bfc1f1b39f0828a9e034379a667f",
      "transactionType": "CALL",
      "contractName": null,
      "contractAddress": "0xbf4a322f1496e5c3d34a9bcdb4c60567b38c7de2",
      "function": "buy(address)",
      "arguments": [
        "0xC77f7fed3b5Cc8249aDc428c5F44C9063B9734b4"
      ],
      "transaction": {
        "from": "0xc77f7fed3b5cc8249adc428c5f44c9063b9734b4",
        "to": "0xbf4a322f1496e5c3d34a9bcdb4c60567b38c7de2",
        "gas": "0x1b309",
        "value": "0xde0b6b3a7640000",
        "input": "0xf088d547000000000000000000000000c77f7fed3b5cc8249adc428c5f44c9063b9734b4",
        "nonce": "0xb0a",
        "chainId": "0xaa36a7"
      },
      "additionalContracts": [],
      "isFixedGasLimit": false
    }
  ],
  "receipts": [
    {
      "status": "0x1",
      "cumulativeGasUsed": "0x148f1ab",
      "logs": [
        {
          "address": "0xbf4a322f1496e5c3d34a9bcdb4c60567b38c7de2",
          "topics": [
            "0xddf252ad1be2c89b69c2b068fc378daa952ba7f163c4a11628f55a4df523b3ef",
            "0x0000000000000000000000000000000000000000000000000000000000000000",
            "0x000000000000000000000000c77f7fed3b5cc8249adc428c5f44c9063b9734b4"
          ],
          "data": "0x000000000000000000000000000000000000000000000035293fba35b894f72b",
          "blockHash": "0x02b489cdcedd39d0989f2b5aa2904ebd514d2ac21206bca49d5df3817d1cd40b",
          "blockNumber": "0x725aff",
          "transactionHash": "0x568e382b4fcfbc2c422fc31552f072e226d5bfc1f1b39f0828a9e034379a667f",
          "transactionIndex": "0xca",
          "logIndex": "0x125",
          "removed": false
        },
        {
          "address": "0xbf4a322f1496e5c3d34a9bcdb4c60567b38c7de2",
          "topics": [
            "0xddf252ad1be2c89b69c2b068fc378daa952ba7f163c4a11628f55a4df523b3ef",
            "0x0000000000000000000000000000000000000000000000000000000000000000",
            "0x000000000000000000000000c77f7fed3b5cc8249adc428c5f44c9063b9734b4"
          ],
          "data": "0x00000000000000000000000000000000000000000000000029480bc72a54652b",
          "blockHash": "0x02b489cdcedd39d0989f2b5aa2904ebd514d2ac21206bca49d5df3817d1cd40b",
          "blockNumber": "0x725aff",
          "transactionHash": "0x568e382b4fcfbc2c422fc31552f072e226d5bfc1f1b39f0828a9e034379a667f",
          "transactionIndex": "0xca",
          "logIndex": "0x126",
          "removed": false
        },
        {
          "address": "0xbf4a322f1496e5c3d34a9bcdb4c60567b38c7de2",
          "topics": [
            "0x4afcb4a87cdbd9974efdb92ee48bc8d7cd0ae4bf217004db3d080cbaee652ca7"
          ],
          "data": "0x00000000000000000000000000000000000000000000000000000000678736500000000000000000000000000000000000000000000000000003962cf51d56bb0000000000000000000000000000000000000000000000000de0b6b3a7640000",
          "blockHash": "0x02b489cdcedd39d0989f2b5aa2904ebd514d2ac21206bca49d5df3817d1cd40b",
          "blockNumber": "0x725aff",
          "transactionHash": "0x568e382b4fcfbc2c422fc31552f072e226d5bfc1f1b39f0828a9e034379a667f",
          "transactionIndex": "0xca",
          "logIndex": "0x127",
          "removed": false
        }
      ],
      "logsBloom": "0x00000000000000000000000000000000000000000000000000000000000000000000000000000000000000000000000000000000000000004000000000000000000000000000000000000008000000000000001000000000000000000000000000000000020000000000000000000800020000000000000000000010000000000000000000000000000000000000000000000000000008000000010000000000000000000000000000000000000000004000000000000000000000000000000000000002000000800000000000001000000000000000080000000000000020000000000000000000000000000000000000000000000000000000000000000000",
      "type": "0x2",
      "transactionHash": "0x568e382b4fcfbc2c422fc31552f072e226d5bfc1f1b39f0828a9e034379a667f",
      "transactionIndex": "0xca",
      "blockHash": "0x02b489cdcedd39d0989f2b5aa2904ebd514d2ac21206bca49d5df3817d1cd40b",
      "blockNumber": "0x725aff",
      "gasUsed": "0x13af6",
      "effectiveGasPrice": "0x8d5679b6",
      "from": "0xc77f7fed3b5cc8249adc428c5f44c9063b9734b4",
      "to": "0xbf4a322f1496e5c3d34a9bcdb4c60567b38c7de2",
      "contractAddress": null
    }
  ],
  "libraries": [],
  "pending": [],
  "returns": {},
  "timestamp": 1736914513,
  "chain": 11155111,
  "commit": "51a374b"
}