{
  "transactions": [
    {
      "hash": "0x3ad682971fb1f5391dd8d26c8a8c17df38ca43a81e1da33ec9b1bc600222e3a6",
      "transactionType": "CALL",
      "contractName": null,
      "contractAddress": "0x8aafd3ede9adb0ff97c7aebce82a919afb1c8764",
      "function": "sell(uint256)",
      "arguments": [
        "43045074"
      ],
      "transaction": {
        "from": "0xc77f7fed3b5cc8249adc428c5f44c9063b9734b4",
        "to": "0x8aafd3ede9adb0ff97c7aebce82a919afb1c8764",
        "gas": "0x15d88",
        "value": "0x0",
        "input": "0xe4849b32000000000000000000000000000000000000000000000000000000000290d0d2",
        "nonce": "0x1688",
        "chainId": "0xaa36a7"
      },
      "additionalContracts": [],
      "isFixedGasLimit": false
    }
  ],
  "receipts": [
    {
      "status": "0x1",
      "cumulativeGasUsed": "0x123de41",
      "logs": [
        {
          "address": "0x8aafd3ede9adb0ff97c7aebce82a919afb1c8764",
          "topics": [
            "0xddf252ad1be2c89b69c2b068fc378daa952ba7f163c4a11628f55a4df523b3ef",
            "0x000000000000000000000000c77f7fed3b5cc8249adc428c5f44c9063b9734b4",
            "0x0000000000000000000000000000000000000000000000000000000000000000"
          ],
          "data": "0x00000000000000000000000000000000000000000000000000000000028b8faa",
          "blockHash": "0xf72d3b21b0fd0ca0d51a7d138a02fae5ae9569949d7f8824c2aa0ce316b8d900",
          "blockNumber": "0x731e3c",
          "transactionHash": "0x3ad682971fb1f5391dd8d26c8a8c17df38ca43a81e1da33ec9b1bc600222e3a6",
          "transactionIndex": "0x77",
          "logIndex": "0xe6",
          "removed": false
        },
        {
          "address": "0x8aafd3ede9adb0ff97c7aebce82a919afb1c8764",
          "topics": [
            "0xddf252ad1be2c89b69c2b068fc378daa952ba7f163c4a11628f55a4df523b3ef",
            "0x000000000000000000000000c77f7fed3b5cc8249adc428c5f44c9063b9734b4",
            "0x000000000000000000000000c77f7fed3b5cc8249adc428c5f44c9063b9734b4"
          ],
          "data": "0x0000000000000000000000000000000000000000000000000000000000054128",
          "blockHash": "0xf72d3b21b0fd0ca0d51a7d138a02fae5ae9569949d7f8824c2aa0ce316b8d900",
          "blockNumber": "0x731e3c",
          "transactionHash": "0x3ad682971fb1f5391dd8d26c8a8c17df38ca43a81e1da33ec9b1bc600222e3a6",
          "transactionIndex": "0x77",
          "logIndex": "0xe7",
          "removed": false
        },
        {
          "address": "0x8aafd3ede9adb0ff97c7aebce82a919afb1c8764",
          "topics": [
            "0x4afcb4a87cdbd9974efdb92ee48bc8d7cd0ae4bf217004db3d080cbaee652ca7"
          ],
          "data": "0x00000000000000000000000000000000000000000000000000000000679067b8000000000000000000000000000000000000000000000000001596e86c56ab1a000000000000000000000000000000000000000000000000000000000003fdcc",
          "blockHash": "0xf72d3b21b0fd0ca0d51a7d138a02fae5ae9569949d7f8824c2aa0ce316b8d900",
          "blockNumber": "0x731e3c",
          "transactionHash": "0x3ad682971fb1f5391dd8d26c8a8c17df38ca43a81e1da33ec9b1bc600222e3a6",
          "transactionIndex": "0x77",
          "logIndex": "0xe8",
          "removed": false
        }
      ],
      "logsBloom": "0x00000000000000000000000000000000000000000600000000000000000000000000000000000000000000000000000000000000000000004000000000000000000000000000004000000008000000000000000000000000000000000000000000000000020000000000000000000800020000000000000000000010000000000000000000000000000000000000000000000000000000000000010000000000000000000000000000000000000000004000000000000000000000000000000000000002000000800000000000000000000000000000080000000000000020000000000000000000000000000000000000000000000000000000000000000000",
      "type": "0x2",
      "transactionHash": "0x3ad682971fb1f5391dd8d26c8a8c17df38ca43a81e1da33ec9b1bc600222e3a6",
      "transactionIndex": "0x77",
      "blockHash": "0xf72d3b21b0fd0ca0d51a7d138a02fae5ae9569949d7f8824c2aa0ce316b8d900",
      "blockNumber": "0x731e3c",
      "gasUsed": "0xfd0f",
      "effectiveGasPrice": "0x46184f5e",
      "from": "0xc77f7fed3b5cc8249adc428c5f44c9063b9734b4",
      "to": "0x8aafd3ede9adb0ff97c7aebce82a919afb1c8764",
      "contractAddress": null
    }
  ],
  "libraries": [],
  "pending": [],
  "returns": {},
  "timestamp": 1737516985,
  "chain": 11155111,
  "commit": "1d2fb70"
}