{
  "transactions": [
    {
      "hash": "0x855a9ad5b6494f9cc8c0178dcfb94b29ef0c2d063771c66b4339c01310bd2534",
      "transactionType": "CALL",
      "contractName": null,
      "contractAddress": "0x5eb9cc76c3506942c1c0ead70e877dd5e4f00cb0",
      "function": "buy(address)",
      "arguments": [
        "0xC77f7fed3b5Cc8249aDc428c5F44C9063B9734b4"
      ],
      "transaction": {
        "from": "0xc77f7fed3b5cc8249adc428c5f44c9063b9734b4",
        "to": "0x5eb9cc76c3506942c1c0ead70e877dd5e4f00cb0",
        "gas": "0x1b30c",
        "value": "0xde0b6b3a7640000",
        "input": "0xf088d547000000000000000000000000c77f7fed3b5cc8249adc428c5f44c9063b9734b4",
        "nonce": "0x35e",
        "chainId": "0xaa36a7"
      },
      "additionalContracts": [],
      "isFixedGasLimit": false
    }
  ],
  "receipts": [
    {
      "status": "0x1",
      "cumulativeGasUsed": "0xb5f5d9",
      "logs": [
        {
          "address": "0x5eb9cc76c3506942c1c0ead70e877dd5e4f00cb0",
          "topics": [
            "0xddf252ad1be2c89b69c2b068fc378daa952ba7f163c4a11628f55a4df523b3ef",
            "0x0000000000000000000000000000000000000000000000000000000000000000",
            "0x000000000000000000000000c77f7fed3b5cc8249adc428c5f44c9063b9734b4"
          ],
          "data": "0x000000000000000000000000000000000000000000000035755da8da80be2c79",
          "blockHash": "0x00db888047ef4013e84dcce7e053abe2efb7be024e05a65be8e2e6792e8e6e26",
          "blockNumber": "0x724f54",
          "transactionHash": "0x855a9ad5b6494f9cc8c0178dcfb94b29ef0c2d063771c66b4339c01310bd2534",
          "transactionIndex": "0x5a",
          "logIndex": "0x97",
          "removed": false
        },
        {
          "address": "0x5eb9cc76c3506942c1c0ead70e877dd5e4f00cb0",
          "topics": [
            "0xddf252ad1be2c89b69c2b068fc378daa952ba7f163c4a11628f55a4df523b3ef",
            "0x0000000000000000000000000000000000000000000000000000000000000000",
            "0x000000000000000000000000c77f7fed3b5cc8249adc428c5f44c9063b9734b4"
          ],
          "data": "0x00000000000000000000000000000000000000000000000029832744dda3ff9b",
          "blockHash": "0x00db888047ef4013e84dcce7e053abe2efb7be024e05a65be8e2e6792e8e6e26",
          "blockNumber": "0x724f54",
          "transactionHash": "0x855a9ad5b6494f9cc8c0178dcfb94b29ef0c2d063771c66b4339c01310bd2534",
          "transactionIndex": "0x5a",
          "logIndex": "0x98",
          "removed": false
        },
        {
          "address": "0x5eb9cc76c3506942c1c0ead70e877dd5e4f00cb0",
          "topics": [
            "0x4afcb4a87cdbd9974efdb92ee48bc8d7cd0ae4bf217004db3d080cbaee652ca7"
          ],
          "data": "0x000000000000000000000000000000000000000000000000000000006786a9a40000000000000000000000000000000000000000000000000003910f52c645630000000000000000000000000000000000000000000000000de0b6b3a7640000",
          "blockHash": "0x00db888047ef4013e84dcce7e053abe2efb7be024e05a65be8e2e6792e8e6e26",
          "blockNumber": "0x724f54",
          "transactionHash": "0x855a9ad5b6494f9cc8c0178dcfb94b29ef0c2d063771c66b4339c01310bd2534",
          "transactionIndex": "0x5a",
          "logIndex": "0x99",
          "removed": false
        }
      ],
      "logsBloom": "0x00000000000000000000000000000000000000000000000000000000000000000000000000000000000000000000000000000000000000004000000000000000000000000000000000000008000000000000000000000000000000000000000000000000020000000000000004000800020000000000000000000010000000000000000000000000000000000000000000000000000000000000010000000000000000000000000000000000000000004000000000000000000000000000020000000002000000800000008000000000000000000000080000000000000020000000000000000000000000000000000000000000000000000000000000000000",
      "type": "0x2",
      "transactionHash": "0x855a9ad5b6494f9cc8c0178dcfb94b29ef0c2d063771c66b4339c01310bd2534",
      "transactionIndex": "0x5a",
      "blockHash": "0x00db888047ef4013e84dcce7e053abe2efb7be024e05a65be8e2e6792e8e6e26",
      "blockNumber": "0x724f54",
      "gasUsed": "0x13af8",
      "effectiveGasPrice": "0x5549d290e",
      "from": "0xc77f7fed3b5cc8249adc428c5f44c9063b9734b4",
      "to": "0x5eb9cc76c3506942c1c0ead70e877dd5e4f00cb0",
      "contractAddress": null
    }
  ],
  "libraries": [],
  "pending": [],
  "returns": {},
  "timestamp": 1736878502,
  "chain": 11155111,
  "commit": "51a374b"
}