{
  "transactions": [
    {
      "hash": "0xcabaf9447361b1fff79269a78906d2d418531b2229eca0e1ea39c6f763ef6b3f",
      "transactionType": "CALL",
      "contractName": null,
      "contractAddress": "0x270e88f8683660553e8ba4eb2ad7c91a1710d769",
      "function": "buy(address)",
      "arguments": [
        "0xC77f7fed3b5Cc8249aDc428c5F44C9063B9734b4"
      ],
      "transaction": {
        "from": "0xc77f7fed3b5cc8249adc428c5f44c9063b9734b4",
        "to": "0x270e88f8683660553e8ba4eb2ad7c91a1710d769",
        "gas": "0x1b30c",
        "value": "0xde0b6b3a7640000",
        "input": "0xf088d547000000000000000000000000c77f7fed3b5cc8249adc428c5f44c9063b9734b4",
        "nonce": "0x7a1",
        "chainId": "0xaa36a7"
      },
      "additionalContracts": [],
      "isFixedGasLimit": false
    }
  ],
  "receipts": [
    {
      "status": "0x1",
      "cumulativeGasUsed": "0x13d7272",
      "logs": [
        {
          "address": "0x270e88f8683660553e8ba4eb2ad7c91a1710d769",
          "topics": [
            "0xddf252ad1be2c89b69c2b068fc378daa952ba7f163c4a11628f55a4df523b3ef",
            "0x0000000000000000000000000000000000000000000000000000000000000000",
            "0x000000000000000000000000c77f7fed3b5cc8249adc428c5f44c9063b9734b4"
          ],
          "data": "0x00000000000000000000000000000000000000000000002781c08bb0a763f7f3",
          "blockHash": "0x85b9bf3f88e88d4e4e3a6a52c214955d522c88a680f240e4550c40365c0df37d",
          "blockNumber": "0x7254d5",
          "transactionHash": "0xcabaf9447361b1fff79269a78906d2d418531b2229eca0e1ea39c6f763ef6b3f",
          "transactionIndex": "0x5f",
          "logIndex": "0xa9",
          "removed": false
        },
        {
          "address": "0x270e88f8683660553e8ba4eb2ad7c91a1710d769",
          "topics": [
            "0xddf252ad1be2c89b69c2b068fc378daa952ba7f163c4a11628f55a4df523b3ef",
            "0x0000000000000000000000000000000000000000000000000000000000000000",
            "0x000000000000000000000000c77f7fed3b5cc8249adc428c5f44c9063b9734b4"
          ],
          "data": "0x0000000000000000000000000000000000000000000000001eadac6b138a64f0",
          "blockHash": "0x85b9bf3f88e88d4e4e3a6a52c214955d522c88a680f240e4550c40365c0df37d",
          "blockNumber": "0x7254d5",
          "transactionHash": "0xcabaf9447361b1fff79269a78906d2d418531b2229eca0e1ea39c6f763ef6b3f",
          "transactionIndex": "0x5f",
          "logIndex": "0xaa",
          "removed": false
        },
        {
          "address": "0x270e88f8683660553e8ba4eb2ad7c91a1710d769",
          "topics": [
            "0x4afcb4a87cdbd9974efdb92ee48bc8d7cd0ae4bf217004db3d080cbaee652ca7"
          ],
          "data": "0x000000000000000000000000000000000000000000000000000000006786ec040000000000000000000000000000000000000000000000000004d39b3ac740d50000000000000000000000000000000000000000000000000de0b6b3a7640000",
          "blockHash": "0x85b9bf3f88e88d4e4e3a6a52c214955d522c88a680f240e4550c40365c0df37d",
          "blockNumber": "0x7254d5",
          "transactionHash": "0xcabaf9447361b1fff79269a78906d2d418531b2229eca0e1ea39c6f763ef6b3f",
          "transactionIndex": "0x5f",
          "logIndex": "0xab",
          "removed": false
        }
      ],
      "logsBloom": "0x00000000000000000000000000000000000000000000000000000000000000000000000000000000000000000000000020000000000000004000000000000000000000000000000000000008000000000000000000000000000000000000000000000000020000000000000000000800020000000000000000000010000000000000000000010000000000000000000000000000000000000000010000000000000000000000000000000000000000004000000000000000000000000000000000000002000000800000000000000000000000000000080000008000000020000000000000000000000000000000000000000000000000000000000000000000",
      "type": "0x2",
      "transactionHash": "0xcabaf9447361b1fff79269a78906d2d418531b2229eca0e1ea39c6f763ef6b3f",
      "transactionIndex": "0x5f",
      "blockHash": "0x85b9bf3f88e88d4e4e3a6a52c214955d522c88a680f240e4550c40365c0df37d",
      "blockNumber": "0x7254d5",
      "gasUsed": "0x13af8",
      "effectiveGasPrice": "0xd8093228",
      "from": "0xc77f7fed3b5cc8249adc428c5f44c9063b9734b4",
      "to": "0x270e88f8683660553e8ba4eb2ad7c91a1710d769",
      "contractAddress": null
    }
  ],
  "libraries": [],
  "pending": [],
  "returns": {},
  "timestamp": 1736895494,
  "chain": 11155111,
  "commit": "51a374b"
}