{
  "transactions": [
    {
      "hash": "0x566d42cf45ae8c18d22e421df907e2cc6ee523db44c24c544f3856f0a0e6e27f",
      "transactionType": "CALL",
      "contractName": null,
      "contractAddress": "0xbf4a322f1496e5c3d34a9bcdb4c60567b38c7de2",
      "function": "sell(uint256)",
      "arguments": [
        "987808106413514038495"
      ],
      "transaction": {
        "from": "0xc77f7fed3b5cc8249adc428c5f44c9063b9734b4",
        "to": "0xbf4a322f1496e5c3d34a9bcdb4c60567b38c7de2",
        "gas": "0x16fea",
        "value": "0x0",
        "input": "0xe4849b320000000000000000000000000000000000000000000000358c975f26c4c41cdf",
        "nonce": "0x9d7",
        "chainId": "0xaa36a7"
      },
      "additionalContracts": [],
      "isFixedGasLimit": false
    }
  ],
  "receipts": [
    {
      "status": "0x1",
      "cumulativeGasUsed": "0xab38fe",
      "logs": [
        {
          "address": "0xbf4a322f1496e5c3d34a9bcdb4c60567b38c7de2",
          "topics": [
            "0xddf252ad1be2c89b69c2b068fc378daa952ba7f163c4a11628f55a4df523b3ef",
            "0x000000000000000000000000c77f7fed3b5cc8249adc428c5f44c9063b9734b4",
            "0x0000000000000000000000000000000000000000000000000000000000000000"
          ],
          "data": "0x0000000000000000000000000000000000000000000000358c975f26c4c41cdf",
          "blockHash": "0xc5a97628dbee4b5809436e3b50a8c7933acc5b747e70b60533e369cb55f6e6f3",
          "blockNumber": "0x725989",
          "transactionHash": "0x566d42cf45ae8c18d22e421df907e2cc6ee523db44c24c544f3856f0a0e6e27f",
          "transactionIndex": "0x6f",
          "logIndex": "0xd5",
          "removed": false
        },
        {
          "address": "0xbf4a322f1496e5c3d34a9bcdb4c60567b38c7de2",
          "topics": [
            "0x4afcb4a87cdbd9974efdb92ee48bc8d7cd0ae4bf217004db3d080cbaee652ca7"
          ],
          "data": "0x00000000000000000000000000000000000000000000000000000000678724a40000000000000000000000000000000000000000000000000003924d9154b89e0000000000000000000000000000000000000000000000000dc7e3f4385fde8b",
          "blockHash": "0xc5a97628dbee4b5809436e3b50a8c7933acc5b747e70b60533e369cb55f6e6f3",
          "blockNumber": "0x725989",
          "transactionHash": "0x566d42cf45ae8c18d22e421df907e2cc6ee523db44c24c544f3856f0a0e6e27f",
          "transactionIndex": "0x6f",
          "logIndex": "0xd6",
          "removed": false
        }
      ],
      "logsBloom": "0x00000000000000000000000000000000000000000000000000000000000000000000000000000000000000000000000000000000000000004000000000000000000000000000000000000008000000000000001000000000000000000000000000000000020000000000000000000800020000000000000000000010000000000000000000000000000000000000000000000000000008000000010000000000000000000000000000000000000000004000000000000000000000000000000000000002000000800000000000001000000000000000080000000000000020000000000000000000000000000000000000000000000000000000000000000000",
      "type": "0x2",
      "transactionHash": "0x566d42cf45ae8c18d22e421df907e2cc6ee523db44c24c544f3856f0a0e6e27f",
      "transactionIndex": "0x6f",
      "blockHash": "0xc5a97628dbee4b5809436e3b50a8c7933acc5b747e70b60533e369cb55f6e6f3",
      "blockNumber": "0x725989",
      "gasUsed": "0xfb91",
      "effectiveGasPrice": "0x2a5715987",
      "from": "0xc77f7fed3b5cc8249adc428c5f44c9063b9734b4",
      "to": "0xbf4a322f1496e5c3d34a9bcdb4c60567b38c7de2",
      "contractAddress": null
    }
  ],
  "libraries": [],
  "pending": [],
  "returns": {},
  "timestamp": 1736909988,
  "chain": 11155111,
  "commit": "51a374b"
}