{
  "transactions": [
    {
      "hash": "0xa2bd66899fc220434ddb6aabcc253a84090dcb9e220240ca636c96f08c3dbc29",
      "transactionType": "CALL",
      "contractName": null,
      "contractAddress": "0x8aafd3ede9adb0ff97c7aebce82a919afb1c8764",
      "function": "sell(uint256)",
      "arguments": [
        "22473082866"
      ],
      "transaction": {
        "from": "0xc77f7fed3b5cc8249adc428c5f44c9063b9734b4",
        "to": "0x8aafd3ede9adb0ff97c7aebce82a919afb1c8764",
        "gas": "0x1722a",
        "value": "0x0",
        "input": "0xe4849b32000000000000000000000000000000000000000000000000000000053b8007f2",
        "nonce": "0x11b8",
        "chainId": "0xaa36a7"
      },
      "additionalContracts": [],
      "isFixedGasLimit": false
    }
  ],
  "receipts": [
    {
      "status": "0x1",
      "cumulativeGasUsed": "0xdc4081",
      "logs": [
        {
          "address": "0x8aafd3ede9adb0ff97c7aebce82a919afb1c8764",
          "topics": [
            "0xddf252ad1be2c89b69c2b068fc378daa952ba7f163c4a11628f55a4df523b3ef",
            "0x000000000000000000000000c77f7fed3b5cc8249adc428c5f44c9063b9734b4",
            "0x0000000000000000000000000000000000000000000000000000000000000000"
          ],
          "data": "0x0000000000000000000000000000000000000000000000000000000530c8bc1c",
          "blockHash": "0x52d4c21d3ef19786dcfd428933be228f2d89ce01681ee3f75d04eeac89065555",
          "blockNumber": "0x731886",
          "transactionHash": "0xa2bd66899fc220434ddb6aabcc253a84090dcb9e220240ca636c96f08c3dbc29",
          "transactionIndex": "0x92",
          "logIndex": "0xbd",
          "removed": false
        },
        {
          "address": "0x8aafd3ede9adb0ff97c7aebce82a919afb1c8764",
          "topics": [
            "0xddf252ad1be2c89b69c2b068fc378daa952ba7f163c4a11628f55a4df523b3ef",
            "0x000000000000000000000000c77f7fed3b5cc8249adc428c5f44c9063b9734b4",
            "0x000000000000000000000000c77f7fed3b5cc8249adc428c5f44c9063b9734b4"
          ],
          "data": "0x000000000000000000000000000000000000000000000000000000000ab74bd6",
          "blockHash": "0x52d4c21d3ef19786dcfd428933be228f2d89ce01681ee3f75d04eeac89065555",
          "blockNumber": "0x731886",
          "transactionHash": "0xa2bd66899fc220434ddb6aabcc253a84090dcb9e220240ca636c96f08c3dbc29",
          "transactionIndex": "0x92",
          "logIndex": "0xbe",
          "removed": false
        },
        {
          "address": "0x8aafd3ede9adb0ff97c7aebce82a919afb1c8764",
          "topics": [
            "0x4afcb4a87cdbd9974efdb92ee48bc8d7cd0ae4bf217004db3d080cbaee652ca7"
          ],
          "data": "0x00000000000000000000000000000000000000000000000000000000679023180000000000000000000000000000000000000000000000000005264ede4e645f0000000000000000000000000000000000000000000000000000000001f10c9e",
          "blockHash": "0x52d4c21d3ef19786dcfd428933be228f2d89ce01681ee3f75d04eeac89065555",
          "blockNumber": "0x731886",
          "transactionHash": "0xa2bd66899fc220434ddb6aabcc253a84090dcb9e220240ca636c96f08c3dbc29",
          "transactionIndex": "0x92",
          "logIndex": "0xbf",
          "removed": false
        }
      ],
      "logsBloom": "0x00000000000000000000000000000000000000000600000000000000000000000000000000000000000000000000000000000000000000004000000000000000000000000000004000000008000000000000000000000000000000000000000000000000020000000000000000000800020000000000000000000010000000000000000000000000000000000000000000000000000000000000010000000000000000000000000000000000000000004000000000000000000000000000000000000002000000800000000000000000000000000000080000000000000020000000000000000000000000000000000000000000000000000000000000000000",
      "type": "0x2",
      "transactionHash": "0xa2bd66899fc220434ddb6aabcc253a84090dcb9e220240ca636c96f08c3dbc29",
      "transactionIndex": "0x92",
      "blockHash": "0x52d4c21d3ef19786dcfd428933be228f2d89ce01681ee3f75d04eeac89065555",
      "blockNumber": "0x731886",
      "gasUsed": "0xfd1b",
      "effectiveGasPrice": "0x3f41fda3",
      "from": "0xc77f7fed3b5cc8249adc428c5f44c9063b9734b4",
      "to": "0x8aafd3ede9adb0ff97c7aebce82a919afb1c8764",
      "contractAddress": null
    }
  ],
  "libraries": [],
  "pending": [],
  "returns": {},
  "timestamp": 1737499418,
  "chain": 11155111,
  "commit": "1d2fb70"
}