{
  "transactions": [
    {
      "hash": "0xe54d6bafd3fdb977b0e2bf6f123b7b549108a63ddef2f824f1488e0dc5b8ecb4",
      "transactionType": "CALL",
      "contractName": null,
      "contractAddress": "0x5eb9cc76c3506942c1c0ead70e877dd5e4f00cb0",
      "function": "sell(uint256)",
      "arguments": [
        "989156413377219305255"
      ],
      "transaction": {
        "from": "0xc77f7fed3b5cc8249adc428c5f44c9063b9734b4",
        "to": "0x5eb9cc76c3506942c1c0ead70e877dd5e4f00cb0",
        "gas": "0x16fec",
        "value": "0x0",
        "input": "0xe4849b320000000000000000000000000000000000000000000000359f4d8530f89a9f27",
        "nonce": "0x29f",
        "chainId": "0xaa36a7"
      },
      "additionalContracts": [],
      "isFixedGasLimit": false
    }
  ],
  "receipts": [
    {
      "status": "0x1",
      "cumulativeGasUsed": "0xc5c9bf",
      "logs": [
        {
          "address": "0x5eb9cc76c3506942c1c0ead70e877dd5e4f00cb0",
          "topics": [
            "0xddf252ad1be2c89b69c2b068fc378daa952ba7f163c4a11628f55a4df523b3ef",
            "0x000000000000000000000000c77f7fed3b5cc8249adc428c5f44c9063b9734b4",
            "0x0000000000000000000000000000000000000000000000000000000000000000"
          ],
          "data": "0x0000000000000000000000000000000000000000000000359f4d8530f89a9f27",
          "blockHash": "0x880e2bec0b712f8f04d1d4b864a35b597aa4e61061c804ac34759e321ff4aa68",
          "blockNumber": "0x724e75",
          "transactionHash": "0xe54d6bafd3fdb977b0e2bf6f123b7b549108a63ddef2f824f1488e0dc5b8ecb4",
          "transactionIndex": "0x59",
          "logIndex": "0x78",
          "removed": false
        },
        {
          "address": "0x5eb9cc76c3506942c1c0ead70e877dd5e4f00cb0",
          "topics": [
            "0x4afcb4a87cdbd9974efdb92ee48bc8d7cd0ae4bf217004db3d080cbaee652ca7"
          ],
          "data": "0x0000000000000000000000000000000000000000000000000000000067869f3000000000000000000000000000000000000000000000000000039108241422780000000000000000000000000000000000000000000000000dc7db13324bd41b",
          "blockHash": "0x880e2bec0b712f8f04d1d4b864a35b597aa4e61061c804ac34759e321ff4aa68",
          "blockNumber": "0x724e75",
          "transactionHash": "0xe54d6bafd3fdb977b0e2bf6f123b7b549108a63ddef2f824f1488e0dc5b8ecb4",
          "transactionIndex": "0x59",
          "logIndex": "0x79",
          "removed": false
        }
      ],
      "logsBloom": "0x00000000000000000000000000000000000000000000000000000000000000000000000000000000000000000000000000000000000000004000000000000000000000000000000000000008000000000000000000000000000000000000000000000000020000000000000004000800020000000000000000000010000000000000000000000000000000000000000000000000000000000000010000000000000000000000000000000000000000004000000000000000000000000000020000000002000000800000008000000000000000000000080000000000000020000000000000000000000000000000000000000000000000000000000000000000",
      "type": "0x2",
      "transactionHash": "0xe54d6bafd3fdb977b0e2bf6f123b7b549108a63ddef2f824f1488e0dc5b8ecb4",
      "transactionIndex": "0x59",
      "blockHash": "0x880e2bec0b712f8f04d1d4b864a35b597aa4e61061c804ac34759e321ff4aa68",
      "blockNumber": "0x724e75",
      "gasUsed": "0xfb93",
      "effectiveGasPrice": "0x433849549",
      "from": "0xc77f7fed3b5cc8249adc428c5f44c9063b9734b4",
      "to": "0x5eb9cc76c3506942c1c0ead70e877dd5e4f00cb0",
      "contractAddress": null
    }
  ],
  "libraries": [],
  "pending": [],
  "returns": {},
  "timestamp": 1736875825,
  "chain": 11155111,
  "commit": "51a374b"
}