{
  "transactions": [
    {
      "hash": "0xa872132225cd529f4aceff916ccc706c7bd6f7ca33640dd2453f5cc123647241",
      "transactionType": "CALL",
      "contractName": null,
      "contractAddress": "0x8aafd3ede9adb0ff97c7aebce82a919afb1c8764",
      "function": "sell(uint256)",
      "arguments": [
        "53106817"
      ],
      "transaction": {
        "from": "0xc77f7fed3b5cc8249adc428c5f44c9063b9734b4",
        "to": "0x8aafd3ede9adb0ff97c7aebce82a919afb1c8764",
        "gas": "0x15d88",
        "value": "0x0",
        "input": "0xe4849b3200000000000000000000000000000000000000000000000000000000032a5881",
        "nonce": "0x1529",
        "chainId": "0xaa36a7"
      },
      "additionalContracts": [],
      "isFixedGasLimit": false
    }
  ],
  "receipts": [
    {
      "status": "0x1",
      "cumulativeGasUsed": "0x17f83d6",
      "logs": [
        {
          "address": "0x8aafd3ede9adb0ff97c7aebce82a919afb1c8764",
          "topics": [
            "0xddf252ad1be2c89b69c2b068fc378daa952ba7f163c4a11628f55a4df523b3ef",
            "0x000000000000000000000000c77f7fed3b5cc8249adc428c5f44c9063b9734b4",
            "0x0000000000000000000000000000000000000000000000000000000000000000"
          ],
          "data": "0x000000000000000000000000000000000000000000000000000000000323dceb",
          "blockHash": "0x69dbcea522396b4a93c7f88708da6851f7f45584d4b554d059df9574b1ac9b86",
          "blockNumber": "0x731c8b",
          "transactionHash": "0xa872132225cd529f4aceff916ccc706c7bd6f7ca33640dd2453f5cc123647241",
          "transactionIndex": "0x9c",
          "logIndex": "0x119",
          "removed": false
        },
        {
          "address": "0x8aafd3ede9adb0ff97c7aebce82a919afb1c8764",
          "topics": [
            "0xddf252ad1be2c89b69c2b068fc378daa952ba7f163c4a11628f55a4df523b3ef",
            "0x000000000000000000000000c77f7fed3b5cc8249adc428c5f44c9063b9734b4",
            "0x000000000000000000000000c77f7fed3b5cc8249adc428c5f44c9063b9734b4"
          ],
          "data": "0x0000000000000000000000000000000000000000000000000000000000067b96",
          "blockHash": "0x69dbcea522396b4a93c7f88708da6851f7f45584d4b554d059df9574b1ac9b86",
          "blockNumber": "0x731c8b",
          "transactionHash": "0xa872132225cd529f4aceff916ccc706c7bd6f7ca33640dd2453f5cc123647241",
          "transactionIndex": "0x9c",
          "logIndex": "0x11a",
          "removed": false
        },
        {
          "address": "0x8aafd3ede9adb0ff97c7aebce82a919afb1c8764",
          "topics": [
            "0x4afcb4a87cdbd9974efdb92ee48bc8d7cd0ae4bf217004db3d080cbaee652ca7"
          ],
          "data": "0x0000000000000000000000000000000000000000000000000000000067905360000000000000000000000000000000000000000000000000001184953f724e71000000000000000000000000000000000000000000000000000000000003fee5",
          "blockHash": "0x69dbcea522396b4a93c7f88708da6851f7f45584d4b554d059df9574b1ac9b86",
          "blockNumber": "0x731c8b",
          "transactionHash": "0xa872132225cd529f4aceff916ccc706c7bd6f7ca33640dd2453f5cc123647241",
          "transactionIndex": "0x9c",
          "logIndex": "0x11b",
          "removed": false
        }
      ],
      "logsBloom": "0x00000000000000000000000000000000000000000600000000000000000000000000000000000000000000000000000000000000000000004000000000000000000000000000004000000008000000000000000000000000000000000000000000000000020000000000000000000800020000000000000000000010000000000000000000000000000000000000000000000000000000000000010000000000000000000000000000000000000000004000000000000000000000000000000000000002000000800000000000000000000000000000080000000000000020000000000000000000000000000000000000000000000000000000000000000000",
      "type": "0x2",
      "transactionHash": "0xa872132225cd529f4aceff916ccc706c7bd6f7ca33640dd2453f5cc123647241",
      "transactionIndex": "0x9c",
      "blockHash": "0x69dbcea522396b4a93c7f88708da6851f7f45584d4b554d059df9574b1ac9b86",
      "blockNumber": "0x731c8b",
      "gasUsed": "0xfd0f",
      "effectiveGasPrice": "0xfcfb30e5",
      "from": "0xc77f7fed3b5cc8249adc428c5f44c9063b9734b4",
      "to": "0x8aafd3ede9adb0ff97c7aebce82a919afb1c8764",
      "contractAddress": null
    }
  ],
  "libraries": [],
  "pending": [],
  "returns": {},
  "timestamp": 1737511777,
  "chain": 11155111,
  "commit": "1d2fb70"
}