{
  "transactions": [
    {
      "hash": "0xe825d5c43e387d9724c11d46c01cc6c97661de437725a4292bc76cce7085d34f",
      "transactionType": "CALL",
      "contractName": null,
      "contractAddress": "0x8aafd3ede9adb0ff97c7aebce82a919afb1c8764",
      "function": "sell(uint256)",
      "arguments": [
        "410170"
      ],
      "transaction": {
        "from": "0xc77f7fed3b5cc8249adc428c5f44c9063b9734b4",
        "to": "0x8aafd3ede9adb0ff97c7aebce82a919afb1c8764",
        "gas": "0x16208",
        "value": "0x0",
        "input": "0xe4849b32000000000000000000000000000000000000000000000000000000000006423a",
        "nonce": "0x1560",
        "chainId": "0xaa36a7"
      },
      "additionalContracts": [],
      "isFixedGasLimit": false
    }
  ],
  "receipts": [
    {
      "status": "0x1",
      "cumulativeGasUsed": "0xb961b2",
      "logs": [
        {
          "address": "0x8aafd3ede9adb0ff97c7aebce82a919afb1c8764",
          "topics": [
            "0xddf252ad1be2c89b69c2b068fc378daa952ba7f163c4a11628f55a4df523b3ef",
            "0x000000000000000000000000c77f7fed3b5cc8249adc428c5f44c9063b9734b4",
            "0x0000000000000000000000000000000000000000000000000000000000000000"
          ],
          "data": "0x0000000000000000000000000000000000000000000000000000000000063569",
          "blockHash": "0x49e667cbf5af383396726f9f03875af42d888c39e02b8133d1feb1ca8374d29d",
          "blockNumber": "0x731cc8",
          "transactionHash": "0xe825d5c43e387d9724c11d46c01cc6c97661de437725a4292bc76cce7085d34f",
          "transactionIndex": "0x85",
          "logIndex": "0xe1",
          "removed": false
        },
        {
          "address": "0x8aafd3ede9adb0ff97c7aebce82a919afb1c8764",
          "topics": [
            "0xddf252ad1be2c89b69c2b068fc378daa952ba7f163c4a11628f55a4df523b3ef",
            "0x000000000000000000000000c77f7fed3b5cc8249adc428c5f44c9063b9734b4",
            "0x000000000000000000000000c77f7fed3b5cc8249adc428c5f44c9063b9734b4"
          ],
          "data": "0x0000000000000000000000000000000000000000000000000000000000000cd1",
          "blockHash": "0x49e667cbf5af383396726f9f03875af42d888c39e02b8133d1feb1ca8374d29d",
          "blockNumber": "0x731cc8",
          "transactionHash": "0xe825d5c43e387d9724c11d46c01cc6c97661de437725a4292bc76cce7085d34f",
          "transactionIndex": "0x85",
          "logIndex": "0xe2",
          "removed": false
        },
        {
          "address": "0x8aafd3ede9adb0ff97c7aebce82a919afb1c8764",
          "topics": [
            "0x4afcb4a87cdbd9974efdb92ee48bc8d7cd0ae4bf217004db3d080cbaee652ca7"
          ],
          "data": "0x00000000000000000000000000000000000000000000000000000000679056480000000000000000000000000000000000000000000000000012243b000e046a000000000000000000000000000000000000000000000000000000000000082e",
          "blockHash": "0x49e667cbf5af383396726f9f03875af42d888c39e02b8133d1feb1ca8374d29d",
          "blockNumber": "0x731cc8",
          "transactionHash": "0xe825d5c43e387d9724c11d46c01cc6c97661de437725a4292bc76cce7085d34f",
          "transactionIndex": "0x85",
          "logIndex": "0xe3",
          "removed": false
        }
      ],
      "logsBloom": "0x00000000000000000000000000000000000000000600000000000000000000000000000000000000000000000000000000000000000000004000000000000000000000000000004000000008000000000000000000000000000000000000000000000000020000000000000000000800020000000000000000000010000000000000000000000000000000000000000000000000000000000000010000000000000000000000000000000000000000004000000000000000000000000000000000000002000000800000000000000000000000000000080000000000000020000000000000000000000000000000000000000000000000000000000000000000",
      "type": "0x2",
      "transactionHash": "0xe825d5c43e387d9724c11d46c01cc6c97661de437725a4292bc76cce7085d34f",
      "transactionIndex": "0x85",
      "blockHash": "0x49e667cbf5af383396726f9f03875af42d888c39e02b8133d1feb1ca8374d29d",
      "blockNumber": "0x731cc8",
      "gasUsed": "0xf213",
      "effectiveGasPrice": "0x9fe7e972",
      "from": "0xc77f7fed3b5cc8249adc428c5f44c9063b9734b4",
      "to": "0x8aafd3ede9adb0ff97c7aebce82a919afb1c8764",
      "contractAddress": null
    }
  ],
  "libraries": [],
  "pending": [],
  "returns": {},
  "timestamp": 1737512521,
  "chain": 11155111,
  "commit": "1d2fb70"
}