{
  "transactions": [
    {
      "hash": "0xc4921898f18ad38b7cba3afbd172312580be65fc27db3a4782256bb74e8b7017",
      "transactionType": "CALL",
      "contractName": null,
      "contractAddress": "0x5eb9cc76c3506942c1c0ead70e877dd5e4f00cb0",
      "function": "sell(uint256)",
      "arguments": [
        "989130277139057250807"
      ],
      "transaction": {
        "from": "0xc77f7fed3b5cc8249adc428c5f44c9063b9734b4",
        "to": "0x5eb9cc76c3506942c1c0ead70e877dd5e4f00cb0",
        "gas": "0x16fec",
        "value": "0x0",
        "input": "0xe4849b320000000000000000000000000000000000000000000000359ef0aa6bd13091f7",
        "nonce": "0x343",
        "chainId": "0xaa36a7"
      },
      "additionalContracts": [],
      "isFixedGasLimit": false
    }
  ],
  "receipts": [
    {
      "status": "0x1",
      "cumulativeGasUsed": "0xca7dc0",
      "logs": [
        {
          "address": "0x5eb9cc76c3506942c1c0ead70e877dd5e4f00cb0",
          "topics": [
            "0xddf252ad1be2c89b69c2b068fc378daa952ba7f163c4a11628f55a4df523b3ef",
            "0x000000000000000000000000c77f7fed3b5cc8249adc428c5f44c9063b9734b4",
            "0x0000000000000000000000000000000000000000000000000000000000000000"
          ],
          "data": "0x0000000000000000000000000000000000000000000000359ef0aa6bd13091f7",
          "blockHash": "0x4c10f2896589aa8159277b602e6ace2c18194de7b72c7d0958502c71dc816989",
          "blockNumber": "0x724f32",
          "transactionHash": "0xc4921898f18ad38b7cba3afbd172312580be65fc27db3a4782256bb74e8b7017",
          "transactionIndex": "0x76",
          "logIndex": "0x93",
          "removed": false
        },
        {
          "address": "0x5eb9cc76c3506942c1c0ead70e877dd5e4f00cb0",
          "topics": [
            "0x4afcb4a87cdbd9974efdb92ee48bc8d7cd0ae4bf217004db3d080cbaee652ca7"
          ],
          "data": "0x000000000000000000000000000000000000000000000000000000006786a80c0000000000000000000000000000000000000000000000000003910e5129f3370000000000000000000000000000000000000000000000000dc7db13321d5290",
          "blockHash": "0x4c10f2896589aa8159277b602e6ace2c18194de7b72c7d0958502c71dc816989",
          "blockNumber": "0x724f32",
          "transactionHash": "0xc4921898f18ad38b7cba3afbd172312580be65fc27db3a4782256bb74e8b7017",
          "transactionIndex": "0x76",
          "logIndex": "0x94",
          "removed": false
        }
      ],
      "logsBloom": "0x00000000000000000000000000000000000000000000000000000000000000000000000000000000000000000000000000000000000000004000000000000000000000000000000000000008000000000000000000000000000000000000000000000000020000000000000004000800020000000000000000000010000000000000000000000000000000000000000000000000000000000000010000000000000000000000000000000000000000004000000000000000000000000000020000000002000000800000008000000000000000000000080000000000000020000000000000000000000000000000000000000000000000000000000000000000",
      "type": "0x2",
      "transactionHash": "0xc4921898f18ad38b7cba3afbd172312580be65fc27db3a4782256bb74e8b7017",
      "transactionIndex": "0x76",
      "blockHash": "0x4c10f2896589aa8159277b602e6ace2c18194de7b72c7d0958502c71dc816989",
      "blockNumber": "0x724f32",
      "gasUsed": "0xfb93",
      "effectiveGasPrice": "0x603b84bb0",
      "from": "0xc77f7fed3b5cc8249adc428c5f44c9063b9734b4",
      "to": "0x5eb9cc76c3506942c1c0ead70e877dd5e4f00cb0",
      "contractAddress": null
    }
  ],
  "libraries": [],
  "pending": [],
  "returns": {},
  "timestamp": 1736878094,
  "chain": 11155111,
  "commit": "51a374b"
}