{
  "transactions": [
    {
      "hash": "0xf68d1724f89f939d5c673bc5aca9447da307aa26669b427e7f34c5d3f4e555e1",
      "transactionType": "CALL",
      "contractName": null,
      "contractAddress": "0x8aafd3ede9adb0ff97c7aebce82a919afb1c8764",
      "function": "sell(uint256)",
      "arguments": [
        "665981425011887133853"
      ],
      "transaction": {
        "from": "0xc77f7fed3b5cc8249adc428c5f44c9063b9734b4",
        "to": "0x8aafd3ede9adb0ff97c7aebce82a919afb1c8764",
        "gas": "0x17270",
        "value": "0x0",
        "input": "0xe4849b320000000000000000000000000000000000000000000000241a59518709fb549d",
        "nonce": "0x12c1",
        "chainId": "0xaa36a7"
      },
      "additionalContracts": [],
      "isFixedGasLimit": false
    }
  ],
  "receipts": [
    {
      "status": "0x1",
      "cumulativeGasUsed": "0xa66a7c",
      "logs": [
        {
          "address": "0x8aafd3ede9adb0ff97c7aebce82a919afb1c8764",
          "topics": [
            "0xddf252ad1be2c89b69c2b068fc378daa952ba7f163c4a11628f55a4df523b3ef",
            "0x000000000000000000000000c77f7fed3b5cc8249adc428c5f44c9063b9734b4",
            "0x0000000000000000000000000000000000000000000000000000000000000000"
          ],
          "data": "0x000000000000000000000000000000000000000000000023d068fce8433ef3af",
          "blockHash": "0x199d03ffeac056aeb2de9ed1439f0d5d3bb219d9ea632818be5f2f17fa10fea2",
          "blockNumber": "0x7319ba",
          "transactionHash": "0xf68d1724f89f939d5c673bc5aca9447da307aa26669b427e7f34c5d3f4e555e1",
          "transactionIndex": "0x75",
          "logIndex": "0x82",
          "removed": false
        },
        {
          "address": "0x8aafd3ede9adb0ff97c7aebce82a919afb1c8764",
          "topics": [
            "0xddf252ad1be2c89b69c2b068fc378daa952ba7f163c4a11628f55a4df523b3ef",
            "0x000000000000000000000000c77f7fed3b5cc8249adc428c5f44c9063b9734b4",
            "0x000000000000000000000000c77f7fed3b5cc8249adc428c5f44c9063b9734b4"
          ],
          "data": "0x00000000000000000000000000000000000000000000000049f0549ec6bc60ee",
          "blockHash": "0x199d03ffeac056aeb2de9ed1439f0d5d3bb219d9ea632818be5f2f17fa10fea2",
          "blockNumber": "0x7319ba",
          "transactionHash": "0xf68d1724f89f939d5c673bc5aca9447da307aa26669b427e7f34c5d3f4e555e1",
          "transactionIndex": "0x75",
          "logIndex": "0x83",
          "removed": false
        },
        {
          "address": "0x8aafd3ede9adb0ff97c7aebce82a919afb1c8764",
          "topics": [
            "0x4afcb4a87cdbd9974efdb92ee48bc8d7cd0ae4bf217004db3d080cbaee652ca7"
          ],
          "data": "0x000000000000000000000000000000000000000000000000000000006790318800000000000000000000000000000000000000000000000000054d8910028ebe0000000000000000000000000000000000000000000000000dc8ec51614c102b",
          "blockHash": "0x199d03ffeac056aeb2de9ed1439f0d5d3bb219d9ea632818be5f2f17fa10fea2",
          "blockNumber": "0x7319ba",
          "transactionHash": "0xf68d1724f89f939d5c673bc5aca9447da307aa26669b427e7f34c5d3f4e555e1",
          "transactionIndex": "0x75",
          "logIndex": "0x84",
          "removed": false
        }
      ],
      "logsBloom": "0x00000000000000000000000000000000000000000600000000000000000000000000000000000000000000000000000000000000000000004000000000000000000000000000004000000008000000000000000000000000000000000000000000000000020000000000000000000800020000000000000000000010000000000000000000000000000000000000000000000000000000000000010000000000000000000000000000000000000000004000000000000000000000000000000000000002000000800000000000000000000000000000080000000000000020000000000000000000000000000000000000000000000000000000000000000000",
      "type": "0x2",
      "transactionHash": "0xf68d1724f89f939d5c673bc5aca9447da307aa26669b427e7f34c5d3f4e555e1",
      "transactionIndex": "0x75",
      "blockHash": "0x199d03ffeac056aeb2de9ed1439f0d5d3bb219d9ea632818be5f2f17fa10fea2",
      "blockNumber": "0x7319ba",
      "gasUsed": "0xfd4b",
      "effectiveGasPrice": "0x48db33a2",
      "from": "0xc77f7fed3b5cc8249adc428c5f44c9063b9734b4",
      "to": "0x8aafd3ede9adb0ff97c7aebce82a919afb1c8764",
      "contractAddress": null
    }
  ],
  "libraries": [],
  "pending": [],
  "returns": {},
  "timestamp": 1737503114,
  "chain": 11155111,
  "commit": "1d2fb70"
}