{
  "transactions": [
    {
      "hash": "0x4886a4001b20dabe5226578f4c08d546e3de93ee923287667b8ce7c3bcc1726d",
      "transactionType": "CALL",
      "contractName": null,
      "contractAddress": "0x5eb9cc76c3506942c1c0ead70e877dd5e4f00cb0",
      "function": "buy(address)",
      "arguments": [
        "0xC77f7fed3b5Cc8249aDc428c5F44C9063B9734b4"
      ],
      "transaction": {
        "from": "0xc77f7fed3b5cc8249adc428c5f44c9063b9734b4",
        "to": "0x5eb9cc76c3506942c1c0ead70e877dd5e4f00cb0",
        "gas": "0x1b30c",
        "value": "0xde0b6b3a7640000",
        "input": "0xf088d547000000000000000000000000c77f7fed3b5cc8249adc428c5f44c9063b9734b4",
        "nonce": "0x444",
        "chainId": "0xaa36a7"
      },
      "additionalContracts": [],
      "isFixedGasLimit": false
    }
  ],
  "receipts": [
    {
      "status": "0x1",
      "cumulativeGasUsed": "0xa3a0c5",
      "logs": [
        {
          "address": "0x5eb9cc76c3506942c1c0ead70e877dd5e4f00cb0",
          "topics": [
            "0xddf252ad1be2c89b69c2b068fc378daa952ba7f163c4a11628f55a4df523b3ef",
            "0x0000000000000000000000000000000000000000000000000000000000000000",
            "0x000000000000000000000000c77f7fed3b5cc8249adc428c5f44c9063b9734b4"
          ],
          "data": "0x00000000000000000000000000000000000000000000003574dbd7062c0beb7b",
          "blockHash": "0x1ade586f69e3043544695d19b91c3c0df80bfdfdd33767c03adf03a1547b6d01",
          "blockNumber": "0x725063",
          "transactionHash": "0x4886a4001b20dabe5226578f4c08d546e3de93ee923287667b8ce7c3bcc1726d",
          "transactionIndex": "0x5c",
          "logIndex": "0x9a",
          "removed": false
        },
        {
          "address": "0x5eb9cc76c3506942c1c0ead70e877dd5e4f00cb0",
          "topics": [
            "0xddf252ad1be2c89b69c2b068fc378daa952ba7f163c4a11628f55a4df523b3ef",
            "0x0000000000000000000000000000000000000000000000000000000000000000",
            "0x000000000000000000000000c77f7fed3b5cc8249adc428c5f44c9063b9734b4"
          ],
          "data": "0x0000000000000000000000000000000000000000000000002982c275a9e44867",
          "blockHash": "0x1ade586f69e3043544695d19b91c3c0df80bfdfdd33767c03adf03a1547b6d01",
          "blockNumber": "0x725063",
          "transactionHash": "0x4886a4001b20dabe5226578f4c08d546e3de93ee923287667b8ce7c3bcc1726d",
          "transactionIndex": "0x5c",
          "logIndex": "0x9b",
          "removed": false
        },
        {
          "address": "0x5eb9cc76c3506942c1c0ead70e877dd5e4f00cb0",
          "topics": [
            "0x4afcb4a87cdbd9974efdb92ee48bc8d7cd0ae4bf217004db3d080cbaee652ca7"
          ],
          "data": "0x000000000000000000000000000000000000000000000000000000006786b67000000000000000000000000000000000000000000000000000039117fc266d4c0000000000000000000000000000000000000000000000000de0b6b3a7640000",
          "blockHash": "0x1ade586f69e3043544695d19b91c3c0df80bfdfdd33767c03adf03a1547b6d01",
          "blockNumber": "0x725063",
          "transactionHash": "0x4886a4001b20dabe5226578f4c08d546e3de93ee923287667b8ce7c3bcc1726d",
          "transactionIndex": "0x5c",
          "logIndex": "0x9c",
          "removed": false
        }
      ],
      "logsBloom": "0x00000000000000000000000000000000000000000000000000000000000000000000000000000000000000000000000000000000000000004000000000000000000000000000000000000008000000000000000000000000000000000000000000000000020000000000000004000800020000000000000000000010000000000000000000000000000000000000000000000000000000000000010000000000000000000000000000000000000000004000000000000000000000000000020000000002000000800000008000000000000000000000080000000000000020000000000000000000000000000000000000000000000000000000000000000000",
      "type": "0x2",
      "transactionHash": "0x4886a4001b20dabe5226578f4c08d546e3de93ee923287667b8ce7c3bcc1726d",
      "transactionIndex": "0x5c",
      "blockHash": "0x1ade586f69e3043544695d19b91c3c0df80bfdfdd33767c03adf03a1547b6d01",
      "blockNumber": "0x725063",
      "gasUsed": "0x13af8",
      "effectiveGasPrice": "0x27cdd291e",
      "from": "0xc77f7fed3b5cc8249adc428c5f44c9063b9734b4",
      "to": "0x5eb9cc76c3506942c1c0ead70e877dd5e4f00cb0",
      "contractAddress": null
    }
  ],
  "libraries": [],
  "pending": [],
  "returns": {},
  "timestamp": 1736881777,
  "chain": 11155111,
  "commit": "51a374b"
}