{
  "transactions": [
    {
      "hash": "0x6c7a63a2f0e6be71b43241163d5aadfd07852c44380e1a9798a93501bda2ffbf",
      "transactionType": "CALL",
      "contractName": null,
      "contractAddress": "0xbf4a322f1496e5c3d34a9bcdb4c60567b38c7de2",
      "function": "buy(address)",
      "arguments": [
        "0xC77f7fed3b5Cc8249aDc428c5F44C9063B9734b4"
      ],
      "transaction": {
        "from": "0xc77f7fed3b5cc8249adc428c5f44c9063b9734b4",
        "to": "0xbf4a322f1496e5c3d34a9bcdb4c60567b38c7de2",
        "gas": "0x1b309",
        "value": "0xde0b6b3a7640000",
        "input": "0xf088d547000000000000000000000000c77f7fed3b5cc8249adc428c5f44c9063b9734b4",
        "nonce": "0xc22",
        "chainId": "0xaa36a7"
      },
      "additionalContracts": [],
      "isFixedGasLimit": false
    }
  ],
  "receipts": [
    {
      "status": "0x1",
      "cumulativeGasUsed": "0x468619",
      "logs": [
        {
          "address": "0xbf4a322f1496e5c3d34a9bcdb4c60567b38c7de2",
          "topics": [
            "0xddf252ad1be2c89b69c2b068fc378daa952ba7f163c4a11628f55a4df523b3ef",
            "0x0000000000000000000000000000000000000000000000000000000000000000",
            "0x000000000000000000000000c77f7fed3b5cc8249adc428c5f44c9063b9734b4"
          ],
          "data": "0x000000000000000000000000000000000000000000000034f50cb5f0bef10cc4",
          "blockHash": "0x4c7b6b020c37274cfebff11eb717ee5627c6ea16961636778b24226461a47984",
          "blockNumber": "0x725c51",
          "transactionHash": "0x6c7a63a2f0e6be71b43241163d5aadfd07852c44380e1a9798a93501bda2ffbf",
          "transactionIndex": "0x37",
          "logIndex": "0x43",
          "removed": false
        },
        {
          "address": "0xbf4a322f1496e5c3d34a9bcdb4c60567b38c7de2",
          "topics": [
            "0xddf252ad1be2c89b69c2b068fc378daa952ba7f163c4a11628f55a4df523b3ef",
            "0x0000000000000000000000000000000000000000000000000000000000000000",
            "0x000000000000000000000000c77f7fed3b5cc8249adc428c5f44c9063b9734b4"
          ],
          "data": "0x000000000000000000000000000000000000000000000000291f82f092121436",
          "blockHash": "0x4c7b6b020c37274cfebff11eb717ee5627c6ea16961636778b24226461a47984",
          "blockNumber": "0x725c51",
          "transactionHash": "0x6c7a63a2f0e6be71b43241163d5aadfd07852c44380e1a9798a93501bda2ffbf",
          "transactionIndex": "0x37",
          "logIndex": "0x44",
          "removed": false
        },
        {
          "address": "0xbf4a322f1496e5c3d34a9bcdb4c60567b38c7de2",
          "topics": [
            "0x4afcb4a87cdbd9974efdb92ee48bc8d7cd0ae4bf217004db3d080cbaee652ca7"
          ],
          "data": "0x0000000000000000000000000000000000000000000000000000000067874628000000000000000000000000000000000000000000000000000399b5fb9fefd60000000000000000000000000000000000000000000000000de0b6b3a7640000",
          "blockHash": "0x4c7b6b020c37274cfebff11eb717ee5627c6ea16961636778b24226461a47984",
          "blockNumber": "0x725c51",
          "transactionHash": "0x6c7a63a2f0e6be71b43241163d5aadfd07852c44380e1a9798a93501bda2ffbf",
          "transactionIndex": "0x37",
          "logIndex": "0x45",
          "removed": false
        }
      ],
      "logsBloom": "0x00000000000000000000000000000000000000000000000000000000000000000000000000000000000000000000000000000000000000004000000000000000000000000000000000000008000000000000001000000000000000000000000000000000020000000000000000000800020000000000000000000010000000000000000000000000000000000000000000000000000008000000010000000000000000000000000000000000000000004000000000000000000000000000000000000002000000800000000000001000000000000000080000000000000020000000000000000000000000000000000000000000000000000000000000000000",
      "type": "0x2",
      "transactionHash": "0x6c7a63a2f0e6be71b43241163d5aadfd07852c44380e1a9798a93501bda2ffbf",
      "transactionIndex": "0x37",
      "blockHash": "0x4c7b6b020c37274cfebff11eb717ee5627c6ea16961636778b24226461a47984",
      "blockNumber": "0x725c51",
      "gasUsed": "0x13af6",
      "effectiveGasPrice": "0x16d2c0ee3",
      "from": "0xc77f7fed3b5cc8249adc428c5f44c9063b9734b4",
      "to": "0xbf4a322f1496e5c3d34a9bcdb4c60567b38c7de2",
      "contractAddress": null
    }
  ],
  "libraries": [],
  "pending": [],
  "returns": {},
  "timestamp": 1736918569,
  "chain": 11155111,
  "commit": "51a374b"
}