{
  "transactions": [
    {
      "hash": "0x7d93a7402c0a5cc2f6147a5acc6bd0359ff63c9ba74d779cd3cbc50c5c7fe553",
      "transactionType": "CALL",
      "contractName": null,
      "contractAddress": "0x8aafd3ede9adb0ff97c7aebce82a919afb1c8764",
      "function": "sell(uint256)",
      "arguments": [
        "12549"
      ],
      "transaction": {
        "from": "0xc77f7fed3b5cc8249adc428c5f44c9063b9734b4",
        "to": "0x8aafd3ede9adb0ff97c7aebce82a919afb1c8764",
        "gas": "0x14e4c",
        "value": "0x0",
        "input": "0xe4849b320000000000000000000000000000000000000000000000000000000000003105",
        "nonce": "0xeae",
        "chainId": "0xaa36a7"
      },
      "additionalContracts": [],
      "isFixedGasLimit": false
    }
  ],
  "receipts": [
    {
      "status": "0x1",
      "cumulativeGasUsed": "0xd57365",
      "logs": [
        {
          "address": "0x8aafd3ede9adb0ff97c7aebce82a919afb1c8764",
          "topics": [
            "0xddf252ad1be2c89b69c2b068fc378daa952ba7f163c4a11628f55a4df523b3ef",
            "0x000000000000000000000000c77f7fed3b5cc8249adc428c5f44c9063b9734b4",
            "0x0000000000000000000000000000000000000000000000000000000000000000"
          ],
          "data": "0x00000000000000000000000000000000000000000000000000000000000030a1",
          "blockHash": "0x1266557602da688a5e57dbc77b51afd16d2a927844be97362d265a8ad72a265f",
          "blockNumber": "0x731411",
          "transactionHash": "0x7d93a7402c0a5cc2f6147a5acc6bd0359ff63c9ba74d779cd3cbc50c5c7fe553",
          "transactionIndex": "0x9d",
          "logIndex": "0xec",
          "removed": false
        },
        {
          "address": "0x8aafd3ede9adb0ff97c7aebce82a919afb1c8764",
          "topics": [
            "0xddf252ad1be2c89b69c2b068fc378daa952ba7f163c4a11628f55a4df523b3ef",
            "0x000000000000000000000000c77f7fed3b5cc8249adc428c5f44c9063b9734b4",
            "0x000000000000000000000000c77f7fed3b5cc8249adc428c5f44c9063b9734b4"
          ],
          "data": "0x0000000000000000000000000000000000000000000000000000000000000064",
          "blockHash": "0x1266557602da688a5e57dbc77b51afd16d2a927844be97362d265a8ad72a265f",
          "blockNumber": "0x731411",
          "transactionHash": "0x7d93a7402c0a5cc2f6147a5acc6bd0359ff63c9ba74d779cd3cbc50c5c7fe553",
          "transactionIndex": "0x9d",
          "logIndex": "0xed",
          "removed": false
        },
        {
          "address": "0x8aafd3ede9adb0ff97c7aebce82a919afb1c8764",
          "topics": [
            "0x4afcb4a87cdbd9974efdb92ee48bc8d7cd0ae4bf217004db3d080cbaee652ca7"
          ],
          "data": "0x00000000000000000000000000000000000000000000000000000000678fed780000000000000000000000000000000000000000000000000004b7c88a1826390000000000000000000000000000000000000000000000000000000000000010",
          "blockHash": "0x1266557602da688a5e57dbc77b51afd16d2a927844be97362d265a8ad72a265f",
          "blockNumber": "0x731411",
          "transactionHash": "0x7d93a7402c0a5cc2f6147a5acc6bd0359ff63c9ba74d779cd3cbc50c5c7fe553",
          "transactionIndex": "0x9d",
          "logIndex": "0xee",
          "removed": false
        }
      ],
      "logsBloom": "0x00000000000000000000000000000000000000000600000000000000000000000000000000000000000000000000000000000000000000004000000000000000000000000000004000000008000000000000000000000000000000000000000000000000020000000000000000000800020000000000000000000010000000000000000000000000000000000000000000000000000000000000010000000000000000000000000000000000000000004000000000000000000000000000000000000002000000800000000000000000000000000000080000000000000020000000000000000000000000000000000000000000000000000000000000000000",
      "type": "0x2",
      "transactionHash": "0x7d93a7402c0a5cc2f6147a5acc6bd0359ff63c9ba74d779cd3cbc50c5c7fe553",
      "transactionIndex": "0x9d",
      "blockHash": "0x1266557602da688a5e57dbc77b51afd16d2a927844be97362d265a8ad72a265f",
      "blockNumber": "0x731411",
      "gasUsed": "0xf207",
      "effectiveGasPrice": "0x84cfc043",
      "from": "0xc77f7fed3b5cc8249adc428c5f44c9063b9734b4",
      "to": "0x8aafd3ede9adb0ff97c7aebce82a919afb1c8764",
      "contractAddress": null
    }
  ],
  "libraries": [],
  "pending": [],
  "returns": {},
  "timestamp": 1737485689,
  "chain": 11155111,
  "commit": "51a374b"
}