{
  "transactions": [
    {
      "hash": "0x6d39809bb9a4842b962bd6e98065f935c1128f252052ae91b911ec19eaf9d7b8",
      "transactionType": "CALL",
      "contractName": null,
      "contractAddress": "0xd7bc75898e513accccf720a874d44dab5a4b6223",
      "function": "sell(uint256)",
      "arguments": [
        "9929992806900298848"
      ],
      "transaction": {
        "from": "0xc77f7fed3b5cc8249adc428c5f44c9063b9734b4",
        "to": "0xd7bc75898e513accccf720a874d44dab5a4b6223",
        "gas": "0x15b6b",
        "value": "0x0",
        "input": "0xe4849b3200000000000000000000000000000000000000000000000089ce6bd8b579f460",
        "nonce": "0xa5",
        "chainId": "0xaa36a7"
      },
      "additionalContracts": [],
      "isFixedGasLimit": false
    }
  ],
  "receipts": [
    {
      "status": "0x1",
      "cumulativeGasUsed": "0x1f5443d",
      "logs": [
        {
          "address": "0xd7bc75898e513accccf720a874d44dab5a4b6223",
          "topics": [
            "0xddf252ad1be2c89b69c2b068fc378daa952ba7f163c4a11628f55a4df523b3ef",
            "0x000000000000000000000000c77f7fed3b5cc8249adc428c5f44c9063b9734b4",
            "0x0000000000000000000000000000000000000000000000000000000000000000"
          ],
          "data": "0x00000000000000000000000000000000000000000000000089ce6bd8b579f460",
          "blockHash": "0x61dda986a600648c80b0e04da8ee5f5bdfaa1dd060fb900fdcab3a83d75b8d77",
          "blockNumber": "0x723919",
          "transactionHash": "0x6d39809bb9a4842b962bd6e98065f935c1128f252052ae91b911ec19eaf9d7b8",
          "transactionIndex": "0x45",
          "logIndex": "0x2c1",
          "removed": false
        },
        {
          "address": "0xd7bc75898e513accccf720a874d44dab5a4b6223",
          "topics": [
            "0x4afcb4a87cdbd9974efdb92ee48bc8d7cd0ae4bf217004db3d080cbaee652ca7"
          ],
          "data": "0x0000000000000000000000000000000000000000000000000000000067859e7400000000000000000000000000000000000000000000000000038d7f846643300000000000000000000000000000000000000000000000000023474f493d2799",
          "blockHash": "0x61dda986a600648c80b0e04da8ee5f5bdfaa1dd060fb900fdcab3a83d75b8d77",
          "blockNumber": "0x723919",
          "transactionHash": "0x6d39809bb9a4842b962bd6e98065f935c1128f252052ae91b911ec19eaf9d7b8",
          "transactionIndex": "0x45",
          "logIndex": "0x2c2",
          "removed": false
        }
      ],
      "logsBloom": "0x00000000000000000000000000000000000000000000000000000000000000000000000000000000000000000000000000000000000000004000000000000000000000000000000000000008000000000000000000000000000000000000000000000000020000000000000000000800020000000000000000000010000000000000000000000000000000000000000000000000000000000000010000000000000000000000000000000000000000004000001000000000000000000000000000000002000000800000000000004000000000000000080000000000000020000000000000000000000000000000000000000000080000000000000000000000",
      "type": "0x2",
      "transactionHash": "0x6d39809bb9a4842b962bd6e98065f935c1128f252052ae91b911ec19eaf9d7b8",
      "transactionIndex": "0x45",
      "blockHash": "0x61dda986a600648c80b0e04da8ee5f5bdfaa1dd060fb900fdcab3a83d75b8d77",
      "blockNumber": "0x723919",
      "gasUsed": "0xfb87",
      "effectiveGasPrice": "0x1ed2b84f",
      "from": "0xc77f7fed3b5cc8249adc428c5f44c9063b9734b4",
      "to": "0xd7bc75898e513accccf720a874d44dab5a4b6223",
      "contractAddress": null
    }
  ],
  "libraries": [],
  "pending": [],
  "returns": {},
  "timestamp": 1736810102,
  "chain": 11155111,
  "commit": "51a374b"
}