{
  "transactions": [
    {
      "hash": "0xa7676cf632090c7a218f5cee9e8947dceec9b152ad69b5b0d90728d583613b2c",
      "transactionType": "CALL",
      "contractName": null,
      "contractAddress": "0x270e88f8683660553e8ba4eb2ad7c91a1710d769",
      "function": "buy(address)",
      "arguments": [
        "0xC77f7fed3b5Cc8249aDc428c5F44C9063B9734b4"
      ],
      "transaction": {
        "from": "0xc77f7fed3b5cc8249adc428c5f44c9063b9734b4",
        "to": "0x270e88f8683660553e8ba4eb2ad7c91a1710d769",
        "gas": "0x1b30c",
        "value": "0xde0b6b3a7640000",
        "input": "0xf088d547000000000000000000000000c77f7fed3b5cc8249adc428c5f44c9063b9734b4",
        "nonce": "0x612",
        "chainId": "0xaa36a7"
      },
      "additionalContracts": [],
      "isFixedGasLimit": false
    }
  ],
  "receipts": [
    {
      "status": "0x1",
      "cumulativeGasUsed": "0x13ed65b",
      "logs": [
        {
          "address": "0x270e88f8683660553e8ba4eb2ad7c91a1710d769",
          "topics": [
            "0xddf252ad1be2c89b69c2b068fc378daa952ba7f163c4a11628f55a4df523b3ef",
            "0x0000000000000000000000000000000000000000000000000000000000000000",
            "0x000000000000000000000000c77f7fed3b5cc8249adc428c5f44c9063b9734b4"
          ],
          "data": "0x0000000000000000000000000000000000000000000000330e8008167f55b3db",
          "blockHash": "0x7d80ec874b8a2bb2f8951ba18058858d14db30c2e87a2503abe261d9d7e22b46",
          "blockNumber": "0x7252dc",
          "transactionHash": "0xa7676cf632090c7a218f5cee9e8947dceec9b152ad69b5b0d90728d583613b2c",
          "transactionIndex": "0x57",
          "logIndex": "0x98",
          "removed": false
        },
        {
          "address": "0x270e88f8683660553e8ba4eb2ad7c91a1710d769",
          "topics": [
            "0xddf252ad1be2c89b69c2b068fc378daa952ba7f163c4a11628f55a4df523b3ef",
            "0x0000000000000000000000000000000000000000000000000000000000000000",
            "0x000000000000000000000000c77f7fed3b5cc8249adc428c5f44c9063b9734b4"
          ],
          "data": "0x00000000000000000000000000000000000000000000000027a5b06e068557a6",
          "blockHash": "0x7d80ec874b8a2bb2f8951ba18058858d14db30c2e87a2503abe261d9d7e22b46",
          "blockNumber": "0x7252dc",
          "transactionHash": "0xa7676cf632090c7a218f5cee9e8947dceec9b152ad69b5b0d90728d583613b2c",
          "transactionIndex": "0x57",
          "logIndex": "0x99",
          "removed": false
        },
        {
          "address": "0x270e88f8683660553e8ba4eb2ad7c91a1710d769",
          "topics": [
            "0x4afcb4a87cdbd9974efdb92ee48bc8d7cd0ae4bf217004db3d080cbaee652ca7"
          ],
          "data": "0x000000000000000000000000000000000000000000000000000000006786d4580000000000000000000000000000000000000000000000000003bc1dd67a91440000000000000000000000000000000000000000000000000de0b6b3a7640000",
          "blockHash": "0x7d80ec874b8a2bb2f8951ba18058858d14db30c2e87a2503abe261d9d7e22b46",
          "blockNumber": "0x7252dc",
          "transactionHash": "0xa7676cf632090c7a218f5cee9e8947dceec9b152ad69b5b0d90728d583613b2c",
          "transactionIndex": "0x57",
          "logIndex": "0x9a",
          "removed": false
        }
      ],
      "logsBloom": "0x00000000000000000000000000000000000000000000000000000000000000000000000000000000000000000000000020000000000000004000000000000000000000000000000000000008000000000000000000000000000000000000000000000000020000000000000000000800020000000000000000000010000000000000000000010000000000000000000000000000000000000000010000000000000000000000000000000000000000004000000000000000000000000000000000000002000000800000000000000000000000000000080000008000000020000000000000000000000000000000000000000000000000000000000000000000",
      "type": "0x2",
      "transactionHash": "0xa7676cf632090c7a218f5cee9e8947dceec9b152ad69b5b0d90728d583613b2c",
      "transactionIndex": "0x57",
      "blockHash": "0x7d80ec874b8a2bb2f8951ba18058858d14db30c2e87a2503abe261d9d7e22b46",
      "blockNumber": "0x7252dc",
      "gasUsed": "0x13af8",
      "effectiveGasPrice": "0x27c5f14f1",
      "from": "0xc77f7fed3b5cc8249adc428c5f44c9063b9734b4",
      "to": "0x270e88f8683660553e8ba4eb2ad7c91a1710d769",
      "contractAddress": null
    }
  ],
  "libraries": [],
  "pending": [],
  "returns": {},
  "timestamp": 1736889432,
  "chain": 11155111,
  "commit": "51a374b"
}