{
  "transactions": [
    {
      "hash": "0x0589b398061203510e9f6786a253c95c5845a4f0b163a1343dd4dda9ecacb926",
      "transactionType": "CALL",
      "contractName": null,
      "contractAddress": "0x8aafd3ede9adb0ff97c7aebce82a919afb1c8764",
      "function": "sell(uint256)",
      "arguments": [
        "381932448533032"
      ],
      "transaction": {
        "from": "0xc77f7fed3b5cc8249adc428c5f44c9063b9734b4",
        "to": "0x8aafd3ede9adb0ff97c7aebce82a919afb1c8764",
        "gas": "0x1724d",
        "value": "0x0",
        "input": "0xe4849b3200000000000000000000000000000000000000000000000000015b5d93ec4a28",
        "nonce": "0xef9",
        "chainId": "0xaa36a7"
      },
      "additionalContracts": [],
      "isFixedGasLimit": false
    }
  ],
  "receipts": [
    {
      "status": "0x1",
      "cumulativeGasUsed": "0xabb77c",
      "logs": [
        {
          "address": "0x8aafd3ede9adb0ff97c7aebce82a919afb1c8764",
          "topics": [
            "0xddf252ad1be2c89b69c2b068fc378daa952ba7f163c4a11628f55a4df523b3ef",
            "0x000000000000000000000000c77f7fed3b5cc8249adc428c5f44c9063b9734b4",
            "0x0000000000000000000000000000000000000000000000000000000000000000"
          ],
          "data": "0x000000000000000000000000000000000000000000000000000158962c56f180",
          "blockHash": "0x5361434a12edf6969227214186fe21483286a21629b53d2dcd803c3aa6900a57",
          "blockNumber": "0x731471",
          "transactionHash": "0x0589b398061203510e9f6786a253c95c5845a4f0b163a1343dd4dda9ecacb926",
          "transactionIndex": "0x86",
          "logIndex": "0xd5",
          "removed": false
        },
        {
          "address": "0x8aafd3ede9adb0ff97c7aebce82a919afb1c8764",
          "topics": [
            "0xddf252ad1be2c89b69c2b068fc378daa952ba7f163c4a11628f55a4df523b3ef",
            "0x000000000000000000000000c77f7fed3b5cc8249adc428c5f44c9063b9734b4",
            "0x000000000000000000000000c77f7fed3b5cc8249adc428c5f44c9063b9734b4"
          ],
          "data": "0x000000000000000000000000000000000000000000000000000002c7679558a8",
          "blockHash": "0x5361434a12edf6969227214186fe21483286a21629b53d2dcd803c3aa6900a57",
          "blockNumber": "0x731471",
          "transactionHash": "0x0589b398061203510e9f6786a253c95c5845a4f0b163a1343dd4dda9ecacb926",
          "transactionIndex": "0x86",
          "logIndex": "0xd6",
          "removed": false
        },
        {
          "address": "0x8aafd3ede9adb0ff97c7aebce82a919afb1c8764",
          "topics": [
            "0x4afcb4a87cdbd9974efdb92ee48bc8d7cd0ae4bf217004db3d080cbaee652ca7"
          ],
          "data": "0x00000000000000000000000000000000000000000000000000000000678ff1f80000000000000000000000000000000000000000000000000004bb1be8039ea1000000000000000000000000000000000000000000000000000000766a73b8c2",
          "blockHash": "0x5361434a12edf6969227214186fe21483286a21629b53d2dcd803c3aa6900a57",
          "blockNumber": "0x731471",
          "transactionHash": "0x0589b398061203510e9f6786a253c95c5845a4f0b163a1343dd4dda9ecacb926",
          "transactionIndex": "0x86",
          "logIndex": "0xd7",
          "removed": false
        }
      ],
      "logsBloom": "0x00000000000000000000000000000000000000000600000000000000000000000000000000000000000000000000000000000000000000004000000000000000000000000000004000000008000000000000000000000000000000000000000000000000020000000000000000000800020000000000000000000010000000000000000000000000000000000000000000000000000000000000010000000000000000000000000000000000000000004000000000000000000000000000000000000002000000800000000000000000000000000000080000000000000020000000000000000000000000000000000000000000000000000000000000000000",
      "type": "0x2",
      "transactionHash": "0x0589b398061203510e9f6786a253c95c5845a4f0b163a1343dd4dda9ecacb926",
      "transactionIndex": "0x86",
      "blockHash": "0x5361434a12edf6969227214186fe21483286a21629b53d2dcd803c3aa6900a57",
      "blockNumber": "0x731471",
      "gasUsed": "0xfd33",
      "effectiveGasPrice": "0x95115eec",
      "from": "0xc77f7fed3b5cc8249adc428c5f44c9063b9734b4",
      "to": "0x8aafd3ede9adb0ff97c7aebce82a919afb1c8764",
      "contractAddress": null
    }
  ],
  "libraries": [],
  "pending": [],
  "returns": {},
  "timestamp": 1737486841,
  "chain": 11155111,
  "commit": "51a374b"
}