{
  "transactions": [
    {
      "hash": "0x7431768d427fe5f90b7899ba9e18ebb09770b935d44708542a87fd9ce0df2f01",
      "transactionType": "CALL",
      "contractName": null,
      "contractAddress": "0xfcd1e9490bdaa8b6c0f830eb671d3136559af099",
      "function": "borrow(uint256,uint256)",
      "arguments": [
        "9999999999999990",
        "0"
      ],
      "transaction": {
        "from": "0xc77f7fed3b5cc8249adc428c5f44c9063b9734b4",
        "to": "0xfcd1e9490bdaa8b6c0f830eb671d3136559af099",
        "gas": "0x57f3c",
        "value": "0x0",
        "input": "0x0ecbcdab000000000000000000000000000000000000000000000000002386f26fc0fff60000000000000000000000000000000000000000000000000000000000000000",
        "nonce": "0x18a8",
        "chainId": "0xaa36a7"
      },
      "additionalContracts": [],
      "isFixedGasLimit": false
    }
  ],
  "receipts": [
    {
      "status": "0x1",
      "cumulativeGasUsed": "0x121cce6",
      "logs": [
        {
          "address": "0xfcd1e9490bdaa8b6c0f830eb671d3136559af099",
          "topics": [
            "0xddf252ad1be2c89b69c2b068fc378daa952ba7f163c4a11628f55a4df523b3ef",
            "0x000000000000000000000000c77f7fed3b5cc8249adc428c5f44c9063b9734b4",
            "0x000000000000000000000000fcd1e9490bdaa8b6c0f830eb671d3136559af099"
          ],
          "data": "0x0000000000000000000000000000000000000000000000008ac7230489e7ffff",
          "blockHash": "0x635861f59213627cb7c7dfe766dcf2f58e7445825368c2d1f270eb38d94ab4b0",
          "blockNumber": "0x738322",
          "transactionHash": "0x7431768d427fe5f90b7899ba9e18ebb09770b935d44708542a87fd9ce0df2f01",
          "transactionIndex": "0x59",
          "logIndex": "0x168",
          "removed": false
        },
        {
          "address": "0xfcd1e9490bdaa8b6c0f830eb671d3136559af099",
          "topics": [
            "0xddf252ad1be2c89b69c2b068fc378daa952ba7f163c4a11628f55a4df523b3ef",
            "0x000000000000000000000000fcd1e9490bdaa8b6c0f830eb671d3136559af099",
            "0x000000000000000000000000c77f7fed3b5cc8249adc428c5f44c9063b9734b4"
          ],
          "data": "0x000000000000000000000000000000000000000000000000000aa87bee537ed6",
          "blockHash": "0x635861f59213627cb7c7dfe766dcf2f58e7445825368c2d1f270eb38d94ab4b0",
          "blockNumber": "0x738322",
          "transactionHash": "0x7431768d427fe5f90b7899ba9e18ebb09770b935d44708542a87fd9ce0df2f01",
          "transactionIndex": "0x59",
          "logIndex": "0x169",
          "removed": false
        },
        {
          "address": "0xfcd1e9490bdaa8b6c0f830eb671d3136559af099",
          "topics": [
            "0xddf252ad1be2c89b69c2b068fc378daa952ba7f163c4a11628f55a4df523b3ef",
            "0x000000000000000000000000fcd1e9490bdaa8b6c0f830eb671d3136559af099",
            "0x0000000000000000000000000000000000000000000000000000000000000000"
          ],
          "data": "0x0000000000000000000000000000000000000000000000000018de76816d7d4b",
          "blockHash": "0x635861f59213627cb7c7dfe766dcf2f58e7445825368c2d1f270eb38d94ab4b0",
          "blockNumber": "0x738322",
          "transactionHash": "0x7431768d427fe5f90b7899ba9e18ebb09770b935d44708542a87fd9ce0df2f01",
          "transactionIndex": "0x59",
          "logIndex": "0x16a",
          "removed": false
        },
        {
          "address": "0xfcd1e9490bdaa8b6c0f830eb671d3136559af099",
          "topics": [
            "0x03bbe564cb1b78e43195eeadbde99e5b89b19345862807fcfb59f884e4165e25"
          ],
          "data": "0x000000000000000000000000c77f7fed3b5cc8249adc428c5f44c9063b9734b4000000000000000000000000000000000000000000000000002322fe594b07f7",
          "blockHash": "0x635861f59213627cb7c7dfe766dcf2f58e7445825368c2d1f270eb38d94ab4b0",
          "blockNumber": "0x738322",
          "transactionHash": "0x7431768d427fe5f90b7899ba9e18ebb09770b935d44708542a87fd9ce0df2f01",
          "transactionIndex": "0x59",
          "logIndex": "0x16b",
          "removed": false
        },
        {
          "address": "0xfcd1e9490bdaa8b6c0f830eb671d3136559af099",
          "topics": [
            "0xaec00f5213a37254bc68a26b0685d1a5b2bf513e1e587c94c7df7f4a62b56c9c"
          ],
          "data": "0x0000000000000000000000000000000000000000000000008aa39c121a2703de000000000000000000000000000000000000000000000000002322fe594b07f7000000000000000000000000000000000000000000000000002322fe594b07f70000000000000000000000000000000000000000000000008aa39c121a2703de",
          "blockHash": "0x635861f59213627cb7c7dfe766dcf2f58e7445825368c2d1f270eb38d94ab4b0",
          "blockNumber": "0x738322",
          "transactionHash": "0x7431768d427fe5f90b7899ba9e18ebb09770b935d44708542a87fd9ce0df2f01",
          "transactionIndex": "0x59",
          "logIndex": "0x16c",
          "removed": false
        },
        {
          "address": "0xfcd1e9490bdaa8b6c0f830eb671d3136559af099",
          "topics": [
            "0x4afcb4a87cdbd9974efdb92ee48bc8d7cd0ae4bf217004db3d080cbaee652ca7"
          ],
          "data": "0x0000000000000000000000000000000000000000000000000000000067954e3c00000000000000000000000000000000000000000000000000038e21bd40e347000000000000000000000000000000000000000000000000000009184e729fff",
          "blockHash": "0x635861f59213627cb7c7dfe766dcf2f58e7445825368c2d1f270eb38d94ab4b0",
          "blockNumber": "0x738322",
          "transactionHash": "0x7431768d427fe5f90b7899ba9e18ebb09770b935d44708542a87fd9ce0df2f01",
          "transactionIndex": "0x59",
          "logIndex": "0x16d",
          "removed": false
        }
      ],
      "logsBloom": "0x00000000000000000000000000000100400000000000000000000000000000000008000000000000000000000000000000002800000000004000000000000000000000000000000000000008000000000000000000000000000000000000000000000080020000000000000000000800020000000000000000000010000000000000000000000000000000000000000000000000000000000000010000000000002000000000000000000400000000004000000000000000000000001000000000000002200000800000000000000000000000000000080100000000000020000000000000000000000000000000000002000000000000000000000000000000",
      "type": "0x2",
      "transactionHash": "0x7431768d427fe5f90b7899ba9e18ebb09770b935d44708542a87fd9ce0df2f01",
      "transactionIndex": "0x59",
      "blockHash": "0x635861f59213627cb7c7dfe766dcf2f58e7445825368c2d1f270eb38d94ab4b0",
      "blockNumber": "0x738322",
      "gasUsed": "0x3fad0",
      "effectiveGasPrice": "0x71398ef4",
      "from": "0xc77f7fed3b5cc8249adc428c5f44c9063b9734b4",
      "to": "0xfcd1e9490bdaa8b6c0f830eb671d3136559af099",
      "contractAddress": null
    }
  ],
  "libraries": [],
  "pending": [],
  "returns": {},
  "timestamp": 1737838141,
  "chain": 11155111,
  "commit": "f5162e9"
}