{
  "transactions": [
    {
      "hash": "0xbd30b6c783218fe76cbacccbe2169f11a74e50ff6bcd0928107150591868da1f",
      "transactionType": "CALL",
      "contractName": null,
      "contractAddress": "0x5eb9cc76c3506942c1c0ead70e877dd5e4f00cb0",
      "function": "buy(address)",
      "arguments": [
        "0xC77f7fed3b5Cc8249aDc428c5F44C9063B9734b4"
      ],
      "transaction": {
        "from": "0xc77f7fed3b5cc8249adc428c5f44c9063b9734b4",
        "to": "0x5eb9cc76c3506942c1c0ead70e877dd5e4f00cb0",
        "gas": "0x1b30c",
        "value": "0xde0b6b3a7640000",
        "input": "0xf088d547000000000000000000000000c77f7fed3b5cc8249adc428c5f44c9063b9734b4",
        "nonce": "0x32a",
        "chainId": "0xaa36a7"
      },
      "additionalContracts": [],
      "isFixedGasLimit": false
    }
  ],
  "receipts": [
    {
      "status": "0x1",
      "cumulativeGasUsed": "0xf64dff",
      "logs": [
        {
          "address": "0x5eb9cc76c3506942c1c0ead70e877dd5e4f00cb0",
          "topics": [
            "0xddf252ad1be2c89b69c2b068fc378daa952ba7f163c4a11628f55a4df523b3ef",
            "0x0000000000000000000000000000000000000000000000000000000000000000",
            "0x000000000000000000000000c77f7fed3b5cc8249adc428c5f44c9063b9734b4"
          ],
          "data": "0x000000000000000000000000000000000000000000000035757b02ee252cd204",
          "blockHash": "0x88dff7edb541c61582da682f65e0018e3460ff778b2698b236d66a678e25c64c",
          "blockNumber": "0x724f13",
          "transactionHash": "0xbd30b6c783218fe76cbacccbe2169f11a74e50ff6bcd0928107150591868da1f",
          "transactionIndex": "0x91",
          "logIndex": "0x102",
          "removed": false
        },
        {
          "address": "0x5eb9cc76c3506942c1c0ead70e877dd5e4f00cb0",
          "topics": [
            "0xddf252ad1be2c89b69c2b068fc378daa952ba7f163c4a11628f55a4df523b3ef",
            "0x0000000000000000000000000000000000000000000000000000000000000000",
            "0x000000000000000000000000c77f7fed3b5cc8249adc428c5f44c9063b9734b4"
          ],
          "data": "0x00000000000000000000000000000000000000000000000029833e0fcd7b94e2",
          "blockHash": "0x88dff7edb541c61582da682f65e0018e3460ff778b2698b236d66a678e25c64c",
          "blockNumber": "0x724f13",
          "transactionHash": "0xbd30b6c783218fe76cbacccbe2169f11a74e50ff6bcd0928107150591868da1f",
          "transactionIndex": "0x91",
          "logIndex": "0x103",
          "removed": false
        },
        {
          "address": "0x5eb9cc76c3506942c1c0ead70e877dd5e4f00cb0",
          "topics": [
            "0x4afcb4a87cdbd9974efdb92ee48bc8d7cd0ae4bf217004db3d080cbaee652ca7"
          ],
          "data": "0x000000000000000000000000000000000000000000000000000000006786a6980000000000000000000000000000000000000000000000000003910d5d746d580000000000000000000000000000000000000000000000000de0b6b3a7640000",
          "blockHash": "0x88dff7edb541c61582da682f65e0018e3460ff778b2698b236d66a678e25c64c",
          "blockNumber": "0x724f13",
          "transactionHash": "0xbd30b6c783218fe76cbacccbe2169f11a74e50ff6bcd0928107150591868da1f",
          "transactionIndex": "0x91",
          "logIndex": "0x104",
          "removed": false
        }
      ],
      "logsBloom": "0x00000000000000000000000000000000000000000000000000000000000000000000000000000000000000000000000000000000000000004000000000000000000000000000000000000008000000000000000000000000000000000000000000000000020000000000000004000800020000000000000000000010000000000000000000000000000000000000000000000000000000000000010000000000000000000000000000000000000000004000000000000000000000000000020000000002000000800000008000000000000000000000080000000000000020000000000000000000000000000000000000000000000000000000000000000000",
      "type": "0x2",
      "transactionHash": "0xbd30b6c783218fe76cbacccbe2169f11a74e50ff6bcd0928107150591868da1f",
      "transactionIndex": "0x91",
      "blockHash": "0x88dff7edb541c61582da682f65e0018e3460ff778b2698b236d66a678e25c64c",
      "blockNumber": "0x724f13",
      "gasUsed": "0x13af8",
      "effectiveGasPrice": "0x60a0eb6b0",
      "from": "0xc77f7fed3b5cc8249adc428c5f44c9063b9734b4",
      "to": "0x5eb9cc76c3506942c1c0ead70e877dd5e4f00cb0",
      "contractAddress": null
    }
  ],
  "libraries": [],
  "pending": [],
  "returns": {},
  "timestamp": 1736877721,
  "chain": 11155111,
  "commit": "51a374b"
}