{
  "transactions": [
    {
      "hash": "0x2a2e97a6ada0c4da7c6253eea979e3e9fe5906312c440caf33fb2553c6833cfa",
      "transactionType": "CALL",
      "contractName": null,
      "contractAddress": "0xbf4a322f1496e5c3d34a9bcdb4c60567b38c7de2",
      "function": "sell(uint256)",
      "arguments": [
        "989529905881149439999"
      ],
      "transaction": {
        "from": "0xc77f7fed3b5cc8249adc428c5f44c9063b9734b4",
        "to": "0xbf4a322f1496e5c3d34a9bcdb4c60567b38c7de2",
        "gas": "0x16fea",
        "value": "0x0",
        "input": "0xe4849b32000000000000000000000000000000000000000000000035a47c6ea50fa17fff",
        "nonce": "0x959",
        "chainId": "0xaa36a7"
      },
      "additionalContracts": [],
      "isFixedGasLimit": false
    }
  ],
  "receipts": [
    {
      "status": "0x1",
      "cumulativeGasUsed": "0x18ca67d",
      "logs": [
        {
          "address": "0xbf4a322f1496e5c3d34a9bcdb4c60567b38c7de2",
          "topics": [
            "0xddf252ad1be2c89b69c2b068fc378daa952ba7f163c4a11628f55a4df523b3ef",
            "0x000000000000000000000000c77f7fed3b5cc8249adc428c5f44c9063b9734b4",
            "0x0000000000000000000000000000000000000000000000000000000000000000"
          ],
          "data": "0x000000000000000000000000000000000000000000000035a47c6ea50fa17fff",
          "blockHash": "0x5671246a7fe731c83cbb863db8dfaee73439e74d7f7120c4f503dba4d7517e71",
          "blockNumber": "0x7258ea",
          "transactionHash": "0x2a2e97a6ada0c4da7c6253eea979e3e9fe5906312c440caf33fb2553c6833cfa",
          "transactionIndex": "0xc5",
          "logIndex": "0x128",
          "removed": false
        },
        {
          "address": "0xbf4a322f1496e5c3d34a9bcdb4c60567b38c7de2",
          "topics": [
            "0x4afcb4a87cdbd9974efdb92ee48bc8d7cd0ae4bf217004db3d080cbaee652ca7"
          ],
          "data": "0x0000000000000000000000000000000000000000000000000000000067871d24000000000000000000000000000000000000000000000000000390b64ec4cfa50000000000000000000000000000000000000000000000000dc7e3f8392d9ac4",
          "blockHash": "0x5671246a7fe731c83cbb863db8dfaee73439e74d7f7120c4f503dba4d7517e71",
          "blockNumber": "0x7258ea",
          "transactionHash": "0x2a2e97a6ada0c4da7c6253eea979e3e9fe5906312c440caf33fb2553c6833cfa",
          "transactionIndex": "0xc5",
          "logIndex": "0x129",
          "removed": false
        }
      ],
      "logsBloom": "0x00000000000000000000000000000000000000000000000000000000000000000000000000000000000000000000000000000000000000004000000000000000000000000000000000000008000000000000001000000000000000000000000000000000020000000000000000000800020000000000000000000010000000000000000000000000000000000000000000000000000008000000010000000000000000000000000000000000000000004000000000000000000000000000000000000002000000800000000000001000000000000000080000000000000020000000000000000000000000000000000000000000000000000000000000000000",
      "type": "0x2",
      "transactionHash": "0x2a2e97a6ada0c4da7c6253eea979e3e9fe5906312c440caf33fb2553c6833cfa",
      "transactionIndex": "0xc5",
      "blockHash": "0x5671246a7fe731c83cbb863db8dfaee73439e74d7f7120c4f503dba4d7517e71",
      "blockNumber": "0x7258ea",
      "gasUsed": "0xfb91",
      "effectiveGasPrice": "0x637b4351",
      "from": "0xc77f7fed3b5cc8249adc428c5f44c9063b9734b4",
      "to": "0xbf4a322f1496e5c3d34a9bcdb4c60567b38c7de2",
      "contractAddress": null
    }
  ],
  "libraries": [],
  "pending": [],
  "returns": {},
  "timestamp": 1736908069,
  "chain": 11155111,
  "commit": "51a374b"
}