{
  "transactions": [
    {
      "hash": "0xcdd0132f00e12507e9010a9fa241b97efce3fee547537d66a838eb93c9a390cc",
      "transactionType": "CALL",
      "contractName": null,
      "contractAddress": "0xbf4a322f1496e5c3d34a9bcdb4c60567b38c7de2",
      "function": "buy(address)",
      "arguments": [
        "0xC77f7fed3b5Cc8249aDc428c5F44C9063B9734b4"
      ],
      "transaction": {
        "from": "0xc77f7fed3b5cc8249adc428c5f44c9063b9734b4",
        "to": "0xbf4a322f1496e5c3d34a9bcdb4c60567b38c7de2",
        "gas": "0x1b309",
        "value": "0xde0b6b3a7640000",
        "input": "0xf088d547000000000000000000000000c77f7fed3b5cc8249adc428c5f44c9063b9734b4",
        "nonce": "0x938",
        "chainId": "0xaa36a7"
      },
      "additionalContracts": [],
      "isFixedGasLimit": false
    }
  ],
  "receipts": [
    {
      "status": "0x1",
      "cumulativeGasUsed": "0xc4d08d",
      "logs": [
        {
          "address": "0xbf4a322f1496e5c3d34a9bcdb4c60567b38c7de2",
          "topics": [
            "0xddf252ad1be2c89b69c2b068fc378daa952ba7f163c4a11628f55a4df523b3ef",
            "0x0000000000000000000000000000000000000000000000000000000000000000",
            "0x000000000000000000000000c77f7fed3b5cc8249adc428c5f44c9063b9734b4"
          ],
          "data": "0x00000000000000000000000000000000000000000000003581052a0e80b6b290",
          "blockHash": "0x3cbeeb225bbfa7a9d0da43bc7bcfe0e11b019d9c9beba08ff795b2391a886024",
          "blockNumber": "0x7258c2",
          "transactionHash": "0xcdd0132f00e12507e9010a9fa241b97efce3fee547537d66a838eb93c9a390cc",
          "transactionIndex": "0x5a",
          "logIndex": "0x84",
          "removed": false
        },
        {
          "address": "0xbf4a322f1496e5c3d34a9bcdb4c60567b38c7de2",
          "topics": [
            "0xddf252ad1be2c89b69c2b068fc378daa952ba7f163c4a11628f55a4df523b3ef",
            "0x0000000000000000000000000000000000000000000000000000000000000000",
            "0x000000000000000000000000c77f7fed3b5cc8249adc428c5f44c9063b9734b4"
          ],
          "data": "0x000000000000000000000000000000000000000000000000298c340fea95d9c2",
          "blockHash": "0x3cbeeb225bbfa7a9d0da43bc7bcfe0e11b019d9c9beba08ff795b2391a886024",
          "blockNumber": "0x7258c2",
          "transactionHash": "0xcdd0132f00e12507e9010a9fa241b97efce3fee547537d66a838eb93c9a390cc",
          "transactionIndex": "0x5a",
          "logIndex": "0x85",
          "removed": false
        },
        {
          "address": "0xbf4a322f1496e5c3d34a9bcdb4c60567b38c7de2",
          "topics": [
            "0x4afcb4a87cdbd9974efdb92ee48bc8d7cd0ae4bf217004db3d080cbaee652ca7"
          ],
          "data": "0x0000000000000000000000000000000000000000000000000000000067871b440000000000000000000000000000000000000000000000000003904abd8e5c210000000000000000000000000000000000000000000000000de0b6b3a7640000",
          "blockHash": "0x3cbeeb225bbfa7a9d0da43bc7bcfe0e11b019d9c9beba08ff795b2391a886024",
          "blockNumber": "0x7258c2",
          "transactionHash": "0xcdd0132f00e12507e9010a9fa241b97efce3fee547537d66a838eb93c9a390cc",
          "transactionIndex": "0x5a",
          "logIndex": "0x86",
          "removed": false
        }
      ],
      "logsBloom": "0x00000000000000000000000000000000000000000000000000000000000000000000000000000000000000000000000000000000000000004000000000000000000000000000000000000008000000000000001000000000000000000000000000000000020000000000000000000800020000000000000000000010000000000000000000000000000000000000000000000000000008000000010000000000000000000000000000000000000000004000000000000000000000000000000000000002000000800000000000001000000000000000080000000000000020000000000000000000000000000000000000000000000000000000000000000000",
      "type": "0x2",
      "transactionHash": "0xcdd0132f00e12507e9010a9fa241b97efce3fee547537d66a838eb93c9a390cc",
      "transactionIndex": "0x5a",
      "blockHash": "0x3cbeeb225bbfa7a9d0da43bc7bcfe0e11b019d9c9beba08ff795b2391a886024",
      "blockNumber": "0x7258c2",
      "gasUsed": "0x13af6",
      "effectiveGasPrice": "0x5677c899",
      "from": "0xc77f7fed3b5cc8249adc428c5f44c9063b9734b4",
      "to": "0xbf4a322f1496e5c3d34a9bcdb4c60567b38c7de2",
      "contractAddress": null
    }
  ],
  "libraries": [],
  "pending": [],
  "returns": {},
  "timestamp": 1736907589,
  "chain": 11155111,
  "commit": "51a374b"
}