{
  "transactions": [
    {
      "hash": "0x7d615fb83ef2acf8c25e91f80ee09600823ae37dc30982b1f230f03234878740",
      "transactionType": "CALL",
      "contractName": null,
      "contractAddress": "0x270e88f8683660553e8ba4eb2ad7c91a1710d769",
      "function": "buy(address)",
      "arguments": [
        "0xC77f7fed3b5Cc8249aDc428c5F44C9063B9734b4"
      ],
      "transaction": {
        "from": "0xc77f7fed3b5cc8249adc428c5f44c9063b9734b4",
        "to": "0x270e88f8683660553e8ba4eb2ad7c91a1710d769",
        "gas": "0x1b30c",
        "value": "0xde0b6b3a7640000",
        "input": "0xf088d547000000000000000000000000c77f7fed3b5cc8249adc428c5f44c9063b9734b4",
        "nonce": "0x87d",
        "chainId": "0xaa36a7"
      },
      "additionalContracts": [],
      "isFixedGasLimit": false
    }
  ],
  "receipts": [
    {
      "status": "0x1",
      "cumulativeGasUsed": "0x1689d21",
      "logs": [
        {
          "address": "0x270e88f8683660553e8ba4eb2ad7c91a1710d769",
          "topics": [
            "0xddf252ad1be2c89b69c2b068fc378daa952ba7f163c4a11628f55a4df523b3ef",
            "0x0000000000000000000000000000000000000000000000000000000000000000",
            "0x000000000000000000000000c77f7fed3b5cc8249adc428c5f44c9063b9734b4"
          ],
          "data": "0x00000000000000000000000000000000000000000000002680a709d37e5a8385",
          "blockHash": "0x9c63d17e70968e0124d44e7d701992609a612cdd86764f930af115ae1d2d271f",
          "blockNumber": "0x7255d8",
          "transactionHash": "0x7d615fb83ef2acf8c25e91f80ee09600823ae37dc30982b1f230f03234878740",
          "transactionIndex": "0x9b",
          "logIndex": "0x210",
          "removed": false
        },
        {
          "address": "0x270e88f8683660553e8ba4eb2ad7c91a1710d769",
          "topics": [
            "0xddf252ad1be2c89b69c2b068fc378daa952ba7f163c4a11628f55a4df523b3ef",
            "0x0000000000000000000000000000000000000000000000000000000000000000",
            "0x000000000000000000000000c77f7fed3b5cc8249adc428c5f44c9063b9734b4"
          ],
          "data": "0x0000000000000000000000000000000000000000000000001de606e0fb73c8b4",
          "blockHash": "0x9c63d17e70968e0124d44e7d701992609a612cdd86764f930af115ae1d2d271f",
          "blockNumber": "0x7255d8",
          "transactionHash": "0x7d615fb83ef2acf8c25e91f80ee09600823ae37dc30982b1f230f03234878740",
          "transactionIndex": "0x9b",
          "logIndex": "0x211",
          "removed": false
        },
        {
          "address": "0x270e88f8683660553e8ba4eb2ad7c91a1710d769",
          "topics": [
            "0x4afcb4a87cdbd9974efdb92ee48bc8d7cd0ae4bf217004db3d080cbaee652ca7"
          ],
          "data": "0x000000000000000000000000000000000000000000000000000000006786f8280000000000000000000000000000000000000000000000000004f3d5436750f40000000000000000000000000000000000000000000000000de0b6b3a7640000",
          "blockHash": "0x9c63d17e70968e0124d44e7d701992609a612cdd86764f930af115ae1d2d271f",
          "blockNumber": "0x7255d8",
          "transactionHash": "0x7d615fb83ef2acf8c25e91f80ee09600823ae37dc30982b1f230f03234878740",
          "transactionIndex": "0x9b",
          "logIndex": "0x212",
          "removed": false
        }
      ],
      "logsBloom": "0x00000000000000000000000000000000000000000000000000000000000000000000000000000000000000000000000020000000000000004000000000000000000000000000000000000008000000000000000000000000000000000000000000000000020000000000000000000800020000000000000000000010000000000000000000010000000000000000000000000000000000000000010000000000000000000000000000000000000000004000000000000000000000000000000000000002000000800000000000000000000000000000080000008000000020000000000000000000000000000000000000000000000000000000000000000000",
      "type": "0x2",
      "transactionHash": "0x7d615fb83ef2acf8c25e91f80ee09600823ae37dc30982b1f230f03234878740",
      "transactionIndex": "0x9b",
      "blockHash": "0x9c63d17e70968e0124d44e7d701992609a612cdd86764f930af115ae1d2d271f",
      "blockNumber": "0x7255d8",
      "gasUsed": "0x13af8",
      "effectiveGasPrice": "0xb1b18455",
      "from": "0xc77f7fed3b5cc8249adc428c5f44c9063b9734b4",
      "to": "0x270e88f8683660553e8ba4eb2ad7c91a1710d769",
      "contractAddress": null
    }
  ],
  "libraries": [],
  "pending": [],
  "returns": {},
  "timestamp": 1736898601,
  "chain": 11155111,
  "commit": "51a374b"
}