{
  "transactions": [
    {
      "hash": "0x050e19ea528b8e48680bc2d5b44d0d5ad60244f960c4187f97394baeb9ef7b84",
      "transactionType": "CALL",
      "contractName": null,
      "contractAddress": "0xbf4a322f1496e5c3d34a9bcdb4c60567b38c7de2",
      "function": "buy(address)",
      "arguments": [
        "0xC77f7fed3b5Cc8249aDc428c5F44C9063B9734b4"
      ],
      "transaction": {
        "from": "0xc77f7fed3b5cc8249adc428c5f44c9063b9734b4",
        "to": "0xbf4a322f1496e5c3d34a9bcdb4c60567b38c7de2",
        "gas": "0x1b309",
        "value": "0xde0b6b3a7640000",
        "input": "0xf088d547000000000000000000000000c77f7fed3b5cc8249adc428c5f44c9063b9734b4",
        "nonce": "0xb02",
        "chainId": "0xaa36a7"
      },
      "additionalContracts": [],
      "isFixedGasLimit": false
    }
  ],
  "receipts": [
    {
      "status": "0x1",
      "cumulativeGasUsed": "0x6867a8",
      "logs": [
        {
          "address": "0xbf4a322f1496e5c3d34a9bcdb4c60567b38c7de2",
          "topics": [
            "0xddf252ad1be2c89b69c2b068fc378daa952ba7f163c4a11628f55a4df523b3ef",
            "0x0000000000000000000000000000000000000000000000000000000000000000",
            "0x000000000000000000000000c77f7fed3b5cc8249adc428c5f44c9063b9734b4"
          ],
          "data": "0x0000000000000000000000000000000000000000000000352abf0a2a7d65ee11",
          "blockHash": "0x74171d115bb4ffffae994e6a5cb582c1a8ad28d8a59f56061c86f43b351a3e34",
          "blockNumber": "0x725af7",
          "transactionHash": "0x050e19ea528b8e48680bc2d5b44d0d5ad60244f960c4187f97394baeb9ef7b84",
          "transactionIndex": "0x37",
          "logIndex": "0x3f",
          "removed": false
        },
        {
          "address": "0xbf4a322f1496e5c3d34a9bcdb4c60567b38c7de2",
          "topics": [
            "0xddf252ad1be2c89b69c2b068fc378daa952ba7f163c4a11628f55a4df523b3ef",
            "0x0000000000000000000000000000000000000000000000000000000000000000",
            "0x000000000000000000000000c77f7fed3b5cc8249adc428c5f44c9063b9734b4"
          ],
          "data": "0x0000000000000000000000000000000000000000000000002949356eded38ac0",
          "blockHash": "0x74171d115bb4ffffae994e6a5cb582c1a8ad28d8a59f56061c86f43b351a3e34",
          "blockNumber": "0x725af7",
          "transactionHash": "0x050e19ea528b8e48680bc2d5b44d0d5ad60244f960c4187f97394baeb9ef7b84",
          "transactionIndex": "0x37",
          "logIndex": "0x40",
          "removed": false
        },
        {
          "address": "0xbf4a322f1496e5c3d34a9bcdb4c60567b38c7de2",
          "topics": [
            "0x4afcb4a87cdbd9974efdb92ee48bc8d7cd0ae4bf217004db3d080cbaee652ca7"
          ],
          "data": "0x00000000000000000000000000000000000000000000000000000000678735e4000000000000000000000000000000000000000000000000000396131981ae530000000000000000000000000000000000000000000000000de0b6b3a7640000",
          "blockHash": "0x74171d115bb4ffffae994e6a5cb582c1a8ad28d8a59f56061c86f43b351a3e34",
          "blockNumber": "0x725af7",
          "transactionHash": "0x050e19ea528b8e48680bc2d5b44d0d5ad60244f960c4187f97394baeb9ef7b84",
          "transactionIndex": "0x37",
          "logIndex": "0x41",
          "removed": false
        }
      ],
      "logsBloom": "0x00000000000000000000000000000000000000000000000000000000000000000000000000000000000000000000000000000000000000004000000000000000000000000000000000000008000000000000001000000000000000000000000000000000020000000000000000000800020000000000000000000010000000000000000000000000000000000000000000000000000008000000010000000000000000000000000000000000000000004000000000000000000000000000000000000002000000800000000000001000000000000000080000000000000020000000000000000000000000000000000000000000000000000000000000000000",
      "type": "0x2",
      "transactionHash": "0x050e19ea528b8e48680bc2d5b44d0d5ad60244f960c4187f97394baeb9ef7b84",
      "transactionIndex": "0x37",
      "blockHash": "0x74171d115bb4ffffae994e6a5cb582c1a8ad28d8a59f56061c86f43b351a3e34",
      "blockNumber": "0x725af7",
      "gasUsed": "0x13af6",
      "effectiveGasPrice": "0xa5c195a5",
      "from": "0xc77f7fed3b5cc8249adc428c5f44c9063b9734b4",
      "to": "0xbf4a322f1496e5c3d34a9bcdb4c60567b38c7de2",
      "contractAddress": null
    }
  ],
  "libraries": [],
  "pending": [],
  "returns": {},
  "timestamp": 1736914405,
  "chain": 11155111,
  "commit": "51a374b"
}