{
  "transactions": [
    {
      "hash": "0x3f2e0bf22cfe95c44b2e354f19d5d5b27f603e12beabf152a9d3ff8a1e3a03b8",
      "transactionType": "CALL",
      "contractName": null,
      "contractAddress": "0x8aafd3ede9adb0ff97c7aebce82a919afb1c8764",
      "function": "sell(uint256)",
      "arguments": [
        "697363887585309798533"
      ],
      "transaction": {
        "from": "0xc77f7fed3b5cc8249adc428c5f44c9063b9734b4",
        "to": "0x8aafd3ede9adb0ff97c7aebce82a919afb1c8764",
        "gas": "0x17270",
        "value": "0x0",
        "input": "0xe4849b32000000000000000000000000000000000000000000000025cdde38f773d4b085",
        "nonce": "0x111d",
        "chainId": "0xaa36a7"
      },
      "additionalContracts": [],
      "isFixedGasLimit": false
    }
  ],
  "receipts": [
    {
      "status": "0x1",
      "cumulativeGasUsed": "0xb58712",
      "logs": [
        {
          "address": "0x8aafd3ede9adb0ff97c7aebce82a919afb1c8764",
          "topics": [
            "0xddf252ad1be2c89b69c2b068fc378daa952ba7f163c4a11628f55a4df523b3ef",
            "0x000000000000000000000000c77f7fed3b5cc8249adc428c5f44c9063b9734b4",
            "0x0000000000000000000000000000000000000000000000000000000000000000"
          ],
          "data": "0x0000000000000000000000000000000000000000000000258071f2e0fe2b0d51",
          "blockHash": "0x23e85f3f02dcac8a53d4511580aefecd87f582e51e6c7fb8fb9c03382e4c0561",
          "blockNumber": "0x7317d1",
          "transactionHash": "0x3f2e0bf22cfe95c44b2e354f19d5d5b27f603e12beabf152a9d3ff8a1e3a03b8",
          "transactionIndex": "0x84",
          "logIndex": "0x9c",
          "removed": false
        },
        {
          "address": "0x8aafd3ede9adb0ff97c7aebce82a919afb1c8764",
          "topics": [
            "0xddf252ad1be2c89b69c2b068fc378daa952ba7f163c4a11628f55a4df523b3ef",
            "0x000000000000000000000000c77f7fed3b5cc8249adc428c5f44c9063b9734b4",
            "0x000000000000000000000000c77f7fed3b5cc8249adc428c5f44c9063b9734b4"
          ],
          "data": "0x0000000000000000000000000000000000000000000000004d6c461675a9a334",
          "blockHash": "0x23e85f3f02dcac8a53d4511580aefecd87f582e51e6c7fb8fb9c03382e4c0561",
          "blockNumber": "0x7317d1",
          "transactionHash": "0x3f2e0bf22cfe95c44b2e354f19d5d5b27f603e12beabf152a9d3ff8a1e3a03b8",
          "transactionIndex": "0x84",
          "logIndex": "0x9d",
          "removed": false
        },
        {
          "address": "0x8aafd3ede9adb0ff97c7aebce82a919afb1c8764",
          "topics": [
            "0x4afcb4a87cdbd9974efdb92ee48bc8d7cd0ae4bf217004db3d080cbaee652ca7"
          ],
          "data": "0x0000000000000000000000000000000000000000000000000000000067901a900000000000000000000000000000000000000000000000000005108225bac9100000000000000000000000000000000000000000000000000dc8f89ed53f0724",
          "blockHash": "0x23e85f3f02dcac8a53d4511580aefecd87f582e51e6c7fb8fb9c03382e4c0561",
          "blockNumber": "0x7317d1",
          "transactionHash": "0x3f2e0bf22cfe95c44b2e354f19d5d5b27f603e12beabf152a9d3ff8a1e3a03b8",
          "transactionIndex": "0x84",
          "logIndex": "0x9e",
          "removed": false
        }
      ],
      "logsBloom": "0x00000000000000000000000000000000000000000600000000000000000000000000000000000000000000000000000000000000000000004000000000000000000000000000004000000008000000000000000000000000000000000000000000000000020000000000000000000800020000000000000000000010000000000000000000000000000000000000000000000000000000000000010000000000000000000000000000000000000000004000000000000000000000000000000000000002000000800000000000000000000000000000080000000000000020000000000000000000000000000000000000000000000000000000000000000000",
      "type": "0x2",
      "transactionHash": "0x3f2e0bf22cfe95c44b2e354f19d5d5b27f603e12beabf152a9d3ff8a1e3a03b8",
      "transactionIndex": "0x84",
      "blockHash": "0x23e85f3f02dcac8a53d4511580aefecd87f582e51e6c7fb8fb9c03382e4c0561",
      "blockNumber": "0x7317d1",
      "gasUsed": "0xfd4b",
      "effectiveGasPrice": "0x3fa6892a",
      "from": "0xc77f7fed3b5cc8249adc428c5f44c9063b9734b4",
      "to": "0x8aafd3ede9adb0ff97c7aebce82a919afb1c8764",
      "contractAddress": null
    }
  ],
  "libraries": [],
  "pending": [],
  "returns": {},
  "timestamp": 1737497233,
  "chain": 11155111,
  "commit": "1d2fb70"
}