{
  "transactions": [
    {
      "hash": "0xb7188a7ec05e2c7e72b642d148c2a4cb743761b2511c56d1819ffc287ab64ef1",
      "transactionType": "CALL",
      "contractName": null,
      "contractAddress": "0x8aafd3ede9adb0ff97c7aebce82a919afb1c8764",
      "function": "sell(uint256)",
      "arguments": [
        "45035369487524737"
      ],
      "transaction": {
        "from": "0xc77f7fed3b5cc8249adc428c5f44c9063b9734b4",
        "to": "0x8aafd3ede9adb0ff97c7aebce82a919afb1c8764",
        "gas": "0x1724d",
        "value": "0x0",
        "input": "0xe4849b32000000000000000000000000000000000000000000000000009fff6e10a1e381",
        "nonce": "0x10cf",
        "chainId": "0xaa36a7"
      },
      "additionalContracts": [],
      "isFixedGasLimit": false
    }
  ],
  "receipts": [
    {
      "status": "0x1",
      "cumulativeGasUsed": "0xb5daf5",
      "logs": [
        {
          "address": "0x8aafd3ede9adb0ff97c7aebce82a919afb1c8764",
          "topics": [
            "0xddf252ad1be2c89b69c2b068fc378daa952ba7f163c4a11628f55a4df523b3ef",
            "0x000000000000000000000000c77f7fed3b5cc8249adc428c5f44c9063b9734b4",
            "0x0000000000000000000000000000000000000000000000000000000000000000"
          ],
          "data": "0x000000000000000000000000000000000000000000000000009eb7c12706fe5c",
          "blockHash": "0x5fe26dd4a5223c62b374d0155ed3b6e0e471c050e50b741c6e797d391feb7733",
          "blockNumber": "0x73176c",
          "transactionHash": "0xb7188a7ec05e2c7e72b642d148c2a4cb743761b2511c56d1819ffc287ab64ef1",
          "transactionIndex": "0x84",
          "logIndex": "0xb3",
          "removed": false
        },
        {
          "address": "0x8aafd3ede9adb0ff97c7aebce82a919afb1c8764",
          "topics": [
            "0xddf252ad1be2c89b69c2b068fc378daa952ba7f163c4a11628f55a4df523b3ef",
            "0x000000000000000000000000c77f7fed3b5cc8249adc428c5f44c9063b9734b4",
            "0x000000000000000000000000c77f7fed3b5cc8249adc428c5f44c9063b9734b4"
          ],
          "data": "0x000000000000000000000000000000000000000000000000000147ace99ae525",
          "blockHash": "0x5fe26dd4a5223c62b374d0155ed3b6e0e471c050e50b741c6e797d391feb7733",
          "blockNumber": "0x73176c",
          "transactionHash": "0xb7188a7ec05e2c7e72b642d148c2a4cb743761b2511c56d1819ffc287ab64ef1",
          "transactionIndex": "0x84",
          "logIndex": "0xb4",
          "removed": false
        },
        {
          "address": "0x8aafd3ede9adb0ff97c7aebce82a919afb1c8764",
          "topics": [
            "0x4afcb4a87cdbd9974efdb92ee48bc8d7cd0ae4bf217004db3d080cbaee652ca7"
          ],
          "data": "0x00000000000000000000000000000000000000000000000000000000679015d4000000000000000000000000000000000000000000000000000504e586be079e000000000000000000000000000000000000000000000000000039dda462b456",
          "blockHash": "0x5fe26dd4a5223c62b374d0155ed3b6e0e471c050e50b741c6e797d391feb7733",
          "blockNumber": "0x73176c",
          "transactionHash": "0xb7188a7ec05e2c7e72b642d148c2a4cb743761b2511c56d1819ffc287ab64ef1",
          "transactionIndex": "0x84",
          "logIndex": "0xb5",
          "removed": false
        }
      ],
      "logsBloom": "0x00000000000000000000000000000000000000000600000000000000000000000000000000000000000000000000000000000000000000004000000000000000000000000000004000000008000000000000000000000000000000000000000000000000020000000000000000000800020000000000000000000010000000000000000000000000000000000000000000000000000000000000010000000000000000000000000000000000000000004000000000000000000000000000000000000002000000800000000000000000000000000000080000000000000020000000000000000000000000000000000000000000000000000000000000000000",
      "type": "0x2",
      "transactionHash": "0xb7188a7ec05e2c7e72b642d148c2a4cb743761b2511c56d1819ffc287ab64ef1",
      "transactionIndex": "0x84",
      "blockHash": "0x5fe26dd4a5223c62b374d0155ed3b6e0e471c050e50b741c6e797d391feb7733",
      "blockNumber": "0x73176c",
      "gasUsed": "0xfd33",
      "effectiveGasPrice": "0x41bda0a0",
      "from": "0xc77f7fed3b5cc8249adc428c5f44c9063b9734b4",
      "to": "0x8aafd3ede9adb0ff97c7aebce82a919afb1c8764",
      "contractAddress": null
    }
  ],
  "libraries": [],
  "pending": [],
  "returns": {},
  "timestamp": 1737496022,
  "chain": 11155111,
  "commit": "1d2fb70"
}