{
  "transactions": [
    {
      "hash": "0x1e304913ace4187985fd875e746ed116755b00f7c14d62f76c1af34022346d46",
      "transactionType": "CALL",
      "contractName": null,
      "contractAddress": "0x8aafd3ede9adb0ff97c7aebce82a919afb1c8764",
      "function": "sell(uint256)",
      "arguments": [
        "5700374839793994655"
      ],
      "transaction": {
        "from": "0xc77f7fed3b5cc8249adc428c5f44c9063b9734b4",
        "to": "0x8aafd3ede9adb0ff97c7aebce82a919afb1c8764",
        "gas": "0x15dca",
        "value": "0x0",
        "input": "0xe4849b320000000000000000000000000000000000000000000000004f1bccb7047ecb9f",
        "nonce": "0x1060",
        "chainId": "0xaa36a7"
      },
      "additionalContracts": [],
      "isFixedGasLimit": false
    }
  ],
  "receipts": [
    {
      "status": "0x1",
      "cumulativeGasUsed": "0x99799e",
      "logs": [
        {
          "address": "0x8aafd3ede9adb0ff97c7aebce82a919afb1c8764",
          "topics": [
            "0xddf252ad1be2c89b69c2b068fc378daa952ba7f163c4a11628f55a4df523b3ef",
            "0x000000000000000000000000c77f7fed3b5cc8249adc428c5f44c9063b9734b4",
            "0x0000000000000000000000000000000000000000000000000000000000000000"
          ],
          "data": "0x0000000000000000000000000000000000000000000000004e79c9077932014a",
          "blockHash": "0x7d24ecc10aa5a2e8202333050a6feb3d6fad5cd4ddea8bb8f2d93b50e63d7730",
          "blockNumber": "0x7316e6",
          "transactionHash": "0x1e304913ace4187985fd875e746ed116755b00f7c14d62f76c1af34022346d46",
          "transactionIndex": "0x75",
          "logIndex": "0xa5",
          "removed": false
        },
        {
          "address": "0x8aafd3ede9adb0ff97c7aebce82a919afb1c8764",
          "topics": [
            "0xddf252ad1be2c89b69c2b068fc378daa952ba7f163c4a11628f55a4df523b3ef",
            "0x000000000000000000000000c77f7fed3b5cc8249adc428c5f44c9063b9734b4",
            "0x000000000000000000000000c77f7fed3b5cc8249adc428c5f44c9063b9734b4"
          ],
          "data": "0x00000000000000000000000000000000000000000000000000a203af8b4cca55",
          "blockHash": "0x7d24ecc10aa5a2e8202333050a6feb3d6fad5cd4ddea8bb8f2d93b50e63d7730",
          "blockNumber": "0x7316e6",
          "transactionHash": "0x1e304913ace4187985fd875e746ed116755b00f7c14d62f76c1af34022346d46",
          "transactionIndex": "0x75",
          "logIndex": "0xa6",
          "removed": false
        },
        {
          "address": "0x8aafd3ede9adb0ff97c7aebce82a919afb1c8764",
          "topics": [
            "0x4afcb4a87cdbd9974efdb92ee48bc8d7cd0ae4bf217004db3d080cbaee652ca7"
          ],
          "data": "0x0000000000000000000000000000000000000000000000000000000067900f800000000000000000000000000000000000000000000000000004f4ebc7727467000000000000000000000000000000000000000000000000001c4147365063c8",
          "blockHash": "0x7d24ecc10aa5a2e8202333050a6feb3d6fad5cd4ddea8bb8f2d93b50e63d7730",
          "blockNumber": "0x7316e6",
          "transactionHash": "0x1e304913ace4187985fd875e746ed116755b00f7c14d62f76c1af34022346d46",
          "transactionIndex": "0x75",
          "logIndex": "0xa7",
          "removed": false
        }
      ],
      "logsBloom": "0x00000000000000000000000000000000000000000600000000000000000000000000000000000000000000000000000000000000000000004000000000000000000000000000004000000008000000000000000000000000000000000000000000000000020000000000000000000800020000000000000000000010000000000000000000000000000000000000000000000000000000000000010000000000000000000000000000000000000000004000000000000000000000000000000000000002000000800000000000000000000000000000080000000000000020000000000000000000000000000000000000000000000000000000000000000000",
      "type": "0x2",
      "transactionHash": "0x1e304913ace4187985fd875e746ed116755b00f7c14d62f76c1af34022346d46",
      "transactionIndex": "0x75",
      "blockHash": "0x7d24ecc10aa5a2e8202333050a6feb3d6fad5cd4ddea8bb8f2d93b50e63d7730",
      "blockNumber": "0x7316e6",
      "gasUsed": "0xfd3f",
      "effectiveGasPrice": "0x3f101661",
      "from": "0xc77f7fed3b5cc8249adc428c5f44c9063b9734b4",
      "to": "0x8aafd3ede9adb0ff97c7aebce82a919afb1c8764",
      "contractAddress": null
    }
  ],
  "libraries": [],
  "pending": [],
  "returns": {},
  "timestamp": 1737494401,
  "chain": 11155111,
  "commit": "1d2fb70"
}