{
  "transactions": [
    {
      "hash": "0x7388442d993532c383e88787bcc175e983b8ba394d202c9fb4ed913d4dbe30f6",
      "transactionType": "CALL",
      "contractName": null,
      "contractAddress": "0x8aafd3ede9adb0ff97c7aebce82a919afb1c8764",
      "function": "sell(uint256)",
      "arguments": [
        "5939062623642982385"
      ],
      "transaction": {
        "from": "0xc77f7fed3b5cc8249adc428c5f44c9063b9734b4",
        "to": "0x8aafd3ede9adb0ff97c7aebce82a919afb1c8764",
        "gas": "0x15dca",
        "value": "0x0",
        "input": "0xe4849b32000000000000000000000000000000000000000000000000526bc9fd5d0a17f1",
        "nonce": "0xf54",
        "chainId": "0xaa36a7"
      },
      "additionalContracts": [],
      "isFixedGasLimit": false
    }
  ],
  "receipts": [
    {
      "status": "0x1",
      "cumulativeGasUsed": "0xd4e6dd",
      "logs": [
        {
          "address": "0x8aafd3ede9adb0ff97c7aebce82a919afb1c8764",
          "topics": [
            "0xddf252ad1be2c89b69c2b068fc378daa952ba7f163c4a11628f55a4df523b3ef",
            "0x000000000000000000000000c77f7fed3b5cc8249adc428c5f44c9063b9734b4",
            "0x0000000000000000000000000000000000000000000000000000000000000000"
          ],
          "data": "0x00000000000000000000000000000000000000000000000051c2fd9f2d30ecbe",
          "blockHash": "0x0832e1c66d3a4804d75d4620e7e6fec1f2a8548f7f34cf933f1a91b4d5fcb1b6",
          "blockNumber": "0x7315af",
          "transactionHash": "0x7388442d993532c383e88787bcc175e983b8ba394d202c9fb4ed913d4dbe30f6",
          "transactionIndex": "0x87",
          "logIndex": "0xc6",
          "removed": false
        },
        {
          "address": "0x8aafd3ede9adb0ff97c7aebce82a919afb1c8764",
          "topics": [
            "0xddf252ad1be2c89b69c2b068fc378daa952ba7f163c4a11628f55a4df523b3ef",
            "0x000000000000000000000000c77f7fed3b5cc8249adc428c5f44c9063b9734b4",
            "0x000000000000000000000000c77f7fed3b5cc8249adc428c5f44c9063b9734b4"
          ],
          "data": "0x00000000000000000000000000000000000000000000000000a8cc5e2fd92b33",
          "blockHash": "0x0832e1c66d3a4804d75d4620e7e6fec1f2a8548f7f34cf933f1a91b4d5fcb1b6",
          "blockNumber": "0x7315af",
          "transactionHash": "0x7388442d993532c383e88787bcc175e983b8ba394d202c9fb4ed913d4dbe30f6",
          "transactionIndex": "0x87",
          "logIndex": "0xc7",
          "removed": false
        },
        {
          "address": "0x8aafd3ede9adb0ff97c7aebce82a919afb1c8764",
          "topics": [
            "0x4afcb4a87cdbd9974efdb92ee48bc8d7cd0ae4bf217004db3d080cbaee652ca7"
          ],
          "data": "0x00000000000000000000000000000000000000000000000000000000679000e00000000000000000000000000000000000000000000000000004c0db9e4affa7000000000000000000000000000000000000000000000000001c3afbf3b16374",
          "blockHash": "0x0832e1c66d3a4804d75d4620e7e6fec1f2a8548f7f34cf933f1a91b4d5fcb1b6",
          "blockNumber": "0x7315af",
          "transactionHash": "0x7388442d993532c383e88787bcc175e983b8ba394d202c9fb4ed913d4dbe30f6",
          "transactionIndex": "0x87",
          "logIndex": "0xc8",
          "removed": false
        }
      ],
      "logsBloom": "0x00000000000000000000000000000000000000000600000000000000000000000000000000000000000000000000000000000000000000004000000000000000000000000000004000000008000000000000000000000000000000000000000000000000020000000000000000000800020000000000000000000010000000000000000000000000000000000000000000000000000000000000010000000000000000000000000000000000000000004000000000000000000000000000000000000002000000800000000000000000000000000000080000000000000020000000000000000000000000000000000000000000000000000000000000000000",
      "type": "0x2",
      "transactionHash": "0x7388442d993532c383e88787bcc175e983b8ba394d202c9fb4ed913d4dbe30f6",
      "transactionIndex": "0x87",
      "blockHash": "0x0832e1c66d3a4804d75d4620e7e6fec1f2a8548f7f34cf933f1a91b4d5fcb1b6",
      "blockNumber": "0x7315af",
      "gasUsed": "0xfd3f",
      "effectiveGasPrice": "0x77e4e8bc",
      "from": "0xc77f7fed3b5cc8249adc428c5f44c9063b9734b4",
      "to": "0x8aafd3ede9adb0ff97c7aebce82a919afb1c8764",
      "contractAddress": null
    }
  ],
  "libraries": [],
  "pending": [],
  "returns": {},
  "timestamp": 1737490658,
  "chain": 11155111,
  "commit": "1d2fb70"
}