{
  "transactions": [
    {
      "hash": "0x0a5886e9a5b427539f19bbbc5acb5ca25b55e2899b30cb647409f16b32aabcea",
      "transactionType": "CALL",
      "contractName": null,
      "contractAddress": "0x8aafd3ede9adb0ff97c7aebce82a919afb1c8764",
      "function": "sell(uint256)",
      "arguments": [
        "387780"
      ],
      "transaction": {
        "from": "0xc77f7fed3b5cc8249adc428c5f44c9063b9734b4",
        "to": "0x8aafd3ede9adb0ff97c7aebce82a919afb1c8764",
        "gas": "0x16208",
        "value": "0x0",
        "input": "0xe4849b32000000000000000000000000000000000000000000000000000000000005eac4",
        "nonce": "0x15ba",
        "chainId": "0xaa36a7"
      },
      "additionalContracts": [],
      "isFixedGasLimit": false
    }
  ],
  "receipts": [
    {
      "status": "0x1",
      "cumulativeGasUsed": "0x9e50f7",
      "logs": [
        {
          "address": "0x8aafd3ede9adb0ff97c7aebce82a919afb1c8764",
          "topics": [
            "0xddf252ad1be2c89b69c2b068fc378daa952ba7f163c4a11628f55a4df523b3ef",
            "0x000000000000000000000000c77f7fed3b5cc8249adc428c5f44c9063b9734b4",
            "0x0000000000000000000000000000000000000000000000000000000000000000"
          ],
          "data": "0x000000000000000000000000000000000000000000000000000000000005dea6",
          "blockHash": "0xbc238cdad5f176b305b4cc98a34800b8bc6c7052212f0897f1a1ec642db5d037",
          "blockNumber": "0x731d33",
          "transactionHash": "0x0a5886e9a5b427539f19bbbc5acb5ca25b55e2899b30cb647409f16b32aabcea",
          "transactionIndex": "0x51",
          "logIndex": "0x82",
          "removed": false
        },
        {
          "address": "0x8aafd3ede9adb0ff97c7aebce82a919afb1c8764",
          "topics": [
            "0xddf252ad1be2c89b69c2b068fc378daa952ba7f163c4a11628f55a4df523b3ef",
            "0x000000000000000000000000c77f7fed3b5cc8249adc428c5f44c9063b9734b4",
            "0x000000000000000000000000c77f7fed3b5cc8249adc428c5f44c9063b9734b4"
          ],
          "data": "0x0000000000000000000000000000000000000000000000000000000000000c1e",
          "blockHash": "0xbc238cdad5f176b305b4cc98a34800b8bc6c7052212f0897f1a1ec642db5d037",
          "blockNumber": "0x731d33",
          "transactionHash": "0x0a5886e9a5b427539f19bbbc5acb5ca25b55e2899b30cb647409f16b32aabcea",
          "transactionIndex": "0x51",
          "logIndex": "0x83",
          "removed": false
        },
        {
          "address": "0x8aafd3ede9adb0ff97c7aebce82a919afb1c8764",
          "topics": [
            "0x4afcb4a87cdbd9974efdb92ee48bc8d7cd0ae4bf217004db3d080cbaee652ca7"
          ],
          "data": "0x0000000000000000000000000000000000000000000000000000000067905b4c00000000000000000000000000000000000000000000000000132eebde75ffe6000000000000000000000000000000000000000000000000000000000000082d",
          "blockHash": "0xbc238cdad5f176b305b4cc98a34800b8bc6c7052212f0897f1a1ec642db5d037",
          "blockNumber": "0x731d33",
          "transactionHash": "0x0a5886e9a5b427539f19bbbc5acb5ca25b55e2899b30cb647409f16b32aabcea",
          "transactionIndex": "0x51",
          "logIndex": "0x84",
          "removed": false
        }
      ],
      "logsBloom": "0x00000000000000000000000000000000000000000600000000000000000000000000000000000000000000000000000000000000000000004000000000000000000000000000004000000008000000000000000000000000000000000000000000000000020000000000000000000800020000000000000000000010000000000000000000000000000000000000000000000000000000000000010000000000000000000000000000000000000000004000000000000000000000000000000000000002000000800000000000000000000000000000080000000000000020000000000000000000000000000000000000000000000000000000000000000000",
      "type": "0x2",
      "transactionHash": "0x0a5886e9a5b427539f19bbbc5acb5ca25b55e2899b30cb647409f16b32aabcea",
      "transactionIndex": "0x51",
      "blockHash": "0xbc238cdad5f176b305b4cc98a34800b8bc6c7052212f0897f1a1ec642db5d037",
      "blockNumber": "0x731d33",
      "gasUsed": "0xf213",
      "effectiveGasPrice": "0x5019f765",
      "from": "0xc77f7fed3b5cc8249adc428c5f44c9063b9734b4",
      "to": "0x8aafd3ede9adb0ff97c7aebce82a919afb1c8764",
      "contractAddress": null
    }
  ],
  "libraries": [],
  "pending": [],
  "returns": {},
  "timestamp": 1737513806,
  "chain": 11155111,
  "commit": "1d2fb70"
}