{
  "transactions": [
    {
      "hash": "0x82bce97f4b4234a6c23481a451bdd4a680f2d6bda8bb3c7ba9f73566c9a52d49",
      "transactionType": "CALL",
      "contractName": null,
      "contractAddress": "0x8aafd3ede9adb0ff97c7aebce82a919afb1c8764",
      "function": "buy(address)",
      "arguments": [
        "0xC77f7fed3b5Cc8249aDc428c5F44C9063B9734b4"
      ],
      "transaction": {
        "from": "0xc77f7fed3b5cc8249adc428c5f44c9063b9734b4",
        "to": "0x8aafd3ede9adb0ff97c7aebce82a919afb1c8764",
        "gas": "0x156ea",
        "value": "0xde0b6b3a7640000",
        "input": "0xf088d547000000000000000000000000c77f7fed3b5cc8249adc428c5f44c9063b9734b4",
        "nonce": "0xe41",
        "chainId": "0xaa36a7"
      },
      "additionalContracts": [],
      "isFixedGasLimit": false
    }
  ],
  "receipts": [
    {
      "status": "0x1",
      "cumulativeGasUsed": "0x120cf2c",
      "logs": [
        {
          "address": "0x8aafd3ede9adb0ff97c7aebce82a919afb1c8764",
          "topics": [
            "0xddf252ad1be2c89b69c2b068fc378daa952ba7f163c4a11628f55a4df523b3ef",
            "0x0000000000000000000000000000000000000000000000000000000000000000",
            "0x000000000000000000000000c77f7fed3b5cc8249adc428c5f44c9063b9734b4"
          ],
          "data": "0x0000000000000000000000000000000000000000000000289b0a36dfcddb635a",
          "blockHash": "0xe31eae67c4fbdd5249dc0cbbeae44a9e913d2760ba1b537787e56d496ee0c50c",
          "blockNumber": "0x73137f",
          "transactionHash": "0x82bce97f4b4234a6c23481a451bdd4a680f2d6bda8bb3c7ba9f73566c9a52d49",
          "transactionIndex": "0xb8",
          "logIndex": "0xe3",
          "removed": false
        },
        {
          "address": "0x8aafd3ede9adb0ff97c7aebce82a919afb1c8764",
          "topics": [
            "0xddf252ad1be2c89b69c2b068fc378daa952ba7f163c4a11628f55a4df523b3ef",
            "0x0000000000000000000000000000000000000000000000000000000000000000",
            "0x000000000000000000000000c77f7fed3b5cc8249adc428c5f44c9063b9734b4"
          ],
          "data": "0x0000000000000000000000000000000000000000000000001f881a61dab6cb35",
          "blockHash": "0xe31eae67c4fbdd5249dc0cbbeae44a9e913d2760ba1b537787e56d496ee0c50c",
          "blockNumber": "0x73137f",
          "transactionHash": "0x82bce97f4b4234a6c23481a451bdd4a680f2d6bda8bb3c7ba9f73566c9a52d49",
          "transactionIndex": "0xb8",
          "logIndex": "0xe4",
          "removed": false
        },
        {
          "address": "0x8aafd3ede9adb0ff97c7aebce82a919afb1c8764",
          "topics": [
            "0x4afcb4a87cdbd9974efdb92ee48bc8d7cd0ae4bf217004db3d080cbaee652ca7"
          ],
          "data": "0x00000000000000000000000000000000000000000000000000000000678fe6880000000000000000000000000000000000000000000000000004b22ecc2015ff0000000000000000000000000000000000000000000000000de0b6b3a7640000",
          "blockHash": "0xe31eae67c4fbdd5249dc0cbbeae44a9e913d2760ba1b537787e56d496ee0c50c",
          "blockNumber": "0x73137f",
          "transactionHash": "0x82bce97f4b4234a6c23481a451bdd4a680f2d6bda8bb3c7ba9f73566c9a52d49",
          "transactionIndex": "0xb8",
          "logIndex": "0xe5",
          "removed": false
        }
      ],
      "logsBloom": "0x00000000000000000000000000000000000000000600000000000000000000000000000000000000000000000000000000000000000000004000000000000000000000000000004000000008000000000000000000000000000000000000000000000000020000000000000000000800020000000000000000000010000000000000000000000000000000000000000000000000000000000000010000000000000000000000000000000000000000004000000000000000000000000000000000000002000000800000000000000000000000000000080000000000000020000000000000000000000000000000000000000000000000000000000000000000",
      "type": "0x2",
      "transactionHash": "0x82bce97f4b4234a6c23481a451bdd4a680f2d6bda8bb3c7ba9f73566c9a52d49",
      "transactionIndex": "0xb8",
      "blockHash": "0xe31eae67c4fbdd5249dc0cbbeae44a9e913d2760ba1b537787e56d496ee0c50c",
      "blockNumber": "0x73137f",
      "gasUsed": "0xf844",
      "effectiveGasPrice": "0x6c18496b",
      "from": "0xc77f7fed3b5cc8249adc428c5f44c9063b9734b4",
      "to": "0x8aafd3ede9adb0ff97c7aebce82a919afb1c8764",
      "contractAddress": null
    }
  ],
  "libraries": [],
  "pending": [],
  "returns": {},
  "timestamp": 1737483914,
  "chain": 11155111,
  "commit": "51a374b"
}