{
  "transactions": [
    {
      "hash": "0xea75eb91e40a64500e481bcf06a5143650d57d7542c3a1b8506f2ccfaffd1b2d",
      "transactionType": "CALL",
      "contractName": null,
      "contractAddress": "0xbf4a322f1496e5c3d34a9bcdb4c60567b38c7de2",
      "function": "buy(address)",
      "arguments": [
        "0xC77f7fed3b5Cc8249aDc428c5F44C9063B9734b4"
      ],
      "transaction": {
        "from": "0xc77f7fed3b5cc8249adc428c5f44c9063b9734b4",
        "to": "0xbf4a322f1496e5c3d34a9bcdb4c60567b38c7de2",
        "gas": "0x1b309",
        "value": "0xde0b6b3a7640000",
        "input": "0xf088d547000000000000000000000000c77f7fed3b5cc8249adc428c5f44c9063b9734b4",
        "nonce": "0xae0",
        "chainId": "0xaa36a7"
      },
      "additionalContracts": [],
      "isFixedGasLimit": false
    }
  ],
  "receipts": [
    {
      "status": "0x1",
      "cumulativeGasUsed": "0x14e2964",
      "logs": [
        {
          "address": "0xbf4a322f1496e5c3d34a9bcdb4c60567b38c7de2",
          "topics": [
            "0xddf252ad1be2c89b69c2b068fc378daa952ba7f163c4a11628f55a4df523b3ef",
            "0x0000000000000000000000000000000000000000000000000000000000000000",
            "0x000000000000000000000000c77f7fed3b5cc8249adc428c5f44c9063b9734b4"
          ],
          "data": "0x000000000000000000000000000000000000000000000035311d0eec220213d0",
          "blockHash": "0x0dabb0ab692460385d808897c7a36a048fbad4d2a4e7afccc38ff595c5350b4d",
          "blockNumber": "0x725ad3",
          "transactionHash": "0xea75eb91e40a64500e481bcf06a5143650d57d7542c3a1b8506f2ccfaffd1b2d",
          "transactionIndex": "0x113",
          "logIndex": "0x113",
          "removed": false
        },
        {
          "address": "0xbf4a322f1496e5c3d34a9bcdb4c60567b38c7de2",
          "topics": [
            "0xddf252ad1be2c89b69c2b068fc378daa952ba7f163c4a11628f55a4df523b3ef",
            "0x0000000000000000000000000000000000000000000000000000000000000000",
            "0x000000000000000000000000c77f7fed3b5cc8249adc428c5f44c9063b9734b4"
          ],
          "data": "0x000000000000000000000000000000000000000000000000294e2732b7a11530",
          "blockHash": "0x0dabb0ab692460385d808897c7a36a048fbad4d2a4e7afccc38ff595c5350b4d",
          "blockNumber": "0x725ad3",
          "transactionHash": "0xea75eb91e40a64500e481bcf06a5143650d57d7542c3a1b8506f2ccfaffd1b2d",
          "transactionIndex": "0x113",
          "logIndex": "0x114",
          "removed": false
        },
        {
          "address": "0xbf4a322f1496e5c3d34a9bcdb4c60567b38c7de2",
          "topics": [
            "0x4afcb4a87cdbd9974efdb92ee48bc8d7cd0ae4bf217004db3d080cbaee652ca7"
          ],
          "data": "0x0000000000000000000000000000000000000000000000000000000067873434000000000000000000000000000000000000000000000000000395a5342d2ced0000000000000000000000000000000000000000000000000de0b6b3a7640000",
          "blockHash": "0x0dabb0ab692460385d808897c7a36a048fbad4d2a4e7afccc38ff595c5350b4d",
          "blockNumber": "0x725ad3",
          "transactionHash": "0xea75eb91e40a64500e481bcf06a5143650d57d7542c3a1b8506f2ccfaffd1b2d",
          "transactionIndex": "0x113",
          "logIndex": "0x115",
          "removed": false
        }
      ],
      "logsBloom": "0x00000000000000000000000000000000000000000000000000000000000000000000000000000000000000000000000000000000000000004000000000000000000000000000000000000008000000000000001000000000000000000000000000000000020000000000000000000800020000000000000000000010000000000000000000000000000000000000000000000000000008000000010000000000000000000000000000000000000000004000000000000000000000000000000000000002000000800000000000001000000000000000080000000000000020000000000000000000000000000000000000000000000000000000000000000000",
      "type": "0x2",
      "transactionHash": "0xea75eb91e40a64500e481bcf06a5143650d57d7542c3a1b8506f2ccfaffd1b2d",
      "transactionIndex": "0x113",
      "blockHash": "0x0dabb0ab692460385d808897c7a36a048fbad4d2a4e7afccc38ff595c5350b4d",
      "blockNumber": "0x725ad3",
      "gasUsed": "0x13af6",
      "effectiveGasPrice": "0xbbcbff4e",
      "from": "0xc77f7fed3b5cc8249adc428c5f44c9063b9734b4",
      "to": "0xbf4a322f1496e5c3d34a9bcdb4c60567b38c7de2",
      "contractAddress": null
    }
  ],
  "libraries": [],
  "pending": [],
  "returns": {},
  "timestamp": 1736913973,
  "chain": 11155111,
  "commit": "51a374b"
}