{
  "transactions": [
    {
      "hash": "0xb4af5c973ac1feafe61b2cd28755bcc0a81bc3ac11d7cd2f0c866abeb6041d5a",
      "transactionType": "CALL",
      "contractName": null,
      "contractAddress": "0xbf4a322f1496e5c3d34a9bcdb4c60567b38c7de2",
      "function": "sell(uint256)",
      "arguments": [
        "10000000000000000000"
      ],
      "transaction": {
        "from": "0xc77f7fed3b5cc8249adc428c5f44c9063b9734b4",
        "to": "0xbf4a322f1496e5c3d34a9bcdb4c60567b38c7de2",
        "gas": "0x1d166",
        "value": "0x0",
        "input": "0xe4849b320000000000000000000000000000000000000000000000008ac7230489e80000",
        "nonce": "0x8c6",
        "chainId": "0xaa36a7"
      },
      "additionalContracts": [],
      "isFixedGasLimit": false
    }
  ],
  "receipts": [
    {
      "status": "0x1",
      "cumulativeGasUsed": "0x755524",
      "logs": [
        {
          "address": "0xbf4a322f1496e5c3d34a9bcdb4c60567b38c7de2",
          "topics": [
            "0xddf252ad1be2c89b69c2b068fc378daa952ba7f163c4a11628f55a4df523b3ef",
            "0x000000000000000000000000c77f7fed3b5cc8249adc428c5f44c9063b9734b4",
            "0x0000000000000000000000000000000000000000000000000000000000000000"
          ],
          "data": "0x0000000000000000000000000000000000000000000000008ac7230489e80000",
          "blockHash": "0xf296b85ee43ae4ed313014e503e333bd4bc06f74eca5629fd286d6a746f49e9e",
          "blockNumber": "0x725831",
          "transactionHash": "0xb4af5c973ac1feafe61b2cd28755bcc0a81bc3ac11d7cd2f0c866abeb6041d5a",
          "transactionIndex": "0x39",
          "logIndex": "0x4e",
          "removed": false
        },
        {
          "address": "0xbf4a322f1496e5c3d34a9bcdb4c60567b38c7de2",
          "topics": [
            "0x4afcb4a87cdbd9974efdb92ee48bc8d7cd0ae4bf217004db3d080cbaee652ca7"
          ],
          "data": "0x000000000000000000000000000000000000000000000000000000006787146c00000000000000000000000000000000000000000000000000038d7eb1316a15000000000000000000000000000000000000000000000000002386f26fc0ffff",
          "blockHash": "0xf296b85ee43ae4ed313014e503e333bd4bc06f74eca5629fd286d6a746f49e9e",
          "blockNumber": "0x725831",
          "transactionHash": "0xb4af5c973ac1feafe61b2cd28755bcc0a81bc3ac11d7cd2f0c866abeb6041d5a",
          "transactionIndex": "0x39",
          "logIndex": "0x4f",
          "removed": false
        }
      ],
      "logsBloom": "0x00000000000000000000000000000000000000000000000000000000000000000000000000000000000000000000000000000000000000004000000000000000000000000000000000000008000000000000001000000000000000000000000000000000020000000000000000000800020000000000000000000010000000000000000000000000000000000000000000000000000008000000010000000000000000000000000000000000000000004000000000000000000000000000000000000002000000800000000000001000000000000000080000000000000020000000000000000000000000000000000000000000000000000000000000000000",
      "type": "0x2",
      "transactionHash": "0xb4af5c973ac1feafe61b2cd28755bcc0a81bc3ac11d7cd2f0c866abeb6041d5a",
      "transactionIndex": "0x39",
      "blockHash": "0xf296b85ee43ae4ed313014e503e333bd4bc06f74eca5629fd286d6a746f49e9e",
      "blockNumber": "0x725831",
      "gasUsed": "0x13e39",
      "effectiveGasPrice": "0x26d188a7",
      "from": "0xc77f7fed3b5cc8249adc428c5f44c9063b9734b4",
      "to": "0xbf4a322f1496e5c3d34a9bcdb4c60567b38c7de2",
      "contractAddress": null
    }
  ],
  "libraries": [],
  "pending": [],
  "returns": {},
  "timestamp": 1736905837,
  "chain": 11155111,
  "commit": "51a374b"
}