{
  "transactions": [
    {
      "hash": "0x2ce19e3f309f0f45439697882caeccb6af003720fa161f886ceee7cd5808fac9",
      "transactionType": "CALL",
      "contractName": null,
      "contractAddress": "0xbf4a322f1496e5c3d34a9bcdb4c60567b38c7de2",
      "function": "sell(uint256)",
      "arguments": [
        "990928144938581608674"
      ],
      "transaction": {
        "from": "0xc77f7fed3b5cc8249adc428c5f44c9063b9734b4",
        "to": "0xbf4a322f1496e5c3d34a9bcdb4c60567b38c7de2",
        "gas": "0x16fea",
        "value": "0x0",
        "input": "0xe4849b32000000000000000000000000000000000000000000000035b7e3f9a8c8f3c8e2",
        "nonce": "0x8f3",
        "chainId": "0xaa36a7"
      },
      "additionalContracts": [],
      "isFixedGasLimit": false
    }
  ],
  "receipts": [
    {
      "status": "0x1",
      "cumulativeGasUsed": "0x11517a4",
      "logs": [
        {
          "address": "0xbf4a322f1496e5c3d34a9bcdb4c60567b38c7de2",
          "topics": [
            "0xddf252ad1be2c89b69c2b068fc378daa952ba7f163c4a11628f55a4df523b3ef",
            "0x000000000000000000000000c77f7fed3b5cc8249adc428c5f44c9063b9734b4",
            "0x0000000000000000000000000000000000000000000000000000000000000000"
          ],
          "data": "0x000000000000000000000000000000000000000000000035b7e3f9a8c8f3c8e2",
          "blockHash": "0x1205e8bb53f20bc11c3db48c446adb9a10345ff6b470bcb976d5b02f5d358a4c",
          "blockNumber": "0x72586a",
          "transactionHash": "0x2ce19e3f309f0f45439697882caeccb6af003720fa161f886ceee7cd5808fac9",
          "transactionIndex": "0x7a",
          "logIndex": "0xc2",
          "removed": false
        },
        {
          "address": "0xbf4a322f1496e5c3d34a9bcdb4c60567b38c7de2",
          "topics": [
            "0x4afcb4a87cdbd9974efdb92ee48bc8d7cd0ae4bf217004db3d080cbaee652ca7"
          ],
          "data": "0x000000000000000000000000000000000000000000000000000000006787172400000000000000000000000000000000000000000000000000038f6c9f0c1d070000000000000000000000000000000000000000000000000dc7e3fb7965a657",
          "blockHash": "0x1205e8bb53f20bc11c3db48c446adb9a10345ff6b470bcb976d5b02f5d358a4c",
          "blockNumber": "0x72586a",
          "transactionHash": "0x2ce19e3f309f0f45439697882caeccb6af003720fa161f886ceee7cd5808fac9",
          "transactionIndex": "0x7a",
          "logIndex": "0xc3",
          "removed": false
        }
      ],
      "logsBloom": "0x00000000000000000000000000000000000000000000000000000000000000000000000000000000000000000000000000000000000000004000000000000000000000000000000000000008000000000000001000000000000000000000000000000000020000000000000000000800020000000000000000000010000000000000000000000000000000000000000000000000000008000000010000000000000000000000000000000000000000004000000000000000000000000000000000000002000000800000000000001000000000000000080000000000000020000000000000000000000000000000000000000000000000000000000000000000",
      "type": "0x2",
      "transactionHash": "0x2ce19e3f309f0f45439697882caeccb6af003720fa161f886ceee7cd5808fac9",
      "transactionIndex": "0x7a",
      "blockHash": "0x1205e8bb53f20bc11c3db48c446adb9a10345ff6b470bcb976d5b02f5d358a4c",
      "blockNumber": "0x72586a",
      "gasUsed": "0xfb91",
      "effectiveGasPrice": "0x24ac4e8a",
      "from": "0xc77f7fed3b5cc8249adc428c5f44c9063b9734b4",
      "to": "0xbf4a322f1496e5c3d34a9bcdb4c60567b38c7de2",
      "contractAddress": null
    }
  ],
  "libraries": [],
  "pending": [],
  "returns": {},
  "timestamp": 1736906534,
  "chain": 11155111,
  "commit": "51a374b"
}