{
  "transactions": [
    {
      "hash": "0x849bbc85b1e8b9ca22d68e69fa5565d74abb463b5910ab0eaae6b6dd836be575",
      "transactionType": "CALL",
      "contractName": null,
      "contractAddress": "0x8aafd3ede9adb0ff97c7aebce82a919afb1c8764",
      "function": "sell(uint256)",
      "arguments": [
        "9746537972808235"
      ],
      "transaction": {
        "from": "0xc77f7fed3b5cc8249adc428c5f44c9063b9734b4",
        "to": "0x8aafd3ede9adb0ff97c7aebce82a919afb1c8764",
        "gas": "0x1724d",
        "value": "0x0",
        "input": "0xe4849b320000000000000000000000000000000000000000000000000022a06cb5a8ba2b",
        "nonce": "0x1714",
        "chainId": "0xaa36a7"
      },
      "additionalContracts": [],
      "isFixedGasLimit": false
    }
  ],
  "receipts": [
    {
      "status": "0x1",
      "cumulativeGasUsed": "0xbffb37",
      "logs": [
        {
          "address": "0x8aafd3ede9adb0ff97c7aebce82a919afb1c8764",
          "topics": [
            "0xddf252ad1be2c89b69c2b068fc378daa952ba7f163c4a11628f55a4df523b3ef",
            "0x000000000000000000000000c77f7fed3b5cc8249adc428c5f44c9063b9734b4",
            "0x0000000000000000000000000000000000000000000000000000000000000000"
          ],
          "data": "0x000000000000000000000000000000000000000000000000002259825e3097ea",
          "blockHash": "0x6660ef25ebdd21b304bea22f4bd4c1686e2e5478b87b618defe6dc12004124be",
          "blockNumber": "0x731ed9",
          "transactionHash": "0x849bbc85b1e8b9ca22d68e69fa5565d74abb463b5910ab0eaae6b6dd836be575",
          "transactionIndex": "0x64",
          "logIndex": "0xa7",
          "removed": false
        },
        {
          "address": "0x8aafd3ede9adb0ff97c7aebce82a919afb1c8764",
          "topics": [
            "0xddf252ad1be2c89b69c2b068fc378daa952ba7f163c4a11628f55a4df523b3ef",
            "0x000000000000000000000000c77f7fed3b5cc8249adc428c5f44c9063b9734b4",
            "0x000000000000000000000000c77f7fed3b5cc8249adc428c5f44c9063b9734b4"
          ],
          "data": "0x000000000000000000000000000000000000000000000000000046ea57782241",
          "blockHash": "0x6660ef25ebdd21b304bea22f4bd4c1686e2e5478b87b618defe6dc12004124be",
          "blockNumber": "0x731ed9",
          "transactionHash": "0x849bbc85b1e8b9ca22d68e69fa5565d74abb463b5910ab0eaae6b6dd836be575",
          "transactionIndex": "0x64",
          "logIndex": "0xa8",
          "removed": false
        },
        {
          "address": "0x8aafd3ede9adb0ff97c7aebce82a919afb1c8764",
          "topics": [
            "0x4afcb4a87cdbd9974efdb92ee48bc8d7cd0ae4bf217004db3d080cbaee652ca7"
          ],
          "data": "0x0000000000000000000000000000000000000000000000000000000067906f140000000000000000000000000000000000000000000000000017454a1f65861c00000000000000000000000000000000000000000000000000003a101c9748d8",
          "blockHash": "0x6660ef25ebdd21b304bea22f4bd4c1686e2e5478b87b618defe6dc12004124be",
          "blockNumber": "0x731ed9",
          "transactionHash": "0x849bbc85b1e8b9ca22d68e69fa5565d74abb463b5910ab0eaae6b6dd836be575",
          "transactionIndex": "0x64",
          "logIndex": "0xa9",
          "removed": false
        }
      ],
      "logsBloom": "0x00000000000000000000000000000000000000000600000000000000000000000000000000000000000000000000000000000000000000004000000000000000000000000000004000000008000000000000000000000000000000000000000000000000020000000000000000000800020000000000000000000010000000000000000000000000000000000000000000000000000000000000010000000000000000000000000000000000000000004000000000000000000000000000000000000002000000800000000000000000000000000000080000000000000020000000000000000000000000000000000000000000000000000000000000000000",
      "type": "0x2",
      "transactionHash": "0x849bbc85b1e8b9ca22d68e69fa5565d74abb463b5910ab0eaae6b6dd836be575",
      "transactionIndex": "0x64",
      "blockHash": "0x6660ef25ebdd21b304bea22f4bd4c1686e2e5478b87b618defe6dc12004124be",
      "blockNumber": "0x731ed9",
      "gasUsed": "0xfd33",
      "effectiveGasPrice": "0x3970a92e",
      "from": "0xc77f7fed3b5cc8249adc428c5f44c9063b9734b4",
      "to": "0x8aafd3ede9adb0ff97c7aebce82a919afb1c8764",
      "contractAddress": null
    }
  ],
  "libraries": [],
  "pending": [],
  "returns": {},
  "timestamp": 1737518869,
  "chain": 11155111,
  "commit": "1d2fb70"
}