{
  "transactions": [
    {
      "hash": "0x1103bcde26d055169c0d1263d97d8993f5ea2b6aa69f3865218dea261a4e6499",
      "transactionType": "CALL",
      "contractName": null,
      "contractAddress": "0x5eb9cc76c3506942c1c0ead70e877dd5e4f00cb0",
      "function": "buy(address)",
      "arguments": [
        "0xC77f7fed3b5Cc8249aDc428c5F44C9063B9734b4"
      ],
      "transaction": {
        "from": "0xc77f7fed3b5cc8249adc428c5f44c9063b9734b4",
        "to": "0x5eb9cc76c3506942c1c0ead70e877dd5e4f00cb0",
        "gas": "0x1b30c",
        "value": "0xde0b6b3a7640000",
        "input": "0xf088d547000000000000000000000000c77f7fed3b5cc8249adc428c5f44c9063b9734b4",
        "nonce": "0x2a0",
        "chainId": "0xaa36a7"
      },
      "additionalContracts": [],
      "isFixedGasLimit": false
    }
  ],
  "receipts": [
    {
      "status": "0x1",
      "cumulativeGasUsed": "0x119839c",
      "logs": [
        {
          "address": "0x5eb9cc76c3506942c1c0ead70e877dd5e4f00cb0",
          "topics": [
            "0xddf252ad1be2c89b69c2b068fc378daa952ba7f163c4a11628f55a4df523b3ef",
            "0x0000000000000000000000000000000000000000000000000000000000000000",
            "0x000000000000000000000000c77f7fed3b5cc8249adc428c5f44c9063b9734b4"
          ],
          "data": "0x00000000000000000000000000000000000000000000003575c8e8be8c3cc183",
          "blockHash": "0x0ee1eefe79da89c6147b32b3e4ec06e3e00363a35529650418647de497345b2a",
          "blockNumber": "0x724e76",
          "transactionHash": "0x1103bcde26d055169c0d1263d97d8993f5ea2b6aa69f3865218dea261a4e6499",
          "transactionIndex": "0x5e",
          "logIndex": "0x111",
          "removed": false
        },
        {
          "address": "0x5eb9cc76c3506942c1c0ead70e877dd5e4f00cb0",
          "topics": [
            "0xddf252ad1be2c89b69c2b068fc378daa952ba7f163c4a11628f55a4df523b3ef",
            "0x0000000000000000000000000000000000000000000000000000000000000000",
            "0x000000000000000000000000c77f7fed3b5cc8249adc428c5f44c9063b9734b4"
          ],
          "data": "0x00000000000000000000000000000000000000000000000029837a8d4d2f8f86",
          "blockHash": "0x0ee1eefe79da89c6147b32b3e4ec06e3e00363a35529650418647de497345b2a",
          "blockNumber": "0x724e76",
          "transactionHash": "0x1103bcde26d055169c0d1263d97d8993f5ea2b6aa69f3865218dea261a4e6499",
          "transactionIndex": "0x5e",
          "logIndex": "0x112",
          "removed": false
        },
        {
          "address": "0x5eb9cc76c3506942c1c0ead70e877dd5e4f00cb0",
          "topics": [
            "0x4afcb4a87cdbd9974efdb92ee48bc8d7cd0ae4bf217004db3d080cbaee652ca7"
          ],
          "data": "0x0000000000000000000000000000000000000000000000000000000067869f3c000000000000000000000000000000000000000000000000000391082b07889e0000000000000000000000000000000000000000000000000de0b6b3a7640000",
          "blockHash": "0x0ee1eefe79da89c6147b32b3e4ec06e3e00363a35529650418647de497345b2a",
          "blockNumber": "0x724e76",
          "transactionHash": "0x1103bcde26d055169c0d1263d97d8993f5ea2b6aa69f3865218dea261a4e6499",
          "transactionIndex": "0x5e",
          "logIndex": "0x113",
          "removed": false
        }
      ],
      "logsBloom": "0x00000000000000000000000000000000000000000000000000000000000000000000000000000000000000000000000000000000000000004000000000000000000000000000000000000008000000000000000000000000000000000000000000000000020000000000000004000800020000000000000000000010000000000000000000000000000000000000000000000000000000000000010000000000000000000000000000000000000000004000000000000000000000000000020000000002000000800000008000000000000000000000080000000000000020000000000000000000000000000000000000000000000000000000000000000000",
      "type": "0x2",
      "transactionHash": "0x1103bcde26d055169c0d1263d97d8993f5ea2b6aa69f3865218dea261a4e6499",
      "transactionIndex": "0x5e",
      "blockHash": "0x0ee1eefe79da89c6147b32b3e4ec06e3e00363a35529650418647de497345b2a",
      "blockNumber": "0x724e76",
      "gasUsed": "0x13af8",
      "effectiveGasPrice": "0x42449951d",
      "from": "0xc77f7fed3b5cc8249adc428c5f44c9063b9734b4",
      "to": "0x5eb9cc76c3506942c1c0ead70e877dd5e4f00cb0",
      "contractAddress": null
    }
  ],
  "libraries": [],
  "pending": [],
  "returns": {},
  "timestamp": 1736875837,
  "chain": 11155111,
  "commit": "51a374b"
}