{
  "transactions": [
    {
      "hash": "0x714434fa0b7dfed1adc7fe06e94228495be5a9554385489770f6e0deac932678",
      "transactionType": "CALL",
      "contractName": null,
      "contractAddress": "0x8aafd3ede9adb0ff97c7aebce82a919afb1c8764",
      "function": "sell(uint256)",
      "arguments": [
        "681313711351102835916"
      ],
      "transaction": {
        "from": "0xc77f7fed3b5cc8249adc428c5f44c9063b9734b4",
        "to": "0x8aafd3ede9adb0ff97c7aebce82a919afb1c8764",
        "gas": "0x17270",
        "value": "0x0",
        "input": "0xe4849b32000000000000000000000000000000000000000000000024ef208ab815820ccc",
        "nonce": "0x11ef",
        "chainId": "0xaa36a7"
      },
      "additionalContracts": [],
      "isFixedGasLimit": false
    }
  ],
  "receipts": [
    {
      "status": "0x1",
      "cumulativeGasUsed": "0x8c2412",
      "logs": [
        {
          "address": "0x8aafd3ede9adb0ff97c7aebce82a919afb1c8764",
          "topics": [
            "0xddf252ad1be2c89b69c2b068fc378daa952ba7f163c4a11628f55a4df523b3ef",
            "0x000000000000000000000000c77f7fed3b5cc8249adc428c5f44c9063b9734b4",
            "0x0000000000000000000000000000000000000000000000000000000000000000"
          ],
          "data": "0x000000000000000000000000000000000000000000000024a37c71088806212d",
          "blockHash": "0x5e00b30c02f8882681c159a401286c3ee61deb3ed8c21cdfb12fce5dd9fcf012",
          "blockNumber": "0x7318c7",
          "transactionHash": "0x714434fa0b7dfed1adc7fe06e94228495be5a9554385489770f6e0deac932678",
          "transactionIndex": "0x5b",
          "logIndex": "0x79",
          "removed": false
        },
        {
          "address": "0x8aafd3ede9adb0ff97c7aebce82a919afb1c8764",
          "topics": [
            "0xddf252ad1be2c89b69c2b068fc378daa952ba7f163c4a11628f55a4df523b3ef",
            "0x000000000000000000000000c77f7fed3b5cc8249adc428c5f44c9063b9734b4",
            "0x000000000000000000000000c77f7fed3b5cc8249adc428c5f44c9063b9734b4"
          ],
          "data": "0x0000000000000000000000000000000000000000000000004ba419af8d7beb9f",
          "blockHash": "0x5e00b30c02f8882681c159a401286c3ee61deb3ed8c21cdfb12fce5dd9fcf012",
          "blockNumber": "0x7318c7",
          "transactionHash": "0x714434fa0b7dfed1adc7fe06e94228495be5a9554385489770f6e0deac932678",
          "transactionIndex": "0x5b",
          "logIndex": "0x7a",
          "removed": false
        },
        {
          "address": "0x8aafd3ede9adb0ff97c7aebce82a919afb1c8764",
          "topics": [
            "0x4afcb4a87cdbd9974efdb92ee48bc8d7cd0ae4bf217004db3d080cbaee652ca7"
          ],
          "data": "0x000000000000000000000000000000000000000000000000000000006790262400000000000000000000000000000000000000000000000000052f047cf1a6c00000000000000000000000000000000000000000000000000dc8f255acd5dbca",
          "blockHash": "0x5e00b30c02f8882681c159a401286c3ee61deb3ed8c21cdfb12fce5dd9fcf012",
          "blockNumber": "0x7318c7",
          "transactionHash": "0x714434fa0b7dfed1adc7fe06e94228495be5a9554385489770f6e0deac932678",
          "transactionIndex": "0x5b",
          "logIndex": "0x7b",
          "removed": false
        }
      ],
      "logsBloom": "0x00000000000000000000000000000000000000000600000000000000000000000000000000000000000000000000000000000000000000004000000000000000000000000000004000000008000000000000000000000000000000000000000000000000020000000000000000000800020000000000000000000010000000000000000000000000000000000000000000000000000000000000010000000000000000000000000000000000000000004000000000000000000000000000000000000002000000800000000000000000000000000000080000000000000020000000000000000000000000000000000000000000000000000000000000000000",
      "type": "0x2",
      "transactionHash": "0x714434fa0b7dfed1adc7fe06e94228495be5a9554385489770f6e0deac932678",
      "transactionIndex": "0x5b",
      "blockHash": "0x5e00b30c02f8882681c159a401286c3ee61deb3ed8c21cdfb12fce5dd9fcf012",
      "blockNumber": "0x7318c7",
      "gasUsed": "0xfd4b",
      "effectiveGasPrice": "0x4a348bda",
      "from": "0xc77f7fed3b5cc8249adc428c5f44c9063b9734b4",
      "to": "0x8aafd3ede9adb0ff97c7aebce82a919afb1c8764",
      "contractAddress": null
    }
  ],
  "libraries": [],
  "pending": [],
  "returns": {},
  "timestamp": 1737500198,
  "chain": 11155111,
  "commit": "1d2fb70"
}