{
  "transactions": [
    {
      "hash": "0x0c038a92d92586323f7ad8f41b7cdf407d73140c0aaf231a6b043fe8f7644150",
      "transactionType": "CALL",
      "contractName": null,
      "contractAddress": "0x5eb9cc76c3506942c1c0ead70e877dd5e4f00cb0",
      "function": "buy(address)",
      "arguments": [
        "0xC77f7fed3b5Cc8249aDc428c5F44C9063B9734b4"
      ],
      "transaction": {
        "from": "0xc77f7fed3b5cc8249adc428c5f44c9063b9734b4",
        "to": "0x5eb9cc76c3506942c1c0ead70e877dd5e4f00cb0",
        "gas": "0x1b30c",
        "value": "0xde0b6b3a7640000",
        "input": "0xf088d547000000000000000000000000c77f7fed3b5cc8249adc428c5f44c9063b9734b4",
        "nonce": "0x4a2",
        "chainId": "0xaa36a7"
      },
      "additionalContracts": [],
      "isFixedGasLimit": false
    }
  ],
  "receipts": [
    {
      "status": "0x1",
      "cumulativeGasUsed": "0x141e657",
      "logs": [
        {
          "address": "0x5eb9cc76c3506942c1c0ead70e877dd5e4f00cb0",
          "topics": [
            "0xddf252ad1be2c89b69c2b068fc378daa952ba7f163c4a11628f55a4df523b3ef",
            "0x0000000000000000000000000000000000000000000000000000000000000000",
            "0x000000000000000000000000c77f7fed3b5cc8249adc428c5f44c9063b9734b4"
          ],
          "data": "0x00000000000000000000000000000000000000000000003574a6c93624f2b545",
          "blockHash": "0x0f9d0e1d2a3db85ffca74ed8ec0ac710b115e5be475905754b0cc4626958bb15",
          "blockNumber": "0x7250dd",
          "transactionHash": "0x0c038a92d92586323f7ad8f41b7cdf407d73140c0aaf231a6b043fe8f7644150",
          "transactionIndex": "0x61",
          "logIndex": "0xbf",
          "removed": false
        },
        {
          "address": "0x5eb9cc76c3506942c1c0ead70e877dd5e4f00cb0",
          "topics": [
            "0xddf252ad1be2c89b69c2b068fc378daa952ba7f163c4a11628f55a4df523b3ef",
            "0x0000000000000000000000000000000000000000000000000000000000000000",
            "0x000000000000000000000000c77f7fed3b5cc8249adc428c5f44c9063b9734b4"
          ],
          "data": "0x00000000000000000000000000000000000000000000000029829942ec418fb0",
          "blockHash": "0x0f9d0e1d2a3db85ffca74ed8ec0ac710b115e5be475905754b0cc4626958bb15",
          "blockNumber": "0x7250dd",
          "transactionHash": "0x0c038a92d92586323f7ad8f41b7cdf407d73140c0aaf231a6b043fe8f7644150",
          "transactionIndex": "0x61",
          "logIndex": "0xc0",
          "removed": false
        },
        {
          "address": "0x5eb9cc76c3506942c1c0ead70e877dd5e4f00cb0",
          "topics": [
            "0x4afcb4a87cdbd9974efdb92ee48bc8d7cd0ae4bf217004db3d080cbaee652ca7"
          ],
          "data": "0x000000000000000000000000000000000000000000000000000000006786bc400000000000000000000000000000000000000000000000000003911b8661c2a00000000000000000000000000000000000000000000000000de0b6b3a7640000",
          "blockHash": "0x0f9d0e1d2a3db85ffca74ed8ec0ac710b115e5be475905754b0cc4626958bb15",
          "blockNumber": "0x7250dd",
          "transactionHash": "0x0c038a92d92586323f7ad8f41b7cdf407d73140c0aaf231a6b043fe8f7644150",
          "transactionIndex": "0x61",
          "logIndex": "0xc1",
          "removed": false
        }
      ],
      "logsBloom": "0x00000000000000000000000000000000000000000000000000000000000000000000000000000000000000000000000000000000000000004000000000000000000000000000000000000008000000000000000000000000000000000000000000000000020000000000000004000800020000000000000000000010000000000000000000000000000000000000000000000000000000000000010000000000000000000000000000000000000000004000000000000000000000000000020000000002000000800000008000000000000000000000080000000000000020000000000000000000000000000000000000000000000000000000000000000000",
      "type": "0x2",
      "transactionHash": "0x0c038a92d92586323f7ad8f41b7cdf407d73140c0aaf231a6b043fe8f7644150",
      "transactionIndex": "0x61",
      "blockHash": "0x0f9d0e1d2a3db85ffca74ed8ec0ac710b115e5be475905754b0cc4626958bb15",
      "blockNumber": "0x7250dd",
      "gasUsed": "0x13af8",
      "effectiveGasPrice": "0x26a142776",
      "from": "0xc77f7fed3b5cc8249adc428c5f44c9063b9734b4",
      "to": "0x5eb9cc76c3506942c1c0ead70e877dd5e4f00cb0",
      "contractAddress": null
    }
  ],
  "libraries": [],
  "pending": [],
  "returns": {},
  "timestamp": 1736883266,
  "chain": 11155111,
  "commit": "51a374b"
}