{
  "transactions": [
    {
      "hash": "0x1699f8a3eb637d9544d6fc8da8d8d98f2003b4a8026b34312ebf6c7884482bd6",
      "transactionType": "CALL",
      "contractName": null,
      "contractAddress": "0x270e88f8683660553e8ba4eb2ad7c91a1710d769",
      "function": "sell(uint256)",
      "arguments": [
        "976666338654097469430"
      ],
      "transaction": {
        "from": "0xc77f7fed3b5cc8249adc428c5f44c9063b9734b4",
        "to": "0x270e88f8683660553e8ba4eb2ad7c91a1710d769",
        "gas": "0x16fec",
        "value": "0x0",
        "input": "0xe4849b32000000000000000000000000000000000000000000000034f1f7dc67e6d76ff6",
        "nonce": "0x53d",
        "chainId": "0xaa36a7"
      },
      "additionalContracts": [],
      "isFixedGasLimit": false
    }
  ],
  "receipts": [
    {
      "status": "0x1",
      "cumulativeGasUsed": "0x5a134f",
      "logs": [
        {
          "address": "0x270e88f8683660553e8ba4eb2ad7c91a1710d769",
          "topics": [
            "0xddf252ad1be2c89b69c2b068fc378daa952ba7f163c4a11628f55a4df523b3ef",
            "0x000000000000000000000000c77f7fed3b5cc8249adc428c5f44c9063b9734b4",
            "0x0000000000000000000000000000000000000000000000000000000000000000"
          ],
          "data": "0x000000000000000000000000000000000000000000000034f1f7dc67e6d76ff6",
          "blockHash": "0x735c2fef30a4c3067894a363388a49e20560368a28e9ce8027698280ab1cf8af",
          "blockNumber": "0x7251d9",
          "transactionHash": "0x1699f8a3eb637d9544d6fc8da8d8d98f2003b4a8026b34312ebf6c7884482bd6",
          "transactionIndex": "0x3e",
          "logIndex": "0x5e",
          "removed": false
        },
        {
          "address": "0x270e88f8683660553e8ba4eb2ad7c91a1710d769",
          "topics": [
            "0x4afcb4a87cdbd9974efdb92ee48bc8d7cd0ae4bf217004db3d080cbaee652ca7"
          ],
          "data": "0x000000000000000000000000000000000000000000000000000000006786c81c00000000000000000000000000000000000000000000000000039d001552c2b40000000000000000000000000000000000000000000000000dc840e5f626f4f4",
          "blockHash": "0x735c2fef30a4c3067894a363388a49e20560368a28e9ce8027698280ab1cf8af",
          "blockNumber": "0x7251d9",
          "transactionHash": "0x1699f8a3eb637d9544d6fc8da8d8d98f2003b4a8026b34312ebf6c7884482bd6",
          "transactionIndex": "0x3e",
          "logIndex": "0x5f",
          "removed": false
        }
      ],
      "logsBloom": "0x00000000000000000000000000000000000000000000000000000000000000000000000000000000000000000000000020000000000000004000000000000000000000000000000000000008000000000000000000000000000000000000000000000000020000000000000000000800020000000000000000000010000000000000000000010000000000000000000000000000000000000000010000000000000000000000000000000000000000004000000000000000000000000000000000000002000000800000000000000000000000000000080000008000000020000000000000000000000000000000000000000000000000000000000000000000",
      "type": "0x2",
      "transactionHash": "0x1699f8a3eb637d9544d6fc8da8d8d98f2003b4a8026b34312ebf6c7884482bd6",
      "transactionIndex": "0x3e",
      "blockHash": "0x735c2fef30a4c3067894a363388a49e20560368a28e9ce8027698280ab1cf8af",
      "blockNumber": "0x7251d9",
      "gasUsed": "0xfb93",
      "effectiveGasPrice": "0x45b574961",
      "from": "0xc77f7fed3b5cc8249adc428c5f44c9063b9734b4",
      "to": "0x270e88f8683660553e8ba4eb2ad7c91a1710d769",
      "contractAddress": null
    }
  ],
  "libraries": [],
  "pending": [],
  "returns": {},
  "timestamp": 1736886300,
  "chain": 11155111,
  "commit": "51a374b"
}