{
  "transactions": [
    {
      "hash": "0xf5ffc42f51421fdb5c441250b10c46b167cbe2004e68f6fec3e331d93af5e7d4",
      "transactionType": "CALL",
      "contractName": null,
      "contractAddress": "0x8aafd3ede9adb0ff97c7aebce82a919afb1c8764",
      "function": "sell(uint256)",
      "arguments": [
        "11872"
      ],
      "transaction": {
        "from": "0xc77f7fed3b5cc8249adc428c5f44c9063b9734b4",
        "to": "0x8aafd3ede9adb0ff97c7aebce82a919afb1c8764",
        "gas": "0x14e4c",
        "value": "0x0",
        "input": "0xe4849b320000000000000000000000000000000000000000000000000000000000002e60",
        "nonce": "0x10a3",
        "chainId": "0xaa36a7"
      },
      "additionalContracts": [],
      "isFixedGasLimit": false
    }
  ],
  "receipts": [
    {
      "status": "0x1",
      "cumulativeGasUsed": "0xc05f62",
      "logs": [
        {
          "address": "0x8aafd3ede9adb0ff97c7aebce82a919afb1c8764",
          "topics": [
            "0xddf252ad1be2c89b69c2b068fc378daa952ba7f163c4a11628f55a4df523b3ef",
            "0x000000000000000000000000c77f7fed3b5cc8249adc428c5f44c9063b9734b4",
            "0x0000000000000000000000000000000000000000000000000000000000000000"
          ],
          "data": "0x0000000000000000000000000000000000000000000000000000000000002e02",
          "blockHash": "0x326783aa55ea59fa2acb719489c4f3ab282823b6538427c3b181ee31287b6629",
          "blockNumber": "0x731736",
          "transactionHash": "0xf5ffc42f51421fdb5c441250b10c46b167cbe2004e68f6fec3e331d93af5e7d4",
          "transactionIndex": "0x83",
          "logIndex": "0x9f",
          "removed": false
        },
        {
          "address": "0x8aafd3ede9adb0ff97c7aebce82a919afb1c8764",
          "topics": [
            "0xddf252ad1be2c89b69c2b068fc378daa952ba7f163c4a11628f55a4df523b3ef",
            "0x000000000000000000000000c77f7fed3b5cc8249adc428c5f44c9063b9734b4",
            "0x000000000000000000000000c77f7fed3b5cc8249adc428c5f44c9063b9734b4"
          ],
          "data": "0x000000000000000000000000000000000000000000000000000000000000005e",
          "blockHash": "0x326783aa55ea59fa2acb719489c4f3ab282823b6538427c3b181ee31287b6629",
          "blockNumber": "0x731736",
          "transactionHash": "0xf5ffc42f51421fdb5c441250b10c46b167cbe2004e68f6fec3e331d93af5e7d4",
          "transactionIndex": "0x83",
          "logIndex": "0xa0",
          "removed": false
        },
        {
          "address": "0x8aafd3ede9adb0ff97c7aebce82a919afb1c8764",
          "topics": [
            "0x4afcb4a87cdbd9974efdb92ee48bc8d7cd0ae4bf217004db3d080cbaee652ca7"
          ],
          "data": "0x000000000000000000000000000000000000000000000000000000006790134c0000000000000000000000000000000000000000000000000004fda279f9b3390000000000000000000000000000000000000000000000000000000000000010",
          "blockHash": "0x326783aa55ea59fa2acb719489c4f3ab282823b6538427c3b181ee31287b6629",
          "blockNumber": "0x731736",
          "transactionHash": "0xf5ffc42f51421fdb5c441250b10c46b167cbe2004e68f6fec3e331d93af5e7d4",
          "transactionIndex": "0x83",
          "logIndex": "0xa1",
          "removed": false
        }
      ],
      "logsBloom": "0x00000000000000000000000000000000000000000600000000000000000000000000000000000000000000000000000000000000000000004000000000000000000000000000004000000008000000000000000000000000000000000000000000000000020000000000000000000800020000000000000000000010000000000000000000000000000000000000000000000000000000000000010000000000000000000000000000000000000000004000000000000000000000000000000000000002000000800000000000000000000000000000080000000000000020000000000000000000000000000000000000000000000000000000000000000000",
      "type": "0x2",
      "transactionHash": "0xf5ffc42f51421fdb5c441250b10c46b167cbe2004e68f6fec3e331d93af5e7d4",
      "transactionIndex": "0x83",
      "blockHash": "0x326783aa55ea59fa2acb719489c4f3ab282823b6538427c3b181ee31287b6629",
      "blockNumber": "0x731736",
      "gasUsed": "0xf207",
      "effectiveGasPrice": "0x4cb669d1",
      "from": "0xc77f7fed3b5cc8249adc428c5f44c9063b9734b4",
      "to": "0x8aafd3ede9adb0ff97c7aebce82a919afb1c8764",
      "contractAddress": null
    }
  ],
  "libraries": [],
  "pending": [],
  "returns": {},
  "timestamp": 1737495373,
  "chain": 11155111,
  "commit": "1d2fb70"
}