{
  "transactions": [
    {
      "hash": "0x0995c757969997896e62f2f535a5dd7d73aa85609f6c70582e5af62be0321765",
      "transactionType": "CALL",
      "contractName": null,
      "contractAddress": "0x8aafd3ede9adb0ff97c7aebce82a919afb1c8764",
      "function": "sell(uint256)",
      "arguments": [
        "62797397"
      ],
      "transaction": {
        "from": "0xc77f7fed3b5cc8249adc428c5f44c9063b9734b4",
        "to": "0x8aafd3ede9adb0ff97c7aebce82a919afb1c8764",
        "gas": "0x15d88",
        "value": "0x0",
        "input": "0xe4849b320000000000000000000000000000000000000000000000000000000003be3655",
        "nonce": "0x143f",
        "chainId": "0xaa36a7"
      },
      "additionalContracts": [],
      "isFixedGasLimit": false
    }
  ],
  "receipts": [
    {
      "status": "0x1",
      "cumulativeGasUsed": "0xca6bbe",
      "logs": [
        {
          "address": "0x8aafd3ede9adb0ff97c7aebce82a919afb1c8764",
          "topics": [
            "0xddf252ad1be2c89b69c2b068fc378daa952ba7f163c4a11628f55a4df523b3ef",
            "0x000000000000000000000000c77f7fed3b5cc8249adc428c5f44c9063b9734b4",
            "0x0000000000000000000000000000000000000000000000000000000000000000"
          ],
          "data": "0x0000000000000000000000000000000000000000000000000000000003b68bea",
          "blockHash": "0x6e3a05b7fe208474188e29cefab1cba5d067de19cca90484a1a25198cd742fd1",
          "blockNumber": "0x731b81",
          "transactionHash": "0x0995c757969997896e62f2f535a5dd7d73aa85609f6c70582e5af62be0321765",
          "transactionIndex": "0x89",
          "logIndex": "0xdb",
          "removed": false
        },
        {
          "address": "0x8aafd3ede9adb0ff97c7aebce82a919afb1c8764",
          "topics": [
            "0xddf252ad1be2c89b69c2b068fc378daa952ba7f163c4a11628f55a4df523b3ef",
            "0x000000000000000000000000c77f7fed3b5cc8249adc428c5f44c9063b9734b4",
            "0x000000000000000000000000c77f7fed3b5cc8249adc428c5f44c9063b9734b4"
          ],
          "data": "0x000000000000000000000000000000000000000000000000000000000007aa6b",
          "blockHash": "0x6e3a05b7fe208474188e29cefab1cba5d067de19cca90484a1a25198cd742fd1",
          "blockNumber": "0x731b81",
          "transactionHash": "0x0995c757969997896e62f2f535a5dd7d73aa85609f6c70582e5af62be0321765",
          "transactionIndex": "0x89",
          "logIndex": "0xdc",
          "removed": false
        },
        {
          "address": "0x8aafd3ede9adb0ff97c7aebce82a919afb1c8764",
          "topics": [
            "0x4afcb4a87cdbd9974efdb92ee48bc8d7cd0ae4bf217004db3d080cbaee652ca7"
          ],
          "data": "0x00000000000000000000000000000000000000000000000000000000679046e8000000000000000000000000000000000000000000000000000ed46770d20676000000000000000000000000000000000000000000000000000000000003fff0",
          "blockHash": "0x6e3a05b7fe208474188e29cefab1cba5d067de19cca90484a1a25198cd742fd1",
          "blockNumber": "0x731b81",
          "transactionHash": "0x0995c757969997896e62f2f535a5dd7d73aa85609f6c70582e5af62be0321765",
          "transactionIndex": "0x89",
          "logIndex": "0xdd",
          "removed": false
        }
      ],
      "logsBloom": "0x00000000000000000000000000000000000000000600000000000000000000000000000000000000000000000000000000000000000000004000000000000000000000000000004000000008000000000000000000000000000000000000000000000000020000000000000000000800020000000000000000000010000000000000000000000000000000000000000000000000000000000000010000000000000000000000000000000000000000004000000000000000000000000000000000000002000000800000000000000000000000000000080000000000000020000000000000000000000000000000000000000000000000000000000000000000",
      "type": "0x2",
      "transactionHash": "0x0995c757969997896e62f2f535a5dd7d73aa85609f6c70582e5af62be0321765",
      "transactionIndex": "0x89",
      "blockHash": "0x6e3a05b7fe208474188e29cefab1cba5d067de19cca90484a1a25198cd742fd1",
      "blockNumber": "0x731b81",
      "gasUsed": "0xfd0f",
      "effectiveGasPrice": "0x10346625b",
      "from": "0xc77f7fed3b5cc8249adc428c5f44c9063b9734b4",
      "to": "0x8aafd3ede9adb0ff97c7aebce82a919afb1c8764",
      "contractAddress": null
    }
  ],
  "libraries": [],
  "pending": [],
  "returns": {},
  "timestamp": 1737508585,
  "chain": 11155111,
  "commit": "1d2fb70"
}