{
  "transactions": [
    {
      "hash": "0x561cc170cddc18162b9eec8e820b1239d52910be36c83269423a09e24ce8b9f2",
      "transactionType": "CALL",
      "contractName": null,
      "contractAddress": "0x270e88f8683660553e8ba4eb2ad7c91a1710d769",
      "function": "buy(address)",
      "arguments": [
        "0xC77f7fed3b5Cc8249aDc428c5F44C9063B9734b4"
      ],
      "transaction": {
        "from": "0xc77f7fed3b5cc8249adc428c5f44c9063b9734b4",
        "to": "0x270e88f8683660553e8ba4eb2ad7c91a1710d769",
        "gas": "0x1b30c",
        "value": "0xde0b6b3a7640000",
        "input": "0xf088d547000000000000000000000000c77f7fed3b5cc8249adc428c5f44c9063b9734b4",
        "nonce": "0x739",
        "chainId": "0xaa36a7"
      },
      "additionalContracts": [],
      "isFixedGasLimit": false
    }
  ],
  "receipts": [
    {
      "status": "0x1",
      "cumulativeGasUsed": "0x12905c4",
      "logs": [
        {
          "address": "0x270e88f8683660553e8ba4eb2ad7c91a1710d769",
          "topics": [
            "0xddf252ad1be2c89b69c2b068fc378daa952ba7f163c4a11628f55a4df523b3ef",
            "0x0000000000000000000000000000000000000000000000000000000000000000",
            "0x000000000000000000000000c77f7fed3b5cc8249adc428c5f44c9063b9734b4"
          ],
          "data": "0x0000000000000000000000000000000000000000000000280001c3ce67061127",
          "blockHash": "0x9a0381087cded3900fa32c8df0a1b3cf1dd51a41f78f02b817b791613d65533e",
          "blockNumber": "0x72545a",
          "transactionHash": "0x561cc170cddc18162b9eec8e820b1239d52910be36c83269423a09e24ce8b9f2",
          "transactionIndex": "0x61",
          "logIndex": "0x8f",
          "removed": false
        },
        {
          "address": "0x270e88f8683660553e8ba4eb2ad7c91a1710d769",
          "topics": [
            "0xddf252ad1be2c89b69c2b068fc378daa952ba7f163c4a11628f55a4df523b3ef",
            "0x0000000000000000000000000000000000000000000000000000000000000000",
            "0x000000000000000000000000c77f7fed3b5cc8249adc428c5f44c9063b9734b4"
          ],
          "data": "0x0000000000000000000000000000000000000000000000001f0fb6f28c2a928d",
          "blockHash": "0x9a0381087cded3900fa32c8df0a1b3cf1dd51a41f78f02b817b791613d65533e",
          "blockNumber": "0x72545a",
          "transactionHash": "0x561cc170cddc18162b9eec8e820b1239d52910be36c83269423a09e24ce8b9f2",
          "transactionIndex": "0x61",
          "logIndex": "0x90",
          "removed": false
        },
        {
          "address": "0x270e88f8683660553e8ba4eb2ad7c91a1710d769",
          "topics": [
            "0x4afcb4a87cdbd9974efdb92ee48bc8d7cd0ae4bf217004db3d080cbaee652ca7"
          ],
          "data": "0x000000000000000000000000000000000000000000000000000000006786e6400000000000000000000000000000000000000000000000000004c45f877bded00000000000000000000000000000000000000000000000000de0b6b3a7640000",
          "blockHash": "0x9a0381087cded3900fa32c8df0a1b3cf1dd51a41f78f02b817b791613d65533e",
          "blockNumber": "0x72545a",
          "transactionHash": "0x561cc170cddc18162b9eec8e820b1239d52910be36c83269423a09e24ce8b9f2",
          "transactionIndex": "0x61",
          "logIndex": "0x91",
          "removed": false
        }
      ],
      "logsBloom": "0x00000000000000000000000000000000000000000000000000000000000000000000000000000000000000000000000020000000000000004000000000000000000000000000000000000008000000000000000000000000000000000000000000000000020000000000000000000800020000000000000000000010000000000000000000010000000000000000000000000000000000000000010000000000000000000000000000000000000000004000000000000000000000000000000000000002000000800000000000000000000000000000080000008000000020000000000000000000000000000000000000000000000000000000000000000000",
      "type": "0x2",
      "transactionHash": "0x561cc170cddc18162b9eec8e820b1239d52910be36c83269423a09e24ce8b9f2",
      "transactionIndex": "0x61",
      "blockHash": "0x9a0381087cded3900fa32c8df0a1b3cf1dd51a41f78f02b817b791613d65533e",
      "blockNumber": "0x72545a",
      "gasUsed": "0x13af8",
      "effectiveGasPrice": "0x12985781d",
      "from": "0xc77f7fed3b5cc8249adc428c5f44c9063b9734b4",
      "to": "0x270e88f8683660553e8ba4eb2ad7c91a1710d769",
      "contractAddress": null
    }
  ],
  "libraries": [],
  "pending": [],
  "returns": {},
  "timestamp": 1736894018,
  "chain": 11155111,
  "commit": "51a374b"
}