{
  "transactions": [
    {
      "hash": "0xde55439711fc39f3977f161aba8145421c12ae9bde678484038cce12e0c09f9e",
      "transactionType": "CALL",
      "contractName": null,
      "contractAddress": "0xbf4a322f1496e5c3d34a9bcdb4c60567b38c7de2",
      "function": "sell(uint256)",
      "arguments": [
        "980173856838655171014"
      ],
      "transaction": {
        "from": "0xc77f7fed3b5cc8249adc428c5f44c9063b9734b4",
        "to": "0xbf4a322f1496e5c3d34a9bcdb4c60567b38c7de2",
        "gas": "0x16fea",
        "value": "0x0",
        "input": "0xe4849b3200000000000000000000000000000000000000000000003522a5119c70a059c6",
        "nonce": "0xc0b",
        "chainId": "0xaa36a7"
      },
      "additionalContracts": [],
      "isFixedGasLimit": false
    }
  ],
  "receipts": [
    {
      "status": "0x1",
      "cumulativeGasUsed": "0x7a9e93",
      "logs": [
        {
          "address": "0xbf4a322f1496e5c3d34a9bcdb4c60567b38c7de2",
          "topics": [
            "0xddf252ad1be2c89b69c2b068fc378daa952ba7f163c4a11628f55a4df523b3ef",
            "0x000000000000000000000000c77f7fed3b5cc8249adc428c5f44c9063b9734b4",
            "0x0000000000000000000000000000000000000000000000000000000000000000"
          ],
          "data": "0x00000000000000000000000000000000000000000000003522a5119c70a059c6",
          "blockHash": "0xb3ae41373dd69960957242d840a212983c2f99db3ec525b3f587a6e373e50f2a",
          "blockNumber": "0x725c36",
          "transactionHash": "0xde55439711fc39f3977f161aba8145421c12ae9bde678484038cce12e0c09f9e",
          "transactionIndex": "0x34",
          "logIndex": "0x38",
          "removed": false
        },
        {
          "address": "0xbf4a322f1496e5c3d34a9bcdb4c60567b38c7de2",
          "topics": [
            "0x4afcb4a87cdbd9974efdb92ee48bc8d7cd0ae4bf217004db3d080cbaee652ca7"
          ],
          "data": "0x00000000000000000000000000000000000000000000000000000000678744e40000000000000000000000000000000000000000000000000003996c8ba033510000000000000000000000000000000000000000000000000dc7e3e27875798d",
          "blockHash": "0xb3ae41373dd69960957242d840a212983c2f99db3ec525b3f587a6e373e50f2a",
          "blockNumber": "0x725c36",
          "transactionHash": "0xde55439711fc39f3977f161aba8145421c12ae9bde678484038cce12e0c09f9e",
          "transactionIndex": "0x34",
          "logIndex": "0x39",
          "removed": false
        }
      ],
      "logsBloom": "0x00000000000000000000000000000000000000000000000000000000000000000000000000000000000000000000000000000000000000004000000000000000000000000000000000000008000000000000001000000000000000000000000000000000020000000000000000000800020000000000000000000010000000000000000000000000000000000000000000000000000008000000010000000000000000000000000000000000000000004000000000000000000000000000000000000002000000800000000000001000000000000000080000000000000020000000000000000000000000000000000000000000000000000000000000000000",
      "type": "0x2",
      "transactionHash": "0xde55439711fc39f3977f161aba8145421c12ae9bde678484038cce12e0c09f9e",
      "transactionIndex": "0x34",
      "blockHash": "0xb3ae41373dd69960957242d840a212983c2f99db3ec525b3f587a6e373e50f2a",
      "blockNumber": "0x725c36",
      "gasUsed": "0xfb91",
      "effectiveGasPrice": "0x11df26e9f",
      "from": "0xc77f7fed3b5cc8249adc428c5f44c9063b9734b4",
      "to": "0xbf4a322f1496e5c3d34a9bcdb4c60567b38c7de2",
      "contractAddress": null
    }
  ],
  "libraries": [],
  "pending": [],
  "returns": {},
  "timestamp": 1736918246,
  "chain": 11155111,
  "commit": "51a374b"
}