{
  "transactions": [
    {
      "hash": "0xaaf2709bf5d8417bfe8a072b7da19310dabc8031475db71b32ed88fe78cd9fa6",
      "transactionType": "CALL",
      "contractName": null,
      "contractAddress": "0xbf4a322f1496e5c3d34a9bcdb4c60567b38c7de2",
      "function": "buy(address)",
      "arguments": [
        "0xC77f7fed3b5Cc8249aDc428c5F44C9063B9734b4"
      ],
      "transaction": {
        "from": "0xc77f7fed3b5cc8249adc428c5f44c9063b9734b4",
        "to": "0xbf4a322f1496e5c3d34a9bcdb4c60567b38c7de2",
        "gas": "0x1b309",
        "value": "0xde0b6b3a7640000",
        "input": "0xf088d547000000000000000000000000c77f7fed3b5cc8249adc428c5f44c9063b9734b4",
        "nonce": "0x982",
        "chainId": "0xaa36a7"
      },
      "additionalContracts": [],
      "isFixedGasLimit": false
    }
  ],
  "receipts": [
    {
      "status": "0x1",
      "cumulativeGasUsed": "0x1d77594",
      "logs": [
        {
          "address": "0xbf4a322f1496e5c3d34a9bcdb4c60567b38c7de2",
          "topics": [
            "0xddf252ad1be2c89b69c2b068fc378daa952ba7f163c4a11628f55a4df523b3ef",
            "0x0000000000000000000000000000000000000000000000000000000000000000",
            "0x000000000000000000000000c77f7fed3b5cc8249adc428c5f44c9063b9734b4"
          ],
          "data": "0x0000000000000000000000000000000000000000000000357301b91fcadee28e",
          "blockHash": "0x7aa00e82419e87fdaae5f5699f8ea544cd48fa1c8a198c7f3b1ab9214c3ecbca",
          "blockNumber": "0x725922",
          "transactionHash": "0xaaf2709bf5d8417bfe8a072b7da19310dabc8031475db71b32ed88fe78cd9fa6",
          "transactionIndex": "0xf9",
          "logIndex": "0x165",
          "removed": false
        },
        {
          "address": "0xbf4a322f1496e5c3d34a9bcdb4c60567b38c7de2",
          "topics": [
            "0xddf252ad1be2c89b69c2b068fc378daa952ba7f163c4a11628f55a4df523b3ef",
            "0x0000000000000000000000000000000000000000000000000000000000000000",
            "0x000000000000000000000000c77f7fed3b5cc8249adc428c5f44c9063b9734b4"
          ],
          "data": "0x0000000000000000000000000000000000000000000000002981524ab0b7c073",
          "blockHash": "0x7aa00e82419e87fdaae5f5699f8ea544cd48fa1c8a198c7f3b1ab9214c3ecbca",
          "blockNumber": "0x725922",
          "transactionHash": "0xaaf2709bf5d8417bfe8a072b7da19310dabc8031475db71b32ed88fe78cd9fa6",
          "transactionIndex": "0xf9",
          "logIndex": "0x166",
          "removed": false
        },
        {
          "address": "0xbf4a322f1496e5c3d34a9bcdb4c60567b38c7de2",
          "topics": [
            "0x4afcb4a87cdbd9974efdb92ee48bc8d7cd0ae4bf217004db3d080cbaee652ca7"
          ],
          "data": "0x0000000000000000000000000000000000000000000000000000000067871fc400000000000000000000000000000000000000000000000000039139ecc01e460000000000000000000000000000000000000000000000000de0b6b3a7640000",
          "blockHash": "0x7aa00e82419e87fdaae5f5699f8ea544cd48fa1c8a198c7f3b1ab9214c3ecbca",
          "blockNumber": "0x725922",
          "transactionHash": "0xaaf2709bf5d8417bfe8a072b7da19310dabc8031475db71b32ed88fe78cd9fa6",
          "transactionIndex": "0xf9",
          "logIndex": "0x167",
          "removed": false
        }
      ],
      "logsBloom": "0x00000000000000000000000000000000000000000000000000000000000000000000000000000000000000000000000000000000000000004000000000000000000000000000000000000008000000000000001000000000000000000000000000000000020000000000000000000800020000000000000000000010000000000000000000000000000000000000000000000000000008000000010000000000000000000000000000000000000000004000000000000000000000000000000000000002000000800000000000001000000000000000080000000000000020000000000000000000000000000000000000000000000000000000000000000000",
      "type": "0x2",
      "transactionHash": "0xaaf2709bf5d8417bfe8a072b7da19310dabc8031475db71b32ed88fe78cd9fa6",
      "transactionIndex": "0xf9",
      "blockHash": "0x7aa00e82419e87fdaae5f5699f8ea544cd48fa1c8a198c7f3b1ab9214c3ecbca",
      "blockNumber": "0x725922",
      "gasUsed": "0x13af6",
      "effectiveGasPrice": "0x9982b3db",
      "from": "0xc77f7fed3b5cc8249adc428c5f44c9063b9734b4",
      "to": "0xbf4a322f1496e5c3d34a9bcdb4c60567b38c7de2",
      "contractAddress": null
    }
  ],
  "libraries": [],
  "pending": [],
  "returns": {},
  "timestamp": 1736908743,
  "chain": 11155111,
  "commit": "51a374b"
}