{
  "transactions": [
    {
      "hash": "0xff16d5219858dccd8f6aea8d144027659d49bddb8fed8984f0575646fc30e66e",
      "transactionType": "CALL",
      "contractName": null,
      "contractAddress": "0x8aafd3ede9adb0ff97c7aebce82a919afb1c8764",
      "function": "sell(uint256)",
      "arguments": [
        "1477390"
      ],
      "transaction": {
        "from": "0xc77f7fed3b5cc8249adc428c5f44c9063b9734b4",
        "to": "0x8aafd3ede9adb0ff97c7aebce82a919afb1c8764",
        "gas": "0x16208",
        "value": "0x0",
        "input": "0xe4849b320000000000000000000000000000000000000000000000000000000000168b0e",
        "nonce": "0x10ca",
        "chainId": "0xaa36a7"
      },
      "additionalContracts": [],
      "isFixedGasLimit": false
    }
  ],
  "receipts": [
    {
      "status": "0x1",
      "cumulativeGasUsed": "0xdf8d83",
      "logs": [
        {
          "address": "0x8aafd3ede9adb0ff97c7aebce82a919afb1c8764",
          "topics": [
            "0xddf252ad1be2c89b69c2b068fc378daa952ba7f163c4a11628f55a4df523b3ef",
            "0x000000000000000000000000c77f7fed3b5cc8249adc428c5f44c9063b9734b4",
            "0x0000000000000000000000000000000000000000000000000000000000000000"
          ],
          "data": "0x0000000000000000000000000000000000000000000000000000000000165ce3",
          "blockHash": "0x72f5e52a400dfade4d4242c7e81db0518dff66499720095a8322efd6bc6ce805",
          "blockNumber": "0x731767",
          "transactionHash": "0xff16d5219858dccd8f6aea8d144027659d49bddb8fed8984f0575646fc30e66e",
          "transactionIndex": "0x72",
          "logIndex": "0x10a",
          "removed": false
        },
        {
          "address": "0x8aafd3ede9adb0ff97c7aebce82a919afb1c8764",
          "topics": [
            "0xddf252ad1be2c89b69c2b068fc378daa952ba7f163c4a11628f55a4df523b3ef",
            "0x000000000000000000000000c77f7fed3b5cc8249adc428c5f44c9063b9734b4",
            "0x000000000000000000000000c77f7fed3b5cc8249adc428c5f44c9063b9734b4"
          ],
          "data": "0x0000000000000000000000000000000000000000000000000000000000002e2b",
          "blockHash": "0x72f5e52a400dfade4d4242c7e81db0518dff66499720095a8322efd6bc6ce805",
          "blockNumber": "0x731767",
          "transactionHash": "0xff16d5219858dccd8f6aea8d144027659d49bddb8fed8984f0575646fc30e66e",
          "transactionIndex": "0x72",
          "logIndex": "0x10b",
          "removed": false
        },
        {
          "address": "0x8aafd3ede9adb0ff97c7aebce82a919afb1c8764",
          "topics": [
            "0x4afcb4a87cdbd9974efdb92ee48bc8d7cd0ae4bf217004db3d080cbaee652ca7"
          ],
          "data": "0x000000000000000000000000000000000000000000000000000000006790159800000000000000000000000000000000000000000000000000050371b4a5f2f60000000000000000000000000000000000000000000000000000000000000824",
          "blockHash": "0x72f5e52a400dfade4d4242c7e81db0518dff66499720095a8322efd6bc6ce805",
          "blockNumber": "0x731767",
          "transactionHash": "0xff16d5219858dccd8f6aea8d144027659d49bddb8fed8984f0575646fc30e66e",
          "transactionIndex": "0x72",
          "logIndex": "0x10c",
          "removed": false
        }
      ],
      "logsBloom": "0x00000000000000000000000000000000000000000600000000000000000000000000000000000000000000000000000000000000000000004000000000000000000000000000004000000008000000000000000000000000000000000000000000000000020000000000000000000800020000000000000000000010000000000000000000000000000000000000000000000000000000000000010000000000000000000000000000000000000000004000000000000000000000000000000000000002000000800000000000000000000000000000080000000000000020000000000000000000000000000000000000000000000000000000000000000000",
      "type": "0x2",
      "transactionHash": "0xff16d5219858dccd8f6aea8d144027659d49bddb8fed8984f0575646fc30e66e",
      "transactionIndex": "0x72",
      "blockHash": "0x72f5e52a400dfade4d4242c7e81db0518dff66499720095a8322efd6bc6ce805",
      "blockNumber": "0x731767",
      "gasUsed": "0xf213",
      "effectiveGasPrice": "0x4801c306",
      "from": "0xc77f7fed3b5cc8249adc428c5f44c9063b9734b4",
      "to": "0x8aafd3ede9adb0ff97c7aebce82a919afb1c8764",
      "contractAddress": null
    }
  ],
  "libraries": [],
  "pending": [],
  "returns": {},
  "timestamp": 1737495961,
  "chain": 11155111,
  "commit": "1d2fb70"
}