{
  "transactions": [
    {
      "hash": "0xe044869dda489d2e33f4b6342a397ad3be313d6d0024e179a211a629d7bfc7a8",
      "transactionType": "CALL",
      "contractName": null,
      "contractAddress": "0xbf4a322f1496e5c3d34a9bcdb4c60567b38c7de2",
      "function": "sell(uint256)",
      "arguments": [
        "972815415363590862435"
      ],
      "transaction": {
        "from": "0xc77f7fed3b5cc8249adc428c5f44c9063b9734b4",
        "to": "0xbf4a322f1496e5c3d34a9bcdb4c60567b38c7de2",
        "gas": "0x16fea",
        "value": "0x0",
        "input": "0xe4849b32000000000000000000000000000000000000000000000034bc86a21382eab663",
        "nonce": "0xe33",
        "chainId": "0xaa36a7"
      },
      "additionalContracts": [],
      "isFixedGasLimit": false
    }
  ],
  "receipts": [
    {
      "status": "0x1",
      "cumulativeGasUsed": "0x215b6c1",
      "logs": [
        {
          "address": "0xbf4a322f1496e5c3d34a9bcdb4c60567b38c7de2",
          "topics": [
            "0xddf252ad1be2c89b69c2b068fc378daa952ba7f163c4a11628f55a4df523b3ef",
            "0x000000000000000000000000c77f7fed3b5cc8249adc428c5f44c9063b9734b4",
            "0x0000000000000000000000000000000000000000000000000000000000000000"
          ],
          "data": "0x000000000000000000000000000000000000000000000034bc86a21382eab663",
          "blockHash": "0x63b1449a102b5b21e7875b2314f1c1d9b43a873f0fec25a57d563814954191ec",
          "blockNumber": "0x726723",
          "transactionHash": "0xe044869dda489d2e33f4b6342a397ad3be313d6d0024e179a211a629d7bfc7a8",
          "transactionIndex": "0x6a",
          "logIndex": "0xc4",
          "removed": false
        },
        {
          "address": "0xbf4a322f1496e5c3d34a9bcdb4c60567b38c7de2",
          "topics": [
            "0x4afcb4a87cdbd9974efdb92ee48bc8d7cd0ae4bf217004db3d080cbaee652ca7"
          ],
          "data": "0x000000000000000000000000000000000000000000000000000000006787c9140000000000000000000000000000000000000000000000000003a064be4016500000000000000000000000000000000000000000000000000dc7e3d15c9c5c8b",
          "blockHash": "0x63b1449a102b5b21e7875b2314f1c1d9b43a873f0fec25a57d563814954191ec",
          "blockNumber": "0x726723",
          "transactionHash": "0xe044869dda489d2e33f4b6342a397ad3be313d6d0024e179a211a629d7bfc7a8",
          "transactionIndex": "0x6a",
          "logIndex": "0xc5",
          "removed": false
        }
      ],
      "logsBloom": "0x00000000000000000000000000000000000000000000000000000000000000000000000000000000000000000000000000000000000000004000000000000000000000000000000000000008000000000000001000000000000000000000000000000000020000000000000000000800020000000000000000000010000000000000000000000000000000000000000000000000000008000000010000000000000000000000000000000000000000004000000000000000000000000000000000000002000000800000000000001000000000000000080000000000000020000000000000000000000000000000000000000000000000000000000000000000",
      "type": "0x2",
      "transactionHash": "0xe044869dda489d2e33f4b6342a397ad3be313d6d0024e179a211a629d7bfc7a8",
      "transactionIndex": "0x6a",
      "blockHash": "0x63b1449a102b5b21e7875b2314f1c1d9b43a873f0fec25a57d563814954191ec",
      "blockNumber": "0x726723",
      "gasUsed": "0xfb91",
      "effectiveGasPrice": "0x7bd1637c7",
      "from": "0xc77f7fed3b5cc8249adc428c5f44c9063b9734b4",
      "to": "0xbf4a322f1496e5c3d34a9bcdb4c60567b38c7de2",
      "contractAddress": null
    }
  ],
  "libraries": [],
  "pending": [],
  "returns": {},
  "timestamp": 1736952085,
  "chain": 11155111,
  "commit": "51a374b"
}