{
  "transactions": [
    {
      "hash": "0x64a71f16c9011897fd9933be5e75b3796f422926de0c6349232eec6b362a878a",
      "transactionType": "CALL",
      "contractName": null,
      "contractAddress": "0x8aafd3ede9adb0ff97c7aebce82a919afb1c8764",
      "function": "sell(uint256)",
      "arguments": [
        "11673"
      ],
      "transaction": {
        "from": "0xc77f7fed3b5cc8249adc428c5f44c9063b9734b4",
        "to": "0x8aafd3ede9adb0ff97c7aebce82a919afb1c8764",
        "gas": "0x14e4c",
        "value": "0x0",
        "input": "0xe4849b320000000000000000000000000000000000000000000000000000000000002d99",
        "nonce": "0x1139",
        "chainId": "0xaa36a7"
      },
      "additionalContracts": [],
      "isFixedGasLimit": false
    }
  ],
  "receipts": [
    {
      "status": "0x1",
      "cumulativeGasUsed": "0x82df52",
      "logs": [
        {
          "address": "0x8aafd3ede9adb0ff97c7aebce82a919afb1c8764",
          "topics": [
            "0xddf252ad1be2c89b69c2b068fc378daa952ba7f163c4a11628f55a4df523b3ef",
            "0x000000000000000000000000c77f7fed3b5cc8249adc428c5f44c9063b9734b4",
            "0x0000000000000000000000000000000000000000000000000000000000000000"
          ],
          "data": "0x0000000000000000000000000000000000000000000000000000000000002d3c",
          "blockHash": "0xd077b4fab9ae7717cbf77c05f5fccd1a5dfd1202e88f1b4b3336f1c5c4dc2428",
          "blockNumber": "0x7317f2",
          "transactionHash": "0x64a71f16c9011897fd9933be5e75b3796f422926de0c6349232eec6b362a878a",
          "transactionIndex": "0x72",
          "logIndex": "0x86",
          "removed": false
        },
        {
          "address": "0x8aafd3ede9adb0ff97c7aebce82a919afb1c8764",
          "topics": [
            "0xddf252ad1be2c89b69c2b068fc378daa952ba7f163c4a11628f55a4df523b3ef",
            "0x000000000000000000000000c77f7fed3b5cc8249adc428c5f44c9063b9734b4",
            "0x000000000000000000000000c77f7fed3b5cc8249adc428c5f44c9063b9734b4"
          ],
          "data": "0x000000000000000000000000000000000000000000000000000000000000005d",
          "blockHash": "0xd077b4fab9ae7717cbf77c05f5fccd1a5dfd1202e88f1b4b3336f1c5c4dc2428",
          "blockNumber": "0x7317f2",
          "transactionHash": "0x64a71f16c9011897fd9933be5e75b3796f422926de0c6349232eec6b362a878a",
          "transactionIndex": "0x72",
          "logIndex": "0x87",
          "removed": false
        },
        {
          "address": "0x8aafd3ede9adb0ff97c7aebce82a919afb1c8764",
          "topics": [
            "0x4afcb4a87cdbd9974efdb92ee48bc8d7cd0ae4bf217004db3d080cbaee652ca7"
          ],
          "data": "0x0000000000000000000000000000000000000000000000000000000067901c1c0000000000000000000000000000000000000000000000000005136c076586920000000000000000000000000000000000000000000000000000000000000010",
          "blockHash": "0xd077b4fab9ae7717cbf77c05f5fccd1a5dfd1202e88f1b4b3336f1c5c4dc2428",
          "blockNumber": "0x7317f2",
          "transactionHash": "0x64a71f16c9011897fd9933be5e75b3796f422926de0c6349232eec6b362a878a",
          "transactionIndex": "0x72",
          "logIndex": "0x88",
          "removed": false
        }
      ],
      "logsBloom": "0x00000000000000000000000000000000000000000600000000000000000000000000000000000000000000000000000000000000000000004000000000000000000000000000004000000008000000000000000000000000000000000000000000000000020000000000000000000800020000000000000000000010000000000000000000000000000000000000000000000000000000000000010000000000000000000000000000000000000000004000000000000000000000000000000000000002000000800000000000000000000000000000080000000000000020000000000000000000000000000000000000000000000000000000000000000000",
      "type": "0x2",
      "transactionHash": "0x64a71f16c9011897fd9933be5e75b3796f422926de0c6349232eec6b362a878a",
      "transactionIndex": "0x72",
      "blockHash": "0xd077b4fab9ae7717cbf77c05f5fccd1a5dfd1202e88f1b4b3336f1c5c4dc2428",
      "blockNumber": "0x7317f2",
      "gasUsed": "0xf207",
      "effectiveGasPrice": "0x4203314d",
      "from": "0xc77f7fed3b5cc8249adc428c5f44c9063b9734b4",
      "to": "0x8aafd3ede9adb0ff97c7aebce82a919afb1c8764",
      "contractAddress": null
    }
  ],
  "libraries": [],
  "pending": [],
  "returns": {},
  "timestamp": 1737497629,
  "chain": 11155111,
  "commit": "1d2fb70"
}