{
  "transactions": [
    {
      "hash": "0x74c666f3f0ef6a1e04bad421b18728bf61715677db721d987f398faea6c47874",
      "transactionType": "CALL",
      "contractName": null,
      "contractAddress": "0xbf4a322f1496e5c3d34a9bcdb4c60567b38c7de2",
      "function": "sell(uint256)",
      "arguments": [
        "985114491638328985954"
      ],
      "transaction": {
        "from": "0xc77f7fed3b5cc8249adc428c5f44c9063b9734b4",
        "to": "0xbf4a322f1496e5c3d34a9bcdb4c60567b38c7de2",
        "gas": "0x16fea",
        "value": "0x0",
        "input": "0xe4849b320000000000000000000000000000000000000000000000356735bac8e81e0962",
        "nonce": "0xa9d",
        "chainId": "0xaa36a7"
      },
      "additionalContracts": [],
      "isFixedGasLimit": false
    }
  ],
  "receipts": [
    {
      "status": "0x1",
      "cumulativeGasUsed": "0x10e2918",
      "logs": [
        {
          "address": "0xbf4a322f1496e5c3d34a9bcdb4c60567b38c7de2",
          "topics": [
            "0xddf252ad1be2c89b69c2b068fc378daa952ba7f163c4a11628f55a4df523b3ef",
            "0x000000000000000000000000c77f7fed3b5cc8249adc428c5f44c9063b9734b4",
            "0x0000000000000000000000000000000000000000000000000000000000000000"
          ],
          "data": "0x0000000000000000000000000000000000000000000000356735bac8e81e0962",
          "blockHash": "0x3dcd6586138c3cee39d9a452fc33fcf8f6b65327bc84393ed7463b20931f019a",
          "blockNumber": "0x725a85",
          "transactionHash": "0x74c666f3f0ef6a1e04bad421b18728bf61715677db721d987f398faea6c47874",
          "transactionIndex": "0x76",
          "logIndex": "0xbf",
          "removed": false
        },
        {
          "address": "0xbf4a322f1496e5c3d34a9bcdb4c60567b38c7de2",
          "topics": [
            "0x4afcb4a87cdbd9974efdb92ee48bc8d7cd0ae4bf217004db3d080cbaee652ca7"
          ],
          "data": "0x000000000000000000000000000000000000000000000000000000006787308c000000000000000000000000000000000000000000000000000394cd8c65f21d0000000000000000000000000000000000000000000000000dc7e3edf524867a",
          "blockHash": "0x3dcd6586138c3cee39d9a452fc33fcf8f6b65327bc84393ed7463b20931f019a",
          "blockNumber": "0x725a85",
          "transactionHash": "0x74c666f3f0ef6a1e04bad421b18728bf61715677db721d987f398faea6c47874",
          "transactionIndex": "0x76",
          "logIndex": "0xc0",
          "removed": false
        }
      ],
      "logsBloom": "0x00000000000000000000000000000000000000000000000000000000000000000000000000000000000000000000000000000000000000004000000000000000000000000000000000000008000000000000001000000000000000000000000000000000020000000000000000000800020000000000000000000010000000000000000000000000000000000000000000000000000008000000010000000000000000000000000000000000000000004000000000000000000000000000000000000002000000800000000000001000000000000000080000000000000020000000000000000000000000000000000000000000000000000000000000000000",
      "type": "0x2",
      "transactionHash": "0x74c666f3f0ef6a1e04bad421b18728bf61715677db721d987f398faea6c47874",
      "transactionIndex": "0x76",
      "blockHash": "0x3dcd6586138c3cee39d9a452fc33fcf8f6b65327bc84393ed7463b20931f019a",
      "blockNumber": "0x725a85",
      "gasUsed": "0xfb91",
      "effectiveGasPrice": "0x1ca17132c",
      "from": "0xc77f7fed3b5cc8249adc428c5f44c9063b9734b4",
      "to": "0xbf4a322f1496e5c3d34a9bcdb4c60567b38c7de2",
      "contractAddress": null
    }
  ],
  "libraries": [],
  "pending": [],
  "returns": {},
  "timestamp": 1736913037,
  "chain": 11155111,
  "commit": "51a374b"
}