{
  "transactions": [
    {
      "hash": "0x6b53bd3e73ac48e3ca0d59b9429c8fb141710e4b43fa2f9ffe79dd59a1c15094",
      "transactionType": "CALL",
      "contractName": null,
      "contractAddress": "0x5eb9cc76c3506942c1c0ead70e877dd5e4f00cb0",
      "function": "buy(address)",
      "arguments": [
        "0xC77f7fed3b5Cc8249aDc428c5F44C9063B9734b4"
      ],
      "transaction": {
        "from": "0xc77f7fed3b5cc8249adc428c5f44c9063b9734b4",
        "to": "0x5eb9cc76c3506942c1c0ead70e877dd5e4f00cb0",
        "gas": "0x156c8",
        "value": "0xde0b6b3a7640000",
        "input": "0xf088d547000000000000000000000000c77f7fed3b5cc8249adc428c5f44c9063b9734b4",
        "nonce": "0x20b",
        "chainId": "0xaa36a7"
      },
      "additionalContracts": [],
      "isFixedGasLimit": false
    }
  ],
  "receipts": [
    {
      "status": "0x1",
      "cumulativeGasUsed": "0x105418c",
      "logs": [
        {
          "address": "0x5eb9cc76c3506942c1c0ead70e877dd5e4f00cb0",
          "topics": [
            "0xddf252ad1be2c89b69c2b068fc378daa952ba7f163c4a11628f55a4df523b3ef",
            "0x0000000000000000000000000000000000000000000000000000000000000000",
            "0x000000000000000000000000c77f7fed3b5cc8249adc428c5f44c9063b9734b4"
          ],
          "data": "0x00000000000000000000000000000000000000000000003584b88671ad35d044",
          "blockHash": "0xfd9769eeb19dc0522a60b5a89bb90d1cf06602c4e3c246114f07f8632d8ae0c0",
          "blockNumber": "0x724b26",
          "transactionHash": "0x6b53bd3e73ac48e3ca0d59b9429c8fb141710e4b43fa2f9ffe79dd59a1c15094",
          "transactionIndex": "0x76",
          "logIndex": "0xd8",
          "removed": false
        },
        {
          "address": "0x5eb9cc76c3506942c1c0ead70e877dd5e4f00cb0",
          "topics": [
            "0xddf252ad1be2c89b69c2b068fc378daa952ba7f163c4a11628f55a4df523b3ef",
            "0x0000000000000000000000000000000000000000000000000000000000000000",
            "0x000000000000000000000000c77f7fed3b5cc8249adc428c5f44c9063b9734b4"
          ],
          "data": "0x000000000000000000000000000000000000000000000000298f13b86029d107",
          "blockHash": "0xfd9769eeb19dc0522a60b5a89bb90d1cf06602c4e3c246114f07f8632d8ae0c0",
          "blockNumber": "0x724b26",
          "transactionHash": "0x6b53bd3e73ac48e3ca0d59b9429c8fb141710e4b43fa2f9ffe79dd59a1c15094",
          "transactionIndex": "0x76",
          "logIndex": "0xd9",
          "removed": false
        },
        {
          "address": "0x5eb9cc76c3506942c1c0ead70e877dd5e4f00cb0",
          "topics": [
            "0x4afcb4a87cdbd9974efdb92ee48bc8d7cd0ae4bf217004db3d080cbaee652ca7"
          ],
          "data": "0x0000000000000000000000000000000000000000000000000000000067867770000000000000000000000000000000000000000000000000000390095b9f175f0000000000000000000000000000000000000000000000000de0b6b3a7640000",
          "blockHash": "0xfd9769eeb19dc0522a60b5a89bb90d1cf06602c4e3c246114f07f8632d8ae0c0",
          "blockNumber": "0x724b26",
          "transactionHash": "0x6b53bd3e73ac48e3ca0d59b9429c8fb141710e4b43fa2f9ffe79dd59a1c15094",
          "transactionIndex": "0x76",
          "logIndex": "0xda",
          "removed": false
        }
      ],
      "logsBloom": "0x00000000000000000000000000000000000000000000000000000000000000000000000000000000000000000000000000000000000000004000000000000000000000000000000000000008000000000000000000000000000000000000000000000000020000000000000004000800020000000000000000000010000000000000000000000000000000000000000000000000000000000000010000000000000000000000000000000000000000004000000000000000000000000000020000000002000000800000008000000000000000000000080000000000000020000000000000000000000000000000000000000000000000000000000000000000",
      "type": "0x2",
      "transactionHash": "0x6b53bd3e73ac48e3ca0d59b9429c8fb141710e4b43fa2f9ffe79dd59a1c15094",
      "transactionIndex": "0x76",
      "blockHash": "0xfd9769eeb19dc0522a60b5a89bb90d1cf06602c4e3c246114f07f8632d8ae0c0",
      "blockNumber": "0x724b26",
      "gasUsed": "0xf82c",
      "effectiveGasPrice": "0x529fa28aa",
      "from": "0xc77f7fed3b5cc8249adc428c5f44c9063b9734b4",
      "to": "0x5eb9cc76c3506942c1c0ead70e877dd5e4f00cb0",
      "contractAddress": null
    }
  ],
  "libraries": [],
  "pending": [],
  "returns": {},
  "timestamp": 1736865650,
  "chain": 11155111,
  "commit": "51a374b"
}