{
  "transactions": [
    {
      "hash": "0xb225e2a80d611b5a83c17a8c28f02ffc3b1ba2f34edab01d402d17955c1d8704",
      "transactionType": "CALL",
      "contractName": null,
      "contractAddress": "0xa5eb8a42085d0ba183d821fcca7ff67788426f77",
      "function": "sell(uint256)",
      "arguments": [
        "17203448275862076168"
      ],
      "transaction": {
        "from": "0xc77f7fed3b5cc8249adc428c5f44c9063b9734b4",
        "to": "0xa5eb8a42085d0ba183d821fcca7ff67788426f77",
        "gas": "0x1799c",
        "value": "0x0",
        "input": "0xe4849b32000000000000000000000000000000000000000000000000eebeed0f2290bb08",
        "nonce": "0x182f",
        "chainId": "0xaa36a7"
      },
      "additionalContracts": [],
      "isFixedGasLimit": false
    }
  ],
  "receipts": [
    {
      "status": "0x1",
      "cumulativeGasUsed": "0x212aa72",
      "logs": [
        {
          "address": "0xa5eb8a42085d0ba183d821fcca7ff67788426f77",
          "topics": [
            "0xddf252ad1be2c89b69c2b068fc378daa952ba7f163c4a11628f55a4df523b3ef",
            "0x000000000000000000000000c77f7fed3b5cc8249adc428c5f44c9063b9734b4",
            "0x0000000000000000000000000000000000000000000000000000000000000000"
          ],
          "data": "0x000000000000000000000000000000000000000000000000ecd5f97fa768a927",
          "blockHash": "0xed41a5e6a01eba3c99d55b03c6dd19f949e6b0b83a2910c8e85769a327c828bd",
          "blockNumber": "0x73501a",
          "transactionHash": "0xb225e2a80d611b5a83c17a8c28f02ffc3b1ba2f34edab01d402d17955c1d8704",
          "transactionIndex": "0x36",
          "logIndex": "0x110f",
          "removed": false
        },
        {
          "address": "0xa5eb8a42085d0ba183d821fcca7ff67788426f77",
          "topics": [
            "0x03bbe564cb1b78e43195eeadbde99e5b89b19345862807fcfb59f884e4165e25"
          ],
          "data": "0x000000000000000000000000c77f7fed3b5cc8249adc428c5f44c9063b9734b400000000000000000000000000000000000000000000000002f63f2e32ccb783",
          "blockHash": "0xed41a5e6a01eba3c99d55b03c6dd19f949e6b0b83a2910c8e85769a327c828bd",
          "blockNumber": "0x73501a",
          "transactionHash": "0xb225e2a80d611b5a83c17a8c28f02ffc3b1ba2f34edab01d402d17955c1d8704",
          "transactionIndex": "0x36",
          "logIndex": "0x1110",
          "removed": false
        },
        {
          "address": "0xa5eb8a42085d0ba183d821fcca7ff67788426f77",
          "topics": [
            "0xddf252ad1be2c89b69c2b068fc378daa952ba7f163c4a11628f55a4df523b3ef",
            "0x000000000000000000000000c77f7fed3b5cc8249adc428c5f44c9063b9734b4",
            "0x000000000000000000000000c77f7fed3b5cc8249adc428c5f44c9063b9734b4"
          ],
          "data": "0x00000000000000000000000000000000000000000000000001e8f38f7b2811e1",
          "blockHash": "0xed41a5e6a01eba3c99d55b03c6dd19f949e6b0b83a2910c8e85769a327c828bd",
          "blockNumber": "0x73501a",
          "transactionHash": "0xb225e2a80d611b5a83c17a8c28f02ffc3b1ba2f34edab01d402d17955c1d8704",
          "transactionIndex": "0x36",
          "logIndex": "0x1111",
          "removed": false
        },
        {
          "address": "0xa5eb8a42085d0ba183d821fcca7ff67788426f77",
          "topics": [
            "0x4afcb4a87cdbd9974efdb92ee48bc8d7cd0ae4bf217004db3d080cbaee652ca7"
          ],
          "data": "0x000000000000000000000000000000000000000000000000000000006792cfd8000000000000000000000000000000000000000000000000008d44550edc27b30000000000000000000000000000000000000000000000000309b063e5553f80",
          "blockHash": "0xed41a5e6a01eba3c99d55b03c6dd19f949e6b0b83a2910c8e85769a327c828bd",
          "blockNumber": "0x73501a",
          "transactionHash": "0xb225e2a80d611b5a83c17a8c28f02ffc3b1ba2f34edab01d402d17955c1d8704",
          "transactionIndex": "0x36",
          "logIndex": "0x1112",
          "removed": false
        }
      ],
      "logsBloom": "0x00000000000000000000000000000100000000000000000000000000000000000008000001000000000000000000000000002000000000004000001000000000000000000000000000000008000000000000000000000000000000000000000000000000020000000000000000000800020000000000000000000010000000000000000000000000000000000000000000000000000000000000010000000000000000000000000000000000000000004000000000000000000000000000000000000002000000800000000000000000000000000000080000000000000020000000000000000000000008000000000000000000000000000000000000000000",
      "type": "0x2",
      "transactionHash": "0xb225e2a80d611b5a83c17a8c28f02ffc3b1ba2f34edab01d402d17955c1d8704",
      "transactionIndex": "0x36",
      "blockHash": "0xed41a5e6a01eba3c99d55b03c6dd19f949e6b0b83a2910c8e85769a327c828bd",
      "blockNumber": "0x73501a",
      "gasUsed": "0x10232",
      "effectiveGasPrice": "0x443ca029",
      "from": "0xc77f7fed3b5cc8249adc428c5f44c9063b9734b4",
      "to": "0xa5eb8a42085d0ba183d821fcca7ff67788426f77",
      "contractAddress": null
    }
  ],
  "libraries": [],
  "pending": [],
  "returns": {},
  "timestamp": 1737674714,
  "chain": 11155111,
  "commit": "f5162e9"
}