{
  "transactions": [
    {
      "hash": "0x303b2095636c48144e77a44577b3379e03acf44db8c43095ec8fc3ef6fd60f1b",
      "transactionType": "CALL",
      "contractName": null,
      "contractAddress": "0xbf4a322f1496e5c3d34a9bcdb4c60567b38c7de2",
      "function": "buy(address)",
      "arguments": [
        "0xC77f7fed3b5Cc8249aDc428c5F44C9063B9734b4"
      ],
      "transaction": {
        "from": "0xc77f7fed3b5cc8249adc428c5f44c9063b9734b4",
        "to": "0xbf4a322f1496e5c3d34a9bcdb4c60567b38c7de2",
        "gas": "0x1b309",
        "value": "0xde0b6b3a7640000",
        "input": "0xf088d547000000000000000000000000c77f7fed3b5cc8249adc428c5f44c9063b9734b4",
        "nonce": "0xc9a",
        "chainId": "0xaa36a7"
      },
      "additionalContracts": [],
      "isFixedGasLimit": false
    }
  ],
  "receipts": [
    {
      "status": "0x1",
      "cumulativeGasUsed": "0x1482a72",
      "logs": [
        {
          "address": "0xbf4a322f1496e5c3d34a9bcdb4c60567b38c7de2",
          "topics": [
            "0xddf252ad1be2c89b69c2b068fc378daa952ba7f163c4a11628f55a4df523b3ef",
            "0x0000000000000000000000000000000000000000000000000000000000000000",
            "0x000000000000000000000000c77f7fed3b5cc8249adc428c5f44c9063b9734b4"
          ],
          "data": "0x000000000000000000000000000000000000000000000034decd06597618257b",
          "blockHash": "0xd626055bbd8849e4910b0279f58b9e11ab0871432238da58714dca51eb490e6c",
          "blockNumber": "0x725ce3",
          "transactionHash": "0x303b2095636c48144e77a44577b3379e03acf44db8c43095ec8fc3ef6fd60f1b",
          "transactionIndex": "0x7b",
          "logIndex": "0xb8",
          "removed": false
        },
        {
          "address": "0xbf4a322f1496e5c3d34a9bcdb4c60567b38c7de2",
          "topics": [
            "0xddf252ad1be2c89b69c2b068fc378daa952ba7f163c4a11628f55a4df523b3ef",
            "0x0000000000000000000000000000000000000000000000000000000000000000",
            "0x000000000000000000000000c77f7fed3b5cc8249adc428c5f44c9063b9734b4"
          ],
          "data": "0x000000000000000000000000000000000000000000000000290e3c0b9bd7f918",
          "blockHash": "0xd626055bbd8849e4910b0279f58b9e11ab0871432238da58714dca51eb490e6c",
          "blockNumber": "0x725ce3",
          "transactionHash": "0x303b2095636c48144e77a44577b3379e03acf44db8c43095ec8fc3ef6fd60f1b",
          "transactionIndex": "0x7b",
          "logIndex": "0xb9",
          "removed": false
        },
        {
          "address": "0xbf4a322f1496e5c3d34a9bcdb4c60567b38c7de2",
          "topics": [
            "0x4afcb4a87cdbd9974efdb92ee48bc8d7cd0ae4bf217004db3d080cbaee652ca7"
          ],
          "data": "0x0000000000000000000000000000000000000000000000000000000067874d1800000000000000000000000000000000000000000000000000039b39d9faa4b20000000000000000000000000000000000000000000000000de0b6b3a7640000",
          "blockHash": "0xd626055bbd8849e4910b0279f58b9e11ab0871432238da58714dca51eb490e6c",
          "blockNumber": "0x725ce3",
          "transactionHash": "0x303b2095636c48144e77a44577b3379e03acf44db8c43095ec8fc3ef6fd60f1b",
          "transactionIndex": "0x7b",
          "logIndex": "0xba",
          "removed": false
        }
      ],
      "logsBloom": "0x00000000000000000000000000000000000000000000000000000000000000000000000000000000000000000000000000000000000000004000000000000000000000000000000000000008000000000000001000000000000000000000000000000000020000000000000000000800020000000000000000000010000000000000000000000000000000000000000000000000000008000000010000000000000000000000000000000000000000004000000000000000000000000000000000000002000000800000000000001000000000000000080000000000000020000000000000000000000000000000000000000000000000000000000000000000",
      "type": "0x2",
      "transactionHash": "0x303b2095636c48144e77a44577b3379e03acf44db8c43095ec8fc3ef6fd60f1b",
      "transactionIndex": "0x7b",
      "blockHash": "0xd626055bbd8849e4910b0279f58b9e11ab0871432238da58714dca51eb490e6c",
      "blockNumber": "0x725ce3",
      "gasUsed": "0x13af6",
      "effectiveGasPrice": "0x257ddcd2e",
      "from": "0xc77f7fed3b5cc8249adc428c5f44c9063b9734b4",
      "to": "0xbf4a322f1496e5c3d34a9bcdb4c60567b38c7de2",
      "contractAddress": null
    }
  ],
  "libraries": [],
  "pending": [],
  "returns": {},
  "timestamp": 1736920345,
  "chain": 11155111,
  "commit": "51a374b"
}