{
  "transactions": [
    {
      "hash": "0x7df07a92d0cde2968ef532874a70661660cdfe29a6726894eeb9dac957caca25",
      "transactionType": "CALL",
      "contractName": null,
      "contractAddress": "0x8aafd3ede9adb0ff97c7aebce82a919afb1c8764",
      "function": "sell(uint256)",
      "arguments": [
        "1568704"
      ],
      "transaction": {
        "from": "0xc77f7fed3b5cc8249adc428c5f44c9063b9734b4",
        "to": "0x8aafd3ede9adb0ff97c7aebce82a919afb1c8764",
        "gas": "0x16208",
        "value": "0x0",
        "input": "0xe4849b32000000000000000000000000000000000000000000000000000000000017efc0",
        "nonce": "0xead",
        "chainId": "0xaa36a7"
      },
      "additionalContracts": [],
      "isFixedGasLimit": false
    }
  ],
  "receipts": [
    {
      "status": "0x1",
      "cumulativeGasUsed": "0x115ecb8",
      "logs": [
        {
          "address": "0x8aafd3ede9adb0ff97c7aebce82a919afb1c8764",
          "topics": [
            "0xddf252ad1be2c89b69c2b068fc378daa952ba7f163c4a11628f55a4df523b3ef",
            "0x000000000000000000000000c77f7fed3b5cc8249adc428c5f44c9063b9734b4",
            "0x0000000000000000000000000000000000000000000000000000000000000000"
          ],
          "data": "0x000000000000000000000000000000000000000000000000000000000017bebb",
          "blockHash": "0x91c3c0306302923c40d87f0675b66db89f21fbd1ae7160baffe5436bb6b6c7a2",
          "blockNumber": "0x731410",
          "transactionHash": "0x7df07a92d0cde2968ef532874a70661660cdfe29a6726894eeb9dac957caca25",
          "transactionIndex": "0xc4",
          "logIndex": "0x122",
          "removed": false
        },
        {
          "address": "0x8aafd3ede9adb0ff97c7aebce82a919afb1c8764",
          "topics": [
            "0xddf252ad1be2c89b69c2b068fc378daa952ba7f163c4a11628f55a4df523b3ef",
            "0x000000000000000000000000c77f7fed3b5cc8249adc428c5f44c9063b9734b4",
            "0x000000000000000000000000c77f7fed3b5cc8249adc428c5f44c9063b9734b4"
          ],
          "data": "0x0000000000000000000000000000000000000000000000000000000000003105",
          "blockHash": "0x91c3c0306302923c40d87f0675b66db89f21fbd1ae7160baffe5436bb6b6c7a2",
          "blockNumber": "0x731410",
          "transactionHash": "0x7df07a92d0cde2968ef532874a70661660cdfe29a6726894eeb9dac957caca25",
          "transactionIndex": "0xc4",
          "logIndex": "0x123",
          "removed": false
        },
        {
          "address": "0x8aafd3ede9adb0ff97c7aebce82a919afb1c8764",
          "topics": [
            "0x4afcb4a87cdbd9974efdb92ee48bc8d7cd0ae4bf217004db3d080cbaee652ca7"
          ],
          "data": "0x00000000000000000000000000000000000000000000000000000000678fed6c0000000000000000000000000000000000000000000000000004b7c88a1826390000000000000000000000000000000000000000000000000000000000000823",
          "blockHash": "0x91c3c0306302923c40d87f0675b66db89f21fbd1ae7160baffe5436bb6b6c7a2",
          "blockNumber": "0x731410",
          "transactionHash": "0x7df07a92d0cde2968ef532874a70661660cdfe29a6726894eeb9dac957caca25",
          "transactionIndex": "0xc4",
          "logIndex": "0x124",
          "removed": false
        }
      ],
      "logsBloom": "0x00000000000000000000000000000000000000000600000000000000000000000000000000000000000000000000000000000000000000004000000000000000000000000000004000000008000000000000000000000000000000000000000000000000020000000000000000000800020000000000000000000010000000000000000000000000000000000000000000000000000000000000010000000000000000000000000000000000000000004000000000000000000000000000000000000002000000800000000000000000000000000000080000000000000020000000000000000000000000000000000000000000000000000000000000000000",
      "type": "0x2",
      "transactionHash": "0x7df07a92d0cde2968ef532874a70661660cdfe29a6726894eeb9dac957caca25",
      "transactionIndex": "0xc4",
      "blockHash": "0x91c3c0306302923c40d87f0675b66db89f21fbd1ae7160baffe5436bb6b6c7a2",
      "blockNumber": "0x731410",
      "gasUsed": "0xf213",
      "effectiveGasPrice": "0x7f1414f8",
      "from": "0xc77f7fed3b5cc8249adc428c5f44c9063b9734b4",
      "to": "0x8aafd3ede9adb0ff97c7aebce82a919afb1c8764",
      "contractAddress": null
    }
  ],
  "libraries": [],
  "pending": [],
  "returns": {},
  "timestamp": 1737485677,
  "chain": 11155111,
  "commit": "51a374b"
}