{
  "transactions": [
    {
      "hash": "0x108e15c690a491e398cdb9900e3b6845eb279a56036399a6c37e957127223969",
      "transactionType": "CALL",
      "contractName": null,
      "contractAddress": "0x8aafd3ede9adb0ff97c7aebce82a919afb1c8764",
      "function": "buy(address)",
      "arguments": [
        "0xC77f7fed3b5Cc8249aDc428c5F44C9063B9734b4"
      ],
      "transaction": {
        "from": "0xc77f7fed3b5cc8249adc428c5f44c9063b9734b4",
        "to": "0x8aafd3ede9adb0ff97c7aebce82a919afb1c8764",
        "gas": "0x156ea",
        "value": "0xde0b6b3a7640000",
        "input": "0xf088d547000000000000000000000000c77f7fed3b5cc8249adc428c5f44c9063b9734b4",
        "nonce": "0x1453",
        "chainId": "0xaa36a7"
      },
      "additionalContracts": [],
      "isFixedGasLimit": false
    }
  ],
  "receipts": [
    {
      "status": "0x1",
      "cumulativeGasUsed": "0x17588f5",
      "logs": [
        {
          "address": "0x8aafd3ede9adb0ff97c7aebce82a919afb1c8764",
          "topics": [
            "0xddf252ad1be2c89b69c2b068fc378daa952ba7f163c4a11628f55a4df523b3ef",
            "0x0000000000000000000000000000000000000000000000000000000000000000",
            "0x000000000000000000000000c77f7fed3b5cc8249adc428c5f44c9063b9734b4"
          ],
          "data": "0x00000000000000000000000000000000000000000000000cae595eaede81b744",
          "blockHash": "0xbb80f2e248d5fb0466e72d3124944b7930fae8b95012f90fe6366464d6a3feba",
          "blockNumber": "0x731b99",
          "transactionHash": "0x108e15c690a491e398cdb9900e3b6845eb279a56036399a6c37e957127223969",
          "transactionIndex": "0xcc",
          "logIndex": "0x151",
          "removed": false
        },
        {
          "address": "0x8aafd3ede9adb0ff97c7aebce82a919afb1c8764",
          "topics": [
            "0xddf252ad1be2c89b69c2b068fc378daa952ba7f163c4a11628f55a4df523b3ef",
            "0x0000000000000000000000000000000000000000000000000000000000000000",
            "0x000000000000000000000000c77f7fed3b5cc8249adc428c5f44c9063b9734b4"
          ],
          "data": "0x00000000000000000000000000000000000000000000000009d8e69b72f12273",
          "blockHash": "0xbb80f2e248d5fb0466e72d3124944b7930fae8b95012f90fe6366464d6a3feba",
          "blockNumber": "0x731b99",
          "transactionHash": "0x108e15c690a491e398cdb9900e3b6845eb279a56036399a6c37e957127223969",
          "transactionIndex": "0xcc",
          "logIndex": "0x152",
          "removed": false
        },
        {
          "address": "0x8aafd3ede9adb0ff97c7aebce82a919afb1c8764",
          "topics": [
            "0x4afcb4a87cdbd9974efdb92ee48bc8d7cd0ae4bf217004db3d080cbaee652ca7"
          ],
          "data": "0x0000000000000000000000000000000000000000000000000000000067904808000000000000000000000000000000000000000000000000000f0f6f5ee1cadf0000000000000000000000000000000000000000000000000de0b6b3a7640000",
          "blockHash": "0xbb80f2e248d5fb0466e72d3124944b7930fae8b95012f90fe6366464d6a3feba",
          "blockNumber": "0x731b99",
          "transactionHash": "0x108e15c690a491e398cdb9900e3b6845eb279a56036399a6c37e957127223969",
          "transactionIndex": "0xcc",
          "logIndex": "0x153",
          "removed": false
        }
      ],
      "logsBloom": "0x00000000000000000000000000000000000000000600000000000000000000000000000000000000000000000000000000000000000000004000000000000000000000000000004000000008000000000000000000000000000000000000000000000000020000000000000000000800020000000000000000000010000000000000000000000000000000000000000000000000000000000000010000000000000000000000000000000000000000004000000000000000000000000000000000000002000000800000000000000000000000000000080000000000000020000000000000000000000000000000000000000000000000000000000000000000",
      "type": "0x2",
      "transactionHash": "0x108e15c690a491e398cdb9900e3b6845eb279a56036399a6c37e957127223969",
      "transactionIndex": "0xcc",
      "blockHash": "0xbb80f2e248d5fb0466e72d3124944b7930fae8b95012f90fe6366464d6a3feba",
      "blockNumber": "0x731b99",
      "gasUsed": "0xf844",
      "effectiveGasPrice": "0x109f1a33a",
      "from": "0xc77f7fed3b5cc8249adc428c5f44c9063b9734b4",
      "to": "0x8aafd3ede9adb0ff97c7aebce82a919afb1c8764",
      "contractAddress": null
    }
  ],
  "libraries": [],
  "pending": [],
  "returns": {},
  "timestamp": 1737508873,
  "chain": 11155111,
  "commit": "1d2fb70"
}