{
  "transactions": [
    {
      "hash": "0xab4c54ff65bbdfb44e4034f9d917e63fe4a47044840720b40ac845a862aea9f2",
      "transactionType": "CALL",
      "contractName": null,
      "contractAddress": "0x8aafd3ede9adb0ff97c7aebce82a919afb1c8764",
      "function": "sell(uint256)",
      "arguments": [
        "11544"
      ],
      "transaction": {
        "from": "0xc77f7fed3b5cc8249adc428c5f44c9063b9734b4",
        "to": "0x8aafd3ede9adb0ff97c7aebce82a919afb1c8764",
        "gas": "0x14e4c",
        "value": "0x0",
        "input": "0xe4849b320000000000000000000000000000000000000000000000000000000000002d18",
        "nonce": "0x119d",
        "chainId": "0xaa36a7"
      },
      "additionalContracts": [],
      "isFixedGasLimit": false
    }
  ],
  "receipts": [
    {
      "status": "0x1",
      "cumulativeGasUsed": "0xc4d5d6",
      "logs": [
        {
          "address": "0x8aafd3ede9adb0ff97c7aebce82a919afb1c8764",
          "topics": [
            "0xddf252ad1be2c89b69c2b068fc378daa952ba7f163c4a11628f55a4df523b3ef",
            "0x000000000000000000000000c77f7fed3b5cc8249adc428c5f44c9063b9734b4",
            "0x0000000000000000000000000000000000000000000000000000000000000000"
          ],
          "data": "0x0000000000000000000000000000000000000000000000000000000000002cbc",
          "blockHash": "0x7de625910b8283428a6b8de19ef1be133ec28cac84b46db5c8708a70db98f52e",
          "blockNumber": "0x731866",
          "transactionHash": "0xab4c54ff65bbdfb44e4034f9d917e63fe4a47044840720b40ac845a862aea9f2",
          "transactionIndex": "0x8c",
          "logIndex": "0x96",
          "removed": false
        },
        {
          "address": "0x8aafd3ede9adb0ff97c7aebce82a919afb1c8764",
          "topics": [
            "0xddf252ad1be2c89b69c2b068fc378daa952ba7f163c4a11628f55a4df523b3ef",
            "0x000000000000000000000000c77f7fed3b5cc8249adc428c5f44c9063b9734b4",
            "0x000000000000000000000000c77f7fed3b5cc8249adc428c5f44c9063b9734b4"
          ],
          "data": "0x000000000000000000000000000000000000000000000000000000000000005c",
          "blockHash": "0x7de625910b8283428a6b8de19ef1be133ec28cac84b46db5c8708a70db98f52e",
          "blockNumber": "0x731866",
          "transactionHash": "0xab4c54ff65bbdfb44e4034f9d917e63fe4a47044840720b40ac845a862aea9f2",
          "transactionIndex": "0x8c",
          "logIndex": "0x97",
          "removed": false
        },
        {
          "address": "0x8aafd3ede9adb0ff97c7aebce82a919afb1c8764",
          "topics": [
            "0x4afcb4a87cdbd9974efdb92ee48bc8d7cd0ae4bf217004db3d080cbaee652ca7"
          ],
          "data": "0x0000000000000000000000000000000000000000000000000000000067902198000000000000000000000000000000000000000000000000000521f30ef397de0000000000000000000000000000000000000000000000000000000000000010",
          "blockHash": "0x7de625910b8283428a6b8de19ef1be133ec28cac84b46db5c8708a70db98f52e",
          "blockNumber": "0x731866",
          "transactionHash": "0xab4c54ff65bbdfb44e4034f9d917e63fe4a47044840720b40ac845a862aea9f2",
          "transactionIndex": "0x8c",
          "logIndex": "0x98",
          "removed": false
        }
      ],
      "logsBloom": "0x00000000000000000000000000000000000000000600000000000000000000000000000000000000000000000000000000000000000000004000000000000000000000000000004000000008000000000000000000000000000000000000000000000000020000000000000000000800020000000000000000000010000000000000000000000000000000000000000000000000000000000000010000000000000000000000000000000000000000004000000000000000000000000000000000000002000000800000000000000000000000000000080000000000000020000000000000000000000000000000000000000000000000000000000000000000",
      "type": "0x2",
      "transactionHash": "0xab4c54ff65bbdfb44e4034f9d917e63fe4a47044840720b40ac845a862aea9f2",
      "transactionIndex": "0x8c",
      "blockHash": "0x7de625910b8283428a6b8de19ef1be133ec28cac84b46db5c8708a70db98f52e",
      "blockNumber": "0x731866",
      "gasUsed": "0xf207",
      "effectiveGasPrice": "0x3eb8ef80",
      "from": "0xc77f7fed3b5cc8249adc428c5f44c9063b9734b4",
      "to": "0x8aafd3ede9adb0ff97c7aebce82a919afb1c8764",
      "contractAddress": null
    }
  ],
  "libraries": [],
  "pending": [],
  "returns": {},
  "timestamp": 1737499032,
  "chain": 11155111,
  "commit": "1d2fb70"
}