{
  "transactions": [
    {
      "hash": "0x8b392796dc419ecf4c6f7e31e350eb00bbb0bea9eada4c7262cbbebbd07e718b",
      "transactionType": "CALL",
      "contractName": null,
      "contractAddress": "0x270e88f8683660553e8ba4eb2ad7c91a1710d769",
      "function": "sell(uint256)",
      "arguments": [
        "709449751926406426536"
      ],
      "transaction": {
        "from": "0xc77f7fed3b5cc8249adc428c5f44c9063b9734b4",
        "to": "0x270e88f8683660553e8ba4eb2ad7c91a1710d769",
        "gas": "0x16fec",
        "value": "0x0",
        "input": "0xe4849b320000000000000000000000000000000000000000000000267597d68d1a74afa8",
        "nonce": "0x8a2",
        "chainId": "0xaa36a7"
      },
      "additionalContracts": [],
      "isFixedGasLimit": false
    }
  ],
  "receipts": [
    {
      "status": "0x1",
      "cumulativeGasUsed": "0xdae733",
      "logs": [
        {
          "address": "0x270e88f8683660553e8ba4eb2ad7c91a1710d769",
          "topics": [
            "0xddf252ad1be2c89b69c2b068fc378daa952ba7f163c4a11628f55a4df523b3ef",
            "0x000000000000000000000000c77f7fed3b5cc8249adc428c5f44c9063b9734b4",
            "0x0000000000000000000000000000000000000000000000000000000000000000"
          ],
          "data": "0x0000000000000000000000000000000000000000000000267597d68d1a74afa8",
          "blockHash": "0x570aaf1e76ec880f5658b25dd46c967e58e501a98ff3ef9fe8597e331db6e2f4",
          "blockNumber": "0x725600",
          "transactionHash": "0x8b392796dc419ecf4c6f7e31e350eb00bbb0bea9eada4c7262cbbebbd07e718b",
          "transactionIndex": "0x64",
          "logIndex": "0x6f",
          "removed": false
        },
        {
          "address": "0x270e88f8683660553e8ba4eb2ad7c91a1710d769",
          "topics": [
            "0x4afcb4a87cdbd9974efdb92ee48bc8d7cd0ae4bf217004db3d080cbaee652ca7"
          ],
          "data": "0x000000000000000000000000000000000000000000000000000000006786fa080000000000000000000000000000000000000000000000000004f94b861147d10000000000000000000000000000000000000000000000000dc82556284ccd65",
          "blockHash": "0x570aaf1e76ec880f5658b25dd46c967e58e501a98ff3ef9fe8597e331db6e2f4",
          "blockNumber": "0x725600",
          "transactionHash": "0x8b392796dc419ecf4c6f7e31e350eb00bbb0bea9eada4c7262cbbebbd07e718b",
          "transactionIndex": "0x64",
          "logIndex": "0x70",
          "removed": false
        }
      ],
      "logsBloom": "0x00000000000000000000000000000000000000000000000000000000000000000000000000000000000000000000000020000000000000004000000000000000000000000000000000000008000000000000000000000000000000000000000000000000020000000000000000000800020000000000000000000010000000000000000000010000000000000000000000000000000000000000010000000000000000000000000000000000000000004000000000000000000000000000000000000002000000800000000000000000000000000000080000008000000020000000000000000000000000000000000000000000000000000000000000000000",
      "type": "0x2",
      "transactionHash": "0x8b392796dc419ecf4c6f7e31e350eb00bbb0bea9eada4c7262cbbebbd07e718b",
      "transactionIndex": "0x64",
      "blockHash": "0x570aaf1e76ec880f5658b25dd46c967e58e501a98ff3ef9fe8597e331db6e2f4",
      "blockNumber": "0x725600",
      "gasUsed": "0xfb93",
      "effectiveGasPrice": "0x87bdc002",
      "from": "0xc77f7fed3b5cc8249adc428c5f44c9063b9734b4",
      "to": "0x270e88f8683660553e8ba4eb2ad7c91a1710d769",
      "contractAddress": null
    }
  ],
  "libraries": [],
  "pending": [],
  "returns": {},
  "timestamp": 1736899082,
  "chain": 11155111,
  "commit": "51a374b"
}