{
  "transactions": [
    {
      "hash": "0x13113beae6fd7a3e5e39945c486f113e40f526b144f2f0f20cc17a0ab2698038",
      "transactionType": "CALL",
      "contractName": null,
      "contractAddress": "0x8aafd3ede9adb0ff97c7aebce82a919afb1c8764",
      "function": "sell(uint256)",
      "arguments": [
        "66507424"
      ],
      "transaction": {
        "from": "0xc77f7fed3b5cc8249adc428c5f44c9063b9734b4",
        "to": "0x8aafd3ede9adb0ff97c7aebce82a919afb1c8764",
        "gas": "0x15d88",
        "value": "0x0",
        "input": "0xe4849b320000000000000000000000000000000000000000000000000000000003f6d2a0",
        "nonce": "0x13f7",
        "chainId": "0xaa36a7"
      },
      "additionalContracts": [],
      "isFixedGasLimit": false
    }
  ],
  "receipts": [
    {
      "status": "0x1",
      "cumulativeGasUsed": "0xb942c",
      "logs": [
        {
          "address": "0x8aafd3ede9adb0ff97c7aebce82a919afb1c8764",
          "topics": [
            "0xddf252ad1be2c89b69c2b068fc378daa952ba7f163c4a11628f55a4df523b3ef",
            "0x000000000000000000000000c77f7fed3b5cc8249adc428c5f44c9063b9734b4",
            "0x0000000000000000000000000000000000000000000000000000000000000000"
          ],
          "data": "0x0000000000000000000000000000000000000000000000000000000003eeb445",
          "blockHash": "0xfc59c1506fde926cc529e62f203aaca0c57f3bf1edc1576a178bb0bfcc440b71",
          "blockNumber": "0x731b2b",
          "transactionHash": "0x13113beae6fd7a3e5e39945c486f113e40f526b144f2f0f20cc17a0ab2698038",
          "transactionIndex": "0x8",
          "logIndex": "0xb",
          "removed": false
        },
        {
          "address": "0x8aafd3ede9adb0ff97c7aebce82a919afb1c8764",
          "topics": [
            "0xddf252ad1be2c89b69c2b068fc378daa952ba7f163c4a11628f55a4df523b3ef",
            "0x000000000000000000000000c77f7fed3b5cc8249adc428c5f44c9063b9734b4",
            "0x000000000000000000000000c77f7fed3b5cc8249adc428c5f44c9063b9734b4"
          ],
          "data": "0x0000000000000000000000000000000000000000000000000000000000081e5b",
          "blockHash": "0xfc59c1506fde926cc529e62f203aaca0c57f3bf1edc1576a178bb0bfcc440b71",
          "blockNumber": "0x731b2b",
          "transactionHash": "0x13113beae6fd7a3e5e39945c486f113e40f526b144f2f0f20cc17a0ab2698038",
          "transactionIndex": "0x8",
          "logIndex": "0xc",
          "removed": false
        },
        {
          "address": "0x8aafd3ede9adb0ff97c7aebce82a919afb1c8764",
          "topics": [
            "0x4afcb4a87cdbd9974efdb92ee48bc8d7cd0ae4bf217004db3d080cbaee652ca7"
          ],
          "data": "0x00000000000000000000000000000000000000000000000000000000679042d4000000000000000000000000000000000000000000000000000e0201f997df160000000000000000000000000000000000000000000000000000000000040055",
          "blockHash": "0xfc59c1506fde926cc529e62f203aaca0c57f3bf1edc1576a178bb0bfcc440b71",
          "blockNumber": "0x731b2b",
          "transactionHash": "0x13113beae6fd7a3e5e39945c486f113e40f526b144f2f0f20cc17a0ab2698038",
          "transactionIndex": "0x8",
          "logIndex": "0xd",
          "removed": false
        }
      ],
      "logsBloom": "0x00000000000000000000000000000000000000000600000000000000000000000000000000000000000000000000000000000000000000004000000000000000000000000000004000000008000000000000000000000000000000000000000000000000020000000000000000000800020000000000000000000010000000000000000000000000000000000000000000000000000000000000010000000000000000000000000000000000000000004000000000000000000000000000000000000002000000800000000000000000000000000000080000000000000020000000000000000000000000000000000000000000000000000000000000000000",
      "type": "0x2",
      "transactionHash": "0x13113beae6fd7a3e5e39945c486f113e40f526b144f2f0f20cc17a0ab2698038",
      "transactionIndex": "0x8",
      "blockHash": "0xfc59c1506fde926cc529e62f203aaca0c57f3bf1edc1576a178bb0bfcc440b71",
      "blockNumber": "0x731b2b",
      "gasUsed": "0xfd0f",
      "effectiveGasPrice": "0xa518c4ba",
      "from": "0xc77f7fed3b5cc8249adc428c5f44c9063b9734b4",
      "to": "0x8aafd3ede9adb0ff97c7aebce82a919afb1c8764",
      "contractAddress": null
    }
  ],
  "libraries": [],
  "pending": [],
  "returns": {},
  "timestamp": 1737507540,
  "chain": 11155111,
  "commit": "1d2fb70"
}