{
  "transactions": [
    {
      "hash": "0x33941f609964fa86df77d30938a8cfe747d2bc0a22402810c64e5a80e84ea243",
      "transactionType": "CALL",
      "contractName": null,
      "contractAddress": "0x5eb9cc76c3506942c1c0ead70e877dd5e4f00cb0",
      "function": "sell(uint256)",
      "arguments": [
        "989618806959645271877"
      ],
      "transaction": {
        "from": "0xc77f7fed3b5cc8249adc428c5f44c9063b9734b4",
        "to": "0x5eb9cc76c3506942c1c0ead70e877dd5e4f00cb0",
        "gas": "0x16fec",
        "value": "0x0",
        "input": "0xe4849b32000000000000000000000000000000000000000000000035a5b845b463862745",
        "nonce": "0x237",
        "chainId": "0xaa36a7"
      },
      "additionalContracts": [],
      "isFixedGasLimit": false
    }
  ],
  "receipts": [
    {
      "status": "0x1",
      "cumulativeGasUsed": "0x780e28",
      "logs": [
        {
          "address": "0x5eb9cc76c3506942c1c0ead70e877dd5e4f00cb0",
          "topics": [
            "0xddf252ad1be2c89b69c2b068fc378daa952ba7f163c4a11628f55a4df523b3ef",
            "0x000000000000000000000000c77f7fed3b5cc8249adc428c5f44c9063b9734b4",
            "0x0000000000000000000000000000000000000000000000000000000000000000"
          ],
          "data": "0x000000000000000000000000000000000000000000000035a5b845b463862745",
          "blockHash": "0x52ff8b39d31c91fc87e497fe27cb2b6c23cf8c6f4c13d3c4ad47d77f280f624f",
          "blockNumber": "0x724deb",
          "transactionHash": "0x33941f609964fa86df77d30938a8cfe747d2bc0a22402810c64e5a80e84ea243",
          "transactionIndex": "0x3d",
          "logIndex": "0x8c",
          "removed": false
        },
        {
          "address": "0x5eb9cc76c3506942c1c0ead70e877dd5e4f00cb0",
          "topics": [
            "0x4afcb4a87cdbd9974efdb92ee48bc8d7cd0ae4bf217004db3d080cbaee652ca7"
          ],
          "data": "0x00000000000000000000000000000000000000000000000000000000678698b80000000000000000000000000000000000000000000000000003909aeca3cd410000000000000000000000000000000000000000000000000dc7db1183812612",
          "blockHash": "0x52ff8b39d31c91fc87e497fe27cb2b6c23cf8c6f4c13d3c4ad47d77f280f624f",
          "blockNumber": "0x724deb",
          "transactionHash": "0x33941f609964fa86df77d30938a8cfe747d2bc0a22402810c64e5a80e84ea243",
          "transactionIndex": "0x3d",
          "logIndex": "0x8d",
          "removed": false
        }
      ],
      "logsBloom": "0x00000000000000000000000000000000000000000000000000000000000000000000000000000000000000000000000000000000000000004000000000000000000000000000000000000008000000000000000000000000000000000000000000000000020000000000000004000800020000000000000000000010000000000000000000000000000000000000000000000000000000000000010000000000000000000000000000000000000000004000000000000000000000000000020000000002000000800000008000000000000000000000080000000000000020000000000000000000000000000000000000000000000000000000000000000000",
      "type": "0x2",
      "transactionHash": "0x33941f609964fa86df77d30938a8cfe747d2bc0a22402810c64e5a80e84ea243",
      "transactionIndex": "0x3d",
      "blockHash": "0x52ff8b39d31c91fc87e497fe27cb2b6c23cf8c6f4c13d3c4ad47d77f280f624f",
      "blockNumber": "0x724deb",
      "gasUsed": "0xfb93",
      "effectiveGasPrice": "0x40d6aebb6",
      "from": "0xc77f7fed3b5cc8249adc428c5f44c9063b9734b4",
      "to": "0x5eb9cc76c3506942c1c0ead70e877dd5e4f00cb0",
      "contractAddress": null
    }
  ],
  "libraries": [],
  "pending": [],
  "returns": {},
  "timestamp": 1736874170,
  "chain": 11155111,
  "commit": "51a374b"
}