{
  "transactions": [
    {
      "hash": "0x505ac61f1a6e4b57e1f0f048b7d1d8dd6a48e99f4d4fe414c1f95b5b177064bc",
      "transactionType": "CALL",
      "contractName": null,
      "contractAddress": "0x5eb9cc76c3506942c1c0ead70e877dd5e4f00cb0",
      "function": "sell(uint256)",
      "arguments": [
        "989076096654710229175"
      ],
      "transaction": {
        "from": "0xc77f7fed3b5cc8249adc428c5f44c9063b9734b4",
        "to": "0x5eb9cc76c3506942c1c0ead70e877dd5e4f00cb0",
        "gas": "0x16fec",
        "value": "0x0",
        "input": "0xe4849b320000000000000000000000000000000000000000000000359e302d8ec5ed48b7",
        "nonce": "0x497",
        "chainId": "0xaa36a7"
      },
      "additionalContracts": [],
      "isFixedGasLimit": false
    }
  ],
  "receipts": [
    {
      "status": "0x1",
      "cumulativeGasUsed": "0x1291097",
      "logs": [
        {
          "address": "0x5eb9cc76c3506942c1c0ead70e877dd5e4f00cb0",
          "topics": [
            "0xddf252ad1be2c89b69c2b068fc378daa952ba7f163c4a11628f55a4df523b3ef",
            "0x000000000000000000000000c77f7fed3b5cc8249adc428c5f44c9063b9734b4",
            "0x0000000000000000000000000000000000000000000000000000000000000000"
          ],
          "data": "0x0000000000000000000000000000000000000000000000359e302d8ec5ed48b7",
          "blockHash": "0xdd2a2485094a199bb4c962b022d7fc191d92c50b82775f7a7977a59fadadece2",
          "blockNumber": "0x7250cb",
          "transactionHash": "0x505ac61f1a6e4b57e1f0f048b7d1d8dd6a48e99f4d4fe414c1f95b5b177064bc",
          "transactionIndex": "0x54",
          "logIndex": "0x9f",
          "removed": false
        },
        {
          "address": "0x5eb9cc76c3506942c1c0ead70e877dd5e4f00cb0",
          "topics": [
            "0x4afcb4a87cdbd9974efdb92ee48bc8d7cd0ae4bf217004db3d080cbaee652ca7"
          ],
          "data": "0x000000000000000000000000000000000000000000000000000000006786bb500000000000000000000000000000000000000000000000000003911b1f0601b20000000000000000000000000000000000000000000000000dc7db1331bcea57",
          "blockHash": "0xdd2a2485094a199bb4c962b022d7fc191d92c50b82775f7a7977a59fadadece2",
          "blockNumber": "0x7250cb",
          "transactionHash": "0x505ac61f1a6e4b57e1f0f048b7d1d8dd6a48e99f4d4fe414c1f95b5b177064bc",
          "transactionIndex": "0x54",
          "logIndex": "0xa0",
          "removed": false
        }
      ],
      "logsBloom": "0x00000000000000000000000000000000000000000000000000000000000000000000000000000000000000000000000000000000000000004000000000000000000000000000000000000008000000000000000000000000000000000000000000000000020000000000000004000800020000000000000000000010000000000000000000000000000000000000000000000000000000000000010000000000000000000000000000000000000000004000000000000000000000000000020000000002000000800000008000000000000000000000080000000000000020000000000000000000000000000000000000000000000000000000000000000000",
      "type": "0x2",
      "transactionHash": "0x505ac61f1a6e4b57e1f0f048b7d1d8dd6a48e99f4d4fe414c1f95b5b177064bc",
      "transactionIndex": "0x54",
      "blockHash": "0xdd2a2485094a199bb4c962b022d7fc191d92c50b82775f7a7977a59fadadece2",
      "blockNumber": "0x7250cb",
      "gasUsed": "0xfb93",
      "effectiveGasPrice": "0x23df77303",
      "from": "0xc77f7fed3b5cc8249adc428c5f44c9063b9734b4",
      "to": "0x5eb9cc76c3506942c1c0ead70e877dd5e4f00cb0",
      "contractAddress": null
    }
  ],
  "libraries": [],
  "pending": [],
  "returns": {},
  "timestamp": 1736883025,
  "chain": 11155111,
  "commit": "51a374b"
}