{
  "transactions": [
    {
      "hash": "0x3db660e3814da6f3be815d42cb07a1cc6ed289c0c99aa764fb1f28a6741637df",
      "transactionType": "CALL",
      "contractName": null,
      "contractAddress": "0x5eb9cc76c3506942c1c0ead70e877dd5e4f00cb0",
      "function": "buy(address)",
      "arguments": [
        "0xC77f7fed3b5Cc8249aDc428c5F44C9063B9734b4"
      ],
      "transaction": {
        "from": "0xc77f7fed3b5cc8249adc428c5f44c9063b9734b4",
        "to": "0x5eb9cc76c3506942c1c0ead70e877dd5e4f00cb0",
        "gas": "0x1b30c",
        "value": "0xde0b6b3a7640000",
        "input": "0xf088d547000000000000000000000000c77f7fed3b5cc8249adc428c5f44c9063b9734b4",
        "nonce": "0x42a",
        "chainId": "0xaa36a7"
      },
      "additionalContracts": [],
      "isFixedGasLimit": false
    }
  ],
  "receipts": [
    {
      "status": "0x1",
      "cumulativeGasUsed": "0x153ac27",
      "logs": [
        {
          "address": "0x5eb9cc76c3506942c1c0ead70e877dd5e4f00cb0",
          "topics": [
            "0xddf252ad1be2c89b69c2b068fc378daa952ba7f163c4a11628f55a4df523b3ef",
            "0x0000000000000000000000000000000000000000000000000000000000000000",
            "0x000000000000000000000000c77f7fed3b5cc8249adc428c5f44c9063b9734b4"
          ],
          "data": "0x00000000000000000000000000000000000000000000003574ea83c4aff0a585",
          "blockHash": "0xf2bf988816402fdb107683f465b272cbcbab10d52495e1d4b899deb86e8e8155",
          "blockNumber": "0x72503f",
          "transactionHash": "0x3db660e3814da6f3be815d42cb07a1cc6ed289c0c99aa764fb1f28a6741637df",
          "transactionIndex": "0xd9",
          "logIndex": "0x13d",
          "removed": false
        },
        {
          "address": "0x5eb9cc76c3506942c1c0ead70e877dd5e4f00cb0",
          "topics": [
            "0xddf252ad1be2c89b69c2b068fc378daa952ba7f163c4a11628f55a4df523b3ef",
            "0x0000000000000000000000000000000000000000000000000000000000000000",
            "0x000000000000000000000000c77f7fed3b5cc8249adc428c5f44c9063b9734b4"
          ],
          "data": "0x0000000000000000000000000000000000000000000000002982cddae755cc9d",
          "blockHash": "0xf2bf988816402fdb107683f465b272cbcbab10d52495e1d4b899deb86e8e8155",
          "blockNumber": "0x72503f",
          "transactionHash": "0x3db660e3814da6f3be815d42cb07a1cc6ed289c0c99aa764fb1f28a6741637df",
          "transactionIndex": "0xd9",
          "logIndex": "0x13e",
          "removed": false
        },
        {
          "address": "0x5eb9cc76c3506942c1c0ead70e877dd5e4f00cb0",
          "topics": [
            "0x4afcb4a87cdbd9974efdb92ee48bc8d7cd0ae4bf217004db3d080cbaee652ca7"
          ],
          "data": "0x000000000000000000000000000000000000000000000000000000006786b4c000000000000000000000000000000000000000000000000000039117017d81450000000000000000000000000000000000000000000000000de0b6b3a7640000",
          "blockHash": "0xf2bf988816402fdb107683f465b272cbcbab10d52495e1d4b899deb86e8e8155",
          "blockNumber": "0x72503f",
          "transactionHash": "0x3db660e3814da6f3be815d42cb07a1cc6ed289c0c99aa764fb1f28a6741637df",
          "transactionIndex": "0xd9",
          "logIndex": "0x13f",
          "removed": false
        }
      ],
      "logsBloom": "0x00000000000000000000000000000000000000000000000000000000000000000000000000000000000000000000000000000000000000004000000000000000000000000000000000000008000000000000000000000000000000000000000000000000020000000000000004000800020000000000000000000010000000000000000000000000000000000000000000000000000000000000010000000000000000000000000000000000000000004000000000000000000000000000020000000002000000800000008000000000000000000000080000000000000020000000000000000000000000000000000000000000000000000000000000000000",
      "type": "0x2",
      "transactionHash": "0x3db660e3814da6f3be815d42cb07a1cc6ed289c0c99aa764fb1f28a6741637df",
      "transactionIndex": "0xd9",
      "blockHash": "0xf2bf988816402fdb107683f465b272cbcbab10d52495e1d4b899deb86e8e8155",
      "blockNumber": "0x72503f",
      "gasUsed": "0x13af8",
      "effectiveGasPrice": "0x2739614fa",
      "from": "0xc77f7fed3b5cc8249adc428c5f44c9063b9734b4",
      "to": "0x5eb9cc76c3506942c1c0ead70e877dd5e4f00cb0",
      "contractAddress": null
    }
  ],
  "libraries": [],
  "pending": [],
  "returns": {},
  "timestamp": 1736881345,
  "chain": 11155111,
  "commit": "51a374b"
}