{
  "transactions": [
    {
      "hash": "0x4e96ad09b78918f1da3cd3b5bb1e1086e8dbeccdd2642bd83fd5d5bbb016087b",
      "transactionType": "CALL",
      "contractName": null,
      "contractAddress": "0x8aafd3ede9adb0ff97c7aebce82a919afb1c8764",
      "function": "sell(uint256)",
      "arguments": [
        "1660255958538936633"
      ],
      "transaction": {
        "from": "0xc77f7fed3b5cc8249adc428c5f44c9063b9734b4",
        "to": "0x8aafd3ede9adb0ff97c7aebce82a919afb1c8764",
        "gas": "0x15dca",
        "value": "0x0",
        "input": "0xe4849b32000000000000000000000000000000000000000000000000170a69ff74f06139",
        "nonce": "0x1500",
        "chainId": "0xaa36a7"
      },
      "additionalContracts": [],
      "isFixedGasLimit": false
    }
  ],
  "receipts": [
    {
      "status": "0x1",
      "cumulativeGasUsed": "0xf9664f",
      "logs": [
        {
          "address": "0x8aafd3ede9adb0ff97c7aebce82a919afb1c8764",
          "topics": [
            "0xddf252ad1be2c89b69c2b068fc378daa952ba7f163c4a11628f55a4df523b3ef",
            "0x000000000000000000000000c77f7fed3b5cc8249adc428c5f44c9063b9734b4",
            "0x0000000000000000000000000000000000000000000000000000000000000000"
          ],
          "data": "0x00000000000000000000000000000000000000000000000016db3a0bbfc78b74",
          "blockHash": "0xe570bb3bd00a85a8978c4f0930e8fda2aa22a83ef885f114a434d76dd18853a5",
          "blockNumber": "0x731c62",
          "transactionHash": "0x4e96ad09b78918f1da3cd3b5bb1e1086e8dbeccdd2642bd83fd5d5bbb016087b",
          "transactionIndex": "0xa8",
          "logIndex": "0x102",
          "removed": false
        },
        {
          "address": "0x8aafd3ede9adb0ff97c7aebce82a919afb1c8764",
          "topics": [
            "0xddf252ad1be2c89b69c2b068fc378daa952ba7f163c4a11628f55a4df523b3ef",
            "0x000000000000000000000000c77f7fed3b5cc8249adc428c5f44c9063b9734b4",
            "0x000000000000000000000000c77f7fed3b5cc8249adc428c5f44c9063b9734b4"
          ],
          "data": "0x000000000000000000000000000000000000000000000000002f2ff3b528d5c5",
          "blockHash": "0xe570bb3bd00a85a8978c4f0930e8fda2aa22a83ef885f114a434d76dd18853a5",
          "blockNumber": "0x731c62",
          "transactionHash": "0x4e96ad09b78918f1da3cd3b5bb1e1086e8dbeccdd2642bd83fd5d5bbb016087b",
          "transactionIndex": "0xa8",
          "logIndex": "0x103",
          "removed": false
        },
        {
          "address": "0x8aafd3ede9adb0ff97c7aebce82a919afb1c8764",
          "topics": [
            "0x4afcb4a87cdbd9974efdb92ee48bc8d7cd0ae4bf217004db3d080cbaee652ca7"
          ],
          "data": "0x000000000000000000000000000000000000000000000000000000006790517400000000000000000000000000000000000000000000000000111a4ffbdccb60000000000000000000000000000000000000000000000000001c64da79d6c1fa",
          "blockHash": "0xe570bb3bd00a85a8978c4f0930e8fda2aa22a83ef885f114a434d76dd18853a5",
          "blockNumber": "0x731c62",
          "transactionHash": "0x4e96ad09b78918f1da3cd3b5bb1e1086e8dbeccdd2642bd83fd5d5bbb016087b",
          "transactionIndex": "0xa8",
          "logIndex": "0x104",
          "removed": false
        }
      ],
      "logsBloom": "0x00000000000000000000000000000000000000000600000000000000000000000000000000000000000000000000000000000000000000004000000000000000000000000000004000000008000000000000000000000000000000000000000000000000020000000000000000000800020000000000000000000010000000000000000000000000000000000000000000000000000000000000010000000000000000000000000000000000000000004000000000000000000000000000000000000002000000800000000000000000000000000000080000000000000020000000000000000000000000000000000000000000000000000000000000000000",
      "type": "0x2",
      "transactionHash": "0x4e96ad09b78918f1da3cd3b5bb1e1086e8dbeccdd2642bd83fd5d5bbb016087b",
      "transactionIndex": "0xa8",
      "blockHash": "0xe570bb3bd00a85a8978c4f0930e8fda2aa22a83ef885f114a434d76dd18853a5",
      "blockNumber": "0x731c62",
      "gasUsed": "0xfd3f",
      "effectiveGasPrice": "0x1817b5aa0",
      "from": "0xc77f7fed3b5cc8249adc428c5f44c9063b9734b4",
      "to": "0x8aafd3ede9adb0ff97c7aebce82a919afb1c8764",
      "contractAddress": null
    }
  ],
  "libraries": [],
  "pending": [],
  "returns": {},
  "timestamp": 1737511286,
  "chain": 11155111,
  "commit": "1d2fb70"
}