{
  "transactions": [
    {
      "hash": "0x2856386338857f2cb27c62fd9bbfa492106088b077dc0b04f58d3ab64911288d",
      "transactionType": "CALL",
      "contractName": null,
      "contractAddress": "0x8aafd3ede9adb0ff97c7aebce82a919afb1c8764",
      "function": "sell(uint256)",
      "arguments": [
        "5310775303758617801"
      ],
      "transaction": {
        "from": "0xc77f7fed3b5cc8249adc428c5f44c9063b9734b4",
        "to": "0x8aafd3ede9adb0ff97c7aebce82a919afb1c8764",
        "gas": "0x1724d",
        "value": "0x0",
        "input": "0xe4849b3200000000000000000000000000000000000000000000000049b3aa0046731cc9",
        "nonce": "0x12e0",
        "chainId": "0xaa36a7"
      },
      "additionalContracts": [],
      "isFixedGasLimit": false
    }
  ],
  "receipts": [
    {
      "status": "0x1",
      "cumulativeGasUsed": "0x7a50ec",
      "logs": [
        {
          "address": "0x8aafd3ede9adb0ff97c7aebce82a919afb1c8764",
          "topics": [
            "0xddf252ad1be2c89b69c2b068fc378daa952ba7f163c4a11628f55a4df523b3ef",
            "0x000000000000000000000000c77f7fed3b5cc8249adc428c5f44c9063b9734b4",
            "0x0000000000000000000000000000000000000000000000000000000000000000"
          ],
          "data": "0x000000000000000000000000000000000000000000000000491cb9066ac003fb",
          "blockHash": "0x00b12e375a7856e16c967454c55c0aa70cb7eabebae1c4cfe4424fb9ed6ef812",
          "blockNumber": "0x7319e1",
          "transactionHash": "0x2856386338857f2cb27c62fd9bbfa492106088b077dc0b04f58d3ab64911288d",
          "transactionIndex": "0x6e",
          "logIndex": "0x69",
          "removed": false
        },
        {
          "address": "0x8aafd3ede9adb0ff97c7aebce82a919afb1c8764",
          "topics": [
            "0xddf252ad1be2c89b69c2b068fc378daa952ba7f163c4a11628f55a4df523b3ef",
            "0x000000000000000000000000c77f7fed3b5cc8249adc428c5f44c9063b9734b4",
            "0x000000000000000000000000c77f7fed3b5cc8249adc428c5f44c9063b9734b4"
          ],
          "data": "0x0000000000000000000000000000000000000000000000000096f0f9dbb318ce",
          "blockHash": "0x00b12e375a7856e16c967454c55c0aa70cb7eabebae1c4cfe4424fb9ed6ef812",
          "blockNumber": "0x7319e1",
          "transactionHash": "0x2856386338857f2cb27c62fd9bbfa492106088b077dc0b04f58d3ab64911288d",
          "transactionIndex": "0x6e",
          "logIndex": "0x6a",
          "removed": false
        },
        {
          "address": "0x8aafd3ede9adb0ff97c7aebce82a919afb1c8764",
          "topics": [
            "0x4afcb4a87cdbd9974efdb92ee48bc8d7cd0ae4bf217004db3d080cbaee652ca7"
          ],
          "data": "0x000000000000000000000000000000000000000000000000000000006790335c000000000000000000000000000000000000000000000000000551e771512bbd000000000000000000000000000000000000000000000000001c40b8f6645108",
          "blockHash": "0x00b12e375a7856e16c967454c55c0aa70cb7eabebae1c4cfe4424fb9ed6ef812",
          "blockNumber": "0x7319e1",
          "transactionHash": "0x2856386338857f2cb27c62fd9bbfa492106088b077dc0b04f58d3ab64911288d",
          "transactionIndex": "0x6e",
          "logIndex": "0x6b",
          "removed": false
        }
      ],
      "logsBloom": "0x00000000000000000000000000000000000000000600000000000000000000000000000000000000000000000000000000000000000000004000000000000000000000000000004000000008000000000000000000000000000000000000000000000000020000000000000000000800020000000000000000000010000000000000000000000000000000000000000000000000000000000000010000000000000000000000000000000000000000004000000000000000000000000000000000000002000000800000000000000000000000000000080000000000000020000000000000000000000000000000000000000000000000000000000000000000",
      "type": "0x2",
      "transactionHash": "0x2856386338857f2cb27c62fd9bbfa492106088b077dc0b04f58d3ab64911288d",
      "transactionIndex": "0x6e",
      "blockHash": "0x00b12e375a7856e16c967454c55c0aa70cb7eabebae1c4cfe4424fb9ed6ef812",
      "blockNumber": "0x7319e1",
      "gasUsed": "0xfd33",
      "effectiveGasPrice": "0x49f61a68",
      "from": "0xc77f7fed3b5cc8249adc428c5f44c9063b9734b4",
      "to": "0x8aafd3ede9adb0ff97c7aebce82a919afb1c8764",
      "contractAddress": null
    }
  ],
  "libraries": [],
  "pending": [],
  "returns": {},
  "timestamp": 1737503581,
  "chain": 11155111,
  "commit": "1d2fb70"
}