{
  "transactions": [
    {
      "hash": "0x33b71271ccb53189ef6f047b14a37b6336bf05697aca6d4946286f8f8dbbc3bb",
      "transactionType": "CALL",
      "contractName": null,
      "contractAddress": "0xbf4a322f1496e5c3d34a9bcdb4c60567b38c7de2",
      "function": "buy(address)",
      "arguments": [
        "0xC77f7fed3b5Cc8249aDc428c5F44C9063B9734b4"
      ],
      "transaction": {
        "from": "0xc77f7fed3b5cc8249adc428c5f44c9063b9734b4",
        "to": "0xbf4a322f1496e5c3d34a9bcdb4c60567b38c7de2",
        "gas": "0x1b309",
        "value": "0xde0b6b3a7640000",
        "input": "0xf088d547000000000000000000000000c77f7fed3b5cc8249adc428c5f44c9063b9734b4",
        "nonce": "0xcec",
        "chainId": "0xaa36a7"
      },
      "additionalContracts": [],
      "isFixedGasLimit": false
    }
  ],
  "receipts": [
    {
      "status": "0x1",
      "cumulativeGasUsed": "0x975acc",
      "logs": [
        {
          "address": "0xbf4a322f1496e5c3d34a9bcdb4c60567b38c7de2",
          "topics": [
            "0xddf252ad1be2c89b69c2b068fc378daa952ba7f163c4a11628f55a4df523b3ef",
            "0x0000000000000000000000000000000000000000000000000000000000000000",
            "0x000000000000000000000000c77f7fed3b5cc8249adc428c5f44c9063b9734b4"
          ],
          "data": "0x000000000000000000000000000000000000000000000034cfa3b5c7356f56ca",
          "blockHash": "0x01ccfaf369d78576646695e37ba5ec85d0c1ff3c75c69a6e13cbfba3d2614f79",
          "blockNumber": "0x725d3e",
          "transactionHash": "0x33b71271ccb53189ef6f047b14a37b6336bf05697aca6d4946286f8f8dbbc3bb",
          "transactionIndex": "0x59",
          "logIndex": "0x96",
          "removed": false
        },
        {
          "address": "0xbf4a322f1496e5c3d34a9bcdb4c60567b38c7de2",
          "topics": [
            "0xddf252ad1be2c89b69c2b068fc378daa952ba7f163c4a11628f55a4df523b3ef",
            "0x0000000000000000000000000000000000000000000000000000000000000000",
            "0x000000000000000000000000c77f7fed3b5cc8249adc428c5f44c9063b9734b4"
          ],
          "data": "0x0000000000000000000000000000000000000000000000002902761272f30923",
          "blockHash": "0x01ccfaf369d78576646695e37ba5ec85d0c1ff3c75c69a6e13cbfba3d2614f79",
          "blockNumber": "0x725d3e",
          "transactionHash": "0x33b71271ccb53189ef6f047b14a37b6336bf05697aca6d4946286f8f8dbbc3bb",
          "transactionIndex": "0x59",
          "logIndex": "0x97",
          "removed": false
        },
        {
          "address": "0xbf4a322f1496e5c3d34a9bcdb4c60567b38c7de2",
          "topics": [
            "0x4afcb4a87cdbd9974efdb92ee48bc8d7cd0ae4bf217004db3d080cbaee652ca7"
          ],
          "data": "0x000000000000000000000000000000000000000000000000000000006787515c00000000000000000000000000000000000000000000000000039c42e52af5d50000000000000000000000000000000000000000000000000de0b6b3a7640000",
          "blockHash": "0x01ccfaf369d78576646695e37ba5ec85d0c1ff3c75c69a6e13cbfba3d2614f79",
          "blockNumber": "0x725d3e",
          "transactionHash": "0x33b71271ccb53189ef6f047b14a37b6336bf05697aca6d4946286f8f8dbbc3bb",
          "transactionIndex": "0x59",
          "logIndex": "0x98",
          "removed": false
        }
      ],
      "logsBloom": "0x00000000000000000000000000000000000000000000000000000000000000000000000000000000000000000000000000000000000000004000000000000000000000000000000000000008000000000000001000000000000000000000000000000000020000000000000000000800020000000000000000000010000000000000000000000000000000000000000000000000000008000000010000000000000000000000000000000000000000004000000000000000000000000000000000000002000000800000000000001000000000000000080000000000000020000000000000000000000000000000000000000000000000000000000000000000",
      "type": "0x2",
      "transactionHash": "0x33b71271ccb53189ef6f047b14a37b6336bf05697aca6d4946286f8f8dbbc3bb",
      "transactionIndex": "0x59",
      "blockHash": "0x01ccfaf369d78576646695e37ba5ec85d0c1ff3c75c69a6e13cbfba3d2614f79",
      "blockNumber": "0x725d3e",
      "gasUsed": "0x13af6",
      "effectiveGasPrice": "0x44937ee47",
      "from": "0xc77f7fed3b5cc8249adc428c5f44c9063b9734b4",
      "to": "0xbf4a322f1496e5c3d34a9bcdb4c60567b38c7de2",
      "contractAddress": null
    }
  ],
  "libraries": [],
  "pending": [],
  "returns": {},
  "timestamp": 1736921437,
  "chain": 11155111,
  "commit": "51a374b"
}