{
  "transactions": [
    {
      "hash": "0x2cea2822dc95aca62fe4640629cca4278d3397da2b191a36ecb0d7deb0d38e44",
      "transactionType": "CALL",
      "contractName": null,
      "contractAddress": "0x5eb9cc76c3506942c1c0ead70e877dd5e4f00cb0",
      "function": "sell(uint256)",
      "arguments": [
        "989081195741381100929"
      ],
      "transaction": {
        "from": "0xc77f7fed3b5cc8249adc428c5f44c9063b9734b4",
        "to": "0x5eb9cc76c3506942c1c0ead70e877dd5e4f00cb0",
        "gas": "0x16fec",
        "value": "0x0",
        "input": "0xe4849b320000000000000000000000000000000000000000000000359e424b26679f8581",
        "nonce": "0x477",
        "chainId": "0xaa36a7"
      },
      "additionalContracts": [],
      "isFixedGasLimit": false
    }
  ],
  "receipts": [
    {
      "status": "0x1",
      "cumulativeGasUsed": "0x82790d",
      "logs": [
        {
          "address": "0x5eb9cc76c3506942c1c0ead70e877dd5e4f00cb0",
          "topics": [
            "0xddf252ad1be2c89b69c2b068fc378daa952ba7f163c4a11628f55a4df523b3ef",
            "0x000000000000000000000000c77f7fed3b5cc8249adc428c5f44c9063b9734b4",
            "0x0000000000000000000000000000000000000000000000000000000000000000"
          ],
          "data": "0x0000000000000000000000000000000000000000000000359e424b26679f8581",
          "blockHash": "0xb9f9507c890f380bcafda8b1978515c5df1f5c913c3b7e7602e5eebb518a8876",
          "blockNumber": "0x7250a4",
          "transactionHash": "0x2cea2822dc95aca62fe4640629cca4278d3397da2b191a36ecb0d7deb0d38e44",
          "transactionIndex": "0x40",
          "logIndex": "0x5c",
          "removed": false
        },
        {
          "address": "0x5eb9cc76c3506942c1c0ead70e877dd5e4f00cb0",
          "topics": [
            "0x4afcb4a87cdbd9974efdb92ee48bc8d7cd0ae4bf217004db3d080cbaee652ca7"
          ],
          "data": "0x000000000000000000000000000000000000000000000000000000006786b97c00000000000000000000000000000000000000000000000000039119ea84df330000000000000000000000000000000000000000000000000dc7db1331c5fd12",
          "blockHash": "0xb9f9507c890f380bcafda8b1978515c5df1f5c913c3b7e7602e5eebb518a8876",
          "blockNumber": "0x7250a4",
          "transactionHash": "0x2cea2822dc95aca62fe4640629cca4278d3397da2b191a36ecb0d7deb0d38e44",
          "transactionIndex": "0x40",
          "logIndex": "0x5d",
          "removed": false
        }
      ],
      "logsBloom": "0x00000000000000000000000000000000000000000000000000000000000000000000000000000000000000000000000000000000000000004000000000000000000000000000000000000008000000000000000000000000000000000000000000000000020000000000000004000800020000000000000000000010000000000000000000000000000000000000000000000000000000000000010000000000000000000000000000000000000000004000000000000000000000000000020000000002000000800000008000000000000000000000080000000000000020000000000000000000000000000000000000000000000000000000000000000000",
      "type": "0x2",
      "transactionHash": "0x2cea2822dc95aca62fe4640629cca4278d3397da2b191a36ecb0d7deb0d38e44",
      "transactionIndex": "0x40",
      "blockHash": "0xb9f9507c890f380bcafda8b1978515c5df1f5c913c3b7e7602e5eebb518a8876",
      "blockNumber": "0x7250a4",
      "gasUsed": "0xfb93",
      "effectiveGasPrice": "0x1f1816bc6",
      "from": "0xc77f7fed3b5cc8249adc428c5f44c9063b9734b4",
      "to": "0x5eb9cc76c3506942c1c0ead70e877dd5e4f00cb0",
      "contractAddress": null
    }
  ],
  "libraries": [],
  "pending": [],
  "returns": {},
  "timestamp": 1736882557,
  "chain": 11155111,
  "commit": "51a374b"
}