{
  "transactions": [
    {
      "hash": "0x295466be0ecb1c477ca14545b3c574fb23e24cb58df73bb805201145bbb7652c",
      "transactionType": "CALL",
      "contractName": null,
      "contractAddress": "0xbf4a322f1496e5c3d34a9bcdb4c60567b38c7de2",
      "function": "sell(uint256)",
      "arguments": [
        "990077764484484157568"
      ],
      "transaction": {
        "from": "0xc77f7fed3b5cc8249adc428c5f44c9063b9734b4",
        "to": "0xbf4a322f1496e5c3d34a9bcdb4c60567b38c7de2",
        "gas": "0x16fea",
        "value": "0x0",
        "input": "0xe4849b32000000000000000000000000000000000000000000000035ac16d1244e89d080",
        "nonce": "0x931",
        "chainId": "0xaa36a7"
      },
      "additionalContracts": [],
      "isFixedGasLimit": false
    }
  ],
  "receipts": [
    {
      "status": "0x1",
      "cumulativeGasUsed": "0xb46438",
      "logs": [
        {
          "address": "0xbf4a322f1496e5c3d34a9bcdb4c60567b38c7de2",
          "topics": [
            "0xddf252ad1be2c89b69c2b068fc378daa952ba7f163c4a11628f55a4df523b3ef",
            "0x000000000000000000000000c77f7fed3b5cc8249adc428c5f44c9063b9734b4",
            "0x0000000000000000000000000000000000000000000000000000000000000000"
          ],
          "data": "0x000000000000000000000000000000000000000000000035ac16d1244e89d080",
          "blockHash": "0x13b705d8033ced470eac507f1e58147d3bbe0e4d7d3dee018160ba5877e0c3bf",
          "blockNumber": "0x7258ba",
          "transactionHash": "0x295466be0ecb1c477ca14545b3c574fb23e24cb58df73bb805201145bbb7652c",
          "transactionIndex": "0x45",
          "logIndex": "0x57",
          "removed": false
        },
        {
          "address": "0xbf4a322f1496e5c3d34a9bcdb4c60567b38c7de2",
          "topics": [
            "0x4afcb4a87cdbd9974efdb92ee48bc8d7cd0ae4bf217004db3d080cbaee652ca7"
          ],
          "data": "0x0000000000000000000000000000000000000000000000000000000067871ae40000000000000000000000000000000000000000000000000003903504d4e7520000000000000000000000000000000000000000000000000dc7e3f97f424761",
          "blockHash": "0x13b705d8033ced470eac507f1e58147d3bbe0e4d7d3dee018160ba5877e0c3bf",
          "blockNumber": "0x7258ba",
          "transactionHash": "0x295466be0ecb1c477ca14545b3c574fb23e24cb58df73bb805201145bbb7652c",
          "transactionIndex": "0x45",
          "logIndex": "0x58",
          "removed": false
        }
      ],
      "logsBloom": "0x00000000000000000000000000000000000000000000000000000000000000000000000000000000000000000000000000000000000000004000000000000000000000000000000000000008000000000000001000000000000000000000000000000000020000000000000000000800020000000000000000000010000000000000000000000000000000000000000000000000000008000000010000000000000000000000000000000000000000004000000000000000000000000000000000000002000000800000000000001000000000000000080000000000000020000000000000000000000000000000000000000000000000000000000000000000",
      "type": "0x2",
      "transactionHash": "0x295466be0ecb1c477ca14545b3c574fb23e24cb58df73bb805201145bbb7652c",
      "transactionIndex": "0x45",
      "blockHash": "0x13b705d8033ced470eac507f1e58147d3bbe0e4d7d3dee018160ba5877e0c3bf",
      "blockNumber": "0x7258ba",
      "gasUsed": "0xfb91",
      "effectiveGasPrice": "0x5582f012",
      "from": "0xc77f7fed3b5cc8249adc428c5f44c9063b9734b4",
      "to": "0xbf4a322f1496e5c3d34a9bcdb4c60567b38c7de2",
      "contractAddress": null
    }
  ],
  "libraries": [],
  "pending": [],
  "returns": {},
  "timestamp": 1736907493,
  "chain": 11155111,
  "commit": "51a374b"
}