{
  "transactions": [
    {
      "hash": "0x5d5a32e2bc9acaceebdfe7d1386ee4740253e0669bdafe2f123e13cba7c4490e",
      "transactionType": "CALL",
      "contractName": null,
      "contractAddress": "0x8aafd3ede9adb0ff97c7aebce82a919afb1c8764",
      "function": "buy(address)",
      "arguments": [
        "0xC77f7fed3b5Cc8249aDc428c5F44C9063B9734b4"
      ],
      "transaction": {
        "from": "0xc77f7fed3b5cc8249adc428c5f44c9063b9734b4",
        "to": "0x8aafd3ede9adb0ff97c7aebce82a919afb1c8764",
        "gas": "0x156ea",
        "value": "0xde0b6b3a7640000",
        "input": "0xf088d547000000000000000000000000c77f7fed3b5cc8249adc428c5f44c9063b9734b4",
        "nonce": "0x144a",
        "chainId": "0xaa36a7"
      },
      "additionalContracts": [],
      "isFixedGasLimit": false
    }
  ],
  "receipts": [
    {
      "status": "0x1",
      "cumulativeGasUsed": "0x11c649f",
      "logs": [
        {
          "address": "0x8aafd3ede9adb0ff97c7aebce82a919afb1c8764",
          "topics": [
            "0xddf252ad1be2c89b69c2b068fc378daa952ba7f163c4a11628f55a4df523b3ef",
            "0x0000000000000000000000000000000000000000000000000000000000000000",
            "0x000000000000000000000000c77f7fed3b5cc8249adc428c5f44c9063b9734b4"
          ],
          "data": "0x00000000000000000000000000000000000000000000000cc4bbb2117c4ab08c",
          "blockHash": "0x50e0669fdff14bf85d0f4dd2af7dbd486d29463d844ea9178863d234fb150791",
          "blockNumber": "0x731b8e",
          "transactionHash": "0x5d5a32e2bc9acaceebdfe7d1386ee4740253e0669bdafe2f123e13cba7c4490e",
          "transactionIndex": "0xa5",
          "logIndex": "0xb9",
          "removed": false
        },
        {
          "address": "0x8aafd3ede9adb0ff97c7aebce82a919afb1c8764",
          "topics": [
            "0xddf252ad1be2c89b69c2b068fc378daa952ba7f163c4a11628f55a4df523b3ef",
            "0x0000000000000000000000000000000000000000000000000000000000000000",
            "0x000000000000000000000000c77f7fed3b5cc8249adc428c5f44c9063b9734b4"
          ],
          "data": "0x00000000000000000000000000000000000000000000000009ea48668e37ff4b",
          "blockHash": "0x50e0669fdff14bf85d0f4dd2af7dbd486d29463d844ea9178863d234fb150791",
          "blockNumber": "0x731b8e",
          "transactionHash": "0x5d5a32e2bc9acaceebdfe7d1386ee4740253e0669bdafe2f123e13cba7c4490e",
          "transactionIndex": "0xa5",
          "logIndex": "0xba",
          "removed": false
        },
        {
          "address": "0x8aafd3ede9adb0ff97c7aebce82a919afb1c8764",
          "topics": [
            "0x4afcb4a87cdbd9974efdb92ee48bc8d7cd0ae4bf217004db3d080cbaee652ca7"
          ],
          "data": "0x0000000000000000000000000000000000000000000000000000000067904784000000000000000000000000000000000000000000000000000ef5110096d4340000000000000000000000000000000000000000000000000de0b6b3a7640000",
          "blockHash": "0x50e0669fdff14bf85d0f4dd2af7dbd486d29463d844ea9178863d234fb150791",
          "blockNumber": "0x731b8e",
          "transactionHash": "0x5d5a32e2bc9acaceebdfe7d1386ee4740253e0669bdafe2f123e13cba7c4490e",
          "transactionIndex": "0xa5",
          "logIndex": "0xbb",
          "removed": false
        }
      ],
      "logsBloom": "0x00000000000000000000000000000000000000000600000000000000000000000000000000000000000000000000000000000000000000004000000000000000000000000000004000000008000000000000000000000000000000000000000000000000020000000000000000000800020000000000000000000010000000000000000000000000000000000000000000000000000000000000010000000000000000000000000000000000000000004000000000000000000000000000000000000002000000800000000000000000000000000000080000000000000020000000000000000000000000000000000000000000000000000000000000000000",
      "type": "0x2",
      "transactionHash": "0x5d5a32e2bc9acaceebdfe7d1386ee4740253e0669bdafe2f123e13cba7c4490e",
      "transactionIndex": "0xa5",
      "blockHash": "0x50e0669fdff14bf85d0f4dd2af7dbd486d29463d844ea9178863d234fb150791",
      "blockNumber": "0x731b8e",
      "gasUsed": "0xf844",
      "effectiveGasPrice": "0x11c764598",
      "from": "0xc77f7fed3b5cc8249adc428c5f44c9063b9734b4",
      "to": "0x8aafd3ede9adb0ff97c7aebce82a919afb1c8764",
      "contractAddress": null
    }
  ],
  "libraries": [],
  "pending": [],
  "returns": {},
  "timestamp": 1737508742,
  "chain": 11155111,
  "commit": "1d2fb70"
}