{
  "transactions": [
    {
      "hash": "0xf29786bc61a8cc1ee65fd37324fd984fdfcdf00a38957823ec89dbfefb97ff9d",
      "transactionType": "CALL",
      "contractName": null,
      "contractAddress": "0x8aafd3ede9adb0ff97c7aebce82a919afb1c8764",
      "function": "sell(uint256)",
      "arguments": [
        "378772728546698"
      ],
      "transaction": {
        "from": "0xc77f7fed3b5cc8249adc428c5f44c9063b9734b4",
        "to": "0x8aafd3ede9adb0ff97c7aebce82a919afb1c8764",
        "gas": "0x1724d",
        "value": "0x0",
        "input": "0xe4849b320000000000000000000000000000000000000000000000000001587de5ef858a",
        "nonce": "0xfd8",
        "chainId": "0xaa36a7"
      },
      "additionalContracts": [],
      "isFixedGasLimit": false
    }
  ],
  "receipts": [
    {
      "status": "0x1",
      "cumulativeGasUsed": "0xe965a3",
      "logs": [
        {
          "address": "0x8aafd3ede9adb0ff97c7aebce82a919afb1c8764",
          "topics": [
            "0xddf252ad1be2c89b69c2b068fc378daa952ba7f163c4a11628f55a4df523b3ef",
            "0x000000000000000000000000c77f7fed3b5cc8249adc428c5f44c9063b9734b4",
            "0x0000000000000000000000000000000000000000000000000000000000000000"
          ],
          "data": "0x000000000000000000000000000000000000000000000000000155bc61062e75",
          "blockHash": "0x0b762901e133b8ca52c5406fed99a452244c1ceaf4d7cbf1eca5a5c1ff0cb113",
          "blockNumber": "0x731649",
          "transactionHash": "0xf29786bc61a8cc1ee65fd37324fd984fdfcdf00a38957823ec89dbfefb97ff9d",
          "transactionIndex": "0xab",
          "logIndex": "0xea",
          "removed": false
        },
        {
          "address": "0x8aafd3ede9adb0ff97c7aebce82a919afb1c8764",
          "topics": [
            "0xddf252ad1be2c89b69c2b068fc378daa952ba7f163c4a11628f55a4df523b3ef",
            "0x000000000000000000000000c77f7fed3b5cc8249adc428c5f44c9063b9734b4",
            "0x000000000000000000000000c77f7fed3b5cc8249adc428c5f44c9063b9734b4"
          ],
          "data": "0x000000000000000000000000000000000000000000000000000002c184e95715",
          "blockHash": "0x0b762901e133b8ca52c5406fed99a452244c1ceaf4d7cbf1eca5a5c1ff0cb113",
          "blockNumber": "0x731649",
          "transactionHash": "0xf29786bc61a8cc1ee65fd37324fd984fdfcdf00a38957823ec89dbfefb97ff9d",
          "transactionIndex": "0xab",
          "logIndex": "0xeb",
          "removed": false
        },
        {
          "address": "0x8aafd3ede9adb0ff97c7aebce82a919afb1c8764",
          "topics": [
            "0x4afcb4a87cdbd9974efdb92ee48bc8d7cd0ae4bf217004db3d080cbaee652ca7"
          ],
          "data": "0x00000000000000000000000000000000000000000000000000000000679008180000000000000000000000000000000000000000000000000004c51eedc5434900000000000000000000000000000000000000000000000000000076682fccc9",
          "blockHash": "0x0b762901e133b8ca52c5406fed99a452244c1ceaf4d7cbf1eca5a5c1ff0cb113",
          "blockNumber": "0x731649",
          "transactionHash": "0xf29786bc61a8cc1ee65fd37324fd984fdfcdf00a38957823ec89dbfefb97ff9d",
          "transactionIndex": "0xab",
          "logIndex": "0xec",
          "removed": false
        }
      ],
      "logsBloom": "0x00000000000000000000000000000000000000000600000000000000000000000000000000000000000000000000000000000000000000004000000000000000000000000000004000000008000000000000000000000000000000000000000000000000020000000000000000000800020000000000000000000010000000000000000000000000000000000000000000000000000000000000010000000000000000000000000000000000000000004000000000000000000000000000000000000002000000800000000000000000000000000000080000000000000020000000000000000000000000000000000000000000000000000000000000000000",
      "type": "0x2",
      "transactionHash": "0xf29786bc61a8cc1ee65fd37324fd984fdfcdf00a38957823ec89dbfefb97ff9d",
      "transactionIndex": "0xab",
      "blockHash": "0x0b762901e133b8ca52c5406fed99a452244c1ceaf4d7cbf1eca5a5c1ff0cb113",
      "blockNumber": "0x731649",
      "gasUsed": "0xfd33",
      "effectiveGasPrice": "0x4f282b60",
      "from": "0xc77f7fed3b5cc8249adc428c5f44c9063b9734b4",
      "to": "0x8aafd3ede9adb0ff97c7aebce82a919afb1c8764",
      "contractAddress": null
    }
  ],
  "libraries": [],
  "pending": [],
  "returns": {},
  "timestamp": 1737492505,
  "chain": 11155111,
  "commit": "1d2fb70"
}