{
  "transactions": [
    {
      "hash": "0xcfcab9ea5aecac287cf3dc97f00080d7e8a5985a6d4e74ecbb56dcd6d3eaa646",
      "transactionType": "CALL",
      "contractName": null,
      "contractAddress": "0x8aafd3ede9adb0ff97c7aebce82a919afb1c8764",
      "function": "sell(uint256)",
      "arguments": [
        "5444541695338958914"
      ],
      "transaction": {
        "from": "0xc77f7fed3b5cc8249adc428c5f44c9063b9734b4",
        "to": "0x8aafd3ede9adb0ff97c7aebce82a919afb1c8764",
        "gas": "0x15dca",
        "value": "0x0",
        "input": "0xe4849b320000000000000000000000000000000000000000000000004b8ee5d3537b5042",
        "nonce": "0x11fa",
        "chainId": "0xaa36a7"
      },
      "additionalContracts": [],
      "isFixedGasLimit": false
    }
  ],
  "receipts": [
    {
      "status": "0x1",
      "cumulativeGasUsed": "0x9f13ab",
      "logs": [
        {
          "address": "0x8aafd3ede9adb0ff97c7aebce82a919afb1c8764",
          "topics": [
            "0xddf252ad1be2c89b69c2b068fc378daa952ba7f163c4a11628f55a4df523b3ef",
            "0x000000000000000000000000c77f7fed3b5cc8249adc428c5f44c9063b9734b4",
            "0x0000000000000000000000000000000000000000000000000000000000000000"
          ],
          "data": "0x0000000000000000000000000000000000000000000000004af4279225c201cb",
          "blockHash": "0x0bbf629498970396f499543848c4ffc8a83b51dfcfc76b6cb9526e868fe6fb1b",
          "blockNumber": "0x7318d4",
          "transactionHash": "0xcfcab9ea5aecac287cf3dc97f00080d7e8a5985a6d4e74ecbb56dcd6d3eaa646",
          "transactionIndex": "0x6d",
          "logIndex": "0x7e",
          "removed": false
        },
        {
          "address": "0x8aafd3ede9adb0ff97c7aebce82a919afb1c8764",
          "topics": [
            "0xddf252ad1be2c89b69c2b068fc378daa952ba7f163c4a11628f55a4df523b3ef",
            "0x000000000000000000000000c77f7fed3b5cc8249adc428c5f44c9063b9734b4",
            "0x000000000000000000000000c77f7fed3b5cc8249adc428c5f44c9063b9734b4"
          ],
          "data": "0x000000000000000000000000000000000000000000000000009abe412db94e77",
          "blockHash": "0x0bbf629498970396f499543848c4ffc8a83b51dfcfc76b6cb9526e868fe6fb1b",
          "blockNumber": "0x7318d4",
          "transactionHash": "0xcfcab9ea5aecac287cf3dc97f00080d7e8a5985a6d4e74ecbb56dcd6d3eaa646",
          "transactionIndex": "0x6d",
          "logIndex": "0x7f",
          "removed": false
        },
        {
          "address": "0x8aafd3ede9adb0ff97c7aebce82a919afb1c8764",
          "topics": [
            "0x4afcb4a87cdbd9974efdb92ee48bc8d7cd0ae4bf217004db3d080cbaee652ca7"
          ],
          "data": "0x00000000000000000000000000000000000000000000000000000000679026c00000000000000000000000000000000000000000000000000005307a963d7e7c000000000000000000000000000000000000000000000000001c40e9d4aaa978",
          "blockHash": "0x0bbf629498970396f499543848c4ffc8a83b51dfcfc76b6cb9526e868fe6fb1b",
          "blockNumber": "0x7318d4",
          "transactionHash": "0xcfcab9ea5aecac287cf3dc97f00080d7e8a5985a6d4e74ecbb56dcd6d3eaa646",
          "transactionIndex": "0x6d",
          "logIndex": "0x80",
          "removed": false
        }
      ],
      "logsBloom": "0x00000000000000000000000000000000000000000600000000000000000000000000000000000000000000000000000000000000000000004000000000000000000000000000004000000008000000000000000000000000000000000000000000000000020000000000000000000800020000000000000000000010000000000000000000000000000000000000000000000000000000000000010000000000000000000000000000000000000000004000000000000000000000000000000000000002000000800000000000000000000000000000080000000000000020000000000000000000000000000000000000000000000000000000000000000000",
      "type": "0x2",
      "transactionHash": "0xcfcab9ea5aecac287cf3dc97f00080d7e8a5985a6d4e74ecbb56dcd6d3eaa646",
      "transactionIndex": "0x6d",
      "blockHash": "0x0bbf629498970396f499543848c4ffc8a83b51dfcfc76b6cb9526e868fe6fb1b",
      "blockNumber": "0x7318d4",
      "gasUsed": "0xfd3f",
      "effectiveGasPrice": "0x3fd4566c",
      "from": "0xc77f7fed3b5cc8249adc428c5f44c9063b9734b4",
      "to": "0x8aafd3ede9adb0ff97c7aebce82a919afb1c8764",
      "contractAddress": null
    }
  ],
  "libraries": [],
  "pending": [],
  "returns": {},
  "timestamp": 1737500353,
  "chain": 11155111,
  "commit": "1d2fb70"
}