{
  "transactions": [
    {
      "hash": "0xe86d01bd9e9c98dff83fcfebf1745a92f463fac75f41f12878302f2f4d70a113",
      "transactionType": "CALL",
      "contractName": null,
      "contractAddress": "0x8aafd3ede9adb0ff97c7aebce82a919afb1c8764",
      "function": "sell(uint256)",
      "arguments": [
        "17808256946954984"
      ],
      "transaction": {
        "from": "0xc77f7fed3b5cc8249adc428c5f44c9063b9734b4",
        "to": "0x8aafd3ede9adb0ff97c7aebce82a919afb1c8764",
        "gas": "0x1724d",
        "value": "0x0",
        "input": "0xe4849b32000000000000000000000000000000000000000000000000003f4483ed6462e8",
        "nonce": "0x1387",
        "chainId": "0xaa36a7"
      },
      "additionalContracts": [],
      "isFixedGasLimit": false
    }
  ],
  "receipts": [
    {
      "status": "0x1",
      "cumulativeGasUsed": "0x8ba82f",
      "logs": [
        {
          "address": "0x8aafd3ede9adb0ff97c7aebce82a919afb1c8764",
          "topics": [
            "0xddf252ad1be2c89b69c2b068fc378daa952ba7f163c4a11628f55a4df523b3ef",
            "0x000000000000000000000000c77f7fed3b5cc8249adc428c5f44c9063b9734b4",
            "0x0000000000000000000000000000000000000000000000000000000000000000"
          ],
          "data": "0x000000000000000000000000000000000000000000000000003ec2f176c1ca91",
          "blockHash": "0x245fd3f5a6d3e7fe37b4c941575aa5adfa70ad0f0ce65de3ec3ee517cbd87381",
          "blockNumber": "0x731aab",
          "transactionHash": "0xe86d01bd9e9c98dff83fcfebf1745a92f463fac75f41f12878302f2f4d70a113",
          "transactionIndex": "0x66",
          "logIndex": "0x64",
          "removed": false
        },
        {
          "address": "0x8aafd3ede9adb0ff97c7aebce82a919afb1c8764",
          "topics": [
            "0xddf252ad1be2c89b69c2b068fc378daa952ba7f163c4a11628f55a4df523b3ef",
            "0x000000000000000000000000c77f7fed3b5cc8249adc428c5f44c9063b9734b4",
            "0x000000000000000000000000c77f7fed3b5cc8249adc428c5f44c9063b9734b4"
          ],
          "data": "0x0000000000000000000000000000000000000000000000000000819276a29857",
          "blockHash": "0x245fd3f5a6d3e7fe37b4c941575aa5adfa70ad0f0ce65de3ec3ee517cbd87381",
          "blockNumber": "0x731aab",
          "transactionHash": "0xe86d01bd9e9c98dff83fcfebf1745a92f463fac75f41f12878302f2f4d70a113",
          "transactionIndex": "0x66",
          "logIndex": "0x65",
          "removed": false
        },
        {
          "address": "0x8aafd3ede9adb0ff97c7aebce82a919afb1c8764",
          "topics": [
            "0x4afcb4a87cdbd9974efdb92ee48bc8d7cd0ae4bf217004db3d080cbaee652ca7"
          ],
          "data": "0x0000000000000000000000000000000000000000000000000000000067903cd4000000000000000000000000000000000000000000000000000cc7cefcee24dc00000000000000000000000000000000000000000000000000003a43e32059ed",
          "blockHash": "0x245fd3f5a6d3e7fe37b4c941575aa5adfa70ad0f0ce65de3ec3ee517cbd87381",
          "blockNumber": "0x731aab",
          "transactionHash": "0xe86d01bd9e9c98dff83fcfebf1745a92f463fac75f41f12878302f2f4d70a113",
          "transactionIndex": "0x66",
          "logIndex": "0x66",
          "removed": false
        }
      ],
      "logsBloom": "0x00000000000000000000000000000000000000000600000000000000000000000000000000000000000000000000000000000000000000004000000000000000000000000000004000000008000000000000000000000000000000000000000000000000020000000000000000000800020000000000000000000010000000000000000000000000000000000000000000000000000000000000010000000000000000000000000000000000000000004000000000000000000000000000000000000002000000800000000000000000000000000000080000000000000020000000000000000000000000000000000000000000000000000000000000000000",
      "type": "0x2",
      "transactionHash": "0xe86d01bd9e9c98dff83fcfebf1745a92f463fac75f41f12878302f2f4d70a113",
      "transactionIndex": "0x66",
      "blockHash": "0x245fd3f5a6d3e7fe37b4c941575aa5adfa70ad0f0ce65de3ec3ee517cbd87381",
      "blockNumber": "0x731aab",
      "gasUsed": "0xfd33",
      "effectiveGasPrice": "0x5a0a5b7f",
      "from": "0xc77f7fed3b5cc8249adc428c5f44c9063b9734b4",
      "to": "0x8aafd3ede9adb0ff97c7aebce82a919afb1c8764",
      "contractAddress": null
    }
  ],
  "libraries": [],
  "pending": [],
  "returns": {},
  "timestamp": 1737506004,
  "chain": 11155111,
  "commit": "1d2fb70"
}