{
  "transactions": [
    {
      "hash": "0x70e1b597ab375584cad5023dd7c8dd290b66c1814729300f1592ea565f8f575c",
      "transactionType": "CALL",
      "contractName": null,
      "contractAddress": "0xbf4a322f1496e5c3d34a9bcdb4c60567b38c7de2",
      "function": "buy(address)",
      "arguments": [
        "0xC77f7fed3b5Cc8249aDc428c5F44C9063B9734b4"
      ],
      "transaction": {
        "from": "0xc77f7fed3b5cc8249adc428c5f44c9063b9734b4",
        "to": "0xbf4a322f1496e5c3d34a9bcdb4c60567b38c7de2",
        "gas": "0x1b309",
        "value": "0xde0b6b3a7640000",
        "input": "0xf088d547000000000000000000000000c77f7fed3b5cc8249adc428c5f44c9063b9734b4",
        "nonce": "0xd74",
        "chainId": "0xaa36a7"
      },
      "additionalContracts": [],
      "isFixedGasLimit": false
    }
  ],
  "receipts": [
    {
      "status": "0x1",
      "cumulativeGasUsed": "0x83afd2",
      "logs": [
        {
          "address": "0xbf4a322f1496e5c3d34a9bcdb4c60567b38c7de2",
          "topics": [
            "0xddf252ad1be2c89b69c2b068fc378daa952ba7f163c4a11628f55a4df523b3ef",
            "0x0000000000000000000000000000000000000000000000000000000000000000",
            "0x000000000000000000000000c77f7fed3b5cc8249adc428c5f44c9063b9734b4"
          ],
          "data": "0x000000000000000000000000000000000000000000000034b69189ade4d2ca85",
          "blockHash": "0x5c5e9e7349b4077aae1099f512488db802d9f7f9a90e05ffc3302ad1ad690166",
          "blockNumber": "0x726643",
          "transactionHash": "0x70e1b597ab375584cad5023dd7c8dd290b66c1814729300f1592ea565f8f575c",
          "transactionIndex": "0x51",
          "logIndex": "0x83",
          "removed": false
        },
        {
          "address": "0xbf4a322f1496e5c3d34a9bcdb4c60567b38c7de2",
          "topics": [
            "0xddf252ad1be2c89b69c2b068fc378daa952ba7f163c4a11628f55a4df523b3ef",
            "0x0000000000000000000000000000000000000000000000000000000000000000",
            "0x000000000000000000000000c77f7fed3b5cc8249adc428c5f44c9063b9734b4"
          ],
          "data": "0x00000000000000000000000000000000000000000000000028eefe24732fb089",
          "blockHash": "0x5c5e9e7349b4077aae1099f512488db802d9f7f9a90e05ffc3302ad1ad690166",
          "blockNumber": "0x726643",
          "transactionHash": "0x70e1b597ab375584cad5023dd7c8dd290b66c1814729300f1592ea565f8f575c",
          "transactionIndex": "0x51",
          "logIndex": "0x84",
          "removed": false
        },
        {
          "address": "0xbf4a322f1496e5c3d34a9bcdb4c60567b38c7de2",
          "topics": [
            "0x4afcb4a87cdbd9974efdb92ee48bc8d7cd0ae4bf217004db3d080cbaee652ca7"
          ],
          "data": "0x000000000000000000000000000000000000000000000000000000006787bdd400000000000000000000000000000000000000000000000000039dfa7aee0cbd0000000000000000000000000000000000000000000000000de0b6b3a7640000",
          "blockHash": "0x5c5e9e7349b4077aae1099f512488db802d9f7f9a90e05ffc3302ad1ad690166",
          "blockNumber": "0x726643",
          "transactionHash": "0x70e1b597ab375584cad5023dd7c8dd290b66c1814729300f1592ea565f8f575c",
          "transactionIndex": "0x51",
          "logIndex": "0x85",
          "removed": false
        }
      ],
      "logsBloom": "0x00000000000000000000000000000000000000000000000000000000000000000000000000000000000000000000000000000000000000004000000000000000000000000000000000000008000000000000001000000000000000000000000000000000020000000000000000000800020000000000000000000010000000000000000000000000000000000000000000000000000008000000010000000000000000000000000000000000000000004000000000000000000000000000000000000002000000800000000000001000000000000000080000000000000020000000000000000000000000000000000000000000000000000000000000000000",
      "type": "0x2",
      "transactionHash": "0x70e1b597ab375584cad5023dd7c8dd290b66c1814729300f1592ea565f8f575c",
      "transactionIndex": "0x51",
      "blockHash": "0x5c5e9e7349b4077aae1099f512488db802d9f7f9a90e05ffc3302ad1ad690166",
      "blockNumber": "0x726643",
      "gasUsed": "0x13af6",
      "effectiveGasPrice": "0x9e74af23",
      "from": "0xc77f7fed3b5cc8249adc428c5f44c9063b9734b4",
      "to": "0xbf4a322f1496e5c3d34a9bcdb4c60567b38c7de2",
      "contractAddress": null
    }
  ],
  "libraries": [],
  "pending": [],
  "returns": {},
  "timestamp": 1736949205,
  "chain": 11155111,
  "commit": "51a374b"
}