{
  "transactions": [
    {
      "hash": "0x4642c622281f2c814cf392f022f17612216674a3a13144e8700502c2b879c443",
      "transactionType": "CALL",
      "contractName": null,
      "contractAddress": "0x8aafd3ede9adb0ff97c7aebce82a919afb1c8764",
      "function": "sell(uint256)",
      "arguments": [
        "253705690828985855836"
      ],
      "transaction": {
        "from": "0xc77f7fed3b5cc8249adc428c5f44c9063b9734b4",
        "to": "0x8aafd3ede9adb0ff97c7aebce82a919afb1c8764",
        "gas": "0x17270",
        "value": "0x0",
        "input": "0xe4849b3200000000000000000000000000000000000000000000000dc0dfad9e5cc7ef5c",
        "nonce": "0x13f1",
        "chainId": "0xaa36a7"
      },
      "additionalContracts": [],
      "isFixedGasLimit": false
    }
  ],
  "receipts": [
    {
      "status": "0x1",
      "cumulativeGasUsed": "0xf88f58",
      "logs": [
        {
          "address": "0x8aafd3ede9adb0ff97c7aebce82a919afb1c8764",
          "topics": [
            "0xddf252ad1be2c89b69c2b068fc378daa952ba7f163c4a11628f55a4df523b3ef",
            "0x000000000000000000000000c77f7fed3b5cc8249adc428c5f44c9063b9734b4",
            "0x0000000000000000000000000000000000000000000000000000000000000000"
          ],
          "data": "0x00000000000000000000000000000000000000000000000da4b4edc401ed3f5e",
          "blockHash": "0xbc956a8ae7fe330e02aded58eb194162cb3d1eba693910ef637c9a81c5d655ed",
          "blockNumber": "0x731b23",
          "transactionHash": "0x4642c622281f2c814cf392f022f17612216674a3a13144e8700502c2b879c443",
          "transactionIndex": "0x53",
          "logIndex": "0x80",
          "removed": false
        },
        {
          "address": "0x8aafd3ede9adb0ff97c7aebce82a919afb1c8764",
          "topics": [
            "0xddf252ad1be2c89b69c2b068fc378daa952ba7f163c4a11628f55a4df523b3ef",
            "0x000000000000000000000000c77f7fed3b5cc8249adc428c5f44c9063b9734b4",
            "0x000000000000000000000000c77f7fed3b5cc8249adc428c5f44c9063b9734b4"
          ],
          "data": "0x0000000000000000000000000000000000000000000000001c2abfda5adaaffe",
          "blockHash": "0xbc956a8ae7fe330e02aded58eb194162cb3d1eba693910ef637c9a81c5d655ed",
          "blockNumber": "0x731b23",
          "transactionHash": "0x4642c622281f2c814cf392f022f17612216674a3a13144e8700502c2b879c443",
          "transactionIndex": "0x53",
          "logIndex": "0x81",
          "removed": false
        },
        {
          "address": "0x8aafd3ede9adb0ff97c7aebce82a919afb1c8764",
          "topics": [
            "0x4afcb4a87cdbd9974efdb92ee48bc8d7cd0ae4bf217004db3d080cbaee652ca7"
          ],
          "data": "0x0000000000000000000000000000000000000000000000000000000067904274000000000000000000000000000000000000000000000000000e01d8981601290000000000000000000000000000000000000000000000000dce01ab5e66f2f8",
          "blockHash": "0xbc956a8ae7fe330e02aded58eb194162cb3d1eba693910ef637c9a81c5d655ed",
          "blockNumber": "0x731b23",
          "transactionHash": "0x4642c622281f2c814cf392f022f17612216674a3a13144e8700502c2b879c443",
          "transactionIndex": "0x53",
          "logIndex": "0x82",
          "removed": false
        }
      ],
      "logsBloom": "0x00000000000000000000000000000000000000000600000000000000000000000000000000000000000000000000000000000000000000004000000000000000000000000000004000000008000000000000000000000000000000000000000000000000020000000000000000000800020000000000000000000010000000000000000000000000000000000000000000000000000000000000010000000000000000000000000000000000000000004000000000000000000000000000000000000002000000800000000000000000000000000000080000000000000020000000000000000000000000000000000000000000000000000000000000000000",
      "type": "0x2",
      "transactionHash": "0x4642c622281f2c814cf392f022f17612216674a3a13144e8700502c2b879c443",
      "transactionIndex": "0x53",
      "blockHash": "0xbc956a8ae7fe330e02aded58eb194162cb3d1eba693910ef637c9a81c5d655ed",
      "blockNumber": "0x731b23",
      "gasUsed": "0xfd4b",
      "effectiveGasPrice": "0x96ec8122",
      "from": "0xc77f7fed3b5cc8249adc428c5f44c9063b9734b4",
      "to": "0x8aafd3ede9adb0ff97c7aebce82a919afb1c8764",
      "contractAddress": null
    }
  ],
  "libraries": [],
  "pending": [],
  "returns": {},
  "timestamp": 1737507445,
  "chain": 11155111,
  "commit": "1d2fb70"
}