{
  "transactions": [
    {
      "hash": "0xb7145cc88c7b568c377b2d27e409ba4239831144260e6787461ab68fcb0bbadd",
      "transactionType": "CALL",
      "contractName": null,
      "contractAddress": "0x8aafd3ede9adb0ff97c7aebce82a919afb1c8764",
      "function": "sell(uint256)",
      "arguments": [
        "6718428809"
      ],
      "transaction": {
        "from": "0xc77f7fed3b5cc8249adc428c5f44c9063b9734b4",
        "to": "0x8aafd3ede9adb0ff97c7aebce82a919afb1c8764",
        "gas": "0x1722a",
        "value": "0x0",
        "input": "0xe4849b320000000000000000000000000000000000000000000000000000000190731689",
        "nonce": "0x1516",
        "chainId": "0xaa36a7"
      },
      "additionalContracts": [],
      "isFixedGasLimit": false
    }
  ],
  "receipts": [
    {
      "status": "0x1",
      "cumulativeGasUsed": "0xcd9be6",
      "logs": [
        {
          "address": "0x8aafd3ede9adb0ff97c7aebce82a919afb1c8764",
          "topics": [
            "0xddf252ad1be2c89b69c2b068fc378daa952ba7f163c4a11628f55a4df523b3ef",
            "0x000000000000000000000000c77f7fed3b5cc8249adc428c5f44c9063b9734b4",
            "0x0000000000000000000000000000000000000000000000000000000000000000"
          ],
          "data": "0x000000000000000000000000000000000000000000000000000000018d3ef7a3",
          "blockHash": "0x1ce4e29aa3846f9e4864de1d4b46e5938d3b9891be8815bf3c5b614c4a724cb1",
          "blockNumber": "0x731c78",
          "transactionHash": "0xb7145cc88c7b568c377b2d27e409ba4239831144260e6787461ab68fcb0bbadd",
          "transactionIndex": "0x72",
          "logIndex": "0xb4",
          "removed": false
        },
        {
          "address": "0x8aafd3ede9adb0ff97c7aebce82a919afb1c8764",
          "topics": [
            "0xddf252ad1be2c89b69c2b068fc378daa952ba7f163c4a11628f55a4df523b3ef",
            "0x000000000000000000000000c77f7fed3b5cc8249adc428c5f44c9063b9734b4",
            "0x000000000000000000000000c77f7fed3b5cc8249adc428c5f44c9063b9734b4"
          ],
          "data": "0x0000000000000000000000000000000000000000000000000000000003341ee6",
          "blockHash": "0x1ce4e29aa3846f9e4864de1d4b46e5938d3b9891be8815bf3c5b614c4a724cb1",
          "blockNumber": "0x731c78",
          "transactionHash": "0xb7145cc88c7b568c377b2d27e409ba4239831144260e6787461ab68fcb0bbadd",
          "transactionIndex": "0x72",
          "logIndex": "0xb5",
          "removed": false
        },
        {
          "address": "0x8aafd3ede9adb0ff97c7aebce82a919afb1c8764",
          "topics": [
            "0x4afcb4a87cdbd9974efdb92ee48bc8d7cd0ae4bf217004db3d080cbaee652ca7"
          ],
          "data": "0x000000000000000000000000000000000000000000000000000000006790527c00000000000000000000000000000000000000000000000000114f6e85997dc00000000000000000000000000000000000000000000000000000000001f37ee0",
          "blockHash": "0x1ce4e29aa3846f9e4864de1d4b46e5938d3b9891be8815bf3c5b614c4a724cb1",
          "blockNumber": "0x731c78",
          "transactionHash": "0xb7145cc88c7b568c377b2d27e409ba4239831144260e6787461ab68fcb0bbadd",
          "transactionIndex": "0x72",
          "logIndex": "0xb6",
          "removed": false
        }
      ],
      "logsBloom": "0x00000000000000000000000000000000000000000600000000000000000000000000000000000000000000000000000000000000000000004000000000000000000000000000004000000008000000000000000000000000000000000000000000000000020000000000000000000800020000000000000000000010000000000000000000000000000000000000000000000000000000000000010000000000000000000000000000000000000000004000000000000000000000000000000000000002000000800000000000000000000000000000080000000000000020000000000000000000000000000000000000000000000000000000000000000000",
      "type": "0x2",
      "transactionHash": "0xb7145cc88c7b568c377b2d27e409ba4239831144260e6787461ab68fcb0bbadd",
      "transactionIndex": "0x72",
      "blockHash": "0x1ce4e29aa3846f9e4864de1d4b46e5938d3b9891be8815bf3c5b614c4a724cb1",
      "blockNumber": "0x731c78",
      "gasUsed": "0xfd1b",
      "effectiveGasPrice": "0x16cb812e1",
      "from": "0xc77f7fed3b5cc8249adc428c5f44c9063b9734b4",
      "to": "0x8aafd3ede9adb0ff97c7aebce82a919afb1c8764",
      "contractAddress": null
    }
  ],
  "libraries": [],
  "pending": [],
  "returns": {},
  "timestamp": 1737511549,
  "chain": 11155111,
  "commit": "1d2fb70"
}