{
  "transactions": [
    {
      "hash": "0x0be0ea9b91aafa016f97ae6b5b8974558ddec999064c5019f9b829f7d8e3f16f",
      "transactionType": "CALL",
      "contractName": null,
      "contractAddress": "0x5eb9cc76c3506942c1c0ead70e877dd5e4f00cb0",
      "function": "sell(uint256)",
      "arguments": [
        "989087888372424660592"
      ],
      "transaction": {
        "from": "0xc77f7fed3b5cc8249adc428c5f44c9063b9734b4",
        "to": "0x5eb9cc76c3506942c1c0ead70e877dd5e4f00cb0",
        "gas": "0x16fec",
        "value": "0x0",
        "input": "0xe4849b320000000000000000000000000000000000000000000000359e5a120fff965670",
        "nonce": "0x44d",
        "chainId": "0xaa36a7"
      },
      "additionalContracts": [],
      "isFixedGasLimit": false
    }
  ],
  "receipts": [
    {
      "status": "0x1",
      "cumulativeGasUsed": "0x83db0d",
      "logs": [
        {
          "address": "0x5eb9cc76c3506942c1c0ead70e877dd5e4f00cb0",
          "topics": [
            "0xddf252ad1be2c89b69c2b068fc378daa952ba7f163c4a11628f55a4df523b3ef",
            "0x000000000000000000000000c77f7fed3b5cc8249adc428c5f44c9063b9734b4",
            "0x0000000000000000000000000000000000000000000000000000000000000000"
          ],
          "data": "0x0000000000000000000000000000000000000000000000359e5a120fff965670",
          "blockHash": "0x0ebec85ccae6baab779a1d40e18bf1f4f1455562b8c4f2c55f1fd001d8fb5e6d",
          "blockNumber": "0x72506e",
          "transactionHash": "0x0be0ea9b91aafa016f97ae6b5b8974558ddec999064c5019f9b829f7d8e3f16f",
          "transactionIndex": "0x48",
          "logIndex": "0xa1",
          "removed": false
        },
        {
          "address": "0x5eb9cc76c3506942c1c0ead70e877dd5e4f00cb0",
          "topics": [
            "0x4afcb4a87cdbd9974efdb92ee48bc8d7cd0ae4bf217004db3d080cbaee652ca7"
          ],
          "data": "0x000000000000000000000000000000000000000000000000000000006786b6f400000000000000000000000000000000000000000000000000039118559b61ed0000000000000000000000000000000000000000000000000dc7db1331d1e5b0",
          "blockHash": "0x0ebec85ccae6baab779a1d40e18bf1f4f1455562b8c4f2c55f1fd001d8fb5e6d",
          "blockNumber": "0x72506e",
          "transactionHash": "0x0be0ea9b91aafa016f97ae6b5b8974558ddec999064c5019f9b829f7d8e3f16f",
          "transactionIndex": "0x48",
          "logIndex": "0xa2",
          "removed": false
        }
      ],
      "logsBloom": "0x00000000000000000000000000000000000000000000000000000000000000000000000000000000000000000000000000000000000000004000000000000000000000000000000000000008000000000000000000000000000000000000000000000000020000000000000004000800020000000000000000000010000000000000000000000000000000000000000000000000000000000000010000000000000000000000000000000000000000004000000000000000000000000000020000000002000000800000008000000000000000000000080000000000000020000000000000000000000000000000000000000000000000000000000000000000",
      "type": "0x2",
      "transactionHash": "0x0be0ea9b91aafa016f97ae6b5b8974558ddec999064c5019f9b829f7d8e3f16f",
      "transactionIndex": "0x48",
      "blockHash": "0x0ebec85ccae6baab779a1d40e18bf1f4f1455562b8c4f2c55f1fd001d8fb5e6d",
      "blockNumber": "0x72506e",
      "gasUsed": "0xfb93",
      "effectiveGasPrice": "0x25bc36f86",
      "from": "0xc77f7fed3b5cc8249adc428c5f44c9063b9734b4",
      "to": "0x5eb9cc76c3506942c1c0ead70e877dd5e4f00cb0",
      "contractAddress": null
    }
  ],
  "libraries": [],
  "pending": [],
  "returns": {},
  "timestamp": 1736881909,
  "chain": 11155111,
  "commit": "51a374b"
}