{
  "transactions": [
    {
      "hash": "0xf26035a843d0d74020d76e539f6794d6329356dda2aa25045b39a58f7d634f50",
      "transactionType": "CALL",
      "contractName": null,
      "contractAddress": "0x8aafd3ede9adb0ff97c7aebce82a919afb1c8764",
      "function": "sell(uint256)",
      "arguments": [
        "725618353641"
      ],
      "transaction": {
        "from": "0xc77f7fed3b5cc8249adc428c5f44c9063b9734b4",
        "to": "0x8aafd3ede9adb0ff97c7aebce82a919afb1c8764",
        "gas": "0x1722a",
        "value": "0x0",
        "input": "0xe4849b32000000000000000000000000000000000000000000000000000000a8f23965e9",
        "nonce": "0x15ff",
        "chainId": "0xaa36a7"
      },
      "additionalContracts": [],
      "isFixedGasLimit": false
    }
  ],
  "receipts": [
    {
      "status": "0x1",
      "cumulativeGasUsed": "0x25cc79",
      "logs": [
        {
          "address": "0x8aafd3ede9adb0ff97c7aebce82a919afb1c8764",
          "topics": [
            "0xddf252ad1be2c89b69c2b068fc378daa952ba7f163c4a11628f55a4df523b3ef",
            "0x000000000000000000000000c77f7fed3b5cc8249adc428c5f44c9063b9734b4",
            "0x0000000000000000000000000000000000000000000000000000000000000000"
          ],
          "data": "0x000000000000000000000000000000000000000000000000000000a79838f05c",
          "blockHash": "0x4e18ba105b10222de4bc5b56bc1877d2500e91c38a2fb28a124b6432887e24cc",
          "blockNumber": "0x731d90",
          "transactionHash": "0xf26035a843d0d74020d76e539f6794d6329356dda2aa25045b39a58f7d634f50",
          "transactionIndex": "0x19",
          "logIndex": "0x21",
          "removed": false
        },
        {
          "address": "0x8aafd3ede9adb0ff97c7aebce82a919afb1c8764",
          "topics": [
            "0xddf252ad1be2c89b69c2b068fc378daa952ba7f163c4a11628f55a4df523b3ef",
            "0x000000000000000000000000c77f7fed3b5cc8249adc428c5f44c9063b9734b4",
            "0x000000000000000000000000c77f7fed3b5cc8249adc428c5f44c9063b9734b4"
          ],
          "data": "0x000000000000000000000000000000000000000000000000000000015a00758d",
          "blockHash": "0x4e18ba105b10222de4bc5b56bc1877d2500e91c38a2fb28a124b6432887e24cc",
          "blockNumber": "0x731d90",
          "transactionHash": "0xf26035a843d0d74020d76e539f6794d6329356dda2aa25045b39a58f7d634f50",
          "transactionIndex": "0x19",
          "logIndex": "0x22",
          "removed": false
        },
        {
          "address": "0x8aafd3ede9adb0ff97c7aebce82a919afb1c8764",
          "topics": [
            "0x4afcb4a87cdbd9974efdb92ee48bc8d7cd0ae4bf217004db3d080cbaee652ca7"
          ],
          "data": "0x0000000000000000000000000000000000000000000000000000000067905fa8000000000000000000000000000000000000000000000000001404c9977d12c300000000000000000000000000000000000000000000000000000000f3b46c85",
          "blockHash": "0x4e18ba105b10222de4bc5b56bc1877d2500e91c38a2fb28a124b6432887e24cc",
          "blockNumber": "0x731d90",
          "transactionHash": "0xf26035a843d0d74020d76e539f6794d6329356dda2aa25045b39a58f7d634f50",
          "transactionIndex": "0x19",
          "logIndex": "0x23",
          "removed": false
        }
      ],
      "logsBloom": "0x00000000000000000000000000000000000000000600000000000000000000000000000000000000000000000000000000000000000000004000000000000000000000000000004000000008000000000000000000000000000000000000000000000000020000000000000000000800020000000000000000000010000000000000000000000000000000000000000000000000000000000000010000000000000000000000000000000000000000004000000000000000000000000000000000000002000000800000000000000000000000000000080000000000000020000000000000000000000000000000000000000000000000000000000000000000",
      "type": "0x2",
      "transactionHash": "0xf26035a843d0d74020d76e539f6794d6329356dda2aa25045b39a58f7d634f50",
      "transactionIndex": "0x19",
      "blockHash": "0x4e18ba105b10222de4bc5b56bc1877d2500e91c38a2fb28a124b6432887e24cc",
      "blockNumber": "0x731d90",
      "gasUsed": "0xfd1b",
      "effectiveGasPrice": "0x66db6671",
      "from": "0xc77f7fed3b5cc8249adc428c5f44c9063b9734b4",
      "to": "0x8aafd3ede9adb0ff97c7aebce82a919afb1c8764",
      "contractAddress": null
    }
  ],
  "libraries": [],
  "pending": [],
  "returns": {},
  "timestamp": 1737514921,
  "chain": 11155111,
  "commit": "1d2fb70"
}