{
  "transactions": [
    {
      "hash": "0xef576976f99e25a83ababa91965a7bff1408e35626893c8efad4a81df56219c0",
      "transactionType": "CALL",
      "contractName": null,
      "contractAddress": "0x8aafd3ede9adb0ff97c7aebce82a919afb1c8764",
      "function": "sell(uint256)",
      "arguments": [
        "203801169893513754592"
      ],
      "transaction": {
        "from": "0xc77f7fed3b5cc8249adc428c5f44c9063b9734b4",
        "to": "0x8aafd3ede9adb0ff97c7aebce82a919afb1c8764",
        "gas": "0x17270",
        "value": "0x0",
        "input": "0xe4849b3200000000000000000000000000000000000000000000000b0c4f343bb7ebf7e0",
        "nonce": "0x151a",
        "chainId": "0xaa36a7"
      },
      "additionalContracts": [],
      "isFixedGasLimit": false
    }
  ],
  "receipts": [
    {
      "status": "0x1",
      "cumulativeGasUsed": "0xfb9da0",
      "logs": [
        {
          "address": "0x8aafd3ede9adb0ff97c7aebce82a919afb1c8764",
          "topics": [
            "0xddf252ad1be2c89b69c2b068fc378daa952ba7f163c4a11628f55a4df523b3ef",
            "0x000000000000000000000000c77f7fed3b5cc8249adc428c5f44c9063b9734b4",
            "0x0000000000000000000000000000000000000000000000000000000000000000"
          ],
          "data": "0x00000000000000000000000000000000000000000000000af5aed38f356d270c",
          "blockHash": "0xa8a5cacc23a95d8e269ea5c124c8eecdd3678bf3120774f0d7388ae15624d84b",
          "blockNumber": "0x731c7c",
          "transactionHash": "0xef576976f99e25a83ababa91965a7bff1408e35626893c8efad4a81df56219c0",
          "transactionIndex": "0x7f",
          "logIndex": "0x104",
          "removed": false
        },
        {
          "address": "0x8aafd3ede9adb0ff97c7aebce82a919afb1c8764",
          "topics": [
            "0xddf252ad1be2c89b69c2b068fc378daa952ba7f163c4a11628f55a4df523b3ef",
            "0x000000000000000000000000c77f7fed3b5cc8249adc428c5f44c9063b9734b4",
            "0x000000000000000000000000c77f7fed3b5cc8249adc428c5f44c9063b9734b4"
          ],
          "data": "0x00000000000000000000000000000000000000000000000016a060ac827ed0d4",
          "blockHash": "0xa8a5cacc23a95d8e269ea5c124c8eecdd3678bf3120774f0d7388ae15624d84b",
          "blockNumber": "0x731c7c",
          "transactionHash": "0xef576976f99e25a83ababa91965a7bff1408e35626893c8efad4a81df56219c0",
          "transactionIndex": "0x7f",
          "logIndex": "0x105",
          "removed": false
        },
        {
          "address": "0x8aafd3ede9adb0ff97c7aebce82a919afb1c8764",
          "topics": [
            "0x4afcb4a87cdbd9974efdb92ee48bc8d7cd0ae4bf217004db3d080cbaee652ca7"
          ],
          "data": "0x00000000000000000000000000000000000000000000000000000000679052ac000000000000000000000000000000000000000000000000001169d7814a5edf0000000000000000000000000000000000000000000000000dcd0ca47a95b6f3",
          "blockHash": "0xa8a5cacc23a95d8e269ea5c124c8eecdd3678bf3120774f0d7388ae15624d84b",
          "blockNumber": "0x731c7c",
          "transactionHash": "0xef576976f99e25a83ababa91965a7bff1408e35626893c8efad4a81df56219c0",
          "transactionIndex": "0x7f",
          "logIndex": "0x106",
          "removed": false
        }
      ],
      "logsBloom": "0x00000000000000000000000000000000000000000600000000000000000000000000000000000000000000000000000000000000000000004000000000000000000000000000004000000008000000000000000000000000000000000000000000000000020000000000000000000800020000000000000000000010000000000000000000000000000000000000000000000000000000000000010000000000000000000000000000000000000000004000000000000000000000000000000000000002000000800000000000000000000000000000080000000000000020000000000000000000000000000000000000000000000000000000000000000000",
      "type": "0x2",
      "transactionHash": "0xef576976f99e25a83ababa91965a7bff1408e35626893c8efad4a81df56219c0",
      "transactionIndex": "0x7f",
      "blockHash": "0xa8a5cacc23a95d8e269ea5c124c8eecdd3678bf3120774f0d7388ae15624d84b",
      "blockNumber": "0x731c7c",
      "gasUsed": "0xfd4b",
      "effectiveGasPrice": "0x165791e85",
      "from": "0xc77f7fed3b5cc8249adc428c5f44c9063b9734b4",
      "to": "0x8aafd3ede9adb0ff97c7aebce82a919afb1c8764",
      "contractAddress": null
    }
  ],
  "libraries": [],
  "pending": [],
  "returns": {},
  "timestamp": 1737511597,
  "chain": 11155111,
  "commit": "1d2fb70"
}