{
  "transactions": [
    {
      "hash": "0x55ac814b34e795730c0705a5e68924a5184fcb964584f809b166673ac1ec72c7",
      "transactionType": "CALL",
      "contractName": null,
      "contractAddress": "0x8aafd3ede9adb0ff97c7aebce82a919afb1c8764",
      "function": "buy(address)",
      "arguments": [
        "0xC77f7fed3b5Cc8249aDc428c5F44C9063B9734b4"
      ],
      "transaction": {
        "from": "0xc77f7fed3b5cc8249adc428c5f44c9063b9734b4",
        "to": "0x8aafd3ede9adb0ff97c7aebce82a919afb1c8764",
        "gas": "0x156ea",
        "value": "0xde0b6b3a7640000",
        "input": "0xf088d547000000000000000000000000c77f7fed3b5cc8249adc428c5f44c9063b9734b4",
        "nonce": "0x15d6",
        "chainId": "0xaa36a7"
      },
      "additionalContracts": [],
      "isFixedGasLimit": false
    }
  ],
  "receipts": [
    {
      "status": "0x1",
      "cumulativeGasUsed": "0x13b0fc1",
      "logs": [
        {
          "address": "0x8aafd3ede9adb0ff97c7aebce82a919afb1c8764",
          "topics": [
            "0xddf252ad1be2c89b69c2b068fc378daa952ba7f163c4a11628f55a4df523b3ef",
            "0x0000000000000000000000000000000000000000000000000000000000000000",
            "0x000000000000000000000000c77f7fed3b5cc8249adc428c5f44c9063b9734b4"
          ],
          "data": "0x000000000000000000000000000000000000000000000009c7953a6c98175a17",
          "blockHash": "0x1cc3de5dc68725224d1d5680e0de77848df4a8012fbf6dc864561aeed50ae95d",
          "blockNumber": "0x731d53",
          "transactionHash": "0x55ac814b34e795730c0705a5e68924a5184fcb964584f809b166673ac1ec72c7",
          "transactionIndex": "0x7c",
          "logIndex": "0xdd",
          "removed": false
        },
        {
          "address": "0x8aafd3ede9adb0ff97c7aebce82a919afb1c8764",
          "topics": [
            "0xddf252ad1be2c89b69c2b068fc378daa952ba7f163c4a11628f55a4df523b3ef",
            "0x0000000000000000000000000000000000000000000000000000000000000000",
            "0x000000000000000000000000c77f7fed3b5cc8249adc428c5f44c9063b9734b4"
          ],
          "data": "0x00000000000000000000000000000000000000000000000007981e16dd4ac7fb",
          "blockHash": "0x1cc3de5dc68725224d1d5680e0de77848df4a8012fbf6dc864561aeed50ae95d",
          "blockNumber": "0x731d53",
          "transactionHash": "0x55ac814b34e795730c0705a5e68924a5184fcb964584f809b166673ac1ec72c7",
          "transactionIndex": "0x7c",
          "logIndex": "0xde",
          "removed": false
        },
        {
          "address": "0x8aafd3ede9adb0ff97c7aebce82a919afb1c8764",
          "topics": [
            "0x4afcb4a87cdbd9974efdb92ee48bc8d7cd0ae4bf217004db3d080cbaee652ca7"
          ],
          "data": "0x0000000000000000000000000000000000000000000000000000000067905ccc000000000000000000000000000000000000000000000000001385c022f7a4bc0000000000000000000000000000000000000000000000000de0b6b3a7640000",
          "blockHash": "0x1cc3de5dc68725224d1d5680e0de77848df4a8012fbf6dc864561aeed50ae95d",
          "blockNumber": "0x731d53",
          "transactionHash": "0x55ac814b34e795730c0705a5e68924a5184fcb964584f809b166673ac1ec72c7",
          "transactionIndex": "0x7c",
          "logIndex": "0xdf",
          "removed": false
        }
      ],
      "logsBloom": "0x00000000000000000000000000000000000000000600000000000000000000000000000000000000000000000000000000000000000000004000000000000000000000000000004000000008000000000000000000000000000000000000000000000000020000000000000000000800020000000000000000000010000000000000000000000000000000000000000000000000000000000000010000000000000000000000000000000000000000004000000000000000000000000000000000000002000000800000000000000000000000000000080000000000000020000000000000000000000000000000000000000000000000000000000000000000",
      "type": "0x2",
      "transactionHash": "0x55ac814b34e795730c0705a5e68924a5184fcb964584f809b166673ac1ec72c7",
      "transactionIndex": "0x7c",
      "blockHash": "0x1cc3de5dc68725224d1d5680e0de77848df4a8012fbf6dc864561aeed50ae95d",
      "blockNumber": "0x731d53",
      "gasUsed": "0xf844",
      "effectiveGasPrice": "0x61e31d5c",
      "from": "0xc77f7fed3b5cc8249adc428c5f44c9063b9734b4",
      "to": "0x8aafd3ede9adb0ff97c7aebce82a919afb1c8764",
      "contractAddress": null
    }
  ],
  "libraries": [],
  "pending": [],
  "returns": {},
  "timestamp": 1737514189,
  "chain": 11155111,
  "commit": "1d2fb70"
}