{
  "transactions": [
    {
      "hash": "0xa9f6a3f4d6b57e85fc1eea0944c862f05d4460b4c02f3f86a9814c3d7781df59",
      "transactionType": "CALL",
      "contractName": null,
      "contractAddress": "0x5eb9cc76c3506942c1c0ead70e877dd5e4f00cb0",
      "function": "buy(address)",
      "arguments": [
        "0xC77f7fed3b5Cc8249aDc428c5F44C9063B9734b4"
      ],
      "transaction": {
        "from": "0xc77f7fed3b5cc8249adc428c5f44c9063b9734b4",
        "to": "0x5eb9cc76c3506942c1c0ead70e877dd5e4f00cb0",
        "gas": "0x156c8",
        "value": "0xde0b6b3a7640000",
        "input": "0xf088d547000000000000000000000000c77f7fed3b5cc8249adc428c5f44c9063b9734b4",
        "nonce": "0x17d",
        "chainId": "0xaa36a7"
      },
      "additionalContracts": [],
      "isFixedGasLimit": false
    }
  ],
  "receipts": [
    {
      "status": "0x1",
      "cumulativeGasUsed": "0xa9ccff",
      "logs": [
        {
          "address": "0x5eb9cc76c3506942c1c0ead70e877dd5e4f00cb0",
          "topics": [
            "0xddf252ad1be2c89b69c2b068fc378daa952ba7f163c4a11628f55a4df523b3ef",
            "0x0000000000000000000000000000000000000000000000000000000000000000",
            "0x000000000000000000000000c77f7fed3b5cc8249adc428c5f44c9063b9734b4"
          ],
          "data": "0x000000000000000000000000000000000000000000000035a6d0a2c704b08e1e",
          "blockHash": "0x18b0b7cde8e5ccf4574ad5c4022253139e616849225b95010f9f563d08c91e53",
          "blockNumber": "0x723c3a",
          "transactionHash": "0xa9f6a3f4d6b57e85fc1eea0944c862f05d4460b4c02f3f86a9814c3d7781df59",
          "transactionIndex": "0x56",
          "logIndex": "0x9d",
          "removed": false
        },
        {
          "address": "0x5eb9cc76c3506942c1c0ead70e877dd5e4f00cb0",
          "topics": [
            "0xddf252ad1be2c89b69c2b068fc378daa952ba7f163c4a11628f55a4df523b3ef",
            "0x0000000000000000000000000000000000000000000000000000000000000000",
            "0x000000000000000000000000c77f7fed3b5cc8249adc428c5f44c9063b9734b4"
          ],
          "data": "0x00000000000000000000000000000000000000000000000029a98d6557ecf786",
          "blockHash": "0x18b0b7cde8e5ccf4574ad5c4022253139e616849225b95010f9f563d08c91e53",
          "blockNumber": "0x723c3a",
          "transactionHash": "0xa9f6a3f4d6b57e85fc1eea0944c862f05d4460b4c02f3f86a9814c3d7781df59",
          "transactionIndex": "0x56",
          "logIndex": "0x9e",
          "removed": false
        },
        {
          "address": "0x5eb9cc76c3506942c1c0ead70e877dd5e4f00cb0",
          "topics": [
            "0x4afcb4a87cdbd9974efdb92ee48bc8d7cd0ae4bf217004db3d080cbaee652ca7"
          ],
          "data": "0x000000000000000000000000000000000000000000000000000000006785c40c00000000000000000000000000000000000000000000000000038dc5c83353670000000000000000000000000000000000000000000000000de0b6b3a7640000",
          "blockHash": "0x18b0b7cde8e5ccf4574ad5c4022253139e616849225b95010f9f563d08c91e53",
          "blockNumber": "0x723c3a",
          "transactionHash": "0xa9f6a3f4d6b57e85fc1eea0944c862f05d4460b4c02f3f86a9814c3d7781df59",
          "transactionIndex": "0x56",
          "logIndex": "0x9f",
          "removed": false
        }
      ],
      "logsBloom": "0x00000000000000000000000000000000000000000000000000000000000000000000000000000000000000000000000000000000000000004000000000000000000000000000000000000008000000000000000000000000000000000000000000000000020000000000000004000800020000000000000000000010000000000000000000000000000000000000000000000000000000000000010000000000000000000000000000000000000000004000000000000000000000000000020000000002000000800000008000000000000000000000080000000000000020000000000000000000000000000000000000000000000000000000000000000000",
      "type": "0x2",
      "transactionHash": "0xa9f6a3f4d6b57e85fc1eea0944c862f05d4460b4c02f3f86a9814c3d7781df59",
      "transactionIndex": "0x56",
      "blockHash": "0x18b0b7cde8e5ccf4574ad5c4022253139e616849225b95010f9f563d08c91e53",
      "blockNumber": "0x723c3a",
      "gasUsed": "0xf82c",
      "effectiveGasPrice": "0x1bbc00ef3",
      "from": "0xc77f7fed3b5cc8249adc428c5f44c9063b9734b4",
      "to": "0x5eb9cc76c3506942c1c0ead70e877dd5e4f00cb0",
      "contractAddress": null
    }
  ],
  "libraries": [],
  "pending": [],
  "returns": {},
  "timestamp": 1736819726,
  "chain": 11155111,
  "commit": "51a374b"
}