{
  "transactions": [
    {
      "hash": "0xabb65fc24034485a09ace33017f0d53f6238a093898be1107b5bfd8cb2d87522",
      "transactionType": "CALL",
      "contractName": null,
      "contractAddress": "0xbf4a322f1496e5c3d34a9bcdb4c60567b38c7de2",
      "function": "buy(address)",
      "arguments": [
        "0xC77f7fed3b5Cc8249aDc428c5F44C9063B9734b4"
      ],
      "transaction": {
        "from": "0xc77f7fed3b5cc8249adc428c5f44c9063b9734b4",
        "to": "0xbf4a322f1496e5c3d34a9bcdb4c60567b38c7de2",
        "gas": "0x1b309",
        "value": "0xde0b6b3a7640000",
        "input": "0xf088d547000000000000000000000000c77f7fed3b5cc8249adc428c5f44c9063b9734b4",
        "nonce": "0xd82",
        "chainId": "0xaa36a7"
      },
      "additionalContracts": [],
      "isFixedGasLimit": false
    }
  ],
  "receipts": [
    {
      "status": "0x1",
      "cumulativeGasUsed": "0xb0e216",
      "logs": [
        {
          "address": "0xbf4a322f1496e5c3d34a9bcdb4c60567b38c7de2",
          "topics": [
            "0xddf252ad1be2c89b69c2b068fc378daa952ba7f163c4a11628f55a4df523b3ef",
            "0x0000000000000000000000000000000000000000000000000000000000000000",
            "0x000000000000000000000000c77f7fed3b5cc8249adc428c5f44c9063b9734b4"
          ],
          "data": "0x000000000000000000000000000000000000000000000034b3fe31c00c82d358",
          "blockHash": "0xa0e355f5a3a6fc8e9d334dd996b63c53f39d6ab094c6441bda250b365b970d17",
          "blockNumber": "0x726651",
          "transactionHash": "0xabb65fc24034485a09ace33017f0d53f6238a093898be1107b5bfd8cb2d87522",
          "transactionIndex": "0x56",
          "logIndex": "0x90",
          "removed": false
        },
        {
          "address": "0xbf4a322f1496e5c3d34a9bcdb4c60567b38c7de2",
          "topics": [
            "0xddf252ad1be2c89b69c2b068fc378daa952ba7f163c4a11628f55a4df523b3ef",
            "0x0000000000000000000000000000000000000000000000000000000000000000",
            "0x000000000000000000000000c77f7fed3b5cc8249adc428c5f44c9063b9734b4"
          ],
          "data": "0x00000000000000000000000000000000000000000000000028ecfe23c27179c9",
          "blockHash": "0xa0e355f5a3a6fc8e9d334dd996b63c53f39d6ab094c6441bda250b365b970d17",
          "blockNumber": "0x726651",
          "transactionHash": "0xabb65fc24034485a09ace33017f0d53f6238a093898be1107b5bfd8cb2d87522",
          "transactionIndex": "0x56",
          "logIndex": "0x91",
          "removed": false
        },
        {
          "address": "0xbf4a322f1496e5c3d34a9bcdb4c60567b38c7de2",
          "topics": [
            "0x4afcb4a87cdbd9974efdb92ee48bc8d7cd0ae4bf217004db3d080cbaee652ca7"
          ],
          "data": "0x000000000000000000000000000000000000000000000000000000006787be7c00000000000000000000000000000000000000000000000000039e27bb4b2ac80000000000000000000000000000000000000000000000000de0b6b3a7640000",
          "blockHash": "0xa0e355f5a3a6fc8e9d334dd996b63c53f39d6ab094c6441bda250b365b970d17",
          "blockNumber": "0x726651",
          "transactionHash": "0xabb65fc24034485a09ace33017f0d53f6238a093898be1107b5bfd8cb2d87522",
          "transactionIndex": "0x56",
          "logIndex": "0x92",
          "removed": false
        }
      ],
      "logsBloom": "0x00000000000000000000000000000000000000000000000000000000000000000000000000000000000000000000000000000000000000004000000000000000000000000000000000000008000000000000001000000000000000000000000000000000020000000000000000000800020000000000000000000010000000000000000000000000000000000000000000000000000008000000010000000000000000000000000000000000000000004000000000000000000000000000000000000002000000800000000000001000000000000000080000000000000020000000000000000000000000000000000000000000000000000000000000000000",
      "type": "0x2",
      "transactionHash": "0xabb65fc24034485a09ace33017f0d53f6238a093898be1107b5bfd8cb2d87522",
      "transactionIndex": "0x56",
      "blockHash": "0xa0e355f5a3a6fc8e9d334dd996b63c53f39d6ab094c6441bda250b365b970d17",
      "blockNumber": "0x726651",
      "gasUsed": "0x13af6",
      "effectiveGasPrice": "0x8ad1e673",
      "from": "0xc77f7fed3b5cc8249adc428c5f44c9063b9734b4",
      "to": "0xbf4a322f1496e5c3d34a9bcdb4c60567b38c7de2",
      "contractAddress": null
    }
  ],
  "libraries": [],
  "pending": [],
  "returns": {},
  "timestamp": 1736949373,
  "chain": 11155111,
  "commit": "51a374b"
}