{
  "transactions": [
    {
      "hash": "0x415482102478e6f19210801930fb57152022a5211e6452d6aef02b595b22a804",
      "transactionType": "CALL",
      "contractName": null,
      "contractAddress": "0x8aafd3ede9adb0ff97c7aebce82a919afb1c8764",
      "function": "sell(uint256)",
      "arguments": [
        "4815123896"
      ],
      "transaction": {
        "from": "0xc77f7fed3b5cc8249adc428c5f44c9063b9734b4",
        "to": "0x8aafd3ede9adb0ff97c7aebce82a919afb1c8764",
        "gas": "0x15d88",
        "value": "0x0",
        "input": "0xe4849b32000000000000000000000000000000000000000000000000000000011f00f5b8",
        "nonce": "0x175f",
        "chainId": "0xaa36a7"
      },
      "additionalContracts": [],
      "isFixedGasLimit": false
    }
  ],
  "receipts": [
    {
      "status": "0x1",
      "cumulativeGasUsed": "0xa4b7a6",
      "logs": [
        {
          "address": "0x8aafd3ede9adb0ff97c7aebce82a919afb1c8764",
          "topics": [
            "0xddf252ad1be2c89b69c2b068fc378daa952ba7f163c4a11628f55a4df523b3ef",
            "0x000000000000000000000000c77f7fed3b5cc8249adc428c5f44c9063b9734b4",
            "0x0000000000000000000000000000000000000000000000000000000000000000"
          ],
          "data": "0x000000000000000000000000000000000000000000000000000000011cb52d19",
          "blockHash": "0x2c36030306d880a81e7a2eab9b806a1545587f8536dd920742a976f0f481a7ee",
          "blockNumber": "0x731f34",
          "transactionHash": "0x415482102478e6f19210801930fb57152022a5211e6452d6aef02b595b22a804",
          "transactionIndex": "0x5b",
          "logIndex": "0x7a",
          "removed": false
        },
        {
          "address": "0x8aafd3ede9adb0ff97c7aebce82a919afb1c8764",
          "topics": [
            "0xddf252ad1be2c89b69c2b068fc378daa952ba7f163c4a11628f55a4df523b3ef",
            "0x000000000000000000000000c77f7fed3b5cc8249adc428c5f44c9063b9734b4",
            "0x000000000000000000000000c77f7fed3b5cc8249adc428c5f44c9063b9734b4"
          ],
          "data": "0x00000000000000000000000000000000000000000000000000000000024bc89f",
          "blockHash": "0x2c36030306d880a81e7a2eab9b806a1545587f8536dd920742a976f0f481a7ee",
          "blockNumber": "0x731f34",
          "transactionHash": "0x415482102478e6f19210801930fb57152022a5211e6452d6aef02b595b22a804",
          "transactionIndex": "0x5b",
          "logIndex": "0x7b",
          "removed": false
        },
        {
          "address": "0x8aafd3ede9adb0ff97c7aebce82a919afb1c8764",
          "topics": [
            "0x4afcb4a87cdbd9974efdb92ee48bc8d7cd0ae4bf217004db3d080cbaee652ca7"
          ],
          "data": "0x000000000000000000000000000000000000000000000000000000006790735800000000000000000000000000000000000000000000000000181cfd3788f0cf0000000000000000000000000000000000000000000000000000000001f2ae59",
          "blockHash": "0x2c36030306d880a81e7a2eab9b806a1545587f8536dd920742a976f0f481a7ee",
          "blockNumber": "0x731f34",
          "transactionHash": "0x415482102478e6f19210801930fb57152022a5211e6452d6aef02b595b22a804",
          "transactionIndex": "0x5b",
          "logIndex": "0x7c",
          "removed": false
        }
      ],
      "logsBloom": "0x00000000000000000000000000000000000000000600000000000000000000000000000000000000000000000000000000000000000000004000000000000000000000000000004000000008000000000000000000000000000000000000000000000000020000000000000000000800020000000000000000000010000000000000000000000000000000000000000000000000000000000000010000000000000000000000000000000000000000004000000000000000000000000000000000000002000000800000000000000000000000000000080000000000000020000000000000000000000000000000000000000000000000000000000000000000",
      "type": "0x2",
      "transactionHash": "0x415482102478e6f19210801930fb57152022a5211e6452d6aef02b595b22a804",
      "transactionIndex": "0x5b",
      "blockHash": "0x2c36030306d880a81e7a2eab9b806a1545587f8536dd920742a976f0f481a7ee",
      "blockNumber": "0x731f34",
      "gasUsed": "0xfd0f",
      "effectiveGasPrice": "0x438eb329",
      "from": "0xc77f7fed3b5cc8249adc428c5f44c9063b9734b4",
      "to": "0x8aafd3ede9adb0ff97c7aebce82a919afb1c8764",
      "contractAddress": null
    }
  ],
  "libraries": [],
  "pending": [],
  "returns": {},
  "timestamp": 1737519962,
  "chain": 11155111,
  "commit": "1d2fb70"
}