{
  "transactions": [
    {
      "hash": "0xb987b92c52800cc19145cb065778584373c0219b08d6b132b301454e1a30d1a6",
      "transactionType": "CALL",
      "contractName": null,
      "contractAddress": "0x8aafd3ede9adb0ff97c7aebce82a919afb1c8764",
      "function": "buy(address)",
      "arguments": [
        "0xC77f7fed3b5Cc8249aDc428c5F44C9063B9734b4"
      ],
      "transaction": {
        "from": "0xc77f7fed3b5cc8249adc428c5f44c9063b9734b4",
        "to": "0x8aafd3ede9adb0ff97c7aebce82a919afb1c8764",
        "gas": "0x156ea",
        "value": "0xde0b6b3a7640000",
        "input": "0xf088d547000000000000000000000000c77f7fed3b5cc8249adc428c5f44c9063b9734b4",
        "nonce": "0x1489",
        "chainId": "0xaa36a7"
      },
      "additionalContracts": [],
      "isFixedGasLimit": false
    }
  ],
  "receipts": [
    {
      "status": "0x1",
      "cumulativeGasUsed": "0x14d04ea",
      "logs": [
        {
          "address": "0x8aafd3ede9adb0ff97c7aebce82a919afb1c8764",
          "topics": [
            "0xddf252ad1be2c89b69c2b068fc378daa952ba7f163c4a11628f55a4df523b3ef",
            "0x0000000000000000000000000000000000000000000000000000000000000000",
            "0x000000000000000000000000c77f7fed3b5cc8249adc428c5f44c9063b9734b4"
          ],
          "data": "0x00000000000000000000000000000000000000000000000c2e10193c1b2f4b22",
          "blockHash": "0x9e3b6b0f8557629715266b39c89d52f255597755605b63745a20294b31773045",
          "blockNumber": "0x731bd8",
          "transactionHash": "0xb987b92c52800cc19145cb065778584373c0219b08d6b132b301454e1a30d1a6",
          "transactionIndex": "0xa1",
          "logIndex": "0x143",
          "removed": false
        },
        {
          "address": "0x8aafd3ede9adb0ff97c7aebce82a919afb1c8764",
          "topics": [
            "0xddf252ad1be2c89b69c2b068fc378daa952ba7f163c4a11628f55a4df523b3ef",
            "0x0000000000000000000000000000000000000000000000000000000000000000",
            "0x000000000000000000000000c77f7fed3b5cc8249adc428c5f44c9063b9734b4"
          ],
          "data": "0x0000000000000000000000000000000000000000000000000975483d677e5688",
          "blockHash": "0x9e3b6b0f8557629715266b39c89d52f255597755605b63745a20294b31773045",
          "blockNumber": "0x731bd8",
          "transactionHash": "0xb987b92c52800cc19145cb065778584373c0219b08d6b132b301454e1a30d1a6",
          "transactionIndex": "0xa1",
          "logIndex": "0x144",
          "removed": false
        },
        {
          "address": "0x8aafd3ede9adb0ff97c7aebce82a919afb1c8764",
          "topics": [
            "0x4afcb4a87cdbd9974efdb92ee48bc8d7cd0ae4bf217004db3d080cbaee652ca7"
          ],
          "data": "0x0000000000000000000000000000000000000000000000000000000067904afc000000000000000000000000000000000000000000000000000faddb863420ff0000000000000000000000000000000000000000000000000de0b6b3a7640000",
          "blockHash": "0x9e3b6b0f8557629715266b39c89d52f255597755605b63745a20294b31773045",
          "blockNumber": "0x731bd8",
          "transactionHash": "0xb987b92c52800cc19145cb065778584373c0219b08d6b132b301454e1a30d1a6",
          "transactionIndex": "0xa1",
          "logIndex": "0x145",
          "removed": false
        }
      ],
      "logsBloom": "0x00000000000000000000000000000000000000000600000000000000000000000000000000000000000000000000000000000000000000004000000000000000000000000000004000000008000000000000000000000000000000000000000000000000020000000000000000000800020000000000000000000010000000000000000000000000000000000000000000000000000000000000010000000000000000000000000000000000000000004000000000000000000000000000000000000002000000800000000000000000000000000000080000000000000020000000000000000000000000000000000000000000000000000000000000000000",
      "type": "0x2",
      "transactionHash": "0xb987b92c52800cc19145cb065778584373c0219b08d6b132b301454e1a30d1a6",
      "transactionIndex": "0xa1",
      "blockHash": "0x9e3b6b0f8557629715266b39c89d52f255597755605b63745a20294b31773045",
      "blockNumber": "0x731bd8",
      "gasUsed": "0xf844",
      "effectiveGasPrice": "0x1123c2c17",
      "from": "0xc77f7fed3b5cc8249adc428c5f44c9063b9734b4",
      "to": "0x8aafd3ede9adb0ff97c7aebce82a919afb1c8764",
      "contractAddress": null
    }
  ],
  "libraries": [],
  "pending": [],
  "returns": {},
  "timestamp": 1737509630,
  "chain": 11155111,
  "commit": "1d2fb70"
}