{
  "transactions": [
    {
      "hash": "0x7f1b0e7125e81d52050e52548bb0c6f0c9ab7d5d25956a77f6ced83a785facd7",
      "transactionType": "CALL",
      "contractName": null,
      "contractAddress": "0x8aafd3ede9adb0ff97c7aebce82a919afb1c8764",
      "function": "sell(uint256)",
      "arguments": [
        "967686193237"
      ],
      "transaction": {
        "from": "0xc77f7fed3b5cc8249adc428c5f44c9063b9734b4",
        "to": "0x8aafd3ede9adb0ff97c7aebce82a919afb1c8764",
        "gas": "0x1722a",
        "value": "0x0",
        "input": "0xe4849b32000000000000000000000000000000000000000000000000000000e14e978055",
        "nonce": "0x144f",
        "chainId": "0xaa36a7"
      },
      "additionalContracts": [],
      "isFixedGasLimit": false
    }
  ],
  "receipts": [
    {
      "status": "0x1",
      "cumulativeGasUsed": "0x121aabe",
      "logs": [
        {
          "address": "0x8aafd3ede9adb0ff97c7aebce82a919afb1c8764",
          "topics": [
            "0xddf252ad1be2c89b69c2b068fc378daa952ba7f163c4a11628f55a4df523b3ef",
            "0x000000000000000000000000c77f7fed3b5cc8249adc428c5f44c9063b9734b4",
            "0x0000000000000000000000000000000000000000000000000000000000000000"
          ],
          "data": "0x000000000000000000000000000000000000000000000000000000df8129becc",
          "blockHash": "0xdd26a0f391ac8f23c87dbdf9672f1dcf442017e88bf09093898d0d2c5d45fe2c",
          "blockNumber": "0x731b94",
          "transactionHash": "0x7f1b0e7125e81d52050e52548bb0c6f0c9ab7d5d25956a77f6ced83a785facd7",
          "transactionIndex": "0x87",
          "logIndex": "0x92",
          "removed": false
        },
        {
          "address": "0x8aafd3ede9adb0ff97c7aebce82a919afb1c8764",
          "topics": [
            "0xddf252ad1be2c89b69c2b068fc378daa952ba7f163c4a11628f55a4df523b3ef",
            "0x000000000000000000000000c77f7fed3b5cc8249adc428c5f44c9063b9734b4",
            "0x000000000000000000000000c77f7fed3b5cc8249adc428c5f44c9063b9734b4"
          ],
          "data": "0x00000000000000000000000000000000000000000000000000000001cd6dc189",
          "blockHash": "0xdd26a0f391ac8f23c87dbdf9672f1dcf442017e88bf09093898d0d2c5d45fe2c",
          "blockNumber": "0x731b94",
          "transactionHash": "0x7f1b0e7125e81d52050e52548bb0c6f0c9ab7d5d25956a77f6ced83a785facd7",
          "transactionIndex": "0x87",
          "logIndex": "0x93",
          "removed": false
        },
        {
          "address": "0x8aafd3ede9adb0ff97c7aebce82a919afb1c8764",
          "topics": [
            "0x4afcb4a87cdbd9974efdb92ee48bc8d7cd0ae4bf217004db3d080cbaee652ca7"
          ],
          "data": "0x00000000000000000000000000000000000000000000000000000000679047cc000000000000000000000000000000000000000000000000000f091c505642f500000000000000000000000000000000000000000000000000000000f41a9e9f",
          "blockHash": "0xdd26a0f391ac8f23c87dbdf9672f1dcf442017e88bf09093898d0d2c5d45fe2c",
          "blockNumber": "0x731b94",
          "transactionHash": "0x7f1b0e7125e81d52050e52548bb0c6f0c9ab7d5d25956a77f6ced83a785facd7",
          "transactionIndex": "0x87",
          "logIndex": "0x94",
          "removed": false
        }
      ],
      "logsBloom": "0x00000000000000000000000000000000000000000600000000000000000000000000000000000000000000000000000000000000000000004000000000000000000000000000004000000008000000000000000000000000000000000000000000000000020000000000000000000800020000000000000000000010000000000000000000000000000000000000000000000000000000000000010000000000000000000000000000000000000000004000000000000000000000000000000000000002000000800000000000000000000000000000080000000000000020000000000000000000000000000000000000000000000000000000000000000000",
      "type": "0x2",
      "transactionHash": "0x7f1b0e7125e81d52050e52548bb0c6f0c9ab7d5d25956a77f6ced83a785facd7",
      "transactionIndex": "0x87",
      "blockHash": "0xdd26a0f391ac8f23c87dbdf9672f1dcf442017e88bf09093898d0d2c5d45fe2c",
      "blockNumber": "0x731b94",
      "gasUsed": "0xfd1b",
      "effectiveGasPrice": "0x1163a9a5e",
      "from": "0xc77f7fed3b5cc8249adc428c5f44c9063b9734b4",
      "to": "0x8aafd3ede9adb0ff97c7aebce82a919afb1c8764",
      "contractAddress": null
    }
  ],
  "libraries": [],
  "pending": [],
  "returns": {},
  "timestamp": 1737508813,
  "chain": 11155111,
  "commit": "1d2fb70"
}