{
  "transactions": [
    {
      "hash": "0xeff7664fdfa496f58388b41aa9771b080c356b6b81f69252a7f1cd5cbe07f87f",
      "transactionType": "CALL",
      "contractName": null,
      "contractAddress": "0x270e88f8683660553e8ba4eb2ad7c91a1710d769",
      "function": "sell(uint256)",
      "arguments": [
        "755709536685149299159"
      ],
      "transaction": {
        "from": "0xc77f7fed3b5cc8249adc428c5f44c9063b9734b4",
        "to": "0x270e88f8683660553e8ba4eb2ad7c91a1710d769",
        "gas": "0x16fec",
        "value": "0x0",
        "input": "0xe4849b32000000000000000000000000000000000000000000000028f7939bb1c55aa1d7",
        "nonce": "0x68e",
        "chainId": "0xaa36a7"
      },
      "additionalContracts": [],
      "isFixedGasLimit": false
    }
  ],
  "receipts": [
    {
      "status": "0x1",
      "cumulativeGasUsed": "0x672d0a",
      "logs": [
        {
          "address": "0x270e88f8683660553e8ba4eb2ad7c91a1710d769",
          "topics": [
            "0xddf252ad1be2c89b69c2b068fc378daa952ba7f163c4a11628f55a4df523b3ef",
            "0x000000000000000000000000c77f7fed3b5cc8249adc428c5f44c9063b9734b4",
            "0x0000000000000000000000000000000000000000000000000000000000000000"
          ],
          "data": "0x000000000000000000000000000000000000000000000028f7939bb1c55aa1d7",
          "blockHash": "0x4685ef823d82db609d924787f957cd26f458a03c7433085c23603da7987096e4",
          "blockNumber": "0x725391",
          "transactionHash": "0xeff7664fdfa496f58388b41aa9771b080c356b6b81f69252a7f1cd5cbe07f87f",
          "transactionIndex": "0x3e",
          "logIndex": "0x73",
          "removed": false
        },
        {
          "address": "0x270e88f8683660553e8ba4eb2ad7c91a1710d769",
          "topics": [
            "0x4afcb4a87cdbd9974efdb92ee48bc8d7cd0ae4bf217004db3d080cbaee652ca7"
          ],
          "data": "0x000000000000000000000000000000000000000000000000000000006786dcd40000000000000000000000000000000000000000000000000004ab5ea87bc9cc0000000000000000000000000000000000000000000000000dc82a2014a89322",
          "blockHash": "0x4685ef823d82db609d924787f957cd26f458a03c7433085c23603da7987096e4",
          "blockNumber": "0x725391",
          "transactionHash": "0xeff7664fdfa496f58388b41aa9771b080c356b6b81f69252a7f1cd5cbe07f87f",
          "transactionIndex": "0x3e",
          "logIndex": "0x74",
          "removed": false
        }
      ],
      "logsBloom": "0x00000000000000000000000000000000000000000000000000000000000000000000000000000000000000000000000020000000000000004000000000000000000000000000000000000008000000000000000000000000000000000000000000000000020000000000000000000800020000000000000000000010000000000000000000010000000000000000000000000000000000000000010000000000000000000000000000000000000000004000000000000000000000000000000000000002000000800000000000000000000000000000080000008000000020000000000000000000000000000000000000000000000000000000000000000000",
      "type": "0x2",
      "transactionHash": "0xeff7664fdfa496f58388b41aa9771b080c356b6b81f69252a7f1cd5cbe07f87f",
      "transactionIndex": "0x3e",
      "blockHash": "0x4685ef823d82db609d924787f957cd26f458a03c7433085c23603da7987096e4",
      "blockNumber": "0x725391",
      "gasUsed": "0xfb93",
      "effectiveGasPrice": "0x1cfabcb77",
      "from": "0xc77f7fed3b5cc8249adc428c5f44c9063b9734b4",
      "to": "0x270e88f8683660553e8ba4eb2ad7c91a1710d769",
      "contractAddress": null
    }
  ],
  "libraries": [],
  "pending": [],
  "returns": {},
  "timestamp": 1736891606,
  "chain": 11155111,
  "commit": "51a374b"
}