{
  "transactions": [
    {
      "hash": "0x8595467bca71f8db0523e3bfab393383b7b9196996d0f807c070515cf8847b96",
      "transactionType": "CALL",
      "contractName": null,
      "contractAddress": "0x5eb9cc76c3506942c1c0ead70e877dd5e4f00cb0",
      "function": "buy(address)",
      "arguments": [
        "0xC77f7fed3b5Cc8249aDc428c5F44C9063B9734b4"
      ],
      "transaction": {
        "from": "0xc77f7fed3b5cc8249adc428c5f44c9063b9734b4",
        "to": "0x5eb9cc76c3506942c1c0ead70e877dd5e4f00cb0",
        "gas": "0x1b30c",
        "value": "0xde0b6b3a7640000",
        "input": "0xf088d547000000000000000000000000c77f7fed3b5cc8249adc428c5f44c9063b9734b4",
        "nonce": "0x308",
        "chainId": "0xaa36a7"
      },
      "additionalContracts": [],
      "isFixedGasLimit": false
    }
  ],
  "receipts": [
    {
      "status": "0x1",
      "cumulativeGasUsed": "0x1d0de22",
      "logs": [
        {
          "address": "0x5eb9cc76c3506942c1c0ead70e877dd5e4f00cb0",
          "topics": [
            "0xddf252ad1be2c89b69c2b068fc378daa952ba7f163c4a11628f55a4df523b3ef",
            "0x0000000000000000000000000000000000000000000000000000000000000000",
            "0x000000000000000000000000c77f7fed3b5cc8249adc428c5f44c9063b9734b4"
          ],
          "data": "0x000000000000000000000000000000000000000000000035758e340c6a597a1c",
          "blockHash": "0x2de1ba8bb1d03fea2bd5040ff9650bf06d1000374f0ee39340a6b568f7ee6a9d",
          "blockNumber": "0x724eec",
          "transactionHash": "0x8595467bca71f8db0523e3bfab393383b7b9196996d0f807c070515cf8847b96",
          "transactionIndex": "0xd0",
          "logIndex": "0x123",
          "removed": false
        },
        {
          "address": "0x5eb9cc76c3506942c1c0ead70e877dd5e4f00cb0",
          "topics": [
            "0xddf252ad1be2c89b69c2b068fc378daa952ba7f163c4a11628f55a4df523b3ef",
            "0x0000000000000000000000000000000000000000000000000000000000000000",
            "0x000000000000000000000000c77f7fed3b5cc8249adc428c5f44c9063b9734b4"
          ],
          "data": "0x00000000000000000000000000000000000000000000000029834cf701ae78a7",
          "blockHash": "0x2de1ba8bb1d03fea2bd5040ff9650bf06d1000374f0ee39340a6b568f7ee6a9d",
          "blockNumber": "0x724eec",
          "transactionHash": "0x8595467bca71f8db0523e3bfab393383b7b9196996d0f807c070515cf8847b96",
          "transactionIndex": "0xd0",
          "logIndex": "0x124",
          "removed": false
        },
        {
          "address": "0x5eb9cc76c3506942c1c0ead70e877dd5e4f00cb0",
          "topics": [
            "0x4afcb4a87cdbd9974efdb92ee48bc8d7cd0ae4bf217004db3d080cbaee652ca7"
          ],
          "data": "0x000000000000000000000000000000000000000000000000000000006786a4c40000000000000000000000000000000000000000000000000003910c15ab38b30000000000000000000000000000000000000000000000000de0b6b3a7640000",
          "blockHash": "0x2de1ba8bb1d03fea2bd5040ff9650bf06d1000374f0ee39340a6b568f7ee6a9d",
          "blockNumber": "0x724eec",
          "transactionHash": "0x8595467bca71f8db0523e3bfab393383b7b9196996d0f807c070515cf8847b96",
          "transactionIndex": "0xd0",
          "logIndex": "0x125",
          "removed": false
        }
      ],
      "logsBloom": "0x00000000000000000000000000000000000000000000000000000000000000000000000000000000000000000000000000000000000000004000000000000000000000000000000000000008000000000000000000000000000000000000000000000000020000000000000004000800020000000000000000000010000000000000000000000000000000000000000000000000000000000000010000000000000000000000000000000000000000004000000000000000000000000000020000000002000000800000008000000000000000000000080000000000000020000000000000000000000000000000000000000000000000000000000000000000",
      "type": "0x2",
      "transactionHash": "0x8595467bca71f8db0523e3bfab393383b7b9196996d0f807c070515cf8847b96",
      "transactionIndex": "0xd0",
      "blockHash": "0x2de1ba8bb1d03fea2bd5040ff9650bf06d1000374f0ee39340a6b568f7ee6a9d",
      "blockNumber": "0x724eec",
      "gasUsed": "0x13af8",
      "effectiveGasPrice": "0x5a0de3744",
      "from": "0xc77f7fed3b5cc8249adc428c5f44c9063b9734b4",
      "to": "0x5eb9cc76c3506942c1c0ead70e877dd5e4f00cb0",
      "contractAddress": null
    }
  ],
  "libraries": [],
  "pending": [],
  "returns": {},
  "timestamp": 1736877253,
  "chain": 11155111,
  "commit": "51a374b"
}