{
  "transactions": [
    {
      "hash": "0xea16a47416df80eff1e3cc2537a89bb02f13a84e6da08ac681c9210eebc78413",
      "transactionType": "CALL",
      "contractName": null,
      "contractAddress": "0xbf4a322f1496e5c3d34a9bcdb4c60567b38c7de2",
      "function": "sell(uint256)",
      "arguments": [
        "983435047516190503541"
      ],
      "transaction": {
        "from": "0xc77f7fed3b5cc8249adc428c5f44c9063b9734b4",
        "to": "0xbf4a322f1496e5c3d34a9bcdb4c60567b38c7de2",
        "gas": "0x16fea",
        "value": "0x0",
        "input": "0xe4849b320000000000000000000000000000000000000000000000354fe72540f7ef7275",
        "nonce": "0xb19",
        "chainId": "0xaa36a7"
      },
      "additionalContracts": [],
      "isFixedGasLimit": false
    }
  ],
  "receipts": [
    {
      "status": "0x1",
      "cumulativeGasUsed": "0x988bed",
      "logs": [
        {
          "address": "0xbf4a322f1496e5c3d34a9bcdb4c60567b38c7de2",
          "topics": [
            "0xddf252ad1be2c89b69c2b068fc378daa952ba7f163c4a11628f55a4df523b3ef",
            "0x000000000000000000000000c77f7fed3b5cc8249adc428c5f44c9063b9734b4",
            "0x0000000000000000000000000000000000000000000000000000000000000000"
          ],
          "data": "0x0000000000000000000000000000000000000000000000354fe72540f7ef7275",
          "blockHash": "0xe7ce76876311f81d3fd5f77dc54e7d0bef4c7cc1de5c55c93d126ffd33a7c327",
          "blockNumber": "0x725b13",
          "transactionHash": "0xea16a47416df80eff1e3cc2537a89bb02f13a84e6da08ac681c9210eebc78413",
          "transactionIndex": "0x45",
          "logIndex": "0x75",
          "removed": false
        },
        {
          "address": "0xbf4a322f1496e5c3d34a9bcdb4c60567b38c7de2",
          "topics": [
            "0x4afcb4a87cdbd9974efdb92ee48bc8d7cd0ae4bf217004db3d080cbaee652ca7"
          ],
          "data": "0x00000000000000000000000000000000000000000000000000000000678737400000000000000000000000000000000000000000000000000003965e584aaed20000000000000000000000000000000000000000000000000dc7e3ea0d893d31",
          "blockHash": "0xe7ce76876311f81d3fd5f77dc54e7d0bef4c7cc1de5c55c93d126ffd33a7c327",
          "blockNumber": "0x725b13",
          "transactionHash": "0xea16a47416df80eff1e3cc2537a89bb02f13a84e6da08ac681c9210eebc78413",
          "transactionIndex": "0x45",
          "logIndex": "0x76",
          "removed": false
        }
      ],
      "logsBloom": "0x00000000000000000000000000000000000000000000000000000000000000000000000000000000000000000000000000000000000000004000000000000000000000000000000000000008000000000000001000000000000000000000000000000000020000000000000000000800020000000000000000000010000000000000000000000000000000000000000000000000000008000000010000000000000000000000000000000000000000004000000000000000000000000000000000000002000000800000000000001000000000000000080000000000000020000000000000000000000000000000000000000000000000000000000000000000",
      "type": "0x2",
      "transactionHash": "0xea16a47416df80eff1e3cc2537a89bb02f13a84e6da08ac681c9210eebc78413",
      "transactionIndex": "0x45",
      "blockHash": "0xe7ce76876311f81d3fd5f77dc54e7d0bef4c7cc1de5c55c93d126ffd33a7c327",
      "blockNumber": "0x725b13",
      "gasUsed": "0xfb91",
      "effectiveGasPrice": "0x812f242a",
      "from": "0xc77f7fed3b5cc8249adc428c5f44c9063b9734b4",
      "to": "0xbf4a322f1496e5c3d34a9bcdb4c60567b38c7de2",
      "contractAddress": null
    }
  ],
  "libraries": [],
  "pending": [],
  "returns": {},
  "timestamp": 1736914753,
  "chain": 11155111,
  "commit": "51a374b"
}