{
  "transactions": [
    {
      "hash": "0xd7b6330bd52f75e4ae5baca4af6e33a5c8399938e5173240c33e2e3619fd75b2",
      "transactionType": "CALL",
      "contractName": null,
      "contractAddress": "0x8aafd3ede9adb0ff97c7aebce82a919afb1c8764",
      "function": "sell(uint256)",
      "arguments": [
        "11582"
      ],
      "transaction": {
        "from": "0xc77f7fed3b5cc8249adc428c5f44c9063b9734b4",
        "to": "0x8aafd3ede9adb0ff97c7aebce82a919afb1c8764",
        "gas": "0x14e4c",
        "value": "0x0",
        "input": "0xe4849b320000000000000000000000000000000000000000000000000000000000002d3e",
        "nonce": "0x117f",
        "chainId": "0xaa36a7"
      },
      "additionalContracts": [],
      "isFixedGasLimit": false
    }
  ],
  "receipts": [
    {
      "status": "0x1",
      "cumulativeGasUsed": "0xa470ec",
      "logs": [
        {
          "address": "0x8aafd3ede9adb0ff97c7aebce82a919afb1c8764",
          "topics": [
            "0xddf252ad1be2c89b69c2b068fc378daa952ba7f163c4a11628f55a4df523b3ef",
            "0x000000000000000000000000c77f7fed3b5cc8249adc428c5f44c9063b9734b4",
            "0x0000000000000000000000000000000000000000000000000000000000000000"
          ],
          "data": "0x0000000000000000000000000000000000000000000000000000000000002ce2",
          "blockHash": "0xbae6c66d370714ce18c455075d8eecfb56cdee9808233cdfa1d2ed02b7df9998",
          "blockNumber": "0x731841",
          "transactionHash": "0xd7b6330bd52f75e4ae5baca4af6e33a5c8399938e5173240c33e2e3619fd75b2",
          "transactionIndex": "0x7d",
          "logIndex": "0x80",
          "removed": false
        },
        {
          "address": "0x8aafd3ede9adb0ff97c7aebce82a919afb1c8764",
          "topics": [
            "0xddf252ad1be2c89b69c2b068fc378daa952ba7f163c4a11628f55a4df523b3ef",
            "0x000000000000000000000000c77f7fed3b5cc8249adc428c5f44c9063b9734b4",
            "0x000000000000000000000000c77f7fed3b5cc8249adc428c5f44c9063b9734b4"
          ],
          "data": "0x000000000000000000000000000000000000000000000000000000000000005c",
          "blockHash": "0xbae6c66d370714ce18c455075d8eecfb56cdee9808233cdfa1d2ed02b7df9998",
          "blockNumber": "0x731841",
          "transactionHash": "0xd7b6330bd52f75e4ae5baca4af6e33a5c8399938e5173240c33e2e3619fd75b2",
          "transactionIndex": "0x7d",
          "logIndex": "0x81",
          "removed": false
        },
        {
          "address": "0x8aafd3ede9adb0ff97c7aebce82a919afb1c8764",
          "topics": [
            "0x4afcb4a87cdbd9974efdb92ee48bc8d7cd0ae4bf217004db3d080cbaee652ca7"
          ],
          "data": "0x0000000000000000000000000000000000000000000000000000000067901fd000000000000000000000000000000000000000000000000000051d974b7c88490000000000000000000000000000000000000000000000000000000000000010",
          "blockHash": "0xbae6c66d370714ce18c455075d8eecfb56cdee9808233cdfa1d2ed02b7df9998",
          "blockNumber": "0x731841",
          "transactionHash": "0xd7b6330bd52f75e4ae5baca4af6e33a5c8399938e5173240c33e2e3619fd75b2",
          "transactionIndex": "0x7d",
          "logIndex": "0x82",
          "removed": false
        }
      ],
      "logsBloom": "0x00000000000000000000000000000000000000000600000000000000000000000000000000000000000000000000000000000000000000004000000000000000000000000000004000000008000000000000000000000000000000000000000000000000020000000000000000000800020000000000000000000010000000000000000000000000000000000000000000000000000000000000010000000000000000000000000000000000000000004000000000000000000000000000000000000002000000800000000000000000000000000000080000000000000020000000000000000000000000000000000000000000000000000000000000000000",
      "type": "0x2",
      "transactionHash": "0xd7b6330bd52f75e4ae5baca4af6e33a5c8399938e5173240c33e2e3619fd75b2",
      "transactionIndex": "0x7d",
      "blockHash": "0xbae6c66d370714ce18c455075d8eecfb56cdee9808233cdfa1d2ed02b7df9998",
      "blockNumber": "0x731841",
      "gasUsed": "0xf207",
      "effectiveGasPrice": "0x4b20a9c9",
      "from": "0xc77f7fed3b5cc8249adc428c5f44c9063b9734b4",
      "to": "0x8aafd3ede9adb0ff97c7aebce82a919afb1c8764",
      "contractAddress": null
    }
  ],
  "libraries": [],
  "pending": [],
  "returns": {},
  "timestamp": 1737498578,
  "chain": 11155111,
  "commit": "1d2fb70"
}