{
  "transactions": [
    {
      "hash": "0xc86ab3892250f90f3689280f2706d7329b1a28c0c73e083ac082ddb875a28bd4",
      "transactionType": "CALL",
      "contractName": null,
      "contractAddress": "0x5eb9cc76c3506942c1c0ead70e877dd5e4f00cb0",
      "function": "buy(address)",
      "arguments": [
        "0xC77f7fed3b5Cc8249aDc428c5F44C9063B9734b4"
      ],
      "transaction": {
        "from": "0xc77f7fed3b5cc8249adc428c5f44c9063b9734b4",
        "to": "0x5eb9cc76c3506942c1c0ead70e877dd5e4f00cb0",
        "gas": "0x1b30c",
        "value": "0xde0b6b3a7640000",
        "input": "0xf088d547000000000000000000000000c77f7fed3b5cc8249adc428c5f44c9063b9734b4",
        "nonce": "0x400",
        "chainId": "0xaa36a7"
      },
      "additionalContracts": [],
      "isFixedGasLimit": false
    }
  ],
  "receipts": [
    {
      "status": "0x1",
      "cumulativeGasUsed": "0x17d8cf2",
      "logs": [
        {
          "address": "0x5eb9cc76c3506942c1c0ead70e877dd5e4f00cb0",
          "topics": [
            "0xddf252ad1be2c89b69c2b068fc378daa952ba7f163c4a11628f55a4df523b3ef",
            "0x0000000000000000000000000000000000000000000000000000000000000000",
            "0x000000000000000000000000c77f7fed3b5cc8249adc428c5f44c9063b9734b4"
          ],
          "data": "0x0000000000000000000000000000000000000000000000357502386bec8bc214",
          "blockHash": "0x509a9de76708b5cf6e631e916255f1cb0636f2bb6118493545490e41207ad937",
          "blockNumber": "0x72500a",
          "transactionHash": "0xc86ab3892250f90f3689280f2706d7329b1a28c0c73e083ac082ddb875a28bd4",
          "transactionIndex": "0xb2",
          "logIndex": "0x197",
          "removed": false
        },
        {
          "address": "0x5eb9cc76c3506942c1c0ead70e877dd5e4f00cb0",
          "topics": [
            "0xddf252ad1be2c89b69c2b068fc378daa952ba7f163c4a11628f55a4df523b3ef",
            "0x0000000000000000000000000000000000000000000000000000000000000000",
            "0x000000000000000000000000c77f7fed3b5cc8249adc428c5f44c9063b9734b4"
          ],
          "data": "0x0000000000000000000000000000000000000000000000002982e0436b7facb1",
          "blockHash": "0x509a9de76708b5cf6e631e916255f1cb0636f2bb6118493545490e41207ad937",
          "blockNumber": "0x72500a",
          "transactionHash": "0xc86ab3892250f90f3689280f2706d7329b1a28c0c73e083ac082ddb875a28bd4",
          "transactionIndex": "0xb2",
          "logIndex": "0x198",
          "removed": false
        },
        {
          "address": "0x5eb9cc76c3506942c1c0ead70e877dd5e4f00cb0",
          "topics": [
            "0x4afcb4a87cdbd9974efdb92ee48bc8d7cd0ae4bf217004db3d080cbaee652ca7"
          ],
          "data": "0x000000000000000000000000000000000000000000000000000000006786b244000000000000000000000000000000000000000000000000000391156c9403ff0000000000000000000000000000000000000000000000000de0b6b3a7640000",
          "blockHash": "0x509a9de76708b5cf6e631e916255f1cb0636f2bb6118493545490e41207ad937",
          "blockNumber": "0x72500a",
          "transactionHash": "0xc86ab3892250f90f3689280f2706d7329b1a28c0c73e083ac082ddb875a28bd4",
          "transactionIndex": "0xb2",
          "logIndex": "0x199",
          "removed": false
        }
      ],
      "logsBloom": "0x00000000000000000000000000000000000000000000000000000000000000000000000000000000000000000000000000000000000000004000000000000000000000000000000000000008000000000000000000000000000000000000000000000000020000000000000004000800020000000000000000000010000000000000000000000000000000000000000000000000000000000000010000000000000000000000000000000000000000004000000000000000000000000000020000000002000000800000008000000000000000000000080000000000000020000000000000000000000000000000000000000000000000000000000000000000",
      "type": "0x2",
      "transactionHash": "0xc86ab3892250f90f3689280f2706d7329b1a28c0c73e083ac082ddb875a28bd4",
      "transactionIndex": "0xb2",
      "blockHash": "0x509a9de76708b5cf6e631e916255f1cb0636f2bb6118493545490e41207ad937",
      "blockNumber": "0x72500a",
      "gasUsed": "0x13af8",
      "effectiveGasPrice": "0x334f5f78e",
      "from": "0xc77f7fed3b5cc8249adc428c5f44c9063b9734b4",
      "to": "0x5eb9cc76c3506942c1c0ead70e877dd5e4f00cb0",
      "contractAddress": null
    }
  ],
  "libraries": [],
  "pending": [],
  "returns": {},
  "timestamp": 1736880709,
  "chain": 11155111,
  "commit": "51a374b"
}