{
  "transactions": [
    {
      "hash": "0x0de68c6809c08c54d1f1cf59f8f7df8f40b952d4212adaa2f5b0d3f77c2177ad",
      "transactionType": "CALL",
      "contractName": null,
      "contractAddress": "0x5eb9cc76c3506942c1c0ead70e877dd5e4f00cb0",
      "function": "sell(uint256)",
      "arguments": [
        "989103504863753536054"
      ],
      "transaction": {
        "from": "0xc77f7fed3b5cc8249adc428c5f44c9063b9734b4",
        "to": "0x5eb9cc76c3506942c1c0ead70e877dd5e4f00cb0",
        "gas": "0x16fec",
        "value": "0x0",
        "input": "0xe4849b320000000000000000000000000000000000000000000000359e918d2db9e20236",
        "nonce": "0x3eb",
        "chainId": "0xaa36a7"
      },
      "additionalContracts": [],
      "isFixedGasLimit": false
    }
  ],
  "receipts": [
    {
      "status": "0x1",
      "cumulativeGasUsed": "0xebfd46",
      "logs": [
        {
          "address": "0x5eb9cc76c3506942c1c0ead70e877dd5e4f00cb0",
          "topics": [
            "0xddf252ad1be2c89b69c2b068fc378daa952ba7f163c4a11628f55a4df523b3ef",
            "0x000000000000000000000000c77f7fed3b5cc8249adc428c5f44c9063b9734b4",
            "0x0000000000000000000000000000000000000000000000000000000000000000"
          ],
          "data": "0x0000000000000000000000000000000000000000000000359e918d2db9e20236",
          "blockHash": "0x36eea3a99018ba803ab189cdffc78e7e78166aaf75896eee087eed4afdd5cbf3",
          "blockNumber": "0x724ff1",
          "transactionHash": "0x0de68c6809c08c54d1f1cf59f8f7df8f40b952d4212adaa2f5b0d3f77c2177ad",
          "transactionIndex": "0x79",
          "logIndex": "0xa8",
          "removed": false
        },
        {
          "address": "0x5eb9cc76c3506942c1c0ead70e877dd5e4f00cb0",
          "topics": [
            "0x4afcb4a87cdbd9974efdb92ee48bc8d7cd0ae4bf217004db3d080cbaee652ca7"
          ],
          "data": "0x000000000000000000000000000000000000000000000000000000006786b11800000000000000000000000000000000000000000000000000039114a4cfe84a0000000000000000000000000000000000000000000000000dc7db1331edaf4b",
          "blockHash": "0x36eea3a99018ba803ab189cdffc78e7e78166aaf75896eee087eed4afdd5cbf3",
          "blockNumber": "0x724ff1",
          "transactionHash": "0x0de68c6809c08c54d1f1cf59f8f7df8f40b952d4212adaa2f5b0d3f77c2177ad",
          "transactionIndex": "0x79",
          "logIndex": "0xa9",
          "removed": false
        }
      ],
      "logsBloom": "0x00000000000000000000000000000000000000000000000000000000000000000000000000000000000000000000000000000000000000004000000000000000000000000000000000000008000000000000000000000000000000000000000000000000020000000000000004000800020000000000000000000010000000000000000000000000000000000000000000000000000000000000010000000000000000000000000000000000000000004000000000000000000000000000020000000002000000800000008000000000000000000000080000000000000020000000000000000000000000000000000000000000000000000000000000000000",
      "type": "0x2",
      "transactionHash": "0x0de68c6809c08c54d1f1cf59f8f7df8f40b952d4212adaa2f5b0d3f77c2177ad",
      "transactionIndex": "0x79",
      "blockHash": "0x36eea3a99018ba803ab189cdffc78e7e78166aaf75896eee087eed4afdd5cbf3",
      "blockNumber": "0x724ff1",
      "gasUsed": "0xfb93",
      "effectiveGasPrice": "0x380ff0dfe",
      "from": "0xc77f7fed3b5cc8249adc428c5f44c9063b9734b4",
      "to": "0x5eb9cc76c3506942c1c0ead70e877dd5e4f00cb0",
      "contractAddress": null
    }
  ],
  "libraries": [],
  "pending": [],
  "returns": {},
  "timestamp": 1736880410,
  "chain": 11155111,
  "commit": "51a374b"
}