{
  "transactions": [
    {
      "hash": "0x214e1494ab0e4cee48f0ca4ee65d72843d20a7238f572ea514431e16f1b00225",
      "transactionType": "CALL",
      "contractName": null,
      "contractAddress": "0x8aafd3ede9adb0ff97c7aebce82a919afb1c8764",
      "function": "sell(uint256)",
      "arguments": [
        "765752306333"
      ],
      "transaction": {
        "from": "0xc77f7fed3b5cc8249adc428c5f44c9063b9734b4",
        "to": "0x8aafd3ede9adb0ff97c7aebce82a919afb1c8764",
        "gas": "0x1722a",
        "value": "0x0",
        "input": "0xe4849b32000000000000000000000000000000000000000000000000000000b24a64ea9d",
        "nonce": "0x15a5",
        "chainId": "0xaa36a7"
      },
      "additionalContracts": [],
      "isFixedGasLimit": false
    }
  ],
  "receipts": [
    {
      "status": "0x1",
      "cumulativeGasUsed": "0xe29601",
      "logs": [
        {
          "address": "0x8aafd3ede9adb0ff97c7aebce82a919afb1c8764",
          "topics": [
            "0xddf252ad1be2c89b69c2b068fc378daa952ba7f163c4a11628f55a4df523b3ef",
            "0x000000000000000000000000c77f7fed3b5cc8249adc428c5f44c9063b9734b4",
            "0x0000000000000000000000000000000000000000000000000000000000000000"
          ],
          "data": "0x000000000000000000000000000000000000000000000000000000b0dd414b0b",
          "blockHash": "0xb5bbe1b509f43b4a81b52560aa19fd119c7265b2f946e51f613611bb3a18b02d",
          "blockNumber": "0x731d19",
          "transactionHash": "0x214e1494ab0e4cee48f0ca4ee65d72843d20a7238f572ea514431e16f1b00225",
          "transactionIndex": "0x75",
          "logIndex": "0xe9",
          "removed": false
        },
        {
          "address": "0x8aafd3ede9adb0ff97c7aebce82a919afb1c8764",
          "topics": [
            "0xddf252ad1be2c89b69c2b068fc378daa952ba7f163c4a11628f55a4df523b3ef",
            "0x000000000000000000000000c77f7fed3b5cc8249adc428c5f44c9063b9734b4",
            "0x000000000000000000000000c77f7fed3b5cc8249adc428c5f44c9063b9734b4"
          ],
          "data": "0x000000000000000000000000000000000000000000000000000000016d239f92",
          "blockHash": "0xb5bbe1b509f43b4a81b52560aa19fd119c7265b2f946e51f613611bb3a18b02d",
          "blockNumber": "0x731d19",
          "transactionHash": "0x214e1494ab0e4cee48f0ca4ee65d72843d20a7238f572ea514431e16f1b00225",
          "transactionIndex": "0x75",
          "logIndex": "0xea",
          "removed": false
        },
        {
          "address": "0x8aafd3ede9adb0ff97c7aebce82a919afb1c8764",
          "topics": [
            "0x4afcb4a87cdbd9974efdb92ee48bc8d7cd0ae4bf217004db3d080cbaee652ca7"
          ],
          "data": "0x0000000000000000000000000000000000000000000000000000000067905a140000000000000000000000000000000000000000000000000012f9864555c4b100000000000000000000000000000000000000000000000000000000f3c58c91",
          "blockHash": "0xb5bbe1b509f43b4a81b52560aa19fd119c7265b2f946e51f613611bb3a18b02d",
          "blockNumber": "0x731d19",
          "transactionHash": "0x214e1494ab0e4cee48f0ca4ee65d72843d20a7238f572ea514431e16f1b00225",
          "transactionIndex": "0x75",
          "logIndex": "0xeb",
          "removed": false
        }
      ],
      "logsBloom": "0x00000000000000000000000000000000000000000600000000000000000000000000000000000000000000000000000000000000000000004000000000000000000000000000004000000008000000000000000000000000000000000000000000000000020000000000000000000800020000000000000000000010000000000000000000000000000000000000000000000000000000000000010000000000000000000000000000000000000000004000000000000000000000000000000000000002000000800000000000000000000000000000080000000000000020000000000000000000000000000000000000000000000000000000000000000000",
      "type": "0x2",
      "transactionHash": "0x214e1494ab0e4cee48f0ca4ee65d72843d20a7238f572ea514431e16f1b00225",
      "transactionIndex": "0x75",
      "blockHash": "0xb5bbe1b509f43b4a81b52560aa19fd119c7265b2f946e51f613611bb3a18b02d",
      "blockNumber": "0x731d19",
      "gasUsed": "0xfd1b",
      "effectiveGasPrice": "0x532b79ea",
      "from": "0xc77f7fed3b5cc8249adc428c5f44c9063b9734b4",
      "to": "0x8aafd3ede9adb0ff97c7aebce82a919afb1c8764",
      "contractAddress": null
    }
  ],
  "libraries": [],
  "pending": [],
  "returns": {},
  "timestamp": 1737513494,
  "chain": 11155111,
  "commit": "1d2fb70"
}