{
  "transactions": [
    {
      "hash": "0x68d38b7498b68e7034ec942aa068e93209a7e112a59a87cf9e203d8d634bcb4f",
      "transactionType": "CALL",
      "contractName": null,
      "contractAddress": "0x8aafd3ede9adb0ff97c7aebce82a919afb1c8764",
      "function": "sell(uint256)",
      "arguments": [
        "153685526589424603929"
      ],
      "transaction": {
        "from": "0xc77f7fed3b5cc8249adc428c5f44c9063b9734b4",
        "to": "0x8aafd3ede9adb0ff97c7aebce82a919afb1c8764",
        "gas": "0x17270",
        "value": "0x0",
        "input": "0xe4849b3200000000000000000000000000000000000000000000000854d0ac2c19811319",
        "nonce": "0x1700",
        "chainId": "0xaa36a7"
      },
      "additionalContracts": [],
      "isFixedGasLimit": false
    }
  ],
  "receipts": [
    {
      "status": "0x1",
      "cumulativeGasUsed": "0xbfdcae",
      "logs": [
        {
          "address": "0x8aafd3ede9adb0ff97c7aebce82a919afb1c8764",
          "topics": [
            "0xddf252ad1be2c89b69c2b068fc378daa952ba7f163c4a11628f55a4df523b3ef",
            "0x000000000000000000000000c77f7fed3b5cc8249adc428c5f44c9063b9734b4",
            "0x0000000000000000000000000000000000000000000000000000000000000000"
          ],
          "data": "0x00000000000000000000000000000000000000000000000843c0aacb7da6f43a",
          "blockHash": "0xd5af65d4c21a0c4cb579bf96b8f38cc9294e584c68bbd11f6ac7266d72328555",
          "blockNumber": "0x731ec4",
          "transactionHash": "0x68d38b7498b68e7034ec942aa068e93209a7e112a59a87cf9e203d8d634bcb4f",
          "transactionIndex": "0x63",
          "logIndex": "0x7b",
          "removed": false
        },
        {
          "address": "0x8aafd3ede9adb0ff97c7aebce82a919afb1c8764",
          "topics": [
            "0xddf252ad1be2c89b69c2b068fc378daa952ba7f163c4a11628f55a4df523b3ef",
            "0x000000000000000000000000c77f7fed3b5cc8249adc428c5f44c9063b9734b4",
            "0x000000000000000000000000c77f7fed3b5cc8249adc428c5f44c9063b9734b4"
          ],
          "data": "0x000000000000000000000000000000000000000000000000111001609bda1edf",
          "blockHash": "0xd5af65d4c21a0c4cb579bf96b8f38cc9294e584c68bbd11f6ac7266d72328555",
          "blockNumber": "0x731ec4",
          "transactionHash": "0x68d38b7498b68e7034ec942aa068e93209a7e112a59a87cf9e203d8d634bcb4f",
          "transactionIndex": "0x63",
          "logIndex": "0x7c",
          "removed": false
        },
        {
          "address": "0x8aafd3ede9adb0ff97c7aebce82a919afb1c8764",
          "topics": [
            "0x4afcb4a87cdbd9974efdb92ee48bc8d7cd0ae4bf217004db3d080cbaee652ca7"
          ],
          "data": "0x0000000000000000000000000000000000000000000000000000000067906e1800000000000000000000000000000000000000000000000000170f412dab10d10000000000000000000000000000000000000000000000000dcbfbfad21b8bf1",
          "blockHash": "0xd5af65d4c21a0c4cb579bf96b8f38cc9294e584c68bbd11f6ac7266d72328555",
          "blockNumber": "0x731ec4",
          "transactionHash": "0x68d38b7498b68e7034ec942aa068e93209a7e112a59a87cf9e203d8d634bcb4f",
          "transactionIndex": "0x63",
          "logIndex": "0x7d",
          "removed": false
        }
      ],
      "logsBloom": "0x00000000000000000000000000000000000000000600000000000000000000000000000000000000000000000000000000000000000000004000000000000000000000000000004000000008000000000000000000000000000000000000000000000000020000000000000000000800020000000000000000000010000000000000000000000000000000000000000000000000000000000000010000000000000000000000000000000000000000004000000000000000000000000000000000000002000000800000000000000000000000000000080000000000000020000000000000000000000000000000000000000000000000000000000000000000",
      "type": "0x2",
      "transactionHash": "0x68d38b7498b68e7034ec942aa068e93209a7e112a59a87cf9e203d8d634bcb4f",
      "transactionIndex": "0x63",
      "blockHash": "0xd5af65d4c21a0c4cb579bf96b8f38cc9294e584c68bbd11f6ac7266d72328555",
      "blockNumber": "0x731ec4",
      "gasUsed": "0xfd4b",
      "effectiveGasPrice": "0x79c326f4",
      "from": "0xc77f7fed3b5cc8249adc428c5f44c9063b9734b4",
      "to": "0x8aafd3ede9adb0ff97c7aebce82a919afb1c8764",
      "contractAddress": null
    }
  ],
  "libraries": [],
  "pending": [],
  "returns": {},
  "timestamp": 1737518618,
  "chain": 11155111,
  "commit": "1d2fb70"
}