{
  "transactions": [
    {
      "hash": "0xa9b390f1f9e504c68de01415e70bcd860114d20395b39add80506d056936632f",
      "transactionType": "CALL",
      "contractName": null,
      "contractAddress": "0xbf4a322f1496e5c3d34a9bcdb4c60567b38c7de2",
      "function": "buy(address)",
      "arguments": [
        "0xC77f7fed3b5Cc8249aDc428c5F44C9063B9734b4"
      ],
      "transaction": {
        "from": "0xc77f7fed3b5cc8249adc428c5f44c9063b9734b4",
        "to": "0xbf4a322f1496e5c3d34a9bcdb4c60567b38c7de2",
        "gas": "0x1b309",
        "value": "0xde0b6b3a7640000",
        "input": "0xf088d547000000000000000000000000c77f7fed3b5cc8249adc428c5f44c9063b9734b4",
        "nonce": "0x98e",
        "chainId": "0xaa36a7"
      },
      "additionalContracts": [],
      "isFixedGasLimit": false
    }
  ],
  "receipts": [
    {
      "status": "0x1",
      "cumulativeGasUsed": "0xe7f1c0",
      "logs": [
        {
          "address": "0xbf4a322f1496e5c3d34a9bcdb4c60567b38c7de2",
          "topics": [
            "0xddf252ad1be2c89b69c2b068fc378daa952ba7f163c4a11628f55a4df523b3ef",
            "0x0000000000000000000000000000000000000000000000000000000000000000",
            "0x000000000000000000000000c77f7fed3b5cc8249adc428c5f44c9063b9734b4"
          ],
          "data": "0x00000000000000000000000000000000000000000000003570bcaad70ad7bce7",
          "blockHash": "0xcdaec6f43cc3a2aa37acb24c1f109a64149f58c7e39b27ed236df0b5b3ae1443",
          "blockNumber": "0x725933",
          "transactionHash": "0xa9b390f1f9e504c68de01415e70bcd860114d20395b39add80506d056936632f",
          "transactionIndex": "0x79",
          "logIndex": "0xb3",
          "removed": false
        },
        {
          "address": "0xbf4a322f1496e5c3d34a9bcdb4c60567b38c7de2",
          "topics": [
            "0xddf252ad1be2c89b69c2b068fc378daa952ba7f163c4a11628f55a4df523b3ef",
            "0x0000000000000000000000000000000000000000000000000000000000000000",
            "0x000000000000000000000000c77f7fed3b5cc8249adc428c5f44c9063b9734b4"
          ],
          "data": "0x000000000000000000000000000000000000000000000000297f8f15055232c0",
          "blockHash": "0xcdaec6f43cc3a2aa37acb24c1f109a64149f58c7e39b27ed236df0b5b3ae1443",
          "blockNumber": "0x725933",
          "transactionHash": "0xa9b390f1f9e504c68de01415e70bcd860114d20395b39add80506d056936632f",
          "transactionIndex": "0x79",
          "logIndex": "0xb4",
          "removed": false
        },
        {
          "address": "0xbf4a322f1496e5c3d34a9bcdb4c60567b38c7de2",
          "topics": [
            "0x4afcb4a87cdbd9974efdb92ee48bc8d7cd0ae4bf217004db3d080cbaee652ca7"
          ],
          "data": "0x000000000000000000000000000000000000000000000000000000006787209000000000000000000000000000000000000000000000000000039160b622e4a80000000000000000000000000000000000000000000000000de0b6b3a7640000",
          "blockHash": "0xcdaec6f43cc3a2aa37acb24c1f109a64149f58c7e39b27ed236df0b5b3ae1443",
          "blockNumber": "0x725933",
          "transactionHash": "0xa9b390f1f9e504c68de01415e70bcd860114d20395b39add80506d056936632f",
          "transactionIndex": "0x79",
          "logIndex": "0xb5",
          "removed": false
        }
      ],
      "logsBloom": "0x00000000000000000000000000000000000000000000000000000000000000000000000000000000000000000000000000000000000000004000000000000000000000000000000000000008000000000000001000000000000000000000000000000000020000000000000000000800020000000000000000000010000000000000000000000000000000000000000000000000000008000000010000000000000000000000000000000000000000004000000000000000000000000000000000000002000000800000000000001000000000000000080000000000000020000000000000000000000000000000000000000000000000000000000000000000",
      "type": "0x2",
      "transactionHash": "0xa9b390f1f9e504c68de01415e70bcd860114d20395b39add80506d056936632f",
      "transactionIndex": "0x79",
      "blockHash": "0xcdaec6f43cc3a2aa37acb24c1f109a64149f58c7e39b27ed236df0b5b3ae1443",
      "blockNumber": "0x725933",
      "gasUsed": "0x13af6",
      "effectiveGasPrice": "0x1b253758d",
      "from": "0xc77f7fed3b5cc8249adc428c5f44c9063b9734b4",
      "to": "0xbf4a322f1496e5c3d34a9bcdb4c60567b38c7de2",
      "contractAddress": null
    }
  ],
  "libraries": [],
  "pending": [],
  "returns": {},
  "timestamp": 1736908945,
  "chain": 11155111,
  "commit": "51a374b"
}