{
  "transactions": [
    {
      "hash": "0x4c8dd5c4d965e340cea868dcf9e844d5b2444dc14093e2b4c73dc398189758f7",
      "transactionType": "CALL",
      "contractName": null,
      "contractAddress": "0x5eb9cc76c3506942c1c0ead70e877dd5e4f00cb0",
      "function": "sell(uint256)",
      "arguments": [
        "989114978518564300617"
      ],
      "transaction": {
        "from": "0xc77f7fed3b5cc8249adc428c5f44c9063b9734b4",
        "to": "0x5eb9cc76c3506942c1c0ead70e877dd5e4f00cb0",
        "gas": "0x16fec",
        "value": "0x0",
        "input": "0xe4849b320000000000000000000000000000000000000000000000359eba506829276749",
        "nonce": "0x3a3",
        "chainId": "0xaa36a7"
      },
      "additionalContracts": [],
      "isFixedGasLimit": false
    }
  ],
  "receipts": [
    {
      "status": "0x1",
      "cumulativeGasUsed": "0xd73cdd",
      "logs": [
        {
          "address": "0x5eb9cc76c3506942c1c0ead70e877dd5e4f00cb0",
          "topics": [
            "0xddf252ad1be2c89b69c2b068fc378daa952ba7f163c4a11628f55a4df523b3ef",
            "0x000000000000000000000000c77f7fed3b5cc8249adc428c5f44c9063b9734b4",
            "0x0000000000000000000000000000000000000000000000000000000000000000"
          ],
          "data": "0x0000000000000000000000000000000000000000000000359eba506829276749",
          "blockHash": "0x553e3e175497426fe47c35f8db8692737b939279caf90ada2b945ce297548bc6",
          "blockNumber": "0x724fa0",
          "transactionHash": "0x4c8dd5c4d965e340cea868dcf9e844d5b2444dc14093e2b4c73dc398189758f7",
          "transactionIndex": "0x68",
          "logIndex": "0x6c",
          "removed": false
        },
        {
          "address": "0x5eb9cc76c3506942c1c0ead70e877dd5e4f00cb0",
          "topics": [
            "0x4afcb4a87cdbd9974efdb92ee48bc8d7cd0ae4bf217004db3d080cbaee652ca7"
          ],
          "data": "0x000000000000000000000000000000000000000000000000000000006786ad4000000000000000000000000000000000000000000000000000039111eead5aaf0000000000000000000000000000000000000000000000000dc7db13320219c1",
          "blockHash": "0x553e3e175497426fe47c35f8db8692737b939279caf90ada2b945ce297548bc6",
          "blockNumber": "0x724fa0",
          "transactionHash": "0x4c8dd5c4d965e340cea868dcf9e844d5b2444dc14093e2b4c73dc398189758f7",
          "transactionIndex": "0x68",
          "logIndex": "0x6d",
          "removed": false
        }
      ],
      "logsBloom": "0x00000000000000000000000000000000000000000000000000000000000000000000000000000000000000000000000000000000000000004000000000000000000000000000000000000008000000000000000000000000000000000000000000000000020000000000000004000800020000000000000000000010000000000000000000000000000000000000000000000000000000000000010000000000000000000000000000000000000000004000000000000000000000000000020000000002000000800000008000000000000000000000080000000000000020000000000000000000000000000000000000000000000000000000000000000000",
      "type": "0x2",
      "transactionHash": "0x4c8dd5c4d965e340cea868dcf9e844d5b2444dc14093e2b4c73dc398189758f7",
      "transactionIndex": "0x68",
      "blockHash": "0x553e3e175497426fe47c35f8db8692737b939279caf90ada2b945ce297548bc6",
      "blockNumber": "0x724fa0",
      "gasUsed": "0xfb93",
      "effectiveGasPrice": "0x56ba1f4d3",
      "from": "0xc77f7fed3b5cc8249adc428c5f44c9063b9734b4",
      "to": "0x5eb9cc76c3506942c1c0ead70e877dd5e4f00cb0",
      "contractAddress": null
    }
  ],
  "libraries": [],
  "pending": [],
  "returns": {},
  "timestamp": 1736879427,
  "chain": 11155111,
  "commit": "51a374b"
}