{
  "transactions": [
    {
      "hash": "0xa1b95419d8743c68c2ecc1f103ffa05d387521cdf91e8ac731081a5d081ca315",
      "transactionType": "CALL",
      "contractName": null,
      "contractAddress": "0x8aafd3ede9adb0ff97c7aebce82a919afb1c8764",
      "function": "buy(address)",
      "arguments": [
        "0xC77f7fed3b5Cc8249aDc428c5F44C9063B9734b4"
      ],
      "transaction": {
        "from": "0xc77f7fed3b5cc8249adc428c5f44c9063b9734b4",
        "to": "0x8aafd3ede9adb0ff97c7aebce82a919afb1c8764",
        "gas": "0x156ea",
        "value": "0xde0b6b3a7640000",
        "input": "0xf088d547000000000000000000000000c77f7fed3b5cc8249adc428c5f44c9063b9734b4",
        "nonce": "0x176b",
        "chainId": "0xaa36a7"
      },
      "additionalContracts": [],
      "isFixedGasLimit": false
    }
  ],
  "receipts": [
    {
      "status": "0x1",
      "cumulativeGasUsed": "0xb5c5a8",
      "logs": [
        {
          "address": "0x8aafd3ede9adb0ff97c7aebce82a919afb1c8764",
          "topics": [
            "0xddf252ad1be2c89b69c2b068fc378daa952ba7f163c4a11628f55a4df523b3ef",
            "0x0000000000000000000000000000000000000000000000000000000000000000",
            "0x000000000000000000000000c77f7fed3b5cc8249adc428c5f44c9063b9734b4"
          ],
          "data": "0x000000000000000000000000000000000000000000000007df6bbbd99ee94ceb",
          "blockHash": "0x23ad26eb308a97122fa23e2cc3db21a85637a3e7e273e00d1be397e183edd4c7",
          "blockNumber": "0x731f42",
          "transactionHash": "0xa1b95419d8743c68c2ecc1f103ffa05d387521cdf91e8ac731081a5d081ca315",
          "transactionIndex": "0x71",
          "logIndex": "0xc6",
          "removed": false
        },
        {
          "address": "0x8aafd3ede9adb0ff97c7aebce82a919afb1c8764",
          "topics": [
            "0xddf252ad1be2c89b69c2b068fc378daa952ba7f163c4a11628f55a4df523b3ef",
            "0x0000000000000000000000000000000000000000000000000000000000000000",
            "0x000000000000000000000000c77f7fed3b5cc8249adc428c5f44c9063b9734b4"
          ],
          "data": "0x000000000000000000000000000000000000000000000000061d0b03a25db88f",
          "blockHash": "0x23ad26eb308a97122fa23e2cc3db21a85637a3e7e273e00d1be397e183edd4c7",
          "blockNumber": "0x731f42",
          "transactionHash": "0xa1b95419d8743c68c2ecc1f103ffa05d387521cdf91e8ac731081a5d081ca315",
          "transactionIndex": "0x71",
          "logIndex": "0xc7",
          "removed": false
        },
        {
          "address": "0x8aafd3ede9adb0ff97c7aebce82a919afb1c8764",
          "topics": [
            "0x4afcb4a87cdbd9974efdb92ee48bc8d7cd0ae4bf217004db3d080cbaee652ca7"
          ],
          "data": "0x000000000000000000000000000000000000000000000000000000006790740000000000000000000000000000000000000000000000000000183ee96f0cfa790000000000000000000000000000000000000000000000000de0b6b3a7640000",
          "blockHash": "0x23ad26eb308a97122fa23e2cc3db21a85637a3e7e273e00d1be397e183edd4c7",
          "blockNumber": "0x731f42",
          "transactionHash": "0xa1b95419d8743c68c2ecc1f103ffa05d387521cdf91e8ac731081a5d081ca315",
          "transactionIndex": "0x71",
          "logIndex": "0xc8",
          "removed": false
        }
      ],
      "logsBloom": "0x00000000000000000000000000000000000000000600000000000000000000000000000000000000000000000000000000000000000000004000000000000000000000000000004000000008000000000000000000000000000000000000000000000000020000000000000000000800020000000000000000000010000000000000000000000000000000000000000000000000000000000000010000000000000000000000000000000000000000004000000000000000000000000000000000000002000000800000000000000000000000000000080000000000000020000000000000000000000000000000000000000000000000000000000000000000",
      "type": "0x2",
      "transactionHash": "0xa1b95419d8743c68c2ecc1f103ffa05d387521cdf91e8ac731081a5d081ca315",
      "transactionIndex": "0x71",
      "blockHash": "0x23ad26eb308a97122fa23e2cc3db21a85637a3e7e273e00d1be397e183edd4c7",
      "blockNumber": "0x731f42",
      "gasUsed": "0xf844",
      "effectiveGasPrice": "0x38e6bb48",
      "from": "0xc77f7fed3b5cc8249adc428c5f44c9063b9734b4",
      "to": "0x8aafd3ede9adb0ff97c7aebce82a919afb1c8764",
      "contractAddress": null
    }
  ],
  "libraries": [],
  "pending": [],
  "returns": {},
  "timestamp": 1737520129,
  "chain": 11155111,
  "commit": "1d2fb70"
}