{
  "transactions": [
    {
      "hash": "0xe00ce9440c5cc9d9cc354e1f086050f9018acdf8e3e7374c72427897923e713a",
      "transactionType": "CALL",
      "contractName": null,
      "contractAddress": "0x8aafd3ede9adb0ff97c7aebce82a919afb1c8764",
      "function": "sell(uint256)",
      "arguments": [
        "1554375"
      ],
      "transaction": {
        "from": "0xc77f7fed3b5cc8249adc428c5f44c9063b9734b4",
        "to": "0x8aafd3ede9adb0ff97c7aebce82a919afb1c8764",
        "gas": "0x16208",
        "value": "0x0",
        "input": "0xe4849b32000000000000000000000000000000000000000000000000000000000017b7c7",
        "nonce": "0xf96",
        "chainId": "0xaa36a7"
      },
      "additionalContracts": [],
      "isFixedGasLimit": false
    }
  ],
  "receipts": [
    {
      "status": "0x1",
      "cumulativeGasUsed": "0xeef096",
      "logs": [
        {
          "address": "0x8aafd3ede9adb0ff97c7aebce82a919afb1c8764",
          "topics": [
            "0xddf252ad1be2c89b69c2b068fc378daa952ba7f163c4a11628f55a4df523b3ef",
            "0x000000000000000000000000c77f7fed3b5cc8249adc428c5f44c9063b9734b4",
            "0x0000000000000000000000000000000000000000000000000000000000000000"
          ],
          "data": "0x0000000000000000000000000000000000000000000000000000000000178734",
          "blockHash": "0xde8eabda75eeab2164d48faa3e4e7fa09d341071e4a326be6f2f94108a2e5f97",
          "blockNumber": "0x7315fb",
          "transactionHash": "0xe00ce9440c5cc9d9cc354e1f086050f9018acdf8e3e7374c72427897923e713a",
          "transactionIndex": "0x95",
          "logIndex": "0x117",
          "removed": false
        },
        {
          "address": "0x8aafd3ede9adb0ff97c7aebce82a919afb1c8764",
          "topics": [
            "0xddf252ad1be2c89b69c2b068fc378daa952ba7f163c4a11628f55a4df523b3ef",
            "0x000000000000000000000000c77f7fed3b5cc8249adc428c5f44c9063b9734b4",
            "0x000000000000000000000000c77f7fed3b5cc8249adc428c5f44c9063b9734b4"
          ],
          "data": "0x0000000000000000000000000000000000000000000000000000000000003093",
          "blockHash": "0xde8eabda75eeab2164d48faa3e4e7fa09d341071e4a326be6f2f94108a2e5f97",
          "blockNumber": "0x7315fb",
          "transactionHash": "0xe00ce9440c5cc9d9cc354e1f086050f9018acdf8e3e7374c72427897923e713a",
          "transactionIndex": "0x95",
          "logIndex": "0x118",
          "removed": false
        },
        {
          "address": "0x8aafd3ede9adb0ff97c7aebce82a919afb1c8764",
          "topics": [
            "0x4afcb4a87cdbd9974efdb92ee48bc8d7cd0ae4bf217004db3d080cbaee652ca7"
          ],
          "data": "0x00000000000000000000000000000000000000000000000000000000679004700000000000000000000000000000000000000000000000000004c2d34cf59c230000000000000000000000000000000000000000000000000000000000000823",
          "blockHash": "0xde8eabda75eeab2164d48faa3e4e7fa09d341071e4a326be6f2f94108a2e5f97",
          "blockNumber": "0x7315fb",
          "transactionHash": "0xe00ce9440c5cc9d9cc354e1f086050f9018acdf8e3e7374c72427897923e713a",
          "transactionIndex": "0x95",
          "logIndex": "0x119",
          "removed": false
        }
      ],
      "logsBloom": "0x00000000000000000000000000000000000000000600000000000000000000000000000000000000000000000000000000000000000000004000000000000000000000000000004000000008000000000000000000000000000000000000000000000000020000000000000000000800020000000000000000000010000000000000000000000000000000000000000000000000000000000000010000000000000000000000000000000000000000004000000000000000000000000000000000000002000000800000000000000000000000000000080000000000000020000000000000000000000000000000000000000000000000000000000000000000",
      "type": "0x2",
      "transactionHash": "0xe00ce9440c5cc9d9cc354e1f086050f9018acdf8e3e7374c72427897923e713a",
      "transactionIndex": "0x95",
      "blockHash": "0xde8eabda75eeab2164d48faa3e4e7fa09d341071e4a326be6f2f94108a2e5f97",
      "blockNumber": "0x7315fb",
      "gasUsed": "0xf213",
      "effectiveGasPrice": "0x6244c1f8",
      "from": "0xc77f7fed3b5cc8249adc428c5f44c9063b9734b4",
      "to": "0x8aafd3ede9adb0ff97c7aebce82a919afb1c8764",
      "contractAddress": null
    }
  ],
  "libraries": [],
  "pending": [],
  "returns": {},
  "timestamp": 1737491570,
  "chain": 11155111,
  "commit": "1d2fb70"
}