{
  "transactions": [
    {
      "hash": "0x7a97f1ae1e9ff2405146fc217a9f6599d5e0e6dff5ff70656e8a7facb7e2fcd4",
      "transactionType": "CALL",
      "contractName": null,
      "contractAddress": "0x5eb9cc76c3506942c1c0ead70e877dd5e4f00cb0",
      "function": "buy(address)",
      "arguments": [
        "0xC77f7fed3b5Cc8249aDc428c5F44C9063B9734b4"
      ],
      "transaction": {
        "from": "0xc77f7fed3b5cc8249adc428c5f44c9063b9734b4",
        "to": "0x5eb9cc76c3506942c1c0ead70e877dd5e4f00cb0",
        "gas": "0x1b30c",
        "value": "0xde0b6b3a7640000",
        "input": "0xf088d547000000000000000000000000c77f7fed3b5cc8249adc428c5f44c9063b9734b4",
        "nonce": "0x472",
        "chainId": "0xaa36a7"
      },
      "additionalContracts": [],
      "isFixedGasLimit": false
    }
  ],
  "receipts": [
    {
      "status": "0x1",
      "cumulativeGasUsed": "0x17b1dfa",
      "logs": [
        {
          "address": "0x5eb9cc76c3506942c1c0ead70e877dd5e4f00cb0",
          "topics": [
            "0xddf252ad1be2c89b69c2b068fc378daa952ba7f163c4a11628f55a4df523b3ef",
            "0x0000000000000000000000000000000000000000000000000000000000000000",
            "0x000000000000000000000000c77f7fed3b5cc8249adc428c5f44c9063b9734b4"
          ],
          "data": "0x00000000000000000000000000000000000000000000003574c1e08dc4481db8",
          "blockHash": "0x79bb883d5240c3f90f599029f2ead4228cf2b5f3aa1bda4d74ede8761ec93dff",
          "blockNumber": "0x72509e",
          "transactionHash": "0x7a97f1ae1e9ff2405146fc217a9f6599d5e0e6dff5ff70656e8a7facb7e2fcd4",
          "transactionIndex": "0x71",
          "logIndex": "0x12e",
          "removed": false
        },
        {
          "address": "0x5eb9cc76c3506942c1c0ead70e877dd5e4f00cb0",
          "topics": [
            "0xddf252ad1be2c89b69c2b068fc378daa952ba7f163c4a11628f55a4df523b3ef",
            "0x0000000000000000000000000000000000000000000000000000000000000000",
            "0x000000000000000000000000c77f7fed3b5cc8249adc428c5f44c9063b9734b4"
          ],
          "data": "0x0000000000000000000000000000000000000000000000002982ae4c73e52a0f",
          "blockHash": "0x79bb883d5240c3f90f599029f2ead4228cf2b5f3aa1bda4d74ede8761ec93dff",
          "blockNumber": "0x72509e",
          "transactionHash": "0x7a97f1ae1e9ff2405146fc217a9f6599d5e0e6dff5ff70656e8a7facb7e2fcd4",
          "transactionIndex": "0x71",
          "logIndex": "0x12f",
          "removed": false
        },
        {
          "address": "0x5eb9cc76c3506942c1c0ead70e877dd5e4f00cb0",
          "topics": [
            "0x4afcb4a87cdbd9974efdb92ee48bc8d7cd0ae4bf217004db3d080cbaee652ca7"
          ],
          "data": "0x000000000000000000000000000000000000000000000000000000006786b93400000000000000000000000000000000000000000000000000039119b7a00ee20000000000000000000000000000000000000000000000000de0b6b3a7640000",
          "blockHash": "0x79bb883d5240c3f90f599029f2ead4228cf2b5f3aa1bda4d74ede8761ec93dff",
          "blockNumber": "0x72509e",
          "transactionHash": "0x7a97f1ae1e9ff2405146fc217a9f6599d5e0e6dff5ff70656e8a7facb7e2fcd4",
          "transactionIndex": "0x71",
          "logIndex": "0x130",
          "removed": false
        }
      ],
      "logsBloom": "0x00000000000000000000000000000000000000000000000000000000000000000000000000000000000000000000000000000000000000004000000000000000000000000000000000000008000000000000000000000000000000000000000000000000020000000000000004000800020000000000000000000010000000000000000000000000000000000000000000000000000000000000010000000000000000000000000000000000000000004000000000000000000000000000020000000002000000800000008000000000000000000000080000000000000020000000000000000000000000000000000000000000000000000000000000000000",
      "type": "0x2",
      "transactionHash": "0x7a97f1ae1e9ff2405146fc217a9f6599d5e0e6dff5ff70656e8a7facb7e2fcd4",
      "transactionIndex": "0x71",
      "blockHash": "0x79bb883d5240c3f90f599029f2ead4228cf2b5f3aa1bda4d74ede8761ec93dff",
      "blockNumber": "0x72509e",
      "gasUsed": "0x13af8",
      "effectiveGasPrice": "0x1d82a7d87",
      "from": "0xc77f7fed3b5cc8249adc428c5f44c9063b9734b4",
      "to": "0x5eb9cc76c3506942c1c0ead70e877dd5e4f00cb0",
      "contractAddress": null
    }
  ],
  "libraries": [],
  "pending": [],
  "returns": {},
  "timestamp": 1736882486,
  "chain": 11155111,
  "commit": "51a374b"
}