{
  "transactions": [
    {
      "hash": "0x0ed3fbddfb90474bfaf1e37aefa0762e2098c466bf85155181b6a03f5db950d9",
      "transactionType": "CALL",
      "contractName": null,
      "contractAddress": "0x5eb9cc76c3506942c1c0ead70e877dd5e4f00cb0",
      "function": "sell(uint256)",
      "arguments": [
        "989151313514972645718"
      ],
      "transaction": {
        "from": "0xc77f7fed3b5cc8249adc428c5f44c9063b9734b4",
        "to": "0x5eb9cc76c3506942c1c0ead70e877dd5e4f00cb0",
        "gas": "0x16fec",
        "value": "0x0",
        "input": "0xe4849b320000000000000000000000000000000000000000000000359f3b66e4c2fd0956",
        "nonce": "0x2bf",
        "chainId": "0xaa36a7"
      },
      "additionalContracts": [],
      "isFixedGasLimit": false
    }
  ],
  "receipts": [
    {
      "status": "0x1",
      "cumulativeGasUsed": "0xa4623c",
      "logs": [
        {
          "address": "0x5eb9cc76c3506942c1c0ead70e877dd5e4f00cb0",
          "topics": [
            "0xddf252ad1be2c89b69c2b068fc378daa952ba7f163c4a11628f55a4df523b3ef",
            "0x000000000000000000000000c77f7fed3b5cc8249adc428c5f44c9063b9734b4",
            "0x0000000000000000000000000000000000000000000000000000000000000000"
          ],
          "data": "0x0000000000000000000000000000000000000000000000359f3b66e4c2fd0956",
          "blockHash": "0xe761f5c295c570b0e66543920cfd700fce28a90ea4b87ebedd491651d39a2ddf",
          "blockNumber": "0x724e9a",
          "transactionHash": "0x0ed3fbddfb90474bfaf1e37aefa0762e2098c466bf85155181b6a03f5db950d9",
          "transactionIndex": "0x5b",
          "logIndex": "0x63",
          "removed": false
        },
        {
          "address": "0x5eb9cc76c3506942c1c0ead70e877dd5e4f00cb0",
          "topics": [
            "0x4afcb4a87cdbd9974efdb92ee48bc8d7cd0ae4bf217004db3d080cbaee652ca7"
          ],
          "data": "0x000000000000000000000000000000000000000000000000000000006786a0ec00000000000000000000000000000000000000000000000000039109589544f40000000000000000000000000000000000000000000000000dc7db133242c106",
          "blockHash": "0xe761f5c295c570b0e66543920cfd700fce28a90ea4b87ebedd491651d39a2ddf",
          "blockNumber": "0x724e9a",
          "transactionHash": "0x0ed3fbddfb90474bfaf1e37aefa0762e2098c466bf85155181b6a03f5db950d9",
          "transactionIndex": "0x5b",
          "logIndex": "0x64",
          "removed": false
        }
      ],
      "logsBloom": "0x00000000000000000000000000000000000000000000000000000000000000000000000000000000000000000000000000000000000000004000000000000000000000000000000000000008000000000000000000000000000000000000000000000000020000000000000004000800020000000000000000000010000000000000000000000000000000000000000000000000000000000000010000000000000000000000000000000000000000004000000000000000000000000000020000000002000000800000008000000000000000000000080000000000000020000000000000000000000000000000000000000000000000000000000000000000",
      "type": "0x2",
      "transactionHash": "0x0ed3fbddfb90474bfaf1e37aefa0762e2098c466bf85155181b6a03f5db950d9",
      "transactionIndex": "0x5b",
      "blockHash": "0xe761f5c295c570b0e66543920cfd700fce28a90ea4b87ebedd491651d39a2ddf",
      "blockNumber": "0x724e9a",
      "gasUsed": "0xfb93",
      "effectiveGasPrice": "0x45c25dd5d",
      "from": "0xc77f7fed3b5cc8249adc428c5f44c9063b9734b4",
      "to": "0x5eb9cc76c3506942c1c0ead70e877dd5e4f00cb0",
      "contractAddress": null
    }
  ],
  "libraries": [],
  "pending": [],
  "returns": {},
  "timestamp": 1736876269,
  "chain": 11155111,
  "commit": "51a374b"
}