{
  "transactions": [
    {
      "hash": "0xc0d60043a5bdf124272ffaccb2fa306f2bca779c97c3e412d94879c1322972e2",
      "transactionType": "CALL",
      "contractName": null,
      "contractAddress": "0x8aafd3ede9adb0ff97c7aebce82a919afb1c8764",
      "function": "sell(uint256)",
      "arguments": [
        "12065"
      ],
      "transaction": {
        "from": "0xc77f7fed3b5cc8249adc428c5f44c9063b9734b4",
        "to": "0x8aafd3ede9adb0ff97c7aebce82a919afb1c8764",
        "gas": "0x14e4c",
        "value": "0x0",
        "input": "0xe4849b320000000000000000000000000000000000000000000000000000000000002f21",
        "nonce": "0x1017",
        "chainId": "0xaa36a7"
      },
      "additionalContracts": [],
      "isFixedGasLimit": false
    }
  ],
  "receipts": [
    {
      "status": "0x1",
      "cumulativeGasUsed": "0x1094283",
      "logs": [
        {
          "address": "0x8aafd3ede9adb0ff97c7aebce82a919afb1c8764",
          "topics": [
            "0xddf252ad1be2c89b69c2b068fc378daa952ba7f163c4a11628f55a4df523b3ef",
            "0x000000000000000000000000c77f7fed3b5cc8249adc428c5f44c9063b9734b4",
            "0x0000000000000000000000000000000000000000000000000000000000000000"
          ],
          "data": "0x0000000000000000000000000000000000000000000000000000000000002ec1",
          "blockHash": "0xe364b2923f8dc2e5ee2df5f6f7df4037bb2d43f13151a9bf9ac01ea136ddc0d8",
          "blockNumber": "0x73168f",
          "transactionHash": "0xc0d60043a5bdf124272ffaccb2fa306f2bca779c97c3e412d94879c1322972e2",
          "transactionIndex": "0x89",
          "logIndex": "0xc5",
          "removed": false
        },
        {
          "address": "0x8aafd3ede9adb0ff97c7aebce82a919afb1c8764",
          "topics": [
            "0xddf252ad1be2c89b69c2b068fc378daa952ba7f163c4a11628f55a4df523b3ef",
            "0x000000000000000000000000c77f7fed3b5cc8249adc428c5f44c9063b9734b4",
            "0x000000000000000000000000c77f7fed3b5cc8249adc428c5f44c9063b9734b4"
          ],
          "data": "0x0000000000000000000000000000000000000000000000000000000000000060",
          "blockHash": "0xe364b2923f8dc2e5ee2df5f6f7df4037bb2d43f13151a9bf9ac01ea136ddc0d8",
          "blockNumber": "0x73168f",
          "transactionHash": "0xc0d60043a5bdf124272ffaccb2fa306f2bca779c97c3e412d94879c1322972e2",
          "transactionIndex": "0x89",
          "logIndex": "0xc6",
          "removed": false
        },
        {
          "address": "0x8aafd3ede9adb0ff97c7aebce82a919afb1c8764",
          "topics": [
            "0x4afcb4a87cdbd9974efdb92ee48bc8d7cd0ae4bf217004db3d080cbaee652ca7"
          ],
          "data": "0x0000000000000000000000000000000000000000000000000000000067900b600000000000000000000000000000000000000000000000000004e94ddd75a0b90000000000000000000000000000000000000000000000000000000000000010",
          "blockHash": "0xe364b2923f8dc2e5ee2df5f6f7df4037bb2d43f13151a9bf9ac01ea136ddc0d8",
          "blockNumber": "0x73168f",
          "transactionHash": "0xc0d60043a5bdf124272ffaccb2fa306f2bca779c97c3e412d94879c1322972e2",
          "transactionIndex": "0x89",
          "logIndex": "0xc7",
          "removed": false
        }
      ],
      "logsBloom": "0x00000000000000000000000000000000000000000600000000000000000000000000000000000000000000000000000000000000000000004000000000000000000000000000004000000008000000000000000000000000000000000000000000000000020000000000000000000800020000000000000000000010000000000000000000000000000000000000000000000000000000000000010000000000000000000000000000000000000000004000000000000000000000000000000000000002000000800000000000000000000000000000080000000000000020000000000000000000000000000000000000000000000000000000000000000000",
      "type": "0x2",
      "transactionHash": "0xc0d60043a5bdf124272ffaccb2fa306f2bca779c97c3e412d94879c1322972e2",
      "transactionIndex": "0x89",
      "blockHash": "0xe364b2923f8dc2e5ee2df5f6f7df4037bb2d43f13151a9bf9ac01ea136ddc0d8",
      "blockNumber": "0x73168f",
      "gasUsed": "0xf207",
      "effectiveGasPrice": "0x40563b98",
      "from": "0xc77f7fed3b5cc8249adc428c5f44c9063b9734b4",
      "to": "0x8aafd3ede9adb0ff97c7aebce82a919afb1c8764",
      "contractAddress": null
    }
  ],
  "libraries": [],
  "pending": [],
  "returns": {},
  "timestamp": 1737493344,
  "chain": 11155111,
  "commit": "1d2fb70"
}