{
  "transactions": [
    {
      "hash": "0xcca6d98e36856073113eea8f5e1b3cacd01d6ca32a37c40d693089caa4113be9",
      "transactionType": "CALL",
      "contractName": null,
      "contractAddress": "0xbf4a322f1496e5c3d34a9bcdb4c60567b38c7de2",
      "function": "sell(uint256)",
      "arguments": [
        "976694108750678037931"
      ],
      "transaction": {
        "from": "0xc77f7fed3b5cc8249adc428c5f44c9063b9734b4",
        "to": "0xbf4a322f1496e5c3d34a9bcdb4c60567b38c7de2",
        "gas": "0x16fea",
        "value": "0x0",
        "input": "0xe4849b32000000000000000000000000000000000000000000000034f25a85295ce795ab",
        "nonce": "0xd0f",
        "chainId": "0xaa36a7"
      },
      "additionalContracts": [],
      "isFixedGasLimit": false
    }
  ],
  "receipts": [
    {
      "status": "0x1",
      "cumulativeGasUsed": "0x7e35e4",
      "logs": [
        {
          "address": "0xbf4a322f1496e5c3d34a9bcdb4c60567b38c7de2",
          "topics": [
            "0xddf252ad1be2c89b69c2b068fc378daa952ba7f163c4a11628f55a4df523b3ef",
            "0x000000000000000000000000c77f7fed3b5cc8249adc428c5f44c9063b9734b4",
            "0x0000000000000000000000000000000000000000000000000000000000000000"
          ],
          "data": "0x000000000000000000000000000000000000000000000034f25a85295ce795ab",
          "blockHash": "0xbe06354eddfca17a67a3a87857ff474639d6165ba1e8c4830404913720c3fade",
          "blockNumber": "0x725d69",
          "transactionHash": "0xcca6d98e36856073113eea8f5e1b3cacd01d6ca32a37c40d693089caa4113be9",
          "transactionIndex": "0x55",
          "logIndex": "0x64",
          "removed": false
        },
        {
          "address": "0xbf4a322f1496e5c3d34a9bcdb4c60567b38c7de2",
          "topics": [
            "0x4afcb4a87cdbd9974efdb92ee48bc8d7cd0ae4bf217004db3d080cbaee652ca7"
          ],
          "data": "0x000000000000000000000000000000000000000000000000000000006787536000000000000000000000000000000000000000000000000000039cb4ed75f1ce0000000000000000000000000000000000000000000000000dc7e3da614676d8",
          "blockHash": "0xbe06354eddfca17a67a3a87857ff474639d6165ba1e8c4830404913720c3fade",
          "blockNumber": "0x725d69",
          "transactionHash": "0xcca6d98e36856073113eea8f5e1b3cacd01d6ca32a37c40d693089caa4113be9",
          "transactionIndex": "0x55",
          "logIndex": "0x65",
          "removed": false
        }
      ],
      "logsBloom": "0x00000000000000000000000000000000000000000000000000000000000000000000000000000000000000000000000000000000000000004000000000000000000000000000000000000008000000000000001000000000000000000000000000000000020000000000000000000800020000000000000000000010000000000000000000000000000000000000000000000000000008000000010000000000000000000000000000000000000000004000000000000000000000000000000000000002000000800000000000001000000000000000080000000000000020000000000000000000000000000000000000000000000000000000000000000000",
      "type": "0x2",
      "transactionHash": "0xcca6d98e36856073113eea8f5e1b3cacd01d6ca32a37c40d693089caa4113be9",
      "transactionIndex": "0x55",
      "blockHash": "0xbe06354eddfca17a67a3a87857ff474639d6165ba1e8c4830404913720c3fade",
      "blockNumber": "0x725d69",
      "gasUsed": "0xfb91",
      "effectiveGasPrice": "0x2c08684a9",
      "from": "0xc77f7fed3b5cc8249adc428c5f44c9063b9734b4",
      "to": "0xbf4a322f1496e5c3d34a9bcdb4c60567b38c7de2",
      "contractAddress": null
    }
  ],
  "libraries": [],
  "pending": [],
  "returns": {},
  "timestamp": 1736921953,
  "chain": 11155111,
  "commit": "51a374b"
}