{
  "transactions": [
    {
      "hash": "0x71d9494490267ced460c4fcf1ab21b09932328ac763a63fa7a8262157f3d0363",
      "transactionType": "CALL",
      "contractName": null,
      "contractAddress": "0x8aafd3ede9adb0ff97c7aebce82a919afb1c8764",
      "function": "sell(uint256)",
      "arguments": [
        "1529382664695203404"
      ],
      "transaction": {
        "from": "0xc77f7fed3b5cc8249adc428c5f44c9063b9734b4",
        "to": "0x8aafd3ede9adb0ff97c7aebce82a919afb1c8764",
        "gas": "0x15dca",
        "value": "0x0",
        "input": "0xe4849b320000000000000000000000000000000000000000000000001539756e36cc464c",
        "nonce": "0x157e",
        "chainId": "0xaa36a7"
      },
      "additionalContracts": [],
      "isFixedGasLimit": false
    }
  ],
  "receipts": [
    {
      "status": "0x1",
      "cumulativeGasUsed": "0xe363a0",
      "logs": [
        {
          "address": "0x8aafd3ede9adb0ff97c7aebce82a919afb1c8764",
          "topics": [
            "0xddf252ad1be2c89b69c2b068fc378daa952ba7f163c4a11628f55a4df523b3ef",
            "0x000000000000000000000000c77f7fed3b5cc8249adc428c5f44c9063b9734b4",
            "0x0000000000000000000000000000000000000000000000000000000000000000"
          ],
          "data": "0x000000000000000000000000000000000000000000000000150dfdb50328d931",
          "blockHash": "0x2f604cec19b9c62e43ae77e5e4319e7352ef6593d3475b205c5ea78bac02bb9c",
          "blockNumber": "0x731ce9",
          "transactionHash": "0x71d9494490267ced460c4fcf1ab21b09932328ac763a63fa7a8262157f3d0363",
          "transactionIndex": "0x66",
          "logIndex": "0xa0",
          "removed": false
        },
        {
          "address": "0x8aafd3ede9adb0ff97c7aebce82a919afb1c8764",
          "topics": [
            "0xddf252ad1be2c89b69c2b068fc378daa952ba7f163c4a11628f55a4df523b3ef",
            "0x000000000000000000000000c77f7fed3b5cc8249adc428c5f44c9063b9734b4",
            "0x000000000000000000000000c77f7fed3b5cc8249adc428c5f44c9063b9734b4"
          ],
          "data": "0x000000000000000000000000000000000000000000000000002b77b933a36d1b",
          "blockHash": "0x2f604cec19b9c62e43ae77e5e4319e7352ef6593d3475b205c5ea78bac02bb9c",
          "blockNumber": "0x731ce9",
          "transactionHash": "0x71d9494490267ced460c4fcf1ab21b09932328ac763a63fa7a8262157f3d0363",
          "transactionIndex": "0x66",
          "logIndex": "0xa1",
          "removed": false
        },
        {
          "address": "0x8aafd3ede9adb0ff97c7aebce82a919afb1c8764",
          "topics": [
            "0x4afcb4a87cdbd9974efdb92ee48bc8d7cd0ae4bf217004db3d080cbaee652ca7"
          ],
          "data": "0x00000000000000000000000000000000000000000000000000000000679057d400000000000000000000000000000000000000000000000000128ed1043519de000000000000000000000000000000000000000000000000001c61924ff66be1",
          "blockHash": "0x2f604cec19b9c62e43ae77e5e4319e7352ef6593d3475b205c5ea78bac02bb9c",
          "blockNumber": "0x731ce9",
          "transactionHash": "0x71d9494490267ced460c4fcf1ab21b09932328ac763a63fa7a8262157f3d0363",
          "transactionIndex": "0x66",
          "logIndex": "0xa2",
          "removed": false
        }
      ],
      "logsBloom": "0x00000000000000000000000000000000000000000600000000000000000000000000000000000000000000000000000000000000000000004000000000000000000000000000004000000008000000000000000000000000000000000000000000000000020000000000000000000800020000000000000000000010000000000000000000000000000000000000000000000000000000000000010000000000000000000000000000000000000000004000000000000000000000000000000000000002000000800000000000000000000000000000080000000000000020000000000000000000000000000000000000000000000000000000000000000000",
      "type": "0x2",
      "transactionHash": "0x71d9494490267ced460c4fcf1ab21b09932328ac763a63fa7a8262157f3d0363",
      "transactionIndex": "0x66",
      "blockHash": "0x2f604cec19b9c62e43ae77e5e4319e7352ef6593d3475b205c5ea78bac02bb9c",
      "blockNumber": "0x731ce9",
      "gasUsed": "0xfd3f",
      "effectiveGasPrice": "0x7c8d57e4",
      "from": "0xc77f7fed3b5cc8249adc428c5f44c9063b9734b4",
      "to": "0x8aafd3ede9adb0ff97c7aebce82a919afb1c8764",
      "contractAddress": null
    }
  ],
  "libraries": [],
  "pending": [],
  "returns": {},
  "timestamp": 1737512916,
  "chain": 11155111,
  "commit": "1d2fb70"
}