{
  "transactions": [
    {
      "hash": "0x52fe4cfd30ee04b77ed3dc63947221dc6d9a51cc10b0cdc0ad93a6222af95c1d",
      "transactionType": "CALL",
      "contractName": null,
      "contractAddress": "0x8aafd3ede9adb0ff97c7aebce82a919afb1c8764",
      "function": "sell(uint256)",
      "arguments": [
        "12523"
      ],
      "transaction": {
        "from": "0xc77f7fed3b5cc8249adc428c5f44c9063b9734b4",
        "to": "0x8aafd3ede9adb0ff97c7aebce82a919afb1c8764",
        "gas": "0x14e4c",
        "value": "0x0",
        "input": "0xe4849b3200000000000000000000000000000000000000000000000000000000000030eb",
        "nonce": "0xeea",
        "chainId": "0xaa36a7"
      },
      "additionalContracts": [],
      "isFixedGasLimit": false
    }
  ],
  "receipts": [
    {
      "status": "0x1",
      "cumulativeGasUsed": "0xd86d20",
      "logs": [
        {
          "address": "0x8aafd3ede9adb0ff97c7aebce82a919afb1c8764",
          "topics": [
            "0xddf252ad1be2c89b69c2b068fc378daa952ba7f163c4a11628f55a4df523b3ef",
            "0x000000000000000000000000c77f7fed3b5cc8249adc428c5f44c9063b9734b4",
            "0x0000000000000000000000000000000000000000000000000000000000000000"
          ],
          "data": "0x0000000000000000000000000000000000000000000000000000000000003087",
          "blockHash": "0x90cb8ec0aa27f835a8fe34581361bee8aa0d3276aa9d123e33dfe9c459dadd6e",
          "blockNumber": "0x731461",
          "transactionHash": "0x52fe4cfd30ee04b77ed3dc63947221dc6d9a51cc10b0cdc0ad93a6222af95c1d",
          "transactionIndex": "0x8d",
          "logIndex": "0xed",
          "removed": false
        },
        {
          "address": "0x8aafd3ede9adb0ff97c7aebce82a919afb1c8764",
          "topics": [
            "0xddf252ad1be2c89b69c2b068fc378daa952ba7f163c4a11628f55a4df523b3ef",
            "0x000000000000000000000000c77f7fed3b5cc8249adc428c5f44c9063b9734b4",
            "0x000000000000000000000000c77f7fed3b5cc8249adc428c5f44c9063b9734b4"
          ],
          "data": "0x0000000000000000000000000000000000000000000000000000000000000064",
          "blockHash": "0x90cb8ec0aa27f835a8fe34581361bee8aa0d3276aa9d123e33dfe9c459dadd6e",
          "blockNumber": "0x731461",
          "transactionHash": "0x52fe4cfd30ee04b77ed3dc63947221dc6d9a51cc10b0cdc0ad93a6222af95c1d",
          "transactionIndex": "0x8d",
          "logIndex": "0xee",
          "removed": false
        },
        {
          "address": "0x8aafd3ede9adb0ff97c7aebce82a919afb1c8764",
          "topics": [
            "0x4afcb4a87cdbd9974efdb92ee48bc8d7cd0ae4bf217004db3d080cbaee652ca7"
          ],
          "data": "0x00000000000000000000000000000000000000000000000000000000678ff1380000000000000000000000000000000000000000000000000004ba47104e41a80000000000000000000000000000000000000000000000000000000000000010",
          "blockHash": "0x90cb8ec0aa27f835a8fe34581361bee8aa0d3276aa9d123e33dfe9c459dadd6e",
          "blockNumber": "0x731461",
          "transactionHash": "0x52fe4cfd30ee04b77ed3dc63947221dc6d9a51cc10b0cdc0ad93a6222af95c1d",
          "transactionIndex": "0x8d",
          "logIndex": "0xef",
          "removed": false
        }
      ],
      "logsBloom": "0x00000000000000000000000000000000000000000600000000000000000000000000000000000000000000000000000000000000000000004000000000000000000000000000004000000008000000000000000000000000000000000000000000000000020000000000000000000800020000000000000000000010000000000000000000000000000000000000000000000000000000000000010000000000000000000000000000000000000000004000000000000000000000000000000000000002000000800000000000000000000000000000080000000000000020000000000000000000000000000000000000000000000000000000000000000000",
      "type": "0x2",
      "transactionHash": "0x52fe4cfd30ee04b77ed3dc63947221dc6d9a51cc10b0cdc0ad93a6222af95c1d",
      "transactionIndex": "0x8d",
      "blockHash": "0x90cb8ec0aa27f835a8fe34581361bee8aa0d3276aa9d123e33dfe9c459dadd6e",
      "blockNumber": "0x731461",
      "gasUsed": "0xf207",
      "effectiveGasPrice": "0xc2eb56e9",
      "from": "0xc77f7fed3b5cc8249adc428c5f44c9063b9734b4",
      "to": "0x8aafd3ede9adb0ff97c7aebce82a919afb1c8764",
      "contractAddress": null
    }
  ],
  "libraries": [],
  "pending": [],
  "returns": {},
  "timestamp": 1737486650,
  "chain": 11155111,
  "commit": "51a374b"
}