{
  "transactions": [
    {
      "hash": "0x7690a8df6e743a115bf3d2082f8769c1b3c29e76db3345abb187de6fc377f0e2",
      "transactionType": "CALL",
      "contractName": null,
      "contractAddress": "0x8aafd3ede9adb0ff97c7aebce82a919afb1c8764",
      "function": "sell(uint256)",
      "arguments": [
        "5486592496721756417"
      ],
      "transaction": {
        "from": "0xc77f7fed3b5cc8249adc428c5f44c9063b9734b4",
        "to": "0x8aafd3ede9adb0ff97c7aebce82a919afb1c8764",
        "gas": "0x15dca",
        "value": "0x0",
        "input": "0xe4849b320000000000000000000000000000000000000000000000004c244ace7a6c8101",
        "nonce": "0x11b4",
        "chainId": "0xaa36a7"
      },
      "additionalContracts": [],
      "isFixedGasLimit": false
    }
  ],
  "receipts": [
    {
      "status": "0x1",
      "cumulativeGasUsed": "0x97b496",
      "logs": [
        {
          "address": "0x8aafd3ede9adb0ff97c7aebce82a919afb1c8764",
          "topics": [
            "0xddf252ad1be2c89b69c2b068fc378daa952ba7f163c4a11628f55a4df523b3ef",
            "0x000000000000000000000000c77f7fed3b5cc8249adc428c5f44c9063b9734b4",
            "0x0000000000000000000000000000000000000000000000000000000000000000"
          ],
          "data": "0x0000000000000000000000000000000000000000000000004b885a979411861e",
          "blockHash": "0xf5590e798d1d6e0fe1679bb238cd34cdb375b990412ef99ac8087103edfa0f5d",
          "blockNumber": "0x731881",
          "transactionHash": "0x7690a8df6e743a115bf3d2082f8769c1b3c29e76db3345abb187de6fc377f0e2",
          "transactionIndex": "0x81",
          "logIndex": "0x89",
          "removed": false
        },
        {
          "address": "0x8aafd3ede9adb0ff97c7aebce82a919afb1c8764",
          "topics": [
            "0xddf252ad1be2c89b69c2b068fc378daa952ba7f163c4a11628f55a4df523b3ef",
            "0x000000000000000000000000c77f7fed3b5cc8249adc428c5f44c9063b9734b4",
            "0x000000000000000000000000c77f7fed3b5cc8249adc428c5f44c9063b9734b4"
          ],
          "data": "0x000000000000000000000000000000000000000000000000009bf036e65afae3",
          "blockHash": "0xf5590e798d1d6e0fe1679bb238cd34cdb375b990412ef99ac8087103edfa0f5d",
          "blockNumber": "0x731881",
          "transactionHash": "0x7690a8df6e743a115bf3d2082f8769c1b3c29e76db3345abb187de6fc377f0e2",
          "transactionIndex": "0x81",
          "logIndex": "0x8a",
          "removed": false
        },
        {
          "address": "0x8aafd3ede9adb0ff97c7aebce82a919afb1c8764",
          "topics": [
            "0x4afcb4a87cdbd9974efdb92ee48bc8d7cd0ae4bf217004db3d080cbaee652ca7"
          ],
          "data": "0x00000000000000000000000000000000000000000000000000000000679022dc0000000000000000000000000000000000000000000000000005264ed9ed3629000000000000000000000000000000000000000000000000001c40f92fdb840c",
          "blockHash": "0xf5590e798d1d6e0fe1679bb238cd34cdb375b990412ef99ac8087103edfa0f5d",
          "blockNumber": "0x731881",
          "transactionHash": "0x7690a8df6e743a115bf3d2082f8769c1b3c29e76db3345abb187de6fc377f0e2",
          "transactionIndex": "0x81",
          "logIndex": "0x8b",
          "removed": false
        }
      ],
      "logsBloom": "0x00000000000000000000000000000000000000000600000000000000000000000000000000000000000000000000000000000000000000004000000000000000000000000000004000000008000000000000000000000000000000000000000000000000020000000000000000000800020000000000000000000010000000000000000000000000000000000000000000000000000000000000010000000000000000000000000000000000000000004000000000000000000000000000000000000002000000800000000000000000000000000000080000000000000020000000000000000000000000000000000000000000000000000000000000000000",
      "type": "0x2",
      "transactionHash": "0x7690a8df6e743a115bf3d2082f8769c1b3c29e76db3345abb187de6fc377f0e2",
      "transactionIndex": "0x81",
      "blockHash": "0xf5590e798d1d6e0fe1679bb238cd34cdb375b990412ef99ac8087103edfa0f5d",
      "blockNumber": "0x731881",
      "gasUsed": "0xfd3f",
      "effectiveGasPrice": "0x487f8407",
      "from": "0xc77f7fed3b5cc8249adc428c5f44c9063b9734b4",
      "to": "0x8aafd3ede9adb0ff97c7aebce82a919afb1c8764",
      "contractAddress": null
    }
  ],
  "libraries": [],
  "pending": [],
  "returns": {},
  "timestamp": 1737499359,
  "chain": 11155111,
  "commit": "1d2fb70"
}