{
  "transactions": [
    {
      "hash": "0xf4f2c51878b01156233616e31389fb15c4db6a4b183986a627aea623e59ac74d",
      "transactionType": "CALL",
      "contractName": null,
      "contractAddress": "0x8aafd3ede9adb0ff97c7aebce82a919afb1c8764",
      "function": "sell(uint256)",
      "arguments": [
        "343931251717857"
      ],
      "transaction": {
        "from": "0xc77f7fed3b5cc8249adc428c5f44c9063b9734b4",
        "to": "0x8aafd3ede9adb0ff97c7aebce82a919afb1c8764",
        "gas": "0x1724d",
        "value": "0x0",
        "input": "0xe4849b32000000000000000000000000000000000000000000000000000138cdbc15f6e1",
        "nonce": "0x1274",
        "chainId": "0xaa36a7"
      },
      "additionalContracts": [],
      "isFixedGasLimit": false
    }
  ],
  "receipts": [
    {
      "status": "0x1",
      "cumulativeGasUsed": "0xe54d80",
      "logs": [
        {
          "address": "0x8aafd3ede9adb0ff97c7aebce82a919afb1c8764",
          "topics": [
            "0xddf252ad1be2c89b69c2b068fc378daa952ba7f163c4a11628f55a4df523b3ef",
            "0x000000000000000000000000c77f7fed3b5cc8249adc428c5f44c9063b9734b4",
            "0x0000000000000000000000000000000000000000000000000000000000000000"
          ],
          "data": "0x0000000000000000000000000000000000000000000000000001364d1ce296b3",
          "blockHash": "0xd1e8cce74b5026a6d705d0d6980dba434b0fa9041699c870e71c54bc87bf0fe2",
          "blockNumber": "0x73195d",
          "transactionHash": "0xf4f2c51878b01156233616e31389fb15c4db6a4b183986a627aea623e59ac74d",
          "transactionIndex": "0x89",
          "logIndex": "0xcc",
          "removed": false
        },
        {
          "address": "0x8aafd3ede9adb0ff97c7aebce82a919afb1c8764",
          "topics": [
            "0xddf252ad1be2c89b69c2b068fc378daa952ba7f163c4a11628f55a4df523b3ef",
            "0x000000000000000000000000c77f7fed3b5cc8249adc428c5f44c9063b9734b4",
            "0x000000000000000000000000c77f7fed3b5cc8249adc428c5f44c9063b9734b4"
          ],
          "data": "0x000000000000000000000000000000000000000000000000000002809f33602e",
          "blockHash": "0xd1e8cce74b5026a6d705d0d6980dba434b0fa9041699c870e71c54bc87bf0fe2",
          "blockNumber": "0x73195d",
          "transactionHash": "0xf4f2c51878b01156233616e31389fb15c4db6a4b183986a627aea623e59ac74d",
          "transactionIndex": "0x89",
          "logIndex": "0xcd",
          "removed": false
        },
        {
          "address": "0x8aafd3ede9adb0ff97c7aebce82a919afb1c8764",
          "topics": [
            "0x4afcb4a87cdbd9974efdb92ee48bc8d7cd0ae4bf217004db3d080cbaee652ca7"
          ],
          "data": "0x0000000000000000000000000000000000000000000000000000000067902d2c000000000000000000000000000000000000000000000000000541eab990d8a30000000000000000000000000000000000000000000000000000007680cda2e8",
          "blockHash": "0xd1e8cce74b5026a6d705d0d6980dba434b0fa9041699c870e71c54bc87bf0fe2",
          "blockNumber": "0x73195d",
          "transactionHash": "0xf4f2c51878b01156233616e31389fb15c4db6a4b183986a627aea623e59ac74d",
          "transactionIndex": "0x89",
          "logIndex": "0xce",
          "removed": false
        }
      ],
      "logsBloom": "0x00000000000000000000000000000000000000000600000000000000000000000000000000000000000000000000000000000000000000004000000000000000000000000000004000000008000000000000000000000000000000000000000000000000020000000000000000000800020000000000000000000010000000000000000000000000000000000000000000000000000000000000010000000000000000000000000000000000000000004000000000000000000000000000000000000002000000800000000000000000000000000000080000000000000020000000000000000000000000000000000000000000000000000000000000000000",
      "type": "0x2",
      "transactionHash": "0xf4f2c51878b01156233616e31389fb15c4db6a4b183986a627aea623e59ac74d",
      "transactionIndex": "0x89",
      "blockHash": "0xd1e8cce74b5026a6d705d0d6980dba434b0fa9041699c870e71c54bc87bf0fe2",
      "blockNumber": "0x73195d",
      "gasUsed": "0xfd33",
      "effectiveGasPrice": "0x3f7071c5",
      "from": "0xc77f7fed3b5cc8249adc428c5f44c9063b9734b4",
      "to": "0x8aafd3ede9adb0ff97c7aebce82a919afb1c8764",
      "contractAddress": null
    }
  ],
  "libraries": [],
  "pending": [],
  "returns": {},
  "timestamp": 1737501998,
  "chain": 11155111,
  "commit": "1d2fb70"
}