{
  "transactions": [
    {
      "hash": "0xa7849bcfc6e56a7ba27e35bf8643a3640fcff4dfe5f714f2c548c71985443901",
      "transactionType": "CALL",
      "contractName": null,
      "contractAddress": "0xbf4a322f1496e5c3d34a9bcdb4c60567b38c7de2",
      "function": "sell(uint256)",
      "arguments": [
        "973027148765247520748"
      ],
      "transaction": {
        "from": "0xc77f7fed3b5cc8249adc428c5f44c9063b9734b4",
        "to": "0xbf4a322f1496e5c3d34a9bcdb4c60567b38c7de2",
        "gas": "0x16fea",
        "value": "0x0",
        "input": "0xe4849b32000000000000000000000000000000000000000000000034bf76dc7bb3bf3fec",
        "nonce": "0xe23",
        "chainId": "0xaa36a7"
      },
      "additionalContracts": [],
      "isFixedGasLimit": false
    }
  ],
  "receipts": [
    {
      "status": "0x1",
      "cumulativeGasUsed": "0xcb489f",
      "logs": [
        {
          "address": "0xbf4a322f1496e5c3d34a9bcdb4c60567b38c7de2",
          "topics": [
            "0xddf252ad1be2c89b69c2b068fc378daa952ba7f163c4a11628f55a4df523b3ef",
            "0x000000000000000000000000c77f7fed3b5cc8249adc428c5f44c9063b9734b4",
            "0x0000000000000000000000000000000000000000000000000000000000000000"
          ],
          "data": "0x000000000000000000000000000000000000000000000034bf76dc7bb3bf3fec",
          "blockHash": "0x4b2e60a8b465a20fc020e826a27ce8bb6a3bb19f0b5826d07d992613225c334b",
          "blockNumber": "0x726712",
          "transactionHash": "0xa7849bcfc6e56a7ba27e35bf8643a3640fcff4dfe5f714f2c548c71985443901",
          "transactionIndex": "0x5c",
          "logIndex": "0x9e",
          "removed": false
        },
        {
          "address": "0xbf4a322f1496e5c3d34a9bcdb4c60567b38c7de2",
          "topics": [
            "0x4afcb4a87cdbd9974efdb92ee48bc8d7cd0ae4bf217004db3d080cbaee652ca7"
          ],
          "data": "0x000000000000000000000000000000000000000000000000000000006787c8480000000000000000000000000000000000000000000000000003a03106f63d7d0000000000000000000000000000000000000000000000000dc7e3d1daa38713",
          "blockHash": "0x4b2e60a8b465a20fc020e826a27ce8bb6a3bb19f0b5826d07d992613225c334b",
          "blockNumber": "0x726712",
          "transactionHash": "0xa7849bcfc6e56a7ba27e35bf8643a3640fcff4dfe5f714f2c548c71985443901",
          "transactionIndex": "0x5c",
          "logIndex": "0x9f",
          "removed": false
        }
      ],
      "logsBloom": "0x00000000000000000000000000000000000000000000000000000000000000000000000000000000000000000000000000000000000000004000000000000000000000000000000000000008000000000000001000000000000000000000000000000000020000000000000000000800020000000000000000000010000000000000000000000000000000000000000000000000000008000000010000000000000000000000000000000000000000004000000000000000000000000000000000000002000000800000000000001000000000000000080000000000000020000000000000000000000000000000000000000000000000000000000000000000",
      "type": "0x2",
      "transactionHash": "0xa7849bcfc6e56a7ba27e35bf8643a3640fcff4dfe5f714f2c548c71985443901",
      "transactionIndex": "0x5c",
      "blockHash": "0x4b2e60a8b465a20fc020e826a27ce8bb6a3bb19f0b5826d07d992613225c334b",
      "blockNumber": "0x726712",
      "gasUsed": "0xfb91",
      "effectiveGasPrice": "0x51c5f59c1",
      "from": "0xc77f7fed3b5cc8249adc428c5f44c9063b9734b4",
      "to": "0xbf4a322f1496e5c3d34a9bcdb4c60567b38c7de2",
      "contractAddress": null
    }
  ],
  "libraries": [],
  "pending": [],
  "returns": {},
  "timestamp": 1736951881,
  "chain": 11155111,
  "commit": "51a374b"
}