{
  "transactions": [
    {
      "hash": "0x4b10451f5c7a2eeac2f1634f5e34ce56de11b9cae9388aee45f566dbe2b9ea49",
      "transactionType": "CALL",
      "contractName": null,
      "contractAddress": "0x5eb9cc76c3506942c1c0ead70e877dd5e4f00cb0",
      "function": "buy(address)",
      "arguments": [
        "0xC77f7fed3b5Cc8249aDc428c5F44C9063B9734b4"
      ],
      "transaction": {
        "from": "0xc77f7fed3b5cc8249adc428c5f44c9063b9734b4",
        "to": "0x5eb9cc76c3506942c1c0ead70e877dd5e4f00cb0",
        "gas": "0x156c8",
        "value": "0xde0b6b3a7640000",
        "input": "0xf088d547000000000000000000000000c77f7fed3b5cc8249adc428c5f44c9063b9734b4",
        "nonce": "0x18a",
        "chainId": "0xaa36a7"
      },
      "additionalContracts": [],
      "isFixedGasLimit": false
    }
  ],
  "receipts": [
    {
      "status": "0x1",
      "cumulativeGasUsed": "0x22065d5",
      "logs": [
        {
          "address": "0x5eb9cc76c3506942c1c0ead70e877dd5e4f00cb0",
          "topics": [
            "0xddf252ad1be2c89b69c2b068fc378daa952ba7f163c4a11628f55a4df523b3ef",
            "0x0000000000000000000000000000000000000000000000000000000000000000",
            "0x000000000000000000000000c77f7fed3b5cc8249adc428c5f44c9063b9734b4"
          ],
          "data": "0x000000000000000000000000000000000000000000000035a38227b092935132",
          "blockHash": "0x0b1dbfdb3458187e4b2c59e05467cf3301ad9e33fbb4c70ccdbf891ec9269221",
          "blockNumber": "0x723c6e",
          "transactionHash": "0x4b10451f5c7a2eeac2f1634f5e34ce56de11b9cae9388aee45f566dbe2b9ea49",
          "transactionIndex": "0x50",
          "logIndex": "0x2f8",
          "removed": false
        },
        {
          "address": "0x5eb9cc76c3506942c1c0ead70e877dd5e4f00cb0",
          "topics": [
            "0xddf252ad1be2c89b69c2b068fc378daa952ba7f163c4a11628f55a4df523b3ef",
            "0x0000000000000000000000000000000000000000000000000000000000000000",
            "0x000000000000000000000000c77f7fed3b5cc8249adc428c5f44c9063b9734b4"
          ],
          "data": "0x00000000000000000000000000000000000000000000000029a6fc131c3c9cdb",
          "blockHash": "0x0b1dbfdb3458187e4b2c59e05467cf3301ad9e33fbb4c70ccdbf891ec9269221",
          "blockNumber": "0x723c6e",
          "transactionHash": "0x4b10451f5c7a2eeac2f1634f5e34ce56de11b9cae9388aee45f566dbe2b9ea49",
          "transactionIndex": "0x50",
          "logIndex": "0x2f9",
          "removed": false
        },
        {
          "address": "0x5eb9cc76c3506942c1c0ead70e877dd5e4f00cb0",
          "topics": [
            "0x4afcb4a87cdbd9974efdb92ee48bc8d7cd0ae4bf217004db3d080cbaee652ca7"
          ],
          "data": "0x000000000000000000000000000000000000000000000000000000006785c67c00000000000000000000000000000000000000000000000000038dfdddb174e70000000000000000000000000000000000000000000000000de0b6b3a7640000",
          "blockHash": "0x0b1dbfdb3458187e4b2c59e05467cf3301ad9e33fbb4c70ccdbf891ec9269221",
          "blockNumber": "0x723c6e",
          "transactionHash": "0x4b10451f5c7a2eeac2f1634f5e34ce56de11b9cae9388aee45f566dbe2b9ea49",
          "transactionIndex": "0x50",
          "logIndex": "0x2fa",
          "removed": false
        }
      ],
      "logsBloom": "0x00000000000000000000000000000000000000000000000000000000000000000000000000000000000000000000000000000000000000004000000000000000000000000000000000000008000000000000000000000000000000000000000000000000020000000000000004000800020000000000000000000010000000000000000000000000000000000000000000000000000000000000010000000000000000000000000000000000000000004000000000000000000000000000020000000002000000800000008000000000000000000000080000000000000020000000000000000000000000000000000000000000000000000000000000000000",
      "type": "0x2",
      "transactionHash": "0x4b10451f5c7a2eeac2f1634f5e34ce56de11b9cae9388aee45f566dbe2b9ea49",
      "transactionIndex": "0x50",
      "blockHash": "0x0b1dbfdb3458187e4b2c59e05467cf3301ad9e33fbb4c70ccdbf891ec9269221",
      "blockNumber": "0x723c6e",
      "gasUsed": "0xf82c",
      "effectiveGasPrice": "0x17322d9b2",
      "from": "0xc77f7fed3b5cc8249adc428c5f44c9063b9734b4",
      "to": "0x5eb9cc76c3506942c1c0ead70e877dd5e4f00cb0",
      "contractAddress": null
    }
  ],
  "libraries": [],
  "pending": [],
  "returns": {},
  "timestamp": 1736820349,
  "chain": 11155111,
  "commit": "51a374b"
}