{
  "transactions": [
    {
      "hash": "0x2b572201e97363f67ad1f7ef248b24cd827c123b4fb00febff3fbf44714c7300",
      "transactionType": "CALL",
      "contractName": null,
      "contractAddress": "0x8aafd3ede9adb0ff97c7aebce82a919afb1c8764",
      "function": "sell(uint256)",
      "arguments": [
        "42350461272056109"
      ],
      "transaction": {
        "from": "0xc77f7fed3b5cc8249adc428c5f44c9063b9734b4",
        "to": "0x8aafd3ede9adb0ff97c7aebce82a919afb1c8764",
        "gas": "0x1724d",
        "value": "0x0",
        "input": "0xe4849b32000000000000000000000000000000000000000000000000009675852831e12d",
        "nonce": "0x12ff",
        "chainId": "0xaa36a7"
      },
      "additionalContracts": [],
      "isFixedGasLimit": false
    }
  ],
  "receipts": [
    {
      "status": "0x1",
      "cumulativeGasUsed": "0x86cfc3",
      "logs": [
        {
          "address": "0x8aafd3ede9adb0ff97c7aebce82a919afb1c8764",
          "topics": [
            "0xddf252ad1be2c89b69c2b068fc378daa952ba7f163c4a11628f55a4df523b3ef",
            "0x000000000000000000000000c77f7fed3b5cc8249adc428c5f44c9063b9734b4",
            "0x0000000000000000000000000000000000000000000000000000000000000000"
          ],
          "data": "0x000000000000000000000000000000000000000000000000009541614697e16d",
          "blockHash": "0x3943ddc1b738466c0263e8eefb74c0089f3924b94ab61f220ab819173de18125",
          "blockNumber": "0x731a07",
          "transactionHash": "0x2b572201e97363f67ad1f7ef248b24cd827c123b4fb00febff3fbf44714c7300",
          "transactionIndex": "0x68",
          "logIndex": "0x92",
          "removed": false
        },
        {
          "address": "0x8aafd3ede9adb0ff97c7aebce82a919afb1c8764",
          "topics": [
            "0xddf252ad1be2c89b69c2b068fc378daa952ba7f163c4a11628f55a4df523b3ef",
            "0x000000000000000000000000c77f7fed3b5cc8249adc428c5f44c9063b9734b4",
            "0x000000000000000000000000c77f7fed3b5cc8249adc428c5f44c9063b9734b4"
          ],
          "data": "0x00000000000000000000000000000000000000000000000000013423e199ffc0",
          "blockHash": "0x3943ddc1b738466c0263e8eefb74c0089f3924b94ab61f220ab819173de18125",
          "blockNumber": "0x731a07",
          "transactionHash": "0x2b572201e97363f67ad1f7ef248b24cd827c123b4fb00febff3fbf44714c7300",
          "transactionIndex": "0x68",
          "logIndex": "0x93",
          "removed": false
        },
        {
          "address": "0x8aafd3ede9adb0ff97c7aebce82a919afb1c8764",
          "topics": [
            "0x4afcb4a87cdbd9974efdb92ee48bc8d7cd0ae4bf217004db3d080cbaee652ca7"
          ],
          "data": "0x0000000000000000000000000000000000000000000000000000000067903524000000000000000000000000000000000000000000000000000b41becd3315c500000000000000000000000000000000000000000000000000007a0b0a8b2bd9",
          "blockHash": "0x3943ddc1b738466c0263e8eefb74c0089f3924b94ab61f220ab819173de18125",
          "blockNumber": "0x731a07",
          "transactionHash": "0x2b572201e97363f67ad1f7ef248b24cd827c123b4fb00febff3fbf44714c7300",
          "transactionIndex": "0x68",
          "logIndex": "0x94",
          "removed": false
        }
      ],
      "logsBloom": "0x00000000000000000000000000000000000000000600000000000000000000000000000000000000000000000000000000000000000000004000000000000000000000000000004000000008000000000000000000000000000000000000000000000000020000000000000000000800020000000000000000000010000000000000000000000000000000000000000000000000000000000000010000000000000000000000000000000000000000004000000000000000000000000000000000000002000000800000000000000000000000000000080000000000000020000000000000000000000000000000000000000000000000000000000000000000",
      "type": "0x2",
      "transactionHash": "0x2b572201e97363f67ad1f7ef248b24cd827c123b4fb00febff3fbf44714c7300",
      "transactionIndex": "0x68",
      "blockHash": "0x3943ddc1b738466c0263e8eefb74c0089f3924b94ab61f220ab819173de18125",
      "blockNumber": "0x731a07",
      "gasUsed": "0xfd33",
      "effectiveGasPrice": "0x47a573fe",
      "from": "0xc77f7fed3b5cc8249adc428c5f44c9063b9734b4",
      "to": "0x8aafd3ede9adb0ff97c7aebce82a919afb1c8764",
      "contractAddress": null
    }
  ],
  "libraries": [],
  "pending": [],
  "returns": {},
  "timestamp": 1737504037,
  "chain": 11155111,
  "commit": "1d2fb70"
}