{
  "transactions": [
    {
      "hash": "0x7b5bc449e30d59b296d39904c1e00d79df9f235a2ca49e8d3731518efe96c3b1",
      "transactionType": "CALL",
      "contractName": null,
      "contractAddress": "0x5eb9cc76c3506942c1c0ead70e877dd5e4f00cb0",
      "function": "sell(uint256)",
      "arguments": [
        "989094262390957001630"
      ],
      "transaction": {
        "from": "0xc77f7fed3b5cc8249adc428c5f44c9063b9734b4",
        "to": "0x5eb9cc76c3506942c1c0ead70e877dd5e4f00cb0",
        "gas": "0x16fec",
        "value": "0x0",
        "input": "0xe4849b320000000000000000000000000000000000000000000000359e70b732d5ffcb9e",
        "nonce": "0x425",
        "chainId": "0xaa36a7"
      },
      "additionalContracts": [],
      "isFixedGasLimit": false
    }
  ],
  "receipts": [
    {
      "status": "0x1",
      "cumulativeGasUsed": "0x8e6031",
      "logs": [
        {
          "address": "0x5eb9cc76c3506942c1c0ead70e877dd5e4f00cb0",
          "topics": [
            "0xddf252ad1be2c89b69c2b068fc378daa952ba7f163c4a11628f55a4df523b3ef",
            "0x000000000000000000000000c77f7fed3b5cc8249adc428c5f44c9063b9734b4",
            "0x0000000000000000000000000000000000000000000000000000000000000000"
          ],
          "data": "0x0000000000000000000000000000000000000000000000359e70b732d5ffcb9e",
          "blockHash": "0xde7d3afcbc0b066fcc5e22415cae5812bf9a420ca198300ddd2870669bfe1572",
          "blockNumber": "0x72503a",
          "transactionHash": "0x7b5bc449e30d59b296d39904c1e00d79df9f235a2ca49e8d3731518efe96c3b1",
          "transactionIndex": "0x58",
          "logIndex": "0x9b",
          "removed": false
        },
        {
          "address": "0x5eb9cc76c3506942c1c0ead70e877dd5e4f00cb0",
          "topics": [
            "0x4afcb4a87cdbd9974efdb92ee48bc8d7cd0ae4bf217004db3d080cbaee652ca7"
          ],
          "data": "0x000000000000000000000000000000000000000000000000000000006786b48400000000000000000000000000000000000000000000000000039116d3f9f6cf0000000000000000000000000000000000000000000000000dc7db1331dd3d2c",
          "blockHash": "0xde7d3afcbc0b066fcc5e22415cae5812bf9a420ca198300ddd2870669bfe1572",
          "blockNumber": "0x72503a",
          "transactionHash": "0x7b5bc449e30d59b296d39904c1e00d79df9f235a2ca49e8d3731518efe96c3b1",
          "transactionIndex": "0x58",
          "logIndex": "0x9c",
          "removed": false
        }
      ],
      "logsBloom": "0x00000000000000000000000000000000000000000000000000000000000000000000000000000000000000000000000000000000000000004000000000000000000000000000000000000008000000000000000000000000000000000000000000000000020000000000000004000800020000000000000000000010000000000000000000000000000000000000000000000000000000000000010000000000000000000000000000000000000000004000000000000000000000000000020000000002000000800000008000000000000000000000080000000000000020000000000000000000000000000000000000000000000000000000000000000000",
      "type": "0x2",
      "transactionHash": "0x7b5bc449e30d59b296d39904c1e00d79df9f235a2ca49e8d3731518efe96c3b1",
      "transactionIndex": "0x58",
      "blockHash": "0xde7d3afcbc0b066fcc5e22415cae5812bf9a420ca198300ddd2870669bfe1572",
      "blockNumber": "0x72503a",
      "gasUsed": "0xfb93",
      "effectiveGasPrice": "0x2a9c02fa1",
      "from": "0xc77f7fed3b5cc8249adc428c5f44c9063b9734b4",
      "to": "0x5eb9cc76c3506942c1c0ead70e877dd5e4f00cb0",
      "contractAddress": null
    }
  ],
  "libraries": [],
  "pending": [],
  "returns": {},
  "timestamp": 1736881287,
  "chain": 11155111,
  "commit": "51a374b"
}