{
  "transactions": [
    {
      "hash": "0x756837c8cf9b9b60b1eae164fdcde5da050eff8952fa78c3cf1dd4862354fe82",
      "transactionType": "CALL",
      "contractName": null,
      "contractAddress": "0x270e88f8683660553e8ba4eb2ad7c91a1710d769",
      "function": "sell(uint256)",
      "arguments": [
        "752023102218097029999"
      ],
      "transaction": {
        "from": "0xc77f7fed3b5cc8249adc428c5f44c9063b9734b4",
        "to": "0x270e88f8683660553e8ba4eb2ad7c91a1710d769",
        "gas": "0x16fec",
        "value": "0x0",
        "input": "0xe4849b32000000000000000000000000000000000000000000000028c46ac31404f2736f",
        "nonce": "0x6b6",
        "chainId": "0xaa36a7"
      },
      "additionalContracts": [],
      "isFixedGasLimit": false
    }
  ],
  "receipts": [
    {
      "status": "0x1",
      "cumulativeGasUsed": "0x8850af",
      "logs": [
        {
          "address": "0x270e88f8683660553e8ba4eb2ad7c91a1710d769",
          "topics": [
            "0xddf252ad1be2c89b69c2b068fc378daa952ba7f163c4a11628f55a4df523b3ef",
            "0x000000000000000000000000c77f7fed3b5cc8249adc428c5f44c9063b9734b4",
            "0x0000000000000000000000000000000000000000000000000000000000000000"
          ],
          "data": "0x000000000000000000000000000000000000000000000028c46ac31404f2736f",
          "blockHash": "0xb3f497c0103416a729329c59c1bb2d27e020cb2eb6b262eb4d6b2b21c37fce27",
          "blockNumber": "0x7253c1",
          "transactionHash": "0x756837c8cf9b9b60b1eae164fdcde5da050eff8952fa78c3cf1dd4862354fe82",
          "transactionIndex": "0x48",
          "logIndex": "0x8f",
          "removed": false
        },
        {
          "address": "0x270e88f8683660553e8ba4eb2ad7c91a1710d769",
          "topics": [
            "0x4afcb4a87cdbd9974efdb92ee48bc8d7cd0ae4bf217004db3d080cbaee652ca7"
          ],
          "data": "0x000000000000000000000000000000000000000000000000000000006786df140000000000000000000000000000000000000000000000000004b13a620e0c170000000000000000000000000000000000000000000000000dc829be749e2df7",
          "blockHash": "0xb3f497c0103416a729329c59c1bb2d27e020cb2eb6b262eb4d6b2b21c37fce27",
          "blockNumber": "0x7253c1",
          "transactionHash": "0x756837c8cf9b9b60b1eae164fdcde5da050eff8952fa78c3cf1dd4862354fe82",
          "transactionIndex": "0x48",
          "logIndex": "0x90",
          "removed": false
        }
      ],
      "logsBloom": "0x00000000000000000000000000000000000000000000000000000000000000000000000000000000000000000000000020000000000000004000000000000000000000000000000000000008000000000000000000000000000000000000000000000000020000000000000000000800020000000000000000000010000000000000000000010000000000000000000000000000000000000000010000000000000000000000000000000000000000004000000000000000000000000000000000000002000000800000000000000000000000000000080000008000000020000000000000000000000000000000000000000000000000000000000000000000",
      "type": "0x2",
      "transactionHash": "0x756837c8cf9b9b60b1eae164fdcde5da050eff8952fa78c3cf1dd4862354fe82",
      "transactionIndex": "0x48",
      "blockHash": "0xb3f497c0103416a729329c59c1bb2d27e020cb2eb6b262eb4d6b2b21c37fce27",
      "blockNumber": "0x7253c1",
      "gasUsed": "0xfb93",
      "effectiveGasPrice": "0x189746d85",
      "from": "0xc77f7fed3b5cc8249adc428c5f44c9063b9734b4",
      "to": "0x270e88f8683660553e8ba4eb2ad7c91a1710d769",
      "contractAddress": null
    }
  ],
  "libraries": [],
  "pending": [],
  "returns": {},
  "timestamp": 1736892181,
  "chain": 11155111,
  "commit": "51a374b"
}