{
  "transactions": [
    {
      "hash": "0x774dc84791bd82cba3fc2eb75e71cf9deab169fab3c1dbd1dbf9e8fa71408dbf",
      "transactionType": "CALL",
      "contractName": null,
      "contractAddress": "0x270e88f8683660553e8ba4eb2ad7c91a1710d769",
      "function": "sell(uint256)",
      "arguments": [
        "709776471736289591434"
      ],
      "transaction": {
        "from": "0xc77f7fed3b5cc8249adc428c5f44c9063b9734b4",
        "to": "0x270e88f8683660553e8ba4eb2ad7c91a1710d769",
        "gas": "0x15b6b",
        "value": "0x0",
        "input": "0xe4849b320000000000000000000000000000000000000000000000267a20947cbba0008a",
        "nonce": "0x89e",
        "chainId": "0xaa36a7"
      },
      "additionalContracts": [],
      "isFixedGasLimit": false
    }
  ],
  "receipts": [
    {
      "status": "0x1",
      "cumulativeGasUsed": "0x429bdd",
      "logs": [
        {
          "address": "0x270e88f8683660553e8ba4eb2ad7c91a1710d769",
          "topics": [
            "0xddf252ad1be2c89b69c2b068fc378daa952ba7f163c4a11628f55a4df523b3ef",
            "0x000000000000000000000000c77f7fed3b5cc8249adc428c5f44c9063b9734b4",
            "0x0000000000000000000000000000000000000000000000000000000000000000"
          ],
          "data": "0x0000000000000000000000000000000000000000000000267a20947cbba0008a",
          "blockHash": "0x58acd55311f57524a59751a8260a0a87b235109741f3f21206d4176b22df6e92",
          "blockNumber": "0x7255fc",
          "transactionHash": "0x774dc84791bd82cba3fc2eb75e71cf9deab169fab3c1dbd1dbf9e8fa71408dbf",
          "transactionIndex": "0x34",
          "logIndex": "0x37",
          "removed": false
        },
        {
          "address": "0x270e88f8683660553e8ba4eb2ad7c91a1710d769",
          "topics": [
            "0x4afcb4a87cdbd9974efdb92ee48bc8d7cd0ae4bf217004db3d080cbaee652ca7"
          ],
          "data": "0x000000000000000000000000000000000000000000000000000000006786f9d80000000000000000000000000000000000000000000000000004f8b5833b10d40000000000000000000000000000000000000000000000000dc8255ed283c40b",
          "blockHash": "0x58acd55311f57524a59751a8260a0a87b235109741f3f21206d4176b22df6e92",
          "blockNumber": "0x7255fc",
          "transactionHash": "0x774dc84791bd82cba3fc2eb75e71cf9deab169fab3c1dbd1dbf9e8fa71408dbf",
          "transactionIndex": "0x34",
          "logIndex": "0x38",
          "removed": false
        }
      ],
      "logsBloom": "0x00000000000000000000000000000000000000000000000000000000000000000000000000000000000000000000000020000000000000004000000000000000000000000000000000000008000000000000000000000000000000000000000000000000020000000000000000000800020000000000000000000010000000000000000000010000000000000000000000000000000000000000010000000000000000000000000000000000000000004000000000000000000000000000000000000002000000800000000000000000000000000000080000008000000020000000000000000000000000000000000000000000000000000000000000000000",
      "type": "0x2",
      "transactionHash": "0x774dc84791bd82cba3fc2eb75e71cf9deab169fab3c1dbd1dbf9e8fa71408dbf",
      "transactionIndex": "0x34",
      "blockHash": "0x58acd55311f57524a59751a8260a0a87b235109741f3f21206d4176b22df6e92",
      "blockNumber": "0x7255fc",
      "gasUsed": "0xfb87",
      "effectiveGasPrice": "0x98c3bd85",
      "from": "0xc77f7fed3b5cc8249adc428c5f44c9063b9734b4",
      "to": "0x270e88f8683660553e8ba4eb2ad7c91a1710d769",
      "contractAddress": null
    }
  ],
  "libraries": [],
  "pending": [],
  "returns": {},
  "timestamp": 1736899033,
  "chain": 11155111,
  "commit": "51a374b"
}