{
  "transactions": [
    {
      "hash": "0x1e391ce89a56b47da41d79b13337d9f0d4af88b1f2354a8a57ab5d66f1bc3771",
      "transactionType": "CALL",
      "contractName": null,
      "contractAddress": "0x8aafd3ede9adb0ff97c7aebce82a919afb1c8764",
      "function": "sell(uint256)",
      "arguments": [
        "104975450145861"
      ],
      "transaction": {
        "from": "0xc77f7fed3b5cc8249adc428c5f44c9063b9734b4",
        "to": "0x8aafd3ede9adb0ff97c7aebce82a919afb1c8764",
        "gas": "0x15daa",
        "value": "0x0",
        "input": "0xe4849b3200000000000000000000000000000000000000000000000000005f79806a8445",
        "nonce": "0x1514",
        "chainId": "0xaa36a7"
      },
      "additionalContracts": [],
      "isFixedGasLimit": false
    }
  ],
  "receipts": [
    {
      "status": "0x1",
      "cumulativeGasUsed": "0x10406ea",
      "logs": [
        {
          "address": "0x8aafd3ede9adb0ff97c7aebce82a919afb1c8764",
          "topics": [
            "0xddf252ad1be2c89b69c2b068fc378daa952ba7f163c4a11628f55a4df523b3ef",
            "0x000000000000000000000000c77f7fed3b5cc8249adc428c5f44c9063b9734b4",
            "0x0000000000000000000000000000000000000000000000000000000000000000"
          ],
          "data": "0x00000000000000000000000000000000000000000000000000005eb5f8388337",
          "blockHash": "0xe0d29a9e7d71c3c24787e609fd95f6d7970905459912cf7167402bae152a45df",
          "blockNumber": "0x731c76",
          "transactionHash": "0x1e391ce89a56b47da41d79b13337d9f0d4af88b1f2354a8a57ab5d66f1bc3771",
          "transactionIndex": "0x90",
          "logIndex": "0xf7",
          "removed": false
        },
        {
          "address": "0x8aafd3ede9adb0ff97c7aebce82a919afb1c8764",
          "topics": [
            "0xddf252ad1be2c89b69c2b068fc378daa952ba7f163c4a11628f55a4df523b3ef",
            "0x000000000000000000000000c77f7fed3b5cc8249adc428c5f44c9063b9734b4",
            "0x000000000000000000000000c77f7fed3b5cc8249adc428c5f44c9063b9734b4"
          ],
          "data": "0x000000000000000000000000000000000000000000000000000000c38832010e",
          "blockHash": "0xe0d29a9e7d71c3c24787e609fd95f6d7970905459912cf7167402bae152a45df",
          "blockNumber": "0x731c76",
          "transactionHash": "0x1e391ce89a56b47da41d79b13337d9f0d4af88b1f2354a8a57ab5d66f1bc3771",
          "transactionIndex": "0x90",
          "logIndex": "0xf8",
          "removed": false
        },
        {
          "address": "0x8aafd3ede9adb0ff97c7aebce82a919afb1c8764",
          "topics": [
            "0x4afcb4a87cdbd9974efdb92ee48bc8d7cd0ae4bf217004db3d080cbaee652ca7"
          ],
          "data": "0x000000000000000000000000000000000000000000000000000000006790526400000000000000000000000000000000000000000000000000114f6e85981ac40000000000000000000000000000000000000000000000000000007716caef06",
          "blockHash": "0xe0d29a9e7d71c3c24787e609fd95f6d7970905459912cf7167402bae152a45df",
          "blockNumber": "0x731c76",
          "transactionHash": "0x1e391ce89a56b47da41d79b13337d9f0d4af88b1f2354a8a57ab5d66f1bc3771",
          "transactionIndex": "0x90",
          "logIndex": "0xf9",
          "removed": false
        }
      ],
      "logsBloom": "0x00000000000000000000000000000000000000000600000000000000000000000000000000000000000000000000000000000000000000004000000000000000000000000000004000000008000000000000000000000000000000000000000000000000020000000000000000000800020000000000000000000010000000000000000000000000000000000000000000000000000000000000010000000000000000000000000000000000000000004000000000000000000000000000000000000002000000800000000000000000000000000000080000000000000020000000000000000000000000000000000000000000000000000000000000000000",
      "type": "0x2",
      "transactionHash": "0x1e391ce89a56b47da41d79b13337d9f0d4af88b1f2354a8a57ab5d66f1bc3771",
      "transactionIndex": "0x90",
      "blockHash": "0xe0d29a9e7d71c3c24787e609fd95f6d7970905459912cf7167402bae152a45df",
      "blockNumber": "0x731c76",
      "gasUsed": "0xfd27",
      "effectiveGasPrice": "0x15f3f14d1",
      "from": "0xc77f7fed3b5cc8249adc428c5f44c9063b9734b4",
      "to": "0x8aafd3ede9adb0ff97c7aebce82a919afb1c8764",
      "contractAddress": null
    }
  ],
  "libraries": [],
  "pending": [],
  "returns": {},
  "timestamp": 1737511525,
  "chain": 11155111,
  "commit": "1d2fb70"
}