{
  "transactions": [
    {
      "hash": "0xab185ac1c5239864f8b7698825ff491faa591c44005d48c9653c5d2b41bf3662",
      "transactionType": "CALL",
      "contractName": null,
      "contractAddress": "0x8aafd3ede9adb0ff97c7aebce82a919afb1c8764",
      "function": "sell(uint256)",
      "arguments": [
        "700506632346405036731"
      ],
      "transaction": {
        "from": "0xc77f7fed3b5cc8249adc428c5f44c9063b9734b4",
        "to": "0x8aafd3ede9adb0ff97c7aebce82a919afb1c8764",
        "gas": "0x17270",
        "value": "0x0",
        "input": "0xe4849b32000000000000000000000000000000000000000000000025f97b7ead04a1e2bb",
        "nonce": "0x10f5",
        "chainId": "0xaa36a7"
      },
      "additionalContracts": [],
      "isFixedGasLimit": false
    }
  ],
  "receipts": [
    {
      "status": "0x1",
      "cumulativeGasUsed": "0x21d09dc",
      "logs": [
        {
          "address": "0x8aafd3ede9adb0ff97c7aebce82a919afb1c8764",
          "topics": [
            "0xddf252ad1be2c89b69c2b068fc378daa952ba7f163c4a11628f55a4df523b3ef",
            "0x000000000000000000000000c77f7fed3b5cc8249adc428c5f44c9063b9734b4",
            "0x0000000000000000000000000000000000000000000000000000000000000000"
          ],
          "data": "0x000000000000000000000000000000000000000000000025abb5e61c46219d56",
          "blockHash": "0xfcc681c86320f7e16a5bb355fca35a02f83049739ca5ac60ebc26ccb42a337c6",
          "blockNumber": "0x73179d",
          "transactionHash": "0xab185ac1c5239864f8b7698825ff491faa591c44005d48c9653c5d2b41bf3662",
          "transactionIndex": "0x89",
          "logIndex": "0x10ef",
          "removed": false
        },
        {
          "address": "0x8aafd3ede9adb0ff97c7aebce82a919afb1c8764",
          "topics": [
            "0xddf252ad1be2c89b69c2b068fc378daa952ba7f163c4a11628f55a4df523b3ef",
            "0x000000000000000000000000c77f7fed3b5cc8249adc428c5f44c9063b9734b4",
            "0x000000000000000000000000c77f7fed3b5cc8249adc428c5f44c9063b9734b4"
          ],
          "data": "0x0000000000000000000000000000000000000000000000004dc59890be804565",
          "blockHash": "0xfcc681c86320f7e16a5bb355fca35a02f83049739ca5ac60ebc26ccb42a337c6",
          "blockNumber": "0x73179d",
          "transactionHash": "0xab185ac1c5239864f8b7698825ff491faa591c44005d48c9653c5d2b41bf3662",
          "transactionIndex": "0x89",
          "logIndex": "0x10f0",
          "removed": false
        },
        {
          "address": "0x8aafd3ede9adb0ff97c7aebce82a919afb1c8764",
          "topics": [
            "0x4afcb4a87cdbd9974efdb92ee48bc8d7cd0ae4bf217004db3d080cbaee652ca7"
          ],
          "data": "0x000000000000000000000000000000000000000000000000000000006790182000000000000000000000000000000000000000000000000000050ab2b996dd950000000000000000000000000000000000000000000000000dc8f9d9876b6840",
          "blockHash": "0xfcc681c86320f7e16a5bb355fca35a02f83049739ca5ac60ebc26ccb42a337c6",
          "blockNumber": "0x73179d",
          "transactionHash": "0xab185ac1c5239864f8b7698825ff491faa591c44005d48c9653c5d2b41bf3662",
          "transactionIndex": "0x89",
          "logIndex": "0x10f1",
          "removed": false
        }
      ],
      "logsBloom": "0x00000000000000000000000000000000000000000600000000000000000000000000000000000000000000000000000000000000000000004000000000000000000000000000004000000008000000000000000000000000000000000000000000000000020000000000000000000800020000000000000000000010000000000000000000000000000000000000000000000000000000000000010000000000000000000000000000000000000000004000000000000000000000000000000000000002000000800000000000000000000000000000080000000000000020000000000000000000000000000000000000000000000000000000000000000000",
      "type": "0x2",
      "transactionHash": "0xab185ac1c5239864f8b7698825ff491faa591c44005d48c9653c5d2b41bf3662",
      "transactionIndex": "0x89",
      "blockHash": "0xfcc681c86320f7e16a5bb355fca35a02f83049739ca5ac60ebc26ccb42a337c6",
      "blockNumber": "0x73179d",
      "gasUsed": "0xfd4b",
      "effectiveGasPrice": "0x3b290e0e",
      "from": "0xc77f7fed3b5cc8249adc428c5f44c9063b9734b4",
      "to": "0x8aafd3ede9adb0ff97c7aebce82a919afb1c8764",
      "contractAddress": null
    }
  ],
  "libraries": [],
  "pending": [],
  "returns": {},
  "timestamp": 1737496610,
  "chain": 11155111,
  "commit": "1d2fb70"
}