{
  "transactions": [
    {
      "hash": "0x4af9480dd022d3ff3f29817cf4408f2f7073e11aba33646699c4239064a4b37f",
      "transactionType": "CALL",
      "contractName": null,
      "contractAddress": "0x8aafd3ede9adb0ff97c7aebce82a919afb1c8764",
      "function": "sell(uint256)",
      "arguments": [
        "90228728427422"
      ],
      "transaction": {
        "from": "0xc77f7fed3b5cc8249adc428c5f44c9063b9734b4",
        "to": "0x8aafd3ede9adb0ff97c7aebce82a919afb1c8764",
        "gas": "0x15daa",
        "value": "0x0",
        "input": "0xe4849b3200000000000000000000000000000000000000000000000000005210034e739e",
        "nonce": "0x1607",
        "chainId": "0xaa36a7"
      },
      "additionalContracts": [],
      "isFixedGasLimit": false
    }
  ],
  "receipts": [
    {
      "status": "0x1",
      "cumulativeGasUsed": "0xbea739",
      "logs": [
        {
          "address": "0x8aafd3ede9adb0ff97c7aebce82a919afb1c8764",
          "topics": [
            "0xddf252ad1be2c89b69c2b068fc378daa952ba7f163c4a11628f55a4df523b3ef",
            "0x000000000000000000000000c77f7fed3b5cc8249adc428c5f44c9063b9734b4",
            "0x0000000000000000000000000000000000000000000000000000000000000000"
          ],
          "data": "0x00000000000000000000000000000000000000000000000000005167f2e56043",
          "blockHash": "0x17474274a4f07f1d3ff78bbf69db69f7d94815855b66c35e209045eb926b23db",
          "blockNumber": "0x731d9a",
          "transactionHash": "0x4af9480dd022d3ff3f29817cf4408f2f7073e11aba33646699c4239064a4b37f",
          "transactionIndex": "0x68",
          "logIndex": "0xba",
          "removed": false
        },
        {
          "address": "0x8aafd3ede9adb0ff97c7aebce82a919afb1c8764",
          "topics": [
            "0xddf252ad1be2c89b69c2b068fc378daa952ba7f163c4a11628f55a4df523b3ef",
            "0x000000000000000000000000c77f7fed3b5cc8249adc428c5f44c9063b9734b4",
            "0x000000000000000000000000c77f7fed3b5cc8249adc428c5f44c9063b9734b4"
          ],
          "data": "0x000000000000000000000000000000000000000000000000000000a81069135b",
          "blockHash": "0x17474274a4f07f1d3ff78bbf69db69f7d94815855b66c35e209045eb926b23db",
          "blockNumber": "0x731d9a",
          "transactionHash": "0x4af9480dd022d3ff3f29817cf4408f2f7073e11aba33646699c4239064a4b37f",
          "transactionIndex": "0x68",
          "logIndex": "0xbb",
          "removed": false
        },
        {
          "address": "0x8aafd3ede9adb0ff97c7aebce82a919afb1c8764",
          "topics": [
            "0x4afcb4a87cdbd9974efdb92ee48bc8d7cd0ae4bf217004db3d080cbaee652ca7"
          ],
          "data": "0x000000000000000000000000000000000000000000000000000000006790602000000000000000000000000000000000000000000000000000141f8d1613981700000000000000000000000000000000000000000000000000000076fe4e6866",
          "blockHash": "0x17474274a4f07f1d3ff78bbf69db69f7d94815855b66c35e209045eb926b23db",
          "blockNumber": "0x731d9a",
          "transactionHash": "0x4af9480dd022d3ff3f29817cf4408f2f7073e11aba33646699c4239064a4b37f",
          "transactionIndex": "0x68",
          "logIndex": "0xbc",
          "removed": false
        }
      ],
      "logsBloom": "0x00000000000000000000000000000000000000000600000000000000000000000000000000000000000000000000000000000000000000004000000000000000000000000000004000000008000000000000000000000000000000000000000000000000020000000000000000000800020000000000000000000010000000000000000000000000000000000000000000000000000000000000010000000000000000000000000000000000000000004000000000000000000000000000000000000002000000800000000000000000000000000000080000000000000020000000000000000000000000000000000000000000000000000000000000000000",
      "type": "0x2",
      "transactionHash": "0x4af9480dd022d3ff3f29817cf4408f2f7073e11aba33646699c4239064a4b37f",
      "transactionIndex": "0x68",
      "blockHash": "0x17474274a4f07f1d3ff78bbf69db69f7d94815855b66c35e209045eb926b23db",
      "blockNumber": "0x731d9a",
      "gasUsed": "0xfd27",
      "effectiveGasPrice": "0x5f782e8c",
      "from": "0xc77f7fed3b5cc8249adc428c5f44c9063b9734b4",
      "to": "0x8aafd3ede9adb0ff97c7aebce82a919afb1c8764",
      "contractAddress": null
    }
  ],
  "libraries": [],
  "pending": [],
  "returns": {},
  "timestamp": 1737515042,
  "chain": 11155111,
  "commit": "1d2fb70"
}