{
  "transactions": [
    {
      "hash": "0x195ef8f2c64b628a862a52515c65b7ab853bd49005830a9028d680326424a699",
      "transactionType": "CALL",
      "contractName": null,
      "contractAddress": "0x8aafd3ede9adb0ff97c7aebce82a919afb1c8764",
      "function": "sell(uint256)",
      "arguments": [
        "20057421895302859"
      ],
      "transaction": {
        "from": "0xc77f7fed3b5cc8249adc428c5f44c9063b9734b4",
        "to": "0x8aafd3ede9adb0ff97c7aebce82a919afb1c8764",
        "gas": "0x1724d",
        "value": "0x0",
        "input": "0xe4849b320000000000000000000000000000000000000000000000000047421e732dfecb",
        "nonce": "0x1309",
        "chainId": "0xaa36a7"
      },
      "additionalContracts": [],
      "isFixedGasLimit": false
    }
  ],
  "receipts": [
    {
      "status": "0x1",
      "cumulativeGasUsed": "0xfd2485",
      "logs": [
        {
          "address": "0x8aafd3ede9adb0ff97c7aebce82a919afb1c8764",
          "topics": [
            "0xddf252ad1be2c89b69c2b068fc378daa952ba7f163c4a11628f55a4df523b3ef",
            "0x000000000000000000000000c77f7fed3b5cc8249adc428c5f44c9063b9734b4",
            "0x0000000000000000000000000000000000000000000000000000000000000000"
          ],
          "data": "0x0000000000000000000000000000000000000000000000000046b02e971f4a95",
          "blockHash": "0x091898d287f47bf813a744f695f968332286eb9f2a550b33e33b164bdcf128ea",
          "blockNumber": "0x731a13",
          "transactionHash": "0x195ef8f2c64b628a862a52515c65b7ab853bd49005830a9028d680326424a699",
          "transactionIndex": "0x96",
          "logIndex": "0xee",
          "removed": false
        },
        {
          "address": "0x8aafd3ede9adb0ff97c7aebce82a919afb1c8764",
          "topics": [
            "0xddf252ad1be2c89b69c2b068fc378daa952ba7f163c4a11628f55a4df523b3ef",
            "0x000000000000000000000000c77f7fed3b5cc8249adc428c5f44c9063b9734b4",
            "0x000000000000000000000000c77f7fed3b5cc8249adc428c5f44c9063b9734b4"
          ],
          "data": "0x000000000000000000000000000000000000000000000000000091efdc0eb436",
          "blockHash": "0x091898d287f47bf813a744f695f968332286eb9f2a550b33e33b164bdcf128ea",
          "blockNumber": "0x731a13",
          "transactionHash": "0x195ef8f2c64b628a862a52515c65b7ab853bd49005830a9028d680326424a699",
          "transactionIndex": "0x96",
          "logIndex": "0xef",
          "removed": false
        },
        {
          "address": "0x8aafd3ede9adb0ff97c7aebce82a919afb1c8764",
          "topics": [
            "0x4afcb4a87cdbd9974efdb92ee48bc8d7cd0ae4bf217004db3d080cbaee652ca7"
          ],
          "data": "0x00000000000000000000000000000000000000000000000000000000679035b4000000000000000000000000000000000000000000000000000b5ba59cc6f0a200000000000000000000000000000000000000000000000000003a51e358e6dd",
          "blockHash": "0x091898d287f47bf813a744f695f968332286eb9f2a550b33e33b164bdcf128ea",
          "blockNumber": "0x731a13",
          "transactionHash": "0x195ef8f2c64b628a862a52515c65b7ab853bd49005830a9028d680326424a699",
          "transactionIndex": "0x96",
          "logIndex": "0xf0",
          "removed": false
        }
      ],
      "logsBloom": "0x00000000000000000000000000000000000000000600000000000000000000000000000000000000000000000000000000000000000000004000000000000000000000000000004000000008000000000000000000000000000000000000000000000000020000000000000000000800020000000000000000000010000000000000000000000000000000000000000000000000000000000000010000000000000000000000000000000000000000004000000000000000000000000000000000000002000000800000000000000000000000000000080000000000000020000000000000000000000000000000000000000000000000000000000000000000",
      "type": "0x2",
      "transactionHash": "0x195ef8f2c64b628a862a52515c65b7ab853bd49005830a9028d680326424a699",
      "transactionIndex": "0x96",
      "blockHash": "0x091898d287f47bf813a744f695f968332286eb9f2a550b33e33b164bdcf128ea",
      "blockNumber": "0x731a13",
      "gasUsed": "0xfd33",
      "effectiveGasPrice": "0x40e49901",
      "from": "0xc77f7fed3b5cc8249adc428c5f44c9063b9734b4",
      "to": "0x8aafd3ede9adb0ff97c7aebce82a919afb1c8764",
      "contractAddress": null
    }
  ],
  "libraries": [],
  "pending": [],
  "returns": {},
  "timestamp": 1737504181,
  "chain": 11155111,
  "commit": "1d2fb70"
}