{
  "transactions": [
    {
      "hash": "0xbef74680f9c933220794f3505d4881bd0e53886cb166f689db4651ab33208573",
      "transactionType": "CALL",
      "contractName": null,
      "contractAddress": "0x8aafd3ede9adb0ff97c7aebce82a919afb1c8764",
      "function": "sell(uint256)",
      "arguments": [
        "177435295"
      ],
      "transaction": {
        "from": "0xc77f7fed3b5cc8249adc428c5f44c9063b9734b4",
        "to": "0x8aafd3ede9adb0ff97c7aebce82a919afb1c8764",
        "gas": "0x14e6c",
        "value": "0x0",
        "input": "0xe4849b32000000000000000000000000000000000000000000000000000000000a93729f",
        "nonce": "0x1231",
        "chainId": "0xaa36a7"
      },
      "additionalContracts": [],
      "isFixedGasLimit": false
    }
  ],
  "receipts": [
    {
      "status": "0x1",
      "cumulativeGasUsed": "0x8244b1",
      "logs": [
        {
          "address": "0x8aafd3ede9adb0ff97c7aebce82a919afb1c8764",
          "topics": [
            "0xddf252ad1be2c89b69c2b068fc378daa952ba7f163c4a11628f55a4df523b3ef",
            "0x000000000000000000000000c77f7fed3b5cc8249adc428c5f44c9063b9734b4",
            "0x0000000000000000000000000000000000000000000000000000000000000000"
          ],
          "data": "0x000000000000000000000000000000000000000000000000000000000a7dc9c5",
          "blockHash": "0x1c8a332b2caadbfab1ff81963bea056b1230b4dec3930d1ba2b28067882e7bc9",
          "blockNumber": "0x73190f",
          "transactionHash": "0xbef74680f9c933220794f3505d4881bd0e53886cb166f689db4651ab33208573",
          "transactionIndex": "0x6c",
          "logIndex": "0x93",
          "removed": false
        },
        {
          "address": "0x8aafd3ede9adb0ff97c7aebce82a919afb1c8764",
          "topics": [
            "0xddf252ad1be2c89b69c2b068fc378daa952ba7f163c4a11628f55a4df523b3ef",
            "0x000000000000000000000000c77f7fed3b5cc8249adc428c5f44c9063b9734b4",
            "0x000000000000000000000000c77f7fed3b5cc8249adc428c5f44c9063b9734b4"
          ],
          "data": "0x000000000000000000000000000000000000000000000000000000000015a8da",
          "blockHash": "0x1c8a332b2caadbfab1ff81963bea056b1230b4dec3930d1ba2b28067882e7bc9",
          "blockNumber": "0x73190f",
          "transactionHash": "0xbef74680f9c933220794f3505d4881bd0e53886cb166f689db4651ab33208573",
          "transactionIndex": "0x6c",
          "logIndex": "0x94",
          "removed": false
        },
        {
          "address": "0x8aafd3ede9adb0ff97c7aebce82a919afb1c8764",
          "topics": [
            "0x4afcb4a87cdbd9974efdb92ee48bc8d7cd0ae4bf217004db3d080cbaee652ca7"
          ],
          "data": "0x0000000000000000000000000000000000000000000000000000000067902984000000000000000000000000000000000000000000000000000537be91236b31000000000000000000000000000000000000000000000000000000000003f9f1",
          "blockHash": "0x1c8a332b2caadbfab1ff81963bea056b1230b4dec3930d1ba2b28067882e7bc9",
          "blockNumber": "0x73190f",
          "transactionHash": "0xbef74680f9c933220794f3505d4881bd0e53886cb166f689db4651ab33208573",
          "transactionIndex": "0x6c",
          "logIndex": "0x95",
          "removed": false
        }
      ],
      "logsBloom": "0x00000000000000000000000000000000000000000600000000000000000000000000000000000000000000000000000000000000000000004000000000000000000000000000004000000008000000000000000000000000000000000000000000000000020000000000000000000800020000000000000000000010000000000000000000000000000000000000000000000000000000000000010000000000000000000000000000000000000000004000000000000000000000000000000000000002000000800000000000000000000000000000080000000000000020000000000000000000000000000000000000000000000000000000000000000000",
      "type": "0x2",
      "transactionHash": "0xbef74680f9c933220794f3505d4881bd0e53886cb166f689db4651ab33208573",
      "transactionIndex": "0x6c",
      "blockHash": "0x1c8a332b2caadbfab1ff81963bea056b1230b4dec3930d1ba2b28067882e7bc9",
      "blockNumber": "0x73190f",
      "gasUsed": "0xf21f",
      "effectiveGasPrice": "0x4a27cd7c",
      "from": "0xc77f7fed3b5cc8249adc428c5f44c9063b9734b4",
      "to": "0x8aafd3ede9adb0ff97c7aebce82a919afb1c8764",
      "contractAddress": null
    }
  ],
  "libraries": [],
  "pending": [],
  "returns": {},
  "timestamp": 1737501061,
  "chain": 11155111,
  "commit": "1d2fb70"
}