{
  "transactions": [
    {
      "hash": "0xb43f0b18417fcf4a9048b03b8e65d05b3e29737bcdd264efe66b9f4476b4814c",
      "transactionType": "CALL",
      "contractName": null,
      "contractAddress": "0x8aafd3ede9adb0ff97c7aebce82a919afb1c8764",
      "function": "sell(uint256)",
      "arguments": [
        "157625012581255"
      ],
      "transaction": {
        "from": "0xc77f7fed3b5cc8249adc428c5f44c9063b9734b4",
        "to": "0x8aafd3ede9adb0ff97c7aebce82a919afb1c8764",
        "gas": "0x15daa",
        "value": "0x0",
        "input": "0xe4849b3200000000000000000000000000000000000000000000000000008f5beee1f387",
        "nonce": "0x131c",
        "chainId": "0xaa36a7"
      },
      "additionalContracts": [],
      "isFixedGasLimit": false
    }
  ],
  "receipts": [
    {
      "status": "0x1",
      "cumulativeGasUsed": "0xaaf875",
      "logs": [
        {
          "address": "0x8aafd3ede9adb0ff97c7aebce82a919afb1c8764",
          "topics": [
            "0xddf252ad1be2c89b69c2b068fc378daa952ba7f163c4a11628f55a4df523b3ef",
            "0x000000000000000000000000c77f7fed3b5cc8249adc428c5f44c9063b9734b4",
            "0x0000000000000000000000000000000000000000000000000000000000000000"
          ],
          "data": "0x00000000000000000000000000000000000000000000000000008e36556b685d",
          "blockHash": "0x71682adf7c1b9d7704b1a7f7ffc1bcef89ad2ac1ebb08333a545a208a0aaf31a",
          "blockNumber": "0x731a29",
          "transactionHash": "0xb43f0b18417fcf4a9048b03b8e65d05b3e29737bcdd264efe66b9f4476b4814c",
          "transactionIndex": "0xb0",
          "logIndex": "0x9a",
          "removed": false
        },
        {
          "address": "0x8aafd3ede9adb0ff97c7aebce82a919afb1c8764",
          "topics": [
            "0xddf252ad1be2c89b69c2b068fc378daa952ba7f163c4a11628f55a4df523b3ef",
            "0x000000000000000000000000c77f7fed3b5cc8249adc428c5f44c9063b9734b4",
            "0x000000000000000000000000c77f7fed3b5cc8249adc428c5f44c9063b9734b4"
          ],
          "data": "0x0000000000000000000000000000000000000000000000000000012599768b2a",
          "blockHash": "0x71682adf7c1b9d7704b1a7f7ffc1bcef89ad2ac1ebb08333a545a208a0aaf31a",
          "blockNumber": "0x731a29",
          "transactionHash": "0xb43f0b18417fcf4a9048b03b8e65d05b3e29737bcdd264efe66b9f4476b4814c",
          "transactionIndex": "0xb0",
          "logIndex": "0x9b",
          "removed": false
        },
        {
          "address": "0x8aafd3ede9adb0ff97c7aebce82a919afb1c8764",
          "topics": [
            "0x4afcb4a87cdbd9974efdb92ee48bc8d7cd0ae4bf217004db3d080cbaee652ca7"
          ],
          "data": "0x00000000000000000000000000000000000000000000000000000000679036bc000000000000000000000000000000000000000000000000000b8f7f09a659f3000000000000000000000000000000000000000000000000000000776bee1252",
          "blockHash": "0x71682adf7c1b9d7704b1a7f7ffc1bcef89ad2ac1ebb08333a545a208a0aaf31a",
          "blockNumber": "0x731a29",
          "transactionHash": "0xb43f0b18417fcf4a9048b03b8e65d05b3e29737bcdd264efe66b9f4476b4814c",
          "transactionIndex": "0xb0",
          "logIndex": "0x9c",
          "removed": false
        }
      ],
      "logsBloom": "0x00000000000000000000000000000000000000000600000000000000000000000000000000000000000000000000000000000000000000004000000000000000000000000000004000000008000000000000000000000000000000000000000000000000020000000000000000000800020000000000000000000010000000000000000000000000000000000000000000000000000000000000010000000000000000000000000000000000000000004000000000000000000000000000000000000002000000800000000000000000000000000000080000000000000020000000000000000000000000000000000000000000000000000000000000000000",
      "type": "0x2",
      "transactionHash": "0xb43f0b18417fcf4a9048b03b8e65d05b3e29737bcdd264efe66b9f4476b4814c",
      "transactionIndex": "0xb0",
      "blockHash": "0x71682adf7c1b9d7704b1a7f7ffc1bcef89ad2ac1ebb08333a545a208a0aaf31a",
      "blockNumber": "0x731a29",
      "gasUsed": "0xfd27",
      "effectiveGasPrice": "0x42b9bc71",
      "from": "0xc77f7fed3b5cc8249adc428c5f44c9063b9734b4",
      "to": "0x8aafd3ede9adb0ff97c7aebce82a919afb1c8764",
      "contractAddress": null
    }
  ],
  "libraries": [],
  "pending": [],
  "returns": {},
  "timestamp": 1737504445,
  "chain": 11155111,
  "commit": "1d2fb70"
}