{
  "transactions": [
    {
      "hash": "0xc64520d6800298df8c7218a4e4a1901d41715b257eb41add4a0aa22a4f4f7a08",
      "transactionType": "CALL",
      "contractName": null,
      "contractAddress": "0x270e88f8683660553e8ba4eb2ad7c91a1710d769",
      "function": "sell(uint256)",
      "arguments": [
        "711086359538726413373"
      ],
      "transaction": {
        "from": "0xc77f7fed3b5cc8249adc428c5f44c9063b9734b4",
        "to": "0x270e88f8683660553e8ba4eb2ad7c91a1710d769",
        "gas": "0x16fec",
        "value": "0x0",
        "input": "0xe4849b320000000000000000000000000000000000000000000000268c4e3c80e37d243d",
        "nonce": "0x88e",
        "chainId": "0xaa36a7"
      },
      "additionalContracts": [],
      "isFixedGasLimit": false
    }
  ],
  "receipts": [
    {
      "status": "0x1",
      "cumulativeGasUsed": "0x47c800",
      "logs": [
        {
          "address": "0x270e88f8683660553e8ba4eb2ad7c91a1710d769",
          "topics": [
            "0xddf252ad1be2c89b69c2b068fc378daa952ba7f163c4a11628f55a4df523b3ef",
            "0x000000000000000000000000c77f7fed3b5cc8249adc428c5f44c9063b9734b4",
            "0x0000000000000000000000000000000000000000000000000000000000000000"
          ],
          "data": "0x0000000000000000000000000000000000000000000000268c4e3c80e37d243d",
          "blockHash": "0x7f710aa39d08531ddba5959f215e00946654cec27ac77b8e903d8ac437fa686d",
          "blockNumber": "0x7255ea",
          "transactionHash": "0xc64520d6800298df8c7218a4e4a1901d41715b257eb41add4a0aa22a4f4f7a08",
          "transactionIndex": "0x34",
          "logIndex": "0x48",
          "removed": false
        },
        {
          "address": "0x270e88f8683660553e8ba4eb2ad7c91a1710d769",
          "topics": [
            "0x4afcb4a87cdbd9974efdb92ee48bc8d7cd0ae4bf217004db3d080cbaee652ca7"
          ],
          "data": "0x000000000000000000000000000000000000000000000000000000006786f9000000000000000000000000000000000000000000000000000004f65d789d57310000000000000000000000000000000000000000000000000dc825818f8f5962",
          "blockHash": "0x7f710aa39d08531ddba5959f215e00946654cec27ac77b8e903d8ac437fa686d",
          "blockNumber": "0x7255ea",
          "transactionHash": "0xc64520d6800298df8c7218a4e4a1901d41715b257eb41add4a0aa22a4f4f7a08",
          "transactionIndex": "0x34",
          "logIndex": "0x49",
          "removed": false
        }
      ],
      "logsBloom": "0x00000000000000000000000000000000000000000000000000000000000000000000000000000000000000000000000020000000000000004000000000000000000000000000000000000008000000000000000000000000000000000000000000000000020000000000000000000800020000000000000000000010000000000000000000010000000000000000000000000000000000000000010000000000000000000000000000000000000000004000000000000000000000000000000000000002000000800000000000000000000000000000080000008000000020000000000000000000000000000000000000000000000000000000000000000000",
      "type": "0x2",
      "transactionHash": "0xc64520d6800298df8c7218a4e4a1901d41715b257eb41add4a0aa22a4f4f7a08",
      "transactionIndex": "0x34",
      "blockHash": "0x7f710aa39d08531ddba5959f215e00946654cec27ac77b8e903d8ac437fa686d",
      "blockNumber": "0x7255ea",
      "gasUsed": "0xfb93",
      "effectiveGasPrice": "0xdf5dfa31",
      "from": "0xc77f7fed3b5cc8249adc428c5f44c9063b9734b4",
      "to": "0x270e88f8683660553e8ba4eb2ad7c91a1710d769",
      "contractAddress": null
    }
  ],
  "libraries": [],
  "pending": [],
  "returns": {},
  "timestamp": 1736898818,
  "chain": 11155111,
  "commit": "51a374b"
}