{
  "transactions": [
    {
      "hash": "0x515700f5e58602c7d9f73338cd0931b9de9240a31087a210a867615843c5d90e",
      "transactionType": "CALL",
      "contractName": null,
      "contractAddress": "0xd7bc75898e513accccf720a874d44dab5a4b6223",
      "function": "sell(uint256)",
      "arguments": [
        "9929991682997416945"
      ],
      "transaction": {
        "from": "0xc77f7fed3b5cc8249adc428c5f44c9063b9734b4",
        "to": "0xd7bc75898e513accccf720a874d44dab5a4b6223",
        "gas": "0x15b6b",
        "value": "0x0",
        "input": "0xe4849b3200000000000000000000000000000000000000000000000089ce6ad307a4f3f1",
        "nonce": "0xeb",
        "chainId": "0xaa36a7"
      },
      "additionalContracts": [],
      "isFixedGasLimit": false
    }
  ],
  "receipts": [
    {
      "status": "0x1",
      "cumulativeGasUsed": "0x446052",
      "logs": [
        {
          "address": "0xd7bc75898e513accccf720a874d44dab5a4b6223",
          "topics": [
            "0xddf252ad1be2c89b69c2b068fc378daa952ba7f163c4a11628f55a4df523b3ef",
            "0x000000000000000000000000c77f7fed3b5cc8249adc428c5f44c9063b9734b4",
            "0x0000000000000000000000000000000000000000000000000000000000000000"
          ],
          "data": "0x00000000000000000000000000000000000000000000000089ce6ad307a4f3f1",
          "blockHash": "0xf4aabfe8fa1e651a81788123d76102639599ffddc15a78a9b9fe49b7b7b10dec",
          "blockNumber": "0x72396e",
          "transactionHash": "0x515700f5e58602c7d9f73338cd0931b9de9240a31087a210a867615843c5d90e",
          "transactionIndex": "0x24",
          "logIndex": "0x3a",
          "removed": false
        },
        {
          "address": "0xd7bc75898e513accccf720a874d44dab5a4b6223",
          "topics": [
            "0x4afcb4a87cdbd9974efdb92ee48bc8d7cd0ae4bf217004db3d080cbaee652ca7"
          ],
          "data": "0x000000000000000000000000000000000000000000000000000000006785a27000000000000000000000000000000000000000000000000000038d7f8b254c9e0000000000000000000000000000000000000000000000000023474f493d2797",
          "blockHash": "0xf4aabfe8fa1e651a81788123d76102639599ffddc15a78a9b9fe49b7b7b10dec",
          "blockNumber": "0x72396e",
          "transactionHash": "0x515700f5e58602c7d9f73338cd0931b9de9240a31087a210a867615843c5d90e",
          "transactionIndex": "0x24",
          "logIndex": "0x3b",
          "removed": false
        }
      ],
      "logsBloom": "0x00000000000000000000000000000000000000000000000000000000000000000000000000000000000000000000000000000000000000004000000000000000000000000000000000000008000000000000000000000000000000000000000000000000020000000000000000000800020000000000000000000010000000000000000000000000000000000000000000000000000000000000010000000000000000000000000000000000000000004000001000000000000000000000000000000002000000800000000000004000000000000000080000000000000020000000000000000000000000000000000000000000080000000000000000000000",
      "type": "0x2",
      "transactionHash": "0x515700f5e58602c7d9f73338cd0931b9de9240a31087a210a867615843c5d90e",
      "transactionIndex": "0x24",
      "blockHash": "0xf4aabfe8fa1e651a81788123d76102639599ffddc15a78a9b9fe49b7b7b10dec",
      "blockNumber": "0x72396e",
      "gasUsed": "0xfb87",
      "effectiveGasPrice": "0x4596571e",
      "from": "0xc77f7fed3b5cc8249adc428c5f44c9063b9734b4",
      "to": "0xd7bc75898e513accccf720a874d44dab5a4b6223",
      "contractAddress": null
    }
  ],
  "libraries": [],
  "pending": [],
  "returns": {},
  "timestamp": 1736811122,
  "chain": 11155111,
  "commit": "51a374b"
}