{
  "transactions": [
    {
      "hash": "0x73d9fde725c54ac443d7dcedfe215f1f38ec15b82eae63b8b98dc022668102f1",
      "transactionType": "CALL",
      "contractName": null,
      "contractAddress": "0x8aafd3ede9adb0ff97c7aebce82a919afb1c8764",
      "function": "sell(uint256)",
      "arguments": [
        "148247122467430657647"
      ],
      "transaction": {
        "from": "0xc77f7fed3b5cc8249adc428c5f44c9063b9734b4",
        "to": "0x8aafd3ede9adb0ff97c7aebce82a919afb1c8764",
        "gas": "0x17270",
        "value": "0x0",
        "input": "0xe4849b320000000000000000000000000000000000000000000000080957946fed08ee6f",
        "nonce": "0x1748",
        "chainId": "0xaa36a7"
      },
      "additionalContracts": [],
      "isFixedGasLimit": false
    }
  ],
  "receipts": [
    {
      "status": "0x1",
      "cumulativeGasUsed": "0x21e0607",
      "logs": [
        {
          "address": "0x8aafd3ede9adb0ff97c7aebce82a919afb1c8764",
          "topics": [
            "0xddf252ad1be2c89b69c2b068fc378daa952ba7f163c4a11628f55a4df523b3ef",
            "0x000000000000000000000000c77f7fed3b5cc8249adc428c5f44c9063b9734b4",
            "0x0000000000000000000000000000000000000000000000000000000000000000"
          ],
          "data": "0x000000000000000000000000000000000000000000000007f8e224a85fdfe662",
          "blockHash": "0x6578824029edcc5b5f60ef11a65d615affe1cfc991d430833ea38e02bb84ddb4",
          "blockNumber": "0x731f17",
          "transactionHash": "0x73d9fde725c54ac443d7dcedfe215f1f38ec15b82eae63b8b98dc022668102f1",
          "transactionIndex": "0x4f",
          "logIndex": "0x1106",
          "removed": false
        },
        {
          "address": "0x8aafd3ede9adb0ff97c7aebce82a919afb1c8764",
          "topics": [
            "0xddf252ad1be2c89b69c2b068fc378daa952ba7f163c4a11628f55a4df523b3ef",
            "0x000000000000000000000000c77f7fed3b5cc8249adc428c5f44c9063b9734b4",
            "0x000000000000000000000000c77f7fed3b5cc8249adc428c5f44c9063b9734b4"
          ],
          "data": "0x00000000000000000000000000000000000000000000000010756fc78d29080d",
          "blockHash": "0x6578824029edcc5b5f60ef11a65d615affe1cfc991d430833ea38e02bb84ddb4",
          "blockNumber": "0x731f17",
          "transactionHash": "0x73d9fde725c54ac443d7dcedfe215f1f38ec15b82eae63b8b98dc022668102f1",
          "transactionIndex": "0x4f",
          "logIndex": "0x1107",
          "removed": false
        },
        {
          "address": "0x8aafd3ede9adb0ff97c7aebce82a919afb1c8764",
          "topics": [
            "0x4afcb4a87cdbd9974efdb92ee48bc8d7cd0ae4bf217004db3d080cbaee652ca7"
          ],
          "data": "0x00000000000000000000000000000000000000000000000000000000679071fc0000000000000000000000000000000000000000000000000017e6df7ad24bb90000000000000000000000000000000000000000000000000dcbdc9aaa5fdc37",
          "blockHash": "0x6578824029edcc5b5f60ef11a65d615affe1cfc991d430833ea38e02bb84ddb4",
          "blockNumber": "0x731f17",
          "transactionHash": "0x73d9fde725c54ac443d7dcedfe215f1f38ec15b82eae63b8b98dc022668102f1",
          "transactionIndex": "0x4f",
          "logIndex": "0x1108",
          "removed": false
        }
      ],
      "logsBloom": "0x00000000000000000000000000000000000000000600000000000000000000000000000000000000000000000000000000000000000000004000000000000000000000000000004000000008000000000000000000000000000000000000000000000000020000000000000000000800020000000000000000000010000000000000000000000000000000000000000000000000000000000000010000000000000000000000000000000000000000004000000000000000000000000000000000000002000000800000000000000000000000000000080000000000000020000000000000000000000000000000000000000000000000000000000000000000",
      "type": "0x2",
      "transactionHash": "0x73d9fde725c54ac443d7dcedfe215f1f38ec15b82eae63b8b98dc022668102f1",
      "transactionIndex": "0x4f",
      "blockHash": "0x6578824029edcc5b5f60ef11a65d615affe1cfc991d430833ea38e02bb84ddb4",
      "blockNumber": "0x731f17",
      "gasUsed": "0xfd4b",
      "effectiveGasPrice": "0x43bda590",
      "from": "0xc77f7fed3b5cc8249adc428c5f44c9063b9734b4",
      "to": "0x8aafd3ede9adb0ff97c7aebce82a919afb1c8764",
      "contractAddress": null
    }
  ],
  "libraries": [],
  "pending": [],
  "returns": {},
  "timestamp": 1737519613,
  "chain": 11155111,
  "commit": "1d2fb70"
}