{
  "transactions": [
    {
      "hash": "0xa3c3cbef3075dc848ee9784a92313f82372c51c0d198dfc799cec8e262f84c2c",
      "transactionType": "CALL",
      "contractName": null,
      "contractAddress": "0x5eb9cc76c3506942c1c0ead70e877dd5e4f00cb0",
      "function": "sell(uint256)",
      "arguments": [
        "989099680371302203409"
      ],
      "transaction": {
        "from": "0xc77f7fed3b5cc8249adc428c5f44c9063b9734b4",
        "to": "0x5eb9cc76c3506942c1c0ead70e877dd5e4f00cb0",
        "gas": "0x15b6b",
        "value": "0x0",
        "input": "0xe4849b320000000000000000000000000000000000000000000000359e83f6d2afe00011",
        "nonce": "0x403",
        "chainId": "0xaa36a7"
      },
      "additionalContracts": [],
      "isFixedGasLimit": false
    }
  ],
  "receipts": [
    {
      "status": "0x1",
      "cumulativeGasUsed": "0xae7432",
      "logs": [
        {
          "address": "0x5eb9cc76c3506942c1c0ead70e877dd5e4f00cb0",
          "topics": [
            "0xddf252ad1be2c89b69c2b068fc378daa952ba7f163c4a11628f55a4df523b3ef",
            "0x000000000000000000000000c77f7fed3b5cc8249adc428c5f44c9063b9734b4",
            "0x0000000000000000000000000000000000000000000000000000000000000000"
          ],
          "data": "0x0000000000000000000000000000000000000000000000359e83f6d2afe00011",
          "blockHash": "0x566ddd969c8d34411d143b8057a869a127752d91dd58e5e1695c33f3f1b625cc",
          "blockNumber": "0x72500e",
          "transactionHash": "0xa3c3cbef3075dc848ee9784a92313f82372c51c0d198dfc799cec8e262f84c2c",
          "transactionIndex": "0x63",
          "logIndex": "0xc5",
          "removed": false
        },
        {
          "address": "0x5eb9cc76c3506942c1c0ead70e877dd5e4f00cb0",
          "topics": [
            "0x4afcb4a87cdbd9974efdb92ee48bc8d7cd0ae4bf217004db3d080cbaee652ca7"
          ],
          "data": "0x000000000000000000000000000000000000000000000000000000006786b274000000000000000000000000000000000000000000000000000391158c30c2290000000000000000000000000000000000000000000000000dc7db1331e6e12a",
          "blockHash": "0x566ddd969c8d34411d143b8057a869a127752d91dd58e5e1695c33f3f1b625cc",
          "blockNumber": "0x72500e",
          "transactionHash": "0xa3c3cbef3075dc848ee9784a92313f82372c51c0d198dfc799cec8e262f84c2c",
          "transactionIndex": "0x63",
          "logIndex": "0xc6",
          "removed": false
        }
      ],
      "logsBloom": "0x00000000000000000000000000000000000000000000000000000000000000000000000000000000000000000000000000000000000000004000000000000000000000000000000000000008000000000000000000000000000000000000000000000000020000000000000004000800020000000000000000000010000000000000000000000000000000000000000000000000000000000000010000000000000000000000000000000000000000004000000000000000000000000000020000000002000000800000008000000000000000000000080000000000000020000000000000000000000000000000000000000000000000000000000000000000",
      "type": "0x2",
      "transactionHash": "0xa3c3cbef3075dc848ee9784a92313f82372c51c0d198dfc799cec8e262f84c2c",
      "transactionIndex": "0x63",
      "blockHash": "0x566ddd969c8d34411d143b8057a869a127752d91dd58e5e1695c33f3f1b625cc",
      "blockNumber": "0x72500e",
      "gasUsed": "0xfb87",
      "effectiveGasPrice": "0x34779638c",
      "from": "0xc77f7fed3b5cc8249adc428c5f44c9063b9734b4",
      "to": "0x5eb9cc76c3506942c1c0ead70e877dd5e4f00cb0",
      "contractAddress": null
    }
  ],
  "libraries": [],
  "pending": [],
  "returns": {},
  "timestamp": 1736880757,
  "chain": 11155111,
  "commit": "51a374b"
}