{
  "transactions": [
    {
      "hash": "0x058bab9b383eff05055b2dee850af00ab73df5b96d4cd4726ab4ad6755dacb4e",
      "transactionType": "CALL",
      "contractName": null,
      "contractAddress": "0x8aafd3ede9adb0ff97c7aebce82a919afb1c8764",
      "function": "sell(uint256)",
      "arguments": [
        "749306484269890295092"
      ],
      "transaction": {
        "from": "0xc77f7fed3b5cc8249adc428c5f44c9063b9734b4",
        "to": "0x8aafd3ede9adb0ff97c7aebce82a919afb1c8764",
        "gas": "0x17270",
        "value": "0x0",
        "input": "0xe4849b320000000000000000000000000000000000000000000000289eb7657293a25534",
        "nonce": "0xe74",
        "chainId": "0xaa36a7"
      },
      "additionalContracts": [],
      "isFixedGasLimit": false
    }
  ],
  "receipts": [
    {
      "status": "0x1",
      "cumulativeGasUsed": "0xcd7ce7",
      "logs": [
        {
          "address": "0x8aafd3ede9adb0ff97c7aebce82a919afb1c8764",
          "topics": [
            "0xddf252ad1be2c89b69c2b068fc378daa952ba7f163c4a11628f55a4df523b3ef",
            "0x000000000000000000000000c77f7fed3b5cc8249adc428c5f44c9063b9734b4",
            "0x0000000000000000000000000000000000000000000000000000000000000000"
          ],
          "data": "0x0000000000000000000000000000000000000000000000284b86d33a5d347d7c",
          "blockHash": "0x739cb3349a3b521fa7545b4924f34dbe22c0e097b23c7076c794109ce04693cf",
          "blockNumber": "0x7313cd",
          "transactionHash": "0x058bab9b383eff05055b2dee850af00ab73df5b96d4cd4726ab4ad6755dacb4e",
          "transactionIndex": "0x90",
          "logIndex": "0xf6",
          "removed": false
        },
        {
          "address": "0x8aafd3ede9adb0ff97c7aebce82a919afb1c8764",
          "topics": [
            "0xddf252ad1be2c89b69c2b068fc378daa952ba7f163c4a11628f55a4df523b3ef",
            "0x000000000000000000000000c77f7fed3b5cc8249adc428c5f44c9063b9734b4",
            "0x000000000000000000000000c77f7fed3b5cc8249adc428c5f44c9063b9734b4"
          ],
          "data": "0x00000000000000000000000000000000000000000000000053309238366dd7b8",
          "blockHash": "0x739cb3349a3b521fa7545b4924f34dbe22c0e097b23c7076c794109ce04693cf",
          "blockNumber": "0x7313cd",
          "transactionHash": "0x058bab9b383eff05055b2dee850af00ab73df5b96d4cd4726ab4ad6755dacb4e",
          "transactionIndex": "0x90",
          "logIndex": "0xf7",
          "removed": false
        },
        {
          "address": "0x8aafd3ede9adb0ff97c7aebce82a919afb1c8764",
          "topics": [
            "0x4afcb4a87cdbd9974efdb92ee48bc8d7cd0ae4bf217004db3d080cbaee652ca7"
          ],
          "data": "0x00000000000000000000000000000000000000000000000000000000678fea300000000000000000000000000000000000000000000000000004b5b3d57fcc170000000000000000000000000000000000000000000000000dc834d1247382dc",
          "blockHash": "0x739cb3349a3b521fa7545b4924f34dbe22c0e097b23c7076c794109ce04693cf",
          "blockNumber": "0x7313cd",
          "transactionHash": "0x058bab9b383eff05055b2dee850af00ab73df5b96d4cd4726ab4ad6755dacb4e",
          "transactionIndex": "0x90",
          "logIndex": "0xf8",
          "removed": false
        }
      ],
      "logsBloom": "0x00000000000000000000000000000000000000000600000000000000000000000000000000000000000000000000000000000000000000004000000000000000000000000000004000000008000000000000000000000000000000000000000000000000020000000000000000000800020000000000000000000010000000000000000000000000000000000000000000000000000000000000010000000000000000000000000000000000000000004000000000000000000000000000000000000002000000800000000000000000000000000000080000000000000020000000000000000000000000000000000000000000000000000000000000000000",
      "type": "0x2",
      "transactionHash": "0x058bab9b383eff05055b2dee850af00ab73df5b96d4cd4726ab4ad6755dacb4e",
      "transactionIndex": "0x90",
      "blockHash": "0x739cb3349a3b521fa7545b4924f34dbe22c0e097b23c7076c794109ce04693cf",
      "blockNumber": "0x7313cd",
      "gasUsed": "0xfd4b",
      "effectiveGasPrice": "0x63fd1bcd",
      "from": "0xc77f7fed3b5cc8249adc428c5f44c9063b9734b4",
      "to": "0x8aafd3ede9adb0ff97c7aebce82a919afb1c8764",
      "contractAddress": null
    }
  ],
  "libraries": [],
  "pending": [],
  "returns": {},
  "timestamp": 1737484848,
  "chain": 11155111,
  "commit": "51a374b"
}