{
  "transactions": [
    {
      "hash": "0x747302fc9acb46bf15c0af6a8ed63edb53041a4d5f2c561c0345796c1764d6a0",
      "transactionType": "CALL",
      "contractName": null,
      "contractAddress": "0x8aafd3ede9adb0ff97c7aebce82a919afb1c8764",
      "function": "sell(uint256)",
      "arguments": [
        "855266602785"
      ],
      "transaction": {
        "from": "0xc77f7fed3b5cc8249adc428c5f44c9063b9734b4",
        "to": "0x8aafd3ede9adb0ff97c7aebce82a919afb1c8764",
        "gas": "0x1722a",
        "value": "0x0",
        "input": "0xe4849b32000000000000000000000000000000000000000000000000000000c721dcaf21",
        "nonce": "0x14fa",
        "chainId": "0xaa36a7"
      },
      "additionalContracts": [],
      "isFixedGasLimit": false
    }
  ],
  "receipts": [
    {
      "status": "0x1",
      "cumulativeGasUsed": "0xbf1b3b",
      "logs": [
        {
          "address": "0x8aafd3ede9adb0ff97c7aebce82a919afb1c8764",
          "topics": [
            "0xddf252ad1be2c89b69c2b068fc378daa952ba7f163c4a11628f55a4df523b3ef",
            "0x000000000000000000000000c77f7fed3b5cc8249adc428c5f44c9063b9734b4",
            "0x0000000000000000000000000000000000000000000000000000000000000000"
          ],
          "data": "0x000000000000000000000000000000000000000000000000000000c58a0a05cb",
          "blockHash": "0x08168e28241800e2659d00d0e577ebd4e5f1124eeef7a1afcf78f8f984cf9eef",
          "blockNumber": "0x731c5b",
          "transactionHash": "0x747302fc9acb46bf15c0af6a8ed63edb53041a4d5f2c561c0345796c1764d6a0",
          "transactionIndex": "0x87",
          "logIndex": "0xaa",
          "removed": false
        },
        {
          "address": "0x8aafd3ede9adb0ff97c7aebce82a919afb1c8764",
          "topics": [
            "0xddf252ad1be2c89b69c2b068fc378daa952ba7f163c4a11628f55a4df523b3ef",
            "0x000000000000000000000000c77f7fed3b5cc8249adc428c5f44c9063b9734b4",
            "0x000000000000000000000000c77f7fed3b5cc8249adc428c5f44c9063b9734b4"
          ],
          "data": "0x0000000000000000000000000000000000000000000000000000000197d2a956",
          "blockHash": "0x08168e28241800e2659d00d0e577ebd4e5f1124eeef7a1afcf78f8f984cf9eef",
          "blockNumber": "0x731c5b",
          "transactionHash": "0x747302fc9acb46bf15c0af6a8ed63edb53041a4d5f2c561c0345796c1764d6a0",
          "transactionIndex": "0x87",
          "logIndex": "0xab",
          "removed": false
        },
        {
          "address": "0x8aafd3ede9adb0ff97c7aebce82a919afb1c8764",
          "topics": [
            "0x4afcb4a87cdbd9974efdb92ee48bc8d7cd0ae4bf217004db3d080cbaee652ca7"
          ],
          "data": "0x00000000000000000000000000000000000000000000000000000000679051200000000000000000000000000000000000000000000000000010ffc47481d76200000000000000000000000000000000000000000000000000000000f3eb7a5b",
          "blockHash": "0x08168e28241800e2659d00d0e577ebd4e5f1124eeef7a1afcf78f8f984cf9eef",
          "blockNumber": "0x731c5b",
          "transactionHash": "0x747302fc9acb46bf15c0af6a8ed63edb53041a4d5f2c561c0345796c1764d6a0",
          "transactionIndex": "0x87",
          "logIndex": "0xac",
          "removed": false
        }
      ],
      "logsBloom": "0x00000000000000000000000000000000000000000600000000000000000000000000000000000000000000000000000000000000000000004000000000000000000000000000004000000008000000000000000000000000000000000000000000000000020000000000000000000800020000000000000000000010000000000000000000000000000000000000000000000000000000000000010000000000000000000000000000000000000000004000000000000000000000000000000000000002000000800000000000000000000000000000080000000000000020000000000000000000000000000000000000000000000000000000000000000000",
      "type": "0x2",
      "transactionHash": "0x747302fc9acb46bf15c0af6a8ed63edb53041a4d5f2c561c0345796c1764d6a0",
      "transactionIndex": "0x87",
      "blockHash": "0x08168e28241800e2659d00d0e577ebd4e5f1124eeef7a1afcf78f8f984cf9eef",
      "blockNumber": "0x731c5b",
      "gasUsed": "0xfd1b",
      "effectiveGasPrice": "0x15b409e9b",
      "from": "0xc77f7fed3b5cc8249adc428c5f44c9063b9734b4",
      "to": "0x8aafd3ede9adb0ff97c7aebce82a919afb1c8764",
      "contractAddress": null
    }
  ],
  "libraries": [],
  "pending": [],
  "returns": {},
  "timestamp": 1737511201,
  "chain": 11155111,
  "commit": "1d2fb70"
}