{
  "transactions": [
    {
      "hash": "0x3b7e09db1a8c4c6232b46e8a098e3b404c51a709c5b7877fbbfcddb5cb9add73",
      "transactionType": "CALL",
      "contractName": null,
      "contractAddress": "0x5eb9cc76c3506942c1c0ead70e877dd5e4f00cb0",
      "function": "buy(address)",
      "arguments": [
        "0xC77f7fed3b5Cc8249aDc428c5F44C9063B9734b4"
      ],
      "transaction": {
        "from": "0xc77f7fed3b5cc8249adc428c5f44c9063b9734b4",
        "to": "0x5eb9cc76c3506942c1c0ead70e877dd5e4f00cb0",
        "gas": "0x1b30c",
        "value": "0xde0b6b3a7640000",
        "input": "0xf088d547000000000000000000000000c77f7fed3b5cc8249adc428c5f44c9063b9734b4",
        "nonce": "0x284",
        "chainId": "0xaa36a7"
      },
      "additionalContracts": [],
      "isFixedGasLimit": false
    }
  ],
  "receipts": [
    {
      "status": "0x1",
      "cumulativeGasUsed": "0xc6c91f",
      "logs": [
        {
          "address": "0x5eb9cc76c3506942c1c0ead70e877dd5e4f00cb0",
          "topics": [
            "0xddf252ad1be2c89b69c2b068fc378daa952ba7f163c4a11628f55a4df523b3ef",
            "0x0000000000000000000000000000000000000000000000000000000000000000",
            "0x000000000000000000000000c77f7fed3b5cc8249adc428c5f44c9063b9734b4"
          ],
          "data": "0x00000000000000000000000000000000000000000000003575d8b704893d8d77",
          "blockHash": "0xd49e98462af3e30a0f7e6c3f02eef4d6765f7627681d200505abe2ee863cd396",
          "blockNumber": "0x724e53",
          "transactionHash": "0x3b7e09db1a8c4c6232b46e8a098e3b404c51a709c5b7877fbbfcddb5cb9add73",
          "transactionIndex": "0x65",
          "logIndex": "0xb4",
          "removed": false
        },
        {
          "address": "0x5eb9cc76c3506942c1c0ead70e877dd5e4f00cb0",
          "topics": [
            "0xddf252ad1be2c89b69c2b068fc378daa952ba7f163c4a11628f55a4df523b3ef",
            "0x0000000000000000000000000000000000000000000000000000000000000000",
            "0x000000000000000000000000c77f7fed3b5cc8249adc428c5f44c9063b9734b4"
          ],
          "data": "0x000000000000000000000000000000000000000000000000298386d35eeda2a3",
          "blockHash": "0xd49e98462af3e30a0f7e6c3f02eef4d6765f7627681d200505abe2ee863cd396",
          "blockNumber": "0x724e53",
          "transactionHash": "0x3b7e09db1a8c4c6232b46e8a098e3b404c51a709c5b7877fbbfcddb5cb9add73",
          "transactionIndex": "0x65",
          "logIndex": "0xb5",
          "removed": false
        },
        {
          "address": "0x5eb9cc76c3506942c1c0ead70e877dd5e4f00cb0",
          "topics": [
            "0x4afcb4a87cdbd9974efdb92ee48bc8d7cd0ae4bf217004db3d080cbaee652ca7"
          ],
          "data": "0x0000000000000000000000000000000000000000000000000000000067869d98000000000000000000000000000000000000000000000000000391071d168a710000000000000000000000000000000000000000000000000de0b6b3a7640000",
          "blockHash": "0xd49e98462af3e30a0f7e6c3f02eef4d6765f7627681d200505abe2ee863cd396",
          "blockNumber": "0x724e53",
          "transactionHash": "0x3b7e09db1a8c4c6232b46e8a098e3b404c51a709c5b7877fbbfcddb5cb9add73",
          "transactionIndex": "0x65",
          "logIndex": "0xb6",
          "removed": false
        }
      ],
      "logsBloom": "0x00000000000000000000000000000000000000000000000000000000000000000000000000000000000000000000000000000000000000004000000000000000000000000000000000000008000000000000000000000000000000000000000000000000020000000000000004000800020000000000000000000010000000000000000000000000000000000000000000000000000000000000010000000000000000000000000000000000000000004000000000000000000000000000020000000002000000800000008000000000000000000000080000000000000020000000000000000000000000000000000000000000000000000000000000000000",
      "type": "0x2",
      "transactionHash": "0x3b7e09db1a8c4c6232b46e8a098e3b404c51a709c5b7877fbbfcddb5cb9add73",
      "transactionIndex": "0x65",
      "blockHash": "0xd49e98462af3e30a0f7e6c3f02eef4d6765f7627681d200505abe2ee863cd396",
      "blockNumber": "0x724e53",
      "gasUsed": "0x13af8",
      "effectiveGasPrice": "0x3e9890e9b",
      "from": "0xc77f7fed3b5cc8249adc428c5f44c9063b9734b4",
      "to": "0x5eb9cc76c3506942c1c0ead70e877dd5e4f00cb0",
      "contractAddress": null
    }
  ],
  "libraries": [],
  "pending": [],
  "returns": {},
  "timestamp": 1736875418,
  "chain": 11155111,
  "commit": "51a374b"
}