{
  "transactions": [
    {
      "hash": "0x18345e71731c71da91819d60530ff6acc5622a5d8c596ddc1df117b11a1734aa",
      "transactionType": "CALL",
      "contractName": null,
      "contractAddress": "0x8aafd3ede9adb0ff97c7aebce82a919afb1c8764",
      "function": "sell(uint256)",
      "arguments": [
        "316498"
      ],
      "transaction": {
        "from": "0xc77f7fed3b5cc8249adc428c5f44c9063b9734b4",
        "to": "0x8aafd3ede9adb0ff97c7aebce82a919afb1c8764",
        "gas": "0x16208",
        "value": "0x0",
        "input": "0xe4849b32000000000000000000000000000000000000000000000000000000000004d452",
        "nonce": "0x172b",
        "chainId": "0xaa36a7"
      },
      "additionalContracts": [],
      "isFixedGasLimit": false
    }
  ],
  "receipts": [
    {
      "status": "0x1",
      "cumulativeGasUsed": "0xe9bd61",
      "logs": [
        {
          "address": "0x8aafd3ede9adb0ff97c7aebce82a919afb1c8764",
          "topics": [
            "0xddf252ad1be2c89b69c2b068fc378daa952ba7f163c4a11628f55a4df523b3ef",
            "0x000000000000000000000000c77f7fed3b5cc8249adc428c5f44c9063b9734b4",
            "0x0000000000000000000000000000000000000000000000000000000000000000"
          ],
          "data": "0x000000000000000000000000000000000000000000000000000000000004ca6f",
          "blockHash": "0x097b204652842b5828ec6815e14c8442ad0854085e0a2b21d4960ab1ce3200fc",
          "blockNumber": "0x731ef4",
          "transactionHash": "0x18345e71731c71da91819d60530ff6acc5622a5d8c596ddc1df117b11a1734aa",
          "transactionIndex": "0x75",
          "logIndex": "0x9a",
          "removed": false
        },
        {
          "address": "0x8aafd3ede9adb0ff97c7aebce82a919afb1c8764",
          "topics": [
            "0xddf252ad1be2c89b69c2b068fc378daa952ba7f163c4a11628f55a4df523b3ef",
            "0x000000000000000000000000c77f7fed3b5cc8249adc428c5f44c9063b9734b4",
            "0x000000000000000000000000c77f7fed3b5cc8249adc428c5f44c9063b9734b4"
          ],
          "data": "0x00000000000000000000000000000000000000000000000000000000000009e3",
          "blockHash": "0x097b204652842b5828ec6815e14c8442ad0854085e0a2b21d4960ab1ce3200fc",
          "blockNumber": "0x731ef4",
          "transactionHash": "0x18345e71731c71da91819d60530ff6acc5622a5d8c596ddc1df117b11a1734aa",
          "transactionIndex": "0x75",
          "logIndex": "0x9b",
          "removed": false
        },
        {
          "address": "0x8aafd3ede9adb0ff97c7aebce82a919afb1c8764",
          "topics": [
            "0x4afcb4a87cdbd9974efdb92ee48bc8d7cd0ae4bf217004db3d080cbaee652ca7"
          ],
          "data": "0x000000000000000000000000000000000000000000000000000000006790705800000000000000000000000000000000000000000000000000177b2f1e904eab000000000000000000000000000000000000000000000000000000000000082b",
          "blockHash": "0x097b204652842b5828ec6815e14c8442ad0854085e0a2b21d4960ab1ce3200fc",
          "blockNumber": "0x731ef4",
          "transactionHash": "0x18345e71731c71da91819d60530ff6acc5622a5d8c596ddc1df117b11a1734aa",
          "transactionIndex": "0x75",
          "logIndex": "0x9c",
          "removed": false
        }
      ],
      "logsBloom": "0x00000000000000000000000000000000000000000600000000000000000000000000000000000000000000000000000000000000000000004000000000000000000000000000004000000008000000000000000000000000000000000000000000000000020000000000000000000800020000000000000000000010000000000000000000000000000000000000000000000000000000000000010000000000000000000000000000000000000000004000000000000000000000000000000000000002000000800000000000000000000000000000080000000000000020000000000000000000000000000000000000000000000000000000000000000000",
      "type": "0x2",
      "transactionHash": "0x18345e71731c71da91819d60530ff6acc5622a5d8c596ddc1df117b11a1734aa",
      "transactionIndex": "0x75",
      "blockHash": "0x097b204652842b5828ec6815e14c8442ad0854085e0a2b21d4960ab1ce3200fc",
      "blockNumber": "0x731ef4",
      "gasUsed": "0xf213",
      "effectiveGasPrice": "0x3f61b70e",
      "from": "0xc77f7fed3b5cc8249adc428c5f44c9063b9734b4",
      "to": "0x8aafd3ede9adb0ff97c7aebce82a919afb1c8764",
      "contractAddress": null
    }
  ],
  "libraries": [],
  "pending": [],
  "returns": {},
  "timestamp": 1737519194,
  "chain": 11155111,
  "commit": "1d2fb70"
}