{
  "transactions": [
    {
      "hash": "0x0bd678974b461a55792b3311d9d9290a37e63d7ae453c6482029bbb99308bd29",
      "transactionType": "CALL",
      "contractName": null,
      "contractAddress": "0x8aafd3ede9adb0ff97c7aebce82a919afb1c8764",
      "function": "sell(uint256)",
      "arguments": [
        "347689253385771"
      ],
      "transaction": {
        "from": "0xc77f7fed3b5cc8249adc428c5f44c9063b9734b4",
        "to": "0x8aafd3ede9adb0ff97c7aebce82a919afb1c8764",
        "gas": "0x1724d",
        "value": "0x0",
        "input": "0xe4849b3200000000000000000000000000000000000000000000000000013c38b670b62b",
        "nonce": "0x1210",
        "chainId": "0xaa36a7"
      },
      "additionalContracts": [],
      "isFixedGasLimit": false
    }
  ],
  "receipts": [
    {
      "status": "0x1",
      "cumulativeGasUsed": "0xa22204",
      "logs": [
        {
          "address": "0x8aafd3ede9adb0ff97c7aebce82a919afb1c8764",
          "topics": [
            "0xddf252ad1be2c89b69c2b068fc378daa952ba7f163c4a11628f55a4df523b3ef",
            "0x000000000000000000000000c77f7fed3b5cc8249adc428c5f44c9063b9734b4",
            "0x0000000000000000000000000000000000000000000000000000000000000000"
          ],
          "data": "0x000000000000000000000000000000000000000000000000000139b11748e5dd",
          "blockHash": "0x0ac289bf97283dd0735baaabf6ac1073d7288da77ccba2ab3ed77165becbce3a",
          "blockNumber": "0x7318eb",
          "transactionHash": "0x0bd678974b461a55792b3311d9d9290a37e63d7ae453c6482029bbb99308bd29",
          "transactionIndex": "0x66",
          "logIndex": "0x97",
          "removed": false
        },
        {
          "address": "0x8aafd3ede9adb0ff97c7aebce82a919afb1c8764",
          "topics": [
            "0xddf252ad1be2c89b69c2b068fc378daa952ba7f163c4a11628f55a4df523b3ef",
            "0x000000000000000000000000c77f7fed3b5cc8249adc428c5f44c9063b9734b4",
            "0x000000000000000000000000c77f7fed3b5cc8249adc428c5f44c9063b9734b4"
          ],
          "data": "0x000000000000000000000000000000000000000000000000000002879f27d04e",
          "blockHash": "0x0ac289bf97283dd0735baaabf6ac1073d7288da77ccba2ab3ed77165becbce3a",
          "blockNumber": "0x7318eb",
          "transactionHash": "0x0bd678974b461a55792b3311d9d9290a37e63d7ae453c6482029bbb99308bd29",
          "transactionIndex": "0x66",
          "logIndex": "0x98",
          "removed": false
        },
        {
          "address": "0x8aafd3ede9adb0ff97c7aebce82a919afb1c8764",
          "topics": [
            "0x4afcb4a87cdbd9974efdb92ee48bc8d7cd0ae4bf217004db3d080cbaee652ca7"
          ],
          "data": "0x00000000000000000000000000000000000000000000000000000000679027d40000000000000000000000000000000000000000000000000005336292f6eda30000000000000000000000000000000000000000000000000000007681282091",
          "blockHash": "0x0ac289bf97283dd0735baaabf6ac1073d7288da77ccba2ab3ed77165becbce3a",
          "blockNumber": "0x7318eb",
          "transactionHash": "0x0bd678974b461a55792b3311d9d9290a37e63d7ae453c6482029bbb99308bd29",
          "transactionIndex": "0x66",
          "logIndex": "0x99",
          "removed": false
        }
      ],
      "logsBloom": "0x00000000000000000000000000000000000000000600000000000000000000000000000000000000000000000000000000000000000000004000000000000000000000000000004000000008000000000000000000000000000000000000000000000000020000000000000000000800020000000000000000000010000000000000000000000000000000000000000000000000000000000000010000000000000000000000000000000000000000004000000000000000000000000000000000000002000000800000000000000000000000000000080000000000000020000000000000000000000000000000000000000000000000000000000000000000",
      "type": "0x2",
      "transactionHash": "0x0bd678974b461a55792b3311d9d9290a37e63d7ae453c6482029bbb99308bd29",
      "transactionIndex": "0x66",
      "blockHash": "0x0ac289bf97283dd0735baaabf6ac1073d7288da77ccba2ab3ed77165becbce3a",
      "blockNumber": "0x7318eb",
      "gasUsed": "0xfd33",
      "effectiveGasPrice": "0x3e76c8d0",
      "from": "0xc77f7fed3b5cc8249adc428c5f44c9063b9734b4",
      "to": "0x8aafd3ede9adb0ff97c7aebce82a919afb1c8764",
      "contractAddress": null
    }
  ],
  "libraries": [],
  "pending": [],
  "returns": {},
  "timestamp": 1737500628,
  "chain": 11155111,
  "commit": "1d2fb70"
}