{
  "transactions": [
    {
      "hash": "0xb5a18e171b99bc20c2c6c56b1ae5274ef2727b6ccf5fdd48eb02db2391aad083",
      "transactionType": "CALL",
      "contractName": null,
      "contractAddress": "0x5eb9cc76c3506942c1c0ead70e877dd5e4f00cb0",
      "function": "buy(address)",
      "arguments": [
        "0xC77f7fed3b5Cc8249aDc428c5F44C9063B9734b4"
      ],
      "transaction": {
        "from": "0xc77f7fed3b5cc8249adc428c5f44c9063b9734b4",
        "to": "0x5eb9cc76c3506942c1c0ead70e877dd5e4f00cb0",
        "gas": "0x156c8",
        "value": "0xde0b6b3a7640000",
        "input": "0xf088d547000000000000000000000000c77f7fed3b5cc8249adc428c5f44c9063b9734b4",
        "nonce": "0x1e8",
        "chainId": "0xaa36a7"
      },
      "additionalContracts": [],
      "isFixedGasLimit": false
    }
  ],
  "receipts": [
    {
      "status": "0x1",
      "cumulativeGasUsed": "0xe73fcf",
      "logs": [
        {
          "address": "0x5eb9cc76c3506942c1c0ead70e877dd5e4f00cb0",
          "topics": [
            "0xddf252ad1be2c89b69c2b068fc378daa952ba7f163c4a11628f55a4df523b3ef",
            "0x0000000000000000000000000000000000000000000000000000000000000000",
            "0x000000000000000000000000c77f7fed3b5cc8249adc428c5f44c9063b9734b4"
          ],
          "data": "0x00000000000000000000000000000000000000000000003584c6cbe9bbd96bc4",
          "blockHash": "0x72095bb9e344bb210a14359075e48c99494085fc26e0cfbc253af6653d7a2ac9",
          "blockNumber": "0x724afd",
          "transactionHash": "0xb5a18e171b99bc20c2c6c56b1ae5274ef2727b6ccf5fdd48eb02db2391aad083",
          "transactionIndex": "0x69",
          "logIndex": "0x104",
          "removed": false
        },
        {
          "address": "0x5eb9cc76c3506942c1c0ead70e877dd5e4f00cb0",
          "topics": [
            "0xddf252ad1be2c89b69c2b068fc378daa952ba7f163c4a11628f55a4df523b3ef",
            "0x0000000000000000000000000000000000000000000000000000000000000000",
            "0x000000000000000000000000c77f7fed3b5cc8249adc428c5f44c9063b9734b4"
          ],
          "data": "0x000000000000000000000000000000000000000000000000298f1ecd6b3e076c",
          "blockHash": "0x72095bb9e344bb210a14359075e48c99494085fc26e0cfbc253af6653d7a2ac9",
          "blockNumber": "0x724afd",
          "transactionHash": "0xb5a18e171b99bc20c2c6c56b1ae5274ef2727b6ccf5fdd48eb02db2391aad083",
          "transactionIndex": "0x69",
          "logIndex": "0x105",
          "removed": false
        },
        {
          "address": "0x5eb9cc76c3506942c1c0ead70e877dd5e4f00cb0",
          "topics": [
            "0x4afcb4a87cdbd9974efdb92ee48bc8d7cd0ae4bf217004db3d080cbaee652ca7"
          ],
          "data": "0x000000000000000000000000000000000000000000000000000000006786758400000000000000000000000000000000000000000000000000039008686ba5d10000000000000000000000000000000000000000000000000de0b6b3a7640000",
          "blockHash": "0x72095bb9e344bb210a14359075e48c99494085fc26e0cfbc253af6653d7a2ac9",
          "blockNumber": "0x724afd",
          "transactionHash": "0xb5a18e171b99bc20c2c6c56b1ae5274ef2727b6ccf5fdd48eb02db2391aad083",
          "transactionIndex": "0x69",
          "logIndex": "0x106",
          "removed": false
        }
      ],
      "logsBloom": "0x00000000000000000000000000000000000000000000000000000000000000000000000000000000000000000000000000000000000000004000000000000000000000000000000000000008000000000000000000000000000000000000000000000000020000000000000004000800020000000000000000000010000000000000000000000000000000000000000000000000000000000000010000000000000000000000000000000000000000004000000000000000000000000000020000000002000000800000008000000000000000000000080000000000000020000000000000000000000000000000000000000000000000000000000000000000",
      "type": "0x2",
      "transactionHash": "0xb5a18e171b99bc20c2c6c56b1ae5274ef2727b6ccf5fdd48eb02db2391aad083",
      "transactionIndex": "0x69",
      "blockHash": "0x72095bb9e344bb210a14359075e48c99494085fc26e0cfbc253af6653d7a2ac9",
      "blockNumber": "0x724afd",
      "gasUsed": "0xf82c",
      "effectiveGasPrice": "0x43f550968",
      "from": "0xc77f7fed3b5cc8249adc428c5f44c9063b9734b4",
      "to": "0x5eb9cc76c3506942c1c0ead70e877dd5e4f00cb0",
      "contractAddress": null
    }
  ],
  "libraries": [],
  "pending": [],
  "returns": {},
  "timestamp": 1736865158,
  "chain": 11155111,
  "commit": "51a374b"
}