{
  "transactions": [
    {
      "hash": "0x1f643c53881c788bdc5f70de41aff854b8ce1b325063b806f9e01d864926f505",
      "transactionType": "CALL",
      "contractName": null,
      "contractAddress": "0x270e88f8683660553e8ba4eb2ad7c91a1710d769",
      "function": "sell(uint256)",
      "arguments": [
        "746379520502979328236"
      ],
      "transaction": {
        "from": "0xc77f7fed3b5cc8249adc428c5f44c9063b9734b4",
        "to": "0x270e88f8683660553e8ba4eb2ad7c91a1710d769",
        "gas": "0x16fec",
        "value": "0x0",
        "input": "0xe4849b320000000000000000000000000000000000000000000000287618bb68c67778ec",
        "nonce": "0x6f4",
        "chainId": "0xaa36a7"
      },
      "additionalContracts": [],
      "isFixedGasLimit": false
    }
  ],
  "receipts": [
    {
      "status": "0x1",
      "cumulativeGasUsed": "0x970ea7",
      "logs": [
        {
          "address": "0x270e88f8683660553e8ba4eb2ad7c91a1710d769",
          "topics": [
            "0xddf252ad1be2c89b69c2b068fc378daa952ba7f163c4a11628f55a4df523b3ef",
            "0x000000000000000000000000c77f7fed3b5cc8249adc428c5f44c9063b9734b4",
            "0x0000000000000000000000000000000000000000000000000000000000000000"
          ],
          "data": "0x0000000000000000000000000000000000000000000000287618bb68c67778ec",
          "blockHash": "0x40ba93999c5c3f0275f3904c087c9356ab21051a23cf8dafac8bd1c5b3c954fa",
          "blockNumber": "0x725408",
          "transactionHash": "0x1f643c53881c788bdc5f70de41aff854b8ce1b325063b806f9e01d864926f505",
          "transactionIndex": "0x39",
          "logIndex": "0x9f",
          "removed": false
        },
        {
          "address": "0x270e88f8683660553e8ba4eb2ad7c91a1710d769",
          "topics": [
            "0x4afcb4a87cdbd9974efdb92ee48bc8d7cd0ae4bf217004db3d080cbaee652ca7"
          ],
          "data": "0x000000000000000000000000000000000000000000000000000000006786e2680000000000000000000000000000000000000000000000000004ba4f0509b5fc0000000000000000000000000000000000000000000000000dc82928fa4be245",
          "blockHash": "0x40ba93999c5c3f0275f3904c087c9356ab21051a23cf8dafac8bd1c5b3c954fa",
          "blockNumber": "0x725408",
          "transactionHash": "0x1f643c53881c788bdc5f70de41aff854b8ce1b325063b806f9e01d864926f505",
          "transactionIndex": "0x39",
          "logIndex": "0xa0",
          "removed": false
        }
      ],
      "logsBloom": "0x00000000000000000000000000000000000000000000000000000000000000000000000000000000000000000000000020000000000000004000000000000000000000000000000000000008000000000000000000000000000000000000000000000000020000000000000000000800020000000000000000000010000000000000000000010000000000000000000000000000000000000000010000000000000000000000000000000000000000004000000000000000000000000000000000000002000000800000000000000000000000000000080000008000000020000000000000000000000000000000000000000000000000000000000000000000",
      "type": "0x2",
      "transactionHash": "0x1f643c53881c788bdc5f70de41aff854b8ce1b325063b806f9e01d864926f505",
      "transactionIndex": "0x39",
      "blockHash": "0x40ba93999c5c3f0275f3904c087c9356ab21051a23cf8dafac8bd1c5b3c954fa",
      "blockNumber": "0x725408",
      "gasUsed": "0xfb93",
      "effectiveGasPrice": "0x1565b7996",
      "from": "0xc77f7fed3b5cc8249adc428c5f44c9063b9734b4",
      "to": "0x270e88f8683660553e8ba4eb2ad7c91a1710d769",
      "contractAddress": null
    }
  ],
  "libraries": [],
  "pending": [],
  "returns": {},
  "timestamp": 1736893034,
  "chain": 11155111,
  "commit": "51a374b"
}