{
  "transactions": [
    {
      "hash": "0x70c652fc1f5b5c362417b7dd96f62c66266827a980fc695cf8d4eb314409883c",
      "transactionType": "CALL",
      "contractName": null,
      "contractAddress": "0x5eb9cc76c3506942c1c0ead70e877dd5e4f00cb0",
      "function": "sell(uint256)",
      "arguments": [
        "989143345085488645364"
      ],
      "transaction": {
        "from": "0xc77f7fed3b5cc8249adc428c5f44c9063b9734b4",
        "to": "0x5eb9cc76c3506942c1c0ead70e877dd5e4f00cb0",
        "gas": "0x16fec",
        "value": "0x0",
        "input": "0xe4849b320000000000000000000000000000000000000000000000359f1f17a6322d44f4",
        "nonce": "0x2f1",
        "chainId": "0xaa36a7"
      },
      "additionalContracts": [],
      "isFixedGasLimit": false
    }
  ],
  "receipts": [
    {
      "status": "0x1",
      "cumulativeGasUsed": "0xf485c0",
      "logs": [
        {
          "address": "0x5eb9cc76c3506942c1c0ead70e877dd5e4f00cb0",
          "topics": [
            "0xddf252ad1be2c89b69c2b068fc378daa952ba7f163c4a11628f55a4df523b3ef",
            "0x000000000000000000000000c77f7fed3b5cc8249adc428c5f44c9063b9734b4",
            "0x0000000000000000000000000000000000000000000000000000000000000000"
          ],
          "data": "0x0000000000000000000000000000000000000000000000359f1f17a6322d44f4",
          "blockHash": "0x7ff85281a68929e39f0f57f487dee245d50076773aabb51b6b8954f3ff96754a",
          "blockNumber": "0x724ed1",
          "transactionHash": "0x70c652fc1f5b5c362417b7dd96f62c66266827a980fc695cf8d4eb314409883c",
          "transactionIndex": "0x93",
          "logIndex": "0xbf",
          "removed": false
        },
        {
          "address": "0x5eb9cc76c3506942c1c0ead70e877dd5e4f00cb0",
          "topics": [
            "0x4afcb4a87cdbd9974efdb92ee48bc8d7cd0ae4bf217004db3d080cbaee652ca7"
          ],
          "data": "0x000000000000000000000000000000000000000000000000000000006786a3800000000000000000000000000000000000000000000000000003910b3a9f0ad70000000000000000000000000000000000000000000000000dc7db1332349341",
          "blockHash": "0x7ff85281a68929e39f0f57f487dee245d50076773aabb51b6b8954f3ff96754a",
          "blockNumber": "0x724ed1",
          "transactionHash": "0x70c652fc1f5b5c362417b7dd96f62c66266827a980fc695cf8d4eb314409883c",
          "transactionIndex": "0x93",
          "logIndex": "0xc0",
          "removed": false
        }
      ],
      "logsBloom": "0x00000000000000000000000000000000000000000000000000000000000000000000000000000000000000000000000000000000000000004000000000000000000000000000000000000008000000000000000000000000000000000000000000000000020000000000000004000800020000000000000000000010000000000000000000000000000000000000000000000000000000000000010000000000000000000000000000000000000000004000000000000000000000000000020000000002000000800000008000000000000000000000080000000000000020000000000000000000000000000000000000000000000000000000000000000000",
      "type": "0x2",
      "transactionHash": "0x70c652fc1f5b5c362417b7dd96f62c66266827a980fc695cf8d4eb314409883c",
      "transactionIndex": "0x93",
      "blockHash": "0x7ff85281a68929e39f0f57f487dee245d50076773aabb51b6b8954f3ff96754a",
      "blockNumber": "0x724ed1",
      "gasUsed": "0xfb93",
      "effectiveGasPrice": "0x5b3b2aa26",
      "from": "0xc77f7fed3b5cc8249adc428c5f44c9063b9734b4",
      "to": "0x5eb9cc76c3506942c1c0ead70e877dd5e4f00cb0",
      "contractAddress": null
    }
  ],
  "libraries": [],
  "pending": [],
  "returns": {},
  "timestamp": 1736876928,
  "chain": 11155111,
  "commit": "51a374b"
}