{
  "transactions": [
    {
      "hash": "0x6a168e2a5a5111c643953c6fe2a2542f92d02e2c1a7d181439ab9ecf9394aa30",
      "transactionType": "CALL",
      "contractName": null,
      "contractAddress": "0x8aafd3ede9adb0ff97c7aebce82a919afb1c8764",
      "function": "sell(uint256)",
      "arguments": [
        "75993570"
      ],
      "transaction": {
        "from": "0xc77f7fed3b5cc8249adc428c5f44c9063b9734b4",
        "to": "0x8aafd3ede9adb0ff97c7aebce82a919afb1c8764",
        "gas": "0x15d88",
        "value": "0x0",
        "input": "0xe4849b3200000000000000000000000000000000000000000000000000000000048791e2",
        "nonce": "0x135e",
        "chainId": "0xaa36a7"
      },
      "additionalContracts": [],
      "isFixedGasLimit": false
    }
  ],
  "receipts": [
    {
      "status": "0x1",
      "cumulativeGasUsed": "0x10be94a",
      "logs": [
        {
          "address": "0x8aafd3ede9adb0ff97c7aebce82a919afb1c8764",
          "topics": [
            "0xddf252ad1be2c89b69c2b068fc378daa952ba7f163c4a11628f55a4df523b3ef",
            "0x000000000000000000000000c77f7fed3b5cc8249adc428c5f44c9063b9734b4",
            "0x0000000000000000000000000000000000000000000000000000000000000000"
          ],
          "data": "0x00000000000000000000000000000000000000000000000000000000047e4b16",
          "blockHash": "0x862598dd11c4e3bac0f11259aa1d0e971a20fd2f1ac7e054cec3b3a7576a4c06",
          "blockNumber": "0x731a7d",
          "transactionHash": "0x6a168e2a5a5111c643953c6fe2a2542f92d02e2c1a7d181439ab9ecf9394aa30",
          "transactionIndex": "0xa4",
          "logIndex": "0xc1",
          "removed": false
        },
        {
          "address": "0x8aafd3ede9adb0ff97c7aebce82a919afb1c8764",
          "topics": [
            "0xddf252ad1be2c89b69c2b068fc378daa952ba7f163c4a11628f55a4df523b3ef",
            "0x000000000000000000000000c77f7fed3b5cc8249adc428c5f44c9063b9734b4",
            "0x000000000000000000000000c77f7fed3b5cc8249adc428c5f44c9063b9734b4"
          ],
          "data": "0x00000000000000000000000000000000000000000000000000000000000946cc",
          "blockHash": "0x862598dd11c4e3bac0f11259aa1d0e971a20fd2f1ac7e054cec3b3a7576a4c06",
          "blockNumber": "0x731a7d",
          "transactionHash": "0x6a168e2a5a5111c643953c6fe2a2542f92d02e2c1a7d181439ab9ecf9394aa30",
          "transactionIndex": "0xa4",
          "logIndex": "0xc2",
          "removed": false
        },
        {
          "address": "0x8aafd3ede9adb0ff97c7aebce82a919afb1c8764",
          "topics": [
            "0x4afcb4a87cdbd9974efdb92ee48bc8d7cd0ae4bf217004db3d080cbaee652ca7"
          ],
          "data": "0x0000000000000000000000000000000000000000000000000000000067903aac000000000000000000000000000000000000000000000000000c456f178774060000000000000000000000000000000000000000000000000000000000040155",
          "blockHash": "0x862598dd11c4e3bac0f11259aa1d0e971a20fd2f1ac7e054cec3b3a7576a4c06",
          "blockNumber": "0x731a7d",
          "transactionHash": "0x6a168e2a5a5111c643953c6fe2a2542f92d02e2c1a7d181439ab9ecf9394aa30",
          "transactionIndex": "0xa4",
          "logIndex": "0xc3",
          "removed": false
        }
      ],
      "logsBloom": "0x00000000000000000000000000000000000000000600000000000000000000000000000000000000000000000000000000000000000000004000000000000000000000000000004000000008000000000000000000000000000000000000000000000000020000000000000000000800020000000000000000000010000000000000000000000000000000000000000000000000000000000000010000000000000000000000000000000000000000004000000000000000000000000000000000000002000000800000000000000000000000000000080000000000000020000000000000000000000000000000000000000000000000000000000000000000",
      "type": "0x2",
      "transactionHash": "0x6a168e2a5a5111c643953c6fe2a2542f92d02e2c1a7d181439ab9ecf9394aa30",
      "transactionIndex": "0xa4",
      "blockHash": "0x862598dd11c4e3bac0f11259aa1d0e971a20fd2f1ac7e054cec3b3a7576a4c06",
      "blockNumber": "0x731a7d",
      "gasUsed": "0xfd0f",
      "effectiveGasPrice": "0x435a6a50",
      "from": "0xc77f7fed3b5cc8249adc428c5f44c9063b9734b4",
      "to": "0x8aafd3ede9adb0ff97c7aebce82a919afb1c8764",
      "contractAddress": null
    }
  ],
  "libraries": [],
  "pending": [],
  "returns": {},
  "timestamp": 1737505453,
  "chain": 11155111,
  "commit": "1d2fb70"
}