{
  "transactions": [
    {
      "hash": "0x3943426f2c02ceb9a41143b6f126d0b1004e83af94409fd070d8e0e4c5ac1a1c",
      "transactionType": "CALL",
      "contractName": null,
      "contractAddress": "0x8aafd3ede9adb0ff97c7aebce82a919afb1c8764",
      "function": "sell(uint256)",
      "arguments": [
        "635316868490"
      ],
      "transaction": {
        "from": "0xc77f7fed3b5cc8249adc428c5f44c9063b9734b4",
        "to": "0x8aafd3ede9adb0ff97c7aebce82a919afb1c8764",
        "gas": "0x1722a",
        "value": "0x0",
        "input": "0xe4849b3200000000000000000000000000000000000000000000000000000093ebd6158a",
        "nonce": "0x16f2",
        "chainId": "0xaa36a7"
      },
      "additionalContracts": [],
      "isFixedGasLimit": false
    }
  ],
  "receipts": [
    {
      "status": "0x1",
      "cumulativeGasUsed": "0x781586",
      "logs": [
        {
          "address": "0x8aafd3ede9adb0ff97c7aebce82a919afb1c8764",
          "topics": [
            "0xddf252ad1be2c89b69c2b068fc378daa952ba7f163c4a11628f55a4df523b3ef",
            "0x000000000000000000000000c77f7fed3b5cc8249adc428c5f44c9063b9734b4",
            "0x0000000000000000000000000000000000000000000000000000000000000000"
          ],
          "data": "0x00000000000000000000000000000000000000000000000000000092bce4c167",
          "blockHash": "0x20e9493b03ccf4d73a15acc89af9607b1c36ea5a263095b0640f647753d15033",
          "blockNumber": "0x731eb4",
          "transactionHash": "0x3943426f2c02ceb9a41143b6f126d0b1004e83af94409fd070d8e0e4c5ac1a1c",
          "transactionIndex": "0x32",
          "logIndex": "0x5f",
          "removed": false
        },
        {
          "address": "0x8aafd3ede9adb0ff97c7aebce82a919afb1c8764",
          "topics": [
            "0xddf252ad1be2c89b69c2b068fc378daa952ba7f163c4a11628f55a4df523b3ef",
            "0x000000000000000000000000c77f7fed3b5cc8249adc428c5f44c9063b9734b4",
            "0x000000000000000000000000c77f7fed3b5cc8249adc428c5f44c9063b9734b4"
          ],
          "data": "0x000000000000000000000000000000000000000000000000000000012ef15423",
          "blockHash": "0x20e9493b03ccf4d73a15acc89af9607b1c36ea5a263095b0640f647753d15033",
          "blockNumber": "0x731eb4",
          "transactionHash": "0x3943426f2c02ceb9a41143b6f126d0b1004e83af94409fd070d8e0e4c5ac1a1c",
          "transactionIndex": "0x32",
          "logIndex": "0x60",
          "removed": false
        },
        {
          "address": "0x8aafd3ede9adb0ff97c7aebce82a919afb1c8764",
          "topics": [
            "0x4afcb4a87cdbd9974efdb92ee48bc8d7cd0ae4bf217004db3d080cbaee652ca7"
          ],
          "data": "0x0000000000000000000000000000000000000000000000000000000067906d580000000000000000000000000000000000000000000000000016d990290ac4cc00000000000000000000000000000000000000000000000000000000f38d9b2d",
          "blockHash": "0x20e9493b03ccf4d73a15acc89af9607b1c36ea5a263095b0640f647753d15033",
          "blockNumber": "0x731eb4",
          "transactionHash": "0x3943426f2c02ceb9a41143b6f126d0b1004e83af94409fd070d8e0e4c5ac1a1c",
          "transactionIndex": "0x32",
          "logIndex": "0x61",
          "removed": false
        }
      ],
      "logsBloom": "0x00000000000000000000000000000000000000000600000000000000000000000000000000000000000000000000000000000000000000004000000000000000000000000000004000000008000000000000000000000000000000000000000000000000020000000000000000000800020000000000000000000010000000000000000000000000000000000000000000000000000000000000010000000000000000000000000000000000000000004000000000000000000000000000000000000002000000800000000000000000000000000000080000000000000020000000000000000000000000000000000000000000000000000000000000000000",
      "type": "0x2",
      "transactionHash": "0x3943426f2c02ceb9a41143b6f126d0b1004e83af94409fd070d8e0e4c5ac1a1c",
      "transactionIndex": "0x32",
      "blockHash": "0x20e9493b03ccf4d73a15acc89af9607b1c36ea5a263095b0640f647753d15033",
      "blockNumber": "0x731eb4",
      "gasUsed": "0xfd1b",
      "effectiveGasPrice": "0x3df957b6",
      "from": "0xc77f7fed3b5cc8249adc428c5f44c9063b9734b4",
      "to": "0x8aafd3ede9adb0ff97c7aebce82a919afb1c8764",
      "contractAddress": null
    }
  ],
  "libraries": [],
  "pending": [],
  "returns": {},
  "timestamp": 1737518425,
  "chain": 11155111,
  "commit": "1d2fb70"
}