{
  "transactions": [
    {
      "hash": "0x3621b4927808252cceae45f6b7a2132a2b45d72bf111b972f1a49d869e387367",
      "transactionType": "CALL",
      "contractName": null,
      "contractAddress": "0x8aafd3ede9adb0ff97c7aebce82a919afb1c8764",
      "function": "buy(address)",
      "arguments": [
        "0xC77f7fed3b5Cc8249aDc428c5F44C9063B9734b4"
      ],
      "transaction": {
        "from": "0xc77f7fed3b5cc8249adc428c5f44c9063b9734b4",
        "to": "0x8aafd3ede9adb0ff97c7aebce82a919afb1c8764",
        "gas": "0x156ea",
        "value": "0xde0b6b3a7640000",
        "input": "0xf088d547000000000000000000000000c77f7fed3b5cc8249adc428c5f44c9063b9734b4",
        "nonce": "0x1711",
        "chainId": "0xaa36a7"
      },
      "additionalContracts": [],
      "isFixedGasLimit": false
    }
  ],
  "receipts": [
    {
      "status": "0x1",
      "cumulativeGasUsed": "0xb9f092",
      "logs": [
        {
          "address": "0x8aafd3ede9adb0ff97c7aebce82a919afb1c8764",
          "topics": [
            "0xddf252ad1be2c89b69c2b068fc378daa952ba7f163c4a11628f55a4df523b3ef",
            "0x0000000000000000000000000000000000000000000000000000000000000000",
            "0x000000000000000000000000c77f7fed3b5cc8249adc428c5f44c9063b9734b4"
          ],
          "data": "0x0000000000000000000000000000000000000000000000083b0d58753a59ce70",
          "blockHash": "0xabf997f4f9a7cd9dac16c3646402ea43932c005f91849eb519eaf69a7fad57f1",
          "blockNumber": "0x731ed6",
          "transactionHash": "0x3621b4927808252cceae45f6b7a2132a2b45d72bf111b972f1a49d869e387367",
          "transactionIndex": "0x67",
          "logIndex": "0x89",
          "removed": false
        },
        {
          "address": "0x8aafd3ede9adb0ff97c7aebce82a919afb1c8764",
          "topics": [
            "0xddf252ad1be2c89b69c2b068fc378daa952ba7f163c4a11628f55a4df523b3ef",
            "0x0000000000000000000000000000000000000000000000000000000000000000",
            "0x000000000000000000000000c77f7fed3b5cc8249adc428c5f44c9063b9734b4"
          ],
          "data": "0x000000000000000000000000000000000000000000000000066432a65cf11756",
          "blockHash": "0xabf997f4f9a7cd9dac16c3646402ea43932c005f91849eb519eaf69a7fad57f1",
          "blockNumber": "0x731ed6",
          "transactionHash": "0x3621b4927808252cceae45f6b7a2132a2b45d72bf111b972f1a49d869e387367",
          "transactionIndex": "0x67",
          "logIndex": "0x8a",
          "removed": false
        },
        {
          "address": "0x8aafd3ede9adb0ff97c7aebce82a919afb1c8764",
          "topics": [
            "0x4afcb4a87cdbd9974efdb92ee48bc8d7cd0ae4bf217004db3d080cbaee652ca7"
          ],
          "data": "0x0000000000000000000000000000000000000000000000000000000067906ef00000000000000000000000000000000000000000000000000017313cfa9997310000000000000000000000000000000000000000000000000de0b6b3a7640000",
          "blockHash": "0xabf997f4f9a7cd9dac16c3646402ea43932c005f91849eb519eaf69a7fad57f1",
          "blockNumber": "0x731ed6",
          "transactionHash": "0x3621b4927808252cceae45f6b7a2132a2b45d72bf111b972f1a49d869e387367",
          "transactionIndex": "0x67",
          "logIndex": "0x8b",
          "removed": false
        }
      ],
      "logsBloom": "0x00000000000000000000000000000000000000000600000000000000000000000000000000000000000000000000000000000000000000004000000000000000000000000000004000000008000000000000000000000000000000000000000000000000020000000000000000000800020000000000000000000010000000000000000000000000000000000000000000000000000000000000010000000000000000000000000000000000000000004000000000000000000000000000000000000002000000800000000000000000000000000000080000000000000020000000000000000000000000000000000000000000000000000000000000000000",
      "type": "0x2",
      "transactionHash": "0x3621b4927808252cceae45f6b7a2132a2b45d72bf111b972f1a49d869e387367",
      "transactionIndex": "0x67",
      "blockHash": "0xabf997f4f9a7cd9dac16c3646402ea43932c005f91849eb519eaf69a7fad57f1",
      "blockNumber": "0x731ed6",
      "gasUsed": "0xf844",
      "effectiveGasPrice": "0x3b9f479d",
      "from": "0xc77f7fed3b5cc8249adc428c5f44c9063b9734b4",
      "to": "0x8aafd3ede9adb0ff97c7aebce82a919afb1c8764",
      "contractAddress": null
    }
  ],
  "libraries": [],
  "pending": [],
  "returns": {},
  "timestamp": 1737518832,
  "chain": 11155111,
  "commit": "1d2fb70"
}