{
  "transactions": [
    {
      "hash": "0x2004cb8d927fdb03a297abe178190af82b40051747fc1bdbf7cb3ab6ac19850d",
      "transactionType": "CALL",
      "contractName": null,
      "contractAddress": "0xd7bc75898e513accccf720a874d44dab5a4b6223",
      "function": "buy(address)",
      "arguments": [
        "0xC77f7fed3b5Cc8249aDc428c5F44C9063B9734b4"
      ],
      "transaction": {
        "from": "0xc77f7fed3b5cc8249adc428c5f44c9063b9734b4",
        "to": "0xd7bc75898e513accccf720a874d44dab5a4b6223",
        "gas": "0x156c8",
        "value": "0x16345785d8a0000",
        "input": "0xf088d547000000000000000000000000c77f7fed3b5cc8249adc428c5f44c9063b9734b4",
        "nonce": "0x61",
        "chainId": "0xaa36a7"
      },
      "additionalContracts": [],
      "isFixedGasLimit": false
    },
    {
      "hash": "0x396e8fc3fd06ba700db48ba7375d7b64966deada9252ba960fb878b020fd6e1c",
      "transactionType": "CALL",
      "contractName": null,
      "contractAddress": "0xd7bc75898e513accccf720a874d44dab5a4b6223",
      "function": "sell(uint256)",
      "arguments": [
        "109429630513671662413"
      ],
      "transaction": {
        "from": "0xc77f7fed3b5cc8249adc428c5f44c9063b9734b4",
        "to": "0xd7bc75898e513accccf720a874d44dab5a4b6223",
        "gas": "0x16fec",
        "value": "0x0",
        "input": "0xe4849b32000000000000000000000000000000000000000000000005eea4252b4da56b4d",
        "nonce": "0x62",
        "chainId": "0xaa36a7"
      },
      "additionalContracts": [],
      "isFixedGasLimit": false
    }
  ],
  "receipts": [
    {
      "status": "0x1",
      "cumulativeGasUsed": "0xe1c2c6",
      "logs": [
        {
          "address": "0xd7bc75898e513accccf720a874d44dab5a4b6223",
          "topics": [
            "0xddf252ad1be2c89b69c2b068fc378daa952ba7f163c4a11628f55a4df523b3ef",
            "0x0000000000000000000000000000000000000000000000000000000000000000",
            "0x000000000000000000000000c77f7fed3b5cc8249adc428c5f44c9063b9734b4"
          ],
          "data": "0x0000000000000000000000000000000000000000000000055de6a75e957a2e8c",
          "blockHash": "0x7fdeadbd402639f9f61158d6a5c8d98489a69da9d934a666bfb2f8bcb1a5094a",
          "blockNumber": "0x723891",
          "transactionHash": "0x2004cb8d927fdb03a297abe178190af82b40051747fc1bdbf7cb3ab6ac19850d",
          "transactionIndex": "0x6c",
          "logIndex": "0xb2",
          "removed": false
        },
        {
          "address": "0xd7bc75898e513accccf720a874d44dab5a4b6223",
          "topics": [
            "0xddf252ad1be2c89b69c2b068fc378daa952ba7f163c4a11628f55a4df523b3ef",
            "0x0000000000000000000000000000000000000000000000000000000000000000",
            "0x000000000000000000000000c77f7fed3b5cc8249adc428c5f44c9063b9734b4"
          ],
          "data": "0x000000000000000000000000000000000000000000000000042ae18820429fdf",
          "blockHash": "0x7fdeadbd402639f9f61158d6a5c8d98489a69da9d934a666bfb2f8bcb1a5094a",
          "blockNumber": "0x723891",
          "transactionHash": "0x2004cb8d927fdb03a297abe178190af82b40051747fc1bdbf7cb3ab6ac19850d",
          "transactionIndex": "0x6c",
          "logIndex": "0xb3",
          "removed": false
        },
        {
          "address": "0xd7bc75898e513accccf720a874d44dab5a4b6223",
          "topics": [
            "0x4afcb4a87cdbd9974efdb92ee48bc8d7cd0ae4bf217004db3d080cbaee652ca7"
          ],
          "data": "0x000000000000000000000000000000000000000000000000000000006785981400000000000000000000000000000000000000000000000000038d7ea58a6a29000000000000000000000000000000000000000000000000016345785d8a0000",
          "blockHash": "0x7fdeadbd402639f9f61158d6a5c8d98489a69da9d934a666bfb2f8bcb1a5094a",
          "blockNumber": "0x723891",
          "transactionHash": "0x2004cb8d927fdb03a297abe178190af82b40051747fc1bdbf7cb3ab6ac19850d",
          "transactionIndex": "0x6c",
          "logIndex": "0xb4",
          "removed": false
        }
      ],
      "logsBloom": "0x00000000000000000000000000000000000000000000000000000000000000000000000000000000000000000000000000000000000000004000000000000000000000000000000000000008000000000000000000000000000000000000000000000000020000000000000000000800020000000000000000000010000000000000000000000000000000000000000000000000000000000000010000000000000000000000000000000000000000004000001000000000000000000000000000000002000000800000000000004000000000000000080000000000000020000000000000000000000000000000000000000000080000000000000000000000",
      "type": "0x2",
      "transactionHash": "0x2004cb8d927fdb03a297abe178190af82b40051747fc1bdbf7cb3ab6ac19850d",
      "transactionIndex": "0x6c",
      "blockHash": "0x7fdeadbd402639f9f61158d6a5c8d98489a69da9d934a666bfb2f8bcb1a5094a",
      "blockNumber": "0x723891",
      "gasUsed": "0xf82c",
      "effectiveGasPrice": "0x29d59b4",
      "from": "0xc77f7fed3b5cc8249adc428c5f44c9063b9734b4",
      "to": "0xd7bc75898e513accccf720a874d44dab5a4b6223",
      "contractAddress": null
    },
    {
      "status": "0x1",
      "cumulativeGasUsed": "0xe2be59",
      "logs": [
        {
          "address": "0xd7bc75898e513accccf720a874d44dab5a4b6223",
          "topics": [
            "0xddf252ad1be2c89b69c2b068fc378daa952ba7f163c4a11628f55a4df523b3ef",
            "0x000000000000000000000000c77f7fed3b5cc8249adc428c5f44c9063b9734b4",
            "0x0000000000000000000000000000000000000000000000000000000000000000"
          ],
          "data": "0x000000000000000000000000000000000000000000000005eea4252b4da56b4d",
          "blockHash": "0x7fdeadbd402639f9f61158d6a5c8d98489a69da9d934a666bfb2f8bcb1a5094a",
          "blockNumber": "0x723891",
          "transactionHash": "0x396e8fc3fd06ba700db48ba7375d7b64966deada9252ba960fb878b020fd6e1c",
          "transactionIndex": "0x6d",
          "logIndex": "0xb5",
          "removed": false
        },
        {
          "address": "0xd7bc75898e513accccf720a874d44dab5a4b6223",
          "topics": [
            "0x4afcb4a87cdbd9974efdb92ee48bc8d7cd0ae4bf217004db3d080cbaee652ca7"
          ],
          "data": "0x000000000000000000000000000000000000000000000000000000006785981400000000000000000000000000000000000000000000000000038d7ea6e648360000000000000000000000000000000000000000000000000184c5aba26a4d88",
          "blockHash": "0x7fdeadbd402639f9f61158d6a5c8d98489a69da9d934a666bfb2f8bcb1a5094a",
          "blockNumber": "0x723891",
          "transactionHash": "0x396e8fc3fd06ba700db48ba7375d7b64966deada9252ba960fb878b020fd6e1c",
          "transactionIndex": "0x6d",
          "logIndex": "0xb6",
          "removed": false
        }
      ],
      "logsBloom": "0x00000000000000000000000000000000000000000000000000000000000000000000000000000000000000000000000000000000000000004000000000000000000000000000000000000008000000000000000000000000000000000000000000000000020000000000000000000800020000000000000000000010000000000000000000000000000000000000000000000000000000000000010000000000000000000000000000000000000000004000001000000000000000000000000000000002000000800000000000004000000000000000080000000000000020000000000000000000000000000000000000000000080000000000000000000000",
      "type": "0x2",
      "transactionHash": "0x396e8fc3fd06ba700db48ba7375d7b64966deada9252ba960fb878b020fd6e1c",
      "transactionIndex": "0x6d",
      "blockHash": "0x7fdeadbd402639f9f61158d6a5c8d98489a69da9d934a666bfb2f8bcb1a5094a",
      "blockNumber": "0x723891",
      "gasUsed": "0xfb93",
      "effectiveGasPrice": "0x29d59b4",
      "from": "0xc77f7fed3b5cc8249adc428c5f44c9063b9734b4",
      "to": "0xd7bc75898e513accccf720a874d44dab5a4b6223",
      "contractAddress": null
    }
  ],
  "libraries": [],
  "pending": [],
  "returns": {},
  "timestamp": 1736808471,
  "chain": 11155111,
  "commit": "51a374b"
}