{
  "transactions": [
    {
      "hash": "0x0cea8d1b8f05ed758176f269ce04ef187ef2899fee7e93c7655cb0dec22cca80",
      "transactionType": "CALL",
      "contractName": null,
      "contractAddress": "0x8aafd3ede9adb0ff97c7aebce82a919afb1c8764",
      "function": "sell(uint256)",
      "arguments": [
        "196358475"
      ],
      "transaction": {
        "from": "0xc77f7fed3b5cc8249adc428c5f44c9063b9734b4",
        "to": "0x8aafd3ede9adb0ff97c7aebce82a919afb1c8764",
        "gas": "0x14e6c",
        "value": "0x0",
        "input": "0xe4849b32000000000000000000000000000000000000000000000000000000000bb4314b",
        "nonce": "0xe84",
        "chainId": "0xaa36a7"
      },
      "additionalContracts": [],
      "isFixedGasLimit": false
    }
  ],
  "receipts": [
    {
      "status": "0x1",
      "cumulativeGasUsed": "0xedd1fc",
      "logs": [
        {
          "address": "0x8aafd3ede9adb0ff97c7aebce82a919afb1c8764",
          "topics": [
            "0xddf252ad1be2c89b69c2b068fc378daa952ba7f163c4a11628f55a4df523b3ef",
            "0x000000000000000000000000c77f7fed3b5cc8249adc428c5f44c9063b9734b4",
            "0x0000000000000000000000000000000000000000000000000000000000000000"
          ],
          "data": "0x000000000000000000000000000000000000000000000000000000000b9c3918",
          "blockHash": "0xb5938b0a7dbf43c1ce476f5a9f030a7e0cdb864ddcd281b6368abf87dc48daa2",
          "blockNumber": "0x7313df",
          "transactionHash": "0x0cea8d1b8f05ed758176f269ce04ef187ef2899fee7e93c7655cb0dec22cca80",
          "transactionIndex": "0xa5",
          "logIndex": "0x127",
          "removed": false
        },
        {
          "address": "0x8aafd3ede9adb0ff97c7aebce82a919afb1c8764",
          "topics": [
            "0xddf252ad1be2c89b69c2b068fc378daa952ba7f163c4a11628f55a4df523b3ef",
            "0x000000000000000000000000c77f7fed3b5cc8249adc428c5f44c9063b9734b4",
            "0x000000000000000000000000c77f7fed3b5cc8249adc428c5f44c9063b9734b4"
          ],
          "data": "0x000000000000000000000000000000000000000000000000000000000017f833",
          "blockHash": "0xb5938b0a7dbf43c1ce476f5a9f030a7e0cdb864ddcd281b6368abf87dc48daa2",
          "blockNumber": "0x7313df",
          "transactionHash": "0x0cea8d1b8f05ed758176f269ce04ef187ef2899fee7e93c7655cb0dec22cca80",
          "transactionIndex": "0xa5",
          "logIndex": "0x128",
          "removed": false
        },
        {
          "address": "0x8aafd3ede9adb0ff97c7aebce82a919afb1c8764",
          "topics": [
            "0x4afcb4a87cdbd9974efdb92ee48bc8d7cd0ae4bf217004db3d080cbaee652ca7"
          ],
          "data": "0x00000000000000000000000000000000000000000000000000000000678feb080000000000000000000000000000000000000000000000000004b61edc0cf9ee000000000000000000000000000000000000000000000000000000000003f92f",
          "blockHash": "0xb5938b0a7dbf43c1ce476f5a9f030a7e0cdb864ddcd281b6368abf87dc48daa2",
          "blockNumber": "0x7313df",
          "transactionHash": "0x0cea8d1b8f05ed758176f269ce04ef187ef2899fee7e93c7655cb0dec22cca80",
          "transactionIndex": "0xa5",
          "logIndex": "0x129",
          "removed": false
        }
      ],
      "logsBloom": "0x00000000000000000000000000000000000000000600000000000000000000000000000000000000000000000000000000000000000000004000000000000000000000000000004000000008000000000000000000000000000000000000000000000000020000000000000000000800020000000000000000000010000000000000000000000000000000000000000000000000000000000000010000000000000000000000000000000000000000004000000000000000000000000000000000000002000000800000000000000000000000000000080000000000000020000000000000000000000000000000000000000000000000000000000000000000",
      "type": "0x2",
      "transactionHash": "0x0cea8d1b8f05ed758176f269ce04ef187ef2899fee7e93c7655cb0dec22cca80",
      "transactionIndex": "0xa5",
      "blockHash": "0xb5938b0a7dbf43c1ce476f5a9f030a7e0cdb864ddcd281b6368abf87dc48daa2",
      "blockNumber": "0x7313df",
      "gasUsed": "0xf21f",
      "effectiveGasPrice": "0x6fadd6e4",
      "from": "0xc77f7fed3b5cc8249adc428c5f44c9063b9734b4",
      "to": "0x8aafd3ede9adb0ff97c7aebce82a919afb1c8764",
      "contractAddress": null
    }
  ],
  "libraries": [],
  "pending": [],
  "returns": {},
  "timestamp": 1737485065,
  "chain": 11155111,
  "commit": "51a374b"
}