{
  "transactions": [
    {
      "hash": "0x52e1c913215240d338cea5c7d79ed3c5058a85ab04ef730a13a236d8b1618843",
      "transactionType": "CALL",
      "contractName": null,
      "contractAddress": "0x270e88f8683660553e8ba4eb2ad7c91a1710d769",
      "function": "sell(uint256)",
      "arguments": [
        "711578812208368610185"
      ],
      "transaction": {
        "from": "0xc77f7fed3b5cc8249adc428c5f44c9063b9734b4",
        "to": "0x270e88f8683660553e8ba4eb2ad7c91a1710d769",
        "gas": "0x16fec",
        "value": "0x0",
        "input": "0xe4849b320000000000000000000000000000000000000000000000269323c798ee346b89",
        "nonce": "0x888",
        "chainId": "0xaa36a7"
      },
      "additionalContracts": [],
      "isFixedGasLimit": false
    }
  ],
  "receipts": [
    {
      "status": "0x1",
      "cumulativeGasUsed": "0x1447a37",
      "logs": [
        {
          "address": "0x270e88f8683660553e8ba4eb2ad7c91a1710d769",
          "topics": [
            "0xddf252ad1be2c89b69c2b068fc378daa952ba7f163c4a11628f55a4df523b3ef",
            "0x000000000000000000000000c77f7fed3b5cc8249adc428c5f44c9063b9734b4",
            "0x0000000000000000000000000000000000000000000000000000000000000000"
          ],
          "data": "0x0000000000000000000000000000000000000000000000269323c798ee346b89",
          "blockHash": "0xdef9b25d45a8a0af13a188008f7b19ac5105cfd5d9abcf7ddd97b301e3a0d3d9",
          "blockNumber": "0x7255e4",
          "transactionHash": "0x52e1c913215240d338cea5c7d79ed3c5058a85ab04ef730a13a236d8b1618843",
          "transactionIndex": "0x55",
          "logIndex": "0x14a",
          "removed": false
        },
        {
          "address": "0x270e88f8683660553e8ba4eb2ad7c91a1710d769",
          "topics": [
            "0x4afcb4a87cdbd9974efdb92ee48bc8d7cd0ae4bf217004db3d080cbaee652ca7"
          ],
          "data": "0x000000000000000000000000000000000000000000000000000000006786f8b80000000000000000000000000000000000000000000000000004f57c74ef89e60000000000000000000000000000000000000000000000000dc8258e9ecdae75",
          "blockHash": "0xdef9b25d45a8a0af13a188008f7b19ac5105cfd5d9abcf7ddd97b301e3a0d3d9",
          "blockNumber": "0x7255e4",
          "transactionHash": "0x52e1c913215240d338cea5c7d79ed3c5058a85ab04ef730a13a236d8b1618843",
          "transactionIndex": "0x55",
          "logIndex": "0x14b",
          "removed": false
        }
      ],
      "logsBloom": "0x00000000000000000000000000000000000000000000000000000000000000000000000000000000000000000000000020000000000000004000000000000000000000000000000000000008000000000000000000000000000000000000000000000000020000000000000000000800020000000000000000000010000000000000000000010000000000000000000000000000000000000000010000000000000000000000000000000000000000004000000000000000000000000000000000000002000000800000000000000000000000000000080000008000000020000000000000000000000000000000000000000000000000000000000000000000",
      "type": "0x2",
      "transactionHash": "0x52e1c913215240d338cea5c7d79ed3c5058a85ab04ef730a13a236d8b1618843",
      "transactionIndex": "0x55",
      "blockHash": "0xdef9b25d45a8a0af13a188008f7b19ac5105cfd5d9abcf7ddd97b301e3a0d3d9",
      "blockNumber": "0x7255e4",
      "gasUsed": "0xfb93",
      "effectiveGasPrice": "0xe1d1787d",
      "from": "0xc77f7fed3b5cc8249adc428c5f44c9063b9734b4",
      "to": "0x270e88f8683660553e8ba4eb2ad7c91a1710d769",
      "contractAddress": null
    }
  ],
  "libraries": [],
  "pending": [],
  "returns": {},
  "timestamp": 1736898745,
  "chain": 11155111,
  "commit": "51a374b"
}