{
  "transactions": [
    {
      "hash": "0xfd20316999321bacb6656af75b398e5117c81791b591cea87cd892a5b2079c59",
      "transactionType": "CALL",
      "contractName": null,
      "contractAddress": "0x8aafd3ede9adb0ff97c7aebce82a919afb1c8764",
      "function": "sell(uint256)",
      "arguments": [
        "5339296227720780638"
      ],
      "transaction": {
        "from": "0xc77f7fed3b5cc8249adc428c5f44c9063b9734b4",
        "to": "0x8aafd3ede9adb0ff97c7aebce82a919afb1c8764",
        "gas": "0x15dca",
        "value": "0x0",
        "input": "0xe4849b320000000000000000000000000000000000000000000000004a18fda15be15b5e",
        "nonce": "0x12ae",
        "chainId": "0xaa36a7"
      },
      "additionalContracts": [],
      "isFixedGasLimit": false
    }
  ],
  "receipts": [
    {
      "status": "0x1",
      "cumulativeGasUsed": "0x1868263",
      "logs": [
        {
          "address": "0x8aafd3ede9adb0ff97c7aebce82a919afb1c8764",
          "topics": [
            "0xddf252ad1be2c89b69c2b068fc378daa952ba7f163c4a11628f55a4df523b3ef",
            "0x000000000000000000000000c77f7fed3b5cc8249adc428c5f44c9063b9734b4",
            "0x0000000000000000000000000000000000000000000000000000000000000000"
          ],
          "data": "0x00000000000000000000000000000000000000000000000049813d2323d968f9",
          "blockHash": "0xbcb3e13062cade73b6b7cd1aab2b2eb0498665cf4dbf0428c94fecfaf8257f38",
          "blockNumber": "0x7319a4",
          "transactionHash": "0xfd20316999321bacb6656af75b398e5117c81791b591cea87cd892a5b2079c59",
          "transactionIndex": "0x7b",
          "logIndex": "0x846",
          "removed": false
        },
        {
          "address": "0x8aafd3ede9adb0ff97c7aebce82a919afb1c8764",
          "topics": [
            "0xddf252ad1be2c89b69c2b068fc378daa952ba7f163c4a11628f55a4df523b3ef",
            "0x000000000000000000000000c77f7fed3b5cc8249adc428c5f44c9063b9734b4",
            "0x000000000000000000000000c77f7fed3b5cc8249adc428c5f44c9063b9734b4"
          ],
          "data": "0x0000000000000000000000000000000000000000000000000097c07e3807f265",
          "blockHash": "0xbcb3e13062cade73b6b7cd1aab2b2eb0498665cf4dbf0428c94fecfaf8257f38",
          "blockNumber": "0x7319a4",
          "transactionHash": "0xfd20316999321bacb6656af75b398e5117c81791b591cea87cd892a5b2079c59",
          "transactionIndex": "0x7b",
          "logIndex": "0x847",
          "removed": false
        },
        {
          "address": "0x8aafd3ede9adb0ff97c7aebce82a919afb1c8764",
          "topics": [
            "0x4afcb4a87cdbd9974efdb92ee48bc8d7cd0ae4bf217004db3d080cbaee652ca7"
          ],
          "data": "0x000000000000000000000000000000000000000000000000000000006790308000000000000000000000000000000000000000000000000000054aa309177391000000000000000000000000000000000000000000000000001c40c36263716b",
          "blockHash": "0xbcb3e13062cade73b6b7cd1aab2b2eb0498665cf4dbf0428c94fecfaf8257f38",
          "blockNumber": "0x7319a4",
          "transactionHash": "0xfd20316999321bacb6656af75b398e5117c81791b591cea87cd892a5b2079c59",
          "transactionIndex": "0x7b",
          "logIndex": "0x848",
          "removed": false
        }
      ],
      "logsBloom": "0x00000000000000000000000000000000000000000600000000000000000000000000000000000000000000000000000000000000000000004000000000000000000000000000004000000008000000000000000000000000000000000000000000000000020000000000000000000800020000000000000000000010000000000000000000000000000000000000000000000000000000000000010000000000000000000000000000000000000000004000000000000000000000000000000000000002000000800000000000000000000000000000080000000000000020000000000000000000000000000000000000000000000000000000000000000000",
      "type": "0x2",
      "transactionHash": "0xfd20316999321bacb6656af75b398e5117c81791b591cea87cd892a5b2079c59",
      "transactionIndex": "0x7b",
      "blockHash": "0xbcb3e13062cade73b6b7cd1aab2b2eb0498665cf4dbf0428c94fecfaf8257f38",
      "blockNumber": "0x7319a4",
      "gasUsed": "0xfd3f",
      "effectiveGasPrice": "0x3ed34ecb",
      "from": "0xc77f7fed3b5cc8249adc428c5f44c9063b9734b4",
      "to": "0x8aafd3ede9adb0ff97c7aebce82a919afb1c8764",
      "contractAddress": null
    }
  ],
  "libraries": [],
  "pending": [],
  "returns": {},
  "timestamp": 1737502849,
  "chain": 11155111,
  "commit": "1d2fb70"
}