{
  "transactions": [
    {
      "hash": "0x6d8971760825dfa0cba12701203cc59d41bb101c97561acb8ea010c1dd4abdfc",
      "transactionType": "CALL",
      "contractName": null,
      "contractAddress": "0x8aafd3ede9adb0ff97c7aebce82a919afb1c8764",
      "function": "sell(uint256)",
      "arguments": [
        "1957414398236342506"
      ],
      "transaction": {
        "from": "0xc77f7fed3b5cc8249adc428c5f44c9063b9734b4",
        "to": "0x8aafd3ede9adb0ff97c7aebce82a919afb1c8764",
        "gas": "0x15dca",
        "value": "0x0",
        "input": "0xe4849b320000000000000000000000000000000000000000000000001b2a22063d1cb8ea",
        "nonce": "0x141f",
        "chainId": "0xaa36a7"
      },
      "additionalContracts": [],
      "isFixedGasLimit": false
    }
  ],
  "receipts": [
    {
      "status": "0x1",
      "cumulativeGasUsed": "0x97b66a",
      "logs": [
        {
          "address": "0x8aafd3ede9adb0ff97c7aebce82a919afb1c8764",
          "topics": [
            "0xddf252ad1be2c89b69c2b068fc378daa952ba7f163c4a11628f55a4df523b3ef",
            "0x000000000000000000000000c77f7fed3b5cc8249adc428c5f44c9063b9734b4",
            "0x0000000000000000000000000000000000000000000000000000000000000000"
          ],
          "data": "0x0000000000000000000000000000000000000000000000001af27ff5ce080336",
          "blockHash": "0xf237f859c82eb92a7d1ee16a7beed7dea99b1cd29e64cee03fbbd18ad8b94001",
          "blockNumber": "0x731b5b",
          "transactionHash": "0x6d8971760825dfa0cba12701203cc59d41bb101c97561acb8ea010c1dd4abdfc",
          "transactionIndex": "0x42",
          "logIndex": "0x3d",
          "removed": false
        },
        {
          "address": "0x8aafd3ede9adb0ff97c7aebce82a919afb1c8764",
          "topics": [
            "0xddf252ad1be2c89b69c2b068fc378daa952ba7f163c4a11628f55a4df523b3ef",
            "0x000000000000000000000000c77f7fed3b5cc8249adc428c5f44c9063b9734b4",
            "0x000000000000000000000000c77f7fed3b5cc8249adc428c5f44c9063b9734b4"
          ],
          "data": "0x0000000000000000000000000000000000000000000000000037a2106f14b5b4",
          "blockHash": "0xf237f859c82eb92a7d1ee16a7beed7dea99b1cd29e64cee03fbbd18ad8b94001",
          "blockNumber": "0x731b5b",
          "transactionHash": "0x6d8971760825dfa0cba12701203cc59d41bb101c97561acb8ea010c1dd4abdfc",
          "transactionIndex": "0x42",
          "logIndex": "0x3e",
          "removed": false
        },
        {
          "address": "0x8aafd3ede9adb0ff97c7aebce82a919afb1c8764",
          "topics": [
            "0x4afcb4a87cdbd9974efdb92ee48bc8d7cd0ae4bf217004db3d080cbaee652ca7"
          ],
          "data": "0x0000000000000000000000000000000000000000000000000000000067904514000000000000000000000000000000000000000000000000000e856c11e04380000000000000000000000000000000000000000000000000001c6c38ca7a993c",
          "blockHash": "0xf237f859c82eb92a7d1ee16a7beed7dea99b1cd29e64cee03fbbd18ad8b94001",
          "blockNumber": "0x731b5b",
          "transactionHash": "0x6d8971760825dfa0cba12701203cc59d41bb101c97561acb8ea010c1dd4abdfc",
          "transactionIndex": "0x42",
          "logIndex": "0x3f",
          "removed": false
        }
      ],
      "logsBloom": "0x00000000000000000000000000000000000000000600000000000000000000000000000000000000000000000000000000000000000000004000000000000000000000000000004000000008000000000000000000000000000000000000000000000000020000000000000000000800020000000000000000000010000000000000000000000000000000000000000000000000000000000000010000000000000000000000000000000000000000004000000000000000000000000000000000000002000000800000000000000000000000000000080000000000000020000000000000000000000000000000000000000000000000000000000000000000",
      "type": "0x2",
      "transactionHash": "0x6d8971760825dfa0cba12701203cc59d41bb101c97561acb8ea010c1dd4abdfc",
      "transactionIndex": "0x42",
      "blockHash": "0xf237f859c82eb92a7d1ee16a7beed7dea99b1cd29e64cee03fbbd18ad8b94001",
      "blockNumber": "0x731b5b",
      "gasUsed": "0xfd3f",
      "effectiveGasPrice": "0xf9c35ff8",
      "from": "0xc77f7fed3b5cc8249adc428c5f44c9063b9734b4",
      "to": "0x8aafd3ede9adb0ff97c7aebce82a919afb1c8764",
      "contractAddress": null
    }
  ],
  "libraries": [],
  "pending": [],
  "returns": {},
  "timestamp": 1737508117,
  "chain": 11155111,
  "commit": "1d2fb70"
}