{
  "transactions": [
    {
      "hash": "0x2da828092a324d8c55ce7a5c0c070112db2dffecce281cce292724e85355031d",
      "transactionType": "CALL",
      "contractName": null,
      "contractAddress": "0x8aafd3ede9adb0ff97c7aebce82a919afb1c8764",
      "function": "sell(uint256)",
      "arguments": [
        "64600750"
      ],
      "transaction": {
        "from": "0xc77f7fed3b5cc8249adc428c5f44c9063b9734b4",
        "to": "0x8aafd3ede9adb0ff97c7aebce82a919afb1c8764",
        "gas": "0x15d88",
        "value": "0x0",
        "input": "0xe4849b320000000000000000000000000000000000000000000000000000000003d9baae",
        "nonce": "0x141b",
        "chainId": "0xaa36a7"
      },
      "additionalContracts": [],
      "isFixedGasLimit": false
    }
  ],
  "receipts": [
    {
      "status": "0x1",
      "cumulativeGasUsed": "0x111fa17",
      "logs": [
        {
          "address": "0x8aafd3ede9adb0ff97c7aebce82a919afb1c8764",
          "topics": [
            "0xddf252ad1be2c89b69c2b068fc378daa952ba7f163c4a11628f55a4df523b3ef",
            "0x000000000000000000000000c77f7fed3b5cc8249adc428c5f44c9063b9734b4",
            "0x0000000000000000000000000000000000000000000000000000000000000000"
          ],
          "data": "0x0000000000000000000000000000000000000000000000000000000003d1d7e8",
          "blockHash": "0x9551f63fcebf523a16342d5ed0f11660dcacb4bed5b97ecfc62ba0be484c09ed",
          "blockNumber": "0x731b56",
          "transactionHash": "0x2da828092a324d8c55ce7a5c0c070112db2dffecce281cce292724e85355031d",
          "transactionIndex": "0xa1",
          "logIndex": "0xe9",
          "removed": false
        },
        {
          "address": "0x8aafd3ede9adb0ff97c7aebce82a919afb1c8764",
          "topics": [
            "0xddf252ad1be2c89b69c2b068fc378daa952ba7f163c4a11628f55a4df523b3ef",
            "0x000000000000000000000000c77f7fed3b5cc8249adc428c5f44c9063b9734b4",
            "0x000000000000000000000000c77f7fed3b5cc8249adc428c5f44c9063b9734b4"
          ],
          "data": "0x000000000000000000000000000000000000000000000000000000000007e2c6",
          "blockHash": "0x9551f63fcebf523a16342d5ed0f11660dcacb4bed5b97ecfc62ba0be484c09ed",
          "blockNumber": "0x731b56",
          "transactionHash": "0x2da828092a324d8c55ce7a5c0c070112db2dffecce281cce292724e85355031d",
          "transactionIndex": "0xa1",
          "logIndex": "0xea",
          "removed": false
        },
        {
          "address": "0x8aafd3ede9adb0ff97c7aebce82a919afb1c8764",
          "topics": [
            "0x4afcb4a87cdbd9974efdb92ee48bc8d7cd0ae4bf217004db3d080cbaee652ca7"
          ],
          "data": "0x00000000000000000000000000000000000000000000000000000000679044d8000000000000000000000000000000000000000000000000000e6b1e3d5821ad0000000000000000000000000000000000000000000000000000000000040021",
          "blockHash": "0x9551f63fcebf523a16342d5ed0f11660dcacb4bed5b97ecfc62ba0be484c09ed",
          "blockNumber": "0x731b56",
          "transactionHash": "0x2da828092a324d8c55ce7a5c0c070112db2dffecce281cce292724e85355031d",
          "transactionIndex": "0xa1",
          "logIndex": "0xeb",
          "removed": false
        }
      ],
      "logsBloom": "0x00000000000000000000000000000000000000000600000000000000000000000000000000000000000000000000000000000000000000004000000000000000000000000000004000000008000000000000000000000000000000000000000000000000020000000000000000000800020000000000000000000010000000000000000000000000000000000000000000000000000000000000010000000000000000000000000000000000000000004000000000000000000000000000000000000002000000800000000000000000000000000000080000000000000020000000000000000000000000000000000000000000000000000000000000000000",
      "type": "0x2",
      "transactionHash": "0x2da828092a324d8c55ce7a5c0c070112db2dffecce281cce292724e85355031d",
      "transactionIndex": "0xa1",
      "blockHash": "0x9551f63fcebf523a16342d5ed0f11660dcacb4bed5b97ecfc62ba0be484c09ed",
      "blockNumber": "0x731b56",
      "gasUsed": "0xfd0f",
      "effectiveGasPrice": "0xe714b70e",
      "from": "0xc77f7fed3b5cc8249adc428c5f44c9063b9734b4",
      "to": "0x8aafd3ede9adb0ff97c7aebce82a919afb1c8764",
      "contractAddress": null
    }
  ],
  "libraries": [],
  "pending": [],
  "returns": {},
  "timestamp": 1737508057,
  "chain": 11155111,
  "commit": "1d2fb70"
}