{
  "transactions": [
    {
      "hash": "0xb3446233e05dd16ba18f3fe2e293357484d717d90021bc2091451416e8abe5c0",
      "transactionType": "CALL",
      "contractName": null,
      "contractAddress": "0x8aafd3ede9adb0ff97c7aebce82a919afb1c8764",
      "function": "sell(uint256)",
      "arguments": [
        "1565470"
      ],
      "transaction": {
        "from": "0xc77f7fed3b5cc8249adc428c5f44c9063b9734b4",
        "to": "0x8aafd3ede9adb0ff97c7aebce82a919afb1c8764",
        "gas": "0x16208",
        "value": "0x0",
        "input": "0xe4849b32000000000000000000000000000000000000000000000000000000000017e31e",
        "nonce": "0xee9",
        "chainId": "0xaa36a7"
      },
      "additionalContracts": [],
      "isFixedGasLimit": false
    }
  ],
  "receipts": [
    {
      "status": "0x1",
      "cumulativeGasUsed": "0xdac7c5",
      "logs": [
        {
          "address": "0x8aafd3ede9adb0ff97c7aebce82a919afb1c8764",
          "topics": [
            "0xddf252ad1be2c89b69c2b068fc378daa952ba7f163c4a11628f55a4df523b3ef",
            "0x000000000000000000000000c77f7fed3b5cc8249adc428c5f44c9063b9734b4",
            "0x0000000000000000000000000000000000000000000000000000000000000000"
          ],
          "data": "0x000000000000000000000000000000000000000000000000000000000017b233",
          "blockHash": "0xde2782ee5dace4aeb966227f0f4fd43edd32c03bcb01fc1f323146e840453275",
          "blockNumber": "0x731460",
          "transactionHash": "0xb3446233e05dd16ba18f3fe2e293357484d717d90021bc2091451416e8abe5c0",
          "transactionIndex": "0x83",
          "logIndex": "0xec",
          "removed": false
        },
        {
          "address": "0x8aafd3ede9adb0ff97c7aebce82a919afb1c8764",
          "topics": [
            "0xddf252ad1be2c89b69c2b068fc378daa952ba7f163c4a11628f55a4df523b3ef",
            "0x000000000000000000000000c77f7fed3b5cc8249adc428c5f44c9063b9734b4",
            "0x000000000000000000000000c77f7fed3b5cc8249adc428c5f44c9063b9734b4"
          ],
          "data": "0x00000000000000000000000000000000000000000000000000000000000030eb",
          "blockHash": "0xde2782ee5dace4aeb966227f0f4fd43edd32c03bcb01fc1f323146e840453275",
          "blockNumber": "0x731460",
          "transactionHash": "0xb3446233e05dd16ba18f3fe2e293357484d717d90021bc2091451416e8abe5c0",
          "transactionIndex": "0x83",
          "logIndex": "0xed",
          "removed": false
        },
        {
          "address": "0x8aafd3ede9adb0ff97c7aebce82a919afb1c8764",
          "topics": [
            "0x4afcb4a87cdbd9974efdb92ee48bc8d7cd0ae4bf217004db3d080cbaee652ca7"
          ],
          "data": "0x00000000000000000000000000000000000000000000000000000000678ff12c0000000000000000000000000000000000000000000000000004ba47104e41a80000000000000000000000000000000000000000000000000000000000000823",
          "blockHash": "0xde2782ee5dace4aeb966227f0f4fd43edd32c03bcb01fc1f323146e840453275",
          "blockNumber": "0x731460",
          "transactionHash": "0xb3446233e05dd16ba18f3fe2e293357484d717d90021bc2091451416e8abe5c0",
          "transactionIndex": "0x83",
          "logIndex": "0xee",
          "removed": false
        }
      ],
      "logsBloom": "0x00000000000000000000000000000000000000000600000000000000000000000000000000000000000000000000000000000000000000004000000000000000000000000000004000000008000000000000000000000000000000000000000000000000020000000000000000000800020000000000000000000010000000000000000000000000000000000000000000000000000000000000010000000000000000000000000000000000000000004000000000000000000000000000000000000002000000800000000000000000000000000000080000000000000020000000000000000000000000000000000000000000000000000000000000000000",
      "type": "0x2",
      "transactionHash": "0xb3446233e05dd16ba18f3fe2e293357484d717d90021bc2091451416e8abe5c0",
      "transactionIndex": "0x83",
      "blockHash": "0xde2782ee5dace4aeb966227f0f4fd43edd32c03bcb01fc1f323146e840453275",
      "blockNumber": "0x731460",
      "gasUsed": "0xf213",
      "effectiveGasPrice": "0xc4154e67",
      "from": "0xc77f7fed3b5cc8249adc428c5f44c9063b9734b4",
      "to": "0x8aafd3ede9adb0ff97c7aebce82a919afb1c8764",
      "contractAddress": null
    }
  ],
  "libraries": [],
  "pending": [],
  "returns": {},
  "timestamp": 1737486638,
  "chain": 11155111,
  "commit": "51a374b"
}