{
  "transactions": [
    {
      "hash": "0xdfd044aac3c2ddbb627cab6bd5e0b941944bec561c4537a4b9c61986f05ba588",
      "transactionType": "CALL",
      "contractName": null,
      "contractAddress": "0x8aafd3ede9adb0ff97c7aebce82a919afb1c8764",
      "function": "sell(uint256)",
      "arguments": [
        "5327851400095097070"
      ],
      "transaction": {
        "from": "0xc77f7fed3b5cc8249adc428c5f44c9063b9734b4",
        "to": "0x8aafd3ede9adb0ff97c7aebce82a919afb1c8764",
        "gas": "0x15dca",
        "value": "0x0",
        "input": "0xe4849b3200000000000000000000000000000000000000000000000049f0549ec6bc60ee",
        "nonce": "0x12c2",
        "chainId": "0xaa36a7"
      },
      "additionalContracts": [],
      "isFixedGasLimit": false
    }
  ],
  "receipts": [
    {
      "status": "0x1",
      "cumulativeGasUsed": "0xbb0745",
      "logs": [
        {
          "address": "0x8aafd3ede9adb0ff97c7aebce82a919afb1c8764",
          "topics": [
            "0xddf252ad1be2c89b69c2b068fc378daa952ba7f163c4a11628f55a4df523b3ef",
            "0x000000000000000000000000c77f7fed3b5cc8249adc428c5f44c9063b9734b4",
            "0x0000000000000000000000000000000000000000000000000000000000000000"
          ],
          "data": "0x0000000000000000000000000000000000000000000000004958e76635c93526",
          "blockHash": "0xad2bcbe617d01aefce8ec77e93c31943cc58a3fd3c881c5b2eeb5fd782539ef2",
          "blockNumber": "0x7319bb",
          "transactionHash": "0xdfd044aac3c2ddbb627cab6bd5e0b941944bec561c4537a4b9c61986f05ba588",
          "transactionIndex": "0x89",
          "logIndex": "0xad",
          "removed": false
        },
        {
          "address": "0x8aafd3ede9adb0ff97c7aebce82a919afb1c8764",
          "topics": [
            "0xddf252ad1be2c89b69c2b068fc378daa952ba7f163c4a11628f55a4df523b3ef",
            "0x000000000000000000000000c77f7fed3b5cc8249adc428c5f44c9063b9734b4",
            "0x000000000000000000000000c77f7fed3b5cc8249adc428c5f44c9063b9734b4"
          ],
          "data": "0x00000000000000000000000000000000000000000000000000976d3890f32bc8",
          "blockHash": "0xad2bcbe617d01aefce8ec77e93c31943cc58a3fd3c881c5b2eeb5fd782539ef2",
          "blockNumber": "0x7319bb",
          "transactionHash": "0xdfd044aac3c2ddbb627cab6bd5e0b941944bec561c4537a4b9c61986f05ba588",
          "transactionIndex": "0x89",
          "logIndex": "0xae",
          "removed": false
        },
        {
          "address": "0x8aafd3ede9adb0ff97c7aebce82a919afb1c8764",
          "topics": [
            "0x4afcb4a87cdbd9974efdb92ee48bc8d7cd0ae4bf217004db3d080cbaee652ca7"
          ],
          "data": "0x000000000000000000000000000000000000000000000000000000006790319400000000000000000000000000000000000000000000000000054d8b2f0f5169000000000000000000000000000000000000000000000000001c40bf33d1f266",
          "blockHash": "0xad2bcbe617d01aefce8ec77e93c31943cc58a3fd3c881c5b2eeb5fd782539ef2",
          "blockNumber": "0x7319bb",
          "transactionHash": "0xdfd044aac3c2ddbb627cab6bd5e0b941944bec561c4537a4b9c61986f05ba588",
          "transactionIndex": "0x89",
          "logIndex": "0xaf",
          "removed": false
        }
      ],
      "logsBloom": "0x00000000000000000000000000000000000000000600000000000000000000000000000000000000000000000000000000000000000000004000000000000000000000000000004000000008000000000000000000000000000000000000000000000000020000000000000000000800020000000000000000000010000000000000000000000000000000000000000000000000000000000000010000000000000000000000000000000000000000004000000000000000000000000000000000000002000000800000000000000000000000000000080000000000000020000000000000000000000000000000000000000000000000000000000000000000",
      "type": "0x2",
      "transactionHash": "0xdfd044aac3c2ddbb627cab6bd5e0b941944bec561c4537a4b9c61986f05ba588",
      "transactionIndex": "0x89",
      "blockHash": "0xad2bcbe617d01aefce8ec77e93c31943cc58a3fd3c881c5b2eeb5fd782539ef2",
      "blockNumber": "0x7319bb",
      "gasUsed": "0xfd3f",
      "effectiveGasPrice": "0x47d54a2b",
      "from": "0xc77f7fed3b5cc8249adc428c5f44c9063b9734b4",
      "to": "0x8aafd3ede9adb0ff97c7aebce82a919afb1c8764",
      "contractAddress": null
    }
  ],
  "libraries": [],
  "pending": [],
  "returns": {},
  "timestamp": 1737503125,
  "chain": 11155111,
  "commit": "1d2fb70"
}