{
  "transactions": [
    {
      "hash": "0x791baab8bc0344c672a5c9b5bfe71fdd6e2a8c549cf7689e4b8bdf5c93286798",
      "transactionType": "CALL",
      "contractName": null,
      "contractAddress": "0x5eb9cc76c3506942c1c0ead70e877dd5e4f00cb0",
      "function": "sell(uint256)",
      "arguments": [
        "989130914591847881474"
      ],
      "transaction": {
        "from": "0xc77f7fed3b5cc8249adc428c5f44c9063b9734b4",
        "to": "0x5eb9cc76c3506942c1c0ead70e877dd5e4f00cb0",
        "gas": "0x16fec",
        "value": "0x0",
        "input": "0xe4849b320000000000000000000000000000000000000000000000359ef2ee2e5c561b02",
        "nonce": "0x33f",
        "chainId": "0xaa36a7"
      },
      "additionalContracts": [],
      "isFixedGasLimit": false
    }
  ],
  "receipts": [
    {
      "status": "0x1",
      "cumulativeGasUsed": "0xa6a18b",
      "logs": [
        {
          "address": "0x5eb9cc76c3506942c1c0ead70e877dd5e4f00cb0",
          "topics": [
            "0xddf252ad1be2c89b69c2b068fc378daa952ba7f163c4a11628f55a4df523b3ef",
            "0x000000000000000000000000c77f7fed3b5cc8249adc428c5f44c9063b9734b4",
            "0x0000000000000000000000000000000000000000000000000000000000000000"
          ],
          "data": "0x0000000000000000000000000000000000000000000000359ef2ee2e5c561b02",
          "blockHash": "0x337b8ad961b4cc2c5508730df05f5a63377c7438a1ce9084b3106e7bc0821b7d",
          "blockNumber": "0x724f2e",
          "transactionHash": "0x791baab8bc0344c672a5c9b5bfe71fdd6e2a8c549cf7689e4b8bdf5c93286798",
          "transactionIndex": "0x51",
          "logIndex": "0x7a",
          "removed": false
        },
        {
          "address": "0x5eb9cc76c3506942c1c0ead70e877dd5e4f00cb0",
          "topics": [
            "0x4afcb4a87cdbd9974efdb92ee48bc8d7cd0ae4bf217004db3d080cbaee652ca7"
          ],
          "data": "0x000000000000000000000000000000000000000000000000000000006786a7dc0000000000000000000000000000000000000000000000000003910e2a99cee80000000000000000000000000000000000000000000000000dc7db13321e74ef",
          "blockHash": "0x337b8ad961b4cc2c5508730df05f5a63377c7438a1ce9084b3106e7bc0821b7d",
          "blockNumber": "0x724f2e",
          "transactionHash": "0x791baab8bc0344c672a5c9b5bfe71fdd6e2a8c549cf7689e4b8bdf5c93286798",
          "transactionIndex": "0x51",
          "logIndex": "0x7b",
          "removed": false
        }
      ],
      "logsBloom": "0x00000000000000000000000000000000000000000000000000000000000000000000000000000000000000000000000000000000000000004000000000000000000000000000000000000008000000000000000000000000000000000000000000000000020000000000000004000800020000000000000000000010000000000000000000000000000000000000000000000000000000000000010000000000000000000000000000000000000000004000000000000000000000000000020000000002000000800000008000000000000000000000080000000000000020000000000000000000000000000000000000000000000000000000000000000000",
      "type": "0x2",
      "transactionHash": "0x791baab8bc0344c672a5c9b5bfe71fdd6e2a8c549cf7689e4b8bdf5c93286798",
      "transactionIndex": "0x51",
      "blockHash": "0x337b8ad961b4cc2c5508730df05f5a63377c7438a1ce9084b3106e7bc0821b7d",
      "blockNumber": "0x724f2e",
      "gasUsed": "0xfb93",
      "effectiveGasPrice": "0x68c0fca55",
      "from": "0xc77f7fed3b5cc8249adc428c5f44c9063b9734b4",
      "to": "0x5eb9cc76c3506942c1c0ead70e877dd5e4f00cb0",
      "contractAddress": null
    }
  ],
  "libraries": [],
  "pending": [],
  "returns": {},
  "timestamp": 1736878045,
  "chain": 11155111,
  "commit": "51a374b"
}