{
  "transactions": [
    {
      "hash": "0xc78fbfc8ebcf6ea63e357524bfca99887b9822ce08b3e16e5d6137c3eaf3b272",
      "transactionType": "CALL",
      "contractName": null,
      "contractAddress": "0x8aafd3ede9adb0ff97c7aebce82a919afb1c8764",
      "function": "sell(uint256)",
      "arguments": [
        "1413325"
      ],
      "transaction": {
        "from": "0xc77f7fed3b5cc8249adc428c5f44c9063b9734b4",
        "to": "0x8aafd3ede9adb0ff97c7aebce82a919afb1c8764",
        "gas": "0x16208",
        "value": "0x0",
        "input": "0xe4849b3200000000000000000000000000000000000000000000000000000000001590cd",
        "nonce": "0x125a",
        "chainId": "0xaa36a7"
      },
      "additionalContracts": [],
      "isFixedGasLimit": false
    }
  ],
  "receipts": [
    {
      "status": "0x1",
      "cumulativeGasUsed": "0xa2553b",
      "logs": [
        {
          "address": "0x8aafd3ede9adb0ff97c7aebce82a919afb1c8764",
          "topics": [
            "0xddf252ad1be2c89b69c2b068fc378daa952ba7f163c4a11628f55a4df523b3ef",
            "0x000000000000000000000000c77f7fed3b5cc8249adc428c5f44c9063b9734b4",
            "0x0000000000000000000000000000000000000000000000000000000000000000"
          ],
          "data": "0x00000000000000000000000000000000000000000000000000000000001564a3",
          "blockHash": "0xf9089c98295301b937c82803a4282fddbc2960f8ab3d6df23c55dce1b302e490",
          "blockNumber": "0x73193f",
          "transactionHash": "0xc78fbfc8ebcf6ea63e357524bfca99887b9822ce08b3e16e5d6137c3eaf3b272",
          "transactionIndex": "0x80",
          "logIndex": "0xa6",
          "removed": false
        },
        {
          "address": "0x8aafd3ede9adb0ff97c7aebce82a919afb1c8764",
          "topics": [
            "0xddf252ad1be2c89b69c2b068fc378daa952ba7f163c4a11628f55a4df523b3ef",
            "0x000000000000000000000000c77f7fed3b5cc8249adc428c5f44c9063b9734b4",
            "0x000000000000000000000000c77f7fed3b5cc8249adc428c5f44c9063b9734b4"
          ],
          "data": "0x0000000000000000000000000000000000000000000000000000000000002c2a",
          "blockHash": "0xf9089c98295301b937c82803a4282fddbc2960f8ab3d6df23c55dce1b302e490",
          "blockNumber": "0x73193f",
          "transactionHash": "0xc78fbfc8ebcf6ea63e357524bfca99887b9822ce08b3e16e5d6137c3eaf3b272",
          "transactionIndex": "0x80",
          "logIndex": "0xa7",
          "removed": false
        },
        {
          "address": "0x8aafd3ede9adb0ff97c7aebce82a919afb1c8764",
          "topics": [
            "0x4afcb4a87cdbd9974efdb92ee48bc8d7cd0ae4bf217004db3d080cbaee652ca7"
          ],
          "data": "0x0000000000000000000000000000000000000000000000000000000067902bc400000000000000000000000000000000000000000000000000053d8ea09da0f80000000000000000000000000000000000000000000000000000000000000824",
          "blockHash": "0xf9089c98295301b937c82803a4282fddbc2960f8ab3d6df23c55dce1b302e490",
          "blockNumber": "0x73193f",
          "transactionHash": "0xc78fbfc8ebcf6ea63e357524bfca99887b9822ce08b3e16e5d6137c3eaf3b272",
          "transactionIndex": "0x80",
          "logIndex": "0xa8",
          "removed": false
        }
      ],
      "logsBloom": "0x00000000000000000000000000000000000000000600000000000000000000000000000000000000000000000000000000000000000000004000000000000000000000000000004000000008000000000000000000000000000000000000000000000000020000000000000000000800020000000000000000000010000000000000000000000000000000000000000000000000000000000000010000000000000000000000000000000000000000004000000000000000000000000000000000000002000000800000000000000000000000000000080000000000000020000000000000000000000000000000000000000000000000000000000000000000",
      "type": "0x2",
      "transactionHash": "0xc78fbfc8ebcf6ea63e357524bfca99887b9822ce08b3e16e5d6137c3eaf3b272",
      "transactionIndex": "0x80",
      "blockHash": "0xf9089c98295301b937c82803a4282fddbc2960f8ab3d6df23c55dce1b302e490",
      "blockNumber": "0x73193f",
      "gasUsed": "0xf213",
      "effectiveGasPrice": "0x423463d9",
      "from": "0xc77f7fed3b5cc8249adc428c5f44c9063b9734b4",
      "to": "0x8aafd3ede9adb0ff97c7aebce82a919afb1c8764",
      "contractAddress": null
    }
  ],
  "libraries": [],
  "pending": [],
  "returns": {},
  "timestamp": 1737501636,
  "chain": 11155111,
  "commit": "1d2fb70"
}