{
  "transactions": [
    {
      "hash": "0xaa651b995da0a070d491282431fdda38ce21934e0fdeb78325f5987ad7bd3f1d",
      "transactionType": "CALL",
      "contractName": null,
      "contractAddress": "0xbf4a322f1496e5c3d34a9bcdb4c60567b38c7de2",
      "function": "sell(uint256)",
      "arguments": [
        "979395458913298238867"
      ],
      "transaction": {
        "from": "0xc77f7fed3b5cc8249adc428c5f44c9063b9734b4",
        "to": "0xbf4a322f1496e5c3d34a9bcdb4c60567b38c7de2",
        "gas": "0x16fea",
        "value": "0x0",
        "input": "0xe4849b3200000000000000000000000000000000000000000000003517d7a4d275d34d93",
        "nonce": "0xc45",
        "chainId": "0xaa36a7"
      },
      "additionalContracts": [],
      "isFixedGasLimit": false
    }
  ],
  "receipts": [
    {
      "status": "0x1",
      "cumulativeGasUsed": "0x658cbf",
      "logs": [
        {
          "address": "0xbf4a322f1496e5c3d34a9bcdb4c60567b38c7de2",
          "topics": [
            "0xddf252ad1be2c89b69c2b068fc378daa952ba7f163c4a11628f55a4df523b3ef",
            "0x000000000000000000000000c77f7fed3b5cc8249adc428c5f44c9063b9734b4",
            "0x0000000000000000000000000000000000000000000000000000000000000000"
          ],
          "data": "0x00000000000000000000000000000000000000000000003517d7a4d275d34d93",
          "blockHash": "0xa7256be65187d82cf756b83d2f97ad319dbb52e1b079afc26b1ba94810e8ebaa",
          "blockNumber": "0x725c7b",
          "transactionHash": "0xaa651b995da0a070d491282431fdda38ce21934e0fdeb78325f5987ad7bd3f1d",
          "transactionIndex": "0x35",
          "logIndex": "0x3c",
          "removed": false
        },
        {
          "address": "0xbf4a322f1496e5c3d34a9bcdb4c60567b38c7de2",
          "topics": [
            "0x4afcb4a87cdbd9974efdb92ee48bc8d7cd0ae4bf217004db3d080cbaee652ca7"
          ],
          "data": "0x000000000000000000000000000000000000000000000000000000006787482000000000000000000000000000000000000000000000000000039a2803e108e30000000000000000000000000000000000000000000000000dc7e3e0a9265ae8",
          "blockHash": "0xa7256be65187d82cf756b83d2f97ad319dbb52e1b079afc26b1ba94810e8ebaa",
          "blockNumber": "0x725c7b",
          "transactionHash": "0xaa651b995da0a070d491282431fdda38ce21934e0fdeb78325f5987ad7bd3f1d",
          "transactionIndex": "0x35",
          "logIndex": "0x3d",
          "removed": false
        }
      ],
      "logsBloom": "0x00000000000000000000000000000000000000000000000000000000000000000000000000000000000000000000000000000000000000004000000000000000000000000000000000000008000000000000001000000000000000000000000000000000020000000000000000000800020000000000000000000010000000000000000000000000000000000000000000000000000008000000010000000000000000000000000000000000000000004000000000000000000000000000000000000002000000800000000000001000000000000000080000000000000020000000000000000000000000000000000000000000000000000000000000000000",
      "type": "0x2",
      "transactionHash": "0xaa651b995da0a070d491282431fdda38ce21934e0fdeb78325f5987ad7bd3f1d",
      "transactionIndex": "0x35",
      "blockHash": "0xa7256be65187d82cf756b83d2f97ad319dbb52e1b079afc26b1ba94810e8ebaa",
      "blockNumber": "0x725c7b",
      "gasUsed": "0xfb91",
      "effectiveGasPrice": "0x1df974905",
      "from": "0xc77f7fed3b5cc8249adc428c5f44c9063b9734b4",
      "to": "0xbf4a322f1496e5c3d34a9bcdb4c60567b38c7de2",
      "contractAddress": null
    }
  ],
  "libraries": [],
  "pending": [],
  "returns": {},
  "timestamp": 1736919074,
  "chain": 11155111,
  "commit": "51a374b"
}