{
  "transactions": [
    {
      "hash": "0x21877bef4dd9745e5e73f24277171b065590f96e946e1a5b5c81f86449e25514",
      "transactionType": "CALL",
      "contractName": null,
      "contractAddress": "0x8aafd3ede9adb0ff97c7aebce82a919afb1c8764",
      "function": "buy(address)",
      "arguments": [
        "0xC77f7fed3b5Cc8249aDc428c5F44C9063B9734b4"
      ],
      "transaction": {
        "from": "0xc77f7fed3b5cc8249adc428c5f44c9063b9734b4",
        "to": "0x8aafd3ede9adb0ff97c7aebce82a919afb1c8764",
        "gas": "0x156ea",
        "value": "0xde0b6b3a7640000",
        "input": "0xf088d547000000000000000000000000c77f7fed3b5cc8249adc428c5f44c9063b9734b4",
        "nonce": "0x1369",
        "chainId": "0xaa36a7"
      },
      "additionalContracts": [],
      "isFixedGasLimit": false
    }
  ],
  "receipts": [
    {
      "status": "0x1",
      "cumulativeGasUsed": "0xdc57bf",
      "logs": [
        {
          "address": "0x8aafd3ede9adb0ff97c7aebce82a919afb1c8764",
          "topics": [
            "0xddf252ad1be2c89b69c2b068fc378daa952ba7f163c4a11628f55a4df523b3ef",
            "0x0000000000000000000000000000000000000000000000000000000000000000",
            "0x000000000000000000000000c77f7fed3b5cc8249adc428c5f44c9063b9734b4"
          ],
          "data": "0x00000000000000000000000000000000000000000000000f68f3269ae0368416",
          "blockHash": "0xeeda10b1b76ec447c578e958a88e9db2d55da4495f76b713e42948a7ab2b76da",
          "blockNumber": "0x731a89",
          "transactionHash": "0x21877bef4dd9745e5e73f24277171b065590f96e946e1a5b5c81f86449e25514",
          "transactionIndex": "0x7d",
          "logIndex": "0xb9",
          "removed": false
        },
        {
          "address": "0x8aafd3ede9adb0ff97c7aebce82a919afb1c8764",
          "topics": [
            "0xddf252ad1be2c89b69c2b068fc378daa952ba7f163c4a11628f55a4df523b3ef",
            "0x0000000000000000000000000000000000000000000000000000000000000000",
            "0x000000000000000000000000c77f7fed3b5cc8249adc428c5f44c9063b9734b4"
          ],
          "data": "0x0000000000000000000000000000000000000000000000000bf76359b38a09fb",
          "blockHash": "0xeeda10b1b76ec447c578e958a88e9db2d55da4495f76b713e42948a7ab2b76da",
          "blockNumber": "0x731a89",
          "transactionHash": "0x21877bef4dd9745e5e73f24277171b065590f96e946e1a5b5c81f86449e25514",
          "transactionIndex": "0x7d",
          "logIndex": "0xba",
          "removed": false
        },
        {
          "address": "0x8aafd3ede9adb0ff97c7aebce82a919afb1c8764",
          "topics": [
            "0x4afcb4a87cdbd9974efdb92ee48bc8d7cd0ae4bf217004db3d080cbaee652ca7"
          ],
          "data": "0x0000000000000000000000000000000000000000000000000000000067903b3c000000000000000000000000000000000000000000000000000c6581093c6e8b0000000000000000000000000000000000000000000000000de0b6b3a7640000",
          "blockHash": "0xeeda10b1b76ec447c578e958a88e9db2d55da4495f76b713e42948a7ab2b76da",
          "blockNumber": "0x731a89",
          "transactionHash": "0x21877bef4dd9745e5e73f24277171b065590f96e946e1a5b5c81f86449e25514",
          "transactionIndex": "0x7d",
          "logIndex": "0xbb",
          "removed": false
        }
      ],
      "logsBloom": "0x00000000000000000000000000000000000000000600000000000000000000000000000000000000000000000000000000000000000000004000000000000000000000000000004000000008000000000000000000000000000000000000000000000000020000000000000000000800020000000000000000000010000000000000000000000000000000000000000000000000000000000000010000000000000000000000000000000000000000004000000000000000000000000000000000000002000000800000000000000000000000000000080000000000000020000000000000000000000000000000000000000000000000000000000000000000",
      "type": "0x2",
      "transactionHash": "0x21877bef4dd9745e5e73f24277171b065590f96e946e1a5b5c81f86449e25514",
      "transactionIndex": "0x7d",
      "blockHash": "0xeeda10b1b76ec447c578e958a88e9db2d55da4495f76b713e42948a7ab2b76da",
      "blockNumber": "0x731a89",
      "gasUsed": "0xf844",
      "effectiveGasPrice": "0x54c9b621",
      "from": "0xc77f7fed3b5cc8249adc428c5f44c9063b9734b4",
      "to": "0x8aafd3ede9adb0ff97c7aebce82a919afb1c8764",
      "contractAddress": null
    }
  ],
  "libraries": [],
  "pending": [],
  "returns": {},
  "timestamp": 1737505596,
  "chain": 11155111,
  "commit": "1d2fb70"
}