{
  "transactions": [
    {
      "hash": "0xa3e0e4c1145e78078fed13f79e1c1334e1fba9c1205ad0e7352f9893dc12071a",
      "transactionType": "CALL",
      "contractName": null,
      "contractAddress": "0x8aafd3ede9adb0ff97c7aebce82a919afb1c8764",
      "function": "sell(uint256)",
      "arguments": [
        "177628742"
      ],
      "transaction": {
        "from": "0xc77f7fed3b5cc8249adc428c5f44c9063b9734b4",
        "to": "0x8aafd3ede9adb0ff97c7aebce82a919afb1c8764",
        "gas": "0x14e6c",
        "value": "0x0",
        "input": "0xe4849b32000000000000000000000000000000000000000000000000000000000a966646",
        "nonce": "0x1227",
        "chainId": "0xaa36a7"
      },
      "additionalContracts": [],
      "isFixedGasLimit": false
    }
  ],
  "receipts": [
    {
      "status": "0x1",
      "cumulativeGasUsed": "0xc8eb3f",
      "logs": [
        {
          "address": "0x8aafd3ede9adb0ff97c7aebce82a919afb1c8764",
          "topics": [
            "0xddf252ad1be2c89b69c2b068fc378daa952ba7f163c4a11628f55a4df523b3ef",
            "0x000000000000000000000000c77f7fed3b5cc8249adc428c5f44c9063b9734b4",
            "0x0000000000000000000000000000000000000000000000000000000000000000"
          ],
          "data": "0x000000000000000000000000000000000000000000000000000000000a80b761",
          "blockHash": "0x8dbe174514b22b125f6559959fa8a0d269420544e74d11d9dee438d3b90bcb5b",
          "blockNumber": "0x731904",
          "transactionHash": "0xa3e0e4c1145e78078fed13f79e1c1334e1fba9c1205ad0e7352f9893dc12071a",
          "transactionIndex": "0x7d",
          "logIndex": "0x8d",
          "removed": false
        },
        {
          "address": "0x8aafd3ede9adb0ff97c7aebce82a919afb1c8764",
          "topics": [
            "0xddf252ad1be2c89b69c2b068fc378daa952ba7f163c4a11628f55a4df523b3ef",
            "0x000000000000000000000000c77f7fed3b5cc8249adc428c5f44c9063b9734b4",
            "0x000000000000000000000000c77f7fed3b5cc8249adc428c5f44c9063b9734b4"
          ],
          "data": "0x000000000000000000000000000000000000000000000000000000000015aee5",
          "blockHash": "0x8dbe174514b22b125f6559959fa8a0d269420544e74d11d9dee438d3b90bcb5b",
          "blockNumber": "0x731904",
          "transactionHash": "0xa3e0e4c1145e78078fed13f79e1c1334e1fba9c1205ad0e7352f9893dc12071a",
          "transactionIndex": "0x7d",
          "logIndex": "0x8e",
          "removed": false
        },
        {
          "address": "0x8aafd3ede9adb0ff97c7aebce82a919afb1c8764",
          "topics": [
            "0x4afcb4a87cdbd9974efdb92ee48bc8d7cd0ae4bf217004db3d080cbaee652ca7"
          ],
          "data": "0x00000000000000000000000000000000000000000000000000000000679029000000000000000000000000000000000000000000000000000005364a907699fb000000000000000000000000000000000000000000000000000000000003f9f1",
          "blockHash": "0x8dbe174514b22b125f6559959fa8a0d269420544e74d11d9dee438d3b90bcb5b",
          "blockNumber": "0x731904",
          "transactionHash": "0xa3e0e4c1145e78078fed13f79e1c1334e1fba9c1205ad0e7352f9893dc12071a",
          "transactionIndex": "0x7d",
          "logIndex": "0x8f",
          "removed": false
        }
      ],
      "logsBloom": "0x00000000000000000000000000000000000000000600000000000000000000000000000000000000000000000000000000000000000000004000000000000000000000000000004000000008000000000000000000000000000000000000000000000000020000000000000000000800020000000000000000000010000000000000000000000000000000000000000000000000000000000000010000000000000000000000000000000000000000004000000000000000000000000000000000000002000000800000000000000000000000000000080000000000000020000000000000000000000000000000000000000000000000000000000000000000",
      "type": "0x2",
      "transactionHash": "0xa3e0e4c1145e78078fed13f79e1c1334e1fba9c1205ad0e7352f9893dc12071a",
      "transactionIndex": "0x7d",
      "blockHash": "0x8dbe174514b22b125f6559959fa8a0d269420544e74d11d9dee438d3b90bcb5b",
      "blockNumber": "0x731904",
      "gasUsed": "0xf21f",
      "effectiveGasPrice": "0x55bfa5d2",
      "from": "0xc77f7fed3b5cc8249adc428c5f44c9063b9734b4",
      "to": "0x8aafd3ede9adb0ff97c7aebce82a919afb1c8764",
      "contractAddress": null
    }
  ],
  "libraries": [],
  "pending": [],
  "returns": {},
  "timestamp": 1737500928,
  "chain": 11155111,
  "commit": "1d2fb70"
}