{
  "transactions": [
    {
      "hash": "0x51f53a9855b01d323c608b72823a2c934c0f403d9dfb99698427a931f40dbf56",
      "transactionType": "CALL",
      "contractName": null,
      "contractAddress": "0x8aafd3ede9adb0ff97c7aebce82a919afb1c8764",
      "function": "sell(uint256)",
      "arguments": [
        "196088046"
      ],
      "transaction": {
        "from": "0xc77f7fed3b5cc8249adc428c5f44c9063b9734b4",
        "to": "0x8aafd3ede9adb0ff97c7aebce82a919afb1c8764",
        "gas": "0x14e6c",
        "value": "0x0",
        "input": "0xe4849b32000000000000000000000000000000000000000000000000000000000bb010ee",
        "nonce": "0xeac",
        "chainId": "0xaa36a7"
      },
      "additionalContracts": [],
      "isFixedGasLimit": false
    }
  ],
  "receipts": [
    {
      "status": "0x1",
      "cumulativeGasUsed": "0xab0dee",
      "logs": [
        {
          "address": "0x8aafd3ede9adb0ff97c7aebce82a919afb1c8764",
          "topics": [
            "0xddf252ad1be2c89b69c2b068fc378daa952ba7f163c4a11628f55a4df523b3ef",
            "0x000000000000000000000000c77f7fed3b5cc8249adc428c5f44c9063b9734b4",
            "0x0000000000000000000000000000000000000000000000000000000000000000"
          ],
          "data": "0x000000000000000000000000000000000000000000000000000000000b98212e",
          "blockHash": "0x7b6605813d9852c1dad7688cf77c519784d052498be86e6f86a67fd4db81ed93",
          "blockNumber": "0x73140f",
          "transactionHash": "0x51f53a9855b01d323c608b72823a2c934c0f403d9dfb99698427a931f40dbf56",
          "transactionIndex": "0x90",
          "logIndex": "0x8e",
          "removed": false
        },
        {
          "address": "0x8aafd3ede9adb0ff97c7aebce82a919afb1c8764",
          "topics": [
            "0xddf252ad1be2c89b69c2b068fc378daa952ba7f163c4a11628f55a4df523b3ef",
            "0x000000000000000000000000c77f7fed3b5cc8249adc428c5f44c9063b9734b4",
            "0x000000000000000000000000c77f7fed3b5cc8249adc428c5f44c9063b9734b4"
          ],
          "data": "0x000000000000000000000000000000000000000000000000000000000017efc0",
          "blockHash": "0x7b6605813d9852c1dad7688cf77c519784d052498be86e6f86a67fd4db81ed93",
          "blockNumber": "0x73140f",
          "transactionHash": "0x51f53a9855b01d323c608b72823a2c934c0f403d9dfb99698427a931f40dbf56",
          "transactionIndex": "0x90",
          "logIndex": "0x8f",
          "removed": false
        },
        {
          "address": "0x8aafd3ede9adb0ff97c7aebce82a919afb1c8764",
          "topics": [
            "0x4afcb4a87cdbd9974efdb92ee48bc8d7cd0ae4bf217004db3d080cbaee652ca7"
          ],
          "data": "0x00000000000000000000000000000000000000000000000000000000678fed600000000000000000000000000000000000000000000000000004b7c88a182639000000000000000000000000000000000000000000000000000000000003f92f",
          "blockHash": "0x7b6605813d9852c1dad7688cf77c519784d052498be86e6f86a67fd4db81ed93",
          "blockNumber": "0x73140f",
          "transactionHash": "0x51f53a9855b01d323c608b72823a2c934c0f403d9dfb99698427a931f40dbf56",
          "transactionIndex": "0x90",
          "logIndex": "0x90",
          "removed": false
        }
      ],
      "logsBloom": "0x00000000000000000000000000000000000000000600000000000000000000000000000000000000000000000000000000000000000000004000000000000000000000000000004000000008000000000000000000000000000000000000000000000000020000000000000000000800020000000000000000000010000000000000000000000000000000000000000000000000000000000000010000000000000000000000000000000000000000004000000000000000000000000000000000000002000000800000000000000000000000000000080000000000000020000000000000000000000000000000000000000000000000000000000000000000",
      "type": "0x2",
      "transactionHash": "0x51f53a9855b01d323c608b72823a2c934c0f403d9dfb99698427a931f40dbf56",
      "transactionIndex": "0x90",
      "blockHash": "0x7b6605813d9852c1dad7688cf77c519784d052498be86e6f86a67fd4db81ed93",
      "blockNumber": "0x73140f",
      "gasUsed": "0xf21f",
      "effectiveGasPrice": "0x81fa3f6e",
      "from": "0xc77f7fed3b5cc8249adc428c5f44c9063b9734b4",
      "to": "0x8aafd3ede9adb0ff97c7aebce82a919afb1c8764",
      "contractAddress": null
    }
  ],
  "libraries": [],
  "pending": [],
  "returns": {},
  "timestamp": 1737485666,
  "chain": 11155111,
  "commit": "51a374b"
}