{
  "transactions": [
    {
      "hash": "0x36ecbee7f748bc6cb76996c9827bcfd3e5329abb3cf8ff4f8d348433aaa2b9f0",
      "transactionType": "CALL",
      "contractName": null,
      "contractAddress": "0xbf4a322f1496e5c3d34a9bcdb4c60567b38c7de2",
      "function": "sell(uint256)",
      "arguments": [
        "978939731063221408622"
      ],
      "transaction": {
        "from": "0xc77f7fed3b5cc8249adc428c5f44c9063b9734b4",
        "to": "0xbf4a322f1496e5c3d34a9bcdb4c60567b38c7de2",
        "gas": "0x16fea",
        "value": "0x0",
        "input": "0xe4849b32000000000000000000000000000000000000000000000035118492c1cbbe536e",
        "nonce": "0xc67",
        "chainId": "0xaa36a7"
      },
      "additionalContracts": [],
      "isFixedGasLimit": false
    }
  ],
  "receipts": [
    {
      "status": "0x1",
      "cumulativeGasUsed": "0x1156ad4",
      "logs": [
        {
          "address": "0xbf4a322f1496e5c3d34a9bcdb4c60567b38c7de2",
          "topics": [
            "0xddf252ad1be2c89b69c2b068fc378daa952ba7f163c4a11628f55a4df523b3ef",
            "0x000000000000000000000000c77f7fed3b5cc8249adc428c5f44c9063b9734b4",
            "0x0000000000000000000000000000000000000000000000000000000000000000"
          ],
          "data": "0x000000000000000000000000000000000000000000000035118492c1cbbe536e",
          "blockHash": "0x6ba615165a59ade0e9006ed1d0ef55b25c1f30419ac8f440fb9789a43abbdc93",
          "blockNumber": "0x725ca5",
          "transactionHash": "0x36ecbee7f748bc6cb76996c9827bcfd3e5329abb3cf8ff4f8d348433aaa2b9f0",
          "transactionIndex": "0x50",
          "logIndex": "0x9a",
          "removed": false
        },
        {
          "address": "0xbf4a322f1496e5c3d34a9bcdb4c60567b38c7de2",
          "topics": [
            "0x4afcb4a87cdbd9974efdb92ee48bc8d7cd0ae4bf217004db3d080cbaee652ca7"
          ],
          "data": "0x0000000000000000000000000000000000000000000000000000000067874a3000000000000000000000000000000000000000000000000000039a95e94717c20000000000000000000000000000000000000000000000000dc7e3df99e5710d",
          "blockHash": "0x6ba615165a59ade0e9006ed1d0ef55b25c1f30419ac8f440fb9789a43abbdc93",
          "blockNumber": "0x725ca5",
          "transactionHash": "0x36ecbee7f748bc6cb76996c9827bcfd3e5329abb3cf8ff4f8d348433aaa2b9f0",
          "transactionIndex": "0x50",
          "logIndex": "0x9b",
          "removed": false
        }
      ],
      "logsBloom": "0x00000000000000000000000000000000000000000000000000000000000000000000000000000000000000000000000000000000000000004000000000000000000000000000000000000008000000000000001000000000000000000000000000000000020000000000000000000800020000000000000000000010000000000000000000000000000000000000000000000000000008000000010000000000000000000000000000000000000000004000000000000000000000000000000000000002000000800000000000001000000000000000080000000000000020000000000000000000000000000000000000000000000000000000000000000000",
      "type": "0x2",
      "transactionHash": "0x36ecbee7f748bc6cb76996c9827bcfd3e5329abb3cf8ff4f8d348433aaa2b9f0",
      "transactionIndex": "0x50",
      "blockHash": "0x6ba615165a59ade0e9006ed1d0ef55b25c1f30419ac8f440fb9789a43abbdc93",
      "blockNumber": "0x725ca5",
      "gasUsed": "0xfb91",
      "effectiveGasPrice": "0x24a80acd0",
      "from": "0xc77f7fed3b5cc8249adc428c5f44c9063b9734b4",
      "to": "0xbf4a322f1496e5c3d34a9bcdb4c60567b38c7de2",
      "contractAddress": null
    }
  ],
  "libraries": [],
  "pending": [],
  "returns": {},
  "timestamp": 1736919601,
  "chain": 11155111,
  "commit": "51a374b"
}