{
  "transactions": [
    {
      "hash": "0x11a383c20ecf7dc67449222d3ea5e4771cd76e722df27c673f9dffa1eb4e71f4",
      "transactionType": "CALL",
      "contractName": null,
      "contractAddress": "0x270e88f8683660553e8ba4eb2ad7c91a1710d769",
      "function": "buy(address)",
      "arguments": [
        "0xC77f7fed3b5Cc8249aDc428c5F44C9063B9734b4"
      ],
      "transaction": {
        "from": "0xc77f7fed3b5cc8249adc428c5f44c9063b9734b4",
        "to": "0x270e88f8683660553e8ba4eb2ad7c91a1710d769",
        "gas": "0x1b30c",
        "value": "0xde0b6b3a7640000",
        "input": "0xf088d547000000000000000000000000c77f7fed3b5cc8249adc428c5f44c9063b9734b4",
        "nonce": "0x50c",
        "chainId": "0xaa36a7"
      },
      "additionalContracts": [],
      "isFixedGasLimit": false
    }
  ],
  "receipts": [
    {
      "status": "0x1",
      "cumulativeGasUsed": "0x13d08b3",
      "logs": [
        {
          "address": "0x270e88f8683660553e8ba4eb2ad7c91a1710d769",
          "topics": [
            "0xddf252ad1be2c89b69c2b068fc378daa952ba7f163c4a11628f55a4df523b3ef",
            "0x0000000000000000000000000000000000000000000000000000000000000000",
            "0x000000000000000000000000c77f7fed3b5cc8249adc428c5f44c9063b9734b4"
          ],
          "data": "0x000000000000000000000000000000000000000000000035305bfb655c7bf8b1",
          "blockHash": "0x589ae56933ac565c9cc9c35aaeecf3d22e45709ba944d4c69264d119a3e9b93b",
          "blockNumber": "0x7251a1",
          "transactionHash": "0x11a383c20ecf7dc67449222d3ea5e4771cd76e722df27c673f9dffa1eb4e71f4",
          "transactionIndex": "0x62",
          "logIndex": "0xa7",
          "removed": false
        },
        {
          "address": "0x270e88f8683660553e8ba4eb2ad7c91a1710d769",
          "topics": [
            "0xddf252ad1be2c89b69c2b068fc378daa952ba7f163c4a11628f55a4df523b3ef",
            "0x0000000000000000000000000000000000000000000000000000000000000000",
            "0x000000000000000000000000c77f7fed3b5cc8249adc428c5f44c9063b9734b4"
          ],
          "data": "0x000000000000000000000000000000000000000000000000294d91448e9a8c93",
          "blockHash": "0x589ae56933ac565c9cc9c35aaeecf3d22e45709ba944d4c69264d119a3e9b93b",
          "blockNumber": "0x7251a1",
          "transactionHash": "0x11a383c20ecf7dc67449222d3ea5e4771cd76e722df27c673f9dffa1eb4e71f4",
          "transactionIndex": "0x62",
          "logIndex": "0xa8",
          "removed": false
        },
        {
          "address": "0x270e88f8683660553e8ba4eb2ad7c91a1710d769",
          "topics": [
            "0x4afcb4a87cdbd9974efdb92ee48bc8d7cd0ae4bf217004db3d080cbaee652ca7"
          ],
          "data": "0x000000000000000000000000000000000000000000000000000000006786c570000000000000000000000000000000000000000000000000000395ca99e32db30000000000000000000000000000000000000000000000000de0b6b3a7640000",
          "blockHash": "0x589ae56933ac565c9cc9c35aaeecf3d22e45709ba944d4c69264d119a3e9b93b",
          "blockNumber": "0x7251a1",
          "transactionHash": "0x11a383c20ecf7dc67449222d3ea5e4771cd76e722df27c673f9dffa1eb4e71f4",
          "transactionIndex": "0x62",
          "logIndex": "0xa9",
          "removed": false
        }
      ],
      "logsBloom": "0x00000000000000000000000000000000000000000000000000000000000000000000000000000000000000000000000020000000000000004000000000000000000000000000000000000008000000000000000000000000000000000000000000000000020000000000000000000800020000000000000000000010000000000000000000010000000000000000000000000000000000000000010000000000000000000000000000000000000000004000000000000000000000000000000000000002000000800000000000000000000000000000080000008000000020000000000000000000000000000000000000000000000000000000000000000000",
      "type": "0x2",
      "transactionHash": "0x11a383c20ecf7dc67449222d3ea5e4771cd76e722df27c673f9dffa1eb4e71f4",
      "transactionIndex": "0x62",
      "blockHash": "0x589ae56933ac565c9cc9c35aaeecf3d22e45709ba944d4c69264d119a3e9b93b",
      "blockNumber": "0x7251a1",
      "gasUsed": "0x13af8",
      "effectiveGasPrice": "0x413212e81",
      "from": "0xc77f7fed3b5cc8249adc428c5f44c9063b9734b4",
      "to": "0x270e88f8683660553e8ba4eb2ad7c91a1710d769",
      "contractAddress": null
    }
  ],
  "libraries": [],
  "pending": [],
  "returns": {},
  "timestamp": 1736885619,
  "chain": 11155111,
  "commit": "51a374b"
}