{
  "transactions": [
    {
      "hash": "0x46555373859a98de1f925b6fc055d674c3198dd7aa20e6a3058f0d99b112bf78",
      "transactionType": "CALL",
      "contractName": null,
      "contractAddress": "0xbf4a322f1496e5c3d34a9bcdb4c60567b38c7de2",
      "function": "sell(uint256)",
      "arguments": [
        "983894970335369317705"
      ],
      "transaction": {
        "from": "0xc77f7fed3b5cc8249adc428c5f44c9063b9734b4",
        "to": "0xbf4a322f1496e5c3d34a9bcdb4c60567b38c7de2",
        "gas": "0x16fea",
        "value": "0x0",
        "input": "0xe4849b3200000000000000000000000000000000000000000000003556491e9efd2f4d49",
        "nonce": "0xaf7",
        "chainId": "0xaa36a7"
      },
      "additionalContracts": [],
      "isFixedGasLimit": false
    }
  ],
  "receipts": [
    {
      "status": "0x1",
      "cumulativeGasUsed": "0x111c54c",
      "logs": [
        {
          "address": "0xbf4a322f1496e5c3d34a9bcdb4c60567b38c7de2",
          "topics": [
            "0xddf252ad1be2c89b69c2b068fc378daa952ba7f163c4a11628f55a4df523b3ef",
            "0x000000000000000000000000c77f7fed3b5cc8249adc428c5f44c9063b9734b4",
            "0x0000000000000000000000000000000000000000000000000000000000000000"
          ],
          "data": "0x00000000000000000000000000000000000000000000003556491e9efd2f4d49",
          "blockHash": "0x2833c3ea96c45bf0ecfcad358f0da9f06acf41c5419438c95b125879f6d2f160",
          "blockNumber": "0x725aec",
          "transactionHash": "0x46555373859a98de1f925b6fc055d674c3198dd7aa20e6a3058f0d99b112bf78",
          "transactionIndex": "0x6c",
          "logIndex": "0x86",
          "removed": false
        },
        {
          "address": "0xbf4a322f1496e5c3d34a9bcdb4c60567b38c7de2",
          "topics": [
            "0x4afcb4a87cdbd9974efdb92ee48bc8d7cd0ae4bf217004db3d080cbaee652ca7"
          ],
          "data": "0x0000000000000000000000000000000000000000000000000000000067873560000000000000000000000000000000000000000000000000000395f072f516c20000000000000000000000000000000000000000000000000dc7e3eb1f487452",
          "blockHash": "0x2833c3ea96c45bf0ecfcad358f0da9f06acf41c5419438c95b125879f6d2f160",
          "blockNumber": "0x725aec",
          "transactionHash": "0x46555373859a98de1f925b6fc055d674c3198dd7aa20e6a3058f0d99b112bf78",
          "transactionIndex": "0x6c",
          "logIndex": "0x87",
          "removed": false
        }
      ],
      "logsBloom": "0x00000000000000000000000000000000000000000000000000000000000000000000000000000000000000000000000000000000000000004000000000000000000000000000000000000008000000000000001000000000000000000000000000000000020000000000000000000800020000000000000000000010000000000000000000000000000000000000000000000000000008000000010000000000000000000000000000000000000000004000000000000000000000000000000000000002000000800000000000001000000000000000080000000000000020000000000000000000000000000000000000000000000000000000000000000000",
      "type": "0x2",
      "transactionHash": "0x46555373859a98de1f925b6fc055d674c3198dd7aa20e6a3058f0d99b112bf78",
      "transactionIndex": "0x6c",
      "blockHash": "0x2833c3ea96c45bf0ecfcad358f0da9f06acf41c5419438c95b125879f6d2f160",
      "blockNumber": "0x725aec",
      "gasUsed": "0xfb91",
      "effectiveGasPrice": "0x9567d6fc",
      "from": "0xc77f7fed3b5cc8249adc428c5f44c9063b9734b4",
      "to": "0xbf4a322f1496e5c3d34a9bcdb4c60567b38c7de2",
      "contractAddress": null
    }
  ],
  "libraries": [],
  "pending": [],
  "returns": {},
  "timestamp": 1736914273,
  "chain": 11155111,
  "commit": "51a374b"
}