{
  "transactions": [
    {
      "hash": "0x78797c2eed6ef3155207e47aaa5aac4968c15252bc7bb18b413071dc3b223a76",
      "transactionType": "CALL",
      "contractName": null,
      "contractAddress": "0xbf4a322f1496e5c3d34a9bcdb4c60567b38c7de2",
      "function": "sell(uint256)",
      "arguments": [
        "982840491013559975382"
      ],
      "transaction": {
        "from": "0xc77f7fed3b5cc8249adc428c5f44c9063b9734b4",
        "to": "0xbf4a322f1496e5c3d34a9bcdb4c60567b38c7de2",
        "gas": "0x16fea",
        "value": "0x0",
        "input": "0xe4849b3200000000000000000000000000000000000000000000003547a6db43c5be7dd6",
        "nonce": "0xb45",
        "chainId": "0xaa36a7"
      },
      "additionalContracts": [],
      "isFixedGasLimit": false
    }
  ],
  "receipts": [
    {
      "status": "0x1",
      "cumulativeGasUsed": "0xd44e6c",
      "logs": [
        {
          "address": "0xbf4a322f1496e5c3d34a9bcdb4c60567b38c7de2",
          "topics": [
            "0xddf252ad1be2c89b69c2b068fc378daa952ba7f163c4a11628f55a4df523b3ef",
            "0x000000000000000000000000c77f7fed3b5cc8249adc428c5f44c9063b9734b4",
            "0x0000000000000000000000000000000000000000000000000000000000000000"
          ],
          "data": "0x00000000000000000000000000000000000000000000003547a6db43c5be7dd6",
          "blockHash": "0x9baf4ed054ee1cc18fb7ef1c50a56d2c8ccbc75c0e5c479625f445e9486f1f84",
          "blockNumber": "0x725b49",
          "transactionHash": "0x78797c2eed6ef3155207e47aaa5aac4968c15252bc7bb18b413071dc3b223a76",
          "transactionIndex": "0x55",
          "logIndex": "0x8f",
          "removed": false
        },
        {
          "address": "0xbf4a322f1496e5c3d34a9bcdb4c60567b38c7de2",
          "topics": [
            "0x4afcb4a87cdbd9974efdb92ee48bc8d7cd0ae4bf217004db3d080cbaee652ca7"
          ],
          "data": "0x00000000000000000000000000000000000000000000000000000000678739c8000000000000000000000000000000000000000000000000000396ec90255c7a0000000000000000000000000000000000000000000000000dc7e3e8aba7869d",
          "blockHash": "0x9baf4ed054ee1cc18fb7ef1c50a56d2c8ccbc75c0e5c479625f445e9486f1f84",
          "blockNumber": "0x725b49",
          "transactionHash": "0x78797c2eed6ef3155207e47aaa5aac4968c15252bc7bb18b413071dc3b223a76",
          "transactionIndex": "0x55",
          "logIndex": "0x90",
          "removed": false
        }
      ],
      "logsBloom": "0x00000000000000000000000000000000000000000000000000000000000000000000000000000000000000000000000000000000000000004000000000000000000000000000000000000008000000000000001000000000000000000000000000000000020000000000000000000800020000000000000000000010000000000000000000000000000000000000000000000000000008000000010000000000000000000000000000000000000000004000000000000000000000000000000000000002000000800000000000001000000000000000080000000000000020000000000000000000000000000000000000000000000000000000000000000000",
      "type": "0x2",
      "transactionHash": "0x78797c2eed6ef3155207e47aaa5aac4968c15252bc7bb18b413071dc3b223a76",
      "transactionIndex": "0x55",
      "blockHash": "0x9baf4ed054ee1cc18fb7ef1c50a56d2c8ccbc75c0e5c479625f445e9486f1f84",
      "blockNumber": "0x725b49",
      "gasUsed": "0xfb91",
      "effectiveGasPrice": "0x40c8b7f9",
      "from": "0xc77f7fed3b5cc8249adc428c5f44c9063b9734b4",
      "to": "0xbf4a322f1496e5c3d34a9bcdb4c60567b38c7de2",
      "contractAddress": null
    }
  ],
  "libraries": [],
  "pending": [],
  "returns": {},
  "timestamp": 1736915403,
  "chain": 11155111,
  "commit": "51a374b"
}