{
  "transactions": [
    {
      "hash": "0xb26d4ed73e80f0a7dcc847b6e1e278a7381e8830c00108be588c9e0bf4d2905e",
      "transactionType": "CALL",
      "contractName": null,
      "contractAddress": "0x270e88f8683660553e8ba4eb2ad7c91a1710d769",
      "function": "sell(uint256)",
      "arguments": [
        "733592404261396766214"
      ],
      "transaction": {
        "from": "0xc77f7fed3b5cc8249adc428c5f44c9063b9734b4",
        "to": "0x270e88f8683660553e8ba4eb2ad7c91a1710d769",
        "gas": "0x16fec",
        "value": "0x0",
        "input": "0xe4849b32000000000000000000000000000000000000000000000027c4a3c4efc54f5e06",
        "nonce": "0x784",
        "chainId": "0xaa36a7"
      },
      "additionalContracts": [],
      "isFixedGasLimit": false
    }
  ],
  "receipts": [
    {
      "status": "0x1",
      "cumulativeGasUsed": "0x630f14",
      "logs": [
        {
          "address": "0x270e88f8683660553e8ba4eb2ad7c91a1710d769",
          "topics": [
            "0xddf252ad1be2c89b69c2b068fc378daa952ba7f163c4a11628f55a4df523b3ef",
            "0x000000000000000000000000c77f7fed3b5cc8249adc428c5f44c9063b9734b4",
            "0x0000000000000000000000000000000000000000000000000000000000000000"
          ],
          "data": "0x000000000000000000000000000000000000000000000027c4a3c4efc54f5e06",
          "blockHash": "0x404c8258ce8262d1b1cb4a079735ae63abc6e0f319785061f878e5b11cb3eae2",
          "blockNumber": "0x7254b4",
          "transactionHash": "0xb26d4ed73e80f0a7dcc847b6e1e278a7381e8830c00108be588c9e0bf4d2905e",
          "transactionIndex": "0x3d",
          "logIndex": "0x4c",
          "removed": false
        },
        {
          "address": "0x270e88f8683660553e8ba4eb2ad7c91a1710d769",
          "topics": [
            "0x4afcb4a87cdbd9974efdb92ee48bc8d7cd0ae4bf217004db3d080cbaee652ca7"
          ],
          "data": "0x000000000000000000000000000000000000000000000000000000006786ea780000000000000000000000000000000000000000000000000004cf667746cade0000000000000000000000000000000000000000000000000dc827d630e85e1c",
          "blockHash": "0x404c8258ce8262d1b1cb4a079735ae63abc6e0f319785061f878e5b11cb3eae2",
          "blockNumber": "0x7254b4",
          "transactionHash": "0xb26d4ed73e80f0a7dcc847b6e1e278a7381e8830c00108be588c9e0bf4d2905e",
          "transactionIndex": "0x3d",
          "logIndex": "0x4d",
          "removed": false
        }
      ],
      "logsBloom": "0x00000000000000000000000000000000000000000000000000000000000000000000000000000000000000000000000020000000000000004000000000000000000000000000000000000008000000000000000000000000000000000000000000000000020000000000000000000800020000000000000000000010000000000000000000010000000000000000000000000000000000000000010000000000000000000000000000000000000000004000000000000000000000000000000000000002000000800000000000000000000000000000080000008000000020000000000000000000000000000000000000000000000000000000000000000000",
      "type": "0x2",
      "transactionHash": "0xb26d4ed73e80f0a7dcc847b6e1e278a7381e8830c00108be588c9e0bf4d2905e",
      "transactionIndex": "0x3d",
      "blockHash": "0x404c8258ce8262d1b1cb4a079735ae63abc6e0f319785061f878e5b11cb3eae2",
      "blockNumber": "0x7254b4",
      "gasUsed": "0xfb93",
      "effectiveGasPrice": "0x128ff6db7",
      "from": "0xc77f7fed3b5cc8249adc428c5f44c9063b9734b4",
      "to": "0x270e88f8683660553e8ba4eb2ad7c91a1710d769",
      "contractAddress": null
    }
  ],
  "libraries": [],
  "pending": [],
  "returns": {},
  "timestamp": 1736895097,
  "chain": 11155111,
  "commit": "51a374b"
}