{
  "transactions": [
    {
      "hash": "0xf22524b77e6702378cfe4b5433941875467668d336f1e228ed1df6f9ff13a1a3",
      "transactionType": "CALL",
      "contractName": null,
      "contractAddress": "0x8aafd3ede9adb0ff97c7aebce82a919afb1c8764",
      "function": "buy(address)",
      "arguments": [
        "0xC77f7fed3b5Cc8249aDc428c5F44C9063B9734b4"
      ],
      "transaction": {
        "from": "0xc77f7fed3b5cc8249adc428c5f44c9063b9734b4",
        "to": "0x8aafd3ede9adb0ff97c7aebce82a919afb1c8764",
        "gas": "0x156ea",
        "value": "0xde0b6b3a7640000",
        "input": "0xf088d547000000000000000000000000c77f7fed3b5cc8249adc428c5f44c9063b9734b4",
        "nonce": "0x1298",
        "chainId": "0xaa36a7"
      },
      "additionalContracts": [],
      "isFixedGasLimit": false
    }
  ],
  "receipts": [
    {
      "status": "0x1",
      "cumulativeGasUsed": "0xf97996",
      "logs": [
        {
          "address": "0x8aafd3ede9adb0ff97c7aebce82a919afb1c8764",
          "topics": [
            "0xddf252ad1be2c89b69c2b068fc378daa952ba7f163c4a11628f55a4df523b3ef",
            "0x0000000000000000000000000000000000000000000000000000000000000000",
            "0x000000000000000000000000c77f7fed3b5cc8249adc428c5f44c9063b9734b4"
          ],
          "data": "0x000000000000000000000000000000000000000000000024261203bca1782123",
          "blockHash": "0xf89ee2ec028888a31d4b0d9e5da63b7c001f47869e52171617fdab7b2473a722",
          "blockNumber": "0x731989",
          "transactionHash": "0xf22524b77e6702378cfe4b5433941875467668d336f1e228ed1df6f9ff13a1a3",
          "transactionIndex": "0x74",
          "logIndex": "0xf2",
          "removed": false
        },
        {
          "address": "0x8aafd3ede9adb0ff97c7aebce82a919afb1c8764",
          "topics": [
            "0xddf252ad1be2c89b69c2b068fc378daa952ba7f163c4a11628f55a4df523b3ef",
            "0x0000000000000000000000000000000000000000000000000000000000000000",
            "0x000000000000000000000000c77f7fed3b5cc8249adc428c5f44c9063b9734b4"
          ],
          "data": "0x0000000000000000000000000000000000000000000000001c1219ee9a6a14ed",
          "blockHash": "0xf89ee2ec028888a31d4b0d9e5da63b7c001f47869e52171617fdab7b2473a722",
          "blockNumber": "0x731989",
          "transactionHash": "0xf22524b77e6702378cfe4b5433941875467668d336f1e228ed1df6f9ff13a1a3",
          "transactionIndex": "0x74",
          "logIndex": "0xf3",
          "removed": false
        },
        {
          "address": "0x8aafd3ede9adb0ff97c7aebce82a919afb1c8764",
          "topics": [
            "0x4afcb4a87cdbd9974efdb92ee48bc8d7cd0ae4bf217004db3d080cbaee652ca7"
          ],
          "data": "0x0000000000000000000000000000000000000000000000000000000067902f3c000000000000000000000000000000000000000000000000000546afebbb94f80000000000000000000000000000000000000000000000000de0b6b3a7640000",
          "blockHash": "0xf89ee2ec028888a31d4b0d9e5da63b7c001f47869e52171617fdab7b2473a722",
          "blockNumber": "0x731989",
          "transactionHash": "0xf22524b77e6702378cfe4b5433941875467668d336f1e228ed1df6f9ff13a1a3",
          "transactionIndex": "0x74",
          "logIndex": "0xf4",
          "removed": false
        }
      ],
      "logsBloom": "0x00000000000000000000000000000000000000000600000000000000000000000000000000000000000000000000000000000000000000004000000000000000000000000000004000000008000000000000000000000000000000000000000000000000020000000000000000000800020000000000000000000010000000000000000000000000000000000000000000000000000000000000010000000000000000000000000000000000000000004000000000000000000000000000000000000002000000800000000000000000000000000000080000000000000020000000000000000000000000000000000000000000000000000000000000000000",
      "type": "0x2",
      "transactionHash": "0xf22524b77e6702378cfe4b5433941875467668d336f1e228ed1df6f9ff13a1a3",
      "transactionIndex": "0x74",
      "blockHash": "0xf89ee2ec028888a31d4b0d9e5da63b7c001f47869e52171617fdab7b2473a722",
      "blockNumber": "0x731989",
      "gasUsed": "0xf844",
      "effectiveGasPrice": "0x3b0e7b9d",
      "from": "0xc77f7fed3b5cc8249adc428c5f44c9063b9734b4",
      "to": "0x8aafd3ede9adb0ff97c7aebce82a919afb1c8764",
      "contractAddress": null
    }
  ],
  "libraries": [],
  "pending": [],
  "returns": {},
  "timestamp": 1737502525,
  "chain": 11155111,
  "commit": "1d2fb70"
}