{
  "transactions": [
    {
      "hash": "0xffa52a2344e1d633c19dabe25068936638b659fae9500a1d4277ccce4ce56dfa",
      "transactionType": "CALL",
      "contractName": null,
      "contractAddress": "0x8aafd3ede9adb0ff97c7aebce82a919afb1c8764",
      "function": "sell(uint256)",
      "arguments": [
        "2719116955524"
      ],
      "transaction": {
        "from": "0xc77f7fed3b5cc8249adc428c5f44c9063b9734b4",
        "to": "0x8aafd3ede9adb0ff97c7aebce82a919afb1c8764",
        "gas": "0x1722a",
        "value": "0x0",
        "input": "0xe4849b320000000000000000000000000000000000000000000000000000027918000f84",
        "nonce": "0x12e3",
        "chainId": "0xaa36a7"
      },
      "additionalContracts": [],
      "isFixedGasLimit": false
    }
  ],
  "receipts": [
    {
      "status": "0x1",
      "cumulativeGasUsed": "0x848fb2",
      "logs": [
        {
          "address": "0x8aafd3ede9adb0ff97c7aebce82a919afb1c8764",
          "topics": [
            "0xddf252ad1be2c89b69c2b068fc378daa952ba7f163c4a11628f55a4df523b3ef",
            "0x000000000000000000000000c77f7fed3b5cc8249adc428c5f44c9063b9734b4",
            "0x0000000000000000000000000000000000000000000000000000000000000000"
          ],
          "data": "0x00000000000000000000000000000000000000000000000000000274076c9aa8",
          "blockHash": "0xac42cab8c0684c22280ef7b18cf5c480fb56eca44e314b901d4ec0a25c52bf68",
          "blockNumber": "0x7319e5",
          "transactionHash": "0xffa52a2344e1d633c19dabe25068936638b659fae9500a1d4277ccce4ce56dfa",
          "transactionIndex": "0x55",
          "logIndex": "0x74",
          "removed": false
        },
        {
          "address": "0x8aafd3ede9adb0ff97c7aebce82a919afb1c8764",
          "topics": [
            "0xddf252ad1be2c89b69c2b068fc378daa952ba7f163c4a11628f55a4df523b3ef",
            "0x000000000000000000000000c77f7fed3b5cc8249adc428c5f44c9063b9734b4",
            "0x000000000000000000000000c77f7fed3b5cc8249adc428c5f44c9063b9734b4"
          ],
          "data": "0x00000000000000000000000000000000000000000000000000000005109374dc",
          "blockHash": "0xac42cab8c0684c22280ef7b18cf5c480fb56eca44e314b901d4ec0a25c52bf68",
          "blockNumber": "0x7319e5",
          "transactionHash": "0xffa52a2344e1d633c19dabe25068936638b659fae9500a1d4277ccce4ce56dfa",
          "transactionIndex": "0x55",
          "logIndex": "0x75",
          "removed": false
        },
        {
          "address": "0x8aafd3ede9adb0ff97c7aebce82a919afb1c8764",
          "topics": [
            "0x4afcb4a87cdbd9974efdb92ee48bc8d7cd0ae4bf217004db3d080cbaee652ca7"
          ],
          "data": "0x000000000000000000000000000000000000000000000000000000006790338c000000000000000000000000000000000000000000000000000551e775b24fcb00000000000000000000000000000000000000000000000000000000f2b0fe8d",
          "blockHash": "0xac42cab8c0684c22280ef7b18cf5c480fb56eca44e314b901d4ec0a25c52bf68",
          "blockNumber": "0x7319e5",
          "transactionHash": "0xffa52a2344e1d633c19dabe25068936638b659fae9500a1d4277ccce4ce56dfa",
          "transactionIndex": "0x55",
          "logIndex": "0x76",
          "removed": false
        }
      ],
      "logsBloom": "0x00000000000000000000000000000000000000000600000000000000000000000000000000000000000000000000000000000000000000004000000000000000000000000000004000000008000000000000000000000000000000000000000000000000020000000000000000000800020000000000000000000010000000000000000000000000000000000000000000000000000000000000010000000000000000000000000000000000000000004000000000000000000000000000000000000002000000800000000000000000000000000000080000000000000020000000000000000000000000000000000000000000000000000000000000000000",
      "type": "0x2",
      "transactionHash": "0xffa52a2344e1d633c19dabe25068936638b659fae9500a1d4277ccce4ce56dfa",
      "transactionIndex": "0x55",
      "blockHash": "0xac42cab8c0684c22280ef7b18cf5c480fb56eca44e314b901d4ec0a25c52bf68",
      "blockNumber": "0x7319e5",
      "gasUsed": "0xfd1b",
      "effectiveGasPrice": "0x4013067e",
      "from": "0xc77f7fed3b5cc8249adc428c5f44c9063b9734b4",
      "to": "0x8aafd3ede9adb0ff97c7aebce82a919afb1c8764",
      "contractAddress": null
    }
  ],
  "libraries": [],
  "pending": [],
  "returns": {},
  "timestamp": 1737503629,
  "chain": 11155111,
  "commit": "1d2fb70"
}