{
  "transactions": [
    {
      "hash": "0xb2afeed3392091ad98fa5de3dda6f30ec9d15b28db5953a6a3e95835f6c56c12",
      "transactionType": "CALL",
      "contractName": null,
      "contractAddress": "0x8aafd3ede9adb0ff97c7aebce82a919afb1c8764",
      "function": "buy(address)",
      "arguments": [
        "0xC77f7fed3b5Cc8249aDc428c5F44C9063B9734b4"
      ],
      "transaction": {
        "from": "0xc77f7fed3b5cc8249adc428c5f44c9063b9734b4",
        "to": "0x8aafd3ede9adb0ff97c7aebce82a919afb1c8764",
        "gas": "0x156ea",
        "value": "0xde0b6b3a7640000",
        "input": "0xf088d547000000000000000000000000c77f7fed3b5cc8249adc428c5f44c9063b9734b4",
        "nonce": "0x12ca",
        "chainId": "0xaa36a7"
      },
      "additionalContracts": [],
      "isFixedGasLimit": false
    }
  ],
  "receipts": [
    {
      "status": "0x1",
      "cumulativeGasUsed": "0x113498c",
      "logs": [
        {
          "address": "0x8aafd3ede9adb0ff97c7aebce82a919afb1c8764",
          "topics": [
            "0xddf252ad1be2c89b69c2b068fc378daa952ba7f163c4a11628f55a4df523b3ef",
            "0x0000000000000000000000000000000000000000000000000000000000000000",
            "0x000000000000000000000000c77f7fed3b5cc8249adc428c5f44c9063b9734b4"
          ],
          "data": "0x000000000000000000000000000000000000000000000023f48888dc088363c2",
          "blockHash": "0x82e5f014678323819df4b1523c9c17df90193ebe364c685cd9173ec01255577e",
          "blockNumber": "0x7319c7",
          "transactionHash": "0xb2afeed3392091ad98fa5de3dda6f30ec9d15b28db5953a6a3e95835f6c56c12",
          "transactionIndex": "0x81",
          "logIndex": "0x80a",
          "removed": false
        },
        {
          "address": "0x8aafd3ede9adb0ff97c7aebce82a919afb1c8764",
          "topics": [
            "0xddf252ad1be2c89b69c2b068fc378daa952ba7f163c4a11628f55a4df523b3ef",
            "0x0000000000000000000000000000000000000000000000000000000000000000",
            "0x000000000000000000000000c77f7fed3b5cc8249adc428c5f44c9063b9734b4"
          ],
          "data": "0x0000000000000000000000000000000000000000000000001beba2548c7449db",
          "blockHash": "0x82e5f014678323819df4b1523c9c17df90193ebe364c685cd9173ec01255577e",
          "blockNumber": "0x7319c7",
          "transactionHash": "0xb2afeed3392091ad98fa5de3dda6f30ec9d15b28db5953a6a3e95835f6c56c12",
          "transactionIndex": "0x81",
          "logIndex": "0x80b",
          "removed": false
        },
        {
          "address": "0x8aafd3ede9adb0ff97c7aebce82a919afb1c8764",
          "topics": [
            "0x4afcb4a87cdbd9974efdb92ee48bc8d7cd0ae4bf217004db3d080cbaee652ca7"
          ],
          "data": "0x000000000000000000000000000000000000000000000000000000006790322400000000000000000000000000000000000000000000000000054df447821f8f0000000000000000000000000000000000000000000000000de0b6b3a7640000",
          "blockHash": "0x82e5f014678323819df4b1523c9c17df90193ebe364c685cd9173ec01255577e",
          "blockNumber": "0x7319c7",
          "transactionHash": "0xb2afeed3392091ad98fa5de3dda6f30ec9d15b28db5953a6a3e95835f6c56c12",
          "transactionIndex": "0x81",
          "logIndex": "0x80c",
          "removed": false
        }
      ],
      "logsBloom": "0x00000000000000000000000000000000000000000600000000000000000000000000000000000000000000000000000000000000000000004000000000000000000000000000004000000008000000000000000000000000000000000000000000000000020000000000000000000800020000000000000000000010000000000000000000000000000000000000000000000000000000000000010000000000000000000000000000000000000000004000000000000000000000000000000000000002000000800000000000000000000000000000080000000000000020000000000000000000000000000000000000000000000000000000000000000000",
      "type": "0x2",
      "transactionHash": "0xb2afeed3392091ad98fa5de3dda6f30ec9d15b28db5953a6a3e95835f6c56c12",
      "transactionIndex": "0x81",
      "blockHash": "0x82e5f014678323819df4b1523c9c17df90193ebe364c685cd9173ec01255577e",
      "blockNumber": "0x7319c7",
      "gasUsed": "0xf844",
      "effectiveGasPrice": "0x4c05a1d5",
      "from": "0xc77f7fed3b5cc8249adc428c5f44c9063b9734b4",
      "to": "0x8aafd3ede9adb0ff97c7aebce82a919afb1c8764",
      "contractAddress": null
    }
  ],
  "libraries": [],
  "pending": [],
  "returns": {},
  "timestamp": 1737503269,
  "chain": 11155111,
  "commit": "1d2fb70"
}