{
  "transactions": [
    {
      "hash": "0x076ef2dc6b861dd51287f630d20fe6930792885a738c811e1ddba5f1b586226f",
      "transactionType": "CALL",
      "contractName": null,
      "contractAddress": "0x8aafd3ede9adb0ff97c7aebce82a919afb1c8764",
      "function": "sell(uint256)",
      "arguments": [
        "355059016941110"
      ],
      "transaction": {
        "from": "0xc77f7fed3b5cc8249adc428c5f44c9063b9734b4",
        "to": "0x8aafd3ede9adb0ff97c7aebce82a919afb1c8764",
        "gas": "0x1724d",
        "value": "0x0",
        "input": "0xe4849b32000000000000000000000000000000000000000000000000000142ec9e943e36",
        "nonce": "0x1152",
        "chainId": "0xaa36a7"
      },
      "additionalContracts": [],
      "isFixedGasLimit": false
    }
  ],
  "receipts": [
    {
      "status": "0x1",
      "cumulativeGasUsed": "0xb0bfd7",
      "logs": [
        {
          "address": "0x8aafd3ede9adb0ff97c7aebce82a919afb1c8764",
          "topics": [
            "0xddf252ad1be2c89b69c2b068fc378daa952ba7f163c4a11628f55a4df523b3ef",
            "0x000000000000000000000000c77f7fed3b5cc8249adc428c5f44c9063b9734b4",
            "0x0000000000000000000000000000000000000000000000000000000000000000"
          ],
          "data": "0x00000000000000000000000000000000000000000000000000014057453f16ce",
          "blockHash": "0x5956a9875f98bc80246decb00a72132b3cc76159bd07d51135b9458cca9d3a8a",
          "blockNumber": "0x73180c",
          "transactionHash": "0x076ef2dc6b861dd51287f630d20fe6930792885a738c811e1ddba5f1b586226f",
          "transactionIndex": "0x82",
          "logIndex": "0xc1",
          "removed": false
        },
        {
          "address": "0x8aafd3ede9adb0ff97c7aebce82a919afb1c8764",
          "topics": [
            "0xddf252ad1be2c89b69c2b068fc378daa952ba7f163c4a11628f55a4df523b3ef",
            "0x000000000000000000000000c77f7fed3b5cc8249adc428c5f44c9063b9734b4",
            "0x000000000000000000000000c77f7fed3b5cc8249adc428c5f44c9063b9734b4"
          ],
          "data": "0x0000000000000000000000000000000000000000000000000000029559552768",
          "blockHash": "0x5956a9875f98bc80246decb00a72132b3cc76159bd07d51135b9458cca9d3a8a",
          "blockNumber": "0x73180c",
          "transactionHash": "0x076ef2dc6b861dd51287f630d20fe6930792885a738c811e1ddba5f1b586226f",
          "transactionIndex": "0x82",
          "logIndex": "0xc2",
          "removed": false
        },
        {
          "address": "0x8aafd3ede9adb0ff97c7aebce82a919afb1c8764",
          "topics": [
            "0x4afcb4a87cdbd9974efdb92ee48bc8d7cd0ae4bf217004db3d080cbaee652ca7"
          ],
          "data": "0x0000000000000000000000000000000000000000000000000000000067901d54000000000000000000000000000000000000000000000000000517c7aed31e9b0000000000000000000000000000000000000000000000000000007681d984f5",
          "blockHash": "0x5956a9875f98bc80246decb00a72132b3cc76159bd07d51135b9458cca9d3a8a",
          "blockNumber": "0x73180c",
          "transactionHash": "0x076ef2dc6b861dd51287f630d20fe6930792885a738c811e1ddba5f1b586226f",
          "transactionIndex": "0x82",
          "logIndex": "0xc3",
          "removed": false
        }
      ],
      "logsBloom": "0x00000000000000000000000000000000000000000600000000000000000000000000000000000000000000000000000000000000000000004000000000000000000000000000004000000008000000000000000000000000000000000000000000000000020000000000000000000800020000000000000000000010000000000000000000000000000000000000000000000000000000000000010000000000000000000000000000000000000000004000000000000000000000000000000000000002000000800000000000000000000000000000080000000000000020000000000000000000000000000000000000000000000000000000000000000000",
      "type": "0x2",
      "transactionHash": "0x076ef2dc6b861dd51287f630d20fe6930792885a738c811e1ddba5f1b586226f",
      "transactionIndex": "0x82",
      "blockHash": "0x5956a9875f98bc80246decb00a72132b3cc76159bd07d51135b9458cca9d3a8a",
      "blockNumber": "0x73180c",
      "gasUsed": "0xfd33",
      "effectiveGasPrice": "0x4066df05",
      "from": "0xc77f7fed3b5cc8249adc428c5f44c9063b9734b4",
      "to": "0x8aafd3ede9adb0ff97c7aebce82a919afb1c8764",
      "contractAddress": null
    }
  ],
  "libraries": [],
  "pending": [],
  "returns": {},
  "timestamp": 1737497941,
  "chain": 11155111,
  "commit": "1d2fb70"
}