{
  "transactions": [
    {
      "hash": "0x97909d0fe04997b76d709bead65e7a798fc8b705ae26c0c7ff3f005b70a8a821",
      "transactionType": "CALL",
      "contractName": null,
      "contractAddress": "0x8aafd3ede9adb0ff97c7aebce82a919afb1c8764",
      "function": "sell(uint256)",
      "arguments": [
        "74744033"
      ],
      "transaction": {
        "from": "0xc77f7fed3b5cc8249adc428c5f44c9063b9734b4",
        "to": "0x8aafd3ede9adb0ff97c7aebce82a919afb1c8764",
        "gas": "0x15d88",
        "value": "0x0",
        "input": "0xe4849b3200000000000000000000000000000000000000000000000000000000047480e1",
        "nonce": "0x1370",
        "chainId": "0xaa36a7"
      },
      "additionalContracts": [],
      "isFixedGasLimit": false
    }
  ],
  "receipts": [
    {
      "status": "0x1",
      "cumulativeGasUsed": "0xc2f8c8",
      "logs": [
        {
          "address": "0x8aafd3ede9adb0ff97c7aebce82a919afb1c8764",
          "topics": [
            "0xddf252ad1be2c89b69c2b068fc378daa952ba7f163c4a11628f55a4df523b3ef",
            "0x000000000000000000000000c77f7fed3b5cc8249adc428c5f44c9063b9734b4",
            "0x0000000000000000000000000000000000000000000000000000000000000000"
          ],
          "data": "0x00000000000000000000000000000000000000000000000000000000046b6121",
          "blockHash": "0x7898572714a60964ce464b14464c1fd233d0b80c3d2d87bb17d68c3fef8b54a4",
          "blockNumber": "0x731a90",
          "transactionHash": "0x97909d0fe04997b76d709bead65e7a798fc8b705ae26c0c7ff3f005b70a8a821",
          "transactionIndex": "0x7a",
          "logIndex": "0x8d",
          "removed": false
        },
        {
          "address": "0x8aafd3ede9adb0ff97c7aebce82a919afb1c8764",
          "topics": [
            "0xddf252ad1be2c89b69c2b068fc378daa952ba7f163c4a11628f55a4df523b3ef",
            "0x000000000000000000000000c77f7fed3b5cc8249adc428c5f44c9063b9734b4",
            "0x000000000000000000000000c77f7fed3b5cc8249adc428c5f44c9063b9734b4"
          ],
          "data": "0x0000000000000000000000000000000000000000000000000000000000091fc0",
          "blockHash": "0x7898572714a60964ce464b14464c1fd233d0b80c3d2d87bb17d68c3fef8b54a4",
          "blockNumber": "0x731a90",
          "transactionHash": "0x97909d0fe04997b76d709bead65e7a798fc8b705ae26c0c7ff3f005b70a8a821",
          "transactionIndex": "0x7a",
          "logIndex": "0x8e",
          "removed": false
        },
        {
          "address": "0x8aafd3ede9adb0ff97c7aebce82a919afb1c8764",
          "topics": [
            "0x4afcb4a87cdbd9974efdb92ee48bc8d7cd0ae4bf217004db3d080cbaee652ca7"
          ],
          "data": "0x0000000000000000000000000000000000000000000000000000000067903b90000000000000000000000000000000000000000000000000000c798b18eb72b00000000000000000000000000000000000000000000000000000000000040133",
          "blockHash": "0x7898572714a60964ce464b14464c1fd233d0b80c3d2d87bb17d68c3fef8b54a4",
          "blockNumber": "0x731a90",
          "transactionHash": "0x97909d0fe04997b76d709bead65e7a798fc8b705ae26c0c7ff3f005b70a8a821",
          "transactionIndex": "0x7a",
          "logIndex": "0x8f",
          "removed": false
        }
      ],
      "logsBloom": "0x00000000000000000000000000000000000000000600000000000000000000000000000000000000000000000000000000000000000000004000000000000000000000000000004000000008000000000000000000000000000000000000000000000000020000000000000000000800020000000000000000000010000000000000000000000000000000000000000000000000000000000000010000000000000000000000000000000000000000004000000000000000000000000000000000000002000000800000000000000000000000000000080000000000000020000000000000000000000000000000000000000000000000000000000000000000",
      "type": "0x2",
      "transactionHash": "0x97909d0fe04997b76d709bead65e7a798fc8b705ae26c0c7ff3f005b70a8a821",
      "transactionIndex": "0x7a",
      "blockHash": "0x7898572714a60964ce464b14464c1fd233d0b80c3d2d87bb17d68c3fef8b54a4",
      "blockNumber": "0x731a90",
      "gasUsed": "0xfd0f",
      "effectiveGasPrice": "0x5e479948",
      "from": "0xc77f7fed3b5cc8249adc428c5f44c9063b9734b4",
      "to": "0x8aafd3ede9adb0ff97c7aebce82a919afb1c8764",
      "contractAddress": null
    }
  ],
  "libraries": [],
  "pending": [],
  "returns": {},
  "timestamp": 1737505681,
  "chain": 11155111,
  "commit": "1d2fb70"
}