{
  "transactions": [
    {
      "hash": "0x95f2986e68589fd05031ffbd93a5820df46ffee358d04ea61c4b217c0f96dd5f",
      "transactionType": "CALL",
      "contractName": null,
      "contractAddress": "0x8aafd3ede9adb0ff97c7aebce82a919afb1c8764",
      "function": "sell(uint256)",
      "arguments": [
        "745705765013715045071"
      ],
      "transaction": {
        "from": "0xc77f7fed3b5cc8249adc428c5f44c9063b9734b4",
        "to": "0x8aafd3ede9adb0ff97c7aebce82a919afb1c8764",
        "gas": "0x17270",
        "value": "0x0",
        "input": "0xe4849b320000000000000000000000000000000000000000000000286cbf125c8b664acf",
        "nonce": "0xf00",
        "chainId": "0xaa36a7"
      },
      "additionalContracts": [],
      "isFixedGasLimit": false
    }
  ],
  "receipts": [
    {
      "status": "0x1",
      "cumulativeGasUsed": "0xd42ea2",
      "logs": [
        {
          "address": "0x8aafd3ede9adb0ff97c7aebce82a919afb1c8764",
          "topics": [
            "0xddf252ad1be2c89b69c2b068fc378daa952ba7f163c4a11628f55a4df523b3ef",
            "0x000000000000000000000000c77f7fed3b5cc8249adc428c5f44c9063b9734b4",
            "0x0000000000000000000000000000000000000000000000000000000000000000"
          ],
          "data": "0x00000000000000000000000000000000000000000000002819f4d6d2969287a7",
          "blockHash": "0x8e93102b509ca89314c76b257bf1f72b7d2f690f4fe9deea3d7e31a39c653325",
          "blockNumber": "0x731478",
          "transactionHash": "0x95f2986e68589fd05031ffbd93a5820df46ffee358d04ea61c4b217c0f96dd5f",
          "transactionIndex": "0x87",
          "logIndex": "0xb5",
          "removed": false
        },
        {
          "address": "0x8aafd3ede9adb0ff97c7aebce82a919afb1c8764",
          "topics": [
            "0xddf252ad1be2c89b69c2b068fc378daa952ba7f163c4a11628f55a4df523b3ef",
            "0x000000000000000000000000c77f7fed3b5cc8249adc428c5f44c9063b9734b4",
            "0x000000000000000000000000c77f7fed3b5cc8249adc428c5f44c9063b9734b4"
          ],
          "data": "0x00000000000000000000000000000000000000000000000052ca3b89f4d3c328",
          "blockHash": "0x8e93102b509ca89314c76b257bf1f72b7d2f690f4fe9deea3d7e31a39c653325",
          "blockNumber": "0x731478",
          "transactionHash": "0x95f2986e68589fd05031ffbd93a5820df46ffee358d04ea61c4b217c0f96dd5f",
          "transactionIndex": "0x87",
          "logIndex": "0xb6",
          "removed": false
        },
        {
          "address": "0x8aafd3ede9adb0ff97c7aebce82a919afb1c8764",
          "topics": [
            "0x4afcb4a87cdbd9974efdb92ee48bc8d7cd0ae4bf217004db3d080cbaee652ca7"
          ],
          "data": "0x00000000000000000000000000000000000000000000000000000000678ff24c0000000000000000000000000000000000000000000000000004bb85b8ca1a3f0000000000000000000000000000000000000000000000000dc834642ad950ff",
          "blockHash": "0x8e93102b509ca89314c76b257bf1f72b7d2f690f4fe9deea3d7e31a39c653325",
          "blockNumber": "0x731478",
          "transactionHash": "0x95f2986e68589fd05031ffbd93a5820df46ffee358d04ea61c4b217c0f96dd5f",
          "transactionIndex": "0x87",
          "logIndex": "0xb7",
          "removed": false
        }
      ],
      "logsBloom": "0x00000000000000000000000000000000000000000600000000000000000000000000000000000000000000000000000000000000000000004000000000000000000000000000004000000008000000000000000000000000000000000000000000000000020000000000000000000800020000000000000000000010000000000000000000000000000000000000000000000000000000000000010000000000000000000000000000000000000000004000000000000000000000000000000000000002000000800000000000000000000000000000080000000000000020000000000000000000000000000000000000000000000000000000000000000000",
      "type": "0x2",
      "transactionHash": "0x95f2986e68589fd05031ffbd93a5820df46ffee358d04ea61c4b217c0f96dd5f",
      "transactionIndex": "0x87",
      "blockHash": "0x8e93102b509ca89314c76b257bf1f72b7d2f690f4fe9deea3d7e31a39c653325",
      "blockNumber": "0x731478",
      "gasUsed": "0xfd4b",
      "effectiveGasPrice": "0x93bab43e",
      "from": "0xc77f7fed3b5cc8249adc428c5f44c9063b9734b4",
      "to": "0x8aafd3ede9adb0ff97c7aebce82a919afb1c8764",
      "contractAddress": null
    }
  ],
  "libraries": [],
  "pending": [],
  "returns": {},
  "timestamp": 1737486925,
  "chain": 11155111,
  "commit": "51a374b"
}