{
  "transactions": [
    {
      "hash": "0xe11af05e27c20041820b88a16d3c340bee14c1d906ad8d3b66f8218a42008590",
      "transactionType": "CALL",
      "contractName": null,
      "contractAddress": "0x5eb9cc76c3506942c1c0ead70e877dd5e4f00cb0",
      "function": "sell(uint256)",
      "arguments": [
        "989126133715945054926"
      ],
      "transaction": {
        "from": "0xc77f7fed3b5cc8249adc428c5f44c9063b9734b4",
        "to": "0x5eb9cc76c3506942c1c0ead70e877dd5e4f00cb0",
        "gas": "0x16fec",
        "value": "0x0",
        "input": "0xe4849b320000000000000000000000000000000000000000000000359ee1f1fff26ee2ce",
        "nonce": "0x35d",
        "chainId": "0xaa36a7"
      },
      "additionalContracts": [],
      "isFixedGasLimit": false
    }
  ],
  "receipts": [
    {
      "status": "0x1",
      "cumulativeGasUsed": "0xbc6502",
      "logs": [
        {
          "address": "0x5eb9cc76c3506942c1c0ead70e877dd5e4f00cb0",
          "topics": [
            "0xddf252ad1be2c89b69c2b068fc378daa952ba7f163c4a11628f55a4df523b3ef",
            "0x000000000000000000000000c77f7fed3b5cc8249adc428c5f44c9063b9734b4",
            "0x0000000000000000000000000000000000000000000000000000000000000000"
          ],
          "data": "0x0000000000000000000000000000000000000000000000359ee1f1fff26ee2ce",
          "blockHash": "0xd161ce6f15ef24bd4106eb8ab4f607115f71bdcce2858e1493e24081acdc4e03",
          "blockNumber": "0x724f53",
          "transactionHash": "0xe11af05e27c20041820b88a16d3c340bee14c1d906ad8d3b66f8218a42008590",
          "transactionIndex": "0x65",
          "logIndex": "0x97",
          "removed": false
        },
        {
          "address": "0x5eb9cc76c3506942c1c0ead70e877dd5e4f00cb0",
          "topics": [
            "0x4afcb4a87cdbd9974efdb92ee48bc8d7cd0ae4bf217004db3d080cbaee652ca7"
          ],
          "data": "0x000000000000000000000000000000000000000000000000000000006786a9980000000000000000000000000000000000000000000000000003910f4bd2df3d0000000000000000000000000000000000000000000000000dc7db133215f328",
          "blockHash": "0xd161ce6f15ef24bd4106eb8ab4f607115f71bdcce2858e1493e24081acdc4e03",
          "blockNumber": "0x724f53",
          "transactionHash": "0xe11af05e27c20041820b88a16d3c340bee14c1d906ad8d3b66f8218a42008590",
          "transactionIndex": "0x65",
          "logIndex": "0x98",
          "removed": false
        }
      ],
      "logsBloom": "0x00000000000000000000000000000000000000000000000000000000000000000000000000000000000000000000000000000000000000004000000000000000000000000000000000000008000000000000000000000000000000000000000000000000020000000000000004000800020000000000000000000010000000000000000000000000000000000000000000000000000000000000010000000000000000000000000000000000000000004000000000000000000000000000020000000002000000800000008000000000000000000000080000000000000020000000000000000000000000000000000000000000000000000000000000000000",
      "type": "0x2",
      "transactionHash": "0xe11af05e27c20041820b88a16d3c340bee14c1d906ad8d3b66f8218a42008590",
      "transactionIndex": "0x65",
      "blockHash": "0xd161ce6f15ef24bd4106eb8ab4f607115f71bdcce2858e1493e24081acdc4e03",
      "blockNumber": "0x724f53",
      "gasUsed": "0xfb93",
      "effectiveGasPrice": "0x5612bf7a7",
      "from": "0xc77f7fed3b5cc8249adc428c5f44c9063b9734b4",
      "to": "0x5eb9cc76c3506942c1c0ead70e877dd5e4f00cb0",
      "contractAddress": null
    }
  ],
  "libraries": [],
  "pending": [],
  "returns": {},
  "timestamp": 1736878490,
  "chain": 11155111,
  "commit": "51a374b"
}