{
  "transactions": [
    {
      "hash": "0x7ede50e0101e9ab8d6a4c7c27571d068825947b3301ff3f370951965b880609d",
      "transactionType": "CALL",
      "contractName": null,
      "contractAddress": "0x8aafd3ede9adb0ff97c7aebce82a919afb1c8764",
      "function": "sell(uint256)",
      "arguments": [
        "1557309"
      ],
      "transaction": {
        "from": "0xc77f7fed3b5cc8249adc428c5f44c9063b9734b4",
        "to": "0x8aafd3ede9adb0ff97c7aebce82a919afb1c8764",
        "gas": "0x16208",
        "value": "0x0",
        "input": "0xe4849b32000000000000000000000000000000000000000000000000000000000017c33d",
        "nonce": "0xf50",
        "chainId": "0xaa36a7"
      },
      "additionalContracts": [],
      "isFixedGasLimit": false
    }
  ],
  "receipts": [
    {
      "status": "0x1",
      "cumulativeGasUsed": "0xb182f9",
      "logs": [
        {
          "address": "0x8aafd3ede9adb0ff97c7aebce82a919afb1c8764",
          "topics": [
            "0xddf252ad1be2c89b69c2b068fc378daa952ba7f163c4a11628f55a4df523b3ef",
            "0x000000000000000000000000c77f7fed3b5cc8249adc428c5f44c9063b9734b4",
            "0x0000000000000000000000000000000000000000000000000000000000000000"
          ],
          "data": "0x0000000000000000000000000000000000000000000000000000000000179293",
          "blockHash": "0x6b030567566ff1683c6df4d239655a3552b6059fb931a034ab266763f5328527",
          "blockNumber": "0x7315ab",
          "transactionHash": "0x7ede50e0101e9ab8d6a4c7c27571d068825947b3301ff3f370951965b880609d",
          "transactionIndex": "0x6d",
          "logIndex": "0xd2",
          "removed": false
        },
        {
          "address": "0x8aafd3ede9adb0ff97c7aebce82a919afb1c8764",
          "topics": [
            "0xddf252ad1be2c89b69c2b068fc378daa952ba7f163c4a11628f55a4df523b3ef",
            "0x000000000000000000000000c77f7fed3b5cc8249adc428c5f44c9063b9734b4",
            "0x000000000000000000000000c77f7fed3b5cc8249adc428c5f44c9063b9734b4"
          ],
          "data": "0x00000000000000000000000000000000000000000000000000000000000030aa",
          "blockHash": "0x6b030567566ff1683c6df4d239655a3552b6059fb931a034ab266763f5328527",
          "blockNumber": "0x7315ab",
          "transactionHash": "0x7ede50e0101e9ab8d6a4c7c27571d068825947b3301ff3f370951965b880609d",
          "transactionIndex": "0x6d",
          "logIndex": "0xd3",
          "removed": false
        },
        {
          "address": "0x8aafd3ede9adb0ff97c7aebce82a919afb1c8764",
          "topics": [
            "0x4afcb4a87cdbd9974efdb92ee48bc8d7cd0ae4bf217004db3d080cbaee652ca7"
          ],
          "data": "0x00000000000000000000000000000000000000000000000000000000679000b00000000000000000000000000000000000000000000000000004c087ad0df3c80000000000000000000000000000000000000000000000000000000000000823",
          "blockHash": "0x6b030567566ff1683c6df4d239655a3552b6059fb931a034ab266763f5328527",
          "blockNumber": "0x7315ab",
          "transactionHash": "0x7ede50e0101e9ab8d6a4c7c27571d068825947b3301ff3f370951965b880609d",
          "transactionIndex": "0x6d",
          "logIndex": "0xd4",
          "removed": false
        }
      ],
      "logsBloom": "0x00000000000000000000000000000000000000000600000000000000000000000000000000000000000000000000000000000000000000004000000000000000000000000000004000000008000000000000000000000000000000000000000000000000020000000000000000000800020000000000000000000010000000000000000000000000000000000000000000000000000000000000010000000000000000000000000000000000000000004000000000000000000000000000000000000002000000800000000000000000000000000000080000000000000020000000000000000000000000000000000000000000000000000000000000000000",
      "type": "0x2",
      "transactionHash": "0x7ede50e0101e9ab8d6a4c7c27571d068825947b3301ff3f370951965b880609d",
      "transactionIndex": "0x6d",
      "blockHash": "0x6b030567566ff1683c6df4d239655a3552b6059fb931a034ab266763f5328527",
      "blockNumber": "0x7315ab",
      "gasUsed": "0xf213",
      "effectiveGasPrice": "0x77f7da7a",
      "from": "0xc77f7fed3b5cc8249adc428c5f44c9063b9734b4",
      "to": "0x8aafd3ede9adb0ff97c7aebce82a919afb1c8764",
      "contractAddress": null
    }
  ],
  "libraries": [],
  "pending": [],
  "returns": {},
  "timestamp": 1737490610,
  "chain": 11155111,
  "commit": "1d2fb70"
}