{
  "transactions": [
    {
      "hash": "0x810512e45fded907a4f6b41fb7089e11988bb975cdef940a33ec04fd585a1189",
      "transactionType": "CALL",
      "contractName": null,
      "contractAddress": "0x270e88f8683660553e8ba4eb2ad7c91a1710d769",
      "function": "buy(address)",
      "arguments": [
        "0xC77f7fed3b5Cc8249aDc428c5F44C9063B9734b4"
      ],
      "transaction": {
        "from": "0xc77f7fed3b5cc8249adc428c5f44c9063b9734b4",
        "to": "0x270e88f8683660553e8ba4eb2ad7c91a1710d769",
        "gas": "0x1b30c",
        "value": "0xde0b6b3a7640000",
        "input": "0xf088d547000000000000000000000000c77f7fed3b5cc8249adc428c5f44c9063b9734b4",
        "nonce": "0x671",
        "chainId": "0xaa36a7"
      },
      "additionalContracts": [],
      "isFixedGasLimit": false
    }
  ],
  "receipts": [
    {
      "status": "0x1",
      "cumulativeGasUsed": "0x8b7ef7",
      "logs": [
        {
          "address": "0x270e88f8683660553e8ba4eb2ad7c91a1710d769",
          "topics": [
            "0xddf252ad1be2c89b69c2b068fc378daa952ba7f163c4a11628f55a4df523b3ef",
            "0x0000000000000000000000000000000000000000000000000000000000000000",
            "0x000000000000000000000000c77f7fed3b5cc8249adc428c5f44c9063b9734b4"
          ],
          "data": "0x000000000000000000000000000000000000000000000028fbdc9ac8f8f4b1f0",
          "blockHash": "0xd20be7ada311dceeaad3de39f619020ff5b9539560cee036f02728da3722c48e",
          "blockNumber": "0x72536b",
          "transactionHash": "0x810512e45fded907a4f6b41fb7089e11988bb975cdef940a33ec04fd585a1189",
          "transactionIndex": "0x3f",
          "logIndex": "0x8f",
          "removed": false
        },
        {
          "address": "0x270e88f8683660553e8ba4eb2ad7c91a1710d769",
          "topics": [
            "0xddf252ad1be2c89b69c2b068fc378daa952ba7f163c4a11628f55a4df523b3ef",
            "0x0000000000000000000000000000000000000000000000000000000000000000",
            "0x000000000000000000000000c77f7fed3b5cc8249adc428c5f44c9063b9734b4"
          ],
          "data": "0x0000000000000000000000000000000000000000000000001fd349dc18d3e5bb",
          "blockHash": "0xd20be7ada311dceeaad3de39f619020ff5b9539560cee036f02728da3722c48e",
          "blockNumber": "0x72536b",
          "transactionHash": "0x810512e45fded907a4f6b41fb7089e11988bb975cdef940a33ec04fd585a1189",
          "transactionIndex": "0x3f",
          "logIndex": "0x90",
          "removed": false
        },
        {
          "address": "0x270e88f8683660553e8ba4eb2ad7c91a1710d769",
          "topics": [
            "0x4afcb4a87cdbd9974efdb92ee48bc8d7cd0ae4bf217004db3d080cbaee652ca7"
          ],
          "data": "0x000000000000000000000000000000000000000000000000000000006786db0c0000000000000000000000000000000000000000000000000004a714b2dd13ae0000000000000000000000000000000000000000000000000de0b6b3a7640000",
          "blockHash": "0xd20be7ada311dceeaad3de39f619020ff5b9539560cee036f02728da3722c48e",
          "blockNumber": "0x72536b",
          "transactionHash": "0x810512e45fded907a4f6b41fb7089e11988bb975cdef940a33ec04fd585a1189",
          "transactionIndex": "0x3f",
          "logIndex": "0x91",
          "removed": false
        }
      ],
      "logsBloom": "0x00000000000000000000000000000000000000000000000000000000000000000000000000000000000000000000000020000000000000004000000000000000000000000000000000000008000000000000000000000000000000000000000000000000020000000000000000000800020000000000000000000010000000000000000000010000000000000000000000000000000000000000010000000000000000000000000000000000000000004000000000000000000000000000000000000002000000800000000000000000000000000000080000008000000020000000000000000000000000000000000000000000000000000000000000000000",
      "type": "0x2",
      "transactionHash": "0x810512e45fded907a4f6b41fb7089e11988bb975cdef940a33ec04fd585a1189",
      "transactionIndex": "0x3f",
      "blockHash": "0xd20be7ada311dceeaad3de39f619020ff5b9539560cee036f02728da3722c48e",
      "blockNumber": "0x72536b",
      "gasUsed": "0x13af8",
      "effectiveGasPrice": "0x277f4e603",
      "from": "0xc77f7fed3b5cc8249adc428c5f44c9063b9734b4",
      "to": "0x270e88f8683660553e8ba4eb2ad7c91a1710d769",
      "contractAddress": null
    }
  ],
  "libraries": [],
  "pending": [],
  "returns": {},
  "timestamp": 1736891149,
  "chain": 11155111,
  "commit": "51a374b"
}