{
  "transactions": [
    {
      "hash": "0x3efa131e339b0b1e5e1255cfc6c68bfd297a8869a6e50ca1c0b4da6de4b8a764",
      "transactionType": "CALL",
      "contractName": null,
      "contractAddress": "0x8aafd3ede9adb0ff97c7aebce82a919afb1c8764",
      "function": "sell(uint256)",
      "arguments": [
        "2853202225908"
      ],
      "transaction": {
        "from": "0xc77f7fed3b5cc8249adc428c5f44c9063b9734b4",
        "to": "0x8aafd3ede9adb0ff97c7aebce82a919afb1c8764",
        "gas": "0x15daa",
        "value": "0x0",
        "input": "0xe4849b3200000000000000000000000000000000000000000000000000000298501aeaf4",
        "nonce": "0x112b",
        "chainId": "0xaa36a7"
      },
      "additionalContracts": [],
      "isFixedGasLimit": false
    }
  ],
  "receipts": [
    {
      "status": "0x1",
      "cumulativeGasUsed": "0xb90273",
      "logs": [
        {
          "address": "0x8aafd3ede9adb0ff97c7aebce82a919afb1c8764",
          "topics": [
            "0xddf252ad1be2c89b69c2b068fc378daa952ba7f163c4a11628f55a4df523b3ef",
            "0x000000000000000000000000c77f7fed3b5cc8249adc428c5f44c9063b9734b4",
            "0x0000000000000000000000000000000000000000000000000000000000000000"
          ],
          "data": "0x00000000000000000000000000000000000000000000000000000292ff97a165",
          "blockHash": "0x522d5351f34ec5a96adce6bb62c9443c8f64112602fd9fabe3ff379bbdd8e77a",
          "blockNumber": "0x7317e2",
          "transactionHash": "0x3efa131e339b0b1e5e1255cfc6c68bfd297a8869a6e50ca1c0b4da6de4b8a764",
          "transactionIndex": "0x8c",
          "logIndex": "0xb8",
          "removed": false
        },
        {
          "address": "0x8aafd3ede9adb0ff97c7aebce82a919afb1c8764",
          "topics": [
            "0xddf252ad1be2c89b69c2b068fc378daa952ba7f163c4a11628f55a4df523b3ef",
            "0x000000000000000000000000c77f7fed3b5cc8249adc428c5f44c9063b9734b4",
            "0x000000000000000000000000c77f7fed3b5cc8249adc428c5f44c9063b9734b4"
          ],
          "data": "0x000000000000000000000000000000000000000000000000000000055083498f",
          "blockHash": "0x522d5351f34ec5a96adce6bb62c9443c8f64112602fd9fabe3ff379bbdd8e77a",
          "blockNumber": "0x7317e2",
          "transactionHash": "0x3efa131e339b0b1e5e1255cfc6c68bfd297a8869a6e50ca1c0b4da6de4b8a764",
          "transactionIndex": "0x8c",
          "logIndex": "0xb9",
          "removed": false
        },
        {
          "address": "0x8aafd3ede9adb0ff97c7aebce82a919afb1c8764",
          "topics": [
            "0x4afcb4a87cdbd9974efdb92ee48bc8d7cd0ae4bf217004db3d080cbaee652ca7"
          ],
          "data": "0x0000000000000000000000000000000000000000000000000000000067901b5c000000000000000000000000000000000000000000000000000511f8279d7e2000000000000000000000000000000000000000000000000000000000f2b438f5",
          "blockHash": "0x522d5351f34ec5a96adce6bb62c9443c8f64112602fd9fabe3ff379bbdd8e77a",
          "blockNumber": "0x7317e2",
          "transactionHash": "0x3efa131e339b0b1e5e1255cfc6c68bfd297a8869a6e50ca1c0b4da6de4b8a764",
          "transactionIndex": "0x8c",
          "logIndex": "0xba",
          "removed": false
        }
      ],
      "logsBloom": "0x00000000000000000000000000000000000000000600000000000000000000000000000000000000000000000000000000000000000000004000000000000000000000000000004000000008000000000000000000000000000000000000000000000000020000000000000000000800020000000000000000000010000000000000000000000000000000000000000000000000000000000000010000000000000000000000000000000000000000004000000000000000000000000000000000000002000000800000000000000000000000000000080000000000000020000000000000000000000000000000000000000000000000000000000000000000",
      "type": "0x2",
      "transactionHash": "0x3efa131e339b0b1e5e1255cfc6c68bfd297a8869a6e50ca1c0b4da6de4b8a764",
      "transactionIndex": "0x8c",
      "blockHash": "0x522d5351f34ec5a96adce6bb62c9443c8f64112602fd9fabe3ff379bbdd8e77a",
      "blockNumber": "0x7317e2",
      "gasUsed": "0xfd27",
      "effectiveGasPrice": "0x443f9747",
      "from": "0xc77f7fed3b5cc8249adc428c5f44c9063b9734b4",
      "to": "0x8aafd3ede9adb0ff97c7aebce82a919afb1c8764",
      "contractAddress": null
    }
  ],
  "libraries": [],
  "pending": [],
  "returns": {},
  "timestamp": 1737497437,
  "chain": 11155111,
  "commit": "1d2fb70"
}