{
  "transactions": [
    {
      "hash": "0x33decc85a7c1fdaafb6e66a1b55fef09abc2b9b2298ce2b6b93d68d8631e0488",
      "transactionType": "CALL",
      "contractName": null,
      "contractAddress": "0x270e88f8683660553e8ba4eb2ad7c91a1710d769",
      "function": "buy(address)",
      "arguments": [
        "0xC77f7fed3b5Cc8249aDc428c5F44C9063B9734b4"
      ],
      "transaction": {
        "from": "0xc77f7fed3b5cc8249adc428c5f44c9063b9734b4",
        "to": "0x270e88f8683660553e8ba4eb2ad7c91a1710d769",
        "gas": "0x1b30c",
        "value": "0xde0b6b3a7640000",
        "input": "0xf088d547000000000000000000000000c77f7fed3b5cc8249adc428c5f44c9063b9734b4",
        "nonce": "0x5f2",
        "chainId": "0xaa36a7"
      },
      "additionalContracts": [],
      "isFixedGasLimit": false
    }
  ],
  "receipts": [
    {
      "status": "0x1",
      "cumulativeGasUsed": "0xed04bc",
      "logs": [
        {
          "address": "0x270e88f8683660553e8ba4eb2ad7c91a1710d769",
          "topics": [
            "0xddf252ad1be2c89b69c2b068fc378daa952ba7f163c4a11628f55a4df523b3ef",
            "0x0000000000000000000000000000000000000000000000000000000000000000",
            "0x000000000000000000000000c77f7fed3b5cc8249adc428c5f44c9063b9734b4"
          ],
          "data": "0x0000000000000000000000000000000000000000000000334ed18c83bed19e29",
          "blockHash": "0xa40bae636613734b5dfc65aa95fb55dd13d9bf73ac00801ddb195951233f60a8",
          "blockNumber": "0x7252b8",
          "transactionHash": "0x33decc85a7c1fdaafb6e66a1b55fef09abc2b9b2298ce2b6b93d68d8631e0488",
          "transactionIndex": "0x86",
          "logIndex": "0xd4",
          "removed": false
        },
        {
          "address": "0x270e88f8683660553e8ba4eb2ad7c91a1710d769",
          "topics": [
            "0xddf252ad1be2c89b69c2b068fc378daa952ba7f163c4a11628f55a4df523b3ef",
            "0x0000000000000000000000000000000000000000000000000000000000000000",
            "0x000000000000000000000000c77f7fed3b5cc8249adc428c5f44c9063b9734b4"
          ],
          "data": "0x00000000000000000000000000000000000000000000000027d7a277319df038",
          "blockHash": "0xa40bae636613734b5dfc65aa95fb55dd13d9bf73ac00801ddb195951233f60a8",
          "blockNumber": "0x7252b8",
          "transactionHash": "0x33decc85a7c1fdaafb6e66a1b55fef09abc2b9b2298ce2b6b93d68d8631e0488",
          "transactionIndex": "0x86",
          "logIndex": "0xd5",
          "removed": false
        },
        {
          "address": "0x270e88f8683660553e8ba4eb2ad7c91a1710d769",
          "topics": [
            "0x4afcb4a87cdbd9974efdb92ee48bc8d7cd0ae4bf217004db3d080cbaee652ca7"
          ],
          "data": "0x000000000000000000000000000000000000000000000000000000006786d2a80000000000000000000000000000000000000000000000000003b76f667075550000000000000000000000000000000000000000000000000de0b6b3a7640000",
          "blockHash": "0xa40bae636613734b5dfc65aa95fb55dd13d9bf73ac00801ddb195951233f60a8",
          "blockNumber": "0x7252b8",
          "transactionHash": "0x33decc85a7c1fdaafb6e66a1b55fef09abc2b9b2298ce2b6b93d68d8631e0488",
          "transactionIndex": "0x86",
          "logIndex": "0xd6",
          "removed": false
        }
      ],
      "logsBloom": "0x00000000000000000000000000000000000000000000000000000000000000000000000000000000000000000000000020000000000000004000000000000000000000000000000000000008000000000000000000000000000000000000000000000000020000000000000000000800020000000000000000000010000000000000000000010000000000000000000000000000000000000000010000000000000000000000000000000000000000004000000000000000000000000000000000000002000000800000000000000000000000000000080000008000000020000000000000000000000000000000000000000000000000000000000000000000",
      "type": "0x2",
      "transactionHash": "0x33decc85a7c1fdaafb6e66a1b55fef09abc2b9b2298ce2b6b93d68d8631e0488",
      "transactionIndex": "0x86",
      "blockHash": "0xa40bae636613734b5dfc65aa95fb55dd13d9bf73ac00801ddb195951233f60a8",
      "blockNumber": "0x7252b8",
      "gasUsed": "0x13af8",
      "effectiveGasPrice": "0x2b5ff0f1d",
      "from": "0xc77f7fed3b5cc8249adc428c5f44c9063b9734b4",
      "to": "0x270e88f8683660553e8ba4eb2ad7c91a1710d769",
      "contractAddress": null
    }
  ],
  "libraries": [],
  "pending": [],
  "returns": {},
  "timestamp": 1736889002,
  "chain": 11155111,
  "commit": "51a374b"
}