{
  "transactions": [
    {
      "hash": "0xf79df237d98363086d219d24996360bb8713054260dd727bffe170d0e186ee6f",
      "transactionType": "CALL",
      "contractName": null,
      "contractAddress": "0x8aafd3ede9adb0ff97c7aebce82a919afb1c8764",
      "function": "sell(uint256)",
      "arguments": [
        "5468491944556017136"
      ],
      "transaction": {
        "from": "0xc77f7fed3b5cc8249adc428c5f44c9063b9734b4",
        "to": "0x8aafd3ede9adb0ff97c7aebce82a919afb1c8764",
        "gas": "0x15dca",
        "value": "0x0",
        "input": "0xe4849b320000000000000000000000000000000000000000000000004be3fc734458b5f0",
        "nonce": "0x11d2",
        "chainId": "0xaa36a7"
      },
      "additionalContracts": [],
      "isFixedGasLimit": false
    }
  ],
  "receipts": [
    {
      "status": "0x1",
      "cumulativeGasUsed": "0xd508e7",
      "logs": [
        {
          "address": "0x8aafd3ede9adb0ff97c7aebce82a919afb1c8764",
          "topics": [
            "0xddf252ad1be2c89b69c2b068fc378daa952ba7f163c4a11628f55a4df523b3ef",
            "0x000000000000000000000000c77f7fed3b5cc8249adc428c5f44c9063b9734b4",
            "0x0000000000000000000000000000000000000000000000000000000000000000"
          ],
          "data": "0x0000000000000000000000000000000000000000000000004b488fef45d90667",
          "blockHash": "0x7880dc43a93df82a1c22eb531c4a8437d252ef664640b814f7e8e09300724674",
          "blockNumber": "0x7318a7",
          "transactionHash": "0xf79df237d98363086d219d24996360bb8713054260dd727bffe170d0e186ee6f",
          "transactionIndex": "0x87",
          "logIndex": "0x95",
          "removed": false
        },
        {
          "address": "0x8aafd3ede9adb0ff97c7aebce82a919afb1c8764",
          "topics": [
            "0xddf252ad1be2c89b69c2b068fc378daa952ba7f163c4a11628f55a4df523b3ef",
            "0x000000000000000000000000c77f7fed3b5cc8249adc428c5f44c9063b9734b4",
            "0x000000000000000000000000c77f7fed3b5cc8249adc428c5f44c9063b9734b4"
          ],
          "data": "0x000000000000000000000000000000000000000000000000009b6c83fe7faf89",
          "blockHash": "0x7880dc43a93df82a1c22eb531c4a8437d252ef664640b814f7e8e09300724674",
          "blockNumber": "0x7318a7",
          "transactionHash": "0xf79df237d98363086d219d24996360bb8713054260dd727bffe170d0e186ee6f",
          "transactionIndex": "0x87",
          "logIndex": "0x96",
          "removed": false
        },
        {
          "address": "0x8aafd3ede9adb0ff97c7aebce82a919afb1c8764",
          "topics": [
            "0x4afcb4a87cdbd9974efdb92ee48bc8d7cd0ae4bf217004db3d080cbaee652ca7"
          ],
          "data": "0x00000000000000000000000000000000000000000000000000000000679024a400000000000000000000000000000000000000000000000000052aaab518a444000000000000000000000000000000000000000000000000001c40f293c9618f",
          "blockHash": "0x7880dc43a93df82a1c22eb531c4a8437d252ef664640b814f7e8e09300724674",
          "blockNumber": "0x7318a7",
          "transactionHash": "0xf79df237d98363086d219d24996360bb8713054260dd727bffe170d0e186ee6f",
          "transactionIndex": "0x87",
          "logIndex": "0x97",
          "removed": false
        }
      ],
      "logsBloom": "0x00000000000000000000000000000000000000000600000000000000000000000000000000000000000000000000000000000000000000004000000000000000000000000000004000000008000000000000000000000000000000000000000000000000020000000000000000000800020000000000000000000010000000000000000000000000000000000000000000000000000000000000010000000000000000000000000000000000000000004000000000000000000000000000000000000002000000800000000000000000000000000000080000000000000020000000000000000000000000000000000000000000000000000000000000000000",
      "type": "0x2",
      "transactionHash": "0xf79df237d98363086d219d24996360bb8713054260dd727bffe170d0e186ee6f",
      "transactionIndex": "0x87",
      "blockHash": "0x7880dc43a93df82a1c22eb531c4a8437d252ef664640b814f7e8e09300724674",
      "blockNumber": "0x7318a7",
      "gasUsed": "0xfd3f",
      "effectiveGasPrice": "0x3b658649",
      "from": "0xc77f7fed3b5cc8249adc428c5f44c9063b9734b4",
      "to": "0x8aafd3ede9adb0ff97c7aebce82a919afb1c8764",
      "contractAddress": null
    }
  ],
  "libraries": [],
  "pending": [],
  "returns": {},
  "timestamp": 1737499812,
  "chain": 11155111,
  "commit": "1d2fb70"
}