{
  "transactions": [
    {
      "hash": "0xc167e04a63ceac72bf0b2bf00f1deeac5896e8723e49a9d9c2fc69a1694882f9",
      "transactionType": "CALL",
      "contractName": null,
      "contractAddress": "0x5eb9cc76c3506942c1c0ead70e877dd5e4f00cb0",
      "function": "sell(uint256)",
      "arguments": [
        "989092668878622137274"
      ],
      "transaction": {
        "from": "0xc77f7fed3b5cc8249adc428c5f44c9063b9734b4",
        "to": "0x5eb9cc76c3506942c1c0ead70e877dd5e4f00cb0",
        "gas": "0x16fec",
        "value": "0x0",
        "input": "0xe4849b320000000000000000000000000000000000000000000000359e6b0de855559bba",
        "nonce": "0x42f",
        "chainId": "0xaa36a7"
      },
      "additionalContracts": [],
      "isFixedGasLimit": false
    }
  ],
  "receipts": [
    {
      "status": "0x1",
      "cumulativeGasUsed": "0x95712c",
      "logs": [
        {
          "address": "0x5eb9cc76c3506942c1c0ead70e877dd5e4f00cb0",
          "topics": [
            "0xddf252ad1be2c89b69c2b068fc378daa952ba7f163c4a11628f55a4df523b3ef",
            "0x000000000000000000000000c77f7fed3b5cc8249adc428c5f44c9063b9734b4",
            "0x0000000000000000000000000000000000000000000000000000000000000000"
          ],
          "data": "0x0000000000000000000000000000000000000000000000359e6b0de855559bba",
          "blockHash": "0x5f11f201af35972871bbb551d9b7ad428a0daa5db37b7b0649c7d9ba6b903185",
          "blockNumber": "0x725046",
          "transactionHash": "0xc167e04a63ceac72bf0b2bf00f1deeac5896e8723e49a9d9c2fc69a1694882f9",
          "transactionIndex": "0x55",
          "logIndex": "0x86",
          "removed": false
        },
        {
          "address": "0x5eb9cc76c3506942c1c0ead70e877dd5e4f00cb0",
          "topics": [
            "0x4afcb4a87cdbd9974efdb92ee48bc8d7cd0ae4bf217004db3d080cbaee652ca7"
          ],
          "data": "0x000000000000000000000000000000000000000000000000000000006786b51400000000000000000000000000000000000000000000000000039117346251960000000000000000000000000000000000000000000000000dc7db1331da674c",
          "blockHash": "0x5f11f201af35972871bbb551d9b7ad428a0daa5db37b7b0649c7d9ba6b903185",
          "blockNumber": "0x725046",
          "transactionHash": "0xc167e04a63ceac72bf0b2bf00f1deeac5896e8723e49a9d9c2fc69a1694882f9",
          "transactionIndex": "0x55",
          "logIndex": "0x87",
          "removed": false
        }
      ],
      "logsBloom": "0x00000000000000000000000000000000000000000000000000000000000000000000000000000000000000000000000000000000000000004000000000000000000000000000000000000008000000000000000000000000000000000000000000000000020000000000000004000800020000000000000000000010000000000000000000000000000000000000000000000000000000000000010000000000000000000000000000000000000000004000000000000000000000000000020000000002000000800000008000000000000000000000080000000000000020000000000000000000000000000000000000000000000000000000000000000000",
      "type": "0x2",
      "transactionHash": "0xc167e04a63ceac72bf0b2bf00f1deeac5896e8723e49a9d9c2fc69a1694882f9",
      "transactionIndex": "0x55",
      "blockHash": "0x5f11f201af35972871bbb551d9b7ad428a0daa5db37b7b0649c7d9ba6b903185",
      "blockNumber": "0x725046",
      "gasUsed": "0xfb93",
      "effectiveGasPrice": "0x27e0a9de8",
      "from": "0xc77f7fed3b5cc8249adc428c5f44c9063b9734b4",
      "to": "0x5eb9cc76c3506942c1c0ead70e877dd5e4f00cb0",
      "contractAddress": null
    }
  ],
  "libraries": [],
  "pending": [],
  "returns": {},
  "timestamp": 1736881431,
  "chain": 11155111,
  "commit": "51a374b"
}