{
  "transactions": [
    {
      "hash": "0x9bb222f05eb8dffdbc16e6a57e72a17b5f15e849d3a472df28a122a13f39d37b",
      "transactionType": "CALL",
      "contractName": null,
      "contractAddress": "0x5eb9cc76c3506942c1c0ead70e877dd5e4f00cb0",
      "function": "sell(uint256)",
      "arguments": [
        "989089163169558967266"
      ],
      "transaction": {
        "from": "0xc77f7fed3b5cc8249adc428c5f44c9063b9734b4",
        "to": "0x5eb9cc76c3506942c1c0ead70e877dd5e4f00cb0",
        "gas": "0x16fec",
        "value": "0x0",
        "input": "0xe4849b320000000000000000000000000000000000000000000000359e5e997bd5f033e2",
        "nonce": "0x445",
        "chainId": "0xaa36a7"
      },
      "additionalContracts": [],
      "isFixedGasLimit": false
    }
  ],
  "receipts": [
    {
      "status": "0x1",
      "cumulativeGasUsed": "0xe930f0",
      "logs": [
        {
          "address": "0x5eb9cc76c3506942c1c0ead70e877dd5e4f00cb0",
          "topics": [
            "0xddf252ad1be2c89b69c2b068fc378daa952ba7f163c4a11628f55a4df523b3ef",
            "0x000000000000000000000000c77f7fed3b5cc8249adc428c5f44c9063b9734b4",
            "0x0000000000000000000000000000000000000000000000000000000000000000"
          ],
          "data": "0x0000000000000000000000000000000000000000000000359e5e997bd5f033e2",
          "blockHash": "0xc399b1e9875ba6ef3cc60f4b65e9824b6be83c557f4d81267c2870773b29ac2a",
          "blockNumber": "0x725064",
          "transactionHash": "0x9bb222f05eb8dffdbc16e6a57e72a17b5f15e849d3a472df28a122a13f39d37b",
          "transactionIndex": "0x5c",
          "logIndex": "0x73",
          "removed": false
        },
        {
          "address": "0x5eb9cc76c3506942c1c0ead70e877dd5e4f00cb0",
          "topics": [
            "0x4afcb4a87cdbd9974efdb92ee48bc8d7cd0ae4bf217004db3d080cbaee652ca7"
          ],
          "data": "0x000000000000000000000000000000000000000000000000000000006786b67c00000000000000000000000000000000000000000000000000039118087b194d0000000000000000000000000000000000000000000000000dc7db1331d42a62",
          "blockHash": "0xc399b1e9875ba6ef3cc60f4b65e9824b6be83c557f4d81267c2870773b29ac2a",
          "blockNumber": "0x725064",
          "transactionHash": "0x9bb222f05eb8dffdbc16e6a57e72a17b5f15e849d3a472df28a122a13f39d37b",
          "transactionIndex": "0x5c",
          "logIndex": "0x74",
          "removed": false
        }
      ],
      "logsBloom": "0x00000000000000000000000000000000000000000000000000000000000000000000000000000000000000000000000000000000000000004000000000000000000000000000000000000008000000000000000000000000000000000000000000000000020000000000000004000800020000000000000000000010000000000000000000000000000000000000000000000000000000000000010000000000000000000000000000000000000000004000000000000000000000000000020000000002000000800000008000000000000000000000080000000000000020000000000000000000000000000000000000000000000000000000000000000000",
      "type": "0x2",
      "transactionHash": "0x9bb222f05eb8dffdbc16e6a57e72a17b5f15e849d3a472df28a122a13f39d37b",
      "transactionIndex": "0x5c",
      "blockHash": "0xc399b1e9875ba6ef3cc60f4b65e9824b6be83c557f4d81267c2870773b29ac2a",
      "blockNumber": "0x725064",
      "gasUsed": "0xfb93",
      "effectiveGasPrice": "0x264d32220",
      "from": "0xc77f7fed3b5cc8249adc428c5f44c9063b9734b4",
      "to": "0x5eb9cc76c3506942c1c0ead70e877dd5e4f00cb0",
      "contractAddress": null
    }
  ],
  "libraries": [],
  "pending": [],
  "returns": {},
  "timestamp": 1736881789,
  "chain": 11155111,
  "commit": "51a374b"
}