{
  "transactions": [
    {
      "hash": "0xe0a1e622d67024887bca107a41bc716d8b2d2407ec7f1d687422c778f6ac0af0",
      "transactionType": "CALL",
      "contractName": null,
      "contractAddress": "0x5eb9cc76c3506942c1c0ead70e877dd5e4f00cb0",
      "function": "sell(uint256)",
      "arguments": [
        "989617611316909914341"
      ],
      "transaction": {
        "from": "0xc77f7fed3b5cc8249adc428c5f44c9063b9734b4",
        "to": "0x5eb9cc76c3506942c1c0ead70e877dd5e4f00cb0",
        "gas": "0x16fec",
        "value": "0x0",
        "input": "0xe4849b32000000000000000000000000000000000000000000000035a5b406461f0138e5",
        "nonce": "0x23f",
        "chainId": "0xaa36a7"
      },
      "additionalContracts": [],
      "isFixedGasLimit": false
    }
  ],
  "receipts": [
    {
      "status": "0x1",
      "cumulativeGasUsed": "0xe691bc",
      "logs": [
        {
          "address": "0x5eb9cc76c3506942c1c0ead70e877dd5e4f00cb0",
          "topics": [
            "0xddf252ad1be2c89b69c2b068fc378daa952ba7f163c4a11628f55a4df523b3ef",
            "0x000000000000000000000000c77f7fed3b5cc8249adc428c5f44c9063b9734b4",
            "0x0000000000000000000000000000000000000000000000000000000000000000"
          ],
          "data": "0x000000000000000000000000000000000000000000000035a5b406461f0138e5",
          "blockHash": "0xe9ef27af62d772b4d4bcf04d8a09dfda430555555ae3b68455f75b4e7a39e8bd",
          "blockNumber": "0x724df6",
          "transactionHash": "0xe0a1e622d67024887bca107a41bc716d8b2d2407ec7f1d687422c778f6ac0af0",
          "transactionIndex": "0x7e",
          "logIndex": "0xd4",
          "removed": false
        },
        {
          "address": "0x5eb9cc76c3506942c1c0ead70e877dd5e4f00cb0",
          "topics": [
            "0x4afcb4a87cdbd9974efdb92ee48bc8d7cd0ae4bf217004db3d080cbaee652ca7"
          ],
          "data": "0x000000000000000000000000000000000000000000000000000000006786993c0000000000000000000000000000000000000000000000000003909b34e64f570000000000000000000000000000000000000000000000000dc7db11837f27cb",
          "blockHash": "0xe9ef27af62d772b4d4bcf04d8a09dfda430555555ae3b68455f75b4e7a39e8bd",
          "blockNumber": "0x724df6",
          "transactionHash": "0xe0a1e622d67024887bca107a41bc716d8b2d2407ec7f1d687422c778f6ac0af0",
          "transactionIndex": "0x7e",
          "logIndex": "0xd5",
          "removed": false
        }
      ],
      "logsBloom": "0x00000000000000000000000000000000000000000000000000000000000000000000000000000000000000000000000000000000000000004000000000000000000000000000000000000008000000000000000000000000000000000000000000000000020000000000000004000800020000000000000000000010000000000000000000000000000000000000000000000000000000000000010000000000000000000000000000000000000000004000000000000000000000000000020000000002000000800000008000000000000000000000080000000000000020000000000000000000000000000000000000000000000000000000000000000000",
      "type": "0x2",
      "transactionHash": "0xe0a1e622d67024887bca107a41bc716d8b2d2407ec7f1d687422c778f6ac0af0",
      "transactionIndex": "0x7e",
      "blockHash": "0xe9ef27af62d772b4d4bcf04d8a09dfda430555555ae3b68455f75b4e7a39e8bd",
      "blockNumber": "0x724df6",
      "gasUsed": "0xfb93",
      "effectiveGasPrice": "0x397c04b6f",
      "from": "0xc77f7fed3b5cc8249adc428c5f44c9063b9734b4",
      "to": "0x5eb9cc76c3506942c1c0ead70e877dd5e4f00cb0",
      "contractAddress": null
    }
  ],
  "libraries": [],
  "pending": [],
  "returns": {},
  "timestamp": 1736874301,
  "chain": 11155111,
  "commit": "51a374b"
}