{
  "transactions": [
    {
      "hash": "0xea5a0dc16ae2c7e0061e7356b0960d792d047baa61eb7f0f397028f9d68b7150",
      "transactionType": "CALL",
      "contractName": null,
      "contractAddress": "0xbf4a322f1496e5c3d34a9bcdb4c60567b38c7de2",
      "function": "buy(address)",
      "arguments": [
        "0xC77f7fed3b5Cc8249aDc428c5F44C9063B9734b4"
      ],
      "transaction": {
        "from": "0xc77f7fed3b5cc8249adc428c5f44c9063b9734b4",
        "to": "0xbf4a322f1496e5c3d34a9bcdb4c60567b38c7de2",
        "gas": "0x1b309",
        "value": "0xde0b6b3a7640000",
        "input": "0xf088d547000000000000000000000000c77f7fed3b5cc8249adc428c5f44c9063b9734b4",
        "nonce": "0x90a",
        "chainId": "0xaa36a7"
      },
      "additionalContracts": [],
      "isFixedGasLimit": false
    }
  ],
  "receipts": [
    {
      "status": "0x1",
      "cumulativeGasUsed": "0x19e3df1",
      "logs": [
        {
          "address": "0xbf4a322f1496e5c3d34a9bcdb4c60567b38c7de2",
          "topics": [
            "0xddf252ad1be2c89b69c2b068fc378daa952ba7f163c4a11628f55a4df523b3ef",
            "0x0000000000000000000000000000000000000000000000000000000000000000",
            "0x000000000000000000000000c77f7fed3b5cc8249adc428c5f44c9063b9734b4"
          ],
          "data": "0x00000000000000000000000000000000000000000000003589bee6792f1ffb3c",
          "blockHash": "0xddd82ccd66c18fb130100767849abfa200d3706a7c88a88c5185c29db6879b36",
          "blockNumber": "0x725885",
          "transactionHash": "0xea5a0dc16ae2c7e0061e7356b0960d792d047baa61eb7f0f397028f9d68b7150",
          "transactionIndex": "0x61",
          "logIndex": "0xd3",
          "removed": false
        },
        {
          "address": "0xbf4a322f1496e5c3d34a9bcdb4c60567b38c7de2",
          "topics": [
            "0xddf252ad1be2c89b69c2b068fc378daa952ba7f163c4a11628f55a4df523b3ef",
            "0x0000000000000000000000000000000000000000000000000000000000000000",
            "0x000000000000000000000000c77f7fed3b5cc8249adc428c5f44c9063b9734b4"
          ],
          "data": "0x0000000000000000000000000000000000000000000000002992faa26631ef5a",
          "blockHash": "0xddd82ccd66c18fb130100767849abfa200d3706a7c88a88c5185c29db6879b36",
          "blockNumber": "0x725885",
          "transactionHash": "0xea5a0dc16ae2c7e0061e7356b0960d792d047baa61eb7f0f397028f9d68b7150",
          "transactionIndex": "0x61",
          "logIndex": "0xd4",
          "removed": false
        },
        {
          "address": "0xbf4a322f1496e5c3d34a9bcdb4c60567b38c7de2",
          "topics": [
            "0x4afcb4a87cdbd9974efdb92ee48bc8d7cd0ae4bf217004db3d080cbaee652ca7"
          ],
          "data": "0x000000000000000000000000000000000000000000000000000000006787186800000000000000000000000000000000000000000000000000038fb60ef00a390000000000000000000000000000000000000000000000000de0b6b3a7640000",
          "blockHash": "0xddd82ccd66c18fb130100767849abfa200d3706a7c88a88c5185c29db6879b36",
          "blockNumber": "0x725885",
          "transactionHash": "0xea5a0dc16ae2c7e0061e7356b0960d792d047baa61eb7f0f397028f9d68b7150",
          "transactionIndex": "0x61",
          "logIndex": "0xd5",
          "removed": false
        }
      ],
      "logsBloom": "0x00000000000000000000000000000000000000000000000000000000000000000000000000000000000000000000000000000000000000004000000000000000000000000000000000000008000000000000001000000000000000000000000000000000020000000000000000000800020000000000000000000010000000000000000000000000000000000000000000000000000008000000010000000000000000000000000000000000000000004000000000000000000000000000000000000002000000800000000000001000000000000000080000000000000020000000000000000000000000000000000000000000000000000000000000000000",
      "type": "0x2",
      "transactionHash": "0xea5a0dc16ae2c7e0061e7356b0960d792d047baa61eb7f0f397028f9d68b7150",
      "transactionIndex": "0x61",
      "blockHash": "0xddd82ccd66c18fb130100767849abfa200d3706a7c88a88c5185c29db6879b36",
      "blockNumber": "0x725885",
      "gasUsed": "0x13af6",
      "effectiveGasPrice": "0x3204172c",
      "from": "0xc77f7fed3b5cc8249adc428c5f44c9063b9734b4",
      "to": "0xbf4a322f1496e5c3d34a9bcdb4c60567b38c7de2",
      "contractAddress": null
    }
  ],
  "libraries": [],
  "pending": [],
  "returns": {},
  "timestamp": 1736906859,
  "chain": 11155111,
  "commit": "51a374b"
}