{
  "transactions": [
    {
      "hash": "0xf83cc343d286bb34fb172e1c595aab335e86df345fdb93e4f15d01fd97d71f39",
      "transactionType": "CALL",
      "contractName": null,
      "contractAddress": "0xbf4a322f1496e5c3d34a9bcdb4c60567b38c7de2",
      "function": "sell(uint256)",
      "arguments": [
        "981923043333344854136"
      ],
      "transaction": {
        "from": "0xc77f7fed3b5cc8249adc428c5f44c9063b9734b4",
        "to": "0xbf4a322f1496e5c3d34a9bcdb4c60567b38c7de2",
        "gas": "0x15b68",
        "value": "0x0",
        "input": "0xe4849b320000000000000000000000000000000000000000000000353aeb6d75de840078",
        "nonce": "0xb89",
        "chainId": "0xaa36a7"
      },
      "additionalContracts": [],
      "isFixedGasLimit": false
    }
  ],
  "receipts": [
    {
      "status": "0x1",
      "cumulativeGasUsed": "0x1333ed0",
      "logs": [
        {
          "address": "0xbf4a322f1496e5c3d34a9bcdb4c60567b38c7de2",
          "topics": [
            "0xddf252ad1be2c89b69c2b068fc378daa952ba7f163c4a11628f55a4df523b3ef",
            "0x000000000000000000000000c77f7fed3b5cc8249adc428c5f44c9063b9734b4",
            "0x0000000000000000000000000000000000000000000000000000000000000000"
          ],
          "data": "0x0000000000000000000000000000000000000000000000353aeb6d75de840078",
          "blockHash": "0x2854570b3012609936fefd6e5fe3aa77d91799e04a22481b3d7541ea918f62fd",
          "blockNumber": "0x725b98",
          "transactionHash": "0xf83cc343d286bb34fb172e1c595aab335e86df345fdb93e4f15d01fd97d71f39",
          "transactionIndex": "0x6d",
          "logIndex": "0x9a",
          "removed": false
        },
        {
          "address": "0xbf4a322f1496e5c3d34a9bcdb4c60567b38c7de2",
          "topics": [
            "0x4afcb4a87cdbd9974efdb92ee48bc8d7cd0ae4bf217004db3d080cbaee652ca7"
          ],
          "data": "0x0000000000000000000000000000000000000000000000000000000067873d7c000000000000000000000000000000000000000000000000000397c85ad9f2000000000000000000000000000000000000000000000000000dc7e3e68995f69c",
          "blockHash": "0x2854570b3012609936fefd6e5fe3aa77d91799e04a22481b3d7541ea918f62fd",
          "blockNumber": "0x725b98",
          "transactionHash": "0xf83cc343d286bb34fb172e1c595aab335e86df345fdb93e4f15d01fd97d71f39",
          "transactionIndex": "0x6d",
          "logIndex": "0x9b",
          "removed": false
        }
      ],
      "logsBloom": "0x00000000000000000000000000000000000000000000000000000000000000000000000000000000000000000000000000000000000000004000000000000000000000000000000000000008000000000000001000000000000000000000000000000000020000000000000000000800020000000000000000000010000000000000000000000000000000000000000000000000000008000000010000000000000000000000000000000000000000004000000000000000000000000000000000000002000000800000000000001000000000000000080000000000000020000000000000000000000000000000000000000000000000000000000000000000",
      "type": "0x2",
      "transactionHash": "0xf83cc343d286bb34fb172e1c595aab335e86df345fdb93e4f15d01fd97d71f39",
      "transactionIndex": "0x6d",
      "blockHash": "0x2854570b3012609936fefd6e5fe3aa77d91799e04a22481b3d7541ea918f62fd",
      "blockNumber": "0x725b98",
      "gasUsed": "0xfb85",
      "effectiveGasPrice": "0x4316c6e1",
      "from": "0xc77f7fed3b5cc8249adc428c5f44c9063b9734b4",
      "to": "0xbf4a322f1496e5c3d34a9bcdb4c60567b38c7de2",
      "contractAddress": null
    }
  ],
  "libraries": [],
  "pending": [],
  "returns": {},
  "timestamp": 1736916350,
  "chain": 11155111,
  "commit": "51a374b"
}