{
  "transactions": [
    {
      "hash": "0xf521d960532b4d735c1cdd37bc9ac2d814ba4c5f021639c5d46e9710f1dae273",
      "transactionType": "CALL",
      "contractName": null,
      "contractAddress": "0xbf4a322f1496e5c3d34a9bcdb4c60567b38c7de2",
      "function": "sell(uint256)",
      "arguments": [
        "984490803376296332993"
      ],
      "transaction": {
        "from": "0xc77f7fed3b5cc8249adc428c5f44c9063b9734b4",
        "to": "0xbf4a322f1496e5c3d34a9bcdb4c60567b38c7de2",
        "gas": "0x16fea",
        "value": "0x0",
        "input": "0xe4849b320000000000000000000000000000000000000000000000355e8df19d6b148ec1",
        "nonce": "0xacb",
        "chainId": "0xaa36a7"
      },
      "additionalContracts": [],
      "isFixedGasLimit": false
    }
  ],
  "receipts": [
    {
      "status": "0x1",
      "cumulativeGasUsed": "0x10e322d",
      "logs": [
        {
          "address": "0xbf4a322f1496e5c3d34a9bcdb4c60567b38c7de2",
          "topics": [
            "0xddf252ad1be2c89b69c2b068fc378daa952ba7f163c4a11628f55a4df523b3ef",
            "0x000000000000000000000000c77f7fed3b5cc8249adc428c5f44c9063b9734b4",
            "0x0000000000000000000000000000000000000000000000000000000000000000"
          ],
          "data": "0x0000000000000000000000000000000000000000000000355e8df19d6b148ec1",
          "blockHash": "0x638945a496cbfbb6218afe9106c32841a3f507f1bc380f4968454d53c724fcd4",
          "blockNumber": "0x725abb",
          "transactionHash": "0xf521d960532b4d735c1cdd37bc9ac2d814ba4c5f021639c5d46e9710f1dae273",
          "transactionIndex": "0x9b",
          "logIndex": "0x10f",
          "removed": false
        },
        {
          "address": "0xbf4a322f1496e5c3d34a9bcdb4c60567b38c7de2",
          "topics": [
            "0x4afcb4a87cdbd9974efdb92ee48bc8d7cd0ae4bf217004db3d080cbaee652ca7"
          ],
          "data": "0x0000000000000000000000000000000000000000000000000000000067873314000000000000000000000000000000000000000000000000000395623b1f68be0000000000000000000000000000000000000000000000000dc7e3ec81ec6700",
          "blockHash": "0x638945a496cbfbb6218afe9106c32841a3f507f1bc380f4968454d53c724fcd4",
          "blockNumber": "0x725abb",
          "transactionHash": "0xf521d960532b4d735c1cdd37bc9ac2d814ba4c5f021639c5d46e9710f1dae273",
          "transactionIndex": "0x9b",
          "logIndex": "0x110",
          "removed": false
        }
      ],
      "logsBloom": "0x00000000000000000000000000000000000000000000000000000000000000000000000000000000000000000000000000000000000000004000000000000000000000000000000000000008000000000000001000000000000000000000000000000000020000000000000000000800020000000000000000000010000000000000000000000000000000000000000000000000000008000000010000000000000000000000000000000000000000004000000000000000000000000000000000000002000000800000000000001000000000000000080000000000000020000000000000000000000000000000000000000000000000000000000000000000",
      "type": "0x2",
      "transactionHash": "0xf521d960532b4d735c1cdd37bc9ac2d814ba4c5f021639c5d46e9710f1dae273",
      "transactionIndex": "0x9b",
      "blockHash": "0x638945a496cbfbb6218afe9106c32841a3f507f1bc380f4968454d53c724fcd4",
      "blockNumber": "0x725abb",
      "gasUsed": "0xfb91",
      "effectiveGasPrice": "0xdf17407d",
      "from": "0xc77f7fed3b5cc8249adc428c5f44c9063b9734b4",
      "to": "0xbf4a322f1496e5c3d34a9bcdb4c60567b38c7de2",
      "contractAddress": null
    }
  ],
  "libraries": [],
  "pending": [],
  "returns": {},
  "timestamp": 1736913686,
  "chain": 11155111,
  "commit": "51a374b"
}