{
  "transactions": [
    {
      "hash": "0xe2dbd4a00a032dbc4e2c64ef3dccc607e43e6bfb36984b434773537ab03f214d",
      "transactionType": "CALL",
      "contractName": null,
      "contractAddress": "0x9a940ef65f8bf33332aa4faea921454828f0c80a",
      "function": "buy(address)",
      "arguments": [
        "0xF66076775AD1f36dd12C1f1b10C21d1aadf0D6dE"
      ],
      "transaction": {
        "from": "0xf66076775ad1f36dd12c1f1b10c21d1aadf0d6de",
        "to": "0x9a940ef65f8bf33332aa4faea921454828f0c80a",
        "gas": "0x14787",
        "value": "0x2386f26fc10000",
        "input": "0xf088d547000000000000000000000000f66076775ad1f36dd12c1f1b10c21d1aadf0d6de",
        "nonce": "0x71",
        "chainId": "0xaa36a7"
      },
      "additionalContracts": [],
      "isFixedGasLimit": false
    }
  ],
  "receipts": [
    {
      "status": "0x1",
      "cumulativeGasUsed": "0x83fbf0",
      "logs": [
        {
          "address": "0x9a940ef65f8bf33332aa4faea921454828f0c80a",
          "topics": [
            "0xddf252ad1be2c89b69c2b068fc378daa952ba7f163c4a11628f55a4df523b3ef",
            "0x0000000000000000000000000000000000000000000000000000000000000000",
            "0x000000000000000000000000f66076775ad1f36dd12c1f1b10c21d1aadf0d6de"
          ],
          "data": "0x0000000000000000000000000000000000000000000000003dfbe5936365d48b",
          "blockHash": "0x674bcf544fae5793401c800bf9e7c6d1dbddbc330602c3e67bd649b3d85f7598",
          "blockNumber": "0x73d4da",
          "transactionHash": "0xe2dbd4a00a032dbc4e2c64ef3dccc607e43e6bfb36984b434773537ab03f214d",
          "transactionIndex": "0x55",
          "logIndex": "0x77",
          "removed": false
        },
        {
          "address": "0x9a940ef65f8bf33332aa4faea921454828f0c80a",
          "topics": [
            "0x4afcb4a87cdbd9974efdb92ee48bc8d7cd0ae4bf217004db3d080cbaee652ca7"
          ],
          "data": "0x0000000000000000000000000000000000000000000000000000000067993db80000000000000000000000000000000000000000000000000007e01e181c745a000000000000000000000000000000000000000000000000002386f26fc10000",
          "blockHash": "0x674bcf544fae5793401c800bf9e7c6d1dbddbc330602c3e67bd649b3d85f7598",
          "blockNumber": "0x73d4da",
          "transactionHash": "0xe2dbd4a00a032dbc4e2c64ef3dccc607e43e6bfb36984b434773537ab03f214d",
          "transactionIndex": "0x55",
          "logIndex": "0x78",
          "removed": false
        }
      ],
      "logsBloom": "0x80000000000000040000000000000000000000000000000000000000000000000000000000000000000000000000000000000000000000004000000000000000000000000000000000000008000000000000000000000000000000000000000000000000020000000000800000000800220000000000000000000010000000000000000000000000000000000000000000000000000000000000000000000000000000000000000000000000000000004000000000000000000000000000000000000002000000000000000000000000000000000000000000000020000020000000000000000000000000200000000000000000000000000000000000000000",
      "type": "0x2",
      "transactionHash": "0xe2dbd4a00a032dbc4e2c64ef3dccc607e43e6bfb36984b434773537ab03f214d",
      "transactionIndex": "0x55",
      "blockHash": "0x674bcf544fae5793401c800bf9e7c6d1dbddbc330602c3e67bd649b3d85f7598",
      "blockNumber": "0x73d4da",
      "gasUsed": "0xed20",
      "effectiveGasPrice": "0x3d6f7f94",
      "from": "0xf66076775ad1f36dd12c1f1b10c21d1aadf0d6de",
      "to": "0x9a940ef65f8bf33332aa4faea921454828f0c80a",
      "contractAddress": null
    }
  ],
  "libraries": [],
  "pending": [],
  "returns": {},
  "timestamp": 1738096056,
  "chain": 11155111,
  "commit": "b9c1499"
}