{
  "transactions": [
    {
      "hash": "0x28a521fc09ca92b2280462f0b009f2cf25d709bb7b6c2c79d3d71e6a1352abf6",
      "transactionType": "CALL",
      "contractName": null,
      "contractAddress": "0x8aafd3ede9adb0ff97c7aebce82a919afb1c8764",
      "function": "sell(uint256)",
      "arguments": [
        "129897313704440"
      ],
      "transaction": {
        "from": "0xc77f7fed3b5cc8249adc428c5f44c9063b9734b4",
        "to": "0x8aafd3ede9adb0ff97c7aebce82a919afb1c8764",
        "gas": "0x15daa",
        "value": "0x0",
        "input": "0xe4849b3200000000000000000000000000000000000000000000000000007624133d99f8",
        "nonce": "0x13f4",
        "chainId": "0xaa36a7"
      },
      "additionalContracts": [],
      "isFixedGasLimit": false
    }
  ],
  "receipts": [
    {
      "status": "0x1",
      "cumulativeGasUsed": "0x149939b",
      "logs": [
        {
          "address": "0x8aafd3ede9adb0ff97c7aebce82a919afb1c8764",
          "topics": [
            "0xddf252ad1be2c89b69c2b068fc378daa952ba7f163c4a11628f55a4df523b3ef",
            "0x000000000000000000000000c77f7fed3b5cc8249adc428c5f44c9063b9734b4",
            "0x0000000000000000000000000000000000000000000000000000000000000000"
          ],
          "data": "0x000000000000000000000000000000000000000000000000000075321f5fecb5",
          "blockHash": "0x77448edeca65478630e3a27b86657931e7aae3adf423c952ccf551f285ecd3e2",
          "blockNumber": "0x731b26",
          "transactionHash": "0x28a521fc09ca92b2280462f0b009f2cf25d709bb7b6c2c79d3d71e6a1352abf6",
          "transactionIndex": "0xb2",
          "logIndex": "0xea",
          "removed": false
        },
        {
          "address": "0x8aafd3ede9adb0ff97c7aebce82a919afb1c8764",
          "topics": [
            "0xddf252ad1be2c89b69c2b068fc378daa952ba7f163c4a11628f55a4df523b3ef",
            "0x000000000000000000000000c77f7fed3b5cc8249adc428c5f44c9063b9734b4",
            "0x000000000000000000000000c77f7fed3b5cc8249adc428c5f44c9063b9734b4"
          ],
          "data": "0x000000000000000000000000000000000000000000000000000000f1f3ddad43",
          "blockHash": "0x77448edeca65478630e3a27b86657931e7aae3adf423c952ccf551f285ecd3e2",
          "blockNumber": "0x731b26",
          "transactionHash": "0x28a521fc09ca92b2280462f0b009f2cf25d709bb7b6c2c79d3d71e6a1352abf6",
          "transactionIndex": "0xb2",
          "logIndex": "0xeb",
          "removed": false
        },
        {
          "address": "0x8aafd3ede9adb0ff97c7aebce82a919afb1c8764",
          "topics": [
            "0x4afcb4a87cdbd9974efdb92ee48bc8d7cd0ae4bf217004db3d080cbaee652ca7"
          ],
          "data": "0x0000000000000000000000000000000000000000000000000000000067904298000000000000000000000000000000000000000000000000000e0201f9967b9a000000000000000000000000000000000000000000000000000000773f816b6f",
          "blockHash": "0x77448edeca65478630e3a27b86657931e7aae3adf423c952ccf551f285ecd3e2",
          "blockNumber": "0x731b26",
          "transactionHash": "0x28a521fc09ca92b2280462f0b009f2cf25d709bb7b6c2c79d3d71e6a1352abf6",
          "transactionIndex": "0xb2",
          "logIndex": "0xec",
          "removed": false
        }
      ],
      "logsBloom": "0x00000000000000000000000000000000000000000600000000000000000000000000000000000000000000000000000000000000000000004000000000000000000000000000004000000008000000000000000000000000000000000000000000000000020000000000000000000800020000000000000000000010000000000000000000000000000000000000000000000000000000000000010000000000000000000000000000000000000000004000000000000000000000000000000000000002000000800000000000000000000000000000080000000000000020000000000000000000000000000000000000000000000000000000000000000000",
      "type": "0x2",
      "transactionHash": "0x28a521fc09ca92b2280462f0b009f2cf25d709bb7b6c2c79d3d71e6a1352abf6",
      "transactionIndex": "0xb2",
      "blockHash": "0x77448edeca65478630e3a27b86657931e7aae3adf423c952ccf551f285ecd3e2",
      "blockNumber": "0x731b26",
      "gasUsed": "0xfd27",
      "effectiveGasPrice": "0x9cec6c38",
      "from": "0xc77f7fed3b5cc8249adc428c5f44c9063b9734b4",
      "to": "0x8aafd3ede9adb0ff97c7aebce82a919afb1c8764",
      "contractAddress": null
    }
  ],
  "libraries": [],
  "pending": [],
  "returns": {},
  "timestamp": 1737507484,
  "chain": 11155111,
  "commit": "1d2fb70"
}