{
  "transactions": [
    {
      "hash": "0x2111f8c0b2566018427f0a3ed3d9a224a68794566426f489e5459d781e59f9e1",
      "transactionType": "CALL",
      "contractName": null,
      "contractAddress": "0x5eb9cc76c3506942c1c0ead70e877dd5e4f00cb0",
      "function": "sell(uint256)",
      "arguments": [
        "989139520284938203843"
      ],
      "transaction": {
        "from": "0xc77f7fed3b5cc8249adc428c5f44c9063b9734b4",
        "to": "0x5eb9cc76c3506942c1c0ead70e877dd5e4f00cb0",
        "gas": "0x16fec",
        "value": "0x0",
        "input": "0xe4849b320000000000000000000000000000000000000000000000359f1181036c07f2c3",
        "nonce": "0x309",
        "chainId": "0xaa36a7"
      },
      "additionalContracts": [],
      "isFixedGasLimit": false
    }
  ],
  "receipts": [
    {
      "status": "0x1",
      "cumulativeGasUsed": "0xda0419",
      "logs": [
        {
          "address": "0x5eb9cc76c3506942c1c0ead70e877dd5e4f00cb0",
          "topics": [
            "0xddf252ad1be2c89b69c2b068fc378daa952ba7f163c4a11628f55a4df523b3ef",
            "0x000000000000000000000000c77f7fed3b5cc8249adc428c5f44c9063b9734b4",
            "0x0000000000000000000000000000000000000000000000000000000000000000"
          ],
          "data": "0x0000000000000000000000000000000000000000000000359f1181036c07f2c3",
          "blockHash": "0xeaf0b44ccd323e5c55cea7579a8241790429042199e21fa9f2ffe2dab2f2f6fe",
          "blockNumber": "0x724eed",
          "transactionHash": "0x2111f8c0b2566018427f0a3ed3d9a224a68794566426f489e5459d781e59f9e1",
          "transactionIndex": "0x6b",
          "logIndex": "0xdc",
          "removed": false
        },
        {
          "address": "0x5eb9cc76c3506942c1c0ead70e877dd5e4f00cb0",
          "topics": [
            "0x4afcb4a87cdbd9974efdb92ee48bc8d7cd0ae4bf217004db3d080cbaee652ca7"
          ],
          "data": "0x000000000000000000000000000000000000000000000000000000006786a4d00000000000000000000000000000000000000000000000000003910c21ffe4b50000000000000000000000000000000000000000000000000dc7db13322dc4fd",
          "blockHash": "0xeaf0b44ccd323e5c55cea7579a8241790429042199e21fa9f2ffe2dab2f2f6fe",
          "blockNumber": "0x724eed",
          "transactionHash": "0x2111f8c0b2566018427f0a3ed3d9a224a68794566426f489e5459d781e59f9e1",
          "transactionIndex": "0x6b",
          "logIndex": "0xdd",
          "removed": false
        }
      ],
      "logsBloom": "0x00000000000000000000000000000000000000000000000000000000000000000000000000000000000000000000000000000000000000004000000000000000000000000000000000000008000000000000000000000000000000000000000000000000020000000000000004000800020000000000000000000010000000000000000000000000000000000000000000000000000000000000010000000000000000000000000000000000000000004000000000000000000000000000020000000002000000800000008000000000000000000000080000000000000020000000000000000000000000000000000000000000000000000000000000000000",
      "type": "0x2",
      "transactionHash": "0x2111f8c0b2566018427f0a3ed3d9a224a68794566426f489e5459d781e59f9e1",
      "transactionIndex": "0x6b",
      "blockHash": "0xeaf0b44ccd323e5c55cea7579a8241790429042199e21fa9f2ffe2dab2f2f6fe",
      "blockNumber": "0x724eed",
      "gasUsed": "0xfb93",
      "effectiveGasPrice": "0x64232eb76",
      "from": "0xc77f7fed3b5cc8249adc428c5f44c9063b9734b4",
      "to": "0x5eb9cc76c3506942c1c0ead70e877dd5e4f00cb0",
      "contractAddress": null
    }
  ],
  "libraries": [],
  "pending": [],
  "returns": {},
  "timestamp": 1736877265,
  "chain": 11155111,
  "commit": "51a374b"
}