{
  "transactions": [
    {
      "hash": "0x9fd9d4e9fe4982d46445e2058a1e3a047fe2a8cad84f7326f598b4ccb77bfba9",
      "transactionType": "CALL",
      "contractName": null,
      "contractAddress": "0x270e88f8683660553e8ba4eb2ad7c91a1710d769",
      "function": "buy(address)",
      "arguments": [
        "0xC77f7fed3b5Cc8249aDc428c5F44C9063B9734b4"
      ],
      "transaction": {
        "from": "0xc77f7fed3b5cc8249adc428c5f44c9063b9734b4",
        "to": "0x270e88f8683660553e8ba4eb2ad7c91a1710d769",
        "gas": "0x1b30c",
        "value": "0xde0b6b3a7640000",
        "input": "0xf088d547000000000000000000000000c77f7fed3b5cc8249adc428c5f44c9063b9734b4",
        "nonce": "0x516",
        "chainId": "0xaa36a7"
      },
      "additionalContracts": [],
      "isFixedGasLimit": false
    }
  ],
  "receipts": [
    {
      "status": "0x1",
      "cumulativeGasUsed": "0x159c6e1",
      "logs": [
        {
          "address": "0x270e88f8683660553e8ba4eb2ad7c91a1710d769",
          "topics": [
            "0xddf252ad1be2c89b69c2b068fc378daa952ba7f163c4a11628f55a4df523b3ef",
            "0x0000000000000000000000000000000000000000000000000000000000000000",
            "0x000000000000000000000000c77f7fed3b5cc8249adc428c5f44c9063b9734b4"
          ],
          "data": "0x0000000000000000000000000000000000000000000000351ab11be3fb225552",
          "blockHash": "0xfa0b42dfc10bbfe70db36b402a4379fb554a92aba881f47719c4fc8d68ef25f5",
          "blockNumber": "0x7251ad",
          "transactionHash": "0x9fd9d4e9fe4982d46445e2058a1e3a047fe2a8cad84f7326f598b4ccb77bfba9",
          "transactionIndex": "0x5e",
          "logIndex": "0xff",
          "removed": false
        },
        {
          "address": "0x270e88f8683660553e8ba4eb2ad7c91a1710d769",
          "topics": [
            "0xddf252ad1be2c89b69c2b068fc378daa952ba7f163c4a11628f55a4df523b3ef",
            "0x0000000000000000000000000000000000000000000000000000000000000000",
            "0x000000000000000000000000c77f7fed3b5cc8249adc428c5f44c9063b9734b4"
          ],
          "data": "0x000000000000000000000000000000000000000000000000293cbdee814f29bf",
          "blockHash": "0xfa0b42dfc10bbfe70db36b402a4379fb554a92aba881f47719c4fc8d68ef25f5",
          "blockNumber": "0x7251ad",
          "transactionHash": "0x9fd9d4e9fe4982d46445e2058a1e3a047fe2a8cad84f7326f598b4ccb77bfba9",
          "transactionIndex": "0x5e",
          "logIndex": "0x100",
          "removed": false
        },
        {
          "address": "0x270e88f8683660553e8ba4eb2ad7c91a1710d769",
          "topics": [
            "0x4afcb4a87cdbd9974efdb92ee48bc8d7cd0ae4bf217004db3d080cbaee652ca7"
          ],
          "data": "0x000000000000000000000000000000000000000000000000000000006786c6000000000000000000000000000000000000000000000000000003974108c48bdd0000000000000000000000000000000000000000000000000de0b6b3a7640000",
          "blockHash": "0xfa0b42dfc10bbfe70db36b402a4379fb554a92aba881f47719c4fc8d68ef25f5",
          "blockNumber": "0x7251ad",
          "transactionHash": "0x9fd9d4e9fe4982d46445e2058a1e3a047fe2a8cad84f7326f598b4ccb77bfba9",
          "transactionIndex": "0x5e",
          "logIndex": "0x101",
          "removed": false
        }
      ],
      "logsBloom": "0x00000000000000000000000000000000000000000000000000000000000000000000000000000000000000000000000020000000000000004000000000000000000000000000000000000008000000000000000000000000000000000000000000000000020000000000000000000800020000000000000000000010000000000000000000010000000000000000000000000000000000000000010000000000000000000000000000000000000000004000000000000000000000000000000000000002000000800000000000000000000000000000080000008000000020000000000000000000000000000000000000000000000000000000000000000000",
      "type": "0x2",
      "transactionHash": "0x9fd9d4e9fe4982d46445e2058a1e3a047fe2a8cad84f7326f598b4ccb77bfba9",
      "transactionIndex": "0x5e",
      "blockHash": "0xfa0b42dfc10bbfe70db36b402a4379fb554a92aba881f47719c4fc8d68ef25f5",
      "blockNumber": "0x7251ad",
      "gasUsed": "0x13af8",
      "effectiveGasPrice": "0x3e9d42e8d",
      "from": "0xc77f7fed3b5cc8249adc428c5f44c9063b9734b4",
      "to": "0x270e88f8683660553e8ba4eb2ad7c91a1710d769",
      "contractAddress": null
    }
  ],
  "libraries": [],
  "pending": [],
  "returns": {},
  "timestamp": 1736885760,
  "chain": 11155111,
  "commit": "51a374b"
}