{
  "transactions": [
    {
      "hash": "0xb987bd83bf5fd1920462fc3ddb2f0f6e015b26e85f386fac8b0eeccd7804fbde",
      "transactionType": "CALL",
      "contractName": null,
      "contractAddress": "0x8aafd3ede9adb0ff97c7aebce82a919afb1c8764",
      "function": "sell(uint256)",
      "arguments": [
        "22300842784"
      ],
      "transaction": {
        "from": "0xc77f7fed3b5cc8249adc428c5f44c9063b9734b4",
        "to": "0x8aafd3ede9adb0ff97c7aebce82a919afb1c8764",
        "gas": "0x1722a",
        "value": "0x0",
        "input": "0xe4849b3200000000000000000000000000000000000000000000000000000005313bdb20",
        "nonce": "0x11fe",
        "chainId": "0xaa36a7"
      },
      "additionalContracts": [],
      "isFixedGasLimit": false
    }
  ],
  "receipts": [
    {
      "status": "0x1",
      "cumulativeGasUsed": "0xfca432",
      "logs": [
        {
          "address": "0x8aafd3ede9adb0ff97c7aebce82a919afb1c8764",
          "topics": [
            "0xddf252ad1be2c89b69c2b068fc378daa952ba7f163c4a11628f55a4df523b3ef",
            "0x000000000000000000000000c77f7fed3b5cc8249adc428c5f44c9063b9734b4",
            "0x0000000000000000000000000000000000000000000000000000000000000000"
          ],
          "data": "0x00000000000000000000000000000000000000000000000000000005269995ca",
          "blockHash": "0xd196bbffe0006cbb138f2c52f092fea7387ae81f3aec91b061c0780610f981f4",
          "blockNumber": "0x7318d8",
          "transactionHash": "0xb987bd83bf5fd1920462fc3ddb2f0f6e015b26e85f386fac8b0eeccd7804fbde",
          "transactionIndex": "0xa9",
          "logIndex": "0x145",
          "removed": false
        },
        {
          "address": "0x8aafd3ede9adb0ff97c7aebce82a919afb1c8764",
          "topics": [
            "0xddf252ad1be2c89b69c2b068fc378daa952ba7f163c4a11628f55a4df523b3ef",
            "0x000000000000000000000000c77f7fed3b5cc8249adc428c5f44c9063b9734b4",
            "0x000000000000000000000000c77f7fed3b5cc8249adc428c5f44c9063b9734b4"
          ],
          "data": "0x000000000000000000000000000000000000000000000000000000000aa24556",
          "blockHash": "0xd196bbffe0006cbb138f2c52f092fea7387ae81f3aec91b061c0780610f981f4",
          "blockNumber": "0x7318d8",
          "transactionHash": "0xb987bd83bf5fd1920462fc3ddb2f0f6e015b26e85f386fac8b0eeccd7804fbde",
          "transactionIndex": "0xa9",
          "logIndex": "0x146",
          "removed": false
        },
        {
          "address": "0x8aafd3ede9adb0ff97c7aebce82a919afb1c8764",
          "topics": [
            "0x4afcb4a87cdbd9974efdb92ee48bc8d7cd0ae4bf217004db3d080cbaee652ca7"
          ],
          "data": "0x00000000000000000000000000000000000000000000000000000000679026f00000000000000000000000000000000000000000000000000005307a9a9eaa4e0000000000000000000000000000000000000000000000000000000001f10b8e",
          "blockHash": "0xd196bbffe0006cbb138f2c52f092fea7387ae81f3aec91b061c0780610f981f4",
          "blockNumber": "0x7318d8",
          "transactionHash": "0xb987bd83bf5fd1920462fc3ddb2f0f6e015b26e85f386fac8b0eeccd7804fbde",
          "transactionIndex": "0xa9",
          "logIndex": "0x147",
          "removed": false
        }
      ],
      "logsBloom": "0x00000000000000000000000000000000000000000600000000000000000000000000000000000000000000000000000000000000000000004000000000000000000000000000004000000008000000000000000000000000000000000000000000000000020000000000000000000800020000000000000000000010000000000000000000000000000000000000000000000000000000000000010000000000000000000000000000000000000000004000000000000000000000000000000000000002000000800000000000000000000000000000080000000000000020000000000000000000000000000000000000000000000000000000000000000000",
      "type": "0x2",
      "transactionHash": "0xb987bd83bf5fd1920462fc3ddb2f0f6e015b26e85f386fac8b0eeccd7804fbde",
      "transactionIndex": "0xa9",
      "blockHash": "0xd196bbffe0006cbb138f2c52f092fea7387ae81f3aec91b061c0780610f981f4",
      "blockNumber": "0x7318d8",
      "gasUsed": "0xfd1b",
      "effectiveGasPrice": "0x3669b2f8",
      "from": "0xc77f7fed3b5cc8249adc428c5f44c9063b9734b4",
      "to": "0x8aafd3ede9adb0ff97c7aebce82a919afb1c8764",
      "contractAddress": null
    }
  ],
  "libraries": [],
  "pending": [],
  "returns": {},
  "timestamp": 1737500401,
  "chain": 11155111,
  "commit": "1d2fb70"
}