{
  "transactions": [
    {
      "hash": "0xfad07c2e8c432e0ad17d1e11a94c2c4c3247a23f8277115c934380c9589ab31f",
      "transactionType": "CALL",
      "contractName": null,
      "contractAddress": "0x270e88f8683660553e8ba4eb2ad7c91a1710d769",
      "function": "sell(uint256)",
      "arguments": [
        "940082168665981152165"
      ],
      "transaction": {
        "from": "0xc77f7fed3b5cc8249adc428c5f44c9063b9734b4",
        "to": "0x270e88f8683660553e8ba4eb2ad7c91a1710d769",
        "gas": "0x16fec",
        "value": "0x0",
        "input": "0xe4849b32000000000000000000000000000000000000000000000032f642c7a206a96ba5",
        "nonce": "0x633",
        "chainId": "0xaa36a7"
      },
      "additionalContracts": [],
      "isFixedGasLimit": false
    }
  ],
  "receipts": [
    {
      "status": "0x1",
      "cumulativeGasUsed": "0x1262a33",
      "logs": [
        {
          "address": "0x270e88f8683660553e8ba4eb2ad7c91a1710d769",
          "topics": [
            "0xddf252ad1be2c89b69c2b068fc378daa952ba7f163c4a11628f55a4df523b3ef",
            "0x000000000000000000000000c77f7fed3b5cc8249adc428c5f44c9063b9734b4",
            "0x0000000000000000000000000000000000000000000000000000000000000000"
          ],
          "data": "0x000000000000000000000000000000000000000000000032f642c7a206a96ba5",
          "blockHash": "0x6b03f6e0abed260df74910bc3382f83fb5146343b324f9eac9c54f7abf879588",
          "blockNumber": "0x725304",
          "transactionHash": "0xfad07c2e8c432e0ad17d1e11a94c2c4c3247a23f8277115c934380c9589ab31f",
          "transactionIndex": "0x51",
          "logIndex": "0x94",
          "removed": false
        },
        {
          "address": "0x270e88f8683660553e8ba4eb2ad7c91a1710d769",
          "topics": [
            "0x4afcb4a87cdbd9974efdb92ee48bc8d7cd0ae4bf217004db3d080cbaee652ca7"
          ],
          "data": "0x000000000000000000000000000000000000000000000000000000006786d6380000000000000000000000000000000000000000000000000003c0fc7acfb1100000000000000000000000000000000000000000000000000dc83d239e86ca31",
          "blockHash": "0x6b03f6e0abed260df74910bc3382f83fb5146343b324f9eac9c54f7abf879588",
          "blockNumber": "0x725304",
          "transactionHash": "0xfad07c2e8c432e0ad17d1e11a94c2c4c3247a23f8277115c934380c9589ab31f",
          "transactionIndex": "0x51",
          "logIndex": "0x95",
          "removed": false
        }
      ],
      "logsBloom": "0x00000000000000000000000000000000000000000000000000000000000000000000000000000000000000000000000020000000000000004000000000000000000000000000000000000008000000000000000000000000000000000000000000000000020000000000000000000800020000000000000000000010000000000000000000010000000000000000000000000000000000000000010000000000000000000000000000000000000000004000000000000000000000000000000000000002000000800000000000000000000000000000080000008000000020000000000000000000000000000000000000000000000000000000000000000000",
      "type": "0x2",
      "transactionHash": "0xfad07c2e8c432e0ad17d1e11a94c2c4c3247a23f8277115c934380c9589ab31f",
      "transactionIndex": "0x51",
      "blockHash": "0x6b03f6e0abed260df74910bc3382f83fb5146343b324f9eac9c54f7abf879588",
      "blockNumber": "0x725304",
      "gasUsed": "0xfb93",
      "effectiveGasPrice": "0x27d21decf",
      "from": "0xc77f7fed3b5cc8249adc428c5f44c9063b9734b4",
      "to": "0x270e88f8683660553e8ba4eb2ad7c91a1710d769",
      "contractAddress": null
    }
  ],
  "libraries": [],
  "pending": [],
  "returns": {},
  "timestamp": 1736889913,
  "chain": 11155111,
  "commit": "51a374b"
}