{
  "transactions": [
    {
      "hash": "0x872bded56340404c3d895b6838d43e1355ff8d412734a8bc8c11a5ab14f28184",
      "transactionType": "CALL",
      "contractName": null,
      "contractAddress": "0x8aafd3ede9adb0ff97c7aebce82a919afb1c8764",
      "function": "sell(uint256)",
      "arguments": [
        "23162955919"
      ],
      "transaction": {
        "from": "0xc77f7fed3b5cc8249adc428c5f44c9063b9734b4",
        "to": "0x8aafd3ede9adb0ff97c7aebce82a919afb1c8764",
        "gas": "0x1722a",
        "value": "0x0",
        "input": "0xe4849b3200000000000000000000000000000000000000000000000000000005649ea88f",
        "nonce": "0x10aa",
        "chainId": "0xaa36a7"
      },
      "additionalContracts": [],
      "isFixedGasLimit": false
    }
  ],
  "receipts": [
    {
      "status": "0x1",
      "cumulativeGasUsed": "0x6f4538",
      "logs": [
        {
          "address": "0x8aafd3ede9adb0ff97c7aebce82a919afb1c8764",
          "topics": [
            "0xddf252ad1be2c89b69c2b068fc378daa952ba7f163c4a11628f55a4df523b3ef",
            "0x000000000000000000000000c77f7fed3b5cc8249adc428c5f44c9063b9734b4",
            "0x0000000000000000000000000000000000000000000000000000000000000000"
          ],
          "data": "0x0000000000000000000000000000000000000000000000000000000559932630",
          "blockHash": "0x892cd67f519ec5fe51bb055a13214c960eaa9e6c38aeffaa73ad9fff3f177638",
          "blockNumber": "0x73173d",
          "transactionHash": "0x872bded56340404c3d895b6838d43e1355ff8d412734a8bc8c11a5ab14f28184",
          "transactionIndex": "0x58",
          "logIndex": "0x7f",
          "removed": false
        },
        {
          "address": "0x8aafd3ede9adb0ff97c7aebce82a919afb1c8764",
          "topics": [
            "0xddf252ad1be2c89b69c2b068fc378daa952ba7f163c4a11628f55a4df523b3ef",
            "0x000000000000000000000000c77f7fed3b5cc8249adc428c5f44c9063b9734b4",
            "0x000000000000000000000000c77f7fed3b5cc8249adc428c5f44c9063b9734b4"
          ],
          "data": "0x000000000000000000000000000000000000000000000000000000000b0b825f",
          "blockHash": "0x892cd67f519ec5fe51bb055a13214c960eaa9e6c38aeffaa73ad9fff3f177638",
          "blockNumber": "0x73173d",
          "transactionHash": "0x872bded56340404c3d895b6838d43e1355ff8d412734a8bc8c11a5ab14f28184",
          "transactionIndex": "0x58",
          "logIndex": "0x80",
          "removed": false
        },
        {
          "address": "0x8aafd3ede9adb0ff97c7aebce82a919afb1c8764",
          "topics": [
            "0x4afcb4a87cdbd9974efdb92ee48bc8d7cd0ae4bf217004db3d080cbaee652ca7"
          ],
          "data": "0x00000000000000000000000000000000000000000000000000000000679013a00000000000000000000000000000000000000000000000000004ff16468fa44b0000000000000000000000000000000000000000000000000000000001f110de",
          "blockHash": "0x892cd67f519ec5fe51bb055a13214c960eaa9e6c38aeffaa73ad9fff3f177638",
          "blockNumber": "0x73173d",
          "transactionHash": "0x872bded56340404c3d895b6838d43e1355ff8d412734a8bc8c11a5ab14f28184",
          "transactionIndex": "0x58",
          "logIndex": "0x81",
          "removed": false
        }
      ],
      "logsBloom": "0x00000000000000000000000000000000000000000600000000000000000000000000000000000000000000000000000000000000000000004000000000000000000000000000004000000008000000000000000000000000000000000000000000000000020000000000000000000800020000000000000000000010000000000000000000000000000000000000000000000000000000000000010000000000000000000000000000000000000000004000000000000000000000000000000000000002000000800000000000000000000000000000080000000000000020000000000000000000000000000000000000000000000000000000000000000000",
      "type": "0x2",
      "transactionHash": "0x872bded56340404c3d895b6838d43e1355ff8d412734a8bc8c11a5ab14f28184",
      "transactionIndex": "0x58",
      "blockHash": "0x892cd67f519ec5fe51bb055a13214c960eaa9e6c38aeffaa73ad9fff3f177638",
      "blockNumber": "0x73173d",
      "gasUsed": "0xfd1b",
      "effectiveGasPrice": "0x45b67e73",
      "from": "0xc77f7fed3b5cc8249adc428c5f44c9063b9734b4",
      "to": "0x8aafd3ede9adb0ff97c7aebce82a919afb1c8764",
      "contractAddress": null
    }
  ],
  "libraries": [],
  "pending": [],
  "returns": {},
  "timestamp": 1737495457,
  "chain": 11155111,
  "commit": "1d2fb70"
}