{
  "transactions": [
    {
      "hash": "0xe3a58563242dfbbaa28cad1b52eca135aad2f1fd45e6fc4829a167e4c40fafd4",
      "transactionType": "CALL",
      "contractName": null,
      "contractAddress": "0xbf4a322f1496e5c3d34a9bcdb4c60567b38c7de2",
      "function": "buy(address)",
      "arguments": [
        "0xC77f7fed3b5Cc8249aDc428c5F44C9063B9734b4"
      ],
      "transaction": {
        "from": "0xc77f7fed3b5cc8249adc428c5f44c9063b9734b4",
        "to": "0xbf4a322f1496e5c3d34a9bcdb4c60567b38c7de2",
        "gas": "0x1b309",
        "value": "0xde0b6b3a7640000",
        "input": "0xf088d547000000000000000000000000c77f7fed3b5cc8249adc428c5f44c9063b9734b4",
        "nonce": "0x93e",
        "chainId": "0xaa36a7"
      },
      "additionalContracts": [],
      "isFixedGasLimit": false
    }
  ],
  "receipts": [
    {
      "status": "0x1",
      "cumulativeGasUsed": "0x9faffa",
      "logs": [
        {
          "address": "0xbf4a322f1496e5c3d34a9bcdb4c60567b38c7de2",
          "topics": [
            "0xddf252ad1be2c89b69c2b068fc378daa952ba7f163c4a11628f55a4df523b3ef",
            "0x0000000000000000000000000000000000000000000000000000000000000000",
            "0x000000000000000000000000c77f7fed3b5cc8249adc428c5f44c9063b9734b4"
          ],
          "data": "0x0000000000000000000000000000000000000000000000357fe2045bc2acd127",
          "blockHash": "0x03111f762cfe9b7308243376f66abf68c7cc4ce498df4fdbb0961019a74d592e",
          "blockNumber": "0x7258c9",
          "transactionHash": "0xe3a58563242dfbbaa28cad1b52eca135aad2f1fd45e6fc4829a167e4c40fafd4",
          "transactionIndex": "0x5d",
          "logIndex": "0x7c",
          "removed": false
        },
        {
          "address": "0xbf4a322f1496e5c3d34a9bcdb4c60567b38c7de2",
          "topics": [
            "0xddf252ad1be2c89b69c2b068fc378daa952ba7f163c4a11628f55a4df523b3ef",
            "0x0000000000000000000000000000000000000000000000000000000000000000",
            "0x000000000000000000000000c77f7fed3b5cc8249adc428c5f44c9063b9734b4"
          ],
          "data": "0x000000000000000000000000000000000000000000000000298b51f9f5151044",
          "blockHash": "0x03111f762cfe9b7308243376f66abf68c7cc4ce498df4fdbb0961019a74d592e",
          "blockNumber": "0x7258c9",
          "transactionHash": "0xe3a58563242dfbbaa28cad1b52eca135aad2f1fd45e6fc4829a167e4c40fafd4",
          "transactionIndex": "0x5d",
          "logIndex": "0x7d",
          "removed": false
        },
        {
          "address": "0xbf4a322f1496e5c3d34a9bcdb4c60567b38c7de2",
          "topics": [
            "0x4afcb4a87cdbd9974efdb92ee48bc8d7cd0ae4bf217004db3d080cbaee652ca7"
          ],
          "data": "0x0000000000000000000000000000000000000000000000000000000067871b980000000000000000000000000000000000000000000000000003905e223f110d0000000000000000000000000000000000000000000000000de0b6b3a7640000",
          "blockHash": "0x03111f762cfe9b7308243376f66abf68c7cc4ce498df4fdbb0961019a74d592e",
          "blockNumber": "0x7258c9",
          "transactionHash": "0xe3a58563242dfbbaa28cad1b52eca135aad2f1fd45e6fc4829a167e4c40fafd4",
          "transactionIndex": "0x5d",
          "logIndex": "0x7e",
          "removed": false
        }
      ],
      "logsBloom": "0x00000000000000000000000000000000000000000000000000000000000000000000000000000000000000000000000000000000000000004000000000000000000000000000000000000008000000000000001000000000000000000000000000000000020000000000000000000800020000000000000000000010000000000000000000000000000000000000000000000000000008000000010000000000000000000000000000000000000000004000000000000000000000000000000000000002000000800000000000001000000000000000080000000000000020000000000000000000000000000000000000000000000000000000000000000000",
      "type": "0x2",
      "transactionHash": "0xe3a58563242dfbbaa28cad1b52eca135aad2f1fd45e6fc4829a167e4c40fafd4",
      "transactionIndex": "0x5d",
      "blockHash": "0x03111f762cfe9b7308243376f66abf68c7cc4ce498df4fdbb0961019a74d592e",
      "blockNumber": "0x7258c9",
      "gasUsed": "0x13af6",
      "effectiveGasPrice": "0x52f69c11",
      "from": "0xc77f7fed3b5cc8249adc428c5f44c9063b9734b4",
      "to": "0xbf4a322f1496e5c3d34a9bcdb4c60567b38c7de2",
      "contractAddress": null
    }
  ],
  "libraries": [],
  "pending": [],
  "returns": {},
  "timestamp": 1736907673,
  "chain": 11155111,
  "commit": "51a374b"
}