{
  "transactions": [
    {
      "hash": "0xd8d1fc77acc78f4716b8a77525bb3d953e47593857ff585b3cbfa132ae7eb9dc",
      "transactionType": "CALL",
      "contractName": null,
      "contractAddress": "0x8aafd3ede9adb0ff97c7aebce82a919afb1c8764",
      "function": "sell(uint256)",
      "arguments": [
        "66020595"
      ],
      "transaction": {
        "from": "0xc77f7fed3b5cc8249adc428c5f44c9063b9734b4",
        "to": "0x8aafd3ede9adb0ff97c7aebce82a919afb1c8764",
        "gas": "0x15d88",
        "value": "0x0",
        "input": "0xe4849b320000000000000000000000000000000000000000000000000000000003ef64f3",
        "nonce": "0x1400",
        "chainId": "0xaa36a7"
      },
      "additionalContracts": [],
      "isFixedGasLimit": false
    }
  ],
  "receipts": [
    {
      "status": "0x1",
      "cumulativeGasUsed": "0x12d4cbb",
      "logs": [
        {
          "address": "0x8aafd3ede9adb0ff97c7aebce82a919afb1c8764",
          "topics": [
            "0xddf252ad1be2c89b69c2b068fc378daa952ba7f163c4a11628f55a4df523b3ef",
            "0x000000000000000000000000c77f7fed3b5cc8249adc428c5f44c9063b9734b4",
            "0x0000000000000000000000000000000000000000000000000000000000000000"
          ],
          "data": "0x0000000000000000000000000000000000000000000000000000000003e755cf",
          "blockHash": "0x3f09ddbc0212fc2f11f3206bb96feb461309a91386a097d10b8be056dbb71e98",
          "blockNumber": "0x731b37",
          "transactionHash": "0xd8d1fc77acc78f4716b8a77525bb3d953e47593857ff585b3cbfa132ae7eb9dc",
          "transactionIndex": "0x74",
          "logIndex": "0x116",
          "removed": false
        },
        {
          "address": "0x8aafd3ede9adb0ff97c7aebce82a919afb1c8764",
          "topics": [
            "0xddf252ad1be2c89b69c2b068fc378daa952ba7f163c4a11628f55a4df523b3ef",
            "0x000000000000000000000000c77f7fed3b5cc8249adc428c5f44c9063b9734b4",
            "0x000000000000000000000000c77f7fed3b5cc8249adc428c5f44c9063b9734b4"
          ],
          "data": "0x0000000000000000000000000000000000000000000000000000000000080f24",
          "blockHash": "0x3f09ddbc0212fc2f11f3206bb96feb461309a91386a097d10b8be056dbb71e98",
          "blockNumber": "0x731b37",
          "transactionHash": "0xd8d1fc77acc78f4716b8a77525bb3d953e47593857ff585b3cbfa132ae7eb9dc",
          "transactionIndex": "0x74",
          "logIndex": "0x117",
          "removed": false
        },
        {
          "address": "0x8aafd3ede9adb0ff97c7aebce82a919afb1c8764",
          "topics": [
            "0x4afcb4a87cdbd9974efdb92ee48bc8d7cd0ae4bf217004db3d080cbaee652ca7"
          ],
          "data": "0x0000000000000000000000000000000000000000000000000000000067904364000000000000000000000000000000000000000000000000000e1c44b93a1dff0000000000000000000000000000000000000000000000000000000000040048",
          "blockHash": "0x3f09ddbc0212fc2f11f3206bb96feb461309a91386a097d10b8be056dbb71e98",
          "blockNumber": "0x731b37",
          "transactionHash": "0xd8d1fc77acc78f4716b8a77525bb3d953e47593857ff585b3cbfa132ae7eb9dc",
          "transactionIndex": "0x74",
          "logIndex": "0x118",
          "removed": false
        }
      ],
      "logsBloom": "0x00000000000000000000000000000000000000000600000000000000000000000000000000000000000000000000000000000000000000004000000000000000000000000000004000000008000000000000000000000000000000000000000000000000020000000000000000000800020000000000000000000010000000000000000000000000000000000000000000000000000000000000010000000000000000000000000000000000000000004000000000000000000000000000000000000002000000800000000000000000000000000000080000000000000020000000000000000000000000000000000000000000000000000000000000000000",
      "type": "0x2",
      "transactionHash": "0xd8d1fc77acc78f4716b8a77525bb3d953e47593857ff585b3cbfa132ae7eb9dc",
      "transactionIndex": "0x74",
      "blockHash": "0x3f09ddbc0212fc2f11f3206bb96feb461309a91386a097d10b8be056dbb71e98",
      "blockNumber": "0x731b37",
      "gasUsed": "0xfd0f",
      "effectiveGasPrice": "0xb022ed42",
      "from": "0xc77f7fed3b5cc8249adc428c5f44c9063b9734b4",
      "to": "0x8aafd3ede9adb0ff97c7aebce82a919afb1c8764",
      "contractAddress": null
    }
  ],
  "libraries": [],
  "pending": [],
  "returns": {},
  "timestamp": 1737507686,
  "chain": 11155111,
  "commit": "1d2fb70"
}