{
  "transactions": [
    {
      "hash": "0xea6a701b8056938c31a9a1af3dc9409856a3df5ed5ec81a086c67b01a18553b5",
      "transactionType": "CALL",
      "contractName": null,
      "contractAddress": "0x270e88f8683660553e8ba4eb2ad7c91a1710d769",
      "function": "buy(address)",
      "arguments": [
        "0xC77f7fed3b5Cc8249aDc428c5F44C9063B9734b4"
      ],
      "transaction": {
        "from": "0xc77f7fed3b5cc8249adc428c5f44c9063b9734b4",
        "to": "0x270e88f8683660553e8ba4eb2ad7c91a1710d769",
        "gas": "0x1b30c",
        "value": "0xde0b6b3a7640000",
        "input": "0xf088d547000000000000000000000000c77f7fed3b5cc8249adc428c5f44c9063b9734b4",
        "nonce": "0x665",
        "chainId": "0xaa36a7"
      },
      "additionalContracts": [],
      "isFixedGasLimit": false
    }
  ],
  "receipts": [
    {
      "status": "0x1",
      "cumulativeGasUsed": "0xc5c4aa",
      "logs": [
        {
          "address": "0x270e88f8683660553e8ba4eb2ad7c91a1710d769",
          "topics": [
            "0xddf252ad1be2c89b69c2b068fc378daa952ba7f163c4a11628f55a4df523b3ef",
            "0x0000000000000000000000000000000000000000000000000000000000000000",
            "0x000000000000000000000000c77f7fed3b5cc8249adc428c5f44c9063b9734b4"
          ],
          "data": "0x0000000000000000000000000000000000000000000000290b5ddfc2cd350cab",
          "blockHash": "0x8846f8b32a894ee3f13506e0d020d4c0b2c7a3d03bc39d0b23d3b870f13dd753",
          "blockNumber": "0x72535e",
          "transactionHash": "0xea6a701b8056938c31a9a1af3dc9409856a3df5ed5ec81a086c67b01a18553b5",
          "transactionIndex": "0x3a",
          "logIndex": "0x11b",
          "removed": false
        },
        {
          "address": "0x270e88f8683660553e8ba4eb2ad7c91a1710d769",
          "topics": [
            "0xddf252ad1be2c89b69c2b068fc378daa952ba7f163c4a11628f55a4df523b3ef",
            "0x0000000000000000000000000000000000000000000000000000000000000000",
            "0x000000000000000000000000c77f7fed3b5cc8249adc428c5f44c9063b9734b4"
          ],
          "data": "0x0000000000000000000000000000000000000000000000001fdf5422034f2c5a",
          "blockHash": "0x8846f8b32a894ee3f13506e0d020d4c0b2c7a3d03bc39d0b23d3b870f13dd753",
          "blockNumber": "0x72535e",
          "transactionHash": "0xea6a701b8056938c31a9a1af3dc9409856a3df5ed5ec81a086c67b01a18553b5",
          "transactionIndex": "0x3a",
          "logIndex": "0x11c",
          "removed": false
        },
        {
          "address": "0x270e88f8683660553e8ba4eb2ad7c91a1710d769",
          "topics": [
            "0x4afcb4a87cdbd9974efdb92ee48bc8d7cd0ae4bf217004db3d080cbaee652ca7"
          ],
          "data": "0x000000000000000000000000000000000000000000000000000000006786da700000000000000000000000000000000000000000000000000004a552cb57aa120000000000000000000000000000000000000000000000000de0b6b3a7640000",
          "blockHash": "0x8846f8b32a894ee3f13506e0d020d4c0b2c7a3d03bc39d0b23d3b870f13dd753",
          "blockNumber": "0x72535e",
          "transactionHash": "0xea6a701b8056938c31a9a1af3dc9409856a3df5ed5ec81a086c67b01a18553b5",
          "transactionIndex": "0x3a",
          "logIndex": "0x11d",
          "removed": false
        }
      ],
      "logsBloom": "0x00000000000000000000000000000000000000000000000000000000000000000000000000000000000000000000000020000000000000004000000000000000000000000000000000000008000000000000000000000000000000000000000000000000020000000000000000000800020000000000000000000010000000000000000000010000000000000000000000000000000000000000010000000000000000000000000000000000000000004000000000000000000000000000000000000002000000800000000000000000000000000000080000008000000020000000000000000000000000000000000000000000000000000000000000000000",
      "type": "0x2",
      "transactionHash": "0xea6a701b8056938c31a9a1af3dc9409856a3df5ed5ec81a086c67b01a18553b5",
      "transactionIndex": "0x3a",
      "blockHash": "0x8846f8b32a894ee3f13506e0d020d4c0b2c7a3d03bc39d0b23d3b870f13dd753",
      "blockNumber": "0x72535e",
      "gasUsed": "0x13af8",
      "effectiveGasPrice": "0x32c9c9271",
      "from": "0xc77f7fed3b5cc8249adc428c5f44c9063b9734b4",
      "to": "0x270e88f8683660553e8ba4eb2ad7c91a1710d769",
      "contractAddress": null
    }
  ],
  "libraries": [],
  "pending": [],
  "returns": {},
  "timestamp": 1736890993,
  "chain": 11155111,
  "commit": "51a374b"
}