{
  "transactions": [
    {
      "hash": "0x783f92d1e40340cdeb28f9ac05db011ca6aa117965d47fd526923e35307f2dfa",
      "transactionType": "CALL",
      "contractName": null,
      "contractAddress": "0xbf4a322f1496e5c3d34a9bcdb4c60567b38c7de2",
      "function": "buy(address)",
      "arguments": [
        "0xC77f7fed3b5Cc8249aDc428c5F44C9063B9734b4"
      ],
      "transaction": {
        "from": "0xc77f7fed3b5cc8249adc428c5f44c9063b9734b4",
        "to": "0xbf4a322f1496e5c3d34a9bcdb4c60567b38c7de2",
        "gas": "0x1b309",
        "value": "0xde0b6b3a7640000",
        "input": "0xf088d547000000000000000000000000c77f7fed3b5cc8249adc428c5f44c9063b9734b4",
        "nonce": "0xe28",
        "chainId": "0xaa36a7"
      },
      "additionalContracts": [],
      "isFixedGasLimit": false
    }
  ],
  "receipts": [
    {
      "status": "0x1",
      "cumulativeGasUsed": "0x19013be",
      "logs": [
        {
          "address": "0xbf4a322f1496e5c3d34a9bcdb4c60567b38c7de2",
          "topics": [
            "0xddf252ad1be2c89b69c2b068fc378daa952ba7f163c4a11628f55a4df523b3ef",
            "0x0000000000000000000000000000000000000000000000000000000000000000",
            "0x000000000000000000000000c77f7fed3b5cc8249adc428c5f44c9063b9734b4"
          ],
          "data": "0x000000000000000000000000000000000000000000000034958766a65bf1ff0e",
          "blockHash": "0xd2e49121c4e0c6ff9a845236ff4de221faece1ceb03f0010682ded53cb861934",
          "blockNumber": "0x726717",
          "transactionHash": "0x783f92d1e40340cdeb28f9ac05db011ca6aa117965d47fd526923e35307f2dfa",
          "transactionIndex": "0x7d",
          "logIndex": "0x116",
          "removed": false
        },
        {
          "address": "0xbf4a322f1496e5c3d34a9bcdb4c60567b38c7de2",
          "topics": [
            "0xddf252ad1be2c89b69c2b068fc378daa952ba7f163c4a11628f55a4df523b3ef",
            "0x0000000000000000000000000000000000000000000000000000000000000000",
            "0x000000000000000000000000c77f7fed3b5cc8249adc428c5f44c9063b9734b4"
          ],
          "data": "0x00000000000000000000000000000000000000000000000028d5561c51f0713f",
          "blockHash": "0xd2e49121c4e0c6ff9a845236ff4de221faece1ceb03f0010682ded53cb861934",
          "blockNumber": "0x726717",
          "transactionHash": "0x783f92d1e40340cdeb28f9ac05db011ca6aa117965d47fd526923e35307f2dfa",
          "transactionIndex": "0x7d",
          "logIndex": "0x117",
          "removed": false
        },
        {
          "address": "0xbf4a322f1496e5c3d34a9bcdb4c60567b38c7de2",
          "topics": [
            "0x4afcb4a87cdbd9974efdb92ee48bc8d7cd0ae4bf217004db3d080cbaee652ca7"
          ],
          "data": "0x000000000000000000000000000000000000000000000000000000006787c8840000000000000000000000000000000000000000000000000003a04048d533340000000000000000000000000000000000000000000000000de0b6b3a7640000",
          "blockHash": "0xd2e49121c4e0c6ff9a845236ff4de221faece1ceb03f0010682ded53cb861934",
          "blockNumber": "0x726717",
          "transactionHash": "0x783f92d1e40340cdeb28f9ac05db011ca6aa117965d47fd526923e35307f2dfa",
          "transactionIndex": "0x7d",
          "logIndex": "0x118",
          "removed": false
        }
      ],
      "logsBloom": "0x00000000000000000000000000000000000000000000000000000000000000000000000000000000000000000000000000000000000000004000000000000000000000000000000000000008000000000000001000000000000000000000000000000000020000000000000000000800020000000000000000000010000000000000000000000000000000000000000000000000000008000000010000000000000000000000000000000000000000004000000000000000000000000000000000000002000000800000000000001000000000000000080000000000000020000000000000000000000000000000000000000000000000000000000000000000",
      "type": "0x2",
      "transactionHash": "0x783f92d1e40340cdeb28f9ac05db011ca6aa117965d47fd526923e35307f2dfa",
      "transactionIndex": "0x7d",
      "blockHash": "0xd2e49121c4e0c6ff9a845236ff4de221faece1ceb03f0010682ded53cb861934",
      "blockNumber": "0x726717",
      "gasUsed": "0x13af6",
      "effectiveGasPrice": "0x5fbebdde7",
      "from": "0xc77f7fed3b5cc8249adc428c5f44c9063b9734b4",
      "to": "0xbf4a322f1496e5c3d34a9bcdb4c60567b38c7de2",
      "contractAddress": null
    }
  ],
  "libraries": [],
  "pending": [],
  "returns": {},
  "timestamp": 1736951942,
  "chain": 11155111,
  "commit": "51a374b"
}