{
  "transactions": [
    {
      "hash": "0x22d19d322fe717475e2e6ef0177a49126198b2cb691c9285ba70c101e2c7374b",
      "transactionType": "CALL",
      "contractName": null,
      "contractAddress": "0x8aafd3ede9adb0ff97c7aebce82a919afb1c8764",
      "function": "sell(uint256)",
      "arguments": [
        "23429264531"
      ],
      "transaction": {
        "from": "0xc77f7fed3b5cc8249adc428c5f44c9063b9734b4",
        "to": "0x8aafd3ede9adb0ff97c7aebce82a919afb1c8764",
        "gas": "0x1722a",
        "value": "0x0",
        "input": "0xe4849b3200000000000000000000000000000000000000000000000000000005747e3493",
        "nonce": "0x1046",
        "chainId": "0xaa36a7"
      },
      "additionalContracts": [],
      "isFixedGasLimit": false
    }
  ],
  "receipts": [
    {
      "status": "0x1",
      "cumulativeGasUsed": "0xc44f2e",
      "logs": [
        {
          "address": "0x8aafd3ede9adb0ff97c7aebce82a919afb1c8764",
          "topics": [
            "0xddf252ad1be2c89b69c2b068fc378daa952ba7f163c4a11628f55a4df523b3ef",
            "0x000000000000000000000000c77f7fed3b5cc8249adc428c5f44c9063b9734b4",
            "0x0000000000000000000000000000000000000000000000000000000000000000"
          ],
          "data": "0x000000000000000000000000000000000000000000000000000000056952300f",
          "blockHash": "0x4e4314c394e83f8ef5b1f8186aa88f96c4396d3437f0ad16759ba68ef12f64c1",
          "blockNumber": "0x7316c7",
          "transactionHash": "0x22d19d322fe717475e2e6ef0177a49126198b2cb691c9285ba70c101e2c7374b",
          "transactionIndex": "0x94",
          "logIndex": "0xbf",
          "removed": false
        },
        {
          "address": "0x8aafd3ede9adb0ff97c7aebce82a919afb1c8764",
          "topics": [
            "0xddf252ad1be2c89b69c2b068fc378daa952ba7f163c4a11628f55a4df523b3ef",
            "0x000000000000000000000000c77f7fed3b5cc8249adc428c5f44c9063b9734b4",
            "0x000000000000000000000000c77f7fed3b5cc8249adc428c5f44c9063b9734b4"
          ],
          "data": "0x000000000000000000000000000000000000000000000000000000000b2c0484",
          "blockHash": "0x4e4314c394e83f8ef5b1f8186aa88f96c4396d3437f0ad16759ba68ef12f64c1",
          "blockNumber": "0x7316c7",
          "transactionHash": "0x22d19d322fe717475e2e6ef0177a49126198b2cb691c9285ba70c101e2c7374b",
          "transactionIndex": "0x94",
          "logIndex": "0xc0",
          "removed": false
        },
        {
          "address": "0x8aafd3ede9adb0ff97c7aebce82a919afb1c8764",
          "topics": [
            "0x4afcb4a87cdbd9974efdb92ee48bc8d7cd0ae4bf217004db3d080cbaee652ca7"
          ],
          "data": "0x0000000000000000000000000000000000000000000000000000000067900e0c0000000000000000000000000000000000000000000000000004f09087c47ba10000000000000000000000000000000000000000000000000000000001f11282",
          "blockHash": "0x4e4314c394e83f8ef5b1f8186aa88f96c4396d3437f0ad16759ba68ef12f64c1",
          "blockNumber": "0x7316c7",
          "transactionHash": "0x22d19d322fe717475e2e6ef0177a49126198b2cb691c9285ba70c101e2c7374b",
          "transactionIndex": "0x94",
          "logIndex": "0xc1",
          "removed": false
        }
      ],
      "logsBloom": "0x00000000000000000000000000000000000000000600000000000000000000000000000000000000000000000000000000000000000000004000000000000000000000000000004000000008000000000000000000000000000000000000000000000000020000000000000000000800020000000000000000000010000000000000000000000000000000000000000000000000000000000000010000000000000000000000000000000000000000004000000000000000000000000000000000000002000000800000000000000000000000000000080000000000000020000000000000000000000000000000000000000000000000000000000000000000",
      "type": "0x2",
      "transactionHash": "0x22d19d322fe717475e2e6ef0177a49126198b2cb691c9285ba70c101e2c7374b",
      "transactionIndex": "0x94",
      "blockHash": "0x4e4314c394e83f8ef5b1f8186aa88f96c4396d3437f0ad16759ba68ef12f64c1",
      "blockNumber": "0x7316c7",
      "gasUsed": "0xfd1b",
      "effectiveGasPrice": "0x3ec69685",
      "from": "0xc77f7fed3b5cc8249adc428c5f44c9063b9734b4",
      "to": "0x8aafd3ede9adb0ff97c7aebce82a919afb1c8764",
      "contractAddress": null
    }
  ],
  "libraries": [],
  "pending": [],
  "returns": {},
  "timestamp": 1737494029,
  "chain": 11155111,
  "commit": "1d2fb70"
}