{
  "transactions": [
    {
      "hash": "0x1e933105434bbfd4fa29b4d1182ad54bd389f3e91c8bee8bf0c8ee11ca6fef46",
      "transactionType": "CALL",
      "contractName": null,
      "contractAddress": "0x5eb9cc76c3506942c1c0ead70e877dd5e4f00cb0",
      "function": "buy(address)",
      "arguments": [
        "0xC77f7fed3b5Cc8249aDc428c5F44C9063B9734b4"
      ],
      "transaction": {
        "from": "0xc77f7fed3b5cc8249adc428c5f44c9063b9734b4",
        "to": "0x5eb9cc76c3506942c1c0ead70e877dd5e4f00cb0",
        "gas": "0x156c8",
        "value": "0xde0b6b3a7640000",
        "input": "0xf088d547000000000000000000000000c77f7fed3b5cc8249adc428c5f44c9063b9734b4",
        "nonce": "0x163",
        "chainId": "0xaa36a7"
      },
      "additionalContracts": [],
      "isFixedGasLimit": false
    }
  ],
  "receipts": [
    {
      "status": "0x1",
      "cumulativeGasUsed": "0x87af32",
      "logs": [
        {
          "address": "0x5eb9cc76c3506942c1c0ead70e877dd5e4f00cb0",
          "topics": [
            "0xddf252ad1be2c89b69c2b068fc378daa952ba7f163c4a11628f55a4df523b3ef",
            "0x0000000000000000000000000000000000000000000000000000000000000000",
            "0x000000000000000000000000c77f7fed3b5cc8249adc428c5f44c9063b9734b4"
          ],
          "data": "0x000000000000000000000000000000000000000000000035a6daf0e77308c584",
          "blockHash": "0xff5ab210810a66af25648c1775c8e10aeed87d76f55ad5f17d8df7893c781439",
          "blockNumber": "0x723c1d",
          "transactionHash": "0x1e933105434bbfd4fa29b4d1182ad54bd389f3e91c8bee8bf0c8ee11ca6fef46",
          "transactionIndex": "0x49",
          "logIndex": "0x68",
          "removed": false
        },
        {
          "address": "0x5eb9cc76c3506942c1c0ead70e877dd5e4f00cb0",
          "topics": [
            "0xddf252ad1be2c89b69c2b068fc378daa952ba7f163c4a11628f55a4df523b3ef",
            "0x0000000000000000000000000000000000000000000000000000000000000000",
            "0x000000000000000000000000c77f7fed3b5cc8249adc428c5f44c9063b9734b4"
          ],
          "data": "0x00000000000000000000000000000000000000000000000029a99565f05638cd",
          "blockHash": "0xff5ab210810a66af25648c1775c8e10aeed87d76f55ad5f17d8df7893c781439",
          "blockNumber": "0x723c1d",
          "transactionHash": "0x1e933105434bbfd4fa29b4d1182ad54bd389f3e91c8bee8bf0c8ee11ca6fef46",
          "transactionIndex": "0x49",
          "logIndex": "0x69",
          "removed": false
        },
        {
          "address": "0x5eb9cc76c3506942c1c0ead70e877dd5e4f00cb0",
          "topics": [
            "0x4afcb4a87cdbd9974efdb92ee48bc8d7cd0ae4bf217004db3d080cbaee652ca7"
          ],
          "data": "0x000000000000000000000000000000000000000000000000000000006785c2b000000000000000000000000000000000000000000000000000038dc519755cda0000000000000000000000000000000000000000000000000de0b6b3a7640000",
          "blockHash": "0xff5ab210810a66af25648c1775c8e10aeed87d76f55ad5f17d8df7893c781439",
          "blockNumber": "0x723c1d",
          "transactionHash": "0x1e933105434bbfd4fa29b4d1182ad54bd389f3e91c8bee8bf0c8ee11ca6fef46",
          "transactionIndex": "0x49",
          "logIndex": "0x6a",
          "removed": false
        }
      ],
      "logsBloom": "0x00000000000000000000000000000000000000000000000000000000000000000000000000000000000000000000000000000000000000004000000000000000000000000000000000000008000000000000000000000000000000000000000000000000020000000000000004000800020000000000000000000010000000000000000000000000000000000000000000000000000000000000010000000000000000000000000000000000000000004000000000000000000000000000020000000002000000800000008000000000000000000000080000000000000020000000000000000000000000000000000000000000000000000000000000000000",
      "type": "0x2",
      "transactionHash": "0x1e933105434bbfd4fa29b4d1182ad54bd389f3e91c8bee8bf0c8ee11ca6fef46",
      "transactionIndex": "0x49",
      "blockHash": "0xff5ab210810a66af25648c1775c8e10aeed87d76f55ad5f17d8df7893c781439",
      "blockNumber": "0x723c1d",
      "gasUsed": "0xf82c",
      "effectiveGasPrice": "0x240e601d8",
      "from": "0xc77f7fed3b5cc8249adc428c5f44c9063b9734b4",
      "to": "0x5eb9cc76c3506942c1c0ead70e877dd5e4f00cb0",
      "contractAddress": null
    }
  ],
  "libraries": [],
  "pending": [],
  "returns": {},
  "timestamp": 1736819378,
  "chain": 11155111,
  "commit": "51a374b"
}