{
  "transactions": [
    {
      "hash": "0x8f52b31a518056fbc20c7cad52a701270581b0b7244bb6c17904e374563bd363",
      "transactionType": "CALL",
      "contractName": null,
      "contractAddress": "0xbf4a322f1496e5c3d34a9bcdb4c60567b38c7de2",
      "function": "sell(uint256)",
      "arguments": [
        "981088038061390391387"
      ],
      "transaction": {
        "from": "0xc77f7fed3b5cc8249adc428c5f44c9063b9734b4",
        "to": "0xbf4a322f1496e5c3d34a9bcdb4c60567b38c7de2",
        "gas": "0x16fea",
        "value": "0x0",
        "input": "0xe4849b320000000000000000000000000000000000000000000000352f54e496f217685b",
        "nonce": "0xbc7",
        "chainId": "0xaa36a7"
      },
      "additionalContracts": [],
      "isFixedGasLimit": false
    }
  ],
  "receipts": [
    {
      "status": "0x1",
      "cumulativeGasUsed": "0xf0f415",
      "logs": [
        {
          "address": "0xbf4a322f1496e5c3d34a9bcdb4c60567b38c7de2",
          "topics": [
            "0xddf252ad1be2c89b69c2b068fc378daa952ba7f163c4a11628f55a4df523b3ef",
            "0x000000000000000000000000c77f7fed3b5cc8249adc428c5f44c9063b9734b4",
            "0x0000000000000000000000000000000000000000000000000000000000000000"
          ],
          "data": "0x0000000000000000000000000000000000000000000000352f54e496f217685b",
          "blockHash": "0x73174812d44ad691f9280c3dcc35014bdb51221cf5eaef6b4d2f72855bf121dd",
          "blockNumber": "0x725be5",
          "transactionHash": "0x8f52b31a518056fbc20c7cad52a701270581b0b7244bb6c17904e374563bd363",
          "transactionIndex": "0x7e",
          "logIndex": "0xab",
          "removed": false
        },
        {
          "address": "0xbf4a322f1496e5c3d34a9bcdb4c60567b38c7de2",
          "topics": [
            "0x4afcb4a87cdbd9974efdb92ee48bc8d7cd0ae4bf217004db3d080cbaee652ca7"
          ],
          "data": "0x000000000000000000000000000000000000000000000000000000006787411800000000000000000000000000000000000000000000000000039890c0decc2f0000000000000000000000000000000000000000000000000dc7e3e498960457",
          "blockHash": "0x73174812d44ad691f9280c3dcc35014bdb51221cf5eaef6b4d2f72855bf121dd",
          "blockNumber": "0x725be5",
          "transactionHash": "0x8f52b31a518056fbc20c7cad52a701270581b0b7244bb6c17904e374563bd363",
          "transactionIndex": "0x7e",
          "logIndex": "0xac",
          "removed": false
        }
      ],
      "logsBloom": "0x00000000000000000000000000000000000000000000000000000000000000000000000000000000000000000000000000000000000000004000000000000000000000000000000000000008000000000000001000000000000000000000000000000000020000000000000000000800020000000000000000000010000000000000000000000000000000000000000000000000000008000000010000000000000000000000000000000000000000004000000000000000000000000000000000000002000000800000000000001000000000000000080000000000000020000000000000000000000000000000000000000000000000000000000000000000",
      "type": "0x2",
      "transactionHash": "0x8f52b31a518056fbc20c7cad52a701270581b0b7244bb6c17904e374563bd363",
      "transactionIndex": "0x7e",
      "blockHash": "0x73174812d44ad691f9280c3dcc35014bdb51221cf5eaef6b4d2f72855bf121dd",
      "blockNumber": "0x725be5",
      "gasUsed": "0xfb91",
      "effectiveGasPrice": "0x75fcadb5",
      "from": "0xc77f7fed3b5cc8249adc428c5f44c9063b9734b4",
      "to": "0xbf4a322f1496e5c3d34a9bcdb4c60567b38c7de2",
      "contractAddress": null
    }
  ],
  "libraries": [],
  "pending": [],
  "returns": {},
  "timestamp": 1736917274,
  "chain": 11155111,
  "commit": "51a374b"
}