{
  "transactions": [
    {
      "hash": "0xb3fdbcbc8b4b0a9376df0cd22889f037ac9e4d56c9c2bbd959359c130882fd9d",
      "transactionType": "CALL",
      "contractName": null,
      "contractAddress": "0x5eb9cc76c3506942c1c0ead70e877dd5e4f00cb0",
      "function": "buy(address)",
      "arguments": [
        "0xC77f7fed3b5Cc8249aDc428c5F44C9063B9734b4"
      ],
      "transaction": {
        "from": "0xc77f7fed3b5cc8249adc428c5f44c9063b9734b4",
        "to": "0x5eb9cc76c3506942c1c0ead70e877dd5e4f00cb0",
        "gas": "0x156c8",
        "value": "0xde0b6b3a7640000",
        "input": "0xf088d547000000000000000000000000c77f7fed3b5cc8249adc428c5f44c9063b9734b4",
        "nonce": "0x18d",
        "chainId": "0xaa36a7"
      },
      "additionalContracts": [],
      "isFixedGasLimit": false
    }
  ],
  "receipts": [
    {
      "status": "0x1",
      "cumulativeGasUsed": "0x7c87d1",
      "logs": [
        {
          "address": "0x5eb9cc76c3506942c1c0ead70e877dd5e4f00cb0",
          "topics": [
            "0xddf252ad1be2c89b69c2b068fc378daa952ba7f163c4a11628f55a4df523b3ef",
            "0x0000000000000000000000000000000000000000000000000000000000000000",
            "0x000000000000000000000000c77f7fed3b5cc8249adc428c5f44c9063b9734b4"
          ],
          "data": "0x000000000000000000000000000000000000000000000035a380ed136b46246d",
          "blockHash": "0x0e2b3ca0f333d1499bce6b83fa5230b03574d648f99541d6e3d85728f9ffbd6c",
          "blockNumber": "0x723c71",
          "transactionHash": "0xb3fdbcbc8b4b0a9376df0cd22889f037ac9e4d56c9c2bbd959359c130882fd9d",
          "transactionIndex": "0x4b",
          "logIndex": "0x6c",
          "removed": false
        },
        {
          "address": "0x5eb9cc76c3506942c1c0ead70e877dd5e4f00cb0",
          "topics": [
            "0xddf252ad1be2c89b69c2b068fc378daa952ba7f163c4a11628f55a4df523b3ef",
            "0x0000000000000000000000000000000000000000000000000000000000000000",
            "0x000000000000000000000000c77f7fed3b5cc8249adc428c5f44c9063b9734b4"
          ],
          "data": "0x00000000000000000000000000000000000000000000000029a6fb1ecd48a7d7",
          "blockHash": "0x0e2b3ca0f333d1499bce6b83fa5230b03574d648f99541d6e3d85728f9ffbd6c",
          "blockNumber": "0x723c71",
          "transactionHash": "0xb3fdbcbc8b4b0a9376df0cd22889f037ac9e4d56c9c2bbd959359c130882fd9d",
          "transactionIndex": "0x4b",
          "logIndex": "0x6d",
          "removed": false
        },
        {
          "address": "0x5eb9cc76c3506942c1c0ead70e877dd5e4f00cb0",
          "topics": [
            "0x4afcb4a87cdbd9974efdb92ee48bc8d7cd0ae4bf217004db3d080cbaee652ca7"
          ],
          "data": "0x000000000000000000000000000000000000000000000000000000006785c6a000000000000000000000000000000000000000000000000000038dfdf28adbde0000000000000000000000000000000000000000000000000de0b6b3a7640000",
          "blockHash": "0x0e2b3ca0f333d1499bce6b83fa5230b03574d648f99541d6e3d85728f9ffbd6c",
          "blockNumber": "0x723c71",
          "transactionHash": "0xb3fdbcbc8b4b0a9376df0cd22889f037ac9e4d56c9c2bbd959359c130882fd9d",
          "transactionIndex": "0x4b",
          "logIndex": "0x6e",
          "removed": false
        }
      ],
      "logsBloom": "0x00000000000000000000000000000000000000000000000000000000000000000000000000000000000000000000000000000000000000004000000000000000000000000000000000000008000000000000000000000000000000000000000000000000020000000000000004000800020000000000000000000010000000000000000000000000000000000000000000000000000000000000010000000000000000000000000000000000000000004000000000000000000000000000020000000002000000800000008000000000000000000000080000000000000020000000000000000000000000000000000000000000000000000000000000000000",
      "type": "0x2",
      "transactionHash": "0xb3fdbcbc8b4b0a9376df0cd22889f037ac9e4d56c9c2bbd959359c130882fd9d",
      "transactionIndex": "0x4b",
      "blockHash": "0x0e2b3ca0f333d1499bce6b83fa5230b03574d648f99541d6e3d85728f9ffbd6c",
      "blockNumber": "0x723c71",
      "gasUsed": "0xf82c",
      "effectiveGasPrice": "0x194e8dd35",
      "from": "0xc77f7fed3b5cc8249adc428c5f44c9063b9734b4",
      "to": "0x5eb9cc76c3506942c1c0ead70e877dd5e4f00cb0",
      "contractAddress": null
    }
  ],
  "libraries": [],
  "pending": [],
  "returns": {},
  "timestamp": 1736820385,
  "chain": 11155111,
  "commit": "51a374b"
}