{
  "transactions": [
    {
      "hash": "0x304b1253f5f4fdd61d819deda24717a7429757930f6c1611ca3762c45145baeb",
      "transactionType": "CALL",
      "contractName": null,
      "contractAddress": "0x8aafd3ede9adb0ff97c7aebce82a919afb1c8764",
      "function": "buy(address)",
      "arguments": [
        "0xC77f7fed3b5Cc8249aDc428c5F44C9063B9734b4"
      ],
      "transaction": {
        "from": "0xc77f7fed3b5cc8249adc428c5f44c9063b9734b4",
        "to": "0x8aafd3ede9adb0ff97c7aebce82a919afb1c8764",
        "gas": "0x156ea",
        "value": "0xde0b6b3a7640000",
        "input": "0xf088d547000000000000000000000000c77f7fed3b5cc8249adc428c5f44c9063b9734b4",
        "nonce": "0x1627",
        "chainId": "0xaa36a7"
      },
      "additionalContracts": [],
      "isFixedGasLimit": false
    }
  ],
  "receipts": [
    {
      "status": "0x1",
      "cumulativeGasUsed": "0x616dd6",
      "logs": [
        {
          "address": "0x8aafd3ede9adb0ff97c7aebce82a919afb1c8764",
          "topics": [
            "0xddf252ad1be2c89b69c2b068fc378daa952ba7f163c4a11628f55a4df523b3ef",
            "0x0000000000000000000000000000000000000000000000000000000000000000",
            "0x000000000000000000000000c77f7fed3b5cc8249adc428c5f44c9063b9734b4"
          ],
          "data": "0x000000000000000000000000000000000000000000000009545943da5cf5b6f4",
          "blockHash": "0x8827799978bde8671e3b758dc0bc980e2e55f6d34a71ac4896809c5cf6ec580f",
          "blockNumber": "0x731dbd",
          "transactionHash": "0x304b1253f5f4fdd61d819deda24717a7429757930f6c1611ca3762c45145baeb",
          "transactionIndex": "0x49",
          "logIndex": "0x69",
          "removed": false
        },
        {
          "address": "0x8aafd3ede9adb0ff97c7aebce82a919afb1c8764",
          "topics": [
            "0xddf252ad1be2c89b69c2b068fc378daa952ba7f163c4a11628f55a4df523b3ef",
            "0x0000000000000000000000000000000000000000000000000000000000000000",
            "0x000000000000000000000000c77f7fed3b5cc8249adc428c5f44c9063b9734b4"
          ],
          "data": "0x000000000000000000000000000000000000000000000000073ea25c96a6693f",
          "blockHash": "0x8827799978bde8671e3b758dc0bc980e2e55f6d34a71ac4896809c5cf6ec580f",
          "blockNumber": "0x731dbd",
          "transactionHash": "0x304b1253f5f4fdd61d819deda24717a7429757930f6c1611ca3762c45145baeb",
          "transactionIndex": "0x49",
          "logIndex": "0x6a",
          "removed": false
        },
        {
          "address": "0x8aafd3ede9adb0ff97c7aebce82a919afb1c8764",
          "topics": [
            "0x4afcb4a87cdbd9974efdb92ee48bc8d7cd0ae4bf217004db3d080cbaee652ca7"
          ],
          "data": "0x00000000000000000000000000000000000000000000000000000000679061c40000000000000000000000000000000000000000000000000014769efe370d3a0000000000000000000000000000000000000000000000000de0b6b3a7640000",
          "blockHash": "0x8827799978bde8671e3b758dc0bc980e2e55f6d34a71ac4896809c5cf6ec580f",
          "blockNumber": "0x731dbd",
          "transactionHash": "0x304b1253f5f4fdd61d819deda24717a7429757930f6c1611ca3762c45145baeb",
          "transactionIndex": "0x49",
          "logIndex": "0x6b",
          "removed": false
        }
      ],
      "logsBloom": "0x00000000000000000000000000000000000000000600000000000000000000000000000000000000000000000000000000000000000000004000000000000000000000000000004000000008000000000000000000000000000000000000000000000000020000000000000000000800020000000000000000000010000000000000000000000000000000000000000000000000000000000000010000000000000000000000000000000000000000004000000000000000000000000000000000000002000000800000000000000000000000000000080000000000000020000000000000000000000000000000000000000000000000000000000000000000",
      "type": "0x2",
      "transactionHash": "0x304b1253f5f4fdd61d819deda24717a7429757930f6c1611ca3762c45145baeb",
      "transactionIndex": "0x49",
      "blockHash": "0x8827799978bde8671e3b758dc0bc980e2e55f6d34a71ac4896809c5cf6ec580f",
      "blockNumber": "0x731dbd",
      "gasUsed": "0xf844",
      "effectiveGasPrice": "0x63419472",
      "from": "0xc77f7fed3b5cc8249adc428c5f44c9063b9734b4",
      "to": "0x8aafd3ede9adb0ff97c7aebce82a919afb1c8764",
      "contractAddress": null
    }
  ],
  "libraries": [],
  "pending": [],
  "returns": {},
  "timestamp": 1737515460,
  "chain": 11155111,
  "commit": "1d2fb70"
}