{
  "transactions": [
    {
      "hash": "0x2760aa8215cb2e511190c782c40d4861424ddb4c0a8d27ec96ffc63347067af9",
      "transactionType": "CALL",
      "contractName": null,
      "contractAddress": "0x8aafd3ede9adb0ff97c7aebce82a919afb1c8764",
      "function": "sell(uint256)",
      "arguments": [
        "2713319195652"
      ],
      "transaction": {
        "from": "0xc77f7fed3b5cc8249adc428c5f44c9063b9734b4",
        "to": "0x8aafd3ede9adb0ff97c7aebce82a919afb1c8764",
        "gas": "0x15daa",
        "value": "0x0",
        "input": "0xe4849b3200000000000000000000000000000000000000000000000000000277be6d4404",
        "nonce": "0x12f7",
        "chainId": "0xaa36a7"
      },
      "additionalContracts": [],
      "isFixedGasLimit": false
    }
  ],
  "receipts": [
    {
      "status": "0x1",
      "cumulativeGasUsed": "0xbcdfa9",
      "logs": [
        {
          "address": "0x8aafd3ede9adb0ff97c7aebce82a919afb1c8764",
          "topics": [
            "0xddf252ad1be2c89b69c2b068fc378daa952ba7f163c4a11628f55a4df523b3ef",
            "0x000000000000000000000000c77f7fed3b5cc8249adc428c5f44c9063b9734b4",
            "0x0000000000000000000000000000000000000000000000000000000000000000"
          ],
          "data": "0x00000000000000000000000000000000000000000000000000000272b09d8b27",
          "blockHash": "0x95606fdd74d5dfc05985e22b600f26e5c6375217c7d7d15040186914f21f0ac4",
          "blockNumber": "0x7319fe",
          "transactionHash": "0x2760aa8215cb2e511190c782c40d4861424ddb4c0a8d27ec96ffc63347067af9",
          "transactionIndex": "0x81",
          "logIndex": "0xac",
          "removed": false
        },
        {
          "address": "0x8aafd3ede9adb0ff97c7aebce82a919afb1c8764",
          "topics": [
            "0xddf252ad1be2c89b69c2b068fc378daa952ba7f163c4a11628f55a4df523b3ef",
            "0x000000000000000000000000c77f7fed3b5cc8249adc428c5f44c9063b9734b4",
            "0x000000000000000000000000c77f7fed3b5cc8249adc428c5f44c9063b9734b4"
          ],
          "data": "0x000000000000000000000000000000000000000000000000000000050dcfb8dd",
          "blockHash": "0x95606fdd74d5dfc05985e22b600f26e5c6375217c7d7d15040186914f21f0ac4",
          "blockNumber": "0x7319fe",
          "transactionHash": "0x2760aa8215cb2e511190c782c40d4861424ddb4c0a8d27ec96ffc63347067af9",
          "transactionIndex": "0x81",
          "logIndex": "0xad",
          "removed": false
        },
        {
          "address": "0x8aafd3ede9adb0ff97c7aebce82a919afb1c8764",
          "topics": [
            "0x4afcb4a87cdbd9974efdb92ee48bc8d7cd0ae4bf217004db3d080cbaee652ca7"
          ],
          "data": "0x00000000000000000000000000000000000000000000000000000000679034b8000000000000000000000000000000000000000000000000000554cfa80ab82400000000000000000000000000000000000000000000000000000000f2b0dacb",
          "blockHash": "0x95606fdd74d5dfc05985e22b600f26e5c6375217c7d7d15040186914f21f0ac4",
          "blockNumber": "0x7319fe",
          "transactionHash": "0x2760aa8215cb2e511190c782c40d4861424ddb4c0a8d27ec96ffc63347067af9",
          "transactionIndex": "0x81",
          "logIndex": "0xae",
          "removed": false
        }
      ],
      "logsBloom": "0x00000000000000000000000000000000000000000600000000000000000000000000000000000000000000000000000000000000000000004000000000000000000000000000004000000008000000000000000000000000000000000000000000000000020000000000000000000800020000000000000000000010000000000000000000000000000000000000000000000000000000000000010000000000000000000000000000000000000000004000000000000000000000000000000000000002000000800000000000000000000000000000080000000000000020000000000000000000000000000000000000000000000000000000000000000000",
      "type": "0x2",
      "transactionHash": "0x2760aa8215cb2e511190c782c40d4861424ddb4c0a8d27ec96ffc63347067af9",
      "transactionIndex": "0x81",
      "blockHash": "0x95606fdd74d5dfc05985e22b600f26e5c6375217c7d7d15040186914f21f0ac4",
      "blockNumber": "0x7319fe",
      "gasUsed": "0xfd27",
      "effectiveGasPrice": "0x3f346233",
      "from": "0xc77f7fed3b5cc8249adc428c5f44c9063b9734b4",
      "to": "0x8aafd3ede9adb0ff97c7aebce82a919afb1c8764",
      "contractAddress": null
    }
  ],
  "libraries": [],
  "pending": [],
  "returns": {},
  "timestamp": 1737503928,
  "chain": 11155111,
  "commit": "1d2fb70"
}