{
  "transactions": [
    {
      "hash": "0x08b0f0ba87f738b241dabc7174347199bdbee0b9d13e6803296a4986642f9602",
      "transactionType": "CALL",
      "contractName": null,
      "contractAddress": "0x8aafd3ede9adb0ff97c7aebce82a919afb1c8764",
      "function": "sell(uint256)",
      "arguments": [
        "699718310494171571870"
      ],
      "transaction": {
        "from": "0xc77f7fed3b5cc8249adc428c5f44c9063b9734b4",
        "to": "0x8aafd3ede9adb0ff97c7aebce82a919afb1c8764",
        "gas": "0x17270",
        "value": "0x0",
        "input": "0xe4849b32000000000000000000000000000000000000000000000025ee8ad020c194269e",
        "nonce": "0x10ff",
        "chainId": "0xaa36a7"
      },
      "additionalContracts": [],
      "isFixedGasLimit": false
    }
  ],
  "receipts": [
    {
      "status": "0x1",
      "cumulativeGasUsed": "0xf6f92f",
      "logs": [
        {
          "address": "0x8aafd3ede9adb0ff97c7aebce82a919afb1c8764",
          "topics": [
            "0xddf252ad1be2c89b69c2b068fc378daa952ba7f163c4a11628f55a4df523b3ef",
            "0x000000000000000000000000c77f7fed3b5cc8249adc428c5f44c9063b9734b4",
            "0x0000000000000000000000000000000000000000000000000000000000000000"
          ],
          "data": "0x000000000000000000000000000000000000000000000025a0db9f5be2d89900",
          "blockHash": "0xbbadfc59af567844fd36b0d6a07f1cbbca63af2c5cadc208c9cb9454d95ac390",
          "blockNumber": "0x7317ad",
          "transactionHash": "0x08b0f0ba87f738b241dabc7174347199bdbee0b9d13e6803296a4986642f9602",
          "transactionIndex": "0xc5",
          "logIndex": "0x115",
          "removed": false
        },
        {
          "address": "0x8aafd3ede9adb0ff97c7aebce82a919afb1c8764",
          "topics": [
            "0xddf252ad1be2c89b69c2b068fc378daa952ba7f163c4a11628f55a4df523b3ef",
            "0x000000000000000000000000c77f7fed3b5cc8249adc428c5f44c9063b9734b4",
            "0x000000000000000000000000c77f7fed3b5cc8249adc428c5f44c9063b9734b4"
          ],
          "data": "0x0000000000000000000000000000000000000000000000004daf30c4debb8d9e",
          "blockHash": "0xbbadfc59af567844fd36b0d6a07f1cbbca63af2c5cadc208c9cb9454d95ac390",
          "blockNumber": "0x7317ad",
          "transactionHash": "0x08b0f0ba87f738b241dabc7174347199bdbee0b9d13e6803296a4986642f9602",
          "transactionIndex": "0xc5",
          "logIndex": "0x116",
          "removed": false
        },
        {
          "address": "0x8aafd3ede9adb0ff97c7aebce82a919afb1c8764",
          "topics": [
            "0x4afcb4a87cdbd9974efdb92ee48bc8d7cd0ae4bf217004db3d080cbaee652ca7"
          ],
          "data": "0x00000000000000000000000000000000000000000000000000000000679018e000000000000000000000000000000000000000000000000000050c269294eacd0000000000000000000000000000000000000000000000000dc8f98a9a5ff29c",
          "blockHash": "0xbbadfc59af567844fd36b0d6a07f1cbbca63af2c5cadc208c9cb9454d95ac390",
          "blockNumber": "0x7317ad",
          "transactionHash": "0x08b0f0ba87f738b241dabc7174347199bdbee0b9d13e6803296a4986642f9602",
          "transactionIndex": "0xc5",
          "logIndex": "0x117",
          "removed": false
        }
      ],
      "logsBloom": "0x00000000000000000000000000000000000000000600000000000000000000000000000000000000000000000000000000000000000000004000000000000000000000000000004000000008000000000000000000000000000000000000000000000000020000000000000000000800020000000000000000000010000000000000000000000000000000000000000000000000000000000000010000000000000000000000000000000000000000004000000000000000000000000000000000000002000000800000000000000000000000000000080000000000000020000000000000000000000000000000000000000000000000000000000000000000",
      "type": "0x2",
      "transactionHash": "0x08b0f0ba87f738b241dabc7174347199bdbee0b9d13e6803296a4986642f9602",
      "transactionIndex": "0xc5",
      "blockHash": "0xbbadfc59af567844fd36b0d6a07f1cbbca63af2c5cadc208c9cb9454d95ac390",
      "blockNumber": "0x7317ad",
      "gasUsed": "0xfd4b",
      "effectiveGasPrice": "0x39b3ff63",
      "from": "0xc77f7fed3b5cc8249adc428c5f44c9063b9734b4",
      "to": "0x8aafd3ede9adb0ff97c7aebce82a919afb1c8764",
      "contractAddress": null
    }
  ],
  "libraries": [],
  "pending": [],
  "returns": {},
  "timestamp": 1737496801,
  "chain": 11155111,
  "commit": "1d2fb70"
}