{
  "transactions": [
    {
      "hash": "0xda290da6dc8c05c3f7fc2e3ab44cfe7a278d6f0b232ae5059811307dd3a78561",
      "transactionType": "CALL",
      "contractName": null,
      "contractAddress": "0xbf4a322f1496e5c3d34a9bcdb4c60567b38c7de2",
      "function": "sell(uint256)",
      "arguments": [
        "984463704404835662531"
      ],
      "transaction": {
        "from": "0xc77f7fed3b5cc8249adc428c5f44c9063b9734b4",
        "to": "0xbf4a322f1496e5c3d34a9bcdb4c60567b38c7de2",
        "gas": "0x16fea",
        "value": "0x0",
        "input": "0xe4849b320000000000000000000000000000000000000000000000355e2dab3e73637ac3",
        "nonce": "0xacd",
        "chainId": "0xaa36a7"
      },
      "additionalContracts": [],
      "isFixedGasLimit": false
    }
  ],
  "receipts": [
    {
      "status": "0x1",
      "cumulativeGasUsed": "0xb8c0bd",
      "logs": [
        {
          "address": "0xbf4a322f1496e5c3d34a9bcdb4c60567b38c7de2",
          "topics": [
            "0xddf252ad1be2c89b69c2b068fc378daa952ba7f163c4a11628f55a4df523b3ef",
            "0x000000000000000000000000c77f7fed3b5cc8249adc428c5f44c9063b9734b4",
            "0x0000000000000000000000000000000000000000000000000000000000000000"
          ],
          "data": "0x0000000000000000000000000000000000000000000000355e2dab3e73637ac3",
          "blockHash": "0xc06623202010650e917ff85be415c9510a9b1b80f8cf15186c96af1447a01da6",
          "blockNumber": "0x725abd",
          "transactionHash": "0xda290da6dc8c05c3f7fc2e3ab44cfe7a278d6f0b232ae5059811307dd3a78561",
          "transactionIndex": "0x64",
          "logIndex": "0x74",
          "removed": false
        },
        {
          "address": "0xbf4a322f1496e5c3d34a9bcdb4c60567b38c7de2",
          "topics": [
            "0x4afcb4a87cdbd9974efdb92ee48bc8d7cd0ae4bf217004db3d080cbaee652ca7"
          ],
          "data": "0x000000000000000000000000000000000000000000000000000000006787332c00000000000000000000000000000000000000000000000000039568b20626ca0000000000000000000000000000000000000000000000000dc7e3ec71cb4bc5",
          "blockHash": "0xc06623202010650e917ff85be415c9510a9b1b80f8cf15186c96af1447a01da6",
          "blockNumber": "0x725abd",
          "transactionHash": "0xda290da6dc8c05c3f7fc2e3ab44cfe7a278d6f0b232ae5059811307dd3a78561",
          "transactionIndex": "0x64",
          "logIndex": "0x75",
          "removed": false
        }
      ],
      "logsBloom": "0x00000000000000000000000000000000000000000000000000000000000000000000000000000000000000000000000000000000000000004000000000000000000000000000000000000008000000000000001000000000000000000000000000000000020000000000000000000800020000000000000000000010000000000000000000000000000000000000000000000000000008000000010000000000000000000000000000000000000000004000000000000000000000000000000000000002000000800000000000001000000000000000080000000000000020000000000000000000000000000000000000000000000000000000000000000000",
      "type": "0x2",
      "transactionHash": "0xda290da6dc8c05c3f7fc2e3ab44cfe7a278d6f0b232ae5059811307dd3a78561",
      "transactionIndex": "0x64",
      "blockHash": "0xc06623202010650e917ff85be415c9510a9b1b80f8cf15186c96af1447a01da6",
      "blockNumber": "0x725abd",
      "gasUsed": "0xfb91",
      "effectiveGasPrice": "0xdd87f0c4",
      "from": "0xc77f7fed3b5cc8249adc428c5f44c9063b9734b4",
      "to": "0xbf4a322f1496e5c3d34a9bcdb4c60567b38c7de2",
      "contractAddress": null
    }
  ],
  "libraries": [],
  "pending": [],
  "returns": {},
  "timestamp": 1736913709,
  "chain": 11155111,
  "commit": "51a374b"
}