{
  "transactions": [
    {
      "hash": "0x8f71b6d85a0907bfd27103877ba656db98ef4ead94da82af4f5c41147a4aa48c",
      "transactionType": "CALL",
      "contractName": null,
      "contractAddress": "0x8aafd3ede9adb0ff97c7aebce82a919afb1c8764",
      "function": "sell(uint256)",
      "arguments": [
        "528164"
      ],
      "transaction": {
        "from": "0xc77f7fed3b5cc8249adc428c5f44c9063b9734b4",
        "to": "0x8aafd3ede9adb0ff97c7aebce82a919afb1c8764",
        "gas": "0x16208",
        "value": "0x0",
        "input": "0xe4849b320000000000000000000000000000000000000000000000000000000000080f24",
        "nonce": "0x1401",
        "chainId": "0xaa36a7"
      },
      "additionalContracts": [],
      "isFixedGasLimit": false
    }
  ],
  "receipts": [
    {
      "status": "0x1",
      "cumulativeGasUsed": "0x975cb0",
      "logs": [
        {
          "address": "0x8aafd3ede9adb0ff97c7aebce82a919afb1c8764",
          "topics": [
            "0xddf252ad1be2c89b69c2b068fc378daa952ba7f163c4a11628f55a4df523b3ef",
            "0x000000000000000000000000c77f7fed3b5cc8249adc428c5f44c9063b9734b4",
            "0x0000000000000000000000000000000000000000000000000000000000000000"
          ],
          "data": "0x000000000000000000000000000000000000000000000000000000000007fea3",
          "blockHash": "0x434f334371434d4bad6ac4e7012453a13d9f0429cb29bb86c8b01918f189c838",
          "blockNumber": "0x731b38",
          "transactionHash": "0x8f71b6d85a0907bfd27103877ba656db98ef4ead94da82af4f5c41147a4aa48c",
          "transactionIndex": "0x57",
          "logIndex": "0x5b",
          "removed": false
        },
        {
          "address": "0x8aafd3ede9adb0ff97c7aebce82a919afb1c8764",
          "topics": [
            "0xddf252ad1be2c89b69c2b068fc378daa952ba7f163c4a11628f55a4df523b3ef",
            "0x000000000000000000000000c77f7fed3b5cc8249adc428c5f44c9063b9734b4",
            "0x000000000000000000000000c77f7fed3b5cc8249adc428c5f44c9063b9734b4"
          ],
          "data": "0x0000000000000000000000000000000000000000000000000000000000001081",
          "blockHash": "0x434f334371434d4bad6ac4e7012453a13d9f0429cb29bb86c8b01918f189c838",
          "blockNumber": "0x731b38",
          "transactionHash": "0x8f71b6d85a0907bfd27103877ba656db98ef4ead94da82af4f5c41147a4aa48c",
          "transactionIndex": "0x57",
          "logIndex": "0x5c",
          "removed": false
        },
        {
          "address": "0x8aafd3ede9adb0ff97c7aebce82a919afb1c8764",
          "topics": [
            "0x4afcb4a87cdbd9974efdb92ee48bc8d7cd0ae4bf217004db3d080cbaee652ca7"
          ],
          "data": "0x0000000000000000000000000000000000000000000000000000000067904370000000000000000000000000000000000000000000000000000e1c44b93a1dff0000000000000000000000000000000000000000000000000000000000000831",
          "blockHash": "0x434f334371434d4bad6ac4e7012453a13d9f0429cb29bb86c8b01918f189c838",
          "blockNumber": "0x731b38",
          "transactionHash": "0x8f71b6d85a0907bfd27103877ba656db98ef4ead94da82af4f5c41147a4aa48c",
          "transactionIndex": "0x57",
          "logIndex": "0x5d",
          "removed": false
        }
      ],
      "logsBloom": "0x00000000000000000000000000000000000000000600000000000000000000000000000000000000000000000000000000000000000000004000000000000000000000000000004000000008000000000000000000000000000000000000000000000000020000000000000000000800020000000000000000000010000000000000000000000000000000000000000000000000000000000000010000000000000000000000000000000000000000004000000000000000000000000000000000000002000000800000000000000000000000000000080000000000000020000000000000000000000000000000000000000000000000000000000000000000",
      "type": "0x2",
      "transactionHash": "0x8f71b6d85a0907bfd27103877ba656db98ef4ead94da82af4f5c41147a4aa48c",
      "transactionIndex": "0x57",
      "blockHash": "0x434f334371434d4bad6ac4e7012453a13d9f0429cb29bb86c8b01918f189c838",
      "blockNumber": "0x731b38",
      "gasUsed": "0xf213",
      "effectiveGasPrice": "0xb99b325a",
      "from": "0xc77f7fed3b5cc8249adc428c5f44c9063b9734b4",
      "to": "0x8aafd3ede9adb0ff97c7aebce82a919afb1c8764",
      "contractAddress": null
    }
  ],
  "libraries": [],
  "pending": [],
  "returns": {},
  "timestamp": 1737507696,
  "chain": 11155111,
  "commit": "1d2fb70"
}