{
  "transactions": [
    {
      "hash": "0x1319e700cfa4436640dedcab53efa23cf54a3e879a23fcb58f54d62cd775daea",
      "transactionType": "CALL",
      "contractName": null,
      "contractAddress": "0x8aafd3ede9adb0ff97c7aebce82a919afb1c8764",
      "function": "sell(uint256)",
      "arguments": [
        "72360702"
      ],
      "transaction": {
        "from": "0xc77f7fed3b5cc8249adc428c5f44c9063b9734b4",
        "to": "0x8aafd3ede9adb0ff97c7aebce82a919afb1c8764",
        "gas": "0x15d88",
        "value": "0x0",
        "input": "0xe4849b3200000000000000000000000000000000000000000000000000000000045022fe",
        "nonce": "0x1394",
        "chainId": "0xaa36a7"
      },
      "additionalContracts": [],
      "isFixedGasLimit": false
    }
  ],
  "receipts": [
    {
      "status": "0x1",
      "cumulativeGasUsed": "0xc2f45f",
      "logs": [
        {
          "address": "0x8aafd3ede9adb0ff97c7aebce82a919afb1c8764",
          "topics": [
            "0xddf252ad1be2c89b69c2b068fc378daa952ba7f163c4a11628f55a4df523b3ef",
            "0x000000000000000000000000c77f7fed3b5cc8249adc428c5f44c9063b9734b4",
            "0x0000000000000000000000000000000000000000000000000000000000000000"
          ],
          "data": "0x0000000000000000000000000000000000000000000000000000000004474db9",
          "blockHash": "0x136f07e32a9291d0b92a32e1c2cad29d25da6da81a5e618cb4b9d8cff438bf3d",
          "blockNumber": "0x731ab8",
          "transactionHash": "0x1319e700cfa4436640dedcab53efa23cf54a3e879a23fcb58f54d62cd775daea",
          "transactionIndex": "0x8e",
          "logIndex": "0x9d",
          "removed": false
        },
        {
          "address": "0x8aafd3ede9adb0ff97c7aebce82a919afb1c8764",
          "topics": [
            "0xddf252ad1be2c89b69c2b068fc378daa952ba7f163c4a11628f55a4df523b3ef",
            "0x000000000000000000000000c77f7fed3b5cc8249adc428c5f44c9063b9734b4",
            "0x000000000000000000000000c77f7fed3b5cc8249adc428c5f44c9063b9734b4"
          ],
          "data": "0x000000000000000000000000000000000000000000000000000000000008d545",
          "blockHash": "0x136f07e32a9291d0b92a32e1c2cad29d25da6da81a5e618cb4b9d8cff438bf3d",
          "blockNumber": "0x731ab8",
          "transactionHash": "0x1319e700cfa4436640dedcab53efa23cf54a3e879a23fcb58f54d62cd775daea",
          "transactionIndex": "0x8e",
          "logIndex": "0x9e",
          "removed": false
        },
        {
          "address": "0x8aafd3ede9adb0ff97c7aebce82a919afb1c8764",
          "topics": [
            "0x4afcb4a87cdbd9974efdb92ee48bc8d7cd0ae4bf217004db3d080cbaee652ca7"
          ],
          "data": "0x0000000000000000000000000000000000000000000000000000000067903d70000000000000000000000000000000000000000000000000000ce1ec5deed5b100000000000000000000000000000000000000000000000000000000000400f3",
          "blockHash": "0x136f07e32a9291d0b92a32e1c2cad29d25da6da81a5e618cb4b9d8cff438bf3d",
          "blockNumber": "0x731ab8",
          "transactionHash": "0x1319e700cfa4436640dedcab53efa23cf54a3e879a23fcb58f54d62cd775daea",
          "transactionIndex": "0x8e",
          "logIndex": "0x9f",
          "removed": false
        }
      ],
      "logsBloom": "0x00000000000000000000000000000000000000000600000000000000000000000000000000000000000000000000000000000000000000004000000000000000000000000000004000000008000000000000000000000000000000000000000000000000020000000000000000000800020000000000000000000010000000000000000000000000000000000000000000000000000000000000010000000000000000000000000000000000000000004000000000000000000000000000000000000002000000800000000000000000000000000000080000000000000020000000000000000000000000000000000000000000000000000000000000000000",
      "type": "0x2",
      "transactionHash": "0x1319e700cfa4436640dedcab53efa23cf54a3e879a23fcb58f54d62cd775daea",
      "transactionIndex": "0x8e",
      "blockHash": "0x136f07e32a9291d0b92a32e1c2cad29d25da6da81a5e618cb4b9d8cff438bf3d",
      "blockNumber": "0x731ab8",
      "gasUsed": "0xfd0f",
      "effectiveGasPrice": "0x74e36e3a",
      "from": "0xc77f7fed3b5cc8249adc428c5f44c9063b9734b4",
      "to": "0x8aafd3ede9adb0ff97c7aebce82a919afb1c8764",
      "contractAddress": null
    }
  ],
  "libraries": [],
  "pending": [],
  "returns": {},
  "timestamp": 1737506162,
  "chain": 11155111,
  "commit": "1d2fb70"
}