{
  "transactions": [
    {
      "hash": "0x2fdacee76b63cdf7446902b8d5ab052aa48f6c486b6b683d85652e79adacc9fa",
      "transactionType": "CALL",
      "contractName": null,
      "contractAddress": "0x5eb9cc76c3506942c1c0ead70e877dd5e4f00cb0",
      "function": "buy(address)",
      "arguments": [
        "0xC77f7fed3b5Cc8249aDc428c5F44C9063B9734b4"
      ],
      "transaction": {
        "from": "0xc77f7fed3b5cc8249adc428c5f44c9063b9734b4",
        "to": "0x5eb9cc76c3506942c1c0ead70e877dd5e4f00cb0",
        "gas": "0x156c8",
        "value": "0xde0b6b3a7640000",
        "input": "0xf088d547000000000000000000000000c77f7fed3b5cc8249adc428c5f44c9063b9734b4",
        "nonce": "0x1a4",
        "chainId": "0xaa36a7"
      },
      "additionalContracts": [],
      "isFixedGasLimit": false
    }
  ],
  "receipts": [
    {
      "status": "0x1",
      "cumulativeGasUsed": "0xa0de29",
      "logs": [
        {
          "address": "0x5eb9cc76c3506942c1c0ead70e877dd5e4f00cb0",
          "topics": [
            "0xddf252ad1be2c89b69c2b068fc378daa952ba7f163c4a11628f55a4df523b3ef",
            "0x0000000000000000000000000000000000000000000000000000000000000000",
            "0x000000000000000000000000c77f7fed3b5cc8249adc428c5f44c9063b9734b4"
          ],
          "data": "0x000000000000000000000000000000000000000000000035a377818fd5e97cc3",
          "blockHash": "0x3eedc4d6ac0d955ceebdda77fd0a06cae9393793b629fca3fa7035385edbdbdf",
          "blockNumber": "0x723c8b",
          "transactionHash": "0x2fdacee76b63cdf7446902b8d5ab052aa48f6c486b6b683d85652e79adacc9fa",
          "transactionIndex": "0x71",
          "logIndex": "0x92",
          "removed": false
        },
        {
          "address": "0x5eb9cc76c3506942c1c0ead70e877dd5e4f00cb0",
          "topics": [
            "0xddf252ad1be2c89b69c2b068fc378daa952ba7f163c4a11628f55a4df523b3ef",
            "0x0000000000000000000000000000000000000000000000000000000000000000",
            "0x000000000000000000000000c77f7fed3b5cc8249adc428c5f44c9063b9734b4"
          ],
          "data": "0x00000000000000000000000000000000000000000000000029a6f3ce2dd3df04",
          "blockHash": "0x3eedc4d6ac0d955ceebdda77fd0a06cae9393793b629fca3fa7035385edbdbdf",
          "blockNumber": "0x723c8b",
          "transactionHash": "0x2fdacee76b63cdf7446902b8d5ab052aa48f6c486b6b683d85652e79adacc9fa",
          "transactionIndex": "0x71",
          "logIndex": "0x93",
          "removed": false
        },
        {
          "address": "0x5eb9cc76c3506942c1c0ead70e877dd5e4f00cb0",
          "topics": [
            "0x4afcb4a87cdbd9974efdb92ee48bc8d7cd0ae4bf217004db3d080cbaee652ca7"
          ],
          "data": "0x000000000000000000000000000000000000000000000000000000006785c7d800000000000000000000000000000000000000000000000000038dfe925a25a70000000000000000000000000000000000000000000000000de0b6b3a7640000",
          "blockHash": "0x3eedc4d6ac0d955ceebdda77fd0a06cae9393793b629fca3fa7035385edbdbdf",
          "blockNumber": "0x723c8b",
          "transactionHash": "0x2fdacee76b63cdf7446902b8d5ab052aa48f6c486b6b683d85652e79adacc9fa",
          "transactionIndex": "0x71",
          "logIndex": "0x94",
          "removed": false
        }
      ],
      "logsBloom": "0x00000000000000000000000000000000000000000000000000000000000000000000000000000000000000000000000000000000000000004000000000000000000000000000000000000008000000000000000000000000000000000000000000000000020000000000000004000800020000000000000000000010000000000000000000000000000000000000000000000000000000000000010000000000000000000000000000000000000000004000000000000000000000000000020000000002000000800000008000000000000000000000080000000000000020000000000000000000000000000000000000000000000000000000000000000000",
      "type": "0x2",
      "transactionHash": "0x2fdacee76b63cdf7446902b8d5ab052aa48f6c486b6b683d85652e79adacc9fa",
      "transactionIndex": "0x71",
      "blockHash": "0x3eedc4d6ac0d955ceebdda77fd0a06cae9393793b629fca3fa7035385edbdbdf",
      "blockNumber": "0x723c8b",
      "gasUsed": "0xf82c",
      "effectiveGasPrice": "0x1b8c0ec5c",
      "from": "0xc77f7fed3b5cc8249adc428c5f44c9063b9734b4",
      "to": "0x5eb9cc76c3506942c1c0ead70e877dd5e4f00cb0",
      "contractAddress": null
    }
  ],
  "libraries": [],
  "pending": [],
  "returns": {},
  "timestamp": 1736820698,
  "chain": 11155111,
  "commit": "51a374b"
}