{
  "transactions": [
    {
      "hash": "0x60040a13a136a5baf07f078941a522bb2371044f5a9bdb438bfc2442e2c17a77",
      "transactionType": "CALL",
      "contractName": null,
      "contractAddress": "0x8aafd3ede9adb0ff97c7aebce82a919afb1c8764",
      "function": "buy(address)",
      "arguments": [
        "0xC77f7fed3b5Cc8249aDc428c5F44C9063B9734b4"
      ],
      "transaction": {
        "from": "0xc77f7fed3b5cc8249adc428c5f44c9063b9734b4",
        "to": "0x8aafd3ede9adb0ff97c7aebce82a919afb1c8764",
        "gas": "0x156ea",
        "value": "0xde0b6b3a7640000",
        "input": "0xf088d547000000000000000000000000c77f7fed3b5cc8249adc428c5f44c9063b9734b4",
        "nonce": "0x161e",
        "chainId": "0xaa36a7"
      },
      "additionalContracts": [],
      "isFixedGasLimit": false
    }
  ],
  "receipts": [
    {
      "status": "0x1",
      "cumulativeGasUsed": "0x92262f",
      "logs": [
        {
          "address": "0x8aafd3ede9adb0ff97c7aebce82a919afb1c8764",
          "topics": [
            "0xddf252ad1be2c89b69c2b068fc378daa952ba7f163c4a11628f55a4df523b3ef",
            "0x0000000000000000000000000000000000000000000000000000000000000000",
            "0x000000000000000000000000c77f7fed3b5cc8249adc428c5f44c9063b9734b4"
          ],
          "data": "0x00000000000000000000000000000000000000000000000960a35ab2428b2fcc",
          "blockHash": "0xfbf648504d6f9932e3e3bb224e6762b2f975a6889cca3cd9d31cec5ad7717c54",
          "blockNumber": "0x731db4",
          "transactionHash": "0x60040a13a136a5baf07f078941a522bb2371044f5a9bdb438bfc2442e2c17a77",
          "transactionIndex": "0x52",
          "logIndex": "0x61",
          "removed": false
        },
        {
          "address": "0x8aafd3ede9adb0ff97c7aebce82a919afb1c8764",
          "topics": [
            "0xddf252ad1be2c89b69c2b068fc378daa952ba7f163c4a11628f55a4df523b3ef",
            "0x0000000000000000000000000000000000000000000000000000000000000000",
            "0x000000000000000000000000c77f7fed3b5cc8249adc428c5f44c9063b9734b4"
          ],
          "data": "0x00000000000000000000000000000000000000000000000007482d68432b8f04",
          "blockHash": "0xfbf648504d6f9932e3e3bb224e6762b2f975a6889cca3cd9d31cec5ad7717c54",
          "blockNumber": "0x731db4",
          "transactionHash": "0x60040a13a136a5baf07f078941a522bb2371044f5a9bdb438bfc2442e2c17a77",
          "transactionIndex": "0x52",
          "logIndex": "0x62",
          "removed": false
        },
        {
          "address": "0x8aafd3ede9adb0ff97c7aebce82a919afb1c8764",
          "topics": [
            "0x4afcb4a87cdbd9974efdb92ee48bc8d7cd0ae4bf217004db3d080cbaee652ca7"
          ],
          "data": "0x000000000000000000000000000000000000000000000000000000006790615800000000000000000000000000000000000000000000000000145bd4e02433f60000000000000000000000000000000000000000000000000de0b6b3a7640000",
          "blockHash": "0xfbf648504d6f9932e3e3bb224e6762b2f975a6889cca3cd9d31cec5ad7717c54",
          "blockNumber": "0x731db4",
          "transactionHash": "0x60040a13a136a5baf07f078941a522bb2371044f5a9bdb438bfc2442e2c17a77",
          "transactionIndex": "0x52",
          "logIndex": "0x63",
          "removed": false
        }
      ],
      "logsBloom": "0x00000000000000000000000000000000000000000600000000000000000000000000000000000000000000000000000000000000000000004000000000000000000000000000004000000008000000000000000000000000000000000000000000000000020000000000000000000800020000000000000000000010000000000000000000000000000000000000000000000000000000000000010000000000000000000000000000000000000000004000000000000000000000000000000000000002000000800000000000000000000000000000080000000000000020000000000000000000000000000000000000000000000000000000000000000000",
      "type": "0x2",
      "transactionHash": "0x60040a13a136a5baf07f078941a522bb2371044f5a9bdb438bfc2442e2c17a77",
      "transactionIndex": "0x52",
      "blockHash": "0xfbf648504d6f9932e3e3bb224e6762b2f975a6889cca3cd9d31cec5ad7717c54",
      "blockNumber": "0x731db4",
      "gasUsed": "0xf844",
      "effectiveGasPrice": "0x69857c2c",
      "from": "0xc77f7fed3b5cc8249adc428c5f44c9063b9734b4",
      "to": "0x8aafd3ede9adb0ff97c7aebce82a919afb1c8764",
      "contractAddress": null
    }
  ],
  "libraries": [],
  "pending": [],
  "returns": {},
  "timestamp": 1737515353,
  "chain": 11155111,
  "commit": "1d2fb70"
}