{
  "transactions": [
    {
      "hash": "0x902a023c56d51cc836490031656688c0ca6ec58b6af73246299208e47bf5b79a",
      "transactionType": "CALL",
      "contractName": null,
      "contractAddress": "0x8aafd3ede9adb0ff97c7aebce82a919afb1c8764",
      "function": "sell(uint256)",
      "arguments": [
        "297338548567553062226"
      ],
      "transaction": {
        "from": "0xc77f7fed3b5cc8249adc428c5f44c9063b9734b4",
        "to": "0x8aafd3ede9adb0ff97c7aebce82a919afb1c8764",
        "gas": "0x17270",
        "value": "0x0",
        "input": "0xe4849b320000000000000000000000000000000000000000000000101e66ba8e173bb552",
        "nonce": "0x133d",
        "chainId": "0xaa36a7"
      },
      "additionalContracts": [],
      "isFixedGasLimit": false
    }
  ],
  "receipts": [
    {
      "status": "0x1",
      "cumulativeGasUsed": "0xa908e0",
      "logs": [
        {
          "address": "0x8aafd3ede9adb0ff97c7aebce82a919afb1c8764",
          "topics": [
            "0xddf252ad1be2c89b69c2b068fc378daa952ba7f163c4a11628f55a4df523b3ef",
            "0x000000000000000000000000c77f7fed3b5cc8249adc428c5f44c9063b9734b4",
            "0x0000000000000000000000000000000000000000000000000000000000000000"
          ],
          "data": "0x00000000000000000000000000000000000000000000000ffd63dbe0ec0a1421",
          "blockHash": "0x33d9b39489bf6dcfa072d7990fee413f76723bf5daa2a0de82561557228a4f96",
          "blockNumber": "0x731a56",
          "transactionHash": "0x902a023c56d51cc836490031656688c0ca6ec58b6af73246299208e47bf5b79a",
          "transactionIndex": "0x79",
          "logIndex": "0xb2",
          "removed": false
        },
        {
          "address": "0x8aafd3ede9adb0ff97c7aebce82a919afb1c8764",
          "topics": [
            "0xddf252ad1be2c89b69c2b068fc378daa952ba7f163c4a11628f55a4df523b3ef",
            "0x000000000000000000000000c77f7fed3b5cc8249adc428c5f44c9063b9734b4",
            "0x000000000000000000000000c77f7fed3b5cc8249adc428c5f44c9063b9734b4"
          ],
          "data": "0x0000000000000000000000000000000000000000000000002102dead2b31a131",
          "blockHash": "0x33d9b39489bf6dcfa072d7990fee413f76723bf5daa2a0de82561557228a4f96",
          "blockNumber": "0x731a56",
          "transactionHash": "0x902a023c56d51cc836490031656688c0ca6ec58b6af73246299208e47bf5b79a",
          "transactionIndex": "0x79",
          "logIndex": "0xb3",
          "removed": false
        },
        {
          "address": "0x8aafd3ede9adb0ff97c7aebce82a919afb1c8764",
          "topics": [
            "0x4afcb4a87cdbd9974efdb92ee48bc8d7cd0ae4bf217004db3d080cbaee652ca7"
          ],
          "data": "0x00000000000000000000000000000000000000000000000000000000679038d8000000000000000000000000000000000000000000000000000bf7365bbb64cf0000000000000000000000000000000000000000000000000dcec527f85067af",
          "blockHash": "0x33d9b39489bf6dcfa072d7990fee413f76723bf5daa2a0de82561557228a4f96",
          "blockNumber": "0x731a56",
          "transactionHash": "0x902a023c56d51cc836490031656688c0ca6ec58b6af73246299208e47bf5b79a",
          "transactionIndex": "0x79",
          "logIndex": "0xb4",
          "removed": false
        }
      ],
      "logsBloom": "0x00000000000000000000000000000000000000000600000000000000000000000000000000000000000000000000000000000000000000004000000000000000000000000000004000000008000000000000000000000000000000000000000000000000020000000000000000000800020000000000000000000010000000000000000000000000000000000000000000000000000000000000010000000000000000000000000000000000000000004000000000000000000000000000000000000002000000800000000000000000000000000000080000000000000020000000000000000000000000000000000000000000000000000000000000000000",
      "type": "0x2",
      "transactionHash": "0x902a023c56d51cc836490031656688c0ca6ec58b6af73246299208e47bf5b79a",
      "transactionIndex": "0x79",
      "blockHash": "0x33d9b39489bf6dcfa072d7990fee413f76723bf5daa2a0de82561557228a4f96",
      "blockNumber": "0x731a56",
      "gasUsed": "0xfd4b",
      "effectiveGasPrice": "0x4066d1d0",
      "from": "0xc77f7fed3b5cc8249adc428c5f44c9063b9734b4",
      "to": "0x8aafd3ede9adb0ff97c7aebce82a919afb1c8764",
      "contractAddress": null
    }
  ],
  "libraries": [],
  "pending": [],
  "returns": {},
  "timestamp": 1737504985,
  "chain": 11155111,
  "commit": "1d2fb70"
}