{
  "transactions": [
    {
      "hash": "0x01af91715626bb7a6b01936b091074447382d44ed83dab5d0db8614d686b2866",
      "transactionType": "CALL",
      "contractName": null,
      "contractAddress": "0x5eb9cc76c3506942c1c0ead70e877dd5e4f00cb0",
      "function": "sell(uint256)",
      "arguments": [
        "989126771163395187469"
      ],
      "transaction": {
        "from": "0xc77f7fed3b5cc8249adc428c5f44c9063b9734b4",
        "to": "0x5eb9cc76c3506942c1c0ead70e877dd5e4f00cb0",
        "gas": "0x16fec",
        "value": "0x0",
        "input": "0xe4849b320000000000000000000000000000000000000000000000359ee435c13f42e30d",
        "nonce": "0x359",
        "chainId": "0xaa36a7"
      },
      "additionalContracts": [],
      "isFixedGasLimit": false
    }
  ],
  "receipts": [
    {
      "status": "0x1",
      "cumulativeGasUsed": "0x10c827b",
      "logs": [
        {
          "address": "0x5eb9cc76c3506942c1c0ead70e877dd5e4f00cb0",
          "topics": [
            "0xddf252ad1be2c89b69c2b068fc378daa952ba7f163c4a11628f55a4df523b3ef",
            "0x000000000000000000000000c77f7fed3b5cc8249adc428c5f44c9063b9734b4",
            "0x0000000000000000000000000000000000000000000000000000000000000000"
          ],
          "data": "0x0000000000000000000000000000000000000000000000359ee435c13f42e30d",
          "blockHash": "0xff32b855a4fa0eda43de184b072ce5e9c0a5b38e351ee0abee5d35ebc5129b8a",
          "blockNumber": "0x724f4f",
          "transactionHash": "0x01af91715626bb7a6b01936b091074447382d44ed83dab5d0db8614d686b2866",
          "transactionIndex": "0x7a",
          "logIndex": "0xca",
          "removed": false
        },
        {
          "address": "0x5eb9cc76c3506942c1c0ead70e877dd5e4f00cb0",
          "topics": [
            "0x4afcb4a87cdbd9974efdb92ee48bc8d7cd0ae4bf217004db3d080cbaee652ca7"
          ],
          "data": "0x000000000000000000000000000000000000000000000000000000006786a9680000000000000000000000000000000000000000000000000003910f2542baed0000000000000000000000000000000000000000000000000dc7db1332171586",
          "blockHash": "0xff32b855a4fa0eda43de184b072ce5e9c0a5b38e351ee0abee5d35ebc5129b8a",
          "blockNumber": "0x724f4f",
          "transactionHash": "0x01af91715626bb7a6b01936b091074447382d44ed83dab5d0db8614d686b2866",
          "transactionIndex": "0x7a",
          "logIndex": "0xcb",
          "removed": false
        }
      ],
      "logsBloom": "0x00000000000000000000000000000000000000000000000000000000000000000000000000000000000000000000000000000000000000004000000000000000000000000000000000000008000000000000000000000000000000000000000000000000020000000000000004000800020000000000000000000010000000000000000000000000000000000000000000000000000000000000010000000000000000000000000000000000000000004000000000000000000000000000020000000002000000800000008000000000000000000000080000000000000020000000000000000000000000000000000000000000000000000000000000000000",
      "type": "0x2",
      "transactionHash": "0x01af91715626bb7a6b01936b091074447382d44ed83dab5d0db8614d686b2866",
      "transactionIndex": "0x7a",
      "blockHash": "0xff32b855a4fa0eda43de184b072ce5e9c0a5b38e351ee0abee5d35ebc5129b8a",
      "blockNumber": "0x724f4f",
      "gasUsed": "0xfb93",
      "effectiveGasPrice": "0x54174d252",
      "from": "0xc77f7fed3b5cc8249adc428c5f44c9063b9734b4",
      "to": "0x5eb9cc76c3506942c1c0ead70e877dd5e4f00cb0",
      "contractAddress": null
    }
  ],
  "libraries": [],
  "pending": [],
  "returns": {},
  "timestamp": 1736878443,
  "chain": 11155111,
  "commit": "51a374b"
}