{
  "transactions": [
    {
      "hash": "0x40e939e9d69223d13416090302bbb7c93ca65039dab0a959ab9f2576ec2a58df",
      "transactionType": "CALL",
      "contractName": null,
      "contractAddress": "0x8aafd3ede9adb0ff97c7aebce82a919afb1c8764",
      "function": "sell(uint256)",
      "arguments": [
        "197865374017482618151"
      ],
      "transaction": {
        "from": "0xc77f7fed3b5cc8249adc428c5f44c9063b9734b4",
        "to": "0x8aafd3ede9adb0ff97c7aebce82a919afb1c8764",
        "gas": "0x17270",
        "value": "0x0",
        "input": "0xe4849b3200000000000000000000000000000000000000000000000ab9ef05554ddb7527",
        "nonce": "0x1547",
        "chainId": "0xaa36a7"
      },
      "additionalContracts": [],
      "isFixedGasLimit": false
    }
  ],
  "receipts": [
    {
      "status": "0x1",
      "cumulativeGasUsed": "0x1856d16",
      "logs": [
        {
          "address": "0x8aafd3ede9adb0ff97c7aebce82a919afb1c8764",
          "topics": [
            "0xddf252ad1be2c89b69c2b068fc378daa952ba7f163c4a11628f55a4df523b3ef",
            "0x000000000000000000000000c77f7fed3b5cc8249adc428c5f44c9063b9734b4",
            "0x0000000000000000000000000000000000000000000000000000000000000000"
          ],
          "data": "0x00000000000000000000000000000000000000000000000aa3f75942308ff956",
          "blockHash": "0x38bff255a30c5ea82b4faf79b55f4b7340acf43fc3549a95df140aa3f74e1965",
          "blockNumber": "0x731cac",
          "transactionHash": "0x40e939e9d69223d13416090302bbb7c93ca65039dab0a959ab9f2576ec2a58df",
          "transactionIndex": "0x86",
          "logIndex": "0x209",
          "removed": false
        },
        {
          "address": "0x8aafd3ede9adb0ff97c7aebce82a919afb1c8764",
          "topics": [
            "0xddf252ad1be2c89b69c2b068fc378daa952ba7f163c4a11628f55a4df523b3ef",
            "0x000000000000000000000000c77f7fed3b5cc8249adc428c5f44c9063b9734b4",
            "0x000000000000000000000000c77f7fed3b5cc8249adc428c5f44c9063b9734b4"
          ],
          "data": "0x00000000000000000000000000000000000000000000000015f7ac131d4b7bd1",
          "blockHash": "0x38bff255a30c5ea82b4faf79b55f4b7340acf43fc3549a95df140aa3f74e1965",
          "blockNumber": "0x731cac",
          "transactionHash": "0x40e939e9d69223d13416090302bbb7c93ca65039dab0a959ab9f2576ec2a58df",
          "transactionIndex": "0x86",
          "logIndex": "0x20a",
          "removed": false
        },
        {
          "address": "0x8aafd3ede9adb0ff97c7aebce82a919afb1c8764",
          "topics": [
            "0x4afcb4a87cdbd9974efdb92ee48bc8d7cd0ae4bf217004db3d080cbaee652ca7"
          ],
          "data": "0x00000000000000000000000000000000000000000000000000000000679054ec0000000000000000000000000000000000000000000000000011eed2518be4130000000000000000000000000000000000000000000000000dccedd1cca34212",
          "blockHash": "0x38bff255a30c5ea82b4faf79b55f4b7340acf43fc3549a95df140aa3f74e1965",
          "blockNumber": "0x731cac",
          "transactionHash": "0x40e939e9d69223d13416090302bbb7c93ca65039dab0a959ab9f2576ec2a58df",
          "transactionIndex": "0x86",
          "logIndex": "0x20b",
          "removed": false
        }
      ],
      "logsBloom": "0x00000000000000000000000000000000000000000600000000000000000000000000000000000000000000000000000000000000000000004000000000000000000000000000004000000008000000000000000000000000000000000000000000000000020000000000000000000800020000000000000000000010000000000000000000000000000000000000000000000000000000000000010000000000000000000000000000000000000000004000000000000000000000000000000000000002000000800000000000000000000000000000080000000000000020000000000000000000000000000000000000000000000000000000000000000000",
      "type": "0x2",
      "transactionHash": "0x40e939e9d69223d13416090302bbb7c93ca65039dab0a959ab9f2576ec2a58df",
      "transactionIndex": "0x86",
      "blockHash": "0x38bff255a30c5ea82b4faf79b55f4b7340acf43fc3549a95df140aa3f74e1965",
      "blockNumber": "0x731cac",
      "gasUsed": "0xfd4b",
      "effectiveGasPrice": "0xf247d7f5",
      "from": "0xc77f7fed3b5cc8249adc428c5f44c9063b9734b4",
      "to": "0x8aafd3ede9adb0ff97c7aebce82a919afb1c8764",
      "contractAddress": null
    }
  ],
  "libraries": [],
  "pending": [],
  "returns": {},
  "timestamp": 1737512172,
  "chain": 11155111,
  "commit": "1d2fb70"
}