{
  "transactions": [
    {
      "hash": "0xcfe564d845bf0b6da7e7fe29a53cb2e10f6ee91f78f8a596ab6426b12462c0f1",
      "transactionType": "CALL",
      "contractName": null,
      "contractAddress": "0x5eb9cc76c3506942c1c0ead70e877dd5e4f00cb0",
      "function": "sell(uint256)",
      "arguments": [
        "989076415346086866866"
      ],
      "transaction": {
        "from": "0xc77f7fed3b5cc8249adc428c5f44c9063b9734b4",
        "to": "0x5eb9cc76c3506942c1c0ead70e877dd5e4f00cb0",
        "gas": "0x16fec",
        "value": "0x0",
        "input": "0xe4849b320000000000000000000000000000000000000000000000359e314f67e4396fb2",
        "nonce": "0x495",
        "chainId": "0xaa36a7"
      },
      "additionalContracts": [],
      "isFixedGasLimit": false
    }
  ],
  "receipts": [
    {
      "status": "0x1",
      "cumulativeGasUsed": "0x70ca6d",
      "logs": [
        {
          "address": "0x5eb9cc76c3506942c1c0ead70e877dd5e4f00cb0",
          "topics": [
            "0xddf252ad1be2c89b69c2b068fc378daa952ba7f163c4a11628f55a4df523b3ef",
            "0x000000000000000000000000c77f7fed3b5cc8249adc428c5f44c9063b9734b4",
            "0x0000000000000000000000000000000000000000000000000000000000000000"
          ],
          "data": "0x0000000000000000000000000000000000000000000000359e314f67e4396fb2",
          "blockHash": "0x2f0190e5625d5df9c6b6a49c67b6d12e9327f0dbb8505c9cfa588f3781ff766c",
          "blockNumber": "0x7250c9",
          "transactionHash": "0xcfe564d845bf0b6da7e7fe29a53cb2e10f6ee91f78f8a596ab6426b12462c0f1",
          "transactionIndex": "0x47",
          "logIndex": "0x71",
          "removed": false
        },
        {
          "address": "0x5eb9cc76c3506942c1c0ead70e877dd5e4f00cb0",
          "topics": [
            "0x4afcb4a87cdbd9974efdb92ee48bc8d7cd0ae4bf217004db3d080cbaee652ca7"
          ],
          "data": "0x000000000000000000000000000000000000000000000000000000006786bb380000000000000000000000000000000000000000000000000003911b0bbdef8a0000000000000000000000000000000000000000000000000dc7db1331bd7b83",
          "blockHash": "0x2f0190e5625d5df9c6b6a49c67b6d12e9327f0dbb8505c9cfa588f3781ff766c",
          "blockNumber": "0x7250c9",
          "transactionHash": "0xcfe564d845bf0b6da7e7fe29a53cb2e10f6ee91f78f8a596ab6426b12462c0f1",
          "transactionIndex": "0x47",
          "logIndex": "0x72",
          "removed": false
        }
      ],
      "logsBloom": "0x00000000000000000000000000000000000000000000000000000000000000000000000000000000000000000000000000000000000000004000000000000000000000000000000000000008000000000000000000000000000000000000000000000000020000000000000004000800020000000000000000000010000000000000000000000000000000000000000000000000000000000000010000000000000000000000000000000000000000004000000000000000000000000000020000000002000000800000008000000000000000000000080000000000000020000000000000000000000000000000000000000000000000000000000000000000",
      "type": "0x2",
      "transactionHash": "0xcfe564d845bf0b6da7e7fe29a53cb2e10f6ee91f78f8a596ab6426b12462c0f1",
      "transactionIndex": "0x47",
      "blockHash": "0x2f0190e5625d5df9c6b6a49c67b6d12e9327f0dbb8505c9cfa588f3781ff766c",
      "blockNumber": "0x7250c9",
      "gasUsed": "0xfb93",
      "effectiveGasPrice": "0x270014eab",
      "from": "0xc77f7fed3b5cc8249adc428c5f44c9063b9734b4",
      "to": "0x5eb9cc76c3506942c1c0ead70e877dd5e4f00cb0",
      "contractAddress": null
    }
  ],
  "libraries": [],
  "pending": [],
  "returns": {},
  "timestamp": 1736883003,
  "chain": 11155111,
  "commit": "51a374b"
}