{
  "transactions": [
    {
      "hash": "0x18f6dd78fe091ea107440be296836416190be1a162c04b8e01723c39024b4a97",
      "transactionType": "CALL",
      "contractName": null,
      "contractAddress": "0x8aafd3ede9adb0ff97c7aebce82a919afb1c8764",
      "function": "sell(uint256)",
      "arguments": [
        "194244693"
      ],
      "transaction": {
        "from": "0xc77f7fed3b5cc8249adc428c5f44c9063b9734b4",
        "to": "0x8aafd3ede9adb0ff97c7aebce82a919afb1c8764",
        "gas": "0x14e6c",
        "value": "0x0",
        "input": "0xe4849b32000000000000000000000000000000000000000000000000000000000b93f055",
        "nonce": "0xf9f",
        "chainId": "0xaa36a7"
      },
      "additionalContracts": [],
      "isFixedGasLimit": false
    }
  ],
  "receipts": [
    {
      "status": "0x1",
      "cumulativeGasUsed": "0x1111e3f",
      "logs": [
        {
          "address": "0x8aafd3ede9adb0ff97c7aebce82a919afb1c8764",
          "topics": [
            "0xddf252ad1be2c89b69c2b068fc378daa952ba7f163c4a11628f55a4df523b3ef",
            "0x000000000000000000000000c77f7fed3b5cc8249adc428c5f44c9063b9734b4",
            "0x0000000000000000000000000000000000000000000000000000000000000000"
          ],
          "data": "0x000000000000000000000000000000000000000000000000000000000b7c3a30",
          "blockHash": "0x25c6448d59181e971bc746490ba60863b86d96ba6eac4a6f12c5deeef178ba81",
          "blockNumber": "0x731606",
          "transactionHash": "0x18f6dd78fe091ea107440be296836416190be1a162c04b8e01723c39024b4a97",
          "transactionIndex": "0xa3",
          "logIndex": "0xf2",
          "removed": false
        },
        {
          "address": "0x8aafd3ede9adb0ff97c7aebce82a919afb1c8764",
          "topics": [
            "0xddf252ad1be2c89b69c2b068fc378daa952ba7f163c4a11628f55a4df523b3ef",
            "0x000000000000000000000000c77f7fed3b5cc8249adc428c5f44c9063b9734b4",
            "0x000000000000000000000000c77f7fed3b5cc8249adc428c5f44c9063b9734b4"
          ],
          "data": "0x000000000000000000000000000000000000000000000000000000000017b625",
          "blockHash": "0x25c6448d59181e971bc746490ba60863b86d96ba6eac4a6f12c5deeef178ba81",
          "blockNumber": "0x731606",
          "transactionHash": "0x18f6dd78fe091ea107440be296836416190be1a162c04b8e01723c39024b4a97",
          "transactionIndex": "0xa3",
          "logIndex": "0xf3",
          "removed": false
        },
        {
          "address": "0x8aafd3ede9adb0ff97c7aebce82a919afb1c8764",
          "topics": [
            "0x4afcb4a87cdbd9974efdb92ee48bc8d7cd0ae4bf217004db3d080cbaee652ca7"
          ],
          "data": "0x00000000000000000000000000000000000000000000000000000000679004f40000000000000000000000000000000000000000000000000004c3273f4e3c30000000000000000000000000000000000000000000000000000000000003f91b",
          "blockHash": "0x25c6448d59181e971bc746490ba60863b86d96ba6eac4a6f12c5deeef178ba81",
          "blockNumber": "0x731606",
          "transactionHash": "0x18f6dd78fe091ea107440be296836416190be1a162c04b8e01723c39024b4a97",
          "transactionIndex": "0xa3",
          "logIndex": "0xf4",
          "removed": false
        }
      ],
      "logsBloom": "0x00000000000000000000000000000000000000000600000000000000000000000000000000000000000000000000000000000000000000004000000000000000000000000000004000000008000000000000000000000000000000000000000000000000020000000000000000000800020000000000000000000010000000000000000000000000000000000000000000000000000000000000010000000000000000000000000000000000000000004000000000000000000000000000000000000002000000800000000000000000000000000000080000000000000020000000000000000000000000000000000000000000000000000000000000000000",
      "type": "0x2",
      "transactionHash": "0x18f6dd78fe091ea107440be296836416190be1a162c04b8e01723c39024b4a97",
      "transactionIndex": "0xa3",
      "blockHash": "0x25c6448d59181e971bc746490ba60863b86d96ba6eac4a6f12c5deeef178ba81",
      "blockNumber": "0x731606",
      "gasUsed": "0xf21f",
      "effectiveGasPrice": "0x574c75cc",
      "from": "0xc77f7fed3b5cc8249adc428c5f44c9063b9734b4",
      "to": "0x8aafd3ede9adb0ff97c7aebce82a919afb1c8764",
      "contractAddress": null
    }
  ],
  "libraries": [],
  "pending": [],
  "returns": {},
  "timestamp": 1737491702,
  "chain": 11155111,
  "commit": "1d2fb70"
}