{
  "transactions": [
    {
      "hash": "0x434579dbcda9899f30485b848f829162735dc9df6419ae4ff198a3c64cc226f5",
      "transactionType": "CALL",
      "contractName": null,
      "contractAddress": "0x5eb9cc76c3506942c1c0ead70e877dd5e4f00cb0",
      "function": "sell(uint256)",
      "arguments": [
        "989084064000738021885"
      ],
      "transaction": {
        "from": "0xc77f7fed3b5cc8249adc428c5f44c9063b9734b4",
        "to": "0x5eb9cc76c3506942c1c0ead70e877dd5e4f00cb0",
        "gas": "0x16fec",
        "value": "0x0",
        "input": "0xe4849b320000000000000000000000000000000000000000000000359e4c7bd113b751fd",
        "nonce": "0x465",
        "chainId": "0xaa36a7"
      },
      "additionalContracts": [],
      "isFixedGasLimit": false
    }
  ],
  "receipts": [
    {
      "status": "0x1",
      "cumulativeGasUsed": "0xb9d39f",
      "logs": [
        {
          "address": "0x5eb9cc76c3506942c1c0ead70e877dd5e4f00cb0",
          "topics": [
            "0xddf252ad1be2c89b69c2b068fc378daa952ba7f163c4a11628f55a4df523b3ef",
            "0x000000000000000000000000c77f7fed3b5cc8249adc428c5f44c9063b9734b4",
            "0x0000000000000000000000000000000000000000000000000000000000000000"
          ],
          "data": "0x0000000000000000000000000000000000000000000000359e4c7bd113b751fd",
          "blockHash": "0x3b888cb0380cb9cca0dabbcbe37119be585f154ebabfa628e75be21e3c5c205f",
          "blockNumber": "0x72508b",
          "transactionHash": "0x434579dbcda9899f30485b848f829162735dc9df6419ae4ff198a3c64cc226f5",
          "transactionIndex": "0x6e",
          "logIndex": "0xbb",
          "removed": false
        },
        {
          "address": "0x5eb9cc76c3506942c1c0ead70e877dd5e4f00cb0",
          "topics": [
            "0x4afcb4a87cdbd9974efdb92ee48bc8d7cd0ae4bf217004db3d080cbaee652ca7"
          ],
          "data": "0x000000000000000000000000000000000000000000000000000000006786b850000000000000000000000000000000000000000000000000000391193cfc3bcc0000000000000000000000000000000000000000000000000dc7db1331cb179e",
          "blockHash": "0x3b888cb0380cb9cca0dabbcbe37119be585f154ebabfa628e75be21e3c5c205f",
          "blockNumber": "0x72508b",
          "transactionHash": "0x434579dbcda9899f30485b848f829162735dc9df6419ae4ff198a3c64cc226f5",
          "transactionIndex": "0x6e",
          "logIndex": "0xbc",
          "removed": false
        }
      ],
      "logsBloom": "0x00000000000000000000000000000000000000000000000000000000000000000000000000000000000000000000000000000000000000004000000000000000000000000000000000000008000000000000000000000000000000000000000000000000020000000000000004000800020000000000000000000010000000000000000000000000000000000000000000000000000000000000010000000000000000000000000000000000000000004000000000000000000000000000020000000002000000800000008000000000000000000000080000000000000020000000000000000000000000000000000000000000000000000000000000000000",
      "type": "0x2",
      "transactionHash": "0x434579dbcda9899f30485b848f829162735dc9df6419ae4ff198a3c64cc226f5",
      "transactionIndex": "0x6e",
      "blockHash": "0x3b888cb0380cb9cca0dabbcbe37119be585f154ebabfa628e75be21e3c5c205f",
      "blockNumber": "0x72508b",
      "gasUsed": "0xfb93",
      "effectiveGasPrice": "0x1c1653158",
      "from": "0xc77f7fed3b5cc8249adc428c5f44c9063b9734b4",
      "to": "0x5eb9cc76c3506942c1c0ead70e877dd5e4f00cb0",
      "contractAddress": null
    }
  ],
  "libraries": [],
  "pending": [],
  "returns": {},
  "timestamp": 1736882258,
  "chain": 11155111,
  "commit": "51a374b"
}