{
  "transactions": [
    {
      "hash": "0xf365bda38ec65418028c3f1b61dc5e4550aa7d69628b9f0be4d5f05622ed056d",
      "transactionType": "CALL",
      "contractName": null,
      "contractAddress": "0x8aafd3ede9adb0ff97c7aebce82a919afb1c8764",
      "function": "sell(uint256)",
      "arguments": [
        "350754928856096"
      ],
      "transaction": {
        "from": "0xc77f7fed3b5cc8249adc428c5f44c9063b9734b4",
        "to": "0x8aafd3ede9adb0ff97c7aebce82a919afb1c8764",
        "gas": "0x1724d",
        "value": "0x0",
        "input": "0xe4849b3200000000000000000000000000000000000000000000000000013f027ef00c20",
        "nonce": "0x11c0",
        "chainId": "0xaa36a7"
      },
      "additionalContracts": [],
      "isFixedGasLimit": false
    }
  ],
  "receipts": [
    {
      "status": "0x1",
      "cumulativeGasUsed": "0x11d5db1",
      "logs": [
        {
          "address": "0x8aafd3ede9adb0ff97c7aebce82a919afb1c8764",
          "topics": [
            "0xddf252ad1be2c89b69c2b068fc378daa952ba7f163c4a11628f55a4df523b3ef",
            "0x000000000000000000000000c77f7fed3b5cc8249adc428c5f44c9063b9734b4",
            "0x0000000000000000000000000000000000000000000000000000000000000000"
          ],
          "data": "0x00000000000000000000000000000000000000000000000000013c7529f44560",
          "blockHash": "0xa280b682bfc29a3535fd4f942c0871c824e3e853c9fc6cf38f160a43714e9bd2",
          "blockNumber": "0x73188f",
          "transactionHash": "0xf365bda38ec65418028c3f1b61dc5e4550aa7d69628b9f0be4d5f05622ed056d",
          "transactionIndex": "0x99",
          "logIndex": "0xe9",
          "removed": false
        },
        {
          "address": "0x8aafd3ede9adb0ff97c7aebce82a919afb1c8764",
          "topics": [
            "0xddf252ad1be2c89b69c2b068fc378daa952ba7f163c4a11628f55a4df523b3ef",
            "0x000000000000000000000000c77f7fed3b5cc8249adc428c5f44c9063b9734b4",
            "0x000000000000000000000000c77f7fed3b5cc8249adc428c5f44c9063b9734b4"
          ],
          "data": "0x0000000000000000000000000000000000000000000000000000028d54fbc6c0",
          "blockHash": "0xa280b682bfc29a3535fd4f942c0871c824e3e853c9fc6cf38f160a43714e9bd2",
          "blockNumber": "0x73188f",
          "transactionHash": "0xf365bda38ec65418028c3f1b61dc5e4550aa7d69628b9f0be4d5f05622ed056d",
          "transactionIndex": "0x99",
          "logIndex": "0xea",
          "removed": false
        },
        {
          "address": "0x8aafd3ede9adb0ff97c7aebce82a919afb1c8764",
          "topics": [
            "0x4afcb4a87cdbd9974efdb92ee48bc8d7cd0ae4bf217004db3d080cbaee652ca7"
          ],
          "data": "0x0000000000000000000000000000000000000000000000000000000067902384000000000000000000000000000000000000000000000000000527c2d0b854cb000000000000000000000000000000000000000000000000000000768171ee07",
          "blockHash": "0xa280b682bfc29a3535fd4f942c0871c824e3e853c9fc6cf38f160a43714e9bd2",
          "blockNumber": "0x73188f",
          "transactionHash": "0xf365bda38ec65418028c3f1b61dc5e4550aa7d69628b9f0be4d5f05622ed056d",
          "transactionIndex": "0x99",
          "logIndex": "0xeb",
          "removed": false
        }
      ],
      "logsBloom": "0x00000000000000000000000000000000000000000600000000000000000000000000000000000000000000000000000000000000000000004000000000000000000000000000004000000008000000000000000000000000000000000000000000000000020000000000000000000800020000000000000000000010000000000000000000000000000000000000000000000000000000000000010000000000000000000000000000000000000000004000000000000000000000000000000000000002000000800000000000000000000000000000080000000000000020000000000000000000000000000000000000000000000000000000000000000000",
      "type": "0x2",
      "transactionHash": "0xf365bda38ec65418028c3f1b61dc5e4550aa7d69628b9f0be4d5f05622ed056d",
      "transactionIndex": "0x99",
      "blockHash": "0xa280b682bfc29a3535fd4f942c0871c824e3e853c9fc6cf38f160a43714e9bd2",
      "blockNumber": "0x73188f",
      "gasUsed": "0xfd33",
      "effectiveGasPrice": "0x3a8c8bf8",
      "from": "0xc77f7fed3b5cc8249adc428c5f44c9063b9734b4",
      "to": "0x8aafd3ede9adb0ff97c7aebce82a919afb1c8764",
      "contractAddress": null
    }
  ],
  "libraries": [],
  "pending": [],
  "returns": {},
  "timestamp": 1737499525,
  "chain": 11155111,
  "commit": "1d2fb70"
}