{
  "transactions": [
    {
      "hash": "0xef0c90dd288eba5e32684c5500521e5a776bf7d65806a46f2df50d3987dcf17b",
      "transactionType": "CALL",
      "contractName": null,
      "contractAddress": "0x8aafd3ede9adb0ff97c7aebce82a919afb1c8764",
      "function": "sell(uint256)",
      "arguments": [
        "360167"
      ],
      "transaction": {
        "from": "0xc77f7fed3b5cc8249adc428c5f44c9063b9734b4",
        "to": "0x8aafd3ede9adb0ff97c7aebce82a919afb1c8764",
        "gas": "0x16208",
        "value": "0x0",
        "input": "0xe4849b320000000000000000000000000000000000000000000000000000000000057ee7",
        "nonce": "0x1638",
        "chainId": "0xaa36a7"
      },
      "additionalContracts": [],
      "isFixedGasLimit": false
    }
  ],
  "receipts": [
    {
      "status": "0x1",
      "cumulativeGasUsed": "0xdd2a35",
      "logs": [
        {
          "address": "0x8aafd3ede9adb0ff97c7aebce82a919afb1c8764",
          "topics": [
            "0xddf252ad1be2c89b69c2b068fc378daa952ba7f163c4a11628f55a4df523b3ef",
            "0x000000000000000000000000c77f7fed3b5cc8249adc428c5f44c9063b9734b4",
            "0x0000000000000000000000000000000000000000000000000000000000000000"
          ],
          "data": "0x00000000000000000000000000000000000000000000000000000000000573a6",
          "blockHash": "0x0d488ff7afcba71c053b2a25d1ad14945a2876642986888a29ecc60b137fb090",
          "blockNumber": "0x731dd0",
          "transactionHash": "0xef0c90dd288eba5e32684c5500521e5a776bf7d65806a46f2df50d3987dcf17b",
          "transactionIndex": "0x6b",
          "logIndex": "0x9c",
          "removed": false
        },
        {
          "address": "0x8aafd3ede9adb0ff97c7aebce82a919afb1c8764",
          "topics": [
            "0xddf252ad1be2c89b69c2b068fc378daa952ba7f163c4a11628f55a4df523b3ef",
            "0x000000000000000000000000c77f7fed3b5cc8249adc428c5f44c9063b9734b4",
            "0x000000000000000000000000c77f7fed3b5cc8249adc428c5f44c9063b9734b4"
          ],
          "data": "0x0000000000000000000000000000000000000000000000000000000000000b41",
          "blockHash": "0x0d488ff7afcba71c053b2a25d1ad14945a2876642986888a29ecc60b137fb090",
          "blockNumber": "0x731dd0",
          "transactionHash": "0xef0c90dd288eba5e32684c5500521e5a776bf7d65806a46f2df50d3987dcf17b",
          "transactionIndex": "0x6b",
          "logIndex": "0x9d",
          "removed": false
        },
        {
          "address": "0x8aafd3ede9adb0ff97c7aebce82a919afb1c8764",
          "topics": [
            "0x4afcb4a87cdbd9974efdb92ee48bc8d7cd0ae4bf217004db3d080cbaee652ca7"
          ],
          "data": "0x00000000000000000000000000000000000000000000000000000000679062a80000000000000000000000000000000000000000000000000014a5777f801591000000000000000000000000000000000000000000000000000000000000082d",
          "blockHash": "0x0d488ff7afcba71c053b2a25d1ad14945a2876642986888a29ecc60b137fb090",
          "blockNumber": "0x731dd0",
          "transactionHash": "0xef0c90dd288eba5e32684c5500521e5a776bf7d65806a46f2df50d3987dcf17b",
          "transactionIndex": "0x6b",
          "logIndex": "0x9e",
          "removed": false
        }
      ],
      "logsBloom": "0x00000000000000000000000000000000000000000600000000000000000000000000000000000000000000000000000000000000000000004000000000000000000000000000004000000008000000000000000000000000000000000000000000000000020000000000000000000800020000000000000000000010000000000000000000000000000000000000000000000000000000000000010000000000000000000000000000000000000000004000000000000000000000000000000000000002000000800000000000000000000000000000080000000000000020000000000000000000000000000000000000000000000000000000000000000000",
      "type": "0x2",
      "transactionHash": "0xef0c90dd288eba5e32684c5500521e5a776bf7d65806a46f2df50d3987dcf17b",
      "transactionIndex": "0x6b",
      "blockHash": "0x0d488ff7afcba71c053b2a25d1ad14945a2876642986888a29ecc60b137fb090",
      "blockNumber": "0x731dd0",
      "gasUsed": "0xf213",
      "effectiveGasPrice": "0x51fe829d",
      "from": "0xc77f7fed3b5cc8249adc428c5f44c9063b9734b4",
      "to": "0x8aafd3ede9adb0ff97c7aebce82a919afb1c8764",
      "contractAddress": null
    }
  ],
  "libraries": [],
  "pending": [],
  "returns": {},
  "timestamp": 1737515689,
  "chain": 11155111,
  "commit": "1d2fb70"
}