{
  "transactions": [
    {
      "hash": "0xe9a83e5327a3e24b73b22f49e662d28639e727f9325fdb36860b69336fc0b03d",
      "transactionType": "CALL",
      "contractName": null,
      "contractAddress": "0x270e88f8683660553e8ba4eb2ad7c91a1710d769",
      "function": "sell(uint256)",
      "arguments": [
        "962957125722472847321"
      ],
      "transaction": {
        "from": "0xc77f7fed3b5cc8249adc428c5f44c9063b9734b4",
        "to": "0x270e88f8683660553e8ba4eb2ad7c91a1710d769",
        "gas": "0x16fec",
        "value": "0x0",
        "input": "0xe4849b3200000000000000000000000000000000000000000000003433b6f3e10b2a17d9",
        "nonce": "0x597",
        "chainId": "0xaa36a7"
      },
      "additionalContracts": [],
      "isFixedGasLimit": false
    }
  ],
  "receipts": [
    {
      "status": "0x1",
      "cumulativeGasUsed": "0x7dc6d6",
      "logs": [
        {
          "address": "0x270e88f8683660553e8ba4eb2ad7c91a1710d769",
          "topics": [
            "0xddf252ad1be2c89b69c2b068fc378daa952ba7f163c4a11628f55a4df523b3ef",
            "0x000000000000000000000000c77f7fed3b5cc8249adc428c5f44c9063b9734b4",
            "0x0000000000000000000000000000000000000000000000000000000000000000"
          ],
          "data": "0x00000000000000000000000000000000000000000000003433b6f3e10b2a17d9",
          "blockHash": "0x1ca0501e91b94d3b3dd51137be01cb8d425880b9c32833d606fb64bb412220b8",
          "blockNumber": "0x72524c",
          "transactionHash": "0xe9a83e5327a3e24b73b22f49e662d28639e727f9325fdb36860b69336fc0b03d",
          "transactionIndex": "0x51",
          "logIndex": "0xa8",
          "removed": false
        },
        {
          "address": "0x270e88f8683660553e8ba4eb2ad7c91a1710d769",
          "topics": [
            "0x4afcb4a87cdbd9974efdb92ee48bc8d7cd0ae4bf217004db3d080cbaee652ca7"
          ],
          "data": "0x000000000000000000000000000000000000000000000000000000006786cd800000000000000000000000000000000000000000000000000003aa2a3edf45650000000000000000000000000000000000000000000000000dc83f7d7a44d306",
          "blockHash": "0x1ca0501e91b94d3b3dd51137be01cb8d425880b9c32833d606fb64bb412220b8",
          "blockNumber": "0x72524c",
          "transactionHash": "0xe9a83e5327a3e24b73b22f49e662d28639e727f9325fdb36860b69336fc0b03d",
          "transactionIndex": "0x51",
          "logIndex": "0xa9",
          "removed": false
        }
      ],
      "logsBloom": "0x00000000000000000000000000000000000000000000000000000000000000000000000000000000000000000000000020000000000000004000000000000000000000000000000000000008000000000000000000000000000000000000000000000000020000000000000000000800020000000000000000000010000000000000000000010000000000000000000000000000000000000000010000000000000000000000000000000000000000004000000000000000000000000000000000000002000000800000000000000000000000000000080000008000000020000000000000000000000000000000000000000000000000000000000000000000",
      "type": "0x2",
      "transactionHash": "0xe9a83e5327a3e24b73b22f49e662d28639e727f9325fdb36860b69336fc0b03d",
      "transactionIndex": "0x51",
      "blockHash": "0x1ca0501e91b94d3b3dd51137be01cb8d425880b9c32833d606fb64bb412220b8",
      "blockNumber": "0x72524c",
      "gasUsed": "0xfb93",
      "effectiveGasPrice": "0x4ccf6346b",
      "from": "0xc77f7fed3b5cc8249adc428c5f44c9063b9734b4",
      "to": "0x270e88f8683660553e8ba4eb2ad7c91a1710d769",
      "contractAddress": null
    }
  ],
  "libraries": [],
  "pending": [],
  "returns": {},
  "timestamp": 1736887681,
  "chain": 11155111,
  "commit": "51a374b"
}