{
  "transactions": [
    {
      "hash": "0x3760bfe1257d52f29e7298a9df6e89472732b3871fc8a3c67adb2b3ac988eeda",
      "transactionType": "CALL",
      "contractName": null,
      "contractAddress": "0x5eb9cc76c3506942c1c0ead70e877dd5e4f00cb0",
      "function": "buy(address)",
      "arguments": [
        "0xC77f7fed3b5Cc8249aDc428c5F44C9063B9734b4"
      ],
      "transaction": {
        "from": "0xc77f7fed3b5cc8249adc428c5f44c9063b9734b4",
        "to": "0x5eb9cc76c3506942c1c0ead70e877dd5e4f00cb0",
        "gas": "0x156c8",
        "value": "0xde0b6b3a7640000",
        "input": "0xf088d547000000000000000000000000c77f7fed3b5cc8249adc428c5f44c9063b9734b4",
        "nonce": "0x166",
        "chainId": "0xaa36a7"
      },
      "additionalContracts": [],
      "isFixedGasLimit": false
    }
  ],
  "receipts": [
    {
      "status": "0x1",
      "cumulativeGasUsed": "0x10e82d6",
      "logs": [
        {
          "address": "0x5eb9cc76c3506942c1c0ead70e877dd5e4f00cb0",
          "topics": [
            "0xddf252ad1be2c89b69c2b068fc378daa952ba7f163c4a11628f55a4df523b3ef",
            "0x0000000000000000000000000000000000000000000000000000000000000000",
            "0x000000000000000000000000c77f7fed3b5cc8249adc428c5f44c9063b9734b4"
          ],
          "data": "0x000000000000000000000000000000000000000000000035a6d9c072b4af4a39",
          "blockHash": "0x405d86e308fb28816918f59c672a8a663b12e35f386534ff5ce15ea18f342efc",
          "blockNumber": "0x723c20",
          "transactionHash": "0x3760bfe1257d52f29e7298a9df6e89472732b3871fc8a3c67adb2b3ac988eeda",
          "transactionIndex": "0x5a",
          "logIndex": "0x175",
          "removed": false
        },
        {
          "address": "0x5eb9cc76c3506942c1c0ead70e877dd5e4f00cb0",
          "topics": [
            "0xddf252ad1be2c89b69c2b068fc378daa952ba7f163c4a11628f55a4df523b3ef",
            "0x0000000000000000000000000000000000000000000000000000000000000000",
            "0x000000000000000000000000c77f7fed3b5cc8249adc428c5f44c9063b9734b4"
          ],
          "data": "0x00000000000000000000000000000000000000000000000029a9947984b0ddf8",
          "blockHash": "0x405d86e308fb28816918f59c672a8a663b12e35f386534ff5ce15ea18f342efc",
          "blockNumber": "0x723c20",
          "transactionHash": "0x3760bfe1257d52f29e7298a9df6e89472732b3871fc8a3c67adb2b3ac988eeda",
          "transactionIndex": "0x5a",
          "logIndex": "0x176",
          "removed": false
        },
        {
          "address": "0x5eb9cc76c3506942c1c0ead70e877dd5e4f00cb0",
          "topics": [
            "0x4afcb4a87cdbd9974efdb92ee48bc8d7cd0ae4bf217004db3d080cbaee652ca7"
          ],
          "data": "0x000000000000000000000000000000000000000000000000000000006785c2d400000000000000000000000000000000000000000000000000038dc52d9fec6b0000000000000000000000000000000000000000000000000de0b6b3a7640000",
          "blockHash": "0x405d86e308fb28816918f59c672a8a663b12e35f386534ff5ce15ea18f342efc",
          "blockNumber": "0x723c20",
          "transactionHash": "0x3760bfe1257d52f29e7298a9df6e89472732b3871fc8a3c67adb2b3ac988eeda",
          "transactionIndex": "0x5a",
          "logIndex": "0x177",
          "removed": false
        }
      ],
      "logsBloom": "0x00000000000000000000000000000000000000000000000000000000000000000000000000000000000000000000000000000000000000004000000000000000000000000000000000000008000000000000000000000000000000000000000000000000020000000000000004000800020000000000000000000010000000000000000000000000000000000000000000000000000000000000010000000000000000000000000000000000000000004000000000000000000000000000020000000002000000800000008000000000000000000000080000000000000020000000000000000000000000000000000000000000000000000000000000000000",
      "type": "0x2",
      "transactionHash": "0x3760bfe1257d52f29e7298a9df6e89472732b3871fc8a3c67adb2b3ac988eeda",
      "transactionIndex": "0x5a",
      "blockHash": "0x405d86e308fb28816918f59c672a8a663b12e35f386534ff5ce15ea18f342efc",
      "blockNumber": "0x723c20",
      "gasUsed": "0xf82c",
      "effectiveGasPrice": "0x206a66121",
      "from": "0xc77f7fed3b5cc8249adc428c5f44c9063b9734b4",
      "to": "0x5eb9cc76c3506942c1c0ead70e877dd5e4f00cb0",
      "contractAddress": null
    }
  ],
  "libraries": [],
  "pending": [],
  "returns": {},
  "timestamp": 1736819412,
  "chain": 11155111,
  "commit": "51a374b"
}