{
  "transactions": [
    {
      "hash": "0xe05dd9d7b5af8b974ed481b9ee06abf2bab4072edf287066b64b10904c6b2e2d",
      "transactionType": "CALL",
      "contractName": null,
      "contractAddress": "0x8aafd3ede9adb0ff97c7aebce82a919afb1c8764",
      "function": "sell(uint256)",
      "arguments": [
        "407818"
      ],
      "transaction": {
        "from": "0xc77f7fed3b5cc8249adc428c5f44c9063b9734b4",
        "to": "0x8aafd3ede9adb0ff97c7aebce82a919afb1c8764",
        "gas": "0x16208",
        "value": "0x0",
        "input": "0xe4849b32000000000000000000000000000000000000000000000000000000000006390a",
        "nonce": "0x1569",
        "chainId": "0xaa36a7"
      },
      "additionalContracts": [],
      "isFixedGasLimit": false
    }
  ],
  "receipts": [
    {
      "status": "0x1",
      "cumulativeGasUsed": "0x14d674b",
      "logs": [
        {
          "address": "0x8aafd3ede9adb0ff97c7aebce82a919afb1c8764",
          "topics": [
            "0xddf252ad1be2c89b69c2b068fc378daa952ba7f163c4a11628f55a4df523b3ef",
            "0x000000000000000000000000c77f7fed3b5cc8249adc428c5f44c9063b9734b4",
            "0x0000000000000000000000000000000000000000000000000000000000000000"
          ],
          "data": "0x0000000000000000000000000000000000000000000000000000000000062c4c",
          "blockHash": "0x5a0e9fc2f7c32f41120461d3fbb87fabdd80c9bed6de3e4d24c556693cd7c076",
          "blockNumber": "0x731cd2",
          "transactionHash": "0xe05dd9d7b5af8b974ed481b9ee06abf2bab4072edf287066b64b10904c6b2e2d",
          "transactionIndex": "0xdd",
          "logIndex": "0x177",
          "removed": false
        },
        {
          "address": "0x8aafd3ede9adb0ff97c7aebce82a919afb1c8764",
          "topics": [
            "0xddf252ad1be2c89b69c2b068fc378daa952ba7f163c4a11628f55a4df523b3ef",
            "0x000000000000000000000000c77f7fed3b5cc8249adc428c5f44c9063b9734b4",
            "0x000000000000000000000000c77f7fed3b5cc8249adc428c5f44c9063b9734b4"
          ],
          "data": "0x0000000000000000000000000000000000000000000000000000000000000cbe",
          "blockHash": "0x5a0e9fc2f7c32f41120461d3fbb87fabdd80c9bed6de3e4d24c556693cd7c076",
          "blockNumber": "0x731cd2",
          "transactionHash": "0xe05dd9d7b5af8b974ed481b9ee06abf2bab4072edf287066b64b10904c6b2e2d",
          "transactionIndex": "0xdd",
          "logIndex": "0x178",
          "removed": false
        },
        {
          "address": "0x8aafd3ede9adb0ff97c7aebce82a919afb1c8764",
          "topics": [
            "0x4afcb4a87cdbd9974efdb92ee48bc8d7cd0ae4bf217004db3d080cbaee652ca7"
          ],
          "data": "0x00000000000000000000000000000000000000000000000000000000679056c000000000000000000000000000000000000000000000000000123edda9299eed000000000000000000000000000000000000000000000000000000000000082e",
          "blockHash": "0x5a0e9fc2f7c32f41120461d3fbb87fabdd80c9bed6de3e4d24c556693cd7c076",
          "blockNumber": "0x731cd2",
          "transactionHash": "0xe05dd9d7b5af8b974ed481b9ee06abf2bab4072edf287066b64b10904c6b2e2d",
          "transactionIndex": "0xdd",
          "logIndex": "0x179",
          "removed": false
        }
      ],
      "logsBloom": "0x00000000000000000000000000000000000000000600000000000000000000000000000000000000000000000000000000000000000000004000000000000000000000000000004000000008000000000000000000000000000000000000000000000000020000000000000000000800020000000000000000000010000000000000000000000000000000000000000000000000000000000000010000000000000000000000000000000000000000004000000000000000000000000000000000000002000000800000000000000000000000000000080000000000000020000000000000000000000000000000000000000000000000000000000000000000",
      "type": "0x2",
      "transactionHash": "0xe05dd9d7b5af8b974ed481b9ee06abf2bab4072edf287066b64b10904c6b2e2d",
      "transactionIndex": "0xdd",
      "blockHash": "0x5a0e9fc2f7c32f41120461d3fbb87fabdd80c9bed6de3e4d24c556693cd7c076",
      "blockNumber": "0x731cd2",
      "gasUsed": "0xf213",
      "effectiveGasPrice": "0x83a5e3e3",
      "from": "0xc77f7fed3b5cc8249adc428c5f44c9063b9734b4",
      "to": "0x8aafd3ede9adb0ff97c7aebce82a919afb1c8764",
      "contractAddress": null
    }
  ],
  "libraries": [],
  "pending": [],
  "returns": {},
  "timestamp": 1737512643,
  "chain": 11155111,
  "commit": "1d2fb70"
}