{
  "transactions": [
    {
      "hash": "0x98b05f838cb3d7043463f6f562a20c21b492b6f65e42fc884afcf809ceb2c791",
      "transactionType": "CALL",
      "contractName": null,
      "contractAddress": "0x8aafd3ede9adb0ff97c7aebce82a919afb1c8764",
      "function": "sell(uint256)",
      "arguments": [
        "1353238965166617136"
      ],
      "transaction": {
        "from": "0xc77f7fed3b5cc8249adc428c5f44c9063b9734b4",
        "to": "0x8aafd3ede9adb0ff97c7aebce82a919afb1c8764",
        "gas": "0x15dca",
        "value": "0x0",
        "input": "0xe4849b3200000000000000000000000000000000000000000000000012c7abab46f93230",
        "nonce": "0x164d",
        "chainId": "0xaa36a7"
      },
      "additionalContracts": [],
      "isFixedGasLimit": false
    }
  ],
  "receipts": [
    {
      "status": "0x1",
      "cumulativeGasUsed": "0x19ee5f1",
      "logs": [
        {
          "address": "0x8aafd3ede9adb0ff97c7aebce82a919afb1c8764",
          "topics": [
            "0xddf252ad1be2c89b69c2b068fc378daa952ba7f163c4a11628f55a4df523b3ef",
            "0x000000000000000000000000c77f7fed3b5cc8249adc428c5f44c9063b9734b4",
            "0x0000000000000000000000000000000000000000000000000000000000000000"
          ],
          "data": "0x00000000000000000000000000000000000000000000000012a1358f48742167",
          "blockHash": "0xdf40bf8fda495eb945d19702adb6e116f389a5a2f6ae6e8fd861eecff576cc0a",
          "blockNumber": "0x731de9",
          "transactionHash": "0x98b05f838cb3d7043463f6f562a20c21b492b6f65e42fc884afcf809ceb2c791",
          "transactionIndex": "0x78",
          "logIndex": "0x2df",
          "removed": false
        },
        {
          "address": "0x8aafd3ede9adb0ff97c7aebce82a919afb1c8764",
          "topics": [
            "0xddf252ad1be2c89b69c2b068fc378daa952ba7f163c4a11628f55a4df523b3ef",
            "0x000000000000000000000000c77f7fed3b5cc8249adc428c5f44c9063b9734b4",
            "0x000000000000000000000000c77f7fed3b5cc8249adc428c5f44c9063b9734b4"
          ],
          "data": "0x0000000000000000000000000000000000000000000000000026761bfe8510c9",
          "blockHash": "0xdf40bf8fda495eb945d19702adb6e116f389a5a2f6ae6e8fd861eecff576cc0a",
          "blockNumber": "0x731de9",
          "transactionHash": "0x98b05f838cb3d7043463f6f562a20c21b492b6f65e42fc884afcf809ceb2c791",
          "transactionIndex": "0x78",
          "logIndex": "0x2e0",
          "removed": false
        },
        {
          "address": "0x8aafd3ede9adb0ff97c7aebce82a919afb1c8764",
          "topics": [
            "0x4afcb4a87cdbd9974efdb92ee48bc8d7cd0ae4bf217004db3d080cbaee652ca7"
          ],
          "data": "0x00000000000000000000000000000000000000000000000000000000679063d40000000000000000000000000000000000000000000000000014f5e4150d5d32000000000000000000000000000000000000000000000000001c5d1dc0983fbb",
          "blockHash": "0xdf40bf8fda495eb945d19702adb6e116f389a5a2f6ae6e8fd861eecff576cc0a",
          "blockNumber": "0x731de9",
          "transactionHash": "0x98b05f838cb3d7043463f6f562a20c21b492b6f65e42fc884afcf809ceb2c791",
          "transactionIndex": "0x78",
          "logIndex": "0x2e1",
          "removed": false
        }
      ],
      "logsBloom": "0x00000000000000000000000000000000000000000600000000000000000000000000000000000000000000000000000000000000000000004000000000000000000000000000004000000008000000000000000000000000000000000000000000000000020000000000000000000800020000000000000000000010000000000000000000000000000000000000000000000000000000000000010000000000000000000000000000000000000000004000000000000000000000000000000000000002000000800000000000000000000000000000080000000000000020000000000000000000000000000000000000000000000000000000000000000000",
      "type": "0x2",
      "transactionHash": "0x98b05f838cb3d7043463f6f562a20c21b492b6f65e42fc884afcf809ceb2c791",
      "transactionIndex": "0x78",
      "blockHash": "0xdf40bf8fda495eb945d19702adb6e116f389a5a2f6ae6e8fd861eecff576cc0a",
      "blockNumber": "0x731de9",
      "gasUsed": "0xfd3f",
      "effectiveGasPrice": "0x47e87d28",
      "from": "0xc77f7fed3b5cc8249adc428c5f44c9063b9734b4",
      "to": "0x8aafd3ede9adb0ff97c7aebce82a919afb1c8764",
      "contractAddress": null
    }
  ],
  "libraries": [],
  "pending": [],
  "returns": {},
  "timestamp": 1737515990,
  "chain": 11155111,
  "commit": "1d2fb70"
}