{
  "transactions": [
    {
      "hash": "0x308e7eb7ed9bf7fd25943861bd4007259ea6296c1b13b444c405c01a2024fdb0",
      "transactionType": "CALL",
      "contractName": null,
      "contractAddress": "0x5eb9cc76c3506942c1c0ead70e877dd5e4f00cb0",
      "function": "buy(address)",
      "arguments": [
        "0xC77f7fed3b5Cc8249aDc428c5F44C9063B9734b4"
      ],
      "transaction": {
        "from": "0xc77f7fed3b5cc8249adc428c5f44c9063b9734b4",
        "to": "0x5eb9cc76c3506942c1c0ead70e877dd5e4f00cb0",
        "gas": "0x156c8",
        "value": "0xde0b6b3a7640000",
        "input": "0xf088d547000000000000000000000000c77f7fed3b5cc8249adc428c5f44c9063b9734b4",
        "nonce": "0x18e",
        "chainId": "0xaa36a7"
      },
      "additionalContracts": [],
      "isFixedGasLimit": false
    }
  ],
  "receipts": [
    {
      "status": "0x1",
      "cumulativeGasUsed": "0x8cbf5b",
      "logs": [
        {
          "address": "0x5eb9cc76c3506942c1c0ead70e877dd5e4f00cb0",
          "topics": [
            "0xddf252ad1be2c89b69c2b068fc378daa952ba7f163c4a11628f55a4df523b3ef",
            "0x0000000000000000000000000000000000000000000000000000000000000000",
            "0x000000000000000000000000c77f7fed3b5cc8249adc428c5f44c9063b9734b4"
          ],
          "data": "0x000000000000000000000000000000000000000000000035a380843544b45f02",
          "blockHash": "0x58ad7126c56fb1cc1d35356901c6626cfedcd9d8303271d1440a9437e3448174",
          "blockNumber": "0x723c72",
          "transactionHash": "0x308e7eb7ed9bf7fd25943861bd4007259ea6296c1b13b444c405c01a2024fdb0",
          "transactionIndex": "0x63",
          "logIndex": "0x86",
          "removed": false
        },
        {
          "address": "0x5eb9cc76c3506942c1c0ead70e877dd5e4f00cb0",
          "topics": [
            "0xddf252ad1be2c89b69c2b068fc378daa952ba7f163c4a11628f55a4df523b3ef",
            "0x0000000000000000000000000000000000000000000000000000000000000000",
            "0x000000000000000000000000c77f7fed3b5cc8249adc428c5f44c9063b9734b4"
          ],
          "data": "0x00000000000000000000000000000000000000000000000029a6facd5e5504bc",
          "blockHash": "0x58ad7126c56fb1cc1d35356901c6626cfedcd9d8303271d1440a9437e3448174",
          "blockNumber": "0x723c72",
          "transactionHash": "0x308e7eb7ed9bf7fd25943861bd4007259ea6296c1b13b444c405c01a2024fdb0",
          "transactionIndex": "0x63",
          "logIndex": "0x87",
          "removed": false
        },
        {
          "address": "0x5eb9cc76c3506942c1c0ead70e877dd5e4f00cb0",
          "topics": [
            "0x4afcb4a87cdbd9974efdb92ee48bc8d7cd0ae4bf217004db3d080cbaee652ca7"
          ],
          "data": "0x000000000000000000000000000000000000000000000000000000006785c6ac00000000000000000000000000000000000000000000000000038dfdf97def200000000000000000000000000000000000000000000000000de0b6b3a7640000",
          "blockHash": "0x58ad7126c56fb1cc1d35356901c6626cfedcd9d8303271d1440a9437e3448174",
          "blockNumber": "0x723c72",
          "transactionHash": "0x308e7eb7ed9bf7fd25943861bd4007259ea6296c1b13b444c405c01a2024fdb0",
          "transactionIndex": "0x63",
          "logIndex": "0x88",
          "removed": false
        }
      ],
      "logsBloom": "0x00000000000000000000000000000000000000000000000000000000000000000000000000000000000000000000000000000000000000004000000000000000000000000000000000000008000000000000000000000000000000000000000000000000020000000000000004000800020000000000000000000010000000000000000000000000000000000000000000000000000000000000010000000000000000000000000000000000000000004000000000000000000000000000020000000002000000800000008000000000000000000000080000000000000020000000000000000000000000000000000000000000000000000000000000000000",
      "type": "0x2",
      "transactionHash": "0x308e7eb7ed9bf7fd25943861bd4007259ea6296c1b13b444c405c01a2024fdb0",
      "transactionIndex": "0x63",
      "blockHash": "0x58ad7126c56fb1cc1d35356901c6626cfedcd9d8303271d1440a9437e3448174",
      "blockNumber": "0x723c72",
      "gasUsed": "0xf82c",
      "effectiveGasPrice": "0x17e10baed",
      "from": "0xc77f7fed3b5cc8249adc428c5f44c9063b9734b4",
      "to": "0x5eb9cc76c3506942c1c0ead70e877dd5e4f00cb0",
      "contractAddress": null
    }
  ],
  "libraries": [],
  "pending": [],
  "returns": {},
  "timestamp": 1736820396,
  "chain": 11155111,
  "commit": "51a374b"
}