{
  "transactions": [
    {
      "hash": "0xcccdab71e21e5da3fb30bb8647276b3532fd9ee54061652cfe93bacbc348752d",
      "transactionType": "CALL",
      "contractName": null,
      "contractAddress": "0x8aafd3ede9adb0ff97c7aebce82a919afb1c8764",
      "function": "sell(uint256)",
      "arguments": [
        "657241"
      ],
      "transaction": {
        "from": "0xc77f7fed3b5cc8249adc428c5f44c9063b9734b4",
        "to": "0x8aafd3ede9adb0ff97c7aebce82a919afb1c8764",
        "gas": "0x16208",
        "value": "0x0",
        "input": "0xe4849b3200000000000000000000000000000000000000000000000000000000000a0759",
        "nonce": "0x130e",
        "chainId": "0xaa36a7"
      },
      "additionalContracts": [],
      "isFixedGasLimit": false
    }
  ],
  "receipts": [
    {
      "status": "0x1",
      "cumulativeGasUsed": "0xa25731",
      "logs": [
        {
          "address": "0x8aafd3ede9adb0ff97c7aebce82a919afb1c8764",
          "topics": [
            "0xddf252ad1be2c89b69c2b068fc378daa952ba7f163c4a11628f55a4df523b3ef",
            "0x000000000000000000000000c77f7fed3b5cc8249adc428c5f44c9063b9734b4",
            "0x0000000000000000000000000000000000000000000000000000000000000000"
          ],
          "data": "0x000000000000000000000000000000000000000000000000000000000009f2d0",
          "blockHash": "0xbfd115266bf78816829436373a96dc4c2a0bae13c6dc6a535e24c9155ea9042a",
          "blockNumber": "0x731a19",
          "transactionHash": "0xcccdab71e21e5da3fb30bb8647276b3532fd9ee54061652cfe93bacbc348752d",
          "transactionIndex": "0x81",
          "logIndex": "0x77",
          "removed": false
        },
        {
          "address": "0x8aafd3ede9adb0ff97c7aebce82a919afb1c8764",
          "topics": [
            "0xddf252ad1be2c89b69c2b068fc378daa952ba7f163c4a11628f55a4df523b3ef",
            "0x000000000000000000000000c77f7fed3b5cc8249adc428c5f44c9063b9734b4",
            "0x000000000000000000000000c77f7fed3b5cc8249adc428c5f44c9063b9734b4"
          ],
          "data": "0x0000000000000000000000000000000000000000000000000000000000001489",
          "blockHash": "0xbfd115266bf78816829436373a96dc4c2a0bae13c6dc6a535e24c9155ea9042a",
          "blockNumber": "0x731a19",
          "transactionHash": "0xcccdab71e21e5da3fb30bb8647276b3532fd9ee54061652cfe93bacbc348752d",
          "transactionIndex": "0x81",
          "logIndex": "0x78",
          "removed": false
        },
        {
          "address": "0x8aafd3ede9adb0ff97c7aebce82a919afb1c8764",
          "topics": [
            "0x4afcb4a87cdbd9974efdb92ee48bc8d7cd0ae4bf217004db3d080cbaee652ca7"
          ],
          "data": "0x00000000000000000000000000000000000000000000000000000000679035fc000000000000000000000000000000000000000000000000000b5ba59d74cb240000000000000000000000000000000000000000000000000000000000000835",
          "blockHash": "0xbfd115266bf78816829436373a96dc4c2a0bae13c6dc6a535e24c9155ea9042a",
          "blockNumber": "0x731a19",
          "transactionHash": "0xcccdab71e21e5da3fb30bb8647276b3532fd9ee54061652cfe93bacbc348752d",
          "transactionIndex": "0x81",
          "logIndex": "0x79",
          "removed": false
        }
      ],
      "logsBloom": "0x00000000000000000000000000000000000000000600000000000000000000000000000000000000000000000000000000000000000000004000000000000000000000000000004000000008000000000000000000000000000000000000000000000000020000000000000000000800020000000000000000000010000000000000000000000000000000000000000000000000000000000000010000000000000000000000000000000000000000004000000000000000000000000000000000000002000000800000000000000000000000000000080000000000000020000000000000000000000000000000000000000000000000000000000000000000",
      "type": "0x2",
      "transactionHash": "0xcccdab71e21e5da3fb30bb8647276b3532fd9ee54061652cfe93bacbc348752d",
      "transactionIndex": "0x81",
      "blockHash": "0xbfd115266bf78816829436373a96dc4c2a0bae13c6dc6a535e24c9155ea9042a",
      "blockNumber": "0x731a19",
      "gasUsed": "0xf213",
      "effectiveGasPrice": "0x4089fd11",
      "from": "0xc77f7fed3b5cc8249adc428c5f44c9063b9734b4",
      "to": "0x8aafd3ede9adb0ff97c7aebce82a919afb1c8764",
      "contractAddress": null
    }
  ],
  "libraries": [],
  "pending": [],
  "returns": {},
  "timestamp": 1737504252,
  "chain": 11155111,
  "commit": "1d2fb70"
}