{
  "transactions": [
    {
      "hash": "0xac361d1d65e0dcc07ca5f8a2dfb2fef896317fdfeb4dae8647767f87bc399c8d",
      "transactionType": "CALL",
      "contractName": null,
      "contractAddress": "0xd7bc75898e513accccf720a874d44dab5a4b6223",
      "function": "buy(address)",
      "arguments": [
        "0xC77f7fed3b5Cc8249aDc428c5F44C9063B9734b4"
      ],
      "transaction": {
        "from": "0xc77f7fed3b5cc8249adc428c5f44c9063b9734b4",
        "to": "0xd7bc75898e513accccf720a874d44dab5a4b6223",
        "gas": "0x1b30c",
        "value": "0x16345785d8a0000",
        "input": "0xf088d547000000000000000000000000c77f7fed3b5cc8249adc428c5f44c9063b9734b4",
        "nonce": "0x79",
        "chainId": "0xaa36a7"
      },
      "additionalContracts": [],
      "isFixedGasLimit": false
    },
    {
      "hash": "0x59280c264dd1add017b8df6fd1c8a200eed4a5808a1059510b78c63eb82e5703",
      "transactionType": "CALL",
      "contractName": null,
      "contractAddress": "0xd7bc75898e513accccf720a874d44dab5a4b6223",
      "function": "sell(uint256)",
      "arguments": [
        "99300261426382884420"
      ],
      "transaction": {
        "from": "0xc77f7fed3b5cc8249adc428c5f44c9063b9734b4",
        "to": "0xd7bc75898e513accccf720a874d44dab5a4b6223",
        "gas": "0x16fec",
        "value": "0x0",
        "input": "0xe4849b32000000000000000000000000000000000000000000000005621165a6e6f9ce44",
        "nonce": "0x7a",
        "chainId": "0xaa36a7"
      },
      "additionalContracts": [],
      "isFixedGasLimit": false
    }
  ],
  "receipts": [
    {
      "status": "0x1",
      "cumulativeGasUsed": "0x8b0641",
      "logs": [
        {
          "address": "0xd7bc75898e513accccf720a874d44dab5a4b6223",
          "topics": [
            "0xddf252ad1be2c89b69c2b068fc378daa952ba7f163c4a11628f55a4df523b3ef",
            "0x0000000000000000000000000000000000000000000000000000000000000000",
            "0x000000000000000000000000c77f7fed3b5cc8249adc428c5f44c9063b9734b4"
          ],
          "data": "0x0000000000000000000000000000000000000000000000055de6843a10d19cfe",
          "blockHash": "0xbc60ebfe4c91d60e517851cda62cbc5a78cef2c7797f410fa963ef5ce51fbc22",
          "blockNumber": "0x7238a2",
          "transactionHash": "0xac361d1d65e0dcc07ca5f8a2dfb2fef896317fdfeb4dae8647767f87bc399c8d",
          "transactionIndex": "0x53",
          "logIndex": "0x79",
          "removed": false
        },
        {
          "address": "0xd7bc75898e513accccf720a874d44dab5a4b6223",
          "topics": [
            "0xddf252ad1be2c89b69c2b068fc378daa952ba7f163c4a11628f55a4df523b3ef",
            "0x0000000000000000000000000000000000000000000000000000000000000000",
            "0x000000000000000000000000c77f7fed3b5cc8249adc428c5f44c9063b9734b4"
          ],
          "data": "0x000000000000000000000000000000000000000000000000042ae16cd6283146",
          "blockHash": "0xbc60ebfe4c91d60e517851cda62cbc5a78cef2c7797f410fa963ef5ce51fbc22",
          "blockNumber": "0x7238a2",
          "transactionHash": "0xac361d1d65e0dcc07ca5f8a2dfb2fef896317fdfeb4dae8647767f87bc399c8d",
          "transactionIndex": "0x53",
          "logIndex": "0x7a",
          "removed": false
        },
        {
          "address": "0xd7bc75898e513accccf720a874d44dab5a4b6223",
          "topics": [
            "0x4afcb4a87cdbd9974efdb92ee48bc8d7cd0ae4bf217004db3d080cbaee652ca7"
          ],
          "data": "0x00000000000000000000000000000000000000000000000000000000678598e000000000000000000000000000000000000000000000000000038d7ebccdee2c000000000000000000000000000000000000000000000000016345785d8a0000",
          "blockHash": "0xbc60ebfe4c91d60e517851cda62cbc5a78cef2c7797f410fa963ef5ce51fbc22",
          "blockNumber": "0x7238a2",
          "transactionHash": "0xac361d1d65e0dcc07ca5f8a2dfb2fef896317fdfeb4dae8647767f87bc399c8d",
          "transactionIndex": "0x53",
          "logIndex": "0x7b",
          "removed": false
        }
      ],
      "logsBloom": "0x00000000000000000000000000000000000000000000000000000000000000000000000000000000000000000000000000000000000000004000000000000000000000000000000000000008000000000000000000000000000000000000000000000000020000000000000000000800020000000000000000000010000000000000000000000000000000000000000000000000000000000000010000000000000000000000000000000000000000004000001000000000000000000000000000000002000000800000000000004000000000000000080000000000000020000000000000000000000000000000000000000000080000000000000000000000",
      "type": "0x2",
      "transactionHash": "0xac361d1d65e0dcc07ca5f8a2dfb2fef896317fdfeb4dae8647767f87bc399c8d",
      "transactionIndex": "0x53",
      "blockHash": "0xbc60ebfe4c91d60e517851cda62cbc5a78cef2c7797f410fa963ef5ce51fbc22",
      "blockNumber": "0x7238a2",
      "gasUsed": "0x13af8",
      "effectiveGasPrice": "0x20c58af",
      "from": "0xc77f7fed3b5cc8249adc428c5f44c9063b9734b4",
      "to": "0xd7bc75898e513accccf720a874d44dab5a4b6223",
      "contractAddress": null
    },
    {
      "status": "0x1",
      "cumulativeGasUsed": "0x8f599a",
      "logs": [
        {
          "address": "0xd7bc75898e513accccf720a874d44dab5a4b6223",
          "topics": [
            "0xddf252ad1be2c89b69c2b068fc378daa952ba7f163c4a11628f55a4df523b3ef",
            "0x000000000000000000000000c77f7fed3b5cc8249adc428c5f44c9063b9734b4",
            "0x0000000000000000000000000000000000000000000000000000000000000000"
          ],
          "data": "0x000000000000000000000000000000000000000000000005621165a6e6f9ce44",
          "blockHash": "0xbc60ebfe4c91d60e517851cda62cbc5a78cef2c7797f410fa963ef5ce51fbc22",
          "blockNumber": "0x7238a2",
          "transactionHash": "0x59280c264dd1add017b8df6fd1c8a200eed4a5808a1059510b78c63eb82e5703",
          "transactionIndex": "0x55",
          "logIndex": "0x7d",
          "removed": false
        },
        {
          "address": "0xd7bc75898e513accccf720a874d44dab5a4b6223",
          "topics": [
            "0x4afcb4a87cdbd9974efdb92ee48bc8d7cd0ae4bf217004db3d080cbaee652ca7"
          ],
          "data": "0x00000000000000000000000000000000000000000000000000000000678598e000000000000000000000000000000000000000000000000000038d7ebe0998f40000000000000000000000000000000000000000000000000160c9191a82ecf4",
          "blockHash": "0xbc60ebfe4c91d60e517851cda62cbc5a78cef2c7797f410fa963ef5ce51fbc22",
          "blockNumber": "0x7238a2",
          "transactionHash": "0x59280c264dd1add017b8df6fd1c8a200eed4a5808a1059510b78c63eb82e5703",
          "transactionIndex": "0x55",
          "logIndex": "0x7e",
          "removed": false
        }
      ],
      "logsBloom": "0x00000000000000000000000000000000000000000000000000000000000000000000000000000000000000000000000000000000000000004000000000000000000000000000000000000008000000000000000000000000000000000000000000000000020000000000000000000800020000000000000000000010000000000000000000000000000000000000000000000000000000000000010000000000000000000000000000000000000000004000001000000000000000000000000000000002000000800000000000004000000000000000080000000000000020000000000000000000000000000000000000000000080000000000000000000000",
      "type": "0x2",
      "transactionHash": "0x59280c264dd1add017b8df6fd1c8a200eed4a5808a1059510b78c63eb82e5703",
      "transactionIndex": "0x55",
      "blockHash": "0xbc60ebfe4c91d60e517851cda62cbc5a78cef2c7797f410fa963ef5ce51fbc22",
      "blockNumber": "0x7238a2",
      "gasUsed": "0xfb93",
      "effectiveGasPrice": "0x20c58af",
      "from": "0xc77f7fed3b5cc8249adc428c5f44c9063b9734b4",
      "to": "0xd7bc75898e513accccf720a874d44dab5a4b6223",
      "contractAddress": null
    }
  ],
  "libraries": [],
  "pending": [],
  "returns": {},
  "timestamp": 1736808673,
  "chain": 11155111,
  "commit": "51a374b"
}