{
  "transactions": [
    {
      "hash": "0xd87e41acf449e909128744144b7f2291446459f865018dcaeecbf77f3bd502c1",
      "transactionType": "CALL",
      "contractName": null,
      "contractAddress": "0x8aafd3ede9adb0ff97c7aebce82a919afb1c8764",
      "function": "sell(uint256)",
      "arguments": [
        "12031327991056445"
      ],
      "transaction": {
        "from": "0xc77f7fed3b5cc8249adc428c5f44c9063b9734b4",
        "to": "0x8aafd3ede9adb0ff97c7aebce82a919afb1c8764",
        "gas": "0x1724d",
        "value": "0x0",
        "input": "0xe4849b32000000000000000000000000000000000000000000000000002abe6dd715483d",
        "nonce": "0x159a",
        "chainId": "0xaa36a7"
      },
      "additionalContracts": [],
      "isFixedGasLimit": false
    }
  ],
  "receipts": [
    {
      "status": "0x1",
      "cumulativeGasUsed": "0xc37dd3",
      "logs": [
        {
          "address": "0x8aafd3ede9adb0ff97c7aebce82a919afb1c8764",
          "topics": [
            "0xddf252ad1be2c89b69c2b068fc378daa952ba7f163c4a11628f55a4df523b3ef",
            "0x000000000000000000000000c77f7fed3b5cc8249adc428c5f44c9063b9734b4",
            "0x0000000000000000000000000000000000000000000000000000000000000000"
          ],
          "data": "0x000000000000000000000000000000000000000000000000002a66e3bed59fba",
          "blockHash": "0xc920f8c60f1ffa089dd60ba9f7ac5ea71930beb76da5295221257c65eea3ffe6",
          "blockNumber": "0x731d0a",
          "transactionHash": "0xd87e41acf449e909128744144b7f2291446459f865018dcaeecbf77f3bd502c1",
          "transactionIndex": "0x69",
          "logIndex": "0x101",
          "removed": false
        },
        {
          "address": "0x8aafd3ede9adb0ff97c7aebce82a919afb1c8764",
          "topics": [
            "0xddf252ad1be2c89b69c2b068fc378daa952ba7f163c4a11628f55a4df523b3ef",
            "0x000000000000000000000000c77f7fed3b5cc8249adc428c5f44c9063b9734b4",
            "0x000000000000000000000000c77f7fed3b5cc8249adc428c5f44c9063b9734b4"
          ],
          "data": "0x0000000000000000000000000000000000000000000000000000578a183fa883",
          "blockHash": "0xc920f8c60f1ffa089dd60ba9f7ac5ea71930beb76da5295221257c65eea3ffe6",
          "blockNumber": "0x731d0a",
          "transactionHash": "0xd87e41acf449e909128744144b7f2291446459f865018dcaeecbf77f3bd502c1",
          "transactionIndex": "0x69",
          "logIndex": "0x102",
          "removed": false
        },
        {
          "address": "0x8aafd3ede9adb0ff97c7aebce82a919afb1c8764",
          "topics": [
            "0x4afcb4a87cdbd9974efdb92ee48bc8d7cd0ae4bf217004db3d080cbaee652ca7"
          ],
          "data": "0x00000000000000000000000000000000000000000000000000000000679059600000000000000000000000000000000000000000000000000012ded63a9cf2a500000000000000000000000000000000000000000000000000003a1f11e82e2f",
          "blockHash": "0xc920f8c60f1ffa089dd60ba9f7ac5ea71930beb76da5295221257c65eea3ffe6",
          "blockNumber": "0x731d0a",
          "transactionHash": "0xd87e41acf449e909128744144b7f2291446459f865018dcaeecbf77f3bd502c1",
          "transactionIndex": "0x69",
          "logIndex": "0x103",
          "removed": false
        }
      ],
      "logsBloom": "0x00000000000000000000000000000000000000000600000000000000000000000000000000000000000000000000000000000000000000004000000000000000000000000000004000000008000000000000000000000000000000000000000000000000020000000000000000000800020000000000000000000010000000000000000000000000000000000000000000000000000000000000010000000000000000000000000000000000000000004000000000000000000000000000000000000002000000800000000000000000000000000000080000000000000020000000000000000000000000000000000000000000000000000000000000000000",
      "type": "0x2",
      "transactionHash": "0xd87e41acf449e909128744144b7f2291446459f865018dcaeecbf77f3bd502c1",
      "transactionIndex": "0x69",
      "blockHash": "0xc920f8c60f1ffa089dd60ba9f7ac5ea71930beb76da5295221257c65eea3ffe6",
      "blockNumber": "0x731d0a",
      "gasUsed": "0xfd33",
      "effectiveGasPrice": "0x5d2416c1",
      "from": "0xc77f7fed3b5cc8249adc428c5f44c9063b9734b4",
      "to": "0x8aafd3ede9adb0ff97c7aebce82a919afb1c8764",
      "contractAddress": null
    }
  ],
  "libraries": [],
  "pending": [],
  "returns": {},
  "timestamp": 1737513313,
  "chain": 11155111,
  "commit": "1d2fb70"
}