{
  "transactions": [
    {
      "hash": "0xee9c59d430f5c19b4fd543a4b989d9de4dac45a92929c1f50778561a6c265b54",
      "transactionType": "CALL",
      "contractName": null,
      "contractAddress": "0x8aafd3ede9adb0ff97c7aebce82a919afb1c8764",
      "function": "sell(uint256)",
      "arguments": [
        "1555703966011737763"
      ],
      "transaction": {
        "from": "0xc77f7fed3b5cc8249adc428c5f44c9063b9734b4",
        "to": "0x8aafd3ede9adb0ff97c7aebce82a919afb1c8764",
        "gas": "0x15dca",
        "value": "0x0",
        "input": "0xe4849b320000000000000000000000000000000000000000000000001596f883bdcbc6a3",
        "nonce": "0x1563",
        "chainId": "0xaa36a7"
      },
      "additionalContracts": [],
      "isFixedGasLimit": false
    }
  ],
  "receipts": [
    {
      "status": "0x1",
      "cumulativeGasUsed": "0xc83d80",
      "logs": [
        {
          "address": "0x8aafd3ede9adb0ff97c7aebce82a919afb1c8764",
          "topics": [
            "0xddf252ad1be2c89b69c2b068fc378daa952ba7f163c4a11628f55a4df523b3ef",
            "0x000000000000000000000000c77f7fed3b5cc8249adc428c5f44c9063b9734b4",
            "0x0000000000000000000000000000000000000000000000000000000000000000"
          ],
          "data": "0x000000000000000000000000000000000000000000000000156ac1474ba33bd5",
          "blockHash": "0xbabec3b7e1eb376e1c13007b94cd64980bd22ef1b882ee080c6a24e12709920d",
          "blockNumber": "0x731ccb",
          "transactionHash": "0xee9c59d430f5c19b4fd543a4b989d9de4dac45a92929c1f50778561a6c265b54",
          "transactionIndex": "0x91",
          "logIndex": "0xee",
          "removed": false
        },
        {
          "address": "0x8aafd3ede9adb0ff97c7aebce82a919afb1c8764",
          "topics": [
            "0xddf252ad1be2c89b69c2b068fc378daa952ba7f163c4a11628f55a4df523b3ef",
            "0x000000000000000000000000c77f7fed3b5cc8249adc428c5f44c9063b9734b4",
            "0x000000000000000000000000c77f7fed3b5cc8249adc428c5f44c9063b9734b4"
          ],
          "data": "0x000000000000000000000000000000000000000000000000002c373c72288ace",
          "blockHash": "0xbabec3b7e1eb376e1c13007b94cd64980bd22ef1b882ee080c6a24e12709920d",
          "blockNumber": "0x731ccb",
          "transactionHash": "0xee9c59d430f5c19b4fd543a4b989d9de4dac45a92929c1f50778561a6c265b54",
          "transactionIndex": "0x91",
          "logIndex": "0xef",
          "removed": false
        },
        {
          "address": "0x8aafd3ede9adb0ff97c7aebce82a919afb1c8764",
          "topics": [
            "0x4afcb4a87cdbd9974efdb92ee48bc8d7cd0ae4bf217004db3d080cbaee652ca7"
          ],
          "data": "0x000000000000000000000000000000000000000000000000000000006790566c00000000000000000000000000000000000000000000000000123edd548bffad000000000000000000000000000000000000000000000000001c623bc576f95e",
          "blockHash": "0xbabec3b7e1eb376e1c13007b94cd64980bd22ef1b882ee080c6a24e12709920d",
          "blockNumber": "0x731ccb",
          "transactionHash": "0xee9c59d430f5c19b4fd543a4b989d9de4dac45a92929c1f50778561a6c265b54",
          "transactionIndex": "0x91",
          "logIndex": "0xf0",
          "removed": false
        }
      ],
      "logsBloom": "0x00000000000000000000000000000000000000000600000000000000000000000000000000000000000000000000000000000000000000004000000000000000000000000000004000000008000000000000000000000000000000000000000000000000020000000000000000000800020000000000000000000010000000000000000000000000000000000000000000000000000000000000010000000000000000000000000000000000000000004000000000000000000000000000000000000002000000800000000000000000000000000000080000000000000020000000000000000000000000000000000000000000000000000000000000000000",
      "type": "0x2",
      "transactionHash": "0xee9c59d430f5c19b4fd543a4b989d9de4dac45a92929c1f50778561a6c265b54",
      "transactionIndex": "0x91",
      "blockHash": "0xbabec3b7e1eb376e1c13007b94cd64980bd22ef1b882ee080c6a24e12709920d",
      "blockNumber": "0x731ccb",
      "gasUsed": "0xfd3f",
      "effectiveGasPrice": "0x9936e4f6",
      "from": "0xc77f7fed3b5cc8249adc428c5f44c9063b9734b4",
      "to": "0x8aafd3ede9adb0ff97c7aebce82a919afb1c8764",
      "contractAddress": null
    }
  ],
  "libraries": [],
  "pending": [],
  "returns": {},
  "timestamp": 1737512558,
  "chain": 11155111,
  "commit": "1d2fb70"
}