{
  "transactions": [
    {
      "hash": "0xf1e1d48e80689d2ba0d38a0b2d02c977c19118c4eb7ce3f3b555f8938dd6eae3",
      "transactionType": "CALL",
      "contractName": null,
      "contractAddress": "0x8aafd3ede9adb0ff97c7aebce82a919afb1c8764",
      "function": "sell(uint256)",
      "arguments": [
        "320831"
      ],
      "transaction": {
        "from": "0xc77f7fed3b5cc8249adc428c5f44c9063b9734b4",
        "to": "0x8aafd3ede9adb0ff97c7aebce82a919afb1c8764",
        "gas": "0x16208",
        "value": "0x0",
        "input": "0xe4849b32000000000000000000000000000000000000000000000000000000000004e53f",
        "nonce": "0x1710",
        "chainId": "0xaa36a7"
      },
      "additionalContracts": [],
      "isFixedGasLimit": false
    }
  ],
  "receipts": [
    {
      "status": "0x1",
      "cumulativeGasUsed": "0xb112ce",
      "logs": [
        {
          "address": "0x8aafd3ede9adb0ff97c7aebce82a919afb1c8764",
          "topics": [
            "0xddf252ad1be2c89b69c2b068fc378daa952ba7f163c4a11628f55a4df523b3ef",
            "0x000000000000000000000000c77f7fed3b5cc8249adc428c5f44c9063b9734b4",
            "0x0000000000000000000000000000000000000000000000000000000000000000"
          ],
          "data": "0x000000000000000000000000000000000000000000000000000000000004db39",
          "blockHash": "0xed8056ad896db4550ee82774d6fc4e2d866deb358692f75c2f98d1a4e94f84dd",
          "blockNumber": "0x731ed5",
          "transactionHash": "0xf1e1d48e80689d2ba0d38a0b2d02c977c19118c4eb7ce3f3b555f8938dd6eae3",
          "transactionIndex": "0x67",
          "logIndex": "0x8b",
          "removed": false
        },
        {
          "address": "0x8aafd3ede9adb0ff97c7aebce82a919afb1c8764",
          "topics": [
            "0xddf252ad1be2c89b69c2b068fc378daa952ba7f163c4a11628f55a4df523b3ef",
            "0x000000000000000000000000c77f7fed3b5cc8249adc428c5f44c9063b9734b4",
            "0x000000000000000000000000c77f7fed3b5cc8249adc428c5f44c9063b9734b4"
          ],
          "data": "0x0000000000000000000000000000000000000000000000000000000000000a06",
          "blockHash": "0xed8056ad896db4550ee82774d6fc4e2d866deb358692f75c2f98d1a4e94f84dd",
          "blockNumber": "0x731ed5",
          "transactionHash": "0xf1e1d48e80689d2ba0d38a0b2d02c977c19118c4eb7ce3f3b555f8938dd6eae3",
          "transactionIndex": "0x67",
          "logIndex": "0x8c",
          "removed": false
        },
        {
          "address": "0x8aafd3ede9adb0ff97c7aebce82a919afb1c8764",
          "topics": [
            "0x4afcb4a87cdbd9974efdb92ee48bc8d7cd0ae4bf217004db3d080cbaee652ca7"
          ],
          "data": "0x0000000000000000000000000000000000000000000000000000000067906ee400000000000000000000000000000000000000000000000000172a599dc11192000000000000000000000000000000000000000000000000000000000000082b",
          "blockHash": "0xed8056ad896db4550ee82774d6fc4e2d866deb358692f75c2f98d1a4e94f84dd",
          "blockNumber": "0x731ed5",
          "transactionHash": "0xf1e1d48e80689d2ba0d38a0b2d02c977c19118c4eb7ce3f3b555f8938dd6eae3",
          "transactionIndex": "0x67",
          "logIndex": "0x8d",
          "removed": false
        }
      ],
      "logsBloom": "0x00000000000000000000000000000000000000000600000000000000000000000000000000000000000000000000000000000000000000004000000000000000000000000000004000000008000000000000000000000000000000000000000000000000020000000000000000000800020000000000000000000010000000000000000000000000000000000000000000000000000000000000010000000000000000000000000000000000000000004000000000000000000000000000000000000002000000800000000000000000000000000000080000000000000020000000000000000000000000000000000000000000000000000000000000000000",
      "type": "0x2",
      "transactionHash": "0xf1e1d48e80689d2ba0d38a0b2d02c977c19118c4eb7ce3f3b555f8938dd6eae3",
      "transactionIndex": "0x67",
      "blockHash": "0xed8056ad896db4550ee82774d6fc4e2d866deb358692f75c2f98d1a4e94f84dd",
      "blockNumber": "0x731ed5",
      "gasUsed": "0xf213",
      "effectiveGasPrice": "0x3d06dafa",
      "from": "0xc77f7fed3b5cc8249adc428c5f44c9063b9734b4",
      "to": "0x8aafd3ede9adb0ff97c7aebce82a919afb1c8764",
      "contractAddress": null
    }
  ],
  "libraries": [],
  "pending": [],
  "returns": {},
  "timestamp": 1737518822,
  "chain": 11155111,
  "commit": "1d2fb70"
}