{
  "transactions": [
    {
      "hash": "0x053c2361119789a95caf8ee3980a8e45468a410cb59e57136ae9d4823a3e07fb",
      "transactionType": "CALL",
      "contractName": null,
      "contractAddress": "0x8aafd3ede9adb0ff97c7aebce82a919afb1c8764",
      "function": "sell(uint256)",
      "arguments": [
        "146303670920926594087"
      ],
      "transaction": {
        "from": "0xc77f7fed3b5cc8249adc428c5f44c9063b9734b4",
        "to": "0x8aafd3ede9adb0ff97c7aebce82a919afb1c8764",
        "gas": "0x17270",
        "value": "0x0",
        "input": "0xe4849b32000000000000000000000000000000000000000000000007ee5f0d8d717a0427",
        "nonce": "0x1763",
        "chainId": "0xaa36a7"
      },
      "additionalContracts": [],
      "isFixedGasLimit": false
    }
  ],
  "receipts": [
    {
      "status": "0x1",
      "cumulativeGasUsed": "0xbb14c4",
      "logs": [
        {
          "address": "0x8aafd3ede9adb0ff97c7aebce82a919afb1c8764",
          "topics": [
            "0xddf252ad1be2c89b69c2b068fc378daa952ba7f163c4a11628f55a4df523b3ef",
            "0x000000000000000000000000c77f7fed3b5cc8249adc428c5f44c9063b9734b4",
            "0x0000000000000000000000000000000000000000000000000000000000000000"
          ],
          "data": "0x000000000000000000000000000000000000000000000007de20da3e7cdb5817",
          "blockHash": "0x8b566aa5e850a148740db4114efd4173fe2af7cde14a7fad6fc67ccd81173287",
          "blockNumber": "0x731f38",
          "transactionHash": "0x053c2361119789a95caf8ee3980a8e45468a410cb59e57136ae9d4823a3e07fb",
          "transactionIndex": "0x69",
          "logIndex": "0xbd",
          "removed": false
        },
        {
          "address": "0x8aafd3ede9adb0ff97c7aebce82a919afb1c8764",
          "topics": [
            "0xddf252ad1be2c89b69c2b068fc378daa952ba7f163c4a11628f55a4df523b3ef",
            "0x000000000000000000000000c77f7fed3b5cc8249adc428c5f44c9063b9734b4",
            "0x000000000000000000000000c77f7fed3b5cc8249adc428c5f44c9063b9734b4"
          ],
          "data": "0x000000000000000000000000000000000000000000000000103e334ef49eac10",
          "blockHash": "0x8b566aa5e850a148740db4114efd4173fe2af7cde14a7fad6fc67ccd81173287",
          "blockNumber": "0x731f38",
          "transactionHash": "0x053c2361119789a95caf8ee3980a8e45468a410cb59e57136ae9d4823a3e07fb",
          "transactionIndex": "0x69",
          "logIndex": "0xbe",
          "removed": false
        },
        {
          "address": "0x8aafd3ede9adb0ff97c7aebce82a919afb1c8764",
          "topics": [
            "0x4afcb4a87cdbd9974efdb92ee48bc8d7cd0ae4bf217004db3d080cbaee652ca7"
          ],
          "data": "0x0000000000000000000000000000000000000000000000000000000067907388000000000000000000000000000000000000000000000000001837d0149967a60000000000000000000000000000000000000000000000000dcbd14d3c220311",
          "blockHash": "0x8b566aa5e850a148740db4114efd4173fe2af7cde14a7fad6fc67ccd81173287",
          "blockNumber": "0x731f38",
          "transactionHash": "0x053c2361119789a95caf8ee3980a8e45468a410cb59e57136ae9d4823a3e07fb",
          "transactionIndex": "0x69",
          "logIndex": "0xbf",
          "removed": false
        }
      ],
      "logsBloom": "0x00000000000000000000000000000000000000000600000000000000000000000000000000000000000000000000000000000000000000004000000000000000000000000000004000000008000000000000000000000000000000000000000000000000020000000000000000000800020000000000000000000010000000000000000000000000000000000000000000000000000000000000010000000000000000000000000000000000000000004000000000000000000000000000000000000002000000800000000000000000000000000000080000000000000020000000000000000000000000000000000000000000000000000000000000000000",
      "type": "0x2",
      "transactionHash": "0x053c2361119789a95caf8ee3980a8e45468a410cb59e57136ae9d4823a3e07fb",
      "transactionIndex": "0x69",
      "blockHash": "0x8b566aa5e850a148740db4114efd4173fe2af7cde14a7fad6fc67ccd81173287",
      "blockNumber": "0x731f38",
      "gasUsed": "0xfd4b",
      "effectiveGasPrice": "0x3a36f7bc",
      "from": "0xc77f7fed3b5cc8249adc428c5f44c9063b9734b4",
      "to": "0x8aafd3ede9adb0ff97c7aebce82a919afb1c8764",
      "contractAddress": null
    }
  ],
  "libraries": [],
  "pending": [],
  "returns": {},
  "timestamp": 1737520009,
  "chain": 11155111,
  "commit": "1d2fb70"
}