{
  "transactions": [
    {
      "hash": "0xf0b98f7894b6f7b988d907a0a3686e28157d01ee7a088cc31b57be8f63535a31",
      "transactionType": "CALL",
      "contractName": null,
      "contractAddress": "0x8aafd3ede9adb0ff97c7aebce82a919afb1c8764",
      "function": "sell(uint256)",
      "arguments": [
        "349476"
      ],
      "transaction": {
        "from": "0xc77f7fed3b5cc8249adc428c5f44c9063b9734b4",
        "to": "0x8aafd3ede9adb0ff97c7aebce82a919afb1c8764",
        "gas": "0x16208",
        "value": "0x0",
        "input": "0xe4849b320000000000000000000000000000000000000000000000000000000000055524",
        "nonce": "0x166e",
        "chainId": "0xaa36a7"
      },
      "additionalContracts": [],
      "isFixedGasLimit": false
    }
  ],
  "receipts": [
    {
      "status": "0x1",
      "cumulativeGasUsed": "0x17fa4f2",
      "logs": [
        {
          "address": "0x8aafd3ede9adb0ff97c7aebce82a919afb1c8764",
          "topics": [
            "0xddf252ad1be2c89b69c2b068fc378daa952ba7f163c4a11628f55a4df523b3ef",
            "0x000000000000000000000000c77f7fed3b5cc8249adc428c5f44c9063b9734b4",
            "0x0000000000000000000000000000000000000000000000000000000000000000"
          ],
          "data": "0x0000000000000000000000000000000000000000000000000000000000054a39",
          "blockHash": "0xaf07f71385434b5bbb3a59674254960fdc55715bf5fc7c15540a60c6ef240311",
          "blockNumber": "0x731e1d",
          "transactionHash": "0xf0b98f7894b6f7b988d907a0a3686e28157d01ee7a088cc31b57be8f63535a31",
          "transactionIndex": "0x74",
          "logIndex": "0xad",
          "removed": false
        },
        {
          "address": "0x8aafd3ede9adb0ff97c7aebce82a919afb1c8764",
          "topics": [
            "0xddf252ad1be2c89b69c2b068fc378daa952ba7f163c4a11628f55a4df523b3ef",
            "0x000000000000000000000000c77f7fed3b5cc8249adc428c5f44c9063b9734b4",
            "0x000000000000000000000000c77f7fed3b5cc8249adc428c5f44c9063b9734b4"
          ],
          "data": "0x0000000000000000000000000000000000000000000000000000000000000aeb",
          "blockHash": "0xaf07f71385434b5bbb3a59674254960fdc55715bf5fc7c15540a60c6ef240311",
          "blockNumber": "0x731e1d",
          "transactionHash": "0xf0b98f7894b6f7b988d907a0a3686e28157d01ee7a088cc31b57be8f63535a31",
          "transactionIndex": "0x74",
          "logIndex": "0xae",
          "removed": false
        },
        {
          "address": "0x8aafd3ede9adb0ff97c7aebce82a919afb1c8764",
          "topics": [
            "0x4afcb4a87cdbd9974efdb92ee48bc8d7cd0ae4bf217004db3d080cbaee652ca7"
          ],
          "data": "0x00000000000000000000000000000000000000000000000000000000679066440000000000000000000000000000000000000000000000000015465f7fe309c4000000000000000000000000000000000000000000000000000000000000082c",
          "blockHash": "0xaf07f71385434b5bbb3a59674254960fdc55715bf5fc7c15540a60c6ef240311",
          "blockNumber": "0x731e1d",
          "transactionHash": "0xf0b98f7894b6f7b988d907a0a3686e28157d01ee7a088cc31b57be8f63535a31",
          "transactionIndex": "0x74",
          "logIndex": "0xaf",
          "removed": false
        }
      ],
      "logsBloom": "0x00000000000000000000000000000000000000000600000000000000000000000000000000000000000000000000000000000000000000004000000000000000000000000000004000000008000000000000000000000000000000000000000000000000020000000000000000000800020000000000000000000010000000000000000000000000000000000000000000000000000000000000010000000000000000000000000000000000000000004000000000000000000000000000000000000002000000800000000000000000000000000000080000000000000020000000000000000000000000000000000000000000000000000000000000000000",
      "type": "0x2",
      "transactionHash": "0xf0b98f7894b6f7b988d907a0a3686e28157d01ee7a088cc31b57be8f63535a31",
      "transactionIndex": "0x74",
      "blockHash": "0xaf07f71385434b5bbb3a59674254960fdc55715bf5fc7c15540a60c6ef240311",
      "blockNumber": "0x731e1d",
      "gasUsed": "0xf213",
      "effectiveGasPrice": "0x3b75a139",
      "from": "0xc77f7fed3b5cc8249adc428c5f44c9063b9734b4",
      "to": "0x8aafd3ede9adb0ff97c7aebce82a919afb1c8764",
      "contractAddress": null
    }
  ],
  "libraries": [],
  "pending": [],
  "returns": {},
  "timestamp": 1737516614,
  "chain": 11155111,
  "commit": "1d2fb70"
}