{
  "transactions": [
    {
      "hash": "0x41ab164072ec2062dbacc18d09fa904817b9ccee8bbee0cc3c245262ba7a6b0d",
      "transactionType": "CALL",
      "contractName": null,
      "contractAddress": "0x270e88f8683660553e8ba4eb2ad7c91a1710d769",
      "function": "buy(address)",
      "arguments": [
        "0xC77f7fed3b5Cc8249aDc428c5F44C9063B9734b4"
      ],
      "transaction": {
        "from": "0xc77f7fed3b5cc8249adc428c5f44c9063b9734b4",
        "to": "0x270e88f8683660553e8ba4eb2ad7c91a1710d769",
        "gas": "0x1b30c",
        "value": "0xde0b6b3a7640000",
        "input": "0xf088d547000000000000000000000000c77f7fed3b5cc8249adc428c5f44c9063b9734b4",
        "nonce": "0x50e",
        "chainId": "0xaa36a7"
      },
      "additionalContracts": [],
      "isFixedGasLimit": false
    }
  ],
  "receipts": [
    {
      "status": "0x1",
      "cumulativeGasUsed": "0xf88321",
      "logs": [
        {
          "address": "0x270e88f8683660553e8ba4eb2ad7c91a1710d769",
          "topics": [
            "0xddf252ad1be2c89b69c2b068fc378daa952ba7f163c4a11628f55a4df523b3ef",
            "0x0000000000000000000000000000000000000000000000000000000000000000",
            "0x000000000000000000000000c77f7fed3b5cc8249adc428c5f44c9063b9734b4"
          ],
          "data": "0x0000000000000000000000000000000000000000000000352c053286293115e6",
          "blockHash": "0x25b4150e214d3a0333d8787fff1c28a5b4036efb1d28bf6a02cc3731893984e7",
          "blockNumber": "0x7251a5",
          "transactionHash": "0x41ab164072ec2062dbacc18d09fa904817b9ccee8bbee0cc3c245262ba7a6b0d",
          "transactionIndex": "0x7f",
          "logIndex": "0xfc",
          "removed": false
        },
        {
          "address": "0x270e88f8683660553e8ba4eb2ad7c91a1710d769",
          "topics": [
            "0xddf252ad1be2c89b69c2b068fc378daa952ba7f163c4a11628f55a4df523b3ef",
            "0x0000000000000000000000000000000000000000000000000000000000000000",
            "0x000000000000000000000000c77f7fed3b5cc8249adc428c5f44c9063b9734b4"
          ],
          "data": "0x000000000000000000000000000000000000000000000000294a32b4a3f940d6",
          "blockHash": "0x25b4150e214d3a0333d8787fff1c28a5b4036efb1d28bf6a02cc3731893984e7",
          "blockNumber": "0x7251a5",
          "transactionHash": "0x41ab164072ec2062dbacc18d09fa904817b9ccee8bbee0cc3c245262ba7a6b0d",
          "transactionIndex": "0x7f",
          "logIndex": "0xfd",
          "removed": false
        },
        {
          "address": "0x270e88f8683660553e8ba4eb2ad7c91a1710d769",
          "topics": [
            "0x4afcb4a87cdbd9974efdb92ee48bc8d7cd0ae4bf217004db3d080cbaee652ca7"
          ],
          "data": "0x000000000000000000000000000000000000000000000000000000006786c5a0000000000000000000000000000000000000000000000000000396157ccb4b290000000000000000000000000000000000000000000000000de0b6b3a7640000",
          "blockHash": "0x25b4150e214d3a0333d8787fff1c28a5b4036efb1d28bf6a02cc3731893984e7",
          "blockNumber": "0x7251a5",
          "transactionHash": "0x41ab164072ec2062dbacc18d09fa904817b9ccee8bbee0cc3c245262ba7a6b0d",
          "transactionIndex": "0x7f",
          "logIndex": "0xfe",
          "removed": false
        }
      ],
      "logsBloom": "0x00000000000000000000000000000000000000000000000000000000000000000000000000000000000000000000000020000000000000004000000000000000000000000000000000000008000000000000000000000000000000000000000000000000020000000000000000000800020000000000000000000010000000000000000000010000000000000000000000000000000000000000010000000000000000000000000000000000000000004000000000000000000000000000000000000002000000800000000000000000000000000000080000008000000020000000000000000000000000000000000000000000000000000000000000000000",
      "type": "0x2",
      "transactionHash": "0x41ab164072ec2062dbacc18d09fa904817b9ccee8bbee0cc3c245262ba7a6b0d",
      "transactionIndex": "0x7f",
      "blockHash": "0x25b4150e214d3a0333d8787fff1c28a5b4036efb1d28bf6a02cc3731893984e7",
      "blockNumber": "0x7251a5",
      "gasUsed": "0x13af8",
      "effectiveGasPrice": "0x4352d473e",
      "from": "0xc77f7fed3b5cc8249adc428c5f44c9063b9734b4",
      "to": "0x270e88f8683660553e8ba4eb2ad7c91a1710d769",
      "contractAddress": null
    }
  ],
  "libraries": [],
  "pending": [],
  "returns": {},
  "timestamp": 1736885666,
  "chain": 11155111,
  "commit": "51a374b"
}