{
  "transactions": [
    {
      "hash": "0xa0985f35d10f40f9fab2506bf5aaf83be6aa57239c56ee3da7035387806d52d6",
      "transactionType": "CALL",
      "contractName": null,
      "contractAddress": "0x5eb9cc76c3506942c1c0ead70e877dd5e4f00cb0",
      "function": "buy(address)",
      "arguments": [
        "0xC77f7fed3b5Cc8249aDc428c5F44C9063B9734b4"
      ],
      "transaction": {
        "from": "0xc77f7fed3b5cc8249adc428c5f44c9063b9734b4",
        "to": "0x5eb9cc76c3506942c1c0ead70e877dd5e4f00cb0",
        "gas": "0x156c8",
        "value": "0xde0b6b3a7640000",
        "input": "0xf088d547000000000000000000000000c77f7fed3b5cc8249adc428c5f44c9063b9734b4",
        "nonce": "0x140",
        "chainId": "0xaa36a7"
      },
      "additionalContracts": [],
      "isFixedGasLimit": false
    }
  ],
  "receipts": [
    {
      "status": "0x1",
      "cumulativeGasUsed": "0x5c7dc3",
      "logs": [
        {
          "address": "0x5eb9cc76c3506942c1c0ead70e877dd5e4f00cb0",
          "topics": [
            "0xddf252ad1be2c89b69c2b068fc378daa952ba7f163c4a11628f55a4df523b3ef",
            "0x0000000000000000000000000000000000000000000000000000000000000000",
            "0x000000000000000000000000c77f7fed3b5cc8249adc428c5f44c9063b9734b4"
          ],
          "data": "0x000000000000000000000000000000000000000000000035aaf8abe62297904d",
          "blockHash": "0xfef039b1a978372f36088dae73b496d2aea8dcbdf1c540629c8eaf83a6c15997",
          "blockNumber": "0x723b2a",
          "transactionHash": "0xa0985f35d10f40f9fab2506bf5aaf83be6aa57239c56ee3da7035387806d52d6",
          "transactionIndex": "0x2e",
          "logIndex": "0x31",
          "removed": false
        },
        {
          "address": "0x5eb9cc76c3506942c1c0ead70e877dd5e4f00cb0",
          "topics": [
            "0xddf252ad1be2c89b69c2b068fc378daa952ba7f163c4a11628f55a4df523b3ef",
            "0x0000000000000000000000000000000000000000000000000000000000000000",
            "0x000000000000000000000000c77f7fed3b5cc8249adc428c5f44c9063b9734b4"
          ],
          "data": "0x00000000000000000000000000000000000000000000000029acc7a7e4c55b94",
          "blockHash": "0xfef039b1a978372f36088dae73b496d2aea8dcbdf1c540629c8eaf83a6c15997",
          "blockNumber": "0x723b2a",
          "transactionHash": "0xa0985f35d10f40f9fab2506bf5aaf83be6aa57239c56ee3da7035387806d52d6",
          "transactionIndex": "0x2e",
          "logIndex": "0x32",
          "removed": false
        },
        {
          "address": "0x5eb9cc76c3506942c1c0ead70e877dd5e4f00cb0",
          "topics": [
            "0x4afcb4a87cdbd9974efdb92ee48bc8d7cd0ae4bf217004db3d080cbaee652ca7"
          ],
          "data": "0x000000000000000000000000000000000000000000000000000000006785b74c00000000000000000000000000000000000000000000000000038d7f52ff24310000000000000000000000000000000000000000000000000de0b6b3a7640000",
          "blockHash": "0xfef039b1a978372f36088dae73b496d2aea8dcbdf1c540629c8eaf83a6c15997",
          "blockNumber": "0x723b2a",
          "transactionHash": "0xa0985f35d10f40f9fab2506bf5aaf83be6aa57239c56ee3da7035387806d52d6",
          "transactionIndex": "0x2e",
          "logIndex": "0x33",
          "removed": false
        }
      ],
      "logsBloom": "0x00000000000000000000000000000000000000000000000000000000000000000000000000000000000000000000000000000000000000004000000000000000000000000000000000000008000000000000000000000000000000000000000000000000020000000000000004000800020000000000000000000010000000000000000000000000000000000000000000000000000000000000010000000000000000000000000000000000000000004000000000000000000000000000020000000002000000800000008000000000000000000000080000000000000020000000000000000000000000000000000000000000000000000000000000000000",
      "type": "0x2",
      "transactionHash": "0xa0985f35d10f40f9fab2506bf5aaf83be6aa57239c56ee3da7035387806d52d6",
      "transactionIndex": "0x2e",
      "blockHash": "0xfef039b1a978372f36088dae73b496d2aea8dcbdf1c540629c8eaf83a6c15997",
      "blockNumber": "0x723b2a",
      "gasUsed": "0xf82c",
      "effectiveGasPrice": "0x3fb752a75",
      "from": "0xc77f7fed3b5cc8249adc428c5f44c9063b9734b4",
      "to": "0x5eb9cc76c3506942c1c0ead70e877dd5e4f00cb0",
      "contractAddress": null
    }
  ],
  "libraries": [],
  "pending": [],
  "returns": {},
  "timestamp": 1736816463,
  "chain": 11155111,
  "commit": "51a374b"
}