{
  "transactions": [
    {
      "hash": "0xc494a89cd9f0fc6abfa55d9ac0beb58e57ed50e0833e4cb5e0b73cba9c4e3680",
      "transactionType": "CALL",
      "contractName": null,
      "contractAddress": "0xbf4a322f1496e5c3d34a9bcdb4c60567b38c7de2",
      "function": "buy(address)",
      "arguments": [
        "0xC77f7fed3b5Cc8249aDc428c5F44C9063B9734b4"
      ],
      "transaction": {
        "from": "0xc77f7fed3b5cc8249adc428c5f44c9063b9734b4",
        "to": "0xbf4a322f1496e5c3d34a9bcdb4c60567b38c7de2",
        "gas": "0x1b309",
        "value": "0xde0b6b3a7640000",
        "input": "0xf088d547000000000000000000000000c77f7fed3b5cc8249adc428c5f44c9063b9734b4",
        "nonce": "0xdf4",
        "chainId": "0xaa36a7"
      },
      "additionalContracts": [],
      "isFixedGasLimit": false
    }
  ],
  "receipts": [
    {
      "status": "0x1",
      "cumulativeGasUsed": "0xa0af5c",
      "logs": [
        {
          "address": "0xbf4a322f1496e5c3d34a9bcdb4c60567b38c7de2",
          "topics": [
            "0xddf252ad1be2c89b69c2b068fc378daa952ba7f163c4a11628f55a4df523b3ef",
            "0x0000000000000000000000000000000000000000000000000000000000000000",
            "0x000000000000000000000000c77f7fed3b5cc8249adc428c5f44c9063b9734b4"
          ],
          "data": "0x0000000000000000000000000000000000000000000000349f0e9b479f306c05",
          "blockHash": "0x42d4b2d5aa06c1780286f7cc843405aaca531bc3a950764ee2cddb431a9cb170",
          "blockNumber": "0x7266d7",
          "transactionHash": "0xc494a89cd9f0fc6abfa55d9ac0beb58e57ed50e0833e4cb5e0b73cba9c4e3680",
          "transactionIndex": "0x3a",
          "logIndex": "0x50",
          "removed": false
        },
        {
          "address": "0xbf4a322f1496e5c3d34a9bcdb4c60567b38c7de2",
          "topics": [
            "0xddf252ad1be2c89b69c2b068fc378daa952ba7f163c4a11628f55a4df523b3ef",
            "0x0000000000000000000000000000000000000000000000000000000000000000",
            "0x000000000000000000000000c77f7fed3b5cc8249adc428c5f44c9063b9734b4"
          ],
          "data": "0x00000000000000000000000000000000000000000000000028dcbc3ca9a49fe3",
          "blockHash": "0x42d4b2d5aa06c1780286f7cc843405aaca531bc3a950764ee2cddb431a9cb170",
          "blockNumber": "0x7266d7",
          "transactionHash": "0xc494a89cd9f0fc6abfa55d9ac0beb58e57ed50e0833e4cb5e0b73cba9c4e3680",
          "transactionIndex": "0x3a",
          "logIndex": "0x51",
          "removed": false
        },
        {
          "address": "0xbf4a322f1496e5c3d34a9bcdb4c60567b38c7de2",
          "topics": [
            "0x4afcb4a87cdbd9974efdb92ee48bc8d7cd0ae4bf217004db3d080cbaee652ca7"
          ],
          "data": "0x000000000000000000000000000000000000000000000000000000006787c54800000000000000000000000000000000000000000000000000039f98352745640000000000000000000000000000000000000000000000000de0b6b3a7640000",
          "blockHash": "0x42d4b2d5aa06c1780286f7cc843405aaca531bc3a950764ee2cddb431a9cb170",
          "blockNumber": "0x7266d7",
          "transactionHash": "0xc494a89cd9f0fc6abfa55d9ac0beb58e57ed50e0833e4cb5e0b73cba9c4e3680",
          "transactionIndex": "0x3a",
          "logIndex": "0x52",
          "removed": false
        }
      ],
      "logsBloom": "0x00000000000000000000000000000000000000000000000000000000000000000000000000000000000000000000000000000000000000004000000000000000000000000000000000000008000000000000001000000000000000000000000000000000020000000000000000000800020000000000000000000010000000000000000000000000000000000000000000000000000008000000010000000000000000000000000000000000000000004000000000000000000000000000000000000002000000800000000000001000000000000000080000000000000020000000000000000000000000000000000000000000000000000000000000000000",
      "type": "0x2",
      "transactionHash": "0xc494a89cd9f0fc6abfa55d9ac0beb58e57ed50e0833e4cb5e0b73cba9c4e3680",
      "transactionIndex": "0x3a",
      "blockHash": "0x42d4b2d5aa06c1780286f7cc843405aaca531bc3a950764ee2cddb431a9cb170",
      "blockNumber": "0x7266d7",
      "gasUsed": "0x13af6",
      "effectiveGasPrice": "0x3241fa51d",
      "from": "0xc77f7fed3b5cc8249adc428c5f44c9063b9734b4",
      "to": "0xbf4a322f1496e5c3d34a9bcdb4c60567b38c7de2",
      "contractAddress": null
    }
  ],
  "libraries": [],
  "pending": [],
  "returns": {},
  "timestamp": 1736951115,
  "chain": 11155111,
  "commit": "51a374b"
}