{
  "transactions": [
    {
      "hash": "0xf9d21c8cf92a1ed29112056eefe89477c09dd9bf5a5ceed91e851ce3da66261c",
      "transactionType": "CALL",
      "contractName": null,
      "contractAddress": "0x8aafd3ede9adb0ff97c7aebce82a919afb1c8764",
      "function": "sell(uint256)",
      "arguments": [
        "155106657346300566826"
      ],
      "transaction": {
        "from": "0xc77f7fed3b5cc8249adc428c5f44c9063b9734b4",
        "to": "0x8aafd3ede9adb0ff97c7aebce82a919afb1c8764",
        "gas": "0x17270",
        "value": "0x0",
        "input": "0xe4849b3200000000000000000000000000000000000000000000000868898b10f07a5d2a",
        "nonce": "0x16ee",
        "chainId": "0xaa36a7"
      },
      "additionalContracts": [],
      "isFixedGasLimit": false
    }
  ],
  "receipts": [
    {
      "status": "0x1",
      "cumulativeGasUsed": "0xbfe492",
      "logs": [
        {
          "address": "0x8aafd3ede9adb0ff97c7aebce82a919afb1c8764",
          "topics": [
            "0xddf252ad1be2c89b69c2b068fc378daa952ba7f163c4a11628f55a4df523b3ef",
            "0x000000000000000000000000c77f7fed3b5cc8249adc428c5f44c9063b9734b4",
            "0x0000000000000000000000000000000000000000000000000000000000000000"
          ],
          "data": "0x0000000000000000000000000000000000000000000000085751259a05150874",
          "blockHash": "0x969af06c6d66d7a4f741597456614cf76bddcf515f144d25ab13578e5d11c817",
          "blockNumber": "0x731ead",
          "transactionHash": "0xf9d21c8cf92a1ed29112056eefe89477c09dd9bf5a5ceed91e851ce3da66261c",
          "transactionIndex": "0x54",
          "logIndex": "0x78",
          "removed": false
        },
        {
          "address": "0x8aafd3ede9adb0ff97c7aebce82a919afb1c8764",
          "topics": [
            "0xddf252ad1be2c89b69c2b068fc378daa952ba7f163c4a11628f55a4df523b3ef",
            "0x000000000000000000000000c77f7fed3b5cc8249adc428c5f44c9063b9734b4",
            "0x000000000000000000000000c77f7fed3b5cc8249adc428c5f44c9063b9734b4"
          ],
          "data": "0x00000000000000000000000000000000000000000000000011386576eb6554b6",
          "blockHash": "0x969af06c6d66d7a4f741597456614cf76bddcf515f144d25ab13578e5d11c817",
          "blockNumber": "0x731ead",
          "transactionHash": "0xf9d21c8cf92a1ed29112056eefe89477c09dd9bf5a5ceed91e851ce3da66261c",
          "transactionIndex": "0x54",
          "logIndex": "0x79",
          "removed": false
        },
        {
          "address": "0x8aafd3ede9adb0ff97c7aebce82a919afb1c8764",
          "topics": [
            "0x4afcb4a87cdbd9974efdb92ee48bc8d7cd0ae4bf217004db3d080cbaee652ca7"
          ],
          "data": "0x0000000000000000000000000000000000000000000000000000000067906d040000000000000000000000000000000000000000000000000016d966e43180c90000000000000000000000000000000000000000000000000dcc041e32b9bee2",
          "blockHash": "0x969af06c6d66d7a4f741597456614cf76bddcf515f144d25ab13578e5d11c817",
          "blockNumber": "0x731ead",
          "transactionHash": "0xf9d21c8cf92a1ed29112056eefe89477c09dd9bf5a5ceed91e851ce3da66261c",
          "transactionIndex": "0x54",
          "logIndex": "0x7a",
          "removed": false
        }
      ],
      "logsBloom": "0x00000000000000000000000000000000000000000600000000000000000000000000000000000000000000000000000000000000000000004000000000000000000000000000004000000008000000000000000000000000000000000000000000000000020000000000000000000800020000000000000000000010000000000000000000000000000000000000000000000000000000000000010000000000000000000000000000000000000000004000000000000000000000000000000000000002000000800000000000000000000000000000080000000000000020000000000000000000000000000000000000000000000000000000000000000000",
      "type": "0x2",
      "transactionHash": "0xf9d21c8cf92a1ed29112056eefe89477c09dd9bf5a5ceed91e851ce3da66261c",
      "transactionIndex": "0x54",
      "blockHash": "0x969af06c6d66d7a4f741597456614cf76bddcf515f144d25ab13578e5d11c817",
      "blockNumber": "0x731ead",
      "gasUsed": "0xfd4b",
      "effectiveGasPrice": "0x452c7bfe",
      "from": "0xc77f7fed3b5cc8249adc428c5f44c9063b9734b4",
      "to": "0x8aafd3ede9adb0ff97c7aebce82a919afb1c8764",
      "contractAddress": null
    }
  ],
  "libraries": [],
  "pending": [],
  "returns": {},
  "timestamp": 1737518341,
  "chain": 11155111,
  "commit": "1d2fb70"
}