{
  "transactions": [
    {
      "hash": "0x2b87ea277348ba8fd59e3722f9fb8879dfae143a110a6376513e7c44ee4a42ff",
      "transactionType": "CALL",
      "contractName": null,
      "contractAddress": "0x8aafd3ede9adb0ff97c7aebce82a919afb1c8764",
      "function": "sell(uint256)",
      "arguments": [
        "405492"
      ],
      "transaction": {
        "from": "0xc77f7fed3b5cc8249adc428c5f44c9063b9734b4",
        "to": "0x8aafd3ede9adb0ff97c7aebce82a919afb1c8764",
        "gas": "0x16208",
        "value": "0x0",
        "input": "0xe4849b320000000000000000000000000000000000000000000000000000000000062ff4",
        "nonce": "0x1572",
        "chainId": "0xaa36a7"
      },
      "additionalContracts": [],
      "isFixedGasLimit": false
    }
  ],
  "receipts": [
    {
      "status": "0x1",
      "cumulativeGasUsed": "0x180ece2",
      "logs": [
        {
          "address": "0x8aafd3ede9adb0ff97c7aebce82a919afb1c8764",
          "topics": [
            "0xddf252ad1be2c89b69c2b068fc378daa952ba7f163c4a11628f55a4df523b3ef",
            "0x000000000000000000000000c77f7fed3b5cc8249adc428c5f44c9063b9734b4",
            "0x0000000000000000000000000000000000000000000000000000000000000000"
          ],
          "data": "0x0000000000000000000000000000000000000000000000000000000000062349",
          "blockHash": "0x8916994a050c2903d94ccf69f1247aa807e2139431f84dd8aafc0e164cea7b15",
          "blockNumber": "0x731cdc",
          "transactionHash": "0x2b87ea277348ba8fd59e3722f9fb8879dfae143a110a6376513e7c44ee4a42ff",
          "transactionIndex": "0xe0",
          "logIndex": "0x1a2",
          "removed": false
        },
        {
          "address": "0x8aafd3ede9adb0ff97c7aebce82a919afb1c8764",
          "topics": [
            "0xddf252ad1be2c89b69c2b068fc378daa952ba7f163c4a11628f55a4df523b3ef",
            "0x000000000000000000000000c77f7fed3b5cc8249adc428c5f44c9063b9734b4",
            "0x000000000000000000000000c77f7fed3b5cc8249adc428c5f44c9063b9734b4"
          ],
          "data": "0x0000000000000000000000000000000000000000000000000000000000000cab",
          "blockHash": "0x8916994a050c2903d94ccf69f1247aa807e2139431f84dd8aafc0e164cea7b15",
          "blockNumber": "0x731cdc",
          "transactionHash": "0x2b87ea277348ba8fd59e3722f9fb8879dfae143a110a6376513e7c44ee4a42ff",
          "transactionIndex": "0xe0",
          "logIndex": "0x1a3",
          "removed": false
        },
        {
          "address": "0x8aafd3ede9adb0ff97c7aebce82a919afb1c8764",
          "topics": [
            "0x4afcb4a87cdbd9974efdb92ee48bc8d7cd0ae4bf217004db3d080cbaee652ca7"
          ],
          "data": "0x000000000000000000000000000000000000000000000000000000006790573800000000000000000000000000000000000000000000000000125982489dc4cd000000000000000000000000000000000000000000000000000000000000082e",
          "blockHash": "0x8916994a050c2903d94ccf69f1247aa807e2139431f84dd8aafc0e164cea7b15",
          "blockNumber": "0x731cdc",
          "transactionHash": "0x2b87ea277348ba8fd59e3722f9fb8879dfae143a110a6376513e7c44ee4a42ff",
          "transactionIndex": "0xe0",
          "logIndex": "0x1a4",
          "removed": false
        }
      ],
      "logsBloom": "0x00000000000000000000000000000000000000000600000000000000000000000000000000000000000000000000000000000000000000004000000000000000000000000000004000000008000000000000000000000000000000000000000000000000020000000000000000000800020000000000000000000010000000000000000000000000000000000000000000000000000000000000010000000000000000000000000000000000000000004000000000000000000000000000000000000002000000800000000000000000000000000000080000000000000020000000000000000000000000000000000000000000000000000000000000000000",
      "type": "0x2",
      "transactionHash": "0x2b87ea277348ba8fd59e3722f9fb8879dfae143a110a6376513e7c44ee4a42ff",
      "transactionIndex": "0xe0",
      "blockHash": "0x8916994a050c2903d94ccf69f1247aa807e2139431f84dd8aafc0e164cea7b15",
      "blockNumber": "0x731cdc",
      "gasUsed": "0xf213",
      "effectiveGasPrice": "0x6d505b26",
      "from": "0xc77f7fed3b5cc8249adc428c5f44c9063b9734b4",
      "to": "0x8aafd3ede9adb0ff97c7aebce82a919afb1c8764",
      "contractAddress": null
    }
  ],
  "libraries": [],
  "pending": [],
  "returns": {},
  "timestamp": 1737512761,
  "chain": 11155111,
  "commit": "1d2fb70"
}