{
  "transactions": [
    {
      "hash": "0x5e73663343794fc3b305e81ba99f0a5baf578341916d957fe633410229c9c40b",
      "transactionType": "CALL",
      "contractName": null,
      "contractAddress": "0x270e88f8683660553e8ba4eb2ad7c91a1710d769",
      "function": "sell(uint256)",
      "arguments": [
        "950503674883821967473"
      ],
      "transaction": {
        "from": "0xc77f7fed3b5cc8249adc428c5f44c9063b9734b4",
        "to": "0x270e88f8683660553e8ba4eb2ad7c91a1710d769",
        "gas": "0x16fec",
        "value": "0x0",
        "input": "0xe4849b3200000000000000000000000000000000000000000000003386e3685291969871",
        "nonce": "0x5eb",
        "chainId": "0xaa36a7"
      },
      "additionalContracts": [],
      "isFixedGasLimit": false
    }
  ],
  "receipts": [
    {
      "status": "0x1",
      "cumulativeGasUsed": "0x9d8f79",
      "logs": [
        {
          "address": "0x270e88f8683660553e8ba4eb2ad7c91a1710d769",
          "topics": [
            "0xddf252ad1be2c89b69c2b068fc378daa952ba7f163c4a11628f55a4df523b3ef",
            "0x000000000000000000000000c77f7fed3b5cc8249adc428c5f44c9063b9734b4",
            "0x0000000000000000000000000000000000000000000000000000000000000000"
          ],
          "data": "0x00000000000000000000000000000000000000000000003386e3685291969871",
          "blockHash": "0x408793650b94447370a4febbd45c578e15af56206fdd0c0868b62869b74feac6",
          "blockNumber": "0x7252b0",
          "transactionHash": "0x5e73663343794fc3b305e81ba99f0a5baf578341916d957fe633410229c9c40b",
          "transactionIndex": "0x54",
          "logIndex": "0xaf",
          "removed": false
        },
        {
          "address": "0x270e88f8683660553e8ba4eb2ad7c91a1710d769",
          "topics": [
            "0x4afcb4a87cdbd9974efdb92ee48bc8d7cd0ae4bf217004db3d080cbaee652ca7"
          ],
          "data": "0x000000000000000000000000000000000000000000000000000000006786d2480000000000000000000000000000000000000000000000000003b673f7d2e4760000000000000000000000000000000000000000000000000dc83e35df97da68",
          "blockHash": "0x408793650b94447370a4febbd45c578e15af56206fdd0c0868b62869b74feac6",
          "blockNumber": "0x7252b0",
          "transactionHash": "0x5e73663343794fc3b305e81ba99f0a5baf578341916d957fe633410229c9c40b",
          "transactionIndex": "0x54",
          "logIndex": "0xb0",
          "removed": false
        }
      ],
      "logsBloom": "0x00000000000000000000000000000000000000000000000000000000000000000000000000000000000000000000000020000000000000004000000000000000000000000000000000000008000000000000000000000000000000000000000000000000020000000000000000000800020000000000000000000010000000000000000000010000000000000000000000000000000000000000010000000000000000000000000000000000000000004000000000000000000000000000000000000002000000800000000000000000000000000000080000008000000020000000000000000000000000000000000000000000000000000000000000000000",
      "type": "0x2",
      "transactionHash": "0x5e73663343794fc3b305e81ba99f0a5baf578341916d957fe633410229c9c40b",
      "transactionIndex": "0x54",
      "blockHash": "0x408793650b94447370a4febbd45c578e15af56206fdd0c0868b62869b74feac6",
      "blockNumber": "0x7252b0",
      "gasUsed": "0xfb93",
      "effectiveGasPrice": "0x3084eb49d",
      "from": "0xc77f7fed3b5cc8249adc428c5f44c9063b9734b4",
      "to": "0x270e88f8683660553e8ba4eb2ad7c91a1710d769",
      "contractAddress": null
    }
  ],
  "libraries": [],
  "pending": [],
  "returns": {},
  "timestamp": 1736888905,
  "chain": 11155111,
  "commit": "51a374b"
}