{
  "transactions": [
    {
      "hash": "0xae7feb5fb3e307af2a72cb1220668d8699d8425012906b0bc8b46fc19bf33d66",
      "transactionType": "CALL",
      "contractName": null,
      "contractAddress": "0x8aafd3ede9adb0ff97c7aebce82a919afb1c8764",
      "function": "sell(uint256)",
      "arguments": [
        "84901098923201"
      ],
      "transaction": {
        "from": "0xc77f7fed3b5cc8249adc428c5f44c9063b9734b4",
        "to": "0x8aafd3ede9adb0ff97c7aebce82a919afb1c8764",
        "gas": "0x15daa",
        "value": "0x0",
        "input": "0xe4849b3200000000000000000000000000000000000000000000000000004d3793d7a4c1",
        "nonce": "0x1673",
        "chainId": "0xaa36a7"
      },
      "additionalContracts": [],
      "isFixedGasLimit": false
    }
  ],
  "receipts": [
    {
      "status": "0x1",
      "cumulativeGasUsed": "0x79212d",
      "logs": [
        {
          "address": "0x8aafd3ede9adb0ff97c7aebce82a919afb1c8764",
          "topics": [
            "0xddf252ad1be2c89b69c2b068fc378daa952ba7f163c4a11628f55a4df523b3ef",
            "0x000000000000000000000000c77f7fed3b5cc8249adc428c5f44c9063b9734b4",
            "0x0000000000000000000000000000000000000000000000000000000000000000"
          ],
          "data": "0x00000000000000000000000000000000000000000000000000004c996fd7f768",
          "blockHash": "0x1b43f2c966e66a7c4ba56c66dbebde5f5e268f9c85dbfb28960beb6d2fafc895",
          "blockNumber": "0x731e23",
          "transactionHash": "0xae7feb5fb3e307af2a72cb1220668d8699d8425012906b0bc8b46fc19bf33d66",
          "transactionIndex": "0x5f",
          "logIndex": "0xa9",
          "removed": false
        },
        {
          "address": "0x8aafd3ede9adb0ff97c7aebce82a919afb1c8764",
          "topics": [
            "0xddf252ad1be2c89b69c2b068fc378daa952ba7f163c4a11628f55a4df523b3ef",
            "0x000000000000000000000000c77f7fed3b5cc8249adc428c5f44c9063b9734b4",
            "0x000000000000000000000000c77f7fed3b5cc8249adc428c5f44c9063b9734b4"
          ],
          "data": "0x0000000000000000000000000000000000000000000000000000009e23ffad59",
          "blockHash": "0x1b43f2c966e66a7c4ba56c66dbebde5f5e268f9c85dbfb28960beb6d2fafc895",
          "blockNumber": "0x731e23",
          "transactionHash": "0xae7feb5fb3e307af2a72cb1220668d8699d8425012906b0bc8b46fc19bf33d66",
          "transactionIndex": "0x5f",
          "logIndex": "0xaa",
          "removed": false
        },
        {
          "address": "0x8aafd3ede9adb0ff97c7aebce82a919afb1c8764",
          "topics": [
            "0x4afcb4a87cdbd9974efdb92ee48bc8d7cd0ae4bf217004db3d080cbaee652ca7"
          ],
          "data": "0x000000000000000000000000000000000000000000000000000000006790668c000000000000000000000000000000000000000000000000001561364948b18b00000000000000000000000000000000000000000000000000000076f5618adb",
          "blockHash": "0x1b43f2c966e66a7c4ba56c66dbebde5f5e268f9c85dbfb28960beb6d2fafc895",
          "blockNumber": "0x731e23",
          "transactionHash": "0xae7feb5fb3e307af2a72cb1220668d8699d8425012906b0bc8b46fc19bf33d66",
          "transactionIndex": "0x5f",
          "logIndex": "0xab",
          "removed": false
        }
      ],
      "logsBloom": "0x00000000000000000000000000000000000000000600000000000000000000000000000000000000000000000000000000000000000000004000000000000000000000000000004000000008000000000000000000000000000000000000000000000000020000000000000000000800020000000000000000000010000000000000000000000000000000000000000000000000000000000000010000000000000000000000000000000000000000004000000000000000000000000000000000000002000000800000000000000000000000000000080000000000000020000000000000000000000000000000000000000000000000000000000000000000",
      "type": "0x2",
      "transactionHash": "0xae7feb5fb3e307af2a72cb1220668d8699d8425012906b0bc8b46fc19bf33d66",
      "transactionIndex": "0x5f",
      "blockHash": "0x1b43f2c966e66a7c4ba56c66dbebde5f5e268f9c85dbfb28960beb6d2fafc895",
      "blockNumber": "0x731e23",
      "gasUsed": "0xfd27",
      "effectiveGasPrice": "0x4bb63a81",
      "from": "0xc77f7fed3b5cc8249adc428c5f44c9063b9734b4",
      "to": "0x8aafd3ede9adb0ff97c7aebce82a919afb1c8764",
      "contractAddress": null
    }
  ],
  "libraries": [],
  "pending": [],
  "returns": {},
  "timestamp": 1737516687,
  "chain": 11155111,
  "commit": "1d2fb70"
}