{
  "transactions": [
    {
      "hash": "0x113ac14cd1892b530b9eccfbf5d2e443324758f57a5c09cf5efd28b0c90941bb",
      "transactionType": "CALL",
      "contractName": null,
      "contractAddress": "0x8aafd3ede9adb0ff97c7aebce82a919afb1c8764",
      "function": "sell(uint256)",
      "arguments": [
        "242945412188275450840"
      ],
      "transaction": {
        "from": "0xc77f7fed3b5cc8249adc428c5f44c9063b9734b4",
        "to": "0x8aafd3ede9adb0ff97c7aebce82a919afb1c8764",
        "gas": "0x17270",
        "value": "0x0",
        "input": "0xe4849b3200000000000000000000000000000000000000000000000d2b8b7d348d03a3d8",
        "nonce": "0x1427",
        "chainId": "0xaa36a7"
      },
      "additionalContracts": [],
      "isFixedGasLimit": false
    }
  ],
  "receipts": [
    {
      "status": "0x1",
      "cumulativeGasUsed": "0x95e4cc",
      "logs": [
        {
          "address": "0x8aafd3ede9adb0ff97c7aebce82a919afb1c8764",
          "topics": [
            "0xddf252ad1be2c89b69c2b068fc378daa952ba7f163c4a11628f55a4df523b3ef",
            "0x000000000000000000000000c77f7fed3b5cc8249adc428c5f44c9063b9734b4",
            "0x0000000000000000000000000000000000000000000000000000000000000000"
          ],
          "data": "0x00000000000000000000000000000000000000000000000d109290af02ab8c02",
          "blockHash": "0x6643a659ed3cbcbed3339d003bba1c5b0a551da170d09ba8a8c4e2b3665db2c7",
          "blockNumber": "0x731b64",
          "transactionHash": "0x113ac14cd1892b530b9eccfbf5d2e443324758f57a5c09cf5efd28b0c90941bb",
          "transactionIndex": "0x64",
          "logIndex": "0x66",
          "removed": false
        },
        {
          "address": "0x8aafd3ede9adb0ff97c7aebce82a919afb1c8764",
          "topics": [
            "0xddf252ad1be2c89b69c2b068fc378daa952ba7f163c4a11628f55a4df523b3ef",
            "0x000000000000000000000000c77f7fed3b5cc8249adc428c5f44c9063b9734b4",
            "0x000000000000000000000000c77f7fed3b5cc8249adc428c5f44c9063b9734b4"
          ],
          "data": "0x0000000000000000000000000000000000000000000000001af8ec858a5817d6",
          "blockHash": "0x6643a659ed3cbcbed3339d003bba1c5b0a551da170d09ba8a8c4e2b3665db2c7",
          "blockNumber": "0x731b64",
          "transactionHash": "0x113ac14cd1892b530b9eccfbf5d2e443324758f57a5c09cf5efd28b0c90941bb",
          "transactionIndex": "0x64",
          "logIndex": "0x67",
          "removed": false
        },
        {
          "address": "0x8aafd3ede9adb0ff97c7aebce82a919afb1c8764",
          "topics": [
            "0x4afcb4a87cdbd9974efdb92ee48bc8d7cd0ae4bf217004db3d080cbaee652ca7"
          ],
          "data": "0x0000000000000000000000000000000000000000000000000000000067904580000000000000000000000000000000000000000000000000000e9f93f8c178620000000000000000000000000000000000000000000000000dcdcee03641dbf4",
          "blockHash": "0x6643a659ed3cbcbed3339d003bba1c5b0a551da170d09ba8a8c4e2b3665db2c7",
          "blockNumber": "0x731b64",
          "transactionHash": "0x113ac14cd1892b530b9eccfbf5d2e443324758f57a5c09cf5efd28b0c90941bb",
          "transactionIndex": "0x64",
          "logIndex": "0x68",
          "removed": false
        }
      ],
      "logsBloom": "0x00000000000000000000000000000000000000000600000000000000000000000000000000000000000000000000000000000000000000004000000000000000000000000000004000000008000000000000000000000000000000000000000000000000020000000000000000000800020000000000000000000010000000000000000000000000000000000000000000000000000000000000010000000000000000000000000000000000000000004000000000000000000000000000000000000002000000800000000000000000000000000000080000000000000020000000000000000000000000000000000000000000000000000000000000000000",
      "type": "0x2",
      "transactionHash": "0x113ac14cd1892b530b9eccfbf5d2e443324758f57a5c09cf5efd28b0c90941bb",
      "transactionIndex": "0x64",
      "blockHash": "0x6643a659ed3cbcbed3339d003bba1c5b0a551da170d09ba8a8c4e2b3665db2c7",
      "blockNumber": "0x731b64",
      "gasUsed": "0xfd4b",
      "effectiveGasPrice": "0xfefaa4fa",
      "from": "0xc77f7fed3b5cc8249adc428c5f44c9063b9734b4",
      "to": "0x8aafd3ede9adb0ff97c7aebce82a919afb1c8764",
      "contractAddress": null
    }
  ],
  "libraries": [],
  "pending": [],
  "returns": {},
  "timestamp": 1737508225,
  "chain": 11155111,
  "commit": "1d2fb70"
}