{
  "transactions": [
    {
      "hash": "0xd4692c5482be6685e31cf9ec65dcfb4b782b0d308a12184a2478641273bff486",
      "transactionType": "CALL",
      "contractName": null,
      "contractAddress": "0x8aafd3ede9adb0ff97c7aebce82a919afb1c8764",
      "function": "sell(uint256)",
      "arguments": [
        "716652159084677242082"
      ],
      "transaction": {
        "from": "0xc77f7fed3b5cc8249adc428c5f44c9063b9734b4",
        "to": "0x8aafd3ede9adb0ff97c7aebce82a919afb1c8764",
        "gas": "0x17270",
        "value": "0x0",
        "input": "0xe4849b32000000000000000000000000000000000000000000000026d98bedb39eeb1ce2",
        "nonce": "0x102d",
        "chainId": "0xaa36a7"
      },
      "additionalContracts": [],
      "isFixedGasLimit": false
    }
  ],
  "receipts": [
    {
      "status": "0x1",
      "cumulativeGasUsed": "0xccaeba",
      "logs": [
        {
          "address": "0x8aafd3ede9adb0ff97c7aebce82a919afb1c8764",
          "topics": [
            "0xddf252ad1be2c89b69c2b068fc378daa952ba7f163c4a11628f55a4df523b3ef",
            "0x000000000000000000000000c77f7fed3b5cc8249adc428c5f44c9063b9734b4",
            "0x0000000000000000000000000000000000000000000000000000000000000000"
          ],
          "data": "0x00000000000000000000000000000000000000000000002689fb72f7d0d8d912",
          "blockHash": "0x7e057e4254566865ec352e3c3ee13b5fb518ebf71a8aa4047795e99a9463a6ba",
          "blockNumber": "0x7316a8",
          "transactionHash": "0xd4692c5482be6685e31cf9ec65dcfb4b782b0d308a12184a2478641273bff486",
          "transactionIndex": "0x8b",
          "logIndex": "0x9a",
          "removed": false
        },
        {
          "address": "0x8aafd3ede9adb0ff97c7aebce82a919afb1c8764",
          "topics": [
            "0xddf252ad1be2c89b69c2b068fc378daa952ba7f163c4a11628f55a4df523b3ef",
            "0x000000000000000000000000c77f7fed3b5cc8249adc428c5f44c9063b9734b4",
            "0x000000000000000000000000c77f7fed3b5cc8249adc428c5f44c9063b9734b4"
          ],
          "data": "0x0000000000000000000000000000000000000000000000004f907abbce1243d0",
          "blockHash": "0x7e057e4254566865ec352e3c3ee13b5fb518ebf71a8aa4047795e99a9463a6ba",
          "blockNumber": "0x7316a8",
          "transactionHash": "0xd4692c5482be6685e31cf9ec65dcfb4b782b0d308a12184a2478641273bff486",
          "transactionIndex": "0x8b",
          "logIndex": "0x9b",
          "removed": false
        },
        {
          "address": "0x8aafd3ede9adb0ff97c7aebce82a919afb1c8764",
          "topics": [
            "0x4afcb4a87cdbd9974efdb92ee48bc8d7cd0ae4bf217004db3d080cbaee652ca7"
          ],
          "data": "0x0000000000000000000000000000000000000000000000000000000067900c8c0000000000000000000000000000000000000000000000000004eda6e8afea620000000000000000000000000000000000000000000000000dc900283e0f9d21",
          "blockHash": "0x7e057e4254566865ec352e3c3ee13b5fb518ebf71a8aa4047795e99a9463a6ba",
          "blockNumber": "0x7316a8",
          "transactionHash": "0xd4692c5482be6685e31cf9ec65dcfb4b782b0d308a12184a2478641273bff486",
          "transactionIndex": "0x8b",
          "logIndex": "0x9c",
          "removed": false
        }
      ],
      "logsBloom": "0x00000000000000000000000000000000000000000600000000000000000000000000000000000000000000000000000000000000000000004000000000000000000000000000004000000008000000000000000000000000000000000000000000000000020000000000000000000800020000000000000000000010000000000000000000000000000000000000000000000000000000000000010000000000000000000000000000000000000000004000000000000000000000000000000000000002000000800000000000000000000000000000080000000000000020000000000000000000000000000000000000000000000000000000000000000000",
      "type": "0x2",
      "transactionHash": "0xd4692c5482be6685e31cf9ec65dcfb4b782b0d308a12184a2478641273bff486",
      "transactionIndex": "0x8b",
      "blockHash": "0x7e057e4254566865ec352e3c3ee13b5fb518ebf71a8aa4047795e99a9463a6ba",
      "blockNumber": "0x7316a8",
      "gasUsed": "0xfd4b",
      "effectiveGasPrice": "0x43cba985",
      "from": "0xc77f7fed3b5cc8249adc428c5f44c9063b9734b4",
      "to": "0x8aafd3ede9adb0ff97c7aebce82a919afb1c8764",
      "contractAddress": null
    }
  ],
  "libraries": [],
  "pending": [],
  "returns": {},
  "timestamp": 1737493645,
  "chain": 11155111,
  "commit": "1d2fb70"
}