{
  "transactions": [
    {
      "hash": "0xcd22d9d315fba9d3058c06f9421df9903c41ee858f6e7235ddcb663124cc69e2",
      "transactionType": "CALL",
      "contractName": null,
      "contractAddress": "0x8aafd3ede9adb0ff97c7aebce82a919afb1c8764",
      "function": "sell(uint256)",
      "arguments": [
        "475753"
      ],
      "transaction": {
        "from": "0xc77f7fed3b5cc8249adc428c5f44c9063b9734b4",
        "to": "0x8aafd3ede9adb0ff97c7aebce82a919afb1c8764",
        "gas": "0x16208",
        "value": "0x0",
        "input": "0xe4849b320000000000000000000000000000000000000000000000000000000000074269",
        "nonce": "0x1488",
        "chainId": "0xaa36a7"
      },
      "additionalContracts": [],
      "isFixedGasLimit": false
    }
  ],
  "receipts": [
    {
      "status": "0x1",
      "cumulativeGasUsed": "0xbf9273",
      "logs": [
        {
          "address": "0x8aafd3ede9adb0ff97c7aebce82a919afb1c8764",
          "topics": [
            "0xddf252ad1be2c89b69c2b068fc378daa952ba7f163c4a11628f55a4df523b3ef",
            "0x000000000000000000000000c77f7fed3b5cc8249adc428c5f44c9063b9734b4",
            "0x0000000000000000000000000000000000000000000000000000000000000000"
          ],
          "data": "0x000000000000000000000000000000000000000000000000000000000007338b",
          "blockHash": "0x7b6bd2258e0b3283273fc6fb57ea1fcacdddbdd82ee7a4a1305370303391a87a",
          "blockNumber": "0x731bd7",
          "transactionHash": "0xcd22d9d315fba9d3058c06f9421df9903c41ee858f6e7235ddcb663124cc69e2",
          "transactionIndex": "0x78",
          "logIndex": "0xbc",
          "removed": false
        },
        {
          "address": "0x8aafd3ede9adb0ff97c7aebce82a919afb1c8764",
          "topics": [
            "0xddf252ad1be2c89b69c2b068fc378daa952ba7f163c4a11628f55a4df523b3ef",
            "0x000000000000000000000000c77f7fed3b5cc8249adc428c5f44c9063b9734b4",
            "0x000000000000000000000000c77f7fed3b5cc8249adc428c5f44c9063b9734b4"
          ],
          "data": "0x0000000000000000000000000000000000000000000000000000000000000ede",
          "blockHash": "0x7b6bd2258e0b3283273fc6fb57ea1fcacdddbdd82ee7a4a1305370303391a87a",
          "blockNumber": "0x731bd7",
          "transactionHash": "0xcd22d9d315fba9d3058c06f9421df9903c41ee858f6e7235ddcb663124cc69e2",
          "transactionIndex": "0x78",
          "logIndex": "0xbd",
          "removed": false
        },
        {
          "address": "0x8aafd3ede9adb0ff97c7aebce82a919afb1c8764",
          "topics": [
            "0x4afcb4a87cdbd9974efdb92ee48bc8d7cd0ae4bf217004db3d080cbaee652ca7"
          ],
          "data": "0x0000000000000000000000000000000000000000000000000000000067904af0000000000000000000000000000000000000000000000000000fa77968ce03620000000000000000000000000000000000000000000000000000000000000830",
          "blockHash": "0x7b6bd2258e0b3283273fc6fb57ea1fcacdddbdd82ee7a4a1305370303391a87a",
          "blockNumber": "0x731bd7",
          "transactionHash": "0xcd22d9d315fba9d3058c06f9421df9903c41ee858f6e7235ddcb663124cc69e2",
          "transactionIndex": "0x78",
          "logIndex": "0xbe",
          "removed": false
        }
      ],
      "logsBloom": "0x00000000000000000000000000000000000000000600000000000000000000000000000000000000000000000000000000000000000000004000000000000000000000000000004000000008000000000000000000000000000000000000000000000000020000000000000000000800020000000000000000000010000000000000000000000000000000000000000000000000000000000000010000000000000000000000000000000000000000004000000000000000000000000000000000000002000000800000000000000000000000000000080000000000000020000000000000000000000000000000000000000000000000000000000000000000",
      "type": "0x2",
      "transactionHash": "0xcd22d9d315fba9d3058c06f9421df9903c41ee858f6e7235ddcb663124cc69e2",
      "transactionIndex": "0x78",
      "blockHash": "0x7b6bd2258e0b3283273fc6fb57ea1fcacdddbdd82ee7a4a1305370303391a87a",
      "blockNumber": "0x731bd7",
      "gasUsed": "0xf213",
      "effectiveGasPrice": "0x114b1b490",
      "from": "0xc77f7fed3b5cc8249adc428c5f44c9063b9734b4",
      "to": "0x8aafd3ede9adb0ff97c7aebce82a919afb1c8764",
      "contractAddress": null
    }
  ],
  "libraries": [],
  "pending": [],
  "returns": {},
  "timestamp": 1737509618,
  "chain": 11155111,
  "commit": "1d2fb70"
}