{
  "transactions": [
    {
      "hash": "0xbf42b1643431f6f682e9134d5c6462cdc456c061e12886423b8e9ea936c62b11",
      "transactionType": "CALL",
      "contractName": null,
      "contractAddress": "0x5eb9cc76c3506942c1c0ead70e877dd5e4f00cb0",
      "function": "sell(uint256)",
      "arguments": [
        "989616714586754371349"
      ],
      "transaction": {
        "from": "0xc77f7fed3b5cc8249adc428c5f44c9063b9734b4",
        "to": "0x5eb9cc76c3506942c1c0ead70e877dd5e4f00cb0",
        "gas": "0x16fec",
        "value": "0x0",
        "input": "0xe4849b32000000000000000000000000000000000000000000000035a5b0d6b3dc9fcf15",
        "nonce": "0x245",
        "chainId": "0xaa36a7"
      },
      "additionalContracts": [],
      "isFixedGasLimit": false
    }
  ],
  "receipts": [
    {
      "status": "0x1",
      "cumulativeGasUsed": "0xf43c5f",
      "logs": [
        {
          "address": "0x5eb9cc76c3506942c1c0ead70e877dd5e4f00cb0",
          "topics": [
            "0xddf252ad1be2c89b69c2b068fc378daa952ba7f163c4a11628f55a4df523b3ef",
            "0x000000000000000000000000c77f7fed3b5cc8249adc428c5f44c9063b9734b4",
            "0x0000000000000000000000000000000000000000000000000000000000000000"
          ],
          "data": "0x000000000000000000000000000000000000000000000035a5b0d6b3dc9fcf15",
          "blockHash": "0x1b2cfe3d6d0da162612ca9e33ea6194976ce0171733381a93a6f0c0c074561e5",
          "blockNumber": "0x724dfd",
          "transactionHash": "0xbf42b1643431f6f682e9134d5c6462cdc456c061e12886423b8e9ea936c62b11",
          "transactionIndex": "0x6e",
          "logIndex": "0xe5",
          "removed": false
        },
        {
          "address": "0x5eb9cc76c3506942c1c0ead70e877dd5e4f00cb0",
          "topics": [
            "0x4afcb4a87cdbd9974efdb92ee48bc8d7cd0ae4bf217004db3d080cbaee652ca7"
          ],
          "data": "0x00000000000000000000000000000000000000000000000000000000678699900000000000000000000000000000000000000000000000000003909b6b1830e70000000000000000000000000000000000000000000000000dc7db11837da917",
          "blockHash": "0x1b2cfe3d6d0da162612ca9e33ea6194976ce0171733381a93a6f0c0c074561e5",
          "blockNumber": "0x724dfd",
          "transactionHash": "0xbf42b1643431f6f682e9134d5c6462cdc456c061e12886423b8e9ea936c62b11",
          "transactionIndex": "0x6e",
          "logIndex": "0xe6",
          "removed": false
        }
      ],
      "logsBloom": "0x00000000000000000000000000000000000000000000000000000000000000000000000000000000000000000000000000000000000000004000000000000000000000000000000000000008000000000000000000000000000000000000000000000000020000000000000004000800020000000000000000000010000000000000000000000000000000000000000000000000000000000000010000000000000000000000000000000000000000004000000000000000000000000000020000000002000000800000008000000000000000000000080000000000000020000000000000000000000000000000000000000000000000000000000000000000",
      "type": "0x2",
      "transactionHash": "0xbf42b1643431f6f682e9134d5c6462cdc456c061e12886423b8e9ea936c62b11",
      "transactionIndex": "0x6e",
      "blockHash": "0x1b2cfe3d6d0da162612ca9e33ea6194976ce0171733381a93a6f0c0c074561e5",
      "blockNumber": "0x724dfd",
      "gasUsed": "0xfb93",
      "effectiveGasPrice": "0x388744dc2",
      "from": "0xc77f7fed3b5cc8249adc428c5f44c9063b9734b4",
      "to": "0x5eb9cc76c3506942c1c0ead70e877dd5e4f00cb0",
      "contractAddress": null
    }
  ],
  "libraries": [],
  "pending": [],
  "returns": {},
  "timestamp": 1736874385,
  "chain": 11155111,
  "commit": "51a374b"
}