{
  "transactions": [
    {
      "hash": "0x85534df0232ad07b4aa6d254e0ad086ea11dcb1e8cf6a71c1d441f5c66c42c9b",
      "transactionType": "CALL",
      "contractName": null,
      "contractAddress": "0xbf4a322f1496e5c3d34a9bcdb4c60567b38c7de2",
      "function": "buy(address)",
      "arguments": [
        "0xC77f7fed3b5Cc8249aDc428c5F44C9063B9734b4"
      ],
      "transaction": {
        "from": "0xc77f7fed3b5cc8249adc428c5f44c9063b9734b4",
        "to": "0xbf4a322f1496e5c3d34a9bcdb4c60567b38c7de2",
        "gas": "0x1b309",
        "value": "0xde0b6b3a7640000",
        "input": "0xf088d547000000000000000000000000c77f7fed3b5cc8249adc428c5f44c9063b9734b4",
        "nonce": "0xa74",
        "chainId": "0xaa36a7"
      },
      "additionalContracts": [],
      "isFixedGasLimit": false
    }
  ],
  "receipts": [
    {
      "status": "0x1",
      "cumulativeGasUsed": "0x7b6b11",
      "logs": [
        {
          "address": "0xbf4a322f1496e5c3d34a9bcdb4c60567b38c7de2",
          "topics": [
            "0xddf252ad1be2c89b69c2b068fc378daa952ba7f163c4a11628f55a4df523b3ef",
            "0x0000000000000000000000000000000000000000000000000000000000000000",
            "0x000000000000000000000000c77f7fed3b5cc8249adc428c5f44c9063b9734b4"
          ],
          "data": "0x0000000000000000000000000000000000000000000000354560e4a116af76d6",
          "blockHash": "0x563ffdf438516ac6c3aa2a355eaffe12f2ae34d7539a88b66d4aebe3a9d90068",
          "blockNumber": "0x725a51",
          "transactionHash": "0x85534df0232ad07b4aa6d254e0ad086ea11dcb1e8cf6a71c1d441f5c66c42c9b",
          "transactionIndex": "0x4a",
          "logIndex": "0x67",
          "removed": false
        },
        {
          "address": "0xbf4a322f1496e5c3d34a9bcdb4c60567b38c7de2",
          "topics": [
            "0xddf252ad1be2c89b69c2b068fc378daa952ba7f163c4a11628f55a4df523b3ef",
            "0x0000000000000000000000000000000000000000000000000000000000000000",
            "0x000000000000000000000000c77f7fed3b5cc8249adc428c5f44c9063b9734b4"
          ],
          "data": "0x000000000000000000000000000000000000000000000000295de3ba91cb0f62",
          "blockHash": "0x563ffdf438516ac6c3aa2a355eaffe12f2ae34d7539a88b66d4aebe3a9d90068",
          "blockNumber": "0x725a51",
          "transactionHash": "0x85534df0232ad07b4aa6d254e0ad086ea11dcb1e8cf6a71c1d441f5c66c42c9b",
          "transactionIndex": "0x4a",
          "logIndex": "0x68",
          "removed": false
        },
        {
          "address": "0xbf4a322f1496e5c3d34a9bcdb4c60567b38c7de2",
          "topics": [
            "0x4afcb4a87cdbd9974efdb92ee48bc8d7cd0ae4bf217004db3d080cbaee652ca7"
          ],
          "data": "0x0000000000000000000000000000000000000000000000000000000067872e1c000000000000000000000000000000000000000000000000000394481f8649790000000000000000000000000000000000000000000000000de0b6b3a7640000",
          "blockHash": "0x563ffdf438516ac6c3aa2a355eaffe12f2ae34d7539a88b66d4aebe3a9d90068",
          "blockNumber": "0x725a51",
          "transactionHash": "0x85534df0232ad07b4aa6d254e0ad086ea11dcb1e8cf6a71c1d441f5c66c42c9b",
          "transactionIndex": "0x4a",
          "logIndex": "0x69",
          "removed": false
        }
      ],
      "logsBloom": "0x00000000000000000000000000000000000000000000000000000000000000000000000000000000000000000000000000000000000000004000000000000000000000000000000000000008000000000000001000000000000000000000000000000000020000000000000000000800020000000000000000000010000000000000000000000000000000000000000000000000000008000000010000000000000000000000000000000000000000004000000000000000000000000000000000000002000000800000000000001000000000000000080000000000000020000000000000000000000000000000000000000000000000000000000000000000",
      "type": "0x2",
      "transactionHash": "0x85534df0232ad07b4aa6d254e0ad086ea11dcb1e8cf6a71c1d441f5c66c42c9b",
      "transactionIndex": "0x4a",
      "blockHash": "0x563ffdf438516ac6c3aa2a355eaffe12f2ae34d7539a88b66d4aebe3a9d90068",
      "blockNumber": "0x725a51",
      "gasUsed": "0x13af6",
      "effectiveGasPrice": "0x31feb5e74",
      "from": "0xc77f7fed3b5cc8249adc428c5f44c9063b9734b4",
      "to": "0xbf4a322f1496e5c3d34a9bcdb4c60567b38c7de2",
      "contractAddress": null
    }
  ],
  "libraries": [],
  "pending": [],
  "returns": {},
  "timestamp": 1736912412,
  "chain": 11155111,
  "commit": "51a374b"
}