{
  "transactions": [
    {
      "hash": "0x030c5b537d9791fe970331dc46f0386f956eee446e3fded779e088e0774a1e77",
      "transactionType": "CALL",
      "contractName": null,
      "contractAddress": "0x8aafd3ede9adb0ff97c7aebce82a919afb1c8764",
      "function": "buy(address)",
      "arguments": [
        "0xC77f7fed3b5Cc8249aDc428c5F44C9063B9734b4"
      ],
      "transaction": {
        "from": "0xc77f7fed3b5cc8249adc428c5f44c9063b9734b4",
        "to": "0x8aafd3ede9adb0ff97c7aebce82a919afb1c8764",
        "gas": "0x156ea",
        "value": "0xde0b6b3a7640000",
        "input": "0xf088d547000000000000000000000000c77f7fed3b5cc8249adc428c5f44c9063b9734b4",
        "nonce": "0x123e",
        "chainId": "0xaa36a7"
      },
      "additionalContracts": [],
      "isFixedGasLimit": false
    }
  ],
  "receipts": [
    {
      "status": "0x1",
      "cumulativeGasUsed": "0xa5227f",
      "logs": [
        {
          "address": "0x8aafd3ede9adb0ff97c7aebce82a919afb1c8764",
          "topics": [
            "0xddf252ad1be2c89b69c2b068fc378daa952ba7f163c4a11628f55a4df523b3ef",
            "0x0000000000000000000000000000000000000000000000000000000000000000",
            "0x000000000000000000000000c77f7fed3b5cc8249adc428c5f44c9063b9734b4"
          ],
          "data": "0x0000000000000000000000000000000000000000000000248095db591818e3c7",
          "blockHash": "0x5421a7d695d8bbf4866806f9eba0fabb6b42fae2981f35fef20b26a0d260f212",
          "blockNumber": "0x73191e",
          "transactionHash": "0x030c5b537d9791fe970331dc46f0386f956eee446e3fded779e088e0774a1e77",
          "transactionIndex": "0x97",
          "logIndex": "0x98",
          "removed": false
        },
        {
          "address": "0x8aafd3ede9adb0ff97c7aebce82a919afb1c8764",
          "topics": [
            "0xddf252ad1be2c89b69c2b068fc378daa952ba7f163c4a11628f55a4df523b3ef",
            "0x0000000000000000000000000000000000000000000000000000000000000000",
            "0x000000000000000000000000c77f7fed3b5cc8249adc428c5f44c9063b9734b4"
          ],
          "data": "0x0000000000000000000000000000000000000000000000001c5863a86dc032a3",
          "blockHash": "0x5421a7d695d8bbf4866806f9eba0fabb6b42fae2981f35fef20b26a0d260f212",
          "blockNumber": "0x73191e",
          "transactionHash": "0x030c5b537d9791fe970331dc46f0386f956eee446e3fded779e088e0774a1e77",
          "transactionIndex": "0x97",
          "logIndex": "0x99",
          "removed": false
        },
        {
          "address": "0x8aafd3ede9adb0ff97c7aebce82a919afb1c8764",
          "topics": [
            "0x4afcb4a87cdbd9974efdb92ee48bc8d7cd0ae4bf217004db3d080cbaee652ca7"
          ],
          "data": "0x0000000000000000000000000000000000000000000000000000000067902a380000000000000000000000000000000000000000000000000005399b959c76a30000000000000000000000000000000000000000000000000de0b6b3a7640000",
          "blockHash": "0x5421a7d695d8bbf4866806f9eba0fabb6b42fae2981f35fef20b26a0d260f212",
          "blockNumber": "0x73191e",
          "transactionHash": "0x030c5b537d9791fe970331dc46f0386f956eee446e3fded779e088e0774a1e77",
          "transactionIndex": "0x97",
          "logIndex": "0x9a",
          "removed": false
        }
      ],
      "logsBloom": "0x00000000000000000000000000000000000000000600000000000000000000000000000000000000000000000000000000000000000000004000000000000000000000000000004000000008000000000000000000000000000000000000000000000000020000000000000000000800020000000000000000000010000000000000000000000000000000000000000000000000000000000000010000000000000000000000000000000000000000004000000000000000000000000000000000000002000000800000000000000000000000000000080000000000000020000000000000000000000000000000000000000000000000000000000000000000",
      "type": "0x2",
      "transactionHash": "0x030c5b537d9791fe970331dc46f0386f956eee446e3fded779e088e0774a1e77",
      "transactionIndex": "0x97",
      "blockHash": "0x5421a7d695d8bbf4866806f9eba0fabb6b42fae2981f35fef20b26a0d260f212",
      "blockNumber": "0x73191e",
      "gasUsed": "0xf844",
      "effectiveGasPrice": "0x40af3795",
      "from": "0xc77f7fed3b5cc8249adc428c5f44c9063b9734b4",
      "to": "0x8aafd3ede9adb0ff97c7aebce82a919afb1c8764",
      "contractAddress": null
    }
  ],
  "libraries": [],
  "pending": [],
  "returns": {},
  "timestamp": 1737501241,
  "chain": 11155111,
  "commit": "1d2fb70"
}