{
  "transactions": [
    {
      "hash": "0xa69cc85bef63142b1fba93c3704f70f9cad336cbdcf1756f3fc87dd22dd68901",
      "transactionType": "CALL",
      "contractName": null,
      "contractAddress": "0x5eb9cc76c3506942c1c0ead70e877dd5e4f00cb0",
      "function": "buy(address)",
      "arguments": [
        "0xC77f7fed3b5Cc8249aDc428c5F44C9063B9734b4"
      ],
      "transaction": {
        "from": "0xc77f7fed3b5cc8249adc428c5f44c9063b9734b4",
        "to": "0x5eb9cc76c3506942c1c0ead70e877dd5e4f00cb0",
        "gas": "0x156c8",
        "value": "0xde0b6b3a7640000",
        "input": "0xf088d547000000000000000000000000c77f7fed3b5cc8249adc428c5f44c9063b9734b4",
        "nonce": "0x178",
        "chainId": "0xaa36a7"
      },
      "additionalContracts": [],
      "isFixedGasLimit": false
    }
  ],
  "receipts": [
    {
      "status": "0x1",
      "cumulativeGasUsed": "0x9e24d6",
      "logs": [
        {
          "address": "0x5eb9cc76c3506942c1c0ead70e877dd5e4f00cb0",
          "topics": [
            "0xddf252ad1be2c89b69c2b068fc378daa952ba7f163c4a11628f55a4df523b3ef",
            "0x0000000000000000000000000000000000000000000000000000000000000000",
            "0x000000000000000000000000c77f7fed3b5cc8249adc428c5f44c9063b9734b4"
          ],
          "data": "0x000000000000000000000000000000000000000000000035a6d29e05e70c830b",
          "blockHash": "0x83a15fda01b51597891b0462cdb2dbbdbc8b0647301771de39475cd59dd743b0",
          "blockNumber": "0x723c35",
          "transactionHash": "0xa69cc85bef63142b1fba93c3704f70f9cad336cbdcf1756f3fc87dd22dd68901",
          "transactionIndex": "0x54",
          "logIndex": "0x73",
          "removed": false
        },
        {
          "address": "0x5eb9cc76c3506942c1c0ead70e877dd5e4f00cb0",
          "topics": [
            "0xddf252ad1be2c89b69c2b068fc378daa952ba7f163c4a11628f55a4df523b3ef",
            "0x0000000000000000000000000000000000000000000000000000000000000000",
            "0x000000000000000000000000c77f7fed3b5cc8249adc428c5f44c9063b9734b4"
          ],
          "data": "0x00000000000000000000000000000000000000000000000029a98eef3cac2e16",
          "blockHash": "0x83a15fda01b51597891b0462cdb2dbbdbc8b0647301771de39475cd59dd743b0",
          "blockNumber": "0x723c35",
          "transactionHash": "0xa69cc85bef63142b1fba93c3704f70f9cad336cbdcf1756f3fc87dd22dd68901",
          "transactionIndex": "0x54",
          "logIndex": "0x74",
          "removed": false
        },
        {
          "address": "0x5eb9cc76c3506942c1c0ead70e877dd5e4f00cb0",
          "topics": [
            "0x4afcb4a87cdbd9974efdb92ee48bc8d7cd0ae4bf217004db3d080cbaee652ca7"
          ],
          "data": "0x000000000000000000000000000000000000000000000000000000006785c3d000000000000000000000000000000000000000000000000000038dc5a69a15e20000000000000000000000000000000000000000000000000de0b6b3a7640000",
          "blockHash": "0x83a15fda01b51597891b0462cdb2dbbdbc8b0647301771de39475cd59dd743b0",
          "blockNumber": "0x723c35",
          "transactionHash": "0xa69cc85bef63142b1fba93c3704f70f9cad336cbdcf1756f3fc87dd22dd68901",
          "transactionIndex": "0x54",
          "logIndex": "0x75",
          "removed": false
        }
      ],
      "logsBloom": "0x00000000000000000000000000000000000000000000000000000000000000000000000000000000000000000000000000000000000000004000000000000000000000000000000000000008000000000000000000000000000000000000000000000000020000000000000004000800020000000000000000000010000000000000000000000000000000000000000000000000000000000000010000000000000000000000000000000000000000004000000000000000000000000000020000000002000000800000008000000000000000000000080000000000000020000000000000000000000000000000000000000000000000000000000000000000",
      "type": "0x2",
      "transactionHash": "0xa69cc85bef63142b1fba93c3704f70f9cad336cbdcf1756f3fc87dd22dd68901",
      "transactionIndex": "0x54",
      "blockHash": "0x83a15fda01b51597891b0462cdb2dbbdbc8b0647301771de39475cd59dd743b0",
      "blockNumber": "0x723c35",
      "gasUsed": "0xf82c",
      "effectiveGasPrice": "0x1e3166525",
      "from": "0xc77f7fed3b5cc8249adc428c5f44c9063b9734b4",
      "to": "0x5eb9cc76c3506942c1c0ead70e877dd5e4f00cb0",
      "contractAddress": null
    }
  ],
  "libraries": [],
  "pending": [],
  "returns": {},
  "timestamp": 1736819665,
  "chain": 11155111,
  "commit": "51a374b"
}