{
  "transactions": [
    {
      "hash": "0x4204ef3e87992e84511e943233d3d98f8efdd9f55acc0893ded105745363892d",
      "transactionType": "CALL",
      "contractName": null,
      "contractAddress": "0x270e88f8683660553e8ba4eb2ad7c91a1710d769",
      "function": "buy(address)",
      "arguments": [
        "0xC77f7fed3b5Cc8249aDc428c5F44C9063B9734b4"
      ],
      "transaction": {
        "from": "0xc77f7fed3b5cc8249adc428c5f44c9063b9734b4",
        "to": "0x270e88f8683660553e8ba4eb2ad7c91a1710d769",
        "gas": "0x1b30c",
        "value": "0xde0b6b3a7640000",
        "input": "0xf088d547000000000000000000000000c77f7fed3b5cc8249adc428c5f44c9063b9734b4",
        "nonce": "0x68b",
        "chainId": "0xaa36a7"
      },
      "additionalContracts": [],
      "isFixedGasLimit": false
    }
  ],
  "receipts": [
    {
      "status": "0x1",
      "cumulativeGasUsed": "0xaa33ab",
      "logs": [
        {
          "address": "0x270e88f8683660553e8ba4eb2ad7c91a1710d769",
          "topics": [
            "0xddf252ad1be2c89b69c2b068fc378daa952ba7f163c4a11628f55a4df523b3ef",
            "0x0000000000000000000000000000000000000000000000000000000000000000",
            "0x000000000000000000000000c77f7fed3b5cc8249adc428c5f44c9063b9734b4"
          ],
          "data": "0x000000000000000000000000000000000000000000000028da6c7ddbe0de049c",
          "blockHash": "0x8528ffdd51fb6be37031f20ef5dc1f36be2090b687d381ee84bc77c8a4f2568d",
          "blockNumber": "0x72538c",
          "transactionHash": "0x4204ef3e87992e84511e943233d3d98f8efdd9f55acc0893ded105745363892d",
          "transactionIndex": "0x6b",
          "logIndex": "0xc2",
          "removed": false
        },
        {
          "address": "0x270e88f8683660553e8ba4eb2ad7c91a1710d769",
          "topics": [
            "0xddf252ad1be2c89b69c2b068fc378daa952ba7f163c4a11628f55a4df523b3ef",
            "0x0000000000000000000000000000000000000000000000000000000000000000",
            "0x000000000000000000000000c77f7fed3b5cc8249adc428c5f44c9063b9734b4"
          ],
          "data": "0x0000000000000000000000000000000000000000000000001fb952a3d90c3c6d",
          "blockHash": "0x8528ffdd51fb6be37031f20ef5dc1f36be2090b687d381ee84bc77c8a4f2568d",
          "blockNumber": "0x72538c",
          "transactionHash": "0x4204ef3e87992e84511e943233d3d98f8efdd9f55acc0893ded105745363892d",
          "transactionIndex": "0x6b",
          "logIndex": "0xc3",
          "removed": false
        },
        {
          "address": "0x270e88f8683660553e8ba4eb2ad7c91a1710d769",
          "topics": [
            "0x4afcb4a87cdbd9974efdb92ee48bc8d7cd0ae4bf217004db3d080cbaee652ca7"
          ],
          "data": "0x000000000000000000000000000000000000000000000000000000006786dc980000000000000000000000000000000000000000000000000004aae380645fb60000000000000000000000000000000000000000000000000de0b6b3a7640000",
          "blockHash": "0x8528ffdd51fb6be37031f20ef5dc1f36be2090b687d381ee84bc77c8a4f2568d",
          "blockNumber": "0x72538c",
          "transactionHash": "0x4204ef3e87992e84511e943233d3d98f8efdd9f55acc0893ded105745363892d",
          "transactionIndex": "0x6b",
          "logIndex": "0xc4",
          "removed": false
        }
      ],
      "logsBloom": "0x00000000000000000000000000000000000000000000000000000000000000000000000000000000000000000000000020000000000000004000000000000000000000000000000000000008000000000000000000000000000000000000000000000000020000000000000000000800020000000000000000000010000000000000000000010000000000000000000000000000000000000000010000000000000000000000000000000000000000004000000000000000000000000000000000000002000000800000000000000000000000000000080000008000000020000000000000000000000000000000000000000000000000000000000000000000",
      "type": "0x2",
      "transactionHash": "0x4204ef3e87992e84511e943233d3d98f8efdd9f55acc0893ded105745363892d",
      "transactionIndex": "0x6b",
      "blockHash": "0x8528ffdd51fb6be37031f20ef5dc1f36be2090b687d381ee84bc77c8a4f2568d",
      "blockNumber": "0x72538c",
      "gasUsed": "0x13af8",
      "effectiveGasPrice": "0x1db7ba8c0",
      "from": "0xc77f7fed3b5cc8249adc428c5f44c9063b9734b4",
      "to": "0x270e88f8683660553e8ba4eb2ad7c91a1710d769",
      "contractAddress": null
    }
  ],
  "libraries": [],
  "pending": [],
  "returns": {},
  "timestamp": 1736891546,
  "chain": 11155111,
  "commit": "51a374b"
}