{
  "transactions": [
    {
      "hash": "0x2be0b9c1f9804400e6366e36efdf9a25f8ca09b254621ef09c7db8ecb8e9ad8a",
      "transactionType": "CALL",
      "contractName": null,
      "contractAddress": "0x270e88f8683660553e8ba4eb2ad7c91a1710d769",
      "function": "sell(uint256)",
      "arguments": [
        "954618979419399170999"
      ],
      "transaction": {
        "from": "0xc77f7fed3b5cc8249adc428c5f44c9063b9734b4",
        "to": "0x270e88f8683660553e8ba4eb2ad7c91a1710d769",
        "gas": "0x16fec",
        "value": "0x0",
        "input": "0xe4849b32000000000000000000000000000000000000000000000033bfffe7fe6b38abb7",
        "nonce": "0x5cf",
        "chainId": "0xaa36a7"
      },
      "additionalContracts": [],
      "isFixedGasLimit": false
    }
  ],
  "receipts": [
    {
      "status": "0x1",
      "cumulativeGasUsed": "0x1924250",
      "logs": [
        {
          "address": "0x270e88f8683660553e8ba4eb2ad7c91a1710d769",
          "topics": [
            "0xddf252ad1be2c89b69c2b068fc378daa952ba7f163c4a11628f55a4df523b3ef",
            "0x000000000000000000000000c77f7fed3b5cc8249adc428c5f44c9063b9734b4",
            "0x0000000000000000000000000000000000000000000000000000000000000000"
          ],
          "data": "0x000000000000000000000000000000000000000000000033bfffe7fe6b38abb7",
          "blockHash": "0xc0739666211a7ddc7fd687192d7fa1647626722fb1e39b5e12349c2ac56bb74c",
          "blockNumber": "0x72528e",
          "transactionHash": "0x2be0b9c1f9804400e6366e36efdf9a25f8ca09b254621ef09c7db8ecb8e9ad8a",
          "transactionIndex": "0xa8",
          "logIndex": "0x125",
          "removed": false
        },
        {
          "address": "0x270e88f8683660553e8ba4eb2ad7c91a1710d769",
          "topics": [
            "0x4afcb4a87cdbd9974efdb92ee48bc8d7cd0ae4bf217004db3d080cbaee652ca7"
          ],
          "data": "0x000000000000000000000000000000000000000000000000000000006786d0980000000000000000000000000000000000000000000000000003b25b5e68e2790000000000000000000000000000000000000000000000000dc83ea2258af4da",
          "blockHash": "0xc0739666211a7ddc7fd687192d7fa1647626722fb1e39b5e12349c2ac56bb74c",
          "blockNumber": "0x72528e",
          "transactionHash": "0x2be0b9c1f9804400e6366e36efdf9a25f8ca09b254621ef09c7db8ecb8e9ad8a",
          "transactionIndex": "0xa8",
          "logIndex": "0x126",
          "removed": false
        }
      ],
      "logsBloom": "0x00000000000000000000000000000000000000000000000000000000000000000000000000000000000000000000000020000000000000004000000000000000000000000000000000000008000000000000000000000000000000000000000000000000020000000000000000000800020000000000000000000010000000000000000000010000000000000000000000000000000000000000010000000000000000000000000000000000000000004000000000000000000000000000000000000002000000800000000000000000000000000000080000008000000020000000000000000000000000000000000000000000000000000000000000000000",
      "type": "0x2",
      "transactionHash": "0x2be0b9c1f9804400e6366e36efdf9a25f8ca09b254621ef09c7db8ecb8e9ad8a",
      "transactionIndex": "0xa8",
      "blockHash": "0xc0739666211a7ddc7fd687192d7fa1647626722fb1e39b5e12349c2ac56bb74c",
      "blockNumber": "0x72528e",
      "gasUsed": "0xfb93",
      "effectiveGasPrice": "0x374492d71",
      "from": "0xc77f7fed3b5cc8249adc428c5f44c9063b9734b4",
      "to": "0x270e88f8683660553e8ba4eb2ad7c91a1710d769",
      "contractAddress": null
    }
  ],
  "libraries": [],
  "pending": [],
  "returns": {},
  "timestamp": 1736888474,
  "chain": 11155111,
  "commit": "51a374b"
}