{
  "transactions": [
    {
      "hash": "0x77daa3c478a51018f92f16b95928edbcc98cb4aaee0d2e4c52b4be4339fae9b0",
      "transactionType": "CALL",
      "contractName": null,
      "contractAddress": "0xbf4a322f1496e5c3d34a9bcdb4c60567b38c7de2",
      "function": "buy(address)",
      "arguments": [
        "0xC77f7fed3b5Cc8249aDc428c5F44C9063B9734b4"
      ],
      "transaction": {
        "from": "0xc77f7fed3b5cc8249adc428c5f44c9063b9734b4",
        "to": "0xbf4a322f1496e5c3d34a9bcdb4c60567b38c7de2",
        "gas": "0x1b309",
        "value": "0xde0b6b3a7640000",
        "input": "0xf088d547000000000000000000000000c77f7fed3b5cc8249adc428c5f44c9063b9734b4",
        "nonce": "0xdb8",
        "chainId": "0xaa36a7"
      },
      "additionalContracts": [],
      "isFixedGasLimit": false
    }
  ],
  "receipts": [
    {
      "status": "0x1",
      "cumulativeGasUsed": "0x8251da",
      "logs": [
        {
          "address": "0xbf4a322f1496e5c3d34a9bcdb4c60567b38c7de2",
          "topics": [
            "0xddf252ad1be2c89b69c2b068fc378daa952ba7f163c4a11628f55a4df523b3ef",
            "0x0000000000000000000000000000000000000000000000000000000000000000",
            "0x000000000000000000000000c77f7fed3b5cc8249adc428c5f44c9063b9734b4"
          ],
          "data": "0x000000000000000000000000000000000000000000000034aa115e1ec65f31c4",
          "blockHash": "0xa64bf58fb805c9bd1bcfa87e003e88ec77e95938c3ef341f92e62337689aa0fe",
          "blockNumber": "0x726691",
          "transactionHash": "0x77daa3c478a51018f92f16b95928edbcc98cb4aaee0d2e4c52b4be4339fae9b0",
          "transactionIndex": "0x67",
          "logIndex": "0x88",
          "removed": false
        },
        {
          "address": "0xbf4a322f1496e5c3d34a9bcdb4c60567b38c7de2",
          "topics": [
            "0xddf252ad1be2c89b69c2b068fc378daa952ba7f163c4a11628f55a4df523b3ef",
            "0x0000000000000000000000000000000000000000000000000000000000000000",
            "0x000000000000000000000000c77f7fed3b5cc8249adc428c5f44c9063b9734b4"
          ],
          "data": "0x00000000000000000000000000000000000000000000000028e54919e1cdec39",
          "blockHash": "0xa64bf58fb805c9bd1bcfa87e003e88ec77e95938c3ef341f92e62337689aa0fe",
          "blockNumber": "0x726691",
          "transactionHash": "0x77daa3c478a51018f92f16b95928edbcc98cb4aaee0d2e4c52b4be4339fae9b0",
          "transactionIndex": "0x67",
          "logIndex": "0x89",
          "removed": false
        },
        {
          "address": "0xbf4a322f1496e5c3d34a9bcdb4c60567b38c7de2",
          "topics": [
            "0x4afcb4a87cdbd9974efdb92ee48bc8d7cd0ae4bf217004db3d080cbaee652ca7"
          ],
          "data": "0x000000000000000000000000000000000000000000000000000000006787c1b800000000000000000000000000000000000000000000000000039ed645d988580000000000000000000000000000000000000000000000000de0b6b3a7640000",
          "blockHash": "0xa64bf58fb805c9bd1bcfa87e003e88ec77e95938c3ef341f92e62337689aa0fe",
          "blockNumber": "0x726691",
          "transactionHash": "0x77daa3c478a51018f92f16b95928edbcc98cb4aaee0d2e4c52b4be4339fae9b0",
          "transactionIndex": "0x67",
          "logIndex": "0x8a",
          "removed": false
        }
      ],
      "logsBloom": "0x00000000000000000000000000000000000000000000000000000000000000000000000000000000000000000000000000000000000000004000000000000000000000000000000000000008000000000000001000000000000000000000000000000000020000000000000000000800020000000000000000000010000000000000000000000000000000000000000000000000000008000000010000000000000000000000000000000000000000004000000000000000000000000000000000000002000000800000000000001000000000000000080000000000000020000000000000000000000000000000000000000000000000000000000000000000",
      "type": "0x2",
      "transactionHash": "0x77daa3c478a51018f92f16b95928edbcc98cb4aaee0d2e4c52b4be4339fae9b0",
      "transactionIndex": "0x67",
      "blockHash": "0xa64bf58fb805c9bd1bcfa87e003e88ec77e95938c3ef341f92e62337689aa0fe",
      "blockNumber": "0x726691",
      "gasUsed": "0x13af6",
      "effectiveGasPrice": "0xa485cb3d",
      "from": "0xc77f7fed3b5cc8249adc428c5f44c9063b9734b4",
      "to": "0xbf4a322f1496e5c3d34a9bcdb4c60567b38c7de2",
      "contractAddress": null
    }
  ],
  "libraries": [],
  "pending": [],
  "returns": {},
  "timestamp": 1736950201,
  "chain": 11155111,
  "commit": "51a374b"
}