{
  "transactions": [
    {
      "hash": "0x9aa4ea62c5fa5fa5993dd145585929f732842b35f7f058a986e50572df3e44fb",
      "transactionType": "CALL",
      "contractName": null,
      "contractAddress": "0x8aafd3ede9adb0ff97c7aebce82a919afb1c8764",
      "function": "sell(uint256)",
      "arguments": [
        "662868942024"
      ],
      "transaction": {
        "from": "0xc77f7fed3b5cc8249adc428c5f44c9063b9734b4",
        "to": "0x8aafd3ede9adb0ff97c7aebce82a919afb1c8764",
        "gas": "0x1722a",
        "value": "0x0",
        "input": "0xe4849b320000000000000000000000000000000000000000000000000000009a56115cc8",
        "nonce": "0x16a1",
        "chainId": "0xaa36a7"
      },
      "additionalContracts": [],
      "isFixedGasLimit": false
    }
  ],
  "receipts": [
    {
      "status": "0x1",
      "cumulativeGasUsed": "0x90b9b2",
      "logs": [
        {
          "address": "0x8aafd3ede9adb0ff97c7aebce82a919afb1c8764",
          "topics": [
            "0xddf252ad1be2c89b69c2b068fc378daa952ba7f163c4a11628f55a4df523b3ef",
            "0x000000000000000000000000c77f7fed3b5cc8249adc428c5f44c9063b9734b4",
            "0x0000000000000000000000000000000000000000000000000000000000000000"
          ],
          "data": "0x0000000000000000000000000000000000000000000000000000009919fcbe58",
          "blockHash": "0x615ab904b6c52b05935c099146489dac8afdf6620f70717106e14b008e2c1e92",
          "blockNumber": "0x731e58",
          "transactionHash": "0x9aa4ea62c5fa5fa5993dd145585929f732842b35f7f058a986e50572df3e44fb",
          "transactionIndex": "0x52",
          "logIndex": "0x84",
          "removed": false
        },
        {
          "address": "0x8aafd3ede9adb0ff97c7aebce82a919afb1c8764",
          "topics": [
            "0xddf252ad1be2c89b69c2b068fc378daa952ba7f163c4a11628f55a4df523b3ef",
            "0x000000000000000000000000c77f7fed3b5cc8249adc428c5f44c9063b9734b4",
            "0x000000000000000000000000c77f7fed3b5cc8249adc428c5f44c9063b9734b4"
          ],
          "data": "0x000000000000000000000000000000000000000000000000000000013c149e70",
          "blockHash": "0x615ab904b6c52b05935c099146489dac8afdf6620f70717106e14b008e2c1e92",
          "blockNumber": "0x731e58",
          "transactionHash": "0x9aa4ea62c5fa5fa5993dd145585929f732842b35f7f058a986e50572df3e44fb",
          "transactionIndex": "0x52",
          "logIndex": "0x85",
          "removed": false
        },
        {
          "address": "0x8aafd3ede9adb0ff97c7aebce82a919afb1c8764",
          "topics": [
            "0x4afcb4a87cdbd9974efdb92ee48bc8d7cd0ae4bf217004db3d080cbaee652ca7"
          ],
          "data": "0x00000000000000000000000000000000000000000000000000000000679069080000000000000000000000000000000000000000000000000015e77edbeebea000000000000000000000000000000000000000000000000000000000f3997e35",
          "blockHash": "0x615ab904b6c52b05935c099146489dac8afdf6620f70717106e14b008e2c1e92",
          "blockNumber": "0x731e58",
          "transactionHash": "0x9aa4ea62c5fa5fa5993dd145585929f732842b35f7f058a986e50572df3e44fb",
          "transactionIndex": "0x52",
          "logIndex": "0x86",
          "removed": false
        }
      ],
      "logsBloom": "0x00000000000000000000000000000000000000000600000000000000000000000000000000000000000000000000000000000000000000004000000000000000000000000000004000000008000000000000000000000000000000000000000000000000020000000000000000000800020000000000000000000010000000000000000000000000000000000000000000000000000000000000010000000000000000000000000000000000000000004000000000000000000000000000000000000002000000800000000000000000000000000000080000000000000020000000000000000000000000000000000000000000000000000000000000000000",
      "type": "0x2",
      "transactionHash": "0x9aa4ea62c5fa5fa5993dd145585929f732842b35f7f058a986e50572df3e44fb",
      "transactionIndex": "0x52",
      "blockHash": "0x615ab904b6c52b05935c099146489dac8afdf6620f70717106e14b008e2c1e92",
      "blockNumber": "0x731e58",
      "gasUsed": "0xfd1b",
      "effectiveGasPrice": "0x55faba6d",
      "from": "0xc77f7fed3b5cc8249adc428c5f44c9063b9734b4",
      "to": "0x8aafd3ede9adb0ff97c7aebce82a919afb1c8764",
      "contractAddress": null
    }
  ],
  "libraries": [],
  "pending": [],
  "returns": {},
  "timestamp": 1737517321,
  "chain": 11155111,
  "commit": "1d2fb70"
}