{
  "transactions": [
    {
      "hash": "0x9223f83295df73dc171cd348fe57bd2abbe0443befbd5ddd583b2aefb722633a",
      "transactionType": "CALL",
      "contractName": null,
      "contractAddress": "0x8aafd3ede9adb0ff97c7aebce82a919afb1c8764",
      "function": "buy(address)",
      "arguments": [
        "0xC77f7fed3b5Cc8249aDc428c5F44C9063B9734b4"
      ],
      "transaction": {
        "from": "0xc77f7fed3b5cc8249adc428c5f44c9063b9734b4",
        "to": "0x8aafd3ede9adb0ff97c7aebce82a919afb1c8764",
        "gas": "0x156ea",
        "value": "0xde0b6b3a7640000",
        "input": "0xf088d547000000000000000000000000c77f7fed3b5cc8249adc428c5f44c9063b9734b4",
        "nonce": "0x11da",
        "chainId": "0xaa36a7"
      },
      "additionalContracts": [],
      "isFixedGasLimit": false
    }
  ],
  "receipts": [
    {
      "status": "0x1",
      "cumulativeGasUsed": "0x94d368",
      "logs": [
        {
          "address": "0x8aafd3ede9adb0ff97c7aebce82a919afb1c8764",
          "topics": [
            "0xddf252ad1be2c89b69c2b068fc378daa952ba7f163c4a11628f55a4df523b3ef",
            "0x0000000000000000000000000000000000000000000000000000000000000000",
            "0x000000000000000000000000c77f7fed3b5cc8249adc428c5f44c9063b9734b4"
          ],
          "data": "0x000000000000000000000000000000000000000000000024e73e7080ceee7c7b",
          "blockHash": "0x3e2a18c6c4b33ec9408bf069e5a5610596a2afd392a39621f1f23d87d51df27c",
          "blockNumber": "0x7318af",
          "transactionHash": "0x9223f83295df73dc171cd348fe57bd2abbe0443befbd5ddd583b2aefb722633a",
          "transactionIndex": "0x83",
          "logIndex": "0x85",
          "removed": false
        },
        {
          "address": "0x8aafd3ede9adb0ff97c7aebce82a919afb1c8764",
          "topics": [
            "0xddf252ad1be2c89b69c2b068fc378daa952ba7f163c4a11628f55a4df523b3ef",
            "0x0000000000000000000000000000000000000000000000000000000000000000",
            "0x000000000000000000000000c77f7fed3b5cc8249adc428c5f44c9063b9734b4"
          ],
          "data": "0x0000000000000000000000000000000000000000000000001ca81b6d40c6f500",
          "blockHash": "0x3e2a18c6c4b33ec9408bf069e5a5610596a2afd392a39621f1f23d87d51df27c",
          "blockNumber": "0x7318af",
          "transactionHash": "0x9223f83295df73dc171cd348fe57bd2abbe0443befbd5ddd583b2aefb722633a",
          "transactionIndex": "0x83",
          "logIndex": "0x86",
          "removed": false
        },
        {
          "address": "0x8aafd3ede9adb0ff97c7aebce82a919afb1c8764",
          "topics": [
            "0x4afcb4a87cdbd9974efdb92ee48bc8d7cd0ae4bf217004db3d080cbaee652ca7"
          ],
          "data": "0x000000000000000000000000000000000000000000000000000000006790250400000000000000000000000000000000000000000000000000052b13af2477920000000000000000000000000000000000000000000000000de0b6b3a7640000",
          "blockHash": "0x3e2a18c6c4b33ec9408bf069e5a5610596a2afd392a39621f1f23d87d51df27c",
          "blockNumber": "0x7318af",
          "transactionHash": "0x9223f83295df73dc171cd348fe57bd2abbe0443befbd5ddd583b2aefb722633a",
          "transactionIndex": "0x83",
          "logIndex": "0x87",
          "removed": false
        }
      ],
      "logsBloom": "0x00000000000000000000000000000000000000000600000000000000000000000000000000000000000000000000000000000000000000004000000000000000000000000000004000000008000000000000000000000000000000000000000000000000020000000000000000000800020000000000000000000010000000000000000000000000000000000000000000000000000000000000010000000000000000000000000000000000000000004000000000000000000000000000000000000002000000800000000000000000000000000000080000000000000020000000000000000000000000000000000000000000000000000000000000000000",
      "type": "0x2",
      "transactionHash": "0x9223f83295df73dc171cd348fe57bd2abbe0443befbd5ddd583b2aefb722633a",
      "transactionIndex": "0x83",
      "blockHash": "0x3e2a18c6c4b33ec9408bf069e5a5610596a2afd392a39621f1f23d87d51df27c",
      "blockNumber": "0x7318af",
      "gasUsed": "0xf844",
      "effectiveGasPrice": "0x488b0c37",
      "from": "0xc77f7fed3b5cc8249adc428c5f44c9063b9734b4",
      "to": "0x8aafd3ede9adb0ff97c7aebce82a919afb1c8764",
      "contractAddress": null
    }
  ],
  "libraries": [],
  "pending": [],
  "returns": {},
  "timestamp": 1737499910,
  "chain": 11155111,
  "commit": "1d2fb70"
}