{
  "transactions": [
    {
      "hash": "0xfc53a39e246b2cf467782a1edaa8a911e3614396215c8b1176dfeb9b26f1875f",
      "transactionType": "CALL",
      "contractName": null,
      "contractAddress": "0xbf4a322f1496e5c3d34a9bcdb4c60567b38c7de2",
      "function": "buy(address)",
      "arguments": [
        "0xC77f7fed3b5Cc8249aDc428c5F44C9063B9734b4"
      ],
      "transaction": {
        "from": "0xc77f7fed3b5cc8249adc428c5f44c9063b9734b4",
        "to": "0xbf4a322f1496e5c3d34a9bcdb4c60567b38c7de2",
        "gas": "0x1b309",
        "value": "0xde0b6b3a7640000",
        "input": "0xf088d547000000000000000000000000c77f7fed3b5cc8249adc428c5f44c9063b9734b4",
        "nonce": "0xc4e",
        "chainId": "0xaa36a7"
      },
      "additionalContracts": [],
      "isFixedGasLimit": false
    }
  ],
  "receipts": [
    {
      "status": "0x1",
      "cumulativeGasUsed": "0xfaa34d",
      "logs": [
        {
          "address": "0xbf4a322f1496e5c3d34a9bcdb4c60567b38c7de2",
          "topics": [
            "0xddf252ad1be2c89b69c2b068fc378daa952ba7f163c4a11628f55a4df523b3ef",
            "0x0000000000000000000000000000000000000000000000000000000000000000",
            "0x000000000000000000000000c77f7fed3b5cc8249adc428c5f44c9063b9734b4"
          ],
          "data": "0x000000000000000000000000000000000000000000000034ece21ec35eb413e1",
          "blockHash": "0xf35e103bca8b504b766f686cb2fbb085b6d77cbcd01a01a88ea5394fb8bfcd7c",
          "blockNumber": "0x725c85",
          "transactionHash": "0xfc53a39e246b2cf467782a1edaa8a911e3614396215c8b1176dfeb9b26f1875f",
          "transactionIndex": "0x6d",
          "logIndex": "0xc3",
          "removed": false
        },
        {
          "address": "0xbf4a322f1496e5c3d34a9bcdb4c60567b38c7de2",
          "topics": [
            "0xddf252ad1be2c89b69c2b068fc378daa952ba7f163c4a11628f55a4df523b3ef",
            "0x0000000000000000000000000000000000000000000000000000000000000000",
            "0x000000000000000000000000c77f7fed3b5cc8249adc428c5f44c9063b9734b4"
          ],
          "data": "0x00000000000000000000000000000000000000000000000029192b865dbc4200",
          "blockHash": "0xf35e103bca8b504b766f686cb2fbb085b6d77cbcd01a01a88ea5394fb8bfcd7c",
          "blockNumber": "0x725c85",
          "transactionHash": "0xfc53a39e246b2cf467782a1edaa8a911e3614396215c8b1176dfeb9b26f1875f",
          "transactionIndex": "0x6d",
          "logIndex": "0xc4",
          "removed": false
        },
        {
          "address": "0xbf4a322f1496e5c3d34a9bcdb4c60567b38c7de2",
          "topics": [
            "0x4afcb4a87cdbd9974efdb92ee48bc8d7cd0ae4bf217004db3d080cbaee652ca7"
          ],
          "data": "0x000000000000000000000000000000000000000000000000000000006787489800000000000000000000000000000000000000000000000000039a44338b95470000000000000000000000000000000000000000000000000de0b6b3a7640000",
          "blockHash": "0xf35e103bca8b504b766f686cb2fbb085b6d77cbcd01a01a88ea5394fb8bfcd7c",
          "blockNumber": "0x725c85",
          "transactionHash": "0xfc53a39e246b2cf467782a1edaa8a911e3614396215c8b1176dfeb9b26f1875f",
          "transactionIndex": "0x6d",
          "logIndex": "0xc5",
          "removed": false
        }
      ],
      "logsBloom": "0x00000000000000000000000000000000000000000000000000000000000000000000000000000000000000000000000000000000000000004000000000000000000000000000000000000008000000000000001000000000000000000000000000000000020000000000000000000800020000000000000000000010000000000000000000000000000000000000000000000000000008000000010000000000000000000000000000000000000000004000000000000000000000000000000000000002000000800000000000001000000000000000080000000000000020000000000000000000000000000000000000000000000000000000000000000000",
      "type": "0x2",
      "transactionHash": "0xfc53a39e246b2cf467782a1edaa8a911e3614396215c8b1176dfeb9b26f1875f",
      "transactionIndex": "0x6d",
      "blockHash": "0xf35e103bca8b504b766f686cb2fbb085b6d77cbcd01a01a88ea5394fb8bfcd7c",
      "blockNumber": "0x725c85",
      "gasUsed": "0x13af6",
      "effectiveGasPrice": "0x211193178",
      "from": "0xc77f7fed3b5cc8249adc428c5f44c9063b9734b4",
      "to": "0xbf4a322f1496e5c3d34a9bcdb4c60567b38c7de2",
      "contractAddress": null
    }
  ],
  "libraries": [],
  "pending": [],
  "returns": {},
  "timestamp": 1736919194,
  "chain": 11155111,
  "commit": "51a374b"
}