{
  "transactions": [
    {
      "hash": "0x98a417e9b9a5c52fed890ddb99a9448020c632896f317c1039dcb05ed05d72cc",
      "transactionType": "CALL",
      "contractName": null,
      "contractAddress": "0x270e88f8683660553e8ba4eb2ad7c91a1710d769",
      "function": "buy(address)",
      "arguments": [
        "0xC77f7fed3b5Cc8249aDc428c5F44C9063B9734b4"
      ],
      "transaction": {
        "from": "0xc77f7fed3b5cc8249adc428c5f44c9063b9734b4",
        "to": "0x270e88f8683660553e8ba4eb2ad7c91a1710d769",
        "gas": "0x1b30c",
        "value": "0xde0b6b3a7640000",
        "input": "0xf088d547000000000000000000000000c77f7fed3b5cc8249adc428c5f44c9063b9734b4",
        "nonce": "0x861",
        "chainId": "0xaa36a7"
      },
      "additionalContracts": [],
      "isFixedGasLimit": false
    }
  ],
  "receipts": [
    {
      "status": "0x1",
      "cumulativeGasUsed": "0x1c3f4dc",
      "logs": [
        {
          "address": "0x270e88f8683660553e8ba4eb2ad7c91a1710d769",
          "topics": [
            "0xddf252ad1be2c89b69c2b068fc378daa952ba7f163c4a11628f55a4df523b3ef",
            "0x0000000000000000000000000000000000000000000000000000000000000000",
            "0x000000000000000000000000c77f7fed3b5cc8249adc428c5f44c9063b9734b4"
          ],
          "data": "0x000000000000000000000000000000000000000000000026a0a5c0754a7beda1",
          "blockHash": "0x5601b8d5bf307f15fca9a98a5a9ab1c0c22f2fcd813b4e6b79f143ab6573d207",
          "blockNumber": "0x7255b6",
          "transactionHash": "0x98a417e9b9a5c52fed890ddb99a9448020c632896f317c1039dcb05ed05d72cc",
          "transactionIndex": "0x4e",
          "logIndex": "0x185",
          "removed": false
        },
        {
          "address": "0x270e88f8683660553e8ba4eb2ad7c91a1710d769",
          "topics": [
            "0xddf252ad1be2c89b69c2b068fc378daa952ba7f163c4a11628f55a4df523b3ef",
            "0x0000000000000000000000000000000000000000000000000000000000000000",
            "0x000000000000000000000000c77f7fed3b5cc8249adc428c5f44c9063b9734b4"
          ],
          "data": "0x0000000000000000000000000000000000000000000000001dfedf3f47416920",
          "blockHash": "0x5601b8d5bf307f15fca9a98a5a9ab1c0c22f2fcd813b4e6b79f143ab6573d207",
          "blockNumber": "0x7255b6",
          "transactionHash": "0x98a417e9b9a5c52fed890ddb99a9448020c632896f317c1039dcb05ed05d72cc",
          "transactionIndex": "0x4e",
          "logIndex": "0x186",
          "removed": false
        },
        {
          "address": "0x270e88f8683660553e8ba4eb2ad7c91a1710d769",
          "topics": [
            "0x4afcb4a87cdbd9974efdb92ee48bc8d7cd0ae4bf217004db3d080cbaee652ca7"
          ],
          "data": "0x000000000000000000000000000000000000000000000000000000006786f6900000000000000000000000000000000000000000000000000004efbb35b599e60000000000000000000000000000000000000000000000000de0b6b3a7640000",
          "blockHash": "0x5601b8d5bf307f15fca9a98a5a9ab1c0c22f2fcd813b4e6b79f143ab6573d207",
          "blockNumber": "0x7255b6",
          "transactionHash": "0x98a417e9b9a5c52fed890ddb99a9448020c632896f317c1039dcb05ed05d72cc",
          "transactionIndex": "0x4e",
          "logIndex": "0x187",
          "removed": false
        }
      ],
      "logsBloom": "0x00000000000000000000000000000000000000000000000000000000000000000000000000000000000000000000000020000000000000004000000000000000000000000000000000000008000000000000000000000000000000000000000000000000020000000000000000000800020000000000000000000010000000000000000000010000000000000000000000000000000000000000010000000000000000000000000000000000000000004000000000000000000000000000000000000002000000800000000000000000000000000000080000008000000020000000000000000000000000000000000000000000000000000000000000000000",
      "type": "0x2",
      "transactionHash": "0x98a417e9b9a5c52fed890ddb99a9448020c632896f317c1039dcb05ed05d72cc",
      "transactionIndex": "0x4e",
      "blockHash": "0x5601b8d5bf307f15fca9a98a5a9ab1c0c22f2fcd813b4e6b79f143ab6573d207",
      "blockNumber": "0x7255b6",
      "gasUsed": "0x13af8",
      "effectiveGasPrice": "0x81c5b34f",
      "from": "0xc77f7fed3b5cc8249adc428c5f44c9063b9734b4",
      "to": "0x270e88f8683660553e8ba4eb2ad7c91a1710d769",
      "contractAddress": null
    }
  ],
  "libraries": [],
  "pending": [],
  "returns": {},
  "timestamp": 1736898192,
  "chain": 11155111,
  "commit": "51a374b"
}