{
  "transactions": [
    {
      "hash": "0xe8938c3da6a20838571a626253443a10c24f3fbbaf6e262a86d451d5931c1499",
      "transactionType": "CALL",
      "contractName": null,
      "contractAddress": "0x5eb9cc76c3506942c1c0ead70e877dd5e4f00cb0",
      "function": "sell(uint256)",
      "arguments": [
        "989101592613830903793"
      ],
      "transaction": {
        "from": "0xc77f7fed3b5cc8249adc428c5f44c9063b9734b4",
        "to": "0x5eb9cc76c3506942c1c0ead70e877dd5e4f00cb0",
        "gas": "0x16fec",
        "value": "0x0",
        "input": "0xe4849b320000000000000000000000000000000000000000000000359e8ac1ff5885c7f1",
        "nonce": "0x3f7",
        "chainId": "0xaa36a7"
      },
      "additionalContracts": [],
      "isFixedGasLimit": false
    }
  ],
  "receipts": [
    {
      "status": "0x1",
      "cumulativeGasUsed": "0xdc75f7",
      "logs": [
        {
          "address": "0x5eb9cc76c3506942c1c0ead70e877dd5e4f00cb0",
          "topics": [
            "0xddf252ad1be2c89b69c2b068fc378daa952ba7f163c4a11628f55a4df523b3ef",
            "0x000000000000000000000000c77f7fed3b5cc8249adc428c5f44c9063b9734b4",
            "0x0000000000000000000000000000000000000000000000000000000000000000"
          ],
          "data": "0x0000000000000000000000000000000000000000000000359e8ac1ff5885c7f1",
          "blockHash": "0x1eabc011d7bbe1ec347450a711242b37d1579171a9ca3e78c0a04b1fe7a64dc3",
          "blockNumber": "0x724ffe",
          "transactionHash": "0xe8938c3da6a20838571a626253443a10c24f3fbbaf6e262a86d451d5931c1499",
          "transactionIndex": "0x69",
          "logIndex": "0xce",
          "removed": false
        },
        {
          "address": "0x5eb9cc76c3506942c1c0ead70e877dd5e4f00cb0",
          "topics": [
            "0x4afcb4a87cdbd9974efdb92ee48bc8d7cd0ae4bf217004db3d080cbaee652ca7"
          ],
          "data": "0x000000000000000000000000000000000000000000000000000000006786b1b4000000000000000000000000000000000000000000000000000391151880553a0000000000000000000000000000000000000000000000000dc7db1331ea483a",
          "blockHash": "0x1eabc011d7bbe1ec347450a711242b37d1579171a9ca3e78c0a04b1fe7a64dc3",
          "blockNumber": "0x724ffe",
          "transactionHash": "0xe8938c3da6a20838571a626253443a10c24f3fbbaf6e262a86d451d5931c1499",
          "transactionIndex": "0x69",
          "logIndex": "0xcf",
          "removed": false
        }
      ],
      "logsBloom": "0x00000000000000000000000000000000000000000000000000000000000000000000000000000000000000000000000000000000000000004000000000000000000000000000000000000008000000000000000000000000000000000000000000000000020000000000000004000800020000000000000000000010000000000000000000000000000000000000000000000000000000000000010000000000000000000000000000000000000000004000000000000000000000000000020000000002000000800000008000000000000000000000080000000000000020000000000000000000000000000000000000000000000000000000000000000000",
      "type": "0x2",
      "transactionHash": "0xe8938c3da6a20838571a626253443a10c24f3fbbaf6e262a86d451d5931c1499",
      "transactionIndex": "0x69",
      "blockHash": "0x1eabc011d7bbe1ec347450a711242b37d1579171a9ca3e78c0a04b1fe7a64dc3",
      "blockNumber": "0x724ffe",
      "gasUsed": "0xfb93",
      "effectiveGasPrice": "0x3c4a5c6a0",
      "from": "0xc77f7fed3b5cc8249adc428c5f44c9063b9734b4",
      "to": "0x5eb9cc76c3506942c1c0ead70e877dd5e4f00cb0",
      "contractAddress": null
    }
  ],
  "libraries": [],
  "pending": [],
  "returns": {},
  "timestamp": 1736880565,
  "chain": 11155111,
  "commit": "51a374b"
}