{
  "transactions": [
    {
      "hash": "0xceb08b7c80f40013b5139b48cfd9652c378cc515c0d37bf8bd6685d06fe842c7",
      "transactionType": "CALL",
      "contractName": null,
      "contractAddress": "0x8aafd3ede9adb0ff97c7aebce82a919afb1c8764",
      "function": "buy(address)",
      "arguments": [
        "0xC77f7fed3b5Cc8249aDc428c5F44C9063B9734b4"
      ],
      "transaction": {
        "from": "0xc77f7fed3b5cc8249adc428c5f44c9063b9734b4",
        "to": "0x8aafd3ede9adb0ff97c7aebce82a919afb1c8764",
        "gas": "0x156ea",
        "value": "0xde0b6b3a7640000",
        "input": "0xf088d547000000000000000000000000c77f7fed3b5cc8249adc428c5f44c9063b9734b4",
        "nonce": "0x1597",
        "chainId": "0xaa36a7"
      },
      "additionalContracts": [],
      "isFixedGasLimit": false
    }
  ],
  "receipts": [
    {
      "status": "0x1",
      "cumulativeGasUsed": "0x5986da",
      "logs": [
        {
          "address": "0x8aafd3ede9adb0ff97c7aebce82a919afb1c8764",
          "topics": [
            "0xddf252ad1be2c89b69c2b068fc378daa952ba7f163c4a11628f55a4df523b3ef",
            "0x0000000000000000000000000000000000000000000000000000000000000000",
            "0x000000000000000000000000c77f7fed3b5cc8249adc428c5f44c9063b9734b4"
          ],
          "data": "0x00000000000000000000000000000000000000000000000a28fd1c7578138805",
          "blockHash": "0x4c20f03394ee4902550bc2441614b83a89a79cb643cbe70d90cd5539d04dd36f",
          "blockNumber": "0x731d07",
          "transactionHash": "0xceb08b7c80f40013b5139b48cfd9652c378cc515c0d37bf8bd6685d06fe842c7",
          "transactionIndex": "0x49",
          "logIndex": "0x5e",
          "removed": false
        },
        {
          "address": "0x8aafd3ede9adb0ff97c7aebce82a919afb1c8764",
          "topics": [
            "0xddf252ad1be2c89b69c2b068fc378daa952ba7f163c4a11628f55a4df523b3ef",
            "0x0000000000000000000000000000000000000000000000000000000000000000",
            "0x000000000000000000000000c77f7fed3b5cc8249adc428c5f44c9063b9734b4"
          ],
          "data": "0x00000000000000000000000000000000000000000000000007e3c1a729e2b0d3",
          "blockHash": "0x4c20f03394ee4902550bc2441614b83a89a79cb643cbe70d90cd5539d04dd36f",
          "blockNumber": "0x731d07",
          "transactionHash": "0xceb08b7c80f40013b5139b48cfd9652c378cc515c0d37bf8bd6685d06fe842c7",
          "transactionIndex": "0x49",
          "logIndex": "0x5f",
          "removed": false
        },
        {
          "address": "0x8aafd3ede9adb0ff97c7aebce82a919afb1c8764",
          "topics": [
            "0x4afcb4a87cdbd9974efdb92ee48bc8d7cd0ae4bf217004db3d080cbaee652ca7"
          ],
          "data": "0x000000000000000000000000000000000000000000000000000000006790593c0000000000000000000000000000000000000000000000000012cac9cfe3075d0000000000000000000000000000000000000000000000000de0b6b3a7640000",
          "blockHash": "0x4c20f03394ee4902550bc2441614b83a89a79cb643cbe70d90cd5539d04dd36f",
          "blockNumber": "0x731d07",
          "transactionHash": "0xceb08b7c80f40013b5139b48cfd9652c378cc515c0d37bf8bd6685d06fe842c7",
          "transactionIndex": "0x49",
          "logIndex": "0x60",
          "removed": false
        }
      ],
      "logsBloom": "0x00000000000000000000000000000000000000000600000000000000000000000000000000000000000000000000000000000000000000004000000000000000000000000000004000000008000000000000000000000000000000000000000000000000020000000000000000000800020000000000000000000010000000000000000000000000000000000000000000000000000000000000010000000000000000000000000000000000000000004000000000000000000000000000000000000002000000800000000000000000000000000000080000000000000020000000000000000000000000000000000000000000000000000000000000000000",
      "type": "0x2",
      "transactionHash": "0xceb08b7c80f40013b5139b48cfd9652c378cc515c0d37bf8bd6685d06fe842c7",
      "transactionIndex": "0x49",
      "blockHash": "0x4c20f03394ee4902550bc2441614b83a89a79cb643cbe70d90cd5539d04dd36f",
      "blockNumber": "0x731d07",
      "gasUsed": "0xf844",
      "effectiveGasPrice": "0x6b768095",
      "from": "0xc77f7fed3b5cc8249adc428c5f44c9063b9734b4",
      "to": "0x8aafd3ede9adb0ff97c7aebce82a919afb1c8764",
      "contractAddress": null
    }
  ],
  "libraries": [],
  "pending": [],
  "returns": {},
  "timestamp": 1737513277,
  "chain": 11155111,
  "commit": "1d2fb70"
}