{
  "transactions": [
    {
      "hash": "0x3fb146fbdc690b3b377b3b9e857f054156c3e3c21a6c8fd79cb531813fc51d94",
      "transactionType": "CALL",
      "contractName": null,
      "contractAddress": "0xbf4a322f1496e5c3d34a9bcdb4c60567b38c7de2",
      "function": "buy(address)",
      "arguments": [
        "0xC77f7fed3b5Cc8249aDc428c5F44C9063B9734b4"
      ],
      "transaction": {
        "from": "0xc77f7fed3b5cc8249adc428c5f44c9063b9734b4",
        "to": "0xbf4a322f1496e5c3d34a9bcdb4c60567b38c7de2",
        "gas": "0x1b309",
        "value": "0xde0b6b3a7640000",
        "input": "0xf088d547000000000000000000000000c77f7fed3b5cc8249adc428c5f44c9063b9734b4",
        "nonce": "0x932",
        "chainId": "0xaa36a7"
      },
      "additionalContracts": [],
      "isFixedGasLimit": false
    }
  ],
  "receipts": [
    {
      "status": "0x1",
      "cumulativeGasUsed": "0x76245f",
      "logs": [
        {
          "address": "0xbf4a322f1496e5c3d34a9bcdb4c60567b38c7de2",
          "topics": [
            "0xddf252ad1be2c89b69c2b068fc378daa952ba7f163c4a11628f55a4df523b3ef",
            "0x0000000000000000000000000000000000000000000000000000000000000000",
            "0x000000000000000000000000c77f7fed3b5cc8249adc428c5f44c9063b9734b4"
          ],
          "data": "0x00000000000000000000000000000000000000000000003582285c219663bcc5",
          "blockHash": "0x04aa09ba6f1fab5d849cc66baf570830e6a8159bc3598f0449c34f0ba9699066",
          "blockNumber": "0x7258bb",
          "transactionHash": "0x3fb146fbdc690b3b377b3b9e857f054156c3e3c21a6c8fd79cb531813fc51d94",
          "transactionIndex": "0x69",
          "logIndex": "0x63",
          "removed": false
        },
        {
          "address": "0xbf4a322f1496e5c3d34a9bcdb4c60567b38c7de2",
          "topics": [
            "0xddf252ad1be2c89b69c2b068fc378daa952ba7f163c4a11628f55a4df523b3ef",
            "0x0000000000000000000000000000000000000000000000000000000000000000",
            "0x000000000000000000000000c77f7fed3b5cc8249adc428c5f44c9063b9734b4"
          ],
          "data": "0x000000000000000000000000000000000000000000000000298d162f7c6a1105",
          "blockHash": "0x04aa09ba6f1fab5d849cc66baf570830e6a8159bc3598f0449c34f0ba9699066",
          "blockNumber": "0x7258bb",
          "transactionHash": "0x3fb146fbdc690b3b377b3b9e857f054156c3e3c21a6c8fd79cb531813fc51d94",
          "transactionIndex": "0x69",
          "logIndex": "0x64",
          "removed": false
        },
        {
          "address": "0xbf4a322f1496e5c3d34a9bcdb4c60567b38c7de2",
          "topics": [
            "0x4afcb4a87cdbd9974efdb92ee48bc8d7cd0ae4bf217004db3d080cbaee652ca7"
          ],
          "data": "0x0000000000000000000000000000000000000000000000000000000067871af00000000000000000000000000000000000000000000000000003903758ddb4ce0000000000000000000000000000000000000000000000000de0b6b3a7640000",
          "blockHash": "0x04aa09ba6f1fab5d849cc66baf570830e6a8159bc3598f0449c34f0ba9699066",
          "blockNumber": "0x7258bb",
          "transactionHash": "0x3fb146fbdc690b3b377b3b9e857f054156c3e3c21a6c8fd79cb531813fc51d94",
          "transactionIndex": "0x69",
          "logIndex": "0x65",
          "removed": false
        }
      ],
      "logsBloom": "0x00000000000000000000000000000000000000000000000000000000000000000000000000000000000000000000000000000000000000004000000000000000000000000000000000000008000000000000001000000000000000000000000000000000020000000000000000000800020000000000000000000010000000000000000000000000000000000000000000000000000008000000010000000000000000000000000000000000000000004000000000000000000000000000000000000002000000800000000000001000000000000000080000000000000020000000000000000000000000000000000000000000000000000000000000000000",
      "type": "0x2",
      "transactionHash": "0x3fb146fbdc690b3b377b3b9e857f054156c3e3c21a6c8fd79cb531813fc51d94",
      "transactionIndex": "0x69",
      "blockHash": "0x04aa09ba6f1fab5d849cc66baf570830e6a8159bc3598f0449c34f0ba9699066",
      "blockNumber": "0x7258bb",
      "gasUsed": "0x13af6",
      "effectiveGasPrice": "0x5889caa6",
      "from": "0xc77f7fed3b5cc8249adc428c5f44c9063b9734b4",
      "to": "0xbf4a322f1496e5c3d34a9bcdb4c60567b38c7de2",
      "contractAddress": null
    }
  ],
  "libraries": [],
  "pending": [],
  "returns": {},
  "timestamp": 1736907505,
  "chain": 11155111,
  "commit": "51a374b"
}