{
  "transactions": [
    {
      "hash": "0x065dbc7a3b4dc951d24fea9ee04f7dc25d2fbccb8ee0432ae8a342b04f65a875",
      "transactionType": "CALL",
      "contractName": null,
      "contractAddress": "0xbf4a322f1496e5c3d34a9bcdb4c60567b38c7de2",
      "function": "sell(uint256)",
      "arguments": [
        "974166796347163712426"
      ],
      "transaction": {
        "from": "0xc77f7fed3b5cc8249adc428c5f44c9063b9734b4",
        "to": "0xbf4a322f1496e5c3d34a9bcdb4c60567b38c7de2",
        "gas": "0x16fea",
        "value": "0x0",
        "input": "0xe4849b32000000000000000000000000000000000000000000000034cf47b3ebbcfe9baa",
        "nonce": "0xdcd",
        "chainId": "0xaa36a7"
      },
      "additionalContracts": [],
      "isFixedGasLimit": false
    }
  ],
  "receipts": [
    {
      "status": "0x1",
      "cumulativeGasUsed": "0x10cab37",
      "logs": [
        {
          "address": "0xbf4a322f1496e5c3d34a9bcdb4c60567b38c7de2",
          "topics": [
            "0xddf252ad1be2c89b69c2b068fc378daa952ba7f163c4a11628f55a4df523b3ef",
            "0x000000000000000000000000c77f7fed3b5cc8249adc428c5f44c9063b9734b4",
            "0x0000000000000000000000000000000000000000000000000000000000000000"
          ],
          "data": "0x000000000000000000000000000000000000000000000034cf47b3ebbcfe9baa",
          "blockHash": "0xfb11f5a044c6ebdebc567c0a90bac6cc684e851c56d52f888c309ad20ab72fc6",
          "blockNumber": "0x7266ab",
          "transactionHash": "0x065dbc7a3b4dc951d24fea9ee04f7dc25d2fbccb8ee0432ae8a342b04f65a875",
          "transactionIndex": "0x51",
          "logIndex": "0x60",
          "removed": false
        },
        {
          "address": "0xbf4a322f1496e5c3d34a9bcdb4c60567b38c7de2",
          "topics": [
            "0x4afcb4a87cdbd9974efdb92ee48bc8d7cd0ae4bf217004db3d080cbaee652ca7"
          ],
          "data": "0x000000000000000000000000000000000000000000000000000000006787c30800000000000000000000000000000000000000000000000000039f1b0dcf91460000000000000000000000000000000000000000000000000dc7e3d480fa8c65",
          "blockHash": "0xfb11f5a044c6ebdebc567c0a90bac6cc684e851c56d52f888c309ad20ab72fc6",
          "blockNumber": "0x7266ab",
          "transactionHash": "0x065dbc7a3b4dc951d24fea9ee04f7dc25d2fbccb8ee0432ae8a342b04f65a875",
          "transactionIndex": "0x51",
          "logIndex": "0x61",
          "removed": false
        }
      ],
      "logsBloom": "0x00000000000000000000000000000000000000000000000000000000000000000000000000000000000000000000000000000000000000004000000000000000000000000000000000000008000000000000001000000000000000000000000000000000020000000000000000000800020000000000000000000010000000000000000000000000000000000000000000000000000008000000010000000000000000000000000000000000000000004000000000000000000000000000000000000002000000800000000000001000000000000000080000000000000020000000000000000000000000000000000000000000000000000000000000000000",
      "type": "0x2",
      "transactionHash": "0x065dbc7a3b4dc951d24fea9ee04f7dc25d2fbccb8ee0432ae8a342b04f65a875",
      "transactionIndex": "0x51",
      "blockHash": "0xfb11f5a044c6ebdebc567c0a90bac6cc684e851c56d52f888c309ad20ab72fc6",
      "blockNumber": "0x7266ab",
      "gasUsed": "0xfb91",
      "effectiveGasPrice": "0x151747d14",
      "from": "0xc77f7fed3b5cc8249adc428c5f44c9063b9734b4",
      "to": "0xbf4a322f1496e5c3d34a9bcdb4c60567b38c7de2",
      "contractAddress": null
    }
  ],
  "libraries": [],
  "pending": [],
  "returns": {},
  "timestamp": 1736950537,
  "chain": 11155111,
  "commit": "51a374b"
}