{
  "transactions": [
    {
      "hash": "0x2f5921783106561b8c99a6b79cc5bfe5337de6cfd0d490673644b984d3ee20e2",
      "transactionType": "CALL",
      "contractName": null,
      "contractAddress": "0xbf4a322f1496e5c3d34a9bcdb4c60567b38c7de2",
      "function": "sell(uint256)",
      "arguments": [
        "989885944997632663915"
      ],
      "transaction": {
        "from": "0xc77f7fed3b5cc8249adc428c5f44c9063b9734b4",
        "to": "0xbf4a322f1496e5c3d34a9bcdb4c60567b38c7de2",
        "gas": "0x16fea",
        "value": "0x0",
        "input": "0xe4849b32000000000000000000000000000000000000000000000035a96d5655b7c1e16b",
        "nonce": "0x93f",
        "chainId": "0xaa36a7"
      },
      "additionalContracts": [],
      "isFixedGasLimit": false
    }
  ],
  "receipts": [
    {
      "status": "0x1",
      "cumulativeGasUsed": "0xde2393",
      "logs": [
        {
          "address": "0xbf4a322f1496e5c3d34a9bcdb4c60567b38c7de2",
          "topics": [
            "0xddf252ad1be2c89b69c2b068fc378daa952ba7f163c4a11628f55a4df523b3ef",
            "0x000000000000000000000000c77f7fed3b5cc8249adc428c5f44c9063b9734b4",
            "0x0000000000000000000000000000000000000000000000000000000000000000"
          ],
          "data": "0x000000000000000000000000000000000000000000000035a96d5655b7c1e16b",
          "blockHash": "0x8487494a8e888fadd14d630745bf9090f7ab1e3102052c0e244a78690914373d",
          "blockNumber": "0x7258ca",
          "transactionHash": "0x2f5921783106561b8c99a6b79cc5bfe5337de6cfd0d490673644b984d3ee20e2",
          "transactionIndex": "0x69",
          "logIndex": "0xaa",
          "removed": false
        },
        {
          "address": "0xbf4a322f1496e5c3d34a9bcdb4c60567b38c7de2",
          "topics": [
            "0x4afcb4a87cdbd9974efdb92ee48bc8d7cd0ae4bf217004db3d080cbaee652ca7"
          ],
          "data": "0x0000000000000000000000000000000000000000000000000000000067871ba400000000000000000000000000000000000000000000000000039062451bcd860000000000000000000000000000000000000000000000000dc7e3f90d16f2ac",
          "blockHash": "0x8487494a8e888fadd14d630745bf9090f7ab1e3102052c0e244a78690914373d",
          "blockNumber": "0x7258ca",
          "transactionHash": "0x2f5921783106561b8c99a6b79cc5bfe5337de6cfd0d490673644b984d3ee20e2",
          "transactionIndex": "0x69",
          "logIndex": "0xab",
          "removed": false
        }
      ],
      "logsBloom": "0x00000000000000000000000000000000000000000000000000000000000000000000000000000000000000000000000000000000000000004000000000000000000000000000000000000008000000000000001000000000000000000000000000000000020000000000000000000800020000000000000000000010000000000000000000000000000000000000000000000000000008000000010000000000000000000000000000000000000000004000000000000000000000000000000000000002000000800000000000001000000000000000080000000000000020000000000000000000000000000000000000000000000000000000000000000000",
      "type": "0x2",
      "transactionHash": "0x2f5921783106561b8c99a6b79cc5bfe5337de6cfd0d490673644b984d3ee20e2",
      "transactionIndex": "0x69",
      "blockHash": "0x8487494a8e888fadd14d630745bf9090f7ab1e3102052c0e244a78690914373d",
      "blockNumber": "0x7258ca",
      "gasUsed": "0xfb91",
      "effectiveGasPrice": "0x4eedc6d8",
      "from": "0xc77f7fed3b5cc8249adc428c5f44c9063b9734b4",
      "to": "0xbf4a322f1496e5c3d34a9bcdb4c60567b38c7de2",
      "contractAddress": null
    }
  ],
  "libraries": [],
  "pending": [],
  "returns": {},
  "timestamp": 1736907684,
  "chain": 11155111,
  "commit": "51a374b"
}