{
  "transactions": [
    {
      "hash": "0x0d1dbe7391b5136a9bb5639520a796548376a23b463706fa91efc82f825cb191",
      "transactionType": "CALL",
      "contractName": null,
      "contractAddress": "0xbf4a322f1496e5c3d34a9bcdb4c60567b38c7de2",
      "function": "sell(uint256)",
      "arguments": [
        "975282520004592252161"
      ],
      "transaction": {
        "from": "0xc77f7fed3b5cc8249adc428c5f44c9063b9734b4",
        "to": "0xbf4a322f1496e5c3d34a9bcdb4c60567b38c7de2",
        "gas": "0x16fea",
        "value": "0x0",
        "input": "0xe4849b32000000000000000000000000000000000000000000000034dec38cad0985b501",
        "nonce": "0xd79",
        "chainId": "0xaa36a7"
      },
      "additionalContracts": [],
      "isFixedGasLimit": false
    }
  ],
  "receipts": [
    {
      "status": "0x1",
      "cumulativeGasUsed": "0xec9853",
      "logs": [
        {
          "address": "0xbf4a322f1496e5c3d34a9bcdb4c60567b38c7de2",
          "topics": [
            "0xddf252ad1be2c89b69c2b068fc378daa952ba7f163c4a11628f55a4df523b3ef",
            "0x000000000000000000000000c77f7fed3b5cc8249adc428c5f44c9063b9734b4",
            "0x0000000000000000000000000000000000000000000000000000000000000000"
          ],
          "data": "0x000000000000000000000000000000000000000000000034dec38cad0985b501",
          "blockHash": "0x66168cb806bdcf6b8c8d45454964ca082989f75d64917474e985c37831036b50",
          "blockNumber": "0x726648",
          "transactionHash": "0x0d1dbe7391b5136a9bb5639520a796548376a23b463706fa91efc82f825cb191",
          "transactionIndex": "0x7b",
          "logIndex": "0xd2",
          "removed": false
        },
        {
          "address": "0xbf4a322f1496e5c3d34a9bcdb4c60567b38c7de2",
          "topics": [
            "0x4afcb4a87cdbd9974efdb92ee48bc8d7cd0ae4bf217004db3d080cbaee652ca7"
          ],
          "data": "0x000000000000000000000000000000000000000000000000000000006787be1000000000000000000000000000000000000000000000000000039e0b8b9c2dfd0000000000000000000000000000000000000000000000000dc7e3d71913966b",
          "blockHash": "0x66168cb806bdcf6b8c8d45454964ca082989f75d64917474e985c37831036b50",
          "blockNumber": "0x726648",
          "transactionHash": "0x0d1dbe7391b5136a9bb5639520a796548376a23b463706fa91efc82f825cb191",
          "transactionIndex": "0x7b",
          "logIndex": "0xd3",
          "removed": false
        }
      ],
      "logsBloom": "0x00000000000000000000000000000000000000000000000000000000000000000000000000000000000000000000000000000000000000004000000000000000000000000000000000000008000000000000001000000000000000000000000000000000020000000000000000000800020000000000000000000010000000000000000000000000000000000000000000000000000008000000010000000000000000000000000000000000000000004000000000000000000000000000000000000002000000800000000000001000000000000000080000000000000020000000000000000000000000000000000000000000000000000000000000000000",
      "type": "0x2",
      "transactionHash": "0x0d1dbe7391b5136a9bb5639520a796548376a23b463706fa91efc82f825cb191",
      "transactionIndex": "0x7b",
      "blockHash": "0x66168cb806bdcf6b8c8d45454964ca082989f75d64917474e985c37831036b50",
      "blockNumber": "0x726648",
      "gasUsed": "0xfb91",
      "effectiveGasPrice": "0x904282f1",
      "from": "0xc77f7fed3b5cc8249adc428c5f44c9063b9734b4",
      "to": "0xbf4a322f1496e5c3d34a9bcdb4c60567b38c7de2",
      "contractAddress": null
    }
  ],
  "libraries": [],
  "pending": [],
  "returns": {},
  "timestamp": 1736949264,
  "chain": 11155111,
  "commit": "51a374b"
}