{
  "transactions": [
    {
      "hash": "0xb712132369fa0e3f33d99884028ff44bc4337c9d1269a2d19879d85b27f56c1a",
      "transactionType": "CALL",
      "contractName": null,
      "contractAddress": "0x5eb9cc76c3506942c1c0ead70e877dd5e4f00cb0",
      "function": "buy(address)",
      "arguments": [
        "0xC77f7fed3b5Cc8249aDc428c5F44C9063B9734b4"
      ],
      "transaction": {
        "from": "0xc77f7fed3b5cc8249adc428c5f44c9063b9734b4",
        "to": "0x5eb9cc76c3506942c1c0ead70e877dd5e4f00cb0",
        "gas": "0x156c8",
        "value": "0xde0b6b3a7640000",
        "input": "0xf088d547000000000000000000000000c77f7fed3b5cc8249adc428c5f44c9063b9734b4",
        "nonce": "0x179",
        "chainId": "0xaa36a7"
      },
      "additionalContracts": [],
      "isFixedGasLimit": false
    }
  ],
  "receipts": [
    {
      "status": "0x1",
      "cumulativeGasUsed": "0xa809fa",
      "logs": [
        {
          "address": "0x5eb9cc76c3506942c1c0ead70e877dd5e4f00cb0",
          "topics": [
            "0xddf252ad1be2c89b69c2b068fc378daa952ba7f163c4a11628f55a4df523b3ef",
            "0x0000000000000000000000000000000000000000000000000000000000000000",
            "0x000000000000000000000000c77f7fed3b5cc8249adc428c5f44c9063b9734b4"
          ],
          "data": "0x000000000000000000000000000000000000000000000035a6d238921549d644",
          "blockHash": "0x61e5e697373bcba93f9b9012dd217633d27e4ddb47e281da3eeeee4a918da8a2",
          "blockNumber": "0x723c36",
          "transactionHash": "0xb712132369fa0e3f33d99884028ff44bc4337c9d1269a2d19879d85b27f56c1a",
          "transactionIndex": "0x63",
          "logIndex": "0x7e",
          "removed": false
        },
        {
          "address": "0x5eb9cc76c3506942c1c0ead70e877dd5e4f00cb0",
          "topics": [
            "0xddf252ad1be2c89b69c2b068fc378daa952ba7f163c4a11628f55a4df523b3ef",
            "0x0000000000000000000000000000000000000000000000000000000000000000",
            "0x000000000000000000000000c77f7fed3b5cc8249adc428c5f44c9063b9734b4"
          ],
          "data": "0x00000000000000000000000000000000000000000000000029a98ea074ab3f72",
          "blockHash": "0x61e5e697373bcba93f9b9012dd217633d27e4ddb47e281da3eeeee4a918da8a2",
          "blockNumber": "0x723c36",
          "transactionHash": "0xb712132369fa0e3f33d99884028ff44bc4337c9d1269a2d19879d85b27f56c1a",
          "transactionIndex": "0x63",
          "logIndex": "0x7f",
          "removed": false
        },
        {
          "address": "0x5eb9cc76c3506942c1c0ead70e877dd5e4f00cb0",
          "topics": [
            "0x4afcb4a87cdbd9974efdb92ee48bc8d7cd0ae4bf217004db3d080cbaee652ca7"
          ],
          "data": "0x000000000000000000000000000000000000000000000000000000006785c3dc00000000000000000000000000000000000000000000000000038dc5ad52637a0000000000000000000000000000000000000000000000000de0b6b3a7640000",
          "blockHash": "0x61e5e697373bcba93f9b9012dd217633d27e4ddb47e281da3eeeee4a918da8a2",
          "blockNumber": "0x723c36",
          "transactionHash": "0xb712132369fa0e3f33d99884028ff44bc4337c9d1269a2d19879d85b27f56c1a",
          "transactionIndex": "0x63",
          "logIndex": "0x80",
          "removed": false
        }
      ],
      "logsBloom": "0x00000000000000000000000000000000000000000000000000000000000000000000000000000000000000000000000000000000000000004000000000000000000000000000000000000008000000000000000000000000000000000000000000000000020000000000000004000800020000000000000000000010000000000000000000000000000000000000000000000000000000000000010000000000000000000000000000000000000000004000000000000000000000000000020000000002000000800000008000000000000000000000080000000000000020000000000000000000000000000000000000000000000000000000000000000000",
      "type": "0x2",
      "transactionHash": "0xb712132369fa0e3f33d99884028ff44bc4337c9d1269a2d19879d85b27f56c1a",
      "transactionIndex": "0x63",
      "blockHash": "0x61e5e697373bcba93f9b9012dd217633d27e4ddb47e281da3eeeee4a918da8a2",
      "blockNumber": "0x723c36",
      "gasUsed": "0xf82c",
      "effectiveGasPrice": "0x1d50b4a0a",
      "from": "0xc77f7fed3b5cc8249adc428c5f44c9063b9734b4",
      "to": "0x5eb9cc76c3506942c1c0ead70e877dd5e4f00cb0",
      "contractAddress": null
    }
  ],
  "libraries": [],
  "pending": [],
  "returns": {},
  "timestamp": 1736819676,
  "chain": 11155111,
  "commit": "51a374b"
}