{
  "transactions": [
    {
      "hash": "0xa2e0123f13bebf4289322a40130a9b97f3032b9b1c4d1185bb5c1cc5c4ef4b4a",
      "transactionType": "CALL",
      "contractName": null,
      "contractAddress": "0x5eb9cc76c3506942c1c0ead70e877dd5e4f00cb0",
      "function": "sell(uint256)",
      "arguments": [
        "989104779701143052005"
      ],
      "transaction": {
        "from": "0xc77f7fed3b5cc8249adc428c5f44c9063b9734b4",
        "to": "0x5eb9cc76c3506942c1c0ead70e877dd5e4f00cb0",
        "gas": "0x16fec",
        "value": "0x0",
        "input": "0xe4849b320000000000000000000000000000000000000000000000359e9614a2efa19ee5",
        "nonce": "0x3e3",
        "chainId": "0xaa36a7"
      },
      "additionalContracts": [],
      "isFixedGasLimit": false
    }
  ],
  "receipts": [
    {
      "status": "0x1",
      "cumulativeGasUsed": "0xb55cd1",
      "logs": [
        {
          "address": "0x5eb9cc76c3506942c1c0ead70e877dd5e4f00cb0",
          "topics": [
            "0xddf252ad1be2c89b69c2b068fc378daa952ba7f163c4a11628f55a4df523b3ef",
            "0x000000000000000000000000c77f7fed3b5cc8249adc428c5f44c9063b9734b4",
            "0x0000000000000000000000000000000000000000000000000000000000000000"
          ],
          "data": "0x0000000000000000000000000000000000000000000000359e9614a2efa19ee5",
          "blockHash": "0xdcf0779187130c86ef0162066f9406e3977bec44396b076785ba4574d58f938a",
          "blockNumber": "0x724fe9",
          "transactionHash": "0xa2e0123f13bebf4289322a40130a9b97f3032b9b1c4d1185bb5c1cc5c4ef4b4a",
          "transactionIndex": "0x6c",
          "logIndex": "0x93",
          "removed": false
        },
        {
          "address": "0x5eb9cc76c3506942c1c0ead70e877dd5e4f00cb0",
          "topics": [
            "0x4afcb4a87cdbd9974efdb92ee48bc8d7cd0ae4bf217004db3d080cbaee652ca7"
          ],
          "data": "0x000000000000000000000000000000000000000000000000000000006786b0b80000000000000000000000000000000000000000000000000003911457af9fab0000000000000000000000000000000000000000000000000dc7db1331eff401",
          "blockHash": "0xdcf0779187130c86ef0162066f9406e3977bec44396b076785ba4574d58f938a",
          "blockNumber": "0x724fe9",
          "transactionHash": "0xa2e0123f13bebf4289322a40130a9b97f3032b9b1c4d1185bb5c1cc5c4ef4b4a",
          "transactionIndex": "0x6c",
          "logIndex": "0x94",
          "removed": false
        }
      ],
      "logsBloom": "0x00000000000000000000000000000000000000000000000000000000000000000000000000000000000000000000000000000000000000004000000000000000000000000000000000000008000000000000000000000000000000000000000000000000020000000000000004000800020000000000000000000010000000000000000000000000000000000000000000000000000000000000010000000000000000000000000000000000000000004000000000000000000000000000020000000002000000800000008000000000000000000000080000000000000020000000000000000000000000000000000000000000000000000000000000000000",
      "type": "0x2",
      "transactionHash": "0xa2e0123f13bebf4289322a40130a9b97f3032b9b1c4d1185bb5c1cc5c4ef4b4a",
      "transactionIndex": "0x6c",
      "blockHash": "0xdcf0779187130c86ef0162066f9406e3977bec44396b076785ba4574d58f938a",
      "blockNumber": "0x724fe9",
      "gasUsed": "0xfb93",
      "effectiveGasPrice": "0x396bc1c70",
      "from": "0xc77f7fed3b5cc8249adc428c5f44c9063b9734b4",
      "to": "0x5eb9cc76c3506942c1c0ead70e877dd5e4f00cb0",
      "contractAddress": null
    }
  ],
  "libraries": [],
  "pending": [],
  "returns": {},
  "timestamp": 1736880312,
  "chain": 11155111,
  "commit": "51a374b"
}