{
  "transactions": [
    {
      "hash": "0x4dca5fc62384b4dc14b3c7a145f26a11b2b801a3aed7cb5e5291113c6c08d278",
      "transactionType": "CALL",
      "contractName": null,
      "contractAddress": "0xcf440b3a823449ec0d9b413bd183a81e44da5441",
      "function": "buy(address)",
      "arguments": [
        "0xF66076775AD1f36dd12C1f1b10C21d1aadf0D6dE"
      ],
      "transaction": {
        "from": "0xf66076775ad1f36dd12c1f1b10c21d1aadf0d6de",
        "to": "0xcf440b3a823449ec0d9b413bd183a81e44da5441",
        "gas": "0x14787",
        "value": "0x2386f26fc10000",
        "input": "0xf088d547000000000000000000000000f66076775ad1f36dd12c1f1b10c21d1aadf0d6de",
        "nonce": "0x79",
        "chainId": "0xaa36a7"
      },
      "additionalContracts": [],
      "isFixedGasLimit": false
    }
  ],
  "receipts": [
    {
      "status": "0x1",
      "cumulativeGasUsed": "0x6bd1b0",
      "logs": [
        {
          "address": "0xcf440b3a823449ec0d9b413bd183a81e44da5441",
          "topics": [
            "0xddf252ad1be2c89b69c2b068fc378daa952ba7f163c4a11628f55a4df523b3ef",
            "0x0000000000000000000000000000000000000000000000000000000000000000",
            "0x000000000000000000000000f66076775ad1f36dd12c1f1b10c21d1aadf0d6de"
          ],
          "data": "0x00000000000000000000000000000000000000000000000088a7d2c2c10f44dc",
          "blockHash": "0x91ff9734dbf9bae816184ed7445a6fa577cda9d6e10f4ae145c2c046635a38ab",
          "blockNumber": "0x73d7a1",
          "transactionHash": "0x4dca5fc62384b4dc14b3c7a145f26a11b2b801a3aed7cb5e5291113c6c08d278",
          "transactionIndex": "0x5e",
          "logIndex": "0x84",
          "removed": false
        },
        {
          "address": "0xcf440b3a823449ec0d9b413bd183a81e44da5441",
          "topics": [
            "0x4afcb4a87cdbd9974efdb92ee48bc8d7cd0ae4bf217004db3d080cbaee652ca7"
          ],
          "data": "0x0000000000000000000000000000000000000000000000000000000067995f1800000000000000000000000000000000000000000000000000039570d62d84bd000000000000000000000000000000000000000000000000002386f26fc10000",
          "blockHash": "0x91ff9734dbf9bae816184ed7445a6fa577cda9d6e10f4ae145c2c046635a38ab",
          "blockNumber": "0x73d7a1",
          "transactionHash": "0x4dca5fc62384b4dc14b3c7a145f26a11b2b801a3aed7cb5e5291113c6c08d278",
          "transactionIndex": "0x5e",
          "logIndex": "0x85",
          "removed": false
        }
      ],
      "logsBloom": "0x00000000000000040000000000000000000000000000000004000000000000000000000000000000000000000000000000000000000000004000000000000000000000000000000000000008000000000040000000000000000000000000000000000000420000000000000000000800220000000000000000000010000000000000000000000000000000000000000000000000000000000000000000000000000000000000000000000000000000004000000000000000000000000000000000000002000000000000000000000000000000000000000000000020000020000000000000000000000000000000000000000000000000000000000000000000",
      "type": "0x2",
      "transactionHash": "0x4dca5fc62384b4dc14b3c7a145f26a11b2b801a3aed7cb5e5291113c6c08d278",
      "transactionIndex": "0x5e",
      "blockHash": "0x91ff9734dbf9bae816184ed7445a6fa577cda9d6e10f4ae145c2c046635a38ab",
      "blockNumber": "0x73d7a1",
      "gasUsed": "0xed20",
      "effectiveGasPrice": "0x4331b608",
      "from": "0xf66076775ad1f36dd12c1f1b10c21d1aadf0d6de",
      "to": "0xcf440b3a823449ec0d9b413bd183a81e44da5441",
      "contractAddress": null
    }
  ],
  "libraries": [],
  "pending": [],
  "returns": {},
  "timestamp": 1738104603,
  "chain": 11155111,
  "commit": "b6e395f"
}