{
  "transactions": [
    {
      "hash": "0x7dd08b62dab2b2627e0d83658160cab8dd6964aa509b3fbdcfd8ca7dcf248029",
      "transactionType": "CALL",
      "contractName": null,
      "contractAddress": "0x270e88f8683660553e8ba4eb2ad7c91a1710d769",
      "function": "sell(uint256)",
      "arguments": [
        "954028904389255728347"
      ],
      "transaction": {
        "from": "0xc77f7fed3b5cc8249adc428c5f44c9063b9734b4",
        "to": "0x270e88f8683660553e8ba4eb2ad7c91a1710d769",
        "gas": "0x16fec",
        "value": "0x0",
        "input": "0xe4849b32000000000000000000000000000000000000000000000033b7cf89e158b18cdb",
        "nonce": "0x5d3",
        "chainId": "0xaa36a7"
      },
      "additionalContracts": [],
      "isFixedGasLimit": false
    }
  ],
  "receipts": [
    {
      "status": "0x1",
      "cumulativeGasUsed": "0x95bd34",
      "logs": [
        {
          "address": "0x270e88f8683660553e8ba4eb2ad7c91a1710d769",
          "topics": [
            "0xddf252ad1be2c89b69c2b068fc378daa952ba7f163c4a11628f55a4df523b3ef",
            "0x000000000000000000000000c77f7fed3b5cc8249adc428c5f44c9063b9734b4",
            "0x0000000000000000000000000000000000000000000000000000000000000000"
          ],
          "data": "0x000000000000000000000000000000000000000000000033b7cf89e158b18cdb",
          "blockHash": "0xa7b3e30783a4973f9e548bc42c87da08766820bf687cde438e4771957d2d34de",
          "blockNumber": "0x725293",
          "transactionHash": "0x7dd08b62dab2b2627e0d83658160cab8dd6964aa509b3fbdcfd8ca7dcf248029",
          "transactionIndex": "0x58",
          "logIndex": "0x7e",
          "removed": false
        },
        {
          "address": "0x270e88f8683660553e8ba4eb2ad7c91a1710d769",
          "topics": [
            "0x4afcb4a87cdbd9974efdb92ee48bc8d7cd0ae4bf217004db3d080cbaee652ca7"
          ],
          "data": "0x000000000000000000000000000000000000000000000000000000006786d0d40000000000000000000000000000000000000000000000000003b2f12acab6ba0000000000000000000000000000000000000000000000000dc83e929f6b9d98",
          "blockHash": "0xa7b3e30783a4973f9e548bc42c87da08766820bf687cde438e4771957d2d34de",
          "blockNumber": "0x725293",
          "transactionHash": "0x7dd08b62dab2b2627e0d83658160cab8dd6964aa509b3fbdcfd8ca7dcf248029",
          "transactionIndex": "0x58",
          "logIndex": "0x7f",
          "removed": false
        }
      ],
      "logsBloom": "0x00000000000000000000000000000000000000000000000000000000000000000000000000000000000000000000000020000000000000004000000000000000000000000000000000000008000000000000000000000000000000000000000000000000020000000000000000000800020000000000000000000010000000000000000000010000000000000000000000000000000000000000010000000000000000000000000000000000000000004000000000000000000000000000000000000002000000800000000000000000000000000000080000008000000020000000000000000000000000000000000000000000000000000000000000000000",
      "type": "0x2",
      "transactionHash": "0x7dd08b62dab2b2627e0d83658160cab8dd6964aa509b3fbdcfd8ca7dcf248029",
      "transactionIndex": "0x58",
      "blockHash": "0xa7b3e30783a4973f9e548bc42c87da08766820bf687cde438e4771957d2d34de",
      "blockNumber": "0x725293",
      "gasUsed": "0xfb93",
      "effectiveGasPrice": "0x358269946",
      "from": "0xc77f7fed3b5cc8249adc428c5f44c9063b9734b4",
      "to": "0x270e88f8683660553e8ba4eb2ad7c91a1710d769",
      "contractAddress": null
    }
  ],
  "libraries": [],
  "pending": [],
  "returns": {},
  "timestamp": 1736888534,
  "chain": 11155111,
  "commit": "51a374b"
}