{
  "transactions": [
    {
      "hash": "0x31191f85180bcdcff668e7039935b424af8960606f60470a2ef140564ce8bd6c",
      "transactionType": "CALL",
      "contractName": null,
      "contractAddress": "0xbf4a322f1496e5c3d34a9bcdb4c60567b38c7de2",
      "function": "sell(uint256)",
      "arguments": [
        "978136538944164236437"
      ],
      "transaction": {
        "from": "0xc77f7fed3b5cc8249adc428c5f44c9063b9734b4",
        "to": "0xbf4a322f1496e5c3d34a9bcdb4c60567b38c7de2",
        "gas": "0x16fea",
        "value": "0x0",
        "input": "0xe4849b32000000000000000000000000000000000000000000000035065f0fc7bcf28c95",
        "nonce": "0xca3",
        "chainId": "0xaa36a7"
      },
      "additionalContracts": [],
      "isFixedGasLimit": false
    }
  ],
  "receipts": [
    {
      "status": "0x1",
      "cumulativeGasUsed": "0xd0dcd3",
      "logs": [
        {
          "address": "0xbf4a322f1496e5c3d34a9bcdb4c60567b38c7de2",
          "topics": [
            "0xddf252ad1be2c89b69c2b068fc378daa952ba7f163c4a11628f55a4df523b3ef",
            "0x000000000000000000000000c77f7fed3b5cc8249adc428c5f44c9063b9734b4",
            "0x0000000000000000000000000000000000000000000000000000000000000000"
          ],
          "data": "0x000000000000000000000000000000000000000000000035065f0fc7bcf28c95",
          "blockHash": "0x343ca0d4c92e2efd62fce6c480456252b9e58245a6f618ba693908360b670c18",
          "blockNumber": "0x725cec",
          "transactionHash": "0x31191f85180bcdcff668e7039935b424af8960606f60470a2ef140564ce8bd6c",
          "transactionIndex": "0x64",
          "logIndex": "0xa4",
          "removed": false
        },
        {
          "address": "0xbf4a322f1496e5c3d34a9bcdb4c60567b38c7de2",
          "topics": [
            "0x4afcb4a87cdbd9974efdb92ee48bc8d7cd0ae4bf217004db3d080cbaee652ca7"
          ],
          "data": "0x0000000000000000000000000000000000000000000000000000000067874d8400000000000000000000000000000000000000000000000000039b57d877bb9f0000000000000000000000000000000000000000000000000dc7e3ddbbd3e92d",
          "blockHash": "0x343ca0d4c92e2efd62fce6c480456252b9e58245a6f618ba693908360b670c18",
          "blockNumber": "0x725cec",
          "transactionHash": "0x31191f85180bcdcff668e7039935b424af8960606f60470a2ef140564ce8bd6c",
          "transactionIndex": "0x64",
          "logIndex": "0xa5",
          "removed": false
        }
      ],
      "logsBloom": "0x00000000000000000000000000000000000000000000000000000000000000000000000000000000000000000000000000000000000000004000000000000000000000000000000000000008000000000000001000000000000000000000000000000000020000000000000000000800020000000000000000000010000000000000000000000000000000000000000000000000000008000000010000000000000000000000000000000000000000004000000000000000000000000000000000000002000000800000000000001000000000000000080000000000000020000000000000000000000000000000000000000000000000000000000000000000",
      "type": "0x2",
      "transactionHash": "0x31191f85180bcdcff668e7039935b424af8960606f60470a2ef140564ce8bd6c",
      "transactionIndex": "0x64",
      "blockHash": "0x343ca0d4c92e2efd62fce6c480456252b9e58245a6f618ba693908360b670c18",
      "blockNumber": "0x725cec",
      "gasUsed": "0xfb91",
      "effectiveGasPrice": "0x2279e6714",
      "from": "0xc77f7fed3b5cc8249adc428c5f44c9063b9734b4",
      "to": "0xbf4a322f1496e5c3d34a9bcdb4c60567b38c7de2",
      "contractAddress": null
    }
  ],
  "libraries": [],
  "pending": [],
  "returns": {},
  "timestamp": 1736920453,
  "chain": 11155111,
  "commit": "51a374b"
}