{
  "transactions": [
    {
      "hash": "0x1c5d646ceeb118783c154d8e359221e5c461d2550f79f243c2077cc7931a6dcd",
      "transactionType": "CALL",
      "contractName": null,
      "contractAddress": "0x8aafd3ede9adb0ff97c7aebce82a919afb1c8764",
      "function": "sell(uint256)",
      "arguments": [
        "4945293664"
      ],
      "transaction": {
        "from": "0xc77f7fed3b5cc8249adc428c5f44c9063b9734b4",
        "to": "0x8aafd3ede9adb0ff97c7aebce82a919afb1c8764",
        "gas": "0x1722a",
        "value": "0x0",
        "input": "0xe4849b320000000000000000000000000000000000000000000000000000000126c33160",
        "nonce": "0x1729",
        "chainId": "0xaa36a7"
      },
      "additionalContracts": [],
      "isFixedGasLimit": false
    }
  ],
  "receipts": [
    {
      "status": "0x1",
      "cumulativeGasUsed": "0x6e1d22",
      "logs": [
        {
          "address": "0x8aafd3ede9adb0ff97c7aebce82a919afb1c8764",
          "topics": [
            "0xddf252ad1be2c89b69c2b068fc378daa952ba7f163c4a11628f55a4df523b3ef",
            "0x000000000000000000000000c77f7fed3b5cc8249adc428c5f44c9063b9734b4",
            "0x0000000000000000000000000000000000000000000000000000000000000000"
          ],
          "data": "0x00000000000000000000000000000000000000000000000000000001246784f3",
          "blockHash": "0x954f39826b3fbaf7e52fa154f2cdd321d046b83cd0c9d137ee5f0ac4c9cf51ae",
          "blockNumber": "0x731ef2",
          "transactionHash": "0x1c5d646ceeb118783c154d8e359221e5c461d2550f79f243c2077cc7931a6dcd",
          "transactionIndex": "0x4a",
          "logIndex": "0x53",
          "removed": false
        },
        {
          "address": "0x8aafd3ede9adb0ff97c7aebce82a919afb1c8764",
          "topics": [
            "0xddf252ad1be2c89b69c2b068fc378daa952ba7f163c4a11628f55a4df523b3ef",
            "0x000000000000000000000000c77f7fed3b5cc8249adc428c5f44c9063b9734b4",
            "0x000000000000000000000000c77f7fed3b5cc8249adc428c5f44c9063b9734b4"
          ],
          "data": "0x00000000000000000000000000000000000000000000000000000000025bac6d",
          "blockHash": "0x954f39826b3fbaf7e52fa154f2cdd321d046b83cd0c9d137ee5f0ac4c9cf51ae",
          "blockNumber": "0x731ef2",
          "transactionHash": "0x1c5d646ceeb118783c154d8e359221e5c461d2550f79f243c2077cc7931a6dcd",
          "transactionIndex": "0x4a",
          "logIndex": "0x54",
          "removed": false
        },
        {
          "address": "0x8aafd3ede9adb0ff97c7aebce82a919afb1c8764",
          "topics": [
            "0x4afcb4a87cdbd9974efdb92ee48bc8d7cd0ae4bf217004db3d080cbaee652ca7"
          ],
          "data": "0x000000000000000000000000000000000000000000000000000000006790704000000000000000000000000000000000000000000000000000177b2f1e904ea50000000000000000000000000000000000000000000000000000000001f2bccb",
          "blockHash": "0x954f39826b3fbaf7e52fa154f2cdd321d046b83cd0c9d137ee5f0ac4c9cf51ae",
          "blockNumber": "0x731ef2",
          "transactionHash": "0x1c5d646ceeb118783c154d8e359221e5c461d2550f79f243c2077cc7931a6dcd",
          "transactionIndex": "0x4a",
          "logIndex": "0x55",
          "removed": false
        }
      ],
      "logsBloom": "0x00000000000000000000000000000000000000000600000000000000000000000000000000000000000000000000000000000000000000004000000000000000000000000000004000000008000000000000000000000000000000000000000000000000020000000000000000000800020000000000000000000010000000000000000000000000000000000000000000000000000000000000010000000000000000000000000000000000000000004000000000000000000000000000000000000002000000800000000000000000000000000000080000000000000020000000000000000000000000000000000000000000000000000000000000000000",
      "type": "0x2",
      "transactionHash": "0x1c5d646ceeb118783c154d8e359221e5c461d2550f79f243c2077cc7931a6dcd",
      "transactionIndex": "0x4a",
      "blockHash": "0x954f39826b3fbaf7e52fa154f2cdd321d046b83cd0c9d137ee5f0ac4c9cf51ae",
      "blockNumber": "0x731ef2",
      "gasUsed": "0xfd1b",
      "effectiveGasPrice": "0x44536d92",
      "from": "0xc77f7fed3b5cc8249adc428c5f44c9063b9734b4",
      "to": "0x8aafd3ede9adb0ff97c7aebce82a919afb1c8764",
      "contractAddress": null
    }
  ],
  "libraries": [],
  "pending": [],
  "returns": {},
  "timestamp": 1737519169,
  "chain": 11155111,
  "commit": "1d2fb70"
}