{
  "transactions": [
    {
      "hash": "0xc891d751873337083427976960056d040ab17d94382789c12d89b1e62fb34548",
      "transactionType": "CALL",
      "contractName": null,
      "contractAddress": "0x8aafd3ede9adb0ff97c7aebce82a919afb1c8764",
      "function": "sell(uint256)",
      "arguments": [
        "1313631427628282782"
      ],
      "transaction": {
        "from": "0xc77f7fed3b5cc8249adc428c5f44c9063b9734b4",
        "to": "0x8aafd3ede9adb0ff97c7aebce82a919afb1c8764",
        "gas": "0x15dca",
        "value": "0x0",
        "input": "0xe4849b32000000000000000000000000000000000000000000000000123af4d2d192b39e",
        "nonce": "0x1683",
        "chainId": "0xaa36a7"
      },
      "additionalContracts": [],
      "isFixedGasLimit": false
    }
  ],
  "receipts": [
    {
      "status": "0x1",
      "cumulativeGasUsed": "0xa32ad1",
      "logs": [
        {
          "address": "0x8aafd3ede9adb0ff97c7aebce82a919afb1c8764",
          "topics": [
            "0xddf252ad1be2c89b69c2b068fc378daa952ba7f163c4a11628f55a4df523b3ef",
            "0x000000000000000000000000c77f7fed3b5cc8249adc428c5f44c9063b9734b4",
            "0x0000000000000000000000000000000000000000000000000000000000000000"
          ],
          "data": "0x00000000000000000000000000000000000000000000000012159ee59cb24bc8",
          "blockHash": "0xe73a5c7beb9c713b23e687b4ba28fc252587c7274c5747f68c94876f189ee163",
          "blockNumber": "0x731e34",
          "transactionHash": "0xc891d751873337083427976960056d040ab17d94382789c12d89b1e62fb34548",
          "transactionIndex": "0x73",
          "logIndex": "0xbe",
          "removed": false
        },
        {
          "address": "0x8aafd3ede9adb0ff97c7aebce82a919afb1c8764",
          "topics": [
            "0xddf252ad1be2c89b69c2b068fc378daa952ba7f163c4a11628f55a4df523b3ef",
            "0x000000000000000000000000c77f7fed3b5cc8249adc428c5f44c9063b9734b4",
            "0x000000000000000000000000c77f7fed3b5cc8249adc428c5f44c9063b9734b4"
          ],
          "data": "0x000000000000000000000000000000000000000000000000002555ed34e067d6",
          "blockHash": "0xe73a5c7beb9c713b23e687b4ba28fc252587c7274c5747f68c94876f189ee163",
          "blockNumber": "0x731e34",
          "transactionHash": "0xc891d751873337083427976960056d040ab17d94382789c12d89b1e62fb34548",
          "transactionIndex": "0x73",
          "logIndex": "0xbf",
          "removed": false
        },
        {
          "address": "0x8aafd3ede9adb0ff97c7aebce82a919afb1c8764",
          "topics": [
            "0x4afcb4a87cdbd9974efdb92ee48bc8d7cd0ae4bf217004db3d080cbaee652ca7"
          ],
          "data": "0x0000000000000000000000000000000000000000000000000000000067906758000000000000000000000000000000000000000000000000001596e817cb6c01000000000000000000000000000000000000000000000000001c5c1bac5c13ae",
          "blockHash": "0xe73a5c7beb9c713b23e687b4ba28fc252587c7274c5747f68c94876f189ee163",
          "blockNumber": "0x731e34",
          "transactionHash": "0xc891d751873337083427976960056d040ab17d94382789c12d89b1e62fb34548",
          "transactionIndex": "0x73",
          "logIndex": "0xc0",
          "removed": false
        }
      ],
      "logsBloom": "0x00000000000000000000000000000000000000000600000000000000000000000000000000000000000000000000000000000000000000004000000000000000000000000000004000000008000000000000000000000000000000000000000000000000020000000000000000000800020000000000000000000010000000000000000000000000000000000000000000000000000000000000010000000000000000000000000000000000000000004000000000000000000000000000000000000002000000800000000000000000000000000000080000000000000020000000000000000000000000000000000000000000000000000000000000000000",
      "type": "0x2",
      "transactionHash": "0xc891d751873337083427976960056d040ab17d94382789c12d89b1e62fb34548",
      "transactionIndex": "0x73",
      "blockHash": "0xe73a5c7beb9c713b23e687b4ba28fc252587c7274c5747f68c94876f189ee163",
      "blockNumber": "0x731e34",
      "gasUsed": "0xfd3f",
      "effectiveGasPrice": "0x43ef325f",
      "from": "0xc77f7fed3b5cc8249adc428c5f44c9063b9734b4",
      "to": "0x8aafd3ede9adb0ff97c7aebce82a919afb1c8764",
      "contractAddress": null
    }
  ],
  "libraries": [],
  "pending": [],
  "returns": {},
  "timestamp": 1737516889,
  "chain": 11155111,
  "commit": "1d2fb70"
}