{
  "transactions": [
    {
      "hash": "0x54e58b1267859d07355eec87d04b2b771e98001f6b04949fac6922b7d13e00af",
      "transactionType": "CALL",
      "contractName": null,
      "contractAddress": "0xbf4a322f1496e5c3d34a9bcdb4c60567b38c7de2",
      "function": "buy(address)",
      "arguments": [
        "0xC77f7fed3b5Cc8249aDc428c5F44C9063B9734b4"
      ],
      "transaction": {
        "from": "0xc77f7fed3b5cc8249adc428c5f44c9063b9734b4",
        "to": "0xbf4a322f1496e5c3d34a9bcdb4c60567b38c7de2",
        "gas": "0x1b309",
        "value": "0xde0b6b3a7640000",
        "input": "0xf088d547000000000000000000000000c77f7fed3b5cc8249adc428c5f44c9063b9734b4",
        "nonce": "0x8f0",
        "chainId": "0xaa36a7"
      },
      "additionalContracts": [],
      "isFixedGasLimit": false
    }
  ],
  "receipts": [
    {
      "status": "0x1",
      "cumulativeGasUsed": "0xa47932",
      "logs": [
        {
          "address": "0xbf4a322f1496e5c3d34a9bcdb4c60567b38c7de2",
          "topics": [
            "0xddf252ad1be2c89b69c2b068fc378daa952ba7f163c4a11628f55a4df523b3ef",
            "0x0000000000000000000000000000000000000000000000000000000000000000",
            "0x000000000000000000000000c77f7fed3b5cc8249adc428c5f44c9063b9734b4"
          ],
          "data": "0x0000000000000000000000000000000000000000000000358eaeb4abfad613ad",
          "blockHash": "0xc6ec73145d58d9cbab7b778cee26451dc9872ec29d9f8c437bc1837b2bb7fdf1",
          "blockNumber": "0x725867",
          "transactionHash": "0x54e58b1267859d07355eec87d04b2b771e98001f6b04949fac6922b7d13e00af",
          "transactionIndex": "0x3b",
          "logIndex": "0x44",
          "removed": false
        },
        {
          "address": "0xbf4a322f1496e5c3d34a9bcdb4c60567b38c7de2",
          "topics": [
            "0xddf252ad1be2c89b69c2b068fc378daa952ba7f163c4a11628f55a4df523b3ef",
            "0x0000000000000000000000000000000000000000000000000000000000000000",
            "0x000000000000000000000000c77f7fed3b5cc8249adc428c5f44c9063b9734b4"
          ],
          "data": "0x0000000000000000000000000000000000000000000000002996d005bd6f73f9",
          "blockHash": "0xc6ec73145d58d9cbab7b778cee26451dc9872ec29d9f8c437bc1837b2bb7fdf1",
          "blockNumber": "0x725867",
          "transactionHash": "0x54e58b1267859d07355eec87d04b2b771e98001f6b04949fac6922b7d13e00af",
          "transactionIndex": "0x3b",
          "logIndex": "0x45",
          "removed": false
        },
        {
          "address": "0xbf4a322f1496e5c3d34a9bcdb4c60567b38c7de2",
          "topics": [
            "0x4afcb4a87cdbd9974efdb92ee48bc8d7cd0ae4bf217004db3d080cbaee652ca7"
          ],
          "data": "0x000000000000000000000000000000000000000000000000000000006787170000000000000000000000000000000000000000000000000000038f62054a06220000000000000000000000000000000000000000000000000de0b6b3a7640000",
          "blockHash": "0xc6ec73145d58d9cbab7b778cee26451dc9872ec29d9f8c437bc1837b2bb7fdf1",
          "blockNumber": "0x725867",
          "transactionHash": "0x54e58b1267859d07355eec87d04b2b771e98001f6b04949fac6922b7d13e00af",
          "transactionIndex": "0x3b",
          "logIndex": "0x46",
          "removed": false
        }
      ],
      "logsBloom": "0x00000000000000000000000000000000000000000000000000000000000000000000000000000000000000000000000000000000000000004000000000000000000000000000000000000008000000000000001000000000000000000000000000000000020000000000000000000800020000000000000000000010000000000000000000000000000000000000000000000000000008000000010000000000000000000000000000000000000000004000000000000000000000000000000000000002000000800000000000001000000000000000080000000000000020000000000000000000000000000000000000000000000000000000000000000000",
      "type": "0x2",
      "transactionHash": "0x54e58b1267859d07355eec87d04b2b771e98001f6b04949fac6922b7d13e00af",
      "transactionIndex": "0x3b",
      "blockHash": "0xc6ec73145d58d9cbab7b778cee26451dc9872ec29d9f8c437bc1837b2bb7fdf1",
      "blockNumber": "0x725867",
      "gasUsed": "0x13af6",
      "effectiveGasPrice": "0x279d29fe",
      "from": "0xc77f7fed3b5cc8249adc428c5f44c9063b9734b4",
      "to": "0xbf4a322f1496e5c3d34a9bcdb4c60567b38c7de2",
      "contractAddress": null
    }
  ],
  "libraries": [],
  "pending": [],
  "returns": {},
  "timestamp": 1736906497,
  "chain": 11155111,
  "commit": "51a374b"
}