{
  "transactions": [
    {
      "hash": "0xea2b073b9de4b82e2df73139ebb1535a9bbb7efeeb793c5e24c0f1d161ba0569",
      "transactionType": "CALL",
      "contractName": null,
      "contractAddress": "0x8aafd3ede9adb0ff97c7aebce82a919afb1c8764",
      "function": "buy(address)",
      "arguments": [
        "0xC77f7fed3b5Cc8249aDc428c5F44C9063B9734b4"
      ],
      "transaction": {
        "from": "0xc77f7fed3b5cc8249adc428c5f44c9063b9734b4",
        "to": "0x8aafd3ede9adb0ff97c7aebce82a919afb1c8764",
        "gas": "0x156ea",
        "value": "0xde0b6b3a7640000",
        "input": "0xf088d547000000000000000000000000c77f7fed3b5cc8249adc428c5f44c9063b9734b4",
        "nonce": "0x116c",
        "chainId": "0xaa36a7"
      },
      "additionalContracts": [],
      "isFixedGasLimit": false
    }
  ],
  "receipts": [
    {
      "status": "0x1",
      "cumulativeGasUsed": "0xc50d94",
      "logs": [
        {
          "address": "0x8aafd3ede9adb0ff97c7aebce82a919afb1c8764",
          "topics": [
            "0xddf252ad1be2c89b69c2b068fc378daa952ba7f163c4a11628f55a4df523b3ef",
            "0x0000000000000000000000000000000000000000000000000000000000000000",
            "0x000000000000000000000000c77f7fed3b5cc8249adc428c5f44c9063b9734b4"
          ],
          "data": "0x0000000000000000000000000000000000000000000000255ac9dc44a3e7fcc9",
          "blockHash": "0xa32ad67a004632b6a5a3f5936248447f57a35afddec0fc83d3af1420bb2aa26f",
          "blockNumber": "0x73182a",
          "transactionHash": "0xea2b073b9de4b82e2df73139ebb1535a9bbb7efeeb793c5e24c0f1d161ba0569",
          "transactionIndex": "0xa8",
          "logIndex": "0xc4",
          "removed": false
        },
        {
          "address": "0x8aafd3ede9adb0ff97c7aebce82a919afb1c8764",
          "topics": [
            "0xddf252ad1be2c89b69c2b068fc378daa952ba7f163c4a11628f55a4df523b3ef",
            "0x0000000000000000000000000000000000000000000000000000000000000000",
            "0x000000000000000000000000c77f7fed3b5cc8249adc428c5f44c9063b9734b4"
          ],
          "data": "0x0000000000000000000000000000000000000000000000001d01d4db28e676f0",
          "blockHash": "0xa32ad67a004632b6a5a3f5936248447f57a35afddec0fc83d3af1420bb2aa26f",
          "blockNumber": "0x73182a",
          "transactionHash": "0xea2b073b9de4b82e2df73139ebb1535a9bbb7efeeb793c5e24c0f1d161ba0569",
          "transactionIndex": "0xa8",
          "logIndex": "0xc5",
          "removed": false
        },
        {
          "address": "0x8aafd3ede9adb0ff97c7aebce82a919afb1c8764",
          "topics": [
            "0x4afcb4a87cdbd9974efdb92ee48bc8d7cd0ae4bf217004db3d080cbaee652ca7"
          ],
          "data": "0x0000000000000000000000000000000000000000000000000000000067901ebc00000000000000000000000000000000000000000000000000051b1861b3f6480000000000000000000000000000000000000000000000000de0b6b3a7640000",
          "blockHash": "0xa32ad67a004632b6a5a3f5936248447f57a35afddec0fc83d3af1420bb2aa26f",
          "blockNumber": "0x73182a",
          "transactionHash": "0xea2b073b9de4b82e2df73139ebb1535a9bbb7efeeb793c5e24c0f1d161ba0569",
          "transactionIndex": "0xa8",
          "logIndex": "0xc6",
          "removed": false
        }
      ],
      "logsBloom": "0x00000000000000000000000000000000000000000600000000000000000000000000000000000000000000000000000000000000000000004000000000000000000000000000004000000008000000000000000000000000000000000000000000000000020000000000000000000800020000000000000000000010000000000000000000000000000000000000000000000000000000000000010000000000000000000000000000000000000000004000000000000000000000000000000000000002000000800000000000000000000000000000080000000000000020000000000000000000000000000000000000000000000000000000000000000000",
      "type": "0x2",
      "transactionHash": "0xea2b073b9de4b82e2df73139ebb1535a9bbb7efeeb793c5e24c0f1d161ba0569",
      "transactionIndex": "0xa8",
      "blockHash": "0xa32ad67a004632b6a5a3f5936248447f57a35afddec0fc83d3af1420bb2aa26f",
      "blockNumber": "0x73182a",
      "gasUsed": "0xf844",
      "effectiveGasPrice": "0x3f46a6ed",
      "from": "0xc77f7fed3b5cc8249adc428c5f44c9063b9734b4",
      "to": "0x8aafd3ede9adb0ff97c7aebce82a919afb1c8764",
      "contractAddress": null
    }
  ],
  "libraries": [],
  "pending": [],
  "returns": {},
  "timestamp": 1737498302,
  "chain": 11155111,
  "commit": "1d2fb70"
}