{
  "transactions": [
    {
      "hash": "0x9e62a9071bdc0dc5fd75121b661d5b2ebbc4038bd53d909e56cefdf8a5ad8882",
      "transactionType": "CALL",
      "contractName": null,
      "contractAddress": "0x270e88f8683660553e8ba4eb2ad7c91a1710d769",
      "function": "sell(uint256)",
      "arguments": [
        "752573777911872397676"
      ],
      "transaction": {
        "from": "0xc77f7fed3b5cc8249adc428c5f44c9063b9734b4",
        "to": "0x270e88f8683660553e8ba4eb2ad7c91a1710d769",
        "gas": "0x16fec",
        "value": "0x0",
        "input": "0xe4849b32000000000000000000000000000000000000000000000028cc0f27b43edea16c",
        "nonce": "0x6b0",
        "chainId": "0xaa36a7"
      },
      "additionalContracts": [],
      "isFixedGasLimit": false
    }
  ],
  "receipts": [
    {
      "status": "0x1",
      "cumulativeGasUsed": "0x1f0b118",
      "logs": [
        {
          "address": "0x270e88f8683660553e8ba4eb2ad7c91a1710d769",
          "topics": [
            "0xddf252ad1be2c89b69c2b068fc378daa952ba7f163c4a11628f55a4df523b3ef",
            "0x000000000000000000000000c77f7fed3b5cc8249adc428c5f44c9063b9734b4",
            "0x0000000000000000000000000000000000000000000000000000000000000000"
          ],
          "data": "0x000000000000000000000000000000000000000000000028cc0f27b43edea16c",
          "blockHash": "0x61d92b4dd0c496fb03374f2c6ffcdb963b98c94663aada4b329ad72f205eb13a",
          "blockNumber": "0x7253b9",
          "transactionHash": "0x9e62a9071bdc0dc5fd75121b661d5b2ebbc4038bd53d909e56cefdf8a5ad8882",
          "transactionIndex": "0x64",
          "logIndex": "0x168",
          "removed": false
        },
        {
          "address": "0x270e88f8683660553e8ba4eb2ad7c91a1710d769",
          "topics": [
            "0x4afcb4a87cdbd9974efdb92ee48bc8d7cd0ae4bf217004db3d080cbaee652ca7"
          ],
          "data": "0x000000000000000000000000000000000000000000000000000000006786deb40000000000000000000000000000000000000000000000000004b0596c186f410000000000000000000000000000000000000000000000000dc829cd0a1862d1",
          "blockHash": "0x61d92b4dd0c496fb03374f2c6ffcdb963b98c94663aada4b329ad72f205eb13a",
          "blockNumber": "0x7253b9",
          "transactionHash": "0x9e62a9071bdc0dc5fd75121b661d5b2ebbc4038bd53d909e56cefdf8a5ad8882",
          "transactionIndex": "0x64",
          "logIndex": "0x169",
          "removed": false
        }
      ],
      "logsBloom": "0x00000000000000000000000000000000000000000000000000000000000000000000000000000000000000000000000020000000000000004000000000000000000000000000000000000008000000000000000000000000000000000000000000000000020000000000000000000800020000000000000000000010000000000000000000010000000000000000000000000000000000000000010000000000000000000000000000000000000000004000000000000000000000000000000000000002000000800000000000000000000000000000080000008000000020000000000000000000000000000000000000000000000000000000000000000000",
      "type": "0x2",
      "transactionHash": "0x9e62a9071bdc0dc5fd75121b661d5b2ebbc4038bd53d909e56cefdf8a5ad8882",
      "transactionIndex": "0x64",
      "blockHash": "0x61d92b4dd0c496fb03374f2c6ffcdb963b98c94663aada4b329ad72f205eb13a",
      "blockNumber": "0x7253b9",
      "gasUsed": "0xfb93",
      "effectiveGasPrice": "0x183f6463b",
      "from": "0xc77f7fed3b5cc8249adc428c5f44c9063b9734b4",
      "to": "0x270e88f8683660553e8ba4eb2ad7c91a1710d769",
      "contractAddress": null
    }
  ],
  "libraries": [],
  "pending": [],
  "returns": {},
  "timestamp": 1736892086,
  "chain": 11155111,
  "commit": "51a374b"
}