{
  "transactions": [
    {
      "hash": "0x96d71e6ef82adfcb540c79f0fc4129d65152ee60bc2884db5f1f25052c161af4",
      "transactionType": "CALL",
      "contractName": null,
      "contractAddress": "0x270e88f8683660553e8ba4eb2ad7c91a1710d769",
      "function": "buy(address)",
      "arguments": [
        "0xC77f7fed3b5Cc8249aDc428c5F44C9063B9734b4"
      ],
      "transaction": {
        "from": "0xc77f7fed3b5cc8249adc428c5f44c9063b9734b4",
        "to": "0x270e88f8683660553e8ba4eb2ad7c91a1710d769",
        "gas": "0x1b30c",
        "value": "0xde0b6b3a7640000",
        "input": "0xf088d547000000000000000000000000c77f7fed3b5cc8249adc428c5f44c9063b9734b4",
        "nonce": "0x775",
        "chainId": "0xaa36a7"
      },
      "additionalContracts": [],
      "isFixedGasLimit": false
    }
  ],
  "receipts": [
    {
      "status": "0x1",
      "cumulativeGasUsed": "0x70c2bc",
      "logs": [
        {
          "address": "0x270e88f8683660553e8ba4eb2ad7c91a1710d769",
          "topics": [
            "0xddf252ad1be2c89b69c2b068fc378daa952ba7f163c4a11628f55a4df523b3ef",
            "0x0000000000000000000000000000000000000000000000000000000000000000",
            "0x000000000000000000000000c77f7fed3b5cc8249adc428c5f44c9063b9734b4"
          ],
          "data": "0x000000000000000000000000000000000000000000000027b6c9567d7f395acb",
          "blockHash": "0x4b34fbc6eec90c5b699e5872e344ae951aa49ae9fdf8cb2d75bdbb87bf082dc6",
          "blockNumber": "0x7254a4",
          "transactionHash": "0x96d71e6ef82adfcb540c79f0fc4129d65152ee60bc2884db5f1f25052c161af4",
          "transactionIndex": "0x3f",
          "logIndex": "0x69",
          "removed": false
        },
        {
          "address": "0x270e88f8683660553e8ba4eb2ad7c91a1710d769",
          "topics": [
            "0xddf252ad1be2c89b69c2b068fc378daa952ba7f163c4a11628f55a4df523b3ef",
            "0x0000000000000000000000000000000000000000000000000000000000000000",
            "0x000000000000000000000000c77f7fed3b5cc8249adc428c5f44c9063b9734b4"
          ],
          "data": "0x0000000000000000000000000000000000000000000000001ed6db42b05d33e8",
          "blockHash": "0x4b34fbc6eec90c5b699e5872e344ae951aa49ae9fdf8cb2d75bdbb87bf082dc6",
          "blockNumber": "0x7254a4",
          "transactionHash": "0x96d71e6ef82adfcb540c79f0fc4129d65152ee60bc2884db5f1f25052c161af4",
          "transactionIndex": "0x3f",
          "logIndex": "0x6a",
          "removed": false
        },
        {
          "address": "0x270e88f8683660553e8ba4eb2ad7c91a1710d769",
          "topics": [
            "0x4afcb4a87cdbd9974efdb92ee48bc8d7cd0ae4bf217004db3d080cbaee652ca7"
          ],
          "data": "0x000000000000000000000000000000000000000000000000000000006786e9b80000000000000000000000000000000000000000000000000004cd2954c55f7e0000000000000000000000000000000000000000000000000de0b6b3a7640000",
          "blockHash": "0x4b34fbc6eec90c5b699e5872e344ae951aa49ae9fdf8cb2d75bdbb87bf082dc6",
          "blockNumber": "0x7254a4",
          "transactionHash": "0x96d71e6ef82adfcb540c79f0fc4129d65152ee60bc2884db5f1f25052c161af4",
          "transactionIndex": "0x3f",
          "logIndex": "0x6b",
          "removed": false
        }
      ],
      "logsBloom": "0x00000000000000000000000000000000000000000000000000000000000000000000000000000000000000000000000020000000000000004000000000000000000000000000000000000008000000000000000000000000000000000000000000000000020000000000000000000800020000000000000000000010000000000000000000010000000000000000000000000000000000000000010000000000000000000000000000000000000000004000000000000000000000000000000000000002000000800000000000000000000000000000080000008000000020000000000000000000000000000000000000000000000000000000000000000000",
      "type": "0x2",
      "transactionHash": "0x96d71e6ef82adfcb540c79f0fc4129d65152ee60bc2884db5f1f25052c161af4",
      "transactionIndex": "0x3f",
      "blockHash": "0x4b34fbc6eec90c5b699e5872e344ae951aa49ae9fdf8cb2d75bdbb87bf082dc6",
      "blockNumber": "0x7254a4",
      "gasUsed": "0x13af8",
      "effectiveGasPrice": "0x13b3c723a",
      "from": "0xc77f7fed3b5cc8249adc428c5f44c9063b9734b4",
      "to": "0x270e88f8683660553e8ba4eb2ad7c91a1710d769",
      "contractAddress": null
    }
  ],
  "libraries": [],
  "pending": [],
  "returns": {},
  "timestamp": 1736894905,
  "chain": 11155111,
  "commit": "51a374b"
}