{
  "transactions": [
    {
      "hash": "0x17af0f09f4be95a735126b1613fc8b3f5f0cdf63809028e18a884b7fa48571a0",
      "transactionType": "CALL",
      "contractName": null,
      "contractAddress": "0x8aafd3ede9adb0ff97c7aebce82a919afb1c8764",
      "function": "sell(uint256)",
      "arguments": [
        "24306744898"
      ],
      "transaction": {
        "from": "0xc77f7fed3b5cc8249adc428c5f44c9063b9734b4",
        "to": "0x8aafd3ede9adb0ff97c7aebce82a919afb1c8764",
        "gas": "0x1722a",
        "value": "0x0",
        "input": "0xe4849b3200000000000000000000000000000000000000000000000000000005a8cb7e42",
        "nonce": "0xf76",
        "chainId": "0xaa36a7"
      },
      "additionalContracts": [],
      "isFixedGasLimit": false
    }
  ],
  "receipts": [
    {
      "status": "0x1",
      "cumulativeGasUsed": "0x13f5e26",
      "logs": [
        {
          "address": "0x8aafd3ede9adb0ff97c7aebce82a919afb1c8764",
          "topics": [
            "0xddf252ad1be2c89b69c2b068fc378daa952ba7f163c4a11628f55a4df523b3ef",
            "0x000000000000000000000000c77f7fed3b5cc8249adc428c5f44c9063b9734b4",
            "0x0000000000000000000000000000000000000000000000000000000000000000"
          ],
          "data": "0x000000000000000000000000000000000000000000000000000000059d345c7b",
          "blockHash": "0x95878c78c0cb9eb9351b3440b2f47655cf9bdc64e5782f83a50a0ce2e2bcf2c2",
          "blockNumber": "0x7315d6",
          "transactionHash": "0x17af0f09f4be95a735126b1613fc8b3f5f0cdf63809028e18a884b7fa48571a0",
          "transactionIndex": "0x88",
          "logIndex": "0x102",
          "removed": false
        },
        {
          "address": "0x8aafd3ede9adb0ff97c7aebce82a919afb1c8764",
          "topics": [
            "0xddf252ad1be2c89b69c2b068fc378daa952ba7f163c4a11628f55a4df523b3ef",
            "0x000000000000000000000000c77f7fed3b5cc8249adc428c5f44c9063b9734b4",
            "0x000000000000000000000000c77f7fed3b5cc8249adc428c5f44c9063b9734b4"
          ],
          "data": "0x000000000000000000000000000000000000000000000000000000000b9721c7",
          "blockHash": "0x95878c78c0cb9eb9351b3440b2f47655cf9bdc64e5782f83a50a0ce2e2bcf2c2",
          "blockNumber": "0x7315d6",
          "transactionHash": "0x17af0f09f4be95a735126b1613fc8b3f5f0cdf63809028e18a884b7fa48571a0",
          "transactionIndex": "0x88",
          "logIndex": "0x103",
          "removed": false
        },
        {
          "address": "0x8aafd3ede9adb0ff97c7aebce82a919afb1c8764",
          "topics": [
            "0x4afcb4a87cdbd9974efdb92ee48bc8d7cd0ae4bf217004db3d080cbaee652ca7"
          ],
          "data": "0x00000000000000000000000000000000000000000000000000000000679002b40000000000000000000000000000000000000000000000000004c1d7760827640000000000000000000000000000000000000000000000000000000001f0a29e",
          "blockHash": "0x95878c78c0cb9eb9351b3440b2f47655cf9bdc64e5782f83a50a0ce2e2bcf2c2",
          "blockNumber": "0x7315d6",
          "transactionHash": "0x17af0f09f4be95a735126b1613fc8b3f5f0cdf63809028e18a884b7fa48571a0",
          "transactionIndex": "0x88",
          "logIndex": "0x104",
          "removed": false
        }
      ],
      "logsBloom": "0x00000000000000000000000000000000000000000600000000000000000000000000000000000000000000000000000000000000000000004000000000000000000000000000004000000008000000000000000000000000000000000000000000000000020000000000000000000800020000000000000000000010000000000000000000000000000000000000000000000000000000000000010000000000000000000000000000000000000000004000000000000000000000000000000000000002000000800000000000000000000000000000080000000000000020000000000000000000000000000000000000000000000000000000000000000000",
      "type": "0x2",
      "transactionHash": "0x17af0f09f4be95a735126b1613fc8b3f5f0cdf63809028e18a884b7fa48571a0",
      "transactionIndex": "0x88",
      "blockHash": "0x95878c78c0cb9eb9351b3440b2f47655cf9bdc64e5782f83a50a0ce2e2bcf2c2",
      "blockNumber": "0x7315d6",
      "gasUsed": "0xfd1b",
      "effectiveGasPrice": "0x72c5335d",
      "from": "0xc77f7fed3b5cc8249adc428c5f44c9063b9734b4",
      "to": "0x8aafd3ede9adb0ff97c7aebce82a919afb1c8764",
      "contractAddress": null
    }
  ],
  "libraries": [],
  "pending": [],
  "returns": {},
  "timestamp": 1737491128,
  "chain": 11155111,
  "commit": "1d2fb70"
}