{
  "transactions": [
    {
      "hash": "0x779749bce2d7c73eada1a3e02952ac6d56fdeb439826b2077d458cf7344b65a7",
      "transactionType": "CALL",
      "contractName": null,
      "contractAddress": "0x8aafd3ede9adb0ff97c7aebce82a919afb1c8764",
      "function": "sell(uint256)",
      "arguments": [
        "5926283186061736682"
      ],
      "transaction": {
        "from": "0xc77f7fed3b5cc8249adc428c5f44c9063b9734b4",
        "to": "0x8aafd3ede9adb0ff97c7aebce82a919afb1c8764",
        "gas": "0x15dca",
        "value": "0x0",
        "input": "0xe4849b32000000000000000000000000000000000000000000000000523e6328af947aea",
        "nonce": "0xfa4",
        "chainId": "0xaa36a7"
      },
      "additionalContracts": [],
      "isFixedGasLimit": false
    }
  ],
  "receipts": [
    {
      "status": "0x1",
      "cumulativeGasUsed": "0x93a1e0",
      "logs": [
        {
          "address": "0x8aafd3ede9adb0ff97c7aebce82a919afb1c8764",
          "topics": [
            "0xddf252ad1be2c89b69c2b068fc378daa952ba7f163c4a11628f55a4df523b3ef",
            "0x000000000000000000000000c77f7fed3b5cc8249adc428c5f44c9063b9734b4",
            "0x0000000000000000000000000000000000000000000000000000000000000000"
          ],
          "data": "0x0000000000000000000000000000000000000000000000005195f3c60e6e6da5",
          "blockHash": "0x78ceb6eeba8ac1adc52a740dcf1b62f743cdb43ca7e9ddffbfe7d7dd232c9135",
          "blockNumber": "0x73160c",
          "transactionHash": "0x779749bce2d7c73eada1a3e02952ac6d56fdeb439826b2077d458cf7344b65a7",
          "transactionIndex": "0x85",
          "logIndex": "0x95",
          "removed": false
        },
        {
          "address": "0x8aafd3ede9adb0ff97c7aebce82a919afb1c8764",
          "topics": [
            "0xddf252ad1be2c89b69c2b068fc378daa952ba7f163c4a11628f55a4df523b3ef",
            "0x000000000000000000000000c77f7fed3b5cc8249adc428c5f44c9063b9734b4",
            "0x000000000000000000000000c77f7fed3b5cc8249adc428c5f44c9063b9734b4"
          ],
          "data": "0x00000000000000000000000000000000000000000000000000a86f62a1260d45",
          "blockHash": "0x78ceb6eeba8ac1adc52a740dcf1b62f743cdb43ca7e9ddffbfe7d7dd232c9135",
          "blockNumber": "0x73160c",
          "transactionHash": "0x779749bce2d7c73eada1a3e02952ac6d56fdeb439826b2077d458cf7344b65a7",
          "transactionIndex": "0x85",
          "logIndex": "0x96",
          "removed": false
        },
        {
          "address": "0x8aafd3ede9adb0ff97c7aebce82a919afb1c8764",
          "topics": [
            "0x4afcb4a87cdbd9974efdb92ee48bc8d7cd0ae4bf217004db3d080cbaee652ca7"
          ],
          "data": "0x000000000000000000000000000000000000000000000000000000006790053c0000000000000000000000000000000000000000000000000004c37b30b1361d000000000000000000000000000000000000000000000000001c3afae38039cc",
          "blockHash": "0x78ceb6eeba8ac1adc52a740dcf1b62f743cdb43ca7e9ddffbfe7d7dd232c9135",
          "blockNumber": "0x73160c",
          "transactionHash": "0x779749bce2d7c73eada1a3e02952ac6d56fdeb439826b2077d458cf7344b65a7",
          "transactionIndex": "0x85",
          "logIndex": "0x97",
          "removed": false
        }
      ],
      "logsBloom": "0x00000000000000000000000000000000000000000600000000000000000000000000000000000000000000000000000000000000000000004000000000000000000000000000004000000008000000000000000000000000000000000000000000000000020000000000000000000800020000000000000000000010000000000000000000000000000000000000000000000000000000000000010000000000000000000000000000000000000000004000000000000000000000000000000000000002000000800000000000000000000000000000080000000000000020000000000000000000000000000000000000000000000000000000000000000000",
      "type": "0x2",
      "transactionHash": "0x779749bce2d7c73eada1a3e02952ac6d56fdeb439826b2077d458cf7344b65a7",
      "transactionIndex": "0x85",
      "blockHash": "0x78ceb6eeba8ac1adc52a740dcf1b62f743cdb43ca7e9ddffbfe7d7dd232c9135",
      "blockNumber": "0x73160c",
      "gasUsed": "0xfd3f",
      "effectiveGasPrice": "0x5bd23594",
      "from": "0xc77f7fed3b5cc8249adc428c5f44c9063b9734b4",
      "to": "0x8aafd3ede9adb0ff97c7aebce82a919afb1c8764",
      "contractAddress": null
    }
  ],
  "libraries": [],
  "pending": [],
  "returns": {},
  "timestamp": 1737491773,
  "chain": 11155111,
  "commit": "1d2fb70"
}