{
  "transactions": [
    {
      "hash": "0xc941dc4631b21884f3b867923d9804661845994b2f2811d521eeab5451bd6ce3",
      "transactionType": "CALL",
      "contractName": null,
      "contractAddress": "0x8aafd3ede9adb0ff97c7aebce82a919afb1c8764",
      "function": "sell(uint256)",
      "arguments": [
        "739591822974689604961"
      ],
      "transaction": {
        "from": "0xc77f7fed3b5cc8249adc428c5f44c9063b9734b4",
        "to": "0x8aafd3ede9adb0ff97c7aebce82a919afb1c8764",
        "gas": "0x17270",
        "value": "0x0",
        "input": "0xe4849b3200000000000000000000000000000000000000000000002817e5fc7855f5f561",
        "nonce": "0xfdf",
        "chainId": "0xaa36a7"
      },
      "additionalContracts": [],
      "isFixedGasLimit": false
    }
  ],
  "receipts": [
    {
      "status": "0x1",
      "cumulativeGasUsed": "0xe57ce7",
      "logs": [
        {
          "address": "0x8aafd3ede9adb0ff97c7aebce82a919afb1c8764",
          "topics": [
            "0xddf252ad1be2c89b69c2b068fc378daa952ba7f163c4a11628f55a4df523b3ef",
            "0x000000000000000000000000c77f7fed3b5cc8249adc428c5f44c9063b9734b4",
            "0x0000000000000000000000000000000000000000000000000000000000000000"
          ],
          "data": "0x000000000000000000000000000000000000000000000027c5c985b6dc70eb3a",
          "blockHash": "0x0acfcdde832dcf429f9316c43c5e4eef4a5f4b4b55e228b0331329bfcf3460e9",
          "blockNumber": "0x731651",
          "transactionHash": "0xc941dc4631b21884f3b867923d9804661845994b2f2811d521eeab5451bd6ce3",
          "transactionIndex": "0x8d",
          "logIndex": "0xa1",
          "removed": false
        },
        {
          "address": "0x8aafd3ede9adb0ff97c7aebce82a919afb1c8764",
          "topics": [
            "0xddf252ad1be2c89b69c2b068fc378daa952ba7f163c4a11628f55a4df523b3ef",
            "0x000000000000000000000000c77f7fed3b5cc8249adc428c5f44c9063b9734b4",
            "0x000000000000000000000000c77f7fed3b5cc8249adc428c5f44c9063b9734b4"
          ],
          "data": "0x000000000000000000000000000000000000000000000000521c76c179850a27",
          "blockHash": "0x0acfcdde832dcf429f9316c43c5e4eef4a5f4b4b55e228b0331329bfcf3460e9",
          "blockNumber": "0x731651",
          "transactionHash": "0xc941dc4631b21884f3b867923d9804661845994b2f2811d521eeab5451bd6ce3",
          "transactionIndex": "0x8d",
          "logIndex": "0xa2",
          "removed": false
        },
        {
          "address": "0x8aafd3ede9adb0ff97c7aebce82a919afb1c8764",
          "topics": [
            "0x4afcb4a87cdbd9974efdb92ee48bc8d7cd0ae4bf217004db3d080cbaee652ca7"
          ],
          "data": "0x00000000000000000000000000000000000000000000000000000000679008780000000000000000000000000000000000000000000000000004c57265fd64f60000000000000000000000000000000000000000000000000dc82114e92fbfe9",
          "blockHash": "0x0acfcdde832dcf429f9316c43c5e4eef4a5f4b4b55e228b0331329bfcf3460e9",
          "blockNumber": "0x731651",
          "transactionHash": "0xc941dc4631b21884f3b867923d9804661845994b2f2811d521eeab5451bd6ce3",
          "transactionIndex": "0x8d",
          "logIndex": "0xa3",
          "removed": false
        }
      ],
      "logsBloom": "0x00000000000000000000000000000000000000000600000000000000000000000000000000000000000000000000000000000000000000004000000000000000000000000000004000000008000000000000000000000000000000000000000000000000020000000000000000000800020000000000000000000010000000000000000000000000000000000000000000000000000000000000010000000000000000000000000000000000000000004000000000000000000000000000000000000002000000800000000000000000000000000000080000000000000020000000000000000000000000000000000000000000000000000000000000000000",
      "type": "0x2",
      "transactionHash": "0xc941dc4631b21884f3b867923d9804661845994b2f2811d521eeab5451bd6ce3",
      "transactionIndex": "0x8d",
      "blockHash": "0x0acfcdde832dcf429f9316c43c5e4eef4a5f4b4b55e228b0331329bfcf3460e9",
      "blockNumber": "0x731651",
      "gasUsed": "0xfd4b",
      "effectiveGasPrice": "0x50b0249c",
      "from": "0xc77f7fed3b5cc8249adc428c5f44c9063b9734b4",
      "to": "0x8aafd3ede9adb0ff97c7aebce82a919afb1c8764",
      "contractAddress": null
    }
  ],
  "libraries": [],
  "pending": [],
  "returns": {},
  "timestamp": 1737492601,
  "chain": 11155111,
  "commit": "1d2fb70"
}