{
  "transactions": [
    {
      "hash": "0x6bcd75bd597e2da49cc855a02a5aa61d258fe3de47228493768eefcd64a5407c",
      "transactionType": "CALL",
      "contractName": null,
      "contractAddress": "0x270e88f8683660553e8ba4eb2ad7c91a1710d769",
      "function": "buy(address)",
      "arguments": [
        "0xC77f7fed3b5Cc8249aDc428c5F44C9063B9734b4"
      ],
      "transaction": {
        "from": "0xc77f7fed3b5cc8249adc428c5f44c9063b9734b4",
        "to": "0x270e88f8683660553e8ba4eb2ad7c91a1710d769",
        "gas": "0x1b30c",
        "value": "0xde0b6b3a7640000",
        "input": "0xf088d547000000000000000000000000c77f7fed3b5cc8249adc428c5f44c9063b9734b4",
        "nonce": "0x793",
        "chainId": "0xaa36a7"
      },
      "additionalContracts": [],
      "isFixedGasLimit": false
    }
  ],
  "receipts": [
    {
      "status": "0x1",
      "cumulativeGasUsed": "0x1749c29",
      "logs": [
        {
          "address": "0x270e88f8683660553e8ba4eb2ad7c91a1710d769",
          "topics": [
            "0xddf252ad1be2c89b69c2b068fc378daa952ba7f163c4a11628f55a4df523b3ef",
            "0x0000000000000000000000000000000000000000000000000000000000000000",
            "0x000000000000000000000000c77f7fed3b5cc8249adc428c5f44c9063b9734b4"
          ],
          "data": "0x000000000000000000000000000000000000000000000027929113b1ece7db7a",
          "blockHash": "0x0a60fcaa4521588743fc473d241ee791b5e32afae423efafe003d97a73e31709",
          "blockNumber": "0x7254c6",
          "transactionHash": "0x6bcd75bd597e2da49cc855a02a5aa61d258fe3de47228493768eefcd64a5407c",
          "transactionIndex": "0x49",
          "logIndex": "0x7e",
          "removed": false
        },
        {
          "address": "0x270e88f8683660553e8ba4eb2ad7c91a1710d769",
          "topics": [
            "0xddf252ad1be2c89b69c2b068fc378daa952ba7f163c4a11628f55a4df523b3ef",
            "0x0000000000000000000000000000000000000000000000000000000000000000",
            "0x000000000000000000000000c77f7fed3b5cc8249adc428c5f44c9063b9734b4"
          ],
          "data": "0x0000000000000000000000000000000000000000000000001ebabb089b9f23b9",
          "blockHash": "0x0a60fcaa4521588743fc473d241ee791b5e32afae423efafe003d97a73e31709",
          "blockNumber": "0x7254c6",
          "transactionHash": "0x6bcd75bd597e2da49cc855a02a5aa61d258fe3de47228493768eefcd64a5407c",
          "transactionIndex": "0x49",
          "logIndex": "0x7f",
          "removed": false
        },
        {
          "address": "0x270e88f8683660553e8ba4eb2ad7c91a1710d769",
          "topics": [
            "0x4afcb4a87cdbd9974efdb92ee48bc8d7cd0ae4bf217004db3d080cbaee652ca7"
          ],
          "data": "0x000000000000000000000000000000000000000000000000000000006786eb500000000000000000000000000000000000000000000000000004d18e42073cc40000000000000000000000000000000000000000000000000de0b6b3a7640000",
          "blockHash": "0x0a60fcaa4521588743fc473d241ee791b5e32afae423efafe003d97a73e31709",
          "blockNumber": "0x7254c6",
          "transactionHash": "0x6bcd75bd597e2da49cc855a02a5aa61d258fe3de47228493768eefcd64a5407c",
          "transactionIndex": "0x49",
          "logIndex": "0x80",
          "removed": false
        }
      ],
      "logsBloom": "0x00000000000000000000000000000000000000000000000000000000000000000000000000000000000000000000000020000000000000004000000000000000000000000000000000000008000000000000000000000000000000000000000000000000020000000000000000000800020000000000000000000010000000000000000000010000000000000000000000000000000000000000010000000000000000000000000000000000000000004000000000000000000000000000000000000002000000800000000000000000000000000000080000008000000020000000000000000000000000000000000000000000000000000000000000000000",
      "type": "0x2",
      "transactionHash": "0x6bcd75bd597e2da49cc855a02a5aa61d258fe3de47228493768eefcd64a5407c",
      "transactionIndex": "0x49",
      "blockHash": "0x0a60fcaa4521588743fc473d241ee791b5e32afae423efafe003d97a73e31709",
      "blockNumber": "0x7254c6",
      "gasUsed": "0x13af8",
      "effectiveGasPrice": "0xf61cbaad",
      "from": "0xc77f7fed3b5cc8249adc428c5f44c9063b9734b4",
      "to": "0x270e88f8683660553e8ba4eb2ad7c91a1710d769",
      "contractAddress": null
    }
  ],
  "libraries": [],
  "pending": [],
  "returns": {},
  "timestamp": 1736895313,
  "chain": 11155111,
  "commit": "51a374b"
}