{
  "transactions": [
    {
      "hash": "0x1456cb45c4cd8119e9ac8e2045c4f7c9640344b7be5f983b5b41a7153d445c4a",
      "transactionType": "CALL",
      "contractName": null,
      "contractAddress": "0x270e88f8683660553e8ba4eb2ad7c91a1710d769",
      "function": "sell(uint256)",
      "arguments": [
        "1825750425909521718848"
      ],
      "transaction": {
        "from": "0xc77f7fed3b5cc8249adc428c5f44c9063b9734b4",
        "to": "0x270e88f8683660553e8ba4eb2ad7c91a1710d769",
        "gas": "0x16fec",
        "value": "0x0",
        "input": "0xe4849b32000000000000000000000000000000000000000000000062f960831fd72e9e40",
        "nonce": "0x639",
        "chainId": "0xaa36a7"
      },
      "additionalContracts": [],
      "isFixedGasLimit": false
    }
  ],
  "receipts": [
    {
      "status": "0x1",
      "cumulativeGasUsed": "0xd22460",
      "logs": [
        {
          "address": "0x270e88f8683660553e8ba4eb2ad7c91a1710d769",
          "topics": [
            "0xddf252ad1be2c89b69c2b068fc378daa952ba7f163c4a11628f55a4df523b3ef",
            "0x000000000000000000000000c77f7fed3b5cc8249adc428c5f44c9063b9734b4",
            "0x0000000000000000000000000000000000000000000000000000000000000000"
          ],
          "data": "0x000000000000000000000000000000000000000000000062f960831fd72e9e40",
          "blockHash": "0x4cc2b33b89a045cbc39158349492c4100a6f9b486a989915c5e37a11c73ce457",
          "blockNumber": "0x725321",
          "transactionHash": "0x1456cb45c4cd8119e9ac8e2045c4f7c9640344b7be5f983b5b41a7153d445c4a",
          "transactionIndex": "0x4e",
          "logIndex": "0x6f",
          "removed": false
        },
        {
          "address": "0x270e88f8683660553e8ba4eb2ad7c91a1710d769",
          "topics": [
            "0x4afcb4a87cdbd9974efdb92ee48bc8d7cd0ae4bf217004db3d080cbaee652ca7"
          ],
          "data": "0x000000000000000000000000000000000000000000000000000000006786d794000000000000000000000000000000000000000000000000000446dbf610a4b10000000000000000000000000000000000000000000000001e8027749f5a7fff",
          "blockHash": "0x4cc2b33b89a045cbc39158349492c4100a6f9b486a989915c5e37a11c73ce457",
          "blockNumber": "0x725321",
          "transactionHash": "0x1456cb45c4cd8119e9ac8e2045c4f7c9640344b7be5f983b5b41a7153d445c4a",
          "transactionIndex": "0x4e",
          "logIndex": "0x70",
          "removed": false
        }
      ],
      "logsBloom": "0x00000000000000000000000000000000000000000000000000000000000000000000000000000000000000000000000020000000000000004000000000000000000000000000000000000008000000000000000000000000000000000000000000000000020000000000000000000800020000000000000000000010000000000000000000010000000000000000000000000000000000000000010000000000000000000000000000000000000000004000000000000000000000000000000000000002000000800000000000000000000000000000080000008000000020000000000000000000000000000000000000000000000000000000000000000000",
      "type": "0x2",
      "transactionHash": "0x1456cb45c4cd8119e9ac8e2045c4f7c9640344b7be5f983b5b41a7153d445c4a",
      "transactionIndex": "0x4e",
      "blockHash": "0x4cc2b33b89a045cbc39158349492c4100a6f9b486a989915c5e37a11c73ce457",
      "blockNumber": "0x725321",
      "gasUsed": "0xfb93",
      "effectiveGasPrice": "0x20206fb4b",
      "from": "0xc77f7fed3b5cc8249adc428c5f44c9063b9734b4",
      "to": "0x270e88f8683660553e8ba4eb2ad7c91a1710d769",
      "contractAddress": null
    }
  ],
  "libraries": [],
  "pending": [],
  "returns": {},
  "timestamp": 1736890262,
  "chain": 11155111,
  "commit": "51a374b"
}