{
  "transactions": [
    {
      "hash": "0x02a7299939a740df633bcca4f8eb9afccc46b3e645351c979a480df318385791",
      "transactionType": "CALL",
      "contractName": null,
      "contractAddress": "0x270e88f8683660553e8ba4eb2ad7c91a1710d769",
      "function": "buy(address)",
      "arguments": [
        "0xC77f7fed3b5Cc8249aDc428c5F44C9063B9734b4"
      ],
      "transaction": {
        "from": "0xc77f7fed3b5cc8249adc428c5f44c9063b9734b4",
        "to": "0x270e88f8683660553e8ba4eb2ad7c91a1710d769",
        "gas": "0x1b30c",
        "value": "0xde0b6b3a7640000",
        "input": "0xf088d547000000000000000000000000c77f7fed3b5cc8249adc428c5f44c9063b9734b4",
        "nonce": "0x831",
        "chainId": "0xaa36a7"
      },
      "additionalContracts": [],
      "isFixedGasLimit": false
    }
  ],
  "receipts": [
    {
      "status": "0x1",
      "cumulativeGasUsed": "0x1ba082d",
      "logs": [
        {
          "address": "0x270e88f8683660553e8ba4eb2ad7c91a1710d769",
          "topics": [
            "0xddf252ad1be2c89b69c2b068fc378daa952ba7f163c4a11628f55a4df523b3ef",
            "0x0000000000000000000000000000000000000000000000000000000000000000",
            "0x000000000000000000000000c77f7fed3b5cc8249adc428c5f44c9063b9734b4"
          ],
          "data": "0x000000000000000000000000000000000000000000000026d7fb1e2e1950a119",
          "blockHash": "0x6080a7024dd3155bea12e43427d51f6ef12d0f5298ba3beb5d3b491cdce00f6e",
          "blockNumber": "0x72557b",
          "transactionHash": "0x02a7299939a740df633bcca4f8eb9afccc46b3e645351c979a480df318385791",
          "transactionIndex": "0x6e",
          "logIndex": "0x1ea",
          "removed": false
        },
        {
          "address": "0x270e88f8683660553e8ba4eb2ad7c91a1710d769",
          "topics": [
            "0xddf252ad1be2c89b69c2b068fc378daa952ba7f163c4a11628f55a4df523b3ef",
            "0x0000000000000000000000000000000000000000000000000000000000000000",
            "0x000000000000000000000000c77f7fed3b5cc8249adc428c5f44c9063b9734b4"
          ],
          "data": "0x0000000000000000000000000000000000000000000000001e29d7231b6f2039",
          "blockHash": "0x6080a7024dd3155bea12e43427d51f6ef12d0f5298ba3beb5d3b491cdce00f6e",
          "blockNumber": "0x72557b",
          "transactionHash": "0x02a7299939a740df633bcca4f8eb9afccc46b3e645351c979a480df318385791",
          "transactionIndex": "0x6e",
          "logIndex": "0x1eb",
          "removed": false
        },
        {
          "address": "0x270e88f8683660553e8ba4eb2ad7c91a1710d769",
          "topics": [
            "0x4afcb4a87cdbd9974efdb92ee48bc8d7cd0ae4bf217004db3d080cbaee652ca7"
          ],
          "data": "0x000000000000000000000000000000000000000000000000000000006786f3cc0000000000000000000000000000000000000000000000000004e8b326afd6130000000000000000000000000000000000000000000000000de0b6b3a7640000",
          "blockHash": "0x6080a7024dd3155bea12e43427d51f6ef12d0f5298ba3beb5d3b491cdce00f6e",
          "blockNumber": "0x72557b",
          "transactionHash": "0x02a7299939a740df633bcca4f8eb9afccc46b3e645351c979a480df318385791",
          "transactionIndex": "0x6e",
          "logIndex": "0x1ec",
          "removed": false
        }
      ],
      "logsBloom": "0x00000000000000000000000000000000000000000000000000000000000000000000000000000000000000000000000020000000000000004000000000000000000000000000000000000008000000000000000000000000000000000000000000000000020000000000000000000800020000000000000000000010000000000000000000010000000000000000000000000000000000000000010000000000000000000000000000000000000000004000000000000000000000000000000000000002000000800000000000000000000000000000080000008000000020000000000000000000000000000000000000000000000000000000000000000000",
      "type": "0x2",
      "transactionHash": "0x02a7299939a740df633bcca4f8eb9afccc46b3e645351c979a480df318385791",
      "transactionIndex": "0x6e",
      "blockHash": "0x6080a7024dd3155bea12e43427d51f6ef12d0f5298ba3beb5d3b491cdce00f6e",
      "blockNumber": "0x72557b",
      "gasUsed": "0x13af8",
      "effectiveGasPrice": "0x73e05c9e",
      "from": "0xc77f7fed3b5cc8249adc428c5f44c9063b9734b4",
      "to": "0x270e88f8683660553e8ba4eb2ad7c91a1710d769",
      "contractAddress": null
    }
  ],
  "libraries": [],
  "pending": [],
  "returns": {},
  "timestamp": 1736897485,
  "chain": 11155111,
  "commit": "51a374b"
}