{
  "transactions": [
    {
      "hash": "0xdc021f19fa4643358ca6173b0acb00f313c6662b7ec2cb38f3814d1ec48ef4a0",
      "transactionType": "CALL",
      "contractName": null,
      "contractAddress": "0x8aafd3ede9adb0ff97c7aebce82a919afb1c8764",
      "function": "sell(uint256)",
      "arguments": [
        "739989254494787940072"
      ],
      "transaction": {
        "from": "0xc77f7fed3b5cc8249adc428c5f44c9063b9734b4",
        "to": "0x8aafd3ede9adb0ff97c7aebce82a919afb1c8764",
        "gas": "0x17270",
        "value": "0x0",
        "input": "0xe4849b320000000000000000000000000000000000000000000000281d69f254f7f72ee8",
        "nonce": "0xfcb",
        "chainId": "0xaa36a7"
      },
      "additionalContracts": [],
      "isFixedGasLimit": false
    }
  ],
  "receipts": [
    {
      "status": "0x1",
      "cumulativeGasUsed": "0xef746e",
      "logs": [
        {
          "address": "0x8aafd3ede9adb0ff97c7aebce82a919afb1c8764",
          "topics": [
            "0xddf252ad1be2c89b69c2b068fc378daa952ba7f163c4a11628f55a4df523b3ef",
            "0x000000000000000000000000c77f7fed3b5cc8249adc428c5f44c9063b9734b4",
            "0x0000000000000000000000000000000000000000000000000000000000000000"
          ],
          "data": "0x000000000000000000000000000000000000000000000027cb422fe199d263c8",
          "blockHash": "0xaaae112c6caa908ae5eccf175c9a364e5956f6e163eb9cb35ddd729df6b8228a",
          "blockNumber": "0x731638",
          "transactionHash": "0xdc021f19fa4643358ca6173b0acb00f313c6662b7ec2cb38f3814d1ec48ef4a0",
          "transactionIndex": "0x81",
          "logIndex": "0x9f",
          "removed": false
        },
        {
          "address": "0x8aafd3ede9adb0ff97c7aebce82a919afb1c8764",
          "topics": [
            "0xddf252ad1be2c89b69c2b068fc378daa952ba7f163c4a11628f55a4df523b3ef",
            "0x000000000000000000000000c77f7fed3b5cc8249adc428c5f44c9063b9734b4",
            "0x000000000000000000000000c77f7fed3b5cc8249adc428c5f44c9063b9734b4"
          ],
          "data": "0x0000000000000000000000000000000000000000000000005227c2735e24cb20",
          "blockHash": "0xaaae112c6caa908ae5eccf175c9a364e5956f6e163eb9cb35ddd729df6b8228a",
          "blockNumber": "0x731638",
          "transactionHash": "0xdc021f19fa4643358ca6173b0acb00f313c6662b7ec2cb38f3814d1ec48ef4a0",
          "transactionIndex": "0x81",
          "logIndex": "0xa0",
          "removed": false
        },
        {
          "address": "0x8aafd3ede9adb0ff97c7aebce82a919afb1c8764",
          "topics": [
            "0x4afcb4a87cdbd9974efdb92ee48bc8d7cd0ae4bf217004db3d080cbaee652ca7"
          ],
          "data": "0x000000000000000000000000000000000000000000000000000000006790074c0000000000000000000000000000000000000000000000000004c4ca810eb56b0000000000000000000000000000000000000000000000000dc8211e7313ab91",
          "blockHash": "0xaaae112c6caa908ae5eccf175c9a364e5956f6e163eb9cb35ddd729df6b8228a",
          "blockNumber": "0x731638",
          "transactionHash": "0xdc021f19fa4643358ca6173b0acb00f313c6662b7ec2cb38f3814d1ec48ef4a0",
          "transactionIndex": "0x81",
          "logIndex": "0xa1",
          "removed": false
        }
      ],
      "logsBloom": "0x00000000000000000000000000000000000000000600000000000000000000000000000000000000000000000000000000000000000000004000000000000000000000000000004000000008000000000000000000000000000000000000000000000000020000000000000000000800020000000000000000000010000000000000000000000000000000000000000000000000000000000000010000000000000000000000000000000000000000004000000000000000000000000000000000000002000000800000000000000000000000000000080000000000000020000000000000000000000000000000000000000000000000000000000000000000",
      "type": "0x2",
      "transactionHash": "0xdc021f19fa4643358ca6173b0acb00f313c6662b7ec2cb38f3814d1ec48ef4a0",
      "transactionIndex": "0x81",
      "blockHash": "0xaaae112c6caa908ae5eccf175c9a364e5956f6e163eb9cb35ddd729df6b8228a",
      "blockNumber": "0x731638",
      "gasUsed": "0xfd4b",
      "effectiveGasPrice": "0x52a16086",
      "from": "0xc77f7fed3b5cc8249adc428c5f44c9063b9734b4",
      "to": "0x8aafd3ede9adb0ff97c7aebce82a919afb1c8764",
      "contractAddress": null
    }
  ],
  "libraries": [],
  "pending": [],
  "returns": {},
  "timestamp": 1737492301,
  "chain": 11155111,
  "commit": "1d2fb70"
}