{
  "transactions": [
    {
      "hash": "0x0afb86aa6612387a705c3f5030168f0baccde4747851e9da64e94465acadb720",
      "transactionType": "CALL",
      "contractName": null,
      "contractAddress": "0x8aafd3ede9adb0ff97c7aebce82a919afb1c8764",
      "function": "sell(uint256)",
      "arguments": [
        "180182247"
      ],
      "transaction": {
        "from": "0xc77f7fed3b5cc8249adc428c5f44c9063b9734b4",
        "to": "0x8aafd3ede9adb0ff97c7aebce82a919afb1c8764",
        "gas": "0x14e6c",
        "value": "0x0",
        "input": "0xe4849b32000000000000000000000000000000000000000000000000000000000abd5ce7",
        "nonce": "0x11a5",
        "chainId": "0xaa36a7"
      },
      "additionalContracts": [],
      "isFixedGasLimit": false
    }
  ],
  "receipts": [
    {
      "status": "0x1",
      "cumulativeGasUsed": "0x9a977d",
      "logs": [
        {
          "address": "0x8aafd3ede9adb0ff97c7aebce82a919afb1c8764",
          "topics": [
            "0xddf252ad1be2c89b69c2b068fc378daa952ba7f163c4a11628f55a4df523b3ef",
            "0x000000000000000000000000c77f7fed3b5cc8249adc428c5f44c9063b9734b4",
            "0x0000000000000000000000000000000000000000000000000000000000000000"
          ],
          "data": "0x000000000000000000000000000000000000000000000000000000000aa75e36",
          "blockHash": "0x69236ce8e097d0d72efa8a68f2ad81ba373a0de6845fbca86f07e153ea2eb210",
          "blockNumber": "0x73186f",
          "transactionHash": "0x0afb86aa6612387a705c3f5030168f0baccde4747851e9da64e94465acadb720",
          "transactionIndex": "0x83",
          "logIndex": "0x94",
          "removed": false
        },
        {
          "address": "0x8aafd3ede9adb0ff97c7aebce82a919afb1c8764",
          "topics": [
            "0xddf252ad1be2c89b69c2b068fc378daa952ba7f163c4a11628f55a4df523b3ef",
            "0x000000000000000000000000c77f7fed3b5cc8249adc428c5f44c9063b9734b4",
            "0x000000000000000000000000c77f7fed3b5cc8249adc428c5f44c9063b9734b4"
          ],
          "data": "0x000000000000000000000000000000000000000000000000000000000015feb1",
          "blockHash": "0x69236ce8e097d0d72efa8a68f2ad81ba373a0de6845fbca86f07e153ea2eb210",
          "blockNumber": "0x73186f",
          "transactionHash": "0x0afb86aa6612387a705c3f5030168f0baccde4747851e9da64e94465acadb720",
          "transactionIndex": "0x83",
          "logIndex": "0x95",
          "removed": false
        },
        {
          "address": "0x8aafd3ede9adb0ff97c7aebce82a919afb1c8764",
          "topics": [
            "0x4afcb4a87cdbd9974efdb92ee48bc8d7cd0ae4bf217004db3d080cbaee652ca7"
          ],
          "data": "0x000000000000000000000000000000000000000000000000000000006790220400000000000000000000000000000000000000000000000000052366fd6b47d0000000000000000000000000000000000000000000000000000000000003f9f5",
          "blockHash": "0x69236ce8e097d0d72efa8a68f2ad81ba373a0de6845fbca86f07e153ea2eb210",
          "blockNumber": "0x73186f",
          "transactionHash": "0x0afb86aa6612387a705c3f5030168f0baccde4747851e9da64e94465acadb720",
          "transactionIndex": "0x83",
          "logIndex": "0x96",
          "removed": false
        }
      ],
      "logsBloom": "0x00000000000000000000000000000000000000000600000000000000000000000000000000000000000000000000000000000000000000004000000000000000000000000000004000000008000000000000000000000000000000000000000000000000020000000000000000000800020000000000000000000010000000000000000000000000000000000000000000000000000000000000010000000000000000000000000000000000000000004000000000000000000000000000000000000002000000800000000000000000000000000000080000000000000020000000000000000000000000000000000000000000000000000000000000000000",
      "type": "0x2",
      "transactionHash": "0x0afb86aa6612387a705c3f5030168f0baccde4747851e9da64e94465acadb720",
      "transactionIndex": "0x83",
      "blockHash": "0x69236ce8e097d0d72efa8a68f2ad81ba373a0de6845fbca86f07e153ea2eb210",
      "blockNumber": "0x73186f",
      "gasUsed": "0xf21f",
      "effectiveGasPrice": "0x5120b8ab",
      "from": "0xc77f7fed3b5cc8249adc428c5f44c9063b9734b4",
      "to": "0x8aafd3ede9adb0ff97c7aebce82a919afb1c8764",
      "contractAddress": null
    }
  ],
  "libraries": [],
  "pending": [],
  "returns": {},
  "timestamp": 1737499142,
  "chain": 11155111,
  "commit": "1d2fb70"
}