{
  "transactions": [
    {
      "hash": "0xdaaef18f8fa1ada18034d89ae4345751b9cc8365438710c92fd8896a1530a34c",
      "transactionType": "CALL",
      "contractName": null,
      "contractAddress": "0x270e88f8683660553e8ba4eb2ad7c91a1710d769",
      "function": "sell(uint256)",
      "arguments": [
        "716541035878876520793"
      ],
      "transaction": {
        "from": "0xc77f7fed3b5cc8249adc428c5f44c9063b9734b4",
        "to": "0x270e88f8683660553e8ba4eb2ad7c91a1710d769",
        "gas": "0x16fec",
        "value": "0x0",
        "input": "0xe4849b32000000000000000000000000000000000000000000000026d80123bc16dd2159",
        "nonce": "0x84c",
        "chainId": "0xaa36a7"
      },
      "additionalContracts": [],
      "isFixedGasLimit": false
    }
  ],
  "receipts": [
    {
      "status": "0x1",
      "cumulativeGasUsed": "0x9d27a0",
      "logs": [
        {
          "address": "0x270e88f8683660553e8ba4eb2ad7c91a1710d769",
          "topics": [
            "0xddf252ad1be2c89b69c2b068fc378daa952ba7f163c4a11628f55a4df523b3ef",
            "0x000000000000000000000000c77f7fed3b5cc8249adc428c5f44c9063b9734b4",
            "0x0000000000000000000000000000000000000000000000000000000000000000"
          ],
          "data": "0x000000000000000000000000000000000000000000000026d80123bc16dd2159",
          "blockHash": "0x764e1f393298a4ebe4f96742799c867d98b79faa9274427bcefa592c3ddc6457",
          "blockNumber": "0x72559c",
          "transactionHash": "0xdaaef18f8fa1ada18034d89ae4345751b9cc8365438710c92fd8896a1530a34c",
          "transactionIndex": "0x5a",
          "logIndex": "0x8a",
          "removed": false
        },
        {
          "address": "0x270e88f8683660553e8ba4eb2ad7c91a1710d769",
          "topics": [
            "0x4afcb4a87cdbd9974efdb92ee48bc8d7cd0ae4bf217004db3d080cbaee652ca7"
          ],
          "data": "0x000000000000000000000000000000000000000000000000000000006786f5580000000000000000000000000000000000000000000000000004ecb2594460a90000000000000000000000000000000000000000000000000dc8261234229c16",
          "blockHash": "0x764e1f393298a4ebe4f96742799c867d98b79faa9274427bcefa592c3ddc6457",
          "blockNumber": "0x72559c",
          "transactionHash": "0xdaaef18f8fa1ada18034d89ae4345751b9cc8365438710c92fd8896a1530a34c",
          "transactionIndex": "0x5a",
          "logIndex": "0x8b",
          "removed": false
        }
      ],
      "logsBloom": "0x00000000000000000000000000000000000000000000000000000000000000000000000000000000000000000000000020000000000000004000000000000000000000000000000000000008000000000000000000000000000000000000000000000000020000000000000000000800020000000000000000000010000000000000000000010000000000000000000000000000000000000000010000000000000000000000000000000000000000004000000000000000000000000000000000000002000000800000000000000000000000000000080000008000000020000000000000000000000000000000000000000000000000000000000000000000",
      "type": "0x2",
      "transactionHash": "0xdaaef18f8fa1ada18034d89ae4345751b9cc8365438710c92fd8896a1530a34c",
      "transactionIndex": "0x5a",
      "blockHash": "0x764e1f393298a4ebe4f96742799c867d98b79faa9274427bcefa592c3ddc6457",
      "blockNumber": "0x72559c",
      "gasUsed": "0xfb93",
      "effectiveGasPrice": "0x676f2ccb",
      "from": "0xc77f7fed3b5cc8249adc428c5f44c9063b9734b4",
      "to": "0x270e88f8683660553e8ba4eb2ad7c91a1710d769",
      "contractAddress": null
    }
  ],
  "libraries": [],
  "pending": [],
  "returns": {},
  "timestamp": 1736897881,
  "chain": 11155111,
  "commit": "51a374b"
}