{
  "transactions": [
    {
      "hash": "0x7ab45e94bc1a7c6a4be2db7685d4837ae028e29096f224e07e37cae071f36154",
      "transactionType": "CALL",
      "contractName": null,
      "contractAddress": "0x8aafd3ede9adb0ff97c7aebce82a919afb1c8764",
      "function": "sell(uint256)",
      "arguments": [
        "174023485"
      ],
      "transaction": {
        "from": "0xc77f7fed3b5cc8249adc428c5f44c9063b9734b4",
        "to": "0x8aafd3ede9adb0ff97c7aebce82a919afb1c8764",
        "gas": "0x14e6c",
        "value": "0x0",
        "input": "0xe4849b32000000000000000000000000000000000000000000000000000000000a5f633d",
        "nonce": "0x12e5",
        "chainId": "0xaa36a7"
      },
      "additionalContracts": [],
      "isFixedGasLimit": false
    }
  ],
  "receipts": [
    {
      "status": "0x1",
      "cumulativeGasUsed": "0x752d08",
      "logs": [
        {
          "address": "0x8aafd3ede9adb0ff97c7aebce82a919afb1c8764",
          "topics": [
            "0xddf252ad1be2c89b69c2b068fc378daa952ba7f163c4a11628f55a4df523b3ef",
            "0x000000000000000000000000c77f7fed3b5cc8249adc428c5f44c9063b9734b4",
            "0x0000000000000000000000000000000000000000000000000000000000000000"
          ],
          "data": "0x000000000000000000000000000000000000000000000000000000000a4a2502",
          "blockHash": "0x056fb39c0138acf80f7e7e2f17bc1616bed79b9fca88f4c890d6c6e73a0e1ca7",
          "blockNumber": "0x7319e8",
          "transactionHash": "0x7ab45e94bc1a7c6a4be2db7685d4837ae028e29096f224e07e37cae071f36154",
          "transactionIndex": "0x6d",
          "logIndex": "0x63",
          "removed": false
        },
        {
          "address": "0x8aafd3ede9adb0ff97c7aebce82a919afb1c8764",
          "topics": [
            "0xddf252ad1be2c89b69c2b068fc378daa952ba7f163c4a11628f55a4df523b3ef",
            "0x000000000000000000000000c77f7fed3b5cc8249adc428c5f44c9063b9734b4",
            "0x000000000000000000000000c77f7fed3b5cc8249adc428c5f44c9063b9734b4"
          ],
          "data": "0x0000000000000000000000000000000000000000000000000000000000153e3b",
          "blockHash": "0x056fb39c0138acf80f7e7e2f17bc1616bed79b9fca88f4c890d6c6e73a0e1ca7",
          "blockNumber": "0x7319e8",
          "transactionHash": "0x7ab45e94bc1a7c6a4be2db7685d4837ae028e29096f224e07e37cae071f36154",
          "transactionIndex": "0x6d",
          "logIndex": "0x64",
          "removed": false
        },
        {
          "address": "0x8aafd3ede9adb0ff97c7aebce82a919afb1c8764",
          "topics": [
            "0x4afcb4a87cdbd9974efdb92ee48bc8d7cd0ae4bf217004db3d080cbaee652ca7"
          ],
          "data": "0x00000000000000000000000000000000000000000000000000000000679033b0000000000000000000000000000000000000000000000000000551e775b24ff0000000000000000000000000000000000000000000000000000000000003f9eb",
          "blockHash": "0x056fb39c0138acf80f7e7e2f17bc1616bed79b9fca88f4c890d6c6e73a0e1ca7",
          "blockNumber": "0x7319e8",
          "transactionHash": "0x7ab45e94bc1a7c6a4be2db7685d4837ae028e29096f224e07e37cae071f36154",
          "transactionIndex": "0x6d",
          "logIndex": "0x65",
          "removed": false
        }
      ],
      "logsBloom": "0x00000000000000000000000000000000000000000600000000000000000000000000000000000000000000000000000000000000000000004000000000000000000000000000004000000008000000000000000000000000000000000000000000000000020000000000000000000800020000000000000000000010000000000000000000000000000000000000000000000000000000000000010000000000000000000000000000000000000000004000000000000000000000000000000000000002000000800000000000000000000000000000080000000000000020000000000000000000000000000000000000000000000000000000000000000000",
      "type": "0x2",
      "transactionHash": "0x7ab45e94bc1a7c6a4be2db7685d4837ae028e29096f224e07e37cae071f36154",
      "transactionIndex": "0x6d",
      "blockHash": "0x056fb39c0138acf80f7e7e2f17bc1616bed79b9fca88f4c890d6c6e73a0e1ca7",
      "blockNumber": "0x7319e8",
      "gasUsed": "0xf21f",
      "effectiveGasPrice": "0x4beb29b9",
      "from": "0xc77f7fed3b5cc8249adc428c5f44c9063b9734b4",
      "to": "0x8aafd3ede9adb0ff97c7aebce82a919afb1c8764",
      "contractAddress": null
    }
  ],
  "libraries": [],
  "pending": [],
  "returns": {},
  "timestamp": 1737503665,
  "chain": 11155111,
  "commit": "1d2fb70"
}