{
  "transactions": [
    {
      "hash": "0x1d02cfee0ed19a0e344930d55373d03420c6a7be25a20e47f85096f60f0ba221",
      "transactionType": "CALL",
      "contractName": null,
      "contractAddress": "0x8aafd3ede9adb0ff97c7aebce82a919afb1c8764",
      "function": "sell(uint256)",
      "arguments": [
        "741583254236711624735"
      ],
      "transaction": {
        "from": "0xc77f7fed3b5cc8249adc428c5f44c9063b9734b4",
        "to": "0x8aafd3ede9adb0ff97c7aebce82a919afb1c8764",
        "gas": "0x17270",
        "value": "0x0",
        "input": "0xe4849b320000000000000000000000000000000000000000000000283388f8a6dd64201f",
        "nonce": "0xf7b",
        "chainId": "0xaa36a7"
      },
      "additionalContracts": [],
      "isFixedGasLimit": false
    }
  ],
  "receipts": [
    {
      "status": "0x1",
      "cumulativeGasUsed": "0xb6a4cc",
      "logs": [
        {
          "address": "0x8aafd3ede9adb0ff97c7aebce82a919afb1c8764",
          "topics": [
            "0xddf252ad1be2c89b69c2b068fc378daa952ba7f163c4a11628f55a4df523b3ef",
            "0x000000000000000000000000c77f7fed3b5cc8249adc428c5f44c9063b9734b4",
            "0x0000000000000000000000000000000000000000000000000000000000000000"
          ],
          "data": "0x000000000000000000000000000000000000000000000027e133e8539c21c9da",
          "blockHash": "0xd6deaee0216fcfaf1213318827055522a8fd2c4ebfc4e069f0a01e6d82e83b4f",
          "blockNumber": "0x7315dd",
          "transactionHash": "0x1d02cfee0ed19a0e344930d55373d03420c6a7be25a20e47f85096f60f0ba221",
          "transactionIndex": "0x73",
          "logIndex": "0xd1",
          "removed": false
        },
        {
          "address": "0x8aafd3ede9adb0ff97c7aebce82a919afb1c8764",
          "topics": [
            "0xddf252ad1be2c89b69c2b068fc378daa952ba7f163c4a11628f55a4df523b3ef",
            "0x000000000000000000000000c77f7fed3b5cc8249adc428c5f44c9063b9734b4",
            "0x000000000000000000000000c77f7fed3b5cc8249adc428c5f44c9063b9734b4"
          ],
          "data": "0x0000000000000000000000000000000000000000000000005255105341425645",
          "blockHash": "0xd6deaee0216fcfaf1213318827055522a8fd2c4ebfc4e069f0a01e6d82e83b4f",
          "blockNumber": "0x7315dd",
          "transactionHash": "0x1d02cfee0ed19a0e344930d55373d03420c6a7be25a20e47f85096f60f0ba221",
          "transactionIndex": "0x73",
          "logIndex": "0xd2",
          "removed": false
        },
        {
          "address": "0x8aafd3ede9adb0ff97c7aebce82a919afb1c8764",
          "topics": [
            "0x4afcb4a87cdbd9974efdb92ee48bc8d7cd0ae4bf217004db3d080cbaee652ca7"
          ],
          "data": "0x00000000000000000000000000000000000000000000000000000000679003080000000000000000000000000000000000000000000000000004c22aee10f5eb0000000000000000000000000000000000000000000000000dc82144b49b0f85",
          "blockHash": "0xd6deaee0216fcfaf1213318827055522a8fd2c4ebfc4e069f0a01e6d82e83b4f",
          "blockNumber": "0x7315dd",
          "transactionHash": "0x1d02cfee0ed19a0e344930d55373d03420c6a7be25a20e47f85096f60f0ba221",
          "transactionIndex": "0x73",
          "logIndex": "0xd3",
          "removed": false
        }
      ],
      "logsBloom": "0x00000000000000000000000000000000000000000600000000000000000000000000000000000000000000000000000000000000000000004000000000000000000000000000004000000008000000000000000000000000000000000000000000000000020000000000000000000800020000000000000000000010000000000000000000000000000000000000000000000000000000000000010000000000000000000000000000000000000000004000000000000000000000000000000000000002000000800000000000000000000000000000080000000000000020000000000000000000000000000000000000000000000000000000000000000000",
      "type": "0x2",
      "transactionHash": "0x1d02cfee0ed19a0e344930d55373d03420c6a7be25a20e47f85096f60f0ba221",
      "transactionIndex": "0x73",
      "blockHash": "0xd6deaee0216fcfaf1213318827055522a8fd2c4ebfc4e069f0a01e6d82e83b4f",
      "blockNumber": "0x7315dd",
      "gasUsed": "0xfd4b",
      "effectiveGasPrice": "0x727ee2b8",
      "from": "0xc77f7fed3b5cc8249adc428c5f44c9063b9734b4",
      "to": "0x8aafd3ede9adb0ff97c7aebce82a919afb1c8764",
      "contractAddress": null
    }
  ],
  "libraries": [],
  "pending": [],
  "returns": {},
  "timestamp": 1737491210,
  "chain": 11155111,
  "commit": "1d2fb70"
}