{
  "transactions": [
    {
      "hash": "0x5449fdeebd19be72f24d55b8c158b5b92ec63cdc040d97b4288d31e1ec8f9895",
      "transactionType": "CALL",
      "contractName": null,
      "contractAddress": "0x270e88f8683660553e8ba4eb2ad7c91a1710d769",
      "function": "buy(address)",
      "arguments": [
        "0xC77f7fed3b5Cc8249aDc428c5F44C9063B9734b4"
      ],
      "transaction": {
        "from": "0xc77f7fed3b5cc8249adc428c5f44c9063b9734b4",
        "to": "0x270e88f8683660553e8ba4eb2ad7c91a1710d769",
        "gas": "0x1b30c",
        "value": "0xde0b6b3a7640000",
        "input": "0xf088d547000000000000000000000000c77f7fed3b5cc8249adc428c5f44c9063b9734b4",
        "nonce": "0x586",
        "chainId": "0xaa36a7"
      },
      "additionalContracts": [],
      "isFixedGasLimit": false
    }
  ],
  "receipts": [
    {
      "status": "0x1",
      "cumulativeGasUsed": "0xa305b2",
      "logs": [
        {
          "address": "0x270e88f8683660553e8ba4eb2ad7c91a1710d769",
          "topics": [
            "0xddf252ad1be2c89b69c2b068fc378daa952ba7f163c4a11628f55a4df523b3ef",
            "0x0000000000000000000000000000000000000000000000000000000000000000",
            "0x000000000000000000000000c77f7fed3b5cc8249adc428c5f44c9063b9734b4"
          ],
          "data": "0x0000000000000000000000000000000000000000000000342ca1d1ab1fc61e36",
          "blockHash": "0x432b01cf9ae2052dd3abdd77e9282201906899b62758aa8b4cd5f405b761a024",
          "blockNumber": "0x725234",
          "transactionHash": "0x5449fdeebd19be72f24d55b8c158b5b92ec63cdc040d97b4288d31e1ec8f9895",
          "transactionIndex": "0x50",
          "logIndex": "0xb6",
          "removed": false
        },
        {
          "address": "0x270e88f8683660553e8ba4eb2ad7c91a1710d769",
          "topics": [
            "0xddf252ad1be2c89b69c2b068fc378daa952ba7f163c4a11628f55a4df523b3ef",
            "0x0000000000000000000000000000000000000000000000000000000000000000",
            "0x000000000000000000000000c77f7fed3b5cc8249adc428c5f44c9063b9734b4"
          ],
          "data": "0x0000000000000000000000000000000000000000000000002883e16365298c2f",
          "blockHash": "0x432b01cf9ae2052dd3abdd77e9282201906899b62758aa8b4cd5f405b761a024",
          "blockNumber": "0x725234",
          "transactionHash": "0x5449fdeebd19be72f24d55b8c158b5b92ec63cdc040d97b4288d31e1ec8f9895",
          "transactionIndex": "0x50",
          "logIndex": "0xb7",
          "removed": false
        },
        {
          "address": "0x270e88f8683660553e8ba4eb2ad7c91a1710d769",
          "topics": [
            "0x4afcb4a87cdbd9974efdb92ee48bc8d7cd0ae4bf217004db3d080cbaee652ca7"
          ],
          "data": "0x000000000000000000000000000000000000000000000000000000006786cc600000000000000000000000000000000000000000000000000003a7a2e9f03e090000000000000000000000000000000000000000000000000de0b6b3a7640000",
          "blockHash": "0x432b01cf9ae2052dd3abdd77e9282201906899b62758aa8b4cd5f405b761a024",
          "blockNumber": "0x725234",
          "transactionHash": "0x5449fdeebd19be72f24d55b8c158b5b92ec63cdc040d97b4288d31e1ec8f9895",
          "transactionIndex": "0x50",
          "logIndex": "0xb8",
          "removed": false
        }
      ],
      "logsBloom": "0x00000000000000000000000000000000000000000000000000000000000000000000000000000000000000000000000020000000000000004000000000000000000000000000000000000008000000000000000000000000000000000000000000000000020000000000000000000800020000000000000000000010000000000000000000010000000000000000000000000000000000000000010000000000000000000000000000000000000000004000000000000000000000000000000000000002000000800000000000000000000000000000080000008000000020000000000000000000000000000000000000000000000000000000000000000000",
      "type": "0x2",
      "transactionHash": "0x5449fdeebd19be72f24d55b8c158b5b92ec63cdc040d97b4288d31e1ec8f9895",
      "transactionIndex": "0x50",
      "blockHash": "0x432b01cf9ae2052dd3abdd77e9282201906899b62758aa8b4cd5f405b761a024",
      "blockNumber": "0x725234",
      "gasUsed": "0x13af8",
      "effectiveGasPrice": "0x3fb6948a8",
      "from": "0xc77f7fed3b5cc8249adc428c5f44c9063b9734b4",
      "to": "0x270e88f8683660553e8ba4eb2ad7c91a1710d769",
      "contractAddress": null
    }
  ],
  "libraries": [],
  "pending": [],
  "returns": {},
  "timestamp": 1736887393,
  "chain": 11155111,
  "commit": "51a374b"
}