{
  "transactions": [
    {
      "hash": "0x6549ab66ecd20316e7a2133b0adf92c2ef83d45f1a2d0693c4333d6562371f7e",
      "transactionType": "CALL",
      "contractName": null,
      "contractAddress": "0xce96eeb408b3de046b90c1479507e72f22c77128",
      "function": "buy(address)",
      "arguments": [
        "0xC77f7fed3b5Cc8249aDc428c5F44C9063B9734b4"
      ],
      "transaction": {
        "from": "0xc77f7fed3b5cc8249adc428c5f44c9063b9734b4",
        "to": "0xce96eeb408b3de046b90c1479507e72f22c77128",
        "gas": "0x177f8",
        "value": "0xde0b6b3a7640000",
        "input": "0xf088d547000000000000000000000000c77f7fed3b5cc8249adc428c5f44c9063b9734b4",
        "nonce": "0x1812",
        "chainId": "0xaa36a7"
      },
      "additionalContracts": [],
      "isFixedGasLimit": false
    }
  ],
  "receipts": [
    {
      "status": "0x1",
      "cumulativeGasUsed": "0xef462c",
      "logs": [
        {
          "address": "0xce96eeb408b3de046b90c1479507e72f22c77128",
          "topics": [
            "0xddf252ad1be2c89b69c2b068fc378daa952ba7f163c4a11628f55a4df523b3ef",
            "0x0000000000000000000000000000000000000000000000000000000000000000",
            "0x000000000000000000000000c77f7fed3b5cc8249adc428c5f44c9063b9734b4"
          ],
          "data": "0x0000000000000000000000000000000000000000000000354bd4758c12c2e91a",
          "blockHash": "0xed5e430994c19261edd3b6baf0e3509790c4ef9069ed0ab737f0c72394ecc95c",
          "blockNumber": "0x734c91",
          "transactionHash": "0x6549ab66ecd20316e7a2133b0adf92c2ef83d45f1a2d0693c4333d6562371f7e",
          "transactionIndex": "0x67",
          "logIndex": "0x127",
          "removed": false
        },
        {
          "address": "0xce96eeb408b3de046b90c1479507e72f22c77128",
          "topics": [
            "0xddf252ad1be2c89b69c2b068fc378daa952ba7f163c4a11628f55a4df523b3ef",
            "0x0000000000000000000000000000000000000000000000000000000000000000",
            "0x000000000000000000000000c77f7fed3b5cc8249adc428c5f44c9063b9734b4"
          ],
          "data": "0x0000000000000000000000000000000000000000000000002962e639e768e334",
          "blockHash": "0xed5e430994c19261edd3b6baf0e3509790c4ef9069ed0ab737f0c72394ecc95c",
          "blockNumber": "0x734c91",
          "transactionHash": "0x6549ab66ecd20316e7a2133b0adf92c2ef83d45f1a2d0693c4333d6562371f7e",
          "transactionIndex": "0x67",
          "logIndex": "0x128",
          "removed": false
        },
        {
          "address": "0xce96eeb408b3de046b90c1479507e72f22c77128",
          "topics": [
            "0x4afcb4a87cdbd9974efdb92ee48bc8d7cd0ae4bf217004db3d080cbaee652ca7"
          ],
          "data": "0x000000000000000000000000000000000000000000000000000000006792a3ec00000000000000000000000000000000000000000000000000039709e44553590000000000000000000000000000000000000000000000000de0b6b3a7640000",
          "blockHash": "0xed5e430994c19261edd3b6baf0e3509790c4ef9069ed0ab737f0c72394ecc95c",
          "blockNumber": "0x734c91",
          "transactionHash": "0x6549ab66ecd20316e7a2133b0adf92c2ef83d45f1a2d0693c4333d6562371f7e",
          "transactionIndex": "0x67",
          "logIndex": "0x129",
          "removed": false
        }
      ],
      "logsBloom": "0x00000000000000000000000000000000000000000000000000000000000000000000800000000000000000000000000000000000020000004000000000000000000000000000000000000008000000000000000000000000000000000000000000000000020000000000000000000800020000000000000000000010000000000000000000000000000000000000000000000000000000000000010000000000000000000000000000000000000000004000000040000000000000000000000000000002000000800000000000000000000000000000080000000000000020000000000000000000000000000000000000000000000000000000000000000000",
      "type": "0x2",
      "transactionHash": "0x6549ab66ecd20316e7a2133b0adf92c2ef83d45f1a2d0693c4333d6562371f7e",
      "transactionIndex": "0x67",
      "blockHash": "0xed5e430994c19261edd3b6baf0e3509790c4ef9069ed0ab737f0c72394ecc95c",
      "blockNumber": "0x734c91",
      "gasUsed": "0x10113",
      "effectiveGasPrice": "0xd079dbe6",
      "from": "0xc77f7fed3b5cc8249adc428c5f44c9063b9734b4",
      "to": "0xce96eeb408b3de046b90c1479507e72f22c77128",
      "contractAddress": null
    }
  ],
  "libraries": [],
  "pending": [],
  "returns": {},
  "timestamp": 1737663469,
  "chain": 11155111,
  "commit": "f5162e9"
}