{
  "transactions": [
    {
      "hash": "0x32e9ad944e6d580d439ed6882394b02fbc196f561c239fbe69c51cb156278397",
      "transactionType": "CALL",
      "contractName": null,
      "contractAddress": "0x8aafd3ede9adb0ff97c7aebce82a919afb1c8764",
      "function": "sell(uint256)",
      "arguments": [
        "211398151170781759099"
      ],
      "transaction": {
        "from": "0xc77f7fed3b5cc8249adc428c5f44c9063b9734b4",
        "to": "0x8aafd3ede9adb0ff97c7aebce82a919afb1c8764",
        "gas": "0x17270",
        "value": "0x0",
        "input": "0xe4849b3200000000000000000000000000000000000000000000000b75bd1a7454c6467b",
        "nonce": "0x14e4",
        "chainId": "0xaa36a7"
      },
      "additionalContracts": [],
      "isFixedGasLimit": false
    }
  ],
  "receipts": [
    {
      "status": "0x1",
      "cumulativeGasUsed": "0xd58816",
      "logs": [
        {
          "address": "0x8aafd3ede9adb0ff97c7aebce82a919afb1c8764",
          "topics": [
            "0xddf252ad1be2c89b69c2b068fc378daa952ba7f163c4a11628f55a4df523b3ef",
            "0x000000000000000000000000c77f7fed3b5cc8249adc428c5f44c9063b9734b4",
            "0x0000000000000000000000000000000000000000000000000000000000000000"
          ],
          "data": "0x00000000000000000000000000000000000000000000000b5e44ce777f1ab483",
          "blockHash": "0x37f26d60161bd0be1afb42a07c7bd30caef10f43d1bc8b6aa682bc4c2c61e98a",
          "blockNumber": "0x731c42",
          "transactionHash": "0x32e9ad944e6d580d439ed6882394b02fbc196f561c239fbe69c51cb156278397",
          "transactionIndex": "0x82",
          "logIndex": "0xbc",
          "removed": false
        },
        {
          "address": "0x8aafd3ede9adb0ff97c7aebce82a919afb1c8764",
          "topics": [
            "0xddf252ad1be2c89b69c2b068fc378daa952ba7f163c4a11628f55a4df523b3ef",
            "0x000000000000000000000000c77f7fed3b5cc8249adc428c5f44c9063b9734b4",
            "0x000000000000000000000000c77f7fed3b5cc8249adc428c5f44c9063b9734b4"
          ],
          "data": "0x00000000000000000000000000000000000000000000000017784bfcd5ab91f8",
          "blockHash": "0x37f26d60161bd0be1afb42a07c7bd30caef10f43d1bc8b6aa682bc4c2c61e98a",
          "blockNumber": "0x731c42",
          "transactionHash": "0x32e9ad944e6d580d439ed6882394b02fbc196f561c239fbe69c51cb156278397",
          "transactionIndex": "0x82",
          "logIndex": "0xbd",
          "removed": false
        },
        {
          "address": "0x8aafd3ede9adb0ff97c7aebce82a919afb1c8764",
          "topics": [
            "0x4afcb4a87cdbd9974efdb92ee48bc8d7cd0ae4bf217004db3d080cbaee652ca7"
          ],
          "data": "0x0000000000000000000000000000000000000000000000000000000067904ff40000000000000000000000000000000000000000000000000010ca89fe5ee72f0000000000000000000000000000000000000000000000000dcd338c66d21ff7",
          "blockHash": "0x37f26d60161bd0be1afb42a07c7bd30caef10f43d1bc8b6aa682bc4c2c61e98a",
          "blockNumber": "0x731c42",
          "transactionHash": "0x32e9ad944e6d580d439ed6882394b02fbc196f561c239fbe69c51cb156278397",
          "transactionIndex": "0x82",
          "logIndex": "0xbe",
          "removed": false
        }
      ],
      "logsBloom": "0x00000000000000000000000000000000000000000600000000000000000000000000000000000000000000000000000000000000000000004000000000000000000000000000004000000008000000000000000000000000000000000000000000000000020000000000000000000800020000000000000000000010000000000000000000000000000000000000000000000000000000000000010000000000000000000000000000000000000000004000000000000000000000000000000000000002000000800000000000000000000000000000080000000000000020000000000000000000000000000000000000000000000000000000000000000000",
      "type": "0x2",
      "transactionHash": "0x32e9ad944e6d580d439ed6882394b02fbc196f561c239fbe69c51cb156278397",
      "transactionIndex": "0x82",
      "blockHash": "0x37f26d60161bd0be1afb42a07c7bd30caef10f43d1bc8b6aa682bc4c2c61e98a",
      "blockNumber": "0x731c42",
      "gasUsed": "0xfd4b",
      "effectiveGasPrice": "0x1544ec938",
      "from": "0xc77f7fed3b5cc8249adc428c5f44c9063b9734b4",
      "to": "0x8aafd3ede9adb0ff97c7aebce82a919afb1c8764",
      "contractAddress": null
    }
  ],
  "libraries": [],
  "pending": [],
  "returns": {},
  "timestamp": 1737510902,
  "chain": 11155111,
  "commit": "1d2fb70"
}