{
  "transactions": [
    {
      "hash": "0x610a314607570168f3d7ccbf1d03623921abc66e694af120e8505968d517327e",
      "transactionType": "CALL",
      "contractName": null,
      "contractAddress": "0x8aafd3ede9adb0ff97c7aebce82a919afb1c8764",
      "function": "sell(uint256)",
      "arguments": [
        "94672868462232"
      ],
      "transaction": {
        "from": "0xc77f7fed3b5cc8249adc428c5f44c9063b9734b4",
        "to": "0x8aafd3ede9adb0ff97c7aebce82a919afb1c8764",
        "gas": "0x15daa",
        "value": "0x0",
        "input": "0xe4849b320000000000000000000000000000000000000000000000000000561abeb1ce98",
        "nonce": "0x15b6",
        "chainId": "0xaa36a7"
      },
      "additionalContracts": [],
      "isFixedGasLimit": false
    }
  ],
  "receipts": [
    {
      "status": "0x1",
      "cumulativeGasUsed": "0x133cf1e",
      "logs": [
        {
          "address": "0x8aafd3ede9adb0ff97c7aebce82a919afb1c8764",
          "topics": [
            "0xddf252ad1be2c89b69c2b068fc378daa952ba7f163c4a11628f55a4df523b3ef",
            "0x000000000000000000000000c77f7fed3b5cc8249adc428c5f44c9063b9734b4",
            "0x0000000000000000000000000000000000000000000000000000000000000000"
          ],
          "data": "0x0000000000000000000000000000000000000000000000000000556a67272b27",
          "blockHash": "0x4f009deb0f2dfd457dac516a85e34b9f06e3e2a690a6d3837de7a32d2364fc15",
          "blockNumber": "0x731d2f",
          "transactionHash": "0x610a314607570168f3d7ccbf1d03623921abc66e694af120e8505968d517327e",
          "transactionIndex": "0x8b",
          "logIndex": "0x134",
          "removed": false
        },
        {
          "address": "0x8aafd3ede9adb0ff97c7aebce82a919afb1c8764",
          "topics": [
            "0xddf252ad1be2c89b69c2b068fc378daa952ba7f163c4a11628f55a4df523b3ef",
            "0x000000000000000000000000c77f7fed3b5cc8249adc428c5f44c9063b9734b4",
            "0x000000000000000000000000c77f7fed3b5cc8249adc428c5f44c9063b9734b4"
          ],
          "data": "0x000000000000000000000000000000000000000000000000000000b0578aa371",
          "blockHash": "0x4f009deb0f2dfd457dac516a85e34b9f06e3e2a690a6d3837de7a32d2364fc15",
          "blockNumber": "0x731d2f",
          "transactionHash": "0x610a314607570168f3d7ccbf1d03623921abc66e694af120e8505968d517327e",
          "transactionIndex": "0x8b",
          "logIndex": "0x135",
          "removed": false
        },
        {
          "address": "0x8aafd3ede9adb0ff97c7aebce82a919afb1c8764",
          "topics": [
            "0x4afcb4a87cdbd9974efdb92ee48bc8d7cd0ae4bf217004db3d080cbaee652ca7"
          ],
          "data": "0x0000000000000000000000000000000000000000000000000000000067905b1c00000000000000000000000000000000000000000000000000132eebde749d170000000000000000000000000000000000000000000000000000007705b8004f",
          "blockHash": "0x4f009deb0f2dfd457dac516a85e34b9f06e3e2a690a6d3837de7a32d2364fc15",
          "blockNumber": "0x731d2f",
          "transactionHash": "0x610a314607570168f3d7ccbf1d03623921abc66e694af120e8505968d517327e",
          "transactionIndex": "0x8b",
          "logIndex": "0x136",
          "removed": false
        }
      ],
      "logsBloom": "0x00000000000000000000000000000000000000000600000000000000000000000000000000000000000000000000000000000000000000004000000000000000000000000000004000000008000000000000000000000000000000000000000000000000020000000000000000000800020000000000000000000010000000000000000000000000000000000000000000000000000000000000010000000000000000000000000000000000000000004000000000000000000000000000000000000002000000800000000000000000000000000000080000000000000020000000000000000000000000000000000000000000000000000000000000000000",
      "type": "0x2",
      "transactionHash": "0x610a314607570168f3d7ccbf1d03623921abc66e694af120e8505968d517327e",
      "transactionIndex": "0x8b",
      "blockHash": "0x4f009deb0f2dfd457dac516a85e34b9f06e3e2a690a6d3837de7a32d2364fc15",
      "blockNumber": "0x731d2f",
      "gasUsed": "0xfd27",
      "effectiveGasPrice": "0x48029b0c",
      "from": "0xc77f7fed3b5cc8249adc428c5f44c9063b9734b4",
      "to": "0x8aafd3ede9adb0ff97c7aebce82a919afb1c8764",
      "contractAddress": null
    }
  ],
  "libraries": [],
  "pending": [],
  "returns": {},
  "timestamp": 1737513756,
  "chain": 11155111,
  "commit": "1d2fb70"
}