{
  "transactions": [
    {
      "hash": "0x47e2d3df2fd07babfa0d1d8ce1ecd515ad06a351e6888db820393685178420c3",
      "transactionType": "CALL",
      "contractName": null,
      "contractAddress": "0x8aafd3ede9adb0ff97c7aebce82a919afb1c8764",
      "function": "sell(uint256)",
      "arguments": [
        "5305107422926766377"
      ],
      "transaction": {
        "from": "0xc77f7fed3b5cc8249adc428c5f44c9063b9734b4",
        "to": "0x8aafd3ede9adb0ff97c7aebce82a919afb1c8764",
        "gas": "0x15dca",
        "value": "0x0",
        "input": "0xe4849b32000000000000000000000000000000000000000000000000499f8717eed68129",
        "nonce": "0x12ea",
        "chainId": "0xaa36a7"
      },
      "additionalContracts": [],
      "isFixedGasLimit": false
    }
  ],
  "receipts": [
    {
      "status": "0x1",
      "cumulativeGasUsed": "0x953d4d",
      "logs": [
        {
          "address": "0x8aafd3ede9adb0ff97c7aebce82a919afb1c8764",
          "topics": [
            "0xddf252ad1be2c89b69c2b068fc378daa952ba7f163c4a11628f55a4df523b3ef",
            "0x000000000000000000000000c77f7fed3b5cc8249adc428c5f44c9063b9734b4",
            "0x0000000000000000000000000000000000000000000000000000000000000000"
          ],
          "data": "0x0000000000000000000000000000000000000000000000004908bf5b5353c3b6",
          "blockHash": "0x33b26da3e32035b9ca91c828eb62da5bfe4cb05bce4eab31bac3c2676f751c32",
          "blockNumber": "0x7319ef",
          "transactionHash": "0x47e2d3df2fd07babfa0d1d8ce1ecd515ad06a351e6888db820393685178420c3",
          "transactionIndex": "0x7d",
          "logIndex": "0x9c",
          "removed": false
        },
        {
          "address": "0x8aafd3ede9adb0ff97c7aebce82a919afb1c8764",
          "topics": [
            "0xddf252ad1be2c89b69c2b068fc378daa952ba7f163c4a11628f55a4df523b3ef",
            "0x000000000000000000000000c77f7fed3b5cc8249adc428c5f44c9063b9734b4",
            "0x000000000000000000000000c77f7fed3b5cc8249adc428c5f44c9063b9734b4"
          ],
          "data": "0x0000000000000000000000000000000000000000000000000096c7bc9b82bd73",
          "blockHash": "0x33b26da3e32035b9ca91c828eb62da5bfe4cb05bce4eab31bac3c2676f751c32",
          "blockNumber": "0x7319ef",
          "transactionHash": "0x47e2d3df2fd07babfa0d1d8ce1ecd515ad06a351e6888db820393685178420c3",
          "transactionIndex": "0x7d",
          "logIndex": "0x9d",
          "removed": false
        },
        {
          "address": "0x8aafd3ede9adb0ff97c7aebce82a919afb1c8764",
          "topics": [
            "0x4afcb4a87cdbd9974efdb92ee48bc8d7cd0ae4bf217004db3d080cbaee652ca7"
          ],
          "data": "0x00000000000000000000000000000000000000000000000000000000679034040000000000000000000000000000000000000000000000000005535b89dfc0d6000000000000000000000000000000000000000000000000001c40b6e425eef7",
          "blockHash": "0x33b26da3e32035b9ca91c828eb62da5bfe4cb05bce4eab31bac3c2676f751c32",
          "blockNumber": "0x7319ef",
          "transactionHash": "0x47e2d3df2fd07babfa0d1d8ce1ecd515ad06a351e6888db820393685178420c3",
          "transactionIndex": "0x7d",
          "logIndex": "0x9e",
          "removed": false
        }
      ],
      "logsBloom": "0x00000000000000000000000000000000000000000600000000000000000000000000000000000000000000000000000000000000000000004000000000000000000000000000004000000008000000000000000000000000000000000000000000000000020000000000000000000800020000000000000000000010000000000000000000000000000000000000000000000000000000000000010000000000000000000000000000000000000000004000000000000000000000000000000000000002000000800000000000000000000000000000080000000000000020000000000000000000000000000000000000000000000000000000000000000000",
      "type": "0x2",
      "transactionHash": "0x47e2d3df2fd07babfa0d1d8ce1ecd515ad06a351e6888db820393685178420c3",
      "transactionIndex": "0x7d",
      "blockHash": "0x33b26da3e32035b9ca91c828eb62da5bfe4cb05bce4eab31bac3c2676f751c32",
      "blockNumber": "0x7319ef",
      "gasUsed": "0xfd3f",
      "effectiveGasPrice": "0x4c8dd7f4",
      "from": "0xc77f7fed3b5cc8249adc428c5f44c9063b9734b4",
      "to": "0x8aafd3ede9adb0ff97c7aebce82a919afb1c8764",
      "contractAddress": null
    }
  ],
  "libraries": [],
  "pending": [],
  "returns": {},
  "timestamp": 1737503749,
  "chain": 11155111,
  "commit": "1d2fb70"
}