{
  "transactions": [
    {
      "hash": "0x7ae90e7d12a6e6803b262f4c65b85786243f2456fe0f13afe5977c43525031c1",
      "transactionType": "CALL",
      "contractName": null,
      "contractAddress": "0x8aafd3ede9adb0ff97c7aebce82a919afb1c8764",
      "function": "sell(uint256)",
      "arguments": [
        "101307071496951"
      ],
      "transaction": {
        "from": "0xc77f7fed3b5cc8249adc428c5f44c9063b9734b4",
        "to": "0x8aafd3ede9adb0ff97c7aebce82a919afb1c8764",
        "gas": "0x15daa",
        "value": "0x0",
        "input": "0xe4849b3200000000000000000000000000000000000000000000000000005c23640282f7",
        "nonce": "0x154a",
        "chainId": "0xaa36a7"
      },
      "additionalContracts": [],
      "isFixedGasLimit": false
    }
  ],
  "receipts": [
    {
      "status": "0x1",
      "cumulativeGasUsed": "0xa121e2",
      "logs": [
        {
          "address": "0x8aafd3ede9adb0ff97c7aebce82a919afb1c8764",
          "topics": [
            "0xddf252ad1be2c89b69c2b068fc378daa952ba7f163c4a11628f55a4df523b3ef",
            "0x000000000000000000000000c77f7fed3b5cc8249adc428c5f44c9063b9734b4",
            "0x0000000000000000000000000000000000000000000000000000000000000000"
          ],
          "data": "0x00000000000000000000000000000000000000000000000000005b66b108a2b0",
          "blockHash": "0xaca3eafd71a70ae819049a74c33fe6c05e1c1b53e484ce17f1e555ff2d364169",
          "blockNumber": "0x731cb0",
          "transactionHash": "0x7ae90e7d12a6e6803b262f4c65b85786243f2456fe0f13afe5977c43525031c1",
          "transactionIndex": "0x74",
          "logIndex": "0xba",
          "removed": false
        },
        {
          "address": "0x8aafd3ede9adb0ff97c7aebce82a919afb1c8764",
          "topics": [
            "0xddf252ad1be2c89b69c2b068fc378daa952ba7f163c4a11628f55a4df523b3ef",
            "0x000000000000000000000000c77f7fed3b5cc8249adc428c5f44c9063b9734b4",
            "0x000000000000000000000000c77f7fed3b5cc8249adc428c5f44c9063b9734b4"
          ],
          "data": "0x000000000000000000000000000000000000000000000000000000bcb2f9e047",
          "blockHash": "0xaca3eafd71a70ae819049a74c33fe6c05e1c1b53e484ce17f1e555ff2d364169",
          "blockNumber": "0x731cb0",
          "transactionHash": "0x7ae90e7d12a6e6803b262f4c65b85786243f2456fe0f13afe5977c43525031c1",
          "transactionIndex": "0x74",
          "logIndex": "0xbb",
          "removed": false
        },
        {
          "address": "0x8aafd3ede9adb0ff97c7aebce82a919afb1c8764",
          "topics": [
            "0x4afcb4a87cdbd9974efdb92ee48bc8d7cd0ae4bf217004db3d080cbaee652ca7"
          ],
          "data": "0x000000000000000000000000000000000000000000000000000000006790551c0000000000000000000000000000000000000000000000000011eefba2f829920000000000000000000000000000000000000000000000000000007710bb0358",
          "blockHash": "0xaca3eafd71a70ae819049a74c33fe6c05e1c1b53e484ce17f1e555ff2d364169",
          "blockNumber": "0x731cb0",
          "transactionHash": "0x7ae90e7d12a6e6803b262f4c65b85786243f2456fe0f13afe5977c43525031c1",
          "transactionIndex": "0x74",
          "logIndex": "0xbc",
          "removed": false
        }
      ],
      "logsBloom": "0x00000000000000000000000000000000000000000600000000000000000000000000000000000000000000000000000000000000000000004000000000000000000000000000004000000008000000000000000000000000000000000000000000000000020000000000000000000800020000000000000000000010000000000000000000000000000000000000000000000000000000000000010000000000000000000000000000000000000000004000000000000000000000000000000000000002000000800000000000000000000000000000080000000000000020000000000000000000000000000000000000000000000000000000000000000000",
      "type": "0x2",
      "transactionHash": "0x7ae90e7d12a6e6803b262f4c65b85786243f2456fe0f13afe5977c43525031c1",
      "transactionIndex": "0x74",
      "blockHash": "0xaca3eafd71a70ae819049a74c33fe6c05e1c1b53e484ce17f1e555ff2d364169",
      "blockNumber": "0x731cb0",
      "gasUsed": "0xfd27",
      "effectiveGasPrice": "0x1092ae1b5",
      "from": "0xc77f7fed3b5cc8249adc428c5f44c9063b9734b4",
      "to": "0x8aafd3ede9adb0ff97c7aebce82a919afb1c8764",
      "contractAddress": null
    }
  ],
  "libraries": [],
  "pending": [],
  "returns": {},
  "timestamp": 1737512221,
  "chain": 11155111,
  "commit": "1d2fb70"
}