{
  "transactions": [
    {
      "hash": "0xa3efd4cc5ee5f33cfe49788c979fc0d264b7912e192d81e18fda8782320d39a5",
      "transactionType": "CALL",
      "contractName": null,
      "contractAddress": "0x8aafd3ede9adb0ff97c7aebce82a919afb1c8764",
      "function": "sell(uint256)",
      "arguments": [
        "128009051073513"
      ],
      "transaction": {
        "from": "0xc77f7fed3b5cc8249adc428c5f44c9063b9734b4",
        "to": "0x8aafd3ede9adb0ff97c7aebce82a919afb1c8764",
        "gas": "0x15daa",
        "value": "0x0",
        "input": "0xe4849b320000000000000000000000000000000000000000000000000000746c6e046be9",
        "nonce": "0x1406",
        "chainId": "0xaa36a7"
      },
      "additionalContracts": [],
      "isFixedGasLimit": false
    }
  ],
  "receipts": [
    {
      "status": "0x1",
      "cumulativeGasUsed": "0xa12737",
      "logs": [
        {
          "address": "0x8aafd3ede9adb0ff97c7aebce82a919afb1c8764",
          "topics": [
            "0xddf252ad1be2c89b69c2b068fc378daa952ba7f163c4a11628f55a4df523b3ef",
            "0x000000000000000000000000c77f7fed3b5cc8249adc428c5f44c9063b9734b4",
            "0x0000000000000000000000000000000000000000000000000000000000000000"
          ],
          "data": "0x0000000000000000000000000000000000000000000000000000737dfe8b8ddd",
          "blockHash": "0x11b027f2455a37237de01c4dfcf50fc28076b332c03809495063a8ff2980360c",
          "blockNumber": "0x731b3e",
          "transactionHash": "0xa3efd4cc5ee5f33cfe49788c979fc0d264b7912e192d81e18fda8782320d39a5",
          "transactionIndex": "0x5b",
          "logIndex": "0xa3",
          "removed": false
        },
        {
          "address": "0x8aafd3ede9adb0ff97c7aebce82a919afb1c8764",
          "topics": [
            "0xddf252ad1be2c89b69c2b068fc378daa952ba7f163c4a11628f55a4df523b3ef",
            "0x000000000000000000000000c77f7fed3b5cc8249adc428c5f44c9063b9734b4",
            "0x000000000000000000000000c77f7fed3b5cc8249adc428c5f44c9063b9734b4"
          ],
          "data": "0x000000000000000000000000000000000000000000000000000000ee6f78de0c",
          "blockHash": "0x11b027f2455a37237de01c4dfcf50fc28076b332c03809495063a8ff2980360c",
          "blockNumber": "0x731b3e",
          "transactionHash": "0xa3efd4cc5ee5f33cfe49788c979fc0d264b7912e192d81e18fda8782320d39a5",
          "transactionIndex": "0x5b",
          "logIndex": "0xa4",
          "removed": false
        },
        {
          "address": "0x8aafd3ede9adb0ff97c7aebce82a919afb1c8764",
          "topics": [
            "0x4afcb4a87cdbd9974efdb92ee48bc8d7cd0ae4bf217004db3d080cbaee652ca7"
          ],
          "data": "0x00000000000000000000000000000000000000000000000000000000679043b8000000000000000000000000000000000000000000000000000e368a5ef44d54000000000000000000000000000000000000000000000000000000773c72bf6b",
          "blockHash": "0x11b027f2455a37237de01c4dfcf50fc28076b332c03809495063a8ff2980360c",
          "blockNumber": "0x731b3e",
          "transactionHash": "0xa3efd4cc5ee5f33cfe49788c979fc0d264b7912e192d81e18fda8782320d39a5",
          "transactionIndex": "0x5b",
          "logIndex": "0xa5",
          "removed": false
        }
      ],
      "logsBloom": "0x00000000000000000000000000000000000000000600000000000000000000000000000000000000000000000000000000000000000000004000000000000000000000000000004000000008000000000000000000000000000000000000000000000000020000000000000000000800020000000000000000000010000000000000000000000000000000000000000000000000000000000000010000000000000000000000000000000000000000004000000000000000000000000000000000000002000000800000000000000000000000000000080000000000000020000000000000000000000000000000000000000000000000000000000000000000",
      "type": "0x2",
      "transactionHash": "0xa3efd4cc5ee5f33cfe49788c979fc0d264b7912e192d81e18fda8782320d39a5",
      "transactionIndex": "0x5b",
      "blockHash": "0x11b027f2455a37237de01c4dfcf50fc28076b332c03809495063a8ff2980360c",
      "blockNumber": "0x731b3e",
      "gasUsed": "0xfd27",
      "effectiveGasPrice": "0xc80309fe",
      "from": "0xc77f7fed3b5cc8249adc428c5f44c9063b9734b4",
      "to": "0x8aafd3ede9adb0ff97c7aebce82a919afb1c8764",
      "contractAddress": null
    }
  ],
  "libraries": [],
  "pending": [],
  "returns": {},
  "timestamp": 1737507769,
  "chain": 11155111,
  "commit": "1d2fb70"
}