{
  "transactions": [
    {
      "hash": "0x4d624a585b4da1c0c17163259957c974a1adc896c827ecb987edd3c755f379ae",
      "transactionType": "CALL",
      "contractName": null,
      "contractAddress": "0x8aafd3ede9adb0ff97c7aebce82a919afb1c8764",
      "function": "sell(uint256)",
      "arguments": [
        "12589979672001002"
      ],
      "transaction": {
        "from": "0xc77f7fed3b5cc8249adc428c5f44c9063b9734b4",
        "to": "0x8aafd3ede9adb0ff97c7aebce82a919afb1c8764",
        "gas": "0x1724d",
        "value": "0x0",
        "input": "0xe4849b32000000000000000000000000000000000000000000000000002cba85121439ea",
        "nonce": "0x1552",
        "chainId": "0xaa36a7"
      },
      "additionalContracts": [],
      "isFixedGasLimit": false
    }
  ],
  "receipts": [
    {
      "status": "0x1",
      "cumulativeGasUsed": "0x991704",
      "logs": [
        {
          "address": "0x8aafd3ede9adb0ff97c7aebce82a919afb1c8764",
          "topics": [
            "0xddf252ad1be2c89b69c2b068fc378daa952ba7f163c4a11628f55a4df523b3ef",
            "0x000000000000000000000000c77f7fed3b5cc8249adc428c5f44c9063b9734b4",
            "0x0000000000000000000000000000000000000000000000000000000000000000"
          ],
          "data": "0x000000000000000000000000000000000000000000000000002c5eea67f34be2",
          "blockHash": "0x7224998718436925474a1964cc67bc601ca1cb6f2bc83533b747b590ce194a16",
          "blockNumber": "0x731cb8",
          "transactionHash": "0x4d624a585b4da1c0c17163259957c974a1adc896c827ecb987edd3c755f379ae",
          "transactionIndex": "0x5b",
          "logIndex": "0xb5",
          "removed": false
        },
        {
          "address": "0x8aafd3ede9adb0ff97c7aebce82a919afb1c8764",
          "topics": [
            "0xddf252ad1be2c89b69c2b068fc378daa952ba7f163c4a11628f55a4df523b3ef",
            "0x000000000000000000000000c77f7fed3b5cc8249adc428c5f44c9063b9734b4",
            "0x000000000000000000000000c77f7fed3b5cc8249adc428c5f44c9063b9734b4"
          ],
          "data": "0x00000000000000000000000000000000000000000000000000005b9aaa20ee08",
          "blockHash": "0x7224998718436925474a1964cc67bc601ca1cb6f2bc83533b747b590ce194a16",
          "blockNumber": "0x731cb8",
          "transactionHash": "0x4d624a585b4da1c0c17163259957c974a1adc896c827ecb987edd3c755f379ae",
          "transactionIndex": "0x5b",
          "logIndex": "0xb6",
          "removed": false
        },
        {
          "address": "0x8aafd3ede9adb0ff97c7aebce82a919afb1c8764",
          "topics": [
            "0x4afcb4a87cdbd9974efdb92ee48bc8d7cd0ae4bf217004db3d080cbaee652ca7"
          ],
          "data": "0x000000000000000000000000000000000000000000000000000000006790557c0000000000000000000000000000000000000000000000000012099a51201c0800000000000000000000000000000000000000000000000000003a22b0bc304d",
          "blockHash": "0x7224998718436925474a1964cc67bc601ca1cb6f2bc83533b747b590ce194a16",
          "blockNumber": "0x731cb8",
          "transactionHash": "0x4d624a585b4da1c0c17163259957c974a1adc896c827ecb987edd3c755f379ae",
          "transactionIndex": "0x5b",
          "logIndex": "0xb7",
          "removed": false
        }
      ],
      "logsBloom": "0x00000000000000000000000000000000000000000600000000000000000000000000000000000000000000000000000000000000000000004000000000000000000000000000004000000008000000000000000000000000000000000000000000000000020000000000000000000800020000000000000000000010000000000000000000000000000000000000000000000000000000000000010000000000000000000000000000000000000000004000000000000000000000000000000000000002000000800000000000000000000000000000080000000000000020000000000000000000000000000000000000000000000000000000000000000000",
      "type": "0x2",
      "transactionHash": "0x4d624a585b4da1c0c17163259957c974a1adc896c827ecb987edd3c755f379ae",
      "transactionIndex": "0x5b",
      "blockHash": "0x7224998718436925474a1964cc67bc601ca1cb6f2bc83533b747b590ce194a16",
      "blockNumber": "0x731cb8",
      "gasUsed": "0xfd33",
      "effectiveGasPrice": "0xf25293af",
      "from": "0xc77f7fed3b5cc8249adc428c5f44c9063b9734b4",
      "to": "0x8aafd3ede9adb0ff97c7aebce82a919afb1c8764",
      "contractAddress": null
    }
  ],
  "libraries": [],
  "pending": [],
  "returns": {},
  "timestamp": 1737512318,
  "chain": 11155111,
  "commit": "1d2fb70"
}