{
  "transactions": [
    {
      "hash": "0xe3cb8d149999b4e911220388bf0ff8cf5f07e3620d6e74642f081507f2a71e2a",
      "transactionType": "CALL",
      "contractName": null,
      "contractAddress": "0x8aafd3ede9adb0ff97c7aebce82a919afb1c8764",
      "function": "sell(uint256)",
      "arguments": [
        "702088582712578279044"
      ],
      "transaction": {
        "from": "0xc77f7fed3b5cc8249adc428c5f44c9063b9734b4",
        "to": "0x8aafd3ede9adb0ff97c7aebce82a919afb1c8764",
        "gas": "0x15dca",
        "value": "0x0",
        "input": "0xe4849b320000000000000000000000000000000000000000000000260f6fb62700b00684",
        "nonce": "0x10e1",
        "chainId": "0xaa36a7"
      },
      "additionalContracts": [],
      "isFixedGasLimit": false
    }
  ],
  "receipts": [
    {
      "status": "0x1",
      "cumulativeGasUsed": "0xb23b7a",
      "logs": [
        {
          "address": "0x8aafd3ede9adb0ff97c7aebce82a919afb1c8764",
          "topics": [
            "0xddf252ad1be2c89b69c2b068fc378daa952ba7f163c4a11628f55a4df523b3ef",
            "0x000000000000000000000000c77f7fed3b5cc8249adc428c5f44c9063b9734b4",
            "0x0000000000000000000000000000000000000000000000000000000000000000"
          ],
          "data": "0x000000000000000000000000000000000000000000000025c17d276215297f4c",
          "blockHash": "0x109554ead267d09f2ff5381df65530ee89082ebb4f3e7625691f43c1d5300c2a",
          "blockNumber": "0x731782",
          "transactionHash": "0xe3cb8d149999b4e911220388bf0ff8cf5f07e3620d6e74642f081507f2a71e2a",
          "transactionIndex": "0x74",
          "logIndex": "0xf5",
          "removed": false
        },
        {
          "address": "0x8aafd3ede9adb0ff97c7aebce82a919afb1c8764",
          "topics": [
            "0xddf252ad1be2c89b69c2b068fc378daa952ba7f163c4a11628f55a4df523b3ef",
            "0x000000000000000000000000c77f7fed3b5cc8249adc428c5f44c9063b9734b4",
            "0x000000000000000000000000c77f7fed3b5cc8249adc428c5f44c9063b9734b4"
          ],
          "data": "0x0000000000000000000000000000000000000000000000004df28ec4eb868738",
          "blockHash": "0x109554ead267d09f2ff5381df65530ee89082ebb4f3e7625691f43c1d5300c2a",
          "blockNumber": "0x731782",
          "transactionHash": "0xe3cb8d149999b4e911220388bf0ff8cf5f07e3620d6e74642f081507f2a71e2a",
          "transactionIndex": "0x74",
          "logIndex": "0xf6",
          "removed": false
        },
        {
          "address": "0x8aafd3ede9adb0ff97c7aebce82a919afb1c8764",
          "topics": [
            "0x4afcb4a87cdbd9974efdb92ee48bc8d7cd0ae4bf217004db3d080cbaee652ca7"
          ],
          "data": "0x00000000000000000000000000000000000000000000000000000000679016dc000000000000000000000000000000000000000000000000000507cb0bb518c60000000000000000000000000000000000000000000000000dc8fa77e3564b77",
          "blockHash": "0x109554ead267d09f2ff5381df65530ee89082ebb4f3e7625691f43c1d5300c2a",
          "blockNumber": "0x731782",
          "transactionHash": "0xe3cb8d149999b4e911220388bf0ff8cf5f07e3620d6e74642f081507f2a71e2a",
          "transactionIndex": "0x74",
          "logIndex": "0xf7",
          "removed": false
        }
      ],
      "logsBloom": "0x00000000000000000000000000000000000000000600000000000000000000000000000000000000000000000000000000000000000000004000000000000000000000000000004000000008000000000000000000000000000000000000000000000000020000000000000000000800020000000000000000000010000000000000000000000000000000000000000000000000000000000000010000000000000000000000000000000000000000004000000000000000000000000000000000000002000000800000000000000000000000000000080000000000000020000000000000000000000000000000000000000000000000000000000000000000",
      "type": "0x2",
      "transactionHash": "0xe3cb8d149999b4e911220388bf0ff8cf5f07e3620d6e74642f081507f2a71e2a",
      "transactionIndex": "0x74",
      "blockHash": "0x109554ead267d09f2ff5381df65530ee89082ebb4f3e7625691f43c1d5300c2a",
      "blockNumber": "0x731782",
      "gasUsed": "0xfd3f",
      "effectiveGasPrice": "0x38f2dd6f",
      "from": "0xc77f7fed3b5cc8249adc428c5f44c9063b9734b4",
      "to": "0x8aafd3ede9adb0ff97c7aebce82a919afb1c8764",
      "contractAddress": null
    }
  ],
  "libraries": [],
  "pending": [],
  "returns": {},
  "timestamp": 1737496287,
  "chain": 11155111,
  "commit": "1d2fb70"
}