{
  "transactions": [
    {
      "hash": "0x09baeb633c634431837239f61bdc9258a9fd8ed101a733bfd009001711ba2e8e",
      "transactionType": "CALL",
      "contractName": null,
      "contractAddress": "0x5eb9cc76c3506942c1c0ead70e877dd5e4f00cb0",
      "function": "sell(uint256)",
      "arguments": [
        "989100317784656891531"
      ],
      "transaction": {
        "from": "0xc77f7fed3b5cc8249adc428c5f44c9063b9734b4",
        "to": "0x5eb9cc76c3506942c1c0ead70e877dd5e4f00cb0",
        "gas": "0x16fec",
        "value": "0x0",
        "input": "0xe4849b320000000000000000000000000000000000000000000000359e863a8c0c74ce8b",
        "nonce": "0x3ff",
        "chainId": "0xaa36a7"
      },
      "additionalContracts": [],
      "isFixedGasLimit": false
    }
  ],
  "receipts": [
    {
      "status": "0x1",
      "cumulativeGasUsed": "0xcd1abd",
      "logs": [
        {
          "address": "0x5eb9cc76c3506942c1c0ead70e877dd5e4f00cb0",
          "topics": [
            "0xddf252ad1be2c89b69c2b068fc378daa952ba7f163c4a11628f55a4df523b3ef",
            "0x000000000000000000000000c77f7fed3b5cc8249adc428c5f44c9063b9734b4",
            "0x0000000000000000000000000000000000000000000000000000000000000000"
          ],
          "data": "0x0000000000000000000000000000000000000000000000359e863a8c0c74ce8b",
          "blockHash": "0xe358318e6306aac28f946b94452dd68e1aa8b3ada399b4afad9fcb78b9687566",
          "blockNumber": "0x725008",
          "transactionHash": "0x09baeb633c634431837239f61bdc9258a9fd8ed101a733bfd009001711ba2e8e",
          "transactionIndex": "0x6a",
          "logIndex": "0xd4",
          "removed": false
        },
        {
          "address": "0x5eb9cc76c3506942c1c0ead70e877dd5e4f00cb0",
          "topics": [
            "0x4afcb4a87cdbd9974efdb92ee48bc8d7cd0ae4bf217004db3d080cbaee652ca7"
          ],
          "data": "0x000000000000000000000000000000000000000000000000000000006786b22c0000000000000000000000000000000000000000000000000003911565a09dd90000000000000000000000000000000000000000000000000dc7db1331e80385",
          "blockHash": "0xe358318e6306aac28f946b94452dd68e1aa8b3ada399b4afad9fcb78b9687566",
          "blockNumber": "0x725008",
          "transactionHash": "0x09baeb633c634431837239f61bdc9258a9fd8ed101a733bfd009001711ba2e8e",
          "transactionIndex": "0x6a",
          "logIndex": "0xd5",
          "removed": false
        }
      ],
      "logsBloom": "0x00000000000000000000000000000000000000000000000000000000000000000000000000000000000000000000000000000000000000004000000000000000000000000000000000000008000000000000000000000000000000000000000000000000020000000000000004000800020000000000000000000010000000000000000000000000000000000000000000000000000000000000010000000000000000000000000000000000000000004000000000000000000000000000020000000002000000800000008000000000000000000000080000000000000020000000000000000000000000000000000000000000000000000000000000000000",
      "type": "0x2",
      "transactionHash": "0x09baeb633c634431837239f61bdc9258a9fd8ed101a733bfd009001711ba2e8e",
      "transactionIndex": "0x6a",
      "blockHash": "0xe358318e6306aac28f946b94452dd68e1aa8b3ada399b4afad9fcb78b9687566",
      "blockNumber": "0x725008",
      "gasUsed": "0xfb93",
      "effectiveGasPrice": "0x3944a7237",
      "from": "0xc77f7fed3b5cc8249adc428c5f44c9063b9734b4",
      "to": "0x5eb9cc76c3506942c1c0ead70e877dd5e4f00cb0",
      "contractAddress": null
    }
  ],
  "libraries": [],
  "pending": [],
  "returns": {},
  "timestamp": 1736880686,
  "chain": 11155111,
  "commit": "51a374b"
}