{
  "transactions": [
    {
      "hash": "0x5245c798a509bcb78db714ceb548d763d3bc313ff099937940b72150d66dc05d",
      "transactionType": "CALL",
      "contractName": null,
      "contractAddress": "0x270e88f8683660553e8ba4eb2ad7c91a1710d769",
      "function": "sell(uint256)",
      "arguments": [
        "732372493490131518749"
      ],
      "transaction": {
        "from": "0xc77f7fed3b5cc8249adc428c5f44c9063b9734b4",
        "to": "0x270e88f8683660553e8ba4eb2ad7c91a1710d769",
        "gas": "0x16fec",
        "value": "0x0",
        "input": "0xe4849b32000000000000000000000000000000000000000000000027b3b5c68db25f451d",
        "nonce": "0x792",
        "chainId": "0xaa36a7"
      },
      "additionalContracts": [],
      "isFixedGasLimit": false
    }
  ],
  "receipts": [
    {
      "status": "0x1",
      "cumulativeGasUsed": "0x974d4e",
      "logs": [
        {
          "address": "0x270e88f8683660553e8ba4eb2ad7c91a1710d769",
          "topics": [
            "0xddf252ad1be2c89b69c2b068fc378daa952ba7f163c4a11628f55a4df523b3ef",
            "0x000000000000000000000000c77f7fed3b5cc8249adc428c5f44c9063b9734b4",
            "0x0000000000000000000000000000000000000000000000000000000000000000"
          ],
          "data": "0x000000000000000000000000000000000000000000000027b3b5c68db25f451d",
          "blockHash": "0xbfb01e02903224158f480fa495f547ddea9e9fafce2e4515c963abf0a5ebedc5",
          "blockNumber": "0x7254c5",
          "transactionHash": "0x5245c798a509bcb78db714ceb548d763d3bc313ff099937940b72150d66dc05d",
          "transactionIndex": "0x45",
          "logIndex": "0x58",
          "removed": false
        },
        {
          "address": "0x270e88f8683660553e8ba4eb2ad7c91a1710d769",
          "topics": [
            "0x4afcb4a87cdbd9974efdb92ee48bc8d7cd0ae4bf217004db3d080cbaee652ca7"
          ],
          "data": "0x000000000000000000000000000000000000000000000000000000006786eb440000000000000000000000000000000000000000000000000004d1736eefffa40000000000000000000000000000000000000000000000000dc827b5dce17f39",
          "blockHash": "0xbfb01e02903224158f480fa495f547ddea9e9fafce2e4515c963abf0a5ebedc5",
          "blockNumber": "0x7254c5",
          "transactionHash": "0x5245c798a509bcb78db714ceb548d763d3bc313ff099937940b72150d66dc05d",
          "transactionIndex": "0x45",
          "logIndex": "0x59",
          "removed": false
        }
      ],
      "logsBloom": "0x00000000000000000000000000000000000000000000000000000000000000000000000000000000000000000000000020000000000000004000000000000000000000000000000000000008000000000000000000000000000000000000000000000000020000000000000000000800020000000000000000000010000000000000000000010000000000000000000000000000000000000000010000000000000000000000000000000000000000004000000000000000000000000000000000000002000000800000000000000000000000000000080000008000000020000000000000000000000000000000000000000000000000000000000000000000",
      "type": "0x2",
      "transactionHash": "0x5245c798a509bcb78db714ceb548d763d3bc313ff099937940b72150d66dc05d",
      "transactionIndex": "0x45",
      "blockHash": "0xbfb01e02903224158f480fa495f547ddea9e9fafce2e4515c963abf0a5ebedc5",
      "blockNumber": "0x7254c5",
      "gasUsed": "0xfb93",
      "effectiveGasPrice": "0xfcee9227",
      "from": "0xc77f7fed3b5cc8249adc428c5f44c9063b9734b4",
      "to": "0x270e88f8683660553e8ba4eb2ad7c91a1710d769",
      "contractAddress": null
    }
  ],
  "libraries": [],
  "pending": [],
  "returns": {},
  "timestamp": 1736895301,
  "chain": 11155111,
  "commit": "51a374b"
}