{
  "transactions": [
    {
      "hash": "0xddb39239ea456e686a857db4ec59d06dc59345e92f0e0ff75c0291b2e9c33c05",
      "transactionType": "CALL",
      "contractName": null,
      "contractAddress": "0xbf4a322f1496e5c3d34a9bcdb4c60567b38c7de2",
      "function": "sell(uint256)",
      "arguments": [
        "982300608445676505024"
      ],
      "transaction": {
        "from": "0xc77f7fed3b5cc8249adc428c5f44c9063b9734b4",
        "to": "0xbf4a322f1496e5c3d34a9bcdb4c60567b38c7de2",
        "gas": "0x16fea",
        "value": "0x0",
        "input": "0xe4849b320000000000000000000000000000000000000000000000354028ceedfe9fc7c0",
        "nonce": "0xb6d",
        "chainId": "0xaa36a7"
      },
      "additionalContracts": [],
      "isFixedGasLimit": false
    }
  ],
  "receipts": [
    {
      "status": "0x1",
      "cumulativeGasUsed": "0xa220a3",
      "logs": [
        {
          "address": "0xbf4a322f1496e5c3d34a9bcdb4c60567b38c7de2",
          "topics": [
            "0xddf252ad1be2c89b69c2b068fc378daa952ba7f163c4a11628f55a4df523b3ef",
            "0x000000000000000000000000c77f7fed3b5cc8249adc428c5f44c9063b9734b4",
            "0x0000000000000000000000000000000000000000000000000000000000000000"
          ],
          "data": "0x0000000000000000000000000000000000000000000000354028ceedfe9fc7c0",
          "blockHash": "0xd5141b4f1ea008e3db7a40ad6793997c74a9fba4f2695df12963ad79aaa128d9",
          "blockNumber": "0x725b78",
          "transactionHash": "0xddb39239ea456e686a857db4ec59d06dc59345e92f0e0ff75c0291b2e9c33c05",
          "transactionIndex": "0x3f",
          "logIndex": "0x5d",
          "removed": false
        },
        {
          "address": "0xbf4a322f1496e5c3d34a9bcdb4c60567b38c7de2",
          "topics": [
            "0x4afcb4a87cdbd9974efdb92ee48bc8d7cd0ae4bf217004db3d080cbaee652ca7"
          ],
          "data": "0x0000000000000000000000000000000000000000000000000000000067873bfc0000000000000000000000000000000000000000000000000003976dda346bb80000000000000000000000000000000000000000000000000dc7e3e76a507391",
          "blockHash": "0xd5141b4f1ea008e3db7a40ad6793997c74a9fba4f2695df12963ad79aaa128d9",
          "blockNumber": "0x725b78",
          "transactionHash": "0xddb39239ea456e686a857db4ec59d06dc59345e92f0e0ff75c0291b2e9c33c05",
          "transactionIndex": "0x3f",
          "logIndex": "0x5e",
          "removed": false
        }
      ],
      "logsBloom": "0x00000000000000000000000000000000000000000000000000000000000000000000000000000000000000000000000000000000000000004000000000000000000000000000000000000008000000000000001000000000000000000000000000000000020000000000000000000800020000000000000000000010000000000000000000000000000000000000000000000000000008000000010000000000000000000000000000000000000000004000000000000000000000000000000000000002000000800000000000001000000000000000080000000000000020000000000000000000000000000000000000000000000000000000000000000000",
      "type": "0x2",
      "transactionHash": "0xddb39239ea456e686a857db4ec59d06dc59345e92f0e0ff75c0291b2e9c33c05",
      "transactionIndex": "0x3f",
      "blockHash": "0xd5141b4f1ea008e3db7a40ad6793997c74a9fba4f2695df12963ad79aaa128d9",
      "blockNumber": "0x725b78",
      "gasUsed": "0xfb91",
      "effectiveGasPrice": "0x3c1ee6c2",
      "from": "0xc77f7fed3b5cc8249adc428c5f44c9063b9734b4",
      "to": "0xbf4a322f1496e5c3d34a9bcdb4c60567b38c7de2",
      "contractAddress": null
    }
  ],
  "libraries": [],
  "pending": [],
  "returns": {},
  "timestamp": 1736915965,
  "chain": 11155111,
  "commit": "51a374b"
}