{
  "transactions": [
    {
      "hash": "0x75c9a2ded1ca24ec68ccf8b1524d9e82bc981117c8cd890ab5586ec913ca8d4d",
      "transactionType": "CALL",
      "contractName": null,
      "contractAddress": "0xbf4a322f1496e5c3d34a9bcdb4c60567b38c7de2",
      "function": "sell(uint256)",
      "arguments": [
        "975335713437863017230"
      ],
      "transaction": {
        "from": "0xc77f7fed3b5cc8249adc428c5f44c9063b9734b4",
        "to": "0xbf4a322f1496e5c3d34a9bcdb4c60567b38c7de2",
        "gas": "0x16fea",
        "value": "0x0",
        "input": "0xe4849b32000000000000000000000000000000000000000000000034df8087d258027b0e",
        "nonce": "0xd75",
        "chainId": "0xaa36a7"
      },
      "additionalContracts": [],
      "isFixedGasLimit": false
    }
  ],
  "receipts": [
    {
      "status": "0x1",
      "cumulativeGasUsed": "0xef44de",
      "logs": [
        {
          "address": "0xbf4a322f1496e5c3d34a9bcdb4c60567b38c7de2",
          "topics": [
            "0xddf252ad1be2c89b69c2b068fc378daa952ba7f163c4a11628f55a4df523b3ef",
            "0x000000000000000000000000c77f7fed3b5cc8249adc428c5f44c9063b9734b4",
            "0x0000000000000000000000000000000000000000000000000000000000000000"
          ],
          "data": "0x000000000000000000000000000000000000000000000034df8087d258027b0e",
          "blockHash": "0x89deb815aaaac7ac62640df340ae6c6b0e2ee8b38c41a16d5af0e17891a53336",
          "blockNumber": "0x726644",
          "transactionHash": "0x75c9a2ded1ca24ec68ccf8b1524d9e82bc981117c8cd890ab5586ec913ca8d4d",
          "transactionIndex": "0x82",
          "logIndex": "0xd7",
          "removed": false
        },
        {
          "address": "0xbf4a322f1496e5c3d34a9bcdb4c60567b38c7de2",
          "topics": [
            "0x4afcb4a87cdbd9974efdb92ee48bc8d7cd0ae4bf217004db3d080cbaee652ca7"
          ],
          "data": "0x000000000000000000000000000000000000000000000000000000006787bde000000000000000000000000000000000000000000000000000039dfe9dcabf0e0000000000000000000000000000000000000000000000000dc7e3d738bcf44b",
          "blockHash": "0x89deb815aaaac7ac62640df340ae6c6b0e2ee8b38c41a16d5af0e17891a53336",
          "blockNumber": "0x726644",
          "transactionHash": "0x75c9a2ded1ca24ec68ccf8b1524d9e82bc981117c8cd890ab5586ec913ca8d4d",
          "transactionIndex": "0x82",
          "logIndex": "0xd8",
          "removed": false
        }
      ],
      "logsBloom": "0x00000000000000000000000000000000000000000000000000000000000000000000000000000000000000000000000000000000000000004000000000000000000000000000000000000008000000000000001000000000000000000000000000000000020000000000000000000800020000000000000000000010000000000000000000000000000000000000000000000000000008000000010000000000000000000000000000000000000000004000000000000000000000000000000000000002000000800000000000001000000000000000080000000000000020000000000000000000000000000000000000000000000000000000000000000000",
      "type": "0x2",
      "transactionHash": "0x75c9a2ded1ca24ec68ccf8b1524d9e82bc981117c8cd890ab5586ec913ca8d4d",
      "transactionIndex": "0x82",
      "blockHash": "0x89deb815aaaac7ac62640df340ae6c6b0e2ee8b38c41a16d5af0e17891a53336",
      "blockNumber": "0x726644",
      "gasUsed": "0xfb91",
      "effectiveGasPrice": "0x9692fac2",
      "from": "0xc77f7fed3b5cc8249adc428c5f44c9063b9734b4",
      "to": "0xbf4a322f1496e5c3d34a9bcdb4c60567b38c7de2",
      "contractAddress": null
    }
  ],
  "libraries": [],
  "pending": [],
  "returns": {},
  "timestamp": 1736949217,
  "chain": 11155111,
  "commit": "51a374b"
}