{
  "transactions": [
    {
      "hash": "0x3367fd22409944b3157315107ed81b31f330d4b18ad0f14b7fb23f7a45edb16a",
      "transactionType": "CALL",
      "contractName": null,
      "contractAddress": "0xbf4a322f1496e5c3d34a9bcdb4c60567b38c7de2",
      "function": "sell(uint256)",
      "arguments": [
        "979824766922762926460"
      ],
      "transaction": {
        "from": "0xc77f7fed3b5cc8249adc428c5f44c9063b9734b4",
        "to": "0xbf4a322f1496e5c3d34a9bcdb4c60567b38c7de2",
        "gas": "0x16fea",
        "value": "0x0",
        "input": "0xe4849b320000000000000000000000000000000000000000000000351dccda2ea132b97c",
        "nonce": "0xc25",
        "chainId": "0xaa36a7"
      },
      "additionalContracts": [],
      "isFixedGasLimit": false
    }
  ],
  "receipts": [
    {
      "status": "0x1",
      "cumulativeGasUsed": "0xb5df78",
      "logs": [
        {
          "address": "0xbf4a322f1496e5c3d34a9bcdb4c60567b38c7de2",
          "topics": [
            "0xddf252ad1be2c89b69c2b068fc378daa952ba7f163c4a11628f55a4df523b3ef",
            "0x000000000000000000000000c77f7fed3b5cc8249adc428c5f44c9063b9734b4",
            "0x0000000000000000000000000000000000000000000000000000000000000000"
          ],
          "data": "0x0000000000000000000000000000000000000000000000351dccda2ea132b97c",
          "blockHash": "0xd481672deaef5a90ecd2342e88f461f5095790786a410771b0c8cd6ce19a523c",
          "blockNumber": "0x725c56",
          "transactionHash": "0x3367fd22409944b3157315107ed81b31f330d4b18ad0f14b7fb23f7a45edb16a",
          "transactionIndex": "0x5d",
          "logIndex": "0xa8",
          "removed": false
        },
        {
          "address": "0xbf4a322f1496e5c3d34a9bcdb4c60567b38c7de2",
          "topics": [
            "0x4afcb4a87cdbd9974efdb92ee48bc8d7cd0ae4bf217004db3d080cbaee652ca7"
          ],
          "data": "0x0000000000000000000000000000000000000000000000000000000067874664000000000000000000000000000000000000000000000000000399c0956463180000000000000000000000000000000000000000000000000dc7e3e1a8ad7f9b",
          "blockHash": "0xd481672deaef5a90ecd2342e88f461f5095790786a410771b0c8cd6ce19a523c",
          "blockNumber": "0x725c56",
          "transactionHash": "0x3367fd22409944b3157315107ed81b31f330d4b18ad0f14b7fb23f7a45edb16a",
          "transactionIndex": "0x5d",
          "logIndex": "0xa9",
          "removed": false
        }
      ],
      "logsBloom": "0x00000000000000000000000000000000000000000000000000000000000000000000000000000000000000000000000000000000000000004000000000000000000000000000000000000008000000000000001000000000000000000000000000000000020000000000000000000800020000000000000000000010000000000000000000000000000000000000000000000000000008000000010000000000000000000000000000000000000000004000000000000000000000000000000000000002000000800000000000001000000000000000080000000000000020000000000000000000000000000000000000000000000000000000000000000000",
      "type": "0x2",
      "transactionHash": "0x3367fd22409944b3157315107ed81b31f330d4b18ad0f14b7fb23f7a45edb16a",
      "transactionIndex": "0x5d",
      "blockHash": "0xd481672deaef5a90ecd2342e88f461f5095790786a410771b0c8cd6ce19a523c",
      "blockNumber": "0x725c56",
      "gasUsed": "0xfb91",
      "effectiveGasPrice": "0x16d6afcb4",
      "from": "0xc77f7fed3b5cc8249adc428c5f44c9063b9734b4",
      "to": "0xbf4a322f1496e5c3d34a9bcdb4c60567b38c7de2",
      "contractAddress": null
    }
  ],
  "libraries": [],
  "pending": [],
  "returns": {},
  "timestamp": 1736918630,
  "chain": 11155111,
  "commit": "51a374b"
}