{
  "transactions": [
    {
      "hash": "0x561d42d75e2541dcc4bc16d69efcb2d0c189e79f2eff3e799a79319d59dffd33",
      "transactionType": "CALL",
      "contractName": null,
      "contractAddress": "0x8aafd3ede9adb0ff97c7aebce82a919afb1c8764",
      "function": "sell(uint256)",
      "arguments": [
        "259439842551414470100"
      ],
      "transaction": {
        "from": "0xc77f7fed3b5cc8249adc428c5f44c9063b9734b4",
        "to": "0x8aafd3ede9adb0ff97c7aebce82a919afb1c8764",
        "gas": "0x17270",
        "value": "0x0",
        "input": "0xe4849b3200000000000000000000000000000000000000000000000e10737a3ab45535d4",
        "nonce": "0x13d6",
        "chainId": "0xaa36a7"
      },
      "additionalContracts": [],
      "isFixedGasLimit": false
    }
  ],
  "receipts": [
    {
      "status": "0x1",
      "cumulativeGasUsed": "0x13bfa0e",
      "logs": [
        {
          "address": "0x8aafd3ede9adb0ff97c7aebce82a919afb1c8764",
          "topics": [
            "0xddf252ad1be2c89b69c2b068fc378daa952ba7f163c4a11628f55a4df523b3ef",
            "0x000000000000000000000000c77f7fed3b5cc8249adc428c5f44c9063b9734b4",
            "0x0000000000000000000000000000000000000000000000000000000000000000"
          ],
          "data": "0x00000000000000000000000000000000000000000000000df3a5c0ee75733fa4",
          "blockHash": "0x93f0324a53533b8f643e5f115927423d49759af73bb14a914a0c3990225badbb",
          "blockNumber": "0x731b03",
          "transactionHash": "0x561d42d75e2541dcc4bc16d69efcb2d0c189e79f2eff3e799a79319d59dffd33",
          "transactionIndex": "0xab",
          "logIndex": "0xdc",
          "removed": false
        },
        {
          "address": "0x8aafd3ede9adb0ff97c7aebce82a919afb1c8764",
          "topics": [
            "0xddf252ad1be2c89b69c2b068fc378daa952ba7f163c4a11628f55a4df523b3ef",
            "0x000000000000000000000000c77f7fed3b5cc8249adc428c5f44c9063b9734b4",
            "0x000000000000000000000000c77f7fed3b5cc8249adc428c5f44c9063b9734b4"
          ],
          "data": "0x0000000000000000000000000000000000000000000000001ccdb94c3ee1f630",
          "blockHash": "0x93f0324a53533b8f643e5f115927423d49759af73bb14a914a0c3990225badbb",
          "blockNumber": "0x731b03",
          "transactionHash": "0x561d42d75e2541dcc4bc16d69efcb2d0c189e79f2eff3e799a79319d59dffd33",
          "transactionIndex": "0xab",
          "logIndex": "0xdd",
          "removed": false
        },
        {
          "address": "0x8aafd3ede9adb0ff97c7aebce82a919afb1c8764",
          "topics": [
            "0x4afcb4a87cdbd9974efdb92ee48bc8d7cd0ae4bf217004db3d080cbaee652ca7"
          ],
          "data": "0x00000000000000000000000000000000000000000000000000000000679040f4000000000000000000000000000000000000000000000000000db3220cc5cdec0000000000000000000000000000000000000000000000000dce1c4de47f0606",
          "blockHash": "0x93f0324a53533b8f643e5f115927423d49759af73bb14a914a0c3990225badbb",
          "blockNumber": "0x731b03",
          "transactionHash": "0x561d42d75e2541dcc4bc16d69efcb2d0c189e79f2eff3e799a79319d59dffd33",
          "transactionIndex": "0xab",
          "logIndex": "0xde",
          "removed": false
        }
      ],
      "logsBloom": "0x00000000000000000000000000000000000000000600000000000000000000000000000000000000000000000000000000000000000000004000000000000000000000000000004000000008000000000000000000000000000000000000000000000000020000000000000000000800020000000000000000000010000000000000000000000000000000000000000000000000000000000000010000000000000000000000000000000000000000004000000000000000000000000000000000000002000000800000000000000000000000000000080000000000000020000000000000000000000000000000000000000000000000000000000000000000",
      "type": "0x2",
      "transactionHash": "0x561d42d75e2541dcc4bc16d69efcb2d0c189e79f2eff3e799a79319d59dffd33",
      "transactionIndex": "0xab",
      "blockHash": "0x93f0324a53533b8f643e5f115927423d49759af73bb14a914a0c3990225badbb",
      "blockNumber": "0x731b03",
      "gasUsed": "0xfd4b",
      "effectiveGasPrice": "0x88b54f70",
      "from": "0xc77f7fed3b5cc8249adc428c5f44c9063b9734b4",
      "to": "0x8aafd3ede9adb0ff97c7aebce82a919afb1c8764",
      "contractAddress": null
    }
  ],
  "libraries": [],
  "pending": [],
  "returns": {},
  "timestamp": 1737507061,
  "chain": 11155111,
  "commit": "1d2fb70"
}