{
  "transactions": [
    {
      "hash": "0x49ab3ba1d5f9f740208d838a6f90014cc33ff3a87f1a7f4b31c270169353bf72",
      "transactionType": "CALL",
      "contractName": null,
      "contractAddress": "0xbf4a322f1496e5c3d34a9bcdb4c60567b38c7de2",
      "function": "buy(address)",
      "arguments": [
        "0xC77f7fed3b5Cc8249aDc428c5F44C9063B9734b4"
      ],
      "transaction": {
        "from": "0xc77f7fed3b5cc8249adc428c5f44c9063b9734b4",
        "to": "0xbf4a322f1496e5c3d34a9bcdb4c60567b38c7de2",
        "gas": "0x1b309",
        "value": "0xde0b6b3a7640000",
        "input": "0xf088d547000000000000000000000000c77f7fed3b5cc8249adc428c5f44c9063b9734b4",
        "nonce": "0x8d6",
        "chainId": "0xaa36a7"
      },
      "additionalContracts": [],
      "isFixedGasLimit": false
    }
  ],
  "receipts": [
    {
      "status": "0x1",
      "cumulativeGasUsed": "0xd56a7d",
      "logs": [
        {
          "address": "0xbf4a322f1496e5c3d34a9bcdb4c60567b38c7de2",
          "topics": [
            "0xddf252ad1be2c89b69c2b068fc378daa952ba7f163c4a11628f55a4df523b3ef",
            "0x0000000000000000000000000000000000000000000000000000000000000000",
            "0x000000000000000000000000c77f7fed3b5cc8249adc428c5f44c9063b9734b4"
          ],
          "data": "0x000000000000000000000000000000000000000000000035939f6bf7582c73da",
          "blockHash": "0x60269b91d00f36335726fad9c203f76d6d083c01da6d114d68c964347ba1dffd",
          "blockNumber": "0x725848",
          "transactionHash": "0x49ab3ba1d5f9f740208d838a6f90014cc33ff3a87f1a7f4b31c270169353bf72",
          "transactionIndex": "0x72",
          "logIndex": "0xa6",
          "removed": false
        },
        {
          "address": "0xbf4a322f1496e5c3d34a9bcdb4c60567b38c7de2",
          "topics": [
            "0xddf252ad1be2c89b69c2b068fc378daa952ba7f163c4a11628f55a4df523b3ef",
            "0x0000000000000000000000000000000000000000000000000000000000000000",
            "0x000000000000000000000000c77f7fed3b5cc8249adc428c5f44c9063b9734b4"
          ],
          "data": "0x000000000000000000000000000000000000000000000000299aa61e1675f753",
          "blockHash": "0x60269b91d00f36335726fad9c203f76d6d083c01da6d114d68c964347ba1dffd",
          "blockNumber": "0x725848",
          "transactionHash": "0x49ab3ba1d5f9f740208d838a6f90014cc33ff3a87f1a7f4b31c270169353bf72",
          "transactionIndex": "0x72",
          "logIndex": "0xa7",
          "removed": false
        },
        {
          "address": "0xbf4a322f1496e5c3d34a9bcdb4c60567b38c7de2",
          "topics": [
            "0x4afcb4a87cdbd9974efdb92ee48bc8d7cd0ae4bf217004db3d080cbaee652ca7"
          ],
          "data": "0x000000000000000000000000000000000000000000000000000000006787158000000000000000000000000000000000000000000000000000038f0dfba501d50000000000000000000000000000000000000000000000000de0b6b3a7640000",
          "blockHash": "0x60269b91d00f36335726fad9c203f76d6d083c01da6d114d68c964347ba1dffd",
          "blockNumber": "0x725848",
          "transactionHash": "0x49ab3ba1d5f9f740208d838a6f90014cc33ff3a87f1a7f4b31c270169353bf72",
          "transactionIndex": "0x72",
          "logIndex": "0xa8",
          "removed": false
        }
      ],
      "logsBloom": "0x00000000000000000000000000000000000000000000000000000000000000000000000000000000000000000000000000000000000000004000000000000000000000000000000000000008000000000000001000000000000000000000000000000000020000000000000000000800020000000000000000000010000000000000000000000000000000000000000000000000000008000000010000000000000000000000000000000000000000004000000000000000000000000000000000000002000000800000000000001000000000000000080000000000000020000000000000000000000000000000000000000000000000000000000000000000",
      "type": "0x2",
      "transactionHash": "0x49ab3ba1d5f9f740208d838a6f90014cc33ff3a87f1a7f4b31c270169353bf72",
      "transactionIndex": "0x72",
      "blockHash": "0x60269b91d00f36335726fad9c203f76d6d083c01da6d114d68c964347ba1dffd",
      "blockNumber": "0x725848",
      "gasUsed": "0x13af6",
      "effectiveGasPrice": "0x1e9aaace",
      "from": "0xc77f7fed3b5cc8249adc428c5f44c9063b9734b4",
      "to": "0xbf4a322f1496e5c3d34a9bcdb4c60567b38c7de2",
      "contractAddress": null
    }
  ],
  "libraries": [],
  "pending": [],
  "returns": {},
  "timestamp": 1736906115,
  "chain": 11155111,
  "commit": "51a374b"
}