{
  "transactions": [
    {
      "hash": "0xcbe3f0202816dbdfe1465621e6d3b01e579f181d6933be40753d28abe7b2493f",
      "transactionType": "CALL",
      "contractName": null,
      "contractAddress": "0x5eb9cc76c3506942c1c0ead70e877dd5e4f00cb0",
      "function": "buy(address)",
      "arguments": [
        "0xC77f7fed3b5Cc8249aDc428c5F44C9063B9734b4"
      ],
      "transaction": {
        "from": "0xc77f7fed3b5cc8249adc428c5f44c9063b9734b4",
        "to": "0x5eb9cc76c3506942c1c0ead70e877dd5e4f00cb0",
        "gas": "0x156c8",
        "value": "0xde0b6b3a7640000",
        "input": "0xf088d547000000000000000000000000c77f7fed3b5cc8249adc428c5f44c9063b9734b4",
        "nonce": "0x14b",
        "chainId": "0xaa36a7"
      },
      "additionalContracts": [],
      "isFixedGasLimit": false
    }
  ],
  "receipts": [
    {
      "status": "0x1",
      "cumulativeGasUsed": "0x600eea",
      "logs": [
        {
          "address": "0x5eb9cc76c3506942c1c0ead70e877dd5e4f00cb0",
          "topics": [
            "0xddf252ad1be2c89b69c2b068fc378daa952ba7f163c4a11628f55a4df523b3ef",
            "0x0000000000000000000000000000000000000000000000000000000000000000",
            "0x000000000000000000000000c77f7fed3b5cc8249adc428c5f44c9063b9734b4"
          ],
          "data": "0x000000000000000000000000000000000000000000000035aaf42976de5834a6",
          "blockHash": "0x8c83baeaa52f88b750182e9801cc5894f5c5e1007c35736c9de3ff7dbe547635",
          "blockNumber": "0x723b3b",
          "transactionHash": "0xcbe3f0202816dbdfe1465621e6d3b01e579f181d6933be40753d28abe7b2493f",
          "transactionIndex": "0x3d",
          "logIndex": "0x56",
          "removed": false
        },
        {
          "address": "0x5eb9cc76c3506942c1c0ead70e877dd5e4f00cb0",
          "topics": [
            "0xddf252ad1be2c89b69c2b068fc378daa952ba7f163c4a11628f55a4df523b3ef",
            "0x0000000000000000000000000000000000000000000000000000000000000000",
            "0x000000000000000000000000c77f7fed3b5cc8249adc428c5f44c9063b9734b4"
          ],
          "data": "0x00000000000000000000000000000000000000000000000029acc4276f8e45b8",
          "blockHash": "0x8c83baeaa52f88b750182e9801cc5894f5c5e1007c35736c9de3ff7dbe547635",
          "blockNumber": "0x723b3b",
          "transactionHash": "0xcbe3f0202816dbdfe1465621e6d3b01e579f181d6933be40753d28abe7b2493f",
          "transactionIndex": "0x3d",
          "logIndex": "0x57",
          "removed": false
        },
        {
          "address": "0x5eb9cc76c3506942c1c0ead70e877dd5e4f00cb0",
          "topics": [
            "0x4afcb4a87cdbd9974efdb92ee48bc8d7cd0ae4bf217004db3d080cbaee652ca7"
          ],
          "data": "0x000000000000000000000000000000000000000000000000000000006785b81800000000000000000000000000000000000000000000000000038d7f9f6aca4e0000000000000000000000000000000000000000000000000de0b6b3a7640000",
          "blockHash": "0x8c83baeaa52f88b750182e9801cc5894f5c5e1007c35736c9de3ff7dbe547635",
          "blockNumber": "0x723b3b",
          "transactionHash": "0xcbe3f0202816dbdfe1465621e6d3b01e579f181d6933be40753d28abe7b2493f",
          "transactionIndex": "0x3d",
          "logIndex": "0x58",
          "removed": false
        }
      ],
      "logsBloom": "0x00000000000000000000000000000000000000000000000000000000000000000000000000000000000000000000000000000000000000004000000000000000000000000000000000000008000000000000000000000000000000000000000000000000020000000000000004000800020000000000000000000010000000000000000000000000000000000000000000000000000000000000010000000000000000000000000000000000000000004000000000000000000000000000020000000002000000800000008000000000000000000000080000000000000020000000000000000000000000000000000000000000000000000000000000000000",
      "type": "0x2",
      "transactionHash": "0xcbe3f0202816dbdfe1465621e6d3b01e579f181d6933be40753d28abe7b2493f",
      "transactionIndex": "0x3d",
      "blockHash": "0x8c83baeaa52f88b750182e9801cc5894f5c5e1007c35736c9de3ff7dbe547635",
      "blockNumber": "0x723b3b",
      "gasUsed": "0xf82c",
      "effectiveGasPrice": "0x3fa0b2166",
      "from": "0xc77f7fed3b5cc8249adc428c5f44c9063b9734b4",
      "to": "0x5eb9cc76c3506942c1c0ead70e877dd5e4f00cb0",
      "contractAddress": null
    }
  ],
  "libraries": [],
  "pending": [],
  "returns": {},
  "timestamp": 1736816665,
  "chain": 11155111,
  "commit": "51a374b"
}