{
  "transactions": [
    {
      "hash": "0x90d8caac5f2ce1fe43e7bc27ac3fa3f56e643716047dca7812bbe6d7fabb522a",
      "transactionType": "CALL",
      "contractName": null,
      "contractAddress": "0x8aafd3ede9adb0ff97c7aebce82a919afb1c8764",
      "function": "sell(uint256)",
      "arguments": [
        "5988255866055575256"
      ],
      "transaction": {
        "from": "0xc77f7fed3b5cc8249adc428c5f44c9063b9734b4",
        "to": "0x8aafd3ede9adb0ff97c7aebce82a919afb1c8764",
        "gas": "0x15dca",
        "value": "0x0",
        "input": "0xe4849b32000000000000000000000000000000000000000000000000531a8efba86446d8",
        "nonce": "0xe93",
        "chainId": "0xaa36a7"
      },
      "additionalContracts": [],
      "isFixedGasLimit": false
    }
  ],
  "receipts": [
    {
      "status": "0x1",
      "cumulativeGasUsed": "0x109d74f",
      "logs": [
        {
          "address": "0x8aafd3ede9adb0ff97c7aebce82a919afb1c8764",
          "topics": [
            "0xddf252ad1be2c89b69c2b068fc378daa952ba7f163c4a11628f55a4df523b3ef",
            "0x000000000000000000000000c77f7fed3b5cc8249adc428c5f44c9063b9734b4",
            "0x0000000000000000000000000000000000000000000000000000000000000000"
          ],
          "data": "0x00000000000000000000000000000000000000000000000052705cafeaa0ea1e",
          "blockHash": "0x39f6e09937897058abad384067f1f7e81b12f7f8b283937a904c53bfa1520bc3",
          "blockNumber": "0x7313f0",
          "transactionHash": "0x90d8caac5f2ce1fe43e7bc27ac3fa3f56e643716047dca7812bbe6d7fabb522a",
          "transactionIndex": "0x89",
          "logIndex": "0xd5",
          "removed": false
        },
        {
          "address": "0x8aafd3ede9adb0ff97c7aebce82a919afb1c8764",
          "topics": [
            "0xddf252ad1be2c89b69c2b068fc378daa952ba7f163c4a11628f55a4df523b3ef",
            "0x000000000000000000000000c77f7fed3b5cc8249adc428c5f44c9063b9734b4",
            "0x000000000000000000000000c77f7fed3b5cc8249adc428c5f44c9063b9734b4"
          ],
          "data": "0x00000000000000000000000000000000000000000000000000aa324bbdc35cba",
          "blockHash": "0x39f6e09937897058abad384067f1f7e81b12f7f8b283937a904c53bfa1520bc3",
          "blockNumber": "0x7313f0",
          "transactionHash": "0x90d8caac5f2ce1fe43e7bc27ac3fa3f56e643716047dca7812bbe6d7fabb522a",
          "transactionIndex": "0x89",
          "logIndex": "0xd6",
          "removed": false
        },
        {
          "address": "0x8aafd3ede9adb0ff97c7aebce82a919afb1c8764",
          "topics": [
            "0x4afcb4a87cdbd9974efdb92ee48bc8d7cd0ae4bf217004db3d080cbaee652ca7"
          ],
          "data": "0x00000000000000000000000000000000000000000000000000000000678febd40000000000000000000000000000000000000000000000000004b6f3b1c14042000000000000000000000000000000000000000000000000001c3b85de0b0ad7",
          "blockHash": "0x39f6e09937897058abad384067f1f7e81b12f7f8b283937a904c53bfa1520bc3",
          "blockNumber": "0x7313f0",
          "transactionHash": "0x90d8caac5f2ce1fe43e7bc27ac3fa3f56e643716047dca7812bbe6d7fabb522a",
          "transactionIndex": "0x89",
          "logIndex": "0xd7",
          "removed": false
        }
      ],
      "logsBloom": "0x00000000000000000000000000000000000000000600000000000000000000000000000000000000000000000000000000000000000000004000000000000000000000000000004000000008000000000000000000000000000000000000000000000000020000000000000000000800020000000000000000000010000000000000000000000000000000000000000000000000000000000000010000000000000000000000000000000000000000004000000000000000000000000000000000000002000000800000000000000000000000000000080000000000000020000000000000000000000000000000000000000000000000000000000000000000",
      "type": "0x2",
      "transactionHash": "0x90d8caac5f2ce1fe43e7bc27ac3fa3f56e643716047dca7812bbe6d7fabb522a",
      "transactionIndex": "0x89",
      "blockHash": "0x39f6e09937897058abad384067f1f7e81b12f7f8b283937a904c53bfa1520bc3",
      "blockNumber": "0x7313f0",
      "gasUsed": "0xfd3f",
      "effectiveGasPrice": "0x7ca7ec0d",
      "from": "0xc77f7fed3b5cc8249adc428c5f44c9063b9734b4",
      "to": "0x8aafd3ede9adb0ff97c7aebce82a919afb1c8764",
      "contractAddress": null
    }
  ],
  "libraries": [],
  "pending": [],
  "returns": {},
  "timestamp": 1737485270,
  "chain": 11155111,
  "commit": "51a374b"
}