{
  "transactions": [
    {
      "hash": "0xa74551f277c3998f5857559fd2a1e8d40c8940b8d749ec4ff77635c674bd672d",
      "transactionType": "CALL",
      "contractName": null,
      "contractAddress": "0x8aafd3ede9adb0ff97c7aebce82a919afb1c8764",
      "function": "sell(uint256)",
      "arguments": [
        "344676379020432"
      ],
      "transaction": {
        "from": "0xc77f7fed3b5cc8249adc428c5f44c9063b9734b4",
        "to": "0x8aafd3ede9adb0ff97c7aebce82a919afb1c8764",
        "gas": "0x1724d",
        "value": "0x0",
        "input": "0xe4849b320000000000000000000000000000000000000000000000000001397b39224c90",
        "nonce": "0x1260",
        "chainId": "0xaa36a7"
      },
      "additionalContracts": [],
      "isFixedGasLimit": false
    }
  ],
  "receipts": [
    {
      "status": "0x1",
      "cumulativeGasUsed": "0x89bd04",
      "logs": [
        {
          "address": "0x8aafd3ede9adb0ff97c7aebce82a919afb1c8764",
          "topics": [
            "0xddf252ad1be2c89b69c2b068fc378daa952ba7f163c4a11628f55a4df523b3ef",
            "0x000000000000000000000000c77f7fed3b5cc8249adc428c5f44c9063b9734b4",
            "0x0000000000000000000000000000000000000000000000000000000000000000"
          ],
          "data": "0x000000000000000000000000000000000000000000000000000136f936a1002d",
          "blockHash": "0x0d6c139d286e4ffb939d31410663859d6d2279a070990c0caab4c3cbc6c1c62a",
          "blockNumber": "0x731945",
          "transactionHash": "0xa74551f277c3998f5857559fd2a1e8d40c8940b8d749ec4ff77635c674bd672d",
          "transactionIndex": "0x6c",
          "logIndex": "0x78",
          "removed": false
        },
        {
          "address": "0x8aafd3ede9adb0ff97c7aebce82a919afb1c8764",
          "topics": [
            "0xddf252ad1be2c89b69c2b068fc378daa952ba7f163c4a11628f55a4df523b3ef",
            "0x000000000000000000000000c77f7fed3b5cc8249adc428c5f44c9063b9734b4",
            "0x000000000000000000000000c77f7fed3b5cc8249adc428c5f44c9063b9734b4"
          ],
          "data": "0x0000000000000000000000000000000000000000000000000000028202814c63",
          "blockHash": "0x0d6c139d286e4ffb939d31410663859d6d2279a070990c0caab4c3cbc6c1c62a",
          "blockNumber": "0x731945",
          "transactionHash": "0xa74551f277c3998f5857559fd2a1e8d40c8940b8d749ec4ff77635c674bd672d",
          "transactionIndex": "0x6c",
          "logIndex": "0x79",
          "removed": false
        },
        {
          "address": "0x8aafd3ede9adb0ff97c7aebce82a919afb1c8764",
          "topics": [
            "0x4afcb4a87cdbd9974efdb92ee48bc8d7cd0ae4bf217004db3d080cbaee652ca7"
          ],
          "data": "0x0000000000000000000000000000000000000000000000000000000067902c0c00000000000000000000000000000000000000000000000000053f02a7aa78f00000000000000000000000000000000000000000000000000000007680df949e",
          "blockHash": "0x0d6c139d286e4ffb939d31410663859d6d2279a070990c0caab4c3cbc6c1c62a",
          "blockNumber": "0x731945",
          "transactionHash": "0xa74551f277c3998f5857559fd2a1e8d40c8940b8d749ec4ff77635c674bd672d",
          "transactionIndex": "0x6c",
          "logIndex": "0x7a",
          "removed": false
        }
      ],
      "logsBloom": "0x00000000000000000000000000000000000000000600000000000000000000000000000000000000000000000000000000000000000000004000000000000000000000000000004000000008000000000000000000000000000000000000000000000000020000000000000000000800020000000000000000000010000000000000000000000000000000000000000000000000000000000000010000000000000000000000000000000000000000004000000000000000000000000000000000000002000000800000000000000000000000000000080000000000000020000000000000000000000000000000000000000000000000000000000000000000",
      "type": "0x2",
      "transactionHash": "0xa74551f277c3998f5857559fd2a1e8d40c8940b8d749ec4ff77635c674bd672d",
      "transactionIndex": "0x6c",
      "blockHash": "0x0d6c139d286e4ffb939d31410663859d6d2279a070990c0caab4c3cbc6c1c62a",
      "blockNumber": "0x731945",
      "gasUsed": "0xfd33",
      "effectiveGasPrice": "0x3c5206a0",
      "from": "0xc77f7fed3b5cc8249adc428c5f44c9063b9734b4",
      "to": "0x8aafd3ede9adb0ff97c7aebce82a919afb1c8764",
      "contractAddress": null
    }
  ],
  "libraries": [],
  "pending": [],
  "returns": {},
  "timestamp": 1737501710,
  "chain": 11155111,
  "commit": "1d2fb70"
}