{
  "transactions": [
    {
      "hash": "0xe612a063dacb959eba9e61454eb5c7a540f671498b0fcc554f5fdd1855e379de",
      "transactionType": "CALL",
      "contractName": null,
      "contractAddress": "0xbf4a322f1496e5c3d34a9bcdb4c60567b38c7de2",
      "function": "buy(address)",
      "arguments": [
        "0xC77f7fed3b5Cc8249aDc428c5F44C9063B9734b4"
      ],
      "transaction": {
        "from": "0xc77f7fed3b5cc8249adc428c5f44c9063b9734b4",
        "to": "0xbf4a322f1496e5c3d34a9bcdb4c60567b38c7de2",
        "gas": "0x1b309",
        "value": "0xde0b6b3a7640000",
        "input": "0xf088d547000000000000000000000000c77f7fed3b5cc8249adc428c5f44c9063b9734b4",
        "nonce": "0xa06",
        "chainId": "0xaa36a7"
      },
      "additionalContracts": [],
      "isFixedGasLimit": false
    }
  ],
  "receipts": [
    {
      "status": "0x1",
      "cumulativeGasUsed": "0xff17fc",
      "logs": [
        {
          "address": "0xbf4a322f1496e5c3d34a9bcdb4c60567b38c7de2",
          "topics": [
            "0xddf252ad1be2c89b69c2b068fc378daa952ba7f163c4a11628f55a4df523b3ef",
            "0x0000000000000000000000000000000000000000000000000000000000000000",
            "0x000000000000000000000000c77f7fed3b5cc8249adc428c5f44c9063b9734b4"
          ],
          "data": "0x0000000000000000000000000000000000000000000000355a14b10e28dcaf7d",
          "blockHash": "0x73dec9d6c24ea64b73856820e6ef9212710411808b271c758be8ed6b978019b0",
          "blockNumber": "0x7259c2",
          "transactionHash": "0xe612a063dacb959eba9e61454eb5c7a540f671498b0fcc554f5fdd1855e379de",
          "transactionIndex": "0x86",
          "logIndex": "0xd5",
          "removed": false
        },
        {
          "address": "0xbf4a322f1496e5c3d34a9bcdb4c60567b38c7de2",
          "topics": [
            "0xddf252ad1be2c89b69c2b068fc378daa952ba7f163c4a11628f55a4df523b3ef",
            "0x0000000000000000000000000000000000000000000000000000000000000000",
            "0x000000000000000000000000c77f7fed3b5cc8249adc428c5f44c9063b9734b4"
          ],
          "data": "0x000000000000000000000000000000000000000000000000296df734003795fd",
          "blockHash": "0x73dec9d6c24ea64b73856820e6ef9212710411808b271c758be8ed6b978019b0",
          "blockNumber": "0x7259c2",
          "transactionHash": "0xe612a063dacb959eba9e61454eb5c7a540f671498b0fcc554f5fdd1855e379de",
          "transactionIndex": "0x86",
          "logIndex": "0xd6",
          "removed": false
        },
        {
          "address": "0xbf4a322f1496e5c3d34a9bcdb4c60567b38c7de2",
          "topics": [
            "0x4afcb4a87cdbd9974efdb92ee48bc8d7cd0ae4bf217004db3d080cbaee652ca7"
          ],
          "data": "0x000000000000000000000000000000000000000000000000000000006787275c000000000000000000000000000000000000000000000000000392e4940a49560000000000000000000000000000000000000000000000000de0b6b3a7640000",
          "blockHash": "0x73dec9d6c24ea64b73856820e6ef9212710411808b271c758be8ed6b978019b0",
          "blockNumber": "0x7259c2",
          "transactionHash": "0xe612a063dacb959eba9e61454eb5c7a540f671498b0fcc554f5fdd1855e379de",
          "transactionIndex": "0x86",
          "logIndex": "0xd7",
          "removed": false
        }
      ],
      "logsBloom": "0x00000000000000000000000000000000000000000000000000000000000000000000000000000000000000000000000000000000000000004000000000000000000000000000000000000008000000000000001000000000000000000000000000000000020000000000000000000800020000000000000000000010000000000000000000000000000000000000000000000000000008000000010000000000000000000000000000000000000000004000000000000000000000000000000000000002000000800000000000001000000000000000080000000000000020000000000000000000000000000000000000000000000000000000000000000000",
      "type": "0x2",
      "transactionHash": "0xe612a063dacb959eba9e61454eb5c7a540f671498b0fcc554f5fdd1855e379de",
      "transactionIndex": "0x86",
      "blockHash": "0x73dec9d6c24ea64b73856820e6ef9212710411808b271c758be8ed6b978019b0",
      "blockNumber": "0x7259c2",
      "gasUsed": "0x13af6",
      "effectiveGasPrice": "0x3630c8716",
      "from": "0xc77f7fed3b5cc8249adc428c5f44c9063b9734b4",
      "to": "0xbf4a322f1496e5c3d34a9bcdb4c60567b38c7de2",
      "contractAddress": null
    }
  ],
  "libraries": [],
  "pending": [],
  "returns": {},
  "timestamp": 1736910686,
  "chain": 11155111,
  "commit": "51a374b"
}