{
  "transactions": [
    {
      "hash": "0x7075b17c531638ccee6455ff3234c9019d2408b1d5370fdf27685837faa85482",
      "transactionType": "CALL",
      "contractName": null,
      "contractAddress": "0xbf4a322f1496e5c3d34a9bcdb4c60567b38c7de2",
      "function": "buy(address)",
      "arguments": [
        "0xC77f7fed3b5Cc8249aDc428c5F44C9063B9734b4"
      ],
      "transaction": {
        "from": "0xc77f7fed3b5cc8249adc428c5f44c9063b9734b4",
        "to": "0xbf4a322f1496e5c3d34a9bcdb4c60567b38c7de2",
        "gas": "0x1b309",
        "value": "0xde0b6b3a7640000",
        "input": "0xf088d547000000000000000000000000c77f7fed3b5cc8249adc428c5f44c9063b9734b4",
        "nonce": "0xbce",
        "chainId": "0xaa36a7"
      },
      "additionalContracts": [],
      "isFixedGasLimit": false
    }
  ],
  "receipts": [
    {
      "status": "0x1",
      "cumulativeGasUsed": "0x1ffc332",
      "logs": [
        {
          "address": "0xbf4a322f1496e5c3d34a9bcdb4c60567b38c7de2",
          "topics": [
            "0xddf252ad1be2c89b69c2b068fc378daa952ba7f163c4a11628f55a4df523b3ef",
            "0x0000000000000000000000000000000000000000000000000000000000000000",
            "0x000000000000000000000000c77f7fed3b5cc8249adc428c5f44c9063b9734b4"
          ],
          "data": "0x00000000000000000000000000000000000000000000003504aad7ac9286f8e9",
          "blockHash": "0xf3dee60004a4fee5c445f03aede2b32aa0c09d108d7fed1d1403447ad692855f",
          "blockNumber": "0x725bef",
          "transactionHash": "0x7075b17c531638ccee6455ff3234c9019d2408b1d5370fdf27685837faa85482",
          "transactionIndex": "0xca",
          "logIndex": "0x16a",
          "removed": false
        },
        {
          "address": "0xbf4a322f1496e5c3d34a9bcdb4c60567b38c7de2",
          "topics": [
            "0xddf252ad1be2c89b69c2b068fc378daa952ba7f163c4a11628f55a4df523b3ef",
            "0x0000000000000000000000000000000000000000000000000000000000000000",
            "0x000000000000000000000000c77f7fed3b5cc8249adc428c5f44c9063b9734b4"
          ],
          "data": "0x000000000000000000000000000000000000000000000000292ba3a01be7182a",
          "blockHash": "0xf3dee60004a4fee5c445f03aede2b32aa0c09d108d7fed1d1403447ad692855f",
          "blockNumber": "0x725bef",
          "transactionHash": "0x7075b17c531638ccee6455ff3234c9019d2408b1d5370fdf27685837faa85482",
          "transactionIndex": "0xca",
          "logIndex": "0x16b",
          "removed": false
        },
        {
          "address": "0xbf4a322f1496e5c3d34a9bcdb4c60567b38c7de2",
          "topics": [
            "0x4afcb4a87cdbd9974efdb92ee48bc8d7cd0ae4bf217004db3d080cbaee652ca7"
          ],
          "data": "0x0000000000000000000000000000000000000000000000000000000067874190000000000000000000000000000000000000000000000000000398a679a005570000000000000000000000000000000000000000000000000de0b6b3a7640000",
          "blockHash": "0xf3dee60004a4fee5c445f03aede2b32aa0c09d108d7fed1d1403447ad692855f",
          "blockNumber": "0x725bef",
          "transactionHash": "0x7075b17c531638ccee6455ff3234c9019d2408b1d5370fdf27685837faa85482",
          "transactionIndex": "0xca",
          "logIndex": "0x16c",
          "removed": false
        }
      ],
      "logsBloom": "0x00000000000000000000000000000000000000000000000000000000000000000000000000000000000000000000000000000000000000004000000000000000000000000000000000000008000000000000001000000000000000000000000000000000020000000000000000000800020000000000000000000010000000000000000000000000000000000000000000000000000008000000010000000000000000000000000000000000000000004000000000000000000000000000000000000002000000800000000000001000000000000000080000000000000020000000000000000000000000000000000000000000000000000000000000000000",
      "type": "0x2",
      "transactionHash": "0x7075b17c531638ccee6455ff3234c9019d2408b1d5370fdf27685837faa85482",
      "transactionIndex": "0xca",
      "blockHash": "0xf3dee60004a4fee5c445f03aede2b32aa0c09d108d7fed1d1403447ad692855f",
      "blockNumber": "0x725bef",
      "gasUsed": "0x13af6",
      "effectiveGasPrice": "0x79fe8ad3",
      "from": "0xc77f7fed3b5cc8249adc428c5f44c9063b9734b4",
      "to": "0xbf4a322f1496e5c3d34a9bcdb4c60567b38c7de2",
      "contractAddress": null
    }
  ],
  "libraries": [],
  "pending": [],
  "returns": {},
  "timestamp": 1736917394,
  "chain": 11155111,
  "commit": "51a374b"
}