{
  "transactions": [
    {
      "hash": "0x512e903b654c45df5dcb30c50e131c6d099871473fe6500f6a5e6c52d0f9198c",
      "transactionType": "CALL",
      "contractName": null,
      "contractAddress": "0x5eb9cc76c3506942c1c0ead70e877dd5e4f00cb0",
      "function": "buy(address)",
      "arguments": [
        "0xC77f7fed3b5Cc8249aDc428c5F44C9063B9734b4"
      ],
      "transaction": {
        "from": "0xc77f7fed3b5cc8249adc428c5f44c9063b9734b4",
        "to": "0x5eb9cc76c3506942c1c0ead70e877dd5e4f00cb0",
        "gas": "0x1b30c",
        "value": "0xde0b6b3a7640000",
        "input": "0xf088d547000000000000000000000000c77f7fed3b5cc8249adc428c5f44c9063b9734b4",
        "nonce": "0x2c0",
        "chainId": "0xaa36a7"
      },
      "additionalContracts": [],
      "isFixedGasLimit": false
    }
  ],
  "receipts": [
    {
      "status": "0x1",
      "cumulativeGasUsed": "0xe9eba2",
      "logs": [
        {
          "address": "0x5eb9cc76c3506942c1c0ead70e877dd5e4f00cb0",
          "topics": [
            "0xddf252ad1be2c89b69c2b068fc378daa952ba7f163c4a11628f55a4df523b3ef",
            "0x0000000000000000000000000000000000000000000000000000000000000000",
            "0x000000000000000000000000c77f7fed3b5cc8249adc428c5f44c9063b9734b4"
          ],
          "data": "0x00000000000000000000000000000000000000000000003575b6d87a015810b8",
          "blockHash": "0xe526e91f601d52ea37e31272a9ccc910eacbb740c5910f352c582849acc28cec",
          "blockNumber": "0x724e9b",
          "transactionHash": "0x512e903b654c45df5dcb30c50e131c6d099871473fe6500f6a5e6c52d0f9198c",
          "transactionIndex": "0x67",
          "logIndex": "0xa5",
          "removed": false
        },
        {
          "address": "0x5eb9cc76c3506942c1c0ead70e877dd5e4f00cb0",
          "topics": [
            "0xddf252ad1be2c89b69c2b068fc378daa952ba7f163c4a11628f55a4df523b3ef",
            "0x0000000000000000000000000000000000000000000000000000000000000000",
            "0x000000000000000000000000c77f7fed3b5cc8249adc428c5f44c9063b9734b4"
          ],
          "data": "0x00000000000000000000000000000000000000000000000029836c86665de6d0",
          "blockHash": "0xe526e91f601d52ea37e31272a9ccc910eacbb740c5910f352c582849acc28cec",
          "blockNumber": "0x724e9b",
          "transactionHash": "0x512e903b654c45df5dcb30c50e131c6d099871473fe6500f6a5e6c52d0f9198c",
          "transactionIndex": "0x67",
          "logIndex": "0xa6",
          "removed": false
        },
        {
          "address": "0x5eb9cc76c3506942c1c0ead70e877dd5e4f00cb0",
          "topics": [
            "0x4afcb4a87cdbd9974efdb92ee48bc8d7cd0ae4bf217004db3d080cbaee652ca7"
          ],
          "data": "0x000000000000000000000000000000000000000000000000000000006786a0f8000000000000000000000000000000000000000000000000000391095f88ab1b0000000000000000000000000000000000000000000000000de0b6b3a7640000",
          "blockHash": "0xe526e91f601d52ea37e31272a9ccc910eacbb740c5910f352c582849acc28cec",
          "blockNumber": "0x724e9b",
          "transactionHash": "0x512e903b654c45df5dcb30c50e131c6d099871473fe6500f6a5e6c52d0f9198c",
          "transactionIndex": "0x67",
          "logIndex": "0xa7",
          "removed": false
        }
      ],
      "logsBloom": "0x00000000000000000000000000000000000000000000000000000000000000000000000000000000000000000000000000000000000000004000000000000000000000000000000000000008000000000000000000000000000000000000000000000000020000000000000004000800020000000000000000000010000000000000000000000000000000000000000000000000000000000000010000000000000000000000000000000000000000004000000000000000000000000000020000000002000000800000008000000000000000000000080000000000000020000000000000000000000000000000000000000000000000000000000000000000",
      "type": "0x2",
      "transactionHash": "0x512e903b654c45df5dcb30c50e131c6d099871473fe6500f6a5e6c52d0f9198c",
      "transactionIndex": "0x67",
      "blockHash": "0xe526e91f601d52ea37e31272a9ccc910eacbb740c5910f352c582849acc28cec",
      "blockNumber": "0x724e9b",
      "gasUsed": "0x13af8",
      "effectiveGasPrice": "0x43828de7c",
      "from": "0xc77f7fed3b5cc8249adc428c5f44c9063b9734b4",
      "to": "0x5eb9cc76c3506942c1c0ead70e877dd5e4f00cb0",
      "contractAddress": null
    }
  ],
  "libraries": [],
  "pending": [],
  "returns": {},
  "timestamp": 1736876282,
  "chain": 11155111,
  "commit": "51a374b"
}