{
  "transactions": [
    {
      "hash": "0xd83b08b884028bb5bb36ca9877f1ff10135d6e175d2ae7ae33c07f2cea2bd4cd",
      "transactionType": "CALL",
      "contractName": null,
      "contractAddress": "0x270e88f8683660553e8ba4eb2ad7c91a1710d769",
      "function": "buy(address)",
      "arguments": [
        "0xC77f7fed3b5Cc8249aDc428c5F44C9063B9734b4"
      ],
      "transaction": {
        "from": "0xc77f7fed3b5cc8249adc428c5f44c9063b9734b4",
        "to": "0x270e88f8683660553e8ba4eb2ad7c91a1710d769",
        "gas": "0x1b30c",
        "value": "0xde0b6b3a7640000",
        "input": "0xf088d547000000000000000000000000c77f7fed3b5cc8249adc428c5f44c9063b9734b4",
        "nonce": "0x55a",
        "chainId": "0xaa36a7"
      },
      "additionalContracts": [],
      "isFixedGasLimit": false
    }
  ],
  "receipts": [
    {
      "status": "0x1",
      "cumulativeGasUsed": "0x1b7644a",
      "logs": [
        {
          "address": "0x270e88f8683660553e8ba4eb2ad7c91a1710d769",
          "topics": [
            "0xddf252ad1be2c89b69c2b068fc378daa952ba7f163c4a11628f55a4df523b3ef",
            "0x0000000000000000000000000000000000000000000000000000000000000000",
            "0x000000000000000000000000c77f7fed3b5cc8249adc428c5f44c9063b9734b4"
          ],
          "data": "0x00000000000000000000000000000000000000000000003489283c0dcaa7b57f",
          "blockHash": "0x7357bb375f33f56d7e8c8e8890ce9246b162e62d5d5a1c58779cd50c24e67701",
          "blockNumber": "0x7251fd",
          "transactionHash": "0xd83b08b884028bb5bb36ca9877f1ff10135d6e175d2ae7ae33c07f2cea2bd4cd",
          "transactionIndex": "0x78",
          "logIndex": "0xcc",
          "removed": false
        },
        {
          "address": "0x270e88f8683660553e8ba4eb2ad7c91a1710d769",
          "topics": [
            "0xddf252ad1be2c89b69c2b068fc378daa952ba7f163c4a11628f55a4df523b3ef",
            "0x0000000000000000000000000000000000000000000000000000000000000000",
            "0x000000000000000000000000c77f7fed3b5cc8249adc428c5f44c9063b9734b4"
          ],
          "data": "0x00000000000000000000000000000000000000000000000028cbbab2a9038f7c",
          "blockHash": "0x7357bb375f33f56d7e8c8e8890ce9246b162e62d5d5a1c58779cd50c24e67701",
          "blockNumber": "0x7251fd",
          "transactionHash": "0xd83b08b884028bb5bb36ca9877f1ff10135d6e175d2ae7ae33c07f2cea2bd4cd",
          "transactionIndex": "0x78",
          "logIndex": "0xcd",
          "removed": false
        },
        {
          "address": "0x270e88f8683660553e8ba4eb2ad7c91a1710d769",
          "topics": [
            "0x4afcb4a87cdbd9974efdb92ee48bc8d7cd0ae4bf217004db3d080cbaee652ca7"
          ],
          "data": "0x000000000000000000000000000000000000000000000000000000006786c9cc0000000000000000000000000000000000000000000000000003a13344c4fc900000000000000000000000000000000000000000000000000de0b6b3a7640000",
          "blockHash": "0x7357bb375f33f56d7e8c8e8890ce9246b162e62d5d5a1c58779cd50c24e67701",
          "blockNumber": "0x7251fd",
          "transactionHash": "0xd83b08b884028bb5bb36ca9877f1ff10135d6e175d2ae7ae33c07f2cea2bd4cd",
          "transactionIndex": "0x78",
          "logIndex": "0xce",
          "removed": false
        }
      ],
      "logsBloom": "0x00000000000000000000000000000000000000000000000000000000000000000000000000000000000000000000000020000000000000004000000000000000000000000000000000000008000000000000000000000000000000000000000000000000020000000000000000000800020000000000000000000010000000000000000000010000000000000000000000000000000000000000010000000000000000000000000000000000000000004000000000000000000000000000000000000002000000800000000000000000000000000000080000008000000020000000000000000000000000000000000000000000000000000000000000000000",
      "type": "0x2",
      "transactionHash": "0xd83b08b884028bb5bb36ca9877f1ff10135d6e175d2ae7ae33c07f2cea2bd4cd",
      "transactionIndex": "0x78",
      "blockHash": "0x7357bb375f33f56d7e8c8e8890ce9246b162e62d5d5a1c58779cd50c24e67701",
      "blockNumber": "0x7251fd",
      "gasUsed": "0x13af8",
      "effectiveGasPrice": "0x41fc1e789",
      "from": "0xc77f7fed3b5cc8249adc428c5f44c9063b9734b4",
      "to": "0x270e88f8683660553e8ba4eb2ad7c91a1710d769",
      "contractAddress": null
    }
  ],
  "libraries": [],
  "pending": [],
  "returns": {},
  "timestamp": 1736886734,
  "chain": 11155111,
  "commit": "51a374b"
}