{
  "transactions": [
    {
      "hash": "0x2a41d4896f602c26acb89fe3ffb2f537252714eae9c4f43834a3a58a2168a4d8",
      "transactionType": "CALL",
      "contractName": null,
      "contractAddress": "0x8aafd3ede9adb0ff97c7aebce82a919afb1c8764",
      "function": "sell(uint256)",
      "arguments": [
        "9163083951863013"
      ],
      "transaction": {
        "from": "0xc77f7fed3b5cc8249adc428c5f44c9063b9734b4",
        "to": "0x8aafd3ede9adb0ff97c7aebce82a919afb1c8764",
        "gas": "0x1724d",
        "value": "0x0",
        "input": "0xe4849b3200000000000000000000000000000000000000000000000000208dc6bbff74e5",
        "nonce": "0x1792",
        "chainId": "0xaa36a7"
      },
      "additionalContracts": [],
      "isFixedGasLimit": false
    }
  ],
  "receipts": [
    {
      "status": "0x1",
      "cumulativeGasUsed": "0xca3111",
      "logs": [
        {
          "address": "0x8aafd3ede9adb0ff97c7aebce82a919afb1c8764",
          "topics": [
            "0xddf252ad1be2c89b69c2b068fc378daa952ba7f163c4a11628f55a4df523b3ef",
            "0x000000000000000000000000c77f7fed3b5cc8249adc428c5f44c9063b9734b4",
            "0x0000000000000000000000000000000000000000000000000000000000000000"
          ],
          "data": "0x00000000000000000000000000000000000000000000000000204b1b2915fd2d",
          "blockHash": "0xf281ddfe1cd18d350065e053e9cd391533d7bc468644e2ba9e1c628c3e6faad1",
          "blockNumber": "0x731f6f",
          "transactionHash": "0x2a41d4896f602c26acb89fe3ffb2f537252714eae9c4f43834a3a58a2168a4d8",
          "transactionIndex": "0x70",
          "logIndex": "0x9e",
          "removed": false
        },
        {
          "address": "0x8aafd3ede9adb0ff97c7aebce82a919afb1c8764",
          "topics": [
            "0xddf252ad1be2c89b69c2b068fc378daa952ba7f163c4a11628f55a4df523b3ef",
            "0x000000000000000000000000c77f7fed3b5cc8249adc428c5f44c9063b9734b4",
            "0x000000000000000000000000c77f7fed3b5cc8249adc428c5f44c9063b9734b4"
          ],
          "data": "0x000000000000000000000000000000000000000000000000000042ab92e977b8",
          "blockHash": "0xf281ddfe1cd18d350065e053e9cd391533d7bc468644e2ba9e1c628c3e6faad1",
          "blockNumber": "0x731f6f",
          "transactionHash": "0x2a41d4896f602c26acb89fe3ffb2f537252714eae9c4f43834a3a58a2168a4d8",
          "transactionIndex": "0x70",
          "logIndex": "0x9f",
          "removed": false
        },
        {
          "address": "0x8aafd3ede9adb0ff97c7aebce82a919afb1c8764",
          "topics": [
            "0x4afcb4a87cdbd9974efdb92ee48bc8d7cd0ae4bf217004db3d080cbaee652ca7"
          ],
          "data": "0x000000000000000000000000000000000000000000000000000000006790761c0000000000000000000000000000000000000000000000000018bef86e99114700000000000000000000000000000000000000000000000000003a0c402ccdf0",
          "blockHash": "0xf281ddfe1cd18d350065e053e9cd391533d7bc468644e2ba9e1c628c3e6faad1",
          "blockNumber": "0x731f6f",
          "transactionHash": "0x2a41d4896f602c26acb89fe3ffb2f537252714eae9c4f43834a3a58a2168a4d8",
          "transactionIndex": "0x70",
          "logIndex": "0xa0",
          "removed": false
        }
      ],
      "logsBloom": "0x00000000000000000000000000000000000000000600000000000000000000000000000000000000000000000000000000000000000000004000000000000000000000000000004000000008000000000000000000000000000000000000000000000000020000000000000000000800020000000000000000000010000000000000000000000000000000000000000000000000000000000000010000000000000000000000000000000000000000004000000000000000000000000000000000000002000000800000000000000000000000000000080000000000000020000000000000000000000000000000000000000000000000000000000000000000",
      "type": "0x2",
      "transactionHash": "0x2a41d4896f602c26acb89fe3ffb2f537252714eae9c4f43834a3a58a2168a4d8",
      "transactionIndex": "0x70",
      "blockHash": "0xf281ddfe1cd18d350065e053e9cd391533d7bc468644e2ba9e1c628c3e6faad1",
      "blockNumber": "0x731f6f",
      "gasUsed": "0xfd33",
      "effectiveGasPrice": "0x444c4933",
      "from": "0xc77f7fed3b5cc8249adc428c5f44c9063b9734b4",
      "to": "0x8aafd3ede9adb0ff97c7aebce82a919afb1c8764",
      "contractAddress": null
    }
  ],
  "libraries": [],
  "pending": [],
  "returns": {},
  "timestamp": 1737520669,
  "chain": 11155111,
  "commit": "1d2fb70"
}