{
  "transactions": [
    {
      "hash": "0xc6c19b63cd35c2faa3227064a3281e381e1d0feb9c9ecb1cab572de753593824",
      "transactionType": "CALL",
      "contractName": null,
      "contractAddress": "0x8aafd3ede9adb0ff97c7aebce82a919afb1c8764",
      "function": "sell(uint256)",
      "arguments": [
        "196718432375015663444"
      ],
      "transaction": {
        "from": "0xc77f7fed3b5cc8249adc428c5f44c9063b9734b4",
        "to": "0x8aafd3ede9adb0ff97c7aebce82a919afb1c8764",
        "gas": "0x17270",
        "value": "0x0",
        "input": "0xe4849b3200000000000000000000000000000000000000000000000aaa0443fc7482e754",
        "nonce": "0x1550",
        "chainId": "0xaa36a7"
      },
      "additionalContracts": [],
      "isFixedGasLimit": false
    }
  ],
  "receipts": [
    {
      "status": "0x1",
      "cumulativeGasUsed": "0xba2638",
      "logs": [
        {
          "address": "0x8aafd3ede9adb0ff97c7aebce82a919afb1c8764",
          "topics": [
            "0xddf252ad1be2c89b69c2b068fc378daa952ba7f163c4a11628f55a4df523b3ef",
            "0x000000000000000000000000c77f7fed3b5cc8249adc428c5f44c9063b9734b4",
            "0x0000000000000000000000000000000000000000000000000000000000000000"
          ],
          "data": "0x00000000000000000000000000000000000000000000000a942d3102a0a29fd9",
          "blockHash": "0xa975a97d94b522668a5a8039933e9911a4869e6d1c804d32d86ef52ba290af9d",
          "blockNumber": "0x731cb6",
          "transactionHash": "0xc6c19b63cd35c2faa3227064a3281e381e1d0feb9c9ecb1cab572de753593824",
          "transactionIndex": "0x73",
          "logIndex": "0xe2",
          "removed": false
        },
        {
          "address": "0x8aafd3ede9adb0ff97c7aebce82a919afb1c8764",
          "topics": [
            "0xddf252ad1be2c89b69c2b068fc378daa952ba7f163c4a11628f55a4df523b3ef",
            "0x000000000000000000000000c77f7fed3b5cc8249adc428c5f44c9063b9734b4",
            "0x000000000000000000000000c77f7fed3b5cc8249adc428c5f44c9063b9734b4"
          ],
          "data": "0x00000000000000000000000000000000000000000000000015d712f9d3e0477b",
          "blockHash": "0xa975a97d94b522668a5a8039933e9911a4869e6d1c804d32d86ef52ba290af9d",
          "blockNumber": "0x731cb6",
          "transactionHash": "0xc6c19b63cd35c2faa3227064a3281e381e1d0feb9c9ecb1cab572de753593824",
          "transactionIndex": "0x73",
          "logIndex": "0xe3",
          "removed": false
        },
        {
          "address": "0x8aafd3ede9adb0ff97c7aebce82a919afb1c8764",
          "topics": [
            "0x4afcb4a87cdbd9974efdb92ee48bc8d7cd0ae4bf217004db3d080cbaee652ca7"
          ],
          "data": "0x00000000000000000000000000000000000000000000000000000000679055640000000000000000000000000000000000000000000000000012097100b551920000000000000000000000000000000000000000000000000dcce7d1f94769ce",
          "blockHash": "0xa975a97d94b522668a5a8039933e9911a4869e6d1c804d32d86ef52ba290af9d",
          "blockNumber": "0x731cb6",
          "transactionHash": "0xc6c19b63cd35c2faa3227064a3281e381e1d0feb9c9ecb1cab572de753593824",
          "transactionIndex": "0x73",
          "logIndex": "0xe4",
          "removed": false
        }
      ],
      "logsBloom": "0x00000000000000000000000000000000000000000600000000000000000000000000000000000000000000000000000000000000000000004000000000000000000000000000004000000008000000000000000000000000000000000000000000000000020000000000000000000800020000000000000000000010000000000000000000000000000000000000000000000000000000000000010000000000000000000000000000000000000000004000000000000000000000000000000000000002000000800000000000000000000000000000080000000000000020000000000000000000000000000000000000000000000000000000000000000000",
      "type": "0x2",
      "transactionHash": "0xc6c19b63cd35c2faa3227064a3281e381e1d0feb9c9ecb1cab572de753593824",
      "transactionIndex": "0x73",
      "blockHash": "0xa975a97d94b522668a5a8039933e9911a4869e6d1c804d32d86ef52ba290af9d",
      "blockNumber": "0x731cb6",
      "gasUsed": "0xfd4b",
      "effectiveGasPrice": "0xfbee8823",
      "from": "0xc77f7fed3b5cc8249adc428c5f44c9063b9734b4",
      "to": "0x8aafd3ede9adb0ff97c7aebce82a919afb1c8764",
      "contractAddress": null
    }
  ],
  "libraries": [],
  "pending": [],
  "returns": {},
  "timestamp": 1737512293,
  "chain": 11155111,
  "commit": "1d2fb70"
}