{
  "transactions": [
    {
      "hash": "0xa10f680186899c7b13b910725b5c16ae73724bb8a16242f995d62889f0ef70b1",
      "transactionType": "CALL",
      "contractName": null,
      "contractAddress": "0x8aafd3ede9adb0ff97c7aebce82a919afb1c8764",
      "function": "sell(uint256)",
      "arguments": [
        "11634"
      ],
      "transaction": {
        "from": "0xc77f7fed3b5cc8249adc428c5f44c9063b9734b4",
        "to": "0x8aafd3ede9adb0ff97c7aebce82a919afb1c8764",
        "gas": "0x14e4c",
        "value": "0x0",
        "input": "0xe4849b320000000000000000000000000000000000000000000000000000000000002d72",
        "nonce": "0x1157",
        "chainId": "0xaa36a7"
      },
      "additionalContracts": [],
      "isFixedGasLimit": false
    }
  ],
  "receipts": [
    {
      "status": "0x1",
      "cumulativeGasUsed": "0x8a7a2e",
      "logs": [
        {
          "address": "0x8aafd3ede9adb0ff97c7aebce82a919afb1c8764",
          "topics": [
            "0xddf252ad1be2c89b69c2b068fc378daa952ba7f163c4a11628f55a4df523b3ef",
            "0x000000000000000000000000c77f7fed3b5cc8249adc428c5f44c9063b9734b4",
            "0x0000000000000000000000000000000000000000000000000000000000000000"
          ],
          "data": "0x0000000000000000000000000000000000000000000000000000000000002d15",
          "blockHash": "0x4ad9d71010ddfb088d6a9d1ce2bffbf30dc314993552c1c47d49b5075a4c917d",
          "blockNumber": "0x731813",
          "transactionHash": "0xa10f680186899c7b13b910725b5c16ae73724bb8a16242f995d62889f0ef70b1",
          "transactionIndex": "0x7a",
          "logIndex": "0x86",
          "removed": false
        },
        {
          "address": "0x8aafd3ede9adb0ff97c7aebce82a919afb1c8764",
          "topics": [
            "0xddf252ad1be2c89b69c2b068fc378daa952ba7f163c4a11628f55a4df523b3ef",
            "0x000000000000000000000000c77f7fed3b5cc8249adc428c5f44c9063b9734b4",
            "0x000000000000000000000000c77f7fed3b5cc8249adc428c5f44c9063b9734b4"
          ],
          "data": "0x000000000000000000000000000000000000000000000000000000000000005d",
          "blockHash": "0x4ad9d71010ddfb088d6a9d1ce2bffbf30dc314993552c1c47d49b5075a4c917d",
          "blockNumber": "0x731813",
          "transactionHash": "0xa10f680186899c7b13b910725b5c16ae73724bb8a16242f995d62889f0ef70b1",
          "transactionIndex": "0x7a",
          "logIndex": "0x87",
          "removed": false
        },
        {
          "address": "0x8aafd3ede9adb0ff97c7aebce82a919afb1c8764",
          "topics": [
            "0x4afcb4a87cdbd9974efdb92ee48bc8d7cd0ae4bf217004db3d080cbaee652ca7"
          ],
          "data": "0x0000000000000000000000000000000000000000000000000000000067901da8000000000000000000000000000000000000000000000000000517c7aed330f90000000000000000000000000000000000000000000000000000000000000010",
          "blockHash": "0x4ad9d71010ddfb088d6a9d1ce2bffbf30dc314993552c1c47d49b5075a4c917d",
          "blockNumber": "0x731813",
          "transactionHash": "0xa10f680186899c7b13b910725b5c16ae73724bb8a16242f995d62889f0ef70b1",
          "transactionIndex": "0x7a",
          "logIndex": "0x88",
          "removed": false
        }
      ],
      "logsBloom": "0x00000000000000000000000000000000000000000600000000000000000000000000000000000000000000000000000000000000000000004000000000000000000000000000004000000008000000000000000000000000000000000000000000000000020000000000000000000800020000000000000000000010000000000000000000000000000000000000000000000000000000000000010000000000000000000000000000000000000000004000000000000000000000000000000000000002000000800000000000000000000000000000080000000000000020000000000000000000000000000000000000000000000000000000000000000000",
      "type": "0x2",
      "transactionHash": "0xa10f680186899c7b13b910725b5c16ae73724bb8a16242f995d62889f0ef70b1",
      "transactionIndex": "0x7a",
      "blockHash": "0x4ad9d71010ddfb088d6a9d1ce2bffbf30dc314993552c1c47d49b5075a4c917d",
      "blockNumber": "0x731813",
      "gasUsed": "0xf207",
      "effectiveGasPrice": "0x41712e38",
      "from": "0xc77f7fed3b5cc8249adc428c5f44c9063b9734b4",
      "to": "0x8aafd3ede9adb0ff97c7aebce82a919afb1c8764",
      "contractAddress": null
    }
  ],
  "libraries": [],
  "pending": [],
  "returns": {},
  "timestamp": 1737498026,
  "chain": 11155111,
  "commit": "1d2fb70"
}