{
  "transactions": [
    {
      "hash": "0x758afd390e929148121c381d3175c3e5c439b84fdb12c6b37bf6949a1668bc49",
      "transactionType": "CALL",
      "contractName": null,
      "contractAddress": "0x5eb9cc76c3506942c1c0ead70e877dd5e4f00cb0",
      "function": "buy(address)",
      "arguments": [
        "0xC77f7fed3b5Cc8249aDc428c5F44C9063B9734b4"
      ],
      "transaction": {
        "from": "0xc77f7fed3b5cc8249adc428c5f44c9063b9734b4",
        "to": "0x5eb9cc76c3506942c1c0ead70e877dd5e4f00cb0",
        "gas": "0x1b30c",
        "value": "0xde0b6b3a7640000",
        "input": "0xf088d547000000000000000000000000c77f7fed3b5cc8249adc428c5f44c9063b9734b4",
        "nonce": "0x2c6",
        "chainId": "0xaa36a7"
      },
      "additionalContracts": [],
      "isFixedGasLimit": false
    }
  ],
  "receipts": [
    {
      "status": "0x1",
      "cumulativeGasUsed": "0xc8d238",
      "logs": [
        {
          "address": "0x5eb9cc76c3506942c1c0ead70e877dd5e4f00cb0",
          "topics": [
            "0xddf252ad1be2c89b69c2b068fc378daa952ba7f163c4a11628f55a4df523b3ef",
            "0x0000000000000000000000000000000000000000000000000000000000000000",
            "0x000000000000000000000000c77f7fed3b5cc8249adc428c5f44c9063b9734b4"
          ],
          "data": "0x00000000000000000000000000000000000000000000003575b3756e83328fb1",
          "blockHash": "0xa4f0511747e84b4453d6cd7474b991e09ee0203964e619ed54d81bc58eb43291",
          "blockNumber": "0x724ea1",
          "transactionHash": "0x758afd390e929148121c381d3175c3e5c439b84fdb12c6b37bf6949a1668bc49",
          "transactionIndex": "0x59",
          "logIndex": "0x93",
          "removed": false
        },
        {
          "address": "0x5eb9cc76c3506942c1c0ead70e877dd5e4f00cb0",
          "topics": [
            "0xddf252ad1be2c89b69c2b068fc378daa952ba7f163c4a11628f55a4df523b3ef",
            "0x0000000000000000000000000000000000000000000000000000000000000000",
            "0x000000000000000000000000c77f7fed3b5cc8249adc428c5f44c9063b9734b4"
          ],
          "data": "0x000000000000000000000000000000000000000000000000298369e51c24be60",
          "blockHash": "0xa4f0511747e84b4453d6cd7474b991e09ee0203964e619ed54d81bc58eb43291",
          "blockNumber": "0x724ea1",
          "transactionHash": "0x758afd390e929148121c381d3175c3e5c439b84fdb12c6b37bf6949a1668bc49",
          "transactionIndex": "0x59",
          "logIndex": "0x94",
          "removed": false
        },
        {
          "address": "0x5eb9cc76c3506942c1c0ead70e877dd5e4f00cb0",
          "topics": [
            "0x4afcb4a87cdbd9974efdb92ee48bc8d7cd0ae4bf217004db3d080cbaee652ca7"
          ],
          "data": "0x000000000000000000000000000000000000000000000000000000006786a140000000000000000000000000000000000000000000000000000391099960e1920000000000000000000000000000000000000000000000000de0b6b3a7640000",
          "blockHash": "0xa4f0511747e84b4453d6cd7474b991e09ee0203964e619ed54d81bc58eb43291",
          "blockNumber": "0x724ea1",
          "transactionHash": "0x758afd390e929148121c381d3175c3e5c439b84fdb12c6b37bf6949a1668bc49",
          "transactionIndex": "0x59",
          "logIndex": "0x95",
          "removed": false
        }
      ],
      "logsBloom": "0x00000000000000000000000000000000000000000000000000000000000000000000000000000000000000000000000000000000000000004000000000000000000000000000000000000008000000000000000000000000000000000000000000000000020000000000000004000800020000000000000000000010000000000000000000000000000000000000000000000000000000000000010000000000000000000000000000000000000000004000000000000000000000000000020000000002000000800000008000000000000000000000080000000000000020000000000000000000000000000000000000000000000000000000000000000000",
      "type": "0x2",
      "transactionHash": "0x758afd390e929148121c381d3175c3e5c439b84fdb12c6b37bf6949a1668bc49",
      "transactionIndex": "0x59",
      "blockHash": "0xa4f0511747e84b4453d6cd7474b991e09ee0203964e619ed54d81bc58eb43291",
      "blockNumber": "0x724ea1",
      "gasUsed": "0x13af8",
      "effectiveGasPrice": "0x455bb34ed",
      "from": "0xc77f7fed3b5cc8249adc428c5f44c9063b9734b4",
      "to": "0x5eb9cc76c3506942c1c0ead70e877dd5e4f00cb0",
      "contractAddress": null
    }
  ],
  "libraries": [],
  "pending": [],
  "returns": {},
  "timestamp": 1736876354,
  "chain": 11155111,
  "commit": "51a374b"
}