{
  "transactions": [
    {
      "hash": "0x0f05a330e61121266e1910af61dae02eafd8dd067350fa449d85fb5b96a8205e",
      "transactionType": "CALL",
      "contractName": null,
      "contractAddress": "0x8aafd3ede9adb0ff97c7aebce82a919afb1c8764",
      "function": "sell(uint256)",
      "arguments": [
        "172620693566010436497"
      ],
      "transaction": {
        "from": "0xc77f7fed3b5cc8249adc428c5f44c9063b9734b4",
        "to": "0x8aafd3ede9adb0ff97c7aebce82a919afb1c8764",
        "gas": "0x17270",
        "value": "0x0",
        "input": "0xe4849b320000000000000000000000000000000000000000000000095b97e636f39c2b91",
        "nonce": "0x1628",
        "chainId": "0xaa36a7"
      },
      "additionalContracts": [],
      "isFixedGasLimit": false
    }
  ],
  "receipts": [
    {
      "status": "0x1",
      "cumulativeGasUsed": "0xeb0804",
      "logs": [
        {
          "address": "0x8aafd3ede9adb0ff97c7aebce82a919afb1c8764",
          "topics": [
            "0xddf252ad1be2c89b69c2b068fc378daa952ba7f163c4a11628f55a4df523b3ef",
            "0x000000000000000000000000c77f7fed3b5cc8249adc428c5f44c9063b9734b4",
            "0x0000000000000000000000000000000000000000000000000000000000000000"
          ],
          "data": "0x000000000000000000000000000000000000000000000009486db95d6c8a896e",
          "blockHash": "0x031edc431748eb984c2150299da6ceffa35bbe218bfe3cc56f140332494b47df",
          "blockNumber": "0x731dbe",
          "transactionHash": "0x0f05a330e61121266e1910af61dae02eafd8dd067350fa449d85fb5b96a8205e",
          "transactionIndex": "0x81",
          "logIndex": "0xe9",
          "removed": false
        },
        {
          "address": "0x8aafd3ede9adb0ff97c7aebce82a919afb1c8764",
          "topics": [
            "0xddf252ad1be2c89b69c2b068fc378daa952ba7f163c4a11628f55a4df523b3ef",
            "0x000000000000000000000000c77f7fed3b5cc8249adc428c5f44c9063b9734b4",
            "0x000000000000000000000000c77f7fed3b5cc8249adc428c5f44c9063b9734b4"
          ],
          "data": "0x000000000000000000000000000000000000000000000000132a2cd98711a223",
          "blockHash": "0x031edc431748eb984c2150299da6ceffa35bbe218bfe3cc56f140332494b47df",
          "blockNumber": "0x731dbe",
          "transactionHash": "0x0f05a330e61121266e1910af61dae02eafd8dd067350fa449d85fb5b96a8205e",
          "transactionIndex": "0x81",
          "logIndex": "0xea",
          "removed": false
        },
        {
          "address": "0x8aafd3ede9adb0ff97c7aebce82a919afb1c8764",
          "topics": [
            "0x4afcb4a87cdbd9974efdb92ee48bc8d7cd0ae4bf217004db3d080cbaee652ca7"
          ],
          "data": "0x00000000000000000000000000000000000000000000000000000000679061d000000000000000000000000000000000000000000000000000148a827255d6140000000000000000000000000000000000000000000000000dcc6666de67769a",
          "blockHash": "0x031edc431748eb984c2150299da6ceffa35bbe218bfe3cc56f140332494b47df",
          "blockNumber": "0x731dbe",
          "transactionHash": "0x0f05a330e61121266e1910af61dae02eafd8dd067350fa449d85fb5b96a8205e",
          "transactionIndex": "0x81",
          "logIndex": "0xeb",
          "removed": false
        }
      ],
      "logsBloom": "0x00000000000000000000000000000000000000000600000000000000000000000000000000000000000000000000000000000000000000004000000000000000000000000000004000000008000000000000000000000000000000000000000000000000020000000000000000000800020000000000000000000010000000000000000000000000000000000000000000000000000000000000010000000000000000000000000000000000000000004000000000000000000000000000000000000002000000800000000000000000000000000000080000000000000020000000000000000000000000000000000000000000000000000000000000000000",
      "type": "0x2",
      "transactionHash": "0x0f05a330e61121266e1910af61dae02eafd8dd067350fa449d85fb5b96a8205e",
      "transactionIndex": "0x81",
      "blockHash": "0x031edc431748eb984c2150299da6ceffa35bbe218bfe3cc56f140332494b47df",
      "blockNumber": "0x731dbe",
      "gasUsed": "0xfd4b",
      "effectiveGasPrice": "0x5ccf61eb",
      "from": "0xc77f7fed3b5cc8249adc428c5f44c9063b9734b4",
      "to": "0x8aafd3ede9adb0ff97c7aebce82a919afb1c8764",
      "contractAddress": null
    }
  ],
  "libraries": [],
  "pending": [],
  "returns": {},
  "timestamp": 1737515473,
  "chain": 11155111,
  "commit": "1d2fb70"
}