{
  "transactions": [
    {
      "hash": "0x8b492604122bb217c52baa2595f58e1fdec7008c718a44743ad7fde66fb74a5f",
      "transactionType": "CALL",
      "contractName": null,
      "contractAddress": "0xbf4a322f1496e5c3d34a9bcdb4c60567b38c7de2",
      "function": "sell(uint256)",
      "arguments": [
        "975548545194275313516"
      ],
      "transaction": {
        "from": "0xc77f7fed3b5cc8249adc428c5f44c9063b9734b4",
        "to": "0xbf4a322f1496e5c3d34a9bcdb4c60567b38c7de2",
        "gas": "0x16fea",
        "value": "0x0",
        "input": "0xe4849b32000000000000000000000000000000000000000000000034e274a92d2de3176c",
        "nonce": "0xd65",
        "chainId": "0xaa36a7"
      },
      "additionalContracts": [],
      "isFixedGasLimit": false
    }
  ],
  "receipts": [
    {
      "status": "0x1",
      "cumulativeGasUsed": "0xfc0f2c",
      "logs": [
        {
          "address": "0xbf4a322f1496e5c3d34a9bcdb4c60567b38c7de2",
          "topics": [
            "0xddf252ad1be2c89b69c2b068fc378daa952ba7f163c4a11628f55a4df523b3ef",
            "0x000000000000000000000000c77f7fed3b5cc8249adc428c5f44c9063b9734b4",
            "0x0000000000000000000000000000000000000000000000000000000000000000"
          ],
          "data": "0x000000000000000000000000000000000000000000000034e274a92d2de3176c",
          "blockHash": "0xbc6b37868f82039216bf691ea8687393bad291e7bc2774383bee1bf974f32cc3",
          "blockNumber": "0x725dd0",
          "transactionHash": "0x8b492604122bb217c52baa2595f58e1fdec7008c718a44743ad7fde66fb74a5f",
          "transactionIndex": "0x45",
          "logIndex": "0x4e",
          "removed": false
        },
        {
          "address": "0xbf4a322f1496e5c3d34a9bcdb4c60567b38c7de2",
          "topics": [
            "0x4afcb4a87cdbd9974efdb92ee48bc8d7cd0ae4bf217004db3d080cbaee652ca7"
          ],
          "data": "0x000000000000000000000000000000000000000000000000000000006787583400000000000000000000000000000000000000000000000000039dcae6853dfe0000000000000000000000000000000000000000000000000dc7e3d7b76b4002",
          "blockHash": "0xbc6b37868f82039216bf691ea8687393bad291e7bc2774383bee1bf974f32cc3",
          "blockNumber": "0x725dd0",
          "transactionHash": "0x8b492604122bb217c52baa2595f58e1fdec7008c718a44743ad7fde66fb74a5f",
          "transactionIndex": "0x45",
          "logIndex": "0x4f",
          "removed": false
        }
      ],
      "logsBloom": "0x00000000000000000000000000000000000000000000000000000000000000000000000000000000000000000000000000000000000000004000000000000000000000000000000000000008000000000000001000000000000000000000000000000000020000000000000000000800020000000000000000000010000000000000000000000000000000000000000000000000000008000000010000000000000000000000000000000000000000004000000000000000000000000000000000000002000000800000000000001000000000000000080000000000000020000000000000000000000000000000000000000000000000000000000000000000",
      "type": "0x2",
      "transactionHash": "0x8b492604122bb217c52baa2595f58e1fdec7008c718a44743ad7fde66fb74a5f",
      "transactionIndex": "0x45",
      "blockHash": "0xbc6b37868f82039216bf691ea8687393bad291e7bc2774383bee1bf974f32cc3",
      "blockNumber": "0x725dd0",
      "gasUsed": "0xfb91",
      "effectiveGasPrice": "0x31daa9024",
      "from": "0xc77f7fed3b5cc8249adc428c5f44c9063b9734b4",
      "to": "0xbf4a322f1496e5c3d34a9bcdb4c60567b38c7de2",
      "contractAddress": null
    }
  ],
  "libraries": [],
  "pending": [],
  "returns": {},
  "timestamp": 1736923189,
  "chain": 11155111,
  "commit": "51a374b"
}