{
  "transactions": [
    {
      "hash": "0x198e6fdf0f089661295bc6b00e17696d7346e2652017a5b484baf0ca0632026d",
      "transactionType": "CALL",
      "contractName": null,
      "contractAddress": "0x8aafd3ede9adb0ff97c7aebce82a919afb1c8764",
      "function": "sell(uint256)",
      "arguments": [
        "2281006870737096869"
      ],
      "transaction": {
        "from": "0xc77f7fed3b5cc8249adc428c5f44c9063b9734b4",
        "to": "0x8aafd3ede9adb0ff97c7aebce82a919afb1c8764",
        "gas": "0x15dca",
        "value": "0x0",
        "input": "0xe4849b320000000000000000000000000000000000000000000000001fa7c3a9e48290a5",
        "nonce": "0x136b",
        "chainId": "0xaa36a7"
      },
      "additionalContracts": [],
      "isFixedGasLimit": false
    }
  ],
  "receipts": [
    {
      "status": "0x1",
      "cumulativeGasUsed": "0x8ebfe9",
      "logs": [
        {
          "address": "0x8aafd3ede9adb0ff97c7aebce82a919afb1c8764",
          "topics": [
            "0xddf252ad1be2c89b69c2b068fc378daa952ba7f163c4a11628f55a4df523b3ef",
            "0x000000000000000000000000c77f7fed3b5cc8249adc428c5f44c9063b9734b4",
            "0x0000000000000000000000000000000000000000000000000000000000000000"
          ],
          "data": "0x0000000000000000000000000000000000000000000000001f66ef27826d0a5f",
          "blockHash": "0x9a6ad1b59c938a1434dbb3cd05b1065312908cf6930d12e1857b1d0844fa7ee3",
          "blockNumber": "0x731a8b",
          "transactionHash": "0x198e6fdf0f089661295bc6b00e17696d7346e2652017a5b484baf0ca0632026d",
          "transactionIndex": "0x6c",
          "logIndex": "0x86",
          "removed": false
        },
        {
          "address": "0x8aafd3ede9adb0ff97c7aebce82a919afb1c8764",
          "topics": [
            "0xddf252ad1be2c89b69c2b068fc378daa952ba7f163c4a11628f55a4df523b3ef",
            "0x000000000000000000000000c77f7fed3b5cc8249adc428c5f44c9063b9734b4",
            "0x000000000000000000000000c77f7fed3b5cc8249adc428c5f44c9063b9734b4"
          ],
          "data": "0x0000000000000000000000000000000000000000000000000040d48262158646",
          "blockHash": "0x9a6ad1b59c938a1434dbb3cd05b1065312908cf6930d12e1857b1d0844fa7ee3",
          "blockNumber": "0x731a8b",
          "transactionHash": "0x198e6fdf0f089661295bc6b00e17696d7346e2652017a5b484baf0ca0632026d",
          "transactionIndex": "0x6c",
          "logIndex": "0x87",
          "removed": false
        },
        {
          "address": "0x8aafd3ede9adb0ff97c7aebce82a919afb1c8764",
          "topics": [
            "0x4afcb4a87cdbd9974efdb92ee48bc8d7cd0ae4bf217004db3d080cbaee652ca7"
          ],
          "data": "0x0000000000000000000000000000000000000000000000000000000067903b54000000000000000000000000000000000000000000000000000c798ac418246d000000000000000000000000000000000000000000000000001c742013acad18",
          "blockHash": "0x9a6ad1b59c938a1434dbb3cd05b1065312908cf6930d12e1857b1d0844fa7ee3",
          "blockNumber": "0x731a8b",
          "transactionHash": "0x198e6fdf0f089661295bc6b00e17696d7346e2652017a5b484baf0ca0632026d",
          "transactionIndex": "0x6c",
          "logIndex": "0x88",
          "removed": false
        }
      ],
      "logsBloom": "0x00000000000000000000000000000000000000000600000000000000000000000000000000000000000000000000000000000000000000004000000000000000000000000000004000000008000000000000000000000000000000000000000000000000020000000000000000000800020000000000000000000010000000000000000000000000000000000000000000000000000000000000010000000000000000000000000000000000000000004000000000000000000000000000000000000002000000800000000000000000000000000000080000000000000020000000000000000000000000000000000000000000000000000000000000000000",
      "type": "0x2",
      "transactionHash": "0x198e6fdf0f089661295bc6b00e17696d7346e2652017a5b484baf0ca0632026d",
      "transactionIndex": "0x6c",
      "blockHash": "0x9a6ad1b59c938a1434dbb3cd05b1065312908cf6930d12e1857b1d0844fa7ee3",
      "blockNumber": "0x731a8b",
      "gasUsed": "0xfd3f",
      "effectiveGasPrice": "0x54fccf55",
      "from": "0xc77f7fed3b5cc8249adc428c5f44c9063b9734b4",
      "to": "0x8aafd3ede9adb0ff97c7aebce82a919afb1c8764",
      "contractAddress": null
    }
  ],
  "libraries": [],
  "pending": [],
  "returns": {},
  "timestamp": 1737505621,
  "chain": 11155111,
  "commit": "1d2fb70"
}