{
  "transactions": [
    {
      "hash": "0x4a88fe1942a54ee5a8c8a5e709ab0cb380458b1e1f8308bbf351bf8e86e427f6",
      "transactionType": "CALL",
      "contractName": null,
      "contractAddress": "0x270e88f8683660553e8ba4eb2ad7c91a1710d769",
      "function": "buy(address)",
      "arguments": [
        "0xC77f7fed3b5Cc8249aDc428c5F44C9063B9734b4"
      ],
      "transaction": {
        "from": "0xc77f7fed3b5cc8249adc428c5f44c9063b9734b4",
        "to": "0x270e88f8683660553e8ba4eb2ad7c91a1710d769",
        "gas": "0x1b30c",
        "value": "0xde0b6b3a7640000",
        "input": "0xf088d547000000000000000000000000c77f7fed3b5cc8249adc428c5f44c9063b9734b4",
        "nonce": "0x5d0",
        "chainId": "0xaa36a7"
      },
      "additionalContracts": [],
      "isFixedGasLimit": false
    }
  ],
  "receipts": [
    {
      "status": "0x1",
      "cumulativeGasUsed": "0x997cfc",
      "logs": [
        {
          "address": "0x270e88f8683660553e8ba4eb2ad7c91a1710d769",
          "topics": [
            "0xddf252ad1be2c89b69c2b068fc378daa952ba7f163c4a11628f55a4df523b3ef",
            "0x0000000000000000000000000000000000000000000000000000000000000000",
            "0x000000000000000000000000c77f7fed3b5cc8249adc428c5f44c9063b9734b4"
          ],
          "data": "0x00000000000000000000000000000000000000000000003393da285bd54b5057",
          "blockHash": "0xba65006a8f459c5c70029025d95fd9e2b5f88bc86a8998a5cf4aadceab482244",
          "blockNumber": "0x725290",
          "transactionHash": "0x4a88fe1942a54ee5a8c8a5e709ab0cb380458b1e1f8308bbf351bf8e86e427f6",
          "transactionIndex": "0x65",
          "logIndex": "0xd5",
          "removed": false
        },
        {
          "address": "0x270e88f8683660553e8ba4eb2ad7c91a1710d769",
          "topics": [
            "0xddf252ad1be2c89b69c2b068fc378daa952ba7f163c4a11628f55a4df523b3ef",
            "0x0000000000000000000000000000000000000000000000000000000000000000",
            "0x000000000000000000000000c77f7fed3b5cc8249adc428c5f44c9063b9734b4"
          ],
          "data": "0x000000000000000000000000000000000000000000000000280d3dd95fcbb424",
          "blockHash": "0xba65006a8f459c5c70029025d95fd9e2b5f88bc86a8998a5cf4aadceab482244",
          "blockNumber": "0x725290",
          "transactionHash": "0x4a88fe1942a54ee5a8c8a5e709ab0cb380458b1e1f8308bbf351bf8e86e427f6",
          "transactionIndex": "0x65",
          "logIndex": "0xd6",
          "removed": false
        },
        {
          "address": "0x270e88f8683660553e8ba4eb2ad7c91a1710d769",
          "topics": [
            "0x4afcb4a87cdbd9974efdb92ee48bc8d7cd0ae4bf217004db3d080cbaee652ca7"
          ],
          "data": "0x000000000000000000000000000000000000000000000000000000006786d0b00000000000000000000000000000000000000000000000000003b2761879d69c0000000000000000000000000000000000000000000000000de0b6b3a7640000",
          "blockHash": "0xba65006a8f459c5c70029025d95fd9e2b5f88bc86a8998a5cf4aadceab482244",
          "blockNumber": "0x725290",
          "transactionHash": "0x4a88fe1942a54ee5a8c8a5e709ab0cb380458b1e1f8308bbf351bf8e86e427f6",
          "transactionIndex": "0x65",
          "logIndex": "0xd7",
          "removed": false
        }
      ],
      "logsBloom": "0x00000000000000000000000000000000000000000000000000000000000000000000000000000000000000000000000020000000000000004000000000000000000000000000000000000008000000000000000000000000000000000000000000000000020000000000000000000800020000000000000000000010000000000000000000010000000000000000000000000000000000000000010000000000000000000000000000000000000000004000000000000000000000000000000000000002000000800000000000000000000000000000080000008000000020000000000000000000000000000000000000000000000000000000000000000000",
      "type": "0x2",
      "transactionHash": "0x4a88fe1942a54ee5a8c8a5e709ab0cb380458b1e1f8308bbf351bf8e86e427f6",
      "transactionIndex": "0x65",
      "blockHash": "0xba65006a8f459c5c70029025d95fd9e2b5f88bc86a8998a5cf4aadceab482244",
      "blockNumber": "0x725290",
      "gasUsed": "0x13af8",
      "effectiveGasPrice": "0x385be16ca",
      "from": "0xc77f7fed3b5cc8249adc428c5f44c9063b9734b4",
      "to": "0x270e88f8683660553e8ba4eb2ad7c91a1710d769",
      "contractAddress": null
    }
  ],
  "libraries": [],
  "pending": [],
  "returns": {},
  "timestamp": 1736888496,
  "chain": 11155111,
  "commit": "51a374b"
}