{
  "transactions": [
    {
      "hash": "0xd4b6648d9cbdf5e5e35610f64fe7c0cd89747359dd50bf224aeb11f7617b3883",
      "transactionType": "CALL",
      "contractName": null,
      "contractAddress": "0x8aafd3ede9adb0ff97c7aebce82a919afb1c8764",
      "function": "sell(uint256)",
      "arguments": [
        "3037525009353"
      ],
      "transaction": {
        "from": "0xc77f7fed3b5cc8249adc428c5f44c9063b9734b4",
        "to": "0x8aafd3ede9adb0ff97c7aebce82a919afb1c8764",
        "gas": "0x15daa",
        "value": "0x0",
        "input": "0xe4849b32000000000000000000000000000000000000000000000000000002c33a9963c9",
        "nonce": "0xf7f",
        "chainId": "0xaa36a7"
      },
      "additionalContracts": [],
      "isFixedGasLimit": false
    }
  ],
  "receipts": [
    {
      "status": "0x1",
      "cumulativeGasUsed": "0xe527cc",
      "logs": [
        {
          "address": "0x8aafd3ede9adb0ff97c7aebce82a919afb1c8764",
          "topics": [
            "0xddf252ad1be2c89b69c2b068fc378daa952ba7f163c4a11628f55a4df523b3ef",
            "0x000000000000000000000000c77f7fed3b5cc8249adc428c5f44c9063b9734b4",
            "0x0000000000000000000000000000000000000000000000000000000000000000"
          ],
          "data": "0x000000000000000000000000000000000000000000000000000002bd9231c33f",
          "blockHash": "0x7ac9fbabab2de82c2c9014819f20afd71f86868343b7ed83970f7f33340022dc",
          "blockNumber": "0x7315e2",
          "transactionHash": "0xd4b6648d9cbdf5e5e35610f64fe7c0cd89747359dd50bf224aeb11f7617b3883",
          "transactionIndex": "0x8a",
          "logIndex": "0xbd",
          "removed": false
        },
        {
          "address": "0x8aafd3ede9adb0ff97c7aebce82a919afb1c8764",
          "topics": [
            "0xddf252ad1be2c89b69c2b068fc378daa952ba7f163c4a11628f55a4df523b3ef",
            "0x000000000000000000000000c77f7fed3b5cc8249adc428c5f44c9063b9734b4",
            "0x000000000000000000000000c77f7fed3b5cc8249adc428c5f44c9063b9734b4"
          ],
          "data": "0x00000000000000000000000000000000000000000000000000000005a867a08a",
          "blockHash": "0x7ac9fbabab2de82c2c9014819f20afd71f86868343b7ed83970f7f33340022dc",
          "blockNumber": "0x7315e2",
          "transactionHash": "0xd4b6648d9cbdf5e5e35610f64fe7c0cd89747359dd50bf224aeb11f7617b3883",
          "transactionIndex": "0x8a",
          "logIndex": "0xbe",
          "removed": false
        },
        {
          "address": "0x8aafd3ede9adb0ff97c7aebce82a919afb1c8764",
          "topics": [
            "0x4afcb4a87cdbd9974efdb92ee48bc8d7cd0ae4bf217004db3d080cbaee652ca7"
          ],
          "data": "0x00000000000000000000000000000000000000000000000000000000679003440000000000000000000000000000000000000000000000000004c22b6852910f00000000000000000000000000000000000000000000000000000000f27f660f",
          "blockHash": "0x7ac9fbabab2de82c2c9014819f20afd71f86868343b7ed83970f7f33340022dc",
          "blockNumber": "0x7315e2",
          "transactionHash": "0xd4b6648d9cbdf5e5e35610f64fe7c0cd89747359dd50bf224aeb11f7617b3883",
          "transactionIndex": "0x8a",
          "logIndex": "0xbf",
          "removed": false
        }
      ],
      "logsBloom": "0x00000000000000000000000000000000000000000600000000000000000000000000000000000000000000000000000000000000000000004000000000000000000000000000004000000008000000000000000000000000000000000000000000000000020000000000000000000800020000000000000000000010000000000000000000000000000000000000000000000000000000000000010000000000000000000000000000000000000000004000000000000000000000000000000000000002000000800000000000000000000000000000080000000000000020000000000000000000000000000000000000000000000000000000000000000000",
      "type": "0x2",
      "transactionHash": "0xd4b6648d9cbdf5e5e35610f64fe7c0cd89747359dd50bf224aeb11f7617b3883",
      "transactionIndex": "0x8a",
      "blockHash": "0x7ac9fbabab2de82c2c9014819f20afd71f86868343b7ed83970f7f33340022dc",
      "blockNumber": "0x7315e2",
      "gasUsed": "0xfd27",
      "effectiveGasPrice": "0x6bf75a6d",
      "from": "0xc77f7fed3b5cc8249adc428c5f44c9063b9734b4",
      "to": "0x8aafd3ede9adb0ff97c7aebce82a919afb1c8764",
      "contractAddress": null
    }
  ],
  "libraries": [],
  "pending": [],
  "returns": {},
  "timestamp": 1737491269,
  "chain": 11155111,
  "commit": "1d2fb70"
}