{
  "transactions": [
    {
      "hash": "0x0ad33763094da60ceb9e4a1fc1734cebc22a84e49405a29cb553b5ed4d3d2fa3",
      "transactionType": "CALL",
      "contractName": null,
      "contractAddress": "0xbf4a322f1496e5c3d34a9bcdb4c60567b38c7de2",
      "function": "buy(address)",
      "arguments": [
        "0xC77f7fed3b5Cc8249aDc428c5F44C9063B9734b4"
      ],
      "transaction": {
        "from": "0xc77f7fed3b5cc8249adc428c5f44c9063b9734b4",
        "to": "0xbf4a322f1496e5c3d34a9bcdb4c60567b38c7de2",
        "gas": "0x1b309",
        "value": "0xde0b6b3a7640000",
        "input": "0xf088d547000000000000000000000000c77f7fed3b5cc8249adc428c5f44c9063b9734b4",
        "nonce": "0xba4",
        "chainId": "0xaa36a7"
      },
      "additionalContracts": [],
      "isFixedGasLimit": false
    }
  ],
  "receipts": [
    {
      "status": "0x1",
      "cumulativeGasUsed": "0xf9e380",
      "logs": [
        {
          "address": "0xbf4a322f1496e5c3d34a9bcdb4c60567b38c7de2",
          "topics": [
            "0xddf252ad1be2c89b69c2b068fc378daa952ba7f163c4a11628f55a4df523b3ef",
            "0x0000000000000000000000000000000000000000000000000000000000000000",
            "0x000000000000000000000000c77f7fed3b5cc8249adc428c5f44c9063b9734b4"
          ],
          "data": "0x0000000000000000000000000000000000000000000000350c7d5d26c347c592",
          "blockHash": "0xe495d01f64f2b5a1fc7992329058f1ad9a5efbfdfd78b098924ef786a67b65b0",
          "blockNumber": "0x725bba",
          "transactionHash": "0x0ad33763094da60ceb9e4a1fc1734cebc22a84e49405a29cb553b5ed4d3d2fa3",
          "transactionIndex": "0x58",
          "logIndex": "0xa1",
          "removed": false
        },
        {
          "address": "0xbf4a322f1496e5c3d34a9bcdb4c60567b38c7de2",
          "topics": [
            "0xddf252ad1be2c89b69c2b068fc378daa952ba7f163c4a11628f55a4df523b3ef",
            "0x0000000000000000000000000000000000000000000000000000000000000000",
            "0x000000000000000000000000c77f7fed3b5cc8249adc428c5f44c9063b9734b4"
          ],
          "data": "0x0000000000000000000000000000000000000000000000002931b6a6cef2d28f",
          "blockHash": "0xe495d01f64f2b5a1fc7992329058f1ad9a5efbfdfd78b098924ef786a67b65b0",
          "blockNumber": "0x725bba",
          "transactionHash": "0x0ad33763094da60ceb9e4a1fc1734cebc22a84e49405a29cb553b5ed4d3d2fa3",
          "transactionIndex": "0x58",
          "logIndex": "0xa2",
          "removed": false
        },
        {
          "address": "0xbf4a322f1496e5c3d34a9bcdb4c60567b38c7de2",
          "topics": [
            "0x4afcb4a87cdbd9974efdb92ee48bc8d7cd0ae4bf217004db3d080cbaee652ca7"
          ],
          "data": "0x0000000000000000000000000000000000000000000000000000000067873f140000000000000000000000000000000000000000000000000003981eb8a3e4eb0000000000000000000000000000000000000000000000000de0b6b3a7640000",
          "blockHash": "0xe495d01f64f2b5a1fc7992329058f1ad9a5efbfdfd78b098924ef786a67b65b0",
          "blockNumber": "0x725bba",
          "transactionHash": "0x0ad33763094da60ceb9e4a1fc1734cebc22a84e49405a29cb553b5ed4d3d2fa3",
          "transactionIndex": "0x58",
          "logIndex": "0xa3",
          "removed": false
        }
      ],
      "logsBloom": "0x00000000000000000000000000000000000000000000000000000000000000000000000000000000000000000000000000000000000000004000000000000000000000000000000000000008000000000000001000000000000000000000000000000000020000000000000000000800020000000000000000000010000000000000000000000000000000000000000000000000000008000000010000000000000000000000000000000000000000004000000000000000000000000000000000000002000000800000000000001000000000000000080000000000000020000000000000000000000000000000000000000000000000000000000000000000",
      "type": "0x2",
      "transactionHash": "0x0ad33763094da60ceb9e4a1fc1734cebc22a84e49405a29cb553b5ed4d3d2fa3",
      "transactionIndex": "0x58",
      "blockHash": "0xe495d01f64f2b5a1fc7992329058f1ad9a5efbfdfd78b098924ef786a67b65b0",
      "blockNumber": "0x725bba",
      "gasUsed": "0x13af6",
      "effectiveGasPrice": "0x550d02b5",
      "from": "0xc77f7fed3b5cc8249adc428c5f44c9063b9734b4",
      "to": "0xbf4a322f1496e5c3d34a9bcdb4c60567b38c7de2",
      "contractAddress": null
    }
  ],
  "libraries": [],
  "pending": [],
  "returns": {},
  "timestamp": 1736916758,
  "chain": 11155111,
  "commit": "51a374b"
}