{
  "transactions": [
    {
      "hash": "0xbb4f3fbe6f878cf38120d6edab15f3398e427081df292999ae93e5e96452be9f",
      "transactionType": "CALL",
      "contractName": null,
      "contractAddress": "0x8aafd3ede9adb0ff97c7aebce82a919afb1c8764",
      "function": "sell(uint256)",
      "arguments": [
        "1467415"
      ],
      "transaction": {
        "from": "0xc77f7fed3b5cc8249adc428c5f44c9063b9734b4",
        "to": "0x8aafd3ede9adb0ff97c7aebce82a919afb1c8764",
        "gas": "0x16208",
        "value": "0x0",
        "input": "0xe4849b320000000000000000000000000000000000000000000000000000000000166417",
        "nonce": "0x1106",
        "chainId": "0xaa36a7"
      },
      "additionalContracts": [],
      "isFixedGasLimit": false
    }
  ],
  "receipts": [
    {
      "status": "0x1",
      "cumulativeGasUsed": "0x10dd2a6",
      "logs": [
        {
          "address": "0x8aafd3ede9adb0ff97c7aebce82a919afb1c8764",
          "topics": [
            "0xddf252ad1be2c89b69c2b068fc378daa952ba7f163c4a11628f55a4df523b3ef",
            "0x000000000000000000000000c77f7fed3b5cc8249adc428c5f44c9063b9734b4",
            "0x0000000000000000000000000000000000000000000000000000000000000000"
          ],
          "data": "0x000000000000000000000000000000000000000000000000000000000016363c",
          "blockHash": "0x826d43f3db024439c49ddc83f3b982bc15115a63e5215bad17dc13b34bb20ec3",
          "blockNumber": "0x7317b5",
          "transactionHash": "0xbb4f3fbe6f878cf38120d6edab15f3398e427081df292999ae93e5e96452be9f",
          "transactionIndex": "0x96",
          "logIndex": "0xcf",
          "removed": false
        },
        {
          "address": "0x8aafd3ede9adb0ff97c7aebce82a919afb1c8764",
          "topics": [
            "0xddf252ad1be2c89b69c2b068fc378daa952ba7f163c4a11628f55a4df523b3ef",
            "0x000000000000000000000000c77f7fed3b5cc8249adc428c5f44c9063b9734b4",
            "0x000000000000000000000000c77f7fed3b5cc8249adc428c5f44c9063b9734b4"
          ],
          "data": "0x0000000000000000000000000000000000000000000000000000000000002ddb",
          "blockHash": "0x826d43f3db024439c49ddc83f3b982bc15115a63e5215bad17dc13b34bb20ec3",
          "blockNumber": "0x7317b5",
          "transactionHash": "0xbb4f3fbe6f878cf38120d6edab15f3398e427081df292999ae93e5e96452be9f",
          "transactionIndex": "0x96",
          "logIndex": "0xd0",
          "removed": false
        },
        {
          "address": "0x8aafd3ede9adb0ff97c7aebce82a919afb1c8764",
          "topics": [
            "0x4afcb4a87cdbd9974efdb92ee48bc8d7cd0ae4bf217004db3d080cbaee652ca7"
          ],
          "data": "0x000000000000000000000000000000000000000000000000000000006790194000000000000000000000000000000000000000000000000000050c28b60a434c0000000000000000000000000000000000000000000000000000000000000824",
          "blockHash": "0x826d43f3db024439c49ddc83f3b982bc15115a63e5215bad17dc13b34bb20ec3",
          "blockNumber": "0x7317b5",
          "transactionHash": "0xbb4f3fbe6f878cf38120d6edab15f3398e427081df292999ae93e5e96452be9f",
          "transactionIndex": "0x96",
          "logIndex": "0xd1",
          "removed": false
        }
      ],
      "logsBloom": "0x00000000000000000000000000000000000000000600000000000000000000000000000000000000000000000000000000000000000000004000000000000000000000000000004000000008000000000000000000000000000000000000000000000000020000000000000000000800020000000000000000000010000000000000000000000000000000000000000000000000000000000000010000000000000000000000000000000000000000004000000000000000000000000000000000000002000000800000000000000000000000000000080000000000000020000000000000000000000000000000000000000000000000000000000000000000",
      "type": "0x2",
      "transactionHash": "0xbb4f3fbe6f878cf38120d6edab15f3398e427081df292999ae93e5e96452be9f",
      "transactionIndex": "0x96",
      "blockHash": "0x826d43f3db024439c49ddc83f3b982bc15115a63e5215bad17dc13b34bb20ec3",
      "blockNumber": "0x7317b5",
      "gasUsed": "0xf213",
      "effectiveGasPrice": "0x3f15a80b",
      "from": "0xc77f7fed3b5cc8249adc428c5f44c9063b9734b4",
      "to": "0x8aafd3ede9adb0ff97c7aebce82a919afb1c8764",
      "contractAddress": null
    }
  ],
  "libraries": [],
  "pending": [],
  "returns": {},
  "timestamp": 1737496897,
  "chain": 11155111,
  "commit": "1d2fb70"
}