{
  "transactions": [
    {
      "hash": "0x7b9b20ee67547d7ee0e590bcb8c5c2b86d235730bbc716a347b230d6b2d752a1",
      "transactionType": "CALL",
      "contractName": null,
      "contractAddress": "0x8aafd3ede9adb0ff97c7aebce82a919afb1c8764",
      "function": "sell(uint256)",
      "arguments": [
        "179586523"
      ],
      "transaction": {
        "from": "0xc77f7fed3b5cc8249adc428c5f44c9063b9734b4",
        "to": "0x8aafd3ede9adb0ff97c7aebce82a919afb1c8764",
        "gas": "0x14e6c",
        "value": "0x0",
        "input": "0xe4849b32000000000000000000000000000000000000000000000000000000000ab445db",
        "nonce": "0x11c3",
        "chainId": "0xaa36a7"
      },
      "additionalContracts": [],
      "isFixedGasLimit": false
    }
  ],
  "receipts": [
    {
      "status": "0x1",
      "cumulativeGasUsed": "0xa2d1af",
      "logs": [
        {
          "address": "0x8aafd3ede9adb0ff97c7aebce82a919afb1c8764",
          "topics": [
            "0xddf252ad1be2c89b69c2b068fc378daa952ba7f163c4a11628f55a4df523b3ef",
            "0x000000000000000000000000c77f7fed3b5cc8249adc428c5f44c9063b9734b4",
            "0x0000000000000000000000000000000000000000000000000000000000000000"
          ],
          "data": "0x000000000000000000000000000000000000000000000000000000000a9e59c7",
          "blockHash": "0x189763909d0b3fe694aef11639f85da8b19e9e9f0dd027689b2c040c6d42a20e",
          "blockNumber": "0x731893",
          "transactionHash": "0x7b9b20ee67547d7ee0e590bcb8c5c2b86d235730bbc716a347b230d6b2d752a1",
          "transactionIndex": "0x7b",
          "logIndex": "0x80",
          "removed": false
        },
        {
          "address": "0x8aafd3ede9adb0ff97c7aebce82a919afb1c8764",
          "topics": [
            "0xddf252ad1be2c89b69c2b068fc378daa952ba7f163c4a11628f55a4df523b3ef",
            "0x000000000000000000000000c77f7fed3b5cc8249adc428c5f44c9063b9734b4",
            "0x000000000000000000000000c77f7fed3b5cc8249adc428c5f44c9063b9734b4"
          ],
          "data": "0x000000000000000000000000000000000000000000000000000000000015ec14",
          "blockHash": "0x189763909d0b3fe694aef11639f85da8b19e9e9f0dd027689b2c040c6d42a20e",
          "blockNumber": "0x731893",
          "transactionHash": "0x7b9b20ee67547d7ee0e590bcb8c5c2b86d235730bbc716a347b230d6b2d752a1",
          "transactionIndex": "0x7b",
          "logIndex": "0x81",
          "removed": false
        },
        {
          "address": "0x8aafd3ede9adb0ff97c7aebce82a919afb1c8764",
          "topics": [
            "0x4afcb4a87cdbd9974efdb92ee48bc8d7cd0ae4bf217004db3d080cbaee652ca7"
          ],
          "data": "0x00000000000000000000000000000000000000000000000000000000679023b4000000000000000000000000000000000000000000000000000527c2d0b8672a000000000000000000000000000000000000000000000000000000000003f9f4",
          "blockHash": "0x189763909d0b3fe694aef11639f85da8b19e9e9f0dd027689b2c040c6d42a20e",
          "blockNumber": "0x731893",
          "transactionHash": "0x7b9b20ee67547d7ee0e590bcb8c5c2b86d235730bbc716a347b230d6b2d752a1",
          "transactionIndex": "0x7b",
          "logIndex": "0x82",
          "removed": false
        }
      ],
      "logsBloom": "0x00000000000000000000000000000000000000000600000000000000000000000000000000000000000000000000000000000000000000004000000000000000000000000000004000000008000000000000000000000000000000000000000000000000020000000000000000000800020000000000000000000010000000000000000000000000000000000000000000000000000000000000010000000000000000000000000000000000000000004000000000000000000000000000000000000002000000800000000000000000000000000000080000000000000020000000000000000000000000000000000000000000000000000000000000000000",
      "type": "0x2",
      "transactionHash": "0x7b9b20ee67547d7ee0e590bcb8c5c2b86d235730bbc716a347b230d6b2d752a1",
      "transactionIndex": "0x7b",
      "blockHash": "0x189763909d0b3fe694aef11639f85da8b19e9e9f0dd027689b2c040c6d42a20e",
      "blockNumber": "0x731893",
      "gasUsed": "0xf21f",
      "effectiveGasPrice": "0x41ee7a89",
      "from": "0xc77f7fed3b5cc8249adc428c5f44c9063b9734b4",
      "to": "0x8aafd3ede9adb0ff97c7aebce82a919afb1c8764",
      "contractAddress": null
    }
  ],
  "libraries": [],
  "pending": [],
  "returns": {},
  "timestamp": 1737499573,
  "chain": 11155111,
  "commit": "1d2fb70"
}