{
  "transactions": [
    {
      "hash": "0x4a6da3cd917b168989454f7b9aa3224a8f931bb11cb7df0a9160ae3091911b9e",
      "transactionType": "CALL",
      "contractName": null,
      "contractAddress": "0x5eb9cc76c3506942c1c0ead70e877dd5e4f00cb0",
      "function": "sell(uint256)",
      "arguments": [
        "989133783139573302940"
      ],
      "transaction": {
        "from": "0xc77f7fed3b5cc8249adc428c5f44c9063b9734b4",
        "to": "0x5eb9cc76c3506942c1c0ead70e877dd5e4f00cb0",
        "gas": "0x16fec",
        "value": "0x0",
        "input": "0xe4849b320000000000000000000000000000000000000000000000359efd1f1c2c88069c",
        "nonce": "0x32d",
        "chainId": "0xaa36a7"
      },
      "additionalContracts": [],
      "isFixedGasLimit": false
    }
  ],
  "receipts": [
    {
      "status": "0x1",
      "cumulativeGasUsed": "0xdf6877",
      "logs": [
        {
          "address": "0x5eb9cc76c3506942c1c0ead70e877dd5e4f00cb0",
          "topics": [
            "0xddf252ad1be2c89b69c2b068fc378daa952ba7f163c4a11628f55a4df523b3ef",
            "0x000000000000000000000000c77f7fed3b5cc8249adc428c5f44c9063b9734b4",
            "0x0000000000000000000000000000000000000000000000000000000000000000"
          ],
          "data": "0x0000000000000000000000000000000000000000000000359efd1f1c2c88069c",
          "blockHash": "0x9554fb1d935795e0d33a4867a405f887cfeeacfe477f104afd6033464afc0845",
          "blockNumber": "0x724f16",
          "transactionHash": "0x4a6da3cd917b168989454f7b9aa3224a8f931bb11cb7df0a9160ae3091911b9e",
          "transactionIndex": "0x57",
          "logIndex": "0x75",
          "removed": false
        },
        {
          "address": "0x5eb9cc76c3506942c1c0ead70e877dd5e4f00cb0",
          "topics": [
            "0x4afcb4a87cdbd9974efdb92ee48bc8d7cd0ae4bf217004db3d080cbaee652ca7"
          ],
          "data": "0x000000000000000000000000000000000000000000000000000000006786a6bc0000000000000000000000000000000000000000000000000003910d7d112b810000000000000000000000000000000000000000000000000dc7db1332238f9c",
          "blockHash": "0x9554fb1d935795e0d33a4867a405f887cfeeacfe477f104afd6033464afc0845",
          "blockNumber": "0x724f16",
          "transactionHash": "0x4a6da3cd917b168989454f7b9aa3224a8f931bb11cb7df0a9160ae3091911b9e",
          "transactionIndex": "0x57",
          "logIndex": "0x76",
          "removed": false
        }
      ],
      "logsBloom": "0x00000000000000000000000000000000000000000000000000000000000000000000000000000000000000000000000000000000000000004000000000000000000000000000000000000008000000000000000000000000000000000000000000000000020000000000000004000800020000000000000000000010000000000000000000000000000000000000000000000000000000000000010000000000000000000000000000000000000000004000000000000000000000000000020000000002000000800000008000000000000000000000080000000000000020000000000000000000000000000000000000000000000000000000000000000000",
      "type": "0x2",
      "transactionHash": "0x4a6da3cd917b168989454f7b9aa3224a8f931bb11cb7df0a9160ae3091911b9e",
      "transactionIndex": "0x57",
      "blockHash": "0x9554fb1d935795e0d33a4867a405f887cfeeacfe477f104afd6033464afc0845",
      "blockNumber": "0x724f16",
      "gasUsed": "0xfb93",
      "effectiveGasPrice": "0x62047d978",
      "from": "0xc77f7fed3b5cc8249adc428c5f44c9063b9734b4",
      "to": "0x5eb9cc76c3506942c1c0ead70e877dd5e4f00cb0",
      "contractAddress": null
    }
  ],
  "libraries": [],
  "pending": [],
  "returns": {},
  "timestamp": 1736877758,
  "chain": 11155111,
  "commit": "51a374b"
}