{
  "transactions": [
    {
      "hash": "0x38f6aa1fc53a04a8fd267e54d3e924b1074df31f9bd753ee3db0c3c42380a7d2",
      "transactionType": "CALL",
      "contractName": null,
      "contractAddress": "0x8aafd3ede9adb0ff97c7aebce82a919afb1c8764",
      "function": "sell(uint256)",
      "arguments": [
        "16730077970573484"
      ],
      "transaction": {
        "from": "0xc77f7fed3b5cc8249adc428c5f44c9063b9734b4",
        "to": "0x8aafd3ede9adb0ff97c7aebce82a919afb1c8764",
        "gas": "0x1724d",
        "value": "0x0",
        "input": "0xe4849b32000000000000000000000000000000000000000000000000003b6fead28028ac",
        "nonce": "0x13cf",
        "chainId": "0xaa36a7"
      },
      "additionalContracts": [],
      "isFixedGasLimit": false
    }
  ],
  "receipts": [
    {
      "status": "0x1",
      "cumulativeGasUsed": "0xac7955",
      "logs": [
        {
          "address": "0x8aafd3ede9adb0ff97c7aebce82a919afb1c8764",
          "topics": [
            "0xddf252ad1be2c89b69c2b068fc378daa952ba7f163c4a11628f55a4df523b3ef",
            "0x000000000000000000000000c77f7fed3b5cc8249adc428c5f44c9063b9734b4",
            "0x0000000000000000000000000000000000000000000000000000000000000000"
          ],
          "data": "0x000000000000000000000000000000000000000000000000003af6309faa2441",
          "blockHash": "0x133d96358bbc88d5e487bf3dad4b065e141e40ab2fb256b003a8567575968345",
          "blockNumber": "0x731afc",
          "transactionHash": "0x38f6aa1fc53a04a8fd267e54d3e924b1074df31f9bd753ee3db0c3c42380a7d2",
          "transactionIndex": "0x81",
          "logIndex": "0x9d",
          "removed": false
        },
        {
          "address": "0x8aafd3ede9adb0ff97c7aebce82a919afb1c8764",
          "topics": [
            "0xddf252ad1be2c89b69c2b068fc378daa952ba7f163c4a11628f55a4df523b3ef",
            "0x000000000000000000000000c77f7fed3b5cc8249adc428c5f44c9063b9734b4",
            "0x000000000000000000000000c77f7fed3b5cc8249adc428c5f44c9063b9734b4"
          ],
          "data": "0x000000000000000000000000000000000000000000000000000079ba32d6046b",
          "blockHash": "0x133d96358bbc88d5e487bf3dad4b065e141e40ab2fb256b003a8567575968345",
          "blockNumber": "0x731afc",
          "transactionHash": "0x38f6aa1fc53a04a8fd267e54d3e924b1074df31f9bd753ee3db0c3c42380a7d2",
          "transactionIndex": "0x81",
          "logIndex": "0x9e",
          "removed": false
        },
        {
          "address": "0x8aafd3ede9adb0ff97c7aebce82a919afb1c8764",
          "topics": [
            "0x4afcb4a87cdbd9974efdb92ee48bc8d7cd0ae4bf217004db3d080cbaee652ca7"
          ],
          "data": "0x00000000000000000000000000000000000000000000000000000000679040a0000000000000000000000000000000000000000000000000000d99149943950700000000000000000000000000000000000000000000000000003a3d1d27870b",
          "blockHash": "0x133d96358bbc88d5e487bf3dad4b065e141e40ab2fb256b003a8567575968345",
          "blockNumber": "0x731afc",
          "transactionHash": "0x38f6aa1fc53a04a8fd267e54d3e924b1074df31f9bd753ee3db0c3c42380a7d2",
          "transactionIndex": "0x81",
          "logIndex": "0x9f",
          "removed": false
        }
      ],
      "logsBloom": "0x00000000000000000000000000000000000000000600000000000000000000000000000000000000000000000000000000000000000000004000000000000000000000000000004000000008000000000000000000000000000000000000000000000000020000000000000000000800020000000000000000000010000000000000000000000000000000000000000000000000000000000000010000000000000000000000000000000000000000004000000000000000000000000000000000000002000000800000000000000000000000000000080000000000000020000000000000000000000000000000000000000000000000000000000000000000",
      "type": "0x2",
      "transactionHash": "0x38f6aa1fc53a04a8fd267e54d3e924b1074df31f9bd753ee3db0c3c42380a7d2",
      "transactionIndex": "0x81",
      "blockHash": "0x133d96358bbc88d5e487bf3dad4b065e141e40ab2fb256b003a8567575968345",
      "blockNumber": "0x731afc",
      "gasUsed": "0xfd33",
      "effectiveGasPrice": "0x7ea8e33b",
      "from": "0xc77f7fed3b5cc8249adc428c5f44c9063b9734b4",
      "to": "0x8aafd3ede9adb0ff97c7aebce82a919afb1c8764",
      "contractAddress": null
    }
  ],
  "libraries": [],
  "pending": [],
  "returns": {},
  "timestamp": 1737506977,
  "chain": 11155111,
  "commit": "1d2fb70"
}