{
  "transactions": [
    {
      "hash": "0x1f77bd31887df839fe376b677859bfb09bf46fce85fdf1eb54a90b8ac1519dee",
      "transactionType": "CALL",
      "contractName": null,
      "contractAddress": "0x5eb9cc76c3506942c1c0ead70e877dd5e4f00cb0",
      "function": "sell(uint256)",
      "arguments": [
        "989098405547057455243"
      ],
      "transaction": {
        "from": "0xc77f7fed3b5cc8249adc428c5f44c9063b9734b4",
        "to": "0x5eb9cc76c3506942c1c0ead70e877dd5e4f00cb0",
        "gas": "0x16fec",
        "value": "0x0",
        "input": "0xe4849b320000000000000000000000000000000000000000000000359e7f6f60899da08b",
        "nonce": "0x40b",
        "chainId": "0xaa36a7"
      },
      "additionalContracts": [],
      "isFixedGasLimit": false
    }
  ],
  "receipts": [
    {
      "status": "0x1",
      "cumulativeGasUsed": "0x21d1219",
      "logs": [
        {
          "address": "0x5eb9cc76c3506942c1c0ead70e877dd5e4f00cb0",
          "topics": [
            "0xddf252ad1be2c89b69c2b068fc378daa952ba7f163c4a11628f55a4df523b3ef",
            "0x000000000000000000000000c77f7fed3b5cc8249adc428c5f44c9063b9734b4",
            "0x0000000000000000000000000000000000000000000000000000000000000000"
          ],
          "data": "0x0000000000000000000000000000000000000000000000359e7f6f60899da08b",
          "blockHash": "0x5d300d01bdf6140e304cc4e59ca19170a222f242a7c331aeb171f5ea7df680a7",
          "blockNumber": "0x725019",
          "transactionHash": "0x1f77bd31887df839fe376b677859bfb09bf46fce85fdf1eb54a90b8ac1519dee",
          "transactionIndex": "0x143",
          "logIndex": "0x1f1",
          "removed": false
        },
        {
          "address": "0x5eb9cc76c3506942c1c0ead70e877dd5e4f00cb0",
          "topics": [
            "0x4afcb4a87cdbd9974efdb92ee48bc8d7cd0ae4bf217004db3d080cbaee652ca7"
          ],
          "data": "0x000000000000000000000000000000000000000000000000000000006786b2f800000000000000000000000000000000000000000000000000039115d9510ac80000000000000000000000000000000000000000000000000dc7db1331e49c75",
          "blockHash": "0x5d300d01bdf6140e304cc4e59ca19170a222f242a7c331aeb171f5ea7df680a7",
          "blockNumber": "0x725019",
          "transactionHash": "0x1f77bd31887df839fe376b677859bfb09bf46fce85fdf1eb54a90b8ac1519dee",
          "transactionIndex": "0x143",
          "logIndex": "0x1f2",
          "removed": false
        }
      ],
      "logsBloom": "0x00000000000000000000000000000000000000000000000000000000000000000000000000000000000000000000000000000000000000004000000000000000000000000000000000000008000000000000000000000000000000000000000000000000020000000000000004000800020000000000000000000010000000000000000000000000000000000000000000000000000000000000010000000000000000000000000000000000000000004000000000000000000000000000020000000002000000800000008000000000000000000000080000000000000020000000000000000000000000000000000000000000000000000000000000000000",
      "type": "0x2",
      "transactionHash": "0x1f77bd31887df839fe376b677859bfb09bf46fce85fdf1eb54a90b8ac1519dee",
      "transactionIndex": "0x143",
      "blockHash": "0x5d300d01bdf6140e304cc4e59ca19170a222f242a7c331aeb171f5ea7df680a7",
      "blockNumber": "0x725019",
      "gasUsed": "0xfb93",
      "effectiveGasPrice": "0x2c6a69a20",
      "from": "0xc77f7fed3b5cc8249adc428c5f44c9063b9734b4",
      "to": "0x5eb9cc76c3506942c1c0ead70e877dd5e4f00cb0",
      "contractAddress": null
    }
  ],
  "libraries": [],
  "pending": [],
  "returns": {},
  "timestamp": 1736880889,
  "chain": 11155111,
  "commit": "51a374b"
}