{
  "transactions": [
    {
      "hash": "0x655d1771cbb9731382e168c06e8ecf34adeab546ce626b3af43fb9c923c800a5",
      "transactionType": "CALL",
      "contractName": null,
      "contractAddress": "0xbf4a322f1496e5c3d34a9bcdb4c60567b38c7de2",
      "function": "buy(address)",
      "arguments": [
        "0xC77f7fed3b5Cc8249aDc428c5F44C9063B9734b4"
      ],
      "transaction": {
        "from": "0xc77f7fed3b5cc8249adc428c5f44c9063b9734b4",
        "to": "0xbf4a322f1496e5c3d34a9bcdb4c60567b38c7de2",
        "gas": "0x1b309",
        "value": "0xde0b6b3a7640000",
        "input": "0xf088d547000000000000000000000000c77f7fed3b5cc8249adc428c5f44c9063b9734b4",
        "nonce": "0xacc",
        "chainId": "0xaa36a7"
      },
      "additionalContracts": [],
      "isFixedGasLimit": false
    }
  ],
  "receipts": [
    {
      "status": "0x1",
      "cumulativeGasUsed": "0x79c164",
      "logs": [
        {
          "address": "0xbf4a322f1496e5c3d34a9bcdb4c60567b38c7de2",
          "topics": [
            "0xddf252ad1be2c89b69c2b068fc378daa952ba7f163c4a11628f55a4df523b3ef",
            "0x0000000000000000000000000000000000000000000000000000000000000000",
            "0x000000000000000000000000c77f7fed3b5cc8249adc428c5f44c9063b9734b4"
          ],
          "data": "0x00000000000000000000000000000000000000000000003534dc9aecc95c8156",
          "blockHash": "0xd1e31bb1bf9374229e3d06e34829f7eebfe9896687a5ff1de15af9223cd37d4e",
          "blockNumber": "0x725abc",
          "transactionHash": "0x655d1771cbb9731382e168c06e8ecf34adeab546ce626b3af43fb9c923c800a5",
          "transactionIndex": "0x52",
          "logIndex": "0x97",
          "removed": false
        },
        {
          "address": "0xbf4a322f1496e5c3d34a9bcdb4c60567b38c7de2",
          "topics": [
            "0xddf252ad1be2c89b69c2b068fc378daa952ba7f163c4a11628f55a4df523b3ef",
            "0x0000000000000000000000000000000000000000000000000000000000000000",
            "0x000000000000000000000000c77f7fed3b5cc8249adc428c5f44c9063b9734b4"
          ],
          "data": "0x00000000000000000000000000000000000000000000000029511051aa06f96d",
          "blockHash": "0xd1e31bb1bf9374229e3d06e34829f7eebfe9896687a5ff1de15af9223cd37d4e",
          "blockNumber": "0x725abc",
          "transactionHash": "0x655d1771cbb9731382e168c06e8ecf34adeab546ce626b3af43fb9c923c800a5",
          "transactionIndex": "0x52",
          "logIndex": "0x98",
          "removed": false
        },
        {
          "address": "0xbf4a322f1496e5c3d34a9bcdb4c60567b38c7de2",
          "topics": [
            "0x4afcb4a87cdbd9974efdb92ee48bc8d7cd0ae4bf217004db3d080cbaee652ca7"
          ],
          "data": "0x0000000000000000000000000000000000000000000000000000000067873320000000000000000000000000000000000000000000000000000395648f296e1a0000000000000000000000000000000000000000000000000de0b6b3a7640000",
          "blockHash": "0xd1e31bb1bf9374229e3d06e34829f7eebfe9896687a5ff1de15af9223cd37d4e",
          "blockNumber": "0x725abc",
          "transactionHash": "0x655d1771cbb9731382e168c06e8ecf34adeab546ce626b3af43fb9c923c800a5",
          "transactionIndex": "0x52",
          "logIndex": "0x99",
          "removed": false
        }
      ],
      "logsBloom": "0x00000000000000000000000000000000000000000000000000000000000000000000000000000000000000000000000000000000000000004000000000000000000000000000000000000008000000000000001000000000000000000000000000000000020000000000000000000800020000000000000000000010000000000000000000000000000000000000000000000000000008000000010000000000000000000000000000000000000000004000000000000000000000000000000000000002000000800000000000001000000000000000080000000000000020000000000000000000000000000000000000000000000000000000000000000000",
      "type": "0x2",
      "transactionHash": "0x655d1771cbb9731382e168c06e8ecf34adeab546ce626b3af43fb9c923c800a5",
      "transactionIndex": "0x52",
      "blockHash": "0xd1e31bb1bf9374229e3d06e34829f7eebfe9896687a5ff1de15af9223cd37d4e",
      "blockNumber": "0x725abc",
      "gasUsed": "0x13af6",
      "effectiveGasPrice": "0xe6d7c106",
      "from": "0xc77f7fed3b5cc8249adc428c5f44c9063b9734b4",
      "to": "0xbf4a322f1496e5c3d34a9bcdb4c60567b38c7de2",
      "contractAddress": null
    }
  ],
  "libraries": [],
  "pending": [],
  "returns": {},
  "timestamp": 1736913698,
  "chain": 11155111,
  "commit": "51a374b"
}