{
  "transactions": [
    {
      "hash": "0x8057c56edc751af753681cdcf24d08e4d0d87a8d05e59ccd531017f9d90a29e0",
      "transactionType": "CALL",
      "contractName": null,
      "contractAddress": "0x270e88f8683660553e8ba4eb2ad7c91a1710d769",
      "function": "buy(address)",
      "arguments": [
        "0xC77f7fed3b5Cc8249aDc428c5F44C9063B9734b4"
      ],
      "transaction": {
        "from": "0xc77f7fed3b5cc8249adc428c5f44c9063b9734b4",
        "to": "0x270e88f8683660553e8ba4eb2ad7c91a1710d769",
        "gas": "0x1b30c",
        "value": "0xde0b6b3a7640000",
        "input": "0xf088d547000000000000000000000000c77f7fed3b5cc8249adc428c5f44c9063b9734b4",
        "nonce": "0x737",
        "chainId": "0xaa36a7"
      },
      "additionalContracts": [],
      "isFixedGasLimit": false
    }
  ],
  "receipts": [
    {
      "status": "0x1",
      "cumulativeGasUsed": "0x64c66b",
      "logs": [
        {
          "address": "0x270e88f8683660553e8ba4eb2ad7c91a1710d769",
          "topics": [
            "0xddf252ad1be2c89b69c2b068fc378daa952ba7f163c4a11628f55a4df523b3ef",
            "0x0000000000000000000000000000000000000000000000000000000000000000",
            "0x000000000000000000000000c77f7fed3b5cc8249adc428c5f44c9063b9734b4"
          ],
          "data": "0x000000000000000000000000000000000000000000000028027738548b645f92",
          "blockHash": "0x3a71d1e8f9bada197a579b051668d3908e263ba9e73446776287ef8e35c32f1a",
          "blockNumber": "0x725458",
          "transactionHash": "0x8057c56edc751af753681cdcf24d08e4d0d87a8d05e59ccd531017f9d90a29e0",
          "transactionIndex": "0x36",
          "logIndex": "0x5b",
          "removed": false
        },
        {
          "address": "0x270e88f8683660553e8ba4eb2ad7c91a1710d769",
          "topics": [
            "0xddf252ad1be2c89b69c2b068fc378daa952ba7f163c4a11628f55a4df523b3ef",
            "0x0000000000000000000000000000000000000000000000000000000000000000",
            "0x000000000000000000000000c77f7fed3b5cc8249adc428c5f44c9063b9734b4"
          ],
          "data": "0x0000000000000000000000000000000000000000000000001f119fbda92fddff",
          "blockHash": "0x3a71d1e8f9bada197a579b051668d3908e263ba9e73446776287ef8e35c32f1a",
          "blockNumber": "0x725458",
          "transactionHash": "0x8057c56edc751af753681cdcf24d08e4d0d87a8d05e59ccd531017f9d90a29e0",
          "transactionIndex": "0x36",
          "logIndex": "0x5c",
          "removed": false
        },
        {
          "address": "0x270e88f8683660553e8ba4eb2ad7c91a1710d769",
          "topics": [
            "0x4afcb4a87cdbd9974efdb92ee48bc8d7cd0ae4bf217004db3d080cbaee652ca7"
          ],
          "data": "0x000000000000000000000000000000000000000000000000000000006786e6280000000000000000000000000000000000000000000000000004c414897af1060000000000000000000000000000000000000000000000000de0b6b3a7640000",
          "blockHash": "0x3a71d1e8f9bada197a579b051668d3908e263ba9e73446776287ef8e35c32f1a",
          "blockNumber": "0x725458",
          "transactionHash": "0x8057c56edc751af753681cdcf24d08e4d0d87a8d05e59ccd531017f9d90a29e0",
          "transactionIndex": "0x36",
          "logIndex": "0x5d",
          "removed": false
        }
      ],
      "logsBloom": "0x00000000000000000000000000000000000000000000000000000000000000000000000000000000000000000000000020000000000000004000000000000000000000000000000000000008000000000000000000000000000000000000000000000000020000000000000000000800020000000000000000000010000000000000000000010000000000000000000000000000000000000000010000000000000000000000000000000000000000004000000000000000000000000000000000000002000000800000000000000000000000000000080000008000000020000000000000000000000000000000000000000000000000000000000000000000",
      "type": "0x2",
      "transactionHash": "0x8057c56edc751af753681cdcf24d08e4d0d87a8d05e59ccd531017f9d90a29e0",
      "transactionIndex": "0x36",
      "blockHash": "0x3a71d1e8f9bada197a579b051668d3908e263ba9e73446776287ef8e35c32f1a",
      "blockNumber": "0x725458",
      "gasUsed": "0x13af8",
      "effectiveGasPrice": "0x14535e2a1",
      "from": "0xc77f7fed3b5cc8249adc428c5f44c9063b9734b4",
      "to": "0x270e88f8683660553e8ba4eb2ad7c91a1710d769",
      "contractAddress": null
    }
  ],
  "libraries": [],
  "pending": [],
  "returns": {},
  "timestamp": 1736893993,
  "chain": 11155111,
  "commit": "51a374b"
}