{
  "transactions": [
    {
      "hash": "0xfc61839ca61994171305d5499662288fbf007b7f38f0a1d9bc10f1cc25fb111f",
      "transactionType": "CALL",
      "contractName": null,
      "contractAddress": "0xbf4a322f1496e5c3d34a9bcdb4c60567b38c7de2",
      "function": "sell(uint256)",
      "arguments": [
        "976347492015759940226"
      ],
      "transaction": {
        "from": "0xc77f7fed3b5cc8249adc428c5f44c9063b9734b4",
        "to": "0xbf4a322f1496e5c3d34a9bcdb4c60567b38c7de2",
        "gas": "0x16fea",
        "value": "0x0",
        "input": "0xe4849b32000000000000000000000000000000000000000000000034ed8b1713dee7da82",
        "nonce": "0xd29",
        "chainId": "0xaa36a7"
      },
      "additionalContracts": [],
      "isFixedGasLimit": false
    }
  ],
  "receipts": [
    {
      "status": "0x1",
      "cumulativeGasUsed": "0xfb78b5",
      "logs": [
        {
          "address": "0xbf4a322f1496e5c3d34a9bcdb4c60567b38c7de2",
          "topics": [
            "0xddf252ad1be2c89b69c2b068fc378daa952ba7f163c4a11628f55a4df523b3ef",
            "0x000000000000000000000000c77f7fed3b5cc8249adc428c5f44c9063b9734b4",
            "0x0000000000000000000000000000000000000000000000000000000000000000"
          ],
          "data": "0x000000000000000000000000000000000000000000000034ed8b1713dee7da82",
          "blockHash": "0xb4aacd50242b77164b2a4401430736b2f0b975c081a1009e5cc4f9b0d643cadd",
          "blockNumber": "0x725d8c",
          "transactionHash": "0xfc61839ca61994171305d5499662288fbf007b7f38f0a1d9bc10f1cc25fb111f",
          "transactionIndex": "0x89",
          "logIndex": "0xe1",
          "removed": false
        },
        {
          "address": "0xbf4a322f1496e5c3d34a9bcdb4c60567b38c7de2",
          "topics": [
            "0x4afcb4a87cdbd9974efdb92ee48bc8d7cd0ae4bf217004db3d080cbaee652ca7"
          ],
          "data": "0x000000000000000000000000000000000000000000000000000000006787550400000000000000000000000000000000000000000000000000039d08f743de7f0000000000000000000000000000000000000000000000000dc7e3d992f6cf38",
          "blockHash": "0xb4aacd50242b77164b2a4401430736b2f0b975c081a1009e5cc4f9b0d643cadd",
          "blockNumber": "0x725d8c",
          "transactionHash": "0xfc61839ca61994171305d5499662288fbf007b7f38f0a1d9bc10f1cc25fb111f",
          "transactionIndex": "0x89",
          "logIndex": "0xe2",
          "removed": false
        }
      ],
      "logsBloom": "0x00000000000000000000000000000000000000000000000000000000000000000000000000000000000000000000000000000000000000004000000000000000000000000000000000000008000000000000001000000000000000000000000000000000020000000000000000000800020000000000000000000010000000000000000000000000000000000000000000000000000008000000010000000000000000000000000000000000000000004000000000000000000000000000000000000002000000800000000000001000000000000000080000000000000020000000000000000000000000000000000000000000000000000000000000000000",
      "type": "0x2",
      "transactionHash": "0xfc61839ca61994171305d5499662288fbf007b7f38f0a1d9bc10f1cc25fb111f",
      "transactionIndex": "0x89",
      "blockHash": "0xb4aacd50242b77164b2a4401430736b2f0b975c081a1009e5cc4f9b0d643cadd",
      "blockNumber": "0x725d8c",
      "gasUsed": "0xfb91",
      "effectiveGasPrice": "0x25ff0ee3b",
      "from": "0xc77f7fed3b5cc8249adc428c5f44c9063b9734b4",
      "to": "0xbf4a322f1496e5c3d34a9bcdb4c60567b38c7de2",
      "contractAddress": null
    }
  ],
  "libraries": [],
  "pending": [],
  "returns": {},
  "timestamp": 1736922373,
  "chain": 11155111,
  "commit": "51a374b"
}