{
  "transactions": [
    {
      "hash": "0xa3a59ec8d30dce5c6b3afa2e0981286096cbd7ea1fb0ddae2d1353adc7659cac",
      "transactionType": "CALL",
      "contractName": null,
      "contractAddress": "0x8aafd3ede9adb0ff97c7aebce82a919afb1c8764",
      "function": "sell(uint256)",
      "arguments": [
        "105612134112784"
      ],
      "transaction": {
        "from": "0xc77f7fed3b5cc8249adc428c5f44c9063b9734b4",
        "to": "0x8aafd3ede9adb0ff97c7aebce82a919afb1c8764",
        "gas": "0x15daa",
        "value": "0x0",
        "input": "0xe4849b320000000000000000000000000000000000000000000000000000600dbdbcde10",
        "nonce": "0x150b",
        "chainId": "0xaa36a7"
      },
      "additionalContracts": [],
      "isFixedGasLimit": false
    }
  ],
  "receipts": [
    {
      "status": "0x1",
      "cumulativeGasUsed": "0xa45c60",
      "logs": [
        {
          "address": "0x8aafd3ede9adb0ff97c7aebce82a919afb1c8764",
          "topics": [
            "0xddf252ad1be2c89b69c2b068fc378daa952ba7f163c4a11628f55a4df523b3ef",
            "0x000000000000000000000000c77f7fed3b5cc8249adc428c5f44c9063b9734b4",
            "0x0000000000000000000000000000000000000000000000000000000000000000"
          ],
          "data": "0x00000000000000000000000000000000000000000000000000005f4905f2a70a",
          "blockHash": "0xa03d18cbb53700d6c5579d52dcc5eb0a075024cc5f610a6180730a7f56581aa5",
          "blockNumber": "0x731c6d",
          "transactionHash": "0xa3a59ec8d30dce5c6b3afa2e0981286096cbd7ea1fb0ddae2d1353adc7659cac",
          "transactionIndex": "0x51",
          "logIndex": "0x99",
          "removed": false
        },
        {
          "address": "0x8aafd3ede9adb0ff97c7aebce82a919afb1c8764",
          "topics": [
            "0xddf252ad1be2c89b69c2b068fc378daa952ba7f163c4a11628f55a4df523b3ef",
            "0x000000000000000000000000c77f7fed3b5cc8249adc428c5f44c9063b9734b4",
            "0x000000000000000000000000c77f7fed3b5cc8249adc428c5f44c9063b9734b4"
          ],
          "data": "0x000000000000000000000000000000000000000000000000000000c4b7ca3706",
          "blockHash": "0xa03d18cbb53700d6c5579d52dcc5eb0a075024cc5f610a6180730a7f56581aa5",
          "blockNumber": "0x731c6d",
          "transactionHash": "0xa3a59ec8d30dce5c6b3afa2e0981286096cbd7ea1fb0ddae2d1353adc7659cac",
          "transactionIndex": "0x51",
          "logIndex": "0x9a",
          "removed": false
        },
        {
          "address": "0x8aafd3ede9adb0ff97c7aebce82a919afb1c8764",
          "topics": [
            "0x4afcb4a87cdbd9974efdb92ee48bc8d7cd0ae4bf217004db3d080cbaee652ca7"
          ],
          "data": "0x00000000000000000000000000000000000000000000000000000000679051f8000000000000000000000000000000000000000000000000001134de57eb70bf0000000000000000000000000000000000000000000000000000007717d7cc7b",
          "blockHash": "0xa03d18cbb53700d6c5579d52dcc5eb0a075024cc5f610a6180730a7f56581aa5",
          "blockNumber": "0x731c6d",
          "transactionHash": "0xa3a59ec8d30dce5c6b3afa2e0981286096cbd7ea1fb0ddae2d1353adc7659cac",
          "transactionIndex": "0x51",
          "logIndex": "0x9b",
          "removed": false
        }
      ],
      "logsBloom": "0x00000000000000000000000000000000000000000600000000000000000000000000000000000000000000000000000000000000000000004000000000000000000000000000004000000008000000000000000000000000000000000000000000000000020000000000000000000800020000000000000000000010000000000000000000000000000000000000000000000000000000000000010000000000000000000000000000000000000000004000000000000000000000000000000000000002000000800000000000000000000000000000080000000000000020000000000000000000000000000000000000000000000000000000000000000000",
      "type": "0x2",
      "transactionHash": "0xa3a59ec8d30dce5c6b3afa2e0981286096cbd7ea1fb0ddae2d1353adc7659cac",
      "transactionIndex": "0x51",
      "blockHash": "0xa03d18cbb53700d6c5579d52dcc5eb0a075024cc5f610a6180730a7f56581aa5",
      "blockNumber": "0x731c6d",
      "gasUsed": "0xfd27",
      "effectiveGasPrice": "0x1b3bd28bf",
      "from": "0xc77f7fed3b5cc8249adc428c5f44c9063b9734b4",
      "to": "0x8aafd3ede9adb0ff97c7aebce82a919afb1c8764",
      "contractAddress": null
    }
  ],
  "libraries": [],
  "pending": [],
  "returns": {},
  "timestamp": 1737511418,
  "chain": 11155111,
  "commit": "1d2fb70"
}