{
  "transactions": [
    {
      "hash": "0x3f6211e73b2ddb57a7ae5d21cdffae30bac1725963599d246a43d384e75a53ae",
      "transactionType": "CALL",
      "contractName": null,
      "contractAddress": "0x270e88f8683660553e8ba4eb2ad7c91a1710d769",
      "function": "sell(uint256)",
      "arguments": [
        "710758435474082601118"
      ],
      "transaction": {
        "from": "0xc77f7fed3b5cc8249adc428c5f44c9063b9734b4",
        "to": "0x270e88f8683660553e8ba4eb2ad7c91a1710d769",
        "gas": "0x16fec",
        "value": "0x0",
        "input": "0xe4849b3200000000000000000000000000000000000000000000002687c1374dd917989e",
        "nonce": "0x892",
        "chainId": "0xaa36a7"
      },
      "additionalContracts": [],
      "isFixedGasLimit": false
    }
  ],
  "receipts": [
    {
      "status": "0x1",
      "cumulativeGasUsed": "0x641af5",
      "logs": [
        {
          "address": "0x270e88f8683660553e8ba4eb2ad7c91a1710d769",
          "topics": [
            "0xddf252ad1be2c89b69c2b068fc378daa952ba7f163c4a11628f55a4df523b3ef",
            "0x000000000000000000000000c77f7fed3b5cc8249adc428c5f44c9063b9734b4",
            "0x0000000000000000000000000000000000000000000000000000000000000000"
          ],
          "data": "0x00000000000000000000000000000000000000000000002687c1374dd917989e",
          "blockHash": "0xa3eb640764d16eda719cbf4fb014aa66ac6eda96744ed96c36e87595d5c29dcd",
          "blockNumber": "0x7255ef",
          "transactionHash": "0x3f6211e73b2ddb57a7ae5d21cdffae30bac1725963599d246a43d384e75a53ae",
          "transactionIndex": "0x46",
          "logIndex": "0x52",
          "removed": false
        },
        {
          "address": "0x270e88f8683660553e8ba4eb2ad7c91a1710d769",
          "topics": [
            "0x4afcb4a87cdbd9974efdb92ee48bc8d7cd0ae4bf217004db3d080cbaee652ca7"
          ],
          "data": "0x000000000000000000000000000000000000000000000000000000006786f93c0000000000000000000000000000000000000000000000000004f6f37b28aaf10000000000000000000000000000000000000000000000000dc82578dd43e2bb",
          "blockHash": "0xa3eb640764d16eda719cbf4fb014aa66ac6eda96744ed96c36e87595d5c29dcd",
          "blockNumber": "0x7255ef",
          "transactionHash": "0x3f6211e73b2ddb57a7ae5d21cdffae30bac1725963599d246a43d384e75a53ae",
          "transactionIndex": "0x46",
          "logIndex": "0x53",
          "removed": false
        }
      ],
      "logsBloom": "0x00000000000000000000000000000000000000000000000000000000000000000000000000000000000000000000000020000000000000004000000000000000000000000000000000000008000000000000000000000000000000000000000000000000020000000000000000000800020000000000000000000010000000000000000000010000000000000000000000000000000000000000010000000000000000000000000000000000000000004000000000000000000000000000000000000002000000800000000000000000000000000000080000008000000020000000000000000000000000000000000000000000000000000000000000000000",
      "type": "0x2",
      "transactionHash": "0x3f6211e73b2ddb57a7ae5d21cdffae30bac1725963599d246a43d384e75a53ae",
      "transactionIndex": "0x46",
      "blockHash": "0xa3eb640764d16eda719cbf4fb014aa66ac6eda96744ed96c36e87595d5c29dcd",
      "blockNumber": "0x7255ef",
      "gasUsed": "0xfb93",
      "effectiveGasPrice": "0xb8a215c5",
      "from": "0xc77f7fed3b5cc8249adc428c5f44c9063b9734b4",
      "to": "0x270e88f8683660553e8ba4eb2ad7c91a1710d769",
      "contractAddress": null
    }
  ],
  "libraries": [],
  "pending": [],
  "returns": {},
  "timestamp": 1736898878,
  "chain": 11155111,
  "commit": "51a374b"
}