{
  "transactions": [
    {
      "hash": "0x9547a1b7d02982478bdf653b387fcf682a0ca9dd3233ac724f01a8653e146e64",
      "transactionType": "CALL",
      "contractName": null,
      "contractAddress": "0x270e88f8683660553e8ba4eb2ad7c91a1710d769",
      "function": "sell(uint256)",
      "arguments": [
        "735166832559610920133"
      ],
      "transaction": {
        "from": "0xc77f7fed3b5cc8249adc428c5f44c9063b9734b4",
        "to": "0x270e88f8683660553e8ba4eb2ad7c91a1710d769",
        "gas": "0x16fec",
        "value": "0x0",
        "input": "0xe4849b32000000000000000000000000000000000000000000000027da7d4321d4affcc5",
        "nonce": "0x772",
        "chainId": "0xaa36a7"
      },
      "additionalContracts": [],
      "isFixedGasLimit": false
    }
  ],
  "receipts": [
    {
      "status": "0x1",
      "cumulativeGasUsed": "0x14a0bd3",
      "logs": [
        {
          "address": "0x270e88f8683660553e8ba4eb2ad7c91a1710d769",
          "topics": [
            "0xddf252ad1be2c89b69c2b068fc378daa952ba7f163c4a11628f55a4df523b3ef",
            "0x000000000000000000000000c77f7fed3b5cc8249adc428c5f44c9063b9734b4",
            "0x0000000000000000000000000000000000000000000000000000000000000000"
          ],
          "data": "0x000000000000000000000000000000000000000000000027da7d4321d4affcc5",
          "blockHash": "0xdf91e4ed809c40afbc9b21bf62f0b7fc4c91b6a98457e2d5b7b951daa36ef85b",
          "blockNumber": "0x7254a1",
          "transactionHash": "0x9547a1b7d02982478bdf653b387fcf682a0ca9dd3233ac724f01a8653e146e64",
          "transactionIndex": "0x51",
          "logIndex": "0x72",
          "removed": false
        },
        {
          "address": "0x270e88f8683660553e8ba4eb2ad7c91a1710d769",
          "topics": [
            "0x4afcb4a87cdbd9974efdb92ee48bc8d7cd0ae4bf217004db3d080cbaee652ca7"
          ],
          "data": "0x000000000000000000000000000000000000000000000000000000006786e9940000000000000000000000000000000000000000000000000004ccc38366cdee0000000000000000000000000000000000000000000000000dc827ffe988c2fb",
          "blockHash": "0xdf91e4ed809c40afbc9b21bf62f0b7fc4c91b6a98457e2d5b7b951daa36ef85b",
          "blockNumber": "0x7254a1",
          "transactionHash": "0x9547a1b7d02982478bdf653b387fcf682a0ca9dd3233ac724f01a8653e146e64",
          "transactionIndex": "0x51",
          "logIndex": "0x73",
          "removed": false
        }
      ],
      "logsBloom": "0x00000000000000000000000000000000000000000000000000000000000000000000000000000000000000000000000020000000000000004000000000000000000000000000000000000008000000000000000000000000000000000000000000000000020000000000000000000800020000000000000000000010000000000000000000010000000000000000000000000000000000000000010000000000000000000000000000000000000000004000000000000000000000000000000000000002000000800000000000000000000000000000080000008000000020000000000000000000000000000000000000000000000000000000000000000000",
      "type": "0x2",
      "transactionHash": "0x9547a1b7d02982478bdf653b387fcf682a0ca9dd3233ac724f01a8653e146e64",
      "transactionIndex": "0x51",
      "blockHash": "0xdf91e4ed809c40afbc9b21bf62f0b7fc4c91b6a98457e2d5b7b951daa36ef85b",
      "blockNumber": "0x7254a1",
      "gasUsed": "0xfb93",
      "effectiveGasPrice": "0x122001eda",
      "from": "0xc77f7fed3b5cc8249adc428c5f44c9063b9734b4",
      "to": "0x270e88f8683660553e8ba4eb2ad7c91a1710d769",
      "contractAddress": null
    }
  ],
  "libraries": [],
  "pending": [],
  "returns": {},
  "timestamp": 1736894870,
  "chain": 11155111,
  "commit": "51a374b"
}