{
  "transactions": [
    {
      "hash": "0xbf20f1353f3d1e94c9db29fa5e47b0301e505c33ca5bdee1bd5943ea59238e99",
      "transactionType": "CALL",
      "contractName": null,
      "contractAddress": "0xbf4a322f1496e5c3d34a9bcdb4c60567b38c7de2",
      "function": "buy(address)",
      "arguments": [
        "0xC77f7fed3b5Cc8249aDc428c5F44C9063B9734b4"
      ],
      "transaction": {
        "from": "0xc77f7fed3b5cc8249adc428c5f44c9063b9734b4",
        "to": "0xbf4a322f1496e5c3d34a9bcdb4c60567b38c7de2",
        "gas": "0x1b309",
        "value": "0xde0b6b3a7640000",
        "input": "0xf088d547000000000000000000000000c77f7fed3b5cc8249adc428c5f44c9063b9734b4",
        "nonce": "0xdfa",
        "chainId": "0xaa36a7"
      },
      "additionalContracts": [],
      "isFixedGasLimit": false
    }
  ],
  "receipts": [
    {
      "status": "0x1",
      "cumulativeGasUsed": "0x931cbc",
      "logs": [
        {
          "address": "0xbf4a322f1496e5c3d34a9bcdb4c60567b38c7de2",
          "topics": [
            "0xddf252ad1be2c89b69c2b068fc378daa952ba7f163c4a11628f55a4df523b3ef",
            "0x0000000000000000000000000000000000000000000000000000000000000000",
            "0x000000000000000000000000c77f7fed3b5cc8249adc428c5f44c9063b9734b4"
          ],
          "data": "0x0000000000000000000000000000000000000000000000349df4fbcd092ba81b",
          "blockHash": "0xc51b9b06f07b4e24f996dbdfac6dfb54d5222c2efc3cb0cdba178a06bba0fe69",
          "blockNumber": "0x7266e0",
          "transactionHash": "0xbf20f1353f3d1e94c9db29fa5e47b0301e505c33ca5bdee1bd5943ea59238e99",
          "transactionIndex": "0x4e",
          "logIndex": "0x6d",
          "removed": false
        },
        {
          "address": "0xbf4a322f1496e5c3d34a9bcdb4c60567b38c7de2",
          "topics": [
            "0xddf252ad1be2c89b69c2b068fc378daa952ba7f163c4a11628f55a4df523b3ef",
            "0x0000000000000000000000000000000000000000000000000000000000000000",
            "0x000000000000000000000000c77f7fed3b5cc8249adc428c5f44c9063b9734b4"
          ],
          "data": "0x00000000000000000000000000000000000000000000000028dbe18c106d9fad",
          "blockHash": "0xc51b9b06f07b4e24f996dbdfac6dfb54d5222c2efc3cb0cdba178a06bba0fe69",
          "blockNumber": "0x7266e0",
          "transactionHash": "0xbf20f1353f3d1e94c9db29fa5e47b0301e505c33ca5bdee1bd5943ea59238e99",
          "transactionIndex": "0x4e",
          "logIndex": "0x6e",
          "removed": false
        },
        {
          "address": "0xbf4a322f1496e5c3d34a9bcdb4c60567b38c7de2",
          "topics": [
            "0x4afcb4a87cdbd9974efdb92ee48bc8d7cd0ae4bf217004db3d080cbaee652ca7"
          ],
          "data": "0x000000000000000000000000000000000000000000000000000000006787c5c000000000000000000000000000000000000000000000000000039fab99e2870f0000000000000000000000000000000000000000000000000de0b6b3a7640000",
          "blockHash": "0xc51b9b06f07b4e24f996dbdfac6dfb54d5222c2efc3cb0cdba178a06bba0fe69",
          "blockNumber": "0x7266e0",
          "transactionHash": "0xbf20f1353f3d1e94c9db29fa5e47b0301e505c33ca5bdee1bd5943ea59238e99",
          "transactionIndex": "0x4e",
          "logIndex": "0x6f",
          "removed": false
        }
      ],
      "logsBloom": "0x00000000000000000000000000000000000000000000000000000000000000000000000000000000000000000000000000000000000000004000000000000000000000000000000000000008000000000000001000000000000000000000000000000000020000000000000000000800020000000000000000000010000000000000000000000000000000000000000000000000000008000000010000000000000000000000000000000000000000004000000000000000000000000000000000000002000000800000000000001000000000000000080000000000000020000000000000000000000000000000000000000000000000000000000000000000",
      "type": "0x2",
      "transactionHash": "0xbf20f1353f3d1e94c9db29fa5e47b0301e505c33ca5bdee1bd5943ea59238e99",
      "transactionIndex": "0x4e",
      "blockHash": "0xc51b9b06f07b4e24f996dbdfac6dfb54d5222c2efc3cb0cdba178a06bba0fe69",
      "blockNumber": "0x7266e0",
      "gasUsed": "0x13af6",
      "effectiveGasPrice": "0x390255b50",
      "from": "0xc77f7fed3b5cc8249adc428c5f44c9063b9734b4",
      "to": "0xbf4a322f1496e5c3d34a9bcdb4c60567b38c7de2",
      "contractAddress": null
    }
  ],
  "libraries": [],
  "pending": [],
  "returns": {},
  "timestamp": 1736951234,
  "chain": 11155111,
  "commit": "51a374b"
}