{
  "transactions": [
    {
      "hash": "0xa136d7ee8b8ad051751d52adac81fbcfabe70505f8efa0bbdb53bc9f14ab3bd5",
      "transactionType": "CALL",
      "contractName": null,
      "contractAddress": "0x5eb9cc76c3506942c1c0ead70e877dd5e4f00cb0",
      "function": "sell(uint256)",
      "arguments": [
        "989138882821055554931"
      ],
      "transaction": {
        "from": "0xc77f7fed3b5cc8249adc428c5f44c9063b9734b4",
        "to": "0x5eb9cc76c3506942c1c0ead70e877dd5e4f00cb0",
        "gas": "0x16fec",
        "value": "0x0",
        "input": "0xe4849b320000000000000000000000000000000000000000000000359f0f3d3e4bbfa573",
        "nonce": "0x30d",
        "chainId": "0xaa36a7"
      },
      "additionalContracts": [],
      "isFixedGasLimit": false
    }
  ],
  "receipts": [
    {
      "status": "0x1",
      "cumulativeGasUsed": "0xfae303",
      "logs": [
        {
          "address": "0x5eb9cc76c3506942c1c0ead70e877dd5e4f00cb0",
          "topics": [
            "0xddf252ad1be2c89b69c2b068fc378daa952ba7f163c4a11628f55a4df523b3ef",
            "0x000000000000000000000000c77f7fed3b5cc8249adc428c5f44c9063b9734b4",
            "0x0000000000000000000000000000000000000000000000000000000000000000"
          ],
          "data": "0x0000000000000000000000000000000000000000000000359f0f3d3e4bbfa573",
          "blockHash": "0x086924567d4aa9e18362fbaaf410278dea0670208c2ea70c753209975bcee5a0",
          "blockNumber": "0x724ef1",
          "transactionHash": "0xa136d7ee8b8ad051751d52adac81fbcfabe70505f8efa0bbdb53bc9f14ab3bd5",
          "transactionIndex": "0x61",
          "logIndex": "0xbf",
          "removed": false
        },
        {
          "address": "0x5eb9cc76c3506942c1c0ead70e877dd5e4f00cb0",
          "topics": [
            "0x4afcb4a87cdbd9974efdb92ee48bc8d7cd0ae4bf217004db3d080cbaee652ca7"
          ],
          "data": "0x000000000000000000000000000000000000000000000000000000006786a5000000000000000000000000000000000000000000000000000003910c489009040000000000000000000000000000000000000000000000000dc7db13322ca29c",
          "blockHash": "0x086924567d4aa9e18362fbaaf410278dea0670208c2ea70c753209975bcee5a0",
          "blockNumber": "0x724ef1",
          "transactionHash": "0xa136d7ee8b8ad051751d52adac81fbcfabe70505f8efa0bbdb53bc9f14ab3bd5",
          "transactionIndex": "0x61",
          "logIndex": "0xc0",
          "removed": false
        }
      ],
      "logsBloom": "0x00000000000000000000000000000000000000000000000000000000000000000000000000000000000000000000000000000000000000004000000000000000000000000000000000000008000000000000000000000000000000000000000000000000020000000000000004000800020000000000000000000010000000000000000000000000000000000000000000000000000000000000010000000000000000000000000000000000000000004000000000000000000000000000020000000002000000800000008000000000000000000000080000000000000020000000000000000000000000000000000000000000000000000000000000000000",
      "type": "0x2",
      "transactionHash": "0xa136d7ee8b8ad051751d52adac81fbcfabe70505f8efa0bbdb53bc9f14ab3bd5",
      "transactionIndex": "0x61",
      "blockHash": "0x086924567d4aa9e18362fbaaf410278dea0670208c2ea70c753209975bcee5a0",
      "blockNumber": "0x724ef1",
      "gasUsed": "0xfb93",
      "effectiveGasPrice": "0x60a8f31f8",
      "from": "0xc77f7fed3b5cc8249adc428c5f44c9063b9734b4",
      "to": "0x5eb9cc76c3506942c1c0ead70e877dd5e4f00cb0",
      "contractAddress": null
    }
  ],
  "libraries": [],
  "pending": [],
  "returns": {},
  "timestamp": 1736877313,
  "chain": 11155111,
  "commit": "51a374b"
}