{
  "transactions": [
    {
      "hash": "0xcf09d0ec2a29d893823fe3f1fc590ceafddfada1c72257e862d4873b3e78ea2b",
      "transactionType": "CALL",
      "contractName": null,
      "contractAddress": "0x8aafd3ede9adb0ff97c7aebce82a919afb1c8764",
      "function": "sell(uint256)",
      "arguments": [
        "718079733377"
      ],
      "transaction": {
        "from": "0xc77f7fed3b5cc8249adc428c5f44c9063b9734b4",
        "to": "0x8aafd3ede9adb0ff97c7aebce82a919afb1c8764",
        "gas": "0x1722a",
        "value": "0x0",
        "input": "0xe4849b32000000000000000000000000000000000000000000000000000000a730e32e81",
        "nonce": "0x1611",
        "chainId": "0xaa36a7"
      },
      "additionalContracts": [],
      "isFixedGasLimit": false
    }
  ],
  "receipts": [
    {
      "status": "0x1",
      "cumulativeGasUsed": "0xf89838",
      "logs": [
        {
          "address": "0x8aafd3ede9adb0ff97c7aebce82a919afb1c8764",
          "topics": [
            "0xddf252ad1be2c89b69c2b068fc378daa952ba7f163c4a11628f55a4df523b3ef",
            "0x000000000000000000000000c77f7fed3b5cc8249adc428c5f44c9063b9734b4",
            "0x0000000000000000000000000000000000000000000000000000000000000000"
          ],
          "data": "0x000000000000000000000000000000000000000000000000000000a5da7af6d6",
          "blockHash": "0xe47f6d45e3a71deeeaffe4570535179f6cc845a5e44763bd19b9fa5cdc9c450a",
          "blockNumber": "0x731da6",
          "transactionHash": "0xcf09d0ec2a29d893823fe3f1fc590ceafddfada1c72257e862d4873b3e78ea2b",
          "transactionIndex": "0x74",
          "logIndex": "0xbe",
          "removed": false
        },
        {
          "address": "0x8aafd3ede9adb0ff97c7aebce82a919afb1c8764",
          "topics": [
            "0xddf252ad1be2c89b69c2b068fc378daa952ba7f163c4a11628f55a4df523b3ef",
            "0x000000000000000000000000c77f7fed3b5cc8249adc428c5f44c9063b9734b4",
            "0x000000000000000000000000c77f7fed3b5cc8249adc428c5f44c9063b9734b4"
          ],
          "data": "0x00000000000000000000000000000000000000000000000000000001566837ab",
          "blockHash": "0xe47f6d45e3a71deeeaffe4570535179f6cc845a5e44763bd19b9fa5cdc9c450a",
          "blockNumber": "0x731da6",
          "transactionHash": "0xcf09d0ec2a29d893823fe3f1fc590ceafddfada1c72257e862d4873b3e78ea2b",
          "transactionIndex": "0x74",
          "logIndex": "0xbf",
          "removed": false
        },
        {
          "address": "0x8aafd3ede9adb0ff97c7aebce82a919afb1c8764",
          "topics": [
            "0x4afcb4a87cdbd9974efdb92ee48bc8d7cd0ae4bf217004db3d080cbaee652ca7"
          ],
          "data": "0x00000000000000000000000000000000000000000000000000000000679060b000000000000000000000000000000000000000000000000000143a5242fded9600000000000000000000000000000000000000000000000000000000f3b132d9",
          "blockHash": "0xe47f6d45e3a71deeeaffe4570535179f6cc845a5e44763bd19b9fa5cdc9c450a",
          "blockNumber": "0x731da6",
          "transactionHash": "0xcf09d0ec2a29d893823fe3f1fc590ceafddfada1c72257e862d4873b3e78ea2b",
          "transactionIndex": "0x74",
          "logIndex": "0xc0",
          "removed": false
        }
      ],
      "logsBloom": "0x00000000000000000000000000000000000000000600000000000000000000000000000000000000000000000000000000000000000000004000000000000000000000000000004000000008000000000000000000000000000000000000000000000000020000000000000000000800020000000000000000000010000000000000000000000000000000000000000000000000000000000000010000000000000000000000000000000000000000004000000000000000000000000000000000000002000000800000000000000000000000000000080000000000000020000000000000000000000000000000000000000000000000000000000000000000",
      "type": "0x2",
      "transactionHash": "0xcf09d0ec2a29d893823fe3f1fc590ceafddfada1c72257e862d4873b3e78ea2b",
      "transactionIndex": "0x74",
      "blockHash": "0xe47f6d45e3a71deeeaffe4570535179f6cc845a5e44763bd19b9fa5cdc9c450a",
      "blockNumber": "0x731da6",
      "gasUsed": "0xfd1b",
      "effectiveGasPrice": "0x8184ca6a",
      "from": "0xc77f7fed3b5cc8249adc428c5f44c9063b9734b4",
      "to": "0x8aafd3ede9adb0ff97c7aebce82a919afb1c8764",
      "contractAddress": null
    }
  ],
  "libraries": [],
  "pending": [],
  "returns": {},
  "timestamp": 1737515185,
  "chain": 11155111,
  "commit": "1d2fb70"
}