{
  "transactions": [
    {
      "hash": "0xc58c976e918f45f75d14d313c2470d8a028a6e7adb1dd8db7df8525e39b0bef5",
      "transactionType": "CALL",
      "contractName": null,
      "contractAddress": "0x5eb9cc76c3506942c1c0ead70e877dd5e4f00cb0",
      "function": "sell(uint256)",
      "arguments": [
        "989107329385780767749"
      ],
      "transaction": {
        "from": "0xc77f7fed3b5cc8249adc428c5f44c9063b9734b4",
        "to": "0x5eb9cc76c3506942c1c0ead70e877dd5e4f00cb0",
        "gas": "0x16fec",
        "value": "0x0",
        "input": "0xe4849b320000000000000000000000000000000000000000000000359e9f238fa6c06c05",
        "nonce": "0x3d3",
        "chainId": "0xaa36a7"
      },
      "additionalContracts": [],
      "isFixedGasLimit": false
    }
  ],
  "receipts": [
    {
      "status": "0x1",
      "cumulativeGasUsed": "0xc456bf",
      "logs": [
        {
          "address": "0x5eb9cc76c3506942c1c0ead70e877dd5e4f00cb0",
          "topics": [
            "0xddf252ad1be2c89b69c2b068fc378daa952ba7f163c4a11628f55a4df523b3ef",
            "0x000000000000000000000000c77f7fed3b5cc8249adc428c5f44c9063b9734b4",
            "0x0000000000000000000000000000000000000000000000000000000000000000"
          ],
          "data": "0x0000000000000000000000000000000000000000000000359e9f238fa6c06c05",
          "blockHash": "0x9c83c238bb1a0968b10404eef77a936c2bd17b6d01c4bb05b2c918a691d02c6e",
          "blockNumber": "0x724fd7",
          "transactionHash": "0xc58c976e918f45f75d14d313c2470d8a028a6e7adb1dd8db7df8525e39b0bef5",
          "transactionIndex": "0x6a",
          "logIndex": "0xd9",
          "removed": false
        },
        {
          "address": "0x5eb9cc76c3506942c1c0ead70e877dd5e4f00cb0",
          "topics": [
            "0x4afcb4a87cdbd9974efdb92ee48bc8d7cd0ae4bf217004db3d080cbaee652ca7"
          ],
          "data": "0x000000000000000000000000000000000000000000000000000000006786afe000000000000000000000000000000000000000000000000000039113bd6f0e6c0000000000000000000000000000000000000000000000000dc7db1331f47d6f",
          "blockHash": "0x9c83c238bb1a0968b10404eef77a936c2bd17b6d01c4bb05b2c918a691d02c6e",
          "blockNumber": "0x724fd7",
          "transactionHash": "0xc58c976e918f45f75d14d313c2470d8a028a6e7adb1dd8db7df8525e39b0bef5",
          "transactionIndex": "0x6a",
          "logIndex": "0xda",
          "removed": false
        }
      ],
      "logsBloom": "0x00000000000000000000000000000000000000000000000000000000000000000000000000000000000000000000000000000000000000004000000000000000000000000000000000000008000000000000000000000000000000000000000000000000020000000000000004000800020000000000000000000010000000000000000000000000000000000000000000000000000000000000010000000000000000000000000000000000000000004000000000000000000000000000020000000002000000800000008000000000000000000000080000000000000020000000000000000000000000000000000000000000000000000000000000000000",
      "type": "0x2",
      "transactionHash": "0xc58c976e918f45f75d14d313c2470d8a028a6e7adb1dd8db7df8525e39b0bef5",
      "transactionIndex": "0x6a",
      "blockHash": "0x9c83c238bb1a0968b10404eef77a936c2bd17b6d01c4bb05b2c918a691d02c6e",
      "blockNumber": "0x724fd7",
      "gasUsed": "0xfb93",
      "effectiveGasPrice": "0x3ba8a3949",
      "from": "0xc77f7fed3b5cc8249adc428c5f44c9063b9734b4",
      "to": "0x5eb9cc76c3506942c1c0ead70e877dd5e4f00cb0",
      "contractAddress": null
    }
  ],
  "libraries": [],
  "pending": [],
  "returns": {},
  "timestamp": 1736880097,
  "chain": 11155111,
  "commit": "51a374b"
}