{
  "transactions": [
    {
      "hash": "0x1f3cc6ca8b7479c771638751cc42cd4cf4b29c9d89b90f348cc3330dab05e3f4",
      "transactionType": "CALL",
      "contractName": null,
      "contractAddress": "0xbf4a322f1496e5c3d34a9bcdb4c60567b38c7de2",
      "function": "sell(uint256)",
      "arguments": [
        "981464961337855867257"
      ],
      "transaction": {
        "from": "0xc77f7fed3b5cc8249adc428c5f44c9063b9734b4",
        "to": "0xbf4a322f1496e5c3d34a9bcdb4c60567b38c7de2",
        "gas": "0x16fea",
        "value": "0x0",
        "input": "0xe4849b32000000000000000000000000000000000000000000000035348ffe5003647979",
        "nonce": "0xbab",
        "chainId": "0xaa36a7"
      },
      "additionalContracts": [],
      "isFixedGasLimit": false
    }
  ],
  "receipts": [
    {
      "status": "0x1",
      "cumulativeGasUsed": "0x19fbe41",
      "logs": [
        {
          "address": "0xbf4a322f1496e5c3d34a9bcdb4c60567b38c7de2",
          "topics": [
            "0xddf252ad1be2c89b69c2b068fc378daa952ba7f163c4a11628f55a4df523b3ef",
            "0x000000000000000000000000c77f7fed3b5cc8249adc428c5f44c9063b9734b4",
            "0x0000000000000000000000000000000000000000000000000000000000000000"
          ],
          "data": "0x000000000000000000000000000000000000000000000035348ffe5003647979",
          "blockHash": "0xa16fa6d8fc1a0b7cb197c954921021fa7f14817eb0ebfdaff34513c1ed77dfd3",
          "blockNumber": "0x725bc3",
          "transactionHash": "0x1f3cc6ca8b7479c771638751cc42cd4cf4b29c9d89b90f348cc3330dab05e3f4",
          "transactionIndex": "0xb4",
          "logIndex": "0x10c",
          "removed": false
        },
        {
          "address": "0xbf4a322f1496e5c3d34a9bcdb4c60567b38c7de2",
          "topics": [
            "0x4afcb4a87cdbd9974efdb92ee48bc8d7cd0ae4bf217004db3d080cbaee652ca7"
          ],
          "data": "0x0000000000000000000000000000000000000000000000000000000067873f80000000000000000000000000000000000000000000000000000398364036c1360000000000000000000000000000000000000000000000000dc7e3e578eed81a",
          "blockHash": "0xa16fa6d8fc1a0b7cb197c954921021fa7f14817eb0ebfdaff34513c1ed77dfd3",
          "blockNumber": "0x725bc3",
          "transactionHash": "0x1f3cc6ca8b7479c771638751cc42cd4cf4b29c9d89b90f348cc3330dab05e3f4",
          "transactionIndex": "0xb4",
          "logIndex": "0x10d",
          "removed": false
        }
      ],
      "logsBloom": "0x00000000000000000000000000000000000000000000000000000000000000000000000000000000000000000000000000000000000000004000000000000000000000000000000000000008000000000000001000000000000000000000000000000000020000000000000000000800020000000000000000000010000000000000000000000000000000000000000000000000000008000000010000000000000000000000000000000000000000004000000000000000000000000000000000000002000000800000000000001000000000000000080000000000000020000000000000000000000000000000000000000000000000000000000000000000",
      "type": "0x2",
      "transactionHash": "0x1f3cc6ca8b7479c771638751cc42cd4cf4b29c9d89b90f348cc3330dab05e3f4",
      "transactionIndex": "0xb4",
      "blockHash": "0xa16fa6d8fc1a0b7cb197c954921021fa7f14817eb0ebfdaff34513c1ed77dfd3",
      "blockNumber": "0x725bc3",
      "gasUsed": "0xfb91",
      "effectiveGasPrice": "0x4ff2e8ad",
      "from": "0xc77f7fed3b5cc8249adc428c5f44c9063b9734b4",
      "to": "0xbf4a322f1496e5c3d34a9bcdb4c60567b38c7de2",
      "contractAddress": null
    }
  ],
  "libraries": [],
  "pending": [],
  "returns": {},
  "timestamp": 1736916865,
  "chain": 11155111,
  "commit": "51a374b"
}