{
  "transactions": [
    {
      "hash": "0x54207adc247f56230f187b77486e5f5c1eda83e100ce67260f246a42d63327be",
      "transactionType": "CALL",
      "contractName": null,
      "contractAddress": "0xd7bc75898e513accccf720a874d44dab5a4b6223",
      "function": "sell(uint256)",
      "arguments": [
        "9929992100447029096"
      ],
      "transaction": {
        "from": "0xc77f7fed3b5cc8249adc428c5f44c9063b9734b4",
        "to": "0xd7bc75898e513accccf720a874d44dab5a4b6223",
        "gas": "0x15b6b",
        "value": "0x0",
        "input": "0xe4849b3200000000000000000000000000000000000000000000000089ce6b3439948768",
        "nonce": "0xd1",
        "chainId": "0xaa36a7"
      },
      "additionalContracts": [],
      "isFixedGasLimit": false
    }
  ],
  "receipts": [
    {
      "status": "0x1",
      "cumulativeGasUsed": "0x593832",
      "logs": [
        {
          "address": "0xd7bc75898e513accccf720a874d44dab5a4b6223",
          "topics": [
            "0xddf252ad1be2c89b69c2b068fc378daa952ba7f163c4a11628f55a4df523b3ef",
            "0x000000000000000000000000c77f7fed3b5cc8249adc428c5f44c9063b9734b4",
            "0x0000000000000000000000000000000000000000000000000000000000000000"
          ],
          "data": "0x00000000000000000000000000000000000000000000000089ce6b3439948768",
          "blockHash": "0xc0d76e4ba4f74ed99a156df52f1cab34cfad293483354321d8ddf7b99ead6c51",
          "blockNumber": "0x723950",
          "transactionHash": "0x54207adc247f56230f187b77486e5f5c1eda83e100ce67260f246a42d63327be",
          "transactionIndex": "0x39",
          "logIndex": "0x53",
          "removed": false
        },
        {
          "address": "0xd7bc75898e513accccf720a874d44dab5a4b6223",
          "topics": [
            "0x4afcb4a87cdbd9974efdb92ee48bc8d7cd0ae4bf217004db3d080cbaee652ca7"
          ],
          "data": "0x000000000000000000000000000000000000000000000000000000006785a10800000000000000000000000000000000000000000000000000038d7f88a3d4160000000000000000000000000000000000000000000000000023474f493d2798",
          "blockHash": "0xc0d76e4ba4f74ed99a156df52f1cab34cfad293483354321d8ddf7b99ead6c51",
          "blockNumber": "0x723950",
          "transactionHash": "0x54207adc247f56230f187b77486e5f5c1eda83e100ce67260f246a42d63327be",
          "transactionIndex": "0x39",
          "logIndex": "0x54",
          "removed": false
        }
      ],
      "logsBloom": "0x00000000000000000000000000000000000000000000000000000000000000000000000000000000000000000000000000000000000000004000000000000000000000000000000000000008000000000000000000000000000000000000000000000000020000000000000000000800020000000000000000000010000000000000000000000000000000000000000000000000000000000000010000000000000000000000000000000000000000004000001000000000000000000000000000000002000000800000000000004000000000000000080000000000000020000000000000000000000000000000000000000000080000000000000000000000",
      "type": "0x2",
      "transactionHash": "0x54207adc247f56230f187b77486e5f5c1eda83e100ce67260f246a42d63327be",
      "transactionIndex": "0x39",
      "blockHash": "0xc0d76e4ba4f74ed99a156df52f1cab34cfad293483354321d8ddf7b99ead6c51",
      "blockNumber": "0x723950",
      "gasUsed": "0xfb87",
      "effectiveGasPrice": "0x2cd0c097",
      "from": "0xc77f7fed3b5cc8249adc428c5f44c9063b9734b4",
      "to": "0xd7bc75898e513accccf720a874d44dab5a4b6223",
      "contractAddress": null
    }
  ],
  "libraries": [],
  "pending": [],
  "returns": {},
  "timestamp": 1736810761,
  "chain": 11155111,
  "commit": "51a374b"
}