{
  "transactions": [
    {
      "hash": "0xfb7a46b55519632879d8e5dc1e8ff22b5837c106d8af0f0c6b194654fb1a678c",
      "transactionType": "CALL",
      "contractName": null,
      "contractAddress": "0x8aafd3ede9adb0ff97c7aebce82a919afb1c8764",
      "function": "sell(uint256)",
      "arguments": [
        "509493"
      ],
      "transaction": {
        "from": "0xc77f7fed3b5cc8249adc428c5f44c9063b9734b4",
        "to": "0x8aafd3ede9adb0ff97c7aebce82a919afb1c8764",
        "gas": "0x16208",
        "value": "0x0",
        "input": "0xe4849b32000000000000000000000000000000000000000000000000000000000007c635",
        "nonce": "0x142e",
        "chainId": "0xaa36a7"
      },
      "additionalContracts": [],
      "isFixedGasLimit": false
    }
  ],
  "receipts": [
    {
      "status": "0x1",
      "cumulativeGasUsed": "0xd1fcc1",
      "logs": [
        {
          "address": "0x8aafd3ede9adb0ff97c7aebce82a919afb1c8764",
          "topics": [
            "0xddf252ad1be2c89b69c2b068fc378daa952ba7f163c4a11628f55a4df523b3ef",
            "0x000000000000000000000000c77f7fed3b5cc8249adc428c5f44c9063b9734b4",
            "0x0000000000000000000000000000000000000000000000000000000000000000"
          ],
          "data": "0x000000000000000000000000000000000000000000000000000000000007b64a",
          "blockHash": "0xa82c17662ce89503d2a78f17ce51dff3036ca507b24ad3e2c2cb39f567299db2",
          "blockNumber": "0x731b6c",
          "transactionHash": "0xfb7a46b55519632879d8e5dc1e8ff22b5837c106d8af0f0c6b194654fb1a678c",
          "transactionIndex": "0x74",
          "logIndex": "0xc6",
          "removed": false
        },
        {
          "address": "0x8aafd3ede9adb0ff97c7aebce82a919afb1c8764",
          "topics": [
            "0xddf252ad1be2c89b69c2b068fc378daa952ba7f163c4a11628f55a4df523b3ef",
            "0x000000000000000000000000c77f7fed3b5cc8249adc428c5f44c9063b9734b4",
            "0x000000000000000000000000c77f7fed3b5cc8249adc428c5f44c9063b9734b4"
          ],
          "data": "0x0000000000000000000000000000000000000000000000000000000000000feb",
          "blockHash": "0xa82c17662ce89503d2a78f17ce51dff3036ca507b24ad3e2c2cb39f567299db2",
          "blockNumber": "0x731b6c",
          "transactionHash": "0xfb7a46b55519632879d8e5dc1e8ff22b5837c106d8af0f0c6b194654fb1a678c",
          "transactionIndex": "0x74",
          "logIndex": "0xc7",
          "removed": false
        },
        {
          "address": "0x8aafd3ede9adb0ff97c7aebce82a919afb1c8764",
          "topics": [
            "0x4afcb4a87cdbd9974efdb92ee48bc8d7cd0ae4bf217004db3d080cbaee652ca7"
          ],
          "data": "0x00000000000000000000000000000000000000000000000000000000679045ec000000000000000000000000000000000000000000000000000e9fbd5731604e0000000000000000000000000000000000000000000000000000000000000831",
          "blockHash": "0xa82c17662ce89503d2a78f17ce51dff3036ca507b24ad3e2c2cb39f567299db2",
          "blockNumber": "0x731b6c",
          "transactionHash": "0xfb7a46b55519632879d8e5dc1e8ff22b5837c106d8af0f0c6b194654fb1a678c",
          "transactionIndex": "0x74",
          "logIndex": "0xc8",
          "removed": false
        }
      ],
      "logsBloom": "0x00000000000000000000000000000000000000000600000000000000000000000000000000000000000000000000000000000000000000004000000000000000000000000000004000000008000000000000000000000000000000000000000000000000020000000000000000000800020000000000000000000010000000000000000000000000000000000000000000000000000000000000010000000000000000000000000000000000000000004000000000000000000000000000000000000002000000800000000000000000000000000000080000000000000020000000000000000000000000000000000000000000000000000000000000000000",
      "type": "0x2",
      "transactionHash": "0xfb7a46b55519632879d8e5dc1e8ff22b5837c106d8af0f0c6b194654fb1a678c",
      "transactionIndex": "0x74",
      "blockHash": "0xa82c17662ce89503d2a78f17ce51dff3036ca507b24ad3e2c2cb39f567299db2",
      "blockNumber": "0x731b6c",
      "gasUsed": "0xf213",
      "effectiveGasPrice": "0x100769fa2",
      "from": "0xc77f7fed3b5cc8249adc428c5f44c9063b9734b4",
      "to": "0x8aafd3ede9adb0ff97c7aebce82a919afb1c8764",
      "contractAddress": null
    }
  ],
  "libraries": [],
  "pending": [],
  "returns": {},
  "timestamp": 1737508333,
  "chain": 11155111,
  "commit": "1d2fb70"
}