{
  "transactions": [
    {
      "hash": "0xa3f031a93a5350d555dac1100c15d2dc3c5b37ba395e1dd50a48df8439a0bfef",
      "transactionType": "CALL",
      "contractName": null,
      "contractAddress": "0x270e88f8683660553e8ba4eb2ad7c91a1710d769",
      "function": "buy(address)",
      "arguments": [
        "0xC77f7fed3b5Cc8249aDc428c5F44C9063B9734b4"
      ],
      "transaction": {
        "from": "0xc77f7fed3b5cc8249adc428c5f44c9063b9734b4",
        "to": "0x270e88f8683660553e8ba4eb2ad7c91a1710d769",
        "gas": "0x1b30c",
        "value": "0xde0b6b3a7640000",
        "input": "0xf088d547000000000000000000000000c77f7fed3b5cc8249adc428c5f44c9063b9734b4",
        "nonce": "0x5b4",
        "chainId": "0xaa36a7"
      },
      "additionalContracts": [],
      "isFixedGasLimit": false
    }
  ],
  "receipts": [
    {
      "status": "0x1",
      "cumulativeGasUsed": "0xb94b4c",
      "logs": [
        {
          "address": "0x270e88f8683660553e8ba4eb2ad7c91a1710d769",
          "topics": [
            "0xddf252ad1be2c89b69c2b068fc378daa952ba7f163c4a11628f55a4df523b3ef",
            "0x0000000000000000000000000000000000000000000000000000000000000000",
            "0x000000000000000000000000c77f7fed3b5cc8249adc428c5f44c9063b9734b4"
          ],
          "data": "0x000000000000000000000000000000000000000000000033cd3fc5c9c13d5ffe",
          "blockHash": "0x9d638494ffebb73f0464c5f69eee0d69e294b89139033ef425ca82fde0e7c632",
          "blockNumber": "0x72526f",
          "transactionHash": "0xa3f031a93a5350d555dac1100c15d2dc3c5b37ba395e1dd50a48df8439a0bfef",
          "transactionIndex": "0x41",
          "logIndex": "0x4b",
          "removed": false
        },
        {
          "address": "0x270e88f8683660553e8ba4eb2ad7c91a1710d769",
          "topics": [
            "0xddf252ad1be2c89b69c2b068fc378daa952ba7f163c4a11628f55a4df523b3ef",
            "0x0000000000000000000000000000000000000000000000000000000000000000",
            "0x000000000000000000000000c77f7fed3b5cc8249adc428c5f44c9063b9734b4"
          ],
          "data": "0x0000000000000000000000000000000000000000000000002839cff13c92cbba",
          "blockHash": "0x9d638494ffebb73f0464c5f69eee0d69e294b89139033ef425ca82fde0e7c632",
          "blockNumber": "0x72526f",
          "transactionHash": "0xa3f031a93a5350d555dac1100c15d2dc3c5b37ba395e1dd50a48df8439a0bfef",
          "transactionIndex": "0x41",
          "logIndex": "0x4c",
          "removed": false
        },
        {
          "address": "0x270e88f8683660553e8ba4eb2ad7c91a1710d769",
          "topics": [
            "0x4afcb4a87cdbd9974efdb92ee48bc8d7cd0ae4bf217004db3d080cbaee652ca7"
          ],
          "data": "0x000000000000000000000000000000000000000000000000000000006786cf240000000000000000000000000000000000000000000000000003ae5d850215ad0000000000000000000000000000000000000000000000000de0b6b3a7640000",
          "blockHash": "0x9d638494ffebb73f0464c5f69eee0d69e294b89139033ef425ca82fde0e7c632",
          "blockNumber": "0x72526f",
          "transactionHash": "0xa3f031a93a5350d555dac1100c15d2dc3c5b37ba395e1dd50a48df8439a0bfef",
          "transactionIndex": "0x41",
          "logIndex": "0x4d",
          "removed": false
        }
      ],
      "logsBloom": "0x00000000000000000000000000000000000000000000000000000000000000000000000000000000000000000000000020000000000000004000000000000000000000000000000000000008000000000000000000000000000000000000000000000000020000000000000000000800020000000000000000000010000000000000000000010000000000000000000000000000000000000000010000000000000000000000000000000000000000004000000000000000000000000000000000000002000000800000000000000000000000000000080000008000000020000000000000000000000000000000000000000000000000000000000000000000",
      "type": "0x2",
      "transactionHash": "0xa3f031a93a5350d555dac1100c15d2dc3c5b37ba395e1dd50a48df8439a0bfef",
      "transactionIndex": "0x41",
      "blockHash": "0x9d638494ffebb73f0464c5f69eee0d69e294b89139033ef425ca82fde0e7c632",
      "blockNumber": "0x72526f",
      "gasUsed": "0x13af8",
      "effectiveGasPrice": "0x469e87033",
      "from": "0xc77f7fed3b5cc8249adc428c5f44c9063b9734b4",
      "to": "0x270e88f8683660553e8ba4eb2ad7c91a1710d769",
      "contractAddress": null
    }
  ],
  "libraries": [],
  "pending": [],
  "returns": {},
  "timestamp": 1736888102,
  "chain": 11155111,
  "commit": "51a374b"
}