{
  "transactions": [
    {
      "hash": "0x4cd85699fc1e9f04e880cdf80bedd39796b9d583c7ed258bb2b7391ec75f66c8",
      "transactionType": "CALL",
      "contractName": null,
      "contractAddress": "0x8aafd3ede9adb0ff97c7aebce82a919afb1c8764",
      "function": "sell(uint256)",
      "arguments": [
        "363874"
      ],
      "transaction": {
        "from": "0xc77f7fed3b5cc8249adc428c5f44c9063b9734b4",
        "to": "0x8aafd3ede9adb0ff97c7aebce82a919afb1c8764",
        "gas": "0x16208",
        "value": "0x0",
        "input": "0xe4849b320000000000000000000000000000000000000000000000000000000000058d62",
        "nonce": "0x1626",
        "chainId": "0xaa36a7"
      },
      "additionalContracts": [],
      "isFixedGasLimit": false
    }
  ],
  "receipts": [
    {
      "status": "0x1",
      "cumulativeGasUsed": "0xc6b5c5",
      "logs": [
        {
          "address": "0x8aafd3ede9adb0ff97c7aebce82a919afb1c8764",
          "topics": [
            "0xddf252ad1be2c89b69c2b068fc378daa952ba7f163c4a11628f55a4df523b3ef",
            "0x000000000000000000000000c77f7fed3b5cc8249adc428c5f44c9063b9734b4",
            "0x0000000000000000000000000000000000000000000000000000000000000000"
          ],
          "data": "0x0000000000000000000000000000000000000000000000000000000000058204",
          "blockHash": "0x8f3c9a031dc235683993849a6c773f4b985d62849e624fe93fb2768ad743d92d",
          "blockNumber": "0x731dbc",
          "transactionHash": "0x4cd85699fc1e9f04e880cdf80bedd39796b9d583c7ed258bb2b7391ec75f66c8",
          "transactionIndex": "0x6f",
          "logIndex": "0xa2",
          "removed": false
        },
        {
          "address": "0x8aafd3ede9adb0ff97c7aebce82a919afb1c8764",
          "topics": [
            "0xddf252ad1be2c89b69c2b068fc378daa952ba7f163c4a11628f55a4df523b3ef",
            "0x000000000000000000000000c77f7fed3b5cc8249adc428c5f44c9063b9734b4",
            "0x000000000000000000000000c77f7fed3b5cc8249adc428c5f44c9063b9734b4"
          ],
          "data": "0x0000000000000000000000000000000000000000000000000000000000000b5e",
          "blockHash": "0x8f3c9a031dc235683993849a6c773f4b985d62849e624fe93fb2768ad743d92d",
          "blockNumber": "0x731dbc",
          "transactionHash": "0x4cd85699fc1e9f04e880cdf80bedd39796b9d583c7ed258bb2b7391ec75f66c8",
          "transactionIndex": "0x6f",
          "logIndex": "0xa3",
          "removed": false
        },
        {
          "address": "0x8aafd3ede9adb0ff97c7aebce82a919afb1c8764",
          "topics": [
            "0x4afcb4a87cdbd9974efdb92ee48bc8d7cd0ae4bf217004db3d080cbaee652ca7"
          ],
          "data": "0x00000000000000000000000000000000000000000000000000000000679061b800000000000000000000000000000000000000000000000000146fe1999e0df6000000000000000000000000000000000000000000000000000000000000082d",
          "blockHash": "0x8f3c9a031dc235683993849a6c773f4b985d62849e624fe93fb2768ad743d92d",
          "blockNumber": "0x731dbc",
          "transactionHash": "0x4cd85699fc1e9f04e880cdf80bedd39796b9d583c7ed258bb2b7391ec75f66c8",
          "transactionIndex": "0x6f",
          "logIndex": "0xa4",
          "removed": false
        }
      ],
      "logsBloom": "0x00000000000000000000000000000000000000000600000000000000000000000000000000000000000000000000000000000000000000004000000000000000000000000000004000000008000000000000000000000000000000000000000000000000020000000000000000000800020000000000000000000010000000000000000000000000000000000000000000000000000000000000010000000000000000000000000000000000000000004000000000000000000000000000000000000002000000800000000000000000000000000000080000000000000020000000000000000000000000000000000000000000000000000000000000000000",
      "type": "0x2",
      "transactionHash": "0x4cd85699fc1e9f04e880cdf80bedd39796b9d583c7ed258bb2b7391ec75f66c8",
      "transactionIndex": "0x6f",
      "blockHash": "0x8f3c9a031dc235683993849a6c773f4b985d62849e624fe93fb2768ad743d92d",
      "blockNumber": "0x731dbc",
      "gasUsed": "0xf213",
      "effectiveGasPrice": "0x605674c1",
      "from": "0xc77f7fed3b5cc8249adc428c5f44c9063b9734b4",
      "to": "0x8aafd3ede9adb0ff97c7aebce82a919afb1c8764",
      "contractAddress": null
    }
  ],
  "libraries": [],
  "pending": [],
  "returns": {},
  "timestamp": 1737515450,
  "chain": 11155111,
  "commit": "1d2fb70"
}