{
  "transactions": [
    {
      "hash": "0xcc2d97569d7ba3e013a7c452778f988244a5ae896e6c9972529627ee9549feb1",
      "transactionType": "CALL",
      "contractName": null,
      "contractAddress": "0x8aafd3ede9adb0ff97c7aebce82a919afb1c8764",
      "function": "sell(uint256)",
      "arguments": [
        "96250623928451"
      ],
      "transaction": {
        "from": "0xc77f7fed3b5cc8249adc428c5f44c9063b9734b4",
        "to": "0x8aafd3ede9adb0ff97c7aebce82a919afb1c8764",
        "gas": "0x15daa",
        "value": "0x0",
        "input": "0xe4849b320000000000000000000000000000000000000000000000000000578a183fa883",
        "nonce": "0x159b",
        "chainId": "0xaa36a7"
      },
      "additionalContracts": [],
      "isFixedGasLimit": false
    }
  ],
  "receipts": [
    {
      "status": "0x1",
      "cumulativeGasUsed": "0x9a5019",
      "logs": [
        {
          "address": "0x8aafd3ede9adb0ff97c7aebce82a919afb1c8764",
          "topics": [
            "0xddf252ad1be2c89b69c2b068fc378daa952ba7f163c4a11628f55a4df523b3ef",
            "0x000000000000000000000000c77f7fed3b5cc8249adc428c5f44c9063b9734b4",
            "0x0000000000000000000000000000000000000000000000000000000000000000"
          ],
          "data": "0x000000000000000000000000000000000000000000000000000056d6d05feac0",
          "blockHash": "0xf84aa3f804af7f0d6ee2cbbf90cff84e6313fc92144ca0e3c8f0e9f0e103c813",
          "blockNumber": "0x731d0b",
          "transactionHash": "0xcc2d97569d7ba3e013a7c452778f988244a5ae896e6c9972529627ee9549feb1",
          "transactionIndex": "0x7b",
          "logIndex": "0x9f",
          "removed": false
        },
        {
          "address": "0x8aafd3ede9adb0ff97c7aebce82a919afb1c8764",
          "topics": [
            "0xddf252ad1be2c89b69c2b068fc378daa952ba7f163c4a11628f55a4df523b3ef",
            "0x000000000000000000000000c77f7fed3b5cc8249adc428c5f44c9063b9734b4",
            "0x000000000000000000000000c77f7fed3b5cc8249adc428c5f44c9063b9734b4"
          ],
          "data": "0x000000000000000000000000000000000000000000000000000000b347dfbdc3",
          "blockHash": "0xf84aa3f804af7f0d6ee2cbbf90cff84e6313fc92144ca0e3c8f0e9f0e103c813",
          "blockNumber": "0x731d0b",
          "transactionHash": "0xcc2d97569d7ba3e013a7c452778f988244a5ae896e6c9972529627ee9549feb1",
          "transactionIndex": "0x7b",
          "logIndex": "0xa0",
          "removed": false
        },
        {
          "address": "0x8aafd3ede9adb0ff97c7aebce82a919afb1c8764",
          "topics": [
            "0x4afcb4a87cdbd9974efdb92ee48bc8d7cd0ae4bf217004db3d080cbaee652ca7"
          ],
          "data": "0x000000000000000000000000000000000000000000000000000000006790596c0000000000000000000000000000000000000000000000000012ded63b48d2d1000000000000000000000000000000000000000000000000000000770857e4b1",
          "blockHash": "0xf84aa3f804af7f0d6ee2cbbf90cff84e6313fc92144ca0e3c8f0e9f0e103c813",
          "blockNumber": "0x731d0b",
          "transactionHash": "0xcc2d97569d7ba3e013a7c452778f988244a5ae896e6c9972529627ee9549feb1",
          "transactionIndex": "0x7b",
          "logIndex": "0xa1",
          "removed": false
        }
      ],
      "logsBloom": "0x00000000000000000000000000000000000000000600000000000000000000000000000000000000000000000000000000000000000000004000000000000000000000000000004000000008000000000000000000000000000000000000000000000000020000000000000000000800020000000000000000000010000000000000000000000000000000000000000000000000000000000000010000000000000000000000000000000000000000004000000000000000000000000000000000000002000000800000000000000000000000000000080000000000000020000000000000000000000000000000000000000000000000000000000000000000",
      "type": "0x2",
      "transactionHash": "0xcc2d97569d7ba3e013a7c452778f988244a5ae896e6c9972529627ee9549feb1",
      "transactionIndex": "0x7b",
      "blockHash": "0xf84aa3f804af7f0d6ee2cbbf90cff84e6313fc92144ca0e3c8f0e9f0e103c813",
      "blockNumber": "0x731d0b",
      "gasUsed": "0xfd27",
      "effectiveGasPrice": "0x5acf56bf",
      "from": "0xc77f7fed3b5cc8249adc428c5f44c9063b9734b4",
      "to": "0x8aafd3ede9adb0ff97c7aebce82a919afb1c8764",
      "contractAddress": null
    }
  ],
  "libraries": [],
  "pending": [],
  "returns": {},
  "timestamp": 1737513326,
  "chain": 11155111,
  "commit": "1d2fb70"
}