{
  "transactions": [
    {
      "hash": "0xb34d0c0bc66e6f956f9f5c9457fd55edaf80ff13f1d939e24af3a4828d6ad049",
      "transactionType": "CALL",
      "contractName": null,
      "contractAddress": "0x270e88f8683660553e8ba4eb2ad7c91a1710d769",
      "function": "sell(uint256)",
      "arguments": [
        "966575248461539745051"
      ],
      "transaction": {
        "from": "0xc77f7fed3b5cc8249adc428c5f44c9063b9734b4",
        "to": "0x270e88f8683660553e8ba4eb2ad7c91a1710d769",
        "gas": "0x16fec",
        "value": "0x0",
        "input": "0xe4849b3200000000000000000000000000000000000000000000003465ed1b5733029d1b",
        "nonce": "0x57f",
        "chainId": "0xaa36a7"
      },
      "additionalContracts": [],
      "isFixedGasLimit": false
    }
  ],
  "receipts": [
    {
      "status": "0x1",
      "cumulativeGasUsed": "0xd85bb4",
      "logs": [
        {
          "address": "0x270e88f8683660553e8ba4eb2ad7c91a1710d769",
          "topics": [
            "0xddf252ad1be2c89b69c2b068fc378daa952ba7f163c4a11628f55a4df523b3ef",
            "0x000000000000000000000000c77f7fed3b5cc8249adc428c5f44c9063b9734b4",
            "0x0000000000000000000000000000000000000000000000000000000000000000"
          ],
          "data": "0x00000000000000000000000000000000000000000000003465ed1b5733029d1b",
          "blockHash": "0x37b6c302f6e82c6149c7c600b478f6a0c7930d9b3e3d8d3ac1b648b2ae4de3bb",
          "blockNumber": "0x72522c",
          "transactionHash": "0xb34d0c0bc66e6f956f9f5c9457fd55edaf80ff13f1d939e24af3a4828d6ad049",
          "transactionIndex": "0x44",
          "logIndex": "0x6a",
          "removed": false
        },
        {
          "address": "0x270e88f8683660553e8ba4eb2ad7c91a1710d769",
          "topics": [
            "0x4afcb4a87cdbd9974efdb92ee48bc8d7cd0ae4bf217004db3d080cbaee652ca7"
          ],
          "data": "0x000000000000000000000000000000000000000000000000000000006786cc000000000000000000000000000000000000000000000000000003a6a78275a1760000000000000000000000000000000000000000000000000dc83fdca1c6e0d2",
          "blockHash": "0x37b6c302f6e82c6149c7c600b478f6a0c7930d9b3e3d8d3ac1b648b2ae4de3bb",
          "blockNumber": "0x72522c",
          "transactionHash": "0xb34d0c0bc66e6f956f9f5c9457fd55edaf80ff13f1d939e24af3a4828d6ad049",
          "transactionIndex": "0x44",
          "logIndex": "0x6b",
          "removed": false
        }
      ],
      "logsBloom": "0x00000000000000000000000000000000000000000000000000000000000000000000000000000000000000000000000020000000000000004000000000000000000000000000000000000008000000000000000000000000000000000000000000000000020000000000000000000800020000000000000000000010000000000000000000010000000000000000000000000000000000000000010000000000000000000000000000000000000000004000000000000000000000000000000000000002000000800000000000000000000000000000080000008000000020000000000000000000000000000000000000000000000000000000000000000000",
      "type": "0x2",
      "transactionHash": "0xb34d0c0bc66e6f956f9f5c9457fd55edaf80ff13f1d939e24af3a4828d6ad049",
      "transactionIndex": "0x44",
      "blockHash": "0x37b6c302f6e82c6149c7c600b478f6a0c7930d9b3e3d8d3ac1b648b2ae4de3bb",
      "blockNumber": "0x72522c",
      "gasUsed": "0xfb93",
      "effectiveGasPrice": "0x3f6dc3ed4",
      "from": "0xc77f7fed3b5cc8249adc428c5f44c9063b9734b4",
      "to": "0x270e88f8683660553e8ba4eb2ad7c91a1710d769",
      "contractAddress": null
    }
  ],
  "libraries": [],
  "pending": [],
  "returns": {},
  "timestamp": 1736887297,
  "chain": 11155111,
  "commit": "51a374b"
}