{
  "transactions": [
    {
      "hash": "0xb6c50a6e3d05f3e8f19e668bf6b095f895a47750a9e3189837b1d98301ffbc0d",
      "transactionType": "CALL",
      "contractName": null,
      "contractAddress": "0x8aafd3ede9adb0ff97c7aebce82a919afb1c8764",
      "function": "sell(uint256)",
      "arguments": [
        "12431"
      ],
      "transaction": {
        "from": "0xc77f7fed3b5cc8249adc428c5f44c9063b9734b4",
        "to": "0x8aafd3ede9adb0ff97c7aebce82a919afb1c8764",
        "gas": "0x14e4c",
        "value": "0x0",
        "input": "0xe4849b32000000000000000000000000000000000000000000000000000000000000308f",
        "nonce": "0xfa1",
        "chainId": "0xaa36a7"
      },
      "additionalContracts": [],
      "isFixedGasLimit": false
    }
  ],
  "receipts": [
    {
      "status": "0x1",
      "cumulativeGasUsed": "0x13a92e6",
      "logs": [
        {
          "address": "0x8aafd3ede9adb0ff97c7aebce82a919afb1c8764",
          "topics": [
            "0xddf252ad1be2c89b69c2b068fc378daa952ba7f163c4a11628f55a4df523b3ef",
            "0x000000000000000000000000c77f7fed3b5cc8249adc428c5f44c9063b9734b4",
            "0x0000000000000000000000000000000000000000000000000000000000000000"
          ],
          "data": "0x000000000000000000000000000000000000000000000000000000000000302c",
          "blockHash": "0xa88eeda7abd04af929f2bf8fc4c838ba0321b857008a708c99733b5c313997fa",
          "blockNumber": "0x731609",
          "transactionHash": "0xb6c50a6e3d05f3e8f19e668bf6b095f895a47750a9e3189837b1d98301ffbc0d",
          "transactionIndex": "0x8f",
          "logIndex": "0x176",
          "removed": false
        },
        {
          "address": "0x8aafd3ede9adb0ff97c7aebce82a919afb1c8764",
          "topics": [
            "0xddf252ad1be2c89b69c2b068fc378daa952ba7f163c4a11628f55a4df523b3ef",
            "0x000000000000000000000000c77f7fed3b5cc8249adc428c5f44c9063b9734b4",
            "0x000000000000000000000000c77f7fed3b5cc8249adc428c5f44c9063b9734b4"
          ],
          "data": "0x0000000000000000000000000000000000000000000000000000000000000063",
          "blockHash": "0xa88eeda7abd04af929f2bf8fc4c838ba0321b857008a708c99733b5c313997fa",
          "blockNumber": "0x731609",
          "transactionHash": "0xb6c50a6e3d05f3e8f19e668bf6b095f895a47750a9e3189837b1d98301ffbc0d",
          "transactionIndex": "0x8f",
          "logIndex": "0x177",
          "removed": false
        },
        {
          "address": "0x8aafd3ede9adb0ff97c7aebce82a919afb1c8764",
          "topics": [
            "0x4afcb4a87cdbd9974efdb92ee48bc8d7cd0ae4bf217004db3d080cbaee652ca7"
          ],
          "data": "0x00000000000000000000000000000000000000000000000000000000679005180000000000000000000000000000000000000000000000000004c3273f4e3c300000000000000000000000000000000000000000000000000000000000000010",
          "blockHash": "0xa88eeda7abd04af929f2bf8fc4c838ba0321b857008a708c99733b5c313997fa",
          "blockNumber": "0x731609",
          "transactionHash": "0xb6c50a6e3d05f3e8f19e668bf6b095f895a47750a9e3189837b1d98301ffbc0d",
          "transactionIndex": "0x8f",
          "logIndex": "0x178",
          "removed": false
        }
      ],
      "logsBloom": "0x00000000000000000000000000000000000000000600000000000000000000000000000000000000000000000000000000000000000000004000000000000000000000000000004000000008000000000000000000000000000000000000000000000000020000000000000000000800020000000000000000000010000000000000000000000000000000000000000000000000000000000000010000000000000000000000000000000000000000004000000000000000000000000000000000000002000000800000000000000000000000000000080000000000000020000000000000000000000000000000000000000000000000000000000000000000",
      "type": "0x2",
      "transactionHash": "0xb6c50a6e3d05f3e8f19e668bf6b095f895a47750a9e3189837b1d98301ffbc0d",
      "transactionIndex": "0x8f",
      "blockHash": "0xa88eeda7abd04af929f2bf8fc4c838ba0321b857008a708c99733b5c313997fa",
      "blockNumber": "0x731609",
      "gasUsed": "0xf207",
      "effectiveGasPrice": "0x586842a5",
      "from": "0xc77f7fed3b5cc8249adc428c5f44c9063b9734b4",
      "to": "0x8aafd3ede9adb0ff97c7aebce82a919afb1c8764",
      "contractAddress": null
    }
  ],
  "libraries": [],
  "pending": [],
  "returns": {},
  "timestamp": 1737491736,
  "chain": 11155111,
  "commit": "1d2fb70"
}