{
  "transactions": [
    {
      "hash": "0xb39eb8ad759cfdd9d90153bc99c6dcc6a05e248fa8ef1cdf0df233918a7a61f2",
      "transactionType": "CALL",
      "contractName": null,
      "contractAddress": "0x5eb9cc76c3506942c1c0ead70e877dd5e4f00cb0",
      "function": "sell(uint256)",
      "arguments": [
        "989137607895755178249"
      ],
      "transaction": {
        "from": "0xc77f7fed3b5cc8249adc428c5f44c9063b9734b4",
        "to": "0x5eb9cc76c3506942c1c0ead70e877dd5e4f00cb0",
        "gas": "0x16fec",
        "value": "0x0",
        "input": "0xe4849b320000000000000000000000000000000000000000000000359f0ab5b49e1ac109",
        "nonce": "0x315",
        "chainId": "0xaa36a7"
      },
      "additionalContracts": [],
      "isFixedGasLimit": false
    }
  ],
  "receipts": [
    {
      "status": "0x1",
      "cumulativeGasUsed": "0x13eba84",
      "logs": [
        {
          "address": "0x5eb9cc76c3506942c1c0ead70e877dd5e4f00cb0",
          "topics": [
            "0xddf252ad1be2c89b69c2b068fc378daa952ba7f163c4a11628f55a4df523b3ef",
            "0x000000000000000000000000c77f7fed3b5cc8249adc428c5f44c9063b9734b4",
            "0x0000000000000000000000000000000000000000000000000000000000000000"
          ],
          "data": "0x0000000000000000000000000000000000000000000000359f0ab5b49e1ac109",
          "blockHash": "0xab17a3c6fc19729386f32b453f3d3918ab961f498dec0b155bc185f027d7e02b",
          "blockNumber": "0x724efa",
          "transactionHash": "0xb39eb8ad759cfdd9d90153bc99c6dcc6a05e248fa8ef1cdf0df233918a7a61f2",
          "transactionIndex": "0x81",
          "logIndex": "0xf3",
          "removed": false
        },
        {
          "address": "0x5eb9cc76c3506942c1c0ead70e877dd5e4f00cb0",
          "topics": [
            "0x4afcb4a87cdbd9974efdb92ee48bc8d7cd0ae4bf217004db3d080cbaee652ca7"
          ],
          "data": "0x000000000000000000000000000000000000000000000000000000006786a56c0000000000000000000000000000000000000000000000000003910c95b051a40000000000000000000000000000000000000000000000000dc7db13322a5ddc",
          "blockHash": "0xab17a3c6fc19729386f32b453f3d3918ab961f498dec0b155bc185f027d7e02b",
          "blockNumber": "0x724efa",
          "transactionHash": "0xb39eb8ad759cfdd9d90153bc99c6dcc6a05e248fa8ef1cdf0df233918a7a61f2",
          "transactionIndex": "0x81",
          "logIndex": "0xf4",
          "removed": false
        }
      ],
      "logsBloom": "0x00000000000000000000000000000000000000000000000000000000000000000000000000000000000000000000000000000000000000004000000000000000000000000000000000000008000000000000000000000000000000000000000000000000020000000000000004000800020000000000000000000010000000000000000000000000000000000000000000000000000000000000010000000000000000000000000000000000000000004000000000000000000000000000020000000002000000800000008000000000000000000000080000000000000020000000000000000000000000000000000000000000000000000000000000000000",
      "type": "0x2",
      "transactionHash": "0xb39eb8ad759cfdd9d90153bc99c6dcc6a05e248fa8ef1cdf0df233918a7a61f2",
      "transactionIndex": "0x81",
      "blockHash": "0xab17a3c6fc19729386f32b453f3d3918ab961f498dec0b155bc185f027d7e02b",
      "blockNumber": "0x724efa",
      "gasUsed": "0xfb93",
      "effectiveGasPrice": "0x63c04f2ad",
      "from": "0xc77f7fed3b5cc8249adc428c5f44c9063b9734b4",
      "to": "0x5eb9cc76c3506942c1c0ead70e877dd5e4f00cb0",
      "contractAddress": null
    }
  ],
  "libraries": [],
  "pending": [],
  "returns": {},
  "timestamp": 1736877422,
  "chain": 11155111,
  "commit": "51a374b"
}