{
  "transactions": [
    {
      "hash": "0xcce10b668bb06cb176cf65e7b99ddee684581dd58f975a3e852ceb72d37c5fe3",
      "transactionType": "CALL",
      "contractName": null,
      "contractAddress": "0xbf4a322f1496e5c3d34a9bcdb4c60567b38c7de2",
      "function": "sell(uint256)",
      "arguments": [
        "988053710914512524807"
      ],
      "transaction": {
        "from": "0xc77f7fed3b5cc8249adc428c5f44c9063b9734b4",
        "to": "0xbf4a322f1496e5c3d34a9bcdb4c60567b38c7de2",
        "gas": "0x16fea",
        "value": "0x0",
        "input": "0xe4849b320000000000000000000000000000000000000000000000358fffef24d2049607",
        "nonce": "0x9c5",
        "chainId": "0xaa36a7"
      },
      "additionalContracts": [],
      "isFixedGasLimit": false
    }
  ],
  "receipts": [
    {
      "status": "0x1",
      "cumulativeGasUsed": "0xd83a0b",
      "logs": [
        {
          "address": "0xbf4a322f1496e5c3d34a9bcdb4c60567b38c7de2",
          "topics": [
            "0xddf252ad1be2c89b69c2b068fc378daa952ba7f163c4a11628f55a4df523b3ef",
            "0x000000000000000000000000c77f7fed3b5cc8249adc428c5f44c9063b9734b4",
            "0x0000000000000000000000000000000000000000000000000000000000000000"
          ],
          "data": "0x0000000000000000000000000000000000000000000000358fffef24d2049607",
          "blockHash": "0x41478d98d73a27ef1848f91a0edf865f2bb203554500cf7f3160bb12ce198047",
          "blockNumber": "0x725971",
          "transactionHash": "0xcce10b668bb06cb176cf65e7b99ddee684581dd58f975a3e852ceb72d37c5fe3",
          "transactionIndex": "0x68",
          "logIndex": "0x8f",
          "removed": false
        },
        {
          "address": "0xbf4a322f1496e5c3d34a9bcdb4c60567b38c7de2",
          "topics": [
            "0x4afcb4a87cdbd9974efdb92ee48bc8d7cd0ae4bf217004db3d080cbaee652ca7"
          ],
          "data": "0x000000000000000000000000000000000000000000000000000000006787238400000000000000000000000000000000000000000000000000039213633ebbab0000000000000000000000000000000000000000000000000dc7e3f4ca8e95bb",
          "blockHash": "0x41478d98d73a27ef1848f91a0edf865f2bb203554500cf7f3160bb12ce198047",
          "blockNumber": "0x725971",
          "transactionHash": "0xcce10b668bb06cb176cf65e7b99ddee684581dd58f975a3e852ceb72d37c5fe3",
          "transactionIndex": "0x68",
          "logIndex": "0x90",
          "removed": false
        }
      ],
      "logsBloom": "0x00000000000000000000000000000000000000000000000000000000000000000000000000000000000000000000000000000000000000004000000000000000000000000000000000000008000000000000001000000000000000000000000000000000020000000000000000000800020000000000000000000010000000000000000000000000000000000000000000000000000008000000010000000000000000000000000000000000000000004000000000000000000000000000000000000002000000800000000000001000000000000000080000000000000020000000000000000000000000000000000000000000000000000000000000000000",
      "type": "0x2",
      "transactionHash": "0xcce10b668bb06cb176cf65e7b99ddee684581dd58f975a3e852ceb72d37c5fe3",
      "transactionIndex": "0x68",
      "blockHash": "0x41478d98d73a27ef1848f91a0edf865f2bb203554500cf7f3160bb12ce198047",
      "blockNumber": "0x725971",
      "gasUsed": "0xfb91",
      "effectiveGasPrice": "0x30bd90b18",
      "from": "0xc77f7fed3b5cc8249adc428c5f44c9063b9734b4",
      "to": "0xbf4a322f1496e5c3d34a9bcdb4c60567b38c7de2",
      "contractAddress": null
    }
  ],
  "libraries": [],
  "pending": [],
  "returns": {},
  "timestamp": 1736909702,
  "chain": 11155111,
  "commit": "51a374b"
}