{
  "transactions": [
    {
      "hash": "0x3c7518c674366f6fbf3a3d54e2eef626305da6225b2879f3488f2aca9622f83f",
      "transactionType": "CALL",
      "contractName": null,
      "contractAddress": "0x8aafd3ede9adb0ff97c7aebce82a919afb1c8764",
      "function": "sell(uint256)",
      "arguments": [
        "1839254749189008843"
      ],
      "transaction": {
        "from": "0xc77f7fed3b5cc8249adc428c5f44c9063b9734b4",
        "to": "0x8aafd3ede9adb0ff97c7aebce82a919afb1c8764",
        "gas": "0x15dca",
        "value": "0x0",
        "input": "0xe4849b320000000000000000000000000000000000000000000000001986587318dc6dcb",
        "nonce": "0x1470",
        "chainId": "0xaa36a7"
      },
      "additionalContracts": [],
      "isFixedGasLimit": false
    }
  ],
  "receipts": [
    {
      "status": "0x1",
      "cumulativeGasUsed": "0x13fd7c9",
      "logs": [
        {
          "address": "0x8aafd3ede9adb0ff97c7aebce82a919afb1c8764",
          "topics": [
            "0xddf252ad1be2c89b69c2b068fc378daa952ba7f163c4a11628f55a4df523b3ef",
            "0x000000000000000000000000c77f7fed3b5cc8249adc428c5f44c9063b9734b4",
            "0x0000000000000000000000000000000000000000000000000000000000000000"
          ],
          "data": "0x0000000000000000000000000000000000000000000000001952121c290bd145",
          "blockHash": "0x0c46d7931d3976e465da0e1dd9f6ad95f743345e7da5bef2ef442c5c1708b8cb",
          "blockNumber": "0x731bbd",
          "transactionHash": "0x3c7518c674366f6fbf3a3d54e2eef626305da6225b2879f3488f2aca9622f83f",
          "transactionIndex": "0xb0",
          "logIndex": "0x176",
          "removed": false
        },
        {
          "address": "0x8aafd3ede9adb0ff97c7aebce82a919afb1c8764",
          "topics": [
            "0xddf252ad1be2c89b69c2b068fc378daa952ba7f163c4a11628f55a4df523b3ef",
            "0x000000000000000000000000c77f7fed3b5cc8249adc428c5f44c9063b9734b4",
            "0x000000000000000000000000c77f7fed3b5cc8249adc428c5f44c9063b9734b4"
          ],
          "data": "0x00000000000000000000000000000000000000000000000000344656efd09c86",
          "blockHash": "0x0c46d7931d3976e465da0e1dd9f6ad95f743345e7da5bef2ef442c5c1708b8cb",
          "blockNumber": "0x731bbd",
          "transactionHash": "0x3c7518c674366f6fbf3a3d54e2eef626305da6225b2879f3488f2aca9622f83f",
          "transactionIndex": "0xb0",
          "logIndex": "0x177",
          "removed": false
        },
        {
          "address": "0x8aafd3ede9adb0ff97c7aebce82a919afb1c8764",
          "topics": [
            "0x4afcb4a87cdbd9974efdb92ee48bc8d7cd0ae4bf217004db3d080cbaee652ca7"
          ],
          "data": "0x00000000000000000000000000000000000000000000000000000000679049b8000000000000000000000000000000000000000000000000000f72a52d56c9f6000000000000000000000000000000000000000000000000001c694e26430d37",
          "blockHash": "0x0c46d7931d3976e465da0e1dd9f6ad95f743345e7da5bef2ef442c5c1708b8cb",
          "blockNumber": "0x731bbd",
          "transactionHash": "0x3c7518c674366f6fbf3a3d54e2eef626305da6225b2879f3488f2aca9622f83f",
          "transactionIndex": "0xb0",
          "logIndex": "0x178",
          "removed": false
        }
      ],
      "logsBloom": "0x00000000000000000000000000000000000000000600000000000000000000000000000000000000000000000000000000000000000000004000000000000000000000000000004000000008000000000000000000000000000000000000000000000000020000000000000000000800020000000000000000000010000000000000000000000000000000000000000000000000000000000000010000000000000000000000000000000000000000004000000000000000000000000000000000000002000000800000000000000000000000000000080000000000000020000000000000000000000000000000000000000000000000000000000000000000",
      "type": "0x2",
      "transactionHash": "0x3c7518c674366f6fbf3a3d54e2eef626305da6225b2879f3488f2aca9622f83f",
      "transactionIndex": "0xb0",
      "blockHash": "0x0c46d7931d3976e465da0e1dd9f6ad95f743345e7da5bef2ef442c5c1708b8cb",
      "blockNumber": "0x731bbd",
      "gasUsed": "0xfd3f",
      "effectiveGasPrice": "0xf193e43e",
      "from": "0xc77f7fed3b5cc8249adc428c5f44c9063b9734b4",
      "to": "0x8aafd3ede9adb0ff97c7aebce82a919afb1c8764",
      "contractAddress": null
    }
  ],
  "libraries": [],
  "pending": [],
  "returns": {},
  "timestamp": 1737509306,
  "chain": 11155111,
  "commit": "1d2fb70"
}