{
  "transactions": [
    {
      "hash": "0xaf665a5b7e419395d6b6f94a258d6b778c8a8441a4ee8d1915a06fa6b949a22e",
      "transactionType": "CALL",
      "contractName": null,
      "contractAddress": "0x270e88f8683660553e8ba4eb2ad7c91a1710d769",
      "function": "buy(address)",
      "arguments": [
        "0xC77f7fed3b5Cc8249aDc428c5F44C9063B9734b4"
      ],
      "transaction": {
        "from": "0xc77f7fed3b5cc8249adc428c5f44c9063b9734b4",
        "to": "0x270e88f8683660553e8ba4eb2ad7c91a1710d769",
        "gas": "0x1b30c",
        "value": "0xde0b6b3a7640000",
        "input": "0xf088d547000000000000000000000000c77f7fed3b5cc8249adc428c5f44c9063b9734b4",
        "nonce": "0x70d",
        "chainId": "0xaa36a7"
      },
      "additionalContracts": [],
      "isFixedGasLimit": false
    }
  ],
  "receipts": [
    {
      "status": "0x1",
      "cumulativeGasUsed": "0x796f0b",
      "logs": [
        {
          "address": "0x270e88f8683660553e8ba4eb2ad7c91a1710d769",
          "topics": [
            "0xddf252ad1be2c89b69c2b068fc378daa952ba7f163c4a11628f55a4df523b3ef",
            "0x0000000000000000000000000000000000000000000000000000000000000000",
            "0x000000000000000000000000c77f7fed3b5cc8249adc428c5f44c9063b9734b4"
          ],
          "data": "0x000000000000000000000000000000000000000000000028365fcef71baffb45",
          "blockHash": "0xc8b0dc1f69b772a1d2fbf28c8caa091bf3f2d5a29d0cdd74b58c39b57b5dcf98",
          "blockNumber": "0x725423",
          "transactionHash": "0xaf665a5b7e419395d6b6f94a258d6b778c8a8441a4ee8d1915a06fa6b949a22e",
          "transactionIndex": "0x39",
          "logIndex": "0x57",
          "removed": false
        },
        {
          "address": "0x270e88f8683660553e8ba4eb2ad7c91a1710d769",
          "topics": [
            "0xddf252ad1be2c89b69c2b068fc378daa952ba7f163c4a11628f55a4df523b3ef",
            "0x0000000000000000000000000000000000000000000000000000000000000000",
            "0x000000000000000000000000c77f7fed3b5cc8249adc428c5f44c9063b9734b4"
          ],
          "data": "0x0000000000000000000000000000000000000000000000001f39eec875671b30",
          "blockHash": "0xc8b0dc1f69b772a1d2fbf28c8caa091bf3f2d5a29d0cdd74b58c39b57b5dcf98",
          "blockNumber": "0x725423",
          "transactionHash": "0xaf665a5b7e419395d6b6f94a258d6b778c8a8441a4ee8d1915a06fa6b949a22e",
          "transactionIndex": "0x39",
          "logIndex": "0x58",
          "removed": false
        },
        {
          "address": "0x270e88f8683660553e8ba4eb2ad7c91a1710d769",
          "topics": [
            "0x4afcb4a87cdbd9974efdb92ee48bc8d7cd0ae4bf217004db3d080cbaee652ca7"
          ],
          "data": "0x000000000000000000000000000000000000000000000000000000006786e3ac0000000000000000000000000000000000000000000000000004bdedb80047aa0000000000000000000000000000000000000000000000000de0b6b3a7640000",
          "blockHash": "0xc8b0dc1f69b772a1d2fbf28c8caa091bf3f2d5a29d0cdd74b58c39b57b5dcf98",
          "blockNumber": "0x725423",
          "transactionHash": "0xaf665a5b7e419395d6b6f94a258d6b778c8a8441a4ee8d1915a06fa6b949a22e",
          "transactionIndex": "0x39",
          "logIndex": "0x59",
          "removed": false
        }
      ],
      "logsBloom": "0x00000000000000000000000000000000000000000000000000000000000000000000000000000000000000000000000020000000000000004000000000000000000000000000000000000008000000000000000000000000000000000000000000000000020000000000000000000800020000000000000000000010000000000000000000010000000000000000000000000000000000000000010000000000000000000000000000000000000000004000000000000000000000000000000000000002000000800000000000000000000000000000080000008000000020000000000000000000000000000000000000000000000000000000000000000000",
      "type": "0x2",
      "transactionHash": "0xaf665a5b7e419395d6b6f94a258d6b778c8a8441a4ee8d1915a06fa6b949a22e",
      "transactionIndex": "0x39",
      "blockHash": "0xc8b0dc1f69b772a1d2fbf28c8caa091bf3f2d5a29d0cdd74b58c39b57b5dcf98",
      "blockNumber": "0x725423",
      "gasUsed": "0x13af8",
      "effectiveGasPrice": "0x12da42686",
      "from": "0xc77f7fed3b5cc8249adc428c5f44c9063b9734b4",
      "to": "0x270e88f8683660553e8ba4eb2ad7c91a1710d769",
      "contractAddress": null
    }
  ],
  "libraries": [],
  "pending": [],
  "returns": {},
  "timestamp": 1736893357,
  "chain": 11155111,
  "commit": "51a374b"
}