{
  "transactions": [
    {
      "hash": "0x80b4ba60f07ff9c51c90cb0ba513851c29525ecc44784ca9251db47e1bcfa009",
      "transactionType": "CALL",
      "contractName": null,
      "contractAddress": "0x5eb9cc76c3506942c1c0ead70e877dd5e4f00cb0",
      "function": "buy(address)",
      "arguments": [
        "0xC77f7fed3b5Cc8249aDc428c5F44C9063B9734b4"
      ],
      "transaction": {
        "from": "0xc77f7fed3b5cc8249adc428c5f44c9063b9734b4",
        "to": "0x5eb9cc76c3506942c1c0ead70e877dd5e4f00cb0",
        "gas": "0x1b30c",
        "value": "0xde0b6b3a7640000",
        "input": "0xf088d547000000000000000000000000c77f7fed3b5cc8249adc428c5f44c9063b9734b4",
        "nonce": "0x2c4",
        "chainId": "0xaa36a7"
      },
      "additionalContracts": [],
      "isFixedGasLimit": false
    }
  ],
  "receipts": [
    {
      "status": "0x1",
      "cumulativeGasUsed": "0xe58fb5",
      "logs": [
        {
          "address": "0x5eb9cc76c3506942c1c0ead70e877dd5e4f00cb0",
          "topics": [
            "0xddf252ad1be2c89b69c2b068fc378daa952ba7f163c4a11628f55a4df523b3ef",
            "0x0000000000000000000000000000000000000000000000000000000000000000",
            "0x000000000000000000000000c77f7fed3b5cc8249adc428c5f44c9063b9734b4"
          ],
          "data": "0x00000000000000000000000000000000000000000000003575b496724bb4c971",
          "blockHash": "0xeb8865dd48c87d64b9f573522d503d7fea362098f6f49d7db77648e7d3a3c27f",
          "blockNumber": "0x724e9f",
          "transactionHash": "0x80b4ba60f07ff9c51c90cb0ba513851c29525ecc44784ca9251db47e1bcfa009",
          "transactionIndex": "0x4a",
          "logIndex": "0x8c",
          "removed": false
        },
        {
          "address": "0x5eb9cc76c3506942c1c0ead70e877dd5e4f00cb0",
          "topics": [
            "0xddf252ad1be2c89b69c2b068fc378daa952ba7f163c4a11628f55a4df523b3ef",
            "0x0000000000000000000000000000000000000000000000000000000000000000",
            "0x000000000000000000000000c77f7fed3b5cc8249adc428c5f44c9063b9734b4"
          ],
          "data": "0x00000000000000000000000000000000000000000000000029836ac58a2e513b",
          "blockHash": "0xeb8865dd48c87d64b9f573522d503d7fea362098f6f49d7db77648e7d3a3c27f",
          "blockNumber": "0x724e9f",
          "transactionHash": "0x80b4ba60f07ff9c51c90cb0ba513851c29525ecc44784ca9251db47e1bcfa009",
          "transactionIndex": "0x4a",
          "logIndex": "0x8d",
          "removed": false
        },
        {
          "address": "0x5eb9cc76c3506942c1c0ead70e877dd5e4f00cb0",
          "topics": [
            "0x4afcb4a87cdbd9974efdb92ee48bc8d7cd0ae4bf217004db3d080cbaee652ca7"
          ],
          "data": "0x000000000000000000000000000000000000000000000000000000006786a128000000000000000000000000000000000000000000000000000391098618cf6a0000000000000000000000000000000000000000000000000de0b6b3a7640000",
          "blockHash": "0xeb8865dd48c87d64b9f573522d503d7fea362098f6f49d7db77648e7d3a3c27f",
          "blockNumber": "0x724e9f",
          "transactionHash": "0x80b4ba60f07ff9c51c90cb0ba513851c29525ecc44784ca9251db47e1bcfa009",
          "transactionIndex": "0x4a",
          "logIndex": "0x8e",
          "removed": false
        }
      ],
      "logsBloom": "0x00000000000000000000000000000000000000000000000000000000000000000000000000000000000000000000000000000000000000004000000000000000000000000000000000000008000000000000000000000000000000000000000000000000020000000000000004000800020000000000000000000010000000000000000000000000000000000000000000000000000000000000010000000000000000000000000000000000000000004000000000000000000000000000020000000002000000800000008000000000000000000000080000000000000020000000000000000000000000000000000000000000000000000000000000000000",
      "type": "0x2",
      "transactionHash": "0x80b4ba60f07ff9c51c90cb0ba513851c29525ecc44784ca9251db47e1bcfa009",
      "transactionIndex": "0x4a",
      "blockHash": "0xeb8865dd48c87d64b9f573522d503d7fea362098f6f49d7db77648e7d3a3c27f",
      "blockNumber": "0x724e9f",
      "gasUsed": "0x13af8",
      "effectiveGasPrice": "0x47bdb42ed",
      "from": "0xc77f7fed3b5cc8249adc428c5f44c9063b9734b4",
      "to": "0x5eb9cc76c3506942c1c0ead70e877dd5e4f00cb0",
      "contractAddress": null
    }
  ],
  "libraries": [],
  "pending": [],
  "returns": {},
  "timestamp": 1736876330,
  "chain": 11155111,
  "commit": "51a374b"
}