{
  "transactions": [
    {
      "hash": "0xc3b1a154d5b1a471d18a52c2351ab2d31697537ee29455d72f6b5485195f6a7b",
      "transactionType": "CALL",
      "contractName": null,
      "contractAddress": "0x5eb9cc76c3506942c1c0ead70e877dd5e4f00cb0",
      "function": "buy(address)",
      "arguments": [
        "0xC77f7fed3b5Cc8249aDc428c5F44C9063B9734b4"
      ],
      "transaction": {
        "from": "0xc77f7fed3b5cc8249adc428c5f44c9063b9734b4",
        "to": "0x5eb9cc76c3506942c1c0ead70e877dd5e4f00cb0",
        "gas": "0x156c8",
        "value": "0xde0b6b3a7640000",
        "input": "0xf088d547000000000000000000000000c77f7fed3b5cc8249adc428c5f44c9063b9734b4",
        "nonce": "0x191",
        "chainId": "0xaa36a7"
      },
      "additionalContracts": [],
      "isFixedGasLimit": false
    }
  ],
  "receipts": [
    {
      "status": "0x1",
      "cumulativeGasUsed": "0x10189ab",
      "logs": [
        {
          "address": "0x5eb9cc76c3506942c1c0ead70e877dd5e4f00cb0",
          "topics": [
            "0xddf252ad1be2c89b69c2b068fc378daa952ba7f163c4a11628f55a4df523b3ef",
            "0x0000000000000000000000000000000000000000000000000000000000000000",
            "0x000000000000000000000000c77f7fed3b5cc8249adc428c5f44c9063b9734b4"
          ],
          "data": "0x000000000000000000000000000000000000000000000035a37f499d84891c75",
          "blockHash": "0x11c8bc9df8ab748234cf50b478e9e94d0011ae290e3d110a0e57a7eb62f28517",
          "blockNumber": "0x723c76",
          "transactionHash": "0xc3b1a154d5b1a471d18a52c2351ab2d31697537ee29455d72f6b5485195f6a7b",
          "transactionIndex": "0x67",
          "logIndex": "0x101",
          "removed": false
        },
        {
          "address": "0x5eb9cc76c3506942c1c0ead70e877dd5e4f00cb0",
          "topics": [
            "0xddf252ad1be2c89b69c2b068fc378daa952ba7f163c4a11628f55a4df523b3ef",
            "0x0000000000000000000000000000000000000000000000000000000000000000",
            "0x000000000000000000000000c77f7fed3b5cc8249adc428c5f44c9063b9734b4"
          ],
          "data": "0x00000000000000000000000000000000000000000000000029a6f9d913931c68",
          "blockHash": "0x11c8bc9df8ab748234cf50b478e9e94d0011ae290e3d110a0e57a7eb62f28517",
          "blockNumber": "0x723c76",
          "transactionHash": "0xc3b1a154d5b1a471d18a52c2351ab2d31697537ee29455d72f6b5485195f6a7b",
          "transactionIndex": "0x67",
          "logIndex": "0x102",
          "removed": false
        },
        {
          "address": "0x5eb9cc76c3506942c1c0ead70e877dd5e4f00cb0",
          "topics": [
            "0x4afcb4a87cdbd9974efdb92ee48bc8d7cd0ae4bf217004db3d080cbaee652ca7"
          ],
          "data": "0x000000000000000000000000000000000000000000000000000000006785c6dc00000000000000000000000000000000000000000000000000038dfe0e56fbb40000000000000000000000000000000000000000000000000de0b6b3a7640000",
          "blockHash": "0x11c8bc9df8ab748234cf50b478e9e94d0011ae290e3d110a0e57a7eb62f28517",
          "blockNumber": "0x723c76",
          "transactionHash": "0xc3b1a154d5b1a471d18a52c2351ab2d31697537ee29455d72f6b5485195f6a7b",
          "transactionIndex": "0x67",
          "logIndex": "0x103",
          "removed": false
        }
      ],
      "logsBloom": "0x00000000000000000000000000000000000000000000000000000000000000000000000000000000000000000000000000000000000000004000000000000000000000000000000000000008000000000000000000000000000000000000000000000000020000000000000004000800020000000000000000000010000000000000000000000000000000000000000000000000000000000000010000000000000000000000000000000000000000004000000000000000000000000000020000000002000000800000008000000000000000000000080000000000000020000000000000000000000000000000000000000000000000000000000000000000",
      "type": "0x2",
      "transactionHash": "0xc3b1a154d5b1a471d18a52c2351ab2d31697537ee29455d72f6b5485195f6a7b",
      "transactionIndex": "0x67",
      "blockHash": "0x11c8bc9df8ab748234cf50b478e9e94d0011ae290e3d110a0e57a7eb62f28517",
      "blockNumber": "0x723c76",
      "gasUsed": "0xf82c",
      "effectiveGasPrice": "0x1a4124169",
      "from": "0xc77f7fed3b5cc8249adc428c5f44c9063b9734b4",
      "to": "0x5eb9cc76c3506942c1c0ead70e877dd5e4f00cb0",
      "contractAddress": null
    }
  ],
  "libraries": [],
  "pending": [],
  "returns": {},
  "timestamp": 1736820445,
  "chain": 11155111,
  "commit": "51a374b"
}