{
  "transactions": [
    {
      "hash": "0xb0297900438d6aa7516011e62d1f68fc0202b6b9ad1a6179bb328bf9c2c3000c",
      "transactionType": "CALL",
      "contractName": null,
      "contractAddress": "0x5eb9cc76c3506942c1c0ead70e877dd5e4f00cb0",
      "function": "buy(address)",
      "arguments": [
        "0xC77f7fed3b5Cc8249aDc428c5F44C9063B9734b4"
      ],
      "transaction": {
        "from": "0xc77f7fed3b5cc8249adc428c5f44c9063b9734b4",
        "to": "0x5eb9cc76c3506942c1c0ead70e877dd5e4f00cb0",
        "gas": "0x1b30c",
        "value": "0xde0b6b3a7640000",
        "input": "0xf088d547000000000000000000000000c77f7fed3b5cc8249adc428c5f44c9063b9734b4",
        "nonce": "0x3b4",
        "chainId": "0xaa36a7"
      },
      "additionalContracts": [],
      "isFixedGasLimit": false
    }
  ],
  "receipts": [
    {
      "status": "0x1",
      "cumulativeGasUsed": "0x7c6868",
      "logs": [
        {
          "address": "0x5eb9cc76c3506942c1c0ead70e877dd5e4f00cb0",
          "topics": [
            "0xddf252ad1be2c89b69c2b068fc378daa952ba7f163c4a11628f55a4df523b3ef",
            "0x0000000000000000000000000000000000000000000000000000000000000000",
            "0x000000000000000000000000c77f7fed3b5cc8249adc428c5f44c9063b9734b4"
          ],
          "data": "0x000000000000000000000000000000000000000000000035752d1e00bfd57818",
          "blockHash": "0x921cda3410aec3f8aa07cb8aa8db803baaff143f14632ad5acadce4834736326",
          "blockNumber": "0x724fb3",
          "transactionHash": "0xb0297900438d6aa7516011e62d1f68fc0202b6b9ad1a6179bb328bf9c2c3000c",
          "transactionIndex": "0x47",
          "logIndex": "0x7f",
          "removed": false
        },
        {
          "address": "0x5eb9cc76c3506942c1c0ead70e877dd5e4f00cb0",
          "topics": [
            "0xddf252ad1be2c89b69c2b068fc378daa952ba7f163c4a11628f55a4df523b3ef",
            "0x0000000000000000000000000000000000000000000000000000000000000000",
            "0x000000000000000000000000c77f7fed3b5cc8249adc428c5f44c9063b9734b4"
          ],
          "data": "0x00000000000000000000000000000000000000000000000029830192fe0ee39f",
          "blockHash": "0x921cda3410aec3f8aa07cb8aa8db803baaff143f14632ad5acadce4834736326",
          "blockNumber": "0x724fb3",
          "transactionHash": "0xb0297900438d6aa7516011e62d1f68fc0202b6b9ad1a6179bb328bf9c2c3000c",
          "transactionIndex": "0x47",
          "logIndex": "0x80",
          "removed": false
        },
        {
          "address": "0x5eb9cc76c3506942c1c0ead70e877dd5e4f00cb0",
          "topics": [
            "0x4afcb4a87cdbd9974efdb92ee48bc8d7cd0ae4bf217004db3d080cbaee652ca7"
          ],
          "data": "0x000000000000000000000000000000000000000000000000000000006786ae24000000000000000000000000000000000000000000000000000391128fe152140000000000000000000000000000000000000000000000000de0b6b3a7640000",
          "blockHash": "0x921cda3410aec3f8aa07cb8aa8db803baaff143f14632ad5acadce4834736326",
          "blockNumber": "0x724fb3",
          "transactionHash": "0xb0297900438d6aa7516011e62d1f68fc0202b6b9ad1a6179bb328bf9c2c3000c",
          "transactionIndex": "0x47",
          "logIndex": "0x81",
          "removed": false
        }
      ],
      "logsBloom": "0x00000000000000000000000000000000000000000000000000000000000000000000000000000000000000000000000000000000000000004000000000000000000000000000000000000008000000000000000000000000000000000000000000000000020000000000000004000800020000000000000000000010000000000000000000000000000000000000000000000000000000000000010000000000000000000000000000000000000000004000000000000000000000000000020000000002000000800000008000000000000000000000080000000000000020000000000000000000000000000000000000000000000000000000000000000000",
      "type": "0x2",
      "transactionHash": "0xb0297900438d6aa7516011e62d1f68fc0202b6b9ad1a6179bb328bf9c2c3000c",
      "transactionIndex": "0x47",
      "blockHash": "0x921cda3410aec3f8aa07cb8aa8db803baaff143f14632ad5acadce4834736326",
      "blockNumber": "0x724fb3",
      "gasUsed": "0x13af8",
      "effectiveGasPrice": "0x45d93ba8c",
      "from": "0xc77f7fed3b5cc8249adc428c5f44c9063b9734b4",
      "to": "0x5eb9cc76c3506942c1c0ead70e877dd5e4f00cb0",
      "contractAddress": null
    }
  ],
  "libraries": [],
  "pending": [],
  "returns": {},
  "timestamp": 1736879653,
  "chain": 11155111,
  "commit": "51a374b"
}