{
  "transactions": [
    {
      "hash": "0x0f604728d0567015628dd7fc2e79fe388b1cfd60198b45257d09adf5eea2d39d",
      "transactionType": "CALL",
      "contractName": null,
      "contractAddress": "0x8aafd3ede9adb0ff97c7aebce82a919afb1c8764",
      "function": "sell(uint256)",
      "arguments": [
        "1235143138840684353"
      ],
      "transaction": {
        "from": "0xc77f7fed3b5cc8249adc428c5f44c9063b9734b4",
        "to": "0x8aafd3ede9adb0ff97c7aebce82a919afb1c8764",
        "gas": "0x15dca",
        "value": "0x0",
        "input": "0xe4849b3200000000000000000000000000000000000000000000000011241c24055c2741",
        "nonce": "0x16f8",
        "chainId": "0xaa36a7"
      },
      "additionalContracts": [],
      "isFixedGasLimit": false
    }
  ],
  "receipts": [
    {
      "status": "0x1",
      "cumulativeGasUsed": "0x664f38",
      "logs": [
        {
          "address": "0x8aafd3ede9adb0ff97c7aebce82a919afb1c8764",
          "topics": [
            "0xddf252ad1be2c89b69c2b068fc378daa952ba7f163c4a11628f55a4df523b3ef",
            "0x000000000000000000000000c77f7fed3b5cc8249adc428c5f44c9063b9734b4",
            "0x0000000000000000000000000000000000000000000000000000000000000000"
          ],
          "data": "0x0000000000000000000000000000000000000000000000001101014aa50fa3df",
          "blockHash": "0xf7e23f6247675ff68539036bd9d3bcba22403dc0c48e3bc4ea6c8cb0a5c5e535",
          "blockNumber": "0x731ebb",
          "transactionHash": "0x0f604728d0567015628dd7fc2e79fe388b1cfd60198b45257d09adf5eea2d39d",
          "transactionIndex": "0x4c",
          "logIndex": "0x64",
          "removed": false
        },
        {
          "address": "0x8aafd3ede9adb0ff97c7aebce82a919afb1c8764",
          "topics": [
            "0xddf252ad1be2c89b69c2b068fc378daa952ba7f163c4a11628f55a4df523b3ef",
            "0x000000000000000000000000c77f7fed3b5cc8249adc428c5f44c9063b9734b4",
            "0x000000000000000000000000c77f7fed3b5cc8249adc428c5f44c9063b9734b4"
          ],
          "data": "0x00000000000000000000000000000000000000000000000000231ad9604c8362",
          "blockHash": "0xf7e23f6247675ff68539036bd9d3bcba22403dc0c48e3bc4ea6c8cb0a5c5e535",
          "blockNumber": "0x731ebb",
          "transactionHash": "0x0f604728d0567015628dd7fc2e79fe388b1cfd60198b45257d09adf5eea2d39d",
          "transactionIndex": "0x4c",
          "logIndex": "0x65",
          "removed": false
        },
        {
          "address": "0x8aafd3ede9adb0ff97c7aebce82a919afb1c8764",
          "topics": [
            "0x4afcb4a87cdbd9974efdb92ee48bc8d7cd0ae4bf217004db3d080cbaee652ca7"
          ],
          "data": "0x0000000000000000000000000000000000000000000000000000000067906dac0000000000000000000000000000000000000000000000000016f47c4b2380fa000000000000000000000000000000000000000000000000001c5a1a6efa1efc",
          "blockHash": "0xf7e23f6247675ff68539036bd9d3bcba22403dc0c48e3bc4ea6c8cb0a5c5e535",
          "blockNumber": "0x731ebb",
          "transactionHash": "0x0f604728d0567015628dd7fc2e79fe388b1cfd60198b45257d09adf5eea2d39d",
          "transactionIndex": "0x4c",
          "logIndex": "0x66",
          "removed": false
        }
      ],
      "logsBloom": "0x00000000000000000000000000000000000000000600000000000000000000000000000000000000000000000000000000000000000000004000000000000000000000000000004000000008000000000000000000000000000000000000000000000000020000000000000000000800020000000000000000000010000000000000000000000000000000000000000000000000000000000000010000000000000000000000000000000000000000004000000000000000000000000000000000000002000000800000000000000000000000000000080000000000000020000000000000000000000000000000000000000000000000000000000000000000",
      "type": "0x2",
      "transactionHash": "0x0f604728d0567015628dd7fc2e79fe388b1cfd60198b45257d09adf5eea2d39d",
      "transactionIndex": "0x4c",
      "blockHash": "0xf7e23f6247675ff68539036bd9d3bcba22403dc0c48e3bc4ea6c8cb0a5c5e535",
      "blockNumber": "0x731ebb",
      "gasUsed": "0xfd3f",
      "effectiveGasPrice": "0x50d6e13c",
      "from": "0xc77f7fed3b5cc8249adc428c5f44c9063b9734b4",
      "to": "0x8aafd3ede9adb0ff97c7aebce82a919afb1c8764",
      "contractAddress": null
    }
  ],
  "libraries": [],
  "pending": [],
  "returns": {},
  "timestamp": 1737518510,
  "chain": 11155111,
  "commit": "1d2fb70"
}