{
  "transactions": [
    {
      "hash": "0x7ae80b5e5b0d2770fdad92211eb9c7b55ed59fd36811aab9ac2165bf113fd9d1",
      "transactionType": "CALL",
      "contractName": null,
      "contractAddress": "0xbf4a322f1496e5c3d34a9bcdb4c60567b38c7de2",
      "function": "sell(uint256)",
      "arguments": [
        "984165714126173930771"
      ],
      "transaction": {
        "from": "0xc77f7fed3b5cc8249adc428c5f44c9063b9734b4",
        "to": "0xbf4a322f1496e5c3d34a9bcdb4c60567b38c7de2",
        "gas": "0x16fea",
        "value": "0x0",
        "input": "0xe4849b320000000000000000000000000000000000000000000000355a0afeaa113c8513",
        "nonce": "0xae3",
        "chainId": "0xaa36a7"
      },
      "additionalContracts": [],
      "isFixedGasLimit": false
    }
  ],
  "receipts": [
    {
      "status": "0x1",
      "cumulativeGasUsed": "0xd31dd6",
      "logs": [
        {
          "address": "0xbf4a322f1496e5c3d34a9bcdb4c60567b38c7de2",
          "topics": [
            "0xddf252ad1be2c89b69c2b068fc378daa952ba7f163c4a11628f55a4df523b3ef",
            "0x000000000000000000000000c77f7fed3b5cc8249adc428c5f44c9063b9734b4",
            "0x0000000000000000000000000000000000000000000000000000000000000000"
          ],
          "data": "0x0000000000000000000000000000000000000000000000355a0afeaa113c8513",
          "blockHash": "0xf1ec8d950477e6f457900db13a1b2d6defeb6e23b975274a2085f33df8f6bd2c",
          "blockNumber": "0x725ad6",
          "transactionHash": "0x7ae80b5e5b0d2770fdad92211eb9c7b55ed59fd36811aab9ac2165bf113fd9d1",
          "transactionIndex": "0x99",
          "logIndex": "0xb1",
          "removed": false
        },
        {
          "address": "0xbf4a322f1496e5c3d34a9bcdb4c60567b38c7de2",
          "topics": [
            "0x4afcb4a87cdbd9974efdb92ee48bc8d7cd0ae4bf217004db3d080cbaee652ca7"
          ],
          "data": "0x0000000000000000000000000000000000000000000000000000000067873458000000000000000000000000000000000000000000000000000395afcdf0b3e60000000000000000000000000000000000000000000000000dc7e3ebc06e1962",
          "blockHash": "0xf1ec8d950477e6f457900db13a1b2d6defeb6e23b975274a2085f33df8f6bd2c",
          "blockNumber": "0x725ad6",
          "transactionHash": "0x7ae80b5e5b0d2770fdad92211eb9c7b55ed59fd36811aab9ac2165bf113fd9d1",
          "transactionIndex": "0x99",
          "logIndex": "0xb2",
          "removed": false
        }
      ],
      "logsBloom": "0x00000000000000000000000000000000000000000000000000000000000000000000000000000000000000000000000000000000000000004000000000000000000000000000000000000008000000000000001000000000000000000000000000000000020000000000000000000800020000000000000000000010000000000000000000000000000000000000000000000000000008000000010000000000000000000000000000000000000000004000000000000000000000000000000000000002000000800000000000001000000000000000080000000000000020000000000000000000000000000000000000000000000000000000000000000000",
      "type": "0x2",
      "transactionHash": "0x7ae80b5e5b0d2770fdad92211eb9c7b55ed59fd36811aab9ac2165bf113fd9d1",
      "transactionIndex": "0x99",
      "blockHash": "0xf1ec8d950477e6f457900db13a1b2d6defeb6e23b975274a2085f33df8f6bd2c",
      "blockNumber": "0x725ad6",
      "gasUsed": "0xfb91",
      "effectiveGasPrice": "0xb60890dd",
      "from": "0xc77f7fed3b5cc8249adc428c5f44c9063b9734b4",
      "to": "0xbf4a322f1496e5c3d34a9bcdb4c60567b38c7de2",
      "contractAddress": null
    }
  ],
  "libraries": [],
  "pending": [],
  "returns": {},
  "timestamp": 1736914009,
  "chain": 11155111,
  "commit": "51a374b"
}