{
  "transactions": [
    {
      "hash": "0xa79116ff81e9e6dd8fd5af42a2f4401db7d8ed5c2f0f9d0933524e59b19a4ea4",
      "transactionType": "CALL",
      "contractName": null,
      "contractAddress": "0x8aafd3ede9adb0ff97c7aebce82a919afb1c8764",
      "function": "sell(uint256)",
      "arguments": [
        "623778430259"
      ],
      "transaction": {
        "from": "0xc77f7fed3b5cc8249adc428c5f44c9063b9734b4",
        "to": "0x8aafd3ede9adb0ff97c7aebce82a919afb1c8764",
        "gas": "0x1722a",
        "value": "0x0",
        "input": "0xe4849b32000000000000000000000000000000000000000000000000000000913c177d33",
        "nonce": "0x1716",
        "chainId": "0xaa36a7"
      },
      "additionalContracts": [],
      "isFixedGasLimit": false
    }
  ],
  "receipts": [
    {
      "status": "0x1",
      "cumulativeGasUsed": "0x9eb684",
      "logs": [
        {
          "address": "0x8aafd3ede9adb0ff97c7aebce82a919afb1c8764",
          "topics": [
            "0xddf252ad1be2c89b69c2b068fc378daa952ba7f163c4a11628f55a4df523b3ef",
            "0x000000000000000000000000c77f7fed3b5cc8249adc428c5f44c9063b9734b4",
            "0x0000000000000000000000000000000000000000000000000000000000000000"
          ],
          "data": "0x0000000000000000000000000000000000000000000000000000009012a6a941",
          "blockHash": "0xcc606cdf7a89ae4408d2871012b05612cc298ae48e50697b7cf0545536c0e043",
          "blockNumber": "0x731edc",
          "transactionHash": "0xa79116ff81e9e6dd8fd5af42a2f4401db7d8ed5c2f0f9d0933524e59b19a4ea4",
          "transactionIndex": "0x58",
          "logIndex": "0x71",
          "removed": false
        },
        {
          "address": "0x8aafd3ede9adb0ff97c7aebce82a919afb1c8764",
          "topics": [
            "0xddf252ad1be2c89b69c2b068fc378daa952ba7f163c4a11628f55a4df523b3ef",
            "0x000000000000000000000000c77f7fed3b5cc8249adc428c5f44c9063b9734b4",
            "0x000000000000000000000000c77f7fed3b5cc8249adc428c5f44c9063b9734b4"
          ],
          "data": "0x000000000000000000000000000000000000000000000000000000012970d3f2",
          "blockHash": "0xcc606cdf7a89ae4408d2871012b05612cc298ae48e50697b7cf0545536c0e043",
          "blockNumber": "0x731edc",
          "transactionHash": "0xa79116ff81e9e6dd8fd5af42a2f4401db7d8ed5c2f0f9d0933524e59b19a4ea4",
          "transactionIndex": "0x58",
          "logIndex": "0x72",
          "removed": false
        },
        {
          "address": "0x8aafd3ede9adb0ff97c7aebce82a919afb1c8764",
          "topics": [
            "0x4afcb4a87cdbd9974efdb92ee48bc8d7cd0ae4bf217004db3d080cbaee652ca7"
          ],
          "data": "0x0000000000000000000000000000000000000000000000000000000067906f380000000000000000000000000000000000000000000000000017454a201299b100000000000000000000000000000000000000000000000000000000f3889dd8",
          "blockHash": "0xcc606cdf7a89ae4408d2871012b05612cc298ae48e50697b7cf0545536c0e043",
          "blockNumber": "0x731edc",
          "transactionHash": "0xa79116ff81e9e6dd8fd5af42a2f4401db7d8ed5c2f0f9d0933524e59b19a4ea4",
          "transactionIndex": "0x58",
          "logIndex": "0x73",
          "removed": false
        }
      ],
      "logsBloom": "0x00000000000000000000000000000000000000000600000000000000000000000000000000000000000000000000000000000000000000004000000000000000000000000000004000000008000000000000000000000000000000000000000000000000020000000000000000000800020000000000000000000010000000000000000000000000000000000000000000000000000000000000010000000000000000000000000000000000000000004000000000000000000000000000000000000002000000800000000000000000000000000000080000000000000020000000000000000000000000000000000000000000000000000000000000000000",
      "type": "0x2",
      "transactionHash": "0xa79116ff81e9e6dd8fd5af42a2f4401db7d8ed5c2f0f9d0933524e59b19a4ea4",
      "transactionIndex": "0x58",
      "blockHash": "0xcc606cdf7a89ae4408d2871012b05612cc298ae48e50697b7cf0545536c0e043",
      "blockNumber": "0x731edc",
      "gasUsed": "0xfd1b",
      "effectiveGasPrice": "0x414be1f9",
      "from": "0xc77f7fed3b5cc8249adc428c5f44c9063b9734b4",
      "to": "0x8aafd3ede9adb0ff97c7aebce82a919afb1c8764",
      "contractAddress": null
    }
  ],
  "libraries": [],
  "pending": [],
  "returns": {},
  "timestamp": 1737518905,
  "chain": 11155111,
  "commit": "1d2fb70"
}