{
  "transactions": [
    {
      "hash": "0x65996dd11f942fd1fb14837f191b860a1a53f3ae76fb651cf4d4cc1a1fc94280",
      "transactionType": "CALL",
      "contractName": null,
      "contractAddress": "0x700ae380575f0913ce503fd1285147b075f8c2cc",
      "function": "leverage(uint256,uint256)",
      "arguments": [
        "10000000000000000000",
        "0"
      ],
      "transaction": {
        "from": "0xc77f7fed3b5cc8249adc428c5f44c9063b9734b4",
        "to": "0x700ae380575f0913ce503fd1285147b075f8c2cc",
        "gas": "0x55ea0",
        "value": "0x186cc6acd4b0000",
        "input": "0x5e96263c0000000000000000000000000000000000000000000000008ac7230489e800000000000000000000000000000000000000000000000000000000000000000000",
        "nonce": "0x1805",
        "chainId": "0xaa36a7"
      },
      "additionalContracts": [],
      "isFixedGasLimit": false
    }
  ],
  "receipts": [
    {
      "status": "0x1",
      "cumulativeGasUsed": "0xabde7b",
      "logs": [
        {
          "address": "0x700ae380575f0913ce503fd1285147b075f8c2cc",
          "topics": [
            "0xddf252ad1be2c89b69c2b068fc378daa952ba7f163c4a11628f55a4df523b3ef",
            "0x0000000000000000000000000000000000000000000000000000000000000000",
            "0x000000000000000000000000700ae380575f0913ce503fd1285147b075f8c2cc"
          ],
          "data": "0x00000000000000000000000000000000000000000000003e3dc62b2479d71524",
          "blockHash": "0x63171e0b5c33fc962cb5bac0e9c523ad136455e5180c7de49e0b220c3a89b1f2",
          "blockNumber": "0x734c34",
          "transactionHash": "0x65996dd11f942fd1fb14837f191b860a1a53f3ae76fb651cf4d4cc1a1fc94280",
          "transactionIndex": "0x76",
          "logIndex": "0xa3",
          "removed": false
        },
        {
          "address": "0x700ae380575f0913ce503fd1285147b075f8c2cc",
          "topics": [
            "0xddf252ad1be2c89b69c2b068fc378daa952ba7f163c4a11628f55a4df523b3ef",
            "0x0000000000000000000000000000000000000000000000000000000000000000",
            "0x000000000000000000000000c77f7fed3b5cc8249adc428c5f44c9063b9734b4"
          ],
          "data": "0x00000000000000000000000000000000000000000000000034a3cf7d4ecad105",
          "blockHash": "0x63171e0b5c33fc962cb5bac0e9c523ad136455e5180c7de49e0b220c3a89b1f2",
          "blockNumber": "0x734c34",
          "transactionHash": "0x65996dd11f942fd1fb14837f191b860a1a53f3ae76fb651cf4d4cc1a1fc94280",
          "transactionIndex": "0x76",
          "logIndex": "0xa4",
          "removed": false
        },
        {
          "address": "0x700ae380575f0913ce503fd1285147b075f8c2cc",
          "topics": [
            "0xaec00f5213a37254bc68a26b0685d1a5b2bf513e1e587c94c7df7f4a62b56c9c"
          ],
          "data": "0x00000000000000000000000000000000000000000000003e3dc62b2479d7152400000000000000000000000000000000000000000000000089405699bc9d000000000000000000000000000000000000000000000000000089405699bc9d000000000000000000000000000000000000000000000000003e3dc62b2479d71524",
          "blockHash": "0x63171e0b5c33fc962cb5bac0e9c523ad136455e5180c7de49e0b220c3a89b1f2",
          "blockNumber": "0x734c34",
          "transactionHash": "0x65996dd11f942fd1fb14837f191b860a1a53f3ae76fb651cf4d4cc1a1fc94280",
          "transactionIndex": "0x76",
          "logIndex": "0xa5",
          "removed": false
        },
        {
          "address": "0x700ae380575f0913ce503fd1285147b075f8c2cc",
          "topics": [
            "0x4afcb4a87cdbd9974efdb92ee48bc8d7cd0ae4bf217004db3d080cbaee652ca7"
          ],
          "data": "0x0000000000000000000000000000000000000000000000000000000067929f48000000000000000000000000000000000000000000000000001e9b30f77c50a50000000000000000000000000000000000000000000000008ac7230489e80000",
          "blockHash": "0x63171e0b5c33fc962cb5bac0e9c523ad136455e5180c7de49e0b220c3a89b1f2",
          "blockNumber": "0x734c34",
          "transactionHash": "0x65996dd11f942fd1fb14837f191b860a1a53f3ae76fb651cf4d4cc1a1fc94280",
          "transactionIndex": "0x76",
          "logIndex": "0xa6",
          "removed": false
        }
      ],
      "logsBloom": "0x00000000000020000000000000000000400000000000000000000000000000000000000000200000000000000000000000000000000000004000000000000000000000000000000000000008001000000000000000000000000000000000000020000000020000000000000000000800020000000000000100000010000000000000000000000000000000000000000000000000000000000000010000000000080000000000000000000400000000004000000000000000000000001000000000000002000000800000000000000000000000000000080000000000000020000000000000000000000000000000000000000000000000000000000000000000",
      "type": "0x2",
      "transactionHash": "0x65996dd11f942fd1fb14837f191b860a1a53f3ae76fb651cf4d4cc1a1fc94280",
      "transactionIndex": "0x76",
      "blockHash": "0x63171e0b5c33fc962cb5bac0e9c523ad136455e5180c7de49e0b220c3a89b1f2",
      "blockNumber": "0x734c34",
      "gasUsed": "0x3e335",
      "effectiveGasPrice": "0x13d823275",
      "from": "0xc77f7fed3b5cc8249adc428c5f44c9063b9734b4",
      "to": "0x700ae380575f0913ce503fd1285147b075f8c2cc",
      "contractAddress": null
    }
  ],
  "libraries": [],
  "pending": [],
  "returns": {},
  "timestamp": 1737662281,
  "chain": 11155111,
  "commit": "f5162e9"
}