{
  "transactions": [
    {
      "hash": "0x0dbdbf916f97f1a432c0d4a878367430d0767318a82c392f998874ba8b4c89be",
      "transactionType": "CALL",
      "contractName": null,
      "contractAddress": "0x8aafd3ede9adb0ff97c7aebce82a919afb1c8764",
      "function": "sell(uint256)",
      "arguments": [
        "42898664932977860"
      ],
      "transaction": {
        "from": "0xc77f7fed3b5cc8249adc428c5f44c9063b9734b4",
        "to": "0x8aafd3ede9adb0ff97c7aebce82a919afb1c8764",
        "gas": "0x1724d",
        "value": "0x0",
        "input": "0xe4849b320000000000000000000000000000000000000000000000000098681bc4ab2cc4",
        "nonce": "0x1287",
        "chainId": "0xaa36a7"
      },
      "additionalContracts": [],
      "isFixedGasLimit": false
    }
  ],
  "receipts": [
    {
      "status": "0x1",
      "cumulativeGasUsed": "0x9c4c06",
      "logs": [
        {
          "address": "0x8aafd3ede9adb0ff97c7aebce82a919afb1c8764",
          "topics": [
            "0xddf252ad1be2c89b69c2b068fc378daa952ba7f163c4a11628f55a4df523b3ef",
            "0x000000000000000000000000c77f7fed3b5cc8249adc428c5f44c9063b9734b4",
            "0x0000000000000000000000000000000000000000000000000000000000000000"
          ],
          "data": "0x00000000000000000000000000000000000000000000000000972ffac730f936",
          "blockHash": "0x512a5377c87a7ffe6c5774228591649fae5e5d6d3d8983ad9e7949fb5e50608f",
          "blockNumber": "0x731974",
          "transactionHash": "0x0dbdbf916f97f1a432c0d4a878367430d0767318a82c392f998874ba8b4c89be",
          "transactionIndex": "0x83",
          "logIndex": "0x7f",
          "removed": false
        },
        {
          "address": "0x8aafd3ede9adb0ff97c7aebce82a919afb1c8764",
          "topics": [
            "0xddf252ad1be2c89b69c2b068fc378daa952ba7f163c4a11628f55a4df523b3ef",
            "0x000000000000000000000000c77f7fed3b5cc8249adc428c5f44c9063b9734b4",
            "0x000000000000000000000000c77f7fed3b5cc8249adc428c5f44c9063b9734b4"
          ],
          "data": "0x00000000000000000000000000000000000000000000000000013820fd7a338e",
          "blockHash": "0x512a5377c87a7ffe6c5774228591649fae5e5d6d3d8983ad9e7949fb5e50608f",
          "blockNumber": "0x731974",
          "transactionHash": "0x0dbdbf916f97f1a432c0d4a878367430d0767318a82c392f998874ba8b4c89be",
          "transactionIndex": "0x83",
          "logIndex": "0x80",
          "removed": false
        },
        {
          "address": "0x8aafd3ede9adb0ff97c7aebce82a919afb1c8764",
          "topics": [
            "0x4afcb4a87cdbd9974efdb92ee48bc8d7cd0ae4bf217004db3d080cbaee652ca7"
          ],
          "data": "0x0000000000000000000000000000000000000000000000000000000067902e40000000000000000000000000000000000000000000000000000544d2d07a9bcd000000000000000000000000000000000000000000000000000039dcdb7f50d8",
          "blockHash": "0x512a5377c87a7ffe6c5774228591649fae5e5d6d3d8983ad9e7949fb5e50608f",
          "blockNumber": "0x731974",
          "transactionHash": "0x0dbdbf916f97f1a432c0d4a878367430d0767318a82c392f998874ba8b4c89be",
          "transactionIndex": "0x83",
          "logIndex": "0x81",
          "removed": false
        }
      ],
      "logsBloom": "0x00000000000000000000000000000000000000000600000000000000000000000000000000000000000000000000000000000000000000004000000000000000000000000000004000000008000000000000000000000000000000000000000000000000020000000000000000000800020000000000000000000010000000000000000000000000000000000000000000000000000000000000010000000000000000000000000000000000000000004000000000000000000000000000000000000002000000800000000000000000000000000000080000000000000020000000000000000000000000000000000000000000000000000000000000000000",
      "type": "0x2",
      "transactionHash": "0x0dbdbf916f97f1a432c0d4a878367430d0767318a82c392f998874ba8b4c89be",
      "transactionIndex": "0x83",
      "blockHash": "0x512a5377c87a7ffe6c5774228591649fae5e5d6d3d8983ad9e7949fb5e50608f",
      "blockNumber": "0x731974",
      "gasUsed": "0xfd33",
      "effectiveGasPrice": "0x448296bf",
      "from": "0xc77f7fed3b5cc8249adc428c5f44c9063b9734b4",
      "to": "0x8aafd3ede9adb0ff97c7aebce82a919afb1c8764",
      "contractAddress": null
    }
  ],
  "libraries": [],
  "pending": [],
  "returns": {},
  "timestamp": 1737502273,
  "chain": 11155111,
  "commit": "1d2fb70"
}