{
  "transactions": [
    {
      "hash": "0x6861f4c2f1fe8ea5b5bae2474da1ea00c9656446fc22c514a1799fb4ee909b50",
      "transactionType": "CALL",
      "contractName": null,
      "contractAddress": "0x8aafd3ede9adb0ff97c7aebce82a919afb1c8764",
      "function": "sell(uint256)",
      "arguments": [
        "10560596135413364"
      ],
      "transaction": {
        "from": "0xc77f7fed3b5cc8249adc428c5f44c9063b9734b4",
        "to": "0x8aafd3ede9adb0ff97c7aebce82a919afb1c8764",
        "gas": "0x1724d",
        "value": "0x0",
        "input": "0xe4849b32000000000000000000000000000000000000000000000000002584ce65448674",
        "nonce": "0x167b",
        "chainId": "0xaa36a7"
      },
      "additionalContracts": [],
      "isFixedGasLimit": false
    }
  ],
  "receipts": [
    {
      "status": "0x1",
      "cumulativeGasUsed": "0x660c30",
      "logs": [
        {
          "address": "0x8aafd3ede9adb0ff97c7aebce82a919afb1c8764",
          "topics": [
            "0xddf252ad1be2c89b69c2b068fc378daa952ba7f163c4a11628f55a4df523b3ef",
            "0x000000000000000000000000c77f7fed3b5cc8249adc428c5f44c9063b9734b4",
            "0x0000000000000000000000000000000000000000000000000000000000000000"
          ],
          "data": "0x000000000000000000000000000000000000000000000000002537f7c09e16ca",
          "blockHash": "0xc90f00f264618f5f92e398d22972326bca739cb15c87bb6c6d9972e3528b56a4",
          "blockNumber": "0x731e2c",
          "transactionHash": "0x6861f4c2f1fe8ea5b5bae2474da1ea00c9656446fc22c514a1799fb4ee909b50",
          "transactionIndex": "0x5d",
          "logIndex": "0x5c",
          "removed": false
        },
        {
          "address": "0x8aafd3ede9adb0ff97c7aebce82a919afb1c8764",
          "topics": [
            "0xddf252ad1be2c89b69c2b068fc378daa952ba7f163c4a11628f55a4df523b3ef",
            "0x000000000000000000000000c77f7fed3b5cc8249adc428c5f44c9063b9734b4",
            "0x000000000000000000000000c77f7fed3b5cc8249adc428c5f44c9063b9734b4"
          ],
          "data": "0x00000000000000000000000000000000000000000000000000004cd6a4a66faa",
          "blockHash": "0xc90f00f264618f5f92e398d22972326bca739cb15c87bb6c6d9972e3528b56a4",
          "blockNumber": "0x731e2c",
          "transactionHash": "0x6861f4c2f1fe8ea5b5bae2474da1ea00c9656446fc22c514a1799fb4ee909b50",
          "transactionIndex": "0x5d",
          "logIndex": "0x5d",
          "removed": false
        },
        {
          "address": "0x8aafd3ede9adb0ff97c7aebce82a919afb1c8764",
          "topics": [
            "0x4afcb4a87cdbd9974efdb92ee48bc8d7cd0ae4bf217004db3d080cbaee652ca7"
          ],
          "data": "0x00000000000000000000000000000000000000000000000000000000679066f800000000000000000000000000000000000000000000000000157c0e9874824f00000000000000000000000000000000000000000000000000003a1578544cf2",
          "blockHash": "0xc90f00f264618f5f92e398d22972326bca739cb15c87bb6c6d9972e3528b56a4",
          "blockNumber": "0x731e2c",
          "transactionHash": "0x6861f4c2f1fe8ea5b5bae2474da1ea00c9656446fc22c514a1799fb4ee909b50",
          "transactionIndex": "0x5d",
          "logIndex": "0x5e",
          "removed": false
        }
      ],
      "logsBloom": "0x00000000000000000000000000000000000000000600000000000000000000000000000000000000000000000000000000000000000000004000000000000000000000000000004000000008000000000000000000000000000000000000000000000000020000000000000000000800020000000000000000000010000000000000000000000000000000000000000000000000000000000000010000000000000000000000000000000000000000004000000000000000000000000000000000000002000000800000000000000000000000000000080000000000000020000000000000000000000000000000000000000000000000000000000000000000",
      "type": "0x2",
      "transactionHash": "0x6861f4c2f1fe8ea5b5bae2474da1ea00c9656446fc22c514a1799fb4ee909b50",
      "transactionIndex": "0x5d",
      "blockHash": "0xc90f00f264618f5f92e398d22972326bca739cb15c87bb6c6d9972e3528b56a4",
      "blockNumber": "0x731e2c",
      "gasUsed": "0xfd33",
      "effectiveGasPrice": "0x58a5926a",
      "from": "0xc77f7fed3b5cc8249adc428c5f44c9063b9734b4",
      "to": "0x8aafd3ede9adb0ff97c7aebce82a919afb1c8764",
      "contractAddress": null
    }
  ],
  "libraries": [],
  "pending": [],
  "returns": {},
  "timestamp": 1737516793,
  "chain": 11155111,
  "commit": "1d2fb70"
}