{
  "transactions": [
    {
      "hash": "0x765f62c97fb5e06bbb768839c4a3e31633df2c63bf738ee0efdf11d293764b34",
      "transactionType": "CALL",
      "contractName": null,
      "contractAddress": "0xbf4a322f1496e5c3d34a9bcdb4c60567b38c7de2",
      "function": "buy(address)",
      "arguments": [
        "0xC77f7fed3b5Cc8249aDc428c5F44C9063B9734b4"
      ],
      "transaction": {
        "from": "0xc77f7fed3b5cc8249adc428c5f44c9063b9734b4",
        "to": "0xbf4a322f1496e5c3d34a9bcdb4c60567b38c7de2",
        "gas": "0x1b309",
        "value": "0xde0b6b3a7640000",
        "input": "0xf088d547000000000000000000000000c77f7fed3b5cc8249adc428c5f44c9063b9734b4",
        "nonce": "0x92c",
        "chainId": "0xaa36a7"
      },
      "additionalContracts": [],
      "isFixedGasLimit": false
    }
  ],
  "receipts": [
    {
      "status": "0x1",
      "cumulativeGasUsed": "0xec0016",
      "logs": [
        {
          "address": "0xbf4a322f1496e5c3d34a9bcdb4c60567b38c7de2",
          "topics": [
            "0xddf252ad1be2c89b69c2b068fc378daa952ba7f163c4a11628f55a4df523b3ef",
            "0x0000000000000000000000000000000000000000000000000000000000000000",
            "0x000000000000000000000000c77f7fed3b5cc8249adc428c5f44c9063b9734b4"
          ],
          "data": "0x000000000000000000000000000000000000000000000035834b9a95cdb5aea9",
          "blockHash": "0xf867533783908388be550aaa6f84b45391ff878dafe1ce445f6f28757fae7d09",
          "blockNumber": "0x7258b4",
          "transactionHash": "0x765f62c97fb5e06bbb768839c4a3e31633df2c63bf738ee0efdf11d293764b34",
          "transactionIndex": "0x7c",
          "logIndex": "0xaf",
          "removed": false
        },
        {
          "address": "0xbf4a322f1496e5c3d34a9bcdb4c60567b38c7de2",
          "topics": [
            "0xddf252ad1be2c89b69c2b068fc378daa952ba7f163c4a11628f55a4df523b3ef",
            "0x0000000000000000000000000000000000000000000000000000000000000000",
            "0x000000000000000000000000c77f7fed3b5cc8249adc428c5f44c9063b9734b4"
          ],
          "data": "0x000000000000000000000000000000000000000000000000298df858ab2e9387",
          "blockHash": "0xf867533783908388be550aaa6f84b45391ff878dafe1ce445f6f28757fae7d09",
          "blockNumber": "0x7258b4",
          "transactionHash": "0x765f62c97fb5e06bbb768839c4a3e31633df2c63bf738ee0efdf11d293764b34",
          "transactionIndex": "0x7c",
          "logIndex": "0xb0",
          "removed": false
        },
        {
          "address": "0xbf4a322f1496e5c3d34a9bcdb4c60567b38c7de2",
          "topics": [
            "0x4afcb4a87cdbd9974efdb92ee48bc8d7cd0ae4bf217004db3d080cbaee652ca7"
          ],
          "data": "0x0000000000000000000000000000000000000000000000000000000067871a9c00000000000000000000000000000000000000000000000000039023f42d1b130000000000000000000000000000000000000000000000000de0b6b3a7640000",
          "blockHash": "0xf867533783908388be550aaa6f84b45391ff878dafe1ce445f6f28757fae7d09",
          "blockNumber": "0x7258b4",
          "transactionHash": "0x765f62c97fb5e06bbb768839c4a3e31633df2c63bf738ee0efdf11d293764b34",
          "transactionIndex": "0x7c",
          "logIndex": "0xb1",
          "removed": false
        }
      ],
      "logsBloom": "0x00000000000000000000000000000000000000000000000000000000000000000000000000000000000000000000000000000000000000004000000000000000000000000000000000000008000000000000001000000000000000000000000000000000020000000000000000000800020000000000000000000010000000000000000000000000000000000000000000000000000008000000010000000000000000000000000000000000000000004000000000000000000000000000000000000002000000800000000000001000000000000000080000000000000020000000000000000000000000000000000000000000000000000000000000000000",
      "type": "0x2",
      "transactionHash": "0x765f62c97fb5e06bbb768839c4a3e31633df2c63bf738ee0efdf11d293764b34",
      "transactionIndex": "0x7c",
      "blockHash": "0xf867533783908388be550aaa6f84b45391ff878dafe1ce445f6f28757fae7d09",
      "blockNumber": "0x7258b4",
      "gasUsed": "0x13af6",
      "effectiveGasPrice": "0x56a7bcf5",
      "from": "0xc77f7fed3b5cc8249adc428c5f44c9063b9734b4",
      "to": "0xbf4a322f1496e5c3d34a9bcdb4c60567b38c7de2",
      "contractAddress": null
    }
  ],
  "libraries": [],
  "pending": [],
  "returns": {},
  "timestamp": 1736907421,
  "chain": 11155111,
  "commit": "51a374b"
}