{
  "transactions": [
    {
      "hash": "0xaad037a86351ce82dcdb855aabe64683583e4edc2fdae7af7a6e638b6464668a",
      "transactionType": "CALL",
      "contractName": null,
      "contractAddress": "0x8aafd3ede9adb0ff97c7aebce82a919afb1c8764",
      "function": "sell(uint256)",
      "arguments": [
        "717478865850995510110"
      ],
      "transaction": {
        "from": "0xc77f7fed3b5cc8249adc428c5f44c9063b9734b4",
        "to": "0x8aafd3ede9adb0ff97c7aebce82a919afb1c8764",
        "gas": "0x17270",
        "value": "0x0",
        "input": "0xe4849b32000000000000000000000000000000000000000000000026e504fb2022bb0b5e",
        "nonce": "0x1023",
        "chainId": "0xaa36a7"
      },
      "additionalContracts": [],
      "isFixedGasLimit": false
    }
  ],
  "receipts": [
    {
      "status": "0x1",
      "cumulativeGasUsed": "0xe724c7",
      "logs": [
        {
          "address": "0x8aafd3ede9adb0ff97c7aebce82a919afb1c8764",
          "topics": [
            "0xddf252ad1be2c89b69c2b068fc378daa952ba7f163c4a11628f55a4df523b3ef",
            "0x000000000000000000000000c77f7fed3b5cc8249adc428c5f44c9063b9734b4",
            "0x0000000000000000000000000000000000000000000000000000000000000000"
          ],
          "data": "0x000000000000000000000000000000000000000000000026955d014efb8a71ae",
          "blockHash": "0x5f8fbeee55e5dabeac56a97d0578ae5810f40d1f7fcd35eb9d62cb0a03e8a573",
          "blockNumber": "0x73169b",
          "transactionHash": "0xaad037a86351ce82dcdb855aabe64683583e4edc2fdae7af7a6e638b6464668a",
          "transactionIndex": "0x8a",
          "logIndex": "0xda",
          "removed": false
        },
        {
          "address": "0x8aafd3ede9adb0ff97c7aebce82a919afb1c8764",
          "topics": [
            "0xddf252ad1be2c89b69c2b068fc378daa952ba7f163c4a11628f55a4df523b3ef",
            "0x000000000000000000000000c77f7fed3b5cc8249adc428c5f44c9063b9734b4",
            "0x000000000000000000000000c77f7fed3b5cc8249adc428c5f44c9063b9734b4"
          ],
          "data": "0x0000000000000000000000000000000000000000000000004fa7f9d1273099b0",
          "blockHash": "0x5f8fbeee55e5dabeac56a97d0578ae5810f40d1f7fcd35eb9d62cb0a03e8a573",
          "blockNumber": "0x73169b",
          "transactionHash": "0xaad037a86351ce82dcdb855aabe64683583e4edc2fdae7af7a6e638b6464668a",
          "transactionIndex": "0x8a",
          "logIndex": "0xdb",
          "removed": false
        },
        {
          "address": "0x8aafd3ede9adb0ff97c7aebce82a919afb1c8764",
          "topics": [
            "0x4afcb4a87cdbd9974efdb92ee48bc8d7cd0ae4bf217004db3d080cbaee652ca7"
          ],
          "data": "0x0000000000000000000000000000000000000000000000000000000067900bf00000000000000000000000000000000000000000000000000004ec332d05902c0000000000000000000000000000000000000000000000000dc9007ad4c4d3ec",
          "blockHash": "0x5f8fbeee55e5dabeac56a97d0578ae5810f40d1f7fcd35eb9d62cb0a03e8a573",
          "blockNumber": "0x73169b",
          "transactionHash": "0xaad037a86351ce82dcdb855aabe64683583e4edc2fdae7af7a6e638b6464668a",
          "transactionIndex": "0x8a",
          "logIndex": "0xdc",
          "removed": false
        }
      ],
      "logsBloom": "0x00000000000000000000000000000000000000000600000000000000000000000000000000000000000000000000000000000000000000004000000000000000000000000000004000000008000000000000000000000000000000000000000000000000020000000000000000000800020000000000000000000010000000000000000000000000000000000000000000000000000000000000010000000000000000000000000000000000000000004000000000000000000000000000000000000002000000800000000000000000000000000000080000000000000020000000000000000000000000000000000000000000000000000000000000000000",
      "type": "0x2",
      "transactionHash": "0xaad037a86351ce82dcdb855aabe64683583e4edc2fdae7af7a6e638b6464668a",
      "transactionIndex": "0x8a",
      "blockHash": "0x5f8fbeee55e5dabeac56a97d0578ae5810f40d1f7fcd35eb9d62cb0a03e8a573",
      "blockNumber": "0x73169b",
      "gasUsed": "0xfd4b",
      "effectiveGasPrice": "0x40928b1a",
      "from": "0xc77f7fed3b5cc8249adc428c5f44c9063b9734b4",
      "to": "0x8aafd3ede9adb0ff97c7aebce82a919afb1c8764",
      "contractAddress": null
    }
  ],
  "libraries": [],
  "pending": [],
  "returns": {},
  "timestamp": 1737493489,
  "chain": 11155111,
  "commit": "1d2fb70"
}