{
  "transactions": [
    {
      "hash": "0x2ae5086213f4fb937ca1bc85e6b53f8d90588651e5692e1be7104008cb3846d2",
      "transactionType": "CALL",
      "contractName": null,
      "contractAddress": "0x8aafd3ede9adb0ff97c7aebce82a919afb1c8764",
      "function": "sell(uint256)",
      "arguments": [
        "715004410760181186732"
      ],
      "transaction": {
        "from": "0xc77f7fed3b5cc8249adc428c5f44c9063b9734b4",
        "to": "0x8aafd3ede9adb0ff97c7aebce82a919afb1c8764",
        "gas": "0x15dca",
        "value": "0x0",
        "input": "0xe4849b32000000000000000000000000000000000000000000000026c2adf354a61600ac",
        "nonce": "0x1041",
        "chainId": "0xaa36a7"
      },
      "additionalContracts": [],
      "isFixedGasLimit": false
    }
  ],
  "receipts": [
    {
      "status": "0x1",
      "cumulativeGasUsed": "0xb4588f",
      "logs": [
        {
          "address": "0x8aafd3ede9adb0ff97c7aebce82a919afb1c8764",
          "topics": [
            "0xddf252ad1be2c89b69c2b068fc378daa952ba7f163c4a11628f55a4df523b3ef",
            "0x000000000000000000000000c77f7fed3b5cc8249adc428c5f44c9063b9734b4",
            "0x0000000000000000000000000000000000000000000000000000000000000000"
          ],
          "data": "0x000000000000000000000000000000000000000000000026734c4d8b44805297",
          "blockHash": "0x6994dec63b9dce236a96c093b7c7c443298fb7fdfa411515de943d459f8345da",
          "blockNumber": "0x7316c1",
          "transactionHash": "0x2ae5086213f4fb937ca1bc85e6b53f8d90588651e5692e1be7104008cb3846d2",
          "transactionIndex": "0x9c",
          "logIndex": "0x97",
          "removed": false
        },
        {
          "address": "0x8aafd3ede9adb0ff97c7aebce82a919afb1c8764",
          "topics": [
            "0xddf252ad1be2c89b69c2b068fc378daa952ba7f163c4a11628f55a4df523b3ef",
            "0x000000000000000000000000c77f7fed3b5cc8249adc428c5f44c9063b9734b4",
            "0x000000000000000000000000c77f7fed3b5cc8249adc428c5f44c9063b9734b4"
          ],
          "data": "0x0000000000000000000000000000000000000000000000004f61a5c96195ae15",
          "blockHash": "0x6994dec63b9dce236a96c093b7c7c443298fb7fdfa411515de943d459f8345da",
          "blockNumber": "0x7316c1",
          "transactionHash": "0x2ae5086213f4fb937ca1bc85e6b53f8d90588651e5692e1be7104008cb3846d2",
          "transactionIndex": "0x9c",
          "logIndex": "0x98",
          "removed": false
        },
        {
          "address": "0x8aafd3ede9adb0ff97c7aebce82a919afb1c8764",
          "topics": [
            "0x4afcb4a87cdbd9974efdb92ee48bc8d7cd0ae4bf217004db3d080cbaee652ca7"
          ],
          "data": "0x0000000000000000000000000000000000000000000000000000000067900dc40000000000000000000000000000000000000000000000000004f08e644bc4e60000000000000000000000000000000000000000000000000dc8ff839ad39757",
          "blockHash": "0x6994dec63b9dce236a96c093b7c7c443298fb7fdfa411515de943d459f8345da",
          "blockNumber": "0x7316c1",
          "transactionHash": "0x2ae5086213f4fb937ca1bc85e6b53f8d90588651e5692e1be7104008cb3846d2",
          "transactionIndex": "0x9c",
          "logIndex": "0x99",
          "removed": false
        }
      ],
      "logsBloom": "0x00000000000000000000000000000000000000000600000000000000000000000000000000000000000000000000000000000000000000004000000000000000000000000000004000000008000000000000000000000000000000000000000000000000020000000000000000000800020000000000000000000010000000000000000000000000000000000000000000000000000000000000010000000000000000000000000000000000000000004000000000000000000000000000000000000002000000800000000000000000000000000000080000000000000020000000000000000000000000000000000000000000000000000000000000000000",
      "type": "0x2",
      "transactionHash": "0x2ae5086213f4fb937ca1bc85e6b53f8d90588651e5692e1be7104008cb3846d2",
      "transactionIndex": "0x9c",
      "blockHash": "0x6994dec63b9dce236a96c093b7c7c443298fb7fdfa411515de943d459f8345da",
      "blockNumber": "0x7316c1",
      "gasUsed": "0xfd3f",
      "effectiveGasPrice": "0x4659e6ad",
      "from": "0xc77f7fed3b5cc8249adc428c5f44c9063b9734b4",
      "to": "0x8aafd3ede9adb0ff97c7aebce82a919afb1c8764",
      "contractAddress": null
    }
  ],
  "libraries": [],
  "pending": [],
  "returns": {},
  "timestamp": 1737493957,
  "chain": 11155111,
  "commit": "1d2fb70"
}