{
  "transactions": [
    {
      "hash": "0xa4beca36b30f1a8b80863f9fd12d32fae5d83837f4cd5dd2c7365e49c160521c",
      "transactionType": "CALL",
      "contractName": null,
      "contractAddress": "0x8aafd3ede9adb0ff97c7aebce82a919afb1c8764",
      "function": "sell(uint256)",
      "arguments": [
        "7904875524"
      ],
      "transaction": {
        "from": "0xc77f7fed3b5cc8249adc428c5f44c9063b9734b4",
        "to": "0x8aafd3ede9adb0ff97c7aebce82a919afb1c8764",
        "gas": "0x1722a",
        "value": "0x0",
        "input": "0xe4849b3200000000000000000000000000000000000000000000000000000001d72ad404",
        "nonce": "0x1435",
        "chainId": "0xaa36a7"
      },
      "additionalContracts": [],
      "isFixedGasLimit": false
    }
  ],
  "receipts": [
    {
      "status": "0x1",
      "cumulativeGasUsed": "0xb6c899",
      "logs": [
        {
          "address": "0x8aafd3ede9adb0ff97c7aebce82a919afb1c8764",
          "topics": [
            "0xddf252ad1be2c89b69c2b068fc378daa952ba7f163c4a11628f55a4df523b3ef",
            "0x000000000000000000000000c77f7fed3b5cc8249adc428c5f44c9063b9734b4",
            "0x0000000000000000000000000000000000000000000000000000000000000000"
          ],
          "data": "0x00000000000000000000000000000000000000000000000000000001d365e0a8",
          "blockHash": "0x7cf90563a4304097f6673458fabdeb31f4a283dabf774dcc437d00ae1afd318c",
          "blockNumber": "0x731b74",
          "transactionHash": "0xa4beca36b30f1a8b80863f9fd12d32fae5d83837f4cd5dd2c7365e49c160521c",
          "transactionIndex": "0x83",
          "logIndex": "0x61",
          "removed": false
        },
        {
          "address": "0x8aafd3ede9adb0ff97c7aebce82a919afb1c8764",
          "topics": [
            "0xddf252ad1be2c89b69c2b068fc378daa952ba7f163c4a11628f55a4df523b3ef",
            "0x000000000000000000000000c77f7fed3b5cc8249adc428c5f44c9063b9734b4",
            "0x000000000000000000000000c77f7fed3b5cc8249adc428c5f44c9063b9734b4"
          ],
          "data": "0x0000000000000000000000000000000000000000000000000000000003c4f35c",
          "blockHash": "0x7cf90563a4304097f6673458fabdeb31f4a283dabf774dcc437d00ae1afd318c",
          "blockNumber": "0x731b74",
          "transactionHash": "0xa4beca36b30f1a8b80863f9fd12d32fae5d83837f4cd5dd2c7365e49c160521c",
          "transactionIndex": "0x83",
          "logIndex": "0x62",
          "removed": false
        },
        {
          "address": "0x8aafd3ede9adb0ff97c7aebce82a919afb1c8764",
          "topics": [
            "0x4afcb4a87cdbd9974efdb92ee48bc8d7cd0ae4bf217004db3d080cbaee652ca7"
          ],
          "data": "0x000000000000000000000000000000000000000000000000000000006790464c000000000000000000000000000000000000000000000000000eba1107b192030000000000000000000000000000000000000000000000000000000001f3fe36",
          "blockHash": "0x7cf90563a4304097f6673458fabdeb31f4a283dabf774dcc437d00ae1afd318c",
          "blockNumber": "0x731b74",
          "transactionHash": "0xa4beca36b30f1a8b80863f9fd12d32fae5d83837f4cd5dd2c7365e49c160521c",
          "transactionIndex": "0x83",
          "logIndex": "0x63",
          "removed": false
        }
      ],
      "logsBloom": "0x00000000000000000000000000000000000000000600000000000000000000000000000000000000000000000000000000000000000000004000000000000000000000000000004000000008000000000000000000000000000000000000000000000000020000000000000000000800020000000000000000000010000000000000000000000000000000000000000000000000000000000000010000000000000000000000000000000000000000004000000000000000000000000000000000000002000000800000000000000000000000000000080000000000000020000000000000000000000000000000000000000000000000000000000000000000",
      "type": "0x2",
      "transactionHash": "0xa4beca36b30f1a8b80863f9fd12d32fae5d83837f4cd5dd2c7365e49c160521c",
      "transactionIndex": "0x83",
      "blockHash": "0x7cf90563a4304097f6673458fabdeb31f4a283dabf774dcc437d00ae1afd318c",
      "blockNumber": "0x731b74",
      "gasUsed": "0xfd1b",
      "effectiveGasPrice": "0x10b9195f8",
      "from": "0xc77f7fed3b5cc8249adc428c5f44c9063b9734b4",
      "to": "0x8aafd3ede9adb0ff97c7aebce82a919afb1c8764",
      "contractAddress": null
    }
  ],
  "libraries": [],
  "pending": [],
  "returns": {},
  "timestamp": 1737508430,
  "chain": 11155111,
  "commit": "1d2fb70"
}