{
  "transactions": [
    {
      "hash": "0x4232e47ef3cfa605ec6e75543ebf9713ac463a576a13657746317ae5ea674a64",
      "transactionType": "CALL",
      "contractName": null,
      "contractAddress": "0x8aafd3ede9adb0ff97c7aebce82a919afb1c8764",
      "function": "buy(address)",
      "arguments": [
        "0xC77f7fed3b5Cc8249aDc428c5F44C9063B9734b4"
      ],
      "transaction": {
        "from": "0xc77f7fed3b5cc8249adc428c5f44c9063b9734b4",
        "to": "0x8aafd3ede9adb0ff97c7aebce82a919afb1c8764",
        "gas": "0x156ea",
        "value": "0xde0b6b3a7640000",
        "input": "0xf088d547000000000000000000000000c77f7fed3b5cc8249adc428c5f44c9063b9734b4",
        "nonce": "0x15cd",
        "chainId": "0xaa36a7"
      },
      "additionalContracts": [],
      "isFixedGasLimit": false
    }
  ],
  "receipts": [
    {
      "status": "0x1",
      "cumulativeGasUsed": "0xd37991",
      "logs": [
        {
          "address": "0x8aafd3ede9adb0ff97c7aebce82a919afb1c8764",
          "topics": [
            "0xddf252ad1be2c89b69c2b068fc378daa952ba7f163c4a11628f55a4df523b3ef",
            "0x0000000000000000000000000000000000000000000000000000000000000000",
            "0x000000000000000000000000c77f7fed3b5cc8249adc428c5f44c9063b9734b4"
          ],
          "data": "0x000000000000000000000000000000000000000000000009d50f492f0bbe15f4",
          "blockHash": "0x2ae4b0bc5eee410b4c88eb856820d6330d496a914a81c3664307eeba14b07f61",
          "blockNumber": "0x731d49",
          "transactionHash": "0x4232e47ef3cfa605ec6e75543ebf9713ac463a576a13657746317ae5ea674a64",
          "transactionIndex": "0x7a",
          "logIndex": "0xfe",
          "removed": false
        },
        {
          "address": "0x8aafd3ede9adb0ff97c7aebce82a919afb1c8764",
          "topics": [
            "0xddf252ad1be2c89b69c2b068fc378daa952ba7f163c4a11628f55a4df523b3ef",
            "0x0000000000000000000000000000000000000000000000000000000000000000",
            "0x000000000000000000000000c77f7fed3b5cc8249adc428c5f44c9063b9734b4"
          ],
          "data": "0x00000000000000000000000000000000000000000000000007a2952d40670c4c",
          "blockHash": "0x2ae4b0bc5eee410b4c88eb856820d6330d496a914a81c3664307eeba14b07f61",
          "blockNumber": "0x731d49",
          "transactionHash": "0x4232e47ef3cfa605ec6e75543ebf9713ac463a576a13657746317ae5ea674a64",
          "transactionIndex": "0x7a",
          "logIndex": "0xff",
          "removed": false
        },
        {
          "address": "0x8aafd3ede9adb0ff97c7aebce82a919afb1c8764",
          "topics": [
            "0x4afcb4a87cdbd9974efdb92ee48bc8d7cd0ae4bf217004db3d080cbaee652ca7"
          ],
          "data": "0x0000000000000000000000000000000000000000000000000000000067905c5400000000000000000000000000000000000000000000000000136b0547f8bd900000000000000000000000000000000000000000000000000de0b6b3a7640000",
          "blockHash": "0x2ae4b0bc5eee410b4c88eb856820d6330d496a914a81c3664307eeba14b07f61",
          "blockNumber": "0x731d49",
          "transactionHash": "0x4232e47ef3cfa605ec6e75543ebf9713ac463a576a13657746317ae5ea674a64",
          "transactionIndex": "0x7a",
          "logIndex": "0x100",
          "removed": false
        }
      ],
      "logsBloom": "0x00000000000000000000000000000000000000000600000000000000000000000000000000000000000000000000000000000000000000004000000000000000000000000000004000000008000000000000000000000000000000000000000000000000020000000000000000000800020000000000000000000010000000000000000000000000000000000000000000000000000000000000010000000000000000000000000000000000000000004000000000000000000000000000000000000002000000800000000000000000000000000000080000000000000020000000000000000000000000000000000000000000000000000000000000000000",
      "type": "0x2",
      "transactionHash": "0x4232e47ef3cfa605ec6e75543ebf9713ac463a576a13657746317ae5ea674a64",
      "transactionIndex": "0x7a",
      "blockHash": "0x2ae4b0bc5eee410b4c88eb856820d6330d496a914a81c3664307eeba14b07f61",
      "blockNumber": "0x731d49",
      "gasUsed": "0xf844",
      "effectiveGasPrice": "0x6625b2d1",
      "from": "0xc77f7fed3b5cc8249adc428c5f44c9063b9734b4",
      "to": "0x8aafd3ede9adb0ff97c7aebce82a919afb1c8764",
      "contractAddress": null
    }
  ],
  "libraries": [],
  "pending": [],
  "returns": {},
  "timestamp": 1737514069,
  "chain": 11155111,
  "commit": "1d2fb70"
}