{
  "transactions": [
    {
      "hash": "0x1ae1d8c7feb5699f3bc47f5ab2fd31a65ed94befdb039dcc9ef2421195077513",
      "transactionType": "CALL",
      "contractName": null,
      "contractAddress": "0x5eb9cc76c3506942c1c0ead70e877dd5e4f00cb0",
      "function": "buy(address)",
      "arguments": [
        "0xC77f7fed3b5Cc8249aDc428c5F44C9063B9734b4"
      ],
      "transaction": {
        "from": "0xc77f7fed3b5cc8249adc428c5f44c9063b9734b4",
        "to": "0x5eb9cc76c3506942c1c0ead70e877dd5e4f00cb0",
        "gas": "0x1b30c",
        "value": "0xde0b6b3a7640000",
        "input": "0xf088d547000000000000000000000000c77f7fed3b5cc8249adc428c5f44c9063b9734b4",
        "nonce": "0x476",
        "chainId": "0xaa36a7"
      },
      "additionalContracts": [],
      "isFixedGasLimit": false
    }
  ],
  "receipts": [
    {
      "status": "0x1",
      "cumulativeGasUsed": "0x1e0e7aa",
      "logs": [
        {
          "address": "0x5eb9cc76c3506942c1c0ead70e877dd5e4f00cb0",
          "topics": [
            "0xddf252ad1be2c89b69c2b068fc378daa952ba7f163c4a11628f55a4df523b3ef",
            "0x0000000000000000000000000000000000000000000000000000000000000000",
            "0x000000000000000000000000c77f7fed3b5cc8249adc428c5f44c9063b9734b4"
          ],
          "data": "0x00000000000000000000000000000000000000000000003574bf9e9abfd87bd2",
          "blockHash": "0xaaec301921a399db0fa43b0b4b8ff902e732c2578edf2f5fe7f8b1489da08e87",
          "blockNumber": "0x7250a3",
          "transactionHash": "0x1ae1d8c7feb5699f3bc47f5ab2fd31a65ed94befdb039dcc9ef2421195077513",
          "transactionIndex": "0xdf",
          "logIndex": "0x1b5",
          "removed": false
        },
        {
          "address": "0x5eb9cc76c3506942c1c0ead70e877dd5e4f00cb0",
          "topics": [
            "0xddf252ad1be2c89b69c2b068fc378daa952ba7f163c4a11628f55a4df523b3ef",
            "0x0000000000000000000000000000000000000000000000000000000000000000",
            "0x000000000000000000000000c77f7fed3b5cc8249adc428c5f44c9063b9734b4"
          ],
          "data": "0x0000000000000000000000000000000000000000000000002982ac8ba7c709af",
          "blockHash": "0xaaec301921a399db0fa43b0b4b8ff902e732c2578edf2f5fe7f8b1489da08e87",
          "blockNumber": "0x7250a3",
          "transactionHash": "0x1ae1d8c7feb5699f3bc47f5ab2fd31a65ed94befdb039dcc9ef2421195077513",
          "transactionIndex": "0xdf",
          "logIndex": "0x1b6",
          "removed": false
        },
        {
          "address": "0x5eb9cc76c3506942c1c0ead70e877dd5e4f00cb0",
          "topics": [
            "0x4afcb4a87cdbd9974efdb92ee48bc8d7cd0ae4bf217004db3d080cbaee652ca7"
          ],
          "data": "0x000000000000000000000000000000000000000000000000000000006786b97000000000000000000000000000000000000000000000000000039119de3033310000000000000000000000000000000000000000000000000de0b6b3a7640000",
          "blockHash": "0xaaec301921a399db0fa43b0b4b8ff902e732c2578edf2f5fe7f8b1489da08e87",
          "blockNumber": "0x7250a3",
          "transactionHash": "0x1ae1d8c7feb5699f3bc47f5ab2fd31a65ed94befdb039dcc9ef2421195077513",
          "transactionIndex": "0xdf",
          "logIndex": "0x1b7",
          "removed": false
        }
      ],
      "logsBloom": "0x00000000000000000000000000000000000000000000000000000000000000000000000000000000000000000000000000000000000000004000000000000000000000000000000000000008000000000000000000000000000000000000000000000000020000000000000004000800020000000000000000000010000000000000000000000000000000000000000000000000000000000000010000000000000000000000000000000000000000004000000000000000000000000000020000000002000000800000008000000000000000000000080000000000000020000000000000000000000000000000000000000000000000000000000000000000",
      "type": "0x2",
      "transactionHash": "0x1ae1d8c7feb5699f3bc47f5ab2fd31a65ed94befdb039dcc9ef2421195077513",
      "transactionIndex": "0xdf",
      "blockHash": "0xaaec301921a399db0fa43b0b4b8ff902e732c2578edf2f5fe7f8b1489da08e87",
      "blockNumber": "0x7250a3",
      "gasUsed": "0x13af8",
      "effectiveGasPrice": "0x1bf5a8fc2",
      "from": "0xc77f7fed3b5cc8249adc428c5f44c9063b9734b4",
      "to": "0x5eb9cc76c3506942c1c0ead70e877dd5e4f00cb0",
      "contractAddress": null
    }
  ],
  "libraries": [],
  "pending": [],
  "returns": {},
  "timestamp": 1736882544,
  "chain": 11155111,
  "commit": "51a374b"
}