{
  "transactions": [
    {
      "hash": "0x11b1137d754042bf8c6cad6d89889fe81092fcee792076dcb214bb26a6b163cc",
      "transactionType": "CALL",
      "contractName": null,
      "contractAddress": "0x00972455a43df7d89f165c5b82f30c20247bb610",
      "function": "buy(address)",
      "arguments": [
        "0xC77f7fed3b5Cc8249aDc428c5F44C9063B9734b4"
      ],
      "transaction": {
        "from": "0xc77f7fed3b5cc8249adc428c5f44c9063b9734b4",
        "to": "0x00972455a43df7d89f165c5b82f30c20247bb610",
        "gas": "0x16aab",
        "value": "0x38d7ea4c68000",
        "input": "0xf088d547000000000000000000000000c77f7fed3b5cc8249adc428c5f44c9063b9734b4",
        "nonce": "0x1872",
        "chainId": "0xaa36a7"
      },
      "additionalContracts": [],
      "isFixedGasLimit": false
    }
  ],
  "receipts": [
    {
      "status": "0x1",
      "cumulativeGasUsed": "0x105b7b8",
      "logs": [
        {
          "address": "0x00972455a43df7d89f165c5b82f30c20247bb610",
          "topics": [
            "0xddf252ad1be2c89b69c2b068fc378daa952ba7f163c4a11628f55a4df523b3ef",
            "0x0000000000000000000000000000000000000000000000000000000000000000",
            "0x000000000000000000000000c77f7fed3b5cc8249adc428c5f44c9063b9734b4"
          ],
          "data": "0x0000000000000000000000000000000000000000000000000db67720e3146492",
          "blockHash": "0x78911e4efef0d22c175b7e3a14d017e2e8cde64c73e582aa70e9f71ddb7b0a95",
          "blockNumber": "0x737e51",
          "transactionHash": "0x11b1137d754042bf8c6cad6d89889fe81092fcee792076dcb214bb26a6b163cc",
          "transactionIndex": "0xa3",
          "logIndex": "0x10c",
          "removed": false
        },
        {
          "address": "0x00972455a43df7d89f165c5b82f30c20247bb610",
          "topics": [
            "0xddf252ad1be2c89b69c2b068fc378daa952ba7f163c4a11628f55a4df523b3ef",
            "0x0000000000000000000000000000000000000000000000000000000000000000",
            "0x000000000000000000000000c77f7fed3b5cc8249adc428c5f44c9063b9734b4"
          ],
          "data": "0x000000000000000000000000000000000000000000000000000aa5feff40918c",
          "blockHash": "0x78911e4efef0d22c175b7e3a14d017e2e8cde64c73e582aa70e9f71ddb7b0a95",
          "blockNumber": "0x737e51",
          "transactionHash": "0x11b1137d754042bf8c6cad6d89889fe81092fcee792076dcb214bb26a6b163cc",
          "transactionIndex": "0xa3",
          "logIndex": "0x10d",
          "removed": false
        },
        {
          "address": "0x00972455a43df7d89f165c5b82f30c20247bb610",
          "topics": [
            "0x4afcb4a87cdbd9974efdb92ee48bc8d7cd0ae4bf217004db3d080cbaee652ca7"
          ],
          "data": "0x000000000000000000000000000000000000000000000000000000006795117c00000000000000000000000000000000000000000000000000038fba0c9c5bb700000000000000000000000000000000000000000000000000038d7ea4c68000",
          "blockHash": "0x78911e4efef0d22c175b7e3a14d017e2e8cde64c73e582aa70e9f71ddb7b0a95",
          "blockNumber": "0x737e51",
          "transactionHash": "0x11b1137d754042bf8c6cad6d89889fe81092fcee792076dcb214bb26a6b163cc",
          "transactionIndex": "0xa3",
          "logIndex": "0x10e",
          "removed": false
        }
      ],
      "logsBloom": "0x00000000000000000000000000000000000000000000000000000000000000000000000000000000000000000000000000000000000000004400000000000000000000000000000000000008000000000000000000000000000000000000000000000000020000000000000000000800020000000000000000000010000000000000000000000000000000000000000000000000000000000000010000000000000000000000000000000000000000004000000000400000000040000000000000000002000000800000000000000000000000000000080000000000000020000000000000000000000000000000000000000000000000000000000000000000",
      "type": "0x2",
      "transactionHash": "0x11b1137d754042bf8c6cad6d89889fe81092fcee792076dcb214bb26a6b163cc",
      "transactionIndex": "0xa3",
      "blockHash": "0x78911e4efef0d22c175b7e3a14d017e2e8cde64c73e582aa70e9f71ddb7b0a95",
      "blockNumber": "0x737e51",
      "gasUsed": "0xf7fb",
      "effectiveGasPrice": "0x1ec2db157",
      "from": "0xc77f7fed3b5cc8249adc428c5f44c9063b9734b4",
      "to": "0x00972455a43df7d89f165c5b82f30c20247bb610",
      "contractAddress": null
    }
  ],
  "libraries": [],
  "pending": [],
  "returns": {},
  "timestamp": 1737822589,
  "chain": 11155111,
  "commit": "f5162e9"
}