{
  "transactions": [
    {
      "hash": "0x37d379130c2e11661b49579734182cd1b37c7a3c8889d79d5eecee277a45c19b",
      "transactionType": "CALL",
      "contractName": null,
      "contractAddress": "0xbf4a322f1496e5c3d34a9bcdb4c60567b38c7de2",
      "function": "buy(address)",
      "arguments": [
        "0xC77f7fed3b5Cc8249aDc428c5F44C9063B9734b4"
      ],
      "transaction": {
        "from": "0xc77f7fed3b5cc8249adc428c5f44c9063b9734b4",
        "to": "0xbf4a322f1496e5c3d34a9bcdb4c60567b38c7de2",
        "gas": "0x1b309",
        "value": "0xde0b6b3a7640000",
        "input": "0xf088d547000000000000000000000000c77f7fed3b5cc8249adc428c5f44c9063b9734b4",
        "nonce": "0xdc6",
        "chainId": "0xaa36a7"
      },
      "additionalContracts": [],
      "isFixedGasLimit": false
    }
  ],
  "receipts": [
    {
      "status": "0x1",
      "cumulativeGasUsed": "0xe38008",
      "logs": [
        {
          "address": "0xbf4a322f1496e5c3d34a9bcdb4c60567b38c7de2",
          "topics": [
            "0xddf252ad1be2c89b69c2b068fc378daa952ba7f163c4a11628f55a4df523b3ef",
            "0x0000000000000000000000000000000000000000000000000000000000000000",
            "0x000000000000000000000000c77f7fed3b5cc8249adc428c5f44c9063b9734b4"
          ],
          "data": "0x000000000000000000000000000000000000000000000034a77f3ea8c3c11172",
          "blockHash": "0xfb559b6327e3f66979bf01047d2d62f5bf7b696cedd3f00bdc2236b19f8ee7ce",
          "blockNumber": "0x7266a2",
          "transactionHash": "0x37d379130c2e11661b49579734182cd1b37c7a3c8889d79d5eecee277a45c19b",
          "transactionIndex": "0x56",
          "logIndex": "0xbf",
          "removed": false
        },
        {
          "address": "0xbf4a322f1496e5c3d34a9bcdb4c60567b38c7de2",
          "topics": [
            "0xddf252ad1be2c89b69c2b068fc378daa952ba7f163c4a11628f55a4df523b3ef",
            "0x0000000000000000000000000000000000000000000000000000000000000000",
            "0x000000000000000000000000c77f7fed3b5cc8249adc428c5f44c9063b9734b4"
          ],
          "data": "0x00000000000000000000000000000000000000000000000028e34a0bd57315e9",
          "blockHash": "0xfb559b6327e3f66979bf01047d2d62f5bf7b696cedd3f00bdc2236b19f8ee7ce",
          "blockNumber": "0x7266a2",
          "transactionHash": "0x37d379130c2e11661b49579734182cd1b37c7a3c8889d79d5eecee277a45c19b",
          "transactionIndex": "0x56",
          "logIndex": "0xc0",
          "removed": false
        },
        {
          "address": "0xbf4a322f1496e5c3d34a9bcdb4c60567b38c7de2",
          "topics": [
            "0x4afcb4a87cdbd9974efdb92ee48bc8d7cd0ae4bf217004db3d080cbaee652ca7"
          ],
          "data": "0x000000000000000000000000000000000000000000000000000000006787c29c00000000000000000000000000000000000000000000000000039f03863802fb0000000000000000000000000000000000000000000000000de0b6b3a7640000",
          "blockHash": "0xfb559b6327e3f66979bf01047d2d62f5bf7b696cedd3f00bdc2236b19f8ee7ce",
          "blockNumber": "0x7266a2",
          "transactionHash": "0x37d379130c2e11661b49579734182cd1b37c7a3c8889d79d5eecee277a45c19b",
          "transactionIndex": "0x56",
          "logIndex": "0xc1",
          "removed": false
        }
      ],
      "logsBloom": "0x00000000000000000000000000000000000000000000000000000000000000000000000000000000000000000000000000000000000000004000000000000000000000000000000000000008000000000000001000000000000000000000000000000000020000000000000000000800020000000000000000000010000000000000000000000000000000000000000000000000000008000000010000000000000000000000000000000000000000004000000000000000000000000000000000000002000000800000000000001000000000000000080000000000000020000000000000000000000000000000000000000000000000000000000000000000",
      "type": "0x2",
      "transactionHash": "0x37d379130c2e11661b49579734182cd1b37c7a3c8889d79d5eecee277a45c19b",
      "transactionIndex": "0x56",
      "blockHash": "0xfb559b6327e3f66979bf01047d2d62f5bf7b696cedd3f00bdc2236b19f8ee7ce",
      "blockNumber": "0x7266a2",
      "gasUsed": "0x13af6",
      "effectiveGasPrice": "0x10e8a5e67",
      "from": "0xc77f7fed3b5cc8249adc428c5f44c9063b9734b4",
      "to": "0xbf4a322f1496e5c3d34a9bcdb4c60567b38c7de2",
      "contractAddress": null
    }
  ],
  "libraries": [],
  "pending": [],
  "returns": {},
  "timestamp": 1736950430,
  "chain": 11155111,
  "commit": "51a374b"
}