{
  "transactions": [
    {
      "hash": "0x3864a2bfa0ea8489f2cc1217e548b38111723b4568ab1d45d95068dff2ca468c",
      "transactionType": "CALL",
      "contractName": null,
      "contractAddress": "0x8aafd3ede9adb0ff97c7aebce82a919afb1c8764",
      "function": "buy(address)",
      "arguments": [
        "0xC77f7fed3b5Cc8249aDc428c5F44C9063B9734b4"
      ],
      "transaction": {
        "from": "0xc77f7fed3b5cc8249adc428c5f44c9063b9734b4",
        "to": "0x8aafd3ede9adb0ff97c7aebce82a919afb1c8764",
        "gas": "0x156ea",
        "value": "0xde0b6b3a7640000",
        "input": "0xf088d547000000000000000000000000c77f7fed3b5cc8249adc428c5f44c9063b9734b4",
        "nonce": "0x10fe",
        "chainId": "0xaa36a7"
      },
      "additionalContracts": [],
      "isFixedGasLimit": false
    }
  ],
  "receipts": [
    {
      "status": "0x1",
      "cumulativeGasUsed": "0xa93fe3",
      "logs": [
        {
          "address": "0x8aafd3ede9adb0ff97c7aebce82a919afb1c8764",
          "topics": [
            "0xddf252ad1be2c89b69c2b068fc378daa952ba7f163c4a11628f55a4df523b3ef",
            "0x0000000000000000000000000000000000000000000000000000000000000000",
            "0x000000000000000000000000c77f7fed3b5cc8249adc428c5f44c9063b9734b4"
          ],
          "data": "0x000000000000000000000000000000000000000000000025d12d0cb4a68421ed",
          "blockHash": "0xe7d1a4e9dab5918d6d3a1751036961920086d09e2eb3af6c507ed0c3dce194dc",
          "blockNumber": "0x7317ab",
          "transactionHash": "0x3864a2bfa0ea8489f2cc1217e548b38111723b4568ab1d45d95068dff2ca468c",
          "transactionIndex": "0x89",
          "logIndex": "0xa1",
          "removed": false
        },
        {
          "address": "0x8aafd3ede9adb0ff97c7aebce82a919afb1c8764",
          "topics": [
            "0xddf252ad1be2c89b69c2b068fc378daa952ba7f163c4a11628f55a4df523b3ef",
            "0x0000000000000000000000000000000000000000000000000000000000000000",
            "0x000000000000000000000000c77f7fed3b5cc8249adc428c5f44c9063b9734b4"
          ],
          "data": "0x0000000000000000000000000000000000000000000000001d5dc36c1b100453",
          "blockHash": "0xe7d1a4e9dab5918d6d3a1751036961920086d09e2eb3af6c507ed0c3dce194dc",
          "blockNumber": "0x7317ab",
          "transactionHash": "0x3864a2bfa0ea8489f2cc1217e548b38111723b4568ab1d45d95068dff2ca468c",
          "transactionIndex": "0x89",
          "logIndex": "0xa2",
          "removed": false
        },
        {
          "address": "0x8aafd3ede9adb0ff97c7aebce82a919afb1c8764",
          "topics": [
            "0x4afcb4a87cdbd9974efdb92ee48bc8d7cd0ae4bf217004db3d080cbaee652ca7"
          ],
          "data": "0x00000000000000000000000000000000000000000000000000000000679018c800000000000000000000000000000000000000000000000000050b1db57a279f0000000000000000000000000000000000000000000000000de0b6b3a7640000",
          "blockHash": "0xe7d1a4e9dab5918d6d3a1751036961920086d09e2eb3af6c507ed0c3dce194dc",
          "blockNumber": "0x7317ab",
          "transactionHash": "0x3864a2bfa0ea8489f2cc1217e548b38111723b4568ab1d45d95068dff2ca468c",
          "transactionIndex": "0x89",
          "logIndex": "0xa3",
          "removed": false
        }
      ],
      "logsBloom": "0x00000000000000000000000000000000000000000600000000000000000000000000000000000000000000000000000000000000000000004000000000000000000000000000004000000008000000000000000000000000000000000000000000000000020000000000000000000800020000000000000000000010000000000000000000000000000000000000000000000000000000000000010000000000000000000000000000000000000000004000000000000000000000000000000000000002000000800000000000000000000000000000080000000000000020000000000000000000000000000000000000000000000000000000000000000000",
      "type": "0x2",
      "transactionHash": "0x3864a2bfa0ea8489f2cc1217e548b38111723b4568ab1d45d95068dff2ca468c",
      "transactionIndex": "0x89",
      "blockHash": "0xe7d1a4e9dab5918d6d3a1751036961920086d09e2eb3af6c507ed0c3dce194dc",
      "blockNumber": "0x7317ab",
      "gasUsed": "0xf844",
      "effectiveGasPrice": "0x371cca1b",
      "from": "0xc77f7fed3b5cc8249adc428c5f44c9063b9734b4",
      "to": "0x8aafd3ede9adb0ff97c7aebce82a919afb1c8764",
      "contractAddress": null
    }
  ],
  "libraries": [],
  "pending": [],
  "returns": {},
  "timestamp": 1737496777,
  "chain": 11155111,
  "commit": "1d2fb70"
}