{
  "transactions": [
    {
      "hash": "0x0f98cc3fa5188afca18c5e1e781e778250343b07b471bb345dcb1ba840f3c98b",
      "transactionType": "CALL",
      "contractName": null,
      "contractAddress": "0x8aafd3ede9adb0ff97c7aebce82a919afb1c8764",
      "function": "sell(uint256)",
      "arguments": [
        "46078105242467332"
      ],
      "transaction": {
        "from": "0xc77f7fed3b5cc8249adc428c5f44c9063b9734b4",
        "to": "0x8aafd3ede9adb0ff97c7aebce82a919afb1c8764",
        "gas": "0x1724d",
        "value": "0x0",
        "input": "0xe4849b3200000000000000000000000000000000000000000000000000a3b3cae6e67c04",
        "nonce": "0x1007",
        "chainId": "0xaa36a7"
      },
      "additionalContracts": [],
      "isFixedGasLimit": false
    }
  ],
  "receipts": [
    {
      "status": "0x1",
      "cumulativeGasUsed": "0xb262bb",
      "logs": [
        {
          "address": "0x8aafd3ede9adb0ff97c7aebce82a919afb1c8764",
          "topics": [
            "0xddf252ad1be2c89b69c2b068fc378daa952ba7f163c4a11628f55a4df523b3ef",
            "0x000000000000000000000000c77f7fed3b5cc8249adc428c5f44c9063b9734b4",
            "0x0000000000000000000000000000000000000000000000000000000000000000"
          ],
          "data": "0x00000000000000000000000000000000000000000000000000a26487be2420ea",
          "blockHash": "0x2a2acaf5e84e6f31c2483f49ac5451375df5ea0257d8dc8a6494e8f9f91a6913",
          "blockNumber": "0x73167c",
          "transactionHash": "0x0f98cc3fa5188afca18c5e1e781e778250343b07b471bb345dcb1ba840f3c98b",
          "transactionIndex": "0x7a",
          "logIndex": "0x95",
          "removed": false
        },
        {
          "address": "0x8aafd3ede9adb0ff97c7aebce82a919afb1c8764",
          "topics": [
            "0xddf252ad1be2c89b69c2b068fc378daa952ba7f163c4a11628f55a4df523b3ef",
            "0x000000000000000000000000c77f7fed3b5cc8249adc428c5f44c9063b9734b4",
            "0x000000000000000000000000c77f7fed3b5cc8249adc428c5f44c9063b9734b4"
          ],
          "data": "0x00000000000000000000000000000000000000000000000000014f4328c25b1a",
          "blockHash": "0x2a2acaf5e84e6f31c2483f49ac5451375df5ea0257d8dc8a6494e8f9f91a6913",
          "blockNumber": "0x73167c",
          "transactionHash": "0x0f98cc3fa5188afca18c5e1e781e778250343b07b471bb345dcb1ba840f3c98b",
          "transactionIndex": "0x7a",
          "logIndex": "0x96",
          "removed": false
        },
        {
          "address": "0x8aafd3ede9adb0ff97c7aebce82a919afb1c8764",
          "topics": [
            "0x4afcb4a87cdbd9974efdb92ee48bc8d7cd0ae4bf217004db3d080cbaee652ca7"
          ],
          "data": "0x0000000000000000000000000000000000000000000000000000000067900a7c0000000000000000000000000000000000000000000000000004e7da260f3d89000000000000000000000000000000000000000000000000000039de0655dc8e",
          "blockHash": "0x2a2acaf5e84e6f31c2483f49ac5451375df5ea0257d8dc8a6494e8f9f91a6913",
          "blockNumber": "0x73167c",
          "transactionHash": "0x0f98cc3fa5188afca18c5e1e781e778250343b07b471bb345dcb1ba840f3c98b",
          "transactionIndex": "0x7a",
          "logIndex": "0x97",
          "removed": false
        }
      ],
      "logsBloom": "0x00000000000000000000000000000000000000000600000000000000000000000000000000000000000000000000000000000000000000004000000000000000000000000000004000000008000000000000000000000000000000000000000000000000020000000000000000000800020000000000000000000010000000000000000000000000000000000000000000000000000000000000010000000000000000000000000000000000000000004000000000000000000000000000000000000002000000800000000000000000000000000000080000000000000020000000000000000000000000000000000000000000000000000000000000000000",
      "type": "0x2",
      "transactionHash": "0x0f98cc3fa5188afca18c5e1e781e778250343b07b471bb345dcb1ba840f3c98b",
      "transactionIndex": "0x7a",
      "blockHash": "0x2a2acaf5e84e6f31c2483f49ac5451375df5ea0257d8dc8a6494e8f9f91a6913",
      "blockNumber": "0x73167c",
      "gasUsed": "0xfd33",
      "effectiveGasPrice": "0x3e3309e0",
      "from": "0xc77f7fed3b5cc8249adc428c5f44c9063b9734b4",
      "to": "0x8aafd3ede9adb0ff97c7aebce82a919afb1c8764",
      "contractAddress": null
    }
  ],
  "libraries": [],
  "pending": [],
  "returns": {},
  "timestamp": 1737493118,
  "chain": 11155111,
  "commit": "1d2fb70"
}