{
  "transactions": [
    {
      "hash": "0x11196d6cf1944b4249bb63bc42e402d555e7a03d6bd42d6624267aa3dc290a87",
      "transactionType": "CALL",
      "contractName": null,
      "contractAddress": "0x8aafd3ede9adb0ff97c7aebce82a919afb1c8764",
      "function": "sell(uint256)",
      "arguments": [
        "2932028796400"
      ],
      "transaction": {
        "from": "0xc77f7fed3b5cc8249adc428c5f44c9063b9734b4",
        "to": "0x8aafd3ede9adb0ff97c7aebce82a919afb1c8764",
        "gas": "0x15daa",
        "value": "0x0",
        "input": "0xe4849b32000000000000000000000000000000000000000000000000000002aaaa88edf0",
        "nonce": "0x103b",
        "chainId": "0xaa36a7"
      },
      "additionalContracts": [],
      "isFixedGasLimit": false
    }
  ],
  "receipts": [
    {
      "status": "0x1",
      "cumulativeGasUsed": "0xd57f2f",
      "logs": [
        {
          "address": "0x8aafd3ede9adb0ff97c7aebce82a919afb1c8764",
          "topics": [
            "0xddf252ad1be2c89b69c2b068fc378daa952ba7f163c4a11628f55a4df523b3ef",
            "0x000000000000000000000000c77f7fed3b5cc8249adc428c5f44c9063b9734b4",
            "0x0000000000000000000000000000000000000000000000000000000000000000"
          ],
          "data": "0x000000000000000000000000000000000000000000000000000002a5346f420d",
          "blockHash": "0x486e96abb373e3e7c32557dfe7f47d42ff50fc80aa42a38e86ff453db8654dc1",
          "blockNumber": "0x7316b9",
          "transactionHash": "0x11196d6cf1944b4249bb63bc42e402d555e7a03d6bd42d6624267aa3dc290a87",
          "transactionIndex": "0x8b",
          "logIndex": "0xbc",
          "removed": false
        },
        {
          "address": "0x8aafd3ede9adb0ff97c7aebce82a919afb1c8764",
          "topics": [
            "0xddf252ad1be2c89b69c2b068fc378daa952ba7f163c4a11628f55a4df523b3ef",
            "0x000000000000000000000000c77f7fed3b5cc8249adc428c5f44c9063b9734b4",
            "0x000000000000000000000000c77f7fed3b5cc8249adc428c5f44c9063b9734b4"
          ],
          "data": "0x000000000000000000000000000000000000000000000000000000057619abe3",
          "blockHash": "0x486e96abb373e3e7c32557dfe7f47d42ff50fc80aa42a38e86ff453db8654dc1",
          "blockNumber": "0x7316b9",
          "transactionHash": "0x11196d6cf1944b4249bb63bc42e402d555e7a03d6bd42d6624267aa3dc290a87",
          "transactionIndex": "0x8b",
          "logIndex": "0xbd",
          "removed": false
        },
        {
          "address": "0x8aafd3ede9adb0ff97c7aebce82a919afb1c8764",
          "topics": [
            "0x4afcb4a87cdbd9974efdb92ee48bc8d7cd0ae4bf217004db3d080cbaee652ca7"
          ],
          "data": "0x0000000000000000000000000000000000000000000000000000000067900d640000000000000000000000000000000000000000000000000004ef1cc9407a4500000000000000000000000000000000000000000000000000000000f2b61e59",
          "blockHash": "0x486e96abb373e3e7c32557dfe7f47d42ff50fc80aa42a38e86ff453db8654dc1",
          "blockNumber": "0x7316b9",
          "transactionHash": "0x11196d6cf1944b4249bb63bc42e402d555e7a03d6bd42d6624267aa3dc290a87",
          "transactionIndex": "0x8b",
          "logIndex": "0xbe",
          "removed": false
        }
      ],
      "logsBloom": "0x00000000000000000000000000000000000000000600000000000000000000000000000000000000000000000000000000000000000000004000000000000000000000000000004000000008000000000000000000000000000000000000000000000000020000000000000000000800020000000000000000000010000000000000000000000000000000000000000000000000000000000000010000000000000000000000000000000000000000004000000000000000000000000000000000000002000000800000000000000000000000000000080000000000000020000000000000000000000000000000000000000000000000000000000000000000",
      "type": "0x2",
      "transactionHash": "0x11196d6cf1944b4249bb63bc42e402d555e7a03d6bd42d6624267aa3dc290a87",
      "transactionIndex": "0x8b",
      "blockHash": "0x486e96abb373e3e7c32557dfe7f47d42ff50fc80aa42a38e86ff453db8654dc1",
      "blockNumber": "0x7316b9",
      "gasUsed": "0xfd27",
      "effectiveGasPrice": "0x4939c6ae",
      "from": "0xc77f7fed3b5cc8249adc428c5f44c9063b9734b4",
      "to": "0x8aafd3ede9adb0ff97c7aebce82a919afb1c8764",
      "contractAddress": null
    }
  ],
  "libraries": [],
  "pending": [],
  "returns": {},
  "timestamp": 1737493862,
  "chain": 11155111,
  "commit": "1d2fb70"
}