{
  "transactions": [
    {
      "hash": "0x0e1fd8a415a81fbacd46a5d40cd874f61f1627397174a395c22262934b9ba00b",
      "transactionType": "CALL",
      "contractName": null,
      "contractAddress": "0x8aafd3ede9adb0ff97c7aebce82a919afb1c8764",
      "function": "buy(address)",
      "arguments": [
        "0xC77f7fed3b5Cc8249aDc428c5F44C9063B9734b4"
      ],
      "transaction": {
        "from": "0xc77f7fed3b5cc8249adc428c5f44c9063b9734b4",
        "to": "0x8aafd3ede9adb0ff97c7aebce82a919afb1c8764",
        "gas": "0x156ea",
        "value": "0xde0b6b3a7640000",
        "input": "0xf088d547000000000000000000000000c77f7fed3b5cc8249adc428c5f44c9063b9734b4",
        "nonce": "0x12f2",
        "chainId": "0xaa36a7"
      },
      "additionalContracts": [],
      "isFixedGasLimit": false
    }
  ],
  "receipts": [
    {
      "status": "0x1",
      "cumulativeGasUsed": "0x2159e9f",
      "logs": [
        {
          "address": "0x8aafd3ede9adb0ff97c7aebce82a919afb1c8764",
          "topics": [
            "0xddf252ad1be2c89b69c2b068fc378daa952ba7f163c4a11628f55a4df523b3ef",
            "0x0000000000000000000000000000000000000000000000000000000000000000",
            "0x000000000000000000000000c77f7fed3b5cc8249adc428c5f44c9063b9734b4"
          ],
          "data": "0x000000000000000000000000000000000000000000000023cd481974da4bfb9d",
          "blockHash": "0x3d935f3a23ee76f319d6b02f575c9c1d33567e9af5e7ce235231f3a6e56390ec",
          "blockNumber": "0x7319f7",
          "transactionHash": "0x0e1fd8a415a81fbacd46a5d40cd874f61f1627397174a395c22262934b9ba00b",
          "transactionIndex": "0x60",
          "logIndex": "0x1134",
          "removed": false
        },
        {
          "address": "0x8aafd3ede9adb0ff97c7aebce82a919afb1c8764",
          "topics": [
            "0xddf252ad1be2c89b69c2b068fc378daa952ba7f163c4a11628f55a4df523b3ef",
            "0x0000000000000000000000000000000000000000000000000000000000000000",
            "0x000000000000000000000000c77f7fed3b5cc8249adc428c5f44c9063b9734b4"
          ],
          "data": "0x0000000000000000000000000000000000000000000000001bcd2760ab00b04a",
          "blockHash": "0x3d935f3a23ee76f319d6b02f575c9c1d33567e9af5e7ce235231f3a6e56390ec",
          "blockNumber": "0x7319f7",
          "transactionHash": "0x0e1fd8a415a81fbacd46a5d40cd874f61f1627397174a395c22262934b9ba00b",
          "transactionIndex": "0x60",
          "logIndex": "0x1135",
          "removed": false
        },
        {
          "address": "0x8aafd3ede9adb0ff97c7aebce82a919afb1c8764",
          "topics": [
            "0x4afcb4a87cdbd9974efdb92ee48bc8d7cd0ae4bf217004db3d080cbaee652ca7"
          ],
          "data": "0x0000000000000000000000000000000000000000000000000000000067903464000000000000000000000000000000000000000000000000000553c4a73ee4f50000000000000000000000000000000000000000000000000de0b6b3a7640000",
          "blockHash": "0x3d935f3a23ee76f319d6b02f575c9c1d33567e9af5e7ce235231f3a6e56390ec",
          "blockNumber": "0x7319f7",
          "transactionHash": "0x0e1fd8a415a81fbacd46a5d40cd874f61f1627397174a395c22262934b9ba00b",
          "transactionIndex": "0x60",
          "logIndex": "0x1136",
          "removed": false
        }
      ],
      "logsBloom": "0x00000000000000000000000000000000000000000600000000000000000000000000000000000000000000000000000000000000000000004000000000000000000000000000004000000008000000000000000000000000000000000000000000000000020000000000000000000800020000000000000000000010000000000000000000000000000000000000000000000000000000000000010000000000000000000000000000000000000000004000000000000000000000000000000000000002000000800000000000000000000000000000080000000000000020000000000000000000000000000000000000000000000000000000000000000000",
      "type": "0x2",
      "transactionHash": "0x0e1fd8a415a81fbacd46a5d40cd874f61f1627397174a395c22262934b9ba00b",
      "transactionIndex": "0x60",
      "blockHash": "0x3d935f3a23ee76f319d6b02f575c9c1d33567e9af5e7ce235231f3a6e56390ec",
      "blockNumber": "0x7319f7",
      "gasUsed": "0xf844",
      "effectiveGasPrice": "0x44705514",
      "from": "0xc77f7fed3b5cc8249adc428c5f44c9063b9734b4",
      "to": "0x8aafd3ede9adb0ff97c7aebce82a919afb1c8764",
      "contractAddress": null
    }
  ],
  "libraries": [],
  "pending": [],
  "returns": {},
  "timestamp": 1737503844,
  "chain": 11155111,
  "commit": "1d2fb70"
}