{
  "transactions": [
    {
      "hash": "0x44c186a71dd1754ef973f70a38f6f69ccf9bea5eb8149f1830839a6f88b11621",
      "transactionType": "CALL",
      "contractName": null,
      "contractAddress": "0x8aafd3ede9adb0ff97c7aebce82a919afb1c8764",
      "function": "sell(uint256)",
      "arguments": [
        "380100007913150"
      ],
      "transaction": {
        "from": "0xc77f7fed3b5cc8249adc428c5f44c9063b9734b4",
        "to": "0x8aafd3ede9adb0ff97c7aebce82a919afb1c8764",
        "gas": "0x1724d",
        "value": "0x0",
        "input": "0xe4849b32000000000000000000000000000000000000000000000000000159b2edf366be",
        "nonce": "0xf56",
        "chainId": "0xaa36a7"
      },
      "additionalContracts": [],
      "isFixedGasLimit": false
    }
  ],
  "receipts": [
    {
      "status": "0x1",
      "cumulativeGasUsed": "0x15adca6",
      "logs": [
        {
          "address": "0x8aafd3ede9adb0ff97c7aebce82a919afb1c8764",
          "topics": [
            "0xddf252ad1be2c89b69c2b068fc378daa952ba7f163c4a11628f55a4df523b3ef",
            "0x000000000000000000000000c77f7fed3b5cc8249adc428c5f44c9063b9734b4",
            "0x0000000000000000000000000000000000000000000000000000000000000000"
          ],
          "data": "0x000000000000000000000000000000000000000000000000000156eef024a775",
          "blockHash": "0xdfdef20c8b01f3a9cfa70a559fbf5bff5eeea8633996b2f5e4d82b9b634c7f6d",
          "blockNumber": "0x7315b2",
          "transactionHash": "0x44c186a71dd1754ef973f70a38f6f69ccf9bea5eb8149f1830839a6f88b11621",
          "transactionIndex": "0xc1",
          "logIndex": "0x127",
          "removed": false
        },
        {
          "address": "0x8aafd3ede9adb0ff97c7aebce82a919afb1c8764",
          "topics": [
            "0xddf252ad1be2c89b69c2b068fc378daa952ba7f163c4a11628f55a4df523b3ef",
            "0x000000000000000000000000c77f7fed3b5cc8249adc428c5f44c9063b9734b4",
            "0x000000000000000000000000c77f7fed3b5cc8249adc428c5f44c9063b9734b4"
          ],
          "data": "0x000000000000000000000000000000000000000000000000000002c3fdcebf49",
          "blockHash": "0xdfdef20c8b01f3a9cfa70a559fbf5bff5eeea8633996b2f5e4d82b9b634c7f6d",
          "blockNumber": "0x7315b2",
          "transactionHash": "0x44c186a71dd1754ef973f70a38f6f69ccf9bea5eb8149f1830839a6f88b11621",
          "transactionIndex": "0xc1",
          "logIndex": "0x128",
          "removed": false
        },
        {
          "address": "0x8aafd3ede9adb0ff97c7aebce82a919afb1c8764",
          "topics": [
            "0x4afcb4a87cdbd9974efdb92ee48bc8d7cd0ae4bf217004db3d080cbaee652ca7"
          ],
          "data": "0x00000000000000000000000000000000000000000000000000000000679001040000000000000000000000000000000000000000000000000004c0db9f455d350000000000000000000000000000000000000000000000000000007668371422",
          "blockHash": "0xdfdef20c8b01f3a9cfa70a559fbf5bff5eeea8633996b2f5e4d82b9b634c7f6d",
          "blockNumber": "0x7315b2",
          "transactionHash": "0x44c186a71dd1754ef973f70a38f6f69ccf9bea5eb8149f1830839a6f88b11621",
          "transactionIndex": "0xc1",
          "logIndex": "0x129",
          "removed": false
        }
      ],
      "logsBloom": "0x00000000000000000000000000000000000000000600000000000000000000000000000000000000000000000000000000000000000000004000000000000000000000000000004000000008000000000000000000000000000000000000000000000000020000000000000000000800020000000000000000000010000000000000000000000000000000000000000000000000000000000000010000000000000000000000000000000000000000004000000000000000000000000000000000000002000000800000000000000000000000000000080000000000000020000000000000000000000000000000000000000000000000000000000000000000",
      "type": "0x2",
      "transactionHash": "0x44c186a71dd1754ef973f70a38f6f69ccf9bea5eb8149f1830839a6f88b11621",
      "transactionIndex": "0xc1",
      "blockHash": "0xdfdef20c8b01f3a9cfa70a559fbf5bff5eeea8633996b2f5e4d82b9b634c7f6d",
      "blockNumber": "0x7315b2",
      "gasUsed": "0xfd33",
      "effectiveGasPrice": "0x6e1c1aff",
      "from": "0xc77f7fed3b5cc8249adc428c5f44c9063b9734b4",
      "to": "0x8aafd3ede9adb0ff97c7aebce82a919afb1c8764",
      "contractAddress": null
    }
  ],
  "libraries": [],
  "pending": [],
  "returns": {},
  "timestamp": 1737490693,
  "chain": 11155111,
  "commit": "1d2fb70"
}