{
  "transactions": [
    {
      "hash": "0x75807b07a16f822b11bb5f66c71dcbd44015c05bbff0fa931da2ab62663f9ac1",
      "transactionType": "CALL",
      "contractName": null,
      "contractAddress": "0x8aafd3ede9adb0ff97c7aebce82a919afb1c8764",
      "function": "sell(uint256)",
      "arguments": [
        "1601590337169155277"
      ],
      "transaction": {
        "from": "0xc77f7fed3b5cc8249adc428c5f44c9063b9734b4",
        "to": "0x8aafd3ede9adb0ff97c7aebce82a919afb1c8764",
        "gas": "0x15dca",
        "value": "0x0",
        "input": "0xe4849b320000000000000000000000000000000000000000000000001639fded12aa64cd",
        "nonce": "0x1536",
        "chainId": "0xaa36a7"
      },
      "additionalContracts": [],
      "isFixedGasLimit": false
    }
  ],
  "receipts": [
    {
      "status": "0x1",
      "cumulativeGasUsed": "0xe2294d",
      "logs": [
        {
          "address": "0x8aafd3ede9adb0ff97c7aebce82a919afb1c8764",
          "topics": [
            "0xddf252ad1be2c89b69c2b068fc378daa952ba7f163c4a11628f55a4df523b3ef",
            "0x000000000000000000000000c77f7fed3b5cc8249adc428c5f44c9063b9734b4",
            "0x0000000000000000000000000000000000000000000000000000000000000000"
          ],
          "data": "0x000000000000000000000000000000000000000000000000160c78d299af2cb3",
          "blockHash": "0xe897ca6bdc61087ae8b32aa7ea3bd4f00ffc9a0f1cc8c8b9884b679b6d3be45d",
          "blockNumber": "0x731c9a",
          "transactionHash": "0x75807b07a16f822b11bb5f66c71dcbd44015c05bbff0fa931da2ab62663f9ac1",
          "transactionIndex": "0x52",
          "logIndex": "0x70",
          "removed": false
        },
        {
          "address": "0x8aafd3ede9adb0ff97c7aebce82a919afb1c8764",
          "topics": [
            "0xddf252ad1be2c89b69c2b068fc378daa952ba7f163c4a11628f55a4df523b3ef",
            "0x000000000000000000000000c77f7fed3b5cc8249adc428c5f44c9063b9734b4",
            "0x000000000000000000000000c77f7fed3b5cc8249adc428c5f44c9063b9734b4"
          ],
          "data": "0x000000000000000000000000000000000000000000000000002d851a78fb381a",
          "blockHash": "0xe897ca6bdc61087ae8b32aa7ea3bd4f00ffc9a0f1cc8c8b9884b679b6d3be45d",
          "blockNumber": "0x731c9a",
          "transactionHash": "0x75807b07a16f822b11bb5f66c71dcbd44015c05bbff0fa931da2ab62663f9ac1",
          "transactionIndex": "0x52",
          "logIndex": "0x71",
          "removed": false
        },
        {
          "address": "0x8aafd3ede9adb0ff97c7aebce82a919afb1c8764",
          "topics": [
            "0x4afcb4a87cdbd9974efdb92ee48bc8d7cd0ae4bf217004db3d080cbaee652ca7"
          ],
          "data": "0x00000000000000000000000000000000000000000000000000000000679054140000000000000000000000000000000000000000000000000011b9c4018bf1ac000000000000000000000000000000000000000000000000001c63629aa2b7ca",
          "blockHash": "0xe897ca6bdc61087ae8b32aa7ea3bd4f00ffc9a0f1cc8c8b9884b679b6d3be45d",
          "blockNumber": "0x731c9a",
          "transactionHash": "0x75807b07a16f822b11bb5f66c71dcbd44015c05bbff0fa931da2ab62663f9ac1",
          "transactionIndex": "0x52",
          "logIndex": "0x72",
          "removed": false
        }
      ],
      "logsBloom": "0x00000000000000000000000000000000000000000600000000000000000000000000000000000000000000000000000000000000000000004000000000000000000000000000004000000008000000000000000000000000000000000000000000000000020000000000000000000800020000000000000000000010000000000000000000000000000000000000000000000000000000000000010000000000000000000000000000000000000000004000000000000000000000000000000000000002000000800000000000000000000000000000080000000000000020000000000000000000000000000000000000000000000000000000000000000000",
      "type": "0x2",
      "transactionHash": "0x75807b07a16f822b11bb5f66c71dcbd44015c05bbff0fa931da2ab62663f9ac1",
      "transactionIndex": "0x52",
      "blockHash": "0xe897ca6bdc61087ae8b32aa7ea3bd4f00ffc9a0f1cc8c8b9884b679b6d3be45d",
      "blockNumber": "0x731c9a",
      "gasUsed": "0xfd3f",
      "effectiveGasPrice": "0xe8d86cae",
      "from": "0xc77f7fed3b5cc8249adc428c5f44c9063b9734b4",
      "to": "0x8aafd3ede9adb0ff97c7aebce82a919afb1c8764",
      "contractAddress": null
    }
  ],
  "libraries": [],
  "pending": [],
  "returns": {},
  "timestamp": 1737511957,
  "chain": 11155111,
  "commit": "1d2fb70"
}