{
  "transactions": [
    {
      "hash": "0x6290776238957f253c4881c98191a40c2e7976d4ed775f7c4a879c5a2850e9aa",
      "transactionType": "CALL",
      "contractName": null,
      "contractAddress": "0x8aafd3ede9adb0ff97c7aebce82a919afb1c8764",
      "function": "sell(uint256)",
      "arguments": [
        "743384719128445195401"
      ],
      "transaction": {
        "from": "0xc77f7fed3b5cc8249adc428c5f44c9063b9734b4",
        "to": "0x8aafd3ede9adb0ff97c7aebce82a919afb1c8764",
        "gas": "0x17270",
        "value": "0x0",
        "input": "0xe4849b320000000000000000000000000000000000000000000000284c890f6d20821489",
        "nonce": "0xf21",
        "chainId": "0xaa36a7"
      },
      "additionalContracts": [],
      "isFixedGasLimit": false
    }
  ],
  "receipts": [
    {
      "status": "0x1",
      "cumulativeGasUsed": "0xb34e1a",
      "logs": [
        {
          "address": "0x8aafd3ede9adb0ff97c7aebce82a919afb1c8764",
          "topics": [
            "0xddf252ad1be2c89b69c2b068fc378daa952ba7f163c4a11628f55a4df523b3ef",
            "0x000000000000000000000000c77f7fed3b5cc8249adc428c5f44c9063b9734b4",
            "0x0000000000000000000000000000000000000000000000000000000000000000"
          ],
          "data": "0x000000000000000000000000000000000000000000000027fa00cbb807ac0c2e",
          "blockHash": "0x25dc2c8790110085db304bcd5f69a6b9ea5d64d832dfb2ff0a099b848724159e",
          "blockNumber": "0x731572",
          "transactionHash": "0x6290776238957f253c4881c98191a40c2e7976d4ed775f7c4a879c5a2850e9aa",
          "transactionIndex": "0x66",
          "logIndex": "0x9d",
          "removed": false
        },
        {
          "address": "0x8aafd3ede9adb0ff97c7aebce82a919afb1c8764",
          "topics": [
            "0xddf252ad1be2c89b69c2b068fc378daa952ba7f163c4a11628f55a4df523b3ef",
            "0x000000000000000000000000c77f7fed3b5cc8249adc428c5f44c9063b9734b4",
            "0x000000000000000000000000c77f7fed3b5cc8249adc428c5f44c9063b9734b4"
          ],
          "data": "0x000000000000000000000000000000000000000000000000528843b518d6085b",
          "blockHash": "0x25dc2c8790110085db304bcd5f69a6b9ea5d64d832dfb2ff0a099b848724159e",
          "blockNumber": "0x731572",
          "transactionHash": "0x6290776238957f253c4881c98191a40c2e7976d4ed775f7c4a879c5a2850e9aa",
          "transactionIndex": "0x66",
          "logIndex": "0x9e",
          "removed": false
        },
        {
          "address": "0x8aafd3ede9adb0ff97c7aebce82a919afb1c8764",
          "topics": [
            "0x4afcb4a87cdbd9974efdb92ee48bc8d7cd0ae4bf217004db3d080cbaee652ca7"
          ],
          "data": "0x00000000000000000000000000000000000000000000000000000000678ffe040000000000000000000000000000000000000000000000000004bf376a1e2a670000000000000000000000000000000000000000000000000dc8216ff03d6be2",
          "blockHash": "0x25dc2c8790110085db304bcd5f69a6b9ea5d64d832dfb2ff0a099b848724159e",
          "blockNumber": "0x731572",
          "transactionHash": "0x6290776238957f253c4881c98191a40c2e7976d4ed775f7c4a879c5a2850e9aa",
          "transactionIndex": "0x66",
          "logIndex": "0x9f",
          "removed": false
        }
      ],
      "logsBloom": "0x00000000000000000000000000000000000000000600000000000000000000000000000000000000000000000000000000000000000000004000000000000000000000000000004000000008000000000000000000000000000000000000000000000000020000000000000000000800020000000000000000000010000000000000000000000000000000000000000000000000000000000000010000000000000000000000000000000000000000004000000000000000000000000000000000000002000000800000000000000000000000000000080000000000000020000000000000000000000000000000000000000000000000000000000000000000",
      "type": "0x2",
      "transactionHash": "0x6290776238957f253c4881c98191a40c2e7976d4ed775f7c4a879c5a2850e9aa",
      "transactionIndex": "0x66",
      "blockHash": "0x25dc2c8790110085db304bcd5f69a6b9ea5d64d832dfb2ff0a099b848724159e",
      "blockNumber": "0x731572",
      "gasUsed": "0xfd4b",
      "effectiveGasPrice": "0x93842e13",
      "from": "0xc77f7fed3b5cc8249adc428c5f44c9063b9734b4",
      "to": "0x8aafd3ede9adb0ff97c7aebce82a919afb1c8764",
      "contractAddress": null
    }
  ],
  "libraries": [],
  "pending": [],
  "returns": {},
  "timestamp": 1737489925,
  "chain": 11155111,
  "commit": "1d2fb70"
}