{
  "transactions": [
    {
      "hash": "0x3f97c027129c05d8eaab138a69fb6293ebce5735dcb922e8965f35e0cd16c7e8",
      "transactionType": "CALL",
      "contractName": null,
      "contractAddress": "0x270e88f8683660553e8ba4eb2ad7c91a1710d769",
      "function": "sell(uint256)",
      "arguments": [
        "721235162406787537912"
      ],
      "transaction": {
        "from": "0xc77f7fed3b5cc8249adc428c5f44c9063b9734b4",
        "to": "0x270e88f8683660553e8ba4eb2ad7c91a1710d769",
        "gas": "0x16fec",
        "value": "0x0",
        "input": "0xe4849b32000000000000000000000000000000000000000000000027192606f0f9bcdbf8",
        "nonce": "0x814",
        "chainId": "0xaa36a7"
      },
      "additionalContracts": [],
      "isFixedGasLimit": false
    }
  ],
  "receipts": [
    {
      "status": "0x1",
      "cumulativeGasUsed": "0x19ff016",
      "logs": [
        {
          "address": "0x270e88f8683660553e8ba4eb2ad7c91a1710d769",
          "topics": [
            "0xddf252ad1be2c89b69c2b068fc378daa952ba7f163c4a11628f55a4df523b3ef",
            "0x000000000000000000000000c77f7fed3b5cc8249adc428c5f44c9063b9734b4",
            "0x0000000000000000000000000000000000000000000000000000000000000000"
          ],
          "data": "0x000000000000000000000000000000000000000000000027192606f0f9bcdbf8",
          "blockHash": "0xfbfc20109f22f29d00926761d332cba98bc78525ad361c6eb8a99d593fb1f455",
          "blockNumber": "0x725557",
          "transactionHash": "0x3f97c027129c05d8eaab138a69fb6293ebce5735dcb922e8965f35e0cd16c7e8",
          "transactionIndex": "0x5d",
          "logIndex": "0x72",
          "removed": false
        },
        {
          "address": "0x270e88f8683660553e8ba4eb2ad7c91a1710d769",
          "topics": [
            "0x4afcb4a87cdbd9974efdb92ee48bc8d7cd0ae4bf217004db3d080cbaee652ca7"
          ],
          "data": "0x000000000000000000000000000000000000000000000000000000006786f21c0000000000000000000000000000000000000000000000000004e47e4e8b5dd00000000000000000000000000000000000000000000000000dc8268ea8760b80",
          "blockHash": "0xfbfc20109f22f29d00926761d332cba98bc78525ad361c6eb8a99d593fb1f455",
          "blockNumber": "0x725557",
          "transactionHash": "0x3f97c027129c05d8eaab138a69fb6293ebce5735dcb922e8965f35e0cd16c7e8",
          "transactionIndex": "0x5d",
          "logIndex": "0x73",
          "removed": false
        }
      ],
      "logsBloom": "0x00000000000000000000000000000000000000000000000000000000000000000000000000000000000000000000000020000000000000004000000000000000000000000000000000000008000000000000000000000000000000000000000000000000020000000000000000000800020000000000000000000010000000000000000000010000000000000000000000000000000000000000010000000000000000000000000000000000000000004000000000000000000000000000000000000002000000800000000000000000000000000000080000008000000020000000000000000000000000000000000000000000000000000000000000000000",
      "type": "0x2",
      "transactionHash": "0x3f97c027129c05d8eaab138a69fb6293ebce5735dcb922e8965f35e0cd16c7e8",
      "transactionIndex": "0x5d",
      "blockHash": "0xfbfc20109f22f29d00926761d332cba98bc78525ad361c6eb8a99d593fb1f455",
      "blockNumber": "0x725557",
      "gasUsed": "0xfb93",
      "effectiveGasPrice": "0x8a74a1c2",
      "from": "0xc77f7fed3b5cc8249adc428c5f44c9063b9734b4",
      "to": "0x270e88f8683660553e8ba4eb2ad7c91a1710d769",
      "contractAddress": null
    }
  ],
  "libraries": [],
  "pending": [],
  "returns": {},
  "timestamp": 1736897052,
  "chain": 11155111,
  "commit": "51a374b"
}