{
  "transactions": [
    {
      "hash": "0x07dec342b87a0042438eeaea39919d37260d561fd7c0d13a61853620f0b2ed9c",
      "transactionType": "CALL",
      "contractName": null,
      "contractAddress": "0xbf4a322f1496e5c3d34a9bcdb4c60567b38c7de2",
      "function": "buy(address)",
      "arguments": [
        "0xC77f7fed3b5Cc8249aDc428c5F44C9063B9734b4"
      ],
      "transaction": {
        "from": "0xc77f7fed3b5cc8249adc428c5f44c9063b9734b4",
        "to": "0xbf4a322f1496e5c3d34a9bcdb4c60567b38c7de2",
        "gas": "0x1b309",
        "value": "0xde0b6b3a7640000",
        "input": "0xf088d547000000000000000000000000c77f7fed3b5cc8249adc428c5f44c9063b9734b4",
        "nonce": "0xcb6",
        "chainId": "0xaa36a7"
      },
      "additionalContracts": [],
      "isFixedGasLimit": false
    }
  ],
  "receipts": [
    {
      "status": "0x1",
      "cumulativeGasUsed": "0x79f75f",
      "logs": [
        {
          "address": "0xbf4a322f1496e5c3d34a9bcdb4c60567b38c7de2",
          "topics": [
            "0xddf252ad1be2c89b69c2b068fc378daa952ba7f163c4a11628f55a4df523b3ef",
            "0x0000000000000000000000000000000000000000000000000000000000000000",
            "0x000000000000000000000000c77f7fed3b5cc8249adc428c5f44c9063b9734b4"
          ],
          "data": "0x000000000000000000000000000000000000000000000034d99eb83ccc74b560",
          "blockHash": "0x173db4f12d38f17e4264878d0a2efd4bcab003f2539928458e06389a6b3e1bdf",
          "blockNumber": "0x725d04",
          "transactionHash": "0x07dec342b87a0042438eeaea39919d37260d561fd7c0d13a61853620f0b2ed9c",
          "transactionIndex": "0x49",
          "logIndex": "0x5d",
          "removed": false
        },
        {
          "address": "0xbf4a322f1496e5c3d34a9bcdb4c60567b38c7de2",
          "topics": [
            "0xddf252ad1be2c89b69c2b068fc378daa952ba7f163c4a11628f55a4df523b3ef",
            "0x0000000000000000000000000000000000000000000000000000000000000000",
            "0x000000000000000000000000c77f7fed3b5cc8249adc428c5f44c9063b9734b4"
          ],
          "data": "0x000000000000000000000000000000000000000000000000290a361fca1390c2",
          "blockHash": "0x173db4f12d38f17e4264878d0a2efd4bcab003f2539928458e06389a6b3e1bdf",
          "blockNumber": "0x725d04",
          "transactionHash": "0x07dec342b87a0042438eeaea39919d37260d561fd7c0d13a61853620f0b2ed9c",
          "transactionIndex": "0x49",
          "logIndex": "0x5e",
          "removed": false
        },
        {
          "address": "0xbf4a322f1496e5c3d34a9bcdb4c60567b38c7de2",
          "topics": [
            "0x4afcb4a87cdbd9974efdb92ee48bc8d7cd0ae4bf217004db3d080cbaee652ca7"
          ],
          "data": "0x0000000000000000000000000000000000000000000000000000000067874ea400000000000000000000000000000000000000000000000000039b945aac65360000000000000000000000000000000000000000000000000de0b6b3a7640000",
          "blockHash": "0x173db4f12d38f17e4264878d0a2efd4bcab003f2539928458e06389a6b3e1bdf",
          "blockNumber": "0x725d04",
          "transactionHash": "0x07dec342b87a0042438eeaea39919d37260d561fd7c0d13a61853620f0b2ed9c",
          "transactionIndex": "0x49",
          "logIndex": "0x5f",
          "removed": false
        }
      ],
      "logsBloom": "0x00000000000000000000000000000000000000000000000000000000000000000000000000000000000000000000000000000000000000004000000000000000000000000000000000000008000000000000001000000000000000000000000000000000020000000000000000000800020000000000000000000010000000000000000000000000000000000000000000000000000008000000010000000000000000000000000000000000000000004000000000000000000000000000000000000002000000800000000000001000000000000000080000000000000020000000000000000000000000000000000000000000000000000000000000000000",
      "type": "0x2",
      "transactionHash": "0x07dec342b87a0042438eeaea39919d37260d561fd7c0d13a61853620f0b2ed9c",
      "transactionIndex": "0x49",
      "blockHash": "0x173db4f12d38f17e4264878d0a2efd4bcab003f2539928458e06389a6b3e1bdf",
      "blockNumber": "0x725d04",
      "gasUsed": "0x13af6",
      "effectiveGasPrice": "0x21d92b64a",
      "from": "0xc77f7fed3b5cc8249adc428c5f44c9063b9734b4",
      "to": "0xbf4a322f1496e5c3d34a9bcdb4c60567b38c7de2",
      "contractAddress": null
    }
  ],
  "libraries": [],
  "pending": [],
  "returns": {},
  "timestamp": 1736920742,
  "chain": 11155111,
  "commit": "51a374b"
}