{
  "transactions": [
    {
      "hash": "0x05a528a1b33a9235af488835dc200a839d626a869721f4c18e76561ec2dbbfe0",
      "transactionType": "CALL",
      "contractName": null,
      "contractAddress": "0xd7bc75898e513accccf720a874d44dab5a4b6223",
      "function": "buy(address)",
      "arguments": [
        "0xC77f7fed3b5Cc8249aDc428c5F44C9063B9734b4"
      ],
      "transaction": {
        "from": "0xc77f7fed3b5cc8249adc428c5f44c9063b9734b4",
        "to": "0xd7bc75898e513accccf720a874d44dab5a4b6223",
        "gas": "0x1b30c",
        "value": "0x2386f26fc10000",
        "input": "0xf088d547000000000000000000000000c77f7fed3b5cc8249adc428c5f44c9063b9734b4",
        "nonce": "0x9a",
        "chainId": "0xaa36a7"
      },
      "additionalContracts": [],
      "isFixedGasLimit": false
    }
  ],
  "receipts": [
    {
      "status": "0x1",
      "cumulativeGasUsed": "0x86ec31",
      "logs": [
        {
          "address": "0xd7bc75898e513accccf720a874d44dab5a4b6223",
          "topics": [
            "0xddf252ad1be2c89b69c2b068fc378daa952ba7f163c4a11628f55a4df523b3ef",
            "0x0000000000000000000000000000000000000000000000000000000000000000",
            "0x000000000000000000000000c77f7fed3b5cc8249adc428c5f44c9063b9734b4"
          ],
          "data": "0x0000000000000000000000000000000000000000000000008963bbf0f79a3550",
          "blockHash": "0x777964bf4810d49bec3c6e95575ce2cbff024c3866e056f7189f823dcf702d1f",
          "blockNumber": "0x72390c",
          "transactionHash": "0x05a528a1b33a9235af488835dc200a839d626a869721f4c18e76561ec2dbbfe0",
          "transactionIndex": "0x49",
          "logIndex": "0x8c",
          "removed": false
        },
        {
          "address": "0xd7bc75898e513accccf720a874d44dab5a4b6223",
          "topics": [
            "0xddf252ad1be2c89b69c2b068fc378daa952ba7f163c4a11628f55a4df523b3ef",
            "0x0000000000000000000000000000000000000000000000000000000000000000",
            "0x000000000000000000000000c77f7fed3b5cc8249adc428c5f44c9063b9734b4"
          ],
          "data": "0x000000000000000000000000000000000000000000000000006ab00d1fd9ebad",
          "blockHash": "0x777964bf4810d49bec3c6e95575ce2cbff024c3866e056f7189f823dcf702d1f",
          "blockNumber": "0x72390c",
          "transactionHash": "0x05a528a1b33a9235af488835dc200a839d626a869721f4c18e76561ec2dbbfe0",
          "transactionIndex": "0x49",
          "logIndex": "0x8d",
          "removed": false
        },
        {
          "address": "0xd7bc75898e513accccf720a874d44dab5a4b6223",
          "topics": [
            "0x4afcb4a87cdbd9974efdb92ee48bc8d7cd0ae4bf217004db3d080cbaee652ca7"
          ],
          "data": "0x0000000000000000000000000000000000000000000000000000000067859dd800000000000000000000000000000000000000000000000000038d7f834ffcb4000000000000000000000000000000000000000000000000002386f26fc10000",
          "blockHash": "0x777964bf4810d49bec3c6e95575ce2cbff024c3866e056f7189f823dcf702d1f",
          "blockNumber": "0x72390c",
          "transactionHash": "0x05a528a1b33a9235af488835dc200a839d626a869721f4c18e76561ec2dbbfe0",
          "transactionIndex": "0x49",
          "logIndex": "0x8e",
          "removed": false
        }
      ],
      "logsBloom": "0x00000000000000000000000000000000000000000000000000000000000000000000000000000000000000000000000000000000000000004000000000000000000000000000000000000008000000000000000000000000000000000000000000000000020000000000000000000800020000000000000000000010000000000000000000000000000000000000000000000000000000000000010000000000000000000000000000000000000000004000001000000000000000000000000000000002000000800000000000004000000000000000080000000000000020000000000000000000000000000000000000000000080000000000000000000000",
      "type": "0x2",
      "transactionHash": "0x05a528a1b33a9235af488835dc200a839d626a869721f4c18e76561ec2dbbfe0",
      "transactionIndex": "0x49",
      "blockHash": "0x777964bf4810d49bec3c6e95575ce2cbff024c3866e056f7189f823dcf702d1f",
      "blockNumber": "0x72390c",
      "gasUsed": "0x13af8",
      "effectiveGasPrice": "0xa0a35d",
      "from": "0xc77f7fed3b5cc8249adc428c5f44c9063b9734b4",
      "to": "0xd7bc75898e513accccf720a874d44dab5a4b6223",
      "contractAddress": null
    }
  ],
  "libraries": [],
  "pending": [],
  "returns": {},
  "timestamp": 1736809945,
  "chain": 11155111,
  "commit": "51a374b"
}