{
  "transactions": [
    {
      "hash": "0xae06f1d80bce47637c35ff186d271c3d55a6da482ecbb6277f4eac0c2e5b4312",
      "transactionType": "CALL",
      "contractName": null,
      "contractAddress": "0x8aafd3ede9adb0ff97c7aebce82a919afb1c8764",
      "function": "sell(uint256)",
      "arguments": [
        "366925905451354"
      ],
      "transaction": {
        "from": "0xc77f7fed3b5cc8249adc428c5f44c9063b9734b4",
        "to": "0x8aafd3ede9adb0ff97c7aebce82a919afb1c8764",
        "gas": "0x1724d",
        "value": "0x0",
        "input": "0xe4849b3200000000000000000000000000000000000000000000000000014db79840d95a",
        "nonce": "0x1030",
        "chainId": "0xaa36a7"
      },
      "additionalContracts": [],
      "isFixedGasLimit": false
    }
  ],
  "receipts": [
    {
      "status": "0x1",
      "cumulativeGasUsed": "0xba2c67",
      "logs": [
        {
          "address": "0x8aafd3ede9adb0ff97c7aebce82a919afb1c8764",
          "topics": [
            "0xddf252ad1be2c89b69c2b068fc378daa952ba7f163c4a11628f55a4df523b3ef",
            "0x000000000000000000000000c77f7fed3b5cc8249adc428c5f44c9063b9734b4",
            "0x0000000000000000000000000000000000000000000000000000000000000000"
          ],
          "data": "0x00000000000000000000000000000000000000000000000000014b0c2458e800",
          "blockHash": "0x30af589a4ac0a048a9ec896df0ead371f63a8e2baf54feeb9fc8cf41d8504222",
          "blockNumber": "0x7316ab",
          "transactionHash": "0xae06f1d80bce47637c35ff186d271c3d55a6da482ecbb6277f4eac0c2e5b4312",
          "transactionIndex": "0x88",
          "logIndex": "0x85",
          "removed": false
        },
        {
          "address": "0x8aafd3ede9adb0ff97c7aebce82a919afb1c8764",
          "topics": [
            "0xddf252ad1be2c89b69c2b068fc378daa952ba7f163c4a11628f55a4df523b3ef",
            "0x000000000000000000000000c77f7fed3b5cc8249adc428c5f44c9063b9734b4",
            "0x000000000000000000000000c77f7fed3b5cc8249adc428c5f44c9063b9734b4"
          ],
          "data": "0x000000000000000000000000000000000000000000000000000002ab73e7f15a",
          "blockHash": "0x30af589a4ac0a048a9ec896df0ead371f63a8e2baf54feeb9fc8cf41d8504222",
          "blockNumber": "0x7316ab",
          "transactionHash": "0xae06f1d80bce47637c35ff186d271c3d55a6da482ecbb6277f4eac0c2e5b4312",
          "transactionIndex": "0x88",
          "logIndex": "0x86",
          "removed": false
        },
        {
          "address": "0x8aafd3ede9adb0ff97c7aebce82a919afb1c8764",
          "topics": [
            "0x4afcb4a87cdbd9974efdb92ee48bc8d7cd0ae4bf217004db3d080cbaee652ca7"
          ],
          "data": "0x0000000000000000000000000000000000000000000000000000000067900cb00000000000000000000000000000000000000000000000000004eda90c28ebaa0000000000000000000000000000000000000000000000000000007682f6f81e",
          "blockHash": "0x30af589a4ac0a048a9ec896df0ead371f63a8e2baf54feeb9fc8cf41d8504222",
          "blockNumber": "0x7316ab",
          "transactionHash": "0xae06f1d80bce47637c35ff186d271c3d55a6da482ecbb6277f4eac0c2e5b4312",
          "transactionIndex": "0x88",
          "logIndex": "0x87",
          "removed": false
        }
      ],
      "logsBloom": "0x00000000000000000000000000000000000000000600000000000000000000000000000000000000000000000000000000000000000000004000000000000000000000000000004000000008000000000000000000000000000000000000000000000000020000000000000000000800020000000000000000000010000000000000000000000000000000000000000000000000000000000000010000000000000000000000000000000000000000004000000000000000000000000000000000000002000000800000000000000000000000000000080000000000000020000000000000000000000000000000000000000000000000000000000000000000",
      "type": "0x2",
      "transactionHash": "0xae06f1d80bce47637c35ff186d271c3d55a6da482ecbb6277f4eac0c2e5b4312",
      "transactionIndex": "0x88",
      "blockHash": "0x30af589a4ac0a048a9ec896df0ead371f63a8e2baf54feeb9fc8cf41d8504222",
      "blockNumber": "0x7316ab",
      "gasUsed": "0xfd33",
      "effectiveGasPrice": "0x4542ff63",
      "from": "0xc77f7fed3b5cc8249adc428c5f44c9063b9734b4",
      "to": "0x8aafd3ede9adb0ff97c7aebce82a919afb1c8764",
      "contractAddress": null
    }
  ],
  "libraries": [],
  "pending": [],
  "returns": {},
  "timestamp": 1737493683,
  "chain": 11155111,
  "commit": "1d2fb70"
}