{
  "transactions": [
    {
      "hash": "0x32429d1724466625553e6cdbbab544c8f7e447369656ab6de11d942991c75854",
      "transactionType": "CALL",
      "contractName": null,
      "contractAddress": "0x270e88f8683660553e8ba4eb2ad7c91a1710d769",
      "function": "buy(address)",
      "arguments": [
        "0xC77f7fed3b5Cc8249aDc428c5F44C9063B9734b4"
      ],
      "transaction": {
        "from": "0xc77f7fed3b5cc8249adc428c5f44c9063b9734b4",
        "to": "0x270e88f8683660553e8ba4eb2ad7c91a1710d769",
        "gas": "0x1b30c",
        "value": "0xde0b6b3a7640000",
        "input": "0xf088d547000000000000000000000000c77f7fed3b5cc8249adc428c5f44c9063b9734b4",
        "nonce": "0x8a5",
        "chainId": "0xaa36a7"
      },
      "additionalContracts": [],
      "isFixedGasLimit": false
    }
  ],
  "receipts": [
    {
      "status": "0x1",
      "cumulativeGasUsed": "0xc96a6b",
      "logs": [
        {
          "address": "0x270e88f8683660553e8ba4eb2ad7c91a1710d769",
          "topics": [
            "0xddf252ad1be2c89b69c2b068fc378daa952ba7f163c4a11628f55a4df523b3ef",
            "0x0000000000000000000000000000000000000000000000000000000000000000",
            "0x000000000000000000000000c77f7fed3b5cc8249adc428c5f44c9063b9734b4"
          ],
          "data": "0x000000000000000000000000000000000000000000000026534d59edc259e6e1",
          "blockHash": "0x562bf0c63037dd1f1a6ddcfc9c4a7166a55272e3d276ebd1ebb97f1b3ec49d2f",
          "blockNumber": "0x725603",
          "transactionHash": "0x32429d1724466625553e6cdbbab544c8f7e447369656ab6de11d942991c75854",
          "transactionIndex": "0x47",
          "logIndex": "0x136",
          "removed": false
        },
        {
          "address": "0x270e88f8683660553e8ba4eb2ad7c91a1710d769",
          "topics": [
            "0xddf252ad1be2c89b69c2b068fc378daa952ba7f163c4a11628f55a4df523b3ef",
            "0x0000000000000000000000000000000000000000000000000000000000000000",
            "0x000000000000000000000000c77f7fed3b5cc8249adc428c5f44c9063b9734b4"
          ],
          "data": "0x0000000000000000000000000000000000000000000000001dc2cf8f908d1adc",
          "blockHash": "0x562bf0c63037dd1f1a6ddcfc9c4a7166a55272e3d276ebd1ebb97f1b3ec49d2f",
          "blockNumber": "0x725603",
          "transactionHash": "0x32429d1724466625553e6cdbbab544c8f7e447369656ab6de11d942991c75854",
          "transactionIndex": "0x47",
          "logIndex": "0x137",
          "removed": false
        },
        {
          "address": "0x270e88f8683660553e8ba4eb2ad7c91a1710d769",
          "topics": [
            "0x4afcb4a87cdbd9974efdb92ee48bc8d7cd0ae4bf217004db3d080cbaee652ca7"
          ],
          "data": "0x000000000000000000000000000000000000000000000000000000006786fa2c0000000000000000000000000000000000000000000000000004f9b15d36d4670000000000000000000000000000000000000000000000000de0b6b3a7640000",
          "blockHash": "0x562bf0c63037dd1f1a6ddcfc9c4a7166a55272e3d276ebd1ebb97f1b3ec49d2f",
          "blockNumber": "0x725603",
          "transactionHash": "0x32429d1724466625553e6cdbbab544c8f7e447369656ab6de11d942991c75854",
          "transactionIndex": "0x47",
          "logIndex": "0x138",
          "removed": false
        }
      ],
      "logsBloom": "0x00000000000000000000000000000000000000000000000000000000000000000000000000000000000000000000000020000000000000004000000000000000000000000000000000000008000000000000000000000000000000000000000000000000020000000000000000000800020000000000000000000010000000000000000000010000000000000000000000000000000000000000010000000000000000000000000000000000000000004000000000000000000000000000000000000002000000800000000000000000000000000000080000008000000020000000000000000000000000000000000000000000000000000000000000000000",
      "type": "0x2",
      "transactionHash": "0x32429d1724466625553e6cdbbab544c8f7e447369656ab6de11d942991c75854",
      "transactionIndex": "0x47",
      "blockHash": "0x562bf0c63037dd1f1a6ddcfc9c4a7166a55272e3d276ebd1ebb97f1b3ec49d2f",
      "blockNumber": "0x725603",
      "gasUsed": "0x13af8",
      "effectiveGasPrice": "0x8eea3953",
      "from": "0xc77f7fed3b5cc8249adc428c5f44c9063b9734b4",
      "to": "0x270e88f8683660553e8ba4eb2ad7c91a1710d769",
      "contractAddress": null
    }
  ],
  "libraries": [],
  "pending": [],
  "returns": {},
  "timestamp": 1736899117,
  "chain": 11155111,
  "commit": "51a374b"
}