{
  "transactions": [
    {
      "hash": "0xd8292a2741e6d4fc79e0a0ee6b5b6228703ac73d33ec1d67e286959fdb5d4e4f",
      "transactionType": "CALL",
      "contractName": null,
      "contractAddress": "0xbf4a322f1496e5c3d34a9bcdb4c60567b38c7de2",
      "function": "sell(uint256)",
      "arguments": [
        "990873237614969137246"
      ],
      "transaction": {
        "from": "0xc77f7fed3b5cc8249adc428c5f44c9063b9734b4",
        "to": "0xbf4a322f1496e5c3d34a9bcdb4c60567b38c7de2",
        "gas": "0x16fea",
        "value": "0x0",
        "input": "0xe4849b32000000000000000000000000000000000000000000000035b720e7bd4976a85e",
        "nonce": "0x8f7",
        "chainId": "0xaa36a7"
      },
      "additionalContracts": [],
      "isFixedGasLimit": false
    }
  ],
  "receipts": [
    {
      "status": "0x1",
      "cumulativeGasUsed": "0xb4a818",
      "logs": [
        {
          "address": "0xbf4a322f1496e5c3d34a9bcdb4c60567b38c7de2",
          "topics": [
            "0xddf252ad1be2c89b69c2b068fc378daa952ba7f163c4a11628f55a4df523b3ef",
            "0x000000000000000000000000c77f7fed3b5cc8249adc428c5f44c9063b9734b4",
            "0x0000000000000000000000000000000000000000000000000000000000000000"
          ],
          "data": "0x000000000000000000000000000000000000000000000035b720e7bd4976a85e",
          "blockHash": "0xbadcbd7bc3afe43300eb8934c7f211dc9109844b399c6d0c640e0d892fc1a321",
          "blockNumber": "0x72586f",
          "transactionHash": "0xd8292a2741e6d4fc79e0a0ee6b5b6228703ac73d33ec1d67e286959fdb5d4e4f",
          "transactionIndex": "0x48",
          "logIndex": "0x5e",
          "removed": false
        },
        {
          "address": "0xbf4a322f1496e5c3d34a9bcdb4c60567b38c7de2",
          "topics": [
            "0x4afcb4a87cdbd9974efdb92ee48bc8d7cd0ae4bf217004db3d080cbaee652ca7"
          ],
          "data": "0x000000000000000000000000000000000000000000000000000000006787176000000000000000000000000000000000000000000000000000038f798cd6d4ec0000000000000000000000000000000000000000000000000dc7e3fb58b78057",
          "blockHash": "0xbadcbd7bc3afe43300eb8934c7f211dc9109844b399c6d0c640e0d892fc1a321",
          "blockNumber": "0x72586f",
          "transactionHash": "0xd8292a2741e6d4fc79e0a0ee6b5b6228703ac73d33ec1d67e286959fdb5d4e4f",
          "transactionIndex": "0x48",
          "logIndex": "0x5f",
          "removed": false
        }
      ],
      "logsBloom": "0x00000000000000000000000000000000000000000000000000000000000000000000000000000000000000000000000000000000000000004000000000000000000000000000000000000008000000000000001000000000000000000000000000000000020000000000000000000800020000000000000000000010000000000000000000000000000000000000000000000000000008000000010000000000000000000000000000000000000000004000000000000000000000000000000000000002000000800000000000001000000000000000080000000000000020000000000000000000000000000000000000000000000000000000000000000000",
      "type": "0x2",
      "transactionHash": "0xd8292a2741e6d4fc79e0a0ee6b5b6228703ac73d33ec1d67e286959fdb5d4e4f",
      "transactionIndex": "0x48",
      "blockHash": "0xbadcbd7bc3afe43300eb8934c7f211dc9109844b399c6d0c640e0d892fc1a321",
      "blockNumber": "0x72586f",
      "gasUsed": "0xfb91",
      "effectiveGasPrice": "0x26abb2bc",
      "from": "0xc77f7fed3b5cc8249adc428c5f44c9063b9734b4",
      "to": "0xbf4a322f1496e5c3d34a9bcdb4c60567b38c7de2",
      "contractAddress": null
    }
  ],
  "libraries": [],
  "pending": [],
  "returns": {},
  "timestamp": 1736906594,
  "chain": 11155111,
  "commit": "51a374b"
}