{
  "transactions": [
    {
      "hash": "0x5017072c12d624286da52872a3a81728536b0ae2359a27018cce3fa8701aa676",
      "transactionType": "CALL",
      "contractName": null,
      "contractAddress": "0xbf4a322f1496e5c3d34a9bcdb4c60567b38c7de2",
      "function": "buy(address)",
      "arguments": [
        "0xC77f7fed3b5Cc8249aDc428c5F44C9063B9734b4"
      ],
      "transaction": {
        "from": "0xc77f7fed3b5cc8249adc428c5f44c9063b9734b4",
        "to": "0xbf4a322f1496e5c3d34a9bcdb4c60567b38c7de2",
        "gas": "0x1b309",
        "value": "0xde0b6b3a7640000",
        "input": "0xf088d547000000000000000000000000c77f7fed3b5cc8249adc428c5f44c9063b9734b4",
        "nonce": "0xc2a",
        "chainId": "0xaa36a7"
      },
      "additionalContracts": [],
      "isFixedGasLimit": false
    }
  ],
  "receipts": [
    {
      "status": "0x1",
      "cumulativeGasUsed": "0x14bdc47",
      "logs": [
        {
          "address": "0xbf4a322f1496e5c3d34a9bcdb4c60567b38c7de2",
          "topics": [
            "0xddf252ad1be2c89b69c2b068fc378daa952ba7f163c4a11628f55a4df523b3ef",
            "0x0000000000000000000000000000000000000000000000000000000000000000",
            "0x000000000000000000000000c77f7fed3b5cc8249adc428c5f44c9063b9734b4"
          ],
          "data": "0x000000000000000000000000000000000000000000000034f3906a7bec088c10",
          "blockHash": "0x714e4fef02fa1931cc7cfce6660956d05f6e84f65615db4ef64f36c5cd31863f",
          "blockNumber": "0x725c5c",
          "transactionHash": "0x5017072c12d624286da52872a3a81728536b0ae2359a27018cce3fa8701aa676",
          "transactionIndex": "0x5d",
          "logIndex": "0x72",
          "removed": false
        },
        {
          "address": "0xbf4a322f1496e5c3d34a9bcdb4c60567b38c7de2",
          "topics": [
            "0xddf252ad1be2c89b69c2b068fc378daa952ba7f163c4a11628f55a4df523b3ef",
            "0x0000000000000000000000000000000000000000000000000000000000000000",
            "0x000000000000000000000000c77f7fed3b5cc8249adc428c5f44c9063b9734b4"
          ],
          "data": "0x000000000000000000000000000000000000000000000000291e5ba0bceab1cd",
          "blockHash": "0x714e4fef02fa1931cc7cfce6660956d05f6e84f65615db4ef64f36c5cd31863f",
          "blockNumber": "0x725c5c",
          "transactionHash": "0x5017072c12d624286da52872a3a81728536b0ae2359a27018cce3fa8701aa676",
          "transactionIndex": "0x5d",
          "logIndex": "0x73",
          "removed": false
        },
        {
          "address": "0xbf4a322f1496e5c3d34a9bcdb4c60567b38c7de2",
          "topics": [
            "0x4afcb4a87cdbd9974efdb92ee48bc8d7cd0ae4bf217004db3d080cbaee652ca7"
          ],
          "data": "0x00000000000000000000000000000000000000000000000000000000678746ac000000000000000000000000000000000000000000000000000399cfd73eeff00000000000000000000000000000000000000000000000000de0b6b3a7640000",
          "blockHash": "0x714e4fef02fa1931cc7cfce6660956d05f6e84f65615db4ef64f36c5cd31863f",
          "blockNumber": "0x725c5c",
          "transactionHash": "0x5017072c12d624286da52872a3a81728536b0ae2359a27018cce3fa8701aa676",
          "transactionIndex": "0x5d",
          "logIndex": "0x74",
          "removed": false
        }
      ],
      "logsBloom": "0x00000000000000000000000000000000000000000000000000000000000000000000000000000000000000000000000000000000000000004000000000000000000000000000000000000008000000000000001000000000000000000000000000000000020000000000000000000800020000000000000000000010000000000000000000000000000000000000000000000000000008000000010000000000000000000000000000000000000000004000000000000000000000000000000000000002000000800000000000001000000000000000080000000000000020000000000000000000000000000000000000000000000000000000000000000000",
      "type": "0x2",
      "transactionHash": "0x5017072c12d624286da52872a3a81728536b0ae2359a27018cce3fa8701aa676",
      "transactionIndex": "0x5d",
      "blockHash": "0x714e4fef02fa1931cc7cfce6660956d05f6e84f65615db4ef64f36c5cd31863f",
      "blockNumber": "0x725c5c",
      "gasUsed": "0x13af6",
      "effectiveGasPrice": "0x18641597f",
      "from": "0xc77f7fed3b5cc8249adc428c5f44c9063b9734b4",
      "to": "0xbf4a322f1496e5c3d34a9bcdb4c60567b38c7de2",
      "contractAddress": null
    }
  ],
  "libraries": [],
  "pending": [],
  "returns": {},
  "timestamp": 1736918701,
  "chain": 11155111,
  "commit": "51a374b"
}