{
  "transactions": [
    {
      "hash": "0x45a859705899fc562f8cefdd05ecf227f379b5cb4652bba9f03cce4d7aa65363",
      "transactionType": "CALL",
      "contractName": null,
      "contractAddress": "0x8aafd3ede9adb0ff97c7aebce82a919afb1c8764",
      "function": "sell(uint256)",
      "arguments": [
        "24426902055"
      ],
      "transaction": {
        "from": "0xc77f7fed3b5cc8249adc428c5f44c9063b9734b4",
        "to": "0x8aafd3ede9adb0ff97c7aebce82a919afb1c8764",
        "gas": "0x1722a",
        "value": "0x0",
        "input": "0xe4849b3200000000000000000000000000000000000000000000000000000005aff4f227",
        "nonce": "0xf0f",
        "chainId": "0xaa36a7"
      },
      "additionalContracts": [],
      "isFixedGasLimit": false
    }
  ],
  "receipts": [
    {
      "status": "0x1",
      "cumulativeGasUsed": "0xfc55fa",
      "logs": [
        {
          "address": "0x8aafd3ede9adb0ff97c7aebce82a919afb1c8764",
          "topics": [
            "0xddf252ad1be2c89b69c2b068fc378daa952ba7f163c4a11628f55a4df523b3ef",
            "0x000000000000000000000000c77f7fed3b5cc8249adc428c5f44c9063b9734b4",
            "0x0000000000000000000000000000000000000000000000000000000000000000"
          ],
          "data": "0x00000000000000000000000000000000000000000000000000000005a44f2577",
          "blockHash": "0x48f024f01d553ce8d9a379490a2b3b4af40030942dac79e7959b0a393ae2d709",
          "blockNumber": "0x731488",
          "transactionHash": "0x45a859705899fc562f8cefdd05ecf227f379b5cb4652bba9f03cce4d7aa65363",
          "transactionIndex": "0x92",
          "logIndex": "0xda",
          "removed": false
        },
        {
          "address": "0x8aafd3ede9adb0ff97c7aebce82a919afb1c8764",
          "topics": [
            "0xddf252ad1be2c89b69c2b068fc378daa952ba7f163c4a11628f55a4df523b3ef",
            "0x000000000000000000000000c77f7fed3b5cc8249adc428c5f44c9063b9734b4",
            "0x000000000000000000000000c77f7fed3b5cc8249adc428c5f44c9063b9734b4"
          ],
          "data": "0x000000000000000000000000000000000000000000000000000000000ba5ccb0",
          "blockHash": "0x48f024f01d553ce8d9a379490a2b3b4af40030942dac79e7959b0a393ae2d709",
          "blockNumber": "0x731488",
          "transactionHash": "0x45a859705899fc562f8cefdd05ecf227f379b5cb4652bba9f03cce4d7aa65363",
          "transactionIndex": "0x92",
          "logIndex": "0xdb",
          "removed": false
        },
        {
          "address": "0x8aafd3ede9adb0ff97c7aebce82a919afb1c8764",
          "topics": [
            "0x4afcb4a87cdbd9974efdb92ee48bc8d7cd0ae4bf217004db3d080cbaee652ca7"
          ],
          "data": "0x00000000000000000000000000000000000000000000000000000000678ff30c0000000000000000000000000000000000000000000000000004bbf0bfdff1600000000000000000000000000000000000000000000000000000000001f0abff",
          "blockHash": "0x48f024f01d553ce8d9a379490a2b3b4af40030942dac79e7959b0a393ae2d709",
          "blockNumber": "0x731488",
          "transactionHash": "0x45a859705899fc562f8cefdd05ecf227f379b5cb4652bba9f03cce4d7aa65363",
          "transactionIndex": "0x92",
          "logIndex": "0xdc",
          "removed": false
        }
      ],
      "logsBloom": "0x00000000000000000000000000000000000000000600000000000000000000000000000000000000000000000000000000000000000000004000000000000000000000000000004000000008000000000000000000000000000000000000000000000000020000000000000000000800020000000000000000000010000000000000000000000000000000000000000000000000000000000000010000000000000000000000000000000000000000004000000000000000000000000000000000000002000000800000000000000000000000000000080000000000000020000000000000000000000000000000000000000000000000000000000000000000",
      "type": "0x2",
      "transactionHash": "0x45a859705899fc562f8cefdd05ecf227f379b5cb4652bba9f03cce4d7aa65363",
      "transactionIndex": "0x92",
      "blockHash": "0x48f024f01d553ce8d9a379490a2b3b4af40030942dac79e7959b0a393ae2d709",
      "blockNumber": "0x731488",
      "gasUsed": "0xfd1b",
      "effectiveGasPrice": "0x8e2f03cb",
      "from": "0xc77f7fed3b5cc8249adc428c5f44c9063b9734b4",
      "to": "0x8aafd3ede9adb0ff97c7aebce82a919afb1c8764",
      "contractAddress": null
    }
  ],
  "libraries": [],
  "pending": [],
  "returns": {},
  "timestamp": 1737487118,
  "chain": 11155111,
  "commit": "51a374b"
}