{
  "transactions": [
    {
      "hash": "0xf62ae304539e24801bd4c30fa1ab375bfa51ee83cb5f1628579537fb7e044e7a",
      "transactionType": "CALL",
      "contractName": null,
      "contractAddress": "0x270e88f8683660553e8ba4eb2ad7c91a1710d769",
      "function": "sell(uint256)",
      "arguments": [
        "957580307052152613552"
      ],
      "transaction": {
        "from": "0xc77f7fed3b5cc8249adc428c5f44c9063b9734b4",
        "to": "0x270e88f8683660553e8ba4eb2ad7c91a1710d769",
        "gas": "0x16fec",
        "value": "0x0",
        "input": "0xe4849b32000000000000000000000000000000000000000000000033e918a7c93909eab0",
        "nonce": "0x5bb",
        "chainId": "0xaa36a7"
      },
      "additionalContracts": [],
      "isFixedGasLimit": false
    }
  ],
  "receipts": [
    {
      "status": "0x1",
      "cumulativeGasUsed": "0x178148a",
      "logs": [
        {
          "address": "0x270e88f8683660553e8ba4eb2ad7c91a1710d769",
          "topics": [
            "0xddf252ad1be2c89b69c2b068fc378daa952ba7f163c4a11628f55a4df523b3ef",
            "0x000000000000000000000000c77f7fed3b5cc8249adc428c5f44c9063b9734b4",
            "0x0000000000000000000000000000000000000000000000000000000000000000"
          ],
          "data": "0x000000000000000000000000000000000000000000000033e918a7c93909eab0",
          "blockHash": "0x23b8b9880d67b42b3d085b81c2e4a51d95b9ec4ea4770577384883e58986ee7a",
          "blockNumber": "0x725279",
          "transactionHash": "0xf62ae304539e24801bd4c30fa1ab375bfa51ee83cb5f1628579537fb7e044e7a",
          "transactionIndex": "0x5d",
          "logIndex": "0xc0",
          "removed": false
        },
        {
          "address": "0x270e88f8683660553e8ba4eb2ad7c91a1710d769",
          "topics": [
            "0x4afcb4a87cdbd9974efdb92ee48bc8d7cd0ae4bf217004db3d080cbaee652ca7"
          ],
          "data": "0x000000000000000000000000000000000000000000000000000000006786cf9c0000000000000000000000000000000000000000000000000003af6e627709310000000000000000000000000000000000000000000000000dc83ef00cc1df7c",
          "blockHash": "0x23b8b9880d67b42b3d085b81c2e4a51d95b9ec4ea4770577384883e58986ee7a",
          "blockNumber": "0x725279",
          "transactionHash": "0xf62ae304539e24801bd4c30fa1ab375bfa51ee83cb5f1628579537fb7e044e7a",
          "transactionIndex": "0x5d",
          "logIndex": "0xc1",
          "removed": false
        }
      ],
      "logsBloom": "0x00000000000000000000000000000000000000000000000000000000000000000000000000000000000000000000000020000000000000004000000000000000000000000000000000000008000000000000000000000000000000000000000000000000020000000000000000000800020000000000000000000010000000000000000000010000000000000000000000000000000000000000010000000000000000000000000000000000000000004000000000000000000000000000000000000002000000800000000000000000000000000000080000008000000020000000000000000000000000000000000000000000000000000000000000000000",
      "type": "0x2",
      "transactionHash": "0xf62ae304539e24801bd4c30fa1ab375bfa51ee83cb5f1628579537fb7e044e7a",
      "transactionIndex": "0x5d",
      "blockHash": "0x23b8b9880d67b42b3d085b81c2e4a51d95b9ec4ea4770577384883e58986ee7a",
      "blockNumber": "0x725279",
      "gasUsed": "0xfb93",
      "effectiveGasPrice": "0x3fd1033a6",
      "from": "0xc77f7fed3b5cc8249adc428c5f44c9063b9734b4",
      "to": "0x270e88f8683660553e8ba4eb2ad7c91a1710d769",
      "contractAddress": null
    }
  ],
  "libraries": [],
  "pending": [],
  "returns": {},
  "timestamp": 1736888221,
  "chain": 11155111,
  "commit": "51a374b"
}