{
  "transactions": [
    {
      "hash": "0xeada40e9f43f0b93eab7bdf2621b0233d95f691879d55cc68bef32055575b603",
      "transactionType": "CALL",
      "contractName": null,
      "contractAddress": "0x8aafd3ede9adb0ff97c7aebce82a919afb1c8764",
      "function": "sell(uint256)",
      "arguments": [
        "12079"
      ],
      "transaction": {
        "from": "0xc77f7fed3b5cc8249adc428c5f44c9063b9734b4",
        "to": "0x8aafd3ede9adb0ff97c7aebce82a919afb1c8764",
        "gas": "0x14e4c",
        "value": "0x0",
        "input": "0xe4849b320000000000000000000000000000000000000000000000000000000000002f2f",
        "nonce": "0x100d",
        "chainId": "0xaa36a7"
      },
      "additionalContracts": [],
      "isFixedGasLimit": false
    }
  ],
  "receipts": [
    {
      "status": "0x1",
      "cumulativeGasUsed": "0xdb9f4c",
      "logs": [
        {
          "address": "0x8aafd3ede9adb0ff97c7aebce82a919afb1c8764",
          "topics": [
            "0xddf252ad1be2c89b69c2b068fc378daa952ba7f163c4a11628f55a4df523b3ef",
            "0x000000000000000000000000c77f7fed3b5cc8249adc428c5f44c9063b9734b4",
            "0x0000000000000000000000000000000000000000000000000000000000000000"
          ],
          "data": "0x0000000000000000000000000000000000000000000000000000000000002ecf",
          "blockHash": "0x18955d091955f9569560d1c6611b78ca786a43efb716a071899a9549f6133890",
          "blockNumber": "0x731683",
          "transactionHash": "0xeada40e9f43f0b93eab7bdf2621b0233d95f691879d55cc68bef32055575b603",
          "transactionIndex": "0x92",
          "logIndex": "0xe0",
          "removed": false
        },
        {
          "address": "0x8aafd3ede9adb0ff97c7aebce82a919afb1c8764",
          "topics": [
            "0xddf252ad1be2c89b69c2b068fc378daa952ba7f163c4a11628f55a4df523b3ef",
            "0x000000000000000000000000c77f7fed3b5cc8249adc428c5f44c9063b9734b4",
            "0x000000000000000000000000c77f7fed3b5cc8249adc428c5f44c9063b9734b4"
          ],
          "data": "0x0000000000000000000000000000000000000000000000000000000000000060",
          "blockHash": "0x18955d091955f9569560d1c6611b78ca786a43efb716a071899a9549f6133890",
          "blockNumber": "0x731683",
          "transactionHash": "0xeada40e9f43f0b93eab7bdf2621b0233d95f691879d55cc68bef32055575b603",
          "transactionIndex": "0x92",
          "logIndex": "0xe1",
          "removed": false
        },
        {
          "address": "0x8aafd3ede9adb0ff97c7aebce82a919afb1c8764",
          "topics": [
            "0x4afcb4a87cdbd9974efdb92ee48bc8d7cd0ae4bf217004db3d080cbaee652ca7"
          ],
          "data": "0x0000000000000000000000000000000000000000000000000000000067900ad00000000000000000000000000000000000000000000000000004e7da261835d60000000000000000000000000000000000000000000000000000000000000010",
          "blockHash": "0x18955d091955f9569560d1c6611b78ca786a43efb716a071899a9549f6133890",
          "blockNumber": "0x731683",
          "transactionHash": "0xeada40e9f43f0b93eab7bdf2621b0233d95f691879d55cc68bef32055575b603",
          "transactionIndex": "0x92",
          "logIndex": "0xe2",
          "removed": false
        }
      ],
      "logsBloom": "0x00000000000000000000000000000000000000000600000000000000000000000000000000000000000000000000000000000000000000004000000000000000000000000000004000000008000000000000000000000000000000000000000000000000020000000000000000000800020000000000000000000010000000000000000000000000000000000000000000000000000000000000010000000000000000000000000000000000000000004000000000000000000000000000000000000002000000800000000000000000000000000000080000000000000020000000000000000000000000000000000000000000000000000000000000000000",
      "type": "0x2",
      "transactionHash": "0xeada40e9f43f0b93eab7bdf2621b0233d95f691879d55cc68bef32055575b603",
      "transactionIndex": "0x92",
      "blockHash": "0x18955d091955f9569560d1c6611b78ca786a43efb716a071899a9549f6133890",
      "blockNumber": "0x731683",
      "gasUsed": "0xf207",
      "effectiveGasPrice": "0x43e0209a",
      "from": "0xc77f7fed3b5cc8249adc428c5f44c9063b9734b4",
      "to": "0x8aafd3ede9adb0ff97c7aebce82a919afb1c8764",
      "contractAddress": null
    }
  ],
  "libraries": [],
  "pending": [],
  "returns": {},
  "timestamp": 1737493201,
  "chain": 11155111,
  "commit": "1d2fb70"
}