{
  "transactions": [
    {
      "hash": "0xdfa3996f40a97228c3add31655220cf2c59c4a7635c5e06ecdc4dadfcb0b737e",
      "transactionType": "CALL",
      "contractName": null,
      "contractAddress": "0x8aafd3ede9adb0ff97c7aebce82a919afb1c8764",
      "function": "sell(uint256)",
      "arguments": [
        "44781971871626980"
      ],
      "transaction": {
        "from": "0xc77f7fed3b5cc8249adc428c5f44c9063b9734b4",
        "to": "0x8aafd3ede9adb0ff97c7aebce82a919afb1c8764",
        "gas": "0x1724d",
        "value": "0x0",
        "input": "0xe4849b32000000000000000000000000000000000000000000000000009f18f755bff6e4",
        "nonce": "0x1101",
        "chainId": "0xaa36a7"
      },
      "additionalContracts": [],
      "isFixedGasLimit": false
    }
  ],
  "receipts": [
    {
      "status": "0x1",
      "cumulativeGasUsed": "0xf83f26",
      "logs": [
        {
          "address": "0x8aafd3ede9adb0ff97c7aebce82a919afb1c8764",
          "topics": [
            "0xddf252ad1be2c89b69c2b068fc378daa952ba7f163c4a11628f55a4df523b3ef",
            "0x000000000000000000000000c77f7fed3b5cc8249adc428c5f44c9063b9734b4",
            "0x0000000000000000000000000000000000000000000000000000000000000000"
          ],
          "data": "0x000000000000000000000000000000000000000000000000009dd322698b3a8d",
          "blockHash": "0xe85cadfaa5ea92042fa207c92207e009ba45983fa051dd596191353a1c21c49d",
          "blockNumber": "0x7317b0",
          "transactionHash": "0xdfa3996f40a97228c3add31655220cf2c59c4a7635c5e06ecdc4dadfcb0b737e",
          "transactionIndex": "0x9c",
          "logIndex": "0xd5",
          "removed": false
        },
        {
          "address": "0x8aafd3ede9adb0ff97c7aebce82a919afb1c8764",
          "topics": [
            "0xddf252ad1be2c89b69c2b068fc378daa952ba7f163c4a11628f55a4df523b3ef",
            "0x000000000000000000000000c77f7fed3b5cc8249adc428c5f44c9063b9734b4",
            "0x000000000000000000000000c77f7fed3b5cc8249adc428c5f44c9063b9734b4"
          ],
          "data": "0x000000000000000000000000000000000000000000000000000145d4ec34bc57",
          "blockHash": "0xe85cadfaa5ea92042fa207c92207e009ba45983fa051dd596191353a1c21c49d",
          "blockNumber": "0x7317b0",
          "transactionHash": "0xdfa3996f40a97228c3add31655220cf2c59c4a7635c5e06ecdc4dadfcb0b737e",
          "transactionIndex": "0x9c",
          "logIndex": "0xd6",
          "removed": false
        },
        {
          "address": "0x8aafd3ede9adb0ff97c7aebce82a919afb1c8764",
          "topics": [
            "0x4afcb4a87cdbd9974efdb92ee48bc8d7cd0ae4bf217004db3d080cbaee652ca7"
          ],
          "data": "0x000000000000000000000000000000000000000000000000000000006790190400000000000000000000000000000000000000000000000000050c28b6014b11000000000000000000000000000000000000000000000000000039dd8c92f579",
          "blockHash": "0xe85cadfaa5ea92042fa207c92207e009ba45983fa051dd596191353a1c21c49d",
          "blockNumber": "0x7317b0",
          "transactionHash": "0xdfa3996f40a97228c3add31655220cf2c59c4a7635c5e06ecdc4dadfcb0b737e",
          "transactionIndex": "0x9c",
          "logIndex": "0xd7",
          "removed": false
        }
      ],
      "logsBloom": "0x00000000000000000000000000000000000000000600000000000000000000000000000000000000000000000000000000000000000000004000000000000000000000000000004000000008000000000000000000000000000000000000000000000000020000000000000000000800020000000000000000000010000000000000000000000000000000000000000000000000000000000000010000000000000000000000000000000000000000004000000000000000000000000000000000000002000000800000000000000000000000000000080000000000000020000000000000000000000000000000000000000000000000000000000000000000",
      "type": "0x2",
      "transactionHash": "0xdfa3996f40a97228c3add31655220cf2c59c4a7635c5e06ecdc4dadfcb0b737e",
      "transactionIndex": "0x9c",
      "blockHash": "0xe85cadfaa5ea92042fa207c92207e009ba45983fa051dd596191353a1c21c49d",
      "blockNumber": "0x7317b0",
      "gasUsed": "0xfd33",
      "effectiveGasPrice": "0x38c66222",
      "from": "0xc77f7fed3b5cc8249adc428c5f44c9063b9734b4",
      "to": "0x8aafd3ede9adb0ff97c7aebce82a919afb1c8764",
      "contractAddress": null
    }
  ],
  "libraries": [],
  "pending": [],
  "returns": {},
  "timestamp": 1737496837,
  "chain": 11155111,
  "commit": "1d2fb70"
}