{
  "transactions": [
    {
      "hash": "0xcf41db6e278c352277ab56b68b6f858dc517093c7f6912e5f35b8124ecf20b79",
      "transactionType": "CALL",
      "contractName": null,
      "contractAddress": "0x5eb9cc76c3506942c1c0ead70e877dd5e4f00cb0",
      "function": "buy(address)",
      "arguments": [
        "0xC77f7fed3b5Cc8249aDc428c5F44C9063B9734b4"
      ],
      "transaction": {
        "from": "0xc77f7fed3b5cc8249adc428c5f44c9063b9734b4",
        "to": "0x5eb9cc76c3506942c1c0ead70e877dd5e4f00cb0",
        "gas": "0x1b30c",
        "value": "0xde0b6b3a7640000",
        "input": "0xf088d547000000000000000000000000c77f7fed3b5cc8249adc428c5f44c9063b9734b4",
        "nonce": "0x41e",
        "chainId": "0xaa36a7"
      },
      "additionalContracts": [],
      "isFixedGasLimit": false
    }
  ],
  "receipts": [
    {
      "status": "0x1",
      "cumulativeGasUsed": "0x809f1f",
      "logs": [
        {
          "address": "0x5eb9cc76c3506942c1c0ead70e877dd5e4f00cb0",
          "topics": [
            "0xddf252ad1be2c89b69c2b068fc378daa952ba7f163c4a11628f55a4df523b3ef",
            "0x0000000000000000000000000000000000000000000000000000000000000000",
            "0x000000000000000000000000c77f7fed3b5cc8249adc428c5f44c9063b9734b4"
          ],
          "data": "0x00000000000000000000000000000000000000000000003574f149a92e536c14",
          "blockHash": "0xcf4a08d8a728348810af04ecb897e3d9d587cbd01dff2727dac02ac256eaa113",
          "blockNumber": "0x725033",
          "transactionHash": "0xcf41db6e278c352277ab56b68b6f858dc517093c7f6912e5f35b8124ecf20b79",
          "transactionIndex": "0x47",
          "logIndex": "0x85",
          "removed": false
        },
        {
          "address": "0x5eb9cc76c3506942c1c0ead70e877dd5e4f00cb0",
          "topics": [
            "0xddf252ad1be2c89b69c2b068fc378daa952ba7f163c4a11628f55a4df523b3ef",
            "0x0000000000000000000000000000000000000000000000000000000000000000",
            "0x000000000000000000000000c77f7fed3b5cc8249adc428c5f44c9063b9734b4"
          ],
          "data": "0x0000000000000000000000000000000000000000000000002982d31d5492b516",
          "blockHash": "0xcf4a08d8a728348810af04ecb897e3d9d587cbd01dff2727dac02ac256eaa113",
          "blockNumber": "0x725033",
          "transactionHash": "0xcf41db6e278c352277ab56b68b6f858dc517093c7f6912e5f35b8124ecf20b79",
          "transactionIndex": "0x47",
          "logIndex": "0x86",
          "removed": false
        },
        {
          "address": "0x5eb9cc76c3506942c1c0ead70e877dd5e4f00cb0",
          "topics": [
            "0x4afcb4a87cdbd9974efdb92ee48bc8d7cd0ae4bf217004db3d080cbaee652ca7"
          ],
          "data": "0x000000000000000000000000000000000000000000000000000000006786b430000000000000000000000000000000000000000000000000000391168dcd14560000000000000000000000000000000000000000000000000de0b6b3a7640000",
          "blockHash": "0xcf4a08d8a728348810af04ecb897e3d9d587cbd01dff2727dac02ac256eaa113",
          "blockNumber": "0x725033",
          "transactionHash": "0xcf41db6e278c352277ab56b68b6f858dc517093c7f6912e5f35b8124ecf20b79",
          "transactionIndex": "0x47",
          "logIndex": "0x87",
          "removed": false
        }
      ],
      "logsBloom": "0x00000000000000000000000000000000000000000000000000000000000000000000000000000000000000000000000000000000000000004000000000000000000000000000000000000008000000000000000000000000000000000000000000000000020000000000000004000800020000000000000000000010000000000000000000000000000000000000000000000000000000000000010000000000000000000000000000000000000000004000000000000000000000000000020000000002000000800000008000000000000000000000080000000000000020000000000000000000000000000000000000000000000000000000000000000000",
      "type": "0x2",
      "transactionHash": "0xcf41db6e278c352277ab56b68b6f858dc517093c7f6912e5f35b8124ecf20b79",
      "transactionIndex": "0x47",
      "blockHash": "0xcf4a08d8a728348810af04ecb897e3d9d587cbd01dff2727dac02ac256eaa113",
      "blockNumber": "0x725033",
      "gasUsed": "0x13af8",
      "effectiveGasPrice": "0x2ea592d2c",
      "from": "0xc77f7fed3b5cc8249adc428c5f44c9063b9734b4",
      "to": "0x5eb9cc76c3506942c1c0ead70e877dd5e4f00cb0",
      "contractAddress": null
    }
  ],
  "libraries": [],
  "pending": [],
  "returns": {},
  "timestamp": 1736881201,
  "chain": 11155111,
  "commit": "51a374b"
}