{
  "transactions": [
    {
      "hash": "0x6ee0471f47b3326be0c90755c0bed88aa304614917d1aa922cfb24d25067a69e",
      "transactionType": "CALL",
      "contractName": null,
      "contractAddress": "0x8aafd3ede9adb0ff97c7aebce82a919afb1c8764",
      "function": "sell(uint256)",
      "arguments": [
        "24319845111"
      ],
      "transaction": {
        "from": "0xc77f7fed3b5cc8249adc428c5f44c9063b9734b4",
        "to": "0x8aafd3ede9adb0ff97c7aebce82a919afb1c8764",
        "gas": "0x1722a",
        "value": "0x0",
        "input": "0xe4849b3200000000000000000000000000000000000000000000000000000005a99362f7",
        "nonce": "0xf62",
        "chainId": "0xaa36a7"
      },
      "additionalContracts": [],
      "isFixedGasLimit": false
    }
  ],
  "receipts": [
    {
      "status": "0x1",
      "cumulativeGasUsed": "0x7bb26b",
      "logs": [
        {
          "address": "0x8aafd3ede9adb0ff97c7aebce82a919afb1c8764",
          "topics": [
            "0xddf252ad1be2c89b69c2b068fc378daa952ba7f163c4a11628f55a4df523b3ef",
            "0x000000000000000000000000c77f7fed3b5cc8249adc428c5f44c9063b9734b4",
            "0x0000000000000000000000000000000000000000000000000000000000000000"
          ],
          "data": "0x000000000000000000000000000000000000000000000000000000059dfaa7cf",
          "blockHash": "0x99829be1b0a492d97797a2c2678ed04d70e22ad185ea77d632b431c9b7cf13a1",
          "blockNumber": "0x7315c1",
          "transactionHash": "0x6ee0471f47b3326be0c90755c0bed88aa304614917d1aa922cfb24d25067a69e",
          "transactionIndex": "0x7a",
          "logIndex": "0x64",
          "removed": false
        },
        {
          "address": "0x8aafd3ede9adb0ff97c7aebce82a919afb1c8764",
          "topics": [
            "0xddf252ad1be2c89b69c2b068fc378daa952ba7f163c4a11628f55a4df523b3ef",
            "0x000000000000000000000000c77f7fed3b5cc8249adc428c5f44c9063b9734b4",
            "0x000000000000000000000000c77f7fed3b5cc8249adc428c5f44c9063b9734b4"
          ],
          "data": "0x000000000000000000000000000000000000000000000000000000000b98bb28",
          "blockHash": "0x99829be1b0a492d97797a2c2678ed04d70e22ad185ea77d632b431c9b7cf13a1",
          "blockNumber": "0x7315c1",
          "transactionHash": "0x6ee0471f47b3326be0c90755c0bed88aa304614917d1aa922cfb24d25067a69e",
          "transactionIndex": "0x7a",
          "logIndex": "0x65",
          "removed": false
        },
        {
          "address": "0x8aafd3ede9adb0ff97c7aebce82a919afb1c8764",
          "topics": [
            "0x4afcb4a87cdbd9974efdb92ee48bc8d7cd0ae4bf217004db3d080cbaee652ca7"
          ],
          "data": "0x00000000000000000000000000000000000000000000000000000000679001b80000000000000000000000000000000000000000000000000004c12f91818eda0000000000000000000000000000000000000000000000000000000001f0a2a2",
          "blockHash": "0x99829be1b0a492d97797a2c2678ed04d70e22ad185ea77d632b431c9b7cf13a1",
          "blockNumber": "0x7315c1",
          "transactionHash": "0x6ee0471f47b3326be0c90755c0bed88aa304614917d1aa922cfb24d25067a69e",
          "transactionIndex": "0x7a",
          "logIndex": "0x66",
          "removed": false
        }
      ],
      "logsBloom": "0x00000000000000000000000000000000000000000600000000000000000000000000000000000000000000000000000000000000000000004000000000000000000000000000004000000008000000000000000000000000000000000000000000000000020000000000000000000800020000000000000000000010000000000000000000000000000000000000000000000000000000000000010000000000000000000000000000000000000000004000000000000000000000000000000000000002000000800000000000000000000000000000080000000000000020000000000000000000000000000000000000000000000000000000000000000000",
      "type": "0x2",
      "transactionHash": "0x6ee0471f47b3326be0c90755c0bed88aa304614917d1aa922cfb24d25067a69e",
      "transactionIndex": "0x7a",
      "blockHash": "0x99829be1b0a492d97797a2c2678ed04d70e22ad185ea77d632b431c9b7cf13a1",
      "blockNumber": "0x7315c1",
      "gasUsed": "0xfd1b",
      "effectiveGasPrice": "0x6dd82ae2",
      "from": "0xc77f7fed3b5cc8249adc428c5f44c9063b9734b4",
      "to": "0x8aafd3ede9adb0ff97c7aebce82a919afb1c8764",
      "contractAddress": null
    }
  ],
  "libraries": [],
  "pending": [],
  "returns": {},
  "timestamp": 1737490874,
  "chain": 11155111,
  "commit": "1d2fb70"
}