{
  "transactions": [
    {
      "hash": "0xb168b8af32beb7bfd8f3d9d1fbac1f4a2f00077c5646a3cdbc4c55d05db47fdd",
      "transactionType": "CALL",
      "contractName": null,
      "contractAddress": "0x270e88f8683660553e8ba4eb2ad7c91a1710d769",
      "function": "sell(uint256)",
      "arguments": [
        "717875981304398138144"
      ],
      "transaction": {
        "from": "0xc77f7fed3b5cc8249adc428c5f44c9063b9734b4",
        "to": "0x270e88f8683660553e8ba4eb2ad7c91a1710d769",
        "gas": "0x16fec",
        "value": "0x0",
        "input": "0xe4849b32000000000000000000000000000000000000000000000026ea87d186c19ccb20",
        "nonce": "0x83c",
        "chainId": "0xaa36a7"
      },
      "additionalContracts": [],
      "isFixedGasLimit": false
    }
  ],
  "receipts": [
    {
      "status": "0x1",
      "cumulativeGasUsed": "0xecae1c",
      "logs": [
        {
          "address": "0x270e88f8683660553e8ba4eb2ad7c91a1710d769",
          "topics": [
            "0xddf252ad1be2c89b69c2b068fc378daa952ba7f163c4a11628f55a4df523b3ef",
            "0x000000000000000000000000c77f7fed3b5cc8249adc428c5f44c9063b9734b4",
            "0x0000000000000000000000000000000000000000000000000000000000000000"
          ],
          "data": "0x000000000000000000000000000000000000000000000026ea87d186c19ccb20",
          "blockHash": "0xde505e7546cbc761f33aadab02b8d9fdc9aca16c1547c2d3c8a7eea8fd2d98ae",
          "blockNumber": "0x725588",
          "transactionHash": "0xb168b8af32beb7bfd8f3d9d1fbac1f4a2f00077c5646a3cdbc4c55d05db47fdd",
          "transactionIndex": "0x56",
          "logIndex": "0x88",
          "removed": false
        },
        {
          "address": "0x270e88f8683660553e8ba4eb2ad7c91a1710d769",
          "topics": [
            "0x4afcb4a87cdbd9974efdb92ee48bc8d7cd0ae4bf217004db3d080cbaee652ca7"
          ],
          "data": "0x000000000000000000000000000000000000000000000000000000006786f4680000000000000000000000000000000000000000000000000004ea5a54b4fe570000000000000000000000000000000000000000000000000dc826359947170a",
          "blockHash": "0xde505e7546cbc761f33aadab02b8d9fdc9aca16c1547c2d3c8a7eea8fd2d98ae",
          "blockNumber": "0x725588",
          "transactionHash": "0xb168b8af32beb7bfd8f3d9d1fbac1f4a2f00077c5646a3cdbc4c55d05db47fdd",
          "transactionIndex": "0x56",
          "logIndex": "0x89",
          "removed": false
        }
      ],
      "logsBloom": "0x00000000000000000000000000000000000000000000000000000000000000000000000000000000000000000000000020000000000000004000000000000000000000000000000000000008000000000000000000000000000000000000000000000000020000000000000000000800020000000000000000000010000000000000000000010000000000000000000000000000000000000000010000000000000000000000000000000000000000004000000000000000000000000000000000000002000000800000000000000000000000000000080000008000000020000000000000000000000000000000000000000000000000000000000000000000",
      "type": "0x2",
      "transactionHash": "0xb168b8af32beb7bfd8f3d9d1fbac1f4a2f00077c5646a3cdbc4c55d05db47fdd",
      "transactionIndex": "0x56",
      "blockHash": "0xde505e7546cbc761f33aadab02b8d9fdc9aca16c1547c2d3c8a7eea8fd2d98ae",
      "blockNumber": "0x725588",
      "gasUsed": "0xfb93",
      "effectiveGasPrice": "0x7256d050",
      "from": "0xc77f7fed3b5cc8249adc428c5f44c9063b9734b4",
      "to": "0x270e88f8683660553e8ba4eb2ad7c91a1710d769",
      "contractAddress": null
    }
  ],
  "libraries": [],
  "pending": [],
  "returns": {},
  "timestamp": 1736897643,
  "chain": 11155111,
  "commit": "51a374b"
}