{
  "transactions": [
    {
      "hash": "0xbdc546099aed7d8101d50e86f00f8086d140677127f415e2817853008a2dfaf0",
      "transactionType": "CALL",
      "contractName": null,
      "contractAddress": "0x8aafd3ede9adb0ff97c7aebce82a919afb1c8764",
      "function": "sell(uint256)",
      "arguments": [
        "89759966672125"
      ],
      "transaction": {
        "from": "0xc77f7fed3b5cc8249adc428c5f44c9063b9734b4",
        "to": "0x8aafd3ede9adb0ff97c7aebce82a919afb1c8764",
        "gas": "0x15daa",
        "value": "0x0",
        "input": "0xe4849b32000000000000000000000000000000000000000000000000000051a2deedb4fd",
        "nonce": "0x1610",
        "chainId": "0xaa36a7"
      },
      "additionalContracts": [],
      "isFixedGasLimit": false
    }
  ],
  "receipts": [
    {
      "status": "0x1",
      "cumulativeGasUsed": "0x6809bb",
      "logs": [
        {
          "address": "0x8aafd3ede9adb0ff97c7aebce82a919afb1c8764",
          "topics": [
            "0xddf252ad1be2c89b69c2b068fc378daa952ba7f163c4a11628f55a4df523b3ef",
            "0x000000000000000000000000c77f7fed3b5cc8249adc428c5f44c9063b9734b4",
            "0x0000000000000000000000000000000000000000000000000000000000000000"
          ],
          "data": "0x000000000000000000000000000000000000000000000000000050fbae0a867c",
          "blockHash": "0x8ec64e811e325ca438c161ebdc50ce19af715bfa84fec1ecf7814e6dd33bcce1",
          "blockNumber": "0x731da5",
          "transactionHash": "0xbdc546099aed7d8101d50e86f00f8086d140677127f415e2817853008a2dfaf0",
          "transactionIndex": "0x4a",
          "logIndex": "0x69",
          "removed": false
        },
        {
          "address": "0x8aafd3ede9adb0ff97c7aebce82a919afb1c8764",
          "topics": [
            "0xddf252ad1be2c89b69c2b068fc378daa952ba7f163c4a11628f55a4df523b3ef",
            "0x000000000000000000000000c77f7fed3b5cc8249adc428c5f44c9063b9734b4",
            "0x000000000000000000000000c77f7fed3b5cc8249adc428c5f44c9063b9734b4"
          ],
          "data": "0x000000000000000000000000000000000000000000000000000000a730e32e81",
          "blockHash": "0x8ec64e811e325ca438c161ebdc50ce19af715bfa84fec1ecf7814e6dd33bcce1",
          "blockNumber": "0x731da5",
          "transactionHash": "0xbdc546099aed7d8101d50e86f00f8086d140677127f415e2817853008a2dfaf0",
          "transactionIndex": "0x4a",
          "logIndex": "0x6a",
          "removed": false
        },
        {
          "address": "0x8aafd3ede9adb0ff97c7aebce82a919afb1c8764",
          "topics": [
            "0x4afcb4a87cdbd9974efdb92ee48bc8d7cd0ae4bf217004db3d080cbaee652ca7"
          ],
          "data": "0x00000000000000000000000000000000000000000000000000000000679060a400000000000000000000000000000000000000000000000000143a5242fc8db500000000000000000000000000000000000000000000000000000076fd85d011",
          "blockHash": "0x8ec64e811e325ca438c161ebdc50ce19af715bfa84fec1ecf7814e6dd33bcce1",
          "blockNumber": "0x731da5",
          "transactionHash": "0xbdc546099aed7d8101d50e86f00f8086d140677127f415e2817853008a2dfaf0",
          "transactionIndex": "0x4a",
          "logIndex": "0x6b",
          "removed": false
        }
      ],
      "logsBloom": "0x00000000000000000000000000000000000000000600000000000000000000000000000000000000000000000000000000000000000000004000000000000000000000000000004000000008000000000000000000000000000000000000000000000000020000000000000000000800020000000000000000000010000000000000000000000000000000000000000000000000000000000000010000000000000000000000000000000000000000004000000000000000000000000000000000000002000000800000000000000000000000000000080000000000000020000000000000000000000000000000000000000000000000000000000000000000",
      "type": "0x2",
      "transactionHash": "0xbdc546099aed7d8101d50e86f00f8086d140677127f415e2817853008a2dfaf0",
      "transactionIndex": "0x4a",
      "blockHash": "0x8ec64e811e325ca438c161ebdc50ce19af715bfa84fec1ecf7814e6dd33bcce1",
      "blockNumber": "0x731da5",
      "gasUsed": "0xfd27",
      "effectiveGasPrice": "0x802efc58",
      "from": "0xc77f7fed3b5cc8249adc428c5f44c9063b9734b4",
      "to": "0x8aafd3ede9adb0ff97c7aebce82a919afb1c8764",
      "contractAddress": null
    }
  ],
  "libraries": [],
  "pending": [],
  "returns": {},
  "timestamp": 1737515172,
  "chain": 11155111,
  "commit": "1d2fb70"
}