{
  "transactions": [
    {
      "hash": "0x0d2a7b4a44ebed6e58e0f85f7a9b40980c83708ddc1c73c62fe5efa2909fd647",
      "transactionType": "CALL",
      "contractName": null,
      "contractAddress": "0x5eb9cc76c3506942c1c0ead70e877dd5e4f00cb0",
      "function": "sell(uint256)",
      "arguments": [
        "989092987580678346477"
      ],
      "transaction": {
        "from": "0xc77f7fed3b5cc8249adc428c5f44c9063b9734b4",
        "to": "0x5eb9cc76c3506942c1c0ead70e877dd5e4f00cb0",
        "gas": "0x16fec",
        "value": "0x0",
        "input": "0xe4849b320000000000000000000000000000000000000000000000359e6c2fc3f02f16ed",
        "nonce": "0x42d",
        "chainId": "0xaa36a7"
      },
      "additionalContracts": [],
      "isFixedGasLimit": false
    }
  ],
  "receipts": [
    {
      "status": "0x1",
      "cumulativeGasUsed": "0x9f4bcb",
      "logs": [
        {
          "address": "0x5eb9cc76c3506942c1c0ead70e877dd5e4f00cb0",
          "topics": [
            "0xddf252ad1be2c89b69c2b068fc378daa952ba7f163c4a11628f55a4df523b3ef",
            "0x000000000000000000000000c77f7fed3b5cc8249adc428c5f44c9063b9734b4",
            "0x0000000000000000000000000000000000000000000000000000000000000000"
          ],
          "data": "0x0000000000000000000000000000000000000000000000359e6c2fc3f02f16ed",
          "blockHash": "0x14b9b57de2967e2d75713a4a63c9bf393b3537659e3cc0528019636daee4adf0",
          "blockNumber": "0x725043",
          "transactionHash": "0x0d2a7b4a44ebed6e58e0f85f7a9b40980c83708ddc1c73c62fe5efa2909fd647",
          "transactionIndex": "0x6f",
          "logIndex": "0xb9",
          "removed": false
        },
        {
          "address": "0x5eb9cc76c3506942c1c0ead70e877dd5e4f00cb0",
          "topics": [
            "0x4afcb4a87cdbd9974efdb92ee48bc8d7cd0ae4bf217004db3d080cbaee652ca7"
          ],
          "data": "0x000000000000000000000000000000000000000000000000000000006786b4f000000000000000000000000000000000000000000000000000039117211a3f6f0000000000000000000000000000000000000000000000000dc7db1331daf879",
          "blockHash": "0x14b9b57de2967e2d75713a4a63c9bf393b3537659e3cc0528019636daee4adf0",
          "blockNumber": "0x725043",
          "transactionHash": "0x0d2a7b4a44ebed6e58e0f85f7a9b40980c83708ddc1c73c62fe5efa2909fd647",
          "transactionIndex": "0x6f",
          "logIndex": "0xba",
          "removed": false
        }
      ],
      "logsBloom": "0x00000000000000000000000000000000000000000000000000000000000000000000000000000000000000000000000000000000000000004000000000000000000000000000000000000008000000000000000000000000000000000000000000000000020000000000000004000800020000000000000000000010000000000000000000000000000000000000000000000000000000000000010000000000000000000000000000000000000000004000000000000000000000000000020000000002000000800000008000000000000000000000080000000000000020000000000000000000000000000000000000000000000000000000000000000000",
      "type": "0x2",
      "transactionHash": "0x0d2a7b4a44ebed6e58e0f85f7a9b40980c83708ddc1c73c62fe5efa2909fd647",
      "transactionIndex": "0x6f",
      "blockHash": "0x14b9b57de2967e2d75713a4a63c9bf393b3537659e3cc0528019636daee4adf0",
      "blockNumber": "0x725043",
      "gasUsed": "0xfb93",
      "effectiveGasPrice": "0x240b29909",
      "from": "0xc77f7fed3b5cc8249adc428c5f44c9063b9734b4",
      "to": "0x5eb9cc76c3506942c1c0ead70e877dd5e4f00cb0",
      "contractAddress": null
    }
  ],
  "libraries": [],
  "pending": [],
  "returns": {},
  "timestamp": 1736881393,
  "chain": 11155111,
  "commit": "51a374b"
}