{
  "transactions": [
    {
      "hash": "0x0e976e60c1b1dee586d90b9b4cef4420aab1db6caabe446da47a4a5ccd9cd80c",
      "transactionType": "CALL",
      "contractName": null,
      "contractAddress": "0xbf4a322f1496e5c3d34a9bcdb4c60567b38c7de2",
      "function": "sell(uint256)",
      "arguments": [
        "977788898088673361893"
      ],
      "transaction": {
        "from": "0xc77f7fed3b5cc8249adc428c5f44c9063b9734b4",
        "to": "0xbf4a322f1496e5c3d34a9bcdb4c60567b38c7de2",
        "gas": "0x15b68",
        "value": "0x0",
        "input": "0xe4849b32000000000000000000000000000000000000000000000035018bfe4398003fe5",
        "nonce": "0xcbd",
        "chainId": "0xaa36a7"
      },
      "additionalContracts": [],
      "isFixedGasLimit": false
    }
  ],
  "receipts": [
    {
      "status": "0x1",
      "cumulativeGasUsed": "0x11e8e2b",
      "logs": [
        {
          "address": "0xbf4a322f1496e5c3d34a9bcdb4c60567b38c7de2",
          "topics": [
            "0xddf252ad1be2c89b69c2b068fc378daa952ba7f163c4a11628f55a4df523b3ef",
            "0x000000000000000000000000c77f7fed3b5cc8249adc428c5f44c9063b9734b4",
            "0x0000000000000000000000000000000000000000000000000000000000000000"
          ],
          "data": "0x000000000000000000000000000000000000000000000035018bfe4398003fe5",
          "blockHash": "0x5a6409152c81fab68d129663d2f4c7572b6d8af7ab4eb4e895560332b30934fb",
          "blockNumber": "0x725d0c",
          "transactionHash": "0x0e976e60c1b1dee586d90b9b4cef4420aab1db6caabe446da47a4a5ccd9cd80c",
          "transactionIndex": "0x93",
          "logIndex": "0xe2",
          "removed": false
        },
        {
          "address": "0xbf4a322f1496e5c3d34a9bcdb4c60567b38c7de2",
          "topics": [
            "0x4afcb4a87cdbd9974efdb92ee48bc8d7cd0ae4bf217004db3d080cbaee652ca7"
          ],
          "data": "0x0000000000000000000000000000000000000000000000000000000067874f0400000000000000000000000000000000000000000000000000039babe2419ef20000000000000000000000000000000000000000000000000dc7e3dcece86c9a",
          "blockHash": "0x5a6409152c81fab68d129663d2f4c7572b6d8af7ab4eb4e895560332b30934fb",
          "blockNumber": "0x725d0c",
          "transactionHash": "0x0e976e60c1b1dee586d90b9b4cef4420aab1db6caabe446da47a4a5ccd9cd80c",
          "transactionIndex": "0x93",
          "logIndex": "0xe3",
          "removed": false
        }
      ],
      "logsBloom": "0x00000000000000000000000000000000000000000000000000000000000000000000000000000000000000000000000000000000000000004000000000000000000000000000000000000008000000000000001000000000000000000000000000000000020000000000000000000800020000000000000000000010000000000000000000000000000000000000000000000000000008000000010000000000000000000000000000000000000000004000000000000000000000000000000000000002000000800000000000001000000000000000080000000000000020000000000000000000000000000000000000000000000000000000000000000000",
      "type": "0x2",
      "transactionHash": "0x0e976e60c1b1dee586d90b9b4cef4420aab1db6caabe446da47a4a5ccd9cd80c",
      "transactionIndex": "0x93",
      "blockHash": "0x5a6409152c81fab68d129663d2f4c7572b6d8af7ab4eb4e895560332b30934fb",
      "blockNumber": "0x725d0c",
      "gasUsed": "0xfb85",
      "effectiveGasPrice": "0x1eca9c5c6",
      "from": "0xc77f7fed3b5cc8249adc428c5f44c9063b9734b4",
      "to": "0xbf4a322f1496e5c3d34a9bcdb4c60567b38c7de2",
      "contractAddress": null
    }
  ],
  "libraries": [],
  "pending": [],
  "returns": {},
  "timestamp": 1736920837,
  "chain": 11155111,
  "commit": "51a374b"
}