{
  "transactions": [
    {
      "hash": "0xf0cdd7c8e1e525201af8d05dd5d2e7fbc87761c9e85eb3a2ac1e07f8a8c04a77",
      "transactionType": "CALL",
      "contractName": null,
      "contractAddress": "0x5eb9cc76c3506942c1c0ead70e877dd5e4f00cb0",
      "function": "buy(address)",
      "arguments": [
        "0xC77f7fed3b5Cc8249aDc428c5F44C9063B9734b4"
      ],
      "transaction": {
        "from": "0xc77f7fed3b5cc8249adc428c5f44c9063b9734b4",
        "to": "0x5eb9cc76c3506942c1c0ead70e877dd5e4f00cb0",
        "gas": "0x156c8",
        "value": "0xde0b6b3a7640000",
        "input": "0xf088d547000000000000000000000000c77f7fed3b5cc8249adc428c5f44c9063b9734b4",
        "nonce": "0x1f0",
        "chainId": "0xaa36a7"
      },
      "additionalContracts": [],
      "isFixedGasLimit": false
    }
  ],
  "receipts": [
    {
      "status": "0x1",
      "cumulativeGasUsed": "0x969286",
      "logs": [
        {
          "address": "0x5eb9cc76c3506942c1c0ead70e877dd5e4f00cb0",
          "topics": [
            "0xddf252ad1be2c89b69c2b068fc378daa952ba7f163c4a11628f55a4df523b3ef",
            "0x0000000000000000000000000000000000000000000000000000000000000000",
            "0x000000000000000000000000c77f7fed3b5cc8249adc428c5f44c9063b9734b4"
          ],
          "data": "0x00000000000000000000000000000000000000000000003584c388a55074452a",
          "blockHash": "0xd2440f5745b03a941a4d44b88332dd0acc05f526e0b86dd8fb364b85b8081b92",
          "blockNumber": "0x724b07",
          "transactionHash": "0xf0cdd7c8e1e525201af8d05dd5d2e7fbc87761c9e85eb3a2ac1e07f8a8c04a77",
          "transactionIndex": "0x4b",
          "logIndex": "0xb0",
          "removed": false
        },
        {
          "address": "0x5eb9cc76c3506942c1c0ead70e877dd5e4f00cb0",
          "topics": [
            "0xddf252ad1be2c89b69c2b068fc378daa952ba7f163c4a11628f55a4df523b3ef",
            "0x0000000000000000000000000000000000000000000000000000000000000000",
            "0x000000000000000000000000c77f7fed3b5cc8249adc428c5f44c9063b9734b4"
          ],
          "data": "0x000000000000000000000000000000000000000000000000298f1c44ce2e4ed7",
          "blockHash": "0xd2440f5745b03a941a4d44b88332dd0acc05f526e0b86dd8fb364b85b8081b92",
          "blockNumber": "0x724b07",
          "transactionHash": "0xf0cdd7c8e1e525201af8d05dd5d2e7fbc87761c9e85eb3a2ac1e07f8a8c04a77",
          "transactionIndex": "0x4b",
          "logIndex": "0xb1",
          "removed": false
        },
        {
          "address": "0x5eb9cc76c3506942c1c0ead70e877dd5e4f00cb0",
          "topics": [
            "0x4afcb4a87cdbd9974efdb92ee48bc8d7cd0ae4bf217004db3d080cbaee652ca7"
          ],
          "data": "0x00000000000000000000000000000000000000000000000000000000678675fc00000000000000000000000000000000000000000000000000039008a0058c310000000000000000000000000000000000000000000000000de0b6b3a7640000",
          "blockHash": "0xd2440f5745b03a941a4d44b88332dd0acc05f526e0b86dd8fb364b85b8081b92",
          "blockNumber": "0x724b07",
          "transactionHash": "0xf0cdd7c8e1e525201af8d05dd5d2e7fbc87761c9e85eb3a2ac1e07f8a8c04a77",
          "transactionIndex": "0x4b",
          "logIndex": "0xb2",
          "removed": false
        }
      ],
      "logsBloom": "0x00000000000000000000000000000000000000000000000000000000000000000000000000000000000000000000000000000000000000004000000000000000000000000000000000000008000000000000000000000000000000000000000000000000020000000000000004000800020000000000000000000010000000000000000000000000000000000000000000000000000000000000010000000000000000000000000000000000000000004000000000000000000000000000020000000002000000800000008000000000000000000000080000000000000020000000000000000000000000000000000000000000000000000000000000000000",
      "type": "0x2",
      "transactionHash": "0xf0cdd7c8e1e525201af8d05dd5d2e7fbc87761c9e85eb3a2ac1e07f8a8c04a77",
      "transactionIndex": "0x4b",
      "blockHash": "0xd2440f5745b03a941a4d44b88332dd0acc05f526e0b86dd8fb364b85b8081b92",
      "blockNumber": "0x724b07",
      "gasUsed": "0xf82c",
      "effectiveGasPrice": "0x4e42938b1",
      "from": "0xc77f7fed3b5cc8249adc428c5f44c9063b9734b4",
      "to": "0x5eb9cc76c3506942c1c0ead70e877dd5e4f00cb0",
      "contractAddress": null
    }
  ],
  "libraries": [],
  "pending": [],
  "returns": {},
  "timestamp": 1736865277,
  "chain": 11155111,
  "commit": "51a374b"
}