{
  "transactions": [
    {
      "hash": "0xe5ef1a09b6dd8619f6e40be802b0c63a424869d14a884d5a5b3792aca179f1a8",
      "transactionType": "CALL",
      "contractName": null,
      "contractAddress": "0x8aafd3ede9adb0ff97c7aebce82a919afb1c8764",
      "function": "sell(uint256)",
      "arguments": [
        "45291632408234787"
      ],
      "transaction": {
        "from": "0xc77f7fed3b5cc8249adc428c5f44c9063b9734b4",
        "to": "0x8aafd3ede9adb0ff97c7aebce82a919afb1c8764",
        "gas": "0x1724d",
        "value": "0x0",
        "input": "0xe4849b3200000000000000000000000000000000000000000000000000a0e87fecfd8b23",
        "nonce": "0x109d",
        "chainId": "0xaa36a7"
      },
      "additionalContracts": [],
      "isFixedGasLimit": false
    }
  ],
  "receipts": [
    {
      "status": "0x1",
      "cumulativeGasUsed": "0x11545dd",
      "logs": [
        {
          "address": "0x8aafd3ede9adb0ff97c7aebce82a919afb1c8764",
          "topics": [
            "0xddf252ad1be2c89b69c2b068fc378daa952ba7f163c4a11628f55a4df523b3ef",
            "0x000000000000000000000000c77f7fed3b5cc8249adc428c5f44c9063b9734b4",
            "0x0000000000000000000000000000000000000000000000000000000000000000"
          ],
          "data": "0x000000000000000000000000000000000000000000000000009f9ef5afb3d5cd",
          "blockHash": "0x6162f48052787a9aeebc56c089e8409451e2af05fa7ac2b1cff5151c77f09fd8",
          "blockNumber": "0x73172e",
          "transactionHash": "0xe5ef1a09b6dd8619f6e40be802b0c63a424869d14a884d5a5b3792aca179f1a8",
          "transactionIndex": "0x8e",
          "logIndex": "0xbc",
          "removed": false
        },
        {
          "address": "0x8aafd3ede9adb0ff97c7aebce82a919afb1c8764",
          "topics": [
            "0xddf252ad1be2c89b69c2b068fc378daa952ba7f163c4a11628f55a4df523b3ef",
            "0x000000000000000000000000c77f7fed3b5cc8249adc428c5f44c9063b9734b4",
            "0x000000000000000000000000c77f7fed3b5cc8249adc428c5f44c9063b9734b4"
          ],
          "data": "0x0000000000000000000000000000000000000000000000000001498a3d49b556",
          "blockHash": "0x6162f48052787a9aeebc56c089e8409451e2af05fa7ac2b1cff5151c77f09fd8",
          "blockNumber": "0x73172e",
          "transactionHash": "0xe5ef1a09b6dd8619f6e40be802b0c63a424869d14a884d5a5b3792aca179f1a8",
          "transactionIndex": "0x8e",
          "logIndex": "0xbd",
          "removed": false
        },
        {
          "address": "0x8aafd3ede9adb0ff97c7aebce82a919afb1c8764",
          "topics": [
            "0x4afcb4a87cdbd9974efdb92ee48bc8d7cd0ae4bf217004db3d080cbaee652ca7"
          ],
          "data": "0x00000000000000000000000000000000000000000000000000000000679012ec0000000000000000000000000000000000000000000000000004fda279f0baf7000000000000000000000000000000000000000000000000000039ddbc768343",
          "blockHash": "0x6162f48052787a9aeebc56c089e8409451e2af05fa7ac2b1cff5151c77f09fd8",
          "blockNumber": "0x73172e",
          "transactionHash": "0xe5ef1a09b6dd8619f6e40be802b0c63a424869d14a884d5a5b3792aca179f1a8",
          "transactionIndex": "0x8e",
          "logIndex": "0xbe",
          "removed": false
        }
      ],
      "logsBloom": "0x00000000000000000000000000000000000000000600000000000000000000000000000000000000000000000000000000000000000000004000000000000000000000000000004000000008000000000000000000000000000000000000000000000000020000000000000000000800020000000000000000000010000000000000000000000000000000000000000000000000000000000000010000000000000000000000000000000000000000004000000000000000000000000000000000000002000000800000000000000000000000000000080000000000000020000000000000000000000000000000000000000000000000000000000000000000",
      "type": "0x2",
      "transactionHash": "0xe5ef1a09b6dd8619f6e40be802b0c63a424869d14a884d5a5b3792aca179f1a8",
      "transactionIndex": "0x8e",
      "blockHash": "0x6162f48052787a9aeebc56c089e8409451e2af05fa7ac2b1cff5151c77f09fd8",
      "blockNumber": "0x73172e",
      "gasUsed": "0xfd33",
      "effectiveGasPrice": "0x3e638804",
      "from": "0xc77f7fed3b5cc8249adc428c5f44c9063b9734b4",
      "to": "0x8aafd3ede9adb0ff97c7aebce82a919afb1c8764",
      "contractAddress": null
    }
  ],
  "libraries": [],
  "pending": [],
  "returns": {},
  "timestamp": 1737495278,
  "chain": 11155111,
  "commit": "1d2fb70"
}