{
  "transactions": [
    {
      "hash": "0xc0a589b76988b683fa372d8b64abd5de69cf7ca1fdf8b7d50f389a210c7932b9",
      "transactionType": "CALL",
      "contractName": null,
      "contractAddress": "0x9a940ef65f8bf33332aa4faea921454828f0c80a",
      "function": "borrowMore(uint256)",
      "arguments": [
        "13732549879486681"
      ],
      "transaction": {
        "from": "0xf66076775ad1f36dd12c1f1b10c21d1aadf0d6de",
        "to": "0x9a940ef65f8bf33332aa4faea921454828f0c80a",
        "gas": "0x26197",
        "value": "0x0",
        "input": "0x9d0bf2e90000000000000000000000000000000000000000000000000030c9ae6d6d58d9",
        "nonce": "0x55",
        "chainId": "0xaa36a7"
      },
      "additionalContracts": [],
      "isFixedGasLimit": false
    }
  ],
  "receipts": [
    {
      "status": "0x1",
      "cumulativeGasUsed": "0x21dc5de",
      "logs": [
        {
          "address": "0x9a940ef65f8bf33332aa4faea921454828f0c80a",
          "topics": [
            "0xddf252ad1be2c89b69c2b068fc378daa952ba7f163c4a11628f55a4df523b3ef",
            "0x000000000000000000000000f66076775ad1f36dd12c1f1b10c21d1aadf0d6de",
            "0x0000000000000000000000009a940ef65f8bf33332aa4faea921454828f0c80a"
          ],
          "data": "0x000000000000000000000000000000000000000000000000626ddca1480aee1c",
          "blockHash": "0xb133c71655404d99437bc4f4f3869d7721ffcf87626ea2780b80b46e58e0bf16",
          "blockNumber": "0x73d114",
          "transactionHash": "0xc0a589b76988b683fa372d8b64abd5de69cf7ca1fdf8b7d50f389a210c7932b9",
          "transactionIndex": "0xbc",
          "logIndex": "0x150",
          "removed": false
        },
        {
          "address": "0x9a940ef65f8bf33332aa4faea921454828f0c80a",
          "topics": [
            "0x03bbe564cb1b78e43195eeadbde99e5b89b19345862807fcfb59f884e4165e25"
          ],
          "data": "0x00000000000000000000000038818e389773445cd73adbaa37b8b169f458c6e1000000000000000000000000000000000000000000000000000003bf35209205",
          "blockHash": "0xb133c71655404d99437bc4f4f3869d7721ffcf87626ea2780b80b46e58e0bf16",
          "blockNumber": "0x73d114",
          "transactionHash": "0xc0a589b76988b683fa372d8b64abd5de69cf7ca1fdf8b7d50f389a210c7932b9",
          "transactionIndex": "0xbc",
          "logIndex": "0x151",
          "removed": false
        },
        {
          "address": "0x9a940ef65f8bf33332aa4faea921454828f0c80a",
          "topics": [
            "0x03bbe564cb1b78e43195eeadbde99e5b89b19345862807fcfb59f884e4165e25"
          ],
          "data": "0x000000000000000000000000f66076775ad1f36dd12c1f1b10c21d1aadf0d6de0000000000000000000000000000000000000000000000000030404b7c186ea8",
          "blockHash": "0xb133c71655404d99437bc4f4f3869d7721ffcf87626ea2780b80b46e58e0bf16",
          "blockNumber": "0x73d114",
          "transactionHash": "0xc0a589b76988b683fa372d8b64abd5de69cf7ca1fdf8b7d50f389a210c7932b9",
          "transactionIndex": "0xbc",
          "logIndex": "0x152",
          "removed": false
        },
        {
          "address": "0x9a940ef65f8bf33332aa4faea921454828f0c80a",
          "topics": [
            "0xaec00f5213a37254bc68a26b0685d1a5b2bf513e1e587c94c7df7f4a62b56c9c"
          ],
          "data": "0x000000000000000000000000000000000000000000000000ebd1ba2d7469110700000000000000000000000000000000000000000000000000534b892eee8ea40000000000000000000000000000000000000000000000000de970da7521bea400000000000000000000000000000000000000000000002753cc25ff3b56ef91",
          "blockHash": "0xb133c71655404d99437bc4f4f3869d7721ffcf87626ea2780b80b46e58e0bf16",
          "blockNumber": "0x73d114",
          "transactionHash": "0xc0a589b76988b683fa372d8b64abd5de69cf7ca1fdf8b7d50f389a210c7932b9",
          "transactionIndex": "0xbc",
          "logIndex": "0x153",
          "removed": false
        },
        {
          "address": "0x9a940ef65f8bf33332aa4faea921454828f0c80a",
          "topics": [
            "0x4afcb4a87cdbd9974efdb92ee48bc8d7cd0ae4bf217004db3d080cbaee652ca7"
          ],
          "data": "0x00000000000000000000000000000000000000000000000000000000679910640000000000000000000000000000000000000000000000000004f5a2167c753100000000000000000000000000000000000000000000000000000c7d5bc1e6be",
          "blockHash": "0xb133c71655404d99437bc4f4f3869d7721ffcf87626ea2780b80b46e58e0bf16",
          "blockNumber": "0x73d114",
          "transactionHash": "0xc0a589b76988b683fa372d8b64abd5de69cf7ca1fdf8b7d50f389a210c7932b9",
          "transactionIndex": "0xbc",
          "logIndex": "0x154",
          "removed": false
        }
      ],
      "logsBloom": "0x80000000000000040000000000000100400000000000000000000000000000000008000000000000000000000000000000002000000000004000000000000000000000000000000000000008000000000000000000000000000000000000000000000000000000000000800000000000220000000000000000000010080000000000000000000000000000000000000000000000000000000000000000000000000000000000000000000400000000004000000000800000000000001000000000000002000000000000000000000000000000000000000000000020000000000000000000000000000000200000000000000000000000000040000000000000",
      "type": "0x2",
      "transactionHash": "0xc0a589b76988b683fa372d8b64abd5de69cf7ca1fdf8b7d50f389a210c7932b9",
      "transactionIndex": "0xbc",
      "blockHash": "0xb133c71655404d99437bc4f4f3869d7721ffcf87626ea2780b80b46e58e0bf16",
      "blockNumber": "0x73d114",
      "gasUsed": "0x1a0d1",
      "effectiveGasPrice": "0x4451f029",
      "from": "0xf66076775ad1f36dd12c1f1b10c21d1aadf0d6de",
      "to": "0x9a940ef65f8bf33332aa4faea921454828f0c80a",
      "contractAddress": null
    }
  ],
  "libraries": [],
  "pending": [],
  "returns": {},
  "timestamp": 1738084453,
  "chain": 11155111,
  "commit": "f5162e9"
}