{
  "transactions": [
    {
      "hash": "0xbbd60e8116353806b6682db4fce4b15f06d209b8ac80f31a3d95a7547181f033",
      "transactionType": "CALL",
      "contractName": null,
      "contractAddress": "0x8aafd3ede9adb0ff97c7aebce82a919afb1c8764",
      "function": "sell(uint256)",
      "arguments": [
        "3040800063305"
      ],
      "transaction": {
        "from": "0xc77f7fed3b5cc8249adc428c5f44c9063b9734b4",
        "to": "0x8aafd3ede9adb0ff97c7aebce82a919afb1c8764",
        "gas": "0x15daa",
        "value": "0x0",
        "input": "0xe4849b32000000000000000000000000000000000000000000000000000002c3fdcebf49",
        "nonce": "0xf57",
        "chainId": "0xaa36a7"
      },
      "additionalContracts": [],
      "isFixedGasLimit": false
    }
  ],
  "receipts": [
    {
      "status": "0x1",
      "cumulativeGasUsed": "0xfa9b28",
      "logs": [
        {
          "address": "0x8aafd3ede9adb0ff97c7aebce82a919afb1c8764",
          "topics": [
            "0xddf252ad1be2c89b69c2b068fc378daa952ba7f163c4a11628f55a4df523b3ef",
            "0x000000000000000000000000c77f7fed3b5cc8249adc428c5f44c9063b9734b4",
            "0x0000000000000000000000000000000000000000000000000000000000000000"
          ],
          "data": "0x000000000000000000000000000000000000000000000000000002be53d7554f",
          "blockHash": "0x05a973e1548381408ace187abb9a89a96c362c098b4d6b4ceddfe82582b07f62",
          "blockNumber": "0x7315b3",
          "transactionHash": "0xbbd60e8116353806b6682db4fce4b15f06d209b8ac80f31a3d95a7547181f033",
          "transactionIndex": "0x79",
          "logIndex": "0x87",
          "removed": false
        },
        {
          "address": "0x8aafd3ede9adb0ff97c7aebce82a919afb1c8764",
          "topics": [
            "0xddf252ad1be2c89b69c2b068fc378daa952ba7f163c4a11628f55a4df523b3ef",
            "0x000000000000000000000000c77f7fed3b5cc8249adc428c5f44c9063b9734b4",
            "0x000000000000000000000000c77f7fed3b5cc8249adc428c5f44c9063b9734b4"
          ],
          "data": "0x00000000000000000000000000000000000000000000000000000005a9f769fa",
          "blockHash": "0x05a973e1548381408ace187abb9a89a96c362c098b4d6b4ceddfe82582b07f62",
          "blockNumber": "0x7315b3",
          "transactionHash": "0xbbd60e8116353806b6682db4fce4b15f06d209b8ac80f31a3d95a7547181f033",
          "transactionIndex": "0x79",
          "logIndex": "0x88",
          "removed": false
        },
        {
          "address": "0x8aafd3ede9adb0ff97c7aebce82a919afb1c8764",
          "topics": [
            "0x4afcb4a87cdbd9974efdb92ee48bc8d7cd0ae4bf217004db3d080cbaee652ca7"
          ],
          "data": "0x00000000000000000000000000000000000000000000000000000000679001100000000000000000000000000000000000000000000000000004c0db9f45614700000000000000000000000000000000000000000000000000000000f27f6aa8",
          "blockHash": "0x05a973e1548381408ace187abb9a89a96c362c098b4d6b4ceddfe82582b07f62",
          "blockNumber": "0x7315b3",
          "transactionHash": "0xbbd60e8116353806b6682db4fce4b15f06d209b8ac80f31a3d95a7547181f033",
          "transactionIndex": "0x79",
          "logIndex": "0x89",
          "removed": false
        }
      ],
      "logsBloom": "0x00000000000000000000000000000000000000000600000000000000000000000000000000000000000000000000000000000000000000004000000000000000000000000000004000000008000000000000000000000000000000000000000000000000020000000000000000000800020000000000000000000010000000000000000000000000000000000000000000000000000000000000010000000000000000000000000000000000000000004000000000000000000000000000000000000002000000800000000000000000000000000000080000000000000020000000000000000000000000000000000000000000000000000000000000000000",
      "type": "0x2",
      "transactionHash": "0xbbd60e8116353806b6682db4fce4b15f06d209b8ac80f31a3d95a7547181f033",
      "transactionIndex": "0x79",
      "blockHash": "0x05a973e1548381408ace187abb9a89a96c362c098b4d6b4ceddfe82582b07f62",
      "blockNumber": "0x7315b3",
      "gasUsed": "0xfd27",
      "effectiveGasPrice": "0x75a97818",
      "from": "0xc77f7fed3b5cc8249adc428c5f44c9063b9734b4",
      "to": "0x8aafd3ede9adb0ff97c7aebce82a919afb1c8764",
      "contractAddress": null
    }
  ],
  "libraries": [],
  "pending": [],
  "returns": {},
  "timestamp": 1737490707,
  "chain": 11155111,
  "commit": "1d2fb70"
}