{
  "transactions": [
    {
      "hash": "0xe4d76bdcf5bd6f451db07ddea1d3e0b5550de7091fc5d7fbd882b167921d5b38",
      "transactionType": "CALL",
      "contractName": null,
      "contractAddress": "0x8aafd3ede9adb0ff97c7aebce82a919afb1c8764",
      "function": "sell(uint256)",
      "arguments": [
        "42486202430068942"
      ],
      "transaction": {
        "from": "0xc77f7fed3b5cc8249adc428c5f44c9063b9734b4",
        "to": "0x8aafd3ede9adb0ff97c7aebce82a919afb1c8764",
        "gas": "0x1724d",
        "value": "0x0",
        "input": "0xe4849b320000000000000000000000000000000000000000000000000096f0f9dbb318ce",
        "nonce": "0x12e1",
        "chainId": "0xaa36a7"
      },
      "additionalContracts": [],
      "isFixedGasLimit": false
    }
  ],
  "receipts": [
    {
      "status": "0x1",
      "cumulativeGasUsed": "0xb5ac50",
      "logs": [
        {
          "address": "0x8aafd3ede9adb0ff97c7aebce82a919afb1c8764",
          "topics": [
            "0xddf252ad1be2c89b69c2b068fc378daa952ba7f163c4a11628f55a4df523b3ef",
            "0x000000000000000000000000c77f7fed3b5cc8249adc428c5f44c9063b9734b4",
            "0x0000000000000000000000000000000000000000000000000000000000000000"
          ],
          "data": "0x0000000000000000000000000000000000000000000000000095bbd923ab8527",
          "blockHash": "0x47d2b63f3709ec2fa6a1f8f8bdfffbf7392e72e482fb4c85bc3bb87c21cca794",
          "blockNumber": "0x7319e3",
          "transactionHash": "0xe4d76bdcf5bd6f451db07ddea1d3e0b5550de7091fc5d7fbd882b167921d5b38",
          "transactionIndex": "0x7c",
          "logIndex": "0x9c",
          "removed": false
        },
        {
          "address": "0x8aafd3ede9adb0ff97c7aebce82a919afb1c8764",
          "topics": [
            "0xddf252ad1be2c89b69c2b068fc378daa952ba7f163c4a11628f55a4df523b3ef",
            "0x000000000000000000000000c77f7fed3b5cc8249adc428c5f44c9063b9734b4",
            "0x000000000000000000000000c77f7fed3b5cc8249adc428c5f44c9063b9734b4"
          ],
          "data": "0x00000000000000000000000000000000000000000000000000013520b80793a7",
          "blockHash": "0x47d2b63f3709ec2fa6a1f8f8bdfffbf7392e72e482fb4c85bc3bb87c21cca794",
          "blockNumber": "0x7319e3",
          "transactionHash": "0xe4d76bdcf5bd6f451db07ddea1d3e0b5550de7091fc5d7fbd882b167921d5b38",
          "transactionIndex": "0x7c",
          "logIndex": "0x9d",
          "removed": false
        },
        {
          "address": "0x8aafd3ede9adb0ff97c7aebce82a919afb1c8764",
          "topics": [
            "0x4afcb4a87cdbd9974efdb92ee48bc8d7cd0ae4bf217004db3d080cbaee652ca7"
          ],
          "data": "0x0000000000000000000000000000000000000000000000000000000067903374000000000000000000000000000000000000000000000000000551e775a957d7000000000000000000000000000000000000000000000000000039dcb4b0f15e",
          "blockHash": "0x47d2b63f3709ec2fa6a1f8f8bdfffbf7392e72e482fb4c85bc3bb87c21cca794",
          "blockNumber": "0x7319e3",
          "transactionHash": "0xe4d76bdcf5bd6f451db07ddea1d3e0b5550de7091fc5d7fbd882b167921d5b38",
          "transactionIndex": "0x7c",
          "logIndex": "0x9e",
          "removed": false
        }
      ],
      "logsBloom": "0x00000000000000000000000000000000000000000600000000000000000000000000000000000000000000000000000000000000000000004000000000000000000000000000004000000008000000000000000000000000000000000000000000000000020000000000000000000800020000000000000000000010000000000000000000000000000000000000000000000000000000000000010000000000000000000000000000000000000000004000000000000000000000000000000000000002000000800000000000000000000000000000080000000000000020000000000000000000000000000000000000000000000000000000000000000000",
      "type": "0x2",
      "transactionHash": "0xe4d76bdcf5bd6f451db07ddea1d3e0b5550de7091fc5d7fbd882b167921d5b38",
      "transactionIndex": "0x7c",
      "blockHash": "0x47d2b63f3709ec2fa6a1f8f8bdfffbf7392e72e482fb4c85bc3bb87c21cca794",
      "blockNumber": "0x7319e3",
      "gasUsed": "0xfd33",
      "effectiveGasPrice": "0x4287886d",
      "from": "0xc77f7fed3b5cc8249adc428c5f44c9063b9734b4",
      "to": "0x8aafd3ede9adb0ff97c7aebce82a919afb1c8764",
      "contractAddress": null
    }
  ],
  "libraries": [],
  "pending": [],
  "returns": {},
  "timestamp": 1737503606,
  "chain": 11155111,
  "commit": "1d2fb70"
}