{
  "transactions": [
    {
      "hash": "0x7c07b89a95db4963b6145c0f5db600201cf522e90a3ff5204ccdb9e2ee169bf4",
      "transactionType": "CALL",
      "contractName": null,
      "contractAddress": "0xd7bc75898e513accccf720a874d44dab5a4b6223",
      "function": "buy(address)",
      "arguments": [
        "0xC77f7fed3b5Cc8249aDc428c5F44C9063B9734b4"
      ],
      "transaction": {
        "from": "0xc77f7fed3b5cc8249adc428c5f44c9063b9734b4",
        "to": "0xd7bc75898e513accccf720a874d44dab5a4b6223",
        "gas": "0x1b30c",
        "value": "0x16345785d8a0000",
        "input": "0xf088d547000000000000000000000000c77f7fed3b5cc8249adc428c5f44c9063b9734b4",
        "nonce": "0x71",
        "chainId": "0xaa36a7"
      },
      "additionalContracts": [],
      "isFixedGasLimit": false
    },
    {
      "hash": "0x192a5cfa07275aa5b6a5680c56049b0328889bd6be521c3822a329869876db29",
      "transactionType": "CALL",
      "contractName": null,
      "contractAddress": "0xd7bc75898e513accccf720a874d44dab5a4b6223",
      "function": "sell(uint256)",
      "arguments": [
        "99300274275515516233"
      ],
      "transaction": {
        "from": "0xc77f7fed3b5cc8249adc428c5f44c9063b9734b4",
        "to": "0xd7bc75898e513accccf720a874d44dab5a4b6223",
        "gas": "0x16fec",
        "value": "0x0",
        "input": "0xe4849b320000000000000000000000000000000000000000000000056211715692f64549",
        "nonce": "0x72",
        "chainId": "0xaa36a7"
      },
      "additionalContracts": [],
      "isFixedGasLimit": false
    }
  ],
  "receipts": [
    {
      "status": "0x1",
      "cumulativeGasUsed": "0xbc4cbe",
      "logs": [
        {
          "address": "0xd7bc75898e513accccf720a874d44dab5a4b6223",
          "topics": [
            "0xddf252ad1be2c89b69c2b068fc378daa952ba7f163c4a11628f55a4df523b3ef",
            "0x0000000000000000000000000000000000000000000000000000000000000000",
            "0x000000000000000000000000c77f7fed3b5cc8249adc428c5f44c9063b9734b4"
          ],
          "data": "0x0000000000000000000000000000000000000000000000055de68fe0b0b2005c",
          "blockHash": "0xc40e92d165a57832d877be5df7b8d4bb3eede454e46619ad2253a30cc76b1ae5",
          "blockNumber": "0x72389e",
          "transactionHash": "0x7c07b89a95db4963b6145c0f5db600201cf522e90a3ff5204ccdb9e2ee169bf4",
          "transactionIndex": "0x3a",
          "logIndex": "0x8d",
          "removed": false
        },
        {
          "address": "0xd7bc75898e513accccf720a874d44dab5a4b6223",
          "topics": [
            "0xddf252ad1be2c89b69c2b068fc378daa952ba7f163c4a11628f55a4df523b3ef",
            "0x0000000000000000000000000000000000000000000000000000000000000000",
            "0x000000000000000000000000c77f7fed3b5cc8249adc428c5f44c9063b9734b4"
          ],
          "data": "0x000000000000000000000000000000000000000000000000042ae175e24444ed",
          "blockHash": "0xc40e92d165a57832d877be5df7b8d4bb3eede454e46619ad2253a30cc76b1ae5",
          "blockNumber": "0x72389e",
          "transactionHash": "0x7c07b89a95db4963b6145c0f5db600201cf522e90a3ff5204ccdb9e2ee169bf4",
          "transactionIndex": "0x3a",
          "logIndex": "0x8e",
          "removed": false
        },
        {
          "address": "0xd7bc75898e513accccf720a874d44dab5a4b6223",
          "topics": [
            "0x4afcb4a87cdbd9974efdb92ee48bc8d7cd0ae4bf217004db3d080cbaee652ca7"
          ],
          "data": "0x00000000000000000000000000000000000000000000000000000000678598b000000000000000000000000000000000000000000000000000038d7eb5177ded000000000000000000000000000000000000000000000000016345785d8a0000",
          "blockHash": "0xc40e92d165a57832d877be5df7b8d4bb3eede454e46619ad2253a30cc76b1ae5",
          "blockNumber": "0x72389e",
          "transactionHash": "0x7c07b89a95db4963b6145c0f5db600201cf522e90a3ff5204ccdb9e2ee169bf4",
          "transactionIndex": "0x3a",
          "logIndex": "0x8f",
          "removed": false
        }
      ],
      "logsBloom": "0x00000000000000000000000000000000000000000000000000000000000000000000000000000000000000000000000000000000000000004000000000000000000000000000000000000008000000000000000000000000000000000000000000000000020000000000000000000800020000000000000000000010000000000000000000000000000000000000000000000000000000000000010000000000000000000000000000000000000000004000001000000000000000000000000000000002000000800000000000004000000000000000080000000000000020000000000000000000000000000000000000000000080000000000000000000000",
      "type": "0x2",
      "transactionHash": "0x7c07b89a95db4963b6145c0f5db600201cf522e90a3ff5204ccdb9e2ee169bf4",
      "transactionIndex": "0x3a",
      "blockHash": "0xc40e92d165a57832d877be5df7b8d4bb3eede454e46619ad2253a30cc76b1ae5",
      "blockNumber": "0x72389e",
      "gasUsed": "0x13af8",
      "effectiveGasPrice": "0x2491809",
      "from": "0xc77f7fed3b5cc8249adc428c5f44c9063b9734b4",
      "to": "0xd7bc75898e513accccf720a874d44dab5a4b6223",
      "contractAddress": null
    },
    {
      "status": "0x1",
      "cumulativeGasUsed": "0xbd4851",
      "logs": [
        {
          "address": "0xd7bc75898e513accccf720a874d44dab5a4b6223",
          "topics": [
            "0xddf252ad1be2c89b69c2b068fc378daa952ba7f163c4a11628f55a4df523b3ef",
            "0x000000000000000000000000c77f7fed3b5cc8249adc428c5f44c9063b9734b4",
            "0x0000000000000000000000000000000000000000000000000000000000000000"
          ],
          "data": "0x0000000000000000000000000000000000000000000000056211715692f64549",
          "blockHash": "0xc40e92d165a57832d877be5df7b8d4bb3eede454e46619ad2253a30cc76b1ae5",
          "blockNumber": "0x72389e",
          "transactionHash": "0x192a5cfa07275aa5b6a5680c56049b0328889bd6be521c3822a329869876db29",
          "transactionIndex": "0x3b",
          "logIndex": "0x90",
          "removed": false
        },
        {
          "address": "0xd7bc75898e513accccf720a874d44dab5a4b6223",
          "topics": [
            "0x4afcb4a87cdbd9974efdb92ee48bc8d7cd0ae4bf217004db3d080cbaee652ca7"
          ],
          "data": "0x00000000000000000000000000000000000000000000000000000000678598b000000000000000000000000000000000000000000000000000038d7eb65328b40000000000000000000000000000000000000000000000000160c9191a82ed8a",
          "blockHash": "0xc40e92d165a57832d877be5df7b8d4bb3eede454e46619ad2253a30cc76b1ae5",
          "blockNumber": "0x72389e",
          "transactionHash": "0x192a5cfa07275aa5b6a5680c56049b0328889bd6be521c3822a329869876db29",
          "transactionIndex": "0x3b",
          "logIndex": "0x91",
          "removed": false
        }
      ],
      "logsBloom": "0x00000000000000000000000000000000000000000000000000000000000000000000000000000000000000000000000000000000000000004000000000000000000000000000000000000008000000000000000000000000000000000000000000000000020000000000000000000800020000000000000000000010000000000000000000000000000000000000000000000000000000000000010000000000000000000000000000000000000000004000001000000000000000000000000000000002000000800000000000004000000000000000080000000000000020000000000000000000000000000000000000000000080000000000000000000000",
      "type": "0x2",
      "transactionHash": "0x192a5cfa07275aa5b6a5680c56049b0328889bd6be521c3822a329869876db29",
      "transactionIndex": "0x3b",
      "blockHash": "0xc40e92d165a57832d877be5df7b8d4bb3eede454e46619ad2253a30cc76b1ae5",
      "blockNumber": "0x72389e",
      "gasUsed": "0xfb93",
      "effectiveGasPrice": "0x2491809",
      "from": "0xc77f7fed3b5cc8249adc428c5f44c9063b9734b4",
      "to": "0xd7bc75898e513accccf720a874d44dab5a4b6223",
      "contractAddress": null
    }
  ],
  "libraries": [],
  "pending": [],
  "returns": {},
  "timestamp": 1736808625,
  "chain": 11155111,
  "commit": "51a374b"
}