{
  "transactions": [
    {
      "hash": "0xc22e369c74616771e72433d08ee5b322ce7139a4ea0f217b583108b95a15a731",
      "transactionType": "CALL",
      "contractName": null,
      "contractAddress": "0x8aafd3ede9adb0ff97c7aebce82a919afb1c8764",
      "function": "sell(uint256)",
      "arguments": [
        "8902930720"
      ],
      "transaction": {
        "from": "0xc77f7fed3b5cc8249adc428c5f44c9063b9734b4",
        "to": "0x8aafd3ede9adb0ff97c7aebce82a919afb1c8764",
        "gas": "0x1722a",
        "value": "0x0",
        "input": "0xe4849b320000000000000000000000000000000000000000000000000000000212a7f120",
        "nonce": "0x13a5",
        "chainId": "0xaa36a7"
      },
      "additionalContracts": [],
      "isFixedGasLimit": false
    }
  ],
  "receipts": [
    {
      "status": "0x1",
      "cumulativeGasUsed": "0xe31de7",
      "logs": [
        {
          "address": "0x8aafd3ede9adb0ff97c7aebce82a919afb1c8764",
          "topics": [
            "0xddf252ad1be2c89b69c2b068fc378daa952ba7f163c4a11628f55a4df523b3ef",
            "0x000000000000000000000000c77f7fed3b5cc8249adc428c5f44c9063b9734b4",
            "0x0000000000000000000000000000000000000000000000000000000000000000"
          ],
          "data": "0x000000000000000000000000000000000000000000000000000000020e69288b",
          "blockHash": "0x49b21f175134304ac0356f0a900647271996b1390777ea7386087bc60202793f",
          "blockNumber": "0x731acb",
          "transactionHash": "0xc22e369c74616771e72433d08ee5b322ce7139a4ea0f217b583108b95a15a731",
          "transactionIndex": "0x7d",
          "logIndex": "0x5a",
          "removed": false
        },
        {
          "address": "0x8aafd3ede9adb0ff97c7aebce82a919afb1c8764",
          "topics": [
            "0xddf252ad1be2c89b69c2b068fc378daa952ba7f163c4a11628f55a4df523b3ef",
            "0x000000000000000000000000c77f7fed3b5cc8249adc428c5f44c9063b9734b4",
            "0x000000000000000000000000c77f7fed3b5cc8249adc428c5f44c9063b9734b4"
          ],
          "data": "0x00000000000000000000000000000000000000000000000000000000043ec895",
          "blockHash": "0x49b21f175134304ac0356f0a900647271996b1390777ea7386087bc60202793f",
          "blockNumber": "0x731acb",
          "transactionHash": "0xc22e369c74616771e72433d08ee5b322ce7139a4ea0f217b583108b95a15a731",
          "transactionIndex": "0x7d",
          "logIndex": "0x5b",
          "removed": false
        },
        {
          "address": "0x8aafd3ede9adb0ff97c7aebce82a919afb1c8764",
          "topics": [
            "0x4afcb4a87cdbd9974efdb92ee48bc8d7cd0ae4bf217004db3d080cbaee652ca7"
          ],
          "data": "0x0000000000000000000000000000000000000000000000000000000067903e54000000000000000000000000000000000000000000000000000d16310237ebfc0000000000000000000000000000000000000000000000000000000001f467f0",
          "blockHash": "0x49b21f175134304ac0356f0a900647271996b1390777ea7386087bc60202793f",
          "blockNumber": "0x731acb",
          "transactionHash": "0xc22e369c74616771e72433d08ee5b322ce7139a4ea0f217b583108b95a15a731",
          "transactionIndex": "0x7d",
          "logIndex": "0x5c",
          "removed": false
        }
      ],
      "logsBloom": "0x00000000000000000000000000000000000000000600000000000000000000000000000000000000000000000000000000000000000000004000000000000000000000000000004000000008000000000000000000000000000000000000000000000000020000000000000000000800020000000000000000000010000000000000000000000000000000000000000000000000000000000000010000000000000000000000000000000000000000004000000000000000000000000000000000000002000000800000000000000000000000000000080000000000000020000000000000000000000000000000000000000000000000000000000000000000",
      "type": "0x2",
      "transactionHash": "0xc22e369c74616771e72433d08ee5b322ce7139a4ea0f217b583108b95a15a731",
      "transactionIndex": "0x7d",
      "blockHash": "0x49b21f175134304ac0356f0a900647271996b1390777ea7386087bc60202793f",
      "blockNumber": "0x731acb",
      "gasUsed": "0xfd1b",
      "effectiveGasPrice": "0x87f227cb",
      "from": "0xc77f7fed3b5cc8249adc428c5f44c9063b9734b4",
      "to": "0x8aafd3ede9adb0ff97c7aebce82a919afb1c8764",
      "contractAddress": null
    }
  ],
  "libraries": [],
  "pending": [],
  "returns": {},
  "timestamp": 1737506389,
  "chain": 11155111,
  "commit": "1d2fb70"
}