{
  "transactions": [
    {
      "hash": "0x857e1bc08a989ca9fe1ca2e22bf92a0dacde6920895c43aa567285368adf7a62",
      "transactionType": "CALL",
      "contractName": null,
      "contractAddress": "0x8aafd3ede9adb0ff97c7aebce82a919afb1c8764",
      "function": "sell(uint256)",
      "arguments": [
        "5480545763376503242"
      ],
      "transaction": {
        "from": "0xc77f7fed3b5cc8249adc428c5f44c9063b9734b4",
        "to": "0x8aafd3ede9adb0ff97c7aebce82a919afb1c8764",
        "gas": "0x15dca",
        "value": "0x0",
        "input": "0xe4849b320000000000000000000000000000000000000000000000004c0ecf55a95419ca",
        "nonce": "0x11be",
        "chainId": "0xaa36a7"
      },
      "additionalContracts": [],
      "isFixedGasLimit": false
    }
  ],
  "receipts": [
    {
      "status": "0x1",
      "cumulativeGasUsed": "0xa5f944",
      "logs": [
        {
          "address": "0x8aafd3ede9adb0ff97c7aebce82a919afb1c8764",
          "topics": [
            "0xddf252ad1be2c89b69c2b068fc378daa952ba7f163c4a11628f55a4df523b3ef",
            "0x000000000000000000000000c77f7fed3b5cc8249adc428c5f44c9063b9734b4",
            "0x0000000000000000000000000000000000000000000000000000000000000000"
          ],
          "data": "0x0000000000000000000000000000000000000000000000004b730b1dae1e2e11",
          "blockHash": "0x780900e097ba86e259601e8c9821863c05597f919cc857017ffa660a11a385bd",
          "blockNumber": "0x73188c",
          "transactionHash": "0x857e1bc08a989ca9fe1ca2e22bf92a0dacde6920895c43aa567285368adf7a62",
          "transactionIndex": "0x7b",
          "logIndex": "0x7d",
          "removed": false
        },
        {
          "address": "0x8aafd3ede9adb0ff97c7aebce82a919afb1c8764",
          "topics": [
            "0xddf252ad1be2c89b69c2b068fc378daa952ba7f163c4a11628f55a4df523b3ef",
            "0x000000000000000000000000c77f7fed3b5cc8249adc428c5f44c9063b9734b4",
            "0x000000000000000000000000c77f7fed3b5cc8249adc428c5f44c9063b9734b4"
          ],
          "data": "0x000000000000000000000000000000000000000000000000009bc437fb35ebb9",
          "blockHash": "0x780900e097ba86e259601e8c9821863c05597f919cc857017ffa660a11a385bd",
          "blockNumber": "0x73188c",
          "transactionHash": "0x857e1bc08a989ca9fe1ca2e22bf92a0dacde6920895c43aa567285368adf7a62",
          "transactionIndex": "0x7b",
          "logIndex": "0x7e",
          "removed": false
        },
        {
          "address": "0x8aafd3ede9adb0ff97c7aebce82a919afb1c8764",
          "topics": [
            "0x4afcb4a87cdbd9974efdb92ee48bc8d7cd0ae4bf217004db3d080cbaee652ca7"
          ],
          "data": "0x0000000000000000000000000000000000000000000000000000000067902360000000000000000000000000000000000000000000000000000527c2cc57394c000000000000000000000000000000000000000000000000001c40f6fa9d12e3",
          "blockHash": "0x780900e097ba86e259601e8c9821863c05597f919cc857017ffa660a11a385bd",
          "blockNumber": "0x73188c",
          "transactionHash": "0x857e1bc08a989ca9fe1ca2e22bf92a0dacde6920895c43aa567285368adf7a62",
          "transactionIndex": "0x7b",
          "logIndex": "0x7f",
          "removed": false
        }
      ],
      "logsBloom": "0x00000000000000000000000000000000000000000600000000000000000000000000000000000000000000000000000000000000000000004000000000000000000000000000004000000008000000000000000000000000000000000000000000000000020000000000000000000800020000000000000000000010000000000000000000000000000000000000000000000000000000000000010000000000000000000000000000000000000000004000000000000000000000000000000000000002000000800000000000000000000000000000080000000000000020000000000000000000000000000000000000000000000000000000000000000000",
      "type": "0x2",
      "transactionHash": "0x857e1bc08a989ca9fe1ca2e22bf92a0dacde6920895c43aa567285368adf7a62",
      "transactionIndex": "0x7b",
      "blockHash": "0x780900e097ba86e259601e8c9821863c05597f919cc857017ffa660a11a385bd",
      "blockNumber": "0x73188c",
      "gasUsed": "0xfd3f",
      "effectiveGasPrice": "0x40b83194",
      "from": "0xc77f7fed3b5cc8249adc428c5f44c9063b9734b4",
      "to": "0x8aafd3ede9adb0ff97c7aebce82a919afb1c8764",
      "contractAddress": null
    }
  ],
  "libraries": [],
  "pending": [],
  "returns": {},
  "timestamp": 1737499489,
  "chain": 11155111,
  "commit": "1d2fb70"
}