{
  "transactions": [
    {
      "hash": "0x804cfa70d6dccd167498aed428753350328771fd064e2d5edf27e6965fb6cfff",
      "transactionType": "CALL",
      "contractName": null,
      "contractAddress": "0xbf4a322f1496e5c3d34a9bcdb4c60567b38c7de2",
      "function": "sell(uint256)",
      "arguments": [
        "983408006619465549340"
      ],
      "transaction": {
        "from": "0xc77f7fed3b5cc8249adc428c5f44c9063b9734b4",
        "to": "0xbf4a322f1496e5c3d34a9bcdb4c60567b38c7de2",
        "gas": "0x16fea",
        "value": "0x0",
        "input": "0xe4849b320000000000000000000000000000000000000000000000354f8713b3943c861c",
        "nonce": "0xb1b",
        "chainId": "0xaa36a7"
      },
      "additionalContracts": [],
      "isFixedGasLimit": false
    }
  ],
  "receipts": [
    {
      "status": "0x1",
      "cumulativeGasUsed": "0x1402c29",
      "logs": [
        {
          "address": "0xbf4a322f1496e5c3d34a9bcdb4c60567b38c7de2",
          "topics": [
            "0xddf252ad1be2c89b69c2b068fc378daa952ba7f163c4a11628f55a4df523b3ef",
            "0x000000000000000000000000c77f7fed3b5cc8249adc428c5f44c9063b9734b4",
            "0x0000000000000000000000000000000000000000000000000000000000000000"
          ],
          "data": "0x0000000000000000000000000000000000000000000000354f8713b3943c861c",
          "blockHash": "0xe52904ffd0b790c04da1a27fec1ab1eaa0c592b57961d61face29723be5ecb38",
          "blockNumber": "0x725b16",
          "transactionHash": "0x804cfa70d6dccd167498aed428753350328771fd064e2d5edf27e6965fb6cfff",
          "transactionIndex": "0xa8",
          "logIndex": "0x117",
          "removed": false
        },
        {
          "address": "0xbf4a322f1496e5c3d34a9bcdb4c60567b38c7de2",
          "topics": [
            "0x4afcb4a87cdbd9974efdb92ee48bc8d7cd0ae4bf217004db3d080cbaee652ca7"
          ],
          "data": "0x000000000000000000000000000000000000000000000000000000006787376400000000000000000000000000000000000000000000000000039664cf31a7110000000000000000000000000000000000000000000000000dc7e3e9fd70f81a",
          "blockHash": "0xe52904ffd0b790c04da1a27fec1ab1eaa0c592b57961d61face29723be5ecb38",
          "blockNumber": "0x725b16",
          "transactionHash": "0x804cfa70d6dccd167498aed428753350328771fd064e2d5edf27e6965fb6cfff",
          "transactionIndex": "0xa8",
          "logIndex": "0x118",
          "removed": false
        }
      ],
      "logsBloom": "0x00000000000000000000000000000000000000000000000000000000000000000000000000000000000000000000000000000000000000004000000000000000000000000000000000000008000000000000001000000000000000000000000000000000020000000000000000000800020000000000000000000010000000000000000000000000000000000000000000000000000008000000010000000000000000000000000000000000000000004000000000000000000000000000000000000002000000800000000000001000000000000000080000000000000020000000000000000000000000000000000000000000000000000000000000000000",
      "type": "0x2",
      "transactionHash": "0x804cfa70d6dccd167498aed428753350328771fd064e2d5edf27e6965fb6cfff",
      "transactionIndex": "0xa8",
      "blockHash": "0xe52904ffd0b790c04da1a27fec1ab1eaa0c592b57961d61face29723be5ecb38",
      "blockNumber": "0x725b16",
      "gasUsed": "0xfb91",
      "effectiveGasPrice": "0x746b3691",
      "from": "0xc77f7fed3b5cc8249adc428c5f44c9063b9734b4",
      "to": "0xbf4a322f1496e5c3d34a9bcdb4c60567b38c7de2",
      "contractAddress": null
    }
  ],
  "libraries": [],
  "pending": [],
  "returns": {},
  "timestamp": 1736914790,
  "chain": 11155111,
  "commit": "51a374b"
}