{
  "transactions": [
    {
      "hash": "0x40b3af40f7b09771179fc32dd4a9b1d81d5ed01fd12504b39526697e1bf8721a",
      "transactionType": "CALL",
      "contractName": null,
      "contractAddress": "0x8aafd3ede9adb0ff97c7aebce82a919afb1c8764",
      "function": "sell(uint256)",
      "arguments": [
        "378874498301331"
      ],
      "transaction": {
        "from": "0xc77f7fed3b5cc8249adc428c5f44c9063b9734b4",
        "to": "0x8aafd3ede9adb0ff97c7aebce82a919afb1c8764",
        "gas": "0x1724d",
        "value": "0x0",
        "input": "0xe4849b320000000000000000000000000000000000000000000000000001589597e2bd93",
        "nonce": "0xfce",
        "chainId": "0xaa36a7"
      },
      "additionalContracts": [],
      "isFixedGasLimit": false
    }
  ],
  "receipts": [
    {
      "status": "0x1",
      "cumulativeGasUsed": "0x2042e36",
      "logs": [
        {
          "address": "0x8aafd3ede9adb0ff97c7aebce82a919afb1c8764",
          "topics": [
            "0xddf252ad1be2c89b69c2b068fc378daa952ba7f163c4a11628f55a4df523b3ef",
            "0x000000000000000000000000c77f7fed3b5cc8249adc428c5f44c9063b9734b4",
            "0x0000000000000000000000000000000000000000000000000000000000000000"
          ],
          "data": "0x000000000000000000000000000000000000000000000000000155d3e27255a9",
          "blockHash": "0x7beba9c8dd420c67dc702f6365e6a4323511eaa433b24029841a211fb79ac784",
          "blockNumber": "0x73163b",
          "transactionHash": "0x40b3af40f7b09771179fc32dd4a9b1d81d5ed01fd12504b39526697e1bf8721a",
          "transactionIndex": "0xbb",
          "logIndex": "0xea",
          "removed": false
        },
        {
          "address": "0x8aafd3ede9adb0ff97c7aebce82a919afb1c8764",
          "topics": [
            "0xddf252ad1be2c89b69c2b068fc378daa952ba7f163c4a11628f55a4df523b3ef",
            "0x000000000000000000000000c77f7fed3b5cc8249adc428c5f44c9063b9734b4",
            "0x000000000000000000000000c77f7fed3b5cc8249adc428c5f44c9063b9734b4"
          ],
          "data": "0x000000000000000000000000000000000000000000000000000002c1b57067ea",
          "blockHash": "0x7beba9c8dd420c67dc702f6365e6a4323511eaa433b24029841a211fb79ac784",
          "blockNumber": "0x73163b",
          "transactionHash": "0x40b3af40f7b09771179fc32dd4a9b1d81d5ed01fd12504b39526697e1bf8721a",
          "transactionIndex": "0xbb",
          "logIndex": "0xeb",
          "removed": false
        },
        {
          "address": "0x8aafd3ede9adb0ff97c7aebce82a919afb1c8764",
          "topics": [
            "0x4afcb4a87cdbd9974efdb92ee48bc8d7cd0ae4bf217004db3d080cbaee652ca7"
          ],
          "data": "0x00000000000000000000000000000000000000000000000000000000679007700000000000000000000000000000000000000000000000000004c4cafb5047e80000000000000000000000000000000000000000000000000000007668305ba9",
          "blockHash": "0x7beba9c8dd420c67dc702f6365e6a4323511eaa433b24029841a211fb79ac784",
          "blockNumber": "0x73163b",
          "transactionHash": "0x40b3af40f7b09771179fc32dd4a9b1d81d5ed01fd12504b39526697e1bf8721a",
          "transactionIndex": "0xbb",
          "logIndex": "0xec",
          "removed": false
        }
      ],
      "logsBloom": "0x00000000000000000000000000000000000000000600000000000000000000000000000000000000000000000000000000000000000000004000000000000000000000000000004000000008000000000000000000000000000000000000000000000000020000000000000000000800020000000000000000000010000000000000000000000000000000000000000000000000000000000000010000000000000000000000000000000000000000004000000000000000000000000000000000000002000000800000000000000000000000000000080000000000000020000000000000000000000000000000000000000000000000000000000000000000",
      "type": "0x2",
      "transactionHash": "0x40b3af40f7b09771179fc32dd4a9b1d81d5ed01fd12504b39526697e1bf8721a",
      "transactionIndex": "0xbb",
      "blockHash": "0x7beba9c8dd420c67dc702f6365e6a4323511eaa433b24029841a211fb79ac784",
      "blockNumber": "0x73163b",
      "gasUsed": "0xfd33",
      "effectiveGasPrice": "0x5320c94c",
      "from": "0xc77f7fed3b5cc8249adc428c5f44c9063b9734b4",
      "to": "0x8aafd3ede9adb0ff97c7aebce82a919afb1c8764",
      "contractAddress": null
    }
  ],
  "libraries": [],
  "pending": [],
  "returns": {},
  "timestamp": 1737492339,
  "chain": 11155111,
  "commit": "1d2fb70"
}