{
  "transactions": [
    {
      "hash": "0x25c492b2674da22e25f4a5623d151bc30ad70fb08db30dc0fe4e7522911643a1",
      "transactionType": "CALL",
      "contractName": null,
      "contractAddress": "0x8aafd3ede9adb0ff97c7aebce82a919afb1c8764",
      "function": "sell(uint256)",
      "arguments": [
        "1130635973556"
      ],
      "transaction": {
        "from": "0xc77f7fed3b5cc8249adc428c5f44c9063b9734b4",
        "to": "0x8aafd3ede9adb0ff97c7aebce82a919afb1c8764",
        "gas": "0x15daa",
        "value": "0x0",
        "input": "0xe4849b32000000000000000000000000000000000000000000000000000001073f27d3b4",
        "nonce": "0x1392",
        "chainId": "0xaa36a7"
      },
      "additionalContracts": [],
      "isFixedGasLimit": false
    }
  ],
  "receipts": [
    {
      "status": "0x1",
      "cumulativeGasUsed": "0xac6c3e",
      "logs": [
        {
          "address": "0x8aafd3ede9adb0ff97c7aebce82a919afb1c8764",
          "topics": [
            "0xddf252ad1be2c89b69c2b068fc378daa952ba7f163c4a11628f55a4df523b3ef",
            "0x000000000000000000000000c77f7fed3b5cc8249adc428c5f44c9063b9734b4",
            "0x0000000000000000000000000000000000000000000000000000000000000000"
          ],
          "data": "0x000000000000000000000000000000000000000000000000000001052406bd88",
          "blockHash": "0x5572d567f57e3beb8eb26f506d764a2a9f3b00c0f324b2b42859fa5673aa8786",
          "blockNumber": "0x731ab6",
          "transactionHash": "0x25c492b2674da22e25f4a5623d151bc30ad70fb08db30dc0fe4e7522911643a1",
          "transactionIndex": "0x7a",
          "logIndex": "0x88",
          "removed": false
        },
        {
          "address": "0x8aafd3ede9adb0ff97c7aebce82a919afb1c8764",
          "topics": [
            "0xddf252ad1be2c89b69c2b068fc378daa952ba7f163c4a11628f55a4df523b3ef",
            "0x000000000000000000000000c77f7fed3b5cc8249adc428c5f44c9063b9734b4",
            "0x000000000000000000000000c77f7fed3b5cc8249adc428c5f44c9063b9734b4"
          ],
          "data": "0x000000000000000000000000000000000000000000000000000000021b21162c",
          "blockHash": "0x5572d567f57e3beb8eb26f506d764a2a9f3b00c0f324b2b42859fa5673aa8786",
          "blockNumber": "0x731ab6",
          "transactionHash": "0x25c492b2674da22e25f4a5623d151bc30ad70fb08db30dc0fe4e7522911643a1",
          "transactionIndex": "0x7a",
          "logIndex": "0x89",
          "removed": false
        },
        {
          "address": "0x8aafd3ede9adb0ff97c7aebce82a919afb1c8764",
          "topics": [
            "0x4afcb4a87cdbd9974efdb92ee48bc8d7cd0ae4bf217004db3d080cbaee652ca7"
          ],
          "data": "0x0000000000000000000000000000000000000000000000000000000067903d58000000000000000000000000000000000000000000000000000ce1ec5deed2d900000000000000000000000000000000000000000000000000000000f45e0e71",
          "blockHash": "0x5572d567f57e3beb8eb26f506d764a2a9f3b00c0f324b2b42859fa5673aa8786",
          "blockNumber": "0x731ab6",
          "transactionHash": "0x25c492b2674da22e25f4a5623d151bc30ad70fb08db30dc0fe4e7522911643a1",
          "transactionIndex": "0x7a",
          "logIndex": "0x8a",
          "removed": false
        }
      ],
      "logsBloom": "0x00000000000000000000000000000000000000000600000000000000000000000000000000000000000000000000000000000000000000004000000000000000000000000000004000000008000000000000000000000000000000000000000000000000020000000000000000000800020000000000000000000010000000000000000000000000000000000000000000000000000000000000010000000000000000000000000000000000000000004000000000000000000000000000000000000002000000800000000000000000000000000000080000000000000020000000000000000000000000000000000000000000000000000000000000000000",
      "type": "0x2",
      "transactionHash": "0x25c492b2674da22e25f4a5623d151bc30ad70fb08db30dc0fe4e7522911643a1",
      "transactionIndex": "0x7a",
      "blockHash": "0x5572d567f57e3beb8eb26f506d764a2a9f3b00c0f324b2b42859fa5673aa8786",
      "blockNumber": "0x731ab6",
      "gasUsed": "0xfd27",
      "effectiveGasPrice": "0x6608f5f9",
      "from": "0xc77f7fed3b5cc8249adc428c5f44c9063b9734b4",
      "to": "0x8aafd3ede9adb0ff97c7aebce82a919afb1c8764",
      "contractAddress": null
    }
  ],
  "libraries": [],
  "pending": [],
  "returns": {},
  "timestamp": 1737506137,
  "chain": 11155111,
  "commit": "1d2fb70"
}