{
  "transactions": [
    {
      "hash": "0x3c3388d6d379e2818aa2a3935f13db657acf917e4d20350a6feb50aeab821390",
      "transactionType": "CALL",
      "contractName": null,
      "contractAddress": "0x8aafd3ede9adb0ff97c7aebce82a919afb1c8764",
      "function": "sell(uint256)",
      "arguments": [
        "347309784603899"
      ],
      "transaction": {
        "from": "0xc77f7fed3b5cc8249adc428c5f44c9063b9734b4",
        "to": "0x8aafd3ede9adb0ff97c7aebce82a919afb1c8764",
        "gas": "0x1724d",
        "value": "0x0",
        "input": "0xe4849b3200000000000000000000000000000000000000000000000000013be05c569cfb",
        "nonce": "0x121a",
        "chainId": "0xaa36a7"
      },
      "additionalContracts": [],
      "isFixedGasLimit": false
    }
  ],
  "receipts": [
    {
      "status": "0x1",
      "cumulativeGasUsed": "0x6c081e",
      "logs": [
        {
          "address": "0x8aafd3ede9adb0ff97c7aebce82a919afb1c8764",
          "topics": [
            "0xddf252ad1be2c89b69c2b068fc378daa952ba7f163c4a11628f55a4df523b3ef",
            "0x000000000000000000000000c77f7fed3b5cc8249adc428c5f44c9063b9734b4",
            "0x0000000000000000000000000000000000000000000000000000000000000000"
          ],
          "data": "0x000000000000000000000000000000000000000000000000000139597220ac1c",
          "blockHash": "0x5765eae59691acd157da0d4cb0a96b4d4d356938ad9fa178d8db69fabdef8612",
          "blockNumber": "0x7318f6",
          "transactionHash": "0x3c3388d6d379e2818aa2a3935f13db657acf917e4d20350a6feb50aeab821390",
          "transactionIndex": "0x69",
          "logIndex": "0x4e",
          "removed": false
        },
        {
          "address": "0x8aafd3ede9adb0ff97c7aebce82a919afb1c8764",
          "topics": [
            "0xddf252ad1be2c89b69c2b068fc378daa952ba7f163c4a11628f55a4df523b3ef",
            "0x000000000000000000000000c77f7fed3b5cc8249adc428c5f44c9063b9734b4",
            "0x000000000000000000000000c77f7fed3b5cc8249adc428c5f44c9063b9734b4"
          ],
          "data": "0x00000000000000000000000000000000000000000000000000000286ea35f0df",
          "blockHash": "0x5765eae59691acd157da0d4cb0a96b4d4d356938ad9fa178d8db69fabdef8612",
          "blockNumber": "0x7318f6",
          "transactionHash": "0x3c3388d6d379e2818aa2a3935f13db657acf917e4d20350a6feb50aeab821390",
          "transactionIndex": "0x69",
          "logIndex": "0x4f",
          "removed": false
        },
        {
          "address": "0x8aafd3ede9adb0ff97c7aebce82a919afb1c8764",
          "topics": [
            "0x4afcb4a87cdbd9974efdb92ee48bc8d7cd0ae4bf217004db3d080cbaee652ca7"
          ],
          "data": "0x0000000000000000000000000000000000000000000000000000000067902858000000000000000000000000000000000000000000000000000534d6911229b400000000000000000000000000000000000000000000000000000076811efda9",
          "blockHash": "0x5765eae59691acd157da0d4cb0a96b4d4d356938ad9fa178d8db69fabdef8612",
          "blockNumber": "0x7318f6",
          "transactionHash": "0x3c3388d6d379e2818aa2a3935f13db657acf917e4d20350a6feb50aeab821390",
          "transactionIndex": "0x69",
          "logIndex": "0x50",
          "removed": false
        }
      ],
      "logsBloom": "0x00000000000000000000000000000000000000000600000000000000000000000000000000000000000000000000000000000000000000004000000000000000000000000000004000000008000000000000000000000000000000000000000000000000020000000000000000000800020000000000000000000010000000000000000000000000000000000000000000000000000000000000010000000000000000000000000000000000000000004000000000000000000000000000000000000002000000800000000000000000000000000000080000000000000020000000000000000000000000000000000000000000000000000000000000000000",
      "type": "0x2",
      "transactionHash": "0x3c3388d6d379e2818aa2a3935f13db657acf917e4d20350a6feb50aeab821390",
      "transactionIndex": "0x69",
      "blockHash": "0x5765eae59691acd157da0d4cb0a96b4d4d356938ad9fa178d8db69fabdef8612",
      "blockNumber": "0x7318f6",
      "gasUsed": "0xfd33",
      "effectiveGasPrice": "0x4d4f8af2",
      "from": "0xc77f7fed3b5cc8249adc428c5f44c9063b9734b4",
      "to": "0x8aafd3ede9adb0ff97c7aebce82a919afb1c8764",
      "contractAddress": null
    }
  ],
  "libraries": [],
  "pending": [],
  "returns": {},
  "timestamp": 1737500761,
  "chain": 11155111,
  "commit": "1d2fb70"
}