{
  "transactions": [
    {
      "hash": "0xffd019d284722ce21ca2bb097a3f3c257739addf1b3e1873b8ff2fa7d61ff202",
      "transactionType": "CALL",
      "contractName": null,
      "contractAddress": "0x8aafd3ede9adb0ff97c7aebce82a919afb1c8764",
      "function": "sell(uint256)",
      "arguments": [
        "12411"
      ],
      "transaction": {
        "from": "0xc77f7fed3b5cc8249adc428c5f44c9063b9734b4",
        "to": "0x8aafd3ede9adb0ff97c7aebce82a919afb1c8764",
        "gas": "0x14e4c",
        "value": "0x0",
        "input": "0xe4849b32000000000000000000000000000000000000000000000000000000000000307b",
        "nonce": "0xfdd",
        "chainId": "0xaa36a7"
      },
      "additionalContracts": [],
      "isFixedGasLimit": false
    }
  ],
  "receipts": [
    {
      "status": "0x1",
      "cumulativeGasUsed": "0x1247e21",
      "logs": [
        {
          "address": "0x8aafd3ede9adb0ff97c7aebce82a919afb1c8764",
          "topics": [
            "0xddf252ad1be2c89b69c2b068fc378daa952ba7f163c4a11628f55a4df523b3ef",
            "0x000000000000000000000000c77f7fed3b5cc8249adc428c5f44c9063b9734b4",
            "0x0000000000000000000000000000000000000000000000000000000000000000"
          ],
          "data": "0x0000000000000000000000000000000000000000000000000000000000003018",
          "blockHash": "0x877ae1ed3a68686a885a91743ef32ec01e803d9472c15b810c5e1024e5cce7bc",
          "blockNumber": "0x73164f",
          "transactionHash": "0xffd019d284722ce21ca2bb097a3f3c257739addf1b3e1873b8ff2fa7d61ff202",
          "transactionIndex": "0xa6",
          "logIndex": "0xff",
          "removed": false
        },
        {
          "address": "0x8aafd3ede9adb0ff97c7aebce82a919afb1c8764",
          "topics": [
            "0xddf252ad1be2c89b69c2b068fc378daa952ba7f163c4a11628f55a4df523b3ef",
            "0x000000000000000000000000c77f7fed3b5cc8249adc428c5f44c9063b9734b4",
            "0x000000000000000000000000c77f7fed3b5cc8249adc428c5f44c9063b9734b4"
          ],
          "data": "0x0000000000000000000000000000000000000000000000000000000000000063",
          "blockHash": "0x877ae1ed3a68686a885a91743ef32ec01e803d9472c15b810c5e1024e5cce7bc",
          "blockNumber": "0x73164f",
          "transactionHash": "0xffd019d284722ce21ca2bb097a3f3c257739addf1b3e1873b8ff2fa7d61ff202",
          "transactionIndex": "0xa6",
          "logIndex": "0x100",
          "removed": false
        },
        {
          "address": "0x8aafd3ede9adb0ff97c7aebce82a919afb1c8764",
          "topics": [
            "0x4afcb4a87cdbd9974efdb92ee48bc8d7cd0ae4bf217004db3d080cbaee652ca7"
          ],
          "data": "0x00000000000000000000000000000000000000000000000000000000679008600000000000000000000000000000000000000000000000000004c51eedc547640000000000000000000000000000000000000000000000000000000000000010",
          "blockHash": "0x877ae1ed3a68686a885a91743ef32ec01e803d9472c15b810c5e1024e5cce7bc",
          "blockNumber": "0x73164f",
          "transactionHash": "0xffd019d284722ce21ca2bb097a3f3c257739addf1b3e1873b8ff2fa7d61ff202",
          "transactionIndex": "0xa6",
          "logIndex": "0x101",
          "removed": false
        }
      ],
      "logsBloom": "0x00000000000000000000000000000000000000000600000000000000000000000000000000000000000000000000000000000000000000004000000000000000000000000000004000000008000000000000000000000000000000000000000000000000020000000000000000000800020000000000000000000010000000000000000000000000000000000000000000000000000000000000010000000000000000000000000000000000000000004000000000000000000000000000000000000002000000800000000000000000000000000000080000000000000020000000000000000000000000000000000000000000000000000000000000000000",
      "type": "0x2",
      "transactionHash": "0xffd019d284722ce21ca2bb097a3f3c257739addf1b3e1873b8ff2fa7d61ff202",
      "transactionIndex": "0xa6",
      "blockHash": "0x877ae1ed3a68686a885a91743ef32ec01e803d9472c15b810c5e1024e5cce7bc",
      "blockNumber": "0x73164f",
      "gasUsed": "0xf207",
      "effectiveGasPrice": "0x4a69eb45",
      "from": "0xc77f7fed3b5cc8249adc428c5f44c9063b9734b4",
      "to": "0x8aafd3ede9adb0ff97c7aebce82a919afb1c8764",
      "contractAddress": null
    }
  ],
  "libraries": [],
  "pending": [],
  "returns": {},
  "timestamp": 1737492577,
  "chain": 11155111,
  "commit": "1d2fb70"
}