{
  "transactions": [
    {
      "hash": "0x1805596f0359d58ef08dbbdebbd3e83604fcc98c6f397ec4e14728eb975eaa36",
      "transactionType": "CALL",
      "contractName": null,
      "contractAddress": "0x5eb9cc76c3506942c1c0ead70e877dd5e4f00cb0",
      "function": "sell(uint256)",
      "arguments": [
        "989136014243751418149"
      ],
      "transaction": {
        "from": "0xc77f7fed3b5cc8249adc428c5f44c9063b9734b4",
        "to": "0x5eb9cc76c3506942c1c0ead70e877dd5e4f00cb0",
        "gas": "0x16fec",
        "value": "0x0",
        "input": "0xe4849b320000000000000000000000000000000000000000000000359f050c4998865925",
        "nonce": "0x31f",
        "chainId": "0xaa36a7"
      },
      "additionalContracts": [],
      "isFixedGasLimit": false
    }
  ],
  "receipts": [
    {
      "status": "0x1",
      "cumulativeGasUsed": "0xf0c5cd",
      "logs": [
        {
          "address": "0x5eb9cc76c3506942c1c0ead70e877dd5e4f00cb0",
          "topics": [
            "0xddf252ad1be2c89b69c2b068fc378daa952ba7f163c4a11628f55a4df523b3ef",
            "0x000000000000000000000000c77f7fed3b5cc8249adc428c5f44c9063b9734b4",
            "0x0000000000000000000000000000000000000000000000000000000000000000"
          ],
          "data": "0x0000000000000000000000000000000000000000000000359f050c4998865925",
          "blockHash": "0xda9269523fb601fe5f6f902f645439a8fe75c6995e6fa46a245285bf66c7fcb3",
          "blockNumber": "0x724f05",
          "transactionHash": "0x1805596f0359d58ef08dbbdebbd3e83604fcc98c6f397ec4e14728eb975eaa36",
          "transactionIndex": "0x4f",
          "logIndex": "0x80",
          "removed": false
        },
        {
          "address": "0x5eb9cc76c3506942c1c0ead70e877dd5e4f00cb0",
          "topics": [
            "0x4afcb4a87cdbd9974efdb92ee48bc8d7cd0ae4bf217004db3d080cbaee652ca7"
          ],
          "data": "0x000000000000000000000000000000000000000000000000000000006786a5f00000000000000000000000000000000000000000000000000003910cf618ac6b0000000000000000000000000000000000000000000000000dc7db13322787ec",
          "blockHash": "0xda9269523fb601fe5f6f902f645439a8fe75c6995e6fa46a245285bf66c7fcb3",
          "blockNumber": "0x724f05",
          "transactionHash": "0x1805596f0359d58ef08dbbdebbd3e83604fcc98c6f397ec4e14728eb975eaa36",
          "transactionIndex": "0x4f",
          "logIndex": "0x81",
          "removed": false
        }
      ],
      "logsBloom": "0x00000000000000000000000000000000000000000000000000000000000000000000000000000000000000000000000000000000000000004000000000000000000000000000000000000008000000000000000000000000000000000000000000000000020000000000000004000800020000000000000000000010000000000000000000000000000000000000000000000000000000000000010000000000000000000000000000000000000000004000000000000000000000000000020000000002000000800000008000000000000000000000080000000000000020000000000000000000000000000000000000000000000000000000000000000000",
      "type": "0x2",
      "transactionHash": "0x1805596f0359d58ef08dbbdebbd3e83604fcc98c6f397ec4e14728eb975eaa36",
      "transactionIndex": "0x4f",
      "blockHash": "0xda9269523fb601fe5f6f902f645439a8fe75c6995e6fa46a245285bf66c7fcb3",
      "blockNumber": "0x724f05",
      "gasUsed": "0xfb93",
      "effectiveGasPrice": "0x659638aab",
      "from": "0xc77f7fed3b5cc8249adc428c5f44c9063b9734b4",
      "to": "0x5eb9cc76c3506942c1c0ead70e877dd5e4f00cb0",
      "contractAddress": null
    }
  ],
  "libraries": [],
  "pending": [],
  "returns": {},
  "timestamp": 1736877553,
  "chain": 11155111,
  "commit": "51a374b"
}