{
  "transactions": [
    {
      "hash": "0xed8a5c237f16ed1601f01633cde0f85302a17b4ce214bcc1dbd0c76e868ff736",
      "transactionType": "CALL",
      "contractName": null,
      "contractAddress": "0x5eb9cc76c3506942c1c0ead70e877dd5e4f00cb0",
      "function": "buy(address)",
      "arguments": [
        "0xC77f7fed3b5Cc8249aDc428c5F44C9063B9734b4"
      ],
      "transaction": {
        "from": "0xc77f7fed3b5cc8249adc428c5f44c9063b9734b4",
        "to": "0x5eb9cc76c3506942c1c0ead70e877dd5e4f00cb0",
        "gas": "0x1b30c",
        "value": "0xde0b6b3a7640000",
        "input": "0xf088d547000000000000000000000000c77f7fed3b5cc8249adc428c5f44c9063b9734b4",
        "nonce": "0x236",
        "chainId": "0xaa36a7"
      },
      "additionalContracts": [],
      "isFixedGasLimit": false
    }
  ],
  "receipts": [
    {
      "status": "0x1",
      "cumulativeGasUsed": "0xa71a52",
      "logs": [
        {
          "address": "0x5eb9cc76c3506942c1c0ead70e877dd5e4f00cb0",
          "topics": [
            "0xddf252ad1be2c89b69c2b068fc378daa952ba7f163c4a11628f55a4df523b3ef",
            "0x0000000000000000000000000000000000000000000000000000000000000000",
            "0x000000000000000000000000c77f7fed3b5cc8249adc428c5f44c9063b9734b4"
          ],
          "data": "0x0000000000000000000000000000000000000000000000357c2fd27b1672727f",
          "blockHash": "0xb5d54a9b7a1f5f69653c6d7c6bb69032a0f2f8411b04bd77755126effcfff975",
          "blockNumber": "0x724dea",
          "transactionHash": "0xed8a5c237f16ed1601f01633cde0f85302a17b4ce214bcc1dbd0c76e868ff736",
          "transactionIndex": "0x5e",
          "logIndex": "0x96",
          "removed": false
        },
        {
          "address": "0x5eb9cc76c3506942c1c0ead70e877dd5e4f00cb0",
          "topics": [
            "0xddf252ad1be2c89b69c2b068fc378daa952ba7f163c4a11628f55a4df523b3ef",
            "0x0000000000000000000000000000000000000000000000000000000000000000",
            "0x000000000000000000000000c77f7fed3b5cc8249adc428c5f44c9063b9734b4"
          ],
          "data": "0x000000000000000000000000000000000000000000000000298873394d13b4c6",
          "blockHash": "0xb5d54a9b7a1f5f69653c6d7c6bb69032a0f2f8411b04bd77755126effcfff975",
          "blockNumber": "0x724dea",
          "transactionHash": "0xed8a5c237f16ed1601f01633cde0f85302a17b4ce214bcc1dbd0c76e868ff736",
          "transactionIndex": "0x5e",
          "logIndex": "0x97",
          "removed": false
        },
        {
          "address": "0x5eb9cc76c3506942c1c0ead70e877dd5e4f00cb0",
          "topics": [
            "0x4afcb4a87cdbd9974efdb92ee48bc8d7cd0ae4bf217004db3d080cbaee652ca7"
          ],
          "data": "0x00000000000000000000000000000000000000000000000000000000678698ac0000000000000000000000000000000000000000000000000003909ae1164d830000000000000000000000000000000000000000000000000de0b6b3a7640000",
          "blockHash": "0xb5d54a9b7a1f5f69653c6d7c6bb69032a0f2f8411b04bd77755126effcfff975",
          "blockNumber": "0x724dea",
          "transactionHash": "0xed8a5c237f16ed1601f01633cde0f85302a17b4ce214bcc1dbd0c76e868ff736",
          "transactionIndex": "0x5e",
          "logIndex": "0x98",
          "removed": false
        }
      ],
      "logsBloom": "0x00000000000000000000000000000000000000000000000000000000000000000000000000000000000000000000000000000000000000004000000000000000000000000000000000000008000000000000000000000000000000000000000000000000020000000000000004000800020000000000000000000010000000000000000000000000000000000000000000000000000000000000010000000000000000000000000000000000000000004000000000000000000000000000020000000002000000800000008000000000000000000000080000000000000020000000000000000000000000000000000000000000000000000000000000000000",
      "type": "0x2",
      "transactionHash": "0xed8a5c237f16ed1601f01633cde0f85302a17b4ce214bcc1dbd0c76e868ff736",
      "transactionIndex": "0x5e",
      "blockHash": "0xb5d54a9b7a1f5f69653c6d7c6bb69032a0f2f8411b04bd77755126effcfff975",
      "blockNumber": "0x724dea",
      "gasUsed": "0x13af8",
      "effectiveGasPrice": "0x42647f532",
      "from": "0xc77f7fed3b5cc8249adc428c5f44c9063b9734b4",
      "to": "0x5eb9cc76c3506942c1c0ead70e877dd5e4f00cb0",
      "contractAddress": null
    }
  ],
  "libraries": [],
  "pending": [],
  "returns": {},
  "timestamp": 1736874159,
  "chain": 11155111,
  "commit": "51a374b"
}