{
  "transactions": [
    {
      "hash": "0x5e82ccad1561f2c4fc8b0753b63f2fff98578372277ce30616a80daa1be9d247",
      "transactionType": "CALL",
      "contractName": null,
      "contractAddress": "0x8aafd3ede9adb0ff97c7aebce82a919afb1c8764",
      "function": "sell(uint256)",
      "arguments": [
        "55416756"
      ],
      "transaction": {
        "from": "0xc77f7fed3b5cc8249adc428c5f44c9063b9734b4",
        "to": "0x8aafd3ede9adb0ff97c7aebce82a919afb1c8764",
        "gas": "0x15d88",
        "value": "0x0",
        "input": "0xe4849b3200000000000000000000000000000000000000000000000000000000034d97b4",
        "nonce": "0x14ea",
        "chainId": "0xaa36a7"
      },
      "additionalContracts": [],
      "isFixedGasLimit": false
    }
  ],
  "receipts": [
    {
      "status": "0x1",
      "cumulativeGasUsed": "0x11380c4",
      "logs": [
        {
          "address": "0x8aafd3ede9adb0ff97c7aebce82a919afb1c8764",
          "topics": [
            "0xddf252ad1be2c89b69c2b068fc378daa952ba7f163c4a11628f55a4df523b3ef",
            "0x000000000000000000000000c77f7fed3b5cc8249adc428c5f44c9063b9734b4",
            "0x0000000000000000000000000000000000000000000000000000000000000000"
          ],
          "data": "0x000000000000000000000000000000000000000000000000000000000346d3ee",
          "blockHash": "0x8fa22ab07e1dd34c1904aadc0a8fe1218b8a453db37dea41886f1af48aae6a13",
          "blockNumber": "0x731c4a",
          "transactionHash": "0x5e82ccad1561f2c4fc8b0753b63f2fff98578372277ce30616a80daa1be9d247",
          "transactionIndex": "0x87",
          "logIndex": "0xdc",
          "removed": false
        },
        {
          "address": "0x8aafd3ede9adb0ff97c7aebce82a919afb1c8764",
          "topics": [
            "0xddf252ad1be2c89b69c2b068fc378daa952ba7f163c4a11628f55a4df523b3ef",
            "0x000000000000000000000000c77f7fed3b5cc8249adc428c5f44c9063b9734b4",
            "0x000000000000000000000000c77f7fed3b5cc8249adc428c5f44c9063b9734b4"
          ],
          "data": "0x000000000000000000000000000000000000000000000000000000000006c3c6",
          "blockHash": "0x8fa22ab07e1dd34c1904aadc0a8fe1218b8a453db37dea41886f1af48aae6a13",
          "blockNumber": "0x731c4a",
          "transactionHash": "0x5e82ccad1561f2c4fc8b0753b63f2fff98578372277ce30616a80daa1be9d247",
          "transactionIndex": "0x87",
          "logIndex": "0xdd",
          "removed": false
        },
        {
          "address": "0x8aafd3ede9adb0ff97c7aebce82a919afb1c8764",
          "topics": [
            "0x4afcb4a87cdbd9974efdb92ee48bc8d7cd0ae4bf217004db3d080cbaee652ca7"
          ],
          "data": "0x00000000000000000000000000000000000000000000000000000000679050540000000000000000000000000000000000000000000000000010cab353bae6a5000000000000000000000000000000000000000000000000000000000003ff25",
          "blockHash": "0x8fa22ab07e1dd34c1904aadc0a8fe1218b8a453db37dea41886f1af48aae6a13",
          "blockNumber": "0x731c4a",
          "transactionHash": "0x5e82ccad1561f2c4fc8b0753b63f2fff98578372277ce30616a80daa1be9d247",
          "transactionIndex": "0x87",
          "logIndex": "0xde",
          "removed": false
        }
      ],
      "logsBloom": "0x00000000000000000000000000000000000000000600000000000000000000000000000000000000000000000000000000000000000000004000000000000000000000000000004000000008000000000000000000000000000000000000000000000000020000000000000000000800020000000000000000000010000000000000000000000000000000000000000000000000000000000000010000000000000000000000000000000000000000004000000000000000000000000000000000000002000000800000000000000000000000000000080000000000000020000000000000000000000000000000000000000000000000000000000000000000",
      "type": "0x2",
      "transactionHash": "0x5e82ccad1561f2c4fc8b0753b63f2fff98578372277ce30616a80daa1be9d247",
      "transactionIndex": "0x87",
      "blockHash": "0x8fa22ab07e1dd34c1904aadc0a8fe1218b8a453db37dea41886f1af48aae6a13",
      "blockNumber": "0x731c4a",
      "gasUsed": "0xfd0f",
      "effectiveGasPrice": "0x14ff7e778",
      "from": "0xc77f7fed3b5cc8249adc428c5f44c9063b9734b4",
      "to": "0x8aafd3ede9adb0ff97c7aebce82a919afb1c8764",
      "contractAddress": null
    }
  ],
  "libraries": [],
  "pending": [],
  "returns": {},
  "timestamp": 1737510998,
  "chain": 11155111,
  "commit": "1d2fb70"
}