{
  "transactions": [
    {
      "hash": "0x423aea56ccd83b1edc0164156ee80001dfda8da62f3dd4e60a6e79d84685b0e8",
      "transactionType": "CALL",
      "contractName": null,
      "contractAddress": "0x8aafd3ede9adb0ff97c7aebce82a919afb1c8764",
      "function": "sell(uint256)",
      "arguments": [
        "9343004142"
      ],
      "transaction": {
        "from": "0xc77f7fed3b5cc8249adc428c5f44c9063b9734b4",
        "to": "0x8aafd3ede9adb0ff97c7aebce82a919afb1c8764",
        "gas": "0x1722a",
        "value": "0x0",
        "input": "0xe4849b32000000000000000000000000000000000000000000000000000000022ce2edee",
        "nonce": "0x136f",
        "chainId": "0xaa36a7"
      },
      "additionalContracts": [],
      "isFixedGasLimit": false
    }
  ],
  "receipts": [
    {
      "status": "0x1",
      "cumulativeGasUsed": "0x9fdac9",
      "logs": [
        {
          "address": "0x8aafd3ede9adb0ff97c7aebce82a919afb1c8764",
          "topics": [
            "0xddf252ad1be2c89b69c2b068fc378daa952ba7f163c4a11628f55a4df523b3ef",
            "0x000000000000000000000000c77f7fed3b5cc8249adc428c5f44c9063b9734b4",
            "0x0000000000000000000000000000000000000000000000000000000000000000"
          ],
          "data": "0x00000000000000000000000000000000000000000000000000000002286e6d0d",
          "blockHash": "0x9289297266a770ff686a7a66a8de06eef4f1495e7b14a8a862193a6d279fd184",
          "blockNumber": "0x731a8f",
          "transactionHash": "0x423aea56ccd83b1edc0164156ee80001dfda8da62f3dd4e60a6e79d84685b0e8",
          "transactionIndex": "0x84",
          "logIndex": "0x79",
          "removed": false
        },
        {
          "address": "0x8aafd3ede9adb0ff97c7aebce82a919afb1c8764",
          "topics": [
            "0xddf252ad1be2c89b69c2b068fc378daa952ba7f163c4a11628f55a4df523b3ef",
            "0x000000000000000000000000c77f7fed3b5cc8249adc428c5f44c9063b9734b4",
            "0x000000000000000000000000c77f7fed3b5cc8249adc428c5f44c9063b9734b4"
          ],
          "data": "0x00000000000000000000000000000000000000000000000000000000047480e1",
          "blockHash": "0x9289297266a770ff686a7a66a8de06eef4f1495e7b14a8a862193a6d279fd184",
          "blockNumber": "0x731a8f",
          "transactionHash": "0x423aea56ccd83b1edc0164156ee80001dfda8da62f3dd4e60a6e79d84685b0e8",
          "transactionIndex": "0x84",
          "logIndex": "0x7a",
          "removed": false
        },
        {
          "address": "0x8aafd3ede9adb0ff97c7aebce82a919afb1c8764",
          "topics": [
            "0x4afcb4a87cdbd9974efdb92ee48bc8d7cd0ae4bf217004db3d080cbaee652ca7"
          ],
          "data": "0x0000000000000000000000000000000000000000000000000000000067903b84000000000000000000000000000000000000000000000000000c798b18eb72aa0000000000000000000000000000000000000000000000000000000001f4962d",
          "blockHash": "0x9289297266a770ff686a7a66a8de06eef4f1495e7b14a8a862193a6d279fd184",
          "blockNumber": "0x731a8f",
          "transactionHash": "0x423aea56ccd83b1edc0164156ee80001dfda8da62f3dd4e60a6e79d84685b0e8",
          "transactionIndex": "0x84",
          "logIndex": "0x7b",
          "removed": false
        }
      ],
      "logsBloom": "0x00000000000000000000000000000000000000000600000000000000000000000000000000000000000000000000000000000000000000004000000000000000000000000000004000000008000000000000000000000000000000000000000000000000020000000000000000000800020000000000000000000010000000000000000000000000000000000000000000000000000000000000010000000000000000000000000000000000000000004000000000000000000000000000000000000002000000800000000000000000000000000000080000000000000020000000000000000000000000000000000000000000000000000000000000000000",
      "type": "0x2",
      "transactionHash": "0x423aea56ccd83b1edc0164156ee80001dfda8da62f3dd4e60a6e79d84685b0e8",
      "transactionIndex": "0x84",
      "blockHash": "0x9289297266a770ff686a7a66a8de06eef4f1495e7b14a8a862193a6d279fd184",
      "blockNumber": "0x731a8f",
      "gasUsed": "0xfd1b",
      "effectiveGasPrice": "0x4f1012a4",
      "from": "0xc77f7fed3b5cc8249adc428c5f44c9063b9734b4",
      "to": "0x8aafd3ede9adb0ff97c7aebce82a919afb1c8764",
      "contractAddress": null
    }
  ],
  "libraries": [],
  "pending": [],
  "returns": {},
  "timestamp": 1737505669,
  "chain": 11155111,
  "commit": "1d2fb70"
}