{
  "transactions": [
    {
      "hash": "0x83d9d9a2058be4ff11a51a81fc9fac14c1916b5f37f47ef4700d0d077c255f17",
      "transactionType": "CALL",
      "contractName": null,
      "contractAddress": "0x8aafd3ede9adb0ff97c7aebce82a919afb1c8764",
      "function": "sell(uint256)",
      "arguments": [
        "5591453997271317853"
      ],
      "transaction": {
        "from": "0xc77f7fed3b5cc8249adc428c5f44c9063b9734b4",
        "to": "0x8aafd3ede9adb0ff97c7aebce82a919afb1c8764",
        "gas": "0x15dca",
        "value": "0x0",
        "input": "0xe4849b320000000000000000000000000000000000000000000000004d98d5c9254b7d5d",
        "nonce": "0x110a",
        "chainId": "0xaa36a7"
      },
      "additionalContracts": [],
      "isFixedGasLimit": false
    }
  ],
  "receipts": [
    {
      "status": "0x1",
      "cumulativeGasUsed": "0x610a13",
      "logs": [
        {
          "address": "0x8aafd3ede9adb0ff97c7aebce82a919afb1c8764",
          "topics": [
            "0xddf252ad1be2c89b69c2b068fc378daa952ba7f163c4a11628f55a4df523b3ef",
            "0x000000000000000000000000c77f7fed3b5cc8249adc428c5f44c9063b9734b4",
            "0x0000000000000000000000000000000000000000000000000000000000000000"
          ],
          "data": "0x0000000000000000000000000000000000000000000000004cf9ea9a7b0334af",
          "blockHash": "0x8d4ff9136f97a787f550a0aef628442ac1524d7b49a1c65084c9a1898c4019b8",
          "blockNumber": "0x7317b9",
          "transactionHash": "0x83d9d9a2058be4ff11a51a81fc9fac14c1916b5f37f47ef4700d0d077c255f17",
          "transactionIndex": "0x5b",
          "logIndex": "0x39",
          "removed": false
        },
        {
          "address": "0x8aafd3ede9adb0ff97c7aebce82a919afb1c8764",
          "topics": [
            "0xddf252ad1be2c89b69c2b068fc378daa952ba7f163c4a11628f55a4df523b3ef",
            "0x000000000000000000000000c77f7fed3b5cc8249adc428c5f44c9063b9734b4",
            "0x000000000000000000000000c77f7fed3b5cc8249adc428c5f44c9063b9734b4"
          ],
          "data": "0x000000000000000000000000000000000000000000000000009eeb2eaa4848ae",
          "blockHash": "0x8d4ff9136f97a787f550a0aef628442ac1524d7b49a1c65084c9a1898c4019b8",
          "blockNumber": "0x7317b9",
          "transactionHash": "0x83d9d9a2058be4ff11a51a81fc9fac14c1916b5f37f47ef4700d0d077c255f17",
          "transactionIndex": "0x5b",
          "logIndex": "0x3a",
          "removed": false
        },
        {
          "address": "0x8aafd3ede9adb0ff97c7aebce82a919afb1c8764",
          "topics": [
            "0x4afcb4a87cdbd9974efdb92ee48bc8d7cd0ae4bf217004db3d080cbaee652ca7"
          ],
          "data": "0x000000000000000000000000000000000000000000000000000000006790197000000000000000000000000000000000000000000000000000050d9c8c040d5a000000000000000000000000000000000000000000000000001c411f77d05580",
          "blockHash": "0x8d4ff9136f97a787f550a0aef628442ac1524d7b49a1c65084c9a1898c4019b8",
          "blockNumber": "0x7317b9",
          "transactionHash": "0x83d9d9a2058be4ff11a51a81fc9fac14c1916b5f37f47ef4700d0d077c255f17",
          "transactionIndex": "0x5b",
          "logIndex": "0x3b",
          "removed": false
        }
      ],
      "logsBloom": "0x00000000000000000000000000000000000000000600000000000000000000000000000000000000000000000000000000000000000000004000000000000000000000000000004000000008000000000000000000000000000000000000000000000000020000000000000000000800020000000000000000000010000000000000000000000000000000000000000000000000000000000000010000000000000000000000000000000000000000004000000000000000000000000000000000000002000000800000000000000000000000000000080000000000000020000000000000000000000000000000000000000000000000000000000000000000",
      "type": "0x2",
      "transactionHash": "0x83d9d9a2058be4ff11a51a81fc9fac14c1916b5f37f47ef4700d0d077c255f17",
      "transactionIndex": "0x5b",
      "blockHash": "0x8d4ff9136f97a787f550a0aef628442ac1524d7b49a1c65084c9a1898c4019b8",
      "blockNumber": "0x7317b9",
      "gasUsed": "0xfd3f",
      "effectiveGasPrice": "0x456805b3",
      "from": "0xc77f7fed3b5cc8249adc428c5f44c9063b9734b4",
      "to": "0x8aafd3ede9adb0ff97c7aebce82a919afb1c8764",
      "contractAddress": null
    }
  ],
  "libraries": [],
  "pending": [],
  "returns": {},
  "timestamp": 1737496945,
  "chain": 11155111,
  "commit": "1d2fb70"
}