{
  "transactions": [
    {
      "hash": "0x5e20daf606f369dd7c3b41b395afe167d583ef1276790ca8d6ed8afe3474fadc",
      "transactionType": "CALL",
      "contractName": null,
      "contractAddress": "0x8aafd3ede9adb0ff97c7aebce82a919afb1c8764",
      "function": "sell(uint256)",
      "arguments": [
        "380305029478245"
      ],
      "transaction": {
        "from": "0xc77f7fed3b5cc8249adc428c5f44c9063b9734b4",
        "to": "0x8aafd3ede9adb0ff97c7aebce82a919afb1c8764",
        "gas": "0x1724d",
        "value": "0x0",
        "input": "0xe4849b32000000000000000000000000000000000000000000000000000159e2aa303765",
        "nonce": "0xf42",
        "chainId": "0xaa36a7"
      },
      "additionalContracts": [],
      "isFixedGasLimit": false
    }
  ],
  "receipts": [
    {
      "status": "0x1",
      "cumulativeGasUsed": "0x1688ae5",
      "logs": [
        {
          "address": "0x8aafd3ede9adb0ff97c7aebce82a919afb1c8764",
          "topics": [
            "0xddf252ad1be2c89b69c2b068fc378daa952ba7f163c4a11628f55a4df523b3ef",
            "0x000000000000000000000000c77f7fed3b5cc8249adc428c5f44c9063b9734b4",
            "0x0000000000000000000000000000000000000000000000000000000000000000"
          ],
          "data": "0x0000000000000000000000000000000000000000000000000001571e4a9e6c34",
          "blockHash": "0x21bd4d46f852e33b28926e2357a12553b77a6654f2e24a898724142bd374c419",
          "blockNumber": "0x73159d",
          "transactionHash": "0x5e20daf606f369dd7c3b41b395afe167d583ef1276790ca8d6ed8afe3474fadc",
          "transactionIndex": "0xdd",
          "logIndex": "0x153",
          "removed": false
        },
        {
          "address": "0x8aafd3ede9adb0ff97c7aebce82a919afb1c8764",
          "topics": [
            "0xddf252ad1be2c89b69c2b068fc378daa952ba7f163c4a11628f55a4df523b3ef",
            "0x000000000000000000000000c77f7fed3b5cc8249adc428c5f44c9063b9734b4",
            "0x000000000000000000000000c77f7fed3b5cc8249adc428c5f44c9063b9734b4"
          ],
          "data": "0x000000000000000000000000000000000000000000000000000002c45f91cb31",
          "blockHash": "0x21bd4d46f852e33b28926e2357a12553b77a6654f2e24a898724142bd374c419",
          "blockNumber": "0x73159d",
          "transactionHash": "0x5e20daf606f369dd7c3b41b395afe167d583ef1276790ca8d6ed8afe3474fadc",
          "transactionIndex": "0xdd",
          "logIndex": "0x154",
          "removed": false
        },
        {
          "address": "0x8aafd3ede9adb0ff97c7aebce82a919afb1c8764",
          "topics": [
            "0x4afcb4a87cdbd9974efdb92ee48bc8d7cd0ae4bf217004db3d080cbaee652ca7"
          ],
          "data": "0x00000000000000000000000000000000000000000000000000000000679000080000000000000000000000000000000000000000000000000004c033badb42cf00000000000000000000000000000000000000000000000000000076683833f5",
          "blockHash": "0x21bd4d46f852e33b28926e2357a12553b77a6654f2e24a898724142bd374c419",
          "blockNumber": "0x73159d",
          "transactionHash": "0x5e20daf606f369dd7c3b41b395afe167d583ef1276790ca8d6ed8afe3474fadc",
          "transactionIndex": "0xdd",
          "logIndex": "0x155",
          "removed": false
        }
      ],
      "logsBloom": "0x00000000000000000000000000000000000000000600000000000000000000000000000000000000000000000000000000000000000000004000000000000000000000000000004000000008000000000000000000000000000000000000000000000000020000000000000000000800020000000000000000000010000000000000000000000000000000000000000000000000000000000000010000000000000000000000000000000000000000004000000000000000000000000000000000000002000000800000000000000000000000000000080000000000000020000000000000000000000000000000000000000000000000000000000000000000",
      "type": "0x2",
      "transactionHash": "0x5e20daf606f369dd7c3b41b395afe167d583ef1276790ca8d6ed8afe3474fadc",
      "transactionIndex": "0xdd",
      "blockHash": "0x21bd4d46f852e33b28926e2357a12553b77a6654f2e24a898724142bd374c419",
      "blockNumber": "0x73159d",
      "gasUsed": "0xfd33",
      "effectiveGasPrice": "0x5e3665df",
      "from": "0xc77f7fed3b5cc8249adc428c5f44c9063b9734b4",
      "to": "0x8aafd3ede9adb0ff97c7aebce82a919afb1c8764",
      "contractAddress": null
    }
  ],
  "libraries": [],
  "pending": [],
  "returns": {},
  "timestamp": 1737490441,
  "chain": 11155111,
  "commit": "1d2fb70"
}