{
  "transactions": [
    {
      "hash": "0x29840e17159a641d984c994db480c237ef3f9e4b6ce934387bf51740e668fdf8",
      "transactionType": "CALL",
      "contractName": null,
      "contractAddress": "0x8aafd3ede9adb0ff97c7aebce82a919afb1c8764",
      "function": "sell(uint256)",
      "arguments": [
        "11927"
      ],
      "transaction": {
        "from": "0xc77f7fed3b5cc8249adc428c5f44c9063b9734b4",
        "to": "0x8aafd3ede9adb0ff97c7aebce82a919afb1c8764",
        "gas": "0x14e4c",
        "value": "0x0",
        "input": "0xe4849b320000000000000000000000000000000000000000000000000000000000002e97",
        "nonce": "0x107b",
        "chainId": "0xaa36a7"
      },
      "additionalContracts": [],
      "isFixedGasLimit": false
    }
  ],
  "receipts": [
    {
      "status": "0x1",
      "cumulativeGasUsed": "0xb1b568",
      "logs": [
        {
          "address": "0x8aafd3ede9adb0ff97c7aebce82a919afb1c8764",
          "topics": [
            "0xddf252ad1be2c89b69c2b068fc378daa952ba7f163c4a11628f55a4df523b3ef",
            "0x000000000000000000000000c77f7fed3b5cc8249adc428c5f44c9063b9734b4",
            "0x0000000000000000000000000000000000000000000000000000000000000000"
          ],
          "data": "0x0000000000000000000000000000000000000000000000000000000000002e38",
          "blockHash": "0x8e6ad68355ca1d9afdb9f1091c7535ee3929440b8a9aa0fd43d95fe7f2683cd5",
          "blockNumber": "0x731704",
          "transactionHash": "0x29840e17159a641d984c994db480c237ef3f9e4b6ce934387bf51740e668fdf8",
          "transactionIndex": "0x90",
          "logIndex": "0xa3",
          "removed": false
        },
        {
          "address": "0x8aafd3ede9adb0ff97c7aebce82a919afb1c8764",
          "topics": [
            "0xddf252ad1be2c89b69c2b068fc378daa952ba7f163c4a11628f55a4df523b3ef",
            "0x000000000000000000000000c77f7fed3b5cc8249adc428c5f44c9063b9734b4",
            "0x000000000000000000000000c77f7fed3b5cc8249adc428c5f44c9063b9734b4"
          ],
          "data": "0x000000000000000000000000000000000000000000000000000000000000005f",
          "blockHash": "0x8e6ad68355ca1d9afdb9f1091c7535ee3929440b8a9aa0fd43d95fe7f2683cd5",
          "blockNumber": "0x731704",
          "transactionHash": "0x29840e17159a641d984c994db480c237ef3f9e4b6ce934387bf51740e668fdf8",
          "transactionIndex": "0x90",
          "logIndex": "0xa4",
          "removed": false
        },
        {
          "address": "0x8aafd3ede9adb0ff97c7aebce82a919afb1c8764",
          "topics": [
            "0x4afcb4a87cdbd9974efdb92ee48bc8d7cd0ae4bf217004db3d080cbaee652ca7"
          ],
          "data": "0x00000000000000000000000000000000000000000000000000000000679010e80000000000000000000000000000000000000000000000000004f7d35598966f0000000000000000000000000000000000000000000000000000000000000010",
          "blockHash": "0x8e6ad68355ca1d9afdb9f1091c7535ee3929440b8a9aa0fd43d95fe7f2683cd5",
          "blockNumber": "0x731704",
          "transactionHash": "0x29840e17159a641d984c994db480c237ef3f9e4b6ce934387bf51740e668fdf8",
          "transactionIndex": "0x90",
          "logIndex": "0xa5",
          "removed": false
        }
      ],
      "logsBloom": "0x00000000000000000000000000000000000000000600000000000000000000000000000000000000000000000000000000000000000000004000000000000000000000000000004000000008000000000000000000000000000000000000000000000000020000000000000000000800020000000000000000000010000000000000000000000000000000000000000000000000000000000000010000000000000000000000000000000000000000004000000000000000000000000000000000000002000000800000000000000000000000000000080000000000000020000000000000000000000000000000000000000000000000000000000000000000",
      "type": "0x2",
      "transactionHash": "0x29840e17159a641d984c994db480c237ef3f9e4b6ce934387bf51740e668fdf8",
      "transactionIndex": "0x90",
      "blockHash": "0x8e6ad68355ca1d9afdb9f1091c7535ee3929440b8a9aa0fd43d95fe7f2683cd5",
      "blockNumber": "0x731704",
      "gasUsed": "0xf207",
      "effectiveGasPrice": "0x4159e833",
      "from": "0xc77f7fed3b5cc8249adc428c5f44c9063b9734b4",
      "to": "0x8aafd3ede9adb0ff97c7aebce82a919afb1c8764",
      "contractAddress": null
    }
  ],
  "libraries": [],
  "pending": [],
  "returns": {},
  "timestamp": 1737494762,
  "chain": 11155111,
  "commit": "1d2fb70"
}