{
  "transactions": [
    {
      "hash": "0x35cfe3a46aecda7b142ab80d030cb95fb5b1e19f3681122a4fa3d6e3264ee14e",
      "transactionType": "CALL",
      "contractName": null,
      "contractAddress": "0x5eb9cc76c3506942c1c0ead70e877dd5e4f00cb0",
      "function": "buy(address)",
      "arguments": [
        "0xC77f7fed3b5Cc8249aDc428c5F44C9063B9734b4"
      ],
      "transaction": {
        "from": "0xc77f7fed3b5cc8249adc428c5f44c9063b9734b4",
        "to": "0x5eb9cc76c3506942c1c0ead70e877dd5e4f00cb0",
        "gas": "0x1b30c",
        "value": "0xde0b6b3a7640000",
        "input": "0xf088d547000000000000000000000000c77f7fed3b5cc8249adc428c5f44c9063b9734b4",
        "nonce": "0x330",
        "chainId": "0xaa36a7"
      },
      "additionalContracts": [],
      "isFixedGasLimit": false
    }
  ],
  "receipts": [
    {
      "status": "0x1",
      "cumulativeGasUsed": "0xaa73f0",
      "logs": [
        {
          "address": "0x5eb9cc76c3506942c1c0ead70e877dd5e4f00cb0",
          "topics": [
            "0xddf252ad1be2c89b69c2b068fc378daa952ba7f163c4a11628f55a4df523b3ef",
            "0x0000000000000000000000000000000000000000000000000000000000000000",
            "0x000000000000000000000000c77f7fed3b5cc8249adc428c5f44c9063b9734b4"
          ],
          "data": "0x00000000000000000000000000000000000000000000003575779fea3bdc833b",
          "blockHash": "0x73a6025108065b8864d9275c916126e1c3f3a268d82f505c52f0f0f458379fec",
          "blockNumber": "0x724f1b",
          "transactionHash": "0x35cfe3a46aecda7b142ab80d030cb95fb5b1e19f3681122a4fa3d6e3264ee14e",
          "transactionIndex": "0x29",
          "logIndex": "0x27",
          "removed": false
        },
        {
          "address": "0x5eb9cc76c3506942c1c0ead70e877dd5e4f00cb0",
          "topics": [
            "0xddf252ad1be2c89b69c2b068fc378daa952ba7f163c4a11628f55a4df523b3ef",
            "0x0000000000000000000000000000000000000000000000000000000000000000",
            "0x000000000000000000000000c77f7fed3b5cc8249adc428c5f44c9063b9734b4"
          ],
          "data": "0x00000000000000000000000000000000000000000000000029833b6e89258be7",
          "blockHash": "0x73a6025108065b8864d9275c916126e1c3f3a268d82f505c52f0f0f458379fec",
          "blockNumber": "0x724f1b",
          "transactionHash": "0x35cfe3a46aecda7b142ab80d030cb95fb5b1e19f3681122a4fa3d6e3264ee14e",
          "transactionIndex": "0x29",
          "logIndex": "0x28",
          "removed": false
        },
        {
          "address": "0x5eb9cc76c3506942c1c0ead70e877dd5e4f00cb0",
          "topics": [
            "0x4afcb4a87cdbd9974efdb92ee48bc8d7cd0ae4bf217004db3d080cbaee652ca7"
          ],
          "data": "0x000000000000000000000000000000000000000000000000000000006786a6f80000000000000000000000000000000000000000000000000003910d974ca3cf0000000000000000000000000000000000000000000000000de0b6b3a7640000",
          "blockHash": "0x73a6025108065b8864d9275c916126e1c3f3a268d82f505c52f0f0f458379fec",
          "blockNumber": "0x724f1b",
          "transactionHash": "0x35cfe3a46aecda7b142ab80d030cb95fb5b1e19f3681122a4fa3d6e3264ee14e",
          "transactionIndex": "0x29",
          "logIndex": "0x29",
          "removed": false
        }
      ],
      "logsBloom": "0x00000000000000000000000000000000000000000000000000000000000000000000000000000000000000000000000000000000000000004000000000000000000000000000000000000008000000000000000000000000000000000000000000000000020000000000000004000800020000000000000000000010000000000000000000000000000000000000000000000000000000000000010000000000000000000000000000000000000000004000000000000000000000000000020000000002000000800000008000000000000000000000080000000000000020000000000000000000000000000000000000000000000000000000000000000000",
      "type": "0x2",
      "transactionHash": "0x35cfe3a46aecda7b142ab80d030cb95fb5b1e19f3681122a4fa3d6e3264ee14e",
      "transactionIndex": "0x29",
      "blockHash": "0x73a6025108065b8864d9275c916126e1c3f3a268d82f505c52f0f0f458379fec",
      "blockNumber": "0x724f1b",
      "gasUsed": "0x13af8",
      "effectiveGasPrice": "0x681e2fdae",
      "from": "0xc77f7fed3b5cc8249adc428c5f44c9063b9734b4",
      "to": "0x5eb9cc76c3506942c1c0ead70e877dd5e4f00cb0",
      "contractAddress": null
    }
  ],
  "libraries": [],
  "pending": [],
  "returns": {},
  "timestamp": 1736877817,
  "chain": 11155111,
  "commit": "51a374b"
}