{
  "transactions": [
    {
      "hash": "0x7516ae830f94816d008dea558f78b5ceeaa33272925bcb177023f0e5b2cae2d1",
      "transactionType": "CALL",
      "contractName": null,
      "contractAddress": "0x8aafd3ede9adb0ff97c7aebce82a919afb1c8764",
      "function": "sell(uint256)",
      "arguments": [
        "9202479328250035"
      ],
      "transaction": {
        "from": "0xc77f7fed3b5cc8249adc428c5f44c9063b9734b4",
        "to": "0x8aafd3ede9adb0ff97c7aebce82a919afb1c8764",
        "gas": "0x1724d",
        "value": "0x0",
        "input": "0xe4849b320000000000000000000000000000000000000000000000000020b19b2f69c8b3",
        "nonce": "0x1789",
        "chainId": "0xaa36a7"
      },
      "additionalContracts": [],
      "isFixedGasLimit": false
    }
  ],
  "receipts": [
    {
      "status": "0x1",
      "cumulativeGasUsed": "0xb98f01",
      "logs": [
        {
          "address": "0x8aafd3ede9adb0ff97c7aebce82a919afb1c8764",
          "topics": [
            "0xddf252ad1be2c89b69c2b068fc378daa952ba7f163c4a11628f55a4df523b3ef",
            "0x000000000000000000000000c77f7fed3b5cc8249adc428c5f44c9063b9734b4",
            "0x0000000000000000000000000000000000000000000000000000000000000000"
          ],
          "data": "0x00000000000000000000000000000000000000000000000000206ea63b5268e3",
          "blockHash": "0xcdee0594e09a3bf969c4283f45185fe6e383a37ba593485a0ea6e071495fc587",
          "blockNumber": "0x731f64",
          "transactionHash": "0x7516ae830f94816d008dea558f78b5ceeaa33272925bcb177023f0e5b2cae2d1",
          "transactionIndex": "0x68",
          "logIndex": "0x9a",
          "removed": false
        },
        {
          "address": "0x8aafd3ede9adb0ff97c7aebce82a919afb1c8764",
          "topics": [
            "0xddf252ad1be2c89b69c2b068fc378daa952ba7f163c4a11628f55a4df523b3ef",
            "0x000000000000000000000000c77f7fed3b5cc8249adc428c5f44c9063b9734b4",
            "0x000000000000000000000000c77f7fed3b5cc8249adc428c5f44c9063b9734b4"
          ],
          "data": "0x000000000000000000000000000000000000000000000000000042f4f4175fd0",
          "blockHash": "0xcdee0594e09a3bf969c4283f45185fe6e383a37ba593485a0ea6e071495fc587",
          "blockNumber": "0x731f64",
          "transactionHash": "0x7516ae830f94816d008dea558f78b5ceeaa33272925bcb177023f0e5b2cae2d1",
          "transactionIndex": "0x68",
          "logIndex": "0x9b",
          "removed": false
        },
        {
          "address": "0x8aafd3ede9adb0ff97c7aebce82a919afb1c8764",
          "topics": [
            "0x4afcb4a87cdbd9974efdb92ee48bc8d7cd0ae4bf217004db3d080cbaee652ca7"
          ],
          "data": "0x00000000000000000000000000000000000000000000000000000000679075980000000000000000000000000000000000000000000000000018a3f62d73a80a00000000000000000000000000000000000000000000000000003a0c830e2000",
          "blockHash": "0xcdee0594e09a3bf969c4283f45185fe6e383a37ba593485a0ea6e071495fc587",
          "blockNumber": "0x731f64",
          "transactionHash": "0x7516ae830f94816d008dea558f78b5ceeaa33272925bcb177023f0e5b2cae2d1",
          "transactionIndex": "0x68",
          "logIndex": "0x9c",
          "removed": false
        }
      ],
      "logsBloom": "0x00000000000000000000000000000000000000000600000000000000000000000000000000000000000000000000000000000000000000004000000000000000000000000000004000000008000000000000000000000000000000000000000000000000020000000000000000000800020000000000000000000010000000000000000000000000000000000000000000000000000000000000010000000000000000000000000000000000000000004000000000000000000000000000000000000002000000800000000000000000000000000000080000000000000020000000000000000000000000000000000000000000000000000000000000000000",
      "type": "0x2",
      "transactionHash": "0x7516ae830f94816d008dea558f78b5ceeaa33272925bcb177023f0e5b2cae2d1",
      "transactionIndex": "0x68",
      "blockHash": "0xcdee0594e09a3bf969c4283f45185fe6e383a37ba593485a0ea6e071495fc587",
      "blockNumber": "0x731f64",
      "gasUsed": "0xfd33",
      "effectiveGasPrice": "0x3e2efca9",
      "from": "0xc77f7fed3b5cc8249adc428c5f44c9063b9734b4",
      "to": "0x8aafd3ede9adb0ff97c7aebce82a919afb1c8764",
      "contractAddress": null
    }
  ],
  "libraries": [],
  "pending": [],
  "returns": {},
  "timestamp": 1737520537,
  "chain": 11155111,
  "commit": "1d2fb70"
}