{
  "transactions": [
    {
      "hash": "0xb81d945d665899b51076385e98e30ca6f2d8bb6900b109d4be8b48a5d44e88bc",
      "transactionType": "CALL",
      "contractName": null,
      "contractAddress": "0xbf4a322f1496e5c3d34a9bcdb4c60567b38c7de2",
      "function": "buy(address)",
      "arguments": [
        "0xC77f7fed3b5Cc8249aDc428c5F44C9063B9734b4"
      ],
      "transaction": {
        "from": "0xc77f7fed3b5cc8249adc428c5f44c9063b9734b4",
        "to": "0xbf4a322f1496e5c3d34a9bcdb4c60567b38c7de2",
        "gas": "0x1b309",
        "value": "0xde0b6b3a7640000",
        "input": "0xf088d547000000000000000000000000c77f7fed3b5cc8249adc428c5f44c9063b9734b4",
        "nonce": "0x9c0",
        "chainId": "0xaa36a7"
      },
      "additionalContracts": [],
      "isFixedGasLimit": false
    }
  ],
  "receipts": [
    {
      "status": "0x1",
      "cumulativeGasUsed": "0xfe6b4f",
      "logs": [
        {
          "address": "0xbf4a322f1496e5c3d34a9bcdb4c60567b38c7de2",
          "topics": [
            "0xddf252ad1be2c89b69c2b068fc378daa952ba7f163c4a11628f55a4df523b3ef",
            "0x0000000000000000000000000000000000000000000000000000000000000000",
            "0x000000000000000000000000c77f7fed3b5cc8249adc428c5f44c9063b9734b4"
          ],
          "data": "0x0000000000000000000000000000000000000000000000356749acaeefa50890",
          "blockHash": "0x6bcc876314f66209aadd52c12cb7989c51060fb28c47d579b3536d6a58c3f575",
          "blockNumber": "0x72596c",
          "transactionHash": "0xb81d945d665899b51076385e98e30ca6f2d8bb6900b109d4be8b48a5d44e88bc",
          "transactionIndex": "0x65",
          "logIndex": "0xc9",
          "removed": false
        },
        {
          "address": "0xbf4a322f1496e5c3d34a9bcdb4c60567b38c7de2",
          "topics": [
            "0xddf252ad1be2c89b69c2b068fc378daa952ba7f163c4a11628f55a4df523b3ef",
            "0x0000000000000000000000000000000000000000000000000000000000000000",
            "0x000000000000000000000000c77f7fed3b5cc8249adc428c5f44c9063b9734b4"
          ],
          "data": "0x000000000000000000000000000000000000000000000000297838a6d54b9d60",
          "blockHash": "0x6bcc876314f66209aadd52c12cb7989c51060fb28c47d579b3536d6a58c3f575",
          "blockNumber": "0x72596c",
          "transactionHash": "0xb81d945d665899b51076385e98e30ca6f2d8bb6900b109d4be8b48a5d44e88bc",
          "transactionIndex": "0x65",
          "logIndex": "0xca",
          "removed": false
        },
        {
          "address": "0xbf4a322f1496e5c3d34a9bcdb4c60567b38c7de2",
          "topics": [
            "0x4afcb4a87cdbd9974efdb92ee48bc8d7cd0ae4bf217004db3d080cbaee652ca7"
          ],
          "data": "0x000000000000000000000000000000000000000000000000000000006787233c00000000000000000000000000000000000000000000000000039202529611aa0000000000000000000000000000000000000000000000000de0b6b3a7640000",
          "blockHash": "0x6bcc876314f66209aadd52c12cb7989c51060fb28c47d579b3536d6a58c3f575",
          "blockNumber": "0x72596c",
          "transactionHash": "0xb81d945d665899b51076385e98e30ca6f2d8bb6900b109d4be8b48a5d44e88bc",
          "transactionIndex": "0x65",
          "logIndex": "0xcb",
          "removed": false
        }
      ],
      "logsBloom": "0x00000000000000000000000000000000000000000000000000000000000000000000000000000000000000000000000000000000000000004000000000000000000000000000000000000008000000000000001000000000000000000000000000000000020000000000000000000800020000000000000000000010000000000000000000000000000000000000000000000000000008000000010000000000000000000000000000000000000000004000000000000000000000000000000000000002000000800000000000001000000000000000080000000000000020000000000000000000000000000000000000000000000000000000000000000000",
      "type": "0x2",
      "transactionHash": "0xb81d945d665899b51076385e98e30ca6f2d8bb6900b109d4be8b48a5d44e88bc",
      "transactionIndex": "0x65",
      "blockHash": "0x6bcc876314f66209aadd52c12cb7989c51060fb28c47d579b3536d6a58c3f575",
      "blockNumber": "0x72596c",
      "gasUsed": "0x13af6",
      "effectiveGasPrice": "0x2bfa35121",
      "from": "0xc77f7fed3b5cc8249adc428c5f44c9063b9734b4",
      "to": "0xbf4a322f1496e5c3d34a9bcdb4c60567b38c7de2",
      "contractAddress": null
    }
  ],
  "libraries": [],
  "pending": [],
  "returns": {},
  "timestamp": 1736909629,
  "chain": 11155111,
  "commit": "51a374b"
}