{
  "transactions": [
    {
      "hash": "0xc7c2eef522901947e817c9d470b0b5cd0f17e879159531f5a6e6e4dfd87cccfc",
      "transactionType": "CALL",
      "contractName": null,
      "contractAddress": "0x8aafd3ede9adb0ff97c7aebce82a919afb1c8764",
      "function": "sell(uint256)",
      "arguments": [
        "44121341"
      ],
      "transaction": {
        "from": "0xc77f7fed3b5cc8249adc428c5f44c9063b9734b4",
        "to": "0x8aafd3ede9adb0ff97c7aebce82a919afb1c8764",
        "gas": "0x15d88",
        "value": "0x0",
        "input": "0xe4849b320000000000000000000000000000000000000000000000000000000002a13cfd",
        "nonce": "0x165b",
        "chainId": "0xaa36a7"
      },
      "additionalContracts": [],
      "isFixedGasLimit": false
    }
  ],
  "receipts": [
    {
      "status": "0x1",
      "cumulativeGasUsed": "0x8192a1",
      "logs": [
        {
          "address": "0x8aafd3ede9adb0ff97c7aebce82a919afb1c8764",
          "topics": [
            "0xddf252ad1be2c89b69c2b068fc378daa952ba7f163c4a11628f55a4df523b3ef",
            "0x000000000000000000000000c77f7fed3b5cc8249adc428c5f44c9063b9734b4",
            "0x0000000000000000000000000000000000000000000000000000000000000000"
          ],
          "data": "0x00000000000000000000000000000000000000000000000000000000029bda33",
          "blockHash": "0xd6242edeb6d19e7f9c13fa71b66f3eecb61ca8c09e5b6fb63d5e50ab66e5e546",
          "blockNumber": "0x731dfd",
          "transactionHash": "0xc7c2eef522901947e817c9d470b0b5cd0f17e879159531f5a6e6e4dfd87cccfc",
          "transactionIndex": "0x5b",
          "logIndex": "0x6e",
          "removed": false
        },
        {
          "address": "0x8aafd3ede9adb0ff97c7aebce82a919afb1c8764",
          "topics": [
            "0xddf252ad1be2c89b69c2b068fc378daa952ba7f163c4a11628f55a4df523b3ef",
            "0x000000000000000000000000c77f7fed3b5cc8249adc428c5f44c9063b9734b4",
            "0x000000000000000000000000c77f7fed3b5cc8249adc428c5f44c9063b9734b4"
          ],
          "data": "0x00000000000000000000000000000000000000000000000000000000000562ca",
          "blockHash": "0xd6242edeb6d19e7f9c13fa71b66f3eecb61ca8c09e5b6fb63d5e50ab66e5e546",
          "blockNumber": "0x731dfd",
          "transactionHash": "0xc7c2eef522901947e817c9d470b0b5cd0f17e879159531f5a6e6e4dfd87cccfc",
          "transactionIndex": "0x5b",
          "logIndex": "0x6f",
          "removed": false
        },
        {
          "address": "0x8aafd3ede9adb0ff97c7aebce82a919afb1c8764",
          "topics": [
            "0x4afcb4a87cdbd9974efdb92ee48bc8d7cd0ae4bf217004db3d080cbaee652ca7"
          ],
          "data": "0x00000000000000000000000000000000000000000000000000000000679064c4000000000000000000000000000000000000000000000000001510b68ce1551e000000000000000000000000000000000000000000000000000000000003fdea",
          "blockHash": "0xd6242edeb6d19e7f9c13fa71b66f3eecb61ca8c09e5b6fb63d5e50ab66e5e546",
          "blockNumber": "0x731dfd",
          "transactionHash": "0xc7c2eef522901947e817c9d470b0b5cd0f17e879159531f5a6e6e4dfd87cccfc",
          "transactionIndex": "0x5b",
          "logIndex": "0x70",
          "removed": false
        }
      ],
      "logsBloom": "0x00000000000000000000000000000000000000000600000000000000000000000000000000000000000000000000000000000000000000004000000000000000000000000000004000000008000000000000000000000000000000000000000000000000020000000000000000000800020000000000000000000010000000000000000000000000000000000000000000000000000000000000010000000000000000000000000000000000000000004000000000000000000000000000000000000002000000800000000000000000000000000000080000000000000020000000000000000000000000000000000000000000000000000000000000000000",
      "type": "0x2",
      "transactionHash": "0xc7c2eef522901947e817c9d470b0b5cd0f17e879159531f5a6e6e4dfd87cccfc",
      "transactionIndex": "0x5b",
      "blockHash": "0xd6242edeb6d19e7f9c13fa71b66f3eecb61ca8c09e5b6fb63d5e50ab66e5e546",
      "blockNumber": "0x731dfd",
      "gasUsed": "0xfd0f",
      "effectiveGasPrice": "0x492dcf09",
      "from": "0xc77f7fed3b5cc8249adc428c5f44c9063b9734b4",
      "to": "0x8aafd3ede9adb0ff97c7aebce82a919afb1c8764",
      "contractAddress": null
    }
  ],
  "libraries": [],
  "pending": [],
  "returns": {},
  "timestamp": 1737516228,
  "chain": 11155111,
  "commit": "1d2fb70"
}