{
  "transactions": [
    {
      "hash": "0x0ddf930c353b383f9be8221f122efed1bf31cb03e6d4559e87ae2e1fddf6282d",
      "transactionType": "CALL",
      "contractName": null,
      "contractAddress": "0x8aafd3ede9adb0ff97c7aebce82a919afb1c8764",
      "function": "sell(uint256)",
      "arguments": [
        "2769410410791"
      ],
      "transaction": {
        "from": "0xc77f7fed3b5cc8249adc428c5f44c9063b9734b4",
        "to": "0x8aafd3ede9adb0ff97c7aebce82a919afb1c8764",
        "gas": "0x15daa",
        "value": "0x0",
        "input": "0xe4849b3200000000000000000000000000000000000000000000000000000284cdb94927",
        "nonce": "0x1239",
        "chainId": "0xaa36a7"
      },
      "additionalContracts": [],
      "isFixedGasLimit": false
    }
  ],
  "receipts": [
    {
      "status": "0x1",
      "cumulativeGasUsed": "0x104c812",
      "logs": [
        {
          "address": "0x8aafd3ede9adb0ff97c7aebce82a919afb1c8764",
          "topics": [
            "0xddf252ad1be2c89b69c2b068fc378daa952ba7f163c4a11628f55a4df523b3ef",
            "0x000000000000000000000000c77f7fed3b5cc8249adc428c5f44c9063b9734b4",
            "0x0000000000000000000000000000000000000000000000000000000000000000"
          ],
          "data": "0x0000000000000000000000000000000000000000000000000000027fa52a7dd1",
          "blockHash": "0x57b7c79938415a94af21853c48fc3695456f7598d570f3a2410f2f0f012b3688",
          "blockNumber": "0x731919",
          "transactionHash": "0x0ddf930c353b383f9be8221f122efed1bf31cb03e6d4559e87ae2e1fddf6282d",
          "transactionIndex": "0x82",
          "logIndex": "0xdf",
          "removed": false
        },
        {
          "address": "0x8aafd3ede9adb0ff97c7aebce82a919afb1c8764",
          "topics": [
            "0xddf252ad1be2c89b69c2b068fc378daa952ba7f163c4a11628f55a4df523b3ef",
            "0x000000000000000000000000c77f7fed3b5cc8249adc428c5f44c9063b9734b4",
            "0x000000000000000000000000c77f7fed3b5cc8249adc428c5f44c9063b9734b4"
          ],
          "data": "0x00000000000000000000000000000000000000000000000000000005288ecb56",
          "blockHash": "0x57b7c79938415a94af21853c48fc3695456f7598d570f3a2410f2f0f012b3688",
          "blockNumber": "0x731919",
          "transactionHash": "0x0ddf930c353b383f9be8221f122efed1bf31cb03e6d4559e87ae2e1fddf6282d",
          "transactionIndex": "0x82",
          "logIndex": "0xe0",
          "removed": false
        },
        {
          "address": "0x8aafd3ede9adb0ff97c7aebce82a919afb1c8764",
          "topics": [
            "0x4afcb4a87cdbd9974efdb92ee48bc8d7cd0ae4bf217004db3d080cbaee652ca7"
          ],
          "data": "0x00000000000000000000000000000000000000000000000000000000679029fc000000000000000000000000000000000000000000000000000539329318018d00000000000000000000000000000000000000000000000000000000f2b234a3",
          "blockHash": "0x57b7c79938415a94af21853c48fc3695456f7598d570f3a2410f2f0f012b3688",
          "blockNumber": "0x731919",
          "transactionHash": "0x0ddf930c353b383f9be8221f122efed1bf31cb03e6d4559e87ae2e1fddf6282d",
          "transactionIndex": "0x82",
          "logIndex": "0xe1",
          "removed": false
        }
      ],
      "logsBloom": "0x00000000000000000000000000000000000000000600000000000000000000000000000000000000000000000000000000000000000000004000000000000000000000000000004000000008000000000000000000000000000000000000000000000000020000000000000000000800020000000000000000000010000000000000000000000000000000000000000000000000000000000000010000000000000000000000000000000000000000004000000000000000000000000000000000000002000000800000000000000000000000000000080000000000000020000000000000000000000000000000000000000000000000000000000000000000",
      "type": "0x2",
      "transactionHash": "0x0ddf930c353b383f9be8221f122efed1bf31cb03e6d4559e87ae2e1fddf6282d",
      "transactionIndex": "0x82",
      "blockHash": "0x57b7c79938415a94af21853c48fc3695456f7598d570f3a2410f2f0f012b3688",
      "blockNumber": "0x731919",
      "gasUsed": "0xfd27",
      "effectiveGasPrice": "0x3eb7a77d",
      "from": "0xc77f7fed3b5cc8249adc428c5f44c9063b9734b4",
      "to": "0x8aafd3ede9adb0ff97c7aebce82a919afb1c8764",
      "contractAddress": null
    }
  ],
  "libraries": [],
  "pending": [],
  "returns": {},
  "timestamp": 1737501181,
  "chain": 11155111,
  "commit": "1d2fb70"
}