{
  "transactions": [
    {
      "hash": "0xf36c936a93fd03f579e875f73918c64ebfa1fb9185f10e9b7eb2193c443d7414",
      "transactionType": "CALL",
      "contractName": null,
      "contractAddress": "0x8aafd3ede9adb0ff97c7aebce82a919afb1c8764",
      "function": "sell(uint256)",
      "arguments": [
        "22423602218"
      ],
      "transaction": {
        "from": "0xc77f7fed3b5cc8249adc428c5f44c9063b9734b4",
        "to": "0x8aafd3ede9adb0ff97c7aebce82a919afb1c8764",
        "gas": "0x1722a",
        "value": "0x0",
        "input": "0xe4849b3200000000000000000000000000000000000000000000000000000005388d042a",
        "nonce": "0x11cc",
        "chainId": "0xaa36a7"
      },
      "additionalContracts": [],
      "isFixedGasLimit": false
    }
  ],
  "receipts": [
    {
      "status": "0x1",
      "cumulativeGasUsed": "0xed19b5",
      "logs": [
        {
          "address": "0x8aafd3ede9adb0ff97c7aebce82a919afb1c8764",
          "topics": [
            "0xddf252ad1be2c89b69c2b068fc378daa952ba7f163c4a11628f55a4df523b3ef",
            "0x000000000000000000000000c77f7fed3b5cc8249adc428c5f44c9063b9734b4",
            "0x0000000000000000000000000000000000000000000000000000000000000000"
          ],
          "data": "0x000000000000000000000000000000000000000000000000000000052ddbc299",
          "blockHash": "0x0f34304091f45d5f91aa68c46beaf8f5983dda34b5ac3118658777029d70a71e",
          "blockNumber": "0x7318a0",
          "transactionHash": "0xf36c936a93fd03f579e875f73918c64ebfa1fb9185f10e9b7eb2193c443d7414",
          "transactionIndex": "0xb2",
          "logIndex": "0x12d",
          "removed": false
        },
        {
          "address": "0x8aafd3ede9adb0ff97c7aebce82a919afb1c8764",
          "topics": [
            "0xddf252ad1be2c89b69c2b068fc378daa952ba7f163c4a11628f55a4df523b3ef",
            "0x000000000000000000000000c77f7fed3b5cc8249adc428c5f44c9063b9734b4",
            "0x000000000000000000000000c77f7fed3b5cc8249adc428c5f44c9063b9734b4"
          ],
          "data": "0x000000000000000000000000000000000000000000000000000000000ab14191",
          "blockHash": "0x0f34304091f45d5f91aa68c46beaf8f5983dda34b5ac3118658777029d70a71e",
          "blockNumber": "0x7318a0",
          "transactionHash": "0xf36c936a93fd03f579e875f73918c64ebfa1fb9185f10e9b7eb2193c443d7414",
          "transactionIndex": "0xb2",
          "logIndex": "0x12e",
          "removed": false
        },
        {
          "address": "0x8aafd3ede9adb0ff97c7aebce82a919afb1c8764",
          "topics": [
            "0x4afcb4a87cdbd9974efdb92ee48bc8d7cd0ae4bf217004db3d080cbaee652ca7"
          ],
          "data": "0x000000000000000000000000000000000000000000000000000000006790245000000000000000000000000000000000000000000000000000052936c471c75b0000000000000000000000000000000000000000000000000000000001f10c50",
          "blockHash": "0x0f34304091f45d5f91aa68c46beaf8f5983dda34b5ac3118658777029d70a71e",
          "blockNumber": "0x7318a0",
          "transactionHash": "0xf36c936a93fd03f579e875f73918c64ebfa1fb9185f10e9b7eb2193c443d7414",
          "transactionIndex": "0xb2",
          "logIndex": "0x12f",
          "removed": false
        }
      ],
      "logsBloom": "0x00000000000000000000000000000000000000000600000000000000000000000000000000000000000000000000000000000000000000004000000000000000000000000000004000000008000000000000000000000000000000000000000000000000020000000000000000000800020000000000000000000010000000000000000000000000000000000000000000000000000000000000010000000000000000000000000000000000000000004000000000000000000000000000000000000002000000800000000000000000000000000000080000000000000020000000000000000000000000000000000000000000000000000000000000000000",
      "type": "0x2",
      "transactionHash": "0xf36c936a93fd03f579e875f73918c64ebfa1fb9185f10e9b7eb2193c443d7414",
      "transactionIndex": "0xb2",
      "blockHash": "0x0f34304091f45d5f91aa68c46beaf8f5983dda34b5ac3118658777029d70a71e",
      "blockNumber": "0x7318a0",
      "gasUsed": "0xfd1b",
      "effectiveGasPrice": "0x3842a196",
      "from": "0xc77f7fed3b5cc8249adc428c5f44c9063b9734b4",
      "to": "0x8aafd3ede9adb0ff97c7aebce82a919afb1c8764",
      "contractAddress": null
    }
  ],
  "libraries": [],
  "pending": [],
  "returns": {},
  "timestamp": 1737499730,
  "chain": 11155111,
  "commit": "1d2fb70"
}