{
  "transactions": [
    {
      "hash": "0xd32c00c31f67fa95f0ee4233229095345d5efd97e03efdb89ec2b6b0fce4bd09",
      "transactionType": "CALL",
      "contractName": null,
      "contractAddress": "0x8aafd3ede9adb0ff97c7aebce82a919afb1c8764",
      "function": "sell(uint256)",
      "arguments": [
        "93144797650229"
      ],
      "transaction": {
        "from": "0xc77f7fed3b5cc8249adc428c5f44c9063b9734b4",
        "to": "0x8aafd3ede9adb0ff97c7aebce82a919afb1c8764",
        "gas": "0x15daa",
        "value": "0x0",
        "input": "0xe4849b32000000000000000000000000000000000000000000000000000054b6f6939d35",
        "nonce": "0x15d1",
        "chainId": "0xaa36a7"
      },
      "additionalContracts": [],
      "isFixedGasLimit": false
    }
  ],
  "receipts": [
    {
      "status": "0x1",
      "cumulativeGasUsed": "0x1368b94",
      "logs": [
        {
          "address": "0x8aafd3ede9adb0ff97c7aebce82a919afb1c8764",
          "topics": [
            "0xddf252ad1be2c89b69c2b068fc378daa952ba7f163c4a11628f55a4df523b3ef",
            "0x000000000000000000000000c77f7fed3b5cc8249adc428c5f44c9063b9734b4",
            "0x0000000000000000000000000000000000000000000000000000000000000000"
          ],
          "data": "0x0000000000000000000000000000000000000000000000000000540977ad0ea4",
          "blockHash": "0xdcf843ed47834b8b47d12bb9906ec0fcc0925efb29841fae626a16e3860acb61",
          "blockNumber": "0x731d4d",
          "transactionHash": "0xd32c00c31f67fa95f0ee4233229095345d5efd97e03efdb89ec2b6b0fce4bd09",
          "transactionIndex": "0x99",
          "logIndex": "0x139",
          "removed": false
        },
        {
          "address": "0x8aafd3ede9adb0ff97c7aebce82a919afb1c8764",
          "topics": [
            "0xddf252ad1be2c89b69c2b068fc378daa952ba7f163c4a11628f55a4df523b3ef",
            "0x000000000000000000000000c77f7fed3b5cc8249adc428c5f44c9063b9734b4",
            "0x000000000000000000000000c77f7fed3b5cc8249adc428c5f44c9063b9734b4"
          ],
          "data": "0x000000000000000000000000000000000000000000000000000000ad7ee68e91",
          "blockHash": "0xdcf843ed47834b8b47d12bb9906ec0fcc0925efb29841fae626a16e3860acb61",
          "blockNumber": "0x731d4d",
          "transactionHash": "0xd32c00c31f67fa95f0ee4233229095345d5efd97e03efdb89ec2b6b0fce4bd09",
          "transactionIndex": "0x99",
          "logIndex": "0x13a",
          "removed": false
        },
        {
          "address": "0x8aafd3ede9adb0ff97c7aebce82a919afb1c8764",
          "topics": [
            "0x4afcb4a87cdbd9974efdb92ee48bc8d7cd0ae4bf217004db3d080cbaee652ca7"
          ],
          "data": "0x0000000000000000000000000000000000000000000000000000000067905c8400000000000000000000000000000000000000000000000000137f11d47e36c100000000000000000000000000000000000000000000000000000077032c60df",
          "blockHash": "0xdcf843ed47834b8b47d12bb9906ec0fcc0925efb29841fae626a16e3860acb61",
          "blockNumber": "0x731d4d",
          "transactionHash": "0xd32c00c31f67fa95f0ee4233229095345d5efd97e03efdb89ec2b6b0fce4bd09",
          "transactionIndex": "0x99",
          "logIndex": "0x13b",
          "removed": false
        }
      ],
      "logsBloom": "0x00000000000000000000000000000000000000000600000000000000000000000000000000000000000000000000000000000000000000004000000000000000000000000000004000000008000000000000000000000000000000000000000000000000020000000000000000000800020000000000000000000010000000000000000000000000000000000000000000000000000000000000010000000000000000000000000000000000000000004000000000000000000000000000000000000002000000800000000000000000000000000000080000000000000020000000000000000000000000000000000000000000000000000000000000000000",
      "type": "0x2",
      "transactionHash": "0xd32c00c31f67fa95f0ee4233229095345d5efd97e03efdb89ec2b6b0fce4bd09",
      "transactionIndex": "0x99",
      "blockHash": "0xdcf843ed47834b8b47d12bb9906ec0fcc0925efb29841fae626a16e3860acb61",
      "blockNumber": "0x731d4d",
      "gasUsed": "0xfd27",
      "effectiveGasPrice": "0x657563ca",
      "from": "0xc77f7fed3b5cc8249adc428c5f44c9063b9734b4",
      "to": "0x8aafd3ede9adb0ff97c7aebce82a919afb1c8764",
      "contractAddress": null
    }
  ],
  "libraries": [],
  "pending": [],
  "returns": {},
  "timestamp": 1737514116,
  "chain": 11155111,
  "commit": "1d2fb70"
}