{
  "transactions": [
    {
      "hash": "0xee38f04507664c5a05c882877c6959f6dfa88494a81060226e65d1b0f686326e",
      "transactionType": "CALL",
      "contractName": null,
      "contractAddress": "0x8aafd3ede9adb0ff97c7aebce82a919afb1c8764",
      "function": "sell(uint256)",
      "arguments": [
        "815208119410"
      ],
      "transaction": {
        "from": "0xc77f7fed3b5cc8249adc428c5f44c9063b9734b4",
        "to": "0x8aafd3ede9adb0ff97c7aebce82a919afb1c8764",
        "gas": "0x1722a",
        "value": "0x0",
        "input": "0xe4849b32000000000000000000000000000000000000000000000000000000bdce30bc72",
        "nonce": "0x1542",
        "chainId": "0xaa36a7"
      },
      "additionalContracts": [],
      "isFixedGasLimit": false
    }
  ],
  "receipts": [
    {
      "status": "0x1",
      "cumulativeGasUsed": "0x13e782d",
      "logs": [
        {
          "address": "0x8aafd3ede9adb0ff97c7aebce82a919afb1c8764",
          "topics": [
            "0xddf252ad1be2c89b69c2b068fc378daa952ba7f163c4a11628f55a4df523b3ef",
            "0x000000000000000000000000c77f7fed3b5cc8249adc428c5f44c9063b9734b4",
            "0x0000000000000000000000000000000000000000000000000000000000000000"
          ],
          "data": "0x000000000000000000000000000000000000000000000000000000bc497806b7",
          "blockHash": "0x399c1e57398e4380706b5be4e4178020cb805a8f416a065fbf173697d9ff55ea",
          "blockNumber": "0x731ca6",
          "transactionHash": "0xee38f04507664c5a05c882877c6959f6dfa88494a81060226e65d1b0f686326e",
          "transactionIndex": "0x98",
          "logIndex": "0x12f",
          "removed": false
        },
        {
          "address": "0x8aafd3ede9adb0ff97c7aebce82a919afb1c8764",
          "topics": [
            "0xddf252ad1be2c89b69c2b068fc378daa952ba7f163c4a11628f55a4df523b3ef",
            "0x000000000000000000000000c77f7fed3b5cc8249adc428c5f44c9063b9734b4",
            "0x000000000000000000000000c77f7fed3b5cc8249adc428c5f44c9063b9734b4"
          ],
          "data": "0x0000000000000000000000000000000000000000000000000000000184b8b5bb",
          "blockHash": "0x399c1e57398e4380706b5be4e4178020cb805a8f416a065fbf173697d9ff55ea",
          "blockNumber": "0x731ca6",
          "transactionHash": "0xee38f04507664c5a05c882877c6959f6dfa88494a81060226e65d1b0f686326e",
          "transactionIndex": "0x98",
          "logIndex": "0x130",
          "removed": false
        },
        {
          "address": "0x8aafd3ede9adb0ff97c7aebce82a919afb1c8764",
          "topics": [
            "0x4afcb4a87cdbd9974efdb92ee48bc8d7cd0ae4bf217004db3d080cbaee652ca7"
          ],
          "data": "0x00000000000000000000000000000000000000000000000000000000679054a40000000000000000000000000000000000000000000000000011d45ef833b3e200000000000000000000000000000000000000000000000000000000f3da8c8c",
          "blockHash": "0x399c1e57398e4380706b5be4e4178020cb805a8f416a065fbf173697d9ff55ea",
          "blockNumber": "0x731ca6",
          "transactionHash": "0xee38f04507664c5a05c882877c6959f6dfa88494a81060226e65d1b0f686326e",
          "transactionIndex": "0x98",
          "logIndex": "0x131",
          "removed": false
        }
      ],
      "logsBloom": "0x00000000000000000000000000000000000000000600000000000000000000000000000000000000000000000000000000000000000000004000000000000000000000000000004000000008000000000000000000000000000000000000000000000000020000000000000000000800020000000000000000000010000000000000000000000000000000000000000000000000000000000000010000000000000000000000000000000000000000004000000000000000000000000000000000000002000000800000000000000000000000000000080000000000000020000000000000000000000000000000000000000000000000000000000000000000",
      "type": "0x2",
      "transactionHash": "0xee38f04507664c5a05c882877c6959f6dfa88494a81060226e65d1b0f686326e",
      "transactionIndex": "0x98",
      "blockHash": "0x399c1e57398e4380706b5be4e4178020cb805a8f416a065fbf173697d9ff55ea",
      "blockNumber": "0x731ca6",
      "gasUsed": "0xfd1b",
      "effectiveGasPrice": "0xda55437b",
      "from": "0xc77f7fed3b5cc8249adc428c5f44c9063b9734b4",
      "to": "0x8aafd3ede9adb0ff97c7aebce82a919afb1c8764",
      "contractAddress": null
    }
  ],
  "libraries": [],
  "pending": [],
  "returns": {},
  "timestamp": 1737512100,
  "chain": 11155111,
  "commit": "1d2fb70"
}