{
  "transactions": [
    {
      "hash": "0xbaa2da16286a31bf80f364f80bb520e3687ca001af198a278f35261f8e71b344",
      "transactionType": "CALL",
      "contractName": null,
      "contractAddress": "0x8aafd3ede9adb0ff97c7aebce82a919afb1c8764",
      "function": "sell(uint256)",
      "arguments": [
        "8192579268"
      ],
      "transaction": {
        "from": "0xc77f7fed3b5cc8249adc428c5f44c9063b9734b4",
        "to": "0x8aafd3ede9adb0ff97c7aebce82a919afb1c8764",
        "gas": "0x1722a",
        "value": "0x0",
        "input": "0xe4849b3200000000000000000000000000000000000000000000000000000001e850d6c4",
        "nonce": "0x1408",
        "chainId": "0xaa36a7"
      },
      "additionalContracts": [],
      "isFixedGasLimit": false
    }
  ],
  "receipts": [
    {
      "status": "0x1",
      "cumulativeGasUsed": "0x129dfde",
      "logs": [
        {
          "address": "0x8aafd3ede9adb0ff97c7aebce82a919afb1c8764",
          "topics": [
            "0xddf252ad1be2c89b69c2b068fc378daa952ba7f163c4a11628f55a4df523b3ef",
            "0x000000000000000000000000c77f7fed3b5cc8249adc428c5f44c9063b9734b4",
            "0x0000000000000000000000000000000000000000000000000000000000000000"
          ],
          "data": "0x00000000000000000000000000000000000000000000000000000001e468c4aa",
          "blockHash": "0x73399a532100bc843256db9657df354a871c00dcae2313baecbf4d5e7852296c",
          "blockNumber": "0x731b42",
          "transactionHash": "0xbaa2da16286a31bf80f364f80bb520e3687ca001af198a278f35261f8e71b344",
          "transactionIndex": "0xa2",
          "logIndex": "0xcd",
          "removed": false
        },
        {
          "address": "0x8aafd3ede9adb0ff97c7aebce82a919afb1c8764",
          "topics": [
            "0xddf252ad1be2c89b69c2b068fc378daa952ba7f163c4a11628f55a4df523b3ef",
            "0x000000000000000000000000c77f7fed3b5cc8249adc428c5f44c9063b9734b4",
            "0x000000000000000000000000c77f7fed3b5cc8249adc428c5f44c9063b9734b4"
          ],
          "data": "0x0000000000000000000000000000000000000000000000000000000003e8121a",
          "blockHash": "0x73399a532100bc843256db9657df354a871c00dcae2313baecbf4d5e7852296c",
          "blockNumber": "0x731b42",
          "transactionHash": "0xbaa2da16286a31bf80f364f80bb520e3687ca001af198a278f35261f8e71b344",
          "transactionIndex": "0xa2",
          "logIndex": "0xce",
          "removed": false
        },
        {
          "address": "0x8aafd3ede9adb0ff97c7aebce82a919afb1c8764",
          "topics": [
            "0x4afcb4a87cdbd9974efdb92ee48bc8d7cd0ae4bf217004db3d080cbaee652ca7"
          ],
          "data": "0x00000000000000000000000000000000000000000000000000000000679043e8000000000000000000000000000000000000000000000000000e368a5ef5b0c10000000000000000000000000000000000000000000000000000000001f41cd0",
          "blockHash": "0x73399a532100bc843256db9657df354a871c00dcae2313baecbf4d5e7852296c",
          "blockNumber": "0x731b42",
          "transactionHash": "0xbaa2da16286a31bf80f364f80bb520e3687ca001af198a278f35261f8e71b344",
          "transactionIndex": "0xa2",
          "logIndex": "0xcf",
          "removed": false
        }
      ],
      "logsBloom": "0x00000000000000000000000000000000000000000600000000000000000000000000000000000000000000000000000000000000000000004000000000000000000000000000004000000008000000000000000000000000000000000000000000000000020000000000000000000800020000000000000000000010000000000000000000000000000000000000000000000000000000000000010000000000000000000000000000000000000000004000000000000000000000000000000000000002000000800000000000000000000000000000080000000000000020000000000000000000000000000000000000000000000000000000000000000000",
      "type": "0x2",
      "transactionHash": "0xbaa2da16286a31bf80f364f80bb520e3687ca001af198a278f35261f8e71b344",
      "transactionIndex": "0xa2",
      "blockHash": "0x73399a532100bc843256db9657df354a871c00dcae2313baecbf4d5e7852296c",
      "blockNumber": "0x731b42",
      "gasUsed": "0xfd1b",
      "effectiveGasPrice": "0xc16f6d9a",
      "from": "0xc77f7fed3b5cc8249adc428c5f44c9063b9734b4",
      "to": "0x8aafd3ede9adb0ff97c7aebce82a919afb1c8764",
      "contractAddress": null
    }
  ],
  "libraries": [],
  "pending": [],
  "returns": {},
  "timestamp": 1737507817,
  "chain": 11155111,
  "commit": "1d2fb70"
}