{
  "transactions": [
    {
      "hash": "0xd8820e906f1f8ad99a998de6c943ecb874bcf697c3becd798f5da5bab96d38bf",
      "transactionType": "CALL",
      "contractName": null,
      "contractAddress": "0x8aafd3ede9adb0ff97c7aebce82a919afb1c8764",
      "function": "sell(uint256)",
      "arguments": [
        "1276228498033700862"
      ],
      "transaction": {
        "from": "0xc77f7fed3b5cc8249adc428c5f44c9063b9734b4",
        "to": "0x8aafd3ede9adb0ff97c7aebce82a919afb1c8764",
        "gas": "0x15dca",
        "value": "0x0",
        "input": "0xe4849b3200000000000000000000000000000000000000000000000011b6130ea5876ffe",
        "nonce": "0x16b9",
        "chainId": "0xaa36a7"
      },
      "additionalContracts": [],
      "isFixedGasLimit": false
    }
  ],
  "receipts": [
    {
      "status": "0x1",
      "cumulativeGasUsed": "0xa45c72",
      "logs": [
        {
          "address": "0x8aafd3ede9adb0ff97c7aebce82a919afb1c8764",
          "topics": [
            "0xddf252ad1be2c89b69c2b068fc378daa952ba7f163c4a11628f55a4df523b3ef",
            "0x000000000000000000000000c77f7fed3b5cc8249adc428c5f44c9063b9734b4",
            "0x0000000000000000000000000000000000000000000000000000000000000000"
          ],
          "data": "0x0000000000000000000000000000000000000000000000001191cd45d34f0ed8",
          "blockHash": "0x574889191c3f91b9e5df13832ea03968dd12310787ba08ee3aa272af1329086f",
          "blockNumber": "0x731e72",
          "transactionHash": "0xd8820e906f1f8ad99a998de6c943ecb874bcf697c3becd798f5da5bab96d38bf",
          "transactionIndex": "0x61",
          "logIndex": "0xd6",
          "removed": false
        },
        {
          "address": "0x8aafd3ede9adb0ff97c7aebce82a919afb1c8764",
          "topics": [
            "0xddf252ad1be2c89b69c2b068fc378daa952ba7f163c4a11628f55a4df523b3ef",
            "0x000000000000000000000000c77f7fed3b5cc8249adc428c5f44c9063b9734b4",
            "0x000000000000000000000000c77f7fed3b5cc8249adc428c5f44c9063b9734b4"
          ],
          "data": "0x000000000000000000000000000000000000000000000000002445c8d2386126",
          "blockHash": "0x574889191c3f91b9e5df13832ea03968dd12310787ba08ee3aa272af1329086f",
          "blockNumber": "0x731e72",
          "transactionHash": "0xd8820e906f1f8ad99a998de6c943ecb874bcf697c3becd798f5da5bab96d38bf",
          "transactionIndex": "0x61",
          "logIndex": "0xd7",
          "removed": false
        },
        {
          "address": "0x8aafd3ede9adb0ff97c7aebce82a919afb1c8764",
          "topics": [
            "0x4afcb4a87cdbd9974efdb92ee48bc8d7cd0ae4bf217004db3d080cbaee652ca7"
          ],
          "data": "0x0000000000000000000000000000000000000000000000000000000067906a400000000000000000000000000000000000000000000000000016382229f0e712000000000000000000000000000000000000000000000000001c5b2765c3b152",
          "blockHash": "0x574889191c3f91b9e5df13832ea03968dd12310787ba08ee3aa272af1329086f",
          "blockNumber": "0x731e72",
          "transactionHash": "0xd8820e906f1f8ad99a998de6c943ecb874bcf697c3becd798f5da5bab96d38bf",
          "transactionIndex": "0x61",
          "logIndex": "0xd8",
          "removed": false
        }
      ],
      "logsBloom": "0x00000000000000000000000000000000000000000600000000000000000000000000000000000000000000000000000000000000000000004000000000000000000000000000004000000008000000000000000000000000000000000000000000000000020000000000000000000800020000000000000000000010000000000000000000000000000000000000000000000000000000000000010000000000000000000000000000000000000000004000000000000000000000000000000000000002000000800000000000000000000000000000080000000000000020000000000000000000000000000000000000000000000000000000000000000000",
      "type": "0x2",
      "transactionHash": "0xd8820e906f1f8ad99a998de6c943ecb874bcf697c3becd798f5da5bab96d38bf",
      "transactionIndex": "0x61",
      "blockHash": "0x574889191c3f91b9e5df13832ea03968dd12310787ba08ee3aa272af1329086f",
      "blockNumber": "0x731e72",
      "gasUsed": "0xfd3f",
      "effectiveGasPrice": "0x442328f2",
      "from": "0xc77f7fed3b5cc8249adc428c5f44c9063b9734b4",
      "to": "0x8aafd3ede9adb0ff97c7aebce82a919afb1c8764",
      "contractAddress": null
    }
  ],
  "libraries": [],
  "pending": [],
  "returns": {},
  "timestamp": 1737517633,
  "chain": 11155111,
  "commit": "1d2fb70"
}