{
  "transactions": [
    {
      "hash": "0xfaad9b23db877831435576831932c17600e549e09c91aa0fb73587e6df8a0d6c",
      "transactionType": "CALL",
      "contractName": null,
      "contractAddress": "0x8aafd3ede9adb0ff97c7aebce82a919afb1c8764",
      "function": "sell(uint256)",
      "arguments": [
        "44631288805459827"
      ],
      "transaction": {
        "from": "0xc77f7fed3b5cc8249adc428c5f44c9063b9734b4",
        "to": "0x8aafd3ede9adb0ff97c7aebce82a919afb1c8764",
        "gas": "0x1724d",
        "value": "0x0",
        "input": "0xe4849b32000000000000000000000000000000000000000000000000009e8febb31e0773",
        "nonce": "0x111f",
        "chainId": "0xaa36a7"
      },
      "additionalContracts": [],
      "isFixedGasLimit": false
    }
  ],
  "receipts": [
    {
      "status": "0x1",
      "cumulativeGasUsed": "0xb90673",
      "logs": [
        {
          "address": "0x8aafd3ede9adb0ff97c7aebce82a919afb1c8764",
          "topics": [
            "0xddf252ad1be2c89b69c2b068fc378daa952ba7f163c4a11628f55a4df523b3ef",
            "0x000000000000000000000000c77f7fed3b5cc8249adc428c5f44c9063b9734b4",
            "0x0000000000000000000000000000000000000000000000000000000000000000"
          ],
          "data": "0x000000000000000000000000000000000000000000000000009d4b2f723244d5",
          "blockHash": "0x66822b00a7eb4907ef4ee3a2eea6dcc3d4dd492dd072d33ba78d4094dcfd37f7",
          "blockNumber": "0x7317d4",
          "transactionHash": "0xfaad9b23db877831435576831932c17600e549e09c91aa0fb73587e6df8a0d6c",
          "transactionIndex": "0x89",
          "logIndex": "0x95",
          "removed": false
        },
        {
          "address": "0x8aafd3ede9adb0ff97c7aebce82a919afb1c8764",
          "topics": [
            "0xddf252ad1be2c89b69c2b068fc378daa952ba7f163c4a11628f55a4df523b3ef",
            "0x000000000000000000000000c77f7fed3b5cc8249adc428c5f44c9063b9734b4",
            "0x000000000000000000000000c77f7fed3b5cc8249adc428c5f44c9063b9734b4"
          ],
          "data": "0x000000000000000000000000000000000000000000000000000144bc40ebc29e",
          "blockHash": "0x66822b00a7eb4907ef4ee3a2eea6dcc3d4dd492dd072d33ba78d4094dcfd37f7",
          "blockNumber": "0x7317d4",
          "transactionHash": "0xfaad9b23db877831435576831932c17600e549e09c91aa0fb73587e6df8a0d6c",
          "transactionIndex": "0x89",
          "logIndex": "0x96",
          "removed": false
        },
        {
          "address": "0x8aafd3ede9adb0ff97c7aebce82a919afb1c8764",
          "topics": [
            "0x4afcb4a87cdbd9974efdb92ee48bc8d7cd0ae4bf217004db3d080cbaee652ca7"
          ],
          "data": "0x0000000000000000000000000000000000000000000000000000000067901ab4000000000000000000000000000000000000000000000000000510844926a47e000000000000000000000000000000000000000000000000000039dd7e69b74d",
          "blockHash": "0x66822b00a7eb4907ef4ee3a2eea6dcc3d4dd492dd072d33ba78d4094dcfd37f7",
          "blockNumber": "0x7317d4",
          "transactionHash": "0xfaad9b23db877831435576831932c17600e549e09c91aa0fb73587e6df8a0d6c",
          "transactionIndex": "0x89",
          "logIndex": "0x97",
          "removed": false
        }
      ],
      "logsBloom": "0x00000000000000000000000000000000000000000600000000000000000000000000000000000000000000000000000000000000000000004000000000000000000000000000004000000008000000000000000000000000000000000000000000000000020000000000000000000800020000000000000000000010000000000000000000000000000000000000000000000000000000000000010000000000000000000000000000000000000000004000000000000000000000000000000000000002000000800000000000000000000000000000080000000000000020000000000000000000000000000000000000000000000000000000000000000000",
      "type": "0x2",
      "transactionHash": "0xfaad9b23db877831435576831932c17600e549e09c91aa0fb73587e6df8a0d6c",
      "transactionIndex": "0x89",
      "blockHash": "0x66822b00a7eb4907ef4ee3a2eea6dcc3d4dd492dd072d33ba78d4094dcfd37f7",
      "blockNumber": "0x7317d4",
      "gasUsed": "0xfd33",
      "effectiveGasPrice": "0x43ee0a9e",
      "from": "0xc77f7fed3b5cc8249adc428c5f44c9063b9734b4",
      "to": "0x8aafd3ede9adb0ff97c7aebce82a919afb1c8764",
      "contractAddress": null
    }
  ],
  "libraries": [],
  "pending": [],
  "returns": {},
  "timestamp": 1737497270,
  "chain": 11155111,
  "commit": "1d2fb70"
}