{
  "transactions": [
    {
      "hash": "0x30e22c9b222eaf1eeaa2065dd5a2af6b7f269ff0353bf45539eaf69c9ea625dc",
      "transactionType": "CALL",
      "contractName": null,
      "contractAddress": "0xbf4a322f1496e5c3d34a9bcdb4c60567b38c7de2",
      "function": "buy(address)",
      "arguments": [
        "0xC77f7fed3b5Cc8249aDc428c5F44C9063B9734b4"
      ],
      "transaction": {
        "from": "0xc77f7fed3b5cc8249adc428c5f44c9063b9734b4",
        "to": "0xbf4a322f1496e5c3d34a9bcdb4c60567b38c7de2",
        "gas": "0x1b309",
        "value": "0xde0b6b3a7640000",
        "input": "0xf088d547000000000000000000000000c77f7fed3b5cc8249adc428c5f44c9063b9734b4",
        "nonce": "0xdd2",
        "chainId": "0xaa36a7"
      },
      "additionalContracts": [],
      "isFixedGasLimit": false
    }
  ],
  "receipts": [
    {
      "status": "0x1",
      "cumulativeGasUsed": "0x11d386d",
      "logs": [
        {
          "address": "0xbf4a322f1496e5c3d34a9bcdb4c60567b38c7de2",
          "topics": [
            "0xddf252ad1be2c89b69c2b068fc378daa952ba7f163c4a11628f55a4df523b3ef",
            "0x0000000000000000000000000000000000000000000000000000000000000000",
            "0x000000000000000000000000c77f7fed3b5cc8249adc428c5f44c9063b9734b4"
          ],
          "data": "0x000000000000000000000000000000000000000000000034a54b56cfa552e36c",
          "blockHash": "0x18e72656d3d5bf0a2ad2fae6014584738c1b828e9517ba80646aefa7a61f3449",
          "blockNumber": "0x7266b0",
          "transactionHash": "0x30e22c9b222eaf1eeaa2065dd5a2af6b7f269ff0353bf45539eaf69c9ea625dc",
          "transactionIndex": "0x57",
          "logIndex": "0x71",
          "removed": false
        },
        {
          "address": "0xbf4a322f1496e5c3d34a9bcdb4c60567b38c7de2",
          "topics": [
            "0xddf252ad1be2c89b69c2b068fc378daa952ba7f163c4a11628f55a4df523b3ef",
            "0x0000000000000000000000000000000000000000000000000000000000000000",
            "0x000000000000000000000000c77f7fed3b5cc8249adc428c5f44c9063b9734b4"
          ],
          "data": "0x00000000000000000000000000000000000000000000000028e194277cd5157a",
          "blockHash": "0x18e72656d3d5bf0a2ad2fae6014584738c1b828e9517ba80646aefa7a61f3449",
          "blockNumber": "0x7266b0",
          "transactionHash": "0x30e22c9b222eaf1eeaa2065dd5a2af6b7f269ff0353bf45539eaf69c9ea625dc",
          "transactionIndex": "0x57",
          "logIndex": "0x72",
          "removed": false
        },
        {
          "address": "0xbf4a322f1496e5c3d34a9bcdb4c60567b38c7de2",
          "topics": [
            "0x4afcb4a87cdbd9974efdb92ee48bc8d7cd0ae4bf217004db3d080cbaee652ca7"
          ],
          "data": "0x000000000000000000000000000000000000000000000000000000006787c34400000000000000000000000000000000000000000000000000039f2a4fadc9bb0000000000000000000000000000000000000000000000000de0b6b3a7640000",
          "blockHash": "0x18e72656d3d5bf0a2ad2fae6014584738c1b828e9517ba80646aefa7a61f3449",
          "blockNumber": "0x7266b0",
          "transactionHash": "0x30e22c9b222eaf1eeaa2065dd5a2af6b7f269ff0353bf45539eaf69c9ea625dc",
          "transactionIndex": "0x57",
          "logIndex": "0x73",
          "removed": false
        }
      ],
      "logsBloom": "0x00000000000000000000000000000000000000000000000000000000000000000000000000000000000000000000000000000000000000004000000000000000000000000000000000000008000000000000001000000000000000000000000000000000020000000000000000000800020000000000000000000010000000000000000000000000000000000000000000000000000008000000010000000000000000000000000000000000000000004000000000000000000000000000000000000002000000800000000000001000000000000000080000000000000020000000000000000000000000000000000000000000000000000000000000000000",
      "type": "0x2",
      "transactionHash": "0x30e22c9b222eaf1eeaa2065dd5a2af6b7f269ff0353bf45539eaf69c9ea625dc",
      "transactionIndex": "0x57",
      "blockHash": "0x18e72656d3d5bf0a2ad2fae6014584738c1b828e9517ba80646aefa7a61f3449",
      "blockNumber": "0x7266b0",
      "gasUsed": "0x13af6",
      "effectiveGasPrice": "0x1a5529b5b",
      "from": "0xc77f7fed3b5cc8249adc428c5f44c9063b9734b4",
      "to": "0xbf4a322f1496e5c3d34a9bcdb4c60567b38c7de2",
      "contractAddress": null
    }
  ],
  "libraries": [],
  "pending": [],
  "returns": {},
  "timestamp": 1736950596,
  "chain": 11155111,
  "commit": "51a374b"
}