{
  "transactions": [
    {
      "hash": "0x5b8bd9e179c6af37b821e7cc6a690cbc6ebe1bad8a7eb6c0a02f70f76cc5694b",
      "transactionType": "CALL",
      "contractName": null,
      "contractAddress": "0x8aafd3ede9adb0ff97c7aebce82a919afb1c8764",
      "function": "sell(uint256)",
      "arguments": [
        "45498738432726437"
      ],
      "transaction": {
        "from": "0xc77f7fed3b5cc8249adc428c5f44c9063b9734b4",
        "to": "0x8aafd3ede9adb0ff97c7aebce82a919afb1c8764",
        "gas": "0x1724d",
        "value": "0x0",
        "input": "0xe4849b3200000000000000000000000000000000000000000000000000a1a4dc8e02d5a5",
        "nonce": "0x1075",
        "chainId": "0xaa36a7"
      },
      "additionalContracts": [],
      "isFixedGasLimit": false
    }
  ],
  "receipts": [
    {
      "status": "0x1",
      "cumulativeGasUsed": "0x969122",
      "logs": [
        {
          "address": "0x8aafd3ede9adb0ff97c7aebce82a919afb1c8764",
          "topics": [
            "0xddf252ad1be2c89b69c2b068fc378daa952ba7f163c4a11628f55a4df523b3ef",
            "0x000000000000000000000000c77f7fed3b5cc8249adc428c5f44c9063b9734b4",
            "0x0000000000000000000000000000000000000000000000000000000000000000"
          ],
          "data": "0x00000000000000000000000000000000000000000000000000a059d08cdffef2",
          "blockHash": "0xbc8eb9fa38eac0fc7f109f8c8a10dfa3bb715d7bfaa18714d027d9ff521dcbd9",
          "blockNumber": "0x7316fd",
          "transactionHash": "0x5b8bd9e179c6af37b821e7cc6a690cbc6ebe1bad8a7eb6c0a02f70f76cc5694b",
          "transactionIndex": "0x73",
          "logIndex": "0x9c",
          "removed": false
        },
        {
          "address": "0x8aafd3ede9adb0ff97c7aebce82a919afb1c8764",
          "topics": [
            "0xddf252ad1be2c89b69c2b068fc378daa952ba7f163c4a11628f55a4df523b3ef",
            "0x000000000000000000000000c77f7fed3b5cc8249adc428c5f44c9063b9734b4",
            "0x000000000000000000000000c77f7fed3b5cc8249adc428c5f44c9063b9734b4"
          ],
          "data": "0x00000000000000000000000000000000000000000000000000014b0c0122d6b3",
          "blockHash": "0xbc8eb9fa38eac0fc7f109f8c8a10dfa3bb715d7bfaa18714d027d9ff521dcbd9",
          "blockNumber": "0x7316fd",
          "transactionHash": "0x5b8bd9e179c6af37b821e7cc6a690cbc6ebe1bad8a7eb6c0a02f70f76cc5694b",
          "transactionIndex": "0x73",
          "logIndex": "0x9d",
          "removed": false
        },
        {
          "address": "0x8aafd3ede9adb0ff97c7aebce82a919afb1c8764",
          "topics": [
            "0x4afcb4a87cdbd9974efdb92ee48bc8d7cd0ae4bf217004db3d080cbaee652ca7"
          ],
          "data": "0x00000000000000000000000000000000000000000000000000000000679010940000000000000000000000000000000000000000000000000004f7d3558f9e2a000000000000000000000000000000000000000000000000000039ddcfeb54c0",
          "blockHash": "0xbc8eb9fa38eac0fc7f109f8c8a10dfa3bb715d7bfaa18714d027d9ff521dcbd9",
          "blockNumber": "0x7316fd",
          "transactionHash": "0x5b8bd9e179c6af37b821e7cc6a690cbc6ebe1bad8a7eb6c0a02f70f76cc5694b",
          "transactionIndex": "0x73",
          "logIndex": "0x9e",
          "removed": false
        }
      ],
      "logsBloom": "0x00000000000000000000000000000000000000000600000000000000000000000000000000000000000000000000000000000000000000004000000000000000000000000000004000000008000000000000000000000000000000000000000000000000020000000000000000000800020000000000000000000010000000000000000000000000000000000000000000000000000000000000010000000000000000000000000000000000000000004000000000000000000000000000000000000002000000800000000000000000000000000000080000000000000020000000000000000000000000000000000000000000000000000000000000000000",
      "type": "0x2",
      "transactionHash": "0x5b8bd9e179c6af37b821e7cc6a690cbc6ebe1bad8a7eb6c0a02f70f76cc5694b",
      "transactionIndex": "0x73",
      "blockHash": "0xbc8eb9fa38eac0fc7f109f8c8a10dfa3bb715d7bfaa18714d027d9ff521dcbd9",
      "blockNumber": "0x7316fd",
      "gasUsed": "0xfd33",
      "effectiveGasPrice": "0x4d2f8af8",
      "from": "0xc77f7fed3b5cc8249adc428c5f44c9063b9734b4",
      "to": "0x8aafd3ede9adb0ff97c7aebce82a919afb1c8764",
      "contractAddress": null
    }
  ],
  "libraries": [],
  "pending": [],
  "returns": {},
  "timestamp": 1737494679,
  "chain": 11155111,
  "commit": "1d2fb70"
}