{
  "transactions": [
    {
      "hash": "0xff0de9bc7122bb047517bb9474fcf89bdc7872ee54c2a9c871164ee2bd50899f",
      "transactionType": "CALL",
      "contractName": null,
      "contractAddress": "0xbf4a322f1496e5c3d34a9bcdb4c60567b38c7de2",
      "function": "sell(uint256)",
      "arguments": [
        "986010729907391138706"
      ],
      "transaction": {
        "from": "0xc77f7fed3b5cc8249adc428c5f44c9063b9734b4",
        "to": "0xbf4a322f1496e5c3d34a9bcdb4c60567b38c7de2",
        "gas": "0x16fea",
        "value": "0x0",
        "input": "0xe4849b3200000000000000000000000000000000000000000000003573a5cebdf5ad8b92",
        "nonce": "0xa5b",
        "chainId": "0xaa36a7"
      },
      "additionalContracts": [],
      "isFixedGasLimit": false
    }
  ],
  "receipts": [
    {
      "status": "0x1",
      "cumulativeGasUsed": "0xf2fd8b",
      "logs": [
        {
          "address": "0xbf4a322f1496e5c3d34a9bcdb4c60567b38c7de2",
          "topics": [
            "0xddf252ad1be2c89b69c2b068fc378daa952ba7f163c4a11628f55a4df523b3ef",
            "0x000000000000000000000000c77f7fed3b5cc8249adc428c5f44c9063b9734b4",
            "0x0000000000000000000000000000000000000000000000000000000000000000"
          ],
          "data": "0x00000000000000000000000000000000000000000000003573a5cebdf5ad8b92",
          "blockHash": "0x3a335920de5aca1420332f07255c03aa40fdf7eefaad13e01333bd8246df2c83",
          "blockNumber": "0x725a35",
          "transactionHash": "0xff0de9bc7122bb047517bb9474fcf89bdc7872ee54c2a9c871164ee2bd50899f",
          "transactionIndex": "0x56",
          "logIndex": "0x6f",
          "removed": false
        },
        {
          "address": "0xbf4a322f1496e5c3d34a9bcdb4c60567b38c7de2",
          "topics": [
            "0x4afcb4a87cdbd9974efdb92ee48bc8d7cd0ae4bf217004db3d080cbaee652ca7"
          ],
          "data": "0x0000000000000000000000000000000000000000000000000000000067872ccc000000000000000000000000000000000000000000000000000393f838af28ba0000000000000000000000000000000000000000000000000dc7e3f00a951ee1",
          "blockHash": "0x3a335920de5aca1420332f07255c03aa40fdf7eefaad13e01333bd8246df2c83",
          "blockNumber": "0x725a35",
          "transactionHash": "0xff0de9bc7122bb047517bb9474fcf89bdc7872ee54c2a9c871164ee2bd50899f",
          "transactionIndex": "0x56",
          "logIndex": "0x70",
          "removed": false
        }
      ],
      "logsBloom": "0x00000000000000000000000000000000000000000000000000000000000000000000000000000000000000000000000000000000000000004000000000000000000000000000000000000008000000000000001000000000000000000000000000000000020000000000000000000800020000000000000000000010000000000000000000000000000000000000000000000000000008000000010000000000000000000000000000000000000000004000000000000000000000000000000000000002000000800000000000001000000000000000080000000000000020000000000000000000000000000000000000000000000000000000000000000000",
      "type": "0x2",
      "transactionHash": "0xff0de9bc7122bb047517bb9474fcf89bdc7872ee54c2a9c871164ee2bd50899f",
      "transactionIndex": "0x56",
      "blockHash": "0x3a335920de5aca1420332f07255c03aa40fdf7eefaad13e01333bd8246df2c83",
      "blockNumber": "0x725a35",
      "gasUsed": "0xfb91",
      "effectiveGasPrice": "0x47ec1d0b0",
      "from": "0xc77f7fed3b5cc8249adc428c5f44c9063b9734b4",
      "to": "0xbf4a322f1496e5c3d34a9bcdb4c60567b38c7de2",
      "contractAddress": null
    }
  ],
  "libraries": [],
  "pending": [],
  "returns": {},
  "timestamp": 1736912077,
  "chain": 11155111,
  "commit": "51a374b"
}