{
  "transactions": [
    {
      "hash": "0xaf0a5e43246e73fd8bcc695c9dfd775b82c68c74271815500267e1c3b8d3b558",
      "transactionType": "CALL",
      "contractName": null,
      "contractAddress": "0x5eb9cc76c3506942c1c0ead70e877dd5e4f00cb0",
      "function": "buy(address)",
      "arguments": [
        "0xC77f7fed3b5Cc8249aDc428c5F44C9063B9734b4"
      ],
      "transaction": {
        "from": "0xc77f7fed3b5cc8249adc428c5f44c9063b9734b4",
        "to": "0x5eb9cc76c3506942c1c0ead70e877dd5e4f00cb0",
        "gas": "0x156c8",
        "value": "0xde0b6b3a7640000",
        "input": "0xf088d547000000000000000000000000c77f7fed3b5cc8249adc428c5f44c9063b9734b4",
        "nonce": "0x200",
        "chainId": "0xaa36a7"
      },
      "additionalContracts": [],
      "isFixedGasLimit": false
    }
  ],
  "receipts": [
    {
      "status": "0x1",
      "cumulativeGasUsed": "0xbad3cc",
      "logs": [
        {
          "address": "0x5eb9cc76c3506942c1c0ead70e877dd5e4f00cb0",
          "topics": [
            "0xddf252ad1be2c89b69c2b068fc378daa952ba7f163c4a11628f55a4df523b3ef",
            "0x0000000000000000000000000000000000000000000000000000000000000000",
            "0x000000000000000000000000c77f7fed3b5cc8249adc428c5f44c9063b9734b4"
          ],
          "data": "0x00000000000000000000000000000000000000000000003584bd027256a5d306",
          "blockHash": "0x3c6c629a4247f1fb6c4fb0924066284c68f51cf67595cd5360d5274af47b41d1",
          "blockNumber": "0x724b1b",
          "transactionHash": "0xaf0a5e43246e73fd8bcc695c9dfd775b82c68c74271815500267e1c3b8d3b558",
          "transactionIndex": "0x5a",
          "logIndex": "0x9f",
          "removed": false
        },
        {
          "address": "0x5eb9cc76c3506942c1c0ead70e877dd5e4f00cb0",
          "topics": [
            "0xddf252ad1be2c89b69c2b068fc378daa952ba7f163c4a11628f55a4df523b3ef",
            "0x0000000000000000000000000000000000000000000000000000000000000000",
            "0x000000000000000000000000c77f7fed3b5cc8249adc428c5f44c9063b9734b4"
          ],
          "data": "0x000000000000000000000000000000000000000000000000298f1733d6bbd980",
          "blockHash": "0x3c6c629a4247f1fb6c4fb0924066284c68f51cf67595cd5360d5274af47b41d1",
          "blockNumber": "0x724b1b",
          "transactionHash": "0xaf0a5e43246e73fd8bcc695c9dfd775b82c68c74271815500267e1c3b8d3b558",
          "transactionIndex": "0x5a",
          "logIndex": "0xa0",
          "removed": false
        },
        {
          "address": "0x5eb9cc76c3506942c1c0ead70e877dd5e4f00cb0",
          "topics": [
            "0x4afcb4a87cdbd9974efdb92ee48bc8d7cd0ae4bf217004db3d080cbaee652ca7"
          ],
          "data": "0x00000000000000000000000000000000000000000000000000000000678676ec000000000000000000000000000000000000000000000000000390090f33b6170000000000000000000000000000000000000000000000000de0b6b3a7640000",
          "blockHash": "0x3c6c629a4247f1fb6c4fb0924066284c68f51cf67595cd5360d5274af47b41d1",
          "blockNumber": "0x724b1b",
          "transactionHash": "0xaf0a5e43246e73fd8bcc695c9dfd775b82c68c74271815500267e1c3b8d3b558",
          "transactionIndex": "0x5a",
          "logIndex": "0xa1",
          "removed": false
        }
      ],
      "logsBloom": "0x00000000000000000000000000000000000000000000000000000000000000000000000000000000000000000000000000000000000000004000000000000000000000000000000000000008000000000000000000000000000000000000000000000000020000000000000004000800020000000000000000000010000000000000000000000000000000000000000000000000000000000000010000000000000000000000000000000000000000004000000000000000000000000000020000000002000000800000008000000000000000000000080000000000000020000000000000000000000000000000000000000000000000000000000000000000",
      "type": "0x2",
      "transactionHash": "0xaf0a5e43246e73fd8bcc695c9dfd775b82c68c74271815500267e1c3b8d3b558",
      "transactionIndex": "0x5a",
      "blockHash": "0x3c6c629a4247f1fb6c4fb0924066284c68f51cf67595cd5360d5274af47b41d1",
      "blockNumber": "0x724b1b",
      "gasUsed": "0xf82c",
      "effectiveGasPrice": "0x5575d0ae0",
      "from": "0xc77f7fed3b5cc8249adc428c5f44c9063b9734b4",
      "to": "0x5eb9cc76c3506942c1c0ead70e877dd5e4f00cb0",
      "contractAddress": null
    }
  ],
  "libraries": [],
  "pending": [],
  "returns": {},
  "timestamp": 1736865518,
  "chain": 11155111,
  "commit": "51a374b"
}