{
  "transactions": [
    {
      "hash": "0x289e8d1ca3bf5a2c306102069cecb41b191c447385352e0490fdf54300fcfa46",
      "transactionType": "CALL",
      "contractName": null,
      "contractAddress": "0x8aafd3ede9adb0ff97c7aebce82a919afb1c8764",
      "function": "sell(uint256)",
      "arguments": [
        "45240148279329020"
      ],
      "transaction": {
        "from": "0xc77f7fed3b5cc8249adc428c5f44c9063b9734b4",
        "to": "0x8aafd3ede9adb0ff97c7aebce82a919afb1c8764",
        "gas": "0x1724d",
        "value": "0x0",
        "input": "0xe4849b3200000000000000000000000000000000000000000000000000a0b9acd7c680fc",
        "nonce": "0x10a7",
        "chainId": "0xaa36a7"
      },
      "additionalContracts": [],
      "isFixedGasLimit": false
    }
  ],
  "receipts": [
    {
      "status": "0x1",
      "cumulativeGasUsed": "0xc689c5",
      "logs": [
        {
          "address": "0x8aafd3ede9adb0ff97c7aebce82a919afb1c8764",
          "topics": [
            "0xddf252ad1be2c89b69c2b068fc378daa952ba7f163c4a11628f55a4df523b3ef",
            "0x000000000000000000000000c77f7fed3b5cc8249adc428c5f44c9063b9734b4",
            "0x0000000000000000000000000000000000000000000000000000000000000000"
          ],
          "data": "0x000000000000000000000000000000000000000000000000009f708280087ff4",
          "blockHash": "0xb470224f1f34f3d29b1312939a8e3d8d484c8b75214f991428fdf61061b03bb9",
          "blockNumber": "0x73173a",
          "transactionHash": "0x289e8d1ca3bf5a2c306102069cecb41b191c447385352e0490fdf54300fcfa46",
          "transactionIndex": "0x7a",
          "logIndex": "0xf2",
          "removed": false
        },
        {
          "address": "0x8aafd3ede9adb0ff97c7aebce82a919afb1c8764",
          "topics": [
            "0xddf252ad1be2c89b69c2b068fc378daa952ba7f163c4a11628f55a4df523b3ef",
            "0x000000000000000000000000c77f7fed3b5cc8249adc428c5f44c9063b9734b4",
            "0x000000000000000000000000c77f7fed3b5cc8249adc428c5f44c9063b9734b4"
          ],
          "data": "0x0000000000000000000000000000000000000000000000000001492a57be0108",
          "blockHash": "0xb470224f1f34f3d29b1312939a8e3d8d484c8b75214f991428fdf61061b03bb9",
          "blockNumber": "0x73173a",
          "transactionHash": "0x289e8d1ca3bf5a2c306102069cecb41b191c447385352e0490fdf54300fcfa46",
          "transactionIndex": "0x7a",
          "logIndex": "0xf3",
          "removed": false
        },
        {
          "address": "0x8aafd3ede9adb0ff97c7aebce82a919afb1c8764",
          "topics": [
            "0x4afcb4a87cdbd9974efdb92ee48bc8d7cd0ae4bf217004db3d080cbaee652ca7"
          ],
          "data": "0x000000000000000000000000000000000000000000000000000000006790137c0000000000000000000000000000000000000000000000000004ff164686ac0a000000000000000000000000000000000000000000000000000039ddb7a0406a",
          "blockHash": "0xb470224f1f34f3d29b1312939a8e3d8d484c8b75214f991428fdf61061b03bb9",
          "blockNumber": "0x73173a",
          "transactionHash": "0x289e8d1ca3bf5a2c306102069cecb41b191c447385352e0490fdf54300fcfa46",
          "transactionIndex": "0x7a",
          "logIndex": "0xf4",
          "removed": false
        }
      ],
      "logsBloom": "0x00000000000000000000000000000000000000000600000000000000000000000000000000000000000000000000000000000000000000004000000000000000000000000000004000000008000000000000000000000000000000000000000000000000020000000000000000000800020000000000000000000010000000000000000000000000000000000000000000000000000000000000010000000000000000000000000000000000000000004000000000000000000000000000000000000002000000800000000000000000000000000000080000000000000020000000000000000000000000000000000000000000000000000000000000000000",
      "type": "0x2",
      "transactionHash": "0x289e8d1ca3bf5a2c306102069cecb41b191c447385352e0490fdf54300fcfa46",
      "transactionIndex": "0x7a",
      "blockHash": "0xb470224f1f34f3d29b1312939a8e3d8d484c8b75214f991428fdf61061b03bb9",
      "blockNumber": "0x73173a",
      "gasUsed": "0xfd33",
      "effectiveGasPrice": "0x4a64aa94",
      "from": "0xc77f7fed3b5cc8249adc428c5f44c9063b9734b4",
      "to": "0x8aafd3ede9adb0ff97c7aebce82a919afb1c8764",
      "contractAddress": null
    }
  ],
  "libraries": [],
  "pending": [],
  "returns": {},
  "timestamp": 1737495422,
  "chain": 11155111,
  "commit": "1d2fb70"
}