{
  "transactions": [
    {
      "hash": "0x509d1b7ef0d49e6d4cbcef82237223ecdf34320c4a78603886278353391f9822",
      "transactionType": "CALL",
      "contractName": null,
      "contractAddress": "0x270e88f8683660553e8ba4eb2ad7c91a1710d769",
      "function": "sell(uint256)",
      "arguments": [
        "720055886340498198543"
      ],
      "transaction": {
        "from": "0xc77f7fed3b5cc8249adc428c5f44c9063b9734b4",
        "to": "0x270e88f8683660553e8ba4eb2ad7c91a1710d769",
        "gas": "0x16fec",
        "value": "0x0",
        "input": "0xe4849b3200000000000000000000000000000000000000000000002708c8659b6a71100f",
        "nonce": "0x822",
        "chainId": "0xaa36a7"
      },
      "additionalContracts": [],
      "isFixedGasLimit": false
    }
  ],
  "receipts": [
    {
      "status": "0x1",
      "cumulativeGasUsed": "0x1180277",
      "logs": [
        {
          "address": "0x270e88f8683660553e8ba4eb2ad7c91a1710d769",
          "topics": [
            "0xddf252ad1be2c89b69c2b068fc378daa952ba7f163c4a11628f55a4df523b3ef",
            "0x000000000000000000000000c77f7fed3b5cc8249adc428c5f44c9063b9734b4",
            "0x0000000000000000000000000000000000000000000000000000000000000000"
          ],
          "data": "0x00000000000000000000000000000000000000000000002708c8659b6a71100f",
          "blockHash": "0x380d8767c5c194b24bbe6b6517c86d3c70f520f33c9dea156a30c750decae60d",
          "blockNumber": "0x725569",
          "transactionHash": "0x509d1b7ef0d49e6d4cbcef82237223ecdf34320c4a78603886278353391f9822",
          "transactionIndex": "0x36",
          "logIndex": "0x4f",
          "removed": false
        },
        {
          "address": "0x270e88f8683660553e8ba4eb2ad7c91a1710d769",
          "topics": [
            "0x4afcb4a87cdbd9974efdb92ee48bc8d7cd0ae4bf217004db3d080cbaee652ca7"
          ],
          "data": "0x000000000000000000000000000000000000000000000000000000006786f2f40000000000000000000000000000000000000000000000000004e68b4fd8f2cb0000000000000000000000000000000000000000000000000dc8266f64da9982",
          "blockHash": "0x380d8767c5c194b24bbe6b6517c86d3c70f520f33c9dea156a30c750decae60d",
          "blockNumber": "0x725569",
          "transactionHash": "0x509d1b7ef0d49e6d4cbcef82237223ecdf34320c4a78603886278353391f9822",
          "transactionIndex": "0x36",
          "logIndex": "0x50",
          "removed": false
        }
      ],
      "logsBloom": "0x00000000000000000000000000000000000000000000000000000000000000000000000000000000000000000000000020000000000000004000000000000000000000000000000000000008000000000000000000000000000000000000000000000000020000000000000000000800020000000000000000000010000000000000000000010000000000000000000000000000000000000000010000000000000000000000000000000000000000004000000000000000000000000000000000000002000000800000000000000000000000000000080000008000000020000000000000000000000000000000000000000000000000000000000000000000",
      "type": "0x2",
      "transactionHash": "0x509d1b7ef0d49e6d4cbcef82237223ecdf34320c4a78603886278353391f9822",
      "transactionIndex": "0x36",
      "blockHash": "0x380d8767c5c194b24bbe6b6517c86d3c70f520f33c9dea156a30c750decae60d",
      "blockNumber": "0x725569",
      "gasUsed": "0xfb93",
      "effectiveGasPrice": "0x91ed9353",
      "from": "0xc77f7fed3b5cc8249adc428c5f44c9063b9734b4",
      "to": "0x270e88f8683660553e8ba4eb2ad7c91a1710d769",
      "contractAddress": null
    }
  ],
  "libraries": [],
  "pending": [],
  "returns": {},
  "timestamp": 1736897269,
  "chain": 11155111,
  "commit": "51a374b"
}