{
  "transactions": [
    {
      "hash": "0x87802bf21c44a6b7ed762d86e6a77972c1b8f08b7d1d114e6bb8566d2c706fe4",
      "transactionType": "CALL",
      "contractName": null,
      "contractAddress": "0x8aafd3ede9adb0ff97c7aebce82a919afb1c8764",
      "function": "sell(uint256)",
      "arguments": [
        "5368123242037876868"
      ],
      "transaction": {
        "from": "0xc77f7fed3b5cc8249adc428c5f44c9063b9734b4",
        "to": "0x8aafd3ede9adb0ff97c7aebce82a919afb1c8764",
        "gas": "0x15dca",
        "value": "0x0",
        "input": "0xe4849b320000000000000000000000000000000000000000000000004a7f67a5a82f9884",
        "nonce": "0x127c",
        "chainId": "0xaa36a7"
      },
      "additionalContracts": [],
      "isFixedGasLimit": false
    }
  ],
  "receipts": [
    {
      "status": "0x1",
      "cumulativeGasUsed": "0x8e0783",
      "logs": [
        {
          "address": "0x8aafd3ede9adb0ff97c7aebce82a919afb1c8764",
          "topics": [
            "0xddf252ad1be2c89b69c2b068fc378daa952ba7f163c4a11628f55a4df523b3ef",
            "0x000000000000000000000000c77f7fed3b5cc8249adc428c5f44c9063b9734b4",
            "0x0000000000000000000000000000000000000000000000000000000000000000"
          ],
          "data": "0x00000000000000000000000000000000000000000000000049e6d568f09184de",
          "blockHash": "0xd1194c515e1764a28f234a73cd669b27b253285b6ae5a71b952ef6e13a10f593",
          "blockNumber": "0x731967",
          "transactionHash": "0x87802bf21c44a6b7ed762d86e6a77972c1b8f08b7d1d114e6bb8566d2c706fe4",
          "transactionIndex": "0x71",
          "logIndex": "0x81",
          "removed": false
        },
        {
          "address": "0x8aafd3ede9adb0ff97c7aebce82a919afb1c8764",
          "topics": [
            "0xddf252ad1be2c89b69c2b068fc378daa952ba7f163c4a11628f55a4df523b3ef",
            "0x000000000000000000000000c77f7fed3b5cc8249adc428c5f44c9063b9734b4",
            "0x000000000000000000000000c77f7fed3b5cc8249adc428c5f44c9063b9734b4"
          ],
          "data": "0x0000000000000000000000000000000000000000000000000098923cb79e13a6",
          "blockHash": "0xd1194c515e1764a28f234a73cd669b27b253285b6ae5a71b952ef6e13a10f593",
          "blockNumber": "0x731967",
          "transactionHash": "0x87802bf21c44a6b7ed762d86e6a77972c1b8f08b7d1d114e6bb8566d2c706fe4",
          "transactionIndex": "0x71",
          "logIndex": "0x82",
          "removed": false
        },
        {
          "address": "0x8aafd3ede9adb0ff97c7aebce82a919afb1c8764",
          "topics": [
            "0x4afcb4a87cdbd9974efdb92ee48bc8d7cd0ae4bf217004db3d080cbaee652ca7"
          ],
          "data": "0x0000000000000000000000000000000000000000000000000000000067902da40000000000000000000000000000000000000000000000000005435ec007e3cb000000000000000000000000000000000000000000000000001c40cdeaac70b0",
          "blockHash": "0xd1194c515e1764a28f234a73cd669b27b253285b6ae5a71b952ef6e13a10f593",
          "blockNumber": "0x731967",
          "transactionHash": "0x87802bf21c44a6b7ed762d86e6a77972c1b8f08b7d1d114e6bb8566d2c706fe4",
          "transactionIndex": "0x71",
          "logIndex": "0x83",
          "removed": false
        }
      ],
      "logsBloom": "0x00000000000000000000000000000000000000000600000000000000000000000000000000000000000000000000000000000000000000004000000000000000000000000000004000000008000000000000000000000000000000000000000000000000020000000000000000000800020000000000000000000010000000000000000000000000000000000000000000000000000000000000010000000000000000000000000000000000000000004000000000000000000000000000000000000002000000800000000000000000000000000000080000000000000020000000000000000000000000000000000000000000000000000000000000000000",
      "type": "0x2",
      "transactionHash": "0x87802bf21c44a6b7ed762d86e6a77972c1b8f08b7d1d114e6bb8566d2c706fe4",
      "transactionIndex": "0x71",
      "blockHash": "0xd1194c515e1764a28f234a73cd669b27b253285b6ae5a71b952ef6e13a10f593",
      "blockNumber": "0x731967",
      "gasUsed": "0xfd3f",
      "effectiveGasPrice": "0x41ef3cf7",
      "from": "0xc77f7fed3b5cc8249adc428c5f44c9063b9734b4",
      "to": "0x8aafd3ede9adb0ff97c7aebce82a919afb1c8764",
      "contractAddress": null
    }
  ],
  "libraries": [],
  "pending": [],
  "returns": {},
  "timestamp": 1737502117,
  "chain": 11155111,
  "commit": "1d2fb70"
}