{
  "transactions": [
    {
      "hash": "0xaf50da8ebf912c21df2aa3b68131c93987d8a3eb2bbd7c7618831bfe278adc89",
      "transactionType": "CALL",
      "contractName": null,
      "contractAddress": "0x8aafd3ede9adb0ff97c7aebce82a919afb1c8764",
      "function": "sell(uint256)",
      "arguments": [
        "685967229044"
      ],
      "transaction": {
        "from": "0xc77f7fed3b5cc8249adc428c5f44c9063b9734b4",
        "to": "0x8aafd3ede9adb0ff97c7aebce82a919afb1c8764",
        "gas": "0x1722a",
        "value": "0x0",
        "input": "0xe4849b320000000000000000000000000000000000000000000000000000009fb6d54074",
        "nonce": "0x1662",
        "chainId": "0xaa36a7"
      },
      "additionalContracts": [],
      "isFixedGasLimit": false
    }
  ],
  "receipts": [
    {
      "status": "0x1",
      "cumulativeGasUsed": "0xabeb11",
      "logs": [
        {
          "address": "0x8aafd3ede9adb0ff97c7aebce82a919afb1c8764",
          "topics": [
            "0xddf252ad1be2c89b69c2b068fc378daa952ba7f163c4a11628f55a4df523b3ef",
            "0x000000000000000000000000c77f7fed3b5cc8249adc428c5f44c9063b9734b4",
            "0x0000000000000000000000000000000000000000000000000000000000000000"
          ],
          "data": "0x0000000000000000000000000000000000000000000000000000009e6fbd048c",
          "blockHash": "0x08fcf464c9a677628bc624083a8411cb864210b570c4f013267c30e27958b4de",
          "blockNumber": "0x731e06",
          "transactionHash": "0xaf50da8ebf912c21df2aa3b68131c93987d8a3eb2bbd7c7618831bfe278adc89",
          "transactionIndex": "0x70",
          "logIndex": "0xa9",
          "removed": false
        },
        {
          "address": "0x8aafd3ede9adb0ff97c7aebce82a919afb1c8764",
          "topics": [
            "0xddf252ad1be2c89b69c2b068fc378daa952ba7f163c4a11628f55a4df523b3ef",
            "0x000000000000000000000000c77f7fed3b5cc8249adc428c5f44c9063b9734b4",
            "0x000000000000000000000000c77f7fed3b5cc8249adc428c5f44c9063b9734b4"
          ],
          "data": "0x0000000000000000000000000000000000000000000000000000000147183be8",
          "blockHash": "0x08fcf464c9a677628bc624083a8411cb864210b570c4f013267c30e27958b4de",
          "blockNumber": "0x731e06",
          "transactionHash": "0xaf50da8ebf912c21df2aa3b68131c93987d8a3eb2bbd7c7618831bfe278adc89",
          "transactionIndex": "0x70",
          "logIndex": "0xaa",
          "removed": false
        },
        {
          "address": "0x8aafd3ede9adb0ff97c7aebce82a919afb1c8764",
          "topics": [
            "0x4afcb4a87cdbd9974efdb92ee48bc8d7cd0ae4bf217004db3d080cbaee652ca7"
          ],
          "data": "0x000000000000000000000000000000000000000000000000000000006790653000000000000000000000000000000000000000000000000000152b8a4008def500000000000000000000000000000000000000000000000000000000f3a36dcc",
          "blockHash": "0x08fcf464c9a677628bc624083a8411cb864210b570c4f013267c30e27958b4de",
          "blockNumber": "0x731e06",
          "transactionHash": "0xaf50da8ebf912c21df2aa3b68131c93987d8a3eb2bbd7c7618831bfe278adc89",
          "transactionIndex": "0x70",
          "logIndex": "0xab",
          "removed": false
        }
      ],
      "logsBloom": "0x00000000000000000000000000000000000000000600000000000000000000000000000000000000000000000000000000000000000000004000000000000000000000000000004000000008000000000000000000000000000000000000000000000000020000000000000000000800020000000000000000000010000000000000000000000000000000000000000000000000000000000000010000000000000000000000000000000000000000004000000000000000000000000000000000000002000000800000000000000000000000000000080000000000000020000000000000000000000000000000000000000000000000000000000000000000",
      "type": "0x2",
      "transactionHash": "0xaf50da8ebf912c21df2aa3b68131c93987d8a3eb2bbd7c7618831bfe278adc89",
      "transactionIndex": "0x70",
      "blockHash": "0x08fcf464c9a677628bc624083a8411cb864210b570c4f013267c30e27958b4de",
      "blockNumber": "0x731e06",
      "gasUsed": "0xfd1b",
      "effectiveGasPrice": "0x47666113",
      "from": "0xc77f7fed3b5cc8249adc428c5f44c9063b9734b4",
      "to": "0x8aafd3ede9adb0ff97c7aebce82a919afb1c8764",
      "contractAddress": null
    }
  ],
  "libraries": [],
  "pending": [],
  "returns": {},
  "timestamp": 1737516337,
  "chain": 11155111,
  "commit": "1d2fb70"
}