{
  "transactions": [
    {
      "hash": "0x20dc7ca547c5ea7d40bd2e437c90d145dac93ee3f147b8110dba65d4fd3f8b9b",
      "transactionType": "CALL",
      "contractName": null,
      "contractAddress": "0xbf4a322f1496e5c3d34a9bcdb4c60567b38c7de2",
      "function": "buy(address)",
      "arguments": [
        "0xC77f7fed3b5Cc8249aDc428c5F44C9063B9734b4"
      ],
      "transaction": {
        "from": "0xc77f7fed3b5cc8249adc428c5f44c9063b9734b4",
        "to": "0xbf4a322f1496e5c3d34a9bcdb4c60567b38c7de2",
        "gas": "0x1b309",
        "value": "0xde0b6b3a7640000",
        "input": "0xf088d547000000000000000000000000c77f7fed3b5cc8249adc428c5f44c9063b9734b4",
        "nonce": "0xca6",
        "chainId": "0xaa36a7"
      },
      "additionalContracts": [],
      "isFixedGasLimit": false
    }
  ],
  "receipts": [
    {
      "status": "0x1",
      "cumulativeGasUsed": "0x1e4d07f",
      "logs": [
        {
          "address": "0xbf4a322f1496e5c3d34a9bcdb4c60567b38c7de2",
          "topics": [
            "0xddf252ad1be2c89b69c2b068fc378daa952ba7f163c4a11628f55a4df523b3ef",
            "0x0000000000000000000000000000000000000000000000000000000000000000",
            "0x000000000000000000000000c77f7fed3b5cc8249adc428c5f44c9063b9734b4"
          ],
          "data": "0x000000000000000000000000000000000000000000000034dc947be6f6adae4b",
          "blockHash": "0xb053653b3d80f688c190037a8645912635581bb3d8b895d960c79343a3246f4a",
          "blockNumber": "0x725cf1",
          "transactionHash": "0x20dc7ca547c5ea7d40bd2e437c90d145dac93ee3f147b8110dba65d4fd3f8b9b",
          "transactionIndex": "0xea",
          "logIndex": "0x1ac",
          "removed": false
        },
        {
          "address": "0xbf4a322f1496e5c3d34a9bcdb4c60567b38c7de2",
          "topics": [
            "0xddf252ad1be2c89b69c2b068fc378daa952ba7f163c4a11628f55a4df523b3ef",
            "0x0000000000000000000000000000000000000000000000000000000000000000",
            "0x000000000000000000000000c77f7fed3b5cc8249adc428c5f44c9063b9734b4"
          ],
          "data": "0x000000000000000000000000000000000000000000000000290c828dd3f136ad",
          "blockHash": "0xb053653b3d80f688c190037a8645912635581bb3d8b895d960c79343a3246f4a",
          "blockNumber": "0x725cf1",
          "transactionHash": "0x20dc7ca547c5ea7d40bd2e437c90d145dac93ee3f147b8110dba65d4fd3f8b9b",
          "transactionIndex": "0xea",
          "logIndex": "0x1ad",
          "removed": false
        },
        {
          "address": "0xbf4a322f1496e5c3d34a9bcdb4c60567b38c7de2",
          "topics": [
            "0x4afcb4a87cdbd9974efdb92ee48bc8d7cd0ae4bf217004db3d080cbaee652ca7"
          ],
          "data": "0x0000000000000000000000000000000000000000000000000000000067874dc000000000000000000000000000000000000000000000000000039b60a36b41870000000000000000000000000000000000000000000000000de0b6b3a7640000",
          "blockHash": "0xb053653b3d80f688c190037a8645912635581bb3d8b895d960c79343a3246f4a",
          "blockNumber": "0x725cf1",
          "transactionHash": "0x20dc7ca547c5ea7d40bd2e437c90d145dac93ee3f147b8110dba65d4fd3f8b9b",
          "transactionIndex": "0xea",
          "logIndex": "0x1ae",
          "removed": false
        }
      ],
      "logsBloom": "0x00000000000000000000000000000000000000000000000000000000000000000000000000000000000000000000000000000000000000004000000000000000000000000000000000000008000000000000001000000000000000000000000000000000020000000000000000000800020000000000000000000010000000000000000000000000000000000000000000000000000008000000010000000000000000000000000000000000000000004000000000000000000000000000000000000002000000800000000000001000000000000000080000000000000020000000000000000000000000000000000000000000000000000000000000000000",
      "type": "0x2",
      "transactionHash": "0x20dc7ca547c5ea7d40bd2e437c90d145dac93ee3f147b8110dba65d4fd3f8b9b",
      "transactionIndex": "0xea",
      "blockHash": "0xb053653b3d80f688c190037a8645912635581bb3d8b895d960c79343a3246f4a",
      "blockNumber": "0x725cf1",
      "gasUsed": "0x13af6",
      "effectiveGasPrice": "0x22590165e",
      "from": "0xc77f7fed3b5cc8249adc428c5f44c9063b9734b4",
      "to": "0xbf4a322f1496e5c3d34a9bcdb4c60567b38c7de2",
      "contractAddress": null
    }
  ],
  "libraries": [],
  "pending": [],
  "returns": {},
  "timestamp": 1736920513,
  "chain": 11155111,
  "commit": "51a374b"
}