{
  "transactions": [
    {
      "hash": "0x19ba3f233ac00f4ee27c7fd46eb5d9fde38b418202554f8284e191eeeae14056",
      "transactionType": "CALL",
      "contractName": null,
      "contractAddress": "0x5eb9cc76c3506942c1c0ead70e877dd5e4f00cb0",
      "function": "sell(uint256)",
      "arguments": [
        "989143026350979675097"
      ],
      "transaction": {
        "from": "0xc77f7fed3b5cc8249adc428c5f44c9063b9734b4",
        "to": "0x5eb9cc76c3506942c1c0ead70e877dd5e4f00cb0",
        "gas": "0x16fec",
        "value": "0x0",
        "input": "0xe4849b320000000000000000000000000000000000000000000000359f1df5c308fdf3d9",
        "nonce": "0x2f3",
        "chainId": "0xaa36a7"
      },
      "additionalContracts": [],
      "isFixedGasLimit": false
    }
  ],
  "receipts": [
    {
      "status": "0x1",
      "cumulativeGasUsed": "0x150cadc",
      "logs": [
        {
          "address": "0x5eb9cc76c3506942c1c0ead70e877dd5e4f00cb0",
          "topics": [
            "0xddf252ad1be2c89b69c2b068fc378daa952ba7f163c4a11628f55a4df523b3ef",
            "0x000000000000000000000000c77f7fed3b5cc8249adc428c5f44c9063b9734b4",
            "0x0000000000000000000000000000000000000000000000000000000000000000"
          ],
          "data": "0x0000000000000000000000000000000000000000000000359f1df5c308fdf3d9",
          "blockHash": "0x5b98dacea7055ad48396969157a33bcf6baf9242922a8ca7ac9cce945ff44878",
          "blockNumber": "0x724ed3",
          "transactionHash": "0x19ba3f233ac00f4ee27c7fd46eb5d9fde38b418202554f8284e191eeeae14056",
          "transactionIndex": "0xbd",
          "logIndex": "0x118",
          "removed": false
        },
        {
          "address": "0x5eb9cc76c3506942c1c0ead70e877dd5e4f00cb0",
          "topics": [
            "0x4afcb4a87cdbd9974efdb92ee48bc8d7cd0ae4bf217004db3d080cbaee652ca7"
          ],
          "data": "0x000000000000000000000000000000000000000000000000000000006786a3980000000000000000000000000000000000000000000000000003910b4de71cff0000000000000000000000000000000000000000000000000dc7db1332340211",
          "blockHash": "0x5b98dacea7055ad48396969157a33bcf6baf9242922a8ca7ac9cce945ff44878",
          "blockNumber": "0x724ed3",
          "transactionHash": "0x19ba3f233ac00f4ee27c7fd46eb5d9fde38b418202554f8284e191eeeae14056",
          "transactionIndex": "0xbd",
          "logIndex": "0x119",
          "removed": false
        }
      ],
      "logsBloom": "0x00000000000000000000000000000000000000000000000000000000000000000000000000000000000000000000000000000000000000004000000000000000000000000000000000000008000000000000000000000000000000000000000000000000020000000000000004000800020000000000000000000010000000000000000000000000000000000000000000000000000000000000010000000000000000000000000000000000000000004000000000000000000000000000020000000002000000800000008000000000000000000000080000000000000020000000000000000000000000000000000000000000000000000000000000000000",
      "type": "0x2",
      "transactionHash": "0x19ba3f233ac00f4ee27c7fd46eb5d9fde38b418202554f8284e191eeeae14056",
      "transactionIndex": "0xbd",
      "blockHash": "0x5b98dacea7055ad48396969157a33bcf6baf9242922a8ca7ac9cce945ff44878",
      "blockNumber": "0x724ed3",
      "gasUsed": "0xfb93",
      "effectiveGasPrice": "0x5ee355574",
      "from": "0xc77f7fed3b5cc8249adc428c5f44c9063b9734b4",
      "to": "0x5eb9cc76c3506942c1c0ead70e877dd5e4f00cb0",
      "contractAddress": null
    }
  ],
  "libraries": [],
  "pending": [],
  "returns": {},
  "timestamp": 1736876954,
  "chain": 11155111,
  "commit": "51a374b"
}