{
  "transactions": [
    {
      "hash": "0x4607d7e524b9c6b1e2e0d17eaa77ae2e98b7cff865c20bc439ae9416d7860484",
      "transactionType": "CALL",
      "contractName": null,
      "contractAddress": "0x8aafd3ede9adb0ff97c7aebce82a919afb1c8764",
      "function": "sell(uint256)",
      "arguments": [
        "451741"
      ],
      "transaction": {
        "from": "0xc77f7fed3b5cc8249adc428c5f44c9063b9734b4",
        "to": "0x8aafd3ede9adb0ff97c7aebce82a919afb1c8764",
        "gas": "0x16208",
        "value": "0x0",
        "input": "0xe4849b32000000000000000000000000000000000000000000000000000000000006e49d",
        "nonce": "0x14d0",
        "chainId": "0xaa36a7"
      },
      "additionalContracts": [],
      "isFixedGasLimit": false
    }
  ],
  "receipts": [
    {
      "status": "0x1",
      "cumulativeGasUsed": "0x923bd6",
      "logs": [
        {
          "address": "0x8aafd3ede9adb0ff97c7aebce82a919afb1c8764",
          "topics": [
            "0xddf252ad1be2c89b69c2b068fc378daa952ba7f163c4a11628f55a4df523b3ef",
            "0x000000000000000000000000c77f7fed3b5cc8249adc428c5f44c9063b9734b4",
            "0x0000000000000000000000000000000000000000000000000000000000000000"
          ],
          "data": "0x000000000000000000000000000000000000000000000000000000000006d680",
          "blockHash": "0x545aa72f396edfa07d8dba42e2452817af99ba2abb88c2d63dee8f9f6d2cf0cc",
          "blockNumber": "0x731c2e",
          "transactionHash": "0x4607d7e524b9c6b1e2e0d17eaa77ae2e98b7cff865c20bc439ae9416d7860484",
          "transactionIndex": "0x48",
          "logIndex": "0x8f",
          "removed": false
        },
        {
          "address": "0x8aafd3ede9adb0ff97c7aebce82a919afb1c8764",
          "topics": [
            "0xddf252ad1be2c89b69c2b068fc378daa952ba7f163c4a11628f55a4df523b3ef",
            "0x000000000000000000000000c77f7fed3b5cc8249adc428c5f44c9063b9734b4",
            "0x000000000000000000000000c77f7fed3b5cc8249adc428c5f44c9063b9734b4"
          ],
          "data": "0x0000000000000000000000000000000000000000000000000000000000000e1d",
          "blockHash": "0x545aa72f396edfa07d8dba42e2452817af99ba2abb88c2d63dee8f9f6d2cf0cc",
          "blockNumber": "0x731c2e",
          "transactionHash": "0x4607d7e524b9c6b1e2e0d17eaa77ae2e98b7cff865c20bc439ae9416d7860484",
          "transactionIndex": "0x48",
          "logIndex": "0x90",
          "removed": false
        },
        {
          "address": "0x8aafd3ede9adb0ff97c7aebce82a919afb1c8764",
          "topics": [
            "0x4afcb4a87cdbd9974efdb92ee48bc8d7cd0ae4bf217004db3d080cbaee652ca7"
          ],
          "data": "0x0000000000000000000000000000000000000000000000000000000067904f0400000000000000000000000000000000000000000000000000107b2a6d3ebb0e000000000000000000000000000000000000000000000000000000000000082f",
          "blockHash": "0x545aa72f396edfa07d8dba42e2452817af99ba2abb88c2d63dee8f9f6d2cf0cc",
          "blockNumber": "0x731c2e",
          "transactionHash": "0x4607d7e524b9c6b1e2e0d17eaa77ae2e98b7cff865c20bc439ae9416d7860484",
          "transactionIndex": "0x48",
          "logIndex": "0x91",
          "removed": false
        }
      ],
      "logsBloom": "0x00000000000000000000000000000000000000000600000000000000000000000000000000000000000000000000000000000000000000004000000000000000000000000000004000000008000000000000000000000000000000000000000000000000020000000000000000000800020000000000000000000010000000000000000000000000000000000000000000000000000000000000010000000000000000000000000000000000000000004000000000000000000000000000000000000002000000800000000000000000000000000000080000000000000020000000000000000000000000000000000000000000000000000000000000000000",
      "type": "0x2",
      "transactionHash": "0x4607d7e524b9c6b1e2e0d17eaa77ae2e98b7cff865c20bc439ae9416d7860484",
      "transactionIndex": "0x48",
      "blockHash": "0x545aa72f396edfa07d8dba42e2452817af99ba2abb88c2d63dee8f9f6d2cf0cc",
      "blockNumber": "0x731c2e",
      "gasUsed": "0xf213",
      "effectiveGasPrice": "0x132c4d729",
      "from": "0xc77f7fed3b5cc8249adc428c5f44c9063b9734b4",
      "to": "0x8aafd3ede9adb0ff97c7aebce82a919afb1c8764",
      "contractAddress": null
    }
  ],
  "libraries": [],
  "pending": [],
  "returns": {},
  "timestamp": 1737510662,
  "chain": 11155111,
  "commit": "1d2fb70"
}