{
  "transactions": [
    {
      "hash": "0x75989298fc7d11399e96b50313f84fdc03f702644a3949272caf4b0a62d2d6d9",
      "transactionType": "CALL",
      "contractName": null,
      "contractAddress": "0x8aafd3ede9adb0ff97c7aebce82a919afb1c8764",
      "function": "sell(uint256)",
      "arguments": [
        "10019438780429071"
      ],
      "transaction": {
        "from": "0xc77f7fed3b5cc8249adc428c5f44c9063b9734b4",
        "to": "0x8aafd3ede9adb0ff97c7aebce82a919afb1c8764",
        "gas": "0x1724d",
        "value": "0x0",
        "input": "0xe4849b32000000000000000000000000000000000000000000000000002398a0615b330f",
        "nonce": "0x16de",
        "chainId": "0xaa36a7"
      },
      "additionalContracts": [],
      "isFixedGasLimit": false
    }
  ],
  "receipts": [
    {
      "status": "0x1",
      "cumulativeGasUsed": "0x8fe66e",
      "logs": [
        {
          "address": "0x8aafd3ede9adb0ff97c7aebce82a919afb1c8764",
          "topics": [
            "0xddf252ad1be2c89b69c2b068fc378daa952ba7f163c4a11628f55a4df523b3ef",
            "0x000000000000000000000000c77f7fed3b5cc8249adc428c5f44c9063b9734b4",
            "0x0000000000000000000000000000000000000000000000000000000000000000"
          ],
          "data": "0x00000000000000000000000000000000000000000000000000234fb9b8a432a7",
          "blockHash": "0x3bc4899ae1fa02b88f36b6e54b0ac23fb45abda731181a19209ec35f16d1cb86",
          "blockNumber": "0x731e9b",
          "transactionHash": "0x75989298fc7d11399e96b50313f84fdc03f702644a3949272caf4b0a62d2d6d9",
          "transactionIndex": "0x5d",
          "logIndex": "0xb1",
          "removed": false
        },
        {
          "address": "0x8aafd3ede9adb0ff97c7aebce82a919afb1c8764",
          "topics": [
            "0xddf252ad1be2c89b69c2b068fc378daa952ba7f163c4a11628f55a4df523b3ef",
            "0x000000000000000000000000c77f7fed3b5cc8249adc428c5f44c9063b9734b4",
            "0x000000000000000000000000c77f7fed3b5cc8249adc428c5f44c9063b9734b4"
          ],
          "data": "0x000000000000000000000000000000000000000000000000000048e6a8b70068",
          "blockHash": "0x3bc4899ae1fa02b88f36b6e54b0ac23fb45abda731181a19209ec35f16d1cb86",
          "blockNumber": "0x731e9b",
          "transactionHash": "0x75989298fc7d11399e96b50313f84fdc03f702644a3949272caf4b0a62d2d6d9",
          "transactionIndex": "0x5d",
          "logIndex": "0xb2",
          "removed": false
        },
        {
          "address": "0x8aafd3ede9adb0ff97c7aebce82a919afb1c8764",
          "topics": [
            "0x4afcb4a87cdbd9974efdb92ee48bc8d7cd0ae4bf217004db3d080cbaee652ca7"
          ],
          "data": "0x0000000000000000000000000000000000000000000000000000000067906c2c0000000000000000000000000000000000000000000000000016a3bb591b76f000000000000000000000000000000000000000000000000000003a11e9629317",
          "blockHash": "0x3bc4899ae1fa02b88f36b6e54b0ac23fb45abda731181a19209ec35f16d1cb86",
          "blockNumber": "0x731e9b",
          "transactionHash": "0x75989298fc7d11399e96b50313f84fdc03f702644a3949272caf4b0a62d2d6d9",
          "transactionIndex": "0x5d",
          "logIndex": "0xb3",
          "removed": false
        }
      ],
      "logsBloom": "0x00000000000000000000000000000000000000000600000000000000000000000000000000000000000000000000000000000000000000004000000000000000000000000000004000000008000000000000000000000000000000000000000000000000020000000000000000000800020000000000000000000010000000000000000000000000000000000000000000000000000000000000010000000000000000000000000000000000000000004000000000000000000000000000000000000002000000800000000000000000000000000000080000000000000020000000000000000000000000000000000000000000000000000000000000000000",
      "type": "0x2",
      "transactionHash": "0x75989298fc7d11399e96b50313f84fdc03f702644a3949272caf4b0a62d2d6d9",
      "transactionIndex": "0x5d",
      "blockHash": "0x3bc4899ae1fa02b88f36b6e54b0ac23fb45abda731181a19209ec35f16d1cb86",
      "blockNumber": "0x731e9b",
      "gasUsed": "0xfd33",
      "effectiveGasPrice": "0x499f1507",
      "from": "0xc77f7fed3b5cc8249adc428c5f44c9063b9734b4",
      "to": "0x8aafd3ede9adb0ff97c7aebce82a919afb1c8764",
      "contractAddress": null
    }
  ],
  "libraries": [],
  "pending": [],
  "returns": {},
  "timestamp": 1737518125,
  "chain": 11155111,
  "commit": "1d2fb70"
}