{
  "transactions": [
    {
      "hash": "0x59dfb4803c2b2d1ac35c3d57eebf9ef33a0b7265d019f85eadb0df6a61729c72",
      "transactionType": "CALL",
      "contractName": null,
      "contractAddress": "0x270e88f8683660553e8ba4eb2ad7c91a1710d769",
      "function": "sell(uint256)",
      "arguments": [
        "712895353179416366488"
      ],
      "transaction": {
        "from": "0xc77f7fed3b5cc8249adc428c5f44c9063b9734b4",
        "to": "0x270e88f8683660553e8ba4eb2ad7c91a1710d769",
        "gas": "0x16fec",
        "value": "0x0",
        "input": "0xe4849b32000000000000000000000000000000000000000000000026a56912a29dc10d98",
        "nonce": "0x878",
        "chainId": "0xaa36a7"
      },
      "additionalContracts": [],
      "isFixedGasLimit": false
    }
  ],
  "receipts": [
    {
      "status": "0x1",
      "cumulativeGasUsed": "0x105f14a",
      "logs": [
        {
          "address": "0x270e88f8683660553e8ba4eb2ad7c91a1710d769",
          "topics": [
            "0xddf252ad1be2c89b69c2b068fc378daa952ba7f163c4a11628f55a4df523b3ef",
            "0x000000000000000000000000c77f7fed3b5cc8249adc428c5f44c9063b9734b4",
            "0x0000000000000000000000000000000000000000000000000000000000000000"
          ],
          "data": "0x000000000000000000000000000000000000000000000026a56912a29dc10d98",
          "blockHash": "0x16a7c0991fdc394306cb43d17fcd421dba0a6c1159bc0ecae8feaca8f632d293",
          "blockNumber": "0x7255d1",
          "transactionHash": "0x59dfb4803c2b2d1ac35c3d57eebf9ef33a0b7265d019f85eadb0df6a61729c72",
          "transactionIndex": "0x51",
          "logIndex": "0x1b2",
          "removed": false
        },
        {
          "address": "0x270e88f8683660553e8ba4eb2ad7c91a1710d769",
          "topics": [
            "0x4afcb4a87cdbd9974efdb92ee48bc8d7cd0ae4bf217004db3d080cbaee652ca7"
          ],
          "data": "0x000000000000000000000000000000000000000000000000000000006786f7d40000000000000000000000000000000000000000000000000004f3246beeea660000000000000000000000000000000000000000000000000dc825b1887c8ac2",
          "blockHash": "0x16a7c0991fdc394306cb43d17fcd421dba0a6c1159bc0ecae8feaca8f632d293",
          "blockNumber": "0x7255d1",
          "transactionHash": "0x59dfb4803c2b2d1ac35c3d57eebf9ef33a0b7265d019f85eadb0df6a61729c72",
          "transactionIndex": "0x51",
          "logIndex": "0x1b3",
          "removed": false
        }
      ],
      "logsBloom": "0x00000000000000000000000000000000000000000000000000000000000000000000000000000000000000000000000020000000000000004000000000000000000000000000000000000008000000000000000000000000000000000000000000000000020000000000000000000800020000000000000000000010000000000000000000010000000000000000000000000000000000000000010000000000000000000000000000000000000000004000000000000000000000000000000000000002000000800000000000000000000000000000080000008000000020000000000000000000000000000000000000000000000000000000000000000000",
      "type": "0x2",
      "transactionHash": "0x59dfb4803c2b2d1ac35c3d57eebf9ef33a0b7265d019f85eadb0df6a61729c72",
      "transactionIndex": "0x51",
      "blockHash": "0x16a7c0991fdc394306cb43d17fcd421dba0a6c1159bc0ecae8feaca8f632d293",
      "blockNumber": "0x7255d1",
      "gasUsed": "0xfb93",
      "effectiveGasPrice": "0xa52a7187",
      "from": "0xc77f7fed3b5cc8249adc428c5f44c9063b9734b4",
      "to": "0x270e88f8683660553e8ba4eb2ad7c91a1710d769",
      "contractAddress": null
    }
  ],
  "libraries": [],
  "pending": [],
  "returns": {},
  "timestamp": 1736898516,
  "chain": 11155111,
  "commit": "51a374b"
}