{
  "transactions": [
    {
      "hash": "0xc411e19542dea1e9f5f2e0cce4a9fa54ed3f04b265b0fee1a7dc85655a3d5147",
      "transactionType": "CALL",
      "contractName": null,
      "contractAddress": "0x8aafd3ede9adb0ff97c7aebce82a919afb1c8764",
      "function": "buy(address)",
      "arguments": [
        "0xC77f7fed3b5Cc8249aDc428c5F44C9063B9734b4"
      ],
      "transaction": {
        "from": "0xc77f7fed3b5cc8249adc428c5f44c9063b9734b4",
        "to": "0x8aafd3ede9adb0ff97c7aebce82a919afb1c8764",
        "gas": "0x156ea",
        "value": "0xde0b6b3a7640000",
        "input": "0xf088d547000000000000000000000000c77f7fed3b5cc8249adc428c5f44c9063b9734b4",
        "nonce": "0x142f",
        "chainId": "0xaa36a7"
      },
      "additionalContracts": [],
      "isFixedGasLimit": false
    }
  ],
  "receipts": [
    {
      "status": "0x1",
      "cumulativeGasUsed": "0xdca502",
      "logs": [
        {
          "address": "0x8aafd3ede9adb0ff97c7aebce82a919afb1c8764",
          "topics": [
            "0xddf252ad1be2c89b69c2b068fc378daa952ba7f163c4a11628f55a4df523b3ef",
            "0x0000000000000000000000000000000000000000000000000000000000000000",
            "0x000000000000000000000000c77f7fed3b5cc8249adc428c5f44c9063b9734b4"
          ],
          "data": "0x00000000000000000000000000000000000000000000000d09b877c3ec827be6",
          "blockHash": "0x7618097d9caab0d98d2208b0127b74824ae702a1c8c9e6c643b73ab66971ff99",
          "blockNumber": "0x731b6d",
          "transactionHash": "0xc411e19542dea1e9f5f2e0cce4a9fa54ed3f04b265b0fee1a7dc85655a3d5147",
          "transactionIndex": "0x61",
          "logIndex": "0xae",
          "removed": false
        },
        {
          "address": "0x8aafd3ede9adb0ff97c7aebce82a919afb1c8764",
          "topics": [
            "0xddf252ad1be2c89b69c2b068fc378daa952ba7f163c4a11628f55a4df523b3ef",
            "0x0000000000000000000000000000000000000000000000000000000000000000",
            "0x000000000000000000000000c77f7fed3b5cc8249adc428c5f44c9063b9734b4"
          ],
          "data": "0x0000000000000000000000000000000000000000000000000a1fda97b92edf11",
          "blockHash": "0x7618097d9caab0d98d2208b0127b74824ae702a1c8c9e6c643b73ab66971ff99",
          "blockNumber": "0x731b6d",
          "transactionHash": "0xc411e19542dea1e9f5f2e0cce4a9fa54ed3f04b265b0fee1a7dc85655a3d5147",
          "transactionIndex": "0x61",
          "logIndex": "0xaf",
          "removed": false
        },
        {
          "address": "0x8aafd3ede9adb0ff97c7aebce82a919afb1c8764",
          "topics": [
            "0x4afcb4a87cdbd9974efdb92ee48bc8d7cd0ae4bf217004db3d080cbaee652ca7"
          ],
          "data": "0x00000000000000000000000000000000000000000000000000000000679045f8000000000000000000000000000000000000000000000000000ea605d72ad83d0000000000000000000000000000000000000000000000000de0b6b3a7640000",
          "blockHash": "0x7618097d9caab0d98d2208b0127b74824ae702a1c8c9e6c643b73ab66971ff99",
          "blockNumber": "0x731b6d",
          "transactionHash": "0xc411e19542dea1e9f5f2e0cce4a9fa54ed3f04b265b0fee1a7dc85655a3d5147",
          "transactionIndex": "0x61",
          "logIndex": "0xb0",
          "removed": false
        }
      ],
      "logsBloom": "0x00000000000000000000000000000000000000000600000000000000000000000000000000000000000000000000000000000000000000004000000000000000000000000000004000000008000000000000000000000000000000000000000000000000020000000000000000000800020000000000000000000010000000000000000000000000000000000000000000000000000000000000010000000000000000000000000000000000000000004000000000000000000000000000000000000002000000800000000000000000000000000000080000000000000020000000000000000000000000000000000000000000000000000000000000000000",
      "type": "0x2",
      "transactionHash": "0xc411e19542dea1e9f5f2e0cce4a9fa54ed3f04b265b0fee1a7dc85655a3d5147",
      "transactionIndex": "0x61",
      "blockHash": "0x7618097d9caab0d98d2208b0127b74824ae702a1c8c9e6c643b73ab66971ff99",
      "blockNumber": "0x731b6d",
      "gasUsed": "0xf844",
      "effectiveGasPrice": "0x105235ad6",
      "from": "0xc77f7fed3b5cc8249adc428c5f44c9063b9734b4",
      "to": "0x8aafd3ede9adb0ff97c7aebce82a919afb1c8764",
      "contractAddress": null
    }
  ],
  "libraries": [],
  "pending": [],
  "returns": {},
  "timestamp": 1737508346,
  "chain": 11155111,
  "commit": "1d2fb70"
}