{
  "transactions": [
    {
      "hash": "0xb634edc9868bac0e9ecea76eca10e3905bc94a737da767f4f478ef5ef1ca7334",
      "transactionType": "CALL",
      "contractName": null,
      "contractAddress": "0x8aafd3ede9adb0ff97c7aebce82a919afb1c8764",
      "function": "sell(uint256)",
      "arguments": [
        "5316455234659030181"
      ],
      "transaction": {
        "from": "0xc77f7fed3b5cc8249adc428c5f44c9063b9734b4",
        "to": "0x8aafd3ede9adb0ff97c7aebce82a919afb1c8764",
        "gas": "0x15dca",
        "value": "0x0",
        "input": "0xe4849b3200000000000000000000000000000000000000000000000049c7d7de3e1e14a5",
        "nonce": "0x12d6",
        "chainId": "0xaa36a7"
      },
      "additionalContracts": [],
      "isFixedGasLimit": false
    }
  ],
  "receipts": [
    {
      "status": "0x1",
      "cumulativeGasUsed": "0xd43ef3",
      "logs": [
        {
          "address": "0x8aafd3ede9adb0ff97c7aebce82a919afb1c8764",
          "topics": [
            "0xddf252ad1be2c89b69c2b068fc378daa952ba7f163c4a11628f55a4df523b3ef",
            "0x000000000000000000000000c77f7fed3b5cc8249adc428c5f44c9063b9734b4",
            "0x0000000000000000000000000000000000000000000000000000000000000000"
          ],
          "data": "0x0000000000000000000000000000000000000000000000004930bd90b04efdf4",
          "blockHash": "0x97df059c133a404d87b997ffa3767c32cbc8dd3173612bc6c26104119f8bfefc",
          "blockNumber": "0x7319d4",
          "transactionHash": "0xb634edc9868bac0e9ecea76eca10e3905bc94a737da767f4f478ef5ef1ca7334",
          "transactionIndex": "0x77",
          "logIndex": "0xc2",
          "removed": false
        },
        {
          "address": "0x8aafd3ede9adb0ff97c7aebce82a919afb1c8764",
          "topics": [
            "0xddf252ad1be2c89b69c2b068fc378daa952ba7f163c4a11628f55a4df523b3ef",
            "0x000000000000000000000000c77f7fed3b5cc8249adc428c5f44c9063b9734b4",
            "0x000000000000000000000000c77f7fed3b5cc8249adc428c5f44c9063b9734b4"
          ],
          "data": "0x00000000000000000000000000000000000000000000000000971a4d8dcf16b1",
          "blockHash": "0x97df059c133a404d87b997ffa3767c32cbc8dd3173612bc6c26104119f8bfefc",
          "blockNumber": "0x7319d4",
          "transactionHash": "0xb634edc9868bac0e9ecea76eca10e3905bc94a737da767f4f478ef5ef1ca7334",
          "transactionIndex": "0x77",
          "logIndex": "0xc3",
          "removed": false
        },
        {
          "address": "0x8aafd3ede9adb0ff97c7aebce82a919afb1c8764",
          "topics": [
            "0x4afcb4a87cdbd9974efdb92ee48bc8d7cd0ae4bf217004db3d080cbaee652ca7"
          ],
          "data": "0x00000000000000000000000000000000000000000000000000000000679032c00000000000000000000000000000000000000000000000000005507359fe799d000000000000000000000000000000000000000000000000001c40bb09bfd931",
          "blockHash": "0x97df059c133a404d87b997ffa3767c32cbc8dd3173612bc6c26104119f8bfefc",
          "blockNumber": "0x7319d4",
          "transactionHash": "0xb634edc9868bac0e9ecea76eca10e3905bc94a737da767f4f478ef5ef1ca7334",
          "transactionIndex": "0x77",
          "logIndex": "0xc4",
          "removed": false
        }
      ],
      "logsBloom": "0x00000000000000000000000000000000000000000600000000000000000000000000000000000000000000000000000000000000000000004000000000000000000000000000004000000008000000000000000000000000000000000000000000000000020000000000000000000800020000000000000000000010000000000000000000000000000000000000000000000000000000000000010000000000000000000000000000000000000000004000000000000000000000000000000000000002000000800000000000000000000000000000080000000000000020000000000000000000000000000000000000000000000000000000000000000000",
      "type": "0x2",
      "transactionHash": "0xb634edc9868bac0e9ecea76eca10e3905bc94a737da767f4f478ef5ef1ca7334",
      "transactionIndex": "0x77",
      "blockHash": "0x97df059c133a404d87b997ffa3767c32cbc8dd3173612bc6c26104119f8bfefc",
      "blockNumber": "0x7319d4",
      "gasUsed": "0xfd3f",
      "effectiveGasPrice": "0x3a2430a7",
      "from": "0xc77f7fed3b5cc8249adc428c5f44c9063b9734b4",
      "to": "0x8aafd3ede9adb0ff97c7aebce82a919afb1c8764",
      "contractAddress": null
    }
  ],
  "libraries": [],
  "pending": [],
  "returns": {},
  "timestamp": 1737503426,
  "chain": 11155111,
  "commit": "1d2fb70"
}