{
  "transactions": [
    {
      "hash": "0x8871f72a62ee44dab7d1f9aa6e2c9e71e602caea7981c614dd79e21076b111de",
      "transactionType": "CALL",
      "contractName": null,
      "contractAddress": "0xbf4a322f1496e5c3d34a9bcdb4c60567b38c7de2",
      "function": "sell(uint256)",
      "arguments": [
        "973318432692743186208"
      ],
      "transaction": {
        "from": "0xc77f7fed3b5cc8249adc428c5f44c9063b9734b4",
        "to": "0xbf4a322f1496e5c3d34a9bcdb4c60567b38c7de2",
        "gas": "0x16fea",
        "value": "0x0",
        "input": "0xe4849b32000000000000000000000000000000000000000000000034c381b5ac06e82720",
        "nonce": "0xe0d",
        "chainId": "0xaa36a7"
      },
      "additionalContracts": [],
      "isFixedGasLimit": false
    }
  ],
  "receipts": [
    {
      "status": "0x1",
      "cumulativeGasUsed": "0xef7e72",
      "logs": [
        {
          "address": "0xbf4a322f1496e5c3d34a9bcdb4c60567b38c7de2",
          "topics": [
            "0xddf252ad1be2c89b69c2b068fc378daa952ba7f163c4a11628f55a4df523b3ef",
            "0x000000000000000000000000c77f7fed3b5cc8249adc428c5f44c9063b9734b4",
            "0x0000000000000000000000000000000000000000000000000000000000000000"
          ],
          "data": "0x000000000000000000000000000000000000000000000034c381b5ac06e82720",
          "blockHash": "0x3c5a93e54e0d07f55c124a4c03ab9e2566ce123432adc54528ce69adb39ab7e7",
          "blockNumber": "0x7266f5",
          "transactionHash": "0x8871f72a62ee44dab7d1f9aa6e2c9e71e602caea7981c614dd79e21076b111de",
          "transactionIndex": "0x63",
          "logIndex": "0xd0",
          "removed": false
        },
        {
          "address": "0xbf4a322f1496e5c3d34a9bcdb4c60567b38c7de2",
          "topics": [
            "0x4afcb4a87cdbd9974efdb92ee48bc8d7cd0ae4bf217004db3d080cbaee652ca7"
          ],
          "data": "0x000000000000000000000000000000000000000000000000000000006787c6c800000000000000000000000000000000000000000000000000039fe9eaf14bdd0000000000000000000000000000000000000000000000000dc7e3d288044827",
          "blockHash": "0x3c5a93e54e0d07f55c124a4c03ab9e2566ce123432adc54528ce69adb39ab7e7",
          "blockNumber": "0x7266f5",
          "transactionHash": "0x8871f72a62ee44dab7d1f9aa6e2c9e71e602caea7981c614dd79e21076b111de",
          "transactionIndex": "0x63",
          "logIndex": "0xd1",
          "removed": false
        }
      ],
      "logsBloom": "0x00000000000000000000000000000000000000000000000000000000000000000000000000000000000000000000000000000000000000004000000000000000000000000000000000000008000000000000001000000000000000000000000000000000020000000000000000000800020000000000000000000010000000000000000000000000000000000000000000000000000008000000010000000000000000000000000000000000000000004000000000000000000000000000000000000002000000800000000000001000000000000000080000000000000020000000000000000000000000000000000000000000000000000000000000000000",
      "type": "0x2",
      "transactionHash": "0x8871f72a62ee44dab7d1f9aa6e2c9e71e602caea7981c614dd79e21076b111de",
      "transactionIndex": "0x63",
      "blockHash": "0x3c5a93e54e0d07f55c124a4c03ab9e2566ce123432adc54528ce69adb39ab7e7",
      "blockNumber": "0x7266f5",
      "gasUsed": "0xfb91",
      "effectiveGasPrice": "0x3772c94ee",
      "from": "0xc77f7fed3b5cc8249adc428c5f44c9063b9734b4",
      "to": "0xbf4a322f1496e5c3d34a9bcdb4c60567b38c7de2",
      "contractAddress": null
    }
  ],
  "libraries": [],
  "pending": [],
  "returns": {},
  "timestamp": 1736951498,
  "chain": 11155111,
  "commit": "51a374b"
}