{
  "transactions": [
    {
      "hash": "0x25898895bf82a078ef21b55f4e1053f7a5f469996b96790a0b6a9c5ad809b8b2",
      "transactionType": "CALL",
      "contractName": null,
      "contractAddress": "0x8aafd3ede9adb0ff97c7aebce82a919afb1c8764",
      "function": "sell(uint256)",
      "arguments": [
        "353089673217683"
      ],
      "transaction": {
        "from": "0xc77f7fed3b5cc8249adc428c5f44c9063b9734b4",
        "to": "0x8aafd3ede9adb0ff97c7aebce82a919afb1c8764",
        "gas": "0x1724d",
        "value": "0x0",
        "input": "0xe4849b3200000000000000000000000000000000000000000000000000014122188bc693",
        "nonce": "0x1184",
        "chainId": "0xaa36a7"
      },
      "additionalContracts": [],
      "isFixedGasLimit": false
    }
  ],
  "receipts": [
    {
      "status": "0x1",
      "cumulativeGasUsed": "0xc2dd1f",
      "logs": [
        {
          "address": "0x8aafd3ede9adb0ff97c7aebce82a919afb1c8764",
          "topics": [
            "0xddf252ad1be2c89b69c2b068fc378daa952ba7f163c4a11628f55a4df523b3ef",
            "0x000000000000000000000000c77f7fed3b5cc8249adc428c5f44c9063b9734b4",
            "0x0000000000000000000000000000000000000000000000000000000000000000"
          ],
          "data": "0x00000000000000000000000000000000000000000000000000013e906a450686",
          "blockHash": "0x081916fa2d1b01fe2aba6f51021a0b48a89f6811b913def81ce3acbca082255c",
          "blockNumber": "0x731847",
          "transactionHash": "0x25898895bf82a078ef21b55f4e1053f7a5f469996b96790a0b6a9c5ad809b8b2",
          "transactionIndex": "0x8c",
          "logIndex": "0xe6",
          "removed": false
        },
        {
          "address": "0x8aafd3ede9adb0ff97c7aebce82a919afb1c8764",
          "topics": [
            "0xddf252ad1be2c89b69c2b068fc378daa952ba7f163c4a11628f55a4df523b3ef",
            "0x000000000000000000000000c77f7fed3b5cc8249adc428c5f44c9063b9734b4",
            "0x000000000000000000000000c77f7fed3b5cc8249adc428c5f44c9063b9734b4"
          ],
          "data": "0x00000000000000000000000000000000000000000000000000000291ae46c00d",
          "blockHash": "0x081916fa2d1b01fe2aba6f51021a0b48a89f6811b913def81ce3acbca082255c",
          "blockNumber": "0x731847",
          "transactionHash": "0x25898895bf82a078ef21b55f4e1053f7a5f469996b96790a0b6a9c5ad809b8b2",
          "transactionIndex": "0x8c",
          "logIndex": "0xe7",
          "removed": false
        },
        {
          "address": "0x8aafd3ede9adb0ff97c7aebce82a919afb1c8764",
          "topics": [
            "0x4afcb4a87cdbd9974efdb92ee48bc8d7cd0ae4bf217004db3d080cbaee652ca7"
          ],
          "data": "0x000000000000000000000000000000000000000000000000000000006790201800000000000000000000000000000000000000000000000000051f0b35fb6f1d0000000000000000000000000000000000000000000000000000007681aa2026",
          "blockHash": "0x081916fa2d1b01fe2aba6f51021a0b48a89f6811b913def81ce3acbca082255c",
          "blockNumber": "0x731847",
          "transactionHash": "0x25898895bf82a078ef21b55f4e1053f7a5f469996b96790a0b6a9c5ad809b8b2",
          "transactionIndex": "0x8c",
          "logIndex": "0xe8",
          "removed": false
        }
      ],
      "logsBloom": "0x00000000000000000000000000000000000000000600000000000000000000000000000000000000000000000000000000000000000000004000000000000000000000000000004000000008000000000000000000000000000000000000000000000000020000000000000000000800020000000000000000000010000000000000000000000000000000000000000000000000000000000000010000000000000000000000000000000000000000004000000000000000000000000000000000000002000000800000000000000000000000000000080000000000000020000000000000000000000000000000000000000000000000000000000000000000",
      "type": "0x2",
      "transactionHash": "0x25898895bf82a078ef21b55f4e1053f7a5f469996b96790a0b6a9c5ad809b8b2",
      "transactionIndex": "0x8c",
      "blockHash": "0x081916fa2d1b01fe2aba6f51021a0b48a89f6811b913def81ce3acbca082255c",
      "blockNumber": "0x731847",
      "gasUsed": "0xfd33",
      "effectiveGasPrice": "0x4342a3a7",
      "from": "0xc77f7fed3b5cc8249adc428c5f44c9063b9734b4",
      "to": "0x8aafd3ede9adb0ff97c7aebce82a919afb1c8764",
      "contractAddress": null
    }
  ],
  "libraries": [],
  "pending": [],
  "returns": {},
  "timestamp": 1737498650,
  "chain": 11155111,
  "commit": "1d2fb70"
}