{
  "transactions": [
    {
      "hash": "0xf5f924e6b8bde4befc615d50ba0d055d12e735d488941b1fc27db1a2c33a976d",
      "transactionType": "CALL",
      "contractName": null,
      "contractAddress": "0x270e88f8683660553e8ba4eb2ad7c91a1710d769",
      "function": "buy(address)",
      "arguments": [
        "0xC77f7fed3b5Cc8249aDc428c5F44C9063B9734b4"
      ],
      "transaction": {
        "from": "0xc77f7fed3b5cc8249adc428c5f44c9063b9734b4",
        "to": "0x270e88f8683660553e8ba4eb2ad7c91a1710d769",
        "gas": "0x1b30c",
        "value": "0xde0b6b3a7640000",
        "input": "0xf088d547000000000000000000000000c77f7fed3b5cc8249adc428c5f44c9063b9734b4",
        "nonce": "0x54c",
        "chainId": "0xaa36a7"
      },
      "additionalContracts": [],
      "isFixedGasLimit": false
    }
  ],
  "receipts": [
    {
      "status": "0x1",
      "cumulativeGasUsed": "0x1d60d35",
      "logs": [
        {
          "address": "0x270e88f8683660553e8ba4eb2ad7c91a1710d769",
          "topics": [
            "0xddf252ad1be2c89b69c2b068fc378daa952ba7f163c4a11628f55a4df523b3ef",
            "0x0000000000000000000000000000000000000000000000000000000000000000",
            "0x000000000000000000000000c77f7fed3b5cc8249adc428c5f44c9063b9734b4"
          ],
          "data": "0x000000000000000000000000000000000000000000000034a6dd991d43045149",
          "blockHash": "0xf52ca0bc2f17154b6ebba02a802120f3152763dd90a82ffb1f3ef13253d5e833",
          "blockNumber": "0x7251eb",
          "transactionHash": "0xf5f924e6b8bde4befc615d50ba0d055d12e735d488941b1fc27db1a2c33a976d",
          "transactionIndex": "0x6f",
          "logIndex": "0xc9",
          "removed": false
        },
        {
          "address": "0x270e88f8683660553e8ba4eb2ad7c91a1710d769",
          "topics": [
            "0xddf252ad1be2c89b69c2b068fc378daa952ba7f163c4a11628f55a4df523b3ef",
            "0x0000000000000000000000000000000000000000000000000000000000000000",
            "0x000000000000000000000000c77f7fed3b5cc8249adc428c5f44c9063b9734b4"
          ],
          "data": "0x00000000000000000000000000000000000000000000000028e2cc85a7129c70",
          "blockHash": "0xf52ca0bc2f17154b6ebba02a802120f3152763dd90a82ffb1f3ef13253d5e833",
          "blockNumber": "0x7251eb",
          "transactionHash": "0xf5f924e6b8bde4befc615d50ba0d055d12e735d488941b1fc27db1a2c33a976d",
          "transactionIndex": "0x6f",
          "logIndex": "0xca",
          "removed": false
        },
        {
          "address": "0x270e88f8683660553e8ba4eb2ad7c91a1710d769",
          "topics": [
            "0x4afcb4a87cdbd9974efdb92ee48bc8d7cd0ae4bf217004db3d080cbaee652ca7"
          ],
          "data": "0x000000000000000000000000000000000000000000000000000000006786c8f400000000000000000000000000000000000000000000000000039f2708025e560000000000000000000000000000000000000000000000000de0b6b3a7640000",
          "blockHash": "0xf52ca0bc2f17154b6ebba02a802120f3152763dd90a82ffb1f3ef13253d5e833",
          "blockNumber": "0x7251eb",
          "transactionHash": "0xf5f924e6b8bde4befc615d50ba0d055d12e735d488941b1fc27db1a2c33a976d",
          "transactionIndex": "0x6f",
          "logIndex": "0xcb",
          "removed": false
        }
      ],
      "logsBloom": "0x00000000000000000000000000000000000000000000000000000000000000000000000000000000000000000000000020000000000000004000000000000000000000000000000000000008000000000000000000000000000000000000000000000000020000000000000000000800020000000000000000000010000000000000000000010000000000000000000000000000000000000000010000000000000000000000000000000000000000004000000000000000000000000000000000000002000000800000000000000000000000000000080000008000000020000000000000000000000000000000000000000000000000000000000000000000",
      "type": "0x2",
      "transactionHash": "0xf5f924e6b8bde4befc615d50ba0d055d12e735d488941b1fc27db1a2c33a976d",
      "transactionIndex": "0x6f",
      "blockHash": "0xf52ca0bc2f17154b6ebba02a802120f3152763dd90a82ffb1f3ef13253d5e833",
      "blockNumber": "0x7251eb",
      "gasUsed": "0x13af8",
      "effectiveGasPrice": "0x40a9e7a1a",
      "from": "0xc77f7fed3b5cc8249adc428c5f44c9063b9734b4",
      "to": "0x270e88f8683660553e8ba4eb2ad7c91a1710d769",
      "contractAddress": null
    }
  ],
  "libraries": [],
  "pending": [],
  "returns": {},
  "timestamp": 1736886517,
  "chain": 11155111,
  "commit": "51a374b"
}