{
  "transactions": [
    {
      "hash": "0x359c6ca914329187da8a7073bf90992fa605f6c745681bb9c46ad5f8fb7d56e2",
      "transactionType": "CALL",
      "contractName": null,
      "contractAddress": "0x8aafd3ede9adb0ff97c7aebce82a919afb1c8764",
      "function": "sell(uint256)",
      "arguments": [
        "1145385493982876729"
      ],
      "transaction": {
        "from": "0xc77f7fed3b5cc8249adc428c5f44c9063b9734b4",
        "to": "0x8aafd3ede9adb0ff97c7aebce82a919afb1c8764",
        "gas": "0x15dca",
        "value": "0x0",
        "input": "0xe4849b320000000000000000000000000000000000000000000000000fe53a09cbbc1439",
        "nonce": "0x1791",
        "chainId": "0xaa36a7"
      },
      "additionalContracts": [],
      "isFixedGasLimit": false
    }
  ],
  "receipts": [
    {
      "status": "0x1",
      "cumulativeGasUsed": "0xe553e4",
      "logs": [
        {
          "address": "0x8aafd3ede9adb0ff97c7aebce82a919afb1c8764",
          "topics": [
            "0xddf252ad1be2c89b69c2b068fc378daa952ba7f163c4a11628f55a4df523b3ef",
            "0x000000000000000000000000c77f7fed3b5cc8249adc428c5f44c9063b9734b4",
            "0x0000000000000000000000000000000000000000000000000000000000000000"
          ],
          "data": "0x0000000000000000000000000000000000000000000000000fc4ac430fbc9f54",
          "blockHash": "0xf51170cb146a4e9618a92274dc38cc9d242da534f4bd033920c8accee3ee915f",
          "blockNumber": "0x731f6d",
          "transactionHash": "0x359c6ca914329187da8a7073bf90992fa605f6c745681bb9c46ad5f8fb7d56e2",
          "transactionIndex": "0x59",
          "logIndex": "0xc7",
          "removed": false
        },
        {
          "address": "0x8aafd3ede9adb0ff97c7aebce82a919afb1c8764",
          "topics": [
            "0xddf252ad1be2c89b69c2b068fc378daa952ba7f163c4a11628f55a4df523b3ef",
            "0x000000000000000000000000c77f7fed3b5cc8249adc428c5f44c9063b9734b4",
            "0x000000000000000000000000c77f7fed3b5cc8249adc428c5f44c9063b9734b4"
          ],
          "data": "0x00000000000000000000000000000000000000000000000000208dc6bbff74e5",
          "blockHash": "0xf51170cb146a4e9618a92274dc38cc9d242da534f4bd033920c8accee3ee915f",
          "blockNumber": "0x731f6d",
          "transactionHash": "0x359c6ca914329187da8a7073bf90992fa605f6c745681bb9c46ad5f8fb7d56e2",
          "transactionIndex": "0x59",
          "logIndex": "0xc8",
          "removed": false
        },
        {
          "address": "0x8aafd3ede9adb0ff97c7aebce82a919afb1c8764",
          "topics": [
            "0x4afcb4a87cdbd9974efdb92ee48bc8d7cd0ae4bf217004db3d080cbaee652ca7"
          ],
          "data": "0x00000000000000000000000000000000000000000000000000000000679076040000000000000000000000000000000000000000000000000018bef81ac7ca59000000000000000000000000000000000000000000000000001c57cc75e78890",
          "blockHash": "0xf51170cb146a4e9618a92274dc38cc9d242da534f4bd033920c8accee3ee915f",
          "blockNumber": "0x731f6d",
          "transactionHash": "0x359c6ca914329187da8a7073bf90992fa605f6c745681bb9c46ad5f8fb7d56e2",
          "transactionIndex": "0x59",
          "logIndex": "0xc9",
          "removed": false
        }
      ],
      "logsBloom": "0x00000000000000000000000000000000000000000600000000000000000000000000000000000000000000000000000000000000000000004000000000000000000000000000004000000008000000000000000000000000000000000000000000000000020000000000000000000800020000000000000000000010000000000000000000000000000000000000000000000000000000000000010000000000000000000000000000000000000000004000000000000000000000000000000000000002000000800000000000000000000000000000080000000000000020000000000000000000000000000000000000000000000000000000000000000000",
      "type": "0x2",
      "transactionHash": "0x359c6ca914329187da8a7073bf90992fa605f6c745681bb9c46ad5f8fb7d56e2",
      "transactionIndex": "0x59",
      "blockHash": "0xf51170cb146a4e9618a92274dc38cc9d242da534f4bd033920c8accee3ee915f",
      "blockNumber": "0x731f6d",
      "gasUsed": "0xfd3f",
      "effectiveGasPrice": "0x48bde93c",
      "from": "0xc77f7fed3b5cc8249adc428c5f44c9063b9734b4",
      "to": "0x8aafd3ede9adb0ff97c7aebce82a919afb1c8764",
      "contractAddress": null
    }
  ],
  "libraries": [],
  "pending": [],
  "returns": {},
  "timestamp": 1737520645,
  "chain": 11155111,
  "commit": "1d2fb70"
}