{
  "transactions": [
    {
      "hash": "0xa9cbef8a2decc46544a62db814a53d6fa0cb4145eea4d37f128be88c1562118d",
      "transactionType": "CALL",
      "contractName": null,
      "contractAddress": "0x8aafd3ede9adb0ff97c7aebce82a919afb1c8764",
      "function": "sell(uint256)",
      "arguments": [
        "787486413758"
      ],
      "transaction": {
        "from": "0xc77f7fed3b5cc8249adc428c5f44c9063b9734b4",
        "to": "0x8aafd3ede9adb0ff97c7aebce82a919afb1c8764",
        "gas": "0x1722a",
        "value": "0x0",
        "input": "0xe4849b32000000000000000000000000000000000000000000000000000000b759d913be",
        "nonce": "0x1578",
        "chainId": "0xaa36a7"
      },
      "additionalContracts": [],
      "isFixedGasLimit": false
    }
  ],
  "receipts": [
    {
      "status": "0x1",
      "cumulativeGasUsed": "0xd23ebe",
      "logs": [
        {
          "address": "0x8aafd3ede9adb0ff97c7aebce82a919afb1c8764",
          "topics": [
            "0xddf252ad1be2c89b69c2b068fc378daa952ba7f163c4a11628f55a4df523b3ef",
            "0x000000000000000000000000c77f7fed3b5cc8249adc428c5f44c9063b9734b4",
            "0x0000000000000000000000000000000000000000000000000000000000000000"
          ],
          "data": "0x000000000000000000000000000000000000000000000000000000b5e2585d50",
          "blockHash": "0x49be844324c7c7b748b00abd121ac29686200028586f534c44ad14f54a001667",
          "blockNumber": "0x731ce2",
          "transactionHash": "0xa9cbef8a2decc46544a62db814a53d6fa0cb4145eea4d37f128be88c1562118d",
          "transactionIndex": "0x95",
          "logIndex": "0xc1",
          "removed": false
        },
        {
          "address": "0x8aafd3ede9adb0ff97c7aebce82a919afb1c8764",
          "topics": [
            "0xddf252ad1be2c89b69c2b068fc378daa952ba7f163c4a11628f55a4df523b3ef",
            "0x000000000000000000000000c77f7fed3b5cc8249adc428c5f44c9063b9734b4",
            "0x000000000000000000000000c77f7fed3b5cc8249adc428c5f44c9063b9734b4"
          ],
          "data": "0x000000000000000000000000000000000000000000000000000000017780b66e",
          "blockHash": "0x49be844324c7c7b748b00abd121ac29686200028586f534c44ad14f54a001667",
          "blockNumber": "0x731ce2",
          "transactionHash": "0xa9cbef8a2decc46544a62db814a53d6fa0cb4145eea4d37f128be88c1562118d",
          "transactionIndex": "0x95",
          "logIndex": "0xc2",
          "removed": false
        },
        {
          "address": "0x8aafd3ede9adb0ff97c7aebce82a919afb1c8764",
          "topics": [
            "0x4afcb4a87cdbd9974efdb92ee48bc8d7cd0ae4bf217004db3d080cbaee652ca7"
          ],
          "data": "0x000000000000000000000000000000000000000000000000000000006790578000000000000000000000000000000000000000000000000000127428d9f7049500000000000000000000000000000000000000000000000000000000f3cecaa6",
          "blockHash": "0x49be844324c7c7b748b00abd121ac29686200028586f534c44ad14f54a001667",
          "blockNumber": "0x731ce2",
          "transactionHash": "0xa9cbef8a2decc46544a62db814a53d6fa0cb4145eea4d37f128be88c1562118d",
          "transactionIndex": "0x95",
          "logIndex": "0xc3",
          "removed": false
        }
      ],
      "logsBloom": "0x00000000000000000000000000000000000000000600000000000000000000000000000000000000000000000000000000000000000000004000000000000000000000000000004000000008000000000000000000000000000000000000000000000000020000000000000000000800020000000000000000000010000000000000000000000000000000000000000000000000000000000000010000000000000000000000000000000000000000004000000000000000000000000000000000000002000000800000000000000000000000000000080000000000000020000000000000000000000000000000000000000000000000000000000000000000",
      "type": "0x2",
      "transactionHash": "0xa9cbef8a2decc46544a62db814a53d6fa0cb4145eea4d37f128be88c1562118d",
      "transactionIndex": "0x95",
      "blockHash": "0x49be844324c7c7b748b00abd121ac29686200028586f534c44ad14f54a001667",
      "blockNumber": "0x731ce2",
      "gasUsed": "0xfd1b",
      "effectiveGasPrice": "0x75340dde",
      "from": "0xc77f7fed3b5cc8249adc428c5f44c9063b9734b4",
      "to": "0x8aafd3ede9adb0ff97c7aebce82a919afb1c8764",
      "contractAddress": null
    }
  ],
  "libraries": [],
  "pending": [],
  "returns": {},
  "timestamp": 1737512833,
  "chain": 11155111,
  "commit": "1d2fb70"
}