{
  "transactions": [
    {
      "hash": "0x24d2fcc1e1e389e6f8e8e077f053cca0ec9a82971f660dd1ee5cd9e7ee208af2",
      "transactionType": "CALL",
      "contractName": null,
      "contractAddress": "0x371db76e5c2db0be4a6ca5eca6b54bc60e88b44e",
      "function": "borrow(uint256,uint256)",
      "arguments": [
        "9999999999999990",
        "0"
      ],
      "transaction": {
        "from": "0xc77f7fed3b5cc8249adc428c5f44c9063b9734b4",
        "to": "0x371db76e5c2db0be4a6ca5eca6b54bc60e88b44e",
        "gas": "0x57f17",
        "value": "0x0",
        "input": "0x0ecbcdab000000000000000000000000000000000000000000000000002386f26fc0fff60000000000000000000000000000000000000000000000000000000000000000",
        "nonce": "0x1898",
        "chainId": "0xaa36a7"
      },
      "additionalContracts": [],
      "isFixedGasLimit": false
    }
  ],
  "receipts": [
    {
      "status": "0x1",
      "cumulativeGasUsed": "0x10762fb",
      "logs": [
        {
          "address": "0x371db76e5c2db0be4a6ca5eca6b54bc60e88b44e",
          "topics": [
            "0xddf252ad1be2c89b69c2b068fc378daa952ba7f163c4a11628f55a4df523b3ef",
            "0x000000000000000000000000c77f7fed3b5cc8249adc428c5f44c9063b9734b4",
            "0x000000000000000000000000371db76e5c2db0be4a6ca5eca6b54bc60e88b44e"
          ],
          "data": "0x0000000000000000000000000000000000000000000000008ac7230489e7ffff",
          "blockHash": "0xecc5da2cfa31d1c312f072c8db36991b533bcf7adba995189f617f8e6fc3811c",
          "blockNumber": "0x73826d",
          "transactionHash": "0x24d2fcc1e1e389e6f8e8e077f053cca0ec9a82971f660dd1ee5cd9e7ee208af2",
          "transactionIndex": "0x64",
          "logIndex": "0x151",
          "removed": false
        },
        {
          "address": "0x371db76e5c2db0be4a6ca5eca6b54bc60e88b44e",
          "topics": [
            "0xddf252ad1be2c89b69c2b068fc378daa952ba7f163c4a11628f55a4df523b3ef",
            "0x000000000000000000000000371db76e5c2db0be4a6ca5eca6b54bc60e88b44e",
            "0x000000000000000000000000c77f7fed3b5cc8249adc428c5f44c9063b9734b4"
          ],
          "data": "0x000000000000000000000000000000000000000000000000000aa87bee537ed6",
          "blockHash": "0xecc5da2cfa31d1c312f072c8db36991b533bcf7adba995189f617f8e6fc3811c",
          "blockNumber": "0x73826d",
          "transactionHash": "0x24d2fcc1e1e389e6f8e8e077f053cca0ec9a82971f660dd1ee5cd9e7ee208af2",
          "transactionIndex": "0x64",
          "logIndex": "0x152",
          "removed": false
        },
        {
          "address": "0x371db76e5c2db0be4a6ca5eca6b54bc60e88b44e",
          "topics": [
            "0xddf252ad1be2c89b69c2b068fc378daa952ba7f163c4a11628f55a4df523b3ef",
            "0x000000000000000000000000371db76e5c2db0be4a6ca5eca6b54bc60e88b44e",
            "0x0000000000000000000000000000000000000000000000000000000000000000"
          ],
          "data": "0x0000000000000000000000000000000000000000000000000018de76816d7d4b",
          "blockHash": "0xecc5da2cfa31d1c312f072c8db36991b533bcf7adba995189f617f8e6fc3811c",
          "blockNumber": "0x73826d",
          "transactionHash": "0x24d2fcc1e1e389e6f8e8e077f053cca0ec9a82971f660dd1ee5cd9e7ee208af2",
          "transactionIndex": "0x64",
          "logIndex": "0x153",
          "removed": false
        },
        {
          "address": "0x371db76e5c2db0be4a6ca5eca6b54bc60e88b44e",
          "topics": [
            "0x03bbe564cb1b78e43195eeadbde99e5b89b19345862807fcfb59f884e4165e25"
          ],
          "data": "0x000000000000000000000000c77f7fed3b5cc8249adc428c5f44c9063b9734b4000000000000000000000000000000000000000000000000002322fe594b07f7",
          "blockHash": "0xecc5da2cfa31d1c312f072c8db36991b533bcf7adba995189f617f8e6fc3811c",
          "blockNumber": "0x73826d",
          "transactionHash": "0x24d2fcc1e1e389e6f8e8e077f053cca0ec9a82971f660dd1ee5cd9e7ee208af2",
          "transactionIndex": "0x64",
          "logIndex": "0x154",
          "removed": false
        },
        {
          "address": "0x371db76e5c2db0be4a6ca5eca6b54bc60e88b44e",
          "topics": [
            "0xaec00f5213a37254bc68a26b0685d1a5b2bf513e1e587c94c7df7f4a62b56c9c"
          ],
          "data": "0x0000000000000000000000000000000000000000000000008aa39c121a2703de000000000000000000000000000000000000000000000000002322fe594b07f7000000000000000000000000000000000000000000000000002322fe594b07f70000000000000000000000000000000000000000000000008aa39c121a2703de",
          "blockHash": "0xecc5da2cfa31d1c312f072c8db36991b533bcf7adba995189f617f8e6fc3811c",
          "blockNumber": "0x73826d",
          "transactionHash": "0x24d2fcc1e1e389e6f8e8e077f053cca0ec9a82971f660dd1ee5cd9e7ee208af2",
          "transactionIndex": "0x64",
          "logIndex": "0x155",
          "removed": false
        },
        {
          "address": "0x371db76e5c2db0be4a6ca5eca6b54bc60e88b44e",
          "topics": [
            "0x4afcb4a87cdbd9974efdb92ee48bc8d7cd0ae4bf217004db3d080cbaee652ca7"
          ],
          "data": "0x000000000000000000000000000000000000000000000000000000006795455400000000000000000000000000000000000000000000000000038e21bd40e347000000000000000000000000000000000000000000000000000009184e729fff",
          "blockHash": "0xecc5da2cfa31d1c312f072c8db36991b533bcf7adba995189f617f8e6fc3811c",
          "blockNumber": "0x73826d",
          "transactionHash": "0x24d2fcc1e1e389e6f8e8e077f053cca0ec9a82971f660dd1ee5cd9e7ee208af2",
          "transactionIndex": "0x64",
          "logIndex": "0x156",
          "removed": false
        }
      ],
      "logsBloom": "0x0000000000000000000000000000010040000000000000000000080000000000000a004000000000000000000000000000002000000000004000000000000000000000000000000000000008000000000000000000000000000000000000000000000000020000000000000000000800020000000000000080000010000000000000000000000000000000000000000000000000000000000000010000000000000000000000000000000400000000004000000000000000000000001000020000000002000000800000000000000000000000000000080000000000000020000000000000000000000000000000000000000000000000000000000000000000",
      "type": "0x2",
      "transactionHash": "0x24d2fcc1e1e389e6f8e8e077f053cca0ec9a82971f660dd1ee5cd9e7ee208af2",
      "transactionIndex": "0x64",
      "blockHash": "0xecc5da2cfa31d1c312f072c8db36991b533bcf7adba995189f617f8e6fc3811c",
      "blockNumber": "0x73826d",
      "gasUsed": "0x3fab6",
      "effectiveGasPrice": "0xc4b18903",
      "from": "0xc77f7fed3b5cc8249adc428c5f44c9063b9734b4",
      "to": "0x371db76e5c2db0be4a6ca5eca6b54bc60e88b44e",
      "contractAddress": null
    }
  ],
  "libraries": [],
  "pending": [],
  "returns": {},
  "timestamp": 1737835862,
  "chain": 11155111,
  "commit": "f5162e9"
}