{
  "transactions": [
    {
      "hash": "0x5d11f4522827cf37759314a57870e4cc6f97537d9fdb04565186e86d427b8e9e",
      "transactionType": "CALL",
      "contractName": null,
      "contractAddress": "0x270e88f8683660553e8ba4eb2ad7c91a1710d769",
      "function": "sell(uint256)",
      "arguments": [
        "717041059401708620849"
      ],
      "transaction": {
        "from": "0xc77f7fed3b5cc8249adc428c5f44c9063b9734b4",
        "to": "0x270e88f8683660553e8ba4eb2ad7c91a1710d769",
        "gas": "0x16fec",
        "value": "0x0",
        "input": "0xe4849b32000000000000000000000000000000000000000000000026def1947ac09c4c31",
        "nonce": "0x846",
        "chainId": "0xaa36a7"
      },
      "additionalContracts": [],
      "isFixedGasLimit": false
    }
  ],
  "receipts": [
    {
      "status": "0x1",
      "cumulativeGasUsed": "0x8ca155",
      "logs": [
        {
          "address": "0x270e88f8683660553e8ba4eb2ad7c91a1710d769",
          "topics": [
            "0xddf252ad1be2c89b69c2b068fc378daa952ba7f163c4a11628f55a4df523b3ef",
            "0x000000000000000000000000c77f7fed3b5cc8249adc428c5f44c9063b9734b4",
            "0x0000000000000000000000000000000000000000000000000000000000000000"
          ],
          "data": "0x000000000000000000000000000000000000000000000026def1947ac09c4c31",
          "blockHash": "0x68ac6cde37fdb5e791540aba2fbfa8df94b48604d4f32eb31677954a3c8bd7fd",
          "blockNumber": "0x725595",
          "transactionHash": "0x5d11f4522827cf37759314a57870e4cc6f97537d9fdb04565186e86d427b8e9e",
          "transactionIndex": "0x3e",
          "logIndex": "0x65",
          "removed": false
        },
        {
          "address": "0x270e88f8683660553e8ba4eb2ad7c91a1710d769",
          "topics": [
            "0x4afcb4a87cdbd9974efdb92ee48bc8d7cd0ae4bf217004db3d080cbaee652ca7"
          ],
          "data": "0x000000000000000000000000000000000000000000000000000000006786f5040000000000000000000000000000000000000000000000000004ebd1576ad4ab0000000000000000000000000000000000000000000000000dc8261f762aa632",
          "blockHash": "0x68ac6cde37fdb5e791540aba2fbfa8df94b48604d4f32eb31677954a3c8bd7fd",
          "blockNumber": "0x725595",
          "transactionHash": "0x5d11f4522827cf37759314a57870e4cc6f97537d9fdb04565186e86d427b8e9e",
          "transactionIndex": "0x3e",
          "logIndex": "0x66",
          "removed": false
        }
      ],
      "logsBloom": "0x00000000000000000000000000000000000000000000000000000000000000000000000000000000000000000000000020000000000000004000000000000000000000000000000000000008000000000000000000000000000000000000000000000000020000000000000000000800020000000000000000000010000000000000000000010000000000000000000000000000000000000000010000000000000000000000000000000000000000004000000000000000000000000000000000000002000000800000000000000000000000000000080000008000000020000000000000000000000000000000000000000000000000000000000000000000",
      "type": "0x2",
      "transactionHash": "0x5d11f4522827cf37759314a57870e4cc6f97537d9fdb04565186e86d427b8e9e",
      "transactionIndex": "0x3e",
      "blockHash": "0x68ac6cde37fdb5e791540aba2fbfa8df94b48604d4f32eb31677954a3c8bd7fd",
      "blockNumber": "0x725595",
      "gasUsed": "0xfb93",
      "effectiveGasPrice": "0x747c8d81",
      "from": "0xc77f7fed3b5cc8249adc428c5f44c9063b9734b4",
      "to": "0x270e88f8683660553e8ba4eb2ad7c91a1710d769",
      "contractAddress": null
    }
  ],
  "libraries": [],
  "pending": [],
  "returns": {},
  "timestamp": 1736897798,
  "chain": 11155111,
  "commit": "51a374b"
}