{
  "transactions": [
    {
      "hash": "0xdb14a777b9ca176ec4d72be221447eb0a2da97a78d3fdedefb24a0350a84242e",
      "transactionType": "CALL",
      "contractName": null,
      "contractAddress": "0x270e88f8683660553e8ba4eb2ad7c91a1710d769",
      "function": "sell(uint256)",
      "arguments": [
        "732546518524815481248"
      ],
      "transaction": {
        "from": "0xc77f7fed3b5cc8249adc428c5f44c9063b9734b4",
        "to": "0x270e88f8683660553e8ba4eb2ad7c91a1710d769",
        "gas": "0x16fec",
        "value": "0x0",
        "input": "0xe4849b32000000000000000000000000000000000000000000000027b620096688bc19a0",
        "nonce": "0x790",
        "chainId": "0xaa36a7"
      },
      "additionalContracts": [],
      "isFixedGasLimit": false
    }
  ],
  "receipts": [
    {
      "status": "0x1",
      "cumulativeGasUsed": "0x6992c0",
      "logs": [
        {
          "address": "0x270e88f8683660553e8ba4eb2ad7c91a1710d769",
          "topics": [
            "0xddf252ad1be2c89b69c2b068fc378daa952ba7f163c4a11628f55a4df523b3ef",
            "0x000000000000000000000000c77f7fed3b5cc8249adc428c5f44c9063b9734b4",
            "0x0000000000000000000000000000000000000000000000000000000000000000"
          ],
          "data": "0x000000000000000000000000000000000000000000000027b620096688bc19a0",
          "blockHash": "0x97562a4a320068cce609d3a9051324e04ddd2d5f66f63370082074f1e520f6ce",
          "blockNumber": "0x7254c3",
          "transactionHash": "0xdb14a777b9ca176ec4d72be221447eb0a2da97a78d3fdedefb24a0350a84242e",
          "transactionIndex": "0x1f",
          "logIndex": "0x42",
          "removed": false
        },
        {
          "address": "0x270e88f8683660553e8ba4eb2ad7c91a1710d769",
          "topics": [
            "0x4afcb4a87cdbd9974efdb92ee48bc8d7cd0ae4bf217004db3d080cbaee652ca7"
          ],
          "data": "0x000000000000000000000000000000000000000000000000000000006786eb2c0000000000000000000000000000000000000000000000000004d128701208cb0000000000000000000000000000000000000000000000000dc827ba79823b90",
          "blockHash": "0x97562a4a320068cce609d3a9051324e04ddd2d5f66f63370082074f1e520f6ce",
          "blockNumber": "0x7254c3",
          "transactionHash": "0xdb14a777b9ca176ec4d72be221447eb0a2da97a78d3fdedefb24a0350a84242e",
          "transactionIndex": "0x1f",
          "logIndex": "0x43",
          "removed": false
        }
      ],
      "logsBloom": "0x00000000000000000000000000000000000000000000000000000000000000000000000000000000000000000000000020000000000000004000000000000000000000000000000000000008000000000000000000000000000000000000000000000000020000000000000000000800020000000000000000000010000000000000000000010000000000000000000000000000000000000000010000000000000000000000000000000000000000004000000000000000000000000000000000000002000000800000000000000000000000000000080000008000000020000000000000000000000000000000000000000000000000000000000000000000",
      "type": "0x2",
      "transactionHash": "0xdb14a777b9ca176ec4d72be221447eb0a2da97a78d3fdedefb24a0350a84242e",
      "transactionIndex": "0x1f",
      "blockHash": "0x97562a4a320068cce609d3a9051324e04ddd2d5f66f63370082074f1e520f6ce",
      "blockNumber": "0x7254c3",
      "gasUsed": "0xfb93",
      "effectiveGasPrice": "0x102c1e458",
      "from": "0xc77f7fed3b5cc8249adc428c5f44c9063b9734b4",
      "to": "0x270e88f8683660553e8ba4eb2ad7c91a1710d769",
      "contractAddress": null
    }
  ],
  "libraries": [],
  "pending": [],
  "returns": {},
  "timestamp": 1736895277,
  "chain": 11155111,
  "commit": "51a374b"
}