{
  "transactions": [
    {
      "hash": "0xf67b8ca66373b76c2d8c62f2492e6f32c2c637121927b56f52945f00e44b31c4",
      "transactionType": "CALL",
      "contractName": null,
      "contractAddress": "0xbf4a322f1496e5c3d34a9bcdb4c60567b38c7de2",
      "function": "sell(uint256)",
      "arguments": [
        "988272128554117341896"
      ],
      "transaction": {
        "from": "0xc77f7fed3b5cc8249adc428c5f44c9063b9734b4",
        "to": "0xbf4a322f1496e5c3d34a9bcdb4c60567b38c7de2",
        "gas": "0x16fea",
        "value": "0x0",
        "input": "0xe4849b320000000000000000000000000000000000000000000000359307e8d46f57a2c8",
        "nonce": "0x9b5",
        "chainId": "0xaa36a7"
      },
      "additionalContracts": [],
      "isFixedGasLimit": false
    }
  ],
  "receipts": [
    {
      "status": "0x1",
      "cumulativeGasUsed": "0xb8a856",
      "logs": [
        {
          "address": "0xbf4a322f1496e5c3d34a9bcdb4c60567b38c7de2",
          "topics": [
            "0xddf252ad1be2c89b69c2b068fc378daa952ba7f163c4a11628f55a4df523b3ef",
            "0x000000000000000000000000c77f7fed3b5cc8249adc428c5f44c9063b9734b4",
            "0x0000000000000000000000000000000000000000000000000000000000000000"
          ],
          "data": "0x0000000000000000000000000000000000000000000000359307e8d46f57a2c8",
          "blockHash": "0xdc9d992a529a1247cc1826af80863dc48e759709bb80b8c5907b3468e45b5fca",
          "blockNumber": "0x725960",
          "transactionHash": "0xf67b8ca66373b76c2d8c62f2492e6f32c2c637121927b56f52945f00e44b31c4",
          "transactionIndex": "0x71",
          "logIndex": "0xba",
          "removed": false
        },
        {
          "address": "0xbf4a322f1496e5c3d34a9bcdb4c60567b38c7de2",
          "topics": [
            "0x4afcb4a87cdbd9974efdb92ee48bc8d7cd0ae4bf217004db3d080cbaee652ca7"
          ],
          "data": "0x00000000000000000000000000000000000000000000000000000000678722ac000000000000000000000000000000000000000000000000000391dfac0f24b30000000000000000000000000000000000000000000000000dc7e3f54c8ed22d",
          "blockHash": "0xdc9d992a529a1247cc1826af80863dc48e759709bb80b8c5907b3468e45b5fca",
          "blockNumber": "0x725960",
          "transactionHash": "0xf67b8ca66373b76c2d8c62f2492e6f32c2c637121927b56f52945f00e44b31c4",
          "transactionIndex": "0x71",
          "logIndex": "0xbb",
          "removed": false
        }
      ],
      "logsBloom": "0x00000000000000000000000000000000000000000000000000000000000000000000000000000000000000000000000000000000000000004000000000000000000000000000000000000008000000000000001000000000000000000000000000000000020000000000000000000800020000000000000000000010000000000000000000000000000000000000000000000000000008000000010000000000000000000000000000000000000000004000000000000000000000000000000000000002000000800000000000001000000000000000080000000000000020000000000000000000000000000000000000000000000000000000000000000000",
      "type": "0x2",
      "transactionHash": "0xf67b8ca66373b76c2d8c62f2492e6f32c2c637121927b56f52945f00e44b31c4",
      "transactionIndex": "0x71",
      "blockHash": "0xdc9d992a529a1247cc1826af80863dc48e759709bb80b8c5907b3468e45b5fca",
      "blockNumber": "0x725960",
      "gasUsed": "0xfb91",
      "effectiveGasPrice": "0x29e7bcecd",
      "from": "0xc77f7fed3b5cc8249adc428c5f44c9063b9734b4",
      "to": "0xbf4a322f1496e5c3d34a9bcdb4c60567b38c7de2",
      "contractAddress": null
    }
  ],
  "libraries": [],
  "pending": [],
  "returns": {},
  "timestamp": 1736909485,
  "chain": 11155111,
  "commit": "51a374b"
}