{
  "transactions": [
    {
      "hash": "0x21478f6d4f7eb4f5b1e35c8ac5dc39c2158ce2cc827d28e33530162a838a920d",
      "transactionType": "CALL",
      "contractName": null,
      "contractAddress": "0x119ec476098f75af83d6621c2a96e91c0c3574d2",
      "function": "borrow(uint256,uint256)",
      "arguments": [
        "865170183409517",
        "0"
      ],
      "transaction": {
        "from": "0xc77f7fed3b5cc8249adc428c5f44c9063b9734b4",
        "to": "0x119ec476098f75af83d6621c2a96e91c0c3574d2",
        "gas": "0x24348",
        "value": "0x0",
        "input": "0x0ecbcdab000000000000000000000000000000000000000000000000000312de2173cf6d0000000000000000000000000000000000000000000000000000000000000000",
        "nonce": "0x18c8",
        "chainId": "0xaa36a7"
      },
      "additionalContracts": [],
      "isFixedGasLimit": false
    }
  ],
  "receipts": [
    {
      "status": "0x1",
      "cumulativeGasUsed": "0xbdcec2",
      "logs": [
        {
          "address": "0x119ec476098f75af83d6621c2a96e91c0c3574d2",
          "topics": [
            "0xddf252ad1be2c89b69c2b068fc378daa952ba7f163c4a11628f55a4df523b3ef",
            "0x000000000000000000000000c77f7fed3b5cc8249adc428c5f44c9063b9734b4",
            "0x000000000000000000000000119ec476098f75af83d6621c2a96e91c0c3574d2"
          ],
          "data": "0x00000000000000000000000000000000000000000000000000237dda214e5fe9",
          "blockHash": "0x47429fcbf90529f1b66314a334129beca0ea72290676c101e6976f41b32a9641",
          "blockNumber": "0x73842f",
          "transactionHash": "0x21478f6d4f7eb4f5b1e35c8ac5dc39c2158ce2cc827d28e33530162a838a920d",
          "transactionIndex": "0x59",
          "logIndex": "0xa1",
          "removed": false
        },
        {
          "address": "0x119ec476098f75af83d6621c2a96e91c0c3574d2",
          "topics": [
            "0xddf252ad1be2c89b69c2b068fc378daa952ba7f163c4a11628f55a4df523b3ef",
            "0x000000000000000000000000119ec476098f75af83d6621c2a96e91c0c3574d2",
            "0x000000000000000000000000c77f7fed3b5cc8249adc428c5f44c9063b9734b4"
          ],
          "data": "0x000000000000000000000000000000000000000000000000000aa5c170644ffc",
          "blockHash": "0x47429fcbf90529f1b66314a334129beca0ea72290676c101e6976f41b32a9641",
          "blockNumber": "0x73842f",
          "transactionHash": "0x21478f6d4f7eb4f5b1e35c8ac5dc39c2158ce2cc827d28e33530162a838a920d",
          "transactionIndex": "0x59",
          "logIndex": "0xa2",
          "removed": false
        },
        {
          "address": "0x119ec476098f75af83d6621c2a96e91c0c3574d2",
          "topics": [
            "0xddf252ad1be2c89b69c2b068fc378daa952ba7f163c4a11628f55a4df523b3ef",
            "0x000000000000000000000000119ec476098f75af83d6621c2a96e91c0c3574d2",
            "0x0000000000000000000000000000000000000000000000000000000000000000"
          ],
          "data": "0x0000000000000000000000000000000000000000000000000018d818b0ea0ff7",
          "blockHash": "0x47429fcbf90529f1b66314a334129beca0ea72290676c101e6976f41b32a9641",
          "blockNumber": "0x73842f",
          "transactionHash": "0x21478f6d4f7eb4f5b1e35c8ac5dc39c2158ce2cc827d28e33530162a838a920d",
          "transactionIndex": "0x59",
          "logIndex": "0xa3",
          "removed": false
        },
        {
          "address": "0x119ec476098f75af83d6621c2a96e91c0c3574d2",
          "topics": [
            "0x03bbe564cb1b78e43195eeadbde99e5b89b19345862807fcfb59f884e4165e25"
          ],
          "data": "0x000000000000000000000000c77f7fed3b5cc8249adc428c5f44c9063b9734b40000000000000000000000000000000000000000000000000002bc0ea3a632aa",
          "blockHash": "0x47429fcbf90529f1b66314a334129beca0ea72290676c101e6976f41b32a9641",
          "blockNumber": "0x73842f",
          "transactionHash": "0x21478f6d4f7eb4f5b1e35c8ac5dc39c2158ce2cc827d28e33530162a838a920d",
          "transactionIndex": "0x59",
          "logIndex": "0xa4",
          "removed": false
        },
        {
          "address": "0x119ec476098f75af83d6621c2a96e91c0c3574d2",
          "topics": [
            "0xaec00f5213a37254bc68a26b0685d1a5b2bf513e1e587c94c7df7f4a62b56c9c"
          ],
          "data": "0x0000000000000000000000000000000000000000000000000000000000000000000000000000000000000000000000000000000000000000000000000000000000000000000000000000000000000000000000000000000087dd752cbdffe00000000000000000000000000000000000000000000000003d158eaa770cf633fd",
          "blockHash": "0x47429fcbf90529f1b66314a334129beca0ea72290676c101e6976f41b32a9641",
          "blockNumber": "0x73842f",
          "transactionHash": "0x21478f6d4f7eb4f5b1e35c8ac5dc39c2158ce2cc827d28e33530162a838a920d",
          "transactionIndex": "0x59",
          "logIndex": "0xa5",
          "removed": false
        },
        {
          "address": "0x119ec476098f75af83d6621c2a96e91c0c3574d2",
          "topics": [
            "0xaec00f5213a37254bc68a26b0685d1a5b2bf513e1e587c94c7df7f4a62b56c9c"
          ],
          "data": "0x0000000000000000000000000000000000000000000000008aa39c121a2703b90000000000000000000000000000000000000000000000000137246b0bbdddd700000000000000000000000000000000000000000000000089149997c9bdbdd700000000000000000000000000000000000000000000003da0324689271d37b6",
          "blockHash": "0x47429fcbf90529f1b66314a334129beca0ea72290676c101e6976f41b32a9641",
          "blockNumber": "0x73842f",
          "transactionHash": "0x21478f6d4f7eb4f5b1e35c8ac5dc39c2158ce2cc827d28e33530162a838a920d",
          "transactionIndex": "0x59",
          "logIndex": "0xa6",
          "removed": false
        },
        {
          "address": "0x119ec476098f75af83d6621c2a96e91c0c3574d2",
          "topics": [
            "0x4afcb4a87cdbd9974efdb92ee48bc8d7cd0ae4bf217004db3d080cbaee652ca7"
          ],
          "data": "0x0000000000000000000000000000000000000000000000000000000067955b50000000000000000000000000000000000000000000000000001f2df42641ec4400000000000000000000000000000000000000000000000000004fbd3e16ec69",
          "blockHash": "0x47429fcbf90529f1b66314a334129beca0ea72290676c101e6976f41b32a9641",
          "blockNumber": "0x73842f",
          "transactionHash": "0x21478f6d4f7eb4f5b1e35c8ac5dc39c2158ce2cc827d28e33530162a838a920d",
          "transactionIndex": "0x59",
          "logIndex": "0xa7",
          "removed": false
        }
      ],
      "logsBloom": "0x04000000000000000000000000000100400000000000000000000000000000000008000000000000100000000000000000002000000000004000000000000000000000000000000000000008000000000000000000000000000000000000000000000000020000000000000000000800020000000000000000000010000000000000000000000000000000000000000000000000000000000000010000000000000000000000000000000400000000004000000000000000000000001000000200000002000000840000000000000000000000000000080000000000000020000000000000000000000000400000000000000000000000000000000000000000",
      "type": "0x2",
      "transactionHash": "0x21478f6d4f7eb4f5b1e35c8ac5dc39c2158ce2cc827d28e33530162a838a920d",
      "transactionIndex": "0x59",
      "blockHash": "0x47429fcbf90529f1b66314a334129beca0ea72290676c101e6976f41b32a9641",
      "blockNumber": "0x73842f",
      "gasUsed": "0x1a364",
      "effectiveGasPrice": "0x3df7ba11",
      "from": "0xc77f7fed3b5cc8249adc428c5f44c9063b9734b4",
      "to": "0x119ec476098f75af83d6621c2a96e91c0c3574d2",
      "contractAddress": null
    }
  ],
  "libraries": [],
  "pending": [],
  "returns": {},
  "timestamp": 1737841489,
  "chain": 11155111,
  "commit": "f5162e9"
}