{
  "transactions": [
    {
      "hash": "0x965296207fa444c4685c87760ffac5e10ae4d85f4a797d94cab9a03b9851fa2c",
      "transactionType": "CALL",
      "contractName": null,
      "contractAddress": "0x270e88f8683660553e8ba4eb2ad7c91a1710d769",
      "function": "sell(uint256)",
      "arguments": [
        "725820134995162532544"
      ],
      "transaction": {
        "from": "0xc77f7fed3b5cc8249adc428c5f44c9063b9734b4",
        "to": "0x270e88f8683660553e8ba4eb2ad7c91a1710d769",
        "gas": "0x16fec",
        "value": "0x0",
        "input": "0xe4849b3200000000000000000000000000000000000000000000002758c71f37dcbb8ac0",
        "nonce": "0x7de",
        "chainId": "0xaa36a7"
      },
      "additionalContracts": [],
      "isFixedGasLimit": false
    }
  ],
  "receipts": [
    {
      "status": "0x1",
      "cumulativeGasUsed": "0xe6d8a5",
      "logs": [
        {
          "address": "0x270e88f8683660553e8ba4eb2ad7c91a1710d769",
          "topics": [
            "0xddf252ad1be2c89b69c2b068fc378daa952ba7f163c4a11628f55a4df523b3ef",
            "0x000000000000000000000000c77f7fed3b5cc8249adc428c5f44c9063b9734b4",
            "0x0000000000000000000000000000000000000000000000000000000000000000"
          ],
          "data": "0x00000000000000000000000000000000000000000000002758c71f37dcbb8ac0",
          "blockHash": "0x27693b4c4c6e8a50ded1912ac2105714e08df7a72c183ced31c5da54bdca7d51",
          "blockNumber": "0x725517",
          "transactionHash": "0x965296207fa444c4685c87760ffac5e10ae4d85f4a797d94cab9a03b9851fa2c",
          "transactionIndex": "0x41",
          "logIndex": "0x7a",
          "removed": false
        },
        {
          "address": "0x270e88f8683660553e8ba4eb2ad7c91a1710d769",
          "topics": [
            "0x4afcb4a87cdbd9974efdb92ee48bc8d7cd0ae4bf217004db3d080cbaee652ca7"
          ],
          "data": "0x000000000000000000000000000000000000000000000000000000006786ef1c0000000000000000000000000000000000000000000000000004dc955231c9f40000000000000000000000000000000000000000000000000dc82708332c92a4",
          "blockHash": "0x27693b4c4c6e8a50ded1912ac2105714e08df7a72c183ced31c5da54bdca7d51",
          "blockNumber": "0x725517",
          "transactionHash": "0x965296207fa444c4685c87760ffac5e10ae4d85f4a797d94cab9a03b9851fa2c",
          "transactionIndex": "0x41",
          "logIndex": "0x7b",
          "removed": false
        }
      ],
      "logsBloom": "0x00000000000000000000000000000000000000000000000000000000000000000000000000000000000000000000000020000000000000004000000000000000000000000000000000000008000000000000000000000000000000000000000000000000020000000000000000000800020000000000000000000010000000000000000000010000000000000000000000000000000000000000010000000000000000000000000000000000000000004000000000000000000000000000000000000002000000800000000000000000000000000000080000008000000020000000000000000000000000000000000000000000000000000000000000000000",
      "type": "0x2",
      "transactionHash": "0x965296207fa444c4685c87760ffac5e10ae4d85f4a797d94cab9a03b9851fa2c",
      "transactionIndex": "0x41",
      "blockHash": "0x27693b4c4c6e8a50ded1912ac2105714e08df7a72c183ced31c5da54bdca7d51",
      "blockNumber": "0x725517",
      "gasUsed": "0xfb93",
      "effectiveGasPrice": "0xb30d803e",
      "from": "0xc77f7fed3b5cc8249adc428c5f44c9063b9734b4",
      "to": "0x270e88f8683660553e8ba4eb2ad7c91a1710d769",
      "contractAddress": null
    }
  ],
  "libraries": [],
  "pending": [],
  "returns": {},
  "timestamp": 1736896285,
  "chain": 11155111,
  "commit": "51a374b"
}