{
  "transactions": [
    {
      "hash": "0xd8fd80ed8af145d4045ad2c1e3d6e5529b9b8586a1bbd62d0050c96c94edef6c",
      "transactionType": "CALL",
      "contractName": null,
      "contractAddress": "0xd7bc75898e513accccf720a874d44dab5a4b6223",
      "function": "sell(uint256)",
      "arguments": [
        "9929992710565756144"
      ],
      "transaction": {
        "from": "0xc77f7fed3b5cc8249adc428c5f44c9063b9734b4",
        "to": "0xd7bc75898e513accccf720a874d44dab5a4b6223",
        "gas": "0x15b6b",
        "value": "0x0",
        "input": "0xe4849b3200000000000000000000000000000000000000000000000089ce6bc2477d7cf0",
        "nonce": "0xab",
        "chainId": "0xaa36a7"
      },
      "additionalContracts": [],
      "isFixedGasLimit": false
    }
  ],
  "receipts": [
    {
      "status": "0x1",
      "cumulativeGasUsed": "0x79159a",
      "logs": [
        {
          "address": "0xd7bc75898e513accccf720a874d44dab5a4b6223",
          "topics": [
            "0xddf252ad1be2c89b69c2b068fc378daa952ba7f163c4a11628f55a4df523b3ef",
            "0x000000000000000000000000c77f7fed3b5cc8249adc428c5f44c9063b9734b4",
            "0x0000000000000000000000000000000000000000000000000000000000000000"
          ],
          "data": "0x00000000000000000000000000000000000000000000000089ce6bc2477d7cf0",
          "blockHash": "0x32d607ce4ee514cea1d3706b998422df12b7d4f5ca523378a010a875a521ab81",
          "blockNumber": "0x72391f",
          "transactionHash": "0xd8fd80ed8af145d4045ad2c1e3d6e5529b9b8586a1bbd62d0050c96c94edef6c",
          "transactionIndex": "0x36",
          "logIndex": "0x4b",
          "removed": false
        },
        {
          "address": "0xd7bc75898e513accccf720a874d44dab5a4b6223",
          "topics": [
            "0x4afcb4a87cdbd9974efdb92ee48bc8d7cd0ae4bf217004db3d080cbaee652ca7"
          ],
          "data": "0x0000000000000000000000000000000000000000000000000000000067859ebc00000000000000000000000000000000000000000000000000038d7f84fa4b500000000000000000000000000000000000000000000000000023474f493d2799",
          "blockHash": "0x32d607ce4ee514cea1d3706b998422df12b7d4f5ca523378a010a875a521ab81",
          "blockNumber": "0x72391f",
          "transactionHash": "0xd8fd80ed8af145d4045ad2c1e3d6e5529b9b8586a1bbd62d0050c96c94edef6c",
          "transactionIndex": "0x36",
          "logIndex": "0x4c",
          "removed": false
        }
      ],
      "logsBloom": "0x00000000000000000000000000000000000000000000000000000000000000000000000000000000000000000000000000000000000000004000000000000000000000000000000000000008000000000000000000000000000000000000000000000000020000000000000000000800020000000000000000000010000000000000000000000000000000000000000000000000000000000000010000000000000000000000000000000000000000004000001000000000000000000000000000000002000000800000000000004000000000000000080000000000000020000000000000000000000000000000000000000000080000000000000000000000",
      "type": "0x2",
      "transactionHash": "0xd8fd80ed8af145d4045ad2c1e3d6e5529b9b8586a1bbd62d0050c96c94edef6c",
      "transactionIndex": "0x36",
      "blockHash": "0x32d607ce4ee514cea1d3706b998422df12b7d4f5ca523378a010a875a521ab81",
      "blockNumber": "0x72391f",
      "gasUsed": "0xfb87",
      "effectiveGasPrice": "0x3ca05d83",
      "from": "0xc77f7fed3b5cc8249adc428c5f44c9063b9734b4",
      "to": "0xd7bc75898e513accccf720a874d44dab5a4b6223",
      "contractAddress": null
    }
  ],
  "libraries": [],
  "pending": [],
  "returns": {},
  "timestamp": 1736810173,
  "chain": 11155111,
  "commit": "51a374b"
}