{
  "transactions": [
    {
      "hash": "0x66e060a8cc4d9b2aa4b9aeac55f005678aad4d520d393f81a44e4a1e2fa8a8f9",
      "transactionType": "CALL",
      "contractName": null,
      "contractAddress": "0x270e88f8683660553e8ba4eb2ad7c91a1710d769",
      "function": "sell(uint256)",
      "arguments": [
        "824746191422368855904"
      ],
      "transaction": {
        "from": "0xc77f7fed3b5cc8249adc428c5f44c9063b9734b4",
        "to": "0x270e88f8683660553e8ba4eb2ad7c91a1710d769",
        "gas": "0x16fec",
        "value": "0x0",
        "input": "0xe4849b3200000000000000000000000000000000000000000000002cb5a71367f29d3760",
        "nonce": "0x64d",
        "chainId": "0xaa36a7"
      },
      "additionalContracts": [],
      "isFixedGasLimit": false
    }
  ],
  "receipts": [
    {
      "status": "0x1",
      "cumulativeGasUsed": "0x8b21fc",
      "logs": [
        {
          "address": "0x270e88f8683660553e8ba4eb2ad7c91a1710d769",
          "topics": [
            "0xddf252ad1be2c89b69c2b068fc378daa952ba7f163c4a11628f55a4df523b3ef",
            "0x000000000000000000000000c77f7fed3b5cc8249adc428c5f44c9063b9734b4",
            "0x0000000000000000000000000000000000000000000000000000000000000000"
          ],
          "data": "0x00000000000000000000000000000000000000000000002cb5a71367f29d3760",
          "blockHash": "0x54185076c4e23359844ece2b53a3163ff2f9c250464e4a3993a63e7a4cc2bdb4",
          "blockNumber": "0x725338",
          "transactionHash": "0x66e060a8cc4d9b2aa4b9aeac55f005678aad4d520d393f81a44e4a1e2fa8a8f9",
          "transactionIndex": "0x4d",
          "logIndex": "0xa5",
          "removed": false
        },
        {
          "address": "0x270e88f8683660553e8ba4eb2ad7c91a1710d769",
          "topics": [
            "0x4afcb4a87cdbd9974efdb92ee48bc8d7cd0ae4bf217004db3d080cbaee652ca7"
          ],
          "data": "0x000000000000000000000000000000000000000000000000000000006786d8a80000000000000000000000000000000000000000000000000004470fb154f4f50000000000000000000000000000000000000000000000000dc7e0f975cfda41",
          "blockHash": "0x54185076c4e23359844ece2b53a3163ff2f9c250464e4a3993a63e7a4cc2bdb4",
          "blockNumber": "0x725338",
          "transactionHash": "0x66e060a8cc4d9b2aa4b9aeac55f005678aad4d520d393f81a44e4a1e2fa8a8f9",
          "transactionIndex": "0x4d",
          "logIndex": "0xa6",
          "removed": false
        }
      ],
      "logsBloom": "0x00000000000000000000000000000000000000000000000000000000000000000000000000000000000000000000000020000000000000004000000000000000000000000000000000000008000000000000000000000000000000000000000000000000020000000000000000000800020000000000000000000010000000000000000000010000000000000000000000000000000000000000010000000000000000000000000000000000000000004000000000000000000000000000000000000002000000800000000000000000000000000000080000008000000020000000000000000000000000000000000000000000000000000000000000000000",
      "type": "0x2",
      "transactionHash": "0x66e060a8cc4d9b2aa4b9aeac55f005678aad4d520d393f81a44e4a1e2fa8a8f9",
      "transactionIndex": "0x4d",
      "blockHash": "0x54185076c4e23359844ece2b53a3163ff2f9c250464e4a3993a63e7a4cc2bdb4",
      "blockNumber": "0x725338",
      "gasUsed": "0xfb93",
      "effectiveGasPrice": "0x1b9ce2c99",
      "from": "0xc77f7fed3b5cc8249adc428c5f44c9063b9734b4",
      "to": "0x270e88f8683660553e8ba4eb2ad7c91a1710d769",
      "contractAddress": null
    }
  ],
  "libraries": [],
  "pending": [],
  "returns": {},
  "timestamp": 1736890537,
  "chain": 11155111,
  "commit": "51a374b"
}