{
  "transactions": [
    {
      "hash": "0x3ec29ac5369505c87cc4feaec11e0ae99b7f89afeb3c6ec442d19081452da0e6",
      "transactionType": "CALL",
      "contractName": null,
      "contractAddress": "0x8aafd3ede9adb0ff97c7aebce82a919afb1c8764",
      "function": "sell(uint256)",
      "arguments": [
        "11519069375180788"
      ],
      "transaction": {
        "from": "0xc77f7fed3b5cc8249adc428c5f44c9063b9734b4",
        "to": "0x8aafd3ede9adb0ff97c7aebce82a919afb1c8764",
        "gas": "0x1724d",
        "value": "0x0",
        "input": "0xe4849b320000000000000000000000000000000000000000000000000028ec8856402ff4",
        "nonce": "0x15e2",
        "chainId": "0xaa36a7"
      },
      "additionalContracts": [],
      "isFixedGasLimit": false
    }
  ],
  "receipts": [
    {
      "status": "0x1",
      "cumulativeGasUsed": "0x9ee8dd",
      "logs": [
        {
          "address": "0x8aafd3ede9adb0ff97c7aebce82a919afb1c8764",
          "topics": [
            "0xddf252ad1be2c89b69c2b068fc378daa952ba7f163c4a11628f55a4df523b3ef",
            "0x000000000000000000000000c77f7fed3b5cc8249adc428c5f44c9063b9734b4",
            "0x0000000000000000000000000000000000000000000000000000000000000000"
          ],
          "data": "0x000000000000000000000000000000000000000000000000002898b865f1d98e",
          "blockHash": "0x9d08da2482d8db5cce5d513f4a1e922a4bd1492930a81175fe31e55a36f2f4eb",
          "blockNumber": "0x731d64",
          "transactionHash": "0x3ec29ac5369505c87cc4feaec11e0ae99b7f89afeb3c6ec442d19081452da0e6",
          "transactionIndex": "0x6f",
          "logIndex": "0xaa",
          "removed": false
        },
        {
          "address": "0x8aafd3ede9adb0ff97c7aebce82a919afb1c8764",
          "topics": [
            "0xddf252ad1be2c89b69c2b068fc378daa952ba7f163c4a11628f55a4df523b3ef",
            "0x000000000000000000000000c77f7fed3b5cc8249adc428c5f44c9063b9734b4",
            "0x000000000000000000000000c77f7fed3b5cc8249adc428c5f44c9063b9734b4"
          ],
          "data": "0x000000000000000000000000000000000000000000000000000053cff04e5666",
          "blockHash": "0x9d08da2482d8db5cce5d513f4a1e922a4bd1492930a81175fe31e55a36f2f4eb",
          "blockNumber": "0x731d64",
          "transactionHash": "0x3ec29ac5369505c87cc4feaec11e0ae99b7f89afeb3c6ec442d19081452da0e6",
          "transactionIndex": "0x6f",
          "logIndex": "0xab",
          "removed": false
        },
        {
          "address": "0x8aafd3ede9adb0ff97c7aebce82a919afb1c8764",
          "topics": [
            "0x4afcb4a87cdbd9974efdb92ee48bc8d7cd0ae4bf217004db3d080cbaee652ca7"
          ],
          "data": "0x0000000000000000000000000000000000000000000000000000000067905d980000000000000000000000000000000000000000000000000013b489550eba9c00000000000000000000000000000000000000000000000000003a1bbcddf92f",
          "blockHash": "0x9d08da2482d8db5cce5d513f4a1e922a4bd1492930a81175fe31e55a36f2f4eb",
          "blockNumber": "0x731d64",
          "transactionHash": "0x3ec29ac5369505c87cc4feaec11e0ae99b7f89afeb3c6ec442d19081452da0e6",
          "transactionIndex": "0x6f",
          "logIndex": "0xac",
          "removed": false
        }
      ],
      "logsBloom": "0x00000000000000000000000000000000000000000600000000000000000000000000000000000000000000000000000000000000000000004000000000000000000000000000004000000008000000000000000000000000000000000000000000000000020000000000000000000800020000000000000000000010000000000000000000000000000000000000000000000000000000000000010000000000000000000000000000000000000000004000000000000000000000000000000000000002000000800000000000000000000000000000080000000000000020000000000000000000000000000000000000000000000000000000000000000000",
      "type": "0x2",
      "transactionHash": "0x3ec29ac5369505c87cc4feaec11e0ae99b7f89afeb3c6ec442d19081452da0e6",
      "transactionIndex": "0x6f",
      "blockHash": "0x9d08da2482d8db5cce5d513f4a1e922a4bd1492930a81175fe31e55a36f2f4eb",
      "blockNumber": "0x731d64",
      "gasUsed": "0xfd33",
      "effectiveGasPrice": "0x665847a6",
      "from": "0xc77f7fed3b5cc8249adc428c5f44c9063b9734b4",
      "to": "0x8aafd3ede9adb0ff97c7aebce82a919afb1c8764",
      "contractAddress": null
    }
  ],
  "libraries": [],
  "pending": [],
  "returns": {},
  "timestamp": 1737514393,
  "chain": 11155111,
  "commit": "1d2fb70"
}