{
  "transactions": [
    {
      "hash": "0xc3615f04359d52ca4a0db249f8996982bd9c91496dd78c311c0128302d262c73",
      "transactionType": "CALL",
      "contractName": null,
      "contractAddress": "0x8aafd3ede9adb0ff97c7aebce82a919afb1c8764",
      "function": "sell(uint256)",
      "arguments": [
        "1229484212715396831"
      ],
      "transaction": {
        "from": "0xc77f7fed3b5cc8249adc428c5f44c9063b9734b4",
        "to": "0x8aafd3ede9adb0ff97c7aebce82a919afb1c8764",
        "gas": "0x15dca",
        "value": "0x0",
        "input": "0xe4849b32000000000000000000000000000000000000000000000000111001609bda1edf",
        "nonce": "0x1701",
        "chainId": "0xaa36a7"
      },
      "additionalContracts": [],
      "isFixedGasLimit": false
    }
  ],
  "receipts": [
    {
      "status": "0x1",
      "cumulativeGasUsed": "0xa296d7",
      "logs": [
        {
          "address": "0x8aafd3ede9adb0ff97c7aebce82a919afb1c8764",
          "topics": [
            "0xddf252ad1be2c89b69c2b068fc378daa952ba7f163c4a11628f55a4df523b3ef",
            "0x000000000000000000000000c77f7fed3b5cc8249adc428c5f44c9063b9734b4",
            "0x0000000000000000000000000000000000000000000000000000000000000000"
          ],
          "data": "0x00000000000000000000000000000000000000000000000010ed0fb3cdce22b9",
          "blockHash": "0xcf48e81f9bdd5bd993bfc06fbf12e017597825ce9ba0267d1bcebe2ca9c68650",
          "blockNumber": "0x731ec5",
          "transactionHash": "0xc3615f04359d52ca4a0db249f8996982bd9c91496dd78c311c0128302d262c73",
          "transactionIndex": "0x5b",
          "logIndex": "0xb2",
          "removed": false
        },
        {
          "address": "0x8aafd3ede9adb0ff97c7aebce82a919afb1c8764",
          "topics": [
            "0xddf252ad1be2c89b69c2b068fc378daa952ba7f163c4a11628f55a4df523b3ef",
            "0x000000000000000000000000c77f7fed3b5cc8249adc428c5f44c9063b9734b4",
            "0x000000000000000000000000c77f7fed3b5cc8249adc428c5f44c9063b9734b4"
          ],
          "data": "0x0000000000000000000000000000000000000000000000000022f1acce0bfc26",
          "blockHash": "0xcf48e81f9bdd5bd993bfc06fbf12e017597825ce9ba0267d1bcebe2ca9c68650",
          "blockNumber": "0x731ec5",
          "transactionHash": "0xc3615f04359d52ca4a0db249f8996982bd9c91496dd78c311c0128302d262c73",
          "transactionIndex": "0x5b",
          "logIndex": "0xb3",
          "removed": false
        },
        {
          "address": "0x8aafd3ede9adb0ff97c7aebce82a919afb1c8764",
          "topics": [
            "0x4afcb4a87cdbd9974efdb92ee48bc8d7cd0ae4bf217004db3d080cbaee652ca7"
          ],
          "data": "0x0000000000000000000000000000000000000000000000000000000067906e2400000000000000000000000000000000000000000000000000170f6a1d9362dc000000000000000000000000000000000000000000000000001c59f555a5fd9d",
          "blockHash": "0xcf48e81f9bdd5bd993bfc06fbf12e017597825ce9ba0267d1bcebe2ca9c68650",
          "blockNumber": "0x731ec5",
          "transactionHash": "0xc3615f04359d52ca4a0db249f8996982bd9c91496dd78c311c0128302d262c73",
          "transactionIndex": "0x5b",
          "logIndex": "0xb4",
          "removed": false
        }
      ],
      "logsBloom": "0x00000000000000000000000000000000000000000600000000000000000000000000000000000000000000000000000000000000000000004000000000000000000000000000004000000008000000000000000000000000000000000000000000000000020000000000000000000800020000000000000000000010000000000000000000000000000000000000000000000000000000000000010000000000000000000000000000000000000000004000000000000000000000000000000000000002000000800000000000000000000000000000080000000000000020000000000000000000000000000000000000000000000000000000000000000000",
      "type": "0x2",
      "transactionHash": "0xc3615f04359d52ca4a0db249f8996982bd9c91496dd78c311c0128302d262c73",
      "transactionIndex": "0x5b",
      "blockHash": "0xcf48e81f9bdd5bd993bfc06fbf12e017597825ce9ba0267d1bcebe2ca9c68650",
      "blockNumber": "0x731ec5",
      "gasUsed": "0xfd3f",
      "effectiveGasPrice": "0x78cafc5f",
      "from": "0xc77f7fed3b5cc8249adc428c5f44c9063b9734b4",
      "to": "0x8aafd3ede9adb0ff97c7aebce82a919afb1c8764",
      "contractAddress": null
    }
  ],
  "libraries": [],
  "pending": [],
  "returns": {},
  "timestamp": 1737518630,
  "chain": 11155111,
  "commit": "1d2fb70"
}