{
  "transactions": [
    {
      "hash": "0x5681a2ab0bf521e180bf9fac07a3e8506e4bad56d696d04a114c3dfa91e94449",
      "transactionType": "CALL",
      "contractName": null,
      "contractAddress": "0x270e88f8683660553e8ba4eb2ad7c91a1710d769",
      "function": "sell(uint256)",
      "arguments": [
        "740819832993218762845"
      ],
      "transaction": {
        "from": "0xc77f7fed3b5cc8249adc428c5f44c9063b9734b4",
        "to": "0x270e88f8683660553e8ba4eb2ad7c91a1710d769",
        "gas": "0x16fec",
        "value": "0x0",
        "input": "0xe4849b3200000000000000000000000000000000000000000000002828f0c1135d03185d",
        "nonce": "0x732",
        "chainId": "0xaa36a7"
      },
      "additionalContracts": [],
      "isFixedGasLimit": false
    }
  ],
  "receipts": [
    {
      "status": "0x1",
      "cumulativeGasUsed": "0xff1726",
      "logs": [
        {
          "address": "0x270e88f8683660553e8ba4eb2ad7c91a1710d769",
          "topics": [
            "0xddf252ad1be2c89b69c2b068fc378daa952ba7f163c4a11628f55a4df523b3ef",
            "0x000000000000000000000000c77f7fed3b5cc8249adc428c5f44c9063b9734b4",
            "0x0000000000000000000000000000000000000000000000000000000000000000"
          ],
          "data": "0x00000000000000000000000000000000000000000000002828f0c1135d03185d",
          "blockHash": "0xfd1d4907da9452799a6b1b9ec965dd3c581a12a479528ead27bd573962f6e839",
          "blockNumber": "0x725453",
          "transactionHash": "0x5681a2ab0bf521e180bf9fac07a3e8506e4bad56d696d04a114c3dfa91e94449",
          "transactionIndex": "0x47",
          "logIndex": "0x5f",
          "removed": false
        },
        {
          "address": "0x270e88f8683660553e8ba4eb2ad7c91a1710d769",
          "topics": [
            "0x4afcb4a87cdbd9974efdb92ee48bc8d7cd0ae4bf217004db3d080cbaee652ca7"
          ],
          "data": "0x000000000000000000000000000000000000000000000000000000006786e5ec0000000000000000000000000000000000000000000000000004c363bb6573b30000000000000000000000000000000000000000000000000dc82895b1dde53a",
          "blockHash": "0xfd1d4907da9452799a6b1b9ec965dd3c581a12a479528ead27bd573962f6e839",
          "blockNumber": "0x725453",
          "transactionHash": "0x5681a2ab0bf521e180bf9fac07a3e8506e4bad56d696d04a114c3dfa91e94449",
          "transactionIndex": "0x47",
          "logIndex": "0x60",
          "removed": false
        }
      ],
      "logsBloom": "0x00000000000000000000000000000000000000000000000000000000000000000000000000000000000000000000000020000000000000004000000000000000000000000000000000000008000000000000000000000000000000000000000000000000020000000000000000000800020000000000000000000010000000000000000000010000000000000000000000000000000000000000010000000000000000000000000000000000000000004000000000000000000000000000000000000002000000800000000000000000000000000000080000008000000020000000000000000000000000000000000000000000000000000000000000000000",
      "type": "0x2",
      "transactionHash": "0x5681a2ab0bf521e180bf9fac07a3e8506e4bad56d696d04a114c3dfa91e94449",
      "transactionIndex": "0x47",
      "blockHash": "0xfd1d4907da9452799a6b1b9ec965dd3c581a12a479528ead27bd573962f6e839",
      "blockNumber": "0x725453",
      "gasUsed": "0xfb93",
      "effectiveGasPrice": "0x13ab39822",
      "from": "0xc77f7fed3b5cc8249adc428c5f44c9063b9734b4",
      "to": "0x270e88f8683660553e8ba4eb2ad7c91a1710d769",
      "contractAddress": null
    }
  ],
  "libraries": [],
  "pending": [],
  "returns": {},
  "timestamp": 1736893932,
  "chain": 11155111,
  "commit": "51a374b"
}