{
  "transactions": [
    {
      "hash": "0xf3d4974c4d72e32f8c6ef8a20e776da482e4bbff7ed109b58febe0e2d04e0829",
      "transactionType": "CALL",
      "contractName": null,
      "contractAddress": "0x270e88f8683660553e8ba4eb2ad7c91a1710d769",
      "function": "buy(address)",
      "arguments": [
        "0xC77f7fed3b5Cc8249aDc428c5F44C9063B9734b4"
      ],
      "transaction": {
        "from": "0xc77f7fed3b5cc8249adc428c5f44c9063b9734b4",
        "to": "0x270e88f8683660553e8ba4eb2ad7c91a1710d769",
        "gas": "0x1b30c",
        "value": "0xde0b6b3a7640000",
        "input": "0xf088d547000000000000000000000000c77f7fed3b5cc8249adc428c5f44c9063b9734b4",
        "nonce": "0x57a",
        "chainId": "0xaa36a7"
      },
      "additionalContracts": [],
      "isFixedGasLimit": false
    }
  ],
  "receipts": [
    {
      "status": "0x1",
      "cumulativeGasUsed": "0x97c1eb",
      "logs": [
        {
          "address": "0x270e88f8683660553e8ba4eb2ad7c91a1710d769",
          "topics": [
            "0xddf252ad1be2c89b69c2b068fc378daa952ba7f163c4a11628f55a4df523b3ef",
            "0x0000000000000000000000000000000000000000000000000000000000000000",
            "0x000000000000000000000000c77f7fed3b5cc8249adc428c5f44c9063b9734b4"
          ],
          "data": "0x00000000000000000000000000000000000000000000003445bd75777892335b",
          "blockHash": "0x5ab2428c39ee15e333a83fd192bc35ae72d592bc36d82ca86482e82c6e396d1d",
          "blockNumber": "0x725225",
          "transactionHash": "0xf3d4974c4d72e32f8c6ef8a20e776da482e4bbff7ed109b58febe0e2d04e0829",
          "transactionIndex": "0x48",
          "logIndex": "0x76",
          "removed": false
        },
        {
          "address": "0x270e88f8683660553e8ba4eb2ad7c91a1710d769",
          "topics": [
            "0xddf252ad1be2c89b69c2b068fc378daa952ba7f163c4a11628f55a4df523b3ef",
            "0x0000000000000000000000000000000000000000000000000000000000000000",
            "0x000000000000000000000000c77f7fed3b5cc8249adc428c5f44c9063b9734b4"
          ],
          "data": "0x000000000000000000000000000000000000000000000000289760ab7abd5fcd",
          "blockHash": "0x5ab2428c39ee15e333a83fd192bc35ae72d592bc36d82ca86482e82c6e396d1d",
          "blockNumber": "0x725225",
          "transactionHash": "0xf3d4974c4d72e32f8c6ef8a20e776da482e4bbff7ed109b58febe0e2d04e0829",
          "transactionIndex": "0x48",
          "logIndex": "0x77",
          "removed": false
        },
        {
          "address": "0x270e88f8683660553e8ba4eb2ad7c91a1710d769",
          "topics": [
            "0x4afcb4a87cdbd9974efdb92ee48bc8d7cd0ae4bf217004db3d080cbaee652ca7"
          ],
          "data": "0x000000000000000000000000000000000000000000000000000000006786cbac0000000000000000000000000000000000000000000000000003a5e18cbb87c60000000000000000000000000000000000000000000000000de0b6b3a7640000",
          "blockHash": "0x5ab2428c39ee15e333a83fd192bc35ae72d592bc36d82ca86482e82c6e396d1d",
          "blockNumber": "0x725225",
          "transactionHash": "0xf3d4974c4d72e32f8c6ef8a20e776da482e4bbff7ed109b58febe0e2d04e0829",
          "transactionIndex": "0x48",
          "logIndex": "0x78",
          "removed": false
        }
      ],
      "logsBloom": "0x00000000000000000000000000000000000000000000000000000000000000000000000000000000000000000000000020000000000000004000000000000000000000000000000000000008000000000000000000000000000000000000000000000000020000000000000000000800020000000000000000000010000000000000000000010000000000000000000000000000000000000000010000000000000000000000000000000000000000004000000000000000000000000000000000000002000000800000000000000000000000000000080000008000000020000000000000000000000000000000000000000000000000000000000000000000",
      "type": "0x2",
      "transactionHash": "0xf3d4974c4d72e32f8c6ef8a20e776da482e4bbff7ed109b58febe0e2d04e0829",
      "transactionIndex": "0x48",
      "blockHash": "0x5ab2428c39ee15e333a83fd192bc35ae72d592bc36d82ca86482e82c6e396d1d",
      "blockNumber": "0x725225",
      "gasUsed": "0x13af8",
      "effectiveGasPrice": "0x448233d2e",
      "from": "0xc77f7fed3b5cc8249adc428c5f44c9063b9734b4",
      "to": "0x270e88f8683660553e8ba4eb2ad7c91a1710d769",
      "contractAddress": null
    }
  ],
  "libraries": [],
  "pending": [],
  "returns": {},
  "timestamp": 1736887213,
  "chain": 11155111,
  "commit": "51a374b"
}