{
  "transactions": [
    {
      "hash": "0x573c8d3c09e849d82a2823ee406effcfe13aaed741490c683df4d42fa593777b",
      "transactionType": "CALL",
      "contractName": null,
      "contractAddress": "0x270e88f8683660553e8ba4eb2ad7c91a1710d769",
      "function": "sell(uint256)",
      "arguments": [
        "730463649445403427364"
      ],
      "transaction": {
        "from": "0xc77f7fed3b5cc8249adc428c5f44c9063b9734b4",
        "to": "0x270e88f8683660553e8ba4eb2ad7c91a1710d769",
        "gas": "0x16fec",
        "value": "0x0",
        "input": "0xe4849b320000000000000000000000000000000000000000000000279938330220bc0224",
        "nonce": "0x7a8",
        "chainId": "0xaa36a7"
      },
      "additionalContracts": [],
      "isFixedGasLimit": false
    }
  ],
  "receipts": [
    {
      "status": "0x1",
      "cumulativeGasUsed": "0x497628",
      "logs": [
        {
          "address": "0x270e88f8683660553e8ba4eb2ad7c91a1710d769",
          "topics": [
            "0xddf252ad1be2c89b69c2b068fc378daa952ba7f163c4a11628f55a4df523b3ef",
            "0x000000000000000000000000c77f7fed3b5cc8249adc428c5f44c9063b9734b4",
            "0x0000000000000000000000000000000000000000000000000000000000000000"
          ],
          "data": "0x0000000000000000000000000000000000000000000000279938330220bc0224",
          "blockHash": "0x8e5a1c0dd6b0fedb6417e413dcc9d1a911747afc17a777e2cb61a8b83f386c71",
          "blockNumber": "0x7254dc",
          "transactionHash": "0x573c8d3c09e849d82a2823ee406effcfe13aaed741490c683df4d42fa593777b",
          "transactionIndex": "0x3e",
          "logIndex": "0x58",
          "removed": false
        },
        {
          "address": "0x270e88f8683660553e8ba4eb2ad7c91a1710d769",
          "topics": [
            "0x4afcb4a87cdbd9974efdb92ee48bc8d7cd0ae4bf217004db3d080cbaee652ca7"
          ],
          "data": "0x000000000000000000000000000000000000000000000000000000006786ec580000000000000000000000000000000000000000000000000004d4ac63c13fd20000000000000000000000000000000000000000000000000dc827834660a9a4",
          "blockHash": "0x8e5a1c0dd6b0fedb6417e413dcc9d1a911747afc17a777e2cb61a8b83f386c71",
          "blockNumber": "0x7254dc",
          "transactionHash": "0x573c8d3c09e849d82a2823ee406effcfe13aaed741490c683df4d42fa593777b",
          "transactionIndex": "0x3e",
          "logIndex": "0x59",
          "removed": false
        }
      ],
      "logsBloom": "0x00000000000000000000000000000000000000000000000000000000000000000000000000000000000000000000000020000000000000004000000000000000000000000000000000000008000000000000000000000000000000000000000000000000020000000000000000000800020000000000000000000010000000000000000000010000000000000000000000000000000000000000010000000000000000000000000000000000000000004000000000000000000000000000000000000002000000800000000000000000000000000000080000008000000020000000000000000000000000000000000000000000000000000000000000000000",
      "type": "0x2",
      "transactionHash": "0x573c8d3c09e849d82a2823ee406effcfe13aaed741490c683df4d42fa593777b",
      "transactionIndex": "0x3e",
      "blockHash": "0x8e5a1c0dd6b0fedb6417e413dcc9d1a911747afc17a777e2cb61a8b83f386c71",
      "blockNumber": "0x7254dc",
      "gasUsed": "0xfb93",
      "effectiveGasPrice": "0x101c1a69d",
      "from": "0xc77f7fed3b5cc8249adc428c5f44c9063b9734b4",
      "to": "0x270e88f8683660553e8ba4eb2ad7c91a1710d769",
      "contractAddress": null
    }
  ],
  "libraries": [],
  "pending": [],
  "returns": {},
  "timestamp": 1736895576,
  "chain": 11155111,
  "commit": "51a374b"
}