{
  "transactions": [
    {
      "hash": "0xc6bda25cede071648b34d4f8c851265f2de50538bf4ec9bfa385ab19398c770a",
      "transactionType": "CALL",
      "contractName": null,
      "contractAddress": "0x8aafd3ede9adb0ff97c7aebce82a919afb1c8764",
      "function": "sell(uint256)",
      "arguments": [
        "184256357"
      ],
      "transaction": {
        "from": "0xc77f7fed3b5cc8249adc428c5f44c9063b9734b4",
        "to": "0x8aafd3ede9adb0ff97c7aebce82a919afb1c8764",
        "gas": "0x14e6c",
        "value": "0x0",
        "input": "0xe4849b32000000000000000000000000000000000000000000000000000000000afb8765",
        "nonce": "0x10dd",
        "chainId": "0xaa36a7"
      },
      "additionalContracts": [],
      "isFixedGasLimit": false
    }
  ],
  "receipts": [
    {
      "status": "0x1",
      "cumulativeGasUsed": "0xe165ee",
      "logs": [
        {
          "address": "0x8aafd3ede9adb0ff97c7aebce82a919afb1c8764",
          "topics": [
            "0xddf252ad1be2c89b69c2b068fc378daa952ba7f163c4a11628f55a4df523b3ef",
            "0x000000000000000000000000c77f7fed3b5cc8249adc428c5f44c9063b9734b4",
            "0x0000000000000000000000000000000000000000000000000000000000000000"
          ],
          "data": "0x000000000000000000000000000000000000000000000000000000000ae50963",
          "blockHash": "0xbe509840004cebece97511fc6afabd1600a8af5a8a9cd4a4543e3288f8927e54",
          "blockNumber": "0x73177e",
          "transactionHash": "0xc6bda25cede071648b34d4f8c851265f2de50538bf4ec9bfa385ab19398c770a",
          "transactionIndex": "0x84",
          "logIndex": "0xae",
          "removed": false
        },
        {
          "address": "0x8aafd3ede9adb0ff97c7aebce82a919afb1c8764",
          "topics": [
            "0xddf252ad1be2c89b69c2b068fc378daa952ba7f163c4a11628f55a4df523b3ef",
            "0x000000000000000000000000c77f7fed3b5cc8249adc428c5f44c9063b9734b4",
            "0x000000000000000000000000c77f7fed3b5cc8249adc428c5f44c9063b9734b4"
          ],
          "data": "0x0000000000000000000000000000000000000000000000000000000000167e02",
          "blockHash": "0xbe509840004cebece97511fc6afabd1600a8af5a8a9cd4a4543e3288f8927e54",
          "blockNumber": "0x73177e",
          "transactionHash": "0xc6bda25cede071648b34d4f8c851265f2de50538bf4ec9bfa385ab19398c770a",
          "transactionIndex": "0x84",
          "logIndex": "0xaf",
          "removed": false
        },
        {
          "address": "0x8aafd3ede9adb0ff97c7aebce82a919afb1c8764",
          "topics": [
            "0x4afcb4a87cdbd9974efdb92ee48bc8d7cd0ae4bf217004db3d080cbaee652ca7"
          ],
          "data": "0x00000000000000000000000000000000000000000000000000000000679016ac000000000000000000000000000000000000000000000000000506595a48ec6e000000000000000000000000000000000000000000000000000000000003f9fc",
          "blockHash": "0xbe509840004cebece97511fc6afabd1600a8af5a8a9cd4a4543e3288f8927e54",
          "blockNumber": "0x73177e",
          "transactionHash": "0xc6bda25cede071648b34d4f8c851265f2de50538bf4ec9bfa385ab19398c770a",
          "transactionIndex": "0x84",
          "logIndex": "0xb0",
          "removed": false
        }
      ],
      "logsBloom": "0x00000000000000000000000000000000000000000600000000000000000000000000000000000000000000000000000000000000000000004000000000000000000000000000004000000008000000000000000000000000000000000000000000000000020000000000000000000800020000000000000000000010000000000000000000000000000000000000000000000000000000000000010000000000000000000000000000000000000000004000000000000000000000000000000000000002000000800000000000000000000000000000080000000000000020000000000000000000000000000000000000000000000000000000000000000000",
      "type": "0x2",
      "transactionHash": "0xc6bda25cede071648b34d4f8c851265f2de50538bf4ec9bfa385ab19398c770a",
      "transactionIndex": "0x84",
      "blockHash": "0xbe509840004cebece97511fc6afabd1600a8af5a8a9cd4a4543e3288f8927e54",
      "blockNumber": "0x73177e",
      "gasUsed": "0xf21f",
      "effectiveGasPrice": "0x3d1d6040",
      "from": "0xc77f7fed3b5cc8249adc428c5f44c9063b9734b4",
      "to": "0x8aafd3ede9adb0ff97c7aebce82a919afb1c8764",
      "contractAddress": null
    }
  ],
  "libraries": [],
  "pending": [],
  "returns": {},
  "timestamp": 1737496237,
  "chain": 11155111,
  "commit": "1d2fb70"
}