{
  "transactions": [
    {
      "hash": "0x206b084ab133eafd050a6c5fd280d41782ff926694e39280502a71bb30ba30b1",
      "transactionType": "CALL",
      "contractName": null,
      "contractAddress": "0x8aafd3ede9adb0ff97c7aebce82a919afb1c8764",
      "function": "sell(uint256)",
      "arguments": [
        "250017677877957019159"
      ],
      "transaction": {
        "from": "0xc77f7fed3b5cc8249adc428c5f44c9063b9734b4",
        "to": "0x8aafd3ede9adb0ff97c7aebce82a919afb1c8764",
        "gas": "0x17270",
        "value": "0x0",
        "input": "0xe4849b3200000000000000000000000000000000000000000000000d8db139612baac617",
        "nonce": "0x1403",
        "chainId": "0xaa36a7"
      },
      "additionalContracts": [],
      "isFixedGasLimit": false
    }
  ],
  "receipts": [
    {
      "status": "0x1",
      "cumulativeGasUsed": "0xe1812c",
      "logs": [
        {
          "address": "0x8aafd3ede9adb0ff97c7aebce82a919afb1c8764",
          "topics": [
            "0xddf252ad1be2c89b69c2b068fc378daa952ba7f163c4a11628f55a4df523b3ef",
            "0x000000000000000000000000c77f7fed3b5cc8249adc428c5f44c9063b9734b4",
            "0x0000000000000000000000000000000000000000000000000000000000000000"
          ],
          "data": "0x00000000000000000000000000000000000000000000000d71ef4b5a3fcc393e",
          "blockHash": "0xb4828a6ee5b3cc14c085cae3638a6b5906925893bfec0764a938a3d3c1552d4e",
          "blockNumber": "0x731b3a",
          "transactionHash": "0x206b084ab133eafd050a6c5fd280d41782ff926694e39280502a71bb30ba30b1",
          "transactionIndex": "0x99",
          "logIndex": "0x8a",
          "removed": false
        },
        {
          "address": "0x8aafd3ede9adb0ff97c7aebce82a919afb1c8764",
          "topics": [
            "0xddf252ad1be2c89b69c2b068fc378daa952ba7f163c4a11628f55a4df523b3ef",
            "0x000000000000000000000000c77f7fed3b5cc8249adc428c5f44c9063b9734b4",
            "0x000000000000000000000000c77f7fed3b5cc8249adc428c5f44c9063b9734b4"
          ],
          "data": "0x0000000000000000000000000000000000000000000000001bc1ee06ebde8cd9",
          "blockHash": "0xb4828a6ee5b3cc14c085cae3638a6b5906925893bfec0764a938a3d3c1552d4e",
          "blockNumber": "0x731b3a",
          "transactionHash": "0x206b084ab133eafd050a6c5fd280d41782ff926694e39280502a71bb30ba30b1",
          "transactionIndex": "0x99",
          "logIndex": "0x8b",
          "removed": false
        },
        {
          "address": "0x8aafd3ede9adb0ff97c7aebce82a919afb1c8764",
          "topics": [
            "0x4afcb4a87cdbd9974efdb92ee48bc8d7cd0ae4bf217004db3d080cbaee652ca7"
          ],
          "data": "0x0000000000000000000000000000000000000000000000000000000067904388000000000000000000000000000000000000000000000000000e3660fe80d6500000000000000000000000000000000000000000000000000dcdf0617a36bb8f",
          "blockHash": "0xb4828a6ee5b3cc14c085cae3638a6b5906925893bfec0764a938a3d3c1552d4e",
          "blockNumber": "0x731b3a",
          "transactionHash": "0x206b084ab133eafd050a6c5fd280d41782ff926694e39280502a71bb30ba30b1",
          "transactionIndex": "0x99",
          "logIndex": "0x8c",
          "removed": false
        }
      ],
      "logsBloom": "0x00000000000000000000000000000000000000000600000000000000000000000000000000000000000000000000000000000000000000004000000000000000000000000000004000000008000000000000000000000000000000000000000000000000020000000000000000000800020000000000000000000010000000000000000000000000000000000000000000000000000000000000010000000000000000000000000000000000000000004000000000000000000000000000000000000002000000800000000000000000000000000000080000000000000020000000000000000000000000000000000000000000000000000000000000000000",
      "type": "0x2",
      "transactionHash": "0x206b084ab133eafd050a6c5fd280d41782ff926694e39280502a71bb30ba30b1",
      "transactionIndex": "0x99",
      "blockHash": "0xb4828a6ee5b3cc14c085cae3638a6b5906925893bfec0764a938a3d3c1552d4e",
      "blockNumber": "0x731b3a",
      "gasUsed": "0xfd4b",
      "effectiveGasPrice": "0xbf59a067",
      "from": "0xc77f7fed3b5cc8249adc428c5f44c9063b9734b4",
      "to": "0x8aafd3ede9adb0ff97c7aebce82a919afb1c8764",
      "contractAddress": null
    }
  ],
  "libraries": [],
  "pending": [],
  "returns": {},
  "timestamp": 1737507721,
  "chain": 11155111,
  "commit": "1d2fb70"
}