{
  "transactions": [
    {
      "hash": "0x86736302793682c273df66044cc6b8618f5833c3116620b7611a37821271a06c",
      "transactionType": "CALL",
      "contractName": null,
      "contractAddress": "0xbf4a322f1496e5c3d34a9bcdb4c60567b38c7de2",
      "function": "buy(address)",
      "arguments": [
        "0xC77f7fed3b5Cc8249aDc428c5F44C9063B9734b4"
      ],
      "transaction": {
        "from": "0xc77f7fed3b5cc8249adc428c5f44c9063b9734b4",
        "to": "0xbf4a322f1496e5c3d34a9bcdb4c60567b38c7de2",
        "gas": "0x1b309",
        "value": "0xde0b6b3a7640000",
        "input": "0xf088d547000000000000000000000000c77f7fed3b5cc8249adc428c5f44c9063b9734b4",
        "nonce": "0xb4e",
        "chainId": "0xaa36a7"
      },
      "additionalContracts": [],
      "isFixedGasLimit": false
    }
  ],
  "receipts": [
    {
      "status": "0x1",
      "cumulativeGasUsed": "0x101b06c",
      "logs": [
        {
          "address": "0xbf4a322f1496e5c3d34a9bcdb4c60567b38c7de2",
          "topics": [
            "0xddf252ad1be2c89b69c2b068fc378daa952ba7f163c4a11628f55a4df523b3ef",
            "0x0000000000000000000000000000000000000000000000000000000000000000",
            "0x000000000000000000000000c77f7fed3b5cc8249adc428c5f44c9063b9734b4"
          ],
          "data": "0x0000000000000000000000000000000000000000000000351c88f93fd0c001fe",
          "blockHash": "0xc14b2338b58629b8a583b7b79c08e330c78927d3d3fc6233eeeeeba5162815e0",
          "blockNumber": "0x725b54",
          "transactionHash": "0x86736302793682c273df66044cc6b8618f5833c3116620b7611a37821271a06c",
          "transactionIndex": "0x75",
          "logIndex": "0xd2",
          "removed": false
        },
        {
          "address": "0xbf4a322f1496e5c3d34a9bcdb4c60567b38c7de2",
          "topics": [
            "0xddf252ad1be2c89b69c2b068fc378daa952ba7f163c4a11628f55a4df523b3ef",
            "0x0000000000000000000000000000000000000000000000000000000000000000",
            "0x000000000000000000000000c77f7fed3b5cc8249adc428c5f44c9063b9734b4"
          ],
          "data": "0x000000000000000000000000000000000000000000000000293e2c59c648d0cc",
          "blockHash": "0xc14b2338b58629b8a583b7b79c08e330c78927d3d3fc6233eeeeeba5162815e0",
          "blockNumber": "0x725b54",
          "transactionHash": "0x86736302793682c273df66044cc6b8618f5833c3116620b7611a37821271a06c",
          "transactionIndex": "0x75",
          "logIndex": "0xd3",
          "removed": false
        },
        {
          "address": "0xbf4a322f1496e5c3d34a9bcdb4c60567b38c7de2",
          "topics": [
            "0x4afcb4a87cdbd9974efdb92ee48bc8d7cd0ae4bf217004db3d080cbaee652ca7"
          ],
          "data": "0x0000000000000000000000000000000000000000000000000000000067873a4c00000000000000000000000000000000000000000000000000039708bfcc31040000000000000000000000000000000000000000000000000de0b6b3a7640000",
          "blockHash": "0xc14b2338b58629b8a583b7b79c08e330c78927d3d3fc6233eeeeeba5162815e0",
          "blockNumber": "0x725b54",
          "transactionHash": "0x86736302793682c273df66044cc6b8618f5833c3116620b7611a37821271a06c",
          "transactionIndex": "0x75",
          "logIndex": "0xd4",
          "removed": false
        }
      ],
      "logsBloom": "0x00000000000000000000000000000000000000000000000000000000000000000000000000000000000000000000000000000000000000004000000000000000000000000000000000000008000000000000001000000000000000000000000000000000020000000000000000000800020000000000000000000010000000000000000000000000000000000000000000000000000008000000010000000000000000000000000000000000000000004000000000000000000000000000000000000002000000800000000000001000000000000000080000000000000020000000000000000000000000000000000000000000000000000000000000000000",
      "type": "0x2",
      "transactionHash": "0x86736302793682c273df66044cc6b8618f5833c3116620b7611a37821271a06c",
      "transactionIndex": "0x75",
      "blockHash": "0xc14b2338b58629b8a583b7b79c08e330c78927d3d3fc6233eeeeeba5162815e0",
      "blockNumber": "0x725b54",
      "gasUsed": "0x13af6",
      "effectiveGasPrice": "0x458cee15",
      "from": "0xc77f7fed3b5cc8249adc428c5f44c9063b9734b4",
      "to": "0xbf4a322f1496e5c3d34a9bcdb4c60567b38c7de2",
      "contractAddress": null
    }
  ],
  "libraries": [],
  "pending": [],
  "returns": {},
  "timestamp": 1736915533,
  "chain": 11155111,
  "commit": "51a374b"
}