{
  "transactions": [
    {
      "hash": "0x0d18165b3b4346c79e806dd54324a6a421af3e905084dadcc5e53f8c9f7b64bb",
      "transactionType": "CALL",
      "contractName": null,
      "contractAddress": "0x8aafd3ede9adb0ff97c7aebce82a919afb1c8764",
      "function": "sell(uint256)",
      "arguments": [
        "183840727"
      ],
      "transaction": {
        "from": "0xc77f7fed3b5cc8249adc428c5f44c9063b9734b4",
        "to": "0x8aafd3ede9adb0ff97c7aebce82a919afb1c8764",
        "gas": "0x14e6c",
        "value": "0x0",
        "input": "0xe4849b32000000000000000000000000000000000000000000000000000000000af52fd7",
        "nonce": "0x10f1",
        "chainId": "0xaa36a7"
      },
      "additionalContracts": [],
      "isFixedGasLimit": false
    }
  ],
  "receipts": [
    {
      "status": "0x1",
      "cumulativeGasUsed": "0x803ec6",
      "logs": [
        {
          "address": "0x8aafd3ede9adb0ff97c7aebce82a919afb1c8764",
          "topics": [
            "0xddf252ad1be2c89b69c2b068fc378daa952ba7f163c4a11628f55a4df523b3ef",
            "0x000000000000000000000000c77f7fed3b5cc8249adc428c5f44c9063b9734b4",
            "0x0000000000000000000000000000000000000000000000000000000000000000"
          ],
          "data": "0x000000000000000000000000000000000000000000000000000000000adebed2",
          "blockHash": "0x56082c6d04942f5fdc2889658c89c64b54498d3a5348a3c650be8e28ab2c42da",
          "blockNumber": "0x731798",
          "transactionHash": "0x0d18165b3b4346c79e806dd54324a6a421af3e905084dadcc5e53f8c9f7b64bb",
          "transactionIndex": "0x75",
          "logIndex": "0x84",
          "removed": false
        },
        {
          "address": "0x8aafd3ede9adb0ff97c7aebce82a919afb1c8764",
          "topics": [
            "0xddf252ad1be2c89b69c2b068fc378daa952ba7f163c4a11628f55a4df523b3ef",
            "0x000000000000000000000000c77f7fed3b5cc8249adc428c5f44c9063b9734b4",
            "0x000000000000000000000000c77f7fed3b5cc8249adc428c5f44c9063b9734b4"
          ],
          "data": "0x0000000000000000000000000000000000000000000000000000000000167105",
          "blockHash": "0x56082c6d04942f5fdc2889658c89c64b54498d3a5348a3c650be8e28ab2c42da",
          "blockNumber": "0x731798",
          "transactionHash": "0x0d18165b3b4346c79e806dd54324a6a421af3e905084dadcc5e53f8c9f7b64bb",
          "transactionIndex": "0x75",
          "logIndex": "0x85",
          "removed": false
        },
        {
          "address": "0x8aafd3ede9adb0ff97c7aebce82a919afb1c8764",
          "topics": [
            "0x4afcb4a87cdbd9974efdb92ee48bc8d7cd0ae4bf217004db3d080cbaee652ca7"
          ],
          "data": "0x00000000000000000000000000000000000000000000000000000000679017e400000000000000000000000000000000000000000000000000050941056c5e84000000000000000000000000000000000000000000000000000000000003f9fb",
          "blockHash": "0x56082c6d04942f5fdc2889658c89c64b54498d3a5348a3c650be8e28ab2c42da",
          "blockNumber": "0x731798",
          "transactionHash": "0x0d18165b3b4346c79e806dd54324a6a421af3e905084dadcc5e53f8c9f7b64bb",
          "transactionIndex": "0x75",
          "logIndex": "0x86",
          "removed": false
        }
      ],
      "logsBloom": "0x00000000000000000000000000000000000000000600000000000000000000000000000000000000000000000000000000000000000000004000000000000000000000000000004000000008000000000000000000000000000000000000000000000000020000000000000000000800020000000000000000000010000000000000000000000000000000000000000000000000000000000000010000000000000000000000000000000000000000004000000000000000000000000000000000000002000000800000000000000000000000000000080000000000000020000000000000000000000000000000000000000000000000000000000000000000",
      "type": "0x2",
      "transactionHash": "0x0d18165b3b4346c79e806dd54324a6a421af3e905084dadcc5e53f8c9f7b64bb",
      "transactionIndex": "0x75",
      "blockHash": "0x56082c6d04942f5fdc2889658c89c64b54498d3a5348a3c650be8e28ab2c42da",
      "blockNumber": "0x731798",
      "gasUsed": "0xf21f",
      "effectiveGasPrice": "0x412003ee",
      "from": "0xc77f7fed3b5cc8249adc428c5f44c9063b9734b4",
      "to": "0x8aafd3ede9adb0ff97c7aebce82a919afb1c8764",
      "contractAddress": null
    }
  ],
  "libraries": [],
  "pending": [],
  "returns": {},
  "timestamp": 1737496550,
  "chain": 11155111,
  "commit": "1d2fb70"
}