{
  "transactions": [
    {
      "hash": "0x431d6992bc0c1a53133ef041249d3ff459961ea3e608825e361b0603e29b8f74",
      "transactionType": "CALL",
      "contractName": null,
      "contractAddress": "0x5eb9cc76c3506942c1c0ead70e877dd5e4f00cb0",
      "function": "buy(address)",
      "arguments": [
        "0xC77f7fed3b5Cc8249aDc428c5F44C9063B9734b4"
      ],
      "transaction": {
        "from": "0xc77f7fed3b5cc8249adc428c5f44c9063b9734b4",
        "to": "0x5eb9cc76c3506942c1c0ead70e877dd5e4f00cb0",
        "gas": "0x1b30c",
        "value": "0xde0b6b3a7640000",
        "input": "0xf088d547000000000000000000000000c77f7fed3b5cc8249adc428c5f44c9063b9734b4",
        "nonce": "0x242",
        "chainId": "0xaa36a7"
      },
      "additionalContracts": [],
      "isFixedGasLimit": false
    }
  ],
  "receipts": [
    {
      "status": "0x1",
      "cumulativeGasUsed": "0xcdb9d7",
      "logs": [
        {
          "address": "0x5eb9cc76c3506942c1c0ead70e877dd5e4f00cb0",
          "topics": [
            "0xddf252ad1be2c89b69c2b068fc378daa952ba7f163c4a11628f55a4df523b3ef",
            "0x0000000000000000000000000000000000000000000000000000000000000000",
            "0x000000000000000000000000c77f7fed3b5cc8249adc428c5f44c9063b9734b4"
          ],
          "data": "0x0000000000000000000000000000000000000000000000357c297844bf6c88e6",
          "blockHash": "0x1c470bc58c3f235242f816753517286aee5ce3762f0454993dfd3f9575e608f2",
          "blockNumber": "0x724df9",
          "transactionHash": "0x431d6992bc0c1a53133ef041249d3ff459961ea3e608825e361b0603e29b8f74",
          "transactionIndex": "0x85",
          "logIndex": "0xdf",
          "removed": false
        },
        {
          "address": "0x5eb9cc76c3506942c1c0ead70e877dd5e4f00cb0",
          "topics": [
            "0xddf252ad1be2c89b69c2b068fc378daa952ba7f163c4a11628f55a4df523b3ef",
            "0x0000000000000000000000000000000000000000000000000000000000000000",
            "0x000000000000000000000000c77f7fed3b5cc8249adc428c5f44c9063b9734b4"
          ],
          "data": "0x00000000000000000000000000000000000000000000000029886e4a7de5d17f",
          "blockHash": "0x1c470bc58c3f235242f816753517286aee5ce3762f0454993dfd3f9575e608f2",
          "blockNumber": "0x724df9",
          "transactionHash": "0x431d6992bc0c1a53133ef041249d3ff459961ea3e608825e361b0603e29b8f74",
          "transactionIndex": "0x85",
          "logIndex": "0xe0",
          "removed": false
        },
        {
          "address": "0x5eb9cc76c3506942c1c0ead70e877dd5e4f00cb0",
          "topics": [
            "0x4afcb4a87cdbd9974efdb92ee48bc8d7cd0ae4bf217004db3d080cbaee652ca7"
          ],
          "data": "0x00000000000000000000000000000000000000000000000000000000678699600000000000000000000000000000000000000000000000000003909b4d7a10a40000000000000000000000000000000000000000000000000de0b6b3a7640000",
          "blockHash": "0x1c470bc58c3f235242f816753517286aee5ce3762f0454993dfd3f9575e608f2",
          "blockNumber": "0x724df9",
          "transactionHash": "0x431d6992bc0c1a53133ef041249d3ff459961ea3e608825e361b0603e29b8f74",
          "transactionIndex": "0x85",
          "logIndex": "0xe1",
          "removed": false
        }
      ],
      "logsBloom": "0x00000000000000000000000000000000000000000000000000000000000000000000000000000000000000000000000000000000000000004000000000000000000000000000000000000008000000000000000000000000000000000000000000000000020000000000000004000800020000000000000000000010000000000000000000000000000000000000000000000000000000000000010000000000000000000000000000000000000000004000000000000000000000000000020000000002000000800000008000000000000000000000080000000000000020000000000000000000000000000000000000000000000000000000000000000000",
      "type": "0x2",
      "transactionHash": "0x431d6992bc0c1a53133ef041249d3ff459961ea3e608825e361b0603e29b8f74",
      "transactionIndex": "0x85",
      "blockHash": "0x1c470bc58c3f235242f816753517286aee5ce3762f0454993dfd3f9575e608f2",
      "blockNumber": "0x724df9",
      "gasUsed": "0x13af8",
      "effectiveGasPrice": "0x388424a26",
      "from": "0xc77f7fed3b5cc8249adc428c5f44c9063b9734b4",
      "to": "0x5eb9cc76c3506942c1c0ead70e877dd5e4f00cb0",
      "contractAddress": null
    }
  ],
  "libraries": [],
  "pending": [],
  "returns": {},
  "timestamp": 1736874338,
  "chain": 11155111,
  "commit": "51a374b"
}