{
  "transactions": [
    {
      "hash": "0x56a5b2423744023e08ab08e231a86ae407cc1916394c787af4f9f5a0070ef68d",
      "transactionType": "CALL",
      "contractName": null,
      "contractAddress": "0xbf4a322f1496e5c3d34a9bcdb4c60567b38c7de2",
      "function": "buy(address)",
      "arguments": [
        "0xC77f7fed3b5Cc8249aDc428c5F44C9063B9734b4"
      ],
      "transaction": {
        "from": "0xc77f7fed3b5cc8249adc428c5f44c9063b9734b4",
        "to": "0xbf4a322f1496e5c3d34a9bcdb4c60567b38c7de2",
        "gas": "0x1b309",
        "value": "0xde0b6b3a7640000",
        "input": "0xf088d547000000000000000000000000c77f7fed3b5cc8249adc428c5f44c9063b9734b4",
        "nonce": "0xd98",
        "chainId": "0xaa36a7"
      },
      "additionalContracts": [],
      "isFixedGasLimit": false
    }
  ],
  "receipts": [
    {
      "status": "0x1",
      "cumulativeGasUsed": "0x144b559",
      "logs": [
        {
          "address": "0xbf4a322f1496e5c3d34a9bcdb4c60567b38c7de2",
          "topics": [
            "0xddf252ad1be2c89b69c2b068fc378daa952ba7f163c4a11628f55a4df523b3ef",
            "0x0000000000000000000000000000000000000000000000000000000000000000",
            "0x000000000000000000000000c77f7fed3b5cc8249adc428c5f44c9063b9734b4"
          ],
          "data": "0x000000000000000000000000000000000000000000000034aff297654dde8842",
          "blockHash": "0x0bcca94b5951aea98346cbfeed6853443de2035ba043c20fc6328eea3e4d3add",
          "blockNumber": "0x72666d",
          "transactionHash": "0x56a5b2423744023e08ab08e231a86ae407cc1916394c787af4f9f5a0070ef68d",
          "transactionIndex": "0x85",
          "logIndex": "0xfc",
          "removed": false
        },
        {
          "address": "0xbf4a322f1496e5c3d34a9bcdb4c60567b38c7de2",
          "topics": [
            "0xddf252ad1be2c89b69c2b068fc378daa952ba7f163c4a11628f55a4df523b3ef",
            "0x0000000000000000000000000000000000000000000000000000000000000000",
            "0x000000000000000000000000c77f7fed3b5cc8249adc428c5f44c9063b9734b4"
          ],
          "data": "0x00000000000000000000000000000000000000000000000028e9d9f56b979038",
          "blockHash": "0x0bcca94b5951aea98346cbfeed6853443de2035ba043c20fc6328eea3e4d3add",
          "blockNumber": "0x72666d",
          "transactionHash": "0x56a5b2423744023e08ab08e231a86ae407cc1916394c787af4f9f5a0070ef68d",
          "transactionIndex": "0x85",
          "logIndex": "0xfd",
          "removed": false
        },
        {
          "address": "0xbf4a322f1496e5c3d34a9bcdb4c60567b38c7de2",
          "topics": [
            "0x4afcb4a87cdbd9974efdb92ee48bc8d7cd0ae4bf217004db3d080cbaee652ca7"
          ],
          "data": "0x000000000000000000000000000000000000000000000000000000006787bfe400000000000000000000000000000000000000000000000000039e6ed74bc6860000000000000000000000000000000000000000000000000de0b6b3a7640000",
          "blockHash": "0x0bcca94b5951aea98346cbfeed6853443de2035ba043c20fc6328eea3e4d3add",
          "blockNumber": "0x72666d",
          "transactionHash": "0x56a5b2423744023e08ab08e231a86ae407cc1916394c787af4f9f5a0070ef68d",
          "transactionIndex": "0x85",
          "logIndex": "0xfe",
          "removed": false
        }
      ],
      "logsBloom": "0x00000000000000000000000000000000000000000000000000000000000000000000000000000000000000000000000000000000000000004000000000000000000000000000000000000008000000000000001000000000000000000000000000000000020000000000000000000800020000000000000000000010000000000000000000000000000000000000000000000000000008000000010000000000000000000000000000000000000000004000000000000000000000000000000000000002000000800000000000001000000000000000080000000000000020000000000000000000000000000000000000000000000000000000000000000000",
      "type": "0x2",
      "transactionHash": "0x56a5b2423744023e08ab08e231a86ae407cc1916394c787af4f9f5a0070ef68d",
      "transactionIndex": "0x85",
      "blockHash": "0x0bcca94b5951aea98346cbfeed6853443de2035ba043c20fc6328eea3e4d3add",
      "blockNumber": "0x72666d",
      "gasUsed": "0x13af6",
      "effectiveGasPrice": "0x8d177ecd",
      "from": "0xc77f7fed3b5cc8249adc428c5f44c9063b9734b4",
      "to": "0xbf4a322f1496e5c3d34a9bcdb4c60567b38c7de2",
      "contractAddress": null
    }
  ],
  "libraries": [],
  "pending": [],
  "returns": {},
  "timestamp": 1736949733,
  "chain": 11155111,
  "commit": "51a374b"
}