{
  "transactions": [
    {
      "hash": "0xcedcd8e8607353dec9f08833f821c86aa544d8bf5a4eb7373e9f28cf7d1b0752",
      "transactionType": "CALL",
      "contractName": null,
      "contractAddress": "0x8aafd3ede9adb0ff97c7aebce82a919afb1c8764",
      "function": "sell(uint256)",
      "arguments": [
        "599259836092"
      ],
      "transaction": {
        "from": "0xc77f7fed3b5cc8249adc428c5f44c9063b9734b4",
        "to": "0x8aafd3ede9adb0ff97c7aebce82a919afb1c8764",
        "gas": "0x1722a",
        "value": "0x0",
        "input": "0xe4849b320000000000000000000000000000000000000000000000000000008b86ab6ebc",
        "nonce": "0x1767",
        "chainId": "0xaa36a7"
      },
      "additionalContracts": [],
      "isFixedGasLimit": false
    }
  ],
  "receipts": [
    {
      "status": "0x1",
      "cumulativeGasUsed": "0xdd3016",
      "logs": [
        {
          "address": "0x8aafd3ede9adb0ff97c7aebce82a919afb1c8764",
          "topics": [
            "0xddf252ad1be2c89b69c2b068fc378daa952ba7f163c4a11628f55a4df523b3ef",
            "0x000000000000000000000000c77f7fed3b5cc8249adc428c5f44c9063b9734b4",
            "0x0000000000000000000000000000000000000000000000000000000000000000"
          ],
          "data": "0x0000000000000000000000000000000000000000000000000000008a68eb98dc",
          "blockHash": "0x5d1e79bf99b907035d0e6ae878159f8d465940c6742c94014664cbce680bbee7",
          "blockNumber": "0x731f3d",
          "transactionHash": "0xcedcd8e8607353dec9f08833f821c86aa544d8bf5a4eb7373e9f28cf7d1b0752",
          "transactionIndex": "0x9f",
          "logIndex": "0xda",
          "removed": false
        },
        {
          "address": "0x8aafd3ede9adb0ff97c7aebce82a919afb1c8764",
          "topics": [
            "0xddf252ad1be2c89b69c2b068fc378daa952ba7f163c4a11628f55a4df523b3ef",
            "0x000000000000000000000000c77f7fed3b5cc8249adc428c5f44c9063b9734b4",
            "0x000000000000000000000000c77f7fed3b5cc8249adc428c5f44c9063b9734b4"
          ],
          "data": "0x000000000000000000000000000000000000000000000000000000011dbfd5e0",
          "blockHash": "0x5d1e79bf99b907035d0e6ae878159f8d465940c6742c94014664cbce680bbee7",
          "blockNumber": "0x731f3d",
          "transactionHash": "0xcedcd8e8607353dec9f08833f821c86aa544d8bf5a4eb7373e9f28cf7d1b0752",
          "transactionIndex": "0x9f",
          "logIndex": "0xdb",
          "removed": false
        },
        {
          "address": "0x8aafd3ede9adb0ff97c7aebce82a919afb1c8764",
          "topics": [
            "0x4afcb4a87cdbd9974efdb92ee48bc8d7cd0ae4bf217004db3d080cbaee652ca7"
          ],
          "data": "0x00000000000000000000000000000000000000000000000000000000679073c4000000000000000000000000000000000000000000000000001837f956d3787800000000000000000000000000000000000000000000000000000000f37dfdb2",
          "blockHash": "0x5d1e79bf99b907035d0e6ae878159f8d465940c6742c94014664cbce680bbee7",
          "blockNumber": "0x731f3d",
          "transactionHash": "0xcedcd8e8607353dec9f08833f821c86aa544d8bf5a4eb7373e9f28cf7d1b0752",
          "transactionIndex": "0x9f",
          "logIndex": "0xdc",
          "removed": false
        }
      ],
      "logsBloom": "0x00000000000000000000000000000000000000000600000000000000000000000000000000000000000000000000000000000000000000004000000000000000000000000000004000000008000000000000000000000000000000000000000000000000020000000000000000000800020000000000000000000010000000000000000000000000000000000000000000000000000000000000010000000000000000000000000000000000000000004000000000000000000000000000000000000002000000800000000000000000000000000000080000000000000020000000000000000000000000000000000000000000000000000000000000000000",
      "type": "0x2",
      "transactionHash": "0xcedcd8e8607353dec9f08833f821c86aa544d8bf5a4eb7373e9f28cf7d1b0752",
      "transactionIndex": "0x9f",
      "blockHash": "0x5d1e79bf99b907035d0e6ae878159f8d465940c6742c94014664cbce680bbee7",
      "blockNumber": "0x731f3d",
      "gasUsed": "0xfd1b",
      "effectiveGasPrice": "0x307fa4fb",
      "from": "0xc77f7fed3b5cc8249adc428c5f44c9063b9734b4",
      "to": "0x8aafd3ede9adb0ff97c7aebce82a919afb1c8764",
      "contractAddress": null
    }
  ],
  "libraries": [],
  "pending": [],
  "returns": {},
  "timestamp": 1737520070,
  "chain": 11155111,
  "commit": "1d2fb70"
}