{
  "transactions": [
    {
      "hash": "0xf05072ed9ab267d4b05dd29dc2ca0e05b892945032ccb972c853d8c189798a8b",
      "transactionType": "CALL",
      "contractName": null,
      "contractAddress": "0x270e88f8683660553e8ba4eb2ad7c91a1710d769",
      "function": "buy(address)",
      "arguments": [
        "0xC77f7fed3b5Cc8249aDc428c5F44C9063B9734b4"
      ],
      "transaction": {
        "from": "0xc77f7fed3b5cc8249adc428c5f44c9063b9734b4",
        "to": "0x270e88f8683660553e8ba4eb2ad7c91a1710d769",
        "gas": "0x1b30c",
        "value": "0xde0b6b3a7640000",
        "input": "0xf088d547000000000000000000000000c77f7fed3b5cc8249adc428c5f44c9063b9734b4",
        "nonce": "0x7ab",
        "chainId": "0xaa36a7"
      },
      "additionalContracts": [],
      "isFixedGasLimit": false
    }
  ],
  "receipts": [
    {
      "status": "0x1",
      "cumulativeGasUsed": "0x6e7fd1",
      "logs": [
        {
          "address": "0x270e88f8683660553e8ba4eb2ad7c91a1710d769",
          "topics": [
            "0xddf252ad1be2c89b69c2b068fc378daa952ba7f163c4a11628f55a4df523b3ef",
            "0x0000000000000000000000000000000000000000000000000000000000000000",
            "0x000000000000000000000000c77f7fed3b5cc8249adc428c5f44c9063b9734b4"
          ],
          "data": "0x00000000000000000000000000000000000000000000002775c6999e502c0c23",
          "blockHash": "0x5574255a0d03685deee2135c84a60dae5a15a01ebf80975fb57134e89fd8312d",
          "blockNumber": "0x7254df",
          "transactionHash": "0xf05072ed9ab267d4b05dd29dc2ca0e05b892945032ccb972c853d8c189798a8b",
          "transactionIndex": "0x3b",
          "logIndex": "0x97",
          "removed": false
        },
        {
          "address": "0x270e88f8683660553e8ba4eb2ad7c91a1710d769",
          "topics": [
            "0xddf252ad1be2c89b69c2b068fc378daa952ba7f163c4a11628f55a4df523b3ef",
            "0x0000000000000000000000000000000000000000000000000000000000000000",
            "0x000000000000000000000000c77f7fed3b5cc8249adc428c5f44c9063b9734b4"
          ],
          "data": "0x0000000000000000000000000000000000000000000000001ea45f9b601f31e9",
          "blockHash": "0x5574255a0d03685deee2135c84a60dae5a15a01ebf80975fb57134e89fd8312d",
          "blockNumber": "0x7254df",
          "transactionHash": "0xf05072ed9ab267d4b05dd29dc2ca0e05b892945032ccb972c853d8c189798a8b",
          "transactionIndex": "0x3b",
          "logIndex": "0x98",
          "removed": false
        },
        {
          "address": "0x270e88f8683660553e8ba4eb2ad7c91a1710d769",
          "topics": [
            "0x4afcb4a87cdbd9974efdb92ee48bc8d7cd0ae4bf217004db3d080cbaee652ca7"
          ],
          "data": "0x000000000000000000000000000000000000000000000000000000006786ec7c0000000000000000000000000000000000000000000000000004d512362e33390000000000000000000000000000000000000000000000000de0b6b3a7640000",
          "blockHash": "0x5574255a0d03685deee2135c84a60dae5a15a01ebf80975fb57134e89fd8312d",
          "blockNumber": "0x7254df",
          "transactionHash": "0xf05072ed9ab267d4b05dd29dc2ca0e05b892945032ccb972c853d8c189798a8b",
          "transactionIndex": "0x3b",
          "logIndex": "0x99",
          "removed": false
        }
      ],
      "logsBloom": "0x00000000000000000000000000000000000000000000000000000000000000000000000000000000000000000000000020000000000000004000000000000000000000000000000000000008000000000000000000000000000000000000000000000000020000000000000000000800020000000000000000000010000000000000000000010000000000000000000000000000000000000000010000000000000000000000000000000000000000004000000000000000000000000000000000000002000000800000000000000000000000000000080000008000000020000000000000000000000000000000000000000000000000000000000000000000",
      "type": "0x2",
      "transactionHash": "0xf05072ed9ab267d4b05dd29dc2ca0e05b892945032ccb972c853d8c189798a8b",
      "transactionIndex": "0x3b",
      "blockHash": "0x5574255a0d03685deee2135c84a60dae5a15a01ebf80975fb57134e89fd8312d",
      "blockNumber": "0x7254df",
      "gasUsed": "0x13af8",
      "effectiveGasPrice": "0xfa03ef8a",
      "from": "0xc77f7fed3b5cc8249adc428c5f44c9063b9734b4",
      "to": "0x270e88f8683660553e8ba4eb2ad7c91a1710d769",
      "contractAddress": null
    }
  ],
  "libraries": [],
  "pending": [],
  "returns": {},
  "timestamp": 1736895614,
  "chain": 11155111,
  "commit": "51a374b"
}