{
  "transactions": [
    {
      "hash": "0xe4edaed40e109512a57ea7988192fa8e8b5a0f577a73f52e31ca63e97fd36d17",
      "transactionType": "CALL",
      "contractName": null,
      "contractAddress": "0x270e88f8683660553e8ba4eb2ad7c91a1710d769",
      "function": "buy(address)",
      "arguments": [
        "0xC77f7fed3b5Cc8249aDc428c5F44C9063B9734b4"
      ],
      "transaction": {
        "from": "0xc77f7fed3b5cc8249adc428c5f44c9063b9734b4",
        "to": "0x270e88f8683660553e8ba4eb2ad7c91a1710d769",
        "gas": "0x1b30c",
        "value": "0xde0b6b3a7640000",
        "input": "0xf088d547000000000000000000000000c77f7fed3b5cc8249adc428c5f44c9063b9734b4",
        "nonce": "0x6e5",
        "chainId": "0xaa36a7"
      },
      "additionalContracts": [],
      "isFixedGasLimit": false
    }
  ],
  "receipts": [
    {
      "status": "0x1",
      "cumulativeGasUsed": "0xa382d0",
      "logs": [
        {
          "address": "0x270e88f8683660553e8ba4eb2ad7c91a1710d769",
          "topics": [
            "0xddf252ad1be2c89b69c2b068fc378daa952ba7f163c4a11628f55a4df523b3ef",
            "0x0000000000000000000000000000000000000000000000000000000000000000",
            "0x000000000000000000000000c77f7fed3b5cc8249adc428c5f44c9063b9734b4"
          ],
          "data": "0x000000000000000000000000000000000000000000000028684d29e62b3d0438",
          "blockHash": "0xb8c6fc5cc55129abd02b02c9524d6e01fe48a085516ad1bbc3ae76bc8a8af6bb",
          "blockNumber": "0x7253f8",
          "transactionHash": "0xe4edaed40e109512a57ea7988192fa8e8b5a0f577a73f52e31ca63e97fd36d17",
          "transactionIndex": "0x3f",
          "logIndex": "0x6d",
          "removed": false
        },
        {
          "address": "0x270e88f8683660553e8ba4eb2ad7c91a1710d769",
          "topics": [
            "0xddf252ad1be2c89b69c2b068fc378daa952ba7f163c4a11628f55a4df523b3ef",
            "0x0000000000000000000000000000000000000000000000000000000000000000",
            "0x000000000000000000000000c77f7fed3b5cc8249adc428c5f44c9063b9734b4"
          ],
          "data": "0x0000000000000000000000000000000000000000000000001f60b3f0fb2b4a5d",
          "blockHash": "0xb8c6fc5cc55129abd02b02c9524d6e01fe48a085516ad1bbc3ae76bc8a8af6bb",
          "blockNumber": "0x7253f8",
          "transactionHash": "0xe4edaed40e109512a57ea7988192fa8e8b5a0f577a73f52e31ca63e97fd36d17",
          "transactionIndex": "0x3f",
          "logIndex": "0x6e",
          "removed": false
        },
        {
          "address": "0x270e88f8683660553e8ba4eb2ad7c91a1710d769",
          "topics": [
            "0x4afcb4a87cdbd9974efdb92ee48bc8d7cd0ae4bf217004db3d080cbaee652ca7"
          ],
          "data": "0x000000000000000000000000000000000000000000000000000000006786e1a80000000000000000000000000000000000000000000000000004b811ec8539ce0000000000000000000000000000000000000000000000000de0b6b3a7640000",
          "blockHash": "0xb8c6fc5cc55129abd02b02c9524d6e01fe48a085516ad1bbc3ae76bc8a8af6bb",
          "blockNumber": "0x7253f8",
          "transactionHash": "0xe4edaed40e109512a57ea7988192fa8e8b5a0f577a73f52e31ca63e97fd36d17",
          "transactionIndex": "0x3f",
          "logIndex": "0x6f",
          "removed": false
        }
      ],
      "logsBloom": "0x00000000000000000000000000000000000000000000000000000000000000000000000000000000000000000000000020000000000000004000000000000000000000000000000000000008000000000000000000000000000000000000000000000000020000000000000000000800020000000000000000000010000000000000000000010000000000000000000000000000000000000000010000000000000000000000000000000000000000004000000000000000000000000000000000000002000000800000000000000000000000000000080000008000000020000000000000000000000000000000000000000000000000000000000000000000",
      "type": "0x2",
      "transactionHash": "0xe4edaed40e109512a57ea7988192fa8e8b5a0f577a73f52e31ca63e97fd36d17",
      "transactionIndex": "0x3f",
      "blockHash": "0xb8c6fc5cc55129abd02b02c9524d6e01fe48a085516ad1bbc3ae76bc8a8af6bb",
      "blockNumber": "0x7253f8",
      "gasUsed": "0x13af8",
      "effectiveGasPrice": "0x15a86f5b6",
      "from": "0xc77f7fed3b5cc8249adc428c5f44c9063b9734b4",
      "to": "0x270e88f8683660553e8ba4eb2ad7c91a1710d769",
      "contractAddress": null
    }
  ],
  "libraries": [],
  "pending": [],
  "returns": {},
  "timestamp": 1736892840,
  "chain": 11155111,
  "commit": "51a374b"
}