{
  "transactions": [
    {
      "hash": "0xc799426f31c7b646d6a22ef392add13580f46b7e2478bc52bc24bcf19b0fb966",
      "transactionType": "CALL",
      "contractName": null,
      "contractAddress": "0xbf4a322f1496e5c3d34a9bcdb4c60567b38c7de2",
      "function": "sell(uint256)",
      "arguments": [
        "983218761961465097172"
      ],
      "transaction": {
        "from": "0xc77f7fed3b5cc8249adc428c5f44c9063b9734b4",
        "to": "0xbf4a322f1496e5c3d34a9bcdb4c60567b38c7de2",
        "gas": "0x16fea",
        "value": "0x0",
        "input": "0xe4849b320000000000000000000000000000000000000000000000354ce6beb00c7aabd4",
        "nonce": "0xb29",
        "chainId": "0xaa36a7"
      },
      "additionalContracts": [],
      "isFixedGasLimit": false
    }
  ],
  "receipts": [
    {
      "status": "0x1",
      "cumulativeGasUsed": "0x624b3e",
      "logs": [
        {
          "address": "0xbf4a322f1496e5c3d34a9bcdb4c60567b38c7de2",
          "topics": [
            "0xddf252ad1be2c89b69c2b068fc378daa952ba7f163c4a11628f55a4df523b3ef",
            "0x000000000000000000000000c77f7fed3b5cc8249adc428c5f44c9063b9734b4",
            "0x0000000000000000000000000000000000000000000000000000000000000000"
          ],
          "data": "0x0000000000000000000000000000000000000000000000354ce6beb00c7aabd4",
          "blockHash": "0x62dbd87b165958d986d662aa54de1a4bcaa3fe7d3dec2911b8c3d29d8fa241cb",
          "blockNumber": "0x725b25",
          "transactionHash": "0xc799426f31c7b646d6a22ef392add13580f46b7e2478bc52bc24bcf19b0fb966",
          "transactionIndex": "0x3a",
          "logIndex": "0x57",
          "removed": false
        },
        {
          "address": "0xbf4a322f1496e5c3d34a9bcdb4c60567b38c7de2",
          "topics": [
            "0x4afcb4a87cdbd9974efdb92ee48bc8d7cd0ae4bf217004db3d080cbaee652ca7"
          ],
          "data": "0x0000000000000000000000000000000000000000000000000000000067873818000000000000000000000000000000000000000000000000000396920f829a880000000000000000000000000000000000000000000000000dc7e3e98ccd699e",
          "blockHash": "0x62dbd87b165958d986d662aa54de1a4bcaa3fe7d3dec2911b8c3d29d8fa241cb",
          "blockNumber": "0x725b25",
          "transactionHash": "0xc799426f31c7b646d6a22ef392add13580f46b7e2478bc52bc24bcf19b0fb966",
          "transactionIndex": "0x3a",
          "logIndex": "0x58",
          "removed": false
        }
      ],
      "logsBloom": "0x00000000000000000000000000000000000000000000000000000000000000000000000000000000000000000000000000000000000000004000000000000000000000000000000000000008000000000000001000000000000000000000000000000000020000000000000000000800020000000000000000000010000000000000000000000000000000000000000000000000000008000000010000000000000000000000000000000000000000004000000000000000000000000000000000000002000000800000000000001000000000000000080000000000000020000000000000000000000000000000000000000000000000000000000000000000",
      "type": "0x2",
      "transactionHash": "0xc799426f31c7b646d6a22ef392add13580f46b7e2478bc52bc24bcf19b0fb966",
      "transactionIndex": "0x3a",
      "blockHash": "0x62dbd87b165958d986d662aa54de1a4bcaa3fe7d3dec2911b8c3d29d8fa241cb",
      "blockNumber": "0x725b25",
      "gasUsed": "0xfb91",
      "effectiveGasPrice": "0x61ef90ba",
      "from": "0xc77f7fed3b5cc8249adc428c5f44c9063b9734b4",
      "to": "0xbf4a322f1496e5c3d34a9bcdb4c60567b38c7de2",
      "contractAddress": null
    }
  ],
  "libraries": [],
  "pending": [],
  "returns": {},
  "timestamp": 1736914969,
  "chain": 11155111,
  "commit": "51a374b"
}