{
  "transactions": [
    {
      "hash": "0x96dc5b857dd01699ba56eb2065919d554a407cd912ad3b18506813b84fb1506f",
      "transactionType": "CALL",
      "contractName": null,
      "contractAddress": "0x270e88f8683660553e8ba4eb2ad7c91a1710d769",
      "function": "buy(address)",
      "arguments": [
        "0xC77f7fed3b5Cc8249aDc428c5F44C9063B9734b4"
      ],
      "transaction": {
        "from": "0xc77f7fed3b5cc8249adc428c5f44c9063b9734b4",
        "to": "0x270e88f8683660553e8ba4eb2ad7c91a1710d769",
        "gas": "0x1b30c",
        "value": "0xde0b6b3a7640000",
        "input": "0xf088d547000000000000000000000000c77f7fed3b5cc8249adc428c5f44c9063b9734b4",
        "nonce": "0x4e0",
        "chainId": "0xaa36a7"
      },
      "additionalContracts": [],
      "isFixedGasLimit": false
    }
  ],
  "receipts": [
    {
      "status": "0x1",
      "cumulativeGasUsed": "0xe9b869",
      "logs": [
        {
          "address": "0x270e88f8683660553e8ba4eb2ad7c91a1710d769",
          "topics": [
            "0xddf252ad1be2c89b69c2b068fc378daa952ba7f163c4a11628f55a4df523b3ef",
            "0x0000000000000000000000000000000000000000000000000000000000000000",
            "0x000000000000000000000000c77f7fed3b5cc8249adc428c5f44c9063b9734b4"
          ],
          "data": "0x00000000000000000000000000000000000000000000003590852746d616dcce",
          "blockHash": "0xea60c86cd638cf6a27228888bd98cb87ddf2a0f9b3f34afde3d1e2961bc77ef5",
          "blockNumber": "0x72516e",
          "transactionHash": "0x96dc5b857dd01699ba56eb2065919d554a407cd912ad3b18506813b84fb1506f",
          "transactionIndex": "0x52",
          "logIndex": "0xb7",
          "removed": false
        },
        {
          "address": "0x270e88f8683660553e8ba4eb2ad7c91a1710d769",
          "topics": [
            "0xddf252ad1be2c89b69c2b068fc378daa952ba7f163c4a11628f55a4df523b3ef",
            "0x0000000000000000000000000000000000000000000000000000000000000000",
            "0x000000000000000000000000c77f7fed3b5cc8249adc428c5f44c9063b9734b4"
          ],
          "data": "0x00000000000000000000000000000000000000000000000029983d5751966a03",
          "blockHash": "0xea60c86cd638cf6a27228888bd98cb87ddf2a0f9b3f34afde3d1e2961bc77ef5",
          "blockNumber": "0x72516e",
          "transactionHash": "0x96dc5b857dd01699ba56eb2065919d554a407cd912ad3b18506813b84fb1506f",
          "transactionIndex": "0x52",
          "logIndex": "0xb8",
          "removed": false
        },
        {
          "address": "0x270e88f8683660553e8ba4eb2ad7c91a1710d769",
          "topics": [
            "0x4afcb4a87cdbd9974efdb92ee48bc8d7cd0ae4bf217004db3d080cbaee652ca7"
          ],
          "data": "0x000000000000000000000000000000000000000000000000000000006786c30c00000000000000000000000000000000000000000000000000038f5b22c3cd600000000000000000000000000000000000000000000000000de0b6b3a7640000",
          "blockHash": "0xea60c86cd638cf6a27228888bd98cb87ddf2a0f9b3f34afde3d1e2961bc77ef5",
          "blockNumber": "0x72516e",
          "transactionHash": "0x96dc5b857dd01699ba56eb2065919d554a407cd912ad3b18506813b84fb1506f",
          "transactionIndex": "0x52",
          "logIndex": "0xb9",
          "removed": false
        }
      ],
      "logsBloom": "0x00000000000000000000000000000000000000000000000000000000000000000000000000000000000000000000000020000000000000004000000000000000000000000000000000000008000000000000000000000000000000000000000000000000020000000000000000000800020000000000000000000010000000000000000000010000000000000000000000000000000000000000010000000000000000000000000000000000000000004000000000000000000000000000000000000002000000800000000000000000000000000000080000008000000020000000000000000000000000000000000000000000000000000000000000000000",
      "type": "0x2",
      "transactionHash": "0x96dc5b857dd01699ba56eb2065919d554a407cd912ad3b18506813b84fb1506f",
      "transactionIndex": "0x52",
      "blockHash": "0xea60c86cd638cf6a27228888bd98cb87ddf2a0f9b3f34afde3d1e2961bc77ef5",
      "blockNumber": "0x72516e",
      "gasUsed": "0x13af8",
      "effectiveGasPrice": "0x450a6d027",
      "from": "0xc77f7fed3b5cc8249adc428c5f44c9063b9734b4",
      "to": "0x270e88f8683660553e8ba4eb2ad7c91a1710d769",
      "contractAddress": null
    }
  ],
  "libraries": [],
  "pending": [],
  "returns": {},
  "timestamp": 1736885005,
  "chain": 11155111,
  "commit": "51a374b"
}