{
  "transactions": [
    {
      "hash": "0x5f529f0ea455a95d537b0e78012b27710f99a38ea402ca62ae7bf30819ca4eb9",
      "transactionType": "CALL",
      "contractName": null,
      "contractAddress": "0x8aafd3ede9adb0ff97c7aebce82a919afb1c8764",
      "function": "sell(uint256)",
      "arguments": [
        "178406742"
      ],
      "transaction": {
        "from": "0xc77f7fed3b5cc8249adc428c5f44c9063b9734b4",
        "to": "0x8aafd3ede9adb0ff97c7aebce82a919afb1c8764",
        "gas": "0x14e6c",
        "value": "0x0",
        "input": "0xe4849b32000000000000000000000000000000000000000000000000000000000aa24556",
        "nonce": "0x11ff",
        "chainId": "0xaa36a7"
      },
      "additionalContracts": [],
      "isFixedGasLimit": false
    }
  ],
  "receipts": [
    {
      "status": "0x1",
      "cumulativeGasUsed": "0xa9d2c7",
      "logs": [
        {
          "address": "0x8aafd3ede9adb0ff97c7aebce82a919afb1c8764",
          "topics": [
            "0xddf252ad1be2c89b69c2b068fc378daa952ba7f163c4a11628f55a4df523b3ef",
            "0x000000000000000000000000c77f7fed3b5cc8249adc428c5f44c9063b9734b4",
            "0x0000000000000000000000000000000000000000000000000000000000000000"
          ],
          "data": "0x000000000000000000000000000000000000000000000000000000000a8c7e21",
          "blockHash": "0x143edcc18f0db8bf500be7c8e7ad1cf9ed3a5f5a3109bc70bd6434b9e28af0c2",
          "blockNumber": "0x7318d9",
          "transactionHash": "0x5f529f0ea455a95d537b0e78012b27710f99a38ea402ca62ae7bf30819ca4eb9",
          "transactionIndex": "0x7e",
          "logIndex": "0x94",
          "removed": false
        },
        {
          "address": "0x8aafd3ede9adb0ff97c7aebce82a919afb1c8764",
          "topics": [
            "0xddf252ad1be2c89b69c2b068fc378daa952ba7f163c4a11628f55a4df523b3ef",
            "0x000000000000000000000000c77f7fed3b5cc8249adc428c5f44c9063b9734b4",
            "0x000000000000000000000000c77f7fed3b5cc8249adc428c5f44c9063b9734b4"
          ],
          "data": "0x000000000000000000000000000000000000000000000000000000000015c735",
          "blockHash": "0x143edcc18f0db8bf500be7c8e7ad1cf9ed3a5f5a3109bc70bd6434b9e28af0c2",
          "blockNumber": "0x7318d9",
          "transactionHash": "0x5f529f0ea455a95d537b0e78012b27710f99a38ea402ca62ae7bf30819ca4eb9",
          "transactionIndex": "0x7e",
          "logIndex": "0x95",
          "removed": false
        },
        {
          "address": "0x8aafd3ede9adb0ff97c7aebce82a919afb1c8764",
          "topics": [
            "0x4afcb4a87cdbd9974efdb92ee48bc8d7cd0ae4bf217004db3d080cbaee652ca7"
          ],
          "data": "0x00000000000000000000000000000000000000000000000000000000679026fc0000000000000000000000000000000000000000000000000005307a9a9eaa4e000000000000000000000000000000000000000000000000000000000003f9f2",
          "blockHash": "0x143edcc18f0db8bf500be7c8e7ad1cf9ed3a5f5a3109bc70bd6434b9e28af0c2",
          "blockNumber": "0x7318d9",
          "transactionHash": "0x5f529f0ea455a95d537b0e78012b27710f99a38ea402ca62ae7bf30819ca4eb9",
          "transactionIndex": "0x7e",
          "logIndex": "0x96",
          "removed": false
        }
      ],
      "logsBloom": "0x00000000000000000000000000000000000000000600000000000000000000000000000000000000000000000000000000000000000000004000000000000000000000000000004000000008000000000000000000000000000000000000000000000000020000000000000000000800020000000000000000000010000000000000000000000000000000000000000000000000000000000000010000000000000000000000000000000000000000004000000000000000000000000000000000000002000000800000000000000000000000000000080000000000000020000000000000000000000000000000000000000000000000000000000000000000",
      "type": "0x2",
      "transactionHash": "0x5f529f0ea455a95d537b0e78012b27710f99a38ea402ca62ae7bf30819ca4eb9",
      "transactionIndex": "0x7e",
      "blockHash": "0x143edcc18f0db8bf500be7c8e7ad1cf9ed3a5f5a3109bc70bd6434b9e28af0c2",
      "blockNumber": "0x7318d9",
      "gasUsed": "0xf21f",
      "effectiveGasPrice": "0x36f38c04",
      "from": "0xc77f7fed3b5cc8249adc428c5f44c9063b9734b4",
      "to": "0x8aafd3ede9adb0ff97c7aebce82a919afb1c8764",
      "contractAddress": null
    }
  ],
  "libraries": [],
  "pending": [],
  "returns": {},
  "timestamp": 1737500412,
  "chain": 11155111,
  "commit": "1d2fb70"
}