{
  "transactions": [
    {
      "hash": "0x6c2c97d0dc5ebfd215e43fb78f6e166b720def7b1c913bfc39a373be176f9c36",
      "transactionType": "CALL",
      "contractName": null,
      "contractAddress": "0x8aafd3ede9adb0ff97c7aebce82a919afb1c8764",
      "function": "sell(uint256)",
      "arguments": [
        "12421"
      ],
      "transaction": {
        "from": "0xc77f7fed3b5cc8249adc428c5f44c9063b9734b4",
        "to": "0x8aafd3ede9adb0ff97c7aebce82a919afb1c8764",
        "gas": "0x14e4c",
        "value": "0x0",
        "input": "0xe4849b320000000000000000000000000000000000000000000000000000000000003085",
        "nonce": "0xfbf",
        "chainId": "0xaa36a7"
      },
      "additionalContracts": [],
      "isFixedGasLimit": false
    }
  ],
  "receipts": [
    {
      "status": "0x1",
      "cumulativeGasUsed": "0xd78ecb",
      "logs": [
        {
          "address": "0x8aafd3ede9adb0ff97c7aebce82a919afb1c8764",
          "topics": [
            "0xddf252ad1be2c89b69c2b068fc378daa952ba7f163c4a11628f55a4df523b3ef",
            "0x000000000000000000000000c77f7fed3b5cc8249adc428c5f44c9063b9734b4",
            "0x0000000000000000000000000000000000000000000000000000000000000000"
          ],
          "data": "0x0000000000000000000000000000000000000000000000000000000000003022",
          "blockHash": "0xa4592ce3b39dfa103fc8bff6e1246175948d9e5a67622fc0da18e99c57821bb6",
          "blockNumber": "0x73162b",
          "transactionHash": "0x6c2c97d0dc5ebfd215e43fb78f6e166b720def7b1c913bfc39a373be176f9c36",
          "transactionIndex": "0x81",
          "logIndex": "0xa4",
          "removed": false
        },
        {
          "address": "0x8aafd3ede9adb0ff97c7aebce82a919afb1c8764",
          "topics": [
            "0xddf252ad1be2c89b69c2b068fc378daa952ba7f163c4a11628f55a4df523b3ef",
            "0x000000000000000000000000c77f7fed3b5cc8249adc428c5f44c9063b9734b4",
            "0x000000000000000000000000c77f7fed3b5cc8249adc428c5f44c9063b9734b4"
          ],
          "data": "0x0000000000000000000000000000000000000000000000000000000000000063",
          "blockHash": "0xa4592ce3b39dfa103fc8bff6e1246175948d9e5a67622fc0da18e99c57821bb6",
          "blockNumber": "0x73162b",
          "transactionHash": "0x6c2c97d0dc5ebfd215e43fb78f6e166b720def7b1c913bfc39a373be176f9c36",
          "transactionIndex": "0x81",
          "logIndex": "0xa5",
          "removed": false
        },
        {
          "address": "0x8aafd3ede9adb0ff97c7aebce82a919afb1c8764",
          "topics": [
            "0x4afcb4a87cdbd9974efdb92ee48bc8d7cd0ae4bf217004db3d080cbaee652ca7"
          ],
          "data": "0x00000000000000000000000000000000000000000000000000000000679006b00000000000000000000000000000000000000000000000000004c42316747ebe0000000000000000000000000000000000000000000000000000000000000010",
          "blockHash": "0xa4592ce3b39dfa103fc8bff6e1246175948d9e5a67622fc0da18e99c57821bb6",
          "blockNumber": "0x73162b",
          "transactionHash": "0x6c2c97d0dc5ebfd215e43fb78f6e166b720def7b1c913bfc39a373be176f9c36",
          "transactionIndex": "0x81",
          "logIndex": "0xa6",
          "removed": false
        }
      ],
      "logsBloom": "0x00000000000000000000000000000000000000000600000000000000000000000000000000000000000000000000000000000000000000004000000000000000000000000000004000000008000000000000000000000000000000000000000000000000020000000000000000000800020000000000000000000010000000000000000000000000000000000000000000000000000000000000010000000000000000000000000000000000000000004000000000000000000000000000000000000002000000800000000000000000000000000000080000000000000020000000000000000000000000000000000000000000000000000000000000000000",
      "type": "0x2",
      "transactionHash": "0x6c2c97d0dc5ebfd215e43fb78f6e166b720def7b1c913bfc39a373be176f9c36",
      "transactionIndex": "0x81",
      "blockHash": "0xa4592ce3b39dfa103fc8bff6e1246175948d9e5a67622fc0da18e99c57821bb6",
      "blockNumber": "0x73162b",
      "gasUsed": "0xf207",
      "effectiveGasPrice": "0x639f4e07",
      "from": "0xc77f7fed3b5cc8249adc428c5f44c9063b9734b4",
      "to": "0x8aafd3ede9adb0ff97c7aebce82a919afb1c8764",
      "contractAddress": null
    }
  ],
  "libraries": [],
  "pending": [],
  "returns": {},
  "timestamp": 1737492145,
  "chain": 11155111,
  "commit": "1d2fb70"
}