{
  "transactions": [
    {
      "hash": "0xeb6b5706a599b65fab08b1d3b7a01fecfb89ddeaaaa128e108c3b57274d4ace2",
      "transactionType": "CALL",
      "contractName": null,
      "contractAddress": "0x270e88f8683660553e8ba4eb2ad7c91a1710d769",
      "function": "sell(uint256)",
      "arguments": [
        "718210493602154877852"
      ],
      "transaction": {
        "from": "0xc77f7fed3b5cc8249adc428c5f44c9063b9734b4",
        "to": "0x270e88f8683660553e8ba4eb2ad7c91a1710d769",
        "gas": "0x16fec",
        "value": "0x0",
        "input": "0xe4849b32000000000000000000000000000000000000000000000026ef2c3eb05a67139c",
        "nonce": "0x838",
        "chainId": "0xaa36a7"
      },
      "additionalContracts": [],
      "isFixedGasLimit": false
    }
  ],
  "receipts": [
    {
      "status": "0x1",
      "cumulativeGasUsed": "0x8c8b8b",
      "logs": [
        {
          "address": "0x270e88f8683660553e8ba4eb2ad7c91a1710d769",
          "topics": [
            "0xddf252ad1be2c89b69c2b068fc378daa952ba7f163c4a11628f55a4df523b3ef",
            "0x000000000000000000000000c77f7fed3b5cc8249adc428c5f44c9063b9734b4",
            "0x0000000000000000000000000000000000000000000000000000000000000000"
          ],
          "data": "0x000000000000000000000000000000000000000000000026ef2c3eb05a67139c",
          "blockHash": "0xf93637ea1074932a0765a3fde44089397c39cab56ecfce8b81e576d848266068",
          "blockNumber": "0x725584",
          "transactionHash": "0xeb6b5706a599b65fab08b1d3b7a01fecfb89ddeaaaa128e108c3b57274d4ace2",
          "transactionIndex": "0x5b",
          "logIndex": "0x7d",
          "removed": false
        },
        {
          "address": "0x270e88f8683660553e8ba4eb2ad7c91a1710d769",
          "topics": [
            "0x4afcb4a87cdbd9974efdb92ee48bc8d7cd0ae4bf217004db3d080cbaee652ca7"
          ],
          "data": "0x000000000000000000000000000000000000000000000000000000006786f4380000000000000000000000000000000000000000000000000004e9c453c0e7020000000000000000000000000000000000000000000000000dc8263e77c488a4",
          "blockHash": "0xf93637ea1074932a0765a3fde44089397c39cab56ecfce8b81e576d848266068",
          "blockNumber": "0x725584",
          "transactionHash": "0xeb6b5706a599b65fab08b1d3b7a01fecfb89ddeaaaa128e108c3b57274d4ace2",
          "transactionIndex": "0x5b",
          "logIndex": "0x7e",
          "removed": false
        }
      ],
      "logsBloom": "0x00000000000000000000000000000000000000000000000000000000000000000000000000000000000000000000000020000000000000004000000000000000000000000000000000000008000000000000000000000000000000000000000000000000020000000000000000000800020000000000000000000010000000000000000000010000000000000000000000000000000000000000010000000000000000000000000000000000000000004000000000000000000000000000000000000002000000800000000000000000000000000000080000008000000020000000000000000000000000000000000000000000000000000000000000000000",
      "type": "0x2",
      "transactionHash": "0xeb6b5706a599b65fab08b1d3b7a01fecfb89ddeaaaa128e108c3b57274d4ace2",
      "transactionIndex": "0x5b",
      "blockHash": "0xf93637ea1074932a0765a3fde44089397c39cab56ecfce8b81e576d848266068",
      "blockNumber": "0x725584",
      "gasUsed": "0xfb93",
      "effectiveGasPrice": "0x7370c86d",
      "from": "0xc77f7fed3b5cc8249adc428c5f44c9063b9734b4",
      "to": "0x270e88f8683660553e8ba4eb2ad7c91a1710d769",
      "contractAddress": null
    }
  ],
  "libraries": [],
  "pending": [],
  "returns": {},
  "timestamp": 1736897593,
  "chain": 11155111,
  "commit": "51a374b"
}