{
  "transactions": [
    {
      "hash": "0xbb1618973b2d3ffec302ebd91c2057f5513edad9af4f674d5cb2bea9fda41aef",
      "transactionType": "CALL",
      "contractName": null,
      "contractAddress": "0xbf4a322f1496e5c3d34a9bcdb4c60567b38c7de2",
      "function": "sell(uint256)",
      "arguments": [
        "980523195527215588977"
      ],
      "transaction": {
        "from": "0xc77f7fed3b5cc8249adc428c5f44c9063b9734b4",
        "to": "0xbf4a322f1496e5c3d34a9bcdb4c60567b38c7de2",
        "gas": "0x16fea",
        "value": "0x0",
        "input": "0xe4849b32000000000000000000000000000000000000000000000035277e2b4c26922671",
        "nonce": "0xbf1",
        "chainId": "0xaa36a7"
      },
      "additionalContracts": [],
      "isFixedGasLimit": false
    }
  ],
  "receipts": [
    {
      "status": "0x1",
      "cumulativeGasUsed": "0x95f1a8",
      "logs": [
        {
          "address": "0xbf4a322f1496e5c3d34a9bcdb4c60567b38c7de2",
          "topics": [
            "0xddf252ad1be2c89b69c2b068fc378daa952ba7f163c4a11628f55a4df523b3ef",
            "0x000000000000000000000000c77f7fed3b5cc8249adc428c5f44c9063b9734b4",
            "0x0000000000000000000000000000000000000000000000000000000000000000"
          ],
          "data": "0x000000000000000000000000000000000000000000000035277e2b4c26922671",
          "blockHash": "0x7db3ff6fdb470f52f9e86067e0bd3e5c5b73e39f9f03dcc4c3e7faf684b80470",
          "blockNumber": "0x725c18",
          "transactionHash": "0xbb1618973b2d3ffec302ebd91c2057f5513edad9af4f674d5cb2bea9fda41aef",
          "transactionIndex": "0x3b",
          "logIndex": "0x65",
          "removed": false
        },
        {
          "address": "0xbf4a322f1496e5c3d34a9bcdb4c60567b38c7de2",
          "topics": [
            "0x4afcb4a87cdbd9974efdb92ee48bc8d7cd0ae4bf217004db3d080cbaee652ca7"
          ],
          "data": "0x000000000000000000000000000000000000000000000000000000006787437c0000000000000000000000000000000000000000000000000003991881dcfdce0000000000000000000000000000000000000000000000000dc7e3e348634de8",
          "blockHash": "0x7db3ff6fdb470f52f9e86067e0bd3e5c5b73e39f9f03dcc4c3e7faf684b80470",
          "blockNumber": "0x725c18",
          "transactionHash": "0xbb1618973b2d3ffec302ebd91c2057f5513edad9af4f674d5cb2bea9fda41aef",
          "transactionIndex": "0x3b",
          "logIndex": "0x66",
          "removed": false
        }
      ],
      "logsBloom": "0x00000000000000000000000000000000000000000000000000000000000000000000000000000000000000000000000000000000000000004000000000000000000000000000000000000008000000000000001000000000000000000000000000000000020000000000000000000800020000000000000000000010000000000000000000000000000000000000000000000000000008000000010000000000000000000000000000000000000000004000000000000000000000000000000000000002000000800000000000001000000000000000080000000000000020000000000000000000000000000000000000000000000000000000000000000000",
      "type": "0x2",
      "transactionHash": "0xbb1618973b2d3ffec302ebd91c2057f5513edad9af4f674d5cb2bea9fda41aef",
      "transactionIndex": "0x3b",
      "blockHash": "0x7db3ff6fdb470f52f9e86067e0bd3e5c5b73e39f9f03dcc4c3e7faf684b80470",
      "blockNumber": "0x725c18",
      "gasUsed": "0xfb91",
      "effectiveGasPrice": "0xdc14732e",
      "from": "0xc77f7fed3b5cc8249adc428c5f44c9063b9734b4",
      "to": "0xbf4a322f1496e5c3d34a9bcdb4c60567b38c7de2",
      "contractAddress": null
    }
  ],
  "libraries": [],
  "pending": [],
  "returns": {},
  "timestamp": 1736917884,
  "chain": 11155111,
  "commit": "51a374b"
}