{
  "transactions": [
    {
      "hash": "0xa8aceaa70883ed829b4699f1e2ce229d5d0f283a5498d317385a8c26bea6d1ff",
      "transactionType": "CALL",
      "contractName": null,
      "contractAddress": "0xbf4a322f1496e5c3d34a9bcdb4c60567b38c7de2",
      "function": "sell(uint256)",
      "arguments": [
        "988081007840849619191"
      ],
      "transaction": {
        "from": "0xc77f7fed3b5cc8249adc428c5f44c9063b9734b4",
        "to": "0xbf4a322f1496e5c3d34a9bcdb4c60567b38c7de2",
        "gas": "0x16fea",
        "value": "0x0",
        "input": "0xe4849b320000000000000000000000000000000000000000000000359060e98dbfcce8f7",
        "nonce": "0x9c3",
        "chainId": "0xaa36a7"
      },
      "additionalContracts": [],
      "isFixedGasLimit": false
    }
  ],
  "receipts": [
    {
      "status": "0x1",
      "cumulativeGasUsed": "0x19aba29",
      "logs": [
        {
          "address": "0xbf4a322f1496e5c3d34a9bcdb4c60567b38c7de2",
          "topics": [
            "0xddf252ad1be2c89b69c2b068fc378daa952ba7f163c4a11628f55a4df523b3ef",
            "0x000000000000000000000000c77f7fed3b5cc8249adc428c5f44c9063b9734b4",
            "0x0000000000000000000000000000000000000000000000000000000000000000"
          ],
          "data": "0x0000000000000000000000000000000000000000000000359060e98dbfcce8f7",
          "blockHash": "0x72a36cfa4c9d7af9605e72c172c2a29952e075ec6e50a74199e3bb67d84ede58",
          "blockNumber": "0x72596f",
          "transactionHash": "0xa8aceaa70883ed829b4699f1e2ce229d5d0f283a5498d317385a8c26bea6d1ff",
          "transactionIndex": "0xa9",
          "logIndex": "0xee",
          "removed": false
        },
        {
          "address": "0xbf4a322f1496e5c3d34a9bcdb4c60567b38c7de2",
          "topics": [
            "0x4afcb4a87cdbd9974efdb92ee48bc8d7cd0ae4bf217004db3d080cbaee652ca7"
          ],
          "data": "0x000000000000000000000000000000000000000000000000000000006787236c0000000000000000000000000000000000000000000000000003920cec58c3870000000000000000000000000000000000000000000000000dc7e3f4dacdcfad",
          "blockHash": "0x72a36cfa4c9d7af9605e72c172c2a29952e075ec6e50a74199e3bb67d84ede58",
          "blockNumber": "0x72596f",
          "transactionHash": "0xa8aceaa70883ed829b4699f1e2ce229d5d0f283a5498d317385a8c26bea6d1ff",
          "transactionIndex": "0xa9",
          "logIndex": "0xef",
          "removed": false
        }
      ],
      "logsBloom": "0x00000000000000000000000000000000000000000000000000000000000000000000000000000000000000000000000000000000000000004000000000000000000000000000000000000008000000000000001000000000000000000000000000000000020000000000000000000800020000000000000000000010000000000000000000000000000000000000000000000000000008000000010000000000000000000000000000000000000000004000000000000000000000000000000000000002000000800000000000001000000000000000080000000000000020000000000000000000000000000000000000000000000000000000000000000000",
      "type": "0x2",
      "transactionHash": "0xa8aceaa70883ed829b4699f1e2ce229d5d0f283a5498d317385a8c26bea6d1ff",
      "transactionIndex": "0xa9",
      "blockHash": "0x72a36cfa4c9d7af9605e72c172c2a29952e075ec6e50a74199e3bb67d84ede58",
      "blockNumber": "0x72596f",
      "gasUsed": "0xfb91",
      "effectiveGasPrice": "0x2b3d67cf7",
      "from": "0xc77f7fed3b5cc8249adc428c5f44c9063b9734b4",
      "to": "0xbf4a322f1496e5c3d34a9bcdb4c60567b38c7de2",
      "contractAddress": null
    }
  ],
  "libraries": [],
  "pending": [],
  "returns": {},
  "timestamp": 1736909677,
  "chain": 11155111,
  "commit": "51a374b"
}