{
  "transactions": [
    {
      "hash": "0xc77f46cbec8bf88ac57f04a383c288652a661fc00b5a7d45245543ac18cb714d",
      "transactionType": "CALL",
      "contractName": null,
      "contractAddress": "0x270e88f8683660553e8ba4eb2ad7c91a1710d769",
      "function": "buy(address)",
      "arguments": [
        "0xC77f7fed3b5Cc8249aDc428c5F44C9063B9734b4"
      ],
      "transaction": {
        "from": "0xc77f7fed3b5cc8249adc428c5f44c9063b9734b4",
        "to": "0x270e88f8683660553e8ba4eb2ad7c91a1710d769",
        "gas": "0x1b30c",
        "value": "0xde0b6b3a7640000",
        "input": "0xf088d547000000000000000000000000c77f7fed3b5cc8249adc428c5f44c9063b9734b4",
        "nonce": "0x853",
        "chainId": "0xaa36a7"
      },
      "additionalContracts": [],
      "isFixedGasLimit": false
    }
  ],
  "receipts": [
    {
      "status": "0x1",
      "cumulativeGasUsed": "0x13d2921",
      "logs": [
        {
          "address": "0x270e88f8683660553e8ba4eb2ad7c91a1710d769",
          "topics": [
            "0xddf252ad1be2c89b69c2b068fc378daa952ba7f163c4a11628f55a4df523b3ef",
            "0x0000000000000000000000000000000000000000000000000000000000000000",
            "0x000000000000000000000000c77f7fed3b5cc8249adc428c5f44c9063b9734b4"
          ],
          "data": "0x000000000000000000000000000000000000000000000026b0b90a285b4e9186",
          "blockHash": "0x287a6713ea9ff1a6d818834778b08006ba3c1904da3ed6bcee34f564321d8ab7",
          "blockNumber": "0x7255a4",
          "transactionHash": "0xc77f46cbec8bf88ac57f04a383c288652a661fc00b5a7d45245543ac18cb714d",
          "transactionIndex": "0x79",
          "logIndex": "0x15f",
          "removed": false
        },
        {
          "address": "0x270e88f8683660553e8ba4eb2ad7c91a1710d769",
          "topics": [
            "0xddf252ad1be2c89b69c2b068fc378daa952ba7f163c4a11628f55a4df523b3ef",
            "0x0000000000000000000000000000000000000000000000000000000000000000",
            "0x000000000000000000000000c77f7fed3b5cc8249adc428c5f44c9063b9734b4"
          ],
          "data": "0x0000000000000000000000000000000000000000000000001e0b5ae899e80e9a",
          "blockHash": "0x287a6713ea9ff1a6d818834778b08006ba3c1904da3ed6bcee34f564321d8ab7",
          "blockNumber": "0x7255a4",
          "transactionHash": "0xc77f46cbec8bf88ac57f04a383c288652a661fc00b5a7d45245543ac18cb714d",
          "transactionIndex": "0x79",
          "logIndex": "0x160",
          "removed": false
        },
        {
          "address": "0x270e88f8683660553e8ba4eb2ad7c91a1710d769",
          "topics": [
            "0x4afcb4a87cdbd9974efdb92ee48bc8d7cd0ae4bf217004db3d080cbaee652ca7"
          ],
          "data": "0x000000000000000000000000000000000000000000000000000000006786f5b80000000000000000000000000000000000000000000000000004edae3038a57e0000000000000000000000000000000000000000000000000de0b6b3a7640000",
          "blockHash": "0x287a6713ea9ff1a6d818834778b08006ba3c1904da3ed6bcee34f564321d8ab7",
          "blockNumber": "0x7255a4",
          "transactionHash": "0xc77f46cbec8bf88ac57f04a383c288652a661fc00b5a7d45245543ac18cb714d",
          "transactionIndex": "0x79",
          "logIndex": "0x161",
          "removed": false
        }
      ],
      "logsBloom": "0x00000000000000000000000000000000000000000000000000000000000000000000000000000000000000000000000020000000000000004000000000000000000000000000000000000008000000000000000000000000000000000000000000000000020000000000000000000800020000000000000000000010000000000000000000010000000000000000000000000000000000000000010000000000000000000000000000000000000000004000000000000000000000000000000000000002000000800000000000000000000000000000080000008000000020000000000000000000000000000000000000000000000000000000000000000000",
      "type": "0x2",
      "transactionHash": "0xc77f46cbec8bf88ac57f04a383c288652a661fc00b5a7d45245543ac18cb714d",
      "transactionIndex": "0x79",
      "blockHash": "0x287a6713ea9ff1a6d818834778b08006ba3c1904da3ed6bcee34f564321d8ab7",
      "blockNumber": "0x7255a4",
      "gasUsed": "0x13af8",
      "effectiveGasPrice": "0x5c1113be",
      "from": "0xc77f7fed3b5cc8249adc428c5f44c9063b9734b4",
      "to": "0x270e88f8683660553e8ba4eb2ad7c91a1710d769",
      "contractAddress": null
    }
  ],
  "libraries": [],
  "pending": [],
  "returns": {},
  "timestamp": 1736897977,
  "chain": 11155111,
  "commit": "51a374b"
}