{
  "transactions": [
    {
      "hash": "0x13d5223b795dcdb6463327504fdef3c59bd8801872fbc32c728780f51f8b430b",
      "transactionType": "CALL",
      "contractName": null,
      "contractAddress": "0x5eb9cc76c3506942c1c0ead70e877dd5e4f00cb0",
      "function": "buy(address)",
      "arguments": [
        "0xC77f7fed3b5Cc8249aDc428c5F44C9063B9734b4"
      ],
      "transaction": {
        "from": "0xc77f7fed3b5cc8249adc428c5f44c9063b9734b4",
        "to": "0x5eb9cc76c3506942c1c0ead70e877dd5e4f00cb0",
        "gas": "0x1b30c",
        "value": "0xde0b6b3a7640000",
        "input": "0xf088d547000000000000000000000000c77f7fed3b5cc8249adc428c5f44c9063b9734b4",
        "nonce": "0x320",
        "chainId": "0xaa36a7"
      },
      "additionalContracts": [],
      "isFixedGasLimit": false
    }
  ],
  "receipts": [
    {
      "status": "0x1",
      "cumulativeGasUsed": "0x13bb628",
      "logs": [
        {
          "address": "0x5eb9cc76c3506942c1c0ead70e877dd5e4f00cb0",
          "topics": [
            "0xddf252ad1be2c89b69c2b068fc378daa952ba7f163c4a11628f55a4df523b3ef",
            "0x0000000000000000000000000000000000000000000000000000000000000000",
            "0x000000000000000000000000c77f7fed3b5cc8249adc428c5f44c9063b9734b4"
          ],
          "data": "0x0000000000000000000000000000000000000000000000357580a7f59e27c988",
          "blockHash": "0xfc9f4effe1546e9a6126a13a3edd8a9af901b7e1603788a532cecd2743863c0c",
          "blockNumber": "0x724f06",
          "transactionHash": "0x13d5223b795dcdb6463327504fdef3c59bd8801872fbc32c728780f51f8b430b",
          "transactionIndex": "0x6b",
          "logIndex": "0x7c",
          "removed": false
        },
        {
          "address": "0x5eb9cc76c3506942c1c0ead70e877dd5e4f00cb0",
          "topics": [
            "0xddf252ad1be2c89b69c2b068fc378daa952ba7f163c4a11628f55a4df523b3ef",
            "0x0000000000000000000000000000000000000000000000000000000000000000",
            "0x000000000000000000000000c77f7fed3b5cc8249adc428c5f44c9063b9734b4"
          ],
          "data": "0x00000000000000000000000000000000000000000000000029834271eac88b4c",
          "blockHash": "0xfc9f4effe1546e9a6126a13a3edd8a9af901b7e1603788a532cecd2743863c0c",
          "blockNumber": "0x724f06",
          "transactionHash": "0x13d5223b795dcdb6463327504fdef3c59bd8801872fbc32c728780f51f8b430b",
          "transactionIndex": "0x6b",
          "logIndex": "0x7d",
          "removed": false
        },
        {
          "address": "0x5eb9cc76c3506942c1c0ead70e877dd5e4f00cb0",
          "topics": [
            "0x4afcb4a87cdbd9974efdb92ee48bc8d7cd0ae4bf217004db3d080cbaee652ca7"
          ],
          "data": "0x000000000000000000000000000000000000000000000000000000006786a5fc0000000000000000000000000000000000000000000000000003910cfd0c12910000000000000000000000000000000000000000000000000de0b6b3a7640000",
          "blockHash": "0xfc9f4effe1546e9a6126a13a3edd8a9af901b7e1603788a532cecd2743863c0c",
          "blockNumber": "0x724f06",
          "transactionHash": "0x13d5223b795dcdb6463327504fdef3c59bd8801872fbc32c728780f51f8b430b",
          "transactionIndex": "0x6b",
          "logIndex": "0x7e",
          "removed": false
        }
      ],
      "logsBloom": "0x00000000000000000000000000000000000000000000000000000000000000000000000000000000000000000000000000000000000000004000000000000000000000000000000000000008000000000000000000000000000000000000000000000000020000000000000004000800020000000000000000000010000000000000000000000000000000000000000000000000000000000000010000000000000000000000000000000000000000004000000000000000000000000000020000000002000000800000008000000000000000000000080000000000000020000000000000000000000000000000000000000000000000000000000000000000",
      "type": "0x2",
      "transactionHash": "0x13d5223b795dcdb6463327504fdef3c59bd8801872fbc32c728780f51f8b430b",
      "transactionIndex": "0x6b",
      "blockHash": "0xfc9f4effe1546e9a6126a13a3edd8a9af901b7e1603788a532cecd2743863c0c",
      "blockNumber": "0x724f06",
      "gasUsed": "0x13af8",
      "effectiveGasPrice": "0x668a3043a",
      "from": "0xc77f7fed3b5cc8249adc428c5f44c9063b9734b4",
      "to": "0x5eb9cc76c3506942c1c0ead70e877dd5e4f00cb0",
      "contractAddress": null
    }
  ],
  "libraries": [],
  "pending": [],
  "returns": {},
  "timestamp": 1736877565,
  "chain": 11155111,
  "commit": "51a374b"
}