{
  "transactions": [
    {
      "hash": "0x3daf298c8c1d5f3bc2c736ffff857bbbf770823510db9b31900896229dae1223",
      "transactionType": "CALL",
      "contractName": null,
      "contractAddress": "0xbf4a322f1496e5c3d34a9bcdb4c60567b38c7de2",
      "function": "sell(uint256)",
      "arguments": [
        "974564975986435675955"
      ],
      "transaction": {
        "from": "0xc77f7fed3b5cc8249adc428c5f44c9063b9734b4",
        "to": "0xbf4a322f1496e5c3d34a9bcdb4c60567b38c7de2",
        "gas": "0x16fea",
        "value": "0x0",
        "input": "0xe4849b32000000000000000000000000000000000000000000000034d4ce52317097d733",
        "nonce": "0xdaf",
        "chainId": "0xaa36a7"
      },
      "additionalContracts": [],
      "isFixedGasLimit": false
    }
  ],
  "receipts": [
    {
      "status": "0x1",
      "cumulativeGasUsed": "0xdff3ef",
      "logs": [
        {
          "address": "0xbf4a322f1496e5c3d34a9bcdb4c60567b38c7de2",
          "topics": [
            "0xddf252ad1be2c89b69c2b068fc378daa952ba7f163c4a11628f55a4df523b3ef",
            "0x000000000000000000000000c77f7fed3b5cc8249adc428c5f44c9063b9734b4",
            "0x0000000000000000000000000000000000000000000000000000000000000000"
          ],
          "data": "0x000000000000000000000000000000000000000000000034d4ce52317097d733",
          "blockHash": "0xac8f603e1a60448445b2927413c93a8ab04971781451c1f47a6fe2a1cf85c83c",
          "blockNumber": "0x726685",
          "transactionHash": "0x3daf298c8c1d5f3bc2c736ffff857bbbf770823510db9b31900896229dae1223",
          "transactionIndex": "0x71",
          "logIndex": "0xc5",
          "removed": false
        },
        {
          "address": "0xbf4a322f1496e5c3d34a9bcdb4c60567b38c7de2",
          "topics": [
            "0x4afcb4a87cdbd9974efdb92ee48bc8d7cd0ae4bf217004db3d080cbaee652ca7"
          ],
          "data": "0x000000000000000000000000000000000000000000000000000000006787c11c00000000000000000000000000000000000000000000000000039eba1629c54a0000000000000000000000000000000000000000000000000dc7e3d56dfb76ca",
          "blockHash": "0xac8f603e1a60448445b2927413c93a8ab04971781451c1f47a6fe2a1cf85c83c",
          "blockNumber": "0x726685",
          "transactionHash": "0x3daf298c8c1d5f3bc2c736ffff857bbbf770823510db9b31900896229dae1223",
          "transactionIndex": "0x71",
          "logIndex": "0xc6",
          "removed": false
        }
      ],
      "logsBloom": "0x00000000000000000000000000000000000000000000000000000000000000000000000000000000000000000000000000000000000000004000000000000000000000000000000000000008000000000000001000000000000000000000000000000000020000000000000000000800020000000000000000000010000000000000000000000000000000000000000000000000000008000000010000000000000000000000000000000000000000004000000000000000000000000000000000000002000000800000000000001000000000000000080000000000000020000000000000000000000000000000000000000000000000000000000000000000",
      "type": "0x2",
      "transactionHash": "0x3daf298c8c1d5f3bc2c736ffff857bbbf770823510db9b31900896229dae1223",
      "transactionIndex": "0x71",
      "blockHash": "0xac8f603e1a60448445b2927413c93a8ab04971781451c1f47a6fe2a1cf85c83c",
      "blockNumber": "0x726685",
      "gasUsed": "0xfb91",
      "effectiveGasPrice": "0x8c3eb9e3",
      "from": "0xc77f7fed3b5cc8249adc428c5f44c9063b9734b4",
      "to": "0xbf4a322f1496e5c3d34a9bcdb4c60567b38c7de2",
      "contractAddress": null
    }
  ],
  "libraries": [],
  "pending": [],
  "returns": {},
  "timestamp": 1736950046,
  "chain": 11155111,
  "commit": "51a374b"
}