{
  "transactions": [
    {
      "hash": "0xbaf45cde9072e6eaaf5abfec26dc4022d0e21b27b6265bc7b2b233efe48bc82b",
      "transactionType": "CALL",
      "contractName": null,
      "contractAddress": "0x8aafd3ede9adb0ff97c7aebce82a919afb1c8764",
      "function": "buy(address)",
      "arguments": [
        "0xC77f7fed3b5Cc8249aDc428c5F44C9063B9734b4"
      ],
      "transaction": {
        "from": "0xc77f7fed3b5cc8249adc428c5f44c9063b9734b4",
        "to": "0x8aafd3ede9adb0ff97c7aebce82a919afb1c8764",
        "gas": "0x156ea",
        "value": "0xde0b6b3a7640000",
        "input": "0xf088d547000000000000000000000000c77f7fed3b5cc8249adc428c5f44c9063b9734b4",
        "nonce": "0x10d6",
        "chainId": "0xaa36a7"
      },
      "additionalContracts": [],
      "isFixedGasLimit": false
    }
  ],
  "receipts": [
    {
      "status": "0x1",
      "cumulativeGasUsed": "0xdb06e8",
      "logs": [
        {
          "address": "0x8aafd3ede9adb0ff97c7aebce82a919afb1c8764",
          "topics": [
            "0xddf252ad1be2c89b69c2b068fc378daa952ba7f163c4a11628f55a4df523b3ef",
            "0x0000000000000000000000000000000000000000000000000000000000000000",
            "0x000000000000000000000000c77f7fed3b5cc8249adc428c5f44c9063b9734b4"
          ],
          "data": "0x000000000000000000000000000000000000000000000025fcf3883d5127baf0",
          "blockHash": "0x4050fbd4b0aaa6e7b37314497468bbab84917e5edf9b52ca6fb818080df5a33f",
          "blockNumber": "0x731776",
          "transactionHash": "0xbaf45cde9072e6eaaf5abfec26dc4022d0e21b27b6265bc7b2b233efe48bc82b",
          "transactionIndex": "0x94",
          "logIndex": "0xd6",
          "removed": false
        },
        {
          "address": "0x8aafd3ede9adb0ff97c7aebce82a919afb1c8764",
          "topics": [
            "0xddf252ad1be2c89b69c2b068fc378daa952ba7f163c4a11628f55a4df523b3ef",
            "0x0000000000000000000000000000000000000000000000000000000000000000",
            "0x000000000000000000000000c77f7fed3b5cc8249adc428c5f44c9063b9734b4"
          ],
          "data": "0x0000000000000000000000000000000000000000000000001d7fc1a363e21d80",
          "blockHash": "0x4050fbd4b0aaa6e7b37314497468bbab84917e5edf9b52ca6fb818080df5a33f",
          "blockNumber": "0x731776",
          "transactionHash": "0xbaf45cde9072e6eaaf5abfec26dc4022d0e21b27b6265bc7b2b233efe48bc82b",
          "transactionIndex": "0x94",
          "logIndex": "0xd7",
          "removed": false
        },
        {
          "address": "0x8aafd3ede9adb0ff97c7aebce82a919afb1c8764",
          "topics": [
            "0x4afcb4a87cdbd9974efdb92ee48bc8d7cd0ae4bf217004db3d080cbaee652ca7"
          ],
          "data": "0x000000000000000000000000000000000000000000000000000000006790164c0000000000000000000000000000000000000000000000000005054e59bdf1f10000000000000000000000000000000000000000000000000de0b6b3a7640000",
          "blockHash": "0x4050fbd4b0aaa6e7b37314497468bbab84917e5edf9b52ca6fb818080df5a33f",
          "blockNumber": "0x731776",
          "transactionHash": "0xbaf45cde9072e6eaaf5abfec26dc4022d0e21b27b6265bc7b2b233efe48bc82b",
          "transactionIndex": "0x94",
          "logIndex": "0xd8",
          "removed": false
        }
      ],
      "logsBloom": "0x00000000000000000000000000000000000000000600000000000000000000000000000000000000000000000000000000000000000000004000000000000000000000000000004000000008000000000000000000000000000000000000000000000000020000000000000000000800020000000000000000000010000000000000000000000000000000000000000000000000000000000000010000000000000000000000000000000000000000004000000000000000000000000000000000000002000000800000000000000000000000000000080000000000000020000000000000000000000000000000000000000000000000000000000000000000",
      "type": "0x2",
      "transactionHash": "0xbaf45cde9072e6eaaf5abfec26dc4022d0e21b27b6265bc7b2b233efe48bc82b",
      "transactionIndex": "0x94",
      "blockHash": "0x4050fbd4b0aaa6e7b37314497468bbab84917e5edf9b52ca6fb818080df5a33f",
      "blockNumber": "0x731776",
      "gasUsed": "0xf844",
      "effectiveGasPrice": "0x420c4f24",
      "from": "0xc77f7fed3b5cc8249adc428c5f44c9063b9734b4",
      "to": "0x8aafd3ede9adb0ff97c7aebce82a919afb1c8764",
      "contractAddress": null
    }
  ],
  "libraries": [],
  "pending": [],
  "returns": {},
  "timestamp": 1737496142,
  "chain": 11155111,
  "commit": "1d2fb70"
}