{
  "transactions": [
    {
      "hash": "0x6c15a43fdc308551983e91a4a6739726b66deac3eecd2fdb056083f7f6d60513",
      "transactionType": "CALL",
      "contractName": null,
      "contractAddress": "0xbf4a322f1496e5c3d34a9bcdb4c60567b38c7de2",
      "function": "buy(address)",
      "arguments": [
        "0xC77f7fed3b5Cc8249aDc428c5F44C9063B9734b4"
      ],
      "transaction": {
        "from": "0xc77f7fed3b5cc8249adc428c5f44c9063b9734b4",
        "to": "0xbf4a322f1496e5c3d34a9bcdb4c60567b38c7de2",
        "gas": "0x1b309",
        "value": "0xde0b6b3a7640000",
        "input": "0xf088d547000000000000000000000000c77f7fed3b5cc8249adc428c5f44c9063b9734b4",
        "nonce": "0xa86",
        "chainId": "0xaa36a7"
      },
      "additionalContracts": [],
      "isFixedGasLimit": false
    }
  ],
  "receipts": [
    {
      "status": "0x1",
      "cumulativeGasUsed": "0x108a498",
      "logs": [
        {
          "address": "0xbf4a322f1496e5c3d34a9bcdb4c60567b38c7de2",
          "topics": [
            "0xddf252ad1be2c89b69c2b068fc378daa952ba7f163c4a11628f55a4df523b3ef",
            "0x0000000000000000000000000000000000000000000000000000000000000000",
            "0x000000000000000000000000c77f7fed3b5cc8249adc428c5f44c9063b9734b4"
          ],
          "data": "0x00000000000000000000000000000000000000000000003541ff2ea3f47ac428",
          "blockHash": "0xb9257f3c1d9ca41c30f3c8cd90c13efe0652fd8977f5606db89b00b18bdc6b1e",
          "blockNumber": "0x725a67",
          "transactionHash": "0x6c15a43fdc308551983e91a4a6739726b66deac3eecd2fdb056083f7f6d60513",
          "transactionIndex": "0x89",
          "logIndex": "0x10e",
          "removed": false
        },
        {
          "address": "0xbf4a322f1496e5c3d34a9bcdb4c60567b38c7de2",
          "topics": [
            "0xddf252ad1be2c89b69c2b068fc378daa952ba7f163c4a11628f55a4df523b3ef",
            "0x0000000000000000000000000000000000000000000000000000000000000000",
            "0x000000000000000000000000c77f7fed3b5cc8249adc428c5f44c9063b9734b4"
          ],
          "data": "0x000000000000000000000000000000000000000000000000295b43798923ca44",
          "blockHash": "0xb9257f3c1d9ca41c30f3c8cd90c13efe0652fd8977f5606db89b00b18bdc6b1e",
          "blockNumber": "0x725a67",
          "transactionHash": "0x6c15a43fdc308551983e91a4a6739726b66deac3eecd2fdb056083f7f6d60513",
          "transactionIndex": "0x89",
          "logIndex": "0x10f",
          "removed": false
        },
        {
          "address": "0xbf4a322f1496e5c3d34a9bcdb4c60567b38c7de2",
          "topics": [
            "0x4afcb4a87cdbd9974efdb92ee48bc8d7cd0ae4bf217004db3d080cbaee652ca7"
          ],
          "data": "0x0000000000000000000000000000000000000000000000000000000067872f24000000000000000000000000000000000000000000000000000394824da0eb290000000000000000000000000000000000000000000000000de0b6b3a7640000",
          "blockHash": "0xb9257f3c1d9ca41c30f3c8cd90c13efe0652fd8977f5606db89b00b18bdc6b1e",
          "blockNumber": "0x725a67",
          "transactionHash": "0x6c15a43fdc308551983e91a4a6739726b66deac3eecd2fdb056083f7f6d60513",
          "transactionIndex": "0x89",
          "logIndex": "0x110",
          "removed": false
        }
      ],
      "logsBloom": "0x00000000000000000000000000000000000000000000000000000000000000000000000000000000000000000000000000000000000000004000000000000000000000000000000000000008000000000000001000000000000000000000000000000000020000000000000000000800020000000000000000000010000000000000000000000000000000000000000000000000000008000000010000000000000000000000000000000000000000004000000000000000000000000000000000000002000000800000000000001000000000000000080000000000000020000000000000000000000000000000000000000000000000000000000000000000",
      "type": "0x2",
      "transactionHash": "0x6c15a43fdc308551983e91a4a6739726b66deac3eecd2fdb056083f7f6d60513",
      "transactionIndex": "0x89",
      "blockHash": "0xb9257f3c1d9ca41c30f3c8cd90c13efe0652fd8977f5606db89b00b18bdc6b1e",
      "blockNumber": "0x725a67",
      "gasUsed": "0x13af6",
      "effectiveGasPrice": "0x281a9fb90",
      "from": "0xc77f7fed3b5cc8249adc428c5f44c9063b9734b4",
      "to": "0xbf4a322f1496e5c3d34a9bcdb4c60567b38c7de2",
      "contractAddress": null
    }
  ],
  "libraries": [],
  "pending": [],
  "returns": {},
  "timestamp": 1736912677,
  "chain": 11155111,
  "commit": "51a374b"
}