{
  "transactions": [
    {
      "hash": "0x7ee8045254cf7583b038dea7cecb1dcd53975ae594b6b10656e326ad5f4a2312",
      "transactionType": "CALL",
      "contractName": null,
      "contractAddress": "0x270e88f8683660553e8ba4eb2ad7c91a1710d769",
      "function": "buy(address)",
      "arguments": [
        "0xC77f7fed3b5Cc8249aDc428c5F44C9063B9734b4"
      ],
      "transaction": {
        "from": "0xc77f7fed3b5cc8249adc428c5f44c9063b9734b4",
        "to": "0x270e88f8683660553e8ba4eb2ad7c91a1710d769",
        "gas": "0x1b30c",
        "value": "0xde0b6b3a7640000",
        "input": "0xf088d547000000000000000000000000c77f7fed3b5cc8249adc428c5f44c9063b9734b4",
        "nonce": "0x7db",
        "chainId": "0xaa36a7"
      },
      "additionalContracts": [],
      "isFixedGasLimit": false
    }
  ],
  "receipts": [
    {
      "status": "0x1",
      "cumulativeGasUsed": "0x69a79c",
      "logs": [
        {
          "address": "0x270e88f8683660553e8ba4eb2ad7c91a1710d769",
          "topics": [
            "0xddf252ad1be2c89b69c2b068fc378daa952ba7f163c4a11628f55a4df523b3ef",
            "0x0000000000000000000000000000000000000000000000000000000000000000",
            "0x000000000000000000000000c77f7fed3b5cc8249adc428c5f44c9063b9734b4"
          ],
          "data": "0x0000000000000000000000000000000000000000000000273cae5aa5686e6aed",
          "blockHash": "0xc0e30edcf6bf903df01f808c818bc5cf4aaebe855f76b519a7e64b231cbb7e2e",
          "blockNumber": "0x725514",
          "transactionHash": "0x7ee8045254cf7583b038dea7cecb1dcd53975ae594b6b10656e326ad5f4a2312",
          "transactionIndex": "0x43",
          "logIndex": "0x60",
          "removed": false
        },
        {
          "address": "0x270e88f8683660553e8ba4eb2ad7c91a1710d769",
          "topics": [
            "0xddf252ad1be2c89b69c2b068fc378daa952ba7f163c4a11628f55a4df523b3ef",
            "0x0000000000000000000000000000000000000000000000000000000000000000",
            "0x000000000000000000000000c77f7fed3b5cc8249adc428c5f44c9063b9734b4"
          ],
          "data": "0x0000000000000000000000000000000000000000000000001e780997e7105ad6",
          "blockHash": "0xc0e30edcf6bf903df01f808c818bc5cf4aaebe855f76b519a7e64b231cbb7e2e",
          "blockNumber": "0x725514",
          "transactionHash": "0x7ee8045254cf7583b038dea7cecb1dcd53975ae594b6b10656e326ad5f4a2312",
          "transactionIndex": "0x43",
          "logIndex": "0x61",
          "removed": false
        },
        {
          "address": "0x270e88f8683660553e8ba4eb2ad7c91a1710d769",
          "topics": [
            "0x4afcb4a87cdbd9974efdb92ee48bc8d7cd0ae4bf217004db3d080cbaee652ca7"
          ],
          "data": "0x000000000000000000000000000000000000000000000000000000006786eef80000000000000000000000000000000000000000000000000004dc1a26cf0ee90000000000000000000000000000000000000000000000000de0b6b3a7640000",
          "blockHash": "0xc0e30edcf6bf903df01f808c818bc5cf4aaebe855f76b519a7e64b231cbb7e2e",
          "blockNumber": "0x725514",
          "transactionHash": "0x7ee8045254cf7583b038dea7cecb1dcd53975ae594b6b10656e326ad5f4a2312",
          "transactionIndex": "0x43",
          "logIndex": "0x62",
          "removed": false
        }
      ],
      "logsBloom": "0x00000000000000000000000000000000000000000000000000000000000000000000000000000000000000000000000020000000000000004000000000000000000000000000000000000008000000000000000000000000000000000000000000000000020000000000000000000800020000000000000000000010000000000000000000010000000000000000000000000000000000000000010000000000000000000000000000000000000000004000000000000000000000000000000000000002000000800000000000000000000000000000080000008000000020000000000000000000000000000000000000000000000000000000000000000000",
      "type": "0x2",
      "transactionHash": "0x7ee8045254cf7583b038dea7cecb1dcd53975ae594b6b10656e326ad5f4a2312",
      "transactionIndex": "0x43",
      "blockHash": "0xc0e30edcf6bf903df01f808c818bc5cf4aaebe855f76b519a7e64b231cbb7e2e",
      "blockNumber": "0x725514",
      "gasUsed": "0x13af8",
      "effectiveGasPrice": "0xc31bfd9c",
      "from": "0xc77f7fed3b5cc8249adc428c5f44c9063b9734b4",
      "to": "0x270e88f8683660553e8ba4eb2ad7c91a1710d769",
      "contractAddress": null
    }
  ],
  "libraries": [],
  "pending": [],
  "returns": {},
  "timestamp": 1736896249,
  "chain": 11155111,
  "commit": "51a374b"
}