{
  "transactions": [
    {
      "hash": "0x901dfe57270729985058b2a6a6911576aa22cd501b8b92d122be75d8ac441cbd",
      "transactionType": "CALL",
      "contractName": null,
      "contractAddress": "0xbf4a322f1496e5c3d34a9bcdb4c60567b38c7de2",
      "function": "sell(uint256)",
      "arguments": [
        "977414791809518813028"
      ],
      "transaction": {
        "from": "0xc77f7fed3b5cc8249adc428c5f44c9063b9734b4",
        "to": "0xbf4a322f1496e5c3d34a9bcdb4c60567b38c7de2",
        "gas": "0x16fea",
        "value": "0x0",
        "input": "0xe4849b32000000000000000000000000000000000000000000000034fc5ae695d2c03f64",
        "nonce": "0xcd9",
        "chainId": "0xaa36a7"
      },
      "additionalContracts": [],
      "isFixedGasLimit": false
    }
  ],
  "receipts": [
    {
      "status": "0x1",
      "cumulativeGasUsed": "0x603dd8",
      "logs": [
        {
          "address": "0xbf4a322f1496e5c3d34a9bcdb4c60567b38c7de2",
          "topics": [
            "0xddf252ad1be2c89b69c2b068fc378daa952ba7f163c4a11628f55a4df523b3ef",
            "0x000000000000000000000000c77f7fed3b5cc8249adc428c5f44c9063b9734b4",
            "0x0000000000000000000000000000000000000000000000000000000000000000"
          ],
          "data": "0x000000000000000000000000000000000000000000000034fc5ae695d2c03f64",
          "blockHash": "0x5e4df0470ec1993b8b0fc3d5f28d5f526e6cf7d430e3c7cbbcdb07db100bf9f1",
          "blockNumber": "0x725d2a",
          "transactionHash": "0x901dfe57270729985058b2a6a6911576aa22cd501b8b92d122be75d8ac441cbd",
          "transactionIndex": "0x41",
          "logIndex": "0x63",
          "removed": false
        },
        {
          "address": "0xbf4a322f1496e5c3d34a9bcdb4c60567b38c7de2",
          "topics": [
            "0x4afcb4a87cdbd9974efdb92ee48bc8d7cd0ae4bf217004db3d080cbaee652ca7"
          ],
          "data": "0x000000000000000000000000000000000000000000000000000000006787506c00000000000000000000000000000000000000000000000000039c0662f4bdf70000000000000000000000000000000000000000000000000dc7e3dc0e3c3b5b",
          "blockHash": "0x5e4df0470ec1993b8b0fc3d5f28d5f526e6cf7d430e3c7cbbcdb07db100bf9f1",
          "blockNumber": "0x725d2a",
          "transactionHash": "0x901dfe57270729985058b2a6a6911576aa22cd501b8b92d122be75d8ac441cbd",
          "transactionIndex": "0x41",
          "logIndex": "0x64",
          "removed": false
        }
      ],
      "logsBloom": "0x00000000000000000000000000000000000000000000000000000000000000000000000000000000000000000000000000000000000000004000000000000000000000000000000000000008000000000000001000000000000000000000000000000000020000000000000000000800020000000000000000000010000000000000000000000000000000000000000000000000000008000000010000000000000000000000000000000000000000004000000000000000000000000000000000000002000000800000000000001000000000000000080000000000000020000000000000000000000000000000000000000000000000000000000000000000",
      "type": "0x2",
      "transactionHash": "0x901dfe57270729985058b2a6a6911576aa22cd501b8b92d122be75d8ac441cbd",
      "transactionIndex": "0x41",
      "blockHash": "0x5e4df0470ec1993b8b0fc3d5f28d5f526e6cf7d430e3c7cbbcdb07db100bf9f1",
      "blockNumber": "0x725d2a",
      "gasUsed": "0xfb91",
      "effectiveGasPrice": "0x60200d815",
      "from": "0xc77f7fed3b5cc8249adc428c5f44c9063b9734b4",
      "to": "0xbf4a322f1496e5c3d34a9bcdb4c60567b38c7de2",
      "contractAddress": null
    }
  ],
  "libraries": [],
  "pending": [],
  "returns": {},
  "timestamp": 1736921198,
  "chain": 11155111,
  "commit": "51a374b"
}