{
  "transactions": [
    {
      "hash": "0xb1a31ce8a0e211b6ce550f1c7f61a4c4c9f848ff224a1902a2296942cd170c70",
      "transactionType": "CALL",
      "contractName": null,
      "contractAddress": "0xd7bc75898e513accccf720a874d44dab5a4b6223",
      "function": "sell(uint256)",
      "arguments": [
        "9929992357339115557"
      ],
      "transaction": {
        "from": "0xc77f7fed3b5cc8249adc428c5f44c9063b9734b4",
        "to": "0xd7bc75898e513accccf720a874d44dab5a4b6223",
        "gas": "0x15b6b",
        "value": "0x0",
        "input": "0xe4849b3200000000000000000000000000000000000000000000000089ce6b70098ab025",
        "nonce": "0xc1",
        "chainId": "0xaa36a7"
      },
      "additionalContracts": [],
      "isFixedGasLimit": false
    }
  ],
  "receipts": [
    {
      "status": "0x1",
      "cumulativeGasUsed": "0x7ac673",
      "logs": [
        {
          "address": "0xd7bc75898e513accccf720a874d44dab5a4b6223",
          "topics": [
            "0xddf252ad1be2c89b69c2b068fc378daa952ba7f163c4a11628f55a4df523b3ef",
            "0x000000000000000000000000c77f7fed3b5cc8249adc428c5f44c9063b9734b4",
            "0x0000000000000000000000000000000000000000000000000000000000000000"
          ],
          "data": "0x00000000000000000000000000000000000000000000000089ce6b70098ab025",
          "blockHash": "0x05a26710b6bfed83a8a0afbf5b81e7a036557740d7657f8183d3165e48bf4c78",
          "blockNumber": "0x72393e",
          "transactionHash": "0xb1a31ce8a0e211b6ce550f1c7f61a4c4c9f848ff224a1902a2296942cd170c70",
          "transactionIndex": "0x35",
          "logIndex": "0x41",
          "removed": false
        },
        {
          "address": "0xd7bc75898e513accccf720a874d44dab5a4b6223",
          "topics": [
            "0x4afcb4a87cdbd9974efdb92ee48bc8d7cd0ae4bf217004db3d080cbaee652ca7"
          ],
          "data": "0x000000000000000000000000000000000000000000000000000000006785a03000000000000000000000000000000000000000000000000000038d7f871913c20000000000000000000000000000000000000000000000000023474f493d2798",
          "blockHash": "0x05a26710b6bfed83a8a0afbf5b81e7a036557740d7657f8183d3165e48bf4c78",
          "blockNumber": "0x72393e",
          "transactionHash": "0xb1a31ce8a0e211b6ce550f1c7f61a4c4c9f848ff224a1902a2296942cd170c70",
          "transactionIndex": "0x35",
          "logIndex": "0x42",
          "removed": false
        }
      ],
      "logsBloom": "0x00000000000000000000000000000000000000000000000000000000000000000000000000000000000000000000000000000000000000004000000000000000000000000000000000000008000000000000000000000000000000000000000000000000020000000000000000000800020000000000000000000010000000000000000000000000000000000000000000000000000000000000010000000000000000000000000000000000000000004000001000000000000000000000000000000002000000800000000000004000000000000000080000000000000020000000000000000000000000000000000000000000080000000000000000000000",
      "type": "0x2",
      "transactionHash": "0xb1a31ce8a0e211b6ce550f1c7f61a4c4c9f848ff224a1902a2296942cd170c70",
      "transactionIndex": "0x35",
      "blockHash": "0x05a26710b6bfed83a8a0afbf5b81e7a036557740d7657f8183d3165e48bf4c78",
      "blockNumber": "0x72393e",
      "gasUsed": "0xfb87",
      "effectiveGasPrice": "0x1d6bc75e",
      "from": "0xc77f7fed3b5cc8249adc428c5f44c9063b9734b4",
      "to": "0xd7bc75898e513accccf720a874d44dab5a4b6223",
      "contractAddress": null
    }
  ],
  "libraries": [],
  "pending": [],
  "returns": {},
  "timestamp": 1736810545,
  "chain": 11155111,
  "commit": "51a374b"
}