{
  "transactions": [
    {
      "hash": "0x2923896937f54cc4f6b2aee83078b0a4f3ee206d3891a5b793ed32b5414ab872",
      "transactionType": "CALL",
      "contractName": null,
      "contractAddress": "0x8aafd3ede9adb0ff97c7aebce82a919afb1c8764",
      "function": "sell(uint256)",
      "arguments": [
        "1388071400930507379"
      ],
      "transaction": {
        "from": "0xc77f7fed3b5cc8249adc428c5f44c9063b9734b4",
        "to": "0x8aafd3ede9adb0ff97c7aebce82a919afb1c8764",
        "gas": "0x15dca",
        "value": "0x0",
        "input": "0xe4849b3200000000000000000000000000000000000000000000000013436b95b7577a73",
        "nonce": "0x1620",
        "chainId": "0xaa36a7"
      },
      "additionalContracts": [],
      "isFixedGasLimit": false
    }
  ],
  "receipts": [
    {
      "status": "0x1",
      "cumulativeGasUsed": "0x664d0a",
      "logs": [
        {
          "address": "0x8aafd3ede9adb0ff97c7aebce82a919afb1c8764",
          "topics": [
            "0xddf252ad1be2c89b69c2b068fc378daa952ba7f163c4a11628f55a4df523b3ef",
            "0x000000000000000000000000c77f7fed3b5cc8249adc428c5f44c9063b9734b4",
            "0x0000000000000000000000000000000000000000000000000000000000000000"
          ],
          "data": "0x000000000000000000000000000000000000000000000000131bf80941239418",
          "blockHash": "0x55e1c0b8e3669a3ebb01df977bdf08c2934eb84f9f2f5706f8b0083b4be020a5",
          "blockNumber": "0x731db6",
          "transactionHash": "0x2923896937f54cc4f6b2aee83078b0a4f3ee206d3891a5b793ed32b5414ab872",
          "transactionIndex": "0x5a",
          "logIndex": "0x6a",
          "removed": false
        },
        {
          "address": "0x8aafd3ede9adb0ff97c7aebce82a919afb1c8764",
          "topics": [
            "0xddf252ad1be2c89b69c2b068fc378daa952ba7f163c4a11628f55a4df523b3ef",
            "0x000000000000000000000000c77f7fed3b5cc8249adc428c5f44c9063b9734b4",
            "0x000000000000000000000000c77f7fed3b5cc8249adc428c5f44c9063b9734b4"
          ],
          "data": "0x0000000000000000000000000000000000000000000000000027738c7633e65b",
          "blockHash": "0x55e1c0b8e3669a3ebb01df977bdf08c2934eb84f9f2f5706f8b0083b4be020a5",
          "blockNumber": "0x731db6",
          "transactionHash": "0x2923896937f54cc4f6b2aee83078b0a4f3ee206d3891a5b793ed32b5414ab872",
          "transactionIndex": "0x5a",
          "logIndex": "0x6b",
          "removed": false
        },
        {
          "address": "0x8aafd3ede9adb0ff97c7aebce82a919afb1c8764",
          "topics": [
            "0x4afcb4a87cdbd9974efdb92ee48bc8d7cd0ae4bf217004db3d080cbaee652ca7"
          ],
          "data": "0x000000000000000000000000000000000000000000000000000000006790617000000000000000000000000000000000000000000000000000146fe1450d2152000000000000000000000000000000000000000000000000001c5e0038035726",
          "blockHash": "0x55e1c0b8e3669a3ebb01df977bdf08c2934eb84f9f2f5706f8b0083b4be020a5",
          "blockNumber": "0x731db6",
          "transactionHash": "0x2923896937f54cc4f6b2aee83078b0a4f3ee206d3891a5b793ed32b5414ab872",
          "transactionIndex": "0x5a",
          "logIndex": "0x6c",
          "removed": false
        }
      ],
      "logsBloom": "0x00000000000000000000000000000000000000000600000000000000000000000000000000000000000000000000000000000000000000004000000000000000000000000000004000000008000000000000000000000000000000000000000000000000020000000000000000000800020000000000000000000010000000000000000000000000000000000000000000000000000000000000010000000000000000000000000000000000000000004000000000000000000000000000000000000002000000800000000000000000000000000000080000000000000020000000000000000000000000000000000000000000000000000000000000000000",
      "type": "0x2",
      "transactionHash": "0x2923896937f54cc4f6b2aee83078b0a4f3ee206d3891a5b793ed32b5414ab872",
      "transactionIndex": "0x5a",
      "blockHash": "0x55e1c0b8e3669a3ebb01df977bdf08c2934eb84f9f2f5706f8b0083b4be020a5",
      "blockNumber": "0x731db6",
      "gasUsed": "0xfd3f",
      "effectiveGasPrice": "0x617099e9",
      "from": "0xc77f7fed3b5cc8249adc428c5f44c9063b9734b4",
      "to": "0x8aafd3ede9adb0ff97c7aebce82a919afb1c8764",
      "contractAddress": null
    }
  ],
  "libraries": [],
  "pending": [],
  "returns": {},
  "timestamp": 1737515378,
  "chain": 11155111,
  "commit": "1d2fb70"
}