{
  "transactions": [
    {
      "hash": "0xdbde5efbdedcad07d913ec177d3f8ed626cfeb7c8887795881012001a8b5df23",
      "transactionType": "CALL",
      "contractName": null,
      "contractAddress": "0x8aafd3ede9adb0ff97c7aebce82a919afb1c8764",
      "function": "sell(uint256)",
      "arguments": [
        "42220339"
      ],
      "transaction": {
        "from": "0xc77f7fed3b5cc8249adc428c5f44c9063b9734b4",
        "to": "0x8aafd3ede9adb0ff97c7aebce82a919afb1c8764",
        "gas": "0x15d88",
        "value": "0x0",
        "input": "0xe4849b320000000000000000000000000000000000000000000000000000000002843b33",
        "nonce": "0x16ac",
        "chainId": "0xaa36a7"
      },
      "additionalContracts": [],
      "isFixedGasLimit": false
    }
  ],
  "receipts": [
    {
      "status": "0x1",
      "cumulativeGasUsed": "0x132ec24",
      "logs": [
        {
          "address": "0x8aafd3ede9adb0ff97c7aebce82a919afb1c8764",
          "topics": [
            "0xddf252ad1be2c89b69c2b068fc378daa952ba7f163c4a11628f55a4df523b3ef",
            "0x000000000000000000000000c77f7fed3b5cc8249adc428c5f44c9063b9734b4",
            "0x0000000000000000000000000000000000000000000000000000000000000000"
          ],
          "data": "0x00000000000000000000000000000000000000000000000000000000027f13d1",
          "blockHash": "0x57b15dad8f230c9efdd74c53c88c3dfbde19a0d1deac4d24e8049c901ac4b28f",
          "blockNumber": "0x731e65",
          "transactionHash": "0xdbde5efbdedcad07d913ec177d3f8ed626cfeb7c8887795881012001a8b5df23",
          "transactionIndex": "0x9a",
          "logIndex": "0x158",
          "removed": false
        },
        {
          "address": "0x8aafd3ede9adb0ff97c7aebce82a919afb1c8764",
          "topics": [
            "0xddf252ad1be2c89b69c2b068fc378daa952ba7f163c4a11628f55a4df523b3ef",
            "0x000000000000000000000000c77f7fed3b5cc8249adc428c5f44c9063b9734b4",
            "0x000000000000000000000000c77f7fed3b5cc8249adc428c5f44c9063b9734b4"
          ],
          "data": "0x0000000000000000000000000000000000000000000000000000000000052762",
          "blockHash": "0x57b15dad8f230c9efdd74c53c88c3dfbde19a0d1deac4d24e8049c901ac4b28f",
          "blockNumber": "0x731e65",
          "transactionHash": "0xdbde5efbdedcad07d913ec177d3f8ed626cfeb7c8887795881012001a8b5df23",
          "transactionIndex": "0x9a",
          "logIndex": "0x159",
          "removed": false
        },
        {
          "address": "0x8aafd3ede9adb0ff97c7aebce82a919afb1c8764",
          "topics": [
            "0x4afcb4a87cdbd9974efdb92ee48bc8d7cd0ae4bf217004db3d080cbaee652ca7"
          ],
          "data": "0x00000000000000000000000000000000000000000000000000000000679069a40000000000000000000000000000000000000000000000000016025e9e8e3603000000000000000000000000000000000000000000000000000000000003fdb5",
          "blockHash": "0x57b15dad8f230c9efdd74c53c88c3dfbde19a0d1deac4d24e8049c901ac4b28f",
          "blockNumber": "0x731e65",
          "transactionHash": "0xdbde5efbdedcad07d913ec177d3f8ed626cfeb7c8887795881012001a8b5df23",
          "transactionIndex": "0x9a",
          "logIndex": "0x15a",
          "removed": false
        }
      ],
      "logsBloom": "0x00000000000000000000000000000000000000000600000000000000000000000000000000000000000000000000000000000000000000004000000000000000000000000000004000000008000000000000000000000000000000000000000000000000020000000000000000000800020000000000000000000010000000000000000000000000000000000000000000000000000000000000010000000000000000000000000000000000000000004000000000000000000000000000000000000002000000800000000000000000000000000000080000000000000020000000000000000000000000000000000000000000000000000000000000000000",
      "type": "0x2",
      "transactionHash": "0xdbde5efbdedcad07d913ec177d3f8ed626cfeb7c8887795881012001a8b5df23",
      "transactionIndex": "0x9a",
      "blockHash": "0x57b15dad8f230c9efdd74c53c88c3dfbde19a0d1deac4d24e8049c901ac4b28f",
      "blockNumber": "0x731e65",
      "gasUsed": "0xfd0f",
      "effectiveGasPrice": "0x5f74bba4",
      "from": "0xc77f7fed3b5cc8249adc428c5f44c9063b9734b4",
      "to": "0x8aafd3ede9adb0ff97c7aebce82a919afb1c8764",
      "contractAddress": null
    }
  ],
  "libraries": [],
  "pending": [],
  "returns": {},
  "timestamp": 1737517477,
  "chain": 11155111,
  "commit": "1d2fb70"
}