{
  "transactions": [
    {
      "hash": "0xa677d2c7d53c9825acf0951e4f56e00781e3046ed839b29a885baad717592eff",
      "transactionType": "CALL",
      "contractName": null,
      "contractAddress": "0xbf4a322f1496e5c3d34a9bcdb4c60567b38c7de2",
      "function": "sell(uint256)",
      "arguments": [
        "984111553451321229860"
      ],
      "transaction": {
        "from": "0xc77f7fed3b5cc8249adc428c5f44c9063b9734b4",
        "to": "0xbf4a322f1496e5c3d34a9bcdb4c60567b38c7de2",
        "gas": "0x16fea",
        "value": "0x0",
        "input": "0xe4849b32000000000000000000000000000000000000000000000035594a93d147d88224",
        "nonce": "0xae7",
        "chainId": "0xaa36a7"
      },
      "additionalContracts": [],
      "isFixedGasLimit": false
    }
  ],
  "receipts": [
    {
      "status": "0x1",
      "cumulativeGasUsed": "0xc60dc5",
      "logs": [
        {
          "address": "0xbf4a322f1496e5c3d34a9bcdb4c60567b38c7de2",
          "topics": [
            "0xddf252ad1be2c89b69c2b068fc378daa952ba7f163c4a11628f55a4df523b3ef",
            "0x000000000000000000000000c77f7fed3b5cc8249adc428c5f44c9063b9734b4",
            "0x0000000000000000000000000000000000000000000000000000000000000000"
          ],
          "data": "0x000000000000000000000000000000000000000000000035594a93d147d88224",
          "blockHash": "0xc0bd71f5de4db1fc4d176dc758180b87e417145515b436612cb753f603eb4cda",
          "blockNumber": "0x725ada",
          "transactionHash": "0xa677d2c7d53c9825acf0951e4f56e00781e3046ed839b29a885baad717592eff",
          "transactionIndex": "0x95",
          "logIndex": "0xad",
          "removed": false
        },
        {
          "address": "0xbf4a322f1496e5c3d34a9bcdb4c60567b38c7de2",
          "topics": [
            "0x4afcb4a87cdbd9974efdb92ee48bc8d7cd0ae4bf217004db3d080cbaee652ca7"
          ],
          "data": "0x0000000000000000000000000000000000000000000000000000000067873488000000000000000000000000000000000000000000000000000395bcbbbe55540000000000000000000000000000000000000000000000000dc7e3eba0318e96",
          "blockHash": "0xc0bd71f5de4db1fc4d176dc758180b87e417145515b436612cb753f603eb4cda",
          "blockNumber": "0x725ada",
          "transactionHash": "0xa677d2c7d53c9825acf0951e4f56e00781e3046ed839b29a885baad717592eff",
          "transactionIndex": "0x95",
          "logIndex": "0xae",
          "removed": false
        }
      ],
      "logsBloom": "0x00000000000000000000000000000000000000000000000000000000000000000000000000000000000000000000000000000000000000004000000000000000000000000000000000000008000000000000001000000000000000000000000000000000020000000000000000000800020000000000000000000010000000000000000000000000000000000000000000000000000008000000010000000000000000000000000000000000000000004000000000000000000000000000000000000002000000800000000000001000000000000000080000000000000020000000000000000000000000000000000000000000000000000000000000000000",
      "type": "0x2",
      "transactionHash": "0xa677d2c7d53c9825acf0951e4f56e00781e3046ed839b29a885baad717592eff",
      "transactionIndex": "0x95",
      "blockHash": "0xc0bd71f5de4db1fc4d176dc758180b87e417145515b436612cb753f603eb4cda",
      "blockNumber": "0x725ada",
      "gasUsed": "0xfb91",
      "effectiveGasPrice": "0xaa0f3e91",
      "from": "0xc77f7fed3b5cc8249adc428c5f44c9063b9734b4",
      "to": "0xbf4a322f1496e5c3d34a9bcdb4c60567b38c7de2",
      "contractAddress": null
    }
  ],
  "libraries": [],
  "pending": [],
  "returns": {},
  "timestamp": 1736914056,
  "chain": 11155111,
  "commit": "51a374b"
}