{
  "transactions": [
    {
      "hash": "0x3830ec57ab3d99e3aaf323332b711746796847de0adc3e154e07a8a1eca20bf2",
      "transactionType": "CALL",
      "contractName": null,
      "contractAddress": "0x8aafd3ede9adb0ff97c7aebce82a919afb1c8764",
      "function": "sell(uint256)",
      "arguments": [
        "2879005585808"
      ],
      "transaction": {
        "from": "0xc77f7fed3b5cc8249adc428c5f44c9063b9734b4",
        "to": "0x8aafd3ede9adb0ff97c7aebce82a919afb1c8764",
        "gas": "0x15daa",
        "value": "0x0",
        "input": "0xe4849b320000000000000000000000000000000000000000000000000000029e521af190",
        "nonce": "0x10db",
        "chainId": "0xaa36a7"
      },
      "additionalContracts": [],
      "isFixedGasLimit": false
    }
  ],
  "receipts": [
    {
      "status": "0x1",
      "cumulativeGasUsed": "0xc35ae5",
      "logs": [
        {
          "address": "0x8aafd3ede9adb0ff97c7aebce82a919afb1c8764",
          "topics": [
            "0xddf252ad1be2c89b69c2b068fc378daa952ba7f163c4a11628f55a4df523b3ef",
            "0x000000000000000000000000c77f7fed3b5cc8249adc428c5f44c9063b9734b4",
            "0x0000000000000000000000000000000000000000000000000000000000000000"
          ],
          "data": "0x00000000000000000000000000000000000000000000000000000298f549d502",
          "blockHash": "0xc5f27aed9c4b345ad543c4e5d206959dc2efa104c33b216d0ff9a743d5950236",
          "blockNumber": "0x73177c",
          "transactionHash": "0x3830ec57ab3d99e3aaf323332b711746796847de0adc3e154e07a8a1eca20bf2",
          "transactionIndex": "0x8f",
          "logIndex": "0x96",
          "removed": false
        },
        {
          "address": "0x8aafd3ede9adb0ff97c7aebce82a919afb1c8764",
          "topics": [
            "0xddf252ad1be2c89b69c2b068fc378daa952ba7f163c4a11628f55a4df523b3ef",
            "0x000000000000000000000000c77f7fed3b5cc8249adc428c5f44c9063b9734b4",
            "0x000000000000000000000000c77f7fed3b5cc8249adc428c5f44c9063b9734b4"
          ],
          "data": "0x000000000000000000000000000000000000000000000000000000055cd11c8e",
          "blockHash": "0xc5f27aed9c4b345ad543c4e5d206959dc2efa104c33b216d0ff9a743d5950236",
          "blockNumber": "0x73177c",
          "transactionHash": "0x3830ec57ab3d99e3aaf323332b711746796847de0adc3e154e07a8a1eca20bf2",
          "transactionIndex": "0x8f",
          "logIndex": "0x97",
          "removed": false
        },
        {
          "address": "0x8aafd3ede9adb0ff97c7aebce82a919afb1c8764",
          "topics": [
            "0x4afcb4a87cdbd9974efdb92ee48bc8d7cd0ae4bf217004db3d080cbaee652ca7"
          ],
          "data": "0x0000000000000000000000000000000000000000000000000000000067901694000000000000000000000000000000000000000000000000000506595a48ec4800000000000000000000000000000000000000000000000000000000f2b4d7e2",
          "blockHash": "0xc5f27aed9c4b345ad543c4e5d206959dc2efa104c33b216d0ff9a743d5950236",
          "blockNumber": "0x73177c",
          "transactionHash": "0x3830ec57ab3d99e3aaf323332b711746796847de0adc3e154e07a8a1eca20bf2",
          "transactionIndex": "0x8f",
          "logIndex": "0x98",
          "removed": false
        }
      ],
      "logsBloom": "0x00000000000000000000000000000000000000000600000000000000000000000000000000000000000000000000000000000000000000004000000000000000000000000000004000000008000000000000000000000000000000000000000000000000020000000000000000000800020000000000000000000010000000000000000000000000000000000000000000000000000000000000010000000000000000000000000000000000000000004000000000000000000000000000000000000002000000800000000000000000000000000000080000000000000020000000000000000000000000000000000000000000000000000000000000000000",
      "type": "0x2",
      "transactionHash": "0x3830ec57ab3d99e3aaf323332b711746796847de0adc3e154e07a8a1eca20bf2",
      "transactionIndex": "0x8f",
      "blockHash": "0xc5f27aed9c4b345ad543c4e5d206959dc2efa104c33b216d0ff9a743d5950236",
      "blockNumber": "0x73177c",
      "gasUsed": "0xfd27",
      "effectiveGasPrice": "0x3eb444a9",
      "from": "0xc77f7fed3b5cc8249adc428c5f44c9063b9734b4",
      "to": "0x8aafd3ede9adb0ff97c7aebce82a919afb1c8764",
      "contractAddress": null
    }
  ],
  "libraries": [],
  "pending": [],
  "returns": {},
  "timestamp": 1737496213,
  "chain": 11155111,
  "commit": "1d2fb70"
}