{
  "transactions": [
    {
      "hash": "0x0a4d2f1a79da5192f0b3162fbfa58bd11fea680684c404d3ae948104cf1954bb",
      "transactionType": "CALL",
      "contractName": null,
      "contractAddress": "0x64cdad8b450b8a3c5447ae01e3ce4fec18e1adbb",
      "function": "leverage(uint256,uint256)",
      "arguments": [
        "10000000000000000000",
        "0"
      ],
      "transaction": {
        "from": "0xc77f7fed3b5cc8249adc428c5f44c9063b9734b4",
        "to": "0x64cdad8b450b8a3c5447ae01e3ce4fec18e1adbb",
        "gas": "0x5d93a",
        "value": "0x186cc6acd4b0000",
        "input": "0x5e96263c0000000000000000000000000000000000000000000000008ac7230489e800000000000000000000000000000000000000000000000000000000000000000000",
        "nonce": "0x181a",
        "chainId": "0xaa36a7"
      },
      "additionalContracts": [],
      "isFixedGasLimit": false
    }
  ],
  "receipts": [
    {
      "status": "0x1",
      "cumulativeGasUsed": "0xd270aa",
      "logs": [
        {
          "address": "0x64cdad8b450b8a3c5447ae01e3ce4fec18e1adbb",
          "topics": [
            "0xddf252ad1be2c89b69c2b068fc378daa952ba7f163c4a11628f55a4df523b3ef",
            "0x0000000000000000000000000000000000000000000000000000000000000000",
            "0x00000000000000000000000064cdad8b450b8a3c5447ae01e3ce4fec18e1adbb"
          ],
          "data": "0x00000000000000000000000000000000000000000000003da00392a2d8f35e70",
          "blockHash": "0x838a69af116720cb999185262befa271420b410d1238c027ae643e8bc063cdd6",
          "blockNumber": "0x734cd1",
          "transactionHash": "0x0a4d2f1a79da5192f0b3162fbfa58bd11fea680684c404d3ae948104cf1954bb",
          "transactionIndex": "0x73",
          "logIndex": "0x10c",
          "removed": false
        },
        {
          "address": "0x64cdad8b450b8a3c5447ae01e3ce4fec18e1adbb",
          "topics": [
            "0xddf252ad1be2c89b69c2b068fc378daa952ba7f163c4a11628f55a4df523b3ef",
            "0x0000000000000000000000000000000000000000000000000000000000000000",
            "0x000000000000000000000000c77f7fed3b5cc8249adc428c5f44c9063b9734b4"
          ],
          "data": "0x00000000000000000000000000000000000000000000000034a3cf7d4ecad105",
          "blockHash": "0x838a69af116720cb999185262befa271420b410d1238c027ae643e8bc063cdd6",
          "blockNumber": "0x734cd1",
          "transactionHash": "0x0a4d2f1a79da5192f0b3162fbfa58bd11fea680684c404d3ae948104cf1954bb",
          "transactionIndex": "0x73",
          "logIndex": "0x10d",
          "removed": false
        },
        {
          "address": "0x64cdad8b450b8a3c5447ae01e3ce4fec18e1adbb",
          "topics": [
            "0xaec00f5213a37254bc68a26b0685d1a5b2bf513e1e587c94c7df7f4a62b56c9c"
          ],
          "data": "0x00000000000000000000000000000000000000000000003da00392a2d8f35e7000000000000000000000000000000000000000000000000087e0f9931453c00000000000000000000000000000000000000000000000000087e0f9931453c00000000000000000000000000000000000000000000000003da00392a2d8f35e70",
          "blockHash": "0x838a69af116720cb999185262befa271420b410d1238c027ae643e8bc063cdd6",
          "blockNumber": "0x734cd1",
          "transactionHash": "0x0a4d2f1a79da5192f0b3162fbfa58bd11fea680684c404d3ae948104cf1954bb",
          "transactionIndex": "0x73",
          "logIndex": "0x10e",
          "removed": false
        },
        {
          "address": "0x64cdad8b450b8a3c5447ae01e3ce4fec18e1adbb",
          "topics": [
            "0x4afcb4a87cdbd9974efdb92ee48bc8d7cd0ae4bf217004db3d080cbaee652ca7"
          ],
          "data": "0x000000000000000000000000000000000000000000000000000000006792a710000000000000000000000000000000000000000000000000001ee89a998bbff70000000000000000000000000000000000000000000000008ac7230489e80000",
          "blockHash": "0x838a69af116720cb999185262befa271420b410d1238c027ae643e8bc063cdd6",
          "blockNumber": "0x734cd1",
          "transactionHash": "0x0a4d2f1a79da5192f0b3162fbfa58bd11fea680684c404d3ae948104cf1954bb",
          "transactionIndex": "0x73",
          "logIndex": "0x10f",
          "removed": false
        }
      ],
      "logsBloom": "0x00000000000000000000000000000000400000000000000000000000000000000000000000000000000000000000000000000000000000004000000000000000000000000000001000020008000000000000000000000000000000000000004000000000020000000000000000000840020000002000000000000010000000000000000000000000000000000000000000000000000000000000010000000000000000000000000000000400000000004000000000000000000000001100000000000002000000800000000000000000000000000000080000000000000020000000000000000000000000000000000000000000000000000000000000000000",
      "type": "0x2",
      "transactionHash": "0x0a4d2f1a79da5192f0b3162fbfa58bd11fea680684c404d3ae948104cf1954bb",
      "transactionIndex": "0x73",
      "blockHash": "0x838a69af116720cb999185262befa271420b410d1238c027ae643e8bc063cdd6",
      "blockNumber": "0x734cd1",
      "gasUsed": "0x43bf8",
      "effectiveGasPrice": "0x9bad9e77",
      "from": "0xc77f7fed3b5cc8249adc428c5f44c9063b9734b4",
      "to": "0x64cdad8b450b8a3c5447ae01e3ce4fec18e1adbb",
      "contractAddress": null
    }
  ],
  "libraries": [],
  "pending": [],
  "returns": {},
  "timestamp": 1737664273,
  "chain": 11155111,
  "commit": "f5162e9"
}