{
  "transactions": [
    {
      "hash": "0x3bc3d7c87f544d3020c69ec6500f96a342871a267e55f899e252bb4dd287abbb",
      "transactionType": "CALL",
      "contractName": null,
      "contractAddress": "0x270e88f8683660553e8ba4eb2ad7c91a1710d769",
      "function": "buy(address)",
      "arguments": [
        "0xC77f7fed3b5Cc8249aDc428c5F44C9063B9734b4"
      ],
      "transaction": {
        "from": "0xc77f7fed3b5cc8249adc428c5f44c9063b9734b4",
        "to": "0x270e88f8683660553e8ba4eb2ad7c91a1710d769",
        "gas": "0x1b30c",
        "value": "0xde0b6b3a7640000",
        "input": "0xf088d547000000000000000000000000c77f7fed3b5cc8249adc428c5f44c9063b9734b4",
        "nonce": "0x855",
        "chainId": "0xaa36a7"
      },
      "additionalContracts": [],
      "isFixedGasLimit": false
    }
  ],
  "receipts": [
    {
      "status": "0x1",
      "cumulativeGasUsed": "0xbf77ae",
      "logs": [
        {
          "address": "0x270e88f8683660553e8ba4eb2ad7c91a1710d769",
          "topics": [
            "0xddf252ad1be2c89b69c2b068fc378daa952ba7f163c4a11628f55a4df523b3ef",
            "0x0000000000000000000000000000000000000000000000000000000000000000",
            "0x000000000000000000000000c77f7fed3b5cc8249adc428c5f44c9063b9734b4"
          ],
          "data": "0x000000000000000000000000000000000000000000000026ae6c52f9ee1ecf08",
          "blockHash": "0x5e3eda5a7317abb171f8bff931ac59e196ab32658e05ed3a32142f41cb7ae110",
          "blockNumber": "0x7255a9",
          "transactionHash": "0x3bc3d7c87f544d3020c69ec6500f96a342871a267e55f899e252bb4dd287abbb",
          "transactionIndex": "0x50",
          "logIndex": "0x9b",
          "removed": false
        },
        {
          "address": "0x270e88f8683660553e8ba4eb2ad7c91a1710d769",
          "topics": [
            "0xddf252ad1be2c89b69c2b068fc378daa952ba7f163c4a11628f55a4df523b3ef",
            "0x0000000000000000000000000000000000000000000000000000000000000000",
            "0x000000000000000000000000c77f7fed3b5cc8249adc428c5f44c9063b9734b4"
          ],
          "data": "0x0000000000000000000000000000000000000000000000001e0991c03a673b93",
          "blockHash": "0x5e3eda5a7317abb171f8bff931ac59e196ab32658e05ed3a32142f41cb7ae110",
          "blockNumber": "0x7255a9",
          "transactionHash": "0x3bc3d7c87f544d3020c69ec6500f96a342871a267e55f899e252bb4dd287abbb",
          "transactionIndex": "0x50",
          "logIndex": "0x9c",
          "removed": false
        },
        {
          "address": "0x270e88f8683660553e8ba4eb2ad7c91a1710d769",
          "topics": [
            "0x4afcb4a87cdbd9974efdb92ee48bc8d7cd0ae4bf217004db3d080cbaee652ca7"
          ],
          "data": "0x000000000000000000000000000000000000000000000000000000006786f5f40000000000000000000000000000000000000000000000000004edf930f31c600000000000000000000000000000000000000000000000000de0b6b3a7640000",
          "blockHash": "0x5e3eda5a7317abb171f8bff931ac59e196ab32658e05ed3a32142f41cb7ae110",
          "blockNumber": "0x7255a9",
          "transactionHash": "0x3bc3d7c87f544d3020c69ec6500f96a342871a267e55f899e252bb4dd287abbb",
          "transactionIndex": "0x50",
          "logIndex": "0x9d",
          "removed": false
        }
      ],
      "logsBloom": "0x00000000000000000000000000000000000000000000000000000000000000000000000000000000000000000000000020000000000000004000000000000000000000000000000000000008000000000000000000000000000000000000000000000000020000000000000000000800020000000000000000000010000000000000000000010000000000000000000000000000000000000000010000000000000000000000000000000000000000004000000000000000000000000000000000000002000000800000000000000000000000000000080000008000000020000000000000000000000000000000000000000000000000000000000000000000",
      "type": "0x2",
      "transactionHash": "0x3bc3d7c87f544d3020c69ec6500f96a342871a267e55f899e252bb4dd287abbb",
      "transactionIndex": "0x50",
      "blockHash": "0x5e3eda5a7317abb171f8bff931ac59e196ab32658e05ed3a32142f41cb7ae110",
      "blockNumber": "0x7255a9",
      "gasUsed": "0x13af8",
      "effectiveGasPrice": "0x5f318689",
      "from": "0xc77f7fed3b5cc8249adc428c5f44c9063b9734b4",
      "to": "0x270e88f8683660553e8ba4eb2ad7c91a1710d769",
      "contractAddress": null
    }
  ],
  "libraries": [],
  "pending": [],
  "returns": {},
  "timestamp": 1736898036,
  "chain": 11155111,
  "commit": "51a374b"
}