{
  "transactions": [
    {
      "hash": "0x32762f05a53ece23b4f1e33a663fa0973bbea429f85ccfd6d0a119ce725f44a0",
      "transactionType": "CALL",
      "contractName": null,
      "contractAddress": "0x5eb9cc76c3506942c1c0ead70e877dd5e4f00cb0",
      "function": "sell(uint256)",
      "arguments": [
        "989123902656339752571"
      ],
      "transaction": {
        "from": "0xc77f7fed3b5cc8249adc428c5f44c9063b9734b4",
        "to": "0x5eb9cc76c3506942c1c0ead70e877dd5e4f00cb0",
        "gas": "0x16fec",
        "value": "0x0",
        "input": "0xe4849b320000000000000000000000000000000000000000000000359eda04dce72fb67b",
        "nonce": "0x36b",
        "chainId": "0xaa36a7"
      },
      "additionalContracts": [],
      "isFixedGasLimit": false
    }
  ],
  "receipts": [
    {
      "status": "0x1",
      "cumulativeGasUsed": "0x801cdb",
      "logs": [
        {
          "address": "0x5eb9cc76c3506942c1c0ead70e877dd5e4f00cb0",
          "topics": [
            "0xddf252ad1be2c89b69c2b068fc378daa952ba7f163c4a11628f55a4df523b3ef",
            "0x000000000000000000000000c77f7fed3b5cc8249adc428c5f44c9063b9734b4",
            "0x0000000000000000000000000000000000000000000000000000000000000000"
          ],
          "data": "0x0000000000000000000000000000000000000000000000359eda04dce72fb67b",
          "blockHash": "0x4fcf7eb5abbc3cceffe32fc2c82c74f3182871803c847d8881ba6b3e5a842827",
          "blockNumber": "0x724f61",
          "transactionHash": "0x32762f05a53ece23b4f1e33a663fa0973bbea429f85ccfd6d0a119ce725f44a0",
          "transactionIndex": "0x48",
          "logIndex": "0x55",
          "removed": false
        },
        {
          "address": "0x5eb9cc76c3506942c1c0ead70e877dd5e4f00cb0",
          "topics": [
            "0x4afcb4a87cdbd9974efdb92ee48bc8d7cd0ae4bf217004db3d080cbaee652ca7"
          ],
          "data": "0x000000000000000000000000000000000000000000000000000000006786aa400000000000000000000000000000000000000000000000000003910fd2cb5e540000000000000000000000000000000000000000000000000dc7db133211fade",
          "blockHash": "0x4fcf7eb5abbc3cceffe32fc2c82c74f3182871803c847d8881ba6b3e5a842827",
          "blockNumber": "0x724f61",
          "transactionHash": "0x32762f05a53ece23b4f1e33a663fa0973bbea429f85ccfd6d0a119ce725f44a0",
          "transactionIndex": "0x48",
          "logIndex": "0x56",
          "removed": false
        }
      ],
      "logsBloom": "0x00000000000000000000000000000000000000000000000000000000000000000000000000000000000000000000000000000000000000004000000000000000000000000000000000000008000000000000000000000000000000000000000000000000020000000000000004000800020000000000000000000010000000000000000000000000000000000000000000000000000000000000010000000000000000000000000000000000000000004000000000000000000000000000020000000002000000800000008000000000000000000000080000000000000020000000000000000000000000000000000000000000000000000000000000000000",
      "type": "0x2",
      "transactionHash": "0x32762f05a53ece23b4f1e33a663fa0973bbea429f85ccfd6d0a119ce725f44a0",
      "transactionIndex": "0x48",
      "blockHash": "0x4fcf7eb5abbc3cceffe32fc2c82c74f3182871803c847d8881ba6b3e5a842827",
      "blockNumber": "0x724f61",
      "gasUsed": "0xfb93",
      "effectiveGasPrice": "0x5bfe09139",
      "from": "0xc77f7fed3b5cc8249adc428c5f44c9063b9734b4",
      "to": "0x5eb9cc76c3506942c1c0ead70e877dd5e4f00cb0",
      "contractAddress": null
    }
  ],
  "libraries": [],
  "pending": [],
  "returns": {},
  "timestamp": 1736878658,
  "chain": 11155111,
  "commit": "51a374b"
}