{
  "transactions": [
    {
      "hash": "0x803df2553f317cf62afedc011735798bf11a5d08d4e8c08f83573800d9cf2e17",
      "transactionType": "CALL",
      "contractName": null,
      "contractAddress": "0x8aafd3ede9adb0ff97c7aebce82a919afb1c8764",
      "function": "sell(uint256)",
      "arguments": [
        "7795217558"
      ],
      "transaction": {
        "from": "0xc77f7fed3b5cc8249adc428c5f44c9063b9734b4",
        "to": "0x8aafd3ede9adb0ff97c7aebce82a919afb1c8764",
        "gas": "0x1722a",
        "value": "0x0",
        "input": "0xe4849b3200000000000000000000000000000000000000000000000000000001d0a19496",
        "nonce": "0x1447",
        "chainId": "0xaa36a7"
      },
      "additionalContracts": [],
      "isFixedGasLimit": false
    }
  ],
  "receipts": [
    {
      "status": "0x1",
      "cumulativeGasUsed": "0xaf8099",
      "logs": [
        {
          "address": "0x8aafd3ede9adb0ff97c7aebce82a919afb1c8764",
          "topics": [
            "0xddf252ad1be2c89b69c2b068fc378daa952ba7f163c4a11628f55a4df523b3ef",
            "0x000000000000000000000000c77f7fed3b5cc8249adc428c5f44c9063b9734b4",
            "0x0000000000000000000000000000000000000000000000000000000000000000"
          ],
          "data": "0x00000000000000000000000000000000000000000000000000000001ccea040a",
          "blockHash": "0xf71fd816ee1cff7a949515032c3ab425a35d88cd6e8ac94457cdbfdd21f37d17",
          "blockNumber": "0x731b8a",
          "transactionHash": "0x803df2553f317cf62afedc011735798bf11a5d08d4e8c08f83573800d9cf2e17",
          "transactionIndex": "0x61",
          "logIndex": "0x9b",
          "removed": false
        },
        {
          "address": "0x8aafd3ede9adb0ff97c7aebce82a919afb1c8764",
          "topics": [
            "0xddf252ad1be2c89b69c2b068fc378daa952ba7f163c4a11628f55a4df523b3ef",
            "0x000000000000000000000000c77f7fed3b5cc8249adc428c5f44c9063b9734b4",
            "0x000000000000000000000000c77f7fed3b5cc8249adc428c5f44c9063b9734b4"
          ],
          "data": "0x0000000000000000000000000000000000000000000000000000000003b7908c",
          "blockHash": "0xf71fd816ee1cff7a949515032c3ab425a35d88cd6e8ac94457cdbfdd21f37d17",
          "blockNumber": "0x731b8a",
          "transactionHash": "0x803df2553f317cf62afedc011735798bf11a5d08d4e8c08f83573800d9cf2e17",
          "transactionIndex": "0x61",
          "logIndex": "0x9c",
          "removed": false
        },
        {
          "address": "0x8aafd3ede9adb0ff97c7aebce82a919afb1c8764",
          "topics": [
            "0x4afcb4a87cdbd9974efdb92ee48bc8d7cd0ae4bf217004db3d080cbaee652ca7"
          ],
          "data": "0x0000000000000000000000000000000000000000000000000000000067904754000000000000000000000000000000000000000000000000000eeec08b647ae70000000000000000000000000000000000000000000000000000000001f3f285",
          "blockHash": "0xf71fd816ee1cff7a949515032c3ab425a35d88cd6e8ac94457cdbfdd21f37d17",
          "blockNumber": "0x731b8a",
          "transactionHash": "0x803df2553f317cf62afedc011735798bf11a5d08d4e8c08f83573800d9cf2e17",
          "transactionIndex": "0x61",
          "logIndex": "0x9d",
          "removed": false
        }
      ],
      "logsBloom": "0x00000000000000000000000000000000000000000600000000000000000000000000000000000000000000000000000000000000000000004000000000000000000000000000004000000008000000000000000000000000000000000000000000000000020000000000000000000800020000000000000000000010000000000000000000000000000000000000000000000000000000000000010000000000000000000000000000000000000000004000000000000000000000000000000000000002000000800000000000000000000000000000080000000000000020000000000000000000000000000000000000000000000000000000000000000000",
      "type": "0x2",
      "transactionHash": "0x803df2553f317cf62afedc011735798bf11a5d08d4e8c08f83573800d9cf2e17",
      "transactionIndex": "0x61",
      "blockHash": "0xf71fd816ee1cff7a949515032c3ab425a35d88cd6e8ac94457cdbfdd21f37d17",
      "blockNumber": "0x731b8a",
      "gasUsed": "0xfd1b",
      "effectiveGasPrice": "0x122896601",
      "from": "0xc77f7fed3b5cc8249adc428c5f44c9063b9734b4",
      "to": "0x8aafd3ede9adb0ff97c7aebce82a919afb1c8764",
      "contractAddress": null
    }
  ],
  "libraries": [],
  "pending": [],
  "returns": {},
  "timestamp": 1737508693,
  "chain": 11155111,
  "commit": "1d2fb70"
}