{
  "transactions": [
    {
      "hash": "0xc200b2c8476ed1e5eb15186c891115bdd76e83a0eb4f2eca56abddcf033e8e5a",
      "transactionType": "CALL",
      "contractName": null,
      "contractAddress": "0xbf4a322f1496e5c3d34a9bcdb4c60567b38c7de2",
      "function": "sell(uint256)",
      "arguments": [
        "979020122812133591873"
      ],
      "transaction": {
        "from": "0xc77f7fed3b5cc8249adc428c5f44c9063b9734b4",
        "to": "0xbf4a322f1496e5c3d34a9bcdb4c60567b38c7de2",
        "gas": "0x16fea",
        "value": "0x0",
        "input": "0xe4849b3200000000000000000000000000000000000000000000003512a22ea07086cb41",
        "nonce": "0xc61",
        "chainId": "0xaa36a7"
      },
      "additionalContracts": [],
      "isFixedGasLimit": false
    }
  ],
  "receipts": [
    {
      "status": "0x1",
      "cumulativeGasUsed": "0x688f05",
      "logs": [
        {
          "address": "0xbf4a322f1496e5c3d34a9bcdb4c60567b38c7de2",
          "topics": [
            "0xddf252ad1be2c89b69c2b068fc378daa952ba7f163c4a11628f55a4df523b3ef",
            "0x000000000000000000000000c77f7fed3b5cc8249adc428c5f44c9063b9734b4",
            "0x0000000000000000000000000000000000000000000000000000000000000000"
          ],
          "data": "0x00000000000000000000000000000000000000000000003512a22ea07086cb41",
          "blockHash": "0x3366be4c00bb80d51012ebc679eb54dc52087d5163b4b9472b1f72011994825d",
          "blockNumber": "0x725c9c",
          "transactionHash": "0xc200b2c8476ed1e5eb15186c891115bdd76e83a0eb4f2eca56abddcf033e8e5a",
          "transactionIndex": "0x3d",
          "logIndex": "0x55",
          "removed": false
        },
        {
          "address": "0xbf4a322f1496e5c3d34a9bcdb4c60567b38c7de2",
          "topics": [
            "0x4afcb4a87cdbd9974efdb92ee48bc8d7cd0ae4bf217004db3d080cbaee652ca7"
          ],
          "data": "0x00000000000000000000000000000000000000000000000000000000678749c400000000000000000000000000000000000000000000000000039a82848f50750000000000000000000000000000000000000000000000000dc7e3dfc9bf082f",
          "blockHash": "0x3366be4c00bb80d51012ebc679eb54dc52087d5163b4b9472b1f72011994825d",
          "blockNumber": "0x725c9c",
          "transactionHash": "0xc200b2c8476ed1e5eb15186c891115bdd76e83a0eb4f2eca56abddcf033e8e5a",
          "transactionIndex": "0x3d",
          "logIndex": "0x56",
          "removed": false
        }
      ],
      "logsBloom": "0x00000000000000000000000000000000000000000000000000000000000000000000000000000000000000000000000000000000000000004000000000000000000000000000000000000008000000000000001000000000000000000000000000000000020000000000000000000800020000000000000000000010000000000000000000000000000000000000000000000000000008000000010000000000000000000000000000000000000000004000000000000000000000000000000000000002000000800000000000001000000000000000080000000000000020000000000000000000000000000000000000000000000000000000000000000000",
      "type": "0x2",
      "transactionHash": "0xc200b2c8476ed1e5eb15186c891115bdd76e83a0eb4f2eca56abddcf033e8e5a",
      "transactionIndex": "0x3d",
      "blockHash": "0x3366be4c00bb80d51012ebc679eb54dc52087d5163b4b9472b1f72011994825d",
      "blockNumber": "0x725c9c",
      "gasUsed": "0xfb91",
      "effectiveGasPrice": "0x2663dee0f",
      "from": "0xc77f7fed3b5cc8249adc428c5f44c9063b9734b4",
      "to": "0xbf4a322f1496e5c3d34a9bcdb4c60567b38c7de2",
      "contractAddress": null
    }
  ],
  "libraries": [],
  "pending": [],
  "returns": {},
  "timestamp": 1736919494,
  "chain": 11155111,
  "commit": "51a374b"
}