{
  "transactions": [
    {
      "hash": "0xff6984db6765948d7ae0be0194e6db41136a80d230ade821bea0950216b7eca1",
      "transactionType": "CALL",
      "contractName": null,
      "contractAddress": "0xd7bc75898e513accccf720a874d44dab5a4b6223",
      "function": "buy(address)",
      "arguments": [
        "0xC77f7fed3b5Cc8249aDc428c5F44C9063B9734b4"
      ],
      "transaction": {
        "from": "0xc77f7fed3b5cc8249adc428c5f44c9063b9734b4",
        "to": "0xd7bc75898e513accccf720a874d44dab5a4b6223",
        "gas": "0x1b30c",
        "value": "0x16345785d8a0000",
        "input": "0xf088d547000000000000000000000000c77f7fed3b5cc8249adc428c5f44c9063b9734b4",
        "nonce": "0x83",
        "chainId": "0xaa36a7"
      },
      "additionalContracts": [],
      "isFixedGasLimit": false
    },
    {
      "hash": "0x65d072e78b1122c00f2d20c65476b442490699d3dca35703f04f5236e020725a",
      "transactionType": "CALL",
      "contractName": null,
      "contractAddress": "0xd7bc75898e513accccf720a874d44dab5a4b6223",
      "function": "sell(uint256)",
      "arguments": [
        "99300245364971770816"
      ],
      "transaction": {
        "from": "0xc77f7fed3b5cc8249adc428c5f44c9063b9734b4",
        "to": "0xd7bc75898e513accccf720a874d44dab5a4b6223",
        "gas": "0x16fec",
        "value": "0x0",
        "input": "0xe4849b320000000000000000000000000000000000000000000000056211570b504593c0",
        "nonce": "0x84",
        "chainId": "0xaa36a7"
      },
      "additionalContracts": [],
      "isFixedGasLimit": false
    }
  ],
  "receipts": [
    {
      "status": "0x1",
      "cumulativeGasUsed": "0x5a2ff6",
      "logs": [
        {
          "address": "0xd7bc75898e513accccf720a874d44dab5a4b6223",
          "topics": [
            "0xddf252ad1be2c89b69c2b068fc378daa952ba7f163c4a11628f55a4df523b3ef",
            "0x0000000000000000000000000000000000000000000000000000000000000000",
            "0x000000000000000000000000c77f7fed3b5cc8249adc428c5f44c9063b9734b4"
          ],
          "data": "0x0000000000000000000000000000000000000000000000055de675a9c94043ce",
          "blockHash": "0xd0d6af1e472356099afb001e138e5e78736fbe542a4eb40ca59d36f82072cff8",
          "blockNumber": "0x7238a8",
          "transactionHash": "0xff6984db6765948d7ae0be0194e6db41136a80d230ade821bea0950216b7eca1",
          "transactionIndex": "0x32",
          "logIndex": "0x4f",
          "removed": false
        },
        {
          "address": "0xd7bc75898e513accccf720a874d44dab5a4b6223",
          "topics": [
            "0xddf252ad1be2c89b69c2b068fc378daa952ba7f163c4a11628f55a4df523b3ef",
            "0x0000000000000000000000000000000000000000000000000000000000000000",
            "0x000000000000000000000000c77f7fed3b5cc8249adc428c5f44c9063b9734b4"
          ],
          "data": "0x000000000000000000000000000000000000000000000000042ae16187054ff2",
          "blockHash": "0xd0d6af1e472356099afb001e138e5e78736fbe542a4eb40ca59d36f82072cff8",
          "blockNumber": "0x7238a8",
          "transactionHash": "0xff6984db6765948d7ae0be0194e6db41136a80d230ade821bea0950216b7eca1",
          "transactionIndex": "0x32",
          "logIndex": "0x50",
          "removed": false
        },
        {
          "address": "0xd7bc75898e513accccf720a874d44dab5a4b6223",
          "topics": [
            "0x4afcb4a87cdbd9974efdb92ee48bc8d7cd0ae4bf217004db3d080cbaee652ca7"
          ],
          "data": "0x000000000000000000000000000000000000000000000000000000006785992800000000000000000000000000000000000000000000000000038d7ec671fa7b000000000000000000000000000000000000000000000000016345785d8a0000",
          "blockHash": "0xd0d6af1e472356099afb001e138e5e78736fbe542a4eb40ca59d36f82072cff8",
          "blockNumber": "0x7238a8",
          "transactionHash": "0xff6984db6765948d7ae0be0194e6db41136a80d230ade821bea0950216b7eca1",
          "transactionIndex": "0x32",
          "logIndex": "0x51",
          "removed": false
        }
      ],
      "logsBloom": "0x00000000000000000000000000000000000000000000000000000000000000000000000000000000000000000000000000000000000000004000000000000000000000000000000000000008000000000000000000000000000000000000000000000000020000000000000000000800020000000000000000000010000000000000000000000000000000000000000000000000000000000000010000000000000000000000000000000000000000004000001000000000000000000000000000000002000000800000000000004000000000000000080000000000000020000000000000000000000000000000000000000000080000000000000000000000",
      "type": "0x2",
      "transactionHash": "0xff6984db6765948d7ae0be0194e6db41136a80d230ade821bea0950216b7eca1",
      "transactionIndex": "0x32",
      "blockHash": "0xd0d6af1e472356099afb001e138e5e78736fbe542a4eb40ca59d36f82072cff8",
      "blockNumber": "0x7238a8",
      "gasUsed": "0x13af8",
      "effectiveGasPrice": "0x1dcc8ed",
      "from": "0xc77f7fed3b5cc8249adc428c5f44c9063b9734b4",
      "to": "0xd7bc75898e513accccf720a874d44dab5a4b6223",
      "contractAddress": null
    },
    {
      "status": "0x1",
      "cumulativeGasUsed": "0x5b2b89",
      "logs": [
        {
          "address": "0xd7bc75898e513accccf720a874d44dab5a4b6223",
          "topics": [
            "0xddf252ad1be2c89b69c2b068fc378daa952ba7f163c4a11628f55a4df523b3ef",
            "0x000000000000000000000000c77f7fed3b5cc8249adc428c5f44c9063b9734b4",
            "0x0000000000000000000000000000000000000000000000000000000000000000"
          ],
          "data": "0x0000000000000000000000000000000000000000000000056211570b504593c0",
          "blockHash": "0xd0d6af1e472356099afb001e138e5e78736fbe542a4eb40ca59d36f82072cff8",
          "blockNumber": "0x7238a8",
          "transactionHash": "0x65d072e78b1122c00f2d20c65476b442490699d3dca35703f04f5236e020725a",
          "transactionIndex": "0x33",
          "logIndex": "0x52",
          "removed": false
        },
        {
          "address": "0xd7bc75898e513accccf720a874d44dab5a4b6223",
          "topics": [
            "0x4afcb4a87cdbd9974efdb92ee48bc8d7cd0ae4bf217004db3d080cbaee652ca7"
          ],
          "data": "0x000000000000000000000000000000000000000000000000000000006785992800000000000000000000000000000000000000000000000000038d7ec7ada5430000000000000000000000000000000000000000000000000160c9191a82ec39",
          "blockHash": "0xd0d6af1e472356099afb001e138e5e78736fbe542a4eb40ca59d36f82072cff8",
          "blockNumber": "0x7238a8",
          "transactionHash": "0x65d072e78b1122c00f2d20c65476b442490699d3dca35703f04f5236e020725a",
          "transactionIndex": "0x33",
          "logIndex": "0x53",
          "removed": false
        }
      ],
      "logsBloom": "0x00000000000000000000000000000000000000000000000000000000000000000000000000000000000000000000000000000000000000004000000000000000000000000000000000000008000000000000000000000000000000000000000000000000020000000000000000000800020000000000000000000010000000000000000000000000000000000000000000000000000000000000010000000000000000000000000000000000000000004000001000000000000000000000000000000002000000800000000000004000000000000000080000000000000020000000000000000000000000000000000000000000080000000000000000000000",
      "type": "0x2",
      "transactionHash": "0x65d072e78b1122c00f2d20c65476b442490699d3dca35703f04f5236e020725a",
      "transactionIndex": "0x33",
      "blockHash": "0xd0d6af1e472356099afb001e138e5e78736fbe542a4eb40ca59d36f82072cff8",
      "blockNumber": "0x7238a8",
      "gasUsed": "0xfb93",
      "effectiveGasPrice": "0x1dcc8ed",
      "from": "0xc77f7fed3b5cc8249adc428c5f44c9063b9734b4",
      "to": "0xd7bc75898e513accccf720a874d44dab5a4b6223",
      "contractAddress": null
    }
  ],
  "libraries": [],
  "pending": [],
  "returns": {},
  "timestamp": 1736808746,
  "chain": 11155111,
  "commit": "51a374b"
}