{
  "transactions": [
    {
      "hash": "0x913de96f5f69994ebba0ccf79fe3551dd3571e6f33482213cc87d4845c2727fb",
      "transactionType": "CALL",
      "contractName": null,
      "contractAddress": "0xbf4a322f1496e5c3d34a9bcdb4c60567b38c7de2",
      "function": "sell(uint256)",
      "arguments": [
        "988517963825083041439"
      ],
      "transaction": {
        "from": "0xc77f7fed3b5cc8249adc428c5f44c9063b9734b4",
        "to": "0xbf4a322f1496e5c3d34a9bcdb4c60567b38c7de2",
        "gas": "0x16fea",
        "value": "0x0",
        "input": "0xe4849b3200000000000000000000000000000000000000000000003596714ab4ce83c69f",
        "nonce": "0x9a3",
        "chainId": "0xaa36a7"
      },
      "additionalContracts": [],
      "isFixedGasLimit": false
    }
  ],
  "receipts": [
    {
      "status": "0x1",
      "cumulativeGasUsed": "0x775fdf",
      "logs": [
        {
          "address": "0xbf4a322f1496e5c3d34a9bcdb4c60567b38c7de2",
          "topics": [
            "0xddf252ad1be2c89b69c2b068fc378daa952ba7f163c4a11628f55a4df523b3ef",
            "0x000000000000000000000000c77f7fed3b5cc8249adc428c5f44c9063b9734b4",
            "0x0000000000000000000000000000000000000000000000000000000000000000"
          ],
          "data": "0x00000000000000000000000000000000000000000000003596714ab4ce83c69f",
          "blockHash": "0x0d53b31c568c41a497a27a25413a825ce118f36b4927cd38801800ade91a3934",
          "blockNumber": "0x72594a",
          "transactionHash": "0x913de96f5f69994ebba0ccf79fe3551dd3571e6f33482213cc87d4845c2727fb",
          "transactionIndex": "0x53",
          "logIndex": "0x73",
          "removed": false
        },
        {
          "address": "0xbf4a322f1496e5c3d34a9bcdb4c60567b38c7de2",
          "topics": [
            "0x4afcb4a87cdbd9974efdb92ee48bc8d7cd0ae4bf217004db3d080cbaee652ca7"
          ],
          "data": "0x00000000000000000000000000000000000000000000000000000000678721a4000000000000000000000000000000000000000000000000000391a57dfa0e060000000000000000000000000000000000000000000000000dc7e3f5dee0a635",
          "blockHash": "0x0d53b31c568c41a497a27a25413a825ce118f36b4927cd38801800ade91a3934",
          "blockNumber": "0x72594a",
          "transactionHash": "0x913de96f5f69994ebba0ccf79fe3551dd3571e6f33482213cc87d4845c2727fb",
          "transactionIndex": "0x53",
          "logIndex": "0x74",
          "removed": false
        }
      ],
      "logsBloom": "0x00000000000000000000000000000000000000000000000000000000000000000000000000000000000000000000000000000000000000004000000000000000000000000000000000000008000000000000001000000000000000000000000000000000020000000000000000000800020000000000000000000010000000000000000000000000000000000000000000000000000008000000010000000000000000000000000000000000000000004000000000000000000000000000000000000002000000800000000000001000000000000000080000000000000020000000000000000000000000000000000000000000000000000000000000000000",
      "type": "0x2",
      "transactionHash": "0x913de96f5f69994ebba0ccf79fe3551dd3571e6f33482213cc87d4845c2727fb",
      "transactionIndex": "0x53",
      "blockHash": "0x0d53b31c568c41a497a27a25413a825ce118f36b4927cd38801800ade91a3934",
      "blockNumber": "0x72594a",
      "gasUsed": "0xfb91",
      "effectiveGasPrice": "0x23590b8e8",
      "from": "0xc77f7fed3b5cc8249adc428c5f44c9063b9734b4",
      "to": "0xbf4a322f1496e5c3d34a9bcdb4c60567b38c7de2",
      "contractAddress": null
    }
  ],
  "libraries": [],
  "pending": [],
  "returns": {},
  "timestamp": 1736909221,
  "chain": 11155111,
  "commit": "51a374b"
}