{
  "transactions": [
    {
      "hash": "0xa99fa305208b3eb5ec4e071a34bb2a5ccaf6757e410bb620125a56d2ff30475c",
      "transactionType": "CALL",
      "contractName": null,
      "contractAddress": "0x8aafd3ede9adb0ff97c7aebce82a919afb1c8764",
      "function": "sell(uint256)",
      "arguments": [
        "647280455059"
      ],
      "transaction": {
        "from": "0xc77f7fed3b5cc8249adc428c5f44c9063b9734b4",
        "to": "0x8aafd3ede9adb0ff97c7aebce82a919afb1c8764",
        "gas": "0x1722a",
        "value": "0x0",
        "input": "0xe4849b3200000000000000000000000000000000000000000000000000000096b4ebed93",
        "nonce": "0x16ce",
        "chainId": "0xaa36a7"
      },
      "additionalContracts": [],
      "isFixedGasLimit": false
    }
  ],
  "receipts": [
    {
      "status": "0x1",
      "cumulativeGasUsed": "0x1b3ee5c",
      "logs": [
        {
          "address": "0x8aafd3ede9adb0ff97c7aebce82a919afb1c8764",
          "topics": [
            "0xddf252ad1be2c89b69c2b068fc378daa952ba7f163c4a11628f55a4df523b3ef",
            "0x000000000000000000000000c77f7fed3b5cc8249adc428c5f44c9063b9734b4",
            "0x0000000000000000000000000000000000000000000000000000000000000000"
          ],
          "data": "0x000000000000000000000000000000000000000000000000000000958046335b",
          "blockHash": "0xb06d42a42e5e1f7beaf4d28af04679a92985e5be5e5b30c749a521d983391d88",
          "blockNumber": "0x731e89",
          "transactionHash": "0xa99fa305208b3eb5ec4e071a34bb2a5ccaf6757e410bb620125a56d2ff30475c",
          "transactionIndex": "0xac",
          "logIndex": "0x11a",
          "removed": false
        },
        {
          "address": "0x8aafd3ede9adb0ff97c7aebce82a919afb1c8764",
          "topics": [
            "0xddf252ad1be2c89b69c2b068fc378daa952ba7f163c4a11628f55a4df523b3ef",
            "0x000000000000000000000000c77f7fed3b5cc8249adc428c5f44c9063b9734b4",
            "0x000000000000000000000000c77f7fed3b5cc8249adc428c5f44c9063b9734b4"
          ],
          "data": "0x0000000000000000000000000000000000000000000000000000000134a5ba38",
          "blockHash": "0xb06d42a42e5e1f7beaf4d28af04679a92985e5be5e5b30c749a521d983391d88",
          "blockNumber": "0x731e89",
          "transactionHash": "0xa99fa305208b3eb5ec4e071a34bb2a5ccaf6757e410bb620125a56d2ff30475c",
          "transactionIndex": "0xac",
          "logIndex": "0x11b",
          "removed": false
        },
        {
          "address": "0x8aafd3ede9adb0ff97c7aebce82a919afb1c8764",
          "topics": [
            "0x4afcb4a87cdbd9974efdb92ee48bc8d7cd0ae4bf217004db3d080cbaee652ca7"
          ],
          "data": "0x0000000000000000000000000000000000000000000000000000000067906b5400000000000000000000000000000000000000000000000000166dec19a7950b00000000000000000000000000000000000000000000000000000000f392c5ba",
          "blockHash": "0xb06d42a42e5e1f7beaf4d28af04679a92985e5be5e5b30c749a521d983391d88",
          "blockNumber": "0x731e89",
          "transactionHash": "0xa99fa305208b3eb5ec4e071a34bb2a5ccaf6757e410bb620125a56d2ff30475c",
          "transactionIndex": "0xac",
          "logIndex": "0x11c",
          "removed": false
        }
      ],
      "logsBloom": "0x00000000000000000000000000000000000000000600000000000000000000000000000000000000000000000000000000000000000000004000000000000000000000000000004000000008000000000000000000000000000000000000000000000000020000000000000000000800020000000000000000000010000000000000000000000000000000000000000000000000000000000000010000000000000000000000000000000000000000004000000000000000000000000000000000000002000000800000000000000000000000000000080000000000000020000000000000000000000000000000000000000000000000000000000000000000",
      "type": "0x2",
      "transactionHash": "0xa99fa305208b3eb5ec4e071a34bb2a5ccaf6757e410bb620125a56d2ff30475c",
      "transactionIndex": "0xac",
      "blockHash": "0xb06d42a42e5e1f7beaf4d28af04679a92985e5be5e5b30c749a521d983391d88",
      "blockNumber": "0x731e89",
      "gasUsed": "0xfd1b",
      "effectiveGasPrice": "0x3ed221f7",
      "from": "0xc77f7fed3b5cc8249adc428c5f44c9063b9734b4",
      "to": "0x8aafd3ede9adb0ff97c7aebce82a919afb1c8764",
      "contractAddress": null
    }
  ],
  "libraries": [],
  "pending": [],
  "returns": {},
  "timestamp": 1737517909,
  "chain": 11155111,
  "commit": "1d2fb70"
}