{
  "transactions": [
    {
      "hash": "0xa2e9179f836921f047454c1bd7c46c48c3a94e80c451385b22d6e3b4ee01c5c2",
      "transactionType": "CALL",
      "contractName": null,
      "contractAddress": "0x8aafd3ede9adb0ff97c7aebce82a919afb1c8764",
      "function": "buy(address)",
      "arguments": [
        "0xC77f7fed3b5Cc8249aDc428c5F44C9063B9734b4"
      ],
      "transaction": {
        "from": "0xc77f7fed3b5cc8249adc428c5f44c9063b9734b4",
        "to": "0x8aafd3ede9adb0ff97c7aebce82a919afb1c8764",
        "gas": "0x156ea",
        "value": "0xde0b6b3a7640000",
        "input": "0xf088d547000000000000000000000000c77f7fed3b5cc8249adc428c5f44c9063b9734b4",
        "nonce": "0xfd4",
        "chainId": "0xaa36a7"
      },
      "additionalContracts": [],
      "isFixedGasLimit": false
    }
  ],
  "receipts": [
    {
      "status": "0x1",
      "cumulativeGasUsed": "0xaa6c9e",
      "logs": [
        {
          "address": "0x8aafd3ede9adb0ff97c7aebce82a919afb1c8764",
          "topics": [
            "0xddf252ad1be2c89b69c2b068fc378daa952ba7f163c4a11628f55a4df523b3ef",
            "0x0000000000000000000000000000000000000000000000000000000000000000",
            "0x000000000000000000000000c77f7fed3b5cc8249adc428c5f44c9063b9734b4"
          ],
          "data": "0x000000000000000000000000000000000000000000000027fb9b7a9593ccacd5",
          "blockHash": "0x1df2e5f1ab1dcd4683c2937847016610c1ab3f79ea9f67e49844281dd50f5348",
          "blockNumber": "0x731642",
          "transactionHash": "0xa2e9179f836921f047454c1bd7c46c48c3a94e80c451385b22d6e3b4ee01c5c2",
          "transactionIndex": "0x82",
          "logIndex": "0xb0",
          "removed": false
        },
        {
          "address": "0x8aafd3ede9adb0ff97c7aebce82a919afb1c8764",
          "topics": [
            "0xddf252ad1be2c89b69c2b068fc378daa952ba7f163c4a11628f55a4df523b3ef",
            "0x0000000000000000000000000000000000000000000000000000000000000000",
            "0x000000000000000000000000c77f7fed3b5cc8249adc428c5f44c9063b9734b4"
          ],
          "data": "0x0000000000000000000000000000000000000000000000001f0c4c591260e542",
          "blockHash": "0x1df2e5f1ab1dcd4683c2937847016610c1ab3f79ea9f67e49844281dd50f5348",
          "blockNumber": "0x731642",
          "transactionHash": "0xa2e9179f836921f047454c1bd7c46c48c3a94e80c451385b22d6e3b4ee01c5c2",
          "transactionIndex": "0x82",
          "logIndex": "0xb1",
          "removed": false
        },
        {
          "address": "0x8aafd3ede9adb0ff97c7aebce82a919afb1c8764",
          "topics": [
            "0x4afcb4a87cdbd9974efdb92ee48bc8d7cd0ae4bf217004db3d080cbaee652ca7"
          ],
          "data": "0x00000000000000000000000000000000000000000000000000000000679007c40000000000000000000000000000000000000000000000000004c4e33ff528ef0000000000000000000000000000000000000000000000000de0b6b3a7640000",
          "blockHash": "0x1df2e5f1ab1dcd4683c2937847016610c1ab3f79ea9f67e49844281dd50f5348",
          "blockNumber": "0x731642",
          "transactionHash": "0xa2e9179f836921f047454c1bd7c46c48c3a94e80c451385b22d6e3b4ee01c5c2",
          "transactionIndex": "0x82",
          "logIndex": "0xb2",
          "removed": false
        }
      ],
      "logsBloom": "0x00000000000000000000000000000000000000000600000000000000000000000000000000000000000000000000000000000000000000004000000000000000000000000000004000000008000000000000000000000000000000000000000000000000020000000000000000000800020000000000000000000010000000000000000000000000000000000000000000000000000000000000010000000000000000000000000000000000000000004000000000000000000000000000000000000002000000800000000000000000000000000000080000000000000020000000000000000000000000000000000000000000000000000000000000000000",
      "type": "0x2",
      "transactionHash": "0xa2e9179f836921f047454c1bd7c46c48c3a94e80c451385b22d6e3b4ee01c5c2",
      "transactionIndex": "0x82",
      "blockHash": "0x1df2e5f1ab1dcd4683c2937847016610c1ab3f79ea9f67e49844281dd50f5348",
      "blockNumber": "0x731642",
      "gasUsed": "0xf844",
      "effectiveGasPrice": "0x537713bb",
      "from": "0xc77f7fed3b5cc8249adc428c5f44c9063b9734b4",
      "to": "0x8aafd3ede9adb0ff97c7aebce82a919afb1c8764",
      "contractAddress": null
    }
  ],
  "libraries": [],
  "pending": [],
  "returns": {},
  "timestamp": 1737492422,
  "chain": 11155111,
  "commit": "1d2fb70"
}