{
  "transactions": [
    {
      "hash": "0x0b632db07d07fe0e73fc67dd22c9640a55d2bc82b6759be17fed2475ab126e2f",
      "transactionType": "CALL",
      "contractName": null,
      "contractAddress": "0x5eb9cc76c3506942c1c0ead70e877dd5e4f00cb0",
      "function": "buy(address)",
      "arguments": [
        "0xC77f7fed3b5Cc8249aDc428c5F44C9063B9734b4"
      ],
      "transaction": {
        "from": "0xc77f7fed3b5cc8249adc428c5f44c9063b9734b4",
        "to": "0x5eb9cc76c3506942c1c0ead70e877dd5e4f00cb0",
        "gas": "0x1b30c",
        "value": "0xde0b6b3a7640000",
        "input": "0xf088d547000000000000000000000000c77f7fed3b5cc8249adc428c5f44c9063b9734b4",
        "nonce": "0x340",
        "chainId": "0xaa36a7"
      },
      "additionalContracts": [],
      "isFixedGasLimit": false
    }
  ],
  "receipts": [
    {
      "status": "0x1",
      "cumulativeGasUsed": "0xa92229",
      "logs": [
        {
          "address": "0x5eb9cc76c3506942c1c0ead70e877dd5e4f00cb0",
          "topics": [
            "0xddf252ad1be2c89b69c2b068fc378daa952ba7f163c4a11628f55a4df523b3ef",
            "0x0000000000000000000000000000000000000000000000000000000000000000",
            "0x000000000000000000000000c77f7fed3b5cc8249adc428c5f44c9063b9734b4"
          ],
          "data": "0x000000000000000000000000000000000000000000000035756e97e1e6c30c6a",
          "blockHash": "0x060ad322ce3d2154ec07d7c6d7ca95b3d8570242277189cfeec36446cad22117",
          "blockNumber": "0x724f2f",
          "transactionHash": "0x0b632db07d07fe0e73fc67dd22c9640a55d2bc82b6759be17fed2475ab126e2f",
          "transactionIndex": "0x4c",
          "logIndex": "0x6d",
          "removed": false
        },
        {
          "address": "0x5eb9cc76c3506942c1c0ead70e877dd5e4f00cb0",
          "topics": [
            "0xddf252ad1be2c89b69c2b068fc378daa952ba7f163c4a11628f55a4df523b3ef",
            "0x0000000000000000000000000000000000000000000000000000000000000000",
            "0x000000000000000000000000c77f7fed3b5cc8249adc428c5f44c9063b9734b4"
          ],
          "data": "0x0000000000000000000000000000000000000000000000002983346b29e12c4e",
          "blockHash": "0x060ad322ce3d2154ec07d7c6d7ca95b3d8570242277189cfeec36446cad22117",
          "blockNumber": "0x724f2f",
          "transactionHash": "0x0b632db07d07fe0e73fc67dd22c9640a55d2bc82b6759be17fed2475ab126e2f",
          "transactionIndex": "0x4c",
          "logIndex": "0x6e",
          "removed": false
        },
        {
          "address": "0x5eb9cc76c3506942c1c0ead70e877dd5e4f00cb0",
          "topics": [
            "0x4afcb4a87cdbd9974efdb92ee48bc8d7cd0ae4bf217004db3d080cbaee652ca7"
          ],
          "data": "0x000000000000000000000000000000000000000000000000000000006786a7e80000000000000000000000000000000000000000000000000003910e318d350e0000000000000000000000000000000000000000000000000de0b6b3a7640000",
          "blockHash": "0x060ad322ce3d2154ec07d7c6d7ca95b3d8570242277189cfeec36446cad22117",
          "blockNumber": "0x724f2f",
          "transactionHash": "0x0b632db07d07fe0e73fc67dd22c9640a55d2bc82b6759be17fed2475ab126e2f",
          "transactionIndex": "0x4c",
          "logIndex": "0x6f",
          "removed": false
        }
      ],
      "logsBloom": "0x00000000000000000000000000000000000000000000000000000000000000000000000000000000000000000000000000000000000000004000000000000000000000000000000000000008000000000000000000000000000000000000000000000000020000000000000004000800020000000000000000000010000000000000000000000000000000000000000000000000000000000000010000000000000000000000000000000000000000004000000000000000000000000000020000000002000000800000008000000000000000000000080000000000000020000000000000000000000000000000000000000000000000000000000000000000",
      "type": "0x2",
      "transactionHash": "0x0b632db07d07fe0e73fc67dd22c9640a55d2bc82b6759be17fed2475ab126e2f",
      "transactionIndex": "0x4c",
      "blockHash": "0x060ad322ce3d2154ec07d7c6d7ca95b3d8570242277189cfeec36446cad22117",
      "blockNumber": "0x724f2f",
      "gasUsed": "0x13af8",
      "effectiveGasPrice": "0x65df8f385",
      "from": "0xc77f7fed3b5cc8249adc428c5f44c9063b9734b4",
      "to": "0x5eb9cc76c3506942c1c0ead70e877dd5e4f00cb0",
      "contractAddress": null
    }
  ],
  "libraries": [],
  "pending": [],
  "returns": {},
  "timestamp": 1736878058,
  "chain": 11155111,
  "commit": "51a374b"
}