{
  "transactions": [
    {
      "hash": "0xd9a9e3ef251188e8a4e0d5f412d87deebfad8f4a7f61fc545a1127c27e8ea00e",
      "transactionType": "CALL",
      "contractName": null,
      "contractAddress": "0x8aafd3ede9adb0ff97c7aebce82a919afb1c8764",
      "function": "sell(uint256)",
      "arguments": [
        "216776374392888911529"
      ],
      "transaction": {
        "from": "0xc77f7fed3b5cc8249adc428c5f44c9063b9734b4",
        "to": "0x8aafd3ede9adb0ff97c7aebce82a919afb1c8764",
        "gas": "0x17270",
        "value": "0x0",
        "input": "0xe4849b3200000000000000000000000000000000000000000000000bc06063fad93a66a9",
        "nonce": "0x14c0",
        "chainId": "0xaa36a7"
      },
      "additionalContracts": [],
      "isFixedGasLimit": false
    }
  ],
  "receipts": [
    {
      "status": "0x1",
      "cumulativeGasUsed": "0x13d667f",
      "logs": [
        {
          "address": "0x8aafd3ede9adb0ff97c7aebce82a919afb1c8764",
          "topics": [
            "0xddf252ad1be2c89b69c2b068fc378daa952ba7f163c4a11628f55a4df523b3ef",
            "0x000000000000000000000000c77f7fed3b5cc8249adc428c5f44c9063b9734b4",
            "0x0000000000000000000000000000000000000000000000000000000000000000"
          ],
          "data": "0x00000000000000000000000000000000000000000000000ba84f3c449e25742d",
          "blockHash": "0x8c9bb0cdc25881e59db8213795b8bdd1a20b789d53a9c6797f29b526f0d5762e",
          "blockNumber": "0x731c1d",
          "transactionHash": "0xd9a9e3ef251188e8a4e0d5f412d87deebfad8f4a7f61fc545a1127c27e8ea00e",
          "transactionIndex": "0xc3",
          "logIndex": "0x104",
          "removed": false
        },
        {
          "address": "0x8aafd3ede9adb0ff97c7aebce82a919afb1c8764",
          "topics": [
            "0xddf252ad1be2c89b69c2b068fc378daa952ba7f163c4a11628f55a4df523b3ef",
            "0x000000000000000000000000c77f7fed3b5cc8249adc428c5f44c9063b9734b4",
            "0x000000000000000000000000c77f7fed3b5cc8249adc428c5f44c9063b9734b4"
          ],
          "data": "0x000000000000000000000000000000000000000000000000181127b63b14f27c",
          "blockHash": "0x8c9bb0cdc25881e59db8213795b8bdd1a20b789d53a9c6797f29b526f0d5762e",
          "blockNumber": "0x731c1d",
          "transactionHash": "0xd9a9e3ef251188e8a4e0d5f412d87deebfad8f4a7f61fc545a1127c27e8ea00e",
          "transactionIndex": "0xc3",
          "logIndex": "0x105",
          "removed": false
        },
        {
          "address": "0x8aafd3ede9adb0ff97c7aebce82a919afb1c8764",
          "topics": [
            "0x4afcb4a87cdbd9974efdb92ee48bc8d7cd0ae4bf217004db3d080cbaee652ca7"
          ],
          "data": "0x0000000000000000000000000000000000000000000000000000000067904e3800000000000000000000000000000000000000000000000000106082af2d56990000000000000000000000000000000000000000000000000dcd4ebae2501db4",
          "blockHash": "0x8c9bb0cdc25881e59db8213795b8bdd1a20b789d53a9c6797f29b526f0d5762e",
          "blockNumber": "0x731c1d",
          "transactionHash": "0xd9a9e3ef251188e8a4e0d5f412d87deebfad8f4a7f61fc545a1127c27e8ea00e",
          "transactionIndex": "0xc3",
          "logIndex": "0x106",
          "removed": false
        }
      ],
      "logsBloom": "0x00000000000000000000000000000000000000000600000000000000000000000000000000000000000000000000000000000000000000004000000000000000000000000000004000000008000000000000000000000000000000000000000000000000020000000000000000000800020000000000000000000010000000000000000000000000000000000000000000000000000000000000010000000000000000000000000000000000000000004000000000000000000000000000000000000002000000800000000000000000000000000000080000000000000020000000000000000000000000000000000000000000000000000000000000000000",
      "type": "0x2",
      "transactionHash": "0xd9a9e3ef251188e8a4e0d5f412d87deebfad8f4a7f61fc545a1127c27e8ea00e",
      "transactionIndex": "0xc3",
      "blockHash": "0x8c9bb0cdc25881e59db8213795b8bdd1a20b789d53a9c6797f29b526f0d5762e",
      "blockNumber": "0x731c1d",
      "gasUsed": "0xfd4b",
      "effectiveGasPrice": "0x10817a9f5",
      "from": "0xc77f7fed3b5cc8249adc428c5f44c9063b9734b4",
      "to": "0x8aafd3ede9adb0ff97c7aebce82a919afb1c8764",
      "contractAddress": null
    }
  ],
  "libraries": [],
  "pending": [],
  "returns": {},
  "timestamp": 1737510458,
  "chain": 11155111,
  "commit": "1d2fb70"
}