{
  "transactions": [
    {
      "hash": "0x260284390a0d60d012fd3aec8168450e9cfe94dd5f63747a7635bee243ea4482",
      "transactionType": "CALL",
      "contractName": null,
      "contractAddress": "0xbf4a322f1496e5c3d34a9bcdb4c60567b38c7de2",
      "function": "sell(uint256)",
      "arguments": [
        "975654995899769529391"
      ],
      "transaction": {
        "from": "0xc77f7fed3b5cc8249adc428c5f44c9063b9734b4",
        "to": "0xbf4a322f1496e5c3d34a9bcdb4c60567b38c7de2",
        "gas": "0x16fea",
        "value": "0x0",
        "input": "0xe4849b32000000000000000000000000000000000000000000000034e3eed98774f5a42f",
        "nonce": "0xd5d",
        "chainId": "0xaa36a7"
      },
      "additionalContracts": [],
      "isFixedGasLimit": false
    }
  ],
  "receipts": [
    {
      "status": "0x1",
      "cumulativeGasUsed": "0xc31d3e",
      "logs": [
        {
          "address": "0xbf4a322f1496e5c3d34a9bcdb4c60567b38c7de2",
          "topics": [
            "0xddf252ad1be2c89b69c2b068fc378daa952ba7f163c4a11628f55a4df523b3ef",
            "0x000000000000000000000000c77f7fed3b5cc8249adc428c5f44c9063b9734b4",
            "0x0000000000000000000000000000000000000000000000000000000000000000"
          ],
          "data": "0x000000000000000000000000000000000000000000000034e3eed98774f5a42f",
          "blockHash": "0x2bb4f3908678c11912975861d5a79f4d10135aa92527bb0551cfa1350477ed15",
          "blockNumber": "0x725dc5",
          "transactionHash": "0x260284390a0d60d012fd3aec8168450e9cfe94dd5f63747a7635bee243ea4482",
          "transactionIndex": "0x61",
          "logIndex": "0x7a",
          "removed": false
        },
        {
          "address": "0xbf4a322f1496e5c3d34a9bcdb4c60567b38c7de2",
          "topics": [
            "0x4afcb4a87cdbd9974efdb92ee48bc8d7cd0ae4bf217004db3d080cbaee652ca7"
          ],
          "data": "0x00000000000000000000000000000000000000000000000000000000678757b000000000000000000000000000000000000000000000000000039db10ae2a0aa0000000000000000000000000000000000000000000000000dc7e3d7f6c7b284",
          "blockHash": "0x2bb4f3908678c11912975861d5a79f4d10135aa92527bb0551cfa1350477ed15",
          "blockNumber": "0x725dc5",
          "transactionHash": "0x260284390a0d60d012fd3aec8168450e9cfe94dd5f63747a7635bee243ea4482",
          "transactionIndex": "0x61",
          "logIndex": "0x7b",
          "removed": false
        }
      ],
      "logsBloom": "0x00000000000000000000000000000000000000000000000000000000000000000000000000000000000000000000000000000000000000004000000000000000000000000000000000000008000000000000001000000000000000000000000000000000020000000000000000000800020000000000000000000010000000000000000000000000000000000000000000000000000008000000010000000000000000000000000000000000000000004000000000000000000000000000000000000002000000800000000000001000000000000000080000000000000020000000000000000000000000000000000000000000000000000000000000000000",
      "type": "0x2",
      "transactionHash": "0x260284390a0d60d012fd3aec8168450e9cfe94dd5f63747a7635bee243ea4482",
      "transactionIndex": "0x61",
      "blockHash": "0x2bb4f3908678c11912975861d5a79f4d10135aa92527bb0551cfa1350477ed15",
      "blockNumber": "0x725dc5",
      "gasUsed": "0xfb91",
      "effectiveGasPrice": "0x351c9f6c3",
      "from": "0xc77f7fed3b5cc8249adc428c5f44c9063b9734b4",
      "to": "0xbf4a322f1496e5c3d34a9bcdb4c60567b38c7de2",
      "contractAddress": null
    }
  ],
  "libraries": [],
  "pending": [],
  "returns": {},
  "timestamp": 1736923058,
  "chain": 11155111,
  "commit": "51a374b"
}