{
  "transactions": [
    {
      "hash": "0xdd9c3e62a4d69c132f008ebf14f98e5078f3d558c545da2aa51ebb7f3cf9f375",
      "transactionType": "CALL",
      "contractName": null,
      "contractAddress": "0xbf4a322f1496e5c3d34a9bcdb4c60567b38c7de2",
      "function": "sell(uint256)",
      "arguments": [
        "974697774858752666519"
      ],
      "transaction": {
        "from": "0xc77f7fed3b5cc8249adc428c5f44c9063b9734b4",
        "to": "0xbf4a322f1496e5c3d34a9bcdb4c60567b38c7de2",
        "gas": "0x16fea",
        "value": "0x0",
        "input": "0xe4849b32000000000000000000000000000000000000000000000034d6a61e105b9eab97",
        "nonce": "0xda5",
        "chainId": "0xaa36a7"
      },
      "additionalContracts": [],
      "isFixedGasLimit": false
    }
  ],
  "receipts": [
    {
      "status": "0x1",
      "cumulativeGasUsed": "0xe345ba",
      "logs": [
        {
          "address": "0xbf4a322f1496e5c3d34a9bcdb4c60567b38c7de2",
          "topics": [
            "0xddf252ad1be2c89b69c2b068fc378daa952ba7f163c4a11628f55a4df523b3ef",
            "0x000000000000000000000000c77f7fed3b5cc8249adc428c5f44c9063b9734b4",
            "0x0000000000000000000000000000000000000000000000000000000000000000"
          ],
          "data": "0x000000000000000000000000000000000000000000000034d6a61e105b9eab97",
          "blockHash": "0xe51a43104ba85455c13ea670e0d459f2573db2f54c6babedd14c29c596864a5c",
          "blockNumber": "0x72667b",
          "transactionHash": "0xdd9c3e62a4d69c132f008ebf14f98e5078f3d558c545da2aa51ebb7f3cf9f375",
          "transactionIndex": "0x8a",
          "logIndex": "0xdf",
          "removed": false
        },
        {
          "address": "0xbf4a322f1496e5c3d34a9bcdb4c60567b38c7de2",
          "topics": [
            "0x4afcb4a87cdbd9974efdb92ee48bc8d7cd0ae4bf217004db3d080cbaee652ca7"
          ],
          "data": "0x000000000000000000000000000000000000000000000000000000006787c09800000000000000000000000000000000000000000000000000039e99c39d75260000000000000000000000000000000000000000000000000dc7e3d5bd06c64b",
          "blockHash": "0xe51a43104ba85455c13ea670e0d459f2573db2f54c6babedd14c29c596864a5c",
          "blockNumber": "0x72667b",
          "transactionHash": "0xdd9c3e62a4d69c132f008ebf14f98e5078f3d558c545da2aa51ebb7f3cf9f375",
          "transactionIndex": "0x8a",
          "logIndex": "0xe0",
          "removed": false
        }
      ],
      "logsBloom": "0x00000000000000000000000000000000000000000000000000000000000000000000000000000000000000000000000000000000000000004000000000000000000000000000000000000008000000000000001000000000000000000000000000000000020000000000000000000800020000000000000000000010000000000000000000000000000000000000000000000000000008000000010000000000000000000000000000000000000000004000000000000000000000000000000000000002000000800000000000001000000000000000080000000000000020000000000000000000000000000000000000000000000000000000000000000000",
      "type": "0x2",
      "transactionHash": "0xdd9c3e62a4d69c132f008ebf14f98e5078f3d558c545da2aa51ebb7f3cf9f375",
      "transactionIndex": "0x8a",
      "blockHash": "0xe51a43104ba85455c13ea670e0d459f2573db2f54c6babedd14c29c596864a5c",
      "blockNumber": "0x72667b",
      "gasUsed": "0xfb91",
      "effectiveGasPrice": "0x8919e462",
      "from": "0xc77f7fed3b5cc8249adc428c5f44c9063b9734b4",
      "to": "0xbf4a322f1496e5c3d34a9bcdb4c60567b38c7de2",
      "contractAddress": null
    }
  ],
  "libraries": [],
  "pending": [],
  "returns": {},
  "timestamp": 1736949915,
  "chain": 11155111,
  "commit": "51a374b"
}