{
  "transactions": [
    {
      "hash": "0x00c9f020897c6ef4a6af49cde79bbc48fab8bba4fe58df41c5e2969621f19bda",
      "transactionType": "CALL",
      "contractName": null,
      "contractAddress": "0x5eb9cc76c3506942c1c0ead70e877dd5e4f00cb0",
      "function": "sell(uint256)",
      "arguments": [
        "989127727336110906895"
      ],
      "transaction": {
        "from": "0xc77f7fed3b5cc8249adc428c5f44c9063b9734b4",
        "to": "0x5eb9cc76c3506942c1c0ead70e877dd5e4f00cb0",
        "gas": "0x16fec",
        "value": "0x0",
        "input": "0xe4849b320000000000000000000000000000000000000000000000359ee79b638e535e0f",
        "nonce": "0x353",
        "chainId": "0xaa36a7"
      },
      "additionalContracts": [],
      "isFixedGasLimit": false
    }
  ],
  "receipts": [
    {
      "status": "0x1",
      "cumulativeGasUsed": "0x12d0cbc",
      "logs": [
        {
          "address": "0x5eb9cc76c3506942c1c0ead70e877dd5e4f00cb0",
          "topics": [
            "0xddf252ad1be2c89b69c2b068fc378daa952ba7f163c4a11628f55a4df523b3ef",
            "0x000000000000000000000000c77f7fed3b5cc8249adc428c5f44c9063b9734b4",
            "0x0000000000000000000000000000000000000000000000000000000000000000"
          ],
          "data": "0x0000000000000000000000000000000000000000000000359ee79b638e535e0f",
          "blockHash": "0xff3903aba37d35b9a92e05a00de507728c1bddc2f29184df38d864fd9b1a5f5f",
          "blockNumber": "0x724f48",
          "transactionHash": "0x00c9f020897c6ef4a6af49cde79bbc48fab8bba4fe58df41c5e2969621f19bda",
          "transactionIndex": "0x8d",
          "logIndex": "0xde",
          "removed": false
        },
        {
          "address": "0x5eb9cc76c3506942c1c0ead70e877dd5e4f00cb0",
          "topics": [
            "0x4afcb4a87cdbd9974efdb92ee48bc8d7cd0ae4bf217004db3d080cbaee652ca7"
          ],
          "data": "0x000000000000000000000000000000000000000000000000000000006786a9140000000000000000000000000000000000000000000000000003910eeb6a84760000000000000000000000000000000000000000000000000dc7db133218c914",
          "blockHash": "0xff3903aba37d35b9a92e05a00de507728c1bddc2f29184df38d864fd9b1a5f5f",
          "blockNumber": "0x724f48",
          "transactionHash": "0x00c9f020897c6ef4a6af49cde79bbc48fab8bba4fe58df41c5e2969621f19bda",
          "transactionIndex": "0x8d",
          "logIndex": "0xdf",
          "removed": false
        }
      ],
      "logsBloom": "0x00000000000000000000000000000000000000000000000000000000000000000000000000000000000000000000000000000000000000004000000000000000000000000000000000000008000000000000000000000000000000000000000000000000020000000000000004000800020000000000000000000010000000000000000000000000000000000000000000000000000000000000010000000000000000000000000000000000000000004000000000000000000000000000020000000002000000800000008000000000000000000000080000000000000020000000000000000000000000000000000000000000000000000000000000000000",
      "type": "0x2",
      "transactionHash": "0x00c9f020897c6ef4a6af49cde79bbc48fab8bba4fe58df41c5e2969621f19bda",
      "transactionIndex": "0x8d",
      "blockHash": "0xff3903aba37d35b9a92e05a00de507728c1bddc2f29184df38d864fd9b1a5f5f",
      "blockNumber": "0x724f48",
      "gasUsed": "0xfb93",
      "effectiveGasPrice": "0x563935958",
      "from": "0xc77f7fed3b5cc8249adc428c5f44c9063b9734b4",
      "to": "0x5eb9cc76c3506942c1c0ead70e877dd5e4f00cb0",
      "contractAddress": null
    }
  ],
  "libraries": [],
  "pending": [],
  "returns": {},
  "timestamp": 1736878357,
  "chain": 11155111,
  "commit": "51a374b"
}