{
  "transactions": [
    {
      "hash": "0xe30dc43469e442f06501dbfceeb7238fa6e90d593cb2c93e7524d4c6ac8cbfdb",
      "transactionType": "CALL",
      "contractName": null,
      "contractAddress": "0xbf4a322f1496e5c3d34a9bcdb4c60567b38c7de2",
      "function": "buy(address)",
      "arguments": [
        "0xC77f7fed3b5Cc8249aDc428c5F44C9063B9734b4"
      ],
      "transaction": {
        "from": "0xc77f7fed3b5cc8249adc428c5f44c9063b9734b4",
        "to": "0xbf4a322f1496e5c3d34a9bcdb4c60567b38c7de2",
        "gas": "0x1b309",
        "value": "0xde0b6b3a7640000",
        "input": "0xf088d547000000000000000000000000c77f7fed3b5cc8249adc428c5f44c9063b9734b4",
        "nonce": "0xbaa",
        "chainId": "0xaa36a7"
      },
      "additionalContracts": [],
      "isFixedGasLimit": false
    }
  ],
  "receipts": [
    {
      "status": "0x1",
      "cumulativeGasUsed": "0x11d7d9f",
      "logs": [
        {
          "address": "0xbf4a322f1496e5c3d34a9bcdb4c60567b38c7de2",
          "topics": [
            "0xddf252ad1be2c89b69c2b068fc378daa952ba7f163c4a11628f55a4df523b3ef",
            "0x0000000000000000000000000000000000000000000000000000000000000000",
            "0x000000000000000000000000c77f7fed3b5cc8249adc428c5f44c9063b9734b4"
          ],
          "data": "0x0000000000000000000000000000000000000000000000350b5f25ead144e8b7",
          "blockHash": "0x6d7c25d274543c41082152f018f02807c64abd8a3a33731ef172ac3ef4fe496f",
          "blockNumber": "0x725bc1",
          "transactionHash": "0xe30dc43469e442f06501dbfceeb7238fa6e90d593cb2c93e7524d4c6ac8cbfdb",
          "transactionIndex": "0x4f",
          "logIndex": "0xbb",
          "removed": false
        },
        {
          "address": "0xbf4a322f1496e5c3d34a9bcdb4c60567b38c7de2",
          "topics": [
            "0xddf252ad1be2c89b69c2b068fc378daa952ba7f163c4a11628f55a4df523b3ef",
            "0x0000000000000000000000000000000000000000000000000000000000000000",
            "0x000000000000000000000000c77f7fed3b5cc8249adc428c5f44c9063b9734b4"
          ],
          "data": "0x0000000000000000000000000000000000000000000000002930d865321f90c2",
          "blockHash": "0x6d7c25d274543c41082152f018f02807c64abd8a3a33731ef172ac3ef4fe496f",
          "blockNumber": "0x725bc1",
          "transactionHash": "0xe30dc43469e442f06501dbfceeb7238fa6e90d593cb2c93e7524d4c6ac8cbfdb",
          "transactionIndex": "0x4f",
          "logIndex": "0xbc",
          "removed": false
        },
        {
          "address": "0xbf4a322f1496e5c3d34a9bcdb4c60567b38c7de2",
          "topics": [
            "0x4afcb4a87cdbd9974efdb92ee48bc8d7cd0ae4bf217004db3d080cbaee652ca7"
          ],
          "data": "0x0000000000000000000000000000000000000000000000000000000067873f68000000000000000000000000000000000000000000000000000398321d5a0a9d0000000000000000000000000000000000000000000000000de0b6b3a7640000",
          "blockHash": "0x6d7c25d274543c41082152f018f02807c64abd8a3a33731ef172ac3ef4fe496f",
          "blockNumber": "0x725bc1",
          "transactionHash": "0xe30dc43469e442f06501dbfceeb7238fa6e90d593cb2c93e7524d4c6ac8cbfdb",
          "transactionIndex": "0x4f",
          "logIndex": "0xbd",
          "removed": false
        }
      ],
      "logsBloom": "0x00000000000000000000000000000000000000000000000000000000000000000000000000000000000000000000000000000000000000004000000000000000000000000000000000000008000000000000001000000000000000000000000000000000020000000000000000000800020000000000000000000010000000000000000000000000000000000000000000000000000008000000010000000000000000000000000000000000000000004000000000000000000000000000000000000002000000800000000000001000000000000000080000000000000020000000000000000000000000000000000000000000000000000000000000000000",
      "type": "0x2",
      "transactionHash": "0xe30dc43469e442f06501dbfceeb7238fa6e90d593cb2c93e7524d4c6ac8cbfdb",
      "transactionIndex": "0x4f",
      "blockHash": "0x6d7c25d274543c41082152f018f02807c64abd8a3a33731ef172ac3ef4fe496f",
      "blockNumber": "0x725bc1",
      "gasUsed": "0x13af6",
      "effectiveGasPrice": "0x576f26cf",
      "from": "0xc77f7fed3b5cc8249adc428c5f44c9063b9734b4",
      "to": "0xbf4a322f1496e5c3d34a9bcdb4c60567b38c7de2",
      "contractAddress": null
    }
  ],
  "libraries": [],
  "pending": [],
  "returns": {},
  "timestamp": 1736916844,
  "chain": 11155111,
  "commit": "51a374b"
}