{
  "transactions": [
    {
      "hash": "0x92aaa307b808b2f73f7df2c9381325fc8d9132adc9c28e463ef3aca849cf6f31",
      "transactionType": "CALL",
      "contractName": null,
      "contractAddress": "0x8aafd3ede9adb0ff97c7aebce82a919afb1c8764",
      "function": "sell(uint256)",
      "arguments": [
        "8075093768"
      ],
      "transaction": {
        "from": "0xc77f7fed3b5cc8249adc428c5f44c9063b9734b4",
        "to": "0x8aafd3ede9adb0ff97c7aebce82a919afb1c8764",
        "gas": "0x1722a",
        "value": "0x0",
        "input": "0xe4849b3200000000000000000000000000000000000000000000000000000001e1502708",
        "nonce": "0x141a",
        "chainId": "0xaa36a7"
      },
      "additionalContracts": [],
      "isFixedGasLimit": false
    }
  ],
  "receipts": [
    {
      "status": "0x1",
      "cumulativeGasUsed": "0x11c38af",
      "logs": [
        {
          "address": "0x8aafd3ede9adb0ff97c7aebce82a919afb1c8764",
          "topics": [
            "0xddf252ad1be2c89b69c2b068fc378daa952ba7f163c4a11628f55a4df523b3ef",
            "0x000000000000000000000000c77f7fed3b5cc8249adc428c5f44c9063b9734b4",
            "0x0000000000000000000000000000000000000000000000000000000000000000"
          ],
          "data": "0x00000000000000000000000000000000000000000000000000000001dd766c5a",
          "blockHash": "0x89bc56bb8ead4a0cc8c4b6a23f197bd5a702578fa6eeed937362122684f62846",
          "blockNumber": "0x731b55",
          "transactionHash": "0x92aaa307b808b2f73f7df2c9381325fc8d9132adc9c28e463ef3aca849cf6f31",
          "transactionIndex": "0x97",
          "logIndex": "0xcd",
          "removed": false
        },
        {
          "address": "0x8aafd3ede9adb0ff97c7aebce82a919afb1c8764",
          "topics": [
            "0xddf252ad1be2c89b69c2b068fc378daa952ba7f163c4a11628f55a4df523b3ef",
            "0x000000000000000000000000c77f7fed3b5cc8249adc428c5f44c9063b9734b4",
            "0x000000000000000000000000c77f7fed3b5cc8249adc428c5f44c9063b9734b4"
          ],
          "data": "0x0000000000000000000000000000000000000000000000000000000003d9baae",
          "blockHash": "0x89bc56bb8ead4a0cc8c4b6a23f197bd5a702578fa6eeed937362122684f62846",
          "blockNumber": "0x731b55",
          "transactionHash": "0x92aaa307b808b2f73f7df2c9381325fc8d9132adc9c28e463ef3aca849cf6f31",
          "transactionIndex": "0x97",
          "logIndex": "0xce",
          "removed": false
        },
        {
          "address": "0x8aafd3ede9adb0ff97c7aebce82a919afb1c8764",
          "topics": [
            "0x4afcb4a87cdbd9974efdb92ee48bc8d7cd0ae4bf217004db3d080cbaee652ca7"
          ],
          "data": "0x00000000000000000000000000000000000000000000000000000000679044cc000000000000000000000000000000000000000000000000000e6b1e3d5821a70000000000000000000000000000000000000000000000000000000001f41054",
          "blockHash": "0x89bc56bb8ead4a0cc8c4b6a23f197bd5a702578fa6eeed937362122684f62846",
          "blockNumber": "0x731b55",
          "transactionHash": "0x92aaa307b808b2f73f7df2c9381325fc8d9132adc9c28e463ef3aca849cf6f31",
          "transactionIndex": "0x97",
          "logIndex": "0xcf",
          "removed": false
        }
      ],
      "logsBloom": "0x00000000000000000000000000000000000000000600000000000000000000000000000000000000000000000000000000000000000000004000000000000000000000000000004000000008000000000000000000000000000000000000000000000000020000000000000000000800020000000000000000000010000000000000000000000000000000000000000000000000000000000000010000000000000000000000000000000000000000004000000000000000000000000000000000000002000000800000000000000000000000000000080000000000000020000000000000000000000000000000000000000000000000000000000000000000",
      "type": "0x2",
      "transactionHash": "0x92aaa307b808b2f73f7df2c9381325fc8d9132adc9c28e463ef3aca849cf6f31",
      "transactionIndex": "0x97",
      "blockHash": "0x89bc56bb8ead4a0cc8c4b6a23f197bd5a702578fa6eeed937362122684f62846",
      "blockNumber": "0x731b55",
      "gasUsed": "0xfd1b",
      "effectiveGasPrice": "0xe41df4ff",
      "from": "0xc77f7fed3b5cc8249adc428c5f44c9063b9734b4",
      "to": "0x8aafd3ede9adb0ff97c7aebce82a919afb1c8764",
      "contractAddress": null
    }
  ],
  "libraries": [],
  "pending": [],
  "returns": {},
  "timestamp": 1737508046,
  "chain": 11155111,
  "commit": "1d2fb70"
}