{
  "transactions": [
    {
      "hash": "0xa9e5001b543b2da8343dfe4e03f515b0386fe7e642473e1c668edacfdfacbe3c",
      "transactionType": "CALL",
      "contractName": null,
      "contractAddress": "0x270e88f8683660553e8ba4eb2ad7c91a1710d769",
      "function": "buy(address)",
      "arguments": [
        "0xC77f7fed3b5Cc8249aDc428c5F44C9063B9734b4"
      ],
      "transaction": {
        "from": "0xc77f7fed3b5cc8249adc428c5f44c9063b9734b4",
        "to": "0x270e88f8683660553e8ba4eb2ad7c91a1710d769",
        "gas": "0x1b30c",
        "value": "0xde0b6b3a7640000",
        "input": "0xf088d547000000000000000000000000c77f7fed3b5cc8249adc428c5f44c9063b9734b4",
        "nonce": "0x57e",
        "chainId": "0xaa36a7"
      },
      "additionalContracts": [],
      "isFixedGasLimit": false
    }
  ],
  "receipts": [
    {
      "status": "0x1",
      "cumulativeGasUsed": "0xfd6721",
      "logs": [
        {
          "address": "0x270e88f8683660553e8ba4eb2ad7c91a1710d769",
          "topics": [
            "0xddf252ad1be2c89b69c2b068fc378daa952ba7f163c4a11628f55a4df523b3ef",
            "0x0000000000000000000000000000000000000000000000000000000000000000",
            "0x000000000000000000000000c77f7fed3b5cc8249adc428c5f44c9063b9734b4"
          ],
          "data": "0x0000000000000000000000000000000000000000000000343d5c3c825c10dbca",
          "blockHash": "0x18b33ca37b48bf321bcc60b49e1eb8f693f481a255e901334d7db788b2fcb59a",
          "blockNumber": "0x72522b",
          "transactionHash": "0xa9e5001b543b2da8343dfe4e03f515b0386fe7e642473e1c668edacfdfacbe3c",
          "transactionIndex": "0x4c",
          "logIndex": "0x8d",
          "removed": false
        },
        {
          "address": "0x270e88f8683660553e8ba4eb2ad7c91a1710d769",
          "topics": [
            "0xddf252ad1be2c89b69c2b068fc378daa952ba7f163c4a11628f55a4df523b3ef",
            "0x0000000000000000000000000000000000000000000000000000000000000000",
            "0x000000000000000000000000c77f7fed3b5cc8249adc428c5f44c9063b9734b4"
          ],
          "data": "0x0000000000000000000000000000000000000000000000002890ded4d6f1c151",
          "blockHash": "0x18b33ca37b48bf321bcc60b49e1eb8f693f481a255e901334d7db788b2fcb59a",
          "blockNumber": "0x72522b",
          "transactionHash": "0xa9e5001b543b2da8343dfe4e03f515b0386fe7e642473e1c668edacfdfacbe3c",
          "transactionIndex": "0x4c",
          "logIndex": "0x8e",
          "removed": false
        },
        {
          "address": "0x270e88f8683660553e8ba4eb2ad7c91a1710d769",
          "topics": [
            "0x4afcb4a87cdbd9974efdb92ee48bc8d7cd0ae4bf217004db3d080cbaee652ca7"
          ],
          "data": "0x000000000000000000000000000000000000000000000000000000006786cbf40000000000000000000000000000000000000000000000000003a6775655746f0000000000000000000000000000000000000000000000000de0b6b3a7640000",
          "blockHash": "0x18b33ca37b48bf321bcc60b49e1eb8f693f481a255e901334d7db788b2fcb59a",
          "blockNumber": "0x72522b",
          "transactionHash": "0xa9e5001b543b2da8343dfe4e03f515b0386fe7e642473e1c668edacfdfacbe3c",
          "transactionIndex": "0x4c",
          "logIndex": "0x8f",
          "removed": false
        }
      ],
      "logsBloom": "0x00000000000000000000000000000000000000000000000000000000000000000000000000000000000000000000000020000000000000004000000000000000000000000000000000000008000000000000000000000000000000000000000000000000020000000000000000000800020000000000000000000010000000000000000000010000000000000000000000000000000000000000010000000000000000000000000000000000000000004000000000000000000000000000000000000002000000800000000000000000000000000000080000008000000020000000000000000000000000000000000000000000000000000000000000000000",
      "type": "0x2",
      "transactionHash": "0xa9e5001b543b2da8343dfe4e03f515b0386fe7e642473e1c668edacfdfacbe3c",
      "transactionIndex": "0x4c",
      "blockHash": "0x18b33ca37b48bf321bcc60b49e1eb8f693f481a255e901334d7db788b2fcb59a",
      "blockNumber": "0x72522b",
      "gasUsed": "0x13af8",
      "effectiveGasPrice": "0x3f4e13db4",
      "from": "0xc77f7fed3b5cc8249adc428c5f44c9063b9734b4",
      "to": "0x270e88f8683660553e8ba4eb2ad7c91a1710d769",
      "contractAddress": null
    }
  ],
  "libraries": [],
  "pending": [],
  "returns": {},
  "timestamp": 1736887284,
  "chain": 11155111,
  "commit": "51a374b"
}