{
  "transactions": [
    {
      "hash": "0xd9ab068b6356bcda7c694c81430eaaf6105e57ad4891dfa382591eb49c47f504",
      "transactionType": "CALL",
      "contractName": null,
      "contractAddress": "0x5eb9cc76c3506942c1c0ead70e877dd5e4f00cb0",
      "function": "buy(address)",
      "arguments": [
        "0xC77f7fed3b5Cc8249aDc428c5F44C9063B9734b4"
      ],
      "transaction": {
        "from": "0xc77f7fed3b5cc8249adc428c5f44c9063b9734b4",
        "to": "0x5eb9cc76c3506942c1c0ead70e877dd5e4f00cb0",
        "gas": "0x1b30c",
        "value": "0xde0b6b3a7640000",
        "input": "0xf088d547000000000000000000000000c77f7fed3b5cc8249adc428c5f44c9063b9734b4",
        "nonce": "0x380",
        "chainId": "0xaa36a7"
      },
      "additionalContracts": [],
      "isFixedGasLimit": false
    }
  ],
  "receipts": [
    {
      "status": "0x1",
      "cumulativeGasUsed": "0xe4955d",
      "logs": [
        {
          "address": "0x5eb9cc76c3506942c1c0ead70e877dd5e4f00cb0",
          "topics": [
            "0xddf252ad1be2c89b69c2b068fc378daa952ba7f163c4a11628f55a4df523b3ef",
            "0x0000000000000000000000000000000000000000000000000000000000000000",
            "0x000000000000000000000000c77f7fed3b5cc8249adc428c5f44c9063b9734b4"
          ],
          "data": "0x000000000000000000000000000000000000000000000035754a77df16305d8d",
          "blockHash": "0xbef1f3c955d215ae3e02b59ef2e1b14c6e6e5f6b516fb5d916b13e5bd2d905e0",
          "blockNumber": "0x724f7a",
          "transactionHash": "0xd9ab068b6356bcda7c694c81430eaaf6105e57ad4891dfa382591eb49c47f504",
          "transactionIndex": "0x70",
          "logIndex": "0x88",
          "removed": false
        },
        {
          "address": "0x5eb9cc76c3506942c1c0ead70e877dd5e4f00cb0",
          "topics": [
            "0xddf252ad1be2c89b69c2b068fc378daa952ba7f163c4a11628f55a4df523b3ef",
            "0x0000000000000000000000000000000000000000000000000000000000000000",
            "0x000000000000000000000000c77f7fed3b5cc8249adc428c5f44c9063b9734b4"
          ],
          "data": "0x0000000000000000000000000000000000000000000000002983185dc481d3f1",
          "blockHash": "0xbef1f3c955d215ae3e02b59ef2e1b14c6e6e5f6b516fb5d916b13e5bd2d905e0",
          "blockNumber": "0x724f7a",
          "transactionHash": "0xd9ab068b6356bcda7c694c81430eaaf6105e57ad4891dfa382591eb49c47f504",
          "transactionIndex": "0x70",
          "logIndex": "0x89",
          "removed": false
        },
        {
          "address": "0x5eb9cc76c3506942c1c0ead70e877dd5e4f00cb0",
          "topics": [
            "0x4afcb4a87cdbd9974efdb92ee48bc8d7cd0ae4bf217004db3d080cbaee652ca7"
          ],
          "data": "0x000000000000000000000000000000000000000000000000000000006786ab6c000000000000000000000000000000000000000000000000000391109a8f7a080000000000000000000000000000000000000000000000000de0b6b3a7640000",
          "blockHash": "0xbef1f3c955d215ae3e02b59ef2e1b14c6e6e5f6b516fb5d916b13e5bd2d905e0",
          "blockNumber": "0x724f7a",
          "transactionHash": "0xd9ab068b6356bcda7c694c81430eaaf6105e57ad4891dfa382591eb49c47f504",
          "transactionIndex": "0x70",
          "logIndex": "0x8a",
          "removed": false
        }
      ],
      "logsBloom": "0x00000000000000000000000000000000000000000000000000000000000000000000000000000000000000000000000000000000000000004000000000000000000000000000000000000008000000000000000000000000000000000000000000000000020000000000000004000800020000000000000000000010000000000000000000000000000000000000000000000000000000000000010000000000000000000000000000000000000000004000000000000000000000000000020000000002000000800000008000000000000000000000080000000000000020000000000000000000000000000000000000000000000000000000000000000000",
      "type": "0x2",
      "transactionHash": "0xd9ab068b6356bcda7c694c81430eaaf6105e57ad4891dfa382591eb49c47f504",
      "transactionIndex": "0x70",
      "blockHash": "0xbef1f3c955d215ae3e02b59ef2e1b14c6e6e5f6b516fb5d916b13e5bd2d905e0",
      "blockNumber": "0x724f7a",
      "gasUsed": "0x13af8",
      "effectiveGasPrice": "0x5b07437d9",
      "from": "0xc77f7fed3b5cc8249adc428c5f44c9063b9734b4",
      "to": "0x5eb9cc76c3506942c1c0ead70e877dd5e4f00cb0",
      "contractAddress": null
    }
  ],
  "libraries": [],
  "pending": [],
  "returns": {},
  "timestamp": 1736878957,
  "chain": 11155111,
  "commit": "51a374b"
}