{
  "transactions": [
    {
      "hash": "0x9f43863de31763b9a7fcac6a0d573d5b98e49c6aec602d06edc1391ecb2dd829",
      "transactionType": "CALL",
      "contractName": null,
      "contractAddress": "0xbf4a322f1496e5c3d34a9bcdb4c60567b38c7de2",
      "function": "buy(address)",
      "arguments": [
        "0xC77f7fed3b5Cc8249aDc428c5F44C9063B9734b4"
      ],
      "transaction": {
        "from": "0xc77f7fed3b5cc8249adc428c5f44c9063b9734b4",
        "to": "0xbf4a322f1496e5c3d34a9bcdb4c60567b38c7de2",
        "gas": "0x1b309",
        "value": "0xde0b6b3a7640000",
        "input": "0xf088d547000000000000000000000000c77f7fed3b5cc8249adc428c5f44c9063b9734b4",
        "nonce": "0x996",
        "chainId": "0xaa36a7"
      },
      "additionalContracts": [],
      "isFixedGasLimit": false
    }
  ],
  "receipts": [
    {
      "status": "0x1",
      "cumulativeGasUsed": "0x1043ebc",
      "logs": [
        {
          "address": "0xbf4a322f1496e5c3d34a9bcdb4c60567b38c7de2",
          "topics": [
            "0xddf252ad1be2c89b69c2b068fc378daa952ba7f163c4a11628f55a4df523b3ef",
            "0x0000000000000000000000000000000000000000000000000000000000000000",
            "0x000000000000000000000000c77f7fed3b5cc8249adc428c5f44c9063b9734b4"
          ],
          "data": "0x0000000000000000000000000000000000000000000000356f396763f4407fd2",
          "blockHash": "0x44e17b6e517e553baf606cbe36788b4043ef5a442958fdd7a2184d421a960230",
          "blockNumber": "0x72593d",
          "transactionHash": "0x9f43863de31763b9a7fcac6a0d573d5b98e49c6aec602d06edc1391ecb2dd829",
          "transactionIndex": "0x65",
          "logIndex": "0x91",
          "removed": false
        },
        {
          "address": "0xbf4a322f1496e5c3d34a9bcdb4c60567b38c7de2",
          "topics": [
            "0xddf252ad1be2c89b69c2b068fc378daa952ba7f163c4a11628f55a4df523b3ef",
            "0x0000000000000000000000000000000000000000000000000000000000000000",
            "0x000000000000000000000000c77f7fed3b5cc8249adc428c5f44c9063b9734b4"
          ],
          "data": "0x000000000000000000000000000000000000000000000000297e625bdb47e898",
          "blockHash": "0x44e17b6e517e553baf606cbe36788b4043ef5a442958fdd7a2184d421a960230",
          "blockNumber": "0x72593d",
          "transactionHash": "0x9f43863de31763b9a7fcac6a0d573d5b98e49c6aec602d06edc1391ecb2dd829",
          "transactionIndex": "0x65",
          "logIndex": "0x92",
          "removed": false
        },
        {
          "address": "0xbf4a322f1496e5c3d34a9bcdb4c60567b38c7de2",
          "topics": [
            "0x4afcb4a87cdbd9974efdb92ee48bc8d7cd0ae4bf217004db3d080cbaee652ca7"
          ],
          "data": "0x00000000000000000000000000000000000000000000000000000000678721080000000000000000000000000000000000000000000000000003917a91ba31b80000000000000000000000000000000000000000000000000de0b6b3a7640000",
          "blockHash": "0x44e17b6e517e553baf606cbe36788b4043ef5a442958fdd7a2184d421a960230",
          "blockNumber": "0x72593d",
          "transactionHash": "0x9f43863de31763b9a7fcac6a0d573d5b98e49c6aec602d06edc1391ecb2dd829",
          "transactionIndex": "0x65",
          "logIndex": "0x93",
          "removed": false
        }
      ],
      "logsBloom": "0x00000000000000000000000000000000000000000000000000000000000000000000000000000000000000000000000000000000000000004000000000000000000000000000000000000008000000000000001000000000000000000000000000000000020000000000000000000800020000000000000000000010000000000000000000000000000000000000000000000000000008000000010000000000000000000000000000000000000000004000000000000000000000000000000000000002000000800000000000001000000000000000080000000000000020000000000000000000000000000000000000000000000000000000000000000000",
      "type": "0x2",
      "transactionHash": "0x9f43863de31763b9a7fcac6a0d573d5b98e49c6aec602d06edc1391ecb2dd829",
      "transactionIndex": "0x65",
      "blockHash": "0x44e17b6e517e553baf606cbe36788b4043ef5a442958fdd7a2184d421a960230",
      "blockNumber": "0x72593d",
      "gasUsed": "0x13af6",
      "effectiveGasPrice": "0x276757bc1",
      "from": "0xc77f7fed3b5cc8249adc428c5f44c9063b9734b4",
      "to": "0xbf4a322f1496e5c3d34a9bcdb4c60567b38c7de2",
      "contractAddress": null
    }
  ],
  "libraries": [],
  "pending": [],
  "returns": {},
  "timestamp": 1736909066,
  "chain": 11155111,
  "commit": "51a374b"
}