{
  "transactions": [
    {
      "hash": "0x508a4e255e067ed1b13818e056b930279803c58e2072c119aeff63185e0e2d7f",
      "transactionType": "CALL",
      "contractName": null,
      "contractAddress": "0x8aafd3ede9adb0ff97c7aebce82a919afb1c8764",
      "function": "sell(uint256)",
      "arguments": [
        "44882990151151456"
      ],
      "transaction": {
        "from": "0xc77f7fed3b5cc8249adc428c5f44c9063b9734b4",
        "to": "0x8aafd3ede9adb0ff97c7aebce82a919afb1c8764",
        "gas": "0x1724d",
        "value": "0x0",
        "input": "0xe4849b32000000000000000000000000000000000000000000000000009f74d77c6aaf60",
        "nonce": "0x10ed",
        "chainId": "0xaa36a7"
      },
      "additionalContracts": [],
      "isFixedGasLimit": false
    }
  ],
  "receipts": [
    {
      "status": "0x1",
      "cumulativeGasUsed": "0x95057c",
      "logs": [
        {
          "address": "0x8aafd3ede9adb0ff97c7aebce82a919afb1c8764",
          "topics": [
            "0xddf252ad1be2c89b69c2b068fc378daa952ba7f163c4a11628f55a4df523b3ef",
            "0x000000000000000000000000c77f7fed3b5cc8249adc428c5f44c9063b9734b4",
            "0x0000000000000000000000000000000000000000000000000000000000000000"
          ],
          "data": "0x000000000000000000000000000000000000000000000000009e2e4666f0ffe5",
          "blockHash": "0x75a584141b7f024fa8d0e20ec483f3aaa7a61fbc9021d8c6d4d25ce0d34cc6fe",
          "blockNumber": "0x731793",
          "transactionHash": "0x508a4e255e067ed1b13818e056b930279803c58e2072c119aeff63185e0e2d7f",
          "transactionIndex": "0x87",
          "logIndex": "0x96",
          "removed": false
        },
        {
          "address": "0x8aafd3ede9adb0ff97c7aebce82a919afb1c8764",
          "topics": [
            "0xddf252ad1be2c89b69c2b068fc378daa952ba7f163c4a11628f55a4df523b3ef",
            "0x000000000000000000000000c77f7fed3b5cc8249adc428c5f44c9063b9734b4",
            "0x000000000000000000000000c77f7fed3b5cc8249adc428c5f44c9063b9734b4"
          ],
          "data": "0x000000000000000000000000000000000000000000000000000146911579af7b",
          "blockHash": "0x75a584141b7f024fa8d0e20ec483f3aaa7a61fbc9021d8c6d4d25ce0d34cc6fe",
          "blockNumber": "0x731793",
          "transactionHash": "0x508a4e255e067ed1b13818e056b930279803c58e2072c119aeff63185e0e2d7f",
          "transactionIndex": "0x87",
          "logIndex": "0x97",
          "removed": false
        },
        {
          "address": "0x8aafd3ede9adb0ff97c7aebce82a919afb1c8764",
          "topics": [
            "0x4afcb4a87cdbd9974efdb92ee48bc8d7cd0ae4bf217004db3d080cbaee652ca7"
          ],
          "data": "0x00000000000000000000000000000000000000000000000000000000679017a80000000000000000000000000000000000000000000000000005094105636648000000000000000000000000000000000000000000000000000039dd9611295f",
          "blockHash": "0x75a584141b7f024fa8d0e20ec483f3aaa7a61fbc9021d8c6d4d25ce0d34cc6fe",
          "blockNumber": "0x731793",
          "transactionHash": "0x508a4e255e067ed1b13818e056b930279803c58e2072c119aeff63185e0e2d7f",
          "transactionIndex": "0x87",
          "logIndex": "0x98",
          "removed": false
        }
      ],
      "logsBloom": "0x00000000000000000000000000000000000000000600000000000000000000000000000000000000000000000000000000000000000000004000000000000000000000000000004000000008000000000000000000000000000000000000000000000000020000000000000000000800020000000000000000000010000000000000000000000000000000000000000000000000000000000000010000000000000000000000000000000000000000004000000000000000000000000000000000000002000000800000000000000000000000000000080000000000000020000000000000000000000000000000000000000000000000000000000000000000",
      "type": "0x2",
      "transactionHash": "0x508a4e255e067ed1b13818e056b930279803c58e2072c119aeff63185e0e2d7f",
      "transactionIndex": "0x87",
      "blockHash": "0x75a584141b7f024fa8d0e20ec483f3aaa7a61fbc9021d8c6d4d25ce0d34cc6fe",
      "blockNumber": "0x731793",
      "gasUsed": "0xfd33",
      "effectiveGasPrice": "0x4985176d",
      "from": "0xc77f7fed3b5cc8249adc428c5f44c9063b9734b4",
      "to": "0x8aafd3ede9adb0ff97c7aebce82a919afb1c8764",
      "contractAddress": null
    }
  ],
  "libraries": [],
  "pending": [],
  "returns": {},
  "timestamp": 1737496490,
  "chain": 11155111,
  "commit": "1d2fb70"
}