{
  "transactions": [
    {
      "hash": "0xd5ece843540bb240481339ddfa15dc57cc476ff597e04508519ea3696b826e5c",
      "transactionType": "CALL",
      "contractName": null,
      "contractAddress": "0x270e88f8683660553e8ba4eb2ad7c91a1710d769",
      "function": "sell(uint256)",
      "arguments": [
        "744936806350169698938"
      ],
      "transaction": {
        "from": "0xc77f7fed3b5cc8249adc428c5f44c9063b9734b4",
        "to": "0x270e88f8683660553e8ba4eb2ad7c91a1710d769",
        "gas": "0x16fec",
        "value": "0x0",
        "input": "0xe4849b3200000000000000000000000000000000000000000000002862132e87f7d1f27a",
        "nonce": "0x704",
        "chainId": "0xaa36a7"
      },
      "additionalContracts": [],
      "isFixedGasLimit": false
    }
  ],
  "receipts": [
    {
      "status": "0x1",
      "cumulativeGasUsed": "0x14f363c",
      "logs": [
        {
          "address": "0x270e88f8683660553e8ba4eb2ad7c91a1710d769",
          "topics": [
            "0xddf252ad1be2c89b69c2b068fc378daa952ba7f163c4a11628f55a4df523b3ef",
            "0x000000000000000000000000c77f7fed3b5cc8249adc428c5f44c9063b9734b4",
            "0x0000000000000000000000000000000000000000000000000000000000000000"
          ],
          "data": "0x00000000000000000000000000000000000000000000002862132e87f7d1f27a",
          "blockHash": "0x1c1b95ba39359fed6bf2f70a1959fe5797c1f4d2277f3cbc38085b6d5bbc0e4d",
          "blockNumber": "0x72541a",
          "transactionHash": "0xd5ece843540bb240481339ddfa15dc57cc476ff597e04508519ea3696b826e5c",
          "transactionIndex": "0x3f",
          "logIndex": "0x5a",
          "removed": false
        },
        {
          "address": "0x270e88f8683660553e8ba4eb2ad7c91a1710d769",
          "topics": [
            "0x4afcb4a87cdbd9974efdb92ee48bc8d7cd0ae4bf217004db3d080cbaee652ca7"
          ],
          "data": "0x000000000000000000000000000000000000000000000000000000006786e3400000000000000000000000000000000000000000000000000004bca6f030b4ec0000000000000000000000000000000000000000000000000dc82902c2d3f390",
          "blockHash": "0x1c1b95ba39359fed6bf2f70a1959fe5797c1f4d2277f3cbc38085b6d5bbc0e4d",
          "blockNumber": "0x72541a",
          "transactionHash": "0xd5ece843540bb240481339ddfa15dc57cc476ff597e04508519ea3696b826e5c",
          "transactionIndex": "0x3f",
          "logIndex": "0x5b",
          "removed": false
        }
      ],
      "logsBloom": "0x00000000000000000000000000000000000000000000000000000000000000000000000000000000000000000000000020000000000000004000000000000000000000000000000000000008000000000000000000000000000000000000000000000000020000000000000000000800020000000000000000000010000000000000000000010000000000000000000000000000000000000000010000000000000000000000000000000000000000004000000000000000000000000000000000000002000000800000000000000000000000000000080000008000000020000000000000000000000000000000000000000000000000000000000000000000",
      "type": "0x2",
      "transactionHash": "0xd5ece843540bb240481339ddfa15dc57cc476ff597e04508519ea3696b826e5c",
      "transactionIndex": "0x3f",
      "blockHash": "0x1c1b95ba39359fed6bf2f70a1959fe5797c1f4d2277f3cbc38085b6d5bbc0e4d",
      "blockNumber": "0x72541a",
      "gasUsed": "0xfb93",
      "effectiveGasPrice": "0x144f45c95",
      "from": "0xc77f7fed3b5cc8249adc428c5f44c9063b9734b4",
      "to": "0x270e88f8683660553e8ba4eb2ad7c91a1710d769",
      "contractAddress": null
    }
  ],
  "libraries": [],
  "pending": [],
  "returns": {},
  "timestamp": 1736893249,
  "chain": 11155111,
  "commit": "51a374b"
}