{
  "transactions": [
    {
      "hash": "0x823766646c1a01d8a937f08c10899986d0039ed066dffe261562d57eb2b3036a",
      "transactionType": "CALL",
      "contractName": null,
      "contractAddress": "0x8aafd3ede9adb0ff97c7aebce82a919afb1c8764",
      "function": "sell(uint256)",
      "arguments": [
        "48021865201582289"
      ],
      "transaction": {
        "from": "0xc77f7fed3b5cc8249adc428c5f44c9063b9734b4",
        "to": "0x8aafd3ede9adb0ff97c7aebce82a919afb1c8764",
        "gas": "0x1724d",
        "value": "0x0",
        "input": "0xe4849b3200000000000000000000000000000000000000000000000000aa9ba1c8cac0d1",
        "nonce": "0xe4e",
        "chainId": "0xaa36a7"
      },
      "additionalContracts": [],
      "isFixedGasLimit": false
    }
  ],
  "receipts": [
    {
      "status": "0x1",
      "cumulativeGasUsed": "0xaf1fe6",
      "logs": [
        {
          "address": "0x8aafd3ede9adb0ff97c7aebce82a919afb1c8764",
          "topics": [
            "0xddf252ad1be2c89b69c2b068fc378daa952ba7f163c4a11628f55a4df523b3ef",
            "0x000000000000000000000000c77f7fed3b5cc8249adc428c5f44c9063b9734b4",
            "0x0000000000000000000000000000000000000000000000000000000000000000"
          ],
          "data": "0x00000000000000000000000000000000000000000000000000a93e3a170ec35f",
          "blockHash": "0x6d98d567aabcba5abc2b2b49c4a6e70f154f6e92764ed6a02e94f2d5e0ca039b",
          "blockNumber": "0x7313a0",
          "transactionHash": "0x823766646c1a01d8a937f08c10899986d0039ed066dffe261562d57eb2b3036a",
          "transactionIndex": "0x86",
          "logIndex": "0xb2",
          "removed": false
        },
        {
          "address": "0x8aafd3ede9adb0ff97c7aebce82a919afb1c8764",
          "topics": [
            "0xddf252ad1be2c89b69c2b068fc378daa952ba7f163c4a11628f55a4df523b3ef",
            "0x000000000000000000000000c77f7fed3b5cc8249adc428c5f44c9063b9734b4",
            "0x000000000000000000000000c77f7fed3b5cc8249adc428c5f44c9063b9734b4"
          ],
          "data": "0x00000000000000000000000000000000000000000000000000015d67b1bbfd72",
          "blockHash": "0x6d98d567aabcba5abc2b2b49c4a6e70f154f6e92764ed6a02e94f2d5e0ca039b",
          "blockNumber": "0x7313a0",
          "transactionHash": "0x823766646c1a01d8a937f08c10899986d0039ed066dffe261562d57eb2b3036a",
          "transactionIndex": "0x86",
          "logIndex": "0xb3",
          "removed": false
        },
        {
          "address": "0x8aafd3ede9adb0ff97c7aebce82a919afb1c8764",
          "topics": [
            "0x4afcb4a87cdbd9974efdb92ee48bc8d7cd0ae4bf217004db3d080cbaee652ca7"
          ],
          "data": "0x00000000000000000000000000000000000000000000000000000000678fe8140000000000000000000000000000000000000000000000000004b40ac35939dd000000000000000000000000000000000000000000000000000039d2020d1543",
          "blockHash": "0x6d98d567aabcba5abc2b2b49c4a6e70f154f6e92764ed6a02e94f2d5e0ca039b",
          "blockNumber": "0x7313a0",
          "transactionHash": "0x823766646c1a01d8a937f08c10899986d0039ed066dffe261562d57eb2b3036a",
          "transactionIndex": "0x86",
          "logIndex": "0xb4",
          "removed": false
        }
      ],
      "logsBloom": "0x00000000000000000000000000000000000000000600000000000000000000000000000000000000000000000000000000000000000000004000000000000000000000000000004000000008000000000000000000000000000000000000000000000000020000000000000000000800020000000000000000000010000000000000000000000000000000000000000000000000000000000000010000000000000000000000000000000000000000004000000000000000000000000000000000000002000000800000000000000000000000000000080000000000000020000000000000000000000000000000000000000000000000000000000000000000",
      "type": "0x2",
      "transactionHash": "0x823766646c1a01d8a937f08c10899986d0039ed066dffe261562d57eb2b3036a",
      "transactionIndex": "0x86",
      "blockHash": "0x6d98d567aabcba5abc2b2b49c4a6e70f154f6e92764ed6a02e94f2d5e0ca039b",
      "blockNumber": "0x7313a0",
      "gasUsed": "0xfd33",
      "effectiveGasPrice": "0x83931590",
      "from": "0xc77f7fed3b5cc8249adc428c5f44c9063b9734b4",
      "to": "0x8aafd3ede9adb0ff97c7aebce82a919afb1c8764",
      "contractAddress": null
    }
  ],
  "libraries": [],
  "pending": [],
  "returns": {},
  "timestamp": 1737484309,
  "chain": 11155111,
  "commit": "51a374b"
}