{
  "transactions": [
    {
      "hash": "0x03f9df0883db1942c31084150f6ab4bc2014eace02a7910b480e519d4f3fe85b",
      "transactionType": "CALL",
      "contractName": null,
      "contractAddress": "0x5eb9cc76c3506942c1c0ead70e877dd5e4f00cb0",
      "function": "sell(uint256)",
      "arguments": [
        "989159282072842878374"
      ],
      "transaction": {
        "from": "0xc77f7fed3b5cc8249adc428c5f44c9063b9734b4",
        "to": "0x5eb9cc76c3506942c1c0ead70e877dd5e4f00cb0",
        "gas": "0x16fec",
        "value": "0x0",
        "input": "0xe4849b320000000000000000000000000000000000000000000000359f57b64138373da6",
        "nonce": "0x28d",
        "chainId": "0xaa36a7"
      },
      "additionalContracts": [],
      "isFixedGasLimit": false
    }
  ],
  "receipts": [
    {
      "status": "0x1",
      "cumulativeGasUsed": "0xd59418",
      "logs": [
        {
          "address": "0x5eb9cc76c3506942c1c0ead70e877dd5e4f00cb0",
          "topics": [
            "0xddf252ad1be2c89b69c2b068fc378daa952ba7f163c4a11628f55a4df523b3ef",
            "0x000000000000000000000000c77f7fed3b5cc8249adc428c5f44c9063b9734b4",
            "0x0000000000000000000000000000000000000000000000000000000000000000"
          ],
          "data": "0x0000000000000000000000000000000000000000000000359f57b64138373da6",
          "blockHash": "0x8c8496d95d460cde8d099a494638989c8cadc733185a264b226039a423f028b3",
          "blockNumber": "0x724e5c",
          "transactionHash": "0x03f9df0883db1942c31084150f6ab4bc2014eace02a7910b480e519d4f3fe85b",
          "transactionIndex": "0x6f",
          "logIndex": "0xc5",
          "removed": false
        },
        {
          "address": "0x5eb9cc76c3506942c1c0ead70e877dd5e4f00cb0",
          "topics": [
            "0x4afcb4a87cdbd9974efdb92ee48bc8d7cd0ae4bf217004db3d080cbaee652ca7"
          ],
          "data": "0x0000000000000000000000000000000000000000000000000000000067869e0400000000000000000000000000000000000000000000000000039107768b7f120000000000000000000000000000000000000000000000000dc7db133250eeda",
          "blockHash": "0x8c8496d95d460cde8d099a494638989c8cadc733185a264b226039a423f028b3",
          "blockNumber": "0x724e5c",
          "transactionHash": "0x03f9df0883db1942c31084150f6ab4bc2014eace02a7910b480e519d4f3fe85b",
          "transactionIndex": "0x6f",
          "logIndex": "0xc6",
          "removed": false
        }
      ],
      "logsBloom": "0x00000000000000000000000000000000000000000000000000000000000000000000000000000000000000000000000000000000000000004000000000000000000000000000000000000008000000000000000000000000000000000000000000000000020000000000000004000800020000000000000000000010000000000000000000000000000000000000000000000000000000000000010000000000000000000000000000000000000000004000000000000000000000000000020000000002000000800000008000000000000000000000080000000000000020000000000000000000000000000000000000000000000000000000000000000000",
      "type": "0x2",
      "transactionHash": "0x03f9df0883db1942c31084150f6ab4bc2014eace02a7910b480e519d4f3fe85b",
      "transactionIndex": "0x6f",
      "blockHash": "0x8c8496d95d460cde8d099a494638989c8cadc733185a264b226039a423f028b3",
      "blockNumber": "0x724e5c",
      "gasUsed": "0xfb93",
      "effectiveGasPrice": "0x3e53507f1",
      "from": "0xc77f7fed3b5cc8249adc428c5f44c9063b9734b4",
      "to": "0x5eb9cc76c3506942c1c0ead70e877dd5e4f00cb0",
      "contractAddress": null
    }
  ],
  "libraries": [],
  "pending": [],
  "returns": {},
  "timestamp": 1736875525,
  "chain": 11155111,
  "commit": "51a374b"
}