{
  "transactions": [
    {
      "hash": "0x0926e8a08bc2758008c2710a16d42be827dfe433ca03b4d055debc4e9a5dc141",
      "transactionType": "CALL",
      "contractName": null,
      "contractAddress": "0x8aafd3ede9adb0ff97c7aebce82a919afb1c8764",
      "function": "sell(uint256)",
      "arguments": [
        "348450668501693"
      ],
      "transaction": {
        "from": "0xc77f7fed3b5cc8249adc428c5f44c9063b9734b4",
        "to": "0x8aafd3ede9adb0ff97c7aebce82a919afb1c8764",
        "gas": "0x1724d",
        "value": "0x0",
        "input": "0xe4849b3200000000000000000000000000000000000000000000000000013ce9fe515abd",
        "nonce": "0x11fc",
        "chainId": "0xaa36a7"
      },
      "additionalContracts": [],
      "isFixedGasLimit": false
    }
  ],
  "receipts": [
    {
      "status": "0x1",
      "cumulativeGasUsed": "0x99d746",
      "logs": [
        {
          "address": "0x8aafd3ede9adb0ff97c7aebce82a919afb1c8764",
          "topics": [
            "0xddf252ad1be2c89b69c2b068fc378daa952ba7f163c4a11628f55a4df523b3ef",
            "0x000000000000000000000000c77f7fed3b5cc8249adc428c5f44c9063b9734b4",
            "0x0000000000000000000000000000000000000000000000000000000000000000"
          ],
          "data": "0x00000000000000000000000000000000000000000000000000013a60f4175c10",
          "blockHash": "0xb514c22fec255c87fce94213fd0415c3773c904f3fe239027659093af0a453f3",
          "blockNumber": "0x7318d6",
          "transactionHash": "0x0926e8a08bc2758008c2710a16d42be827dfe433ca03b4d055debc4e9a5dc141",
          "transactionIndex": "0x84",
          "logIndex": "0x9d",
          "removed": false
        },
        {
          "address": "0x8aafd3ede9adb0ff97c7aebce82a919afb1c8764",
          "topics": [
            "0xddf252ad1be2c89b69c2b068fc378daa952ba7f163c4a11628f55a4df523b3ef",
            "0x000000000000000000000000c77f7fed3b5cc8249adc428c5f44c9063b9734b4",
            "0x000000000000000000000000c77f7fed3b5cc8249adc428c5f44c9063b9734b4"
          ],
          "data": "0x000000000000000000000000000000000000000000000000000002890a39fead",
          "blockHash": "0xb514c22fec255c87fce94213fd0415c3773c904f3fe239027659093af0a453f3",
          "blockNumber": "0x7318d6",
          "transactionHash": "0x0926e8a08bc2758008c2710a16d42be827dfe433ca03b4d055debc4e9a5dc141",
          "transactionIndex": "0x84",
          "logIndex": "0x9e",
          "removed": false
        },
        {
          "address": "0x8aafd3ede9adb0ff97c7aebce82a919afb1c8764",
          "topics": [
            "0x4afcb4a87cdbd9974efdb92ee48bc8d7cd0ae4bf217004db3d080cbaee652ca7"
          ],
          "data": "0x00000000000000000000000000000000000000000000000000000000679026d80000000000000000000000000000000000000000000000000005307a9a9e97ef00000000000000000000000000000000000000000000000000000076813a7578",
          "blockHash": "0xb514c22fec255c87fce94213fd0415c3773c904f3fe239027659093af0a453f3",
          "blockNumber": "0x7318d6",
          "transactionHash": "0x0926e8a08bc2758008c2710a16d42be827dfe433ca03b4d055debc4e9a5dc141",
          "transactionIndex": "0x84",
          "logIndex": "0x9f",
          "removed": false
        }
      ],
      "logsBloom": "0x00000000000000000000000000000000000000000600000000000000000000000000000000000000000000000000000000000000000000004000000000000000000000000000004000000008000000000000000000000000000000000000000000000000020000000000000000000800020000000000000000000010000000000000000000000000000000000000000000000000000000000000010000000000000000000000000000000000000000004000000000000000000000000000000000000002000000800000000000000000000000000000080000000000000020000000000000000000000000000000000000000000000000000000000000000000",
      "type": "0x2",
      "transactionHash": "0x0926e8a08bc2758008c2710a16d42be827dfe433ca03b4d055debc4e9a5dc141",
      "transactionIndex": "0x84",
      "blockHash": "0xb514c22fec255c87fce94213fd0415c3773c904f3fe239027659093af0a453f3",
      "blockNumber": "0x7318d6",
      "gasUsed": "0xfd33",
      "effectiveGasPrice": "0x3a82fba8",
      "from": "0xc77f7fed3b5cc8249adc428c5f44c9063b9734b4",
      "to": "0x8aafd3ede9adb0ff97c7aebce82a919afb1c8764",
      "contractAddress": null
    }
  ],
  "libraries": [],
  "pending": [],
  "returns": {},
  "timestamp": 1737500378,
  "chain": 11155111,
  "commit": "1d2fb70"
}