{
  "transactions": [
    {
      "hash": "0x0e4aa62029877bc52de01a45b0fd5f825281b8bb7eb22dd8b8a07926b4db52bb",
      "transactionType": "CALL",
      "contractName": null,
      "contractAddress": "0x8aafd3ede9adb0ff97c7aebce82a919afb1c8764",
      "function": "sell(uint256)",
      "arguments": [
        "345424721971743"
      ],
      "transaction": {
        "from": "0xc77f7fed3b5cc8249adc428c5f44c9063b9734b4",
        "to": "0x8aafd3ede9adb0ff97c7aebce82a919afb1c8764",
        "gas": "0x1724d",
        "value": "0x0",
        "input": "0xe4849b3200000000000000000000000000000000000000000000000000013a2975d98a1f",
        "nonce": "0x124c",
        "chainId": "0xaa36a7"
      },
      "additionalContracts": [],
      "isFixedGasLimit": false
    }
  ],
  "receipts": [
    {
      "status": "0x1",
      "cumulativeGasUsed": "0xea8b08",
      "logs": [
        {
          "address": "0x8aafd3ede9adb0ff97c7aebce82a919afb1c8764",
          "topics": [
            "0xddf252ad1be2c89b69c2b068fc378daa952ba7f163c4a11628f55a4df523b3ef",
            "0x000000000000000000000000c77f7fed3b5cc8249adc428c5f44c9063b9734b4",
            "0x0000000000000000000000000000000000000000000000000000000000000000"
          ],
          "data": "0x000000000000000000000000000000000000000000000000000137a60e81c882",
          "blockHash": "0x13d88d6e051697204278bef0dcd3c1f8e4f71126fa3c0d8af899d82d763fa2cc",
          "blockNumber": "0x73192f",
          "transactionHash": "0x0e4aa62029877bc52de01a45b0fd5f825281b8bb7eb22dd8b8a07926b4db52bb",
          "transactionIndex": "0xbe",
          "logIndex": "0x105",
          "removed": false
        },
        {
          "address": "0x8aafd3ede9adb0ff97c7aebce82a919afb1c8764",
          "topics": [
            "0xddf252ad1be2c89b69c2b068fc378daa952ba7f163c4a11628f55a4df523b3ef",
            "0x000000000000000000000000c77f7fed3b5cc8249adc428c5f44c9063b9734b4",
            "0x000000000000000000000000c77f7fed3b5cc8249adc428c5f44c9063b9734b4"
          ],
          "data": "0x000000000000000000000000000000000000000000000000000002836757c19d",
          "blockHash": "0x13d88d6e051697204278bef0dcd3c1f8e4f71126fa3c0d8af899d82d763fa2cc",
          "blockNumber": "0x73192f",
          "transactionHash": "0x0e4aa62029877bc52de01a45b0fd5f825281b8bb7eb22dd8b8a07926b4db52bb",
          "transactionIndex": "0xbe",
          "logIndex": "0x106",
          "removed": false
        },
        {
          "address": "0x8aafd3ede9adb0ff97c7aebce82a919afb1c8764",
          "topics": [
            "0x4afcb4a87cdbd9974efdb92ee48bc8d7cd0ae4bf217004db3d080cbaee652ca7"
          ],
          "data": "0x0000000000000000000000000000000000000000000000000000000067902b0400000000000000000000000000000000000000000000000000053c1a9ad5b6e30000000000000000000000000000000000000000000000000000007680f199e9",
          "blockHash": "0x13d88d6e051697204278bef0dcd3c1f8e4f71126fa3c0d8af899d82d763fa2cc",
          "blockNumber": "0x73192f",
          "transactionHash": "0x0e4aa62029877bc52de01a45b0fd5f825281b8bb7eb22dd8b8a07926b4db52bb",
          "transactionIndex": "0xbe",
          "logIndex": "0x107",
          "removed": false
        }
      ],
      "logsBloom": "0x00000000000000000000000000000000000000000600000000000000000000000000000000000000000000000000000000000000000000004000000000000000000000000000004000000008000000000000000000000000000000000000000000000000020000000000000000000800020000000000000000000010000000000000000000000000000000000000000000000000000000000000010000000000000000000000000000000000000000004000000000000000000000000000000000000002000000800000000000000000000000000000080000000000000020000000000000000000000000000000000000000000000000000000000000000000",
      "type": "0x2",
      "transactionHash": "0x0e4aa62029877bc52de01a45b0fd5f825281b8bb7eb22dd8b8a07926b4db52bb",
      "transactionIndex": "0xbe",
      "blockHash": "0x13d88d6e051697204278bef0dcd3c1f8e4f71126fa3c0d8af899d82d763fa2cc",
      "blockNumber": "0x73192f",
      "gasUsed": "0xfd33",
      "effectiveGasPrice": "0x3dcb6eb0",
      "from": "0xc77f7fed3b5cc8249adc428c5f44c9063b9734b4",
      "to": "0x8aafd3ede9adb0ff97c7aebce82a919afb1c8764",
      "contractAddress": null
    }
  ],
  "libraries": [],
  "pending": [],
  "returns": {},
  "timestamp": 1737501447,
  "chain": 11155111,
  "commit": "1d2fb70"
}