{
  "transactions": [
    {
      "hash": "0x661772409d4fd1d3d728e866669f6cb23c5a2650a858e7b118aa34196f9b0b3b",
      "transactionType": "CALL",
      "contractName": null,
      "contractAddress": "0x5eb9cc76c3506942c1c0ead70e877dd5e4f00cb0",
      "function": "sell(uint256)",
      "arguments": [
        "989095855908426426743"
      ],
      "transaction": {
        "from": "0xc77f7fed3b5cc8249adc428c5f44c9063b9734b4",
        "to": "0x5eb9cc76c3506942c1c0ead70e877dd5e4f00cb0",
        "gas": "0x16fec",
        "value": "0x0",
        "input": "0xe4849b320000000000000000000000000000000000000000000000359e76607e88b52977",
        "nonce": "0x41b",
        "chainId": "0xaa36a7"
      },
      "additionalContracts": [],
      "isFixedGasLimit": false
    }
  ],
  "receipts": [
    {
      "status": "0x1",
      "cumulativeGasUsed": "0x6e6056",
      "logs": [
        {
          "address": "0x5eb9cc76c3506942c1c0ead70e877dd5e4f00cb0",
          "topics": [
            "0xddf252ad1be2c89b69c2b068fc378daa952ba7f163c4a11628f55a4df523b3ef",
            "0x000000000000000000000000c77f7fed3b5cc8249adc428c5f44c9063b9734b4",
            "0x0000000000000000000000000000000000000000000000000000000000000000"
          ],
          "data": "0x0000000000000000000000000000000000000000000000359e76607e88b52977",
          "blockHash": "0x75505571c49bfd28cae6b7f2fcbef415f4ed0b71a23a672b8845f33b71e62f59",
          "blockNumber": "0x72502f",
          "transactionHash": "0x661772409d4fd1d3d728e866669f6cb23c5a2650a858e7b118aa34196f9b0b3b",
          "transactionIndex": "0x4e",
          "logIndex": "0x75",
          "removed": false
        },
        {
          "address": "0x5eb9cc76c3506942c1c0ead70e877dd5e4f00cb0",
          "topics": [
            "0x4afcb4a87cdbd9974efdb92ee48bc8d7cd0ae4bf217004db3d080cbaee652ca7"
          ],
          "data": "0x000000000000000000000000000000000000000000000000000000006786b4000000000000000000000000000000000000000000000000000003911673919c080000000000000000000000000000000000000000000000000dc7db1331e0130d",
          "blockHash": "0x75505571c49bfd28cae6b7f2fcbef415f4ed0b71a23a672b8845f33b71e62f59",
          "blockNumber": "0x72502f",
          "transactionHash": "0x661772409d4fd1d3d728e866669f6cb23c5a2650a858e7b118aa34196f9b0b3b",
          "transactionIndex": "0x4e",
          "logIndex": "0x76",
          "removed": false
        }
      ],
      "logsBloom": "0x00000000000000000000000000000000000000000000000000000000000000000000000000000000000000000000000000000000000000004000000000000000000000000000000000000008000000000000000000000000000000000000000000000000020000000000000004000800020000000000000000000010000000000000000000000000000000000000000000000000000000000000010000000000000000000000000000000000000000004000000000000000000000000000020000000002000000800000008000000000000000000000080000000000000020000000000000000000000000000000000000000000000000000000000000000000",
      "type": "0x2",
      "transactionHash": "0x661772409d4fd1d3d728e866669f6cb23c5a2650a858e7b118aa34196f9b0b3b",
      "transactionIndex": "0x4e",
      "blockHash": "0x75505571c49bfd28cae6b7f2fcbef415f4ed0b71a23a672b8845f33b71e62f59",
      "blockNumber": "0x72502f",
      "gasUsed": "0xfb93",
      "effectiveGasPrice": "0x32bf96c2e",
      "from": "0xc77f7fed3b5cc8249adc428c5f44c9063b9734b4",
      "to": "0x5eb9cc76c3506942c1c0ead70e877dd5e4f00cb0",
      "contractAddress": null
    }
  ],
  "libraries": [],
  "pending": [],
  "returns": {},
  "timestamp": 1736881153,
  "chain": 11155111,
  "commit": "51a374b"
}