{
  "transactions": [
    {
      "hash": "0x989f79336cd0a7bb9455a1c1e18df1c45451b35d341e3a7c2b9c9b35ea263476",
      "transactionType": "CALL",
      "contractName": null,
      "contractAddress": "0xbf4a322f1496e5c3d34a9bcdb4c60567b38c7de2",
      "function": "sell(uint256)",
      "arguments": [
        "973000677051008221776"
      ],
      "transaction": {
        "from": "0xc77f7fed3b5cc8249adc428c5f44c9063b9734b4",
        "to": "0xbf4a322f1496e5c3d34a9bcdb4c60567b38c7de2",
        "gas": "0x16fea",
        "value": "0x0",
        "input": "0xe4849b32000000000000000000000000000000000000000000000034bf18d0996feb0250",
        "nonce": "0xe25",
        "chainId": "0xaa36a7"
      },
      "additionalContracts": [],
      "isFixedGasLimit": false
    }
  ],
  "receipts": [
    {
      "status": "0x1",
      "cumulativeGasUsed": "0xea2ba4",
      "logs": [
        {
          "address": "0xbf4a322f1496e5c3d34a9bcdb4c60567b38c7de2",
          "topics": [
            "0xddf252ad1be2c89b69c2b068fc378daa952ba7f163c4a11628f55a4df523b3ef",
            "0x000000000000000000000000c77f7fed3b5cc8249adc428c5f44c9063b9734b4",
            "0x0000000000000000000000000000000000000000000000000000000000000000"
          ],
          "data": "0x000000000000000000000000000000000000000000000034bf18d0996feb0250",
          "blockHash": "0xa9063a1ff432c9cbb9028bf38dccc48f7101ea9c965a63b8a501beed14b15b34",
          "blockNumber": "0x726714",
          "transactionHash": "0x989f79336cd0a7bb9455a1c1e18df1c45451b35d341e3a7c2b9c9b35ea263476",
          "transactionIndex": "0x64",
          "logIndex": "0xc5",
          "removed": false
        },
        {
          "address": "0xbf4a322f1496e5c3d34a9bcdb4c60567b38c7de2",
          "topics": [
            "0x4afcb4a87cdbd9974efdb92ee48bc8d7cd0ae4bf217004db3d080cbaee652ca7"
          ],
          "data": "0x000000000000000000000000000000000000000000000000000000006787c8600000000000000000000000000000000000000000000000000003a0377ddf737c0000000000000000000000000000000000000000000000000dc7e3d1cae1dd78",
          "blockHash": "0xa9063a1ff432c9cbb9028bf38dccc48f7101ea9c965a63b8a501beed14b15b34",
          "blockNumber": "0x726714",
          "transactionHash": "0x989f79336cd0a7bb9455a1c1e18df1c45451b35d341e3a7c2b9c9b35ea263476",
          "transactionIndex": "0x64",
          "logIndex": "0xc6",
          "removed": false
        }
      ],
      "logsBloom": "0x00000000000000000000000000000000000000000000000000000000000000000000000000000000000000000000000000000000000000004000000000000000000000000000000000000008000000000000001000000000000000000000000000000000020000000000000000000800020000000000000000000010000000000000000000000000000000000000000000000000000008000000010000000000000000000000000000000000000000004000000000000000000000000000000000000002000000800000000000001000000000000000080000000000000020000000000000000000000000000000000000000000000000000000000000000000",
      "type": "0x2",
      "transactionHash": "0x989f79336cd0a7bb9455a1c1e18df1c45451b35d341e3a7c2b9c9b35ea263476",
      "transactionIndex": "0x64",
      "blockHash": "0xa9063a1ff432c9cbb9028bf38dccc48f7101ea9c965a63b8a501beed14b15b34",
      "blockNumber": "0x726714",
      "gasUsed": "0xfb91",
      "effectiveGasPrice": "0x4ee2059d5",
      "from": "0xc77f7fed3b5cc8249adc428c5f44c9063b9734b4",
      "to": "0xbf4a322f1496e5c3d34a9bcdb4c60567b38c7de2",
      "contractAddress": null
    }
  ],
  "libraries": [],
  "pending": [],
  "returns": {},
  "timestamp": 1736951905,
  "chain": 11155111,
  "commit": "51a374b"
}