{
  "transactions": [
    {
      "hash": "0x141fbbcae9267fc7264c05f63796ea6ce702e7a51bc4d2a42827ae9ceb07ab4a",
      "transactionType": "CALL",
      "contractName": null,
      "contractAddress": "0xbf4a322f1496e5c3d34a9bcdb4c60567b38c7de2",
      "function": "sell(uint256)",
      "arguments": [
        "973901523921397834618"
      ],
      "transaction": {
        "from": "0xc77f7fed3b5cc8249adc428c5f44c9063b9734b4",
        "to": "0xbf4a322f1496e5c3d34a9bcdb4c60567b38c7de2",
        "gas": "0x16fea",
        "value": "0x0",
        "input": "0xe4849b32000000000000000000000000000000000000000000000034cb99440e1a83637a",
        "nonce": "0xde1",
        "chainId": "0xaa36a7"
      },
      "additionalContracts": [],
      "isFixedGasLimit": false
    }
  ],
  "receipts": [
    {
      "status": "0x1",
      "cumulativeGasUsed": "0x142ddb7",
      "logs": [
        {
          "address": "0xbf4a322f1496e5c3d34a9bcdb4c60567b38c7de2",
          "topics": [
            "0xddf252ad1be2c89b69c2b068fc378daa952ba7f163c4a11628f55a4df523b3ef",
            "0x000000000000000000000000c77f7fed3b5cc8249adc428c5f44c9063b9734b4",
            "0x0000000000000000000000000000000000000000000000000000000000000000"
          ],
          "data": "0x000000000000000000000000000000000000000000000034cb99440e1a83637a",
          "blockHash": "0x697e4ce1a0a3fac6b633c8f1777825cfa89e8e8b75845b621ecfe798a343ff14",
          "blockNumber": "0x7266c0",
          "transactionHash": "0x141fbbcae9267fc7264c05f63796ea6ce702e7a51bc4d2a42827ae9ceb07ab4a",
          "transactionIndex": "0x56",
          "logIndex": "0xa1",
          "removed": false
        },
        {
          "address": "0xbf4a322f1496e5c3d34a9bcdb4c60567b38c7de2",
          "topics": [
            "0x4afcb4a87cdbd9974efdb92ee48bc8d7cd0ae4bf217004db3d080cbaee652ca7"
          ],
          "data": "0x000000000000000000000000000000000000000000000000000000006787c40400000000000000000000000000000000000000000000000000039f5bb2e97acc0000000000000000000000000000000000000000000000000dc7e3d3e3156dd0",
          "blockHash": "0x697e4ce1a0a3fac6b633c8f1777825cfa89e8e8b75845b621ecfe798a343ff14",
          "blockNumber": "0x7266c0",
          "transactionHash": "0x141fbbcae9267fc7264c05f63796ea6ce702e7a51bc4d2a42827ae9ceb07ab4a",
          "transactionIndex": "0x56",
          "logIndex": "0xa2",
          "removed": false
        }
      ],
      "logsBloom": "0x00000000000000000000000000000000000000000000000000000000000000000000000000000000000000000000000000000000000000004000000000000000000000000000000000000008000000000000001000000000000000000000000000000000020000000000000000000800020000000000000000000010000000000000000000000000000000000000000000000000000008000000010000000000000000000000000000000000000000004000000000000000000000000000000000000002000000800000000000001000000000000000080000000000000020000000000000000000000000000000000000000000000000000000000000000000",
      "type": "0x2",
      "transactionHash": "0x141fbbcae9267fc7264c05f63796ea6ce702e7a51bc4d2a42827ae9ceb07ab4a",
      "transactionIndex": "0x56",
      "blockHash": "0x697e4ce1a0a3fac6b633c8f1777825cfa89e8e8b75845b621ecfe798a343ff14",
      "blockNumber": "0x7266c0",
      "gasUsed": "0xfb91",
      "effectiveGasPrice": "0x20b68135c",
      "from": "0xc77f7fed3b5cc8249adc428c5f44c9063b9734b4",
      "to": "0xbf4a322f1496e5c3d34a9bcdb4c60567b38c7de2",
      "contractAddress": null
    }
  ],
  "libraries": [],
  "pending": [],
  "returns": {},
  "timestamp": 1736950789,
  "chain": 11155111,
  "commit": "51a374b"
}