{
  "transactions": [
    {
      "hash": "0x8eaa6dfbda6ff1f48478cb8a46fa2cd5b0a750c799c898105c818975171a9bdb",
      "transactionType": "CALL",
      "contractName": null,
      "contractAddress": "0xbf4a322f1496e5c3d34a9bcdb4c60567b38c7de2",
      "function": "sell(uint256)",
      "arguments": [
        "977014281115662834474"
      ],
      "transaction": {
        "from": "0xc77f7fed3b5cc8249adc428c5f44c9063b9734b4",
        "to": "0xbf4a322f1496e5c3d34a9bcdb4c60567b38c7de2",
        "gas": "0x15b68",
        "value": "0x0",
        "input": "0xe4849b32000000000000000000000000000000000000000000000034f6cc003b2eb85b2a",
        "nonce": "0xcf7",
        "chainId": "0xaa36a7"
      },
      "additionalContracts": [],
      "isFixedGasLimit": false
    }
  ],
  "receipts": [
    {
      "status": "0x1",
      "cumulativeGasUsed": "0xb7eb8a",
      "logs": [
        {
          "address": "0xbf4a322f1496e5c3d34a9bcdb4c60567b38c7de2",
          "topics": [
            "0xddf252ad1be2c89b69c2b068fc378daa952ba7f163c4a11628f55a4df523b3ef",
            "0x000000000000000000000000c77f7fed3b5cc8249adc428c5f44c9063b9734b4",
            "0x0000000000000000000000000000000000000000000000000000000000000000"
          ],
          "data": "0x000000000000000000000000000000000000000000000034f6cc003b2eb85b2a",
          "blockHash": "0x0bbe2b08e49b81ca22a61b182205ecaf7ecd99d7d3fc6d4fc1574f4911dcef72",
          "blockNumber": "0x725d4b",
          "transactionHash": "0x8eaa6dfbda6ff1f48478cb8a46fa2cd5b0a750c799c898105c818975171a9bdb",
          "transactionIndex": "0x59",
          "logIndex": "0xa3",
          "removed": false
        },
        {
          "address": "0xbf4a322f1496e5c3d34a9bcdb4c60567b38c7de2",
          "topics": [
            "0x4afcb4a87cdbd9974efdb92ee48bc8d7cd0ae4bf217004db3d080cbaee652ca7"
          ],
          "data": "0x00000000000000000000000000000000000000000000000000000000678751f800000000000000000000000000000000000000000000000000039c675a9156560000000000000000000000000000000000000000000000000dc7e3db1fd89df5",
          "blockHash": "0x0bbe2b08e49b81ca22a61b182205ecaf7ecd99d7d3fc6d4fc1574f4911dcef72",
          "blockNumber": "0x725d4b",
          "transactionHash": "0x8eaa6dfbda6ff1f48478cb8a46fa2cd5b0a750c799c898105c818975171a9bdb",
          "transactionIndex": "0x59",
          "logIndex": "0xa4",
          "removed": false
        }
      ],
      "logsBloom": "0x00000000000000000000000000000000000000000000000000000000000000000000000000000000000000000000000000000000000000004000000000000000000000000000000000000008000000000000001000000000000000000000000000000000020000000000000000000800020000000000000000000010000000000000000000000000000000000000000000000000000008000000010000000000000000000000000000000000000000004000000000000000000000000000000000000002000000800000000000001000000000000000080000000000000020000000000000000000000000000000000000000000000000000000000000000000",
      "type": "0x2",
      "transactionHash": "0x8eaa6dfbda6ff1f48478cb8a46fa2cd5b0a750c799c898105c818975171a9bdb",
      "transactionIndex": "0x59",
      "blockHash": "0x0bbe2b08e49b81ca22a61b182205ecaf7ecd99d7d3fc6d4fc1574f4911dcef72",
      "blockNumber": "0x725d4b",
      "gasUsed": "0xfb85",
      "effectiveGasPrice": "0x456cdf21c",
      "from": "0xc77f7fed3b5cc8249adc428c5f44c9063b9734b4",
      "to": "0xbf4a322f1496e5c3d34a9bcdb4c60567b38c7de2",
      "contractAddress": null
    }
  ],
  "libraries": [],
  "pending": [],
  "returns": {},
  "timestamp": 1736921593,
  "chain": 11155111,
  "commit": "51a374b"
}