{
  "transactions": [
    {
      "hash": "0x3e5201b73df88419178638c52b3392f8d0de93f5e00cd185d97798c37fd0c0f9",
      "transactionType": "CALL",
      "contractName": null,
      "contractAddress": "0x8aafd3ede9adb0ff97c7aebce82a919afb1c8764",
      "function": "sell(uint256)",
      "arguments": [
        "45343233092543637"
      ],
      "transaction": {
        "from": "0xc77f7fed3b5cc8249adc428c5f44c9063b9734b4",
        "to": "0x8aafd3ede9adb0ff97c7aebce82a919afb1c8764",
        "gas": "0x1724d",
        "value": "0x0",
        "input": "0xe4849b3200000000000000000000000000000000000000000000000000a1176e2572e495",
        "nonce": "0x1093",
        "chainId": "0xaa36a7"
      },
      "additionalContracts": [],
      "isFixedGasLimit": false
    }
  ],
  "receipts": [
    {
      "status": "0x1",
      "cumulativeGasUsed": "0xb571ed",
      "logs": [
        {
          "address": "0x8aafd3ede9adb0ff97c7aebce82a919afb1c8764",
          "topics": [
            "0xddf252ad1be2c89b69c2b068fc378daa952ba7f163c4a11628f55a4df523b3ef",
            "0x000000000000000000000000c77f7fed3b5cc8249adc428c5f44c9063b9734b4",
            "0x0000000000000000000000000000000000000000000000000000000000000000"
          ],
          "data": "0x000000000000000000000000000000000000000000000000009fcd83cb098698",
          "blockHash": "0x685bfd137e15bcc5d9158f8df68418392361e45e91bb5d3fc313f84d6e5b5577",
          "blockNumber": "0x731721",
          "transactionHash": "0x3e5201b73df88419178638c52b3392f8d0de93f5e00cd185d97798c37fd0c0f9",
          "transactionIndex": "0x94",
          "logIndex": "0x94",
          "removed": false
        },
        {
          "address": "0x8aafd3ede9adb0ff97c7aebce82a919afb1c8764",
          "topics": [
            "0xddf252ad1be2c89b69c2b068fc378daa952ba7f163c4a11628f55a4df523b3ef",
            "0x000000000000000000000000c77f7fed3b5cc8249adc428c5f44c9063b9734b4",
            "0x000000000000000000000000c77f7fed3b5cc8249adc428c5f44c9063b9734b4"
          ],
          "data": "0x000000000000000000000000000000000000000000000000000149ea5a695dfd",
          "blockHash": "0x685bfd137e15bcc5d9158f8df68418392361e45e91bb5d3fc313f84d6e5b5577",
          "blockNumber": "0x731721",
          "transactionHash": "0x3e5201b73df88419178638c52b3392f8d0de93f5e00cd185d97798c37fd0c0f9",
          "transactionIndex": "0x94",
          "logIndex": "0x95",
          "removed": false
        },
        {
          "address": "0x8aafd3ede9adb0ff97c7aebce82a919afb1c8764",
          "topics": [
            "0x4afcb4a87cdbd9974efdb92ee48bc8d7cd0ae4bf217004db3d080cbaee652ca7"
          ],
          "data": "0x00000000000000000000000000000000000000000000000000000000679012500000000000000000000000000000000000000000000000000004fc2eaebf7b48000000000000000000000000000000000000000000000000000039ddc14f8abf",
          "blockHash": "0x685bfd137e15bcc5d9158f8df68418392361e45e91bb5d3fc313f84d6e5b5577",
          "blockNumber": "0x731721",
          "transactionHash": "0x3e5201b73df88419178638c52b3392f8d0de93f5e00cd185d97798c37fd0c0f9",
          "transactionIndex": "0x94",
          "logIndex": "0x96",
          "removed": false
        }
      ],
      "logsBloom": "0x00000000000000000000000000000000000000000600000000000000000000000000000000000000000000000000000000000000000000004000000000000000000000000000004000000008000000000000000000000000000000000000000000000000020000000000000000000800020000000000000000000010000000000000000000000000000000000000000000000000000000000000010000000000000000000000000000000000000000004000000000000000000000000000000000000002000000800000000000000000000000000000080000000000000020000000000000000000000000000000000000000000000000000000000000000000",
      "type": "0x2",
      "transactionHash": "0x3e5201b73df88419178638c52b3392f8d0de93f5e00cd185d97798c37fd0c0f9",
      "transactionIndex": "0x94",
      "blockHash": "0x685bfd137e15bcc5d9158f8df68418392361e45e91bb5d3fc313f84d6e5b5577",
      "blockNumber": "0x731721",
      "gasUsed": "0xfd33",
      "effectiveGasPrice": "0x48d8388e",
      "from": "0xc77f7fed3b5cc8249adc428c5f44c9063b9734b4",
      "to": "0x8aafd3ede9adb0ff97c7aebce82a919afb1c8764",
      "contractAddress": null
    }
  ],
  "libraries": [],
  "pending": [],
  "returns": {},
  "timestamp": 1737495121,
  "chain": 11155111,
  "commit": "1d2fb70"
}