{
  "transactions": [
    {
      "hash": "0x2bb3cbb6c2e55830c37f7cbb91ac8298f4c88999cf5fcf99016d56aa32dcb29b",
      "transactionType": "CALL",
      "contractName": null,
      "contractAddress": "0x8aafd3ede9adb0ff97c7aebce82a919afb1c8764",
      "function": "sell(uint256)",
      "arguments": [
        "10357327219139668"
      ],
      "transaction": {
        "from": "0xc77f7fed3b5cc8249adc428c5f44c9063b9734b4",
        "to": "0x8aafd3ede9adb0ff97c7aebce82a919afb1c8764",
        "gas": "0x1724d",
        "value": "0x0",
        "input": "0xe4849b320000000000000000000000000000000000000000000000000024cbef29b82454",
        "nonce": "0x169f",
        "chainId": "0xaa36a7"
      },
      "additionalContracts": [],
      "isFixedGasLimit": false
    }
  ],
  "receipts": [
    {
      "status": "0x1",
      "cumulativeGasUsed": "0xa70533",
      "logs": [
        {
          "address": "0x8aafd3ede9adb0ff97c7aebce82a919afb1c8764",
          "topics": [
            "0xddf252ad1be2c89b69c2b068fc378daa952ba7f163c4a11628f55a4df523b3ef",
            "0x000000000000000000000000c77f7fed3b5cc8249adc428c5f44c9063b9734b4",
            "0x0000000000000000000000000000000000000000000000000000000000000000"
          ],
          "data": "0x00000000000000000000000000000000000000000000000000248093233dd637",
          "blockHash": "0x5f22fccdc651702486a2b3b42e1ad291b93b1944f6f463c60fd1a1307171227a",
          "blockNumber": "0x731e56",
          "transactionHash": "0x2bb3cbb6c2e55830c37f7cbb91ac8298f4c88999cf5fcf99016d56aa32dcb29b",
          "transactionIndex": "0x61",
          "logIndex": "0x9d",
          "removed": false
        },
        {
          "address": "0x8aafd3ede9adb0ff97c7aebce82a919afb1c8764",
          "topics": [
            "0xddf252ad1be2c89b69c2b068fc378daa952ba7f163c4a11628f55a4df523b3ef",
            "0x000000000000000000000000c77f7fed3b5cc8249adc428c5f44c9063b9734b4",
            "0x000000000000000000000000c77f7fed3b5cc8249adc428c5f44c9063b9734b4"
          ],
          "data": "0x00000000000000000000000000000000000000000000000000004b5c067a4e1d",
          "blockHash": "0x5f22fccdc651702486a2b3b42e1ad291b93b1944f6f463c60fd1a1307171227a",
          "blockNumber": "0x731e56",
          "transactionHash": "0x2bb3cbb6c2e55830c37f7cbb91ac8298f4c88999cf5fcf99016d56aa32dcb29b",
          "transactionIndex": "0x61",
          "logIndex": "0x9e",
          "removed": false
        },
        {
          "address": "0x8aafd3ede9adb0ff97c7aebce82a919afb1c8764",
          "topics": [
            "0x4afcb4a87cdbd9974efdb92ee48bc8d7cd0ae4bf217004db3d080cbaee652ca7"
          ],
          "data": "0x00000000000000000000000000000000000000000000000000000000679068f00000000000000000000000000000000000000000000000000015e77edb419f0c00000000000000000000000000000000000000000000000000003a142298100c",
          "blockHash": "0x5f22fccdc651702486a2b3b42e1ad291b93b1944f6f463c60fd1a1307171227a",
          "blockNumber": "0x731e56",
          "transactionHash": "0x2bb3cbb6c2e55830c37f7cbb91ac8298f4c88999cf5fcf99016d56aa32dcb29b",
          "transactionIndex": "0x61",
          "logIndex": "0x9f",
          "removed": false
        }
      ],
      "logsBloom": "0x00000000000000000000000000000000000000000600000000000000000000000000000000000000000000000000000000000000000000004000000000000000000000000000004000000008000000000000000000000000000000000000000000000000020000000000000000000800020000000000000000000010000000000000000000000000000000000000000000000000000000000000010000000000000000000000000000000000000000004000000000000000000000000000000000000002000000800000000000000000000000000000080000000000000020000000000000000000000000000000000000000000000000000000000000000000",
      "type": "0x2",
      "transactionHash": "0x2bb3cbb6c2e55830c37f7cbb91ac8298f4c88999cf5fcf99016d56aa32dcb29b",
      "transactionIndex": "0x61",
      "blockHash": "0x5f22fccdc651702486a2b3b42e1ad291b93b1944f6f463c60fd1a1307171227a",
      "blockNumber": "0x731e56",
      "gasUsed": "0xfd33",
      "effectiveGasPrice": "0x62bc1000",
      "from": "0xc77f7fed3b5cc8249adc428c5f44c9063b9734b4",
      "to": "0x8aafd3ede9adb0ff97c7aebce82a919afb1c8764",
      "contractAddress": null
    }
  ],
  "libraries": [],
  "pending": [],
  "returns": {},
  "timestamp": 1737517297,
  "chain": 11155111,
  "commit": "1d2fb70"
}