{
  "transactions": [
    {
      "hash": "0xa52a6136102ac9f3dfa8495a1b8f16e947c4e9e128773a2a3b9483132ca554e1",
      "transactionType": "CALL",
      "contractName": null,
      "contractAddress": "0xbf4a322f1496e5c3d34a9bcdb4c60567b38c7de2",
      "function": "sell(uint256)",
      "arguments": [
        "977976058614205060501"
      ],
      "transaction": {
        "from": "0xc77f7fed3b5cc8249adc428c5f44c9063b9734b4",
        "to": "0xbf4a322f1496e5c3d34a9bcdb4c60567b38c7de2",
        "gas": "0x16fea",
        "value": "0x0",
        "input": "0xe4849b320000000000000000000000000000000000000000000000350424ebc5384b1595",
        "nonce": "0xcaf",
        "chainId": "0xaa36a7"
      },
      "additionalContracts": [],
      "isFixedGasLimit": false
    }
  ],
  "receipts": [
    {
      "status": "0x1",
      "cumulativeGasUsed": "0x83ffd0",
      "logs": [
        {
          "address": "0xbf4a322f1496e5c3d34a9bcdb4c60567b38c7de2",
          "topics": [
            "0xddf252ad1be2c89b69c2b068fc378daa952ba7f163c4a11628f55a4df523b3ef",
            "0x000000000000000000000000c77f7fed3b5cc8249adc428c5f44c9063b9734b4",
            "0x0000000000000000000000000000000000000000000000000000000000000000"
          ],
          "data": "0x0000000000000000000000000000000000000000000000350424ebc5384b1595",
          "blockHash": "0x00d5e858a646ad90101cb31fb534469de8f78df5bbfc453c76705026b6bbd0a3",
          "blockNumber": "0x725cfc",
          "transactionHash": "0xa52a6136102ac9f3dfa8495a1b8f16e947c4e9e128773a2a3b9483132ca554e1",
          "transactionIndex": "0x49",
          "logIndex": "0x78",
          "removed": false
        },
        {
          "address": "0xbf4a322f1496e5c3d34a9bcdb4c60567b38c7de2",
          "topics": [
            "0x4afcb4a87cdbd9974efdb92ee48bc8d7cd0ae4bf217004db3d080cbaee652ca7"
          ],
          "data": "0x0000000000000000000000000000000000000000000000000000000067874e4400000000000000000000000000000000000000000000000000039b7ea1e87bbc0000000000000000000000000000000000000000000000000dc7e3dd5c4edc43",
          "blockHash": "0x00d5e858a646ad90101cb31fb534469de8f78df5bbfc453c76705026b6bbd0a3",
          "blockNumber": "0x725cfc",
          "transactionHash": "0xa52a6136102ac9f3dfa8495a1b8f16e947c4e9e128773a2a3b9483132ca554e1",
          "transactionIndex": "0x49",
          "logIndex": "0x79",
          "removed": false
        }
      ],
      "logsBloom": "0x00000000000000000000000000000000000000000000000000000000000000000000000000000000000000000000000000000000000000004000000000000000000000000000000000000008000000000000001000000000000000000000000000000000020000000000000000000800020000000000000000000010000000000000000000000000000000000000000000000000000008000000010000000000000000000000000000000000000000004000000000000000000000000000000000000002000000800000000000001000000000000000080000000000000020000000000000000000000000000000000000000000000000000000000000000000",
      "type": "0x2",
      "transactionHash": "0xa52a6136102ac9f3dfa8495a1b8f16e947c4e9e128773a2a3b9483132ca554e1",
      "transactionIndex": "0x49",
      "blockHash": "0x00d5e858a646ad90101cb31fb534469de8f78df5bbfc453c76705026b6bbd0a3",
      "blockNumber": "0x725cfc",
      "gasUsed": "0xfb91",
      "effectiveGasPrice": "0x248fddf31",
      "from": "0xc77f7fed3b5cc8249adc428c5f44c9063b9734b4",
      "to": "0xbf4a322f1496e5c3d34a9bcdb4c60567b38c7de2",
      "contractAddress": null
    }
  ],
  "libraries": [],
  "pending": [],
  "returns": {},
  "timestamp": 1736920644,
  "chain": 11155111,
  "commit": "51a374b"
}