{
  "transactions": [
    {
      "hash": "0xf6d930074d19ffec555684f4f74aeffe23f2c3981ac302cae7017a59943933b1",
      "transactionType": "CALL",
      "contractName": null,
      "contractAddress": "0x5eb9cc76c3506942c1c0ead70e877dd5e4f00cb0",
      "function": "sell(uint256)",
      "arguments": [
        "989140476482302757389"
      ],
      "transaction": {
        "from": "0xc77f7fed3b5cc8249adc428c5f44c9063b9734b4",
        "to": "0x5eb9cc76c3506942c1c0ead70e877dd5e4f00cb0",
        "gas": "0x16fec",
        "value": "0x0",
        "input": "0xe4849b320000000000000000000000000000000000000000000000359f14e6ab7847ca0d",
        "nonce": "0x303",
        "chainId": "0xaa36a7"
      },
      "additionalContracts": [],
      "isFixedGasLimit": false
    }
  ],
  "receipts": [
    {
      "status": "0x1",
      "cumulativeGasUsed": "0xc65dd3",
      "logs": [
        {
          "address": "0x5eb9cc76c3506942c1c0ead70e877dd5e4f00cb0",
          "topics": [
            "0xddf252ad1be2c89b69c2b068fc378daa952ba7f163c4a11628f55a4df523b3ef",
            "0x000000000000000000000000c77f7fed3b5cc8249adc428c5f44c9063b9734b4",
            "0x0000000000000000000000000000000000000000000000000000000000000000"
          ],
          "data": "0x0000000000000000000000000000000000000000000000359f14e6ab7847ca0d",
          "blockHash": "0x78be27b345ec51e1dea836c52725acfafbcc64e7713f6aae92bacee7f789c030",
          "blockNumber": "0x724ee4",
          "transactionHash": "0xf6d930074d19ffec555684f4f74aeffe23f2c3981ac302cae7017a59943933b1",
          "transactionIndex": "0x5b",
          "logIndex": "0x99",
          "removed": false
        },
        {
          "address": "0x5eb9cc76c3506942c1c0ead70e877dd5e4f00cb0",
          "topics": [
            "0x4afcb4a87cdbd9974efdb92ee48bc8d7cd0ae4bf217004db3d080cbaee652ca7"
          ],
          "data": "0x000000000000000000000000000000000000000000000000000000006786a4640000000000000000000000000000000000000000000000000003910be827ae3d0000000000000000000000000000000000000000000000000dc7db13322f788e",
          "blockHash": "0x78be27b345ec51e1dea836c52725acfafbcc64e7713f6aae92bacee7f789c030",
          "blockNumber": "0x724ee4",
          "transactionHash": "0xf6d930074d19ffec555684f4f74aeffe23f2c3981ac302cae7017a59943933b1",
          "transactionIndex": "0x5b",
          "logIndex": "0x9a",
          "removed": false
        }
      ],
      "logsBloom": "0x00000000000000000000000000000000000000000000000000000000000000000000000000000000000000000000000000000000000000004000000000000000000000000000000000000008000000000000000000000000000000000000000000000000020000000000000004000800020000000000000000000010000000000000000000000000000000000000000000000000000000000000010000000000000000000000000000000000000000004000000000000000000000000000020000000002000000800000008000000000000000000000080000000000000020000000000000000000000000000000000000000000000000000000000000000000",
      "type": "0x2",
      "transactionHash": "0xf6d930074d19ffec555684f4f74aeffe23f2c3981ac302cae7017a59943933b1",
      "transactionIndex": "0x5b",
      "blockHash": "0x78be27b345ec51e1dea836c52725acfafbcc64e7713f6aae92bacee7f789c030",
      "blockNumber": "0x724ee4",
      "gasUsed": "0xfb93",
      "effectiveGasPrice": "0x6cb512e15",
      "from": "0xc77f7fed3b5cc8249adc428c5f44c9063b9734b4",
      "to": "0x5eb9cc76c3506942c1c0ead70e877dd5e4f00cb0",
      "contractAddress": null
    }
  ],
  "libraries": [],
  "pending": [],
  "returns": {},
  "timestamp": 1736877158,
  "chain": 11155111,
  "commit": "51a374b"
}