{
  "transactions": [
    {
      "hash": "0x49f295ca8612b0ae1c2a33398613a34b3836230fb41a6139ca39ac3207b3e65e",
      "transactionType": "CALL",
      "contractName": null,
      "contractAddress": "0xbf4a322f1496e5c3d34a9bcdb4c60567b38c7de2",
      "function": "buy(address)",
      "arguments": [
        "0xC77f7fed3b5Cc8249aDc428c5F44C9063B9734b4"
      ],
      "transaction": {
        "from": "0xc77f7fed3b5cc8249adc428c5f44c9063b9734b4",
        "to": "0xbf4a322f1496e5c3d34a9bcdb4c60567b38c7de2",
        "gas": "0x1b309",
        "value": "0xde0b6b3a7640000",
        "input": "0xf088d547000000000000000000000000c77f7fed3b5cc8249adc428c5f44c9063b9734b4",
        "nonce": "0x8d1",
        "chainId": "0xaa36a7"
      },
      "additionalContracts": [],
      "isFixedGasLimit": false
    }
  ],
  "receipts": [
    {
      "status": "0x1",
      "cumulativeGasUsed": "0x327c94",
      "logs": [
        {
          "address": "0xbf4a322f1496e5c3d34a9bcdb4c60567b38c7de2",
          "topics": [
            "0xddf252ad1be2c89b69c2b068fc378daa952ba7f163c4a11628f55a4df523b3ef",
            "0x0000000000000000000000000000000000000000000000000000000000000000",
            "0x000000000000000000000000c77f7fed3b5cc8249adc428c5f44c9063b9734b4"
          ],
          "data": "0x000000000000000000000000000000000000000000000035a8c9583eb92eb5a2",
          "blockHash": "0xdb78f13377e7051641aeceab211fc885eb39f64a8f17a5411a90a0547ace027f",
          "blockNumber": "0x72583f",
          "transactionHash": "0x49f295ca8612b0ae1c2a33398613a34b3836230fb41a6139ca39ac3207b3e65e",
          "transactionIndex": "0x25",
          "logIndex": "0x31",
          "removed": false
        },
        {
          "address": "0xbf4a322f1496e5c3d34a9bcdb4c60567b38c7de2",
          "topics": [
            "0xddf252ad1be2c89b69c2b068fc378daa952ba7f163c4a11628f55a4df523b3ef",
            "0x0000000000000000000000000000000000000000000000000000000000000000",
            "0x000000000000000000000000c77f7fed3b5cc8249adc428c5f44c9063b9734b4"
          ],
          "data": "0x00000000000000000000000000000000000000000000000029ab1551cbd5c623",
          "blockHash": "0xdb78f13377e7051641aeceab211fc885eb39f64a8f17a5411a90a0547ace027f",
          "blockNumber": "0x72583f",
          "transactionHash": "0x49f295ca8612b0ae1c2a33398613a34b3836230fb41a6139ca39ac3207b3e65e",
          "transactionIndex": "0x25",
          "logIndex": "0x32",
          "removed": false
        },
        {
          "address": "0xbf4a322f1496e5c3d34a9bcdb4c60567b38c7de2",
          "topics": [
            "0x4afcb4a87cdbd9974efdb92ee48bc8d7cd0ae4bf217004db3d080cbaee652ca7"
          ],
          "data": "0x000000000000000000000000000000000000000000000000000000006787151400000000000000000000000000000000000000000000000000038da70a48a7110000000000000000000000000000000000000000000000000de0b6b3a7640000",
          "blockHash": "0xdb78f13377e7051641aeceab211fc885eb39f64a8f17a5411a90a0547ace027f",
          "blockNumber": "0x72583f",
          "transactionHash": "0x49f295ca8612b0ae1c2a33398613a34b3836230fb41a6139ca39ac3207b3e65e",
          "transactionIndex": "0x25",
          "logIndex": "0x33",
          "removed": false
        }
      ],
      "logsBloom": "0x00000000000000000000000000000000000000000000000000000000000000000000000000000000000000000000000000000000000000004000000000000000000000000000000000000008000000000000001000000000000000000000000000000000020000000000000000000800020000000000000000000010000000000000000000000000000000000000000000000000000008000000010000000000000000000000000000000000000000004000000000000000000000000000000000000002000000800000000000001000000000000000080000000000000020000000000000000000000000000000000000000000000000000000000000000000",
      "type": "0x2",
      "transactionHash": "0x49f295ca8612b0ae1c2a33398613a34b3836230fb41a6139ca39ac3207b3e65e",
      "transactionIndex": "0x25",
      "blockHash": "0xdb78f13377e7051641aeceab211fc885eb39f64a8f17a5411a90a0547ace027f",
      "blockNumber": "0x72583f",
      "gasUsed": "0x13af6",
      "effectiveGasPrice": "0x23a0960d",
      "from": "0xc77f7fed3b5cc8249adc428c5f44c9063b9734b4",
      "to": "0xbf4a322f1496e5c3d34a9bcdb4c60567b38c7de2",
      "contractAddress": null
    }
  ],
  "libraries": [],
  "pending": [],
  "returns": {},
  "timestamp": 1736906004,
  "chain": 11155111,
  "commit": "51a374b"
}