{
  "transactions": [
    {
      "hash": "0xe1ce79e36202a296e27b9f45be914bb0a3b41a06736bc2a96fef1d707e65dbdf",
      "transactionType": "CALL",
      "contractName": null,
      "contractAddress": "0x8aafd3ede9adb0ff97c7aebce82a919afb1c8764",
      "function": "sell(uint256)",
      "arguments": [
        "145035528481156218504"
      ],
      "transaction": {
        "from": "0xc77f7fed3b5cc8249adc428c5f44c9063b9734b4",
        "to": "0x8aafd3ede9adb0ff97c7aebce82a919afb1c8764",
        "gas": "0x17270",
        "value": "0x0",
        "input": "0xe4849b32000000000000000000000000000000000000000000000007dcc5b4b8f25dbe88",
        "nonce": "0x1775",
        "chainId": "0xaa36a7"
      },
      "additionalContracts": [],
      "isFixedGasLimit": false
    }
  ],
  "receipts": [
    {
      "status": "0x1",
      "cumulativeGasUsed": "0xbfd9ed",
      "logs": [
        {
          "address": "0x8aafd3ede9adb0ff97c7aebce82a919afb1c8764",
          "topics": [
            "0xddf252ad1be2c89b69c2b068fc378daa952ba7f163c4a11628f55a4df523b3ef",
            "0x000000000000000000000000c77f7fed3b5cc8249adc428c5f44c9063b9734b4",
            "0x0000000000000000000000000000000000000000000000000000000000000000"
          ],
          "data": "0x000000000000000000000000000000000000000000000007ccab8c5d5aec5ab4",
          "blockHash": "0x8419ad6aa0a5c18048889bb8ea38ec4321735c8864c3487b57f761168515d659",
          "blockNumber": "0x731f4e",
          "transactionHash": "0xe1ce79e36202a296e27b9f45be914bb0a3b41a06736bc2a96fef1d707e65dbdf",
          "transactionIndex": "0x83",
          "logIndex": "0xb5",
          "removed": false
        },
        {
          "address": "0x8aafd3ede9adb0ff97c7aebce82a919afb1c8764",
          "topics": [
            "0xddf252ad1be2c89b69c2b068fc378daa952ba7f163c4a11628f55a4df523b3ef",
            "0x000000000000000000000000c77f7fed3b5cc8249adc428c5f44c9063b9734b4",
            "0x000000000000000000000000c77f7fed3b5cc8249adc428c5f44c9063b9734b4"
          ],
          "data": "0x000000000000000000000000000000000000000000000000101a285b977163d4",
          "blockHash": "0x8419ad6aa0a5c18048889bb8ea38ec4321735c8864c3487b57f761168515d659",
          "blockNumber": "0x731f4e",
          "transactionHash": "0xe1ce79e36202a296e27b9f45be914bb0a3b41a06736bc2a96fef1d707e65dbdf",
          "transactionIndex": "0x83",
          "logIndex": "0xb6",
          "removed": false
        },
        {
          "address": "0x8aafd3ede9adb0ff97c7aebce82a919afb1c8764",
          "topics": [
            "0x4afcb4a87cdbd9974efdb92ee48bc8d7cd0ae4bf217004db3d080cbaee652ca7"
          ],
          "data": "0x000000000000000000000000000000000000000000000000000000006790749000000000000000000000000000000000000000000000000000186dcc0cb8e1550000000000000000000000000000000000000000000000000dcbc9e698a22ad3",
          "blockHash": "0x8419ad6aa0a5c18048889bb8ea38ec4321735c8864c3487b57f761168515d659",
          "blockNumber": "0x731f4e",
          "transactionHash": "0xe1ce79e36202a296e27b9f45be914bb0a3b41a06736bc2a96fef1d707e65dbdf",
          "transactionIndex": "0x83",
          "logIndex": "0xb7",
          "removed": false
        }
      ],
      "logsBloom": "0x00000000000000000000000000000000000000000600000000000000000000000000000000000000000000000000000000000000000000004000000000000000000000000000004000000008000000000000000000000000000000000000000000000000020000000000000000000800020000000000000000000010000000000000000000000000000000000000000000000000000000000000010000000000000000000000000000000000000000004000000000000000000000000000000000000002000000800000000000000000000000000000080000000000000020000000000000000000000000000000000000000000000000000000000000000000",
      "type": "0x2",
      "transactionHash": "0xe1ce79e36202a296e27b9f45be914bb0a3b41a06736bc2a96fef1d707e65dbdf",
      "transactionIndex": "0x83",
      "blockHash": "0x8419ad6aa0a5c18048889bb8ea38ec4321735c8864c3487b57f761168515d659",
      "blockNumber": "0x731f4e",
      "gasUsed": "0xfd4b",
      "effectiveGasPrice": "0x3e007327",
      "from": "0xc77f7fed3b5cc8249adc428c5f44c9063b9734b4",
      "to": "0x8aafd3ede9adb0ff97c7aebce82a919afb1c8764",
      "contractAddress": null
    }
  ],
  "libraries": [],
  "pending": [],
  "returns": {},
  "timestamp": 1737520274,
  "chain": 11155111,
  "commit": "1d2fb70"
}