{
  "transactions": [
    {
      "hash": "0x3f2592f197738900aa01a4189ea225073b0edd2aea9ef23c28f59bcef17b898e",
      "transactionType": "CALL",
      "contractName": null,
      "contractAddress": "0x270e88f8683660553e8ba4eb2ad7c91a1710d769",
      "function": "buy(address)",
      "arguments": [
        "0xC77f7fed3b5Cc8249aDc428c5F44C9063B9734b4"
      ],
      "transaction": {
        "from": "0xc77f7fed3b5cc8249adc428c5f44c9063b9734b4",
        "to": "0x270e88f8683660553e8ba4eb2ad7c91a1710d769",
        "gas": "0x1b30c",
        "value": "0xde0b6b3a7640000",
        "input": "0xf088d547000000000000000000000000c77f7fed3b5cc8249adc428c5f44c9063b9734b4",
        "nonce": "0x789",
        "chainId": "0xaa36a7"
      },
      "additionalContracts": [],
      "isFixedGasLimit": false
    }
  ],
  "receipts": [
    {
      "status": "0x1",
      "cumulativeGasUsed": "0x200a2c9",
      "logs": [
        {
          "address": "0x270e88f8683660553e8ba4eb2ad7c91a1710d769",
          "topics": [
            "0xddf252ad1be2c89b69c2b068fc378daa952ba7f163c4a11628f55a4df523b3ef",
            "0x0000000000000000000000000000000000000000000000000000000000000000",
            "0x000000000000000000000000c77f7fed3b5cc8249adc428c5f44c9063b9734b4"
          ],
          "data": "0x0000000000000000000000000000000000000000000000279e9c7f318883ccdd",
          "blockHash": "0x4e3772cbb516089ee23ef17db46f1adaad26a5014f11daeb0fe9e1472cde34b2",
          "blockNumber": "0x7254ba",
          "transactionHash": "0x3f2592f197738900aa01a4189ea225073b0edd2aea9ef23c28f59bcef17b898e",
          "transactionIndex": "0x9f",
          "logIndex": "0x16b",
          "removed": false
        },
        {
          "address": "0x270e88f8683660553e8ba4eb2ad7c91a1710d769",
          "topics": [
            "0xddf252ad1be2c89b69c2b068fc378daa952ba7f163c4a11628f55a4df523b3ef",
            "0x0000000000000000000000000000000000000000000000000000000000000000",
            "0x000000000000000000000000c77f7fed3b5cc8249adc428c5f44c9063b9734b4"
          ],
          "data": "0x0000000000000000000000000000000000000000000000001ec4156a13c7e630",
          "blockHash": "0x4e3772cbb516089ee23ef17db46f1adaad26a5014f11daeb0fe9e1472cde34b2",
          "blockNumber": "0x7254ba",
          "transactionHash": "0x3f2592f197738900aa01a4189ea225073b0edd2aea9ef23c28f59bcef17b898e",
          "transactionIndex": "0x9f",
          "logIndex": "0x16c",
          "removed": false
        },
        {
          "address": "0x270e88f8683660553e8ba4eb2ad7c91a1710d769",
          "topics": [
            "0x4afcb4a87cdbd9974efdb92ee48bc8d7cd0ae4bf217004db3d080cbaee652ca7"
          ],
          "data": "0x000000000000000000000000000000000000000000000000000000006786eac00000000000000000000000000000000000000000000000000004d01747c9fc140000000000000000000000000000000000000000000000000de0b6b3a7640000",
          "blockHash": "0x4e3772cbb516089ee23ef17db46f1adaad26a5014f11daeb0fe9e1472cde34b2",
          "blockNumber": "0x7254ba",
          "transactionHash": "0x3f2592f197738900aa01a4189ea225073b0edd2aea9ef23c28f59bcef17b898e",
          "transactionIndex": "0x9f",
          "logIndex": "0x16d",
          "removed": false
        }
      ],
      "logsBloom": "0x00000000000000000000000000000000000000000000000000000000000000000000000000000000000000000000000020000000000000004000000000000000000000000000000000000008000000000000000000000000000000000000000000000000020000000000000000000800020000000000000000000010000000000000000000010000000000000000000000000000000000000000010000000000000000000000000000000000000000004000000000000000000000000000000000000002000000800000000000000000000000000000080000008000000020000000000000000000000000000000000000000000000000000000000000000000",
      "type": "0x2",
      "transactionHash": "0x3f2592f197738900aa01a4189ea225073b0edd2aea9ef23c28f59bcef17b898e",
      "transactionIndex": "0x9f",
      "blockHash": "0x4e3772cbb516089ee23ef17db46f1adaad26a5014f11daeb0fe9e1472cde34b2",
      "blockNumber": "0x7254ba",
      "gasUsed": "0x13af8",
      "effectiveGasPrice": "0xed3e6a86",
      "from": "0xc77f7fed3b5cc8249adc428c5f44c9063b9734b4",
      "to": "0x270e88f8683660553e8ba4eb2ad7c91a1710d769",
      "contractAddress": null
    }
  ],
  "libraries": [],
  "pending": [],
  "returns": {},
  "timestamp": 1736895171,
  "chain": 11155111,
  "commit": "51a374b"
}