{
  "transactions": [
    {
      "hash": "0x00bcdab1ae4d602f9e1030e1a6511c00bc3b3fad30d7972c5583f4f383fd0363",
      "transactionType": "CALL",
      "contractName": null,
      "contractAddress": "0xbf4a322f1496e5c3d34a9bcdb4c60567b38c7de2",
      "function": "sell(uint256)",
      "arguments": [
        "985902008142920459280"
      ],
      "transaction": {
        "from": "0xc77f7fed3b5cc8249adc428c5f44c9063b9734b4",
        "to": "0xbf4a322f1496e5c3d34a9bcdb4c60567b38c7de2",
        "gas": "0x16fea",
        "value": "0x0",
        "input": "0xe4849b3200000000000000000000000000000000000000000000003572238cdf8f0ca410",
        "nonce": "0xa63",
        "chainId": "0xaa36a7"
      },
      "additionalContracts": [],
      "isFixedGasLimit": false
    }
  ],
  "receipts": [
    {
      "status": "0x1",
      "cumulativeGasUsed": "0x50223e",
      "logs": [
        {
          "address": "0xbf4a322f1496e5c3d34a9bcdb4c60567b38c7de2",
          "topics": [
            "0xddf252ad1be2c89b69c2b068fc378daa952ba7f163c4a11628f55a4df523b3ef",
            "0x000000000000000000000000c77f7fed3b5cc8249adc428c5f44c9063b9734b4",
            "0x0000000000000000000000000000000000000000000000000000000000000000"
          ],
          "data": "0x00000000000000000000000000000000000000000000003572238cdf8f0ca410",
          "blockHash": "0x5926f6e9c328532c1620aef0628b2cfd8519a6c27d53748e4fd73fb19c439471",
          "blockNumber": "0x725a40",
          "transactionHash": "0x00bcdab1ae4d602f9e1030e1a6511c00bc3b3fad30d7972c5583f4f383fd0363",
          "transactionIndex": "0x1f",
          "logIndex": "0x30",
          "removed": false
        },
        {
          "address": "0xbf4a322f1496e5c3d34a9bcdb4c60567b38c7de2",
          "topics": [
            "0x4afcb4a87cdbd9974efdb92ee48bc8d7cd0ae4bf217004db3d080cbaee652ca7"
          ],
          "data": "0x0000000000000000000000000000000000000000000000000000000067872d50000000000000000000000000000000000000000000000000000394121448dac40000000000000000000000000000000000000000000000000dc7e3efc9df1c4e",
          "blockHash": "0x5926f6e9c328532c1620aef0628b2cfd8519a6c27d53748e4fd73fb19c439471",
          "blockNumber": "0x725a40",
          "transactionHash": "0x00bcdab1ae4d602f9e1030e1a6511c00bc3b3fad30d7972c5583f4f383fd0363",
          "transactionIndex": "0x1f",
          "logIndex": "0x31",
          "removed": false
        }
      ],
      "logsBloom": "0x00000000000000000000000000000000000000000000000000000000000000000000000000000000000000000000000000000000000000004000000000000000000000000000000000000008000000000000001000000000000000000000000000000000020000000000000000000800020000000000000000000010000000000000000000000000000000000000000000000000000008000000010000000000000000000000000000000000000000004000000000000000000000000000000000000002000000800000000000001000000000000000080000000000000020000000000000000000000000000000000000000000000000000000000000000000",
      "type": "0x2",
      "transactionHash": "0x00bcdab1ae4d602f9e1030e1a6511c00bc3b3fad30d7972c5583f4f383fd0363",
      "transactionIndex": "0x1f",
      "blockHash": "0x5926f6e9c328532c1620aef0628b2cfd8519a6c27d53748e4fd73fb19c439471",
      "blockNumber": "0x725a40",
      "gasUsed": "0xfb91",
      "effectiveGasPrice": "0x43dd0dfcb",
      "from": "0xc77f7fed3b5cc8249adc428c5f44c9063b9734b4",
      "to": "0xbf4a322f1496e5c3d34a9bcdb4c60567b38c7de2",
      "contractAddress": null
    }
  ],
  "libraries": [],
  "pending": [],
  "returns": {},
  "timestamp": 1736912209,
  "chain": 11155111,
  "commit": "51a374b"
}