{
  "transactions": [
    {
      "hash": "0xe0be637fc7efeba0146a4a6db10d0ce3c3d5bcc7845836b9b3886f4630ccd570",
      "transactionType": "CALL",
      "contractName": null,
      "contractAddress": "0x8aafd3ede9adb0ff97c7aebce82a919afb1c8764",
      "function": "sell(uint256)",
      "arguments": [
        "1160284227849249748"
      ],
      "transaction": {
        "from": "0xc77f7fed3b5cc8249adc428c5f44c9063b9734b4",
        "to": "0x8aafd3ede9adb0ff97c7aebce82a919afb1c8764",
        "gas": "0x15dca",
        "value": "0x0",
        "input": "0xe4849b32000000000000000000000000000000000000000000000000101a285b977163d4",
        "nonce": "0x1776",
        "chainId": "0xaa36a7"
      },
      "additionalContracts": [],
      "isFixedGasLimit": false
    }
  ],
  "receipts": [
    {
      "status": "0x1",
      "cumulativeGasUsed": "0x21de955",
      "logs": [
        {
          "address": "0x8aafd3ede9adb0ff97c7aebce82a919afb1c8764",
          "topics": [
            "0xddf252ad1be2c89b69c2b068fc378daa952ba7f163c4a11628f55a4df523b3ef",
            "0x000000000000000000000000c77f7fed3b5cc8249adc428c5f44c9063b9734b4",
            "0x0000000000000000000000000000000000000000000000000000000000000000"
          ],
          "data": "0x0000000000000000000000000000000000000000000000000ff92e2dcd8702c7",
          "blockHash": "0x66ef2f64cf8eab1db063a1b7f57784895e603a7c4f96831c7a1d2e7c9e8e9d9d",
          "blockNumber": "0x731f50",
          "transactionHash": "0xe0be637fc7efeba0146a4a6db10d0ce3c3d5bcc7845836b9b3886f4630ccd570",
          "transactionIndex": "0x57",
          "logIndex": "0x1123",
          "removed": false
        },
        {
          "address": "0x8aafd3ede9adb0ff97c7aebce82a919afb1c8764",
          "topics": [
            "0xddf252ad1be2c89b69c2b068fc378daa952ba7f163c4a11628f55a4df523b3ef",
            "0x000000000000000000000000c77f7fed3b5cc8249adc428c5f44c9063b9734b4",
            "0x000000000000000000000000c77f7fed3b5cc8249adc428c5f44c9063b9734b4"
          ],
          "data": "0x0000000000000000000000000000000000000000000000000020fa2dc9ea610d",
          "blockHash": "0x66ef2f64cf8eab1db063a1b7f57784895e603a7c4f96831c7a1d2e7c9e8e9d9d",
          "blockNumber": "0x731f50",
          "transactionHash": "0xe0be637fc7efeba0146a4a6db10d0ce3c3d5bcc7845836b9b3886f4630ccd570",
          "transactionIndex": "0x57",
          "logIndex": "0x1124",
          "removed": false
        },
        {
          "address": "0x8aafd3ede9adb0ff97c7aebce82a919afb1c8764",
          "topics": [
            "0x4afcb4a87cdbd9974efdb92ee48bc8d7cd0ae4bf217004db3d080cbaee652ca7"
          ],
          "data": "0x00000000000000000000000000000000000000000000000000000000679074a800000000000000000000000000000000000000000000000000186df4fa128d3c000000000000000000000000000000000000000000000000001c582e9e555921",
          "blockHash": "0x66ef2f64cf8eab1db063a1b7f57784895e603a7c4f96831c7a1d2e7c9e8e9d9d",
          "blockNumber": "0x731f50",
          "transactionHash": "0xe0be637fc7efeba0146a4a6db10d0ce3c3d5bcc7845836b9b3886f4630ccd570",
          "transactionIndex": "0x57",
          "logIndex": "0x1125",
          "removed": false
        }
      ],
      "logsBloom": "0x00000000000000000000000000000000000000000600000000000000000000000000000000000000000000000000000000000000000000004000000000000000000000000000004000000008000000000000000000000000000000000000000000000000020000000000000000000800020000000000000000000010000000000000000000000000000000000000000000000000000000000000010000000000000000000000000000000000000000004000000000000000000000000000000000000002000000800000000000000000000000000000080000000000000020000000000000000000000000000000000000000000000000000000000000000000",
      "type": "0x2",
      "transactionHash": "0xe0be637fc7efeba0146a4a6db10d0ce3c3d5bcc7845836b9b3886f4630ccd570",
      "transactionIndex": "0x57",
      "blockHash": "0x66ef2f64cf8eab1db063a1b7f57784895e603a7c4f96831c7a1d2e7c9e8e9d9d",
      "blockNumber": "0x731f50",
      "gasUsed": "0xfd3f",
      "effectiveGasPrice": "0x437ebd6e",
      "from": "0xc77f7fed3b5cc8249adc428c5f44c9063b9734b4",
      "to": "0x8aafd3ede9adb0ff97c7aebce82a919afb1c8764",
      "contractAddress": null
    }
  ],
  "libraries": [],
  "pending": [],
  "returns": {},
  "timestamp": 1737520297,
  "chain": 11155111,
  "commit": "1d2fb70"
}