{
  "transactions": [
    {
      "hash": "0x8027ffe72639634572d50f137cee41a6449a2119dcb9ab38016e5da8e5cbd309",
      "transactionType": "CALL",
      "contractName": null,
      "contractAddress": "0x8aafd3ede9adb0ff97c7aebce82a919afb1c8764",
      "function": "sell(uint256)",
      "arguments": [
        "12528"
      ],
      "transaction": {
        "from": "0xc77f7fed3b5cc8249adc428c5f44c9063b9734b4",
        "to": "0x8aafd3ede9adb0ff97c7aebce82a919afb1c8764",
        "gas": "0x14e4c",
        "value": "0x0",
        "input": "0xe4849b3200000000000000000000000000000000000000000000000000000000000030f0",
        "nonce": "0xee0",
        "chainId": "0xaa36a7"
      },
      "additionalContracts": [],
      "isFixedGasLimit": false
    }
  ],
  "receipts": [
    {
      "status": "0x1",
      "cumulativeGasUsed": "0xadf702",
      "logs": [
        {
          "address": "0x8aafd3ede9adb0ff97c7aebce82a919afb1c8764",
          "topics": [
            "0xddf252ad1be2c89b69c2b068fc378daa952ba7f163c4a11628f55a4df523b3ef",
            "0x000000000000000000000000c77f7fed3b5cc8249adc428c5f44c9063b9734b4",
            "0x0000000000000000000000000000000000000000000000000000000000000000"
          ],
          "data": "0x000000000000000000000000000000000000000000000000000000000000308c",
          "blockHash": "0xf917dadc10b6bbfd5b8a201fbc4a3d3cba0d8e149c42549f9bab81e1c400986b",
          "blockNumber": "0x731457",
          "transactionHash": "0x8027ffe72639634572d50f137cee41a6449a2119dcb9ab38016e5da8e5cbd309",
          "transactionIndex": "0x94",
          "logIndex": "0xb2",
          "removed": false
        },
        {
          "address": "0x8aafd3ede9adb0ff97c7aebce82a919afb1c8764",
          "topics": [
            "0xddf252ad1be2c89b69c2b068fc378daa952ba7f163c4a11628f55a4df523b3ef",
            "0x000000000000000000000000c77f7fed3b5cc8249adc428c5f44c9063b9734b4",
            "0x000000000000000000000000c77f7fed3b5cc8249adc428c5f44c9063b9734b4"
          ],
          "data": "0x0000000000000000000000000000000000000000000000000000000000000064",
          "blockHash": "0xf917dadc10b6bbfd5b8a201fbc4a3d3cba0d8e149c42549f9bab81e1c400986b",
          "blockNumber": "0x731457",
          "transactionHash": "0x8027ffe72639634572d50f137cee41a6449a2119dcb9ab38016e5da8e5cbd309",
          "transactionIndex": "0x94",
          "logIndex": "0xb3",
          "removed": false
        },
        {
          "address": "0x8aafd3ede9adb0ff97c7aebce82a919afb1c8764",
          "topics": [
            "0x4afcb4a87cdbd9974efdb92ee48bc8d7cd0ae4bf217004db3d080cbaee652ca7"
          ],
          "data": "0x00000000000000000000000000000000000000000000000000000000678ff0c00000000000000000000000000000000000000000000000000004b9dca4822d0a0000000000000000000000000000000000000000000000000000000000000010",
          "blockHash": "0xf917dadc10b6bbfd5b8a201fbc4a3d3cba0d8e149c42549f9bab81e1c400986b",
          "blockNumber": "0x731457",
          "transactionHash": "0x8027ffe72639634572d50f137cee41a6449a2119dcb9ab38016e5da8e5cbd309",
          "transactionIndex": "0x94",
          "logIndex": "0xb4",
          "removed": false
        }
      ],
      "logsBloom": "0x00000000000000000000000000000000000000000600000000000000000000000000000000000000000000000000000000000000000000004000000000000000000000000000004000000008000000000000000000000000000000000000000000000000020000000000000000000800020000000000000000000010000000000000000000000000000000000000000000000000000000000000010000000000000000000000000000000000000000004000000000000000000000000000000000000002000000800000000000000000000000000000080000000000000020000000000000000000000000000000000000000000000000000000000000000000",
      "type": "0x2",
      "transactionHash": "0x8027ffe72639634572d50f137cee41a6449a2119dcb9ab38016e5da8e5cbd309",
      "transactionIndex": "0x94",
      "blockHash": "0xf917dadc10b6bbfd5b8a201fbc4a3d3cba0d8e149c42549f9bab81e1c400986b",
      "blockNumber": "0x731457",
      "gasUsed": "0xf207",
      "effectiveGasPrice": "0xb5d5ff59",
      "from": "0xc77f7fed3b5cc8249adc428c5f44c9063b9734b4",
      "to": "0x8aafd3ede9adb0ff97c7aebce82a919afb1c8764",
      "contractAddress": null
    }
  ],
  "libraries": [],
  "pending": [],
  "returns": {},
  "timestamp": 1737486529,
  "chain": 11155111,
  "commit": "51a374b"
}