{
  "transactions": [
    {
      "hash": "0x1b9cb013bddaff0e87af7e1614eab24caf009aff070e9d4bc5bb3d6b8b7dd19a",
      "transactionType": "CALL",
      "contractName": null,
      "contractAddress": "0x8aafd3ede9adb0ff97c7aebce82a919afb1c8764",
      "function": "sell(uint256)",
      "arguments": [
        "5035967335"
      ],
      "transaction": {
        "from": "0xc77f7fed3b5cc8249adc428c5f44c9063b9734b4",
        "to": "0x8aafd3ede9adb0ff97c7aebce82a919afb1c8764",
        "gas": "0x1722a",
        "value": "0x0",
        "input": "0xe4849b32000000000000000000000000000000000000000000000000000000012c2ac367",
        "nonce": "0x1705",
        "chainId": "0xaa36a7"
      },
      "additionalContracts": [],
      "isFixedGasLimit": false
    }
  ],
  "receipts": [
    {
      "status": "0x1",
      "cumulativeGasUsed": "0xe61e94",
      "logs": [
        {
          "address": "0x8aafd3ede9adb0ff97c7aebce82a919afb1c8764",
          "topics": [
            "0xddf252ad1be2c89b69c2b068fc378daa952ba7f163c4a11628f55a4df523b3ef",
            "0x000000000000000000000000c77f7fed3b5cc8249adc428c5f44c9063b9734b4",
            "0x0000000000000000000000000000000000000000000000000000000000000000"
          ],
          "data": "0x0000000000000000000000000000000000000000000000000000000129c4056d",
          "blockHash": "0x61de11c56ffc41791ecc762cee76a5842509b8b8f0a67ab3a087ec553c314be4",
          "blockNumber": "0x731ec9",
          "transactionHash": "0x1b9cb013bddaff0e87af7e1614eab24caf009aff070e9d4bc5bb3d6b8b7dd19a",
          "transactionIndex": "0x68",
          "logIndex": "0xb1",
          "removed": false
        },
        {
          "address": "0x8aafd3ede9adb0ff97c7aebce82a919afb1c8764",
          "topics": [
            "0xddf252ad1be2c89b69c2b068fc378daa952ba7f163c4a11628f55a4df523b3ef",
            "0x000000000000000000000000c77f7fed3b5cc8249adc428c5f44c9063b9734b4",
            "0x000000000000000000000000c77f7fed3b5cc8249adc428c5f44c9063b9734b4"
          ],
          "data": "0x000000000000000000000000000000000000000000000000000000000266bdfa",
          "blockHash": "0x61de11c56ffc41791ecc762cee76a5842509b8b8f0a67ab3a087ec553c314be4",
          "blockNumber": "0x731ec9",
          "transactionHash": "0x1b9cb013bddaff0e87af7e1614eab24caf009aff070e9d4bc5bb3d6b8b7dd19a",
          "transactionIndex": "0x68",
          "logIndex": "0xb2",
          "removed": false
        },
        {
          "address": "0x8aafd3ede9adb0ff97c7aebce82a919afb1c8764",
          "topics": [
            "0x4afcb4a87cdbd9974efdb92ee48bc8d7cd0ae4bf217004db3d080cbaee652ca7"
          ],
          "data": "0x0000000000000000000000000000000000000000000000000000000067906e5400000000000000000000000000000000000000000000000000170f6a72182f140000000000000000000000000000000000000000000000000000000001f2c6d7",
          "blockHash": "0x61de11c56ffc41791ecc762cee76a5842509b8b8f0a67ab3a087ec553c314be4",
          "blockNumber": "0x731ec9",
          "transactionHash": "0x1b9cb013bddaff0e87af7e1614eab24caf009aff070e9d4bc5bb3d6b8b7dd19a",
          "transactionIndex": "0x68",
          "logIndex": "0xb3",
          "removed": false
        }
      ],
      "logsBloom": "0x00000000000000000000000000000000000000000600000000000000000000000000000000000000000000000000000000000000000000004000000000000000000000000000004000000008000000000000000000000000000000000000000000000000020000000000000000000800020000000000000000000010000000000000000000000000000000000000000000000000000000000000010000000000000000000000000000000000000000004000000000000000000000000000000000000002000000800000000000000000000000000000080000000000000020000000000000000000000000000000000000000000000000000000000000000000",
      "type": "0x2",
      "transactionHash": "0x1b9cb013bddaff0e87af7e1614eab24caf009aff070e9d4bc5bb3d6b8b7dd19a",
      "transactionIndex": "0x68",
      "blockHash": "0x61de11c56ffc41791ecc762cee76a5842509b8b8f0a67ab3a087ec553c314be4",
      "blockNumber": "0x731ec9",
      "gasUsed": "0xfd1b",
      "effectiveGasPrice": "0x75030e6f",
      "from": "0xc77f7fed3b5cc8249adc428c5f44c9063b9734b4",
      "to": "0x8aafd3ede9adb0ff97c7aebce82a919afb1c8764",
      "contractAddress": null
    }
  ],
  "libraries": [],
  "pending": [],
  "returns": {},
  "timestamp": 1737518678,
  "chain": 11155111,
  "commit": "1d2fb70"
}