{
  "transactions": [
    {
      "hash": "0xe42a004290328d09d867e4df9b29ebc257918dfa1b3293fdaf5075fc08805d4a",
      "transactionType": "CALL",
      "contractName": null,
      "contractAddress": "0x8aafd3ede9adb0ff97c7aebce82a919afb1c8764",
      "function": "sell(uint256)",
      "arguments": [
        "1395249018667342754"
      ],
      "transaction": {
        "from": "0xc77f7fed3b5cc8249adc428c5f44c9063b9734b4",
        "to": "0x8aafd3ede9adb0ff97c7aebce82a919afb1c8764",
        "gas": "0x15dca",
        "value": "0x0",
        "input": "0xe4849b32000000000000000000000000000000000000000000000000135ceb9712e11ba2",
        "nonce": "0x1617",
        "chainId": "0xaa36a7"
      },
      "additionalContracts": [],
      "isFixedGasLimit": false
    }
  ],
  "receipts": [
    {
      "status": "0x1",
      "cumulativeGasUsed": "0x8f7793",
      "logs": [
        {
          "address": "0x8aafd3ede9adb0ff97c7aebce82a919afb1c8764",
          "topics": [
            "0xddf252ad1be2c89b69c2b068fc378daa952ba7f163c4a11628f55a4df523b3ef",
            "0x000000000000000000000000c77f7fed3b5cc8249adc428c5f44c9063b9734b4",
            "0x0000000000000000000000000000000000000000000000000000000000000000"
          ],
          "data": "0x000000000000000000000000000000000000000000000000133543d141d5112c",
          "blockHash": "0xeca1475b326322cea14413cc9a6cae1a0871cc4d326282bc2324d66ea1debdf1",
          "blockNumber": "0x731dad",
          "transactionHash": "0xe42a004290328d09d867e4df9b29ebc257918dfa1b3293fdaf5075fc08805d4a",
          "transactionIndex": "0x55",
          "logIndex": "0x7f",
          "removed": false
        },
        {
          "address": "0x8aafd3ede9adb0ff97c7aebce82a919afb1c8764",
          "topics": [
            "0xddf252ad1be2c89b69c2b068fc378daa952ba7f163c4a11628f55a4df523b3ef",
            "0x000000000000000000000000c77f7fed3b5cc8249adc428c5f44c9063b9734b4",
            "0x000000000000000000000000c77f7fed3b5cc8249adc428c5f44c9063b9734b4"
          ],
          "data": "0x0000000000000000000000000000000000000000000000000027a7c5d10c0a76",
          "blockHash": "0xeca1475b326322cea14413cc9a6cae1a0871cc4d326282bc2324d66ea1debdf1",
          "blockNumber": "0x731dad",
          "transactionHash": "0xe42a004290328d09d867e4df9b29ebc257918dfa1b3293fdaf5075fc08805d4a",
          "transactionIndex": "0x55",
          "logIndex": "0x80",
          "removed": false
        },
        {
          "address": "0x8aafd3ede9adb0ff97c7aebce82a919afb1c8764",
          "topics": [
            "0x4afcb4a87cdbd9974efdb92ee48bc8d7cd0ae4bf217004db3d080cbaee652ca7"
          ],
          "data": "0x000000000000000000000000000000000000000000000000000000006790610400000000000000000000000000000000000000000000000000145518c61a8049000000000000000000000000000000000000000000000000001c5e2ed3d1f037",
          "blockHash": "0xeca1475b326322cea14413cc9a6cae1a0871cc4d326282bc2324d66ea1debdf1",
          "blockNumber": "0x731dad",
          "transactionHash": "0xe42a004290328d09d867e4df9b29ebc257918dfa1b3293fdaf5075fc08805d4a",
          "transactionIndex": "0x55",
          "logIndex": "0x81",
          "removed": false
        }
      ],
      "logsBloom": "0x00000000000000000000000000000000000000000600000000000000000000000000000000000000000000000000000000000000000000004000000000000000000000000000004000000008000000000000000000000000000000000000000000000000020000000000000000000800020000000000000000000010000000000000000000000000000000000000000000000000000000000000010000000000000000000000000000000000000000004000000000000000000000000000000000000002000000800000000000000000000000000000080000000000000020000000000000000000000000000000000000000000000000000000000000000000",
      "type": "0x2",
      "transactionHash": "0xe42a004290328d09d867e4df9b29ebc257918dfa1b3293fdaf5075fc08805d4a",
      "transactionIndex": "0x55",
      "blockHash": "0xeca1475b326322cea14413cc9a6cae1a0871cc4d326282bc2324d66ea1debdf1",
      "blockNumber": "0x731dad",
      "gasUsed": "0xfd3f",
      "effectiveGasPrice": "0x7562fcd9",
      "from": "0xc77f7fed3b5cc8249adc428c5f44c9063b9734b4",
      "to": "0x8aafd3ede9adb0ff97c7aebce82a919afb1c8764",
      "contractAddress": null
    }
  ],
  "libraries": [],
  "pending": [],
  "returns": {},
  "timestamp": 1737515270,
  "chain": 11155111,
  "commit": "1d2fb70"
}