{
  "transactions": [
    {
      "hash": "0x02d9a5f23976afe8341267fa72d13cbdd5c1a5c1f03dd3ac270c772687814c2e",
      "transactionType": "CALL",
      "contractName": null,
      "contractAddress": "0x8aafd3ede9adb0ff97c7aebce82a919afb1c8764",
      "function": "sell(uint256)",
      "arguments": [
        "10066381849592343"
      ],
      "transaction": {
        "from": "0xc77f7fed3b5cc8249adc428c5f44c9063b9734b4",
        "to": "0x8aafd3ede9adb0ff97c7aebce82a919afb1c8764",
        "gas": "0x1724d",
        "value": "0x0",
        "input": "0xe4849b320000000000000000000000000000000000000000000000000023c3522a518217",
        "nonce": "0x16d5",
        "chainId": "0xaa36a7"
      },
      "additionalContracts": [],
      "isFixedGasLimit": false
    }
  ],
  "receipts": [
    {
      "status": "0x1",
      "cumulativeGasUsed": "0xb01c85",
      "logs": [
        {
          "address": "0x8aafd3ede9adb0ff97c7aebce82a919afb1c8764",
          "topics": [
            "0xddf252ad1be2c89b69c2b068fc378daa952ba7f163c4a11628f55a4df523b3ef",
            "0x000000000000000000000000c77f7fed3b5cc8249adc428c5f44c9063b9734b4",
            "0x0000000000000000000000000000000000000000000000000000000000000000"
          ],
          "data": "0x00000000000000000000000000000000000000000000000000237a1411676255",
          "blockHash": "0x9677843e64e9ce9b397a86cfae244e500697479b8ee6516256baba287af67ae0",
          "blockNumber": "0x731e91",
          "transactionHash": "0x02d9a5f23976afe8341267fa72d13cbdd5c1a5c1f03dd3ac270c772687814c2e",
          "transactionIndex": "0x5b",
          "logIndex": "0x82",
          "removed": false
        },
        {
          "address": "0x8aafd3ede9adb0ff97c7aebce82a919afb1c8764",
          "topics": [
            "0xddf252ad1be2c89b69c2b068fc378daa952ba7f163c4a11628f55a4df523b3ef",
            "0x000000000000000000000000c77f7fed3b5cc8249adc428c5f44c9063b9734b4",
            "0x000000000000000000000000c77f7fed3b5cc8249adc428c5f44c9063b9734b4"
          ],
          "data": "0x0000000000000000000000000000000000000000000000000000493e18ea1fc2",
          "blockHash": "0x9677843e64e9ce9b397a86cfae244e500697479b8ee6516256baba287af67ae0",
          "blockNumber": "0x731e91",
          "transactionHash": "0x02d9a5f23976afe8341267fa72d13cbdd5c1a5c1f03dd3ac270c772687814c2e",
          "transactionIndex": "0x5b",
          "logIndex": "0x83",
          "removed": false
        },
        {
          "address": "0x8aafd3ede9adb0ff97c7aebce82a919afb1c8764",
          "topics": [
            "0x4afcb4a87cdbd9974efdb92ee48bc8d7cd0ae4bf217004db3d080cbaee652ca7"
          ],
          "data": "0x0000000000000000000000000000000000000000000000000000000067906bb4000000000000000000000000000000000000000000000000001688d305cca99b00000000000000000000000000000000000000000000000000003a12388d6683",
          "blockHash": "0x9677843e64e9ce9b397a86cfae244e500697479b8ee6516256baba287af67ae0",
          "blockNumber": "0x731e91",
          "transactionHash": "0x02d9a5f23976afe8341267fa72d13cbdd5c1a5c1f03dd3ac270c772687814c2e",
          "transactionIndex": "0x5b",
          "logIndex": "0x84",
          "removed": false
        }
      ],
      "logsBloom": "0x00000000000000000000000000000000000000000600000000000000000000000000000000000000000000000000000000000000000000004000000000000000000000000000004000000008000000000000000000000000000000000000000000000000020000000000000000000800020000000000000000000010000000000000000000000000000000000000000000000000000000000000010000000000000000000000000000000000000000004000000000000000000000000000000000000002000000800000000000000000000000000000080000000000000020000000000000000000000000000000000000000000000000000000000000000000",
      "type": "0x2",
      "transactionHash": "0x02d9a5f23976afe8341267fa72d13cbdd5c1a5c1f03dd3ac270c772687814c2e",
      "transactionIndex": "0x5b",
      "blockHash": "0x9677843e64e9ce9b397a86cfae244e500697479b8ee6516256baba287af67ae0",
      "blockNumber": "0x731e91",
      "gasUsed": "0xfd33",
      "effectiveGasPrice": "0x478e87c6",
      "from": "0xc77f7fed3b5cc8249adc428c5f44c9063b9734b4",
      "to": "0x8aafd3ede9adb0ff97c7aebce82a919afb1c8764",
      "contractAddress": null
    }
  ],
  "libraries": [],
  "pending": [],
  "returns": {},
  "timestamp": 1737518005,
  "chain": 11155111,
  "commit": "1d2fb70"
}