{
  "transactions": [
    {
      "hash": "0xdc9c893847b03caaed7b023949cece5026e3afdd871d808839527ed8faea91f5",
      "transactionType": "CALL",
      "contractName": null,
      "contractAddress": "0x8aafd3ede9adb0ff97c7aebce82a919afb1c8764",
      "function": "sell(uint256)",
      "arguments": [
        "47461328271149543"
      ],
      "transaction": {
        "from": "0xc77f7fed3b5cc8249adc428c5f44c9063b9734b4",
        "to": "0x8aafd3ede9adb0ff97c7aebce82a919afb1c8764",
        "gas": "0x1724d",
        "value": "0x0",
        "input": "0xe4849b3200000000000000000000000000000000000000000000000000a89dd39c2b89e7",
        "nonce": "0xf7d",
        "chainId": "0xaa36a7"
      },
      "additionalContracts": [],
      "isFixedGasLimit": false
    }
  ],
  "receipts": [
    {
      "status": "0x1",
      "cumulativeGasUsed": "0x123b20c",
      "logs": [
        {
          "address": "0x8aafd3ede9adb0ff97c7aebce82a919afb1c8764",
          "topics": [
            "0xddf252ad1be2c89b69c2b068fc378daa952ba7f163c4a11628f55a4df523b3ef",
            "0x000000000000000000000000c77f7fed3b5cc8249adc428c5f44c9063b9734b4",
            "0x0000000000000000000000000000000000000000000000000000000000000000"
          ],
          "data": "0x00000000000000000000000000000000000000000000000000a7447fff45d07b",
          "blockHash": "0x0c700385a690068bdad53ca36cf1c4f0ac360a591349108dbb95b665c333374b",
          "blockNumber": "0x7315df",
          "transactionHash": "0xdc9c893847b03caaed7b023949cece5026e3afdd871d808839527ed8faea91f5",
          "transactionIndex": "0x8d",
          "logIndex": "0xea",
          "removed": false
        },
        {
          "address": "0x8aafd3ede9adb0ff97c7aebce82a919afb1c8764",
          "topics": [
            "0xddf252ad1be2c89b69c2b068fc378daa952ba7f163c4a11628f55a4df523b3ef",
            "0x000000000000000000000000c77f7fed3b5cc8249adc428c5f44c9063b9734b4",
            "0x000000000000000000000000c77f7fed3b5cc8249adc428c5f44c9063b9734b4"
          ],
          "data": "0x000000000000000000000000000000000000000000000000000159539ce5b96c",
          "blockHash": "0x0c700385a690068bdad53ca36cf1c4f0ac360a591349108dbb95b665c333374b",
          "blockNumber": "0x7315df",
          "transactionHash": "0xdc9c893847b03caaed7b023949cece5026e3afdd871d808839527ed8faea91f5",
          "transactionIndex": "0x8d",
          "logIndex": "0xeb",
          "removed": false
        },
        {
          "address": "0x8aafd3ede9adb0ff97c7aebce82a919afb1c8764",
          "topics": [
            "0x4afcb4a87cdbd9974efdb92ee48bc8d7cd0ae4bf217004db3d080cbaee652ca7"
          ],
          "data": "0x00000000000000000000000000000000000000000000000000000000679003200000000000000000000000000000000000000000000000000004c22b68509050000000000000000000000000000000000000000000000000000039d0e1c06b10",
          "blockHash": "0x0c700385a690068bdad53ca36cf1c4f0ac360a591349108dbb95b665c333374b",
          "blockNumber": "0x7315df",
          "transactionHash": "0xdc9c893847b03caaed7b023949cece5026e3afdd871d808839527ed8faea91f5",
          "transactionIndex": "0x8d",
          "logIndex": "0xec",
          "removed": false
        }
      ],
      "logsBloom": "0x00000000000000000000000000000000000000000600000000000000000000000000000000000000000000000000000000000000000000004000000000000000000000000000004000000008000000000000000000000000000000000000000000000000020000000000000000000800020000000000000000000010000000000000000000000000000000000000000000000000000000000000010000000000000000000000000000000000000000004000000000000000000000000000000000000002000000800000000000000000000000000000080000000000000020000000000000000000000000000000000000000000000000000000000000000000",
      "type": "0x2",
      "transactionHash": "0xdc9c893847b03caaed7b023949cece5026e3afdd871d808839527ed8faea91f5",
      "transactionIndex": "0x8d",
      "blockHash": "0x0c700385a690068bdad53ca36cf1c4f0ac360a591349108dbb95b665c333374b",
      "blockNumber": "0x7315df",
      "gasUsed": "0xfd33",
      "effectiveGasPrice": "0x6df96145",
      "from": "0xc77f7fed3b5cc8249adc428c5f44c9063b9734b4",
      "to": "0x8aafd3ede9adb0ff97c7aebce82a919afb1c8764",
      "contractAddress": null
    }
  ],
  "libraries": [],
  "pending": [],
  "returns": {},
  "timestamp": 1737491233,
  "chain": 11155111,
  "commit": "1d2fb70"
}