{
  "transactions": [
    {
      "hash": "0x772de4feced69b968f78c207df4b3f0bc63262ab191a957490d12eb6464b6e11",
      "transactionType": "CALL",
      "contractName": null,
      "contractAddress": "0x8aafd3ede9adb0ff97c7aebce82a919afb1c8764",
      "function": "sell(uint256)",
      "arguments": [
        "2915251795354"
      ],
      "transaction": {
        "from": "0xc77f7fed3b5cc8249adc428c5f44c9063b9734b4",
        "to": "0x8aafd3ede9adb0ff97c7aebce82a919afb1c8764",
        "gas": "0x15daa",
        "value": "0x0",
        "input": "0xe4849b32000000000000000000000000000000000000000000000000000002a6c28c359a",
        "nonce": "0x106d",
        "chainId": "0xaa36a7"
      },
      "additionalContracts": [],
      "isFixedGasLimit": false
    }
  ],
  "receipts": [
    {
      "status": "0x1",
      "cumulativeGasUsed": "0xd1f275",
      "logs": [
        {
          "address": "0x8aafd3ede9adb0ff97c7aebce82a919afb1c8764",
          "topics": [
            "0xddf252ad1be2c89b69c2b068fc378daa952ba7f163c4a11628f55a4df523b3ef",
            "0x000000000000000000000000c77f7fed3b5cc8249adc428c5f44c9063b9734b4",
            "0x0000000000000000000000000000000000000000000000000000000000000000"
          ],
          "data": "0x000000000000000000000000000000000000000000000000000002a154728300",
          "blockHash": "0x97e66de5701cf4441a56fec45adecb80badfe64762af06afe0fd6d5d1537a230",
          "blockNumber": "0x7316f3",
          "transactionHash": "0x772de4feced69b968f78c207df4b3f0bc63262ab191a957490d12eb6464b6e11",
          "transactionIndex": "0x8c",
          "logIndex": "0xa7",
          "removed": false
        },
        {
          "address": "0x8aafd3ede9adb0ff97c7aebce82a919afb1c8764",
          "topics": [
            "0xddf252ad1be2c89b69c2b068fc378daa952ba7f163c4a11628f55a4df523b3ef",
            "0x000000000000000000000000c77f7fed3b5cc8249adc428c5f44c9063b9734b4",
            "0x000000000000000000000000c77f7fed3b5cc8249adc428c5f44c9063b9734b4"
          ],
          "data": "0x000000000000000000000000000000000000000000000000000000056e19b29a",
          "blockHash": "0x97e66de5701cf4441a56fec45adecb80badfe64762af06afe0fd6d5d1537a230",
          "blockNumber": "0x7316f3",
          "transactionHash": "0x772de4feced69b968f78c207df4b3f0bc63262ab191a957490d12eb6464b6e11",
          "transactionIndex": "0x8c",
          "logIndex": "0xa8",
          "removed": false
        },
        {
          "address": "0x8aafd3ede9adb0ff97c7aebce82a919afb1c8764",
          "topics": [
            "0x4afcb4a87cdbd9974efdb92ee48bc8d7cd0ae4bf217004db3d080cbaee652ca7"
          ],
          "data": "0x000000000000000000000000000000000000000000000000000000006790101c0000000000000000000000000000000000000000000000000004f65f9001d8f600000000000000000000000000000000000000000000000000000000f2b5b711",
          "blockHash": "0x97e66de5701cf4441a56fec45adecb80badfe64762af06afe0fd6d5d1537a230",
          "blockNumber": "0x7316f3",
          "transactionHash": "0x772de4feced69b968f78c207df4b3f0bc63262ab191a957490d12eb6464b6e11",
          "transactionIndex": "0x8c",
          "logIndex": "0xa9",
          "removed": false
        }
      ],
      "logsBloom": "0x00000000000000000000000000000000000000000600000000000000000000000000000000000000000000000000000000000000000000004000000000000000000000000000004000000008000000000000000000000000000000000000000000000000020000000000000000000800020000000000000000000010000000000000000000000000000000000000000000000000000000000000010000000000000000000000000000000000000000004000000000000000000000000000000000000002000000800000000000000000000000000000080000000000000020000000000000000000000000000000000000000000000000000000000000000000",
      "type": "0x2",
      "transactionHash": "0x772de4feced69b968f78c207df4b3f0bc63262ab191a957490d12eb6464b6e11",
      "transactionIndex": "0x8c",
      "blockHash": "0x97e66de5701cf4441a56fec45adecb80badfe64762af06afe0fd6d5d1537a230",
      "blockNumber": "0x7316f3",
      "gasUsed": "0xfd27",
      "effectiveGasPrice": "0x3f6b0ef0",
      "from": "0xc77f7fed3b5cc8249adc428c5f44c9063b9734b4",
      "to": "0x8aafd3ede9adb0ff97c7aebce82a919afb1c8764",
      "contractAddress": null
    }
  ],
  "libraries": [],
  "pending": [],
  "returns": {},
  "timestamp": 1737494557,
  "chain": 11155111,
  "commit": "1d2fb70"
}