{
  "transactions": [
    {
      "hash": "0xf3e63317a06121eb882db77907c6e6ad3304c1524dfcb84636c5725bd6f5cacb",
      "transactionType": "CALL",
      "contractName": null,
      "contractAddress": "0x5eb9cc76c3506942c1c0ead70e877dd5e4f00cb0",
      "function": "buy(address)",
      "arguments": [
        "0xC77f7fed3b5Cc8249aDc428c5F44C9063B9734b4"
      ],
      "transaction": {
        "from": "0xc77f7fed3b5cc8249adc428c5f44c9063b9734b4",
        "to": "0x5eb9cc76c3506942c1c0ead70e877dd5e4f00cb0",
        "gas": "0x156c8",
        "value": "0xde0b6b3a7640000",
        "input": "0xf088d547000000000000000000000000c77f7fed3b5cc8249adc428c5f44c9063b9734b4",
        "nonce": "0x151",
        "chainId": "0xaa36a7"
      },
      "additionalContracts": [],
      "isFixedGasLimit": false
    }
  ],
  "receipts": [
    {
      "status": "0x1",
      "cumulativeGasUsed": "0x90daa",
      "logs": [
        {
          "address": "0x5eb9cc76c3506942c1c0ead70e877dd5e4f00cb0",
          "topics": [
            "0xddf252ad1be2c89b69c2b068fc378daa952ba7f163c4a11628f55a4df523b3ef",
            "0x0000000000000000000000000000000000000000000000000000000000000000",
            "0x000000000000000000000000c77f7fed3b5cc8249adc428c5f44c9063b9734b4"
          ],
          "data": "0x000000000000000000000000000000000000000000000035aaf1b3dccbd196cd",
          "blockHash": "0x1112bdb95fb55bd2efba7f1f3346d46710ce4648ded445307555701f0a4842d2",
          "blockNumber": "0x723b48",
          "transactionHash": "0xf3e63317a06121eb882db77907c6e6ad3304c1524dfcb84636c5725bd6f5cacb",
          "transactionIndex": "0xa",
          "logIndex": "0xc",
          "removed": false
        },
        {
          "address": "0x5eb9cc76c3506942c1c0ead70e877dd5e4f00cb0",
          "topics": [
            "0xddf252ad1be2c89b69c2b068fc378daa952ba7f163c4a11628f55a4df523b3ef",
            "0x0000000000000000000000000000000000000000000000000000000000000000",
            "0x000000000000000000000000c77f7fed3b5cc8249adc428c5f44c9063b9734b4"
          ],
          "data": "0x00000000000000000000000000000000000000000000000029acc23e8748e864",
          "blockHash": "0x1112bdb95fb55bd2efba7f1f3346d46710ce4648ded445307555701f0a4842d2",
          "blockNumber": "0x723b48",
          "transactionHash": "0xf3e63317a06121eb882db77907c6e6ad3304c1524dfcb84636c5725bd6f5cacb",
          "transactionIndex": "0xa",
          "logIndex": "0xd",
          "removed": false
        },
        {
          "address": "0x5eb9cc76c3506942c1c0ead70e877dd5e4f00cb0",
          "topics": [
            "0x4afcb4a87cdbd9974efdb92ee48bc8d7cd0ae4bf217004db3d080cbaee652ca7"
          ],
          "data": "0x000000000000000000000000000000000000000000000000000000006785b8b400000000000000000000000000000000000000000000000000038d7fc9185f0c0000000000000000000000000000000000000000000000000de0b6b3a7640000",
          "blockHash": "0x1112bdb95fb55bd2efba7f1f3346d46710ce4648ded445307555701f0a4842d2",
          "blockNumber": "0x723b48",
          "transactionHash": "0xf3e63317a06121eb882db77907c6e6ad3304c1524dfcb84636c5725bd6f5cacb",
          "transactionIndex": "0xa",
          "logIndex": "0xe",
          "removed": false
        }
      ],
      "logsBloom": "0x00000000000000000000000000000000000000000000000000000000000000000000000000000000000000000000000000000000000000004000000000000000000000000000000000000008000000000000000000000000000000000000000000000000020000000000000004000800020000000000000000000010000000000000000000000000000000000000000000000000000000000000010000000000000000000000000000000000000000004000000000000000000000000000020000000002000000800000008000000000000000000000080000000000000020000000000000000000000000000000000000000000000000000000000000000000",
      "type": "0x2",
      "transactionHash": "0xf3e63317a06121eb882db77907c6e6ad3304c1524dfcb84636c5725bd6f5cacb",
      "transactionIndex": "0xa",
      "blockHash": "0x1112bdb95fb55bd2efba7f1f3346d46710ce4648ded445307555701f0a4842d2",
      "blockNumber": "0x723b48",
      "gasUsed": "0xf82c",
      "effectiveGasPrice": "0x676981ec1",
      "from": "0xc77f7fed3b5cc8249adc428c5f44c9063b9734b4",
      "to": "0x5eb9cc76c3506942c1c0ead70e877dd5e4f00cb0",
      "contractAddress": null
    }
  ],
  "libraries": [],
  "pending": [],
  "returns": {},
  "timestamp": 1736816822,
  "chain": 11155111,
  "commit": "51a374b"
}