{
  "transactions": [
    {
      "hash": "0x3ac3e59b670f37c26beaf0a6efb3285d86b4a4f7f8f202b8ac5ecd9e68af6990",
      "transactionType": "CALL",
      "contractName": null,
      "contractAddress": "0x5eb9cc76c3506942c1c0ead70e877dd5e4f00cb0",
      "function": "sell(uint256)",
      "arguments": [
        "989611932053371115581"
      ],
      "transaction": {
        "from": "0xc77f7fed3b5cc8249adc428c5f44c9063b9734b4",
        "to": "0x5eb9cc76c3506942c1c0ead70e877dd5e4f00cb0",
        "gas": "0x16fec",
        "value": "0x0",
        "input": "0xe4849b32000000000000000000000000000000000000000000000035a59fd9038930583d",
        "nonce": "0x265",
        "chainId": "0xaa36a7"
      },
      "additionalContracts": [],
      "isFixedGasLimit": false
    }
  ],
  "receipts": [
    {
      "status": "0x1",
      "cumulativeGasUsed": "0xbf7380",
      "logs": [
        {
          "address": "0x5eb9cc76c3506942c1c0ead70e877dd5e4f00cb0",
          "topics": [
            "0xddf252ad1be2c89b69c2b068fc378daa952ba7f163c4a11628f55a4df523b3ef",
            "0x000000000000000000000000c77f7fed3b5cc8249adc428c5f44c9063b9734b4",
            "0x0000000000000000000000000000000000000000000000000000000000000000"
          ],
          "data": "0x000000000000000000000000000000000000000000000035a59fd9038930583d",
          "blockHash": "0x5758a2f43a6fc4ade2b0712f737e1a39aeec6d13405000825d6d8f3e5678d110",
          "blockNumber": "0x724e25",
          "transactionHash": "0x3ac3e59b670f37c26beaf0a6efb3285d86b4a4f7f8f202b8ac5ecd9e68af6990",
          "transactionIndex": "0x56",
          "logIndex": "0xa1",
          "removed": false
        },
        {
          "address": "0x5eb9cc76c3506942c1c0ead70e877dd5e4f00cb0",
          "topics": [
            "0x4afcb4a87cdbd9974efdb92ee48bc8d7cd0ae4bf217004db3d080cbaee652ca7"
          ],
          "data": "0x0000000000000000000000000000000000000000000000000000000067869b700000000000000000000000000000000000000000000000000003909c8c22393e0000000000000000000000000000000000000000000000000dc7db118375b002",
          "blockHash": "0x5758a2f43a6fc4ade2b0712f737e1a39aeec6d13405000825d6d8f3e5678d110",
          "blockNumber": "0x724e25",
          "transactionHash": "0x3ac3e59b670f37c26beaf0a6efb3285d86b4a4f7f8f202b8ac5ecd9e68af6990",
          "transactionIndex": "0x56",
          "logIndex": "0xa2",
          "removed": false
        }
      ],
      "logsBloom": "0x00000000000000000000000000000000000000000000000000000000000000000000000000000000000000000000000000000000000000004000000000000000000000000000000000000008000000000000000000000000000000000000000000000000020000000000000004000800020000000000000000000010000000000000000000000000000000000000000000000000000000000000010000000000000000000000000000000000000000004000000000000000000000000000020000000002000000800000008000000000000000000000080000000000000020000000000000000000000000000000000000000000000000000000000000000000",
      "type": "0x2",
      "transactionHash": "0x3ac3e59b670f37c26beaf0a6efb3285d86b4a4f7f8f202b8ac5ecd9e68af6990",
      "transactionIndex": "0x56",
      "blockHash": "0x5758a2f43a6fc4ade2b0712f737e1a39aeec6d13405000825d6d8f3e5678d110",
      "blockNumber": "0x724e25",
      "gasUsed": "0xfb93",
      "effectiveGasPrice": "0x3825c7dfc",
      "from": "0xc77f7fed3b5cc8249adc428c5f44c9063b9734b4",
      "to": "0x5eb9cc76c3506942c1c0ead70e877dd5e4f00cb0",
      "contractAddress": null
    }
  ],
  "libraries": [],
  "pending": [],
  "returns": {},
  "timestamp": 1736874865,
  "chain": 11155111,
  "commit": "51a374b"
}