{
  "transactions": [
    {
      "hash": "0x1073ae9bcbdcd53253e266c689384d23aa0fba8946fe0c4a167393357fef5025",
      "transactionType": "CALL",
      "contractName": null,
      "contractAddress": "0x270e88f8683660553e8ba4eb2ad7c91a1710d769",
      "function": "sell(uint256)",
      "arguments": [
        "738689821089224290184"
      ],
      "transaction": {
        "from": "0xc77f7fed3b5cc8249adc428c5f44c9063b9734b4",
        "to": "0x270e88f8683660553e8ba4eb2ad7c91a1710d769",
        "gas": "0x16fec",
        "value": "0x0",
        "input": "0xe4849b320000000000000000000000000000000000000000000000280b616e88c4116f88",
        "nonce": "0x74a",
        "chainId": "0xaa36a7"
      },
      "additionalContracts": [],
      "isFixedGasLimit": false
    }
  ],
  "receipts": [
    {
      "status": "0x1",
      "cumulativeGasUsed": "0x213d485",
      "logs": [
        {
          "address": "0x270e88f8683660553e8ba4eb2ad7c91a1710d769",
          "topics": [
            "0xddf252ad1be2c89b69c2b068fc378daa952ba7f163c4a11628f55a4df523b3ef",
            "0x000000000000000000000000c77f7fed3b5cc8249adc428c5f44c9063b9734b4",
            "0x0000000000000000000000000000000000000000000000000000000000000000"
          ],
          "data": "0x0000000000000000000000000000000000000000000000280b616e88c4116f88",
          "blockHash": "0xe04ec40e81d1061208214e73743d1fc1da098978abc397256e1416742a05cf42",
          "blockNumber": "0x72546e",
          "transactionHash": "0x1073ae9bcbdcd53253e266c689384d23aa0fba8946fe0c4a167393357fef5025",
          "transactionIndex": "0x8e",
          "logIndex": "0x1f0",
          "removed": false
        },
        {
          "address": "0x270e88f8683660553e8ba4eb2ad7c91a1710d769",
          "topics": [
            "0x4afcb4a87cdbd9974efdb92ee48bc8d7cd0ae4bf217004db3d080cbaee652ca7"
          ],
          "data": "0x000000000000000000000000000000000000000000000000000000006786e7300000000000000000000000000000000000000000000000000004c6e7a407e2740000000000000000000000000000000000000000000000000dc8285d42d29017",
          "blockHash": "0xe04ec40e81d1061208214e73743d1fc1da098978abc397256e1416742a05cf42",
          "blockNumber": "0x72546e",
          "transactionHash": "0x1073ae9bcbdcd53253e266c689384d23aa0fba8946fe0c4a167393357fef5025",
          "transactionIndex": "0x8e",
          "logIndex": "0x1f1",
          "removed": false
        }
      ],
      "logsBloom": "0x00000000000000000000000000000000000000000000000000000000000000000000000000000000000000000000000020000000000000004000000000000000000000000000000000000008000000000000000000000000000000000000000000000000020000000000000000000800020000000000000000000010000000000000000000010000000000000000000000000000000000000000010000000000000000000000000000000000000000004000000000000000000000000000000000000002000000800000000000000000000000000000080000008000000020000000000000000000000000000000000000000000000000000000000000000000",
      "type": "0x2",
      "transactionHash": "0x1073ae9bcbdcd53253e266c689384d23aa0fba8946fe0c4a167393357fef5025",
      "transactionIndex": "0x8e",
      "blockHash": "0xe04ec40e81d1061208214e73743d1fc1da098978abc397256e1416742a05cf42",
      "blockNumber": "0x72546e",
      "gasUsed": "0xfb93",
      "effectiveGasPrice": "0x128e67829",
      "from": "0xc77f7fed3b5cc8249adc428c5f44c9063b9734b4",
      "to": "0x270e88f8683660553e8ba4eb2ad7c91a1710d769",
      "contractAddress": null
    }
  ],
  "libraries": [],
  "pending": [],
  "returns": {},
  "timestamp": 1736894257,
  "chain": 11155111,
  "commit": "51a374b"
}