{
  "transactions": [
    {
      "hash": "0x9649a5f399ecbab9373ad65a6eed5d980aed48a9f656c118d031dfe7328ec197",
      "transactionType": "CALL",
      "contractName": null,
      "contractAddress": "0x8aafd3ede9adb0ff97c7aebce82a919afb1c8764",
      "function": "sell(uint256)",
      "arguments": [
        "1464120"
      ],
      "transaction": {
        "from": "0xc77f7fed3b5cc8249adc428c5f44c9063b9734b4",
        "to": "0x8aafd3ede9adb0ff97c7aebce82a919afb1c8764",
        "gas": "0x16208",
        "value": "0x0",
        "input": "0xe4849b320000000000000000000000000000000000000000000000000000000000165738",
        "nonce": "0x111a",
        "chainId": "0xaa36a7"
      },
      "additionalContracts": [],
      "isFixedGasLimit": false
    }
  ],
  "receipts": [
    {
      "status": "0x1",
      "cumulativeGasUsed": "0x8b51b5",
      "logs": [
        {
          "address": "0x8aafd3ede9adb0ff97c7aebce82a919afb1c8764",
          "topics": [
            "0xddf252ad1be2c89b69c2b068fc378daa952ba7f163c4a11628f55a4df523b3ef",
            "0x000000000000000000000000c77f7fed3b5cc8249adc428c5f44c9063b9734b4",
            "0x0000000000000000000000000000000000000000000000000000000000000000"
          ],
          "data": "0x0000000000000000000000000000000000000000000000000000000000162978",
          "blockHash": "0x4cef4e2c61852df8c969119fc02df16a26319d354d44cb00d7fe197408fa7ce1",
          "blockNumber": "0x7317cc",
          "transactionHash": "0x9649a5f399ecbab9373ad65a6eed5d980aed48a9f656c118d031dfe7328ec197",
          "transactionIndex": "0x73",
          "logIndex": "0x6c",
          "removed": false
        },
        {
          "address": "0x8aafd3ede9adb0ff97c7aebce82a919afb1c8764",
          "topics": [
            "0xddf252ad1be2c89b69c2b068fc378daa952ba7f163c4a11628f55a4df523b3ef",
            "0x000000000000000000000000c77f7fed3b5cc8249adc428c5f44c9063b9734b4",
            "0x000000000000000000000000c77f7fed3b5cc8249adc428c5f44c9063b9734b4"
          ],
          "data": "0x0000000000000000000000000000000000000000000000000000000000002dc0",
          "blockHash": "0x4cef4e2c61852df8c969119fc02df16a26319d354d44cb00d7fe197408fa7ce1",
          "blockNumber": "0x7317cc",
          "transactionHash": "0x9649a5f399ecbab9373ad65a6eed5d980aed48a9f656c118d031dfe7328ec197",
          "transactionIndex": "0x73",
          "logIndex": "0x6d",
          "removed": false
        },
        {
          "address": "0x8aafd3ede9adb0ff97c7aebce82a919afb1c8764",
          "topics": [
            "0x4afcb4a87cdbd9974efdb92ee48bc8d7cd0ae4bf217004db3d080cbaee652ca7"
          ],
          "data": "0x0000000000000000000000000000000000000000000000000000000067901a5400000000000000000000000000000000000000000000000000050f106c1c9eab0000000000000000000000000000000000000000000000000000000000000824",
          "blockHash": "0x4cef4e2c61852df8c969119fc02df16a26319d354d44cb00d7fe197408fa7ce1",
          "blockNumber": "0x7317cc",
          "transactionHash": "0x9649a5f399ecbab9373ad65a6eed5d980aed48a9f656c118d031dfe7328ec197",
          "transactionIndex": "0x73",
          "logIndex": "0x6e",
          "removed": false
        }
      ],
      "logsBloom": "0x00000000000000000000000000000000000000000600000000000000000000000000000000000000000000000000000000000000000000004000000000000000000000000000004000000008000000000000000000000000000000000000000000000000020000000000000000000800020000000000000000000010000000000000000000000000000000000000000000000000000000000000010000000000000000000000000000000000000000004000000000000000000000000000000000000002000000800000000000000000000000000000080000000000000020000000000000000000000000000000000000000000000000000000000000000000",
      "type": "0x2",
      "transactionHash": "0x9649a5f399ecbab9373ad65a6eed5d980aed48a9f656c118d031dfe7328ec197",
      "transactionIndex": "0x73",
      "blockHash": "0x4cef4e2c61852df8c969119fc02df16a26319d354d44cb00d7fe197408fa7ce1",
      "blockNumber": "0x7317cc",
      "gasUsed": "0xf213",
      "effectiveGasPrice": "0x35efce50",
      "from": "0xc77f7fed3b5cc8249adc428c5f44c9063b9734b4",
      "to": "0x8aafd3ede9adb0ff97c7aebce82a919afb1c8764",
      "contractAddress": null
    }
  ],
  "libraries": [],
  "pending": [],
  "returns": {},
  "timestamp": 1737497173,
  "chain": 11155111,
  "commit": "1d2fb70"
}