{
  "transactions": [
    {
      "hash": "0x7a0559893da0da04223370812c3297e62a0e0c5446c21c4b0cb9ef7730ae5975",
      "transactionType": "CALL",
      "contractName": null,
      "contractAddress": "0x5eb9cc76c3506942c1c0ead70e877dd5e4f00cb0",
      "function": "buy(address)",
      "arguments": [
        "0xC77f7fed3b5Cc8249aDc428c5F44C9063B9734b4"
      ],
      "transaction": {
        "from": "0xc77f7fed3b5cc8249adc428c5f44c9063b9734b4",
        "to": "0x5eb9cc76c3506942c1c0ead70e877dd5e4f00cb0",
        "gas": "0x156c8",
        "value": "0xde0b6b3a7640000",
        "input": "0xf088d547000000000000000000000000c77f7fed3b5cc8249adc428c5f44c9063b9734b4",
        "nonce": "0x1f8",
        "chainId": "0xaa36a7"
      },
      "additionalContracts": [],
      "isFixedGasLimit": false
    }
  ],
  "receipts": [
    {
      "status": "0x1",
      "cumulativeGasUsed": "0x885d49",
      "logs": [
        {
          "address": "0x5eb9cc76c3506942c1c0ead70e877dd5e4f00cb0",
          "topics": [
            "0xddf252ad1be2c89b69c2b068fc378daa952ba7f163c4a11628f55a4df523b3ef",
            "0x0000000000000000000000000000000000000000000000000000000000000000",
            "0x000000000000000000000000c77f7fed3b5cc8249adc428c5f44c9063b9734b4"
          ],
          "data": "0x00000000000000000000000000000000000000000000003584c0457d84b48a6a",
          "blockHash": "0x972a8fac05b8f005ef086cdf6db71772ae181b9a4f4e48ae4a6196dd65bd032c",
          "blockNumber": "0x724b10",
          "transactionHash": "0x7a0559893da0da04223370812c3297e62a0e0c5446c21c4b0cb9ef7730ae5975",
          "transactionIndex": "0x4b",
          "logIndex": "0x7a",
          "removed": false
        },
        {
          "address": "0x5eb9cc76c3506942c1c0ead70e877dd5e4f00cb0",
          "topics": [
            "0xddf252ad1be2c89b69c2b068fc378daa952ba7f163c4a11628f55a4df523b3ef",
            "0x0000000000000000000000000000000000000000000000000000000000000000",
            "0x000000000000000000000000c77f7fed3b5cc8249adc428c5f44c9063b9734b4"
          ],
          "data": "0x000000000000000000000000000000000000000000000000298f19bc4758c10f",
          "blockHash": "0x972a8fac05b8f005ef086cdf6db71772ae181b9a4f4e48ae4a6196dd65bd032c",
          "blockNumber": "0x724b10",
          "transactionHash": "0x7a0559893da0da04223370812c3297e62a0e0c5446c21c4b0cb9ef7730ae5975",
          "transactionIndex": "0x4b",
          "logIndex": "0x7b",
          "removed": false
        },
        {
          "address": "0x5eb9cc76c3506942c1c0ead70e877dd5e4f00cb0",
          "topics": [
            "0x4afcb4a87cdbd9974efdb92ee48bc8d7cd0ae4bf217004db3d080cbaee652ca7"
          ],
          "data": "0x000000000000000000000000000000000000000000000000000000006786766800000000000000000000000000000000000000000000000000039008d79d91930000000000000000000000000000000000000000000000000de0b6b3a7640000",
          "blockHash": "0x972a8fac05b8f005ef086cdf6db71772ae181b9a4f4e48ae4a6196dd65bd032c",
          "blockNumber": "0x724b10",
          "transactionHash": "0x7a0559893da0da04223370812c3297e62a0e0c5446c21c4b0cb9ef7730ae5975",
          "transactionIndex": "0x4b",
          "logIndex": "0x7c",
          "removed": false
        }
      ],
      "logsBloom": "0x00000000000000000000000000000000000000000000000000000000000000000000000000000000000000000000000000000000000000004000000000000000000000000000000000000008000000000000000000000000000000000000000000000000020000000000000004000800020000000000000000000010000000000000000000000000000000000000000000000000000000000000010000000000000000000000000000000000000000004000000000000000000000000000020000000002000000800000008000000000000000000000080000000000000020000000000000000000000000000000000000000000000000000000000000000000",
      "type": "0x2",
      "transactionHash": "0x7a0559893da0da04223370812c3297e62a0e0c5446c21c4b0cb9ef7730ae5975",
      "transactionIndex": "0x4b",
      "blockHash": "0x972a8fac05b8f005ef086cdf6db71772ae181b9a4f4e48ae4a6196dd65bd032c",
      "blockNumber": "0x724b10",
      "gasUsed": "0xf82c",
      "effectiveGasPrice": "0x54476529b",
      "from": "0xc77f7fed3b5cc8249adc428c5f44c9063b9734b4",
      "to": "0x5eb9cc76c3506942c1c0ead70e877dd5e4f00cb0",
      "contractAddress": null
    }
  ],
  "libraries": [],
  "pending": [],
  "returns": {},
  "timestamp": 1736865385,
  "chain": 11155111,
  "commit": "51a374b"
}