{
  "transactions": [
    {
      "hash": "0xa5674bd267cea1bd0a31c71c1147011e40ded413d6705dda1b95ad928fcd118a",
      "transactionType": "CALL",
      "contractName": null,
      "contractAddress": "0xbf4a322f1496e5c3d34a9bcdb4c60567b38c7de2",
      "function": "sell(uint256)",
      "arguments": [
        "983867904146986919318"
      ],
      "transaction": {
        "from": "0xc77f7fed3b5cc8249adc428c5f44c9063b9734b4",
        "to": "0xbf4a322f1496e5c3d34a9bcdb4c60567b38c7de2",
        "gas": "0x16fea",
        "value": "0x0",
        "input": "0xe4849b3200000000000000000000000000000000000000000000003555e8f610ed3a6596",
        "nonce": "0xaf9",
        "chainId": "0xaa36a7"
      },
      "additionalContracts": [],
      "isFixedGasLimit": false
    }
  ],
  "receipts": [
    {
      "status": "0x1",
      "cumulativeGasUsed": "0x691e41",
      "logs": [
        {
          "address": "0xbf4a322f1496e5c3d34a9bcdb4c60567b38c7de2",
          "topics": [
            "0xddf252ad1be2c89b69c2b068fc378daa952ba7f163c4a11628f55a4df523b3ef",
            "0x000000000000000000000000c77f7fed3b5cc8249adc428c5f44c9063b9734b4",
            "0x0000000000000000000000000000000000000000000000000000000000000000"
          ],
          "data": "0x00000000000000000000000000000000000000000000003555e8f610ed3a6596",
          "blockHash": "0xd44668905df7f4bf2567fe80ad879ff4fe338fc4df274d2ed9570a215a64bb0a",
          "blockNumber": "0x725aee",
          "transactionHash": "0xa5674bd267cea1bd0a31c71c1147011e40ded413d6705dda1b95ad928fcd118a",
          "transactionIndex": "0x3a",
          "logIndex": "0x41",
          "removed": false
        },
        {
          "address": "0xbf4a322f1496e5c3d34a9bcdb4c60567b38c7de2",
          "topics": [
            "0x4afcb4a87cdbd9974efdb92ee48bc8d7cd0ae4bf217004db3d080cbaee652ca7"
          ],
          "data": "0x0000000000000000000000000000000000000000000000000000000067873578000000000000000000000000000000000000000000000000000395f6e9dbf5a70000000000000000000000000000000000000000000000000dc7e3eb0f2c560f",
          "blockHash": "0xd44668905df7f4bf2567fe80ad879ff4fe338fc4df274d2ed9570a215a64bb0a",
          "blockNumber": "0x725aee",
          "transactionHash": "0xa5674bd267cea1bd0a31c71c1147011e40ded413d6705dda1b95ad928fcd118a",
          "transactionIndex": "0x3a",
          "logIndex": "0x42",
          "removed": false
        }
      ],
      "logsBloom": "0x00000000000000000000000000000000000000000000000000000000000000000000000000000000000000000000000000000000000000004000000000000000000000000000000000000008000000000000001000000000000000000000000000000000020000000000000000000800020000000000000000000010000000000000000000000000000000000000000000000000000008000000010000000000000000000000000000000000000000004000000000000000000000000000000000000002000000800000000000001000000000000000080000000000000020000000000000000000000000000000000000000000000000000000000000000000",
      "type": "0x2",
      "transactionHash": "0xa5674bd267cea1bd0a31c71c1147011e40ded413d6705dda1b95ad928fcd118a",
      "transactionIndex": "0x3a",
      "blockHash": "0xd44668905df7f4bf2567fe80ad879ff4fe338fc4df274d2ed9570a215a64bb0a",
      "blockNumber": "0x725aee",
      "gasUsed": "0xfb91",
      "effectiveGasPrice": "0x9a169d19",
      "from": "0xc77f7fed3b5cc8249adc428c5f44c9063b9734b4",
      "to": "0xbf4a322f1496e5c3d34a9bcdb4c60567b38c7de2",
      "contractAddress": null
    }
  ],
  "libraries": [],
  "pending": [],
  "returns": {},
  "timestamp": 1736914297,
  "chain": 11155111,
  "commit": "51a374b"
}