{
  "transactions": [
    {
      "hash": "0xe07a0654726e8d3c1921d3af5fdaaac10729e4e137cab23f72b82d367f497aec",
      "transactionType": "CALL",
      "contractName": null,
      "contractAddress": "0xbf4a322f1496e5c3d34a9bcdb4c60567b38c7de2",
      "function": "buy(address)",
      "arguments": [
        "0xC77f7fed3b5Cc8249aDc428c5F44C9063B9734b4"
      ],
      "transaction": {
        "from": "0xc77f7fed3b5cc8249adc428c5f44c9063b9734b4",
        "to": "0xbf4a322f1496e5c3d34a9bcdb4c60567b38c7de2",
        "gas": "0x1b309",
        "value": "0xde0b6b3a7640000",
        "input": "0xf088d547000000000000000000000000c77f7fed3b5cc8249adc428c5f44c9063b9734b4",
        "nonce": "0x9e8",
        "chainId": "0xaa36a7"
      },
      "additionalContracts": [],
      "isFixedGasLimit": false
    }
  ],
  "receipts": [
    {
      "status": "0x1",
      "cumulativeGasUsed": "0x131bc0b",
      "logs": [
        {
          "address": "0xbf4a322f1496e5c3d34a9bcdb4c60567b38c7de2",
          "topics": [
            "0xddf252ad1be2c89b69c2b068fc378daa952ba7f163c4a11628f55a4df523b3ef",
            "0x0000000000000000000000000000000000000000000000000000000000000000",
            "0x000000000000000000000000c77f7fed3b5cc8249adc428c5f44c9063b9734b4"
          ],
          "data": "0x0000000000000000000000000000000000000000000000355fbce26161d83873",
          "blockHash": "0xf871a30a882b648a79819f2c7914d0797d2acc5bb607c1fcc5be33ce9a8fd909",
          "blockNumber": "0x72599d",
          "transactionHash": "0xe07a0654726e8d3c1921d3af5fdaaac10729e4e137cab23f72b82d367f497aec",
          "transactionIndex": "0x93",
          "logIndex": "0xf1",
          "removed": false
        },
        {
          "address": "0xbf4a322f1496e5c3d34a9bcdb4c60567b38c7de2",
          "topics": [
            "0xddf252ad1be2c89b69c2b068fc378daa952ba7f163c4a11628f55a4df523b3ef",
            "0x0000000000000000000000000000000000000000000000000000000000000000",
            "0x000000000000000000000000c77f7fed3b5cc8249adc428c5f44c9063b9734b4"
          ],
          "data": "0x00000000000000000000000000000000000000000000000029725bc62df8f7da",
          "blockHash": "0xf871a30a882b648a79819f2c7914d0797d2acc5bb607c1fcc5be33ce9a8fd909",
          "blockNumber": "0x72599d",
          "transactionHash": "0xe07a0654726e8d3c1921d3af5fdaaac10729e4e137cab23f72b82d367f497aec",
          "transactionIndex": "0x93",
          "logIndex": "0xf2",
          "removed": false
        },
        {
          "address": "0xbf4a322f1496e5c3d34a9bcdb4c60567b38c7de2",
          "topics": [
            "0x4afcb4a87cdbd9974efdb92ee48bc8d7cd0ae4bf217004db3d080cbaee652ca7"
          ],
          "data": "0x0000000000000000000000000000000000000000000000000000000067872594000000000000000000000000000000000000000000000000000392839c8e748a0000000000000000000000000000000000000000000000000de0b6b3a7640000",
          "blockHash": "0xf871a30a882b648a79819f2c7914d0797d2acc5bb607c1fcc5be33ce9a8fd909",
          "blockNumber": "0x72599d",
          "transactionHash": "0xe07a0654726e8d3c1921d3af5fdaaac10729e4e137cab23f72b82d367f497aec",
          "transactionIndex": "0x93",
          "logIndex": "0xf3",
          "removed": false
        }
      ],
      "logsBloom": "0x00000000000000000000000000000000000000000000000000000000000000000000000000000000000000000000000000000000000000004000000000000000000000000000000000000008000000000000001000000000000000000000000000000000020000000000000000000800020000000000000000000010000000000000000000000000000000000000000000000000000008000000010000000000000000000000000000000000000000004000000000000000000000000000000000000002000000800000000000001000000000000000080000000000000020000000000000000000000000000000000000000000000000000000000000000000",
      "type": "0x2",
      "transactionHash": "0xe07a0654726e8d3c1921d3af5fdaaac10729e4e137cab23f72b82d367f497aec",
      "transactionIndex": "0x93",
      "blockHash": "0xf871a30a882b648a79819f2c7914d0797d2acc5bb607c1fcc5be33ce9a8fd909",
      "blockNumber": "0x72599d",
      "gasUsed": "0x13af6",
      "effectiveGasPrice": "0x1ec25a224",
      "from": "0xc77f7fed3b5cc8249adc428c5f44c9063b9734b4",
      "to": "0xbf4a322f1496e5c3d34a9bcdb4c60567b38c7de2",
      "contractAddress": null
    }
  ],
  "libraries": [],
  "pending": [],
  "returns": {},
  "timestamp": 1736910230,
  "chain": 11155111,
  "commit": "51a374b"
}