{
  "transactions": [
    {
      "hash": "0x6f8bf4f0cfb757fbf5344b1effc218c5fbe2a07b250bfce86e14f33b47c1ad85",
      "transactionType": "CALL",
      "contractName": null,
      "contractAddress": "0x8aafd3ede9adb0ff97c7aebce82a919afb1c8764",
      "function": "sell(uint256)",
      "arguments": [
        "454613"
      ],
      "transaction": {
        "from": "0xc77f7fed3b5cc8249adc428c5f44c9063b9734b4",
        "to": "0x8aafd3ede9adb0ff97c7aebce82a919afb1c8764",
        "gas": "0x16208",
        "value": "0x0",
        "input": "0xe4849b32000000000000000000000000000000000000000000000000000000000006efd5",
        "nonce": "0x14c7",
        "chainId": "0xaa36a7"
      },
      "additionalContracts": [],
      "isFixedGasLimit": false
    }
  ],
  "receipts": [
    {
      "status": "0x1",
      "cumulativeGasUsed": "0xffaaea",
      "logs": [
        {
          "address": "0x8aafd3ede9adb0ff97c7aebce82a919afb1c8764",
          "topics": [
            "0xddf252ad1be2c89b69c2b068fc378daa952ba7f163c4a11628f55a4df523b3ef",
            "0x000000000000000000000000c77f7fed3b5cc8249adc428c5f44c9063b9734b4",
            "0x0000000000000000000000000000000000000000000000000000000000000000"
          ],
          "data": "0x000000000000000000000000000000000000000000000000000000000006e1a1",
          "blockHash": "0x037d0b8362e5edecaa8350ff911f3870eb5e8c1fbeb0f6dee05533bee8fe5a36",
          "blockNumber": "0x731c25",
          "transactionHash": "0x6f8bf4f0cfb757fbf5344b1effc218c5fbe2a07b250bfce86e14f33b47c1ad85",
          "transactionIndex": "0x8f",
          "logIndex": "0xc4",
          "removed": false
        },
        {
          "address": "0x8aafd3ede9adb0ff97c7aebce82a919afb1c8764",
          "topics": [
            "0xddf252ad1be2c89b69c2b068fc378daa952ba7f163c4a11628f55a4df523b3ef",
            "0x000000000000000000000000c77f7fed3b5cc8249adc428c5f44c9063b9734b4",
            "0x000000000000000000000000c77f7fed3b5cc8249adc428c5f44c9063b9734b4"
          ],
          "data": "0x0000000000000000000000000000000000000000000000000000000000000e34",
          "blockHash": "0x037d0b8362e5edecaa8350ff911f3870eb5e8c1fbeb0f6dee05533bee8fe5a36",
          "blockNumber": "0x731c25",
          "transactionHash": "0x6f8bf4f0cfb757fbf5344b1effc218c5fbe2a07b250bfce86e14f33b47c1ad85",
          "transactionIndex": "0x8f",
          "logIndex": "0xc5",
          "removed": false
        },
        {
          "address": "0x8aafd3ede9adb0ff97c7aebce82a919afb1c8764",
          "topics": [
            "0x4afcb4a87cdbd9974efdb92ee48bc8d7cd0ae4bf217004db3d080cbaee652ca7"
          ],
          "data": "0x0000000000000000000000000000000000000000000000000000000067904e98000000000000000000000000000000000000000000000000001060ac0617a93b000000000000000000000000000000000000000000000000000000000000082f",
          "blockHash": "0x037d0b8362e5edecaa8350ff911f3870eb5e8c1fbeb0f6dee05533bee8fe5a36",
          "blockNumber": "0x731c25",
          "transactionHash": "0x6f8bf4f0cfb757fbf5344b1effc218c5fbe2a07b250bfce86e14f33b47c1ad85",
          "transactionIndex": "0x8f",
          "logIndex": "0xc6",
          "removed": false
        }
      ],
      "logsBloom": "0x00000000000000000000000000000000000000000600000000000000000000000000000000000000000000000000000000000000000000004000000000000000000000000000004000000008000000000000000000000000000000000000000000000000020000000000000000000800020000000000000000000010000000000000000000000000000000000000000000000000000000000000010000000000000000000000000000000000000000004000000000000000000000000000000000000002000000800000000000000000000000000000080000000000000020000000000000000000000000000000000000000000000000000000000000000000",
      "type": "0x2",
      "transactionHash": "0x6f8bf4f0cfb757fbf5344b1effc218c5fbe2a07b250bfce86e14f33b47c1ad85",
      "transactionIndex": "0x8f",
      "blockHash": "0x037d0b8362e5edecaa8350ff911f3870eb5e8c1fbeb0f6dee05533bee8fe5a36",
      "blockNumber": "0x731c25",
      "gasUsed": "0xf213",
      "effectiveGasPrice": "0x1118bc494",
      "from": "0xc77f7fed3b5cc8249adc428c5f44c9063b9734b4",
      "to": "0x8aafd3ede9adb0ff97c7aebce82a919afb1c8764",
      "contractAddress": null
    }
  ],
  "libraries": [],
  "pending": [],
  "returns": {},
  "timestamp": 1737510554,
  "chain": 11155111,
  "commit": "1d2fb70"
}