{
  "transactions": [
    {
      "hash": "0x36c647f07cb92087a9ab80b493f045a99dcd62e15b42de22e3646a2fb244df78",
      "transactionType": "CALL",
      "contractName": null,
      "contractAddress": "0xbf4a322f1496e5c3d34a9bcdb4c60567b38c7de2",
      "function": "sell(uint256)",
      "arguments": [
        "976267538464700024890"
      ],
      "transaction": {
        "from": "0xc77f7fed3b5cc8249adc428c5f44c9063b9734b4",
        "to": "0xbf4a322f1496e5c3d34a9bcdb4c60567b38c7de2",
        "gas": "0x16fea",
        "value": "0x0",
        "input": "0xe4849b32000000000000000000000000000000000000000000000034ec6f09bf1d72c83a",
        "nonce": "0xd2f",
        "chainId": "0xaa36a7"
      },
      "additionalContracts": [],
      "isFixedGasLimit": false
    }
  ],
  "receipts": [
    {
      "status": "0x1",
      "cumulativeGasUsed": "0xf51a27",
      "logs": [
        {
          "address": "0xbf4a322f1496e5c3d34a9bcdb4c60567b38c7de2",
          "topics": [
            "0xddf252ad1be2c89b69c2b068fc378daa952ba7f163c4a11628f55a4df523b3ef",
            "0x000000000000000000000000c77f7fed3b5cc8249adc428c5f44c9063b9734b4",
            "0x0000000000000000000000000000000000000000000000000000000000000000"
          ],
          "data": "0x000000000000000000000000000000000000000000000034ec6f09bf1d72c83a",
          "blockHash": "0x87cf8130a0b9bdf79cc15e6b0e52300182dffad9cfe2643edb90b1655430059e",
          "blockNumber": "0x725d92",
          "transactionHash": "0x36c647f07cb92087a9ab80b493f045a99dcd62e15b42de22e3646a2fb244df78",
          "transactionIndex": "0x84",
          "logIndex": "0xad",
          "removed": false
        },
        {
          "address": "0xbf4a322f1496e5c3d34a9bcdb4c60567b38c7de2",
          "topics": [
            "0x4afcb4a87cdbd9974efdb92ee48bc8d7cd0ae4bf217004db3d080cbaee652ca7"
          ],
          "data": "0x000000000000000000000000000000000000000000000000000000006787554c00000000000000000000000000000000000000000000000000039d1c5bfd5fc60000000000000000000000000000000000000000000000000dc7e3d9635fe558",
          "blockHash": "0x87cf8130a0b9bdf79cc15e6b0e52300182dffad9cfe2643edb90b1655430059e",
          "blockNumber": "0x725d92",
          "transactionHash": "0x36c647f07cb92087a9ab80b493f045a99dcd62e15b42de22e3646a2fb244df78",
          "transactionIndex": "0x84",
          "logIndex": "0xae",
          "removed": false
        }
      ],
      "logsBloom": "0x00000000000000000000000000000000000000000000000000000000000000000000000000000000000000000000000000000000000000004000000000000000000000000000000000000008000000000000001000000000000000000000000000000000020000000000000000000800020000000000000000000010000000000000000000000000000000000000000000000000000008000000010000000000000000000000000000000000000000004000000000000000000000000000000000000002000000800000000000001000000000000000080000000000000020000000000000000000000000000000000000000000000000000000000000000000",
      "type": "0x2",
      "transactionHash": "0x36c647f07cb92087a9ab80b493f045a99dcd62e15b42de22e3646a2fb244df78",
      "transactionIndex": "0x84",
      "blockHash": "0x87cf8130a0b9bdf79cc15e6b0e52300182dffad9cfe2643edb90b1655430059e",
      "blockNumber": "0x725d92",
      "gasUsed": "0xfb91",
      "effectiveGasPrice": "0x237a5fe30",
      "from": "0xc77f7fed3b5cc8249adc428c5f44c9063b9734b4",
      "to": "0xbf4a322f1496e5c3d34a9bcdb4c60567b38c7de2",
      "contractAddress": null
    }
  ],
  "libraries": [],
  "pending": [],
  "returns": {},
  "timestamp": 1736922446,
  "chain": 11155111,
  "commit": "51a374b"
}