{
  "transactions": [
    {
      "hash": "0x8db5a50b80387079c33a8ca67fe3cbd30f533038be77b350f325287daf9c66bb",
      "transactionType": "CALL",
      "contractName": null,
      "contractAddress": "0x8aafd3ede9adb0ff97c7aebce82a919afb1c8764",
      "function": "sell(uint256)",
      "arguments": [
        "801113609177"
      ],
      "transaction": {
        "from": "0xc77f7fed3b5cc8249adc428c5f44c9063b9734b4",
        "to": "0x8aafd3ede9adb0ff97c7aebce82a919afb1c8764",
        "gas": "0x1722a",
        "value": "0x0",
        "input": "0xe4849b32000000000000000000000000000000000000000000000000000000ba861793d9",
        "nonce": "0x155d",
        "chainId": "0xaa36a7"
      },
      "additionalContracts": [],
      "isFixedGasLimit": false
    }
  ],
  "receipts": [
    {
      "status": "0x1",
      "cumulativeGasUsed": "0xcee35f",
      "logs": [
        {
          "address": "0x8aafd3ede9adb0ff97c7aebce82a919afb1c8764",
          "topics": [
            "0xddf252ad1be2c89b69c2b068fc378daa952ba7f163c4a11628f55a4df523b3ef",
            "0x000000000000000000000000c77f7fed3b5cc8249adc428c5f44c9063b9734b4",
            "0x0000000000000000000000000000000000000000000000000000000000000000"
          ],
          "data": "0x000000000000000000000000000000000000000000000000000000b908176390",
          "blockHash": "0x19b6dc6b910832e2ae928ecb996d195740b77300701cbc4bdbbf6326bd01b474",
          "blockNumber": "0x731cc5",
          "transactionHash": "0x8db5a50b80387079c33a8ca67fe3cbd30f533038be77b350f325287daf9c66bb",
          "transactionIndex": "0x95",
          "logIndex": "0xf9",
          "removed": false
        },
        {
          "address": "0x8aafd3ede9adb0ff97c7aebce82a919afb1c8764",
          "topics": [
            "0xddf252ad1be2c89b69c2b068fc378daa952ba7f163c4a11628f55a4df523b3ef",
            "0x000000000000000000000000c77f7fed3b5cc8249adc428c5f44c9063b9734b4",
            "0x000000000000000000000000c77f7fed3b5cc8249adc428c5f44c9063b9734b4"
          ],
          "data": "0x000000000000000000000000000000000000000000000000000000017e003049",
          "blockHash": "0x19b6dc6b910832e2ae928ecb996d195740b77300701cbc4bdbbf6326bd01b474",
          "blockNumber": "0x731cc5",
          "transactionHash": "0x8db5a50b80387079c33a8ca67fe3cbd30f533038be77b350f325287daf9c66bb",
          "transactionIndex": "0x95",
          "logIndex": "0xfa",
          "removed": false
        },
        {
          "address": "0x8aafd3ede9adb0ff97c7aebce82a919afb1c8764",
          "topics": [
            "0x4afcb4a87cdbd9974efdb92ee48bc8d7cd0ae4bf217004db3d080cbaee652ca7"
          ],
          "data": "0x00000000000000000000000000000000000000000000000000000000679056180000000000000000000000000000000000000000000000000012243b000e019300000000000000000000000000000000000000000000000000000000f3d49358",
          "blockHash": "0x19b6dc6b910832e2ae928ecb996d195740b77300701cbc4bdbbf6326bd01b474",
          "blockNumber": "0x731cc5",
          "transactionHash": "0x8db5a50b80387079c33a8ca67fe3cbd30f533038be77b350f325287daf9c66bb",
          "transactionIndex": "0x95",
          "logIndex": "0xfb",
          "removed": false
        }
      ],
      "logsBloom": "0x00000000000000000000000000000000000000000600000000000000000000000000000000000000000000000000000000000000000000004000000000000000000000000000004000000008000000000000000000000000000000000000000000000000020000000000000000000800020000000000000000000010000000000000000000000000000000000000000000000000000000000000010000000000000000000000000000000000000000004000000000000000000000000000000000000002000000800000000000000000000000000000080000000000000020000000000000000000000000000000000000000000000000000000000000000000",
      "type": "0x2",
      "transactionHash": "0x8db5a50b80387079c33a8ca67fe3cbd30f533038be77b350f325287daf9c66bb",
      "transactionIndex": "0x95",
      "blockHash": "0x19b6dc6b910832e2ae928ecb996d195740b77300701cbc4bdbbf6326bd01b474",
      "blockNumber": "0x731cc5",
      "gasUsed": "0xfd1b",
      "effectiveGasPrice": "0xa0c37d57",
      "from": "0xc77f7fed3b5cc8249adc428c5f44c9063b9734b4",
      "to": "0x8aafd3ede9adb0ff97c7aebce82a919afb1c8764",
      "contractAddress": null
    }
  ],
  "libraries": [],
  "pending": [],
  "returns": {},
  "timestamp": 1737512476,
  "chain": 11155111,
  "commit": "1d2fb70"
}