{
  "transactions": [
    {
      "hash": "0xecc07073c3f1036f841560ed26d1c0c4a531c6608a587dac7b69adc08b96589c",
      "transactionType": "CALL",
      "contractName": null,
      "contractAddress": "0x8aafd3ede9adb0ff97c7aebce82a919afb1c8764",
      "function": "buy(address)",
      "arguments": [
        "0xC77f7fed3b5Cc8249aDc428c5F44C9063B9734b4"
      ],
      "transaction": {
        "from": "0xc77f7fed3b5cc8249adc428c5f44c9063b9734b4",
        "to": "0x8aafd3ede9adb0ff97c7aebce82a919afb1c8764",
        "gas": "0x156ea",
        "value": "0xde0b6b3a7640000",
        "input": "0xf088d547000000000000000000000000c77f7fed3b5cc8249adc428c5f44c9063b9734b4",
        "nonce": "0xf20",
        "chainId": "0xaa36a7"
      },
      "additionalContracts": [],
      "isFixedGasLimit": false
    }
  ],
  "receipts": [
    {
      "status": "0x1",
      "cumulativeGasUsed": "0xf82861",
      "logs": [
        {
          "address": "0x8aafd3ede9adb0ff97c7aebce82a919afb1c8764",
          "topics": [
            "0xddf252ad1be2c89b69c2b068fc378daa952ba7f163c4a11628f55a4df523b3ef",
            "0x0000000000000000000000000000000000000000000000000000000000000000",
            "0x000000000000000000000000c77f7fed3b5cc8249adc428c5f44c9063b9734b4"
          ],
          "data": "0x0000000000000000000000000000000000000000000000282d56254805ecc741",
          "blockHash": "0x1e04cd611229b5dc3ce2cc4a6f5ec5a36265fefa1aec7fa3a1566d0ecd982a70",
          "blockNumber": "0x731571",
          "transactionHash": "0xecc07073c3f1036f841560ed26d1c0c4a531c6608a587dac7b69adc08b96589c",
          "transactionIndex": "0x72",
          "logIndex": "0xdf",
          "removed": false
        },
        {
          "address": "0x8aafd3ede9adb0ff97c7aebce82a919afb1c8764",
          "topics": [
            "0xddf252ad1be2c89b69c2b068fc378daa952ba7f163c4a11628f55a4df523b3ef",
            "0x0000000000000000000000000000000000000000000000000000000000000000",
            "0x000000000000000000000000c77f7fed3b5cc8249adc428c5f44c9063b9734b4"
          ],
          "data": "0x0000000000000000000000000000000000000000000000001f32ea251a954cde",
          "blockHash": "0x1e04cd611229b5dc3ce2cc4a6f5ec5a36265fefa1aec7fa3a1566d0ecd982a70",
          "blockNumber": "0x731571",
          "transactionHash": "0xecc07073c3f1036f841560ed26d1c0c4a531c6608a587dac7b69adc08b96589c",
          "transactionIndex": "0x72",
          "logIndex": "0xe0",
          "removed": false
        },
        {
          "address": "0x8aafd3ede9adb0ff97c7aebce82a919afb1c8764",
          "topics": [
            "0x4afcb4a87cdbd9974efdb92ee48bc8d7cd0ae4bf217004db3d080cbaee652ca7"
          ],
          "data": "0x00000000000000000000000000000000000000000000000000000000678ffdf80000000000000000000000000000000000000000000000000004befc368fdd900000000000000000000000000000000000000000000000000de0b6b3a7640000",
          "blockHash": "0x1e04cd611229b5dc3ce2cc4a6f5ec5a36265fefa1aec7fa3a1566d0ecd982a70",
          "blockNumber": "0x731571",
          "transactionHash": "0xecc07073c3f1036f841560ed26d1c0c4a531c6608a587dac7b69adc08b96589c",
          "transactionIndex": "0x72",
          "logIndex": "0xe1",
          "removed": false
        }
      ],
      "logsBloom": "0x00000000000000000000000000000000000000000600000000000000000000000000000000000000000000000000000000000000000000004000000000000000000000000000004000000008000000000000000000000000000000000000000000000000020000000000000000000800020000000000000000000010000000000000000000000000000000000000000000000000000000000000010000000000000000000000000000000000000000004000000000000000000000000000000000000002000000800000000000000000000000000000080000000000000020000000000000000000000000000000000000000000000000000000000000000000",
      "type": "0x2",
      "transactionHash": "0xecc07073c3f1036f841560ed26d1c0c4a531c6608a587dac7b69adc08b96589c",
      "transactionIndex": "0x72",
      "blockHash": "0x1e04cd611229b5dc3ce2cc4a6f5ec5a36265fefa1aec7fa3a1566d0ecd982a70",
      "blockNumber": "0x731571",
      "gasUsed": "0xf844",
      "effectiveGasPrice": "0x92fca894",
      "from": "0xc77f7fed3b5cc8249adc428c5f44c9063b9734b4",
      "to": "0x8aafd3ede9adb0ff97c7aebce82a919afb1c8764",
      "contractAddress": null
    }
  ],
  "libraries": [],
  "pending": [],
  "returns": {},
  "timestamp": 1737489912,
  "chain": 11155111,
  "commit": "1d2fb70"
}