{
  "transactions": [
    {
      "hash": "0x58992fd1cd77516cf9c0b4c94bb28c083c84ab21e1f448bbf21952d030d57485",
      "transactionType": "CALL",
      "contractName": null,
      "contractAddress": "0x8aafd3ede9adb0ff97c7aebce82a919afb1c8764",
      "function": "sell(uint256)",
      "arguments": [
        "2911919259694"
      ],
      "transaction": {
        "from": "0xc77f7fed3b5cc8249adc428c5f44c9063b9734b4",
        "to": "0x8aafd3ede9adb0ff97c7aebce82a919afb1c8764",
        "gas": "0x15daa",
        "value": "0x0",
        "input": "0xe4849b32000000000000000000000000000000000000000000000000000002a5fbe9c02e",
        "nonce": "0x1077",
        "chainId": "0xaa36a7"
      },
      "additionalContracts": [],
      "isFixedGasLimit": false
    }
  ],
  "receipts": [
    {
      "status": "0x1",
      "cumulativeGasUsed": "0xa9394c",
      "logs": [
        {
          "address": "0x8aafd3ede9adb0ff97c7aebce82a919afb1c8764",
          "topics": [
            "0xddf252ad1be2c89b69c2b068fc378daa952ba7f163c4a11628f55a4df523b3ef",
            "0x000000000000000000000000c77f7fed3b5cc8249adc428c5f44c9063b9734b4",
            "0x0000000000000000000000000000000000000000000000000000000000000000"
          ],
          "data": "0x000000000000000000000000000000000000000000000000000002a08f66db51",
          "blockHash": "0x5c3c8d7dd274114feb0c1059647378a1b84498fee5c645bc20ca583795c46a7a",
          "blockNumber": "0x7316ff",
          "transactionHash": "0x58992fd1cd77516cf9c0b4c94bb28c083c84ab21e1f448bbf21952d030d57485",
          "transactionIndex": "0x7a",
          "logIndex": "0x8e",
          "removed": false
        },
        {
          "address": "0x8aafd3ede9adb0ff97c7aebce82a919afb1c8764",
          "topics": [
            "0xddf252ad1be2c89b69c2b068fc378daa952ba7f163c4a11628f55a4df523b3ef",
            "0x000000000000000000000000c77f7fed3b5cc8249adc428c5f44c9063b9734b4",
            "0x000000000000000000000000c77f7fed3b5cc8249adc428c5f44c9063b9734b4"
          ],
          "data": "0x000000000000000000000000000000000000000000000000000000056c82e4dd",
          "blockHash": "0x5c3c8d7dd274114feb0c1059647378a1b84498fee5c645bc20ca583795c46a7a",
          "blockNumber": "0x7316ff",
          "transactionHash": "0x58992fd1cd77516cf9c0b4c94bb28c083c84ab21e1f448bbf21952d030d57485",
          "transactionIndex": "0x7a",
          "logIndex": "0x8f",
          "removed": false
        },
        {
          "address": "0x8aafd3ede9adb0ff97c7aebce82a919afb1c8764",
          "topics": [
            "0x4afcb4a87cdbd9974efdb92ee48bc8d7cd0ae4bf217004db3d080cbaee652ca7"
          ],
          "data": "0x00000000000000000000000000000000000000000000000000000000679010ac0000000000000000000000000000000000000000000000000004f7d35598964900000000000000000000000000000000000000000000000000000000f2b5a28d",
          "blockHash": "0x5c3c8d7dd274114feb0c1059647378a1b84498fee5c645bc20ca583795c46a7a",
          "blockNumber": "0x7316ff",
          "transactionHash": "0x58992fd1cd77516cf9c0b4c94bb28c083c84ab21e1f448bbf21952d030d57485",
          "transactionIndex": "0x7a",
          "logIndex": "0x90",
          "removed": false
        }
      ],
      "logsBloom": "0x00000000000000000000000000000000000000000600000000000000000000000000000000000000000000000000000000000000000000004000000000000000000000000000004000000008000000000000000000000000000000000000000000000000020000000000000000000800020000000000000000000010000000000000000000000000000000000000000000000000000000000000010000000000000000000000000000000000000000004000000000000000000000000000000000000002000000800000000000000000000000000000080000000000000020000000000000000000000000000000000000000000000000000000000000000000",
      "type": "0x2",
      "transactionHash": "0x58992fd1cd77516cf9c0b4c94bb28c083c84ab21e1f448bbf21952d030d57485",
      "transactionIndex": "0x7a",
      "blockHash": "0x5c3c8d7dd274114feb0c1059647378a1b84498fee5c645bc20ca583795c46a7a",
      "blockNumber": "0x7316ff",
      "gasUsed": "0xfd27",
      "effectiveGasPrice": "0x4ab5a18f",
      "from": "0xc77f7fed3b5cc8249adc428c5f44c9063b9734b4",
      "to": "0x8aafd3ede9adb0ff97c7aebce82a919afb1c8764",
      "contractAddress": null
    }
  ],
  "libraries": [],
  "pending": [],
  "returns": {},
  "timestamp": 1737494702,
  "chain": 11155111,
  "commit": "1d2fb70"
}