{
  "transactions": [
    {
      "hash": "0x68abd49e4900917f91df5978e41873447a9de89cd6b30ae257a434bfdfed5314",
      "transactionType": "CALL",
      "contractName": null,
      "contractAddress": "0xbf4a322f1496e5c3d34a9bcdb4c60567b38c7de2",
      "function": "buy(address)",
      "arguments": [
        "0xC77f7fed3b5Cc8249aDc428c5F44C9063B9734b4"
      ],
      "transaction": {
        "from": "0xc77f7fed3b5cc8249adc428c5f44c9063b9734b4",
        "to": "0xbf4a322f1496e5c3d34a9bcdb4c60567b38c7de2",
        "gas": "0x1b309",
        "value": "0xde0b6b3a7640000",
        "input": "0xf088d547000000000000000000000000c77f7fed3b5cc8249adc428c5f44c9063b9734b4",
        "nonce": "0xd24",
        "chainId": "0xaa36a7"
      },
      "additionalContracts": [],
      "isFixedGasLimit": false
    }
  ],
  "receipts": [
    {
      "status": "0x1",
      "cumulativeGasUsed": "0xdd0e8c",
      "logs": [
        {
          "address": "0xbf4a322f1496e5c3d34a9bcdb4c60567b38c7de2",
          "topics": [
            "0xddf252ad1be2c89b69c2b068fc378daa952ba7f163c4a11628f55a4df523b3ef",
            "0x0000000000000000000000000000000000000000000000000000000000000000",
            "0x000000000000000000000000c77f7fed3b5cc8249adc428c5f44c9063b9734b4"
          ],
          "data": "0x000000000000000000000000000000000000000000000034c54e0c49f3e44d93",
          "blockHash": "0xb8e321e64df89f28466b689dde026faedccedc8345a7c6be036675b96333f28d",
          "blockNumber": "0x725d87",
          "transactionHash": "0x68abd49e4900917f91df5978e41873447a9de89cd6b30ae257a434bfdfed5314",
          "transactionIndex": "0x52",
          "logIndex": "0xb8",
          "removed": false
        },
        {
          "address": "0xbf4a322f1496e5c3d34a9bcdb4c60567b38c7de2",
          "topics": [
            "0xddf252ad1be2c89b69c2b068fc378daa952ba7f163c4a11628f55a4df523b3ef",
            "0x0000000000000000000000000000000000000000000000000000000000000000",
            "0x000000000000000000000000c77f7fed3b5cc8249adc428c5f44c9063b9734b4"
          ],
          "data": "0x00000000000000000000000000000000000000000000000028fa6fa00eef524a",
          "blockHash": "0xb8e321e64df89f28466b689dde026faedccedc8345a7c6be036675b96333f28d",
          "blockNumber": "0x725d87",
          "transactionHash": "0x68abd49e4900917f91df5978e41873447a9de89cd6b30ae257a434bfdfed5314",
          "transactionIndex": "0x52",
          "logIndex": "0xb9",
          "removed": false
        },
        {
          "address": "0xbf4a322f1496e5c3d34a9bcdb4c60567b38c7de2",
          "topics": [
            "0x4afcb4a87cdbd9974efdb92ee48bc8d7cd0ae4bf217004db3d080cbaee652ca7"
          ],
          "data": "0x00000000000000000000000000000000000000000000000000000000678754c800000000000000000000000000000000000000000000000000039cf7e69631ee0000000000000000000000000000000000000000000000000de0b6b3a7640000",
          "blockHash": "0xb8e321e64df89f28466b689dde026faedccedc8345a7c6be036675b96333f28d",
          "blockNumber": "0x725d87",
          "transactionHash": "0x68abd49e4900917f91df5978e41873447a9de89cd6b30ae257a434bfdfed5314",
          "transactionIndex": "0x52",
          "logIndex": "0xba",
          "removed": false
        }
      ],
      "logsBloom": "0x00000000000000000000000000000000000000000000000000000000000000000000000000000000000000000000000000000000000000004000000000000000000000000000000000000008000000000000001000000000000000000000000000000000020000000000000000000800020000000000000000000010000000000000000000000000000000000000000000000000000008000000010000000000000000000000000000000000000000004000000000000000000000000000000000000002000000800000000000001000000000000000080000000000000020000000000000000000000000000000000000000000000000000000000000000000",
      "type": "0x2",
      "transactionHash": "0x68abd49e4900917f91df5978e41873447a9de89cd6b30ae257a434bfdfed5314",
      "transactionIndex": "0x52",
      "blockHash": "0xb8e321e64df89f28466b689dde026faedccedc8345a7c6be036675b96333f28d",
      "blockNumber": "0x725d87",
      "gasUsed": "0x13af6",
      "effectiveGasPrice": "0x2483ac005",
      "from": "0xc77f7fed3b5cc8249adc428c5f44c9063b9734b4",
      "to": "0xbf4a322f1496e5c3d34a9bcdb4c60567b38c7de2",
      "contractAddress": null
    }
  ],
  "libraries": [],
  "pending": [],
  "returns": {},
  "timestamp": 1736922314,
  "chain": 11155111,
  "commit": "51a374b"
}