{
  "transactions": [
    {
      "hash": "0x838992a970ca40a97b7e78bf8d9da38ca62d718bf5cd698bef5eee725bbba7bf",
      "transactionType": "CALL",
      "contractName": null,
      "contractAddress": "0xbf4a322f1496e5c3d34a9bcdb4c60567b38c7de2",
      "function": "buy(address)",
      "arguments": [
        "0xC77f7fed3b5Cc8249aDc428c5F44C9063B9734b4"
      ],
      "transaction": {
        "from": "0xc77f7fed3b5cc8249adc428c5f44c9063b9734b4",
        "to": "0xbf4a322f1496e5c3d34a9bcdb4c60567b38c7de2",
        "gas": "0x1b309",
        "value": "0xde0b6b3a7640000",
        "input": "0xf088d547000000000000000000000000c77f7fed3b5cc8249adc428c5f44c9063b9734b4",
        "nonce": "0xbd0",
        "chainId": "0xaa36a7"
      },
      "additionalContracts": [],
      "isFixedGasLimit": false
    }
  ],
  "receipts": [
    {
      "status": "0x1",
      "cumulativeGasUsed": "0xbb98d2",
      "logs": [
        {
          "address": "0xbf4a322f1496e5c3d34a9bcdb4c60567b38c7de2",
          "topics": [
            "0xddf252ad1be2c89b69c2b068fc378daa952ba7f163c4a11628f55a4df523b3ef",
            "0x0000000000000000000000000000000000000000000000000000000000000000",
            "0x000000000000000000000000c77f7fed3b5cc8249adc428c5f44c9063b9734b4"
          ],
          "data": "0x000000000000000000000000000000000000000000000035044b8ab61977bc5e",
          "blockHash": "0x660e3593cd27839698a45ec8a52cd0df7c2dc69f69bc23aaea77a97e42f38147",
          "blockNumber": "0x725bf2",
          "transactionHash": "0x838992a970ca40a97b7e78bf8d9da38ca62d718bf5cd698bef5eee725bbba7bf",
          "transactionIndex": "0x75",
          "logIndex": "0x97",
          "removed": false
        },
        {
          "address": "0xbf4a322f1496e5c3d34a9bcdb4c60567b38c7de2",
          "topics": [
            "0xddf252ad1be2c89b69c2b068fc378daa952ba7f163c4a11628f55a4df523b3ef",
            "0x0000000000000000000000000000000000000000000000000000000000000000",
            "0x000000000000000000000000c77f7fed3b5cc8249adc428c5f44c9063b9734b4"
          ],
          "data": "0x000000000000000000000000000000000000000000000000292b599f0903e182",
          "blockHash": "0x660e3593cd27839698a45ec8a52cd0df7c2dc69f69bc23aaea77a97e42f38147",
          "blockNumber": "0x725bf2",
          "transactionHash": "0x838992a970ca40a97b7e78bf8d9da38ca62d718bf5cd698bef5eee725bbba7bf",
          "transactionIndex": "0x75",
          "logIndex": "0x98",
          "removed": false
        },
        {
          "address": "0xbf4a322f1496e5c3d34a9bcdb4c60567b38c7de2",
          "topics": [
            "0x4afcb4a87cdbd9974efdb92ee48bc8d7cd0ae4bf217004db3d080cbaee652ca7"
          ],
          "data": "0x00000000000000000000000000000000000000000000000000000000678741b4000000000000000000000000000000000000000000000000000398acf08784eb0000000000000000000000000000000000000000000000000de0b6b3a7640000",
          "blockHash": "0x660e3593cd27839698a45ec8a52cd0df7c2dc69f69bc23aaea77a97e42f38147",
          "blockNumber": "0x725bf2",
          "transactionHash": "0x838992a970ca40a97b7e78bf8d9da38ca62d718bf5cd698bef5eee725bbba7bf",
          "transactionIndex": "0x75",
          "logIndex": "0x99",
          "removed": false
        }
      ],
      "logsBloom": "0x00000000000000000000000000000000000000000000000000000000000000000000000000000000000000000000000000000000000000004000000000000000000000000000000000000008000000000000001000000000000000000000000000000000020000000000000000000800020000000000000000000010000000000000000000000000000000000000000000000000000008000000010000000000000000000000000000000000000000004000000000000000000000000000000000000002000000800000000000001000000000000000080000000000000020000000000000000000000000000000000000000000000000000000000000000000",
      "type": "0x2",
      "transactionHash": "0x838992a970ca40a97b7e78bf8d9da38ca62d718bf5cd698bef5eee725bbba7bf",
      "transactionIndex": "0x75",
      "blockHash": "0x660e3593cd27839698a45ec8a52cd0df7c2dc69f69bc23aaea77a97e42f38147",
      "blockNumber": "0x725bf2",
      "gasUsed": "0x13af6",
      "effectiveGasPrice": "0x8f414377",
      "from": "0xc77f7fed3b5cc8249adc428c5f44c9063b9734b4",
      "to": "0xbf4a322f1496e5c3d34a9bcdb4c60567b38c7de2",
      "contractAddress": null
    }
  ],
  "libraries": [],
  "pending": [],
  "returns": {},
  "timestamp": 1736917430,
  "chain": 11155111,
  "commit": "51a374b"
}