{
  "transactions": [
    {
      "hash": "0xf49630fca86c83b267852e2488c5134d06cd891500ce029c0f1a526916bbfdea",
      "transactionType": "CALL",
      "contractName": null,
      "contractAddress": "0x8aafd3ede9adb0ff97c7aebce82a919afb1c8764",
      "function": "sell(uint256)",
      "arguments": [
        "2722025080145"
      ],
      "transaction": {
        "from": "0xc77f7fed3b5cc8249adc428c5f44c9063b9734b4",
        "to": "0x8aafd3ede9adb0ff97c7aebce82a919afb1c8764",
        "gas": "0x15daa",
        "value": "0x0",
        "input": "0xe4849b3200000000000000000000000000000000000000000000000000000279c5568551",
        "nonce": "0x12d9",
        "chainId": "0xaa36a7"
      },
      "additionalContracts": [],
      "isFixedGasLimit": false
    }
  ],
  "receipts": [
    {
      "status": "0x1",
      "cumulativeGasUsed": "0xa50f15",
      "logs": [
        {
          "address": "0x8aafd3ede9adb0ff97c7aebce82a919afb1c8764",
          "topics": [
            "0xddf252ad1be2c89b69c2b068fc378daa952ba7f163c4a11628f55a4df523b3ef",
            "0x000000000000000000000000c77f7fed3b5cc8249adc428c5f44c9063b9734b4",
            "0x0000000000000000000000000000000000000000000000000000000000000000"
          ],
          "data": "0x00000000000000000000000000000000000000000000000000000274b3601190",
          "blockHash": "0xeff5c3ad85befa0c48345f017bcd11bed7749b039b503aff1f94a0e8b9734460",
          "blockNumber": "0x7319d8",
          "transactionHash": "0xf49630fca86c83b267852e2488c5134d06cd891500ce029c0f1a526916bbfdea",
          "transactionIndex": "0x6e",
          "logIndex": "0x7a",
          "removed": false
        },
        {
          "address": "0x8aafd3ede9adb0ff97c7aebce82a919afb1c8764",
          "topics": [
            "0xddf252ad1be2c89b69c2b068fc378daa952ba7f163c4a11628f55a4df523b3ef",
            "0x000000000000000000000000c77f7fed3b5cc8249adc428c5f44c9063b9734b4",
            "0x000000000000000000000000c77f7fed3b5cc8249adc428c5f44c9063b9734b4"
          ],
          "data": "0x0000000000000000000000000000000000000000000000000000000511f673c1",
          "blockHash": "0xeff5c3ad85befa0c48345f017bcd11bed7749b039b503aff1f94a0e8b9734460",
          "blockNumber": "0x7319d8",
          "transactionHash": "0xf49630fca86c83b267852e2488c5134d06cd891500ce029c0f1a526916bbfdea",
          "transactionIndex": "0x6e",
          "logIndex": "0x7b",
          "removed": false
        },
        {
          "address": "0x8aafd3ede9adb0ff97c7aebce82a919afb1c8764",
          "topics": [
            "0x4afcb4a87cdbd9974efdb92ee48bc8d7cd0ae4bf217004db3d080cbaee652ca7"
          ],
          "data": "0x00000000000000000000000000000000000000000000000000000000679032f0000000000000000000000000000000000000000000000000000550735e5f9dfd00000000000000000000000000000000000000000000000000000000f2b1107c",
          "blockHash": "0xeff5c3ad85befa0c48345f017bcd11bed7749b039b503aff1f94a0e8b9734460",
          "blockNumber": "0x7319d8",
          "transactionHash": "0xf49630fca86c83b267852e2488c5134d06cd891500ce029c0f1a526916bbfdea",
          "transactionIndex": "0x6e",
          "logIndex": "0x7c",
          "removed": false
        }
      ],
      "logsBloom": "0x00000000000000000000000000000000000000000600000000000000000000000000000000000000000000000000000000000000000000004000000000000000000000000000004000000008000000000000000000000000000000000000000000000000020000000000000000000800020000000000000000000010000000000000000000000000000000000000000000000000000000000000010000000000000000000000000000000000000000004000000000000000000000000000000000000002000000800000000000000000000000000000080000000000000020000000000000000000000000000000000000000000000000000000000000000000",
      "type": "0x2",
      "transactionHash": "0xf49630fca86c83b267852e2488c5134d06cd891500ce029c0f1a526916bbfdea",
      "transactionIndex": "0x6e",
      "blockHash": "0xeff5c3ad85befa0c48345f017bcd11bed7749b039b503aff1f94a0e8b9734460",
      "blockNumber": "0x7319d8",
      "gasUsed": "0xfd27",
      "effectiveGasPrice": "0x3af1483b",
      "from": "0xc77f7fed3b5cc8249adc428c5f44c9063b9734b4",
      "to": "0x8aafd3ede9adb0ff97c7aebce82a919afb1c8764",
      "contractAddress": null
    }
  ],
  "libraries": [],
  "pending": [],
  "returns": {},
  "timestamp": 1737503472,
  "chain": 11155111,
  "commit": "1d2fb70"
}