{
  "transactions": [
    {
      "hash": "0xcf0b67a479b7f9f8f288a73d504ea06b4e3bd3279d6675875a7a7c95cf623346",
      "transactionType": "CALL",
      "contractName": null,
      "contractAddress": "0xbf4a322f1496e5c3d34a9bcdb4c60567b38c7de2",
      "function": "sell(uint256)",
      "arguments": [
        "985929186336765567177"
      ],
      "transaction": {
        "from": "0xc77f7fed3b5cc8249adc428c5f44c9063b9734b4",
        "to": "0xbf4a322f1496e5c3d34a9bcdb4c60567b38c7de2",
        "gas": "0x16fea",
        "value": "0x0",
        "input": "0xe4849b3200000000000000000000000000000000000000000000003572841b4becd2e0c9",
        "nonce": "0xa61",
        "chainId": "0xaa36a7"
      },
      "additionalContracts": [],
      "isFixedGasLimit": false
    }
  ],
  "receipts": [
    {
      "status": "0x1",
      "cumulativeGasUsed": "0x816c38",
      "logs": [
        {
          "address": "0xbf4a322f1496e5c3d34a9bcdb4c60567b38c7de2",
          "topics": [
            "0xddf252ad1be2c89b69c2b068fc378daa952ba7f163c4a11628f55a4df523b3ef",
            "0x000000000000000000000000c77f7fed3b5cc8249adc428c5f44c9063b9734b4",
            "0x0000000000000000000000000000000000000000000000000000000000000000"
          ],
          "data": "0x00000000000000000000000000000000000000000000003572841b4becd2e0c9",
          "blockHash": "0x1caba6d99e4f67b96638b4d61d15ced9cbdd9497fc4a7ea8ff0a31775a9fc6c3",
          "blockNumber": "0x725a3d",
          "transactionHash": "0xcf0b67a479b7f9f8f288a73d504ea06b4e3bd3279d6675875a7a7c95cf623346",
          "transactionIndex": "0x4c",
          "logIndex": "0x72",
          "removed": false
        },
        {
          "address": "0xbf4a322f1496e5c3d34a9bcdb4c60567b38c7de2",
          "topics": [
            "0x4afcb4a87cdbd9974efdb92ee48bc8d7cd0ae4bf217004db3d080cbaee652ca7"
          ],
          "data": "0x0000000000000000000000000000000000000000000000000000000067872d2c0000000000000000000000000000000000000000000000000003940b9d626c020000000000000000000000000000000000000000000000000dc7e3efda0c456a",
          "blockHash": "0x1caba6d99e4f67b96638b4d61d15ced9cbdd9497fc4a7ea8ff0a31775a9fc6c3",
          "blockNumber": "0x725a3d",
          "transactionHash": "0xcf0b67a479b7f9f8f288a73d504ea06b4e3bd3279d6675875a7a7c95cf623346",
          "transactionIndex": "0x4c",
          "logIndex": "0x73",
          "removed": false
        }
      ],
      "logsBloom": "0x00000000000000000000000000000000000000000000000000000000000000000000000000000000000000000000000000000000000000004000000000000000000000000000000000000008000000000000001000000000000000000000000000000000020000000000000000000800020000000000000000000010000000000000000000000000000000000000000000000000000008000000010000000000000000000000000000000000000000004000000000000000000000000000000000000002000000800000000000001000000000000000080000000000000020000000000000000000000000000000000000000000000000000000000000000000",
      "type": "0x2",
      "transactionHash": "0xcf0b67a479b7f9f8f288a73d504ea06b4e3bd3279d6675875a7a7c95cf623346",
      "transactionIndex": "0x4c",
      "blockHash": "0x1caba6d99e4f67b96638b4d61d15ced9cbdd9497fc4a7ea8ff0a31775a9fc6c3",
      "blockNumber": "0x725a3d",
      "gasUsed": "0xfb91",
      "effectiveGasPrice": "0x453ad079a",
      "from": "0xc77f7fed3b5cc8249adc428c5f44c9063b9734b4",
      "to": "0xbf4a322f1496e5c3d34a9bcdb4c60567b38c7de2",
      "contractAddress": null
    }
  ],
  "libraries": [],
  "pending": [],
  "returns": {},
  "timestamp": 1736912174,
  "chain": 11155111,
  "commit": "51a374b"
}