{
  "transactions": [
    {
      "hash": "0xbf7619e1db0f0174c5605315581f7db4067c5c32a4559f7891cd1f1ddeb2e850",
      "transactionType": "CALL",
      "contractName": null,
      "contractAddress": "0x8aafd3ede9adb0ff97c7aebce82a919afb1c8764",
      "function": "sell(uint256)",
      "arguments": [
        "44566712"
      ],
      "transaction": {
        "from": "0xc77f7fed3b5cc8249adc428c5f44c9063b9734b4",
        "to": "0x8aafd3ede9adb0ff97c7aebce82a919afb1c8764",
        "gas": "0x15d88",
        "value": "0x0",
        "input": "0xe4849b320000000000000000000000000000000000000000000000000000000002a808b8",
        "nonce": "0x1649",
        "chainId": "0xaa36a7"
      },
      "additionalContracts": [],
      "isFixedGasLimit": false
    }
  ],
  "receipts": [
    {
      "status": "0x1",
      "cumulativeGasUsed": "0x203426b",
      "logs": [
        {
          "address": "0x8aafd3ede9adb0ff97c7aebce82a919afb1c8764",
          "topics": [
            "0xddf252ad1be2c89b69c2b068fc378daa952ba7f163c4a11628f55a4df523b3ef",
            "0x000000000000000000000000c77f7fed3b5cc8249adc428c5f44c9063b9734b4",
            "0x0000000000000000000000000000000000000000000000000000000000000000"
          ],
          "data": "0x0000000000000000000000000000000000000000000000000000000002a29803",
          "blockHash": "0xa3008689e8d37cf9f93408fd0e0c5e73f680a8cf3478f2b51647826e7fa382c4",
          "blockNumber": "0x731de3",
          "transactionHash": "0xbf7619e1db0f0174c5605315581f7db4067c5c32a4559f7891cd1f1ddeb2e850",
          "transactionIndex": "0x12b",
          "logIndex": "0x207",
          "removed": false
        },
        {
          "address": "0x8aafd3ede9adb0ff97c7aebce82a919afb1c8764",
          "topics": [
            "0xddf252ad1be2c89b69c2b068fc378daa952ba7f163c4a11628f55a4df523b3ef",
            "0x000000000000000000000000c77f7fed3b5cc8249adc428c5f44c9063b9734b4",
            "0x000000000000000000000000c77f7fed3b5cc8249adc428c5f44c9063b9734b4"
          ],
          "data": "0x00000000000000000000000000000000000000000000000000000000000570b5",
          "blockHash": "0xa3008689e8d37cf9f93408fd0e0c5e73f680a8cf3478f2b51647826e7fa382c4",
          "blockNumber": "0x731de3",
          "transactionHash": "0xbf7619e1db0f0174c5605315581f7db4067c5c32a4559f7891cd1f1ddeb2e850",
          "transactionIndex": "0x12b",
          "logIndex": "0x208",
          "removed": false
        },
        {
          "address": "0x8aafd3ede9adb0ff97c7aebce82a919afb1c8764",
          "topics": [
            "0x4afcb4a87cdbd9974efdb92ee48bc8d7cd0ae4bf217004db3d080cbaee652ca7"
          ],
          "data": "0x000000000000000000000000000000000000000000000000000000006790638c0000000000000000000000000000000000000000000000000014db13d970b47e000000000000000000000000000000000000000000000000000000000003fdf7",
          "blockHash": "0xa3008689e8d37cf9f93408fd0e0c5e73f680a8cf3478f2b51647826e7fa382c4",
          "blockNumber": "0x731de3",
          "transactionHash": "0xbf7619e1db0f0174c5605315581f7db4067c5c32a4559f7891cd1f1ddeb2e850",
          "transactionIndex": "0x12b",
          "logIndex": "0x209",
          "removed": false
        }
      ],
      "logsBloom": "0x00000000000000000000000000000000000000000600000000000000000000000000000000000000000000000000000000000000000000004000000000000000000000000000004000000008000000000000000000000000000000000000000000000000020000000000000000000800020000000000000000000010000000000000000000000000000000000000000000000000000000000000010000000000000000000000000000000000000000004000000000000000000000000000000000000002000000800000000000000000000000000000080000000000000020000000000000000000000000000000000000000000000000000000000000000000",
      "type": "0x2",
      "transactionHash": "0xbf7619e1db0f0174c5605315581f7db4067c5c32a4559f7891cd1f1ddeb2e850",
      "transactionIndex": "0x12b",
      "blockHash": "0xa3008689e8d37cf9f93408fd0e0c5e73f680a8cf3478f2b51647826e7fa382c4",
      "blockNumber": "0x731de3",
      "gasUsed": "0xfd0f",
      "effectiveGasPrice": "0x3fc67550",
      "from": "0xc77f7fed3b5cc8249adc428c5f44c9063b9734b4",
      "to": "0x8aafd3ede9adb0ff97c7aebce82a919afb1c8764",
      "contractAddress": null
    }
  ],
  "libraries": [],
  "pending": [],
  "returns": {},
  "timestamp": 1737515916,
  "chain": 11155111,
  "commit": "1d2fb70"
}