{
  "transactions": [
    {
      "hash": "0x58d8221badb25bd783c5cd7cdfa6e5b1df25d3d2b6262efb933b45ff9f67dccb",
      "transactionType": "CALL",
      "contractName": null,
      "contractAddress": "0x8aafd3ede9adb0ff97c7aebce82a919afb1c8764",
      "function": "sell(uint256)",
      "arguments": [
        "46197108"
      ],
      "transaction": {
        "from": "0xc77f7fed3b5cc8249adc428c5f44c9063b9734b4",
        "to": "0x8aafd3ede9adb0ff97c7aebce82a919afb1c8764",
        "gas": "0x15d88",
        "value": "0x0",
        "input": "0xe4849b320000000000000000000000000000000000000000000000000000000002c0e974",
        "nonce": "0x160a",
        "chainId": "0xaa36a7"
      },
      "additionalContracts": [],
      "isFixedGasLimit": false
    }
  ],
  "receipts": [
    {
      "status": "0x1",
      "cumulativeGasUsed": "0xd9fc6c",
      "logs": [
        {
          "address": "0x8aafd3ede9adb0ff97c7aebce82a919afb1c8764",
          "topics": [
            "0xddf252ad1be2c89b69c2b068fc378daa952ba7f163c4a11628f55a4df523b3ef",
            "0x000000000000000000000000c77f7fed3b5cc8249adc428c5f44c9063b9734b4",
            "0x0000000000000000000000000000000000000000000000000000000000000000"
          ],
          "data": "0x0000000000000000000000000000000000000000000000000000000002bb45cc",
          "blockHash": "0xb8a82757f2636ad9b08490e9a7752a80b93aa043a391c8aaacc8e97b6eaec68c",
          "blockNumber": "0x731d9e",
          "transactionHash": "0x58d8221badb25bd783c5cd7cdfa6e5b1df25d3d2b6262efb933b45ff9f67dccb",
          "transactionIndex": "0x73",
          "logIndex": "0x92",
          "removed": false
        },
        {
          "address": "0x8aafd3ede9adb0ff97c7aebce82a919afb1c8764",
          "topics": [
            "0xddf252ad1be2c89b69c2b068fc378daa952ba7f163c4a11628f55a4df523b3ef",
            "0x000000000000000000000000c77f7fed3b5cc8249adc428c5f44c9063b9734b4",
            "0x000000000000000000000000c77f7fed3b5cc8249adc428c5f44c9063b9734b4"
          ],
          "data": "0x000000000000000000000000000000000000000000000000000000000005a3a8",
          "blockHash": "0xb8a82757f2636ad9b08490e9a7752a80b93aa043a391c8aaacc8e97b6eaec68c",
          "blockNumber": "0x731d9e",
          "transactionHash": "0x58d8221badb25bd783c5cd7cdfa6e5b1df25d3d2b6262efb933b45ff9f67dccb",
          "transactionIndex": "0x73",
          "logIndex": "0x93",
          "removed": false
        },
        {
          "address": "0x8aafd3ede9adb0ff97c7aebce82a919afb1c8764",
          "topics": [
            "0x4afcb4a87cdbd9974efdb92ee48bc8d7cd0ae4bf217004db3d080cbaee652ca7"
          ],
          "data": "0x000000000000000000000000000000000000000000000000000000006790605000000000000000000000000000000000000000000000000000141f8d1614fad1000000000000000000000000000000000000000000000000000000000003fe25",
          "blockHash": "0xb8a82757f2636ad9b08490e9a7752a80b93aa043a391c8aaacc8e97b6eaec68c",
          "blockNumber": "0x731d9e",
          "transactionHash": "0x58d8221badb25bd783c5cd7cdfa6e5b1df25d3d2b6262efb933b45ff9f67dccb",
          "transactionIndex": "0x73",
          "logIndex": "0x94",
          "removed": false
        }
      ],
      "logsBloom": "0x00000000000000000000000000000000000000000600000000000000000000000000000000000000000000000000000000000000000000004000000000000000000000000000004000000008000000000000000000000000000000000000000000000000020000000000000000000800020000000000000000000010000000000000000000000000000000000000000000000000000000000000010000000000000000000000000000000000000000004000000000000000000000000000000000000002000000800000000000000000000000000000080000000000000020000000000000000000000000000000000000000000000000000000000000000000",
      "type": "0x2",
      "transactionHash": "0x58d8221badb25bd783c5cd7cdfa6e5b1df25d3d2b6262efb933b45ff9f67dccb",
      "transactionIndex": "0x73",
      "blockHash": "0xb8a82757f2636ad9b08490e9a7752a80b93aa043a391c8aaacc8e97b6eaec68c",
      "blockNumber": "0x731d9e",
      "gasUsed": "0xfd0f",
      "effectiveGasPrice": "0x6b4645d6",
      "from": "0xc77f7fed3b5cc8249adc428c5f44c9063b9734b4",
      "to": "0x8aafd3ede9adb0ff97c7aebce82a919afb1c8764",
      "contractAddress": null
    }
  ],
  "libraries": [],
  "pending": [],
  "returns": {},
  "timestamp": 1737515090,
  "chain": 11155111,
  "commit": "1d2fb70"
}