{
  "transactions": [
    {
      "hash": "0xebee7a1bddfe800a68a63a14d8e4e5a37fd6ab61a6dd87aa7a6c30232e378508",
      "transactionType": "CALL",
      "contractName": null,
      "contractAddress": "0xbf4a322f1496e5c3d34a9bcdb4c60567b38c7de2",
      "function": "buy(address)",
      "arguments": [
        "0xC77f7fed3b5Cc8249aDc428c5F44C9063B9734b4"
      ],
      "transaction": {
        "from": "0xc77f7fed3b5cc8249adc428c5f44c9063b9734b4",
        "to": "0xbf4a322f1496e5c3d34a9bcdb4c60567b38c7de2",
        "gas": "0x1b309",
        "value": "0xde0b6b3a7640000",
        "input": "0xf088d547000000000000000000000000c77f7fed3b5cc8249adc428c5f44c9063b9734b4",
        "nonce": "0xe34",
        "chainId": "0xaa36a7"
      },
      "additionalContracts": [],
      "isFixedGasLimit": false
    }
  ],
  "receipts": [
    {
      "status": "0x1",
      "cumulativeGasUsed": "0x67e508",
      "logs": [
        {
          "address": "0xbf4a322f1496e5c3d34a9bcdb4c60567b38c7de2",
          "topics": [
            "0xddf252ad1be2c89b69c2b068fc378daa952ba7f163c4a11628f55a4df523b3ef",
            "0x0000000000000000000000000000000000000000000000000000000000000000",
            "0x000000000000000000000000c77f7fed3b5cc8249adc428c5f44c9063b9734b4"
          ],
          "data": "0x0000000000000000000000000000000000000000000000349354ff4813a26207",
          "blockHash": "0x5492d3a8c58d769e410f7cebb8e5e496f4d5d8baed2f2b8cdf6bde197ea9078a",
          "blockNumber": "0x726724",
          "transactionHash": "0xebee7a1bddfe800a68a63a14d8e4e5a37fd6ab61a6dd87aa7a6c30232e378508",
          "transactionIndex": "0x3c",
          "logIndex": "0x6b",
          "removed": false
        },
        {
          "address": "0xbf4a322f1496e5c3d34a9bcdb4c60567b38c7de2",
          "topics": [
            "0xddf252ad1be2c89b69c2b068fc378daa952ba7f163c4a11628f55a4df523b3ef",
            "0x0000000000000000000000000000000000000000000000000000000000000000",
            "0x000000000000000000000000c77f7fed3b5cc8249adc428c5f44c9063b9734b4"
          ],
          "data": "0x00000000000000000000000000000000000000000000000028d3a162891e29f7",
          "blockHash": "0x5492d3a8c58d769e410f7cebb8e5e496f4d5d8baed2f2b8cdf6bde197ea9078a",
          "blockNumber": "0x726724",
          "transactionHash": "0xebee7a1bddfe800a68a63a14d8e4e5a37fd6ab61a6dd87aa7a6c30232e378508",
          "transactionIndex": "0x3c",
          "logIndex": "0x6c",
          "removed": false
        },
        {
          "address": "0xbf4a322f1496e5c3d34a9bcdb4c60567b38c7de2",
          "topics": [
            "0x4afcb4a87cdbd9974efdb92ee48bc8d7cd0ae4bf217004db3d080cbaee652ca7"
          ],
          "data": "0x000000000000000000000000000000000000000000000000000000006787c9200000000000000000000000000000000000000000000000000003a067124ca7710000000000000000000000000000000000000000000000000de0b6b3a7640000",
          "blockHash": "0x5492d3a8c58d769e410f7cebb8e5e496f4d5d8baed2f2b8cdf6bde197ea9078a",
          "blockNumber": "0x726724",
          "transactionHash": "0xebee7a1bddfe800a68a63a14d8e4e5a37fd6ab61a6dd87aa7a6c30232e378508",
          "transactionIndex": "0x3c",
          "logIndex": "0x6d",
          "removed": false
        }
      ],
      "logsBloom": "0x00000000000000000000000000000000000000000000000000000000000000000000000000000000000000000000000000000000000000004000000000000000000000000000000000000008000000000000001000000000000000000000000000000000020000000000000000000800020000000000000000000010000000000000000000000000000000000000000000000000000008000000010000000000000000000000000000000000000000004000000000000000000000000000000000000002000000800000000000001000000000000000080000000000000020000000000000000000000000000000000000000000000000000000000000000000",
      "type": "0x2",
      "transactionHash": "0xebee7a1bddfe800a68a63a14d8e4e5a37fd6ab61a6dd87aa7a6c30232e378508",
      "transactionIndex": "0x3c",
      "blockHash": "0x5492d3a8c58d769e410f7cebb8e5e496f4d5d8baed2f2b8cdf6bde197ea9078a",
      "blockNumber": "0x726724",
      "gasUsed": "0x13af6",
      "effectiveGasPrice": "0x8ac2c735f",
      "from": "0xc77f7fed3b5cc8249adc428c5f44c9063b9734b4",
      "to": "0xbf4a322f1496e5c3d34a9bcdb4c60567b38c7de2",
      "contractAddress": null
    }
  ],
  "libraries": [],
  "pending": [],
  "returns": {},
  "timestamp": 1736952098,
  "chain": 11155111,
  "commit": "51a374b"
}