{
  "transactions": [
    {
      "hash": "0xca8a8206ffdeedeeb446aa46615b195b254d0c288727a7d43a014de9be0d6dc3",
      "transactionType": "CALL",
      "contractName": null,
      "contractAddress": "0x8aafd3ede9adb0ff97c7aebce82a919afb1c8764",
      "function": "sell(uint256)",
      "arguments": [
        "1890012096167715142"
      ],
      "transaction": {
        "from": "0xc77f7fed3b5cc8249adc428c5f44c9063b9734b4",
        "to": "0x8aafd3ede9adb0ff97c7aebce82a919afb1c8764",
        "gas": "0x15dca",
        "value": "0x0",
        "input": "0xe4849b320000000000000000000000000000000000000000000000001a3aabfcdd44a146",
        "nonce": "0x144c",
        "chainId": "0xaa36a7"
      },
      "additionalContracts": [],
      "isFixedGasLimit": false
    }
  ],
  "receipts": [
    {
      "status": "0x1",
      "cumulativeGasUsed": "0x7bcaad",
      "logs": [
        {
          "address": "0x8aafd3ede9adb0ff97c7aebce82a919afb1c8764",
          "topics": [
            "0xddf252ad1be2c89b69c2b068fc378daa952ba7f163c4a11628f55a4df523b3ef",
            "0x000000000000000000000000c77f7fed3b5cc8249adc428c5f44c9063b9734b4",
            "0x0000000000000000000000000000000000000000000000000000000000000000"
          ],
          "data": "0x0000000000000000000000000000000000000000000000001a04f457005ca82d",
          "blockHash": "0xfd90e3ae3b52c2757075aa9b12c50d623fa9445daf549b1adb5eb29f396ca00c",
          "blockNumber": "0x731b91",
          "transactionHash": "0xca8a8206ffdeedeeb446aa46615b195b254d0c288727a7d43a014de9be0d6dc3",
          "transactionIndex": "0x4a",
          "logIndex": "0x64",
          "removed": false
        },
        {
          "address": "0x8aafd3ede9adb0ff97c7aebce82a919afb1c8764",
          "topics": [
            "0xddf252ad1be2c89b69c2b068fc378daa952ba7f163c4a11628f55a4df523b3ef",
            "0x000000000000000000000000c77f7fed3b5cc8249adc428c5f44c9063b9734b4",
            "0x000000000000000000000000c77f7fed3b5cc8249adc428c5f44c9063b9734b4"
          ],
          "data": "0x0000000000000000000000000000000000000000000000000035b7a5dce7f919",
          "blockHash": "0xfd90e3ae3b52c2757075aa9b12c50d623fa9445daf549b1adb5eb29f396ca00c",
          "blockNumber": "0x731b91",
          "transactionHash": "0xca8a8206ffdeedeeb446aa46615b195b254d0c288727a7d43a014de9be0d6dc3",
          "transactionIndex": "0x4a",
          "logIndex": "0x65",
          "removed": false
        },
        {
          "address": "0x8aafd3ede9adb0ff97c7aebce82a919afb1c8764",
          "topics": [
            "0x4afcb4a87cdbd9974efdb92ee48bc8d7cd0ae4bf217004db3d080cbaee652ca7"
          ],
          "data": "0x00000000000000000000000000000000000000000000000000000000679047a8000000000000000000000000000000000000000000000000000f091bfb9fab15000000000000000000000000000000000000000000000000001c6a8f6b351664",
          "blockHash": "0xfd90e3ae3b52c2757075aa9b12c50d623fa9445daf549b1adb5eb29f396ca00c",
          "blockNumber": "0x731b91",
          "transactionHash": "0xca8a8206ffdeedeeb446aa46615b195b254d0c288727a7d43a014de9be0d6dc3",
          "transactionIndex": "0x4a",
          "logIndex": "0x66",
          "removed": false
        }
      ],
      "logsBloom": "0x00000000000000000000000000000000000000000600000000000000000000000000000000000000000000000000000000000000000000004000000000000000000000000000004000000008000000000000000000000000000000000000000000000000020000000000000000000800020000000000000000000010000000000000000000000000000000000000000000000000000000000000010000000000000000000000000000000000000000004000000000000000000000000000000000000002000000800000000000000000000000000000080000000000000020000000000000000000000000000000000000000000000000000000000000000000",
      "type": "0x2",
      "transactionHash": "0xca8a8206ffdeedeeb446aa46615b195b254d0c288727a7d43a014de9be0d6dc3",
      "transactionIndex": "0x4a",
      "blockHash": "0xfd90e3ae3b52c2757075aa9b12c50d623fa9445daf549b1adb5eb29f396ca00c",
      "blockNumber": "0x731b91",
      "gasUsed": "0xfd3f",
      "effectiveGasPrice": "0x1204fd480",
      "from": "0xc77f7fed3b5cc8249adc428c5f44c9063b9734b4",
      "to": "0x8aafd3ede9adb0ff97c7aebce82a919afb1c8764",
      "contractAddress": null
    }
  ],
  "libraries": [],
  "pending": [],
  "returns": {},
  "timestamp": 1737508777,
  "chain": 11155111,
  "commit": "1d2fb70"
}