{
  "transactions": [
    {
      "hash": "0xcd1f404ed1998c5b6538024806962e104eef6f91a8dbb6688291714017c2ed4d",
      "transactionType": "CALL",
      "contractName": null,
      "contractAddress": "0x5eb9cc76c3506942c1c0ead70e877dd5e4f00cb0",
      "function": "buy(address)",
      "arguments": [
        "0xC77f7fed3b5Cc8249aDc428c5F44C9063B9734b4"
      ],
      "transaction": {
        "from": "0xc77f7fed3b5cc8249adc428c5f44c9063b9734b4",
        "to": "0x5eb9cc76c3506942c1c0ead70e877dd5e4f00cb0",
        "gas": "0x1b30c",
        "value": "0xde0b6b3a7640000",
        "input": "0xf088d547000000000000000000000000c77f7fed3b5cc8249adc428c5f44c9063b9734b4",
        "nonce": "0x394",
        "chainId": "0xaa36a7"
      },
      "additionalContracts": [],
      "isFixedGasLimit": false
    }
  ],
  "receipts": [
    {
      "status": "0x1",
      "cumulativeGasUsed": "0xc2f3f0",
      "logs": [
        {
          "address": "0x5eb9cc76c3506942c1c0ead70e877dd5e4f00cb0",
          "topics": [
            "0xddf252ad1be2c89b69c2b068fc378daa952ba7f163c4a11628f55a4df523b3ef",
            "0x0000000000000000000000000000000000000000000000000000000000000000",
            "0x000000000000000000000000c77f7fed3b5cc8249adc428c5f44c9063b9734b4"
          ],
          "data": "0x000000000000000000000000000000000000000000000035753f2de838393f0a",
          "blockHash": "0xc0a491a54fce57912b94c67c8df515825e8bf72c3c8197b23e42d0eb91f61d30",
          "blockNumber": "0x724f90",
          "transactionHash": "0xcd1f404ed1998c5b6538024806962e104eef6f91a8dbb6688291714017c2ed4d",
          "transactionIndex": "0x56",
          "logIndex": "0x9b",
          "removed": false
        },
        {
          "address": "0x5eb9cc76c3506942c1c0ead70e877dd5e4f00cb0",
          "topics": [
            "0xddf252ad1be2c89b69c2b068fc378daa952ba7f163c4a11628f55a4df523b3ef",
            "0x0000000000000000000000000000000000000000000000000000000000000000",
            "0x000000000000000000000000c77f7fed3b5cc8249adc428c5f44c9063b9734b4"
          ],
          "data": "0x00000000000000000000000000000000000000000000000029830f999c9a7497",
          "blockHash": "0xc0a491a54fce57912b94c67c8df515825e8bf72c3c8197b23e42d0eb91f61d30",
          "blockNumber": "0x724f90",
          "transactionHash": "0xcd1f404ed1998c5b6538024806962e104eef6f91a8dbb6688291714017c2ed4d",
          "transactionIndex": "0x56",
          "logIndex": "0x9c",
          "removed": false
        },
        {
          "address": "0x5eb9cc76c3506942c1c0ead70e877dd5e4f00cb0",
          "topics": [
            "0x4afcb4a87cdbd9974efdb92ee48bc8d7cd0ae4bf217004db3d080cbaee652ca7"
          ],
          "data": "0x000000000000000000000000000000000000000000000000000000006786ac74000000000000000000000000000000000000000000000000000391115b602f970000000000000000000000000000000000000000000000000de0b6b3a7640000",
          "blockHash": "0xc0a491a54fce57912b94c67c8df515825e8bf72c3c8197b23e42d0eb91f61d30",
          "blockNumber": "0x724f90",
          "transactionHash": "0xcd1f404ed1998c5b6538024806962e104eef6f91a8dbb6688291714017c2ed4d",
          "transactionIndex": "0x56",
          "logIndex": "0x9d",
          "removed": false
        }
      ],
      "logsBloom": "0x00000000000000000000000000000000000000000000000000000000000000000000000000000000000000000000000000000000000000004000000000000000000000000000000000000008000000000000000000000000000000000000000000000000020000000000000004000800020000000000000000000010000000000000000000000000000000000000000000000000000000000000010000000000000000000000000000000000000000004000000000000000000000000000020000000002000000800000008000000000000000000000080000000000000020000000000000000000000000000000000000000000000000000000000000000000",
      "type": "0x2",
      "transactionHash": "0xcd1f404ed1998c5b6538024806962e104eef6f91a8dbb6688291714017c2ed4d",
      "transactionIndex": "0x56",
      "blockHash": "0xc0a491a54fce57912b94c67c8df515825e8bf72c3c8197b23e42d0eb91f61d30",
      "blockNumber": "0x724f90",
      "gasUsed": "0x13af8",
      "effectiveGasPrice": "0x5687f8fab",
      "from": "0xc77f7fed3b5cc8249adc428c5f44c9063b9734b4",
      "to": "0x5eb9cc76c3506942c1c0ead70e877dd5e4f00cb0",
      "contractAddress": null
    }
  ],
  "libraries": [],
  "pending": [],
  "returns": {},
  "timestamp": 1736879221,
  "chain": 11155111,
  "commit": "51a374b"
}