{
  "transactions": [
    {
      "hash": "0xb14605828f993238c372a63cb225cc3199294010b3931a66a36f701846728b2a",
      "transactionType": "CALL",
      "contractName": null,
      "contractAddress": "0xbf4a322f1496e5c3d34a9bcdb4c60567b38c7de2",
      "function": "buy(address)",
      "arguments": [
        "0xC77f7fed3b5Cc8249aDc428c5F44C9063B9734b4"
      ],
      "transaction": {
        "from": "0xc77f7fed3b5cc8249adc428c5f44c9063b9734b4",
        "to": "0xbf4a322f1496e5c3d34a9bcdb4c60567b38c7de2",
        "gas": "0x1b309",
        "value": "0xde0b6b3a7640000",
        "input": "0xf088d547000000000000000000000000c77f7fed3b5cc8249adc428c5f44c9063b9734b4",
        "nonce": "0xb64",
        "chainId": "0xaa36a7"
      },
      "additionalContracts": [],
      "isFixedGasLimit": false
    }
  ],
  "receipts": [
    {
      "status": "0x1",
      "cumulativeGasUsed": "0x115c123",
      "logs": [
        {
          "address": "0xbf4a322f1496e5c3d34a9bcdb4c60567b38c7de2",
          "topics": [
            "0xddf252ad1be2c89b69c2b068fc378daa952ba7f163c4a11628f55a4df523b3ef",
            "0x0000000000000000000000000000000000000000000000000000000000000000",
            "0x000000000000000000000000c77f7fed3b5cc8249adc428c5f44c9063b9734b4"
          ],
          "data": "0x000000000000000000000000000000000000000000000035186d442ee37d7468",
          "blockHash": "0x2d5fa18cb2332de6da1f11570b3103bf53a70f6160f5c379b0d8083bcdd9d2f4",
          "blockNumber": "0x725b6f",
          "transactionHash": "0xb14605828f993238c372a63cb225cc3199294010b3931a66a36f701846728b2a",
          "transactionIndex": "0x6c",
          "logIndex": "0xbb",
          "removed": false
        },
        {
          "address": "0xbf4a322f1496e5c3d34a9bcdb4c60567b38c7de2",
          "topics": [
            "0xddf252ad1be2c89b69c2b068fc378daa952ba7f163c4a11628f55a4df523b3ef",
            "0x0000000000000000000000000000000000000000000000000000000000000000",
            "0x000000000000000000000000c77f7fed3b5cc8249adc428c5f44c9063b9734b4"
          ],
          "data": "0x000000000000000000000000000000000000000000000000293afbaa02521e57",
          "blockHash": "0x2d5fa18cb2332de6da1f11570b3103bf53a70f6160f5c379b0d8083bcdd9d2f4",
          "blockNumber": "0x725b6f",
          "transactionHash": "0xb14605828f993238c372a63cb225cc3199294010b3931a66a36f701846728b2a",
          "transactionIndex": "0x6c",
          "logIndex": "0xbc",
          "removed": false
        },
        {
          "address": "0xbf4a322f1496e5c3d34a9bcdb4c60567b38c7de2",
          "topics": [
            "0x4afcb4a87cdbd9974efdb92ee48bc8d7cd0ae4bf217004db3d080cbaee652ca7"
          ],
          "data": "0x0000000000000000000000000000000000000000000000000000000067873b900000000000000000000000000000000000000000000000000003974fdbbae8340000000000000000000000000000000000000000000000000de0b6b3a7640000",
          "blockHash": "0x2d5fa18cb2332de6da1f11570b3103bf53a70f6160f5c379b0d8083bcdd9d2f4",
          "blockNumber": "0x725b6f",
          "transactionHash": "0xb14605828f993238c372a63cb225cc3199294010b3931a66a36f701846728b2a",
          "transactionIndex": "0x6c",
          "logIndex": "0xbd",
          "removed": false
        }
      ],
      "logsBloom": "0x00000000000000000000000000000000000000000000000000000000000000000000000000000000000000000000000000000000000000004000000000000000000000000000000000000008000000000000001000000000000000000000000000000000020000000000000000000800020000000000000000000010000000000000000000000000000000000000000000000000000008000000010000000000000000000000000000000000000000004000000000000000000000000000000000000002000000800000000000001000000000000000080000000000000020000000000000000000000000000000000000000000000000000000000000000000",
      "type": "0x2",
      "transactionHash": "0xb14605828f993238c372a63cb225cc3199294010b3931a66a36f701846728b2a",
      "transactionIndex": "0x6c",
      "blockHash": "0x2d5fa18cb2332de6da1f11570b3103bf53a70f6160f5c379b0d8083bcdd9d2f4",
      "blockNumber": "0x725b6f",
      "gasUsed": "0x13af6",
      "effectiveGasPrice": "0x40c04d31",
      "from": "0xc77f7fed3b5cc8249adc428c5f44c9063b9734b4",
      "to": "0xbf4a322f1496e5c3d34a9bcdb4c60567b38c7de2",
      "contractAddress": null
    }
  ],
  "libraries": [],
  "pending": [],
  "returns": {},
  "timestamp": 1736915857,
  "chain": 11155111,
  "commit": "51a374b"
}