{
  "transactions": [
    {
      "hash": "0x9feea5d250ec17d855b9a03ccfbf16995f50111f475309aea957aa49eee3ebe5",
      "transactionType": "CALL",
      "contractName": null,
      "contractAddress": "0x270e88f8683660553e8ba4eb2ad7c91a1710d769",
      "function": "sell(uint256)",
      "arguments": [
        "758498115526026579050"
      ],
      "transaction": {
        "from": "0xc77f7fed3b5cc8249adc428c5f44c9063b9734b4",
        "to": "0x270e88f8683660553e8ba4eb2ad7c91a1710d769",
        "gas": "0x16fec",
        "value": "0x0",
        "input": "0xe4849b320000000000000000000000000000000000000000000000291e46a1602c03cc6a",
        "nonce": "0x670",
        "chainId": "0xaa36a7"
      },
      "additionalContracts": [],
      "isFixedGasLimit": false
    }
  ],
  "receipts": [
    {
      "status": "0x1",
      "cumulativeGasUsed": "0x1294d28",
      "logs": [
        {
          "address": "0x270e88f8683660553e8ba4eb2ad7c91a1710d769",
          "topics": [
            "0xddf252ad1be2c89b69c2b068fc378daa952ba7f163c4a11628f55a4df523b3ef",
            "0x000000000000000000000000c77f7fed3b5cc8249adc428c5f44c9063b9734b4",
            "0x0000000000000000000000000000000000000000000000000000000000000000"
          ],
          "data": "0x0000000000000000000000000000000000000000000000291e46a1602c03cc6a",
          "blockHash": "0x6b9603ccad88f5836cd96b0e91d35db4823745e6373a2fa9d75e1911c68f0aea",
          "blockNumber": "0x72536a",
          "transactionHash": "0x9feea5d250ec17d855b9a03ccfbf16995f50111f475309aea957aa49eee3ebe5",
          "transactionIndex": "0x57",
          "logIndex": "0x19b",
          "removed": false
        },
        {
          "address": "0x270e88f8683660553e8ba4eb2ad7c91a1710d769",
          "topics": [
            "0x4afcb4a87cdbd9974efdb92ee48bc8d7cd0ae4bf217004db3d080cbaee652ca7"
          ],
          "data": "0x000000000000000000000000000000000000000000000000000000006786db000000000000000000000000000000000000000000000000000004a6f9e2b963c80000000000000000000000000000000000000000000000000dc82a69ebb4ec30",
          "blockHash": "0x6b9603ccad88f5836cd96b0e91d35db4823745e6373a2fa9d75e1911c68f0aea",
          "blockNumber": "0x72536a",
          "transactionHash": "0x9feea5d250ec17d855b9a03ccfbf16995f50111f475309aea957aa49eee3ebe5",
          "transactionIndex": "0x57",
          "logIndex": "0x19c",
          "removed": false
        }
      ],
      "logsBloom": "0x00000000000000000000000000000000000000000000000000000000000000000000000000000000000000000000000020000000000000004000000000000000000000000000000000000008000000000000000000000000000000000000000000000000020000000000000000000800020000000000000000000010000000000000000000010000000000000000000000000000000000000000010000000000000000000000000000000000000000004000000000000000000000000000000000000002000000800000000000000000000000000000080000008000000020000000000000000000000000000000000000000000000000000000000000000000",
      "type": "0x2",
      "transactionHash": "0x9feea5d250ec17d855b9a03ccfbf16995f50111f475309aea957aa49eee3ebe5",
      "transactionIndex": "0x57",
      "blockHash": "0x6b9603ccad88f5836cd96b0e91d35db4823745e6373a2fa9d75e1911c68f0aea",
      "blockNumber": "0x72536a",
      "gasUsed": "0xfb93",
      "effectiveGasPrice": "0x276fbd429",
      "from": "0xc77f7fed3b5cc8249adc428c5f44c9063b9734b4",
      "to": "0x270e88f8683660553e8ba4eb2ad7c91a1710d769",
      "contractAddress": null
    }
  ],
  "libraries": [],
  "pending": [],
  "returns": {},
  "timestamp": 1736891137,
  "chain": 11155111,
  "commit": "51a374b"
}