{
  "transactions": [
    {
      "hash": "0x1be678ee5b596d62211023164709fb9b69f3d3ddbc203b577421ed9e19ea11ee",
      "transactionType": "CALL",
      "contractName": null,
      "contractAddress": "0x8aafd3ede9adb0ff97c7aebce82a919afb1c8764",
      "function": "sell(uint256)",
      "arguments": [
        "9658776689061522"
      ],
      "transaction": {
        "from": "0xc77f7fed3b5cc8249adc428c5f44c9063b9734b4",
        "to": "0x8aafd3ede9adb0ff97c7aebce82a919afb1c8764",
        "gas": "0x1724d",
        "value": "0x0",
        "input": "0xe4849b320000000000000000000000000000000000000000000000000022509b31842e92",
        "nonce": "0x1726",
        "chainId": "0xaa36a7"
      },
      "additionalContracts": [],
      "isFixedGasLimit": false
    }
  ],
  "receipts": [
    {
      "status": "0x1",
      "cumulativeGasUsed": "0xd89661",
      "logs": [
        {
          "address": "0x8aafd3ede9adb0ff97c7aebce82a919afb1c8764",
          "topics": [
            "0xddf252ad1be2c89b69c2b068fc378daa952ba7f163c4a11628f55a4df523b3ef",
            "0x000000000000000000000000c77f7fed3b5cc8249adc428c5f44c9063b9734b4",
            "0x0000000000000000000000000000000000000000000000000000000000000000"
          ],
          "data": "0x00000000000000000000000000000000000000000000000000220a5451e36166",
          "blockHash": "0x27f7f99bff15df9fa7c9c1dc884c84b70c60b7c3c9e150e50ca29793e0e6a411",
          "blockNumber": "0x731eef",
          "transactionHash": "0x1be678ee5b596d62211023164709fb9b69f3d3ddbc203b577421ed9e19ea11ee",
          "transactionIndex": "0x61",
          "logIndex": "0xca",
          "removed": false
        },
        {
          "address": "0x8aafd3ede9adb0ff97c7aebce82a919afb1c8764",
          "topics": [
            "0xddf252ad1be2c89b69c2b068fc378daa952ba7f163c4a11628f55a4df523b3ef",
            "0x000000000000000000000000c77f7fed3b5cc8249adc428c5f44c9063b9734b4",
            "0x000000000000000000000000c77f7fed3b5cc8249adc428c5f44c9063b9734b4"
          ],
          "data": "0x00000000000000000000000000000000000000000000000000004646dfa0cd2c",
          "blockHash": "0x27f7f99bff15df9fa7c9c1dc884c84b70c60b7c3c9e150e50ca29793e0e6a411",
          "blockNumber": "0x731eef",
          "transactionHash": "0x1be678ee5b596d62211023164709fb9b69f3d3ddbc203b577421ed9e19ea11ee",
          "transactionIndex": "0x61",
          "logIndex": "0xcb",
          "removed": false
        },
        {
          "address": "0x8aafd3ede9adb0ff97c7aebce82a919afb1c8764",
          "topics": [
            "0x4afcb4a87cdbd9974efdb92ee48bc8d7cd0ae4bf217004db3d080cbaee652ca7"
          ],
          "data": "0x000000000000000000000000000000000000000000000000000000006790701c00000000000000000000000000000000000000000000000000177b2f1de339fa00000000000000000000000000000000000000000000000000003a0f88338d18",
          "blockHash": "0x27f7f99bff15df9fa7c9c1dc884c84b70c60b7c3c9e150e50ca29793e0e6a411",
          "blockNumber": "0x731eef",
          "transactionHash": "0x1be678ee5b596d62211023164709fb9b69f3d3ddbc203b577421ed9e19ea11ee",
          "transactionIndex": "0x61",
          "logIndex": "0xcc",
          "removed": false
        }
      ],
      "logsBloom": "0x00000000000000000000000000000000000000000600000000000000000000000000000000000000000000000000000000000000000000004000000000000000000000000000004000000008000000000000000000000000000000000000000000000000020000000000000000000800020000000000000000000010000000000000000000000000000000000000000000000000000000000000010000000000000000000000000000000000000000004000000000000000000000000000000000000002000000800000000000000000000000000000080000000000000020000000000000000000000000000000000000000000000000000000000000000000",
      "type": "0x2",
      "transactionHash": "0x1be678ee5b596d62211023164709fb9b69f3d3ddbc203b577421ed9e19ea11ee",
      "transactionIndex": "0x61",
      "blockHash": "0x27f7f99bff15df9fa7c9c1dc884c84b70c60b7c3c9e150e50ca29793e0e6a411",
      "blockNumber": "0x731eef",
      "gasUsed": "0xfd33",
      "effectiveGasPrice": "0x4a9ef35a",
      "from": "0xc77f7fed3b5cc8249adc428c5f44c9063b9734b4",
      "to": "0x8aafd3ede9adb0ff97c7aebce82a919afb1c8764",
      "contractAddress": null
    }
  ],
  "libraries": [],
  "pending": [],
  "returns": {},
  "timestamp": 1737519133,
  "chain": 11155111,
  "commit": "1d2fb70"
}