{
  "transactions": [
    {
      "hash": "0x74e704735242efd5e6112b69b0e2ef5f733d1cf4b02a4ea6af07b7fcddca6566",
      "transactionType": "CALL",
      "contractName": null,
      "contractAddress": "0x8aafd3ede9adb0ff97c7aebce82a919afb1c8764",
      "function": "sell(uint256)",
      "arguments": [
        "338803690176448"
      ],
      "transaction": {
        "from": "0xc77f7fed3b5cc8249adc428c5f44c9063b9734b4",
        "to": "0x8aafd3ede9adb0ff97c7aebce82a919afb1c8764",
        "gas": "0x1724d",
        "value": "0x0",
        "input": "0xe4849b3200000000000000000000000000000000000000000000000000013423e199ffc0",
        "nonce": "0x1300",
        "chainId": "0xaa36a7"
      },
      "additionalContracts": [],
      "isFixedGasLimit": false
    }
  ],
  "receipts": [
    {
      "status": "0x1",
      "cumulativeGasUsed": "0xa5e238",
      "logs": [
        {
          "address": "0x8aafd3ede9adb0ff97c7aebce82a919afb1c8764",
          "topics": [
            "0xddf252ad1be2c89b69c2b068fc378daa952ba7f163c4a11628f55a4df523b3ef",
            "0x000000000000000000000000c77f7fed3b5cc8249adc428c5f44c9063b9734b4",
            "0x0000000000000000000000000000000000000000000000000000000000000000"
          ],
          "data": "0x000000000000000000000000000000000000000000000000000131accf69a9bd",
          "blockHash": "0xd4094ee00314a6992cb442e8a5f9d8e43861e6e47d0549029bc3e7400d8f4fe4",
          "blockNumber": "0x731a08",
          "transactionHash": "0x74e704735242efd5e6112b69b0e2ef5f733d1cf4b02a4ea6af07b7fcddca6566",
          "transactionIndex": "0x67",
          "logIndex": "0xaf",
          "removed": false
        },
        {
          "address": "0x8aafd3ede9adb0ff97c7aebce82a919afb1c8764",
          "topics": [
            "0xddf252ad1be2c89b69c2b068fc378daa952ba7f163c4a11628f55a4df523b3ef",
            "0x000000000000000000000000c77f7fed3b5cc8249adc428c5f44c9063b9734b4",
            "0x000000000000000000000000c77f7fed3b5cc8249adc428c5f44c9063b9734b4"
          ],
          "data": "0x0000000000000000000000000000000000000000000000000000027712305603",
          "blockHash": "0xd4094ee00314a6992cb442e8a5f9d8e43861e6e47d0549029bc3e7400d8f4fe4",
          "blockNumber": "0x731a08",
          "transactionHash": "0x74e704735242efd5e6112b69b0e2ef5f733d1cf4b02a4ea6af07b7fcddca6566",
          "transactionIndex": "0x67",
          "logIndex": "0xb0",
          "removed": false
        },
        {
          "address": "0x8aafd3ede9adb0ff97c7aebce82a919afb1c8764",
          "topics": [
            "0x4afcb4a87cdbd9974efdb92ee48bc8d7cd0ae4bf217004db3d080cbaee652ca7"
          ],
          "data": "0x0000000000000000000000000000000000000000000000000000000067903530000000000000000000000000000000000000000000000000000b41bece9bfd4e000000000000000000000000000000000000000000000000000000f9f1cedca0",
          "blockHash": "0xd4094ee00314a6992cb442e8a5f9d8e43861e6e47d0549029bc3e7400d8f4fe4",
          "blockNumber": "0x731a08",
          "transactionHash": "0x74e704735242efd5e6112b69b0e2ef5f733d1cf4b02a4ea6af07b7fcddca6566",
          "transactionIndex": "0x67",
          "logIndex": "0xb1",
          "removed": false
        }
      ],
      "logsBloom": "0x00000000000000000000000000000000000000000600000000000000000000000000000000000000000000000000000000000000000000004000000000000000000000000000004000000008000000000000000000000000000000000000000000000000020000000000000000000800020000000000000000000010000000000000000000000000000000000000000000000000000000000000010000000000000000000000000000000000000000004000000000000000000000000000000000000002000000800000000000000000000000000000080000000000000020000000000000000000000000000000000000000000000000000000000000000000",
      "type": "0x2",
      "transactionHash": "0x74e704735242efd5e6112b69b0e2ef5f733d1cf4b02a4ea6af07b7fcddca6566",
      "transactionIndex": "0x67",
      "blockHash": "0xd4094ee00314a6992cb442e8a5f9d8e43861e6e47d0549029bc3e7400d8f4fe4",
      "blockNumber": "0x731a08",
      "gasUsed": "0xfd33",
      "effectiveGasPrice": "0x43421941",
      "from": "0xc77f7fed3b5cc8249adc428c5f44c9063b9734b4",
      "to": "0x8aafd3ede9adb0ff97c7aebce82a919afb1c8764",
      "contractAddress": null
    }
  ],
  "libraries": [],
  "pending": [],
  "returns": {},
  "timestamp": 1737504051,
  "chain": 11155111,
  "commit": "1d2fb70"
}