{
  "transactions": [
    {
      "hash": "0xd84bdff922f23a061e45437d8bf555ed0841a7cccd3f971289bf896644666916",
      "transactionType": "CALL",
      "contractName": null,
      "contractAddress": "0x270e88f8683660553e8ba4eb2ad7c91a1710d769",
      "function": "sell(uint256)",
      "arguments": [
        "972972633020330959293"
      ],
      "transaction": {
        "from": "0xc77f7fed3b5cc8249adc428c5f44c9063b9734b4",
        "to": "0x270e88f8683660553e8ba4eb2ad7c91a1710d769",
        "gas": "0x16fec",
        "value": "0x0",
        "input": "0xe4849b32000000000000000000000000000000000000000000000034beb52eb3b95461bd",
        "nonce": "0x555",
        "chainId": "0xaa36a7"
      },
      "additionalContracts": [],
      "isFixedGasLimit": false
    }
  ],
  "receipts": [
    {
      "status": "0x1",
      "cumulativeGasUsed": "0x7d5e80",
      "logs": [
        {
          "address": "0x270e88f8683660553e8ba4eb2ad7c91a1710d769",
          "topics": [
            "0xddf252ad1be2c89b69c2b068fc378daa952ba7f163c4a11628f55a4df523b3ef",
            "0x000000000000000000000000c77f7fed3b5cc8249adc428c5f44c9063b9734b4",
            "0x0000000000000000000000000000000000000000000000000000000000000000"
          ],
          "data": "0x000000000000000000000000000000000000000000000034beb52eb3b95461bd",
          "blockHash": "0xce0bcac11f92690d5da4b40f7d8c9db7d199afe73262cd0e55e188b1b030b0f4",
          "blockNumber": "0x7251f6",
          "transactionHash": "0xd84bdff922f23a061e45437d8bf555ed0841a7cccd3f971289bf896644666916",
          "transactionIndex": "0x56",
          "logIndex": "0x79",
          "removed": false
        },
        {
          "address": "0x270e88f8683660553e8ba4eb2ad7c91a1710d769",
          "topics": [
            "0x4afcb4a87cdbd9974efdb92ee48bc8d7cd0ae4bf217004db3d080cbaee652ca7"
          ],
          "data": "0x000000000000000000000000000000000000000000000000000000006786c9780000000000000000000000000000000000000000000000000003a082c45fe1240000000000000000000000000000000000000000000000000dc84084d9f8bf6b",
          "blockHash": "0xce0bcac11f92690d5da4b40f7d8c9db7d199afe73262cd0e55e188b1b030b0f4",
          "blockNumber": "0x7251f6",
          "transactionHash": "0xd84bdff922f23a061e45437d8bf555ed0841a7cccd3f971289bf896644666916",
          "transactionIndex": "0x56",
          "logIndex": "0x7a",
          "removed": false
        }
      ],
      "logsBloom": "0x00000000000000000000000000000000000000000000000000000000000000000000000000000000000000000000000020000000000000004000000000000000000000000000000000000008000000000000000000000000000000000000000000000000020000000000000000000800020000000000000000000010000000000000000000010000000000000000000000000000000000000000010000000000000000000000000000000000000000004000000000000000000000000000000000000002000000800000000000000000000000000000080000008000000020000000000000000000000000000000000000000000000000000000000000000000",
      "type": "0x2",
      "transactionHash": "0xd84bdff922f23a061e45437d8bf555ed0841a7cccd3f971289bf896644666916",
      "transactionIndex": "0x56",
      "blockHash": "0xce0bcac11f92690d5da4b40f7d8c9db7d199afe73262cd0e55e188b1b030b0f4",
      "blockNumber": "0x7251f6",
      "gasUsed": "0xfb93",
      "effectiveGasPrice": "0x42398a4ee",
      "from": "0xc77f7fed3b5cc8249adc428c5f44c9063b9734b4",
      "to": "0x270e88f8683660553e8ba4eb2ad7c91a1710d769",
      "contractAddress": null
    }
  ],
  "libraries": [],
  "pending": [],
  "returns": {},
  "timestamp": 1736886649,
  "chain": 11155111,
  "commit": "51a374b"
}