{
  "transactions": [
    {
      "hash": "0x9c41431a95f8ffb65eeab7015e7451ddb1fa44f4dd3c72265e3d3a7f4c1ec0a4",
      "transactionType": "CALL",
      "contractName": null,
      "contractAddress": "0x8aafd3ede9adb0ff97c7aebce82a919afb1c8764",
      "function": "sell(uint256)",
      "arguments": [
        "13121931268232697"
      ],
      "transaction": {
        "from": "0xc77f7fed3b5cc8249adc428c5f44c9063b9734b4",
        "to": "0x8aafd3ede9adb0ff97c7aebce82a919afb1c8764",
        "gas": "0x1724d",
        "value": "0x0",
        "input": "0xe4849b32000000000000000000000000000000000000000000000000002e9e53b40295f9",
        "nonce": "0x1513",
        "chainId": "0xaa36a7"
      },
      "additionalContracts": [],
      "isFixedGasLimit": false
    }
  ],
  "receipts": [
    {
      "status": "0x1",
      "cumulativeGasUsed": "0xb421a3",
      "logs": [
        {
          "address": "0x8aafd3ede9adb0ff97c7aebce82a919afb1c8764",
          "topics": [
            "0xddf252ad1be2c89b69c2b068fc378daa952ba7f163c4a11628f55a4df523b3ef",
            "0x000000000000000000000000c77f7fed3b5cc8249adc428c5f44c9063b9734b4",
            "0x0000000000000000000000000000000000000000000000000000000000000000"
          ],
          "data": "0x000000000000000000000000000000000000000000000000002e3eda339811b4",
          "blockHash": "0x8cc0a45c0d54ee18b80093b1c88a2ea1876e2fe97beb45657d10ce3fe9a511ef",
          "blockNumber": "0x731c75",
          "transactionHash": "0x9c41431a95f8ffb65eeab7015e7451ddb1fa44f4dd3c72265e3d3a7f4c1ec0a4",
          "transactionIndex": "0x68",
          "logIndex": "0xa4",
          "removed": false
        },
        {
          "address": "0x8aafd3ede9adb0ff97c7aebce82a919afb1c8764",
          "topics": [
            "0xddf252ad1be2c89b69c2b068fc378daa952ba7f163c4a11628f55a4df523b3ef",
            "0x000000000000000000000000c77f7fed3b5cc8249adc428c5f44c9063b9734b4",
            "0x000000000000000000000000c77f7fed3b5cc8249adc428c5f44c9063b9734b4"
          ],
          "data": "0x00000000000000000000000000000000000000000000000000005f79806a8445",
          "blockHash": "0x8cc0a45c0d54ee18b80093b1c88a2ea1876e2fe97beb45657d10ce3fe9a511ef",
          "blockNumber": "0x731c75",
          "transactionHash": "0x9c41431a95f8ffb65eeab7015e7451ddb1fa44f4dd3c72265e3d3a7f4c1ec0a4",
          "transactionIndex": "0x68",
          "logIndex": "0xa5",
          "removed": false
        },
        {
          "address": "0x8aafd3ede9adb0ff97c7aebce82a919afb1c8764",
          "topics": [
            "0x4afcb4a87cdbd9974efdb92ee48bc8d7cd0ae4bf217004db3d080cbaee652ca7"
          ],
          "data": "0x000000000000000000000000000000000000000000000000000000006790525800000000000000000000000000000000000000000000000000114f6e84ec25bb00000000000000000000000000000000000000000000000000003a261ffca90c",
          "blockHash": "0x8cc0a45c0d54ee18b80093b1c88a2ea1876e2fe97beb45657d10ce3fe9a511ef",
          "blockNumber": "0x731c75",
          "transactionHash": "0x9c41431a95f8ffb65eeab7015e7451ddb1fa44f4dd3c72265e3d3a7f4c1ec0a4",
          "transactionIndex": "0x68",
          "logIndex": "0xa6",
          "removed": false
        }
      ],
      "logsBloom": "0x00000000000000000000000000000000000000000600000000000000000000000000000000000000000000000000000000000000000000004000000000000000000000000000004000000008000000000000000000000000000000000000000000000000020000000000000000000800020000000000000000000010000000000000000000000000000000000000000000000000000000000000010000000000000000000000000000000000000000004000000000000000000000000000000000000002000000800000000000000000000000000000080000000000000020000000000000000000000000000000000000000000000000000000000000000000",
      "type": "0x2",
      "transactionHash": "0x9c41431a95f8ffb65eeab7015e7451ddb1fa44f4dd3c72265e3d3a7f4c1ec0a4",
      "transactionIndex": "0x68",
      "blockHash": "0x8cc0a45c0d54ee18b80093b1c88a2ea1876e2fe97beb45657d10ce3fe9a511ef",
      "blockNumber": "0x731c75",
      "gasUsed": "0xfd33",
      "effectiveGasPrice": "0x16b6e0dde",
      "from": "0xc77f7fed3b5cc8249adc428c5f44c9063b9734b4",
      "to": "0x8aafd3ede9adb0ff97c7aebce82a919afb1c8764",
      "contractAddress": null
    }
  ],
  "libraries": [],
  "pending": [],
  "returns": {},
  "timestamp": 1737511514,
  "chain": 11155111,
  "commit": "1d2fb70"
}