{
  "transactions": [
    {
      "hash": "0x553a33b43782f5d3c31ce5897ab8fce7cfc1ff1aa180af9e0bac82ff336b9e3e",
      "transactionType": "CALL",
      "contractName": null,
      "contractAddress": "0x270e88f8683660553e8ba4eb2ad7c91a1710d769",
      "function": "sell(uint256)",
      "arguments": [
        "728909237677674056070"
      ],
      "transaction": {
        "from": "0xc77f7fed3b5cc8249adc428c5f44c9063b9734b4",
        "to": "0x270e88f8683660553e8ba4eb2ad7c91a1710d769",
        "gas": "0x16fec",
        "value": "0x0",
        "input": "0xe4849b3200000000000000000000000000000000000000000000002783a5d1bdbe89c986",
        "nonce": "0x7ba",
        "chainId": "0xaa36a7"
      },
      "additionalContracts": [],
      "isFixedGasLimit": false
    }
  ],
  "receipts": [
    {
      "status": "0x1",
      "cumulativeGasUsed": "0x7cc38b",
      "logs": [
        {
          "address": "0x270e88f8683660553e8ba4eb2ad7c91a1710d769",
          "topics": [
            "0xddf252ad1be2c89b69c2b068fc378daa952ba7f163c4a11628f55a4df523b3ef",
            "0x000000000000000000000000c77f7fed3b5cc8249adc428c5f44c9063b9734b4",
            "0x0000000000000000000000000000000000000000000000000000000000000000"
          ],
          "data": "0x00000000000000000000000000000000000000000000002783a5d1bdbe89c986",
          "blockHash": "0x2a4c78265d67347cb5f5b7cff19039a5832473020fce996f87bc8065b8eed58f",
          "blockNumber": "0x7254f0",
          "transactionHash": "0x553a33b43782f5d3c31ce5897ab8fce7cfc1ff1aa180af9e0bac82ff336b9e3e",
          "transactionIndex": "0x5a",
          "logIndex": "0x8a",
          "removed": false
        },
        {
          "address": "0x270e88f8683660553e8ba4eb2ad7c91a1710d769",
          "topics": [
            "0x4afcb4a87cdbd9974efdb92ee48bc8d7cd0ae4bf217004db3d080cbaee652ca7"
          ],
          "data": "0x000000000000000000000000000000000000000000000000000000006786ed480000000000000000000000000000000000000000000000000004d74f5c5853eb0000000000000000000000000000000000000000000000000dc8275a13e8d9ce",
          "blockHash": "0x2a4c78265d67347cb5f5b7cff19039a5832473020fce996f87bc8065b8eed58f",
          "blockNumber": "0x7254f0",
          "transactionHash": "0x553a33b43782f5d3c31ce5897ab8fce7cfc1ff1aa180af9e0bac82ff336b9e3e",
          "transactionIndex": "0x5a",
          "logIndex": "0x8b",
          "removed": false
        }
      ],
      "logsBloom": "0x00000000000000000000000000000000000000000000000000000000000000000000000000000000000000000000000020000000000000004000000000000000000000000000000000000008000000000000000000000000000000000000000000000000020000000000000000000800020000000000000000000010000000000000000000010000000000000000000000000000000000000000010000000000000000000000000000000000000000004000000000000000000000000000000000000002000000800000000000000000000000000000080000008000000020000000000000000000000000000000000000000000000000000000000000000000",
      "type": "0x2",
      "transactionHash": "0x553a33b43782f5d3c31ce5897ab8fce7cfc1ff1aa180af9e0bac82ff336b9e3e",
      "transactionIndex": "0x5a",
      "blockHash": "0x2a4c78265d67347cb5f5b7cff19039a5832473020fce996f87bc8065b8eed58f",
      "blockNumber": "0x7254f0",
      "gasUsed": "0xfb93",
      "effectiveGasPrice": "0xc8d31658",
      "from": "0xc77f7fed3b5cc8249adc428c5f44c9063b9734b4",
      "to": "0x270e88f8683660553e8ba4eb2ad7c91a1710d769",
      "contractAddress": null
    }
  ],
  "libraries": [],
  "pending": [],
  "returns": {},
  "timestamp": 1736895816,
  "chain": 11155111,
  "commit": "51a374b"
}