{
  "transactions": [
    {
      "hash": "0xb46a10b78b1709c9319bbf5e614529e27adca7dd69faf8da7bc4e682c7f5be20",
      "transactionType": "CALL",
      "contractName": null,
      "contractAddress": "0x8aafd3ede9adb0ff97c7aebce82a919afb1c8764",
      "function": "buy(address)",
      "arguments": [
        "0xC77f7fed3b5Cc8249aDc428c5F44C9063B9734b4"
      ],
      "transaction": {
        "from": "0xc77f7fed3b5cc8249adc428c5f44c9063b9734b4",
        "to": "0x8aafd3ede9adb0ff97c7aebce82a919afb1c8764",
        "gas": "0x156ea",
        "value": "0xde0b6b3a7640000",
        "input": "0xf088d547000000000000000000000000c77f7fed3b5cc8249adc428c5f44c9063b9734b4",
        "nonce": "0xe3f",
        "chainId": "0xaa36a7"
      },
      "additionalContracts": [],
      "isFixedGasLimit": false
    }
  ],
  "receipts": [
    {
      "status": "0x1",
      "cumulativeGasUsed": "0xf72425",
      "logs": [
        {
          "address": "0x8aafd3ede9adb0ff97c7aebce82a919afb1c8764",
          "topics": [
            "0xddf252ad1be2c89b69c2b068fc378daa952ba7f163c4a11628f55a4df523b3ef",
            "0x0000000000000000000000000000000000000000000000000000000000000000",
            "0x000000000000000000000000c77f7fed3b5cc8249adc428c5f44c9063b9734b4"
          ],
          "data": "0x0000000000000000000000000000000000000000000000354bd4758c12c2e91a",
          "blockHash": "0x8a2c8ad9f8a891757f2a4b32e199152fd033a94c86ce18959413eb93ac55b5d6",
          "blockNumber": "0x73137d",
          "transactionHash": "0xb46a10b78b1709c9319bbf5e614529e27adca7dd69faf8da7bc4e682c7f5be20",
          "transactionIndex": "0x9e",
          "logIndex": "0xd8",
          "removed": false
        },
        {
          "address": "0x8aafd3ede9adb0ff97c7aebce82a919afb1c8764",
          "topics": [
            "0xddf252ad1be2c89b69c2b068fc378daa952ba7f163c4a11628f55a4df523b3ef",
            "0x0000000000000000000000000000000000000000000000000000000000000000",
            "0x000000000000000000000000c77f7fed3b5cc8249adc428c5f44c9063b9734b4"
          ],
          "data": "0x0000000000000000000000000000000000000000000000002962e639e768e334",
          "blockHash": "0x8a2c8ad9f8a891757f2a4b32e199152fd033a94c86ce18959413eb93ac55b5d6",
          "blockNumber": "0x73137d",
          "transactionHash": "0xb46a10b78b1709c9319bbf5e614529e27adca7dd69faf8da7bc4e682c7f5be20",
          "transactionIndex": "0x9e",
          "logIndex": "0xd9",
          "removed": false
        },
        {
          "address": "0x8aafd3ede9adb0ff97c7aebce82a919afb1c8764",
          "topics": [
            "0x4afcb4a87cdbd9974efdb92ee48bc8d7cd0ae4bf217004db3d080cbaee652ca7"
          ],
          "data": "0x00000000000000000000000000000000000000000000000000000000678fe67000000000000000000000000000000000000000000000000000039709e44553590000000000000000000000000000000000000000000000000de0b6b3a7640000",
          "blockHash": "0x8a2c8ad9f8a891757f2a4b32e199152fd033a94c86ce18959413eb93ac55b5d6",
          "blockNumber": "0x73137d",
          "transactionHash": "0xb46a10b78b1709c9319bbf5e614529e27adca7dd69faf8da7bc4e682c7f5be20",
          "transactionIndex": "0x9e",
          "logIndex": "0xda",
          "removed": false
        }
      ],
      "logsBloom": "0x00000000000000000000000000000000000000000600000000000000000000000000000000000000000000000000000000000000000000004000000000000000000000000000004000000008000000000000000000000000000000000000000000000000020000000000000000000800020000000000000000000010000000000000000000000000000000000000000000000000000000000000010000000000000000000000000000000000000000004000000000000000000000000000000000000002000000800000000000000000000000000000080000000000000020000000000000000000000000000000000000000000000000000000000000000000",
      "type": "0x2",
      "transactionHash": "0xb46a10b78b1709c9319bbf5e614529e27adca7dd69faf8da7bc4e682c7f5be20",
      "transactionIndex": "0x9e",
      "blockHash": "0x8a2c8ad9f8a891757f2a4b32e199152fd033a94c86ce18959413eb93ac55b5d6",
      "blockNumber": "0x73137d",
      "gasUsed": "0xf844",
      "effectiveGasPrice": "0x607b966f",
      "from": "0xc77f7fed3b5cc8249adc428c5f44c9063b9734b4",
      "to": "0x8aafd3ede9adb0ff97c7aebce82a919afb1c8764",
      "contractAddress": null
    }
  ],
  "libraries": [],
  "pending": [],
  "returns": {},
  "timestamp": 1737483889,
  "chain": 11155111,
  "commit": "51a374b"
}