{
  "transactions": [
    {
      "hash": "0x172b7f5f21fb4e5e037f4ec852b5a68461908098eadcbe854f7b23ef66c0c07b",
      "transactionType": "CALL",
      "contractName": null,
      "contractAddress": "0x8aafd3ede9adb0ff97c7aebce82a919afb1c8764",
      "function": "buy(address)",
      "arguments": [
        "0xC77f7fed3b5Cc8249aDc428c5F44C9063B9734b4"
      ],
      "transaction": {
        "from": "0xc77f7fed3b5cc8249adc428c5f44c9063b9734b4",
        "to": "0x8aafd3ede9adb0ff97c7aebce82a919afb1c8764",
        "gas": "0x156ea",
        "value": "0xde0b6b3a7640000",
        "input": "0xf088d547000000000000000000000000c77f7fed3b5cc8249adc428c5f44c9063b9734b4",
        "nonce": "0x16c9",
        "chainId": "0xaa36a7"
      },
      "additionalContracts": [],
      "isFixedGasLimit": false
    }
  ],
  "receipts": [
    {
      "status": "0x1",
      "cumulativeGasUsed": "0xf9cc85",
      "logs": [
        {
          "address": "0x8aafd3ede9adb0ff97c7aebce82a919afb1c8764",
          "topics": [
            "0xddf252ad1be2c89b69c2b068fc378daa952ba7f163c4a11628f55a4df523b3ef",
            "0x0000000000000000000000000000000000000000000000000000000000000000",
            "0x000000000000000000000000c77f7fed3b5cc8249adc428c5f44c9063b9734b4"
          ],
          "data": "0x0000000000000000000000000000000000000000000000088a7074ae672ee1ee",
          "blockHash": "0x9c1f7f161e5e9e3dfed77da009febe1d4cab86c3615e6f9798e32b4cb8e170ed",
          "blockNumber": "0x731e83",
          "transactionHash": "0x172b7f5f21fb4e5e037f4ec852b5a68461908098eadcbe854f7b23ef66c0c07b",
          "transactionIndex": "0x81",
          "logIndex": "0x105",
          "removed": false
        },
        {
          "address": "0x8aafd3ede9adb0ff97c7aebce82a919afb1c8764",
          "topics": [
            "0xddf252ad1be2c89b69c2b068fc378daa952ba7f163c4a11628f55a4df523b3ef",
            "0x0000000000000000000000000000000000000000000000000000000000000000",
            "0x000000000000000000000000c77f7fed3b5cc8249adc428c5f44c9063b9734b4"
          ],
          "data": "0x00000000000000000000000000000000000000000000000006a1d83cf974c90f",
          "blockHash": "0x9c1f7f161e5e9e3dfed77da009febe1d4cab86c3615e6f9798e32b4cb8e170ed",
          "blockNumber": "0x731e83",
          "transactionHash": "0x172b7f5f21fb4e5e037f4ec852b5a68461908098eadcbe854f7b23ef66c0c07b",
          "transactionIndex": "0x81",
          "logIndex": "0x106",
          "removed": false
        },
        {
          "address": "0x8aafd3ede9adb0ff97c7aebce82a919afb1c8764",
          "topics": [
            "0x4afcb4a87cdbd9974efdb92ee48bc8d7cd0ae4bf217004db3d080cbaee652ca7"
          ],
          "data": "0x0000000000000000000000000000000000000000000000000000000067906b0c000000000000000000000000000000000000000000000000001659df109bd6050000000000000000000000000000000000000000000000000de0b6b3a7640000",
          "blockHash": "0x9c1f7f161e5e9e3dfed77da009febe1d4cab86c3615e6f9798e32b4cb8e170ed",
          "blockNumber": "0x731e83",
          "transactionHash": "0x172b7f5f21fb4e5e037f4ec852b5a68461908098eadcbe854f7b23ef66c0c07b",
          "transactionIndex": "0x81",
          "logIndex": "0x107",
          "removed": false
        }
      ],
      "logsBloom": "0x00000000000000000000000000000000000000000600000000000000000000000000000000000000000000000000000000000000000000004000000000000000000000000000004000000008000000000000000000000000000000000000000000000000020000000000000000000800020000000000000000000010000000000000000000000000000000000000000000000000000000000000010000000000000000000000000000000000000000004000000000000000000000000000000000000002000000800000000000000000000000000000080000000000000020000000000000000000000000000000000000000000000000000000000000000000",
      "type": "0x2",
      "transactionHash": "0x172b7f5f21fb4e5e037f4ec852b5a68461908098eadcbe854f7b23ef66c0c07b",
      "transactionIndex": "0x81",
      "blockHash": "0x9c1f7f161e5e9e3dfed77da009febe1d4cab86c3615e6f9798e32b4cb8e170ed",
      "blockNumber": "0x731e83",
      "gasUsed": "0xf844",
      "effectiveGasPrice": "0x47485ea6",
      "from": "0xc77f7fed3b5cc8249adc428c5f44c9063b9734b4",
      "to": "0x8aafd3ede9adb0ff97c7aebce82a919afb1c8764",
      "contractAddress": null
    }
  ],
  "libraries": [],
  "pending": [],
  "returns": {},
  "timestamp": 1737517838,
  "chain": 11155111,
  "commit": "1d2fb70"
}