{
  "transactions": [
    {
      "hash": "0x9e3c0b0185642198b1ccf9e93d215c3b4ece6fdcba16f551c85ae892c1eedfb0",
      "transactionType": "CALL",
      "contractName": null,
      "contractAddress": "0xbf4a322f1496e5c3d34a9bcdb4c60567b38c7de2",
      "function": "sell(uint256)",
      "arguments": [
        "975176150538407489463"
      ],
      "transaction": {
        "from": "0xc77f7fed3b5cc8249adc428c5f44c9063b9734b4",
        "to": "0xbf4a322f1496e5c3d34a9bcdb4c60567b38c7de2",
        "gas": "0x16fea",
        "value": "0x0",
        "input": "0xe4849b32000000000000000000000000000000000000000000000034dd49a635c2a1afb7",
        "nonce": "0xd81",
        "chainId": "0xaa36a7"
      },
      "additionalContracts": [],
      "isFixedGasLimit": false
    }
  ],
  "receipts": [
    {
      "status": "0x1",
      "cumulativeGasUsed": "0x7c1f2c",
      "logs": [
        {
          "address": "0xbf4a322f1496e5c3d34a9bcdb4c60567b38c7de2",
          "topics": [
            "0xddf252ad1be2c89b69c2b068fc378daa952ba7f163c4a11628f55a4df523b3ef",
            "0x000000000000000000000000c77f7fed3b5cc8249adc428c5f44c9063b9734b4",
            "0x0000000000000000000000000000000000000000000000000000000000000000"
          ],
          "data": "0x000000000000000000000000000000000000000000000034dd49a635c2a1afb7",
          "blockHash": "0x6f45d839666103d7c8373e68a554af6b3b76342dbb30f7acf54dc430da73eeca",
          "blockNumber": "0x726650",
          "transactionHash": "0x9e3c0b0185642198b1ccf9e93d215c3b4ece6fdcba16f551c85ae892c1eedfb0",
          "transactionIndex": "0x58",
          "logIndex": "0x82",
          "removed": false
        },
        {
          "address": "0xbf4a322f1496e5c3d34a9bcdb4c60567b38c7de2",
          "topics": [
            "0x4afcb4a87cdbd9974efdb92ee48bc8d7cd0ae4bf217004db3d080cbaee652ca7"
          ],
          "data": "0x000000000000000000000000000000000000000000000000000000006787be7000000000000000000000000000000000000000000000000000039e25673f1d710000000000000000000000000000000000000000000000000dc7e3d6d9c3807b",
          "blockHash": "0x6f45d839666103d7c8373e68a554af6b3b76342dbb30f7acf54dc430da73eeca",
          "blockNumber": "0x726650",
          "transactionHash": "0x9e3c0b0185642198b1ccf9e93d215c3b4ece6fdcba16f551c85ae892c1eedfb0",
          "transactionIndex": "0x58",
          "logIndex": "0x83",
          "removed": false
        }
      ],
      "logsBloom": "0x00000000000000000000000000000000000000000000000000000000000000000000000000000000000000000000000000000000000000004000000000000000000000000000000000000008000000000000001000000000000000000000000000000000020000000000000000000800020000000000000000000010000000000000000000000000000000000000000000000000000008000000010000000000000000000000000000000000000000004000000000000000000000000000000000000002000000800000000000001000000000000000080000000000000020000000000000000000000000000000000000000000000000000000000000000000",
      "type": "0x2",
      "transactionHash": "0x9e3c0b0185642198b1ccf9e93d215c3b4ece6fdcba16f551c85ae892c1eedfb0",
      "transactionIndex": "0x58",
      "blockHash": "0x6f45d839666103d7c8373e68a554af6b3b76342dbb30f7acf54dc430da73eeca",
      "blockNumber": "0x726650",
      "gasUsed": "0xfb91",
      "effectiveGasPrice": "0x8cdab3d0",
      "from": "0xc77f7fed3b5cc8249adc428c5f44c9063b9734b4",
      "to": "0xbf4a322f1496e5c3d34a9bcdb4c60567b38c7de2",
      "contractAddress": null
    }
  ],
  "libraries": [],
  "pending": [],
  "returns": {},
  "timestamp": 1736949361,
  "chain": 11155111,
  "commit": "51a374b"
}