{
  "transactions": [
    {
      "hash": "0x7e62f67750857e596ffacbc8a0591c6d00262951d64c52dc0c8ef6545888aea0",
      "transactionType": "CALL",
      "contractName": null,
      "contractAddress": "0xbf4a322f1496e5c3d34a9bcdb4c60567b38c7de2",
      "function": "sell(uint256)",
      "arguments": [
        "990379345314418742251"
      ],
      "transaction": {
        "from": "0xc77f7fed3b5cc8249adc428c5f44c9063b9734b4",
        "to": "0xbf4a322f1496e5c3d34a9bcdb4c60567b38c7de2",
        "gas": "0x16fea",
        "value": "0x0",
        "input": "0xe4849b32000000000000000000000000000000000000000000000035b0463f4f0ddb53eb",
        "nonce": "0x91b",
        "chainId": "0xaa36a7"
      },
      "additionalContracts": [],
      "isFixedGasLimit": false
    }
  ],
  "receipts": [
    {
      "status": "0x1",
      "cumulativeGasUsed": "0x12e551c",
      "logs": [
        {
          "address": "0xbf4a322f1496e5c3d34a9bcdb4c60567b38c7de2",
          "topics": [
            "0xddf252ad1be2c89b69c2b068fc378daa952ba7f163c4a11628f55a4df523b3ef",
            "0x000000000000000000000000c77f7fed3b5cc8249adc428c5f44c9063b9734b4",
            "0x0000000000000000000000000000000000000000000000000000000000000000"
          ],
          "data": "0x000000000000000000000000000000000000000000000035b0463f4f0ddb53eb",
          "blockHash": "0x699ee92fe979490204be01ad3552f6b2e270a5ee1abfe34ed4f9ec09e2d1d9a1",
          "blockNumber": "0x72589e",
          "transactionHash": "0x7e62f67750857e596ffacbc8a0591c6d00262951d64c52dc0c8ef6545888aea0",
          "transactionIndex": "0x52",
          "logIndex": "0x7a",
          "removed": false
        },
        {
          "address": "0xbf4a322f1496e5c3d34a9bcdb4c60567b38c7de2",
          "topics": [
            "0x4afcb4a87cdbd9974efdb92ee48bc8d7cd0ae4bf217004db3d080cbaee652ca7"
          ],
          "data": "0x000000000000000000000000000000000000000000000000000000006787199400000000000000000000000000000000000000000000000000038fede8f85c4f0000000000000000000000000000000000000000000000000dc7e3fa32c1cbd5",
          "blockHash": "0x699ee92fe979490204be01ad3552f6b2e270a5ee1abfe34ed4f9ec09e2d1d9a1",
          "blockNumber": "0x72589e",
          "transactionHash": "0x7e62f67750857e596ffacbc8a0591c6d00262951d64c52dc0c8ef6545888aea0",
          "transactionIndex": "0x52",
          "logIndex": "0x7b",
          "removed": false
        }
      ],
      "logsBloom": "0x00000000000000000000000000000000000000000000000000000000000000000000000000000000000000000000000000000000000000004000000000000000000000000000000000000008000000000000001000000000000000000000000000000000020000000000000000000800020000000000000000000010000000000000000000000000000000000000000000000000000008000000010000000000000000000000000000000000000000004000000000000000000000000000000000000002000000800000000000001000000000000000080000000000000020000000000000000000000000000000000000000000000000000000000000000000",
      "type": "0x2",
      "transactionHash": "0x7e62f67750857e596ffacbc8a0591c6d00262951d64c52dc0c8ef6545888aea0",
      "transactionIndex": "0x52",
      "blockHash": "0x699ee92fe979490204be01ad3552f6b2e270a5ee1abfe34ed4f9ec09e2d1d9a1",
      "blockNumber": "0x72589e",
      "gasUsed": "0xfb91",
      "effectiveGasPrice": "0x43990ab5",
      "from": "0xc77f7fed3b5cc8249adc428c5f44c9063b9734b4",
      "to": "0xbf4a322f1496e5c3d34a9bcdb4c60567b38c7de2",
      "contractAddress": null
    }
  ],
  "libraries": [],
  "pending": [],
  "returns": {},
  "timestamp": 1736907158,
  "chain": 11155111,
  "commit": "51a374b"
}