{
  "transactions": [
    {
      "hash": "0x5cc54818c4b03c8081eb6ddf2ee251e808d64dfeed7222db89364465fcc3358f",
      "transactionType": "CALL",
      "contractName": null,
      "contractAddress": "0x8aafd3ede9adb0ff97c7aebce82a919afb1c8764",
      "function": "buy(address)",
      "arguments": [
        "0xC77f7fed3b5Cc8249aDc428c5F44C9063B9734b4"
      ],
      "transaction": {
        "from": "0xc77f7fed3b5cc8249adc428c5f44c9063b9734b4",
        "to": "0x8aafd3ede9adb0ff97c7aebce82a919afb1c8764",
        "gas": "0x156ea",
        "value": "0xde0b6b3a7640000",
        "input": "0xf088d547000000000000000000000000c77f7fed3b5cc8249adc428c5f44c9063b9734b4",
        "nonce": "0xe9b",
        "chainId": "0xaa36a7"
      },
      "additionalContracts": [],
      "isFixedGasLimit": false
    }
  ],
  "receipts": [
    {
      "status": "0x1",
      "cumulativeGasUsed": "0x15105ce",
      "logs": [
        {
          "address": "0x8aafd3ede9adb0ff97c7aebce82a919afb1c8764",
          "topics": [
            "0xddf252ad1be2c89b69c2b068fc378daa952ba7f163c4a11628f55a4df523b3ef",
            "0x0000000000000000000000000000000000000000000000000000000000000000",
            "0x000000000000000000000000c77f7fed3b5cc8249adc428c5f44c9063b9734b4"
          ],
          "data": "0x00000000000000000000000000000000000000000000002870fc6fcb092c32c5",
          "blockHash": "0x67133286c085ba1feceea273fbdacc97750d566b5d993351799a815a9a21e186",
          "blockNumber": "0x7313fc",
          "transactionHash": "0x5cc54818c4b03c8081eb6ddf2ee251e808d64dfeed7222db89364465fcc3358f",
          "transactionIndex": "0xda",
          "logIndex": "0x16d",
          "removed": false
        },
        {
          "address": "0x8aafd3ede9adb0ff97c7aebce82a919afb1c8764",
          "topics": [
            "0xddf252ad1be2c89b69c2b068fc378daa952ba7f163c4a11628f55a4df523b3ef",
            "0x0000000000000000000000000000000000000000000000000000000000000000",
            "0x000000000000000000000000c77f7fed3b5cc8249adc428c5f44c9063b9734b4"
          ],
          "data": "0x0000000000000000000000000000000000000000000000001f6772637fee4616",
          "blockHash": "0x67133286c085ba1feceea273fbdacc97750d566b5d993351799a815a9a21e186",
          "blockNumber": "0x7313fc",
          "transactionHash": "0x5cc54818c4b03c8081eb6ddf2ee251e808d64dfeed7222db89364465fcc3358f",
          "transactionIndex": "0xda",
          "logIndex": "0x16e",
          "removed": false
        },
        {
          "address": "0x8aafd3ede9adb0ff97c7aebce82a919afb1c8764",
          "topics": [
            "0x4afcb4a87cdbd9974efdb92ee48bc8d7cd0ae4bf217004db3d080cbaee652ca7"
          ],
          "data": "0x00000000000000000000000000000000000000000000000000000000678fec7c0000000000000000000000000000000000000000000000000004b712655b20c40000000000000000000000000000000000000000000000000de0b6b3a7640000",
          "blockHash": "0x67133286c085ba1feceea273fbdacc97750d566b5d993351799a815a9a21e186",
          "blockNumber": "0x7313fc",
          "transactionHash": "0x5cc54818c4b03c8081eb6ddf2ee251e808d64dfeed7222db89364465fcc3358f",
          "transactionIndex": "0xda",
          "logIndex": "0x16f",
          "removed": false
        }
      ],
      "logsBloom": "0x00000000000000000000000000000000000000000600000000000000000000000000000000000000000000000000000000000000000000004000000000000000000000000000004000000008000000000000000000000000000000000000000000000000020000000000000000000800020000000000000000000010000000000000000000000000000000000000000000000000000000000000010000000000000000000000000000000000000000004000000000000000000000000000000000000002000000800000000000000000000000000000080000000000000020000000000000000000000000000000000000000000000000000000000000000000",
      "type": "0x2",
      "transactionHash": "0x5cc54818c4b03c8081eb6ddf2ee251e808d64dfeed7222db89364465fcc3358f",
      "transactionIndex": "0xda",
      "blockHash": "0x67133286c085ba1feceea273fbdacc97750d566b5d993351799a815a9a21e186",
      "blockNumber": "0x7313fc",
      "gasUsed": "0xf844",
      "effectiveGasPrice": "0x778cee1b",
      "from": "0xc77f7fed3b5cc8249adc428c5f44c9063b9734b4",
      "to": "0x8aafd3ede9adb0ff97c7aebce82a919afb1c8764",
      "contractAddress": null
    }
  ],
  "libraries": [],
  "pending": [],
  "returns": {},
  "timestamp": 1737485437,
  "chain": 11155111,
  "commit": "51a374b"
}