{
  "transactions": [
    {
      "hash": "0xcb62264d090f14eb1f72f883ab80f949a64b605fe69476e01670db421ecac93b",
      "transactionType": "CALL",
      "contractName": null,
      "contractAddress": "0x8aafd3ede9adb0ff97c7aebce82a919afb1c8764",
      "function": "sell(uint256)",
      "arguments": [
        "10771811944382252"
      ],
      "transaction": {
        "from": "0xc77f7fed3b5cc8249adc428c5f44c9063b9734b4",
        "to": "0x8aafd3ede9adb0ff97c7aebce82a919afb1c8764",
        "gas": "0x1724d",
        "value": "0x0",
        "input": "0xe4849b32000000000000000000000000000000000000000000000000002644e7e8883f2c",
        "nonce": "0x1657",
        "chainId": "0xaa36a7"
      },
      "additionalContracts": [],
      "isFixedGasLimit": false
    }
  ],
  "receipts": [
    {
      "status": "0x1",
      "cumulativeGasUsed": "0x13ecd71",
      "logs": [
        {
          "address": "0x8aafd3ede9adb0ff97c7aebce82a919afb1c8764",
          "topics": [
            "0xddf252ad1be2c89b69c2b068fc378daa952ba7f163c4a11628f55a4df523b3ef",
            "0x000000000000000000000000c77f7fed3b5cc8249adc428c5f44c9063b9734b4",
            "0x0000000000000000000000000000000000000000000000000000000000000000"
          ],
          "data": "0x0000000000000000000000000000000000000000000000000025f687d856013a",
          "blockHash": "0xad0885ba75cde2477b8072613404e619924ba881e928da721d6f5def59016b14",
          "blockNumber": "0x731df6",
          "transactionHash": "0xcb62264d090f14eb1f72f883ab80f949a64b605fe69476e01670db421ecac93b",
          "transactionIndex": "0xac",
          "logIndex": "0x150",
          "removed": false
        },
        {
          "address": "0x8aafd3ede9adb0ff97c7aebce82a919afb1c8764",
          "topics": [
            "0xddf252ad1be2c89b69c2b068fc378daa952ba7f163c4a11628f55a4df523b3ef",
            "0x000000000000000000000000c77f7fed3b5cc8249adc428c5f44c9063b9734b4",
            "0x000000000000000000000000c77f7fed3b5cc8249adc428c5f44c9063b9734b4"
          ],
          "data": "0x00000000000000000000000000000000000000000000000000004e6010323df2",
          "blockHash": "0xad0885ba75cde2477b8072613404e619924ba881e928da721d6f5def59016b14",
          "blockNumber": "0x731df6",
          "transactionHash": "0xcb62264d090f14eb1f72f883ab80f949a64b605fe69476e01670db421ecac93b",
          "transactionIndex": "0xac",
          "logIndex": "0x151",
          "removed": false
        },
        {
          "address": "0x8aafd3ede9adb0ff97c7aebce82a919afb1c8764",
          "topics": [
            "0x4afcb4a87cdbd9974efdb92ee48bc8d7cd0ae4bf217004db3d080cbaee652ca7"
          ],
          "data": "0x0000000000000000000000000000000000000000000000000000000067906470000000000000000000000000000000000000000000000000001510b68c342a9800000000000000000000000000000000000000000000000000003a16dae156ba",
          "blockHash": "0xad0885ba75cde2477b8072613404e619924ba881e928da721d6f5def59016b14",
          "blockNumber": "0x731df6",
          "transactionHash": "0xcb62264d090f14eb1f72f883ab80f949a64b605fe69476e01670db421ecac93b",
          "transactionIndex": "0xac",
          "logIndex": "0x152",
          "removed": false
        }
      ],
      "logsBloom": "0x00000000000000000000000000000000000000000600000000000000000000000000000000000000000000000000000000000000000000004000000000000000000000000000004000000008000000000000000000000000000000000000000000000000020000000000000000000800020000000000000000000010000000000000000000000000000000000000000000000000000000000000010000000000000000000000000000000000000000004000000000000000000000000000000000000002000000800000000000000000000000000000080000000000000020000000000000000000000000000000000000000000000000000000000000000000",
      "type": "0x2",
      "transactionHash": "0xcb62264d090f14eb1f72f883ab80f949a64b605fe69476e01670db421ecac93b",
      "transactionIndex": "0xac",
      "blockHash": "0xad0885ba75cde2477b8072613404e619924ba881e928da721d6f5def59016b14",
      "blockNumber": "0x731df6",
      "gasUsed": "0xfd33",
      "effectiveGasPrice": "0x4e901d80",
      "from": "0xc77f7fed3b5cc8249adc428c5f44c9063b9734b4",
      "to": "0x8aafd3ede9adb0ff97c7aebce82a919afb1c8764",
      "contractAddress": null
    }
  ],
  "libraries": [],
  "pending": [],
  "returns": {},
  "timestamp": 1737516145,
  "chain": 11155111,
  "commit": "1d2fb70"
}