{
  "transactions": [
    {
      "hash": "0x9b166ea446dd63df9a748d24df6999823e2f3804e285e8bbe3d5041969e3c424",
      "transactionType": "CALL",
      "contractName": null,
      "contractAddress": "0xbf4a322f1496e5c3d34a9bcdb4c60567b38c7de2",
      "function": "sell(uint256)",
      "arguments": [
        "975202740730205497162"
      ],
      "transaction": {
        "from": "0xc77f7fed3b5cc8249adc428c5f44c9063b9734b4",
        "to": "0xbf4a322f1496e5c3d34a9bcdb4c60567b38c7de2",
        "gas": "0x16fea",
        "value": "0x0",
        "input": "0xe4849b32000000000000000000000000000000000000000000000034dda81dd93b42e74a",
        "nonce": "0xd7f",
        "chainId": "0xaa36a7"
      },
      "additionalContracts": [],
      "isFixedGasLimit": false
    }
  ],
  "receipts": [
    {
      "status": "0x1",
      "cumulativeGasUsed": "0xc4d9dc",
      "logs": [
        {
          "address": "0xbf4a322f1496e5c3d34a9bcdb4c60567b38c7de2",
          "topics": [
            "0xddf252ad1be2c89b69c2b068fc378daa952ba7f163c4a11628f55a4df523b3ef",
            "0x000000000000000000000000c77f7fed3b5cc8249adc428c5f44c9063b9734b4",
            "0x0000000000000000000000000000000000000000000000000000000000000000"
          ],
          "data": "0x000000000000000000000000000000000000000000000034dda81dd93b42e74a",
          "blockHash": "0xbf1b374bbe721cd208ded090da3176df81b720ce084f88fc2640bcbfb8d5ba79",
          "blockNumber": "0x72664e",
          "transactionHash": "0x9b166ea446dd63df9a748d24df6999823e2f3804e285e8bbe3d5041969e3c424",
          "transactionIndex": "0x5e",
          "logIndex": "0xad",
          "removed": false
        },
        {
          "address": "0xbf4a322f1496e5c3d34a9bcdb4c60567b38c7de2",
          "topics": [
            "0x4afcb4a87cdbd9974efdb92ee48bc8d7cd0ae4bf217004db3d080cbaee652ca7"
          ],
          "data": "0x000000000000000000000000000000000000000000000000000000006787be5800000000000000000000000000000000000000000000000000039e1ef0565f610000000000000000000000000000000000000000000000000dc7e3d6e9973140",
          "blockHash": "0xbf1b374bbe721cd208ded090da3176df81b720ce084f88fc2640bcbfb8d5ba79",
          "blockNumber": "0x72664e",
          "transactionHash": "0x9b166ea446dd63df9a748d24df6999823e2f3804e285e8bbe3d5041969e3c424",
          "transactionIndex": "0x5e",
          "logIndex": "0xae",
          "removed": false
        }
      ],
      "logsBloom": "0x00000000000000000000000000000000000000000000000000000000000000000000000000000000000000000000000000000000000000004000000000000000000000000000000000000008000000000000001000000000000000000000000000000000020000000000000000000800020000000000000000000010000000000000000000000000000000000000000000000000000008000000010000000000000000000000000000000000000000004000000000000000000000000000000000000002000000800000000000001000000000000000080000000000000020000000000000000000000000000000000000000000000000000000000000000000",
      "type": "0x2",
      "transactionHash": "0x9b166ea446dd63df9a748d24df6999823e2f3804e285e8bbe3d5041969e3c424",
      "transactionIndex": "0x5e",
      "blockHash": "0xbf1b374bbe721cd208ded090da3176df81b720ce084f88fc2640bcbfb8d5ba79",
      "blockNumber": "0x72664e",
      "gasUsed": "0xfb91",
      "effectiveGasPrice": "0x8e38d12c",
      "from": "0xc77f7fed3b5cc8249adc428c5f44c9063b9734b4",
      "to": "0xbf4a322f1496e5c3d34a9bcdb4c60567b38c7de2",
      "contractAddress": null
    }
  ],
  "libraries": [],
  "pending": [],
  "returns": {},
  "timestamp": 1736949337,
  "chain": 11155111,
  "commit": "51a374b"
}