{
  "transactions": [
    {
      "hash": "0xbf4414eb4eef45c63a8cd25e92b1c93cca3fb608e038ad3f564b6c670423d51f",
      "transactionType": "CALL",
      "contractName": null,
      "contractAddress": "0x5eb9cc76c3506942c1c0ead70e877dd5e4f00cb0",
      "function": "buy(address)",
      "arguments": [
        "0xC77f7fed3b5Cc8249aDc428c5F44C9063B9734b4"
      ],
      "transaction": {
        "from": "0xc77f7fed3b5cc8249adc428c5f44c9063b9734b4",
        "to": "0x5eb9cc76c3506942c1c0ead70e877dd5e4f00cb0",
        "gas": "0x156c8",
        "value": "0xde0b6b3a7640000",
        "input": "0xf088d547000000000000000000000000c77f7fed3b5cc8249adc428c5f44c9063b9734b4",
        "nonce": "0x203",
        "chainId": "0xaa36a7"
      },
      "additionalContracts": [],
      "isFixedGasLimit": false
    }
  ],
  "receipts": [
    {
      "status": "0x1",
      "cumulativeGasUsed": "0x1773a27",
      "logs": [
        {
          "address": "0x5eb9cc76c3506942c1c0ead70e877dd5e4f00cb0",
          "topics": [
            "0xddf252ad1be2c89b69c2b068fc378daa952ba7f163c4a11628f55a4df523b3ef",
            "0x0000000000000000000000000000000000000000000000000000000000000000",
            "0x000000000000000000000000c77f7fed3b5cc8249adc428c5f44c9063b9734b4"
          ],
          "data": "0x00000000000000000000000000000000000000000000003584bbc95585a1d79c",
          "blockHash": "0xa304c53381b68a2b3c9e6a6f24c2bc550846ab5712fac0a0013689442566c268",
          "blockNumber": "0x724b1e",
          "transactionHash": "0xbf4414eb4eef45c63a8cd25e92b1c93cca3fb608e038ad3f564b6c670423d51f",
          "transactionIndex": "0x79",
          "logIndex": "0xc2",
          "removed": false
        },
        {
          "address": "0x5eb9cc76c3506942c1c0ead70e877dd5e4f00cb0",
          "topics": [
            "0xddf252ad1be2c89b69c2b068fc378daa952ba7f163c4a11628f55a4df523b3ef",
            "0x0000000000000000000000000000000000000000000000000000000000000000",
            "0x000000000000000000000000c77f7fed3b5cc8249adc428c5f44c9063b9734b4"
          ],
          "data": "0x000000000000000000000000000000000000000000000000298f1640b23b4e3c",
          "blockHash": "0xa304c53381b68a2b3c9e6a6f24c2bc550846ab5712fac0a0013689442566c268",
          "blockNumber": "0x724b1e",
          "transactionHash": "0xbf4414eb4eef45c63a8cd25e92b1c93cca3fb608e038ad3f564b6c670423d51f",
          "transactionIndex": "0x79",
          "logIndex": "0xc3",
          "removed": false
        },
        {
          "address": "0x5eb9cc76c3506942c1c0ead70e877dd5e4f00cb0",
          "topics": [
            "0x4afcb4a87cdbd9974efdb92ee48bc8d7cd0ae4bf217004db3d080cbaee652ca7"
          ],
          "data": "0x000000000000000000000000000000000000000000000000000000006786771000000000000000000000000000000000000000000000000000039009240b87d60000000000000000000000000000000000000000000000000de0b6b3a7640000",
          "blockHash": "0xa304c53381b68a2b3c9e6a6f24c2bc550846ab5712fac0a0013689442566c268",
          "blockNumber": "0x724b1e",
          "transactionHash": "0xbf4414eb4eef45c63a8cd25e92b1c93cca3fb608e038ad3f564b6c670423d51f",
          "transactionIndex": "0x79",
          "logIndex": "0xc4",
          "removed": false
        }
      ],
      "logsBloom": "0x00000000000000000000000000000000000000000000000000000000000000000000000000000000000000000000000000000000000000004000000000000000000000000000000000000008000000000000000000000000000000000000000000000000020000000000000004000800020000000000000000000010000000000000000000000000000000000000000000000000000000000000010000000000000000000000000000000000000000004000000000000000000000000000020000000002000000800000008000000000000000000000080000000000000020000000000000000000000000000000000000000000000000000000000000000000",
      "type": "0x2",
      "transactionHash": "0xbf4414eb4eef45c63a8cd25e92b1c93cca3fb608e038ad3f564b6c670423d51f",
      "transactionIndex": "0x79",
      "blockHash": "0xa304c53381b68a2b3c9e6a6f24c2bc550846ab5712fac0a0013689442566c268",
      "blockNumber": "0x724b1e",
      "gasUsed": "0xf82c",
      "effectiveGasPrice": "0x564f66648",
      "from": "0xc77f7fed3b5cc8249adc428c5f44c9063b9734b4",
      "to": "0x5eb9cc76c3506942c1c0ead70e877dd5e4f00cb0",
      "contractAddress": null
    }
  ],
  "libraries": [],
  "pending": [],
  "returns": {},
  "timestamp": 1736865554,
  "chain": 11155111,
  "commit": "51a374b"
}