{
  "transactions": [
    {
      "hash": "0x515df26d2e2338f812e66ef0b8baa126bf321fba590ecf3160b9210db081df81",
      "transactionType": "CALL",
      "contractName": null,
      "contractAddress": "0x8aafd3ede9adb0ff97c7aebce82a919afb1c8764",
      "function": "sell(uint256)",
      "arguments": [
        "50114811"
      ],
      "transaction": {
        "from": "0xc77f7fed3b5cc8249adc428c5f44c9063b9734b4",
        "to": "0x8aafd3ede9adb0ff97c7aebce82a919afb1c8764",
        "gas": "0x15d88",
        "value": "0x0",
        "input": "0xe4849b320000000000000000000000000000000000000000000000000000000002fcb0fb",
        "nonce": "0x1583",
        "chainId": "0xaa36a7"
      },
      "additionalContracts": [],
      "isFixedGasLimit": false
    }
  ],
  "receipts": [
    {
      "status": "0x1",
      "cumulativeGasUsed": "0x8a9ed6",
      "logs": [
        {
          "address": "0x8aafd3ede9adb0ff97c7aebce82a919afb1c8764",
          "topics": [
            "0xddf252ad1be2c89b69c2b068fc378daa952ba7f163c4a11628f55a4df523b3ef",
            "0x000000000000000000000000c77f7fed3b5cc8249adc428c5f44c9063b9734b4",
            "0x0000000000000000000000000000000000000000000000000000000000000000"
          ],
          "data": "0x0000000000000000000000000000000000000000000000000000000002f692e5",
          "blockHash": "0x55bd8d257c2c75e9df337b827ae52a7ed9c7d108016b88a5f7437c8dd20d8984",
          "blockNumber": "0x731cee",
          "transactionHash": "0x515df26d2e2338f812e66ef0b8baa126bf321fba590ecf3160b9210db081df81",
          "transactionIndex": "0x65",
          "logIndex": "0x78",
          "removed": false
        },
        {
          "address": "0x8aafd3ede9adb0ff97c7aebce82a919afb1c8764",
          "topics": [
            "0xddf252ad1be2c89b69c2b068fc378daa952ba7f163c4a11628f55a4df523b3ef",
            "0x000000000000000000000000c77f7fed3b5cc8249adc428c5f44c9063b9734b4",
            "0x000000000000000000000000c77f7fed3b5cc8249adc428c5f44c9063b9734b4"
          ],
          "data": "0x0000000000000000000000000000000000000000000000000000000000061e16",
          "blockHash": "0x55bd8d257c2c75e9df337b827ae52a7ed9c7d108016b88a5f7437c8dd20d8984",
          "blockNumber": "0x731cee",
          "transactionHash": "0x515df26d2e2338f812e66ef0b8baa126bf321fba590ecf3160b9210db081df81",
          "transactionIndex": "0x65",
          "logIndex": "0x79",
          "removed": false
        },
        {
          "address": "0x8aafd3ede9adb0ff97c7aebce82a919afb1c8764",
          "topics": [
            "0x4afcb4a87cdbd9974efdb92ee48bc8d7cd0ae4bf217004db3d080cbaee652ca7"
          ],
          "data": "0x000000000000000000000000000000000000000000000000000000006790581000000000000000000000000000000000000000000000000000128ed158d0bcbc000000000000000000000000000000000000000000000000000000000003fe92",
          "blockHash": "0x55bd8d257c2c75e9df337b827ae52a7ed9c7d108016b88a5f7437c8dd20d8984",
          "blockNumber": "0x731cee",
          "transactionHash": "0x515df26d2e2338f812e66ef0b8baa126bf321fba590ecf3160b9210db081df81",
          "transactionIndex": "0x65",
          "logIndex": "0x7a",
          "removed": false
        }
      ],
      "logsBloom": "0x00000000000000000000000000000000000000000600000000000000000000000000000000000000000000000000000000000000000000004000000000000000000000000000004000000008000000000000000000000000000000000000000000000000020000000000000000000800020000000000000000000010000000000000000000000000000000000000000000000000000000000000010000000000000000000000000000000000000000004000000000000000000000000000000000000002000000800000000000000000000000000000080000000000000020000000000000000000000000000000000000000000000000000000000000000000",
      "type": "0x2",
      "transactionHash": "0x515df26d2e2338f812e66ef0b8baa126bf321fba590ecf3160b9210db081df81",
      "transactionIndex": "0x65",
      "blockHash": "0x55bd8d257c2c75e9df337b827ae52a7ed9c7d108016b88a5f7437c8dd20d8984",
      "blockNumber": "0x731cee",
      "gasUsed": "0xfd0f",
      "effectiveGasPrice": "0x7124d531",
      "from": "0xc77f7fed3b5cc8249adc428c5f44c9063b9734b4",
      "to": "0x8aafd3ede9adb0ff97c7aebce82a919afb1c8764",
      "contractAddress": null
    }
  ],
  "libraries": [],
  "pending": [],
  "returns": {},
  "timestamp": 1737512978,
  "chain": 11155111,
  "commit": "1d2fb70"
}