{
  "transactions": [
    {
      "hash": "0x4ba102b60f75ba485389ecaf899596118c2449bac20859f5a0e7c2640c286114",
      "transactionType": "CALL",
      "contractName": null,
      "contractAddress": "0x8aafd3ede9adb0ff97c7aebce82a919afb1c8764",
      "function": "sell(uint256)",
      "arguments": [
        "2952416167879"
      ],
      "transaction": {
        "from": "0xc77f7fed3b5cc8249adc428c5f44c9063b9734b4",
        "to": "0x8aafd3ede9adb0ff97c7aebce82a919afb1c8764",
        "gas": "0x15daa",
        "value": "0x0",
        "input": "0xe4849b32000000000000000000000000000000000000000000000000000002af69b787c7",
        "nonce": "0xfff",
        "chainId": "0xaa36a7"
      },
      "additionalContracts": [],
      "isFixedGasLimit": false
    }
  ],
  "receipts": [
    {
      "status": "0x1",
      "cumulativeGasUsed": "0xf4214e",
      "logs": [
        {
          "address": "0x8aafd3ede9adb0ff97c7aebce82a919afb1c8764",
          "topics": [
            "0xddf252ad1be2c89b69c2b068fc378daa952ba7f163c4a11628f55a4df523b3ef",
            "0x000000000000000000000000c77f7fed3b5cc8249adc428c5f44c9063b9734b4",
            "0x0000000000000000000000000000000000000000000000000000000000000000"
          ],
          "data": "0x000000000000000000000000000000000000000000000000000002a9e9e52a88",
          "blockHash": "0x1d9c81464c6a1d2f7f8aae7126182e298cff43c86c0e5d5a09ab264ab8137120",
          "blockNumber": "0x731674",
          "transactionHash": "0x4ba102b60f75ba485389ecaf899596118c2449bac20859f5a0e7c2640c286114",
          "transactionIndex": "0x95",
          "logIndex": "0xa3",
          "removed": false
        },
        {
          "address": "0x8aafd3ede9adb0ff97c7aebce82a919afb1c8764",
          "topics": [
            "0xddf252ad1be2c89b69c2b068fc378daa952ba7f163c4a11628f55a4df523b3ef",
            "0x000000000000000000000000c77f7fed3b5cc8249adc428c5f44c9063b9734b4",
            "0x000000000000000000000000c77f7fed3b5cc8249adc428c5f44c9063b9734b4"
          ],
          "data": "0x000000000000000000000000000000000000000000000000000000057fd25d3f",
          "blockHash": "0x1d9c81464c6a1d2f7f8aae7126182e298cff43c86c0e5d5a09ab264ab8137120",
          "blockNumber": "0x731674",
          "transactionHash": "0x4ba102b60f75ba485389ecaf899596118c2449bac20859f5a0e7c2640c286114",
          "transactionIndex": "0x95",
          "logIndex": "0xa4",
          "removed": false
        },
        {
          "address": "0x8aafd3ede9adb0ff97c7aebce82a919afb1c8764",
          "topics": [
            "0x4afcb4a87cdbd9974efdb92ee48bc8d7cd0ae4bf217004db3d080cbaee652ca7"
          ],
          "data": "0x0000000000000000000000000000000000000000000000000000000067900a1c0000000000000000000000000000000000000000000000000004e666702b521000000000000000000000000000000000000000000000000000000000f2b69bd5",
          "blockHash": "0x1d9c81464c6a1d2f7f8aae7126182e298cff43c86c0e5d5a09ab264ab8137120",
          "blockNumber": "0x731674",
          "transactionHash": "0x4ba102b60f75ba485389ecaf899596118c2449bac20859f5a0e7c2640c286114",
          "transactionIndex": "0x95",
          "logIndex": "0xa5",
          "removed": false
        }
      ],
      "logsBloom": "0x00000000000000000000000000000000000000000600000000000000000000000000000000000000000000000000000000000000000000004000000000000000000000000000004000000008000000000000000000000000000000000000000000000000020000000000000000000800020000000000000000000010000000000000000000000000000000000000000000000000000000000000010000000000000000000000000000000000000000004000000000000000000000000000000000000002000000800000000000000000000000000000080000000000000020000000000000000000000000000000000000000000000000000000000000000000",
      "type": "0x2",
      "transactionHash": "0x4ba102b60f75ba485389ecaf899596118c2449bac20859f5a0e7c2640c286114",
      "transactionIndex": "0x95",
      "blockHash": "0x1d9c81464c6a1d2f7f8aae7126182e298cff43c86c0e5d5a09ab264ab8137120",
      "blockNumber": "0x731674",
      "gasUsed": "0xfd27",
      "effectiveGasPrice": "0x3f215469",
      "from": "0xc77f7fed3b5cc8249adc428c5f44c9063b9734b4",
      "to": "0x8aafd3ede9adb0ff97c7aebce82a919afb1c8764",
      "contractAddress": null
    }
  ],
  "libraries": [],
  "pending": [],
  "returns": {},
  "timestamp": 1737493021,
  "chain": 11155111,
  "commit": "1d2fb70"
}