{
  "transactions": [
    {
      "hash": "0x8657ae8c043fa698afb252f8985eac8323e5cc48f0648285f47d68b41a039254",
      "transactionType": "CALL",
      "contractName": null,
      "contractAddress": "0x8aafd3ede9adb0ff97c7aebce82a919afb1c8764",
      "function": "sell(uint256)",
      "arguments": [
        "750341643774723271017"
      ],
      "transaction": {
        "from": "0xc77f7fed3b5cc8249adc428c5f44c9063b9734b4",
        "to": "0x8aafd3ede9adb0ff97c7aebce82a919afb1c8764",
        "gas": "0x17270",
        "value": "0x0",
        "input": "0xe4849b32000000000000000000000000000000000000000000000028ad1505885f12a969",
        "nonce": "0xe4c",
        "chainId": "0xaa36a7"
      },
      "additionalContracts": [],
      "isFixedGasLimit": false
    }
  ],
  "receipts": [
    {
      "status": "0x1",
      "cumulativeGasUsed": "0xbc2825",
      "logs": [
        {
          "address": "0x8aafd3ede9adb0ff97c7aebce82a919afb1c8764",
          "topics": [
            "0xddf252ad1be2c89b69c2b068fc378daa952ba7f163c4a11628f55a4df523b3ef",
            "0x000000000000000000000000c77f7fed3b5cc8249adc428c5f44c9063b9734b4",
            "0x0000000000000000000000000000000000000000000000000000000000000000"
          ],
          "data": "0x00000000000000000000000000000000000000000000002859c7078954128331",
          "blockHash": "0x0ed80dbe330b729b0a09f0b8dbbf63597bfac1591fb775421f7fd92c9d22ad54",
          "blockNumber": "0x73139e",
          "transactionHash": "0x8657ae8c043fa698afb252f8985eac8323e5cc48f0648285f47d68b41a039254",
          "transactionIndex": "0x8c",
          "logIndex": "0xc9",
          "removed": false
        },
        {
          "address": "0x8aafd3ede9adb0ff97c7aebce82a919afb1c8764",
          "topics": [
            "0xddf252ad1be2c89b69c2b068fc378daa952ba7f163c4a11628f55a4df523b3ef",
            "0x000000000000000000000000c77f7fed3b5cc8249adc428c5f44c9063b9734b4",
            "0x000000000000000000000000c77f7fed3b5cc8249adc428c5f44c9063b9734b4"
          ],
          "data": "0x000000000000000000000000000000000000000000000000534dfdff0b002638",
          "blockHash": "0x0ed80dbe330b729b0a09f0b8dbbf63597bfac1591fb775421f7fd92c9d22ad54",
          "blockNumber": "0x73139e",
          "transactionHash": "0x8657ae8c043fa698afb252f8985eac8323e5cc48f0648285f47d68b41a039254",
          "transactionIndex": "0x8c",
          "logIndex": "0xca",
          "removed": false
        },
        {
          "address": "0x8aafd3ede9adb0ff97c7aebce82a919afb1c8764",
          "topics": [
            "0x4afcb4a87cdbd9974efdb92ee48bc8d7cd0ae4bf217004db3d080cbaee652ca7"
          ],
          "data": "0x00000000000000000000000000000000000000000000000000000000678fe7fc0000000000000000000000000000000000000000000000000004b40a2838db5a0000000000000000000000000000000000000000000000000dc834f077f1ebef",
          "blockHash": "0x0ed80dbe330b729b0a09f0b8dbbf63597bfac1591fb775421f7fd92c9d22ad54",
          "blockNumber": "0x73139e",
          "transactionHash": "0x8657ae8c043fa698afb252f8985eac8323e5cc48f0648285f47d68b41a039254",
          "transactionIndex": "0x8c",
          "logIndex": "0xcb",
          "removed": false
        }
      ],
      "logsBloom": "0x00000000000000000000000000000000000000000600000000000000000000000000000000000000000000000000000000000000000000004000000000000000000000000000004000000008000000000000000000000000000000000000000000000000020000000000000000000800020000000000000000000010000000000000000000000000000000000000000000000000000000000000010000000000000000000000000000000000000000004000000000000000000000000000000000000002000000800000000000000000000000000000080000000000000020000000000000000000000000000000000000000000000000000000000000000000",
      "type": "0x2",
      "transactionHash": "0x8657ae8c043fa698afb252f8985eac8323e5cc48f0648285f47d68b41a039254",
      "transactionIndex": "0x8c",
      "blockHash": "0x0ed80dbe330b729b0a09f0b8dbbf63597bfac1591fb775421f7fd92c9d22ad54",
      "blockNumber": "0x73139e",
      "gasUsed": "0xfd4b",
      "effectiveGasPrice": "0x84f0736a",
      "from": "0xc77f7fed3b5cc8249adc428c5f44c9063b9734b4",
      "to": "0x8aafd3ede9adb0ff97c7aebce82a919afb1c8764",
      "contractAddress": null
    }
  ],
  "libraries": [],
  "pending": [],
  "returns": {},
  "timestamp": 1737484287,
  "chain": 11155111,
  "commit": "51a374b"
}