{
  "transactions": [
    {
      "hash": "0xeff042bd5ae8bf3ee08b27a5ca030f0b2b395c0ec0ace261352db703696b62f3",
      "transactionType": "CALL",
      "contractName": null,
      "contractAddress": "0x8aafd3ede9adb0ff97c7aebce82a919afb1c8764",
      "function": "buy(address)",
      "arguments": [
        "0xC77f7fed3b5Cc8249aDc428c5F44C9063B9734b4"
      ],
      "transaction": {
        "from": "0xc77f7fed3b5cc8249adc428c5f44c9063b9734b4",
        "to": "0x8aafd3ede9adb0ff97c7aebce82a919afb1c8764",
        "gas": "0x156ea",
        "value": "0xde0b6b3a7640000",
        "input": "0xf088d547000000000000000000000000c77f7fed3b5cc8249adc428c5f44c9063b9734b4",
        "nonce": "0xfa2",
        "chainId": "0xaa36a7"
      },
      "additionalContracts": [],
      "isFixedGasLimit": false
    }
  ],
  "receipts": [
    {
      "status": "0x1",
      "cumulativeGasUsed": "0xdecbe7",
      "logs": [
        {
          "address": "0x8aafd3ede9adb0ff97c7aebce82a919afb1c8764",
          "topics": [
            "0xddf252ad1be2c89b69c2b068fc378daa952ba7f163c4a11628f55a4df523b3ef",
            "0x0000000000000000000000000000000000000000000000000000000000000000",
            "0x000000000000000000000000c77f7fed3b5cc8249adc428c5f44c9063b9734b4"
          ],
          "data": "0x000000000000000000000000000000000000000000000028095f6e0cce4f9756",
          "blockHash": "0xcf7f461f5d75e1f6a392763260618f0ac19a1dff2ae7dc3fb60666c8a274b2f6",
          "blockNumber": "0x73160a",
          "transactionHash": "0xeff042bd5ae8bf3ee08b27a5ca030f0b2b395c0ec0ace261352db703696b62f3",
          "transactionIndex": "0x92",
          "logIndex": "0xe0",
          "removed": false
        },
        {
          "address": "0x8aafd3ede9adb0ff97c7aebce82a919afb1c8764",
          "topics": [
            "0xddf252ad1be2c89b69c2b068fc378daa952ba7f163c4a11628f55a4df523b3ef",
            "0x0000000000000000000000000000000000000000000000000000000000000000",
            "0x000000000000000000000000c77f7fed3b5cc8249adc428c5f44c9063b9734b4"
          ],
          "data": "0x0000000000000000000000000000000000000000000000001f16fcd0ed306ce4",
          "blockHash": "0xcf7f461f5d75e1f6a392763260618f0ac19a1dff2ae7dc3fb60666c8a274b2f6",
          "blockNumber": "0x73160a",
          "transactionHash": "0xeff042bd5ae8bf3ee08b27a5ca030f0b2b395c0ec0ace261352db703696b62f3",
          "transactionIndex": "0x92",
          "logIndex": "0xe1",
          "removed": false
        },
        {
          "address": "0x8aafd3ede9adb0ff97c7aebce82a919afb1c8764",
          "topics": [
            "0x4afcb4a87cdbd9974efdb92ee48bc8d7cd0ae4bf217004db3d080cbaee652ca7"
          ],
          "data": "0x00000000000000000000000000000000000000000000000000000000679005240000000000000000000000000000000000000000000000000004c33f83db86ea0000000000000000000000000000000000000000000000000de0b6b3a7640000",
          "blockHash": "0xcf7f461f5d75e1f6a392763260618f0ac19a1dff2ae7dc3fb60666c8a274b2f6",
          "blockNumber": "0x73160a",
          "transactionHash": "0xeff042bd5ae8bf3ee08b27a5ca030f0b2b395c0ec0ace261352db703696b62f3",
          "transactionIndex": "0x92",
          "logIndex": "0xe2",
          "removed": false
        }
      ],
      "logsBloom": "0x00000000000000000000000000000000000000000600000000000000000000000000000000000000000000000000000000000000000000004000000000000000000000000000004000000008000000000000000000000000000000000000000000000000020000000000000000000800020000000000000000000010000000000000000000000000000000000000000000000000000000000000010000000000000000000000000000000000000000004000000000000000000000000000000000000002000000800000000000000000000000000000080000000000000020000000000000000000000000000000000000000000000000000000000000000000",
      "type": "0x2",
      "transactionHash": "0xeff042bd5ae8bf3ee08b27a5ca030f0b2b395c0ec0ace261352db703696b62f3",
      "transactionIndex": "0x92",
      "blockHash": "0xcf7f461f5d75e1f6a392763260618f0ac19a1dff2ae7dc3fb60666c8a274b2f6",
      "blockNumber": "0x73160a",
      "gasUsed": "0xf844",
      "effectiveGasPrice": "0x5bfff366",
      "from": "0xc77f7fed3b5cc8249adc428c5f44c9063b9734b4",
      "to": "0x8aafd3ede9adb0ff97c7aebce82a919afb1c8764",
      "contractAddress": null
    }
  ],
  "libraries": [],
  "pending": [],
  "returns": {},
  "timestamp": 1737491749,
  "chain": 11155111,
  "commit": "1d2fb70"
}