{
  "transactions": [
    {
      "hash": "0x2019f1de03c14572818ed07e44e756f75a0dd9137b0c173607b9511a0f237a68",
      "transactionType": "CALL",
      "contractName": null,
      "contractAddress": "0x8aafd3ede9adb0ff97c7aebce82a919afb1c8764",
      "function": "sell(uint256)",
      "arguments": [
        "1258297731199042901"
      ],
      "transaction": {
        "from": "0xc77f7fed3b5cc8249adc428c5f44c9063b9734b4",
        "to": "0x8aafd3ede9adb0ff97c7aebce82a919afb1c8764",
        "gas": "0x15dca",
        "value": "0x0",
        "input": "0xe4849b3200000000000000000000000000000000000000000000000011765f1ea9cc8555",
        "nonce": "0x16d4",
        "chainId": "0xaa36a7"
      },
      "additionalContracts": [],
      "isFixedGasLimit": false
    }
  ],
  "receipts": [
    {
      "status": "0x1",
      "cumulativeGasUsed": "0x18b367c",
      "logs": [
        {
          "address": "0x8aafd3ede9adb0ff97c7aebce82a919afb1c8764",
          "topics": [
            "0xddf252ad1be2c89b69c2b068fc378daa952ba7f163c4a11628f55a4df523b3ef",
            "0x000000000000000000000000c77f7fed3b5cc8249adc428c5f44c9063b9734b4",
            "0x0000000000000000000000000000000000000000000000000000000000000000"
          ],
          "data": "0x00000000000000000000000000000000000000000000000011529bcc7f7b033e",
          "blockHash": "0x4a3015941486304bbae3295d476b11a7fb073dc61084e1965b098f3e190f047a",
          "blockNumber": "0x731e90",
          "transactionHash": "0x2019f1de03c14572818ed07e44e756f75a0dd9137b0c173607b9511a0f237a68",
          "transactionIndex": "0x8e",
          "logIndex": "0xd2",
          "removed": false
        },
        {
          "address": "0x8aafd3ede9adb0ff97c7aebce82a919afb1c8764",
          "topics": [
            "0xddf252ad1be2c89b69c2b068fc378daa952ba7f163c4a11628f55a4df523b3ef",
            "0x000000000000000000000000c77f7fed3b5cc8249adc428c5f44c9063b9734b4",
            "0x000000000000000000000000c77f7fed3b5cc8249adc428c5f44c9063b9734b4"
          ],
          "data": "0x0000000000000000000000000000000000000000000000000023c3522a518217",
          "blockHash": "0x4a3015941486304bbae3295d476b11a7fb073dc61084e1965b098f3e190f047a",
          "blockNumber": "0x731e90",
          "transactionHash": "0x2019f1de03c14572818ed07e44e756f75a0dd9137b0c173607b9511a0f237a68",
          "transactionIndex": "0x8e",
          "logIndex": "0xd3",
          "removed": false
        },
        {
          "address": "0x8aafd3ede9adb0ff97c7aebce82a919afb1c8764",
          "topics": [
            "0x4afcb4a87cdbd9974efdb92ee48bc8d7cd0ae4bf217004db3d080cbaee652ca7"
          ],
          "data": "0x0000000000000000000000000000000000000000000000000000000067906ba8000000000000000000000000000000000000000000000000001688d2b1f2c3d8000000000000000000000000000000000000000000000000001c5ab218dd155c",
          "blockHash": "0x4a3015941486304bbae3295d476b11a7fb073dc61084e1965b098f3e190f047a",
          "blockNumber": "0x731e90",
          "transactionHash": "0x2019f1de03c14572818ed07e44e756f75a0dd9137b0c173607b9511a0f237a68",
          "transactionIndex": "0x8e",
          "logIndex": "0xd4",
          "removed": false
        }
      ],
      "logsBloom": "0x00000000000000000000000000000000000000000600000000000000000000000000000000000000000000000000000000000000000000004000000000000000000000000000004000000008000000000000000000000000000000000000000000000000020000000000000000000800020000000000000000000010000000000000000000000000000000000000000000000000000000000000010000000000000000000000000000000000000000004000000000000000000000000000000000000002000000800000000000000000000000000000080000000000000020000000000000000000000000000000000000000000000000000000000000000000",
      "type": "0x2",
      "transactionHash": "0x2019f1de03c14572818ed07e44e756f75a0dd9137b0c173607b9511a0f237a68",
      "transactionIndex": "0x8e",
      "blockHash": "0x4a3015941486304bbae3295d476b11a7fb073dc61084e1965b098f3e190f047a",
      "blockNumber": "0x731e90",
      "gasUsed": "0xfd3f",
      "effectiveGasPrice": "0x412f4e1d",
      "from": "0xc77f7fed3b5cc8249adc428c5f44c9063b9734b4",
      "to": "0x8aafd3ede9adb0ff97c7aebce82a919afb1c8764",
      "contractAddress": null
    }
  ],
  "libraries": [],
  "pending": [],
  "returns": {},
  "timestamp": 1737517992,
  "chain": 11155111,
  "commit": "1d2fb70"
}