{
  "transactions": [
    {
      "hash": "0x41f3b52efb497bc77c9a6837c8f0f9712c5f052508c71deec99cbc8c7c610423",
      "transactionType": "CALL",
      "contractName": null,
      "contractAddress": "0x270e88f8683660553e8ba4eb2ad7c91a1710d769",
      "function": "buy(address)",
      "arguments": [
        "0xC77f7fed3b5Cc8249aDc428c5F44C9063B9734b4"
      ],
      "transaction": {
        "from": "0xc77f7fed3b5cc8249adc428c5f44c9063b9734b4",
        "to": "0x270e88f8683660553e8ba4eb2ad7c91a1710d769",
        "gas": "0x1b30c",
        "value": "0xde0b6b3a7640000",
        "input": "0xf088d547000000000000000000000000c77f7fed3b5cc8249adc428c5f44c9063b9734b4",
        "nonce": "0x6ef",
        "chainId": "0xaa36a7"
      },
      "additionalContracts": [],
      "isFixedGasLimit": false
    }
  ],
  "receipts": [
    {
      "status": "0x1",
      "cumulativeGasUsed": "0x13f921e",
      "logs": [
        {
          "address": "0x270e88f8683660553e8ba4eb2ad7c91a1710d769",
          "topics": [
            "0xddf252ad1be2c89b69c2b068fc378daa952ba7f163c4a11628f55a4df523b3ef",
            "0x0000000000000000000000000000000000000000000000000000000000000000",
            "0x000000000000000000000000c77f7fed3b5cc8249adc428c5f44c9063b9734b4"
          ],
          "data": "0x0000000000000000000000000000000000000000000000285bc63dc27857abb4",
          "blockHash": "0x33bfbc309dc55bd22fa621d7af76864e2d13e60c0382fda1b36bb0b44000125f",
          "blockNumber": "0x725403",
          "transactionHash": "0x41f3b52efb497bc77c9a6837c8f0f9712c5f052508c71deec99cbc8c7c610423",
          "transactionIndex": "0x52",
          "logIndex": "0x8d",
          "removed": false
        },
        {
          "address": "0x270e88f8683660553e8ba4eb2ad7c91a1710d769",
          "topics": [
            "0xddf252ad1be2c89b69c2b068fc378daa952ba7f163c4a11628f55a4df523b3ef",
            "0x0000000000000000000000000000000000000000000000000000000000000000",
            "0x000000000000000000000000c77f7fed3b5cc8249adc428c5f44c9063b9734b4"
          ],
          "data": "0x0000000000000000000000000000000000000000000000001f56f9a81c919a20",
          "blockHash": "0x33bfbc309dc55bd22fa621d7af76864e2d13e60c0382fda1b36bb0b44000125f",
          "blockNumber": "0x725403",
          "transactionHash": "0x41f3b52efb497bc77c9a6837c8f0f9712c5f052508c71deec99cbc8c7c610423",
          "transactionIndex": "0x52",
          "logIndex": "0x8e",
          "removed": false
        },
        {
          "address": "0x270e88f8683660553e8ba4eb2ad7c91a1710d769",
          "topics": [
            "0x4afcb4a87cdbd9974efdb92ee48bc8d7cd0ae4bf217004db3d080cbaee652ca7"
          ],
          "data": "0x000000000000000000000000000000000000000000000000000000006786e22c0000000000000000000000000000000000000000000000000004b988dea2911d0000000000000000000000000000000000000000000000000de0b6b3a7640000",
          "blockHash": "0x33bfbc309dc55bd22fa621d7af76864e2d13e60c0382fda1b36bb0b44000125f",
          "blockNumber": "0x725403",
          "transactionHash": "0x41f3b52efb497bc77c9a6837c8f0f9712c5f052508c71deec99cbc8c7c610423",
          "transactionIndex": "0x52",
          "logIndex": "0x8f",
          "removed": false
        }
      ],
      "logsBloom": "0x00000000000000000000000000000000000000000000000000000000000000000000000000000000000000000000000020000000000000004000000000000000000000000000000000000008000000000000000000000000000000000000000000000000020000000000000000000800020000000000000000000010000000000000000000010000000000000000000000000000000000000000010000000000000000000000000000000000000000004000000000000000000000000000000000000002000000800000000000000000000000000000080000008000000020000000000000000000000000000000000000000000000000000000000000000000",
      "type": "0x2",
      "transactionHash": "0x41f3b52efb497bc77c9a6837c8f0f9712c5f052508c71deec99cbc8c7c610423",
      "transactionIndex": "0x52",
      "blockHash": "0x33bfbc309dc55bd22fa621d7af76864e2d13e60c0382fda1b36bb0b44000125f",
      "blockNumber": "0x725403",
      "gasUsed": "0x13af8",
      "effectiveGasPrice": "0x145a47dc2",
      "from": "0xc77f7fed3b5cc8249adc428c5f44c9063b9734b4",
      "to": "0x270e88f8683660553e8ba4eb2ad7c91a1710d769",
      "contractAddress": null
    }
  ],
  "libraries": [],
  "pending": [],
  "returns": {},
  "timestamp": 1736892973,
  "chain": 11155111,
  "commit": "51a374b"
}