{
  "transactions": [
    {
      "hash": "0x790e45ef070c35e361bda09b9bf1341435188bf19f714843428be8133bc654f2",
      "transactionType": "CALL",
      "contractName": null,
      "contractAddress": "0x270e88f8683660553e8ba4eb2ad7c91a1710d769",
      "function": "sell(uint256)",
      "arguments": [
        "716208073307982885759"
      ],
      "transaction": {
        "from": "0xc77f7fed3b5cc8249adc428c5f44c9063b9734b4",
        "to": "0x270e88f8683660553e8ba4eb2ad7c91a1710d769",
        "gas": "0x16fec",
        "value": "0x0",
        "input": "0xe4849b32000000000000000000000000000000000000000000000026d362380a653f737f",
        "nonce": "0x850",
        "chainId": "0xaa36a7"
      },
      "additionalContracts": [],
      "isFixedGasLimit": false
    }
  ],
  "receipts": [
    {
      "status": "0x1",
      "cumulativeGasUsed": "0xb705d8",
      "logs": [
        {
          "address": "0x270e88f8683660553e8ba4eb2ad7c91a1710d769",
          "topics": [
            "0xddf252ad1be2c89b69c2b068fc378daa952ba7f163c4a11628f55a4df523b3ef",
            "0x000000000000000000000000c77f7fed3b5cc8249adc428c5f44c9063b9734b4",
            "0x0000000000000000000000000000000000000000000000000000000000000000"
          ],
          "data": "0x000000000000000000000000000000000000000000000026d362380a653f737f",
          "blockHash": "0xdb1f9ec2e63ac559a566941c70fc8109c6985f6af62943dbe77268c5bd5a9fe3",
          "blockNumber": "0x7255a1",
          "transactionHash": "0x790e45ef070c35e361bda09b9bf1341435188bf19f714843428be8133bc654f2",
          "transactionIndex": "0x6a",
          "logIndex": "0x9c",
          "removed": false
        },
        {
          "address": "0x270e88f8683660553e8ba4eb2ad7c91a1710d769",
          "topics": [
            "0x4afcb4a87cdbd9974efdb92ee48bc8d7cd0ae4bf217004db3d080cbaee652ca7"
          ],
          "data": "0x000000000000000000000000000000000000000000000000000000006786f5940000000000000000000000000000000000000000000000000004ed485a97e4120000000000000000000000000000000000000000000000000dc82609600a27ca",
          "blockHash": "0xdb1f9ec2e63ac559a566941c70fc8109c6985f6af62943dbe77268c5bd5a9fe3",
          "blockNumber": "0x7255a1",
          "transactionHash": "0x790e45ef070c35e361bda09b9bf1341435188bf19f714843428be8133bc654f2",
          "transactionIndex": "0x6a",
          "logIndex": "0x9d",
          "removed": false
        }
      ],
      "logsBloom": "0x00000000000000000000000000000000000000000000000000000000000000000000000000000000000000000000000020000000000000004000000000000000000000000000000000000008000000000000000000000000000000000000000000000000020000000000000000000800020000000000000000000010000000000000000000010000000000000000000000000000000000000000010000000000000000000000000000000000000000004000000000000000000000000000000000000002000000800000000000000000000000000000080000008000000020000000000000000000000000000000000000000000000000000000000000000000",
      "type": "0x2",
      "transactionHash": "0x790e45ef070c35e361bda09b9bf1341435188bf19f714843428be8133bc654f2",
      "transactionIndex": "0x6a",
      "blockHash": "0xdb1f9ec2e63ac559a566941c70fc8109c6985f6af62943dbe77268c5bd5a9fe3",
      "blockNumber": "0x7255a1",
      "gasUsed": "0xfb93",
      "effectiveGasPrice": "0x61fb1d43",
      "from": "0xc77f7fed3b5cc8249adc428c5f44c9063b9734b4",
      "to": "0x270e88f8683660553e8ba4eb2ad7c91a1710d769",
      "contractAddress": null
    }
  ],
  "libraries": [],
  "pending": [],
  "returns": {},
  "timestamp": 1736897941,
  "chain": 11155111,
  "commit": "51a374b"
}