{
  "transactions": [
    {
      "hash": "0x0fae8dbc126af39a1cbf53be2ae94ede5e626f87de42c3df6d7f99d8f4709f14",
      "transactionType": "CALL",
      "contractName": null,
      "contractAddress": "0x8aafd3ede9adb0ff97c7aebce82a919afb1c8764",
      "function": "sell(uint256)",
      "arguments": [
        "52480912"
      ],
      "transaction": {
        "from": "0xc77f7fed3b5cc8249adc428c5f44c9063b9734b4",
        "to": "0x8aafd3ede9adb0ff97c7aebce82a919afb1c8764",
        "gas": "0x15d88",
        "value": "0x0",
        "input": "0xe4849b32000000000000000000000000000000000000000000000000000000000320cb90",
        "nonce": "0x153b",
        "chainId": "0xaa36a7"
      },
      "additionalContracts": [],
      "isFixedGasLimit": false
    }
  ],
  "receipts": [
    {
      "status": "0x1",
      "cumulativeGasUsed": "0xd280a0",
      "logs": [
        {
          "address": "0x8aafd3ede9adb0ff97c7aebce82a919afb1c8764",
          "topics": [
            "0xddf252ad1be2c89b69c2b068fc378daa952ba7f163c4a11628f55a4df523b3ef",
            "0x000000000000000000000000c77f7fed3b5cc8249adc428c5f44c9063b9734b4",
            "0x0000000000000000000000000000000000000000000000000000000000000000"
          ],
          "data": "0x00000000000000000000000000000000000000000000000000000000031a6389",
          "blockHash": "0x2d0b96d9b6c2a7cdea6c9d1c788dcb5d2ce905e6d3682448f8eff3bc04332b63",
          "blockNumber": "0x731c9f",
          "transactionHash": "0x0fae8dbc126af39a1cbf53be2ae94ede5e626f87de42c3df6d7f99d8f4709f14",
          "transactionIndex": "0x8a",
          "logIndex": "0xce",
          "removed": false
        },
        {
          "address": "0x8aafd3ede9adb0ff97c7aebce82a919afb1c8764",
          "topics": [
            "0xddf252ad1be2c89b69c2b068fc378daa952ba7f163c4a11628f55a4df523b3ef",
            "0x000000000000000000000000c77f7fed3b5cc8249adc428c5f44c9063b9734b4",
            "0x000000000000000000000000c77f7fed3b5cc8249adc428c5f44c9063b9734b4"
          ],
          "data": "0x0000000000000000000000000000000000000000000000000000000000066807",
          "blockHash": "0x2d0b96d9b6c2a7cdea6c9d1c788dcb5d2ce905e6d3682448f8eff3bc04332b63",
          "blockNumber": "0x731c9f",
          "transactionHash": "0x0fae8dbc126af39a1cbf53be2ae94ede5e626f87de42c3df6d7f99d8f4709f14",
          "transactionIndex": "0x8a",
          "logIndex": "0xcf",
          "removed": false
        },
        {
          "address": "0x8aafd3ede9adb0ff97c7aebce82a919afb1c8764",
          "topics": [
            "0x4afcb4a87cdbd9974efdb92ee48bc8d7cd0ae4bf217004db3d080cbaee652ca7"
          ],
          "data": "0x00000000000000000000000000000000000000000000000000000000679054500000000000000000000000000000000000000000000000000011b9c4562d0572000000000000000000000000000000000000000000000000000000000003fed4",
          "blockHash": "0x2d0b96d9b6c2a7cdea6c9d1c788dcb5d2ce905e6d3682448f8eff3bc04332b63",
          "blockNumber": "0x731c9f",
          "transactionHash": "0x0fae8dbc126af39a1cbf53be2ae94ede5e626f87de42c3df6d7f99d8f4709f14",
          "transactionIndex": "0x8a",
          "logIndex": "0xd0",
          "removed": false
        }
      ],
      "logsBloom": "0x00000000000000000000000000000000000000000600000000000000000000000000000000000000000000000000000000000000000000004000000000000000000000000000004000000008000000000000000000000000000000000000000000000000020000000000000000000800020000000000000000000010000000000000000000000000000000000000000000000000000000000000010000000000000000000000000000000000000000004000000000000000000000000000000000000002000000800000000000000000000000000000080000000000000020000000000000000000000000000000000000000000000000000000000000000000",
      "type": "0x2",
      "transactionHash": "0x0fae8dbc126af39a1cbf53be2ae94ede5e626f87de42c3df6d7f99d8f4709f14",
      "transactionIndex": "0x8a",
      "blockHash": "0x2d0b96d9b6c2a7cdea6c9d1c788dcb5d2ce905e6d3682448f8eff3bc04332b63",
      "blockNumber": "0x731c9f",
      "gasUsed": "0xfd0f",
      "effectiveGasPrice": "0x107d9c445",
      "from": "0xc77f7fed3b5cc8249adc428c5f44c9063b9734b4",
      "to": "0x8aafd3ede9adb0ff97c7aebce82a919afb1c8764",
      "contractAddress": null
    }
  ],
  "libraries": [],
  "pending": [],
  "returns": {},
  "timestamp": 1737512017,
  "chain": 11155111,
  "commit": "1d2fb70"
}