{
  "transactions": [
    {
      "hash": "0x1fdb58551251f043ac8a01246e41e998509f7a0ae4daee75c55b4357835cf7f6",
      "transactionType": "CALL",
      "contractName": null,
      "contractAddress": "0x8aafd3ede9adb0ff97c7aebce82a919afb1c8764",
      "function": "sell(uint256)",
      "arguments": [
        "47435783160034343"
      ],
      "transaction": {
        "from": "0xc77f7fed3b5cc8249adc428c5f44c9063b9734b4",
        "to": "0x8aafd3ede9adb0ff97c7aebce82a919afb1c8764",
        "gas": "0x1724d",
        "value": "0x0",
        "input": "0xe4849b3200000000000000000000000000000000000000000000000000a88697ece57427",
        "nonce": "0xf91",
        "chainId": "0xaa36a7"
      },
      "additionalContracts": [],
      "isFixedGasLimit": false
    }
  ],
  "receipts": [
    {
      "status": "0x1",
      "cumulativeGasUsed": "0xf3e988",
      "logs": [
        {
          "address": "0x8aafd3ede9adb0ff97c7aebce82a919afb1c8764",
          "topics": [
            "0xddf252ad1be2c89b69c2b068fc378daa952ba7f163c4a11628f55a4df523b3ef",
            "0x000000000000000000000000c77f7fed3b5cc8249adc428c5f44c9063b9734b4",
            "0x0000000000000000000000000000000000000000000000000000000000000000"
          ],
          "data": "0x00000000000000000000000000000000000000000000000000a72d73e4db6d15",
          "blockHash": "0xcfe4f9e6cbe81f4cb7f1b8846d038fc8364e884df6f6a8b2148b3f6c3d75652a",
          "blockNumber": "0x7315f6",
          "transactionHash": "0x1fdb58551251f043ac8a01246e41e998509f7a0ae4daee75c55b4357835cf7f6",
          "transactionIndex": "0x91",
          "logIndex": "0x102",
          "removed": false
        },
        {
          "address": "0x8aafd3ede9adb0ff97c7aebce82a919afb1c8764",
          "topics": [
            "0xddf252ad1be2c89b69c2b068fc378daa952ba7f163c4a11628f55a4df523b3ef",
            "0x000000000000000000000000c77f7fed3b5cc8249adc428c5f44c9063b9734b4",
            "0x000000000000000000000000c77f7fed3b5cc8249adc428c5f44c9063b9734b4"
          ],
          "data": "0x00000000000000000000000000000000000000000000000000015924080a0712",
          "blockHash": "0xcfe4f9e6cbe81f4cb7f1b8846d038fc8364e884df6f6a8b2148b3f6c3d75652a",
          "blockNumber": "0x7315f6",
          "transactionHash": "0x1fdb58551251f043ac8a01246e41e998509f7a0ae4daee75c55b4357835cf7f6",
          "transactionIndex": "0x91",
          "logIndex": "0x103",
          "removed": false
        },
        {
          "address": "0x8aafd3ede9adb0ff97c7aebce82a919afb1c8764",
          "topics": [
            "0x4afcb4a87cdbd9974efdb92ee48bc8d7cd0ae4bf217004db3d080cbaee652ca7"
          ],
          "data": "0x00000000000000000000000000000000000000000000000000000000679004340000000000000000000000000000000000000000000000000004c2d34cf39b5b000000000000000000000000000000000000000000000000000039d0e134565f",
          "blockHash": "0xcfe4f9e6cbe81f4cb7f1b8846d038fc8364e884df6f6a8b2148b3f6c3d75652a",
          "blockNumber": "0x7315f6",
          "transactionHash": "0x1fdb58551251f043ac8a01246e41e998509f7a0ae4daee75c55b4357835cf7f6",
          "transactionIndex": "0x91",
          "logIndex": "0x104",
          "removed": false
        }
      ],
      "logsBloom": "0x00000000000000000000000000000000000000000600000000000000000000000000000000000000000000000000000000000000000000004000000000000000000000000000004000000008000000000000000000000000000000000000000000000000020000000000000000000800020000000000000000000010000000000000000000000000000000000000000000000000000000000000010000000000000000000000000000000000000000004000000000000000000000000000000000000002000000800000000000000000000000000000080000000000000020000000000000000000000000000000000000000000000000000000000000000000",
      "type": "0x2",
      "transactionHash": "0x1fdb58551251f043ac8a01246e41e998509f7a0ae4daee75c55b4357835cf7f6",
      "transactionIndex": "0x91",
      "blockHash": "0xcfe4f9e6cbe81f4cb7f1b8846d038fc8364e884df6f6a8b2148b3f6c3d75652a",
      "blockNumber": "0x7315f6",
      "gasUsed": "0xfd33",
      "effectiveGasPrice": "0x6783af40",
      "from": "0xc77f7fed3b5cc8249adc428c5f44c9063b9734b4",
      "to": "0x8aafd3ede9adb0ff97c7aebce82a919afb1c8764",
      "contractAddress": null
    }
  ],
  "libraries": [],
  "pending": [],
  "returns": {},
  "timestamp": 1737491509,
  "chain": 11155111,
  "commit": "1d2fb70"
}