{
  "transactions": [
    {
      "hash": "0x98deee75fff073ab21f48a38a146b36130a66f396418435eb4886a397e923b69",
      "transactionType": "CALL",
      "contractName": null,
      "contractAddress": "0x270e88f8683660553e8ba4eb2ad7c91a1710d769",
      "function": "buy(address)",
      "arguments": [
        "0xC77f7fed3b5Cc8249aDc428c5F44C9063B9734b4"
      ],
      "transaction": {
        "from": "0xc77f7fed3b5cc8249adc428c5f44c9063b9734b4",
        "to": "0x270e88f8683660553e8ba4eb2ad7c91a1710d769",
        "gas": "0x1b30c",
        "value": "0xde0b6b3a7640000",
        "input": "0xf088d547000000000000000000000000c77f7fed3b5cc8249adc428c5f44c9063b9734b4",
        "nonce": "0x841",
        "chainId": "0xaa36a7"
      },
      "additionalContracts": [],
      "isFixedGasLimit": false
    }
  ],
  "receipts": [
    {
      "status": "0x1",
      "cumulativeGasUsed": "0x1667e18",
      "logs": [
        {
          "address": "0x270e88f8683660553e8ba4eb2ad7c91a1710d769",
          "topics": [
            "0xddf252ad1be2c89b69c2b068fc378daa952ba7f163c4a11628f55a4df523b3ef",
            "0x0000000000000000000000000000000000000000000000000000000000000000",
            "0x000000000000000000000000c77f7fed3b5cc8249adc428c5f44c9063b9734b4"
          ],
          "data": "0x000000000000000000000000000000000000000000000026c577c8cca0450654",
          "blockHash": "0x762451e23d482d3d02b9f06ce6711d1dc3ba5c424c02a7984646424f8f443d7a",
          "blockNumber": "0x72558e",
          "transactionHash": "0x98deee75fff073ab21f48a38a146b36130a66f396418435eb4886a397e923b69",
          "transactionIndex": "0x61",
          "logIndex": "0x93",
          "removed": false
        },
        {
          "address": "0x270e88f8683660553e8ba4eb2ad7c91a1710d769",
          "topics": [
            "0xddf252ad1be2c89b69c2b068fc378daa952ba7f163c4a11628f55a4df523b3ef",
            "0x0000000000000000000000000000000000000000000000000000000000000000",
            "0x000000000000000000000000c77f7fed3b5cc8249adc428c5f44c9063b9734b4"
          ],
          "data": "0x0000000000000000000000000000000000000000000000001e1b76e20c6de315",
          "blockHash": "0x762451e23d482d3d02b9f06ce6711d1dc3ba5c424c02a7984646424f8f443d7a",
          "blockNumber": "0x72558e",
          "transactionHash": "0x98deee75fff073ab21f48a38a146b36130a66f396418435eb4886a397e923b69",
          "transactionIndex": "0x61",
          "logIndex": "0x94",
          "removed": false
        },
        {
          "address": "0x270e88f8683660553e8ba4eb2ad7c91a1710d769",
          "topics": [
            "0x4afcb4a87cdbd9974efdb92ee48bc8d7cd0ae4bf217004db3d080cbaee652ca7"
          ],
          "data": "0x000000000000000000000000000000000000000000000000000000006786f4b00000000000000000000000000000000000000000000000000004eb0b2a80a4270000000000000000000000000000000000000000000000000de0b6b3a7640000",
          "blockHash": "0x762451e23d482d3d02b9f06ce6711d1dc3ba5c424c02a7984646424f8f443d7a",
          "blockNumber": "0x72558e",
          "transactionHash": "0x98deee75fff073ab21f48a38a146b36130a66f396418435eb4886a397e923b69",
          "transactionIndex": "0x61",
          "logIndex": "0x95",
          "removed": false
        }
      ],
      "logsBloom": "0x00000000000000000000000000000000000000000000000000000000000000000000000000000000000000000000000020000000000000004000000000000000000000000000000000000008000000000000000000000000000000000000000000000000020000000000000000000800020000000000000000000010000000000000000000010000000000000000000000000000000000000000010000000000000000000000000000000000000000004000000000000000000000000000000000000002000000800000000000000000000000000000080000008000000020000000000000000000000000000000000000000000000000000000000000000000",
      "type": "0x2",
      "transactionHash": "0x98deee75fff073ab21f48a38a146b36130a66f396418435eb4886a397e923b69",
      "transactionIndex": "0x61",
      "blockHash": "0x762451e23d482d3d02b9f06ce6711d1dc3ba5c424c02a7984646424f8f443d7a",
      "blockNumber": "0x72558e",
      "gasUsed": "0x13af8",
      "effectiveGasPrice": "0x67adbb10",
      "from": "0xc77f7fed3b5cc8249adc428c5f44c9063b9734b4",
      "to": "0x270e88f8683660553e8ba4eb2ad7c91a1710d769",
      "contractAddress": null
    }
  ],
  "libraries": [],
  "pending": [],
  "returns": {},
  "timestamp": 1736897713,
  "chain": 11155111,
  "commit": "51a374b"
}