{
  "transactions": [
    {
      "hash": "0xa5bbdbb30dadc5474df9423ea77751a64d3276f9242ea5fb172d9d403652b928",
      "transactionType": "CALL",
      "contractName": null,
      "contractAddress": "0x270e88f8683660553e8ba4eb2ad7c91a1710d769",
      "function": "buy(address)",
      "arguments": [
        "0xC77f7fed3b5Cc8249aDc428c5F44C9063B9734b4"
      ],
      "transaction": {
        "from": "0xc77f7fed3b5cc8249adc428c5f44c9063b9734b4",
        "to": "0x270e88f8683660553e8ba4eb2ad7c91a1710d769",
        "gas": "0x1b30c",
        "value": "0xde0b6b3a7640000",
        "input": "0xf088d547000000000000000000000000c77f7fed3b5cc8249adc428c5f44c9063b9734b4",
        "nonce": "0x6b1",
        "chainId": "0xaa36a7"
      },
      "additionalContracts": [],
      "isFixedGasLimit": false
    }
  ],
  "receipts": [
    {
      "status": "0x1",
      "cumulativeGasUsed": "0x8920d1",
      "logs": [
        {
          "address": "0x270e88f8683660553e8ba4eb2ad7c91a1710d769",
          "topics": [
            "0xddf252ad1be2c89b69c2b068fc378daa952ba7f163c4a11628f55a4df523b3ef",
            "0x0000000000000000000000000000000000000000000000000000000000000000",
            "0x000000000000000000000000c77f7fed3b5cc8249adc428c5f44c9063b9734b4"
          ],
          "data": "0x000000000000000000000000000000000000000000000028a9ef09b136385d4d",
          "blockHash": "0xc327b433830a01707db4bb788fd579868c965bfa60ddf7b8a94a15e5e43b8e2a",
          "blockNumber": "0x7253ba",
          "transactionHash": "0xa5bbdbb30dadc5474df9423ea77751a64d3276f9242ea5fb172d9d403652b928",
          "transactionIndex": "0x3f",
          "logIndex": "0xac",
          "removed": false
        },
        {
          "address": "0x270e88f8683660553e8ba4eb2ad7c91a1710d769",
          "topics": [
            "0xddf252ad1be2c89b69c2b068fc378daa952ba7f163c4a11628f55a4df523b3ef",
            "0x0000000000000000000000000000000000000000000000000000000000000000",
            "0x000000000000000000000000c77f7fed3b5cc8249adc428c5f44c9063b9734b4"
          ],
          "data": "0x0000000000000000000000000000000000000000000000001f93ab2b74e2a3ae",
          "blockHash": "0xc327b433830a01707db4bb788fd579868c965bfa60ddf7b8a94a15e5e43b8e2a",
          "blockNumber": "0x7253ba",
          "transactionHash": "0xa5bbdbb30dadc5474df9423ea77751a64d3276f9242ea5fb172d9d403652b928",
          "transactionIndex": "0x3f",
          "logIndex": "0xad",
          "removed": false
        },
        {
          "address": "0x270e88f8683660553e8ba4eb2ad7c91a1710d769",
          "topics": [
            "0x4afcb4a87cdbd9974efdb92ee48bc8d7cd0ae4bf217004db3d080cbaee652ca7"
          ],
          "data": "0x000000000000000000000000000000000000000000000000000000006786dec00000000000000000000000000000000000000000000000000004b0743ce7652a0000000000000000000000000000000000000000000000000de0b6b3a7640000",
          "blockHash": "0xc327b433830a01707db4bb788fd579868c965bfa60ddf7b8a94a15e5e43b8e2a",
          "blockNumber": "0x7253ba",
          "transactionHash": "0xa5bbdbb30dadc5474df9423ea77751a64d3276f9242ea5fb172d9d403652b928",
          "transactionIndex": "0x3f",
          "logIndex": "0xae",
          "removed": false
        }
      ],
      "logsBloom": "0x00000000000000000000000000000000000000000000000000000000000000000000000000000000000000000000000020000000000000004000000000000000000000000000000000000008000000000000000000000000000000000000000000000000020000000000000000000800020000000000000000000010000000000000000000010000000000000000000000000000000000000000010000000000000000000000000000000000000000004000000000000000000000000000000000000002000000800000000000000000000000000000080000008000000020000000000000000000000000000000000000000000000000000000000000000000",
      "type": "0x2",
      "transactionHash": "0xa5bbdbb30dadc5474df9423ea77751a64d3276f9242ea5fb172d9d403652b928",
      "transactionIndex": "0x3f",
      "blockHash": "0xc327b433830a01707db4bb788fd579868c965bfa60ddf7b8a94a15e5e43b8e2a",
      "blockNumber": "0x7253ba",
      "gasUsed": "0x13af8",
      "effectiveGasPrice": "0x1b01b0268",
      "from": "0xc77f7fed3b5cc8249adc428c5f44c9063b9734b4",
      "to": "0x270e88f8683660553e8ba4eb2ad7c91a1710d769",
      "contractAddress": null
    }
  ],
  "libraries": [],
  "pending": [],
  "returns": {},
  "timestamp": 1736892098,
  "chain": 11155111,
  "commit": "51a374b"
}