{
  "transactions": [
    {
      "hash": "0xa1f943d4d823296865465ce8c45ec9c7ad6d59ce5cfe41c6a86a041517921943",
      "transactionType": "CALL",
      "contractName": null,
      "contractAddress": "0x5eb9cc76c3506942c1c0ead70e877dd5e4f00cb0",
      "function": "buy(address)",
      "arguments": [
        "0xC77f7fed3b5Cc8249aDc428c5F44C9063B9734b4"
      ],
      "transaction": {
        "from": "0xc77f7fed3b5cc8249adc428c5f44c9063b9734b4",
        "to": "0x5eb9cc76c3506942c1c0ead70e877dd5e4f00cb0",
        "gas": "0x1b30c",
        "value": "0xde0b6b3a7640000",
        "input": "0xf088d547000000000000000000000000c77f7fed3b5cc8249adc428c5f44c9063b9734b4",
        "nonce": "0x240",
        "chainId": "0xaa36a7"
      },
      "additionalContracts": [],
      "isFixedGasLimit": false
    }
  ],
  "receipts": [
    {
      "status": "0x1",
      "cumulativeGasUsed": "0xa42fb6",
      "logs": [
        {
          "address": "0x5eb9cc76c3506942c1c0ead70e877dd5e4f00cb0",
          "topics": [
            "0xddf252ad1be2c89b69c2b068fc378daa952ba7f163c4a11628f55a4df523b3ef",
            "0x0000000000000000000000000000000000000000000000000000000000000000",
            "0x000000000000000000000000c77f7fed3b5cc8249adc428c5f44c9063b9734b4"
          ],
          "data": "0x0000000000000000000000000000000000000000000000357c2a874db31a3022",
          "blockHash": "0x0cfcdd34692a6d55ced012445a0ad7441d1ee6847a979c91645120c4a0459c9c",
          "blockNumber": "0x724df7",
          "transactionHash": "0xa1f943d4d823296865465ce8c45ec9c7ad6d59ce5cfe41c6a86a041517921943",
          "transactionIndex": "0x65",
          "logIndex": "0xb4",
          "removed": false
        },
        {
          "address": "0x5eb9cc76c3506942c1c0ead70e877dd5e4f00cb0",
          "topics": [
            "0xddf252ad1be2c89b69c2b068fc378daa952ba7f163c4a11628f55a4df523b3ef",
            "0x0000000000000000000000000000000000000000000000000000000000000000",
            "0x000000000000000000000000c77f7fed3b5cc8249adc428c5f44c9063b9734b4"
          ],
          "data": "0x00000000000000000000000000000000000000000000000029886f1cf5adf7fe",
          "blockHash": "0x0cfcdd34692a6d55ced012445a0ad7441d1ee6847a979c91645120c4a0459c9c",
          "blockNumber": "0x724df7",
          "transactionHash": "0xa1f943d4d823296865465ce8c45ec9c7ad6d59ce5cfe41c6a86a041517921943",
          "transactionIndex": "0x65",
          "logIndex": "0xb5",
          "removed": false
        },
        {
          "address": "0x5eb9cc76c3506942c1c0ead70e877dd5e4f00cb0",
          "topics": [
            "0x4afcb4a87cdbd9974efdb92ee48bc8d7cd0ae4bf217004db3d080cbaee652ca7"
          ],
          "data": "0x00000000000000000000000000000000000000000000000000000000678699480000000000000000000000000000000000000000000000000003909b3b69701f0000000000000000000000000000000000000000000000000de0b6b3a7640000",
          "blockHash": "0x0cfcdd34692a6d55ced012445a0ad7441d1ee6847a979c91645120c4a0459c9c",
          "blockNumber": "0x724df7",
          "transactionHash": "0xa1f943d4d823296865465ce8c45ec9c7ad6d59ce5cfe41c6a86a041517921943",
          "transactionIndex": "0x65",
          "logIndex": "0xb6",
          "removed": false
        }
      ],
      "logsBloom": "0x00000000000000000000000000000000000000000000000000000000000000000000000000000000000000000000000000000000000000004000000000000000000000000000000000000008000000000000000000000000000000000000000000000000020000000000000004000800020000000000000000000010000000000000000000000000000000000000000000000000000000000000010000000000000000000000000000000000000000004000000000000000000000000000020000000002000000800000008000000000000000000000080000000000000020000000000000000000000000000000000000000000000000000000000000000000",
      "type": "0x2",
      "transactionHash": "0xa1f943d4d823296865465ce8c45ec9c7ad6d59ce5cfe41c6a86a041517921943",
      "transactionIndex": "0x65",
      "blockHash": "0x0cfcdd34692a6d55ced012445a0ad7441d1ee6847a979c91645120c4a0459c9c",
      "blockNumber": "0x724df7",
      "gasUsed": "0x13af8",
      "effectiveGasPrice": "0x3a04e5323",
      "from": "0xc77f7fed3b5cc8249adc428c5f44c9063b9734b4",
      "to": "0x5eb9cc76c3506942c1c0ead70e877dd5e4f00cb0",
      "contractAddress": null
    }
  ],
  "libraries": [],
  "pending": [],
  "returns": {},
  "timestamp": 1736874314,
  "chain": 11155111,
  "commit": "51a374b"
}