{
  "transactions": [
    {
      "hash": "0x4cce896dc654384463cb5287710e20836a1c3c0b80e248a681f70a762da4cac9",
      "transactionType": "CALL",
      "contractName": null,
      "contractAddress": "0x270e88f8683660553e8ba4eb2ad7c91a1710d769",
      "function": "sell(uint256)",
      "arguments": [
        "731850913078374095558"
      ],
      "transaction": {
        "from": "0xc77f7fed3b5cc8249adc428c5f44c9063b9734b4",
        "to": "0x270e88f8683660553e8ba4eb2ad7c91a1710d769",
        "gas": "0x16fec",
        "value": "0x0",
        "input": "0xe4849b32000000000000000000000000000000000000000000000027ac78bfeeb5c4dac6",
        "nonce": "0x798",
        "chainId": "0xaa36a7"
      },
      "additionalContracts": [],
      "isFixedGasLimit": false
    }
  ],
  "receipts": [
    {
      "status": "0x1",
      "cumulativeGasUsed": "0x5c2e5b",
      "logs": [
        {
          "address": "0x270e88f8683660553e8ba4eb2ad7c91a1710d769",
          "topics": [
            "0xddf252ad1be2c89b69c2b068fc378daa952ba7f163c4a11628f55a4df523b3ef",
            "0x000000000000000000000000c77f7fed3b5cc8249adc428c5f44c9063b9734b4",
            "0x0000000000000000000000000000000000000000000000000000000000000000"
          ],
          "data": "0x000000000000000000000000000000000000000000000027ac78bfeeb5c4dac6",
          "blockHash": "0x7ab7a93b82a735488f712face74b61a6162118d2c55c0ca5175a3b41a375a20c",
          "blockNumber": "0x7254cb",
          "transactionHash": "0x4cce896dc654384463cb5287710e20836a1c3c0b80e248a681f70a762da4cac9",
          "transactionIndex": "0x3f",
          "logIndex": "0x5c",
          "removed": false
        },
        {
          "address": "0x270e88f8683660553e8ba4eb2ad7c91a1710d769",
          "topics": [
            "0x4afcb4a87cdbd9974efdb92ee48bc8d7cd0ae4bf217004db3d080cbaee652ca7"
          ],
          "data": "0x000000000000000000000000000000000000000000000000000000006786eb8c0000000000000000000000000000000000000000000000000004d2546ba7b6df0000000000000000000000000000000000000000000000000dc827a80a50143a",
          "blockHash": "0x7ab7a93b82a735488f712face74b61a6162118d2c55c0ca5175a3b41a375a20c",
          "blockNumber": "0x7254cb",
          "transactionHash": "0x4cce896dc654384463cb5287710e20836a1c3c0b80e248a681f70a762da4cac9",
          "transactionIndex": "0x3f",
          "logIndex": "0x5d",
          "removed": false
        }
      ],
      "logsBloom": "0x00000000000000000000000000000000000000000000000000000000000000000000000000000000000000000000000020000000000000004000000000000000000000000000000000000008000000000000000000000000000000000000000000000000020000000000000000000800020000000000000000000010000000000000000000010000000000000000000000000000000000000000010000000000000000000000000000000000000000004000000000000000000000000000000000000002000000800000000000000000000000000000080000008000000020000000000000000000000000000000000000000000000000000000000000000000",
      "type": "0x2",
      "transactionHash": "0x4cce896dc654384463cb5287710e20836a1c3c0b80e248a681f70a762da4cac9",
      "transactionIndex": "0x3f",
      "blockHash": "0x7ab7a93b82a735488f712face74b61a6162118d2c55c0ca5175a3b41a375a20c",
      "blockNumber": "0x7254cb",
      "gasUsed": "0xfb93",
      "effectiveGasPrice": "0xf6f165cf",
      "from": "0xc77f7fed3b5cc8249adc428c5f44c9063b9734b4",
      "to": "0x270e88f8683660553e8ba4eb2ad7c91a1710d769",
      "contractAddress": null
    }
  ],
  "libraries": [],
  "pending": [],
  "returns": {},
  "timestamp": 1736895373,
  "chain": 11155111,
  "commit": "51a374b"
}