{
  "transactions": [
    {
      "hash": "0x2c45083bac4ffbef3ccfd24120e38c150e7d3568a873f817e09a82cc14773de7",
      "transactionType": "CALL",
      "contractName": null,
      "contractAddress": "0x8aafd3ede9adb0ff97c7aebce82a919afb1c8764",
      "function": "sell(uint256)",
      "arguments": [
        "24287120977"
      ],
      "transaction": {
        "from": "0xc77f7fed3b5cc8249adc428c5f44c9063b9734b4",
        "to": "0x8aafd3ede9adb0ff97c7aebce82a919afb1c8764",
        "gas": "0x1722a",
        "value": "0x0",
        "input": "0xe4849b3200000000000000000000000000000000000000000000000000000005a7a00e51",
        "nonce": "0xf94",
        "chainId": "0xaa36a7"
      },
      "additionalContracts": [],
      "isFixedGasLimit": false
    }
  ],
  "receipts": [
    {
      "status": "0x1",
      "cumulativeGasUsed": "0xd08d2e",
      "logs": [
        {
          "address": "0x8aafd3ede9adb0ff97c7aebce82a919afb1c8764",
          "topics": [
            "0xddf252ad1be2c89b69c2b068fc378daa952ba7f163c4a11628f55a4df523b3ef",
            "0x000000000000000000000000c77f7fed3b5cc8249adc428c5f44c9063b9734b4",
            "0x0000000000000000000000000000000000000000000000000000000000000000"
          ],
          "data": "0x000000000000000000000000000000000000000000000000000000059c0b51ca",
          "blockHash": "0x91f3ec91a484213ddd1fe2786b65a337adf1fa49f0523b9d726785d08085e346",
          "blockNumber": "0x7315f9",
          "transactionHash": "0x2c45083bac4ffbef3ccfd24120e38c150e7d3568a873f817e09a82cc14773de7",
          "transactionIndex": "0x87",
          "logIndex": "0xb9",
          "removed": false
        },
        {
          "address": "0x8aafd3ede9adb0ff97c7aebce82a919afb1c8764",
          "topics": [
            "0xddf252ad1be2c89b69c2b068fc378daa952ba7f163c4a11628f55a4df523b3ef",
            "0x000000000000000000000000c77f7fed3b5cc8249adc428c5f44c9063b9734b4",
            "0x000000000000000000000000c77f7fed3b5cc8249adc428c5f44c9063b9734b4"
          ],
          "data": "0x000000000000000000000000000000000000000000000000000000000b94bc87",
          "blockHash": "0x91f3ec91a484213ddd1fe2786b65a337adf1fa49f0523b9d726785d08085e346",
          "blockNumber": "0x7315f9",
          "transactionHash": "0x2c45083bac4ffbef3ccfd24120e38c150e7d3568a873f817e09a82cc14773de7",
          "transactionIndex": "0x87",
          "logIndex": "0xba",
          "removed": false
        },
        {
          "address": "0x8aafd3ede9adb0ff97c7aebce82a919afb1c8764",
          "topics": [
            "0x4afcb4a87cdbd9974efdb92ee48bc8d7cd0ae4bf217004db3d080cbaee652ca7"
          ],
          "data": "0x00000000000000000000000000000000000000000000000000000000679004580000000000000000000000000000000000000000000000000004c2d34cf59c230000000000000000000000000000000000000000000000000000000001f0a297",
          "blockHash": "0x91f3ec91a484213ddd1fe2786b65a337adf1fa49f0523b9d726785d08085e346",
          "blockNumber": "0x7315f9",
          "transactionHash": "0x2c45083bac4ffbef3ccfd24120e38c150e7d3568a873f817e09a82cc14773de7",
          "transactionIndex": "0x87",
          "logIndex": "0xbb",
          "removed": false
        }
      ],
      "logsBloom": "0x00000000000000000000000000000000000000000600000000000000000000000000000000000000000000000000000000000000000000004000000000000000000000000000004000000008000000000000000000000000000000000000000000000000020000000000000000000800020000000000000000000010000000000000000000000000000000000000000000000000000000000000010000000000000000000000000000000000000000004000000000000000000000000000000000000002000000800000000000000000000000000000080000000000000020000000000000000000000000000000000000000000000000000000000000000000",
      "type": "0x2",
      "transactionHash": "0x2c45083bac4ffbef3ccfd24120e38c150e7d3568a873f817e09a82cc14773de7",
      "transactionIndex": "0x87",
      "blockHash": "0x91f3ec91a484213ddd1fe2786b65a337adf1fa49f0523b9d726785d08085e346",
      "blockNumber": "0x7315f9",
      "gasUsed": "0xfd1b",
      "effectiveGasPrice": "0x7c6849ff",
      "from": "0xc77f7fed3b5cc8249adc428c5f44c9063b9734b4",
      "to": "0x8aafd3ede9adb0ff97c7aebce82a919afb1c8764",
      "contractAddress": null
    }
  ],
  "libraries": [],
  "pending": [],
  "returns": {},
  "timestamp": 1737491546,
  "chain": 11155111,
  "commit": "1d2fb70"
}