{
  "transactions": [
    {
      "hash": "0x8fc3024b1c4c6045ed00a39b98b76c7e714eacc2dd5a6bcf8c4100e5048d5f0b",
      "transactionType": "CALL",
      "contractName": null,
      "contractAddress": "0x8aafd3ede9adb0ff97c7aebce82a919afb1c8764",
      "function": "sell(uint256)",
      "arguments": [
        "1650189595512251556"
      ],
      "transaction": {
        "from": "0xc77f7fed3b5cc8249adc428c5f44c9063b9734b4",
        "to": "0x8aafd3ede9adb0ff97c7aebce82a919afb1c8764",
        "gas": "0x15dca",
        "value": "0x0",
        "input": "0xe4849b3200000000000000000000000000000000000000000000000016e6a6b1ac8da4a4",
        "nonce": "0x1509",
        "chainId": "0xaa36a7"
      },
      "additionalContracts": [],
      "isFixedGasLimit": false
    }
  ],
  "receipts": [
    {
      "status": "0x1",
      "cumulativeGasUsed": "0x6ed194",
      "logs": [
        {
          "address": "0x8aafd3ede9adb0ff97c7aebce82a919afb1c8764",
          "topics": [
            "0xddf252ad1be2c89b69c2b068fc378daa952ba7f163c4a11628f55a4df523b3ef",
            "0x000000000000000000000000c77f7fed3b5cc8249adc428c5f44c9063b9734b4",
            "0x0000000000000000000000000000000000000000000000000000000000000000"
          ],
          "data": "0x00000000000000000000000000000000000000000000000016b7bffc075536c8",
          "blockHash": "0x44dccda88f4b46064cbfff82f92c513446de8a71469bba6077fc37906596ca5d",
          "blockNumber": "0x731c6b",
          "transactionHash": "0x8fc3024b1c4c6045ed00a39b98b76c7e714eacc2dd5a6bcf8c4100e5048d5f0b",
          "transactionIndex": "0x20",
          "logIndex": "0x35",
          "removed": false
        },
        {
          "address": "0x8aafd3ede9adb0ff97c7aebce82a919afb1c8764",
          "topics": [
            "0xddf252ad1be2c89b69c2b068fc378daa952ba7f163c4a11628f55a4df523b3ef",
            "0x000000000000000000000000c77f7fed3b5cc8249adc428c5f44c9063b9734b4",
            "0x000000000000000000000000c77f7fed3b5cc8249adc428c5f44c9063b9734b4"
          ],
          "data": "0x000000000000000000000000000000000000000000000000002ee6b5a5386ddc",
          "blockHash": "0x44dccda88f4b46064cbfff82f92c513446de8a71469bba6077fc37906596ca5d",
          "blockNumber": "0x731c6b",
          "transactionHash": "0x8fc3024b1c4c6045ed00a39b98b76c7e714eacc2dd5a6bcf8c4100e5048d5f0b",
          "transactionIndex": "0x20",
          "logIndex": "0x36",
          "removed": false
        },
        {
          "address": "0x8aafd3ede9adb0ff97c7aebce82a919afb1c8764",
          "topics": [
            "0x4afcb4a87cdbd9974efdb92ee48bc8d7cd0ae4bf217004db3d080cbaee652ca7"
          ],
          "data": "0x00000000000000000000000000000000000000000000000000000000679051e0000000000000000000000000000000000000000000000000001134de03481991000000000000000000000000000000000000000000000000001c649a10a18154",
          "blockHash": "0x44dccda88f4b46064cbfff82f92c513446de8a71469bba6077fc37906596ca5d",
          "blockNumber": "0x731c6b",
          "transactionHash": "0x8fc3024b1c4c6045ed00a39b98b76c7e714eacc2dd5a6bcf8c4100e5048d5f0b",
          "transactionIndex": "0x20",
          "logIndex": "0x37",
          "removed": false
        }
      ],
      "logsBloom": "0x00000000000000000000000000000000000000000600000000000000000000000000000000000000000000000000000000000000000000004000000000000000000000000000004000000008000000000000000000000000000000000000000000000000020000000000000000000800020000000000000000000010000000000000000000000000000000000000000000000000000000000000010000000000000000000000000000000000000000004000000000000000000000000000000000000002000000800000000000000000000000000000080000000000000020000000000000000000000000000000000000000000000000000000000000000000",
      "type": "0x2",
      "transactionHash": "0x8fc3024b1c4c6045ed00a39b98b76c7e714eacc2dd5a6bcf8c4100e5048d5f0b",
      "transactionIndex": "0x20",
      "blockHash": "0x44dccda88f4b46064cbfff82f92c513446de8a71469bba6077fc37906596ca5d",
      "blockNumber": "0x731c6b",
      "gasUsed": "0xfd3f",
      "effectiveGasPrice": "0x1b6ed1f74",
      "from": "0xc77f7fed3b5cc8249adc428c5f44c9063b9734b4",
      "to": "0x8aafd3ede9adb0ff97c7aebce82a919afb1c8764",
      "contractAddress": null
    }
  ],
  "libraries": [],
  "pending": [],
  "returns": {},
  "timestamp": 1737511393,
  "chain": 11155111,
  "commit": "1d2fb70"
}