{
  "transactions": [
    {
      "hash": "0xffd56c441a9608cacc62e2920dad08a97caad8f359bc3bb68c52620aaea60d52",
      "transactionType": "CALL",
      "contractName": null,
      "contractAddress": "0x8aafd3ede9adb0ff97c7aebce82a919afb1c8764",
      "function": "buy(address)",
      "arguments": [
        "0xC77f7fed3b5Cc8249aDc428c5F44C9063B9734b4"
      ],
      "transaction": {
        "from": "0xc77f7fed3b5cc8249adc428c5f44c9063b9734b4",
        "to": "0x8aafd3ede9adb0ff97c7aebce82a919afb1c8764",
        "gas": "0x156ea",
        "value": "0xde0b6b3a7640000",
        "input": "0xf088d547000000000000000000000000c77f7fed3b5cc8249adc428c5f44c9063b9734b4",
        "nonce": "0x12a2",
        "chainId": "0xaa36a7"
      },
      "additionalContracts": [],
      "isFixedGasLimit": false
    }
  ],
  "receipts": [
    {
      "status": "0x1",
      "cumulativeGasUsed": "0xdb44fe",
      "logs": [
        {
          "address": "0x8aafd3ede9adb0ff97c7aebce82a919afb1c8764",
          "topics": [
            "0xddf252ad1be2c89b69c2b068fc378daa952ba7f163c4a11628f55a4df523b3ef",
            "0x0000000000000000000000000000000000000000000000000000000000000000",
            "0x000000000000000000000000c77f7fed3b5cc8249adc428c5f44c9063b9734b4"
          ],
          "data": "0x0000000000000000000000000000000000000000000000241c1ee08fa05604eb",
          "blockHash": "0xfb9d4985e04984a82575b5094c0b93de8be616bcb21c2d4570d4e74788f4e554",
          "blockNumber": "0x731995",
          "transactionHash": "0xffd56c441a9608cacc62e2920dad08a97caad8f359bc3bb68c52620aaea60d52",
          "transactionIndex": "0x8b",
          "logIndex": "0xaf",
          "removed": false
        },
        {
          "address": "0x8aafd3ede9adb0ff97c7aebce82a919afb1c8764",
          "topics": [
            "0xddf252ad1be2c89b69c2b068fc378daa952ba7f163c4a11628f55a4df523b3ef",
            "0x0000000000000000000000000000000000000000000000000000000000000000",
            "0x000000000000000000000000c77f7fed3b5cc8249adc428c5f44c9063b9734b4"
          ],
          "data": "0x0000000000000000000000000000000000000000000000001c0a5ffe3301f627",
          "blockHash": "0xfb9d4985e04984a82575b5094c0b93de8be616bcb21c2d4570d4e74788f4e554",
          "blockNumber": "0x731995",
          "transactionHash": "0xffd56c441a9608cacc62e2920dad08a97caad8f359bc3bb68c52620aaea60d52",
          "transactionIndex": "0x8b",
          "logIndex": "0xb0",
          "removed": false
        },
        {
          "address": "0x8aafd3ede9adb0ff97c7aebce82a919afb1c8764",
          "topics": [
            "0x4afcb4a87cdbd9974efdb92ee48bc8d7cd0ae4bf217004db3d080cbaee652ca7"
          ],
          "data": "0x0000000000000000000000000000000000000000000000000000000067902fcc00000000000000000000000000000000000000000000000000054823fb983cd70000000000000000000000000000000000000000000000000de0b6b3a7640000",
          "blockHash": "0xfb9d4985e04984a82575b5094c0b93de8be616bcb21c2d4570d4e74788f4e554",
          "blockNumber": "0x731995",
          "transactionHash": "0xffd56c441a9608cacc62e2920dad08a97caad8f359bc3bb68c52620aaea60d52",
          "transactionIndex": "0x8b",
          "logIndex": "0xb1",
          "removed": false
        }
      ],
      "logsBloom": "0x00000000000000000000000000000000000000000600000000000000000000000000000000000000000000000000000000000000000000004000000000000000000000000000004000000008000000000000000000000000000000000000000000000000020000000000000000000800020000000000000000000010000000000000000000000000000000000000000000000000000000000000010000000000000000000000000000000000000000004000000000000000000000000000000000000002000000800000000000000000000000000000080000000000000020000000000000000000000000000000000000000000000000000000000000000000",
      "type": "0x2",
      "transactionHash": "0xffd56c441a9608cacc62e2920dad08a97caad8f359bc3bb68c52620aaea60d52",
      "transactionIndex": "0x8b",
      "blockHash": "0xfb9d4985e04984a82575b5094c0b93de8be616bcb21c2d4570d4e74788f4e554",
      "blockNumber": "0x731995",
      "gasUsed": "0xf844",
      "effectiveGasPrice": "0x394a96fd",
      "from": "0xc77f7fed3b5cc8249adc428c5f44c9063b9734b4",
      "to": "0x8aafd3ede9adb0ff97c7aebce82a919afb1c8764",
      "contractAddress": null
    }
  ],
  "libraries": [],
  "pending": [],
  "returns": {},
  "timestamp": 1737502671,
  "chain": 11155111,
  "commit": "1d2fb70"
}