{
  "transactions": [
    {
      "hash": "0xe15ce17e2661e00364356526962e2c74d1e94a0f7ae3d46b7a48f901f0a5662d",
      "transactionType": "CALL",
      "contractName": null,
      "contractAddress": "0x270e88f8683660553e8ba4eb2ad7c91a1710d769",
      "function": "buy(address)",
      "arguments": [
        "0xC77f7fed3b5Cc8249aDc428c5F44C9063B9734b4"
      ],
      "transaction": {
        "from": "0xc77f7fed3b5cc8249adc428c5f44c9063b9734b4",
        "to": "0x270e88f8683660553e8ba4eb2ad7c91a1710d769",
        "gas": "0x1b30c",
        "value": "0xde0b6b3a7640000",
        "input": "0xf088d547000000000000000000000000c77f7fed3b5cc8249adc428c5f44c9063b9734b4",
        "nonce": "0x54e",
        "chainId": "0xaa36a7"
      },
      "additionalContracts": [],
      "isFixedGasLimit": false
    }
  ],
  "receipts": [
    {
      "status": "0x1",
      "cumulativeGasUsed": "0x753c0e",
      "logs": [
        {
          "address": "0x270e88f8683660553e8ba4eb2ad7c91a1710d769",
          "topics": [
            "0xddf252ad1be2c89b69c2b068fc378daa952ba7f163c4a11628f55a4df523b3ef",
            "0x0000000000000000000000000000000000000000000000000000000000000000",
            "0x000000000000000000000000c77f7fed3b5cc8249adc428c5f44c9063b9734b4"
          ],
          "data": "0x000000000000000000000000000000000000000000000034a29d11218863b92c",
          "blockHash": "0x06c180b6b644dbd22cc69a8dec35b6f806bf8a4c1847b7a6d5d0e91cab33788b",
          "blockNumber": "0x7251ed",
          "transactionHash": "0xe15ce17e2661e00364356526962e2c74d1e94a0f7ae3d46b7a48f901f0a5662d",
          "transactionIndex": "0x4d",
          "logIndex": "0x83",
          "removed": false
        },
        {
          "address": "0x270e88f8683660553e8ba4eb2ad7c91a1710d769",
          "topics": [
            "0xddf252ad1be2c89b69c2b068fc378daa952ba7f163c4a11628f55a4df523b3ef",
            "0x0000000000000000000000000000000000000000000000000000000000000000",
            "0x000000000000000000000000c77f7fed3b5cc8249adc428c5f44c9063b9734b4"
          ],
          "data": "0x00000000000000000000000000000000000000000000000028df7f3d907bed3d",
          "blockHash": "0x06c180b6b644dbd22cc69a8dec35b6f806bf8a4c1847b7a6d5d0e91cab33788b",
          "blockNumber": "0x7251ed",
          "transactionHash": "0xe15ce17e2661e00364356526962e2c74d1e94a0f7ae3d46b7a48f901f0a5662d",
          "transactionIndex": "0x4d",
          "logIndex": "0x84",
          "removed": false
        },
        {
          "address": "0x270e88f8683660553e8ba4eb2ad7c91a1710d769",
          "topics": [
            "0x4afcb4a87cdbd9974efdb92ee48bc8d7cd0ae4bf217004db3d080cbaee652ca7"
          ],
          "data": "0x000000000000000000000000000000000000000000000000000000006786c90c00000000000000000000000000000000000000000000000000039f71ec0411a50000000000000000000000000000000000000000000000000de0b6b3a7640000",
          "blockHash": "0x06c180b6b644dbd22cc69a8dec35b6f806bf8a4c1847b7a6d5d0e91cab33788b",
          "blockNumber": "0x7251ed",
          "transactionHash": "0xe15ce17e2661e00364356526962e2c74d1e94a0f7ae3d46b7a48f901f0a5662d",
          "transactionIndex": "0x4d",
          "logIndex": "0x85",
          "removed": false
        }
      ],
      "logsBloom": "0x00000000000000000000000000000000000000000000000000000000000000000000000000000000000000000000000020000000000000004000000000000000000000000000000000000008000000000000000000000000000000000000000000000000020000000000000000000800020000000000000000000010000000000000000000010000000000000000000000000000000000000000010000000000000000000000000000000000000000004000000000000000000000000000000000000002000000800000000000000000000000000000080000008000000020000000000000000000000000000000000000000000000000000000000000000000",
      "type": "0x2",
      "transactionHash": "0xe15ce17e2661e00364356526962e2c74d1e94a0f7ae3d46b7a48f901f0a5662d",
      "transactionIndex": "0x4d",
      "blockHash": "0x06c180b6b644dbd22cc69a8dec35b6f806bf8a4c1847b7a6d5d0e91cab33788b",
      "blockNumber": "0x7251ed",
      "gasUsed": "0x13af8",
      "effectiveGasPrice": "0x44ee27148",
      "from": "0xc77f7fed3b5cc8249adc428c5f44c9063b9734b4",
      "to": "0x270e88f8683660553e8ba4eb2ad7c91a1710d769",
      "contractAddress": null
    }
  ],
  "libraries": [],
  "pending": [],
  "returns": {},
  "timestamp": 1736886541,
  "chain": 11155111,
  "commit": "51a374b"
}