{
  "transactions": [
    {
      "hash": "0x3de4bf94130f0ab8d0d04146d71c3eba61a3187f11505826dc94edf0b08f4b1b",
      "transactionType": "CALL",
      "contractName": null,
      "contractAddress": "0x8aafd3ede9adb0ff97c7aebce82a919afb1c8764",
      "function": "sell(uint256)",
      "arguments": [
        "42714369821766245"
      ],
      "transaction": {
        "from": "0xc77f7fed3b5cc8249adc428c5f44c9063b9734b4",
        "to": "0x8aafd3ede9adb0ff97c7aebce82a919afb1c8764",
        "gas": "0x1724d",
        "value": "0x0",
        "input": "0xe4849b320000000000000000000000000000000000000000000000000097c07e3807f265",
        "nonce": "0x12af",
        "chainId": "0xaa36a7"
      },
      "additionalContracts": [],
      "isFixedGasLimit": false
    }
  ],
  "receipts": [
    {
      "status": "0x1",
      "cumulativeGasUsed": "0xbb2a34",
      "logs": [
        {
          "address": "0x8aafd3ede9adb0ff97c7aebce82a919afb1c8764",
          "topics": [
            "0xddf252ad1be2c89b69c2b068fc378daa952ba7f163c4a11628f55a4df523b3ef",
            "0x000000000000000000000000c77f7fed3b5cc8249adc428c5f44c9063b9734b4",
            "0x0000000000000000000000000000000000000000000000000000000000000000"
          ],
          "data": "0x000000000000000000000000000000000000000000000000009689b4814f9034",
          "blockHash": "0xe6f91d401ac6edabef258891cd838852e10f49557d3b074de090889eb72d6257",
          "blockNumber": "0x7319a5",
          "transactionHash": "0x3de4bf94130f0ab8d0d04146d71c3eba61a3187f11505826dc94edf0b08f4b1b",
          "transactionIndex": "0x82",
          "logIndex": "0x7b",
          "removed": false
        },
        {
          "address": "0x8aafd3ede9adb0ff97c7aebce82a919afb1c8764",
          "topics": [
            "0xddf252ad1be2c89b69c2b068fc378daa952ba7f163c4a11628f55a4df523b3ef",
            "0x000000000000000000000000c77f7fed3b5cc8249adc428c5f44c9063b9734b4",
            "0x000000000000000000000000c77f7fed3b5cc8249adc428c5f44c9063b9734b4"
          ],
          "data": "0x000000000000000000000000000000000000000000000000000136c9b6b86231",
          "blockHash": "0xe6f91d401ac6edabef258891cd838852e10f49557d3b074de090889eb72d6257",
          "blockNumber": "0x7319a5",
          "transactionHash": "0x3de4bf94130f0ab8d0d04146d71c3eba61a3187f11505826dc94edf0b08f4b1b",
          "transactionIndex": "0x82",
          "logIndex": "0x7c",
          "removed": false
        },
        {
          "address": "0x8aafd3ede9adb0ff97c7aebce82a919afb1c8764",
          "topics": [
            "0x4afcb4a87cdbd9974efdb92ee48bc8d7cd0ae4bf217004db3d080cbaee652ca7"
          ],
          "data": "0x000000000000000000000000000000000000000000000000000000006790308c00000000000000000000000000000000000000000000000000054aa30d6fa148000000000000000000000000000000000000000000000000000039dcca28c0ca",
          "blockHash": "0xe6f91d401ac6edabef258891cd838852e10f49557d3b074de090889eb72d6257",
          "blockNumber": "0x7319a5",
          "transactionHash": "0x3de4bf94130f0ab8d0d04146d71c3eba61a3187f11505826dc94edf0b08f4b1b",
          "transactionIndex": "0x82",
          "logIndex": "0x7d",
          "removed": false
        }
      ],
      "logsBloom": "0x00000000000000000000000000000000000000000600000000000000000000000000000000000000000000000000000000000000000000004000000000000000000000000000004000000008000000000000000000000000000000000000000000000000020000000000000000000800020000000000000000000010000000000000000000000000000000000000000000000000000000000000010000000000000000000000000000000000000000004000000000000000000000000000000000000002000000800000000000000000000000000000080000000000000020000000000000000000000000000000000000000000000000000000000000000000",
      "type": "0x2",
      "transactionHash": "0x3de4bf94130f0ab8d0d04146d71c3eba61a3187f11505826dc94edf0b08f4b1b",
      "transactionIndex": "0x82",
      "blockHash": "0xe6f91d401ac6edabef258891cd838852e10f49557d3b074de090889eb72d6257",
      "blockNumber": "0x7319a5",
      "gasUsed": "0xfd33",
      "effectiveGasPrice": "0x43ab98b9",
      "from": "0xc77f7fed3b5cc8249adc428c5f44c9063b9734b4",
      "to": "0x8aafd3ede9adb0ff97c7aebce82a919afb1c8764",
      "contractAddress": null
    }
  ],
  "libraries": [],
  "pending": [],
  "returns": {},
  "timestamp": 1737502861,
  "chain": 11155111,
  "commit": "1d2fb70"
}