{
  "transactions": [
    {
      "hash": "0x7b7585c0986dd0810af71076a484d6f0bd293952acfdeca3cf8003671eb0adf9",
      "transactionType": "CALL",
      "contractName": null,
      "contractAddress": "0x5eb9cc76c3506942c1c0ead70e877dd5e4f00cb0",
      "function": "buy(address)",
      "arguments": [
        "0xC77f7fed3b5Cc8249aDc428c5F44C9063B9734b4"
      ],
      "transaction": {
        "from": "0xc77f7fed3b5cc8249adc428c5f44c9063b9734b4",
        "to": "0x5eb9cc76c3506942c1c0ead70e877dd5e4f00cb0",
        "gas": "0x1b30c",
        "value": "0xde0b6b3a7640000",
        "input": "0xf088d547000000000000000000000000c77f7fed3b5cc8249adc428c5f44c9063b9734b4",
        "nonce": "0x258",
        "chainId": "0xaa36a7"
      },
      "additionalContracts": [],
      "isFixedGasLimit": false
    }
  ],
  "receipts": [
    {
      "status": "0x1",
      "cumulativeGasUsed": "0x11b4a82",
      "logs": [
        {
          "address": "0x5eb9cc76c3506942c1c0ead70e877dd5e4f00cb0",
          "topics": [
            "0xddf252ad1be2c89b69c2b068fc378daa952ba7f163c4a11628f55a4df523b3ef",
            "0x0000000000000000000000000000000000000000000000000000000000000000",
            "0x000000000000000000000000c77f7fed3b5cc8249adc428c5f44c9063b9734b4"
          ],
          "data": "0x0000000000000000000000000000000000000000000000357c1dd2e50b26fcc9",
          "blockHash": "0x17c2e33f2bbc4d42b84aaa97113acfc099fe374c1811dd42ddbea5cfa7d6225a",
          "blockNumber": "0x724e13",
          "transactionHash": "0x7b7585c0986dd0810af71076a484d6f0bd293952acfdeca3cf8003671eb0adf9",
          "transactionIndex": "0x7f",
          "logIndex": "0xf4",
          "removed": false
        },
        {
          "address": "0x5eb9cc76c3506942c1c0ead70e877dd5e4f00cb0",
          "topics": [
            "0xddf252ad1be2c89b69c2b068fc378daa952ba7f163c4a11628f55a4df523b3ef",
            "0x0000000000000000000000000000000000000000000000000000000000000000",
            "0x000000000000000000000000c77f7fed3b5cc8249adc428c5f44c9063b9734b4"
          ],
          "data": "0x0000000000000000000000000000000000000000000000002988653f5a721912",
          "blockHash": "0x17c2e33f2bbc4d42b84aaa97113acfc099fe374c1811dd42ddbea5cfa7d6225a",
          "blockNumber": "0x724e13",
          "transactionHash": "0x7b7585c0986dd0810af71076a484d6f0bd293952acfdeca3cf8003671eb0adf9",
          "transactionIndex": "0x7f",
          "logIndex": "0xf5",
          "removed": false
        },
        {
          "address": "0x5eb9cc76c3506942c1c0ead70e877dd5e4f00cb0",
          "topics": [
            "0x4afcb4a87cdbd9974efdb92ee48bc8d7cd0ae4bf217004db3d080cbaee652ca7"
          ],
          "data": "0x0000000000000000000000000000000000000000000000000000000067869a980000000000000000000000000000000000000000000000000003909c1430f6600000000000000000000000000000000000000000000000000de0b6b3a7640000",
          "blockHash": "0x17c2e33f2bbc4d42b84aaa97113acfc099fe374c1811dd42ddbea5cfa7d6225a",
          "blockNumber": "0x724e13",
          "transactionHash": "0x7b7585c0986dd0810af71076a484d6f0bd293952acfdeca3cf8003671eb0adf9",
          "transactionIndex": "0x7f",
          "logIndex": "0xf6",
          "removed": false
        }
      ],
      "logsBloom": "0x00000000000000000000000000000000000000000000000000000000000000000000000000000000000000000000000000000000000000004000000000000000000000000000000000000008000000000000000000000000000000000000000000000000020000000000000004000800020000000000000000000010000000000000000000000000000000000000000000000000000000000000010000000000000000000000000000000000000000004000000000000000000000000000020000000002000000800000008000000000000000000000080000000000000020000000000000000000000000000000000000000000000000000000000000000000",
      "type": "0x2",
      "transactionHash": "0x7b7585c0986dd0810af71076a484d6f0bd293952acfdeca3cf8003671eb0adf9",
      "transactionIndex": "0x7f",
      "blockHash": "0x17c2e33f2bbc4d42b84aaa97113acfc099fe374c1811dd42ddbea5cfa7d6225a",
      "blockNumber": "0x724e13",
      "gasUsed": "0x13af8",
      "effectiveGasPrice": "0x3302f08d3",
      "from": "0xc77f7fed3b5cc8249adc428c5f44c9063b9734b4",
      "to": "0x5eb9cc76c3506942c1c0ead70e877dd5e4f00cb0",
      "contractAddress": null
    }
  ],
  "libraries": [],
  "pending": [],
  "returns": {},
  "timestamp": 1736874649,
  "chain": 11155111,
  "commit": "51a374b"
}