{
  "transactions": [
    {
      "hash": "0x0ac5ffb9fa426d892d7e543d4f274e059677e14db8cd9d6e44cfdd9354163c0b",
      "transactionType": "CALL",
      "contractName": null,
      "contractAddress": "0x270e88f8683660553e8ba4eb2ad7c91a1710d769",
      "function": "buy(address)",
      "arguments": [
        "0xC77f7fed3b5Cc8249aDc428c5F44C9063B9734b4"
      ],
      "transaction": {
        "from": "0xc77f7fed3b5cc8249adc428c5f44c9063b9734b4",
        "to": "0x270e88f8683660553e8ba4eb2ad7c91a1710d769",
        "gas": "0x1b30c",
        "value": "0xde0b6b3a7640000",
        "input": "0xf088d547000000000000000000000000c77f7fed3b5cc8249adc428c5f44c9063b9734b4",
        "nonce": "0x669",
        "chainId": "0xaa36a7"
      },
      "additionalContracts": [],
      "isFixedGasLimit": false
    }
  ],
  "receipts": [
    {
      "status": "0x1",
      "cumulativeGasUsed": "0x644714",
      "logs": [
        {
          "address": "0x270e88f8683660553e8ba4eb2ad7c91a1710d769",
          "topics": [
            "0xddf252ad1be2c89b69c2b068fc378daa952ba7f163c4a11628f55a4df523b3ef",
            "0x0000000000000000000000000000000000000000000000000000000000000000",
            "0x000000000000000000000000c77f7fed3b5cc8249adc428c5f44c9063b9734b4"
          ],
          "data": "0x00000000000000000000000000000000000000000000002906317bf8271e19e4",
          "blockHash": "0x0a7b7e3e3b867c4bf887448a62eac01c9d69def29f4913127bab5debb71179d8",
          "blockNumber": "0x725362",
          "transactionHash": "0x0ac5ffb9fa426d892d7e543d4f274e059677e14db8cd9d6e44cfdd9354163c0b",
          "transactionIndex": "0x39",
          "logIndex": "0x81",
          "removed": false
        },
        {
          "address": "0x270e88f8683660553e8ba4eb2ad7c91a1710d769",
          "topics": [
            "0xddf252ad1be2c89b69c2b068fc378daa952ba7f163c4a11628f55a4df523b3ef",
            "0x0000000000000000000000000000000000000000000000000000000000000000",
            "0x000000000000000000000000c77f7fed3b5cc8249adc428c5f44c9063b9734b4"
          ],
          "data": "0x0000000000000000000000000000000000000000000000001fdb4fb2f1aad7e8",
          "blockHash": "0x0a7b7e3e3b867c4bf887448a62eac01c9d69def29f4913127bab5debb71179d8",
          "blockNumber": "0x725362",
          "transactionHash": "0x0ac5ffb9fa426d892d7e543d4f274e059677e14db8cd9d6e44cfdd9354163c0b",
          "transactionIndex": "0x39",
          "logIndex": "0x82",
          "removed": false
        },
        {
          "address": "0x270e88f8683660553e8ba4eb2ad7c91a1710d769",
          "topics": [
            "0x4afcb4a87cdbd9974efdb92ee48bc8d7cd0ae4bf217004db3d080cbaee652ca7"
          ],
          "data": "0x000000000000000000000000000000000000000000000000000000006786daa00000000000000000000000000000000000000000000000000004a5e8c31977980000000000000000000000000000000000000000000000000de0b6b3a7640000",
          "blockHash": "0x0a7b7e3e3b867c4bf887448a62eac01c9d69def29f4913127bab5debb71179d8",
          "blockNumber": "0x725362",
          "transactionHash": "0x0ac5ffb9fa426d892d7e543d4f274e059677e14db8cd9d6e44cfdd9354163c0b",
          "transactionIndex": "0x39",
          "logIndex": "0x83",
          "removed": false
        }
      ],
      "logsBloom": "0x00000000000000000000000000000000000000000000000000000000000000000000000000000000000000000000000020000000000000004000000000000000000000000000000000000008000000000000000000000000000000000000000000000000020000000000000000000800020000000000000000000010000000000000000000010000000000000000000000000000000000000000010000000000000000000000000000000000000000004000000000000000000000000000000000000002000000800000000000000000000000000000080000008000000020000000000000000000000000000000000000000000000000000000000000000000",
      "type": "0x2",
      "transactionHash": "0x0ac5ffb9fa426d892d7e543d4f274e059677e14db8cd9d6e44cfdd9354163c0b",
      "transactionIndex": "0x39",
      "blockHash": "0x0a7b7e3e3b867c4bf887448a62eac01c9d69def29f4913127bab5debb71179d8",
      "blockNumber": "0x725362",
      "gasUsed": "0x13af8",
      "effectiveGasPrice": "0x30161a7cd",
      "from": "0xc77f7fed3b5cc8249adc428c5f44c9063b9734b4",
      "to": "0x270e88f8683660553e8ba4eb2ad7c91a1710d769",
      "contractAddress": null
    }
  ],
  "libraries": [],
  "pending": [],
  "returns": {},
  "timestamp": 1736891042,
  "chain": 11155111,
  "commit": "51a374b"
}