{
  "transactions": [
    {
      "hash": "0xbb926d02592bb5eb7b2551c086b6d2793029629ab778098b15577b20d66726b7",
      "transactionType": "CALL",
      "contractName": null,
      "contractAddress": "0x5eb9cc76c3506942c1c0ead70e877dd5e4f00cb0",
      "function": "sell(uint256)",
      "arguments": [
        "989079283577718338975"
      ],
      "transaction": {
        "from": "0xc77f7fed3b5cc8249adc428c5f44c9063b9734b4",
        "to": "0x5eb9cc76c3506942c1c0ead70e877dd5e4f00cb0",
        "gas": "0x16fec",
        "value": "0x0",
        "input": "0xe4849b320000000000000000000000000000000000000000000000359e3b800c1bc0759f",
        "nonce": "0x483",
        "chainId": "0xaa36a7"
      },
      "additionalContracts": [],
      "isFixedGasLimit": false
    }
  ],
  "receipts": [
    {
      "status": "0x1",
      "cumulativeGasUsed": "0x1413221",
      "logs": [
        {
          "address": "0x5eb9cc76c3506942c1c0ead70e877dd5e4f00cb0",
          "topics": [
            "0xddf252ad1be2c89b69c2b068fc378daa952ba7f163c4a11628f55a4df523b3ef",
            "0x000000000000000000000000c77f7fed3b5cc8249adc428c5f44c9063b9734b4",
            "0x0000000000000000000000000000000000000000000000000000000000000000"
          ],
          "data": "0x0000000000000000000000000000000000000000000000359e3b800c1bc0759f",
          "blockHash": "0x8851ae120426726e08943fd2ce3eaf2b945f83c1b19eeee8ddf70ef005f39b94",
          "blockNumber": "0x7250b3",
          "transactionHash": "0xbb926d02592bb5eb7b2551c086b6d2793029629ab778098b15577b20d66726b7",
          "transactionIndex": "0x55",
          "logIndex": "0x81",
          "removed": false
        },
        {
          "address": "0x5eb9cc76c3506942c1c0ead70e877dd5e4f00cb0",
          "topics": [
            "0x4afcb4a87cdbd9974efdb92ee48bc8d7cd0ae4bf217004db3d080cbaee652ca7"
          ],
          "data": "0x000000000000000000000000000000000000000000000000000000006786ba300000000000000000000000000000000000000000000000000003911a5e354c220000000000000000000000000000000000000000000000000dc7db1331c2960b",
          "blockHash": "0x8851ae120426726e08943fd2ce3eaf2b945f83c1b19eeee8ddf70ef005f39b94",
          "blockNumber": "0x7250b3",
          "transactionHash": "0xbb926d02592bb5eb7b2551c086b6d2793029629ab778098b15577b20d66726b7",
          "transactionIndex": "0x55",
          "logIndex": "0x82",
          "removed": false
        }
      ],
      "logsBloom": "0x00000000000000000000000000000000000000000000000000000000000000000000000000000000000000000000000000000000000000004000000000000000000000000000000000000008000000000000000000000000000000000000000000000000020000000000000004000800020000000000000000000010000000000000000000000000000000000000000000000000000000000000010000000000000000000000000000000000000000004000000000000000000000000000020000000002000000800000008000000000000000000000080000000000000020000000000000000000000000000000000000000000000000000000000000000000",
      "type": "0x2",
      "transactionHash": "0xbb926d02592bb5eb7b2551c086b6d2793029629ab778098b15577b20d66726b7",
      "transactionIndex": "0x55",
      "blockHash": "0x8851ae120426726e08943fd2ce3eaf2b945f83c1b19eeee8ddf70ef005f39b94",
      "blockNumber": "0x7250b3",
      "gasUsed": "0xfb93",
      "effectiveGasPrice": "0x1eb28e14a",
      "from": "0xc77f7fed3b5cc8249adc428c5f44c9063b9734b4",
      "to": "0x5eb9cc76c3506942c1c0ead70e877dd5e4f00cb0",
      "contractAddress": null
    }
  ],
  "libraries": [],
  "pending": [],
  "returns": {},
  "timestamp": 1736882737,
  "chain": 11155111,
  "commit": "51a374b"
}