{
  "transactions": [
    {
      "hash": "0xc2a498d1ba2c070e5bd62cd4e5a6d17fa4b8d2a2517909e29ffba577a88e4cb7",
      "transactionType": "CALL",
      "contractName": null,
      "contractAddress": "0x998f2385233624e36450f8e9cd45e9422485ac26",
      "function": "borrow(uint256,uint256)",
      "arguments": [
        "9999999999999990",
        "0"
      ],
      "transaction": {
        "from": "0xc77f7fed3b5cc8249adc428c5f44c9063b9734b4",
        "to": "0x998f2385233624e36450f8e9cd45e9422485ac26",
        "gas": "0x58931",
        "value": "0x0",
        "input": "0x0ecbcdab000000000000000000000000000000000000000000000000002386f26fc0fff60000000000000000000000000000000000000000000000000000000000000000",
        "nonce": "0x18e8",
        "chainId": "0xaa36a7"
      },
      "additionalContracts": [],
      "isFixedGasLimit": false
    }
  ],
  "receipts": [
    {
      "status": "0x1",
      "cumulativeGasUsed": "0xef9bd9",
      "logs": [
        {
          "address": "0x998f2385233624e36450f8e9cd45e9422485ac26",
          "topics": [
            "0xddf252ad1be2c89b69c2b068fc378daa952ba7f163c4a11628f55a4df523b3ef",
            "0x000000000000000000000000c77f7fed3b5cc8249adc428c5f44c9063b9734b4",
            "0x000000000000000000000000998f2385233624e36450f8e9cd45e9422485ac26"
          ],
          "data": "0x0000000000000000000000000000000000000000000000008ac7230489e7ffff",
          "blockHash": "0xc8cc2b32d502d3494effcb5a62ac01c0712fc7a244edd150b33cc39049ee53bd",
          "blockNumber": "0x7397e7",
          "transactionHash": "0xc2a498d1ba2c070e5bd62cd4e5a6d17fa4b8d2a2517909e29ffba577a88e4cb7",
          "transactionIndex": "0x7a",
          "logIndex": "0x103",
          "removed": false
        },
        {
          "address": "0x998f2385233624e36450f8e9cd45e9422485ac26",
          "topics": [
            "0x03bbe564cb1b78e43195eeadbde99e5b89b19345862807fcfb59f884e4165e25"
          ],
          "data": "0x00000000000000000000000038818e389773445cd73adbaa37b8b169f458c6e1000000000000000000000000000000000000000000000000000002bb30ed607a",
          "blockHash": "0xc8cc2b32d502d3494effcb5a62ac01c0712fc7a244edd150b33cc39049ee53bd",
          "blockNumber": "0x7397e7",
          "transactionHash": "0xc2a498d1ba2c070e5bd62cd4e5a6d17fa4b8d2a2517909e29ffba577a88e4cb7",
          "transactionIndex": "0x7a",
          "logIndex": "0x104",
          "removed": false
        },
        {
          "address": "0x998f2385233624e36450f8e9cd45e9422485ac26",
          "topics": [
            "0x03bbe564cb1b78e43195eeadbde99e5b89b19345862807fcfb59f884e4165e25"
          ],
          "data": "0x000000000000000000000000c77f7fed3b5cc8249adc428c5f44c9063b9734b4000000000000000000000000000000000000000000000000002319e60ad867f8",
          "blockHash": "0xc8cc2b32d502d3494effcb5a62ac01c0712fc7a244edd150b33cc39049ee53bd",
          "blockNumber": "0x7397e7",
          "transactionHash": "0xc2a498d1ba2c070e5bd62cd4e5a6d17fa4b8d2a2517909e29ffba577a88e4cb7",
          "transactionIndex": "0x7a",
          "logIndex": "0x105",
          "removed": false
        },
        {
          "address": "0x998f2385233624e36450f8e9cd45e9422485ac26",
          "topics": [
            "0xaec00f5213a37254bc68a26b0685d1a5b2bf513e1e587c94c7df7f4a62b56c9c"
          ],
          "data": "0x0000000000000000000000000000000000000000000000008ac7230489e7ffff000000000000000000000000000000000000000000000000002322fe594b07f7000000000000000000000000000000000000000000000000002322fe594b07f70000000000000000000000000000000000000000000000008ac7230489e7ffff",
          "blockHash": "0xc8cc2b32d502d3494effcb5a62ac01c0712fc7a244edd150b33cc39049ee53bd",
          "blockNumber": "0x7397e7",
          "transactionHash": "0xc2a498d1ba2c070e5bd62cd4e5a6d17fa4b8d2a2517909e29ffba577a88e4cb7",
          "transactionIndex": "0x7a",
          "logIndex": "0x106",
          "removed": false
        },
        {
          "address": "0x998f2385233624e36450f8e9cd45e9422485ac26",
          "topics": [
            "0x4afcb4a87cdbd9974efdb92ee48bc8d7cd0ae4bf217004db3d080cbaee652ca7"
          ],
          "data": "0x000000000000000000000000000000000000000000000000000000006796530c00000000000000000000000000000000000000000000000000038e218e209ff2000000000000000000000000000000000000000000000000000009184e729fff",
          "blockHash": "0xc8cc2b32d502d3494effcb5a62ac01c0712fc7a244edd150b33cc39049ee53bd",
          "blockNumber": "0x7397e7",
          "transactionHash": "0xc2a498d1ba2c070e5bd62cd4e5a6d17fa4b8d2a2517909e29ffba577a88e4cb7",
          "transactionIndex": "0x7a",
          "logIndex": "0x107",
          "removed": false
        }
      ],
      "logsBloom": "0x00000000000000000000000000000100400000000000000000040000000000000008000000000000000000000000000000082000000000004000000000000000000000000000000000000008000000000000000000000000000000000000000000000000000000000000000000000000020000000000000000000010000010000000000000000000000000000000000000000000000000000000010000000000000000000000000000000400000000004000000000000000000000001000000400000002000000800000000001000000000000000000080000000000000000000000000000000000000000000000000000000000040000000000000000000000",
      "type": "0x2",
      "transactionHash": "0xc2a498d1ba2c070e5bd62cd4e5a6d17fa4b8d2a2517909e29ffba577a88e4cb7",
      "transactionIndex": "0x7a",
      "blockHash": "0xc8cc2b32d502d3494effcb5a62ac01c0712fc7a244edd150b33cc39049ee53bd",
      "blockNumber": "0x7397e7",
      "gasUsed": "0x40206",
      "effectiveGasPrice": "0x39c8d0d94",
      "from": "0xc77f7fed3b5cc8249adc428c5f44c9063b9734b4",
      "to": "0x998f2385233624e36450f8e9cd45e9422485ac26",
      "contractAddress": null
    }
  ],
  "libraries": [],
  "pending": [],
  "returns": {},
  "timestamp": 1737904910,
  "chain": 11155111,
  "commit": "f5162e9"
}