{
  "transactions": [
    {
      "hash": "0x386bef6deaaa26ae47fd32154bdb3c58d82ec09138d08be46d5fa83ac5d03af8",
      "transactionType": "CALL",
      "contractName": null,
      "contractAddress": "0x8aafd3ede9adb0ff97c7aebce82a919afb1c8764",
      "function": "sell(uint256)",
      "arguments": [
        "196020555"
      ],
      "transaction": {
        "from": "0xc77f7fed3b5cc8249adc428c5f44c9063b9734b4",
        "to": "0x8aafd3ede9adb0ff97c7aebce82a919afb1c8764",
        "gas": "0x15d88",
        "value": "0x0",
        "input": "0xe4849b32000000000000000000000000000000000000000000000000000000000baf094b",
        "nonce": "0xeb6",
        "chainId": "0xaa36a7"
      },
      "additionalContracts": [],
      "isFixedGasLimit": false
    }
  ],
  "receipts": [
    {
      "status": "0x1",
      "cumulativeGasUsed": "0x1072811",
      "logs": [
        {
          "address": "0x8aafd3ede9adb0ff97c7aebce82a919afb1c8764",
          "topics": [
            "0xddf252ad1be2c89b69c2b068fc378daa952ba7f163c4a11628f55a4df523b3ef",
            "0x000000000000000000000000c77f7fed3b5cc8249adc428c5f44c9063b9734b4",
            "0x0000000000000000000000000000000000000000000000000000000000000000"
          ],
          "data": "0x000000000000000000000000000000000000000000000000000000000b971ba7",
          "blockHash": "0xc659f0083f3423200014fa3a370681e8ef2f75fab4cd75e80542b05854475f8b",
          "blockNumber": "0x731419",
          "transactionHash": "0x386bef6deaaa26ae47fd32154bdb3c58d82ec09138d08be46d5fa83ac5d03af8",
          "transactionIndex": "0xa9",
          "logIndex": "0x121",
          "removed": false
        },
        {
          "address": "0x8aafd3ede9adb0ff97c7aebce82a919afb1c8764",
          "topics": [
            "0xddf252ad1be2c89b69c2b068fc378daa952ba7f163c4a11628f55a4df523b3ef",
            "0x000000000000000000000000c77f7fed3b5cc8249adc428c5f44c9063b9734b4",
            "0x000000000000000000000000c77f7fed3b5cc8249adc428c5f44c9063b9734b4"
          ],
          "data": "0x000000000000000000000000000000000000000000000000000000000017eda4",
          "blockHash": "0xc659f0083f3423200014fa3a370681e8ef2f75fab4cd75e80542b05854475f8b",
          "blockNumber": "0x731419",
          "transactionHash": "0x386bef6deaaa26ae47fd32154bdb3c58d82ec09138d08be46d5fa83ac5d03af8",
          "transactionIndex": "0xa9",
          "logIndex": "0x122",
          "removed": false
        },
        {
          "address": "0x8aafd3ede9adb0ff97c7aebce82a919afb1c8764",
          "topics": [
            "0x4afcb4a87cdbd9974efdb92ee48bc8d7cd0ae4bf217004db3d080cbaee652ca7"
          ],
          "data": "0x00000000000000000000000000000000000000000000000000000000678fedd80000000000000000000000000000000000000000000000000004b832f5b36a72000000000000000000000000000000000000000000000000000000000003f92f",
          "blockHash": "0xc659f0083f3423200014fa3a370681e8ef2f75fab4cd75e80542b05854475f8b",
          "blockNumber": "0x731419",
          "transactionHash": "0x386bef6deaaa26ae47fd32154bdb3c58d82ec09138d08be46d5fa83ac5d03af8",
          "transactionIndex": "0xa9",
          "logIndex": "0x123",
          "removed": false
        }
      ],
      "logsBloom": "0x00000000000000000000000000000000000000000600000000000000000000000000000000000000000000000000000000000000000000004000000000000000000000000000004000000008000000000000000000000000000000000000000000000000020000000000000000000800020000000000000000000010000000000000000000000000000000000000000000000000000000000000010000000000000000000000000000000000000000004000000000000000000000000000000000000002000000800000000000000000000000000000080000000000000020000000000000000000000000000000000000000000000000000000000000000000",
      "type": "0x2",
      "transactionHash": "0x386bef6deaaa26ae47fd32154bdb3c58d82ec09138d08be46d5fa83ac5d03af8",
      "transactionIndex": "0xa9",
      "blockHash": "0xc659f0083f3423200014fa3a370681e8ef2f75fab4cd75e80542b05854475f8b",
      "blockNumber": "0x731419",
      "gasUsed": "0xfd0f",
      "effectiveGasPrice": "0xa4f50e60",
      "from": "0xc77f7fed3b5cc8249adc428c5f44c9063b9734b4",
      "to": "0x8aafd3ede9adb0ff97c7aebce82a919afb1c8764",
      "contractAddress": null
    }
  ],
  "libraries": [],
  "pending": [],
  "returns": {},
  "timestamp": 1737485785,
  "chain": 11155111,
  "commit": "51a374b"
}