{
  "transactions": [
    {
      "hash": "0x0e11bbadc379c882e7ab836659f6b32dfbb6fb1624cc3e9fc30f1f3db4ef7c96",
      "transactionType": "CALL",
      "contractName": null,
      "contractAddress": "0x8aafd3ede9adb0ff97c7aebce82a919afb1c8764",
      "function": "sell(uint256)",
      "arguments": [
        "417386"
      ],
      "transaction": {
        "from": "0xc77f7fed3b5cc8249adc428c5f44c9063b9734b4",
        "to": "0x8aafd3ede9adb0ff97c7aebce82a919afb1c8764",
        "gas": "0x16208",
        "value": "0x0",
        "input": "0xe4849b320000000000000000000000000000000000000000000000000000000000065e6a",
        "nonce": "0x1545",
        "chainId": "0xaa36a7"
      },
      "additionalContracts": [],
      "isFixedGasLimit": false
    }
  ],
  "receipts": [
    {
      "status": "0x1",
      "cumulativeGasUsed": "0x740044",
      "logs": [
        {
          "address": "0x8aafd3ede9adb0ff97c7aebce82a919afb1c8764",
          "topics": [
            "0xddf252ad1be2c89b69c2b068fc378daa952ba7f163c4a11628f55a4df523b3ef",
            "0x000000000000000000000000c77f7fed3b5cc8249adc428c5f44c9063b9734b4",
            "0x0000000000000000000000000000000000000000000000000000000000000000"
          ],
          "data": "0x000000000000000000000000000000000000000000000000000000000006515f",
          "blockHash": "0x2a9c71991ef7da6f6919881a66a43573aff8a0603086d8c65b55aa2b5122b406",
          "blockNumber": "0x731caa",
          "transactionHash": "0x0e11bbadc379c882e7ab836659f6b32dfbb6fb1624cc3e9fc30f1f3db4ef7c96",
          "transactionIndex": "0x63",
          "logIndex": "0x76",
          "removed": false
        },
        {
          "address": "0x8aafd3ede9adb0ff97c7aebce82a919afb1c8764",
          "topics": [
            "0xddf252ad1be2c89b69c2b068fc378daa952ba7f163c4a11628f55a4df523b3ef",
            "0x000000000000000000000000c77f7fed3b5cc8249adc428c5f44c9063b9734b4",
            "0x000000000000000000000000c77f7fed3b5cc8249adc428c5f44c9063b9734b4"
          ],
          "data": "0x0000000000000000000000000000000000000000000000000000000000000d0b",
          "blockHash": "0x2a9c71991ef7da6f6919881a66a43573aff8a0603086d8c65b55aa2b5122b406",
          "blockNumber": "0x731caa",
          "transactionHash": "0x0e11bbadc379c882e7ab836659f6b32dfbb6fb1624cc3e9fc30f1f3db4ef7c96",
          "transactionIndex": "0x63",
          "logIndex": "0x77",
          "removed": false
        },
        {
          "address": "0x8aafd3ede9adb0ff97c7aebce82a919afb1c8764",
          "topics": [
            "0x4afcb4a87cdbd9974efdb92ee48bc8d7cd0ae4bf217004db3d080cbaee652ca7"
          ],
          "data": "0x00000000000000000000000000000000000000000000000000000000679054d40000000000000000000000000000000000000000000000000011d45ef833b6b9000000000000000000000000000000000000000000000000000000000000082e",
          "blockHash": "0x2a9c71991ef7da6f6919881a66a43573aff8a0603086d8c65b55aa2b5122b406",
          "blockNumber": "0x731caa",
          "transactionHash": "0x0e11bbadc379c882e7ab836659f6b32dfbb6fb1624cc3e9fc30f1f3db4ef7c96",
          "transactionIndex": "0x63",
          "logIndex": "0x78",
          "removed": false
        }
      ],
      "logsBloom": "0x00000000000000000000000000000000000000000600000000000000000000000000000000000000000000000000000000000000000000004000000000000000000000000000004000000008000000000000000000000000000000000000000000000000020000000000000000000800020000000000000000000010000000000000000000000000000000000000000000000000000000000000010000000000000000000000000000000000000000004000000000000000000000000000000000000002000000800000000000000000000000000000080000000000000020000000000000000000000000000000000000000000000000000000000000000000",
      "type": "0x2",
      "transactionHash": "0x0e11bbadc379c882e7ab836659f6b32dfbb6fb1624cc3e9fc30f1f3db4ef7c96",
      "transactionIndex": "0x63",
      "blockHash": "0x2a9c71991ef7da6f6919881a66a43573aff8a0603086d8c65b55aa2b5122b406",
      "blockNumber": "0x731caa",
      "gasUsed": "0xf213",
      "effectiveGasPrice": "0xe10b77fa",
      "from": "0xc77f7fed3b5cc8249adc428c5f44c9063b9734b4",
      "to": "0x8aafd3ede9adb0ff97c7aebce82a919afb1c8764",
      "contractAddress": null
    }
  ],
  "libraries": [],
  "pending": [],
  "returns": {},
  "timestamp": 1737512149,
  "chain": 11155111,
  "commit": "1d2fb70"
}