{
  "transactions": [
    {
      "hash": "0xf3562d583fcf287499ad753ead8c56e2f2628bd367577e577fcc9ef12b5834a9",
      "transactionType": "CALL",
      "contractName": null,
      "contractAddress": "0xbf4a322f1496e5c3d34a9bcdb4c60567b38c7de2",
      "function": "sell(uint256)",
      "arguments": [
        "986854137107792175245"
      ],
      "transaction": {
        "from": "0xc77f7fed3b5cc8249adc428c5f44c9063b9734b4",
        "to": "0xbf4a322f1496e5c3d34a9bcdb4c60567b38c7de2",
        "gas": "0x16fea",
        "value": "0x0",
        "input": "0xe4849b320000000000000000000000000000000000000000000000357f5a311f4a96a08d",
        "nonce": "0xa1d",
        "chainId": "0xaa36a7"
      },
      "additionalContracts": [],
      "isFixedGasLimit": false
    }
  ],
  "receipts": [
    {
      "status": "0x1",
      "cumulativeGasUsed": "0x12950dc",
      "logs": [
        {
          "address": "0xbf4a322f1496e5c3d34a9bcdb4c60567b38c7de2",
          "topics": [
            "0xddf252ad1be2c89b69c2b068fc378daa952ba7f163c4a11628f55a4df523b3ef",
            "0x000000000000000000000000c77f7fed3b5cc8249adc428c5f44c9063b9734b4",
            "0x0000000000000000000000000000000000000000000000000000000000000000"
          ],
          "data": "0x0000000000000000000000000000000000000000000000357f5a311f4a96a08d",
          "blockHash": "0x36d55d3476e5b3c3b3c4738042a5cce0da48b9a2dc3c1f43b6abdb8a75fd024c",
          "blockNumber": "0x7259dd",
          "transactionHash": "0xf3562d583fcf287499ad753ead8c56e2f2628bd367577e577fcc9ef12b5834a9",
          "transactionIndex": "0x58",
          "logIndex": "0xa2",
          "removed": false
        },
        {
          "address": "0xbf4a322f1496e5c3d34a9bcdb4c60567b38c7de2",
          "topics": [
            "0x4afcb4a87cdbd9974efdb92ee48bc8d7cd0ae4bf217004db3d080cbaee652ca7"
          ],
          "data": "0x00000000000000000000000000000000000000000000000000000000678728a00000000000000000000000000000000000000000000000000003932fd2cb32460000000000000000000000000000000000000000000000000dc7e3f200937b29",
          "blockHash": "0x36d55d3476e5b3c3b3c4738042a5cce0da48b9a2dc3c1f43b6abdb8a75fd024c",
          "blockNumber": "0x7259dd",
          "transactionHash": "0xf3562d583fcf287499ad753ead8c56e2f2628bd367577e577fcc9ef12b5834a9",
          "transactionIndex": "0x58",
          "logIndex": "0xa3",
          "removed": false
        }
      ],
      "logsBloom": "0x00000000000000000000000000000000000000000000000000000000000000000000000000000000000000000000000000000000000000004000000000000000000000000000000000000008000000000000001000000000000000000000000000000000020000000000000000000800020000000000000000000010000000000000000000000000000000000000000000000000000008000000010000000000000000000000000000000000000000004000000000000000000000000000000000000002000000800000000000001000000000000000080000000000000020000000000000000000000000000000000000000000000000000000000000000000",
      "type": "0x2",
      "transactionHash": "0xf3562d583fcf287499ad753ead8c56e2f2628bd367577e577fcc9ef12b5834a9",
      "transactionIndex": "0x58",
      "blockHash": "0x36d55d3476e5b3c3b3c4738042a5cce0da48b9a2dc3c1f43b6abdb8a75fd024c",
      "blockNumber": "0x7259dd",
      "gasUsed": "0xfb91",
      "effectiveGasPrice": "0x6e5819731",
      "from": "0xc77f7fed3b5cc8249adc428c5f44c9063b9734b4",
      "to": "0xbf4a322f1496e5c3d34a9bcdb4c60567b38c7de2",
      "contractAddress": null
    }
  ],
  "libraries": [],
  "pending": [],
  "returns": {},
  "timestamp": 1736911009,
  "chain": 11155111,
  "commit": "51a374b"
}