{
  "transactions": [
    {
      "hash": "0x4d01f014de562802a92b078c2d81c8d93250d20c6d56ccfd5486efb0aab71b73",
      "transactionType": "CALL",
      "contractName": null,
      "contractAddress": "0x8aafd3ede9adb0ff97c7aebce82a919afb1c8764",
      "function": "sell(uint256)",
      "arguments": [
        "11819"
      ],
      "transaction": {
        "from": "0xc77f7fed3b5cc8249adc428c5f44c9063b9734b4",
        "to": "0x8aafd3ede9adb0ff97c7aebce82a919afb1c8764",
        "gas": "0x14e4c",
        "value": "0x0",
        "input": "0xe4849b320000000000000000000000000000000000000000000000000000000000002e2b",
        "nonce": "0x10cb",
        "chainId": "0xaa36a7"
      },
      "additionalContracts": [],
      "isFixedGasLimit": false
    }
  ],
  "receipts": [
    {
      "status": "0x1",
      "cumulativeGasUsed": "0x878e00",
      "logs": [
        {
          "address": "0x8aafd3ede9adb0ff97c7aebce82a919afb1c8764",
          "topics": [
            "0xddf252ad1be2c89b69c2b068fc378daa952ba7f163c4a11628f55a4df523b3ef",
            "0x000000000000000000000000c77f7fed3b5cc8249adc428c5f44c9063b9734b4",
            "0x0000000000000000000000000000000000000000000000000000000000000000"
          ],
          "data": "0x0000000000000000000000000000000000000000000000000000000000002dcd",
          "blockHash": "0xde6a35e9f5d08eae6a6a339b0b4c5904d4ab1405fd0944f84a062bb539757cfc",
          "blockNumber": "0x731768",
          "transactionHash": "0x4d01f014de562802a92b078c2d81c8d93250d20c6d56ccfd5486efb0aab71b73",
          "transactionIndex": "0x6f",
          "logIndex": "0x83",
          "removed": false
        },
        {
          "address": "0x8aafd3ede9adb0ff97c7aebce82a919afb1c8764",
          "topics": [
            "0xddf252ad1be2c89b69c2b068fc378daa952ba7f163c4a11628f55a4df523b3ef",
            "0x000000000000000000000000c77f7fed3b5cc8249adc428c5f44c9063b9734b4",
            "0x000000000000000000000000c77f7fed3b5cc8249adc428c5f44c9063b9734b4"
          ],
          "data": "0x000000000000000000000000000000000000000000000000000000000000005e",
          "blockHash": "0xde6a35e9f5d08eae6a6a339b0b4c5904d4ab1405fd0944f84a062bb539757cfc",
          "blockNumber": "0x731768",
          "transactionHash": "0x4d01f014de562802a92b078c2d81c8d93250d20c6d56ccfd5486efb0aab71b73",
          "transactionIndex": "0x6f",
          "logIndex": "0x84",
          "removed": false
        },
        {
          "address": "0x8aafd3ede9adb0ff97c7aebce82a919afb1c8764",
          "topics": [
            "0x4afcb4a87cdbd9974efdb92ee48bc8d7cd0ae4bf217004db3d080cbaee652ca7"
          ],
          "data": "0x00000000000000000000000000000000000000000000000000000000679015a400000000000000000000000000000000000000000000000000050371b4a5f2f60000000000000000000000000000000000000000000000000000000000000010",
          "blockHash": "0xde6a35e9f5d08eae6a6a339b0b4c5904d4ab1405fd0944f84a062bb539757cfc",
          "blockNumber": "0x731768",
          "transactionHash": "0x4d01f014de562802a92b078c2d81c8d93250d20c6d56ccfd5486efb0aab71b73",
          "transactionIndex": "0x6f",
          "logIndex": "0x85",
          "removed": false
        }
      ],
      "logsBloom": "0x00000000000000000000000000000000000000000600000000000000000000000000000000000000000000000000000000000000000000004000000000000000000000000000004000000008000000000000000000000000000000000000000000000000020000000000000000000800020000000000000000000010000000000000000000000000000000000000000000000000000000000000010000000000000000000000000000000000000000004000000000000000000000000000000000000002000000800000000000000000000000000000080000000000000020000000000000000000000000000000000000000000000000000000000000000000",
      "type": "0x2",
      "transactionHash": "0x4d01f014de562802a92b078c2d81c8d93250d20c6d56ccfd5486efb0aab71b73",
      "transactionIndex": "0x6f",
      "blockHash": "0xde6a35e9f5d08eae6a6a339b0b4c5904d4ab1405fd0944f84a062bb539757cfc",
      "blockNumber": "0x731768",
      "gasUsed": "0xf207",
      "effectiveGasPrice": "0x48132893",
      "from": "0xc77f7fed3b5cc8249adc428c5f44c9063b9734b4",
      "to": "0x8aafd3ede9adb0ff97c7aebce82a919afb1c8764",
      "contractAddress": null
    }
  ],
  "libraries": [],
  "pending": [],
  "returns": {},
  "timestamp": 1737495973,
  "chain": 11155111,
  "commit": "1d2fb70"
}