{
  "transactions": [
    {
      "hash": "0xc461bb9663a284405061f34870b42131f42ef737d2624a47f2ecc1467f5edeb3",
      "transactionType": "CALL",
      "contractName": null,
      "contractAddress": "0x5eb9cc76c3506942c1c0ead70e877dd5e4f00cb0",
      "function": "sell(uint256)",
      "arguments": [
        "989142707616676117637"
      ],
      "transaction": {
        "from": "0xc77f7fed3b5cc8249adc428c5f44c9063b9734b4",
        "to": "0x5eb9cc76c3506942c1c0ead70e877dd5e4f00cb0",
        "gas": "0x16fec",
        "value": "0x0",
        "input": "0xe4849b320000000000000000000000000000000000000000000000359f1cd3dfec0cfc85",
        "nonce": "0x2f5",
        "chainId": "0xaa36a7"
      },
      "additionalContracts": [],
      "isFixedGasLimit": false
    }
  ],
  "receipts": [
    {
      "status": "0x1",
      "cumulativeGasUsed": "0xf334fd",
      "logs": [
        {
          "address": "0x5eb9cc76c3506942c1c0ead70e877dd5e4f00cb0",
          "topics": [
            "0xddf252ad1be2c89b69c2b068fc378daa952ba7f163c4a11628f55a4df523b3ef",
            "0x000000000000000000000000c77f7fed3b5cc8249adc428c5f44c9063b9734b4",
            "0x0000000000000000000000000000000000000000000000000000000000000000"
          ],
          "data": "0x0000000000000000000000000000000000000000000000359f1cd3dfec0cfc85",
          "blockHash": "0x59e1d4cee81f3864dffe6ab6b2b97be678747bd9b9932eaf5d5f5756948c1ce3",
          "blockNumber": "0x724ed5",
          "transactionHash": "0xc461bb9663a284405061f34870b42131f42ef737d2624a47f2ecc1467f5edeb3",
          "transactionIndex": "0x7c",
          "logIndex": "0xb3",
          "removed": false
        },
        {
          "address": "0x5eb9cc76c3506942c1c0ead70e877dd5e4f00cb0",
          "topics": [
            "0x4afcb4a87cdbd9974efdb92ee48bc8d7cd0ae4bf217004db3d080cbaee652ca7"
          ],
          "data": "0x000000000000000000000000000000000000000000000000000000006786a3b00000000000000000000000000000000000000000000000000003910b612f2f270000000000000000000000000000000000000000000000000dc7db13323370e0",
          "blockHash": "0x59e1d4cee81f3864dffe6ab6b2b97be678747bd9b9932eaf5d5f5756948c1ce3",
          "blockNumber": "0x724ed5",
          "transactionHash": "0xc461bb9663a284405061f34870b42131f42ef737d2624a47f2ecc1467f5edeb3",
          "transactionIndex": "0x7c",
          "logIndex": "0xb4",
          "removed": false
        }
      ],
      "logsBloom": "0x00000000000000000000000000000000000000000000000000000000000000000000000000000000000000000000000000000000000000004000000000000000000000000000000000000008000000000000000000000000000000000000000000000000020000000000000004000800020000000000000000000010000000000000000000000000000000000000000000000000000000000000010000000000000000000000000000000000000000004000000000000000000000000000020000000002000000800000008000000000000000000000080000000000000020000000000000000000000000000000000000000000000000000000000000000000",
      "type": "0x2",
      "transactionHash": "0xc461bb9663a284405061f34870b42131f42ef737d2624a47f2ecc1467f5edeb3",
      "transactionIndex": "0x7c",
      "blockHash": "0x59e1d4cee81f3864dffe6ab6b2b97be678747bd9b9932eaf5d5f5756948c1ce3",
      "blockNumber": "0x724ed5",
      "gasUsed": "0xfb93",
      "effectiveGasPrice": "0x65172fc3a",
      "from": "0xc77f7fed3b5cc8249adc428c5f44c9063b9734b4",
      "to": "0x5eb9cc76c3506942c1c0ead70e877dd5e4f00cb0",
      "contractAddress": null
    }
  ],
  "libraries": [],
  "pending": [],
  "returns": {},
  "timestamp": 1736876977,
  "chain": 11155111,
  "commit": "51a374b"
}