{
  "transactions": [
    {
      "hash": "0xc0e9375d0151357cd8bf5eff17e469ac9eece81d5cf374ce0272e5ff73b95072",
      "transactionType": "CALL",
      "contractName": null,
      "contractAddress": "0x5eb9cc76c3506942c1c0ead70e877dd5e4f00cb0",
      "function": "sell(uint256)",
      "arguments": [
        "989157050863697701697"
      ],
      "transaction": {
        "from": "0xc77f7fed3b5cc8249adc428c5f44c9063b9734b4",
        "to": "0x5eb9cc76c3506942c1c0ead70e877dd5e4f00cb0",
        "gas": "0x16fec",
        "value": "0x0",
        "input": "0xe4849b320000000000000000000000000000000000000000000000359f4fc8fb5bb2ab41",
        "nonce": "0x29b",
        "chainId": "0xaa36a7"
      },
      "additionalContracts": [],
      "isFixedGasLimit": false
    }
  ],
  "receipts": [
    {
      "status": "0x1",
      "cumulativeGasUsed": "0x95b8fc",
      "logs": [
        {
          "address": "0x5eb9cc76c3506942c1c0ead70e877dd5e4f00cb0",
          "topics": [
            "0xddf252ad1be2c89b69c2b068fc378daa952ba7f163c4a11628f55a4df523b3ef",
            "0x000000000000000000000000c77f7fed3b5cc8249adc428c5f44c9063b9734b4",
            "0x0000000000000000000000000000000000000000000000000000000000000000"
          ],
          "data": "0x0000000000000000000000000000000000000000000000359f4fc8fb5bb2ab41",
          "blockHash": "0xd2f75bed2216f15d2f15809125881354f33f9c93dd8527061b20314c1e64c4ec",
          "blockNumber": "0x724e71",
          "transactionHash": "0xc0e9375d0151357cd8bf5eff17e469ac9eece81d5cf374ce0272e5ff73b95072",
          "transactionIndex": "0x4a",
          "logIndex": "0x76",
          "removed": false
        },
        {
          "address": "0x5eb9cc76c3506942c1c0ead70e877dd5e4f00cb0",
          "topics": [
            "0x4afcb4a87cdbd9974efdb92ee48bc8d7cd0ae4bf217004db3d080cbaee652ca7"
          ],
          "data": "0x0000000000000000000000000000000000000000000000000000000067869f0000000000000000000000000000000000000000000000000000039107fd83fe280000000000000000000000000000000000000000000000000dc7db13324cf67e",
          "blockHash": "0xd2f75bed2216f15d2f15809125881354f33f9c93dd8527061b20314c1e64c4ec",
          "blockNumber": "0x724e71",
          "transactionHash": "0xc0e9375d0151357cd8bf5eff17e469ac9eece81d5cf374ce0272e5ff73b95072",
          "transactionIndex": "0x4a",
          "logIndex": "0x77",
          "removed": false
        }
      ],
      "logsBloom": "0x00000000000000000000000000000000000000000000000000000000000000000000000000000000000000000000000000000000000000004000000000000000000000000000000000000008000000000000000000000000000000000000000000000000020000000000000004000800020000000000000000000010000000000000000000000000000000000000000000000000000000000000010000000000000000000000000000000000000000004000000000000000000000000000020000000002000000800000008000000000000000000000080000000000000020000000000000000000000000000000000000000000000000000000000000000000",
      "type": "0x2",
      "transactionHash": "0xc0e9375d0151357cd8bf5eff17e469ac9eece81d5cf374ce0272e5ff73b95072",
      "transactionIndex": "0x4a",
      "blockHash": "0xd2f75bed2216f15d2f15809125881354f33f9c93dd8527061b20314c1e64c4ec",
      "blockNumber": "0x724e71",
      "gasUsed": "0xfb93",
      "effectiveGasPrice": "0x4737f8636",
      "from": "0xc77f7fed3b5cc8249adc428c5f44c9063b9734b4",
      "to": "0x5eb9cc76c3506942c1c0ead70e877dd5e4f00cb0",
      "contractAddress": null
    }
  ],
  "libraries": [],
  "pending": [],
  "returns": {},
  "timestamp": 1736875778,
  "chain": 11155111,
  "commit": "51a374b"
}