{
  "transactions": [
    {
      "hash": "0x74d16801be1dba208a0c86a2f2875bf832f5a2077bde74cb4fafd24c5f493390",
      "transactionType": "CALL",
      "contractName": null,
      "contractAddress": "0x5eb9cc76c3506942c1c0ead70e877dd5e4f00cb0",
      "function": "sell(uint256)",
      "arguments": [
        "989136332973741352495"
      ],
      "transaction": {
        "from": "0xc77f7fed3b5cc8249adc428c5f44c9063b9734b4",
        "to": "0x5eb9cc76c3506942c1c0ead70e877dd5e4f00cb0",
        "gas": "0x16fec",
        "value": "0x0",
        "input": "0xe4849b320000000000000000000000000000000000000000000000359f062e2bb45aa62f",
        "nonce": "0x31d",
        "chainId": "0xaa36a7"
      },
      "additionalContracts": [],
      "isFixedGasLimit": false
    }
  ],
  "receipts": [
    {
      "status": "0x1",
      "cumulativeGasUsed": "0xa4cb77",
      "logs": [
        {
          "address": "0x5eb9cc76c3506942c1c0ead70e877dd5e4f00cb0",
          "topics": [
            "0xddf252ad1be2c89b69c2b068fc378daa952ba7f163c4a11628f55a4df523b3ef",
            "0x000000000000000000000000c77f7fed3b5cc8249adc428c5f44c9063b9734b4",
            "0x0000000000000000000000000000000000000000000000000000000000000000"
          ],
          "data": "0x0000000000000000000000000000000000000000000000359f062e2bb45aa62f",
          "blockHash": "0xe5a7e813849c04b2daedda2b2ee6feff017063e4625893ce6e974889aebff245",
          "blockNumber": "0x724f03",
          "transactionHash": "0x74d16801be1dba208a0c86a2f2875bf832f5a2077bde74cb4fafd24c5f493390",
          "transactionIndex": "0x53",
          "logIndex": "0x7c",
          "removed": false
        },
        {
          "address": "0x5eb9cc76c3506942c1c0ead70e877dd5e4f00cb0",
          "topics": [
            "0x4afcb4a87cdbd9974efdb92ee48bc8d7cd0ae4bf217004db3d080cbaee652ca7"
          ],
          "data": "0x000000000000000000000000000000000000000000000000000000006786a5d80000000000000000000000000000000000000000000000000003910ce2d09a430000000000000000000000000000000000000000000000000dc7db133228191c",
          "blockHash": "0xe5a7e813849c04b2daedda2b2ee6feff017063e4625893ce6e974889aebff245",
          "blockNumber": "0x724f03",
          "transactionHash": "0x74d16801be1dba208a0c86a2f2875bf832f5a2077bde74cb4fafd24c5f493390",
          "transactionIndex": "0x53",
          "logIndex": "0x7d",
          "removed": false
        }
      ],
      "logsBloom": "0x00000000000000000000000000000000000000000000000000000000000000000000000000000000000000000000000000000000000000004000000000000000000000000000000000000008000000000000000000000000000000000000000000000000020000000000000004000800020000000000000000000010000000000000000000000000000000000000000000000000000000000000010000000000000000000000000000000000000000004000000000000000000000000000020000000002000000800000008000000000000000000000080000000000000020000000000000000000000000000000000000000000000000000000000000000000",
      "type": "0x2",
      "transactionHash": "0x74d16801be1dba208a0c86a2f2875bf832f5a2077bde74cb4fafd24c5f493390",
      "transactionIndex": "0x53",
      "blockHash": "0xe5a7e813849c04b2daedda2b2ee6feff017063e4625893ce6e974889aebff245",
      "blockNumber": "0x724f03",
      "gasUsed": "0xfb93",
      "effectiveGasPrice": "0x69df885d9",
      "from": "0xc77f7fed3b5cc8249adc428c5f44c9063b9734b4",
      "to": "0x5eb9cc76c3506942c1c0ead70e877dd5e4f00cb0",
      "contractAddress": null
    }
  ],
  "libraries": [],
  "pending": [],
  "returns": {},
  "timestamp": 1736877529,
  "chain": 11155111,
  "commit": "51a374b"
}