{
  "transactions": [
    {
      "hash": "0x8f04a7ee00218114de6ef42770cb9e8a51334d082eecc5fea9967ad85a597a34",
      "transactionType": "CALL",
      "contractName": null,
      "contractAddress": "0xbf4a322f1496e5c3d34a9bcdb4c60567b38c7de2",
      "function": "sell(uint256)",
      "arguments": [
        "992874396851676146811"
      ],
      "transaction": {
        "from": "0xc77f7fed3b5cc8249adc428c5f44c9063b9734b4",
        "to": "0xbf4a322f1496e5c3d34a9bcdb4c60567b38c7de2",
        "gas": "0x16fea",
        "value": "0x0",
        "input": "0xe4849b32000000000000000000000000000000000000000000000035d2e673766c606c7b",
        "nonce": "0x8d0",
        "chainId": "0xaa36a7"
      },
      "additionalContracts": [],
      "isFixedGasLimit": false
    }
  ],
  "receipts": [
    {
      "status": "0x1",
      "cumulativeGasUsed": "0x137550d",
      "logs": [
        {
          "address": "0xbf4a322f1496e5c3d34a9bcdb4c60567b38c7de2",
          "topics": [
            "0xddf252ad1be2c89b69c2b068fc378daa952ba7f163c4a11628f55a4df523b3ef",
            "0x000000000000000000000000c77f7fed3b5cc8249adc428c5f44c9063b9734b4",
            "0x0000000000000000000000000000000000000000000000000000000000000000"
          ],
          "data": "0x000000000000000000000000000000000000000000000035d2e673766c606c7b",
          "blockHash": "0xd76b96ef34aa3ed7760cb1640f55c43cec072c249000f7ef0a1f7f1300ad6709",
          "blockNumber": "0x72583d",
          "transactionHash": "0x8f04a7ee00218114de6ef42770cb9e8a51334d082eecc5fea9967ad85a597a34",
          "transactionIndex": "0x8e",
          "logIndex": "0x103",
          "removed": false
        },
        {
          "address": "0xbf4a322f1496e5c3d34a9bcdb4c60567b38c7de2",
          "topics": [
            "0x4afcb4a87cdbd9974efdb92ee48bc8d7cd0ae4bf217004db3d080cbaee652ca7"
          ],
          "data": "0x00000000000000000000000000000000000000000000000000000000678714fc00000000000000000000000000000000000000000000000000038da45457c7850000000000000000000000000000000000000000000000000dc7e57bbb044e96",
          "blockHash": "0xd76b96ef34aa3ed7760cb1640f55c43cec072c249000f7ef0a1f7f1300ad6709",
          "blockNumber": "0x72583d",
          "transactionHash": "0x8f04a7ee00218114de6ef42770cb9e8a51334d082eecc5fea9967ad85a597a34",
          "transactionIndex": "0x8e",
          "logIndex": "0x104",
          "removed": false
        }
      ],
      "logsBloom": "0x00000000000000000000000000000000000000000000000000000000000000000000000000000000000000000000000000000000000000004000000000000000000000000000000000000008000000000000001000000000000000000000000000000000020000000000000000000800020000000000000000000010000000000000000000000000000000000000000000000000000008000000010000000000000000000000000000000000000000004000000000000000000000000000000000000002000000800000000000001000000000000000080000000000000020000000000000000000000000000000000000000000000000000000000000000000",
      "type": "0x2",
      "transactionHash": "0x8f04a7ee00218114de6ef42770cb9e8a51334d082eecc5fea9967ad85a597a34",
      "transactionIndex": "0x8e",
      "blockHash": "0xd76b96ef34aa3ed7760cb1640f55c43cec072c249000f7ef0a1f7f1300ad6709",
      "blockNumber": "0x72583d",
      "gasUsed": "0xfb91",
      "effectiveGasPrice": "0x225b2206",
      "from": "0xc77f7fed3b5cc8249adc428c5f44c9063b9734b4",
      "to": "0xbf4a322f1496e5c3d34a9bcdb4c60567b38c7de2",
      "contractAddress": null
    }
  ],
  "libraries": [],
  "pending": [],
  "returns": {},
  "timestamp": 1736905982,
  "chain": 11155111,
  "commit": "51a374b"
}