{
  "transactions": [
    {
      "hash": "0x1335beda5e3cdbe365471923b329523d86e326ff91a978f70cf300e1bdb984b7",
      "transactionType": "CALL",
      "contractName": null,
      "contractAddress": "0x8aafd3ede9adb0ff97c7aebce82a919afb1c8764",
      "function": "sell(uint256)",
      "arguments": [
        "193879558"
      ],
      "transaction": {
        "from": "0xc77f7fed3b5cc8249adc428c5f44c9063b9734b4",
        "to": "0x8aafd3ede9adb0ff97c7aebce82a919afb1c8764",
        "gas": "0x14e6c",
        "value": "0x0",
        "input": "0xe4849b32000000000000000000000000000000000000000000000000000000000b8e5e06",
        "nonce": "0xfe5",
        "chainId": "0xaa36a7"
      },
      "additionalContracts": [],
      "isFixedGasLimit": false
    }
  ],
  "receipts": [
    {
      "status": "0x1",
      "cumulativeGasUsed": "0xb08dfc",
      "logs": [
        {
          "address": "0x8aafd3ede9adb0ff97c7aebce82a919afb1c8764",
          "topics": [
            "0xddf252ad1be2c89b69c2b068fc378daa952ba7f163c4a11628f55a4df523b3ef",
            "0x000000000000000000000000c77f7fed3b5cc8249adc428c5f44c9063b9734b4",
            "0x0000000000000000000000000000000000000000000000000000000000000000"
          ],
          "data": "0x000000000000000000000000000000000000000000000000000000000b76b34a",
          "blockHash": "0xae3c1df3ffc5e19709a090eb62741912971eb022a904f9b9523cd961d4d71712",
          "blockNumber": "0x731657",
          "transactionHash": "0x1335beda5e3cdbe365471923b329523d86e326ff91a978f70cf300e1bdb984b7",
          "transactionIndex": "0x86",
          "logIndex": "0x92",
          "removed": false
        },
        {
          "address": "0x8aafd3ede9adb0ff97c7aebce82a919afb1c8764",
          "topics": [
            "0xddf252ad1be2c89b69c2b068fc378daa952ba7f163c4a11628f55a4df523b3ef",
            "0x000000000000000000000000c77f7fed3b5cc8249adc428c5f44c9063b9734b4",
            "0x000000000000000000000000c77f7fed3b5cc8249adc428c5f44c9063b9734b4"
          ],
          "data": "0x000000000000000000000000000000000000000000000000000000000017aabc",
          "blockHash": "0xae3c1df3ffc5e19709a090eb62741912971eb022a904f9b9523cd961d4d71712",
          "blockNumber": "0x731657",
          "transactionHash": "0x1335beda5e3cdbe365471923b329523d86e326ff91a978f70cf300e1bdb984b7",
          "transactionIndex": "0x86",
          "logIndex": "0x93",
          "removed": false
        },
        {
          "address": "0x8aafd3ede9adb0ff97c7aebce82a919afb1c8764",
          "topics": [
            "0x4afcb4a87cdbd9974efdb92ee48bc8d7cd0ae4bf217004db3d080cbaee652ca7"
          ],
          "data": "0x00000000000000000000000000000000000000000000000000000000679008c00000000000000000000000000000000000000000000000000004c572e03efa69000000000000000000000000000000000000000000000000000000000003f91b",
          "blockHash": "0xae3c1df3ffc5e19709a090eb62741912971eb022a904f9b9523cd961d4d71712",
          "blockNumber": "0x731657",
          "transactionHash": "0x1335beda5e3cdbe365471923b329523d86e326ff91a978f70cf300e1bdb984b7",
          "transactionIndex": "0x86",
          "logIndex": "0x94",
          "removed": false
        }
      ],
      "logsBloom": "0x00000000000000000000000000000000000000000600000000000000000000000000000000000000000000000000000000000000000000004000000000000000000000000000004000000008000000000000000000000000000000000000000000000000020000000000000000000800020000000000000000000010000000000000000000000000000000000000000000000000000000000000010000000000000000000000000000000000000000004000000000000000000000000000000000000002000000800000000000000000000000000000080000000000000020000000000000000000000000000000000000000000000000000000000000000000",
      "type": "0x2",
      "transactionHash": "0x1335beda5e3cdbe365471923b329523d86e326ff91a978f70cf300e1bdb984b7",
      "transactionIndex": "0x86",
      "blockHash": "0xae3c1df3ffc5e19709a090eb62741912971eb022a904f9b9523cd961d4d71712",
      "blockNumber": "0x731657",
      "gasUsed": "0xf21f",
      "effectiveGasPrice": "0x4d85088d",
      "from": "0xc77f7fed3b5cc8249adc428c5f44c9063b9734b4",
      "to": "0x8aafd3ede9adb0ff97c7aebce82a919afb1c8764",
      "contractAddress": null
    }
  ],
  "libraries": [],
  "pending": [],
  "returns": {},
  "timestamp": 1737492672,
  "chain": 11155111,
  "commit": "1d2fb70"
}