{
  "transactions": [
    {
      "hash": "0x349b08088c3ffb81556dcb7695e028204c80619a05f30a3e0dcd2d8e85085180",
      "transactionType": "CALL",
      "contractName": null,
      "contractAddress": "0x5eb9cc76c3506942c1c0ead70e877dd5e4f00cb0",
      "function": "buy(address)",
      "arguments": [
        "0xC77f7fed3b5Cc8249aDc428c5F44C9063B9734b4"
      ],
      "transaction": {
        "from": "0xc77f7fed3b5cc8249adc428c5f44c9063b9734b4",
        "to": "0x5eb9cc76c3506942c1c0ead70e877dd5e4f00cb0",
        "gas": "0x1b30c",
        "value": "0xde0b6b3a7640000",
        "input": "0xf088d547000000000000000000000000c77f7fed3b5cc8249adc428c5f44c9063b9734b4",
        "nonce": "0x2d8",
        "chainId": "0xaa36a7"
      },
      "additionalContracts": [],
      "isFixedGasLimit": false
    }
  ],
  "receipts": [
    {
      "status": "0x1",
      "cumulativeGasUsed": "0xb69975",
      "logs": [
        {
          "address": "0x5eb9cc76c3506942c1c0ead70e877dd5e4f00cb0",
          "topics": [
            "0xddf252ad1be2c89b69c2b068fc378daa952ba7f163c4a11628f55a4df523b3ef",
            "0x0000000000000000000000000000000000000000000000000000000000000000",
            "0x000000000000000000000000c77f7fed3b5cc8249adc428c5f44c9063b9734b4"
          ],
          "data": "0x00000000000000000000000000000000000000000000003575a94c4e9bec6565",
          "blockHash": "0x4f0b4aa4fee5b93a2825e6fd873b9a9ea3b1428d781a1164bdcf1eefe234967c",
          "blockNumber": "0x724eb5",
          "transactionHash": "0x349b08088c3ffb81556dcb7695e028204c80619a05f30a3e0dcd2d8e85085180",
          "transactionIndex": "0x5b",
          "logIndex": "0x97",
          "removed": false
        },
        {
          "address": "0x5eb9cc76c3506942c1c0ead70e877dd5e4f00cb0",
          "topics": [
            "0xddf252ad1be2c89b69c2b068fc378daa952ba7f163c4a11628f55a4df523b3ef",
            "0x0000000000000000000000000000000000000000000000000000000000000000",
            "0x000000000000000000000000c77f7fed3b5cc8249adc428c5f44c9063b9734b4"
          ],
          "data": "0x000000000000000000000000000000000000000000000000298362013f79225b",
          "blockHash": "0x4f0b4aa4fee5b93a2825e6fd873b9a9ea3b1428d781a1164bdcf1eefe234967c",
          "blockNumber": "0x724eb5",
          "transactionHash": "0x349b08088c3ffb81556dcb7695e028204c80619a05f30a3e0dcd2d8e85085180",
          "transactionIndex": "0x5b",
          "logIndex": "0x98",
          "removed": false
        },
        {
          "address": "0x5eb9cc76c3506942c1c0ead70e877dd5e4f00cb0",
          "topics": [
            "0x4afcb4a87cdbd9974efdb92ee48bc8d7cd0ae4bf217004db3d080cbaee652ca7"
          ],
          "data": "0x000000000000000000000000000000000000000000000000000000006786a2300000000000000000000000000000000000000000000000000003910a46e984f80000000000000000000000000000000000000000000000000de0b6b3a7640000",
          "blockHash": "0x4f0b4aa4fee5b93a2825e6fd873b9a9ea3b1428d781a1164bdcf1eefe234967c",
          "blockNumber": "0x724eb5",
          "transactionHash": "0x349b08088c3ffb81556dcb7695e028204c80619a05f30a3e0dcd2d8e85085180",
          "transactionIndex": "0x5b",
          "logIndex": "0x99",
          "removed": false
        }
      ],
      "logsBloom": "0x00000000000000000000000000000000000000000000000000000000000000000000000000000000000000000000000000000000000000004000000000000000000000000000000000000008000000000000000000000000000000000000000000000000020000000000000004000800020000000000000000000010000000000000000000000000000000000000000000000000000000000000010000000000000000000000000000000000000000004000000000000000000000000000020000000002000000800000008000000000000000000000080000000000000020000000000000000000000000000000000000000000000000000000000000000000",
      "type": "0x2",
      "transactionHash": "0x349b08088c3ffb81556dcb7695e028204c80619a05f30a3e0dcd2d8e85085180",
      "transactionIndex": "0x5b",
      "blockHash": "0x4f0b4aa4fee5b93a2825e6fd873b9a9ea3b1428d781a1164bdcf1eefe234967c",
      "blockNumber": "0x724eb5",
      "gasUsed": "0x13af8",
      "effectiveGasPrice": "0x47da21040",
      "from": "0xc77f7fed3b5cc8249adc428c5f44c9063b9734b4",
      "to": "0x5eb9cc76c3506942c1c0ead70e877dd5e4f00cb0",
      "contractAddress": null
    }
  ],
  "libraries": [],
  "pending": [],
  "returns": {},
  "timestamp": 1736876593,
  "chain": 11155111,
  "commit": "51a374b"
}