{
  "transactions": [
    {
      "hash": "0x828c0450fd59e9de9f760310dc145913ca08c26a100f61df8f3aca1af9ed3f0e",
      "transactionType": "CALL",
      "contractName": null,
      "contractAddress": "0x8aafd3ede9adb0ff97c7aebce82a919afb1c8764",
      "function": "sell(uint256)",
      "arguments": [
        "3062821185210"
      ],
      "transaction": {
        "from": "0xc77f7fed3b5cc8249adc428c5f44c9063b9734b4",
        "to": "0x8aafd3ede9adb0ff97c7aebce82a919afb1c8764",
        "gas": "0x15daa",
        "value": "0x0",
        "input": "0xe4849b32000000000000000000000000000000000000000000000000000002c91e5e66ba",
        "nonce": "0xeb4",
        "chainId": "0xaa36a7"
      },
      "additionalContracts": [],
      "isFixedGasLimit": false
    }
  ],
  "receipts": [
    {
      "status": "0x1",
      "cumulativeGasUsed": "0xff0b1a",
      "logs": [
        {
          "address": "0x8aafd3ede9adb0ff97c7aebce82a919afb1c8764",
          "topics": [
            "0xddf252ad1be2c89b69c2b068fc378daa952ba7f163c4a11628f55a4df523b3ef",
            "0x000000000000000000000000c77f7fed3b5cc8249adc428c5f44c9063b9734b4",
            "0x0000000000000000000000000000000000000000000000000000000000000000"
          ],
          "data": "0x000000000000000000000000000000000000000000000000000002c369e6dcb1",
          "blockHash": "0xcda85bd057c22f45a5207ad71be4ad4ac84a1ff516fb774255b9263609e2e894",
          "blockNumber": "0x731417",
          "transactionHash": "0x828c0450fd59e9de9f760310dc145913ca08c26a100f61df8f3aca1af9ed3f0e",
          "transactionIndex": "0xa8",
          "logIndex": "0xb8",
          "removed": false
        },
        {
          "address": "0x8aafd3ede9adb0ff97c7aebce82a919afb1c8764",
          "topics": [
            "0xddf252ad1be2c89b69c2b068fc378daa952ba7f163c4a11628f55a4df523b3ef",
            "0x000000000000000000000000c77f7fed3b5cc8249adc428c5f44c9063b9734b4",
            "0x000000000000000000000000c77f7fed3b5cc8249adc428c5f44c9063b9734b4"
          ],
          "data": "0x00000000000000000000000000000000000000000000000000000005b4778a09",
          "blockHash": "0xcda85bd057c22f45a5207ad71be4ad4ac84a1ff516fb774255b9263609e2e894",
          "blockNumber": "0x731417",
          "transactionHash": "0x828c0450fd59e9de9f760310dc145913ca08c26a100f61df8f3aca1af9ed3f0e",
          "transactionIndex": "0xa8",
          "logIndex": "0xb9",
          "removed": false
        },
        {
          "address": "0x8aafd3ede9adb0ff97c7aebce82a919afb1c8764",
          "topics": [
            "0x4afcb4a87cdbd9974efdb92ee48bc8d7cd0ae4bf217004db3d080cbaee652ca7"
          ],
          "data": "0x00000000000000000000000000000000000000000000000000000000678fedc00000000000000000000000000000000000000000000000000004b832f5b36a6700000000000000000000000000000000000000000000000000000000f2840c85",
          "blockHash": "0xcda85bd057c22f45a5207ad71be4ad4ac84a1ff516fb774255b9263609e2e894",
          "blockNumber": "0x731417",
          "transactionHash": "0x828c0450fd59e9de9f760310dc145913ca08c26a100f61df8f3aca1af9ed3f0e",
          "transactionIndex": "0xa8",
          "logIndex": "0xba",
          "removed": false
        }
      ],
      "logsBloom": "0x00000000000000000000000000000000000000000600000000000000000000000000000000000000000000000000000000000000000000004000000000000000000000000000004000000008000000000000000000000000000000000000000000000000020000000000000000000800020000000000000000000010000000000000000000000000000000000000000000000000000000000000010000000000000000000000000000000000000000004000000000000000000000000000000000000002000000800000000000000000000000000000080000000000000020000000000000000000000000000000000000000000000000000000000000000000",
      "type": "0x2",
      "transactionHash": "0x828c0450fd59e9de9f760310dc145913ca08c26a100f61df8f3aca1af9ed3f0e",
      "transactionIndex": "0xa8",
      "blockHash": "0xcda85bd057c22f45a5207ad71be4ad4ac84a1ff516fb774255b9263609e2e894",
      "blockNumber": "0x731417",
      "gasUsed": "0xfd27",
      "effectiveGasPrice": "0x94105295",
      "from": "0xc77f7fed3b5cc8249adc428c5f44c9063b9734b4",
      "to": "0x8aafd3ede9adb0ff97c7aebce82a919afb1c8764",
      "contractAddress": null
    }
  ],
  "libraries": [],
  "pending": [],
  "returns": {},
  "timestamp": 1737485761,
  "chain": 11155111,
  "commit": "51a374b"
}