{
  "transactions": [
    {
      "hash": "0x95c0f5789cf672a58e9de269045d9c0313a11d0ff92750695638a851ab69107a",
      "transactionType": "CALL",
      "contractName": null,
      "contractAddress": "0x5eb9cc76c3506942c1c0ead70e877dd5e4f00cb0",
      "function": "buy(address)",
      "arguments": [
        "0xC77f7fed3b5Cc8249aDc428c5F44C9063B9734b4"
      ],
      "transaction": {
        "from": "0xc77f7fed3b5cc8249adc428c5f44c9063b9734b4",
        "to": "0x5eb9cc76c3506942c1c0ead70e877dd5e4f00cb0",
        "gas": "0x1b30c",
        "value": "0xde0b6b3a7640000",
        "input": "0xf088d547000000000000000000000000c77f7fed3b5cc8249adc428c5f44c9063b9734b4",
        "nonce": "0x276",
        "chainId": "0xaa36a7"
      },
      "additionalContracts": [],
      "isFixedGasLimit": false
    }
  ],
  "receipts": [
    {
      "status": "0x1",
      "cumulativeGasUsed": "0x10c1b40",
      "logs": [
        {
          "address": "0x5eb9cc76c3506942c1c0ead70e877dd5e4f00cb0",
          "topics": [
            "0xddf252ad1be2c89b69c2b068fc378daa952ba7f163c4a11628f55a4df523b3ef",
            "0x0000000000000000000000000000000000000000000000000000000000000000",
            "0x000000000000000000000000c77f7fed3b5cc8249adc428c5f44c9063b9734b4"
          ],
          "data": "0x0000000000000000000000000000000000000000000000357c0df16ab60daafd",
          "blockHash": "0xd8b6b08723fc4296481e6b6c62bbbb6a786058fc9036985a485945af8d83f3a8",
          "blockNumber": "0x724e3f",
          "transactionHash": "0x95c0f5789cf672a58e9de269045d9c0313a11d0ff92750695638a851ab69107a",
          "transactionIndex": "0x6d",
          "logIndex": "0xcd",
          "removed": false
        },
        {
          "address": "0x5eb9cc76c3506942c1c0ead70e877dd5e4f00cb0",
          "topics": [
            "0xddf252ad1be2c89b69c2b068fc378daa952ba7f163c4a11628f55a4df523b3ef",
            "0x0000000000000000000000000000000000000000000000000000000000000000",
            "0x000000000000000000000000c77f7fed3b5cc8249adc428c5f44c9063b9734b4"
          ],
          "data": "0x000000000000000000000000000000000000000000000000298858ea5efe8af1",
          "blockHash": "0xd8b6b08723fc4296481e6b6c62bbbb6a786058fc9036985a485945af8d83f3a8",
          "blockNumber": "0x724e3f",
          "transactionHash": "0x95c0f5789cf672a58e9de269045d9c0313a11d0ff92750695638a851ab69107a",
          "transactionIndex": "0x6d",
          "logIndex": "0xce",
          "removed": false
        },
        {
          "address": "0x5eb9cc76c3506942c1c0ead70e877dd5e4f00cb0",
          "topics": [
            "0x4afcb4a87cdbd9974efdb92ee48bc8d7cd0ae4bf217004db3d080cbaee652ca7"
          ],
          "data": "0x0000000000000000000000000000000000000000000000000000000067869ca80000000000000000000000000000000000000000000000000003909d232a5e320000000000000000000000000000000000000000000000000de0b6b3a7640000",
          "blockHash": "0xd8b6b08723fc4296481e6b6c62bbbb6a786058fc9036985a485945af8d83f3a8",
          "blockNumber": "0x724e3f",
          "transactionHash": "0x95c0f5789cf672a58e9de269045d9c0313a11d0ff92750695638a851ab69107a",
          "transactionIndex": "0x6d",
          "logIndex": "0xcf",
          "removed": false
        }
      ],
      "logsBloom": "0x00000000000000000000000000000000000000000000000000000000000000000000000000000000000000000000000000000000000000004000000000000000000000000000000000000008000000000000000000000000000000000000000000000000020000000000000004000800020000000000000000000010000000000000000000000000000000000000000000000000000000000000010000000000000000000000000000000000000000004000000000000000000000000000020000000002000000800000008000000000000000000000080000000000000020000000000000000000000000000000000000000000000000000000000000000000",
      "type": "0x2",
      "transactionHash": "0x95c0f5789cf672a58e9de269045d9c0313a11d0ff92750695638a851ab69107a",
      "transactionIndex": "0x6d",
      "blockHash": "0xd8b6b08723fc4296481e6b6c62bbbb6a786058fc9036985a485945af8d83f3a8",
      "blockNumber": "0x724e3f",
      "gasUsed": "0x13af8",
      "effectiveGasPrice": "0x38a2c6dda",
      "from": "0xc77f7fed3b5cc8249adc428c5f44c9063b9734b4",
      "to": "0x5eb9cc76c3506942c1c0ead70e877dd5e4f00cb0",
      "contractAddress": null
    }
  ],
  "libraries": [],
  "pending": [],
  "returns": {},
  "timestamp": 1736875178,
  "chain": 11155111,
  "commit": "51a374b"
}