{
  "transactions": [
    {
      "hash": "0x00f4790e7f7db993ee0f67644e1d4d2beea0e85fc504d951c6aad04f3095ae12",
      "transactionType": "CALL",
      "contractName": null,
      "contractAddress": "0x5eb9cc76c3506942c1c0ead70e877dd5e4f00cb0",
      "function": "sell(uint256)",
      "arguments": [
        "989077371421449008605"
      ],
      "transaction": {
        "from": "0xc77f7fed3b5cc8249adc428c5f44c9063b9734b4",
        "to": "0x5eb9cc76c3506942c1c0ead70e877dd5e4f00cb0",
        "gas": "0x16fec",
        "value": "0x0",
        "input": "0xe4849b320000000000000000000000000000000000000000000000359e34b4f3889035dd",
        "nonce": "0x48f",
        "chainId": "0xaa36a7"
      },
      "additionalContracts": [],
      "isFixedGasLimit": false
    }
  ],
  "receipts": [
    {
      "status": "0x1",
      "cumulativeGasUsed": "0x14cb836",
      "logs": [
        {
          "address": "0x5eb9cc76c3506942c1c0ead70e877dd5e4f00cb0",
          "topics": [
            "0xddf252ad1be2c89b69c2b068fc378daa952ba7f163c4a11628f55a4df523b3ef",
            "0x000000000000000000000000c77f7fed3b5cc8249adc428c5f44c9063b9734b4",
            "0x0000000000000000000000000000000000000000000000000000000000000000"
          ],
          "data": "0x0000000000000000000000000000000000000000000000359e34b4f3889035dd",
          "blockHash": "0x9718145bec6ab3e7b52977bd7001a4e2c4fc98ed7a7186690405e03822f43bf4",
          "blockNumber": "0x7250c2",
          "transactionHash": "0x00f4790e7f7db993ee0f67644e1d4d2beea0e85fc504d951c6aad04f3095ae12",
          "transactionIndex": "0x54",
          "logIndex": "0x95",
          "removed": false
        },
        {
          "address": "0x5eb9cc76c3506942c1c0ead70e877dd5e4f00cb0",
          "topics": [
            "0x4afcb4a87cdbd9974efdb92ee48bc8d7cd0ae4bf217004db3d080cbaee652ca7"
          ],
          "data": "0x000000000000000000000000000000000000000000000000000000006786bae40000000000000000000000000000000000000000000000000003911ad1e5b9120000000000000000000000000000000000000000000000000dc7db1331bf2f06",
          "blockHash": "0x9718145bec6ab3e7b52977bd7001a4e2c4fc98ed7a7186690405e03822f43bf4",
          "blockNumber": "0x7250c2",
          "transactionHash": "0x00f4790e7f7db993ee0f67644e1d4d2beea0e85fc504d951c6aad04f3095ae12",
          "transactionIndex": "0x54",
          "logIndex": "0x96",
          "removed": false
        }
      ],
      "logsBloom": "0x00000000000000000000000000000000000000000000000000000000000000000000000000000000000000000000000000000000000000004000000000000000000000000000000000000008000000000000000000000000000000000000000000000000020000000000000004000800020000000000000000000010000000000000000000000000000000000000000000000000000000000000010000000000000000000000000000000000000000004000000000000000000000000000020000000002000000800000008000000000000000000000080000000000000020000000000000000000000000000000000000000000000000000000000000000000",
      "type": "0x2",
      "transactionHash": "0x00f4790e7f7db993ee0f67644e1d4d2beea0e85fc504d951c6aad04f3095ae12",
      "transactionIndex": "0x54",
      "blockHash": "0x9718145bec6ab3e7b52977bd7001a4e2c4fc98ed7a7186690405e03822f43bf4",
      "blockNumber": "0x7250c2",
      "gasUsed": "0xfb93",
      "effectiveGasPrice": "0x21da8c2fb",
      "from": "0xc77f7fed3b5cc8249adc428c5f44c9063b9734b4",
      "to": "0x5eb9cc76c3506942c1c0ead70e877dd5e4f00cb0",
      "contractAddress": null
    }
  ],
  "libraries": [],
  "pending": [],
  "returns": {},
  "timestamp": 1736882917,
  "chain": 11155111,
  "commit": "51a374b"
}