{
  "transactions": [
    {
      "hash": "0x589dbbe331426ec7f0c1cae4331bda4597246584125bfd4e3f254aa709f86800",
      "transactionType": "CALL",
      "contractName": null,
      "contractAddress": "0x270e88f8683660553e8ba4eb2ad7c91a1710d769",
      "function": "buy(address)",
      "arguments": [
        "0xC77f7fed3b5Cc8249aDc428c5F44C9063B9734b4"
      ],
      "transaction": {
        "from": "0xc77f7fed3b5cc8249adc428c5f44c9063b9734b4",
        "to": "0x270e88f8683660553e8ba4eb2ad7c91a1710d769",
        "gas": "0x1b30c",
        "value": "0xde0b6b3a7640000",
        "input": "0xf088d547000000000000000000000000c77f7fed3b5cc8249adc428c5f44c9063b9734b4",
        "nonce": "0x667",
        "chainId": "0xaa36a7"
      },
      "additionalContracts": [],
      "isFixedGasLimit": false
    }
  ],
  "receipts": [
    {
      "status": "0x1",
      "cumulativeGasUsed": "0x46a040",
      "logs": [
        {
          "address": "0x270e88f8683660553e8ba4eb2ad7c91a1710d769",
          "topics": [
            "0xddf252ad1be2c89b69c2b068fc378daa952ba7f163c4a11628f55a4df523b3ef",
            "0x0000000000000000000000000000000000000000000000000000000000000000",
            "0x000000000000000000000000c77f7fed3b5cc8249adc428c5f44c9063b9734b4"
          ],
          "data": "0x00000000000000000000000000000000000000000000002908c78436d34214b4",
          "blockHash": "0x0e136939f38fbbecaedce7131706bae6392d90e008f276436c09129cef143576",
          "blockNumber": "0x725360",
          "transactionHash": "0x589dbbe331426ec7f0c1cae4331bda4597246584125bfd4e3f254aa709f86800",
          "transactionIndex": "0x32",
          "logIndex": "0x2f",
          "removed": false
        },
        {
          "address": "0x270e88f8683660553e8ba4eb2ad7c91a1710d769",
          "topics": [
            "0xddf252ad1be2c89b69c2b068fc378daa952ba7f163c4a11628f55a4df523b3ef",
            "0x0000000000000000000000000000000000000000000000000000000000000000",
            "0x000000000000000000000000c77f7fed3b5cc8249adc428c5f44c9063b9734b4"
          ],
          "data": "0x0000000000000000000000000000000000000000000000001fdd51ca22934aa2",
          "blockHash": "0x0e136939f38fbbecaedce7131706bae6392d90e008f276436c09129cef143576",
          "blockNumber": "0x725360",
          "transactionHash": "0x589dbbe331426ec7f0c1cae4331bda4597246584125bfd4e3f254aa709f86800",
          "transactionIndex": "0x32",
          "logIndex": "0x30",
          "removed": false
        },
        {
          "address": "0x270e88f8683660553e8ba4eb2ad7c91a1710d769",
          "topics": [
            "0x4afcb4a87cdbd9974efdb92ee48bc8d7cd0ae4bf217004db3d080cbaee652ca7"
          ],
          "data": "0x000000000000000000000000000000000000000000000000000000006786da880000000000000000000000000000000000000000000000000004a59dc735e5920000000000000000000000000000000000000000000000000de0b6b3a7640000",
          "blockHash": "0x0e136939f38fbbecaedce7131706bae6392d90e008f276436c09129cef143576",
          "blockNumber": "0x725360",
          "transactionHash": "0x589dbbe331426ec7f0c1cae4331bda4597246584125bfd4e3f254aa709f86800",
          "transactionIndex": "0x32",
          "logIndex": "0x31",
          "removed": false
        }
      ],
      "logsBloom": "0x00000000000000000000000000000000000000000000000000000000000000000000000000000000000000000000000020000000000000004000000000000000000000000000000000000008000000000000000000000000000000000000000000000000020000000000000000000800020000000000000000000010000000000000000000010000000000000000000000000000000000000000010000000000000000000000000000000000000000004000000000000000000000000000000000000002000000800000000000000000000000000000080000008000000020000000000000000000000000000000000000000000000000000000000000000000",
      "type": "0x2",
      "transactionHash": "0x589dbbe331426ec7f0c1cae4331bda4597246584125bfd4e3f254aa709f86800",
      "transactionIndex": "0x32",
      "blockHash": "0x0e136939f38fbbecaedce7131706bae6392d90e008f276436c09129cef143576",
      "blockNumber": "0x725360",
      "gasUsed": "0x13af8",
      "effectiveGasPrice": "0x36c3846ed",
      "from": "0xc77f7fed3b5cc8249adc428c5f44c9063b9734b4",
      "to": "0x270e88f8683660553e8ba4eb2ad7c91a1710d769",
      "contractAddress": null
    }
  ],
  "libraries": [],
  "pending": [],
  "returns": {},
  "timestamp": 1736891017,
  "chain": 11155111,
  "commit": "51a374b"
}