{
  "transactions": [
    {
      "hash": "0xd8d61815949176f6bb69618c0e4ab00d4c11ee0a01af4b8e913c6694bc813e5d",
      "transactionType": "CALL",
      "contractName": null,
      "contractAddress": "0x8aafd3ede9adb0ff97c7aebce82a919afb1c8764",
      "function": "sell(uint256)",
      "arguments": [
        "9045087788"
      ],
      "transaction": {
        "from": "0xc77f7fed3b5cc8249adc428c5f44c9063b9734b4",
        "to": "0x8aafd3ede9adb0ff97c7aebce82a919afb1c8764",
        "gas": "0x1722a",
        "value": "0x0",
        "input": "0xe4849b32000000000000000000000000000000000000000000000000000000021b21162c",
        "nonce": "0x1393",
        "chainId": "0xaa36a7"
      },
      "additionalContracts": [],
      "isFixedGasLimit": false
    }
  ],
  "receipts": [
    {
      "status": "0x1",
      "cumulativeGasUsed": "0x13fc230",
      "logs": [
        {
          "address": "0x8aafd3ede9adb0ff97c7aebce82a919afb1c8764",
          "topics": [
            "0xddf252ad1be2c89b69c2b068fc378daa952ba7f163c4a11628f55a4df523b3ef",
            "0x000000000000000000000000c77f7fed3b5cc8249adc428c5f44c9063b9734b4",
            "0x0000000000000000000000000000000000000000000000000000000000000000"
          ],
          "data": "0x0000000000000000000000000000000000000000000000000000000216d0f32e",
          "blockHash": "0x0f3d559d944afe1c4c2eb12bc6a3f6460630f2f4169a5d4fe6ca51dc34eebb1f",
          "blockNumber": "0x731ab7",
          "transactionHash": "0xd8d61815949176f6bb69618c0e4ab00d4c11ee0a01af4b8e913c6694bc813e5d",
          "transactionIndex": "0xa3",
          "logIndex": "0x75",
          "removed": false
        },
        {
          "address": "0x8aafd3ede9adb0ff97c7aebce82a919afb1c8764",
          "topics": [
            "0xddf252ad1be2c89b69c2b068fc378daa952ba7f163c4a11628f55a4df523b3ef",
            "0x000000000000000000000000c77f7fed3b5cc8249adc428c5f44c9063b9734b4",
            "0x000000000000000000000000c77f7fed3b5cc8249adc428c5f44c9063b9734b4"
          ],
          "data": "0x00000000000000000000000000000000000000000000000000000000045022fe",
          "blockHash": "0x0f3d559d944afe1c4c2eb12bc6a3f6460630f2f4169a5d4fe6ca51dc34eebb1f",
          "blockNumber": "0x731ab7",
          "transactionHash": "0xd8d61815949176f6bb69618c0e4ab00d4c11ee0a01af4b8e913c6694bc813e5d",
          "transactionIndex": "0xa3",
          "logIndex": "0x76",
          "removed": false
        },
        {
          "address": "0x8aafd3ede9adb0ff97c7aebce82a919afb1c8764",
          "topics": [
            "0x4afcb4a87cdbd9974efdb92ee48bc8d7cd0ae4bf217004db3d080cbaee652ca7"
          ],
          "data": "0x0000000000000000000000000000000000000000000000000000000067903d64000000000000000000000000000000000000000000000000000ce1ec5deed5ab0000000000000000000000000000000000000000000000000000000001f476e6",
          "blockHash": "0x0f3d559d944afe1c4c2eb12bc6a3f6460630f2f4169a5d4fe6ca51dc34eebb1f",
          "blockNumber": "0x731ab7",
          "transactionHash": "0xd8d61815949176f6bb69618c0e4ab00d4c11ee0a01af4b8e913c6694bc813e5d",
          "transactionIndex": "0xa3",
          "logIndex": "0x77",
          "removed": false
        }
      ],
      "logsBloom": "0x00000000000000000000000000000000000000000600000000000000000000000000000000000000000000000000000000000000000000004000000000000000000000000000004000000008000000000000000000000000000000000000000000000000020000000000000000000800020000000000000000000010000000000000000000000000000000000000000000000000000000000000010000000000000000000000000000000000000000004000000000000000000000000000000000000002000000800000000000000000000000000000080000000000000020000000000000000000000000000000000000000000000000000000000000000000",
      "type": "0x2",
      "transactionHash": "0xd8d61815949176f6bb69618c0e4ab00d4c11ee0a01af4b8e913c6694bc813e5d",
      "transactionIndex": "0xa3",
      "blockHash": "0x0f3d559d944afe1c4c2eb12bc6a3f6460630f2f4169a5d4fe6ca51dc34eebb1f",
      "blockNumber": "0x731ab7",
      "gasUsed": "0xfd1b",
      "effectiveGasPrice": "0x63f59f24",
      "from": "0xc77f7fed3b5cc8249adc428c5f44c9063b9734b4",
      "to": "0x8aafd3ede9adb0ff97c7aebce82a919afb1c8764",
      "contractAddress": null
    }
  ],
  "libraries": [],
  "pending": [],
  "returns": {},
  "timestamp": 1737506149,
  "chain": 11155111,
  "commit": "1d2fb70"
}