{
  "transactions": [
    {
      "hash": "0x434a258c2fa88f99330776b5b9259b8f5be0fd2edd5a554f2845b45f6c6ad5f6",
      "transactionType": "CALL",
      "contractName": null,
      "contractAddress": "0x8aafd3ede9adb0ff97c7aebce82a919afb1c8764",
      "function": "sell(uint256)",
      "arguments": [
        "4857761709"
      ],
      "transaction": {
        "from": "0xc77f7fed3b5cc8249adc428c5f44c9063b9734b4",
        "to": "0x8aafd3ede9adb0ff97c7aebce82a919afb1c8764",
        "gas": "0x1722a",
        "value": "0x0",
        "input": "0xe4849b3200000000000000000000000000000000000000000000000000000001218b8fad",
        "nonce": "0x174d",
        "chainId": "0xaa36a7"
      },
      "additionalContracts": [],
      "isFixedGasLimit": false
    }
  ],
  "receipts": [
    {
      "status": "0x1",
      "cumulativeGasUsed": "0x713fb3",
      "logs": [
        {
          "address": "0x8aafd3ede9adb0ff97c7aebce82a919afb1c8764",
          "topics": [
            "0xddf252ad1be2c89b69c2b068fc378daa952ba7f163c4a11628f55a4df523b3ef",
            "0x000000000000000000000000c77f7fed3b5cc8249adc428c5f44c9063b9734b4",
            "0x0000000000000000000000000000000000000000000000000000000000000000"
          ],
          "data": "0x000000000000000000000000000000000000000000000000000000011f3a92a0",
          "blockHash": "0x3e590e34525e64a79a850a8b53e504fe7c6996aed495ad1aefb7d556bd2436b9",
          "blockNumber": "0x731f1c",
          "transactionHash": "0x434a258c2fa88f99330776b5b9259b8f5be0fd2edd5a554f2845b45f6c6ad5f6",
          "transactionIndex": "0x55",
          "logIndex": "0x61",
          "removed": false
        },
        {
          "address": "0x8aafd3ede9adb0ff97c7aebce82a919afb1c8764",
          "topics": [
            "0xddf252ad1be2c89b69c2b068fc378daa952ba7f163c4a11628f55a4df523b3ef",
            "0x000000000000000000000000c77f7fed3b5cc8249adc428c5f44c9063b9734b4",
            "0x000000000000000000000000c77f7fed3b5cc8249adc428c5f44c9063b9734b4"
          ],
          "data": "0x000000000000000000000000000000000000000000000000000000000250fd0d",
          "blockHash": "0x3e590e34525e64a79a850a8b53e504fe7c6996aed495ad1aefb7d556bd2436b9",
          "blockNumber": "0x731f1c",
          "transactionHash": "0x434a258c2fa88f99330776b5b9259b8f5be0fd2edd5a554f2845b45f6c6ad5f6",
          "transactionIndex": "0x55",
          "logIndex": "0x62",
          "removed": false
        },
        {
          "address": "0x8aafd3ede9adb0ff97c7aebce82a919afb1c8764",
          "topics": [
            "0x4afcb4a87cdbd9974efdb92ee48bc8d7cd0ae4bf217004db3d080cbaee652ca7"
          ],
          "data": "0x00000000000000000000000000000000000000000000000000000000679072380000000000000000000000000000000000000000000000000017e708bda0ced70000000000000000000000000000000000000000000000000000000001f2b315",
          "blockHash": "0x3e590e34525e64a79a850a8b53e504fe7c6996aed495ad1aefb7d556bd2436b9",
          "blockNumber": "0x731f1c",
          "transactionHash": "0x434a258c2fa88f99330776b5b9259b8f5be0fd2edd5a554f2845b45f6c6ad5f6",
          "transactionIndex": "0x55",
          "logIndex": "0x63",
          "removed": false
        }
      ],
      "logsBloom": "0x00000000000000000000000000000000000000000600000000000000000000000000000000000000000000000000000000000000000000004000000000000000000000000000004000000008000000000000000000000000000000000000000000000000020000000000000000000800020000000000000000000010000000000000000000000000000000000000000000000000000000000000010000000000000000000000000000000000000000004000000000000000000000000000000000000002000000800000000000000000000000000000080000000000000020000000000000000000000000000000000000000000000000000000000000000000",
      "type": "0x2",
      "transactionHash": "0x434a258c2fa88f99330776b5b9259b8f5be0fd2edd5a554f2845b45f6c6ad5f6",
      "transactionIndex": "0x55",
      "blockHash": "0x3e590e34525e64a79a850a8b53e504fe7c6996aed495ad1aefb7d556bd2436b9",
      "blockNumber": "0x731f1c",
      "gasUsed": "0xfd1b",
      "effectiveGasPrice": "0x41084c75",
      "from": "0xc77f7fed3b5cc8249adc428c5f44c9063b9734b4",
      "to": "0x8aafd3ede9adb0ff97c7aebce82a919afb1c8764",
      "contractAddress": null
    }
  ],
  "libraries": [],
  "pending": [],
  "returns": {},
  "timestamp": 1737519674,
  "chain": 11155111,
  "commit": "1d2fb70"
}