{
  "transactions": [
    {
      "hash": "0x0d439f4e422a7cb75cfdeb02e08b08598d63fae43493ea87574aa193e7c3dbd9",
      "transactionType": "CALL",
      "contractName": null,
      "contractAddress": "0x8aafd3ede9adb0ff97c7aebce82a919afb1c8764",
      "function": "sell(uint256)",
      "arguments": [
        "5929349360"
      ],
      "transaction": {
        "from": "0xc77f7fed3b5cc8249adc428c5f44c9063b9734b4",
        "to": "0x8aafd3ede9adb0ff97c7aebce82a919afb1c8764",
        "gas": "0x1722a",
        "value": "0x0",
        "input": "0xe4849b3200000000000000000000000000000000000000000000000000000001616ab0f0",
        "nonce": "0x15dc",
        "chainId": "0xaa36a7"
      },
      "additionalContracts": [],
      "isFixedGasLimit": false
    }
  ],
  "receipts": [
    {
      "status": "0x1",
      "cumulativeGasUsed": "0xeb5014",
      "logs": [
        {
          "address": "0x8aafd3ede9adb0ff97c7aebce82a919afb1c8764",
          "topics": [
            "0xddf252ad1be2c89b69c2b068fc378daa952ba7f163c4a11628f55a4df523b3ef",
            "0x000000000000000000000000c77f7fed3b5cc8249adc428c5f44c9063b9734b4",
            "0x0000000000000000000000000000000000000000000000000000000000000000"
          ],
          "data": "0x000000000000000000000000000000000000000000000000000000015e96e4c6",
          "blockHash": "0xffdf0c9dc4c2c2908c3e2a170b60eab981912d893e5d675f17736d7eec2166aa",
          "blockNumber": "0x731d5d",
          "transactionHash": "0x0d439f4e422a7cb75cfdeb02e08b08598d63fae43493ea87574aa193e7c3dbd9",
          "transactionIndex": "0x7d",
          "logIndex": "0xe3",
          "removed": false
        },
        {
          "address": "0x8aafd3ede9adb0ff97c7aebce82a919afb1c8764",
          "topics": [
            "0xddf252ad1be2c89b69c2b068fc378daa952ba7f163c4a11628f55a4df523b3ef",
            "0x000000000000000000000000c77f7fed3b5cc8249adc428c5f44c9063b9734b4",
            "0x000000000000000000000000c77f7fed3b5cc8249adc428c5f44c9063b9734b4"
          ],
          "data": "0x0000000000000000000000000000000000000000000000000000000002d3cc2a",
          "blockHash": "0xffdf0c9dc4c2c2908c3e2a170b60eab981912d893e5d675f17736d7eec2166aa",
          "blockNumber": "0x731d5d",
          "transactionHash": "0x0d439f4e422a7cb75cfdeb02e08b08598d63fae43493ea87574aa193e7c3dbd9",
          "transactionIndex": "0x7d",
          "logIndex": "0xe4",
          "removed": false
        },
        {
          "address": "0x8aafd3ede9adb0ff97c7aebce82a919afb1c8764",
          "topics": [
            "0x4afcb4a87cdbd9974efdb92ee48bc8d7cd0ae4bf217004db3d080cbaee652ca7"
          ],
          "data": "0x0000000000000000000000000000000000000000000000000000000067905d44000000000000000000000000000000000000000000000000001399ccb4c1d9260000000000000000000000000000000000000000000000000000000001f32919",
          "blockHash": "0xffdf0c9dc4c2c2908c3e2a170b60eab981912d893e5d675f17736d7eec2166aa",
          "blockNumber": "0x731d5d",
          "transactionHash": "0x0d439f4e422a7cb75cfdeb02e08b08598d63fae43493ea87574aa193e7c3dbd9",
          "transactionIndex": "0x7d",
          "logIndex": "0xe5",
          "removed": false
        }
      ],
      "logsBloom": "0x00000000000000000000000000000000000000000600000000000000000000000000000000000000000000000000000000000000000000004000000000000000000000000000004000000008000000000000000000000000000000000000000000000000020000000000000000000800020000000000000000000010000000000000000000000000000000000000000000000000000000000000010000000000000000000000000000000000000000004000000000000000000000000000000000000002000000800000000000000000000000000000080000000000000020000000000000000000000000000000000000000000000000000000000000000000",
      "type": "0x2",
      "transactionHash": "0x0d439f4e422a7cb75cfdeb02e08b08598d63fae43493ea87574aa193e7c3dbd9",
      "transactionIndex": "0x7d",
      "blockHash": "0xffdf0c9dc4c2c2908c3e2a170b60eab981912d893e5d675f17736d7eec2166aa",
      "blockNumber": "0x731d5d",
      "gasUsed": "0xfd1b",
      "effectiveGasPrice": "0x5feada6a",
      "from": "0xc77f7fed3b5cc8249adc428c5f44c9063b9734b4",
      "to": "0x8aafd3ede9adb0ff97c7aebce82a919afb1c8764",
      "contractAddress": null
    }
  ],
  "libraries": [],
  "pending": [],
  "returns": {},
  "timestamp": 1737514311,
  "chain": 11155111,
  "commit": "1d2fb70"
}