{
  "transactions": [
    {
      "hash": "0xf1a32e543f4ddb0524df4ef02d7115afec7dccadcb14c59428dfb2e6ba5b8573",
      "transactionType": "CALL",
      "contractName": null,
      "contractAddress": "0xbf4a322f1496e5c3d34a9bcdb4c60567b38c7de2",
      "function": "sell(uint256)",
      "arguments": [
        "978591519289778516429"
      ],
      "transaction": {
        "from": "0xc77f7fed3b5cc8249adc428c5f44c9063b9734b4",
        "to": "0xbf4a322f1496e5c3d34a9bcdb4c60567b38c7de2",
        "gas": "0x16fea",
        "value": "0x0",
        "input": "0xe4849b320000000000000000000000000000000000000000000000350caf79fe751231cd",
        "nonce": "0xc81",
        "chainId": "0xaa36a7"
      },
      "additionalContracts": [],
      "isFixedGasLimit": false
    }
  ],
  "receipts": [
    {
      "status": "0x1",
      "cumulativeGasUsed": "0x8370f6",
      "logs": [
        {
          "address": "0xbf4a322f1496e5c3d34a9bcdb4c60567b38c7de2",
          "topics": [
            "0xddf252ad1be2c89b69c2b068fc378daa952ba7f163c4a11628f55a4df523b3ef",
            "0x000000000000000000000000c77f7fed3b5cc8249adc428c5f44c9063b9734b4",
            "0x0000000000000000000000000000000000000000000000000000000000000000"
          ],
          "data": "0x0000000000000000000000000000000000000000000000350caf79fe751231cd",
          "blockHash": "0x7d273771e963217a6af86992e520aa40f5ea46f810c9121849da6a80a0ea84fe",
          "blockNumber": "0x725cc1",
          "transactionHash": "0xf1a32e543f4ddb0524df4ef02d7115afec7dccadcb14c59428dfb2e6ba5b8573",
          "transactionIndex": "0x58",
          "logIndex": "0x79",
          "removed": false
        },
        {
          "address": "0xbf4a322f1496e5c3d34a9bcdb4c60567b38c7de2",
          "topics": [
            "0x4afcb4a87cdbd9974efdb92ee48bc8d7cd0ae4bf217004db3d080cbaee652ca7"
          ],
          "data": "0x0000000000000000000000000000000000000000000000000000000067874b8000000000000000000000000000000000000000000000000000039ae9f30ebbab0000000000000000000000000000000000000000000000000dc7e3decaa31567",
          "blockHash": "0x7d273771e963217a6af86992e520aa40f5ea46f810c9121849da6a80a0ea84fe",
          "blockNumber": "0x725cc1",
          "transactionHash": "0xf1a32e543f4ddb0524df4ef02d7115afec7dccadcb14c59428dfb2e6ba5b8573",
          "transactionIndex": "0x58",
          "logIndex": "0x7a",
          "removed": false
        }
      ],
      "logsBloom": "0x00000000000000000000000000000000000000000000000000000000000000000000000000000000000000000000000000000000000000004000000000000000000000000000000000000008000000000000001000000000000000000000000000000000020000000000000000000800020000000000000000000010000000000000000000000000000000000000000000000000000008000000010000000000000000000000000000000000000000004000000000000000000000000000000000000002000000800000000000001000000000000000080000000000000020000000000000000000000000000000000000000000000000000000000000000000",
      "type": "0x2",
      "transactionHash": "0xf1a32e543f4ddb0524df4ef02d7115afec7dccadcb14c59428dfb2e6ba5b8573",
      "transactionIndex": "0x58",
      "blockHash": "0x7d273771e963217a6af86992e520aa40f5ea46f810c9121849da6a80a0ea84fe",
      "blockNumber": "0x725cc1",
      "gasUsed": "0xfb91",
      "effectiveGasPrice": "0x28faa198b",
      "from": "0xc77f7fed3b5cc8249adc428c5f44c9063b9734b4",
      "to": "0xbf4a322f1496e5c3d34a9bcdb4c60567b38c7de2",
      "contractAddress": null
    }
  ],
  "libraries": [],
  "pending": [],
  "returns": {},
  "timestamp": 1736919938,
  "chain": 11155111,
  "commit": "51a374b"
}