{
  "transactions": [
    {
      "hash": "0x94d3c29056356e2dd63787197ad6af51dfda040fde01c31174731f8934f63bfd",
      "transactionType": "CALL",
      "contractName": null,
      "contractAddress": "0x8aafd3ede9adb0ff97c7aebce82a919afb1c8764",
      "function": "sell(uint256)",
      "arguments": [
        "1916424475613838839"
      ],
      "transaction": {
        "from": "0xc77f7fed3b5cc8249adc428c5f44c9063b9734b4",
        "to": "0x8aafd3ede9adb0ff97c7aebce82a919afb1c8764",
        "gas": "0x15dca",
        "value": "0x0",
        "input": "0xe4849b320000000000000000000000000000000000000000000000001a9881e82bd3bdf7",
        "nonce": "0x143a",
        "chainId": "0xaa36a7"
      },
      "additionalContracts": [],
      "isFixedGasLimit": false
    }
  ],
  "receipts": [
    {
      "status": "0x1",
      "cumulativeGasUsed": "0x1c28c14",
      "logs": [
        {
          "address": "0x8aafd3ede9adb0ff97c7aebce82a919afb1c8764",
          "topics": [
            "0xddf252ad1be2c89b69c2b068fc378daa952ba7f163c4a11628f55a4df523b3ef",
            "0x000000000000000000000000c77f7fed3b5cc8249adc428c5f44c9063b9734b4",
            "0x0000000000000000000000000000000000000000000000000000000000000000"
          ],
          "data": "0x0000000000000000000000000000000000000000000000001a620a156af6e981",
          "blockHash": "0xdf5b6415733ebbaad6d991bfbe290e3a282f5cdcd6cd1d89813a9057b4f5262c",
          "blockNumber": "0x731b7b",
          "transactionHash": "0x94d3c29056356e2dd63787197ad6af51dfda040fde01c31174731f8934f63bfd",
          "transactionIndex": "0xef",
          "logIndex": "0x10a",
          "removed": false
        },
        {
          "address": "0x8aafd3ede9adb0ff97c7aebce82a919afb1c8764",
          "topics": [
            "0xddf252ad1be2c89b69c2b068fc378daa952ba7f163c4a11628f55a4df523b3ef",
            "0x000000000000000000000000c77f7fed3b5cc8249adc428c5f44c9063b9734b4",
            "0x000000000000000000000000c77f7fed3b5cc8249adc428c5f44c9063b9734b4"
          ],
          "data": "0x000000000000000000000000000000000000000000000000003677d2c0dcd476",
          "blockHash": "0xdf5b6415733ebbaad6d991bfbe290e3a282f5cdcd6cd1d89813a9057b4f5262c",
          "blockNumber": "0x731b7b",
          "transactionHash": "0x94d3c29056356e2dd63787197ad6af51dfda040fde01c31174731f8934f63bfd",
          "transactionIndex": "0xef",
          "logIndex": "0x10b",
          "removed": false
        },
        {
          "address": "0x8aafd3ede9adb0ff97c7aebce82a919afb1c8764",
          "topics": [
            "0x4afcb4a87cdbd9974efdb92ee48bc8d7cd0ae4bf217004db3d080cbaee652ca7"
          ],
          "data": "0x00000000000000000000000000000000000000000000000000000000679046a0000000000000000000000000000000000000000000000000000ed4671c19771a000000000000000000000000000000000000000000000000001c6b36464015fc",
          "blockHash": "0xdf5b6415733ebbaad6d991bfbe290e3a282f5cdcd6cd1d89813a9057b4f5262c",
          "blockNumber": "0x731b7b",
          "transactionHash": "0x94d3c29056356e2dd63787197ad6af51dfda040fde01c31174731f8934f63bfd",
          "transactionIndex": "0xef",
          "logIndex": "0x10c",
          "removed": false
        }
      ],
      "logsBloom": "0x00000000000000000000000000000000000000000600000000000000000000000000000000000000000000000000000000000000000000004000000000000000000000000000004000000008000000000000000000000000000000000000000000000000020000000000000000000800020000000000000000000010000000000000000000000000000000000000000000000000000000000000010000000000000000000000000000000000000000004000000000000000000000000000000000000002000000800000000000000000000000000000080000000000000020000000000000000000000000000000000000000000000000000000000000000000",
      "type": "0x2",
      "transactionHash": "0x94d3c29056356e2dd63787197ad6af51dfda040fde01c31174731f8934f63bfd",
      "transactionIndex": "0xef",
      "blockHash": "0xdf5b6415733ebbaad6d991bfbe290e3a282f5cdcd6cd1d89813a9057b4f5262c",
      "blockNumber": "0x731b7b",
      "gasUsed": "0xfd3f",
      "effectiveGasPrice": "0xf1ce7fb7",
      "from": "0xc77f7fed3b5cc8249adc428c5f44c9063b9734b4",
      "to": "0x8aafd3ede9adb0ff97c7aebce82a919afb1c8764",
      "contractAddress": null
    }
  ],
  "libraries": [],
  "pending": [],
  "returns": {},
  "timestamp": 1737508513,
  "chain": 11155111,
  "commit": "1d2fb70"
}