{
  "transactions": [
    {
      "hash": "0x793bf3b27bf6e80cdf3560fcbb92844df08ec8b204e8e6c2da241267df440e22",
      "transactionType": "CALL",
      "contractName": null,
      "contractAddress": "0x8aafd3ede9adb0ff97c7aebce82a919afb1c8764",
      "function": "sell(uint256)",
      "arguments": [
        "14052257218570054"
      ],
      "transaction": {
        "from": "0xc77f7fed3b5cc8249adc428c5f44c9063b9734b4",
        "to": "0x8aafd3ede9adb0ff97c7aebce82a919afb1c8764",
        "gas": "0x1724d",
        "value": "0x0",
        "input": "0xe4849b320000000000000000000000000000000000000000000000000031ec7417ce2746",
        "nonce": "0x14b0",
        "chainId": "0xaa36a7"
      },
      "additionalContracts": [],
      "isFixedGasLimit": false
    }
  ],
  "receipts": [
    {
      "status": "0x1",
      "cumulativeGasUsed": "0x1a2aea",
      "logs": [
        {
          "address": "0x8aafd3ede9adb0ff97c7aebce82a919afb1c8764",
          "topics": [
            "0xddf252ad1be2c89b69c2b068fc378daa952ba7f163c4a11628f55a4df523b3ef",
            "0x000000000000000000000000c77f7fed3b5cc8249adc428c5f44c9063b9734b4",
            "0x0000000000000000000000000000000000000000000000000000000000000000"
          ],
          "data": "0x00000000000000000000000000000000000000000000000000318635b96826f6",
          "blockHash": "0x6313e12d1b5537530e699c9b3f0fd3b3b727e93fb9409d40090943b6fd0fad43",
          "blockNumber": "0x731c07",
          "transactionHash": "0x793bf3b27bf6e80cdf3560fcbb92844df08ec8b204e8e6c2da241267df440e22",
          "transactionIndex": "0x13",
          "logIndex": "0x1b",
          "removed": false
        },
        {
          "address": "0x8aafd3ede9adb0ff97c7aebce82a919afb1c8764",
          "topics": [
            "0xddf252ad1be2c89b69c2b068fc378daa952ba7f163c4a11628f55a4df523b3ef",
            "0x000000000000000000000000c77f7fed3b5cc8249adc428c5f44c9063b9734b4",
            "0x000000000000000000000000c77f7fed3b5cc8249adc428c5f44c9063b9734b4"
          ],
          "data": "0x0000000000000000000000000000000000000000000000000000663e5e660050",
          "blockHash": "0x6313e12d1b5537530e699c9b3f0fd3b3b727e93fb9409d40090943b6fd0fad43",
          "blockNumber": "0x731c07",
          "transactionHash": "0x793bf3b27bf6e80cdf3560fcbb92844df08ec8b204e8e6c2da241267df440e22",
          "transactionIndex": "0x13",
          "logIndex": "0x1c",
          "removed": false
        },
        {
          "address": "0x8aafd3ede9adb0ff97c7aebce82a919afb1c8764",
          "topics": [
            "0x4afcb4a87cdbd9974efdb92ee48bc8d7cd0ae4bf217004db3d080cbaee652ca7"
          ],
          "data": "0x0000000000000000000000000000000000000000000000000000000067904d3000000000000000000000000000000000000000000000000000102bb6319a9ed700000000000000000000000000000000000000000000000000003a2c1a3fc5e3",
          "blockHash": "0x6313e12d1b5537530e699c9b3f0fd3b3b727e93fb9409d40090943b6fd0fad43",
          "blockNumber": "0x731c07",
          "transactionHash": "0x793bf3b27bf6e80cdf3560fcbb92844df08ec8b204e8e6c2da241267df440e22",
          "transactionIndex": "0x13",
          "logIndex": "0x1d",
          "removed": false
        }
      ],
      "logsBloom": "0x00000000000000000000000000000000000000000600000000000000000000000000000000000000000000000000000000000000000000004000000000000000000000000000004000000008000000000000000000000000000000000000000000000000020000000000000000000800020000000000000000000010000000000000000000000000000000000000000000000000000000000000010000000000000000000000000000000000000000004000000000000000000000000000000000000002000000800000000000000000000000000000080000000000000020000000000000000000000000000000000000000000000000000000000000000000",
      "type": "0x2",
      "transactionHash": "0x793bf3b27bf6e80cdf3560fcbb92844df08ec8b204e8e6c2da241267df440e22",
      "transactionIndex": "0x13",
      "blockHash": "0x6313e12d1b5537530e699c9b3f0fd3b3b727e93fb9409d40090943b6fd0fad43",
      "blockNumber": "0x731c07",
      "gasUsed": "0xfd33",
      "effectiveGasPrice": "0x1137d3bbf",
      "from": "0xc77f7fed3b5cc8249adc428c5f44c9063b9734b4",
      "to": "0x8aafd3ede9adb0ff97c7aebce82a919afb1c8764",
      "contractAddress": null
    }
  ],
  "libraries": [],
  "pending": [],
  "returns": {},
  "timestamp": 1737510192,
  "chain": 11155111,
  "commit": "1d2fb70"
}