{
  "transactions": [
    {
      "hash": "0x41820ca70491107041a088845a695ef13cd521ae95d770e70bebdcfae4b5fe17",
      "transactionType": "CALL",
      "contractName": null,
      "contractAddress": "0x8aafd3ede9adb0ff97c7aebce82a919afb1c8764",
      "function": "sell(uint256)",
      "arguments": [
        "12663383937118887"
      ],
      "transaction": {
        "from": "0xc77f7fed3b5cc8249adc428c5f44c9063b9734b4",
        "to": "0x8aafd3ede9adb0ff97c7aebce82a919afb1c8764",
        "gas": "0x1724d",
        "value": "0x0",
        "input": "0xe4849b32000000000000000000000000000000000000000000000000002cfd47d539f2a7",
        "nonce": "0x1549",
        "chainId": "0xaa36a7"
      },
      "additionalContracts": [],
      "isFixedGasLimit": false
    }
  ],
  "receipts": [
    {
      "status": "0x1",
      "cumulativeGasUsed": "0x17660f5",
      "logs": [
        {
          "address": "0x8aafd3ede9adb0ff97c7aebce82a919afb1c8764",
          "topics": [
            "0xddf252ad1be2c89b69c2b068fc378daa952ba7f163c4a11628f55a4df523b3ef",
            "0x000000000000000000000000c77f7fed3b5cc8249adc428c5f44c9063b9734b4",
            "0x0000000000000000000000000000000000000000000000000000000000000000"
          ],
          "data": "0x000000000000000000000000000000000000000000000000002ca12471376fb0",
          "blockHash": "0xfd2c04de55a4ca669ff4ba6e8b11ae4190fa1d01e7411447d0651c72e1d273c2",
          "blockNumber": "0x731caf",
          "transactionHash": "0x41820ca70491107041a088845a695ef13cd521ae95d770e70bebdcfae4b5fe17",
          "transactionIndex": "0x9a",
          "logIndex": "0x22b",
          "removed": false
        },
        {
          "address": "0x8aafd3ede9adb0ff97c7aebce82a919afb1c8764",
          "topics": [
            "0xddf252ad1be2c89b69c2b068fc378daa952ba7f163c4a11628f55a4df523b3ef",
            "0x000000000000000000000000c77f7fed3b5cc8249adc428c5f44c9063b9734b4",
            "0x000000000000000000000000c77f7fed3b5cc8249adc428c5f44c9063b9734b4"
          ],
          "data": "0x00000000000000000000000000000000000000000000000000005c23640282f7",
          "blockHash": "0xfd2c04de55a4ca669ff4ba6e8b11ae4190fa1d01e7411447d0651c72e1d273c2",
          "blockNumber": "0x731caf",
          "transactionHash": "0x41820ca70491107041a088845a695ef13cd521ae95d770e70bebdcfae4b5fe17",
          "transactionIndex": "0x9a",
          "logIndex": "0x22c",
          "removed": false
        },
        {
          "address": "0x8aafd3ede9adb0ff97c7aebce82a919afb1c8764",
          "topics": [
            "0x4afcb4a87cdbd9974efdb92ee48bc8d7cd0ae4bf217004db3d080cbaee652ca7"
          ],
          "data": "0x00000000000000000000000000000000000000000000000000000000679055100000000000000000000000000000000000000000000000000011eefba24c3d4a00000000000000000000000000000000000000000000000000003a232a407e27",
          "blockHash": "0xfd2c04de55a4ca669ff4ba6e8b11ae4190fa1d01e7411447d0651c72e1d273c2",
          "blockNumber": "0x731caf",
          "transactionHash": "0x41820ca70491107041a088845a695ef13cd521ae95d770e70bebdcfae4b5fe17",
          "transactionIndex": "0x9a",
          "logIndex": "0x22d",
          "removed": false
        }
      ],
      "logsBloom": "0x00000000000000000000000000000000000000000600000000000000000000000000000000000000000000000000000000000000000000004000000000000000000000000000004000000008000000000000000000000000000000000000000000000000020000000000000000000800020000000000000000000010000000000000000000000000000000000000000000000000000000000000010000000000000000000000000000000000000000004000000000000000000000000000000000000002000000800000000000000000000000000000080000000000000020000000000000000000000000000000000000000000000000000000000000000000",
      "type": "0x2",
      "transactionHash": "0x41820ca70491107041a088845a695ef13cd521ae95d770e70bebdcfae4b5fe17",
      "transactionIndex": "0x9a",
      "blockHash": "0xfd2c04de55a4ca669ff4ba6e8b11ae4190fa1d01e7411447d0651c72e1d273c2",
      "blockNumber": "0x731caf",
      "gasUsed": "0xfd33",
      "effectiveGasPrice": "0xf9fd0f6d",
      "from": "0xc77f7fed3b5cc8249adc428c5f44c9063b9734b4",
      "to": "0x8aafd3ede9adb0ff97c7aebce82a919afb1c8764",
      "contractAddress": null
    }
  ],
  "libraries": [],
  "pending": [],
  "returns": {},
  "timestamp": 1737512208,
  "chain": 11155111,
  "commit": "1d2fb70"
}