{
  "transactions": [
    {
      "hash": "0x16f6b7622176b6c892af3b76e0dcaef39382634abc1c4765ccd754d63cf16458",
      "transactionType": "CALL",
      "contractName": null,
      "contractAddress": "0x8aafd3ede9adb0ff97c7aebce82a919afb1c8764",
      "function": "buy(address)",
      "arguments": [
        "0xC77f7fed3b5Cc8249aDc428c5F44C9063B9734b4"
      ],
      "transaction": {
        "from": "0xc77f7fed3b5cc8249adc428c5f44c9063b9734b4",
        "to": "0x8aafd3ede9adb0ff97c7aebce82a919afb1c8764",
        "gas": "0x156ea",
        "value": "0xde0b6b3a7640000",
        "input": "0xf088d547000000000000000000000000c77f7fed3b5cc8249adc428c5f44c9063b9734b4",
        "nonce": "0x1747",
        "chainId": "0xaa36a7"
      },
      "additionalContracts": [],
      "isFixedGasLimit": false
    }
  ],
  "receipts": [
    {
      "status": "0x1",
      "cumulativeGasUsed": "0x7eea32",
      "logs": [
        {
          "address": "0x8aafd3ede9adb0ff97c7aebce82a919afb1c8764",
          "topics": [
            "0xddf252ad1be2c89b69c2b068fc378daa952ba7f163c4a11628f55a4df523b3ef",
            "0x0000000000000000000000000000000000000000000000000000000000000000",
            "0x000000000000000000000000c77f7fed3b5cc8249adc428c5f44c9063b9734b4"
          ],
          "data": "0x000000000000000000000000000000000000000000000008031ed09d63653a0b",
          "blockHash": "0x9502ce2bb13e2eab88d9e23726141833a234966bbc56a7c7c8b675e00a4db7c8",
          "blockNumber": "0x731f16",
          "transactionHash": "0x16f6b7622176b6c892af3b76e0dcaef39382634abc1c4765ccd754d63cf16458",
          "transactionIndex": "0x6f",
          "logIndex": "0x97",
          "removed": false
        },
        {
          "address": "0x8aafd3ede9adb0ff97c7aebce82a919afb1c8764",
          "topics": [
            "0xddf252ad1be2c89b69c2b068fc378daa952ba7f163c4a11628f55a4df523b3ef",
            "0x0000000000000000000000000000000000000000000000000000000000000000",
            "0x000000000000000000000000c77f7fed3b5cc8249adc428c5f44c9063b9734b4"
          ],
          "data": "0x0000000000000000000000000000000000000000000000000638c3d289a3aaa2",
          "blockHash": "0x9502ce2bb13e2eab88d9e23726141833a234966bbc56a7c7c8b675e00a4db7c8",
          "blockNumber": "0x731f16",
          "transactionHash": "0x16f6b7622176b6c892af3b76e0dcaef39382634abc1c4765ccd754d63cf16458",
          "transactionIndex": "0x6f",
          "logIndex": "0x98",
          "removed": false
        },
        {
          "address": "0x8aafd3ede9adb0ff97c7aebce82a919afb1c8764",
          "topics": [
            "0x4afcb4a87cdbd9974efdb92ee48bc8d7cd0ae4bf217004db3d080cbaee652ca7"
          ],
          "data": "0x00000000000000000000000000000000000000000000000000000000679071f00000000000000000000000000000000000000000000000000017d2fb847b86eb0000000000000000000000000000000000000000000000000de0b6b3a7640000",
          "blockHash": "0x9502ce2bb13e2eab88d9e23726141833a234966bbc56a7c7c8b675e00a4db7c8",
          "blockNumber": "0x731f16",
          "transactionHash": "0x16f6b7622176b6c892af3b76e0dcaef39382634abc1c4765ccd754d63cf16458",
          "transactionIndex": "0x6f",
          "logIndex": "0x99",
          "removed": false
        }
      ],
      "logsBloom": "0x00000000000000000000000000000000000000000600000000000000000000000000000000000000000000000000000000000000000000004000000000000000000000000000004000000008000000000000000000000000000000000000000000000000020000000000000000000800020000000000000000000010000000000000000000000000000000000000000000000000000000000000010000000000000000000000000000000000000000004000000000000000000000000000000000000002000000800000000000000000000000000000080000000000000020000000000000000000000000000000000000000000000000000000000000000000",
      "type": "0x2",
      "transactionHash": "0x16f6b7622176b6c892af3b76e0dcaef39382634abc1c4765ccd754d63cf16458",
      "transactionIndex": "0x6f",
      "blockHash": "0x9502ce2bb13e2eab88d9e23726141833a234966bbc56a7c7c8b675e00a4db7c8",
      "blockNumber": "0x731f16",
      "gasUsed": "0xf844",
      "effectiveGasPrice": "0x4b2def81",
      "from": "0xc77f7fed3b5cc8249adc428c5f44c9063b9734b4",
      "to": "0x8aafd3ede9adb0ff97c7aebce82a919afb1c8764",
      "contractAddress": null
    }
  ],
  "libraries": [],
  "pending": [],
  "returns": {},
  "timestamp": 1737519601,
  "chain": 11155111,
  "commit": "1d2fb70"
}