{
  "transactions": [
    {
      "hash": "0xdb5786f733bea523b7e139eef5eb00bc67445553142f89d8dfb4cac208390c5c",
      "transactionType": "CALL",
      "contractName": null,
      "contractAddress": "0x270e88f8683660553e8ba4eb2ad7c91a1710d769",
      "function": "buy(address)",
      "arguments": [
        "0xC77f7fed3b5Cc8249aDc428c5F44C9063B9734b4"
      ],
      "transaction": {
        "from": "0xc77f7fed3b5cc8249adc428c5f44c9063b9734b4",
        "to": "0x270e88f8683660553e8ba4eb2ad7c91a1710d769",
        "gas": "0x1b30c",
        "value": "0xde0b6b3a7640000",
        "input": "0xf088d547000000000000000000000000c77f7fed3b5cc8249adc428c5f44c9063b9734b4",
        "nonce": "0x879",
        "chainId": "0xaa36a7"
      },
      "additionalContracts": [],
      "isFixedGasLimit": false
    }
  ],
  "receipts": [
    {
      "status": "0x1",
      "cumulativeGasUsed": "0x18e429b",
      "logs": [
        {
          "address": "0x270e88f8683660553e8ba4eb2ad7c91a1710d769",
          "topics": [
            "0xddf252ad1be2c89b69c2b068fc378daa952ba7f163c4a11628f55a4df523b3ef",
            "0x0000000000000000000000000000000000000000000000000000000000000000",
            "0x000000000000000000000000c77f7fed3b5cc8249adc428c5f44c9063b9734b4"
          ],
          "data": "0x0000000000000000000000000000000000000000000000268535e68571552591",
          "blockHash": "0x17a43d2cf547ddffcdab155fcfed06ae0ff828e567efd11a1d240cfb95b2feb8",
          "blockNumber": "0x7255d2",
          "transactionHash": "0xdb5786f733bea523b7e139eef5eb00bc67445553142f89d8dfb4cac208390c5c",
          "transactionIndex": "0x48",
          "logIndex": "0x1a6",
          "removed": false
        },
        {
          "address": "0x270e88f8683660553e8ba4eb2ad7c91a1710d769",
          "topics": [
            "0xddf252ad1be2c89b69c2b068fc378daa952ba7f163c4a11628f55a4df523b3ef",
            "0x0000000000000000000000000000000000000000000000000000000000000000",
            "0x000000000000000000000000c77f7fed3b5cc8249adc428c5f44c9063b9734b4"
          ],
          "data": "0x0000000000000000000000000000000000000000000000001de990fcaf67d714",
          "blockHash": "0x17a43d2cf547ddffcdab155fcfed06ae0ff828e567efd11a1d240cfb95b2feb8",
          "blockNumber": "0x7255d2",
          "transactionHash": "0xdb5786f733bea523b7e139eef5eb00bc67445553142f89d8dfb4cac208390c5c",
          "transactionIndex": "0x48",
          "logIndex": "0x1a7",
          "removed": false
        },
        {
          "address": "0x270e88f8683660553e8ba4eb2ad7c91a1710d769",
          "topics": [
            "0x4afcb4a87cdbd9974efdb92ee48bc8d7cd0ae4bf217004db3d080cbaee652ca7"
          ],
          "data": "0x000000000000000000000000000000000000000000000000000000006786f7e00000000000000000000000000000000000000000000000000004f33f4139dd0b0000000000000000000000000000000000000000000000000de0b6b3a7640000",
          "blockHash": "0x17a43d2cf547ddffcdab155fcfed06ae0ff828e567efd11a1d240cfb95b2feb8",
          "blockNumber": "0x7255d2",
          "transactionHash": "0xdb5786f733bea523b7e139eef5eb00bc67445553142f89d8dfb4cac208390c5c",
          "transactionIndex": "0x48",
          "logIndex": "0x1a8",
          "removed": false
        }
      ],
      "logsBloom": "0x00000000000000000000000000000000000000000000000000000000000000000000000000000000000000000000000020000000000000004000000000000000000000000000000000000008000000000000000000000000000000000000000000000000020000000000000000000800020000000000000000000010000000000000000000010000000000000000000000000000000000000000010000000000000000000000000000000000000000004000000000000000000000000000000000000002000000800000000000000000000000000000080000008000000020000000000000000000000000000000000000000000000000000000000000000000",
      "type": "0x2",
      "transactionHash": "0xdb5786f733bea523b7e139eef5eb00bc67445553142f89d8dfb4cac208390c5c",
      "transactionIndex": "0x48",
      "blockHash": "0x17a43d2cf547ddffcdab155fcfed06ae0ff828e567efd11a1d240cfb95b2feb8",
      "blockNumber": "0x7255d2",
      "gasUsed": "0x13af8",
      "effectiveGasPrice": "0xa59f0b4c",
      "from": "0xc77f7fed3b5cc8249adc428c5f44c9063b9734b4",
      "to": "0x270e88f8683660553e8ba4eb2ad7c91a1710d769",
      "contractAddress": null
    }
  ],
  "libraries": [],
  "pending": [],
  "returns": {},
  "timestamp": 1736898529,
  "chain": 11155111,
  "commit": "51a374b"
}