{
  "transactions": [
    {
      "hash": "0x618c885b8126b1f1d9f543b3a7233e30e80025fe2326610eab6a15e0e7e469b1",
      "transactionType": "CALL",
      "contractName": null,
      "contractAddress": "0x8aafd3ede9adb0ff97c7aebce82a919afb1c8764",
      "function": "sell(uint256)",
      "arguments": [
        "367773424460813"
      ],
      "transaction": {
        "from": "0xc77f7fed3b5cc8249adc428c5f44c9063b9734b4",
        "to": "0x8aafd3ede9adb0ff97c7aebce82a919afb1c8764",
        "gas": "0x1724d",
        "value": "0x0",
        "input": "0xe4849b3200000000000000000000000000000000000000000000000000014e7cec52a40d",
        "nonce": "0x101c",
        "chainId": "0xaa36a7"
      },
      "additionalContracts": [],
      "isFixedGasLimit": false
    }
  ],
  "receipts": [
    {
      "status": "0x1",
      "cumulativeGasUsed": "0xce268d",
      "logs": [
        {
          "address": "0x8aafd3ede9adb0ff97c7aebce82a919afb1c8764",
          "topics": [
            "0xddf252ad1be2c89b69c2b068fc378daa952ba7f163c4a11628f55a4df523b3ef",
            "0x000000000000000000000000c77f7fed3b5cc8249adc428c5f44c9063b9734b4",
            "0x0000000000000000000000000000000000000000000000000000000000000000"
          ],
          "data": "0x00000000000000000000000000000000000000000000000000014bcfe449c9a7",
          "blockHash": "0xc995fb83507233632f515c5b778b95b1065efdaaddff78b1c444596a5945a815",
          "blockNumber": "0x731694",
          "transactionHash": "0x618c885b8126b1f1d9f543b3a7233e30e80025fe2326610eab6a15e0e7e469b1",
          "transactionIndex": "0x8c",
          "logIndex": "0xc6",
          "removed": false
        },
        {
          "address": "0x8aafd3ede9adb0ff97c7aebce82a919afb1c8764",
          "topics": [
            "0xddf252ad1be2c89b69c2b068fc378daa952ba7f163c4a11628f55a4df523b3ef",
            "0x000000000000000000000000c77f7fed3b5cc8249adc428c5f44c9063b9734b4",
            "0x000000000000000000000000c77f7fed3b5cc8249adc428c5f44c9063b9734b4"
          ],
          "data": "0x000000000000000000000000000000000000000000000000000002ad0808da66",
          "blockHash": "0xc995fb83507233632f515c5b778b95b1065efdaaddff78b1c444596a5945a815",
          "blockNumber": "0x731694",
          "transactionHash": "0x618c885b8126b1f1d9f543b3a7233e30e80025fe2326610eab6a15e0e7e469b1",
          "transactionIndex": "0x8c",
          "logIndex": "0xc7",
          "removed": false
        },
        {
          "address": "0x8aafd3ede9adb0ff97c7aebce82a919afb1c8764",
          "topics": [
            "0x4afcb4a87cdbd9974efdb92ee48bc8d7cd0ae4bf217004db3d080cbaee652ca7"
          ],
          "data": "0x0000000000000000000000000000000000000000000000000000000067900b9c0000000000000000000000000000000000000000000000000004eac19642b1df00000000000000000000000000000000000000000000000000000076830b58c7",
          "blockHash": "0xc995fb83507233632f515c5b778b95b1065efdaaddff78b1c444596a5945a815",
          "blockNumber": "0x731694",
          "transactionHash": "0x618c885b8126b1f1d9f543b3a7233e30e80025fe2326610eab6a15e0e7e469b1",
          "transactionIndex": "0x8c",
          "logIndex": "0xc8",
          "removed": false
        }
      ],
      "logsBloom": "0x00000000000000000000000000000000000000000600000000000000000000000000000000000000000000000000000000000000000000004000000000000000000000000000004000000008000000000000000000000000000000000000000000000000020000000000000000000800020000000000000000000010000000000000000000000000000000000000000000000000000000000000010000000000000000000000000000000000000000004000000000000000000000000000000000000002000000800000000000000000000000000000080000000000000020000000000000000000000000000000000000000000000000000000000000000000",
      "type": "0x2",
      "transactionHash": "0x618c885b8126b1f1d9f543b3a7233e30e80025fe2326610eab6a15e0e7e469b1",
      "transactionIndex": "0x8c",
      "blockHash": "0xc995fb83507233632f515c5b778b95b1065efdaaddff78b1c444596a5945a815",
      "blockNumber": "0x731694",
      "gasUsed": "0xfd33",
      "effectiveGasPrice": "0x40362f85",
      "from": "0xc77f7fed3b5cc8249adc428c5f44c9063b9734b4",
      "to": "0x8aafd3ede9adb0ff97c7aebce82a919afb1c8764",
      "contractAddress": null
    }
  ],
  "libraries": [],
  "pending": [],
  "returns": {},
  "timestamp": 1737493405,
  "chain": 11155111,
  "commit": "1d2fb70"
}