{
  "transactions": [
    {
      "hash": "0x226bb49921a2f5f4a37836cf3809cbda1f16f25488ff1e7567906d061092f969",
      "transactionType": "CALL",
      "contractName": null,
      "contractAddress": "0x8aafd3ede9adb0ff97c7aebce82a919afb1c8764",
      "function": "sell(uint256)",
      "arguments": [
        "1024072408588"
      ],
      "transaction": {
        "from": "0xc77f7fed3b5cc8249adc428c5f44c9063b9734b4",
        "to": "0x8aafd3ede9adb0ff97c7aebce82a919afb1c8764",
        "gas": "0x1722a",
        "value": "0x0",
        "input": "0xe4849b32000000000000000000000000000000000000000000000000000000ee6f78de0c",
        "nonce": "0x1407",
        "chainId": "0xaa36a7"
      },
      "additionalContracts": [],
      "isFixedGasLimit": false
    }
  ],
  "receipts": [
    {
      "status": "0x1",
      "cumulativeGasUsed": "0x1b93422",
      "logs": [
        {
          "address": "0x8aafd3ede9adb0ff97c7aebce82a919afb1c8764",
          "topics": [
            "0xddf252ad1be2c89b69c2b068fc378daa952ba7f163c4a11628f55a4df523b3ef",
            "0x000000000000000000000000c77f7fed3b5cc8249adc428c5f44c9063b9734b4",
            "0x0000000000000000000000000000000000000000000000000000000000000000"
          ],
          "data": "0x000000000000000000000000000000000000000000000000000000ec87280748",
          "blockHash": "0x1c87b77d54ead773cd73570cf17806b8bc99c69e34001f0f5eb4c3f50abb0ef0",
          "blockNumber": "0x731b40",
          "transactionHash": "0x226bb49921a2f5f4a37836cf3809cbda1f16f25488ff1e7567906d061092f969",
          "transactionIndex": "0xf7",
          "logIndex": "0x18d",
          "removed": false
        },
        {
          "address": "0x8aafd3ede9adb0ff97c7aebce82a919afb1c8764",
          "topics": [
            "0xddf252ad1be2c89b69c2b068fc378daa952ba7f163c4a11628f55a4df523b3ef",
            "0x000000000000000000000000c77f7fed3b5cc8249adc428c5f44c9063b9734b4",
            "0x000000000000000000000000c77f7fed3b5cc8249adc428c5f44c9063b9734b4"
          ],
          "data": "0x00000000000000000000000000000000000000000000000000000001e850d6c4",
          "blockHash": "0x1c87b77d54ead773cd73570cf17806b8bc99c69e34001f0f5eb4c3f50abb0ef0",
          "blockNumber": "0x731b40",
          "transactionHash": "0x226bb49921a2f5f4a37836cf3809cbda1f16f25488ff1e7567906d061092f969",
          "transactionIndex": "0xf7",
          "logIndex": "0x18e",
          "removed": false
        },
        {
          "address": "0x8aafd3ede9adb0ff97c7aebce82a919afb1c8764",
          "topics": [
            "0x4afcb4a87cdbd9974efdb92ee48bc8d7cd0ae4bf217004db3d080cbaee652ca7"
          ],
          "data": "0x00000000000000000000000000000000000000000000000000000000679043d0000000000000000000000000000000000000000000000000000e368a5ef5adef00000000000000000000000000000000000000000000000000000000f43211f5",
          "blockHash": "0x1c87b77d54ead773cd73570cf17806b8bc99c69e34001f0f5eb4c3f50abb0ef0",
          "blockNumber": "0x731b40",
          "transactionHash": "0x226bb49921a2f5f4a37836cf3809cbda1f16f25488ff1e7567906d061092f969",
          "transactionIndex": "0xf7",
          "logIndex": "0x18f",
          "removed": false
        }
      ],
      "logsBloom": "0x00000000000000000000000000000000000000000600000000000000000000000000000000000000000000000000000000000000000000004000000000000000000000000000004000000008000000000000000000000000000000000000000000000000020000000000000000000800020000000000000000000010000000000000000000000000000000000000000000000000000000000000010000000000000000000000000000000000000000004000000000000000000000000000000000000002000000800000000000000000000000000000080000000000000020000000000000000000000000000000000000000000000000000000000000000000",
      "type": "0x2",
      "transactionHash": "0x226bb49921a2f5f4a37836cf3809cbda1f16f25488ff1e7567906d061092f969",
      "transactionIndex": "0xf7",
      "blockHash": "0x1c87b77d54ead773cd73570cf17806b8bc99c69e34001f0f5eb4c3f50abb0ef0",
      "blockNumber": "0x731b40",
      "gasUsed": "0xfd1b",
      "effectiveGasPrice": "0xb74ea8ff",
      "from": "0xc77f7fed3b5cc8249adc428c5f44c9063b9734b4",
      "to": "0x8aafd3ede9adb0ff97c7aebce82a919afb1c8764",
      "contractAddress": null
    }
  ],
  "libraries": [],
  "pending": [],
  "returns": {},
  "timestamp": 1737507795,
  "chain": 11155111,
  "commit": "1d2fb70"
}