{
  "transactions": [
    {
      "hash": "0xc15f70fc57d51da0e4cbf6cb15a8e11d42e561f62f4d86d9bc0f62a77d479742",
      "transactionType": "CALL",
      "contractName": null,
      "contractAddress": "0x8aafd3ede9adb0ff97c7aebce82a919afb1c8764",
      "function": "sell(uint256)",
      "arguments": [
        "1155275985980801835"
      ],
      "transaction": {
        "from": "0xc77f7fed3b5cc8249adc428c5f44c9063b9734b4",
        "to": "0x8aafd3ede9adb0ff97c7aebce82a919afb1c8764",
        "gas": "0x15dca",
        "value": "0x0",
        "input": "0xe4849b3200000000000000000000000000000000000000000000000010085d6369ecc32b",
        "nonce": "0x177f",
        "chainId": "0xaa36a7"
      },
      "additionalContracts": [],
      "isFixedGasLimit": false
    }
  ],
  "receipts": [
    {
      "status": "0x1",
      "cumulativeGasUsed": "0x22137b1",
      "logs": [
        {
          "address": "0x8aafd3ede9adb0ff97c7aebce82a919afb1c8764",
          "topics": [
            "0xddf252ad1be2c89b69c2b068fc378daa952ba7f163c4a11628f55a4df523b3ef",
            "0x000000000000000000000000c77f7fed3b5cc8249adc428c5f44c9063b9734b4",
            "0x0000000000000000000000000000000000000000000000000000000000000000"
          ],
          "data": "0x0000000000000000000000000000000000000000000000000fe787a633d4571d",
          "blockHash": "0x8a734b054880ab109e44b4d7e575fd7ce0b429967b964c85d840f0e08c7f0c02",
          "blockNumber": "0x731f5a",
          "transactionHash": "0xc15f70fc57d51da0e4cbf6cb15a8e11d42e561f62f4d86d9bc0f62a77d479742",
          "transactionIndex": "0x57",
          "logIndex": "0x1105",
          "removed": false
        },
        {
          "address": "0x8aafd3ede9adb0ff97c7aebce82a919afb1c8764",
          "topics": [
            "0xddf252ad1be2c89b69c2b068fc378daa952ba7f163c4a11628f55a4df523b3ef",
            "0x000000000000000000000000c77f7fed3b5cc8249adc428c5f44c9063b9734b4",
            "0x000000000000000000000000c77f7fed3b5cc8249adc428c5f44c9063b9734b4"
          ],
          "data": "0x0000000000000000000000000000000000000000000000000020d5bd36186c0e",
          "blockHash": "0x8a734b054880ab109e44b4d7e575fd7ce0b429967b964c85d840f0e08c7f0c02",
          "blockNumber": "0x731f5a",
          "transactionHash": "0xc15f70fc57d51da0e4cbf6cb15a8e11d42e561f62f4d86d9bc0f62a77d479742",
          "transactionIndex": "0x57",
          "logIndex": "0x1106",
          "removed": false
        },
        {
          "address": "0x8aafd3ede9adb0ff97c7aebce82a919afb1c8764",
          "topics": [
            "0x4afcb4a87cdbd9974efdb92ee48bc8d7cd0ae4bf217004db3d080cbaee652ca7"
          ],
          "data": "0x0000000000000000000000000000000000000000000000000000000067907520000000000000000000000000000000000000000000000000001888f4cdfe8dcc000000000000000000000000000000000000000000000000001c580da1fdabf2",
          "blockHash": "0x8a734b054880ab109e44b4d7e575fd7ce0b429967b964c85d840f0e08c7f0c02",
          "blockNumber": "0x731f5a",
          "transactionHash": "0xc15f70fc57d51da0e4cbf6cb15a8e11d42e561f62f4d86d9bc0f62a77d479742",
          "transactionIndex": "0x57",
          "logIndex": "0x1107",
          "removed": false
        }
      ],
      "logsBloom": "0x00000000000000000000000000000000000000000600000000000000000000000000000000000000000000000000000000000000000000004000000000000000000000000000004000000008000000000000000000000000000000000000000000000000020000000000000000000800020000000000000000000010000000000000000000000000000000000000000000000000000000000000010000000000000000000000000000000000000000004000000000000000000000000000000000000002000000800000000000000000000000000000080000000000000020000000000000000000000000000000000000000000000000000000000000000000",
      "type": "0x2",
      "transactionHash": "0xc15f70fc57d51da0e4cbf6cb15a8e11d42e561f62f4d86d9bc0f62a77d479742",
      "transactionIndex": "0x57",
      "blockHash": "0x8a734b054880ab109e44b4d7e575fd7ce0b429967b964c85d840f0e08c7f0c02",
      "blockNumber": "0x731f5a",
      "gasUsed": "0xfd3f",
      "effectiveGasPrice": "0x41cd4be7",
      "from": "0xc77f7fed3b5cc8249adc428c5f44c9063b9734b4",
      "to": "0x8aafd3ede9adb0ff97c7aebce82a919afb1c8764",
      "contractAddress": null
    }
  ],
  "libraries": [],
  "pending": [],
  "returns": {},
  "timestamp": 1737520419,
  "chain": 11155111,
  "commit": "1d2fb70"
}