{
  "transactions": [
    {
      "hash": "0xaf6af2370fbe4a66ba9c3b90c05b40a786a51bec43db8451f84a9152001b3c47",
      "transactionType": "CALL",
      "contractName": null,
      "contractAddress": "0x8aafd3ede9adb0ff97c7aebce82a919afb1c8764",
      "function": "sell(uint256)",
      "arguments": [
        "1246615261305945261"
      ],
      "transaction": {
        "from": "0xc77f7fed3b5cc8249adc428c5f44c9063b9734b4",
        "to": "0x8aafd3ede9adb0ff97c7aebce82a919afb1c8764",
        "gas": "0x15dca",
        "value": "0x0",
        "input": "0xe4849b32000000000000000000000000000000000000000000000000114cddf9adb8bcad",
        "nonce": "0x16e6",
        "chainId": "0xaa36a7"
      },
      "additionalContracts": [],
      "isFixedGasLimit": false
    }
  ],
  "receipts": [
    {
      "status": "0x1",
      "cumulativeGasUsed": "0x13043fe",
      "logs": [
        {
          "address": "0x8aafd3ede9adb0ff97c7aebce82a919afb1c8764",
          "topics": [
            "0xddf252ad1be2c89b69c2b068fc378daa952ba7f163c4a11628f55a4df523b3ef",
            "0x000000000000000000000000c77f7fed3b5cc8249adc428c5f44c9063b9734b4",
            "0x0000000000000000000000000000000000000000000000000000000000000000"
          ],
          "data": "0x00000000000000000000000000000000000000000000000011296fa7cf25d9e3",
          "blockHash": "0x5eda8c0658b0072bdb1688b43d2f8706e1f7d6f25dfa74fa51e2a43262a51e3c",
          "blockNumber": "0x731ea5",
          "transactionHash": "0xaf6af2370fbe4a66ba9c3b90c05b40a786a51bec43db8451f84a9152001b3c47",
          "transactionIndex": "0x81",
          "logIndex": "0x118",
          "removed": false
        },
        {
          "address": "0x8aafd3ede9adb0ff97c7aebce82a919afb1c8764",
          "topics": [
            "0xddf252ad1be2c89b69c2b068fc378daa952ba7f163c4a11628f55a4df523b3ef",
            "0x000000000000000000000000c77f7fed3b5cc8249adc428c5f44c9063b9734b4",
            "0x000000000000000000000000c77f7fed3b5cc8249adc428c5f44c9063b9734b4"
          ],
          "data": "0x00000000000000000000000000000000000000000000000000236e51de92e2ca",
          "blockHash": "0x5eda8c0658b0072bdb1688b43d2f8706e1f7d6f25dfa74fa51e2a43262a51e3c",
          "blockNumber": "0x731ea5",
          "transactionHash": "0xaf6af2370fbe4a66ba9c3b90c05b40a786a51bec43db8451f84a9152001b3c47",
          "transactionIndex": "0x81",
          "logIndex": "0x119",
          "removed": false
        },
        {
          "address": "0x8aafd3ede9adb0ff97c7aebce82a919afb1c8764",
          "topics": [
            "0x4afcb4a87cdbd9974efdb92ee48bc8d7cd0ae4bf217004db3d080cbaee652ca7"
          ],
          "data": "0x0000000000000000000000000000000000000000000000000000000067906ca40000000000000000000000000000000000000000000000000016bea4bc57a308000000000000000000000000000000000000000000000000001c5a659a6ef162",
          "blockHash": "0x5eda8c0658b0072bdb1688b43d2f8706e1f7d6f25dfa74fa51e2a43262a51e3c",
          "blockNumber": "0x731ea5",
          "transactionHash": "0xaf6af2370fbe4a66ba9c3b90c05b40a786a51bec43db8451f84a9152001b3c47",
          "transactionIndex": "0x81",
          "logIndex": "0x11a",
          "removed": false
        }
      ],
      "logsBloom": "0x00000000000000000000000000000000000000000600000000000000000000000000000000000000000000000000000000000000000000004000000000000000000000000000004000000008000000000000000000000000000000000000000000000000020000000000000000000800020000000000000000000010000000000000000000000000000000000000000000000000000000000000010000000000000000000000000000000000000000004000000000000000000000000000000000000002000000800000000000000000000000000000080000000000000020000000000000000000000000000000000000000000000000000000000000000000",
      "type": "0x2",
      "transactionHash": "0xaf6af2370fbe4a66ba9c3b90c05b40a786a51bec43db8451f84a9152001b3c47",
      "transactionIndex": "0x81",
      "blockHash": "0x5eda8c0658b0072bdb1688b43d2f8706e1f7d6f25dfa74fa51e2a43262a51e3c",
      "blockNumber": "0x731ea5",
      "gasUsed": "0xfd3f",
      "effectiveGasPrice": "0x440276f0",
      "from": "0xc77f7fed3b5cc8249adc428c5f44c9063b9734b4",
      "to": "0x8aafd3ede9adb0ff97c7aebce82a919afb1c8764",
      "contractAddress": null
    }
  ],
  "libraries": [],
  "pending": [],
  "returns": {},
  "timestamp": 1737518246,
  "chain": 11155111,
  "commit": "1d2fb70"
}