{
  "transactions": [
    {
      "hash": "0x611ca8e7b32c8944569c3904af841eb768ca91f4c84924820cbbfd58f1ca8432",
      "transactionType": "CALL",
      "contractName": null,
      "contractAddress": "0x270e88f8683660553e8ba4eb2ad7c91a1710d769",
      "function": "sell(uint256)",
      "arguments": [
        "716374515984795482656"
      ],
      "transaction": {
        "from": "0xc77f7fed3b5cc8249adc428c5f44c9063b9734b4",
        "to": "0x270e88f8683660553e8ba4eb2ad7c91a1710d769",
        "gas": "0x16fec",
        "value": "0x0",
        "input": "0xe4849b32000000000000000000000000000000000000000000000026d5b18ac5f820ba20",
        "nonce": "0x84e",
        "chainId": "0xaa36a7"
      },
      "additionalContracts": [],
      "isFixedGasLimit": false
    }
  ],
  "receipts": [
    {
      "status": "0x1",
      "cumulativeGasUsed": "0x15da32c",
      "logs": [
        {
          "address": "0x270e88f8683660553e8ba4eb2ad7c91a1710d769",
          "topics": [
            "0xddf252ad1be2c89b69c2b068fc378daa952ba7f163c4a11628f55a4df523b3ef",
            "0x000000000000000000000000c77f7fed3b5cc8249adc428c5f44c9063b9734b4",
            "0x0000000000000000000000000000000000000000000000000000000000000000"
          ],
          "data": "0x000000000000000000000000000000000000000000000026d5b18ac5f820ba20",
          "blockHash": "0xd3f61f062dc4116416d756e548c97bfdb98fb8710da001ced21df80b3ebde914",
          "blockNumber": "0x72559e",
          "transactionHash": "0x611ca8e7b32c8944569c3904af841eb768ca91f4c84924820cbbfd58f1ca8432",
          "transactionIndex": "0x64",
          "logIndex": "0xf4",
          "removed": false
        },
        {
          "address": "0x270e88f8683660553e8ba4eb2ad7c91a1710d769",
          "topics": [
            "0x4afcb4a87cdbd9974efdb92ee48bc8d7cd0ae4bf217004db3d080cbaee652ca7"
          ],
          "data": "0x000000000000000000000000000000000000000000000000000000006786f5700000000000000000000000000000000000000000000000000004ecfd59ebc1100000000000000000000000000000000000000000000000000dc8260dc9d4160b",
          "blockHash": "0xd3f61f062dc4116416d756e548c97bfdb98fb8710da001ced21df80b3ebde914",
          "blockNumber": "0x72559e",
          "transactionHash": "0x611ca8e7b32c8944569c3904af841eb768ca91f4c84924820cbbfd58f1ca8432",
          "transactionIndex": "0x64",
          "logIndex": "0xf5",
          "removed": false
        }
      ],
      "logsBloom": "0x00000000000000000000000000000000000000000000000000000000000000000000000000000000000000000000000020000000000000004000000000000000000000000000000000000008000000000000000000000000000000000000000000000000020000000000000000000800020000000000000000000010000000000000000000010000000000000000000000000000000000000000010000000000000000000000000000000000000000004000000000000000000000000000000000000002000000800000000000000000000000000000080000008000000020000000000000000000000000000000000000000000000000000000000000000000",
      "type": "0x2",
      "transactionHash": "0x611ca8e7b32c8944569c3904af841eb768ca91f4c84924820cbbfd58f1ca8432",
      "transactionIndex": "0x64",
      "blockHash": "0xd3f61f062dc4116416d756e548c97bfdb98fb8710da001ced21df80b3ebde914",
      "blockNumber": "0x72559e",
      "gasUsed": "0xfb93",
      "effectiveGasPrice": "0x62d77243",
      "from": "0xc77f7fed3b5cc8249adc428c5f44c9063b9734b4",
      "to": "0x270e88f8683660553e8ba4eb2ad7c91a1710d769",
      "contractAddress": null
    }
  ],
  "libraries": [],
  "pending": [],
  "returns": {},
  "timestamp": 1736897907,
  "chain": 11155111,
  "commit": "51a374b"
}