{
  "transactions": [
    {
      "hash": "0x4b5941ae6bfd56f77bbb35d246248fbfaf66063d3e4e71e085ad7c9625794c35",
      "transactionType": "CALL",
      "contractName": null,
      "contractAddress": "0x8aafd3ede9adb0ff97c7aebce82a919afb1c8764",
      "function": "sell(uint256)",
      "arguments": [
        "12098499798102906"
      ],
      "transaction": {
        "from": "0xc77f7fed3b5cc8249adc428c5f44c9063b9734b4",
        "to": "0x8aafd3ede9adb0ff97c7aebce82a919afb1c8764",
        "gas": "0x1724d",
        "value": "0x0",
        "input": "0xe4849b32000000000000000000000000000000000000000000000000002afb857ec7f37a",
        "nonce": "0x1591",
        "chainId": "0xaa36a7"
      },
      "additionalContracts": [],
      "isFixedGasLimit": false
    }
  ],
  "receipts": [
    {
      "status": "0x1",
      "cumulativeGasUsed": "0xdf6438",
      "logs": [
        {
          "address": "0x8aafd3ede9adb0ff97c7aebce82a919afb1c8764",
          "topics": [
            "0xddf252ad1be2c89b69c2b068fc378daa952ba7f163c4a11628f55a4df523b3ef",
            "0x000000000000000000000000c77f7fed3b5cc8249adc428c5f44c9063b9734b4",
            "0x0000000000000000000000000000000000000000000000000000000000000000"
          ],
          "data": "0x000000000000000000000000000000000000000000000000002aa37e4884d0c3",
          "blockHash": "0xb966ba2ce7630e6f0482020afaccc63038c3ed26d45967894af2a236b1d3d4d7",
          "blockNumber": "0x731d00",
          "transactionHash": "0x4b5941ae6bfd56f77bbb35d246248fbfaf66063d3e4e71e085ad7c9625794c35",
          "transactionIndex": "0x68",
          "logIndex": "0xdc",
          "removed": false
        },
        {
          "address": "0x8aafd3ede9adb0ff97c7aebce82a919afb1c8764",
          "topics": [
            "0xddf252ad1be2c89b69c2b068fc378daa952ba7f163c4a11628f55a4df523b3ef",
            "0x000000000000000000000000c77f7fed3b5cc8249adc428c5f44c9063b9734b4",
            "0x000000000000000000000000c77f7fed3b5cc8249adc428c5f44c9063b9734b4"
          ],
          "data": "0x00000000000000000000000000000000000000000000000000005807364322b7",
          "blockHash": "0xb966ba2ce7630e6f0482020afaccc63038c3ed26d45967894af2a236b1d3d4d7",
          "blockNumber": "0x731d00",
          "transactionHash": "0x4b5941ae6bfd56f77bbb35d246248fbfaf66063d3e4e71e085ad7c9625794c35",
          "transactionIndex": "0x68",
          "logIndex": "0xdd",
          "removed": false
        },
        {
          "address": "0x8aafd3ede9adb0ff97c7aebce82a919afb1c8764",
          "topics": [
            "0x4afcb4a87cdbd9974efdb92ee48bc8d7cd0ae4bf217004db3d080cbaee652ca7"
          ],
          "data": "0x00000000000000000000000000000000000000000000000000000000679058e80000000000000000000000000000000000000000000000000012c4280d0deaf700000000000000000000000000000000000000000000000000003a1f8189a135",
          "blockHash": "0xb966ba2ce7630e6f0482020afaccc63038c3ed26d45967894af2a236b1d3d4d7",
          "blockNumber": "0x731d00",
          "transactionHash": "0x4b5941ae6bfd56f77bbb35d246248fbfaf66063d3e4e71e085ad7c9625794c35",
          "transactionIndex": "0x68",
          "logIndex": "0xde",
          "removed": false
        }
      ],
      "logsBloom": "0x00000000000000000000000000000000000000000600000000000000000000000000000000000000000000000000000000000000000000004000000000000000000000000000004000000008000000000000000000000000000000000000000000000000020000000000000000000800020000000000000000000010000000000000000000000000000000000000000000000000000000000000010000000000000000000000000000000000000000004000000000000000000000000000000000000002000000800000000000000000000000000000080000000000000020000000000000000000000000000000000000000000000000000000000000000000",
      "type": "0x2",
      "transactionHash": "0x4b5941ae6bfd56f77bbb35d246248fbfaf66063d3e4e71e085ad7c9625794c35",
      "transactionIndex": "0x68",
      "blockHash": "0xb966ba2ce7630e6f0482020afaccc63038c3ed26d45967894af2a236b1d3d4d7",
      "blockNumber": "0x731d00",
      "gasUsed": "0xfd33",
      "effectiveGasPrice": "0x6fc8290d",
      "from": "0xc77f7fed3b5cc8249adc428c5f44c9063b9734b4",
      "to": "0x8aafd3ede9adb0ff97c7aebce82a919afb1c8764",
      "contractAddress": null
    }
  ],
  "libraries": [],
  "pending": [],
  "returns": {},
  "timestamp": 1737513192,
  "chain": 11155111,
  "commit": "1d2fb70"
}