{
  "transactions": [
    {
      "hash": "0x31779087fc93b44f03bab616d058e3fd4c62c29245371d360cde4b8cc099c213",
      "transactionType": "CALL",
      "contractName": null,
      "contractAddress": "0x5eb9cc76c3506942c1c0ead70e877dd5e4f00cb0",
      "function": "buy(address)",
      "arguments": [
        "0xC77f7fed3b5Cc8249aDc428c5F44C9063B9734b4"
      ],
      "transaction": {
        "from": "0xc77f7fed3b5cc8249adc428c5f44c9063b9734b4",
        "to": "0x5eb9cc76c3506942c1c0ead70e877dd5e4f00cb0",
        "gas": "0x1b30c",
        "value": "0xde0b6b3a7640000",
        "input": "0xf088d547000000000000000000000000c77f7fed3b5cc8249adc428c5f44c9063b9734b4",
        "nonce": "0x252",
        "chainId": "0xaa36a7"
      },
      "additionalContracts": [],
      "isFixedGasLimit": false
    }
  ],
  "receipts": [
    {
      "status": "0x1",
      "cumulativeGasUsed": "0x11c279a",
      "logs": [
        {
          "address": "0x5eb9cc76c3506942c1c0ead70e877dd5e4f00cb0",
          "topics": [
            "0xddf252ad1be2c89b69c2b068fc378daa952ba7f163c4a11628f55a4df523b3ef",
            "0x0000000000000000000000000000000000000000000000000000000000000000",
            "0x000000000000000000000000c77f7fed3b5cc8249adc428c5f44c9063b9734b4"
          ],
          "data": "0x0000000000000000000000000000000000000000000000357c20fffea4487951",
          "blockHash": "0x885cd1979b86e4504fb738656a5d23aa0039bd1b345651d66e0f29af0b19d1c4",
          "blockNumber": "0x724e0b",
          "transactionHash": "0x31779087fc93b44f03bab616d058e3fd4c62c29245371d360cde4b8cc099c213",
          "transactionIndex": "0x77",
          "logIndex": "0xfb",
          "removed": false
        },
        {
          "address": "0x5eb9cc76c3506942c1c0ead70e877dd5e4f00cb0",
          "topics": [
            "0xddf252ad1be2c89b69c2b068fc378daa952ba7f163c4a11628f55a4df523b3ef",
            "0x0000000000000000000000000000000000000000000000000000000000000000",
            "0x000000000000000000000000c77f7fed3b5cc8249adc428c5f44c9063b9734b4"
          ],
          "data": "0x000000000000000000000000000000000000000000000000298867b6c0d09458",
          "blockHash": "0x885cd1979b86e4504fb738656a5d23aa0039bd1b345651d66e0f29af0b19d1c4",
          "blockNumber": "0x724e0b",
          "transactionHash": "0x31779087fc93b44f03bab616d058e3fd4c62c29245371d360cde4b8cc099c213",
          "transactionIndex": "0x77",
          "logIndex": "0xfc",
          "removed": false
        },
        {
          "address": "0x5eb9cc76c3506942c1c0ead70e877dd5e4f00cb0",
          "topics": [
            "0x4afcb4a87cdbd9974efdb92ee48bc8d7cd0ae4bf217004db3d080cbaee652ca7"
          ],
          "data": "0x0000000000000000000000000000000000000000000000000000000067869a380000000000000000000000000000000000000000000000000003909bddff14d00000000000000000000000000000000000000000000000000de0b6b3a7640000",
          "blockHash": "0x885cd1979b86e4504fb738656a5d23aa0039bd1b345651d66e0f29af0b19d1c4",
          "blockNumber": "0x724e0b",
          "transactionHash": "0x31779087fc93b44f03bab616d058e3fd4c62c29245371d360cde4b8cc099c213",
          "transactionIndex": "0x77",
          "logIndex": "0xfd",
          "removed": false
        }
      ],
      "logsBloom": "0x00000000000000000000000000000000000000000000000000000000000000000000000000000000000000000000000000000000000000004000000000000000000000000000000000000008000000000000000000000000000000000000000000000000020000000000000004000800020000000000000000000010000000000000000000000000000000000000000000000000000000000000010000000000000000000000000000000000000000004000000000000000000000000000020000000002000000800000008000000000000000000000080000000000000020000000000000000000000000000000000000000000000000000000000000000000",
      "type": "0x2",
      "transactionHash": "0x31779087fc93b44f03bab616d058e3fd4c62c29245371d360cde4b8cc099c213",
      "transactionIndex": "0x77",
      "blockHash": "0x885cd1979b86e4504fb738656a5d23aa0039bd1b345651d66e0f29af0b19d1c4",
      "blockNumber": "0x724e0b",
      "gasUsed": "0x13af8",
      "effectiveGasPrice": "0x351e4ab83",
      "from": "0xc77f7fed3b5cc8249adc428c5f44c9063b9734b4",
      "to": "0x5eb9cc76c3506942c1c0ead70e877dd5e4f00cb0",
      "contractAddress": null
    }
  ],
  "libraries": [],
  "pending": [],
  "returns": {},
  "timestamp": 1736874553,
  "chain": 11155111,
  "commit": "51a374b"
}