{
  "transactions": [
    {
      "hash": "0xcb55b44938753fa4ede78db1cbc4d8fb2bccc2cb549aff0d7a15e1c9c2bb1523",
      "transactionType": "CALL",
      "contractName": null,
      "contractAddress": "0x8aafd3ede9adb0ff97c7aebce82a919afb1c8764",
      "function": "sell(uint256)",
      "arguments": [
        "24452072656"
      ],
      "transaction": {
        "from": "0xc77f7fed3b5cc8249adc428c5f44c9063b9734b4",
        "to": "0x8aafd3ede9adb0ff97c7aebce82a919afb1c8764",
        "gas": "0x1722a",
        "value": "0x0",
        "input": "0xe4849b3200000000000000000000000000000000000000000000000000000005b17504d0",
        "nonce": "0xef1",
        "chainId": "0xaa36a7"
      },
      "additionalContracts": [],
      "isFixedGasLimit": false
    }
  ],
  "receipts": [
    {
      "status": "0x1",
      "cumulativeGasUsed": "0xfc4d9c",
      "logs": [
        {
          "address": "0x8aafd3ede9adb0ff97c7aebce82a919afb1c8764",
          "topics": [
            "0xddf252ad1be2c89b69c2b068fc378daa952ba7f163c4a11628f55a4df523b3ef",
            "0x000000000000000000000000c77f7fed3b5cc8249adc428c5f44c9063b9734b4",
            "0x0000000000000000000000000000000000000000000000000000000000000000"
          ],
          "data": "0x00000000000000000000000000000000000000000000000000000005a5cc258b",
          "blockHash": "0xa1187388a3dfc494e0db1934f12c19f75ed0c99dc956f51a86f9ca9d3b3a8958",
          "blockNumber": "0x731469",
          "transactionHash": "0xcb55b44938753fa4ede78db1cbc4d8fb2bccc2cb549aff0d7a15e1c9c2bb1523",
          "transactionIndex": "0xb9",
          "logIndex": "0x124",
          "removed": false
        },
        {
          "address": "0x8aafd3ede9adb0ff97c7aebce82a919afb1c8764",
          "topics": [
            "0xddf252ad1be2c89b69c2b068fc378daa952ba7f163c4a11628f55a4df523b3ef",
            "0x000000000000000000000000c77f7fed3b5cc8249adc428c5f44c9063b9734b4",
            "0x000000000000000000000000c77f7fed3b5cc8249adc428c5f44c9063b9734b4"
          ],
          "data": "0x000000000000000000000000000000000000000000000000000000000ba8df45",
          "blockHash": "0xa1187388a3dfc494e0db1934f12c19f75ed0c99dc956f51a86f9ca9d3b3a8958",
          "blockNumber": "0x731469",
          "transactionHash": "0xcb55b44938753fa4ede78db1cbc4d8fb2bccc2cb549aff0d7a15e1c9c2bb1523",
          "transactionIndex": "0xb9",
          "logIndex": "0x125",
          "removed": false
        },
        {
          "address": "0x8aafd3ede9adb0ff97c7aebce82a919afb1c8764",
          "topics": [
            "0x4afcb4a87cdbd9974efdb92ee48bc8d7cd0ae4bf217004db3d080cbaee652ca7"
          ],
          "data": "0x00000000000000000000000000000000000000000000000000000000678ff1980000000000000000000000000000000000000000000000000004bab17c24147b0000000000000000000000000000000000000000000000000000000001f0ac0a",
          "blockHash": "0xa1187388a3dfc494e0db1934f12c19f75ed0c99dc956f51a86f9ca9d3b3a8958",
          "blockNumber": "0x731469",
          "transactionHash": "0xcb55b44938753fa4ede78db1cbc4d8fb2bccc2cb549aff0d7a15e1c9c2bb1523",
          "transactionIndex": "0xb9",
          "logIndex": "0x126",
          "removed": false
        }
      ],
      "logsBloom": "0x00000000000000000000000000000000000000000600000000000000000000000000000000000000000000000000000000000000000000004000000000000000000000000000004000000008000000000000000000000000000000000000000000000000020000000000000000000800020000000000000000000010000000000000000000000000000000000000000000000000000000000000010000000000000000000000000000000000000000004000000000000000000000000000000000000002000000800000000000000000000000000000080000000000000020000000000000000000000000000000000000000000000000000000000000000000",
      "type": "0x2",
      "transactionHash": "0xcb55b44938753fa4ede78db1cbc4d8fb2bccc2cb549aff0d7a15e1c9c2bb1523",
      "transactionIndex": "0xb9",
      "blockHash": "0xa1187388a3dfc494e0db1934f12c19f75ed0c99dc956f51a86f9ca9d3b3a8958",
      "blockNumber": "0x731469",
      "gasUsed": "0xfd1b",
      "effectiveGasPrice": "0xaec0d00c",
      "from": "0xc77f7fed3b5cc8249adc428c5f44c9063b9734b4",
      "to": "0x8aafd3ede9adb0ff97c7aebce82a919afb1c8764",
      "contractAddress": null
    }
  ],
  "libraries": [],
  "pending": [],
  "returns": {},
  "timestamp": 1737486745,
  "chain": 11155111,
  "commit": "51a374b"
}