{
  "transactions": [
    {
      "hash": "0xa542479719fea170526adfd703cd447042707195a6154a93cc737389b1db72a8",
      "transactionType": "CALL",
      "contractName": null,
      "contractAddress": "0x8aafd3ede9adb0ff97c7aebce82a919afb1c8764",
      "function": "sell(uint256)",
      "arguments": [
        "50977307"
      ],
      "transaction": {
        "from": "0xc77f7fed3b5cc8249adc428c5f44c9063b9734b4",
        "to": "0x8aafd3ede9adb0ff97c7aebce82a919afb1c8764",
        "gas": "0x15d88",
        "value": "0x0",
        "input": "0xe4849b32000000000000000000000000000000000000000000000000000000000309da1b",
        "nonce": "0x1568",
        "chainId": "0xaa36a7"
      },
      "additionalContracts": [],
      "isFixedGasLimit": false
    }
  ],
  "receipts": [
    {
      "status": "0x1",
      "cumulativeGasUsed": "0xf8fd1c",
      "logs": [
        {
          "address": "0x8aafd3ede9adb0ff97c7aebce82a919afb1c8764",
          "topics": [
            "0xddf252ad1be2c89b69c2b068fc378daa952ba7f163c4a11628f55a4df523b3ef",
            "0x000000000000000000000000c77f7fed3b5cc8249adc428c5f44c9063b9734b4",
            "0x0000000000000000000000000000000000000000000000000000000000000000"
          ],
          "data": "0x000000000000000000000000000000000000000000000000000000000303a111",
          "blockHash": "0xd1f23b17130f12907fbb6b0d66551682c2ead93b88ab96d7ec5846aed433d3d4",
          "blockNumber": "0x731cd0",
          "transactionHash": "0xa542479719fea170526adfd703cd447042707195a6154a93cc737389b1db72a8",
          "transactionIndex": "0xac",
          "logIndex": "0x14d",
          "removed": false
        },
        {
          "address": "0x8aafd3ede9adb0ff97c7aebce82a919afb1c8764",
          "topics": [
            "0xddf252ad1be2c89b69c2b068fc378daa952ba7f163c4a11628f55a4df523b3ef",
            "0x000000000000000000000000c77f7fed3b5cc8249adc428c5f44c9063b9734b4",
            "0x000000000000000000000000c77f7fed3b5cc8249adc428c5f44c9063b9734b4"
          ],
          "data": "0x000000000000000000000000000000000000000000000000000000000006390a",
          "blockHash": "0xd1f23b17130f12907fbb6b0d66551682c2ead93b88ab96d7ec5846aed433d3d4",
          "blockNumber": "0x731cd0",
          "transactionHash": "0xa542479719fea170526adfd703cd447042707195a6154a93cc737389b1db72a8",
          "transactionIndex": "0xac",
          "logIndex": "0x14e",
          "removed": false
        },
        {
          "address": "0x8aafd3ede9adb0ff97c7aebce82a919afb1c8764",
          "topics": [
            "0x4afcb4a87cdbd9974efdb92ee48bc8d7cd0ae4bf217004db3d080cbaee652ca7"
          ],
          "data": "0x00000000000000000000000000000000000000000000000000000000679056a800000000000000000000000000000000000000000000000000123edda9299eed000000000000000000000000000000000000000000000000000000000003feaa",
          "blockHash": "0xd1f23b17130f12907fbb6b0d66551682c2ead93b88ab96d7ec5846aed433d3d4",
          "blockNumber": "0x731cd0",
          "transactionHash": "0xa542479719fea170526adfd703cd447042707195a6154a93cc737389b1db72a8",
          "transactionIndex": "0xac",
          "logIndex": "0x14f",
          "removed": false
        }
      ],
      "logsBloom": "0x00000000000000000000000000000000000000000600000000000000000000000000000000000000000000000000000000000000000000004000000000000000000000000000004000000008000000000000000000000000000000000000000000000000020000000000000000000800020000000000000000000010000000000000000000000000000000000000000000000000000000000000010000000000000000000000000000000000000000004000000000000000000000000000000000000002000000800000000000000000000000000000080000000000000020000000000000000000000000000000000000000000000000000000000000000000",
      "type": "0x2",
      "transactionHash": "0xa542479719fea170526adfd703cd447042707195a6154a93cc737389b1db72a8",
      "transactionIndex": "0xac",
      "blockHash": "0xd1f23b17130f12907fbb6b0d66551682c2ead93b88ab96d7ec5846aed433d3d4",
      "blockNumber": "0x731cd0",
      "gasUsed": "0xfd0f",
      "effectiveGasPrice": "0x931a6d84",
      "from": "0xc77f7fed3b5cc8249adc428c5f44c9063b9734b4",
      "to": "0x8aafd3ede9adb0ff97c7aebce82a919afb1c8764",
      "contractAddress": null
    }
  ],
  "libraries": [],
  "pending": [],
  "returns": {},
  "timestamp": 1737512617,
  "chain": 11155111,
  "commit": "1d2fb70"
}