{
  "transactions": [
    {
      "hash": "0x413cb3f06a553be3f312d8f81b4d651074507022c0ceaf89cfc5d7723e408f82",
      "transactionType": "CALL",
      "contractName": null,
      "contractAddress": "0xbf4a322f1496e5c3d34a9bcdb4c60567b38c7de2",
      "function": "sell(uint256)",
      "arguments": [
        "982705464757182845642"
      ],
      "transaction": {
        "from": "0xc77f7fed3b5cc8249adc428c5f44c9063b9734b4",
        "to": "0xbf4a322f1496e5c3d34a9bcdb4c60567b38c7de2",
        "gas": "0x16fea",
        "value": "0x0",
        "input": "0xe4849b3200000000000000000000000000000000000000000000003545c725999708d2ca",
        "nonce": "0xb4f",
        "chainId": "0xaa36a7"
      },
      "additionalContracts": [],
      "isFixedGasLimit": false
    }
  ],
  "receipts": [
    {
      "status": "0x1",
      "cumulativeGasUsed": "0x692b88",
      "logs": [
        {
          "address": "0xbf4a322f1496e5c3d34a9bcdb4c60567b38c7de2",
          "topics": [
            "0xddf252ad1be2c89b69c2b068fc378daa952ba7f163c4a11628f55a4df523b3ef",
            "0x000000000000000000000000c77f7fed3b5cc8249adc428c5f44c9063b9734b4",
            "0x0000000000000000000000000000000000000000000000000000000000000000"
          ],
          "data": "0x00000000000000000000000000000000000000000000003545c725999708d2ca",
          "blockHash": "0x176d05593fcc2bf7354d535c18de1b277107b53dd1a4eb403e8f993cd2fe5554",
          "blockNumber": "0x725b55",
          "transactionHash": "0x413cb3f06a553be3f312d8f81b4d651074507022c0ceaf89cfc5d7723e408f82",
          "transactionIndex": "0x3a",
          "logIndex": "0x5a",
          "removed": false
        },
        {
          "address": "0xbf4a322f1496e5c3d34a9bcdb4c60567b38c7de2",
          "topics": [
            "0x4afcb4a87cdbd9974efdb92ee48bc8d7cd0ae4bf217004db3d080cbaee652ca7"
          ],
          "data": "0x0000000000000000000000000000000000000000000000000000000067873a580000000000000000000000000000000000000000000000000003970ce2a8e87a0000000000000000000000000000000000000000000000000dc7e3e85b494b88",
          "blockHash": "0x176d05593fcc2bf7354d535c18de1b277107b53dd1a4eb403e8f993cd2fe5554",
          "blockNumber": "0x725b55",
          "transactionHash": "0x413cb3f06a553be3f312d8f81b4d651074507022c0ceaf89cfc5d7723e408f82",
          "transactionIndex": "0x3a",
          "logIndex": "0x5b",
          "removed": false
        }
      ],
      "logsBloom": "0x00000000000000000000000000000000000000000000000000000000000000000000000000000000000000000000000000000000000000004000000000000000000000000000000000000008000000000000001000000000000000000000000000000000020000000000000000000800020000000000000000000010000000000000000000000000000000000000000000000000000008000000010000000000000000000000000000000000000000004000000000000000000000000000000000000002000000800000000000001000000000000000080000000000000020000000000000000000000000000000000000000000000000000000000000000000",
      "type": "0x2",
      "transactionHash": "0x413cb3f06a553be3f312d8f81b4d651074507022c0ceaf89cfc5d7723e408f82",
      "transactionIndex": "0x3a",
      "blockHash": "0x176d05593fcc2bf7354d535c18de1b277107b53dd1a4eb403e8f993cd2fe5554",
      "blockNumber": "0x725b55",
      "gasUsed": "0xfb91",
      "effectiveGasPrice": "0x488845ee",
      "from": "0xc77f7fed3b5cc8249adc428c5f44c9063b9734b4",
      "to": "0xbf4a322f1496e5c3d34a9bcdb4c60567b38c7de2",
      "contractAddress": null
    }
  ],
  "libraries": [],
  "pending": [],
  "returns": {},
  "timestamp": 1736915545,
  "chain": 11155111,
  "commit": "51a374b"
}