{
  "transactions": [
    {
      "hash": "0x704b73613aecf0db0abfead8a2a6bc2e80786b36a1b3321830ea4b998e46f8a3",
      "transactionType": "CALL",
      "contractName": null,
      "contractAddress": "0x8aafd3ede9adb0ff97c7aebce82a919afb1c8764",
      "function": "sell(uint256)",
      "arguments": [
        "83259390001742"
      ],
      "transaction": {
        "from": "0xc77f7fed3b5cc8249adc428c5f44c9063b9734b4",
        "to": "0x8aafd3ede9adb0ff97c7aebce82a919afb1c8764",
        "gas": "0x15daa",
        "value": "0x0",
        "input": "0xe4849b3200000000000000000000000000000000000000000000000000004bb9565d824e",
        "nonce": "0x1697",
        "chainId": "0xaa36a7"
      },
      "additionalContracts": [],
      "isFixedGasLimit": false
    }
  ],
  "receipts": [
    {
      "status": "0x1",
      "cumulativeGasUsed": "0xe4f000",
      "logs": [
        {
          "address": "0x8aafd3ede9adb0ff97c7aebce82a919afb1c8764",
          "topics": [
            "0xddf252ad1be2c89b69c2b068fc378daa952ba7f163c4a11628f55a4df523b3ef",
            "0x000000000000000000000000c77f7fed3b5cc8249adc428c5f44c9063b9734b4",
            "0x0000000000000000000000000000000000000000000000000000000000000000"
          ],
          "data": "0x00000000000000000000000000000000000000000000000000004b1e4131c0c1",
          "blockHash": "0x3cd28c045dcd620db523fddc8afa12a91e044a0d2d6e31586e79a8bbee7eabeb",
          "blockNumber": "0x731e4d",
          "transactionHash": "0x704b73613aecf0db0abfead8a2a6bc2e80786b36a1b3321830ea4b998e46f8a3",
          "transactionIndex": "0x5c",
          "logIndex": "0xbe",
          "removed": false
        },
        {
          "address": "0x8aafd3ede9adb0ff97c7aebce82a919afb1c8764",
          "topics": [
            "0xddf252ad1be2c89b69c2b068fc378daa952ba7f163c4a11628f55a4df523b3ef",
            "0x000000000000000000000000c77f7fed3b5cc8249adc428c5f44c9063b9734b4",
            "0x000000000000000000000000c77f7fed3b5cc8249adc428c5f44c9063b9734b4"
          ],
          "data": "0x0000000000000000000000000000000000000000000000000000009b152bc18d",
          "blockHash": "0x3cd28c045dcd620db523fddc8afa12a91e044a0d2d6e31586e79a8bbee7eabeb",
          "blockNumber": "0x731e4d",
          "transactionHash": "0x704b73613aecf0db0abfead8a2a6bc2e80786b36a1b3321830ea4b998e46f8a3",
          "transactionIndex": "0x5c",
          "logIndex": "0xbf",
          "removed": false
        },
        {
          "address": "0x8aafd3ede9adb0ff97c7aebce82a919afb1c8764",
          "topics": [
            "0x4afcb4a87cdbd9974efdb92ee48bc8d7cd0ae4bf217004db3d080cbaee652ca7"
          ],
          "data": "0x00000000000000000000000000000000000000000000000000000000679068840000000000000000000000000000000000000000000000000015cca090b87b0d00000000000000000000000000000000000000000000000000000076f29f3495",
          "blockHash": "0x3cd28c045dcd620db523fddc8afa12a91e044a0d2d6e31586e79a8bbee7eabeb",
          "blockNumber": "0x731e4d",
          "transactionHash": "0x704b73613aecf0db0abfead8a2a6bc2e80786b36a1b3321830ea4b998e46f8a3",
          "transactionIndex": "0x5c",
          "logIndex": "0xc0",
          "removed": false
        }
      ],
      "logsBloom": "0x00000000000000000000000000000000000000000600000000000000000000000000000000000000000000000000000000000000000000004000000000000000000000000000004000000008000000000000000000000000000000000000000000000000020000000000000000000800020000000000000000000010000000000000000000000000000000000000000000000000000000000000010000000000000000000000000000000000000000004000000000000000000000000000000000000002000000800000000000000000000000000000080000000000000020000000000000000000000000000000000000000000000000000000000000000000",
      "type": "0x2",
      "transactionHash": "0x704b73613aecf0db0abfead8a2a6bc2e80786b36a1b3321830ea4b998e46f8a3",
      "transactionIndex": "0x5c",
      "blockHash": "0x3cd28c045dcd620db523fddc8afa12a91e044a0d2d6e31586e79a8bbee7eabeb",
      "blockNumber": "0x731e4d",
      "gasUsed": "0xfd27",
      "effectiveGasPrice": "0x5fdb40cc",
      "from": "0xc77f7fed3b5cc8249adc428c5f44c9063b9734b4",
      "to": "0x8aafd3ede9adb0ff97c7aebce82a919afb1c8764",
      "contractAddress": null
    }
  ],
  "libraries": [],
  "pending": [],
  "returns": {},
  "timestamp": 1737517190,
  "chain": 11155111,
  "commit": "1d2fb70"
}