{
  "transactions": [
    {
      "hash": "0x8c884842cfe6c653648dc7d8353c41756a655b7c9aeee803f88481d168f0bfd0",
      "transactionType": "CALL",
      "contractName": null,
      "contractAddress": "0x270e88f8683660553e8ba4eb2ad7c91a1710d769",
      "function": "sell(uint256)",
      "arguments": [
        "962056811687488443175"
      ],
      "transaction": {
        "from": "0xc77f7fed3b5cc8249adc428c5f44c9063b9734b4",
        "to": "0x270e88f8683660553e8ba4eb2ad7c91a1710d769",
        "gas": "0x16fec",
        "value": "0x0",
        "input": "0xe4849b3200000000000000000000000000000000000000000000003427386508c99ed327",
        "nonce": "0x59d",
        "chainId": "0xaa36a7"
      },
      "additionalContracts": [],
      "isFixedGasLimit": false
    }
  ],
  "receipts": [
    {
      "status": "0x1",
      "cumulativeGasUsed": "0x1ae073a",
      "logs": [
        {
          "address": "0x270e88f8683660553e8ba4eb2ad7c91a1710d769",
          "topics": [
            "0xddf252ad1be2c89b69c2b068fc378daa952ba7f163c4a11628f55a4df523b3ef",
            "0x000000000000000000000000c77f7fed3b5cc8249adc428c5f44c9063b9734b4",
            "0x0000000000000000000000000000000000000000000000000000000000000000"
          ],
          "data": "0x00000000000000000000000000000000000000000000003427386508c99ed327",
          "blockHash": "0x24d5f96d3ddb1e1896c5ca7b1d7f73dc9cf6c4b6734268d041f5a85b8aee3c09",
          "blockNumber": "0x725255",
          "transactionHash": "0x8c884842cfe6c653648dc7d8353c41756a655b7c9aeee803f88481d168f0bfd0",
          "transactionIndex": "0x96",
          "logIndex": "0x113",
          "removed": false
        },
        {
          "address": "0x270e88f8683660553e8ba4eb2ad7c91a1710d769",
          "topics": [
            "0x4afcb4a87cdbd9974efdb92ee48bc8d7cd0ae4bf217004db3d080cbaee652ca7"
          ],
          "data": "0x000000000000000000000000000000000000000000000000000000006786cdec0000000000000000000000000000000000000000000000000003ab0aeeb9b56d0000000000000000000000000000000000000000000000000dc83f65cc54ed10",
          "blockHash": "0x24d5f96d3ddb1e1896c5ca7b1d7f73dc9cf6c4b6734268d041f5a85b8aee3c09",
          "blockNumber": "0x725255",
          "transactionHash": "0x8c884842cfe6c653648dc7d8353c41756a655b7c9aeee803f88481d168f0bfd0",
          "transactionIndex": "0x96",
          "logIndex": "0x114",
          "removed": false
        }
      ],
      "logsBloom": "0x00000000000000000000000000000000000000000000000000000000000000000000000000000000000000000000000020000000000000004000000000000000000000000000000000000008000000000000000000000000000000000000000000000000020000000000000000000800020000000000000000000010000000000000000000010000000000000000000000000000000000000000010000000000000000000000000000000000000000004000000000000000000000000000000000000002000000800000000000000000000000000000080000008000000020000000000000000000000000000000000000000000000000000000000000000000",
      "type": "0x2",
      "transactionHash": "0x8c884842cfe6c653648dc7d8353c41756a655b7c9aeee803f88481d168f0bfd0",
      "transactionIndex": "0x96",
      "blockHash": "0x24d5f96d3ddb1e1896c5ca7b1d7f73dc9cf6c4b6734268d041f5a85b8aee3c09",
      "blockNumber": "0x725255",
      "gasUsed": "0xfb93",
      "effectiveGasPrice": "0x50ada93df",
      "from": "0xc77f7fed3b5cc8249adc428c5f44c9063b9734b4",
      "to": "0x270e88f8683660553e8ba4eb2ad7c91a1710d769",
      "contractAddress": null
    }
  ],
  "libraries": [],
  "pending": [],
  "returns": {},
  "timestamp": 1736887788,
  "chain": 11155111,
  "commit": "51a374b"
}