{
  "transactions": [
    {
      "hash": "0x04597af53da74b6d6079a1d8a3cb041818c4b8ca1483362e7ba27c87a9aa2d69",
      "transactionType": "CALL",
      "contractName": null,
      "contractAddress": "0x270e88f8683660553e8ba4eb2ad7c91a1710d769",
      "function": "sell(uint256)",
      "arguments": [
        "713885953706730428211"
      ],
      "transaction": {
        "from": "0xc77f7fed3b5cc8249adc428c5f44c9063b9734b4",
        "to": "0x270e88f8683660553e8ba4eb2ad7c91a1710d769",
        "gas": "0x16fec",
        "value": "0x0",
        "input": "0xe4849b32000000000000000000000000000000000000000000000026b3286490fe9f9733",
        "nonce": "0x86c",
        "chainId": "0xaa36a7"
      },
      "additionalContracts": [],
      "isFixedGasLimit": false
    }
  ],
  "receipts": [
    {
      "status": "0x1",
      "cumulativeGasUsed": "0x5d3261",
      "logs": [
        {
          "address": "0x270e88f8683660553e8ba4eb2ad7c91a1710d769",
          "topics": [
            "0xddf252ad1be2c89b69c2b068fc378daa952ba7f163c4a11628f55a4df523b3ef",
            "0x000000000000000000000000c77f7fed3b5cc8249adc428c5f44c9063b9734b4",
            "0x0000000000000000000000000000000000000000000000000000000000000000"
          ],
          "data": "0x000000000000000000000000000000000000000000000026b3286490fe9f9733",
          "blockHash": "0xf205745480f5bb49f02e648a8d7bc88ace260a6645b0b4f7640b78551b7070bb",
          "blockNumber": "0x7255c3",
          "transactionHash": "0x04597af53da74b6d6079a1d8a3cb041818c4b8ca1483362e7ba27c87a9aa2d69",
          "transactionIndex": "0x38",
          "logIndex": "0x63",
          "removed": false
        },
        {
          "address": "0x270e88f8683660553e8ba4eb2ad7c91a1710d769",
          "topics": [
            "0x4afcb4a87cdbd9974efdb92ee48bc8d7cd0ae4bf217004db3d080cbaee652ca7"
          ],
          "data": "0x000000000000000000000000000000000000000000000000000000006786f72c0000000000000000000000000000000000000000000000000004f16265f467cf0000000000000000000000000000000000000000000000000dc825cbcd2e94dd",
          "blockHash": "0xf205745480f5bb49f02e648a8d7bc88ace260a6645b0b4f7640b78551b7070bb",
          "blockNumber": "0x7255c3",
          "transactionHash": "0x04597af53da74b6d6079a1d8a3cb041818c4b8ca1483362e7ba27c87a9aa2d69",
          "transactionIndex": "0x38",
          "logIndex": "0x64",
          "removed": false
        }
      ],
      "logsBloom": "0x00000000000000000000000000000000000000000000000000000000000000000000000000000000000000000000000020000000000000004000000000000000000000000000000000000008000000000000000000000000000000000000000000000000020000000000000000000800020000000000000000000010000000000000000000010000000000000000000000000000000000000000010000000000000000000000000000000000000000004000000000000000000000000000000000000002000000800000000000000000000000000000080000008000000020000000000000000000000000000000000000000000000000000000000000000000",
      "type": "0x2",
      "transactionHash": "0x04597af53da74b6d6079a1d8a3cb041818c4b8ca1483362e7ba27c87a9aa2d69",
      "transactionIndex": "0x38",
      "blockHash": "0xf205745480f5bb49f02e648a8d7bc88ace260a6645b0b4f7640b78551b7070bb",
      "blockNumber": "0x7255c3",
      "gasUsed": "0xfb93",
      "effectiveGasPrice": "0x9cc05aa9",
      "from": "0xc77f7fed3b5cc8249adc428c5f44c9063b9734b4",
      "to": "0x270e88f8683660553e8ba4eb2ad7c91a1710d769",
      "contractAddress": null
    }
  ],
  "libraries": [],
  "pending": [],
  "returns": {},
  "timestamp": 1736898348,
  "chain": 11155111,
  "commit": "51a374b"
}