{
  "transactions": [
    {
      "hash": "0x704c878e99601b38ecba28940b0511f82512bc30c5ea22c6f920bc8210383ede",
      "transactionType": "CALL",
      "contractName": null,
      "contractAddress": "0x8aafd3ede9adb0ff97c7aebce82a919afb1c8764",
      "function": "sell(uint256)",
      "arguments": [
        "195415216"
      ],
      "transaction": {
        "from": "0xc77f7fed3b5cc8249adc428c5f44c9063b9734b4",
        "to": "0x8aafd3ede9adb0ff97c7aebce82a919afb1c8764",
        "gas": "0x14e6c",
        "value": "0x0",
        "input": "0xe4849b32000000000000000000000000000000000000000000000000000000000ba5ccb0",
        "nonce": "0xf10",
        "chainId": "0xaa36a7"
      },
      "additionalContracts": [],
      "isFixedGasLimit": false
    }
  ],
  "receipts": [
    {
      "status": "0x1",
      "cumulativeGasUsed": "0xdf5e71",
      "logs": [
        {
          "address": "0x8aafd3ede9adb0ff97c7aebce82a919afb1c8764",
          "topics": [
            "0xddf252ad1be2c89b69c2b068fc378daa952ba7f163c4a11628f55a4df523b3ef",
            "0x000000000000000000000000c77f7fed3b5cc8249adc428c5f44c9063b9734b4",
            "0x0000000000000000000000000000000000000000000000000000000000000000"
          ],
          "data": "0x000000000000000000000000000000000000000000000000000000000b8df1f7",
          "blockHash": "0x4acd14e0c25a2cff5f3e7a558138e7bde962dea6714752545ad62b590b0515e6",
          "blockNumber": "0x731489",
          "transactionHash": "0x704c878e99601b38ecba28940b0511f82512bc30c5ea22c6f920bc8210383ede",
          "transactionIndex": "0x7c",
          "logIndex": "0x110",
          "removed": false
        },
        {
          "address": "0x8aafd3ede9adb0ff97c7aebce82a919afb1c8764",
          "topics": [
            "0xddf252ad1be2c89b69c2b068fc378daa952ba7f163c4a11628f55a4df523b3ef",
            "0x000000000000000000000000c77f7fed3b5cc8249adc428c5f44c9063b9734b4",
            "0x000000000000000000000000c77f7fed3b5cc8249adc428c5f44c9063b9734b4"
          ],
          "data": "0x000000000000000000000000000000000000000000000000000000000017dab9",
          "blockHash": "0x4acd14e0c25a2cff5f3e7a558138e7bde962dea6714752545ad62b590b0515e6",
          "blockNumber": "0x731489",
          "transactionHash": "0x704c878e99601b38ecba28940b0511f82512bc30c5ea22c6f920bc8210383ede",
          "transactionIndex": "0x7c",
          "logIndex": "0x111",
          "removed": false
        },
        {
          "address": "0x8aafd3ede9adb0ff97c7aebce82a919afb1c8764",
          "topics": [
            "0x4afcb4a87cdbd9974efdb92ee48bc8d7cd0ae4bf217004db3d080cbaee652ca7"
          ],
          "data": "0x00000000000000000000000000000000000000000000000000000000678ff3180000000000000000000000000000000000000000000000000004bbf0bfdff160000000000000000000000000000000000000000000000000000000000003f92f",
          "blockHash": "0x4acd14e0c25a2cff5f3e7a558138e7bde962dea6714752545ad62b590b0515e6",
          "blockNumber": "0x731489",
          "transactionHash": "0x704c878e99601b38ecba28940b0511f82512bc30c5ea22c6f920bc8210383ede",
          "transactionIndex": "0x7c",
          "logIndex": "0x112",
          "removed": false
        }
      ],
      "logsBloom": "0x00000000000000000000000000000000000000000600000000000000000000000000000000000000000000000000000000000000000000004000000000000000000000000000004000000008000000000000000000000000000000000000000000000000020000000000000000000800020000000000000000000010000000000000000000000000000000000000000000000000000000000000010000000000000000000000000000000000000000004000000000000000000000000000000000000002000000800000000000000000000000000000080000000000000020000000000000000000000000000000000000000000000000000000000000000000",
      "type": "0x2",
      "transactionHash": "0x704c878e99601b38ecba28940b0511f82512bc30c5ea22c6f920bc8210383ede",
      "transactionIndex": "0x7c",
      "blockHash": "0x4acd14e0c25a2cff5f3e7a558138e7bde962dea6714752545ad62b590b0515e6",
      "blockNumber": "0x731489",
      "gasUsed": "0xf21f",
      "effectiveGasPrice": "0x8e0de96b",
      "from": "0xc77f7fed3b5cc8249adc428c5f44c9063b9734b4",
      "to": "0x8aafd3ede9adb0ff97c7aebce82a919afb1c8764",
      "contractAddress": null
    }
  ],
  "libraries": [],
  "pending": [],
  "returns": {},
  "timestamp": 1737487129,
  "chain": 11155111,
  "commit": "51a374b"
}