{
  "transactions": [
    {
      "hash": "0x3900810500211b2588a9a77307ada4681f85fbd349d63787479deb1cc5de976f",
      "transactionType": "CALL",
      "contractName": null,
      "contractAddress": "0x270e88f8683660553e8ba4eb2ad7c91a1710d769",
      "function": "sell(uint256)",
      "arguments": [
        "944685675290694454145"
      ],
      "transaction": {
        "from": "0xc77f7fed3b5cc8249adc428c5f44c9063b9734b4",
        "to": "0x270e88f8683660553e8ba4eb2ad7c91a1710d769",
        "gas": "0x16fec",
        "value": "0x0",
        "input": "0xe4849b320000000000000000000000000000000000000000000000333625b88485db0b81",
        "nonce": "0x613",
        "chainId": "0xaa36a7"
      },
      "additionalContracts": [],
      "isFixedGasLimit": false
    }
  ],
  "receipts": [
    {
      "status": "0x1",
      "cumulativeGasUsed": "0x83128f",
      "logs": [
        {
          "address": "0x270e88f8683660553e8ba4eb2ad7c91a1710d769",
          "topics": [
            "0xddf252ad1be2c89b69c2b068fc378daa952ba7f163c4a11628f55a4df523b3ef",
            "0x000000000000000000000000c77f7fed3b5cc8249adc428c5f44c9063b9734b4",
            "0x0000000000000000000000000000000000000000000000000000000000000000"
          ],
          "data": "0x0000000000000000000000000000000000000000000000333625b88485db0b81",
          "blockHash": "0xe474c1fc55753c119a5b0f43432747e6fc71bdb49996233da991cfe0c2453d68",
          "blockNumber": "0x7252dd",
          "transactionHash": "0x3900810500211b2588a9a77307ada4681f85fbd349d63787479deb1cc5de976f",
          "transactionIndex": "0x43",
          "logIndex": "0x95",
          "removed": false
        },
        {
          "address": "0x270e88f8683660553e8ba4eb2ad7c91a1710d769",
          "topics": [
            "0x4afcb4a87cdbd9974efdb92ee48bc8d7cd0ae4bf217004db3d080cbaee652ca7"
          ],
          "data": "0x000000000000000000000000000000000000000000000000000000006786d4640000000000000000000000000000000000000000000000000003bc4e0292e1880000000000000000000000000000000000000000000000000dc83d9cc70980b6",
          "blockHash": "0xe474c1fc55753c119a5b0f43432747e6fc71bdb49996233da991cfe0c2453d68",
          "blockNumber": "0x7252dd",
          "transactionHash": "0x3900810500211b2588a9a77307ada4681f85fbd349d63787479deb1cc5de976f",
          "transactionIndex": "0x43",
          "logIndex": "0x96",
          "removed": false
        }
      ],
      "logsBloom": "0x00000000000000000000000000000000000000000000000000000000000000000000000000000000000000000000000020000000000000004000000000000000000000000000000000000008000000000000000000000000000000000000000000000000020000000000000000000800020000000000000000000010000000000000000000010000000000000000000000000000000000000000010000000000000000000000000000000000000000004000000000000000000000000000000000000002000000800000000000000000000000000000080000008000000020000000000000000000000000000000000000000000000000000000000000000000",
      "type": "0x2",
      "transactionHash": "0x3900810500211b2588a9a77307ada4681f85fbd349d63787479deb1cc5de976f",
      "transactionIndex": "0x43",
      "blockHash": "0xe474c1fc55753c119a5b0f43432747e6fc71bdb49996233da991cfe0c2453d68",
      "blockNumber": "0x7252dd",
      "gasUsed": "0xfb93",
      "effectiveGasPrice": "0x2987dd8e1",
      "from": "0xc77f7fed3b5cc8249adc428c5f44c9063b9734b4",
      "to": "0x270e88f8683660553e8ba4eb2ad7c91a1710d769",
      "contractAddress": null
    }
  ],
  "libraries": [],
  "pending": [],
  "returns": {},
  "timestamp": 1736889445,
  "chain": 11155111,
  "commit": "51a374b"
}