{
  "transactions": [
    {
      "hash": "0xd2f0b58fe511c793d431721687cd3f3082f0fa0b79a758d30fa4c31fafe9a25e",
      "transactionType": "CALL",
      "contractName": null,
      "contractAddress": "0x5eb9cc76c3506942c1c0ead70e877dd5e4f00cb0",
      "function": "buy(address)",
      "arguments": [
        "0xC77f7fed3b5Cc8249aDc428c5F44C9063B9734b4"
      ],
      "transaction": {
        "from": "0xc77f7fed3b5cc8249adc428c5f44c9063b9734b4",
        "to": "0x5eb9cc76c3506942c1c0ead70e877dd5e4f00cb0",
        "gas": "0x1b30c",
        "value": "0xde0b6b3a7640000",
        "input": "0xf088d547000000000000000000000000c77f7fed3b5cc8249adc428c5f44c9063b9734b4",
        "nonce": "0x38e",
        "chainId": "0xaa36a7"
      },
      "additionalContracts": [],
      "isFixedGasLimit": false
    }
  ],
  "receipts": [
    {
      "status": "0x1",
      "cumulativeGasUsed": "0xc661b3",
      "logs": [
        {
          "address": "0x5eb9cc76c3506942c1c0ead70e877dd5e4f00cb0",
          "topics": [
            "0xddf252ad1be2c89b69c2b068fc378daa952ba7f163c4a11628f55a4df523b3ef",
            "0x0000000000000000000000000000000000000000000000000000000000000000",
            "0x000000000000000000000000c77f7fed3b5cc8249adc428c5f44c9063b9734b4"
          ],
          "data": "0x000000000000000000000000000000000000000000000035754290e4faa77556",
          "blockHash": "0xee6d9faefa1cae661e61048249a9bd2374b4d43223f34b195976660aa9d090ec",
          "blockNumber": "0x724f89",
          "transactionHash": "0xd2f0b58fe511c793d431721687cd3f3082f0fa0b79a758d30fa4c31fafe9a25e",
          "transactionIndex": "0x5e",
          "logIndex": "0x83",
          "removed": false
        },
        {
          "address": "0x5eb9cc76c3506942c1c0ead70e877dd5e4f00cb0",
          "topics": [
            "0xddf252ad1be2c89b69c2b068fc378daa952ba7f163c4a11628f55a4df523b3ef",
            "0x0000000000000000000000000000000000000000000000000000000000000000",
            "0x000000000000000000000000c77f7fed3b5cc8249adc428c5f44c9063b9734b4"
          ],
          "data": "0x0000000000000000000000000000000000000000000000002983123adb62bf4e",
          "blockHash": "0xee6d9faefa1cae661e61048249a9bd2374b4d43223f34b195976660aa9d090ec",
          "blockNumber": "0x724f89",
          "transactionHash": "0xd2f0b58fe511c793d431721687cd3f3082f0fa0b79a758d30fa4c31fafe9a25e",
          "transactionIndex": "0x5e",
          "logIndex": "0x84",
          "removed": false
        },
        {
          "address": "0x5eb9cc76c3506942c1c0ead70e877dd5e4f00cb0",
          "topics": [
            "0x4afcb4a87cdbd9974efdb92ee48bc8d7cd0ae4bf217004db3d080cbaee652ca7"
          ],
          "data": "0x000000000000000000000000000000000000000000000000000000006786ac20000000000000000000000000000000000000000000000000000391112187f91f0000000000000000000000000000000000000000000000000de0b6b3a7640000",
          "blockHash": "0xee6d9faefa1cae661e61048249a9bd2374b4d43223f34b195976660aa9d090ec",
          "blockNumber": "0x724f89",
          "transactionHash": "0xd2f0b58fe511c793d431721687cd3f3082f0fa0b79a758d30fa4c31fafe9a25e",
          "transactionIndex": "0x5e",
          "logIndex": "0x85",
          "removed": false
        }
      ],
      "logsBloom": "0x00000000000000000000000000000000000000000000000000000000000000000000000000000000000000000000000000000000000000004000000000000000000000000000000000000008000000000000000000000000000000000000000000000000020000000000000004000800020000000000000000000010000000000000000000000000000000000000000000000000000000000000010000000000000000000000000000000000000000004000000000000000000000000000020000000002000000800000008000000000000000000000080000000000000020000000000000000000000000000000000000000000000000000000000000000000",
      "type": "0x2",
      "transactionHash": "0xd2f0b58fe511c793d431721687cd3f3082f0fa0b79a758d30fa4c31fafe9a25e",
      "transactionIndex": "0x5e",
      "blockHash": "0xee6d9faefa1cae661e61048249a9bd2374b4d43223f34b195976660aa9d090ec",
      "blockNumber": "0x724f89",
      "gasUsed": "0x13af8",
      "effectiveGasPrice": "0x5964bacb7",
      "from": "0xc77f7fed3b5cc8249adc428c5f44c9063b9734b4",
      "to": "0x5eb9cc76c3506942c1c0ead70e877dd5e4f00cb0",
      "contractAddress": null
    }
  ],
  "libraries": [],
  "pending": [],
  "returns": {},
  "timestamp": 1736879138,
  "chain": 11155111,
  "commit": "51a374b"
}