{
  "transactions": [
    {
      "hash": "0xbdd5bc382ce27efa0026ac52c9639aed6d70c4658be8d1a6ed2914dd42801ff1",
      "transactionType": "CALL",
      "contractName": null,
      "contractAddress": "0x8aafd3ede9adb0ff97c7aebce82a919afb1c8764",
      "function": "sell(uint256)",
      "arguments": [
        "48005285529747875"
      ],
      "transaction": {
        "from": "0xc77f7fed3b5cc8249adc428c5f44c9063b9734b4",
        "to": "0x8aafd3ede9adb0ff97c7aebce82a919afb1c8764",
        "gas": "0x1724d",
        "value": "0x0",
        "input": "0xe4849b3200000000000000000000000000000000000000000000000000aa8c8d875781a3",
        "nonce": "0xe58",
        "chainId": "0xaa36a7"
      },
      "additionalContracts": [],
      "isFixedGasLimit": false
    }
  ],
  "receipts": [
    {
      "status": "0x1",
      "cumulativeGasUsed": "0xc28210",
      "logs": [
        {
          "address": "0x8aafd3ede9adb0ff97c7aebce82a919afb1c8764",
          "topics": [
            "0xddf252ad1be2c89b69c2b068fc378daa952ba7f163c4a11628f55a4df523b3ef",
            "0x000000000000000000000000c77f7fed3b5cc8249adc428c5f44c9063b9734b4",
            "0x0000000000000000000000000000000000000000000000000000000000000000"
          ],
          "data": "0x00000000000000000000000000000000000000000000000000a92f44b7693d04",
          "blockHash": "0x50ccc7effe651221bb54b9e7177c16794450efc1978ee355e5482287a7f3917c",
          "blockNumber": "0x7313aa",
          "transactionHash": "0xbdd5bc382ce27efa0026ac52c9639aed6d70c4658be8d1a6ed2914dd42801ff1",
          "transactionIndex": "0x83",
          "logIndex": "0xbb",
          "removed": false
        },
        {
          "address": "0x8aafd3ede9adb0ff97c7aebce82a919afb1c8764",
          "topics": [
            "0xddf252ad1be2c89b69c2b068fc378daa952ba7f163c4a11628f55a4df523b3ef",
            "0x000000000000000000000000c77f7fed3b5cc8249adc428c5f44c9063b9734b4",
            "0x000000000000000000000000c77f7fed3b5cc8249adc428c5f44c9063b9734b4"
          ],
          "data": "0x00000000000000000000000000000000000000000000000000015d48cfee449f",
          "blockHash": "0x50ccc7effe651221bb54b9e7177c16794450efc1978ee355e5482287a7f3917c",
          "blockNumber": "0x7313aa",
          "transactionHash": "0xbdd5bc382ce27efa0026ac52c9639aed6d70c4658be8d1a6ed2914dd42801ff1",
          "transactionIndex": "0x83",
          "logIndex": "0xbc",
          "removed": false
        },
        {
          "address": "0x8aafd3ede9adb0ff97c7aebce82a919afb1c8764",
          "topics": [
            "0x4afcb4a87cdbd9974efdb92ee48bc8d7cd0ae4bf217004db3d080cbaee652ca7"
          ],
          "data": "0x00000000000000000000000000000000000000000000000000000000678fe88c0000000000000000000000000000000000000000000000000004b4752e9c3593000000000000000000000000000000000000000000000000000039d20199ee07",
          "blockHash": "0x50ccc7effe651221bb54b9e7177c16794450efc1978ee355e5482287a7f3917c",
          "blockNumber": "0x7313aa",
          "transactionHash": "0xbdd5bc382ce27efa0026ac52c9639aed6d70c4658be8d1a6ed2914dd42801ff1",
          "transactionIndex": "0x83",
          "logIndex": "0xbd",
          "removed": false
        }
      ],
      "logsBloom": "0x00000000000000000000000000000000000000000600000000000000000000000000000000000000000000000000000000000000000000004000000000000000000000000000004000000008000000000000000000000000000000000000000000000000020000000000000000000800020000000000000000000010000000000000000000000000000000000000000000000000000000000000010000000000000000000000000000000000000000004000000000000000000000000000000000000002000000800000000000000000000000000000080000000000000020000000000000000000000000000000000000000000000000000000000000000000",
      "type": "0x2",
      "transactionHash": "0xbdd5bc382ce27efa0026ac52c9639aed6d70c4658be8d1a6ed2914dd42801ff1",
      "transactionIndex": "0x83",
      "blockHash": "0x50ccc7effe651221bb54b9e7177c16794450efc1978ee355e5482287a7f3917c",
      "blockNumber": "0x7313aa",
      "gasUsed": "0xfd33",
      "effectiveGasPrice": "0x81822995",
      "from": "0xc77f7fed3b5cc8249adc428c5f44c9063b9734b4",
      "to": "0x8aafd3ede9adb0ff97c7aebce82a919afb1c8764",
      "contractAddress": null
    }
  ],
  "libraries": [],
  "pending": [],
  "returns": {},
  "timestamp": 1737484430,
  "chain": 11155111,
  "commit": "51a374b"
}