{
  "transactions": [
    {
      "hash": "0x1dea99c2c73f0b660fd23f095eaf1a19bad61dfd189b9b38c9154a6c0131f4e3",
      "transactionType": "CALL",
      "contractName": null,
      "contractAddress": "0x8aafd3ede9adb0ff97c7aebce82a919afb1c8764",
      "function": "sell(uint256)",
      "arguments": [
        "1567624"
      ],
      "transaction": {
        "from": "0xc77f7fed3b5cc8249adc428c5f44c9063b9734b4",
        "to": "0x8aafd3ede9adb0ff97c7aebce82a919afb1c8764",
        "gas": "0x16208",
        "value": "0x0",
        "input": "0xe4849b32000000000000000000000000000000000000000000000000000000000017eb88",
        "nonce": "0xec1",
        "chainId": "0xaa36a7"
      },
      "additionalContracts": [],
      "isFixedGasLimit": false
    }
  ],
  "receipts": [
    {
      "status": "0x1",
      "cumulativeGasUsed": "0xaf7db9",
      "logs": [
        {
          "address": "0x8aafd3ede9adb0ff97c7aebce82a919afb1c8764",
          "topics": [
            "0xddf252ad1be2c89b69c2b068fc378daa952ba7f163c4a11628f55a4df523b3ef",
            "0x000000000000000000000000c77f7fed3b5cc8249adc428c5f44c9063b9734b4",
            "0x0000000000000000000000000000000000000000000000000000000000000000"
          ],
          "data": "0x000000000000000000000000000000000000000000000000000000000017ba8c",
          "blockHash": "0xa05094f3f4e5e712bb8cbcdbc1e86c1dfecbcc7bc53469bd09dfe4b3f8deff0f",
          "blockNumber": "0x731429",
          "transactionHash": "0x1dea99c2c73f0b660fd23f095eaf1a19bad61dfd189b9b38c9154a6c0131f4e3",
          "transactionIndex": "0x81",
          "logIndex": "0xc4",
          "removed": false
        },
        {
          "address": "0x8aafd3ede9adb0ff97c7aebce82a919afb1c8764",
          "topics": [
            "0xddf252ad1be2c89b69c2b068fc378daa952ba7f163c4a11628f55a4df523b3ef",
            "0x000000000000000000000000c77f7fed3b5cc8249adc428c5f44c9063b9734b4",
            "0x000000000000000000000000c77f7fed3b5cc8249adc428c5f44c9063b9734b4"
          ],
          "data": "0x00000000000000000000000000000000000000000000000000000000000030fc",
          "blockHash": "0xa05094f3f4e5e712bb8cbcdbc1e86c1dfecbcc7bc53469bd09dfe4b3f8deff0f",
          "blockNumber": "0x731429",
          "transactionHash": "0x1dea99c2c73f0b660fd23f095eaf1a19bad61dfd189b9b38c9154a6c0131f4e3",
          "transactionIndex": "0x81",
          "logIndex": "0xc5",
          "removed": false
        },
        {
          "address": "0x8aafd3ede9adb0ff97c7aebce82a919afb1c8764",
          "topics": [
            "0x4afcb4a87cdbd9974efdb92ee48bc8d7cd0ae4bf217004db3d080cbaee652ca7"
          ],
          "data": "0x00000000000000000000000000000000000000000000000000000000678fee980000000000000000000000000000000000000000000000000004b89d615875540000000000000000000000000000000000000000000000000000000000000823",
          "blockHash": "0xa05094f3f4e5e712bb8cbcdbc1e86c1dfecbcc7bc53469bd09dfe4b3f8deff0f",
          "blockNumber": "0x731429",
          "transactionHash": "0x1dea99c2c73f0b660fd23f095eaf1a19bad61dfd189b9b38c9154a6c0131f4e3",
          "transactionIndex": "0x81",
          "logIndex": "0xc6",
          "removed": false
        }
      ],
      "logsBloom": "0x00000000000000000000000000000000000000000600000000000000000000000000000000000000000000000000000000000000000000004000000000000000000000000000004000000008000000000000000000000000000000000000000000000000020000000000000000000800020000000000000000000010000000000000000000000000000000000000000000000000000000000000010000000000000000000000000000000000000000004000000000000000000000000000000000000002000000800000000000000000000000000000080000000000000020000000000000000000000000000000000000000000000000000000000000000000",
      "type": "0x2",
      "transactionHash": "0x1dea99c2c73f0b660fd23f095eaf1a19bad61dfd189b9b38c9154a6c0131f4e3",
      "transactionIndex": "0x81",
      "blockHash": "0xa05094f3f4e5e712bb8cbcdbc1e86c1dfecbcc7bc53469bd09dfe4b3f8deff0f",
      "blockNumber": "0x731429",
      "gasUsed": "0xf213",
      "effectiveGasPrice": "0xc18b7594",
      "from": "0xc77f7fed3b5cc8249adc428c5f44c9063b9734b4",
      "to": "0x8aafd3ede9adb0ff97c7aebce82a919afb1c8764",
      "contractAddress": null
    }
  ],
  "libraries": [],
  "pending": [],
  "returns": {},
  "timestamp": 1737485977,
  "chain": 11155111,
  "commit": "51a374b"
}