{
  "transactions": [
    {
      "hash": "0xb914a36cc2eecea65319e82887ac618e92cf32912b03197d59135d06f15fb687",
      "transactionType": "CALL",
      "contractName": null,
      "contractAddress": "0x5eb9cc76c3506942c1c0ead70e877dd5e4f00cb0",
      "function": "sell(uint256)",
      "arguments": [
        "989125814992528092180"
      ],
      "transaction": {
        "from": "0xc77f7fed3b5cc8249adc428c5f44c9063b9734b4",
        "to": "0x5eb9cc76c3506942c1c0ead70e877dd5e4f00cb0",
        "gas": "0x16fec",
        "value": "0x0",
        "input": "0xe4849b320000000000000000000000000000000000000000000000359ee0d01f5e622c14",
        "nonce": "0x35f",
        "chainId": "0xaa36a7"
      },
      "additionalContracts": [],
      "isFixedGasLimit": false
    }
  ],
  "receipts": [
    {
      "status": "0x1",
      "cumulativeGasUsed": "0xcb8883",
      "logs": [
        {
          "address": "0x5eb9cc76c3506942c1c0ead70e877dd5e4f00cb0",
          "topics": [
            "0xddf252ad1be2c89b69c2b068fc378daa952ba7f163c4a11628f55a4df523b3ef",
            "0x000000000000000000000000c77f7fed3b5cc8249adc428c5f44c9063b9734b4",
            "0x0000000000000000000000000000000000000000000000000000000000000000"
          ],
          "data": "0x0000000000000000000000000000000000000000000000359ee0d01f5e622c14",
          "blockHash": "0xf86a26aa43c4b70c2f499794cfb37d7dffab4a8756376933c2599ec7a27eb32a",
          "blockNumber": "0x724f55",
          "transactionHash": "0xb914a36cc2eecea65319e82887ac618e92cf32912b03197d59135d06f15fb687",
          "transactionIndex": "0x61",
          "logIndex": "0xd9",
          "removed": false
        },
        {
          "address": "0x5eb9cc76c3506942c1c0ead70e877dd5e4f00cb0",
          "topics": [
            "0x4afcb4a87cdbd9974efdb92ee48bc8d7cd0ae4bf217004db3d080cbaee652ca7"
          ],
          "data": "0x000000000000000000000000000000000000000000000000000000006786a9b00000000000000000000000000000000000000000000000000003910f5f1af1650000000000000000000000000000000000000000000000000dc7db13321561f9",
          "blockHash": "0xf86a26aa43c4b70c2f499794cfb37d7dffab4a8756376933c2599ec7a27eb32a",
          "blockNumber": "0x724f55",
          "transactionHash": "0xb914a36cc2eecea65319e82887ac618e92cf32912b03197d59135d06f15fb687",
          "transactionIndex": "0x61",
          "logIndex": "0xda",
          "removed": false
        }
      ],
      "logsBloom": "0x00000000000000000000000000000000000000000000000000000000000000000000000000000000000000000000000000000000000000004000000000000000000000000000000000000008000000000000000000000000000000000000000000000000020000000000000004000800020000000000000000000010000000000000000000000000000000000000000000000000000000000000010000000000000000000000000000000000000000004000000000000000000000000000020000000002000000800000008000000000000000000000080000000000000020000000000000000000000000000000000000000000000000000000000000000000",
      "type": "0x2",
      "transactionHash": "0xb914a36cc2eecea65319e82887ac618e92cf32912b03197d59135d06f15fb687",
      "transactionIndex": "0x61",
      "blockHash": "0xf86a26aa43c4b70c2f499794cfb37d7dffab4a8756376933c2599ec7a27eb32a",
      "blockNumber": "0x724f55",
      "gasUsed": "0xfb93",
      "effectiveGasPrice": "0x54d9ad2ff",
      "from": "0xc77f7fed3b5cc8249adc428c5f44c9063b9734b4",
      "to": "0x5eb9cc76c3506942c1c0ead70e877dd5e4f00cb0",
      "contractAddress": null
    }
  ],
  "libraries": [],
  "pending": [],
  "returns": {},
  "timestamp": 1736878513,
  "chain": 11155111,
  "commit": "51a374b"
}