{
  "transactions": [
    {
      "hash": "0x053a8911bb5287ff0960f31e575199ca0d2d603e6c8645e3a48698eb35c443cd",
      "transactionType": "CALL",
      "contractName": null,
      "contractAddress": "0x8aafd3ede9adb0ff97c7aebce82a919afb1c8764",
      "function": "sell(uint256)",
      "arguments": [
        "45137528118180210"
      ],
      "transaction": {
        "from": "0xc77f7fed3b5cc8249adc428c5f44c9063b9734b4",
        "to": "0x8aafd3ede9adb0ff97c7aebce82a919afb1c8764",
        "gas": "0x1724d",
        "value": "0x0",
        "input": "0xe4849b3200000000000000000000000000000000000000000000000000a05c57b985f972",
        "nonce": "0x10bb",
        "chainId": "0xaa36a7"
      },
      "additionalContracts": [],
      "isFixedGasLimit": false
    }
  ],
  "receipts": [
    {
      "status": "0x1",
      "cumulativeGasUsed": "0xefb571",
      "logs": [
        {
          "address": "0x8aafd3ede9adb0ff97c7aebce82a919afb1c8764",
          "topics": [
            "0xddf252ad1be2c89b69c2b068fc378daa952ba7f163c4a11628f55a4df523b3ef",
            "0x000000000000000000000000c77f7fed3b5cc8249adc428c5f44c9063b9734b4",
            "0x0000000000000000000000000000000000000000000000000000000000000000"
          ],
          "data": "0x000000000000000000000000000000000000000000000000009f13ec86e31c51",
          "blockHash": "0x112b1218de30a755f9b212dee3f0a594bf0cb06b45a35e7ed87cccba4e9957e5",
          "blockNumber": "0x731752",
          "transactionHash": "0x053a8911bb5287ff0960f31e575199ca0d2d603e6c8645e3a48698eb35c443cd",
          "transactionIndex": "0x97",
          "logIndex": "0x10e",
          "removed": false
        },
        {
          "address": "0x8aafd3ede9adb0ff97c7aebce82a919afb1c8764",
          "topics": [
            "0xddf252ad1be2c89b69c2b068fc378daa952ba7f163c4a11628f55a4df523b3ef",
            "0x000000000000000000000000c77f7fed3b5cc8249adc428c5f44c9063b9734b4",
            "0x000000000000000000000000c77f7fed3b5cc8249adc428c5f44c9063b9734b4"
          ],
          "data": "0x0000000000000000000000000000000000000000000000000001486b32a2dd21",
          "blockHash": "0x112b1218de30a755f9b212dee3f0a594bf0cb06b45a35e7ed87cccba4e9957e5",
          "blockNumber": "0x731752",
          "transactionHash": "0x053a8911bb5287ff0960f31e575199ca0d2d603e6c8645e3a48698eb35c443cd",
          "transactionIndex": "0x97",
          "logIndex": "0x10f",
          "removed": false
        },
        {
          "address": "0x8aafd3ede9adb0ff97c7aebce82a919afb1c8764",
          "topics": [
            "0x4afcb4a87cdbd9974efdb92ee48bc8d7cd0ae4bf217004db3d080cbaee652ca7"
          ],
          "data": "0x000000000000000000000000000000000000000000000000000000006790149c000000000000000000000000000000000000000000000000000501fde3dd8fc5000000000000000000000000000000000000000000000000000039ddadfbff31",
          "blockHash": "0x112b1218de30a755f9b212dee3f0a594bf0cb06b45a35e7ed87cccba4e9957e5",
          "blockNumber": "0x731752",
          "transactionHash": "0x053a8911bb5287ff0960f31e575199ca0d2d603e6c8645e3a48698eb35c443cd",
          "transactionIndex": "0x97",
          "logIndex": "0x110",
          "removed": false
        }
      ],
      "logsBloom": "0x00000000000000000000000000000000000000000600000000000000000000000000000000000000000000000000000000000000000000004000000000000000000000000000004000000008000000000000000000000000000000000000000000000000020000000000000000000800020000000000000000000010000000000000000000000000000000000000000000000000000000000000010000000000000000000000000000000000000000004000000000000000000000000000000000000002000000800000000000000000000000000000080000000000000020000000000000000000000000000000000000000000000000000000000000000000",
      "type": "0x2",
      "transactionHash": "0x053a8911bb5287ff0960f31e575199ca0d2d603e6c8645e3a48698eb35c443cd",
      "transactionIndex": "0x97",
      "blockHash": "0x112b1218de30a755f9b212dee3f0a594bf0cb06b45a35e7ed87cccba4e9957e5",
      "blockNumber": "0x731752",
      "gasUsed": "0xfd33",
      "effectiveGasPrice": "0x37351a33",
      "from": "0xc77f7fed3b5cc8249adc428c5f44c9063b9734b4",
      "to": "0x8aafd3ede9adb0ff97c7aebce82a919afb1c8764",
      "contractAddress": null
    }
  ],
  "libraries": [],
  "pending": [],
  "returns": {},
  "timestamp": 1737495709,
  "chain": 11155111,
  "commit": "1d2fb70"
}