{
  "transactions": [
    {
      "hash": "0xc828fe2a11c27622e948f01475907c2ae4f2192e0e3db9d2f43ca6c1694ccce8",
      "transactionType": "CALL",
      "contractName": null,
      "contractAddress": "0x270e88f8683660553e8ba4eb2ad7c91a1710d769",
      "function": "buy(address)",
      "arguments": [
        "0xC77f7fed3b5Cc8249aDc428c5F44C9063B9734b4"
      ],
      "transaction": {
        "from": "0xc77f7fed3b5cc8249adc428c5f44c9063b9734b4",
        "to": "0x270e88f8683660553e8ba4eb2ad7c91a1710d769",
        "gas": "0x1b30c",
        "value": "0xde0b6b3a7640000",
        "input": "0xf088d547000000000000000000000000c77f7fed3b5cc8249adc428c5f44c9063b9734b4",
        "nonce": "0x821",
        "chainId": "0xaa36a7"
      },
      "additionalContracts": [],
      "isFixedGasLimit": false
    }
  ],
  "receipts": [
    {
      "status": "0x1",
      "cumulativeGasUsed": "0xecd902",
      "logs": [
        {
          "address": "0x270e88f8683660553e8ba4eb2ad7c91a1710d769",
          "topics": [
            "0xddf252ad1be2c89b69c2b068fc378daa952ba7f163c4a11628f55a4df523b3ef",
            "0x0000000000000000000000000000000000000000000000000000000000000000",
            "0x000000000000000000000000c77f7fed3b5cc8249adc428c5f44c9063b9734b4"
          ],
          "data": "0x000000000000000000000000000000000000000000000026ea90207d7ceeb639",
          "blockHash": "0x360dd4de1bfc400198cb0ccdbe98477321cd84256ccbbe6915a5bbc567e37325",
          "blockNumber": "0x725568",
          "transactionHash": "0xc828fe2a11c27622e948f01475907c2ae4f2192e0e3db9d2f43ca6c1694ccce8",
          "transactionIndex": "0x86",
          "logIndex": "0xc3",
          "removed": false
        },
        {
          "address": "0x270e88f8683660553e8ba4eb2ad7c91a1710d769",
          "topics": [
            "0xddf252ad1be2c89b69c2b068fc378daa952ba7f163c4a11628f55a4df523b3ef",
            "0x0000000000000000000000000000000000000000000000000000000000000000",
            "0x000000000000000000000000c77f7fed3b5cc8249adc428c5f44c9063b9734b4"
          ],
          "data": "0x0000000000000000000000000000000000000000000000001e38451ded8259d6",
          "blockHash": "0x360dd4de1bfc400198cb0ccdbe98477321cd84256ccbbe6915a5bbc567e37325",
          "blockNumber": "0x725568",
          "transactionHash": "0xc828fe2a11c27622e948f01475907c2ae4f2192e0e3db9d2f43ca6c1694ccce8",
          "transactionIndex": "0x86",
          "logIndex": "0xc4",
          "removed": false
        },
        {
          "address": "0x270e88f8683660553e8ba4eb2ad7c91a1710d769",
          "topics": [
            "0x4afcb4a87cdbd9974efdb92ee48bc8d7cd0ae4bf217004db3d080cbaee652ca7"
          ],
          "data": "0x000000000000000000000000000000000000000000000000000000006786f2e80000000000000000000000000000000000000000000000000004e65b2411a5340000000000000000000000000000000000000000000000000de0b6b3a7640000",
          "blockHash": "0x360dd4de1bfc400198cb0ccdbe98477321cd84256ccbbe6915a5bbc567e37325",
          "blockNumber": "0x725568",
          "transactionHash": "0xc828fe2a11c27622e948f01475907c2ae4f2192e0e3db9d2f43ca6c1694ccce8",
          "transactionIndex": "0x86",
          "logIndex": "0xc5",
          "removed": false
        }
      ],
      "logsBloom": "0x00000000000000000000000000000000000000000000000000000000000000000000000000000000000000000000000020000000000000004000000000000000000000000000000000000008000000000000000000000000000000000000000000000000020000000000000000000800020000000000000000000010000000000000000000010000000000000000000000000000000000000000010000000000000000000000000000000000000000004000000000000000000000000000000000000002000000800000000000000000000000000000080000008000000020000000000000000000000000000000000000000000000000000000000000000000",
      "type": "0x2",
      "transactionHash": "0xc828fe2a11c27622e948f01475907c2ae4f2192e0e3db9d2f43ca6c1694ccce8",
      "transactionIndex": "0x86",
      "blockHash": "0x360dd4de1bfc400198cb0ccdbe98477321cd84256ccbbe6915a5bbc567e37325",
      "blockNumber": "0x725568",
      "gasUsed": "0x13af8",
      "effectiveGasPrice": "0x9113ee2f",
      "from": "0xc77f7fed3b5cc8249adc428c5f44c9063b9734b4",
      "to": "0x270e88f8683660553e8ba4eb2ad7c91a1710d769",
      "contractAddress": null
    }
  ],
  "libraries": [],
  "pending": [],
  "returns": {},
  "timestamp": 1736897258,
  "chain": 11155111,
  "commit": "51a374b"
}