{
  "transactions": [
    {
      "hash": "0x2c07efed5e6aa69be7d4696b8e98dbd89b13ce8d06223c992919466385c24ef5",
      "transactionType": "CALL",
      "contractName": null,
      "contractAddress": "0xbf4a322f1496e5c3d34a9bcdb4c60567b38c7de2",
      "function": "sell(uint256)",
      "arguments": [
        "975043221321565446658"
      ],
      "transaction": {
        "from": "0xc77f7fed3b5cc8249adc428c5f44c9063b9734b4",
        "to": "0xbf4a322f1496e5c3d34a9bcdb4c60567b38c7de2",
        "gas": "0x16fea",
        "value": "0x0",
        "input": "0xe4849b32000000000000000000000000000000000000000000000034db7163caa47da202",
        "nonce": "0xd8b",
        "chainId": "0xaa36a7"
      },
      "additionalContracts": [],
      "isFixedGasLimit": false
    }
  ],
  "receipts": [
    {
      "status": "0x1",
      "cumulativeGasUsed": "0xa043fb",
      "logs": [
        {
          "address": "0xbf4a322f1496e5c3d34a9bcdb4c60567b38c7de2",
          "topics": [
            "0xddf252ad1be2c89b69c2b068fc378daa952ba7f163c4a11628f55a4df523b3ef",
            "0x000000000000000000000000c77f7fed3b5cc8249adc428c5f44c9063b9734b4",
            "0x0000000000000000000000000000000000000000000000000000000000000000"
          ],
          "data": "0x000000000000000000000000000000000000000000000034db7163caa47da202",
          "blockHash": "0x0eced85ec55cd06e825fbd5d0e1390a55459bb01f1ddfc89f8db1f7aea01227f",
          "blockNumber": "0x72665d",
          "transactionHash": "0x2c07efed5e6aa69be7d4696b8e98dbd89b13ce8d06223c992919466385c24ef5",
          "transactionIndex": "0x71",
          "logIndex": "0x9d",
          "removed": false
        },
        {
          "address": "0xbf4a322f1496e5c3d34a9bcdb4c60567b38c7de2",
          "topics": [
            "0x4afcb4a87cdbd9974efdb92ee48bc8d7cd0ae4bf217004db3d080cbaee652ca7"
          ],
          "data": "0x000000000000000000000000000000000000000000000000000000006787bf0c00000000000000000000000000000000000000000000000000039e45b9cae9be0000000000000000000000000000000000000000000000000dc7e3d68aa45b91",
          "blockHash": "0x0eced85ec55cd06e825fbd5d0e1390a55459bb01f1ddfc89f8db1f7aea01227f",
          "blockNumber": "0x72665d",
          "transactionHash": "0x2c07efed5e6aa69be7d4696b8e98dbd89b13ce8d06223c992919466385c24ef5",
          "transactionIndex": "0x71",
          "logIndex": "0x9e",
          "removed": false
        }
      ],
      "logsBloom": "0x00000000000000000000000000000000000000000000000000000000000000000000000000000000000000000000000000000000000000004000000000000000000000000000000000000008000000000000001000000000000000000000000000000000020000000000000000000800020000000000000000000010000000000000000000000000000000000000000000000000000008000000010000000000000000000000000000000000000000004000000000000000000000000000000000000002000000800000000000001000000000000000080000000000000020000000000000000000000000000000000000000000000000000000000000000000",
      "type": "0x2",
      "transactionHash": "0x2c07efed5e6aa69be7d4696b8e98dbd89b13ce8d06223c992919466385c24ef5",
      "transactionIndex": "0x71",
      "blockHash": "0x0eced85ec55cd06e825fbd5d0e1390a55459bb01f1ddfc89f8db1f7aea01227f",
      "blockNumber": "0x72665d",
      "gasUsed": "0xfb91",
      "effectiveGasPrice": "0x89c625ff",
      "from": "0xc77f7fed3b5cc8249adc428c5f44c9063b9734b4",
      "to": "0xbf4a322f1496e5c3d34a9bcdb4c60567b38c7de2",
      "contractAddress": null
    }
  ],
  "libraries": [],
  "pending": [],
  "returns": {},
  "timestamp": 1736949518,
  "chain": 11155111,
  "commit": "51a374b"
}