{
  "transactions": [
    {
      "hash": "0xd8c1304bd684da79ee417309ec083be2e91eb8c1b23e185ee27cb258d9e81838",
      "transactionType": "CALL",
      "contractName": null,
      "contractAddress": "0xbf4a322f1496e5c3d34a9bcdb4c60567b38c7de2",
      "function": "sell(uint256)",
      "arguments": [
        "973080096514071254849"
      ],
      "transaction": {
        "from": "0xc77f7fed3b5cc8249adc428c5f44c9063b9734b4",
        "to": "0xbf4a322f1496e5c3d34a9bcdb4c60567b38c7de2",
        "gas": "0x16fea",
        "value": "0x0",
        "input": "0xe4849b32000000000000000000000000000000000000000000000034c032f82e240ad741",
        "nonce": "0xe1f",
        "chainId": "0xaa36a7"
      },
      "additionalContracts": [],
      "isFixedGasLimit": false
    }
  ],
  "receipts": [
    {
      "status": "0x1",
      "cumulativeGasUsed": "0x1449888",
      "logs": [
        {
          "address": "0xbf4a322f1496e5c3d34a9bcdb4c60567b38c7de2",
          "topics": [
            "0xddf252ad1be2c89b69c2b068fc378daa952ba7f163c4a11628f55a4df523b3ef",
            "0x000000000000000000000000c77f7fed3b5cc8249adc428c5f44c9063b9734b4",
            "0x0000000000000000000000000000000000000000000000000000000000000000"
          ],
          "data": "0x000000000000000000000000000000000000000000000034c032f82e240ad741",
          "blockHash": "0x3be17001aa3a1165072cd08897852a3d86847f9ee13469f8ea645783aeef20d8",
          "blockNumber": "0x72670a",
          "transactionHash": "0xd8c1304bd684da79ee417309ec083be2e91eb8c1b23e185ee27cb258d9e81838",
          "transactionIndex": "0x56",
          "logIndex": "0x55",
          "removed": false
        },
        {
          "address": "0xbf4a322f1496e5c3d34a9bcdb4c60567b38c7de2",
          "topics": [
            "0x4afcb4a87cdbd9974efdb92ee48bc8d7cd0ae4bf217004db3d080cbaee652ca7"
          ],
          "data": "0x000000000000000000000000000000000000000000000000000000006787c7e80000000000000000000000000000000000000000000000000003a0241923d5df0000000000000000000000000000000000000000000000000dc7e3d1fa278296",
          "blockHash": "0x3be17001aa3a1165072cd08897852a3d86847f9ee13469f8ea645783aeef20d8",
          "blockNumber": "0x72670a",
          "transactionHash": "0xd8c1304bd684da79ee417309ec083be2e91eb8c1b23e185ee27cb258d9e81838",
          "transactionIndex": "0x56",
          "logIndex": "0x56",
          "removed": false
        }
      ],
      "logsBloom": "0x00000000000000000000000000000000000000000000000000000000000000000000000000000000000000000000000000000000000000004000000000000000000000000000000000000008000000000000001000000000000000000000000000000000020000000000000000000800020000000000000000000010000000000000000000000000000000000000000000000000000008000000010000000000000000000000000000000000000000004000000000000000000000000000000000000002000000800000000000001000000000000000080000000000000020000000000000000000000000000000000000000000000000000000000000000000",
      "type": "0x2",
      "transactionHash": "0xd8c1304bd684da79ee417309ec083be2e91eb8c1b23e185ee27cb258d9e81838",
      "transactionIndex": "0x56",
      "blockHash": "0x3be17001aa3a1165072cd08897852a3d86847f9ee13469f8ea645783aeef20d8",
      "blockNumber": "0x72670a",
      "gasUsed": "0xfb91",
      "effectiveGasPrice": "0x429124fd6",
      "from": "0xc77f7fed3b5cc8249adc428c5f44c9063b9734b4",
      "to": "0xbf4a322f1496e5c3d34a9bcdb4c60567b38c7de2",
      "contractAddress": null
    }
  ],
  "libraries": [],
  "pending": [],
  "returns": {},
  "timestamp": 1736951787,
  "chain": 11155111,
  "commit": "51a374b"
}