{
  "transactions": [
    {
      "hash": "0x273d126fa3d39123a696dec2b7fc4de853231754b56ce233179860bce6fe636f",
      "transactionType": "CALL",
      "contractName": null,
      "contractAddress": "0x5eb9cc76c3506942c1c0ead70e877dd5e4f00cb0",
      "function": "buy(address)",
      "arguments": [
        "0xC77f7fed3b5Cc8249aDc428c5F44C9063B9734b4"
      ],
      "transaction": {
        "from": "0xc77f7fed3b5cc8249adc428c5f44c9063b9734b4",
        "to": "0x5eb9cc76c3506942c1c0ead70e877dd5e4f00cb0",
        "gas": "0x1b30c",
        "value": "0xde0b6b3a7640000",
        "input": "0xf088d547000000000000000000000000c77f7fed3b5cc8249adc428c5f44c9063b9734b4",
        "nonce": "0x4ae",
        "chainId": "0xaa36a7"
      },
      "additionalContracts": [],
      "isFixedGasLimit": false
    }
  ],
  "receipts": [
    {
      "status": "0x1",
      "cumulativeGasUsed": "0xc50751",
      "logs": [
        {
          "address": "0x5eb9cc76c3506942c1c0ead70e877dd5e4f00cb0",
          "topics": [
            "0xddf252ad1be2c89b69c2b068fc378daa952ba7f163c4a11628f55a4df523b3ef",
            "0x0000000000000000000000000000000000000000000000000000000000000000",
            "0x000000000000000000000000c77f7fed3b5cc8249adc428c5f44c9063b9734b4"
          ],
          "data": "0x00000000000000000000000000000000000000000000003574a00364877abea0",
          "blockHash": "0x96eb227e81853668b9d7818936420624ebc221e7bb12a1205a8bbdbdc807d362",
          "blockNumber": "0x7250ec",
          "transactionHash": "0x273d126fa3d39123a696dec2b7fc4de853231754b56ce233179860bce6fe636f",
          "transactionIndex": "0x49",
          "logIndex": "0x6f",
          "removed": false
        },
        {
          "address": "0x5eb9cc76c3506942c1c0ead70e877dd5e4f00cb0",
          "topics": [
            "0xddf252ad1be2c89b69c2b068fc378daa952ba7f163c4a11628f55a4df523b3ef",
            "0x0000000000000000000000000000000000000000000000000000000000000000",
            "0x000000000000000000000000c77f7fed3b5cc8249adc428c5f44c9063b9734b4"
          ],
          "data": "0x000000000000000000000000000000000000000000000000298294008dad9408",
          "blockHash": "0x96eb227e81853668b9d7818936420624ebc221e7bb12a1205a8bbdbdc807d362",
          "blockNumber": "0x7250ec",
          "transactionHash": "0x273d126fa3d39123a696dec2b7fc4de853231754b56ce233179860bce6fe636f",
          "transactionIndex": "0x49",
          "logIndex": "0x70",
          "removed": false
        },
        {
          "address": "0x5eb9cc76c3506942c1c0ead70e877dd5e4f00cb0",
          "topics": [
            "0x4afcb4a87cdbd9974efdb92ee48bc8d7cd0ae4bf217004db3d080cbaee652ca7"
          ],
          "data": "0x000000000000000000000000000000000000000000000000000000006786bcf40000000000000000000000000000000000000000000000000003911bfa122f8f0000000000000000000000000000000000000000000000000de0b6b3a7640000",
          "blockHash": "0x96eb227e81853668b9d7818936420624ebc221e7bb12a1205a8bbdbdc807d362",
          "blockNumber": "0x7250ec",
          "transactionHash": "0x273d126fa3d39123a696dec2b7fc4de853231754b56ce233179860bce6fe636f",
          "transactionIndex": "0x49",
          "logIndex": "0x71",
          "removed": false
        }
      ],
      "logsBloom": "0x00000000000000000000000000000000000000000000000000000000000000000000000000000000000000000000000000000000000000004000000000000000000000000000000000000008000000000000000000000000000000000000000000000000020000000000000004000800020000000000000000000010000000000000000000000000000000000000000000000000000000000000010000000000000000000000000000000000000000004000000000000000000000000000020000000002000000800000008000000000000000000000080000000000000020000000000000000000000000000000000000000000000000000000000000000000",
      "type": "0x2",
      "transactionHash": "0x273d126fa3d39123a696dec2b7fc4de853231754b56ce233179860bce6fe636f",
      "transactionIndex": "0x49",
      "blockHash": "0x96eb227e81853668b9d7818936420624ebc221e7bb12a1205a8bbdbdc807d362",
      "blockNumber": "0x7250ec",
      "gasUsed": "0x13af8",
      "effectiveGasPrice": "0x2ac7ba9c6",
      "from": "0xc77f7fed3b5cc8249adc428c5f44c9063b9734b4",
      "to": "0x5eb9cc76c3506942c1c0ead70e877dd5e4f00cb0",
      "contractAddress": null
    }
  ],
  "libraries": [],
  "pending": [],
  "returns": {},
  "timestamp": 1736883445,
  "chain": 11155111,
  "commit": "51a374b"
}