{
  "transactions": [
    {
      "hash": "0xf14a2a0b780f15160c080ba0f096e7cd717a7ef249d0db26e688e01055af9097",
      "transactionType": "CALL",
      "contractName": null,
      "contractAddress": "0x8aafd3ede9adb0ff97c7aebce82a919afb1c8764",
      "function": "sell(uint256)",
      "arguments": [
        "1567085"
      ],
      "transaction": {
        "from": "0xc77f7fed3b5cc8249adc428c5f44c9063b9734b4",
        "to": "0x8aafd3ede9adb0ff97c7aebce82a919afb1c8764",
        "gas": "0x16208",
        "value": "0x0",
        "input": "0xe4849b32000000000000000000000000000000000000000000000000000000000017e96d",
        "nonce": "0xecb",
        "chainId": "0xaa36a7"
      },
      "additionalContracts": [],
      "isFixedGasLimit": false
    }
  ],
  "receipts": [
    {
      "status": "0x1",
      "cumulativeGasUsed": "0xb9defa",
      "logs": [
        {
          "address": "0x8aafd3ede9adb0ff97c7aebce82a919afb1c8764",
          "topics": [
            "0xddf252ad1be2c89b69c2b068fc378daa952ba7f163c4a11628f55a4df523b3ef",
            "0x000000000000000000000000c77f7fed3b5cc8249adc428c5f44c9063b9734b4",
            "0x0000000000000000000000000000000000000000000000000000000000000000"
          ],
          "data": "0x000000000000000000000000000000000000000000000000000000000017b875",
          "blockHash": "0x86146b3dc8e3c8c00c4307292a95407df972c98ee7aef28d4a881a0aa237b30c",
          "blockNumber": "0x731436",
          "transactionHash": "0xf14a2a0b780f15160c080ba0f096e7cd717a7ef249d0db26e688e01055af9097",
          "transactionIndex": "0x89",
          "logIndex": "0xef",
          "removed": false
        },
        {
          "address": "0x8aafd3ede9adb0ff97c7aebce82a919afb1c8764",
          "topics": [
            "0xddf252ad1be2c89b69c2b068fc378daa952ba7f163c4a11628f55a4df523b3ef",
            "0x000000000000000000000000c77f7fed3b5cc8249adc428c5f44c9063b9734b4",
            "0x000000000000000000000000c77f7fed3b5cc8249adc428c5f44c9063b9734b4"
          ],
          "data": "0x00000000000000000000000000000000000000000000000000000000000030f8",
          "blockHash": "0x86146b3dc8e3c8c00c4307292a95407df972c98ee7aef28d4a881a0aa237b30c",
          "blockNumber": "0x731436",
          "transactionHash": "0xf14a2a0b780f15160c080ba0f096e7cd717a7ef249d0db26e688e01055af9097",
          "transactionIndex": "0x89",
          "logIndex": "0xf0",
          "removed": false
        },
        {
          "address": "0x8aafd3ede9adb0ff97c7aebce82a919afb1c8764",
          "topics": [
            "0x4afcb4a87cdbd9974efdb92ee48bc8d7cd0ae4bf217004db3d080cbaee652ca7"
          ],
          "data": "0x00000000000000000000000000000000000000000000000000000000678fef340000000000000000000000000000000000000000000000000004b907cd07452f0000000000000000000000000000000000000000000000000000000000000823",
          "blockHash": "0x86146b3dc8e3c8c00c4307292a95407df972c98ee7aef28d4a881a0aa237b30c",
          "blockNumber": "0x731436",
          "transactionHash": "0xf14a2a0b780f15160c080ba0f096e7cd717a7ef249d0db26e688e01055af9097",
          "transactionIndex": "0x89",
          "logIndex": "0xf1",
          "removed": false
        }
      ],
      "logsBloom": "0x00000000000000000000000000000000000000000600000000000000000000000000000000000000000000000000000000000000000000004000000000000000000000000000004000000008000000000000000000000000000000000000000000000000020000000000000000000800020000000000000000000010000000000000000000000000000000000000000000000000000000000000010000000000000000000000000000000000000000004000000000000000000000000000000000000002000000800000000000000000000000000000080000000000000020000000000000000000000000000000000000000000000000000000000000000000",
      "type": "0x2",
      "transactionHash": "0xf14a2a0b780f15160c080ba0f096e7cd717a7ef249d0db26e688e01055af9097",
      "transactionIndex": "0x89",
      "blockHash": "0x86146b3dc8e3c8c00c4307292a95407df972c98ee7aef28d4a881a0aa237b30c",
      "blockNumber": "0x731436",
      "gasUsed": "0xf213",
      "effectiveGasPrice": "0xa0c9d4e1",
      "from": "0xc77f7fed3b5cc8249adc428c5f44c9063b9734b4",
      "to": "0x8aafd3ede9adb0ff97c7aebce82a919afb1c8764",
      "contractAddress": null
    }
  ],
  "libraries": [],
  "pending": [],
  "returns": {},
  "timestamp": 1737486133,
  "chain": 11155111,
  "commit": "51a374b"
}