{
  "transactions": [
    {
      "hash": "0x22988f98df512e8432eb9eeb5fdb50465abedb84f0d3947eab69ae25ea9bc7e1",
      "transactionType": "CALL",
      "contractName": null,
      "contractAddress": "0x270e88f8683660553e8ba4eb2ad7c91a1710d769",
      "function": "buy(address)",
      "arguments": [
        "0xC77f7fed3b5Cc8249aDc428c5F44C9063B9734b4"
      ],
      "transaction": {
        "from": "0xc77f7fed3b5cc8249adc428c5f44c9063b9734b4",
        "to": "0x270e88f8683660553e8ba4eb2ad7c91a1710d769",
        "gas": "0x1b30c",
        "value": "0xde0b6b3a7640000",
        "input": "0xf088d547000000000000000000000000c77f7fed3b5cc8249adc428c5f44c9063b9734b4",
        "nonce": "0x634",
        "chainId": "0xaa36a7"
      },
      "additionalContracts": [],
      "isFixedGasLimit": false
    }
  ],
  "receipts": [
    {
      "status": "0x1",
      "cumulativeGasUsed": "0x101c79b",
      "logs": [
        {
          "address": "0x270e88f8683660553e8ba4eb2ad7c91a1710d769",
          "topics": [
            "0xddf252ad1be2c89b69c2b068fc378daa952ba7f163c4a11628f55a4df523b3ef",
            "0x0000000000000000000000000000000000000000000000000000000000000000",
            "0x000000000000000000000000c77f7fed3b5cc8249adc428c5f44c9063b9734b4"
          ],
          "data": "0x000000000000000000000000000000000000000000000032cad8b7f90ed9ec34",
          "blockHash": "0x7e43a50cd82faf39940f2509e201e8306330abcec68cb4a978f4340c3882e65a",
          "blockNumber": "0x725306",
          "transactionHash": "0x22988f98df512e8432eb9eeb5fdb50465abedb84f0d3947eab69ae25ea9bc7e1",
          "transactionIndex": "0x8a",
          "logIndex": "0x11c",
          "removed": false
        },
        {
          "address": "0x270e88f8683660553e8ba4eb2ad7c91a1710d769",
          "topics": [
            "0xddf252ad1be2c89b69c2b068fc378daa952ba7f163c4a11628f55a4df523b3ef",
            "0x0000000000000000000000000000000000000000000000000000000000000000",
            "0x000000000000000000000000c77f7fed3b5cc8249adc428c5f44c9063b9734b4"
          ],
          "data": "0x000000000000000000000000000000000000000000000000277127647c5a45e7",
          "blockHash": "0x7e43a50cd82faf39940f2509e201e8306330abcec68cb4a978f4340c3882e65a",
          "blockNumber": "0x725306",
          "transactionHash": "0x22988f98df512e8432eb9eeb5fdb50465abedb84f0d3947eab69ae25ea9bc7e1",
          "transactionIndex": "0x8a",
          "logIndex": "0x11d",
          "removed": false
        },
        {
          "address": "0x270e88f8683660553e8ba4eb2ad7c91a1710d769",
          "topics": [
            "0x4afcb4a87cdbd9974efdb92ee48bc8d7cd0ae4bf217004db3d080cbaee652ca7"
          ],
          "data": "0x000000000000000000000000000000000000000000000000000000006786d6500000000000000000000000000000000000000000000000000003c117368237300000000000000000000000000000000000000000000000000de0b6b3a7640000",
          "blockHash": "0x7e43a50cd82faf39940f2509e201e8306330abcec68cb4a978f4340c3882e65a",
          "blockNumber": "0x725306",
          "transactionHash": "0x22988f98df512e8432eb9eeb5fdb50465abedb84f0d3947eab69ae25ea9bc7e1",
          "transactionIndex": "0x8a",
          "logIndex": "0x11e",
          "removed": false
        }
      ],
      "logsBloom": "0x00000000000000000000000000000000000000000000000000000000000000000000000000000000000000000000000020000000000000004000000000000000000000000000000000000008000000000000000000000000000000000000000000000000020000000000000000000800020000000000000000000010000000000000000000010000000000000000000000000000000000000000010000000000000000000000000000000000000000004000000000000000000000000000000000000002000000800000000000000000000000000000080000008000000020000000000000000000000000000000000000000000000000000000000000000000",
      "type": "0x2",
      "transactionHash": "0x22988f98df512e8432eb9eeb5fdb50465abedb84f0d3947eab69ae25ea9bc7e1",
      "transactionIndex": "0x8a",
      "blockHash": "0x7e43a50cd82faf39940f2509e201e8306330abcec68cb4a978f4340c3882e65a",
      "blockNumber": "0x725306",
      "gasUsed": "0x13af8",
      "effectiveGasPrice": "0x25a95947a",
      "from": "0xc77f7fed3b5cc8249adc428c5f44c9063b9734b4",
      "to": "0x270e88f8683660553e8ba4eb2ad7c91a1710d769",
      "contractAddress": null
    }
  ],
  "libraries": [],
  "pending": [],
  "returns": {},
  "timestamp": 1736889936,
  "chain": 11155111,
  "commit": "51a374b"
}