{
  "transactions": [
    {
      "hash": "0x1170b6e1609a057192ecbb9c9b807c6ff7d22c52293389bb99e82218dd843c56",
      "transactionType": "CALL",
      "contractName": null,
      "contractAddress": "0x270e88f8683660553e8ba4eb2ad7c91a1710d769",
      "function": "sell(uint256)",
      "arguments": [
        "719551659554140500902"
      ],
      "transaction": {
        "from": "0xc77f7fed3b5cc8249adc428c5f44c9063b9734b4",
        "to": "0x270e88f8683660553e8ba4eb2ad7c91a1710d769",
        "gas": "0x16fec",
        "value": "0x0",
        "input": "0xe4849b3200000000000000000000000000000000000000000000002701c90604335ab3a6",
        "nonce": "0x828",
        "chainId": "0xaa36a7"
      },
      "additionalContracts": [],
      "isFixedGasLimit": false
    }
  ],
  "receipts": [
    {
      "status": "0x1",
      "cumulativeGasUsed": "0x4e3b2b",
      "logs": [
        {
          "address": "0x270e88f8683660553e8ba4eb2ad7c91a1710d769",
          "topics": [
            "0xddf252ad1be2c89b69c2b068fc378daa952ba7f163c4a11628f55a4df523b3ef",
            "0x000000000000000000000000c77f7fed3b5cc8249adc428c5f44c9063b9734b4",
            "0x0000000000000000000000000000000000000000000000000000000000000000"
          ],
          "data": "0x00000000000000000000000000000000000000000000002701c90604335ab3a6",
          "blockHash": "0x7aad343c6ac3efa746167116db0cbc1ef5918e5535e977b0e7210ef431398441",
          "blockNumber": "0x725570",
          "transactionHash": "0x1170b6e1609a057192ecbb9c9b807c6ff7d22c52293389bb99e82218dd843c56",
          "transactionIndex": "0x3c",
          "logIndex": "0x51",
          "removed": false
        },
        {
          "address": "0x270e88f8683660553e8ba4eb2ad7c91a1710d769",
          "topics": [
            "0x4afcb4a87cdbd9974efdb92ee48bc8d7cd0ae4bf217004db3d080cbaee652ca7"
          ],
          "data": "0x000000000000000000000000000000000000000000000000000000006786f3480000000000000000000000000000000000000000000000000004e76c50b015a10000000000000000000000000000000000000000000000000dc8266206a1a6c6",
          "blockHash": "0x7aad343c6ac3efa746167116db0cbc1ef5918e5535e977b0e7210ef431398441",
          "blockNumber": "0x725570",
          "transactionHash": "0x1170b6e1609a057192ecbb9c9b807c6ff7d22c52293389bb99e82218dd843c56",
          "transactionIndex": "0x3c",
          "logIndex": "0x52",
          "removed": false
        }
      ],
      "logsBloom": "0x00000000000000000000000000000000000000000000000000000000000000000000000000000000000000000000000020000000000000004000000000000000000000000000000000000008000000000000000000000000000000000000000000000000020000000000000000000800020000000000000000000010000000000000000000010000000000000000000000000000000000000000010000000000000000000000000000000000000000004000000000000000000000000000000000000002000000800000000000000000000000000000080000008000000020000000000000000000000000000000000000000000000000000000000000000000",
      "type": "0x2",
      "transactionHash": "0x1170b6e1609a057192ecbb9c9b807c6ff7d22c52293389bb99e82218dd843c56",
      "transactionIndex": "0x3c",
      "blockHash": "0x7aad343c6ac3efa746167116db0cbc1ef5918e5535e977b0e7210ef431398441",
      "blockNumber": "0x725570",
      "gasUsed": "0xfb93",
      "effectiveGasPrice": "0x873290eb",
      "from": "0xc77f7fed3b5cc8249adc428c5f44c9063b9734b4",
      "to": "0x270e88f8683660553e8ba4eb2ad7c91a1710d769",
      "contractAddress": null
    }
  ],
  "libraries": [],
  "pending": [],
  "returns": {},
  "timestamp": 1736897353,
  "chain": 11155111,
  "commit": "51a374b"
}