{
  "transactions": [
    {
      "hash": "0x4bf655316457ba7e3ee74f86d8eb7c5bfd5dd0380b3a5a9b5ef6951992790e96",
      "transactionType": "CALL",
      "contractName": null,
      "contractAddress": "0x8aafd3ede9adb0ff97c7aebce82a919afb1c8764",
      "function": "sell(uint256)",
      "arguments": [
        "5998589659867035833"
      ],
      "transaction": {
        "from": "0xc77f7fed3b5cc8249adc428c5f44c9063b9734b4",
        "to": "0x8aafd3ede9adb0ff97c7aebce82a919afb1c8764",
        "gas": "0x15dca",
        "value": "0x0",
        "input": "0xe4849b32000000000000000000000000000000000000000000000000533f458385b4b8b9",
        "nonce": "0xe61",
        "chainId": "0xaa36a7"
      },
      "additionalContracts": [],
      "isFixedGasLimit": false
    }
  ],
  "receipts": [
    {
      "status": "0x1",
      "cumulativeGasUsed": "0x11c04fe",
      "logs": [
        {
          "address": "0x8aafd3ede9adb0ff97c7aebce82a919afb1c8764",
          "topics": [
            "0xddf252ad1be2c89b69c2b068fc378daa952ba7f163c4a11628f55a4df523b3ef",
            "0x000000000000000000000000c77f7fed3b5cc8249adc428c5f44c9063b9734b4",
            "0x0000000000000000000000000000000000000000000000000000000000000000"
          ],
          "data": "0x0000000000000000000000000000000000000000000000005294c80797117bdb",
          "blockHash": "0xc80cecd8f6881d98d24b9c9fce8cbad712d9e9c8a12b014d4c2350b95b9f350f",
          "blockNumber": "0x7313b4",
          "transactionHash": "0x4bf655316457ba7e3ee74f86d8eb7c5bfd5dd0380b3a5a9b5ef6951992790e96",
          "transactionIndex": "0x8f",
          "logIndex": "0x111",
          "removed": false
        },
        {
          "address": "0x8aafd3ede9adb0ff97c7aebce82a919afb1c8764",
          "topics": [
            "0xddf252ad1be2c89b69c2b068fc378daa952ba7f163c4a11628f55a4df523b3ef",
            "0x000000000000000000000000c77f7fed3b5cc8249adc428c5f44c9063b9734b4",
            "0x000000000000000000000000c77f7fed3b5cc8249adc428c5f44c9063b9734b4"
          ],
          "data": "0x00000000000000000000000000000000000000000000000000aa7d7beea33cde",
          "blockHash": "0xc80cecd8f6881d98d24b9c9fce8cbad712d9e9c8a12b014d4c2350b95b9f350f",
          "blockNumber": "0x7313b4",
          "transactionHash": "0x4bf655316457ba7e3ee74f86d8eb7c5bfd5dd0380b3a5a9b5ef6951992790e96",
          "transactionIndex": "0x8f",
          "logIndex": "0x112",
          "removed": false
        },
        {
          "address": "0x8aafd3ede9adb0ff97c7aebce82a919afb1c8764",
          "topics": [
            "0x4afcb4a87cdbd9974efdb92ee48bc8d7cd0ae4bf217004db3d080cbaee652ca7"
          ],
          "data": "0x00000000000000000000000000000000000000000000000000000000678fe9040000000000000000000000000000000000000000000000000004b4df98add99e000000000000000000000000000000000000000000000000001c3b86f4d16b07",
          "blockHash": "0xc80cecd8f6881d98d24b9c9fce8cbad712d9e9c8a12b014d4c2350b95b9f350f",
          "blockNumber": "0x7313b4",
          "transactionHash": "0x4bf655316457ba7e3ee74f86d8eb7c5bfd5dd0380b3a5a9b5ef6951992790e96",
          "transactionIndex": "0x8f",
          "logIndex": "0x113",
          "removed": false
        }
      ],
      "logsBloom": "0x00000000000000000000000000000000000000000600000000000000000000000000000000000000000000000000000000000000000000004000000000000000000000000000004000000008000000000000000000000000000000000000000000000000020000000000000000000800020000000000000000000010000000000000000000000000000000000000000000000000000000000000010000000000000000000000000000000000000000004000000000000000000000000000000000000002000000800000000000000000000000000000080000000000000020000000000000000000000000000000000000000000000000000000000000000000",
      "type": "0x2",
      "transactionHash": "0x4bf655316457ba7e3ee74f86d8eb7c5bfd5dd0380b3a5a9b5ef6951992790e96",
      "transactionIndex": "0x8f",
      "blockHash": "0xc80cecd8f6881d98d24b9c9fce8cbad712d9e9c8a12b014d4c2350b95b9f350f",
      "blockNumber": "0x7313b4",
      "gasUsed": "0xfd3f",
      "effectiveGasPrice": "0x788dee78",
      "from": "0xc77f7fed3b5cc8249adc428c5f44c9063b9734b4",
      "to": "0x8aafd3ede9adb0ff97c7aebce82a919afb1c8764",
      "contractAddress": null
    }
  ],
  "libraries": [],
  "pending": [],
  "returns": {},
  "timestamp": 1737484549,
  "chain": 11155111,
  "commit": "51a374b"
}