{
  "transactions": [
    {
      "hash": "0xad93798aaf53169e650b454c15bb8c5667586251f7eae9e22a0e5b1b93cec382",
      "transactionType": "CALL",
      "contractName": null,
      "contractAddress": "0x8aafd3ede9adb0ff97c7aebce82a919afb1c8764",
      "function": "sell(uint256)",
      "arguments": [
        "586437372919"
      ],
      "transaction": {
        "from": "0xc77f7fed3b5cc8249adc428c5f44c9063b9734b4",
        "to": "0x8aafd3ede9adb0ff97c7aebce82a919afb1c8764",
        "gas": "0x1722a",
        "value": "0x0",
        "input": "0xe4849b32000000000000000000000000000000000000000000000000000000888a642bf7",
        "nonce": "0x1794",
        "chainId": "0xaa36a7"
      },
      "additionalContracts": [],
      "isFixedGasLimit": false
    }
  ],
  "receipts": [
    {
      "status": "0x1",
      "cumulativeGasUsed": "0xac2531",
      "logs": [
        {
          "address": "0x8aafd3ede9adb0ff97c7aebce82a919afb1c8764",
          "topics": [
            "0xddf252ad1be2c89b69c2b068fc378daa952ba7f163c4a11628f55a4df523b3ef",
            "0x000000000000000000000000c77f7fed3b5cc8249adc428c5f44c9063b9734b4",
            "0x0000000000000000000000000000000000000000000000000000000000000000"
          ],
          "data": "0x0000000000000000000000000000000000000000000000000000008772c19410",
          "blockHash": "0xd74c74caa781e92951a6010a2f1becc7e6ac3a8e2ef8aa6125c53ba27151e63a",
          "blockNumber": "0x731f72",
          "transactionHash": "0xad93798aaf53169e650b454c15bb8c5667586251f7eae9e22a0e5b1b93cec382",
          "transactionIndex": "0x75",
          "logIndex": "0xb6",
          "removed": false
        },
        {
          "address": "0x8aafd3ede9adb0ff97c7aebce82a919afb1c8764",
          "topics": [
            "0xddf252ad1be2c89b69c2b068fc378daa952ba7f163c4a11628f55a4df523b3ef",
            "0x000000000000000000000000c77f7fed3b5cc8249adc428c5f44c9063b9734b4",
            "0x000000000000000000000000c77f7fed3b5cc8249adc428c5f44c9063b9734b4"
          ],
          "data": "0x0000000000000000000000000000000000000000000000000000000117a297e7",
          "blockHash": "0xd74c74caa781e92951a6010a2f1becc7e6ac3a8e2ef8aa6125c53ba27151e63a",
          "blockNumber": "0x731f72",
          "transactionHash": "0xad93798aaf53169e650b454c15bb8c5667586251f7eae9e22a0e5b1b93cec382",
          "transactionIndex": "0x75",
          "logIndex": "0xb7",
          "removed": false
        },
        {
          "address": "0x8aafd3ede9adb0ff97c7aebce82a919afb1c8764",
          "topics": [
            "0x4afcb4a87cdbd9974efdb92ee48bc8d7cd0ae4bf217004db3d080cbaee652ca7"
          ],
          "data": "0x00000000000000000000000000000000000000000000000000000000679076400000000000000000000000000000000000000000000000000018bef86f46195a00000000000000000000000000000000000000000000000000000000f3786beb",
          "blockHash": "0xd74c74caa781e92951a6010a2f1becc7e6ac3a8e2ef8aa6125c53ba27151e63a",
          "blockNumber": "0x731f72",
          "transactionHash": "0xad93798aaf53169e650b454c15bb8c5667586251f7eae9e22a0e5b1b93cec382",
          "transactionIndex": "0x75",
          "logIndex": "0xb8",
          "removed": false
        }
      ],
      "logsBloom": "0x00000000000000000000000000000000000000000600000000000000000000000000000000000000000000000000000000000000000000004000000000000000000000000000004000000008000000000000000000000000000000000000000000000000020000000000000000000800020000000000000000000010000000000000000000000000000000000000000000000000000000000000010000000000000000000000000000000000000000004000000000000000000000000000000000000002000000800000000000000000000000000000080000000000000020000000000000000000000000000000000000000000000000000000000000000000",
      "type": "0x2",
      "transactionHash": "0xad93798aaf53169e650b454c15bb8c5667586251f7eae9e22a0e5b1b93cec382",
      "transactionIndex": "0x75",
      "blockHash": "0xd74c74caa781e92951a6010a2f1becc7e6ac3a8e2ef8aa6125c53ba27151e63a",
      "blockNumber": "0x731f72",
      "gasUsed": "0xfd1b",
      "effectiveGasPrice": "0x48e41282",
      "from": "0xc77f7fed3b5cc8249adc428c5f44c9063b9734b4",
      "to": "0x8aafd3ede9adb0ff97c7aebce82a919afb1c8764",
      "contractAddress": null
    }
  ],
  "libraries": [],
  "pending": [],
  "returns": {},
  "timestamp": 1737520705,
  "chain": 11155111,
  "commit": "1d2fb70"
}