{
  "transactions": [
    {
      "hash": "0xe60ca5648371afacd1a831b5ef136f8148709c0421c5921adf3b23a690f801e9",
      "transactionType": "CALL",
      "contractName": null,
      "contractAddress": "0x8aafd3ede9adb0ff97c7aebce82a919afb1c8764",
      "function": "buy(address)",
      "arguments": [
        "0xC77f7fed3b5Cc8249aDc428c5F44C9063B9734b4"
      ],
      "transaction": {
        "from": "0xc77f7fed3b5cc8249adc428c5f44c9063b9734b4",
        "to": "0x8aafd3ede9adb0ff97c7aebce82a919afb1c8764",
        "gas": "0x156ea",
        "value": "0xde0b6b3a7640000",
        "input": "0xf088d547000000000000000000000000c77f7fed3b5cc8249adc428c5f44c9063b9734b4",
        "nonce": "0xe91",
        "chainId": "0xaa36a7"
      },
      "additionalContracts": [],
      "isFixedGasLimit": false
    }
  ],
  "receipts": [
    {
      "status": "0x1",
      "cumulativeGasUsed": "0xed9fbc",
      "logs": [
        {
          "address": "0x8aafd3ede9adb0ff97c7aebce82a919afb1c8764",
          "topics": [
            "0xddf252ad1be2c89b69c2b068fc378daa952ba7f163c4a11628f55a4df523b3ef",
            "0x0000000000000000000000000000000000000000000000000000000000000000",
            "0x000000000000000000000000c77f7fed3b5cc8249adc428c5f44c9063b9734b4"
          ],
          "data": "0x000000000000000000000000000000000000000000000028748d9963a851f735",
          "blockHash": "0xce3ff41df654898153e3163ea7998b0b5d3db055237ea1894ebfcf1f30d13713",
          "blockNumber": "0x7313ee",
          "transactionHash": "0xe60ca5648371afacd1a831b5ef136f8148709c0421c5921adf3b23a690f801e9",
          "transactionIndex": "0x97",
          "logIndex": "0x116",
          "removed": false
        },
        {
          "address": "0x8aafd3ede9adb0ff97c7aebce82a919afb1c8764",
          "topics": [
            "0xddf252ad1be2c89b69c2b068fc378daa952ba7f163c4a11628f55a4df523b3ef",
            "0x0000000000000000000000000000000000000000000000000000000000000000",
            "0x000000000000000000000000c77f7fed3b5cc8249adc428c5f44c9063b9734b4"
          ],
          "data": "0x0000000000000000000000000000000000000000000000001f6a377d90a4a018",
          "blockHash": "0xce3ff41df654898153e3163ea7998b0b5d3db055237ea1894ebfcf1f30d13713",
          "blockNumber": "0x7313ee",
          "transactionHash": "0xe60ca5648371afacd1a831b5ef136f8148709c0421c5921adf3b23a690f801e9",
          "transactionIndex": "0x97",
          "logIndex": "0x117",
          "removed": false
        },
        {
          "address": "0x8aafd3ede9adb0ff97c7aebce82a919afb1c8764",
          "topics": [
            "0x4afcb4a87cdbd9974efdb92ee48bc8d7cd0ae4bf217004db3d080cbaee652ca7"
          ],
          "data": "0x00000000000000000000000000000000000000000000000000000000678febbc0000000000000000000000000000000000000000000000000004b6a7f9d374eb0000000000000000000000000000000000000000000000000de0b6b3a7640000",
          "blockHash": "0xce3ff41df654898153e3163ea7998b0b5d3db055237ea1894ebfcf1f30d13713",
          "blockNumber": "0x7313ee",
          "transactionHash": "0xe60ca5648371afacd1a831b5ef136f8148709c0421c5921adf3b23a690f801e9",
          "transactionIndex": "0x97",
          "logIndex": "0x118",
          "removed": false
        }
      ],
      "logsBloom": "0x00000000000000000000000000000000000000000600000000000000000000000000000000000000000000000000000000000000000000004000000000000000000000000000004000000008000000000000000000000000000000000000000000000000020000000000000000000800020000000000000000000010000000000000000000000000000000000000000000000000000000000000010000000000000000000000000000000000000000004000000000000000000000000000000000000002000000800000000000000000000000000000080000000000000020000000000000000000000000000000000000000000000000000000000000000000",
      "type": "0x2",
      "transactionHash": "0xe60ca5648371afacd1a831b5ef136f8148709c0421c5921adf3b23a690f801e9",
      "transactionIndex": "0x97",
      "blockHash": "0xce3ff41df654898153e3163ea7998b0b5d3db055237ea1894ebfcf1f30d13713",
      "blockNumber": "0x7313ee",
      "gasUsed": "0xf844",
      "effectiveGasPrice": "0x7c0f5f61",
      "from": "0xc77f7fed3b5cc8249adc428c5f44c9063b9734b4",
      "to": "0x8aafd3ede9adb0ff97c7aebce82a919afb1c8764",
      "contractAddress": null
    }
  ],
  "libraries": [],
  "pending": [],
  "returns": {},
  "timestamp": 1737485245,
  "chain": 11155111,
  "commit": "51a374b"
}