{
  "transactions": [
    {
      "hash": "0xf55b9c19b3c48777e6f92f27c606dd62e2a0b0b1e7d8d597f350f3db2c483e90",
      "transactionType": "CALL",
      "contractName": null,
      "contractAddress": "0x8aafd3ede9adb0ff97c7aebce82a919afb1c8764",
      "function": "sell(uint256)",
      "arguments": [
        "5965646120109720360"
      ],
      "transaction": {
        "from": "0xc77f7fed3b5cc8249adc428c5f44c9063b9734b4",
        "to": "0x8aafd3ede9adb0ff97c7aebce82a919afb1c8764",
        "gas": "0x15dca",
        "value": "0x0",
        "input": "0xe4849b3200000000000000000000000000000000000000000000000052ca3b89f4d3c328",
        "nonce": "0xf01",
        "chainId": "0xaa36a7"
      },
      "additionalContracts": [],
      "isFixedGasLimit": false
    }
  ],
  "receipts": [
    {
      "status": "0x1",
      "cumulativeGasUsed": "0xac7800",
      "logs": [
        {
          "address": "0x8aafd3ede9adb0ff97c7aebce82a919afb1c8764",
          "topics": [
            "0xddf252ad1be2c89b69c2b068fc378daa952ba7f163c4a11628f55a4df523b3ef",
            "0x000000000000000000000000c77f7fed3b5cc8249adc428c5f44c9063b9734b4",
            "0x0000000000000000000000000000000000000000000000000000000000000000"
          ],
          "data": "0x0000000000000000000000000000000000000000000000005220adc026118e66",
          "blockHash": "0x4e7dbf87d300d5a5b35c19a5004f34b5b7cec500783bed70dc7d1659a13caad1",
          "blockNumber": "0x731479",
          "transactionHash": "0xf55b9c19b3c48777e6f92f27c606dd62e2a0b0b1e7d8d597f350f3db2c483e90",
          "transactionIndex": "0x6f",
          "logIndex": "0xd8",
          "removed": false
        },
        {
          "address": "0x8aafd3ede9adb0ff97c7aebce82a919afb1c8764",
          "topics": [
            "0xddf252ad1be2c89b69c2b068fc378daa952ba7f163c4a11628f55a4df523b3ef",
            "0x000000000000000000000000c77f7fed3b5cc8249adc428c5f44c9063b9734b4",
            "0x000000000000000000000000c77f7fed3b5cc8249adc428c5f44c9063b9734b4"
          ],
          "data": "0x00000000000000000000000000000000000000000000000000a98dc9cec234c2",
          "blockHash": "0x4e7dbf87d300d5a5b35c19a5004f34b5b7cec500783bed70dc7d1659a13caad1",
          "blockNumber": "0x731479",
          "transactionHash": "0xf55b9c19b3c48777e6f92f27c606dd62e2a0b0b1e7d8d597f350f3db2c483e90",
          "transactionIndex": "0x6f",
          "logIndex": "0xd9",
          "removed": false
        },
        {
          "address": "0x8aafd3ede9adb0ff97c7aebce82a919afb1c8764",
          "topics": [
            "0x4afcb4a87cdbd9974efdb92ee48bc8d7cd0ae4bf217004db3d080cbaee652ca7"
          ],
          "data": "0x00000000000000000000000000000000000000000000000000000000678ff2580000000000000000000000000000000000000000000000000004bb8652af35d5000000000000000000000000000000000000000000000000001c3b837c1607c0",
          "blockHash": "0x4e7dbf87d300d5a5b35c19a5004f34b5b7cec500783bed70dc7d1659a13caad1",
          "blockNumber": "0x731479",
          "transactionHash": "0xf55b9c19b3c48777e6f92f27c606dd62e2a0b0b1e7d8d597f350f3db2c483e90",
          "transactionIndex": "0x6f",
          "logIndex": "0xda",
          "removed": false
        }
      ],
      "logsBloom": "0x00000000000000000000000000000000000000000600000000000000000000000000000000000000000000000000000000000000000000004000000000000000000000000000004000000008000000000000000000000000000000000000000000000000020000000000000000000800020000000000000000000010000000000000000000000000000000000000000000000000000000000000010000000000000000000000000000000000000000004000000000000000000000000000000000000002000000800000000000000000000000000000080000000000000020000000000000000000000000000000000000000000000000000000000000000000",
      "type": "0x2",
      "transactionHash": "0xf55b9c19b3c48777e6f92f27c606dd62e2a0b0b1e7d8d597f350f3db2c483e90",
      "transactionIndex": "0x6f",
      "blockHash": "0x4e7dbf87d300d5a5b35c19a5004f34b5b7cec500783bed70dc7d1659a13caad1",
      "blockNumber": "0x731479",
      "gasUsed": "0xfd3f",
      "effectiveGasPrice": "0x92b06b6c",
      "from": "0xc77f7fed3b5cc8249adc428c5f44c9063b9734b4",
      "to": "0x8aafd3ede9adb0ff97c7aebce82a919afb1c8764",
      "contractAddress": null
    }
  ],
  "libraries": [],
  "pending": [],
  "returns": {},
  "timestamp": 1737486937,
  "chain": 11155111,
  "commit": "51a374b"
}