{
  "transactions": [
    {
      "hash": "0x17f7e7be7633a41d8183e4f6f91bfacfbd9bf4bb6476eb47292d3c70160fc327",
      "transactionType": "CALL",
      "contractName": null,
      "contractAddress": "0xbf4a322f1496e5c3d34a9bcdb4c60567b38c7de2",
      "function": "sell(uint256)",
      "arguments": [
        "978832562594781216644"
      ],
      "transaction": {
        "from": "0xc77f7fed3b5cc8249adc428c5f44c9063b9734b4",
        "to": "0xbf4a322f1496e5c3d34a9bcdb4c60567b38c7de2",
        "gas": "0x16fea",
        "value": "0x0",
        "input": "0xe4849b320000000000000000000000000000000000000000000000351007d59a4f3e3f84",
        "nonce": "0xc6f",
        "chainId": "0xaa36a7"
      },
      "additionalContracts": [],
      "isFixedGasLimit": false
    }
  ],
  "receipts": [
    {
      "status": "0x1",
      "cumulativeGasUsed": "0x9f2d4c",
      "logs": [
        {
          "address": "0xbf4a322f1496e5c3d34a9bcdb4c60567b38c7de2",
          "topics": [
            "0xddf252ad1be2c89b69c2b068fc378daa952ba7f163c4a11628f55a4df523b3ef",
            "0x000000000000000000000000c77f7fed3b5cc8249adc428c5f44c9063b9734b4",
            "0x0000000000000000000000000000000000000000000000000000000000000000"
          ],
          "data": "0x0000000000000000000000000000000000000000000000351007d59a4f3e3f84",
          "blockHash": "0x738a652546a9d3bc7bba067dddeb709d531fe3bafbfb8e4242bdac28a45bc55a",
          "blockNumber": "0x725cad",
          "transactionHash": "0x17f7e7be7633a41d8183e4f6f91bfacfbd9bf4bb6476eb47292d3c70160fc327",
          "transactionIndex": "0x45",
          "logIndex": "0x66",
          "removed": false
        },
        {
          "address": "0xbf4a322f1496e5c3d34a9bcdb4c60567b38c7de2",
          "topics": [
            "0x4afcb4a87cdbd9974efdb92ee48bc8d7cd0ae4bf217004db3d080cbaee652ca7"
          ],
          "data": "0x0000000000000000000000000000000000000000000000000000000067874a9000000000000000000000000000000000000000000000000000039aafc4e6e0d80000000000000000000000000000000000000000000000000dc7e3df5a1bc741",
          "blockHash": "0x738a652546a9d3bc7bba067dddeb709d531fe3bafbfb8e4242bdac28a45bc55a",
          "blockNumber": "0x725cad",
          "transactionHash": "0x17f7e7be7633a41d8183e4f6f91bfacfbd9bf4bb6476eb47292d3c70160fc327",
          "transactionIndex": "0x45",
          "logIndex": "0x67",
          "removed": false
        }
      ],
      "logsBloom": "0x00000000000000000000000000000000000000000000000000000000000000000000000000000000000000000000000000000000000000004000000000000000000000000000000000000008000000000000001000000000000000000000000000000000020000000000000000000800020000000000000000000010000000000000000000000000000000000000000000000000000008000000010000000000000000000000000000000000000000004000000000000000000000000000000000000002000000800000000000001000000000000000080000000000000020000000000000000000000000000000000000000000000000000000000000000000",
      "type": "0x2",
      "transactionHash": "0x17f7e7be7633a41d8183e4f6f91bfacfbd9bf4bb6476eb47292d3c70160fc327",
      "transactionIndex": "0x45",
      "blockHash": "0x738a652546a9d3bc7bba067dddeb709d531fe3bafbfb8e4242bdac28a45bc55a",
      "blockNumber": "0x725cad",
      "gasUsed": "0xfb91",
      "effectiveGasPrice": "0x24ed99e5d",
      "from": "0xc77f7fed3b5cc8249adc428c5f44c9063b9734b4",
      "to": "0xbf4a322f1496e5c3d34a9bcdb4c60567b38c7de2",
      "contractAddress": null
    }
  ],
  "libraries": [],
  "pending": [],
  "returns": {},
  "timestamp": 1736919696,
  "chain": 11155111,
  "commit": "51a374b"
}