{
  "transactions": [
    {
      "hash": "0x03f94a0fa404b93dd016c85a655d47833554e5857c2cb018eb1841f22c256766",
      "transactionType": "CALL",
      "contractName": null,
      "contractAddress": "0x270e88f8683660553e8ba4eb2ad7c91a1710d769",
      "function": "buy(address)",
      "arguments": [
        "0xC77f7fed3b5Cc8249aDc428c5F44C9063B9734b4"
      ],
      "transaction": {
        "from": "0xc77f7fed3b5cc8249adc428c5f44c9063b9734b4",
        "to": "0x270e88f8683660553e8ba4eb2ad7c91a1710d769",
        "gas": "0x1b30c",
        "value": "0xde0b6b3a7640000",
        "input": "0xf088d547000000000000000000000000c77f7fed3b5cc8249adc428c5f44c9063b9734b4",
        "nonce": "0x7c5",
        "chainId": "0xaa36a7"
      },
      "additionalContracts": [],
      "isFixedGasLimit": false
    }
  ],
  "receipts": [
    {
      "status": "0x1",
      "cumulativeGasUsed": "0x5973a4",
      "logs": [
        {
          "address": "0x270e88f8683660553e8ba4eb2ad7c91a1710d769",
          "topics": [
            "0xddf252ad1be2c89b69c2b068fc378daa952ba7f163c4a11628f55a4df523b3ef",
            "0x0000000000000000000000000000000000000000000000000000000000000000",
            "0x000000000000000000000000c77f7fed3b5cc8249adc428c5f44c9063b9734b4"
          ],
          "data": "0x00000000000000000000000000000000000000000000002756c4f2acd0f9c53c",
          "blockHash": "0x5d61c0cedf23e15fa2112553a9a7699493d94838e1f839137c693807ba9abe99",
          "blockNumber": "0x7254fd",
          "transactionHash": "0x03f94a0fa404b93dd016c85a655d47833554e5857c2cb018eb1841f22c256766",
          "transactionIndex": "0x35",
          "logIndex": "0x3f",
          "removed": false
        },
        {
          "address": "0x270e88f8683660553e8ba4eb2ad7c91a1710d769",
          "topics": [
            "0xddf252ad1be2c89b69c2b068fc378daa952ba7f163c4a11628f55a4df523b3ef",
            "0x0000000000000000000000000000000000000000000000000000000000000000",
            "0x000000000000000000000000c77f7fed3b5cc8249adc428c5f44c9063b9734b4"
          ],
          "data": "0x0000000000000000000000000000000000000000000000001e8c4bbfd2c98dc7",
          "blockHash": "0x5d61c0cedf23e15fa2112553a9a7699493d94838e1f839137c693807ba9abe99",
          "blockNumber": "0x7254fd",
          "transactionHash": "0x03f94a0fa404b93dd016c85a655d47833554e5857c2cb018eb1841f22c256766",
          "transactionIndex": "0x35",
          "logIndex": "0x40",
          "removed": false
        },
        {
          "address": "0x270e88f8683660553e8ba4eb2ad7c91a1710d769",
          "topics": [
            "0x4afcb4a87cdbd9974efdb92ee48bc8d7cd0ae4bf217004db3d080cbaee652ca7"
          ],
          "data": "0x000000000000000000000000000000000000000000000000000000006786ede40000000000000000000000000000000000000000000000000004d8e12c7b583d0000000000000000000000000000000000000000000000000de0b6b3a7640000",
          "blockHash": "0x5d61c0cedf23e15fa2112553a9a7699493d94838e1f839137c693807ba9abe99",
          "blockNumber": "0x7254fd",
          "transactionHash": "0x03f94a0fa404b93dd016c85a655d47833554e5857c2cb018eb1841f22c256766",
          "transactionIndex": "0x35",
          "logIndex": "0x41",
          "removed": false
        }
      ],
      "logsBloom": "0x00000000000000000000000000000000000000000000000000000000000000000000000000000000000000000000000020000000000000004000000000000000000000000000000000000008000000000000000000000000000000000000000000000000020000000000000000000800020000000000000000000010000000000000000000010000000000000000000000000000000000000000010000000000000000000000000000000000000000004000000000000000000000000000000000000002000000800000000000000000000000000000080000008000000020000000000000000000000000000000000000000000000000000000000000000000",
      "type": "0x2",
      "transactionHash": "0x03f94a0fa404b93dd016c85a655d47833554e5857c2cb018eb1841f22c256766",
      "transactionIndex": "0x35",
      "blockHash": "0x5d61c0cedf23e15fa2112553a9a7699493d94838e1f839137c693807ba9abe99",
      "blockNumber": "0x7254fd",
      "gasUsed": "0x13af8",
      "effectiveGasPrice": "0xc9864945",
      "from": "0xc77f7fed3b5cc8249adc428c5f44c9063b9734b4",
      "to": "0x270e88f8683660553e8ba4eb2ad7c91a1710d769",
      "contractAddress": null
    }
  ],
  "libraries": [],
  "pending": [],
  "returns": {},
  "timestamp": 1736895973,
  "chain": 11155111,
  "commit": "51a374b"
}