{
  "transactions": [
    {
      "hash": "0x5f66a7f599f4726a6aa0ec6cef81023188a2bda6db9dae0298a75415edfc71d5",
      "transactionType": "CALL",
      "contractName": null,
      "contractAddress": "0xbf4a322f1496e5c3d34a9bcdb4c60567b38c7de2",
      "function": "sell(uint256)",
      "arguments": [
        "987508088859827642260"
      ],
      "transaction": {
        "from": "0xc77f7fed3b5cc8249adc428c5f44c9063b9734b4",
        "to": "0xbf4a322f1496e5c3d34a9bcdb4c60567b38c7de2",
        "gas": "0x16fea",
        "value": "0x0",
        "input": "0xe4849b32000000000000000000000000000000000000000000000035886d7ec6a2e81f94",
        "nonce": "0x9ed",
        "chainId": "0xaa36a7"
      },
      "additionalContracts": [],
      "isFixedGasLimit": false
    }
  ],
  "receipts": [
    {
      "status": "0x1",
      "cumulativeGasUsed": "0x8f0de8",
      "logs": [
        {
          "address": "0xbf4a322f1496e5c3d34a9bcdb4c60567b38c7de2",
          "topics": [
            "0xddf252ad1be2c89b69c2b068fc378daa952ba7f163c4a11628f55a4df523b3ef",
            "0x000000000000000000000000c77f7fed3b5cc8249adc428c5f44c9063b9734b4",
            "0x0000000000000000000000000000000000000000000000000000000000000000"
          ],
          "data": "0x000000000000000000000000000000000000000000000035886d7ec6a2e81f94",
          "blockHash": "0xbc8b1043e16cbf159e2a7330ecf12ab0d75b964cffef9e48988a2c56ca3fd016",
          "blockNumber": "0x7259a2",
          "transactionHash": "0x5f66a7f599f4726a6aa0ec6cef81023188a2bda6db9dae0298a75415edfc71d5",
          "transactionIndex": "0x5a",
          "logIndex": "0x78",
          "removed": false
        },
        {
          "address": "0xbf4a322f1496e5c3d34a9bcdb4c60567b38c7de2",
          "topics": [
            "0x4afcb4a87cdbd9974efdb92ee48bc8d7cd0ae4bf217004db3d080cbaee652ca7"
          ],
          "data": "0x00000000000000000000000000000000000000000000000000000000678725d000000000000000000000000000000000000000000000000000039294ad375a520000000000000000000000000000000000000000000000000dc7e3f385ce35eb",
          "blockHash": "0xbc8b1043e16cbf159e2a7330ecf12ab0d75b964cffef9e48988a2c56ca3fd016",
          "blockNumber": "0x7259a2",
          "transactionHash": "0x5f66a7f599f4726a6aa0ec6cef81023188a2bda6db9dae0298a75415edfc71d5",
          "transactionIndex": "0x5a",
          "logIndex": "0x79",
          "removed": false
        }
      ],
      "logsBloom": "0x00000000000000000000000000000000000000000000000000000000000000000000000000000000000000000000000000000000000000004000000000000000000000000000000000000008000000000000001000000000000000000000000000000000020000000000000000000800020000000000000000000010000000000000000000000000000000000000000000000000000008000000010000000000000000000000000000000000000000004000000000000000000000000000000000000002000000800000000000001000000000000000080000000000000020000000000000000000000000000000000000000000000000000000000000000000",
      "type": "0x2",
      "transactionHash": "0x5f66a7f599f4726a6aa0ec6cef81023188a2bda6db9dae0298a75415edfc71d5",
      "transactionIndex": "0x5a",
      "blockHash": "0xbc8b1043e16cbf159e2a7330ecf12ab0d75b964cffef9e48988a2c56ca3fd016",
      "blockNumber": "0x7259a2",
      "gasUsed": "0xfb91",
      "effectiveGasPrice": "0x273d3c379",
      "from": "0xc77f7fed3b5cc8249adc428c5f44c9063b9734b4",
      "to": "0xbf4a322f1496e5c3d34a9bcdb4c60567b38c7de2",
      "contractAddress": null
    }
  ],
  "libraries": [],
  "pending": [],
  "returns": {},
  "timestamp": 1736910289,
  "chain": 11155111,
  "commit": "51a374b"
}