{
  "transactions": [
    {
      "hash": "0x3920c09a06f024ae3afec0719727855acec808fe63a2b746077a4e1f01aebe12",
      "transactionType": "CALL",
      "contractName": null,
      "contractAddress": "0x5eb9cc76c3506942c1c0ead70e877dd5e4f00cb0",
      "function": "buy(address)",
      "arguments": [
        "0xC77f7fed3b5Cc8249aDc428c5F44C9063B9734b4"
      ],
      "transaction": {
        "from": "0xc77f7fed3b5cc8249adc428c5f44c9063b9734b4",
        "to": "0x5eb9cc76c3506942c1c0ead70e877dd5e4f00cb0",
        "gas": "0x1b30c",
        "value": "0xde0b6b3a7640000",
        "input": "0xf088d547000000000000000000000000c77f7fed3b5cc8249adc428c5f44c9063b9734b4",
        "nonce": "0x26a",
        "chainId": "0xaa36a7"
      },
      "additionalContracts": [],
      "isFixedGasLimit": false
    }
  ],
  "receipts": [
    {
      "status": "0x1",
      "cumulativeGasUsed": "0x1394b12",
      "logs": [
        {
          "address": "0x5eb9cc76c3506942c1c0ead70e877dd5e4f00cb0",
          "topics": [
            "0xddf252ad1be2c89b69c2b068fc378daa952ba7f163c4a11628f55a4df523b3ef",
            "0x0000000000000000000000000000000000000000000000000000000000000000",
            "0x000000000000000000000000c77f7fed3b5cc8249adc428c5f44c9063b9734b4"
          ],
          "data": "0x0000000000000000000000000000000000000000000000357c144b9a832ed78e",
          "blockHash": "0xb9f992c91003a2ef8d213ab6bb6b8059535842f0f804e0a8d1eea6ae99fb1cde",
          "blockNumber": "0x724e2e",
          "transactionHash": "0x3920c09a06f024ae3afec0719727855acec808fe63a2b746077a4e1f01aebe12",
          "transactionIndex": "0xbd",
          "logIndex": "0x146",
          "removed": false
        },
        {
          "address": "0x5eb9cc76c3506942c1c0ead70e877dd5e4f00cb0",
          "topics": [
            "0xddf252ad1be2c89b69c2b068fc378daa952ba7f163c4a11628f55a4df523b3ef",
            "0x0000000000000000000000000000000000000000000000000000000000000000",
            "0x000000000000000000000000c77f7fed3b5cc8249adc428c5f44c9063b9734b4"
          ],
          "data": "0x00000000000000000000000000000000000000000000000029885dd92918985b",
          "blockHash": "0xb9f992c91003a2ef8d213ab6bb6b8059535842f0f804e0a8d1eea6ae99fb1cde",
          "blockNumber": "0x724e2e",
          "transactionHash": "0x3920c09a06f024ae3afec0719727855acec808fe63a2b746077a4e1f01aebe12",
          "transactionIndex": "0xbd",
          "logIndex": "0x147",
          "removed": false
        },
        {
          "address": "0x5eb9cc76c3506942c1c0ead70e877dd5e4f00cb0",
          "topics": [
            "0x4afcb4a87cdbd9974efdb92ee48bc8d7cd0ae4bf217004db3d080cbaee652ca7"
          ],
          "data": "0x0000000000000000000000000000000000000000000000000000000067869bdc0000000000000000000000000000000000000000000000000003909cb6c69b110000000000000000000000000000000000000000000000000de0b6b3a7640000",
          "blockHash": "0xb9f992c91003a2ef8d213ab6bb6b8059535842f0f804e0a8d1eea6ae99fb1cde",
          "blockNumber": "0x724e2e",
          "transactionHash": "0x3920c09a06f024ae3afec0719727855acec808fe63a2b746077a4e1f01aebe12",
          "transactionIndex": "0xbd",
          "logIndex": "0x148",
          "removed": false
        }
      ],
      "logsBloom": "0x00000000000000000000000000000000000000000000000000000000000000000000000000000000000000000000000000000000000000004000000000000000000000000000000000000008000000000000000000000000000000000000000000000000020000000000000004000800020000000000000000000010000000000000000000000000000000000000000000000000000000000000010000000000000000000000000000000000000000004000000000000000000000000000020000000002000000800000008000000000000000000000080000000000000020000000000000000000000000000000000000000000000000000000000000000000",
      "type": "0x2",
      "transactionHash": "0x3920c09a06f024ae3afec0719727855acec808fe63a2b746077a4e1f01aebe12",
      "transactionIndex": "0xbd",
      "blockHash": "0xb9f992c91003a2ef8d213ab6bb6b8059535842f0f804e0a8d1eea6ae99fb1cde",
      "blockNumber": "0x724e2e",
      "gasUsed": "0x13af8",
      "effectiveGasPrice": "0x357d0b626",
      "from": "0xc77f7fed3b5cc8249adc428c5f44c9063b9734b4",
      "to": "0x5eb9cc76c3506942c1c0ead70e877dd5e4f00cb0",
      "contractAddress": null
    }
  ],
  "libraries": [],
  "pending": [],
  "returns": {},
  "timestamp": 1736874973,
  "chain": 11155111,
  "commit": "51a374b"
}