{
  "transactions": [
    {
      "hash": "0x0e28c785fe6a2c35e258387b3d03e44ed15421de0ce8e3acd49343b23e8099ab",
      "transactionType": "CALL",
      "contractName": null,
      "contractAddress": "0x270e88f8683660553e8ba4eb2ad7c91a1710d769",
      "function": "sell(uint256)",
      "arguments": [
        "712071946017357341189"
      ],
      "transaction": {
        "from": "0xc77f7fed3b5cc8249adc428c5f44c9063b9734b4",
        "to": "0x270e88f8683660553e8ba4eb2ad7c91a1710d769",
        "gas": "0x16fec",
        "value": "0x0",
        "input": "0xe4849b3200000000000000000000000000000000000000000000002699fbbe2f15b6a205",
        "nonce": "0x882",
        "chainId": "0xaa36a7"
      },
      "additionalContracts": [],
      "isFixedGasLimit": false
    }
  ],
  "receipts": [
    {
      "status": "0x1",
      "cumulativeGasUsed": "0x18180cb",
      "logs": [
        {
          "address": "0x270e88f8683660553e8ba4eb2ad7c91a1710d769",
          "topics": [
            "0xddf252ad1be2c89b69c2b068fc378daa952ba7f163c4a11628f55a4df523b3ef",
            "0x000000000000000000000000c77f7fed3b5cc8249adc428c5f44c9063b9734b4",
            "0x0000000000000000000000000000000000000000000000000000000000000000"
          ],
          "data": "0x00000000000000000000000000000000000000000000002699fbbe2f15b6a205",
          "blockHash": "0xa7268dd1f716f3585a655e358239084db6c1dbf3866a40c57dca3fdb8c564942",
          "blockNumber": "0x7255de",
          "transactionHash": "0x0e28c785fe6a2c35e258387b3d03e44ed15421de0ce8e3acd49343b23e8099ab",
          "transactionIndex": "0x44",
          "logIndex": "0x18a",
          "removed": false
        },
        {
          "address": "0x270e88f8683660553e8ba4eb2ad7c91a1710d769",
          "topics": [
            "0x4afcb4a87cdbd9974efdb92ee48bc8d7cd0ae4bf217004db3d080cbaee652ca7"
          ],
          "data": "0x000000000000000000000000000000000000000000000000000000006786f8700000000000000000000000000000000000000000000000000004f49b716c03bd0000000000000000000000000000000000000000000000000dc8259bb29de750",
          "blockHash": "0xa7268dd1f716f3585a655e358239084db6c1dbf3866a40c57dca3fdb8c564942",
          "blockNumber": "0x7255de",
          "transactionHash": "0x0e28c785fe6a2c35e258387b3d03e44ed15421de0ce8e3acd49343b23e8099ab",
          "transactionIndex": "0x44",
          "logIndex": "0x18b",
          "removed": false
        }
      ],
      "logsBloom": "0x00000000000000000000000000000000000000000000000000000000000000000000000000000000000000000000000020000000000000004000000000000000000000000000000000000008000000000000000000000000000000000000000000000000020000000000000000000800020000000000000000000010000000000000000000010000000000000000000000000000000000000000010000000000000000000000000000000000000000004000000000000000000000000000000000000002000000800000000000000000000000000000080000008000000020000000000000000000000000000000000000000000000000000000000000000000",
      "type": "0x2",
      "transactionHash": "0x0e28c785fe6a2c35e258387b3d03e44ed15421de0ce8e3acd49343b23e8099ab",
      "transactionIndex": "0x44",
      "blockHash": "0xa7268dd1f716f3585a655e358239084db6c1dbf3866a40c57dca3fdb8c564942",
      "blockNumber": "0x7255de",
      "gasUsed": "0xfb93",
      "effectiveGasPrice": "0xb5e63d78",
      "from": "0xc77f7fed3b5cc8249adc428c5f44c9063b9734b4",
      "to": "0x270e88f8683660553e8ba4eb2ad7c91a1710d769",
      "contractAddress": null
    }
  ],
  "libraries": [],
  "pending": [],
  "returns": {},
  "timestamp": 1736898673,
  "chain": 11155111,
  "commit": "51a374b"
}