{
  "transactions": [
    {
      "hash": "0x91bb0b8e4b8b249099de8478b0605c3c9517ebc5ed3ce8891a38dc0293f1d077",
      "transactionType": "CALL",
      "contractName": null,
      "contractAddress": "0x270e88f8683660553e8ba4eb2ad7c91a1710d769",
      "function": "sell(uint256)",
      "arguments": [
        "733069089141668164365"
      ],
      "transaction": {
        "from": "0xc77f7fed3b5cc8249adc428c5f44c9063b9734b4",
        "to": "0x270e88f8683660553e8ba4eb2ad7c91a1710d769",
        "gas": "0x16fec",
        "value": "0x0",
        "input": "0xe4849b32000000000000000000000000000000000000000000000027bd60949b9c4bb30d",
        "nonce": "0x78a",
        "chainId": "0xaa36a7"
      },
      "additionalContracts": [],
      "isFixedGasLimit": false
    }
  ],
  "receipts": [
    {
      "status": "0x1",
      "cumulativeGasUsed": "0x9b68bd",
      "logs": [
        {
          "address": "0x270e88f8683660553e8ba4eb2ad7c91a1710d769",
          "topics": [
            "0xddf252ad1be2c89b69c2b068fc378daa952ba7f163c4a11628f55a4df523b3ef",
            "0x000000000000000000000000c77f7fed3b5cc8249adc428c5f44c9063b9734b4",
            "0x0000000000000000000000000000000000000000000000000000000000000000"
          ],
          "data": "0x000000000000000000000000000000000000000000000027bd60949b9c4bb30d",
          "blockHash": "0x79744e9754bb5e668e3afc88ebe7c7eb29faa07618c66b7f0096233ec21424df",
          "blockNumber": "0x7254bb",
          "transactionHash": "0x91bb0b8e4b8b249099de8478b0605c3c9517ebc5ed3ce8891a38dc0293f1d077",
          "transactionIndex": "0x34",
          "logIndex": "0x52",
          "removed": false
        },
        {
          "address": "0x270e88f8683660553e8ba4eb2ad7c91a1710d769",
          "topics": [
            "0x4afcb4a87cdbd9974efdb92ee48bc8d7cd0ae4bf217004db3d080cbaee652ca7"
          ],
          "data": "0x000000000000000000000000000000000000000000000000000000006786eacc0000000000000000000000000000000000000000000000000004d0477395ff490000000000000000000000000000000000000000000000000dc827c852b69ea5",
          "blockHash": "0x79744e9754bb5e668e3afc88ebe7c7eb29faa07618c66b7f0096233ec21424df",
          "blockNumber": "0x7254bb",
          "transactionHash": "0x91bb0b8e4b8b249099de8478b0605c3c9517ebc5ed3ce8891a38dc0293f1d077",
          "transactionIndex": "0x34",
          "logIndex": "0x53",
          "removed": false
        }
      ],
      "logsBloom": "0x00000000000000000000000000000000000000000000000000000000000000000000000000000000000000000000000020000000000000004000000000000000000000000000000000000008000000000000000000000000000000000000000000000000020000000000000000000800020000000000000000000010000000000000000000010000000000000000000000000000000000000000010000000000000000000000000000000000000000004000000000000000000000000000000000000002000000800000000000000000000000000000080000008000000020000000000000000000000000000000000000000000000000000000000000000000",
      "type": "0x2",
      "transactionHash": "0x91bb0b8e4b8b249099de8478b0605c3c9517ebc5ed3ce8891a38dc0293f1d077",
      "transactionIndex": "0x34",
      "blockHash": "0x79744e9754bb5e668e3afc88ebe7c7eb29faa07618c66b7f0096233ec21424df",
      "blockNumber": "0x7254bb",
      "gasUsed": "0xfb93",
      "effectiveGasPrice": "0x109fbccd4",
      "from": "0xc77f7fed3b5cc8249adc428c5f44c9063b9734b4",
      "to": "0x270e88f8683660553e8ba4eb2ad7c91a1710d769",
      "contractAddress": null
    }
  ],
  "libraries": [],
  "pending": [],
  "returns": {},
  "timestamp": 1736895182,
  "chain": 11155111,
  "commit": "51a374b"
}