{
  "transactions": [
    {
      "hash": "0x4977501819268828ced4ee8f5bc74204fb0ce949eaf10c48b96c47d5012c14e4",
      "transactionType": "CALL",
      "contractName": null,
      "contractAddress": "0x8aafd3ede9adb0ff97c7aebce82a919afb1c8764",
      "function": "sell(uint256)",
      "arguments": [
        "1551036"
      ],
      "transaction": {
        "from": "0xc77f7fed3b5cc8249adc428c5f44c9063b9734b4",
        "to": "0x8aafd3ede9adb0ff97c7aebce82a919afb1c8764",
        "gas": "0x16208",
        "value": "0x0",
        "input": "0xe4849b32000000000000000000000000000000000000000000000000000000000017aabc",
        "nonce": "0xfe6",
        "chainId": "0xaa36a7"
      },
      "additionalContracts": [],
      "isFixedGasLimit": false
    }
  ],
  "receipts": [
    {
      "status": "0x1",
      "cumulativeGasUsed": "0xdc8a53",
      "logs": [
        {
          "address": "0x8aafd3ede9adb0ff97c7aebce82a919afb1c8764",
          "topics": [
            "0xddf252ad1be2c89b69c2b068fc378daa952ba7f163c4a11628f55a4df523b3ef",
            "0x000000000000000000000000c77f7fed3b5cc8249adc428c5f44c9063b9734b4",
            "0x0000000000000000000000000000000000000000000000000000000000000000"
          ],
          "data": "0x0000000000000000000000000000000000000000000000000000000000177a44",
          "blockHash": "0xfcdf60be80a5a89dd4490b0d6e73c357c39bb733c495d758782f0fd747b03584",
          "blockNumber": "0x731658",
          "transactionHash": "0x4977501819268828ced4ee8f5bc74204fb0ce949eaf10c48b96c47d5012c14e4",
          "transactionIndex": "0x9a",
          "logIndex": "0xaa",
          "removed": false
        },
        {
          "address": "0x8aafd3ede9adb0ff97c7aebce82a919afb1c8764",
          "topics": [
            "0xddf252ad1be2c89b69c2b068fc378daa952ba7f163c4a11628f55a4df523b3ef",
            "0x000000000000000000000000c77f7fed3b5cc8249adc428c5f44c9063b9734b4",
            "0x000000000000000000000000c77f7fed3b5cc8249adc428c5f44c9063b9734b4"
          ],
          "data": "0x0000000000000000000000000000000000000000000000000000000000003078",
          "blockHash": "0xfcdf60be80a5a89dd4490b0d6e73c357c39bb733c495d758782f0fd747b03584",
          "blockNumber": "0x731658",
          "transactionHash": "0x4977501819268828ced4ee8f5bc74204fb0ce949eaf10c48b96c47d5012c14e4",
          "transactionIndex": "0x9a",
          "logIndex": "0xab",
          "removed": false
        },
        {
          "address": "0x8aafd3ede9adb0ff97c7aebce82a919afb1c8764",
          "topics": [
            "0x4afcb4a87cdbd9974efdb92ee48bc8d7cd0ae4bf217004db3d080cbaee652ca7"
          ],
          "data": "0x00000000000000000000000000000000000000000000000000000000679008cc0000000000000000000000000000000000000000000000000004c572e03efa690000000000000000000000000000000000000000000000000000000000000823",
          "blockHash": "0xfcdf60be80a5a89dd4490b0d6e73c357c39bb733c495d758782f0fd747b03584",
          "blockNumber": "0x731658",
          "transactionHash": "0x4977501819268828ced4ee8f5bc74204fb0ce949eaf10c48b96c47d5012c14e4",
          "transactionIndex": "0x9a",
          "logIndex": "0xac",
          "removed": false
        }
      ],
      "logsBloom": "0x00000000000000000000000000000000000000000600000000000000000000000000000000000000000000000000000000000000000000004000000000000000000000000000004000000008000000000000000000000000000000000000000000000000020000000000000000000800020000000000000000000010000000000000000000000000000000000000000000000000000000000000010000000000000000000000000000000000000000004000000000000000000000000000000000000002000000800000000000000000000000000000080000000000000020000000000000000000000000000000000000000000000000000000000000000000",
      "type": "0x2",
      "transactionHash": "0x4977501819268828ced4ee8f5bc74204fb0ce949eaf10c48b96c47d5012c14e4",
      "transactionIndex": "0x9a",
      "blockHash": "0xfcdf60be80a5a89dd4490b0d6e73c357c39bb733c495d758782f0fd747b03584",
      "blockNumber": "0x731658",
      "gasUsed": "0xf213",
      "effectiveGasPrice": "0x4b6b3ee3",
      "from": "0xc77f7fed3b5cc8249adc428c5f44c9063b9734b4",
      "to": "0x8aafd3ede9adb0ff97c7aebce82a919afb1c8764",
      "contractAddress": null
    }
  ],
  "libraries": [],
  "pending": [],
  "returns": {},
  "timestamp": 1737492685,
  "chain": 11155111,
  "commit": "1d2fb70"
}