{
  "transactions": [
    {
      "hash": "0xeb61f24fe55032e617ccaa91855d25fd5e83f1d55596ee55a31a1d3d18f66702",
      "transactionType": "CALL",
      "contractName": null,
      "contractAddress": "0x8aafd3ede9adb0ff97c7aebce82a919afb1c8764",
      "function": "sell(uint256)",
      "arguments": [
        "98435801719778"
      ],
      "transaction": {
        "from": "0xc77f7fed3b5cc8249adc428c5f44c9063b9734b4",
        "to": "0x8aafd3ede9adb0ff97c7aebce82a919afb1c8764",
        "gas": "0x15daa",
        "value": "0x0",
        "input": "0xe4849b3200000000000000000000000000000000000000000000000000005986defea3e2",
        "nonce": "0x1577",
        "chainId": "0xaa36a7"
      },
      "additionalContracts": [],
      "isFixedGasLimit": false
    }
  ],
  "receipts": [
    {
      "status": "0x1",
      "cumulativeGasUsed": "0xf9ff38",
      "logs": [
        {
          "address": "0x8aafd3ede9adb0ff97c7aebce82a919afb1c8764",
          "topics": [
            "0xddf252ad1be2c89b69c2b068fc378daa952ba7f163c4a11628f55a4df523b3ef",
            "0x000000000000000000000000c77f7fed3b5cc8249adc428c5f44c9063b9734b4",
            "0x0000000000000000000000000000000000000000000000000000000000000000"
          ],
          "data": "0x000000000000000000000000000000000000000000000000000058cf85259024",
          "blockHash": "0x23402900f12c80b47be23aa939a6c073741bf7c66e5620864275aa97e71de3b9",
          "blockNumber": "0x731ce1",
          "transactionHash": "0xeb61f24fe55032e617ccaa91855d25fd5e83f1d55596ee55a31a1d3d18f66702",
          "transactionIndex": "0xa6",
          "logIndex": "0xf0",
          "removed": false
        },
        {
          "address": "0x8aafd3ede9adb0ff97c7aebce82a919afb1c8764",
          "topics": [
            "0xddf252ad1be2c89b69c2b068fc378daa952ba7f163c4a11628f55a4df523b3ef",
            "0x000000000000000000000000c77f7fed3b5cc8249adc428c5f44c9063b9734b4",
            "0x000000000000000000000000c77f7fed3b5cc8249adc428c5f44c9063b9734b4"
          ],
          "data": "0x000000000000000000000000000000000000000000000000000000b759d913be",
          "blockHash": "0x23402900f12c80b47be23aa939a6c073741bf7c66e5620864275aa97e71de3b9",
          "blockNumber": "0x731ce1",
          "transactionHash": "0xeb61f24fe55032e617ccaa91855d25fd5e83f1d55596ee55a31a1d3d18f66702",
          "transactionIndex": "0xa6",
          "logIndex": "0xf1",
          "removed": false
        },
        {
          "address": "0x8aafd3ede9adb0ff97c7aebce82a919afb1c8764",
          "topics": [
            "0x4afcb4a87cdbd9974efdb92ee48bc8d7cd0ae4bf217004db3d080cbaee652ca7"
          ],
          "data": "0x000000000000000000000000000000000000000000000000000000006790577400000000000000000000000000000000000000000000000000127428d9f5a489000000000000000000000000000000000000000000000000000000770bf8ef0a",
          "blockHash": "0x23402900f12c80b47be23aa939a6c073741bf7c66e5620864275aa97e71de3b9",
          "blockNumber": "0x731ce1",
          "transactionHash": "0xeb61f24fe55032e617ccaa91855d25fd5e83f1d55596ee55a31a1d3d18f66702",
          "transactionIndex": "0xa6",
          "logIndex": "0xf2",
          "removed": false
        }
      ],
      "logsBloom": "0x00000000000000000000000000000000000000000600000000000000000000000000000000000000000000000000000000000000000000004000000000000000000000000000004000000008000000000000000000000000000000000000000000000000020000000000000000000800020000000000000000000010000000000000000000000000000000000000000000000000000000000000010000000000000000000000000000000000000000004000000000000000000000000000000000000002000000800000000000000000000000000000080000000000000020000000000000000000000000000000000000000000000000000000000000000000",
      "type": "0x2",
      "transactionHash": "0xeb61f24fe55032e617ccaa91855d25fd5e83f1d55596ee55a31a1d3d18f66702",
      "transactionIndex": "0xa6",
      "blockHash": "0x23402900f12c80b47be23aa939a6c073741bf7c66e5620864275aa97e71de3b9",
      "blockNumber": "0x731ce1",
      "gasUsed": "0xfd27",
      "effectiveGasPrice": "0x71d4ffc5",
      "from": "0xc77f7fed3b5cc8249adc428c5f44c9063b9734b4",
      "to": "0x8aafd3ede9adb0ff97c7aebce82a919afb1c8764",
      "contractAddress": null
    }
  ],
  "libraries": [],
  "pending": [],
  "returns": {},
  "timestamp": 1737512822,
  "chain": 11155111,
  "commit": "1d2fb70"
}