{
  "transactions": [
    {
      "hash": "0x52772a30cc67d6d456c05d9442823842898075d9c4c8bc6bb2059cd433287109",
      "transactionType": "CALL",
      "contractName": null,
      "contractAddress": "0x8aafd3ede9adb0ff97c7aebce82a919afb1c8764",
      "function": "sell(uint256)",
      "arguments": [
        "382063635254642"
      ],
      "transaction": {
        "from": "0xc77f7fed3b5cc8249adc428c5f44c9063b9734b4",
        "to": "0x8aafd3ede9adb0ff97c7aebce82a919afb1c8764",
        "gas": "0x1724d",
        "value": "0x0",
        "input": "0xe4849b3200000000000000000000000000000000000000000000000000015b7c1f42cd72",
        "nonce": "0xeef",
        "chainId": "0xaa36a7"
      },
      "additionalContracts": [],
      "isFixedGasLimit": false
    }
  ],
  "receipts": [
    {
      "status": "0x1",
      "cumulativeGasUsed": "0xacbb22",
      "logs": [
        {
          "address": "0x8aafd3ede9adb0ff97c7aebce82a919afb1c8764",
          "topics": [
            "0xddf252ad1be2c89b69c2b068fc378daa952ba7f163c4a11628f55a4df523b3ef",
            "0x000000000000000000000000c77f7fed3b5cc8249adc428c5f44c9063b9734b4",
            "0x0000000000000000000000000000000000000000000000000000000000000000"
          ],
          "data": "0x000000000000000000000000000000000000000000000000000158b4791f73bd",
          "blockHash": "0x0601ea7ccb55989a836dee8383317867a8301d6adaa4d7ca5c01baf00a72b59f",
          "blockNumber": "0x731466",
          "transactionHash": "0x52772a30cc67d6d456c05d9442823842898075d9c4c8bc6bb2059cd433287109",
          "transactionIndex": "0x7a",
          "logIndex": "0xb0",
          "removed": false
        },
        {
          "address": "0x8aafd3ede9adb0ff97c7aebce82a919afb1c8764",
          "topics": [
            "0xddf252ad1be2c89b69c2b068fc378daa952ba7f163c4a11628f55a4df523b3ef",
            "0x000000000000000000000000c77f7fed3b5cc8249adc428c5f44c9063b9734b4",
            "0x000000000000000000000000c77f7fed3b5cc8249adc428c5f44c9063b9734b4"
          ],
          "data": "0x000000000000000000000000000000000000000000000000000002c7a62359b5",
          "blockHash": "0x0601ea7ccb55989a836dee8383317867a8301d6adaa4d7ca5c01baf00a72b59f",
          "blockNumber": "0x731466",
          "transactionHash": "0x52772a30cc67d6d456c05d9442823842898075d9c4c8bc6bb2059cd433287109",
          "transactionIndex": "0x7a",
          "logIndex": "0xb1",
          "removed": false
        },
        {
          "address": "0x8aafd3ede9adb0ff97c7aebce82a919afb1c8764",
          "topics": [
            "0x4afcb4a87cdbd9974efdb92ee48bc8d7cd0ae4bf217004db3d080cbaee652ca7"
          ],
          "data": "0x00000000000000000000000000000000000000000000000000000000678ff1740000000000000000000000000000000000000000000000000004bab17c240f47000000000000000000000000000000000000000000000000000000766a74a208",
          "blockHash": "0x0601ea7ccb55989a836dee8383317867a8301d6adaa4d7ca5c01baf00a72b59f",
          "blockNumber": "0x731466",
          "transactionHash": "0x52772a30cc67d6d456c05d9442823842898075d9c4c8bc6bb2059cd433287109",
          "transactionIndex": "0x7a",
          "logIndex": "0xb2",
          "removed": false
        }
      ],
      "logsBloom": "0x00000000000000000000000000000000000000000600000000000000000000000000000000000000000000000000000000000000000000004000000000000000000000000000004000000008000000000000000000000000000000000000000000000000020000000000000000000800020000000000000000000010000000000000000000000000000000000000000000000000000000000000010000000000000000000000000000000000000000004000000000000000000000000000000000000002000000800000000000000000000000000000080000000000000020000000000000000000000000000000000000000000000000000000000000000000",
      "type": "0x2",
      "transactionHash": "0x52772a30cc67d6d456c05d9442823842898075d9c4c8bc6bb2059cd433287109",
      "transactionIndex": "0x7a",
      "blockHash": "0x0601ea7ccb55989a836dee8383317867a8301d6adaa4d7ca5c01baf00a72b59f",
      "blockNumber": "0x731466",
      "gasUsed": "0xfd33",
      "effectiveGasPrice": "0xc1ac3d57",
      "from": "0xc77f7fed3b5cc8249adc428c5f44c9063b9734b4",
      "to": "0x8aafd3ede9adb0ff97c7aebce82a919afb1c8764",
      "contractAddress": null
    }
  ],
  "libraries": [],
  "pending": [],
  "returns": {},
  "timestamp": 1737486709,
  "chain": 11155111,
  "commit": "51a374b"
}