{
  "transactions": [
    {
      "hash": "0x55b972dad8577bc0b03ce496e4078305c391ff6229a8f4ca5f3a5785794ed46a",
      "transactionType": "CALL",
      "contractName": null,
      "contractAddress": "0x8aafd3ede9adb0ff97c7aebce82a919afb1c8764",
      "function": "sell(uint256)",
      "arguments": [
        "685824062090219552144"
      ],
      "transaction": {
        "from": "0xc77f7fed3b5cc8249adc428c5f44c9063b9734b4",
        "to": "0x8aafd3ede9adb0ff97c7aebce82a919afb1c8764",
        "gas": "0x17270",
        "value": "0x0",
        "input": "0xe4849b320000000000000000000000000000000000000000000000252db886d1c6fafd90",
        "nonce": "0x11b3",
        "chainId": "0xaa36a7"
      },
      "additionalContracts": [],
      "isFixedGasLimit": false
    }
  ],
  "receipts": [
    {
      "status": "0x1",
      "cumulativeGasUsed": "0x86d5ec",
      "logs": [
        {
          "address": "0x8aafd3ede9adb0ff97c7aebce82a919afb1c8764",
          "topics": [
            "0xddf252ad1be2c89b69c2b068fc378daa952ba7f163c4a11628f55a4df523b3ef",
            "0x000000000000000000000000c77f7fed3b5cc8249adc428c5f44c9063b9734b4",
            "0x0000000000000000000000000000000000000000000000000000000000000000"
          ],
          "data": "0x000000000000000000000000000000000000000000000024e1943c034c8e7c8f",
          "blockHash": "0xfd2660f1821c7eb9113182f7708feb82d0a95263d8b01c0962ce4b1e03252943",
          "blockNumber": "0x731880",
          "transactionHash": "0x55b972dad8577bc0b03ce496e4078305c391ff6229a8f4ca5f3a5785794ed46a",
          "transactionIndex": "0x76",
          "logIndex": "0x86",
          "removed": false
        },
        {
          "address": "0x8aafd3ede9adb0ff97c7aebce82a919afb1c8764",
          "topics": [
            "0xddf252ad1be2c89b69c2b068fc378daa952ba7f163c4a11628f55a4df523b3ef",
            "0x000000000000000000000000c77f7fed3b5cc8249adc428c5f44c9063b9734b4",
            "0x000000000000000000000000c77f7fed3b5cc8249adc428c5f44c9063b9734b4"
          ],
          "data": "0x0000000000000000000000000000000000000000000000004c244ace7a6c8101",
          "blockHash": "0xfd2660f1821c7eb9113182f7708feb82d0a95263d8b01c0962ce4b1e03252943",
          "blockNumber": "0x731880",
          "transactionHash": "0x55b972dad8577bc0b03ce496e4078305c391ff6229a8f4ca5f3a5785794ed46a",
          "transactionIndex": "0x76",
          "logIndex": "0x87",
          "removed": false
        },
        {
          "address": "0x8aafd3ede9adb0ff97c7aebce82a919afb1c8764",
          "topics": [
            "0x4afcb4a87cdbd9974efdb92ee48bc8d7cd0ae4bf217004db3d080cbaee652ca7"
          ],
          "data": "0x00000000000000000000000000000000000000000000000000000000679022d00000000000000000000000000000000000000000000000000005264cbadc1c040000000000000000000000000000000000000000000000000dc8f41a35b69b17",
          "blockHash": "0xfd2660f1821c7eb9113182f7708feb82d0a95263d8b01c0962ce4b1e03252943",
          "blockNumber": "0x731880",
          "transactionHash": "0x55b972dad8577bc0b03ce496e4078305c391ff6229a8f4ca5f3a5785794ed46a",
          "transactionIndex": "0x76",
          "logIndex": "0x88",
          "removed": false
        }
      ],
      "logsBloom": "0x00000000000000000000000000000000000000000600000000000000000000000000000000000000000000000000000000000000000000004000000000000000000000000000004000000008000000000000000000000000000000000000000000000000020000000000000000000800020000000000000000000010000000000000000000000000000000000000000000000000000000000000010000000000000000000000000000000000000000004000000000000000000000000000000000000002000000800000000000000000000000000000080000000000000020000000000000000000000000000000000000000000000000000000000000000000",
      "type": "0x2",
      "transactionHash": "0x55b972dad8577bc0b03ce496e4078305c391ff6229a8f4ca5f3a5785794ed46a",
      "transactionIndex": "0x76",
      "blockHash": "0xfd2660f1821c7eb9113182f7708feb82d0a95263d8b01c0962ce4b1e03252943",
      "blockNumber": "0x731880",
      "gasUsed": "0xfd4b",
      "effectiveGasPrice": "0x4b79d4eb",
      "from": "0xc77f7fed3b5cc8249adc428c5f44c9063b9734b4",
      "to": "0x8aafd3ede9adb0ff97c7aebce82a919afb1c8764",
      "contractAddress": null
    }
  ],
  "libraries": [],
  "pending": [],
  "returns": {},
  "timestamp": 1737499345,
  "chain": 11155111,
  "commit": "1d2fb70"
}