{
  "transactions": [
    {
      "hash": "0x9601dfb45f49d0a8dd4227c8e9ee2d0a0457d4190329bf1a025d37a9b974d375",
      "transactionType": "CALL",
      "contractName": null,
      "contractAddress": "0x8aafd3ede9adb0ff97c7aebce82a919afb1c8764",
      "function": "sell(uint256)",
      "arguments": [
        "1572494"
      ],
      "transaction": {
        "from": "0xc77f7fed3b5cc8249adc428c5f44c9063b9734b4",
        "to": "0x8aafd3ede9adb0ff97c7aebce82a919afb1c8764",
        "gas": "0x16208",
        "value": "0x0",
        "input": "0xe4849b32000000000000000000000000000000000000000000000000000000000017fe8e",
        "nonce": "0xe67",
        "chainId": "0xaa36a7"
      },
      "additionalContracts": [],
      "isFixedGasLimit": false
    }
  ],
  "receipts": [
    {
      "status": "0x1",
      "cumulativeGasUsed": "0x10ce962",
      "logs": [
        {
          "address": "0x8aafd3ede9adb0ff97c7aebce82a919afb1c8764",
          "topics": [
            "0xddf252ad1be2c89b69c2b068fc378daa952ba7f163c4a11628f55a4df523b3ef",
            "0x000000000000000000000000c77f7fed3b5cc8249adc428c5f44c9063b9734b4",
            "0x0000000000000000000000000000000000000000000000000000000000000000"
          ],
          "data": "0x000000000000000000000000000000000000000000000000000000000017cd6b",
          "blockHash": "0x27ae7957bc3b61eb9d3068abf00d3d9cecaa1f1560fb0b45e39bd8979b01600a",
          "blockNumber": "0x7313bd",
          "transactionHash": "0x9601dfb45f49d0a8dd4227c8e9ee2d0a0457d4190329bf1a025d37a9b974d375",
          "transactionIndex": "0x9c",
          "logIndex": "0x139",
          "removed": false
        },
        {
          "address": "0x8aafd3ede9adb0ff97c7aebce82a919afb1c8764",
          "topics": [
            "0xddf252ad1be2c89b69c2b068fc378daa952ba7f163c4a11628f55a4df523b3ef",
            "0x000000000000000000000000c77f7fed3b5cc8249adc428c5f44c9063b9734b4",
            "0x000000000000000000000000c77f7fed3b5cc8249adc428c5f44c9063b9734b4"
          ],
          "data": "0x0000000000000000000000000000000000000000000000000000000000003123",
          "blockHash": "0x27ae7957bc3b61eb9d3068abf00d3d9cecaa1f1560fb0b45e39bd8979b01600a",
          "blockNumber": "0x7313bd",
          "transactionHash": "0x9601dfb45f49d0a8dd4227c8e9ee2d0a0457d4190329bf1a025d37a9b974d375",
          "transactionIndex": "0x9c",
          "logIndex": "0x13a",
          "removed": false
        },
        {
          "address": "0x8aafd3ede9adb0ff97c7aebce82a919afb1c8764",
          "topics": [
            "0x4afcb4a87cdbd9974efdb92ee48bc8d7cd0ae4bf217004db3d080cbaee652ca7"
          ],
          "data": "0x00000000000000000000000000000000000000000000000000000000678fe9700000000000000000000000000000000000000000000000000004b4df99eb91f80000000000000000000000000000000000000000000000000000000000000823",
          "blockHash": "0x27ae7957bc3b61eb9d3068abf00d3d9cecaa1f1560fb0b45e39bd8979b01600a",
          "blockNumber": "0x7313bd",
          "transactionHash": "0x9601dfb45f49d0a8dd4227c8e9ee2d0a0457d4190329bf1a025d37a9b974d375",
          "transactionIndex": "0x9c",
          "logIndex": "0x13b",
          "removed": false
        }
      ],
      "logsBloom": "0x00000000000000000000000000000000000000000600000000000000000000000000000000000000000000000000000000000000000000004000000000000000000000000000004000000008000000000000000000000000000000000000000000000000020000000000000000000800020000000000000000000010000000000000000000000000000000000000000000000000000000000000010000000000000000000000000000000000000000004000000000000000000000000000000000000002000000800000000000000000000000000000080000000000000020000000000000000000000000000000000000000000000000000000000000000000",
      "type": "0x2",
      "transactionHash": "0x9601dfb45f49d0a8dd4227c8e9ee2d0a0457d4190329bf1a025d37a9b974d375",
      "transactionIndex": "0x9c",
      "blockHash": "0x27ae7957bc3b61eb9d3068abf00d3d9cecaa1f1560fb0b45e39bd8979b01600a",
      "blockNumber": "0x7313bd",
      "gasUsed": "0xf213",
      "effectiveGasPrice": "0x73e382b3",
      "from": "0xc77f7fed3b5cc8249adc428c5f44c9063b9734b4",
      "to": "0x8aafd3ede9adb0ff97c7aebce82a919afb1c8764",
      "contractAddress": null
    }
  ],
  "libraries": [],
  "pending": [],
  "returns": {},
  "timestamp": 1737484658,
  "chain": 11155111,
  "commit": "51a374b"
}