{
  "transactions": [
    {
      "hash": "0xd09924089c857992a13d9695eac41678f115b850b1e43aff7c171e0b0000ca9b",
      "transactionType": "CALL",
      "contractName": null,
      "contractAddress": "0x270e88f8683660553e8ba4eb2ad7c91a1710d769",
      "function": "sell(uint256)",
      "arguments": [
        "714051320949749460570"
      ],
      "transaction": {
        "from": "0xc77f7fed3b5cc8249adc428c5f44c9063b9734b4",
        "to": "0x270e88f8683660553e8ba4eb2ad7c91a1710d769",
        "gas": "0x16fec",
        "value": "0x0",
        "input": "0xe4849b32000000000000000000000000000000000000000000000026b573e532a0422e5a",
        "nonce": "0x86a",
        "chainId": "0xaa36a7"
      },
      "additionalContracts": [],
      "isFixedGasLimit": false
    }
  ],
  "receipts": [
    {
      "status": "0x1",
      "cumulativeGasUsed": "0x1bd0449",
      "logs": [
        {
          "address": "0x270e88f8683660553e8ba4eb2ad7c91a1710d769",
          "topics": [
            "0xddf252ad1be2c89b69c2b068fc378daa952ba7f163c4a11628f55a4df523b3ef",
            "0x000000000000000000000000c77f7fed3b5cc8249adc428c5f44c9063b9734b4",
            "0x0000000000000000000000000000000000000000000000000000000000000000"
          ],
          "data": "0x000000000000000000000000000000000000000000000026b573e532a0422e5a",
          "blockHash": "0xb2e29423d362d693532004d709d8be69da5b79a305ce82728bb2ac32bab4794f",
          "blockNumber": "0x7255c1",
          "transactionHash": "0xd09924089c857992a13d9695eac41678f115b850b1e43aff7c171e0b0000ca9b",
          "transactionIndex": "0x53",
          "logIndex": "0x61",
          "removed": false
        },
        {
          "address": "0x270e88f8683660553e8ba4eb2ad7c91a1710d769",
          "topics": [
            "0x4afcb4a87cdbd9974efdb92ee48bc8d7cd0ae4bf217004db3d080cbaee652ca7"
          ],
          "data": "0x000000000000000000000000000000000000000000000000000000006786f7140000000000000000000000000000000000000000000000000004f1176505dac50000000000000000000000000000000000000000000000000dc825d02fc1ba27",
          "blockHash": "0xb2e29423d362d693532004d709d8be69da5b79a305ce82728bb2ac32bab4794f",
          "blockNumber": "0x7255c1",
          "transactionHash": "0xd09924089c857992a13d9695eac41678f115b850b1e43aff7c171e0b0000ca9b",
          "transactionIndex": "0x53",
          "logIndex": "0x62",
          "removed": false
        }
      ],
      "logsBloom": "0x00000000000000000000000000000000000000000000000000000000000000000000000000000000000000000000000020000000000000004000000000000000000000000000000000000008000000000000000000000000000000000000000000000000020000000000000000000800020000000000000000000010000000000000000000010000000000000000000000000000000000000000010000000000000000000000000000000000000000004000000000000000000000000000000000000002000000800000000000000000000000000000080000008000000020000000000000000000000000000000000000000000000000000000000000000000",
      "type": "0x2",
      "transactionHash": "0xd09924089c857992a13d9695eac41678f115b850b1e43aff7c171e0b0000ca9b",
      "transactionIndex": "0x53",
      "blockHash": "0xb2e29423d362d693532004d709d8be69da5b79a305ce82728bb2ac32bab4794f",
      "blockNumber": "0x7255c1",
      "gasUsed": "0xfb93",
      "effectiveGasPrice": "0x92805de9",
      "from": "0xc77f7fed3b5cc8249adc428c5f44c9063b9734b4",
      "to": "0x270e88f8683660553e8ba4eb2ad7c91a1710d769",
      "contractAddress": null
    }
  ],
  "libraries": [],
  "pending": [],
  "returns": {},
  "timestamp": 1736898326,
  "chain": 11155111,
  "commit": "51a374b"
}