{
  "transactions": [
    {
      "hash": "0x06a08f2e04b4949dce3f176de57b69ba5da491f0437d07b63d9b944995ff0c81",
      "transactionType": "CALL",
      "contractName": null,
      "contractAddress": "0x8aafd3ede9adb0ff97c7aebce82a919afb1c8764",
      "function": "sell(uint256)",
      "arguments": [
        "10880544956864985"
      ],
      "transaction": {
        "from": "0xc77f7fed3b5cc8249adc428c5f44c9063b9734b4",
        "to": "0x8aafd3ede9adb0ff97c7aebce82a919afb1c8764",
        "gas": "0x1724d",
        "value": "0x0",
        "input": "0xe4849b320000000000000000000000000000000000000000000000000026a7cc491dd9d9",
        "nonce": "0x1645",
        "chainId": "0xaa36a7"
      },
      "additionalContracts": [],
      "isFixedGasLimit": false
    }
  ],
  "receipts": [
    {
      "status": "0x1",
      "cumulativeGasUsed": "0x11941e2",
      "logs": [
        {
          "address": "0x8aafd3ede9adb0ff97c7aebce82a919afb1c8764",
          "topics": [
            "0xddf252ad1be2c89b69c2b068fc378daa952ba7f163c4a11628f55a4df523b3ef",
            "0x000000000000000000000000c77f7fed3b5cc8249adc428c5f44c9063b9734b4",
            "0x0000000000000000000000000000000000000000000000000000000000000000"
          ],
          "data": "0x000000000000000000000000000000000000000000000000002658a1b0facbd2",
          "blockHash": "0x2ff9efda56d6d960aba0a0225f470579f75249e787b554560c89763fc86948d3",
          "blockNumber": "0x731dde",
          "transactionHash": "0x06a08f2e04b4949dce3f176de57b69ba5da491f0437d07b63d9b944995ff0c81",
          "transactionIndex": "0x82",
          "logIndex": "0x110",
          "removed": false
        },
        {
          "address": "0x8aafd3ede9adb0ff97c7aebce82a919afb1c8764",
          "topics": [
            "0xddf252ad1be2c89b69c2b068fc378daa952ba7f163c4a11628f55a4df523b3ef",
            "0x000000000000000000000000c77f7fed3b5cc8249adc428c5f44c9063b9734b4",
            "0x000000000000000000000000c77f7fed3b5cc8249adc428c5f44c9063b9734b4"
          ],
          "data": "0x00000000000000000000000000000000000000000000000000004f2a98230e07",
          "blockHash": "0x2ff9efda56d6d960aba0a0225f470579f75249e787b554560c89763fc86948d3",
          "blockNumber": "0x731dde",
          "transactionHash": "0x06a08f2e04b4949dce3f176de57b69ba5da491f0437d07b63d9b944995ff0c81",
          "transactionIndex": "0x82",
          "logIndex": "0x111",
          "removed": false
        },
        {
          "address": "0x8aafd3ede9adb0ff97c7aebce82a919afb1c8764",
          "topics": [
            "0x4afcb4a87cdbd9974efdb92ee48bc8d7cd0ae4bf217004db3d080cbaee652ca7"
          ],
          "data": "0x00000000000000000000000000000000000000000000000000000000679063500000000000000000000000000000000000000000000000000014db13d8c387d900000000000000000000000000000000000000000000000000003a17912fdafd",
          "blockHash": "0x2ff9efda56d6d960aba0a0225f470579f75249e787b554560c89763fc86948d3",
          "blockNumber": "0x731dde",
          "transactionHash": "0x06a08f2e04b4949dce3f176de57b69ba5da491f0437d07b63d9b944995ff0c81",
          "transactionIndex": "0x82",
          "logIndex": "0x112",
          "removed": false
        }
      ],
      "logsBloom": "0x00000000000000000000000000000000000000000600000000000000000000000000000000000000000000000000000000000000000000004000000000000000000000000000004000000008000000000000000000000000000000000000000000000000020000000000000000000800020000000000000000000010000000000000000000000000000000000000000000000000000000000000010000000000000000000000000000000000000000004000000000000000000000000000000000000002000000800000000000000000000000000000080000000000000020000000000000000000000000000000000000000000000000000000000000000000",
      "type": "0x2",
      "transactionHash": "0x06a08f2e04b4949dce3f176de57b69ba5da491f0437d07b63d9b944995ff0c81",
      "transactionIndex": "0x82",
      "blockHash": "0x2ff9efda56d6d960aba0a0225f470579f75249e787b554560c89763fc86948d3",
      "blockNumber": "0x731dde",
      "gasUsed": "0xfd33",
      "effectiveGasPrice": "0x45ceee66",
      "from": "0xc77f7fed3b5cc8249adc428c5f44c9063b9734b4",
      "to": "0x8aafd3ede9adb0ff97c7aebce82a919afb1c8764",
      "contractAddress": null
    }
  ],
  "libraries": [],
  "pending": [],
  "returns": {},
  "timestamp": 1737515858,
  "chain": 11155111,
  "commit": "1d2fb70"
}