{
  "transactions": [
    {
      "hash": "0xb0026af9580ba23dd0fc407c778d28b95838a6abd857f5e026ab26b576eb3717",
      "transactionType": "CALL",
      "contractName": null,
      "contractAddress": "0x5eb9cc76c3506942c1c0ead70e877dd5e4f00cb0",
      "function": "sell(uint256)",
      "arguments": [
        "989077690113647132738"
      ],
      "transaction": {
        "from": "0xc77f7fed3b5cc8249adc428c5f44c9063b9734b4",
        "to": "0x5eb9cc76c3506942c1c0ead70e877dd5e4f00cb0",
        "gas": "0x16fec",
        "value": "0x0",
        "input": "0xe4849b320000000000000000000000000000000000000000000000359e35d6ccd7d34042",
        "nonce": "0x48d",
        "chainId": "0xaa36a7"
      },
      "additionalContracts": [],
      "isFixedGasLimit": false
    }
  ],
  "receipts": [
    {
      "status": "0x1",
      "cumulativeGasUsed": "0x17c7360",
      "logs": [
        {
          "address": "0x5eb9cc76c3506942c1c0ead70e877dd5e4f00cb0",
          "topics": [
            "0xddf252ad1be2c89b69c2b068fc378daa952ba7f163c4a11628f55a4df523b3ef",
            "0x000000000000000000000000c77f7fed3b5cc8249adc428c5f44c9063b9734b4",
            "0x0000000000000000000000000000000000000000000000000000000000000000"
          ],
          "data": "0x0000000000000000000000000000000000000000000000359e35d6ccd7d34042",
          "blockHash": "0x0e8b072da4c3cb8a92dd3e541c1a35c4feed22d0735cd6dab2afb8bcc177ffb6",
          "blockNumber": "0x7250bf",
          "transactionHash": "0xb0026af9580ba23dd0fc407c778d28b95838a6abd857f5e026ab26b576eb3717",
          "transactionIndex": "0x7d",
          "logIndex": "0x119",
          "removed": false
        },
        {
          "address": "0x5eb9cc76c3506942c1c0ead70e877dd5e4f00cb0",
          "topics": [
            "0x4afcb4a87cdbd9974efdb92ee48bc8d7cd0ae4bf217004db3d080cbaee652ca7"
          ],
          "data": "0x000000000000000000000000000000000000000000000000000000006786bac00000000000000000000000000000000000000000000000000003911abe9da6ea0000000000000000000000000000000000000000000000000dc7db1331bfc031",
          "blockHash": "0x0e8b072da4c3cb8a92dd3e541c1a35c4feed22d0735cd6dab2afb8bcc177ffb6",
          "blockNumber": "0x7250bf",
          "transactionHash": "0xb0026af9580ba23dd0fc407c778d28b95838a6abd857f5e026ab26b576eb3717",
          "transactionIndex": "0x7d",
          "logIndex": "0x11a",
          "removed": false
        }
      ],
      "logsBloom": "0x00000000000000000000000000000000000000000000000000000000000000000000000000000000000000000000000000000000000000004000000000000000000000000000000000000008000000000000000000000000000000000000000000000000020000000000000004000800020000000000000000000010000000000000000000000000000000000000000000000000000000000000010000000000000000000000000000000000000000004000000000000000000000000000020000000002000000800000008000000000000000000000080000000000000020000000000000000000000000000000000000000000000000000000000000000000",
      "type": "0x2",
      "transactionHash": "0xb0026af9580ba23dd0fc407c778d28b95838a6abd857f5e026ab26b576eb3717",
      "transactionIndex": "0x7d",
      "blockHash": "0x0e8b072da4c3cb8a92dd3e541c1a35c4feed22d0735cd6dab2afb8bcc177ffb6",
      "blockNumber": "0x7250bf",
      "gasUsed": "0xfb93",
      "effectiveGasPrice": "0x1fdfd1260",
      "from": "0xc77f7fed3b5cc8249adc428c5f44c9063b9734b4",
      "to": "0x5eb9cc76c3506942c1c0ead70e877dd5e4f00cb0",
      "contractAddress": null
    }
  ],
  "libraries": [],
  "pending": [],
  "returns": {},
  "timestamp": 1736882881,
  "chain": 11155111,
  "commit": "51a374b"
}