{
  "transactions": [
    {
      "hash": "0x35efb1a928ee8012ac3bc0b45b1215ba0eb4b08fe2050e5996b56d34fe0c1e9c",
      "transactionType": "CALL",
      "contractName": null,
      "contractAddress": "0x270e88f8683660553e8ba4eb2ad7c91a1710d769",
      "function": "sell(uint256)",
      "arguments": [
        "959067852158734364623"
      ],
      "transaction": {
        "from": "0xc77f7fed3b5cc8249adc428c5f44c9063b9734b4",
        "to": "0x270e88f8683660553e8ba4eb2ad7c91a1710d769",
        "gas": "0x16fec",
        "value": "0x0",
        "input": "0xe4849b32000000000000000000000000000000000000000000000033fdbd7a2dda36efcf",
        "nonce": "0x5b1",
        "chainId": "0xaa36a7"
      },
      "additionalContracts": [],
      "isFixedGasLimit": false
    }
  ],
  "receipts": [
    {
      "status": "0x1",
      "cumulativeGasUsed": "0x966ba0",
      "logs": [
        {
          "address": "0x270e88f8683660553e8ba4eb2ad7c91a1710d769",
          "topics": [
            "0xddf252ad1be2c89b69c2b068fc378daa952ba7f163c4a11628f55a4df523b3ef",
            "0x000000000000000000000000c77f7fed3b5cc8249adc428c5f44c9063b9734b4",
            "0x0000000000000000000000000000000000000000000000000000000000000000"
          ],
          "data": "0x000000000000000000000000000000000000000000000033fdbd7a2dda36efcf",
          "blockHash": "0xdd5070c7179c7f470c59a04e8d7d4ec1d99fc1aa72337cb13834912bc8344fb6",
          "blockNumber": "0x72526c",
          "transactionHash": "0x35efb1a928ee8012ac3bc0b45b1215ba0eb4b08fe2050e5996b56d34fe0c1e9c",
          "transactionIndex": "0x4c",
          "logIndex": "0x87",
          "removed": false
        },
        {
          "address": "0x270e88f8683660553e8ba4eb2ad7c91a1710d769",
          "topics": [
            "0x4afcb4a87cdbd9974efdb92ee48bc8d7cd0ae4bf217004db3d080cbaee652ca7"
          ],
          "data": "0x000000000000000000000000000000000000000000000000000000006786cf000000000000000000000000000000000000000000000000000003adf7e5b9c20b0000000000000000000000000000000000000000000000000dc83f172df9d1d2",
          "blockHash": "0xdd5070c7179c7f470c59a04e8d7d4ec1d99fc1aa72337cb13834912bc8344fb6",
          "blockNumber": "0x72526c",
          "transactionHash": "0x35efb1a928ee8012ac3bc0b45b1215ba0eb4b08fe2050e5996b56d34fe0c1e9c",
          "transactionIndex": "0x4c",
          "logIndex": "0x88",
          "removed": false
        }
      ],
      "logsBloom": "0x00000000000000000000000000000000000000000000000000000000000000000000000000000000000000000000000020000000000000004000000000000000000000000000000000000008000000000000000000000000000000000000000000000000020000000000000000000800020000000000000000000010000000000000000000010000000000000000000000000000000000000000010000000000000000000000000000000000000000004000000000000000000000000000000000000002000000800000000000000000000000000000080000008000000020000000000000000000000000000000000000000000000000000000000000000000",
      "type": "0x2",
      "transactionHash": "0x35efb1a928ee8012ac3bc0b45b1215ba0eb4b08fe2050e5996b56d34fe0c1e9c",
      "transactionIndex": "0x4c",
      "blockHash": "0xdd5070c7179c7f470c59a04e8d7d4ec1d99fc1aa72337cb13834912bc8344fb6",
      "blockNumber": "0x72526c",
      "gasUsed": "0xfb93",
      "effectiveGasPrice": "0x4897eff12",
      "from": "0xc77f7fed3b5cc8249adc428c5f44c9063b9734b4",
      "to": "0x270e88f8683660553e8ba4eb2ad7c91a1710d769",
      "contractAddress": null
    }
  ],
  "libraries": [],
  "pending": [],
  "returns": {},
  "timestamp": 1736888065,
  "chain": 11155111,
  "commit": "51a374b"
}