{
  "transactions": [
    {
      "hash": "0xbc00d8bc31a6e68516ca519ade66e5aec7c8999f1520a17689701bc099b6b08f",
      "transactionType": "CALL",
      "contractName": null,
      "contractAddress": "0x8aafd3ede9adb0ff97c7aebce82a919afb1c8764",
      "function": "sell(uint256)",
      "arguments": [
        "5106136110"
      ],
      "transaction": {
        "from": "0xc77f7fed3b5cc8249adc428c5f44c9063b9734b4",
        "to": "0x8aafd3ede9adb0ff97c7aebce82a919afb1c8764",
        "gas": "0x1722a",
        "value": "0x0",
        "input": "0xe4849b32000000000000000000000000000000000000000000000000000000013059742e",
        "nonce": "0x16ea",
        "chainId": "0xaa36a7"
      },
      "additionalContracts": [],
      "isFixedGasLimit": false
    }
  ],
  "receipts": [
    {
      "status": "0x1",
      "cumulativeGasUsed": "0xbf5f30",
      "logs": [
        {
          "address": "0x8aafd3ede9adb0ff97c7aebce82a919afb1c8764",
          "topics": [
            "0xddf252ad1be2c89b69c2b068fc378daa952ba7f163c4a11628f55a4df523b3ef",
            "0x000000000000000000000000c77f7fed3b5cc8249adc428c5f44c9063b9734b4",
            "0x0000000000000000000000000000000000000000000000000000000000000000"
          ],
          "data": "0x000000000000000000000000000000000000000000000000000000012dea256e",
          "blockHash": "0x707c768f3420d5fe33f1af479963d86a9ee22be6d975fb1af0b1b9b71f1ee15e",
          "blockNumber": "0x731ea9",
          "transactionHash": "0xbc00d8bc31a6e68516ca519ade66e5aec7c8999f1520a17689701bc099b6b08f",
          "transactionIndex": "0x7a",
          "logIndex": "0xb0",
          "removed": false
        },
        {
          "address": "0x8aafd3ede9adb0ff97c7aebce82a919afb1c8764",
          "topics": [
            "0xddf252ad1be2c89b69c2b068fc378daa952ba7f163c4a11628f55a4df523b3ef",
            "0x000000000000000000000000c77f7fed3b5cc8249adc428c5f44c9063b9734b4",
            "0x000000000000000000000000c77f7fed3b5cc8249adc428c5f44c9063b9734b4"
          ],
          "data": "0x00000000000000000000000000000000000000000000000000000000026f4ec0",
          "blockHash": "0x707c768f3420d5fe33f1af479963d86a9ee22be6d975fb1af0b1b9b71f1ee15e",
          "blockNumber": "0x731ea9",
          "transactionHash": "0xbc00d8bc31a6e68516ca519ade66e5aec7c8999f1520a17689701bc099b6b08f",
          "transactionIndex": "0x7a",
          "logIndex": "0xb1",
          "removed": false
        },
        {
          "address": "0x8aafd3ede9adb0ff97c7aebce82a919afb1c8764",
          "topics": [
            "0x4afcb4a87cdbd9974efdb92ee48bc8d7cd0ae4bf217004db3d080cbaee652ca7"
          ],
          "data": "0x0000000000000000000000000000000000000000000000000000000067906cd40000000000000000000000000000000000000000000000000016bea510ddc0050000000000000000000000000000000000000000000000000000000001f2ce9a",
          "blockHash": "0x707c768f3420d5fe33f1af479963d86a9ee22be6d975fb1af0b1b9b71f1ee15e",
          "blockNumber": "0x731ea9",
          "transactionHash": "0xbc00d8bc31a6e68516ca519ade66e5aec7c8999f1520a17689701bc099b6b08f",
          "transactionIndex": "0x7a",
          "logIndex": "0xb2",
          "removed": false
        }
      ],
      "logsBloom": "0x00000000000000000000000000000000000000000600000000000000000000000000000000000000000000000000000000000000000000004000000000000000000000000000004000000008000000000000000000000000000000000000000000000000020000000000000000000800020000000000000000000010000000000000000000000000000000000000000000000000000000000000010000000000000000000000000000000000000000004000000000000000000000000000000000000002000000800000000000000000000000000000080000000000000020000000000000000000000000000000000000000000000000000000000000000000",
      "type": "0x2",
      "transactionHash": "0xbc00d8bc31a6e68516ca519ade66e5aec7c8999f1520a17689701bc099b6b08f",
      "transactionIndex": "0x7a",
      "blockHash": "0x707c768f3420d5fe33f1af479963d86a9ee22be6d975fb1af0b1b9b71f1ee15e",
      "blockNumber": "0x731ea9",
      "gasUsed": "0xfd1b",
      "effectiveGasPrice": "0x43c07af3",
      "from": "0xc77f7fed3b5cc8249adc428c5f44c9063b9734b4",
      "to": "0x8aafd3ede9adb0ff97c7aebce82a919afb1c8764",
      "contractAddress": null
    }
  ],
  "libraries": [],
  "pending": [],
  "returns": {},
  "timestamp": 1737518293,
  "chain": 11155111,
  "commit": "1d2fb70"
}