{
  "transactions": [
    {
      "hash": "0x92bf27c35bc33e2eec41517bdabec025d6610cd2ec8fb2b0722e7cd7b5b12015",
      "transactionType": "CALL",
      "contractName": null,
      "contractAddress": "0x8aafd3ede9adb0ff97c7aebce82a919afb1c8764",
      "function": "sell(uint256)",
      "arguments": [
        "3056509082037"
      ],
      "transaction": {
        "from": "0xc77f7fed3b5cc8249adc428c5f44c9063b9734b4",
        "to": "0x8aafd3ede9adb0ff97c7aebce82a919afb1c8764",
        "gas": "0x15daa",
        "value": "0x0",
        "input": "0xe4849b32000000000000000000000000000000000000000000000000000002c7a62359b5",
        "nonce": "0xef0",
        "chainId": "0xaa36a7"
      },
      "additionalContracts": [],
      "isFixedGasLimit": false
    }
  ],
  "receipts": [
    {
      "status": "0x1",
      "cumulativeGasUsed": "0xac6254",
      "logs": [
        {
          "address": "0x8aafd3ede9adb0ff97c7aebce82a919afb1c8764",
          "topics": [
            "0xddf252ad1be2c89b69c2b068fc378daa952ba7f163c4a11628f55a4df523b3ef",
            "0x000000000000000000000000c77f7fed3b5cc8249adc428c5f44c9063b9734b4",
            "0x0000000000000000000000000000000000000000000000000000000000000000"
          ],
          "data": "0x000000000000000000000000000000000000000000000000000002c1f4ae54e5",
          "blockHash": "0x646460bfff56068de1c08759380e161264f29af1d51e4afa8002552d1a6486cd",
          "blockNumber": "0x731467",
          "transactionHash": "0x92bf27c35bc33e2eec41517bdabec025d6610cd2ec8fb2b0722e7cd7b5b12015",
          "transactionIndex": "0x84",
          "logIndex": "0xca",
          "removed": false
        },
        {
          "address": "0x8aafd3ede9adb0ff97c7aebce82a919afb1c8764",
          "topics": [
            "0xddf252ad1be2c89b69c2b068fc378daa952ba7f163c4a11628f55a4df523b3ef",
            "0x000000000000000000000000c77f7fed3b5cc8249adc428c5f44c9063b9734b4",
            "0x000000000000000000000000c77f7fed3b5cc8249adc428c5f44c9063b9734b4"
          ],
          "data": "0x00000000000000000000000000000000000000000000000000000005b17504d0",
          "blockHash": "0x646460bfff56068de1c08759380e161264f29af1d51e4afa8002552d1a6486cd",
          "blockNumber": "0x731467",
          "transactionHash": "0x92bf27c35bc33e2eec41517bdabec025d6610cd2ec8fb2b0722e7cd7b5b12015",
          "transactionIndex": "0x84",
          "logIndex": "0xcb",
          "removed": false
        },
        {
          "address": "0x8aafd3ede9adb0ff97c7aebce82a919afb1c8764",
          "topics": [
            "0x4afcb4a87cdbd9974efdb92ee48bc8d7cd0ae4bf217004db3d080cbaee652ca7"
          ],
          "data": "0x00000000000000000000000000000000000000000000000000000000678ff1800000000000000000000000000000000000000000000000000004bab17c24147100000000000000000000000000000000000000000000000000000000f284014c",
          "blockHash": "0x646460bfff56068de1c08759380e161264f29af1d51e4afa8002552d1a6486cd",
          "blockNumber": "0x731467",
          "transactionHash": "0x92bf27c35bc33e2eec41517bdabec025d6610cd2ec8fb2b0722e7cd7b5b12015",
          "transactionIndex": "0x84",
          "logIndex": "0xcc",
          "removed": false
        }
      ],
      "logsBloom": "0x00000000000000000000000000000000000000000600000000000000000000000000000000000000000000000000000000000000000000004000000000000000000000000000004000000008000000000000000000000000000000000000000000000000020000000000000000000800020000000000000000000010000000000000000000000000000000000000000000000000000000000000010000000000000000000000000000000000000000004000000000000000000000000000000000000002000000800000000000000000000000000000080000000000000020000000000000000000000000000000000000000000000000000000000000000000",
      "type": "0x2",
      "transactionHash": "0x92bf27c35bc33e2eec41517bdabec025d6610cd2ec8fb2b0722e7cd7b5b12015",
      "transactionIndex": "0x84",
      "blockHash": "0x646460bfff56068de1c08759380e161264f29af1d51e4afa8002552d1a6486cd",
      "blockNumber": "0x731467",
      "gasUsed": "0xfd27",
      "effectiveGasPrice": "0xbf4b04b4",
      "from": "0xc77f7fed3b5cc8249adc428c5f44c9063b9734b4",
      "to": "0x8aafd3ede9adb0ff97c7aebce82a919afb1c8764",
      "contractAddress": null
    }
  ],
  "libraries": [],
  "pending": [],
  "returns": {},
  "timestamp": 1737486722,
  "chain": 11155111,
  "commit": "51a374b"
}