{
  "transactions": [
    {
      "hash": "0xd7397d42dfc2bdf2a7af7a973729a8133949fbf1e5508a6c4d62be56aa27c9ab",
      "transactionType": "CALL",
      "contractName": null,
      "contractAddress": "0xbf4a322f1496e5c3d34a9bcdb4c60567b38c7de2",
      "function": "sell(uint256)",
      "arguments": [
        "987317263443080886844"
      ],
      "transaction": {
        "from": "0xc77f7fed3b5cc8249adc428c5f44c9063b9734b4",
        "to": "0xbf4a322f1496e5c3d34a9bcdb4c60567b38c7de2",
        "gas": "0x16fea",
        "value": "0x0",
        "input": "0xe4849b3200000000000000000000000000000000000000000000003585c78c120799ba3c",
        "nonce": "0x9fb",
        "chainId": "0xaa36a7"
      },
      "additionalContracts": [],
      "isFixedGasLimit": false
    }
  ],
  "receipts": [
    {
      "status": "0x1",
      "cumulativeGasUsed": "0x165911d",
      "logs": [
        {
          "address": "0xbf4a322f1496e5c3d34a9bcdb4c60567b38c7de2",
          "topics": [
            "0xddf252ad1be2c89b69c2b068fc378daa952ba7f163c4a11628f55a4df523b3ef",
            "0x000000000000000000000000c77f7fed3b5cc8249adc428c5f44c9063b9734b4",
            "0x0000000000000000000000000000000000000000000000000000000000000000"
          ],
          "data": "0x00000000000000000000000000000000000000000000003585c78c120799ba3c",
          "blockHash": "0x73534b292b2a67022eab8810316b48aaac18606c5e015c70ecd967bf7814f09d",
          "blockNumber": "0x7259b2",
          "transactionHash": "0xd7397d42dfc2bdf2a7af7a973729a8133949fbf1e5508a6c4d62be56aa27c9ab",
          "transactionIndex": "0xc2",
          "logIndex": "0x11d",
          "removed": false
        },
        {
          "address": "0xbf4a322f1496e5c3d34a9bcdb4c60567b38c7de2",
          "topics": [
            "0x4afcb4a87cdbd9974efdb92ee48bc8d7cd0ae4bf217004db3d080cbaee652ca7"
          ],
          "data": "0x000000000000000000000000000000000000000000000000000000006787269c000000000000000000000000000000000000000000000000000392c1ed821fed0000000000000000000000000000000000000000000000000dc7e3f3143a21b2",
          "blockHash": "0x73534b292b2a67022eab8810316b48aaac18606c5e015c70ecd967bf7814f09d",
          "blockNumber": "0x7259b2",
          "transactionHash": "0xd7397d42dfc2bdf2a7af7a973729a8133949fbf1e5508a6c4d62be56aa27c9ab",
          "transactionIndex": "0xc2",
          "logIndex": "0x11e",
          "removed": false
        }
      ],
      "logsBloom": "0x00000000000000000000000000000000000000000000000000000000000000000000000000000000000000000000000000000000000000004000000000000000000000000000000000000008000000000000001000000000000000000000000000000000020000000000000000000800020000000000000000000010000000000000000000000000000000000000000000000000000008000000010000000000000000000000000000000000000000004000000000000000000000000000000000000002000000800000000000001000000000000000080000000000000020000000000000000000000000000000000000000000000000000000000000000000",
      "type": "0x2",
      "transactionHash": "0xd7397d42dfc2bdf2a7af7a973729a8133949fbf1e5508a6c4d62be56aa27c9ab",
      "transactionIndex": "0xc2",
      "blockHash": "0x73534b292b2a67022eab8810316b48aaac18606c5e015c70ecd967bf7814f09d",
      "blockNumber": "0x7259b2",
      "gasUsed": "0xfb91",
      "effectiveGasPrice": "0x30cfca594",
      "from": "0xc77f7fed3b5cc8249adc428c5f44c9063b9734b4",
      "to": "0xbf4a322f1496e5c3d34a9bcdb4c60567b38c7de2",
      "contractAddress": null
    }
  ],
  "libraries": [],
  "pending": [],
  "returns": {},
  "timestamp": 1736910493,
  "chain": 11155111,
  "commit": "51a374b"
}