{
  "transactions": [
    {
      "hash": "0x222cc6f86ba49fc25595118e6f3165454c943ef95e8e40606e032d7daf0be5d1",
      "transactionType": "CALL",
      "contractName": null,
      "contractAddress": "0x8aafd3ede9adb0ff97c7aebce82a919afb1c8764",
      "function": "buy(address)",
      "arguments": [
        "0xC77f7fed3b5Cc8249aDc428c5F44C9063B9734b4"
      ],
      "transaction": {
        "from": "0xc77f7fed3b5cc8249adc428c5f44c9063b9734b4",
        "to": "0x8aafd3ede9adb0ff97c7aebce82a919afb1c8764",
        "gas": "0x156ea",
        "value": "0xde0b6b3a7640000",
        "input": "0xf088d547000000000000000000000000c77f7fed3b5cc8249adc428c5f44c9063b9734b4",
        "nonce": "0x1040",
        "chainId": "0xaa36a7"
      },
      "additionalContracts": [],
      "isFixedGasLimit": false
    }
  ],
  "receipts": [
    {
      "status": "0x1",
      "cumulativeGasUsed": "0x930832",
      "logs": [
        {
          "address": "0x8aafd3ede9adb0ff97c7aebce82a919afb1c8764",
          "topics": [
            "0xddf252ad1be2c89b69c2b068fc378daa952ba7f163c4a11628f55a4df523b3ef",
            "0x0000000000000000000000000000000000000000000000000000000000000000",
            "0x000000000000000000000000c77f7fed3b5cc8249adc428c5f44c9063b9734b4"
          ],
          "data": "0x000000000000000000000000000000000000000000000026a4abf418c1db600f",
          "blockHash": "0x1f3604361219d8223a157583241a2ad0906d1656c90a0a8822a44f65d94e0da6",
          "blockNumber": "0x7316c0",
          "transactionHash": "0x222cc6f86ba49fc25595118e6f3165454c943ef95e8e40606e032d7daf0be5d1",
          "transactionIndex": "0x64",
          "logIndex": "0x8e",
          "removed": false
        },
        {
          "address": "0x8aafd3ede9adb0ff97c7aebce82a919afb1c8764",
          "topics": [
            "0xddf252ad1be2c89b69c2b068fc378daa952ba7f163c4a11628f55a4df523b3ef",
            "0x0000000000000000000000000000000000000000000000000000000000000000",
            "0x000000000000000000000000c77f7fed3b5cc8249adc428c5f44c9063b9734b4"
          ],
          "data": "0x0000000000000000000000000000000000000000000000001e01ff3be43aa03d",
          "blockHash": "0x1f3604361219d8223a157583241a2ad0906d1656c90a0a8822a44f65d94e0da6",
          "blockNumber": "0x7316c0",
          "transactionHash": "0x222cc6f86ba49fc25595118e6f3165454c943ef95e8e40606e032d7daf0be5d1",
          "transactionIndex": "0x64",
          "logIndex": "0x8f",
          "removed": false
        },
        {
          "address": "0x8aafd3ede9adb0ff97c7aebce82a919afb1c8764",
          "topics": [
            "0x4afcb4a87cdbd9974efdb92ee48bc8d7cd0ae4bf217004db3d080cbaee652ca7"
          ],
          "data": "0x0000000000000000000000000000000000000000000000000000000067900db80000000000000000000000000000000000000000000000000004ef85874d3f850000000000000000000000000000000000000000000000000de0b6b3a7640000",
          "blockHash": "0x1f3604361219d8223a157583241a2ad0906d1656c90a0a8822a44f65d94e0da6",
          "blockNumber": "0x7316c0",
          "transactionHash": "0x222cc6f86ba49fc25595118e6f3165454c943ef95e8e40606e032d7daf0be5d1",
          "transactionIndex": "0x64",
          "logIndex": "0x90",
          "removed": false
        }
      ],
      "logsBloom": "0x00000000000000000000000000000000000000000600000000000000000000000000000000000000000000000000000000000000000000004000000000000000000000000000004000000008000000000000000000000000000000000000000000000000020000000000000000000800020000000000000000000010000000000000000000000000000000000000000000000000000000000000010000000000000000000000000000000000000000004000000000000000000000000000000000000002000000800000000000000000000000000000080000000000000020000000000000000000000000000000000000000000000000000000000000000000",
      "type": "0x2",
      "transactionHash": "0x222cc6f86ba49fc25595118e6f3165454c943ef95e8e40606e032d7daf0be5d1",
      "transactionIndex": "0x64",
      "blockHash": "0x1f3604361219d8223a157583241a2ad0906d1656c90a0a8822a44f65d94e0da6",
      "blockNumber": "0x7316c0",
      "gasUsed": "0xf844",
      "effectiveGasPrice": "0x48669ed8",
      "from": "0xc77f7fed3b5cc8249adc428c5f44c9063b9734b4",
      "to": "0x8aafd3ede9adb0ff97c7aebce82a919afb1c8764",
      "contractAddress": null
    }
  ],
  "libraries": [],
  "pending": [],
  "returns": {},
  "timestamp": 1737493945,
  "chain": 11155111,
  "commit": "1d2fb70"
}