{
  "transactions": [
    {
      "hash": "0xdbab00318a3716b9788e50cf4100b429b66c404dfe489337335b5910917c3cb2",
      "transactionType": "CALL",
      "contractName": null,
      "contractAddress": "0x8aafd3ede9adb0ff97c7aebce82a919afb1c8764",
      "function": "sell(uint256)",
      "arguments": [
        "63686682"
      ],
      "transaction": {
        "from": "0xc77f7fed3b5cc8249adc428c5f44c9063b9734b4",
        "to": "0x8aafd3ede9adb0ff97c7aebce82a919afb1c8764",
        "gas": "0x15d88",
        "value": "0x0",
        "input": "0xe4849b320000000000000000000000000000000000000000000000000000000003cbc81a",
        "nonce": "0x142d",
        "chainId": "0xaa36a7"
      },
      "additionalContracts": [],
      "isFixedGasLimit": false
    }
  ],
  "receipts": [
    {
      "status": "0x1",
      "cumulativeGasUsed": "0x11fafa0",
      "logs": [
        {
          "address": "0x8aafd3ede9adb0ff97c7aebce82a919afb1c8764",
          "topics": [
            "0xddf252ad1be2c89b69c2b068fc378daa952ba7f163c4a11628f55a4df523b3ef",
            "0x000000000000000000000000c77f7fed3b5cc8249adc428c5f44c9063b9734b4",
            "0x0000000000000000000000000000000000000000000000000000000000000000"
          ],
          "data": "0x0000000000000000000000000000000000000000000000000000000003c401e5",
          "blockHash": "0x9e5576e40dcd49a71d550306c4dd5d0bd28619f2c4b7d6d439e3e6dc8409ef29",
          "blockNumber": "0x731b6b",
          "transactionHash": "0xdbab00318a3716b9788e50cf4100b429b66c404dfe489337335b5910917c3cb2",
          "transactionIndex": "0xa5",
          "logIndex": "0x65",
          "removed": false
        },
        {
          "address": "0x8aafd3ede9adb0ff97c7aebce82a919afb1c8764",
          "topics": [
            "0xddf252ad1be2c89b69c2b068fc378daa952ba7f163c4a11628f55a4df523b3ef",
            "0x000000000000000000000000c77f7fed3b5cc8249adc428c5f44c9063b9734b4",
            "0x000000000000000000000000c77f7fed3b5cc8249adc428c5f44c9063b9734b4"
          ],
          "data": "0x000000000000000000000000000000000000000000000000000000000007c635",
          "blockHash": "0x9e5576e40dcd49a71d550306c4dd5d0bd28619f2c4b7d6d439e3e6dc8409ef29",
          "blockNumber": "0x731b6b",
          "transactionHash": "0xdbab00318a3716b9788e50cf4100b429b66c404dfe489337335b5910917c3cb2",
          "transactionIndex": "0xa5",
          "logIndex": "0x66",
          "removed": false
        },
        {
          "address": "0x8aafd3ede9adb0ff97c7aebce82a919afb1c8764",
          "topics": [
            "0x4afcb4a87cdbd9974efdb92ee48bc8d7cd0ae4bf217004db3d080cbaee652ca7"
          ],
          "data": "0x00000000000000000000000000000000000000000000000000000000679045d4000000000000000000000000000000000000000000000000000e9fbd5731604e0000000000000000000000000000000000000000000000000000000000040008",
          "blockHash": "0x9e5576e40dcd49a71d550306c4dd5d0bd28619f2c4b7d6d439e3e6dc8409ef29",
          "blockNumber": "0x731b6b",
          "transactionHash": "0xdbab00318a3716b9788e50cf4100b429b66c404dfe489337335b5910917c3cb2",
          "transactionIndex": "0xa5",
          "logIndex": "0x67",
          "removed": false
        }
      ],
      "logsBloom": "0x00000000000000000000000000000000000000000600000000000000000000000000000000000000000000000000000000000000000000004000000000000000000000000000004000000008000000000000000000000000000000000000000000000000020000000000000000000800020000000000000000000010000000000000000000000000000000000000000000000000000000000000010000000000000000000000000000000000000000004000000000000000000000000000000000000002000000800000000000000000000000000000080000000000000020000000000000000000000000000000000000000000000000000000000000000000",
      "type": "0x2",
      "transactionHash": "0xdbab00318a3716b9788e50cf4100b429b66c404dfe489337335b5910917c3cb2",
      "transactionIndex": "0xa5",
      "blockHash": "0x9e5576e40dcd49a71d550306c4dd5d0bd28619f2c4b7d6d439e3e6dc8409ef29",
      "blockNumber": "0x731b6b",
      "gasUsed": "0xfd0f",
      "effectiveGasPrice": "0xf9c20c45",
      "from": "0xc77f7fed3b5cc8249adc428c5f44c9063b9734b4",
      "to": "0x8aafd3ede9adb0ff97c7aebce82a919afb1c8764",
      "contractAddress": null
    }
  ],
  "libraries": [],
  "pending": [],
  "returns": {},
  "timestamp": 1737508309,
  "chain": 11155111,
  "commit": "1d2fb70"
}