{
  "transactions": [
    {
      "hash": "0xe16891dc71ea2ddca490e70bd66a108f41b2f85bff06114a5fcbe8f92f9705ab",
      "transactionType": "CALL",
      "contractName": null,
      "contractAddress": "0x8aafd3ede9adb0ff97c7aebce82a919afb1c8764",
      "function": "sell(uint256)",
      "arguments": [
        "9363434938939302"
      ],
      "transaction": {
        "from": "0xc77f7fed3b5cc8249adc428c5f44c9063b9734b4",
        "to": "0x8aafd3ede9adb0ff97c7aebce82a919afb1c8764",
        "gas": "0x1724d",
        "value": "0x0",
        "input": "0xe4849b32000000000000000000000000000000000000000000000000002143fe9569b7a6",
        "nonce": "0x1765",
        "chainId": "0xaa36a7"
      },
      "additionalContracts": [],
      "isFixedGasLimit": false
    }
  ],
  "receipts": [
    {
      "status": "0x1",
      "cumulativeGasUsed": "0x9fb234",
      "logs": [
        {
          "address": "0x8aafd3ede9adb0ff97c7aebce82a919afb1c8764",
          "topics": [
            "0xddf252ad1be2c89b69c2b068fc378daa952ba7f163c4a11628f55a4df523b3ef",
            "0x000000000000000000000000c77f7fed3b5cc8249adc428c5f44c9063b9734b4",
            "0x0000000000000000000000000000000000000000000000000000000000000000"
          ],
          "data": "0x0000000000000000000000000000000000000000000000000020ffddd3b4a5cc",
          "blockHash": "0x033bd7869b0c300f15fe2d0c3a4fb017240702cb2fb8f3d041e8827972167613",
          "blockNumber": "0x731f3a",
          "transactionHash": "0xe16891dc71ea2ddca490e70bd66a108f41b2f85bff06114a5fcbe8f92f9705ab",
          "transactionIndex": "0x72",
          "logIndex": "0xa9",
          "removed": false
        },
        {
          "address": "0x8aafd3ede9adb0ff97c7aebce82a919afb1c8764",
          "topics": [
            "0xddf252ad1be2c89b69c2b068fc378daa952ba7f163c4a11628f55a4df523b3ef",
            "0x000000000000000000000000c77f7fed3b5cc8249adc428c5f44c9063b9734b4",
            "0x000000000000000000000000c77f7fed3b5cc8249adc428c5f44c9063b9734b4"
          ],
          "data": "0x00000000000000000000000000000000000000000000000000004420c1b511da",
          "blockHash": "0x033bd7869b0c300f15fe2d0c3a4fb017240702cb2fb8f3d041e8827972167613",
          "blockNumber": "0x731f3a",
          "transactionHash": "0xe16891dc71ea2ddca490e70bd66a108f41b2f85bff06114a5fcbe8f92f9705ab",
          "transactionIndex": "0x72",
          "logIndex": "0xaa",
          "removed": false
        },
        {
          "address": "0x8aafd3ede9adb0ff97c7aebce82a919afb1c8764",
          "topics": [
            "0x4afcb4a87cdbd9974efdb92ee48bc8d7cd0ae4bf217004db3d080cbaee652ca7"
          ],
          "data": "0x00000000000000000000000000000000000000000000000000000000679073a0000000000000000000000000000000000000000000000000001837f956266c7000000000000000000000000000000000000000000000000000003a0d94170232",
          "blockHash": "0x033bd7869b0c300f15fe2d0c3a4fb017240702cb2fb8f3d041e8827972167613",
          "blockNumber": "0x731f3a",
          "transactionHash": "0xe16891dc71ea2ddca490e70bd66a108f41b2f85bff06114a5fcbe8f92f9705ab",
          "transactionIndex": "0x72",
          "logIndex": "0xab",
          "removed": false
        }
      ],
      "logsBloom": "0x00000000000000000000000000000000000000000600000000000000000000000000000000000000000000000000000000000000000000004000000000000000000000000000004000000008000000000000000000000000000000000000000000000000020000000000000000000800020000000000000000000010000000000000000000000000000000000000000000000000000000000000010000000000000000000000000000000000000000004000000000000000000000000000000000000002000000800000000000000000000000000000080000000000000020000000000000000000000000000000000000000000000000000000000000000000",
      "type": "0x2",
      "transactionHash": "0xe16891dc71ea2ddca490e70bd66a108f41b2f85bff06114a5fcbe8f92f9705ab",
      "transactionIndex": "0x72",
      "blockHash": "0x033bd7869b0c300f15fe2d0c3a4fb017240702cb2fb8f3d041e8827972167613",
      "blockNumber": "0x731f3a",
      "gasUsed": "0xfd33",
      "effectiveGasPrice": "0x35fe8830",
      "from": "0xc77f7fed3b5cc8249adc428c5f44c9063b9734b4",
      "to": "0x8aafd3ede9adb0ff97c7aebce82a919afb1c8764",
      "contractAddress": null
    }
  ],
  "libraries": [],
  "pending": [],
  "returns": {},
  "timestamp": 1737520033,
  "chain": 11155111,
  "commit": "1d2fb70"
}