{
  "transactions": [
    {
      "hash": "0x0adc4e3f10b672f550fb75fec1a343af053bee018e0e75a5e90d21fa895e1917",
      "transactionType": "CALL",
      "contractName": null,
      "contractAddress": "0x8aafd3ede9adb0ff97c7aebce82a919afb1c8764",
      "function": "sell(uint256)",
      "arguments": [
        "312278"
      ],
      "transaction": {
        "from": "0xc77f7fed3b5cc8249adc428c5f44c9063b9734b4",
        "to": "0x8aafd3ede9adb0ff97c7aebce82a919afb1c8764",
        "gas": "0x16208",
        "value": "0x0",
        "input": "0xe4849b32000000000000000000000000000000000000000000000000000000000004c3d6",
        "nonce": "0x1746",
        "chainId": "0xaa36a7"
      },
      "additionalContracts": [],
      "isFixedGasLimit": false
    }
  ],
  "receipts": [
    {
      "status": "0x1",
      "cumulativeGasUsed": "0x679515",
      "logs": [
        {
          "address": "0x8aafd3ede9adb0ff97c7aebce82a919afb1c8764",
          "topics": [
            "0xddf252ad1be2c89b69c2b068fc378daa952ba7f163c4a11628f55a4df523b3ef",
            "0x000000000000000000000000c77f7fed3b5cc8249adc428c5f44c9063b9734b4",
            "0x0000000000000000000000000000000000000000000000000000000000000000"
          ],
          "data": "0x000000000000000000000000000000000000000000000000000000000004ba14",
          "blockHash": "0x82d5d1beef06a122937a5cd5904a7858e0ab22fcf5479d6ad9eb3803b9dad8bd",
          "blockNumber": "0x731f15",
          "transactionHash": "0x0adc4e3f10b672f550fb75fec1a343af053bee018e0e75a5e90d21fa895e1917",
          "transactionIndex": "0x59",
          "logIndex": "0x72",
          "removed": false
        },
        {
          "address": "0x8aafd3ede9adb0ff97c7aebce82a919afb1c8764",
          "topics": [
            "0xddf252ad1be2c89b69c2b068fc378daa952ba7f163c4a11628f55a4df523b3ef",
            "0x000000000000000000000000c77f7fed3b5cc8249adc428c5f44c9063b9734b4",
            "0x000000000000000000000000c77f7fed3b5cc8249adc428c5f44c9063b9734b4"
          ],
          "data": "0x00000000000000000000000000000000000000000000000000000000000009c2",
          "blockHash": "0x82d5d1beef06a122937a5cd5904a7858e0ab22fcf5479d6ad9eb3803b9dad8bd",
          "blockNumber": "0x731f15",
          "transactionHash": "0x0adc4e3f10b672f550fb75fec1a343af053bee018e0e75a5e90d21fa895e1917",
          "transactionIndex": "0x59",
          "logIndex": "0x73",
          "removed": false
        },
        {
          "address": "0x8aafd3ede9adb0ff97c7aebce82a919afb1c8764",
          "topics": [
            "0x4afcb4a87cdbd9974efdb92ee48bc8d7cd0ae4bf217004db3d080cbaee652ca7"
          ],
          "data": "0x00000000000000000000000000000000000000000000000000000000679071e40000000000000000000000000000000000000000000000000017cc1067b131ab000000000000000000000000000000000000000000000000000000000000082b",
          "blockHash": "0x82d5d1beef06a122937a5cd5904a7858e0ab22fcf5479d6ad9eb3803b9dad8bd",
          "blockNumber": "0x731f15",
          "transactionHash": "0x0adc4e3f10b672f550fb75fec1a343af053bee018e0e75a5e90d21fa895e1917",
          "transactionIndex": "0x59",
          "logIndex": "0x74",
          "removed": false
        }
      ],
      "logsBloom": "0x00000000000000000000000000000000000000000600000000000000000000000000000000000000000000000000000000000000000000004000000000000000000000000000004000000008000000000000000000000000000000000000000000000000020000000000000000000800020000000000000000000010000000000000000000000000000000000000000000000000000000000000010000000000000000000000000000000000000000004000000000000000000000000000000000000002000000800000000000000000000000000000080000000000000020000000000000000000000000000000000000000000000000000000000000000000",
      "type": "0x2",
      "transactionHash": "0x0adc4e3f10b672f550fb75fec1a343af053bee018e0e75a5e90d21fa895e1917",
      "transactionIndex": "0x59",
      "blockHash": "0x82d5d1beef06a122937a5cd5904a7858e0ab22fcf5479d6ad9eb3803b9dad8bd",
      "blockNumber": "0x731f15",
      "gasUsed": "0xf213",
      "effectiveGasPrice": "0x5eca2c30",
      "from": "0xc77f7fed3b5cc8249adc428c5f44c9063b9734b4",
      "to": "0x8aafd3ede9adb0ff97c7aebce82a919afb1c8764",
      "contractAddress": null
    }
  ],
  "libraries": [],
  "pending": [],
  "returns": {},
  "timestamp": 1737519588,
  "chain": 11155111,
  "commit": "1d2fb70"
}