{
  "transactions": [
    {
      "hash": "0x8fa0dbf151dc5bd6db11cfa27d960d29f665c730fe6f02c38c6cf7e98659e150",
      "transactionType": "CALL",
      "contractName": null,
      "contractAddress": "0x8aafd3ede9adb0ff97c7aebce82a919afb1c8764",
      "function": "sell(uint256)",
      "arguments": [
        "3058610229552"
      ],
      "transaction": {
        "from": "0xc77f7fed3b5cc8249adc428c5f44c9063b9734b4",
        "to": "0x8aafd3ede9adb0ff97c7aebce82a919afb1c8764",
        "gas": "0x15daa",
        "value": "0x0",
        "input": "0xe4849b32000000000000000000000000000000000000000000000000000002c823605130",
        "nonce": "0xedc",
        "chainId": "0xaa36a7"
      },
      "additionalContracts": [],
      "isFixedGasLimit": false
    }
  ],
  "receipts": [
    {
      "status": "0x1",
      "cumulativeGasUsed": "0xf4ffc4",
      "logs": [
        {
          "address": "0x8aafd3ede9adb0ff97c7aebce82a919afb1c8764",
          "topics": [
            "0xddf252ad1be2c89b69c2b068fc378daa952ba7f163c4a11628f55a4df523b3ef",
            "0x000000000000000000000000c77f7fed3b5cc8249adc428c5f44c9063b9734b4",
            "0x0000000000000000000000000000000000000000000000000000000000000000"
          ],
          "data": "0x000000000000000000000000000000000000000000000000000002c270eacf84",
          "blockHash": "0x929f289cb8dcde69eb08f2d6ce24e6555e54e59f435e801ad5ea1aa09b2dd588",
          "blockNumber": "0x731451",
          "transactionHash": "0x8fa0dbf151dc5bd6db11cfa27d960d29f665c730fe6f02c38c6cf7e98659e150",
          "transactionIndex": "0x99",
          "logIndex": "0x10a",
          "removed": false
        },
        {
          "address": "0x8aafd3ede9adb0ff97c7aebce82a919afb1c8764",
          "topics": [
            "0xddf252ad1be2c89b69c2b068fc378daa952ba7f163c4a11628f55a4df523b3ef",
            "0x000000000000000000000000c77f7fed3b5cc8249adc428c5f44c9063b9734b4",
            "0x000000000000000000000000c77f7fed3b5cc8249adc428c5f44c9063b9734b4"
          ],
          "data": "0x00000000000000000000000000000000000000000000000000000005b27581ac",
          "blockHash": "0x929f289cb8dcde69eb08f2d6ce24e6555e54e59f435e801ad5ea1aa09b2dd588",
          "blockNumber": "0x731451",
          "transactionHash": "0x8fa0dbf151dc5bd6db11cfa27d960d29f665c730fe6f02c38c6cf7e98659e150",
          "transactionIndex": "0x99",
          "logIndex": "0x10b",
          "removed": false
        },
        {
          "address": "0x8aafd3ede9adb0ff97c7aebce82a919afb1c8764",
          "topics": [
            "0x4afcb4a87cdbd9974efdb92ee48bc8d7cd0ae4bf217004db3d080cbaee652ca7"
          ],
          "data": "0x00000000000000000000000000000000000000000000000000000000678ff0780000000000000000000000000000000000000000000000000004b9dca4822cff00000000000000000000000000000000000000000000000000000000f2840508",
          "blockHash": "0x929f289cb8dcde69eb08f2d6ce24e6555e54e59f435e801ad5ea1aa09b2dd588",
          "blockNumber": "0x731451",
          "transactionHash": "0x8fa0dbf151dc5bd6db11cfa27d960d29f665c730fe6f02c38c6cf7e98659e150",
          "transactionIndex": "0x99",
          "logIndex": "0x10c",
          "removed": false
        }
      ],
      "logsBloom": "0x00000000000000000000000000000000000000000600000000000000000000000000000000000000000000000000000000000000000000004000000000000000000000000000004000000008000000000000000000000000000000000000000000000000020000000000000000000800020000000000000000000010000000000000000000000000000000000000000000000000000000000000010000000000000000000000000000000000000000004000000000000000000000000000000000000002000000800000000000000000000000000000080000000000000020000000000000000000000000000000000000000000000000000000000000000000",
      "type": "0x2",
      "transactionHash": "0x8fa0dbf151dc5bd6db11cfa27d960d29f665c730fe6f02c38c6cf7e98659e150",
      "transactionIndex": "0x99",
      "blockHash": "0x929f289cb8dcde69eb08f2d6ce24e6555e54e59f435e801ad5ea1aa09b2dd588",
      "blockNumber": "0x731451",
      "gasUsed": "0xfd27",
      "effectiveGasPrice": "0x95127ab4",
      "from": "0xc77f7fed3b5cc8249adc428c5f44c9063b9734b4",
      "to": "0x8aafd3ede9adb0ff97c7aebce82a919afb1c8764",
      "contractAddress": null
    }
  ],
  "libraries": [],
  "pending": [],
  "returns": {},
  "timestamp": 1737486458,
  "chain": 11155111,
  "commit": "51a374b"
}