{
  "transactions": [
    {
      "hash": "0xfb163f7c363285ad508c528643d47b09c9039cb45324aa29afaf91fdda79085d",
      "transactionType": "CALL",
      "contractName": null,
      "contractAddress": "0xbf4a322f1496e5c3d34a9bcdb4c60567b38c7de2",
      "function": "sell(uint256)",
      "arguments": [
        "983516179127435040135"
      ],
      "transaction": {
        "from": "0xc77f7fed3b5cc8249adc428c5f44c9063b9734b4",
        "to": "0xbf4a322f1496e5c3d34a9bcdb4c60567b38c7de2",
        "gas": "0x16fea",
        "value": "0x0",
        "input": "0xe4849b32000000000000000000000000000000000000000000000035510762063c389587",
        "nonce": "0xb13",
        "chainId": "0xaa36a7"
      },
      "additionalContracts": [],
      "isFixedGasLimit": false
    }
  ],
  "receipts": [
    {
      "status": "0x1",
      "cumulativeGasUsed": "0x1cde754",
      "logs": [
        {
          "address": "0xbf4a322f1496e5c3d34a9bcdb4c60567b38c7de2",
          "topics": [
            "0xddf252ad1be2c89b69c2b068fc378daa952ba7f163c4a11628f55a4df523b3ef",
            "0x000000000000000000000000c77f7fed3b5cc8249adc428c5f44c9063b9734b4",
            "0x0000000000000000000000000000000000000000000000000000000000000000"
          ],
          "data": "0x000000000000000000000000000000000000000000000035510762063c389587",
          "blockHash": "0x2759a4ed4081904891f5abe0738c81e55b4fbd36c9645cf9d4ff35f2a339dcef",
          "blockNumber": "0x725b0b",
          "transactionHash": "0xfb163f7c363285ad508c528643d47b09c9039cb45324aa29afaf91fdda79085d",
          "transactionIndex": "0xc4",
          "logIndex": "0x169",
          "removed": false
        },
        {
          "address": "0xbf4a322f1496e5c3d34a9bcdb4c60567b38c7de2",
          "topics": [
            "0x4afcb4a87cdbd9974efdb92ee48bc8d7cd0ae4bf217004db3d080cbaee652ca7"
          ],
          "data": "0x00000000000000000000000000000000000000000000000000000000678736e00000000000000000000000000000000000000000000000000003964af395cf050000000000000000000000000000000000000000000000000dc7e3ea3dd367f7",
          "blockHash": "0x2759a4ed4081904891f5abe0738c81e55b4fbd36c9645cf9d4ff35f2a339dcef",
          "blockNumber": "0x725b0b",
          "transactionHash": "0xfb163f7c363285ad508c528643d47b09c9039cb45324aa29afaf91fdda79085d",
          "transactionIndex": "0xc4",
          "logIndex": "0x16a",
          "removed": false
        }
      ],
      "logsBloom": "0x00000000000000000000000000000000000000000000000000000000000000000000000000000000000000000000000000000000000000004000000000000000000000000000000000000008000000000000001000000000000000000000000000000000020000000000000000000800020000000000000000000010000000000000000000000000000000000000000000000000000008000000010000000000000000000000000000000000000000004000000000000000000000000000000000000002000000800000000000001000000000000000080000000000000020000000000000000000000000000000000000000000000000000000000000000000",
      "type": "0x2",
      "transactionHash": "0xfb163f7c363285ad508c528643d47b09c9039cb45324aa29afaf91fdda79085d",
      "transactionIndex": "0xc4",
      "blockHash": "0x2759a4ed4081904891f5abe0738c81e55b4fbd36c9645cf9d4ff35f2a339dcef",
      "blockNumber": "0x725b0b",
      "gasUsed": "0xfb91",
      "effectiveGasPrice": "0x802bed20",
      "from": "0xc77f7fed3b5cc8249adc428c5f44c9063b9734b4",
      "to": "0xbf4a322f1496e5c3d34a9bcdb4c60567b38c7de2",
      "contractAddress": null
    }
  ],
  "libraries": [],
  "pending": [],
  "returns": {},
  "timestamp": 1736914657,
  "chain": 11155111,
  "commit": "51a374b"
}