{
  "transactions": [
    {
      "hash": "0x6d54e92347807d0279848adf396b31cf5dbc58271d20bef4bdfe656cc5f4188a",
      "transactionType": "CALL",
      "contractName": null,
      "contractAddress": "0x270e88f8683660553e8ba4eb2ad7c91a1710d769",
      "function": "sell(uint256)",
      "arguments": [
        "755339271220483083255"
      ],
      "transaction": {
        "from": "0xc77f7fed3b5cc8249adc428c5f44c9063b9734b4",
        "to": "0x270e88f8683660553e8ba4eb2ad7c91a1710d769",
        "gas": "0x16fec",
        "value": "0x0",
        "input": "0xe4849b32000000000000000000000000000000000000000000000028f27029374f544bf7",
        "nonce": "0x692",
        "chainId": "0xaa36a7"
      },
      "additionalContracts": [],
      "isFixedGasLimit": false
    }
  ],
  "receipts": [
    {
      "status": "0x1",
      "cumulativeGasUsed": "0x75cc3c",
      "logs": [
        {
          "address": "0x270e88f8683660553e8ba4eb2ad7c91a1710d769",
          "topics": [
            "0xddf252ad1be2c89b69c2b068fc378daa952ba7f163c4a11628f55a4df523b3ef",
            "0x000000000000000000000000c77f7fed3b5cc8249adc428c5f44c9063b9734b4",
            "0x0000000000000000000000000000000000000000000000000000000000000000"
          ],
          "data": "0x000000000000000000000000000000000000000000000028f27029374f544bf7",
          "blockHash": "0xcfe6f1ab7806f9442011e9a5f7b01eceed10dc878a441796fab41a9f7ebe265e",
          "blockNumber": "0x725396",
          "transactionHash": "0x6d54e92347807d0279848adf396b31cf5dbc58271d20bef4bdfe656cc5f4188a",
          "transactionIndex": "0x46",
          "logIndex": "0x7b",
          "removed": false
        },
        {
          "address": "0x270e88f8683660553e8ba4eb2ad7c91a1710d769",
          "topics": [
            "0x4afcb4a87cdbd9974efdb92ee48bc8d7cd0ae4bf217004db3d080cbaee652ca7"
          ],
          "data": "0x000000000000000000000000000000000000000000000000000000006786dd100000000000000000000000000000000000000000000000000004abf4a111f20f0000000000000000000000000000000000000000000000000dc82a1646985475",
          "blockHash": "0xcfe6f1ab7806f9442011e9a5f7b01eceed10dc878a441796fab41a9f7ebe265e",
          "blockNumber": "0x725396",
          "transactionHash": "0x6d54e92347807d0279848adf396b31cf5dbc58271d20bef4bdfe656cc5f4188a",
          "transactionIndex": "0x46",
          "logIndex": "0x7c",
          "removed": false
        }
      ],
      "logsBloom": "0x00000000000000000000000000000000000000000000000000000000000000000000000000000000000000000000000020000000000000004000000000000000000000000000000000000008000000000000000000000000000000000000000000000000020000000000000000000800020000000000000000000010000000000000000000010000000000000000000000000000000000000000010000000000000000000000000000000000000000004000000000000000000000000000000000000002000000800000000000000000000000000000080000008000000020000000000000000000000000000000000000000000000000000000000000000000",
      "type": "0x2",
      "transactionHash": "0x6d54e92347807d0279848adf396b31cf5dbc58271d20bef4bdfe656cc5f4188a",
      "transactionIndex": "0x46",
      "blockHash": "0xcfe6f1ab7806f9442011e9a5f7b01eceed10dc878a441796fab41a9f7ebe265e",
      "blockNumber": "0x725396",
      "gasUsed": "0xfb93",
      "effectiveGasPrice": "0x1ce74c726",
      "from": "0xc77f7fed3b5cc8249adc428c5f44c9063b9734b4",
      "to": "0x270e88f8683660553e8ba4eb2ad7c91a1710d769",
      "contractAddress": null
    }
  ],
  "libraries": [],
  "pending": [],
  "returns": {},
  "timestamp": 1736891664,
  "chain": 11155111,
  "commit": "51a374b"
}