{
  "transactions": [
    {
      "hash": "0xc457cfbeba25e5ab07c1a3ca1b1bb3cd71325186152635dcc3c449aea4341629",
      "transactionType": "CALL",
      "contractName": null,
      "contractAddress": "0x8aafd3ede9adb0ff97c7aebce82a919afb1c8764",
      "function": "sell(uint256)",
      "arguments": [
        "941698431584"
      ],
      "transaction": {
        "from": "0xc77f7fed3b5cc8249adc428c5f44c9063b9734b4",
        "to": "0x8aafd3ede9adb0ff97c7aebce82a919afb1c8764",
        "gas": "0x1722a",
        "value": "0x0",
        "input": "0xe4849b32000000000000000000000000000000000000000000000000000000db4199ba60",
        "nonce": "0x1473",
        "chainId": "0xaa36a7"
      },
      "additionalContracts": [],
      "isFixedGasLimit": false
    }
  ],
  "receipts": [
    {
      "status": "0x1",
      "cumulativeGasUsed": "0x69888b",
      "logs": [
        {
          "address": "0x8aafd3ede9adb0ff97c7aebce82a919afb1c8764",
          "topics": [
            "0xddf252ad1be2c89b69c2b068fc378daa952ba7f163c4a11628f55a4df523b3ef",
            "0x000000000000000000000000c77f7fed3b5cc8249adc428c5f44c9063b9734b4",
            "0x0000000000000000000000000000000000000000000000000000000000000000"
          ],
          "data": "0x000000000000000000000000000000000000000000000000000000d980904e64",
          "blockHash": "0x18706febded7b29e61a1d67f403614f1d2b4b032d7ed8447360ac0647f9c68a4",
          "blockNumber": "0x731bc0",
          "transactionHash": "0xc457cfbeba25e5ab07c1a3ca1b1bb3cd71325186152635dcc3c449aea4341629",
          "transactionIndex": "0x38",
          "logIndex": "0x43",
          "removed": false
        },
        {
          "address": "0x8aafd3ede9adb0ff97c7aebce82a919afb1c8764",
          "topics": [
            "0xddf252ad1be2c89b69c2b068fc378daa952ba7f163c4a11628f55a4df523b3ef",
            "0x000000000000000000000000c77f7fed3b5cc8249adc428c5f44c9063b9734b4",
            "0x000000000000000000000000c77f7fed3b5cc8249adc428c5f44c9063b9734b4"
          ],
          "data": "0x00000000000000000000000000000000000000000000000000000001c1096bfc",
          "blockHash": "0x18706febded7b29e61a1d67f403614f1d2b4b032d7ed8447360ac0647f9c68a4",
          "blockNumber": "0x731bc0",
          "transactionHash": "0xc457cfbeba25e5ab07c1a3ca1b1bb3cd71325186152635dcc3c449aea4341629",
          "transactionIndex": "0x38",
          "logIndex": "0x44",
          "removed": false
        },
        {
          "address": "0x8aafd3ede9adb0ff97c7aebce82a919afb1c8764",
          "topics": [
            "0x4afcb4a87cdbd9974efdb92ee48bc8d7cd0ae4bf217004db3d080cbaee652ca7"
          ],
          "data": "0x00000000000000000000000000000000000000000000000000000000679049dc000000000000000000000000000000000000000000000000000f72a582099de600000000000000000000000000000000000000000000000000000000f40fc4cb",
          "blockHash": "0x18706febded7b29e61a1d67f403614f1d2b4b032d7ed8447360ac0647f9c68a4",
          "blockNumber": "0x731bc0",
          "transactionHash": "0xc457cfbeba25e5ab07c1a3ca1b1bb3cd71325186152635dcc3c449aea4341629",
          "transactionIndex": "0x38",
          "logIndex": "0x45",
          "removed": false
        }
      ],
      "logsBloom": "0x00000000000000000000000000000000000000000600000000000000000000000000000000000000000000000000000000000000000000004000000000000000000000000000004000000008000000000000000000000000000000000000000000000000020000000000000000000800020000000000000000000010000000000000000000000000000000000000000000000000000000000000010000000000000000000000000000000000000000004000000000000000000000000000000000000002000000800000000000000000000000000000080000000000000020000000000000000000000000000000000000000000000000000000000000000000",
      "type": "0x2",
      "transactionHash": "0xc457cfbeba25e5ab07c1a3ca1b1bb3cd71325186152635dcc3c449aea4341629",
      "transactionIndex": "0x38",
      "blockHash": "0x18706febded7b29e61a1d67f403614f1d2b4b032d7ed8447360ac0647f9c68a4",
      "blockNumber": "0x731bc0",
      "gasUsed": "0xfd1b",
      "effectiveGasPrice": "0xfbf47165",
      "from": "0xc77f7fed3b5cc8249adc428c5f44c9063b9734b4",
      "to": "0x8aafd3ede9adb0ff97c7aebce82a919afb1c8764",
      "contractAddress": null
    }
  ],
  "libraries": [],
  "pending": [],
  "returns": {},
  "timestamp": 1737509342,
  "chain": 11155111,
  "commit": "1d2fb70"
}