{
  "transactions": [
    {
      "hash": "0x88de26e23fd8b11803f19df92ca83a11ad5ec554ff5ec563f23274d1a60ec3fb",
      "transactionType": "CALL",
      "contractName": null,
      "contractAddress": "0x8aafd3ede9adb0ff97c7aebce82a919afb1c8764",
      "function": "sell(uint256)",
      "arguments": [
        "45971678057601677"
      ],
      "transaction": {
        "from": "0xc77f7fed3b5cc8249adc428c5f44c9063b9734b4",
        "to": "0x8aafd3ede9adb0ff97c7aebce82a919afb1c8764",
        "gas": "0x1724d",
        "value": "0x0",
        "input": "0xe4849b3200000000000000000000000000000000000000000000000000a352ff645a1a8d",
        "nonce": "0x101b",
        "chainId": "0xaa36a7"
      },
      "additionalContracts": [],
      "isFixedGasLimit": false
    }
  ],
  "receipts": [
    {
      "status": "0x1",
      "cumulativeGasUsed": "0xbe4698",
      "logs": [
        {
          "address": "0x8aafd3ede9adb0ff97c7aebce82a919afb1c8764",
          "topics": [
            "0xddf252ad1be2c89b69c2b068fc378daa952ba7f163c4a11628f55a4df523b3ef",
            "0x000000000000000000000000c77f7fed3b5cc8249adc428c5f44c9063b9734b4",
            "0x0000000000000000000000000000000000000000000000000000000000000000"
          ],
          "data": "0x00000000000000000000000000000000000000000000000000a2048278077680",
          "blockHash": "0x543da048d8749c05915e90867c3980d8aa95b01f9fc06b1af5cfe28d28558a09",
          "blockNumber": "0x731693",
          "transactionHash": "0x88de26e23fd8b11803f19df92ca83a11ad5ec554ff5ec563f23274d1a60ec3fb",
          "transactionIndex": "0x6e",
          "logIndex": "0x81",
          "removed": false
        },
        {
          "address": "0x8aafd3ede9adb0ff97c7aebce82a919afb1c8764",
          "topics": [
            "0xddf252ad1be2c89b69c2b068fc378daa952ba7f163c4a11628f55a4df523b3ef",
            "0x000000000000000000000000c77f7fed3b5cc8249adc428c5f44c9063b9734b4",
            "0x000000000000000000000000c77f7fed3b5cc8249adc428c5f44c9063b9734b4"
          ],
          "data": "0x00000000000000000000000000000000000000000000000000014e7cec52a40d",
          "blockHash": "0x543da048d8749c05915e90867c3980d8aa95b01f9fc06b1af5cfe28d28558a09",
          "blockNumber": "0x731693",
          "transactionHash": "0x88de26e23fd8b11803f19df92ca83a11ad5ec554ff5ec563f23274d1a60ec3fb",
          "transactionIndex": "0x6e",
          "logIndex": "0x82",
          "removed": false
        },
        {
          "address": "0x8aafd3ede9adb0ff97c7aebce82a919afb1c8764",
          "topics": [
            "0x4afcb4a87cdbd9974efdb92ee48bc8d7cd0ae4bf217004db3d080cbaee652ca7"
          ],
          "data": "0x0000000000000000000000000000000000000000000000000000000067900b900000000000000000000000000000000000000000000000000004eac19639cbf2000000000000000000000000000000000000000000000000000039ddfc57373d",
          "blockHash": "0x543da048d8749c05915e90867c3980d8aa95b01f9fc06b1af5cfe28d28558a09",
          "blockNumber": "0x731693",
          "transactionHash": "0x88de26e23fd8b11803f19df92ca83a11ad5ec554ff5ec563f23274d1a60ec3fb",
          "transactionIndex": "0x6e",
          "logIndex": "0x83",
          "removed": false
        }
      ],
      "logsBloom": "0x00000000000000000000000000000000000000000600000000000000000000000000000000000000000000000000000000000000000000004000000000000000000000000000004000000008000000000000000000000000000000000000000000000000020000000000000000000800020000000000000000000010000000000000000000000000000000000000000000000000000000000000010000000000000000000000000000000000000000004000000000000000000000000000000000000002000000800000000000000000000000000000080000000000000020000000000000000000000000000000000000000000000000000000000000000000",
      "type": "0x2",
      "transactionHash": "0x88de26e23fd8b11803f19df92ca83a11ad5ec554ff5ec563f23274d1a60ec3fb",
      "transactionIndex": "0x6e",
      "blockHash": "0x543da048d8749c05915e90867c3980d8aa95b01f9fc06b1af5cfe28d28558a09",
      "blockNumber": "0x731693",
      "gasUsed": "0xfd33",
      "effectiveGasPrice": "0x412a7d77",
      "from": "0xc77f7fed3b5cc8249adc428c5f44c9063b9734b4",
      "to": "0x8aafd3ede9adb0ff97c7aebce82a919afb1c8764",
      "contractAddress": null
    }
  ],
  "libraries": [],
  "pending": [],
  "returns": {},
  "timestamp": 1737493392,
  "chain": 11155111,
  "commit": "1d2fb70"
}