{
  "transactions": [
    {
      "hash": "0x388b03d07e3d3d6c78dff334d2503e1b0d6bb7b58bd638a17c946773f00dd1fa",
      "transactionType": "CALL",
      "contractName": null,
      "contractAddress": "0x8aafd3ede9adb0ff97c7aebce82a919afb1c8764",
      "function": "sell(uint256)",
      "arguments": [
        "6599007228"
      ],
      "transaction": {
        "from": "0xc77f7fed3b5cc8249adc428c5f44c9063b9734b4",
        "to": "0x8aafd3ede9adb0ff97c7aebce82a919afb1c8764",
        "gas": "0x1722a",
        "value": "0x0",
        "input": "0xe4849b32000000000000000000000000000000000000000000000000000000018954dbfc",
        "nonce": "0x1531",
        "chainId": "0xaa36a7"
      },
      "additionalContracts": [],
      "isFixedGasLimit": false
    }
  ],
  "receipts": [
    {
      "status": "0x1",
      "cumulativeGasUsed": "0xa10196",
      "logs": [
        {
          "address": "0x8aafd3ede9adb0ff97c7aebce82a919afb1c8764",
          "topics": [
            "0xddf252ad1be2c89b69c2b068fc378daa952ba7f163c4a11628f55a4df523b3ef",
            "0x000000000000000000000000c77f7fed3b5cc8249adc428c5f44c9063b9734b4",
            "0x0000000000000000000000000000000000000000000000000000000000000000"
          ],
          "data": "0x00000000000000000000000000000000000000000000000000000001862f5103",
          "blockHash": "0x7d36e77c9c4a75598dc167f8f13ae975576c664b3fd455f66ad1d299628252d9",
          "blockNumber": "0x731c94",
          "transactionHash": "0x388b03d07e3d3d6c78dff334d2503e1b0d6bb7b58bd638a17c946773f00dd1fa",
          "transactionIndex": "0x5a",
          "logIndex": "0xae",
          "removed": false
        },
        {
          "address": "0x8aafd3ede9adb0ff97c7aebce82a919afb1c8764",
          "topics": [
            "0xddf252ad1be2c89b69c2b068fc378daa952ba7f163c4a11628f55a4df523b3ef",
            "0x000000000000000000000000c77f7fed3b5cc8249adc428c5f44c9063b9734b4",
            "0x000000000000000000000000c77f7fed3b5cc8249adc428c5f44c9063b9734b4"
          ],
          "data": "0x0000000000000000000000000000000000000000000000000000000003258af9",
          "blockHash": "0x7d36e77c9c4a75598dc167f8f13ae975576c664b3fd455f66ad1d299628252d9",
          "blockNumber": "0x731c94",
          "transactionHash": "0x388b03d07e3d3d6c78dff334d2503e1b0d6bb7b58bd638a17c946773f00dd1fa",
          "transactionIndex": "0x5a",
          "logIndex": "0xaf",
          "removed": false
        },
        {
          "address": "0x8aafd3ede9adb0ff97c7aebce82a919afb1c8764",
          "topics": [
            "0x4afcb4a87cdbd9974efdb92ee48bc8d7cd0ae4bf217004db3d080cbaee652ca7"
          ],
          "data": "0x00000000000000000000000000000000000000000000000000000000679053cc00000000000000000000000000000000000000000000000000119f2bc1a6af7f0000000000000000000000000000000000000000000000000000000001f371f4",
          "blockHash": "0x7d36e77c9c4a75598dc167f8f13ae975576c664b3fd455f66ad1d299628252d9",
          "blockNumber": "0x731c94",
          "transactionHash": "0x388b03d07e3d3d6c78dff334d2503e1b0d6bb7b58bd638a17c946773f00dd1fa",
          "transactionIndex": "0x5a",
          "logIndex": "0xb0",
          "removed": false
        }
      ],
      "logsBloom": "0x00000000000000000000000000000000000000000600000000000000000000000000000000000000000000000000000000000000000000004000000000000000000000000000004000000008000000000000000000000000000000000000000000000000020000000000000000000800020000000000000000000010000000000000000000000000000000000000000000000000000000000000010000000000000000000000000000000000000000004000000000000000000000000000000000000002000000800000000000000000000000000000080000000000000020000000000000000000000000000000000000000000000000000000000000000000",
      "type": "0x2",
      "transactionHash": "0x388b03d07e3d3d6c78dff334d2503e1b0d6bb7b58bd638a17c946773f00dd1fa",
      "transactionIndex": "0x5a",
      "blockHash": "0x7d36e77c9c4a75598dc167f8f13ae975576c664b3fd455f66ad1d299628252d9",
      "blockNumber": "0x731c94",
      "gasUsed": "0xfd1b",
      "effectiveGasPrice": "0xfe3442d2",
      "from": "0xc77f7fed3b5cc8249adc428c5f44c9063b9734b4",
      "to": "0x8aafd3ede9adb0ff97c7aebce82a919afb1c8764",
      "contractAddress": null
    }
  ],
  "libraries": [],
  "pending": [],
  "returns": {},
  "timestamp": 1737511885,
  "chain": 11155111,
  "commit": "1d2fb70"
}