{
  "transactions": [
    {
      "hash": "0x88f4dda98c26368a56d2060b68f2260cb732d8468f5378506aca752f8b18dce2",
      "transactionType": "CALL",
      "contractName": null,
      "contractAddress": "0x8aafd3ede9adb0ff97c7aebce82a919afb1c8764",
      "function": "sell(uint256)",
      "arguments": [
        "3035890122242"
      ],
      "transaction": {
        "from": "0xc77f7fed3b5cc8249adc428c5f44c9063b9734b4",
        "to": "0x8aafd3ede9adb0ff97c7aebce82a919afb1c8764",
        "gas": "0x15daa",
        "value": "0x0",
        "input": "0xe4849b32000000000000000000000000000000000000000000000000000002c2d926fe02",
        "nonce": "0xf93",
        "chainId": "0xaa36a7"
      },
      "additionalContracts": [],
      "isFixedGasLimit": false
    }
  ],
  "receipts": [
    {
      "status": "0x1",
      "cumulativeGasUsed": "0xd2ba8a",
      "logs": [
        {
          "address": "0x8aafd3ede9adb0ff97c7aebce82a919afb1c8764",
          "topics": [
            "0xddf252ad1be2c89b69c2b068fc378daa952ba7f163c4a11628f55a4df523b3ef",
            "0x000000000000000000000000c77f7fed3b5cc8249adc428c5f44c9063b9734b4",
            "0x0000000000000000000000000000000000000000000000000000000000000000"
          ],
          "data": "0x000000000000000000000000000000000000000000000000000002bd3186efb1",
          "blockHash": "0xf8b030468a4fd224fc4198b971dc2ec46bcbc037eb6285f2385a65887e72b9b7",
          "blockNumber": "0x7315f8",
          "transactionHash": "0x88f4dda98c26368a56d2060b68f2260cb732d8468f5378506aca752f8b18dce2",
          "transactionIndex": "0x8d",
          "logIndex": "0xf0",
          "removed": false
        },
        {
          "address": "0x8aafd3ede9adb0ff97c7aebce82a919afb1c8764",
          "topics": [
            "0xddf252ad1be2c89b69c2b068fc378daa952ba7f163c4a11628f55a4df523b3ef",
            "0x000000000000000000000000c77f7fed3b5cc8249adc428c5f44c9063b9734b4",
            "0x000000000000000000000000c77f7fed3b5cc8249adc428c5f44c9063b9734b4"
          ],
          "data": "0x00000000000000000000000000000000000000000000000000000005a7a00e51",
          "blockHash": "0xf8b030468a4fd224fc4198b971dc2ec46bcbc037eb6285f2385a65887e72b9b7",
          "blockNumber": "0x7315f8",
          "transactionHash": "0x88f4dda98c26368a56d2060b68f2260cb732d8468f5378506aca752f8b18dce2",
          "transactionIndex": "0x8d",
          "logIndex": "0xf1",
          "removed": false
        },
        {
          "address": "0x8aafd3ede9adb0ff97c7aebce82a919afb1c8764",
          "topics": [
            "0x4afcb4a87cdbd9974efdb92ee48bc8d7cd0ae4bf217004db3d080cbaee652ca7"
          ],
          "data": "0x000000000000000000000000000000000000000000000000000000006790044c0000000000000000000000000000000000000000000000000004c2d34cf59c1b00000000000000000000000000000000000000000000000000000000f27f63c4",
          "blockHash": "0xf8b030468a4fd224fc4198b971dc2ec46bcbc037eb6285f2385a65887e72b9b7",
          "blockNumber": "0x7315f8",
          "transactionHash": "0x88f4dda98c26368a56d2060b68f2260cb732d8468f5378506aca752f8b18dce2",
          "transactionIndex": "0x8d",
          "logIndex": "0xf2",
          "removed": false
        }
      ],
      "logsBloom": "0x00000000000000000000000000000000000000000600000000000000000000000000000000000000000000000000000000000000000000004000000000000000000000000000004000000008000000000000000000000000000000000000000000000000020000000000000000000800020000000000000000000010000000000000000000000000000000000000000000000000000000000000010000000000000000000000000000000000000000004000000000000000000000000000000000000002000000800000000000000000000000000000080000000000000020000000000000000000000000000000000000000000000000000000000000000000",
      "type": "0x2",
      "transactionHash": "0x88f4dda98c26368a56d2060b68f2260cb732d8468f5378506aca752f8b18dce2",
      "transactionIndex": "0x8d",
      "blockHash": "0xf8b030468a4fd224fc4198b971dc2ec46bcbc037eb6285f2385a65887e72b9b7",
      "blockNumber": "0x7315f8",
      "gasUsed": "0xfd27",
      "effectiveGasPrice": "0x6988ce29",
      "from": "0xc77f7fed3b5cc8249adc428c5f44c9063b9734b4",
      "to": "0x8aafd3ede9adb0ff97c7aebce82a919afb1c8764",
      "contractAddress": null
    }
  ],
  "libraries": [],
  "pending": [],
  "returns": {},
  "timestamp": 1737491533,
  "chain": 11155111,
  "commit": "1d2fb70"
}