{
  "transactions": [
    {
      "hash": "0x5dae3568b4612b6d921144231448644011e180494d3936be670971cbd74cbdeb",
      "transactionType": "CALL",
      "contractName": null,
      "contractAddress": "0x8aafd3ede9adb0ff97c7aebce82a919afb1c8764",
      "function": "sell(uint256)",
      "arguments": [
        "12107"
      ],
      "transaction": {
        "from": "0xc77f7fed3b5cc8249adc428c5f44c9063b9734b4",
        "to": "0x8aafd3ede9adb0ff97c7aebce82a919afb1c8764",
        "gas": "0x14e4c",
        "value": "0x0",
        "input": "0xe4849b320000000000000000000000000000000000000000000000000000000000002f4b",
        "nonce": "0xff9",
        "chainId": "0xaa36a7"
      },
      "additionalContracts": [],
      "isFixedGasLimit": false
    }
  ],
  "receipts": [
    {
      "status": "0x1",
      "cumulativeGasUsed": "0x919bfb",
      "logs": [
        {
          "address": "0x8aafd3ede9adb0ff97c7aebce82a919afb1c8764",
          "topics": [
            "0xddf252ad1be2c89b69c2b068fc378daa952ba7f163c4a11628f55a4df523b3ef",
            "0x000000000000000000000000c77f7fed3b5cc8249adc428c5f44c9063b9734b4",
            "0x0000000000000000000000000000000000000000000000000000000000000000"
          ],
          "data": "0x0000000000000000000000000000000000000000000000000000000000002eeb",
          "blockHash": "0xf5a820946e94f09a37af3e7ebc753d9daa0145d207c1581a732a7488bd30e919",
          "blockNumber": "0x73166e",
          "transactionHash": "0x5dae3568b4612b6d921144231448644011e180494d3936be670971cbd74cbdeb",
          "transactionIndex": "0x62",
          "logIndex": "0x62",
          "removed": false
        },
        {
          "address": "0x8aafd3ede9adb0ff97c7aebce82a919afb1c8764",
          "topics": [
            "0xddf252ad1be2c89b69c2b068fc378daa952ba7f163c4a11628f55a4df523b3ef",
            "0x000000000000000000000000c77f7fed3b5cc8249adc428c5f44c9063b9734b4",
            "0x000000000000000000000000c77f7fed3b5cc8249adc428c5f44c9063b9734b4"
          ],
          "data": "0x0000000000000000000000000000000000000000000000000000000000000060",
          "blockHash": "0xf5a820946e94f09a37af3e7ebc753d9daa0145d207c1581a732a7488bd30e919",
          "blockNumber": "0x73166e",
          "transactionHash": "0x5dae3568b4612b6d921144231448644011e180494d3936be670971cbd74cbdeb",
          "transactionIndex": "0x62",
          "logIndex": "0x63",
          "removed": false
        },
        {
          "address": "0x8aafd3ede9adb0ff97c7aebce82a919afb1c8764",
          "topics": [
            "0x4afcb4a87cdbd9974efdb92ee48bc8d7cd0ae4bf217004db3d080cbaee652ca7"
          ],
          "data": "0x00000000000000000000000000000000000000000000000000000000679009d40000000000000000000000000000000000000000000000000004e4f2bbafc5280000000000000000000000000000000000000000000000000000000000000010",
          "blockHash": "0xf5a820946e94f09a37af3e7ebc753d9daa0145d207c1581a732a7488bd30e919",
          "blockNumber": "0x73166e",
          "transactionHash": "0x5dae3568b4612b6d921144231448644011e180494d3936be670971cbd74cbdeb",
          "transactionIndex": "0x62",
          "logIndex": "0x64",
          "removed": false
        }
      ],
      "logsBloom": "0x00000000000000000000000000000000000000000600000000000000000000000000000000000000000000000000000000000000000000004000000000000000000000000000004000000008000000000000000000000000000000000000000000000000020000000000000000000800020000000000000000000010000000000000000000000000000000000000000000000000000000000000010000000000000000000000000000000000000000004000000000000000000000000000000000000002000000800000000000000000000000000000080000000000000020000000000000000000000000000000000000000000000000000000000000000000",
      "type": "0x2",
      "transactionHash": "0x5dae3568b4612b6d921144231448644011e180494d3936be670971cbd74cbdeb",
      "transactionIndex": "0x62",
      "blockHash": "0xf5a820946e94f09a37af3e7ebc753d9daa0145d207c1581a732a7488bd30e919",
      "blockNumber": "0x73166e",
      "gasUsed": "0xf207",
      "effectiveGasPrice": "0x45117e0e",
      "from": "0xc77f7fed3b5cc8249adc428c5f44c9063b9734b4",
      "to": "0x8aafd3ede9adb0ff97c7aebce82a919afb1c8764",
      "contractAddress": null
    }
  ],
  "libraries": [],
  "pending": [],
  "returns": {},
  "timestamp": 1737492949,
  "chain": 11155111,
  "commit": "1d2fb70"
}