{
  "transactions": [
    {
      "hash": "0xba938c7eb5743c052499a27a02c9c02d93716b7a8c2ef6d5064c7404a8bf153b",
      "transactionType": "CALL",
      "contractName": null,
      "contractAddress": "0x5eb9cc76c3506942c1c0ead70e877dd5e4f00cb0",
      "function": "buy(address)",
      "arguments": [
        "0xC77f7fed3b5Cc8249aDc428c5F44C9063B9734b4"
      ],
      "transaction": {
        "from": "0xc77f7fed3b5cc8249adc428c5f44c9063b9734b4",
        "to": "0x5eb9cc76c3506942c1c0ead70e877dd5e4f00cb0",
        "gas": "0x156c8",
        "value": "0xde0b6b3a7640000",
        "input": "0xf088d547000000000000000000000000c77f7fed3b5cc8249adc428c5f44c9063b9734b4",
        "nonce": "0x1a8",
        "chainId": "0xaa36a7"
      },
      "additionalContracts": [],
      "isFixedGasLimit": false
    }
  ],
  "receipts": [
    {
      "status": "0x1",
      "cumulativeGasUsed": "0x10a7323",
      "logs": [
        {
          "address": "0x5eb9cc76c3506942c1c0ead70e877dd5e4f00cb0",
          "topics": [
            "0xddf252ad1be2c89b69c2b068fc378daa952ba7f163c4a11628f55a4df523b3ef",
            "0x0000000000000000000000000000000000000000000000000000000000000000",
            "0x000000000000000000000000c77f7fed3b5cc8249adc428c5f44c9063b9734b4"
          ],
          "data": "0x000000000000000000000000000000000000000000000035a375de4356955bb5",
          "blockHash": "0x47f4e40c1dce676b1564eabf63069c0fe93094057e82528af08a5786d2f39a13",
          "blockNumber": "0x723c8f",
          "transactionHash": "0xba938c7eb5743c052499a27a02c9c02d93716b7a8c2ef6d5064c7404a8bf153b",
          "transactionIndex": "0x83",
          "logIndex": "0xff",
          "removed": false
        },
        {
          "address": "0x5eb9cc76c3506942c1c0ead70e877dd5e4f00cb0",
          "topics": [
            "0xddf252ad1be2c89b69c2b068fc378daa952ba7f163c4a11628f55a4df523b3ef",
            "0x0000000000000000000000000000000000000000000000000000000000000000",
            "0x000000000000000000000000c77f7fed3b5cc8249adc428c5f44c9063b9734b4"
          ],
          "data": "0x00000000000000000000000000000000000000000000000029a6f28894452136",
          "blockHash": "0x47f4e40c1dce676b1564eabf63069c0fe93094057e82528af08a5786d2f39a13",
          "blockNumber": "0x723c8f",
          "transactionHash": "0xba938c7eb5743c052499a27a02c9c02d93716b7a8c2ef6d5064c7404a8bf153b",
          "transactionIndex": "0x83",
          "logIndex": "0x100",
          "removed": false
        },
        {
          "address": "0x5eb9cc76c3506942c1c0ead70e877dd5e4f00cb0",
          "topics": [
            "0x4afcb4a87cdbd9974efdb92ee48bc8d7cd0ae4bf217004db3d080cbaee652ca7"
          ],
          "data": "0x000000000000000000000000000000000000000000000000000000006785c80800000000000000000000000000000000000000000000000000038dfeae2390d80000000000000000000000000000000000000000000000000de0b6b3a7640000",
          "blockHash": "0x47f4e40c1dce676b1564eabf63069c0fe93094057e82528af08a5786d2f39a13",
          "blockNumber": "0x723c8f",
          "transactionHash": "0xba938c7eb5743c052499a27a02c9c02d93716b7a8c2ef6d5064c7404a8bf153b",
          "transactionIndex": "0x83",
          "logIndex": "0x101",
          "removed": false
        }
      ],
      "logsBloom": "0x00000000000000000000000000000000000000000000000000000000000000000000000000000000000000000000000000000000000000004000000000000000000000000000000000000008000000000000000000000000000000000000000000000000020000000000000004000800020000000000000000000010000000000000000000000000000000000000000000000000000000000000010000000000000000000000000000000000000000004000000000000000000000000000020000000002000000800000008000000000000000000000080000000000000020000000000000000000000000000000000000000000000000000000000000000000",
      "type": "0x2",
      "transactionHash": "0xba938c7eb5743c052499a27a02c9c02d93716b7a8c2ef6d5064c7404a8bf153b",
      "transactionIndex": "0x83",
      "blockHash": "0x47f4e40c1dce676b1564eabf63069c0fe93094057e82528af08a5786d2f39a13",
      "blockNumber": "0x723c8f",
      "gasUsed": "0xf82c",
      "effectiveGasPrice": "0x19a82b2cb",
      "from": "0xc77f7fed3b5cc8249adc428c5f44c9063b9734b4",
      "to": "0x5eb9cc76c3506942c1c0ead70e877dd5e4f00cb0",
      "contractAddress": null
    }
  ],
  "libraries": [],
  "pending": [],
  "returns": {},
  "timestamp": 1736820745,
  "chain": 11155111,
  "commit": "51a374b"
}