{
  "transactions": [
    {
      "hash": "0x0a2cc4cff39fea19b251e394a3637ccbc34336afa0c59b9677de8c9820cf82de",
      "transactionType": "CALL",
      "contractName": null,
      "contractAddress": "0xbf4a322f1496e5c3d34a9bcdb4c60567b38c7de2",
      "function": "sell(uint256)",
      "arguments": [
        "972841877000587792154"
      ],
      "transaction": {
        "from": "0xc77f7fed3b5cc8249adc428c5f44c9063b9734b4",
        "to": "0xbf4a322f1496e5c3d34a9bcdb4c60567b38c7de2",
        "gas": "0x16fea",
        "value": "0x0",
        "input": "0xe4849b32000000000000000000000000000000000000000000000034bce4a4cb7c4b4f1a",
        "nonce": "0xe31",
        "chainId": "0xaa36a7"
      },
      "additionalContracts": [],
      "isFixedGasLimit": false
    }
  ],
  "receipts": [
    {
      "status": "0x1",
      "cumulativeGasUsed": "0x6dbb4b",
      "logs": [
        {
          "address": "0xbf4a322f1496e5c3d34a9bcdb4c60567b38c7de2",
          "topics": [
            "0xddf252ad1be2c89b69c2b068fc378daa952ba7f163c4a11628f55a4df523b3ef",
            "0x000000000000000000000000c77f7fed3b5cc8249adc428c5f44c9063b9734b4",
            "0x0000000000000000000000000000000000000000000000000000000000000000"
          ],
          "data": "0x000000000000000000000000000000000000000000000034bce4a4cb7c4b4f1a",
          "blockHash": "0x527cbc80762fa24eabb5a78d11ed04cf22c173b3ccacd4fe5f87d1df6c458569",
          "blockNumber": "0x726721",
          "transactionHash": "0x0a2cc4cff39fea19b251e394a3637ccbc34336afa0c59b9677de8c9820cf82de",
          "transactionIndex": "0x3d",
          "logIndex": "0x65",
          "removed": false
        },
        {
          "address": "0xbf4a322f1496e5c3d34a9bcdb4c60567b38c7de2",
          "topics": [
            "0x4afcb4a87cdbd9974efdb92ee48bc8d7cd0ae4bf217004db3d080cbaee652ca7"
          ],
          "data": "0x000000000000000000000000000000000000000000000000000000006787c8fc0000000000000000000000000000000000000000000000000003a05e4756d61b0000000000000000000000000000000000000000000000000dc7e3d16c5c7d9a",
          "blockHash": "0x527cbc80762fa24eabb5a78d11ed04cf22c173b3ccacd4fe5f87d1df6c458569",
          "blockNumber": "0x726721",
          "transactionHash": "0x0a2cc4cff39fea19b251e394a3637ccbc34336afa0c59b9677de8c9820cf82de",
          "transactionIndex": "0x3d",
          "logIndex": "0x66",
          "removed": false
        }
      ],
      "logsBloom": "0x00000000000000000000000000000000000000000000000000000000000000000000000000000000000000000000000000000000000000004000000000000000000000000000000000000008000000000000001000000000000000000000000000000000020000000000000000000800020000000000000000000010000000000000000000000000000000000000000000000000000008000000010000000000000000000000000000000000000000004000000000000000000000000000000000000002000000800000000000001000000000000000080000000000000020000000000000000000000000000000000000000000000000000000000000000000",
      "type": "0x2",
      "transactionHash": "0x0a2cc4cff39fea19b251e394a3637ccbc34336afa0c59b9677de8c9820cf82de",
      "transactionIndex": "0x3d",
      "blockHash": "0x527cbc80762fa24eabb5a78d11ed04cf22c173b3ccacd4fe5f87d1df6c458569",
      "blockNumber": "0x726721",
      "gasUsed": "0xfb91",
      "effectiveGasPrice": "0x855131518",
      "from": "0xc77f7fed3b5cc8249adc428c5f44c9063b9734b4",
      "to": "0xbf4a322f1496e5c3d34a9bcdb4c60567b38c7de2",
      "contractAddress": null
    }
  ],
  "libraries": [],
  "pending": [],
  "returns": {},
  "timestamp": 1736952060,
  "chain": 11155111,
  "commit": "51a374b"
}