{
  "transactions": [
    {
      "hash": "0xcc2c1c4f12278c017a732369e3468997012888c2088261dd6cd897ca559befa9",
      "transactionType": "CALL",
      "contractName": null,
      "contractAddress": "0x8aafd3ede9adb0ff97c7aebce82a919afb1c8764",
      "function": "sell(uint256)",
      "arguments": [
        "23402360220"
      ],
      "transaction": {
        "from": "0xc77f7fed3b5cc8249adc428c5f44c9063b9734b4",
        "to": "0x8aafd3ede9adb0ff97c7aebce82a919afb1c8764",
        "gas": "0x1722a",
        "value": "0x0",
        "input": "0xe4849b320000000000000000000000000000000000000000000000000000000572e3ad9c",
        "nonce": "0x1050",
        "chainId": "0xaa36a7"
      },
      "additionalContracts": [],
      "isFixedGasLimit": false
    }
  ],
  "receipts": [
    {
      "status": "0x1",
      "cumulativeGasUsed": "0xa33580",
      "logs": [
        {
          "address": "0x8aafd3ede9adb0ff97c7aebce82a919afb1c8764",
          "topics": [
            "0xddf252ad1be2c89b69c2b068fc378daa952ba7f163c4a11628f55a4df523b3ef",
            "0x000000000000000000000000c77f7fed3b5cc8249adc428c5f44c9063b9734b4",
            "0x0000000000000000000000000000000000000000000000000000000000000000"
          ],
          "data": "0x0000000000000000000000000000000000000000000000000000000567baf1db",
          "blockHash": "0xf5510478e804480167dab297facc1384deb9ce769b66d5bb2eae4e3c849552da",
          "blockNumber": "0x7316d2",
          "transactionHash": "0xcc2c1c4f12278c017a732369e3468997012888c2088261dd6cd897ca559befa9",
          "transactionIndex": "0x77",
          "logIndex": "0x9b",
          "removed": false
        },
        {
          "address": "0x8aafd3ede9adb0ff97c7aebce82a919afb1c8764",
          "topics": [
            "0xddf252ad1be2c89b69c2b068fc378daa952ba7f163c4a11628f55a4df523b3ef",
            "0x000000000000000000000000c77f7fed3b5cc8249adc428c5f44c9063b9734b4",
            "0x000000000000000000000000c77f7fed3b5cc8249adc428c5f44c9063b9734b4"
          ],
          "data": "0x000000000000000000000000000000000000000000000000000000000b28bbc1",
          "blockHash": "0xf5510478e804480167dab297facc1384deb9ce769b66d5bb2eae4e3c849552da",
          "blockNumber": "0x7316d2",
          "transactionHash": "0xcc2c1c4f12278c017a732369e3468997012888c2088261dd6cd897ca559befa9",
          "transactionIndex": "0x77",
          "logIndex": "0x9c",
          "removed": false
        },
        {
          "address": "0x8aafd3ede9adb0ff97c7aebce82a919afb1c8764",
          "topics": [
            "0x4afcb4a87cdbd9974efdb92ee48bc8d7cd0ae4bf217004db3d080cbaee652ca7"
          ],
          "data": "0x0000000000000000000000000000000000000000000000000000000067900e900000000000000000000000000000000000000000000000000004f20447b436670000000000000000000000000000000000000000000000000000000001f11257",
          "blockHash": "0xf5510478e804480167dab297facc1384deb9ce769b66d5bb2eae4e3c849552da",
          "blockNumber": "0x7316d2",
          "transactionHash": "0xcc2c1c4f12278c017a732369e3468997012888c2088261dd6cd897ca559befa9",
          "transactionIndex": "0x77",
          "logIndex": "0x9d",
          "removed": false
        }
      ],
      "logsBloom": "0x00000000000000000000000000000000000000000600000000000000000000000000000000000000000000000000000000000000000000004000000000000000000000000000004000000008000000000000000000000000000000000000000000000000020000000000000000000800020000000000000000000010000000000000000000000000000000000000000000000000000000000000010000000000000000000000000000000000000000004000000000000000000000000000000000000002000000800000000000000000000000000000080000000000000020000000000000000000000000000000000000000000000000000000000000000000",
      "type": "0x2",
      "transactionHash": "0xcc2c1c4f12278c017a732369e3468997012888c2088261dd6cd897ca559befa9",
      "transactionIndex": "0x77",
      "blockHash": "0xf5510478e804480167dab297facc1384deb9ce769b66d5bb2eae4e3c849552da",
      "blockNumber": "0x7316d2",
      "gasUsed": "0xfd1b",
      "effectiveGasPrice": "0x493045f0",
      "from": "0xc77f7fed3b5cc8249adc428c5f44c9063b9734b4",
      "to": "0x8aafd3ede9adb0ff97c7aebce82a919afb1c8764",
      "contractAddress": null
    }
  ],
  "libraries": [],
  "pending": [],
  "returns": {},
  "timestamp": 1737494161,
  "chain": 11155111,
  "commit": "1d2fb70"
}