{
  "transactions": [
    {
      "hash": "0xf1bd8b9b738e89de0f1a91c732e71267966229ff49afeae0e59ec2e692503fcf",
      "transactionType": "CALL",
      "contractName": null,
      "contractAddress": "0x8aafd3ede9adb0ff97c7aebce82a919afb1c8764",
      "function": "sell(uint256)",
      "arguments": [
        "457520"
      ],
      "transaction": {
        "from": "0xc77f7fed3b5cc8249adc428c5f44c9063b9734b4",
        "to": "0x8aafd3ede9adb0ff97c7aebce82a919afb1c8764",
        "gas": "0x17207",
        "value": "0x0",
        "input": "0xe4849b32000000000000000000000000000000000000000000000000000000000006fb30",
        "nonce": "0x14be",
        "chainId": "0xaa36a7"
      },
      "additionalContracts": [],
      "isFixedGasLimit": false
    }
  ],
  "receipts": [
    {
      "status": "0x1",
      "cumulativeGasUsed": "0x1a8ddba",
      "logs": [
        {
          "address": "0x8aafd3ede9adb0ff97c7aebce82a919afb1c8764",
          "topics": [
            "0xddf252ad1be2c89b69c2b068fc378daa952ba7f163c4a11628f55a4df523b3ef",
            "0x000000000000000000000000c77f7fed3b5cc8249adc428c5f44c9063b9734b4",
            "0x0000000000000000000000000000000000000000000000000000000000000000"
          ],
          "data": "0x000000000000000000000000000000000000000000000000000000000006ece4",
          "blockHash": "0x52e1ef153a0416bc1c804179c6e611ad1f30227c890cb83a1ad1d08cd2fcbbce",
          "blockNumber": "0x731c1a",
          "transactionHash": "0xf1bd8b9b738e89de0f1a91c732e71267966229ff49afeae0e59ec2e692503fcf",
          "transactionIndex": "0xc4",
          "logIndex": "0x164",
          "removed": false
        },
        {
          "address": "0x8aafd3ede9adb0ff97c7aebce82a919afb1c8764",
          "topics": [
            "0xddf252ad1be2c89b69c2b068fc378daa952ba7f163c4a11628f55a4df523b3ef",
            "0x000000000000000000000000c77f7fed3b5cc8249adc428c5f44c9063b9734b4",
            "0x000000000000000000000000c77f7fed3b5cc8249adc428c5f44c9063b9734b4"
          ],
          "data": "0x0000000000000000000000000000000000000000000000000000000000000e4c",
          "blockHash": "0x52e1ef153a0416bc1c804179c6e611ad1f30227c890cb83a1ad1d08cd2fcbbce",
          "blockNumber": "0x731c1a",
          "transactionHash": "0xf1bd8b9b738e89de0f1a91c732e71267966229ff49afeae0e59ec2e692503fcf",
          "transactionIndex": "0xc4",
          "logIndex": "0x165",
          "removed": false
        },
        {
          "address": "0x8aafd3ede9adb0ff97c7aebce82a919afb1c8764",
          "topics": [
            "0x4afcb4a87cdbd9974efdb92ee48bc8d7cd0ae4bf217004db3d080cbaee652ca7"
          ],
          "data": "0x0000000000000000000000000000000000000000000000000000000067904e140000000000000000000000000000000000000000000000000010462ff0843ff5000000000000000000000000000000000000000000000000000000000000082f",
          "blockHash": "0x52e1ef153a0416bc1c804179c6e611ad1f30227c890cb83a1ad1d08cd2fcbbce",
          "blockNumber": "0x731c1a",
          "transactionHash": "0xf1bd8b9b738e89de0f1a91c732e71267966229ff49afeae0e59ec2e692503fcf",
          "transactionIndex": "0xc4",
          "logIndex": "0x166",
          "removed": false
        }
      ],
      "logsBloom": "0x00000000000000000000000000000000000000000600000000000000000000000000000000000000000000000000000000000000000000004000000000000000000000000000004000000008000000000000000000000000000000000000000000000000020000000000000000000800020000000000000000000010000000000000000000000000000000000000000000000000000000000000010000000000000000000000000000000000000000004000000000000000000000000000000000000002000000800000000000000000000000000000080000000000000020000000000000000000000000000000000000000000000000000000000000000000",
      "type": "0x2",
      "transactionHash": "0xf1bd8b9b738e89de0f1a91c732e71267966229ff49afeae0e59ec2e692503fcf",
      "transactionIndex": "0xc4",
      "blockHash": "0x52e1ef153a0416bc1c804179c6e611ad1f30227c890cb83a1ad1d08cd2fcbbce",
      "blockNumber": "0x731c1a",
      "gasUsed": "0xfd03",
      "effectiveGasPrice": "0x10202bf25",
      "from": "0xc77f7fed3b5cc8249adc428c5f44c9063b9734b4",
      "to": "0x8aafd3ede9adb0ff97c7aebce82a919afb1c8764",
      "contractAddress": null
    }
  ],
  "libraries": [],
  "pending": [],
  "returns": {},
  "timestamp": 1737510422,
  "chain": 11155111,
  "commit": "1d2fb70"
}