{
  "transactions": [
    {
      "hash": "0x247e2367f652212192fa87954cfdc8dce94fb1b13db0ca9b3aec99838b9df205",
      "transactionType": "CALL",
      "contractName": null,
      "contractAddress": "0x8aafd3ede9adb0ff97c7aebce82a919afb1c8764",
      "function": "sell(uint256)",
      "arguments": [
        "2796792203708"
      ],
      "transaction": {
        "from": "0xc77f7fed3b5cc8249adc428c5f44c9063b9734b4",
        "to": "0x8aafd3ede9adb0ff97c7aebce82a919afb1c8764",
        "gas": "0x15daa",
        "value": "0x0",
        "input": "0xe4849b320000000000000000000000000000000000000000000000000000028b2dce49bc",
        "nonce": "0x11df",
        "chainId": "0xaa36a7"
      },
      "additionalContracts": [],
      "isFixedGasLimit": false
    }
  ],
  "receipts": [
    {
      "status": "0x1",
      "cumulativeGasUsed": "0xe4d26b",
      "logs": [
        {
          "address": "0x8aafd3ede9adb0ff97c7aebce82a919afb1c8764",
          "topics": [
            "0xddf252ad1be2c89b69c2b068fc378daa952ba7f163c4a11628f55a4df523b3ef",
            "0x000000000000000000000000c77f7fed3b5cc8249adc428c5f44c9063b9734b4",
            "0x0000000000000000000000000000000000000000000000000000000000000000"
          ],
          "data": "0x00000000000000000000000000000000000000000000000000000285f830fd5f",
          "blockHash": "0xa43cbd4858cd13e11b068613cb6d1ff097e8174d9cd85e3951381c06fabb7a74",
          "blockNumber": "0x7318b5",
          "transactionHash": "0x247e2367f652212192fa87954cfdc8dce94fb1b13db0ca9b3aec99838b9df205",
          "transactionIndex": "0xa2",
          "logIndex": "0xcf",
          "removed": false
        },
        {
          "address": "0x8aafd3ede9adb0ff97c7aebce82a919afb1c8764",
          "topics": [
            "0xddf252ad1be2c89b69c2b068fc378daa952ba7f163c4a11628f55a4df523b3ef",
            "0x000000000000000000000000c77f7fed3b5cc8249adc428c5f44c9063b9734b4",
            "0x000000000000000000000000c77f7fed3b5cc8249adc428c5f44c9063b9734b4"
          ],
          "data": "0x00000000000000000000000000000000000000000000000000000005359d4c5d",
          "blockHash": "0xa43cbd4858cd13e11b068613cb6d1ff097e8174d9cd85e3951381c06fabb7a74",
          "blockNumber": "0x7318b5",
          "transactionHash": "0x247e2367f652212192fa87954cfdc8dce94fb1b13db0ca9b3aec99838b9df205",
          "transactionIndex": "0xa2",
          "logIndex": "0xd0",
          "removed": false
        },
        {
          "address": "0x8aafd3ede9adb0ff97c7aebce82a919afb1c8764",
          "topics": [
            "0x4afcb4a87cdbd9974efdb92ee48bc8d7cd0ae4bf217004db3d080cbaee652ca7"
          ],
          "data": "0x000000000000000000000000000000000000000000000000000000006790254c00000000000000000000000000000000000000000000000000052c1eafcfd25900000000000000000000000000000000000000000000000000000000f2b2dd67",
          "blockHash": "0xa43cbd4858cd13e11b068613cb6d1ff097e8174d9cd85e3951381c06fabb7a74",
          "blockNumber": "0x7318b5",
          "transactionHash": "0x247e2367f652212192fa87954cfdc8dce94fb1b13db0ca9b3aec99838b9df205",
          "transactionIndex": "0xa2",
          "logIndex": "0xd1",
          "removed": false
        }
      ],
      "logsBloom": "0x00000000000000000000000000000000000000000600000000000000000000000000000000000000000000000000000000000000000000004000000000000000000000000000004000000008000000000000000000000000000000000000000000000000020000000000000000000800020000000000000000000010000000000000000000000000000000000000000000000000000000000000010000000000000000000000000000000000000000004000000000000000000000000000000000000002000000800000000000000000000000000000080000000000000020000000000000000000000000000000000000000000000000000000000000000000",
      "type": "0x2",
      "transactionHash": "0x247e2367f652212192fa87954cfdc8dce94fb1b13db0ca9b3aec99838b9df205",
      "transactionIndex": "0xa2",
      "blockHash": "0xa43cbd4858cd13e11b068613cb6d1ff097e8174d9cd85e3951381c06fabb7a74",
      "blockNumber": "0x7318b5",
      "gasUsed": "0xfd27",
      "effectiveGasPrice": "0x40392529",
      "from": "0xc77f7fed3b5cc8249adc428c5f44c9063b9734b4",
      "to": "0x8aafd3ede9adb0ff97c7aebce82a919afb1c8764",
      "contractAddress": null
    }
  ],
  "libraries": [],
  "pending": [],
  "returns": {},
  "timestamp": 1737499981,
  "chain": 11155111,
  "commit": "1d2fb70"
}