{
  "transactions": [
    {
      "hash": "0xaf68b96361146b8bff38453fcf17088964f2141e533f9b95e684617db0dfc607",
      "transactionType": "CALL",
      "contractName": null,
      "contractAddress": "0x5eb9cc76c3506942c1c0ead70e877dd5e4f00cb0",
      "function": "buy(address)",
      "arguments": [
        "0xC77f7fed3b5Cc8249aDc428c5F44C9063B9734b4"
      ],
      "transaction": {
        "from": "0xc77f7fed3b5cc8249adc428c5f44c9063b9734b4",
        "to": "0x5eb9cc76c3506942c1c0ead70e877dd5e4f00cb0",
        "gas": "0x156c8",
        "value": "0xde0b6b3a7640000",
        "input": "0xf088d547000000000000000000000000c77f7fed3b5cc8249adc428c5f44c9063b9734b4",
        "nonce": "0x185",
        "chainId": "0xaa36a7"
      },
      "additionalContracts": [],
      "isFixedGasLimit": false
    }
  ],
  "receipts": [
    {
      "status": "0x1",
      "cumulativeGasUsed": "0x63fe03",
      "logs": [
        {
          "address": "0x5eb9cc76c3506942c1c0ead70e877dd5e4f00cb0",
          "topics": [
            "0xddf252ad1be2c89b69c2b068fc378daa952ba7f163c4a11628f55a4df523b3ef",
            "0x0000000000000000000000000000000000000000000000000000000000000000",
            "0x000000000000000000000000c77f7fed3b5cc8249adc428c5f44c9063b9734b4"
          ],
          "data": "0x000000000000000000000000000000000000000000000035a3843414d59eaa80",
          "blockHash": "0xdf13065448dc3a28b176c0744b3aafc776b9fbaf9f01c3673aa985e485878407",
          "blockNumber": "0x723c69",
          "transactionHash": "0xaf68b96361146b8bff38453fcf17088964f2141e533f9b95e684617db0dfc607",
          "transactionIndex": "0x32",
          "logIndex": "0x57",
          "removed": false
        },
        {
          "address": "0x5eb9cc76c3506942c1c0ead70e877dd5e4f00cb0",
          "topics": [
            "0xddf252ad1be2c89b69c2b068fc378daa952ba7f163c4a11628f55a4df523b3ef",
            "0x0000000000000000000000000000000000000000000000000000000000000000",
            "0x000000000000000000000000c77f7fed3b5cc8249adc428c5f44c9063b9734b4"
          ],
          "data": "0x00000000000000000000000000000000000000000000000029a6fdaa517c34db",
          "blockHash": "0xdf13065448dc3a28b176c0744b3aafc776b9fbaf9f01c3673aa985e485878407",
          "blockNumber": "0x723c69",
          "transactionHash": "0xaf68b96361146b8bff38453fcf17088964f2141e533f9b95e684617db0dfc607",
          "transactionIndex": "0x32",
          "logIndex": "0x58",
          "removed": false
        },
        {
          "address": "0x5eb9cc76c3506942c1c0ead70e877dd5e4f00cb0",
          "topics": [
            "0x4afcb4a87cdbd9974efdb92ee48bc8d7cd0ae4bf217004db3d080cbaee652ca7"
          ],
          "data": "0x000000000000000000000000000000000000000000000000000000006785c64000000000000000000000000000000000000000000000000000038dfdbaf132a30000000000000000000000000000000000000000000000000de0b6b3a7640000",
          "blockHash": "0xdf13065448dc3a28b176c0744b3aafc776b9fbaf9f01c3673aa985e485878407",
          "blockNumber": "0x723c69",
          "transactionHash": "0xaf68b96361146b8bff38453fcf17088964f2141e533f9b95e684617db0dfc607",
          "transactionIndex": "0x32",
          "logIndex": "0x59",
          "removed": false
        }
      ],
      "logsBloom": "0x00000000000000000000000000000000000000000000000000000000000000000000000000000000000000000000000000000000000000004000000000000000000000000000000000000008000000000000000000000000000000000000000000000000020000000000000004000800020000000000000000000010000000000000000000000000000000000000000000000000000000000000010000000000000000000000000000000000000000004000000000000000000000000000020000000002000000800000008000000000000000000000080000000000000020000000000000000000000000000000000000000000000000000000000000000000",
      "type": "0x2",
      "transactionHash": "0xaf68b96361146b8bff38453fcf17088964f2141e533f9b95e684617db0dfc607",
      "transactionIndex": "0x32",
      "blockHash": "0xdf13065448dc3a28b176c0744b3aafc776b9fbaf9f01c3673aa985e485878407",
      "blockNumber": "0x723c69",
      "gasUsed": "0xf82c",
      "effectiveGasPrice": "0x195e8b05e",
      "from": "0xc77f7fed3b5cc8249adc428c5f44c9063b9734b4",
      "to": "0x5eb9cc76c3506942c1c0ead70e877dd5e4f00cb0",
      "contractAddress": null
    }
  ],
  "libraries": [],
  "pending": [],
  "returns": {},
  "timestamp": 1736820288,
  "chain": 11155111,
  "commit": "51a374b"
}