{
  "transactions": [
    {
      "hash": "0xfe155780e5c431d08f3a87200f2a9392d1b84e6b1e97eac4adb4b22debd09983",
      "transactionType": "CALL",
      "contractName": null,
      "contractAddress": "0x5eb9cc76c3506942c1c0ead70e877dd5e4f00cb0",
      "function": "buy(address)",
      "arguments": [
        "0xC77f7fed3b5Cc8249aDc428c5F44C9063B9734b4"
      ],
      "transaction": {
        "from": "0xc77f7fed3b5cc8249adc428c5f44c9063b9734b4",
        "to": "0x5eb9cc76c3506942c1c0ead70e877dd5e4f00cb0",
        "gas": "0x1b30c",
        "value": "0xde0b6b3a7640000",
        "input": "0xf088d547000000000000000000000000c77f7fed3b5cc8249adc428c5f44c9063b9734b4",
        "nonce": "0x30e",
        "chainId": "0xaa36a7"
      },
      "additionalContracts": [],
      "isFixedGasLimit": false
    }
  ],
  "receipts": [
    {
      "status": "0x1",
      "cumulativeGasUsed": "0xc87c47",
      "logs": [
        {
          "address": "0x5eb9cc76c3506942c1c0ead70e877dd5e4f00cb0",
          "topics": [
            "0xddf252ad1be2c89b69c2b068fc378daa952ba7f163c4a11628f55a4df523b3ef",
            "0x0000000000000000000000000000000000000000000000000000000000000000",
            "0x000000000000000000000000c77f7fed3b5cc8249adc428c5f44c9063b9734b4"
          ],
          "data": "0x000000000000000000000000000000000000000000000035758ad1061283ef9b",
          "blockHash": "0xcedc7fc18f2cbb9d2fb2eaff5051a51106006c0a5473a6b4258c3fba2584e536",
          "blockNumber": "0x724ef2",
          "transactionHash": "0xfe155780e5c431d08f3a87200f2a9392d1b84e6b1e97eac4adb4b22debd09983",
          "transactionIndex": "0x56",
          "logIndex": "0x77",
          "removed": false
        },
        {
          "address": "0x5eb9cc76c3506942c1c0ead70e877dd5e4f00cb0",
          "topics": [
            "0xddf252ad1be2c89b69c2b068fc378daa952ba7f163c4a11628f55a4df523b3ef",
            "0x0000000000000000000000000000000000000000000000000000000000000000",
            "0x000000000000000000000000c77f7fed3b5cc8249adc428c5f44c9063b9734b4"
          ],
          "data": "0x00000000000000000000000000000000000000000000000029834a55bb750722",
          "blockHash": "0xcedc7fc18f2cbb9d2fb2eaff5051a51106006c0a5473a6b4258c3fba2584e536",
          "blockNumber": "0x724ef2",
          "transactionHash": "0xfe155780e5c431d08f3a87200f2a9392d1b84e6b1e97eac4adb4b22debd09983",
          "transactionIndex": "0x56",
          "logIndex": "0x78",
          "removed": false
        },
        {
          "address": "0x5eb9cc76c3506942c1c0ead70e877dd5e4f00cb0",
          "topics": [
            "0x4afcb4a87cdbd9974efdb92ee48bc8d7cd0ae4bf217004db3d080cbaee652ca7"
          ],
          "data": "0x000000000000000000000000000000000000000000000000000000006786a50c0000000000000000000000000000000000000000000000000003910c4f836f2a0000000000000000000000000000000000000000000000000de0b6b3a7640000",
          "blockHash": "0xcedc7fc18f2cbb9d2fb2eaff5051a51106006c0a5473a6b4258c3fba2584e536",
          "blockNumber": "0x724ef2",
          "transactionHash": "0xfe155780e5c431d08f3a87200f2a9392d1b84e6b1e97eac4adb4b22debd09983",
          "transactionIndex": "0x56",
          "logIndex": "0x79",
          "removed": false
        }
      ],
      "logsBloom": "0x00000000000000000000000000000000000000000000000000000000000000000000000000000000000000000000000000000000000000004000000000000000000000000000000000000008000000000000000000000000000000000000000000000000020000000000000004000800020000000000000000000010000000000000000000000000000000000000000000000000000000000000010000000000000000000000000000000000000000004000000000000000000000000000020000000002000000800000008000000000000000000000080000000000000020000000000000000000000000000000000000000000000000000000000000000000",
      "type": "0x2",
      "transactionHash": "0xfe155780e5c431d08f3a87200f2a9392d1b84e6b1e97eac4adb4b22debd09983",
      "transactionIndex": "0x56",
      "blockHash": "0xcedc7fc18f2cbb9d2fb2eaff5051a51106006c0a5473a6b4258c3fba2584e536",
      "blockNumber": "0x724ef2",
      "gasUsed": "0x13af8",
      "effectiveGasPrice": "0x60bc61072",
      "from": "0xc77f7fed3b5cc8249adc428c5f44c9063b9734b4",
      "to": "0x5eb9cc76c3506942c1c0ead70e877dd5e4f00cb0",
      "contractAddress": null
    }
  ],
  "libraries": [],
  "pending": [],
  "returns": {},
  "timestamp": 1736877325,
  "chain": 11155111,
  "commit": "51a374b"
}