{
  "transactions": [
    {
      "hash": "0x38899e0f70546e19b246e4a2a7ccc6194b7f37c7eea7ba3e18441b46f8e81b07",
      "transactionType": "CALL",
      "contractName": null,
      "contractAddress": "0x270e88f8683660553e8ba4eb2ad7c91a1710d769",
      "function": "sell(uint256)",
      "arguments": [
        "955505458072017981269"
      ],
      "transaction": {
        "from": "0xc77f7fed3b5cc8249adc428c5f44c9063b9734b4",
        "to": "0x270e88f8683660553e8ba4eb2ad7c91a1710d769",
        "gas": "0x16fec",
        "value": "0x0",
        "input": "0xe4849b32000000000000000000000000000000000000000000000033cc4d4fa1b1884f55",
        "nonce": "0x5c9",
        "chainId": "0xaa36a7"
      },
      "additionalContracts": [],
      "isFixedGasLimit": false
    }
  ],
  "receipts": [
    {
      "status": "0x1",
      "cumulativeGasUsed": "0x704339",
      "logs": [
        {
          "address": "0x270e88f8683660553e8ba4eb2ad7c91a1710d769",
          "topics": [
            "0xddf252ad1be2c89b69c2b068fc378daa952ba7f163c4a11628f55a4df523b3ef",
            "0x000000000000000000000000c77f7fed3b5cc8249adc428c5f44c9063b9734b4",
            "0x0000000000000000000000000000000000000000000000000000000000000000"
          ],
          "data": "0x000000000000000000000000000000000000000000000033cc4d4fa1b1884f55",
          "blockHash": "0xb728ad8ea85ea69c2e9fa13eb14bd6fa1d48cd470a7b53c7bd2f483b398308d0",
          "blockNumber": "0x725288",
          "transactionHash": "0x38899e0f70546e19b246e4a2a7ccc6194b7f37c7eea7ba3e18441b46f8e81b07",
          "transactionIndex": "0x44",
          "logIndex": "0x66",
          "removed": false
        },
        {
          "address": "0x270e88f8683660553e8ba4eb2ad7c91a1710d769",
          "topics": [
            "0x4afcb4a87cdbd9974efdb92ee48bc8d7cd0ae4bf217004db3d080cbaee652ca7"
          ],
          "data": "0x000000000000000000000000000000000000000000000000000000006786d0500000000000000000000000000000000000000000000000000003b17aac14f6c30000000000000000000000000000000000000000000000000dc83eb977c84ff7",
          "blockHash": "0xb728ad8ea85ea69c2e9fa13eb14bd6fa1d48cd470a7b53c7bd2f483b398308d0",
          "blockNumber": "0x725288",
          "transactionHash": "0x38899e0f70546e19b246e4a2a7ccc6194b7f37c7eea7ba3e18441b46f8e81b07",
          "transactionIndex": "0x44",
          "logIndex": "0x67",
          "removed": false
        }
      ],
      "logsBloom": "0x00000000000000000000000000000000000000000000000000000000000000000000000000000000000000000000000020000000000000004000000000000000000000000000000000000008000000000000000000000000000000000000000000000000020000000000000000000800020000000000000000000010000000000000000000010000000000000000000000000000000000000000010000000000000000000000000000000000000000004000000000000000000000000000000000000002000000800000000000000000000000000000080000008000000020000000000000000000000000000000000000000000000000000000000000000000",
      "type": "0x2",
      "transactionHash": "0x38899e0f70546e19b246e4a2a7ccc6194b7f37c7eea7ba3e18441b46f8e81b07",
      "transactionIndex": "0x44",
      "blockHash": "0xb728ad8ea85ea69c2e9fa13eb14bd6fa1d48cd470a7b53c7bd2f483b398308d0",
      "blockNumber": "0x725288",
      "gasUsed": "0xfb93",
      "effectiveGasPrice": "0x42e362785",
      "from": "0xc77f7fed3b5cc8249adc428c5f44c9063b9734b4",
      "to": "0x270e88f8683660553e8ba4eb2ad7c91a1710d769",
      "contractAddress": null
    }
  ],
  "libraries": [],
  "pending": [],
  "returns": {},
  "timestamp": 1736888402,
  "chain": 11155111,
  "commit": "51a374b"
}