{
  "transactions": [
    {
      "hash": "0xe410d454ea24e31eac441507dea6f971ffb0ecaf56ac8df8b811aef23657d87e",
      "transactionType": "CALL",
      "contractName": null,
      "contractAddress": "0x8aafd3ede9adb0ff97c7aebce82a919afb1c8764",
      "function": "sell(uint256)",
      "arguments": [
        "690394147165384857816"
      ],
      "transaction": {
        "from": "0xc77f7fed3b5cc8249adc428c5f44c9063b9734b4",
        "to": "0x8aafd3ede9adb0ff97c7aebce82a919afb1c8764",
        "gas": "0x17270",
        "value": "0x0",
        "input": "0xe4849b320000000000000000000000000000000000000000000000256d24bafb6185d8d8",
        "nonce": "0x1177",
        "chainId": "0xaa36a7"
      },
      "additionalContracts": [],
      "isFixedGasLimit": false
    }
  ],
  "receipts": [
    {
      "status": "0x1",
      "cumulativeGasUsed": "0x21c0ab5",
      "logs": [
        {
          "address": "0x8aafd3ede9adb0ff97c7aebce82a919afb1c8764",
          "topics": [
            "0xddf252ad1be2c89b69c2b068fc378daa952ba7f163c4a11628f55a4df523b3ef",
            "0x000000000000000000000000c77f7fed3b5cc8249adc428c5f44c9063b9734b4",
            "0x0000000000000000000000000000000000000000000000000000000000000000"
          ],
          "data": "0x000000000000000000000000000000000000000000000025207e8c6e1b1c540a",
          "blockHash": "0xd9ba3a903ea8719c17d7586759a664d7d8356fee87b7232ae9d1eb2cd3839ab9",
          "blockNumber": "0x731837",
          "transactionHash": "0xe410d454ea24e31eac441507dea6f971ffb0ecaf56ac8df8b811aef23657d87e",
          "transactionIndex": "0x74",
          "logIndex": "0x1110",
          "removed": false
        },
        {
          "address": "0x8aafd3ede9adb0ff97c7aebce82a919afb1c8764",
          "topics": [
            "0xddf252ad1be2c89b69c2b068fc378daa952ba7f163c4a11628f55a4df523b3ef",
            "0x000000000000000000000000c77f7fed3b5cc8249adc428c5f44c9063b9734b4",
            "0x000000000000000000000000c77f7fed3b5cc8249adc428c5f44c9063b9734b4"
          ],
          "data": "0x0000000000000000000000000000000000000000000000004ca62e8d466984ce",
          "blockHash": "0xd9ba3a903ea8719c17d7586759a664d7d8356fee87b7232ae9d1eb2cd3839ab9",
          "blockNumber": "0x731837",
          "transactionHash": "0xe410d454ea24e31eac441507dea6f971ffb0ecaf56ac8df8b811aef23657d87e",
          "transactionIndex": "0x74",
          "logIndex": "0x1111",
          "removed": false
        },
        {
          "address": "0x8aafd3ede9adb0ff97c7aebce82a919afb1c8764",
          "topics": [
            "0x4afcb4a87cdbd9974efdb92ee48bc8d7cd0ae4bf217004db3d080cbaee652ca7"
          ],
          "data": "0x0000000000000000000000000000000000000000000000000000000067901f5800000000000000000000000000000000000000000000000000051d9528093df80000000000000000000000000000000000000000000000000dc8f5e4783c4c2c",
          "blockHash": "0xd9ba3a903ea8719c17d7586759a664d7d8356fee87b7232ae9d1eb2cd3839ab9",
          "blockNumber": "0x731837",
          "transactionHash": "0xe410d454ea24e31eac441507dea6f971ffb0ecaf56ac8df8b811aef23657d87e",
          "transactionIndex": "0x74",
          "logIndex": "0x1112",
          "removed": false
        }
      ],
      "logsBloom": "0x00000000000000000000000000000000000000000600000000000000000000000000000000000000000000000000000000000000000000004000000000000000000000000000004000000008000000000000000000000000000000000000000000000000020000000000000000000800020000000000000000000010000000000000000000000000000000000000000000000000000000000000010000000000000000000000000000000000000000004000000000000000000000000000000000000002000000800000000000000000000000000000080000000000000020000000000000000000000000000000000000000000000000000000000000000000",
      "type": "0x2",
      "transactionHash": "0xe410d454ea24e31eac441507dea6f971ffb0ecaf56ac8df8b811aef23657d87e",
      "transactionIndex": "0x74",
      "blockHash": "0xd9ba3a903ea8719c17d7586759a664d7d8356fee87b7232ae9d1eb2cd3839ab9",
      "blockNumber": "0x731837",
      "gasUsed": "0xfd4b",
      "effectiveGasPrice": "0x3a9e1e2a",
      "from": "0xc77f7fed3b5cc8249adc428c5f44c9063b9734b4",
      "to": "0x8aafd3ede9adb0ff97c7aebce82a919afb1c8764",
      "contractAddress": null
    }
  ],
  "libraries": [],
  "pending": [],
  "returns": {},
  "timestamp": 1737498458,
  "chain": 11155111,
  "commit": "1d2fb70"
}