{
  "transactions": [
    {
      "hash": "0x2063d819499a5c71cd2d90781d544db9b1e62a82c8ffc05f0d0476d19aa0956b",
      "transactionType": "CALL",
      "contractName": null,
      "contractAddress": "0x8aafd3ede9adb0ff97c7aebce82a919afb1c8764",
      "function": "sell(uint256)",
      "arguments": [
        "742783260699698654798"
      ],
      "transaction": {
        "from": "0xc77f7fed3b5cc8249adc428c5f44c9063b9734b4",
        "to": "0x8aafd3ede9adb0ff97c7aebce82a919afb1c8764",
        "gas": "0x17270",
        "value": "0x0",
        "input": "0xe4849b320000000000000000000000000000000000000000000000284430402c07e7ee4e",
        "nonce": "0xf3f",
        "chainId": "0xaa36a7"
      },
      "additionalContracts": [],
      "isFixedGasLimit": false
    }
  ],
  "receipts": [
    {
      "status": "0x1",
      "cumulativeGasUsed": "0x148d0ef",
      "logs": [
        {
          "address": "0x8aafd3ede9adb0ff97c7aebce82a919afb1c8764",
          "topics": [
            "0xddf252ad1be2c89b69c2b068fc378daa952ba7f163c4a11628f55a4df523b3ef",
            "0x000000000000000000000000c77f7fed3b5cc8249adc428c5f44c9063b9734b4",
            "0x0000000000000000000000000000000000000000000000000000000000000000"
          ],
          "data": "0x000000000000000000000000000000000000000000000027f1b914a68f02bf58",
          "blockHash": "0xa38a4dca505e3a2ff1ddbf0dbf215248d055bb0fd6f0fcefbe1d8f108613d3ac",
          "blockNumber": "0x731599",
          "transactionHash": "0x2063d819499a5c71cd2d90781d544db9b1e62a82c8ffc05f0d0476d19aa0956b",
          "transactionIndex": "0xa5",
          "logIndex": "0x13e",
          "removed": false
        },
        {
          "address": "0x8aafd3ede9adb0ff97c7aebce82a919afb1c8764",
          "topics": [
            "0xddf252ad1be2c89b69c2b068fc378daa952ba7f163c4a11628f55a4df523b3ef",
            "0x000000000000000000000000c77f7fed3b5cc8249adc428c5f44c9063b9734b4",
            "0x000000000000000000000000c77f7fed3b5cc8249adc428c5f44c9063b9734b4"
          ],
          "data": "0x00000000000000000000000000000000000000000000000052772b8578e52ef6",
          "blockHash": "0xa38a4dca505e3a2ff1ddbf0dbf215248d055bb0fd6f0fcefbe1d8f108613d3ac",
          "blockNumber": "0x731599",
          "transactionHash": "0x2063d819499a5c71cd2d90781d544db9b1e62a82c8ffc05f0d0476d19aa0956b",
          "transactionIndex": "0xa5",
          "logIndex": "0x13f",
          "removed": false
        },
        {
          "address": "0x8aafd3ede9adb0ff97c7aebce82a919afb1c8764",
          "topics": [
            "0x4afcb4a87cdbd9974efdb92ee48bc8d7cd0ae4bf217004db3d080cbaee652ca7"
          ],
          "data": "0x00000000000000000000000000000000000000000000000000000000678fffd80000000000000000000000000000000000000000000000000004c0334099a84a0000000000000000000000000000000000000000000000000dc821618122674b",
          "blockHash": "0xa38a4dca505e3a2ff1ddbf0dbf215248d055bb0fd6f0fcefbe1d8f108613d3ac",
          "blockNumber": "0x731599",
          "transactionHash": "0x2063d819499a5c71cd2d90781d544db9b1e62a82c8ffc05f0d0476d19aa0956b",
          "transactionIndex": "0xa5",
          "logIndex": "0x140",
          "removed": false
        }
      ],
      "logsBloom": "0x00000000000000000000000000000000000000000600000000000000000000000000000000000000000000000000000000000000000000004000000000000000000000000000004000000008000000000000000000000000000000000000000000000000020000000000000000000800020000000000000000000010000000000000000000000000000000000000000000000000000000000000010000000000000000000000000000000000000000004000000000000000000000000000000000000002000000800000000000000000000000000000080000000000000020000000000000000000000000000000000000000000000000000000000000000000",
      "type": "0x2",
      "transactionHash": "0x2063d819499a5c71cd2d90781d544db9b1e62a82c8ffc05f0d0476d19aa0956b",
      "transactionIndex": "0xa5",
      "blockHash": "0xa38a4dca505e3a2ff1ddbf0dbf215248d055bb0fd6f0fcefbe1d8f108613d3ac",
      "blockNumber": "0x731599",
      "gasUsed": "0xfd4b",
      "effectiveGasPrice": "0x61adaaef",
      "from": "0xc77f7fed3b5cc8249adc428c5f44c9063b9734b4",
      "to": "0x8aafd3ede9adb0ff97c7aebce82a919afb1c8764",
      "contractAddress": null
    }
  ],
  "libraries": [],
  "pending": [],
  "returns": {},
  "timestamp": 1737490394,
  "chain": 11155111,
  "commit": "1d2fb70"
}