{
  "transactions": [
    {
      "hash": "0x202a47b51fe62e2c4fb99f18ce6c03b205a66699eba7e5debb7874f87cfb535d",
      "transactionType": "CALL",
      "contractName": null,
      "contractAddress": "0x8aafd3ede9adb0ff97c7aebce82a919afb1c8764",
      "function": "sell(uint256)",
      "arguments": [
        "5227431927"
      ],
      "transaction": {
        "from": "0xc77f7fed3b5cc8249adc428c5f44c9063b9734b4",
        "to": "0x8aafd3ede9adb0ff97c7aebce82a919afb1c8764",
        "gas": "0x1722a",
        "value": "0x0",
        "input": "0xe4849b3200000000000000000000000000000000000000000000000000000001379447f7",
        "nonce": "0x16bd",
        "chainId": "0xaa36a7"
      },
      "additionalContracts": [],
      "isFixedGasLimit": false
    }
  ],
  "receipts": [
    {
      "status": "0x1",
      "cumulativeGasUsed": "0x1a9542e",
      "logs": [
        {
          "address": "0x8aafd3ede9adb0ff97c7aebce82a919afb1c8764",
          "topics": [
            "0xddf252ad1be2c89b69c2b068fc378daa952ba7f163c4a11628f55a4df523b3ef",
            "0x000000000000000000000000c77f7fed3b5cc8249adc428c5f44c9063b9734b4",
            "0x0000000000000000000000000000000000000000000000000000000000000000"
          ],
          "data": "0x0000000000000000000000000000000000000000000000000000000135162ab8",
          "blockHash": "0x916f48444cd4ac056b93c56a137328eee68b95594051339d21303185b228d50d",
          "blockNumber": "0x731e77",
          "transactionHash": "0x202a47b51fe62e2c4fb99f18ce6c03b205a66699eba7e5debb7874f87cfb535d",
          "transactionIndex": "0x90",
          "logIndex": "0xe4",
          "removed": false
        },
        {
          "address": "0x8aafd3ede9adb0ff97c7aebce82a919afb1c8764",
          "topics": [
            "0xddf252ad1be2c89b69c2b068fc378daa952ba7f163c4a11628f55a4df523b3ef",
            "0x000000000000000000000000c77f7fed3b5cc8249adc428c5f44c9063b9734b4",
            "0x000000000000000000000000c77f7fed3b5cc8249adc428c5f44c9063b9734b4"
          ],
          "data": "0x00000000000000000000000000000000000000000000000000000000027e1d3f",
          "blockHash": "0x916f48444cd4ac056b93c56a137328eee68b95594051339d21303185b228d50d",
          "blockNumber": "0x731e77",
          "transactionHash": "0x202a47b51fe62e2c4fb99f18ce6c03b205a66699eba7e5debb7874f87cfb535d",
          "transactionIndex": "0x90",
          "logIndex": "0xe5",
          "removed": false
        },
        {
          "address": "0x8aafd3ede9adb0ff97c7aebce82a919afb1c8764",
          "topics": [
            "0x4afcb4a87cdbd9974efdb92ee48bc8d7cd0ae4bf217004db3d080cbaee652ca7"
          ],
          "data": "0x0000000000000000000000000000000000000000000000000000000067906a7c000000000000000000000000000000000000000000000000001638227e7949620000000000000000000000000000000000000000000000000000000001f2dc01",
          "blockHash": "0x916f48444cd4ac056b93c56a137328eee68b95594051339d21303185b228d50d",
          "blockNumber": "0x731e77",
          "transactionHash": "0x202a47b51fe62e2c4fb99f18ce6c03b205a66699eba7e5debb7874f87cfb535d",
          "transactionIndex": "0x90",
          "logIndex": "0xe6",
          "removed": false
        }
      ],
      "logsBloom": "0x00000000000000000000000000000000000000000600000000000000000000000000000000000000000000000000000000000000000000004000000000000000000000000000004000000008000000000000000000000000000000000000000000000000020000000000000000000800020000000000000000000010000000000000000000000000000000000000000000000000000000000000010000000000000000000000000000000000000000004000000000000000000000000000000000000002000000800000000000000000000000000000080000000000000020000000000000000000000000000000000000000000000000000000000000000000",
      "type": "0x2",
      "transactionHash": "0x202a47b51fe62e2c4fb99f18ce6c03b205a66699eba7e5debb7874f87cfb535d",
      "transactionIndex": "0x90",
      "blockHash": "0x916f48444cd4ac056b93c56a137328eee68b95594051339d21303185b228d50d",
      "blockNumber": "0x731e77",
      "gasUsed": "0xfd1b",
      "effectiveGasPrice": "0x4349b53b",
      "from": "0xc77f7fed3b5cc8249adc428c5f44c9063b9734b4",
      "to": "0x8aafd3ede9adb0ff97c7aebce82a919afb1c8764",
      "contractAddress": null
    }
  ],
  "libraries": [],
  "pending": [],
  "returns": {},
  "timestamp": 1737517694,
  "chain": 11155111,
  "commit": "1d2fb70"
}