{
  "transactions": [
    {
      "hash": "0xb478cb7e6ab24ee51be02de71cff2299a5780312fb149d4be1b0fadde3e4c753",
      "transactionType": "CALL",
      "contractName": null,
      "contractAddress": "0xbf4a322f1496e5c3d34a9bcdb4c60567b38c7de2",
      "function": "sell(uint256)",
      "arguments": [
        "974034142077409225968"
      ],
      "transaction": {
        "from": "0xc77f7fed3b5cc8249adc428c5f44c9063b9734b4",
        "to": "0xbf4a322f1496e5c3d34a9bcdb4c60567b38c7de2",
        "gas": "0x16fea",
        "value": "0x0",
        "input": "0xe4849b32000000000000000000000000000000000000000000000034cd706b90ba56ecf0",
        "nonce": "0xdd7",
        "chainId": "0xaa36a7"
      },
      "additionalContracts": [],
      "isFixedGasLimit": false
    }
  ],
  "receipts": [
    {
      "status": "0x1",
      "cumulativeGasUsed": "0x109117b",
      "logs": [
        {
          "address": "0xbf4a322f1496e5c3d34a9bcdb4c60567b38c7de2",
          "topics": [
            "0xddf252ad1be2c89b69c2b068fc378daa952ba7f163c4a11628f55a4df523b3ef",
            "0x000000000000000000000000c77f7fed3b5cc8249adc428c5f44c9063b9734b4",
            "0x0000000000000000000000000000000000000000000000000000000000000000"
          ],
          "data": "0x000000000000000000000000000000000000000000000034cd706b90ba56ecf0",
          "blockHash": "0x6fe3ec13004241e62068c43ec501faa532958bf0a58ced67375346fe93db584d",
          "blockNumber": "0x7266b5",
          "transactionHash": "0xb478cb7e6ab24ee51be02de71cff2299a5780312fb149d4be1b0fadde3e4c753",
          "transactionIndex": "0x4d",
          "logIndex": "0x74",
          "removed": false
        },
        {
          "address": "0xbf4a322f1496e5c3d34a9bcdb4c60567b38c7de2",
          "topics": [
            "0x4afcb4a87cdbd9974efdb92ee48bc8d7cd0ae4bf217004db3d080cbaee652ca7"
          ],
          "data": "0x000000000000000000000000000000000000000000000000000000006787c38000000000000000000000000000000000000000000000000000039f3b605c73c10000000000000000000000000000000000000000000000000dc7e3d432053db8",
          "blockHash": "0x6fe3ec13004241e62068c43ec501faa532958bf0a58ced67375346fe93db584d",
          "blockNumber": "0x7266b5",
          "transactionHash": "0xb478cb7e6ab24ee51be02de71cff2299a5780312fb149d4be1b0fadde3e4c753",
          "transactionIndex": "0x4d",
          "logIndex": "0x75",
          "removed": false
        }
      ],
      "logsBloom": "0x00000000000000000000000000000000000000000000000000000000000000000000000000000000000000000000000000000000000000004000000000000000000000000000000000000008000000000000001000000000000000000000000000000000020000000000000000000800020000000000000000000010000000000000000000000000000000000000000000000000000008000000010000000000000000000000000000000000000000004000000000000000000000000000000000000002000000800000000000001000000000000000080000000000000020000000000000000000000000000000000000000000000000000000000000000000",
      "type": "0x2",
      "transactionHash": "0xb478cb7e6ab24ee51be02de71cff2299a5780312fb149d4be1b0fadde3e4c753",
      "transactionIndex": "0x4d",
      "blockHash": "0x6fe3ec13004241e62068c43ec501faa532958bf0a58ced67375346fe93db584d",
      "blockNumber": "0x7266b5",
      "gasUsed": "0xfb91",
      "effectiveGasPrice": "0x1e72f14c5",
      "from": "0xc77f7fed3b5cc8249adc428c5f44c9063b9734b4",
      "to": "0xbf4a322f1496e5c3d34a9bcdb4c60567b38c7de2",
      "contractAddress": null
    }
  ],
  "libraries": [],
  "pending": [],
  "returns": {},
  "timestamp": 1736950657,
  "chain": 11155111,
  "commit": "51a374b"
}