{
  "transactions": [
    {
      "hash": "0x9cd30f8e06b2de543f5bf048a5efc8634b2a662407b2ccc37675c61f43c00153",
      "transactionType": "CALL",
      "contractName": null,
      "contractAddress": "0x8aafd3ede9adb0ff97c7aebce82a919afb1c8764",
      "function": "buy(address)",
      "arguments": [
        "0xC77f7fed3b5Cc8249aDc428c5F44C9063B9734b4"
      ],
      "transaction": {
        "from": "0xc77f7fed3b5cc8249adc428c5f44c9063b9734b4",
        "to": "0x8aafd3ede9adb0ff97c7aebce82a919afb1c8764",
        "gas": "0x156ea",
        "value": "0xde0b6b3a7640000",
        "input": "0xf088d547000000000000000000000000c77f7fed3b5cc8249adc428c5f44c9063b9734b4",
        "nonce": "0x165d",
        "chainId": "0xaa36a7"
      },
      "additionalContracts": [],
      "isFixedGasLimit": false
    }
  ],
  "receipts": [
    {
      "status": "0x1",
      "cumulativeGasUsed": "0xa32003",
      "logs": [
        {
          "address": "0x8aafd3ede9adb0ff97c7aebce82a919afb1c8764",
          "topics": [
            "0xddf252ad1be2c89b69c2b068fc378daa952ba7f163c4a11628f55a4df523b3ef",
            "0x0000000000000000000000000000000000000000000000000000000000000000",
            "0x000000000000000000000000c77f7fed3b5cc8249adc428c5f44c9063b9734b4"
          ],
          "data": "0x0000000000000000000000000000000000000000000000090d1e67fe2ace7929",
          "blockHash": "0x3195edc0bbb8c7616aa5e81659c65dc19960f10388264408599f2c310ac235dd",
          "blockNumber": "0x731e00",
          "transactionHash": "0x9cd30f8e06b2de543f5bf048a5efc8634b2a662407b2ccc37675c61f43c00153",
          "transactionIndex": "0x6a",
          "logIndex": "0x92",
          "removed": false
        },
        {
          "address": "0x8aafd3ede9adb0ff97c7aebce82a919afb1c8764",
          "topics": [
            "0xddf252ad1be2c89b69c2b068fc378daa952ba7f163c4a11628f55a4df523b3ef",
            "0x0000000000000000000000000000000000000000000000000000000000000000",
            "0x000000000000000000000000c77f7fed3b5cc8249adc428c5f44c9063b9734b4"
          ],
          "data": "0x0000000000000000000000000000000000000000000000000707525f2e970288",
          "blockHash": "0x3195edc0bbb8c7616aa5e81659c65dc19960f10388264408599f2c310ac235dd",
          "blockNumber": "0x731e00",
          "transactionHash": "0x9cd30f8e06b2de543f5bf048a5efc8634b2a662407b2ccc37675c61f43c00153",
          "transactionIndex": "0x6a",
          "logIndex": "0x93",
          "removed": false
        },
        {
          "address": "0x8aafd3ede9adb0ff97c7aebce82a919afb1c8764",
          "topics": [
            "0x4afcb4a87cdbd9974efdb92ee48bc8d7cd0ae4bf217004db3d080cbaee652ca7"
          ],
          "data": "0x00000000000000000000000000000000000000000000000000000000679064e80000000000000000000000000000000000000000000000000015177d670b13bc0000000000000000000000000000000000000000000000000de0b6b3a7640000",
          "blockHash": "0x3195edc0bbb8c7616aa5e81659c65dc19960f10388264408599f2c310ac235dd",
          "blockNumber": "0x731e00",
          "transactionHash": "0x9cd30f8e06b2de543f5bf048a5efc8634b2a662407b2ccc37675c61f43c00153",
          "transactionIndex": "0x6a",
          "logIndex": "0x94",
          "removed": false
        }
      ],
      "logsBloom": "0x00000000000000000000000000000000000000000600000000000000000000000000000000000000000000000000000000000000000000004000000000000000000000000000004000000008000000000000000000000000000000000000000000000000020000000000000000000800020000000000000000000010000000000000000000000000000000000000000000000000000000000000010000000000000000000000000000000000000000004000000000000000000000000000000000000002000000800000000000000000000000000000080000000000000020000000000000000000000000000000000000000000000000000000000000000000",
      "type": "0x2",
      "transactionHash": "0x9cd30f8e06b2de543f5bf048a5efc8634b2a662407b2ccc37675c61f43c00153",
      "transactionIndex": "0x6a",
      "blockHash": "0x3195edc0bbb8c7616aa5e81659c65dc19960f10388264408599f2c310ac235dd",
      "blockNumber": "0x731e00",
      "gasUsed": "0xf844",
      "effectiveGasPrice": "0x43239aea",
      "from": "0xc77f7fed3b5cc8249adc428c5f44c9063b9734b4",
      "to": "0x8aafd3ede9adb0ff97c7aebce82a919afb1c8764",
      "contractAddress": null
    }
  ],
  "libraries": [],
  "pending": [],
  "returns": {},
  "timestamp": 1737516265,
  "chain": 11155111,
  "commit": "1d2fb70"
}