{
  "transactions": [
    {
      "hash": "0x2806a79aed40b06aeb90123a61a09bc7cd85312ff6eccd7e2c2d67e95c006dfb",
      "transactionType": "CALL",
      "contractName": null,
      "contractAddress": "0xbf4a322f1496e5c3d34a9bcdb4c60567b38c7de2",
      "function": "buy(address)",
      "arguments": [
        "0xC77f7fed3b5Cc8249aDc428c5F44C9063B9734b4"
      ],
      "transaction": {
        "from": "0xc77f7fed3b5cc8249adc428c5f44c9063b9734b4",
        "to": "0xbf4a322f1496e5c3d34a9bcdb4c60567b38c7de2",
        "gas": "0x1b309",
        "value": "0xde0b6b3a7640000",
        "input": "0xf088d547000000000000000000000000c77f7fed3b5cc8249adc428c5f44c9063b9734b4",
        "nonce": "0x8c9",
        "chainId": "0xaa36a7"
      },
      "additionalContracts": [],
      "isFixedGasLimit": false
    }
  ],
  "receipts": [
    {
      "status": "0x1",
      "cumulativeGasUsed": "0x89b83f",
      "logs": [
        {
          "address": "0xbf4a322f1496e5c3d34a9bcdb4c60567b38c7de2",
          "topics": [
            "0xddf252ad1be2c89b69c2b068fc378daa952ba7f163c4a11628f55a4df523b3ef",
            "0x0000000000000000000000000000000000000000000000000000000000000000",
            "0x000000000000000000000000c77f7fed3b5cc8249adc428c5f44c9063b9734b4"
          ],
          "data": "0x000000000000000000000000000000000000000000000035aa901a061bf38aee",
          "blockHash": "0xbf64f4b82d8e426478d82ed3cc02eae6e92e787c5a93f8697c427524ad597380",
          "blockNumber": "0x725834",
          "transactionHash": "0x2806a79aed40b06aeb90123a61a09bc7cd85312ff6eccd7e2c2d67e95c006dfb",
          "transactionIndex": "0x4e",
          "logIndex": "0x59",
          "removed": false
        },
        {
          "address": "0xbf4a322f1496e5c3d34a9bcdb4c60567b38c7de2",
          "topics": [
            "0xddf252ad1be2c89b69c2b068fc378daa952ba7f163c4a11628f55a4df523b3ef",
            "0x0000000000000000000000000000000000000000000000000000000000000000",
            "0x000000000000000000000000c77f7fed3b5cc8249adc428c5f44c9063b9734b4"
          ],
          "data": "0x00000000000000000000000000000000000000000000000029ac76742c292e3e",
          "blockHash": "0xbf64f4b82d8e426478d82ed3cc02eae6e92e787c5a93f8697c427524ad597380",
          "blockNumber": "0x725834",
          "transactionHash": "0x2806a79aed40b06aeb90123a61a09bc7cd85312ff6eccd7e2c2d67e95c006dfb",
          "transactionIndex": "0x4e",
          "logIndex": "0x5a",
          "removed": false
        },
        {
          "address": "0xbf4a322f1496e5c3d34a9bcdb4c60567b38c7de2",
          "topics": [
            "0x4afcb4a87cdbd9974efdb92ee48bc8d7cd0ae4bf217004db3d080cbaee652ca7"
          ],
          "data": "0x000000000000000000000000000000000000000000000000000000006787149000000000000000000000000000000000000000000000000000038d88ee29e7660000000000000000000000000000000000000000000000000de0b6b3a7640000",
          "blockHash": "0xbf64f4b82d8e426478d82ed3cc02eae6e92e787c5a93f8697c427524ad597380",
          "blockNumber": "0x725834",
          "transactionHash": "0x2806a79aed40b06aeb90123a61a09bc7cd85312ff6eccd7e2c2d67e95c006dfb",
          "transactionIndex": "0x4e",
          "logIndex": "0x5b",
          "removed": false
        }
      ],
      "logsBloom": "0x00000000000000000000000000000000000000000000000000000000000000000000000000000000000000000000000000000000000000004000000000000000000000000000000000000008000000000000001000000000000000000000000000000000020000000000000000000800020000000000000000000010000000000000000000000000000000000000000000000000000008000000010000000000000000000000000000000000000000004000000000000000000000000000000000000002000000800000000000001000000000000000080000000000000020000000000000000000000000000000000000000000000000000000000000000000",
      "type": "0x2",
      "transactionHash": "0x2806a79aed40b06aeb90123a61a09bc7cd85312ff6eccd7e2c2d67e95c006dfb",
      "transactionIndex": "0x4e",
      "blockHash": "0xbf64f4b82d8e426478d82ed3cc02eae6e92e787c5a93f8697c427524ad597380",
      "blockNumber": "0x725834",
      "gasUsed": "0x13af6",
      "effectiveGasPrice": "0x26074aa3",
      "from": "0xc77f7fed3b5cc8249adc428c5f44c9063b9734b4",
      "to": "0xbf4a322f1496e5c3d34a9bcdb4c60567b38c7de2",
      "contractAddress": null
    }
  ],
  "libraries": [],
  "pending": [],
  "returns": {},
  "timestamp": 1736905874,
  "chain": 11155111,
  "commit": "51a374b"
}