{
  "transactions": [
    {
      "hash": "0xe50e894844a021780a63e3b84dbe12b4a9a7b9770a7c4672785ee8049ba2588f",
      "transactionType": "CALL",
      "contractName": null,
      "contractAddress": "0x5eb9cc76c3506942c1c0ead70e877dd5e4f00cb0",
      "function": "buy(address)",
      "arguments": [
        "0xC77f7fed3b5Cc8249aDc428c5F44C9063B9734b4"
      ],
      "transaction": {
        "from": "0xc77f7fed3b5cc8249adc428c5f44c9063b9734b4",
        "to": "0x5eb9cc76c3506942c1c0ead70e877dd5e4f00cb0",
        "gas": "0x1b30c",
        "value": "0xde0b6b3a7640000",
        "input": "0xf088d547000000000000000000000000c77f7fed3b5cc8249adc428c5f44c9063b9734b4",
        "nonce": "0x410",
        "chainId": "0xaa36a7"
      },
      "additionalContracts": [],
      "isFixedGasLimit": false
    }
  ],
  "receipts": [
    {
      "status": "0x1",
      "cumulativeGasUsed": "0x14751fe",
      "logs": [
        {
          "address": "0x5eb9cc76c3506942c1c0ead70e877dd5e4f00cb0",
          "topics": [
            "0xddf252ad1be2c89b69c2b068fc378daa952ba7f163c4a11628f55a4df523b3ef",
            "0x0000000000000000000000000000000000000000000000000000000000000000",
            "0x000000000000000000000000c77f7fed3b5cc8249adc428c5f44c9063b9734b4"
          ],
          "data": "0x00000000000000000000000000000000000000000000003574f9308b426d18f6",
          "blockHash": "0x3562f1faec8d4c19bc3247767c9f61e4dbf9426e199ed599f2fa2a6cffa0f624",
          "blockNumber": "0x725020",
          "transactionHash": "0xe50e894844a021780a63e3b84dbe12b4a9a7b9770a7c4672785ee8049ba2588f",
          "transactionIndex": "0x7c",
          "logIndex": "0xd5",
          "removed": false
        },
        {
          "address": "0x5eb9cc76c3506942c1c0ead70e877dd5e4f00cb0",
          "topics": [
            "0xddf252ad1be2c89b69c2b068fc378daa952ba7f163c4a11628f55a4df523b3ef",
            "0x0000000000000000000000000000000000000000000000000000000000000000",
            "0x000000000000000000000000c77f7fed3b5cc8249adc428c5f44c9063b9734b4"
          ],
          "data": "0x0000000000000000000000000000000000000000000000002982d9402b08fd41",
          "blockHash": "0x3562f1faec8d4c19bc3247767c9f61e4dbf9426e199ed599f2fa2a6cffa0f624",
          "blockNumber": "0x725020",
          "transactionHash": "0xe50e894844a021780a63e3b84dbe12b4a9a7b9770a7c4672785ee8049ba2588f",
          "transactionIndex": "0x7c",
          "logIndex": "0xd6",
          "removed": false
        },
        {
          "address": "0x5eb9cc76c3506942c1c0ead70e877dd5e4f00cb0",
          "topics": [
            "0x4afcb4a87cdbd9974efdb92ee48bc8d7cd0ae4bf217004db3d080cbaee652ca7"
          ],
          "data": "0x000000000000000000000000000000000000000000000000000000006786b34c0000000000000000000000000000000000000000000000000003911606d4953e0000000000000000000000000000000000000000000000000de0b6b3a7640000",
          "blockHash": "0x3562f1faec8d4c19bc3247767c9f61e4dbf9426e199ed599f2fa2a6cffa0f624",
          "blockNumber": "0x725020",
          "transactionHash": "0xe50e894844a021780a63e3b84dbe12b4a9a7b9770a7c4672785ee8049ba2588f",
          "transactionIndex": "0x7c",
          "logIndex": "0xd7",
          "removed": false
        }
      ],
      "logsBloom": "0x00000000000000000000000000000000000000000000000000000000000000000000000000000000000000000000000000000000000000004000000000000000000000000000000000000008000000000000000000000000000000000000000000000000020000000000000004000800020000000000000000000010000000000000000000000000000000000000000000000000000000000000010000000000000000000000000000000000000000004000000000000000000000000000020000000002000000800000008000000000000000000000080000000000000020000000000000000000000000000000000000000000000000000000000000000000",
      "type": "0x2",
      "transactionHash": "0xe50e894844a021780a63e3b84dbe12b4a9a7b9770a7c4672785ee8049ba2588f",
      "transactionIndex": "0x7c",
      "blockHash": "0x3562f1faec8d4c19bc3247767c9f61e4dbf9426e199ed599f2fa2a6cffa0f624",
      "blockNumber": "0x725020",
      "gasUsed": "0x13af8",
      "effectiveGasPrice": "0x2f76de875",
      "from": "0xc77f7fed3b5cc8249adc428c5f44c9063b9734b4",
      "to": "0x5eb9cc76c3506942c1c0ead70e877dd5e4f00cb0",
      "contractAddress": null
    }
  ],
  "libraries": [],
  "pending": [],
  "returns": {},
  "timestamp": 1736880973,
  "chain": 11155111,
  "commit": "51a374b"
}