{
  "transactions": [
    {
      "hash": "0xe6c8fcd06b9dfd98eac7d7b081b72e8672fd38a3ea68b7de38e37d72ecc206df",
      "transactionType": "CALL",
      "contractName": null,
      "contractAddress": "0x8aafd3ede9adb0ff97c7aebce82a919afb1c8764",
      "function": "sell(uint256)",
      "arguments": [
        "3035073337413"
      ],
      "transaction": {
        "from": "0xc77f7fed3b5cc8249adc428c5f44c9063b9734b4",
        "to": "0x8aafd3ede9adb0ff97c7aebce82a919afb1c8764",
        "gas": "0x15daa",
        "value": "0x0",
        "input": "0xe4849b32000000000000000000000000000000000000000000000000000002c2a877d845",
        "nonce": "0xf9d",
        "chainId": "0xaa36a7"
      },
      "additionalContracts": [],
      "isFixedGasLimit": false
    }
  ],
  "receipts": [
    {
      "status": "0x1",
      "cumulativeGasUsed": "0xc44d77",
      "logs": [
        {
          "address": "0x8aafd3ede9adb0ff97c7aebce82a919afb1c8764",
          "topics": [
            "0xddf252ad1be2c89b69c2b068fc378daa952ba7f163c4a11628f55a4df523b3ef",
            "0x000000000000000000000000c77f7fed3b5cc8249adc428c5f44c9063b9734b4",
            "0x0000000000000000000000000000000000000000000000000000000000000000"
          ],
          "data": "0x000000000000000000000000000000000000000000000000000002bd013b7e7a",
          "blockHash": "0x7fb9fa537c739b1913471a5ede573bc96580ad5b41694214e450c3e0d12da668",
          "blockNumber": "0x731603",
          "transactionHash": "0xe6c8fcd06b9dfd98eac7d7b081b72e8672fd38a3ea68b7de38e37d72ecc206df",
          "transactionIndex": "0x7d",
          "logIndex": "0xc2",
          "removed": false
        },
        {
          "address": "0x8aafd3ede9adb0ff97c7aebce82a919afb1c8764",
          "topics": [
            "0xddf252ad1be2c89b69c2b068fc378daa952ba7f163c4a11628f55a4df523b3ef",
            "0x000000000000000000000000c77f7fed3b5cc8249adc428c5f44c9063b9734b4",
            "0x000000000000000000000000c77f7fed3b5cc8249adc428c5f44c9063b9734b4"
          ],
          "data": "0x00000000000000000000000000000000000000000000000000000005a73c59cb",
          "blockHash": "0x7fb9fa537c739b1913471a5ede573bc96580ad5b41694214e450c3e0d12da668",
          "blockNumber": "0x731603",
          "transactionHash": "0xe6c8fcd06b9dfd98eac7d7b081b72e8672fd38a3ea68b7de38e37d72ecc206df",
          "transactionIndex": "0x7d",
          "logIndex": "0xc3",
          "removed": false
        },
        {
          "address": "0x8aafd3ede9adb0ff97c7aebce82a919afb1c8764",
          "topics": [
            "0x4afcb4a87cdbd9974efdb92ee48bc8d7cd0ae4bf217004db3d080cbaee652ca7"
          ],
          "data": "0x00000000000000000000000000000000000000000000000000000000679004d00000000000000000000000000000000000000000000000000004c3273f4e3c2800000000000000000000000000000000000000000000000000000000f27f629e",
          "blockHash": "0x7fb9fa537c739b1913471a5ede573bc96580ad5b41694214e450c3e0d12da668",
          "blockNumber": "0x731603",
          "transactionHash": "0xe6c8fcd06b9dfd98eac7d7b081b72e8672fd38a3ea68b7de38e37d72ecc206df",
          "transactionIndex": "0x7d",
          "logIndex": "0xc4",
          "removed": false
        }
      ],
      "logsBloom": "0x00000000000000000000000000000000000000000600000000000000000000000000000000000000000000000000000000000000000000004000000000000000000000000000004000000008000000000000000000000000000000000000000000000000020000000000000000000800020000000000000000000010000000000000000000000000000000000000000000000000000000000000010000000000000000000000000000000000000000004000000000000000000000000000000000000002000000800000000000000000000000000000080000000000000020000000000000000000000000000000000000000000000000000000000000000000",
      "type": "0x2",
      "transactionHash": "0xe6c8fcd06b9dfd98eac7d7b081b72e8672fd38a3ea68b7de38e37d72ecc206df",
      "transactionIndex": "0x7d",
      "blockHash": "0x7fb9fa537c739b1913471a5ede573bc96580ad5b41694214e450c3e0d12da668",
      "blockNumber": "0x731603",
      "gasUsed": "0xfd27",
      "effectiveGasPrice": "0x5f451cbd",
      "from": "0xc77f7fed3b5cc8249adc428c5f44c9063b9734b4",
      "to": "0x8aafd3ede9adb0ff97c7aebce82a919afb1c8764",
      "contractAddress": null
    }
  ],
  "libraries": [],
  "pending": [],
  "returns": {},
  "timestamp": 1737491665,
  "chain": 11155111,
  "commit": "1d2fb70"
}