{
  "transactions": [
    {
      "hash": "0xcb4624cffa7a7ceb27a97c4b99876604de9858e044ab9328d7789b1643590ab0",
      "transactionType": "CALL",
      "contractName": null,
      "contractAddress": "0x5eb9cc76c3506942c1c0ead70e877dd5e4f00cb0",
      "function": "sell(uint256)",
      "arguments": [
        "989113703654884639180"
      ],
      "transaction": {
        "from": "0xc77f7fed3b5cc8249adc428c5f44c9063b9734b4",
        "to": "0x5eb9cc76c3506942c1c0ead70e877dd5e4f00cb0",
        "gas": "0x16fec",
        "value": "0x0",
        "input": "0xe4849b320000000000000000000000000000000000000000000000359eb5c8ecd46401cc",
        "nonce": "0x3ab",
        "chainId": "0xaa36a7"
      },
      "additionalContracts": [],
      "isFixedGasLimit": false
    }
  ],
  "receipts": [
    {
      "status": "0x1",
      "cumulativeGasUsed": "0xa6e0b7",
      "logs": [
        {
          "address": "0x5eb9cc76c3506942c1c0ead70e877dd5e4f00cb0",
          "topics": [
            "0xddf252ad1be2c89b69c2b068fc378daa952ba7f163c4a11628f55a4df523b3ef",
            "0x000000000000000000000000c77f7fed3b5cc8249adc428c5f44c9063b9734b4",
            "0x0000000000000000000000000000000000000000000000000000000000000000"
          ],
          "data": "0x0000000000000000000000000000000000000000000000359eb5c8ecd46401cc",
          "blockHash": "0xc59b812cf83a98cfd3b7a4f0c3530e11f7aaa21b78f3caf2b401de2d3d04c576",
          "blockNumber": "0x724fa9",
          "transactionHash": "0xcb4624cffa7a7ceb27a97c4b99876604de9858e044ab9328d7789b1643590ab0",
          "transactionIndex": "0x5e",
          "logIndex": "0x69",
          "removed": false
        },
        {
          "address": "0x5eb9cc76c3506942c1c0ead70e877dd5e4f00cb0",
          "topics": [
            "0x4afcb4a87cdbd9974efdb92ee48bc8d7cd0ae4bf217004db3d080cbaee652ca7"
          ],
          "data": "0x000000000000000000000000000000000000000000000000000000006786adac000000000000000000000000000000000000000000000000000391123bcda34f0000000000000000000000000000000000000000000000000dc7db1331ffd508",
          "blockHash": "0xc59b812cf83a98cfd3b7a4f0c3530e11f7aaa21b78f3caf2b401de2d3d04c576",
          "blockNumber": "0x724fa9",
          "transactionHash": "0xcb4624cffa7a7ceb27a97c4b99876604de9858e044ab9328d7789b1643590ab0",
          "transactionIndex": "0x5e",
          "logIndex": "0x6a",
          "removed": false
        }
      ],
      "logsBloom": "0x00000000000000000000000000000000000000000000000000000000000000000000000000000000000000000000000000000000000000004000000000000000000000000000000000000008000000000000000000000000000000000000000000000000020000000000000004000800020000000000000000000010000000000000000000000000000000000000000000000000000000000000010000000000000000000000000000000000000000004000000000000000000000000000020000000002000000800000008000000000000000000000080000000000000020000000000000000000000000000000000000000000000000000000000000000000",
      "type": "0x2",
      "transactionHash": "0xcb4624cffa7a7ceb27a97c4b99876604de9858e044ab9328d7789b1643590ab0",
      "transactionIndex": "0x5e",
      "blockHash": "0xc59b812cf83a98cfd3b7a4f0c3530e11f7aaa21b78f3caf2b401de2d3d04c576",
      "blockNumber": "0x724fa9",
      "gasUsed": "0xfb93",
      "effectiveGasPrice": "0x52c80adf9",
      "from": "0xc77f7fed3b5cc8249adc428c5f44c9063b9734b4",
      "to": "0x5eb9cc76c3506942c1c0ead70e877dd5e4f00cb0",
      "contractAddress": null
    }
  ],
  "libraries": [],
  "pending": [],
  "returns": {},
  "timestamp": 1736879533,
  "chain": 11155111,
  "commit": "51a374b"
}