{
  "transactions": [
    {
      "hash": "0x2ae1a5bbd5597d9cb725ae75d64048661395bd53520a03f3fa152302cea015d1",
      "transactionType": "CALL",
      "contractName": null,
      "contractAddress": "0x8aafd3ede9adb0ff97c7aebce82a919afb1c8764",
      "function": "sell(uint256)",
      "arguments": [
        "377456"
      ],
      "transaction": {
        "from": "0xc77f7fed3b5cc8249adc428c5f44c9063b9734b4",
        "to": "0x8aafd3ede9adb0ff97c7aebce82a919afb1c8764",
        "gas": "0x16208",
        "value": "0x0",
        "input": "0xe4849b32000000000000000000000000000000000000000000000000000000000005c270",
        "nonce": "0x15e7",
        "chainId": "0xaa36a7"
      },
      "additionalContracts": [],
      "isFixedGasLimit": false
    }
  ],
  "receipts": [
    {
      "status": "0x1",
      "cumulativeGasUsed": "0x1f73b6f",
      "logs": [
        {
          "address": "0x8aafd3ede9adb0ff97c7aebce82a919afb1c8764",
          "topics": [
            "0xddf252ad1be2c89b69c2b068fc378daa952ba7f163c4a11628f55a4df523b3ef",
            "0x000000000000000000000000c77f7fed3b5cc8249adc428c5f44c9063b9734b4",
            "0x0000000000000000000000000000000000000000000000000000000000000000"
          ],
          "data": "0x000000000000000000000000000000000000000000000000000000000005b6a5",
          "blockHash": "0xb2e9ce6b74126e231296dd5715a33bb832913345856a4dee47a1b6d737c3c1ee",
          "blockNumber": "0x731d6a",
          "transactionHash": "0x2ae1a5bbd5597d9cb725ae75d64048661395bd53520a03f3fa152302cea015d1",
          "transactionIndex": "0xd4",
          "logIndex": "0x16b",
          "removed": false
        },
        {
          "address": "0x8aafd3ede9adb0ff97c7aebce82a919afb1c8764",
          "topics": [
            "0xddf252ad1be2c89b69c2b068fc378daa952ba7f163c4a11628f55a4df523b3ef",
            "0x000000000000000000000000c77f7fed3b5cc8249adc428c5f44c9063b9734b4",
            "0x000000000000000000000000c77f7fed3b5cc8249adc428c5f44c9063b9734b4"
          ],
          "data": "0x0000000000000000000000000000000000000000000000000000000000000bcb",
          "blockHash": "0xb2e9ce6b74126e231296dd5715a33bb832913345856a4dee47a1b6d737c3c1ee",
          "blockNumber": "0x731d6a",
          "transactionHash": "0x2ae1a5bbd5597d9cb725ae75d64048661395bd53520a03f3fa152302cea015d1",
          "transactionIndex": "0xd4",
          "logIndex": "0x16c",
          "removed": false
        },
        {
          "address": "0x8aafd3ede9adb0ff97c7aebce82a919afb1c8764",
          "topics": [
            "0x4afcb4a87cdbd9974efdb92ee48bc8d7cd0ae4bf217004db3d080cbaee652ca7"
          ],
          "data": "0x0000000000000000000000000000000000000000000000000000000067905de00000000000000000000000000000000000000000000000000013b48955bbf3b0000000000000000000000000000000000000000000000000000000000000082d",
          "blockHash": "0xb2e9ce6b74126e231296dd5715a33bb832913345856a4dee47a1b6d737c3c1ee",
          "blockNumber": "0x731d6a",
          "transactionHash": "0x2ae1a5bbd5597d9cb725ae75d64048661395bd53520a03f3fa152302cea015d1",
          "transactionIndex": "0xd4",
          "logIndex": "0x16d",
          "removed": false
        }
      ],
      "logsBloom": "0x00000000000000000000000000000000000000000600000000000000000000000000000000000000000000000000000000000000000000004000000000000000000000000000004000000008000000000000000000000000000000000000000000000000020000000000000000000800020000000000000000000010000000000000000000000000000000000000000000000000000000000000010000000000000000000000000000000000000000004000000000000000000000000000000000000002000000800000000000000000000000000000080000000000000020000000000000000000000000000000000000000000000000000000000000000000",
      "type": "0x2",
      "transactionHash": "0x2ae1a5bbd5597d9cb725ae75d64048661395bd53520a03f3fa152302cea015d1",
      "transactionIndex": "0xd4",
      "blockHash": "0xb2e9ce6b74126e231296dd5715a33bb832913345856a4dee47a1b6d737c3c1ee",
      "blockNumber": "0x731d6a",
      "gasUsed": "0xf213",
      "effectiveGasPrice": "0x5d4d09cc",
      "from": "0xc77f7fed3b5cc8249adc428c5f44c9063b9734b4",
      "to": "0x8aafd3ede9adb0ff97c7aebce82a919afb1c8764",
      "contractAddress": null
    }
  ],
  "libraries": [],
  "pending": [],
  "returns": {},
  "timestamp": 1737514465,
  "chain": 11155111,
  "commit": "1d2fb70"
}