{
  "transactions": [
    {
      "hash": "0x780d388801a9dbd5304c70db3ac480a90a5b6bd4f2c5fe17a7522b48851aaf3c",
      "transactionType": "CALL",
      "contractName": null,
      "contractAddress": "0x8aafd3ede9adb0ff97c7aebce82a919afb1c8764",
      "function": "sell(uint256)",
      "arguments": [
        "12374661098560416"
      ],
      "transaction": {
        "from": "0xc77f7fed3b5cc8249adc428c5f44c9063b9734b4",
        "to": "0x8aafd3ede9adb0ff97c7aebce82a919afb1c8764",
        "gas": "0x1724d",
        "value": "0x0",
        "input": "0xe4849b32000000000000000000000000000000000000000000000000002bf6b04efedba0",
        "nonce": "0x156d",
        "chainId": "0xaa36a7"
      },
      "additionalContracts": [],
      "isFixedGasLimit": false
    }
  ],
  "receipts": [
    {
      "status": "0x1",
      "cumulativeGasUsed": "0x5ffa26",
      "logs": [
        {
          "address": "0x8aafd3ede9adb0ff97c7aebce82a919afb1c8764",
          "topics": [
            "0xddf252ad1be2c89b69c2b068fc378daa952ba7f163c4a11628f55a4df523b3ef",
            "0x000000000000000000000000c77f7fed3b5cc8249adc428c5f44c9063b9734b4",
            "0x0000000000000000000000000000000000000000000000000000000000000000"
          ],
          "data": "0x000000000000000000000000000000000000000000000000002b9ca6b4c3799d",
          "blockHash": "0x9690b672503267bf70982706ac5e1647525502f7a823cc18a0a129d7094ce9b7",
          "blockNumber": "0x731cd6",
          "transactionHash": "0x780d388801a9dbd5304c70db3ac480a90a5b6bd4f2c5fe17a7522b48851aaf3c",
          "transactionIndex": "0x45",
          "logIndex": "0x60",
          "removed": false
        },
        {
          "address": "0x8aafd3ede9adb0ff97c7aebce82a919afb1c8764",
          "topics": [
            "0xddf252ad1be2c89b69c2b068fc378daa952ba7f163c4a11628f55a4df523b3ef",
            "0x000000000000000000000000c77f7fed3b5cc8249adc428c5f44c9063b9734b4",
            "0x000000000000000000000000c77f7fed3b5cc8249adc428c5f44c9063b9734b4"
          ],
          "data": "0x00000000000000000000000000000000000000000000000000005a099a3b6203",
          "blockHash": "0x9690b672503267bf70982706ac5e1647525502f7a823cc18a0a129d7094ce9b7",
          "blockNumber": "0x731cd6",
          "transactionHash": "0x780d388801a9dbd5304c70db3ac480a90a5b6bd4f2c5fe17a7522b48851aaf3c",
          "transactionIndex": "0x45",
          "logIndex": "0x61",
          "removed": false
        },
        {
          "address": "0x8aafd3ede9adb0ff97c7aebce82a919afb1c8764",
          "topics": [
            "0x4afcb4a87cdbd9974efdb92ee48bc8d7cd0ae4bf217004db3d080cbaee652ca7"
          ],
          "data": "0x00000000000000000000000000000000000000000000000000000000679056f00000000000000000000000000000000000000000000000000012598247f07b2700000000000000000000000000000000000000000000000000003a214bef4b77",
          "blockHash": "0x9690b672503267bf70982706ac5e1647525502f7a823cc18a0a129d7094ce9b7",
          "blockNumber": "0x731cd6",
          "transactionHash": "0x780d388801a9dbd5304c70db3ac480a90a5b6bd4f2c5fe17a7522b48851aaf3c",
          "transactionIndex": "0x45",
          "logIndex": "0x62",
          "removed": false
        }
      ],
      "logsBloom": "0x00000000000000000000000000000000000000000600000000000000000000000000000000000000000000000000000000000000000000004000000000000000000000000000004000000008000000000000000000000000000000000000000000000000020000000000000000000800020000000000000000000010000000000000000000000000000000000000000000000000000000000000010000000000000000000000000000000000000000004000000000000000000000000000000000000002000000800000000000000000000000000000080000000000000020000000000000000000000000000000000000000000000000000000000000000000",
      "type": "0x2",
      "transactionHash": "0x780d388801a9dbd5304c70db3ac480a90a5b6bd4f2c5fe17a7522b48851aaf3c",
      "transactionIndex": "0x45",
      "blockHash": "0x9690b672503267bf70982706ac5e1647525502f7a823cc18a0a129d7094ce9b7",
      "blockNumber": "0x731cd6",
      "gasUsed": "0xfd33",
      "effectiveGasPrice": "0x884af8c4",
      "from": "0xc77f7fed3b5cc8249adc428c5f44c9063b9734b4",
      "to": "0x8aafd3ede9adb0ff97c7aebce82a919afb1c8764",
      "contractAddress": null
    }
  ],
  "libraries": [],
  "pending": [],
  "returns": {},
  "timestamp": 1737512689,
  "chain": 11155111,
  "commit": "1d2fb70"
}