{
  "transactions": [
    {
      "hash": "0x065b5e9ddb54f941f434b23863952b1dfb1fdfb69a5686b4f48a680f0eb60246",
      "transactionType": "CALL",
      "contractName": null,
      "contractAddress": "0x8aafd3ede9adb0ff97c7aebce82a919afb1c8764",
      "function": "sell(uint256)",
      "arguments": [
        "21799515152"
      ],
      "transaction": {
        "from": "0xc77f7fed3b5cc8249adc428c5f44c9063b9734b4",
        "to": "0x8aafd3ede9adb0ff97c7aebce82a919afb1c8764",
        "gas": "0x1722a",
        "value": "0x0",
        "input": "0xe4849b3200000000000000000000000000000000000000000000000000000005135a3410",
        "nonce": "0x12d0",
        "chainId": "0xaa36a7"
      },
      "additionalContracts": [],
      "isFixedGasLimit": false
    }
  ],
  "receipts": [
    {
      "status": "0x1",
      "cumulativeGasUsed": "0x98cb01",
      "logs": [
        {
          "address": "0x8aafd3ede9adb0ff97c7aebce82a919afb1c8764",
          "topics": [
            "0xddf252ad1be2c89b69c2b068fc378daa952ba7f163c4a11628f55a4df523b3ef",
            "0x000000000000000000000000c77f7fed3b5cc8249adc428c5f44c9063b9734b4",
            "0x0000000000000000000000000000000000000000000000000000000000000000"
          ],
          "data": "0x0000000000000000000000000000000000000000000000000000000508f52137",
          "blockHash": "0xfa145a42dfbeef2ab0485acdcb6d3c618365aa5f8bd26b18534e057cc49b9330",
          "blockNumber": "0x7319cd",
          "transactionHash": "0x065b5e9ddb54f941f434b23863952b1dfb1fdfb69a5686b4f48a680f0eb60246",
          "transactionIndex": "0x61",
          "logIndex": "0x8d",
          "removed": false
        },
        {
          "address": "0x8aafd3ede9adb0ff97c7aebce82a919afb1c8764",
          "topics": [
            "0xddf252ad1be2c89b69c2b068fc378daa952ba7f163c4a11628f55a4df523b3ef",
            "0x000000000000000000000000c77f7fed3b5cc8249adc428c5f44c9063b9734b4",
            "0x000000000000000000000000c77f7fed3b5cc8249adc428c5f44c9063b9734b4"
          ],
          "data": "0x000000000000000000000000000000000000000000000000000000000a6512d9",
          "blockHash": "0xfa145a42dfbeef2ab0485acdcb6d3c618365aa5f8bd26b18534e057cc49b9330",
          "blockNumber": "0x7319cd",
          "transactionHash": "0x065b5e9ddb54f941f434b23863952b1dfb1fdfb69a5686b4f48a680f0eb60246",
          "transactionIndex": "0x61",
          "logIndex": "0x8e",
          "removed": false
        },
        {
          "address": "0x8aafd3ede9adb0ff97c7aebce82a919afb1c8764",
          "topics": [
            "0x4afcb4a87cdbd9974efdb92ee48bc8d7cd0ae4bf217004db3d080cbaee652ca7"
          ],
          "data": "0x000000000000000000000000000000000000000000000000000000006790326c00000000000000000000000000000000000000000000000000054eff484973f60000000000000000000000000000000000000000000000000000000001f10877",
          "blockHash": "0xfa145a42dfbeef2ab0485acdcb6d3c618365aa5f8bd26b18534e057cc49b9330",
          "blockNumber": "0x7319cd",
          "transactionHash": "0x065b5e9ddb54f941f434b23863952b1dfb1fdfb69a5686b4f48a680f0eb60246",
          "transactionIndex": "0x61",
          "logIndex": "0x8f",
          "removed": false
        }
      ],
      "logsBloom": "0x00000000000000000000000000000000000000000600000000000000000000000000000000000000000000000000000000000000000000004000000000000000000000000000004000000008000000000000000000000000000000000000000000000000020000000000000000000800020000000000000000000010000000000000000000000000000000000000000000000000000000000000010000000000000000000000000000000000000000004000000000000000000000000000000000000002000000800000000000000000000000000000080000000000000020000000000000000000000000000000000000000000000000000000000000000000",
      "type": "0x2",
      "transactionHash": "0x065b5e9ddb54f941f434b23863952b1dfb1fdfb69a5686b4f48a680f0eb60246",
      "transactionIndex": "0x61",
      "blockHash": "0xfa145a42dfbeef2ab0485acdcb6d3c618365aa5f8bd26b18534e057cc49b9330",
      "blockNumber": "0x7319cd",
      "gasUsed": "0xfd1b",
      "effectiveGasPrice": "0x45733346",
      "from": "0xc77f7fed3b5cc8249adc428c5f44c9063b9734b4",
      "to": "0x8aafd3ede9adb0ff97c7aebce82a919afb1c8764",
      "contractAddress": null
    }
  ],
  "libraries": [],
  "pending": [],
  "returns": {},
  "timestamp": 1737503341,
  "chain": 11155111,
  "commit": "1d2fb70"
}