{
  "transactions": [
    {
      "hash": "0xc0bac26b1618782143a8ae0bf94ffe8b73c8902ea7263ab167c9dd73534edbd3",
      "transactionType": "CALL",
      "contractName": null,
      "contractAddress": "0x8aafd3ede9adb0ff97c7aebce82a919afb1c8764",
      "function": "sell(uint256)",
      "arguments": [
        "1404188"
      ],
      "transaction": {
        "from": "0xc77f7fed3b5cc8249adc428c5f44c9063b9734b4",
        "to": "0x8aafd3ede9adb0ff97c7aebce82a919afb1c8764",
        "gas": "0x16208",
        "value": "0x0",
        "input": "0xe4849b320000000000000000000000000000000000000000000000000000000000156d1c",
        "nonce": "0x1296",
        "chainId": "0xaa36a7"
      },
      "additionalContracts": [],
      "isFixedGasLimit": false
    }
  ],
  "receipts": [
    {
      "status": "0x1",
      "cumulativeGasUsed": "0x98e4e9",
      "logs": [
        {
          "address": "0x8aafd3ede9adb0ff97c7aebce82a919afb1c8764",
          "topics": [
            "0xddf252ad1be2c89b69c2b068fc378daa952ba7f163c4a11628f55a4df523b3ef",
            "0x000000000000000000000000c77f7fed3b5cc8249adc428c5f44c9063b9734b4",
            "0x0000000000000000000000000000000000000000000000000000000000000000"
          ],
          "data": "0x000000000000000000000000000000000000000000000000000000000015413b",
          "blockHash": "0x6d2496dc6c8c294c11e71acfb268b75a8279bc4159e8fc242d2b93b4e102ba11",
          "blockNumber": "0x731987",
          "transactionHash": "0xc0bac26b1618782143a8ae0bf94ffe8b73c8902ea7263ab167c9dd73534edbd3",
          "transactionIndex": "0x6d",
          "logIndex": "0x84",
          "removed": false
        },
        {
          "address": "0x8aafd3ede9adb0ff97c7aebce82a919afb1c8764",
          "topics": [
            "0xddf252ad1be2c89b69c2b068fc378daa952ba7f163c4a11628f55a4df523b3ef",
            "0x000000000000000000000000c77f7fed3b5cc8249adc428c5f44c9063b9734b4",
            "0x000000000000000000000000c77f7fed3b5cc8249adc428c5f44c9063b9734b4"
          ],
          "data": "0x0000000000000000000000000000000000000000000000000000000000002be1",
          "blockHash": "0x6d2496dc6c8c294c11e71acfb268b75a8279bc4159e8fc242d2b93b4e102ba11",
          "blockNumber": "0x731987",
          "transactionHash": "0xc0bac26b1618782143a8ae0bf94ffe8b73c8902ea7263ab167c9dd73534edbd3",
          "transactionIndex": "0x6d",
          "logIndex": "0x85",
          "removed": false
        },
        {
          "address": "0x8aafd3ede9adb0ff97c7aebce82a919afb1c8764",
          "topics": [
            "0x4afcb4a87cdbd9974efdb92ee48bc8d7cd0ae4bf217004db3d080cbaee652ca7"
          ],
          "data": "0x0000000000000000000000000000000000000000000000000000000067902f2400000000000000000000000000000000000000000000000000054646dddfdbbd0000000000000000000000000000000000000000000000000000000000000824",
          "blockHash": "0x6d2496dc6c8c294c11e71acfb268b75a8279bc4159e8fc242d2b93b4e102ba11",
          "blockNumber": "0x731987",
          "transactionHash": "0xc0bac26b1618782143a8ae0bf94ffe8b73c8902ea7263ab167c9dd73534edbd3",
          "transactionIndex": "0x6d",
          "logIndex": "0x86",
          "removed": false
        }
      ],
      "logsBloom": "0x00000000000000000000000000000000000000000600000000000000000000000000000000000000000000000000000000000000000000004000000000000000000000000000004000000008000000000000000000000000000000000000000000000000020000000000000000000800020000000000000000000010000000000000000000000000000000000000000000000000000000000000010000000000000000000000000000000000000000004000000000000000000000000000000000000002000000800000000000000000000000000000080000000000000020000000000000000000000000000000000000000000000000000000000000000000",
      "type": "0x2",
      "transactionHash": "0xc0bac26b1618782143a8ae0bf94ffe8b73c8902ea7263ab167c9dd73534edbd3",
      "transactionIndex": "0x6d",
      "blockHash": "0x6d2496dc6c8c294c11e71acfb268b75a8279bc4159e8fc242d2b93b4e102ba11",
      "blockNumber": "0x731987",
      "gasUsed": "0xf213",
      "effectiveGasPrice": "0x37e4547d",
      "from": "0xc77f7fed3b5cc8249adc428c5f44c9063b9734b4",
      "to": "0x8aafd3ede9adb0ff97c7aebce82a919afb1c8764",
      "contractAddress": null
    }
  ],
  "libraries": [],
  "pending": [],
  "returns": {},
  "timestamp": 1737502501,
  "chain": 11155111,
  "commit": "1d2fb70"
}