{
  "transactions": [
    {
      "hash": "0xe111bb0f50f88651764f5c8effb92e4c09c09acd8396d3b468cf75860604bb42",
      "transactionType": "CALL",
      "contractName": null,
      "contractAddress": "0x8aafd3ede9adb0ff97c7aebce82a919afb1c8764",
      "function": "sell(uint256)",
      "arguments": [
        "103109487937698"
      ],
      "transaction": {
        "from": "0xc77f7fed3b5cc8249adc428c5f44c9063b9734b4",
        "to": "0x8aafd3ede9adb0ff97c7aebce82a919afb1c8764",
        "gas": "0x15daa",
        "value": "0x0",
        "input": "0xe4849b3200000000000000000000000000000000000000000000000000005dc70c66c8a2",
        "nonce": "0x152f",
        "chainId": "0xaa36a7"
      },
      "additionalContracts": [],
      "isFixedGasLimit": false
    }
  ],
  "receipts": [
    {
      "status": "0x1",
      "cumulativeGasUsed": "0x94d6b2",
      "logs": [
        {
          "address": "0x8aafd3ede9adb0ff97c7aebce82a919afb1c8764",
          "topics": [
            "0xddf252ad1be2c89b69c2b068fc378daa952ba7f163c4a11628f55a4df523b3ef",
            "0x000000000000000000000000c77f7fed3b5cc8249adc428c5f44c9063b9734b4",
            "0x0000000000000000000000000000000000000000000000000000000000000000"
          ],
          "data": "0x00000000000000000000000000000000000000000000000000005d06fdf75e95",
          "blockHash": "0xcfa6a4a41b944511a343cc349a936d8a40af2e3ffe062864fd230c6489501a7d",
          "blockNumber": "0x731c91",
          "transactionHash": "0xe111bb0f50f88651764f5c8effb92e4c09c09acd8396d3b468cf75860604bb42",
          "transactionIndex": "0x6f",
          "logIndex": "0x98",
          "removed": false
        },
        {
          "address": "0x8aafd3ede9adb0ff97c7aebce82a919afb1c8764",
          "topics": [
            "0xddf252ad1be2c89b69c2b068fc378daa952ba7f163c4a11628f55a4df523b3ef",
            "0x000000000000000000000000c77f7fed3b5cc8249adc428c5f44c9063b9734b4",
            "0x000000000000000000000000c77f7fed3b5cc8249adc428c5f44c9063b9734b4"
          ],
          "data": "0x000000000000000000000000000000000000000000000000000000c00e6f6a0d",
          "blockHash": "0xcfa6a4a41b944511a343cc349a936d8a40af2e3ffe062864fd230c6489501a7d",
          "blockNumber": "0x731c91",
          "transactionHash": "0xe111bb0f50f88651764f5c8effb92e4c09c09acd8396d3b468cf75860604bb42",
          "transactionIndex": "0x6f",
          "logIndex": "0x99",
          "removed": false
        },
        {
          "address": "0x8aafd3ede9adb0ff97c7aebce82a919afb1c8764",
          "topics": [
            "0x4afcb4a87cdbd9974efdb92ee48bc8d7cd0ae4bf217004db3d080cbaee652ca7"
          ],
          "data": "0x00000000000000000000000000000000000000000000000000000000679053a800000000000000000000000000000000000000000000000000119f2bc1a54c8c0000000000000000000000000000000000000000000000000000007713b621a3",
          "blockHash": "0xcfa6a4a41b944511a343cc349a936d8a40af2e3ffe062864fd230c6489501a7d",
          "blockNumber": "0x731c91",
          "transactionHash": "0xe111bb0f50f88651764f5c8effb92e4c09c09acd8396d3b468cf75860604bb42",
          "transactionIndex": "0x6f",
          "logIndex": "0x9a",
          "removed": false
        }
      ],
      "logsBloom": "0x00000000000000000000000000000000000000000600000000000000000000000000000000000000000000000000000000000000000000004000000000000000000000000000004000000008000000000000000000000000000000000000000000000000020000000000000000000800020000000000000000000010000000000000000000000000000000000000000000000000000000000000010000000000000000000000000000000000000000004000000000000000000000000000000000000002000000800000000000000000000000000000080000000000000020000000000000000000000000000000000000000000000000000000000000000000",
      "type": "0x2",
      "transactionHash": "0xe111bb0f50f88651764f5c8effb92e4c09c09acd8396d3b468cf75860604bb42",
      "transactionIndex": "0x6f",
      "blockHash": "0xcfa6a4a41b944511a343cc349a936d8a40af2e3ffe062864fd230c6489501a7d",
      "blockNumber": "0x731c91",
      "gasUsed": "0xfd27",
      "effectiveGasPrice": "0x101773c88",
      "from": "0xc77f7fed3b5cc8249adc428c5f44c9063b9734b4",
      "to": "0x8aafd3ede9adb0ff97c7aebce82a919afb1c8764",
      "contractAddress": null
    }
  ],
  "libraries": [],
  "pending": [],
  "returns": {},
  "timestamp": 1737511849,
  "chain": 11155111,
  "commit": "1d2fb70"
}