{
  "transactions": [
    {
      "hash": "0xda646d64a61cc42e06b3013a6ab1b28a4325eb19965d9fee4a3e184565b7c838",
      "transactionType": "CALL",
      "contractName": null,
      "contractAddress": "0x270e88f8683660553e8ba4eb2ad7c91a1710d769",
      "function": "sell(uint256)",
      "arguments": [
        "708797211979891319346"
      ],
      "transaction": {
        "from": "0xc77f7fed3b5cc8249adc428c5f44c9063b9734b4",
        "to": "0x270e88f8683660553e8ba4eb2ad7c91a1710d769",
        "gas": "0x16fec",
        "value": "0x0",
        "input": "0xe4849b320000000000000000000000000000000000000000000000266c898ced58aba232",
        "nonce": "0x8aa",
        "chainId": "0xaa36a7"
      },
      "additionalContracts": [],
      "isFixedGasLimit": false
    }
  ],
  "receipts": [
    {
      "status": "0x1",
      "cumulativeGasUsed": "0xb9ce82",
      "logs": [
        {
          "address": "0x270e88f8683660553e8ba4eb2ad7c91a1710d769",
          "topics": [
            "0xddf252ad1be2c89b69c2b068fc378daa952ba7f163c4a11628f55a4df523b3ef",
            "0x000000000000000000000000c77f7fed3b5cc8249adc428c5f44c9063b9734b4",
            "0x0000000000000000000000000000000000000000000000000000000000000000"
          ],
          "data": "0x0000000000000000000000000000000000000000000000266c898ced58aba232",
          "blockHash": "0x6422da2e6f71b4c64ff5bbbf669432cf4cf5915f779663e253e78af07d5478fc",
          "blockNumber": "0x725609",
          "transactionHash": "0xda646d64a61cc42e06b3013a6ab1b28a4325eb19965d9fee4a3e184565b7c838",
          "transactionIndex": "0x43",
          "logIndex": "0x121",
          "removed": false
        },
        {
          "address": "0x270e88f8683660553e8ba4eb2ad7c91a1710d769",
          "topics": [
            "0x4afcb4a87cdbd9974efdb92ee48bc8d7cd0ae4bf217004db3d080cbaee652ca7"
          ],
          "data": "0x000000000000000000000000000000000000000000000000000000006786fa740000000000000000000000000000000000000000000000000004fa778bf5bb420000000000000000000000000000000000000000000000000dc82544d9e84765",
          "blockHash": "0x6422da2e6f71b4c64ff5bbbf669432cf4cf5915f779663e253e78af07d5478fc",
          "blockNumber": "0x725609",
          "transactionHash": "0xda646d64a61cc42e06b3013a6ab1b28a4325eb19965d9fee4a3e184565b7c838",
          "transactionIndex": "0x43",
          "logIndex": "0x122",
          "removed": false
        }
      ],
      "logsBloom": "0x00000000000000000000000000000000000000000000000000000000000000000000000000000000000000000000000020000000000000004000000000000000000000000000000000000008000000000000000000000000000000000000000000000000020000000000000000000800020000000000000000000010000000000000000000010000000000000000000000000000000000000000010000000000000000000000000000000000000000004000000000000000000000000000000000000002000000800000000000000000000000000000080000008000000020000000000000000000000000000000000000000000000000000000000000000000",
      "type": "0x2",
      "transactionHash": "0xda646d64a61cc42e06b3013a6ab1b28a4325eb19965d9fee4a3e184565b7c838",
      "transactionIndex": "0x43",
      "blockHash": "0x6422da2e6f71b4c64ff5bbbf669432cf4cf5915f779663e253e78af07d5478fc",
      "blockNumber": "0x725609",
      "gasUsed": "0xfb93",
      "effectiveGasPrice": "0x862163d2",
      "from": "0xc77f7fed3b5cc8249adc428c5f44c9063b9734b4",
      "to": "0x270e88f8683660553e8ba4eb2ad7c91a1710d769",
      "contractAddress": null
    }
  ],
  "libraries": [],
  "pending": [],
  "returns": {},
  "timestamp": 1736899190,
  "chain": 11155111,
  "commit": "51a374b"
}