{
  "transactions": [
    {
      "hash": "0xfa4d2b3e8a1b698acfc1f18571301d1b01d6838a6aef66944d7fb58bb0e512ea",
      "transactionType": "CALL",
      "contractName": null,
      "contractAddress": "0x8aafd3ede9adb0ff97c7aebce82a919afb1c8764",
      "function": "sell(uint256)",
      "arguments": [
        "667412028465097579833"
      ],
      "transaction": {
        "from": "0xc77f7fed3b5cc8249adc428c5f44c9063b9734b4",
        "to": "0x8aafd3ede9adb0ff97c7aebce82a919afb1c8764",
        "gas": "0x17270",
        "value": "0x0",
        "input": "0xe4849b320000000000000000000000000000000000000000000000242e33d7c9dd099d39",
        "nonce": "0x12ad",
        "chainId": "0xaa36a7"
      },
      "additionalContracts": [],
      "isFixedGasLimit": false
    }
  ],
  "receipts": [
    {
      "status": "0x1",
      "cumulativeGasUsed": "0xd81074",
      "logs": [
        {
          "address": "0x8aafd3ede9adb0ff97c7aebce82a919afb1c8764",
          "topics": [
            "0xddf252ad1be2c89b69c2b068fc378daa952ba7f163c4a11628f55a4df523b3ef",
            "0x000000000000000000000000c77f7fed3b5cc8249adc428c5f44c9063b9734b4",
            "0x0000000000000000000000000000000000000000000000000000000000000000"
          ],
          "data": "0x000000000000000000000000000000000000000000000023e41ada28812841db",
          "blockHash": "0xbecd15111664172ffb2b970859eed69366f72e8435828b139fc48a49e5d88bf6",
          "blockNumber": "0x7319a3",
          "transactionHash": "0xfa4d2b3e8a1b698acfc1f18571301d1b01d6838a6aef66944d7fb58bb0e512ea",
          "transactionIndex": "0x7b",
          "logIndex": "0x7f",
          "removed": false
        },
        {
          "address": "0x8aafd3ede9adb0ff97c7aebce82a919afb1c8764",
          "topics": [
            "0xddf252ad1be2c89b69c2b068fc378daa952ba7f163c4a11628f55a4df523b3ef",
            "0x000000000000000000000000c77f7fed3b5cc8249adc428c5f44c9063b9734b4",
            "0x000000000000000000000000c77f7fed3b5cc8249adc428c5f44c9063b9734b4"
          ],
          "data": "0x0000000000000000000000000000000000000000000000004a18fda15be15b5e",
          "blockHash": "0xbecd15111664172ffb2b970859eed69366f72e8435828b139fc48a49e5d88bf6",
          "blockNumber": "0x7319a3",
          "transactionHash": "0xfa4d2b3e8a1b698acfc1f18571301d1b01d6838a6aef66944d7fb58bb0e512ea",
          "transactionIndex": "0x7b",
          "logIndex": "0x80",
          "removed": false
        },
        {
          "address": "0x8aafd3ede9adb0ff97c7aebce82a919afb1c8764",
          "topics": [
            "0x4afcb4a87cdbd9974efdb92ee48bc8d7cd0ae4bf217004db3d080cbaee652ca7"
          ],
          "data": "0x000000000000000000000000000000000000000000000000000000006790307400000000000000000000000000000000000000000000000000054aa0ea0a60bd0000000000000000000000000000000000000000000000000dc8ece13a860819",
          "blockHash": "0xbecd15111664172ffb2b970859eed69366f72e8435828b139fc48a49e5d88bf6",
          "blockNumber": "0x7319a3",
          "transactionHash": "0xfa4d2b3e8a1b698acfc1f18571301d1b01d6838a6aef66944d7fb58bb0e512ea",
          "transactionIndex": "0x7b",
          "logIndex": "0x81",
          "removed": false
        }
      ],
      "logsBloom": "0x00000000000000000000000000000000000000000600000000000000000000000000000000000000000000000000000000000000000000004000000000000000000000000000004000000008000000000000000000000000000000000000000000000000020000000000000000000800020000000000000000000010000000000000000000000000000000000000000000000000000000000000010000000000000000000000000000000000000000004000000000000000000000000000000000000002000000800000000000000000000000000000080000000000000020000000000000000000000000000000000000000000000000000000000000000000",
      "type": "0x2",
      "transactionHash": "0xfa4d2b3e8a1b698acfc1f18571301d1b01d6838a6aef66944d7fb58bb0e512ea",
      "transactionIndex": "0x7b",
      "blockHash": "0xbecd15111664172ffb2b970859eed69366f72e8435828b139fc48a49e5d88bf6",
      "blockNumber": "0x7319a3",
      "gasUsed": "0xfd4b",
      "effectiveGasPrice": "0x3f3300e4",
      "from": "0xc77f7fed3b5cc8249adc428c5f44c9063b9734b4",
      "to": "0x8aafd3ede9adb0ff97c7aebce82a919afb1c8764",
      "contractAddress": null
    }
  ],
  "libraries": [],
  "pending": [],
  "returns": {},
  "timestamp": 1737502838,
  "chain": 11155111,
  "commit": "1d2fb70"
}