{
  "transactions": [
    {
      "hash": "0xae0573244c0f26010400af1d9f0db0497c84fae5d607d8fc235cf72657b1cbc8",
      "transactionType": "CALL",
      "contractName": null,
      "contractAddress": "0xbf4a322f1496e5c3d34a9bcdb4c60567b38c7de2",
      "function": "sell(uint256)",
      "arguments": [
        "978216798856287659347"
      ],
      "transaction": {
        "from": "0xc77f7fed3b5cc8249adc428c5f44c9063b9734b4",
        "to": "0xbf4a322f1496e5c3d34a9bcdb4c60567b38c7de2",
        "gas": "0x16fea",
        "value": "0x0",
        "input": "0xe4849b32000000000000000000000000000000000000000000000035077c33bebcc4a553",
        "nonce": "0xc9d",
        "chainId": "0xaa36a7"
      },
      "additionalContracts": [],
      "isFixedGasLimit": false
    }
  ],
  "receipts": [
    {
      "status": "0x1",
      "cumulativeGasUsed": "0xa579da",
      "logs": [
        {
          "address": "0xbf4a322f1496e5c3d34a9bcdb4c60567b38c7de2",
          "topics": [
            "0xddf252ad1be2c89b69c2b068fc378daa952ba7f163c4a11628f55a4df523b3ef",
            "0x000000000000000000000000c77f7fed3b5cc8249adc428c5f44c9063b9734b4",
            "0x0000000000000000000000000000000000000000000000000000000000000000"
          ],
          "data": "0x000000000000000000000000000000000000000000000035077c33bebcc4a553",
          "blockHash": "0x137bf20c3c2a6fadf28b6172a9a30f2ac418f360efe081ae32b7690e201c2846",
          "blockNumber": "0x725ce6",
          "transactionHash": "0xae0573244c0f26010400af1d9f0db0497c84fae5d607d8fc235cf72657b1cbc8",
          "transactionIndex": "0x59",
          "logIndex": "0x8a",
          "removed": false
        },
        {
          "address": "0xbf4a322f1496e5c3d34a9bcdb4c60567b38c7de2",
          "topics": [
            "0x4afcb4a87cdbd9974efdb92ee48bc8d7cd0ae4bf217004db3d080cbaee652ca7"
          ],
          "data": "0x0000000000000000000000000000000000000000000000000000000067874d3c00000000000000000000000000000000000000000000000000039b4473bf6f790000000000000000000000000000000000000000000000000dc7e3ddeb9970da",
          "blockHash": "0x137bf20c3c2a6fadf28b6172a9a30f2ac418f360efe081ae32b7690e201c2846",
          "blockNumber": "0x725ce6",
          "transactionHash": "0xae0573244c0f26010400af1d9f0db0497c84fae5d607d8fc235cf72657b1cbc8",
          "transactionIndex": "0x59",
          "logIndex": "0x8b",
          "removed": false
        }
      ],
      "logsBloom": "0x00000000000000000000000000000000000000000000000000000000000000000000000000000000000000000000000000000000000000004000000000000000000000000000000000000008000000000000001000000000000000000000000000000000020000000000000000000800020000000000000000000010000000000000000000000000000000000000000000000000000008000000010000000000000000000000000000000000000000004000000000000000000000000000000000000002000000800000000000001000000000000000080000000000000020000000000000000000000000000000000000000000000000000000000000000000",
      "type": "0x2",
      "transactionHash": "0xae0573244c0f26010400af1d9f0db0497c84fae5d607d8fc235cf72657b1cbc8",
      "transactionIndex": "0x59",
      "blockHash": "0x137bf20c3c2a6fadf28b6172a9a30f2ac418f360efe081ae32b7690e201c2846",
      "blockNumber": "0x725ce6",
      "gasUsed": "0xfb91",
      "effectiveGasPrice": "0x26f870db6",
      "from": "0xc77f7fed3b5cc8249adc428c5f44c9063b9734b4",
      "to": "0xbf4a322f1496e5c3d34a9bcdb4c60567b38c7de2",
      "contractAddress": null
    }
  ],
  "libraries": [],
  "pending": [],
  "returns": {},
  "timestamp": 1736920381,
  "chain": 11155111,
  "commit": "51a374b"
}