{
  "transactions": [
    {
      "hash": "0xce8cb53361494b9f5a3638f28b02c61d9de650470e8854132e9fe05dced24e5e",
      "transactionType": "CALL",
      "contractName": null,
      "contractAddress": "0x8aafd3ede9adb0ff97c7aebce82a919afb1c8764",
      "function": "sell(uint256)",
      "arguments": [
        "1569785"
      ],
      "transaction": {
        "from": "0xc77f7fed3b5cc8249adc428c5f44c9063b9734b4",
        "to": "0x8aafd3ede9adb0ff97c7aebce82a919afb1c8764",
        "gas": "0x16208",
        "value": "0x0",
        "input": "0xe4849b32000000000000000000000000000000000000000000000000000000000017f3f9",
        "nonce": "0xe99",
        "chainId": "0xaa36a7"
      },
      "additionalContracts": [],
      "isFixedGasLimit": false
    }
  ],
  "receipts": [
    {
      "status": "0x1",
      "cumulativeGasUsed": "0x13e73b9",
      "logs": [
        {
          "address": "0x8aafd3ede9adb0ff97c7aebce82a919afb1c8764",
          "topics": [
            "0xddf252ad1be2c89b69c2b068fc378daa952ba7f163c4a11628f55a4df523b3ef",
            "0x000000000000000000000000c77f7fed3b5cc8249adc428c5f44c9063b9734b4",
            "0x0000000000000000000000000000000000000000000000000000000000000000"
          ],
          "data": "0x000000000000000000000000000000000000000000000000000000000017c2eb",
          "blockHash": "0x625ef11df89461727aa841b2fa2975a7120363a5552e2632987408976d1ba072",
          "blockNumber": "0x7313f8",
          "transactionHash": "0xce8cb53361494b9f5a3638f28b02c61d9de650470e8854132e9fe05dced24e5e",
          "transactionIndex": "0xba",
          "logIndex": "0x15c",
          "removed": false
        },
        {
          "address": "0x8aafd3ede9adb0ff97c7aebce82a919afb1c8764",
          "topics": [
            "0xddf252ad1be2c89b69c2b068fc378daa952ba7f163c4a11628f55a4df523b3ef",
            "0x000000000000000000000000c77f7fed3b5cc8249adc428c5f44c9063b9734b4",
            "0x000000000000000000000000c77f7fed3b5cc8249adc428c5f44c9063b9734b4"
          ],
          "data": "0x000000000000000000000000000000000000000000000000000000000000310e",
          "blockHash": "0x625ef11df89461727aa841b2fa2975a7120363a5552e2632987408976d1ba072",
          "blockNumber": "0x7313f8",
          "transactionHash": "0xce8cb53361494b9f5a3638f28b02c61d9de650470e8854132e9fe05dced24e5e",
          "transactionIndex": "0xba",
          "logIndex": "0x15d",
          "removed": false
        },
        {
          "address": "0x8aafd3ede9adb0ff97c7aebce82a919afb1c8764",
          "topics": [
            "0x4afcb4a87cdbd9974efdb92ee48bc8d7cd0ae4bf217004db3d080cbaee652ca7"
          ],
          "data": "0x00000000000000000000000000000000000000000000000000000000678fec4c0000000000000000000000000000000000000000000000000004b6f3b2fef88f0000000000000000000000000000000000000000000000000000000000000823",
          "blockHash": "0x625ef11df89461727aa841b2fa2975a7120363a5552e2632987408976d1ba072",
          "blockNumber": "0x7313f8",
          "transactionHash": "0xce8cb53361494b9f5a3638f28b02c61d9de650470e8854132e9fe05dced24e5e",
          "transactionIndex": "0xba",
          "logIndex": "0x15e",
          "removed": false
        }
      ],
      "logsBloom": "0x00000000000000000000000000000000000000000600000000000000000000000000000000000000000000000000000000000000000000004000000000000000000000000000004000000008000000000000000000000000000000000000000000000000020000000000000000000800020000000000000000000010000000000000000000000000000000000000000000000000000000000000010000000000000000000000000000000000000000004000000000000000000000000000000000000002000000800000000000000000000000000000080000000000000020000000000000000000000000000000000000000000000000000000000000000000",
      "type": "0x2",
      "transactionHash": "0xce8cb53361494b9f5a3638f28b02c61d9de650470e8854132e9fe05dced24e5e",
      "transactionIndex": "0xba",
      "blockHash": "0x625ef11df89461727aa841b2fa2975a7120363a5552e2632987408976d1ba072",
      "blockNumber": "0x7313f8",
      "gasUsed": "0xf213",
      "effectiveGasPrice": "0x833a15b6",
      "from": "0xc77f7fed3b5cc8249adc428c5f44c9063b9734b4",
      "to": "0x8aafd3ede9adb0ff97c7aebce82a919afb1c8764",
      "contractAddress": null
    }
  ],
  "libraries": [],
  "pending": [],
  "returns": {},
  "timestamp": 1737485389,
  "chain": 11155111,
  "commit": "51a374b"
}