{
  "transactions": [
    {
      "hash": "0x27ed2aaae2ec519247a88b10c9dfd131692af96a19bdec613b0cb14000d891a4",
      "transactionType": "CALL",
      "contractName": null,
      "contractAddress": "0x270e88f8683660553e8ba4eb2ad7c91a1710d769",
      "function": "buy(address)",
      "arguments": [
        "0xC77f7fed3b5Cc8249aDc428c5F44C9063B9734b4"
      ],
      "transaction": {
        "from": "0xc77f7fed3b5cc8249adc428c5f44c9063b9734b4",
        "to": "0x270e88f8683660553e8ba4eb2ad7c91a1710d769",
        "gas": "0x1b30c",
        "value": "0xde0b6b3a7640000",
        "input": "0xf088d547000000000000000000000000c77f7fed3b5cc8249adc428c5f44c9063b9734b4",
        "nonce": "0x84b",
        "chainId": "0xaa36a7"
      },
      "additionalContracts": [],
      "isFixedGasLimit": false
    }
  ],
  "receipts": [
    {
      "status": "0x1",
      "cumulativeGasUsed": "0x413e69",
      "logs": [
        {
          "address": "0x270e88f8683660553e8ba4eb2ad7c91a1710d769",
          "topics": [
            "0xddf252ad1be2c89b69c2b068fc378daa952ba7f163c4a11628f55a4df523b3ef",
            "0x0000000000000000000000000000000000000000000000000000000000000000",
            "0x000000000000000000000000c77f7fed3b5cc8249adc428c5f44c9063b9734b4"
          ],
          "data": "0x000000000000000000000000000000000000000000000026b9eea2130cc8d00d",
          "blockHash": "0xd25458eee6e99d6ec847a3c49d6a19d4d8d28d67a5079ea7c33ca14cd11614c0",
          "blockNumber": "0x72559b",
          "transactionHash": "0x27ed2aaae2ec519247a88b10c9dfd131692af96a19bdec613b0cb14000d891a4",
          "transactionIndex": "0x2d",
          "logIndex": "0x38",
          "removed": false
        },
        {
          "address": "0x270e88f8683660553e8ba4eb2ad7c91a1710d769",
          "topics": [
            "0xddf252ad1be2c89b69c2b068fc378daa952ba7f163c4a11628f55a4df523b3ef",
            "0x0000000000000000000000000000000000000000000000000000000000000000",
            "0x000000000000000000000000c77f7fed3b5cc8249adc428c5f44c9063b9734b4"
          ],
          "data": "0x0000000000000000000000000000000000000000000000001e1281a90a14514c",
          "blockHash": "0xd25458eee6e99d6ec847a3c49d6a19d4d8d28d67a5079ea7c33ca14cd11614c0",
          "blockNumber": "0x72559b",
          "transactionHash": "0x27ed2aaae2ec519247a88b10c9dfd131692af96a19bdec613b0cb14000d891a4",
          "transactionIndex": "0x2d",
          "logIndex": "0x39",
          "removed": false
        },
        {
          "address": "0x270e88f8683660553e8ba4eb2ad7c91a1710d769",
          "topics": [
            "0x4afcb4a87cdbd9974efdb92ee48bc8d7cd0ae4bf217004db3d080cbaee652ca7"
          ],
          "data": "0x000000000000000000000000000000000000000000000000000000006786f54c0000000000000000000000000000000000000000000000000004ec822d7e58cb0000000000000000000000000000000000000000000000000de0b6b3a7640000",
          "blockHash": "0xd25458eee6e99d6ec847a3c49d6a19d4d8d28d67a5079ea7c33ca14cd11614c0",
          "blockNumber": "0x72559b",
          "transactionHash": "0x27ed2aaae2ec519247a88b10c9dfd131692af96a19bdec613b0cb14000d891a4",
          "transactionIndex": "0x2d",
          "logIndex": "0x3a",
          "removed": false
        }
      ],
      "logsBloom": "0x00000000000000000000000000000000000000000000000000000000000000000000000000000000000000000000000020000000000000004000000000000000000000000000000000000008000000000000000000000000000000000000000000000000020000000000000000000800020000000000000000000010000000000000000000010000000000000000000000000000000000000000010000000000000000000000000000000000000000004000000000000000000000000000000000000002000000800000000000000000000000000000080000008000000020000000000000000000000000000000000000000000000000000000000000000000",
      "type": "0x2",
      "transactionHash": "0x27ed2aaae2ec519247a88b10c9dfd131692af96a19bdec613b0cb14000d891a4",
      "transactionIndex": "0x2d",
      "blockHash": "0xd25458eee6e99d6ec847a3c49d6a19d4d8d28d67a5079ea7c33ca14cd11614c0",
      "blockNumber": "0x72559b",
      "gasUsed": "0x13af8",
      "effectiveGasPrice": "0x712d1000",
      "from": "0xc77f7fed3b5cc8249adc428c5f44c9063b9734b4",
      "to": "0x270e88f8683660553e8ba4eb2ad7c91a1710d769",
      "contractAddress": null
    }
  ],
  "libraries": [],
  "pending": [],
  "returns": {},
  "timestamp": 1736897870,
  "chain": 11155111,
  "commit": "51a374b"
}