{
  "transactions": [
    {
      "hash": "0xf48b7a139cc75711ae3a44a2096521acb876fc856e9959f717bbf9fd462c8d3c",
      "transactionType": "CALL",
      "contractName": null,
      "contractAddress": "0x5eb9cc76c3506942c1c0ead70e877dd5e4f00cb0",
      "function": "buy(address)",
      "arguments": [
        "0xC77f7fed3b5Cc8249aDc428c5F44C9063B9734b4"
      ],
      "transaction": {
        "from": "0xc77f7fed3b5cc8249adc428c5f44c9063b9734b4",
        "to": "0x5eb9cc76c3506942c1c0ead70e877dd5e4f00cb0",
        "gas": "0x1b30c",
        "value": "0xde0b6b3a7640000",
        "input": "0xf088d547000000000000000000000000c77f7fed3b5cc8249adc428c5f44c9063b9734b4",
        "nonce": "0x2fe",
        "chainId": "0xaa36a7"
      },
      "additionalContracts": [],
      "isFixedGasLimit": false
    }
  ],
  "receipts": [
    {
      "status": "0x1",
      "cumulativeGasUsed": "0x1023d00",
      "logs": [
        {
          "address": "0x5eb9cc76c3506942c1c0ead70e877dd5e4f00cb0",
          "topics": [
            "0xddf252ad1be2c89b69c2b068fc378daa952ba7f163c4a11628f55a4df523b3ef",
            "0x0000000000000000000000000000000000000000000000000000000000000000",
            "0x000000000000000000000000c77f7fed3b5cc8249adc428c5f44c9063b9734b4"
          ],
          "data": "0x0000000000000000000000000000000000000000000000357593d917f0de316b",
          "blockHash": "0x879b9a558a63fb5ef651462c968a4e76e87fefaa0ae2c33feb162310d066ce8d",
          "blockNumber": "0x724edf",
          "transactionHash": "0xf48b7a139cc75711ae3a44a2096521acb876fc856e9959f717bbf9fd462c8d3c",
          "transactionIndex": "0x78",
          "logIndex": "0xd5",
          "removed": false
        },
        {
          "address": "0x5eb9cc76c3506942c1c0ead70e877dd5e4f00cb0",
          "topics": [
            "0xddf252ad1be2c89b69c2b068fc378daa952ba7f163c4a11628f55a4df523b3ef",
            "0x0000000000000000000000000000000000000000000000000000000000000000",
            "0x000000000000000000000000c77f7fed3b5cc8249adc428c5f44c9063b9734b4"
          ],
          "data": "0x0000000000000000000000000000000000000000000000002983515922211e19",
          "blockHash": "0x879b9a558a63fb5ef651462c968a4e76e87fefaa0ae2c33feb162310d066ce8d",
          "blockNumber": "0x724edf",
          "transactionHash": "0xf48b7a139cc75711ae3a44a2096521acb876fc856e9959f717bbf9fd462c8d3c",
          "transactionIndex": "0x78",
          "logIndex": "0xd6",
          "removed": false
        },
        {
          "address": "0x5eb9cc76c3506942c1c0ead70e877dd5e4f00cb0",
          "topics": [
            "0x4afcb4a87cdbd9974efdb92ee48bc8d7cd0ae4bf217004db3d080cbaee652ca7"
          ],
          "data": "0x000000000000000000000000000000000000000000000000000000006786a4280000000000000000000000000000000000000000000000000003910bb542ddec0000000000000000000000000000000000000000000000000de0b6b3a7640000",
          "blockHash": "0x879b9a558a63fb5ef651462c968a4e76e87fefaa0ae2c33feb162310d066ce8d",
          "blockNumber": "0x724edf",
          "transactionHash": "0xf48b7a139cc75711ae3a44a2096521acb876fc856e9959f717bbf9fd462c8d3c",
          "transactionIndex": "0x78",
          "logIndex": "0xd7",
          "removed": false
        }
      ],
      "logsBloom": "0x00000000000000000000000000000000000000000000000000000000000000000000000000000000000000000000000000000000000000004000000000000000000000000000000000000008000000000000000000000000000000000000000000000000020000000000000004000800020000000000000000000010000000000000000000000000000000000000000000000000000000000000010000000000000000000000000000000000000000004000000000000000000000000000020000000002000000800000008000000000000000000000080000000000000020000000000000000000000000000000000000000000000000000000000000000000",
      "type": "0x2",
      "transactionHash": "0xf48b7a139cc75711ae3a44a2096521acb876fc856e9959f717bbf9fd462c8d3c",
      "transactionIndex": "0x78",
      "blockHash": "0x879b9a558a63fb5ef651462c968a4e76e87fefaa0ae2c33feb162310d066ce8d",
      "blockNumber": "0x724edf",
      "gasUsed": "0x13af8",
      "effectiveGasPrice": "0x676de9cf5",
      "from": "0xc77f7fed3b5cc8249adc428c5f44c9063b9734b4",
      "to": "0x5eb9cc76c3506942c1c0ead70e877dd5e4f00cb0",
      "contractAddress": null
    }
  ],
  "libraries": [],
  "pending": [],
  "returns": {},
  "timestamp": 1736877097,
  "chain": 11155111,
  "commit": "51a374b"
}