{
  "transactions": [
    {
      "hash": "0xf9a96e92d2d05a148714da8622791af2627fd65be08a5ccda622ea2da9f51b4a",
      "transactionType": "CALL",
      "contractName": null,
      "contractAddress": "0x9a940ef65f8bf33332aa4faea921454828f0c80a",
      "function": "borrowMore(uint256)",
      "arguments": [
        "4353197827229877"
      ],
      "transaction": {
        "from": "0xf66076775ad1f36dd12c1f1b10c21d1aadf0d6de",
        "to": "0x9a940ef65f8bf33332aa4faea921454828f0c80a",
        "gas": "0x1db5d",
        "value": "0x0",
        "input": "0x9d0bf2e9000000000000000000000000000000000000000000000000000f7735da2108b5",
        "nonce": "0x56",
        "chainId": "0xaa36a7"
      },
      "additionalContracts": [],
      "isFixedGasLimit": false
    }
  ],
  "receipts": [
    {
      "status": "0x1",
      "cumulativeGasUsed": "0xcc2e63",
      "logs": [
        {
          "address": "0x9a940ef65f8bf33332aa4faea921454828f0c80a",
          "topics": [
            "0x03bbe564cb1b78e43195eeadbde99e5b89b19345862807fcfb59f884e4165e25"
          ],
          "data": "0x00000000000000000000000038818e389773445cd73adbaa37b8b169f458c6e100000000000000000000000000000000000000000000000000000130113e37c8",
          "blockHash": "0xd6def844bd213e18a3df55fe187f82e015b441ad1f796e7707fcd2dec15ad960",
          "blockNumber": "0x73d11c",
          "transactionHash": "0xf9a96e92d2d05a148714da8622791af2627fd65be08a5ccda622ea2da9f51b4a",
          "transactionIndex": "0x7b",
          "logIndex": "0xc3",
          "removed": false
        },
        {
          "address": "0x9a940ef65f8bf33332aa4faea921454828f0c80a",
          "topics": [
            "0x03bbe564cb1b78e43195eeadbde99e5b89b19345862807fcfb59f884e4165e25"
          ],
          "data": "0x000000000000000000000000f66076775ad1f36dd12c1f1b10c21d1aadf0d6de000000000000000000000000000000000000000000000000000f4ba8b737b5ed",
          "blockHash": "0xd6def844bd213e18a3df55fe187f82e015b441ad1f796e7707fcd2dec15ad960",
          "blockNumber": "0x73d11c",
          "transactionHash": "0xf9a96e92d2d05a148714da8622791af2627fd65be08a5ccda622ea2da9f51b4a",
          "transactionIndex": "0x7b",
          "logIndex": "0xc4",
          "removed": false
        },
        {
          "address": "0x9a940ef65f8bf33332aa4faea921454828f0c80a",
          "topics": [
            "0xaec00f5213a37254bc68a26b0685d1a5b2bf513e1e587c94c7df7f4a62b56c9c"
          ],
          "data": "0x000000000000000000000000000000000000000000000000ebd1ba2d7469110700000000000000000000000000000000000000000000000000629b2774f5a92e00000000000000000000000000000000000000000000000000629b2774f5a92e000000000000000000000000000000000000000000000000ebd1ba2d74691107",
          "blockHash": "0xd6def844bd213e18a3df55fe187f82e015b441ad1f796e7707fcd2dec15ad960",
          "blockNumber": "0x73d11c",
          "transactionHash": "0xf9a96e92d2d05a148714da8622791af2627fd65be08a5ccda622ea2da9f51b4a",
          "transactionIndex": "0x7b",
          "logIndex": "0xc5",
          "removed": false
        },
        {
          "address": "0x9a940ef65f8bf33332aa4faea921454828f0c80a",
          "topics": [
            "0x4afcb4a87cdbd9974efdb92ee48bc8d7cd0ae4bf217004db3d080cbaee652ca7"
          ],
          "data": "0x00000000000000000000000000000000000000000000000000000000679910c40000000000000000000000000000000000000000000000000005df00a6681043000000000000000000000000000000000000000000000000000003f58ecf649d",
          "blockHash": "0xd6def844bd213e18a3df55fe187f82e015b441ad1f796e7707fcd2dec15ad960",
          "blockNumber": "0x73d11c",
          "transactionHash": "0xf9a96e92d2d05a148714da8622791af2627fd65be08a5ccda622ea2da9f51b4a",
          "transactionIndex": "0x7b",
          "logIndex": "0xc6",
          "removed": false
        }
      ],
      "logsBloom": "0x80000000000000000000000000000100400000000000000000000000000000000008000000000000000000000000000000002000000000004000000000000000000000000000000000000000000000000000000000000000000000000000000000000000000000000000800000000000020000000000000000000000000000000000000000000000000000000000000000000000000000000000000000000000000000000000000000000400000000004000000000000000000000001000000000000000000000000000000000000000000000000000000000000000000000000000000000000000000000200000000000000000000000000000000000000000",
      "type": "0x2",
      "transactionHash": "0xf9a96e92d2d05a148714da8622791af2627fd65be08a5ccda622ea2da9f51b4a",
      "transactionIndex": "0x7b",
      "blockHash": "0xd6def844bd213e18a3df55fe187f82e015b441ad1f796e7707fcd2dec15ad960",
      "blockNumber": "0x73d11c",
      "gasUsed": "0x15828",
      "effectiveGasPrice": "0x513340ea",
      "from": "0xf66076775ad1f36dd12c1f1b10c21d1aadf0d6de",
      "to": "0x9a940ef65f8bf33332aa4faea921454828f0c80a",
      "contractAddress": null
    }
  ],
  "libraries": [],
  "pending": [],
  "returns": {},
  "timestamp": 1738084549,
  "chain": 11155111,
  "commit": "f5162e9"
}