{
  "transactions": [
    {
      "hash": "0x99fe49be152af9ed6ec294996af2668aa698b317efa873b928fdec50c697297b",
      "transactionType": "CALL",
      "contractName": null,
      "contractAddress": "0x8aafd3ede9adb0ff97c7aebce82a919afb1c8764",
      "function": "sell(uint256)",
      "arguments": [
        "1459204"
      ],
      "transaction": {
        "from": "0xc77f7fed3b5cc8249adc428c5f44c9063b9734b4",
        "to": "0x8aafd3ede9adb0ff97c7aebce82a919afb1c8764",
        "gas": "0x16208",
        "value": "0x0",
        "input": "0xe4849b320000000000000000000000000000000000000000000000000000000000164404",
        "nonce": "0x1138",
        "chainId": "0xaa36a7"
      },
      "additionalContracts": [],
      "isFixedGasLimit": false
    }
  ],
  "receipts": [
    {
      "status": "0x1",
      "cumulativeGasUsed": "0x74f535",
      "logs": [
        {
          "address": "0x8aafd3ede9adb0ff97c7aebce82a919afb1c8764",
          "topics": [
            "0xddf252ad1be2c89b69c2b068fc378daa952ba7f163c4a11628f55a4df523b3ef",
            "0x000000000000000000000000c77f7fed3b5cc8249adc428c5f44c9063b9734b4",
            "0x0000000000000000000000000000000000000000000000000000000000000000"
          ],
          "data": "0x000000000000000000000000000000000000000000000000000000000016166b",
          "blockHash": "0x0393e41b4e969927d858a7f801af74d54df957ab8531d99e66559ba5046ddeb4",
          "blockNumber": "0x7317f1",
          "transactionHash": "0x99fe49be152af9ed6ec294996af2668aa698b317efa873b928fdec50c697297b",
          "transactionIndex": "0x62",
          "logIndex": "0x87",
          "removed": false
        },
        {
          "address": "0x8aafd3ede9adb0ff97c7aebce82a919afb1c8764",
          "topics": [
            "0xddf252ad1be2c89b69c2b068fc378daa952ba7f163c4a11628f55a4df523b3ef",
            "0x000000000000000000000000c77f7fed3b5cc8249adc428c5f44c9063b9734b4",
            "0x000000000000000000000000c77f7fed3b5cc8249adc428c5f44c9063b9734b4"
          ],
          "data": "0x0000000000000000000000000000000000000000000000000000000000002d99",
          "blockHash": "0x0393e41b4e969927d858a7f801af74d54df957ab8531d99e66559ba5046ddeb4",
          "blockNumber": "0x7317f1",
          "transactionHash": "0x99fe49be152af9ed6ec294996af2668aa698b317efa873b928fdec50c697297b",
          "transactionIndex": "0x62",
          "logIndex": "0x88",
          "removed": false
        },
        {
          "address": "0x8aafd3ede9adb0ff97c7aebce82a919afb1c8764",
          "topics": [
            "0x4afcb4a87cdbd9974efdb92ee48bc8d7cd0ae4bf217004db3d080cbaee652ca7"
          ],
          "data": "0x0000000000000000000000000000000000000000000000000000000067901c100000000000000000000000000000000000000000000000000005136c076586920000000000000000000000000000000000000000000000000000000000000824",
          "blockHash": "0x0393e41b4e969927d858a7f801af74d54df957ab8531d99e66559ba5046ddeb4",
          "blockNumber": "0x7317f1",
          "transactionHash": "0x99fe49be152af9ed6ec294996af2668aa698b317efa873b928fdec50c697297b",
          "transactionIndex": "0x62",
          "logIndex": "0x89",
          "removed": false
        }
      ],
      "logsBloom": "0x00000000000000000000000000000000000000000600000000000000000000000000000000000000000000000000000000000000000000004000000000000000000000000000004000000008000000000000000000000000000000000000000000000000020000000000000000000800020000000000000000000010000000000000000000000000000000000000000000000000000000000000010000000000000000000000000000000000000000004000000000000000000000000000000000000002000000800000000000000000000000000000080000000000000020000000000000000000000000000000000000000000000000000000000000000000",
      "type": "0x2",
      "transactionHash": "0x99fe49be152af9ed6ec294996af2668aa698b317efa873b928fdec50c697297b",
      "transactionIndex": "0x62",
      "blockHash": "0x0393e41b4e969927d858a7f801af74d54df957ab8531d99e66559ba5046ddeb4",
      "blockNumber": "0x7317f1",
      "gasUsed": "0xf213",
      "effectiveGasPrice": "0x457b831f",
      "from": "0xc77f7fed3b5cc8249adc428c5f44c9063b9734b4",
      "to": "0x8aafd3ede9adb0ff97c7aebce82a919afb1c8764",
      "contractAddress": null
    }
  ],
  "libraries": [],
  "pending": [],
  "returns": {},
  "timestamp": 1737497616,
  "chain": 11155111,
  "commit": "1d2fb70"
}