{
  "transactions": [
    {
      "hash": "0x33c3c46ef0203d9a61a67b376c507a7719bf5f23799eec0ee2e2fe1bb15dce1c",
      "transactionType": "CALL",
      "contractName": null,
      "contractAddress": "0xbf4a322f1496e5c3d34a9bcdb4c60567b38c7de2",
      "function": "sell(uint256)",
      "arguments": [
        "985494514922965306642"
      ],
      "transaction": {
        "from": "0xc77f7fed3b5cc8249adc428c5f44c9063b9734b4",
        "to": "0xbf4a322f1496e5c3d34a9bcdb4c60567b38c7de2",
        "gas": "0x16fea",
        "value": "0x0",
        "input": "0xe4849b320000000000000000000000000000000000000000000000356c7bd7f2df3e0d12",
        "nonce": "0xa81",
        "chainId": "0xaa36a7"
      },
      "additionalContracts": [],
      "isFixedGasLimit": false
    }
  ],
  "receipts": [
    {
      "status": "0x1",
      "cumulativeGasUsed": "0x8df367",
      "logs": [
        {
          "address": "0xbf4a322f1496e5c3d34a9bcdb4c60567b38c7de2",
          "topics": [
            "0xddf252ad1be2c89b69c2b068fc378daa952ba7f163c4a11628f55a4df523b3ef",
            "0x000000000000000000000000c77f7fed3b5cc8249adc428c5f44c9063b9734b4",
            "0x0000000000000000000000000000000000000000000000000000000000000000"
          ],
          "data": "0x0000000000000000000000000000000000000000000000356c7bd7f2df3e0d12",
          "blockHash": "0x5666052db89e00ea5d89e9e81ea2bf47eb573db6dc69cba4989705c56543abac",
          "blockNumber": "0x725a60",
          "transactionHash": "0x33c3c46ef0203d9a61a67b376c507a7719bf5f23799eec0ee2e2fe1bb15dce1c",
          "transactionIndex": "0x61",
          "logIndex": "0x8b",
          "removed": false
        },
        {
          "address": "0xbf4a322f1496e5c3d34a9bcdb4c60567b38c7de2",
          "topics": [
            "0x4afcb4a87cdbd9974efdb92ee48bc8d7cd0ae4bf217004db3d080cbaee652ca7"
          ],
          "data": "0x0000000000000000000000000000000000000000000000000000000067872ed0000000000000000000000000000000000000000000000000000394730bca0bdd0000000000000000000000000000000000000000000000000dc7e3eed7550ae1",
          "blockHash": "0x5666052db89e00ea5d89e9e81ea2bf47eb573db6dc69cba4989705c56543abac",
          "blockNumber": "0x725a60",
          "transactionHash": "0x33c3c46ef0203d9a61a67b376c507a7719bf5f23799eec0ee2e2fe1bb15dce1c",
          "transactionIndex": "0x61",
          "logIndex": "0x8c",
          "removed": false
        }
      ],
      "logsBloom": "0x00000000000000000000000000000000000000000000000000000000000000000000000000000000000000000000000000000000000000004000000000000000000000000000000000000008000000000000001000000000000000000000000000000000020000000000000000000800020000000000000000000010000000000000000000000000000000000000000000000000000008000000010000000000000000000000000000000000000000004000000000000000000000000000000000000002000000800000000000001000000000000000080000000000000020000000000000000000000000000000000000000000000000000000000000000000",
      "type": "0x2",
      "transactionHash": "0x33c3c46ef0203d9a61a67b376c507a7719bf5f23799eec0ee2e2fe1bb15dce1c",
      "transactionIndex": "0x61",
      "blockHash": "0x5666052db89e00ea5d89e9e81ea2bf47eb573db6dc69cba4989705c56543abac",
      "blockNumber": "0x725a60",
      "gasUsed": "0xfb91",
      "effectiveGasPrice": "0x2d0b077e5",
      "from": "0xc77f7fed3b5cc8249adc428c5f44c9063b9734b4",
      "to": "0xbf4a322f1496e5c3d34a9bcdb4c60567b38c7de2",
      "contractAddress": null
    }
  ],
  "libraries": [],
  "pending": [],
  "returns": {},
  "timestamp": 1736912594,
  "chain": 11155111,
  "commit": "51a374b"
}