{
  "transactions": [
    {
      "hash": "0x51b104997c8cf754b3b3a99ac671512e8d168eba54a60e9717f2e0c0f024741c",
      "transactionType": "CALL",
      "contractName": null,
      "contractAddress": "0x5eb9cc76c3506942c1c0ead70e877dd5e4f00cb0",
      "function": "sell(uint256)",
      "arguments": [
        "989090756670597885307"
      ],
      "transaction": {
        "from": "0xc77f7fed3b5cc8249adc428c5f44c9063b9734b4",
        "to": "0x5eb9cc76c3506942c1c0ead70e877dd5e4f00cb0",
        "gas": "0x16fec",
        "value": "0x0",
        "input": "0xe4849b320000000000000000000000000000000000000000000000359e6442c3b54fed7b",
        "nonce": "0x43b",
        "chainId": "0xaa36a7"
      },
      "additionalContracts": [],
      "isFixedGasLimit": false
    }
  ],
  "receipts": [
    {
      "status": "0x1",
      "cumulativeGasUsed": "0xcad41f",
      "logs": [
        {
          "address": "0x5eb9cc76c3506942c1c0ead70e877dd5e4f00cb0",
          "topics": [
            "0xddf252ad1be2c89b69c2b068fc378daa952ba7f163c4a11628f55a4df523b3ef",
            "0x000000000000000000000000c77f7fed3b5cc8249adc428c5f44c9063b9734b4",
            "0x0000000000000000000000000000000000000000000000000000000000000000"
          ],
          "data": "0x0000000000000000000000000000000000000000000000359e6442c3b54fed7b",
          "blockHash": "0x565b9b86ff0adf5972392e96ae7d581546281b1bd456bbd1c66106143da9185c",
          "blockNumber": "0x725058",
          "transactionHash": "0x51b104997c8cf754b3b3a99ac671512e8d168eba54a60e9717f2e0c0f024741c",
          "transactionIndex": "0x6f",
          "logIndex": "0xad",
          "removed": false
        },
        {
          "address": "0x5eb9cc76c3506942c1c0ead70e877dd5e4f00cb0",
          "topics": [
            "0x4afcb4a87cdbd9974efdb92ee48bc8d7cd0ae4bf217004db3d080cbaee652ca7"
          ],
          "data": "0x000000000000000000000000000000000000000000000000000000006786b5ec00000000000000000000000000000000000000000000000000039117a812be860000000000000000000000000000000000000000000000000dc7db1331d70041",
          "blockHash": "0x565b9b86ff0adf5972392e96ae7d581546281b1bd456bbd1c66106143da9185c",
          "blockNumber": "0x725058",
          "transactionHash": "0x51b104997c8cf754b3b3a99ac671512e8d168eba54a60e9717f2e0c0f024741c",
          "transactionIndex": "0x6f",
          "logIndex": "0xae",
          "removed": false
        }
      ],
      "logsBloom": "0x00000000000000000000000000000000000000000000000000000000000000000000000000000000000000000000000000000000000000004000000000000000000000000000000000000008000000000000000000000000000000000000000000000000020000000000000004000800020000000000000000000010000000000000000000000000000000000000000000000000000000000000010000000000000000000000000000000000000000004000000000000000000000000000020000000002000000800000008000000000000000000000080000000000000020000000000000000000000000000000000000000000000000000000000000000000",
      "type": "0x2",
      "transactionHash": "0x51b104997c8cf754b3b3a99ac671512e8d168eba54a60e9717f2e0c0f024741c",
      "transactionIndex": "0x6f",
      "blockHash": "0x565b9b86ff0adf5972392e96ae7d581546281b1bd456bbd1c66106143da9185c",
      "blockNumber": "0x725058",
      "gasUsed": "0xfb93",
      "effectiveGasPrice": "0x2792e766c",
      "from": "0xc77f7fed3b5cc8249adc428c5f44c9063b9734b4",
      "to": "0x5eb9cc76c3506942c1c0ead70e877dd5e4f00cb0",
      "contractAddress": null
    }
  ],
  "libraries": [],
  "pending": [],
  "returns": {},
  "timestamp": 1736881645,
  "chain": 11155111,
  "commit": "51a374b"
}