{
  "transactions": [
    {
      "hash": "0xf4c430397e53ec5c44c2b5b0c1f65b56030fcfaf2daa583190c5065f5a5607fb",
      "transactionType": "CALL",
      "contractName": null,
      "contractAddress": "0xbf4a322f1496e5c3d34a9bcdb4c60567b38c7de2",
      "function": "sell(uint256)",
      "arguments": [
        "986935833718525586866"
      ],
      "transaction": {
        "from": "0xc77f7fed3b5cc8249adc428c5f44c9063b9734b4",
        "to": "0xbf4a322f1496e5c3d34a9bcdb4c60567b38c7de2",
        "gas": "0x16fea",
        "value": "0x0",
        "input": "0xe4849b32000000000000000000000000000000000000000000000035807c6fc1c0b4edb2",
        "nonce": "0xa17",
        "chainId": "0xaa36a7"
      },
      "additionalContracts": [],
      "isFixedGasLimit": false
    }
  ],
  "receipts": [
    {
      "status": "0x1",
      "cumulativeGasUsed": "0xca9ae2",
      "logs": [
        {
          "address": "0xbf4a322f1496e5c3d34a9bcdb4c60567b38c7de2",
          "topics": [
            "0xddf252ad1be2c89b69c2b068fc378daa952ba7f163c4a11628f55a4df523b3ef",
            "0x000000000000000000000000c77f7fed3b5cc8249adc428c5f44c9063b9734b4",
            "0x0000000000000000000000000000000000000000000000000000000000000000"
          ],
          "data": "0x000000000000000000000000000000000000000000000035807c6fc1c0b4edb2",
          "blockHash": "0x7ebe83061b6defe22fae2ac2a71bb28a9519a48283de410b04fd1ee304d1797c",
          "blockNumber": "0x7259d7",
          "transactionHash": "0xf4c430397e53ec5c44c2b5b0c1f65b56030fcfaf2daa583190c5065f5a5607fb",
          "transactionIndex": "0x51",
          "logIndex": "0x9a",
          "removed": false
        },
        {
          "address": "0xbf4a322f1496e5c3d34a9bcdb4c60567b38c7de2",
          "topics": [
            "0x4afcb4a87cdbd9974efdb92ee48bc8d7cd0ae4bf217004db3d080cbaee652ca7"
          ],
          "data": "0x00000000000000000000000000000000000000000000000000000000678728580000000000000000000000000000000000000000000000000003931c6e1887f90000000000000000000000000000000000000000000000000dc7e3f231339dd1",
          "blockHash": "0x7ebe83061b6defe22fae2ac2a71bb28a9519a48283de410b04fd1ee304d1797c",
          "blockNumber": "0x7259d7",
          "transactionHash": "0xf4c430397e53ec5c44c2b5b0c1f65b56030fcfaf2daa583190c5065f5a5607fb",
          "transactionIndex": "0x51",
          "logIndex": "0x9b",
          "removed": false
        }
      ],
      "logsBloom": "0x00000000000000000000000000000000000000000000000000000000000000000000000000000000000000000000000000000000000000004000000000000000000000000000000000000008000000000000001000000000000000000000000000000000020000000000000000000800020000000000000000000010000000000000000000000000000000000000000000000000000008000000010000000000000000000000000000000000000000004000000000000000000000000000000000000002000000800000000000001000000000000000080000000000000020000000000000000000000000000000000000000000000000000000000000000000",
      "type": "0x2",
      "transactionHash": "0xf4c430397e53ec5c44c2b5b0c1f65b56030fcfaf2daa583190c5065f5a5607fb",
      "transactionIndex": "0x51",
      "blockHash": "0x7ebe83061b6defe22fae2ac2a71bb28a9519a48283de410b04fd1ee304d1797c",
      "blockNumber": "0x7259d7",
      "gasUsed": "0xfb91",
      "effectiveGasPrice": "0x5b29b105a",
      "from": "0xc77f7fed3b5cc8249adc428c5f44c9063b9734b4",
      "to": "0xbf4a322f1496e5c3d34a9bcdb4c60567b38c7de2",
      "contractAddress": null
    }
  ],
  "libraries": [],
  "pending": [],
  "returns": {},
  "timestamp": 1736910938,
  "chain": 11155111,
  "commit": "51a374b"
}