{
  "transactions": [
    {
      "hash": "0x46213455e7a1642956887c7b63c407198d4abc7fe0daf032a16f29e2a0276e6d",
      "transactionType": "CALL",
      "contractName": null,
      "contractAddress": "0x8aafd3ede9adb0ff97c7aebce82a919afb1c8764",
      "function": "sell(uint256)",
      "arguments": [
        "46185023091722137"
      ],
      "transaction": {
        "from": "0xc77f7fed3b5cc8249adc428c5f44c9063b9734b4",
        "to": "0x8aafd3ede9adb0ff97c7aebce82a919afb1c8764",
        "gas": "0x1724d",
        "value": "0x0",
        "input": "0xe4849b3200000000000000000000000000000000000000000000000000a41508a7534799",
        "nonce": "0xff3",
        "chainId": "0xaa36a7"
      },
      "additionalContracts": [],
      "isFixedGasLimit": false
    }
  ],
  "receipts": [
    {
      "status": "0x1",
      "cumulativeGasUsed": "0x10c5096",
      "logs": [
        {
          "address": "0x8aafd3ede9adb0ff97c7aebce82a919afb1c8764",
          "topics": [
            "0xddf252ad1be2c89b69c2b068fc378daa952ba7f163c4a11628f55a4df523b3ef",
            "0x000000000000000000000000c77f7fed3b5cc8249adc428c5f44c9063b9734b4",
            "0x0000000000000000000000000000000000000000000000000000000000000000"
          ],
          "data": "0x00000000000000000000000000000000000000000000000000a2c4fe5829a748",
          "blockHash": "0x678c5fe43df3a30f0fc2a8b530c388e19c5320877ad78f19b8be9abc6613d3fc",
          "blockNumber": "0x731668",
          "transactionHash": "0x46213455e7a1642956887c7b63c407198d4abc7fe0daf032a16f29e2a0276e6d",
          "transactionIndex": "0x84",
          "logIndex": "0xcc",
          "removed": false
        },
        {
          "address": "0x8aafd3ede9adb0ff97c7aebce82a919afb1c8764",
          "topics": [
            "0xddf252ad1be2c89b69c2b068fc378daa952ba7f163c4a11628f55a4df523b3ef",
            "0x000000000000000000000000c77f7fed3b5cc8249adc428c5f44c9063b9734b4",
            "0x000000000000000000000000c77f7fed3b5cc8249adc428c5f44c9063b9734b4"
          ],
          "data": "0x0000000000000000000000000000000000000000000000000001500a4f29a051",
          "blockHash": "0x678c5fe43df3a30f0fc2a8b530c388e19c5320877ad78f19b8be9abc6613d3fc",
          "blockNumber": "0x731668",
          "transactionHash": "0x46213455e7a1642956887c7b63c407198d4abc7fe0daf032a16f29e2a0276e6d",
          "transactionIndex": "0x84",
          "logIndex": "0xcd",
          "removed": false
        },
        {
          "address": "0x8aafd3ede9adb0ff97c7aebce82a919afb1c8764",
          "topics": [
            "0x4afcb4a87cdbd9974efdb92ee48bc8d7cd0ae4bf217004db3d080cbaee652ca7"
          ],
          "data": "0x000000000000000000000000000000000000000000000000000000006790098c0000000000000000000000000000000000000000000000000004e4f2bba6ccd9000000000000000000000000000000000000000000000000000039de10602724",
          "blockHash": "0x678c5fe43df3a30f0fc2a8b530c388e19c5320877ad78f19b8be9abc6613d3fc",
          "blockNumber": "0x731668",
          "transactionHash": "0x46213455e7a1642956887c7b63c407198d4abc7fe0daf032a16f29e2a0276e6d",
          "transactionIndex": "0x84",
          "logIndex": "0xce",
          "removed": false
        }
      ],
      "logsBloom": "0x00000000000000000000000000000000000000000600000000000000000000000000000000000000000000000000000000000000000000004000000000000000000000000000004000000008000000000000000000000000000000000000000000000000020000000000000000000800020000000000000000000010000000000000000000000000000000000000000000000000000000000000010000000000000000000000000000000000000000004000000000000000000000000000000000000002000000800000000000000000000000000000080000000000000020000000000000000000000000000000000000000000000000000000000000000000",
      "type": "0x2",
      "transactionHash": "0x46213455e7a1642956887c7b63c407198d4abc7fe0daf032a16f29e2a0276e6d",
      "transactionIndex": "0x84",
      "blockHash": "0x678c5fe43df3a30f0fc2a8b530c388e19c5320877ad78f19b8be9abc6613d3fc",
      "blockNumber": "0x731668",
      "gasUsed": "0xfd33",
      "effectiveGasPrice": "0x4bb794ef",
      "from": "0xc77f7fed3b5cc8249adc428c5f44c9063b9734b4",
      "to": "0x8aafd3ede9adb0ff97c7aebce82a919afb1c8764",
      "contractAddress": null
    }
  ],
  "libraries": [],
  "pending": [],
  "returns": {},
  "timestamp": 1737492877,
  "chain": 11155111,
  "commit": "1d2fb70"
}