{
  "transactions": [
    {
      "hash": "0x37af3de5a6000d944a927088d11e0e716ceed7f5b7b671ed078cc8f823e9d118",
      "transactionType": "CALL",
      "contractName": null,
      "contractAddress": "0x8aafd3ede9adb0ff97c7aebce82a919afb1c8764",
      "function": "buy(address)",
      "arguments": [
        "0xC77f7fed3b5Cc8249aDc428c5F44C9063B9734b4"
      ],
      "transaction": {
        "from": "0xc77f7fed3b5cc8249adc428c5f44c9063b9734b4",
        "to": "0x8aafd3ede9adb0ff97c7aebce82a919afb1c8764",
        "gas": "0x156ea",
        "value": "0xde0b6b3a7640000",
        "input": "0xf088d547000000000000000000000000c77f7fed3b5cc8249adc428c5f44c9063b9734b4",
        "nonce": "0x1438",
        "chainId": "0xaa36a7"
      },
      "additionalContracts": [],
      "isFixedGasLimit": false
    }
  ],
  "receipts": [
    {
      "status": "0x1",
      "cumulativeGasUsed": "0x11676bc",
      "logs": [
        {
          "address": "0x8aafd3ede9adb0ff97c7aebce82a919afb1c8764",
          "topics": [
            "0xddf252ad1be2c89b69c2b068fc378daa952ba7f163c4a11628f55a4df523b3ef",
            "0x0000000000000000000000000000000000000000000000000000000000000000",
            "0x000000000000000000000000c77f7fed3b5cc8249adc428c5f44c9063b9734b4"
          ],
          "data": "0x00000000000000000000000000000000000000000000000cf269ad306c7b7863",
          "blockHash": "0x21287b852d3973de72720801bb61358ca29b09aced8a320316b7f4121ce17ba5",
          "blockNumber": "0x731b78",
          "transactionHash": "0x37af3de5a6000d944a927088d11e0e716ceed7f5b7b671ed078cc8f823e9d118",
          "transactionIndex": "0xae",
          "logIndex": "0xda",
          "removed": false
        },
        {
          "address": "0x8aafd3ede9adb0ff97c7aebce82a919afb1c8764",
          "topics": [
            "0xddf252ad1be2c89b69c2b068fc378daa952ba7f163c4a11628f55a4df523b3ef",
            "0x0000000000000000000000000000000000000000000000000000000000000000",
            "0x000000000000000000000000c77f7fed3b5cc8249adc428c5f44c9063b9734b4"
          ],
          "data": "0x0000000000000000000000000000000000000000000000000a0dc12cf9e8396c",
          "blockHash": "0x21287b852d3973de72720801bb61358ca29b09aced8a320316b7f4121ce17ba5",
          "blockNumber": "0x731b78",
          "transactionHash": "0x37af3de5a6000d944a927088d11e0e716ceed7f5b7b671ed078cc8f823e9d118",
          "transactionIndex": "0xae",
          "logIndex": "0xdb",
          "removed": false
        },
        {
          "address": "0x8aafd3ede9adb0ff97c7aebce82a919afb1c8764",
          "topics": [
            "0x4afcb4a87cdbd9974efdb92ee48bc8d7cd0ae4bf217004db3d080cbaee652ca7"
          ],
          "data": "0x000000000000000000000000000000000000000000000000000000006790467c000000000000000000000000000000000000000000000000000ec05c35b52c7a0000000000000000000000000000000000000000000000000de0b6b3a7640000",
          "blockHash": "0x21287b852d3973de72720801bb61358ca29b09aced8a320316b7f4121ce17ba5",
          "blockNumber": "0x731b78",
          "transactionHash": "0x37af3de5a6000d944a927088d11e0e716ceed7f5b7b671ed078cc8f823e9d118",
          "transactionIndex": "0xae",
          "logIndex": "0xdc",
          "removed": false
        }
      ],
      "logsBloom": "0x00000000000000000000000000000000000000000600000000000000000000000000000000000000000000000000000000000000000000004000000000000000000000000000004000000008000000000000000000000000000000000000000000000000020000000000000000000800020000000000000000000010000000000000000000000000000000000000000000000000000000000000010000000000000000000000000000000000000000004000000000000000000000000000000000000002000000800000000000000000000000000000080000000000000020000000000000000000000000000000000000000000000000000000000000000000",
      "type": "0x2",
      "transactionHash": "0x37af3de5a6000d944a927088d11e0e716ceed7f5b7b671ed078cc8f823e9d118",
      "transactionIndex": "0xae",
      "blockHash": "0x21287b852d3973de72720801bb61358ca29b09aced8a320316b7f4121ce17ba5",
      "blockNumber": "0x731b78",
      "gasUsed": "0xf844",
      "effectiveGasPrice": "0xf8a912fd",
      "from": "0xc77f7fed3b5cc8249adc428c5f44c9063b9734b4",
      "to": "0x8aafd3ede9adb0ff97c7aebce82a919afb1c8764",
      "contractAddress": null
    }
  ],
  "libraries": [],
  "pending": [],
  "returns": {},
  "timestamp": 1737508478,
  "chain": 11155111,
  "commit": "1d2fb70"
}