{
  "transactions": [
    {
      "hash": "0x398d178a250373dccafdb9869621e618518e625cf4514875762ef8b0cc2383bd",
      "transactionType": "CALL",
      "contractName": null,
      "contractAddress": "0x0907ee43932cb5b84fec241a3b1c20f0eb8965ac",
      "function": "borrow(uint256,uint256)",
      "arguments": [
        "9999999999999990",
        "0"
      ],
      "transaction": {
        "from": "0xc77f7fed3b5cc8249adc428c5f44c9063b9734b4",
        "to": "0x0907ee43932cb5b84fec241a3b1c20f0eb8965ac",
        "gas": "0x5dbfc",
        "value": "0x0",
        "input": "0x0ecbcdab000000000000000000000000000000000000000000000000002386f26fc0fff60000000000000000000000000000000000000000000000000000000000000000",
        "nonce": "0x1919",
        "chainId": "0xaa36a7"
      },
      "additionalContracts": [],
      "isFixedGasLimit": false
    }
  ],
  "receipts": [
    {
      "status": "0x1",
      "cumulativeGasUsed": "0x83648e",
      "logs": [
        {
          "address": "0x0907ee43932cb5b84fec241a3b1c20f0eb8965ac",
          "topics": [
            "0xddf252ad1be2c89b69c2b068fc378daa952ba7f163c4a11628f55a4df523b3ef",
            "0x000000000000000000000000c77f7fed3b5cc8249adc428c5f44c9063b9734b4",
            "0x0000000000000000000000000907ee43932cb5b84fec241a3b1c20f0eb8965ac"
          ],
          "data": "0x0000000000000000000000000000000000000000000000008ac7230489e7ffff",
          "blockHash": "0x8743367ce8e3bcfe1adfd36a598d8f06b0b60fee370e1b508b5a75cfe504482d",
          "blockNumber": "0x739a9b",
          "transactionHash": "0x398d178a250373dccafdb9869621e618518e625cf4514875762ef8b0cc2383bd",
          "transactionIndex": "0x50",
          "logIndex": "0x73",
          "removed": false
        },
        {
          "address": "0x0907ee43932cb5b84fec241a3b1c20f0eb8965ac",
          "topics": [
            "0x03bbe564cb1b78e43195eeadbde99e5b89b19345862807fcfb59f884e4165e25"
          ],
          "data": "0x00000000000000000000000038818e389773445cd73adbaa37b8b169f458c6e1000000000000000000000000000000000000000000000000000002ba7def2fff",
          "blockHash": "0x8743367ce8e3bcfe1adfd36a598d8f06b0b60fee370e1b508b5a75cfe504482d",
          "blockNumber": "0x739a9b",
          "transactionHash": "0x398d178a250373dccafdb9869621e618518e625cf4514875762ef8b0cc2383bd",
          "transactionIndex": "0x50",
          "logIndex": "0x74",
          "removed": false
        },
        {
          "address": "0x0907ee43932cb5b84fec241a3b1c20f0eb8965ac",
          "topics": [
            "0x03bbe564cb1b78e43195eeadbde99e5b89b19345862807fcfb59f884e4165e25"
          ],
          "data": "0x000000000000000000000000c77f7fed3b5cc8249adc428c5f44c9063b9734b4000000000000000000000000000000000000000000000000002322e710d41ff7",
          "blockHash": "0x8743367ce8e3bcfe1adfd36a598d8f06b0b60fee370e1b508b5a75cfe504482d",
          "blockNumber": "0x739a9b",
          "transactionHash": "0x398d178a250373dccafdb9869621e618518e625cf4514875762ef8b0cc2383bd",
          "transactionIndex": "0x50",
          "logIndex": "0x75",
          "removed": false
        },
        {
          "address": "0x0907ee43932cb5b84fec241a3b1c20f0eb8965ac",
          "topics": [
            "0xaec00f5213a37254bc68a26b0685d1a5b2bf513e1e587c94c7df7f4a62b56c9c"
          ],
          "data": "0x0000000000000000000000000000000000000000000000008ac7230489e7ffff00000000000000000000000000000000000000000000000000232bff5f46bff600000000000000000000000000000000000000000000000000232bff5f46bff60000000000000000000000000000000000000000000000008ac7230489e7ffff",
          "blockHash": "0x8743367ce8e3bcfe1adfd36a598d8f06b0b60fee370e1b508b5a75cfe504482d",
          "blockNumber": "0x739a9b",
          "transactionHash": "0x398d178a250373dccafdb9869621e618518e625cf4514875762ef8b0cc2383bd",
          "transactionIndex": "0x50",
          "logIndex": "0x76",
          "removed": false
        },
        {
          "address": "0x0907ee43932cb5b84fec241a3b1c20f0eb8965ac",
          "topics": [
            "0x4afcb4a87cdbd9974efdb92ee48bc8d7cd0ae4bf217004db3d080cbaee652ca7"
          ],
          "data": "0x00000000000000000000000000000000000000000000000000000000679674e400000000000000000000000000000000000000000000000000038e21a006d7fe000000000000000000000000000000000000000000000000000009184e729fff",
          "blockHash": "0x8743367ce8e3bcfe1adfd36a598d8f06b0b60fee370e1b508b5a75cfe504482d",
          "blockNumber": "0x739a9b",
          "transactionHash": "0x398d178a250373dccafdb9869621e618518e625cf4514875762ef8b0cc2383bd",
          "transactionIndex": "0x50",
          "logIndex": "0x77",
          "removed": false
        }
      ],
      "logsBloom": "0x00000000000000000000000000000100420000000000000000000000000000000008000000000000200000000000000000002000000000004000000000000000000000000000000000000008000000000000000000000000000000000000000000000000000000000008002000000000020000000000000000000010000000000000000000000000000000000200000000000000000000000000010000000000000000000000040000000400000000004000000000000000000000001000000000000002000000800000000000000000000000000000080000000000000000000000000000000000000000000000000000000000000000000000000000000000",
      "type": "0x2",
      "transactionHash": "0x398d178a250373dccafdb9869621e618518e625cf4514875762ef8b0cc2383bd",
      "transactionIndex": "0x50",
      "blockHash": "0x8743367ce8e3bcfe1adfd36a598d8f06b0b60fee370e1b508b5a75cfe504482d",
      "blockNumber": "0x739a9b",
      "gasUsed": "0x401a2",
      "effectiveGasPrice": "0x344720d26",
      "from": "0xc77f7fed3b5cc8249adc428c5f44c9063b9734b4",
      "to": "0x0907ee43932cb5b84fec241a3b1c20f0eb8965ac",
      "contractAddress": null
    }
  ],
  "libraries": [],
  "pending": [],
  "returns": {},
  "timestamp": 1737913573,
  "chain": 11155111,
  "commit": "f5162e9"
}