{
  "transactions": [
    {
      "hash": "0xe771424b3b7164c60b707edc711dfbfb4e3546a024cbb0d37782fcd64750c970",
      "transactionType": "CALL",
      "contractName": null,
      "contractAddress": "0x8aafd3ede9adb0ff97c7aebce82a919afb1c8764",
      "function": "sell(uint256)",
      "arguments": [
        "174406127333417844254"
      ],
      "transaction": {
        "from": "0xc77f7fed3b5cc8249adc428c5f44c9063b9734b4",
        "to": "0x8aafd3ede9adb0ff97c7aebce82a919afb1c8764",
        "gas": "0x17270",
        "value": "0x0",
        "input": "0xe4849b32000000000000000000000000000000000000000000000009745f08c437ea7e1e",
        "nonce": "0x1616",
        "chainId": "0xaa36a7"
      },
      "additionalContracts": [],
      "isFixedGasLimit": false
    }
  ],
  "receipts": [
    {
      "status": "0x1",
      "cumulativeGasUsed": "0x10ecf7f",
      "logs": [
        {
          "address": "0x8aafd3ede9adb0ff97c7aebce82a919afb1c8764",
          "topics": [
            "0xddf252ad1be2c89b69c2b068fc378daa952ba7f163c4a11628f55a4df523b3ef",
            "0x000000000000000000000000c77f7fed3b5cc8249adc428c5f44c9063b9734b4",
            "0x0000000000000000000000000000000000000000000000000000000000000000"
          ],
          "data": "0x00000000000000000000000000000000000000000000000961021d2d2509627c",
          "blockHash": "0x5b08f0465ca6e8abfcb3c8eb7fead5319ce7c890a34f5f5a7c987f9e31d2ed58",
          "blockNumber": "0x731dac",
          "transactionHash": "0xe771424b3b7164c60b707edc711dfbfb4e3546a024cbb0d37782fcd64750c970",
          "transactionIndex": "0x6c",
          "logIndex": "0xa7",
          "removed": false
        },
        {
          "address": "0x8aafd3ede9adb0ff97c7aebce82a919afb1c8764",
          "topics": [
            "0xddf252ad1be2c89b69c2b068fc378daa952ba7f163c4a11628f55a4df523b3ef",
            "0x000000000000000000000000c77f7fed3b5cc8249adc428c5f44c9063b9734b4",
            "0x000000000000000000000000c77f7fed3b5cc8249adc428c5f44c9063b9734b4"
          ],
          "data": "0x000000000000000000000000000000000000000000000000135ceb9712e11ba2",
          "blockHash": "0x5b08f0465ca6e8abfcb3c8eb7fead5319ce7c890a34f5f5a7c987f9e31d2ed58",
          "blockNumber": "0x731dac",
          "transactionHash": "0xe771424b3b7164c60b707edc711dfbfb4e3546a024cbb0d37782fcd64750c970",
          "transactionIndex": "0x6c",
          "logIndex": "0xa8",
          "removed": false
        },
        {
          "address": "0x8aafd3ede9adb0ff97c7aebce82a919afb1c8764",
          "topics": [
            "0x4afcb4a87cdbd9974efdb92ee48bc8d7cd0ae4bf217004db3d080cbaee652ca7"
          ],
          "data": "0x00000000000000000000000000000000000000000000000000000000679060f8000000000000000000000000000000000000000000000000001454efd01d34a80000000000000000000000000000000000000000000000000dcc70377ea742e2",
          "blockHash": "0x5b08f0465ca6e8abfcb3c8eb7fead5319ce7c890a34f5f5a7c987f9e31d2ed58",
          "blockNumber": "0x731dac",
          "transactionHash": "0xe771424b3b7164c60b707edc711dfbfb4e3546a024cbb0d37782fcd64750c970",
          "transactionIndex": "0x6c",
          "logIndex": "0xa9",
          "removed": false
        }
      ],
      "logsBloom": "0x00000000000000000000000000000000000000000600000000000000000000000000000000000000000000000000000000000000000000004000000000000000000000000000004000000008000000000000000000000000000000000000000000000000020000000000000000000800020000000000000000000010000000000000000000000000000000000000000000000000000000000000010000000000000000000000000000000000000000004000000000000000000000000000000000000002000000800000000000000000000000000000080000000000000020000000000000000000000000000000000000000000000000000000000000000000",
      "type": "0x2",
      "transactionHash": "0xe771424b3b7164c60b707edc711dfbfb4e3546a024cbb0d37782fcd64750c970",
      "transactionIndex": "0x6c",
      "blockHash": "0x5b08f0465ca6e8abfcb3c8eb7fead5319ce7c890a34f5f5a7c987f9e31d2ed58",
      "blockNumber": "0x731dac",
      "gasUsed": "0xfd4b",
      "effectiveGasPrice": "0x68d1996d",
      "from": "0xc77f7fed3b5cc8249adc428c5f44c9063b9734b4",
      "to": "0x8aafd3ede9adb0ff97c7aebce82a919afb1c8764",
      "contractAddress": null
    }
  ],
  "libraries": [],
  "pending": [],
  "returns": {},
  "timestamp": 1737515257,
  "chain": 11155111,
  "commit": "1d2fb70"
}