{
  "transactions": [
    {
      "hash": "0x84d1487b92035e0cf9f8ecef8bacdb0fdda8290162aed4207a8f0f42ff296daf",
      "transactionType": "CALL",
      "contractName": null,
      "contractAddress": "0x8aafd3ede9adb0ff97c7aebce82a919afb1c8764",
      "function": "sell(uint256)",
      "arguments": [
        "750082586402310549599"
      ],
      "transaction": {
        "from": "0xc77f7fed3b5cc8249adc428c5f44c9063b9734b4",
        "to": "0x8aafd3ede9adb0ff97c7aebce82a919afb1c8764",
        "gas": "0x17270",
        "value": "0x0",
        "input": "0xe4849b32000000000000000000000000000000000000000000000028a97caa399bf7705f",
        "nonce": "0xe56",
        "chainId": "0xaa36a7"
      },
      "additionalContracts": [],
      "isFixedGasLimit": false
    }
  ],
  "receipts": [
    {
      "status": "0x1",
      "cumulativeGasUsed": "0xd82d12",
      "logs": [
        {
          "address": "0x8aafd3ede9adb0ff97c7aebce82a919afb1c8764",
          "topics": [
            "0xddf252ad1be2c89b69c2b068fc378daa952ba7f163c4a11628f55a4df523b3ef",
            "0x000000000000000000000000c77f7fed3b5cc8249adc428c5f44c9063b9734b4",
            "0x0000000000000000000000000000000000000000000000000000000000000000"
          ],
          "data": "0x0000000000000000000000000000000000000000000000285636091e863d23b3",
          "blockHash": "0xf5da4c44233eb8a4c4f7706a95be77b064f7ca0d7e4308dd7bf1c4f4782b74fc",
          "blockNumber": "0x7313a8",
          "transactionHash": "0x84d1487b92035e0cf9f8ecef8bacdb0fdda8290162aed4207a8f0f42ff296daf",
          "transactionIndex": "0x8d",
          "logIndex": "0x124",
          "removed": false
        },
        {
          "address": "0x8aafd3ede9adb0ff97c7aebce82a919afb1c8764",
          "topics": [
            "0xddf252ad1be2c89b69c2b068fc378daa952ba7f163c4a11628f55a4df523b3ef",
            "0x000000000000000000000000c77f7fed3b5cc8249adc428c5f44c9063b9734b4",
            "0x000000000000000000000000c77f7fed3b5cc8249adc428c5f44c9063b9734b4"
          ],
          "data": "0x0000000000000000000000000000000000000000000000005346a11b15ba4cac",
          "blockHash": "0xf5da4c44233eb8a4c4f7706a95be77b064f7ca0d7e4308dd7bf1c4f4782b74fc",
          "blockNumber": "0x7313a8",
          "transactionHash": "0x84d1487b92035e0cf9f8ecef8bacdb0fdda8290162aed4207a8f0f42ff296daf",
          "transactionIndex": "0x8d",
          "logIndex": "0x125",
          "removed": false
        },
        {
          "address": "0x8aafd3ede9adb0ff97c7aebce82a919afb1c8764",
          "topics": [
            "0x4afcb4a87cdbd9974efdb92ee48bc8d7cd0ae4bf217004db3d080cbaee652ca7"
          ],
          "data": "0x00000000000000000000000000000000000000000000000000000000678fe8740000000000000000000000000000000000000000000000000004b474937bd8430000000000000000000000000000000000000000000000000dc834e8a107514e",
          "blockHash": "0xf5da4c44233eb8a4c4f7706a95be77b064f7ca0d7e4308dd7bf1c4f4782b74fc",
          "blockNumber": "0x7313a8",
          "transactionHash": "0x84d1487b92035e0cf9f8ecef8bacdb0fdda8290162aed4207a8f0f42ff296daf",
          "transactionIndex": "0x8d",
          "logIndex": "0x126",
          "removed": false
        }
      ],
      "logsBloom": "0x00000000000000000000000000000000000000000600000000000000000000000000000000000000000000000000000000000000000000004000000000000000000000000000004000000008000000000000000000000000000000000000000000000000020000000000000000000800020000000000000000000010000000000000000000000000000000000000000000000000000000000000010000000000000000000000000000000000000000004000000000000000000000000000000000000002000000800000000000000000000000000000080000000000000020000000000000000000000000000000000000000000000000000000000000000000",
      "type": "0x2",
      "transactionHash": "0x84d1487b92035e0cf9f8ecef8bacdb0fdda8290162aed4207a8f0f42ff296daf",
      "transactionIndex": "0x8d",
      "blockHash": "0xf5da4c44233eb8a4c4f7706a95be77b064f7ca0d7e4308dd7bf1c4f4782b74fc",
      "blockNumber": "0x7313a8",
      "gasUsed": "0xfd4b",
      "effectiveGasPrice": "0x80ead232",
      "from": "0xc77f7fed3b5cc8249adc428c5f44c9063b9734b4",
      "to": "0x8aafd3ede9adb0ff97c7aebce82a919afb1c8764",
      "contractAddress": null
    }
  ],
  "libraries": [],
  "pending": [],
  "returns": {},
  "timestamp": 1737484404,
  "chain": 11155111,
  "commit": "51a374b"
}