{
  "transactions": [
    {
      "hash": "0x9a45063a75c15e0628d6cee0156063e9a2a606d80c1f233573bb17abc3b3b862",
      "transactionType": "CALL",
      "contractName": null,
      "contractAddress": "0x8aafd3ede9adb0ff97c7aebce82a919afb1c8764",
      "function": "sell(uint256)",
      "arguments": [
        "5693851162801759265"
      ],
      "transaction": {
        "from": "0xc77f7fed3b5cc8249adc428c5f44c9063b9734b4",
        "to": "0x8aafd3ede9adb0ff97c7aebce82a919afb1c8764",
        "gas": "0x15dca",
        "value": "0x0",
        "input": "0xe4849b320000000000000000000000000000000000000000000000004f049f771abe6421",
        "nonce": "0x106a",
        "chainId": "0xaa36a7"
      },
      "additionalContracts": [],
      "isFixedGasLimit": false
    }
  ],
  "receipts": [
    {
      "status": "0x1",
      "cumulativeGasUsed": "0xcc18a5",
      "logs": [
        {
          "address": "0x8aafd3ede9adb0ff97c7aebce82a919afb1c8764",
          "topics": [
            "0xddf252ad1be2c89b69c2b068fc378daa952ba7f163c4a11628f55a4df523b3ef",
            "0x000000000000000000000000c77f7fed3b5cc8249adc428c5f44c9063b9734b4",
            "0x0000000000000000000000000000000000000000000000000000000000000000"
          ],
          "data": "0x0000000000000000000000000000000000000000000000004e62cb3edb0ab127",
          "blockHash": "0x88652c50d02cb261ac95a86d9d27cac67e93e7002ac0717392f4f0ce1e0bc729",
          "blockNumber": "0x7316f0",
          "transactionHash": "0x9a45063a75c15e0628d6cee0156063e9a2a606d80c1f233573bb17abc3b3b862",
          "transactionIndex": "0x83",
          "logIndex": "0xc7",
          "removed": false
        },
        {
          "address": "0x8aafd3ede9adb0ff97c7aebce82a919afb1c8764",
          "topics": [
            "0xddf252ad1be2c89b69c2b068fc378daa952ba7f163c4a11628f55a4df523b3ef",
            "0x000000000000000000000000c77f7fed3b5cc8249adc428c5f44c9063b9734b4",
            "0x000000000000000000000000c77f7fed3b5cc8249adc428c5f44c9063b9734b4"
          ],
          "data": "0x00000000000000000000000000000000000000000000000000a1d4383fb3b2fa",
          "blockHash": "0x88652c50d02cb261ac95a86d9d27cac67e93e7002ac0717392f4f0ce1e0bc729",
          "blockNumber": "0x7316f0",
          "transactionHash": "0x9a45063a75c15e0628d6cee0156063e9a2a606d80c1f233573bb17abc3b3b862",
          "transactionIndex": "0x83",
          "logIndex": "0xc8",
          "removed": false
        },
        {
          "address": "0x8aafd3ede9adb0ff97c7aebce82a919afb1c8764",
          "topics": [
            "0x4afcb4a87cdbd9974efdb92ee48bc8d7cd0ae4bf217004db3d080cbaee652ca7"
          ],
          "data": "0x0000000000000000000000000000000000000000000000000000000067900ff80000000000000000000000000000000000000000000000000004f65f8ba09f1a000000000000000000000000000000000000000000000000001c4144d5103862",
          "blockHash": "0x88652c50d02cb261ac95a86d9d27cac67e93e7002ac0717392f4f0ce1e0bc729",
          "blockNumber": "0x7316f0",
          "transactionHash": "0x9a45063a75c15e0628d6cee0156063e9a2a606d80c1f233573bb17abc3b3b862",
          "transactionIndex": "0x83",
          "logIndex": "0xc9",
          "removed": false
        }
      ],
      "logsBloom": "0x00000000000000000000000000000000000000000600000000000000000000000000000000000000000000000000000000000000000000004000000000000000000000000000004000000008000000000000000000000000000000000000000000000000020000000000000000000800020000000000000000000010000000000000000000000000000000000000000000000000000000000000010000000000000000000000000000000000000000004000000000000000000000000000000000000002000000800000000000000000000000000000080000000000000020000000000000000000000000000000000000000000000000000000000000000000",
      "type": "0x2",
      "transactionHash": "0x9a45063a75c15e0628d6cee0156063e9a2a606d80c1f233573bb17abc3b3b862",
      "transactionIndex": "0x83",
      "blockHash": "0x88652c50d02cb261ac95a86d9d27cac67e93e7002ac0717392f4f0ce1e0bc729",
      "blockNumber": "0x7316f0",
      "gasUsed": "0xfd3f",
      "effectiveGasPrice": "0x42a1e0da",
      "from": "0xc77f7fed3b5cc8249adc428c5f44c9063b9734b4",
      "to": "0x8aafd3ede9adb0ff97c7aebce82a919afb1c8764",
      "contractAddress": null
    }
  ],
  "libraries": [],
  "pending": [],
  "returns": {},
  "timestamp": 1737494521,
  "chain": 11155111,
  "commit": "1d2fb70"
}