{
  "transactions": [
    {
      "hash": "0x7f616329aeddcecc2cab84db4d6b79e77164d0114259fbf73f8c7605769caa70",
      "transactionType": "CALL",
      "contractName": null,
      "contractAddress": "0x270e88f8683660553e8ba4eb2ad7c91a1710d769",
      "function": "sell(uint256)",
      "arguments": [
        "755524358687756625995"
      ],
      "transaction": {
        "from": "0xc77f7fed3b5cc8249adc428c5f44c9063b9734b4",
        "to": "0x270e88f8683660553e8ba4eb2ad7c91a1710d769",
        "gas": "0x16fec",
        "value": "0x0",
        "input": "0xe4849b32000000000000000000000000000000000000000000000028f501b949728ba84b",
        "nonce": "0x690",
        "chainId": "0xaa36a7"
      },
      "additionalContracts": [],
      "isFixedGasLimit": false
    }
  ],
  "receipts": [
    {
      "status": "0x1",
      "cumulativeGasUsed": "0x5c7afc",
      "logs": [
        {
          "address": "0x270e88f8683660553e8ba4eb2ad7c91a1710d769",
          "topics": [
            "0xddf252ad1be2c89b69c2b068fc378daa952ba7f163c4a11628f55a4df523b3ef",
            "0x000000000000000000000000c77f7fed3b5cc8249adc428c5f44c9063b9734b4",
            "0x0000000000000000000000000000000000000000000000000000000000000000"
          ],
          "data": "0x000000000000000000000000000000000000000000000028f501b949728ba84b",
          "blockHash": "0x6b70016606437ed520732a355049dd7eabd793606951a79e20a4c1721b5e6b67",
          "blockNumber": "0x725394",
          "transactionHash": "0x7f616329aeddcecc2cab84db4d6b79e77164d0114259fbf73f8c7605769caa70",
          "transactionIndex": "0x3b",
          "logIndex": "0x52",
          "removed": false
        },
        {
          "address": "0x270e88f8683660553e8ba4eb2ad7c91a1710d769",
          "topics": [
            "0x4afcb4a87cdbd9974efdb92ee48bc8d7cd0ae4bf217004db3d080cbaee652ca7"
          ],
          "data": "0x000000000000000000000000000000000000000000000000000000006786dcf80000000000000000000000000000000000000000000000000004aba9a4c4393e0000000000000000000000000000000000000000000000000dc82a1b2d52e050",
          "blockHash": "0x6b70016606437ed520732a355049dd7eabd793606951a79e20a4c1721b5e6b67",
          "blockNumber": "0x725394",
          "transactionHash": "0x7f616329aeddcecc2cab84db4d6b79e77164d0114259fbf73f8c7605769caa70",
          "transactionIndex": "0x3b",
          "logIndex": "0x53",
          "removed": false
        }
      ],
      "logsBloom": "0x00000000000000000000000000000000000000000000000000000000000000000000000000000000000000000000000020000000000000004000000000000000000000000000000000000008000000000000000000000000000000000000000000000000020000000000000000000800020000000000000000000010000000000000000000010000000000000000000000000000000000000000010000000000000000000000000000000000000000004000000000000000000000000000000000000002000000800000000000000000000000000000080000008000000020000000000000000000000000000000000000000000000000000000000000000000",
      "type": "0x2",
      "transactionHash": "0x7f616329aeddcecc2cab84db4d6b79e77164d0114259fbf73f8c7605769caa70",
      "transactionIndex": "0x3b",
      "blockHash": "0x6b70016606437ed520732a355049dd7eabd793606951a79e20a4c1721b5e6b67",
      "blockNumber": "0x725394",
      "gasUsed": "0xfb93",
      "effectiveGasPrice": "0x204364993",
      "from": "0xc77f7fed3b5cc8249adc428c5f44c9063b9734b4",
      "to": "0x270e88f8683660553e8ba4eb2ad7c91a1710d769",
      "contractAddress": null
    }
  ],
  "libraries": [],
  "pending": [],
  "returns": {},
  "timestamp": 1736891642,
  "chain": 11155111,
  "commit": "51a374b"
}