{
  "transactions": [
    {
      "hash": "0x972b1e19c8dacad9519bfc9fe0ef551f9875e874870d3842ace5916294d5dcb9",
      "transactionType": "CALL",
      "contractName": null,
      "contractAddress": "0x8aafd3ede9adb0ff97c7aebce82a919afb1c8764",
      "function": "sell(uint256)",
      "arguments": [
        "5774638619"
      ],
      "transaction": {
        "from": "0xc77f7fed3b5cc8249adc428c5f44c9063b9734b4",
        "to": "0x8aafd3ede9adb0ff97c7aebce82a919afb1c8764",
        "gas": "0x1722a",
        "value": "0x0",
        "input": "0xe4849b32000000000000000000000000000000000000000000000000000000015831fe1b",
        "nonce": "0x1609",
        "chainId": "0xaa36a7"
      },
      "additionalContracts": [],
      "isFixedGasLimit": false
    }
  ],
  "receipts": [
    {
      "status": "0x1",
      "cumulativeGasUsed": "0x12a8178",
      "logs": [
        {
          "address": "0x8aafd3ede9adb0ff97c7aebce82a919afb1c8764",
          "topics": [
            "0xddf252ad1be2c89b69c2b068fc378daa952ba7f163c4a11628f55a4df523b3ef",
            "0x000000000000000000000000c77f7fed3b5cc8249adc428c5f44c9063b9734b4",
            "0x0000000000000000000000000000000000000000000000000000000000000000"
          ],
          "data": "0x00000000000000000000000000000000000000000000000000000001557114a7",
          "blockHash": "0x2f0c63efa74bb5d35a9caf625749135f9ea3c5658cc111aea442136320a0582b",
          "blockNumber": "0x731d9d",
          "transactionHash": "0x972b1e19c8dacad9519bfc9fe0ef551f9875e874870d3842ace5916294d5dcb9",
          "transactionIndex": "0x94",
          "logIndex": "0xd3",
          "removed": false
        },
        {
          "address": "0x8aafd3ede9adb0ff97c7aebce82a919afb1c8764",
          "topics": [
            "0xddf252ad1be2c89b69c2b068fc378daa952ba7f163c4a11628f55a4df523b3ef",
            "0x000000000000000000000000c77f7fed3b5cc8249adc428c5f44c9063b9734b4",
            "0x000000000000000000000000c77f7fed3b5cc8249adc428c5f44c9063b9734b4"
          ],
          "data": "0x0000000000000000000000000000000000000000000000000000000002c0e974",
          "blockHash": "0x2f0c63efa74bb5d35a9caf625749135f9ea3c5658cc111aea442136320a0582b",
          "blockNumber": "0x731d9d",
          "transactionHash": "0x972b1e19c8dacad9519bfc9fe0ef551f9875e874870d3842ace5916294d5dcb9",
          "transactionIndex": "0x94",
          "logIndex": "0xd4",
          "removed": false
        },
        {
          "address": "0x8aafd3ede9adb0ff97c7aebce82a919afb1c8764",
          "topics": [
            "0x4afcb4a87cdbd9974efdb92ee48bc8d7cd0ae4bf217004db3d080cbaee652ca7"
          ],
          "data": "0x000000000000000000000000000000000000000000000000000000006790604400000000000000000000000000000000000000000000000000141f8d1614facb0000000000000000000000000000000000000000000000000000000001f3182c",
          "blockHash": "0x2f0c63efa74bb5d35a9caf625749135f9ea3c5658cc111aea442136320a0582b",
          "blockNumber": "0x731d9d",
          "transactionHash": "0x972b1e19c8dacad9519bfc9fe0ef551f9875e874870d3842ace5916294d5dcb9",
          "transactionIndex": "0x94",
          "logIndex": "0xd5",
          "removed": false
        }
      ],
      "logsBloom": "0x00000000000000000000000000000000000000000600000000000000000000000000000000000000000000000000000000000000000000004000000000000000000000000000004000000008000000000000000000000000000000000000000000000000020000000000000000000800020000000000000000000010000000000000000000000000000000000000000000000000000000000000010000000000000000000000000000000000000000004000000000000000000000000000000000000002000000800000000000000000000000000000080000000000000020000000000000000000000000000000000000000000000000000000000000000000",
      "type": "0x2",
      "transactionHash": "0x972b1e19c8dacad9519bfc9fe0ef551f9875e874870d3842ace5916294d5dcb9",
      "transactionIndex": "0x94",
      "blockHash": "0x2f0c63efa74bb5d35a9caf625749135f9ea3c5658cc111aea442136320a0582b",
      "blockNumber": "0x731d9d",
      "gasUsed": "0xfd1b",
      "effectiveGasPrice": "0x73553e36",
      "from": "0xc77f7fed3b5cc8249adc428c5f44c9063b9734b4",
      "to": "0x8aafd3ede9adb0ff97c7aebce82a919afb1c8764",
      "contractAddress": null
    }
  ],
  "libraries": [],
  "pending": [],
  "returns": {},
  "timestamp": 1737515078,
  "chain": 11155111,
  "commit": "1d2fb70"
}