{
  "transactions": [
    {
      "hash": "0xbb8168ccf54aa6e6dd37ae11826eeb215d1dfc32e026e285d08ffc2bf046fcd7",
      "transactionType": "CALL",
      "contractName": null,
      "contractAddress": "0x8aafd3ede9adb0ff97c7aebce82a919afb1c8764",
      "function": "sell(uint256)",
      "arguments": [
        "82461600388180"
      ],
      "transaction": {
        "from": "0xc77f7fed3b5cc8249adc428c5f44c9063b9734b4",
        "to": "0x8aafd3ede9adb0ff97c7aebce82a919afb1c8764",
        "gas": "0x15daa",
        "value": "0x0",
        "input": "0xe4849b3200000000000000000000000000000000000000000000000000004aff96661454",
        "nonce": "0x16a9",
        "chainId": "0xaa36a7"
      },
      "additionalContracts": [],
      "isFixedGasLimit": false
    }
  ],
  "receipts": [
    {
      "status": "0x1",
      "cumulativeGasUsed": "0x113a257",
      "logs": [
        {
          "address": "0x8aafd3ede9adb0ff97c7aebce82a919afb1c8764",
          "topics": [
            "0xddf252ad1be2c89b69c2b068fc378daa952ba7f163c4a11628f55a4df523b3ef",
            "0x000000000000000000000000c77f7fed3b5cc8249adc428c5f44c9063b9734b4",
            "0x0000000000000000000000000000000000000000000000000000000000000000"
          ],
          "data": "0x00000000000000000000000000000000000000000000000000004a65fda4c033",
          "blockHash": "0x784e3a6348c10455d0bfbb9a025dbed7ae452212bbd9c7376cb9292fe82ca6c9",
          "blockNumber": "0x731e61",
          "transactionHash": "0xbb8168ccf54aa6e6dd37ae11826eeb215d1dfc32e026e285d08ffc2bf046fcd7",
          "transactionIndex": "0x7f",
          "logIndex": "0xa7",
          "removed": false
        },
        {
          "address": "0x8aafd3ede9adb0ff97c7aebce82a919afb1c8764",
          "topics": [
            "0xddf252ad1be2c89b69c2b068fc378daa952ba7f163c4a11628f55a4df523b3ef",
            "0x000000000000000000000000c77f7fed3b5cc8249adc428c5f44c9063b9734b4",
            "0x000000000000000000000000c77f7fed3b5cc8249adc428c5f44c9063b9734b4"
          ],
          "data": "0x0000000000000000000000000000000000000000000000000000009998c15421",
          "blockHash": "0x784e3a6348c10455d0bfbb9a025dbed7ae452212bbd9c7376cb9292fe82ca6c9",
          "blockNumber": "0x731e61",
          "transactionHash": "0xbb8168ccf54aa6e6dd37ae11826eeb215d1dfc32e026e285d08ffc2bf046fcd7",
          "transactionIndex": "0x7f",
          "logIndex": "0xa8",
          "removed": false
        },
        {
          "address": "0x8aafd3ede9adb0ff97c7aebce82a919afb1c8764",
          "topics": [
            "0x4afcb4a87cdbd9974efdb92ee48bc8d7cd0ae4bf217004db3d080cbaee652ca7"
          ],
          "data": "0x00000000000000000000000000000000000000000000000000000000679069740000000000000000000000000000000000000000000000000016025e9e8cd37100000000000000000000000000000000000000000000000000000076f1479218",
          "blockHash": "0x784e3a6348c10455d0bfbb9a025dbed7ae452212bbd9c7376cb9292fe82ca6c9",
          "blockNumber": "0x731e61",
          "transactionHash": "0xbb8168ccf54aa6e6dd37ae11826eeb215d1dfc32e026e285d08ffc2bf046fcd7",
          "transactionIndex": "0x7f",
          "logIndex": "0xa9",
          "removed": false
        }
      ],
      "logsBloom": "0x00000000000000000000000000000000000000000600000000000000000000000000000000000000000000000000000000000000000000004000000000000000000000000000004000000008000000000000000000000000000000000000000000000000020000000000000000000800020000000000000000000010000000000000000000000000000000000000000000000000000000000000010000000000000000000000000000000000000000004000000000000000000000000000000000000002000000800000000000000000000000000000080000000000000020000000000000000000000000000000000000000000000000000000000000000000",
      "type": "0x2",
      "transactionHash": "0xbb8168ccf54aa6e6dd37ae11826eeb215d1dfc32e026e285d08ffc2bf046fcd7",
      "transactionIndex": "0x7f",
      "blockHash": "0x784e3a6348c10455d0bfbb9a025dbed7ae452212bbd9c7376cb9292fe82ca6c9",
      "blockNumber": "0x731e61",
      "gasUsed": "0xfd27",
      "effectiveGasPrice": "0x471f645e",
      "from": "0xc77f7fed3b5cc8249adc428c5f44c9063b9734b4",
      "to": "0x8aafd3ede9adb0ff97c7aebce82a919afb1c8764",
      "contractAddress": null
    }
  ],
  "libraries": [],
  "pending": [],
  "returns": {},
  "timestamp": 1737517428,
  "chain": 11155111,
  "commit": "1d2fb70"
}