{
  "transactions": [
    {
      "hash": "0x397171a3de4c72530ebbf804d462431b0e6db95f5526e99721e42bec3c9de6c9",
      "transactionType": "CALL",
      "contractName": null,
      "contractAddress": "0x8aafd3ede9adb0ff97c7aebce82a919afb1c8764",
      "function": "sell(uint256)",
      "arguments": [
        "1508141"
      ],
      "transaction": {
        "from": "0xc77f7fed3b5cc8249adc428c5f44c9063b9734b4",
        "to": "0x8aafd3ede9adb0ff97c7aebce82a919afb1c8764",
        "gas": "0x16208",
        "value": "0x0",
        "input": "0xe4849b32000000000000000000000000000000000000000000000000000000000017032d",
        "nonce": "0x1016",
        "chainId": "0xaa36a7"
      },
      "additionalContracts": [],
      "isFixedGasLimit": false
    }
  ],
  "receipts": [
    {
      "status": "0x1",
      "cumulativeGasUsed": "0x9dd1bd",
      "logs": [
        {
          "address": "0x8aafd3ede9adb0ff97c7aebce82a919afb1c8764",
          "topics": [
            "0xddf252ad1be2c89b69c2b068fc378daa952ba7f163c4a11628f55a4df523b3ef",
            "0x000000000000000000000000c77f7fed3b5cc8249adc428c5f44c9063b9734b4",
            "0x0000000000000000000000000000000000000000000000000000000000000000"
          ],
          "data": "0x000000000000000000000000000000000000000000000000000000000016d40c",
          "blockHash": "0xa034cfaf087a732fdcaa72982b1909ac0b938f54f4c644f059648545d0fea052",
          "blockNumber": "0x73168e",
          "transactionHash": "0x397171a3de4c72530ebbf804d462431b0e6db95f5526e99721e42bec3c9de6c9",
          "transactionIndex": "0x6f",
          "logIndex": "0xa3",
          "removed": false
        },
        {
          "address": "0x8aafd3ede9adb0ff97c7aebce82a919afb1c8764",
          "topics": [
            "0xddf252ad1be2c89b69c2b068fc378daa952ba7f163c4a11628f55a4df523b3ef",
            "0x000000000000000000000000c77f7fed3b5cc8249adc428c5f44c9063b9734b4",
            "0x000000000000000000000000c77f7fed3b5cc8249adc428c5f44c9063b9734b4"
          ],
          "data": "0x0000000000000000000000000000000000000000000000000000000000002f21",
          "blockHash": "0xa034cfaf087a732fdcaa72982b1909ac0b938f54f4c644f059648545d0fea052",
          "blockNumber": "0x73168e",
          "transactionHash": "0x397171a3de4c72530ebbf804d462431b0e6db95f5526e99721e42bec3c9de6c9",
          "transactionIndex": "0x6f",
          "logIndex": "0xa4",
          "removed": false
        },
        {
          "address": "0x8aafd3ede9adb0ff97c7aebce82a919afb1c8764",
          "topics": [
            "0x4afcb4a87cdbd9974efdb92ee48bc8d7cd0ae4bf217004db3d080cbaee652ca7"
          ],
          "data": "0x0000000000000000000000000000000000000000000000000000000067900b540000000000000000000000000000000000000000000000000004e94ddd75a0b90000000000000000000000000000000000000000000000000000000000000824",
          "blockHash": "0xa034cfaf087a732fdcaa72982b1909ac0b938f54f4c644f059648545d0fea052",
          "blockNumber": "0x73168e",
          "transactionHash": "0x397171a3de4c72530ebbf804d462431b0e6db95f5526e99721e42bec3c9de6c9",
          "transactionIndex": "0x6f",
          "logIndex": "0xa5",
          "removed": false
        }
      ],
      "logsBloom": "0x00000000000000000000000000000000000000000600000000000000000000000000000000000000000000000000000000000000000000004000000000000000000000000000004000000008000000000000000000000000000000000000000000000000020000000000000000000800020000000000000000000010000000000000000000000000000000000000000000000000000000000000010000000000000000000000000000000000000000004000000000000000000000000000000000000002000000800000000000000000000000000000080000000000000020000000000000000000000000000000000000000000000000000000000000000000",
      "type": "0x2",
      "transactionHash": "0x397171a3de4c72530ebbf804d462431b0e6db95f5526e99721e42bec3c9de6c9",
      "transactionIndex": "0x6f",
      "blockHash": "0xa034cfaf087a732fdcaa72982b1909ac0b938f54f4c644f059648545d0fea052",
      "blockNumber": "0x73168e",
      "gasUsed": "0xf213",
      "effectiveGasPrice": "0x43946684",
      "from": "0xc77f7fed3b5cc8249adc428c5f44c9063b9734b4",
      "to": "0x8aafd3ede9adb0ff97c7aebce82a919afb1c8764",
      "contractAddress": null
    }
  ],
  "libraries": [],
  "pending": [],
  "returns": {},
  "timestamp": 1737493333,
  "chain": 11155111,
  "commit": "1d2fb70"
}