{
  "transactions": [
    {
      "hash": "0x0b6fb5cc5703cf377e458f9e27aa97d95f46bca66fd7d878529722ea65aa1f1e",
      "transactionType": "CALL",
      "contractName": null,
      "contractAddress": "0x8aafd3ede9adb0ff97c7aebce82a919afb1c8764",
      "function": "sell(uint256)",
      "arguments": [
        "47988717278936286"
      ],
      "transaction": {
        "from": "0xc77f7fed3b5cc8249adc428c5f44c9063b9734b4",
        "to": "0x8aafd3ede9adb0ff97c7aebce82a919afb1c8764",
        "gas": "0x1724d",
        "value": "0x0",
        "input": "0xe4849b3200000000000000000000000000000000000000000000000000aa7d7beea33cde",
        "nonce": "0xe62",
        "chainId": "0xaa36a7"
      },
      "additionalContracts": [],
      "isFixedGasLimit": false
    }
  ],
  "receipts": [
    {
      "status": "0x1",
      "cumulativeGasUsed": "0xb78789",
      "logs": [
        {
          "address": "0x8aafd3ede9adb0ff97c7aebce82a919afb1c8764",
          "topics": [
            "0xddf252ad1be2c89b69c2b068fc378daa952ba7f163c4a11628f55a4df523b3ef",
            "0x000000000000000000000000c77f7fed3b5cc8249adc428c5f44c9063b9734b4",
            "0x0000000000000000000000000000000000000000000000000000000000000000"
          ],
          "data": "0x00000000000000000000000000000000000000000000000000a92051fb10861c",
          "blockHash": "0x06be7e875848c3c48ea504d1ac927141b2dc5d2bfe6cdd1d02906a0d876dcea1",
          "blockNumber": "0x7313b5",
          "transactionHash": "0x0b6fb5cc5703cf377e458f9e27aa97d95f46bca66fd7d878529722ea65aa1f1e",
          "transactionIndex": "0x93",
          "logIndex": "0xc2",
          "removed": false
        },
        {
          "address": "0x8aafd3ede9adb0ff97c7aebce82a919afb1c8764",
          "topics": [
            "0xddf252ad1be2c89b69c2b068fc378daa952ba7f163c4a11628f55a4df523b3ef",
            "0x000000000000000000000000c77f7fed3b5cc8249adc428c5f44c9063b9734b4",
            "0x000000000000000000000000c77f7fed3b5cc8249adc428c5f44c9063b9734b4"
          ],
          "data": "0x00000000000000000000000000000000000000000000000000015d29f392b6c2",
          "blockHash": "0x06be7e875848c3c48ea504d1ac927141b2dc5d2bfe6cdd1d02906a0d876dcea1",
          "blockNumber": "0x7313b5",
          "transactionHash": "0x0b6fb5cc5703cf377e458f9e27aa97d95f46bca66fd7d878529722ea65aa1f1e",
          "transactionIndex": "0x93",
          "logIndex": "0xc3",
          "removed": false
        },
        {
          "address": "0x8aafd3ede9adb0ff97c7aebce82a919afb1c8764",
          "topics": [
            "0x4afcb4a87cdbd9974efdb92ee48bc8d7cd0ae4bf217004db3d080cbaee652ca7"
          ],
          "data": "0x00000000000000000000000000000000000000000000000000000000678fe9100000000000000000000000000000000000000000000000000004b4df99e90747000000000000000000000000000000000000000000000000000039d20126db05",
          "blockHash": "0x06be7e875848c3c48ea504d1ac927141b2dc5d2bfe6cdd1d02906a0d876dcea1",
          "blockNumber": "0x7313b5",
          "transactionHash": "0x0b6fb5cc5703cf377e458f9e27aa97d95f46bca66fd7d878529722ea65aa1f1e",
          "transactionIndex": "0x93",
          "logIndex": "0xc4",
          "removed": false
        }
      ],
      "logsBloom": "0x00000000000000000000000000000000000000000600000000000000000000000000000000000000000000000000000000000000000000004000000000000000000000000000004000000008000000000000000000000000000000000000000000000000020000000000000000000800020000000000000000000010000000000000000000000000000000000000000000000000000000000000010000000000000000000000000000000000000000004000000000000000000000000000000000000002000000800000000000000000000000000000080000000000000020000000000000000000000000000000000000000000000000000000000000000000",
      "type": "0x2",
      "transactionHash": "0x0b6fb5cc5703cf377e458f9e27aa97d95f46bca66fd7d878529722ea65aa1f1e",
      "transactionIndex": "0x93",
      "blockHash": "0x06be7e875848c3c48ea504d1ac927141b2dc5d2bfe6cdd1d02906a0d876dcea1",
      "blockNumber": "0x7313b5",
      "gasUsed": "0xfd33",
      "effectiveGasPrice": "0x7d8d7ebe",
      "from": "0xc77f7fed3b5cc8249adc428c5f44c9063b9734b4",
      "to": "0x8aafd3ede9adb0ff97c7aebce82a919afb1c8764",
      "contractAddress": null
    }
  ],
  "libraries": [],
  "pending": [],
  "returns": {},
  "timestamp": 1737484562,
  "chain": 11155111,
  "commit": "51a374b"
}