{
  "transactions": [
    {
      "hash": "0x74e920b89b81f881e11d146647b96938aaa3b585078805ee03136c5e7ff70354",
      "transactionType": "CALL",
      "contractName": null,
      "contractAddress": "0x270e88f8683660553e8ba4eb2ad7c91a1710d769",
      "function": "sell(uint256)",
      "arguments": [
        "713555448422105036328"
      ],
      "transaction": {
        "from": "0xc77f7fed3b5cc8249adc428c5f44c9063b9734b4",
        "to": "0x270e88f8683660553e8ba4eb2ad7c91a1710d769",
        "gas": "0x16fec",
        "value": "0x0",
        "input": "0xe4849b32000000000000000000000000000000000000000000000026ae9233c2d8233628",
        "nonce": "0x870",
        "chainId": "0xaa36a7"
      },
      "additionalContracts": [],
      "isFixedGasLimit": false
    }
  ],
  "receipts": [
    {
      "status": "0x1",
      "cumulativeGasUsed": "0xc467cb",
      "logs": [
        {
          "address": "0x270e88f8683660553e8ba4eb2ad7c91a1710d769",
          "topics": [
            "0xddf252ad1be2c89b69c2b068fc378daa952ba7f163c4a11628f55a4df523b3ef",
            "0x000000000000000000000000c77f7fed3b5cc8249adc428c5f44c9063b9734b4",
            "0x0000000000000000000000000000000000000000000000000000000000000000"
          ],
          "data": "0x000000000000000000000000000000000000000000000026ae9233c2d8233628",
          "blockHash": "0x900bea5e628edde826760293b93736f48cd8e02ee877bd4f9fdc4c6a89de8ae8",
          "blockNumber": "0x7255c7",
          "transactionHash": "0x74e920b89b81f881e11d146647b96938aaa3b585078805ee03136c5e7ff70354",
          "transactionIndex": "0x3a",
          "logIndex": "0x166",
          "removed": false
        },
        {
          "address": "0x270e88f8683660553e8ba4eb2ad7c91a1710d769",
          "topics": [
            "0x4afcb4a87cdbd9974efdb92ee48bc8d7cd0ae4bf217004db3d080cbaee652ca7"
          ],
          "data": "0x000000000000000000000000000000000000000000000000000000006786f75c0000000000000000000000000000000000000000000000000004f1f867dfb0240000000000000000000000000000000000000000000000000dc825c30991e92d",
          "blockHash": "0x900bea5e628edde826760293b93736f48cd8e02ee877bd4f9fdc4c6a89de8ae8",
          "blockNumber": "0x7255c7",
          "transactionHash": "0x74e920b89b81f881e11d146647b96938aaa3b585078805ee03136c5e7ff70354",
          "transactionIndex": "0x3a",
          "logIndex": "0x167",
          "removed": false
        }
      ],
      "logsBloom": "0x00000000000000000000000000000000000000000000000000000000000000000000000000000000000000000000000020000000000000004000000000000000000000000000000000000008000000000000000000000000000000000000000000000000020000000000000000000800020000000000000000000010000000000000000000010000000000000000000000000000000000000000010000000000000000000000000000000000000000004000000000000000000000000000000000000002000000800000000000000000000000000000080000008000000020000000000000000000000000000000000000000000000000000000000000000000",
      "type": "0x2",
      "transactionHash": "0x74e920b89b81f881e11d146647b96938aaa3b585078805ee03136c5e7ff70354",
      "transactionIndex": "0x3a",
      "blockHash": "0x900bea5e628edde826760293b93736f48cd8e02ee877bd4f9fdc4c6a89de8ae8",
      "blockNumber": "0x7255c7",
      "gasUsed": "0xfb93",
      "effectiveGasPrice": "0xa18318af",
      "from": "0xc77f7fed3b5cc8249adc428c5f44c9063b9734b4",
      "to": "0x270e88f8683660553e8ba4eb2ad7c91a1710d769",
      "contractAddress": null
    }
  ],
  "libraries": [],
  "pending": [],
  "returns": {},
  "timestamp": 1736898398,
  "chain": 11155111,
  "commit": "51a374b"
}