{
  "transactions": [
    {
      "hash": "0xf837f66578bf8b5a0ff83066b590c0e358b4c17abca218260c7cef4b03907a68",
      "transactionType": "CALL",
      "contractName": null,
      "contractAddress": "0x270e88f8683660553e8ba4eb2ad7c91a1710d769",
      "function": "buy(address)",
      "arguments": [
        "0xC77f7fed3b5Cc8249aDc428c5F44C9063B9734b4"
      ],
      "transaction": {
        "from": "0xc77f7fed3b5cc8249adc428c5f44c9063b9734b4",
        "to": "0x270e88f8683660553e8ba4eb2ad7c91a1710d769",
        "gas": "0x1b30c",
        "value": "0xde0b6b3a7640000",
        "input": "0xf088d547000000000000000000000000c77f7fed3b5cc8249adc428c5f44c9063b9734b4",
        "nonce": "0x833",
        "chainId": "0xaa36a7"
      },
      "additionalContracts": [],
      "isFixedGasLimit": false
    }
  ],
  "receipts": [
    {
      "status": "0x1",
      "cumulativeGasUsed": "0xfc2a7c",
      "logs": [
        {
          "address": "0x270e88f8683660553e8ba4eb2ad7c91a1710d769",
          "topics": [
            "0xddf252ad1be2c89b69c2b068fc378daa952ba7f163c4a11628f55a4df523b3ef",
            "0x0000000000000000000000000000000000000000000000000000000000000000",
            "0x000000000000000000000000c77f7fed3b5cc8249adc428c5f44c9063b9734b4"
          ],
          "data": "0x000000000000000000000000000000000000000000000026d5a9bc9156e5ec04",
          "blockHash": "0xbb4f342cfed623722e9cec202a18b5f25544231dbe6281f0b0fbae05527fd80c",
          "blockNumber": "0x72557e",
          "transactionHash": "0xf837f66578bf8b5a0ff83066b590c0e358b4c17abca218260c7cef4b03907a68",
          "transactionIndex": "0x53",
          "logIndex": "0x53",
          "removed": false
        },
        {
          "address": "0x270e88f8683660553e8ba4eb2ad7c91a1710d769",
          "topics": [
            "0xddf252ad1be2c89b69c2b068fc378daa952ba7f163c4a11628f55a4df523b3ef",
            "0x0000000000000000000000000000000000000000000000000000000000000000",
            "0x000000000000000000000000c77f7fed3b5cc8249adc428c5f44c9063b9734b4"
          ],
          "data": "0x0000000000000000000000000000000000000000000000001e280a5b37bb3e85",
          "blockHash": "0xbb4f342cfed623722e9cec202a18b5f25544231dbe6281f0b0fbae05527fd80c",
          "blockNumber": "0x72557e",
          "transactionHash": "0xf837f66578bf8b5a0ff83066b590c0e358b4c17abca218260c7cef4b03907a68",
          "transactionIndex": "0x53",
          "logIndex": "0x54",
          "removed": false
        },
        {
          "address": "0x270e88f8683660553e8ba4eb2ad7c91a1710d769",
          "topics": [
            "0x4afcb4a87cdbd9974efdb92ee48bc8d7cd0ae4bf217004db3d080cbaee652ca7"
          ],
          "data": "0x000000000000000000000000000000000000000000000000000000006786f3f00000000000000000000000000000000000000000000000000004e8fe271931280000000000000000000000000000000000000000000000000de0b6b3a7640000",
          "blockHash": "0xbb4f342cfed623722e9cec202a18b5f25544231dbe6281f0b0fbae05527fd80c",
          "blockNumber": "0x72557e",
          "transactionHash": "0xf837f66578bf8b5a0ff83066b590c0e358b4c17abca218260c7cef4b03907a68",
          "transactionIndex": "0x53",
          "logIndex": "0x55",
          "removed": false
        }
      ],
      "logsBloom": "0x00000000000000000000000000000000000000000000000000000000000000000000000000000000000000000000000020000000000000004000000000000000000000000000000000000008000000000000000000000000000000000000000000000000020000000000000000000800020000000000000000000010000000000000000000010000000000000000000000000000000000000000010000000000000000000000000000000000000000004000000000000000000000000000000000000002000000800000000000000000000000000000080000008000000020000000000000000000000000000000000000000000000000000000000000000000",
      "type": "0x2",
      "transactionHash": "0xf837f66578bf8b5a0ff83066b590c0e358b4c17abca218260c7cef4b03907a68",
      "transactionIndex": "0x53",
      "blockHash": "0xbb4f342cfed623722e9cec202a18b5f25544231dbe6281f0b0fbae05527fd80c",
      "blockNumber": "0x72557e",
      "gasUsed": "0x13af8",
      "effectiveGasPrice": "0x7035231f",
      "from": "0xc77f7fed3b5cc8249adc428c5f44c9063b9734b4",
      "to": "0x270e88f8683660553e8ba4eb2ad7c91a1710d769",
      "contractAddress": null
    }
  ],
  "libraries": [],
  "pending": [],
  "returns": {},
  "timestamp": 1736897522,
  "chain": 11155111,
  "commit": "51a374b"
}