{
  "transactions": [
    {
      "hash": "0xc976049e4fff27f43cc4c1480bc29a8ea8ac689a1fdbcaee9c8d8588f8b8ff25",
      "transactionType": "CALL",
      "contractName": null,
      "contractAddress": "0x5eb9cc76c3506942c1c0ead70e877dd5e4f00cb0",
      "function": "buy(address)",
      "arguments": [
        "0xC77f7fed3b5Cc8249aDc428c5F44C9063B9734b4"
      ],
      "transaction": {
        "from": "0xc77f7fed3b5cc8249adc428c5f44c9063b9734b4",
        "to": "0x5eb9cc76c3506942c1c0ead70e877dd5e4f00cb0",
        "gas": "0x156c8",
        "value": "0xde0b6b3a7640000",
        "input": "0xf088d547000000000000000000000000c77f7fed3b5cc8249adc428c5f44c9063b9734b4",
        "nonce": "0x1e7",
        "chainId": "0xaa36a7"
      },
      "additionalContracts": [],
      "isFixedGasLimit": false
    }
  ],
  "receipts": [
    {
      "status": "0x1",
      "cumulativeGasUsed": "0xa7f85e",
      "logs": [
        {
          "address": "0x5eb9cc76c3506942c1c0ead70e877dd5e4f00cb0",
          "topics": [
            "0xddf252ad1be2c89b69c2b068fc378daa952ba7f163c4a11628f55a4df523b3ef",
            "0x0000000000000000000000000000000000000000000000000000000000000000",
            "0x000000000000000000000000c77f7fed3b5cc8249adc428c5f44c9063b9734b4"
          ],
          "data": "0x00000000000000000000000000000000000000000000003584c734544c98a05f",
          "blockHash": "0x6a5728da0be9295522f63a6a193da94f6a92477414ade0b2b486b0f71b03b812",
          "blockNumber": "0x724afc",
          "transactionHash": "0xc976049e4fff27f43cc4c1480bc29a8ea8ac689a1fdbcaee9c8d8588f8b8ff25",
          "transactionIndex": "0x75",
          "logIndex": "0xb6",
          "removed": false
        },
        {
          "address": "0x5eb9cc76c3506942c1c0ead70e877dd5e4f00cb0",
          "topics": [
            "0xddf252ad1be2c89b69c2b068fc378daa952ba7f163c4a11628f55a4df523b3ef",
            "0x0000000000000000000000000000000000000000000000000000000000000000",
            "0x000000000000000000000000c77f7fed3b5cc8249adc428c5f44c9063b9734b4"
          ],
          "data": "0x000000000000000000000000000000000000000000000000298f1f1e807028dd",
          "blockHash": "0x6a5728da0be9295522f63a6a193da94f6a92477414ade0b2b486b0f71b03b812",
          "blockNumber": "0x724afc",
          "transactionHash": "0xc976049e4fff27f43cc4c1480bc29a8ea8ac689a1fdbcaee9c8d8588f8b8ff25",
          "transactionIndex": "0x75",
          "logIndex": "0xb7",
          "removed": false
        },
        {
          "address": "0x5eb9cc76c3506942c1c0ead70e877dd5e4f00cb0",
          "topics": [
            "0x4afcb4a87cdbd9974efdb92ee48bc8d7cd0ae4bf217004db3d080cbaee652ca7"
          ],
          "data": "0x000000000000000000000000000000000000000000000000000000006786757800000000000000000000000000000000000000000000000000039008617847320000000000000000000000000000000000000000000000000de0b6b3a7640000",
          "blockHash": "0x6a5728da0be9295522f63a6a193da94f6a92477414ade0b2b486b0f71b03b812",
          "blockNumber": "0x724afc",
          "transactionHash": "0xc976049e4fff27f43cc4c1480bc29a8ea8ac689a1fdbcaee9c8d8588f8b8ff25",
          "transactionIndex": "0x75",
          "logIndex": "0xb8",
          "removed": false
        }
      ],
      "logsBloom": "0x00000000000000000000000000000000000000000000000000000000000000000000000000000000000000000000000000000000000000004000000000000000000000000000000000000008000000000000000000000000000000000000000000000000020000000000000004000800020000000000000000000010000000000000000000000000000000000000000000000000000000000000010000000000000000000000000000000000000000004000000000000000000000000000020000000002000000800000008000000000000000000000080000000000000020000000000000000000000000000000000000000000000000000000000000000000",
      "type": "0x2",
      "transactionHash": "0xc976049e4fff27f43cc4c1480bc29a8ea8ac689a1fdbcaee9c8d8588f8b8ff25",
      "transactionIndex": "0x75",
      "blockHash": "0x6a5728da0be9295522f63a6a193da94f6a92477414ade0b2b486b0f71b03b812",
      "blockNumber": "0x724afc",
      "gasUsed": "0xf82c",
      "effectiveGasPrice": "0x44a2180bb",
      "from": "0xc77f7fed3b5cc8249adc428c5f44c9063b9734b4",
      "to": "0x5eb9cc76c3506942c1c0ead70e877dd5e4f00cb0",
      "contractAddress": null
    }
  ],
  "libraries": [],
  "pending": [],
  "returns": {},
  "timestamp": 1736865145,
  "chain": 11155111,
  "commit": "51a374b"
}