{
  "transactions": [
    {
      "hash": "0x511b736ce26dcc455c0870f541f14a61aafd580e0b3b73dd8c06609c3803bb4c",
      "transactionType": "CALL",
      "contractName": null,
      "contractAddress": "0x8aafd3ede9adb0ff97c7aebce82a919afb1c8764",
      "function": "sell(uint256)",
      "arguments": [
        "47873058324309123"
      ],
      "transaction": {
        "from": "0xc77f7fed3b5cc8249adc428c5f44c9063b9734b4",
        "to": "0x8aafd3ede9adb0ff97c7aebce82a919afb1c8764",
        "gas": "0x1724d",
        "value": "0x0",
        "input": "0xe4849b3200000000000000000000000000000000000000000000000000aa144afbbb6483",
        "nonce": "0xea8",
        "chainId": "0xaa36a7"
      },
      "additionalContracts": [],
      "isFixedGasLimit": false
    }
  ],
  "receipts": [
    {
      "status": "0x1",
      "cumulativeGasUsed": "0x100f7a4",
      "logs": [
        {
          "address": "0x8aafd3ede9adb0ff97c7aebce82a919afb1c8764",
          "topics": [
            "0xddf252ad1be2c89b69c2b068fc378daa952ba7f163c4a11628f55a4df523b3ef",
            "0x000000000000000000000000c77f7fed3b5cc8249adc428c5f44c9063b9734b4",
            "0x0000000000000000000000000000000000000000000000000000000000000000"
          ],
          "data": "0x00000000000000000000000000000000000000000000000000a8b7f876a569db",
          "blockHash": "0x23df3fccdb2fd64d22330acd2e4f7ab0be28694e3c9c9b26c32d9ac203edff87",
          "blockNumber": "0x73140b",
          "transactionHash": "0x511b736ce26dcc455c0870f541f14a61aafd580e0b3b73dd8c06609c3803bb4c",
          "transactionIndex": "0xac",
          "logIndex": "0x101",
          "removed": false
        },
        {
          "address": "0x8aafd3ede9adb0ff97c7aebce82a919afb1c8764",
          "topics": [
            "0xddf252ad1be2c89b69c2b068fc378daa952ba7f163c4a11628f55a4df523b3ef",
            "0x000000000000000000000000c77f7fed3b5cc8249adc428c5f44c9063b9734b4",
            "0x000000000000000000000000c77f7fed3b5cc8249adc428c5f44c9063b9734b4"
          ],
          "data": "0x00000000000000000000000000000000000000000000000000015c528515faa8",
          "blockHash": "0x23df3fccdb2fd64d22330acd2e4f7ab0be28694e3c9c9b26c32d9ac203edff87",
          "blockNumber": "0x73140b",
          "transactionHash": "0x511b736ce26dcc455c0870f541f14a61aafd580e0b3b73dd8c06609c3803bb4c",
          "transactionIndex": "0xac",
          "logIndex": "0x102",
          "removed": false
        },
        {
          "address": "0x8aafd3ede9adb0ff97c7aebce82a919afb1c8764",
          "topics": [
            "0x4afcb4a87cdbd9974efdb92ee48bc8d7cd0ae4bf217004db3d080cbaee652ca7"
          ],
          "data": "0x00000000000000000000000000000000000000000000000000000000678fed300000000000000000000000000000000000000000000000000004b7c88a159b88000000000000000000000000000000000000000000000000000039d1fe038a7f",
          "blockHash": "0x23df3fccdb2fd64d22330acd2e4f7ab0be28694e3c9c9b26c32d9ac203edff87",
          "blockNumber": "0x73140b",
          "transactionHash": "0x511b736ce26dcc455c0870f541f14a61aafd580e0b3b73dd8c06609c3803bb4c",
          "transactionIndex": "0xac",
          "logIndex": "0x103",
          "removed": false
        }
      ],
      "logsBloom": "0x00000000000000000000000000000000000000000600000000000000000000000000000000000000000000000000000000000000000000004000000000000000000000000000004000000008000000000000000000000000000000000000000000000000020000000000000000000800020000000000000000000010000000000000000000000000000000000000000000000000000000000000010000000000000000000000000000000000000000004000000000000000000000000000000000000002000000800000000000000000000000000000080000000000000020000000000000000000000000000000000000000000000000000000000000000000",
      "type": "0x2",
      "transactionHash": "0x511b736ce26dcc455c0870f541f14a61aafd580e0b3b73dd8c06609c3803bb4c",
      "transactionIndex": "0xac",
      "blockHash": "0x23df3fccdb2fd64d22330acd2e4f7ab0be28694e3c9c9b26c32d9ac203edff87",
      "blockNumber": "0x73140b",
      "gasUsed": "0xfd33",
      "effectiveGasPrice": "0x80687dfc",
      "from": "0xc77f7fed3b5cc8249adc428c5f44c9063b9734b4",
      "to": "0x8aafd3ede9adb0ff97c7aebce82a919afb1c8764",
      "contractAddress": null
    }
  ],
  "libraries": [],
  "pending": [],
  "returns": {},
  "timestamp": 1737485616,
  "chain": 11155111,
  "commit": "51a374b"
}