{
  "transactions": [
    {
      "hash": "0xddbb32b3d7d32b38dd771f2990212a6dd481fe26919c2dbf67c727688a4bfde1",
      "transactionType": "CALL",
      "contractName": null,
      "contractAddress": "0x8aafd3ede9adb0ff97c7aebce82a919afb1c8764",
      "function": "sell(uint256)",
      "arguments": [
        "23456230371"
      ],
      "transaction": {
        "from": "0xc77f7fed3b5cc8249adc428c5f44c9063b9734b4",
        "to": "0x8aafd3ede9adb0ff97c7aebce82a919afb1c8764",
        "gas": "0x1722a",
        "value": "0x0",
        "input": "0xe4849b32000000000000000000000000000000000000000000000000000000057619abe3",
        "nonce": "0x103c",
        "chainId": "0xaa36a7"
      },
      "additionalContracts": [],
      "isFixedGasLimit": false
    }
  ],
  "receipts": [
    {
      "status": "0x1",
      "cumulativeGasUsed": "0x88870a",
      "logs": [
        {
          "address": "0x8aafd3ede9adb0ff97c7aebce82a919afb1c8764",
          "topics": [
            "0xddf252ad1be2c89b69c2b068fc378daa952ba7f163c4a11628f55a4df523b3ef",
            "0x000000000000000000000000c77f7fed3b5cc8249adc428c5f44c9063b9734b4",
            "0x0000000000000000000000000000000000000000000000000000000000000000"
          ],
          "data": "0x000000000000000000000000000000000000000000000000000000056aea5cb1",
          "blockHash": "0xd7c2d3c4e8c3dd20305b8bdc0c8cff46dd5efae266ca17c708066b1ce7755354",
          "blockNumber": "0x7316bb",
          "transactionHash": "0xddbb32b3d7d32b38dd771f2990212a6dd481fe26919c2dbf67c727688a4bfde1",
          "transactionIndex": "0x77",
          "logIndex": "0x7b",
          "removed": false
        },
        {
          "address": "0x8aafd3ede9adb0ff97c7aebce82a919afb1c8764",
          "topics": [
            "0xddf252ad1be2c89b69c2b068fc378daa952ba7f163c4a11628f55a4df523b3ef",
            "0x000000000000000000000000c77f7fed3b5cc8249adc428c5f44c9063b9734b4",
            "0x000000000000000000000000c77f7fed3b5cc8249adc428c5f44c9063b9734b4"
          ],
          "data": "0x000000000000000000000000000000000000000000000000000000000b2f4f32",
          "blockHash": "0xd7c2d3c4e8c3dd20305b8bdc0c8cff46dd5efae266ca17c708066b1ce7755354",
          "blockNumber": "0x7316bb",
          "transactionHash": "0xddbb32b3d7d32b38dd771f2990212a6dd481fe26919c2dbf67c727688a4bfde1",
          "transactionIndex": "0x77",
          "logIndex": "0x7c",
          "removed": false
        },
        {
          "address": "0x8aafd3ede9adb0ff97c7aebce82a919afb1c8764",
          "topics": [
            "0x4afcb4a87cdbd9974efdb92ee48bc8d7cd0ae4bf217004db3d080cbaee652ca7"
          ],
          "data": "0x0000000000000000000000000000000000000000000000000000000067900d7c0000000000000000000000000000000000000000000000000004ef1cc9407a6a0000000000000000000000000000000000000000000000000000000001f112ac",
          "blockHash": "0xd7c2d3c4e8c3dd20305b8bdc0c8cff46dd5efae266ca17c708066b1ce7755354",
          "blockNumber": "0x7316bb",
          "transactionHash": "0xddbb32b3d7d32b38dd771f2990212a6dd481fe26919c2dbf67c727688a4bfde1",
          "transactionIndex": "0x77",
          "logIndex": "0x7d",
          "removed": false
        }
      ],
      "logsBloom": "0x00000000000000000000000000000000000000000600000000000000000000000000000000000000000000000000000000000000000000004000000000000000000000000000004000000008000000000000000000000000000000000000000000000000020000000000000000000800020000000000000000000010000000000000000000000000000000000000000000000000000000000000010000000000000000000000000000000000000000004000000000000000000000000000000000000002000000800000000000000000000000000000080000000000000020000000000000000000000000000000000000000000000000000000000000000000",
      "type": "0x2",
      "transactionHash": "0xddbb32b3d7d32b38dd771f2990212a6dd481fe26919c2dbf67c727688a4bfde1",
      "transactionIndex": "0x77",
      "blockHash": "0xd7c2d3c4e8c3dd20305b8bdc0c8cff46dd5efae266ca17c708066b1ce7755354",
      "blockNumber": "0x7316bb",
      "gasUsed": "0xfd1b",
      "effectiveGasPrice": "0x518aec2d",
      "from": "0xc77f7fed3b5cc8249adc428c5f44c9063b9734b4",
      "to": "0x8aafd3ede9adb0ff97c7aebce82a919afb1c8764",
      "contractAddress": null
    }
  ],
  "libraries": [],
  "pending": [],
  "returns": {},
  "timestamp": 1737493885,
  "chain": 11155111,
  "commit": "1d2fb70"
}