{
  "transactions": [
    {
      "hash": "0x3b2ef000b85da3042035b2d09681845ec7dc5e361a6ec80a8a6eca50055fa705",
      "transactionType": "CALL",
      "contractName": null,
      "contractAddress": "0xbf4a322f1496e5c3d34a9bcdb4c60567b38c7de2",
      "function": "buy(address)",
      "arguments": [
        "0xC77f7fed3b5Cc8249aDc428c5F44C9063B9734b4"
      ],
      "transaction": {
        "from": "0xc77f7fed3b5cc8249adc428c5f44c9063b9734b4",
        "to": "0xbf4a322f1496e5c3d34a9bcdb4c60567b38c7de2",
        "gas": "0x1b309",
        "value": "0xde0b6b3a7640000",
        "input": "0xf088d547000000000000000000000000c77f7fed3b5cc8249adc428c5f44c9063b9734b4",
        "nonce": "0xc60",
        "chainId": "0xaa36a7"
      },
      "additionalContracts": [],
      "isFixedGasLimit": false
    }
  ],
  "receipts": [
    {
      "status": "0x1",
      "cumulativeGasUsed": "0x14a5ec3",
      "logs": [
        {
          "address": "0xbf4a322f1496e5c3d34a9bcdb4c60567b38c7de2",
          "topics": [
            "0xddf252ad1be2c89b69c2b068fc378daa952ba7f163c4a11628f55a4df523b3ef",
            "0x0000000000000000000000000000000000000000000000000000000000000000",
            "0x000000000000000000000000c77f7fed3b5cc8249adc428c5f44c9063b9734b4"
          ],
          "data": "0x000000000000000000000000000000000000000000000034e98b9aa9a5acbb54",
          "blockHash": "0x50f68d00fc8ae88324b45f6c0f6a36b635f8feb2e0a28ffbe26fa9eecbbb1006",
          "blockNumber": "0x725c99",
          "transactionHash": "0x3b2ef000b85da3042035b2d09681845ec7dc5e361a6ec80a8a6eca50055fa705",
          "transactionIndex": "0x4c",
          "logIndex": "0x73",
          "removed": false
        },
        {
          "address": "0xbf4a322f1496e5c3d34a9bcdb4c60567b38c7de2",
          "topics": [
            "0xddf252ad1be2c89b69c2b068fc378daa952ba7f163c4a11628f55a4df523b3ef",
            "0x0000000000000000000000000000000000000000000000000000000000000000",
            "0x000000000000000000000000c77f7fed3b5cc8249adc428c5f44c9063b9734b4"
          ],
          "data": "0x000000000000000000000000000000000000000000000000291693f6cada0fed",
          "blockHash": "0x50f68d00fc8ae88324b45f6c0f6a36b635f8feb2e0a28ffbe26fa9eecbbb1006",
          "blockNumber": "0x725c99",
          "transactionHash": "0x3b2ef000b85da3042035b2d09681845ec7dc5e361a6ec80a8a6eca50055fa705",
          "transactionIndex": "0x4c",
          "logIndex": "0x74",
          "removed": false
        },
        {
          "address": "0xbf4a322f1496e5c3d34a9bcdb4c60567b38c7de2",
          "topics": [
            "0x4afcb4a87cdbd9974efdb92ee48bc8d7cd0ae4bf217004db3d080cbaee652ca7"
          ],
          "data": "0x00000000000000000000000000000000000000000000000000000000678749a000000000000000000000000000000000000000000000000000039a7e61b29b910000000000000000000000000000000000000000000000000de0b6b3a7640000",
          "blockHash": "0x50f68d00fc8ae88324b45f6c0f6a36b635f8feb2e0a28ffbe26fa9eecbbb1006",
          "blockNumber": "0x725c99",
          "transactionHash": "0x3b2ef000b85da3042035b2d09681845ec7dc5e361a6ec80a8a6eca50055fa705",
          "transactionIndex": "0x4c",
          "logIndex": "0x75",
          "removed": false
        }
      ],
      "logsBloom": "0x00000000000000000000000000000000000000000000000000000000000000000000000000000000000000000000000000000000000000004000000000000000000000000000000000000008000000000000001000000000000000000000000000000000020000000000000000000800020000000000000000000010000000000000000000000000000000000000000000000000000008000000010000000000000000000000000000000000000000004000000000000000000000000000000000000002000000800000000000001000000000000000080000000000000020000000000000000000000000000000000000000000000000000000000000000000",
      "type": "0x2",
      "transactionHash": "0x3b2ef000b85da3042035b2d09681845ec7dc5e361a6ec80a8a6eca50055fa705",
      "transactionIndex": "0x4c",
      "blockHash": "0x50f68d00fc8ae88324b45f6c0f6a36b635f8feb2e0a28ffbe26fa9eecbbb1006",
      "blockNumber": "0x725c99",
      "gasUsed": "0x13af6",
      "effectiveGasPrice": "0x24af462b5",
      "from": "0xc77f7fed3b5cc8249adc428c5f44c9063b9734b4",
      "to": "0xbf4a322f1496e5c3d34a9bcdb4c60567b38c7de2",
      "contractAddress": null
    }
  ],
  "libraries": [],
  "pending": [],
  "returns": {},
  "timestamp": 1736919456,
  "chain": 11155111,
  "commit": "51a374b"
}