{
  "transactions": [
    {
      "hash": "0xc5826a7398ad1052a6832868b9d414251a8fdc043e2c5932acaf1d311ebbb488",
      "transactionType": "CALL",
      "contractName": null,
      "contractAddress": "0x8aafd3ede9adb0ff97c7aebce82a919afb1c8764",
      "function": "sell(uint256)",
      "arguments": [
        "356251135731970"
      ],
      "transaction": {
        "from": "0xc77f7fed3b5cc8249adc428c5f44c9063b9734b4",
        "to": "0x8aafd3ede9adb0ff97c7aebce82a919afb1c8764",
        "gas": "0x1724d",
        "value": "0x0",
        "input": "0xe4849b32000000000000000000000000000000000000000000000000000144022e656902",
        "nonce": "0x1134",
        "chainId": "0xaa36a7"
      },
      "additionalContracts": [],
      "isFixedGasLimit": false
    }
  ],
  "receipts": [
    {
      "status": "0x1",
      "cumulativeGasUsed": "0x7f2f06",
      "logs": [
        {
          "address": "0x8aafd3ede9adb0ff97c7aebce82a919afb1c8764",
          "topics": [
            "0xddf252ad1be2c89b69c2b068fc378daa952ba7f163c4a11628f55a4df523b3ef",
            "0x000000000000000000000000c77f7fed3b5cc8249adc428c5f44c9063b9734b4",
            "0x0000000000000000000000000000000000000000000000000000000000000000"
          ],
          "data": "0x0000000000000000000000000000000000000000000000000001416a9c9df163",
          "blockHash": "0xaae1d9435647d812594a86f46a5e723eab8c231d7a9f7520161d6ba34cc97ae2",
          "blockNumber": "0x7317ed",
          "transactionHash": "0xc5826a7398ad1052a6832868b9d414251a8fdc043e2c5932acaf1d311ebbb488",
          "transactionIndex": "0x72",
          "logIndex": "0x80",
          "removed": false
        },
        {
          "address": "0x8aafd3ede9adb0ff97c7aebce82a919afb1c8764",
          "topics": [
            "0xddf252ad1be2c89b69c2b068fc378daa952ba7f163c4a11628f55a4df523b3ef",
            "0x000000000000000000000000c77f7fed3b5cc8249adc428c5f44c9063b9734b4",
            "0x000000000000000000000000c77f7fed3b5cc8249adc428c5f44c9063b9734b4"
          ],
          "data": "0x0000000000000000000000000000000000000000000000000000029791c7779f",
          "blockHash": "0xaae1d9435647d812594a86f46a5e723eab8c231d7a9f7520161d6ba34cc97ae2",
          "blockNumber": "0x7317ed",
          "transactionHash": "0xc5826a7398ad1052a6832868b9d414251a8fdc043e2c5932acaf1d311ebbb488",
          "transactionIndex": "0x72",
          "logIndex": "0x81",
          "removed": false
        },
        {
          "address": "0x8aafd3ede9adb0ff97c7aebce82a919afb1c8764",
          "topics": [
            "0x4afcb4a87cdbd9974efdb92ee48bc8d7cd0ae4bf217004db3d080cbaee652ca7"
          ],
          "data": "0x0000000000000000000000000000000000000000000000000000000067901be00000000000000000000000000000000000000000000000000005136c076574330000000000000000000000000000000000000000000000000000007681f6349c",
          "blockHash": "0xaae1d9435647d812594a86f46a5e723eab8c231d7a9f7520161d6ba34cc97ae2",
          "blockNumber": "0x7317ed",
          "transactionHash": "0xc5826a7398ad1052a6832868b9d414251a8fdc043e2c5932acaf1d311ebbb488",
          "transactionIndex": "0x72",
          "logIndex": "0x82",
          "removed": false
        }
      ],
      "logsBloom": "0x00000000000000000000000000000000000000000600000000000000000000000000000000000000000000000000000000000000000000004000000000000000000000000000004000000008000000000000000000000000000000000000000000000000020000000000000000000800020000000000000000000010000000000000000000000000000000000000000000000000000000000000010000000000000000000000000000000000000000004000000000000000000000000000000000000002000000800000000000000000000000000000080000000000000020000000000000000000000000000000000000000000000000000000000000000000",
      "type": "0x2",
      "transactionHash": "0xc5826a7398ad1052a6832868b9d414251a8fdc043e2c5932acaf1d311ebbb488",
      "transactionIndex": "0x72",
      "blockHash": "0xaae1d9435647d812594a86f46a5e723eab8c231d7a9f7520161d6ba34cc97ae2",
      "blockNumber": "0x7317ed",
      "gasUsed": "0xfd33",
      "effectiveGasPrice": "0x4d10ff3a",
      "from": "0xc77f7fed3b5cc8249adc428c5f44c9063b9734b4",
      "to": "0x8aafd3ede9adb0ff97c7aebce82a919afb1c8764",
      "contractAddress": null
    }
  ],
  "libraries": [],
  "pending": [],
  "returns": {},
  "timestamp": 1737497570,
  "chain": 11155111,
  "commit": "1d2fb70"
}