{
  "transactions": [
    {
      "hash": "0xbffaa578e9a7932717e9e7793f61e2ce768f4802831020d5ee239b186a7712ae",
      "transactionType": "CALL",
      "contractName": null,
      "contractAddress": "0x8aafd3ede9adb0ff97c7aebce82a919afb1c8764",
      "function": "sell(uint256)",
      "arguments": [
        "185937718"
      ],
      "transaction": {
        "from": "0xc77f7fed3b5cc8249adc428c5f44c9063b9734b4",
        "to": "0x8aafd3ede9adb0ff97c7aebce82a919afb1c8764",
        "gas": "0x15d88",
        "value": "0x0",
        "input": "0xe4849b32000000000000000000000000000000000000000000000000000000000b152f36",
        "nonce": "0x108d",
        "chainId": "0xaa36a7"
      },
      "additionalContracts": [],
      "isFixedGasLimit": false
    }
  ],
  "receipts": [
    {
      "status": "0x1",
      "cumulativeGasUsed": "0x1b1e685",
      "logs": [
        {
          "address": "0x8aafd3ede9adb0ff97c7aebce82a919afb1c8764",
          "topics": [
            "0xddf252ad1be2c89b69c2b068fc378daa952ba7f163c4a11628f55a4df523b3ef",
            "0x000000000000000000000000c77f7fed3b5cc8249adc428c5f44c9063b9734b4",
            "0x0000000000000000000000000000000000000000000000000000000000000000"
          ],
          "data": "0x000000000000000000000000000000000000000000000000000000000afe7ca9",
          "blockHash": "0x56d3e39dfe00dde8af4cc8cd833383e6324a9b74ed1dd2c5ad37bd5d50a8cc94",
          "blockNumber": "0x73171a",
          "transactionHash": "0xbffaa578e9a7932717e9e7793f61e2ce768f4802831020d5ee239b186a7712ae",
          "transactionIndex": "0xbc",
          "logIndex": "0x107",
          "removed": false
        },
        {
          "address": "0x8aafd3ede9adb0ff97c7aebce82a919afb1c8764",
          "topics": [
            "0xddf252ad1be2c89b69c2b068fc378daa952ba7f163c4a11628f55a4df523b3ef",
            "0x000000000000000000000000c77f7fed3b5cc8249adc428c5f44c9063b9734b4",
            "0x000000000000000000000000c77f7fed3b5cc8249adc428c5f44c9063b9734b4"
          ],
          "data": "0x000000000000000000000000000000000000000000000000000000000016b28d",
          "blockHash": "0x56d3e39dfe00dde8af4cc8cd833383e6324a9b74ed1dd2c5ad37bd5d50a8cc94",
          "blockNumber": "0x73171a",
          "transactionHash": "0xbffaa578e9a7932717e9e7793f61e2ce768f4802831020d5ee239b186a7712ae",
          "transactionIndex": "0xbc",
          "logIndex": "0x108",
          "removed": false
        },
        {
          "address": "0x8aafd3ede9adb0ff97c7aebce82a919afb1c8764",
          "topics": [
            "0x4afcb4a87cdbd9974efdb92ee48bc8d7cd0ae4bf217004db3d080cbaee652ca7"
          ],
          "data": "0x00000000000000000000000000000000000000000000000000000000679011fc0000000000000000000000000000000000000000000000000004fabae4fcaab1000000000000000000000000000000000000000000000000000000000003f9fe",
          "blockHash": "0x56d3e39dfe00dde8af4cc8cd833383e6324a9b74ed1dd2c5ad37bd5d50a8cc94",
          "blockNumber": "0x73171a",
          "transactionHash": "0xbffaa578e9a7932717e9e7793f61e2ce768f4802831020d5ee239b186a7712ae",
          "transactionIndex": "0xbc",
          "logIndex": "0x109",
          "removed": false
        }
      ],
      "logsBloom": "0x00000000000000000000000000000000000000000600000000000000000000000000000000000000000000000000000000000000000000004000000000000000000000000000004000000008000000000000000000000000000000000000000000000000020000000000000000000800020000000000000000000010000000000000000000000000000000000000000000000000000000000000010000000000000000000000000000000000000000004000000000000000000000000000000000000002000000800000000000000000000000000000080000000000000020000000000000000000000000000000000000000000000000000000000000000000",
      "type": "0x2",
      "transactionHash": "0xbffaa578e9a7932717e9e7793f61e2ce768f4802831020d5ee239b186a7712ae",
      "transactionIndex": "0xbc",
      "blockHash": "0x56d3e39dfe00dde8af4cc8cd833383e6324a9b74ed1dd2c5ad37bd5d50a8cc94",
      "blockNumber": "0x73171a",
      "gasUsed": "0xfd0f",
      "effectiveGasPrice": "0x3bba8489",
      "from": "0xc77f7fed3b5cc8249adc428c5f44c9063b9734b4",
      "to": "0x8aafd3ede9adb0ff97c7aebce82a919afb1c8764",
      "contractAddress": null
    }
  ],
  "libraries": [],
  "pending": [],
  "returns": {},
  "timestamp": 1737495037,
  "chain": 11155111,
  "commit": "1d2fb70"
}