{
  "transactions": [
    {
      "hash": "0x91df0860445adbf6793e3c67e1aea7dba4eb63e530e62b7944bded00d57b2308",
      "transactionType": "CALL",
      "contractName": null,
      "contractAddress": "0x270e88f8683660553e8ba4eb2ad7c91a1710d769",
      "function": "sell(uint256)",
      "arguments": [
        "739753297077997118278"
      ],
      "transaction": {
        "from": "0xc77f7fed3b5cc8249adc428c5f44c9063b9734b4",
        "to": "0x270e88f8683660553e8ba4eb2ad7c91a1710d769",
        "gas": "0x16fec",
        "value": "0x0",
        "input": "0xe4849b320000000000000000000000000000000000000000000000281a23a84fbe07a346",
        "nonce": "0x73e",
        "chainId": "0xaa36a7"
      },
      "additionalContracts": [],
      "isFixedGasLimit": false
    }
  ],
  "receipts": [
    {
      "status": "0x1",
      "cumulativeGasUsed": "0x50cddb",
      "logs": [
        {
          "address": "0x270e88f8683660553e8ba4eb2ad7c91a1710d769",
          "topics": [
            "0xddf252ad1be2c89b69c2b068fc378daa952ba7f163c4a11628f55a4df523b3ef",
            "0x000000000000000000000000c77f7fed3b5cc8249adc428c5f44c9063b9734b4",
            "0x0000000000000000000000000000000000000000000000000000000000000000"
          ],
          "data": "0x0000000000000000000000000000000000000000000000281a23a84fbe07a346",
          "blockHash": "0x682c27c9f03bd497c4592f3b64f818e41a1d223e7b2c15f35bbb00002f9bca1b",
          "blockNumber": "0x72545f",
          "transactionHash": "0x91df0860445adbf6793e3c67e1aea7dba4eb63e530e62b7944bded00d57b2308",
          "transactionIndex": "0x30",
          "logIndex": "0x5f",
          "removed": false
        },
        {
          "address": "0x270e88f8683660553e8ba4eb2ad7c91a1710d769",
          "topics": [
            "0x4afcb4a87cdbd9974efdb92ee48bc8d7cd0ae4bf217004db3d080cbaee652ca7"
          ],
          "data": "0x000000000000000000000000000000000000000000000000000000006786e67c0000000000000000000000000000000000000000000000000004c525af5b62780000000000000000000000000000000000000000000000000dc8287970181a83",
          "blockHash": "0x682c27c9f03bd497c4592f3b64f818e41a1d223e7b2c15f35bbb00002f9bca1b",
          "blockNumber": "0x72545f",
          "transactionHash": "0x91df0860445adbf6793e3c67e1aea7dba4eb63e530e62b7944bded00d57b2308",
          "transactionIndex": "0x30",
          "logIndex": "0x60",
          "removed": false
        }
      ],
      "logsBloom": "0x00000000000000000000000000000000000000000000000000000000000000000000000000000000000000000000000020000000000000004000000000000000000000000000000000000008000000000000000000000000000000000000000000000000020000000000000000000800020000000000000000000010000000000000000000010000000000000000000000000000000000000000010000000000000000000000000000000000000000004000000000000000000000000000000000000002000000800000000000000000000000000000080000008000000020000000000000000000000000000000000000000000000000000000000000000000",
      "type": "0x2",
      "transactionHash": "0x91df0860445adbf6793e3c67e1aea7dba4eb63e530e62b7944bded00d57b2308",
      "transactionIndex": "0x30",
      "blockHash": "0x682c27c9f03bd497c4592f3b64f818e41a1d223e7b2c15f35bbb00002f9bca1b",
      "blockNumber": "0x72545f",
      "gasUsed": "0xfb93",
      "effectiveGasPrice": "0x14285ca8d",
      "from": "0xc77f7fed3b5cc8249adc428c5f44c9063b9734b4",
      "to": "0x270e88f8683660553e8ba4eb2ad7c91a1710d769",
      "contractAddress": null
    }
  ],
  "libraries": [],
  "pending": [],
  "returns": {},
  "timestamp": 1736894076,
  "chain": 11155111,
  "commit": "51a374b"
}