{
  "transactions": [
    {
      "hash": "0x068343a398b6d26887807416780cb0ad5a6de44269e53453b08408fc109685a5",
      "transactionType": "CALL",
      "contractName": null,
      "contractAddress": "0x8aafd3ede9adb0ff97c7aebce82a919afb1c8764",
      "function": "sell(uint256)",
      "arguments": [
        "76580392799654"
      ],
      "transaction": {
        "from": "0xc77f7fed3b5cc8249adc428c5f44c9063b9734b4",
        "to": "0x8aafd3ede9adb0ff97c7aebce82a919afb1c8764",
        "gas": "0x15daa",
        "value": "0x0",
        "input": "0xe4849b32000000000000000000000000000000000000000000000000000045a6431c0da6",
        "nonce": "0x1739",
        "chainId": "0xaa36a7"
      },
      "additionalContracts": [],
      "isFixedGasLimit": false
    }
  ],
  "receipts": [
    {
      "status": "0x1",
      "cumulativeGasUsed": "0x9e12c0",
      "logs": [
        {
          "address": "0x8aafd3ede9adb0ff97c7aebce82a919afb1c8764",
          "topics": [
            "0xddf252ad1be2c89b69c2b068fc378daa952ba7f163c4a11628f55a4df523b3ef",
            "0x000000000000000000000000c77f7fed3b5cc8249adc428c5f44c9063b9734b4",
            "0x0000000000000000000000000000000000000000000000000000000000000000"
          ],
          "data": "0x000000000000000000000000000000000000000000000000000045179ebb92a9",
          "blockHash": "0x94436683f9d9f3db51efa671e4112cf3e43893d1a8dfb8208401e4279191e21b",
          "blockNumber": "0x731f04",
          "transactionHash": "0x068343a398b6d26887807416780cb0ad5a6de44269e53453b08408fc109685a5",
          "transactionIndex": "0x6a",
          "logIndex": "0xb9",
          "removed": false
        },
        {
          "address": "0x8aafd3ede9adb0ff97c7aebce82a919afb1c8764",
          "topics": [
            "0xddf252ad1be2c89b69c2b068fc378daa952ba7f163c4a11628f55a4df523b3ef",
            "0x000000000000000000000000c77f7fed3b5cc8249adc428c5f44c9063b9734b4",
            "0x000000000000000000000000c77f7fed3b5cc8249adc428c5f44c9063b9734b4"
          ],
          "data": "0x0000000000000000000000000000000000000000000000000000008ea4607afd",
          "blockHash": "0x94436683f9d9f3db51efa671e4112cf3e43893d1a8dfb8208401e4279191e21b",
          "blockNumber": "0x731f04",
          "transactionHash": "0x068343a398b6d26887807416780cb0ad5a6de44269e53453b08408fc109685a5",
          "transactionIndex": "0x6a",
          "logIndex": "0xba",
          "removed": false
        },
        {
          "address": "0x8aafd3ede9adb0ff97c7aebce82a919afb1c8764",
          "topics": [
            "0x4afcb4a87cdbd9974efdb92ee48bc8d7cd0ae4bf217004db3d080cbaee652ca7"
          ],
          "data": "0x00000000000000000000000000000000000000000000000000000000679071180000000000000000000000000000000000000000000000000017b11959973c8e00000000000000000000000000000000000000000000000000000076e75a5651",
          "blockHash": "0x94436683f9d9f3db51efa671e4112cf3e43893d1a8dfb8208401e4279191e21b",
          "blockNumber": "0x731f04",
          "transactionHash": "0x068343a398b6d26887807416780cb0ad5a6de44269e53453b08408fc109685a5",
          "transactionIndex": "0x6a",
          "logIndex": "0xbb",
          "removed": false
        }
      ],
      "logsBloom": "0x00000000000000000000000000000000000000000600000000000000000000000000000000000000000000000000000000000000000000004000000000000000000000000000004000000008000000000000000000000000000000000000000000000000020000000000000000000800020000000000000000000010000000000000000000000000000000000000000000000000000000000000010000000000000000000000000000000000000000004000000000000000000000000000000000000002000000800000000000000000000000000000080000000000000020000000000000000000000000000000000000000000000000000000000000000000",
      "type": "0x2",
      "transactionHash": "0x068343a398b6d26887807416780cb0ad5a6de44269e53453b08408fc109685a5",
      "transactionIndex": "0x6a",
      "blockHash": "0x94436683f9d9f3db51efa671e4112cf3e43893d1a8dfb8208401e4279191e21b",
      "blockNumber": "0x731f04",
      "gasUsed": "0xfd27",
      "effectiveGasPrice": "0x44711932",
      "from": "0xc77f7fed3b5cc8249adc428c5f44c9063b9734b4",
      "to": "0x8aafd3ede9adb0ff97c7aebce82a919afb1c8764",
      "contractAddress": null
    }
  ],
  "libraries": [],
  "pending": [],
  "returns": {},
  "timestamp": 1737519385,
  "chain": 11155111,
  "commit": "1d2fb70"
}