{
  "transactions": [
    {
      "hash": "0x22f5daeea46aa4b44f183972480ee8c0462e2b5b13c3d29dd3baf06d0006e31b",
      "transactionType": "CALL",
      "contractName": null,
      "contractAddress": "0x8aafd3ede9adb0ff97c7aebce82a919afb1c8764",
      "function": "sell(uint256)",
      "arguments": [
        "325282"
      ],
      "transaction": {
        "from": "0xc77f7fed3b5cc8249adc428c5f44c9063b9734b4",
        "to": "0x8aafd3ede9adb0ff97c7aebce82a919afb1c8764",
        "gas": "0x16208",
        "value": "0x0",
        "input": "0xe4849b32000000000000000000000000000000000000000000000000000000000004f6a2",
        "nonce": "0x16f5",
        "chainId": "0xaa36a7"
      },
      "additionalContracts": [],
      "isFixedGasLimit": false
    }
  ],
  "receipts": [
    {
      "status": "0x1",
      "cumulativeGasUsed": "0xb3aa4d",
      "logs": [
        {
          "address": "0x8aafd3ede9adb0ff97c7aebce82a919afb1c8764",
          "topics": [
            "0xddf252ad1be2c89b69c2b068fc378daa952ba7f163c4a11628f55a4df523b3ef",
            "0x000000000000000000000000c77f7fed3b5cc8249adc428c5f44c9063b9734b4",
            "0x0000000000000000000000000000000000000000000000000000000000000000"
          ],
          "data": "0x000000000000000000000000000000000000000000000000000000000004ec78",
          "blockHash": "0xe7f41e530cafe512e4b576db97b3f560bb680bcbf48f09faf5c83e0c2683010c",
          "blockNumber": "0x731eb7",
          "transactionHash": "0x22f5daeea46aa4b44f183972480ee8c0462e2b5b13c3d29dd3baf06d0006e31b",
          "transactionIndex": "0x76",
          "logIndex": "0x70",
          "removed": false
        },
        {
          "address": "0x8aafd3ede9adb0ff97c7aebce82a919afb1c8764",
          "topics": [
            "0xddf252ad1be2c89b69c2b068fc378daa952ba7f163c4a11628f55a4df523b3ef",
            "0x000000000000000000000000c77f7fed3b5cc8249adc428c5f44c9063b9734b4",
            "0x000000000000000000000000c77f7fed3b5cc8249adc428c5f44c9063b9734b4"
          ],
          "data": "0x0000000000000000000000000000000000000000000000000000000000000a2a",
          "blockHash": "0xe7f41e530cafe512e4b576db97b3f560bb680bcbf48f09faf5c83e0c2683010c",
          "blockNumber": "0x731eb7",
          "transactionHash": "0x22f5daeea46aa4b44f183972480ee8c0462e2b5b13c3d29dd3baf06d0006e31b",
          "transactionIndex": "0x76",
          "logIndex": "0x71",
          "removed": false
        },
        {
          "address": "0x8aafd3ede9adb0ff97c7aebce82a919afb1c8764",
          "topics": [
            "0x4afcb4a87cdbd9974efdb92ee48bc8d7cd0ae4bf217004db3d080cbaee652ca7"
          ],
          "data": "0x0000000000000000000000000000000000000000000000000000000067906d7c0000000000000000000000000000000000000000000000000016d990290ac7a2000000000000000000000000000000000000000000000000000000000000082c",
          "blockHash": "0xe7f41e530cafe512e4b576db97b3f560bb680bcbf48f09faf5c83e0c2683010c",
          "blockNumber": "0x731eb7",
          "transactionHash": "0x22f5daeea46aa4b44f183972480ee8c0462e2b5b13c3d29dd3baf06d0006e31b",
          "transactionIndex": "0x76",
          "logIndex": "0x72",
          "removed": false
        }
      ],
      "logsBloom": "0x00000000000000000000000000000000000000000600000000000000000000000000000000000000000000000000000000000000000000004000000000000000000000000000004000000008000000000000000000000000000000000000000000000000020000000000000000000800020000000000000000000010000000000000000000000000000000000000000000000000000000000000010000000000000000000000000000000000000000004000000000000000000000000000000000000002000000800000000000000000000000000000080000000000000020000000000000000000000000000000000000000000000000000000000000000000",
      "type": "0x2",
      "transactionHash": "0x22f5daeea46aa4b44f183972480ee8c0462e2b5b13c3d29dd3baf06d0006e31b",
      "transactionIndex": "0x76",
      "blockHash": "0xe7f41e530cafe512e4b576db97b3f560bb680bcbf48f09faf5c83e0c2683010c",
      "blockNumber": "0x731eb7",
      "gasUsed": "0xf213",
      "effectiveGasPrice": "0x464c0b8a",
      "from": "0xc77f7fed3b5cc8249adc428c5f44c9063b9734b4",
      "to": "0x8aafd3ede9adb0ff97c7aebce82a919afb1c8764",
      "contractAddress": null
    }
  ],
  "libraries": [],
  "pending": [],
  "returns": {},
  "timestamp": 1737518461,
  "chain": 11155111,
  "commit": "1d2fb70"
}