{
  "transactions": [
    {
      "hash": "0x68a952d45fb71412ec1a406e1b9cd93621c5e441f744dabd4b9bbe2ea09e4335",
      "transactionType": "CALL",
      "contractName": null,
      "contractAddress": "0xbf4a322f1496e5c3d34a9bcdb4c60567b38c7de2",
      "function": "buy(address)",
      "arguments": [
        "0xC77f7fed3b5Cc8249aDc428c5F44C9063B9734b4"
      ],
      "transaction": {
        "from": "0xc77f7fed3b5cc8249adc428c5f44c9063b9734b4",
        "to": "0xbf4a322f1496e5c3d34a9bcdb4c60567b38c7de2",
        "gas": "0x1b309",
        "value": "0xde0b6b3a7640000",
        "input": "0xf088d547000000000000000000000000c77f7fed3b5cc8249adc428c5f44c9063b9734b4",
        "nonce": "0xd20",
        "chainId": "0xaa36a7"
      },
      "additionalContracts": [],
      "isFixedGasLimit": false
    }
  ],
  "receipts": [
    {
      "status": "0x1",
      "cumulativeGasUsed": "0x5dae0f",
      "logs": [
        {
          "address": "0xbf4a322f1496e5c3d34a9bcdb4c60567b38c7de2",
          "topics": [
            "0xddf252ad1be2c89b69c2b068fc378daa952ba7f163c4a11628f55a4df523b3ef",
            "0x0000000000000000000000000000000000000000000000000000000000000000",
            "0x000000000000000000000000c77f7fed3b5cc8249adc428c5f44c9063b9734b4"
          ],
          "data": "0x000000000000000000000000000000000000000000000034c60ae3c6e4c3a00a",
          "blockHash": "0x2d12748d618c6f76f7b9e2efd2949849fc8a4bb4b96c5ef562ce467f1331784d",
          "blockNumber": "0x725d80",
          "transactionHash": "0x68a952d45fb71412ec1a406e1b9cd93621c5e441f744dabd4b9bbe2ea09e4335",
          "transactionIndex": "0x51",
          "logIndex": "0x67",
          "removed": false
        },
        {
          "address": "0xbf4a322f1496e5c3d34a9bcdb4c60567b38c7de2",
          "topics": [
            "0xddf252ad1be2c89b69c2b068fc378daa952ba7f163c4a11628f55a4df523b3ef",
            "0x0000000000000000000000000000000000000000000000000000000000000000",
            "0x000000000000000000000000c77f7fed3b5cc8249adc428c5f44c9063b9734b4"
          ],
          "data": "0x00000000000000000000000000000000000000000000000028fb02446d0140e2",
          "blockHash": "0x2d12748d618c6f76f7b9e2efd2949849fc8a4bb4b96c5ef562ce467f1331784d",
          "blockNumber": "0x725d80",
          "transactionHash": "0x68a952d45fb71412ec1a406e1b9cd93621c5e441f744dabd4b9bbe2ea09e4335",
          "transactionIndex": "0x51",
          "logIndex": "0x68",
          "removed": false
        },
        {
          "address": "0xbf4a322f1496e5c3d34a9bcdb4c60567b38c7de2",
          "topics": [
            "0x4afcb4a87cdbd9974efdb92ee48bc8d7cd0ae4bf217004db3d080cbaee652ca7"
          ],
          "data": "0x000000000000000000000000000000000000000000000000000000006787547400000000000000000000000000000000000000000000000000039ceaf8c53e440000000000000000000000000000000000000000000000000de0b6b3a7640000",
          "blockHash": "0x2d12748d618c6f76f7b9e2efd2949849fc8a4bb4b96c5ef562ce467f1331784d",
          "blockNumber": "0x725d80",
          "transactionHash": "0x68a952d45fb71412ec1a406e1b9cd93621c5e441f744dabd4b9bbe2ea09e4335",
          "transactionIndex": "0x51",
          "logIndex": "0x69",
          "removed": false
        }
      ],
      "logsBloom": "0x00000000000000000000000000000000000000000000000000000000000000000000000000000000000000000000000000000000000000004000000000000000000000000000000000000008000000000000001000000000000000000000000000000000020000000000000000000800020000000000000000000010000000000000000000000000000000000000000000000000000008000000010000000000000000000000000000000000000000004000000000000000000000000000000000000002000000800000000000001000000000000000080000000000000020000000000000000000000000000000000000000000000000000000000000000000",
      "type": "0x2",
      "transactionHash": "0x68a952d45fb71412ec1a406e1b9cd93621c5e441f744dabd4b9bbe2ea09e4335",
      "transactionIndex": "0x51",
      "blockHash": "0x2d12748d618c6f76f7b9e2efd2949849fc8a4bb4b96c5ef562ce467f1331784d",
      "blockNumber": "0x725d80",
      "gasUsed": "0x13af6",
      "effectiveGasPrice": "0x23b42d36b",
      "from": "0xc77f7fed3b5cc8249adc428c5f44c9063b9734b4",
      "to": "0xbf4a322f1496e5c3d34a9bcdb4c60567b38c7de2",
      "contractAddress": null
    }
  ],
  "libraries": [],
  "pending": [],
  "returns": {},
  "timestamp": 1736922229,
  "chain": 11155111,
  "commit": "51a374b"
}