{
  "transactions": [
    {
      "hash": "0x4a4847a8cf1bfe72ccc18cb36fed35952033760d3310f82a05fc1d9248a3c48b",
      "transactionType": "CALL",
      "contractName": null,
      "contractAddress": "0x8aafd3ede9adb0ff97c7aebce82a919afb1c8764",
      "function": "sell(uint256)",
      "arguments": [
        "12435"
      ],
      "transaction": {
        "from": "0xc77f7fed3b5cc8249adc428c5f44c9063b9734b4",
        "to": "0x8aafd3ede9adb0ff97c7aebce82a919afb1c8764",
        "gas": "0x14e4c",
        "value": "0x0",
        "input": "0xe4849b320000000000000000000000000000000000000000000000000000000000003093",
        "nonce": "0xf97",
        "chainId": "0xaa36a7"
      },
      "additionalContracts": [],
      "isFixedGasLimit": false
    }
  ],
  "receipts": [
    {
      "status": "0x1",
      "cumulativeGasUsed": "0xd9115f",
      "logs": [
        {
          "address": "0x8aafd3ede9adb0ff97c7aebce82a919afb1c8764",
          "topics": [
            "0xddf252ad1be2c89b69c2b068fc378daa952ba7f163c4a11628f55a4df523b3ef",
            "0x000000000000000000000000c77f7fed3b5cc8249adc428c5f44c9063b9734b4",
            "0x0000000000000000000000000000000000000000000000000000000000000000"
          ],
          "data": "0x0000000000000000000000000000000000000000000000000000000000003030",
          "blockHash": "0x0fa18e76017f78e86fe189c4f8aa23104b425df6c23d1bc3f0e25d726f67cbd9",
          "blockNumber": "0x7315fc",
          "transactionHash": "0x4a4847a8cf1bfe72ccc18cb36fed35952033760d3310f82a05fc1d9248a3c48b",
          "transactionIndex": "0x86",
          "logIndex": "0xbb",
          "removed": false
        },
        {
          "address": "0x8aafd3ede9adb0ff97c7aebce82a919afb1c8764",
          "topics": [
            "0xddf252ad1be2c89b69c2b068fc378daa952ba7f163c4a11628f55a4df523b3ef",
            "0x000000000000000000000000c77f7fed3b5cc8249adc428c5f44c9063b9734b4",
            "0x000000000000000000000000c77f7fed3b5cc8249adc428c5f44c9063b9734b4"
          ],
          "data": "0x0000000000000000000000000000000000000000000000000000000000000063",
          "blockHash": "0x0fa18e76017f78e86fe189c4f8aa23104b425df6c23d1bc3f0e25d726f67cbd9",
          "blockNumber": "0x7315fc",
          "transactionHash": "0x4a4847a8cf1bfe72ccc18cb36fed35952033760d3310f82a05fc1d9248a3c48b",
          "transactionIndex": "0x86",
          "logIndex": "0xbc",
          "removed": false
        },
        {
          "address": "0x8aafd3ede9adb0ff97c7aebce82a919afb1c8764",
          "topics": [
            "0x4afcb4a87cdbd9974efdb92ee48bc8d7cd0ae4bf217004db3d080cbaee652ca7"
          ],
          "data": "0x000000000000000000000000000000000000000000000000000000006790047c0000000000000000000000000000000000000000000000000004c2d34cf59c230000000000000000000000000000000000000000000000000000000000000010",
          "blockHash": "0x0fa18e76017f78e86fe189c4f8aa23104b425df6c23d1bc3f0e25d726f67cbd9",
          "blockNumber": "0x7315fc",
          "transactionHash": "0x4a4847a8cf1bfe72ccc18cb36fed35952033760d3310f82a05fc1d9248a3c48b",
          "transactionIndex": "0x86",
          "logIndex": "0xbd",
          "removed": false
        }
      ],
      "logsBloom": "0x00000000000000000000000000000000000000000600000000000000000000000000000000000000000000000000000000000000000000004000000000000000000000000000004000000008000000000000000000000000000000000000000000000000020000000000000000000800020000000000000000000010000000000000000000000000000000000000000000000000000000000000010000000000000000000000000000000000000000004000000000000000000000000000000000000002000000800000000000000000000000000000080000000000000020000000000000000000000000000000000000000000000000000000000000000000",
      "type": "0x2",
      "transactionHash": "0x4a4847a8cf1bfe72ccc18cb36fed35952033760d3310f82a05fc1d9248a3c48b",
      "transactionIndex": "0x86",
      "blockHash": "0x0fa18e76017f78e86fe189c4f8aa23104b425df6c23d1bc3f0e25d726f67cbd9",
      "blockNumber": "0x7315fc",
      "gasUsed": "0xf207",
      "effectiveGasPrice": "0x67e68fd3",
      "from": "0xc77f7fed3b5cc8249adc428c5f44c9063b9734b4",
      "to": "0x8aafd3ede9adb0ff97c7aebce82a919afb1c8764",
      "contractAddress": null
    }
  ],
  "libraries": [],
  "pending": [],
  "returns": {},
  "timestamp": 1737491582,
  "chain": 11155111,
  "commit": "1d2fb70"
}