{
  "transactions": [
    {
      "hash": "0x1baf605b159330c5db0498e83bc559e3294da9ddd52930486a4c8a99d49772bc",
      "transactionType": "CALL",
      "contractName": null,
      "contractAddress": "0x8aafd3ede9adb0ff97c7aebce82a919afb1c8764",
      "function": "sell(uint256)",
      "arguments": [
        "79414608561305"
      ],
      "transaction": {
        "from": "0xc77f7fed3b5cc8249adc428c5f44c9063b9734b4",
        "to": "0x8aafd3ede9adb0ff97c7aebce82a919afb1c8764",
        "gas": "0x15daa",
        "value": "0x0",
        "input": "0xe4849b320000000000000000000000000000000000000000000000000000483a27888499",
        "nonce": "0x16f1",
        "chainId": "0xaa36a7"
      },
      "additionalContracts": [],
      "isFixedGasLimit": false
    }
  ],
  "receipts": [
    {
      "status": "0x1",
      "cumulativeGasUsed": "0xb1f5a0",
      "logs": [
        {
          "address": "0x8aafd3ede9adb0ff97c7aebce82a919afb1c8764",
          "topics": [
            "0xddf252ad1be2c89b69c2b068fc378daa952ba7f163c4a11628f55a4df523b3ef",
            "0x000000000000000000000000c77f7fed3b5cc8249adc428c5f44c9063b9734b4",
            "0x0000000000000000000000000000000000000000000000000000000000000000"
          ],
          "data": "0x000000000000000000000000000000000000000000000000000047a63bb26f0f",
          "blockHash": "0xe2893894287dbad3f55221cd8e0ba1d7a0ad2f8d232d164af0871802e3506eeb",
          "blockNumber": "0x731eb1",
          "transactionHash": "0x1baf605b159330c5db0498e83bc559e3294da9ddd52930486a4c8a99d49772bc",
          "transactionIndex": "0x65",
          "logIndex": "0xa8",
          "removed": false
        },
        {
          "address": "0x8aafd3ede9adb0ff97c7aebce82a919afb1c8764",
          "topics": [
            "0xddf252ad1be2c89b69c2b068fc378daa952ba7f163c4a11628f55a4df523b3ef",
            "0x000000000000000000000000c77f7fed3b5cc8249adc428c5f44c9063b9734b4",
            "0x000000000000000000000000c77f7fed3b5cc8249adc428c5f44c9063b9734b4"
          ],
          "data": "0x00000000000000000000000000000000000000000000000000000093ebd6158a",
          "blockHash": "0xe2893894287dbad3f55221cd8e0ba1d7a0ad2f8d232d164af0871802e3506eeb",
          "blockNumber": "0x731eb1",
          "transactionHash": "0x1baf605b159330c5db0498e83bc559e3294da9ddd52930486a4c8a99d49772bc",
          "transactionIndex": "0x65",
          "logIndex": "0xa9",
          "removed": false
        },
        {
          "address": "0x8aafd3ede9adb0ff97c7aebce82a919afb1c8764",
          "topics": [
            "0x4afcb4a87cdbd9974efdb92ee48bc8d7cd0ae4bf217004db3d080cbaee652ca7"
          ],
          "data": "0x0000000000000000000000000000000000000000000000000000000067906d340000000000000000000000000000000000000000000000000016d9902909651f00000000000000000000000000000000000000000000000000000076ec24c1ca",
          "blockHash": "0xe2893894287dbad3f55221cd8e0ba1d7a0ad2f8d232d164af0871802e3506eeb",
          "blockNumber": "0x731eb1",
          "transactionHash": "0x1baf605b159330c5db0498e83bc559e3294da9ddd52930486a4c8a99d49772bc",
          "transactionIndex": "0x65",
          "logIndex": "0xaa",
          "removed": false
        }
      ],
      "logsBloom": "0x00000000000000000000000000000000000000000600000000000000000000000000000000000000000000000000000000000000000000004000000000000000000000000000004000000008000000000000000000000000000000000000000000000000020000000000000000000800020000000000000000000010000000000000000000000000000000000000000000000000000000000000010000000000000000000000000000000000000000004000000000000000000000000000000000000002000000800000000000000000000000000000080000000000000020000000000000000000000000000000000000000000000000000000000000000000",
      "type": "0x2",
      "transactionHash": "0x1baf605b159330c5db0498e83bc559e3294da9ddd52930486a4c8a99d49772bc",
      "transactionIndex": "0x65",
      "blockHash": "0xe2893894287dbad3f55221cd8e0ba1d7a0ad2f8d232d164af0871802e3506eeb",
      "blockNumber": "0x731eb1",
      "gasUsed": "0xfd27",
      "effectiveGasPrice": "0x45403b84",
      "from": "0xc77f7fed3b5cc8249adc428c5f44c9063b9734b4",
      "to": "0x8aafd3ede9adb0ff97c7aebce82a919afb1c8764",
      "contractAddress": null
    }
  ],
  "libraries": [],
  "pending": [],
  "returns": {},
  "timestamp": 1737518389,
  "chain": 11155111,
  "commit": "1d2fb70"
}