{
  "transactions": [
    {
      "hash": "0x66f4f3a6771f914085836ff2bd58ec6294d09261e6acaf59942b00cb66457669",
      "transactionType": "CALL",
      "contractName": null,
      "contractAddress": "0x8aafd3ede9adb0ff97c7aebce82a919afb1c8764",
      "function": "sell(uint256)",
      "arguments": [
        "44234349989643346"
      ],
      "transaction": {
        "from": "0xc77f7fed3b5cc8249adc428c5f44c9063b9734b4",
        "to": "0x8aafd3ede9adb0ff97c7aebce82a919afb1c8764",
        "gas": "0x15daa",
        "value": "0x0",
        "input": "0xe4849b32000000000000000000000000000000000000000000000000009d26e82e00c452",
        "nonce": "0x116f",
        "chainId": "0xaa36a7"
      },
      "additionalContracts": [],
      "isFixedGasLimit": false
    }
  ],
  "receipts": [
    {
      "status": "0x1",
      "cumulativeGasUsed": "0x113eab2",
      "logs": [
        {
          "address": "0x8aafd3ede9adb0ff97c7aebce82a919afb1c8764",
          "topics": [
            "0xddf252ad1be2c89b69c2b068fc378daa952ba7f163c4a11628f55a4df523b3ef",
            "0x000000000000000000000000c77f7fed3b5cc8249adc428c5f44c9063b9734b4",
            "0x0000000000000000000000000000000000000000000000000000000000000000"
          ],
          "data": "0x000000000000000000000000000000000000000000000000009be50f48424bf8",
          "blockHash": "0x81fdd644de387c2dcc544cf5f9322f6f63aefa162c98dc98b702d9af57f451c0",
          "blockNumber": "0x73182e",
          "transactionHash": "0x66f4f3a6771f914085836ff2bd58ec6294d09261e6acaf59942b00cb66457669",
          "transactionIndex": "0xbe",
          "logIndex": "0xf7",
          "removed": false
        },
        {
          "address": "0x8aafd3ede9adb0ff97c7aebce82a919afb1c8764",
          "topics": [
            "0xddf252ad1be2c89b69c2b068fc378daa952ba7f163c4a11628f55a4df523b3ef",
            "0x000000000000000000000000c77f7fed3b5cc8249adc428c5f44c9063b9734b4",
            "0x000000000000000000000000c77f7fed3b5cc8249adc428c5f44c9063b9734b4"
          ],
          "data": "0x000000000000000000000000000000000000000000000000000141d8e5be785a",
          "blockHash": "0x81fdd644de387c2dcc544cf5f9322f6f63aefa162c98dc98b702d9af57f451c0",
          "blockNumber": "0x73182e",
          "transactionHash": "0x66f4f3a6771f914085836ff2bd58ec6294d09261e6acaf59942b00cb66457669",
          "transactionIndex": "0xbe",
          "logIndex": "0xf8",
          "removed": false
        },
        {
          "address": "0x8aafd3ede9adb0ff97c7aebce82a919afb1c8764",
          "topics": [
            "0x4afcb4a87cdbd9974efdb92ee48bc8d7cd0ae4bf217004db3d080cbaee652ca7"
          ],
          "data": "0x0000000000000000000000000000000000000000000000000000000067901eec00000000000000000000000000000000000000000000000000051c236248ecaf000000000000000000000000000000000000000000000000000039dd591a6e62",
          "blockHash": "0x81fdd644de387c2dcc544cf5f9322f6f63aefa162c98dc98b702d9af57f451c0",
          "blockNumber": "0x73182e",
          "transactionHash": "0x66f4f3a6771f914085836ff2bd58ec6294d09261e6acaf59942b00cb66457669",
          "transactionIndex": "0xbe",
          "logIndex": "0xf9",
          "removed": false
        }
      ],
      "logsBloom": "0x00000000000000000000000000000000000000000600000000000000000000000000000000000000000000000000000000000000000000004000000000000000000000000000004000000008000000000000000000000000000000000000000000000000020000000000000000000800020000000000000000000010000000000000000000000000000000000000000000000000000000000000010000000000000000000000000000000000000000004000000000000000000000000000000000000002000000800000000000000000000000000000080000000000000020000000000000000000000000000000000000000000000000000000000000000000",
      "type": "0x2",
      "transactionHash": "0x66f4f3a6771f914085836ff2bd58ec6294d09261e6acaf59942b00cb66457669",
      "transactionIndex": "0xbe",
      "blockHash": "0x81fdd644de387c2dcc544cf5f9322f6f63aefa162c98dc98b702d9af57f451c0",
      "blockNumber": "0x73182e",
      "gasUsed": "0xfd27",
      "effectiveGasPrice": "0x37eb0f57",
      "from": "0xc77f7fed3b5cc8249adc428c5f44c9063b9734b4",
      "to": "0x8aafd3ede9adb0ff97c7aebce82a919afb1c8764",
      "contractAddress": null
    }
  ],
  "libraries": [],
  "pending": [],
  "returns": {},
  "timestamp": 1737498350,
  "chain": 11155111,
  "commit": "1d2fb70"
}