{
  "transactions": [
    {
      "hash": "0xdf27f192f771e0ce4125790eefb5f328c2c039150db997d0d28c121f153e949c",
      "transactionType": "CALL",
      "contractName": null,
      "contractAddress": "0x5eb9cc76c3506942c1c0ead70e877dd5e4f00cb0",
      "function": "sell(uint256)",
      "arguments": [
        "989103186154919628033"
      ],
      "transaction": {
        "from": "0xc77f7fed3b5cc8249adc428c5f44c9063b9734b4",
        "to": "0x5eb9cc76c3506942c1c0ead70e877dd5e4f00cb0",
        "gas": "0x16fec",
        "value": "0x0",
        "input": "0xe4849b320000000000000000000000000000000000000000000000359e906b508b0d0d01",
        "nonce": "0x3ed",
        "chainId": "0xaa36a7"
      },
      "additionalContracts": [],
      "isFixedGasLimit": false
    }
  ],
  "receipts": [
    {
      "status": "0x1",
      "cumulativeGasUsed": "0xebf436",
      "logs": [
        {
          "address": "0x5eb9cc76c3506942c1c0ead70e877dd5e4f00cb0",
          "topics": [
            "0xddf252ad1be2c89b69c2b068fc378daa952ba7f163c4a11628f55a4df523b3ef",
            "0x000000000000000000000000c77f7fed3b5cc8249adc428c5f44c9063b9734b4",
            "0x0000000000000000000000000000000000000000000000000000000000000000"
          ],
          "data": "0x0000000000000000000000000000000000000000000000359e906b508b0d0d01",
          "blockHash": "0xa32027d489a3ff2976ef42737d050336d6ab71792c6f333ce98990495d384a14",
          "blockNumber": "0x724ff3",
          "transactionHash": "0xdf27f192f771e0ce4125790eefb5f328c2c039150db997d0d28c121f153e949c",
          "transactionIndex": "0x5e",
          "logIndex": "0x97",
          "removed": false
        },
        {
          "address": "0x5eb9cc76c3506942c1c0ead70e877dd5e4f00cb0",
          "topics": [
            "0x4afcb4a87cdbd9974efdb92ee48bc8d7cd0ae4bf217004db3d080cbaee652ca7"
          ],
          "data": "0x000000000000000000000000000000000000000000000000000000006786b13000000000000000000000000000000000000000000000000000039114b817fa720000000000000000000000000000000000000000000000000dc7db1331ed1e1d",
          "blockHash": "0xa32027d489a3ff2976ef42737d050336d6ab71792c6f333ce98990495d384a14",
          "blockNumber": "0x724ff3",
          "transactionHash": "0xdf27f192f771e0ce4125790eefb5f328c2c039150db997d0d28c121f153e949c",
          "transactionIndex": "0x5e",
          "logIndex": "0x98",
          "removed": false
        }
      ],
      "logsBloom": "0x00000000000000000000000000000000000000000000000000000000000000000000000000000000000000000000000000000000000000004000000000000000000000000000000000000008000000000000000000000000000000000000000000000000020000000000000004000800020000000000000000000010000000000000000000000000000000000000000000000000000000000000010000000000000000000000000000000000000000004000000000000000000000000000020000000002000000800000008000000000000000000000080000000000000020000000000000000000000000000000000000000000000000000000000000000000",
      "type": "0x2",
      "transactionHash": "0xdf27f192f771e0ce4125790eefb5f328c2c039150db997d0d28c121f153e949c",
      "transactionIndex": "0x5e",
      "blockHash": "0xa32027d489a3ff2976ef42737d050336d6ab71792c6f333ce98990495d384a14",
      "blockNumber": "0x724ff3",
      "gasUsed": "0xfb93",
      "effectiveGasPrice": "0x398dc754d",
      "from": "0xc77f7fed3b5cc8249adc428c5f44c9063b9734b4",
      "to": "0x5eb9cc76c3506942c1c0ead70e877dd5e4f00cb0",
      "contractAddress": null
    }
  ],
  "libraries": [],
  "pending": [],
  "returns": {},
  "timestamp": 1736880433,
  "chain": 11155111,
  "commit": "51a374b"
}