{
  "transactions": [
    {
      "hash": "0x708be2025c40423dce95efb1a071bb91fcc059c410d1bfe27dd6f7a5403836db",
      "transactionType": "CALL",
      "contractName": null,
      "contractAddress": "0xbf4a322f1496e5c3d34a9bcdb4c60567b38c7de2",
      "function": "sell(uint256)",
      "arguments": [
        "990598792221094439574"
      ],
      "transaction": {
        "from": "0xc77f7fed3b5cc8249adc428c5f44c9063b9734b4",
        "to": "0xbf4a322f1496e5c3d34a9bcdb4c60567b38c7de2",
        "gas": "0x16fea",
        "value": "0x0",
        "input": "0xe4849b32000000000000000000000000000000000000000000000035b351e11b9551ea96",
        "nonce": "0x90b",
        "chainId": "0xaa36a7"
      },
      "additionalContracts": [],
      "isFixedGasLimit": false
    }
  ],
  "receipts": [
    {
      "status": "0x1",
      "cumulativeGasUsed": "0xfe57b5",
      "logs": [
        {
          "address": "0xbf4a322f1496e5c3d34a9bcdb4c60567b38c7de2",
          "topics": [
            "0xddf252ad1be2c89b69c2b068fc378daa952ba7f163c4a11628f55a4df523b3ef",
            "0x000000000000000000000000c77f7fed3b5cc8249adc428c5f44c9063b9734b4",
            "0x0000000000000000000000000000000000000000000000000000000000000000"
          ],
          "data": "0x000000000000000000000000000000000000000000000035b351e11b9551ea96",
          "blockHash": "0xbef0a303ce62a5fb2c91d18be0f62bbc73eacd127aa7c18b56914b3484347171",
          "blockNumber": "0x725886",
          "transactionHash": "0x708be2025c40423dce95efb1a071bb91fcc059c410d1bfe27dd6f7a5403836db",
          "transactionIndex": "0x44",
          "logIndex": "0xb7",
          "removed": false
        },
        {
          "address": "0xbf4a322f1496e5c3d34a9bcdb4c60567b38c7de2",
          "topics": [
            "0x4afcb4a87cdbd9974efdb92ee48bc8d7cd0ae4bf217004db3d080cbaee652ca7"
          ],
          "data": "0x000000000000000000000000000000000000000000000000000000006787187400000000000000000000000000000000000000000000000000038fba31ccc7310000000000000000000000000000000000000000000000000dc7e3fab55ea39f",
          "blockHash": "0xbef0a303ce62a5fb2c91d18be0f62bbc73eacd127aa7c18b56914b3484347171",
          "blockNumber": "0x725886",
          "transactionHash": "0x708be2025c40423dce95efb1a071bb91fcc059c410d1bfe27dd6f7a5403836db",
          "transactionIndex": "0x44",
          "logIndex": "0xb8",
          "removed": false
        }
      ],
      "logsBloom": "0x00000000000000000000000000000000000000000000000000000000000000000000000000000000000000000000000000000000000000004000000000000000000000000000000000000008000000000000001000000000000000000000000000000000020000000000000000000800020000000000000000000010000000000000000000000000000000000000000000000000000008000000010000000000000000000000000000000000000000004000000000000000000000000000000000000002000000800000000000001000000000000000080000000000000020000000000000000000000000000000000000000000000000000000000000000000",
      "type": "0x2",
      "transactionHash": "0x708be2025c40423dce95efb1a071bb91fcc059c410d1bfe27dd6f7a5403836db",
      "transactionIndex": "0x44",
      "blockHash": "0xbef0a303ce62a5fb2c91d18be0f62bbc73eacd127aa7c18b56914b3484347171",
      "blockNumber": "0x725886",
      "gasUsed": "0xfb91",
      "effectiveGasPrice": "0x37bea514",
      "from": "0xc77f7fed3b5cc8249adc428c5f44c9063b9734b4",
      "to": "0xbf4a322f1496e5c3d34a9bcdb4c60567b38c7de2",
      "contractAddress": null
    }
  ],
  "libraries": [],
  "pending": [],
  "returns": {},
  "timestamp": 1736906868,
  "chain": 11155111,
  "commit": "51a374b"
}