{
  "transactions": [
    {
      "hash": "0x8bc2894719432763f887efa7334c927919f34e9766d3c097eefffff91f7d82cf",
      "transactionType": "CALL",
      "contractName": null,
      "contractAddress": "0xbf4a322f1496e5c3d34a9bcdb4c60567b38c7de2",
      "function": "sell(uint256)",
      "arguments": [
        "973265459010917936309"
      ],
      "transaction": {
        "from": "0xc77f7fed3b5cc8249adc428c5f44c9063b9734b4",
        "to": "0xbf4a322f1496e5c3d34a9bcdb4c60567b38c7de2",
        "gas": "0x16fea",
        "value": "0x0",
        "input": "0xe4849b32000000000000000000000000000000000000000000000034c2c582639744acb5",
        "nonce": "0xe11",
        "chainId": "0xaa36a7"
      },
      "additionalContracts": [],
      "isFixedGasLimit": false
    }
  ],
  "receipts": [
    {
      "status": "0x1",
      "cumulativeGasUsed": "0xf7b35d",
      "logs": [
        {
          "address": "0xbf4a322f1496e5c3d34a9bcdb4c60567b38c7de2",
          "topics": [
            "0xddf252ad1be2c89b69c2b068fc378daa952ba7f163c4a11628f55a4df523b3ef",
            "0x000000000000000000000000c77f7fed3b5cc8249adc428c5f44c9063b9734b4",
            "0x0000000000000000000000000000000000000000000000000000000000000000"
          ],
          "data": "0x000000000000000000000000000000000000000000000034c2c582639744acb5",
          "blockHash": "0x0a1d420e8109ac036966cc85fa80444cd50046d72829f39bbe2bc3824c248182",
          "blockNumber": "0x7266fa",
          "transactionHash": "0x8bc2894719432763f887efa7334c927919f34e9766d3c097eefffff91f7d82cf",
          "transactionIndex": "0x60",
          "logIndex": "0xd6",
          "removed": false
        },
        {
          "address": "0xbf4a322f1496e5c3d34a9bcdb4c60567b38c7de2",
          "topics": [
            "0x4afcb4a87cdbd9974efdb92ee48bc8d7cd0ae4bf217004db3d080cbaee652ca7"
          ],
          "data": "0x000000000000000000000000000000000000000000000000000000006787c71000000000000000000000000000000000000000000000000000039ff6d8c399330000000000000000000000000000000000000000000000000dc7e3d2687c5a73",
          "blockHash": "0x0a1d420e8109ac036966cc85fa80444cd50046d72829f39bbe2bc3824c248182",
          "blockNumber": "0x7266fa",
          "transactionHash": "0x8bc2894719432763f887efa7334c927919f34e9766d3c097eefffff91f7d82cf",
          "transactionIndex": "0x60",
          "logIndex": "0xd7",
          "removed": false
        }
      ],
      "logsBloom": "0x00000000000000000000000000000000000000000000000000000000000000000000000000000000000000000000000000000000000000004000000000000000000000000000000000000008000000000000001000000000000000000000000000000000020000000000000000000800020000000000000000000010000000000000000000000000000000000000000000000000000008000000010000000000000000000000000000000000000000004000000000000000000000000000000000000002000000800000000000001000000000000000080000000000000020000000000000000000000000000000000000000000000000000000000000000000",
      "type": "0x2",
      "transactionHash": "0x8bc2894719432763f887efa7334c927919f34e9766d3c097eefffff91f7d82cf",
      "transactionIndex": "0x60",
      "blockHash": "0x0a1d420e8109ac036966cc85fa80444cd50046d72829f39bbe2bc3824c248182",
      "blockNumber": "0x7266fa",
      "gasUsed": "0xfb91",
      "effectiveGasPrice": "0x39c3fe585",
      "from": "0xc77f7fed3b5cc8249adc428c5f44c9063b9734b4",
      "to": "0xbf4a322f1496e5c3d34a9bcdb4c60567b38c7de2",
      "contractAddress": null
    }
  ],
  "libraries": [],
  "pending": [],
  "returns": {},
  "timestamp": 1736951570,
  "chain": 11155111,
  "commit": "51a374b"
}