{
  "transactions": [
    {
      "hash": "0xd56d8c85ebb839257265d95e71c754813412a0a28f0a37ef88c1d1e06a5da081",
      "transactionType": "CALL",
      "contractName": null,
      "contractAddress": "0x8aafd3ede9adb0ff97c7aebce82a919afb1c8764",
      "function": "sell(uint256)",
      "arguments": [
        "15439210009183339"
      ],
      "transaction": {
        "from": "0xc77f7fed3b5cc8249adc428c5f44c9063b9734b4",
        "to": "0x8aafd3ede9adb0ff97c7aebce82a919afb1c8764",
        "gas": "0x1724d",
        "value": "0x0",
        "input": "0xe4849b320000000000000000000000000000000000000000000000000036d9e13435c46b",
        "nonce": "0x1432",
        "chainId": "0xaa36a7"
      },
      "additionalContracts": [],
      "isFixedGasLimit": false
    }
  ],
  "receipts": [
    {
      "status": "0x1",
      "cumulativeGasUsed": "0x74cd03",
      "logs": [
        {
          "address": "0x8aafd3ede9adb0ff97c7aebce82a919afb1c8764",
          "topics": [
            "0xddf252ad1be2c89b69c2b068fc378daa952ba7f163c4a11628f55a4df523b3ef",
            "0x000000000000000000000000c77f7fed3b5cc8249adc428c5f44c9063b9734b4",
            "0x0000000000000000000000000000000000000000000000000000000000000000"
          ],
          "data": "0x0000000000000000000000000000000000000000000000000036698b6f2f3171",
          "blockHash": "0xd2aae3f894c979c98da38721eb02f5012d69be58ef9057498e0ad894c8ee99a6",
          "blockNumber": "0x731b70",
          "transactionHash": "0xd56d8c85ebb839257265d95e71c754813412a0a28f0a37ef88c1d1e06a5da081",
          "transactionIndex": "0x35",
          "logIndex": "0x61",
          "removed": false
        },
        {
          "address": "0x8aafd3ede9adb0ff97c7aebce82a919afb1c8764",
          "topics": [
            "0xddf252ad1be2c89b69c2b068fc378daa952ba7f163c4a11628f55a4df523b3ef",
            "0x000000000000000000000000c77f7fed3b5cc8249adc428c5f44c9063b9734b4",
            "0x000000000000000000000000c77f7fed3b5cc8249adc428c5f44c9063b9734b4"
          ],
          "data": "0x00000000000000000000000000000000000000000000000000007055c50692fa",
          "blockHash": "0xd2aae3f894c979c98da38721eb02f5012d69be58ef9057498e0ad894c8ee99a6",
          "blockNumber": "0x731b70",
          "transactionHash": "0xd56d8c85ebb839257265d95e71c754813412a0a28f0a37ef88c1d1e06a5da081",
          "transactionIndex": "0x35",
          "logIndex": "0x62",
          "removed": false
        },
        {
          "address": "0x8aafd3ede9adb0ff97c7aebce82a919afb1c8764",
          "topics": [
            "0x4afcb4a87cdbd9974efdb92ee48bc8d7cd0ae4bf217004db3d080cbaee652ca7"
          ],
          "data": "0x000000000000000000000000000000000000000000000000000000006790461c000000000000000000000000000000000000000000000000000eba1107040dcd00000000000000000000000000000000000000000000000000003a34f2bc3f53",
          "blockHash": "0xd2aae3f894c979c98da38721eb02f5012d69be58ef9057498e0ad894c8ee99a6",
          "blockNumber": "0x731b70",
          "transactionHash": "0xd56d8c85ebb839257265d95e71c754813412a0a28f0a37ef88c1d1e06a5da081",
          "transactionIndex": "0x35",
          "logIndex": "0x63",
          "removed": false
        }
      ],
      "logsBloom": "0x00000000000000000000000000000000000000000600000000000000000000000000000000000000000000000000000000000000000000004000000000000000000000000000004000000008000000000000000000000000000000000000000000000000020000000000000000000800020000000000000000000010000000000000000000000000000000000000000000000000000000000000010000000000000000000000000000000000000000004000000000000000000000000000000000000002000000800000000000000000000000000000080000000000000020000000000000000000000000000000000000000000000000000000000000000000",
      "type": "0x2",
      "transactionHash": "0xd56d8c85ebb839257265d95e71c754813412a0a28f0a37ef88c1d1e06a5da081",
      "transactionIndex": "0x35",
      "blockHash": "0xd2aae3f894c979c98da38721eb02f5012d69be58ef9057498e0ad894c8ee99a6",
      "blockNumber": "0x731b70",
      "gasUsed": "0xfd33",
      "effectiveGasPrice": "0x110159fab",
      "from": "0xc77f7fed3b5cc8249adc428c5f44c9063b9734b4",
      "to": "0x8aafd3ede9adb0ff97c7aebce82a919afb1c8764",
      "contractAddress": null
    }
  ],
  "libraries": [],
  "pending": [],
  "returns": {},
  "timestamp": 1737508381,
  "chain": 11155111,
  "commit": "1d2fb70"
}