{
  "transactions": [
    {
      "hash": "0xa6455ab7390373200c09a5b2a058ca91e8ddc6d3e1d1bc20619e4283f17ea622",
      "transactionType": "CALL",
      "contractName": null,
      "contractAddress": "0x8aafd3ede9adb0ff97c7aebce82a919afb1c8764",
      "function": "sell(uint256)",
      "arguments": [
        "1484116"
      ],
      "transaction": {
        "from": "0xc77f7fed3b5cc8249adc428c5f44c9063b9734b4",
        "to": "0x8aafd3ede9adb0ff97c7aebce82a919afb1c8764",
        "gas": "0x16208",
        "value": "0x0",
        "input": "0xe4849b32000000000000000000000000000000000000000000000000000000000016a554",
        "nonce": "0x10a2",
        "chainId": "0xaa36a7"
      },
      "additionalContracts": [],
      "isFixedGasLimit": false
    }
  ],
  "receipts": [
    {
      "status": "0x1",
      "cumulativeGasUsed": "0xcb8444",
      "logs": [
        {
          "address": "0x8aafd3ede9adb0ff97c7aebce82a919afb1c8764",
          "topics": [
            "0xddf252ad1be2c89b69c2b068fc378daa952ba7f163c4a11628f55a4df523b3ef",
            "0x000000000000000000000000c77f7fed3b5cc8249adc428c5f44c9063b9734b4",
            "0x0000000000000000000000000000000000000000000000000000000000000000"
          ],
          "data": "0x00000000000000000000000000000000000000000000000000000000001676f4",
          "blockHash": "0x04dbf06d609155c4f9228a0f49cb5d434dcaebab3af47dba7b32efda4cde4332",
          "blockNumber": "0x731734",
          "transactionHash": "0xa6455ab7390373200c09a5b2a058ca91e8ddc6d3e1d1bc20619e4283f17ea622",
          "transactionIndex": "0x89",
          "logIndex": "0xdf",
          "removed": false
        },
        {
          "address": "0x8aafd3ede9adb0ff97c7aebce82a919afb1c8764",
          "topics": [
            "0xddf252ad1be2c89b69c2b068fc378daa952ba7f163c4a11628f55a4df523b3ef",
            "0x000000000000000000000000c77f7fed3b5cc8249adc428c5f44c9063b9734b4",
            "0x000000000000000000000000c77f7fed3b5cc8249adc428c5f44c9063b9734b4"
          ],
          "data": "0x0000000000000000000000000000000000000000000000000000000000002e60",
          "blockHash": "0x04dbf06d609155c4f9228a0f49cb5d434dcaebab3af47dba7b32efda4cde4332",
          "blockNumber": "0x731734",
          "transactionHash": "0xa6455ab7390373200c09a5b2a058ca91e8ddc6d3e1d1bc20619e4283f17ea622",
          "transactionIndex": "0x89",
          "logIndex": "0xe0",
          "removed": false
        },
        {
          "address": "0x8aafd3ede9adb0ff97c7aebce82a919afb1c8764",
          "topics": [
            "0x4afcb4a87cdbd9974efdb92ee48bc8d7cd0ae4bf217004db3d080cbaee652ca7"
          ],
          "data": "0x00000000000000000000000000000000000000000000000000000000679013340000000000000000000000000000000000000000000000000004fda279f9b3390000000000000000000000000000000000000000000000000000000000000824",
          "blockHash": "0x04dbf06d609155c4f9228a0f49cb5d434dcaebab3af47dba7b32efda4cde4332",
          "blockNumber": "0x731734",
          "transactionHash": "0xa6455ab7390373200c09a5b2a058ca91e8ddc6d3e1d1bc20619e4283f17ea622",
          "transactionIndex": "0x89",
          "logIndex": "0xe1",
          "removed": false
        }
      ],
      "logsBloom": "0x00000000000000000000000000000000000000000600000000000000000000000000000000000000000000000000000000000000000000004000000000000000000000000000004000000008000000000000000000000000000000000000000000000000020000000000000000000800020000000000000000000010000000000000000000000000000000000000000000000000000000000000010000000000000000000000000000000000000000004000000000000000000000000000000000000002000000800000000000000000000000000000080000000000000020000000000000000000000000000000000000000000000000000000000000000000",
      "type": "0x2",
      "transactionHash": "0xa6455ab7390373200c09a5b2a058ca91e8ddc6d3e1d1bc20619e4283f17ea622",
      "transactionIndex": "0x89",
      "blockHash": "0x04dbf06d609155c4f9228a0f49cb5d434dcaebab3af47dba7b32efda4cde4332",
      "blockNumber": "0x731734",
      "gasUsed": "0xf213",
      "effectiveGasPrice": "0x45d60764",
      "from": "0xc77f7fed3b5cc8249adc428c5f44c9063b9734b4",
      "to": "0x8aafd3ede9adb0ff97c7aebce82a919afb1c8764",
      "contractAddress": null
    }
  ],
  "libraries": [],
  "pending": [],
  "returns": {},
  "timestamp": 1737495348,
  "chain": 11155111,
  "commit": "1d2fb70"
}