{
  "transactions": [
    {
      "hash": "0x8db7afeb9f96a5cd284f0d137ff0f6e18fcbf9f2189542c8a30e8d1e42541394",
      "transactionType": "CALL",
      "contractName": null,
      "contractAddress": "0x270e88f8683660553e8ba4eb2ad7c91a1710d769",
      "function": "buy(address)",
      "arguments": [
        "0xC77f7fed3b5Cc8249aDc428c5F44C9063B9734b4"
      ],
      "transaction": {
        "from": "0xc77f7fed3b5cc8249adc428c5f44c9063b9734b4",
        "to": "0x270e88f8683660553e8ba4eb2ad7c91a1710d769",
        "gas": "0x1b30c",
        "value": "0xde0b6b3a7640000",
        "input": "0xf088d547000000000000000000000000c77f7fed3b5cc8249adc428c5f44c9063b9734b4",
        "nonce": "0x6c3",
        "chainId": "0xaa36a7"
      },
      "additionalContracts": [],
      "isFixedGasLimit": false
    }
  ],
  "receipts": [
    {
      "status": "0x1",
      "cumulativeGasUsed": "0x2109bdd",
      "logs": [
        {
          "address": "0x270e88f8683660553e8ba4eb2ad7c91a1710d769",
          "topics": [
            "0xddf252ad1be2c89b69c2b068fc378daa952ba7f163c4a11628f55a4df523b3ef",
            "0x0000000000000000000000000000000000000000000000000000000000000000",
            "0x000000000000000000000000c77f7fed3b5cc8249adc428c5f44c9063b9734b4"
          ],
          "data": "0x000000000000000000000000000000000000000000000028931efb68aebf7303",
          "blockHash": "0x88ed9a56c1c72792d495e4333917cc7d764032345dca899674e417a536cfa1ac",
          "blockNumber": "0x7253d0",
          "transactionHash": "0x8db7afeb9f96a5cd284f0d137ff0f6e18fcbf9f2189542c8a30e8d1e42541394",
          "transactionIndex": "0x66",
          "logIndex": "0x1fd",
          "removed": false
        },
        {
          "address": "0x270e88f8683660553e8ba4eb2ad7c91a1710d769",
          "topics": [
            "0xddf252ad1be2c89b69c2b068fc378daa952ba7f163c4a11628f55a4df523b3ef",
            "0x0000000000000000000000000000000000000000000000000000000000000000",
            "0x000000000000000000000000c77f7fed3b5cc8249adc428c5f44c9063b9734b4"
          ],
          "data": "0x0000000000000000000000000000000000000000000000001f81f42acf3a58db",
          "blockHash": "0x88ed9a56c1c72792d495e4333917cc7d764032345dca899674e417a536cfa1ac",
          "blockNumber": "0x7253d0",
          "transactionHash": "0x8db7afeb9f96a5cd284f0d137ff0f6e18fcbf9f2189542c8a30e8d1e42541394",
          "transactionIndex": "0x66",
          "logIndex": "0x1fe",
          "removed": false
        },
        {
          "address": "0x270e88f8683660553e8ba4eb2ad7c91a1710d769",
          "topics": [
            "0x4afcb4a87cdbd9974efdb92ee48bc8d7cd0ae4bf217004db3d080cbaee652ca7"
          ],
          "data": "0x000000000000000000000000000000000000000000000000000000006786dfc80000000000000000000000000000000000000000000000000004b3171f854ca50000000000000000000000000000000000000000000000000de0b6b3a7640000",
          "blockHash": "0x88ed9a56c1c72792d495e4333917cc7d764032345dca899674e417a536cfa1ac",
          "blockNumber": "0x7253d0",
          "transactionHash": "0x8db7afeb9f96a5cd284f0d137ff0f6e18fcbf9f2189542c8a30e8d1e42541394",
          "transactionIndex": "0x66",
          "logIndex": "0x1ff",
          "removed": false
        }
      ],
      "logsBloom": "0x00000000000000000000000000000000000000000000000000000000000000000000000000000000000000000000000020000000000000004000000000000000000000000000000000000008000000000000000000000000000000000000000000000000020000000000000000000800020000000000000000000010000000000000000000010000000000000000000000000000000000000000010000000000000000000000000000000000000000004000000000000000000000000000000000000002000000800000000000000000000000000000080000008000000020000000000000000000000000000000000000000000000000000000000000000000",
      "type": "0x2",
      "transactionHash": "0x8db7afeb9f96a5cd284f0d137ff0f6e18fcbf9f2189542c8a30e8d1e42541394",
      "transactionIndex": "0x66",
      "blockHash": "0x88ed9a56c1c72792d495e4333917cc7d764032345dca899674e417a536cfa1ac",
      "blockNumber": "0x7253d0",
      "gasUsed": "0x13af8",
      "effectiveGasPrice": "0x1619db71f",
      "from": "0xc77f7fed3b5cc8249adc428c5f44c9063b9734b4",
      "to": "0x270e88f8683660553e8ba4eb2ad7c91a1710d769",
      "contractAddress": null
    }
  ],
  "libraries": [],
  "pending": [],
  "returns": {},
  "timestamp": 1736892363,
  "chain": 11155111,
  "commit": "51a374b"
}