{
  "transactions": [
    {
      "hash": "0xf768137d8877497d49616b8aa4106cb60d780701d75e157a1ad383299d87f603",
      "transactionType": "CALL",
      "contractName": null,
      "contractAddress": "0x5eb9cc76c3506942c1c0ead70e877dd5e4f00cb0",
      "function": "buy(address)",
      "arguments": [
        "0xC77f7fed3b5Cc8249aDc428c5F44C9063B9734b4"
      ],
      "transaction": {
        "from": "0xc77f7fed3b5cc8249adc428c5f44c9063b9734b4",
        "to": "0x5eb9cc76c3506942c1c0ead70e877dd5e4f00cb0",
        "gas": "0x1b30c",
        "value": "0xde0b6b3a7640000",
        "input": "0xf088d547000000000000000000000000c77f7fed3b5cc8249adc428c5f44c9063b9734b4",
        "nonce": "0x346",
        "chainId": "0xaa36a7"
      },
      "additionalContracts": [],
      "isFixedGasLimit": false
    }
  ],
  "receipts": [
    {
      "status": "0x1",
      "cumulativeGasUsed": "0x123aed8",
      "logs": [
        {
          "address": "0x5eb9cc76c3506942c1c0ead70e877dd5e4f00cb0",
          "topics": [
            "0xddf252ad1be2c89b69c2b068fc378daa952ba7f163c4a11628f55a4df523b3ef",
            "0x0000000000000000000000000000000000000000000000000000000000000000",
            "0x000000000000000000000000c77f7fed3b5cc8249adc428c5f44c9063b9734b4"
          ],
          "data": "0x000000000000000000000000000000000000000000000035756b34df9040068a",
          "blockHash": "0x63ea9b1ab05f32084a6d86c073de9ce9d7b008d9673d84b33ebee2dc1771f24d",
          "blockNumber": "0x724f35",
          "transactionHash": "0xf768137d8877497d49616b8aa4106cb60d780701d75e157a1ad383299d87f603",
          "transactionIndex": "0x81",
          "logIndex": "0xf0",
          "removed": false
        },
        {
          "address": "0x5eb9cc76c3506942c1c0ead70e877dd5e4f00cb0",
          "topics": [
            "0xddf252ad1be2c89b69c2b068fc378daa952ba7f163c4a11628f55a4df523b3ef",
            "0x0000000000000000000000000000000000000000000000000000000000000000",
            "0x000000000000000000000000c77f7fed3b5cc8249adc428c5f44c9063b9734b4"
          ],
          "data": "0x000000000000000000000000000000000000000000000000298331c9e6c3ed6a",
          "blockHash": "0x63ea9b1ab05f32084a6d86c073de9ce9d7b008d9673d84b33ebee2dc1771f24d",
          "blockNumber": "0x724f35",
          "transactionHash": "0xf768137d8877497d49616b8aa4106cb60d780701d75e157a1ad383299d87f603",
          "transactionIndex": "0x81",
          "logIndex": "0xf1",
          "removed": false
        },
        {
          "address": "0x5eb9cc76c3506942c1c0ead70e877dd5e4f00cb0",
          "topics": [
            "0x4afcb4a87cdbd9974efdb92ee48bc8d7cd0ae4bf217004db3d080cbaee652ca7"
          ],
          "data": "0x000000000000000000000000000000000000000000000000000000006786a8300000000000000000000000000000000000000000000000000003910e6b656b850000000000000000000000000000000000000000000000000de0b6b3a7640000",
          "blockHash": "0x63ea9b1ab05f32084a6d86c073de9ce9d7b008d9673d84b33ebee2dc1771f24d",
          "blockNumber": "0x724f35",
          "transactionHash": "0xf768137d8877497d49616b8aa4106cb60d780701d75e157a1ad383299d87f603",
          "transactionIndex": "0x81",
          "logIndex": "0xf2",
          "removed": false
        }
      ],
      "logsBloom": "0x00000000000000000000000000000000000000000000000000000000000000000000000000000000000000000000000000000000000000004000000000000000000000000000000000000008000000000000000000000000000000000000000000000000020000000000000004000800020000000000000000000010000000000000000000000000000000000000000000000000000000000000010000000000000000000000000000000000000000004000000000000000000000000000020000000002000000800000008000000000000000000000080000000000000020000000000000000000000000000000000000000000000000000000000000000000",
      "type": "0x2",
      "transactionHash": "0xf768137d8877497d49616b8aa4106cb60d780701d75e157a1ad383299d87f603",
      "transactionIndex": "0x81",
      "blockHash": "0x63ea9b1ab05f32084a6d86c073de9ce9d7b008d9673d84b33ebee2dc1771f24d",
      "blockNumber": "0x724f35",
      "gasUsed": "0x13af8",
      "effectiveGasPrice": "0x5d16e88c0",
      "from": "0xc77f7fed3b5cc8249adc428c5f44c9063b9734b4",
      "to": "0x5eb9cc76c3506942c1c0ead70e877dd5e4f00cb0",
      "contractAddress": null
    }
  ],
  "libraries": [],
  "pending": [],
  "returns": {},
  "timestamp": 1736878128,
  "chain": 11155111,
  "commit": "51a374b"
}