{
  "transactions": [
    {
      "hash": "0x9d7e3415f04410e4c6ddaf739452c8a8b3d1290804b2162cb858a434319daf03",
      "transactionType": "CALL",
      "contractName": null,
      "contractAddress": "0xd7bc75898e513accccf720a874d44dab5a4b6223",
      "function": "sell(uint256)",
      "arguments": [
        "9929992228893070665"
      ],
      "transaction": {
        "from": "0xc77f7fed3b5cc8249adc428c5f44c9063b9734b4",
        "to": "0xd7bc75898e513accccf720a874d44dab5a4b6223",
        "gas": "0x15b6b",
        "value": "0x0",
        "input": "0xe4849b3200000000000000000000000000000000000000000000000089ce6b52218f9549",
        "nonce": "0xc9",
        "chainId": "0xaa36a7"
      },
      "additionalContracts": [],
      "isFixedGasLimit": false
    }
  ],
  "receipts": [
    {
      "status": "0x1",
      "cumulativeGasUsed": "0x214e4e2",
      "logs": [
        {
          "address": "0xd7bc75898e513accccf720a874d44dab5a4b6223",
          "topics": [
            "0xddf252ad1be2c89b69c2b068fc378daa952ba7f163c4a11628f55a4df523b3ef",
            "0x000000000000000000000000c77f7fed3b5cc8249adc428c5f44c9063b9734b4",
            "0x0000000000000000000000000000000000000000000000000000000000000000"
          ],
          "data": "0x00000000000000000000000000000000000000000000000089ce6b52218f9549",
          "blockHash": "0x80c1f66edb1f26d5c4ffef43579cf32b155e750e5eece6a3e90e507959ddaefa",
          "blockNumber": "0x723948",
          "transactionHash": "0x9d7e3415f04410e4c6ddaf739452c8a8b3d1290804b2162cb858a434319daf03",
          "transactionIndex": "0x3f",
          "logIndex": "0x30e",
          "removed": false
        },
        {
          "address": "0xd7bc75898e513accccf720a874d44dab5a4b6223",
          "topics": [
            "0x4afcb4a87cdbd9974efdb92ee48bc8d7cd0ae4bf217004db3d080cbaee652ca7"
          ],
          "data": "0x000000000000000000000000000000000000000000000000000000006785a0a800000000000000000000000000000000000000000000000000038d7f87de73ec0000000000000000000000000000000000000000000000000023474f493d2798",
          "blockHash": "0x80c1f66edb1f26d5c4ffef43579cf32b155e750e5eece6a3e90e507959ddaefa",
          "blockNumber": "0x723948",
          "transactionHash": "0x9d7e3415f04410e4c6ddaf739452c8a8b3d1290804b2162cb858a434319daf03",
          "transactionIndex": "0x3f",
          "logIndex": "0x30f",
          "removed": false
        }
      ],
      "logsBloom": "0x00000000000000000000000000000000000000000000000000000000000000000000000000000000000000000000000000000000000000004000000000000000000000000000000000000008000000000000000000000000000000000000000000000000020000000000000000000800020000000000000000000010000000000000000000000000000000000000000000000000000000000000010000000000000000000000000000000000000000004000001000000000000000000000000000000002000000800000000000004000000000000000080000000000000020000000000000000000000000000000000000000000080000000000000000000000",
      "type": "0x2",
      "transactionHash": "0x9d7e3415f04410e4c6ddaf739452c8a8b3d1290804b2162cb858a434319daf03",
      "transactionIndex": "0x3f",
      "blockHash": "0x80c1f66edb1f26d5c4ffef43579cf32b155e750e5eece6a3e90e507959ddaefa",
      "blockNumber": "0x723948",
      "gasUsed": "0xfb87",
      "effectiveGasPrice": "0xb4902e1",
      "from": "0xc77f7fed3b5cc8249adc428c5f44c9063b9734b4",
      "to": "0xd7bc75898e513accccf720a874d44dab5a4b6223",
      "contractAddress": null
    }
  ],
  "libraries": [],
  "pending": [],
  "returns": {},
  "timestamp": 1736810666,
  "chain": 11155111,
  "commit": "51a374b"
}