{
  "transactions": [
    {
      "hash": "0xabba72983111f0b95bd16434eace7f498614fb5bf55ea130969da008c262e72b",
      "transactionType": "CALL",
      "contractName": null,
      "contractAddress": "0xbf4a322f1496e5c3d34a9bcdb4c60567b38c7de2",
      "function": "buy(address)",
      "arguments": [
        "0xC77f7fed3b5Cc8249aDc428c5F44C9063B9734b4"
      ],
      "transaction": {
        "from": "0xc77f7fed3b5cc8249adc428c5f44c9063b9734b4",
        "to": "0xbf4a322f1496e5c3d34a9bcdb4c60567b38c7de2",
        "gas": "0x1b309",
        "value": "0xde0b6b3a7640000",
        "input": "0xf088d547000000000000000000000000c77f7fed3b5cc8249adc428c5f44c9063b9734b4",
        "nonce": "0x94a",
        "chainId": "0xaa36a7"
      },
      "additionalContracts": [],
      "isFixedGasLimit": false
    }
  ],
  "receipts": [
    {
      "status": "0x1",
      "cumulativeGasUsed": "0xbc4b62",
      "logs": [
        {
          "address": "0xbf4a322f1496e5c3d34a9bcdb4c60567b38c7de2",
          "topics": [
            "0xddf252ad1be2c89b69c2b068fc378daa952ba7f163c4a11628f55a4df523b3ef",
            "0x0000000000000000000000000000000000000000000000000000000000000000",
            "0x000000000000000000000000c77f7fed3b5cc8249adc428c5f44c9063b9734b4"
          ],
          "data": "0x0000000000000000000000000000000000000000000000357d9bde1425d15e72",
          "blockHash": "0x5e0d8c872af536a6bed9fde7141fa72aacb5faf00357e659fd0b0bb8d725e423",
          "blockNumber": "0x7258d6",
          "transactionHash": "0xabba72983111f0b95bd16434eace7f498614fb5bf55ea130969da008c262e72b",
          "transactionIndex": "0x58",
          "logIndex": "0x97",
          "removed": false
        },
        {
          "address": "0xbf4a322f1496e5c3d34a9bcdb4c60567b38c7de2",
          "topics": [
            "0xddf252ad1be2c89b69c2b068fc378daa952ba7f163c4a11628f55a4df523b3ef",
            "0x0000000000000000000000000000000000000000000000000000000000000000",
            "0x000000000000000000000000c77f7fed3b5cc8249adc428c5f44c9063b9734b4"
          ],
          "data": "0x00000000000000000000000000000000000000000000000029898deadc9a9340",
          "blockHash": "0x5e0d8c872af536a6bed9fde7141fa72aacb5faf00357e659fd0b0bb8d725e423",
          "blockNumber": "0x7258d6",
          "transactionHash": "0xabba72983111f0b95bd16434eace7f498614fb5bf55ea130969da008c262e72b",
          "transactionIndex": "0x58",
          "logIndex": "0x98",
          "removed": false
        },
        {
          "address": "0xbf4a322f1496e5c3d34a9bcdb4c60567b38c7de2",
          "topics": [
            "0x4afcb4a87cdbd9974efdb92ee48bc8d7cd0ae4bf217004db3d080cbaee652ca7"
          ],
          "data": "0x0000000000000000000000000000000000000000000000000000000067871c3400000000000000000000000000000000000000000000000000039084eba0a3ac0000000000000000000000000000000000000000000000000de0b6b3a7640000",
          "blockHash": "0x5e0d8c872af536a6bed9fde7141fa72aacb5faf00357e659fd0b0bb8d725e423",
          "blockNumber": "0x7258d6",
          "transactionHash": "0xabba72983111f0b95bd16434eace7f498614fb5bf55ea130969da008c262e72b",
          "transactionIndex": "0x58",
          "logIndex": "0x99",
          "removed": false
        }
      ],
      "logsBloom": "0x00000000000000000000000000000000000000000000000000000000000000000000000000000000000000000000000000000000000000004000000000000000000000000000000000000008000000000000001000000000000000000000000000000000020000000000000000000800020000000000000000000010000000000000000000000000000000000000000000000000000008000000010000000000000000000000000000000000000000004000000000000000000000000000000000000002000000800000000000001000000000000000080000000000000020000000000000000000000000000000000000000000000000000000000000000000",
      "type": "0x2",
      "transactionHash": "0xabba72983111f0b95bd16434eace7f498614fb5bf55ea130969da008c262e72b",
      "transactionIndex": "0x58",
      "blockHash": "0x5e0d8c872af536a6bed9fde7141fa72aacb5faf00357e659fd0b0bb8d725e423",
      "blockNumber": "0x7258d6",
      "gasUsed": "0x13af6",
      "effectiveGasPrice": "0x6cdda961",
      "from": "0xc77f7fed3b5cc8249adc428c5f44c9063b9734b4",
      "to": "0xbf4a322f1496e5c3d34a9bcdb4c60567b38c7de2",
      "contractAddress": null
    }
  ],
  "libraries": [],
  "pending": [],
  "returns": {},
  "timestamp": 1736907830,
  "chain": 11155111,
  "commit": "51a374b"
}