{
  "transactions": [
    {
      "hash": "0x9d5750bb385d7ca710f5771172b560318cb3e4335acab3f6bfa5b1430d5db798",
      "transactionType": "CALL",
      "contractName": null,
      "contractAddress": "0x5eb9cc76c3506942c1c0ead70e877dd5e4f00cb0",
      "function": "buy(address)",
      "arguments": [
        "0xC77f7fed3b5Cc8249aDc428c5F44C9063B9734b4"
      ],
      "transaction": {
        "from": "0xc77f7fed3b5cc8249adc428c5f44c9063b9734b4",
        "to": "0x5eb9cc76c3506942c1c0ead70e877dd5e4f00cb0",
        "gas": "0x156c8",
        "value": "0xde0b6b3a7640000",
        "input": "0xf088d547000000000000000000000000c77f7fed3b5cc8249adc428c5f44c9063b9734b4",
        "nonce": "0x1fc",
        "chainId": "0xaa36a7"
      },
      "additionalContracts": [],
      "isFixedGasLimit": false
    }
  ],
  "receipts": [
    {
      "status": "0x1",
      "cumulativeGasUsed": "0x929881",
      "logs": [
        {
          "address": "0x5eb9cc76c3506942c1c0ead70e877dd5e4f00cb0",
          "topics": [
            "0xddf252ad1be2c89b69c2b068fc378daa952ba7f163c4a11628f55a4df523b3ef",
            "0x0000000000000000000000000000000000000000000000000000000000000000",
            "0x000000000000000000000000c77f7fed3b5cc8249adc428c5f44c9063b9734b4"
          ],
          "data": "0x00000000000000000000000000000000000000000000003584bea3f45a1652d4",
          "blockHash": "0x7dd503f4e007e1a10b159b8e3e13c19f8ed29a9081d6622af5c4f4e50e623bcd",
          "blockNumber": "0x724b15",
          "transactionHash": "0x9d5750bb385d7ca710f5771172b560318cb3e4335acab3f6bfa5b1430d5db798",
          "transactionIndex": "0x4f",
          "logIndex": "0x78",
          "removed": false
        },
        {
          "address": "0x5eb9cc76c3506942c1c0ead70e877dd5e4f00cb0",
          "topics": [
            "0xddf252ad1be2c89b69c2b068fc378daa952ba7f163c4a11628f55a4df523b3ef",
            "0x0000000000000000000000000000000000000000000000000000000000000000",
            "0x000000000000000000000000c77f7fed3b5cc8249adc428c5f44c9063b9734b4"
          ],
          "data": "0x000000000000000000000000000000000000000000000000298f18780c4350c9",
          "blockHash": "0x7dd503f4e007e1a10b159b8e3e13c19f8ed29a9081d6622af5c4f4e50e623bcd",
          "blockNumber": "0x724b15",
          "transactionHash": "0x9d5750bb385d7ca710f5771172b560318cb3e4335acab3f6bfa5b1430d5db798",
          "transactionIndex": "0x4f",
          "logIndex": "0x79",
          "removed": false
        },
        {
          "address": "0x5eb9cc76c3506942c1c0ead70e877dd5e4f00cb0",
          "topics": [
            "0x4afcb4a87cdbd9974efdb92ee48bc8d7cd0ae4bf217004db3d080cbaee652ca7"
          ],
          "data": "0x00000000000000000000000000000000000000000000000000000000678676a400000000000000000000000000000000000000000000000000039008f368dfee0000000000000000000000000000000000000000000000000de0b6b3a7640000",
          "blockHash": "0x7dd503f4e007e1a10b159b8e3e13c19f8ed29a9081d6622af5c4f4e50e623bcd",
          "blockNumber": "0x724b15",
          "transactionHash": "0x9d5750bb385d7ca710f5771172b560318cb3e4335acab3f6bfa5b1430d5db798",
          "transactionIndex": "0x4f",
          "logIndex": "0x7a",
          "removed": false
        }
      ],
      "logsBloom": "0x00000000000000000000000000000000000000000000000000000000000000000000000000000000000000000000000000000000000000004000000000000000000000000000000000000008000000000000000000000000000000000000000000000000020000000000000004000800020000000000000000000010000000000000000000000000000000000000000000000000000000000000010000000000000000000000000000000000000000004000000000000000000000000000020000000002000000800000008000000000000000000000080000000000000020000000000000000000000000000000000000000000000000000000000000000000",
      "type": "0x2",
      "transactionHash": "0x9d5750bb385d7ca710f5771172b560318cb3e4335acab3f6bfa5b1430d5db798",
      "transactionIndex": "0x4f",
      "blockHash": "0x7dd503f4e007e1a10b159b8e3e13c19f8ed29a9081d6622af5c4f4e50e623bcd",
      "blockNumber": "0x724b15",
      "gasUsed": "0xf82c",
      "effectiveGasPrice": "0x5500ff2b4",
      "from": "0xc77f7fed3b5cc8249adc428c5f44c9063b9734b4",
      "to": "0x5eb9cc76c3506942c1c0ead70e877dd5e4f00cb0",
      "contractAddress": null
    }
  ],
  "libraries": [],
  "pending": [],
  "returns": {},
  "timestamp": 1736865446,
  "chain": 11155111,
  "commit": "51a374b"
}