{
  "transactions": [
    {
      "hash": "0x040eac02a50afad9a92c658ff918dd37923275cc25e707b984885f283ac0bf05",
      "transactionType": "CALL",
      "contractName": null,
      "contractAddress": "0xbf4a322f1496e5c3d34a9bcdb4c60567b38c7de2",
      "function": "buy(address)",
      "arguments": [
        "0xC77f7fed3b5Cc8249aDc428c5F44C9063B9734b4"
      ],
      "transaction": {
        "from": "0xc77f7fed3b5cc8249adc428c5f44c9063b9734b4",
        "to": "0xbf4a322f1496e5c3d34a9bcdb4c60567b38c7de2",
        "gas": "0x1b309",
        "value": "0xde0b6b3a7640000",
        "input": "0xf088d547000000000000000000000000c77f7fed3b5cc8249adc428c5f44c9063b9734b4",
        "nonce": "0xe16",
        "chainId": "0xaa36a7"
      },
      "additionalContracts": [],
      "isFixedGasLimit": false
    }
  ],
  "receipts": [
    {
      "status": "0x1",
      "cumulativeGasUsed": "0xc42520",
      "logs": [
        {
          "address": "0xbf4a322f1496e5c3d34a9bcdb4c60567b38c7de2",
          "topics": [
            "0xddf252ad1be2c89b69c2b068fc378daa952ba7f163c4a11628f55a4df523b3ef",
            "0x0000000000000000000000000000000000000000000000000000000000000000",
            "0x000000000000000000000000c77f7fed3b5cc8249adc428c5f44c9063b9734b4"
          ],
          "data": "0x00000000000000000000000000000000000000000000003498d359d3fd5ba6a8",
          "blockHash": "0x5084f639652892af7c1d3cbdd8ddcf0a3cd19067c116eab86b85fc5950e5458e",
          "blockNumber": "0x7266ff",
          "transactionHash": "0x040eac02a50afad9a92c658ff918dd37923275cc25e707b984885f283ac0bf05",
          "transactionIndex": "0x55",
          "logIndex": "0xfe",
          "removed": false
        },
        {
          "address": "0xbf4a322f1496e5c3d34a9bcdb4c60567b38c7de2",
          "topics": [
            "0xddf252ad1be2c89b69c2b068fc378daa952ba7f163c4a11628f55a4df523b3ef",
            "0x0000000000000000000000000000000000000000000000000000000000000000",
            "0x000000000000000000000000c77f7fed3b5cc8249adc428c5f44c9063b9734b4"
          ],
          "data": "0x00000000000000000000000000000000000000000000000028d7e5776df102e7",
          "blockHash": "0x5084f639652892af7c1d3cbdd8ddcf0a3cd19067c116eab86b85fc5950e5458e",
          "blockNumber": "0x7266ff",
          "transactionHash": "0x040eac02a50afad9a92c658ff918dd37923275cc25e707b984885f283ac0bf05",
          "transactionIndex": "0x55",
          "logIndex": "0xff",
          "removed": false
        },
        {
          "address": "0xbf4a322f1496e5c3d34a9bcdb4c60567b38c7de2",
          "topics": [
            "0x4afcb4a87cdbd9974efdb92ee48bc8d7cd0ae4bf217004db3d080cbaee652ca7"
          ],
          "data": "0x000000000000000000000000000000000000000000000000000000006787c7640000000000000000000000000000000000000000000000000003a0061aa267570000000000000000000000000000000000000000000000000de0b6b3a7640000",
          "blockHash": "0x5084f639652892af7c1d3cbdd8ddcf0a3cd19067c116eab86b85fc5950e5458e",
          "blockNumber": "0x7266ff",
          "transactionHash": "0x040eac02a50afad9a92c658ff918dd37923275cc25e707b984885f283ac0bf05",
          "transactionIndex": "0x55",
          "logIndex": "0x100",
          "removed": false
        }
      ],
      "logsBloom": "0x00000000000000000000000000000000000000000000000000000000000000000000000000000000000000000000000000000000000000004000000000000000000000000000000000000008000000000000001000000000000000000000000000000000020000000000000000000800020000000000000000000010000000000000000000000000000000000000000000000000000008000000010000000000000000000000000000000000000000004000000000000000000000000000000000000002000000800000000000001000000000000000080000000000000020000000000000000000000000000000000000000000000000000000000000000000",
      "type": "0x2",
      "transactionHash": "0x040eac02a50afad9a92c658ff918dd37923275cc25e707b984885f283ac0bf05",
      "transactionIndex": "0x55",
      "blockHash": "0x5084f639652892af7c1d3cbdd8ddcf0a3cd19067c116eab86b85fc5950e5458e",
      "blockNumber": "0x7266ff",
      "gasUsed": "0x13af6",
      "effectiveGasPrice": "0x3ea729756",
      "from": "0xc77f7fed3b5cc8249adc428c5f44c9063b9734b4",
      "to": "0xbf4a322f1496e5c3d34a9bcdb4c60567b38c7de2",
      "contractAddress": null
    }
  ],
  "libraries": [],
  "pending": [],
  "returns": {},
  "timestamp": 1736951654,
  "chain": 11155111,
  "commit": "51a374b"
}