{
  "transactions": [
    {
      "hash": "0x12ca61e90837bd7850681bb8c589e6a72a8928a5cf39e2083af733dad455abf7",
      "transactionType": "CALL",
      "contractName": null,
      "contractAddress": "0x8aafd3ede9adb0ff97c7aebce82a919afb1c8764",
      "function": "sell(uint256)",
      "arguments": [
        "109595850537833"
      ],
      "transaction": {
        "from": "0xc77f7fed3b5cc8249adc428c5f44c9063b9734b4",
        "to": "0x8aafd3ede9adb0ff97c7aebce82a919afb1c8764",
        "gas": "0x15daa",
        "value": "0x0",
        "input": "0xe4849b32000000000000000000000000000000000000000000000000000063ad45bd7b69",
        "nonce": "0x14d5",
        "chainId": "0xaa36a7"
      },
      "additionalContracts": [],
      "isFixedGasLimit": false
    }
  ],
  "receipts": [
    {
      "status": "0x1",
      "cumulativeGasUsed": "0x1220e1b",
      "logs": [
        {
          "address": "0x8aafd3ede9adb0ff97c7aebce82a919afb1c8764",
          "topics": [
            "0xddf252ad1be2c89b69c2b068fc378daa952ba7f163c4a11628f55a4df523b3ef",
            "0x000000000000000000000000c77f7fed3b5cc8249adc428c5f44c9063b9734b4",
            "0x0000000000000000000000000000000000000000000000000000000000000000"
          ],
          "data": "0x000000000000000000000000000000000000000000000000000062e1225dc21b",
          "blockHash": "0x505e28e69c43c9d4a816a696ef693aa0df9a2d409620db6763c8538cefb47d5c",
          "blockNumber": "0x731c33",
          "transactionHash": "0x12ca61e90837bd7850681bb8c589e6a72a8928a5cf39e2083af733dad455abf7",
          "transactionIndex": "0x9e",
          "logIndex": "0xfd",
          "removed": false
        },
        {
          "address": "0x8aafd3ede9adb0ff97c7aebce82a919afb1c8764",
          "topics": [
            "0xddf252ad1be2c89b69c2b068fc378daa952ba7f163c4a11628f55a4df523b3ef",
            "0x000000000000000000000000c77f7fed3b5cc8249adc428c5f44c9063b9734b4",
            "0x000000000000000000000000c77f7fed3b5cc8249adc428c5f44c9063b9734b4"
          ],
          "data": "0x000000000000000000000000000000000000000000000000000000cc235fb94e",
          "blockHash": "0x505e28e69c43c9d4a816a696ef693aa0df9a2d409620db6763c8538cefb47d5c",
          "blockNumber": "0x731c33",
          "transactionHash": "0x12ca61e90837bd7850681bb8c589e6a72a8928a5cf39e2083af733dad455abf7",
          "transactionIndex": "0x9e",
          "logIndex": "0xfe",
          "removed": false
        },
        {
          "address": "0x8aafd3ede9adb0ff97c7aebce82a919afb1c8764",
          "topics": [
            "0x4afcb4a87cdbd9974efdb92ee48bc8d7cd0ae4bf217004db3d080cbaee652ca7"
          ],
          "data": "0x0000000000000000000000000000000000000000000000000000000067904f40000000000000000000000000000000000000000000000000001095ab20493e92000000000000000000000000000000000000000000000000000000771e66dddf",
          "blockHash": "0x505e28e69c43c9d4a816a696ef693aa0df9a2d409620db6763c8538cefb47d5c",
          "blockNumber": "0x731c33",
          "transactionHash": "0x12ca61e90837bd7850681bb8c589e6a72a8928a5cf39e2083af733dad455abf7",
          "transactionIndex": "0x9e",
          "logIndex": "0xff",
          "removed": false
        }
      ],
      "logsBloom": "0x00000000000000000000000000000000000000000600000000000000000000000000000000000000000000000000000000000000000000004000000000000000000000000000004000000008000000000000000000000000000000000000000000000000020000000000000000000800020000000000000000000010000000000000000000000000000000000000000000000000000000000000010000000000000000000000000000000000000000004000000000000000000000000000000000000002000000800000000000000000000000000000080000000000000020000000000000000000000000000000000000000000000000000000000000000000",
      "type": "0x2",
      "transactionHash": "0x12ca61e90837bd7850681bb8c589e6a72a8928a5cf39e2083af733dad455abf7",
      "transactionIndex": "0x9e",
      "blockHash": "0x505e28e69c43c9d4a816a696ef693aa0df9a2d409620db6763c8538cefb47d5c",
      "blockNumber": "0x731c33",
      "gasUsed": "0xfd27",
      "effectiveGasPrice": "0x13bc483d8",
      "from": "0xc77f7fed3b5cc8249adc428c5f44c9063b9734b4",
      "to": "0x8aafd3ede9adb0ff97c7aebce82a919afb1c8764",
      "contractAddress": null
    }
  ],
  "libraries": [],
  "pending": [],
  "returns": {},
  "timestamp": 1737510722,
  "chain": 11155111,
  "commit": "1d2fb70"
}