{
  "transactions": [
    {
      "hash": "0xabf9333a172add9a5d697fc52511d9d2794cad08b6a65c795ba4ec63bcb4d6b9",
      "transactionType": "CALL",
      "contractName": null,
      "contractAddress": "0x8aafd3ede9adb0ff97c7aebce82a919afb1c8764",
      "function": "sell(uint256)",
      "arguments": [
        "18868208351106690"
      ],
      "transaction": {
        "from": "0xc77f7fed3b5cc8249adc428c5f44c9063b9734b4",
        "to": "0x8aafd3ede9adb0ff97c7aebce82a919afb1c8764",
        "gas": "0x1724d",
        "value": "0x0",
        "input": "0xe4849b32000000000000000000000000000000000000000000000000004308891850d682",
        "nonce": "0x1348",
        "chainId": "0xaa36a7"
      },
      "additionalContracts": [],
      "isFixedGasLimit": false
    }
  ],
  "receipts": [
    {
      "status": "0x1",
      "cumulativeGasUsed": "0x5ef093",
      "logs": [
        {
          "address": "0x8aafd3ede9adb0ff97c7aebce82a919afb1c8764",
          "topics": [
            "0xddf252ad1be2c89b69c2b068fc378daa952ba7f163c4a11628f55a4df523b3ef",
            "0x000000000000000000000000c77f7fed3b5cc8249adc428c5f44c9063b9734b4",
            "0x0000000000000000000000000000000000000000000000000000000000000000"
          ],
          "data": "0x00000000000000000000000000000000000000000000000000427f4051771a6d",
          "blockHash": "0xd36b26d8e0ed4077d29b69dc9842b451f20073d69e9d31ed740f04ccdcd60dc3",
          "blockNumber": "0x731a61",
          "transactionHash": "0xabf9333a172add9a5d697fc52511d9d2794cad08b6a65c795ba4ec63bcb4d6b9",
          "transactionIndex": "0x4a",
          "logIndex": "0x60",
          "removed": false
        },
        {
          "address": "0x8aafd3ede9adb0ff97c7aebce82a919afb1c8764",
          "topics": [
            "0xddf252ad1be2c89b69c2b068fc378daa952ba7f163c4a11628f55a4df523b3ef",
            "0x000000000000000000000000c77f7fed3b5cc8249adc428c5f44c9063b9734b4",
            "0x000000000000000000000000c77f7fed3b5cc8249adc428c5f44c9063b9734b4"
          ],
          "data": "0x00000000000000000000000000000000000000000000000000008948c6d9bc15",
          "blockHash": "0xd36b26d8e0ed4077d29b69dc9842b451f20073d69e9d31ed740f04ccdcd60dc3",
          "blockNumber": "0x731a61",
          "transactionHash": "0xabf9333a172add9a5d697fc52511d9d2794cad08b6a65c795ba4ec63bcb4d6b9",
          "transactionIndex": "0x4a",
          "logIndex": "0x61",
          "removed": false
        },
        {
          "address": "0x8aafd3ede9adb0ff97c7aebce82a919afb1c8764",
          "topics": [
            "0x4afcb4a87cdbd9974efdb92ee48bc8d7cd0ae4bf217004db3d080cbaee652ca7"
          ],
          "data": "0x000000000000000000000000000000000000000000000000000000006790395c000000000000000000000000000000000000000000000000000c116145002f0100000000000000000000000000000000000000000000000000003a4a81a18797",
          "blockHash": "0xd36b26d8e0ed4077d29b69dc9842b451f20073d69e9d31ed740f04ccdcd60dc3",
          "blockNumber": "0x731a61",
          "transactionHash": "0xabf9333a172add9a5d697fc52511d9d2794cad08b6a65c795ba4ec63bcb4d6b9",
          "transactionIndex": "0x4a",
          "logIndex": "0x62",
          "removed": false
        }
      ],
      "logsBloom": "0x00000000000000000000000000000000000000000600000000000000000000000000000000000000000000000000000000000000000000004000000000000000000000000000004000000008000000000000000000000000000000000000000000000000020000000000000000000800020000000000000000000010000000000000000000000000000000000000000000000000000000000000010000000000000000000000000000000000000000004000000000000000000000000000000000000002000000800000000000000000000000000000080000000000000020000000000000000000000000000000000000000000000000000000000000000000",
      "type": "0x2",
      "transactionHash": "0xabf9333a172add9a5d697fc52511d9d2794cad08b6a65c795ba4ec63bcb4d6b9",
      "transactionIndex": "0x4a",
      "blockHash": "0xd36b26d8e0ed4077d29b69dc9842b451f20073d69e9d31ed740f04ccdcd60dc3",
      "blockNumber": "0x731a61",
      "gasUsed": "0xfd33",
      "effectiveGasPrice": "0x414e1c89",
      "from": "0xc77f7fed3b5cc8249adc428c5f44c9063b9734b4",
      "to": "0x8aafd3ede9adb0ff97c7aebce82a919afb1c8764",
      "contractAddress": null
    }
  ],
  "libraries": [],
  "pending": [],
  "returns": {},
  "timestamp": 1737505118,
  "chain": 11155111,
  "commit": "1d2fb70"
}