{
  "transactions": [
    {
      "hash": "0x10ddd4cdc768d84c40cdcdb69deadbcb55fb9f16d69ad997ee2d0efad1ce24cf",
      "transactionType": "CALL",
      "contractName": null,
      "contractAddress": "0x5eb9cc76c3506942c1c0ead70e877dd5e4f00cb0",
      "function": "buy(address)",
      "arguments": [
        "0xC77f7fed3b5Cc8249aDc428c5F44C9063B9734b4"
      ],
      "transaction": {
        "from": "0xc77f7fed3b5cc8249adc428c5f44c9063b9734b4",
        "to": "0x5eb9cc76c3506942c1c0ead70e877dd5e4f00cb0",
        "gas": "0x1b30c",
        "value": "0xde0b6b3a7640000",
        "input": "0xf088d547000000000000000000000000c77f7fed3b5cc8249adc428c5f44c9063b9734b4",
        "nonce": "0x34a",
        "chainId": "0xaa36a7"
      },
      "additionalContracts": [],
      "isFixedGasLimit": false
    }
  ],
  "receipts": [
    {
      "status": "0x1",
      "cumulativeGasUsed": "0x9b4ed4",
      "logs": [
        {
          "address": "0x5eb9cc76c3506942c1c0ead70e877dd5e4f00cb0",
          "topics": [
            "0xddf252ad1be2c89b69c2b068fc378daa952ba7f163c4a11628f55a4df523b3ef",
            "0x0000000000000000000000000000000000000000000000000000000000000000",
            "0x000000000000000000000000c77f7fed3b5cc8249adc428c5f44c9063b9734b4"
          ],
          "data": "0x0000000000000000000000000000000000000000000000357568f2de3e45bd97",
          "blockHash": "0x3e5ae99014e4bb4f8a7bda851d936e12dbd674b06ec8ff4e17eb58cbb51e867c",
          "blockNumber": "0x724f3b",
          "transactionHash": "0x10ddd4cdc768d84c40cdcdb69deadbcb55fb9f16d69ad997ee2d0efad1ce24cf",
          "transactionIndex": "0x4c",
          "logIndex": "0x71",
          "removed": false
        },
        {
          "address": "0x5eb9cc76c3506942c1c0ead70e877dd5e4f00cb0",
          "topics": [
            "0xddf252ad1be2c89b69c2b068fc378daa952ba7f163c4a11628f55a4df523b3ef",
            "0x0000000000000000000000000000000000000000000000000000000000000000",
            "0x000000000000000000000000c77f7fed3b5cc8249adc428c5f44c9063b9734b4"
          ],
          "data": "0x000000000000000000000000000000000000000000000000298330090f8a7d2d",
          "blockHash": "0x3e5ae99014e4bb4f8a7bda851d936e12dbd674b06ec8ff4e17eb58cbb51e867c",
          "blockNumber": "0x724f3b",
          "transactionHash": "0x10ddd4cdc768d84c40cdcdb69deadbcb55fb9f16d69ad997ee2d0efad1ce24cf",
          "transactionIndex": "0x4c",
          "logIndex": "0x72",
          "removed": false
        },
        {
          "address": "0x5eb9cc76c3506942c1c0ead70e877dd5e4f00cb0",
          "topics": [
            "0x4afcb4a87cdbd9974efdb92ee48bc8d7cd0ae4bf217004db3d080cbaee652ca7"
          ],
          "data": "0x000000000000000000000000000000000000000000000000000000006786a8780000000000000000000000000000000000000000000000000003910e91f58fd50000000000000000000000000000000000000000000000000de0b6b3a7640000",
          "blockHash": "0x3e5ae99014e4bb4f8a7bda851d936e12dbd674b06ec8ff4e17eb58cbb51e867c",
          "blockNumber": "0x724f3b",
          "transactionHash": "0x10ddd4cdc768d84c40cdcdb69deadbcb55fb9f16d69ad997ee2d0efad1ce24cf",
          "transactionIndex": "0x4c",
          "logIndex": "0x73",
          "removed": false
        }
      ],
      "logsBloom": "0x00000000000000000000000000000000000000000000000000000000000000000000000000000000000000000000000000000000000000004000000000000000000000000000000000000008000000000000000000000000000000000000000000000000020000000000000004000800020000000000000000000010000000000000000000000000000000000000000000000000000000000000010000000000000000000000000000000000000000004000000000000000000000000000020000000002000000800000008000000000000000000000080000000000000020000000000000000000000000000000000000000000000000000000000000000000",
      "type": "0x2",
      "transactionHash": "0x10ddd4cdc768d84c40cdcdb69deadbcb55fb9f16d69ad997ee2d0efad1ce24cf",
      "transactionIndex": "0x4c",
      "blockHash": "0x3e5ae99014e4bb4f8a7bda851d936e12dbd674b06ec8ff4e17eb58cbb51e867c",
      "blockNumber": "0x724f3b",
      "gasUsed": "0x13af8",
      "effectiveGasPrice": "0x5b002ccce",
      "from": "0xc77f7fed3b5cc8249adc428c5f44c9063b9734b4",
      "to": "0x5eb9cc76c3506942c1c0ead70e877dd5e4f00cb0",
      "contractAddress": null
    }
  ],
  "libraries": [],
  "pending": [],
  "returns": {},
  "timestamp": 1736878202,
  "chain": 11155111,
  "commit": "51a374b"
}