{
  "transactions": [
    {
      "hash": "0x8717796fcf3bdbabc2f277dc76e0532461d72eac4bb88ffdd8a271645eec8e93",
      "transactionType": "CALL",
      "contractName": null,
      "contractAddress": "0x8aafd3ede9adb0ff97c7aebce82a919afb1c8764",
      "function": "buy(address)",
      "arguments": [
        "0xC77f7fed3b5Cc8249aDc428c5F44C9063B9734b4"
      ],
      "transaction": {
        "from": "0xc77f7fed3b5cc8249adc428c5f44c9063b9734b4",
        "to": "0x8aafd3ede9adb0ff97c7aebce82a919afb1c8764",
        "gas": "0x156ea",
        "value": "0xde0b6b3a7640000",
        "input": "0xf088d547000000000000000000000000c77f7fed3b5cc8249adc428c5f44c9063b9734b4",
        "nonce": "0x1546",
        "chainId": "0xaa36a7"
      },
      "additionalContracts": [],
      "isFixedGasLimit": false
    }
  ],
  "receipts": [
    {
      "status": "0x1",
      "cumulativeGasUsed": "0xe347b0",
      "logs": [
        {
          "address": "0x8aafd3ede9adb0ff97c7aebce82a919afb1c8764",
          "topics": [
            "0xddf252ad1be2c89b69c2b068fc378daa952ba7f163c4a11628f55a4df523b3ef",
            "0x0000000000000000000000000000000000000000000000000000000000000000",
            "0x000000000000000000000000c77f7fed3b5cc8249adc428c5f44c9063b9734b4"
          ],
          "data": "0x00000000000000000000000000000000000000000000000ab1a1287b09134040",
          "blockHash": "0x49e42d0c2604f3eb271471583441b59551d17f9b3015a271876e012d5d006b92",
          "blockNumber": "0x731cab",
          "transactionHash": "0x8717796fcf3bdbabc2f277dc76e0532461d72eac4bb88ffdd8a271645eec8e93",
          "transactionIndex": "0x53",
          "logIndex": "0x1a0",
          "removed": false
        },
        {
          "address": "0x8aafd3ede9adb0ff97c7aebce82a919afb1c8764",
          "topics": [
            "0xddf252ad1be2c89b69c2b068fc378daa952ba7f163c4a11628f55a4df523b3ef",
            "0x0000000000000000000000000000000000000000000000000000000000000000",
            "0x000000000000000000000000c77f7fed3b5cc8249adc428c5f44c9063b9734b4"
          ],
          "data": "0x000000000000000000000000000000000000000000000000084ddcda44c827dc",
          "blockHash": "0x49e42d0c2604f3eb271471583441b59551d17f9b3015a271876e012d5d006b92",
          "blockNumber": "0x731cab",
          "transactionHash": "0x8717796fcf3bdbabc2f277dc76e0532461d72eac4bb88ffdd8a271645eec8e93",
          "transactionIndex": "0x53",
          "logIndex": "0x1a1",
          "removed": false
        },
        {
          "address": "0x8aafd3ede9adb0ff97c7aebce82a919afb1c8764",
          "topics": [
            "0x4afcb4a87cdbd9974efdb92ee48bc8d7cd0ae4bf217004db3d080cbaee652ca7"
          ],
          "data": "0x00000000000000000000000000000000000000000000000000000000679054e00000000000000000000000000000000000000000000000000011daef6ec17bf40000000000000000000000000000000000000000000000000de0b6b3a7640000",
          "blockHash": "0x49e42d0c2604f3eb271471583441b59551d17f9b3015a271876e012d5d006b92",
          "blockNumber": "0x731cab",
          "transactionHash": "0x8717796fcf3bdbabc2f277dc76e0532461d72eac4bb88ffdd8a271645eec8e93",
          "transactionIndex": "0x53",
          "logIndex": "0x1a2",
          "removed": false
        }
      ],
      "logsBloom": "0x00000000000000000000000000000000000000000600000000000000000000000000000000000000000000000000000000000000000000004000000000000000000000000000004000000008000000000000000000000000000000000000000000000000020000000000000000000800020000000000000000000010000000000000000000000000000000000000000000000000000000000000010000000000000000000000000000000000000000004000000000000000000000000000000000000002000000800000000000000000000000000000080000000000000020000000000000000000000000000000000000000000000000000000000000000000",
      "type": "0x2",
      "transactionHash": "0x8717796fcf3bdbabc2f277dc76e0532461d72eac4bb88ffdd8a271645eec8e93",
      "transactionIndex": "0x53",
      "blockHash": "0x49e42d0c2604f3eb271471583441b59551d17f9b3015a271876e012d5d006b92",
      "blockNumber": "0x731cab",
      "gasUsed": "0xf844",
      "effectiveGasPrice": "0xe017bb89",
      "from": "0xc77f7fed3b5cc8249adc428c5f44c9063b9734b4",
      "to": "0x8aafd3ede9adb0ff97c7aebce82a919afb1c8764",
      "contractAddress": null
    }
  ],
  "libraries": [],
  "pending": [],
  "returns": {},
  "timestamp": 1737512160,
  "chain": 11155111,
  "commit": "1d2fb70"
}