{
  "transactions": [
    {
      "hash": "0xb9403e830775f05a3bad2a2fbd20205afd8020a4bd02f06d12cd0e090654dca6",
      "transactionType": "CALL",
      "contractName": null,
      "contractAddress": "0x8aafd3ede9adb0ff97c7aebce82a919afb1c8764",
      "function": "sell(uint256)",
      "arguments": [
        "3043260984718"
      ],
      "transaction": {
        "from": "0xc77f7fed3b5cc8249adc428c5f44c9063b9734b4",
        "to": "0x8aafd3ede9adb0ff97c7aebce82a919afb1c8764",
        "gas": "0x15daa",
        "value": "0x0",
        "input": "0xe4849b32000000000000000000000000000000000000000000000000000002c4907d6d8e",
        "nonce": "0xf39",
        "chainId": "0xaa36a7"
      },
      "additionalContracts": [],
      "isFixedGasLimit": false
    }
  ],
  "receipts": [
    {
      "status": "0x1",
      "cumulativeGasUsed": "0xc9cc87",
      "logs": [
        {
          "address": "0x8aafd3ede9adb0ff97c7aebce82a919afb1c8764",
          "topics": [
            "0xddf252ad1be2c89b69c2b068fc378daa952ba7f163c4a11628f55a4df523b3ef",
            "0x000000000000000000000000c77f7fed3b5cc8249adc428c5f44c9063b9734b4",
            "0x0000000000000000000000000000000000000000000000000000000000000000"
          ],
          "data": "0x000000000000000000000000000000000000000000000000000002bee5599bc9",
          "blockHash": "0xc4a307276760f4dc8a57abd9583d01d40b09827af9b9b6e7f172999c811ae4dd",
          "blockNumber": "0x731593",
          "transactionHash": "0xb9403e830775f05a3bad2a2fbd20205afd8020a4bd02f06d12cd0e090654dca6",
          "transactionIndex": "0x88",
          "logIndex": "0xd6",
          "removed": false
        },
        {
          "address": "0x8aafd3ede9adb0ff97c7aebce82a919afb1c8764",
          "topics": [
            "0xddf252ad1be2c89b69c2b068fc378daa952ba7f163c4a11628f55a4df523b3ef",
            "0x000000000000000000000000c77f7fed3b5cc8249adc428c5f44c9063b9734b4",
            "0x000000000000000000000000c77f7fed3b5cc8249adc428c5f44c9063b9734b4"
          ],
          "data": "0x00000000000000000000000000000000000000000000000000000005ab23d1c5",
          "blockHash": "0xc4a307276760f4dc8a57abd9583d01d40b09827af9b9b6e7f172999c811ae4dd",
          "blockNumber": "0x731593",
          "transactionHash": "0xb9403e830775f05a3bad2a2fbd20205afd8020a4bd02f06d12cd0e090654dca6",
          "transactionIndex": "0x88",
          "logIndex": "0xd7",
          "removed": false
        },
        {
          "address": "0x8aafd3ede9adb0ff97c7aebce82a919afb1c8764",
          "topics": [
            "0x4afcb4a87cdbd9974efdb92ee48bc8d7cd0ae4bf217004db3d080cbaee652ca7"
          ],
          "data": "0x00000000000000000000000000000000000000000000000000000000678fff900000000000000000000000000000000000000000000000000004bfdfc8ad5b5200000000000000000000000000000000000000000000000000000000f27f6e1d",
          "blockHash": "0xc4a307276760f4dc8a57abd9583d01d40b09827af9b9b6e7f172999c811ae4dd",
          "blockNumber": "0x731593",
          "transactionHash": "0xb9403e830775f05a3bad2a2fbd20205afd8020a4bd02f06d12cd0e090654dca6",
          "transactionIndex": "0x88",
          "logIndex": "0xd8",
          "removed": false
        }
      ],
      "logsBloom": "0x00000000000000000000000000000000000000000600000000000000000000000000000000000000000000000000000000000000000000004000000000000000000000000000004000000008000000000000000000000000000000000000000000000000020000000000000000000800020000000000000000000010000000000000000000000000000000000000000000000000000000000000010000000000000000000000000000000000000000004000000000000000000000000000000000000002000000800000000000000000000000000000080000000000000020000000000000000000000000000000000000000000000000000000000000000000",
      "type": "0x2",
      "transactionHash": "0xb9403e830775f05a3bad2a2fbd20205afd8020a4bd02f06d12cd0e090654dca6",
      "transactionIndex": "0x88",
      "blockHash": "0xc4a307276760f4dc8a57abd9583d01d40b09827af9b9b6e7f172999c811ae4dd",
      "blockNumber": "0x731593",
      "gasUsed": "0xfd27",
      "effectiveGasPrice": "0x5e53f9be",
      "from": "0xc77f7fed3b5cc8249adc428c5f44c9063b9734b4",
      "to": "0x8aafd3ede9adb0ff97c7aebce82a919afb1c8764",
      "contractAddress": null
    }
  ],
  "libraries": [],
  "pending": [],
  "returns": {},
  "timestamp": 1737490321,
  "chain": 11155111,
  "commit": "1d2fb70"
}