{
  "transactions": [
    {
      "hash": "0x4072a220a3cbbe00b3b51fab1034806bc7396dae9dff109f554d45a4d8900511",
      "transactionType": "CALL",
      "contractName": null,
      "contractAddress": "0x8aafd3ede9adb0ff97c7aebce82a919afb1c8764",
      "function": "sell(uint256)",
      "arguments": [
        "202586431888279078484"
      ],
      "transaction": {
        "from": "0xc77f7fed3b5cc8249adc428c5f44c9063b9734b4",
        "to": "0x8aafd3ede9adb0ff97c7aebce82a919afb1c8764",
        "gas": "0x17270",
        "value": "0x0",
        "input": "0xe4849b3200000000000000000000000000000000000000000000000afb73967416be0654",
        "nonce": "0x1523",
        "chainId": "0xaa36a7"
      },
      "additionalContracts": [],
      "isFixedGasLimit": false
    }
  ],
  "receipts": [
    {
      "status": "0x1",
      "cumulativeGasUsed": "0x7cbe50",
      "logs": [
        {
          "address": "0x8aafd3ede9adb0ff97c7aebce82a919afb1c8764",
          "topics": [
            "0xddf252ad1be2c89b69c2b068fc378daa952ba7f163c4a11628f55a4df523b3ef",
            "0x000000000000000000000000c77f7fed3b5cc8249adc428c5f44c9063b9734b4",
            "0x0000000000000000000000000000000000000000000000000000000000000000"
          ],
          "data": "0x00000000000000000000000000000000000000000000000ae4f5bc296e9fd521",
          "blockHash": "0x81df95370fba82f2bf29e0f192bd5ee40f2234a5cc7e91c3d6decebab965691f",
          "blockNumber": "0x731c85",
          "transactionHash": "0x4072a220a3cbbe00b3b51fab1034806bc7396dae9dff109f554d45a4d8900511",
          "transactionIndex": "0x67",
          "logIndex": "0x7f",
          "removed": false
        },
        {
          "address": "0x8aafd3ede9adb0ff97c7aebce82a919afb1c8764",
          "topics": [
            "0xddf252ad1be2c89b69c2b068fc378daa952ba7f163c4a11628f55a4df523b3ef",
            "0x000000000000000000000000c77f7fed3b5cc8249adc428c5f44c9063b9734b4",
            "0x000000000000000000000000c77f7fed3b5cc8249adc428c5f44c9063b9734b4"
          ],
          "data": "0x000000000000000000000000000000000000000000000000167dda4aa81e3133",
          "blockHash": "0x81df95370fba82f2bf29e0f192bd5ee40f2234a5cc7e91c3d6decebab965691f",
          "blockNumber": "0x731c85",
          "transactionHash": "0x4072a220a3cbbe00b3b51fab1034806bc7396dae9dff109f554d45a4d8900511",
          "transactionIndex": "0x67",
          "logIndex": "0x80",
          "removed": false
        },
        {
          "address": "0x8aafd3ede9adb0ff97c7aebce82a919afb1c8764",
          "topics": [
            "0x4afcb4a87cdbd9974efdb92ee48bc8d7cd0ae4bf217004db3d080cbaee652ca7"
          ],
          "data": "0x00000000000000000000000000000000000000000000000000000000679053180000000000000000000000000000000000000000000000000011846beca4e7bb0000000000000000000000000000000000000000000000000dcd065d81d09cb9",
          "blockHash": "0x81df95370fba82f2bf29e0f192bd5ee40f2234a5cc7e91c3d6decebab965691f",
          "blockNumber": "0x731c85",
          "transactionHash": "0x4072a220a3cbbe00b3b51fab1034806bc7396dae9dff109f554d45a4d8900511",
          "transactionIndex": "0x67",
          "logIndex": "0x81",
          "removed": false
        }
      ],
      "logsBloom": "0x00000000000000000000000000000000000000000600000000000000000000000000000000000000000000000000000000000000000000004000000000000000000000000000004000000008000000000000000000000000000000000000000000000000020000000000000000000800020000000000000000000010000000000000000000000000000000000000000000000000000000000000010000000000000000000000000000000000000000004000000000000000000000000000000000000002000000800000000000000000000000000000080000000000000020000000000000000000000000000000000000000000000000000000000000000000",
      "type": "0x2",
      "transactionHash": "0x4072a220a3cbbe00b3b51fab1034806bc7396dae9dff109f554d45a4d8900511",
      "transactionIndex": "0x67",
      "blockHash": "0x81df95370fba82f2bf29e0f192bd5ee40f2234a5cc7e91c3d6decebab965691f",
      "blockNumber": "0x731c85",
      "gasUsed": "0xfd4b",
      "effectiveGasPrice": "0x1268ed62d",
      "from": "0xc77f7fed3b5cc8249adc428c5f44c9063b9734b4",
      "to": "0x8aafd3ede9adb0ff97c7aebce82a919afb1c8764",
      "contractAddress": null
    }
  ],
  "libraries": [],
  "pending": [],
  "returns": {},
  "timestamp": 1737511704,
  "chain": 11155111,
  "commit": "1d2fb70"
}