{
  "transactions": [
    {
      "hash": "0xf82e005cd1bbfd745b9d19cf212e48344ded713742b05999b0530625f0d73ec4",
      "transactionType": "CALL",
      "contractName": null,
      "contractAddress": "0xbf4a322f1496e5c3d34a9bcdb4c60567b38c7de2",
      "function": "sell(uint256)",
      "arguments": [
        "987535355653871638771"
      ],
      "transaction": {
        "from": "0xc77f7fed3b5cc8249adc428c5f44c9063b9734b4",
        "to": "0xbf4a322f1496e5c3d34a9bcdb4c60567b38c7de2",
        "gas": "0x16fea",
        "value": "0x0",
        "input": "0xe4849b3200000000000000000000000000000000000000000000003588ce5dc7d81018f3",
        "nonce": "0x9eb",
        "chainId": "0xaa36a7"
      },
      "additionalContracts": [],
      "isFixedGasLimit": false
    }
  ],
  "receipts": [
    {
      "status": "0x1",
      "cumulativeGasUsed": "0xa14ef1",
      "logs": [
        {
          "address": "0xbf4a322f1496e5c3d34a9bcdb4c60567b38c7de2",
          "topics": [
            "0xddf252ad1be2c89b69c2b068fc378daa952ba7f163c4a11628f55a4df523b3ef",
            "0x000000000000000000000000c77f7fed3b5cc8249adc428c5f44c9063b9734b4",
            "0x0000000000000000000000000000000000000000000000000000000000000000"
          ],
          "data": "0x00000000000000000000000000000000000000000000003588ce5dc7d81018f3",
          "blockHash": "0x87f413f2f69cb19675ab69ac37ceb264fa3eccb95eb14e4e04464beba33079d8",
          "blockNumber": "0x7259a0",
          "transactionHash": "0xf82e005cd1bbfd745b9d19cf212e48344ded713742b05999b0530625f0d73ec4",
          "transactionIndex": "0x65",
          "logIndex": "0xa3",
          "removed": false
        },
        {
          "address": "0xbf4a322f1496e5c3d34a9bcdb4c60567b38c7de2",
          "topics": [
            "0x4afcb4a87cdbd9974efdb92ee48bc8d7cd0ae4bf217004db3d080cbaee652ca7"
          ],
          "data": "0x00000000000000000000000000000000000000000000000000000000678725b80000000000000000000000000000000000000000000000000003928e3651441b0000000000000000000000000000000000000000000000000dc7e3f39608da29",
          "blockHash": "0x87f413f2f69cb19675ab69ac37ceb264fa3eccb95eb14e4e04464beba33079d8",
          "blockNumber": "0x7259a0",
          "transactionHash": "0xf82e005cd1bbfd745b9d19cf212e48344ded713742b05999b0530625f0d73ec4",
          "transactionIndex": "0x65",
          "logIndex": "0xa4",
          "removed": false
        }
      ],
      "logsBloom": "0x00000000000000000000000000000000000000000000000000000000000000000000000000000000000000000000000000000000000000004000000000000000000000000000000000000008000000000000001000000000000000000000000000000000020000000000000000000800020000000000000000000010000000000000000000000000000000000000000000000000000008000000010000000000000000000000000000000000000000004000000000000000000000000000000000000002000000800000000000001000000000000000080000000000000020000000000000000000000000000000000000000000000000000000000000000000",
      "type": "0x2",
      "transactionHash": "0xf82e005cd1bbfd745b9d19cf212e48344ded713742b05999b0530625f0d73ec4",
      "transactionIndex": "0x65",
      "blockHash": "0x87f413f2f69cb19675ab69ac37ceb264fa3eccb95eb14e4e04464beba33079d8",
      "blockNumber": "0x7259a0",
      "gasUsed": "0xfb91",
      "effectiveGasPrice": "0x256e38892",
      "from": "0xc77f7fed3b5cc8249adc428c5f44c9063b9734b4",
      "to": "0xbf4a322f1496e5c3d34a9bcdb4c60567b38c7de2",
      "contractAddress": null
    }
  ],
  "libraries": [],
  "pending": [],
  "returns": {},
  "timestamp": 1736910265,
  "chain": 11155111,
  "commit": "51a374b"
}