{
  "transactions": [
    {
      "hash": "0xfe2e4d2c8d1c08ef9e602a2e1481f1f7203990bc90d5e77f78992e9fe78aafc7",
      "transactionType": "CALL",
      "contractName": null,
      "contractAddress": "0xbf4a322f1496e5c3d34a9bcdb4c60567b38c7de2",
      "function": "sell(uint256)",
      "arguments": [
        "990269658308349923753"
      ],
      "transaction": {
        "from": "0xc77f7fed3b5cc8249adc428c5f44c9063b9734b4",
        "to": "0xbf4a322f1496e5c3d34a9bcdb4c60567b38c7de2",
        "gas": "0x16fea",
        "value": "0x0",
        "input": "0xe4849b32000000000000000000000000000000000000000000000035aec08f8ed4a611a9",
        "nonce": "0x923",
        "chainId": "0xaa36a7"
      },
      "additionalContracts": [],
      "isFixedGasLimit": false
    }
  ],
  "receipts": [
    {
      "status": "0x1",
      "cumulativeGasUsed": "0x8a3ec7",
      "logs": [
        {
          "address": "0xbf4a322f1496e5c3d34a9bcdb4c60567b38c7de2",
          "topics": [
            "0xddf252ad1be2c89b69c2b068fc378daa952ba7f163c4a11628f55a4df523b3ef",
            "0x000000000000000000000000c77f7fed3b5cc8249adc428c5f44c9063b9734b4",
            "0x0000000000000000000000000000000000000000000000000000000000000000"
          ],
          "data": "0x000000000000000000000000000000000000000000000035aec08f8ed4a611a9",
          "blockHash": "0x5a3be61e4caf535dade50c7c8de92acac48c42ef4f54707ca40f23d01b58b647",
          "blockNumber": "0x7258a9",
          "transactionHash": "0xfe2e4d2c8d1c08ef9e602a2e1481f1f7203990bc90d5e77f78992e9fe78aafc7",
          "transactionIndex": "0x4b",
          "logIndex": "0x62",
          "removed": false
        },
        {
          "address": "0xbf4a322f1496e5c3d34a9bcdb4c60567b38c7de2",
          "topics": [
            "0x4afcb4a87cdbd9974efdb92ee48bc8d7cd0ae4bf217004db3d080cbaee652ca7"
          ],
          "data": "0x0000000000000000000000000000000000000000000000000000000067871a1800000000000000000000000000000000000000000000000000039007c48e4b270000000000000000000000000000000000000000000000000dc7e3f9f178eb9a",
          "blockHash": "0x5a3be61e4caf535dade50c7c8de92acac48c42ef4f54707ca40f23d01b58b647",
          "blockNumber": "0x7258a9",
          "transactionHash": "0xfe2e4d2c8d1c08ef9e602a2e1481f1f7203990bc90d5e77f78992e9fe78aafc7",
          "transactionIndex": "0x4b",
          "logIndex": "0x63",
          "removed": false
        }
      ],
      "logsBloom": "0x00000000000000000000000000000000000000000000000000000000000000000000000000000000000000000000000000000000000000004000000000000000000000000000000000000008000000000000001000000000000000000000000000000000020000000000000000000800020000000000000000000010000000000000000000000000000000000000000000000000000008000000010000000000000000000000000000000000000000004000000000000000000000000000000000000002000000800000000000001000000000000000080000000000000020000000000000000000000000000000000000000000000000000000000000000000",
      "type": "0x2",
      "transactionHash": "0xfe2e4d2c8d1c08ef9e602a2e1481f1f7203990bc90d5e77f78992e9fe78aafc7",
      "transactionIndex": "0x4b",
      "blockHash": "0x5a3be61e4caf535dade50c7c8de92acac48c42ef4f54707ca40f23d01b58b647",
      "blockNumber": "0x7258a9",
      "gasUsed": "0xfb91",
      "effectiveGasPrice": "0x5958ea13",
      "from": "0xc77f7fed3b5cc8249adc428c5f44c9063b9734b4",
      "to": "0xbf4a322f1496e5c3d34a9bcdb4c60567b38c7de2",
      "contractAddress": null
    }
  ],
  "libraries": [],
  "pending": [],
  "returns": {},
  "timestamp": 1736907290,
  "chain": 11155111,
  "commit": "51a374b"
}