{
  "transactions": [
    {
      "hash": "0x249e5b233c5f54cf3637818b2566296326a0a3d9d070bc02dd3d7d47751f593c",
      "transactionType": "CALL",
      "contractName": null,
      "contractAddress": "0x8aafd3ede9adb0ff97c7aebce82a919afb1c8764",
      "function": "sell(uint256)",
      "arguments": [
        "12023"
      ],
      "transaction": {
        "from": "0xc77f7fed3b5cc8249adc428c5f44c9063b9734b4",
        "to": "0x8aafd3ede9adb0ff97c7aebce82a919afb1c8764",
        "gas": "0x14e4c",
        "value": "0x0",
        "input": "0xe4849b320000000000000000000000000000000000000000000000000000000000002ef7",
        "nonce": "0x1035",
        "chainId": "0xaa36a7"
      },
      "additionalContracts": [],
      "isFixedGasLimit": false
    }
  ],
  "receipts": [
    {
      "status": "0x1",
      "cumulativeGasUsed": "0x86ee44",
      "logs": [
        {
          "address": "0x8aafd3ede9adb0ff97c7aebce82a919afb1c8764",
          "topics": [
            "0xddf252ad1be2c89b69c2b068fc378daa952ba7f163c4a11628f55a4df523b3ef",
            "0x000000000000000000000000c77f7fed3b5cc8249adc428c5f44c9063b9734b4",
            "0x0000000000000000000000000000000000000000000000000000000000000000"
          ],
          "data": "0x0000000000000000000000000000000000000000000000000000000000002e97",
          "blockHash": "0xbd6f88cbcd59262bd6a7315a735adf404744ed66ae21118eb8778a854db3f7ba",
          "blockNumber": "0x7316b2",
          "transactionHash": "0x249e5b233c5f54cf3637818b2566296326a0a3d9d070bc02dd3d7d47751f593c",
          "transactionIndex": "0x6b",
          "logIndex": "0x71",
          "removed": false
        },
        {
          "address": "0x8aafd3ede9adb0ff97c7aebce82a919afb1c8764",
          "topics": [
            "0xddf252ad1be2c89b69c2b068fc378daa952ba7f163c4a11628f55a4df523b3ef",
            "0x000000000000000000000000c77f7fed3b5cc8249adc428c5f44c9063b9734b4",
            "0x000000000000000000000000c77f7fed3b5cc8249adc428c5f44c9063b9734b4"
          ],
          "data": "0x0000000000000000000000000000000000000000000000000000000000000060",
          "blockHash": "0xbd6f88cbcd59262bd6a7315a735adf404744ed66ae21118eb8778a854db3f7ba",
          "blockNumber": "0x7316b2",
          "transactionHash": "0x249e5b233c5f54cf3637818b2566296326a0a3d9d070bc02dd3d7d47751f593c",
          "transactionIndex": "0x6b",
          "logIndex": "0x72",
          "removed": false
        },
        {
          "address": "0x8aafd3ede9adb0ff97c7aebce82a919afb1c8764",
          "topics": [
            "0x4afcb4a87cdbd9974efdb92ee48bc8d7cd0ae4bf217004db3d080cbaee652ca7"
          ],
          "data": "0x0000000000000000000000000000000000000000000000000000000067900d100000000000000000000000000000000000000000000000000004eda90c28fe090000000000000000000000000000000000000000000000000000000000000010",
          "blockHash": "0xbd6f88cbcd59262bd6a7315a735adf404744ed66ae21118eb8778a854db3f7ba",
          "blockNumber": "0x7316b2",
          "transactionHash": "0x249e5b233c5f54cf3637818b2566296326a0a3d9d070bc02dd3d7d47751f593c",
          "transactionIndex": "0x6b",
          "logIndex": "0x73",
          "removed": false
        }
      ],
      "logsBloom": "0x00000000000000000000000000000000000000000600000000000000000000000000000000000000000000000000000000000000000000004000000000000000000000000000004000000008000000000000000000000000000000000000000000000000020000000000000000000800020000000000000000000010000000000000000000000000000000000000000000000000000000000000010000000000000000000000000000000000000000004000000000000000000000000000000000000002000000800000000000000000000000000000080000000000000020000000000000000000000000000000000000000000000000000000000000000000",
      "type": "0x2",
      "transactionHash": "0x249e5b233c5f54cf3637818b2566296326a0a3d9d070bc02dd3d7d47751f593c",
      "transactionIndex": "0x6b",
      "blockHash": "0xbd6f88cbcd59262bd6a7315a735adf404744ed66ae21118eb8778a854db3f7ba",
      "blockNumber": "0x7316b2",
      "gasUsed": "0xf207",
      "effectiveGasPrice": "0x497df4bc",
      "from": "0xc77f7fed3b5cc8249adc428c5f44c9063b9734b4",
      "to": "0x8aafd3ede9adb0ff97c7aebce82a919afb1c8764",
      "contractAddress": null
    }
  ],
  "libraries": [],
  "pending": [],
  "returns": {},
  "timestamp": 1737493777,
  "chain": 11155111,
  "commit": "1d2fb70"
}