{
  "transactions": [
    {
      "hash": "0xc4b31b3c6c4b337065603de8c085a266406e71a2410d39f0a96c5c2e96106d0e",
      "transactionType": "CALL",
      "contractName": null,
      "contractAddress": "0xd7bc75898e513accccf720a874d44dab5a4b6223",
      "function": "buy(address)",
      "arguments": [
        "0xC77f7fed3b5Cc8249aDc428c5F44C9063B9734b4"
      ],
      "transaction": {
        "from": "0xc77f7fed3b5cc8249adc428c5f44c9063b9734b4",
        "to": "0xd7bc75898e513accccf720a874d44dab5a4b6223",
        "gas": "0x1b30c",
        "value": "0x16345785d8a0000",
        "input": "0xf088d547000000000000000000000000c77f7fed3b5cc8249adc428c5f44c9063b9734b4",
        "nonce": "0x65",
        "chainId": "0xaa36a7"
      },
      "additionalContracts": [],
      "isFixedGasLimit": false
    },
    {
      "hash": "0xa89723ef8ea3b105691a9f3e2911a83e77b47666075d97396a1321cb3626ad79",
      "transactionType": "CALL",
      "contractName": null,
      "contractAddress": "0xd7bc75898e513accccf720a874d44dab5a4b6223",
      "function": "sell(uint256)",
      "arguments": [
        "99300293549220698838"
      ],
      "transaction": {
        "from": "0xc77f7fed3b5cc8249adc428c5f44c9063b9734b4",
        "to": "0xd7bc75898e513accccf720a874d44dab5a4b6223",
        "gas": "0x16fec",
        "value": "0x0",
        "input": "0xe4849b32000000000000000000000000000000000000000000000005621182de15501ad6",
        "nonce": "0x66",
        "chainId": "0xaa36a7"
      },
      "additionalContracts": [],
      "isFixedGasLimit": false
    }
  ],
  "receipts": [
    {
      "status": "0x1",
      "cumulativeGasUsed": "0x6cb783",
      "logs": [
        {
          "address": "0xd7bc75898e513accccf720a874d44dab5a4b6223",
          "topics": [
            "0xddf252ad1be2c89b69c2b068fc378daa952ba7f163c4a11628f55a4df523b3ef",
            "0x0000000000000000000000000000000000000000000000000000000000000000",
            "0x000000000000000000000000c77f7fed3b5cc8249adc428c5f44c9063b9734b4"
          ],
          "data": "0x0000000000000000000000000000000000000000000000055de6a15aa0e16ec7",
          "blockHash": "0x712afa594a2a00b279a8d550375d672f01948afb5cd024cc7377b7b16c527bc1",
          "blockNumber": "0x723895",
          "transactionHash": "0xc4b31b3c6c4b337065603de8c085a266406e71a2410d39f0a96c5c2e96106d0e",
          "transactionIndex": "0x36",
          "logIndex": "0x4e",
          "removed": false
        },
        {
          "address": "0xd7bc75898e513accccf720a874d44dab5a4b6223",
          "topics": [
            "0xddf252ad1be2c89b69c2b068fc378daa952ba7f163c4a11628f55a4df523b3ef",
            "0x0000000000000000000000000000000000000000000000000000000000000000",
            "0x000000000000000000000000c77f7fed3b5cc8249adc428c5f44c9063b9734b4"
          ],
          "data": "0x000000000000000000000000000000000000000000000000042ae183746eac0f",
          "blockHash": "0x712afa594a2a00b279a8d550375d672f01948afb5cd024cc7377b7b16c527bc1",
          "blockNumber": "0x723895",
          "transactionHash": "0xc4b31b3c6c4b337065603de8c085a266406e71a2410d39f0a96c5c2e96106d0e",
          "transactionIndex": "0x36",
          "logIndex": "0x4f",
          "removed": false
        },
        {
          "address": "0xd7bc75898e513accccf720a874d44dab5a4b6223",
          "topics": [
            "0x4afcb4a87cdbd9974efdb92ee48bc8d7cd0ae4bf217004db3d080cbaee652ca7"
          ],
          "data": "0x000000000000000000000000000000000000000000000000000000006785984400000000000000000000000000000000000000000000000000038d7ea985d58e000000000000000000000000000000000000000000000000016345785d8a0000",
          "blockHash": "0x712afa594a2a00b279a8d550375d672f01948afb5cd024cc7377b7b16c527bc1",
          "blockNumber": "0x723895",
          "transactionHash": "0xc4b31b3c6c4b337065603de8c085a266406e71a2410d39f0a96c5c2e96106d0e",
          "transactionIndex": "0x36",
          "logIndex": "0x50",
          "removed": false
        }
      ],
      "logsBloom": "0x00000000000000000000000000000000000000000000000000000000000000000000000000000000000000000000000000000000000000004000000000000000000000000000000000000008000000000000000000000000000000000000000000000000020000000000000000000800020000000000000000000010000000000000000000000000000000000000000000000000000000000000010000000000000000000000000000000000000000004000001000000000000000000000000000000002000000800000000000004000000000000000080000000000000020000000000000000000000000000000000000000000080000000000000000000000",
      "type": "0x2",
      "transactionHash": "0xc4b31b3c6c4b337065603de8c085a266406e71a2410d39f0a96c5c2e96106d0e",
      "transactionIndex": "0x36",
      "blockHash": "0x712afa594a2a00b279a8d550375d672f01948afb5cd024cc7377b7b16c527bc1",
      "blockNumber": "0x723895",
      "gasUsed": "0x13af8",
      "effectiveGasPrice": "0x288e331",
      "from": "0xc77f7fed3b5cc8249adc428c5f44c9063b9734b4",
      "to": "0xd7bc75898e513accccf720a874d44dab5a4b6223",
      "contractAddress": null
    },
    {
      "status": "0x1",
      "cumulativeGasUsed": "0x6db316",
      "logs": [
        {
          "address": "0xd7bc75898e513accccf720a874d44dab5a4b6223",
          "topics": [
            "0xddf252ad1be2c89b69c2b068fc378daa952ba7f163c4a11628f55a4df523b3ef",
            "0x000000000000000000000000c77f7fed3b5cc8249adc428c5f44c9063b9734b4",
            "0x0000000000000000000000000000000000000000000000000000000000000000"
          ],
          "data": "0x000000000000000000000000000000000000000000000005621182de15501ad6",
          "blockHash": "0x712afa594a2a00b279a8d550375d672f01948afb5cd024cc7377b7b16c527bc1",
          "blockNumber": "0x723895",
          "transactionHash": "0xa89723ef8ea3b105691a9f3e2911a83e77b47666075d97396a1321cb3626ad79",
          "transactionIndex": "0x37",
          "logIndex": "0x51",
          "removed": false
        },
        {
          "address": "0xd7bc75898e513accccf720a874d44dab5a4b6223",
          "topics": [
            "0x4afcb4a87cdbd9974efdb92ee48bc8d7cd0ae4bf217004db3d080cbaee652ca7"
          ],
          "data": "0x000000000000000000000000000000000000000000000000000000006785984400000000000000000000000000000000000000000000000000038d7eaac180550000000000000000000000000000000000000000000000000160c9191a82ee6b",
          "blockHash": "0x712afa594a2a00b279a8d550375d672f01948afb5cd024cc7377b7b16c527bc1",
          "blockNumber": "0x723895",
          "transactionHash": "0xa89723ef8ea3b105691a9f3e2911a83e77b47666075d97396a1321cb3626ad79",
          "transactionIndex": "0x37",
          "logIndex": "0x52",
          "removed": false
        }
      ],
      "logsBloom": "0x00000000000000000000000000000000000000000000000000000000000000000000000000000000000000000000000000000000000000004000000000000000000000000000000000000008000000000000000000000000000000000000000000000000020000000000000000000800020000000000000000000010000000000000000000000000000000000000000000000000000000000000010000000000000000000000000000000000000000004000001000000000000000000000000000000002000000800000000000004000000000000000080000000000000020000000000000000000000000000000000000000000080000000000000000000000",
      "type": "0x2",
      "transactionHash": "0xa89723ef8ea3b105691a9f3e2911a83e77b47666075d97396a1321cb3626ad79",
      "transactionIndex": "0x37",
      "blockHash": "0x712afa594a2a00b279a8d550375d672f01948afb5cd024cc7377b7b16c527bc1",
      "blockNumber": "0x723895",
      "gasUsed": "0xfb93",
      "effectiveGasPrice": "0x288e331",
      "from": "0xc77f7fed3b5cc8249adc428c5f44c9063b9734b4",
      "to": "0xd7bc75898e513accccf720a874d44dab5a4b6223",
      "contractAddress": null
    }
  ],
  "libraries": [],
  "pending": [],
  "returns": {},
  "timestamp": 1736808516,
  "chain": 11155111,
  "commit": "51a374b"
}