{
  "transactions": [
    {
      "hash": "0x35bdf371d438a8be2009d0dfaaf23c0b8b61b735efdce92e328a8f119137d518",
      "transactionType": "CALL",
      "contractName": null,
      "contractAddress": "0xbf4a322f1496e5c3d34a9bcdb4c60567b38c7de2",
      "function": "sell(uint256)",
      "arguments": [
        "990571356040914574398"
      ],
      "transaction": {
        "from": "0xc77f7fed3b5cc8249adc428c5f44c9063b9734b4",
        "to": "0xbf4a322f1496e5c3d34a9bcdb4c60567b38c7de2",
        "gas": "0x16fea",
        "value": "0x0",
        "input": "0xe4849b32000000000000000000000000000000000000000000000035b2f0680c17b49c3e",
        "nonce": "0x90d",
        "chainId": "0xaa36a7"
      },
      "additionalContracts": [],
      "isFixedGasLimit": false
    }
  ],
  "receipts": [
    {
      "status": "0x1",
      "cumulativeGasUsed": "0xa36418",
      "logs": [
        {
          "address": "0xbf4a322f1496e5c3d34a9bcdb4c60567b38c7de2",
          "topics": [
            "0xddf252ad1be2c89b69c2b068fc378daa952ba7f163c4a11628f55a4df523b3ef",
            "0x000000000000000000000000c77f7fed3b5cc8249adc428c5f44c9063b9734b4",
            "0x0000000000000000000000000000000000000000000000000000000000000000"
          ],
          "data": "0x000000000000000000000000000000000000000000000035b2f0680c17b49c3e",
          "blockHash": "0x0ebc54f669d2f8e363cab6f59174bf3788bf834f5369c4872317370942289385",
          "blockNumber": "0x725889",
          "transactionHash": "0x35bdf371d438a8be2009d0dfaaf23c0b8b61b735efdce92e328a8f119137d518",
          "transactionIndex": "0x43",
          "logIndex": "0x5d",
          "removed": false
        },
        {
          "address": "0xbf4a322f1496e5c3d34a9bcdb4c60567b38c7de2",
          "topics": [
            "0x4afcb4a87cdbd9974efdb92ee48bc8d7cd0ae4bf217004db3d080cbaee652ca7"
          ],
          "data": "0x000000000000000000000000000000000000000000000000000000006787189800000000000000000000000000000000000000000000000000038fc0a8b2348a0000000000000000000000000000000000000000000000000dc7e3faa50a398d",
          "blockHash": "0x0ebc54f669d2f8e363cab6f59174bf3788bf834f5369c4872317370942289385",
          "blockNumber": "0x725889",
          "transactionHash": "0x35bdf371d438a8be2009d0dfaaf23c0b8b61b735efdce92e328a8f119137d518",
          "transactionIndex": "0x43",
          "logIndex": "0x5e",
          "removed": false
        }
      ],
      "logsBloom": "0x00000000000000000000000000000000000000000000000000000000000000000000000000000000000000000000000000000000000000004000000000000000000000000000000000000008000000000000001000000000000000000000000000000000020000000000000000000800020000000000000000000010000000000000000000000000000000000000000000000000000008000000010000000000000000000000000000000000000000004000000000000000000000000000000000000002000000800000000000001000000000000000080000000000000020000000000000000000000000000000000000000000000000000000000000000000",
      "type": "0x2",
      "transactionHash": "0x35bdf371d438a8be2009d0dfaaf23c0b8b61b735efdce92e328a8f119137d518",
      "transactionIndex": "0x43",
      "blockHash": "0x0ebc54f669d2f8e363cab6f59174bf3788bf834f5369c4872317370942289385",
      "blockNumber": "0x725889",
      "gasUsed": "0xfb91",
      "effectiveGasPrice": "0x35685be8",
      "from": "0xc77f7fed3b5cc8249adc428c5f44c9063b9734b4",
      "to": "0xbf4a322f1496e5c3d34a9bcdb4c60567b38c7de2",
      "contractAddress": null
    }
  ],
  "libraries": [],
  "pending": [],
  "returns": {},
  "timestamp": 1736906905,
  "chain": 11155111,
  "commit": "51a374b"
}