{
  "transactions": [
    {
      "hash": "0x93d6a48388eb2c16b8796021a3042f08d71c6810b0b080b5a8ad6839cfe21743",
      "transactionType": "CALL",
      "contractName": null,
      "contractAddress": "0x8aafd3ede9adb0ff97c7aebce82a919afb1c8764",
      "function": "sell(uint256)",
      "arguments": [
        "1487501"
      ],
      "transaction": {
        "from": "0xc77f7fed3b5cc8249adc428c5f44c9063b9734b4",
        "to": "0x8aafd3ede9adb0ff97c7aebce82a919afb1c8764",
        "gas": "0x16208",
        "value": "0x0",
        "input": "0xe4849b32000000000000000000000000000000000000000000000000000000000016b28d",
        "nonce": "0x108e",
        "chainId": "0xaa36a7"
      },
      "additionalContracts": [],
      "isFixedGasLimit": false
    }
  ],
  "receipts": [
    {
      "status": "0x1",
      "cumulativeGasUsed": "0xcba238",
      "logs": [
        {
          "address": "0x8aafd3ede9adb0ff97c7aebce82a919afb1c8764",
          "topics": [
            "0xddf252ad1be2c89b69c2b068fc378daa952ba7f163c4a11628f55a4df523b3ef",
            "0x000000000000000000000000c77f7fed3b5cc8249adc428c5f44c9063b9734b4",
            "0x0000000000000000000000000000000000000000000000000000000000000000"
          ],
          "data": "0x0000000000000000000000000000000000000000000000000000000000168411",
          "blockHash": "0x9855f7f2f6455a3ce51657c3a47c1a1defe5c471dd7bf8f2c24cdf5c3ccbdc90",
          "blockNumber": "0x73171b",
          "transactionHash": "0x93d6a48388eb2c16b8796021a3042f08d71c6810b0b080b5a8ad6839cfe21743",
          "transactionIndex": "0x90",
          "logIndex": "0x94",
          "removed": false
        },
        {
          "address": "0x8aafd3ede9adb0ff97c7aebce82a919afb1c8764",
          "topics": [
            "0xddf252ad1be2c89b69c2b068fc378daa952ba7f163c4a11628f55a4df523b3ef",
            "0x000000000000000000000000c77f7fed3b5cc8249adc428c5f44c9063b9734b4",
            "0x000000000000000000000000c77f7fed3b5cc8249adc428c5f44c9063b9734b4"
          ],
          "data": "0x0000000000000000000000000000000000000000000000000000000000002e7c",
          "blockHash": "0x9855f7f2f6455a3ce51657c3a47c1a1defe5c471dd7bf8f2c24cdf5c3ccbdc90",
          "blockNumber": "0x73171b",
          "transactionHash": "0x93d6a48388eb2c16b8796021a3042f08d71c6810b0b080b5a8ad6839cfe21743",
          "transactionIndex": "0x90",
          "logIndex": "0x95",
          "removed": false
        },
        {
          "address": "0x8aafd3ede9adb0ff97c7aebce82a919afb1c8764",
          "topics": [
            "0x4afcb4a87cdbd9974efdb92ee48bc8d7cd0ae4bf217004db3d080cbaee652ca7"
          ],
          "data": "0x00000000000000000000000000000000000000000000000000000000679012080000000000000000000000000000000000000000000000000004fabae4fcaab10000000000000000000000000000000000000000000000000000000000000824",
          "blockHash": "0x9855f7f2f6455a3ce51657c3a47c1a1defe5c471dd7bf8f2c24cdf5c3ccbdc90",
          "blockNumber": "0x73171b",
          "transactionHash": "0x93d6a48388eb2c16b8796021a3042f08d71c6810b0b080b5a8ad6839cfe21743",
          "transactionIndex": "0x90",
          "logIndex": "0x96",
          "removed": false
        }
      ],
      "logsBloom": "0x00000000000000000000000000000000000000000600000000000000000000000000000000000000000000000000000000000000000000004000000000000000000000000000004000000008000000000000000000000000000000000000000000000000020000000000000000000800020000000000000000000010000000000000000000000000000000000000000000000000000000000000010000000000000000000000000000000000000000004000000000000000000000000000000000000002000000800000000000000000000000000000080000000000000020000000000000000000000000000000000000000000000000000000000000000000",
      "type": "0x2",
      "transactionHash": "0x93d6a48388eb2c16b8796021a3042f08d71c6810b0b080b5a8ad6839cfe21743",
      "transactionIndex": "0x90",
      "blockHash": "0x9855f7f2f6455a3ce51657c3a47c1a1defe5c471dd7bf8f2c24cdf5c3ccbdc90",
      "blockNumber": "0x73171b",
      "gasUsed": "0xf213",
      "effectiveGasPrice": "0x43baabd7",
      "from": "0xc77f7fed3b5cc8249adc428c5f44c9063b9734b4",
      "to": "0x8aafd3ede9adb0ff97c7aebce82a919afb1c8764",
      "contractAddress": null
    }
  ],
  "libraries": [],
  "pending": [],
  "returns": {},
  "timestamp": 1737495049,
  "chain": 11155111,
  "commit": "1d2fb70"
}