{
  "transactions": [
    {
      "hash": "0x0feeb1945818b062f1889e841ff3979c26be00249a0fda226bd4722bcac96f55",
      "transactionType": "CALL",
      "contractName": null,
      "contractAddress": "0xbf4a322f1496e5c3d34a9bcdb4c60567b38c7de2",
      "function": "sell(uint256)",
      "arguments": [
        "987208253448060823375"
      ],
      "transaction": {
        "from": "0xc77f7fed3b5cc8249adc428c5f44c9063b9734b4",
        "to": "0xbf4a322f1496e5c3d34a9bcdb4c60567b38c7de2",
        "gas": "0x16fea",
        "value": "0x0",
        "input": "0xe4849b320000000000000000000000000000000000000000000000358444440eb976674f",
        "nonce": "0xa03",
        "chainId": "0xaa36a7"
      },
      "additionalContracts": [],
      "isFixedGasLimit": false
    }
  ],
  "receipts": [
    {
      "status": "0x1",
      "cumulativeGasUsed": "0xe9506e",
      "logs": [
        {
          "address": "0xbf4a322f1496e5c3d34a9bcdb4c60567b38c7de2",
          "topics": [
            "0xddf252ad1be2c89b69c2b068fc378daa952ba7f163c4a11628f55a4df523b3ef",
            "0x000000000000000000000000c77f7fed3b5cc8249adc428c5f44c9063b9734b4",
            "0x0000000000000000000000000000000000000000000000000000000000000000"
          ],
          "data": "0x0000000000000000000000000000000000000000000000358444440eb976674f",
          "blockHash": "0x6eef70dc3ee386ccfa7ae162b0ef7320730ea7015712cfb76c6155ae4500e4b7",
          "blockNumber": "0x7259bf",
          "transactionHash": "0x0feeb1945818b062f1889e841ff3979c26be00249a0fda226bd4722bcac96f55",
          "transactionIndex": "0x66",
          "logIndex": "0xca",
          "removed": false
        },
        {
          "address": "0xbf4a322f1496e5c3d34a9bcdb4c60567b38c7de2",
          "topics": [
            "0x4afcb4a87cdbd9974efdb92ee48bc8d7cd0ae4bf217004db3d080cbaee652ca7"
          ],
          "data": "0x0000000000000000000000000000000000000000000000000000000067872738000000000000000000000000000000000000000000000000000392dbc91ab1e60000000000000000000000000000000000000000000000000dc7e3f2d3584405",
          "blockHash": "0x6eef70dc3ee386ccfa7ae162b0ef7320730ea7015712cfb76c6155ae4500e4b7",
          "blockNumber": "0x7259bf",
          "transactionHash": "0x0feeb1945818b062f1889e841ff3979c26be00249a0fda226bd4722bcac96f55",
          "transactionIndex": "0x66",
          "logIndex": "0xcb",
          "removed": false
        }
      ],
      "logsBloom": "0x00000000000000000000000000000000000000000000000000000000000000000000000000000000000000000000000000000000000000004000000000000000000000000000000000000008000000000000001000000000000000000000000000000000020000000000000000000800020000000000000000000010000000000000000000000000000000000000000000000000000008000000010000000000000000000000000000000000000000004000000000000000000000000000000000000002000000800000000000001000000000000000080000000000000020000000000000000000000000000000000000000000000000000000000000000000",
      "type": "0x2",
      "transactionHash": "0x0feeb1945818b062f1889e841ff3979c26be00249a0fda226bd4722bcac96f55",
      "transactionIndex": "0x66",
      "blockHash": "0x6eef70dc3ee386ccfa7ae162b0ef7320730ea7015712cfb76c6155ae4500e4b7",
      "blockNumber": "0x7259bf",
      "gasUsed": "0xfb91",
      "effectiveGasPrice": "0x38848d464",
      "from": "0xc77f7fed3b5cc8249adc428c5f44c9063b9734b4",
      "to": "0xbf4a322f1496e5c3d34a9bcdb4c60567b38c7de2",
      "contractAddress": null
    }
  ],
  "libraries": [],
  "pending": [],
  "returns": {},
  "timestamp": 1736910650,
  "chain": 11155111,
  "commit": "51a374b"
}