{
  "transactions": [
    {
      "hash": "0xb9c1e8119b5670ef3304fedd8cdc89646852aa514eccc659994782f97f0a8bc0",
      "transactionType": "CALL",
      "contractName": null,
      "contractAddress": "0x8aafd3ede9adb0ff97c7aebce82a919afb1c8764",
      "function": "sell(uint256)",
      "arguments": [
        "12737626865787506"
      ],
      "transaction": {
        "from": "0xc77f7fed3b5cc8249adc428c5f44c9063b9734b4",
        "to": "0x8aafd3ede9adb0ff97c7aebce82a919afb1c8764",
        "gas": "0x1724d",
        "value": "0x0",
        "input": "0xe4849b32000000000000000000000000000000000000000000000000002d40cddc9de272",
        "nonce": "0x1540",
        "chainId": "0xaa36a7"
      },
      "additionalContracts": [],
      "isFixedGasLimit": false
    }
  ],
  "receipts": [
    {
      "status": "0x1",
      "cumulativeGasUsed": "0xd2081a",
      "logs": [
        {
          "address": "0x8aafd3ede9adb0ff97c7aebce82a919afb1c8764",
          "topics": [
            "0xddf252ad1be2c89b69c2b068fc378daa952ba7f163c4a11628f55a4df523b3ef",
            "0x000000000000000000000000c77f7fed3b5cc8249adc428c5f44c9063b9734b4",
            "0x0000000000000000000000000000000000000000000000000000000000000000"
          ],
          "data": "0x000000000000000000000000000000000000000000000000002ce4202ed1de96",
          "blockHash": "0xa2c80dee4f60cd5d140cfec22a076bd5c7f08cd659db2b9cdbc3cccf9f40c9a6",
          "blockNumber": "0x731ca4",
          "transactionHash": "0xb9c1e8119b5670ef3304fedd8cdc89646852aa514eccc659994782f97f0a8bc0",
          "transactionIndex": "0x5d",
          "logIndex": "0xb0",
          "removed": false
        },
        {
          "address": "0x8aafd3ede9adb0ff97c7aebce82a919afb1c8764",
          "topics": [
            "0xddf252ad1be2c89b69c2b068fc378daa952ba7f163c4a11628f55a4df523b3ef",
            "0x000000000000000000000000c77f7fed3b5cc8249adc428c5f44c9063b9734b4",
            "0x000000000000000000000000c77f7fed3b5cc8249adc428c5f44c9063b9734b4"
          ],
          "data": "0x00000000000000000000000000000000000000000000000000005cadadcc03dc",
          "blockHash": "0xa2c80dee4f60cd5d140cfec22a076bd5c7f08cd659db2b9cdbc3cccf9f40c9a6",
          "blockNumber": "0x731ca4",
          "transactionHash": "0xb9c1e8119b5670ef3304fedd8cdc89646852aa514eccc659994782f97f0a8bc0",
          "transactionIndex": "0x5d",
          "logIndex": "0xb1",
          "removed": false
        },
        {
          "address": "0x8aafd3ede9adb0ff97c7aebce82a919afb1c8764",
          "topics": [
            "0x4afcb4a87cdbd9974efdb92ee48bc8d7cd0ae4bf217004db3d080cbaee652ca7"
          ],
          "data": "0x000000000000000000000000000000000000000000000000000000006790548c0000000000000000000000000000000000000000000000000011d45ef786661300000000000000000000000000000000000000000000000000003a23a5186a70",
          "blockHash": "0xa2c80dee4f60cd5d140cfec22a076bd5c7f08cd659db2b9cdbc3cccf9f40c9a6",
          "blockNumber": "0x731ca4",
          "transactionHash": "0xb9c1e8119b5670ef3304fedd8cdc89646852aa514eccc659994782f97f0a8bc0",
          "transactionIndex": "0x5d",
          "logIndex": "0xb2",
          "removed": false
        }
      ],
      "logsBloom": "0x00000000000000000000000000000000000000000600000000000000000000000000000000000000000000000000000000000000000000004000000000000000000000000000004000000008000000000000000000000000000000000000000000000000020000000000000000000800020000000000000000000010000000000000000000000000000000000000000000000000000000000000010000000000000000000000000000000000000000004000000000000000000000000000000000000002000000800000000000000000000000000000080000000000000020000000000000000000000000000000000000000000000000000000000000000000",
      "type": "0x2",
      "transactionHash": "0xb9c1e8119b5670ef3304fedd8cdc89646852aa514eccc659994782f97f0a8bc0",
      "transactionIndex": "0x5d",
      "blockHash": "0xa2c80dee4f60cd5d140cfec22a076bd5c7f08cd659db2b9cdbc3cccf9f40c9a6",
      "blockNumber": "0x731ca4",
      "gasUsed": "0xfd33",
      "effectiveGasPrice": "0xe39906f2",
      "from": "0xc77f7fed3b5cc8249adc428c5f44c9063b9734b4",
      "to": "0x8aafd3ede9adb0ff97c7aebce82a919afb1c8764",
      "contractAddress": null
    }
  ],
  "libraries": [],
  "pending": [],
  "returns": {},
  "timestamp": 1737512077,
  "chain": 11155111,
  "commit": "1d2fb70"
}