{
  "transactions": [
    {
      "hash": "0x9bdaf9769a557316c69aa16b9871df766b5c5c07e90d9fd088d70f75b27aa6cd",
      "transactionType": "CALL",
      "contractName": null,
      "contractAddress": "0x270e88f8683660553e8ba4eb2ad7c91a1710d769",
      "function": "buy(address)",
      "arguments": [
        "0xC77f7fed3b5Cc8249aDc428c5F44C9063B9734b4"
      ],
      "transaction": {
        "from": "0xc77f7fed3b5cc8249adc428c5f44c9063b9734b4",
        "to": "0x270e88f8683660553e8ba4eb2ad7c91a1710d769",
        "gas": "0x1b30c",
        "value": "0xde0b6b3a7640000",
        "input": "0xf088d547000000000000000000000000c77f7fed3b5cc8249adc428c5f44c9063b9734b4",
        "nonce": "0x843",
        "chainId": "0xaa36a7"
      },
      "additionalContracts": [],
      "isFixedGasLimit": false
    }
  ],
  "receipts": [
    {
      "status": "0x1",
      "cumulativeGasUsed": "0x8d59bf",
      "logs": [
        {
          "address": "0x270e88f8683660553e8ba4eb2ad7c91a1710d769",
          "topics": [
            "0xddf252ad1be2c89b69c2b068fc378daa952ba7f163c4a11628f55a4df523b3ef",
            "0x0000000000000000000000000000000000000000000000000000000000000000",
            "0x000000000000000000000000c77f7fed3b5cc8249adc428c5f44c9063b9734b4"
          ],
          "data": "0x000000000000000000000000000000000000000000000026c3289b08230628c1",
          "blockHash": "0xf016aa4650d36bb79b47ff7ca0d4de1ab16ebdf528e177f3e3f35e9835419682",
          "blockNumber": "0x725590",
          "transactionHash": "0x9bdaf9769a557316c69aa16b9871df766b5c5c07e90d9fd088d70f75b27aa6cd",
          "transactionIndex": "0x4d",
          "logIndex": "0x78",
          "removed": false
        },
        {
          "address": "0x270e88f8683660553e8ba4eb2ad7c91a1710d769",
          "topics": [
            "0xddf252ad1be2c89b69c2b068fc378daa952ba7f163c4a11628f55a4df523b3ef",
            "0x0000000000000000000000000000000000000000000000000000000000000000",
            "0x000000000000000000000000c77f7fed3b5cc8249adc428c5f44c9063b9734b4"
          ],
          "data": "0x0000000000000000000000000000000000000000000000001e19abd000f9d861",
          "blockHash": "0xf016aa4650d36bb79b47ff7ca0d4de1ab16ebdf528e177f3e3f35e9835419682",
          "blockNumber": "0x725590",
          "transactionHash": "0x9bdaf9769a557316c69aa16b9871df766b5c5c07e90d9fd088d70f75b27aa6cd",
          "transactionIndex": "0x4d",
          "logIndex": "0x79",
          "removed": false
        },
        {
          "address": "0x270e88f8683660553e8ba4eb2ad7c91a1710d769",
          "topics": [
            "0x4afcb4a87cdbd9974efdb92ee48bc8d7cd0ae4bf217004db3d080cbaee652ca7"
          ],
          "data": "0x000000000000000000000000000000000000000000000000000000006786f4c80000000000000000000000000000000000000000000000000004eb562b103e9c0000000000000000000000000000000000000000000000000de0b6b3a7640000",
          "blockHash": "0xf016aa4650d36bb79b47ff7ca0d4de1ab16ebdf528e177f3e3f35e9835419682",
          "blockNumber": "0x725590",
          "transactionHash": "0x9bdaf9769a557316c69aa16b9871df766b5c5c07e90d9fd088d70f75b27aa6cd",
          "transactionIndex": "0x4d",
          "logIndex": "0x7a",
          "removed": false
        }
      ],
      "logsBloom": "0x00000000000000000000000000000000000000000000000000000000000000000000000000000000000000000000000020000000000000004000000000000000000000000000000000000008000000000000000000000000000000000000000000000000020000000000000000000800020000000000000000000010000000000000000000010000000000000000000000000000000000000000010000000000000000000000000000000000000000004000000000000000000000000000000000000002000000800000000000000000000000000000080000008000000020000000000000000000000000000000000000000000000000000000000000000000",
      "type": "0x2",
      "transactionHash": "0x9bdaf9769a557316c69aa16b9871df766b5c5c07e90d9fd088d70f75b27aa6cd",
      "transactionIndex": "0x4d",
      "blockHash": "0xf016aa4650d36bb79b47ff7ca0d4de1ab16ebdf528e177f3e3f35e9835419682",
      "blockNumber": "0x725590",
      "gasUsed": "0x13af8",
      "effectiveGasPrice": "0x6a2c742e",
      "from": "0xc77f7fed3b5cc8249adc428c5f44c9063b9734b4",
      "to": "0x270e88f8683660553e8ba4eb2ad7c91a1710d769",
      "contractAddress": null
    }
  ],
  "libraries": [],
  "pending": [],
  "returns": {},
  "timestamp": 1736897738,
  "chain": 11155111,
  "commit": "51a374b"
}