{
  "transactions": [
    {
      "hash": "0x9560abef662a175403779e8130398609ac4f627a4de91fa9069ddbe4d7ec7928",
      "transactionType": "CALL",
      "contractName": null,
      "contractAddress": "0x8aafd3ede9adb0ff97c7aebce82a919afb1c8764",
      "function": "sell(uint256)",
      "arguments": [
        "5924689616095791744"
      ],
      "transaction": {
        "from": "0xc77f7fed3b5cc8249adc428c5f44c9063b9734b4",
        "to": "0x8aafd3ede9adb0ff97c7aebce82a919afb1c8764",
        "gas": "0x15dca",
        "value": "0x0",
        "input": "0xe4849b320000000000000000000000000000000000000000000000005238b9d0c3d5ca80",
        "nonce": "0xfae",
        "chainId": "0xaa36a7"
      },
      "additionalContracts": [],
      "isFixedGasLimit": false
    }
  ],
  "receipts": [
    {
      "status": "0x1",
      "cumulativeGasUsed": "0xe2093b",
      "logs": [
        {
          "address": "0x8aafd3ede9adb0ff97c7aebce82a919afb1c8764",
          "topics": [
            "0xddf252ad1be2c89b69c2b068fc378daa952ba7f163c4a11628f55a4df523b3ef",
            "0x000000000000000000000000c77f7fed3b5cc8249adc428c5f44c9063b9734b4",
            "0x0000000000000000000000000000000000000000000000000000000000000000"
          ],
          "data": "0x00000000000000000000000000000000000000000000000051905606640f7903",
          "blockHash": "0xb120b206fb49cae5c169df5922b846471219906c0de7133dba1934a25b5c715e",
          "blockNumber": "0x731618",
          "transactionHash": "0x9560abef662a175403779e8130398609ac4f627a4de91fa9069ddbe4d7ec7928",
          "transactionIndex": "0x8c",
          "logIndex": "0xd6",
          "removed": false
        },
        {
          "address": "0x8aafd3ede9adb0ff97c7aebce82a919afb1c8764",
          "topics": [
            "0xddf252ad1be2c89b69c2b068fc378daa952ba7f163c4a11628f55a4df523b3ef",
            "0x000000000000000000000000c77f7fed3b5cc8249adc428c5f44c9063b9734b4",
            "0x000000000000000000000000c77f7fed3b5cc8249adc428c5f44c9063b9734b4"
          ],
          "data": "0x00000000000000000000000000000000000000000000000000a863ca5fc6517d",
          "blockHash": "0xb120b206fb49cae5c169df5922b846471219906c0de7133dba1934a25b5c715e",
          "blockNumber": "0x731618",
          "transactionHash": "0x9560abef662a175403779e8130398609ac4f627a4de91fa9069ddbe4d7ec7928",
          "transactionIndex": "0x8c",
          "logIndex": "0xd7",
          "removed": false
        },
        {
          "address": "0x8aafd3ede9adb0ff97c7aebce82a919afb1c8764",
          "topics": [
            "0x4afcb4a87cdbd9974efdb92ee48bc8d7cd0ae4bf217004db3d080cbaee652ca7"
          ],
          "data": "0x00000000000000000000000000000000000000000000000000000000679005cc0000000000000000000000000000000000000000000000000004c3cf23134c85000000000000000000000000000000000000000000000000001c3afac18f0f09",
          "blockHash": "0xb120b206fb49cae5c169df5922b846471219906c0de7133dba1934a25b5c715e",
          "blockNumber": "0x731618",
          "transactionHash": "0x9560abef662a175403779e8130398609ac4f627a4de91fa9069ddbe4d7ec7928",
          "transactionIndex": "0x8c",
          "logIndex": "0xd8",
          "removed": false
        }
      ],
      "logsBloom": "0x00000000000000000000000000000000000000000600000000000000000000000000000000000000000000000000000000000000000000004000000000000000000000000000004000000008000000000000000000000000000000000000000000000000020000000000000000000800020000000000000000000010000000000000000000000000000000000000000000000000000000000000010000000000000000000000000000000000000000004000000000000000000000000000000000000002000000800000000000000000000000000000080000000000000020000000000000000000000000000000000000000000000000000000000000000000",
      "type": "0x2",
      "transactionHash": "0x9560abef662a175403779e8130398609ac4f627a4de91fa9069ddbe4d7ec7928",
      "transactionIndex": "0x8c",
      "blockHash": "0xb120b206fb49cae5c169df5922b846471219906c0de7133dba1934a25b5c715e",
      "blockNumber": "0x731618",
      "gasUsed": "0xfd3f",
      "effectiveGasPrice": "0x60860911",
      "from": "0xc77f7fed3b5cc8249adc428c5f44c9063b9734b4",
      "to": "0x8aafd3ede9adb0ff97c7aebce82a919afb1c8764",
      "contractAddress": null
    }
  ],
  "libraries": [],
  "pending": [],
  "returns": {},
  "timestamp": 1737491917,
  "chain": 11155111,
  "commit": "1d2fb70"
}