{
  "transactions": [
    {
      "hash": "0x2d3bff5bf356bcbd256feb330d3ecd1b3e5a3a4d3c4e735169a356bd171e04e4",
      "transactionType": "CALL",
      "contractName": null,
      "contractAddress": "0x270e88f8683660553e8ba4eb2ad7c91a1710d769",
      "function": "sell(uint256)",
      "arguments": [
        "745116841192794189123"
      ],
      "transaction": {
        "from": "0xc77f7fed3b5cc8249adc428c5f44c9063b9734b4",
        "to": "0x270e88f8683660553e8ba4eb2ad7c91a1710d769",
        "gas": "0x16fec",
        "value": "0x0",
        "input": "0xe4849b320000000000000000000000000000000000000000000000286492cb4441a56d43",
        "nonce": "0x702",
        "chainId": "0xaa36a7"
      },
      "additionalContracts": [],
      "isFixedGasLimit": false
    }
  ],
  "receipts": [
    {
      "status": "0x1",
      "cumulativeGasUsed": "0x1b16f8f",
      "logs": [
        {
          "address": "0x270e88f8683660553e8ba4eb2ad7c91a1710d769",
          "topics": [
            "0xddf252ad1be2c89b69c2b068fc378daa952ba7f163c4a11628f55a4df523b3ef",
            "0x000000000000000000000000c77f7fed3b5cc8249adc428c5f44c9063b9734b4",
            "0x0000000000000000000000000000000000000000000000000000000000000000"
          ],
          "data": "0x0000000000000000000000000000000000000000000000286492cb4441a56d43",
          "blockHash": "0x029616b2b5eb090cb433a0cfaf5cc2b5939d456dc4b40081076cb3d10bc53e32",
          "blockNumber": "0x725418",
          "transactionHash": "0x2d3bff5bf356bcbd256feb330d3ecd1b3e5a3a4d3c4e735169a356bd171e04e4",
          "transactionIndex": "0x74",
          "logIndex": "0x294",
          "removed": false
        },
        {
          "address": "0x270e88f8683660553e8ba4eb2ad7c91a1710d769",
          "topics": [
            "0x4afcb4a87cdbd9974efdb92ee48bc8d7cd0ae4bf217004db3d080cbaee652ca7"
          ],
          "data": "0x000000000000000000000000000000000000000000000000000000006786e3280000000000000000000000000000000000000000000000000004bc5bf2b9cf9a0000000000000000000000000000000000000000000000000dc8290787b8f3ad",
          "blockHash": "0x029616b2b5eb090cb433a0cfaf5cc2b5939d456dc4b40081076cb3d10bc53e32",
          "blockNumber": "0x725418",
          "transactionHash": "0x2d3bff5bf356bcbd256feb330d3ecd1b3e5a3a4d3c4e735169a356bd171e04e4",
          "transactionIndex": "0x74",
          "logIndex": "0x295",
          "removed": false
        }
      ],
      "logsBloom": "0x00000000000000000000000000000000000000000000000000000000000000000000000000000000000000000000000020000000000000004000000000000000000000000000000000000008000000000000000000000000000000000000000000000000020000000000000000000800020000000000000000000010000000000000000000010000000000000000000000000000000000000000010000000000000000000000000000000000000000004000000000000000000000000000000000000002000000800000000000000000000000000000080000008000000020000000000000000000000000000000000000000000000000000000000000000000",
      "type": "0x2",
      "transactionHash": "0x2d3bff5bf356bcbd256feb330d3ecd1b3e5a3a4d3c4e735169a356bd171e04e4",
      "transactionIndex": "0x74",
      "blockHash": "0x029616b2b5eb090cb433a0cfaf5cc2b5939d456dc4b40081076cb3d10bc53e32",
      "blockNumber": "0x725418",
      "gasUsed": "0xfb93",
      "effectiveGasPrice": "0x12b74172d",
      "from": "0xc77f7fed3b5cc8249adc428c5f44c9063b9734b4",
      "to": "0x270e88f8683660553e8ba4eb2ad7c91a1710d769",
      "contractAddress": null
    }
  ],
  "libraries": [],
  "pending": [],
  "returns": {},
  "timestamp": 1736893225,
  "chain": 11155111,
  "commit": "51a374b"
}