{
  "transactions": [
    {
      "hash": "0xc1a6f63b539645f9e548a3f628289acd7b1eb87f1b72dff3b228b754d06b96dd",
      "transactionType": "CALL",
      "contractName": null,
      "contractAddress": "0xbf4a322f1496e5c3d34a9bcdb4c60567b38c7de2",
      "function": "sell(uint256)",
      "arguments": [
        "985087358329936087121"
      ],
      "transaction": {
        "from": "0xc77f7fed3b5cc8249adc428c5f44c9063b9734b4",
        "to": "0xbf4a322f1496e5c3d34a9bcdb4c60567b38c7de2",
        "gas": "0x16fea",
        "value": "0x0",
        "input": "0xe4849b3200000000000000000000000000000000000000000000003566d5552f3fc70851",
        "nonce": "0xa9f",
        "chainId": "0xaa36a7"
      },
      "additionalContracts": [],
      "isFixedGasLimit": false
    }
  ],
  "receipts": [
    {
      "status": "0x1",
      "cumulativeGasUsed": "0xd93847",
      "logs": [
        {
          "address": "0xbf4a322f1496e5c3d34a9bcdb4c60567b38c7de2",
          "topics": [
            "0xddf252ad1be2c89b69c2b068fc378daa952ba7f163c4a11628f55a4df523b3ef",
            "0x000000000000000000000000c77f7fed3b5cc8249adc428c5f44c9063b9734b4",
            "0x0000000000000000000000000000000000000000000000000000000000000000"
          ],
          "data": "0x00000000000000000000000000000000000000000000003566d5552f3fc70851",
          "blockHash": "0xf229e30fe7f546579e44a510863c9eb050df2c5ab138ae6cc7443d61308a9556",
          "blockNumber": "0x725a87",
          "transactionHash": "0xc1a6f63b539645f9e548a3f628289acd7b1eb87f1b72dff3b228b754d06b96dd",
          "transactionIndex": "0x54",
          "logIndex": "0xbd",
          "removed": false
        },
        {
          "address": "0xbf4a322f1496e5c3d34a9bcdb4c60567b38c7de2",
          "topics": [
            "0x4afcb4a87cdbd9974efdb92ee48bc8d7cd0ae4bf217004db3d080cbaee652ca7"
          ],
          "data": "0x00000000000000000000000000000000000000000000000000000000678730a4000000000000000000000000000000000000000000000000000394d4034c8dc80000000000000000000000000000000000000000000000000dc7e3ede4fe31bf",
          "blockHash": "0xf229e30fe7f546579e44a510863c9eb050df2c5ab138ae6cc7443d61308a9556",
          "blockNumber": "0x725a87",
          "transactionHash": "0xc1a6f63b539645f9e548a3f628289acd7b1eb87f1b72dff3b228b754d06b96dd",
          "transactionIndex": "0x54",
          "logIndex": "0xbe",
          "removed": false
        }
      ],
      "logsBloom": "0x00000000000000000000000000000000000000000000000000000000000000000000000000000000000000000000000000000000000000004000000000000000000000000000000000000008000000000000001000000000000000000000000000000000020000000000000000000800020000000000000000000010000000000000000000000000000000000000000000000000000008000000010000000000000000000000000000000000000000004000000000000000000000000000000000000002000000800000000000001000000000000000080000000000000020000000000000000000000000000000000000000000000000000000000000000000",
      "type": "0x2",
      "transactionHash": "0xc1a6f63b539645f9e548a3f628289acd7b1eb87f1b72dff3b228b754d06b96dd",
      "transactionIndex": "0x54",
      "blockHash": "0xf229e30fe7f546579e44a510863c9eb050df2c5ab138ae6cc7443d61308a9556",
      "blockNumber": "0x725a87",
      "gasUsed": "0xfb91",
      "effectiveGasPrice": "0x1d18d063d",
      "from": "0xc77f7fed3b5cc8249adc428c5f44c9063b9734b4",
      "to": "0xbf4a322f1496e5c3d34a9bcdb4c60567b38c7de2",
      "contractAddress": null
    }
  ],
  "libraries": [],
  "pending": [],
  "returns": {},
  "timestamp": 1736913062,
  "chain": 11155111,
  "commit": "51a374b"
}