{
  "transactions": [
    {
      "hash": "0x8030986b40f25f33a5e4f7bfac5befd733dd681c48bd9822e9a52a6a37aa9dc2",
      "transactionType": "CALL",
      "contractName": null,
      "contractAddress": "0xbf4a322f1496e5c3d34a9bcdb4c60567b38c7de2",
      "function": "sell(uint256)",
      "arguments": [
        "975255925463179323024"
      ],
      "transaction": {
        "from": "0xc77f7fed3b5cc8249adc428c5f44c9063b9734b4",
        "to": "0xbf4a322f1496e5c3d34a9bcdb4c60567b38c7de2",
        "gas": "0x16fea",
        "value": "0x0",
        "input": "0xe4849b32000000000000000000000000000000000000000000000034de651114d7a3e690",
        "nonce": "0xd7b",
        "chainId": "0xaa36a7"
      },
      "additionalContracts": [],
      "isFixedGasLimit": false
    }
  ],
  "receipts": [
    {
      "status": "0x1",
      "cumulativeGasUsed": "0xcce765",
      "logs": [
        {
          "address": "0xbf4a322f1496e5c3d34a9bcdb4c60567b38c7de2",
          "topics": [
            "0xddf252ad1be2c89b69c2b068fc378daa952ba7f163c4a11628f55a4df523b3ef",
            "0x000000000000000000000000c77f7fed3b5cc8249adc428c5f44c9063b9734b4",
            "0x0000000000000000000000000000000000000000000000000000000000000000"
          ],
          "data": "0x000000000000000000000000000000000000000000000034de651114d7a3e690",
          "blockHash": "0xfeb0aa6bb0069eef7e4e4f6a874daa5220248f7219db041aaac931c23e27bb5b",
          "blockNumber": "0x72664a",
          "transactionHash": "0x8030986b40f25f33a5e4f7bfac5befd733dd681c48bd9822e9a52a6a37aa9dc2",
          "transactionIndex": "0x66",
          "logIndex": "0x97",
          "removed": false
        },
        {
          "address": "0xbf4a322f1496e5c3d34a9bcdb4c60567b38c7de2",
          "topics": [
            "0x4afcb4a87cdbd9974efdb92ee48bc8d7cd0ae4bf217004db3d080cbaee652ca7"
          ],
          "data": "0x000000000000000000000000000000000000000000000000000000006787be2800000000000000000000000000000000000000000000000000039e120284e7a70000000000000000000000000000000000000000000000000dc7e3d7093f3c37",
          "blockHash": "0xfeb0aa6bb0069eef7e4e4f6a874daa5220248f7219db041aaac931c23e27bb5b",
          "blockNumber": "0x72664a",
          "transactionHash": "0x8030986b40f25f33a5e4f7bfac5befd733dd681c48bd9822e9a52a6a37aa9dc2",
          "transactionIndex": "0x66",
          "logIndex": "0x98",
          "removed": false
        }
      ],
      "logsBloom": "0x00000000000000000000000000000000000000000000000000000000000000000000000000000000000000000000000000000000000000004000000000000000000000000000000000000008000000000000001000000000000000000000000000000000020000000000000000000800020000000000000000000010000000000000000000000000000000000000000000000000000008000000010000000000000000000000000000000000000000004000000000000000000000000000000000000002000000800000000000001000000000000000080000000000000020000000000000000000000000000000000000000000000000000000000000000000",
      "type": "0x2",
      "transactionHash": "0x8030986b40f25f33a5e4f7bfac5befd733dd681c48bd9822e9a52a6a37aa9dc2",
      "transactionIndex": "0x66",
      "blockHash": "0xfeb0aa6bb0069eef7e4e4f6a874daa5220248f7219db041aaac931c23e27bb5b",
      "blockNumber": "0x72664a",
      "gasUsed": "0xfb91",
      "effectiveGasPrice": "0x901cd99f",
      "from": "0xc77f7fed3b5cc8249adc428c5f44c9063b9734b4",
      "to": "0xbf4a322f1496e5c3d34a9bcdb4c60567b38c7de2",
      "contractAddress": null
    }
  ],
  "libraries": [],
  "pending": [],
  "returns": {},
  "timestamp": 1736949288,
  "chain": 11155111,
  "commit": "51a374b"
}