{
  "transactions": [
    {
      "hash": "0x5347af93a5e028339686bae5c24f2205abacaffabec196e6dc3c0700d70ca549",
      "transactionType": "CALL",
      "contractName": null,
      "contractAddress": "0x8aafd3ede9adb0ff97c7aebce82a919afb1c8764",
      "function": "sell(uint256)",
      "arguments": [
        "351529760243941"
      ],
      "transaction": {
        "from": "0xc77f7fed3b5cc8249adc428c5f44c9063b9734b4",
        "to": "0x8aafd3ede9adb0ff97c7aebce82a919afb1c8764",
        "gas": "0x1724d",
        "value": "0x0",
        "input": "0xe4849b3200000000000000000000000000000000000000000000000000013fb6e67cc0e5",
        "nonce": "0x11ac",
        "chainId": "0xaa36a7"
      },
      "additionalContracts": [],
      "isFixedGasLimit": false
    }
  ],
  "receipts": [
    {
      "status": "0x1",
      "cumulativeGasUsed": "0x162e517",
      "logs": [
        {
          "address": "0x8aafd3ede9adb0ff97c7aebce82a919afb1c8764",
          "topics": [
            "0xddf252ad1be2c89b69c2b068fc378daa952ba7f163c4a11628f55a4df523b3ef",
            "0x000000000000000000000000c77f7fed3b5cc8249adc428c5f44c9063b9734b4",
            "0x0000000000000000000000000000000000000000000000000000000000000000"
          ],
          "data": "0x00000000000000000000000000000000000000000000000000013d2820091146",
          "blockHash": "0xd3658f526d506cde62096845f864ffd79b389efb7b6c575e14bdac808fadb885",
          "blockNumber": "0x731877",
          "transactionHash": "0x5347af93a5e028339686bae5c24f2205abacaffabec196e6dc3c0700d70ca549",
          "transactionIndex": "0xbc",
          "logIndex": "0x152",
          "removed": false
        },
        {
          "address": "0x8aafd3ede9adb0ff97c7aebce82a919afb1c8764",
          "topics": [
            "0xddf252ad1be2c89b69c2b068fc378daa952ba7f163c4a11628f55a4df523b3ef",
            "0x000000000000000000000000c77f7fed3b5cc8249adc428c5f44c9063b9734b4",
            "0x000000000000000000000000c77f7fed3b5cc8249adc428c5f44c9063b9734b4"
          ],
          "data": "0x0000000000000000000000000000000000000000000000000000028ec673af9f",
          "blockHash": "0xd3658f526d506cde62096845f864ffd79b389efb7b6c575e14bdac808fadb885",
          "blockNumber": "0x731877",
          "transactionHash": "0x5347af93a5e028339686bae5c24f2205abacaffabec196e6dc3c0700d70ca549",
          "transactionIndex": "0xbc",
          "logIndex": "0x153",
          "removed": false
        },
        {
          "address": "0x8aafd3ede9adb0ff97c7aebce82a919afb1c8764",
          "topics": [
            "0x4afcb4a87cdbd9974efdb92ee48bc8d7cd0ae4bf217004db3d080cbaee652ca7"
          ],
          "data": "0x0000000000000000000000000000000000000000000000000000000067902264000000000000000000000000000000000000000000000000000524daed3460ad000000000000000000000000000000000000000000000000000000768184949b",
          "blockHash": "0xd3658f526d506cde62096845f864ffd79b389efb7b6c575e14bdac808fadb885",
          "blockNumber": "0x731877",
          "transactionHash": "0x5347af93a5e028339686bae5c24f2205abacaffabec196e6dc3c0700d70ca549",
          "transactionIndex": "0xbc",
          "logIndex": "0x154",
          "removed": false
        }
      ],
      "logsBloom": "0x00000000000000000000000000000000000000000600000000000000000000000000000000000000000000000000000000000000000000004000000000000000000000000000004000000008000000000000000000000000000000000000000000000000020000000000000000000800020000000000000000000010000000000000000000000000000000000000000000000000000000000000010000000000000000000000000000000000000000004000000000000000000000000000000000000002000000800000000000000000000000000000080000000000000020000000000000000000000000000000000000000000000000000000000000000000",
      "type": "0x2",
      "transactionHash": "0x5347af93a5e028339686bae5c24f2205abacaffabec196e6dc3c0700d70ca549",
      "transactionIndex": "0xbc",
      "blockHash": "0xd3658f526d506cde62096845f864ffd79b389efb7b6c575e14bdac808fadb885",
      "blockNumber": "0x731877",
      "gasUsed": "0xfd33",
      "effectiveGasPrice": "0x4421a87f",
      "from": "0xc77f7fed3b5cc8249adc428c5f44c9063b9734b4",
      "to": "0x8aafd3ede9adb0ff97c7aebce82a919afb1c8764",
      "contractAddress": null
    }
  ],
  "libraries": [],
  "pending": [],
  "returns": {},
  "timestamp": 1737499237,
  "chain": 11155111,
  "commit": "1d2fb70"
}