{
  "transactions": [
    {
      "hash": "0x1460024a86502c45f79558df3040c0df518cac6565aac79076f5d64c302acc5d",
      "transactionType": "CALL",
      "contractName": null,
      "contractAddress": "0x270e88f8683660553e8ba4eb2ad7c91a1710d769",
      "function": "sell(uint256)",
      "arguments": [
        "724796232139893831918"
      ],
      "transaction": {
        "from": "0xc77f7fed3b5cc8249adc428c5f44c9063b9734b4",
        "to": "0x270e88f8683660553e8ba4eb2ad7c91a1710d769",
        "gas": "0x16fec",
        "value": "0x0",
        "input": "0xe4849b320000000000000000000000000000000000000000000000274a917cff07eef8ee",
        "nonce": "0x7ea",
        "chainId": "0xaa36a7"
      },
      "additionalContracts": [],
      "isFixedGasLimit": false
    }
  ],
  "receipts": [
    {
      "status": "0x1",
      "cumulativeGasUsed": "0x9797d0",
      "logs": [
        {
          "address": "0x270e88f8683660553e8ba4eb2ad7c91a1710d769",
          "topics": [
            "0xddf252ad1be2c89b69c2b068fc378daa952ba7f163c4a11628f55a4df523b3ef",
            "0x000000000000000000000000c77f7fed3b5cc8249adc428c5f44c9063b9734b4",
            "0x0000000000000000000000000000000000000000000000000000000000000000"
          ],
          "data": "0x0000000000000000000000000000000000000000000000274a917cff07eef8ee",
          "blockHash": "0xa9421077f7d4c856807ea890ab6547255d960ba27c022b417869be16796dd9af",
          "blockNumber": "0x725526",
          "transactionHash": "0x1460024a86502c45f79558df3040c0df518cac6565aac79076f5d64c302acc5d",
          "transactionIndex": "0x52",
          "logIndex": "0x91",
          "removed": false
        },
        {
          "address": "0x270e88f8683660553e8ba4eb2ad7c91a1710d769",
          "topics": [
            "0x4afcb4a87cdbd9974efdb92ee48bc8d7cd0ae4bf217004db3d080cbaee652ca7"
          ],
          "data": "0x000000000000000000000000000000000000000000000000000000006786efd00000000000000000000000000000000000000000000000000004de57502ff71b0000000000000000000000000000000000000000000000000dc826ed0f2234bd",
          "blockHash": "0xa9421077f7d4c856807ea890ab6547255d960ba27c022b417869be16796dd9af",
          "blockNumber": "0x725526",
          "transactionHash": "0x1460024a86502c45f79558df3040c0df518cac6565aac79076f5d64c302acc5d",
          "transactionIndex": "0x52",
          "logIndex": "0x92",
          "removed": false
        }
      ],
      "logsBloom": "0x00000000000000000000000000000000000000000000000000000000000000000000000000000000000000000000000020000000000000004000000000000000000000000000000000000008000000000000000000000000000000000000000000000000020000000000000000000800020000000000000000000010000000000000000000010000000000000000000000000000000000000000010000000000000000000000000000000000000000004000000000000000000000000000000000000002000000800000000000000000000000000000080000008000000020000000000000000000000000000000000000000000000000000000000000000000",
      "type": "0x2",
      "transactionHash": "0x1460024a86502c45f79558df3040c0df518cac6565aac79076f5d64c302acc5d",
      "transactionIndex": "0x52",
      "blockHash": "0xa9421077f7d4c856807ea890ab6547255d960ba27c022b417869be16796dd9af",
      "blockNumber": "0x725526",
      "gasUsed": "0xfb93",
      "effectiveGasPrice": "0xa3560ffc",
      "from": "0xc77f7fed3b5cc8249adc428c5f44c9063b9734b4",
      "to": "0x270e88f8683660553e8ba4eb2ad7c91a1710d769",
      "contractAddress": null
    }
  ],
  "libraries": [],
  "pending": [],
  "returns": {},
  "timestamp": 1736896465,
  "chain": 11155111,
  "commit": "51a374b"
}