{
  "transactions": [
    {
      "hash": "0x58297b381208036543f7a09463e4296c852d3e0463d930569fdf8e7c1010edc0",
      "transactionType": "CALL",
      "contractName": null,
      "contractAddress": "0x5eb9cc76c3506942c1c0ead70e877dd5e4f00cb0",
      "function": "sell(uint256)",
      "arguments": [
        "989102230029650231109"
      ],
      "transaction": {
        "from": "0xc77f7fed3b5cc8249adc428c5f44c9063b9734b4",
        "to": "0x5eb9cc76c3506942c1c0ead70e877dd5e4f00cb0",
        "gas": "0x16fec",
        "value": "0x0",
        "input": "0xe4849b320000000000000000000000000000000000000000000000359e8d05b94801ff45",
        "nonce": "0x3f3",
        "chainId": "0xaa36a7"
      },
      "additionalContracts": [],
      "isFixedGasLimit": false
    }
  ],
  "receipts": [
    {
      "status": "0x1",
      "cumulativeGasUsed": "0xf3b660",
      "logs": [
        {
          "address": "0x5eb9cc76c3506942c1c0ead70e877dd5e4f00cb0",
          "topics": [
            "0xddf252ad1be2c89b69c2b068fc378daa952ba7f163c4a11628f55a4df523b3ef",
            "0x000000000000000000000000c77f7fed3b5cc8249adc428c5f44c9063b9734b4",
            "0x0000000000000000000000000000000000000000000000000000000000000000"
          ],
          "data": "0x0000000000000000000000000000000000000000000000359e8d05b94801ff45",
          "blockHash": "0xc1d3e872dc33142b269c1d7418555df8f56e216ec057cfe65dc92c5c321a28b2",
          "blockNumber": "0x724ff9",
          "transactionHash": "0x58297b381208036543f7a09463e4296c852d3e0463d930569fdf8e7c1010edc0",
          "transactionIndex": "0x67",
          "logIndex": "0xb9",
          "removed": false
        },
        {
          "address": "0x5eb9cc76c3506942c1c0ead70e877dd5e4f00cb0",
          "topics": [
            "0x4afcb4a87cdbd9974efdb92ee48bc8d7cd0ae4bf217004db3d080cbaee652ca7"
          ],
          "data": "0x000000000000000000000000000000000000000000000000000000006786b17800000000000000000000000000000000000000000000000000039114f1f030ea0000000000000000000000000000000000000000000000000dc7db1331eb6a95",
          "blockHash": "0xc1d3e872dc33142b269c1d7418555df8f56e216ec057cfe65dc92c5c321a28b2",
          "blockNumber": "0x724ff9",
          "transactionHash": "0x58297b381208036543f7a09463e4296c852d3e0463d930569fdf8e7c1010edc0",
          "transactionIndex": "0x67",
          "logIndex": "0xba",
          "removed": false
        }
      ],
      "logsBloom": "0x00000000000000000000000000000000000000000000000000000000000000000000000000000000000000000000000000000000000000004000000000000000000000000000000000000008000000000000000000000000000000000000000000000000020000000000000004000800020000000000000000000010000000000000000000000000000000000000000000000000000000000000010000000000000000000000000000000000000000004000000000000000000000000000020000000002000000800000008000000000000000000000080000000000000020000000000000000000000000000000000000000000000000000000000000000000",
      "type": "0x2",
      "transactionHash": "0x58297b381208036543f7a09463e4296c852d3e0463d930569fdf8e7c1010edc0",
      "transactionIndex": "0x67",
      "blockHash": "0xc1d3e872dc33142b269c1d7418555df8f56e216ec057cfe65dc92c5c321a28b2",
      "blockNumber": "0x724ff9",
      "gasUsed": "0xfb93",
      "effectiveGasPrice": "0x3ce59f635",
      "from": "0xc77f7fed3b5cc8249adc428c5f44c9063b9734b4",
      "to": "0x5eb9cc76c3506942c1c0ead70e877dd5e4f00cb0",
      "contractAddress": null
    }
  ],
  "libraries": [],
  "pending": [],
  "returns": {},
  "timestamp": 1736880506,
  "chain": 11155111,
  "commit": "51a374b"
}