{
  "transactions": [
    {
      "hash": "0xe23a6ff33861bb49b4c0f9d7232436965f302dcd66781dbf6e348e7d0061ed29",
      "transactionType": "CALL",
      "contractName": null,
      "contractAddress": "0x5eb9cc76c3506942c1c0ead70e877dd5e4f00cb0",
      "function": "sell(uint256)",
      "arguments": [
        "989071316308705086391"
      ],
      "transaction": {
        "from": "0xc77f7fed3b5cc8249adc428c5f44c9063b9734b4",
        "to": "0x5eb9cc76c3506942c1c0ead70e877dd5e4f00cb0",
        "gas": "0x16fec",
        "value": "0x0",
        "input": "0xe4849b320000000000000000000000000000000000000000000000359e1f31dbbc630bb7",
        "nonce": "0x4b5",
        "chainId": "0xaa36a7"
      },
      "additionalContracts": [],
      "isFixedGasLimit": false
    }
  ],
  "receipts": [
    {
      "status": "0x1",
      "cumulativeGasUsed": "0x9edcf1",
      "logs": [
        {
          "address": "0x5eb9cc76c3506942c1c0ead70e877dd5e4f00cb0",
          "topics": [
            "0xddf252ad1be2c89b69c2b068fc378daa952ba7f163c4a11628f55a4df523b3ef",
            "0x000000000000000000000000c77f7fed3b5cc8249adc428c5f44c9063b9734b4",
            "0x0000000000000000000000000000000000000000000000000000000000000000"
          ],
          "data": "0x0000000000000000000000000000000000000000000000359e1f31dbbc630bb7",
          "blockHash": "0xd309336680aa8a2cada5fab4c4b7ae805cae2e5eeb1c9dd985c5ac884366ba3f",
          "blockNumber": "0x7250f4",
          "transactionHash": "0xe23a6ff33861bb49b4c0f9d7232436965f302dcd66781dbf6e348e7d0061ed29",
          "transactionIndex": "0x59",
          "logIndex": "0xa7",
          "removed": false
        },
        {
          "address": "0x5eb9cc76c3506942c1c0ead70e877dd5e4f00cb0",
          "topics": [
            "0x4afcb4a87cdbd9974efdb92ee48bc8d7cd0ae4bf217004db3d080cbaee652ca7"
          ],
          "data": "0x000000000000000000000000000000000000000000000000000000006786bd540000000000000000000000000000000000000000000000000003911c403f12090000000000000000000000000000000000000000000000000dc7db1331b468ce",
          "blockHash": "0xd309336680aa8a2cada5fab4c4b7ae805cae2e5eeb1c9dd985c5ac884366ba3f",
          "blockNumber": "0x7250f4",
          "transactionHash": "0xe23a6ff33861bb49b4c0f9d7232436965f302dcd66781dbf6e348e7d0061ed29",
          "transactionIndex": "0x59",
          "logIndex": "0xa8",
          "removed": false
        }
      ],
      "logsBloom": "0x00000000000000000000000000000000000000000000000000000000000000000000000000000000000000000000000000000000000000004000000000000000000000000000000000000008000000000000000000000000000000000000000000000000020000000000000004000800020000000000000000000010000000000000000000000000000000000000000000000000000000000000010000000000000000000000000000000000000000004000000000000000000000000000020000000002000000800000008000000000000000000000080000000000000020000000000000000000000000000000000000000000000000000000000000000000",
      "type": "0x2",
      "transactionHash": "0xe23a6ff33861bb49b4c0f9d7232436965f302dcd66781dbf6e348e7d0061ed29",
      "transactionIndex": "0x59",
      "blockHash": "0xd309336680aa8a2cada5fab4c4b7ae805cae2e5eeb1c9dd985c5ac884366ba3f",
      "blockNumber": "0x7250f4",
      "gasUsed": "0xfb93",
      "effectiveGasPrice": "0x2ee7c391f",
      "from": "0xc77f7fed3b5cc8249adc428c5f44c9063b9734b4",
      "to": "0x5eb9cc76c3506942c1c0ead70e877dd5e4f00cb0",
      "contractAddress": null
    }
  ],
  "libraries": [],
  "pending": [],
  "returns": {},
  "timestamp": 1736883540,
  "chain": 11155111,
  "commit": "51a374b"
}