{
  "transactions": [
    {
      "hash": "0x851a93eb95af263c5de922510de6a143aff852b63d3eac6b0c646fee41800c05",
      "transactionType": "CALL",
      "contractName": null,
      "contractAddress": "0x8aafd3ede9adb0ff97c7aebce82a919afb1c8764",
      "function": "sell(uint256)",
      "arguments": [
        "165009314615833812550"
      ],
      "transaction": {
        "from": "0xc77f7fed3b5cc8249adc428c5f44c9063b9734b4",
        "to": "0x8aafd3ede9adb0ff97c7aebce82a919afb1c8764",
        "gas": "0x17270",
        "value": "0x0",
        "input": "0xe4849b32000000000000000000000000000000000000000000000008f1f6d962e3725e46",
        "nonce": "0x1679",
        "chainId": "0xaa36a7"
      },
      "additionalContracts": [],
      "isFixedGasLimit": false
    }
  ],
  "receipts": [
    {
      "status": "0x1",
      "cumulativeGasUsed": "0x10c3c50",
      "logs": [
        {
          "address": "0x8aafd3ede9adb0ff97c7aebce82a919afb1c8764",
          "topics": [
            "0xddf252ad1be2c89b69c2b068fc378daa952ba7f163c4a11628f55a4df523b3ef",
            "0x000000000000000000000000c77f7fed3b5cc8249adc428c5f44c9063b9734b4",
            "0x0000000000000000000000000000000000000000000000000000000000000000"
          ],
          "data": "0x000000000000000000000000000000000000000000000008dfa5009b70fcb7a2",
          "blockHash": "0x54067c3b62d659611a8d4ad81aadd35ceab16d4f0c4c987bed2f4b7041f42241",
          "blockNumber": "0x731e2a",
          "transactionHash": "0x851a93eb95af263c5de922510de6a143aff852b63d3eac6b0c646fee41800c05",
          "transactionIndex": "0x7d",
          "logIndex": "0x126",
          "removed": false
        },
        {
          "address": "0x8aafd3ede9adb0ff97c7aebce82a919afb1c8764",
          "topics": [
            "0xddf252ad1be2c89b69c2b068fc378daa952ba7f163c4a11628f55a4df523b3ef",
            "0x000000000000000000000000c77f7fed3b5cc8249adc428c5f44c9063b9734b4",
            "0x000000000000000000000000c77f7fed3b5cc8249adc428c5f44c9063b9734b4"
          ],
          "data": "0x0000000000000000000000000000000000000000000000001251d8c77275a6a4",
          "blockHash": "0x54067c3b62d659611a8d4ad81aadd35ceab16d4f0c4c987bed2f4b7041f42241",
          "blockNumber": "0x731e2a",
          "transactionHash": "0x851a93eb95af263c5de922510de6a143aff852b63d3eac6b0c646fee41800c05",
          "transactionIndex": "0x7d",
          "logIndex": "0x127",
          "removed": false
        },
        {
          "address": "0x8aafd3ede9adb0ff97c7aebce82a919afb1c8764",
          "topics": [
            "0x4afcb4a87cdbd9974efdb92ee48bc8d7cd0ae4bf217004db3d080cbaee652ca7"
          ],
          "data": "0x00000000000000000000000000000000000000000000000000000000679066e000000000000000000000000000000000000000000000000000157be55158cbd50000000000000000000000000000000000000000000000000dcc3c23f88f3574",
          "blockHash": "0x54067c3b62d659611a8d4ad81aadd35ceab16d4f0c4c987bed2f4b7041f42241",
          "blockNumber": "0x731e2a",
          "transactionHash": "0x851a93eb95af263c5de922510de6a143aff852b63d3eac6b0c646fee41800c05",
          "transactionIndex": "0x7d",
          "logIndex": "0x128",
          "removed": false
        }
      ],
      "logsBloom": "0x00000000000000000000000000000000000000000600000000000000000000000000000000000000000000000000000000000000000000004000000000000000000000000000004000000008000000000000000000000000000000000000000000000000020000000000000000000800020000000000000000000010000000000000000000000000000000000000000000000000000000000000010000000000000000000000000000000000000000004000000000000000000000000000000000000002000000800000000000000000000000000000080000000000000020000000000000000000000000000000000000000000000000000000000000000000",
      "type": "0x2",
      "transactionHash": "0x851a93eb95af263c5de922510de6a143aff852b63d3eac6b0c646fee41800c05",
      "transactionIndex": "0x7d",
      "blockHash": "0x54067c3b62d659611a8d4ad81aadd35ceab16d4f0c4c987bed2f4b7041f42241",
      "blockNumber": "0x731e2a",
      "gasUsed": "0xfd4b",
      "effectiveGasPrice": "0x4860fdf8",
      "from": "0xc77f7fed3b5cc8249adc428c5f44c9063b9734b4",
      "to": "0x8aafd3ede9adb0ff97c7aebce82a919afb1c8764",
      "contractAddress": null
    }
  ],
  "libraries": [],
  "pending": [],
  "returns": {},
  "timestamp": 1737516769,
  "chain": 11155111,
  "commit": "1d2fb70"
}