{
  "transactions": [
    {
      "hash": "0x1b1ec1397ec94cee04f544a2421e5b4a276f0df0d22681ae2b848bf9cc0705ba",
      "transactionType": "CALL",
      "contractName": null,
      "contractAddress": "0x270e88f8683660553e8ba4eb2ad7c91a1710d769",
      "function": "sell(uint256)",
      "arguments": [
        "980388116008065927249"
      ],
      "transaction": {
        "from": "0xc77f7fed3b5cc8249adc428c5f44c9063b9734b4",
        "to": "0x270e88f8683660553e8ba4eb2ad7c91a1710d769",
        "gas": "0x16fec",
        "value": "0x0",
        "input": "0xe4849b32000000000000000000000000000000000000000000000035259e4530c3398851",
        "nonce": "0x525",
        "chainId": "0xaa36a7"
      },
      "additionalContracts": [],
      "isFixedGasLimit": false
    }
  ],
  "receipts": [
    {
      "status": "0x1",
      "cumulativeGasUsed": "0x1f5ccfb",
      "logs": [
        {
          "address": "0x270e88f8683660553e8ba4eb2ad7c91a1710d769",
          "topics": [
            "0xddf252ad1be2c89b69c2b068fc378daa952ba7f163c4a11628f55a4df523b3ef",
            "0x000000000000000000000000c77f7fed3b5cc8249adc428c5f44c9063b9734b4",
            "0x0000000000000000000000000000000000000000000000000000000000000000"
          ],
          "data": "0x000000000000000000000000000000000000000000000035259e4530c3398851",
          "blockHash": "0x23152f446e41bd351780b18f02d13534cf4a30eab8c2ad9310f8c57760e93202",
          "blockNumber": "0x7251bf",
          "transactionHash": "0x1b1ec1397ec94cee04f544a2421e5b4a276f0df0d22681ae2b848bf9cc0705ba",
          "transactionIndex": "0xa2",
          "logIndex": "0x13b",
          "removed": false
        },
        {
          "address": "0x270e88f8683660553e8ba4eb2ad7c91a1710d769",
          "topics": [
            "0x4afcb4a87cdbd9974efdb92ee48bc8d7cd0ae4bf217004db3d080cbaee652ca7"
          ],
          "data": "0x000000000000000000000000000000000000000000000000000000006786c6d80000000000000000000000000000000000000000000000000003997d6b32df110000000000000000000000000000000000000000000000000dc84147cc3892ce",
          "blockHash": "0x23152f446e41bd351780b18f02d13534cf4a30eab8c2ad9310f8c57760e93202",
          "blockNumber": "0x7251bf",
          "transactionHash": "0x1b1ec1397ec94cee04f544a2421e5b4a276f0df0d22681ae2b848bf9cc0705ba",
          "transactionIndex": "0xa2",
          "logIndex": "0x13c",
          "removed": false
        }
      ],
      "logsBloom": "0x00000000000000000000000000000000000000000000000000000000000000000000000000000000000000000000000020000000000000004000000000000000000000000000000000000008000000000000000000000000000000000000000000000000020000000000000000000800020000000000000000000010000000000000000000010000000000000000000000000000000000000000010000000000000000000000000000000000000000004000000000000000000000000000000000000002000000800000000000000000000000000000080000008000000020000000000000000000000000000000000000000000000000000000000000000000",
      "type": "0x2",
      "transactionHash": "0x1b1ec1397ec94cee04f544a2421e5b4a276f0df0d22681ae2b848bf9cc0705ba",
      "transactionIndex": "0xa2",
      "blockHash": "0x23152f446e41bd351780b18f02d13534cf4a30eab8c2ad9310f8c57760e93202",
      "blockNumber": "0x7251bf",
      "gasUsed": "0xfb93",
      "effectiveGasPrice": "0x3faba6c43",
      "from": "0xc77f7fed3b5cc8249adc428c5f44c9063b9734b4",
      "to": "0x270e88f8683660553e8ba4eb2ad7c91a1710d769",
      "contractAddress": null
    }
  ],
  "libraries": [],
  "pending": [],
  "returns": {},
  "timestamp": 1736885977,
  "chain": 11155111,
  "commit": "51a374b"
}