{
  "transactions": [
    {
      "hash": "0x201ad85eda6b53b3124befe505b0a7b9648095ed7195e551d61776f17194a953",
      "transactionType": "CALL",
      "contractName": null,
      "contractAddress": "0x270e88f8683660553e8ba4eb2ad7c91a1710d769",
      "function": "buy(address)",
      "arguments": [
        "0xC77f7fed3b5Cc8249aDc428c5F44C9063B9734b4"
      ],
      "transaction": {
        "from": "0xc77f7fed3b5cc8249adc428c5f44c9063b9734b4",
        "to": "0x270e88f8683660553e8ba4eb2ad7c91a1710d769",
        "gas": "0x1b30c",
        "value": "0xde0b6b3a7640000",
        "input": "0xf088d547000000000000000000000000c77f7fed3b5cc8249adc428c5f44c9063b9734b4",
        "nonce": "0x7bb",
        "chainId": "0xaa36a7"
      },
      "additionalContracts": [],
      "isFixedGasLimit": false
    }
  ],
  "receipts": [
    {
      "status": "0x1",
      "cumulativeGasUsed": "0x1442123",
      "logs": [
        {
          "address": "0x270e88f8683660553e8ba4eb2ad7c91a1710d769",
          "topics": [
            "0xddf252ad1be2c89b69c2b068fc378daa952ba7f163c4a11628f55a4df523b3ef",
            "0x0000000000000000000000000000000000000000000000000000000000000000",
            "0x000000000000000000000000c77f7fed3b5cc8249adc428c5f44c9063b9734b4"
          ],
          "data": "0x00000000000000000000000000000000000000000000002762ac2140c8d55484",
          "blockHash": "0x303c173443a1f33ddefc3522172c8c1c655c9217c9229c5e1f4eae09ea1992ed",
          "blockNumber": "0x7254f1",
          "transactionHash": "0x201ad85eda6b53b3124befe505b0a7b9648095ed7195e551d61776f17194a953",
          "transactionIndex": "0x6b",
          "logIndex": "0xb3",
          "removed": false
        },
        {
          "address": "0x270e88f8683660553e8ba4eb2ad7c91a1710d769",
          "topics": [
            "0xddf252ad1be2c89b69c2b068fc378daa952ba7f163c4a11628f55a4df523b3ef",
            "0x0000000000000000000000000000000000000000000000000000000000000000",
            "0x000000000000000000000000c77f7fed3b5cc8249adc428c5f44c9063b9734b4"
          ],
          "data": "0x0000000000000000000000000000000000000000000000001e9589fd7294c362",
          "blockHash": "0x303c173443a1f33ddefc3522172c8c1c655c9217c9229c5e1f4eae09ea1992ed",
          "blockNumber": "0x7254f1",
          "transactionHash": "0x201ad85eda6b53b3124befe505b0a7b9648095ed7195e551d61776f17194a953",
          "transactionIndex": "0x6b",
          "logIndex": "0xb4",
          "removed": false
        },
        {
          "address": "0x270e88f8683660553e8ba4eb2ad7c91a1710d769",
          "topics": [
            "0x4afcb4a87cdbd9974efdb92ee48bc8d7cd0ae4bf217004db3d080cbaee652ca7"
          ],
          "data": "0x000000000000000000000000000000000000000000000000000000006786ed540000000000000000000000000000000000000000000000000004d76a2fd3c6030000000000000000000000000000000000000000000000000de0b6b3a7640000",
          "blockHash": "0x303c173443a1f33ddefc3522172c8c1c655c9217c9229c5e1f4eae09ea1992ed",
          "blockNumber": "0x7254f1",
          "transactionHash": "0x201ad85eda6b53b3124befe505b0a7b9648095ed7195e551d61776f17194a953",
          "transactionIndex": "0x6b",
          "logIndex": "0xb5",
          "removed": false
        }
      ],
      "logsBloom": "0x00000000000000000000000000000000000000000000000000000000000000000000000000000000000000000000000020000000000000004000000000000000000000000000000000000008000000000000000000000000000000000000000000000000020000000000000000000800020000000000000000000010000000000000000000010000000000000000000000000000000000000000010000000000000000000000000000000000000000004000000000000000000000000000000000000002000000800000000000000000000000000000080000008000000020000000000000000000000000000000000000000000000000000000000000000000",
      "type": "0x2",
      "transactionHash": "0x201ad85eda6b53b3124befe505b0a7b9648095ed7195e551d61776f17194a953",
      "transactionIndex": "0x6b",
      "blockHash": "0x303c173443a1f33ddefc3522172c8c1c655c9217c9229c5e1f4eae09ea1992ed",
      "blockNumber": "0x7254f1",
      "gasUsed": "0x13af8",
      "effectiveGasPrice": "0xbed53351",
      "from": "0xc77f7fed3b5cc8249adc428c5f44c9063b9734b4",
      "to": "0x270e88f8683660553e8ba4eb2ad7c91a1710d769",
      "contractAddress": null
    }
  ],
  "libraries": [],
  "pending": [],
  "returns": {},
  "timestamp": 1736895831,
  "chain": 11155111,
  "commit": "51a374b"
}