{
  "transactions": [
    {
      "hash": "0x8827fd532c5e1ef6da52ea2882ab6a415478bbad625c6d97e9aec9d905c11d12",
      "transactionType": "CALL",
      "contractName": null,
      "contractAddress": "0xd7bc75898e513accccf720a874d44dab5a4b6223",
      "function": "buy(address)",
      "arguments": [
        "0xC77f7fed3b5Cc8249aDc428c5F44C9063B9734b4"
      ],
      "transaction": {
        "from": "0xc77f7fed3b5cc8249adc428c5f44c9063b9734b4",
        "to": "0xd7bc75898e513accccf720a874d44dab5a4b6223",
        "gas": "0x1b30c",
        "value": "0x16345785d8a0000",
        "input": "0xf088d547000000000000000000000000c77f7fed3b5cc8249adc428c5f44c9063b9734b4",
        "nonce": "0x81",
        "chainId": "0xaa36a7"
      },
      "additionalContracts": [],
      "isFixedGasLimit": false
    },
    {
      "hash": "0xffe264ebdb12a5f3a9da0ecb61456fc14d793837ae52e6fbab63cebb845a861d",
      "transactionType": "CALL",
      "contractName": null,
      "contractAddress": "0xd7bc75898e513accccf720a874d44dab5a4b6223",
      "function": "sell(uint256)",
      "arguments": [
        "99300248577253577878"
      ],
      "transaction": {
        "from": "0xc77f7fed3b5cc8249adc428c5f44c9063b9734b4",
        "to": "0xd7bc75898e513accccf720a874d44dab5a4b6223",
        "gas": "0x16fec",
        "value": "0x0",
        "input": "0xe4849b32000000000000000000000000000000000000000000000005621159f73b301496",
        "nonce": "0x82",
        "chainId": "0xaa36a7"
      },
      "additionalContracts": [],
      "isFixedGasLimit": false
    }
  ],
  "receipts": [
    {
      "status": "0x1",
      "cumulativeGasUsed": "0x638a1f",
      "logs": [
        {
          "address": "0xd7bc75898e513accccf720a874d44dab5a4b6223",
          "topics": [
            "0xddf252ad1be2c89b69c2b068fc378daa952ba7f163c4a11628f55a4df523b3ef",
            "0x0000000000000000000000000000000000000000000000000000000000000000",
            "0x000000000000000000000000c77f7fed3b5cc8249adc428c5f44c9063b9734b4"
          ],
          "data": "0x0000000000000000000000000000000000000000000000055de678937123cfaf",
          "blockHash": "0x843afa1eb43327b8207f853ed153333bae1a13154ffd3106d28c199533634031",
          "blockNumber": "0x7238a7",
          "transactionHash": "0x8827fd532c5e1ef6da52ea2882ab6a415478bbad625c6d97e9aec9d905c11d12",
          "transactionIndex": "0x40",
          "logIndex": "0x61",
          "removed": false
        },
        {
          "address": "0xd7bc75898e513accccf720a874d44dab5a4b6223",
          "topics": [
            "0xddf252ad1be2c89b69c2b068fc378daa952ba7f163c4a11628f55a4df523b3ef",
            "0x0000000000000000000000000000000000000000000000000000000000000000",
            "0x000000000000000000000000c77f7fed3b5cc8249adc428c5f44c9063b9734b4"
          ],
          "data": "0x000000000000000000000000000000000000000000000000042ae163ca0c44e7",
          "blockHash": "0x843afa1eb43327b8207f853ed153333bae1a13154ffd3106d28c199533634031",
          "blockNumber": "0x7238a7",
          "transactionHash": "0x8827fd532c5e1ef6da52ea2882ab6a415478bbad625c6d97e9aec9d905c11d12",
          "transactionIndex": "0x40",
          "logIndex": "0x62",
          "removed": false
        },
        {
          "address": "0xd7bc75898e513accccf720a874d44dab5a4b6223",
          "topics": [
            "0x4afcb4a87cdbd9974efdb92ee48bc8d7cd0ae4bf217004db3d080cbaee652ca7"
          ],
          "data": "0x000000000000000000000000000000000000000000000000000000006785991c00000000000000000000000000000000000000000000000000038d7ec4845e6b000000000000000000000000000000000000000000000000016345785d8a0000",
          "blockHash": "0x843afa1eb43327b8207f853ed153333bae1a13154ffd3106d28c199533634031",
          "blockNumber": "0x7238a7",
          "transactionHash": "0x8827fd532c5e1ef6da52ea2882ab6a415478bbad625c6d97e9aec9d905c11d12",
          "transactionIndex": "0x40",
          "logIndex": "0x63",
          "removed": false
        }
      ],
      "logsBloom": "0x00000000000000000000000000000000000000000000000000000000000000000000000000000000000000000000000000000000000000004000000000000000000000000000000000000008000000000000000000000000000000000000000000000000020000000000000000000800020000000000000000000010000000000000000000000000000000000000000000000000000000000000010000000000000000000000000000000000000000004000001000000000000000000000000000000002000000800000000000004000000000000000080000000000000020000000000000000000000000000000000000000000080000000000000000000000",
      "type": "0x2",
      "transactionHash": "0x8827fd532c5e1ef6da52ea2882ab6a415478bbad625c6d97e9aec9d905c11d12",
      "transactionIndex": "0x40",
      "blockHash": "0x843afa1eb43327b8207f853ed153333bae1a13154ffd3106d28c199533634031",
      "blockNumber": "0x7238a7",
      "gasUsed": "0x13af8",
      "effectiveGasPrice": "0x1fa62c9",
      "from": "0xc77f7fed3b5cc8249adc428c5f44c9063b9734b4",
      "to": "0xd7bc75898e513accccf720a874d44dab5a4b6223",
      "contractAddress": null
    },
    {
      "status": "0x1",
      "cumulativeGasUsed": "0x6485b2",
      "logs": [
        {
          "address": "0xd7bc75898e513accccf720a874d44dab5a4b6223",
          "topics": [
            "0xddf252ad1be2c89b69c2b068fc378daa952ba7f163c4a11628f55a4df523b3ef",
            "0x000000000000000000000000c77f7fed3b5cc8249adc428c5f44c9063b9734b4",
            "0x0000000000000000000000000000000000000000000000000000000000000000"
          ],
          "data": "0x000000000000000000000000000000000000000000000005621159f73b301496",
          "blockHash": "0x843afa1eb43327b8207f853ed153333bae1a13154ffd3106d28c199533634031",
          "blockNumber": "0x7238a7",
          "transactionHash": "0xffe264ebdb12a5f3a9da0ecb61456fc14d793837ae52e6fbab63cebb845a861d",
          "transactionIndex": "0x41",
          "logIndex": "0x64",
          "removed": false
        },
        {
          "address": "0xd7bc75898e513accccf720a874d44dab5a4b6223",
          "topics": [
            "0x4afcb4a87cdbd9974efdb92ee48bc8d7cd0ae4bf217004db3d080cbaee652ca7"
          ],
          "data": "0x000000000000000000000000000000000000000000000000000000006785991c00000000000000000000000000000000000000000000000000038d7ec5c009330000000000000000000000000000000000000000000000000160c9191a82ec5e",
          "blockHash": "0x843afa1eb43327b8207f853ed153333bae1a13154ffd3106d28c199533634031",
          "blockNumber": "0x7238a7",
          "transactionHash": "0xffe264ebdb12a5f3a9da0ecb61456fc14d793837ae52e6fbab63cebb845a861d",
          "transactionIndex": "0x41",
          "logIndex": "0x65",
          "removed": false
        }
      ],
      "logsBloom": "0x00000000000000000000000000000000000000000000000000000000000000000000000000000000000000000000000000000000000000004000000000000000000000000000000000000008000000000000000000000000000000000000000000000000020000000000000000000800020000000000000000000010000000000000000000000000000000000000000000000000000000000000010000000000000000000000000000000000000000004000001000000000000000000000000000000002000000800000000000004000000000000000080000000000000020000000000000000000000000000000000000000000080000000000000000000000",
      "type": "0x2",
      "transactionHash": "0xffe264ebdb12a5f3a9da0ecb61456fc14d793837ae52e6fbab63cebb845a861d",
      "transactionIndex": "0x41",
      "blockHash": "0x843afa1eb43327b8207f853ed153333bae1a13154ffd3106d28c199533634031",
      "blockNumber": "0x7238a7",
      "gasUsed": "0xfb93",
      "effectiveGasPrice": "0x1fa62c9",
      "from": "0xc77f7fed3b5cc8249adc428c5f44c9063b9734b4",
      "to": "0xd7bc75898e513accccf720a874d44dab5a4b6223",
      "contractAddress": null
    }
  ],
  "libraries": [],
  "pending": [],
  "returns": {},
  "timestamp": 1736808733,
  "chain": 11155111,
  "commit": "51a374b"
}