{
  "transactions": [
    {
      "hash": "0xd9fef9bb48ef81324632ea89104f019304bc4fd5213601f95ce9fa6031b2959e",
      "transactionType": "CALL",
      "contractName": null,
      "contractAddress": "0xbf4a322f1496e5c3d34a9bcdb4c60567b38c7de2",
      "function": "buy(address)",
      "arguments": [
        "0xC77f7fed3b5Cc8249aDc428c5F44C9063B9734b4"
      ],
      "transaction": {
        "from": "0xc77f7fed3b5cc8249adc428c5f44c9063b9734b4",
        "to": "0xbf4a322f1496e5c3d34a9bcdb4c60567b38c7de2",
        "gas": "0x1b309",
        "value": "0xde0b6b3a7640000",
        "input": "0xf088d547000000000000000000000000c77f7fed3b5cc8249adc428c5f44c9063b9734b4",
        "nonce": "0xdae",
        "chainId": "0xaa36a7"
      },
      "additionalContracts": [],
      "isFixedGasLimit": false
    }
  ],
  "receipts": [
    {
      "status": "0x1",
      "cumulativeGasUsed": "0xd6ae6b",
      "logs": [
        {
          "address": "0xbf4a322f1496e5c3d34a9bcdb4c60567b38c7de2",
          "topics": [
            "0xddf252ad1be2c89b69c2b068fc378daa952ba7f163c4a11628f55a4df523b3ef",
            "0x0000000000000000000000000000000000000000000000000000000000000000",
            "0x000000000000000000000000c77f7fed3b5cc8249adc428c5f44c9063b9734b4"
          ],
          "data": "0x000000000000000000000000000000000000000000000034abe79beef93ab423",
          "blockHash": "0xd270f368d61ea7b4d848e454e531ff731c11e820684e341b784cac218c198db4",
          "blockNumber": "0x726684",
          "transactionHash": "0xd9fef9bb48ef81324632ea89104f019304bc4fd5213601f95ce9fa6031b2959e",
          "transactionIndex": "0x66",
          "logIndex": "0xd0",
          "removed": false
        },
        {
          "address": "0xbf4a322f1496e5c3d34a9bcdb4c60567b38c7de2",
          "topics": [
            "0xddf252ad1be2c89b69c2b068fc378daa952ba7f163c4a11628f55a4df523b3ef",
            "0x0000000000000000000000000000000000000000000000000000000000000000",
            "0x000000000000000000000000c77f7fed3b5cc8249adc428c5f44c9063b9734b4"
          ],
          "data": "0x00000000000000000000000000000000000000000000000028e6b642775d2310",
          "blockHash": "0xd270f368d61ea7b4d848e454e531ff731c11e820684e341b784cac218c198db4",
          "blockNumber": "0x726684",
          "transactionHash": "0xd9fef9bb48ef81324632ea89104f019304bc4fd5213601f95ce9fa6031b2959e",
          "transactionIndex": "0x66",
          "logIndex": "0xd1",
          "removed": false
        },
        {
          "address": "0xbf4a322f1496e5c3d34a9bcdb4c60567b38c7de2",
          "topics": [
            "0x4afcb4a87cdbd9974efdb92ee48bc8d7cd0ae4bf217004db3d080cbaee652ca7"
          ],
          "data": "0x000000000000000000000000000000000000000000000000000000006787c11000000000000000000000000000000000000000000000000000039eb5f34d13830000000000000000000000000000000000000000000000000de0b6b3a7640000",
          "blockHash": "0xd270f368d61ea7b4d848e454e531ff731c11e820684e341b784cac218c198db4",
          "blockNumber": "0x726684",
          "transactionHash": "0xd9fef9bb48ef81324632ea89104f019304bc4fd5213601f95ce9fa6031b2959e",
          "transactionIndex": "0x66",
          "logIndex": "0xd2",
          "removed": false
        }
      ],
      "logsBloom": "0x00000000000000000000000000000000000000000000000000000000000000000000000000000000000000000000000000000000000000004000000000000000000000000000000000000008000000000000001000000000000000000000000000000000020000000000000000000800020000000000000000000010000000000000000000000000000000000000000000000000000008000000010000000000000000000000000000000000000000004000000000000000000000000000000000000002000000800000000000001000000000000000080000000000000020000000000000000000000000000000000000000000000000000000000000000000",
      "type": "0x2",
      "transactionHash": "0xd9fef9bb48ef81324632ea89104f019304bc4fd5213601f95ce9fa6031b2959e",
      "transactionIndex": "0x66",
      "blockHash": "0xd270f368d61ea7b4d848e454e531ff731c11e820684e341b784cac218c198db4",
      "blockNumber": "0x726684",
      "gasUsed": "0x13af6",
      "effectiveGasPrice": "0x8d2433bc",
      "from": "0xc77f7fed3b5cc8249adc428c5f44c9063b9734b4",
      "to": "0xbf4a322f1496e5c3d34a9bcdb4c60567b38c7de2",
      "contractAddress": null
    }
  ],
  "libraries": [],
  "pending": [],
  "returns": {},
  "timestamp": 1736950033,
  "chain": 11155111,
  "commit": "51a374b"
}