{
  "transactions": [
    {
      "hash": "0x4003b01a3cc0ddf07ff33aaf1a32761763dcfec0114a972a332c2aaa597932fa",
      "transactionType": "CALL",
      "contractName": null,
      "contractAddress": "0xbf4a322f1496e5c3d34a9bcdb4c60567b38c7de2",
      "function": "sell(uint256)",
      "arguments": [
        "976001121152616078727"
      ],
      "transaction": {
        "from": "0xc77f7fed3b5cc8249adc428c5f44c9063b9734b4",
        "to": "0xbf4a322f1496e5c3d34a9bcdb4c60567b38c7de2",
        "gas": "0x16fea",
        "value": "0x0",
        "input": "0xe4849b32000000000000000000000000000000000000000000000034e8bc889cdcab9d87",
        "nonce": "0xd43",
        "chainId": "0xaa36a7"
      },
      "additionalContracts": [],
      "isFixedGasLimit": false
    }
  ],
  "receipts": [
    {
      "status": "0x1",
      "cumulativeGasUsed": "0x15f59ec",
      "logs": [
        {
          "address": "0xbf4a322f1496e5c3d34a9bcdb4c60567b38c7de2",
          "topics": [
            "0xddf252ad1be2c89b69c2b068fc378daa952ba7f163c4a11628f55a4df523b3ef",
            "0x000000000000000000000000c77f7fed3b5cc8249adc428c5f44c9063b9734b4",
            "0x0000000000000000000000000000000000000000000000000000000000000000"
          ],
          "data": "0x000000000000000000000000000000000000000000000034e8bc889cdcab9d87",
          "blockHash": "0x1c59c593847e35a49bb6399951a480cd696869c9f6e2495f0c83cb18039b8ab2",
          "blockNumber": "0x725da9",
          "transactionHash": "0x4003b01a3cc0ddf07ff33aaf1a32761763dcfec0114a972a332c2aaa597932fa",
          "transactionIndex": "0xad",
          "logIndex": "0x11b",
          "removed": false
        },
        {
          "address": "0xbf4a322f1496e5c3d34a9bcdb4c60567b38c7de2",
          "topics": [
            "0x4afcb4a87cdbd9974efdb92ee48bc8d7cd0ae4bf217004db3d080cbaee652ca7"
          ],
          "data": "0x000000000000000000000000000000000000000000000000000000006787566000000000000000000000000000000000000000000000000000039d5d0112c3820000000000000000000000000000000000000000000000000dc7e3d8c4cc912b",
          "blockHash": "0x1c59c593847e35a49bb6399951a480cd696869c9f6e2495f0c83cb18039b8ab2",
          "blockNumber": "0x725da9",
          "transactionHash": "0x4003b01a3cc0ddf07ff33aaf1a32761763dcfec0114a972a332c2aaa597932fa",
          "transactionIndex": "0xad",
          "logIndex": "0x11c",
          "removed": false
        }
      ],
      "logsBloom": "0x00000000000000000000000000000000000000000000000000000000000000000000000000000000000000000000000000000000000000004000000000000000000000000000000000000008000000000000001000000000000000000000000000000000020000000000000000000800020000000000000000000010000000000000000000000000000000000000000000000000000008000000010000000000000000000000000000000000000000004000000000000000000000000000000000000002000000800000000000001000000000000000080000000000000020000000000000000000000000000000000000000000000000000000000000000000",
      "type": "0x2",
      "transactionHash": "0x4003b01a3cc0ddf07ff33aaf1a32761763dcfec0114a972a332c2aaa597932fa",
      "transactionIndex": "0xad",
      "blockHash": "0x1c59c593847e35a49bb6399951a480cd696869c9f6e2495f0c83cb18039b8ab2",
      "blockNumber": "0x725da9",
      "gasUsed": "0xfb91",
      "effectiveGasPrice": "0x4afb964a4",
      "from": "0xc77f7fed3b5cc8249adc428c5f44c9063b9734b4",
      "to": "0xbf4a322f1496e5c3d34a9bcdb4c60567b38c7de2",
      "contractAddress": null
    }
  ],
  "libraries": [],
  "pending": [],
  "returns": {},
  "timestamp": 1736922722,
  "chain": 11155111,
  "commit": "51a374b"
}