{
  "transactions": [
    {
      "hash": "0xbc05cba853ae0c2101c6d001584ade3b3e786e791c48dd769b14f6d304770149",
      "transactionType": "CALL",
      "contractName": null,
      "contractAddress": "0x8aafd3ede9adb0ff97c7aebce82a919afb1c8764",
      "function": "sell(uint256)",
      "arguments": [
        "948067333747"
      ],
      "transaction": {
        "from": "0xc77f7fed3b5cc8249adc428c5f44c9063b9734b4",
        "to": "0x8aafd3ede9adb0ff97c7aebce82a919afb1c8764",
        "gas": "0x1722a",
        "value": "0x0",
        "input": "0xe4849b32000000000000000000000000000000000000000000000000000000dcbd377673",
        "nonce": "0x146a",
        "chainId": "0xaa36a7"
      },
      "additionalContracts": [],
      "isFixedGasLimit": false
    }
  ],
  "receipts": [
    {
      "status": "0x1",
      "cumulativeGasUsed": "0x169e424",
      "logs": [
        {
          "address": "0x8aafd3ede9adb0ff97c7aebce82a919afb1c8764",
          "topics": [
            "0xddf252ad1be2c89b69c2b068fc378daa952ba7f163c4a11628f55a4df523b3ef",
            "0x000000000000000000000000c77f7fed3b5cc8249adc428c5f44c9063b9734b4",
            "0x0000000000000000000000000000000000000000000000000000000000000000"
          ],
          "data": "0x000000000000000000000000000000000000000000000000000000daf9249646",
          "blockHash": "0x5516dbecbc2a732cc55c84a255adea893ba9a5c8b1f3e62ec3aaa5be065f80f1",
          "blockNumber": "0x731bb6",
          "transactionHash": "0xbc05cba853ae0c2101c6d001584ade3b3e786e791c48dd769b14f6d304770149",
          "transactionIndex": "0xad",
          "logIndex": "0xa1",
          "removed": false
        },
        {
          "address": "0x8aafd3ede9adb0ff97c7aebce82a919afb1c8764",
          "topics": [
            "0xddf252ad1be2c89b69c2b068fc378daa952ba7f163c4a11628f55a4df523b3ef",
            "0x000000000000000000000000c77f7fed3b5cc8249adc428c5f44c9063b9734b4",
            "0x000000000000000000000000c77f7fed3b5cc8249adc428c5f44c9063b9734b4"
          ],
          "data": "0x00000000000000000000000000000000000000000000000000000001c412e02d",
          "blockHash": "0x5516dbecbc2a732cc55c84a255adea893ba9a5c8b1f3e62ec3aaa5be065f80f1",
          "blockNumber": "0x731bb6",
          "transactionHash": "0xbc05cba853ae0c2101c6d001584ade3b3e786e791c48dd769b14f6d304770149",
          "transactionIndex": "0xad",
          "logIndex": "0xa2",
          "removed": false
        },
        {
          "address": "0x8aafd3ede9adb0ff97c7aebce82a919afb1c8764",
          "topics": [
            "0x4afcb4a87cdbd9974efdb92ee48bc8d7cd0ae4bf217004db3d080cbaee652ca7"
          ],
          "data": "0x0000000000000000000000000000000000000000000000000000000067904964000000000000000000000000000000000000000000000000000f583f583fc34d00000000000000000000000000000000000000000000000000000000f4126e37",
          "blockHash": "0x5516dbecbc2a732cc55c84a255adea893ba9a5c8b1f3e62ec3aaa5be065f80f1",
          "blockNumber": "0x731bb6",
          "transactionHash": "0xbc05cba853ae0c2101c6d001584ade3b3e786e791c48dd769b14f6d304770149",
          "transactionIndex": "0xad",
          "logIndex": "0xa3",
          "removed": false
        }
      ],
      "logsBloom": "0x00000000000000000000000000000000000000000600000000000000000000000000000000000000000000000000000000000000000000004000000000000000000000000000004000000008000000000000000000000000000000000000000000000000020000000000000000000800020000000000000000000010000000000000000000000000000000000000000000000000000000000000010000000000000000000000000000000000000000004000000000000000000000000000000000000002000000800000000000000000000000000000080000000000000020000000000000000000000000000000000000000000000000000000000000000000",
      "type": "0x2",
      "transactionHash": "0xbc05cba853ae0c2101c6d001584ade3b3e786e791c48dd769b14f6d304770149",
      "transactionIndex": "0xad",
      "blockHash": "0x5516dbecbc2a732cc55c84a255adea893ba9a5c8b1f3e62ec3aaa5be065f80f1",
      "blockNumber": "0x731bb6",
      "gasUsed": "0xfd1b",
      "effectiveGasPrice": "0xf7cabb0e",
      "from": "0xc77f7fed3b5cc8249adc428c5f44c9063b9734b4",
      "to": "0x8aafd3ede9adb0ff97c7aebce82a919afb1c8764",
      "contractAddress": null
    }
  ],
  "libraries": [],
  "pending": [],
  "returns": {},
  "timestamp": 1737509221,
  "chain": 11155111,
  "commit": "1d2fb70"
}