{
  "transactions": [
    {
      "hash": "0x6a63695d5b4dec2663095c841ae4add80f0b2941708a02e5c9a166c5951435b6",
      "transactionType": "CALL",
      "contractName": null,
      "contractAddress": "0x5eb9cc76c3506942c1c0ead70e877dd5e4f00cb0",
      "function": "sell(uint256)",
      "arguments": [
        "989071953685502638361"
      ],
      "transaction": {
        "from": "0xc77f7fed3b5cc8249adc428c5f44c9063b9734b4",
        "to": "0x5eb9cc76c3506942c1c0ead70e877dd5e4f00cb0",
        "gas": "0x16fec",
        "value": "0x0",
        "input": "0xe4849b320000000000000000000000000000000000000000000000359e21758c95fe3919",
        "nonce": "0x4b1",
        "chainId": "0xaa36a7"
      },
      "additionalContracts": [],
      "isFixedGasLimit": false
    }
  ],
  "receipts": [
    {
      "status": "0x1",
      "cumulativeGasUsed": "0xccc9de",
      "logs": [
        {
          "address": "0x5eb9cc76c3506942c1c0ead70e877dd5e4f00cb0",
          "topics": [
            "0xddf252ad1be2c89b69c2b068fc378daa952ba7f163c4a11628f55a4df523b3ef",
            "0x000000000000000000000000c77f7fed3b5cc8249adc428c5f44c9063b9734b4",
            "0x0000000000000000000000000000000000000000000000000000000000000000"
          ],
          "data": "0x0000000000000000000000000000000000000000000000359e21758c95fe3919",
          "blockHash": "0x3db2cd0825bc22b9d2e84e30fa7ac49822c394b4e7e1a19a06d555e485a2cf40",
          "blockNumber": "0x7250ef",
          "transactionHash": "0x6a63695d5b4dec2663095c841ae4add80f0b2941708a02e5c9a166c5951435b6",
          "transactionIndex": "0x5a",
          "logIndex": "0x7e",
          "removed": false
        },
        {
          "address": "0x5eb9cc76c3506942c1c0ead70e877dd5e4f00cb0",
          "topics": [
            "0x4afcb4a87cdbd9974efdb92ee48bc8d7cd0ae4bf217004db3d080cbaee652ca7"
          ],
          "data": "0x000000000000000000000000000000000000000000000000000000006786bd180000000000000000000000000000000000000000000000000003911c19aeedb90000000000000000000000000000000000000000000000000dc7db1331b58b24",
          "blockHash": "0x3db2cd0825bc22b9d2e84e30fa7ac49822c394b4e7e1a19a06d555e485a2cf40",
          "blockNumber": "0x7250ef",
          "transactionHash": "0x6a63695d5b4dec2663095c841ae4add80f0b2941708a02e5c9a166c5951435b6",
          "transactionIndex": "0x5a",
          "logIndex": "0x7f",
          "removed": false
        }
      ],
      "logsBloom": "0x00000000000000000000000000000000000000000000000000000000000000000000000000000000000000000000000000000000000000004000000000000000000000000000000000000008000000000000000000000000000000000000000000000000020000000000000004000800020000000000000000000010000000000000000000000000000000000000000000000000000000000000010000000000000000000000000000000000000000004000000000000000000000000000020000000002000000800000008000000000000000000000080000000000000020000000000000000000000000000000000000000000000000000000000000000000",
      "type": "0x2",
      "transactionHash": "0x6a63695d5b4dec2663095c841ae4add80f0b2941708a02e5c9a166c5951435b6",
      "transactionIndex": "0x5a",
      "blockHash": "0x3db2cd0825bc22b9d2e84e30fa7ac49822c394b4e7e1a19a06d555e485a2cf40",
      "blockNumber": "0x7250ef",
      "gasUsed": "0xfb93",
      "effectiveGasPrice": "0x2ba096097",
      "from": "0xc77f7fed3b5cc8249adc428c5f44c9063b9734b4",
      "to": "0x5eb9cc76c3506942c1c0ead70e877dd5e4f00cb0",
      "contractAddress": null
    }
  ],
  "libraries": [],
  "pending": [],
  "returns": {},
  "timestamp": 1736883482,
  "chain": 11155111,
  "commit": "51a374b"
}