{
  "transactions": [
    {
      "hash": "0xd49c086d568ec3f792aea7a8ff0c7270594dd47cb3d6c1ef2998dc763cfc268c",
      "transactionType": "CALL",
      "contractName": null,
      "contractAddress": "0x8aafd3ede9adb0ff97c7aebce82a919afb1c8764",
      "function": "buy(address)",
      "arguments": [
        "0xC77f7fed3b5Cc8249aDc428c5F44C9063B9734b4"
      ],
      "transaction": {
        "from": "0xc77f7fed3b5cc8249adc428c5f44c9063b9734b4",
        "to": "0x8aafd3ede9adb0ff97c7aebce82a919afb1c8764",
        "gas": "0x156ea",
        "value": "0xde0b6b3a7640000",
        "input": "0xf088d547000000000000000000000000c77f7fed3b5cc8249adc428c5f44c9063b9734b4",
        "nonce": "0x154f",
        "chainId": "0xaa36a7"
      },
      "additionalContracts": [],
      "isFixedGasLimit": false
    }
  ],
  "receipts": [
    {
      "status": "0x1",
      "cumulativeGasUsed": "0x72eab7",
      "logs": [
        {
          "address": "0x8aafd3ede9adb0ff97c7aebce82a919afb1c8764",
          "topics": [
            "0xddf252ad1be2c89b69c2b068fc378daa952ba7f163c4a11628f55a4df523b3ef",
            "0x0000000000000000000000000000000000000000000000000000000000000000",
            "0x000000000000000000000000c77f7fed3b5cc8249adc428c5f44c9063b9734b4"
          ],
          "data": "0x00000000000000000000000000000000000000000000000aa1c2b9c03feaaf97",
          "blockHash": "0x27d15ea4dda0db1b5223a96299f9fcd5e99c861e4cbeec606dac0d46c4a537fa",
          "blockNumber": "0x731cb5",
          "transactionHash": "0xd49c086d568ec3f792aea7a8ff0c7270594dd47cb3d6c1ef2998dc763cfc268c",
          "transactionIndex": "0x55",
          "logIndex": "0x9f",
          "removed": false
        },
        {
          "address": "0x8aafd3ede9adb0ff97c7aebce82a919afb1c8764",
          "topics": [
            "0xddf252ad1be2c89b69c2b068fc378daa952ba7f163c4a11628f55a4df523b3ef",
            "0x0000000000000000000000000000000000000000000000000000000000000000",
            "0x000000000000000000000000c77f7fed3b5cc8249adc428c5f44c9063b9734b4"
          ],
          "data": "0x00000000000000000000000000000000000000000000000008418a3c34982ac6",
          "blockHash": "0x27d15ea4dda0db1b5223a96299f9fcd5e99c861e4cbeec606dac0d46c4a537fa",
          "blockNumber": "0x731cb5",
          "transactionHash": "0xd49c086d568ec3f792aea7a8ff0c7270594dd47cb3d6c1ef2998dc763cfc268c",
          "transactionIndex": "0x55",
          "logIndex": "0xa0",
          "removed": false
        },
        {
          "address": "0x8aafd3ede9adb0ff97c7aebce82a919afb1c8764",
          "topics": [
            "0x4afcb4a87cdbd9974efdb92ee48bc8d7cd0ae4bf217004db3d080cbaee652ca7"
          ],
          "data": "0x00000000000000000000000000000000000000000000000000000000679055580000000000000000000000000000000000000000000000000011f58e17188b320000000000000000000000000000000000000000000000000de0b6b3a7640000",
          "blockHash": "0x27d15ea4dda0db1b5223a96299f9fcd5e99c861e4cbeec606dac0d46c4a537fa",
          "blockNumber": "0x731cb5",
          "transactionHash": "0xd49c086d568ec3f792aea7a8ff0c7270594dd47cb3d6c1ef2998dc763cfc268c",
          "transactionIndex": "0x55",
          "logIndex": "0xa1",
          "removed": false
        }
      ],
      "logsBloom": "0x00000000000000000000000000000000000000000600000000000000000000000000000000000000000000000000000000000000000000004000000000000000000000000000004000000008000000000000000000000000000000000000000000000000020000000000000000000800020000000000000000000010000000000000000000000000000000000000000000000000000000000000010000000000000000000000000000000000000000004000000000000000000000000000000000000002000000800000000000000000000000000000080000000000000020000000000000000000000000000000000000000000000000000000000000000000",
      "type": "0x2",
      "transactionHash": "0xd49c086d568ec3f792aea7a8ff0c7270594dd47cb3d6c1ef2998dc763cfc268c",
      "transactionIndex": "0x55",
      "blockHash": "0x27d15ea4dda0db1b5223a96299f9fcd5e99c861e4cbeec606dac0d46c4a537fa",
      "blockNumber": "0x731cb5",
      "gasUsed": "0xf844",
      "effectiveGasPrice": "0x10416fa6b",
      "from": "0xc77f7fed3b5cc8249adc428c5f44c9063b9734b4",
      "to": "0x8aafd3ede9adb0ff97c7aebce82a919afb1c8764",
      "contractAddress": null
    }
  ],
  "libraries": [],
  "pending": [],
  "returns": {},
  "timestamp": 1737512281,
  "chain": 11155111,
  "commit": "1d2fb70"
}