{
  "transactions": [
    {
      "hash": "0x1b16ac67a0a19cd5e51092de26e78ff4d3a499b9fcafeb8ae9e634304448156b",
      "transactionType": "CALL",
      "contractName": null,
      "contractAddress": "0x8aafd3ede9adb0ff97c7aebce82a919afb1c8764",
      "function": "buy(address)",
      "arguments": [
        "0xC77f7fed3b5Cc8249aDc428c5F44C9063B9734b4"
      ],
      "transaction": {
        "from": "0xc77f7fed3b5cc8249adc428c5f44c9063b9734b4",
        "to": "0x8aafd3ede9adb0ff97c7aebce82a919afb1c8764",
        "gas": "0x156ea",
        "value": "0xde0b6b3a7640000",
        "input": "0xf088d547000000000000000000000000c77f7fed3b5cc8249adc428c5f44c9063b9734b4",
        "nonce": "0x10f4",
        "chainId": "0xaa36a7"
      },
      "additionalContracts": [],
      "isFixedGasLimit": false
    }
  ],
  "receipts": [
    {
      "status": "0x1",
      "cumulativeGasUsed": "0x1140063",
      "logs": [
        {
          "address": "0x8aafd3ede9adb0ff97c7aebce82a919afb1c8764",
          "topics": [
            "0xddf252ad1be2c89b69c2b068fc378daa952ba7f163c4a11628f55a4df523b3ef",
            "0x0000000000000000000000000000000000000000000000000000000000000000",
            "0x000000000000000000000000c77f7fed3b5cc8249adc428c5f44c9063b9734b4"
          ],
          "data": "0x000000000000000000000000000000000000000000000025dc1543017042d9e2",
          "blockHash": "0x6effeddec3565efeceaa14687bd925e8bc6f64404bd966a972b750df67da805e",
          "blockNumber": "0x73179c",
          "transactionHash": "0x1b16ac67a0a19cd5e51092de26e78ff4d3a499b9fcafeb8ae9e634304448156b",
          "transactionIndex": "0xc0",
          "logIndex": "0x121",
          "removed": false
        },
        {
          "address": "0x8aafd3ede9adb0ff97c7aebce82a919afb1c8764",
          "topics": [
            "0xddf252ad1be2c89b69c2b068fc378daa952ba7f163c4a11628f55a4df523b3ef",
            "0x0000000000000000000000000000000000000000000000000000000000000000",
            "0x000000000000000000000000c77f7fed3b5cc8249adc428c5f44c9063b9734b4"
          ],
          "data": "0x0000000000000000000000000000000000000000000000001d663bab945f087b",
          "blockHash": "0x6effeddec3565efeceaa14687bd925e8bc6f64404bd966a972b750df67da805e",
          "blockNumber": "0x73179c",
          "transactionHash": "0x1b16ac67a0a19cd5e51092de26e78ff4d3a499b9fcafeb8ae9e634304448156b",
          "transactionIndex": "0xc0",
          "logIndex": "0x122",
          "removed": false
        },
        {
          "address": "0x8aafd3ede9adb0ff97c7aebce82a919afb1c8764",
          "topics": [
            "0x4afcb4a87cdbd9974efdb92ee48bc8d7cd0ae4bf217004db3d080cbaee652ca7"
          ],
          "data": "0x0000000000000000000000000000000000000000000000000000000067901814000000000000000000000000000000000000000000000000000509a9dc7d8dd70000000000000000000000000000000000000000000000000de0b6b3a7640000",
          "blockHash": "0x6effeddec3565efeceaa14687bd925e8bc6f64404bd966a972b750df67da805e",
          "blockNumber": "0x73179c",
          "transactionHash": "0x1b16ac67a0a19cd5e51092de26e78ff4d3a499b9fcafeb8ae9e634304448156b",
          "transactionIndex": "0xc0",
          "logIndex": "0x123",
          "removed": false
        }
      ],
      "logsBloom": "0x00000000000000000000000000000000000000000600000000000000000000000000000000000000000000000000000000000000000000004000000000000000000000000000004000000008000000000000000000000000000000000000000000000000020000000000000000000800020000000000000000000010000000000000000000000000000000000000000000000000000000000000010000000000000000000000000000000000000000004000000000000000000000000000000000000002000000800000000000000000000000000000080000000000000020000000000000000000000000000000000000000000000000000000000000000000",
      "type": "0x2",
      "transactionHash": "0x1b16ac67a0a19cd5e51092de26e78ff4d3a499b9fcafeb8ae9e634304448156b",
      "transactionIndex": "0xc0",
      "blockHash": "0x6effeddec3565efeceaa14687bd925e8bc6f64404bd966a972b750df67da805e",
      "blockNumber": "0x73179c",
      "gasUsed": "0xf844",
      "effectiveGasPrice": "0x3b9404a9",
      "from": "0xc77f7fed3b5cc8249adc428c5f44c9063b9734b4",
      "to": "0x8aafd3ede9adb0ff97c7aebce82a919afb1c8764",
      "contractAddress": null
    }
  ],
  "libraries": [],
  "pending": [],
  "returns": {},
  "timestamp": 1737496597,
  "chain": 11155111,
  "commit": "1d2fb70"
}