{
  "transactions": [
    {
      "hash": "0xce6aefda7111d1822239f746950c00bdc1c56562056f8205d3cc219850eb8e61",
      "transactionType": "CALL",
      "contractName": null,
      "contractAddress": "0x8aafd3ede9adb0ff97c7aebce82a919afb1c8764",
      "function": "sell(uint256)",
      "arguments": [
        "195751054"
      ],
      "transaction": {
        "from": "0xc77f7fed3b5cc8249adc428c5f44c9063b9734b4",
        "to": "0x8aafd3ede9adb0ff97c7aebce82a919afb1c8764",
        "gas": "0x14e6c",
        "value": "0x0",
        "input": "0xe4849b32000000000000000000000000000000000000000000000000000000000baaec8e",
        "nonce": "0xede",
        "chainId": "0xaa36a7"
      },
      "additionalContracts": [],
      "isFixedGasLimit": false
    }
  ],
  "receipts": [
    {
      "status": "0x1",
      "cumulativeGasUsed": "0xbce32a",
      "logs": [
        {
          "address": "0x8aafd3ede9adb0ff97c7aebce82a919afb1c8764",
          "topics": [
            "0xddf252ad1be2c89b69c2b068fc378daa952ba7f163c4a11628f55a4df523b3ef",
            "0x000000000000000000000000c77f7fed3b5cc8249adc428c5f44c9063b9734b4",
            "0x0000000000000000000000000000000000000000000000000000000000000000"
          ],
          "data": "0x000000000000000000000000000000000000000000000000000000000b930756",
          "blockHash": "0xf5f920441047c09f21bb44e57dc751f8c4015e2e92b78ef092ae02bfa8385bee",
          "blockNumber": "0x731454",
          "transactionHash": "0xce6aefda7111d1822239f746950c00bdc1c56562056f8205d3cc219850eb8e61",
          "transactionIndex": "0x94",
          "logIndex": "0xbb",
          "removed": false
        },
        {
          "address": "0x8aafd3ede9adb0ff97c7aebce82a919afb1c8764",
          "topics": [
            "0xddf252ad1be2c89b69c2b068fc378daa952ba7f163c4a11628f55a4df523b3ef",
            "0x000000000000000000000000c77f7fed3b5cc8249adc428c5f44c9063b9734b4",
            "0x000000000000000000000000c77f7fed3b5cc8249adc428c5f44c9063b9734b4"
          ],
          "data": "0x000000000000000000000000000000000000000000000000000000000017e538",
          "blockHash": "0xf5f920441047c09f21bb44e57dc751f8c4015e2e92b78ef092ae02bfa8385bee",
          "blockNumber": "0x731454",
          "transactionHash": "0xce6aefda7111d1822239f746950c00bdc1c56562056f8205d3cc219850eb8e61",
          "transactionIndex": "0x94",
          "logIndex": "0xbc",
          "removed": false
        },
        {
          "address": "0x8aafd3ede9adb0ff97c7aebce82a919afb1c8764",
          "topics": [
            "0x4afcb4a87cdbd9974efdb92ee48bc8d7cd0ae4bf217004db3d080cbaee652ca7"
          ],
          "data": "0x00000000000000000000000000000000000000000000000000000000678ff09c0000000000000000000000000000000000000000000000000004b9dca4822d0a000000000000000000000000000000000000000000000000000000000003f92f",
          "blockHash": "0xf5f920441047c09f21bb44e57dc751f8c4015e2e92b78ef092ae02bfa8385bee",
          "blockNumber": "0x731454",
          "transactionHash": "0xce6aefda7111d1822239f746950c00bdc1c56562056f8205d3cc219850eb8e61",
          "transactionIndex": "0x94",
          "logIndex": "0xbd",
          "removed": false
        }
      ],
      "logsBloom": "0x00000000000000000000000000000000000000000600000000000000000000000000000000000000000000000000000000000000000000004000000000000000000000000000004000000008000000000000000000000000000000000000000000000000020000000000000000000800020000000000000000000010000000000000000000000000000000000000000000000000000000000000010000000000000000000000000000000000000000004000000000000000000000000000000000000002000000800000000000000000000000000000080000000000000020000000000000000000000000000000000000000000000000000000000000000000",
      "type": "0x2",
      "transactionHash": "0xce6aefda7111d1822239f746950c00bdc1c56562056f8205d3cc219850eb8e61",
      "transactionIndex": "0x94",
      "blockHash": "0xf5f920441047c09f21bb44e57dc751f8c4015e2e92b78ef092ae02bfa8385bee",
      "blockNumber": "0x731454",
      "gasUsed": "0xf21f",
      "effectiveGasPrice": "0xaebfcff7",
      "from": "0xc77f7fed3b5cc8249adc428c5f44c9063b9734b4",
      "to": "0x8aafd3ede9adb0ff97c7aebce82a919afb1c8764",
      "contractAddress": null
    }
  ],
  "libraries": [],
  "pending": [],
  "returns": {},
  "timestamp": 1737486494,
  "chain": 11155111,
  "commit": "51a374b"
}