{
  "transactions": [
    {
      "hash": "0xaaa113084f9f8e2ae406830fff6e1911c66ddceb2cc03b6e22bc87a02fbd5505",
      "transactionType": "CALL",
      "contractName": null,
      "contractAddress": "0x270e88f8683660553e8ba4eb2ad7c91a1710d769",
      "function": "sell(uint256)",
      "arguments": [
        "976975410192944539674"
      ],
      "transaction": {
        "from": "0xc77f7fed3b5cc8249adc428c5f44c9063b9734b4",
        "to": "0x270e88f8683660553e8ba4eb2ad7c91a1710d769",
        "gas": "0x16fec",
        "value": "0x0",
        "input": "0xe4849b32000000000000000000000000000000000000000000000034f641e7553a01281a",
        "nonce": "0x53b",
        "chainId": "0xaa36a7"
      },
      "additionalContracts": [],
      "isFixedGasLimit": false
    }
  ],
  "receipts": [
    {
      "status": "0x1",
      "cumulativeGasUsed": "0x1e81d14",
      "logs": [
        {
          "address": "0x270e88f8683660553e8ba4eb2ad7c91a1710d769",
          "topics": [
            "0xddf252ad1be2c89b69c2b068fc378daa952ba7f163c4a11628f55a4df523b3ef",
            "0x000000000000000000000000c77f7fed3b5cc8249adc428c5f44c9063b9734b4",
            "0x0000000000000000000000000000000000000000000000000000000000000000"
          ],
          "data": "0x000000000000000000000000000000000000000000000034f641e7553a01281a",
          "blockHash": "0xe6e64a766ca18e1fd176297ec35f2224d8137d6faa66925b513fa0843e65136b",
          "blockNumber": "0x7251d7",
          "transactionHash": "0xaaa113084f9f8e2ae406830fff6e1911c66ddceb2cc03b6e22bc87a02fbd5505",
          "transactionIndex": "0x9c",
          "logIndex": "0x158",
          "removed": false
        },
        {
          "address": "0x270e88f8683660553e8ba4eb2ad7c91a1710d769",
          "topics": [
            "0x4afcb4a87cdbd9974efdb92ee48bc8d7cd0ae4bf217004db3d080cbaee652ca7"
          ],
          "data": "0x000000000000000000000000000000000000000000000000000000006786c80400000000000000000000000000000000000000000000000000039cb5319fcd330000000000000000000000000000000000000000000000000dc840ee163231d5",
          "blockHash": "0xe6e64a766ca18e1fd176297ec35f2224d8137d6faa66925b513fa0843e65136b",
          "blockNumber": "0x7251d7",
          "transactionHash": "0xaaa113084f9f8e2ae406830fff6e1911c66ddceb2cc03b6e22bc87a02fbd5505",
          "transactionIndex": "0x9c",
          "logIndex": "0x159",
          "removed": false
        }
      ],
      "logsBloom": "0x00000000000000000000000000000000000000000000000000000000000000000000000000000000000000000000000020000000000000004000000000000000000000000000000000000008000000000000000000000000000000000000000000000000020000000000000000000800020000000000000000000010000000000000000000010000000000000000000000000000000000000000010000000000000000000000000000000000000000004000000000000000000000000000000000000002000000800000000000000000000000000000080000008000000020000000000000000000000000000000000000000000000000000000000000000000",
      "type": "0x2",
      "transactionHash": "0xaaa113084f9f8e2ae406830fff6e1911c66ddceb2cc03b6e22bc87a02fbd5505",
      "transactionIndex": "0x9c",
      "blockHash": "0xe6e64a766ca18e1fd176297ec35f2224d8137d6faa66925b513fa0843e65136b",
      "blockNumber": "0x7251d7",
      "gasUsed": "0xfb93",
      "effectiveGasPrice": "0x407ca21d8",
      "from": "0xc77f7fed3b5cc8249adc428c5f44c9063b9734b4",
      "to": "0x270e88f8683660553e8ba4eb2ad7c91a1710d769",
      "contractAddress": null
    }
  ],
  "libraries": [],
  "pending": [],
  "returns": {},
  "timestamp": 1736886278,
  "chain": 11155111,
  "commit": "51a374b"
}