{
  "transactions": [
    {
      "hash": "0x5bb765e5c23a232e82359995fb7a291072eefb54b44ee2cc8ed5696c711f8271",
      "transactionType": "CALL",
      "contractName": null,
      "contractAddress": "0x8aafd3ede9adb0ff97c7aebce82a919afb1c8764",
      "function": "sell(uint256)",
      "arguments": [
        "9615473674873187"
      ],
      "transaction": {
        "from": "0xc77f7fed3b5cc8249adc428c5f44c9063b9734b4",
        "to": "0x8aafd3ede9adb0ff97c7aebce82a919afb1c8764",
        "gas": "0x1724d",
        "value": "0x0",
        "input": "0xe4849b3200000000000000000000000000000000000000000000000000222938ecbce963",
        "nonce": "0x172f",
        "chainId": "0xaa36a7"
      },
      "additionalContracts": [],
      "isFixedGasLimit": false
    }
  ],
  "receipts": [
    {
      "status": "0x1",
      "cumulativeGasUsed": "0x194dc60",
      "logs": [
        {
          "address": "0x8aafd3ede9adb0ff97c7aebce82a919afb1c8764",
          "topics": [
            "0xddf252ad1be2c89b69c2b068fc378daa952ba7f163c4a11628f55a4df523b3ef",
            "0x000000000000000000000000c77f7fed3b5cc8249adc428c5f44c9063b9734b4",
            "0x0000000000000000000000000000000000000000000000000000000000000000"
          ],
          "data": "0x0000000000000000000000000000000000000000000000000021e342b598959a",
          "blockHash": "0xc813e23bff44cc93285e91eba2508e609fc2281b611a580f6f6c2cbf6c26ee23",
          "blockNumber": "0x731ef9",
          "transactionHash": "0x5bb765e5c23a232e82359995fb7a291072eefb54b44ee2cc8ed5696c711f8271",
          "transactionIndex": "0x102",
          "logIndex": "0x12f",
          "removed": false
        },
        {
          "address": "0x8aafd3ede9adb0ff97c7aebce82a919afb1c8764",
          "topics": [
            "0xddf252ad1be2c89b69c2b068fc378daa952ba7f163c4a11628f55a4df523b3ef",
            "0x000000000000000000000000c77f7fed3b5cc8249adc428c5f44c9063b9734b4",
            "0x000000000000000000000000c77f7fed3b5cc8249adc428c5f44c9063b9734b4"
          ],
          "data": "0x000000000000000000000000000000000000000000000000000045f6372453c9",
          "blockHash": "0xc813e23bff44cc93285e91eba2508e609fc2281b611a580f6f6c2cbf6c26ee23",
          "blockNumber": "0x731ef9",
          "transactionHash": "0x5bb765e5c23a232e82359995fb7a291072eefb54b44ee2cc8ed5696c711f8271",
          "transactionIndex": "0x102",
          "logIndex": "0x130",
          "removed": false
        },
        {
          "address": "0x8aafd3ede9adb0ff97c7aebce82a919afb1c8764",
          "topics": [
            "0x4afcb4a87cdbd9974efdb92ee48bc8d7cd0ae4bf217004db3d080cbaee652ca7"
          ],
          "data": "0x0000000000000000000000000000000000000000000000000000000067907094000000000000000000000000000000000000000000000000001796239511452e00000000000000000000000000000000000000000000000000003a0f3ef2459d",
          "blockHash": "0xc813e23bff44cc93285e91eba2508e609fc2281b611a580f6f6c2cbf6c26ee23",
          "blockNumber": "0x731ef9",
          "transactionHash": "0x5bb765e5c23a232e82359995fb7a291072eefb54b44ee2cc8ed5696c711f8271",
          "transactionIndex": "0x102",
          "logIndex": "0x131",
          "removed": false
        }
      ],
      "logsBloom": "0x00000000000000000000000000000000000000000600000000000000000000000000000000000000000000000000000000000000000000004000000000000000000000000000004000000008000000000000000000000000000000000000000000000000020000000000000000000800020000000000000000000010000000000000000000000000000000000000000000000000000000000000010000000000000000000000000000000000000000004000000000000000000000000000000000000002000000800000000000000000000000000000080000000000000020000000000000000000000000000000000000000000000000000000000000000000",
      "type": "0x2",
      "transactionHash": "0x5bb765e5c23a232e82359995fb7a291072eefb54b44ee2cc8ed5696c711f8271",
      "transactionIndex": "0x102",
      "blockHash": "0xc813e23bff44cc93285e91eba2508e609fc2281b611a580f6f6c2cbf6c26ee23",
      "blockNumber": "0x731ef9",
      "gasUsed": "0xfd33",
      "effectiveGasPrice": "0x3917967e",
      "from": "0xc77f7fed3b5cc8249adc428c5f44c9063b9734b4",
      "to": "0x8aafd3ede9adb0ff97c7aebce82a919afb1c8764",
      "contractAddress": null
    }
  ],
  "libraries": [],
  "pending": [],
  "returns": {},
  "timestamp": 1737519253,
  "chain": 11155111,
  "commit": "1d2fb70"
}