{
  "transactions": [
    {
      "hash": "0xe6f0ed46c19822e4e28db3597a62a0a8d5ea27d08e352eb23e31938e6b228ad2",
      "transactionType": "CALL",
      "contractName": null,
      "contractAddress": "0xbf4a322f1496e5c3d34a9bcdb4c60567b38c7de2",
      "function": "buy(address)",
      "arguments": [
        "0xC77f7fed3b5Cc8249aDc428c5F44C9063B9734b4"
      ],
      "transaction": {
        "from": "0xc77f7fed3b5cc8249adc428c5f44c9063b9734b4",
        "to": "0xbf4a322f1496e5c3d34a9bcdb4c60567b38c7de2",
        "gas": "0x1b309",
        "value": "0xde0b6b3a7640000",
        "input": "0xf088d547000000000000000000000000c77f7fed3b5cc8249adc428c5f44c9063b9734b4",
        "nonce": "0xc18",
        "chainId": "0xaa36a7"
      },
      "additionalContracts": [],
      "isFixedGasLimit": false
    }
  ],
  "receipts": [
    {
      "status": "0x1",
      "cumulativeGasUsed": "0xc0d02a",
      "logs": [
        {
          "address": "0xbf4a322f1496e5c3d34a9bcdb4c60567b38c7de2",
          "topics": [
            "0xddf252ad1be2c89b69c2b068fc378daa952ba7f163c4a11628f55a4df523b3ef",
            "0x0000000000000000000000000000000000000000000000000000000000000000",
            "0x000000000000000000000000c77f7fed3b5cc8249adc428c5f44c9063b9734b4"
          ],
          "data": "0x000000000000000000000000000000000000000000000034f6e832439534a21b",
          "blockHash": "0x2aa5cb928e816e82aaa6c7d8639ca3ebac0028943922a2b532b8b8be0984ef22",
          "blockNumber": "0x725c44",
          "transactionHash": "0xe6f0ed46c19822e4e28db3597a62a0a8d5ea27d08e352eb23e31938e6b228ad2",
          "transactionIndex": "0x55",
          "logIndex": "0x7c",
          "removed": false
        },
        {
          "address": "0xbf4a322f1496e5c3d34a9bcdb4c60567b38c7de2",
          "topics": [
            "0xddf252ad1be2c89b69c2b068fc378daa952ba7f163c4a11628f55a4df523b3ef",
            "0x0000000000000000000000000000000000000000000000000000000000000000",
            "0x000000000000000000000000c77f7fed3b5cc8249adc428c5f44c9063b9734b4"
          ],
          "data": "0x0000000000000000000000000000000000000000000000002920f42ba8ebf24b",
          "blockHash": "0x2aa5cb928e816e82aaa6c7d8639ca3ebac0028943922a2b532b8b8be0984ef22",
          "blockNumber": "0x725c44",
          "transactionHash": "0xe6f0ed46c19822e4e28db3597a62a0a8d5ea27d08e352eb23e31938e6b228ad2",
          "transactionIndex": "0x55",
          "logIndex": "0x7d",
          "removed": false
        },
        {
          "address": "0xbf4a322f1496e5c3d34a9bcdb4c60567b38c7de2",
          "topics": [
            "0x4afcb4a87cdbd9974efdb92ee48bc8d7cd0ae4bf217004db3d080cbaee652ca7"
          ],
          "data": "0x000000000000000000000000000000000000000000000000000000006787458c00000000000000000000000000000000000000000000000000039995a91951020000000000000000000000000000000000000000000000000de0b6b3a7640000",
          "blockHash": "0x2aa5cb928e816e82aaa6c7d8639ca3ebac0028943922a2b532b8b8be0984ef22",
          "blockNumber": "0x725c44",
          "transactionHash": "0xe6f0ed46c19822e4e28db3597a62a0a8d5ea27d08e352eb23e31938e6b228ad2",
          "transactionIndex": "0x55",
          "logIndex": "0x7e",
          "removed": false
        }
      ],
      "logsBloom": "0x00000000000000000000000000000000000000000000000000000000000000000000000000000000000000000000000000000000000000004000000000000000000000000000000000000008000000000000001000000000000000000000000000000000020000000000000000000800020000000000000000000010000000000000000000000000000000000000000000000000000008000000010000000000000000000000000000000000000000004000000000000000000000000000000000000002000000800000000000001000000000000000080000000000000020000000000000000000000000000000000000000000000000000000000000000000",
      "type": "0x2",
      "transactionHash": "0xe6f0ed46c19822e4e28db3597a62a0a8d5ea27d08e352eb23e31938e6b228ad2",
      "transactionIndex": "0x55",
      "blockHash": "0x2aa5cb928e816e82aaa6c7d8639ca3ebac0028943922a2b532b8b8be0984ef22",
      "blockNumber": "0x725c44",
      "gasUsed": "0x13af6",
      "effectiveGasPrice": "0x1340ecc9b",
      "from": "0xc77f7fed3b5cc8249adc428c5f44c9063b9734b4",
      "to": "0xbf4a322f1496e5c3d34a9bcdb4c60567b38c7de2",
      "contractAddress": null
    }
  ],
  "libraries": [],
  "pending": [],
  "returns": {},
  "timestamp": 1736918414,
  "chain": 11155111,
  "commit": "51a374b"
}