{
  "transactions": [
    {
      "hash": "0x8f8e217f7c85d315a40522b5001d68cafbf18c6f6000ccb9a8af860bc0fd06ea",
      "transactionType": "CALL",
      "contractName": null,
      "contractAddress": "0xbf4a322f1496e5c3d34a9bcdb4c60567b38c7de2",
      "function": "sell(uint256)",
      "arguments": [
        "983759654279493773356"
      ],
      "transaction": {
        "from": "0xc77f7fed3b5cc8249adc428c5f44c9063b9734b4",
        "to": "0xbf4a322f1496e5c3d34a9bcdb4c60567b38c7de2",
        "gas": "0x16fea",
        "value": "0x0",
        "input": "0xe4849b32000000000000000000000000000000000000000000000035546861629a50e82c",
        "nonce": "0xb01",
        "chainId": "0xaa36a7"
      },
      "additionalContracts": [],
      "isFixedGasLimit": false
    }
  ],
  "receipts": [
    {
      "status": "0x1",
      "cumulativeGasUsed": "0xa14c9a",
      "logs": [
        {
          "address": "0xbf4a322f1496e5c3d34a9bcdb4c60567b38c7de2",
          "topics": [
            "0xddf252ad1be2c89b69c2b068fc378daa952ba7f163c4a11628f55a4df523b3ef",
            "0x000000000000000000000000c77f7fed3b5cc8249adc428c5f44c9063b9734b4",
            "0x0000000000000000000000000000000000000000000000000000000000000000"
          ],
          "data": "0x000000000000000000000000000000000000000000000035546861629a50e82c",
          "blockHash": "0x8b9cce3f451afa249bd7e5225300c87204278bd88073c22dc5dad6c5ec94aaee",
          "blockNumber": "0x725af6",
          "transactionHash": "0x8f8e217f7c85d315a40522b5001d68cafbf18c6f6000ccb9a8af860bc0fd06ea",
          "transactionIndex": "0x51",
          "logIndex": "0x85",
          "removed": false
        },
        {
          "address": "0xbf4a322f1496e5c3d34a9bcdb4c60567b38c7de2",
          "topics": [
            "0x4afcb4a87cdbd9974efdb92ee48bc8d7cd0ae4bf217004db3d080cbaee652ca7"
          ],
          "data": "0x00000000000000000000000000000000000000000000000000000000678735d800000000000000000000000000000000000000000000000000039610c57780260000000000000000000000000000000000000000000000000dc7e3eacebe20dd",
          "blockHash": "0x8b9cce3f451afa249bd7e5225300c87204278bd88073c22dc5dad6c5ec94aaee",
          "blockNumber": "0x725af6",
          "transactionHash": "0x8f8e217f7c85d315a40522b5001d68cafbf18c6f6000ccb9a8af860bc0fd06ea",
          "transactionIndex": "0x51",
          "logIndex": "0x86",
          "removed": false
        }
      ],
      "logsBloom": "0x00000000000000000000000000000000000000000000000000000000000000000000000000000000000000000000000000000000000000004000000000000000000000000000000000000008000000000000001000000000000000000000000000000000020000000000000000000800020000000000000000000010000000000000000000000000000000000000000000000000000008000000010000000000000000000000000000000000000000004000000000000000000000000000000000000002000000800000000000001000000000000000080000000000000020000000000000000000000000000000000000000000000000000000000000000000",
      "type": "0x2",
      "transactionHash": "0x8f8e217f7c85d315a40522b5001d68cafbf18c6f6000ccb9a8af860bc0fd06ea",
      "transactionIndex": "0x51",
      "blockHash": "0x8b9cce3f451afa249bd7e5225300c87204278bd88073c22dc5dad6c5ec94aaee",
      "blockNumber": "0x725af6",
      "gasUsed": "0xfb91",
      "effectiveGasPrice": "0xae0157ed",
      "from": "0xc77f7fed3b5cc8249adc428c5f44c9063b9734b4",
      "to": "0xbf4a322f1496e5c3d34a9bcdb4c60567b38c7de2",
      "contractAddress": null
    }
  ],
  "libraries": [],
  "pending": [],
  "returns": {},
  "timestamp": 1736914393,
  "chain": 11155111,
  "commit": "51a374b"
}