{
  "transactions": [
    {
      "hash": "0x17b8ce59413bc2da315b81e6b645ca1a62b9b3ce11c2e67392ed9f871f3cddce",
      "transactionType": "CALL",
      "contractName": null,
      "contractAddress": "0x8aafd3ede9adb0ff97c7aebce82a919afb1c8764",
      "function": "sell(uint256)",
      "arguments": [
        "11845"
      ],
      "transaction": {
        "from": "0xc77f7fed3b5cc8249adc428c5f44c9063b9734b4",
        "to": "0x8aafd3ede9adb0ff97c7aebce82a919afb1c8764",
        "gas": "0x14e4c",
        "value": "0x0",
        "input": "0xe4849b320000000000000000000000000000000000000000000000000000000000002e45",
        "nonce": "0x10b7",
        "chainId": "0xaa36a7"
      },
      "additionalContracts": [],
      "isFixedGasLimit": false
    }
  ],
  "receipts": [
    {
      "status": "0x1",
      "cumulativeGasUsed": "0xa8afff",
      "logs": [
        {
          "address": "0x8aafd3ede9adb0ff97c7aebce82a919afb1c8764",
          "topics": [
            "0xddf252ad1be2c89b69c2b068fc378daa952ba7f163c4a11628f55a4df523b3ef",
            "0x000000000000000000000000c77f7fed3b5cc8249adc428c5f44c9063b9734b4",
            "0x0000000000000000000000000000000000000000000000000000000000000000"
          ],
          "data": "0x0000000000000000000000000000000000000000000000000000000000002de7",
          "blockHash": "0xb29538b9f49cda146a643583644cac3fd981bdf02eb1cb42f7aa48b85a7b78c2",
          "blockNumber": "0x73174c",
          "transactionHash": "0x17b8ce59413bc2da315b81e6b645ca1a62b9b3ce11c2e67392ed9f871f3cddce",
          "transactionIndex": "0x74",
          "logIndex": "0xbe",
          "removed": false
        },
        {
          "address": "0x8aafd3ede9adb0ff97c7aebce82a919afb1c8764",
          "topics": [
            "0xddf252ad1be2c89b69c2b068fc378daa952ba7f163c4a11628f55a4df523b3ef",
            "0x000000000000000000000000c77f7fed3b5cc8249adc428c5f44c9063b9734b4",
            "0x000000000000000000000000c77f7fed3b5cc8249adc428c5f44c9063b9734b4"
          ],
          "data": "0x000000000000000000000000000000000000000000000000000000000000005e",
          "blockHash": "0xb29538b9f49cda146a643583644cac3fd981bdf02eb1cb42f7aa48b85a7b78c2",
          "blockNumber": "0x73174c",
          "transactionHash": "0x17b8ce59413bc2da315b81e6b645ca1a62b9b3ce11c2e67392ed9f871f3cddce",
          "transactionIndex": "0x74",
          "logIndex": "0xbf",
          "removed": false
        },
        {
          "address": "0x8aafd3ede9adb0ff97c7aebce82a919afb1c8764",
          "topics": [
            "0x4afcb4a87cdbd9974efdb92ee48bc8d7cd0ae4bf217004db3d080cbaee652ca7"
          ],
          "data": "0x00000000000000000000000000000000000000000000000000000000679014540000000000000000000000000000000000000000000000000005008a148981f30000000000000000000000000000000000000000000000000000000000000010",
          "blockHash": "0xb29538b9f49cda146a643583644cac3fd981bdf02eb1cb42f7aa48b85a7b78c2",
          "blockNumber": "0x73174c",
          "transactionHash": "0x17b8ce59413bc2da315b81e6b645ca1a62b9b3ce11c2e67392ed9f871f3cddce",
          "transactionIndex": "0x74",
          "logIndex": "0xc0",
          "removed": false
        }
      ],
      "logsBloom": "0x00000000000000000000000000000000000000000600000000000000000000000000000000000000000000000000000000000000000000004000000000000000000000000000004000000008000000000000000000000000000000000000000000000000020000000000000000000800020000000000000000000010000000000000000000000000000000000000000000000000000000000000010000000000000000000000000000000000000000004000000000000000000000000000000000000002000000800000000000000000000000000000080000000000000020000000000000000000000000000000000000000000000000000000000000000000",
      "type": "0x2",
      "transactionHash": "0x17b8ce59413bc2da315b81e6b645ca1a62b9b3ce11c2e67392ed9f871f3cddce",
      "transactionIndex": "0x74",
      "blockHash": "0xb29538b9f49cda146a643583644cac3fd981bdf02eb1cb42f7aa48b85a7b78c2",
      "blockNumber": "0x73174c",
      "gasUsed": "0xf207",
      "effectiveGasPrice": "0x4365ed64",
      "from": "0xc77f7fed3b5cc8249adc428c5f44c9063b9734b4",
      "to": "0x8aafd3ede9adb0ff97c7aebce82a919afb1c8764",
      "contractAddress": null
    }
  ],
  "libraries": [],
  "pending": [],
  "returns": {},
  "timestamp": 1737495636,
  "chain": 11155111,
  "commit": "1d2fb70"
}