{
  "transactions": [
    {
      "hash": "0x3f0a1db14b6996bb493ea0a6220bb7e4e4ef1b3e483705369e2876cc7f59a47d",
      "transactionType": "CALL",
      "contractName": null,
      "contractAddress": "0xbf4a322f1496e5c3d34a9bcdb4c60567b38c7de2",
      "function": "buy(address)",
      "arguments": [
        "0xC77f7fed3b5Cc8249aDc428c5F44C9063B9734b4"
      ],
      "transaction": {
        "from": "0xc77f7fed3b5cc8249adc428c5f44c9063b9734b4",
        "to": "0xbf4a322f1496e5c3d34a9bcdb4c60567b38c7de2",
        "gas": "0x1b309",
        "value": "0xde0b6b3a7640000",
        "input": "0xf088d547000000000000000000000000c77f7fed3b5cc8249adc428c5f44c9063b9734b4",
        "nonce": "0xc86",
        "chainId": "0xaa36a7"
      },
      "additionalContracts": [],
      "isFixedGasLimit": false
    }
  ],
  "receipts": [
    {
      "status": "0x1",
      "cumulativeGasUsed": "0x11da521",
      "logs": [
        {
          "address": "0xbf4a322f1496e5c3d34a9bcdb4c60567b38c7de2",
          "topics": [
            "0xddf252ad1be2c89b69c2b068fc378daa952ba7f163c4a11628f55a4df523b3ef",
            "0x0000000000000000000000000000000000000000000000000000000000000000",
            "0x000000000000000000000000c77f7fed3b5cc8249adc428c5f44c9063b9734b4"
          ],
          "data": "0x000000000000000000000000000000000000000000000034e28101ec8b457dbb",
          "blockHash": "0xf69b2d1560e9cc88544daf67c27c6a5451f7e5e61911eaafcf39f13e4e2f0ab3",
          "blockNumber": "0x725cc8",
          "transactionHash": "0x3f0a1db14b6996bb493ea0a6220bb7e4e4ef1b3e483705369e2876cc7f59a47d",
          "transactionIndex": "0x65",
          "logIndex": "0xe6",
          "removed": false
        },
        {
          "address": "0xbf4a322f1496e5c3d34a9bcdb4c60567b38c7de2",
          "topics": [
            "0xddf252ad1be2c89b69c2b068fc378daa952ba7f163c4a11628f55a4df523b3ef",
            "0x0000000000000000000000000000000000000000000000000000000000000000",
            "0x000000000000000000000000c77f7fed3b5cc8249adc428c5f44c9063b9734b4"
          ],
          "data": "0x00000000000000000000000000000000000000000000000029111c2faeab400c",
          "blockHash": "0xf69b2d1560e9cc88544daf67c27c6a5451f7e5e61911eaafcf39f13e4e2f0ab3",
          "blockNumber": "0x725cc8",
          "transactionHash": "0x3f0a1db14b6996bb493ea0a6220bb7e4e4ef1b3e483705369e2876cc7f59a47d",
          "transactionIndex": "0x65",
          "logIndex": "0xe7",
          "removed": false
        },
        {
          "address": "0xbf4a322f1496e5c3d34a9bcdb4c60567b38c7de2",
          "topics": [
            "0x4afcb4a87cdbd9974efdb92ee48bc8d7cd0ae4bf217004db3d080cbaee652ca7"
          ],
          "data": "0x0000000000000000000000000000000000000000000000000000000067874bd400000000000000000000000000000000000000000000000000039af934ea15510000000000000000000000000000000000000000000000000de0b6b3a7640000",
          "blockHash": "0xf69b2d1560e9cc88544daf67c27c6a5451f7e5e61911eaafcf39f13e4e2f0ab3",
          "blockNumber": "0x725cc8",
          "transactionHash": "0x3f0a1db14b6996bb493ea0a6220bb7e4e4ef1b3e483705369e2876cc7f59a47d",
          "transactionIndex": "0x65",
          "logIndex": "0xe8",
          "removed": false
        }
      ],
      "logsBloom": "0x00000000000000000000000000000000000000000000000000000000000000000000000000000000000000000000000000000000000000004000000000000000000000000000000000000008000000000000001000000000000000000000000000000000020000000000000000000800020000000000000000000010000000000000000000000000000000000000000000000000000008000000010000000000000000000000000000000000000000004000000000000000000000000000000000000002000000800000000000001000000000000000080000000000000020000000000000000000000000000000000000000000000000000000000000000000",
      "type": "0x2",
      "transactionHash": "0x3f0a1db14b6996bb493ea0a6220bb7e4e4ef1b3e483705369e2876cc7f59a47d",
      "transactionIndex": "0x65",
      "blockHash": "0xf69b2d1560e9cc88544daf67c27c6a5451f7e5e61911eaafcf39f13e4e2f0ab3",
      "blockNumber": "0x725cc8",
      "gasUsed": "0x13af6",
      "effectiveGasPrice": "0x2809ffe8a",
      "from": "0xc77f7fed3b5cc8249adc428c5f44c9063b9734b4",
      "to": "0xbf4a322f1496e5c3d34a9bcdb4c60567b38c7de2",
      "contractAddress": null
    }
  ],
  "libraries": [],
  "pending": [],
  "returns": {},
  "timestamp": 1736920022,
  "chain": 11155111,
  "commit": "51a374b"
}