{
  "transactions": [
    {
      "hash": "0xdfbb1cc26c98f02c1cd1c1a07c353828a1d925e411b5565f39adfc3fec7d91c2",
      "transactionType": "CALL",
      "contractName": null,
      "contractAddress": "0xbf4a322f1496e5c3d34a9bcdb4c60567b38c7de2",
      "function": "sell(uint256)",
      "arguments": [
        "985847656249032336983"
      ],
      "transaction": {
        "from": "0xc77f7fed3b5cc8249adc428c5f44c9063b9734b4",
        "to": "0xbf4a322f1496e5c3d34a9bcdb4c60567b38c7de2",
        "gas": "0x16fea",
        "value": "0x0",
        "input": "0xe4849b320000000000000000000000000000000000000000000000357162741d1efa6657",
        "nonce": "0xa67",
        "chainId": "0xaa36a7"
      },
      "additionalContracts": [],
      "isFixedGasLimit": false
    }
  ],
  "receipts": [
    {
      "status": "0x1",
      "cumulativeGasUsed": "0xb59ae3",
      "logs": [
        {
          "address": "0xbf4a322f1496e5c3d34a9bcdb4c60567b38c7de2",
          "topics": [
            "0xddf252ad1be2c89b69c2b068fc378daa952ba7f163c4a11628f55a4df523b3ef",
            "0x000000000000000000000000c77f7fed3b5cc8249adc428c5f44c9063b9734b4",
            "0x0000000000000000000000000000000000000000000000000000000000000000"
          ],
          "data": "0x0000000000000000000000000000000000000000000000357162741d1efa6657",
          "blockHash": "0xe2678f8f3bafd464e02d36aca82f138dcd3c135c5a99a4b7a806bdf86bf1e7f0",
          "blockNumber": "0x725a44",
          "transactionHash": "0xdfbb1cc26c98f02c1cd1c1a07c353828a1d925e411b5565f39adfc3fec7d91c2",
          "transactionIndex": "0x77",
          "logIndex": "0xbb",
          "removed": false
        },
        {
          "address": "0xbf4a322f1496e5c3d34a9bcdb4c60567b38c7de2",
          "topics": [
            "0x4afcb4a87cdbd9974efdb92ee48bc8d7cd0ae4bf217004db3d080cbaee652ca7"
          ],
          "data": "0x0000000000000000000000000000000000000000000000000000000067872d800000000000000000000000000000000000000000000000000003941f0215bcc60000000000000000000000000000000000000000000000000dc7e3efa9857922",
          "blockHash": "0xe2678f8f3bafd464e02d36aca82f138dcd3c135c5a99a4b7a806bdf86bf1e7f0",
          "blockNumber": "0x725a44",
          "transactionHash": "0xdfbb1cc26c98f02c1cd1c1a07c353828a1d925e411b5565f39adfc3fec7d91c2",
          "transactionIndex": "0x77",
          "logIndex": "0xbc",
          "removed": false
        }
      ],
      "logsBloom": "0x00000000000000000000000000000000000000000000000000000000000000000000000000000000000000000000000000000000000000004000000000000000000000000000000000000008000000000000001000000000000000000000000000000000020000000000000000000800020000000000000000000010000000000000000000000000000000000000000000000000000008000000010000000000000000000000000000000000000000004000000000000000000000000000000000000002000000800000000000001000000000000000080000000000000020000000000000000000000000000000000000000000000000000000000000000000",
      "type": "0x2",
      "transactionHash": "0xdfbb1cc26c98f02c1cd1c1a07c353828a1d925e411b5565f39adfc3fec7d91c2",
      "transactionIndex": "0x77",
      "blockHash": "0xe2678f8f3bafd464e02d36aca82f138dcd3c135c5a99a4b7a806bdf86bf1e7f0",
      "blockNumber": "0x725a44",
      "gasUsed": "0xfb91",
      "effectiveGasPrice": "0x3c257b44d",
      "from": "0xc77f7fed3b5cc8249adc428c5f44c9063b9734b4",
      "to": "0xbf4a322f1496e5c3d34a9bcdb4c60567b38c7de2",
      "contractAddress": null
    }
  ],
  "libraries": [],
  "pending": [],
  "returns": {},
  "timestamp": 1736912257,
  "chain": 11155111,
  "commit": "51a374b"
}