{
  "transactions": [
    {
      "hash": "0x8798b2d0d74fc55ce2015883e30ee0236dc5efd7b07eb1d37a692a6deee74393",
      "transactionType": "CALL",
      "contractName": null,
      "contractAddress": "0x8aafd3ede9adb0ff97c7aebce82a919afb1c8764",
      "function": "sell(uint256)",
      "arguments": [
        "5648597539125027844"
      ],
      "transaction": {
        "from": "0xc77f7fed3b5cc8249adc428c5f44c9063b9734b4",
        "to": "0x8aafd3ede9adb0ff97c7aebce82a919afb1c8764",
        "gas": "0x15dca",
        "value": "0x0",
        "input": "0xe4849b320000000000000000000000000000000000000000000000004e63d988c6b16404",
        "nonce": "0x10b0",
        "chainId": "0xaa36a7"
      },
      "additionalContracts": [],
      "isFixedGasLimit": false
    }
  ],
  "receipts": [
    {
      "status": "0x1",
      "cumulativeGasUsed": "0x2128635",
      "logs": [
        {
          "address": "0x8aafd3ede9adb0ff97c7aebce82a919afb1c8764",
          "topics": [
            "0xddf252ad1be2c89b69c2b068fc378daa952ba7f163c4a11628f55a4df523b3ef",
            "0x000000000000000000000000c77f7fed3b5cc8249adc428c5f44c9063b9734b4",
            "0x0000000000000000000000000000000000000000000000000000000000000000"
          ],
          "data": "0x0000000000000000000000000000000000000000000000004dc34e93f84daae6",
          "blockHash": "0x42e06d34711ea4a38fac0cbbf46c0728abd23819a823dfe03bfa0d412e84b01b",
          "blockNumber": "0x731744",
          "transactionHash": "0x8798b2d0d74fc55ce2015883e30ee0236dc5efd7b07eb1d37a692a6deee74393",
          "transactionIndex": "0x6b",
          "logIndex": "0x1107",
          "removed": false
        },
        {
          "address": "0x8aafd3ede9adb0ff97c7aebce82a919afb1c8764",
          "topics": [
            "0xddf252ad1be2c89b69c2b068fc378daa952ba7f163c4a11628f55a4df523b3ef",
            "0x000000000000000000000000c77f7fed3b5cc8249adc428c5f44c9063b9734b4",
            "0x000000000000000000000000c77f7fed3b5cc8249adc428c5f44c9063b9734b4"
          ],
          "data": "0x00000000000000000000000000000000000000000000000000a08af4ce63b91e",
          "blockHash": "0x42e06d34711ea4a38fac0cbbf46c0728abd23819a823dfe03bfa0d412e84b01b",
          "blockNumber": "0x731744",
          "transactionHash": "0x8798b2d0d74fc55ce2015883e30ee0236dc5efd7b07eb1d37a692a6deee74393",
          "transactionIndex": "0x6b",
          "logIndex": "0x1108",
          "removed": false
        },
        {
          "address": "0x8aafd3ede9adb0ff97c7aebce82a919afb1c8764",
          "topics": [
            "0x4afcb4a87cdbd9974efdb92ee48bc8d7cd0ae4bf217004db3d080cbaee652ca7"
          ],
          "data": "0x00000000000000000000000000000000000000000000000000000000679013f40000000000000000000000000000000000000000000000000005008a10284a84000000000000000000000000000000000000000000000000001c4134524fcfe8",
          "blockHash": "0x42e06d34711ea4a38fac0cbbf46c0728abd23819a823dfe03bfa0d412e84b01b",
          "blockNumber": "0x731744",
          "transactionHash": "0x8798b2d0d74fc55ce2015883e30ee0236dc5efd7b07eb1d37a692a6deee74393",
          "transactionIndex": "0x6b",
          "logIndex": "0x1109",
          "removed": false
        }
      ],
      "logsBloom": "0x00000000000000000000000000000000000000000600000000000000000000000000000000000000000000000000000000000000000000004000000000000000000000000000004000000008000000000000000000000000000000000000000000000000020000000000000000000800020000000000000000000010000000000000000000000000000000000000000000000000000000000000010000000000000000000000000000000000000000004000000000000000000000000000000000000002000000800000000000000000000000000000080000000000000020000000000000000000000000000000000000000000000000000000000000000000",
      "type": "0x2",
      "transactionHash": "0x8798b2d0d74fc55ce2015883e30ee0236dc5efd7b07eb1d37a692a6deee74393",
      "transactionIndex": "0x6b",
      "blockHash": "0x42e06d34711ea4a38fac0cbbf46c0728abd23819a823dfe03bfa0d412e84b01b",
      "blockNumber": "0x731744",
      "gasUsed": "0xfd3f",
      "effectiveGasPrice": "0x435953ae",
      "from": "0xc77f7fed3b5cc8249adc428c5f44c9063b9734b4",
      "to": "0x8aafd3ede9adb0ff97c7aebce82a919afb1c8764",
      "contractAddress": null
    }
  ],
  "libraries": [],
  "pending": [],
  "returns": {},
  "timestamp": 1737495542,
  "chain": 11155111,
  "commit": "1d2fb70"
}