{
  "transactions": [
    {
      "hash": "0x7a07c1232c2fc94ba7c7dc0e7667371b829c2b3ffde7d46f1f4677658c1a7f94",
      "transactionType": "CALL",
      "contractName": null,
      "contractAddress": "0x8aafd3ede9adb0ff97c7aebce82a919afb1c8764",
      "function": "sell(uint256)",
      "arguments": [
        "11779"
      ],
      "transaction": {
        "from": "0xc77f7fed3b5cc8249adc428c5f44c9063b9734b4",
        "to": "0x8aafd3ede9adb0ff97c7aebce82a919afb1c8764",
        "gas": "0x14e4c",
        "value": "0x0",
        "input": "0xe4849b320000000000000000000000000000000000000000000000000000000000002e03",
        "nonce": "0x10e9",
        "chainId": "0xaa36a7"
      },
      "additionalContracts": [],
      "isFixedGasLimit": false
    }
  ],
  "receipts": [
    {
      "status": "0x1",
      "cumulativeGasUsed": "0x20d5b49",
      "logs": [
        {
          "address": "0x8aafd3ede9adb0ff97c7aebce82a919afb1c8764",
          "topics": [
            "0xddf252ad1be2c89b69c2b068fc378daa952ba7f163c4a11628f55a4df523b3ef",
            "0x000000000000000000000000c77f7fed3b5cc8249adc428c5f44c9063b9734b4",
            "0x0000000000000000000000000000000000000000000000000000000000000000"
          ],
          "data": "0x0000000000000000000000000000000000000000000000000000000000002da5",
          "blockHash": "0x26ed98ce1b16a3176f5dfb47e4d3c4e747696b961e9e75cc858964fe2212e0c1",
          "blockNumber": "0x73178d",
          "transactionHash": "0x7a07c1232c2fc94ba7c7dc0e7667371b829c2b3ffde7d46f1f4677658c1a7f94",
          "transactionIndex": "0x54",
          "logIndex": "0x10f4",
          "removed": false
        },
        {
          "address": "0x8aafd3ede9adb0ff97c7aebce82a919afb1c8764",
          "topics": [
            "0xddf252ad1be2c89b69c2b068fc378daa952ba7f163c4a11628f55a4df523b3ef",
            "0x000000000000000000000000c77f7fed3b5cc8249adc428c5f44c9063b9734b4",
            "0x000000000000000000000000c77f7fed3b5cc8249adc428c5f44c9063b9734b4"
          ],
          "data": "0x000000000000000000000000000000000000000000000000000000000000005e",
          "blockHash": "0x26ed98ce1b16a3176f5dfb47e4d3c4e747696b961e9e75cc858964fe2212e0c1",
          "blockNumber": "0x73178d",
          "transactionHash": "0x7a07c1232c2fc94ba7c7dc0e7667371b829c2b3ffde7d46f1f4677658c1a7f94",
          "transactionIndex": "0x54",
          "logIndex": "0x10f5",
          "removed": false
        },
        {
          "address": "0x8aafd3ede9adb0ff97c7aebce82a919afb1c8764",
          "topics": [
            "0x4afcb4a87cdbd9974efdb92ee48bc8d7cd0ae4bf217004db3d080cbaee652ca7"
          ],
          "data": "0x0000000000000000000000000000000000000000000000000000000067901760000000000000000000000000000000000000000000000000000507cd2f2af6ff0000000000000000000000000000000000000000000000000000000000000010",
          "blockHash": "0x26ed98ce1b16a3176f5dfb47e4d3c4e747696b961e9e75cc858964fe2212e0c1",
          "blockNumber": "0x73178d",
          "transactionHash": "0x7a07c1232c2fc94ba7c7dc0e7667371b829c2b3ffde7d46f1f4677658c1a7f94",
          "transactionIndex": "0x54",
          "logIndex": "0x10f6",
          "removed": false
        }
      ],
      "logsBloom": "0x00000000000000000000000000000000000000000600000000000000000000000000000000000000000000000000000000000000000000004000000000000000000000000000004000000008000000000000000000000000000000000000000000000000020000000000000000000800020000000000000000000010000000000000000000000000000000000000000000000000000000000000010000000000000000000000000000000000000000004000000000000000000000000000000000000002000000800000000000000000000000000000080000000000000020000000000000000000000000000000000000000000000000000000000000000000",
      "type": "0x2",
      "transactionHash": "0x7a07c1232c2fc94ba7c7dc0e7667371b829c2b3ffde7d46f1f4677658c1a7f94",
      "transactionIndex": "0x54",
      "blockHash": "0x26ed98ce1b16a3176f5dfb47e4d3c4e747696b961e9e75cc858964fe2212e0c1",
      "blockNumber": "0x73178d",
      "gasUsed": "0xf207",
      "effectiveGasPrice": "0x42dddeca",
      "from": "0xc77f7fed3b5cc8249adc428c5f44c9063b9734b4",
      "to": "0x8aafd3ede9adb0ff97c7aebce82a919afb1c8764",
      "contractAddress": null
    }
  ],
  "libraries": [],
  "pending": [],
  "returns": {},
  "timestamp": 1737496418,
  "chain": 11155111,
  "commit": "1d2fb70"
}