{
  "transactions": [
    {
      "hash": "0x799ca50a2464fdca2fb9b0050c4b6ef10ab6efdb39a1f341b225034d81b796e3",
      "transactionType": "CALL",
      "contractName": null,
      "contractAddress": "0x8aafd3ede9adb0ff97c7aebce82a919afb1c8764",
      "function": "sell(uint256)",
      "arguments": [
        "2935407243610"
      ],
      "transaction": {
        "from": "0xc77f7fed3b5cc8249adc428c5f44c9063b9734b4",
        "to": "0x8aafd3ede9adb0ff97c7aebce82a919afb1c8764",
        "gas": "0x15daa",
        "value": "0x0",
        "input": "0xe4849b32000000000000000000000000000000000000000000000000000002ab73e7f15a",
        "nonce": "0x1031",
        "chainId": "0xaa36a7"
      },
      "additionalContracts": [],
      "isFixedGasLimit": false
    }
  ],
  "receipts": [
    {
      "status": "0x1",
      "cumulativeGasUsed": "0xecfe3b",
      "logs": [
        {
          "address": "0x8aafd3ede9adb0ff97c7aebce82a919afb1c8764",
          "topics": [
            "0xddf252ad1be2c89b69c2b068fc378daa952ba7f163c4a11628f55a4df523b3ef",
            "0x000000000000000000000000c77f7fed3b5cc8249adc428c5f44c9063b9734b4",
            "0x0000000000000000000000000000000000000000000000000000000000000000"
          ],
          "data": "0x000000000000000000000000000000000000000000000000000002a5fc31dcfe",
          "blockHash": "0x7de26324ea953c6ee03a4eb0fcdd9e8b9dfc7fcb7c3ddd6b2af12da2b8aff73d",
          "blockNumber": "0x7316ae",
          "transactionHash": "0x799ca50a2464fdca2fb9b0050c4b6ef10ab6efdb39a1f341b225034d81b796e3",
          "transactionIndex": "0xa6",
          "logIndex": "0xcd",
          "removed": false
        },
        {
          "address": "0x8aafd3ede9adb0ff97c7aebce82a919afb1c8764",
          "topics": [
            "0xddf252ad1be2c89b69c2b068fc378daa952ba7f163c4a11628f55a4df523b3ef",
            "0x000000000000000000000000c77f7fed3b5cc8249adc428c5f44c9063b9734b4",
            "0x000000000000000000000000c77f7fed3b5cc8249adc428c5f44c9063b9734b4"
          ],
          "data": "0x0000000000000000000000000000000000000000000000000000000577b6145c",
          "blockHash": "0x7de26324ea953c6ee03a4eb0fcdd9e8b9dfc7fcb7c3ddd6b2af12da2b8aff73d",
          "blockNumber": "0x7316ae",
          "transactionHash": "0x799ca50a2464fdca2fb9b0050c4b6ef10ab6efdb39a1f341b225034d81b796e3",
          "transactionIndex": "0xa6",
          "logIndex": "0xce",
          "removed": false
        },
        {
          "address": "0x8aafd3ede9adb0ff97c7aebce82a919afb1c8764",
          "topics": [
            "0x4afcb4a87cdbd9974efdb92ee48bc8d7cd0ae4bf217004db3d080cbaee652ca7"
          ],
          "data": "0x0000000000000000000000000000000000000000000000000000000067900cd40000000000000000000000000000000000000000000000000004eda90c28fde300000000000000000000000000000000000000000000000000000000f2b63324",
          "blockHash": "0x7de26324ea953c6ee03a4eb0fcdd9e8b9dfc7fcb7c3ddd6b2af12da2b8aff73d",
          "blockNumber": "0x7316ae",
          "transactionHash": "0x799ca50a2464fdca2fb9b0050c4b6ef10ab6efdb39a1f341b225034d81b796e3",
          "transactionIndex": "0xa6",
          "logIndex": "0xcf",
          "removed": false
        }
      ],
      "logsBloom": "0x00000000000000000000000000000000000000000600000000000000000000000000000000000000000000000000000000000000000000004000000000000000000000000000004000000008000000000000000000000000000000000000000000000000020000000000000000000800020000000000000000000010000000000000000000000000000000000000000000000000000000000000010000000000000000000000000000000000000000004000000000000000000000000000000000000002000000800000000000000000000000000000080000000000000020000000000000000000000000000000000000000000000000000000000000000000",
      "type": "0x2",
      "transactionHash": "0x799ca50a2464fdca2fb9b0050c4b6ef10ab6efdb39a1f341b225034d81b796e3",
      "transactionIndex": "0xa6",
      "blockHash": "0x7de26324ea953c6ee03a4eb0fcdd9e8b9dfc7fcb7c3ddd6b2af12da2b8aff73d",
      "blockNumber": "0x7316ae",
      "gasUsed": "0xfd27",
      "effectiveGasPrice": "0x416d2215",
      "from": "0xc77f7fed3b5cc8249adc428c5f44c9063b9734b4",
      "to": "0x8aafd3ede9adb0ff97c7aebce82a919afb1c8764",
      "contractAddress": null
    }
  ],
  "libraries": [],
  "pending": [],
  "returns": {},
  "timestamp": 1737493717,
  "chain": 11155111,
  "commit": "1d2fb70"
}