{
  "transactions": [
    {
      "hash": "0x3c38a58fb253712b17ca0a3718eef19f3b19df0fd994f6627dc92a161a1536a0",
      "transactionType": "CALL",
      "contractName": null,
      "contractAddress": "0x270e88f8683660553e8ba4eb2ad7c91a1710d769",
      "function": "buy(address)",
      "arguments": [
        "0xC77f7fed3b5Cc8249aDc428c5F44C9063B9734b4"
      ],
      "transaction": {
        "from": "0xc77f7fed3b5cc8249adc428c5f44c9063b9734b4",
        "to": "0x270e88f8683660553e8ba4eb2ad7c91a1710d769",
        "gas": "0x1b30c",
        "value": "0xde0b6b3a7640000",
        "input": "0xf088d547000000000000000000000000c77f7fed3b5cc8249adc428c5f44c9063b9734b4",
        "nonce": "0x59a",
        "chainId": "0xaa36a7"
      },
      "additionalContracts": [],
      "isFixedGasLimit": false
    }
  ],
  "receipts": [
    {
      "status": "0x1",
      "cumulativeGasUsed": "0x8ded18",
      "logs": [
        {
          "address": "0x270e88f8683660553e8ba4eb2ad7c91a1710d769",
          "topics": [
            "0xddf252ad1be2c89b69c2b068fc378daa952ba7f163c4a11628f55a4df523b3ef",
            "0x0000000000000000000000000000000000000000000000000000000000000000",
            "0x000000000000000000000000c77f7fed3b5cc8249adc428c5f44c9063b9734b4"
          ],
          "data": "0x00000000000000000000000000000000000000000000003402fe5efb25b59f3c",
          "blockHash": "0x786ad50c712fe40c063bc41e0b235e6778bcaf9c8e7ba5d3aeb988729d35685b",
          "blockNumber": "0x72524f",
          "transactionHash": "0x3c38a58fb253712b17ca0a3718eef19f3b19df0fd994f6627dc92a161a1536a0",
          "transactionIndex": "0x4d",
          "logIndex": "0x91",
          "removed": false
        },
        {
          "address": "0x270e88f8683660553e8ba4eb2ad7c91a1710d769",
          "topics": [
            "0xddf252ad1be2c89b69c2b068fc378daa952ba7f163c4a11628f55a4df523b3ef",
            "0x0000000000000000000000000000000000000000000000000000000000000000",
            "0x000000000000000000000000c77f7fed3b5cc8249adc428c5f44c9063b9734b4"
          ],
          "data": "0x00000000000000000000000000000000000000000000000028638bf69ad0c551",
          "blockHash": "0x786ad50c712fe40c063bc41e0b235e6778bcaf9c8e7ba5d3aeb988729d35685b",
          "blockNumber": "0x72524f",
          "transactionHash": "0x3c38a58fb253712b17ca0a3718eef19f3b19df0fd994f6627dc92a161a1536a0",
          "transactionIndex": "0x4d",
          "logIndex": "0x92",
          "removed": false
        },
        {
          "address": "0x270e88f8683660553e8ba4eb2ad7c91a1710d769",
          "topics": [
            "0x4afcb4a87cdbd9974efdb92ee48bc8d7cd0ae4bf217004db3d080cbaee652ca7"
          ],
          "data": "0x000000000000000000000000000000000000000000000000000000006786cda40000000000000000000000000000000000000000000000000003aa8fdd49b9910000000000000000000000000000000000000000000000000de0b6b3a7640000",
          "blockHash": "0x786ad50c712fe40c063bc41e0b235e6778bcaf9c8e7ba5d3aeb988729d35685b",
          "blockNumber": "0x72524f",
          "transactionHash": "0x3c38a58fb253712b17ca0a3718eef19f3b19df0fd994f6627dc92a161a1536a0",
          "transactionIndex": "0x4d",
          "logIndex": "0x93",
          "removed": false
        }
      ],
      "logsBloom": "0x00000000000000000000000000000000000000000000000000000000000000000000000000000000000000000000000020000000000000004000000000000000000000000000000000000008000000000000000000000000000000000000000000000000020000000000000000000800020000000000000000000010000000000000000000010000000000000000000000000000000000000000010000000000000000000000000000000000000000004000000000000000000000000000000000000002000000800000000000000000000000000000080000008000000020000000000000000000000000000000000000000000000000000000000000000000",
      "type": "0x2",
      "transactionHash": "0x3c38a58fb253712b17ca0a3718eef19f3b19df0fd994f6627dc92a161a1536a0",
      "transactionIndex": "0x4d",
      "blockHash": "0x786ad50c712fe40c063bc41e0b235e6778bcaf9c8e7ba5d3aeb988729d35685b",
      "blockNumber": "0x72524f",
      "gasUsed": "0x13af8",
      "effectiveGasPrice": "0x4877b188d",
      "from": "0xc77f7fed3b5cc8249adc428c5f44c9063b9734b4",
      "to": "0x270e88f8683660553e8ba4eb2ad7c91a1710d769",
      "contractAddress": null
    }
  ],
  "libraries": [],
  "pending": [],
  "returns": {},
  "timestamp": 1736887718,
  "chain": 11155111,
  "commit": "51a374b"
}