{
  "transactions": [
    {
      "hash": "0x8ffa43730e2a855a6a80891b33e9e2c60815e4f2ac62ca26d16d5dc3efd2a161",
      "transactionType": "CALL",
      "contractName": null,
      "contractAddress": "0x8aafd3ede9adb0ff97c7aebce82a919afb1c8764",
      "function": "sell(uint256)",
      "arguments": [
        "182907768902094326894"
      ],
      "transaction": {
        "from": "0xc77f7fed3b5cc8249adc428c5f44c9063b9734b4",
        "to": "0x8aafd3ede9adb0ff97c7aebce82a919afb1c8764",
        "gas": "0x17270",
        "value": "0x0",
        "input": "0xe4849b32000000000000000000000000000000000000000000000009ea5aeebac4928c6e",
        "nonce": "0x15c5",
        "chainId": "0xaa36a7"
      },
      "additionalContracts": [],
      "isFixedGasLimit": false
    }
  ],
  "receipts": [
    {
      "status": "0x1",
      "cumulativeGasUsed": "0x1317e30",
      "logs": [
        {
          "address": "0x8aafd3ede9adb0ff97c7aebce82a919afb1c8764",
          "topics": [
            "0xddf252ad1be2c89b69c2b068fc378daa952ba7f163c4a11628f55a4df523b3ef",
            "0x000000000000000000000000c77f7fed3b5cc8249adc428c5f44c9063b9734b4",
            "0x0000000000000000000000000000000000000000000000000000000000000000"
          ],
          "data": "0x000000000000000000000000000000000000000000000009d60c618e44061cb7",
          "blockHash": "0x790204e6bd3f69f8cc9f893ea5e58fea473aa793713b59e3c982f5b317cea1de",
          "blockNumber": "0x731d40",
          "transactionHash": "0x8ffa43730e2a855a6a80891b33e9e2c60815e4f2ac62ca26d16d5dc3efd2a161",
          "transactionIndex": "0x75",
          "logIndex": "0xc2",
          "removed": false
        },
        {
          "address": "0x8aafd3ede9adb0ff97c7aebce82a919afb1c8764",
          "topics": [
            "0xddf252ad1be2c89b69c2b068fc378daa952ba7f163c4a11628f55a4df523b3ef",
            "0x000000000000000000000000c77f7fed3b5cc8249adc428c5f44c9063b9734b4",
            "0x000000000000000000000000c77f7fed3b5cc8249adc428c5f44c9063b9734b4"
          ],
          "data": "0x000000000000000000000000000000000000000000000000144e8d2c808c6fb7",
          "blockHash": "0x790204e6bd3f69f8cc9f893ea5e58fea473aa793713b59e3c982f5b317cea1de",
          "blockNumber": "0x731d40",
          "transactionHash": "0x8ffa43730e2a855a6a80891b33e9e2c60815e4f2ac62ca26d16d5dc3efd2a161",
          "transactionIndex": "0x75",
          "logIndex": "0xc3",
          "removed": false
        },
        {
          "address": "0x8aafd3ede9adb0ff97c7aebce82a919afb1c8764",
          "topics": [
            "0x4afcb4a87cdbd9974efdb92ee48bc8d7cd0ae4bf217004db3d080cbaee652ca7"
          ],
          "data": "0x0000000000000000000000000000000000000000000000000000000067905be80000000000000000000000000000000000000000000000000013642f6bb87cd30000000000000000000000000000000000000000000000000dcc9e72d65b499a",
          "blockHash": "0x790204e6bd3f69f8cc9f893ea5e58fea473aa793713b59e3c982f5b317cea1de",
          "blockNumber": "0x731d40",
          "transactionHash": "0x8ffa43730e2a855a6a80891b33e9e2c60815e4f2ac62ca26d16d5dc3efd2a161",
          "transactionIndex": "0x75",
          "logIndex": "0xc4",
          "removed": false
        }
      ],
      "logsBloom": "0x00000000000000000000000000000000000000000600000000000000000000000000000000000000000000000000000000000000000000004000000000000000000000000000004000000008000000000000000000000000000000000000000000000000020000000000000000000800020000000000000000000010000000000000000000000000000000000000000000000000000000000000010000000000000000000000000000000000000000004000000000000000000000000000000000000002000000800000000000000000000000000000080000000000000020000000000000000000000000000000000000000000000000000000000000000000",
      "type": "0x2",
      "transactionHash": "0x8ffa43730e2a855a6a80891b33e9e2c60815e4f2ac62ca26d16d5dc3efd2a161",
      "transactionIndex": "0x75",
      "blockHash": "0x790204e6bd3f69f8cc9f893ea5e58fea473aa793713b59e3c982f5b317cea1de",
      "blockNumber": "0x731d40",
      "gasUsed": "0xfd4b",
      "effectiveGasPrice": "0x63a8f7b9",
      "from": "0xc77f7fed3b5cc8249adc428c5f44c9063b9734b4",
      "to": "0x8aafd3ede9adb0ff97c7aebce82a919afb1c8764",
      "contractAddress": null
    }
  ],
  "libraries": [],
  "pending": [],
  "returns": {},
  "timestamp": 1737513962,
  "chain": 11155111,
  "commit": "1d2fb70"
}