{
  "transactions": [
    {
      "hash": "0x799cd79d074be9a5c214b8332ca497dfc92005b068dcf4135cc5e4811b0c3c69",
      "transactionType": "CALL",
      "contractName": null,
      "contractAddress": "0x8aafd3ede9adb0ff97c7aebce82a919afb1c8764",
      "function": "sell(uint256)",
      "arguments": [
        "19703126572656885"
      ],
      "transaction": {
        "from": "0xc77f7fed3b5cc8249adc428c5f44c9063b9734b4",
        "to": "0x8aafd3ede9adb0ff97c7aebce82a919afb1c8764",
        "gas": "0x1724d",
        "value": "0x0",
        "input": "0xe4849b320000000000000000000000000000000000000000000000000045ffe3a453e8f5",
        "nonce": "0x131b",
        "chainId": "0xaa36a7"
      },
      "additionalContracts": [],
      "isFixedGasLimit": false
    }
  ],
  "receipts": [
    {
      "status": "0x1",
      "cumulativeGasUsed": "0xb23106",
      "logs": [
        {
          "address": "0x8aafd3ede9adb0ff97c7aebce82a919afb1c8764",
          "topics": [
            "0xddf252ad1be2c89b69c2b068fc378daa952ba7f163c4a11628f55a4df523b3ef",
            "0x000000000000000000000000c77f7fed3b5cc8249adc428c5f44c9063b9734b4",
            "0x0000000000000000000000000000000000000000000000000000000000000000"
          ],
          "data": "0x00000000000000000000000000000000000000000000000000457087b571f56e",
          "blockHash": "0x4deff2b8b58fdc6a28d2b4de507fbe8cb3ac9cd42c3d38e9f582a390c728c079",
          "blockNumber": "0x731a28",
          "transactionHash": "0x799cd79d074be9a5c214b8332ca497dfc92005b068dcf4135cc5e4811b0c3c69",
          "transactionIndex": "0x8c",
          "logIndex": "0xa8",
          "removed": false
        },
        {
          "address": "0x8aafd3ede9adb0ff97c7aebce82a919afb1c8764",
          "topics": [
            "0xddf252ad1be2c89b69c2b068fc378daa952ba7f163c4a11628f55a4df523b3ef",
            "0x000000000000000000000000c77f7fed3b5cc8249adc428c5f44c9063b9734b4",
            "0x000000000000000000000000c77f7fed3b5cc8249adc428c5f44c9063b9734b4"
          ],
          "data": "0x00000000000000000000000000000000000000000000000000008f5beee1f387",
          "blockHash": "0x4deff2b8b58fdc6a28d2b4de507fbe8cb3ac9cd42c3d38e9f582a390c728c079",
          "blockNumber": "0x731a28",
          "transactionHash": "0x799cd79d074be9a5c214b8332ca497dfc92005b068dcf4135cc5e4811b0c3c69",
          "transactionIndex": "0x8c",
          "logIndex": "0xa9",
          "removed": false
        },
        {
          "address": "0x8aafd3ede9adb0ff97c7aebce82a919afb1c8764",
          "topics": [
            "0x4afcb4a87cdbd9974efdb92ee48bc8d7cd0ae4bf217004db3d080cbaee652ca7"
          ],
          "data": "0x00000000000000000000000000000000000000000000000000000000679036b0000000000000000000000000000000000000000000000000000b8f7f08f9e9fb00000000000000000000000000000000000000000000000000003a4fb196406c",
          "blockHash": "0x4deff2b8b58fdc6a28d2b4de507fbe8cb3ac9cd42c3d38e9f582a390c728c079",
          "blockNumber": "0x731a28",
          "transactionHash": "0x799cd79d074be9a5c214b8332ca497dfc92005b068dcf4135cc5e4811b0c3c69",
          "transactionIndex": "0x8c",
          "logIndex": "0xaa",
          "removed": false
        }
      ],
      "logsBloom": "0x00000000000000000000000000000000000000000600000000000000000000000000000000000000000000000000000000000000000000004000000000000000000000000000004000000008000000000000000000000000000000000000000000000000020000000000000000000800020000000000000000000010000000000000000000000000000000000000000000000000000000000000010000000000000000000000000000000000000000004000000000000000000000000000000000000002000000800000000000000000000000000000080000000000000020000000000000000000000000000000000000000000000000000000000000000000",
      "type": "0x2",
      "transactionHash": "0x799cd79d074be9a5c214b8332ca497dfc92005b068dcf4135cc5e4811b0c3c69",
      "transactionIndex": "0x8c",
      "blockHash": "0x4deff2b8b58fdc6a28d2b4de507fbe8cb3ac9cd42c3d38e9f582a390c728c079",
      "blockNumber": "0x731a28",
      "gasUsed": "0xfd33",
      "effectiveGasPrice": "0x421ae9f2",
      "from": "0xc77f7fed3b5cc8249adc428c5f44c9063b9734b4",
      "to": "0x8aafd3ede9adb0ff97c7aebce82a919afb1c8764",
      "contractAddress": null
    }
  ],
  "libraries": [],
  "pending": [],
  "returns": {},
  "timestamp": 1737504434,
  "chain": 11155111,
  "commit": "1d2fb70"
}