{
  "transactions": [
    {
      "hash": "0x7c1ee63679a6c81bc4d4c4e1222cf7374bf6d3ba07a09956e4eacf207a6f2368",
      "transactionType": "CALL",
      "contractName": null,
      "contractAddress": "0x8aafd3ede9adb0ff97c7aebce82a919afb1c8764",
      "function": "sell(uint256)",
      "arguments": [
        "5919914035958303520"
      ],
      "transaction": {
        "from": "0xc77f7fed3b5cc8249adc428c5f44c9063b9734b4",
        "to": "0x8aafd3ede9adb0ff97c7aebce82a919afb1c8764",
        "gas": "0x15dca",
        "value": "0x0",
        "input": "0xe4849b320000000000000000000000000000000000000000000000005227c2735e24cb20",
        "nonce": "0xfcc",
        "chainId": "0xaa36a7"
      },
      "additionalContracts": [],
      "isFixedGasLimit": false
    }
  ],
  "receipts": [
    {
      "status": "0x1",
      "cumulativeGasUsed": "0x127e572",
      "logs": [
        {
          "address": "0x8aafd3ede9adb0ff97c7aebce82a919afb1c8764",
          "topics": [
            "0xddf252ad1be2c89b69c2b068fc378daa952ba7f163c4a11628f55a4df523b3ef",
            "0x000000000000000000000000c77f7fed3b5cc8249adc428c5f44c9063b9734b4",
            "0x0000000000000000000000000000000000000000000000000000000000000000"
          ],
          "data": "0x000000000000000000000000000000000000000000000000517f8168346e3a24",
          "blockHash": "0x699878f749b78928ee12f71051471bba9d10763d2093ed92f2ad74065d98aefe",
          "blockNumber": "0x731639",
          "transactionHash": "0x7c1ee63679a6c81bc4d4c4e1222cf7374bf6d3ba07a09956e4eacf207a6f2368",
          "transactionIndex": "0x94",
          "logIndex": "0xa5",
          "removed": false
        },
        {
          "address": "0x8aafd3ede9adb0ff97c7aebce82a919afb1c8764",
          "topics": [
            "0xddf252ad1be2c89b69c2b068fc378daa952ba7f163c4a11628f55a4df523b3ef",
            "0x000000000000000000000000c77f7fed3b5cc8249adc428c5f44c9063b9734b4",
            "0x000000000000000000000000c77f7fed3b5cc8249adc428c5f44c9063b9734b4"
          ],
          "data": "0x00000000000000000000000000000000000000000000000000a8410b29b690fc",
          "blockHash": "0x699878f749b78928ee12f71051471bba9d10763d2093ed92f2ad74065d98aefe",
          "blockNumber": "0x731639",
          "transactionHash": "0x7c1ee63679a6c81bc4d4c4e1222cf7374bf6d3ba07a09956e4eacf207a6f2368",
          "transactionIndex": "0x94",
          "logIndex": "0xa6",
          "removed": false
        },
        {
          "address": "0x8aafd3ede9adb0ff97c7aebce82a919afb1c8764",
          "topics": [
            "0x4afcb4a87cdbd9974efdb92ee48bc8d7cd0ae4bf217004db3d080cbaee652ca7"
          ],
          "data": "0x00000000000000000000000000000000000000000000000000000000679007580000000000000000000000000000000000000000000000000004c4cafa55ea68000000000000000000000000000000000000000000000000001c3afa5bd77063",
          "blockHash": "0x699878f749b78928ee12f71051471bba9d10763d2093ed92f2ad74065d98aefe",
          "blockNumber": "0x731639",
          "transactionHash": "0x7c1ee63679a6c81bc4d4c4e1222cf7374bf6d3ba07a09956e4eacf207a6f2368",
          "transactionIndex": "0x94",
          "logIndex": "0xa7",
          "removed": false
        }
      ],
      "logsBloom": "0x00000000000000000000000000000000000000000600000000000000000000000000000000000000000000000000000000000000000000004000000000000000000000000000004000000008000000000000000000000000000000000000000000000000020000000000000000000800020000000000000000000010000000000000000000000000000000000000000000000000000000000000010000000000000000000000000000000000000000004000000000000000000000000000000000000002000000800000000000000000000000000000080000000000000020000000000000000000000000000000000000000000000000000000000000000000",
      "type": "0x2",
      "transactionHash": "0x7c1ee63679a6c81bc4d4c4e1222cf7374bf6d3ba07a09956e4eacf207a6f2368",
      "transactionIndex": "0x94",
      "blockHash": "0x699878f749b78928ee12f71051471bba9d10763d2093ed92f2ad74065d98aefe",
      "blockNumber": "0x731639",
      "gasUsed": "0xfd3f",
      "effectiveGasPrice": "0x52758f35",
      "from": "0xc77f7fed3b5cc8249adc428c5f44c9063b9734b4",
      "to": "0x8aafd3ede9adb0ff97c7aebce82a919afb1c8764",
      "contractAddress": null
    }
  ],
  "libraries": [],
  "pending": [],
  "returns": {},
  "timestamp": 1737492313,
  "chain": 11155111,
  "commit": "1d2fb70"
}