{
  "transactions": [
    {
      "hash": "0xc313886fd78b87a01662b0cfd9ba40960b1a4cbfab70ed9a09ab5bfe9f7cc03c",
      "transactionType": "CALL",
      "contractName": null,
      "contractAddress": "0x8aafd3ede9adb0ff97c7aebce82a919afb1c8764",
      "function": "sell(uint256)",
      "arguments": [
        "2784556376994"
      ],
      "transaction": {
        "from": "0xc77f7fed3b5cc8249adc428c5f44c9063b9734b4",
        "to": "0x8aafd3ede9adb0ff97c7aebce82a919afb1c8764",
        "gas": "0x15daa",
        "value": "0x0",
        "input": "0xe4849b3200000000000000000000000000000000000000000000000000000288547e63a2",
        "nonce": "0x1207",
        "chainId": "0xaa36a7"
      },
      "additionalContracts": [],
      "isFixedGasLimit": false
    }
  ],
  "receipts": [
    {
      "status": "0x1",
      "cumulativeGasUsed": "0x21f4837",
      "logs": [
        {
          "address": "0x8aafd3ede9adb0ff97c7aebce82a919afb1c8764",
          "topics": [
            "0xddf252ad1be2c89b69c2b068fc378daa952ba7f163c4a11628f55a4df523b3ef",
            "0x000000000000000000000000c77f7fed3b5cc8249adc428c5f44c9063b9734b4",
            "0x0000000000000000000000000000000000000000000000000000000000000000"
          ],
          "data": "0x0000000000000000000000000000000000000000000000000000028324b6b8db",
          "blockHash": "0xbd4b2764548bdd4857f314f7beeeee148d069cae8ee39e301a9cd690d8d58115",
          "blockNumber": "0x7318e2",
          "transactionHash": "0xc313886fd78b87a01662b0cfd9ba40960b1a4cbfab70ed9a09ab5bfe9f7cc03c",
          "transactionIndex": "0x77",
          "logIndex": "0x10ea",
          "removed": false
        },
        {
          "address": "0x8aafd3ede9adb0ff97c7aebce82a919afb1c8764",
          "topics": [
            "0xddf252ad1be2c89b69c2b068fc378daa952ba7f163c4a11628f55a4df523b3ef",
            "0x000000000000000000000000c77f7fed3b5cc8249adc428c5f44c9063b9734b4",
            "0x000000000000000000000000c77f7fed3b5cc8249adc428c5f44c9063b9734b4"
          ],
          "data": "0x000000000000000000000000000000000000000000000000000000052fc7aac7",
          "blockHash": "0xbd4b2764548bdd4857f314f7beeeee148d069cae8ee39e301a9cd690d8d58115",
          "blockNumber": "0x7318e2",
          "transactionHash": "0xc313886fd78b87a01662b0cfd9ba40960b1a4cbfab70ed9a09ab5bfe9f7cc03c",
          "transactionIndex": "0x77",
          "logIndex": "0x10eb",
          "removed": false
        },
        {
          "address": "0x8aafd3ede9adb0ff97c7aebce82a919afb1c8764",
          "topics": [
            "0x4afcb4a87cdbd9974efdb92ee48bc8d7cd0ae4bf217004db3d080cbaee652ca7"
          ],
          "data": "0x0000000000000000000000000000000000000000000000000000000067902768000000000000000000000000000000000000000000000000000531ee962594ba00000000000000000000000000000000000000000000000000000000f2b291fe",
          "blockHash": "0xbd4b2764548bdd4857f314f7beeeee148d069cae8ee39e301a9cd690d8d58115",
          "blockNumber": "0x7318e2",
          "transactionHash": "0xc313886fd78b87a01662b0cfd9ba40960b1a4cbfab70ed9a09ab5bfe9f7cc03c",
          "transactionIndex": "0x77",
          "logIndex": "0x10ec",
          "removed": false
        }
      ],
      "logsBloom": "0x00000000000000000000000000000000000000000600000000000000000000000000000000000000000000000000000000000000000000004000000000000000000000000000004000000008000000000000000000000000000000000000000000000000020000000000000000000800020000000000000000000010000000000000000000000000000000000000000000000000000000000000010000000000000000000000000000000000000000004000000000000000000000000000000000000002000000800000000000000000000000000000080000000000000020000000000000000000000000000000000000000000000000000000000000000000",
      "type": "0x2",
      "transactionHash": "0xc313886fd78b87a01662b0cfd9ba40960b1a4cbfab70ed9a09ab5bfe9f7cc03c",
      "transactionIndex": "0x77",
      "blockHash": "0xbd4b2764548bdd4857f314f7beeeee148d069cae8ee39e301a9cd690d8d58115",
      "blockNumber": "0x7318e2",
      "gasUsed": "0xfd27",
      "effectiveGasPrice": "0x3e2fbffe",
      "from": "0xc77f7fed3b5cc8249adc428c5f44c9063b9734b4",
      "to": "0x8aafd3ede9adb0ff97c7aebce82a919afb1c8764",
      "contractAddress": null
    }
  ],
  "libraries": [],
  "pending": [],
  "returns": {},
  "timestamp": 1737500521,
  "chain": 11155111,
  "commit": "1d2fb70"
}