{
  "transactions": [
    {
      "hash": "0x8dcd7d9e8795be447853ead291f5a0beb08df9513264ba9c7c800c8bb27fb235",
      "transactionType": "CALL",
      "contractName": null,
      "contractAddress": "0x5eb9cc76c3506942c1c0ead70e877dd5e4f00cb0",
      "function": "buy(address)",
      "arguments": [
        "0xC77f7fed3b5Cc8249aDc428c5F44C9063B9734b4"
      ],
      "transaction": {
        "from": "0xc77f7fed3b5cc8249adc428c5f44c9063b9734b4",
        "to": "0x5eb9cc76c3506942c1c0ead70e877dd5e4f00cb0",
        "gas": "0x1b30c",
        "value": "0xde0b6b3a7640000",
        "input": "0xf088d547000000000000000000000000c77f7fed3b5cc8249adc428c5f44c9063b9734b4",
        "nonce": "0x37a",
        "chainId": "0xaa36a7"
      },
      "additionalContracts": [],
      "isFixedGasLimit": false
    }
  ],
  "receipts": [
    {
      "status": "0x1",
      "cumulativeGasUsed": "0xf22280",
      "logs": [
        {
          "address": "0x5eb9cc76c3506942c1c0ead70e877dd5e4f00cb0",
          "topics": [
            "0xddf252ad1be2c89b69c2b068fc378daa952ba7f163c4a11628f55a4df523b3ef",
            "0x0000000000000000000000000000000000000000000000000000000000000000",
            "0x000000000000000000000000c77f7fed3b5cc8249adc428c5f44c9063b9734b4"
          ],
          "data": "0x000000000000000000000000000000000000000000000035754ddadd46c9fbfc",
          "blockHash": "0x99adf6ab5f71579bb248a69b64ef5ce6e8868242620595a534cc8759efaabc76",
          "blockNumber": "0x724f73",
          "transactionHash": "0x8dcd7d9e8795be447853ead291f5a0beb08df9513264ba9c7c800c8bb27fb235",
          "transactionIndex": "0x66",
          "logIndex": "0x11f",
          "removed": false
        },
        {
          "address": "0x5eb9cc76c3506942c1c0ead70e877dd5e4f00cb0",
          "topics": [
            "0xddf252ad1be2c89b69c2b068fc378daa952ba7f163c4a11628f55a4df523b3ef",
            "0x0000000000000000000000000000000000000000000000000000000000000000",
            "0x000000000000000000000000c77f7fed3b5cc8249adc428c5f44c9063b9734b4"
          ],
          "data": "0x00000000000000000000000000000000000000000000000029831aff04667680",
          "blockHash": "0x99adf6ab5f71579bb248a69b64ef5ce6e8868242620595a534cc8759efaabc76",
          "blockNumber": "0x724f73",
          "transactionHash": "0x8dcd7d9e8795be447853ead291f5a0beb08df9513264ba9c7c800c8bb27fb235",
          "transactionIndex": "0x66",
          "logIndex": "0x120",
          "removed": false
        },
        {
          "address": "0x5eb9cc76c3506942c1c0ead70e877dd5e4f00cb0",
          "topics": [
            "0x4afcb4a87cdbd9974efdb92ee48bc8d7cd0ae4bf217004db3d080cbaee652ca7"
          ],
          "data": "0x000000000000000000000000000000000000000000000000000000006786ab180000000000000000000000000000000000000000000000000003911060b743910000000000000000000000000000000000000000000000000de0b6b3a7640000",
          "blockHash": "0x99adf6ab5f71579bb248a69b64ef5ce6e8868242620595a534cc8759efaabc76",
          "blockNumber": "0x724f73",
          "transactionHash": "0x8dcd7d9e8795be447853ead291f5a0beb08df9513264ba9c7c800c8bb27fb235",
          "transactionIndex": "0x66",
          "logIndex": "0x121",
          "removed": false
        }
      ],
      "logsBloom": "0x00000000000000000000000000000000000000000000000000000000000000000000000000000000000000000000000000000000000000004000000000000000000000000000000000000008000000000000000000000000000000000000000000000000020000000000000004000800020000000000000000000010000000000000000000000000000000000000000000000000000000000000010000000000000000000000000000000000000000004000000000000000000000000000020000000002000000800000008000000000000000000000080000000000000020000000000000000000000000000000000000000000000000000000000000000000",
      "type": "0x2",
      "transactionHash": "0x8dcd7d9e8795be447853ead291f5a0beb08df9513264ba9c7c800c8bb27fb235",
      "transactionIndex": "0x66",
      "blockHash": "0x99adf6ab5f71579bb248a69b64ef5ce6e8868242620595a534cc8759efaabc76",
      "blockNumber": "0x724f73",
      "gasUsed": "0x13af8",
      "effectiveGasPrice": "0x5caf937e4",
      "from": "0xc77f7fed3b5cc8249adc428c5f44c9063b9734b4",
      "to": "0x5eb9cc76c3506942c1c0ead70e877dd5e4f00cb0",
      "contractAddress": null
    }
  ],
  "libraries": [],
  "pending": [],
  "returns": {},
  "timestamp": 1736878874,
  "chain": 11155111,
  "commit": "51a374b"
}