{
  "transactions": [
    {
      "hash": "0xf91a2cdda22b783363554916b93289e9c26f67529e6cfd8f46ad3c4718de66de",
      "transactionType": "CALL",
      "contractName": null,
      "contractAddress": "0x270e88f8683660553e8ba4eb2ad7c91a1710d769",
      "function": "buy(address)",
      "arguments": [
        "0xC77f7fed3b5Cc8249aDc428c5F44C9063B9734b4"
      ],
      "transaction": {
        "from": "0xc77f7fed3b5cc8249adc428c5f44c9063b9734b4",
        "to": "0x270e88f8683660553e8ba4eb2ad7c91a1710d769",
        "gas": "0x1b30c",
        "value": "0xde0b6b3a7640000",
        "input": "0xf088d547000000000000000000000000c77f7fed3b5cc8249adc428c5f44c9063b9734b4",
        "nonce": "0x865",
        "chainId": "0xaa36a7"
      },
      "additionalContracts": [],
      "isFixedGasLimit": false
    }
  ],
  "receipts": [
    {
      "status": "0x1",
      "cumulativeGasUsed": "0x171b39c",
      "logs": [
        {
          "address": "0x270e88f8683660553e8ba4eb2ad7c91a1710d769",
          "topics": [
            "0xddf252ad1be2c89b69c2b068fc378daa952ba7f163c4a11628f55a4df523b3ef",
            "0x0000000000000000000000000000000000000000000000000000000000000000",
            "0x000000000000000000000000c77f7fed3b5cc8249adc428c5f44c9063b9734b4"
          ],
          "data": "0x0000000000000000000000000000000000000000000000269c10670ea4e89451",
          "blockHash": "0x2cbb9aa0ff505f25825f1654d5be6fb9c3fa669e95f975998706729538a47433",
          "blockNumber": "0x7255ba",
          "transactionHash": "0xf91a2cdda22b783363554916b93289e9c26f67529e6cfd8f46ad3c4718de66de",
          "transactionIndex": "0x42",
          "logIndex": "0x16b",
          "removed": false
        },
        {
          "address": "0x270e88f8683660553e8ba4eb2ad7c91a1710d769",
          "topics": [
            "0xddf252ad1be2c89b69c2b068fc378daa952ba7f163c4a11628f55a4df523b3ef",
            "0x0000000000000000000000000000000000000000000000000000000000000000",
            "0x000000000000000000000000c77f7fed3b5cc8249adc428c5f44c9063b9734b4"
          ],
          "data": "0x0000000000000000000000000000000000000000000000001dfb5019fb0c8838",
          "blockHash": "0x2cbb9aa0ff505f25825f1654d5be6fb9c3fa669e95f975998706729538a47433",
          "blockNumber": "0x7255ba",
          "transactionHash": "0xf91a2cdda22b783363554916b93289e9c26f67529e6cfd8f46ad3c4718de66de",
          "transactionIndex": "0x42",
          "logIndex": "0x16c",
          "removed": false
        },
        {
          "address": "0x270e88f8683660553e8ba4eb2ad7c91a1710d769",
          "topics": [
            "0x4afcb4a87cdbd9974efdb92ee48bc8d7cd0ae4bf217004db3d080cbaee652ca7"
          ],
          "data": "0x000000000000000000000000000000000000000000000000000000006786f6c00000000000000000000000000000000000000000000000000004f0513771b1ed0000000000000000000000000000000000000000000000000de0b6b3a7640000",
          "blockHash": "0x2cbb9aa0ff505f25825f1654d5be6fb9c3fa669e95f975998706729538a47433",
          "blockNumber": "0x7255ba",
          "transactionHash": "0xf91a2cdda22b783363554916b93289e9c26f67529e6cfd8f46ad3c4718de66de",
          "transactionIndex": "0x42",
          "logIndex": "0x16d",
          "removed": false
        }
      ],
      "logsBloom": "0x00000000000000000000000000000000000000000000000000000000000000000000000000000000000000000000000020000000000000004000000000000000000000000000000000000008000000000000000000000000000000000000000000000000020000000000000000000800020000000000000000000010000000000000000000010000000000000000000000000000000000000000010000000000000000000000000000000000000000004000000000000000000000000000000000000002000000800000000000000000000000000000080000008000000020000000000000000000000000000000000000000000000000000000000000000000",
      "type": "0x2",
      "transactionHash": "0xf91a2cdda22b783363554916b93289e9c26f67529e6cfd8f46ad3c4718de66de",
      "transactionIndex": "0x42",
      "blockHash": "0x2cbb9aa0ff505f25825f1654d5be6fb9c3fa669e95f975998706729538a47433",
      "blockNumber": "0x7255ba",
      "gasUsed": "0x13af8",
      "effectiveGasPrice": "0x92bb6c5d",
      "from": "0xc77f7fed3b5cc8249adc428c5f44c9063b9734b4",
      "to": "0x270e88f8683660553e8ba4eb2ad7c91a1710d769",
      "contractAddress": null
    }
  ],
  "libraries": [],
  "pending": [],
  "returns": {},
  "timestamp": 1736898242,
  "chain": 11155111,
  "commit": "51a374b"
}