{
  "transactions": [
    {
      "hash": "0x9cb50cc2372479dce297512b7f4549137443c4a41c0494e7c4c20c6edb6b89cf",
      "transactionType": "CALL",
      "contractName": null,
      "contractAddress": "0xd7bc75898e513accccf720a874d44dab5a4b6223",
      "function": "sell(uint256)",
      "arguments": [
        "9929991490328377021"
      ],
      "transaction": {
        "from": "0xc77f7fed3b5cc8249adc428c5f44c9063b9734b4",
        "to": "0xd7bc75898e513accccf720a874d44dab5a4b6223",
        "gas": "0x15b6b",
        "value": "0x0",
        "input": "0xe4849b3200000000000000000000000000000000000000000000000089ce6aa62bacb6bd",
        "nonce": "0xf7",
        "chainId": "0xaa36a7"
      },
      "additionalContracts": [],
      "isFixedGasLimit": false
    }
  ],
  "receipts": [
    {
      "status": "0x1",
      "cumulativeGasUsed": "0x579f4",
      "logs": [
        {
          "address": "0xd7bc75898e513accccf720a874d44dab5a4b6223",
          "topics": [
            "0xddf252ad1be2c89b69c2b068fc378daa952ba7f163c4a11628f55a4df523b3ef",
            "0x000000000000000000000000c77f7fed3b5cc8249adc428c5f44c9063b9734b4",
            "0x0000000000000000000000000000000000000000000000000000000000000000"
          ],
          "data": "0x00000000000000000000000000000000000000000000000089ce6aa62bacb6bd",
          "blockHash": "0xb68834bcc1d8bbec949ac6027e847b11d805c31332f80612bd4786640a2eea84",
          "blockNumber": "0x723986",
          "transactionHash": "0x9cb50cc2372479dce297512b7f4549137443c4a41c0494e7c4c20c6edb6b89cf",
          "transactionIndex": "0x5",
          "logIndex": "0x3",
          "removed": false
        },
        {
          "address": "0xd7bc75898e513accccf720a874d44dab5a4b6223",
          "topics": [
            "0x4afcb4a87cdbd9974efdb92ee48bc8d7cd0ae4bf217004db3d080cbaee652ca7"
          ],
          "data": "0x000000000000000000000000000000000000000000000000000000006785a39c00000000000000000000000000000000000000000000000000038d7f8c4d5cdc0000000000000000000000000000000000000000000000000023474f493d2797",
          "blockHash": "0xb68834bcc1d8bbec949ac6027e847b11d805c31332f80612bd4786640a2eea84",
          "blockNumber": "0x723986",
          "transactionHash": "0x9cb50cc2372479dce297512b7f4549137443c4a41c0494e7c4c20c6edb6b89cf",
          "transactionIndex": "0x5",
          "logIndex": "0x4",
          "removed": false
        }
      ],
      "logsBloom": "0x00000000000000000000000000000000000000000000000000000000000000000000000000000000000000000000000000000000000000004000000000000000000000000000000000000008000000000000000000000000000000000000000000000000020000000000000000000800020000000000000000000010000000000000000000000000000000000000000000000000000000000000010000000000000000000000000000000000000000004000001000000000000000000000000000000002000000800000000000004000000000000000080000000000000020000000000000000000000000000000000000000000080000000000000000000000",
      "type": "0x2",
      "transactionHash": "0x9cb50cc2372479dce297512b7f4549137443c4a41c0494e7c4c20c6edb6b89cf",
      "transactionIndex": "0x5",
      "blockHash": "0xb68834bcc1d8bbec949ac6027e847b11d805c31332f80612bd4786640a2eea84",
      "blockNumber": "0x723986",
      "gasUsed": "0xfb87",
      "effectiveGasPrice": "0x1305a897c",
      "from": "0xc77f7fed3b5cc8249adc428c5f44c9063b9734b4",
      "to": "0xd7bc75898e513accccf720a874d44dab5a4b6223",
      "contractAddress": null
    }
  ],
  "libraries": [],
  "pending": [],
  "returns": {},
  "timestamp": 1736811422,
  "chain": 11155111,
  "commit": "51a374b"
}