{
  "transactions": [
    {
      "hash": "0xeb751581cfb61d48c38a823b2fc6bbb53efc7f9e4d4ff460b3f37cc55517634f",
      "transactionType": "CALL",
      "contractName": null,
      "contractAddress": "0x270e88f8683660553e8ba4eb2ad7c91a1710d769",
      "function": "sell(uint256)",
      "arguments": [
        "963257603933550664672"
      ],
      "transaction": {
        "from": "0xc77f7fed3b5cc8249adc428c5f44c9063b9734b4",
        "to": "0x270e88f8683660553e8ba4eb2ad7c91a1710d769",
        "gas": "0x16fec",
        "value": "0x0",
        "input": "0xe4849b3200000000000000000000000000000000000000000000003437e277385533dbe0",
        "nonce": "0x595",
        "chainId": "0xaa36a7"
      },
      "additionalContracts": [],
      "isFixedGasLimit": false
    }
  ],
  "receipts": [
    {
      "status": "0x1",
      "cumulativeGasUsed": "0x15843d7",
      "logs": [
        {
          "address": "0x270e88f8683660553e8ba4eb2ad7c91a1710d769",
          "topics": [
            "0xddf252ad1be2c89b69c2b068fc378daa952ba7f163c4a11628f55a4df523b3ef",
            "0x000000000000000000000000c77f7fed3b5cc8249adc428c5f44c9063b9734b4",
            "0x0000000000000000000000000000000000000000000000000000000000000000"
          ],
          "data": "0x00000000000000000000000000000000000000000000003437e277385533dbe0",
          "blockHash": "0x3b54264d1260cb037f39f468fc8205ffc66db3c216112a8d8a6bfa4bf9100c90",
          "blockNumber": "0x72524a",
          "transactionHash": "0xeb751581cfb61d48c38a823b2fc6bbb53efc7f9e4d4ff460b3f37cc55517634f",
          "transactionIndex": "0x6b",
          "logIndex": "0xa6",
          "removed": false
        },
        {
          "address": "0x270e88f8683660553e8ba4eb2ad7c91a1710d769",
          "topics": [
            "0x4afcb4a87cdbd9974efdb92ee48bc8d7cd0ae4bf217004db3d080cbaee652ca7"
          ],
          "data": "0x000000000000000000000000000000000000000000000000000000006786cd680000000000000000000000000000000000000000000000000003a9df59a77d430000000000000000000000000000000000000000000000000dc83f856163c62c",
          "blockHash": "0x3b54264d1260cb037f39f468fc8205ffc66db3c216112a8d8a6bfa4bf9100c90",
          "blockNumber": "0x72524a",
          "transactionHash": "0xeb751581cfb61d48c38a823b2fc6bbb53efc7f9e4d4ff460b3f37cc55517634f",
          "transactionIndex": "0x6b",
          "logIndex": "0xa7",
          "removed": false
        }
      ],
      "logsBloom": "0x00000000000000000000000000000000000000000000000000000000000000000000000000000000000000000000000020000000000000004000000000000000000000000000000000000008000000000000000000000000000000000000000000000000020000000000000000000800020000000000000000000010000000000000000000010000000000000000000000000000000000000000010000000000000000000000000000000000000000004000000000000000000000000000000000000002000000800000000000000000000000000000080000008000000020000000000000000000000000000000000000000000000000000000000000000000",
      "type": "0x2",
      "transactionHash": "0xeb751581cfb61d48c38a823b2fc6bbb53efc7f9e4d4ff460b3f37cc55517634f",
      "transactionIndex": "0x6b",
      "blockHash": "0x3b54264d1260cb037f39f468fc8205ffc66db3c216112a8d8a6bfa4bf9100c90",
      "blockNumber": "0x72524a",
      "gasUsed": "0xfb93",
      "effectiveGasPrice": "0x4c06173ea",
      "from": "0xc77f7fed3b5cc8249adc428c5f44c9063b9734b4",
      "to": "0x270e88f8683660553e8ba4eb2ad7c91a1710d769",
      "contractAddress": null
    }
  ],
  "libraries": [],
  "pending": [],
  "returns": {},
  "timestamp": 1736887657,
  "chain": 11155111,
  "commit": "51a374b"
}