{
  "transactions": [
    {
      "hash": "0x96357524b67b9b37a7bb9918a982280169cec42c7511bd84a2550bd3a4096bf1",
      "transactionType": "CALL",
      "contractName": null,
      "contractAddress": "0x270e88f8683660553e8ba4eb2ad7c91a1710d769",
      "function": "sell(uint256)",
      "arguments": [
        "719383740522761911339"
      ],
      "transaction": {
        "from": "0xc77f7fed3b5cc8249adc428c5f44c9063b9734b4",
        "to": "0x270e88f8683660553e8ba4eb2ad7c91a1710d769",
        "gas": "0x16fec",
        "value": "0x0",
        "input": "0xe4849b32000000000000000000000000000000000000000000000026ff74748c0b017c2b",
        "nonce": "0x82a",
        "chainId": "0xaa36a7"
      },
      "additionalContracts": [],
      "isFixedGasLimit": false
    }
  ],
  "receipts": [
    {
      "status": "0x1",
      "cumulativeGasUsed": "0xa1b45d",
      "logs": [
        {
          "address": "0x270e88f8683660553e8ba4eb2ad7c91a1710d769",
          "topics": [
            "0xddf252ad1be2c89b69c2b068fc378daa952ba7f163c4a11628f55a4df523b3ef",
            "0x000000000000000000000000c77f7fed3b5cc8249adc428c5f44c9063b9734b4",
            "0x0000000000000000000000000000000000000000000000000000000000000000"
          ],
          "data": "0x000000000000000000000000000000000000000000000026ff74748c0b017c2b",
          "blockHash": "0xd10c0ae72136f449e5d27501e0fd887a2ee4032f43c7c7a3c650b13cc44725a7",
          "blockNumber": "0x725572",
          "transactionHash": "0x96357524b67b9b37a7bb9918a982280169cec42c7511bd84a2550bd3a4096bf1",
          "transactionIndex": "0x4e",
          "logIndex": "0x81",
          "removed": false
        },
        {
          "address": "0x270e88f8683660553e8ba4eb2ad7c91a1710d769",
          "topics": [
            "0x4afcb4a87cdbd9974efdb92ee48bc8d7cd0ae4bf217004db3d080cbaee652ca7"
          ],
          "data": "0x000000000000000000000000000000000000000000000000000000006786f3600000000000000000000000000000000000000000000000000004e7b75101673c0000000000000000000000000000000000000000000000000dc8265d92f0cd07",
          "blockHash": "0xd10c0ae72136f449e5d27501e0fd887a2ee4032f43c7c7a3c650b13cc44725a7",
          "blockNumber": "0x725572",
          "transactionHash": "0x96357524b67b9b37a7bb9918a982280169cec42c7511bd84a2550bd3a4096bf1",
          "transactionIndex": "0x4e",
          "logIndex": "0x82",
          "removed": false
        }
      ],
      "logsBloom": "0x00000000000000000000000000000000000000000000000000000000000000000000000000000000000000000000000020000000000000004000000000000000000000000000000000000008000000000000000000000000000000000000000000000000020000000000000000000800020000000000000000000010000000000000000000010000000000000000000000000000000000000000010000000000000000000000000000000000000000004000000000000000000000000000000000000002000000800000000000000000000000000000080000008000000020000000000000000000000000000000000000000000000000000000000000000000",
      "type": "0x2",
      "transactionHash": "0x96357524b67b9b37a7bb9918a982280169cec42c7511bd84a2550bd3a4096bf1",
      "transactionIndex": "0x4e",
      "blockHash": "0xd10c0ae72136f449e5d27501e0fd887a2ee4032f43c7c7a3c650b13cc44725a7",
      "blockNumber": "0x725572",
      "gasUsed": "0xfb93",
      "effectiveGasPrice": "0x85cd85a2",
      "from": "0xc77f7fed3b5cc8249adc428c5f44c9063b9734b4",
      "to": "0x270e88f8683660553e8ba4eb2ad7c91a1710d769",
      "contractAddress": null
    }
  ],
  "libraries": [],
  "pending": [],
  "returns": {},
  "timestamp": 1736897377,
  "chain": 11155111,
  "commit": "51a374b"
}