{
  "transactions": [
    {
      "hash": "0xe8bab7c35f4c72fe237305d7f358c980fde6a407ff95e38e4d53f4568dace115",
      "transactionType": "CALL",
      "contractName": null,
      "contractAddress": "0x8aafd3ede9adb0ff97c7aebce82a919afb1c8764",
      "function": "sell(uint256)",
      "arguments": [
        "1611085749026537786"
      ],
      "transaction": {
        "from": "0xc77f7fed3b5cc8249adc428c5f44c9063b9734b4",
        "to": "0x8aafd3ede9adb0ff97c7aebce82a919afb1c8764",
        "gas": "0x15dca",
        "value": "0x0",
        "input": "0xe4849b32000000000000000000000000000000000000000000000000165bb9f3ed6bc13a",
        "nonce": "0x152d",
        "chainId": "0xaa36a7"
      },
      "additionalContracts": [],
      "isFixedGasLimit": false
    }
  ],
  "receipts": [
    {
      "status": "0x1",
      "cumulativeGasUsed": "0x103873d",
      "logs": [
        {
          "address": "0x8aafd3ede9adb0ff97c7aebce82a919afb1c8764",
          "topics": [
            "0xddf252ad1be2c89b69c2b068fc378daa952ba7f163c4a11628f55a4df523b3ef",
            "0x000000000000000000000000c77f7fed3b5cc8249adc428c5f44c9063b9734b4",
            "0x0000000000000000000000000000000000000000000000000000000000000000"
          ],
          "data": "0x000000000000000000000000000000000000000000000000162defc2df3bc9ec",
          "blockHash": "0x6d2548ef65b5f187e4745611e2760ce6ee4e860fbd05f6eca2ff4726dc1785cd",
          "blockNumber": "0x731c8f",
          "transactionHash": "0xe8bab7c35f4c72fe237305d7f358c980fde6a407ff95e38e4d53f4568dace115",
          "transactionIndex": "0x9f",
          "logIndex": "0xd3",
          "removed": false
        },
        {
          "address": "0x8aafd3ede9adb0ff97c7aebce82a919afb1c8764",
          "topics": [
            "0xddf252ad1be2c89b69c2b068fc378daa952ba7f163c4a11628f55a4df523b3ef",
            "0x000000000000000000000000c77f7fed3b5cc8249adc428c5f44c9063b9734b4",
            "0x000000000000000000000000c77f7fed3b5cc8249adc428c5f44c9063b9734b4"
          ],
          "data": "0x000000000000000000000000000000000000000000000000002dca310e2ff74e",
          "blockHash": "0x6d2548ef65b5f187e4745611e2760ce6ee4e860fbd05f6eca2ff4726dc1785cd",
          "blockNumber": "0x731c8f",
          "transactionHash": "0xe8bab7c35f4c72fe237305d7f358c980fde6a407ff95e38e4d53f4568dace115",
          "transactionIndex": "0x9f",
          "logIndex": "0xd4",
          "removed": false
        },
        {
          "address": "0x8aafd3ede9adb0ff97c7aebce82a919afb1c8764",
          "topics": [
            "0x4afcb4a87cdbd9974efdb92ee48bc8d7cd0ae4bf217004db3d080cbaee652ca7"
          ],
          "data": "0x000000000000000000000000000000000000000000000000000000006790539000000000000000000000000000000000000000000000000000119f2b6d04e4fc000000000000000000000000000000000000000000000000001c639f85b6e18d",
          "blockHash": "0x6d2548ef65b5f187e4745611e2760ce6ee4e860fbd05f6eca2ff4726dc1785cd",
          "blockNumber": "0x731c8f",
          "transactionHash": "0xe8bab7c35f4c72fe237305d7f358c980fde6a407ff95e38e4d53f4568dace115",
          "transactionIndex": "0x9f",
          "logIndex": "0xd5",
          "removed": false
        }
      ],
      "logsBloom": "0x00000000000000000000000000000000000000000600000000000000000000000000000000000000000000000000000000000000000000004000000000000000000000000000004000000008000000000000000000000000000000000000000000000000020000000000000000000800020000000000000000000010000000000000000000000000000000000000000000000000000000000000010000000000000000000000000000000000000000004000000000000000000000000000000000000002000000800000000000000000000000000000080000000000000020000000000000000000000000000000000000000000000000000000000000000000",
      "type": "0x2",
      "transactionHash": "0xe8bab7c35f4c72fe237305d7f358c980fde6a407ff95e38e4d53f4568dace115",
      "transactionIndex": "0x9f",
      "blockHash": "0x6d2548ef65b5f187e4745611e2760ce6ee4e860fbd05f6eca2ff4726dc1785cd",
      "blockNumber": "0x731c8f",
      "gasUsed": "0xfd3f",
      "effectiveGasPrice": "0x10b0d7c00",
      "from": "0xc77f7fed3b5cc8249adc428c5f44c9063b9734b4",
      "to": "0x8aafd3ede9adb0ff97c7aebce82a919afb1c8764",
      "contractAddress": null
    }
  ],
  "libraries": [],
  "pending": [],
  "returns": {},
  "timestamp": 1737511826,
  "chain": 11155111,
  "commit": "1d2fb70"
}