{
  "transactions": [
    {
      "hash": "0x83175a2b210fce7a4e382ffb50715c607b314885df81d1e4d1ab8c7c8793e32e",
      "transactionType": "CALL",
      "contractName": null,
      "contractAddress": "0x8aafd3ede9adb0ff97c7aebce82a919afb1c8764",
      "function": "sell(uint256)",
      "arguments": [
        "3039980638964"
      ],
      "transaction": {
        "from": "0xc77f7fed3b5cc8249adc428c5f44c9063b9734b4",
        "to": "0x8aafd3ede9adb0ff97c7aebce82a919afb1c8764",
        "gas": "0x15daa",
        "value": "0x0",
        "input": "0xe4849b32000000000000000000000000000000000000000000000000000002c3ccf752f4",
        "nonce": "0xf61",
        "chainId": "0xaa36a7"
      },
      "additionalContracts": [],
      "isFixedGasLimit": false
    }
  ],
  "receipts": [
    {
      "status": "0x1",
      "cumulativeGasUsed": "0x1e8218a",
      "logs": [
        {
          "address": "0x8aafd3ede9adb0ff97c7aebce82a919afb1c8764",
          "topics": [
            "0xddf252ad1be2c89b69c2b068fc378daa952ba7f163c4a11628f55a4df523b3ef",
            "0x000000000000000000000000c77f7fed3b5cc8249adc428c5f44c9063b9734b4",
            "0x0000000000000000000000000000000000000000000000000000000000000000"
          ],
          "data": "0x000000000000000000000000000000000000000000000000000002be2363effd",
          "blockHash": "0x821738fc10ddb262c32bf04ee88c7a6f7f6f8a79149171bde16115969ced8ebe",
          "blockNumber": "0x7315c0",
          "transactionHash": "0x83175a2b210fce7a4e382ffb50715c607b314885df81d1e4d1ab8c7c8793e32e",
          "transactionIndex": "0xd5",
          "logIndex": "0x1c1",
          "removed": false
        },
        {
          "address": "0x8aafd3ede9adb0ff97c7aebce82a919afb1c8764",
          "topics": [
            "0xddf252ad1be2c89b69c2b068fc378daa952ba7f163c4a11628f55a4df523b3ef",
            "0x000000000000000000000000c77f7fed3b5cc8249adc428c5f44c9063b9734b4",
            "0x000000000000000000000000c77f7fed3b5cc8249adc428c5f44c9063b9734b4"
          ],
          "data": "0x00000000000000000000000000000000000000000000000000000005a99362f7",
          "blockHash": "0x821738fc10ddb262c32bf04ee88c7a6f7f6f8a79149171bde16115969ced8ebe",
          "blockNumber": "0x7315c0",
          "transactionHash": "0x83175a2b210fce7a4e382ffb50715c607b314885df81d1e4d1ab8c7c8793e32e",
          "transactionIndex": "0xd5",
          "logIndex": "0x1c2",
          "removed": false
        },
        {
          "address": "0x8aafd3ede9adb0ff97c7aebce82a919afb1c8764",
          "topics": [
            "0x4afcb4a87cdbd9974efdb92ee48bc8d7cd0ae4bf217004db3d080cbaee652ca7"
          ],
          "data": "0x00000000000000000000000000000000000000000000000000000000679001ac0000000000000000000000000000000000000000000000000004c12f91818ed200000000000000000000000000000000000000000000000000000000f27f6982",
          "blockHash": "0x821738fc10ddb262c32bf04ee88c7a6f7f6f8a79149171bde16115969ced8ebe",
          "blockNumber": "0x7315c0",
          "transactionHash": "0x83175a2b210fce7a4e382ffb50715c607b314885df81d1e4d1ab8c7c8793e32e",
          "transactionIndex": "0xd5",
          "logIndex": "0x1c3",
          "removed": false
        }
      ],
      "logsBloom": "0x00000000000000000000000000000000000000000600000000000000000000000000000000000000000000000000000000000000000000004000000000000000000000000000004000000008000000000000000000000000000000000000000000000000020000000000000000000800020000000000000000000010000000000000000000000000000000000000000000000000000000000000010000000000000000000000000000000000000000004000000000000000000000000000000000000002000000800000000000000000000000000000080000000000000020000000000000000000000000000000000000000000000000000000000000000000",
      "type": "0x2",
      "transactionHash": "0x83175a2b210fce7a4e382ffb50715c607b314885df81d1e4d1ab8c7c8793e32e",
      "transactionIndex": "0xd5",
      "blockHash": "0x821738fc10ddb262c32bf04ee88c7a6f7f6f8a79149171bde16115969ced8ebe",
      "blockNumber": "0x7315c0",
      "gasUsed": "0xfd27",
      "effectiveGasPrice": "0x68ad1562",
      "from": "0xc77f7fed3b5cc8249adc428c5f44c9063b9734b4",
      "to": "0x8aafd3ede9adb0ff97c7aebce82a919afb1c8764",
      "contractAddress": null
    }
  ],
  "libraries": [],
  "pending": [],
  "returns": {},
  "timestamp": 1737490862,
  "chain": 11155111,
  "commit": "1d2fb70"
}