{
  "transactions": [
    {
      "hash": "0xa93d2365539b0f1b20ac025af6428657117dffed276ae3f054ac9db5ed89e7eb",
      "transactionType": "CALL",
      "contractName": null,
      "contractAddress": "0x8aafd3ede9adb0ff97c7aebce82a919afb1c8764",
      "function": "sell(uint256)",
      "arguments": [
        "24485714095"
      ],
      "transaction": {
        "from": "0xc77f7fed3b5cc8249adc428c5f44c9063b9734b4",
        "to": "0x8aafd3ede9adb0ff97c7aebce82a919afb1c8764",
        "gas": "0x1722a",
        "value": "0x0",
        "input": "0xe4849b3200000000000000000000000000000000000000000000000000000005b37658af",
        "nonce": "0xec9",
        "chainId": "0xaa36a7"
      },
      "additionalContracts": [],
      "isFixedGasLimit": false
    }
  ],
  "receipts": [
    {
      "status": "0x1",
      "cumulativeGasUsed": "0xbe5126",
      "logs": [
        {
          "address": "0x8aafd3ede9adb0ff97c7aebce82a919afb1c8764",
          "topics": [
            "0xddf252ad1be2c89b69c2b068fc378daa952ba7f163c4a11628f55a4df523b3ef",
            "0x000000000000000000000000c77f7fed3b5cc8249adc428c5f44c9063b9734b4",
            "0x0000000000000000000000000000000000000000000000000000000000000000"
          ],
          "data": "0x00000000000000000000000000000000000000000000000000000005a7c95e1f",
          "blockHash": "0xe20fa309c0511ea53cfc85d0b417c5c17fcc39e9138907f109c55f70c1bcce9e",
          "blockNumber": "0x731434",
          "transactionHash": "0xa93d2365539b0f1b20ac025af6428657117dffed276ae3f054ac9db5ed89e7eb",
          "transactionIndex": "0x99",
          "logIndex": "0xc0",
          "removed": false
        },
        {
          "address": "0x8aafd3ede9adb0ff97c7aebce82a919afb1c8764",
          "topics": [
            "0xddf252ad1be2c89b69c2b068fc378daa952ba7f163c4a11628f55a4df523b3ef",
            "0x000000000000000000000000c77f7fed3b5cc8249adc428c5f44c9063b9734b4",
            "0x000000000000000000000000c77f7fed3b5cc8249adc428c5f44c9063b9734b4"
          ],
          "data": "0x000000000000000000000000000000000000000000000000000000000bacfa90",
          "blockHash": "0xe20fa309c0511ea53cfc85d0b417c5c17fcc39e9138907f109c55f70c1bcce9e",
          "blockNumber": "0x731434",
          "transactionHash": "0xa93d2365539b0f1b20ac025af6428657117dffed276ae3f054ac9db5ed89e7eb",
          "transactionIndex": "0x99",
          "logIndex": "0xc1",
          "removed": false
        },
        {
          "address": "0x8aafd3ede9adb0ff97c7aebce82a919afb1c8764",
          "topics": [
            "0x4afcb4a87cdbd9974efdb92ee48bc8d7cd0ae4bf217004db3d080cbaee652ca7"
          ],
          "data": "0x00000000000000000000000000000000000000000000000000000000678fef1c0000000000000000000000000000000000000000000000000004b907cd07452f0000000000000000000000000000000000000000000000000000000001f0ac1a",
          "blockHash": "0xe20fa309c0511ea53cfc85d0b417c5c17fcc39e9138907f109c55f70c1bcce9e",
          "blockNumber": "0x731434",
          "transactionHash": "0xa93d2365539b0f1b20ac025af6428657117dffed276ae3f054ac9db5ed89e7eb",
          "transactionIndex": "0x99",
          "logIndex": "0xc2",
          "removed": false
        }
      ],
      "logsBloom": "0x00000000000000000000000000000000000000000600000000000000000000000000000000000000000000000000000000000000000000004000000000000000000000000000004000000008000000000000000000000000000000000000000000000000020000000000000000000800020000000000000000000010000000000000000000000000000000000000000000000000000000000000010000000000000000000000000000000000000000004000000000000000000000000000000000000002000000800000000000000000000000000000080000000000000020000000000000000000000000000000000000000000000000000000000000000000",
      "type": "0x2",
      "transactionHash": "0xa93d2365539b0f1b20ac025af6428657117dffed276ae3f054ac9db5ed89e7eb",
      "transactionIndex": "0x99",
      "blockHash": "0xe20fa309c0511ea53cfc85d0b417c5c17fcc39e9138907f109c55f70c1bcce9e",
      "blockNumber": "0x731434",
      "gasUsed": "0xfd1b",
      "effectiveGasPrice": "0x9d36d9a2",
      "from": "0xc77f7fed3b5cc8249adc428c5f44c9063b9734b4",
      "to": "0x8aafd3ede9adb0ff97c7aebce82a919afb1c8764",
      "contractAddress": null
    }
  ],
  "libraries": [],
  "pending": [],
  "returns": {},
  "timestamp": 1737486109,
  "chain": 11155111,
  "commit": "51a374b"
}