{
  "transactions": [
    {
      "hash": "0x0d091c79dde0116697c224a6e7fcdd16a2abd90cae3947720a12f568adce1e0e",
      "transactionType": "CALL",
      "contractName": null,
      "contractAddress": "0xbf4a322f1496e5c3d34a9bcdb4c60567b38c7de2",
      "function": "buy(address)",
      "arguments": [
        "0xC77f7fed3b5Cc8249aDc428c5F44C9063B9734b4"
      ],
      "transaction": {
        "from": "0xc77f7fed3b5cc8249adc428c5f44c9063b9734b4",
        "to": "0xbf4a322f1496e5c3d34a9bcdb4c60567b38c7de2",
        "gas": "0x1b309",
        "value": "0xde0b6b3a7640000",
        "input": "0xf088d547000000000000000000000000c77f7fed3b5cc8249adc428c5f44c9063b9734b4",
        "nonce": "0xbca",
        "chainId": "0xaa36a7"
      },
      "additionalContracts": [],
      "isFixedGasLimit": false
    }
  ],
  "receipts": [
    {
      "status": "0x1",
      "cumulativeGasUsed": "0xee323a",
      "logs": [
        {
          "address": "0xbf4a322f1496e5c3d34a9bcdb4c60567b38c7de2",
          "topics": [
            "0xddf252ad1be2c89b69c2b068fc378daa952ba7f163c4a11628f55a4df523b3ef",
            "0x0000000000000000000000000000000000000000000000000000000000000000",
            "0x000000000000000000000000c77f7fed3b5cc8249adc428c5f44c9063b9734b4"
          ],
          "data": "0x0000000000000000000000000000000000000000000000350569759d2aeea7de",
          "blockHash": "0xf1885f011d66f5ebad30c30cf3ba7a411900fabb06b1f7f802d520ea6bb686fa",
          "blockNumber": "0x725be9",
          "transactionHash": "0x0d091c79dde0116697c224a6e7fcdd16a2abd90cae3947720a12f568adce1e0e",
          "transactionIndex": "0x81",
          "logIndex": "0x8f",
          "removed": false
        },
        {
          "address": "0xbf4a322f1496e5c3d34a9bcdb4c60567b38c7de2",
          "topics": [
            "0xddf252ad1be2c89b69c2b068fc378daa952ba7f163c4a11628f55a4df523b3ef",
            "0x0000000000000000000000000000000000000000000000000000000000000000",
            "0x000000000000000000000000c77f7fed3b5cc8249adc428c5f44c9063b9734b4"
          ],
          "data": "0x000000000000000000000000000000000000000000000000292c37a55faec8b7",
          "blockHash": "0xf1885f011d66f5ebad30c30cf3ba7a411900fabb06b1f7f802d520ea6bb686fa",
          "blockNumber": "0x725be9",
          "transactionHash": "0x0d091c79dde0116697c224a6e7fcdd16a2abd90cae3947720a12f568adce1e0e",
          "transactionIndex": "0x81",
          "logIndex": "0x90",
          "removed": false
        },
        {
          "address": "0xbf4a322f1496e5c3d34a9bcdb4c60567b38c7de2",
          "topics": [
            "0x4afcb4a87cdbd9974efdb92ee48bc8d7cd0ae4bf217004db3d080cbaee652ca7"
          ],
          "data": "0x0000000000000000000000000000000000000000000000000000000067874148000000000000000000000000000000000000000000000000000398998bd10aa10000000000000000000000000000000000000000000000000de0b6b3a7640000",
          "blockHash": "0xf1885f011d66f5ebad30c30cf3ba7a411900fabb06b1f7f802d520ea6bb686fa",
          "blockNumber": "0x725be9",
          "transactionHash": "0x0d091c79dde0116697c224a6e7fcdd16a2abd90cae3947720a12f568adce1e0e",
          "transactionIndex": "0x81",
          "logIndex": "0x91",
          "removed": false
        }
      ],
      "logsBloom": "0x00000000000000000000000000000000000000000000000000000000000000000000000000000000000000000000000000000000000000004000000000000000000000000000000000000008000000000000001000000000000000000000000000000000020000000000000000000800020000000000000000000010000000000000000000000000000000000000000000000000000008000000010000000000000000000000000000000000000000004000000000000000000000000000000000000002000000800000000000001000000000000000080000000000000020000000000000000000000000000000000000000000000000000000000000000000",
      "type": "0x2",
      "transactionHash": "0x0d091c79dde0116697c224a6e7fcdd16a2abd90cae3947720a12f568adce1e0e",
      "transactionIndex": "0x81",
      "blockHash": "0xf1885f011d66f5ebad30c30cf3ba7a411900fabb06b1f7f802d520ea6bb686fa",
      "blockNumber": "0x725be9",
      "gasUsed": "0x13af6",
      "effectiveGasPrice": "0x7dc52ada",
      "from": "0xc77f7fed3b5cc8249adc428c5f44c9063b9734b4",
      "to": "0xbf4a322f1496e5c3d34a9bcdb4c60567b38c7de2",
      "contractAddress": null
    }
  ],
  "libraries": [],
  "pending": [],
  "returns": {},
  "timestamp": 1736917323,
  "chain": 11155111,
  "commit": "51a374b"
}