{
  "transactions": [
    {
      "hash": "0x9cd7e4a312dd09eb879d42461f336beaaccdada99abdca3ecd30e0b295671b57",
      "transactionType": "CALL",
      "contractName": null,
      "contractAddress": "0xbf4a322f1496e5c3d34a9bcdb4c60567b38c7de2",
      "function": "buy(address)",
      "arguments": [
        "0xC77f7fed3b5Cc8249aDc428c5F44C9063B9734b4"
      ],
      "transaction": {
        "from": "0xc77f7fed3b5cc8249adc428c5f44c9063b9734b4",
        "to": "0xbf4a322f1496e5c3d34a9bcdb4c60567b38c7de2",
        "gas": "0x1b309",
        "value": "0xde0b6b3a7640000",
        "input": "0xf088d547000000000000000000000000c77f7fed3b5cc8249adc428c5f44c9063b9734b4",
        "nonce": "0xd6c",
        "chainId": "0xaa36a7"
      },
      "additionalContracts": [],
      "isFixedGasLimit": false
    }
  ],
  "receipts": [
    {
      "status": "0x1",
      "cumulativeGasUsed": "0xea34c7",
      "logs": [
        {
          "address": "0xbf4a322f1496e5c3d34a9bcdb4c60567b38c7de2",
          "topics": [
            "0xddf252ad1be2c89b69c2b068fc378daa952ba7f163c4a11628f55a4df523b3ef",
            "0x0000000000000000000000000000000000000000000000000000000000000000",
            "0x000000000000000000000000c77f7fed3b5cc8249adc428c5f44c9063b9734b4"
          ],
          "data": "0x000000000000000000000000000000000000000000000034b80a6b23cd7c0d0e",
          "blockHash": "0x648d557bb304f533fb321778d6204813fe7e8d821f02bda04daaff934f775bd4",
          "blockNumber": "0x726616",
          "transactionHash": "0x9cd7e4a312dd09eb879d42461f336beaaccdada99abdca3ecd30e0b295671b57",
          "transactionIndex": "0x5f",
          "logIndex": "0xa1",
          "removed": false
        },
        {
          "address": "0xbf4a322f1496e5c3d34a9bcdb4c60567b38c7de2",
          "topics": [
            "0xddf252ad1be2c89b69c2b068fc378daa952ba7f163c4a11628f55a4df523b3ef",
            "0x0000000000000000000000000000000000000000000000000000000000000000",
            "0x000000000000000000000000c77f7fed3b5cc8249adc428c5f44c9063b9734b4"
          ],
          "data": "0x00000000000000000000000000000000000000000000000028f022cd9855b3ac",
          "blockHash": "0x648d557bb304f533fb321778d6204813fe7e8d821f02bda04daaff934f775bd4",
          "blockNumber": "0x726616",
          "transactionHash": "0x9cd7e4a312dd09eb879d42461f336beaaccdada99abdca3ecd30e0b295671b57",
          "transactionIndex": "0x5f",
          "logIndex": "0xa2",
          "removed": false
        },
        {
          "address": "0xbf4a322f1496e5c3d34a9bcdb4c60567b38c7de2",
          "topics": [
            "0x4afcb4a87cdbd9974efdb92ee48bc8d7cd0ae4bf217004db3d080cbaee652ca7"
          ],
          "data": "0x000000000000000000000000000000000000000000000000000000006787bbb800000000000000000000000000000000000000000000000000039de09f4b40660000000000000000000000000000000000000000000000000de0b6b3a7640000",
          "blockHash": "0x648d557bb304f533fb321778d6204813fe7e8d821f02bda04daaff934f775bd4",
          "blockNumber": "0x726616",
          "transactionHash": "0x9cd7e4a312dd09eb879d42461f336beaaccdada99abdca3ecd30e0b295671b57",
          "transactionIndex": "0x5f",
          "logIndex": "0xa3",
          "removed": false
        }
      ],
      "logsBloom": "0x00000000000000000000000000000000000000000000000000000000000000000000000000000000000000000000000000000000000000004000000000000000000000000000000000000008000000000000001000000000000000000000000000000000020000000000000000000800020000000000000000000010000000000000000000000000000000000000000000000000000008000000010000000000000000000000000000000000000000004000000000000000000000000000000000000002000000800000000000001000000000000000080000000000000020000000000000000000000000000000000000000000000000000000000000000000",
      "type": "0x2",
      "transactionHash": "0x9cd7e4a312dd09eb879d42461f336beaaccdada99abdca3ecd30e0b295671b57",
      "transactionIndex": "0x5f",
      "blockHash": "0x648d557bb304f533fb321778d6204813fe7e8d821f02bda04daaff934f775bd4",
      "blockNumber": "0x726616",
      "gasUsed": "0x13af6",
      "effectiveGasPrice": "0x76cf46e8",
      "from": "0xc77f7fed3b5cc8249adc428c5f44c9063b9734b4",
      "to": "0xbf4a322f1496e5c3d34a9bcdb4c60567b38c7de2",
      "contractAddress": null
    }
  ],
  "libraries": [],
  "pending": [],
  "returns": {},
  "timestamp": 1736948665,
  "chain": 11155111,
  "commit": "51a374b"
}