{
  "transactions": [
    {
      "hash": "0xb4144340456c1977e591c6686183b15370e00dfc3d26b2ae257076014d68a1d4",
      "transactionType": "CALL",
      "contractName": null,
      "contractAddress": "0x5eb9cc76c3506942c1c0ead70e877dd5e4f00cb0",
      "function": "buy(address)",
      "arguments": [
        "0xC77f7fed3b5Cc8249aDc428c5F44C9063B9734b4"
      ],
      "transaction": {
        "from": "0xc77f7fed3b5cc8249adc428c5f44c9063b9734b4",
        "to": "0x5eb9cc76c3506942c1c0ead70e877dd5e4f00cb0",
        "gas": "0x1b30c",
        "value": "0x2386f26fc10000",
        "input": "0xf088d547000000000000000000000000c77f7fed3b5cc8249adc428c5f44c9063b9734b4",
        "nonce": "0x121",
        "chainId": "0xaa36a7"
      },
      "additionalContracts": [],
      "isFixedGasLimit": false
    }
  ],
  "receipts": [
    {
      "status": "0x1",
      "cumulativeGasUsed": "0x6be843",
      "logs": [
        {
          "address": "0x5eb9cc76c3506942c1c0ead70e877dd5e4f00cb0",
          "topics": [
            "0xddf252ad1be2c89b69c2b068fc378daa952ba7f163c4a11628f55a4df523b3ef",
            "0x0000000000000000000000000000000000000000000000000000000000000000",
            "0x000000000000000000000000c77f7fed3b5cc8249adc428c5f44c9063b9734b4"
          ],
          "data": "0x0000000000000000000000000000000000000000000000008963dd8c2c5e0000",
          "blockHash": "0xb4548db40752308d1f1277833bdc7d6218aed731d7f2a543a70d81d419df7937",
          "blockNumber": "0x723afe",
          "transactionHash": "0xb4144340456c1977e591c6686183b15370e00dfc3d26b2ae257076014d68a1d4",
          "transactionIndex": "0x3e",
          "logIndex": "0x61",
          "removed": false
        },
        {
          "address": "0x5eb9cc76c3506942c1c0ead70e877dd5e4f00cb0",
          "topics": [
            "0xddf252ad1be2c89b69c2b068fc378daa952ba7f163c4a11628f55a4df523b3ef",
            "0x0000000000000000000000000000000000000000000000000000000000000000",
            "0x000000000000000000000000c77f7fed3b5cc8249adc428c5f44c9063b9734b4"
          ],
          "data": "0x000000000000000000000000000000000000000000000000006ab0273888c4ce",
          "blockHash": "0xb4548db40752308d1f1277833bdc7d6218aed731d7f2a543a70d81d419df7937",
          "blockNumber": "0x723afe",
          "transactionHash": "0xb4144340456c1977e591c6686183b15370e00dfc3d26b2ae257076014d68a1d4",
          "transactionIndex": "0x3e",
          "logIndex": "0x62",
          "removed": false
        },
        {
          "address": "0x5eb9cc76c3506942c1c0ead70e877dd5e4f00cb0",
          "topics": [
            "0x4afcb4a87cdbd9974efdb92ee48bc8d7cd0ae4bf217004db3d080cbaee652ca7"
          ],
          "data": "0x000000000000000000000000000000000000000000000000000000006785b53c00000000000000000000000000000000000000000000000000038d7ea4d84b55000000000000000000000000000000000000000000000000002386f26fc10000",
          "blockHash": "0xb4548db40752308d1f1277833bdc7d6218aed731d7f2a543a70d81d419df7937",
          "blockNumber": "0x723afe",
          "transactionHash": "0xb4144340456c1977e591c6686183b15370e00dfc3d26b2ae257076014d68a1d4",
          "transactionIndex": "0x3e",
          "logIndex": "0x63",
          "removed": false
        }
      ],
      "logsBloom": "0x00000000000000000000000000000000000000000000000000000000000000000000000000000000000000000000000000000000000000004000000000000000000000000000000000000008000000000000000000000000000000000000000000000000020000000000000004000800020000000000000000000010000000000000000000000000000000000000000000000000000000000000010000000000000000000000000000000000000000004000000000000000000000000000020000000002000000800000008000000000000000000000080000000000000020000000000000000000000000000000000000000000000000000000000000000000",
      "type": "0x2",
      "transactionHash": "0xb4144340456c1977e591c6686183b15370e00dfc3d26b2ae257076014d68a1d4",
      "transactionIndex": "0x3e",
      "blockHash": "0xb4548db40752308d1f1277833bdc7d6218aed731d7f2a543a70d81d419df7937",
      "blockNumber": "0x723afe",
      "gasUsed": "0x13af8",
      "effectiveGasPrice": "0x2924773f5",
      "from": "0xc77f7fed3b5cc8249adc428c5f44c9063b9734b4",
      "to": "0x5eb9cc76c3506942c1c0ead70e877dd5e4f00cb0",
      "contractAddress": null
    }
  ],
  "libraries": [],
  "pending": [],
  "returns": {},
  "timestamp": 1736815933,
  "chain": 11155111,
  "commit": "51a374b"
}