{
  "transactions": [
    {
      "hash": "0x995f7ab2b083de59b166d172f8317a7908aa943cc8d3a6d1c164efb642e4d3c0",
      "transactionType": "CALL",
      "contractName": null,
      "contractAddress": "0x8aafd3ede9adb0ff97c7aebce82a919afb1c8764",
      "function": "sell(uint256)",
      "arguments": [
        "380612976193763"
      ],
      "transaction": {
        "from": "0xc77f7fed3b5cc8249adc428c5f44c9063b9734b4",
        "to": "0x8aafd3ede9adb0ff97c7aebce82a919afb1c8764",
        "gas": "0x1724d",
        "value": "0x0",
        "input": "0xe4849b3200000000000000000000000000000000000000000000000000015a2a5d3e30e3",
        "nonce": "0xf24",
        "chainId": "0xaa36a7"
      },
      "additionalContracts": [],
      "isFixedGasLimit": false
    }
  ],
  "receipts": [
    {
      "status": "0x1",
      "cumulativeGasUsed": "0xf6351b",
      "logs": [
        {
          "address": "0x8aafd3ede9adb0ff97c7aebce82a919afb1c8764",
          "topics": [
            "0xddf252ad1be2c89b69c2b068fc378daa952ba7f163c4a11628f55a4df523b3ef",
            "0x000000000000000000000000c77f7fed3b5cc8249adc428c5f44c9063b9734b4",
            "0x0000000000000000000000000000000000000000000000000000000000000000"
          ],
          "data": "0x000000000000000000000000000000000000000000000000000157656ad53ed5",
          "blockHash": "0x2dacb78ac26357548bc649d2b28e6cb2b61b03d04f29e7014fad47df3cc40c4f",
          "blockNumber": "0x731576",
          "transactionHash": "0x995f7ab2b083de59b166d172f8317a7908aa943cc8d3a6d1c164efb642e4d3c0",
          "transactionIndex": "0x80",
          "logIndex": "0x138",
          "removed": false
        },
        {
          "address": "0x8aafd3ede9adb0ff97c7aebce82a919afb1c8764",
          "topics": [
            "0xddf252ad1be2c89b69c2b068fc378daa952ba7f163c4a11628f55a4df523b3ef",
            "0x000000000000000000000000c77f7fed3b5cc8249adc428c5f44c9063b9734b4",
            "0x000000000000000000000000c77f7fed3b5cc8249adc428c5f44c9063b9734b4"
          ],
          "data": "0x000000000000000000000000000000000000000000000000000002c4f268f20e",
          "blockHash": "0x2dacb78ac26357548bc649d2b28e6cb2b61b03d04f29e7014fad47df3cc40c4f",
          "blockNumber": "0x731576",
          "transactionHash": "0x995f7ab2b083de59b166d172f8317a7908aa943cc8d3a6d1c164efb642e4d3c0",
          "transactionIndex": "0x80",
          "logIndex": "0x139",
          "removed": false
        },
        {
          "address": "0x8aafd3ede9adb0ff97c7aebce82a919afb1c8764",
          "topics": [
            "0x4afcb4a87cdbd9974efdb92ee48bc8d7cd0ae4bf217004db3d080cbaee652ca7"
          ],
          "data": "0x00000000000000000000000000000000000000000000000000000000678ffe340000000000000000000000000000000000000000000000000004bf37e45fc6a7000000000000000000000000000000000000000000000000000000766839e445",
          "blockHash": "0x2dacb78ac26357548bc649d2b28e6cb2b61b03d04f29e7014fad47df3cc40c4f",
          "blockNumber": "0x731576",
          "transactionHash": "0x995f7ab2b083de59b166d172f8317a7908aa943cc8d3a6d1c164efb642e4d3c0",
          "transactionIndex": "0x80",
          "logIndex": "0x13a",
          "removed": false
        }
      ],
      "logsBloom": "0x00000000000000000000000000000000000000000600000000000000000000000000000000000000000000000000000000000000000000004000000000000000000000000000004000000008000000000000000000000000000000000000000000000000020000000000000000000800020000000000000000000010000000000000000000000000000000000000000000000000000000000000010000000000000000000000000000000000000000004000000000000000000000000000000000000002000000800000000000000000000000000000080000000000000020000000000000000000000000000000000000000000000000000000000000000000",
      "type": "0x2",
      "transactionHash": "0x995f7ab2b083de59b166d172f8317a7908aa943cc8d3a6d1c164efb642e4d3c0",
      "transactionIndex": "0x80",
      "blockHash": "0x2dacb78ac26357548bc649d2b28e6cb2b61b03d04f29e7014fad47df3cc40c4f",
      "blockNumber": "0x731576",
      "gasUsed": "0xfd33",
      "effectiveGasPrice": "0x809769ef",
      "from": "0xc77f7fed3b5cc8249adc428c5f44c9063b9734b4",
      "to": "0x8aafd3ede9adb0ff97c7aebce82a919afb1c8764",
      "contractAddress": null
    }
  ],
  "libraries": [],
  "pending": [],
  "returns": {},
  "timestamp": 1737489973,
  "chain": 11155111,
  "commit": "1d2fb70"
}