{
  "transactions": [
    {
      "hash": "0xc1fd322d162801055207519f5f493f7dc9452a6abd8465c4653c62266f5ffd9a",
      "transactionType": "CALL",
      "contractName": null,
      "contractAddress": "0x270e88f8683660553e8ba4eb2ad7c91a1710d769",
      "function": "sell(uint256)",
      "arguments": [
        "984138285708467406148"
      ],
      "transaction": {
        "from": "0xc77f7fed3b5cc8249adc428c5f44c9063b9734b4",
        "to": "0x270e88f8683660553e8ba4eb2ad7c91a1710d769",
        "gas": "0x16fec",
        "value": "0x0",
        "input": "0xe4849b3200000000000000000000000000000000000000000000003559a98ca9eb168544",
        "nonce": "0x50d",
        "chainId": "0xaa36a7"
      },
      "additionalContracts": [],
      "isFixedGasLimit": false
    }
  ],
  "receipts": [
    {
      "status": "0x1",
      "cumulativeGasUsed": "0x23a301",
      "logs": [
        {
          "address": "0x270e88f8683660553e8ba4eb2ad7c91a1710d769",
          "topics": [
            "0xddf252ad1be2c89b69c2b068fc378daa952ba7f163c4a11628f55a4df523b3ef",
            "0x000000000000000000000000c77f7fed3b5cc8249adc428c5f44c9063b9734b4",
            "0x0000000000000000000000000000000000000000000000000000000000000000"
          ],
          "data": "0x00000000000000000000000000000000000000000000003559a98ca9eb168544",
          "blockHash": "0x4e750c63ad5e9b20bbc4a1151edebf0b8302bb50ae4bd40a7d16aaa46d7b9283",
          "blockNumber": "0x7251a3",
          "transactionHash": "0xc1fd322d162801055207519f5f493f7dc9452a6abd8465c4653c62266f5ffd9a",
          "transactionIndex": "0xb",
          "logIndex": "0x10",
          "removed": false
        },
        {
          "address": "0x270e88f8683660553e8ba4eb2ad7c91a1710d769",
          "topics": [
            "0x4afcb4a87cdbd9974efdb92ee48bc8d7cd0ae4bf217004db3d080cbaee652ca7"
          ],
          "data": "0x000000000000000000000000000000000000000000000000000000006786c588000000000000000000000000000000000000000000000000000395fac609a89d0000000000000000000000000000000000000000000000000dc841aa5e444bf1",
          "blockHash": "0x4e750c63ad5e9b20bbc4a1151edebf0b8302bb50ae4bd40a7d16aaa46d7b9283",
          "blockNumber": "0x7251a3",
          "transactionHash": "0xc1fd322d162801055207519f5f493f7dc9452a6abd8465c4653c62266f5ffd9a",
          "transactionIndex": "0xb",
          "logIndex": "0x11",
          "removed": false
        }
      ],
      "logsBloom": "0x00000000000000000000000000000000000000000000000000000000000000000000000000000000000000000000000020000000000000004000000000000000000000000000000000000008000000000000000000000000000000000000000000000000020000000000000000000800020000000000000000000010000000000000000000010000000000000000000000000000000000000000010000000000000000000000000000000000000000004000000000000000000000000000000000000002000000800000000000000000000000000000080000008000000020000000000000000000000000000000000000000000000000000000000000000000",
      "type": "0x2",
      "transactionHash": "0xc1fd322d162801055207519f5f493f7dc9452a6abd8465c4653c62266f5ffd9a",
      "transactionIndex": "0xb",
      "blockHash": "0x4e750c63ad5e9b20bbc4a1151edebf0b8302bb50ae4bd40a7d16aaa46d7b9283",
      "blockNumber": "0x7251a3",
      "gasUsed": "0xfb93",
      "effectiveGasPrice": "0x427e60f80",
      "from": "0xc77f7fed3b5cc8249adc428c5f44c9063b9734b4",
      "to": "0x270e88f8683660553e8ba4eb2ad7c91a1710d769",
      "contractAddress": null
    }
  ],
  "libraries": [],
  "pending": [],
  "returns": {},
  "timestamp": 1736885641,
  "chain": 11155111,
  "commit": "51a374b"
}