{
  "transactions": [
    {
      "hash": "0x62657a9399a0c2e762ec929992648fd0d8a9b6d3ba6416e71ca9e38b6e401759",
      "transactionType": "CALL",
      "contractName": null,
      "contractAddress": "0xbf4a322f1496e5c3d34a9bcdb4c60567b38c7de2",
      "function": "buy(address)",
      "arguments": [
        "0xC77f7fed3b5Cc8249aDc428c5F44C9063B9734b4"
      ],
      "transaction": {
        "from": "0xc77f7fed3b5cc8249adc428c5f44c9063b9734b4",
        "to": "0xbf4a322f1496e5c3d34a9bcdb4c60567b38c7de2",
        "gas": "0x1b309",
        "value": "0xde0b6b3a7640000",
        "input": "0xf088d547000000000000000000000000c77f7fed3b5cc8249adc428c5f44c9063b9734b4",
        "nonce": "0x9a8",
        "chainId": "0xaa36a7"
      },
      "additionalContracts": [],
      "isFixedGasLimit": false
    }
  ],
  "receipts": [
    {
      "status": "0x1",
      "cumulativeGasUsed": "0xabe0c7",
      "logs": [
        {
          "address": "0xbf4a322f1496e5c3d34a9bcdb4c60567b38c7de2",
          "topics": [
            "0xddf252ad1be2c89b69c2b068fc378daa952ba7f163c4a11628f55a4df523b3ef",
            "0x0000000000000000000000000000000000000000000000000000000000000000",
            "0x000000000000000000000000c77f7fed3b5cc8249adc428c5f44c9063b9734b4"
          ],
          "data": "0x0000000000000000000000000000000000000000000000356bd25fc04376a844",
          "blockHash": "0xa54150ca1e03f248aa0801bc0043e5abda955ffbd6412e4ccf61a422f21bc622",
          "blockNumber": "0x725950",
          "transactionHash": "0x62657a9399a0c2e762ec929992648fd0d8a9b6d3ba6416e71ca9e38b6e401759",
          "transactionIndex": "0x6e",
          "logIndex": "0xb3",
          "removed": false
        },
        {
          "address": "0xbf4a322f1496e5c3d34a9bcdb4c60567b38c7de2",
          "topics": [
            "0xddf252ad1be2c89b69c2b068fc378daa952ba7f163c4a11628f55a4df523b3ef",
            "0x0000000000000000000000000000000000000000000000000000000000000000",
            "0x000000000000000000000000c77f7fed3b5cc8249adc428c5f44c9063b9734b4"
          ],
          "data": "0x000000000000000000000000000000000000000000000000297bbdf97461c4b3",
          "blockHash": "0xa54150ca1e03f248aa0801bc0043e5abda955ffbd6412e4ccf61a422f21bc622",
          "blockNumber": "0x725950",
          "transactionHash": "0x62657a9399a0c2e762ec929992648fd0d8a9b6d3ba6416e71ca9e38b6e401759",
          "transactionIndex": "0x6e",
          "logIndex": "0xb4",
          "removed": false
        },
        {
          "address": "0xbf4a322f1496e5c3d34a9bcdb4c60567b38c7de2",
          "topics": [
            "0x4afcb4a87cdbd9974efdb92ee48bc8d7cd0ae4bf217004db3d080cbaee652ca7"
          ],
          "data": "0x00000000000000000000000000000000000000000000000000000000678721ec000000000000000000000000000000000000000000000000000391b4bfcef73d0000000000000000000000000000000000000000000000000de0b6b3a7640000",
          "blockHash": "0xa54150ca1e03f248aa0801bc0043e5abda955ffbd6412e4ccf61a422f21bc622",
          "blockNumber": "0x725950",
          "transactionHash": "0x62657a9399a0c2e762ec929992648fd0d8a9b6d3ba6416e71ca9e38b6e401759",
          "transactionIndex": "0x6e",
          "logIndex": "0xb5",
          "removed": false
        }
      ],
      "logsBloom": "0x00000000000000000000000000000000000000000000000000000000000000000000000000000000000000000000000000000000000000004000000000000000000000000000000000000008000000000000001000000000000000000000000000000000020000000000000000000800020000000000000000000010000000000000000000000000000000000000000000000000000008000000010000000000000000000000000000000000000000004000000000000000000000000000000000000002000000800000000000001000000000000000080000000000000020000000000000000000000000000000000000000000000000000000000000000000",
      "type": "0x2",
      "transactionHash": "0x62657a9399a0c2e762ec929992648fd0d8a9b6d3ba6416e71ca9e38b6e401759",
      "transactionIndex": "0x6e",
      "blockHash": "0xa54150ca1e03f248aa0801bc0043e5abda955ffbd6412e4ccf61a422f21bc622",
      "blockNumber": "0x725950",
      "gasUsed": "0x13af6",
      "effectiveGasPrice": "0x1dce32c50",
      "from": "0xc77f7fed3b5cc8249adc428c5f44c9063b9734b4",
      "to": "0xbf4a322f1496e5c3d34a9bcdb4c60567b38c7de2",
      "contractAddress": null
    }
  ],
  "libraries": [],
  "pending": [],
  "returns": {},
  "timestamp": 1736909295,
  "chain": 11155111,
  "commit": "51a374b"
}