{
  "transactions": [
    {
      "hash": "0x36fed24d3b8881f8e44b12b34c7efed7a009d61b34c45cfa79b3e0f6785f7b86",
      "transactionType": "CALL",
      "contractName": null,
      "contractAddress": "0x8aafd3ede9adb0ff97c7aebce82a919afb1c8764",
      "function": "sell(uint256)",
      "arguments": [
        "5655018534916127582"
      ],
      "transaction": {
        "from": "0xc77f7fed3b5cc8249adc428c5f44c9063b9734b4",
        "to": "0x8aafd3ede9adb0ff97c7aebce82a919afb1c8764",
        "gas": "0x15dca",
        "value": "0x0",
        "input": "0xe4849b320000000000000000000000000000000000000000000000004e7aa9655becfb5e",
        "nonce": "0x10a6",
        "chainId": "0xaa36a7"
      },
      "additionalContracts": [],
      "isFixedGasLimit": false
    }
  ],
  "receipts": [
    {
      "status": "0x1",
      "cumulativeGasUsed": "0x89404e",
      "logs": [
        {
          "address": "0x8aafd3ede9adb0ff97c7aebce82a919afb1c8764",
          "topics": [
            "0xddf252ad1be2c89b69c2b068fc378daa952ba7f163c4a11628f55a4df523b3ef",
            "0x000000000000000000000000c77f7fed3b5cc8249adc428c5f44c9063b9734b4",
            "0x0000000000000000000000000000000000000000000000000000000000000000"
          ],
          "data": "0x0000000000000000000000000000000000000000000000004dd9efb884267a62",
          "blockHash": "0x023ae285ac17d6d42d1bf41bd1d14442938c494a4d750cca0518639e06bf877d",
          "blockNumber": "0x731739",
          "transactionHash": "0x36fed24d3b8881f8e44b12b34c7efed7a009d61b34c45cfa79b3e0f6785f7b86",
          "transactionIndex": "0x6b",
          "logIndex": "0x90",
          "removed": false
        },
        {
          "address": "0x8aafd3ede9adb0ff97c7aebce82a919afb1c8764",
          "topics": [
            "0xddf252ad1be2c89b69c2b068fc378daa952ba7f163c4a11628f55a4df523b3ef",
            "0x000000000000000000000000c77f7fed3b5cc8249adc428c5f44c9063b9734b4",
            "0x000000000000000000000000c77f7fed3b5cc8249adc428c5f44c9063b9734b4"
          ],
          "data": "0x00000000000000000000000000000000000000000000000000a0b9acd7c680fc",
          "blockHash": "0x023ae285ac17d6d42d1bf41bd1d14442938c494a4d750cca0518639e06bf877d",
          "blockNumber": "0x731739",
          "transactionHash": "0x36fed24d3b8881f8e44b12b34c7efed7a009d61b34c45cfa79b3e0f6785f7b86",
          "transactionIndex": "0x6b",
          "logIndex": "0x91",
          "removed": false
        },
        {
          "address": "0x8aafd3ede9adb0ff97c7aebce82a919afb1c8764",
          "topics": [
            "0x4afcb4a87cdbd9974efdb92ee48bc8d7cd0ae4bf217004db3d080cbaee652ca7"
          ],
          "data": "0x00000000000000000000000000000000000000000000000000000000679013700000000000000000000000000000000000000000000000000004ff16422e6c7f000000000000000000000000000000000000000000000000001c4136aa17e468",
          "blockHash": "0x023ae285ac17d6d42d1bf41bd1d14442938c494a4d750cca0518639e06bf877d",
          "blockNumber": "0x731739",
          "transactionHash": "0x36fed24d3b8881f8e44b12b34c7efed7a009d61b34c45cfa79b3e0f6785f7b86",
          "transactionIndex": "0x6b",
          "logIndex": "0x92",
          "removed": false
        }
      ],
      "logsBloom": "0x00000000000000000000000000000000000000000600000000000000000000000000000000000000000000000000000000000000000000004000000000000000000000000000004000000008000000000000000000000000000000000000000000000000020000000000000000000800020000000000000000000010000000000000000000000000000000000000000000000000000000000000010000000000000000000000000000000000000000004000000000000000000000000000000000000002000000800000000000000000000000000000080000000000000020000000000000000000000000000000000000000000000000000000000000000000",
      "type": "0x2",
      "transactionHash": "0x36fed24d3b8881f8e44b12b34c7efed7a009d61b34c45cfa79b3e0f6785f7b86",
      "transactionIndex": "0x6b",
      "blockHash": "0x023ae285ac17d6d42d1bf41bd1d14442938c494a4d750cca0518639e06bf877d",
      "blockNumber": "0x731739",
      "gasUsed": "0xfd3f",
      "effectiveGasPrice": "0x4d79e95f",
      "from": "0xc77f7fed3b5cc8249adc428c5f44c9063b9734b4",
      "to": "0x8aafd3ede9adb0ff97c7aebce82a919afb1c8764",
      "contractAddress": null
    }
  ],
  "libraries": [],
  "pending": [],
  "returns": {},
  "timestamp": 1737495409,
  "chain": 11155111,
  "commit": "1d2fb70"
}