{
  "transactions": [
    {
      "hash": "0x1691c0c5621ba405b1ed856e20d67f729d27b5990a47283c763f0bb612bff119",
      "transactionType": "CALL",
      "contractName": null,
      "contractAddress": "0x270e88f8683660553e8ba4eb2ad7c91a1710d769",
      "function": "sell(uint256)",
      "arguments": [
        "971136208218600052147"
      ],
      "transaction": {
        "from": "0xc77f7fed3b5cc8249adc428c5f44c9063b9734b4",
        "to": "0x270e88f8683660553e8ba4eb2ad7c91a1710d769",
        "gas": "0x16fec",
        "value": "0x0",
        "input": "0xe4849b32000000000000000000000000000000000000000000000034a538e4131d7115b3",
        "nonce": "0x561",
        "chainId": "0xaa36a7"
      },
      "additionalContracts": [],
      "isFixedGasLimit": false
    }
  ],
  "receipts": [
    {
      "status": "0x1",
      "cumulativeGasUsed": "0x14af05a",
      "logs": [
        {
          "address": "0x270e88f8683660553e8ba4eb2ad7c91a1710d769",
          "topics": [
            "0xddf252ad1be2c89b69c2b068fc378daa952ba7f163c4a11628f55a4df523b3ef",
            "0x000000000000000000000000c77f7fed3b5cc8249adc428c5f44c9063b9734b4",
            "0x0000000000000000000000000000000000000000000000000000000000000000"
          ],
          "data": "0x000000000000000000000000000000000000000000000034a538e4131d7115b3",
          "blockHash": "0x77ee3c7f6be94ab5c0e546fbe4c94b8350734b9510a15651358e1913049f2bc5",
          "blockNumber": "0x725205",
          "transactionHash": "0x1691c0c5621ba405b1ed856e20d67f729d27b5990a47283c763f0bb612bff119",
          "transactionIndex": "0x81",
          "logIndex": "0x13a",
          "removed": false
        },
        {
          "address": "0x270e88f8683660553e8ba4eb2ad7c91a1710d769",
          "topics": [
            "0x4afcb4a87cdbd9974efdb92ee48bc8d7cd0ae4bf217004db3d080cbaee652ca7"
          ],
          "data": "0x000000000000000000000000000000000000000000000000000000006786ca2c0000000000000000000000000000000000000000000000000003a2441dbc7a030000000000000000000000000000000000000000000000000dc8405490f1fc88",
          "blockHash": "0x77ee3c7f6be94ab5c0e546fbe4c94b8350734b9510a15651358e1913049f2bc5",
          "blockNumber": "0x725205",
          "transactionHash": "0x1691c0c5621ba405b1ed856e20d67f729d27b5990a47283c763f0bb612bff119",
          "transactionIndex": "0x81",
          "logIndex": "0x13b",
          "removed": false
        }
      ],
      "logsBloom": "0x00000000000000000000000000000000000000000000000000000000000000000000000000000000000000000000000020000000000000004000000000000000000000000000000000000008000000000000000000000000000000000000000000000000020000000000000000000800020000000000000000000010000000000000000000010000000000000000000000000000000000000000010000000000000000000000000000000000000000004000000000000000000000000000000000000002000000800000000000000000000000000000080000008000000020000000000000000000000000000000000000000000000000000000000000000000",
      "type": "0x2",
      "transactionHash": "0x1691c0c5621ba405b1ed856e20d67f729d27b5990a47283c763f0bb612bff119",
      "transactionIndex": "0x81",
      "blockHash": "0x77ee3c7f6be94ab5c0e546fbe4c94b8350734b9510a15651358e1913049f2bc5",
      "blockNumber": "0x725205",
      "gasUsed": "0xfb93",
      "effectiveGasPrice": "0x4624db97c",
      "from": "0xc77f7fed3b5cc8249adc428c5f44c9063b9734b4",
      "to": "0x270e88f8683660553e8ba4eb2ad7c91a1710d769",
      "contractAddress": null
    }
  ],
  "libraries": [],
  "pending": [],
  "returns": {},
  "timestamp": 1736886831,
  "chain": 11155111,
  "commit": "51a374b"
}