{
  "transactions": [
    {
      "hash": "0x4ec3b883bba7a6e088318aee2deab41723b97c8dcbf2a981448b7c22584cd599",
      "transactionType": "CALL",
      "contractName": null,
      "contractAddress": "0xbf4a322f1496e5c3d34a9bcdb4c60567b38c7de2",
      "function": "sell(uint256)",
      "arguments": [
        "973344921695650546029"
      ],
      "transaction": {
        "from": "0xc77f7fed3b5cc8249adc428c5f44c9063b9734b4",
        "to": "0xbf4a322f1496e5c3d34a9bcdb4c60567b38c7de2",
        "gas": "0x16fea",
        "value": "0x0",
        "input": "0xe4849b32000000000000000000000000000000000000000000000034c3dfd1479fa7816d",
        "nonce": "0xe0b",
        "chainId": "0xaa36a7"
      },
      "additionalContracts": [],
      "isFixedGasLimit": false
    }
  ],
  "receipts": [
    {
      "status": "0x1",
      "cumulativeGasUsed": "0xdac3d9",
      "logs": [
        {
          "address": "0xbf4a322f1496e5c3d34a9bcdb4c60567b38c7de2",
          "topics": [
            "0xddf252ad1be2c89b69c2b068fc378daa952ba7f163c4a11628f55a4df523b3ef",
            "0x000000000000000000000000c77f7fed3b5cc8249adc428c5f44c9063b9734b4",
            "0x0000000000000000000000000000000000000000000000000000000000000000"
          ],
          "data": "0x000000000000000000000000000000000000000000000034c3dfd1479fa7816d",
          "blockHash": "0x46d70497fd50871b63f4ecf5e8b8a491a2f51923a44325802ff148ba6c1d3ae1",
          "blockNumber": "0x7266f3",
          "transactionHash": "0x4ec3b883bba7a6e088318aee2deab41723b97c8dcbf2a981448b7c22584cd599",
          "transactionIndex": "0x59",
          "logIndex": "0x9f",
          "removed": false
        },
        {
          "address": "0xbf4a322f1496e5c3d34a9bcdb4c60567b38c7de2",
          "topics": [
            "0x4afcb4a87cdbd9974efdb92ee48bc8d7cd0ae4bf217004db3d080cbaee652ca7"
          ],
          "data": "0x000000000000000000000000000000000000000000000000000000006787c6b000000000000000000000000000000000000000000000000000039fe3740827630000000000000000000000000000000000000000000000000dc7e3d297c8933a",
          "blockHash": "0x46d70497fd50871b63f4ecf5e8b8a491a2f51923a44325802ff148ba6c1d3ae1",
          "blockNumber": "0x7266f3",
          "transactionHash": "0x4ec3b883bba7a6e088318aee2deab41723b97c8dcbf2a981448b7c22584cd599",
          "transactionIndex": "0x59",
          "logIndex": "0xa0",
          "removed": false
        }
      ],
      "logsBloom": "0x00000000000000000000000000000000000000000000000000000000000000000000000000000000000000000000000000000000000000004000000000000000000000000000000000000008000000000000001000000000000000000000000000000000020000000000000000000800020000000000000000000010000000000000000000000000000000000000000000000000000008000000010000000000000000000000000000000000000000004000000000000000000000000000000000000002000000800000000000001000000000000000080000000000000020000000000000000000000000000000000000000000000000000000000000000000",
      "type": "0x2",
      "transactionHash": "0x4ec3b883bba7a6e088318aee2deab41723b97c8dcbf2a981448b7c22584cd599",
      "transactionIndex": "0x59",
      "blockHash": "0x46d70497fd50871b63f4ecf5e8b8a491a2f51923a44325802ff148ba6c1d3ae1",
      "blockNumber": "0x7266f3",
      "gasUsed": "0xfb91",
      "effectiveGasPrice": "0x3957cf892",
      "from": "0xc77f7fed3b5cc8249adc428c5f44c9063b9734b4",
      "to": "0xbf4a322f1496e5c3d34a9bcdb4c60567b38c7de2",
      "contractAddress": null
    }
  ],
  "libraries": [],
  "pending": [],
  "returns": {},
  "timestamp": 1736951474,
  "chain": 11155111,
  "commit": "51a374b"
}