{
  "transactions": [
    {
      "hash": "0x8fcad07a13528b9af140832d164f5e606d66b4178b8e575359828d00bf3f3f6b",
      "transactionType": "CALL",
      "contractName": null,
      "contractAddress": "0x5eb9cc76c3506942c1c0ead70e877dd5e4f00cb0",
      "function": "buy(address)",
      "arguments": [
        "0xC77f7fed3b5Cc8249aDc428c5F44C9063B9734b4"
      ],
      "transaction": {
        "from": "0xc77f7fed3b5cc8249adc428c5f44c9063b9734b4",
        "to": "0x5eb9cc76c3506942c1c0ead70e877dd5e4f00cb0",
        "gas": "0x1b30c",
        "value": "0xde0b6b3a7640000",
        "input": "0xf088d547000000000000000000000000c77f7fed3b5cc8249adc428c5f44c9063b9734b4",
        "nonce": "0x36e",
        "chainId": "0xaa36a7"
      },
      "additionalContracts": [],
      "isFixedGasLimit": false
    }
  ],
  "receipts": [
    {
      "status": "0x1",
      "cumulativeGasUsed": "0xcff13d",
      "logs": [
        {
          "address": "0x5eb9cc76c3506942c1c0ead70e877dd5e4f00cb0",
          "topics": [
            "0xddf252ad1be2c89b69c2b068fc378daa952ba7f163c4a11628f55a4df523b3ef",
            "0x0000000000000000000000000000000000000000000000000000000000000000",
            "0x000000000000000000000000c77f7fed3b5cc8249adc428c5f44c9063b9734b4"
          ],
          "data": "0x0000000000000000000000000000000000000000000000357554a0daf18b4cc3",
          "blockHash": "0xf9e97f04f14ab5b5a418485219caeb3afc5497db22c56a48e81b296791996113",
          "blockNumber": "0x724f64",
          "transactionHash": "0x8fcad07a13528b9af140832d164f5e606d66b4178b8e575359828d00bf3f3f6b",
          "transactionIndex": "0x6a",
          "logIndex": "0x81",
          "removed": false
        },
        {
          "address": "0x5eb9cc76c3506942c1c0ead70e877dd5e4f00cb0",
          "topics": [
            "0xddf252ad1be2c89b69c2b068fc378daa952ba7f163c4a11628f55a4df523b3ef",
            "0x0000000000000000000000000000000000000000000000000000000000000000",
            "0x000000000000000000000000c77f7fed3b5cc8249adc428c5f44c9063b9734b4"
          ],
          "data": "0x00000000000000000000000000000000000000000000000029832041852fa4c1",
          "blockHash": "0xf9e97f04f14ab5b5a418485219caeb3afc5497db22c56a48e81b296791996113",
          "blockNumber": "0x724f64",
          "transactionHash": "0x8fcad07a13528b9af140832d164f5e606d66b4178b8e575359828d00bf3f3f6b",
          "transactionIndex": "0x6a",
          "logIndex": "0x82",
          "removed": false
        },
        {
          "address": "0x5eb9cc76c3506942c1c0ead70e877dd5e4f00cb0",
          "topics": [
            "0x4afcb4a87cdbd9974efdb92ee48bc8d7cd0ae4bf217004db3d080cbaee652ca7"
          ],
          "data": "0x000000000000000000000000000000000000000000000000000000006786aa640000000000000000000000000000000000000000000000000003910fed06d6a20000000000000000000000000000000000000000000000000de0b6b3a7640000",
          "blockHash": "0xf9e97f04f14ab5b5a418485219caeb3afc5497db22c56a48e81b296791996113",
          "blockNumber": "0x724f64",
          "transactionHash": "0x8fcad07a13528b9af140832d164f5e606d66b4178b8e575359828d00bf3f3f6b",
          "transactionIndex": "0x6a",
          "logIndex": "0x83",
          "removed": false
        }
      ],
      "logsBloom": "0x00000000000000000000000000000000000000000000000000000000000000000000000000000000000000000000000000000000000000004000000000000000000000000000000000000008000000000000000000000000000000000000000000000000020000000000000004000800020000000000000000000010000000000000000000000000000000000000000000000000000000000000010000000000000000000000000000000000000000004000000000000000000000000000020000000002000000800000008000000000000000000000080000000000000020000000000000000000000000000000000000000000000000000000000000000000",
      "type": "0x2",
      "transactionHash": "0x8fcad07a13528b9af140832d164f5e606d66b4178b8e575359828d00bf3f3f6b",
      "transactionIndex": "0x6a",
      "blockHash": "0xf9e97f04f14ab5b5a418485219caeb3afc5497db22c56a48e81b296791996113",
      "blockNumber": "0x724f64",
      "gasUsed": "0x13af8",
      "effectiveGasPrice": "0x5d01078cf",
      "from": "0xc77f7fed3b5cc8249adc428c5f44c9063b9734b4",
      "to": "0x5eb9cc76c3506942c1c0ead70e877dd5e4f00cb0",
      "contractAddress": null
    }
  ],
  "libraries": [],
  "pending": [],
  "returns": {},
  "timestamp": 1736878693,
  "chain": 11155111,
  "commit": "51a374b"
}