{
  "transactions": [
    {
      "hash": "0x5f5b12a645b84f97e91c3d5349460cd5bad1f1585b50aec77b48479a177c92f9",
      "transactionType": "CALL",
      "contractName": null,
      "contractAddress": "0xbf4a322f1496e5c3d34a9bcdb4c60567b38c7de2",
      "function": "buy(address)",
      "arguments": [
        "0xC77f7fed3b5Cc8249aDc428c5F44C9063B9734b4"
      ],
      "transaction": {
        "from": "0xc77f7fed3b5cc8249adc428c5f44c9063b9734b4",
        "to": "0xbf4a322f1496e5c3d34a9bcdb4c60567b38c7de2",
        "gas": "0x1b309",
        "value": "0xde0b6b3a7640000",
        "input": "0xf088d547000000000000000000000000c77f7fed3b5cc8249adc428c5f44c9063b9734b4",
        "nonce": "0xce4",
        "chainId": "0xaa36a7"
      },
      "additionalContracts": [],
      "isFixedGasLimit": false
    }
  ],
  "receipts": [
    {
      "status": "0x1",
      "cumulativeGasUsed": "0x113ffe0",
      "logs": [
        {
          "address": "0xbf4a322f1496e5c3d34a9bcdb4c60567b38c7de2",
          "topics": [
            "0xddf252ad1be2c89b69c2b068fc378daa952ba7f163c4a11628f55a4df523b3ef",
            "0x0000000000000000000000000000000000000000000000000000000000000000",
            "0x000000000000000000000000c77f7fed3b5cc8249adc428c5f44c9063b9734b4"
          ],
          "data": "0x000000000000000000000000000000000000000000000034d11dfdfff18493c2",
          "blockHash": "0x34362c3ea8ec8584069075d0b8ea50dac3997474c2d1ddfd845ac1fe44709e1c",
          "blockNumber": "0x725d35",
          "transactionHash": "0x5f5b12a645b84f97e91c3d5349460cd5bad1f1585b50aec77b48479a177c92f9",
          "transactionIndex": "0x96",
          "logIndex": "0x141",
          "removed": false
        },
        {
          "address": "0xbf4a322f1496e5c3d34a9bcdb4c60567b38c7de2",
          "topics": [
            "0xddf252ad1be2c89b69c2b068fc378daa952ba7f163c4a11628f55a4df523b3ef",
            "0x0000000000000000000000000000000000000000000000000000000000000000",
            "0x000000000000000000000000c77f7fed3b5cc8249adc428c5f44c9063b9734b4"
          ],
          "data": "0x00000000000000000000000000000000000000000000000029039bd22f2f53fe",
          "blockHash": "0x34362c3ea8ec8584069075d0b8ea50dac3997474c2d1ddfd845ac1fe44709e1c",
          "blockNumber": "0x725d35",
          "transactionHash": "0x5f5b12a645b84f97e91c3d5349460cd5bad1f1585b50aec77b48479a177c92f9",
          "transactionIndex": "0x96",
          "logIndex": "0x142",
          "removed": false
        },
        {
          "address": "0xbf4a322f1496e5c3d34a9bcdb4c60567b38c7de2",
          "topics": [
            "0x4afcb4a87cdbd9974efdb92ee48bc8d7cd0ae4bf217004db3d080cbaee652ca7"
          ],
          "data": "0x00000000000000000000000000000000000000000000000000000000678750f000000000000000000000000000000000000000000000000000039c290989b91d0000000000000000000000000000000000000000000000000de0b6b3a7640000",
          "blockHash": "0x34362c3ea8ec8584069075d0b8ea50dac3997474c2d1ddfd845ac1fe44709e1c",
          "blockNumber": "0x725d35",
          "transactionHash": "0x5f5b12a645b84f97e91c3d5349460cd5bad1f1585b50aec77b48479a177c92f9",
          "transactionIndex": "0x96",
          "logIndex": "0x143",
          "removed": false
        }
      ],
      "logsBloom": "0x00000000000000000000000000000000000000000000000000000000000000000000000000000000000000000000000000000000000000004000000000000000000000000000000000000008000000000000001000000000000000000000000000000000020000000000000000000800020000000000000000000010000000000000000000000000000000000000000000000000000008000000010000000000000000000000000000000000000000004000000000000000000000000000000000000002000000800000000000001000000000000000080000000000000020000000000000000000000000000000000000000000000000000000000000000000",
      "type": "0x2",
      "transactionHash": "0x5f5b12a645b84f97e91c3d5349460cd5bad1f1585b50aec77b48479a177c92f9",
      "transactionIndex": "0x96",
      "blockHash": "0x34362c3ea8ec8584069075d0b8ea50dac3997474c2d1ddfd845ac1fe44709e1c",
      "blockNumber": "0x725d35",
      "gasUsed": "0x13af6",
      "effectiveGasPrice": "0x4da0b3fdb",
      "from": "0xc77f7fed3b5cc8249adc428c5f44c9063b9734b4",
      "to": "0xbf4a322f1496e5c3d34a9bcdb4c60567b38c7de2",
      "contractAddress": null
    }
  ],
  "libraries": [],
  "pending": [],
  "returns": {},
  "timestamp": 1736921330,
  "chain": 11155111,
  "commit": "51a374b"
}