{
  "transactions": [
    {
      "hash": "0x64164b38ed92ab574ca83b8794618329adcb1f8a55a355f569015b08572c099e",
      "transactionType": "CALL",
      "contractName": null,
      "contractAddress": "0x8aafd3ede9adb0ff97c7aebce82a919afb1c8764",
      "function": "sell(uint256)",
      "arguments": [
        "11900"
      ],
      "transaction": {
        "from": "0xc77f7fed3b5cc8249adc428c5f44c9063b9734b4",
        "to": "0x8aafd3ede9adb0ff97c7aebce82a919afb1c8764",
        "gas": "0x14e4c",
        "value": "0x0",
        "input": "0xe4849b320000000000000000000000000000000000000000000000000000000000002e7c",
        "nonce": "0x108f",
        "chainId": "0xaa36a7"
      },
      "additionalContracts": [],
      "isFixedGasLimit": false
    }
  ],
  "receipts": [
    {
      "status": "0x1",
      "cumulativeGasUsed": "0x105ca09",
      "logs": [
        {
          "address": "0x8aafd3ede9adb0ff97c7aebce82a919afb1c8764",
          "topics": [
            "0xddf252ad1be2c89b69c2b068fc378daa952ba7f163c4a11628f55a4df523b3ef",
            "0x000000000000000000000000c77f7fed3b5cc8249adc428c5f44c9063b9734b4",
            "0x0000000000000000000000000000000000000000000000000000000000000000"
          ],
          "data": "0x0000000000000000000000000000000000000000000000000000000000002e1d",
          "blockHash": "0xcf1802dc2f492955ec94694813b68bdd3c0ca086a71d69912625682f9b8e2a1d",
          "blockNumber": "0x73171c",
          "transactionHash": "0x64164b38ed92ab574ca83b8794618329adcb1f8a55a355f569015b08572c099e",
          "transactionIndex": "0x8d",
          "logIndex": "0xe0",
          "removed": false
        },
        {
          "address": "0x8aafd3ede9adb0ff97c7aebce82a919afb1c8764",
          "topics": [
            "0xddf252ad1be2c89b69c2b068fc378daa952ba7f163c4a11628f55a4df523b3ef",
            "0x000000000000000000000000c77f7fed3b5cc8249adc428c5f44c9063b9734b4",
            "0x000000000000000000000000c77f7fed3b5cc8249adc428c5f44c9063b9734b4"
          ],
          "data": "0x000000000000000000000000000000000000000000000000000000000000005f",
          "blockHash": "0xcf1802dc2f492955ec94694813b68bdd3c0ca086a71d69912625682f9b8e2a1d",
          "blockNumber": "0x73171c",
          "transactionHash": "0x64164b38ed92ab574ca83b8794618329adcb1f8a55a355f569015b08572c099e",
          "transactionIndex": "0x8d",
          "logIndex": "0xe1",
          "removed": false
        },
        {
          "address": "0x8aafd3ede9adb0ff97c7aebce82a919afb1c8764",
          "topics": [
            "0x4afcb4a87cdbd9974efdb92ee48bc8d7cd0ae4bf217004db3d080cbaee652ca7"
          ],
          "data": "0x00000000000000000000000000000000000000000000000000000000679012140000000000000000000000000000000000000000000000000004fabae4fcaab10000000000000000000000000000000000000000000000000000000000000010",
          "blockHash": "0xcf1802dc2f492955ec94694813b68bdd3c0ca086a71d69912625682f9b8e2a1d",
          "blockNumber": "0x73171c",
          "transactionHash": "0x64164b38ed92ab574ca83b8794618329adcb1f8a55a355f569015b08572c099e",
          "transactionIndex": "0x8d",
          "logIndex": "0xe2",
          "removed": false
        }
      ],
      "logsBloom": "0x00000000000000000000000000000000000000000600000000000000000000000000000000000000000000000000000000000000000000004000000000000000000000000000004000000008000000000000000000000000000000000000000000000000020000000000000000000800020000000000000000000010000000000000000000000000000000000000000000000000000000000000010000000000000000000000000000000000000000004000000000000000000000000000000000000002000000800000000000000000000000000000080000000000000020000000000000000000000000000000000000000000000000000000000000000000",
      "type": "0x2",
      "transactionHash": "0x64164b38ed92ab574ca83b8794618329adcb1f8a55a355f569015b08572c099e",
      "transactionIndex": "0x8d",
      "blockHash": "0xcf1802dc2f492955ec94694813b68bdd3c0ca086a71d69912625682f9b8e2a1d",
      "blockNumber": "0x73171c",
      "gasUsed": "0xf207",
      "effectiveGasPrice": "0x41b4563a",
      "from": "0xc77f7fed3b5cc8249adc428c5f44c9063b9734b4",
      "to": "0x8aafd3ede9adb0ff97c7aebce82a919afb1c8764",
      "contractAddress": null
    }
  ],
  "libraries": [],
  "pending": [],
  "returns": {},
  "timestamp": 1737495063,
  "chain": 11155111,
  "commit": "1d2fb70"
}