{
  "transactions": [
    {
      "hash": "0x96327f9192ca7414a4f48ec5a87c2259f9fdc538927b70496614a603a12a05de",
      "transactionType": "CALL",
      "contractName": null,
      "contractAddress": "0x270e88f8683660553e8ba4eb2ad7c91a1710d769",
      "function": "sell(uint256)",
      "arguments": [
        "961158174903236245209"
      ],
      "transaction": {
        "from": "0xc77f7fed3b5cc8249adc428c5f44c9063b9734b4",
        "to": "0x270e88f8683660553e8ba4eb2ad7c91a1710d769",
        "gas": "0x16fec",
        "value": "0x0",
        "input": "0xe4849b320000000000000000000000000000000000000000000000341abfcba3e62b36d9",
        "nonce": "0x5a3",
        "chainId": "0xaa36a7"
      },
      "additionalContracts": [],
      "isFixedGasLimit": false
    }
  ],
  "receipts": [
    {
      "status": "0x1",
      "cumulativeGasUsed": "0x1fd89d5",
      "logs": [
        {
          "address": "0x270e88f8683660553e8ba4eb2ad7c91a1710d769",
          "topics": [
            "0xddf252ad1be2c89b69c2b068fc378daa952ba7f163c4a11628f55a4df523b3ef",
            "0x000000000000000000000000c77f7fed3b5cc8249adc428c5f44c9063b9734b4",
            "0x0000000000000000000000000000000000000000000000000000000000000000"
          ],
          "data": "0x0000000000000000000000000000000000000000000000341abfcba3e62b36d9",
          "blockHash": "0x4edb22401a1497ae974e5c4d2e079d3b6312a583fbeb3fcc2bdc029b15d6b35c",
          "blockNumber": "0x72525c",
          "transactionHash": "0x96327f9192ca7414a4f48ec5a87c2259f9fdc538927b70496614a603a12a05de",
          "transactionIndex": "0x9d",
          "logIndex": "0x147",
          "removed": false
        },
        {
          "address": "0x270e88f8683660553e8ba4eb2ad7c91a1710d769",
          "topics": [
            "0x4afcb4a87cdbd9974efdb92ee48bc8d7cd0ae4bf217004db3d080cbaee652ca7"
          ],
          "data": "0x000000000000000000000000000000000000000000000000000000006786ce400000000000000000000000000000000000000000000000000003abeb9ee0acef0000000000000000000000000000000000000000000000000dc83f4e29825dd4",
          "blockHash": "0x4edb22401a1497ae974e5c4d2e079d3b6312a583fbeb3fcc2bdc029b15d6b35c",
          "blockNumber": "0x72525c",
          "transactionHash": "0x96327f9192ca7414a4f48ec5a87c2259f9fdc538927b70496614a603a12a05de",
          "transactionIndex": "0x9d",
          "logIndex": "0x148",
          "removed": false
        }
      ],
      "logsBloom": "0x00000000000000000000000000000000000000000000000000000000000000000000000000000000000000000000000020000000000000004000000000000000000000000000000000000008000000000000000000000000000000000000000000000000020000000000000000000800020000000000000000000010000000000000000000010000000000000000000000000000000000000000010000000000000000000000000000000000000000004000000000000000000000000000000000000002000000800000000000000000000000000000080000008000000020000000000000000000000000000000000000000000000000000000000000000000",
      "type": "0x2",
      "transactionHash": "0x96327f9192ca7414a4f48ec5a87c2259f9fdc538927b70496614a603a12a05de",
      "transactionIndex": "0x9d",
      "blockHash": "0x4edb22401a1497ae974e5c4d2e079d3b6312a583fbeb3fcc2bdc029b15d6b35c",
      "blockNumber": "0x72525c",
      "gasUsed": "0xfb93",
      "effectiveGasPrice": "0x5376c14cd",
      "from": "0xc77f7fed3b5cc8249adc428c5f44c9063b9734b4",
      "to": "0x270e88f8683660553e8ba4eb2ad7c91a1710d769",
      "contractAddress": null
    }
  ],
  "libraries": [],
  "pending": [],
  "returns": {},
  "timestamp": 1736887873,
  "chain": 11155111,
  "commit": "51a374b"
}