{
  "transactions": [
    {
      "hash": "0x59a176f3c198579ee82f181072b76c00ae46ade5ade90924e9b839c3cce6979d",
      "transactionType": "CALL",
      "contractName": null,
      "contractAddress": "0x8aafd3ede9adb0ff97c7aebce82a919afb1c8764",
      "function": "sell(uint256)",
      "arguments": [
        "6638352200"
      ],
      "transaction": {
        "from": "0xc77f7fed3b5cc8249adc428c5f44c9063b9734b4",
        "to": "0x8aafd3ede9adb0ff97c7aebce82a919afb1c8764",
        "gas": "0x1722a",
        "value": "0x0",
        "input": "0xe4849b32000000000000000000000000000000000000000000000000000000018bad3748",
        "nonce": "0x1528",
        "chainId": "0xaa36a7"
      },
      "additionalContracts": [],
      "isFixedGasLimit": false
    }
  ],
  "receipts": [
    {
      "status": "0x1",
      "cumulativeGasUsed": "0xf58108",
      "logs": [
        {
          "address": "0x8aafd3ede9adb0ff97c7aebce82a919afb1c8764",
          "topics": [
            "0xddf252ad1be2c89b69c2b068fc378daa952ba7f163c4a11628f55a4df523b3ef",
            "0x000000000000000000000000c77f7fed3b5cc8249adc428c5f44c9063b9734b4",
            "0x0000000000000000000000000000000000000000000000000000000000000000"
          ],
          "data": "0x000000000000000000000000000000000000000000000000000000018882dec7",
          "blockHash": "0x2866a336de6f3ec7ff38e113e2ac485e1ff13084ddfa2d93a0762efa31d31317",
          "blockNumber": "0x731c8a",
          "transactionHash": "0x59a176f3c198579ee82f181072b76c00ae46ade5ade90924e9b839c3cce6979d",
          "transactionIndex": "0x76",
          "logIndex": "0xba",
          "removed": false
        },
        {
          "address": "0x8aafd3ede9adb0ff97c7aebce82a919afb1c8764",
          "topics": [
            "0xddf252ad1be2c89b69c2b068fc378daa952ba7f163c4a11628f55a4df523b3ef",
            "0x000000000000000000000000c77f7fed3b5cc8249adc428c5f44c9063b9734b4",
            "0x000000000000000000000000c77f7fed3b5cc8249adc428c5f44c9063b9734b4"
          ],
          "data": "0x00000000000000000000000000000000000000000000000000000000032a5881",
          "blockHash": "0x2866a336de6f3ec7ff38e113e2ac485e1ff13084ddfa2d93a0762efa31d31317",
          "blockNumber": "0x731c8a",
          "transactionHash": "0x59a176f3c198579ee82f181072b76c00ae46ade5ade90924e9b839c3cce6979d",
          "transactionIndex": "0x76",
          "logIndex": "0xbb",
          "removed": false
        },
        {
          "address": "0x8aafd3ede9adb0ff97c7aebce82a919afb1c8764",
          "topics": [
            "0x4afcb4a87cdbd9974efdb92ee48bc8d7cd0ae4bf217004db3d080cbaee652ca7"
          ],
          "data": "0x0000000000000000000000000000000000000000000000000000000067905354000000000000000000000000000000000000000000000000001184953f724e6b0000000000000000000000000000000000000000000000000000000001f37636",
          "blockHash": "0x2866a336de6f3ec7ff38e113e2ac485e1ff13084ddfa2d93a0762efa31d31317",
          "blockNumber": "0x731c8a",
          "transactionHash": "0x59a176f3c198579ee82f181072b76c00ae46ade5ade90924e9b839c3cce6979d",
          "transactionIndex": "0x76",
          "logIndex": "0xbc",
          "removed": false
        }
      ],
      "logsBloom": "0x00000000000000000000000000000000000000000600000000000000000000000000000000000000000000000000000000000000000000004000000000000000000000000000004000000008000000000000000000000000000000000000000000000000020000000000000000000800020000000000000000000010000000000000000000000000000000000000000000000000000000000000010000000000000000000000000000000000000000004000000000000000000000000000000000000002000000800000000000000000000000000000080000000000000020000000000000000000000000000000000000000000000000000000000000000000",
      "type": "0x2",
      "transactionHash": "0x59a176f3c198579ee82f181072b76c00ae46ade5ade90924e9b839c3cce6979d",
      "transactionIndex": "0x76",
      "blockHash": "0x2866a336de6f3ec7ff38e113e2ac485e1ff13084ddfa2d93a0762efa31d31317",
      "blockNumber": "0x731c8a",
      "gasUsed": "0xfd1b",
      "effectiveGasPrice": "0xfee4df5f",
      "from": "0xc77f7fed3b5cc8249adc428c5f44c9063b9734b4",
      "to": "0x8aafd3ede9adb0ff97c7aebce82a919afb1c8764",
      "contractAddress": null
    }
  ],
  "libraries": [],
  "pending": [],
  "returns": {},
  "timestamp": 1737511765,
  "chain": 11155111,
  "commit": "1d2fb70"
}