{
  "transactions": [
    {
      "hash": "0xb7894725b3c55abd6991d61d96cd89d58cd3ef3b294b16efe8c7e94fd4e39e69",
      "transactionType": "CALL",
      "contractName": null,
      "contractAddress": "0x8aafd3ede9adb0ff97c7aebce82a919afb1c8764",
      "function": "sell(uint256)",
      "arguments": [
        "135900567684718"
      ],
      "transaction": {
        "from": "0xc77f7fed3b5cc8249adc428c5f44c9063b9734b4",
        "to": "0x8aafd3ede9adb0ff97c7aebce82a919afb1c8764",
        "gas": "0x15daa",
        "value": "0x0",
        "input": "0xe4849b3200000000000000000000000000000000000000000000000000007b99d10fc66e",
        "nonce": "0x13be",
        "chainId": "0xaa36a7"
      },
      "additionalContracts": [],
      "isFixedGasLimit": false
    }
  ],
  "receipts": [
    {
      "status": "0x1",
      "cumulativeGasUsed": "0x6cb67e",
      "logs": [
        {
          "address": "0x8aafd3ede9adb0ff97c7aebce82a919afb1c8764",
          "topics": [
            "0xddf252ad1be2c89b69c2b068fc378daa952ba7f163c4a11628f55a4df523b3ef",
            "0x000000000000000000000000c77f7fed3b5cc8249adc428c5f44c9063b9734b4",
            "0x0000000000000000000000000000000000000000000000000000000000000000"
          ],
          "data": "0x00000000000000000000000000000000000000000000000000007a9cae9f0249",
          "blockHash": "0x924911f1aeafdb8101d978c1cb9e2216a9d4b18dcf5bb0b84361a6572fd0b650",
          "blockNumber": "0x731ae9",
          "transactionHash": "0xb7894725b3c55abd6991d61d96cd89d58cd3ef3b294b16efe8c7e94fd4e39e69",
          "transactionIndex": "0x3e",
          "logIndex": "0x45",
          "removed": false
        },
        {
          "address": "0x8aafd3ede9adb0ff97c7aebce82a919afb1c8764",
          "topics": [
            "0xddf252ad1be2c89b69c2b068fc378daa952ba7f163c4a11628f55a4df523b3ef",
            "0x000000000000000000000000c77f7fed3b5cc8249adc428c5f44c9063b9734b4",
            "0x000000000000000000000000c77f7fed3b5cc8249adc428c5f44c9063b9734b4"
          ],
          "data": "0x000000000000000000000000000000000000000000000000000000fd2270c425",
          "blockHash": "0x924911f1aeafdb8101d978c1cb9e2216a9d4b18dcf5bb0b84361a6572fd0b650",
          "blockNumber": "0x731ae9",
          "transactionHash": "0xb7894725b3c55abd6991d61d96cd89d58cd3ef3b294b16efe8c7e94fd4e39e69",
          "transactionIndex": "0x3e",
          "logIndex": "0x46",
          "removed": false
        },
        {
          "address": "0x8aafd3ede9adb0ff97c7aebce82a919afb1c8764",
          "topics": [
            "0x4afcb4a87cdbd9974efdb92ee48bc8d7cd0ae4bf217004db3d080cbaee652ca7"
          ],
          "data": "0x0000000000000000000000000000000000000000000000000000000067903fbc000000000000000000000000000000000000000000000000000d64b024d1e44b000000000000000000000000000000000000000000000000000000774932843a",
          "blockHash": "0x924911f1aeafdb8101d978c1cb9e2216a9d4b18dcf5bb0b84361a6572fd0b650",
          "blockNumber": "0x731ae9",
          "transactionHash": "0xb7894725b3c55abd6991d61d96cd89d58cd3ef3b294b16efe8c7e94fd4e39e69",
          "transactionIndex": "0x3e",
          "logIndex": "0x47",
          "removed": false
        }
      ],
      "logsBloom": "0x00000000000000000000000000000000000000000600000000000000000000000000000000000000000000000000000000000000000000004000000000000000000000000000004000000008000000000000000000000000000000000000000000000000020000000000000000000800020000000000000000000010000000000000000000000000000000000000000000000000000000000000010000000000000000000000000000000000000000004000000000000000000000000000000000000002000000800000000000000000000000000000080000000000000020000000000000000000000000000000000000000000000000000000000000000000",
      "type": "0x2",
      "transactionHash": "0xb7894725b3c55abd6991d61d96cd89d58cd3ef3b294b16efe8c7e94fd4e39e69",
      "transactionIndex": "0x3e",
      "blockHash": "0x924911f1aeafdb8101d978c1cb9e2216a9d4b18dcf5bb0b84361a6572fd0b650",
      "blockNumber": "0x731ae9",
      "gasUsed": "0xfd27",
      "effectiveGasPrice": "0x86bded5d",
      "from": "0xc77f7fed3b5cc8249adc428c5f44c9063b9734b4",
      "to": "0x8aafd3ede9adb0ff97c7aebce82a919afb1c8764",
      "contractAddress": null
    }
  ],
  "libraries": [],
  "pending": [],
  "returns": {},
  "timestamp": 1737506750,
  "chain": 11155111,
  "commit": "1d2fb70"
}