{
  "transactions": [
    {
      "hash": "0xb92a7b6523530c12fbe698349afad93f4ffaf196634bdb85de7e2440362c01a4",
      "transactionType": "CALL",
      "contractName": null,
      "contractAddress": "0x8aafd3ede9adb0ff97c7aebce82a919afb1c8764",
      "function": "sell(uint256)",
      "arguments": [
        "1512312474762863298"
      ],
      "transaction": {
        "from": "0xc77f7fed3b5cc8249adc428c5f44c9063b9734b4",
        "to": "0x8aafd3ede9adb0ff97c7aebce82a919afb1c8764",
        "gas": "0x15dca",
        "value": "0x0",
        "input": "0xe4849b3200000000000000000000000000000000000000000000000014fcd02ee7a1e2c2",
        "nonce": "0x1590",
        "chainId": "0xaa36a7"
      },
      "additionalContracts": [],
      "isFixedGasLimit": false
    }
  ],
  "receipts": [
    {
      "status": "0x1",
      "cumulativeGasUsed": "0x11140c8",
      "logs": [
        {
          "address": "0x8aafd3ede9adb0ff97c7aebce82a919afb1c8764",
          "topics": [
            "0xddf252ad1be2c89b69c2b068fc378daa952ba7f163c4a11628f55a4df523b3ef",
            "0x000000000000000000000000c77f7fed3b5cc8249adc428c5f44c9063b9734b4",
            "0x0000000000000000000000000000000000000000000000000000000000000000"
          ],
          "data": "0x00000000000000000000000000000000000000000000000014d1d4a968d9ef48",
          "blockHash": "0xfee88a9b52ca5be9ce263504b5471a92023d1ff446183f9da1bb92a5ecf3be77",
          "blockNumber": "0x731cff",
          "transactionHash": "0xb92a7b6523530c12fbe698349afad93f4ffaf196634bdb85de7e2440362c01a4",
          "transactionIndex": "0x77",
          "logIndex": "0xce",
          "removed": false
        },
        {
          "address": "0x8aafd3ede9adb0ff97c7aebce82a919afb1c8764",
          "topics": [
            "0xddf252ad1be2c89b69c2b068fc378daa952ba7f163c4a11628f55a4df523b3ef",
            "0x000000000000000000000000c77f7fed3b5cc8249adc428c5f44c9063b9734b4",
            "0x000000000000000000000000c77f7fed3b5cc8249adc428c5f44c9063b9734b4"
          ],
          "data": "0x000000000000000000000000000000000000000000000000002afb857ec7f37a",
          "blockHash": "0xfee88a9b52ca5be9ce263504b5471a92023d1ff446183f9da1bb92a5ecf3be77",
          "blockNumber": "0x731cff",
          "transactionHash": "0xb92a7b6523530c12fbe698349afad93f4ffaf196634bdb85de7e2440362c01a4",
          "transactionIndex": "0x77",
          "logIndex": "0xcf",
          "removed": false
        },
        {
          "address": "0x8aafd3ede9adb0ff97c7aebce82a919afb1c8764",
          "topics": [
            "0x4afcb4a87cdbd9974efdb92ee48bc8d7cd0ae4bf217004db3d080cbaee652ca7"
          ],
          "data": "0x00000000000000000000000000000000000000000000000000000000679058dc0000000000000000000000000000000000000000000000000012c427b920d682000000000000000000000000000000000000000000000000001c612447aaea9b",
          "blockHash": "0xfee88a9b52ca5be9ce263504b5471a92023d1ff446183f9da1bb92a5ecf3be77",
          "blockNumber": "0x731cff",
          "transactionHash": "0xb92a7b6523530c12fbe698349afad93f4ffaf196634bdb85de7e2440362c01a4",
          "transactionIndex": "0x77",
          "logIndex": "0xd0",
          "removed": false
        }
      ],
      "logsBloom": "0x00000000000000000000000000000000000000000600000000000000000000000000000000000000000000000000000000000000000000004000000000000000000000000000004000000008000000000000000000000000000000000000000000000000020000000000000000000800020000000000000000000010000000000000000000000000000000000000000000000000000000000000010000000000000000000000000000000000000000004000000000000000000000000000000000000002000000800000000000000000000000000000080000000000000020000000000000000000000000000000000000000000000000000000000000000000",
      "type": "0x2",
      "transactionHash": "0xb92a7b6523530c12fbe698349afad93f4ffaf196634bdb85de7e2440362c01a4",
      "transactionIndex": "0x77",
      "blockHash": "0xfee88a9b52ca5be9ce263504b5471a92023d1ff446183f9da1bb92a5ecf3be77",
      "blockNumber": "0x731cff",
      "gasUsed": "0xfd3f",
      "effectiveGasPrice": "0x6af2ad41",
      "from": "0xc77f7fed3b5cc8249adc428c5f44c9063b9734b4",
      "to": "0x8aafd3ede9adb0ff97c7aebce82a919afb1c8764",
      "contractAddress": null
    }
  ],
  "libraries": [],
  "pending": [],
  "returns": {},
  "timestamp": 1737513181,
  "chain": 11155111,
  "commit": "1d2fb70"
}