{
  "transactions": [
    {
      "hash": "0xb346f3b45dfa26809c7898ace897eb49de998d1c1e7ee1d11a8b0b47146f2c8c",
      "transactionType": "CALL",
      "contractName": null,
      "contractAddress": "0x8aafd3ede9adb0ff97c7aebce82a919afb1c8764",
      "function": "sell(uint256)",
      "arguments": [
        "13201516764098012"
      ],
      "transaction": {
        "from": "0xc77f7fed3b5cc8249adc428c5f44c9063b9734b4",
        "to": "0x8aafd3ede9adb0ff97c7aebce82a919afb1c8764",
        "gas": "0x1724d",
        "value": "0x0",
        "input": "0xe4849b32000000000000000000000000000000000000000000000000002ee6b5a5386ddc",
        "nonce": "0x150a",
        "chainId": "0xaa36a7"
      },
      "additionalContracts": [],
      "isFixedGasLimit": false
    }
  ],
  "receipts": [
    {
      "status": "0x1",
      "cumulativeGasUsed": "0xfd57c8",
      "logs": [
        {
          "address": "0x8aafd3ede9adb0ff97c7aebce82a919afb1c8764",
          "topics": [
            "0xddf252ad1be2c89b69c2b068fc378daa952ba7f163c4a11628f55a4df523b3ef",
            "0x000000000000000000000000c77f7fed3b5cc8249adc428c5f44c9063b9734b4",
            "0x0000000000000000000000000000000000000000000000000000000000000000"
          ],
          "data": "0x000000000000000000000000000000000000000000000000002e86a7e77b8fcc",
          "blockHash": "0xb2f863d8d58d8b855da27d36a3ce4e3d4cace04472253f8c321e1ed6d19d65bf",
          "blockNumber": "0x731c6c",
          "transactionHash": "0xb346f3b45dfa26809c7898ace897eb49de998d1c1e7ee1d11a8b0b47146f2c8c",
          "transactionIndex": "0x73",
          "logIndex": "0xc1",
          "removed": false
        },
        {
          "address": "0x8aafd3ede9adb0ff97c7aebce82a919afb1c8764",
          "topics": [
            "0xddf252ad1be2c89b69c2b068fc378daa952ba7f163c4a11628f55a4df523b3ef",
            "0x000000000000000000000000c77f7fed3b5cc8249adc428c5f44c9063b9734b4",
            "0x000000000000000000000000c77f7fed3b5cc8249adc428c5f44c9063b9734b4"
          ],
          "data": "0x0000000000000000000000000000000000000000000000000000600dbdbcde10",
          "blockHash": "0xb2f863d8d58d8b855da27d36a3ce4e3d4cace04472253f8c321e1ed6d19d65bf",
          "blockNumber": "0x731c6c",
          "transactionHash": "0xb346f3b45dfa26809c7898ace897eb49de998d1c1e7ee1d11a8b0b47146f2c8c",
          "transactionIndex": "0x73",
          "logIndex": "0xc2",
          "removed": false
        },
        {
          "address": "0x8aafd3ede9adb0ff97c7aebce82a919afb1c8764",
          "topics": [
            "0x4afcb4a87cdbd9974efdb92ee48bc8d7cd0ae4bf217004db3d080cbaee652ca7"
          ],
          "data": "0x00000000000000000000000000000000000000000000000000000000679051ec000000000000000000000000000000000000000000000000001134de573f7a3200000000000000000000000000000000000000000000000000003a26a3431297",
          "blockHash": "0xb2f863d8d58d8b855da27d36a3ce4e3d4cace04472253f8c321e1ed6d19d65bf",
          "blockNumber": "0x731c6c",
          "transactionHash": "0xb346f3b45dfa26809c7898ace897eb49de998d1c1e7ee1d11a8b0b47146f2c8c",
          "transactionIndex": "0x73",
          "logIndex": "0xc3",
          "removed": false
        }
      ],
      "logsBloom": "0x00000000000000000000000000000000000000000600000000000000000000000000000000000000000000000000000000000000000000004000000000000000000000000000004000000008000000000000000000000000000000000000000000000000020000000000000000000800020000000000000000000010000000000000000000000000000000000000000000000000000000000000010000000000000000000000000000000000000000004000000000000000000000000000000000000002000000800000000000000000000000000000080000000000000020000000000000000000000000000000000000000000000000000000000000000000",
      "type": "0x2",
      "transactionHash": "0xb346f3b45dfa26809c7898ace897eb49de998d1c1e7ee1d11a8b0b47146f2c8c",
      "transactionIndex": "0x73",
      "blockHash": "0xb2f863d8d58d8b855da27d36a3ce4e3d4cace04472253f8c321e1ed6d19d65bf",
      "blockNumber": "0x731c6c",
      "gasUsed": "0xfd33",
      "effectiveGasPrice": "0x1a8e3cb01",
      "from": "0xc77f7fed3b5cc8249adc428c5f44c9063b9734b4",
      "to": "0x8aafd3ede9adb0ff97c7aebce82a919afb1c8764",
      "contractAddress": null
    }
  ],
  "libraries": [],
  "pending": [],
  "returns": {},
  "timestamp": 1737511405,
  "chain": 11155111,
  "commit": "1d2fb70"
}