{
  "transactions": [
    {
      "hash": "0x19a45fdb011a9aec4fa3332ff796a48fe6ac06bd7596765899f1527f3266dfdb",
      "transactionType": "CALL",
      "contractName": null,
      "contractAddress": "0xbf4a322f1496e5c3d34a9bcdb4c60567b38c7de2",
      "function": "buy(address)",
      "arguments": [
        "0xC77f7fed3b5Cc8249aDc428c5F44C9063B9734b4"
      ],
      "transaction": {
        "from": "0xc77f7fed3b5cc8249adc428c5f44c9063b9734b4",
        "to": "0xbf4a322f1496e5c3d34a9bcdb4c60567b38c7de2",
        "gas": "0x1b309",
        "value": "0xde0b6b3a7640000",
        "input": "0xf088d547000000000000000000000000c77f7fed3b5cc8249adc428c5f44c9063b9734b4",
        "nonce": "0xc80",
        "chainId": "0xaa36a7"
      },
      "additionalContracts": [],
      "isFixedGasLimit": false
    }
  ],
  "receipts": [
    {
      "status": "0x1",
      "cumulativeGasUsed": "0x60567f",
      "logs": [
        {
          "address": "0xbf4a322f1496e5c3d34a9bcdb4c60567b38c7de2",
          "topics": [
            "0xddf252ad1be2c89b69c2b068fc378daa952ba7f163c4a11628f55a4df523b3ef",
            "0x0000000000000000000000000000000000000000000000000000000000000000",
            "0x000000000000000000000000c77f7fed3b5cc8249adc428c5f44c9063b9734b4"
          ],
          "data": "0x000000000000000000000000000000000000000000000034e39d80e30c4d7723",
          "blockHash": "0x4d7048cae400680c27f50d16e0b52e06bc7f92f891ece5be77c9847ccda32584",
          "blockNumber": "0x725cc0",
          "transactionHash": "0x19a45fdb011a9aec4fa3332ff796a48fe6ac06bd7596765899f1527f3266dfdb",
          "transactionIndex": "0x39",
          "logIndex": "0x4a",
          "removed": false
        },
        {
          "address": "0xbf4a322f1496e5c3d34a9bcdb4c60567b38c7de2",
          "topics": [
            "0xddf252ad1be2c89b69c2b068fc378daa952ba7f163c4a11628f55a4df523b3ef",
            "0x0000000000000000000000000000000000000000000000000000000000000000",
            "0x000000000000000000000000c77f7fed3b5cc8249adc428c5f44c9063b9734b4"
          ],
          "data": "0x0000000000000000000000000000000000000000000000002911f91b68c4baaa",
          "blockHash": "0x4d7048cae400680c27f50d16e0b52e06bc7f92f891ece5be77c9847ccda32584",
          "blockNumber": "0x725cc0",
          "transactionHash": "0x19a45fdb011a9aec4fa3332ff796a48fe6ac06bd7596765899f1527f3266dfdb",
          "transactionIndex": "0x39",
          "logIndex": "0x4b",
          "removed": false
        },
        {
          "address": "0xbf4a322f1496e5c3d34a9bcdb4c60567b38c7de2",
          "topics": [
            "0x4afcb4a87cdbd9974efdb92ee48bc8d7cd0ae4bf217004db3d080cbaee652ca7"
          ],
          "data": "0x0000000000000000000000000000000000000000000000000000000067874b7400000000000000000000000000000000000000000000000000039ae5d03207150000000000000000000000000000000000000000000000000de0b6b3a7640000",
          "blockHash": "0x4d7048cae400680c27f50d16e0b52e06bc7f92f891ece5be77c9847ccda32584",
          "blockNumber": "0x725cc0",
          "transactionHash": "0x19a45fdb011a9aec4fa3332ff796a48fe6ac06bd7596765899f1527f3266dfdb",
          "transactionIndex": "0x39",
          "logIndex": "0x4c",
          "removed": false
        }
      ],
      "logsBloom": "0x00000000000000000000000000000000000000000000000000000000000000000000000000000000000000000000000000000000000000004000000000000000000000000000000000000008000000000000001000000000000000000000000000000000020000000000000000000800020000000000000000000010000000000000000000000000000000000000000000000000000008000000010000000000000000000000000000000000000000004000000000000000000000000000000000000002000000800000000000001000000000000000080000000000000020000000000000000000000000000000000000000000000000000000000000000000",
      "type": "0x2",
      "transactionHash": "0x19a45fdb011a9aec4fa3332ff796a48fe6ac06bd7596765899f1527f3266dfdb",
      "transactionIndex": "0x39",
      "blockHash": "0x4d7048cae400680c27f50d16e0b52e06bc7f92f891ece5be77c9847ccda32584",
      "blockNumber": "0x725cc0",
      "gasUsed": "0x13af6",
      "effectiveGasPrice": "0x2bac7af93",
      "from": "0xc77f7fed3b5cc8249adc428c5f44c9063b9734b4",
      "to": "0xbf4a322f1496e5c3d34a9bcdb4c60567b38c7de2",
      "contractAddress": null
    }
  ],
  "libraries": [],
  "pending": [],
  "returns": {},
  "timestamp": 1736919926,
  "chain": 11155111,
  "commit": "51a374b"
}