{
  "transactions": [
    {
      "hash": "0x94e662a602a11bb42147f8e61403706528549cb008bb52e2e728cfbb788b3eea",
      "transactionType": "CALL",
      "contractName": null,
      "contractAddress": "0xbf4a322f1496e5c3d34a9bcdb4c60567b38c7de2",
      "function": "buy(address)",
      "arguments": [
        "0xC77f7fed3b5Cc8249aDc428c5F44C9063B9734b4"
      ],
      "transaction": {
        "from": "0xc77f7fed3b5cc8249adc428c5f44c9063b9734b4",
        "to": "0xbf4a322f1496e5c3d34a9bcdb4c60567b38c7de2",
        "gas": "0x1b309",
        "value": "0xde0b6b3a7640000",
        "input": "0xf088d547000000000000000000000000c77f7fed3b5cc8249adc428c5f44c9063b9734b4",
        "nonce": "0xdda",
        "chainId": "0xaa36a7"
      },
      "additionalContracts": [],
      "isFixedGasLimit": false
    }
  ],
  "receipts": [
    {
      "status": "0x1",
      "cumulativeGasUsed": "0xad7ef8",
      "logs": [
        {
          "address": "0xbf4a322f1496e5c3d34a9bcdb4c60567b38c7de2",
          "topics": [
            "0xddf252ad1be2c89b69c2b068fc378daa952ba7f163c4a11628f55a4df523b3ef",
            "0x0000000000000000000000000000000000000000000000000000000000000000",
            "0x000000000000000000000000c77f7fed3b5cc8249adc428c5f44c9063b9734b4"
          ],
          "data": "0x000000000000000000000000000000000000000000000034a3d3811d64bb9dfd",
          "blockHash": "0x2a4e86206c3a7e86c728a2c77180beeeb36e067bc22d0443219bc6fbe20fc176",
          "blockNumber": "0x7266b8",
          "transactionHash": "0x94e662a602a11bb42147f8e61403706528549cb008bb52e2e728cfbb788b3eea",
          "transactionIndex": "0x3d",
          "logIndex": "0x5c",
          "removed": false
        },
        {
          "address": "0xbf4a322f1496e5c3d34a9bcdb4c60567b38c7de2",
          "topics": [
            "0xddf252ad1be2c89b69c2b068fc378daa952ba7f163c4a11628f55a4df523b3ef",
            "0x0000000000000000000000000000000000000000000000000000000000000000",
            "0x000000000000000000000000c77f7fed3b5cc8249adc428c5f44c9063b9734b4"
          ],
          "data": "0x00000000000000000000000000000000000000000000000028e0704e4546fe34",
          "blockHash": "0x2a4e86206c3a7e86c728a2c77180beeeb36e067bc22d0443219bc6fbe20fc176",
          "blockNumber": "0x7266b8",
          "transactionHash": "0x94e662a602a11bb42147f8e61403706528549cb008bb52e2e728cfbb788b3eea",
          "transactionIndex": "0x3d",
          "logIndex": "0x5d",
          "removed": false
        },
        {
          "address": "0xbf4a322f1496e5c3d34a9bcdb4c60567b38c7de2",
          "topics": [
            "0x4afcb4a87cdbd9974efdb92ee48bc8d7cd0ae4bf217004db3d080cbaee652ca7"
          ],
          "data": "0x000000000000000000000000000000000000000000000000000000006787c3a400000000000000000000000000000000000000000000000000039f442b51c0d00000000000000000000000000000000000000000000000000de0b6b3a7640000",
          "blockHash": "0x2a4e86206c3a7e86c728a2c77180beeeb36e067bc22d0443219bc6fbe20fc176",
          "blockNumber": "0x7266b8",
          "transactionHash": "0x94e662a602a11bb42147f8e61403706528549cb008bb52e2e728cfbb788b3eea",
          "transactionIndex": "0x3d",
          "logIndex": "0x5e",
          "removed": false
        }
      ],
      "logsBloom": "0x00000000000000000000000000000000000000000000000000000000000000000000000000000000000000000000000000000000000000004000000000000000000000000000000000000008000000000000001000000000000000000000000000000000020000000000000000000800020000000000000000000010000000000000000000000000000000000000000000000000000008000000010000000000000000000000000000000000000000004000000000000000000000000000000000000002000000800000000000001000000000000000080000000000000020000000000000000000000000000000000000000000000000000000000000000000",
      "type": "0x2",
      "transactionHash": "0x94e662a602a11bb42147f8e61403706528549cb008bb52e2e728cfbb788b3eea",
      "transactionIndex": "0x3d",
      "blockHash": "0x2a4e86206c3a7e86c728a2c77180beeeb36e067bc22d0443219bc6fbe20fc176",
      "blockNumber": "0x7266b8",
      "gasUsed": "0x13af6",
      "effectiveGasPrice": "0x1e29411c6",
      "from": "0xc77f7fed3b5cc8249adc428c5f44c9063b9734b4",
      "to": "0xbf4a322f1496e5c3d34a9bcdb4c60567b38c7de2",
      "contractAddress": null
    }
  ],
  "libraries": [],
  "pending": [],
  "returns": {},
  "timestamp": 1736950693,
  "chain": 11155111,
  "commit": "51a374b"
}