{
  "transactions": [
    {
      "hash": "0x3d3a7b6d5f85847c793bbf2140453dcbc7d029b091ec50dfff46c67a12042b76",
      "transactionType": "CALL",
      "contractName": null,
      "contractAddress": "0x5eb9cc76c3506942c1c0ead70e877dd5e4f00cb0",
      "function": "sell(uint256)",
      "arguments": [
        "989103823572792832264"
      ],
      "transaction": {
        "from": "0xc77f7fed3b5cc8249adc428c5f44c9063b9734b4",
        "to": "0x5eb9cc76c3506942c1c0ead70e877dd5e4f00cb0",
        "gas": "0x16fec",
        "value": "0x0",
        "input": "0xe4849b320000000000000000000000000000000000000000000000359e92af0af4f4f108",
        "nonce": "0x3e9",
        "chainId": "0xaa36a7"
      },
      "additionalContracts": [],
      "isFixedGasLimit": false
    }
  ],
  "receipts": [
    {
      "status": "0x1",
      "cumulativeGasUsed": "0xd262b9",
      "logs": [
        {
          "address": "0x5eb9cc76c3506942c1c0ead70e877dd5e4f00cb0",
          "topics": [
            "0xddf252ad1be2c89b69c2b068fc378daa952ba7f163c4a11628f55a4df523b3ef",
            "0x000000000000000000000000c77f7fed3b5cc8249adc428c5f44c9063b9734b4",
            "0x0000000000000000000000000000000000000000000000000000000000000000"
          ],
          "data": "0x0000000000000000000000000000000000000000000000359e92af0af4f4f108",
          "blockHash": "0x40cfc51cc52a927b3317b6687ecf3880e8ae4190c36b1b3d16d00c235f52b354",
          "blockNumber": "0x724fef",
          "transactionHash": "0x3d3a7b6d5f85847c793bbf2140453dcbc7d029b091ec50dfff46c67a12042b76",
          "transactionIndex": "0x62",
          "logIndex": "0x97",
          "removed": false
        },
        {
          "address": "0x5eb9cc76c3506942c1c0ead70e877dd5e4f00cb0",
          "topics": [
            "0x4afcb4a87cdbd9974efdb92ee48bc8d7cd0ae4bf217004db3d080cbaee652ca7"
          ],
          "data": "0x000000000000000000000000000000000000000000000000000000006786b100000000000000000000000000000000000000000000000000000391149187d6230000000000000000000000000000000000000000000000000dc7db1331ee4078",
          "blockHash": "0x40cfc51cc52a927b3317b6687ecf3880e8ae4190c36b1b3d16d00c235f52b354",
          "blockNumber": "0x724fef",
          "transactionHash": "0x3d3a7b6d5f85847c793bbf2140453dcbc7d029b091ec50dfff46c67a12042b76",
          "transactionIndex": "0x62",
          "logIndex": "0x98",
          "removed": false
        }
      ],
      "logsBloom": "0x00000000000000000000000000000000000000000000000000000000000000000000000000000000000000000000000000000000000000004000000000000000000000000000000000000008000000000000000000000000000000000000000000000000020000000000000004000800020000000000000000000010000000000000000000000000000000000000000000000000000000000000010000000000000000000000000000000000000000004000000000000000000000000000020000000002000000800000008000000000000000000000080000000000000020000000000000000000000000000000000000000000000000000000000000000000",
      "type": "0x2",
      "transactionHash": "0x3d3a7b6d5f85847c793bbf2140453dcbc7d029b091ec50dfff46c67a12042b76",
      "transactionIndex": "0x62",
      "blockHash": "0x40cfc51cc52a927b3317b6687ecf3880e8ae4190c36b1b3d16d00c235f52b354",
      "blockNumber": "0x724fef",
      "gasUsed": "0xfb93",
      "effectiveGasPrice": "0x38c8b3a83",
      "from": "0xc77f7fed3b5cc8249adc428c5f44c9063b9734b4",
      "to": "0x5eb9cc76c3506942c1c0ead70e877dd5e4f00cb0",
      "contractAddress": null
    }
  ],
  "libraries": [],
  "pending": [],
  "returns": {},
  "timestamp": 1736880385,
  "chain": 11155111,
  "commit": "51a374b"
}