{
  "transactions": [
    {
      "hash": "0x131ac4e7325eb3504d4b2cc61dd32560aa405c8e920b8b0440cf9c8e51cdfc09",
      "transactionType": "CALL",
      "contractName": null,
      "contractAddress": "0xbf4a322f1496e5c3d34a9bcdb4c60567b38c7de2",
      "function": "buy(address)",
      "arguments": [
        "0xC77f7fed3b5Cc8249aDc428c5F44C9063B9734b4"
      ],
      "transaction": {
        "from": "0xc77f7fed3b5cc8249adc428c5f44c9063b9734b4",
        "to": "0xbf4a322f1496e5c3d34a9bcdb4c60567b38c7de2",
        "gas": "0x1b309",
        "value": "0xde0b6b3a7640000",
        "input": "0xf088d547000000000000000000000000c77f7fed3b5cc8249adc428c5f44c9063b9734b4",
        "nonce": "0xb9c",
        "chainId": "0xaa36a7"
      },
      "additionalContracts": [],
      "isFixedGasLimit": false
    }
  ],
  "receipts": [
    {
      "status": "0x1",
      "cumulativeGasUsed": "0x9bbc39",
      "logs": [
        {
          "address": "0xbf4a322f1496e5c3d34a9bcdb4c60567b38c7de2",
          "topics": [
            "0xddf252ad1be2c89b69c2b068fc378daa952ba7f163c4a11628f55a4df523b3ef",
            "0x0000000000000000000000000000000000000000000000000000000000000000",
            "0x000000000000000000000000c77f7fed3b5cc8249adc428c5f44c9063b9734b4"
          ],
          "data": "0x0000000000000000000000000000000000000000000000350dfb0ee55903c1f0",
          "blockHash": "0x02cede09c399875b18e4bc12b3ee66c1f4904c2aaf6d22cf6904004b92fe024f",
          "blockNumber": "0x725bb0",
          "transactionHash": "0x131ac4e7325eb3504d4b2cc61dd32560aa405c8e920b8b0440cf9c8e51cdfc09",
          "transactionIndex": "0x3c",
          "logIndex": "0xfe",
          "removed": false
        },
        {
          "address": "0xbf4a322f1496e5c3d34a9bcdb4c60567b38c7de2",
          "topics": [
            "0xddf252ad1be2c89b69c2b068fc378daa952ba7f163c4a11628f55a4df523b3ef",
            "0x0000000000000000000000000000000000000000000000000000000000000000",
            "0x000000000000000000000000c77f7fed3b5cc8249adc428c5f44c9063b9734b4"
          ],
          "data": "0x0000000000000000000000000000000000000000000000002932df0cdd2dadeb",
          "blockHash": "0x02cede09c399875b18e4bc12b3ee66c1f4904c2aaf6d22cf6904004b92fe024f",
          "blockNumber": "0x725bb0",
          "transactionHash": "0x131ac4e7325eb3504d4b2cc61dd32560aa405c8e920b8b0440cf9c8e51cdfc09",
          "transactionIndex": "0x3c",
          "logIndex": "0xff",
          "removed": false
        },
        {
          "address": "0xbf4a322f1496e5c3d34a9bcdb4c60567b38c7de2",
          "topics": [
            "0x4afcb4a87cdbd9974efdb92ee48bc8d7cd0ae4bf217004db3d080cbaee652ca7"
          ],
          "data": "0x0000000000000000000000000000000000000000000000000000000067873e9c00000000000000000000000000000000000000000000000000039804dd06721d0000000000000000000000000000000000000000000000000de0b6b3a7640000",
          "blockHash": "0x02cede09c399875b18e4bc12b3ee66c1f4904c2aaf6d22cf6904004b92fe024f",
          "blockNumber": "0x725bb0",
          "transactionHash": "0x131ac4e7325eb3504d4b2cc61dd32560aa405c8e920b8b0440cf9c8e51cdfc09",
          "transactionIndex": "0x3c",
          "logIndex": "0x100",
          "removed": false
        }
      ],
      "logsBloom": "0x00000000000000000000000000000000000000000000000000000000000000000000000000000000000000000000000000000000000000004000000000000000000000000000000000000008000000000000001000000000000000000000000000000000020000000000000000000800020000000000000000000010000000000000000000000000000000000000000000000000000008000000010000000000000000000000000000000000000000004000000000000000000000000000000000000002000000800000000000001000000000000000080000000000000020000000000000000000000000000000000000000000000000000000000000000000",
      "type": "0x2",
      "transactionHash": "0x131ac4e7325eb3504d4b2cc61dd32560aa405c8e920b8b0440cf9c8e51cdfc09",
      "transactionIndex": "0x3c",
      "blockHash": "0x02cede09c399875b18e4bc12b3ee66c1f4904c2aaf6d22cf6904004b92fe024f",
      "blockNumber": "0x725bb0",
      "gasUsed": "0x13af6",
      "effectiveGasPrice": "0x5509e455",
      "from": "0xc77f7fed3b5cc8249adc428c5f44c9063b9734b4",
      "to": "0xbf4a322f1496e5c3d34a9bcdb4c60567b38c7de2",
      "contractAddress": null
    }
  ],
  "libraries": [],
  "pending": [],
  "returns": {},
  "timestamp": 1736916638,
  "chain": 11155111,
  "commit": "51a374b"
}