{
  "transactions": [
    {
      "hash": "0x8246f387713672f9fec23d3165f6ce021605a0884e9e646663e9286c18db250c",
      "transactionType": "CALL",
      "contractName": null,
      "contractAddress": "0x8aafd3ede9adb0ff97c7aebce82a919afb1c8764",
      "function": "sell(uint256)",
      "arguments": [
        "103724253126798"
      ],
      "transaction": {
        "from": "0xc77f7fed3b5cc8249adc428c5f44c9063b9734b4",
        "to": "0x8aafd3ede9adb0ff97c7aebce82a919afb1c8764",
        "gas": "0x15daa",
        "value": "0x0",
        "input": "0xe4849b3200000000000000000000000000000000000000000000000000005e562f43208e",
        "nonce": "0x1526",
        "chainId": "0xaa36a7"
      },
      "additionalContracts": [],
      "isFixedGasLimit": false
    }
  ],
  "receipts": [
    {
      "status": "0x1",
      "cumulativeGasUsed": "0xc0128b",
      "logs": [
        {
          "address": "0x8aafd3ede9adb0ff97c7aebce82a919afb1c8764",
          "topics": [
            "0xddf252ad1be2c89b69c2b068fc378daa952ba7f163c4a11628f55a4df523b3ef",
            "0x000000000000000000000000c77f7fed3b5cc8249adc428c5f44c9063b9734b4",
            "0x0000000000000000000000000000000000000000000000000000000000000000"
          ],
          "data": "0x00000000000000000000000000000000000000000000000000005d94fbaf2258",
          "blockHash": "0xdcf9f90c6d51b130b04fad33dc2539d6896a3835eb2e7722ced8660e187e7413",
          "blockNumber": "0x731c88",
          "transactionHash": "0x8246f387713672f9fec23d3165f6ce021605a0884e9e646663e9286c18db250c",
          "transactionIndex": "0x70",
          "logIndex": "0xce",
          "removed": false
        },
        {
          "address": "0x8aafd3ede9adb0ff97c7aebce82a919afb1c8764",
          "topics": [
            "0xddf252ad1be2c89b69c2b068fc378daa952ba7f163c4a11628f55a4df523b3ef",
            "0x000000000000000000000000c77f7fed3b5cc8249adc428c5f44c9063b9734b4",
            "0x000000000000000000000000c77f7fed3b5cc8249adc428c5f44c9063b9734b4"
          ],
          "data": "0x000000000000000000000000000000000000000000000000000000c13393fe36",
          "blockHash": "0xdcf9f90c6d51b130b04fad33dc2539d6896a3835eb2e7722ced8660e187e7413",
          "blockNumber": "0x731c88",
          "transactionHash": "0x8246f387713672f9fec23d3165f6ce021605a0884e9e646663e9286c18db250c",
          "transactionIndex": "0x70",
          "logIndex": "0xcf",
          "removed": false
        },
        {
          "address": "0x8aafd3ede9adb0ff97c7aebce82a919afb1c8764",
          "topics": [
            "0x4afcb4a87cdbd9974efdb92ee48bc8d7cd0ae4bf217004db3d080cbaee652ca7"
          ],
          "data": "0x000000000000000000000000000000000000000000000000000000006790533c000000000000000000000000000000000000000000000000001184953f70eb750000000000000000000000000000000000000000000000000000007714ba2621",
          "blockHash": "0xdcf9f90c6d51b130b04fad33dc2539d6896a3835eb2e7722ced8660e187e7413",
          "blockNumber": "0x731c88",
          "transactionHash": "0x8246f387713672f9fec23d3165f6ce021605a0884e9e646663e9286c18db250c",
          "transactionIndex": "0x70",
          "logIndex": "0xd0",
          "removed": false
        }
      ],
      "logsBloom": "0x00000000000000000000000000000000000000000600000000000000000000000000000000000000000000000000000000000000000000004000000000000000000000000000004000000008000000000000000000000000000000000000000000000000020000000000000000000800020000000000000000000010000000000000000000000000000000000000000000000000000000000000010000000000000000000000000000000000000000004000000000000000000000000000000000000002000000800000000000000000000000000000080000000000000020000000000000000000000000000000000000000000000000000000000000000000",
      "type": "0x2",
      "transactionHash": "0x8246f387713672f9fec23d3165f6ce021605a0884e9e646663e9286c18db250c",
      "transactionIndex": "0x70",
      "blockHash": "0xdcf9f90c6d51b130b04fad33dc2539d6896a3835eb2e7722ced8660e187e7413",
      "blockNumber": "0x731c88",
      "gasUsed": "0xfd27",
      "effectiveGasPrice": "0x10642aa7b",
      "from": "0xc77f7fed3b5cc8249adc428c5f44c9063b9734b4",
      "to": "0x8aafd3ede9adb0ff97c7aebce82a919afb1c8764",
      "contractAddress": null
    }
  ],
  "libraries": [],
  "pending": [],
  "returns": {},
  "timestamp": 1737511741,
  "chain": 11155111,
  "commit": "1d2fb70"
}