{
  "transactions": [
    {
      "hash": "0xcd5af8c99cb9cbf1e61626498b2c4c88b133d49b101c46bb86045f19739dd8a3",
      "transactionType": "CALL",
      "contractName": null,
      "contractAddress": "0x8aafd3ede9adb0ff97c7aebce82a919afb1c8764",
      "function": "sell(uint256)",
      "arguments": [
        "95193149743273"
      ],
      "transaction": {
        "from": "0xc77f7fed3b5cc8249adc428c5f44c9063b9734b4",
        "to": "0x8aafd3ede9adb0ff97c7aebce82a919afb1c8764",
        "gas": "0x15daa",
        "value": "0x0",
        "input": "0xe4849b3200000000000000000000000000000000000000000000000000005693e1e020a9",
        "nonce": "0x15ad",
        "chainId": "0xaa36a7"
      },
      "additionalContracts": [],
      "isFixedGasLimit": false
    }
  ],
  "receipts": [
    {
      "status": "0x1",
      "cumulativeGasUsed": "0xbcc5d3",
      "logs": [
        {
          "address": "0x8aafd3ede9adb0ff97c7aebce82a919afb1c8764",
          "topics": [
            "0xddf252ad1be2c89b69c2b068fc378daa952ba7f163c4a11628f55a4df523b3ef",
            "0x000000000000000000000000c77f7fed3b5cc8249adc428c5f44c9063b9734b4",
            "0x0000000000000000000000000000000000000000000000000000000000000000"
          ],
          "data": "0x000000000000000000000000000000000000000000000000000055e2923e972f",
          "blockHash": "0xd3d07c64fe70f9539c17707c65e615a1745ca6abfdbb8856166ba690bec1acad",
          "blockNumber": "0x731d25",
          "transactionHash": "0xcd5af8c99cb9cbf1e61626498b2c4c88b133d49b101c46bb86045f19739dd8a3",
          "transactionIndex": "0x59",
          "logIndex": "0xc6",
          "removed": false
        },
        {
          "address": "0x8aafd3ede9adb0ff97c7aebce82a919afb1c8764",
          "topics": [
            "0xddf252ad1be2c89b69c2b068fc378daa952ba7f163c4a11628f55a4df523b3ef",
            "0x000000000000000000000000c77f7fed3b5cc8249adc428c5f44c9063b9734b4",
            "0x000000000000000000000000c77f7fed3b5cc8249adc428c5f44c9063b9734b4"
          ],
          "data": "0x000000000000000000000000000000000000000000000000000000b14fa1897a",
          "blockHash": "0xd3d07c64fe70f9539c17707c65e615a1745ca6abfdbb8856166ba690bec1acad",
          "blockNumber": "0x731d25",
          "transactionHash": "0xcd5af8c99cb9cbf1e61626498b2c4c88b133d49b101c46bb86045f19739dd8a3",
          "transactionIndex": "0x59",
          "logIndex": "0xc7",
          "removed": false
        },
        {
          "address": "0x8aafd3ede9adb0ff97c7aebce82a919afb1c8764",
          "topics": [
            "0x4afcb4a87cdbd9974efdb92ee48bc8d7cd0ae4bf217004db3d080cbaee652ca7"
          ],
          "data": "0x0000000000000000000000000000000000000000000000000000000067905aa40000000000000000000000000000000000000000000000000013143827be08ab000000000000000000000000000000000000000000000000000000770695aad2",
          "blockHash": "0xd3d07c64fe70f9539c17707c65e615a1745ca6abfdbb8856166ba690bec1acad",
          "blockNumber": "0x731d25",
          "transactionHash": "0xcd5af8c99cb9cbf1e61626498b2c4c88b133d49b101c46bb86045f19739dd8a3",
          "transactionIndex": "0x59",
          "logIndex": "0xc8",
          "removed": false
        }
      ],
      "logsBloom": "0x00000000000000000000000000000000000000000600000000000000000000000000000000000000000000000000000000000000000000004000000000000000000000000000004000000008000000000000000000000000000000000000000000000000020000000000000000000800020000000000000000000010000000000000000000000000000000000000000000000000000000000000010000000000000000000000000000000000000000004000000000000000000000000000000000000002000000800000000000000000000000000000080000000000000020000000000000000000000000000000000000000000000000000000000000000000",
      "type": "0x2",
      "transactionHash": "0xcd5af8c99cb9cbf1e61626498b2c4c88b133d49b101c46bb86045f19739dd8a3",
      "transactionIndex": "0x59",
      "blockHash": "0xd3d07c64fe70f9539c17707c65e615a1745ca6abfdbb8856166ba690bec1acad",
      "blockNumber": "0x731d25",
      "gasUsed": "0xfd27",
      "effectiveGasPrice": "0x4d87a5e3",
      "from": "0xc77f7fed3b5cc8249adc428c5f44c9063b9734b4",
      "to": "0x8aafd3ede9adb0ff97c7aebce82a919afb1c8764",
      "contractAddress": null
    }
  ],
  "libraries": [],
  "pending": [],
  "returns": {},
  "timestamp": 1737513637,
  "chain": 11155111,
  "commit": "1d2fb70"
}