{
  "transactions": [
    {
      "hash": "0xbe6cda8a61d454ff4ec272a1ca6fd7a5d77ae5ea9d632d7605845696d4f739f3",
      "transactionType": "CALL",
      "contractName": null,
      "contractAddress": "0x270e88f8683660553e8ba4eb2ad7c91a1710d769",
      "function": "buy(address)",
      "arguments": [
        "0xC77f7fed3b5Cc8249aDc428c5F44C9063B9734b4"
      ],
      "transaction": {
        "from": "0xc77f7fed3b5cc8249adc428c5f44c9063b9734b4",
        "to": "0x270e88f8683660553e8ba4eb2ad7c91a1710d769",
        "gas": "0x1b30c",
        "value": "0xde0b6b3a7640000",
        "input": "0xf088d547000000000000000000000000c77f7fed3b5cc8249adc428c5f44c9063b9734b4",
        "nonce": "0x83f",
        "chainId": "0xaa36a7"
      },
      "additionalContracts": [],
      "isFixedGasLimit": false
    }
  ],
  "receipts": [
    {
      "status": "0x1",
      "cumulativeGasUsed": "0xbb1a81",
      "logs": [
        {
          "address": "0x270e88f8683660553e8ba4eb2ad7c91a1710d769",
          "topics": [
            "0xddf252ad1be2c89b69c2b068fc378daa952ba7f163c4a11628f55a4df523b3ef",
            "0x0000000000000000000000000000000000000000000000000000000000000000",
            "0x000000000000000000000000c77f7fed3b5cc8249adc428c5f44c9063b9734b4"
          ],
          "data": "0x000000000000000000000000000000000000000000000026c7c73ce037e9b47e",
          "blockHash": "0xf926a235a555cabc0dc4515fe3472e76db5a98b5ec48660ec55cbbf697af56e7",
          "blockNumber": "0x72558c",
          "transactionHash": "0xbe6cda8a61d454ff4ec272a1ca6fd7a5d77ae5ea9d632d7605845696d4f739f3",
          "transactionIndex": "0x5d",
          "logIndex": "0xb2",
          "removed": false
        },
        {
          "address": "0x270e88f8683660553e8ba4eb2ad7c91a1710d769",
          "topics": [
            "0xddf252ad1be2c89b69c2b068fc378daa952ba7f163c4a11628f55a4df523b3ef",
            "0x0000000000000000000000000000000000000000000000000000000000000000",
            "0x000000000000000000000000c77f7fed3b5cc8249adc428c5f44c9063b9734b4"
          ],
          "data": "0x0000000000000000000000000000000000000000000000001e1d422ab0ccd029",
          "blockHash": "0xf926a235a555cabc0dc4515fe3472e76db5a98b5ec48660ec55cbbf697af56e7",
          "blockNumber": "0x72558c",
          "transactionHash": "0xbe6cda8a61d454ff4ec272a1ca6fd7a5d77ae5ea9d632d7605845696d4f739f3",
          "transactionIndex": "0x5d",
          "logIndex": "0xb3",
          "removed": false
        },
        {
          "address": "0x270e88f8683660553e8ba4eb2ad7c91a1710d769",
          "topics": [
            "0x4afcb4a87cdbd9974efdb92ee48bc8d7cd0ae4bf217004db3d080cbaee652ca7"
          ],
          "data": "0x000000000000000000000000000000000000000000000000000000006786f4980000000000000000000000000000000000000000000000000004eac029f5cfa70000000000000000000000000000000000000000000000000de0b6b3a7640000",
          "blockHash": "0xf926a235a555cabc0dc4515fe3472e76db5a98b5ec48660ec55cbbf697af56e7",
          "blockNumber": "0x72558c",
          "transactionHash": "0xbe6cda8a61d454ff4ec272a1ca6fd7a5d77ae5ea9d632d7605845696d4f739f3",
          "transactionIndex": "0x5d",
          "logIndex": "0xb4",
          "removed": false
        }
      ],
      "logsBloom": "0x00000000000000000000000000000000000000000000000000000000000000000000000000000000000000000000000020000000000000004000000000000000000000000000000000000008000000000000000000000000000000000000000000000000020000000000000000000800020000000000000000000010000000000000000000010000000000000000000000000000000000000000010000000000000000000000000000000000000000004000000000000000000000000000000000000002000000800000000000000000000000000000080000008000000020000000000000000000000000000000000000000000000000000000000000000000",
      "type": "0x2",
      "transactionHash": "0xbe6cda8a61d454ff4ec272a1ca6fd7a5d77ae5ea9d632d7605845696d4f739f3",
      "transactionIndex": "0x5d",
      "blockHash": "0xf926a235a555cabc0dc4515fe3472e76db5a98b5ec48660ec55cbbf697af56e7",
      "blockNumber": "0x72558c",
      "gasUsed": "0x13af8",
      "effectiveGasPrice": "0x6e3fda57",
      "from": "0xc77f7fed3b5cc8249adc428c5f44c9063b9734b4",
      "to": "0x270e88f8683660553e8ba4eb2ad7c91a1710d769",
      "contractAddress": null
    }
  ],
  "libraries": [],
  "pending": [],
  "returns": {},
  "timestamp": 1736897691,
  "chain": 11155111,
  "commit": "51a374b"
}