{
  "transactions": [
    {
      "hash": "0x2cd7dc861cd777c1ec3d19571524f66237ad8e7f4e1bbd82e54fe2d761d28469",
      "transactionType": "CALL",
      "contractName": null,
      "contractAddress": "0x270e88f8683660553e8ba4eb2ad7c91a1710d769",
      "function": "buy(address)",
      "arguments": [
        "0xC77f7fed3b5Cc8249aDc428c5F44C9063B9734b4"
      ],
      "transaction": {
        "from": "0xc77f7fed3b5cc8249adc428c5f44c9063b9734b4",
        "to": "0x270e88f8683660553e8ba4eb2ad7c91a1710d769",
        "gas": "0x1b30c",
        "value": "0xde0b6b3a7640000",
        "input": "0xf088d547000000000000000000000000c77f7fed3b5cc8249adc428c5f44c9063b9734b4",
        "nonce": "0x6cd",
        "chainId": "0xaa36a7"
      },
      "additionalContracts": [],
      "isFixedGasLimit": false
    }
  ],
  "receipts": [
    {
      "status": "0x1",
      "cumulativeGasUsed": "0x16b82b8",
      "logs": [
        {
          "address": "0x270e88f8683660553e8ba4eb2ad7c91a1710d769",
          "topics": [
            "0xddf252ad1be2c89b69c2b068fc378daa952ba7f163c4a11628f55a4df523b3ef",
            "0x0000000000000000000000000000000000000000000000000000000000000000",
            "0x000000000000000000000000c77f7fed3b5cc8249adc428c5f44c9063b9734b4"
          ],
          "data": "0x000000000000000000000000000000000000000000000028867d877bd762e5e1",
          "blockHash": "0x0c3d2e2a8b53b6eaae4a17ecef1d762791f2c8d8ede33354f82061f66031d2eb",
          "blockNumber": "0x7253dc",
          "transactionHash": "0x2cd7dc861cd777c1ec3d19571524f66237ad8e7f4e1bbd82e54fe2d761d28469",
          "transactionIndex": "0x5f",
          "logIndex": "0xe8",
          "removed": false
        },
        {
          "address": "0x270e88f8683660553e8ba4eb2ad7c91a1710d769",
          "topics": [
            "0xddf252ad1be2c89b69c2b068fc378daa952ba7f163c4a11628f55a4df523b3ef",
            "0x0000000000000000000000000000000000000000000000000000000000000000",
            "0x000000000000000000000000c77f7fed3b5cc8249adc428c5f44c9063b9734b4"
          ],
          "data": "0x0000000000000000000000000000000000000000000000001f782547e2fd5f59",
          "blockHash": "0x0c3d2e2a8b53b6eaae4a17ecef1d762791f2c8d8ede33354f82061f66031d2eb",
          "blockNumber": "0x7253dc",
          "transactionHash": "0x2cd7dc861cd777c1ec3d19571524f66237ad8e7f4e1bbd82e54fe2d761d28469",
          "transactionIndex": "0x5f",
          "logIndex": "0xe9",
          "removed": false
        },
        {
          "address": "0x270e88f8683660553e8ba4eb2ad7c91a1710d769",
          "topics": [
            "0x4afcb4a87cdbd9974efdb92ee48bc8d7cd0ae4bf217004db3d080cbaee652ca7"
          ],
          "data": "0x000000000000000000000000000000000000000000000000000000006786e0580000000000000000000000000000000000000000000000000004b48e0fe933ed0000000000000000000000000000000000000000000000000de0b6b3a7640000",
          "blockHash": "0x0c3d2e2a8b53b6eaae4a17ecef1d762791f2c8d8ede33354f82061f66031d2eb",
          "blockNumber": "0x7253dc",
          "transactionHash": "0x2cd7dc861cd777c1ec3d19571524f66237ad8e7f4e1bbd82e54fe2d761d28469",
          "transactionIndex": "0x5f",
          "logIndex": "0xea",
          "removed": false
        }
      ],
      "logsBloom": "0x00000000000000000000000000000000000000000000000000000000000000000000000000000000000000000000000020000000000000004000000000000000000000000000000000000008000000000000000000000000000000000000000000000000020000000000000000000800020000000000000000000010000000000000000000010000000000000000000000000000000000000000010000000000000000000000000000000000000000004000000000000000000000000000000000000002000000800000000000000000000000000000080000008000000020000000000000000000000000000000000000000000000000000000000000000000",
      "type": "0x2",
      "transactionHash": "0x2cd7dc861cd777c1ec3d19571524f66237ad8e7f4e1bbd82e54fe2d761d28469",
      "transactionIndex": "0x5f",
      "blockHash": "0x0c3d2e2a8b53b6eaae4a17ecef1d762791f2c8d8ede33354f82061f66031d2eb",
      "blockNumber": "0x7253dc",
      "gasUsed": "0x13af8",
      "effectiveGasPrice": "0x1499ea75d",
      "from": "0xc77f7fed3b5cc8249adc428c5f44c9063b9734b4",
      "to": "0x270e88f8683660553e8ba4eb2ad7c91a1710d769",
      "contractAddress": null
    }
  ],
  "libraries": [],
  "pending": [],
  "returns": {},
  "timestamp": 1736892505,
  "chain": 11155111,
  "commit": "51a374b"
}