{
  "transactions": [
    {
      "hash": "0x617eef8bc89db4107c67896c76ac65fa8d866eea843df661180fe60fad25f5b4",
      "transactionType": "CALL",
      "contractName": null,
      "contractAddress": "0x8aafd3ede9adb0ff97c7aebce82a919afb1c8764",
      "function": "sell(uint256)",
      "arguments": [
        "154885880158975"
      ],
      "transaction": {
        "from": "0xc77f7fed3b5cc8249adc428c5f44c9063b9734b4",
        "to": "0x8aafd3ede9adb0ff97c7aebce82a919afb1c8764",
        "gas": "0x15daa",
        "value": "0x0",
        "input": "0xe4849b3200000000000000000000000000000000000000000000000000008cde2dde1aff",
        "nonce": "0x132e",
        "chainId": "0xaa36a7"
      },
      "additionalContracts": [],
      "isFixedGasLimit": false
    }
  ],
  "receipts": [
    {
      "status": "0x1",
      "cumulativeGasUsed": "0xcbacbc",
      "logs": [
        {
          "address": "0x8aafd3ede9adb0ff97c7aebce82a919afb1c8764",
          "topics": [
            "0xddf252ad1be2c89b69c2b068fc378daa952ba7f163c4a11628f55a4df523b3ef",
            "0x000000000000000000000000c77f7fed3b5cc8249adc428c5f44c9063b9734b4",
            "0x0000000000000000000000000000000000000000000000000000000000000000"
          ],
          "data": "0x00000000000000000000000000000000000000000000000000008bbdae865008",
          "blockHash": "0x83af202fa96cf21ae1e1e9b157e833a77828e9f049239130ccdd114c68cd9caf",
          "blockNumber": "0x731a41",
          "transactionHash": "0x617eef8bc89db4107c67896c76ac65fa8d866eea843df661180fe60fad25f5b4",
          "transactionIndex": "0x9e",
          "logIndex": "0xae",
          "removed": false
        },
        {
          "address": "0x8aafd3ede9adb0ff97c7aebce82a919afb1c8764",
          "topics": [
            "0xddf252ad1be2c89b69c2b068fc378daa952ba7f163c4a11628f55a4df523b3ef",
            "0x000000000000000000000000c77f7fed3b5cc8249adc428c5f44c9063b9734b4",
            "0x000000000000000000000000c77f7fed3b5cc8249adc428c5f44c9063b9734b4"
          ],
          "data": "0x000000000000000000000000000000000000000000000000000001207f57caf7",
          "blockHash": "0x83af202fa96cf21ae1e1e9b157e833a77828e9f049239130ccdd114c68cd9caf",
          "blockNumber": "0x731a41",
          "transactionHash": "0x617eef8bc89db4107c67896c76ac65fa8d866eea843df661180fe60fad25f5b4",
          "transactionIndex": "0x9e",
          "logIndex": "0xaf",
          "removed": false
        },
        {
          "address": "0x8aafd3ede9adb0ff97c7aebce82a919afb1c8764",
          "topics": [
            "0x4afcb4a87cdbd9974efdb92ee48bc8d7cd0ae4bf217004db3d080cbaee652ca7"
          ],
          "data": "0x00000000000000000000000000000000000000000000000000000000679037dc000000000000000000000000000000000000000000000000000bc367e28e8c4d0000000000000000000000000000000000000000000000000000007767942946",
          "blockHash": "0x83af202fa96cf21ae1e1e9b157e833a77828e9f049239130ccdd114c68cd9caf",
          "blockNumber": "0x731a41",
          "transactionHash": "0x617eef8bc89db4107c67896c76ac65fa8d866eea843df661180fe60fad25f5b4",
          "transactionIndex": "0x9e",
          "logIndex": "0xb0",
          "removed": false
        }
      ],
      "logsBloom": "0x00000000000000000000000000000000000000000600000000000000000000000000000000000000000000000000000000000000000000004000000000000000000000000000004000000008000000000000000000000000000000000000000000000000020000000000000000000800020000000000000000000010000000000000000000000000000000000000000000000000000000000000010000000000000000000000000000000000000000004000000000000000000000000000000000000002000000800000000000000000000000000000080000000000000020000000000000000000000000000000000000000000000000000000000000000000",
      "type": "0x2",
      "transactionHash": "0x617eef8bc89db4107c67896c76ac65fa8d866eea843df661180fe60fad25f5b4",
      "transactionIndex": "0x9e",
      "blockHash": "0x83af202fa96cf21ae1e1e9b157e833a77828e9f049239130ccdd114c68cd9caf",
      "blockNumber": "0x731a41",
      "gasUsed": "0xfd27",
      "effectiveGasPrice": "0x4515e9b2",
      "from": "0xc77f7fed3b5cc8249adc428c5f44c9063b9734b4",
      "to": "0x8aafd3ede9adb0ff97c7aebce82a919afb1c8764",
      "contractAddress": null
    }
  ],
  "libraries": [],
  "pending": [],
  "returns": {},
  "timestamp": 1737504733,
  "chain": 11155111,
  "commit": "1d2fb70"
}