{
  "transactions": [
    {
      "hash": "0xe97b2db48cd0917eb60ec2c2e200b77d9aa1aa369bc754710cfac0816d5f94c8",
      "transactionType": "CALL",
      "contractName": null,
      "contractAddress": "0x5eb9cc76c3506942c1c0ead70e877dd5e4f00cb0",
      "function": "buy(address)",
      "arguments": [
        "0xC77f7fed3b5Cc8249aDc428c5F44C9063B9734b4"
      ],
      "transaction": {
        "from": "0xc77f7fed3b5cc8249adc428c5f44c9063b9734b4",
        "to": "0x5eb9cc76c3506942c1c0ead70e877dd5e4f00cb0",
        "gas": "0x1b30c",
        "value": "0xde0b6b3a7640000",
        "input": "0xf088d547000000000000000000000000c77f7fed3b5cc8249adc428c5f44c9063b9734b4",
        "nonce": "0x47a",
        "chainId": "0xaa36a7"
      },
      "additionalContracts": [],
      "isFixedGasLimit": false
    }
  ],
  "receipts": [
    {
      "status": "0x1",
      "cumulativeGasUsed": "0xa09d4a",
      "logs": [
        {
          "address": "0x5eb9cc76c3506942c1c0ead70e877dd5e4f00cb0",
          "topics": [
            "0xddf252ad1be2c89b69c2b068fc378daa952ba7f163c4a11628f55a4df523b3ef",
            "0x0000000000000000000000000000000000000000000000000000000000000000",
            "0x000000000000000000000000c77f7fed3b5cc8249adc428c5f44c9063b9734b4"
          ],
          "data": "0x00000000000000000000000000000000000000000000003574bd5ca7ec39fec1",
          "blockHash": "0x865c5e08a9d8a7cc8308a63e4d053928421df797b5691f8758183e5613d01875",
          "blockNumber": "0x7250a8",
          "transactionHash": "0xe97b2db48cd0917eb60ec2c2e200b77d9aa1aa369bc754710cfac0816d5f94c8",
          "transactionIndex": "0x51",
          "logIndex": "0x8f",
          "removed": false
        },
        {
          "address": "0x5eb9cc76c3506942c1c0ead70e877dd5e4f00cb0",
          "topics": [
            "0xddf252ad1be2c89b69c2b068fc378daa952ba7f163c4a11628f55a4df523b3ef",
            "0x0000000000000000000000000000000000000000000000000000000000000000",
            "0x000000000000000000000000c77f7fed3b5cc8249adc428c5f44c9063b9734b4"
          ],
          "data": "0x0000000000000000000000000000000000000000000000002982aacadbced1c4",
          "blockHash": "0x865c5e08a9d8a7cc8308a63e4d053928421df797b5691f8758183e5613d01875",
          "blockNumber": "0x7250a8",
          "transactionHash": "0xe97b2db48cd0917eb60ec2c2e200b77d9aa1aa369bc754710cfac0816d5f94c8",
          "transactionIndex": "0x51",
          "logIndex": "0x90",
          "removed": false
        },
        {
          "address": "0x5eb9cc76c3506942c1c0ead70e877dd5e4f00cb0",
          "topics": [
            "0x4afcb4a87cdbd9974efdb92ee48bc8d7cd0ae4bf217004db3d080cbaee652ca7"
          ],
          "data": "0x000000000000000000000000000000000000000000000000000000006786b9ac0000000000000000000000000000000000000000000000000003911a04c057810000000000000000000000000000000000000000000000000de0b6b3a7640000",
          "blockHash": "0x865c5e08a9d8a7cc8308a63e4d053928421df797b5691f8758183e5613d01875",
          "blockNumber": "0x7250a8",
          "transactionHash": "0xe97b2db48cd0917eb60ec2c2e200b77d9aa1aa369bc754710cfac0816d5f94c8",
          "transactionIndex": "0x51",
          "logIndex": "0x91",
          "removed": false
        }
      ],
      "logsBloom": "0x00000000000000000000000000000000000000000000000000000000000000000000000000000000000000000000000000000000000000004000000000000000000000000000000000000008000000000000000000000000000000000000000000000000020000000000000004000800020000000000000000000010000000000000000000000000000000000000000000000000000000000000010000000000000000000000000000000000000000004000000000000000000000000000020000000002000000800000008000000000000000000000080000000000000020000000000000000000000000000000000000000000000000000000000000000000",
      "type": "0x2",
      "transactionHash": "0xe97b2db48cd0917eb60ec2c2e200b77d9aa1aa369bc754710cfac0816d5f94c8",
      "transactionIndex": "0x51",
      "blockHash": "0x865c5e08a9d8a7cc8308a63e4d053928421df797b5691f8758183e5613d01875",
      "blockNumber": "0x7250a8",
      "gasUsed": "0x13af8",
      "effectiveGasPrice": "0x1f3299dd4",
      "from": "0xc77f7fed3b5cc8249adc428c5f44c9063b9734b4",
      "to": "0x5eb9cc76c3506942c1c0ead70e877dd5e4f00cb0",
      "contractAddress": null
    }
  ],
  "libraries": [],
  "pending": [],
  "returns": {},
  "timestamp": 1736882605,
  "chain": 11155111,
  "commit": "51a374b"
}