{
  "transactions": [
    {
      "hash": "0xf2b6a486cc62835bc1bbd587b337164f904172ba28423c8c197e34b6c8f0beef",
      "transactionType": "CALL",
      "contractName": null,
      "contractAddress": "0x8aafd3ede9adb0ff97c7aebce82a919afb1c8764",
      "function": "sell(uint256)",
      "arguments": [
        "57558045"
      ],
      "transaction": {
        "from": "0xc77f7fed3b5cc8249adc428c5f44c9063b9734b4",
        "to": "0x8aafd3ede9adb0ff97c7aebce82a919afb1c8764",
        "gas": "0x15d88",
        "value": "0x0",
        "input": "0xe4849b3200000000000000000000000000000000000000000000000000000000036e441d",
        "nonce": "0x14b4",
        "chainId": "0xaa36a7"
      },
      "additionalContracts": [],
      "isFixedGasLimit": false
    }
  ],
  "receipts": [
    {
      "status": "0x1",
      "cumulativeGasUsed": "0x100765a",
      "logs": [
        {
          "address": "0x8aafd3ede9adb0ff97c7aebce82a919afb1c8764",
          "topics": [
            "0xddf252ad1be2c89b69c2b068fc378daa952ba7f163c4a11628f55a4df523b3ef",
            "0x000000000000000000000000c77f7fed3b5cc8249adc428c5f44c9063b9734b4",
            "0x0000000000000000000000000000000000000000000000000000000000000000"
          ],
          "data": "0x0000000000000000000000000000000000000000000000000000000003673d6d",
          "blockHash": "0xc147b2c5e543049c837407a62674af1cc7eb2b8afd1a170dfc519da3e85997f5",
          "blockNumber": "0x731c0d",
          "transactionHash": "0xf2b6a486cc62835bc1bbd587b337164f904172ba28423c8c197e34b6c8f0beef",
          "transactionIndex": "0x94",
          "logIndex": "0xa0",
          "removed": false
        },
        {
          "address": "0x8aafd3ede9adb0ff97c7aebce82a919afb1c8764",
          "topics": [
            "0xddf252ad1be2c89b69c2b068fc378daa952ba7f163c4a11628f55a4df523b3ef",
            "0x000000000000000000000000c77f7fed3b5cc8249adc428c5f44c9063b9734b4",
            "0x000000000000000000000000c77f7fed3b5cc8249adc428c5f44c9063b9734b4"
          ],
          "data": "0x00000000000000000000000000000000000000000000000000000000000706b0",
          "blockHash": "0xc147b2c5e543049c837407a62674af1cc7eb2b8afd1a170dfc519da3e85997f5",
          "blockNumber": "0x731c0d",
          "transactionHash": "0xf2b6a486cc62835bc1bbd587b337164f904172ba28423c8c197e34b6c8f0beef",
          "transactionIndex": "0x94",
          "logIndex": "0xa1",
          "removed": false
        },
        {
          "address": "0x8aafd3ede9adb0ff97c7aebce82a919afb1c8764",
          "topics": [
            "0x4afcb4a87cdbd9974efdb92ee48bc8d7cd0ae4bf217004db3d080cbaee652ca7"
          ],
          "data": "0x0000000000000000000000000000000000000000000000000000000067904d7800000000000000000000000000000000000000000000000000102bb6324808b4000000000000000000000000000000000000000000000000000000000003ff60",
          "blockHash": "0xc147b2c5e543049c837407a62674af1cc7eb2b8afd1a170dfc519da3e85997f5",
          "blockNumber": "0x731c0d",
          "transactionHash": "0xf2b6a486cc62835bc1bbd587b337164f904172ba28423c8c197e34b6c8f0beef",
          "transactionIndex": "0x94",
          "logIndex": "0xa2",
          "removed": false
        }
      ],
      "logsBloom": "0x00000000000000000000000000000000000000000600000000000000000000000000000000000000000000000000000000000000000000004000000000000000000000000000004000000008000000000000000000000000000000000000000000000000020000000000000000000800020000000000000000000010000000000000000000000000000000000000000000000000000000000000010000000000000000000000000000000000000000004000000000000000000000000000000000000002000000800000000000000000000000000000080000000000000020000000000000000000000000000000000000000000000000000000000000000000",
      "type": "0x2",
      "transactionHash": "0xf2b6a486cc62835bc1bbd587b337164f904172ba28423c8c197e34b6c8f0beef",
      "transactionIndex": "0x94",
      "blockHash": "0xc147b2c5e543049c837407a62674af1cc7eb2b8afd1a170dfc519da3e85997f5",
      "blockNumber": "0x731c0d",
      "gasUsed": "0xfd0f",
      "effectiveGasPrice": "0xeda0b6a0",
      "from": "0xc77f7fed3b5cc8249adc428c5f44c9063b9734b4",
      "to": "0x8aafd3ede9adb0ff97c7aebce82a919afb1c8764",
      "contractAddress": null
    }
  ],
  "libraries": [],
  "pending": [],
  "returns": {},
  "timestamp": 1737510265,
  "chain": 11155111,
  "commit": "1d2fb70"
}