{
  "transactions": [
    {
      "hash": "0xe4cf25bee22a00f7be05a275b032e2534887483619e9018ead4372d45a62783a",
      "transactionType": "CALL",
      "contractName": null,
      "contractAddress": "0xbf4a322f1496e5c3d34a9bcdb4c60567b38c7de2",
      "function": "sell(uint256)",
      "arguments": [
        "989393035929975944243"
      ],
      "transaction": {
        "from": "0xc77f7fed3b5cc8249adc428c5f44c9063b9734b4",
        "to": "0xbf4a322f1496e5c3d34a9bcdb4c60567b38c7de2",
        "gas": "0x16fea",
        "value": "0x0",
        "input": "0xe4849b32000000000000000000000000000000000000000000000035a2962c263b827433",
        "nonce": "0x963",
        "chainId": "0xaa36a7"
      },
      "additionalContracts": [],
      "isFixedGasLimit": false
    }
  ],
  "receipts": [
    {
      "status": "0x1",
      "cumulativeGasUsed": "0x186e7a2",
      "logs": [
        {
          "address": "0xbf4a322f1496e5c3d34a9bcdb4c60567b38c7de2",
          "topics": [
            "0xddf252ad1be2c89b69c2b068fc378daa952ba7f163c4a11628f55a4df523b3ef",
            "0x000000000000000000000000c77f7fed3b5cc8249adc428c5f44c9063b9734b4",
            "0x0000000000000000000000000000000000000000000000000000000000000000"
          ],
          "data": "0x000000000000000000000000000000000000000000000035a2962c263b827433",
          "blockHash": "0xdeddb7828a3c0106131485bd5db0e09342a8237f026338f94c405e0d9d52a32f",
          "blockNumber": "0x7258f9",
          "transactionHash": "0xe4cf25bee22a00f7be05a275b032e2534887483619e9018ead4372d45a62783a",
          "transactionIndex": "0x91",
          "logIndex": "0x124",
          "removed": false
        },
        {
          "address": "0xbf4a322f1496e5c3d34a9bcdb4c60567b38c7de2",
          "topics": [
            "0x4afcb4a87cdbd9974efdb92ee48bc8d7cd0ae4bf217004db3d080cbaee652ca7"
          ],
          "data": "0x0000000000000000000000000000000000000000000000000000000067871dd8000000000000000000000000000000000000000000000000000390d6a14128140000000000000000000000000000000000000000000000000dc7e3f7e7b6d849",
          "blockHash": "0xdeddb7828a3c0106131485bd5db0e09342a8237f026338f94c405e0d9d52a32f",
          "blockNumber": "0x7258f9",
          "transactionHash": "0xe4cf25bee22a00f7be05a275b032e2534887483619e9018ead4372d45a62783a",
          "transactionIndex": "0x91",
          "logIndex": "0x125",
          "removed": false
        }
      ],
      "logsBloom": "0x00000000000000000000000000000000000000000000000000000000000000000000000000000000000000000000000000000000000000004000000000000000000000000000000000000008000000000000001000000000000000000000000000000000020000000000000000000800020000000000000000000010000000000000000000000000000000000000000000000000000008000000010000000000000000000000000000000000000000004000000000000000000000000000000000000002000000800000000000001000000000000000080000000000000020000000000000000000000000000000000000000000000000000000000000000000",
      "type": "0x2",
      "transactionHash": "0xe4cf25bee22a00f7be05a275b032e2534887483619e9018ead4372d45a62783a",
      "transactionIndex": "0x91",
      "blockHash": "0xdeddb7828a3c0106131485bd5db0e09342a8237f026338f94c405e0d9d52a32f",
      "blockNumber": "0x7258f9",
      "gasUsed": "0xfb91",
      "effectiveGasPrice": "0x8da23025",
      "from": "0xc77f7fed3b5cc8249adc428c5f44c9063b9734b4",
      "to": "0xbf4a322f1496e5c3d34a9bcdb4c60567b38c7de2",
      "contractAddress": null
    }
  ],
  "libraries": [],
  "pending": [],
  "returns": {},
  "timestamp": 1736908250,
  "chain": 11155111,
  "commit": "51a374b"
}