{
  "transactions": [
    {
      "hash": "0x61a40660cb8eca3359a217bd9ba058c9985abf1114338eee5bf89cb45eb28324",
      "transactionType": "CALL",
      "contractName": null,
      "contractAddress": "0xbf4a322f1496e5c3d34a9bcdb4c60567b38c7de2",
      "function": "buy(address)",
      "arguments": [
        "0xC77f7fed3b5Cc8249aDc428c5F44C9063B9734b4"
      ],
      "transaction": {
        "from": "0xc77f7fed3b5cc8249adc428c5f44c9063b9734b4",
        "to": "0xbf4a322f1496e5c3d34a9bcdb4c60567b38c7de2",
        "gas": "0x1b309",
        "value": "0xde0b6b3a7640000",
        "input": "0xf088d547000000000000000000000000c77f7fed3b5cc8249adc428c5f44c9063b9734b4",
        "nonce": "0xda6",
        "chainId": "0xaa36a7"
      },
      "additionalContracts": [],
      "isFixedGasLimit": false
    }
  ],
  "receipts": [
    {
      "status": "0x1",
      "cumulativeGasUsed": "0x13b53e4",
      "logs": [
        {
          "address": "0xbf4a322f1496e5c3d34a9bcdb4c60567b38c7de2",
          "topics": [
            "0xddf252ad1be2c89b69c2b068fc378daa952ba7f163c4a11628f55a4df523b3ef",
            "0x0000000000000000000000000000000000000000000000000000000000000000",
            "0x000000000000000000000000c77f7fed3b5cc8249adc428c5f44c9063b9734b4"
          ],
          "data": "0x000000000000000000000000000000000000000000000034ad5fe4ffc44ce509",
          "blockHash": "0x61159dcfcfbeb2bcab111eb42fb9d65ff2914bdce42ee3c8cd3bf1c54343f2af",
          "blockNumber": "0x72667c",
          "transactionHash": "0x61a40660cb8eca3359a217bd9ba058c9985abf1114338eee5bf89cb45eb28324",
          "transactionIndex": "0xb1",
          "logIndex": "0x114",
          "removed": false
        },
        {
          "address": "0xbf4a322f1496e5c3d34a9bcdb4c60567b38c7de2",
          "topics": [
            "0xddf252ad1be2c89b69c2b068fc378daa952ba7f163c4a11628f55a4df523b3ef",
            "0x0000000000000000000000000000000000000000000000000000000000000000",
            "0x000000000000000000000000c77f7fed3b5cc8249adc428c5f44c9063b9734b4"
          ],
          "data": "0x00000000000000000000000000000000000000000000000028e7da75457f5024",
          "blockHash": "0x61159dcfcfbeb2bcab111eb42fb9d65ff2914bdce42ee3c8cd3bf1c54343f2af",
          "blockNumber": "0x72667c",
          "transactionHash": "0x61a40660cb8eca3359a217bd9ba058c9985abf1114338eee5bf89cb45eb28324",
          "transactionIndex": "0xb1",
          "logIndex": "0x115",
          "removed": false
        },
        {
          "address": "0xbf4a322f1496e5c3d34a9bcdb4c60567b38c7de2",
          "topics": [
            "0x4afcb4a87cdbd9974efdb92ee48bc8d7cd0ae4bf217004db3d080cbaee652ca7"
          ],
          "data": "0x000000000000000000000000000000000000000000000000000000006787c0b000000000000000000000000000000000000000000000000000039e9c17a99d320000000000000000000000000000000000000000000000000de0b6b3a7640000",
          "blockHash": "0x61159dcfcfbeb2bcab111eb42fb9d65ff2914bdce42ee3c8cd3bf1c54343f2af",
          "blockNumber": "0x72667c",
          "transactionHash": "0x61a40660cb8eca3359a217bd9ba058c9985abf1114338eee5bf89cb45eb28324",
          "transactionIndex": "0xb1",
          "logIndex": "0x116",
          "removed": false
        }
      ],
      "logsBloom": "0x00000000000000000000000000000000000000000000000000000000000000000000000000000000000000000000000000000000000000004000000000000000000000000000000000000008000000000000001000000000000000000000000000000000020000000000000000000800020000000000000000000010000000000000000000000000000000000000000000000000000008000000010000000000000000000000000000000000000000004000000000000000000000000000000000000002000000800000000000001000000000000000080000000000000020000000000000000000000000000000000000000000000000000000000000000000",
      "type": "0x2",
      "transactionHash": "0x61a40660cb8eca3359a217bd9ba058c9985abf1114338eee5bf89cb45eb28324",
      "transactionIndex": "0xb1",
      "blockHash": "0x61159dcfcfbeb2bcab111eb42fb9d65ff2914bdce42ee3c8cd3bf1c54343f2af",
      "blockNumber": "0x72667c",
      "gasUsed": "0x13af6",
      "effectiveGasPrice": "0x87af6a99",
      "from": "0xc77f7fed3b5cc8249adc428c5f44c9063b9734b4",
      "to": "0xbf4a322f1496e5c3d34a9bcdb4c60567b38c7de2",
      "contractAddress": null
    }
  ],
  "libraries": [],
  "pending": [],
  "returns": {},
  "timestamp": 1736949938,
  "chain": 11155111,
  "commit": "51a374b"
}