{
  "transactions": [
    {
      "hash": "0xc793e031d5704810e12c39efd940c12232bfcb2c324055ab484056de20537d54",
      "transactionType": "CALL",
      "contractName": null,
      "contractAddress": "0xbf4a322f1496e5c3d34a9bcdb4c60567b38c7de2",
      "function": "buy(address)",
      "arguments": [
        "0xC77f7fed3b5Cc8249aDc428c5F44C9063B9734b4"
      ],
      "transaction": {
        "from": "0xc77f7fed3b5cc8249adc428c5f44c9063b9734b4",
        "to": "0xbf4a322f1496e5c3d34a9bcdb4c60567b38c7de2",
        "gas": "0x1b309",
        "value": "0xde0b6b3a7640000",
        "input": "0xf088d547000000000000000000000000c77f7fed3b5cc8249adc428c5f44c9063b9734b4",
        "nonce": "0xb0e",
        "chainId": "0xaa36a7"
      },
      "additionalContracts": [],
      "isFixedGasLimit": false
    }
  ],
  "receipts": [
    {
      "status": "0x1",
      "cumulativeGasUsed": "0x11d5d4b",
      "logs": [
        {
          "address": "0xbf4a322f1496e5c3d34a9bcdb4c60567b38c7de2",
          "topics": [
            "0xddf252ad1be2c89b69c2b068fc378daa952ba7f163c4a11628f55a4df523b3ef",
            "0x0000000000000000000000000000000000000000000000000000000000000000",
            "0x000000000000000000000000c77f7fed3b5cc8249adc428c5f44c9063b9734b4"
          ],
          "data": "0x00000000000000000000000000000000000000000000003528801a53596b1259",
          "blockHash": "0xbcc156844bfebc40d70ac669b2c0b072749e9eb95ed59f6daee7e4d5073c4d45",
          "blockNumber": "0x725b03",
          "transactionHash": "0xc793e031d5704810e12c39efd940c12232bfcb2c324055ab484056de20537d54",
          "transactionIndex": "0x65",
          "logIndex": "0x93",
          "removed": false
        },
        {
          "address": "0xbf4a322f1496e5c3d34a9bcdb4c60567b38c7de2",
          "topics": [
            "0xddf252ad1be2c89b69c2b068fc378daa952ba7f163c4a11628f55a4df523b3ef",
            "0x0000000000000000000000000000000000000000000000000000000000000000",
            "0x000000000000000000000000c77f7fed3b5cc8249adc428c5f44c9063b9734b4"
          ],
          "data": "0x000000000000000000000000000000000000000000000000294776f99911e1d9",
          "blockHash": "0xbcc156844bfebc40d70ac669b2c0b072749e9eb95ed59f6daee7e4d5073c4d45",
          "blockNumber": "0x725b03",
          "transactionHash": "0xc793e031d5704810e12c39efd940c12232bfcb2c324055ab484056de20537d54",
          "transactionIndex": "0x65",
          "logIndex": "0x94",
          "removed": false
        },
        {
          "address": "0xbf4a322f1496e5c3d34a9bcdb4c60567b38c7de2",
          "topics": [
            "0x4afcb4a87cdbd9974efdb92ee48bc8d7cd0ae4bf217004db3d080cbaee652ca7"
          ],
          "data": "0x000000000000000000000000000000000000000000000000000000006787368000000000000000000000000000000000000000000000000000039639e2eb33e10000000000000000000000000000000000000000000000000de0b6b3a7640000",
          "blockHash": "0xbcc156844bfebc40d70ac669b2c0b072749e9eb95ed59f6daee7e4d5073c4d45",
          "blockNumber": "0x725b03",
          "transactionHash": "0xc793e031d5704810e12c39efd940c12232bfcb2c324055ab484056de20537d54",
          "transactionIndex": "0x65",
          "logIndex": "0x95",
          "removed": false
        }
      ],
      "logsBloom": "0x00000000000000000000000000000000000000000000000000000000000000000000000000000000000000000000000000000000000000004000000000000000000000000000000000000008000000000000001000000000000000000000000000000000020000000000000000000800020000000000000000000010000000000000000000000000000000000000000000000000000008000000010000000000000000000000000000000000000000004000000000000000000000000000000000000002000000800000000000001000000000000000080000000000000020000000000000000000000000000000000000000000000000000000000000000000",
      "type": "0x2",
      "transactionHash": "0xc793e031d5704810e12c39efd940c12232bfcb2c324055ab484056de20537d54",
      "transactionIndex": "0x65",
      "blockHash": "0xbcc156844bfebc40d70ac669b2c0b072749e9eb95ed59f6daee7e4d5073c4d45",
      "blockNumber": "0x725b03",
      "gasUsed": "0x13af6",
      "effectiveGasPrice": "0x8e85f992",
      "from": "0xc77f7fed3b5cc8249adc428c5f44c9063b9734b4",
      "to": "0xbf4a322f1496e5c3d34a9bcdb4c60567b38c7de2",
      "contractAddress": null
    }
  ],
  "libraries": [],
  "pending": [],
  "returns": {},
  "timestamp": 1736914561,
  "chain": 11155111,
  "commit": "51a374b"
}