{
  "transactions": [
    {
      "hash": "0x5e7c7b8ee53256b0141eaf115410445aedb834a22838b3750654e7662a0b9f05",
      "transactionType": "CALL",
      "contractName": null,
      "contractAddress": "0x8aafd3ede9adb0ff97c7aebce82a919afb1c8764",
      "function": "sell(uint256)",
      "arguments": [
        "1551453"
      ],
      "transaction": {
        "from": "0xc77f7fed3b5cc8249adc428c5f44c9063b9734b4",
        "to": "0x8aafd3ede9adb0ff97c7aebce82a919afb1c8764",
        "gas": "0x16208",
        "value": "0x0",
        "input": "0xe4849b32000000000000000000000000000000000000000000000000000000000017ac5d",
        "nonce": "0xfdc",
        "chainId": "0xaa36a7"
      },
      "additionalContracts": [],
      "isFixedGasLimit": false
    }
  ],
  "receipts": [
    {
      "status": "0x1",
      "cumulativeGasUsed": "0xcf2cfe",
      "logs": [
        {
          "address": "0x8aafd3ede9adb0ff97c7aebce82a919afb1c8764",
          "topics": [
            "0xddf252ad1be2c89b69c2b068fc378daa952ba7f163c4a11628f55a4df523b3ef",
            "0x000000000000000000000000c77f7fed3b5cc8249adc428c5f44c9063b9734b4",
            "0x0000000000000000000000000000000000000000000000000000000000000000"
          ],
          "data": "0x0000000000000000000000000000000000000000000000000000000000177be2",
          "blockHash": "0xe333932a7396d094b15176c5511fa7f516877f3f04b69b10c450daca0de632f5",
          "blockNumber": "0x73164e",
          "transactionHash": "0x5e7c7b8ee53256b0141eaf115410445aedb834a22838b3750654e7662a0b9f05",
          "transactionIndex": "0x8c",
          "logIndex": "0xdd",
          "removed": false
        },
        {
          "address": "0x8aafd3ede9adb0ff97c7aebce82a919afb1c8764",
          "topics": [
            "0xddf252ad1be2c89b69c2b068fc378daa952ba7f163c4a11628f55a4df523b3ef",
            "0x000000000000000000000000c77f7fed3b5cc8249adc428c5f44c9063b9734b4",
            "0x000000000000000000000000c77f7fed3b5cc8249adc428c5f44c9063b9734b4"
          ],
          "data": "0x000000000000000000000000000000000000000000000000000000000000307b",
          "blockHash": "0xe333932a7396d094b15176c5511fa7f516877f3f04b69b10c450daca0de632f5",
          "blockNumber": "0x73164e",
          "transactionHash": "0x5e7c7b8ee53256b0141eaf115410445aedb834a22838b3750654e7662a0b9f05",
          "transactionIndex": "0x8c",
          "logIndex": "0xde",
          "removed": false
        },
        {
          "address": "0x8aafd3ede9adb0ff97c7aebce82a919afb1c8764",
          "topics": [
            "0x4afcb4a87cdbd9974efdb92ee48bc8d7cd0ae4bf217004db3d080cbaee652ca7"
          ],
          "data": "0x00000000000000000000000000000000000000000000000000000000679008540000000000000000000000000000000000000000000000000004c51eedc547640000000000000000000000000000000000000000000000000000000000000823",
          "blockHash": "0xe333932a7396d094b15176c5511fa7f516877f3f04b69b10c450daca0de632f5",
          "blockNumber": "0x73164e",
          "transactionHash": "0x5e7c7b8ee53256b0141eaf115410445aedb834a22838b3750654e7662a0b9f05",
          "transactionIndex": "0x8c",
          "logIndex": "0xdf",
          "removed": false
        }
      ],
      "logsBloom": "0x00000000000000000000000000000000000000000600000000000000000000000000000000000000000000000000000000000000000000004000000000000000000000000000004000000008000000000000000000000000000000000000000000000000020000000000000000000800020000000000000000000010000000000000000000000000000000000000000000000000000000000000010000000000000000000000000000000000000000004000000000000000000000000000000000000002000000800000000000000000000000000000080000000000000020000000000000000000000000000000000000000000000000000000000000000000",
      "type": "0x2",
      "transactionHash": "0x5e7c7b8ee53256b0141eaf115410445aedb834a22838b3750654e7662a0b9f05",
      "transactionIndex": "0x8c",
      "blockHash": "0xe333932a7396d094b15176c5511fa7f516877f3f04b69b10c450daca0de632f5",
      "blockNumber": "0x73164e",
      "gasUsed": "0xf213",
      "effectiveGasPrice": "0x4c1cc7f7",
      "from": "0xc77f7fed3b5cc8249adc428c5f44c9063b9734b4",
      "to": "0x8aafd3ede9adb0ff97c7aebce82a919afb1c8764",
      "contractAddress": null
    }
  ],
  "libraries": [],
  "pending": [],
  "returns": {},
  "timestamp": 1737492564,
  "chain": 11155111,
  "commit": "1d2fb70"
}