{
  "transactions": [
    {
      "hash": "0xecace32902c520910e4b67554f6113bccd6520175bf33e35fc3d73183a3cc1aa",
      "transactionType": "CALL",
      "contractName": null,
      "contractAddress": "0x8aafd3ede9adb0ff97c7aebce82a919afb1c8764",
      "function": "sell(uint256)",
      "arguments": [
        "187434116"
      ],
      "transaction": {
        "from": "0xc77f7fed3b5cc8249adc428c5f44c9063b9734b4",
        "to": "0x8aafd3ede9adb0ff97c7aebce82a919afb1c8764",
        "gas": "0x15d88",
        "value": "0x0",
        "input": "0xe4849b32000000000000000000000000000000000000000000000000000000000b2c0484",
        "nonce": "0x1047",
        "chainId": "0xaa36a7"
      },
      "additionalContracts": [],
      "isFixedGasLimit": false
    }
  ],
  "receipts": [
    {
      "status": "0x1",
      "cumulativeGasUsed": "0xb49dec",
      "logs": [
        {
          "address": "0x8aafd3ede9adb0ff97c7aebce82a919afb1c8764",
          "topics": [
            "0xddf252ad1be2c89b69c2b068fc378daa952ba7f163c4a11628f55a4df523b3ef",
            "0x000000000000000000000000c77f7fed3b5cc8249adc428c5f44c9063b9734b4",
            "0x0000000000000000000000000000000000000000000000000000000000000000"
          ],
          "data": "0x000000000000000000000000000000000000000000000000000000000b152334",
          "blockHash": "0xcecf3b4c121a6334f45e7dd8299e8363b97dbd1608b59962f7134305b03d23ad",
          "blockNumber": "0x7316c8",
          "transactionHash": "0xecace32902c520910e4b67554f6113bccd6520175bf33e35fc3d73183a3cc1aa",
          "transactionIndex": "0x95",
          "logIndex": "0x87",
          "removed": false
        },
        {
          "address": "0x8aafd3ede9adb0ff97c7aebce82a919afb1c8764",
          "topics": [
            "0xddf252ad1be2c89b69c2b068fc378daa952ba7f163c4a11628f55a4df523b3ef",
            "0x000000000000000000000000c77f7fed3b5cc8249adc428c5f44c9063b9734b4",
            "0x000000000000000000000000c77f7fed3b5cc8249adc428c5f44c9063b9734b4"
          ],
          "data": "0x000000000000000000000000000000000000000000000000000000000016e150",
          "blockHash": "0xcecf3b4c121a6334f45e7dd8299e8363b97dbd1608b59962f7134305b03d23ad",
          "blockNumber": "0x7316c8",
          "transactionHash": "0xecace32902c520910e4b67554f6113bccd6520175bf33e35fc3d73183a3cc1aa",
          "transactionIndex": "0x95",
          "logIndex": "0x88",
          "removed": false
        },
        {
          "address": "0x8aafd3ede9adb0ff97c7aebce82a919afb1c8764",
          "topics": [
            "0x4afcb4a87cdbd9974efdb92ee48bc8d7cd0ae4bf217004db3d080cbaee652ca7"
          ],
          "data": "0x0000000000000000000000000000000000000000000000000000000067900e180000000000000000000000000000000000000000000000000004f09087c47ba2000000000000000000000000000000000000000000000000000000000003fa01",
          "blockHash": "0xcecf3b4c121a6334f45e7dd8299e8363b97dbd1608b59962f7134305b03d23ad",
          "blockNumber": "0x7316c8",
          "transactionHash": "0xecace32902c520910e4b67554f6113bccd6520175bf33e35fc3d73183a3cc1aa",
          "transactionIndex": "0x95",
          "logIndex": "0x89",
          "removed": false
        }
      ],
      "logsBloom": "0x00000000000000000000000000000000000000000600000000000000000000000000000000000000000000000000000000000000000000004000000000000000000000000000004000000008000000000000000000000000000000000000000000000000020000000000000000000800020000000000000000000010000000000000000000000000000000000000000000000000000000000000010000000000000000000000000000000000000000004000000000000000000000000000000000000002000000800000000000000000000000000000080000000000000020000000000000000000000000000000000000000000000000000000000000000000",
      "type": "0x2",
      "transactionHash": "0xecace32902c520910e4b67554f6113bccd6520175bf33e35fc3d73183a3cc1aa",
      "transactionIndex": "0x95",
      "blockHash": "0xcecf3b4c121a6334f45e7dd8299e8363b97dbd1608b59962f7134305b03d23ad",
      "blockNumber": "0x7316c8",
      "gasUsed": "0xfd0f",
      "effectiveGasPrice": "0x3dc2296b",
      "from": "0xc77f7fed3b5cc8249adc428c5f44c9063b9734b4",
      "to": "0x8aafd3ede9adb0ff97c7aebce82a919afb1c8764",
      "contractAddress": null
    }
  ],
  "libraries": [],
  "pending": [],
  "returns": {},
  "timestamp": 1737494042,
  "chain": 11155111,
  "commit": "1d2fb70"
}