{
  "transactions": [
    {
      "hash": "0x47ac5348131b7c86d8ed246201ea51581e06d1ca4a9df9fe23775f4e758238be",
      "transactionType": "CALL",
      "contractName": null,
      "contractAddress": "0x8aafd3ede9adb0ff97c7aebce82a919afb1c8764",
      "function": "buy(address)",
      "arguments": [
        "0xC77f7fed3b5Cc8249aDc428c5F44C9063B9734b4"
      ],
      "transaction": {
        "from": "0xc77f7fed3b5cc8249adc428c5f44c9063b9734b4",
        "to": "0x8aafd3ede9adb0ff97c7aebce82a919afb1c8764",
        "gas": "0x156ea",
        "value": "0xde0b6b3a7640000",
        "input": "0xf088d547000000000000000000000000c77f7fed3b5cc8249adc428c5f44c9063b9734b4",
        "nonce": "0xf7a",
        "chainId": "0xaa36a7"
      },
      "additionalContracts": [],
      "isFixedGasLimit": false
    }
  ],
  "receipts": [
    {
      "status": "0x1",
      "cumulativeGasUsed": "0xeed8c6",
      "logs": [
        {
          "address": "0x8aafd3ede9adb0ff97c7aebce82a919afb1c8764",
          "topics": [
            "0xddf252ad1be2c89b69c2b068fc378daa952ba7f163c4a11628f55a4df523b3ef",
            "0x0000000000000000000000000000000000000000000000000000000000000000",
            "0x000000000000000000000000c77f7fed3b5cc8249adc428c5f44c9063b9734b4"
          ],
          "data": "0x0000000000000000000000000000000000000000000000281469695d50d57eb0",
          "blockHash": "0xb47bd46e3f23bcfb02b370e161c114c4263f69cfce0f6bbc93c77c42c1f3b43a",
          "blockNumber": "0x7315dc",
          "transactionHash": "0x47ac5348131b7c86d8ed246201ea51581e06d1ca4a9df9fe23775f4e758238be",
          "transactionIndex": "0x94",
          "logIndex": "0xf3",
          "removed": false
        },
        {
          "address": "0x8aafd3ede9adb0ff97c7aebce82a919afb1c8764",
          "topics": [
            "0xddf252ad1be2c89b69c2b068fc378daa952ba7f163c4a11628f55a4df523b3ef",
            "0x0000000000000000000000000000000000000000000000000000000000000000",
            "0x000000000000000000000000c77f7fed3b5cc8249adc428c5f44c9063b9734b4"
          ],
          "data": "0x0000000000000000000000000000000000000000000000001f1f8f498c8ea10c",
          "blockHash": "0xb47bd46e3f23bcfb02b370e161c114c4263f69cfce0f6bbc93c77c42c1f3b43a",
          "blockNumber": "0x7315dc",
          "transactionHash": "0x47ac5348131b7c86d8ed246201ea51581e06d1ca4a9df9fe23775f4e758238be",
          "transactionIndex": "0x94",
          "logIndex": "0xf4",
          "removed": false
        },
        {
          "address": "0x8aafd3ede9adb0ff97c7aebce82a919afb1c8764",
          "topics": [
            "0x4afcb4a87cdbd9974efdb92ee48bc8d7cd0ae4bf217004db3d080cbaee652ca7"
          ],
          "data": "0x00000000000000000000000000000000000000000000000000000000679002fc0000000000000000000000000000000000000000000000000004c1efba828b350000000000000000000000000000000000000000000000000de0b6b3a7640000",
          "blockHash": "0xb47bd46e3f23bcfb02b370e161c114c4263f69cfce0f6bbc93c77c42c1f3b43a",
          "blockNumber": "0x7315dc",
          "transactionHash": "0x47ac5348131b7c86d8ed246201ea51581e06d1ca4a9df9fe23775f4e758238be",
          "transactionIndex": "0x94",
          "logIndex": "0xf5",
          "removed": false
        }
      ],
      "logsBloom": "0x00000000000000000000000000000000000000000600000000000000000000000000000000000000000000000000000000000000000000004000000000000000000000000000004000000008000000000000000000000000000000000000000000000000020000000000000000000800020000000000000000000010000000000000000000000000000000000000000000000000000000000000010000000000000000000000000000000000000000004000000000000000000000000000000000000002000000800000000000000000000000000000080000000000000020000000000000000000000000000000000000000000000000000000000000000000",
      "type": "0x2",
      "transactionHash": "0x47ac5348131b7c86d8ed246201ea51581e06d1ca4a9df9fe23775f4e758238be",
      "transactionIndex": "0x94",
      "blockHash": "0xb47bd46e3f23bcfb02b370e161c114c4263f69cfce0f6bbc93c77c42c1f3b43a",
      "blockNumber": "0x7315dc",
      "gasUsed": "0xf844",
      "effectiveGasPrice": "0x717e0f72",
      "from": "0xc77f7fed3b5cc8249adc428c5f44c9063b9734b4",
      "to": "0x8aafd3ede9adb0ff97c7aebce82a919afb1c8764",
      "contractAddress": null
    }
  ],
  "libraries": [],
  "pending": [],
  "returns": {},
  "timestamp": 1737491197,
  "chain": 11155111,
  "commit": "1d2fb70"
}