{
  "transactions": [
    {
      "hash": "0xa0754624b455c50d3fe4e3028ee665d975a94ac49409a2b7629991e5bba307cb",
      "transactionType": "CALL",
      "contractName": null,
      "contractAddress": "0x8aafd3ede9adb0ff97c7aebce82a919afb1c8764",
      "function": "sell(uint256)",
      "arguments": [
        "120960774154733"
      ],
      "transaction": {
        "from": "0xc77f7fed3b5cc8249adc428c5f44c9063b9734b4",
        "to": "0x8aafd3ede9adb0ff97c7aebce82a919afb1c8764",
        "gas": "0x15daa",
        "value": "0x0",
        "input": "0xe4849b3200000000000000000000000000000000000000000000000000006e035ff9a9ed",
        "nonce": "0x144e",
        "chainId": "0xaa36a7"
      },
      "additionalContracts": [],
      "isFixedGasLimit": false
    }
  ],
  "receipts": [
    {
      "status": "0x1",
      "cumulativeGasUsed": "0xbee98c",
      "logs": [
        {
          "address": "0x8aafd3ede9adb0ff97c7aebce82a919afb1c8764",
          "topics": [
            "0xddf252ad1be2c89b69c2b068fc378daa952ba7f163c4a11628f55a4df523b3ef",
            "0x000000000000000000000000c77f7fed3b5cc8249adc428c5f44c9063b9734b4",
            "0x0000000000000000000000000000000000000000000000000000000000000000"
          ],
          "data": "0x00000000000000000000000000000000000000000000000000006d2211622998",
          "blockHash": "0xf0f16070621a7df5d62a7d6e044171447419a840312104f03f329b2c850bd0df",
          "blockNumber": "0x731b93",
          "transactionHash": "0xa0754624b455c50d3fe4e3028ee665d975a94ac49409a2b7629991e5bba307cb",
          "transactionIndex": "0x53",
          "logIndex": "0x72",
          "removed": false
        },
        {
          "address": "0x8aafd3ede9adb0ff97c7aebce82a919afb1c8764",
          "topics": [
            "0xddf252ad1be2c89b69c2b068fc378daa952ba7f163c4a11628f55a4df523b3ef",
            "0x000000000000000000000000c77f7fed3b5cc8249adc428c5f44c9063b9734b4",
            "0x000000000000000000000000c77f7fed3b5cc8249adc428c5f44c9063b9734b4"
          ],
          "data": "0x000000000000000000000000000000000000000000000000000000e14e978055",
          "blockHash": "0xf0f16070621a7df5d62a7d6e044171447419a840312104f03f329b2c850bd0df",
          "blockNumber": "0x731b93",
          "transactionHash": "0xa0754624b455c50d3fe4e3028ee665d975a94ac49409a2b7629991e5bba307cb",
          "transactionIndex": "0x53",
          "logIndex": "0x73",
          "removed": false
        },
        {
          "address": "0x8aafd3ede9adb0ff97c7aebce82a919afb1c8764",
          "topics": [
            "0x4afcb4a87cdbd9974efdb92ee48bc8d7cd0ae4bf217004db3d080cbaee652ca7"
          ],
          "data": "0x00000000000000000000000000000000000000000000000000000000679047c0000000000000000000000000000000000000000000000000000f091c5054e27d0000000000000000000000000000000000000000000000000000007730ff6eb4",
          "blockHash": "0xf0f16070621a7df5d62a7d6e044171447419a840312104f03f329b2c850bd0df",
          "blockNumber": "0x731b93",
          "transactionHash": "0xa0754624b455c50d3fe4e3028ee665d975a94ac49409a2b7629991e5bba307cb",
          "transactionIndex": "0x53",
          "logIndex": "0x74",
          "removed": false
        }
      ],
      "logsBloom": "0x00000000000000000000000000000000000000000600000000000000000000000000000000000000000000000000000000000000000000004000000000000000000000000000004000000008000000000000000000000000000000000000000000000000020000000000000000000800020000000000000000000010000000000000000000000000000000000000000000000000000000000000010000000000000000000000000000000000000000004000000000000000000000000000000000000002000000800000000000000000000000000000080000000000000020000000000000000000000000000000000000000000000000000000000000000000",
      "type": "0x2",
      "transactionHash": "0xa0754624b455c50d3fe4e3028ee665d975a94ac49409a2b7629991e5bba307cb",
      "transactionIndex": "0x53",
      "blockHash": "0xf0f16070621a7df5d62a7d6e044171447419a840312104f03f329b2c850bd0df",
      "blockNumber": "0x731b93",
      "gasUsed": "0xfd27",
      "effectiveGasPrice": "0x113a59ffe",
      "from": "0xc77f7fed3b5cc8249adc428c5f44c9063b9734b4",
      "to": "0x8aafd3ede9adb0ff97c7aebce82a919afb1c8764",
      "contractAddress": null
    }
  ],
  "libraries": [],
  "pending": [],
  "returns": {},
  "timestamp": 1737508801,
  "chain": 11155111,
  "commit": "1d2fb70"
}