{
  "transactions": [
    {
      "hash": "0xb0dc5d656fac7516be92f7b938b4232848c69775639075ec298a3737ba449728",
      "transactionType": "CALL",
      "contractName": null,
      "contractAddress": "0x8aafd3ede9adb0ff97c7aebce82a919afb1c8764",
      "function": "sell(uint256)",
      "arguments": [
        "1016678099850"
      ],
      "transaction": {
        "from": "0xc77f7fed3b5cc8249adc428c5f44c9063b9734b4",
        "to": "0x8aafd3ede9adb0ff97c7aebce82a919afb1c8764",
        "gas": "0x1722a",
        "value": "0x0",
        "input": "0xe4849b32000000000000000000000000000000000000000000000000000000ecb6bcab8a",
        "nonce": "0x1410",
        "chainId": "0xaa36a7"
      },
      "additionalContracts": [],
      "isFixedGasLimit": false
    }
  ],
  "receipts": [
    {
      "status": "0x1",
      "cumulativeGasUsed": "0x192d4de",
      "logs": [
        {
          "address": "0x8aafd3ede9adb0ff97c7aebce82a919afb1c8764",
          "topics": [
            "0xddf252ad1be2c89b69c2b068fc378daa952ba7f163c4a11628f55a4df523b3ef",
            "0x000000000000000000000000c77f7fed3b5cc8249adc428c5f44c9063b9734b4",
            "0x0000000000000000000000000000000000000000000000000000000000000000"
          ],
          "data": "0x000000000000000000000000000000000000000000000000000000ead1f274ec",
          "blockHash": "0xde40bc183900498a613155f65e4564db904c36e8353bc57eef4b1e2b8ed2b69e",
          "blockNumber": "0x731b4a",
          "transactionHash": "0xb0dc5d656fac7516be92f7b938b4232848c69775639075ec298a3737ba449728",
          "transactionIndex": "0xc3",
          "logIndex": "0xf3",
          "removed": false
        },
        {
          "address": "0x8aafd3ede9adb0ff97c7aebce82a919afb1c8764",
          "topics": [
            "0xddf252ad1be2c89b69c2b068fc378daa952ba7f163c4a11628f55a4df523b3ef",
            "0x000000000000000000000000c77f7fed3b5cc8249adc428c5f44c9063b9734b4",
            "0x000000000000000000000000c77f7fed3b5cc8249adc428c5f44c9063b9734b4"
          ],
          "data": "0x00000000000000000000000000000000000000000000000000000001e4ca369e",
          "blockHash": "0xde40bc183900498a613155f65e4564db904c36e8353bc57eef4b1e2b8ed2b69e",
          "blockNumber": "0x731b4a",
          "transactionHash": "0xb0dc5d656fac7516be92f7b938b4232848c69775639075ec298a3737ba449728",
          "transactionIndex": "0xc3",
          "logIndex": "0xf4",
          "removed": false
        },
        {
          "address": "0x8aafd3ede9adb0ff97c7aebce82a919afb1c8764",
          "topics": [
            "0x4afcb4a87cdbd9974efdb92ee48bc8d7cd0ae4bf217004db3d080cbaee652ca7"
          ],
          "data": "0x0000000000000000000000000000000000000000000000000000000067904448000000000000000000000000000000000000000000000000000e50d2e2eaa03500000000000000000000000000000000000000000000000000000000f42f0086",
          "blockHash": "0xde40bc183900498a613155f65e4564db904c36e8353bc57eef4b1e2b8ed2b69e",
          "blockNumber": "0x731b4a",
          "transactionHash": "0xb0dc5d656fac7516be92f7b938b4232848c69775639075ec298a3737ba449728",
          "transactionIndex": "0xc3",
          "logIndex": "0xf5",
          "removed": false
        }
      ],
      "logsBloom": "0x00000000000000000000000000000000000000000600000000000000000000000000000000000000000000000000000000000000000000004000000000000000000000000000004000000008000000000000000000000000000000000000000000000000020000000000000000000800020000000000000000000010000000000000000000000000000000000000000000000000000000000000010000000000000000000000000000000000000000004000000000000000000000000000000000000002000000800000000000000000000000000000080000000000000020000000000000000000000000000000000000000000000000000000000000000000",
      "type": "0x2",
      "transactionHash": "0xb0dc5d656fac7516be92f7b938b4232848c69775639075ec298a3737ba449728",
      "transactionIndex": "0xc3",
      "blockHash": "0xde40bc183900498a613155f65e4564db904c36e8353bc57eef4b1e2b8ed2b69e",
      "blockNumber": "0x731b4a",
      "gasUsed": "0xfd1b",
      "effectiveGasPrice": "0xc8ff83dd",
      "from": "0xc77f7fed3b5cc8249adc428c5f44c9063b9734b4",
      "to": "0x8aafd3ede9adb0ff97c7aebce82a919afb1c8764",
      "contractAddress": null
    }
  ],
  "libraries": [],
  "pending": [],
  "returns": {},
  "timestamp": 1737507914,
  "chain": 11155111,
  "commit": "1d2fb70"
}