{
  "transactions": [
    {
      "hash": "0x5210c4effd483ac0d29826aeca49ae5375b313bc42afb6c71914020cafd1e974",
      "transactionType": "CALL",
      "contractName": null,
      "contractAddress": "0xbf4a322f1496e5c3d34a9bcdb4c60567b38c7de2",
      "function": "buy(address)",
      "arguments": [
        "0xC77f7fed3b5Cc8249aDc428c5F44C9063B9734b4"
      ],
      "transaction": {
        "from": "0xc77f7fed3b5cc8249adc428c5f44c9063b9734b4",
        "to": "0xbf4a322f1496e5c3d34a9bcdb4c60567b38c7de2",
        "gas": "0x1b309",
        "value": "0xde0b6b3a7640000",
        "input": "0xf088d547000000000000000000000000c77f7fed3b5cc8249adc428c5f44c9063b9734b4",
        "nonce": "0xcc0",
        "chainId": "0xaa36a7"
      },
      "additionalContracts": [],
      "isFixedGasLimit": false
    }
  ],
  "receipts": [
    {
      "status": "0x1",
      "cumulativeGasUsed": "0x158dc79",
      "logs": [
        {
          "address": "0xbf4a322f1496e5c3d34a9bcdb4c60567b38c7de2",
          "topics": [
            "0xddf252ad1be2c89b69c2b068fc378daa952ba7f163c4a11628f55a4df523b3ef",
            "0x0000000000000000000000000000000000000000000000000000000000000000",
            "0x000000000000000000000000c77f7fed3b5cc8249adc428c5f44c9063b9734b4"
          ],
          "data": "0x000000000000000000000000000000000000000000000034d7c549065e8f31fa",
          "blockHash": "0x34a597c1c2615fe45f8246bbeeb6ab1189faab55f18f1c60f5b0e103291d4602",
          "blockNumber": "0x725d10",
          "transactionHash": "0x5210c4effd483ac0d29826aeca49ae5375b313bc42afb6c71914020cafd1e974",
          "transactionIndex": "0x96",
          "logIndex": "0xdb",
          "removed": false
        },
        {
          "address": "0xbf4a322f1496e5c3d34a9bcdb4c60567b38c7de2",
          "topics": [
            "0xddf252ad1be2c89b69c2b068fc378daa952ba7f163c4a11628f55a4df523b3ef",
            "0x0000000000000000000000000000000000000000000000000000000000000000",
            "0x000000000000000000000000c77f7fed3b5cc8249adc428c5f44c9063b9734b4"
          ],
          "data": "0x0000000000000000000000000000000000000000000000002908c67c77782318",
          "blockHash": "0x34a597c1c2615fe45f8246bbeeb6ab1189faab55f18f1c60f5b0e103291d4602",
          "blockNumber": "0x725d10",
          "transactionHash": "0x5210c4effd483ac0d29826aeca49ae5375b313bc42afb6c71914020cafd1e974",
          "transactionIndex": "0x96",
          "logIndex": "0xdc",
          "removed": false
        },
        {
          "address": "0xbf4a322f1496e5c3d34a9bcdb4c60567b38c7de2",
          "topics": [
            "0x4afcb4a87cdbd9974efdb92ee48bc8d7cd0ae4bf217004db3d080cbaee652ca7"
          ],
          "data": "0x0000000000000000000000000000000000000000000000000000000067874f3400000000000000000000000000000000000000000000000000039bb4ad354b6b0000000000000000000000000000000000000000000000000de0b6b3a7640000",
          "blockHash": "0x34a597c1c2615fe45f8246bbeeb6ab1189faab55f18f1c60f5b0e103291d4602",
          "blockNumber": "0x725d10",
          "transactionHash": "0x5210c4effd483ac0d29826aeca49ae5375b313bc42afb6c71914020cafd1e974",
          "transactionIndex": "0x96",
          "logIndex": "0xdd",
          "removed": false
        }
      ],
      "logsBloom": "0x00000000000000000000000000000000000000000000000000000000000000000000000000000000000000000000000000000000000000004000000000000000000000000000000000000008000000000000001000000000000000000000000000000000020000000000000000000800020000000000000000000010000000000000000000000000000000000000000000000000000008000000010000000000000000000000000000000000000000004000000000000000000000000000000000000002000000800000000000001000000000000000080000000000000020000000000000000000000000000000000000000000000000000000000000000000",
      "type": "0x2",
      "transactionHash": "0x5210c4effd483ac0d29826aeca49ae5375b313bc42afb6c71914020cafd1e974",
      "transactionIndex": "0x96",
      "blockHash": "0x34a597c1c2615fe45f8246bbeeb6ab1189faab55f18f1c60f5b0e103291d4602",
      "blockNumber": "0x725d10",
      "gasUsed": "0x13af6",
      "effectiveGasPrice": "0x2165c280d",
      "from": "0xc77f7fed3b5cc8249adc428c5f44c9063b9734b4",
      "to": "0xbf4a322f1496e5c3d34a9bcdb4c60567b38c7de2",
      "contractAddress": null
    }
  ],
  "libraries": [],
  "pending": [],
  "returns": {},
  "timestamp": 1736920885,
  "chain": 11155111,
  "commit": "51a374b"
}