{
  "transactions": [
    {
      "hash": "0x8d14d91e0aae3475e66808f6076e610013c4cab5ab9fdba4d992c3a9c82d7fb5",
      "transactionType": "CALL",
      "contractName": null,
      "contractAddress": "0xbf4a322f1496e5c3d34a9bcdb4c60567b38c7de2",
      "function": "buy(address)",
      "arguments": [
        "0xC77f7fed3b5Cc8249aDc428c5F44C9063B9734b4"
      ],
      "transaction": {
        "from": "0xc77f7fed3b5cc8249adc428c5f44c9063b9734b4",
        "to": "0xbf4a322f1496e5c3d34a9bcdb4c60567b38c7de2",
        "gas": "0x1b309",
        "value": "0xde0b6b3a7640000",
        "input": "0xf088d547000000000000000000000000c77f7fed3b5cc8249adc428c5f44c9063b9734b4",
        "nonce": "0x9ce",
        "chainId": "0xaa36a7"
      },
      "additionalContracts": [],
      "isFixedGasLimit": false
    }
  ],
  "receipts": [
    {
      "status": "0x1",
      "cumulativeGasUsed": "0xbdbc07",
      "logs": [
        {
          "address": "0xbf4a322f1496e5c3d34a9bcdb4c60567b38c7de2",
          "topics": [
            "0xddf252ad1be2c89b69c2b068fc378daa952ba7f163c4a11628f55a4df523b3ef",
            "0x0000000000000000000000000000000000000000000000000000000000000000",
            "0x000000000000000000000000c77f7fed3b5cc8249adc428c5f44c9063b9734b4"
          ],
          "data": "0x00000000000000000000000000000000000000000000003564a4f48199b63d2b",
          "blockHash": "0x16def7ae640d21a0ca5f4cb012b216f54a0d8d78e5da01759fe1ac5ec0ba5aab",
          "blockNumber": "0x72597c",
          "transactionHash": "0x8d14d91e0aae3475e66808f6076e610013c4cab5ab9fdba4d992c3a9c82d7fb5",
          "transactionIndex": "0x6e",
          "logIndex": "0x94",
          "removed": false
        },
        {
          "address": "0xbf4a322f1496e5c3d34a9bcdb4c60567b38c7de2",
          "topics": [
            "0xddf252ad1be2c89b69c2b068fc378daa952ba7f163c4a11628f55a4df523b3ef",
            "0x0000000000000000000000000000000000000000000000000000000000000000",
            "0x000000000000000000000000c77f7fed3b5cc8249adc428c5f44c9063b9734b4"
          ],
          "data": "0x00000000000000000000000000000000000000000000000029762b27ed2d59de",
          "blockHash": "0x16def7ae640d21a0ca5f4cb012b216f54a0d8d78e5da01759fe1ac5ec0ba5aab",
          "blockNumber": "0x72597c",
          "transactionHash": "0x8d14d91e0aae3475e66808f6076e610013c4cab5ab9fdba4d992c3a9c82d7fb5",
          "transactionIndex": "0x6e",
          "logIndex": "0x95",
          "removed": false
        },
        {
          "address": "0xbf4a322f1496e5c3d34a9bcdb4c60567b38c7de2",
          "topics": [
            "0x4afcb4a87cdbd9974efdb92ee48bc8d7cd0ae4bf217004db3d080cbaee652ca7"
          ],
          "data": "0x00000000000000000000000000000000000000000000000000000000678724080000000000000000000000000000000000000000000000000003922f92dfefd50000000000000000000000000000000000000000000000000de0b6b3a7640000",
          "blockHash": "0x16def7ae640d21a0ca5f4cb012b216f54a0d8d78e5da01759fe1ac5ec0ba5aab",
          "blockNumber": "0x72597c",
          "transactionHash": "0x8d14d91e0aae3475e66808f6076e610013c4cab5ab9fdba4d992c3a9c82d7fb5",
          "transactionIndex": "0x6e",
          "logIndex": "0x96",
          "removed": false
        }
      ],
      "logsBloom": "0x00000000000000000000000000000000000000000000000000000000000000000000000000000000000000000000000000000000000000004000000000000000000000000000000000000008000000000000001000000000000000000000000000000000020000000000000000000800020000000000000000000010000000000000000000000000000000000000000000000000000008000000010000000000000000000000000000000000000000004000000000000000000000000000000000000002000000800000000000001000000000000000080000000000000020000000000000000000000000000000000000000000000000000000000000000000",
      "type": "0x2",
      "transactionHash": "0x8d14d91e0aae3475e66808f6076e610013c4cab5ab9fdba4d992c3a9c82d7fb5",
      "transactionIndex": "0x6e",
      "blockHash": "0x16def7ae640d21a0ca5f4cb012b216f54a0d8d78e5da01759fe1ac5ec0ba5aab",
      "blockNumber": "0x72597c",
      "gasUsed": "0x13af6",
      "effectiveGasPrice": "0x2ca6a8f00",
      "from": "0xc77f7fed3b5cc8249adc428c5f44c9063b9734b4",
      "to": "0xbf4a322f1496e5c3d34a9bcdb4c60567b38c7de2",
      "contractAddress": null
    }
  ],
  "libraries": [],
  "pending": [],
  "returns": {},
  "timestamp": 1736909834,
  "chain": 11155111,
  "commit": "51a374b"
}