{
  "transactions": [
    {
      "hash": "0x3e8671deaae23420a4603c1f01fb9add95aa167d36e97ba8dc04e90649e25f0c",
      "transactionType": "CALL",
      "contractName": null,
      "contractAddress": "0x8aafd3ede9adb0ff97c7aebce82a919afb1c8764",
      "function": "sell(uint256)",
      "arguments": [
        "229906843648626105499"
      ],
      "transaction": {
        "from": "0xc77f7fed3b5cc8249adc428c5f44c9063b9734b4",
        "to": "0x8aafd3ede9adb0ff97c7aebce82a919afb1c8764",
        "gas": "0x17270",
        "value": "0x0",
        "input": "0xe4849b3200000000000000000000000000000000000000000000000c7699303323a19c9b",
        "nonce": "0x146f",
        "chainId": "0xaa36a7"
      },
      "additionalContracts": [],
      "isFixedGasLimit": false
    }
  ],
  "receipts": [
    {
      "status": "0x1",
      "cumulativeGasUsed": "0xd87614",
      "logs": [
        {
          "address": "0x8aafd3ede9adb0ff97c7aebce82a919afb1c8764",
          "topics": [
            "0xddf252ad1be2c89b69c2b068fc378daa952ba7f163c4a11628f55a4df523b3ef",
            "0x000000000000000000000000c77f7fed3b5cc8249adc428c5f44c9063b9734b4",
            "0x0000000000000000000000000000000000000000000000000000000000000000"
          ],
          "data": "0x00000000000000000000000000000000000000000000000c5d12d7c00ac52ed0",
          "blockHash": "0x64d0e36e84a0d26176a8b49a8df9f5272be7fa86c87da7eed879c3fe5b588bfa",
          "blockNumber": "0x731bbc",
          "transactionHash": "0x3e8671deaae23420a4603c1f01fb9add95aa167d36e97ba8dc04e90649e25f0c",
          "transactionIndex": "0x93",
          "logIndex": "0xf5",
          "removed": false
        },
        {
          "address": "0x8aafd3ede9adb0ff97c7aebce82a919afb1c8764",
          "topics": [
            "0xddf252ad1be2c89b69c2b068fc378daa952ba7f163c4a11628f55a4df523b3ef",
            "0x000000000000000000000000c77f7fed3b5cc8249adc428c5f44c9063b9734b4",
            "0x000000000000000000000000c77f7fed3b5cc8249adc428c5f44c9063b9734b4"
          ],
          "data": "0x0000000000000000000000000000000000000000000000001986587318dc6dcb",
          "blockHash": "0x64d0e36e84a0d26176a8b49a8df9f5272be7fa86c87da7eed879c3fe5b588bfa",
          "blockNumber": "0x731bbc",
          "transactionHash": "0x3e8671deaae23420a4603c1f01fb9add95aa167d36e97ba8dc04e90649e25f0c",
          "transactionIndex": "0x93",
          "logIndex": "0xf6",
          "removed": false
        },
        {
          "address": "0x8aafd3ede9adb0ff97c7aebce82a919afb1c8764",
          "topics": [
            "0x4afcb4a87cdbd9974efdb92ee48bc8d7cd0ae4bf217004db3d080cbaee652ca7"
          ],
          "data": "0x00000000000000000000000000000000000000000000000000000000679049ac000000000000000000000000000000000000000000000000000f727c275692cc0000000000000000000000000000000000000000000000000dcd8fdd7372e8d9",
          "blockHash": "0x64d0e36e84a0d26176a8b49a8df9f5272be7fa86c87da7eed879c3fe5b588bfa",
          "blockNumber": "0x731bbc",
          "transactionHash": "0x3e8671deaae23420a4603c1f01fb9add95aa167d36e97ba8dc04e90649e25f0c",
          "transactionIndex": "0x93",
          "logIndex": "0xf7",
          "removed": false
        }
      ],
      "logsBloom": "0x00000000000000000000000000000000000000000600000000000000000000000000000000000000000000000000000000000000000000004000000000000000000000000000004000000008000000000000000000000000000000000000000000000000020000000000000000000800020000000000000000000010000000000000000000000000000000000000000000000000000000000000010000000000000000000000000000000000000000004000000000000000000000000000000000000002000000800000000000000000000000000000080000000000000020000000000000000000000000000000000000000000000000000000000000000000",
      "type": "0x2",
      "transactionHash": "0x3e8671deaae23420a4603c1f01fb9add95aa167d36e97ba8dc04e90649e25f0c",
      "transactionIndex": "0x93",
      "blockHash": "0x64d0e36e84a0d26176a8b49a8df9f5272be7fa86c87da7eed879c3fe5b588bfa",
      "blockNumber": "0x731bbc",
      "gasUsed": "0xfd4b",
      "effectiveGasPrice": "0xee27a7a7",
      "from": "0xc77f7fed3b5cc8249adc428c5f44c9063b9734b4",
      "to": "0x8aafd3ede9adb0ff97c7aebce82a919afb1c8764",
      "contractAddress": null
    }
  ],
  "libraries": [],
  "pending": [],
  "returns": {},
  "timestamp": 1737509293,
  "chain": 11155111,
  "commit": "1d2fb70"
}