{
  "transactions": [
    {
      "hash": "0xf41e6f5b102d8dd7c97d9647c6e16ad9ec38eedd80ab337e31305d7d945d16e8",
      "transactionType": "CALL",
      "contractName": null,
      "contractAddress": "0xbf4a322f1496e5c3d34a9bcdb4c60567b38c7de2",
      "function": "sell(uint256)",
      "arguments": [
        "975362312329958041702"
      ],
      "transaction": {
        "from": "0xc77f7fed3b5cc8249adc428c5f44c9063b9734b4",
        "to": "0xbf4a322f1496e5c3d34a9bcdb4c60567b38c7de2",
        "gas": "0x16fea",
        "value": "0x0",
        "input": "0xe4849b32000000000000000000000000000000000000000000000034dfdf075f82c0a866",
        "nonce": "0xd73",
        "chainId": "0xaa36a7"
      },
      "additionalContracts": [],
      "isFixedGasLimit": false
    }
  ],
  "receipts": [
    {
      "status": "0x1",
      "cumulativeGasUsed": "0xbf1241",
      "logs": [
        {
          "address": "0xbf4a322f1496e5c3d34a9bcdb4c60567b38c7de2",
          "topics": [
            "0xddf252ad1be2c89b69c2b068fc378daa952ba7f163c4a11628f55a4df523b3ef",
            "0x000000000000000000000000c77f7fed3b5cc8249adc428c5f44c9063b9734b4",
            "0x0000000000000000000000000000000000000000000000000000000000000000"
          ],
          "data": "0x000000000000000000000000000000000000000000000034dfdf075f82c0a866",
          "blockHash": "0x82b70152d07288c3c66edb9375e15a235ca54da2cfbf28641884fe26e93d6901",
          "blockNumber": "0x726642",
          "transactionHash": "0xf41e6f5b102d8dd7c97d9647c6e16ad9ec38eedd80ab337e31305d7d945d16e8",
          "transactionIndex": "0x58",
          "logIndex": "0xa1",
          "removed": false
        },
        {
          "address": "0xbf4a322f1496e5c3d34a9bcdb4c60567b38c7de2",
          "topics": [
            "0x4afcb4a87cdbd9974efdb92ee48bc8d7cd0ae4bf217004db3d080cbaee652ca7"
          ],
          "data": "0x000000000000000000000000000000000000000000000000000000006787bdc800000000000000000000000000000000000000000000000000039df826e209ca0000000000000000000000000000000000000000000000000dc7e3d74891f7f8",
          "blockHash": "0x82b70152d07288c3c66edb9375e15a235ca54da2cfbf28641884fe26e93d6901",
          "blockNumber": "0x726642",
          "transactionHash": "0xf41e6f5b102d8dd7c97d9647c6e16ad9ec38eedd80ab337e31305d7d945d16e8",
          "transactionIndex": "0x58",
          "logIndex": "0xa2",
          "removed": false
        }
      ],
      "logsBloom": "0x00000000000000000000000000000000000000000000000000000000000000000000000000000000000000000000000000000000000000004000000000000000000000000000000000000008000000000000001000000000000000000000000000000000020000000000000000000800020000000000000000000010000000000000000000000000000000000000000000000000000008000000010000000000000000000000000000000000000000004000000000000000000000000000000000000002000000800000000000001000000000000000080000000000000020000000000000000000000000000000000000000000000000000000000000000000",
      "type": "0x2",
      "transactionHash": "0xf41e6f5b102d8dd7c97d9647c6e16ad9ec38eedd80ab337e31305d7d945d16e8",
      "transactionIndex": "0x58",
      "blockHash": "0x82b70152d07288c3c66edb9375e15a235ca54da2cfbf28641884fe26e93d6901",
      "blockNumber": "0x726642",
      "gasUsed": "0xfb91",
      "effectiveGasPrice": "0xa3572620",
      "from": "0xc77f7fed3b5cc8249adc428c5f44c9063b9734b4",
      "to": "0xbf4a322f1496e5c3d34a9bcdb4c60567b38c7de2",
      "contractAddress": null
    }
  ],
  "libraries": [],
  "pending": [],
  "returns": {},
  "timestamp": 1736949194,
  "chain": 11155111,
  "commit": "51a374b"
}