{
  "transactions": [
    {
      "hash": "0x9ea71bb83259009280479dbedb36b0f37a109909ad1182381ec06190a5a0777d",
      "transactionType": "CALL",
      "contractName": null,
      "contractAddress": "0x5eb9cc76c3506942c1c0ead70e877dd5e4f00cb0",
      "function": "sell(uint256)",
      "arguments": [
        "989153225957152560207"
      ],
      "transaction": {
        "from": "0xc77f7fed3b5cc8249adc428c5f44c9063b9734b4",
        "to": "0x5eb9cc76c3506942c1c0ead70e877dd5e4f00cb0",
        "gas": "0x16fec",
        "value": "0x0",
        "input": "0xe4849b320000000000000000000000000000000000000000000000359f42323fe7c6944f",
        "nonce": "0x2b3",
        "chainId": "0xaa36a7"
      },
      "additionalContracts": [],
      "isFixedGasLimit": false
    }
  ],
  "receipts": [
    {
      "status": "0x1",
      "cumulativeGasUsed": "0xd3d561",
      "logs": [
        {
          "address": "0x5eb9cc76c3506942c1c0ead70e877dd5e4f00cb0",
          "topics": [
            "0xddf252ad1be2c89b69c2b068fc378daa952ba7f163c4a11628f55a4df523b3ef",
            "0x000000000000000000000000c77f7fed3b5cc8249adc428c5f44c9063b9734b4",
            "0x0000000000000000000000000000000000000000000000000000000000000000"
          ],
          "data": "0x0000000000000000000000000000000000000000000000359f42323fe7c6944f",
          "blockHash": "0x127bbd4337712f0168393e851fa1e007be362b87fd38613b6bafacbd6449afaa",
          "blockNumber": "0x724e8e",
          "transactionHash": "0x9ea71bb83259009280479dbedb36b0f37a109909ad1182381ec06190a5a0777d",
          "transactionIndex": "0x57",
          "logIndex": "0x8c",
          "removed": false
        },
        {
          "address": "0x5eb9cc76c3506942c1c0ead70e877dd5e4f00cb0",
          "topics": [
            "0x4afcb4a87cdbd9974efdb92ee48bc8d7cd0ae4bf217004db3d080cbaee652ca7"
          ],
          "data": "0x000000000000000000000000000000000000000000000000000000006786a05c00000000000000000000000000000000000000000000000000039108e4e4d8060000000000000000000000000000000000000000000000000dc7db133246282d",
          "blockHash": "0x127bbd4337712f0168393e851fa1e007be362b87fd38613b6bafacbd6449afaa",
          "blockNumber": "0x724e8e",
          "transactionHash": "0x9ea71bb83259009280479dbedb36b0f37a109909ad1182381ec06190a5a0777d",
          "transactionIndex": "0x57",
          "logIndex": "0x8d",
          "removed": false
        }
      ],
      "logsBloom": "0x00000000000000000000000000000000000000000000000000000000000000000000000000000000000000000000000000000000000000004000000000000000000000000000000000000008000000000000000000000000000000000000000000000000020000000000000004000800020000000000000000000010000000000000000000000000000000000000000000000000000000000000010000000000000000000000000000000000000000004000000000000000000000000000020000000002000000800000008000000000000000000000080000000000000020000000000000000000000000000000000000000000000000000000000000000000",
      "type": "0x2",
      "transactionHash": "0x9ea71bb83259009280479dbedb36b0f37a109909ad1182381ec06190a5a0777d",
      "transactionIndex": "0x57",
      "blockHash": "0x127bbd4337712f0168393e851fa1e007be362b87fd38613b6bafacbd6449afaa",
      "blockNumber": "0x724e8e",
      "gasUsed": "0xfb93",
      "effectiveGasPrice": "0x472fa1936",
      "from": "0xc77f7fed3b5cc8249adc428c5f44c9063b9734b4",
      "to": "0x5eb9cc76c3506942c1c0ead70e877dd5e4f00cb0",
      "contractAddress": null
    }
  ],
  "libraries": [],
  "pending": [],
  "returns": {},
  "timestamp": 1736876125,
  "chain": 11155111,
  "commit": "51a374b"
}