{
  "transactions": [
    {
      "hash": "0x2472add672dc19aa0535ab3bcf3abc02e7af19040a1966ece33cecbfb1f596d2",
      "transactionType": "CALL",
      "contractName": null,
      "contractAddress": "0x8aafd3ede9adb0ff97c7aebce82a919afb1c8764",
      "function": "sell(uint256)",
      "arguments": [
        "710692557276"
      ],
      "transaction": {
        "from": "0xc77f7fed3b5cc8249adc428c5f44c9063b9734b4",
        "to": "0x8aafd3ede9adb0ff97c7aebce82a919afb1c8764",
        "gas": "0x1722a",
        "value": "0x0",
        "input": "0xe4849b32000000000000000000000000000000000000000000000000000000a57893d1dc",
        "nonce": "0x1623",
        "chainId": "0xaa36a7"
      },
      "additionalContracts": [],
      "isFixedGasLimit": false
    }
  ],
  "receipts": [
    {
      "status": "0x1",
      "cumulativeGasUsed": "0x10efc43",
      "logs": [
        {
          "address": "0x8aafd3ede9adb0ff97c7aebce82a919afb1c8764",
          "topics": [
            "0xddf252ad1be2c89b69c2b068fc378daa952ba7f163c4a11628f55a4df523b3ef",
            "0x000000000000000000000000c77f7fed3b5cc8249adc428c5f44c9063b9734b4",
            "0x0000000000000000000000000000000000000000000000000000000000000000"
          ],
          "data": "0x000000000000000000000000000000000000000000000000000000a425b15b72",
          "blockHash": "0xd4964c560d1f529be7f1a3ee9e99a210540c0e83af7e0e1812471e4dc8360f62",
          "blockNumber": "0x731db9",
          "transactionHash": "0x2472add672dc19aa0535ab3bcf3abc02e7af19040a1966ece33cecbfb1f596d2",
          "transactionIndex": "0x8e",
          "logIndex": "0x111",
          "removed": false
        },
        {
          "address": "0x8aafd3ede9adb0ff97c7aebce82a919afb1c8764",
          "topics": [
            "0xddf252ad1be2c89b69c2b068fc378daa952ba7f163c4a11628f55a4df523b3ef",
            "0x000000000000000000000000c77f7fed3b5cc8249adc428c5f44c9063b9734b4",
            "0x000000000000000000000000c77f7fed3b5cc8249adc428c5f44c9063b9734b4"
          ],
          "data": "0x0000000000000000000000000000000000000000000000000000000152e2766a",
          "blockHash": "0xd4964c560d1f529be7f1a3ee9e99a210540c0e83af7e0e1812471e4dc8360f62",
          "blockNumber": "0x731db9",
          "transactionHash": "0x2472add672dc19aa0535ab3bcf3abc02e7af19040a1966ece33cecbfb1f596d2",
          "transactionIndex": "0x8e",
          "logIndex": "0x112",
          "removed": false
        },
        {
          "address": "0x8aafd3ede9adb0ff97c7aebce82a919afb1c8764",
          "topics": [
            "0x4afcb4a87cdbd9974efdb92ee48bc8d7cd0ae4bf217004db3d080cbaee652ca7"
          ],
          "data": "0x000000000000000000000000000000000000000000000000000000006790619400000000000000000000000000000000000000000000000000146fe1999e0b2000000000000000000000000000000000000000000000000000000000f3ae0915",
          "blockHash": "0xd4964c560d1f529be7f1a3ee9e99a210540c0e83af7e0e1812471e4dc8360f62",
          "blockNumber": "0x731db9",
          "transactionHash": "0x2472add672dc19aa0535ab3bcf3abc02e7af19040a1966ece33cecbfb1f596d2",
          "transactionIndex": "0x8e",
          "logIndex": "0x113",
          "removed": false
        }
      ],
      "logsBloom": "0x00000000000000000000000000000000000000000600000000000000000000000000000000000000000000000000000000000000000000004000000000000000000000000000004000000008000000000000000000000000000000000000000000000000020000000000000000000800020000000000000000000010000000000000000000000000000000000000000000000000000000000000010000000000000000000000000000000000000000004000000000000000000000000000000000000002000000800000000000000000000000000000080000000000000020000000000000000000000000000000000000000000000000000000000000000000",
      "type": "0x2",
      "transactionHash": "0x2472add672dc19aa0535ab3bcf3abc02e7af19040a1966ece33cecbfb1f596d2",
      "transactionIndex": "0x8e",
      "blockHash": "0xd4964c560d1f529be7f1a3ee9e99a210540c0e83af7e0e1812471e4dc8360f62",
      "blockNumber": "0x731db9",
      "gasUsed": "0xfd1b",
      "effectiveGasPrice": "0x64ac190c",
      "from": "0xc77f7fed3b5cc8249adc428c5f44c9063b9734b4",
      "to": "0x8aafd3ede9adb0ff97c7aebce82a919afb1c8764",
      "contractAddress": null
    }
  ],
  "libraries": [],
  "pending": [],
  "returns": {},
  "timestamp": 1737515414,
  "chain": 11155111,
  "commit": "1d2fb70"
}