{
  "transactions": [
    {
      "hash": "0x57d8a3168a01918150210fd20b23dae65c84dd244b1950da1cf6c034434cf2c0",
      "transactionType": "CALL",
      "contractName": null,
      "contractAddress": "0x5eb9cc76c3506942c1c0ead70e877dd5e4f00cb0",
      "function": "sell(uint256)",
      "arguments": [
        "989080558352672018565"
      ],
      "transaction": {
        "from": "0xc77f7fed3b5cc8249adc428c5f44c9063b9734b4",
        "to": "0x5eb9cc76c3506942c1c0ead70e877dd5e4f00cb0",
        "gas": "0x16fec",
        "value": "0x0",
        "input": "0xe4849b320000000000000000000000000000000000000000000000359e400772c808d085",
        "nonce": "0x47b",
        "chainId": "0xaa36a7"
      },
      "additionalContracts": [],
      "isFixedGasLimit": false
    }
  ],
  "receipts": [
    {
      "status": "0x1",
      "cumulativeGasUsed": "0x8a1bba",
      "logs": [
        {
          "address": "0x5eb9cc76c3506942c1c0ead70e877dd5e4f00cb0",
          "topics": [
            "0xddf252ad1be2c89b69c2b068fc378daa952ba7f163c4a11628f55a4df523b3ef",
            "0x000000000000000000000000c77f7fed3b5cc8249adc428c5f44c9063b9734b4",
            "0x0000000000000000000000000000000000000000000000000000000000000000"
          ],
          "data": "0x0000000000000000000000000000000000000000000000359e400772c808d085",
          "blockHash": "0x7b2bec1ef583cb209a6adf44ea95e00a8601286103646a0992f572820d08796d",
          "blockNumber": "0x7250a9",
          "transactionHash": "0x57d8a3168a01918150210fd20b23dae65c84dd244b1950da1cf6c034434cf2c0",
          "transactionIndex": "0x4e",
          "logIndex": "0x7c",
          "removed": false
        },
        {
          "address": "0x5eb9cc76c3506942c1c0ead70e877dd5e4f00cb0",
          "topics": [
            "0x4afcb4a87cdbd9974efdb92ee48bc8d7cd0ae4bf217004db3d080cbaee652ca7"
          ],
          "data": "0x000000000000000000000000000000000000000000000000000000006786b9b80000000000000000000000000000000000000000000000000003911a111503830000000000000000000000000000000000000000000000000dc7db1331c4daba",
          "blockHash": "0x7b2bec1ef583cb209a6adf44ea95e00a8601286103646a0992f572820d08796d",
          "blockNumber": "0x7250a9",
          "transactionHash": "0x57d8a3168a01918150210fd20b23dae65c84dd244b1950da1cf6c034434cf2c0",
          "transactionIndex": "0x4e",
          "logIndex": "0x7d",
          "removed": false
        }
      ],
      "logsBloom": "0x00000000000000000000000000000000000000000000000000000000000000000000000000000000000000000000000000000000000000004000000000000000000000000000000000000008000000000000000000000000000000000000000000000000020000000000000004000800020000000000000000000010000000000000000000000000000000000000000000000000000000000000010000000000000000000000000000000000000000004000000000000000000000000000020000000002000000800000008000000000000000000000080000000000000020000000000000000000000000000000000000000000000000000000000000000000",
      "type": "0x2",
      "transactionHash": "0x57d8a3168a01918150210fd20b23dae65c84dd244b1950da1cf6c034434cf2c0",
      "transactionIndex": "0x4e",
      "blockHash": "0x7b2bec1ef583cb209a6adf44ea95e00a8601286103646a0992f572820d08796d",
      "blockNumber": "0x7250a9",
      "gasUsed": "0xfb93",
      "effectiveGasPrice": "0x1e31fcce5",
      "from": "0xc77f7fed3b5cc8249adc428c5f44c9063b9734b4",
      "to": "0x5eb9cc76c3506942c1c0ead70e877dd5e4f00cb0",
      "contractAddress": null
    }
  ],
  "libraries": [],
  "pending": [],
  "returns": {},
  "timestamp": 1736882618,
  "chain": 11155111,
  "commit": "51a374b"
}