{
  "transactions": [
    {
      "hash": "0x544603912c84fde053e849673825ebfb35f869434f07bfbe5950c08e30ef66da",
      "transactionType": "CALL",
      "contractName": null,
      "contractAddress": "0x8aafd3ede9adb0ff97c7aebce82a919afb1c8764",
      "function": "sell(uint256)",
      "arguments": [
        "682810596608592671190"
      ],
      "transaction": {
        "from": "0xc77f7fed3b5cc8249adc428c5f44c9063b9734b4",
        "to": "0x8aafd3ede9adb0ff97c7aebce82a919afb1c8764",
        "gas": "0x17270",
        "value": "0x0",
        "input": "0xe4849b3200000000000000000000000000000000000000000000002503e68bee0fb571d6",
        "nonce": "0x11db",
        "chainId": "0xaa36a7"
      },
      "additionalContracts": [],
      "isFixedGasLimit": false
    }
  ],
  "receipts": [
    {
      "status": "0x1",
      "cumulativeGasUsed": "0x11909bc",
      "logs": [
        {
          "address": "0x8aafd3ede9adb0ff97c7aebce82a919afb1c8764",
          "topics": [
            "0xddf252ad1be2c89b69c2b068fc378daa952ba7f163c4a11628f55a4df523b3ef",
            "0x000000000000000000000000c77f7fed3b5cc8249adc428c5f44c9063b9734b4",
            "0x0000000000000000000000000000000000000000000000000000000000000000"
          ],
          "data": "0x000000000000000000000000000000000000000000000024b817e6f871e318dd",
          "blockHash": "0xc7cb25e85575542f42f9ad45c38cb52022196a7d44d19b383c9f17573a1500d7",
          "blockNumber": "0x7318b1",
          "transactionHash": "0x544603912c84fde053e849673825ebfb35f869434f07bfbe5950c08e30ef66da",
          "transactionIndex": "0xa8",
          "logIndex": "0xe3",
          "removed": false
        },
        {
          "address": "0x8aafd3ede9adb0ff97c7aebce82a919afb1c8764",
          "topics": [
            "0xddf252ad1be2c89b69c2b068fc378daa952ba7f163c4a11628f55a4df523b3ef",
            "0x000000000000000000000000c77f7fed3b5cc8249adc428c5f44c9063b9734b4",
            "0x000000000000000000000000c77f7fed3b5cc8249adc428c5f44c9063b9734b4"
          ],
          "data": "0x0000000000000000000000000000000000000000000000004bcea4f59dd258f9",
          "blockHash": "0xc7cb25e85575542f42f9ad45c38cb52022196a7d44d19b383c9f17573a1500d7",
          "blockNumber": "0x7318b1",
          "transactionHash": "0x544603912c84fde053e849673825ebfb35f869434f07bfbe5950c08e30ef66da",
          "transactionIndex": "0xa8",
          "logIndex": "0xe4",
          "removed": false
        },
        {
          "address": "0x8aafd3ede9adb0ff97c7aebce82a919afb1c8764",
          "topics": [
            "0x4afcb4a87cdbd9974efdb92ee48bc8d7cd0ae4bf217004db3d080cbaee652ca7"
          ],
          "data": "0x000000000000000000000000000000000000000000000000000000006790251c00000000000000000000000000000000000000000000000000052c1c8c5e34420000000000000000000000000000000000000000000000000dc8f2ebe3f85aa0",
          "blockHash": "0xc7cb25e85575542f42f9ad45c38cb52022196a7d44d19b383c9f17573a1500d7",
          "blockNumber": "0x7318b1",
          "transactionHash": "0x544603912c84fde053e849673825ebfb35f869434f07bfbe5950c08e30ef66da",
          "transactionIndex": "0xa8",
          "logIndex": "0xe5",
          "removed": false
        }
      ],
      "logsBloom": "0x00000000000000000000000000000000000000000600000000000000000000000000000000000000000000000000000000000000000000004000000000000000000000000000004000000008000000000000000000000000000000000000000000000000020000000000000000000800020000000000000000000010000000000000000000000000000000000000000000000000000000000000010000000000000000000000000000000000000000004000000000000000000000000000000000000002000000800000000000000000000000000000080000000000000020000000000000000000000000000000000000000000000000000000000000000000",
      "type": "0x2",
      "transactionHash": "0x544603912c84fde053e849673825ebfb35f869434f07bfbe5950c08e30ef66da",
      "transactionIndex": "0xa8",
      "blockHash": "0xc7cb25e85575542f42f9ad45c38cb52022196a7d44d19b383c9f17573a1500d7",
      "blockNumber": "0x7318b1",
      "gasUsed": "0xfd4b",
      "effectiveGasPrice": "0x3fa53022",
      "from": "0xc77f7fed3b5cc8249adc428c5f44c9063b9734b4",
      "to": "0x8aafd3ede9adb0ff97c7aebce82a919afb1c8764",
      "contractAddress": null
    }
  ],
  "libraries": [],
  "pending": [],
  "returns": {},
  "timestamp": 1737499934,
  "chain": 11155111,
  "commit": "1d2fb70"
}