{
  "transactions": [
    {
      "hash": "0x6dffa128c0af5f9c124529a3ec207873357fc313c0769dfd469a1a1450074902",
      "transactionType": "CALL",
      "contractName": null,
      "contractAddress": "0x8aafd3ede9adb0ff97c7aebce82a919afb1c8764",
      "function": "sell(uint256)",
      "arguments": [
        "5345036986972746275"
      ],
      "transaction": {
        "from": "0xc77f7fed3b5cc8249adc428c5f44c9063b9734b4",
        "to": "0x8aafd3ede9adb0ff97c7aebce82a919afb1c8764",
        "gas": "0x15dca",
        "value": "0x0",
        "input": "0xe4849b320000000000000000000000000000000000000000000000004a2d62d207d5b223",
        "nonce": "0x12a4",
        "chainId": "0xaa36a7"
      },
      "additionalContracts": [],
      "isFixedGasLimit": false
    }
  ],
  "receipts": [
    {
      "status": "0x1",
      "cumulativeGasUsed": "0xc940b7",
      "logs": [
        {
          "address": "0x8aafd3ede9adb0ff97c7aebce82a919afb1c8764",
          "topics": [
            "0xddf252ad1be2c89b69c2b068fc378daa952ba7f163c4a11628f55a4df523b3ef",
            "0x000000000000000000000000c77f7fed3b5cc8249adc428c5f44c9063b9734b4",
            "0x0000000000000000000000000000000000000000000000000000000000000000"
          ],
          "data": "0x0000000000000000000000000000000000000000000000004995788ed079dfd1",
          "blockHash": "0x1f59772013e7d92e8bee9ec85bb38fc3363b3412b0583fbf5dfa491c468c9ddb",
          "blockNumber": "0x731998",
          "transactionHash": "0x6dffa128c0af5f9c124529a3ec207873357fc313c0769dfd469a1a1450074902",
          "transactionIndex": "0x99",
          "logIndex": "0xe4",
          "removed": false
        },
        {
          "address": "0x8aafd3ede9adb0ff97c7aebce82a919afb1c8764",
          "topics": [
            "0xddf252ad1be2c89b69c2b068fc378daa952ba7f163c4a11628f55a4df523b3ef",
            "0x000000000000000000000000c77f7fed3b5cc8249adc428c5f44c9063b9734b4",
            "0x000000000000000000000000c77f7fed3b5cc8249adc428c5f44c9063b9734b4"
          ],
          "data": "0x0000000000000000000000000000000000000000000000000097ea43375bd252",
          "blockHash": "0x1f59772013e7d92e8bee9ec85bb38fc3363b3412b0583fbf5dfa491c468c9ddb",
          "blockNumber": "0x731998",
          "transactionHash": "0x6dffa128c0af5f9c124529a3ec207873357fc313c0769dfd469a1a1450074902",
          "transactionIndex": "0x99",
          "logIndex": "0xe5",
          "removed": false
        },
        {
          "address": "0x8aafd3ede9adb0ff97c7aebce82a919afb1c8764",
          "topics": [
            "0x4afcb4a87cdbd9974efdb92ee48bc8d7cd0ae4bf217004db3d080cbaee652ca7"
          ],
          "data": "0x0000000000000000000000000000000000000000000000000000000067902ff00000000000000000000000000000000000000000000000000005492ef7f9e048000000000000000000000000000000000000000000000000001c40c57b5e3c7b",
          "blockHash": "0x1f59772013e7d92e8bee9ec85bb38fc3363b3412b0583fbf5dfa491c468c9ddb",
          "blockNumber": "0x731998",
          "transactionHash": "0x6dffa128c0af5f9c124529a3ec207873357fc313c0769dfd469a1a1450074902",
          "transactionIndex": "0x99",
          "logIndex": "0xe6",
          "removed": false
        }
      ],
      "logsBloom": "0x00000000000000000000000000000000000000000600000000000000000000000000000000000000000000000000000000000000000000004000000000000000000000000000004000000008000000000000000000000000000000000000000000000000020000000000000000000800020000000000000000000010000000000000000000000000000000000000000000000000000000000000010000000000000000000000000000000000000000004000000000000000000000000000000000000002000000800000000000000000000000000000080000000000000020000000000000000000000000000000000000000000000000000000000000000000",
      "type": "0x2",
      "transactionHash": "0x6dffa128c0af5f9c124529a3ec207873357fc313c0769dfd469a1a1450074902",
      "transactionIndex": "0x99",
      "blockHash": "0x1f59772013e7d92e8bee9ec85bb38fc3363b3412b0583fbf5dfa491c468c9ddb",
      "blockNumber": "0x731998",
      "gasUsed": "0xfd3f",
      "effectiveGasPrice": "0x3f5f85ae",
      "from": "0xc77f7fed3b5cc8249adc428c5f44c9063b9734b4",
      "to": "0x8aafd3ede9adb0ff97c7aebce82a919afb1c8764",
      "contractAddress": null
    }
  ],
  "libraries": [],
  "pending": [],
  "returns": {},
  "timestamp": 1737502705,
  "chain": 11155111,
  "commit": "1d2fb70"
}