{
  "transactions": [
    {
      "hash": "0x20d2f0256c6a7c20c4ea744c73705a23555c03e2ad5ef016495e40b537ad9fe7",
      "transactionType": "CALL",
      "contractName": null,
      "contractAddress": "0xbf4a322f1496e5c3d34a9bcdb4c60567b38c7de2",
      "function": "sell(uint256)",
      "arguments": [
        "987371777466690015279"
      ],
      "transaction": {
        "from": "0xc77f7fed3b5cc8249adc428c5f44c9063b9734b4",
        "to": "0xbf4a322f1496e5c3d34a9bcdb4c60567b38c7de2",
        "gas": "0x16fea",
        "value": "0x0",
        "input": "0xe4849b32000000000000000000000000000000000000000000000035868938493c19902f",
        "nonce": "0x9f7",
        "chainId": "0xaa36a7"
      },
      "additionalContracts": [],
      "isFixedGasLimit": false
    }
  ],
  "receipts": [
    {
      "status": "0x1",
      "cumulativeGasUsed": "0x18de371",
      "logs": [
        {
          "address": "0xbf4a322f1496e5c3d34a9bcdb4c60567b38c7de2",
          "topics": [
            "0xddf252ad1be2c89b69c2b068fc378daa952ba7f163c4a11628f55a4df523b3ef",
            "0x000000000000000000000000c77f7fed3b5cc8249adc428c5f44c9063b9734b4",
            "0x0000000000000000000000000000000000000000000000000000000000000000"
          ],
          "data": "0x000000000000000000000000000000000000000000000035868938493c19902f",
          "blockHash": "0x7761bea66400bf4510054e75803c1f8b4194356e02ab5d68e040df3656753beb",
          "blockNumber": "0x7259ad",
          "transactionHash": "0x20d2f0256c6a7c20c4ea744c73705a23555c03e2ad5ef016495e40b537ad9fe7",
          "transactionIndex": "0x71",
          "logIndex": "0xa6",
          "removed": false
        },
        {
          "address": "0xbf4a322f1496e5c3d34a9bcdb4c60567b38c7de2",
          "topics": [
            "0x4afcb4a87cdbd9974efdb92ee48bc8d7cd0ae4bf217004db3d080cbaee652ca7"
          ],
          "data": "0x0000000000000000000000000000000000000000000000000000000067872654000000000000000000000000000000000000000000000000000392b4ffb5dff40000000000000000000000000000000000000000000000000dc7e3f334ac701d",
          "blockHash": "0x7761bea66400bf4510054e75803c1f8b4194356e02ab5d68e040df3656753beb",
          "blockNumber": "0x7259ad",
          "transactionHash": "0x20d2f0256c6a7c20c4ea744c73705a23555c03e2ad5ef016495e40b537ad9fe7",
          "transactionIndex": "0x71",
          "logIndex": "0xa7",
          "removed": false
        }
      ],
      "logsBloom": "0x00000000000000000000000000000000000000000000000000000000000000000000000000000000000000000000000000000000000000004000000000000000000000000000000000000008000000000000001000000000000000000000000000000000020000000000000000000800020000000000000000000010000000000000000000000000000000000000000000000000000008000000010000000000000000000000000000000000000000004000000000000000000000000000000000000002000000800000000000001000000000000000080000000000000020000000000000000000000000000000000000000000000000000000000000000000",
      "type": "0x2",
      "transactionHash": "0x20d2f0256c6a7c20c4ea744c73705a23555c03e2ad5ef016495e40b537ad9fe7",
      "transactionIndex": "0x71",
      "blockHash": "0x7761bea66400bf4510054e75803c1f8b4194356e02ab5d68e040df3656753beb",
      "blockNumber": "0x7259ad",
      "gasUsed": "0xfb91",
      "effectiveGasPrice": "0x2b64e0283",
      "from": "0xc77f7fed3b5cc8249adc428c5f44c9063b9734b4",
      "to": "0xbf4a322f1496e5c3d34a9bcdb4c60567b38c7de2",
      "contractAddress": null
    }
  ],
  "libraries": [],
  "pending": [],
  "returns": {},
  "timestamp": 1736910421,
  "chain": 11155111,
  "commit": "51a374b"
}