{
  "transactions": [
    {
      "hash": "0x8c0f4e603087cc9af33f06884155884f9a57a037c9c51870946c08a4218884c6",
      "transactionType": "CALL",
      "contractName": null,
      "contractAddress": "0x270e88f8683660553e8ba4eb2ad7c91a1710d769",
      "function": "sell(uint256)",
      "arguments": [
        "754046188233924535772"
      ],
      "transaction": {
        "from": "0xc77f7fed3b5cc8249adc428c5f44c9063b9734b4",
        "to": "0x270e88f8683660553e8ba4eb2ad7c91a1710d769",
        "gas": "0x16fec",
        "value": "0x0",
        "input": "0xe4849b32000000000000000000000000000000000000000000000028e07e35174067e5dc",
        "nonce": "0x6a0",
        "chainId": "0xaa36a7"
      },
      "additionalContracts": [],
      "isFixedGasLimit": false
    }
  ],
  "receipts": [
    {
      "status": "0x1",
      "cumulativeGasUsed": "0xdb0013",
      "logs": [
        {
          "address": "0x270e88f8683660553e8ba4eb2ad7c91a1710d769",
          "topics": [
            "0xddf252ad1be2c89b69c2b068fc378daa952ba7f163c4a11628f55a4df523b3ef",
            "0x000000000000000000000000c77f7fed3b5cc8249adc428c5f44c9063b9734b4",
            "0x0000000000000000000000000000000000000000000000000000000000000000"
          ],
          "data": "0x000000000000000000000000000000000000000000000028e07e35174067e5dc",
          "blockHash": "0x8012af05fb920def261135530b43e2380bf5b1df42a3b22eebb5295ead6600bf",
          "blockNumber": "0x7253a4",
          "transactionHash": "0x8c0f4e603087cc9af33f06884155884f9a57a037c9c51870946c08a4218884c6",
          "transactionIndex": "0x41",
          "logIndex": "0x80",
          "removed": false
        },
        {
          "address": "0x270e88f8683660553e8ba4eb2ad7c91a1710d769",
          "topics": [
            "0x4afcb4a87cdbd9974efdb92ee48bc8d7cd0ae4bf217004db3d080cbaee652ca7"
          ],
          "data": "0x000000000000000000000000000000000000000000000000000000006786ddb80000000000000000000000000000000000000000000000000004ae0187c5cf3a0000000000000000000000000000000000000000000000000dc829f4086d5c16",
          "blockHash": "0x8012af05fb920def261135530b43e2380bf5b1df42a3b22eebb5295ead6600bf",
          "blockNumber": "0x7253a4",
          "transactionHash": "0x8c0f4e603087cc9af33f06884155884f9a57a037c9c51870946c08a4218884c6",
          "transactionIndex": "0x41",
          "logIndex": "0x81",
          "removed": false
        }
      ],
      "logsBloom": "0x00000000000000000000000000000000000000000000000000000000000000000000000000000000000000000000000020000000000000004000000000000000000000000000000000000008000000000000000000000000000000000000000000000000020000000000000000000800020000000000000000000010000000000000000000010000000000000000000000000000000000000000010000000000000000000000000000000000000000004000000000000000000000000000000000000002000000800000000000000000000000000000080000008000000020000000000000000000000000000000000000000000000000000000000000000000",
      "type": "0x2",
      "transactionHash": "0x8c0f4e603087cc9af33f06884155884f9a57a037c9c51870946c08a4218884c6",
      "transactionIndex": "0x41",
      "blockHash": "0x8012af05fb920def261135530b43e2380bf5b1df42a3b22eebb5295ead6600bf",
      "blockNumber": "0x7253a4",
      "gasUsed": "0xfb93",
      "effectiveGasPrice": "0x1d4fe3272",
      "from": "0xc77f7fed3b5cc8249adc428c5f44c9063b9734b4",
      "to": "0x270e88f8683660553e8ba4eb2ad7c91a1710d769",
      "contractAddress": null
    }
  ],
  "libraries": [],
  "pending": [],
  "returns": {},
  "timestamp": 1736891833,
  "chain": 11155111,
  "commit": "51a374b"
}