{
  "transactions": [
    {
      "hash": "0x39d9f5e105f878ff0d44936ceb67c492c183d85db3e5a0cce2c8e560685a4e4e",
      "transactionType": "CALL",
      "contractName": null,
      "contractAddress": "0xbf4a322f1496e5c3d34a9bcdb4c60567b38c7de2",
      "function": "sell(uint256)",
      "arguments": [
        "978993324095819068031"
      ],
      "transaction": {
        "from": "0xc77f7fed3b5cc8249adc428c5f44c9063b9734b4",
        "to": "0xbf4a322f1496e5c3d34a9bcdb4c60567b38c7de2",
        "gas": "0x16fea",
        "value": "0x0",
        "input": "0xe4849b320000000000000000000000000000000000000000000000351242f9561229b27f",
        "nonce": "0xc63",
        "chainId": "0xaa36a7"
      },
      "additionalContracts": [],
      "isFixedGasLimit": false
    }
  ],
  "receipts": [
    {
      "status": "0x1",
      "cumulativeGasUsed": "0x9e125a",
      "logs": [
        {
          "address": "0xbf4a322f1496e5c3d34a9bcdb4c60567b38c7de2",
          "topics": [
            "0xddf252ad1be2c89b69c2b068fc378daa952ba7f163c4a11628f55a4df523b3ef",
            "0x000000000000000000000000c77f7fed3b5cc8249adc428c5f44c9063b9734b4",
            "0x0000000000000000000000000000000000000000000000000000000000000000"
          ],
          "data": "0x0000000000000000000000000000000000000000000000351242f9561229b27f",
          "blockHash": "0xe55839b1eadaceca943915b0e58297f9b4fb2ddf4d124c3cd4e2f57f6fc94e1f",
          "blockNumber": "0x725c9e",
          "transactionHash": "0x39d9f5e105f878ff0d44936ceb67c492c183d85db3e5a0cce2c8e560685a4e4e",
          "transactionIndex": "0x5a",
          "logIndex": "0x96",
          "removed": false
        },
        {
          "address": "0xbf4a322f1496e5c3d34a9bcdb4c60567b38c7de2",
          "topics": [
            "0x4afcb4a87cdbd9974efdb92ee48bc8d7cd0ae4bf217004db3d080cbaee652ca7"
          ],
          "data": "0x00000000000000000000000000000000000000000000000000000000678749dc00000000000000000000000000000000000000000000000000039a88fb773c140000000000000000000000000000000000000000000000000dc7e3dfb9cb9cac",
          "blockHash": "0xe55839b1eadaceca943915b0e58297f9b4fb2ddf4d124c3cd4e2f57f6fc94e1f",
          "blockNumber": "0x725c9e",
          "transactionHash": "0x39d9f5e105f878ff0d44936ceb67c492c183d85db3e5a0cce2c8e560685a4e4e",
          "transactionIndex": "0x5a",
          "logIndex": "0x97",
          "removed": false
        }
      ],
      "logsBloom": "0x00000000000000000000000000000000000000000000000000000000000000000000000000000000000000000000000000000000000000004000000000000000000000000000000000000008000000000000001000000000000000000000000000000000020000000000000000000800020000000000000000000010000000000000000000000000000000000000000000000000000008000000010000000000000000000000000000000000000000004000000000000000000000000000000000000002000000800000000000001000000000000000080000000000000020000000000000000000000000000000000000000000000000000000000000000000",
      "type": "0x2",
      "transactionHash": "0x39d9f5e105f878ff0d44936ceb67c492c183d85db3e5a0cce2c8e560685a4e4e",
      "transactionIndex": "0x5a",
      "blockHash": "0xe55839b1eadaceca943915b0e58297f9b4fb2ddf4d124c3cd4e2f57f6fc94e1f",
      "blockNumber": "0x725c9e",
      "gasUsed": "0xfb91",
      "effectiveGasPrice": "0x254f52b27",
      "from": "0xc77f7fed3b5cc8249adc428c5f44c9063b9734b4",
      "to": "0xbf4a322f1496e5c3d34a9bcdb4c60567b38c7de2",
      "contractAddress": null
    }
  ],
  "libraries": [],
  "pending": [],
  "returns": {},
  "timestamp": 1736919517,
  "chain": 11155111,
  "commit": "51a374b"
}