{
  "transactions": [
    {
      "hash": "0x3d728ceb3353ba821bbe2c9f76f75ecb6c4bececcca2ba9453eb3f111e4619d7",
      "transactionType": "CALL",
      "contractName": null,
      "contractAddress": "0x8aafd3ede9adb0ff97c7aebce82a919afb1c8764",
      "function": "sell(uint256)",
      "arguments": [
        "43651925619999440"
      ],
      "transaction": {
        "from": "0xc77f7fed3b5cc8249adc428c5f44c9063b9734b4",
        "to": "0x8aafd3ede9adb0ff97c7aebce82a919afb1c8764",
        "gas": "0x1724d",
        "value": "0x0",
        "input": "0xe4849b32000000000000000000000000000000000000000000000000009b1531f05782d0",
        "nonce": "0x11e7",
        "chainId": "0xaa36a7"
      },
      "additionalContracts": [],
      "isFixedGasLimit": false
    }
  ],
  "receipts": [
    {
      "status": "0x1",
      "cumulativeGasUsed": "0xb4ce88",
      "logs": [
        {
          "address": "0x8aafd3ede9adb0ff97c7aebce82a919afb1c8764",
          "topics": [
            "0xddf252ad1be2c89b69c2b068fc378daa952ba7f163c4a11628f55a4df523b3ef",
            "0x000000000000000000000000c77f7fed3b5cc8249adc428c5f44c9063b9734b4",
            "0x0000000000000000000000000000000000000000000000000000000000000000"
          ],
          "data": "0x0000000000000000000000000000000000000000000000000099d795e42dd9d5",
          "blockHash": "0x9a8ebf3d037377f7e1865f46b8e042e60360ea5cba924f03ffbfb173edd7f11a",
          "blockNumber": "0x7318bd",
          "transactionHash": "0x3d728ceb3353ba821bbe2c9f76f75ecb6c4bececcca2ba9453eb3f111e4619d7",
          "transactionIndex": "0x84",
          "logIndex": "0xb8",
          "removed": false
        },
        {
          "address": "0x8aafd3ede9adb0ff97c7aebce82a919afb1c8764",
          "topics": [
            "0xddf252ad1be2c89b69c2b068fc378daa952ba7f163c4a11628f55a4df523b3ef",
            "0x000000000000000000000000c77f7fed3b5cc8249adc428c5f44c9063b9734b4",
            "0x000000000000000000000000c77f7fed3b5cc8249adc428c5f44c9063b9734b4"
          ],
          "data": "0x00000000000000000000000000000000000000000000000000013d9c0c29a8fb",
          "blockHash": "0x9a8ebf3d037377f7e1865f46b8e042e60360ea5cba924f03ffbfb173edd7f11a",
          "blockNumber": "0x7318bd",
          "transactionHash": "0x3d728ceb3353ba821bbe2c9f76f75ecb6c4bececcca2ba9453eb3f111e4619d7",
          "transactionIndex": "0x84",
          "logIndex": "0xb9",
          "removed": false
        },
        {
          "address": "0x8aafd3ede9adb0ff97c7aebce82a919afb1c8764",
          "topics": [
            "0x4afcb4a87cdbd9974efdb92ee48bc8d7cd0ae4bf217004db3d080cbaee652ca7"
          ],
          "data": "0x00000000000000000000000000000000000000000000000000000000679025ac00000000000000000000000000000000000000000000000000052d92a76a1ff3000000000000000000000000000000000000000000000000000039dd22582358",
          "blockHash": "0x9a8ebf3d037377f7e1865f46b8e042e60360ea5cba924f03ffbfb173edd7f11a",
          "blockNumber": "0x7318bd",
          "transactionHash": "0x3d728ceb3353ba821bbe2c9f76f75ecb6c4bececcca2ba9453eb3f111e4619d7",
          "transactionIndex": "0x84",
          "logIndex": "0xba",
          "removed": false
        }
      ],
      "logsBloom": "0x00000000000000000000000000000000000000000600000000000000000000000000000000000000000000000000000000000000000000004000000000000000000000000000004000000008000000000000000000000000000000000000000000000000020000000000000000000800020000000000000000000010000000000000000000000000000000000000000000000000000000000000010000000000000000000000000000000000000000004000000000000000000000000000000000000002000000800000000000000000000000000000080000000000000020000000000000000000000000000000000000000000000000000000000000000000",
      "type": "0x2",
      "transactionHash": "0x3d728ceb3353ba821bbe2c9f76f75ecb6c4bececcca2ba9453eb3f111e4619d7",
      "transactionIndex": "0x84",
      "blockHash": "0x9a8ebf3d037377f7e1865f46b8e042e60360ea5cba924f03ffbfb173edd7f11a",
      "blockNumber": "0x7318bd",
      "gasUsed": "0xfd33",
      "effectiveGasPrice": "0x4a14b565",
      "from": "0xc77f7fed3b5cc8249adc428c5f44c9063b9734b4",
      "to": "0x8aafd3ede9adb0ff97c7aebce82a919afb1c8764",
      "contractAddress": null
    }
  ],
  "libraries": [],
  "pending": [],
  "returns": {},
  "timestamp": 1737500077,
  "chain": 11155111,
  "commit": "1d2fb70"
}