{
  "transactions": [
    {
      "hash": "0x712ef9f96bdc2a5038fc0434956ea774c9a453332dd6a42c70f9aa57a3ef4e26",
      "transactionType": "CALL",
      "contractName": null,
      "contractAddress": "0x5eb9cc76c3506942c1c0ead70e877dd5e4f00cb0",
      "function": "buy(address)",
      "arguments": [
        "0xC77f7fed3b5Cc8249aDc428c5F44C9063B9734b4"
      ],
      "transaction": {
        "from": "0xc77f7fed3b5cc8249adc428c5f44c9063b9734b4",
        "to": "0x5eb9cc76c3506942c1c0ead70e877dd5e4f00cb0",
        "gas": "0x1b30c",
        "value": "0xde0b6b3a7640000",
        "input": "0xf088d547000000000000000000000000c77f7fed3b5cc8249adc428c5f44c9063b9734b4",
        "nonce": "0x3ec",
        "chainId": "0xaa36a7"
      },
      "additionalContracts": [],
      "isFixedGasLimit": false
    }
  ],
  "receipts": [
    {
      "status": "0x1",
      "cumulativeGasUsed": "0x11802ee",
      "logs": [
        {
          "address": "0x5eb9cc76c3506942c1c0ead70e877dd5e4f00cb0",
          "topics": [
            "0xddf252ad1be2c89b69c2b068fc378daa952ba7f163c4a11628f55a4df523b3ef",
            "0x0000000000000000000000000000000000000000000000000000000000000000",
            "0x000000000000000000000000c77f7fed3b5cc8249adc428c5f44c9063b9734b4"
          ],
          "data": "0x000000000000000000000000000000000000000000000035750d82490ba40a1c",
          "blockHash": "0xdebd4e5d43a03b31464f9ac5c8416dcd37e185e71303f1461d457bc0c2713c37",
          "blockNumber": "0x724ff2",
          "transactionHash": "0x712ef9f96bdc2a5038fc0434956ea774c9a453332dd6a42c70f9aa57a3ef4e26",
          "transactionIndex": "0x5f",
          "logIndex": "0xcb",
          "removed": false
        },
        {
          "address": "0x5eb9cc76c3506942c1c0ead70e877dd5e4f00cb0",
          "topics": [
            "0xddf252ad1be2c89b69c2b068fc378daa952ba7f163c4a11628f55a4df523b3ef",
            "0x0000000000000000000000000000000000000000000000000000000000000000",
            "0x000000000000000000000000c77f7fed3b5cc8249adc428c5f44c9063b9734b4"
          ],
          "data": "0x0000000000000000000000000000000000000000000000002982e9077f6902e5",
          "blockHash": "0xdebd4e5d43a03b31464f9ac5c8416dcd37e185e71303f1461d457bc0c2713c37",
          "blockNumber": "0x724ff2",
          "transactionHash": "0x712ef9f96bdc2a5038fc0434956ea774c9a453332dd6a42c70f9aa57a3ef4e26",
          "transactionIndex": "0x5f",
          "logIndex": "0xcc",
          "removed": false
        },
        {
          "address": "0x5eb9cc76c3506942c1c0ead70e877dd5e4f00cb0",
          "topics": [
            "0x4afcb4a87cdbd9974efdb92ee48bc8d7cd0ae4bf217004db3d080cbaee652ca7"
          ],
          "data": "0x000000000000000000000000000000000000000000000000000000006786b12400000000000000000000000000000000000000000000000000039114abc34e710000000000000000000000000000000000000000000000000de0b6b3a7640000",
          "blockHash": "0xdebd4e5d43a03b31464f9ac5c8416dcd37e185e71303f1461d457bc0c2713c37",
          "blockNumber": "0x724ff2",
          "transactionHash": "0x712ef9f96bdc2a5038fc0434956ea774c9a453332dd6a42c70f9aa57a3ef4e26",
          "transactionIndex": "0x5f",
          "logIndex": "0xcd",
          "removed": false
        }
      ],
      "logsBloom": "0x00000000000000000000000000000000000000000000000000000000000000000000000000000000000000000000000000000000000000004000000000000000000000000000000000000008000000000000000000000000000000000000000000000000020000000000000004000800020000000000000000000010000000000000000000000000000000000000000000000000000000000000010000000000000000000000000000000000000000004000000000000000000000000000020000000002000000800000008000000000000000000000080000000000000020000000000000000000000000000000000000000000000000000000000000000000",
      "type": "0x2",
      "transactionHash": "0x712ef9f96bdc2a5038fc0434956ea774c9a453332dd6a42c70f9aa57a3ef4e26",
      "transactionIndex": "0x5f",
      "blockHash": "0xdebd4e5d43a03b31464f9ac5c8416dcd37e185e71303f1461d457bc0c2713c37",
      "blockNumber": "0x724ff2",
      "gasUsed": "0x13af8",
      "effectiveGasPrice": "0x37e78c4c8",
      "from": "0xc77f7fed3b5cc8249adc428c5f44c9063b9734b4",
      "to": "0x5eb9cc76c3506942c1c0ead70e877dd5e4f00cb0",
      "contractAddress": null
    }
  ],
  "libraries": [],
  "pending": [],
  "returns": {},
  "timestamp": 1736880421,
  "chain": 11155111,
  "commit": "51a374b"
}