{
  "transactions": [
    {
      "hash": "0xf8cf75e6a8f0093e915eaa6a366cd97a368423985f27c382679b1bf741c634b8",
      "transactionType": "CALL",
      "contractName": null,
      "contractAddress": "0xbf4a322f1496e5c3d34a9bcdb4c60567b38c7de2",
      "function": "buy(address)",
      "arguments": [
        "0xC77f7fed3b5Cc8249aDc428c5F44C9063B9734b4"
      ],
      "transaction": {
        "from": "0xc77f7fed3b5cc8249adc428c5f44c9063b9734b4",
        "to": "0xbf4a322f1496e5c3d34a9bcdb4c60567b38c7de2",
        "gas": "0x1b309",
        "value": "0xde0b6b3a7640000",
        "input": "0xf088d547000000000000000000000000c77f7fed3b5cc8249adc428c5f44c9063b9734b4",
        "nonce": "0xa9a",
        "chainId": "0xaa36a7"
      },
      "additionalContracts": [],
      "isFixedGasLimit": false
    }
  ],
  "receipts": [
    {
      "status": "0x1",
      "cumulativeGasUsed": "0xace69c",
      "logs": [
        {
          "address": "0xbf4a322f1496e5c3d34a9bcdb4c60567b38c7de2",
          "topics": [
            "0xddf252ad1be2c89b69c2b068fc378daa952ba7f163c4a11628f55a4df523b3ef",
            "0x0000000000000000000000000000000000000000000000000000000000000000",
            "0x000000000000000000000000c77f7fed3b5cc8249adc428c5f44c9063b9734b4"
          ],
          "data": "0x0000000000000000000000000000000000000000000000353e3dc8d3d85c54f1",
          "blockHash": "0x81b32c0f4dcf99dcdfee575a5eaaa51e17f2dc2bed6834ce4c76d6e015b875d7",
          "blockNumber": "0x725a82",
          "transactionHash": "0xf8cf75e6a8f0093e915eaa6a366cd97a368423985f27c382679b1bf741c634b8",
          "transactionIndex": "0x5c",
          "logIndex": "0x86",
          "removed": false
        },
        {
          "address": "0xbf4a322f1496e5c3d34a9bcdb4c60567b38c7de2",
          "topics": [
            "0xddf252ad1be2c89b69c2b068fc378daa952ba7f163c4a11628f55a4df523b3ef",
            "0x0000000000000000000000000000000000000000000000000000000000000000",
            "0x000000000000000000000000c77f7fed3b5cc8249adc428c5f44c9063b9734b4"
          ],
          "data": "0x000000000000000000000000000000000000000000000000295858eaa8aec866",
          "blockHash": "0x81b32c0f4dcf99dcdfee575a5eaaa51e17f2dc2bed6834ce4c76d6e015b875d7",
          "blockNumber": "0x725a82",
          "transactionHash": "0xf8cf75e6a8f0093e915eaa6a366cd97a368423985f27c382679b1bf741c634b8",
          "transactionIndex": "0x5c",
          "logIndex": "0x87",
          "removed": false
        },
        {
          "address": "0xbf4a322f1496e5c3d34a9bcdb4c60567b38c7de2",
          "topics": [
            "0x4afcb4a87cdbd9974efdb92ee48bc8d7cd0ae4bf217004db3d080cbaee652ca7"
          ],
          "data": "0x0000000000000000000000000000000000000000000000000000000067873068000000000000000000000000000000000000000000000000000394c2f2a29ec80000000000000000000000000000000000000000000000000de0b6b3a7640000",
          "blockHash": "0x81b32c0f4dcf99dcdfee575a5eaaa51e17f2dc2bed6834ce4c76d6e015b875d7",
          "blockNumber": "0x725a82",
          "transactionHash": "0xf8cf75e6a8f0093e915eaa6a366cd97a368423985f27c382679b1bf741c634b8",
          "transactionIndex": "0x5c",
          "logIndex": "0x88",
          "removed": false
        }
      ],
      "logsBloom": "0x00000000000000000000000000000000000000000000000000000000000000000000000000000000000000000000000000000000000000004000000000000000000000000000000000000008000000000000001000000000000000000000000000000000020000000000000000000800020000000000000000000010000000000000000000000000000000000000000000000000000008000000010000000000000000000000000000000000000000004000000000000000000000000000000000000002000000800000000000001000000000000000080000000000000020000000000000000000000000000000000000000000000000000000000000000000",
      "type": "0x2",
      "transactionHash": "0xf8cf75e6a8f0093e915eaa6a366cd97a368423985f27c382679b1bf741c634b8",
      "transactionIndex": "0x5c",
      "blockHash": "0x81b32c0f4dcf99dcdfee575a5eaaa51e17f2dc2bed6834ce4c76d6e015b875d7",
      "blockNumber": "0x725a82",
      "gasUsed": "0x13af6",
      "effectiveGasPrice": "0x1e610edfb",
      "from": "0xc77f7fed3b5cc8249adc428c5f44c9063b9734b4",
      "to": "0xbf4a322f1496e5c3d34a9bcdb4c60567b38c7de2",
      "contractAddress": null
    }
  ],
  "libraries": [],
  "pending": [],
  "returns": {},
  "timestamp": 1736913001,
  "chain": 11155111,
  "commit": "51a374b"
}