{
  "transactions": [
    {
      "hash": "0xd3162ea302201f6829213f595189db12e7a15ce13f9bfd34c6594a8ac3a16ce5",
      "transactionType": "CALL",
      "contractName": null,
      "contractAddress": "0xbf4a322f1496e5c3d34a9bcdb4c60567b38c7de2",
      "function": "buy(address)",
      "arguments": [
        "0xC77f7fed3b5Cc8249aDc428c5F44C9063B9734b4"
      ],
      "transaction": {
        "from": "0xc77f7fed3b5cc8249adc428c5f44c9063b9734b4",
        "to": "0xbf4a322f1496e5c3d34a9bcdb4c60567b38c7de2",
        "gas": "0x1b309",
        "value": "0xde0b6b3a7640000",
        "input": "0xf088d547000000000000000000000000c77f7fed3b5cc8249adc428c5f44c9063b9734b4",
        "nonce": "0xbb0",
        "chainId": "0xaa36a7"
      },
      "additionalContracts": [],
      "isFixedGasLimit": false
    }
  ],
  "receipts": [
    {
      "status": "0x1",
      "cumulativeGasUsed": "0x15055be",
      "logs": [
        {
          "address": "0xbf4a322f1496e5c3d34a9bcdb4c60567b38c7de2",
          "topics": [
            "0xddf252ad1be2c89b69c2b068fc378daa952ba7f163c4a11628f55a4df523b3ef",
            "0x0000000000000000000000000000000000000000000000000000000000000000",
            "0x000000000000000000000000c77f7fed3b5cc8249adc428c5f44c9063b9734b4"
          ],
          "data": "0x0000000000000000000000000000000000000000000000350a40fabe4e15f96e",
          "blockHash": "0xa2189c616dbe476c41255a145e55cb8d882423398ae431e0c17328f8cf350f18",
          "blockNumber": "0x725bc9",
          "transactionHash": "0xd3162ea302201f6829213f595189db12e7a15ce13f9bfd34c6594a8ac3a16ce5",
          "transactionIndex": "0x81",
          "logIndex": "0xf1",
          "removed": false
        },
        {
          "address": "0xbf4a322f1496e5c3d34a9bcdb4c60567b38c7de2",
          "topics": [
            "0xddf252ad1be2c89b69c2b068fc378daa952ba7f163c4a11628f55a4df523b3ef",
            "0x0000000000000000000000000000000000000000000000000000000000000000",
            "0x000000000000000000000000c77f7fed3b5cc8249adc428c5f44c9063b9734b4"
          ],
          "data": "0x000000000000000000000000000000000000000000000000292ffa2cf2cb88bc",
          "blockHash": "0xa2189c616dbe476c41255a145e55cb8d882423398ae431e0c17328f8cf350f18",
          "blockNumber": "0x725bc9",
          "transactionHash": "0xd3162ea302201f6829213f595189db12e7a15ce13f9bfd34c6594a8ac3a16ce5",
          "transactionIndex": "0x81",
          "logIndex": "0xf2",
          "removed": false
        },
        {
          "address": "0xbf4a322f1496e5c3d34a9bcdb4c60567b38c7de2",
          "topics": [
            "0x4afcb4a87cdbd9974efdb92ee48bc8d7cd0ae4bf217004db3d080cbaee652ca7"
          ],
          "data": "0x0000000000000000000000000000000000000000000000000000000067873fc80000000000000000000000000000000000000000000000000003984582103dad0000000000000000000000000000000000000000000000000de0b6b3a7640000",
          "blockHash": "0xa2189c616dbe476c41255a145e55cb8d882423398ae431e0c17328f8cf350f18",
          "blockNumber": "0x725bc9",
          "transactionHash": "0xd3162ea302201f6829213f595189db12e7a15ce13f9bfd34c6594a8ac3a16ce5",
          "transactionIndex": "0x81",
          "logIndex": "0xf3",
          "removed": false
        }
      ],
      "logsBloom": "0x00000000000000000000000000000000000000000000000000000000000000000000000000000000000000000000000000000000000000004000000000000000000000000000000000000008000000000000001000000000000000000000000000000000020000000000000000000800020000000000000000000010000000000000000000000000000000000000000000000000000008000000010000000000000000000000000000000000000000004000000000000000000000000000000000000002000000800000000000001000000000000000080000000000000020000000000000000000000000000000000000000000000000000000000000000000",
      "type": "0x2",
      "transactionHash": "0xd3162ea302201f6829213f595189db12e7a15ce13f9bfd34c6594a8ac3a16ce5",
      "transactionIndex": "0x81",
      "blockHash": "0xa2189c616dbe476c41255a145e55cb8d882423398ae431e0c17328f8cf350f18",
      "blockNumber": "0x725bc9",
      "gasUsed": "0x13af6",
      "effectiveGasPrice": "0x5386cd2d",
      "from": "0xc77f7fed3b5cc8249adc428c5f44c9063b9734b4",
      "to": "0xbf4a322f1496e5c3d34a9bcdb4c60567b38c7de2",
      "contractAddress": null
    }
  ],
  "libraries": [],
  "pending": [],
  "returns": {},
  "timestamp": 1736916936,
  "chain": 11155111,
  "commit": "51a374b"
}