{
  "transactions": [
    {
      "hash": "0xc98b01de9703a07d9a38b827687c40b4b643bd3abe3aa6cea23f189820022847",
      "transactionType": "CALL",
      "contractName": null,
      "contractAddress": "0x8aafd3ede9adb0ff97c7aebce82a919afb1c8764",
      "function": "sell(uint256)",
      "arguments": [
        "628943"
      ],
      "transaction": {
        "from": "0xc77f7fed3b5cc8249adc428c5f44c9063b9734b4",
        "to": "0x8aafd3ede9adb0ff97c7aebce82a919afb1c8764",
        "gas": "0x16208",
        "value": "0x0",
        "input": "0xe4849b3200000000000000000000000000000000000000000000000000000000000998cf",
        "nonce": "0x133b",
        "chainId": "0xaa36a7"
      },
      "additionalContracts": [],
      "isFixedGasLimit": false
    }
  ],
  "receipts": [
    {
      "status": "0x1",
      "cumulativeGasUsed": "0x828e93",
      "logs": [
        {
          "address": "0x8aafd3ede9adb0ff97c7aebce82a919afb1c8764",
          "topics": [
            "0xddf252ad1be2c89b69c2b068fc378daa952ba7f163c4a11628f55a4df523b3ef",
            "0x000000000000000000000000c77f7fed3b5cc8249adc428c5f44c9063b9734b4",
            "0x0000000000000000000000000000000000000000000000000000000000000000"
          ],
          "data": "0x0000000000000000000000000000000000000000000000000000000000098528",
          "blockHash": "0xd4874bc3eb7c78dc6eaeee9fd94eff544dd58d80628420d577cfa8c70edc0b89",
          "blockNumber": "0x731a53",
          "transactionHash": "0xc98b01de9703a07d9a38b827687c40b4b643bd3abe3aa6cea23f189820022847",
          "transactionIndex": "0x8f",
          "logIndex": "0x80",
          "removed": false
        },
        {
          "address": "0x8aafd3ede9adb0ff97c7aebce82a919afb1c8764",
          "topics": [
            "0xddf252ad1be2c89b69c2b068fc378daa952ba7f163c4a11628f55a4df523b3ef",
            "0x000000000000000000000000c77f7fed3b5cc8249adc428c5f44c9063b9734b4",
            "0x000000000000000000000000c77f7fed3b5cc8249adc428c5f44c9063b9734b4"
          ],
          "data": "0x00000000000000000000000000000000000000000000000000000000000013a7",
          "blockHash": "0xd4874bc3eb7c78dc6eaeee9fd94eff544dd58d80628420d577cfa8c70edc0b89",
          "blockNumber": "0x731a53",
          "transactionHash": "0xc98b01de9703a07d9a38b827687c40b4b643bd3abe3aa6cea23f189820022847",
          "transactionIndex": "0x8f",
          "logIndex": "0x81",
          "removed": false
        },
        {
          "address": "0x8aafd3ede9adb0ff97c7aebce82a919afb1c8764",
          "topics": [
            "0x4afcb4a87cdbd9974efdb92ee48bc8d7cd0ae4bf217004db3d080cbaee652ca7"
          ],
          "data": "0x00000000000000000000000000000000000000000000000000000000679038b4000000000000000000000000000000000000000000000000000bdd61fa15bc4b0000000000000000000000000000000000000000000000000000000000000834",
          "blockHash": "0xd4874bc3eb7c78dc6eaeee9fd94eff544dd58d80628420d577cfa8c70edc0b89",
          "blockNumber": "0x731a53",
          "transactionHash": "0xc98b01de9703a07d9a38b827687c40b4b643bd3abe3aa6cea23f189820022847",
          "transactionIndex": "0x8f",
          "logIndex": "0x82",
          "removed": false
        }
      ],
      "logsBloom": "0x00000000000000000000000000000000000000000600000000000000000000000000000000000000000000000000000000000000000000004000000000000000000000000000004000000008000000000000000000000000000000000000000000000000020000000000000000000800020000000000000000000010000000000000000000000000000000000000000000000000000000000000010000000000000000000000000000000000000000004000000000000000000000000000000000000002000000800000000000000000000000000000080000000000000020000000000000000000000000000000000000000000000000000000000000000000",
      "type": "0x2",
      "transactionHash": "0xc98b01de9703a07d9a38b827687c40b4b643bd3abe3aa6cea23f189820022847",
      "transactionIndex": "0x8f",
      "blockHash": "0xd4874bc3eb7c78dc6eaeee9fd94eff544dd58d80628420d577cfa8c70edc0b89",
      "blockNumber": "0x731a53",
      "gasUsed": "0xf213",
      "effectiveGasPrice": "0x496cb0ce",
      "from": "0xc77f7fed3b5cc8249adc428c5f44c9063b9734b4",
      "to": "0x8aafd3ede9adb0ff97c7aebce82a919afb1c8764",
      "contractAddress": null
    }
  ],
  "libraries": [],
  "pending": [],
  "returns": {},
  "timestamp": 1737504949,
  "chain": 11155111,
  "commit": "1d2fb70"
}