{
  "transactions": [
    {
      "hash": "0x1131a0df08052fb136a24823dead01eaada49c4f2866a16f1c48470ddf8bec1d",
      "transactionType": "CALL",
      "contractName": null,
      "contractAddress": "0x8aafd3ede9adb0ff97c7aebce82a919afb1c8764",
      "function": "sell(uint256)",
      "arguments": [
        "2827854426789"
      ],
      "transaction": {
        "from": "0xc77f7fed3b5cc8249adc428c5f44c9063b9734b4",
        "to": "0x8aafd3ede9adb0ff97c7aebce82a919afb1c8764",
        "gas": "0x15daa",
        "value": "0x0",
        "input": "0xe4849b3200000000000000000000000000000000000000000000000000000292694232a5",
        "nonce": "0x117b",
        "chainId": "0xaa36a7"
      },
      "additionalContracts": [],
      "isFixedGasLimit": false
    }
  ],
  "receipts": [
    {
      "status": "0x1",
      "cumulativeGasUsed": "0x213ba8e",
      "logs": [
        {
          "address": "0x8aafd3ede9adb0ff97c7aebce82a919afb1c8764",
          "topics": [
            "0xddf252ad1be2c89b69c2b068fc378daa952ba7f163c4a11628f55a4df523b3ef",
            "0x000000000000000000000000c77f7fed3b5cc8249adc428c5f44c9063b9734b4",
            "0x0000000000000000000000000000000000000000000000000000000000000000"
          ],
          "data": "0x0000000000000000000000000000000000000000000000000000028d24d51fcf",
          "blockHash": "0xa212885aba0814f759ead1571e15cc59414fbb6ed29bbb64b5d43cf7febdaa9c",
          "blockNumber": "0x73183c",
          "transactionHash": "0x1131a0df08052fb136a24823dead01eaada49c4f2866a16f1c48470ddf8bec1d",
          "transactionIndex": "0x6a",
          "logIndex": "0x10ec",
          "removed": false
        },
        {
          "address": "0x8aafd3ede9adb0ff97c7aebce82a919afb1c8764",
          "topics": [
            "0xddf252ad1be2c89b69c2b068fc378daa952ba7f163c4a11628f55a4df523b3ef",
            "0x000000000000000000000000c77f7fed3b5cc8249adc428c5f44c9063b9734b4",
            "0x000000000000000000000000c77f7fed3b5cc8249adc428c5f44c9063b9734b4"
          ],
          "data": "0x00000000000000000000000000000000000000000000000000000005446d12d6",
          "blockHash": "0xa212885aba0814f759ead1571e15cc59414fbb6ed29bbb64b5d43cf7febdaa9c",
          "blockNumber": "0x73183c",
          "transactionHash": "0x1131a0df08052fb136a24823dead01eaada49c4f2866a16f1c48470ddf8bec1d",
          "transactionIndex": "0x6a",
          "logIndex": "0x10ed",
          "removed": false
        },
        {
          "address": "0x8aafd3ede9adb0ff97c7aebce82a919afb1c8764",
          "topics": [
            "0x4afcb4a87cdbd9974efdb92ee48bc8d7cd0ae4bf217004db3d080cbaee652ca7"
          ],
          "data": "0x0000000000000000000000000000000000000000000000000000000067901f9400000000000000000000000000000000000000000000000000051d974b7c882400000000000000000000000000000000000000000000000000000000f2b39cce",
          "blockHash": "0xa212885aba0814f759ead1571e15cc59414fbb6ed29bbb64b5d43cf7febdaa9c",
          "blockNumber": "0x73183c",
          "transactionHash": "0x1131a0df08052fb136a24823dead01eaada49c4f2866a16f1c48470ddf8bec1d",
          "transactionIndex": "0x6a",
          "logIndex": "0x10ee",
          "removed": false
        }
      ],
      "logsBloom": "0x00000000000000000000000000000000000000000600000000000000000000000000000000000000000000000000000000000000000000004000000000000000000000000000004000000008000000000000000000000000000000000000000000000000020000000000000000000800020000000000000000000010000000000000000000000000000000000000000000000000000000000000010000000000000000000000000000000000000000004000000000000000000000000000000000000002000000800000000000000000000000000000080000000000000020000000000000000000000000000000000000000000000000000000000000000000",
      "type": "0x2",
      "transactionHash": "0x1131a0df08052fb136a24823dead01eaada49c4f2866a16f1c48470ddf8bec1d",
      "transactionIndex": "0x6a",
      "blockHash": "0xa212885aba0814f759ead1571e15cc59414fbb6ed29bbb64b5d43cf7febdaa9c",
      "blockNumber": "0x73183c",
      "gasUsed": "0xfd27",
      "effectiveGasPrice": "0x3f9abe31",
      "from": "0xc77f7fed3b5cc8249adc428c5f44c9063b9734b4",
      "to": "0x8aafd3ede9adb0ff97c7aebce82a919afb1c8764",
      "contractAddress": null
    }
  ],
  "libraries": [],
  "pending": [],
  "returns": {},
  "timestamp": 1737498516,
  "chain": 11155111,
  "commit": "1d2fb70"
}