{
  "transactions": [
    {
      "hash": "0x4ab0ae5d63a90ab3085b46e50b2b36e03f4ffe8b06391ac8a5aa9f6593f3cb79",
      "transactionType": "CALL",
      "contractName": null,
      "contractAddress": "0x5eb9cc76c3506942c1c0ead70e877dd5e4f00cb0",
      "function": "buy(address)",
      "arguments": [
        "0xC77f7fed3b5Cc8249aDc428c5F44C9063B9734b4"
      ],
      "transaction": {
        "from": "0xc77f7fed3b5cc8249adc428c5f44c9063b9734b4",
        "to": "0x5eb9cc76c3506942c1c0ead70e877dd5e4f00cb0",
        "gas": "0x156c8",
        "value": "0xde0b6b3a7640000",
        "input": "0xf088d547000000000000000000000000c77f7fed3b5cc8249adc428c5f44c9063b9734b4",
        "nonce": "0x214",
        "chainId": "0xaa36a7"
      },
      "additionalContracts": [],
      "isFixedGasLimit": false
    }
  ],
  "receipts": [
    {
      "status": "0x1",
      "cumulativeGasUsed": "0xc91a2d",
      "logs": [
        {
          "address": "0x5eb9cc76c3506942c1c0ead70e877dd5e4f00cb0",
          "topics": [
            "0xddf252ad1be2c89b69c2b068fc378daa952ba7f163c4a11628f55a4df523b3ef",
            "0x0000000000000000000000000000000000000000000000000000000000000000",
            "0x000000000000000000000000c77f7fed3b5cc8249adc428c5f44c9063b9734b4"
          ],
          "data": "0x00000000000000000000000000000000000000000000003584b4db538895576c",
          "blockHash": "0x49bdc56d38da5bc5ffb261b650329f2817be74ea5e4dc5359e6075f33969dcf6",
          "blockNumber": "0x724b30",
          "transactionHash": "0x4ab0ae5d63a90ab3085b46e50b2b36e03f4ffe8b06391ac8a5aa9f6593f3cb79",
          "transactionIndex": "0x89",
          "logIndex": "0xca",
          "removed": false
        },
        {
          "address": "0x5eb9cc76c3506942c1c0ead70e877dd5e4f00cb0",
          "topics": [
            "0xddf252ad1be2c89b69c2b068fc378daa952ba7f163c4a11628f55a4df523b3ef",
            "0x0000000000000000000000000000000000000000000000000000000000000000",
            "0x000000000000000000000000c77f7fed3b5cc8249adc428c5f44c9063b9734b4"
          ],
          "data": "0x000000000000000000000000000000000000000000000000298f10df1e617921",
          "blockHash": "0x49bdc56d38da5bc5ffb261b650329f2817be74ea5e4dc5359e6075f33969dcf6",
          "blockNumber": "0x724b30",
          "transactionHash": "0x4ab0ae5d63a90ab3085b46e50b2b36e03f4ffe8b06391ac8a5aa9f6593f3cb79",
          "transactionIndex": "0x89",
          "logIndex": "0xcb",
          "removed": false
        },
        {
          "address": "0x5eb9cc76c3506942c1c0ead70e877dd5e4f00cb0",
          "topics": [
            "0x4afcb4a87cdbd9974efdb92ee48bc8d7cd0ae4bf217004db3d080cbaee652ca7"
          ],
          "data": "0x00000000000000000000000000000000000000000000000000000000678677e8000000000000000000000000000000000000000000000000000390099a22da6e0000000000000000000000000000000000000000000000000de0b6b3a7640000",
          "blockHash": "0x49bdc56d38da5bc5ffb261b650329f2817be74ea5e4dc5359e6075f33969dcf6",
          "blockNumber": "0x724b30",
          "transactionHash": "0x4ab0ae5d63a90ab3085b46e50b2b36e03f4ffe8b06391ac8a5aa9f6593f3cb79",
          "transactionIndex": "0x89",
          "logIndex": "0xcc",
          "removed": false
        }
      ],
      "logsBloom": "0x00000000000000000000000000000000000000000000000000000000000000000000000000000000000000000000000000000000000000004000000000000000000000000000000000000008000000000000000000000000000000000000000000000000020000000000000004000800020000000000000000000010000000000000000000000000000000000000000000000000000000000000010000000000000000000000000000000000000000004000000000000000000000000000020000000002000000800000008000000000000000000000080000000000000020000000000000000000000000000000000000000000000000000000000000000000",
      "type": "0x2",
      "transactionHash": "0x4ab0ae5d63a90ab3085b46e50b2b36e03f4ffe8b06391ac8a5aa9f6593f3cb79",
      "transactionIndex": "0x89",
      "blockHash": "0x49bdc56d38da5bc5ffb261b650329f2817be74ea5e4dc5359e6075f33969dcf6",
      "blockNumber": "0x724b30",
      "gasUsed": "0xf82c",
      "effectiveGasPrice": "0x4cb7457c4",
      "from": "0xc77f7fed3b5cc8249adc428c5f44c9063b9734b4",
      "to": "0x5eb9cc76c3506942c1c0ead70e877dd5e4f00cb0",
      "contractAddress": null
    }
  ],
  "libraries": [],
  "pending": [],
  "returns": {},
  "timestamp": 1736865770,
  "chain": 11155111,
  "commit": "51a374b"
}