{
  "transactions": [
    {
      "hash": "0x693cf835b53da4c594ed39d85156cdfa4777a623abd01b02819a79177d90d642",
      "transactionType": "CALL",
      "contractName": null,
      "contractAddress": "0x8aafd3ede9adb0ff97c7aebce82a919afb1c8764",
      "function": "sell(uint256)",
      "arguments": [
        "516806"
      ],
      "transaction": {
        "from": "0xc77f7fed3b5cc8249adc428c5f44c9063b9734b4",
        "to": "0x8aafd3ede9adb0ff97c7aebce82a919afb1c8764",
        "gas": "0x16208",
        "value": "0x0",
        "input": "0xe4849b32000000000000000000000000000000000000000000000000000000000007e2c6",
        "nonce": "0x141c",
        "chainId": "0xaa36a7"
      },
      "additionalContracts": [],
      "isFixedGasLimit": false
    }
  ],
  "receipts": [
    {
      "status": "0x1",
      "cumulativeGasUsed": "0xebfaaf",
      "logs": [
        {
          "address": "0x8aafd3ede9adb0ff97c7aebce82a919afb1c8764",
          "topics": [
            "0xddf252ad1be2c89b69c2b068fc378daa952ba7f163c4a11628f55a4df523b3ef",
            "0x000000000000000000000000c77f7fed3b5cc8249adc428c5f44c9063b9734b4",
            "0x0000000000000000000000000000000000000000000000000000000000000000"
          ],
          "data": "0x000000000000000000000000000000000000000000000000000000000007d2a0",
          "blockHash": "0x9c27a18214fce58c6da70d2fee9bc647d4edaf2aa6851480f09bd904117cca96",
          "blockNumber": "0x731b57",
          "transactionHash": "0x693cf835b53da4c594ed39d85156cdfa4777a623abd01b02819a79177d90d642",
          "transactionIndex": "0x8a",
          "logIndex": "0x98",
          "removed": false
        },
        {
          "address": "0x8aafd3ede9adb0ff97c7aebce82a919afb1c8764",
          "topics": [
            "0xddf252ad1be2c89b69c2b068fc378daa952ba7f163c4a11628f55a4df523b3ef",
            "0x000000000000000000000000c77f7fed3b5cc8249adc428c5f44c9063b9734b4",
            "0x000000000000000000000000c77f7fed3b5cc8249adc428c5f44c9063b9734b4"
          ],
          "data": "0x0000000000000000000000000000000000000000000000000000000000001026",
          "blockHash": "0x9c27a18214fce58c6da70d2fee9bc647d4edaf2aa6851480f09bd904117cca96",
          "blockNumber": "0x731b57",
          "transactionHash": "0x693cf835b53da4c594ed39d85156cdfa4777a623abd01b02819a79177d90d642",
          "transactionIndex": "0x8a",
          "logIndex": "0x99",
          "removed": false
        },
        {
          "address": "0x8aafd3ede9adb0ff97c7aebce82a919afb1c8764",
          "topics": [
            "0x4afcb4a87cdbd9974efdb92ee48bc8d7cd0ae4bf217004db3d080cbaee652ca7"
          ],
          "data": "0x00000000000000000000000000000000000000000000000000000000679044e4000000000000000000000000000000000000000000000000000e6b1e3d5821ad0000000000000000000000000000000000000000000000000000000000000831",
          "blockHash": "0x9c27a18214fce58c6da70d2fee9bc647d4edaf2aa6851480f09bd904117cca96",
          "blockNumber": "0x731b57",
          "transactionHash": "0x693cf835b53da4c594ed39d85156cdfa4777a623abd01b02819a79177d90d642",
          "transactionIndex": "0x8a",
          "logIndex": "0x9a",
          "removed": false
        }
      ],
      "logsBloom": "0x00000000000000000000000000000000000000000600000000000000000000000000000000000000000000000000000000000000000000004000000000000000000000000000004000000008000000000000000000000000000000000000000000000000020000000000000000000800020000000000000000000010000000000000000000000000000000000000000000000000000000000000010000000000000000000000000000000000000000004000000000000000000000000000000000000002000000800000000000000000000000000000080000000000000020000000000000000000000000000000000000000000000000000000000000000000",
      "type": "0x2",
      "transactionHash": "0x693cf835b53da4c594ed39d85156cdfa4777a623abd01b02819a79177d90d642",
      "transactionIndex": "0x8a",
      "blockHash": "0x9c27a18214fce58c6da70d2fee9bc647d4edaf2aa6851480f09bd904117cca96",
      "blockNumber": "0x731b57",
      "gasUsed": "0xf213",
      "effectiveGasPrice": "0xea1eedcc",
      "from": "0xc77f7fed3b5cc8249adc428c5f44c9063b9734b4",
      "to": "0x8aafd3ede9adb0ff97c7aebce82a919afb1c8764",
      "contractAddress": null
    }
  ],
  "libraries": [],
  "pending": [],
  "returns": {},
  "timestamp": 1737508070,
  "chain": 11155111,
  "commit": "1d2fb70"
}