{
  "transactions": [
    {
      "hash": "0xde57eb5a1669843c3f19b40eca5d042bf0fa0d182b498c4ae35e4e6fa06d6688",
      "transactionType": "CALL",
      "contractName": null,
      "contractAddress": "0x270e88f8683660553e8ba4eb2ad7c91a1710d769",
      "function": "sell(uint256)",
      "arguments": [
        "981322984019393129859"
      ],
      "transaction": {
        "from": "0xc77f7fed3b5cc8249adc428c5f44c9063b9734b4",
        "to": "0x270e88f8683660553e8ba4eb2ad7c91a1710d769",
        "gas": "0x16fec",
        "value": "0x0",
        "input": "0xe4849b32000000000000000000000000000000000000000000000035329796b192422d83",
        "nonce": "0x51f",
        "chainId": "0xaa36a7"
      },
      "additionalContracts": [],
      "isFixedGasLimit": false
    }
  ],
  "receipts": [
    {
      "status": "0x1",
      "cumulativeGasUsed": "0x121b330",
      "logs": [
        {
          "address": "0x270e88f8683660553e8ba4eb2ad7c91a1710d769",
          "topics": [
            "0xddf252ad1be2c89b69c2b068fc378daa952ba7f163c4a11628f55a4df523b3ef",
            "0x000000000000000000000000c77f7fed3b5cc8249adc428c5f44c9063b9734b4",
            "0x0000000000000000000000000000000000000000000000000000000000000000"
          ],
          "data": "0x000000000000000000000000000000000000000000000035329796b192422d83",
          "blockHash": "0xf0e0dd07a62a7ed676bf3adf023105a77abaf3f09c256dd8646db847453fd55b",
          "blockNumber": "0x7251b8",
          "transactionHash": "0xde57eb5a1669843c3f19b40eca5d042bf0fa0d182b498c4ae35e4e6fa06d6688",
          "transactionIndex": "0x61",
          "logIndex": "0x98",
          "removed": false
        },
        {
          "address": "0x270e88f8683660553e8ba4eb2ad7c91a1710d769",
          "topics": [
            "0x4afcb4a87cdbd9974efdb92ee48bc8d7cd0ae4bf217004db3d080cbaee652ca7"
          ],
          "data": "0x000000000000000000000000000000000000000000000000000000006786c6840000000000000000000000000000000000000000000000000003989cc17112270000000000000000000000000000000000000000000000000dc841605f06feac",
          "blockHash": "0xf0e0dd07a62a7ed676bf3adf023105a77abaf3f09c256dd8646db847453fd55b",
          "blockNumber": "0x7251b8",
          "transactionHash": "0xde57eb5a1669843c3f19b40eca5d042bf0fa0d182b498c4ae35e4e6fa06d6688",
          "transactionIndex": "0x61",
          "logIndex": "0x99",
          "removed": false
        }
      ],
      "logsBloom": "0x00000000000000000000000000000000000000000000000000000000000000000000000000000000000000000000000020000000000000004000000000000000000000000000000000000008000000000000000000000000000000000000000000000000020000000000000000000800020000000000000000000010000000000000000000010000000000000000000000000000000000000000010000000000000000000000000000000000000000004000000000000000000000000000000000000002000000800000000000000000000000000000080000008000000020000000000000000000000000000000000000000000000000000000000000000000",
      "type": "0x2",
      "transactionHash": "0xde57eb5a1669843c3f19b40eca5d042bf0fa0d182b498c4ae35e4e6fa06d6688",
      "transactionIndex": "0x61",
      "blockHash": "0xf0e0dd07a62a7ed676bf3adf023105a77abaf3f09c256dd8646db847453fd55b",
      "blockNumber": "0x7251b8",
      "gasUsed": "0xfb93",
      "effectiveGasPrice": "0x40b0926bf",
      "from": "0xc77f7fed3b5cc8249adc428c5f44c9063b9734b4",
      "to": "0x270e88f8683660553e8ba4eb2ad7c91a1710d769",
      "contractAddress": null
    }
  ],
  "libraries": [],
  "pending": [],
  "returns": {},
  "timestamp": 1736885894,
  "chain": 11155111,
  "commit": "51a374b"
}