{
  "transactions": [
    {
      "hash": "0x5ab45105cb4dd79a59855c36f91f086b4b281fff8a39677a3e49c6ade2d46553",
      "transactionType": "CALL",
      "contractName": null,
      "contractAddress": "0x5eb9cc76c3506942c1c0ead70e877dd5e4f00cb0",
      "function": "sell(uint256)",
      "arguments": [
        "989146851178644620476"
      ],
      "transaction": {
        "from": "0xc77f7fed3b5cc8249adc428c5f44c9063b9734b4",
        "to": "0x5eb9cc76c3506942c1c0ead70e877dd5e4f00cb0",
        "gas": "0x16fec",
        "value": "0x0",
        "input": "0xe4849b320000000000000000000000000000000000000000000000359f2b8c6c1f49c4bc",
        "nonce": "0x2db",
        "chainId": "0xaa36a7"
      },
      "additionalContracts": [],
      "isFixedGasLimit": false
    }
  ],
  "receipts": [
    {
      "status": "0x1",
      "cumulativeGasUsed": "0xf4d625",
      "logs": [
        {
          "address": "0x5eb9cc76c3506942c1c0ead70e877dd5e4f00cb0",
          "topics": [
            "0xddf252ad1be2c89b69c2b068fc378daa952ba7f163c4a11628f55a4df523b3ef",
            "0x000000000000000000000000c77f7fed3b5cc8249adc428c5f44c9063b9734b4",
            "0x0000000000000000000000000000000000000000000000000000000000000000"
          ],
          "data": "0x0000000000000000000000000000000000000000000000359f2b8c6c1f49c4bc",
          "blockHash": "0x0b0677bc1b3a073c8470a33ea5cb95de6b13ed5a4c6727abdb76ef7428a1179a",
          "blockNumber": "0x724eb8",
          "transactionHash": "0x5ab45105cb4dd79a59855c36f91f086b4b281fff8a39677a3e49c6ade2d46553",
          "transactionIndex": "0x7c",
          "logIndex": "0xcd",
          "removed": false
        },
        {
          "address": "0x5eb9cc76c3506942c1c0ead70e877dd5e4f00cb0",
          "topics": [
            "0x4afcb4a87cdbd9974efdb92ee48bc8d7cd0ae4bf217004db3d080cbaee652ca7"
          ],
          "data": "0x000000000000000000000000000000000000000000000000000000006786a2540000000000000000000000000000000000000000000000000003910a668643210000000000000000000000000000000000000000000000000dc7db13323ad059",
          "blockHash": "0x0b0677bc1b3a073c8470a33ea5cb95de6b13ed5a4c6727abdb76ef7428a1179a",
          "blockNumber": "0x724eb8",
          "transactionHash": "0x5ab45105cb4dd79a59855c36f91f086b4b281fff8a39677a3e49c6ade2d46553",
          "transactionIndex": "0x7c",
          "logIndex": "0xce",
          "removed": false
        }
      ],
      "logsBloom": "0x00000000000000000000000000000000000000000000000000000000000000000000000000000000000000000000000000000000000000004000000000000000000000000000000000000008000000000000000000000000000000000000000000000000020000000000000004000800020000000000000000000010000000000000000000000000000000000000000000000000000000000000010000000000000000000000000000000000000000004000000000000000000000000000020000000002000000800000008000000000000000000000080000000000000020000000000000000000000000000000000000000000000000000000000000000000",
      "type": "0x2",
      "transactionHash": "0x5ab45105cb4dd79a59855c36f91f086b4b281fff8a39677a3e49c6ade2d46553",
      "transactionIndex": "0x7c",
      "blockHash": "0x0b0677bc1b3a073c8470a33ea5cb95de6b13ed5a4c6727abdb76ef7428a1179a",
      "blockNumber": "0x724eb8",
      "gasUsed": "0xfb93",
      "effectiveGasPrice": "0x4747ea034",
      "from": "0xc77f7fed3b5cc8249adc428c5f44c9063b9734b4",
      "to": "0x5eb9cc76c3506942c1c0ead70e877dd5e4f00cb0",
      "contractAddress": null
    }
  ],
  "libraries": [],
  "pending": [],
  "returns": {},
  "timestamp": 1736876628,
  "chain": 11155111,
  "commit": "51a374b"
}