{
  "transactions": [
    {
      "hash": "0x99c545158c8557d77dfefd03dd48097165bfc0d93fe9e5f8a852f87f5f82c324",
      "transactionType": "CALL",
      "contractName": null,
      "contractAddress": "0x8aafd3ede9adb0ff97c7aebce82a919afb1c8764",
      "function": "sell(uint256)",
      "arguments": [
        "5945472999688538959"
      ],
      "transaction": {
        "from": "0xc77f7fed3b5cc8249adc428c5f44c9063b9734b4",
        "to": "0x8aafd3ede9adb0ff97c7aebce82a919afb1c8764",
        "gas": "0x15dca",
        "value": "0x0",
        "input": "0xe4849b3200000000000000000000000000000000000000000000000052829031581c8b4f",
        "nonce": "0xf2c",
        "chainId": "0xaa36a7"
      },
      "additionalContracts": [],
      "isFixedGasLimit": false
    }
  ],
  "receipts": [
    {
      "status": "0x1",
      "cumulativeGasUsed": "0xcee0ba",
      "logs": [
        {
          "address": "0x8aafd3ede9adb0ff97c7aebce82a919afb1c8764",
          "topics": [
            "0xddf252ad1be2c89b69c2b068fc378daa952ba7f163c4a11628f55a4df523b3ef",
            "0x000000000000000000000000c77f7fed3b5cc8249adc428c5f44c9063b9734b4",
            "0x0000000000000000000000000000000000000000000000000000000000000000"
          ],
          "data": "0x00000000000000000000000000000000000000000000000051d9952ee6c44078",
          "blockHash": "0xdf212679409ec7ad9031aa5bef810ec0be71e4f70e95c330babfc38a04f4a11d",
          "blockNumber": "0x731580",
          "transactionHash": "0x99c545158c8557d77dfefd03dd48097165bfc0d93fe9e5f8a852f87f5f82c324",
          "transactionIndex": "0x92",
          "logIndex": "0xdb",
          "removed": false
        },
        {
          "address": "0x8aafd3ede9adb0ff97c7aebce82a919afb1c8764",
          "topics": [
            "0xddf252ad1be2c89b69c2b068fc378daa952ba7f163c4a11628f55a4df523b3ef",
            "0x000000000000000000000000c77f7fed3b5cc8249adc428c5f44c9063b9734b4",
            "0x000000000000000000000000c77f7fed3b5cc8249adc428c5f44c9063b9734b4"
          ],
          "data": "0x00000000000000000000000000000000000000000000000000a8fb0271584ad7",
          "blockHash": "0xdf212679409ec7ad9031aa5bef810ec0be71e4f70e95c330babfc38a04f4a11d",
          "blockNumber": "0x731580",
          "transactionHash": "0x99c545158c8557d77dfefd03dd48097165bfc0d93fe9e5f8a852f87f5f82c324",
          "transactionIndex": "0x92",
          "logIndex": "0xdc",
          "removed": false
        },
        {
          "address": "0x8aafd3ede9adb0ff97c7aebce82a919afb1c8764",
          "topics": [
            "0x4afcb4a87cdbd9974efdb92ee48bc8d7cd0ae4bf217004db3d080cbaee652ca7"
          ],
          "data": "0x00000000000000000000000000000000000000000000000000000000678ffeac0000000000000000000000000000000000000000000000000004bf8bd589d013000000000000000000000000000000000000000000000000001c3afc7c3a3e89",
          "blockHash": "0xdf212679409ec7ad9031aa5bef810ec0be71e4f70e95c330babfc38a04f4a11d",
          "blockNumber": "0x731580",
          "transactionHash": "0x99c545158c8557d77dfefd03dd48097165bfc0d93fe9e5f8a852f87f5f82c324",
          "transactionIndex": "0x92",
          "logIndex": "0xdd",
          "removed": false
        }
      ],
      "logsBloom": "0x00000000000000000000000000000000000000000600000000000000000000000000000000000000000000000000000000000000000000004000000000000000000000000000004000000008000000000000000000000000000000000000000000000000020000000000000000000800020000000000000000000010000000000000000000000000000000000000000000000000000000000000010000000000000000000000000000000000000000004000000000000000000000000000000000000002000000800000000000000000000000000000080000000000000020000000000000000000000000000000000000000000000000000000000000000000",
      "type": "0x2",
      "transactionHash": "0x99c545158c8557d77dfefd03dd48097165bfc0d93fe9e5f8a852f87f5f82c324",
      "transactionIndex": "0x92",
      "blockHash": "0xdf212679409ec7ad9031aa5bef810ec0be71e4f70e95c330babfc38a04f4a11d",
      "blockNumber": "0x731580",
      "gasUsed": "0xfd3f",
      "effectiveGasPrice": "0x6aa5f92b",
      "from": "0xc77f7fed3b5cc8249adc428c5f44c9063b9734b4",
      "to": "0x8aafd3ede9adb0ff97c7aebce82a919afb1c8764",
      "contractAddress": null
    }
  ],
  "libraries": [],
  "pending": [],
  "returns": {},
  "timestamp": 1737490094,
  "chain": 11155111,
  "commit": "1d2fb70"
}