{
  "transactions": [
    {
      "hash": "0x3cd30526228c86d69cf517fb724e2ff571360f60df5c178e7c081486c1306e56",
      "transactionType": "CALL",
      "contractName": null,
      "contractAddress": "0x5eb9cc76c3506942c1c0ead70e877dd5e4f00cb0",
      "function": "sell(uint256)",
      "arguments": [
        "989079920964784431777"
      ],
      "transaction": {
        "from": "0xc77f7fed3b5cc8249adc428c5f44c9063b9734b4",
        "to": "0x5eb9cc76c3506942c1c0ead70e877dd5e4f00cb0",
        "gas": "0x16fec",
        "value": "0x0",
        "input": "0xe4849b320000000000000000000000000000000000000000000000359e3dc3bf596922a1",
        "nonce": "0x47f",
        "chainId": "0xaa36a7"
      },
      "additionalContracts": [],
      "isFixedGasLimit": false
    }
  ],
  "receipts": [
    {
      "status": "0x1",
      "cumulativeGasUsed": "0x137e3ec",
      "logs": [
        {
          "address": "0x5eb9cc76c3506942c1c0ead70e877dd5e4f00cb0",
          "topics": [
            "0xddf252ad1be2c89b69c2b068fc378daa952ba7f163c4a11628f55a4df523b3ef",
            "0x000000000000000000000000c77f7fed3b5cc8249adc428c5f44c9063b9734b4",
            "0x0000000000000000000000000000000000000000000000000000000000000000"
          ],
          "data": "0x0000000000000000000000000000000000000000000000359e3dc3bf596922a1",
          "blockHash": "0x0bd4b0056b5e1ab71e2e5826eb220d486447915e09e3edc8fe61c873e0480152",
          "blockNumber": "0x7250ad",
          "transactionHash": "0x3cd30526228c86d69cf517fb724e2ff571360f60df5c178e7c081486c1306e56",
          "transactionIndex": "0x4d",
          "logIndex": "0x81",
          "removed": false
        },
        {
          "address": "0x5eb9cc76c3506942c1c0ead70e877dd5e4f00cb0",
          "topics": [
            "0x4afcb4a87cdbd9974efdb92ee48bc8d7cd0ae4bf217004db3d080cbaee652ca7"
          ],
          "data": "0x000000000000000000000000000000000000000000000000000000006786b9e80000000000000000000000000000000000000000000000000003911a37a527d30000000000000000000000000000000000000000000000000dc7db1331c3b863",
          "blockHash": "0x0bd4b0056b5e1ab71e2e5826eb220d486447915e09e3edc8fe61c873e0480152",
          "blockNumber": "0x7250ad",
          "transactionHash": "0x3cd30526228c86d69cf517fb724e2ff571360f60df5c178e7c081486c1306e56",
          "transactionIndex": "0x4d",
          "logIndex": "0x82",
          "removed": false
        }
      ],
      "logsBloom": "0x00000000000000000000000000000000000000000000000000000000000000000000000000000000000000000000000000000000000000004000000000000000000000000000000000000008000000000000000000000000000000000000000000000000020000000000000004000800020000000000000000000010000000000000000000000000000000000000000000000000000000000000010000000000000000000000000000000000000000004000000000000000000000000000020000000002000000800000008000000000000000000000080000000000000020000000000000000000000000000000000000000000000000000000000000000000",
      "type": "0x2",
      "transactionHash": "0x3cd30526228c86d69cf517fb724e2ff571360f60df5c178e7c081486c1306e56",
      "transactionIndex": "0x4d",
      "blockHash": "0x0bd4b0056b5e1ab71e2e5826eb220d486447915e09e3edc8fe61c873e0480152",
      "blockNumber": "0x7250ad",
      "gasUsed": "0xfb93",
      "effectiveGasPrice": "0x1d91c4a12",
      "from": "0xc77f7fed3b5cc8249adc428c5f44c9063b9734b4",
      "to": "0x5eb9cc76c3506942c1c0ead70e877dd5e4f00cb0",
      "contractAddress": null
    }
  ],
  "libraries": [],
  "pending": [],
  "returns": {},
  "timestamp": 1736882666,
  "chain": 11155111,
  "commit": "51a374b"
}