{
  "transactions": [
    {
      "hash": "0x41e7460c14599ffdf9d5c5cd7c0f11df86370d774ccf7a41d43918a8db46d4a6",
      "transactionType": "CALL",
      "contractName": null,
      "contractAddress": "0xbf4a322f1496e5c3d34a9bcdb4c60567b38c7de2",
      "function": "sell(uint256)",
      "arguments": [
        "990461626512443524680"
      ],
      "transaction": {
        "from": "0xc77f7fed3b5cc8249adc428c5f44c9063b9734b4",
        "to": "0xbf4a322f1496e5c3d34a9bcdb4c60567b38c7de2",
        "gas": "0x16fea",
        "value": "0x0",
        "input": "0xe4849b32000000000000000000000000000000000000000000000035b16a919f59d14648",
        "nonce": "0x915",
        "chainId": "0xaa36a7"
      },
      "additionalContracts": [],
      "isFixedGasLimit": false
    }
  ],
  "receipts": [
    {
      "status": "0x1",
      "cumulativeGasUsed": "0x80a6cb",
      "logs": [
        {
          "address": "0xbf4a322f1496e5c3d34a9bcdb4c60567b38c7de2",
          "topics": [
            "0xddf252ad1be2c89b69c2b068fc378daa952ba7f163c4a11628f55a4df523b3ef",
            "0x000000000000000000000000c77f7fed3b5cc8249adc428c5f44c9063b9734b4",
            "0x0000000000000000000000000000000000000000000000000000000000000000"
          ],
          "data": "0x000000000000000000000000000000000000000000000035b16a919f59d14648",
          "blockHash": "0x3c46eee121c74003dd8a2245365c0bbb3ab2e80204d6aacc296afee0a4183291",
          "blockNumber": "0x725893",
          "transactionHash": "0x41e7460c14599ffdf9d5c5cd7c0f11df86370d774ccf7a41d43918a8db46d4a6",
          "transactionIndex": "0x43",
          "logIndex": "0x46",
          "removed": false
        },
        {
          "address": "0xbf4a322f1496e5c3d34a9bcdb4c60567b38c7de2",
          "topics": [
            "0x4afcb4a87cdbd9974efdb92ee48bc8d7cd0ae4bf217004db3d080cbaee652ca7"
          ],
          "data": "0x000000000000000000000000000000000000000000000000000000006787191000000000000000000000000000000000000000000000000000038fda8447f90d0000000000000000000000000000000000000000000000000dc7e3fa63bae106",
          "blockHash": "0x3c46eee121c74003dd8a2245365c0bbb3ab2e80204d6aacc296afee0a4183291",
          "blockNumber": "0x725893",
          "transactionHash": "0x41e7460c14599ffdf9d5c5cd7c0f11df86370d774ccf7a41d43918a8db46d4a6",
          "transactionIndex": "0x43",
          "logIndex": "0x47",
          "removed": false
        }
      ],
      "logsBloom": "0x00000000000000000000000000000000000000000000000000000000000000000000000000000000000000000000000000000000000000004000000000000000000000000000000000000008000000000000001000000000000000000000000000000000020000000000000000000800020000000000000000000010000000000000000000000000000000000000000000000000000008000000010000000000000000000000000000000000000000004000000000000000000000000000000000000002000000800000000000001000000000000000080000000000000020000000000000000000000000000000000000000000000000000000000000000000",
      "type": "0x2",
      "transactionHash": "0x41e7460c14599ffdf9d5c5cd7c0f11df86370d774ccf7a41d43918a8db46d4a6",
      "transactionIndex": "0x43",
      "blockHash": "0x3c46eee121c74003dd8a2245365c0bbb3ab2e80204d6aacc296afee0a4183291",
      "blockNumber": "0x725893",
      "gasUsed": "0xfb91",
      "effectiveGasPrice": "0x4030245b",
      "from": "0xc77f7fed3b5cc8249adc428c5f44c9063b9734b4",
      "to": "0xbf4a322f1496e5c3d34a9bcdb4c60567b38c7de2",
      "contractAddress": null
    }
  ],
  "libraries": [],
  "pending": [],
  "returns": {},
  "timestamp": 1736907025,
  "chain": 11155111,
  "commit": "51a374b"
}