{
  "transactions": [
    {
      "hash": "0x24f323b1cf2b241c8204f43652460835b233d1e4d2875e36f01cd2faa3afaac9",
      "transactionType": "CALL",
      "contractName": null,
      "contractAddress": "0x8aafd3ede9adb0ff97c7aebce82a919afb1c8764",
      "function": "sell(uint256)",
      "arguments": [
        "675390831643690866372"
      ],
      "transaction": {
        "from": "0xc77f7fed3b5cc8249adc428c5f44c9063b9734b4",
        "to": "0x8aafd3ede9adb0ff97c7aebce82a919afb1c8764",
        "gas": "0x17270",
        "value": "0x0",
        "input": "0xe4849b320000000000000000000000000000000000000000000000249cee3f0185d916c4",
        "nonce": "0x123f",
        "chainId": "0xaa36a7"
      },
      "additionalContracts": [],
      "isFixedGasLimit": false
    }
  ],
  "receipts": [
    {
      "status": "0x1",
      "cumulativeGasUsed": "0xed96e8",
      "logs": [
        {
          "address": "0x8aafd3ede9adb0ff97c7aebce82a919afb1c8764",
          "topics": [
            "0xddf252ad1be2c89b69c2b068fc378daa952ba7f163c4a11628f55a4df523b3ef",
            "0x000000000000000000000000c77f7fed3b5cc8249adc428c5f44c9063b9734b4",
            "0x0000000000000000000000000000000000000000000000000000000000000000"
          ],
          "data": "0x00000000000000000000000000000000000000000000002451f27bf1206cdb32",
          "blockHash": "0xa45f4aeea1027ebd8bfa86a5d07acf1da7eb7be0d02539cb1d8d1582948b3a62",
          "blockNumber": "0x73191f",
          "transactionHash": "0x24f323b1cf2b241c8204f43652460835b233d1e4d2875e36f01cd2faa3afaac9",
          "transactionIndex": "0x7a",
          "logIndex": "0x95",
          "removed": false
        },
        {
          "address": "0x8aafd3ede9adb0ff97c7aebce82a919afb1c8764",
          "topics": [
            "0xddf252ad1be2c89b69c2b068fc378daa952ba7f163c4a11628f55a4df523b3ef",
            "0x000000000000000000000000c77f7fed3b5cc8249adc428c5f44c9063b9734b4",
            "0x000000000000000000000000c77f7fed3b5cc8249adc428c5f44c9063b9734b4"
          ],
          "data": "0x0000000000000000000000000000000000000000000000004afbc310656c3b92",
          "blockHash": "0xa45f4aeea1027ebd8bfa86a5d07acf1da7eb7be0d02539cb1d8d1582948b3a62",
          "blockNumber": "0x73191f",
          "transactionHash": "0x24f323b1cf2b241c8204f43652460835b233d1e4d2875e36f01cd2faa3afaac9",
          "transactionIndex": "0x7a",
          "logIndex": "0x96",
          "removed": false
        },
        {
          "address": "0x8aafd3ede9adb0ff97c7aebce82a919afb1c8764",
          "topics": [
            "0x4afcb4a87cdbd9974efdb92ee48bc8d7cd0ae4bf217004db3d080cbaee652ca7"
          ],
          "data": "0x0000000000000000000000000000000000000000000000000000000067902a4400000000000000000000000000000000000000000000000000053aa472e3b4be0000000000000000000000000000000000000000000000000dc8f00304ae0df9",
          "blockHash": "0xa45f4aeea1027ebd8bfa86a5d07acf1da7eb7be0d02539cb1d8d1582948b3a62",
          "blockNumber": "0x73191f",
          "transactionHash": "0x24f323b1cf2b241c8204f43652460835b233d1e4d2875e36f01cd2faa3afaac9",
          "transactionIndex": "0x7a",
          "logIndex": "0x97",
          "removed": false
        }
      ],
      "logsBloom": "0x00000000000000000000000000000000000000000600000000000000000000000000000000000000000000000000000000000000000000004000000000000000000000000000004000000008000000000000000000000000000000000000000000000000020000000000000000000800020000000000000000000010000000000000000000000000000000000000000000000000000000000000010000000000000000000000000000000000000000004000000000000000000000000000000000000002000000800000000000000000000000000000080000000000000020000000000000000000000000000000000000000000000000000000000000000000",
      "type": "0x2",
      "transactionHash": "0x24f323b1cf2b241c8204f43652460835b233d1e4d2875e36f01cd2faa3afaac9",
      "transactionIndex": "0x7a",
      "blockHash": "0xa45f4aeea1027ebd8bfa86a5d07acf1da7eb7be0d02539cb1d8d1582948b3a62",
      "blockNumber": "0x73191f",
      "gasUsed": "0xfd4b",
      "effectiveGasPrice": "0x3ef6c3cc",
      "from": "0xc77f7fed3b5cc8249adc428c5f44c9063b9734b4",
      "to": "0x8aafd3ede9adb0ff97c7aebce82a919afb1c8764",
      "contractAddress": null
    }
  ],
  "libraries": [],
  "pending": [],
  "returns": {},
  "timestamp": 1737501253,
  "chain": 11155111,
  "commit": "1d2fb70"
}