{
  "transactions": [
    {
      "hash": "0x1f2b7a4c141f2fe57727ed45a4d14161b17690445bb598feb49d8ab3b88e2a35",
      "transactionType": "CALL",
      "contractName": null,
      "contractAddress": "0x270e88f8683660553e8ba4eb2ad7c91a1710d769",
      "function": "buy(address)",
      "arguments": [
        "0xC77f7fed3b5Cc8249aDc428c5F44C9063B9734b4"
      ],
      "transaction": {
        "from": "0xc77f7fed3b5cc8249adc428c5f44c9063b9734b4",
        "to": "0x270e88f8683660553e8ba4eb2ad7c91a1710d769",
        "gas": "0x1b30c",
        "value": "0xde0b6b3a7640000",
        "input": "0xf088d547000000000000000000000000c77f7fed3b5cc8249adc428c5f44c9063b9734b4",
        "nonce": "0x6cf",
        "chainId": "0xaa36a7"
      },
      "additionalContracts": [],
      "isFixedGasLimit": false
    }
  ],
  "receipts": [
    {
      "status": "0x1",
      "cumulativeGasUsed": "0xbefe98",
      "logs": [
        {
          "address": "0x270e88f8683660553e8ba4eb2ad7c91a1710d769",
          "topics": [
            "0xddf252ad1be2c89b69c2b068fc378daa952ba7f163c4a11628f55a4df523b3ef",
            "0x0000000000000000000000000000000000000000000000000000000000000000",
            "0x000000000000000000000000c77f7fed3b5cc8249adc428c5f44c9063b9734b4"
          ],
          "data": "0x00000000000000000000000000000000000000000000002883f7c7aff4c8c2e1",
          "blockHash": "0xeaa9bac2a75e1bcfb3edd7fe8739654a5e4134d563701e71600cad50a4c4cb60",
          "blockNumber": "0x7253de",
          "transactionHash": "0x1f2b7a4c141f2fe57727ed45a4d14161b17690445bb598feb49d8ab3b88e2a35",
          "transactionIndex": "0x43",
          "logIndex": "0xf1",
          "removed": false
        },
        {
          "address": "0x270e88f8683660553e8ba4eb2ad7c91a1710d769",
          "topics": [
            "0xddf252ad1be2c89b69c2b068fc378daa952ba7f163c4a11628f55a4df523b3ef",
            "0x0000000000000000000000000000000000000000000000000000000000000000",
            "0x000000000000000000000000c77f7fed3b5cc8249adc428c5f44c9063b9734b4"
          ],
          "data": "0x0000000000000000000000000000000000000000000000001f762fd5a353514f",
          "blockHash": "0xeaa9bac2a75e1bcfb3edd7fe8739654a5e4134d563701e71600cad50a4c4cb60",
          "blockNumber": "0x7253de",
          "transactionHash": "0x1f2b7a4c141f2fe57727ed45a4d14161b17690445bb598feb49d8ab3b88e2a35",
          "transactionIndex": "0x43",
          "logIndex": "0xf2",
          "removed": false
        },
        {
          "address": "0x270e88f8683660553e8ba4eb2ad7c91a1710d769",
          "topics": [
            "0x4afcb4a87cdbd9974efdb92ee48bc8d7cd0ae4bf217004db3d080cbaee652ca7"
          ],
          "data": "0x000000000000000000000000000000000000000000000000000000006786e0700000000000000000000000000000000000000000000000000004b4d90cd99e510000000000000000000000000000000000000000000000000de0b6b3a7640000",
          "blockHash": "0xeaa9bac2a75e1bcfb3edd7fe8739654a5e4134d563701e71600cad50a4c4cb60",
          "blockNumber": "0x7253de",
          "transactionHash": "0x1f2b7a4c141f2fe57727ed45a4d14161b17690445bb598feb49d8ab3b88e2a35",
          "transactionIndex": "0x43",
          "logIndex": "0xf3",
          "removed": false
        }
      ],
      "logsBloom": "0x00000000000000000000000000000000000000000000000000000000000000000000000000000000000000000000000020000000000000004000000000000000000000000000000000000008000000000000000000000000000000000000000000000000020000000000000000000800020000000000000000000010000000000000000000010000000000000000000000000000000000000000010000000000000000000000000000000000000000004000000000000000000000000000000000000002000000800000000000000000000000000000080000008000000020000000000000000000000000000000000000000000000000000000000000000000",
      "type": "0x2",
      "transactionHash": "0x1f2b7a4c141f2fe57727ed45a4d14161b17690445bb598feb49d8ab3b88e2a35",
      "transactionIndex": "0x43",
      "blockHash": "0xeaa9bac2a75e1bcfb3edd7fe8739654a5e4134d563701e71600cad50a4c4cb60",
      "blockNumber": "0x7253de",
      "gasUsed": "0x13af8",
      "effectiveGasPrice": "0x14cbacf57",
      "from": "0xc77f7fed3b5cc8249adc428c5f44c9063b9734b4",
      "to": "0x270e88f8683660553e8ba4eb2ad7c91a1710d769",
      "contractAddress": null
    }
  ],
  "libraries": [],
  "pending": [],
  "returns": {},
  "timestamp": 1736892531,
  "chain": 11155111,
  "commit": "51a374b"
}