{
  "transactions": [
    {
      "hash": "0x096d430f2c6dfe569a482bdbaa5faf532d23d2488edba6d7172629aa306fc8d4",
      "transactionType": "CALL",
      "contractName": null,
      "contractAddress": "0x8aafd3ede9adb0ff97c7aebce82a919afb1c8764",
      "function": "sell(uint256)",
      "arguments": [
        "187004137"
      ],
      "transaction": {
        "from": "0xc77f7fed3b5cc8249adc428c5f44c9063b9734b4",
        "to": "0x8aafd3ede9adb0ff97c7aebce82a919afb1c8764",
        "gas": "0x15d88",
        "value": "0x0",
        "input": "0xe4849b32000000000000000000000000000000000000000000000000000000000b2574e9",
        "nonce": "0x105b",
        "chainId": "0xaa36a7"
      },
      "additionalContracts": [],
      "isFixedGasLimit": false
    }
  ],
  "receipts": [
    {
      "status": "0x1",
      "cumulativeGasUsed": "0x9c99fc",
      "logs": [
        {
          "address": "0x8aafd3ede9adb0ff97c7aebce82a919afb1c8764",
          "topics": [
            "0xddf252ad1be2c89b69c2b068fc378daa952ba7f163c4a11628f55a4df523b3ef",
            "0x000000000000000000000000c77f7fed3b5cc8249adc428c5f44c9063b9734b4",
            "0x0000000000000000000000000000000000000000000000000000000000000000"
          ],
          "data": "0x000000000000000000000000000000000000000000000000000000000b0ea108",
          "blockHash": "0x5acc114a4d838e2e9a120ee3f5abca1a0f0bed8cf7cad150983cb9417eea0605",
          "blockNumber": "0x7316de",
          "transactionHash": "0x096d430f2c6dfe569a482bdbaa5faf532d23d2488edba6d7172629aa306fc8d4",
          "transactionIndex": "0x80",
          "logIndex": "0xc7",
          "removed": false
        },
        {
          "address": "0x8aafd3ede9adb0ff97c7aebce82a919afb1c8764",
          "topics": [
            "0xddf252ad1be2c89b69c2b068fc378daa952ba7f163c4a11628f55a4df523b3ef",
            "0x000000000000000000000000c77f7fed3b5cc8249adc428c5f44c9063b9734b4",
            "0x000000000000000000000000c77f7fed3b5cc8249adc428c5f44c9063b9734b4"
          ],
          "data": "0x000000000000000000000000000000000000000000000000000000000016d3e1",
          "blockHash": "0x5acc114a4d838e2e9a120ee3f5abca1a0f0bed8cf7cad150983cb9417eea0605",
          "blockNumber": "0x7316de",
          "transactionHash": "0x096d430f2c6dfe569a482bdbaa5faf532d23d2488edba6d7172629aa306fc8d4",
          "transactionIndex": "0x80",
          "logIndex": "0xc8",
          "removed": false
        },
        {
          "address": "0x8aafd3ede9adb0ff97c7aebce82a919afb1c8764",
          "topics": [
            "0x4afcb4a87cdbd9974efdb92ee48bc8d7cd0ae4bf217004db3d080cbaee652ca7"
          ],
          "data": "0x0000000000000000000000000000000000000000000000000000000067900f200000000000000000000000000000000000000000000000000004f378090ee01c000000000000000000000000000000000000000000000000000000000003fa00",
          "blockHash": "0x5acc114a4d838e2e9a120ee3f5abca1a0f0bed8cf7cad150983cb9417eea0605",
          "blockNumber": "0x7316de",
          "transactionHash": "0x096d430f2c6dfe569a482bdbaa5faf532d23d2488edba6d7172629aa306fc8d4",
          "transactionIndex": "0x80",
          "logIndex": "0xc9",
          "removed": false
        }
      ],
      "logsBloom": "0x00000000000000000000000000000000000000000600000000000000000000000000000000000000000000000000000000000000000000004000000000000000000000000000004000000008000000000000000000000000000000000000000000000000020000000000000000000800020000000000000000000010000000000000000000000000000000000000000000000000000000000000010000000000000000000000000000000000000000004000000000000000000000000000000000000002000000800000000000000000000000000000080000000000000020000000000000000000000000000000000000000000000000000000000000000000",
      "type": "0x2",
      "transactionHash": "0x096d430f2c6dfe569a482bdbaa5faf532d23d2488edba6d7172629aa306fc8d4",
      "transactionIndex": "0x80",
      "blockHash": "0x5acc114a4d838e2e9a120ee3f5abca1a0f0bed8cf7cad150983cb9417eea0605",
      "blockNumber": "0x7316de",
      "gasUsed": "0xfd0f",
      "effectiveGasPrice": "0x42225da1",
      "from": "0xc77f7fed3b5cc8249adc428c5f44c9063b9734b4",
      "to": "0x8aafd3ede9adb0ff97c7aebce82a919afb1c8764",
      "contractAddress": null
    }
  ],
  "libraries": [],
  "pending": [],
  "returns": {},
  "timestamp": 1737494305,
  "chain": 11155111,
  "commit": "1d2fb70"
}