{
  "transactions": [
    {
      "hash": "0x57f72407278be60c14946388ed2c530efc740f981ba7538a736910caaa8bba4b",
      "transactionType": "CALL",
      "contractName": null,
      "contractAddress": "0x8aafd3ede9adb0ff97c7aebce82a919afb1c8764",
      "function": "sell(uint256)",
      "arguments": [
        "47922558250536802"
      ],
      "transaction": {
        "from": "0xc77f7fed3b5cc8249adc428c5f44c9063b9734b4",
        "to": "0x8aafd3ede9adb0ff97c7aebce82a919afb1c8764",
        "gas": "0x1724d",
        "value": "0x0",
        "input": "0xe4849b3200000000000000000000000000000000000000000000000000aa415015404f62",
        "nonce": "0xe8a",
        "chainId": "0xaa36a7"
      },
      "additionalContracts": [],
      "isFixedGasLimit": false
    }
  ],
  "receipts": [
    {
      "status": "0x1",
      "cumulativeGasUsed": "0xd46e60",
      "logs": [
        {
          "address": "0x8aafd3ede9adb0ff97c7aebce82a919afb1c8764",
          "topics": [
            "0xddf252ad1be2c89b69c2b068fc378daa952ba7f163c4a11628f55a4df523b3ef",
            "0x000000000000000000000000c77f7fed3b5cc8249adc428c5f44c9063b9734b4",
            "0x0000000000000000000000000000000000000000000000000000000000000000"
          ],
          "data": "0x00000000000000000000000000000000000000000000000000a8e4a15cc2de1c",
          "blockHash": "0x38078d7ca319bec467f8c712c9c75c57d1a3ef6c6403b01283175707023f2531",
          "blockNumber": "0x7313e7",
          "transactionHash": "0x57f72407278be60c14946388ed2c530efc740f981ba7538a736910caaa8bba4b",
          "transactionIndex": "0xab",
          "logIndex": "0xd5",
          "removed": false
        },
        {
          "address": "0x8aafd3ede9adb0ff97c7aebce82a919afb1c8764",
          "topics": [
            "0xddf252ad1be2c89b69c2b068fc378daa952ba7f163c4a11628f55a4df523b3ef",
            "0x000000000000000000000000c77f7fed3b5cc8249adc428c5f44c9063b9734b4",
            "0x000000000000000000000000c77f7fed3b5cc8249adc428c5f44c9063b9734b4"
          ],
          "data": "0x00000000000000000000000000000000000000000000000000015caeb87d7146",
          "blockHash": "0x38078d7ca319bec467f8c712c9c75c57d1a3ef6c6403b01283175707023f2531",
          "blockNumber": "0x7313e7",
          "transactionHash": "0x57f72407278be60c14946388ed2c530efc740f981ba7538a736910caaa8bba4b",
          "transactionIndex": "0xab",
          "logIndex": "0xd6",
          "removed": false
        },
        {
          "address": "0x8aafd3ede9adb0ff97c7aebce82a919afb1c8764",
          "topics": [
            "0x4afcb4a87cdbd9974efdb92ee48bc8d7cd0ae4bf217004db3d080cbaee652ca7"
          ],
          "data": "0x00000000000000000000000000000000000000000000000000000000678feb680000000000000000000000000000000000000000000000000004b689477e87d3000000000000000000000000000000000000000000000000000039d1ff5b58cf",
          "blockHash": "0x38078d7ca319bec467f8c712c9c75c57d1a3ef6c6403b01283175707023f2531",
          "blockNumber": "0x7313e7",
          "transactionHash": "0x57f72407278be60c14946388ed2c530efc740f981ba7538a736910caaa8bba4b",
          "transactionIndex": "0xab",
          "logIndex": "0xd7",
          "removed": false
        }
      ],
      "logsBloom": "0x00000000000000000000000000000000000000000600000000000000000000000000000000000000000000000000000000000000000000004000000000000000000000000000004000000008000000000000000000000000000000000000000000000000020000000000000000000800020000000000000000000010000000000000000000000000000000000000000000000000000000000000010000000000000000000000000000000000000000004000000000000000000000000000000000000002000000800000000000000000000000000000080000000000000020000000000000000000000000000000000000000000000000000000000000000000",
      "type": "0x2",
      "transactionHash": "0x57f72407278be60c14946388ed2c530efc740f981ba7538a736910caaa8bba4b",
      "transactionIndex": "0xab",
      "blockHash": "0x38078d7ca319bec467f8c712c9c75c57d1a3ef6c6403b01283175707023f2531",
      "blockNumber": "0x7313e7",
      "gasUsed": "0xfd33",
      "effectiveGasPrice": "0x78ceb89d",
      "from": "0xc77f7fed3b5cc8249adc428c5f44c9063b9734b4",
      "to": "0x8aafd3ede9adb0ff97c7aebce82a919afb1c8764",
      "contractAddress": null
    }
  ],
  "libraries": [],
  "pending": [],
  "returns": {},
  "timestamp": 1737485161,
  "chain": 11155111,
  "commit": "51a374b"
}