{
  "transactions": [
    {
      "hash": "0x7f48fed910b02d96754c65840f17a4a2775fbefafeee0e7b202752867122045e",
      "transactionType": "CALL",
      "contractName": null,
      "contractAddress": "0x8aafd3ede9adb0ff97c7aebce82a919afb1c8764",
      "function": "sell(uint256)",
      "arguments": [
        "47757954406830367"
      ],
      "transaction": {
        "from": "0xc77f7fed3b5cc8249adc428c5f44c9063b9734b4",
        "to": "0x8aafd3ede9adb0ff97c7aebce82a919afb1c8764",
        "gas": "0x1724d",
        "value": "0x0",
        "input": "0xe4849b3200000000000000000000000000000000000000000000000000a9ab9b439e511f",
        "nonce": "0xeee",
        "chainId": "0xaa36a7"
      },
      "additionalContracts": [],
      "isFixedGasLimit": false
    }
  ],
  "receipts": [
    {
      "status": "0x1",
      "cumulativeGasUsed": "0xe5838f",
      "logs": [
        {
          "address": "0x8aafd3ede9adb0ff97c7aebce82a919afb1c8764",
          "topics": [
            "0xddf252ad1be2c89b69c2b068fc378daa952ba7f163c4a11628f55a4df523b3ef",
            "0x000000000000000000000000c77f7fed3b5cc8249adc428c5f44c9063b9734b4",
            "0x0000000000000000000000000000000000000000000000000000000000000000"
          ],
          "data": "0x00000000000000000000000000000000000000000000000000a8501f245b83ad",
          "blockHash": "0xff6010bbb1e6f8440af9001e6045f6542a1abc19e96aabe55b217c1ec93fd6e3",
          "blockNumber": "0x731465",
          "transactionHash": "0x7f48fed910b02d96754c65840f17a4a2775fbefafeee0e7b202752867122045e",
          "transactionIndex": "0x97",
          "logIndex": "0x118",
          "removed": false
        },
        {
          "address": "0x8aafd3ede9adb0ff97c7aebce82a919afb1c8764",
          "topics": [
            "0xddf252ad1be2c89b69c2b068fc378daa952ba7f163c4a11628f55a4df523b3ef",
            "0x000000000000000000000000c77f7fed3b5cc8249adc428c5f44c9063b9734b4",
            "0x000000000000000000000000c77f7fed3b5cc8249adc428c5f44c9063b9734b4"
          ],
          "data": "0x00000000000000000000000000000000000000000000000000015b7c1f42cd72",
          "blockHash": "0xff6010bbb1e6f8440af9001e6045f6542a1abc19e96aabe55b217c1ec93fd6e3",
          "blockNumber": "0x731465",
          "transactionHash": "0x7f48fed910b02d96754c65840f17a4a2775fbefafeee0e7b202752867122045e",
          "transactionIndex": "0x97",
          "logIndex": "0x119",
          "removed": false
        },
        {
          "address": "0x8aafd3ede9adb0ff97c7aebce82a919afb1c8764",
          "topics": [
            "0x4afcb4a87cdbd9974efdb92ee48bc8d7cd0ae4bf217004db3d080cbaee652ca7"
          ],
          "data": "0x00000000000000000000000000000000000000000000000000000000678ff1680000000000000000000000000000000000000000000000000004bab17c2189cb000000000000000000000000000000000000000000000000000039d1fae410e1",
          "blockHash": "0xff6010bbb1e6f8440af9001e6045f6542a1abc19e96aabe55b217c1ec93fd6e3",
          "blockNumber": "0x731465",
          "transactionHash": "0x7f48fed910b02d96754c65840f17a4a2775fbefafeee0e7b202752867122045e",
          "transactionIndex": "0x97",
          "logIndex": "0x11a",
          "removed": false
        }
      ],
      "logsBloom": "0x00000000000000000000000000000000000000000600000000000000000000000000000000000000000000000000000000000000000000004000000000000000000000000000004000000008000000000000000000000000000000000000000000000000020000000000000000000800020000000000000000000010000000000000000000000000000000000000000000000000000000000000010000000000000000000000000000000000000000004000000000000000000000000000000000000002000000800000000000000000000000000000080000000000000020000000000000000000000000000000000000000000000000000000000000000000",
      "type": "0x2",
      "transactionHash": "0x7f48fed910b02d96754c65840f17a4a2775fbefafeee0e7b202752867122045e",
      "transactionIndex": "0x97",
      "blockHash": "0xff6010bbb1e6f8440af9001e6045f6542a1abc19e96aabe55b217c1ec93fd6e3",
      "blockNumber": "0x731465",
      "gasUsed": "0xfd33",
      "effectiveGasPrice": "0xc1d4541c",
      "from": "0xc77f7fed3b5cc8249adc428c5f44c9063b9734b4",
      "to": "0x8aafd3ede9adb0ff97c7aebce82a919afb1c8764",
      "contractAddress": null
    }
  ],
  "libraries": [],
  "pending": [],
  "returns": {},
  "timestamp": 1737486697,
  "chain": 11155111,
  "commit": "51a374b"
}