{
  "transactions": [
    {
      "hash": "0xa1497d5c1f893ce401239037c6e5c5dc44102746cb1d84bb70e073e2a858b0db",
      "transactionType": "CALL",
      "contractName": null,
      "contractAddress": "0x8aafd3ede9adb0ff97c7aebce82a919afb1c8764",
      "function": "sell(uint256)",
      "arguments": [
        "1399664"
      ],
      "transaction": {
        "from": "0xc77f7fed3b5cc8249adc428c5f44c9063b9734b4",
        "to": "0x8aafd3ede9adb0ff97c7aebce82a919afb1c8764",
        "gas": "0x16208",
        "value": "0x0",
        "input": "0xe4849b320000000000000000000000000000000000000000000000000000000000155b70",
        "nonce": "0x12b4",
        "chainId": "0xaa36a7"
      },
      "additionalContracts": [],
      "isFixedGasLimit": false
    }
  ],
  "receipts": [
    {
      "status": "0x1",
      "cumulativeGasUsed": "0xafa8f3",
      "logs": [
        {
          "address": "0x8aafd3ede9adb0ff97c7aebce82a919afb1c8764",
          "topics": [
            "0xddf252ad1be2c89b69c2b068fc378daa952ba7f163c4a11628f55a4df523b3ef",
            "0x000000000000000000000000c77f7fed3b5cc8249adc428c5f44c9063b9734b4",
            "0x0000000000000000000000000000000000000000000000000000000000000000"
          ],
          "data": "0x0000000000000000000000000000000000000000000000000000000000152fb3",
          "blockHash": "0x039a007b8f416366a659a5ba0120353edc5a2827ab9363c153c2e6ecea957688",
          "blockNumber": "0x7319ab",
          "transactionHash": "0xa1497d5c1f893ce401239037c6e5c5dc44102746cb1d84bb70e073e2a858b0db",
          "transactionIndex": "0x76",
          "logIndex": "0x79",
          "removed": false
        },
        {
          "address": "0x8aafd3ede9adb0ff97c7aebce82a919afb1c8764",
          "topics": [
            "0xddf252ad1be2c89b69c2b068fc378daa952ba7f163c4a11628f55a4df523b3ef",
            "0x000000000000000000000000c77f7fed3b5cc8249adc428c5f44c9063b9734b4",
            "0x000000000000000000000000c77f7fed3b5cc8249adc428c5f44c9063b9734b4"
          ],
          "data": "0x0000000000000000000000000000000000000000000000000000000000002bbd",
          "blockHash": "0x039a007b8f416366a659a5ba0120353edc5a2827ab9363c153c2e6ecea957688",
          "blockNumber": "0x7319ab",
          "transactionHash": "0xa1497d5c1f893ce401239037c6e5c5dc44102746cb1d84bb70e073e2a858b0db",
          "transactionIndex": "0x76",
          "logIndex": "0x7a",
          "removed": false
        },
        {
          "address": "0x8aafd3ede9adb0ff97c7aebce82a919afb1c8764",
          "topics": [
            "0x4afcb4a87cdbd9974efdb92ee48bc8d7cd0ae4bf217004db3d080cbaee652ca7"
          ],
          "data": "0x00000000000000000000000000000000000000000000000000000000679030d400000000000000000000000000000000000000000000000000054aa30d7899640000000000000000000000000000000000000000000000000000000000000824",
          "blockHash": "0x039a007b8f416366a659a5ba0120353edc5a2827ab9363c153c2e6ecea957688",
          "blockNumber": "0x7319ab",
          "transactionHash": "0xa1497d5c1f893ce401239037c6e5c5dc44102746cb1d84bb70e073e2a858b0db",
          "transactionIndex": "0x76",
          "logIndex": "0x7b",
          "removed": false
        }
      ],
      "logsBloom": "0x00000000000000000000000000000000000000000600000000000000000000000000000000000000000000000000000000000000000000004000000000000000000000000000004000000008000000000000000000000000000000000000000000000000020000000000000000000800020000000000000000000010000000000000000000000000000000000000000000000000000000000000010000000000000000000000000000000000000000004000000000000000000000000000000000000002000000800000000000000000000000000000080000000000000020000000000000000000000000000000000000000000000000000000000000000000",
      "type": "0x2",
      "transactionHash": "0xa1497d5c1f893ce401239037c6e5c5dc44102746cb1d84bb70e073e2a858b0db",
      "transactionIndex": "0x76",
      "blockHash": "0x039a007b8f416366a659a5ba0120353edc5a2827ab9363c153c2e6ecea957688",
      "blockNumber": "0x7319ab",
      "gasUsed": "0xf213",
      "effectiveGasPrice": "0x3ff74843",
      "from": "0xc77f7fed3b5cc8249adc428c5f44c9063b9734b4",
      "to": "0x8aafd3ede9adb0ff97c7aebce82a919afb1c8764",
      "contractAddress": null
    }
  ],
  "libraries": [],
  "pending": [],
  "returns": {},
  "timestamp": 1737502933,
  "chain": 11155111,
  "commit": "1d2fb70"
}