{
  "transactions": [
    {
      "hash": "0xf2f8f977c368d8a71e1c48e3344f5125c2b002cf475e9f7d7c927c54a0ba36f3",
      "transactionType": "CALL",
      "contractName": null,
      "contractAddress": "0xbf4a322f1496e5c3d34a9bcdb4c60567b38c7de2",
      "function": "sell(uint256)",
      "arguments": [
        "979636898378422537228"
      ],
      "transaction": {
        "from": "0xc77f7fed3b5cc8249adc428c5f44c9063b9734b4",
        "to": "0xbf4a322f1496e5c3d34a9bcdb4c60567b38c7de2",
        "gas": "0x16fea",
        "value": "0x0",
        "input": "0xe4849b320000000000000000000000000000000000000000000000351b3168bc8751cc0c",
        "nonce": "0xc33",
        "chainId": "0xaa36a7"
      },
      "additionalContracts": [],
      "isFixedGasLimit": false
    }
  ],
  "receipts": [
    {
      "status": "0x1",
      "cumulativeGasUsed": "0x616c58",
      "logs": [
        {
          "address": "0xbf4a322f1496e5c3d34a9bcdb4c60567b38c7de2",
          "topics": [
            "0xddf252ad1be2c89b69c2b068fc378daa952ba7f163c4a11628f55a4df523b3ef",
            "0x000000000000000000000000c77f7fed3b5cc8249adc428c5f44c9063b9734b4",
            "0x0000000000000000000000000000000000000000000000000000000000000000"
          ],
          "data": "0x0000000000000000000000000000000000000000000000351b3168bc8751cc0c",
          "blockHash": "0x9c5f5d74c90ccf113fc96b3d5199692ddbbb399aab1b21765f6e049c4d6e2f31",
          "blockNumber": "0x725c66",
          "transactionHash": "0xf2f8f977c368d8a71e1c48e3344f5125c2b002cf475e9f7d7c927c54a0ba36f3",
          "transactionIndex": "0x3a",
          "logIndex": "0x33",
          "removed": false
        },
        {
          "address": "0xbf4a322f1496e5c3d34a9bcdb4c60567b38c7de2",
          "topics": [
            "0x4afcb4a87cdbd9974efdb92ee48bc8d7cd0ae4bf217004db3d080cbaee652ca7"
          ],
          "data": "0x0000000000000000000000000000000000000000000000000000000067874724000000000000000000000000000000000000000000000000000399edd5babd080000000000000000000000000000000000000000000000000dc7e3e138db5468",
          "blockHash": "0x9c5f5d74c90ccf113fc96b3d5199692ddbbb399aab1b21765f6e049c4d6e2f31",
          "blockNumber": "0x725c66",
          "transactionHash": "0xf2f8f977c368d8a71e1c48e3344f5125c2b002cf475e9f7d7c927c54a0ba36f3",
          "transactionIndex": "0x3a",
          "logIndex": "0x34",
          "removed": false
        }
      ],
      "logsBloom": "0x00000000000000000000000000000000000000000000000000000000000000000000000000000000000000000000000000000000000000004000000000000000000000000000000000000008000000000000001000000000000000000000000000000000020000000000000000000800020000000000000000000010000000000000000000000000000000000000000000000000000008000000010000000000000000000000000000000000000000004000000000000000000000000000000000000002000000800000000000001000000000000000080000000000000020000000000000000000000000000000000000000000000000000000000000000000",
      "type": "0x2",
      "transactionHash": "0xf2f8f977c368d8a71e1c48e3344f5125c2b002cf475e9f7d7c927c54a0ba36f3",
      "transactionIndex": "0x3a",
      "blockHash": "0x9c5f5d74c90ccf113fc96b3d5199692ddbbb399aab1b21765f6e049c4d6e2f31",
      "blockNumber": "0x725c66",
      "gasUsed": "0xfb91",
      "effectiveGasPrice": "0x1a2ae7fbf",
      "from": "0xc77f7fed3b5cc8249adc428c5f44c9063b9734b4",
      "to": "0xbf4a322f1496e5c3d34a9bcdb4c60567b38c7de2",
      "contractAddress": null
    }
  ],
  "libraries": [],
  "pending": [],
  "returns": {},
  "timestamp": 1736918822,
  "chain": 11155111,
  "commit": "51a374b"
}