{
  "transactions": [
    {
      "hash": "0x770d87579ff0f58b7fe50058cb2a52bf75e8d9ee20bee49a421701288772ab86",
      "transactionType": "CALL",
      "contractName": null,
      "contractAddress": "0x5eb9cc76c3506942c1c0ead70e877dd5e4f00cb0",
      "function": "sell(uint256)",
      "arguments": [
        "989139201552894174174"
      ],
      "transaction": {
        "from": "0xc77f7fed3b5cc8249adc428c5f44c9063b9734b4",
        "to": "0x5eb9cc76c3506942c1c0ead70e877dd5e4f00cb0",
        "gas": "0x16fec",
        "value": "0x0",
        "input": "0xe4849b320000000000000000000000000000000000000000000000359f105f20d5c4a3de",
        "nonce": "0x30b",
        "chainId": "0xaa36a7"
      },
      "additionalContracts": [],
      "isFixedGasLimit": false
    }
  ],
  "receipts": [
    {
      "status": "0x1",
      "cumulativeGasUsed": "0xbc4250",
      "logs": [
        {
          "address": "0x5eb9cc76c3506942c1c0ead70e877dd5e4f00cb0",
          "topics": [
            "0xddf252ad1be2c89b69c2b068fc378daa952ba7f163c4a11628f55a4df523b3ef",
            "0x000000000000000000000000c77f7fed3b5cc8249adc428c5f44c9063b9734b4",
            "0x0000000000000000000000000000000000000000000000000000000000000000"
          ],
          "data": "0x0000000000000000000000000000000000000000000000359f105f20d5c4a3de",
          "blockHash": "0x07787c46b4f0fcaf9d22396dc3c93dbcdea5a76e7b9dcc7e48d173bf462796f9",
          "blockNumber": "0x724eef",
          "transactionHash": "0x770d87579ff0f58b7fe50058cb2a52bf75e8d9ee20bee49a421701288772ab86",
          "transactionIndex": "0x5a",
          "logIndex": "0x83",
          "removed": false
        },
        {
          "address": "0x5eb9cc76c3506942c1c0ead70e877dd5e4f00cb0",
          "topics": [
            "0x4afcb4a87cdbd9974efdb92ee48bc8d7cd0ae4bf217004db3d080cbaee652ca7"
          ],
          "data": "0x000000000000000000000000000000000000000000000000000000006786a4e80000000000000000000000000000000000000000000000000003910c3547f6dd0000000000000000000000000000000000000000000000000dc7db13322d33cd",
          "blockHash": "0x07787c46b4f0fcaf9d22396dc3c93dbcdea5a76e7b9dcc7e48d173bf462796f9",
          "blockNumber": "0x724eef",
          "transactionHash": "0x770d87579ff0f58b7fe50058cb2a52bf75e8d9ee20bee49a421701288772ab86",
          "transactionIndex": "0x5a",
          "logIndex": "0x84",
          "removed": false
        }
      ],
      "logsBloom": "0x00000000000000000000000000000000000000000000000000000000000000000000000000000000000000000000000000000000000000004000000000000000000000000000000000000008000000000000000000000000000000000000000000000000020000000000000004000800020000000000000000000010000000000000000000000000000000000000000000000000000000000000010000000000000000000000000000000000000000004000000000000000000000000000020000000002000000800000008000000000000000000000080000000000000020000000000000000000000000000000000000000000000000000000000000000000",
      "type": "0x2",
      "transactionHash": "0x770d87579ff0f58b7fe50058cb2a52bf75e8d9ee20bee49a421701288772ab86",
      "transactionIndex": "0x5a",
      "blockHash": "0x07787c46b4f0fcaf9d22396dc3c93dbcdea5a76e7b9dcc7e48d173bf462796f9",
      "blockNumber": "0x724eef",
      "gasUsed": "0xfb93",
      "effectiveGasPrice": "0x626f1e63f",
      "from": "0xc77f7fed3b5cc8249adc428c5f44c9063b9734b4",
      "to": "0x5eb9cc76c3506942c1c0ead70e877dd5e4f00cb0",
      "contractAddress": null
    }
  ],
  "libraries": [],
  "pending": [],
  "returns": {},
  "timestamp": 1736877289,
  "chain": 11155111,
  "commit": "51a374b"
}