{
  "transactions": [
    {
      "hash": "0x000b285c6561ea130f6167ec12872f879f8ec2b18555e181efd4bd18e12d5dae",
      "transactionType": "CALL",
      "contractName": null,
      "contractAddress": "0x8aafd3ede9adb0ff97c7aebce82a919afb1c8764",
      "function": "sell(uint256)",
      "arguments": [
        "39741288"
      ],
      "transaction": {
        "from": "0xc77f7fed3b5cc8249adc428c5f44c9063b9734b4",
        "to": "0x8aafd3ede9adb0ff97c7aebce82a919afb1c8764",
        "gas": "0x15d88",
        "value": "0x0",
        "input": "0xe4849b3200000000000000000000000000000000000000000000000000000000025e6768",
        "nonce": "0x1721",
        "chainId": "0xaa36a7"
      },
      "additionalContracts": [],
      "isFixedGasLimit": false
    }
  ],
  "receipts": [
    {
      "status": "0x1",
      "cumulativeGasUsed": "0xf9151e",
      "logs": [
        {
          "address": "0x8aafd3ede9adb0ff97c7aebce82a919afb1c8764",
          "topics": [
            "0xddf252ad1be2c89b69c2b068fc378daa952ba7f163c4a11628f55a4df523b3ef",
            "0x000000000000000000000000c77f7fed3b5cc8249adc428c5f44c9063b9734b4",
            "0x0000000000000000000000000000000000000000000000000000000000000000"
          ],
          "data": "0x0000000000000000000000000000000000000000000000000000000002598d7e",
          "blockHash": "0xf5d6b0aeac0dc9693b2e1bc36bf290b183a47098aeba6fb16b889372b1ca1c8f",
          "blockNumber": "0x731ee8",
          "transactionHash": "0x000b285c6561ea130f6167ec12872f879f8ec2b18555e181efd4bd18e12d5dae",
          "transactionIndex": "0x6d",
          "logIndex": "0x78",
          "removed": false
        },
        {
          "address": "0x8aafd3ede9adb0ff97c7aebce82a919afb1c8764",
          "topics": [
            "0xddf252ad1be2c89b69c2b068fc378daa952ba7f163c4a11628f55a4df523b3ef",
            "0x000000000000000000000000c77f7fed3b5cc8249adc428c5f44c9063b9734b4",
            "0x000000000000000000000000c77f7fed3b5cc8249adc428c5f44c9063b9734b4"
          ],
          "data": "0x000000000000000000000000000000000000000000000000000000000004d9ea",
          "blockHash": "0xf5d6b0aeac0dc9693b2e1bc36bf290b183a47098aeba6fb16b889372b1ca1c8f",
          "blockNumber": "0x731ee8",
          "transactionHash": "0x000b285c6561ea130f6167ec12872f879f8ec2b18555e181efd4bd18e12d5dae",
          "transactionIndex": "0x6d",
          "logIndex": "0x79",
          "removed": false
        },
        {
          "address": "0x8aafd3ede9adb0ff97c7aebce82a919afb1c8764",
          "topics": [
            "0x4afcb4a87cdbd9974efdb92ee48bc8d7cd0ae4bf217004db3d080cbaee652ca7"
          ],
          "data": "0x0000000000000000000000000000000000000000000000000000000067906fc80000000000000000000000000000000000000000000000000017603bf683344e000000000000000000000000000000000000000000000000000000000003fd6f",
          "blockHash": "0xf5d6b0aeac0dc9693b2e1bc36bf290b183a47098aeba6fb16b889372b1ca1c8f",
          "blockNumber": "0x731ee8",
          "transactionHash": "0x000b285c6561ea130f6167ec12872f879f8ec2b18555e181efd4bd18e12d5dae",
          "transactionIndex": "0x6d",
          "logIndex": "0x7a",
          "removed": false
        }
      ],
      "logsBloom": "0x00000000000000000000000000000000000000000600000000000000000000000000000000000000000000000000000000000000000000004000000000000000000000000000004000000008000000000000000000000000000000000000000000000000020000000000000000000800020000000000000000000010000000000000000000000000000000000000000000000000000000000000010000000000000000000000000000000000000000004000000000000000000000000000000000000002000000800000000000000000000000000000080000000000000020000000000000000000000000000000000000000000000000000000000000000000",
      "type": "0x2",
      "transactionHash": "0x000b285c6561ea130f6167ec12872f879f8ec2b18555e181efd4bd18e12d5dae",
      "transactionIndex": "0x6d",
      "blockHash": "0xf5d6b0aeac0dc9693b2e1bc36bf290b183a47098aeba6fb16b889372b1ca1c8f",
      "blockNumber": "0x731ee8",
      "gasUsed": "0xfd0f",
      "effectiveGasPrice": "0x42a1aad1",
      "from": "0xc77f7fed3b5cc8249adc428c5f44c9063b9734b4",
      "to": "0x8aafd3ede9adb0ff97c7aebce82a919afb1c8764",
      "contractAddress": null
    }
  ],
  "libraries": [],
  "pending": [],
  "returns": {},
  "timestamp": 1737519049,
  "chain": 11155111,
  "commit": "1d2fb70"
}