{
  "transactions": [
    {
      "hash": "0xf272814180be5e533ef171cc6cd25e6bff0cde722f9eb7e2227e045e85cd8106",
      "transactionType": "CALL",
      "contractName": null,
      "contractAddress": "0x8aafd3ede9adb0ff97c7aebce82a919afb1c8764",
      "function": "sell(uint256)",
      "arguments": [
        "156243839833534"
      ],
      "transaction": {
        "from": "0xc77f7fed3b5cc8249adc428c5f44c9063b9734b4",
        "to": "0x8aafd3ede9adb0ff97c7aebce82a919afb1c8764",
        "gas": "0x15daa",
        "value": "0x0",
        "input": "0xe4849b3200000000000000000000000000000000000000000000000000008e1a5a9255be",
        "nonce": "0x1325",
        "chainId": "0xaa36a7"
      },
      "additionalContracts": [],
      "isFixedGasLimit": false
    }
  ],
  "receipts": [
    {
      "status": "0x1",
      "cumulativeGasUsed": "0x220bd5b",
      "logs": [
        {
          "address": "0x8aafd3ede9adb0ff97c7aebce82a919afb1c8764",
          "topics": [
            "0xddf252ad1be2c89b69c2b068fc378daa952ba7f163c4a11628f55a4df523b3ef",
            "0x000000000000000000000000c77f7fed3b5cc8249adc428c5f44c9063b9734b4",
            "0x0000000000000000000000000000000000000000000000000000000000000000"
          ],
          "data": "0x00000000000000000000000000000000000000000000000000008cf753b3faf2",
          "blockHash": "0x535c38ba7a12bedbce7c5adb090dd3677486b55b42ead68049c9f0cb74c6a526",
          "blockNumber": "0x731a35",
          "transactionHash": "0xf272814180be5e533ef171cc6cd25e6bff0cde722f9eb7e2227e045e85cd8106",
          "transactionIndex": "0x68",
          "logIndex": "0x10e5",
          "removed": false
        },
        {
          "address": "0x8aafd3ede9adb0ff97c7aebce82a919afb1c8764",
          "topics": [
            "0xddf252ad1be2c89b69c2b068fc378daa952ba7f163c4a11628f55a4df523b3ef",
            "0x000000000000000000000000c77f7fed3b5cc8249adc428c5f44c9063b9734b4",
            "0x000000000000000000000000c77f7fed3b5cc8249adc428c5f44c9063b9734b4"
          ],
          "data": "0x0000000000000000000000000000000000000000000000000000012306de5acc",
          "blockHash": "0x535c38ba7a12bedbce7c5adb090dd3677486b55b42ead68049c9f0cb74c6a526",
          "blockNumber": "0x731a35",
          "transactionHash": "0xf272814180be5e533ef171cc6cd25e6bff0cde722f9eb7e2227e045e85cd8106",
          "transactionIndex": "0x68",
          "logIndex": "0x10e6",
          "removed": false
        },
        {
          "address": "0x8aafd3ede9adb0ff97c7aebce82a919afb1c8764",
          "topics": [
            "0x4afcb4a87cdbd9974efdb92ee48bc8d7cd0ae4bf217004db3d080cbaee652ca7"
          ],
          "data": "0x000000000000000000000000000000000000000000000000000000006790374c000000000000000000000000000000000000000000000000000ba9718e81af2a0000000000000000000000000000000000000000000000000000007769bca57a",
          "blockHash": "0x535c38ba7a12bedbce7c5adb090dd3677486b55b42ead68049c9f0cb74c6a526",
          "blockNumber": "0x731a35",
          "transactionHash": "0xf272814180be5e533ef171cc6cd25e6bff0cde722f9eb7e2227e045e85cd8106",
          "transactionIndex": "0x68",
          "logIndex": "0x10e7",
          "removed": false
        }
      ],
      "logsBloom": "0x00000000000000000000000000000000000000000600000000000000000000000000000000000000000000000000000000000000000000004000000000000000000000000000004000000008000000000000000000000000000000000000000000000000020000000000000000000800020000000000000000000010000000000000000000000000000000000000000000000000000000000000010000000000000000000000000000000000000000004000000000000000000000000000000000000002000000800000000000000000000000000000080000000000000020000000000000000000000000000000000000000000000000000000000000000000",
      "type": "0x2",
      "transactionHash": "0xf272814180be5e533ef171cc6cd25e6bff0cde722f9eb7e2227e045e85cd8106",
      "transactionIndex": "0x68",
      "blockHash": "0x535c38ba7a12bedbce7c5adb090dd3677486b55b42ead68049c9f0cb74c6a526",
      "blockNumber": "0x731a35",
      "gasUsed": "0xfd27",
      "effectiveGasPrice": "0x3e1dc5b3",
      "from": "0xc77f7fed3b5cc8249adc428c5f44c9063b9734b4",
      "to": "0x8aafd3ede9adb0ff97c7aebce82a919afb1c8764",
      "contractAddress": null
    }
  ],
  "libraries": [],
  "pending": [],
  "returns": {},
  "timestamp": 1737504590,
  "chain": 11155111,
  "commit": "1d2fb70"
}