{
  "transactions": [
    {
      "hash": "0x20108d32a618becad127ded66d504b80d79b07096ea8d618a60dccf73c6401c5",
      "transactionType": "CALL",
      "contractName": null,
      "contractAddress": "0xbf4a322f1496e5c3d34a9bcdb4c60567b38c7de2",
      "function": "sell(uint256)",
      "arguments": [
        "978698634993219378479"
      ],
      "transaction": {
        "from": "0xc77f7fed3b5cc8249adc428c5f44c9063b9734b4",
        "to": "0xbf4a322f1496e5c3d34a9bcdb4c60567b38c7de2",
        "gas": "0x16fea",
        "value": "0x0",
        "input": "0xe4849b320000000000000000000000000000000000000000000000350e2c0728a2879d2f",
        "nonce": "0xc79",
        "chainId": "0xaa36a7"
      },
      "additionalContracts": [],
      "isFixedGasLimit": false
    }
  ],
  "receipts": [
    {
      "status": "0x1",
      "cumulativeGasUsed": "0x98708e",
      "logs": [
        {
          "address": "0xbf4a322f1496e5c3d34a9bcdb4c60567b38c7de2",
          "topics": [
            "0xddf252ad1be2c89b69c2b068fc378daa952ba7f163c4a11628f55a4df523b3ef",
            "0x000000000000000000000000c77f7fed3b5cc8249adc428c5f44c9063b9734b4",
            "0x0000000000000000000000000000000000000000000000000000000000000000"
          ],
          "data": "0x0000000000000000000000000000000000000000000000350e2c0728a2879d2f",
          "blockHash": "0x78d2ba9357c968a8af210a875e7d3338722ce4e0c7dc472f6a01574ef77178bf",
          "blockNumber": "0x725cb8",
          "transactionHash": "0x20108d32a618becad127ded66d504b80d79b07096ea8d618a60dccf73c6401c5",
          "transactionIndex": "0x3a",
          "logIndex": "0x59",
          "removed": false
        },
        {
          "address": "0xbf4a322f1496e5c3d34a9bcdb4c60567b38c7de2",
          "topics": [
            "0x4afcb4a87cdbd9974efdb92ee48bc8d7cd0ae4bf217004db3d080cbaee652ca7"
          ],
          "data": "0x0000000000000000000000000000000000000000000000000000000067874b1400000000000000000000000000000000000000000000000000039ad0176ebd6d0000000000000000000000000000000000000000000000000dc7e3df0a64b7d6",
          "blockHash": "0x78d2ba9357c968a8af210a875e7d3338722ce4e0c7dc472f6a01574ef77178bf",
          "blockNumber": "0x725cb8",
          "transactionHash": "0x20108d32a618becad127ded66d504b80d79b07096ea8d618a60dccf73c6401c5",
          "transactionIndex": "0x3a",
          "logIndex": "0x5a",
          "removed": false
        }
      ],
      "logsBloom": "0x00000000000000000000000000000000000000000000000000000000000000000000000000000000000000000000000000000000000000004000000000000000000000000000000000000008000000000000001000000000000000000000000000000000020000000000000000000800020000000000000000000010000000000000000000000000000000000000000000000000000008000000010000000000000000000000000000000000000000004000000000000000000000000000000000000002000000800000000000001000000000000000080000000000000020000000000000000000000000000000000000000000000000000000000000000000",
      "type": "0x2",
      "transactionHash": "0x20108d32a618becad127ded66d504b80d79b07096ea8d618a60dccf73c6401c5",
      "transactionIndex": "0x3a",
      "blockHash": "0x78d2ba9357c968a8af210a875e7d3338722ce4e0c7dc472f6a01574ef77178bf",
      "blockNumber": "0x725cb8",
      "gasUsed": "0xfb91",
      "effectiveGasPrice": "0x29c1b8c0f",
      "from": "0xc77f7fed3b5cc8249adc428c5f44c9063b9734b4",
      "to": "0xbf4a322f1496e5c3d34a9bcdb4c60567b38c7de2",
      "contractAddress": null
    }
  ],
  "libraries": [],
  "pending": [],
  "returns": {},
  "timestamp": 1736919828,
  "chain": 11155111,
  "commit": "51a374b"
}