{
  "transactions": [
    {
      "hash": "0x68223e89355d4444c1c3c7aa9eff514abcfdb181d74027ce38ee397570666c01",
      "transactionType": "CALL",
      "contractName": null,
      "contractAddress": "0x8aafd3ede9adb0ff97c7aebce82a919afb1c8764",
      "function": "sell(uint256)",
      "arguments": [
        "3054410813496"
      ],
      "transaction": {
        "from": "0xc77f7fed3b5cc8249adc428c5f44c9063b9734b4",
        "to": "0x8aafd3ede9adb0ff97c7aebce82a919afb1c8764",
        "gas": "0x15daa",
        "value": "0x0",
        "input": "0xe4849b32000000000000000000000000000000000000000000000000000002c729125038",
        "nonce": "0xf04",
        "chainId": "0xaa36a7"
      },
      "additionalContracts": [],
      "isFixedGasLimit": false
    }
  ],
  "receipts": [
    {
      "status": "0x1",
      "cumulativeGasUsed": "0xab9ac0",
      "logs": [
        {
          "address": "0x8aafd3ede9adb0ff97c7aebce82a919afb1c8764",
          "topics": [
            "0xddf252ad1be2c89b69c2b068fc378daa952ba7f163c4a11628f55a4df523b3ef",
            "0x000000000000000000000000c77f7fed3b5cc8249adc428c5f44c9063b9734b4",
            "0x0000000000000000000000000000000000000000000000000000000000000000"
          ],
          "data": "0x000000000000000000000000000000000000000000000000000002c1789d6e4d",
          "blockHash": "0x9c41e6620435918ae0a6dcdb8c6d4fb817c8abf8b495d043afab5be38a772adc",
          "blockNumber": "0x73147c",
          "transactionHash": "0x68223e89355d4444c1c3c7aa9eff514abcfdb181d74027ce38ee397570666c01",
          "transactionIndex": "0x7e",
          "logIndex": "0xaa",
          "removed": false
        },
        {
          "address": "0x8aafd3ede9adb0ff97c7aebce82a919afb1c8764",
          "topics": [
            "0xddf252ad1be2c89b69c2b068fc378daa952ba7f163c4a11628f55a4df523b3ef",
            "0x000000000000000000000000c77f7fed3b5cc8249adc428c5f44c9063b9734b4",
            "0x000000000000000000000000c77f7fed3b5cc8249adc428c5f44c9063b9734b4"
          ],
          "data": "0x00000000000000000000000000000000000000000000000000000005b074e1eb",
          "blockHash": "0x9c41e6620435918ae0a6dcdb8c6d4fb817c8abf8b495d043afab5be38a772adc",
          "blockNumber": "0x73147c",
          "transactionHash": "0x68223e89355d4444c1c3c7aa9eff514abcfdb181d74027ce38ee397570666c01",
          "transactionIndex": "0x7e",
          "logIndex": "0xab",
          "removed": false
        },
        {
          "address": "0x8aafd3ede9adb0ff97c7aebce82a919afb1c8764",
          "topics": [
            "0x4afcb4a87cdbd9974efdb92ee48bc8d7cd0ae4bf217004db3d080cbaee652ca7"
          ],
          "data": "0x00000000000000000000000000000000000000000000000000000000678ff27c0000000000000000000000000000000000000000000000000004bb8653ecedfc00000000000000000000000000000000000000000000000000000000f283fd91",
          "blockHash": "0x9c41e6620435918ae0a6dcdb8c6d4fb817c8abf8b495d043afab5be38a772adc",
          "blockNumber": "0x73147c",
          "transactionHash": "0x68223e89355d4444c1c3c7aa9eff514abcfdb181d74027ce38ee397570666c01",
          "transactionIndex": "0x7e",
          "logIndex": "0xac",
          "removed": false
        }
      ],
      "logsBloom": "0x00000000000000000000000000000000000000000600000000000000000000000000000000000000000000000000000000000000000000004000000000000000000000000000004000000008000000000000000000000000000000000000000000000000020000000000000000000800020000000000000000000010000000000000000000000000000000000000000000000000000000000000010000000000000000000000000000000000000000004000000000000000000000000000000000000002000000800000000000000000000000000000080000000000000020000000000000000000000000000000000000000000000000000000000000000000",
      "type": "0x2",
      "transactionHash": "0x68223e89355d4444c1c3c7aa9eff514abcfdb181d74027ce38ee397570666c01",
      "transactionIndex": "0x7e",
      "blockHash": "0x9c41e6620435918ae0a6dcdb8c6d4fb817c8abf8b495d043afab5be38a772adc",
      "blockNumber": "0x73147c",
      "gasUsed": "0xfd27",
      "effectiveGasPrice": "0x907337be",
      "from": "0xc77f7fed3b5cc8249adc428c5f44c9063b9734b4",
      "to": "0x8aafd3ede9adb0ff97c7aebce82a919afb1c8764",
      "contractAddress": null
    }
  ],
  "libraries": [],
  "pending": [],
  "returns": {},
  "timestamp": 1737486973,
  "chain": 11155111,
  "commit": "51a374b"
}