{
  "transactions": [
    {
      "hash": "0x3a78e7a63448a485fcc5ec83612c779709c84355017c61da54d22350061db33f",
      "transactionType": "CALL",
      "contractName": null,
      "contractAddress": "0x8aafd3ede9adb0ff97c7aebce82a919afb1c8764",
      "function": "sell(uint256)",
      "arguments": [
        "15771667516345652"
      ],
      "transaction": {
        "from": "0xc77f7fed3b5cc8249adc428c5f44c9063b9734b4",
        "to": "0x8aafd3ede9adb0ff97c7aebce82a919afb1c8764",
        "gas": "0x1724d",
        "value": "0x0",
        "input": "0xe4849b320000000000000000000000000000000000000000000000000038083f7fd3cd34",
        "nonce": "0x1417",
        "chainId": "0xaa36a7"
      },
      "additionalContracts": [],
      "isFixedGasLimit": false
    }
  ],
  "receipts": [
    {
      "status": "0x1",
      "cumulativeGasUsed": "0x121bd7c",
      "logs": [
        {
          "address": "0x8aafd3ede9adb0ff97c7aebce82a919afb1c8764",
          "topics": [
            "0xddf252ad1be2c89b69c2b068fc378daa952ba7f163c4a11628f55a4df523b3ef",
            "0x000000000000000000000000c77f7fed3b5cc8249adc428c5f44c9063b9734b4",
            "0x0000000000000000000000000000000000000000000000000000000000000000"
          ],
          "data": "0x0000000000000000000000000000000000000000000000000037957e7ab56f67",
          "blockHash": "0x465ddea2c8221ee5caa99fa6e3c6488c506900b27f66776f4b80350a50cbeb38",
          "blockNumber": "0x731b52",
          "transactionHash": "0x3a78e7a63448a485fcc5ec83612c779709c84355017c61da54d22350061db33f",
          "transactionIndex": "0xa1",
          "logIndex": "0xfa",
          "removed": false
        },
        {
          "address": "0x8aafd3ede9adb0ff97c7aebce82a919afb1c8764",
          "topics": [
            "0xddf252ad1be2c89b69c2b068fc378daa952ba7f163c4a11628f55a4df523b3ef",
            "0x000000000000000000000000c77f7fed3b5cc8249adc428c5f44c9063b9734b4",
            "0x000000000000000000000000c77f7fed3b5cc8249adc428c5f44c9063b9734b4"
          ],
          "data": "0x000000000000000000000000000000000000000000000000000072c1051e5dcd",
          "blockHash": "0x465ddea2c8221ee5caa99fa6e3c6488c506900b27f66776f4b80350a50cbeb38",
          "blockNumber": "0x731b52",
          "transactionHash": "0x3a78e7a63448a485fcc5ec83612c779709c84355017c61da54d22350061db33f",
          "transactionIndex": "0xa1",
          "logIndex": "0xfb",
          "removed": false
        },
        {
          "address": "0x8aafd3ede9adb0ff97c7aebce82a919afb1c8764",
          "topics": [
            "0x4afcb4a87cdbd9974efdb92ee48bc8d7cd0ae4bf217004db3d080cbaee652ca7"
          ],
          "data": "0x00000000000000000000000000000000000000000000000000000000679044a8000000000000000000000000000000000000000000000000000e6b1e3caa972700000000000000000000000000000000000000000000000000003a370ea87c34",
          "blockHash": "0x465ddea2c8221ee5caa99fa6e3c6488c506900b27f66776f4b80350a50cbeb38",
          "blockNumber": "0x731b52",
          "transactionHash": "0x3a78e7a63448a485fcc5ec83612c779709c84355017c61da54d22350061db33f",
          "transactionIndex": "0xa1",
          "logIndex": "0xfc",
          "removed": false
        }
      ],
      "logsBloom": "0x00000000000000000000000000000000000000000600000000000000000000000000000000000000000000000000000000000000000000004000000000000000000000000000004000000008000000000000000000000000000000000000000000000000020000000000000000000800020000000000000000000010000000000000000000000000000000000000000000000000000000000000010000000000000000000000000000000000000000004000000000000000000000000000000000000002000000800000000000000000000000000000080000000000000020000000000000000000000000000000000000000000000000000000000000000000",
      "type": "0x2",
      "transactionHash": "0x3a78e7a63448a485fcc5ec83612c779709c84355017c61da54d22350061db33f",
      "transactionIndex": "0xa1",
      "blockHash": "0x465ddea2c8221ee5caa99fa6e3c6488c506900b27f66776f4b80350a50cbeb38",
      "blockNumber": "0x731b52",
      "gasUsed": "0xfd33",
      "effectiveGasPrice": "0xd6198163",
      "from": "0xc77f7fed3b5cc8249adc428c5f44c9063b9734b4",
      "to": "0x8aafd3ede9adb0ff97c7aebce82a919afb1c8764",
      "contractAddress": null
    }
  ],
  "libraries": [],
  "pending": [],
  "returns": {},
  "timestamp": 1737508009,
  "chain": 11155111,
  "commit": "1d2fb70"
}