{
  "transactions": [
    {
      "hash": "0x56e04d20b03eefd695afd28e80714cf2e8558d6abf3d556330b07cdafd7cee1e",
      "transactionType": "CALL",
      "contractName": null,
      "contractAddress": "0xd7bc75898e513accccf720a874d44dab5a4b6223",
      "function": "buy(address)",
      "arguments": [
        "0xC77f7fed3b5Cc8249aDc428c5F44C9063B9734b4"
      ],
      "transaction": {
        "from": "0xc77f7fed3b5cc8249adc428c5f44c9063b9734b4",
        "to": "0xd7bc75898e513accccf720a874d44dab5a4b6223",
        "gas": "0x1b30c",
        "value": "0x2386f26fc10000",
        "input": "0xf088d547000000000000000000000000c77f7fed3b5cc8249adc428c5f44c9063b9734b4",
        "nonce": "0xcc",
        "chainId": "0xaa36a7"
      },
      "additionalContracts": [],
      "isFixedGasLimit": false
    }
  ],
  "receipts": [
    {
      "status": "0x1",
      "cumulativeGasUsed": "0x5aec18",
      "logs": [
        {
          "address": "0xd7bc75898e513accccf720a874d44dab5a4b6223",
          "topics": [
            "0xddf252ad1be2c89b69c2b068fc378daa952ba7f163c4a11628f55a4df523b3ef",
            "0x0000000000000000000000000000000000000000000000000000000000000000",
            "0x000000000000000000000000c77f7fed3b5cc8249adc428c5f44c9063b9734b4"
          ],
          "data": "0x0000000000000000000000000000000000000000000000008963bb369e6cd393",
          "blockHash": "0x20314ecabc34c1df72bc675e996cb3e3166669e804776f0c6ef3e3cc98496d30",
          "blockNumber": "0x72394b",
          "transactionHash": "0x56e04d20b03eefd695afd28e80714cf2e8558d6abf3d556330b07cdafd7cee1e",
          "transactionIndex": "0x33",
          "logIndex": "0x41",
          "removed": false
        },
        {
          "address": "0xd7bc75898e513accccf720a874d44dab5a4b6223",
          "topics": [
            "0xddf252ad1be2c89b69c2b068fc378daa952ba7f163c4a11628f55a4df523b3ef",
            "0x0000000000000000000000000000000000000000000000000000000000000000",
            "0x000000000000000000000000c77f7fed3b5cc8249adc428c5f44c9063b9734b4"
          ],
          "data": "0x000000000000000000000000000000000000000000000000006ab00c8f253926",
          "blockHash": "0x20314ecabc34c1df72bc675e996cb3e3166669e804776f0c6ef3e3cc98496d30",
          "blockNumber": "0x72394b",
          "transactionHash": "0x56e04d20b03eefd695afd28e80714cf2e8558d6abf3d556330b07cdafd7cee1e",
          "transactionIndex": "0x33",
          "logIndex": "0x42",
          "removed": false
        },
        {
          "address": "0xd7bc75898e513accccf720a874d44dab5a4b6223",
          "topics": [
            "0x4afcb4a87cdbd9974efdb92ee48bc8d7cd0ae4bf217004db3d080cbaee652ca7"
          ],
          "data": "0x000000000000000000000000000000000000000000000000000000006785a0cc00000000000000000000000000000000000000000000000000038d7f882195b9000000000000000000000000000000000000000000000000002386f26fc10000",
          "blockHash": "0x20314ecabc34c1df72bc675e996cb3e3166669e804776f0c6ef3e3cc98496d30",
          "blockNumber": "0x72394b",
          "transactionHash": "0x56e04d20b03eefd695afd28e80714cf2e8558d6abf3d556330b07cdafd7cee1e",
          "transactionIndex": "0x33",
          "logIndex": "0x43",
          "removed": false
        }
      ],
      "logsBloom": "0x00000000000000000000000000000000000000000000000000000000000000000000000000000000000000000000000000000000000000004000000000000000000000000000000000000008000000000000000000000000000000000000000000000000020000000000000000000800020000000000000000000010000000000000000000000000000000000000000000000000000000000000010000000000000000000000000000000000000000004000001000000000000000000000000000000002000000800000000000004000000000000000080000000000000020000000000000000000000000000000000000000000080000000000000000000000",
      "type": "0x2",
      "transactionHash": "0x56e04d20b03eefd695afd28e80714cf2e8558d6abf3d556330b07cdafd7cee1e",
      "transactionIndex": "0x33",
      "blockHash": "0x20314ecabc34c1df72bc675e996cb3e3166669e804776f0c6ef3e3cc98496d30",
      "blockNumber": "0x72394b",
      "gasUsed": "0x13af8",
      "effectiveGasPrice": "0x364fbf71",
      "from": "0xc77f7fed3b5cc8249adc428c5f44c9063b9734b4",
      "to": "0xd7bc75898e513accccf720a874d44dab5a4b6223",
      "contractAddress": null
    }
  ],
  "libraries": [],
  "pending": [],
  "returns": {},
  "timestamp": 1736810702,
  "chain": 11155111,
  "commit": "51a374b"
}