{
  "transactions": [
    {
      "hash": "0xbab9cda551113a455e61c4c2875fd864ae70ccc025556f4de81101711e22591b",
      "transactionType": "CALL",
      "contractName": null,
      "contractAddress": "0x8aafd3ede9adb0ff97c7aebce82a919afb1c8764",
      "function": "sell(uint256)",
      "arguments": [
        "8375158410"
      ],
      "transaction": {
        "from": "0xc77f7fed3b5cc8249adc428c5f44c9063b9734b4",
        "to": "0x8aafd3ede9adb0ff97c7aebce82a919afb1c8764",
        "gas": "0x1722a",
        "value": "0x0",
        "input": "0xe4849b3200000000000000000000000000000000000000000000000000000001f332c68a",
        "nonce": "0x13ed",
        "chainId": "0xaa36a7"
      },
      "additionalContracts": [],
      "isFixedGasLimit": false
    }
  ],
  "receipts": [
    {
      "status": "0x1",
      "cumulativeGasUsed": "0x92b725",
      "logs": [
        {
          "address": "0x8aafd3ede9adb0ff97c7aebce82a919afb1c8764",
          "topics": [
            "0xddf252ad1be2c89b69c2b068fc378daa952ba7f163c4a11628f55a4df523b3ef",
            "0x000000000000000000000000c77f7fed3b5cc8249adc428c5f44c9063b9734b4",
            "0x0000000000000000000000000000000000000000000000000000000000000000"
          ],
          "data": "0x00000000000000000000000000000000000000000000000000000001ef346ad7",
          "blockHash": "0x0481708019505c97a71116ad1cf07bfc5004f4818d5c3e5d28079bef3d8b92a6",
          "blockNumber": "0x731b1d",
          "transactionHash": "0xbab9cda551113a455e61c4c2875fd864ae70ccc025556f4de81101711e22591b",
          "transactionIndex": "0x53",
          "logIndex": "0x65",
          "removed": false
        },
        {
          "address": "0x8aafd3ede9adb0ff97c7aebce82a919afb1c8764",
          "topics": [
            "0xddf252ad1be2c89b69c2b068fc378daa952ba7f163c4a11628f55a4df523b3ef",
            "0x000000000000000000000000c77f7fed3b5cc8249adc428c5f44c9063b9734b4",
            "0x000000000000000000000000c77f7fed3b5cc8249adc428c5f44c9063b9734b4"
          ],
          "data": "0x0000000000000000000000000000000000000000000000000000000003fe5bb3",
          "blockHash": "0x0481708019505c97a71116ad1cf07bfc5004f4818d5c3e5d28079bef3d8b92a6",
          "blockNumber": "0x731b1d",
          "transactionHash": "0xbab9cda551113a455e61c4c2875fd864ae70ccc025556f4de81101711e22591b",
          "transactionIndex": "0x53",
          "logIndex": "0x66",
          "removed": false
        },
        {
          "address": "0x8aafd3ede9adb0ff97c7aebce82a919afb1c8764",
          "topics": [
            "0x4afcb4a87cdbd9974efdb92ee48bc8d7cd0ae4bf217004db3d080cbaee652ca7"
          ],
          "data": "0x000000000000000000000000000000000000000000000000000000006790422c000000000000000000000000000000000000000000000000000de7c2280eade30000000000000000000000000000000000000000000000000000000001f4302e",
          "blockHash": "0x0481708019505c97a71116ad1cf07bfc5004f4818d5c3e5d28079bef3d8b92a6",
          "blockNumber": "0x731b1d",
          "transactionHash": "0xbab9cda551113a455e61c4c2875fd864ae70ccc025556f4de81101711e22591b",
          "transactionIndex": "0x53",
          "logIndex": "0x67",
          "removed": false
        }
      ],
      "logsBloom": "0x00000000000000000000000000000000000000000600000000000000000000000000000000000000000000000000000000000000000000004000000000000000000000000000004000000008000000000000000000000000000000000000000000000000020000000000000000000800020000000000000000000010000000000000000000000000000000000000000000000000000000000000010000000000000000000000000000000000000000004000000000000000000000000000000000000002000000800000000000000000000000000000080000000000000020000000000000000000000000000000000000000000000000000000000000000000",
      "type": "0x2",
      "transactionHash": "0xbab9cda551113a455e61c4c2875fd864ae70ccc025556f4de81101711e22591b",
      "transactionIndex": "0x53",
      "blockHash": "0x0481708019505c97a71116ad1cf07bfc5004f4818d5c3e5d28079bef3d8b92a6",
      "blockNumber": "0x731b1d",
      "gasUsed": "0xfd1b",
      "effectiveGasPrice": "0x97759a8c",
      "from": "0xc77f7fed3b5cc8249adc428c5f44c9063b9734b4",
      "to": "0x8aafd3ede9adb0ff97c7aebce82a919afb1c8764",
      "contractAddress": null
    }
  ],
  "libraries": [],
  "pending": [],
  "returns": {},
  "timestamp": 1737507373,
  "chain": 11155111,
  "commit": "1d2fb70"
}