{
  "transactions": [
    {
      "hash": "0xa6b47391139a122fe998c403380831234f389cc4223f11fa8bcf496b424262ec",
      "transactionType": "CALL",
      "contractName": null,
      "contractAddress": "0xd7bc75898e513accccf720a874d44dab5a4b6223",
      "function": "sell(uint256)",
      "arguments": [
        "9929991169213327095"
      ],
      "transaction": {
        "from": "0xc77f7fed3b5cc8249adc428c5f44c9063b9734b4",
        "to": "0xd7bc75898e513accccf720a874d44dab5a4b6223",
        "gas": "0x15b6b",
        "value": "0x0",
        "input": "0xe4849b3200000000000000000000000000000000000000000000000089ce6a5b67b9e6f7",
        "nonce": "0x10b",
        "chainId": "0xaa36a7"
      },
      "additionalContracts": [],
      "isFixedGasLimit": false
    }
  ],
  "receipts": [
    {
      "status": "0x1",
      "cumulativeGasUsed": "0x668977",
      "logs": [
        {
          "address": "0xd7bc75898e513accccf720a874d44dab5a4b6223",
          "topics": [
            "0xddf252ad1be2c89b69c2b068fc378daa952ba7f163c4a11628f55a4df523b3ef",
            "0x000000000000000000000000c77f7fed3b5cc8249adc428c5f44c9063b9734b4",
            "0x0000000000000000000000000000000000000000000000000000000000000000"
          ],
          "data": "0x00000000000000000000000000000000000000000000000089ce6a5b67b9e6f7",
          "blockHash": "0x394e5ed99fdfb926f944dfdaf9fca1198de7ee329997db7d49fee941ed0a3695",
          "blockNumber": "0x72399e",
          "transactionHash": "0xa6b47391139a122fe998c403380831234f389cc4223f11fa8bcf496b424262ec",
          "transactionIndex": "0x46",
          "logIndex": "0x36",
          "removed": false
        },
        {
          "address": "0xd7bc75898e513accccf720a874d44dab5a4b6223",
          "topics": [
            "0x4afcb4a87cdbd9974efdb92ee48bc8d7cd0ae4bf217004db3d080cbaee652ca7"
          ],
          "data": "0x000000000000000000000000000000000000000000000000000000006785a4bc00000000000000000000000000000000000000000000000000038d7f8e3acd450000000000000000000000000000000000000000000000000023474f493d2797",
          "blockHash": "0x394e5ed99fdfb926f944dfdaf9fca1198de7ee329997db7d49fee941ed0a3695",
          "blockNumber": "0x72399e",
          "transactionHash": "0xa6b47391139a122fe998c403380831234f389cc4223f11fa8bcf496b424262ec",
          "transactionIndex": "0x46",
          "logIndex": "0x37",
          "removed": false
        }
      ],
      "logsBloom": "0x00000000000000000000000000000000000000000000000000000000000000000000000000000000000000000000000000000000000000004000000000000000000000000000000000000008000000000000000000000000000000000000000000000000020000000000000000000800020000000000000000000010000000000000000000000000000000000000000000000000000000000000010000000000000000000000000000000000000000004000001000000000000000000000000000000002000000800000000000004000000000000000080000000000000020000000000000000000000000000000000000000000080000000000000000000000",
      "type": "0x2",
      "transactionHash": "0xa6b47391139a122fe998c403380831234f389cc4223f11fa8bcf496b424262ec",
      "transactionIndex": "0x46",
      "blockHash": "0x394e5ed99fdfb926f944dfdaf9fca1198de7ee329997db7d49fee941ed0a3695",
      "blockNumber": "0x72399e",
      "gasUsed": "0xfb87",
      "effectiveGasPrice": "0x22ebf3b80",
      "from": "0xc77f7fed3b5cc8249adc428c5f44c9063b9734b4",
      "to": "0xd7bc75898e513accccf720a874d44dab5a4b6223",
      "contractAddress": null
    }
  ],
  "libraries": [],
  "pending": [],
  "returns": {},
  "timestamp": 1736811709,
  "chain": 11155111,
  "commit": "51a374b"
}