{
  "transactions": [
    {
      "hash": "0x43fd78b895e4b75e90ecc19700be7c7dd80d87ebecf3e30299a0e8bea563160b",
      "transactionType": "CALL",
      "contractName": null,
      "contractAddress": "0x270e88f8683660553e8ba4eb2ad7c91a1710d769",
      "function": "buy(address)",
      "arguments": [
        "0xC77f7fed3b5Cc8249aDc428c5F44C9063B9734b4"
      ],
      "transaction": {
        "from": "0xc77f7fed3b5cc8249adc428c5f44c9063b9734b4",
        "to": "0x270e88f8683660553e8ba4eb2ad7c91a1710d769",
        "gas": "0x1b30c",
        "value": "0xde0b6b3a7640000",
        "input": "0xf088d547000000000000000000000000c77f7fed3b5cc8249adc428c5f44c9063b9734b4",
        "nonce": "0x7e7",
        "chainId": "0xaa36a7"
      },
      "additionalContracts": [],
      "isFixedGasLimit": false
    }
  ],
  "receipts": [
    {
      "status": "0x1",
      "cumulativeGasUsed": "0xb693a8",
      "logs": [
        {
          "address": "0x270e88f8683660553e8ba4eb2ad7c91a1710d769",
          "topics": [
            "0xddf252ad1be2c89b69c2b068fc378daa952ba7f163c4a11628f55a4df523b3ef",
            "0x0000000000000000000000000000000000000000000000000000000000000000",
            "0x000000000000000000000000c77f7fed3b5cc8249adc428c5f44c9063b9734b4"
          ],
          "data": "0x0000000000000000000000000000000000000000000000272e8204852c7db4bc",
          "blockHash": "0xc53ac606204b3d0ee4ab8d34b2df7d3f424964b1d2c77f176620aeadd17f976a",
          "blockNumber": "0x725522",
          "transactionHash": "0x43fd78b895e4b75e90ecc19700be7c7dd80d87ebecf3e30299a0e8bea563160b",
          "transactionIndex": "0x57",
          "logIndex": "0xa5",
          "removed": false
        },
        {
          "address": "0x270e88f8683660553e8ba4eb2ad7c91a1710d769",
          "topics": [
            "0xddf252ad1be2c89b69c2b068fc378daa952ba7f163c4a11628f55a4df523b3ef",
            "0x0000000000000000000000000000000000000000000000000000000000000000",
            "0x000000000000000000000000c77f7fed3b5cc8249adc428c5f44c9063b9734b4"
          ],
          "data": "0x0000000000000000000000000000000000000000000000001e6d0810fda072c2",
          "blockHash": "0xc53ac606204b3d0ee4ab8d34b2df7d3f424964b1d2c77f176620aeadd17f976a",
          "blockNumber": "0x725522",
          "transactionHash": "0x43fd78b895e4b75e90ecc19700be7c7dd80d87ebecf3e30299a0e8bea563160b",
          "transactionIndex": "0x57",
          "logIndex": "0xa6",
          "removed": false
        },
        {
          "address": "0x270e88f8683660553e8ba4eb2ad7c91a1710d769",
          "topics": [
            "0x4afcb4a87cdbd9974efdb92ee48bc8d7cd0ae4bf217004db3d080cbaee652ca7"
          ],
          "data": "0x000000000000000000000000000000000000000000000000000000006786efa00000000000000000000000000000000000000000000000000004dddc24b054b80000000000000000000000000000000000000000000000000de0b6b3a7640000",
          "blockHash": "0xc53ac606204b3d0ee4ab8d34b2df7d3f424964b1d2c77f176620aeadd17f976a",
          "blockNumber": "0x725522",
          "transactionHash": "0x43fd78b895e4b75e90ecc19700be7c7dd80d87ebecf3e30299a0e8bea563160b",
          "transactionIndex": "0x57",
          "logIndex": "0xa7",
          "removed": false
        }
      ],
      "logsBloom": "0x00000000000000000000000000000000000000000000000000000000000000000000000000000000000000000000000020000000000000004000000000000000000000000000000000000008000000000000000000000000000000000000000000000000020000000000000000000800020000000000000000000010000000000000000000010000000000000000000000000000000000000000010000000000000000000000000000000000000000004000000000000000000000000000000000000002000000800000000000000000000000000000080000008000000020000000000000000000000000000000000000000000000000000000000000000000",
      "type": "0x2",
      "transactionHash": "0x43fd78b895e4b75e90ecc19700be7c7dd80d87ebecf3e30299a0e8bea563160b",
      "transactionIndex": "0x57",
      "blockHash": "0xc53ac606204b3d0ee4ab8d34b2df7d3f424964b1d2c77f176620aeadd17f976a",
      "blockNumber": "0x725522",
      "gasUsed": "0x13af8",
      "effectiveGasPrice": "0xac64ec36",
      "from": "0xc77f7fed3b5cc8249adc428c5f44c9063b9734b4",
      "to": "0x270e88f8683660553e8ba4eb2ad7c91a1710d769",
      "contractAddress": null
    }
  ],
  "libraries": [],
  "pending": [],
  "returns": {},
  "timestamp": 1736896417,
  "chain": 11155111,
  "commit": "51a374b"
}