{
  "transactions": [
    {
      "hash": "0xaf9c4b8ebbdf10ffe571adb7b7e86b41a04a8a94b02d6a5720f74a8ca56c19b8",
      "transactionType": "CALL",
      "contractName": null,
      "contractAddress": "0x8aafd3ede9adb0ff97c7aebce82a919afb1c8764",
      "function": "sell(uint256)",
      "arguments": [
        "24293658768"
      ],
      "transaction": {
        "from": "0xc77f7fed3b5cc8249adc428c5f44c9063b9734b4",
        "to": "0x8aafd3ede9adb0ff97c7aebce82a919afb1c8764",
        "gas": "0x1722a",
        "value": "0x0",
        "input": "0xe4849b3200000000000000000000000000000000000000000000000000000005a803d090",
        "nonce": "0xf8a",
        "chainId": "0xaa36a7"
      },
      "additionalContracts": [],
      "isFixedGasLimit": false
    }
  ],
  "receipts": [
    {
      "status": "0x1",
      "cumulativeGasUsed": "0x125d169",
      "logs": [
        {
          "address": "0x8aafd3ede9adb0ff97c7aebce82a919afb1c8764",
          "topics": [
            "0xddf252ad1be2c89b69c2b068fc378daa952ba7f163c4a11628f55a4df523b3ef",
            "0x000000000000000000000000c77f7fed3b5cc8249adc428c5f44c9063b9734b4",
            "0x0000000000000000000000000000000000000000000000000000000000000000"
          ],
          "data": "0x000000000000000000000000000000000000000000000000000000059c6e47ba",
          "blockHash": "0x583dd707987c0e6040d100b8c4c071beba4a41eb857111f1bf6b0a4dc3c0b2d3",
          "blockNumber": "0x7315ef",
          "transactionHash": "0xaf9c4b8ebbdf10ffe571adb7b7e86b41a04a8a94b02d6a5720f74a8ca56c19b8",
          "transactionIndex": "0x91",
          "logIndex": "0xe1",
          "removed": false
        },
        {
          "address": "0x8aafd3ede9adb0ff97c7aebce82a919afb1c8764",
          "topics": [
            "0xddf252ad1be2c89b69c2b068fc378daa952ba7f163c4a11628f55a4df523b3ef",
            "0x000000000000000000000000c77f7fed3b5cc8249adc428c5f44c9063b9734b4",
            "0x000000000000000000000000c77f7fed3b5cc8249adc428c5f44c9063b9734b4"
          ],
          "data": "0x000000000000000000000000000000000000000000000000000000000b9588d6",
          "blockHash": "0x583dd707987c0e6040d100b8c4c071beba4a41eb857111f1bf6b0a4dc3c0b2d3",
          "blockNumber": "0x7315ef",
          "transactionHash": "0xaf9c4b8ebbdf10ffe571adb7b7e86b41a04a8a94b02d6a5720f74a8ca56c19b8",
          "transactionIndex": "0x91",
          "logIndex": "0xe2",
          "removed": false
        },
        {
          "address": "0x8aafd3ede9adb0ff97c7aebce82a919afb1c8764",
          "topics": [
            "0x4afcb4a87cdbd9974efdb92ee48bc8d7cd0ae4bf217004db3d080cbaee652ca7"
          ],
          "data": "0x00000000000000000000000000000000000000000000000000000000679003e00000000000000000000000000000000000000000000000000004c27f5aa1b8390000000000000000000000000000000000000000000000000000000001f0a299",
          "blockHash": "0x583dd707987c0e6040d100b8c4c071beba4a41eb857111f1bf6b0a4dc3c0b2d3",
          "blockNumber": "0x7315ef",
          "transactionHash": "0xaf9c4b8ebbdf10ffe571adb7b7e86b41a04a8a94b02d6a5720f74a8ca56c19b8",
          "transactionIndex": "0x91",
          "logIndex": "0xe3",
          "removed": false
        }
      ],
      "logsBloom": "0x00000000000000000000000000000000000000000600000000000000000000000000000000000000000000000000000000000000000000004000000000000000000000000000004000000008000000000000000000000000000000000000000000000000020000000000000000000800020000000000000000000010000000000000000000000000000000000000000000000000000000000000010000000000000000000000000000000000000000004000000000000000000000000000000000000002000000800000000000000000000000000000080000000000000020000000000000000000000000000000000000000000000000000000000000000000",
      "type": "0x2",
      "transactionHash": "0xaf9c4b8ebbdf10ffe571adb7b7e86b41a04a8a94b02d6a5720f74a8ca56c19b8",
      "transactionIndex": "0x91",
      "blockHash": "0x583dd707987c0e6040d100b8c4c071beba4a41eb857111f1bf6b0a4dc3c0b2d3",
      "blockNumber": "0x7315ef",
      "gasUsed": "0xfd1b",
      "effectiveGasPrice": "0x6180e8f9",
      "from": "0xc77f7fed3b5cc8249adc428c5f44c9063b9734b4",
      "to": "0x8aafd3ede9adb0ff97c7aebce82a919afb1c8764",
      "contractAddress": null
    }
  ],
  "libraries": [],
  "pending": [],
  "returns": {},
  "timestamp": 1737491425,
  "chain": 11155111,
  "commit": "1d2fb70"
}