{
  "transactions": [
    {
      "hash": "0xdea1959ce6e3d9411e7b736392de25b614fd75898771001e52318a61e0209c04",
      "transactionType": "CALL",
      "contractName": null,
      "contractAddress": "0x270e88f8683660553e8ba4eb2ad7c91a1710d769",
      "function": "buy(address)",
      "arguments": [
        "0xC77f7fed3b5Cc8249aDc428c5F44C9063B9734b4"
      ],
      "transaction": {
        "from": "0xc77f7fed3b5cc8249adc428c5f44c9063b9734b4",
        "to": "0x270e88f8683660553e8ba4eb2ad7c91a1710d769",
        "gas": "0x1b30c",
        "value": "0xde0b6b3a7640000",
        "input": "0xf088d547000000000000000000000000c77f7fed3b5cc8249adc428c5f44c9063b9734b4",
        "nonce": "0x554",
        "chainId": "0xaa36a7"
      },
      "additionalContracts": [],
      "isFixedGasLimit": false
    }
  ],
  "receipts": [
    {
      "status": "0x1",
      "cumulativeGasUsed": "0xa13946",
      "logs": [
        {
          "address": "0x270e88f8683660553e8ba4eb2ad7c91a1710d769",
          "topics": [
            "0xddf252ad1be2c89b69c2b068fc378daa952ba7f163c4a11628f55a4df523b3ef",
            "0x0000000000000000000000000000000000000000000000000000000000000000",
            "0x000000000000000000000000c77f7fed3b5cc8249adc428c5f44c9063b9734b4"
          ],
          "data": "0x00000000000000000000000000000000000000000000003495df941e55e1e540",
          "blockHash": "0x2c4c27a74695d25106ed34109a036a945b07d4b9978993b244ebe7e9879ebb55",
          "blockNumber": "0x7251f5",
          "transactionHash": "0xdea1959ce6e3d9411e7b736392de25b614fd75898771001e52318a61e0209c04",
          "transactionIndex": "0x53",
          "logIndex": "0x82",
          "removed": false
        },
        {
          "address": "0x270e88f8683660553e8ba4eb2ad7c91a1710d769",
          "topics": [
            "0xddf252ad1be2c89b69c2b068fc378daa952ba7f163c4a11628f55a4df523b3ef",
            "0x0000000000000000000000000000000000000000000000000000000000000000",
            "0x000000000000000000000000c77f7fed3b5cc8249adc428c5f44c9063b9734b4"
          ],
          "data": "0x00000000000000000000000000000000000000000000000028d59a9563727c7d",
          "blockHash": "0x2c4c27a74695d25106ed34109a036a945b07d4b9978993b244ebe7e9879ebb55",
          "blockNumber": "0x7251f5",
          "transactionHash": "0xdea1959ce6e3d9411e7b736392de25b614fd75898771001e52318a61e0209c04",
          "transactionIndex": "0x53",
          "logIndex": "0x83",
          "removed": false
        },
        {
          "address": "0x270e88f8683660553e8ba4eb2ad7c91a1710d769",
          "topics": [
            "0x4afcb4a87cdbd9974efdb92ee48bc8d7cd0ae4bf217004db3d080cbaee652ca7"
          ],
          "data": "0x000000000000000000000000000000000000000000000000000000006786c96c0000000000000000000000000000000000000000000000000003a052983d68250000000000000000000000000000000000000000000000000de0b6b3a7640000",
          "blockHash": "0x2c4c27a74695d25106ed34109a036a945b07d4b9978993b244ebe7e9879ebb55",
          "blockNumber": "0x7251f5",
          "transactionHash": "0xdea1959ce6e3d9411e7b736392de25b614fd75898771001e52318a61e0209c04",
          "transactionIndex": "0x53",
          "logIndex": "0x84",
          "removed": false
        }
      ],
      "logsBloom": "0x00000000000000000000000000000000000000000000000000000000000000000000000000000000000000000000000020000000000000004000000000000000000000000000000000000008000000000000000000000000000000000000000000000000020000000000000000000800020000000000000000000010000000000000000000010000000000000000000000000000000000000000010000000000000000000000000000000000000000004000000000000000000000000000000000000002000000800000000000000000000000000000080000008000000020000000000000000000000000000000000000000000000000000000000000000000",
      "type": "0x2",
      "transactionHash": "0xdea1959ce6e3d9411e7b736392de25b614fd75898771001e52318a61e0209c04",
      "transactionIndex": "0x53",
      "blockHash": "0x2c4c27a74695d25106ed34109a036a945b07d4b9978993b244ebe7e9879ebb55",
      "blockNumber": "0x7251f5",
      "gasUsed": "0x13af8",
      "effectiveGasPrice": "0x4425d1228",
      "from": "0xc77f7fed3b5cc8249adc428c5f44c9063b9734b4",
      "to": "0x270e88f8683660553e8ba4eb2ad7c91a1710d769",
      "contractAddress": null
    }
  ],
  "libraries": [],
  "pending": [],
  "returns": {},
  "timestamp": 1736886637,
  "chain": 11155111,
  "commit": "51a374b"
}