{
  "transactions": [
    {
      "hash": "0xfeb8a829d6ac2e5a807f5aeb9ce1b42d95dc05f2000ca37b592d80c87372238b",
      "transactionType": "CALL",
      "contractName": null,
      "contractAddress": "0xbf4a322f1496e5c3d34a9bcdb4c60567b38c7de2",
      "function": "buy(address)",
      "arguments": [
        "0xC77f7fed3b5Cc8249aDc428c5F44C9063B9734b4"
      ],
      "transaction": {
        "from": "0xc77f7fed3b5cc8249adc428c5f44c9063b9734b4",
        "to": "0xbf4a322f1496e5c3d34a9bcdb4c60567b38c7de2",
        "gas": "0x1b309",
        "value": "0xde0b6b3a7640000",
        "input": "0xf088d547000000000000000000000000c77f7fed3b5cc8249adc428c5f44c9063b9734b4",
        "nonce": "0x942",
        "chainId": "0xaa36a7"
      },
      "additionalContracts": [],
      "isFixedGasLimit": false
    }
  ],
  "receipts": [
    {
      "status": "0x1",
      "cumulativeGasUsed": "0x181cdb3",
      "logs": [
        {
          "address": "0xbf4a322f1496e5c3d34a9bcdb4c60567b38c7de2",
          "topics": [
            "0xddf252ad1be2c89b69c2b068fc378daa952ba7f163c4a11628f55a4df523b3ef",
            "0x0000000000000000000000000000000000000000000000000000000000000000",
            "0x000000000000000000000000c77f7fed3b5cc8249adc428c5f44c9063b9734b4"
          ],
          "data": "0x0000000000000000000000000000000000000000000000357f1ff219bb9c535c",
          "blockHash": "0x1a145ff1549f7841b8fe3cf57c193f642e780c67d82cc470d3d9fa79306e2624",
          "blockNumber": "0x7258cd",
          "transactionHash": "0xfeb8a829d6ac2e5a807f5aeb9ce1b42d95dc05f2000ca37b592d80c87372238b",
          "transactionIndex": "0x89",
          "logIndex": "0x10e",
          "removed": false
        },
        {
          "address": "0xbf4a322f1496e5c3d34a9bcdb4c60567b38c7de2",
          "topics": [
            "0xddf252ad1be2c89b69c2b068fc378daa952ba7f163c4a11628f55a4df523b3ef",
            "0x0000000000000000000000000000000000000000000000000000000000000000",
            "0x000000000000000000000000c77f7fed3b5cc8249adc428c5f44c9063b9734b4"
          ],
          "data": "0x000000000000000000000000000000000000000000000000298abb45fd4ac7de",
          "blockHash": "0x1a145ff1549f7841b8fe3cf57c193f642e780c67d82cc470d3d9fa79306e2624",
          "blockNumber": "0x7258cd",
          "transactionHash": "0xfeb8a829d6ac2e5a807f5aeb9ce1b42d95dc05f2000ca37b592d80c87372238b",
          "transactionIndex": "0x89",
          "logIndex": "0x10f",
          "removed": false
        },
        {
          "address": "0xbf4a322f1496e5c3d34a9bcdb4c60567b38c7de2",
          "topics": [
            "0x4afcb4a87cdbd9974efdb92ee48bc8d7cd0ae4bf217004db3d080cbaee652ca7"
          ],
          "data": "0x0000000000000000000000000000000000000000000000000000000067871bc80000000000000000000000000000000000000000000000000003906b100a3be30000000000000000000000000000000000000000000000000de0b6b3a7640000",
          "blockHash": "0x1a145ff1549f7841b8fe3cf57c193f642e780c67d82cc470d3d9fa79306e2624",
          "blockNumber": "0x7258cd",
          "transactionHash": "0xfeb8a829d6ac2e5a807f5aeb9ce1b42d95dc05f2000ca37b592d80c87372238b",
          "transactionIndex": "0x89",
          "logIndex": "0x110",
          "removed": false
        }
      ],
      "logsBloom": "0x00000000000000000000000000000000000000000000000000000000000000000000000000000000000000000000000000000000000000004000000000000000000000000000000000000008000000000000001000000000000000000000000000000000020000000000000000000800020000000000000000000010000000000000000000000000000000000000000000000000000008000000010000000000000000000000000000000000000000004000000000000000000000000000000000000002000000800000000000001000000000000000080000000000000020000000000000000000000000000000000000000000000000000000000000000000",
      "type": "0x2",
      "transactionHash": "0xfeb8a829d6ac2e5a807f5aeb9ce1b42d95dc05f2000ca37b592d80c87372238b",
      "transactionIndex": "0x89",
      "blockHash": "0x1a145ff1549f7841b8fe3cf57c193f642e780c67d82cc470d3d9fa79306e2624",
      "blockNumber": "0x7258cd",
      "gasUsed": "0x13af6",
      "effectiveGasPrice": "0x53174ff5",
      "from": "0xc77f7fed3b5cc8249adc428c5f44c9063b9734b4",
      "to": "0xbf4a322f1496e5c3d34a9bcdb4c60567b38c7de2",
      "contractAddress": null
    }
  ],
  "libraries": [],
  "pending": [],
  "returns": {},
  "timestamp": 1736907721,
  "chain": 11155111,
  "commit": "51a374b"
}