{
  "transactions": [
    {
      "hash": "0x2e8a8c3a470dd2f23449ad705905801f5dbf6afaaa1c0867d1b14ff2651a2581",
      "transactionType": "CALL",
      "contractName": null,
      "contractAddress": "0xbf4a322f1496e5c3d34a9bcdb4c60567b38c7de2",
      "function": "buy(address)",
      "arguments": [
        "0xC77f7fed3b5Cc8249aDc428c5F44C9063B9734b4"
      ],
      "transaction": {
        "from": "0xc77f7fed3b5cc8249adc428c5f44c9063b9734b4",
        "to": "0xbf4a322f1496e5c3d34a9bcdb4c60567b38c7de2",
        "gas": "0x1b309",
        "value": "0xde0b6b3a7640000",
        "input": "0xf088d547000000000000000000000000c77f7fed3b5cc8249adc428c5f44c9063b9734b4",
        "nonce": "0xae4",
        "chainId": "0xaa36a7"
      },
      "additionalContracts": [],
      "isFixedGasLimit": false
    }
  ],
  "receipts": [
    {
      "status": "0x1",
      "cumulativeGasUsed": "0x82e5f7",
      "logs": [
        {
          "address": "0xbf4a322f1496e5c3d34a9bcdb4c60567b38c7de2",
          "topics": [
            "0xddf252ad1be2c89b69c2b068fc378daa952ba7f163c4a11628f55a4df523b3ef",
            "0x0000000000000000000000000000000000000000000000000000000000000000",
            "0x000000000000000000000000c77f7fed3b5cc8249adc428c5f44c9063b9734b4"
          ],
          "data": "0x000000000000000000000000000000000000000000000035305d3657192d3b5d",
          "blockHash": "0xf287f624f21798c9f125c9c5f2141bfcd68ddc8719a61c9a7bebab4f12ec74cf",
          "blockNumber": "0x725ad7",
          "transactionHash": "0x2e8a8c3a470dd2f23449ad705905801f5dbf6afaaa1c0867d1b14ff2651a2581",
          "transactionIndex": "0x52",
          "logIndex": "0x63",
          "removed": false
        },
        {
          "address": "0xbf4a322f1496e5c3d34a9bcdb4c60567b38c7de2",
          "topics": [
            "0xddf252ad1be2c89b69c2b068fc378daa952ba7f163c4a11628f55a4df523b3ef",
            "0x0000000000000000000000000000000000000000000000000000000000000000",
            "0x000000000000000000000000c77f7fed3b5cc8249adc428c5f44c9063b9734b4"
          ],
          "data": "0x000000000000000000000000000000000000000000000000294d92391f3d1a57",
          "blockHash": "0xf287f624f21798c9f125c9c5f2141bfcd68ddc8719a61c9a7bebab4f12ec74cf",
          "blockNumber": "0x725ad7",
          "transactionHash": "0x2e8a8c3a470dd2f23449ad705905801f5dbf6afaaa1c0867d1b14ff2651a2581",
          "transactionIndex": "0x52",
          "logIndex": "0x64",
          "removed": false
        },
        {
          "address": "0xbf4a322f1496e5c3d34a9bcdb4c60567b38c7de2",
          "topics": [
            "0x4afcb4a87cdbd9974efdb92ee48bc8d7cd0ae4bf217004db3d080cbaee652ca7"
          ],
          "data": "0x0000000000000000000000000000000000000000000000000000000067873464000000000000000000000000000000000000000000000000000395b221facb680000000000000000000000000000000000000000000000000de0b6b3a7640000",
          "blockHash": "0xf287f624f21798c9f125c9c5f2141bfcd68ddc8719a61c9a7bebab4f12ec74cf",
          "blockNumber": "0x725ad7",
          "transactionHash": "0x2e8a8c3a470dd2f23449ad705905801f5dbf6afaaa1c0867d1b14ff2651a2581",
          "transactionIndex": "0x52",
          "logIndex": "0x65",
          "removed": false
        }
      ],
      "logsBloom": "0x00000000000000000000000000000000000000000000000000000000000000000000000000000000000000000000000000000000000000004000000000000000000000000000000000000008000000000000001000000000000000000000000000000000020000000000000000000800020000000000000000000010000000000000000000000000000000000000000000000000000008000000010000000000000000000000000000000000000000004000000000000000000000000000000000000002000000800000000000001000000000000000080000000000000020000000000000000000000000000000000000000000000000000000000000000000",
      "type": "0x2",
      "transactionHash": "0x2e8a8c3a470dd2f23449ad705905801f5dbf6afaaa1c0867d1b14ff2651a2581",
      "transactionIndex": "0x52",
      "blockHash": "0xf287f624f21798c9f125c9c5f2141bfcd68ddc8719a61c9a7bebab4f12ec74cf",
      "blockNumber": "0x725ad7",
      "gasUsed": "0x13af6",
      "effectiveGasPrice": "0xba1efe03",
      "from": "0xc77f7fed3b5cc8249adc428c5f44c9063b9734b4",
      "to": "0xbf4a322f1496e5c3d34a9bcdb4c60567b38c7de2",
      "contractAddress": null
    }
  ],
  "libraries": [],
  "pending": [],
  "returns": {},
  "timestamp": 1736914021,
  "chain": 11155111,
  "commit": "51a374b"
}