{
  "transactions": [
    {
      "hash": "0x886394d4808d1d52feed09a05db678003b227a6c66764432ba115570156f0859",
      "transactionType": "CALL",
      "contractName": null,
      "contractAddress": "0x270e88f8683660553e8ba4eb2ad7c91a1710d769",
      "function": "sell(uint256)",
      "arguments": [
        "722079865182057644195"
      ],
      "transaction": {
        "from": "0xc77f7fed3b5cc8249adc428c5f44c9063b9734b4",
        "to": "0x270e88f8683660553e8ba4eb2ad7c91a1710d769",
        "gas": "0x16fec",
        "value": "0x0",
        "input": "0xe4849b3200000000000000000000000000000000000000000000002724df03a3d67fc0a3",
        "nonce": "0x80a",
        "chainId": "0xaa36a7"
      },
      "additionalContracts": [],
      "isFixedGasLimit": false
    }
  ],
  "receipts": [
    {
      "status": "0x1",
      "cumulativeGasUsed": "0x137315e",
      "logs": [
        {
          "address": "0x270e88f8683660553e8ba4eb2ad7c91a1710d769",
          "topics": [
            "0xddf252ad1be2c89b69c2b068fc378daa952ba7f163c4a11628f55a4df523b3ef",
            "0x000000000000000000000000c77f7fed3b5cc8249adc428c5f44c9063b9734b4",
            "0x0000000000000000000000000000000000000000000000000000000000000000"
          ],
          "data": "0x00000000000000000000000000000000000000000000002724df03a3d67fc0a3",
          "blockHash": "0x0bc1daf92a0ae8210b45121e77a4a7a7e87059e38a458be3206aeb163ede3150",
          "blockNumber": "0x72554b",
          "transactionHash": "0x886394d4808d1d52feed09a05db678003b227a6c66764432ba115570156f0859",
          "transactionIndex": "0xac",
          "logIndex": "0xe9",
          "removed": false
        },
        {
          "address": "0x270e88f8683660553e8ba4eb2ad7c91a1710d769",
          "topics": [
            "0x4afcb4a87cdbd9974efdb92ee48bc8d7cd0ae4bf217004db3d080cbaee652ca7"
          ],
          "data": "0x000000000000000000000000000000000000000000000000000000006786f18c0000000000000000000000000000000000000000000000000004e3074e2dc5840000000000000000000000000000000000000000000000000dc826a50d2af9a0",
          "blockHash": "0x0bc1daf92a0ae8210b45121e77a4a7a7e87059e38a458be3206aeb163ede3150",
          "blockNumber": "0x72554b",
          "transactionHash": "0x886394d4808d1d52feed09a05db678003b227a6c66764432ba115570156f0859",
          "transactionIndex": "0xac",
          "logIndex": "0xea",
          "removed": false
        }
      ],
      "logsBloom": "0x00000000000000000000000000000000000000000000000000000000000000000000000000000000000000000000000020000000000000004000000000000000000000000000000000000008000000000000000000000000000000000000000000000000020000000000000000000800020000000000000000000010000000000000000000010000000000000000000000000000000000000000010000000000000000000000000000000000000000004000000000000000000000000000000000000002000000800000000000000000000000000000080000008000000020000000000000000000000000000000000000000000000000000000000000000000",
      "type": "0x2",
      "transactionHash": "0x886394d4808d1d52feed09a05db678003b227a6c66764432ba115570156f0859",
      "transactionIndex": "0xac",
      "blockHash": "0x0bc1daf92a0ae8210b45121e77a4a7a7e87059e38a458be3206aeb163ede3150",
      "blockNumber": "0x72554b",
      "gasUsed": "0xfb93",
      "effectiveGasPrice": "0x7c51e0cf",
      "from": "0xc77f7fed3b5cc8249adc428c5f44c9063b9734b4",
      "to": "0x270e88f8683660553e8ba4eb2ad7c91a1710d769",
      "contractAddress": null
    }
  ],
  "libraries": [],
  "pending": [],
  "returns": {},
  "timestamp": 1736896908,
  "chain": 11155111,
  "commit": "51a374b"
}