{
  "transactions": [
    {
      "hash": "0xb90d95a0d6c736b237b7fd6ea427c1f1ead1848eb15c0813c83e075622b01fa5",
      "transactionType": "CALL",
      "contractName": null,
      "contractAddress": "0xbf4a322f1496e5c3d34a9bcdb4c60567b38c7de2",
      "function": "buy(address)",
      "arguments": [
        "0xC77f7fed3b5Cc8249aDc428c5F44C9063B9734b4"
      ],
      "transaction": {
        "from": "0xc77f7fed3b5cc8249adc428c5f44c9063b9734b4",
        "to": "0xbf4a322f1496e5c3d34a9bcdb4c60567b38c7de2",
        "gas": "0x1b309",
        "value": "0xde0b6b3a7640000",
        "input": "0xf088d547000000000000000000000000c77f7fed3b5cc8249adc428c5f44c9063b9734b4",
        "nonce": "0xcfa",
        "chainId": "0xaa36a7"
      },
      "additionalContracts": [],
      "isFixedGasLimit": false
    }
  ],
  "receipts": [
    {
      "status": "0x1",
      "cumulativeGasUsed": "0x6c079f",
      "logs": [
        {
          "address": "0xbf4a322f1496e5c3d34a9bcdb4c60567b38c7de2",
          "topics": [
            "0xddf252ad1be2c89b69c2b068fc378daa952ba7f163c4a11628f55a4df523b3ef",
            "0x0000000000000000000000000000000000000000000000000000000000000000",
            "0x000000000000000000000000c77f7fed3b5cc8249adc428c5f44c9063b9734b4"
          ],
          "data": "0x000000000000000000000000000000000000000000000034cd0dea4cc1cf1bf4",
          "blockHash": "0x4452ae2bdeb88b2840acc998189985562540b09c8ec694123b9ed013d0f36644",
          "blockNumber": "0x725d4e",
          "transactionHash": "0xb90d95a0d6c736b237b7fd6ea427c1f1ead1848eb15c0813c83e075622b01fa5",
          "transactionIndex": "0x4b",
          "logIndex": "0x76",
          "removed": false
        },
        {
          "address": "0xbf4a322f1496e5c3d34a9bcdb4c60567b38c7de2",
          "topics": [
            "0xddf252ad1be2c89b69c2b068fc378daa952ba7f163c4a11628f55a4df523b3ef",
            "0x0000000000000000000000000000000000000000000000000000000000000000",
            "0x000000000000000000000000c77f7fed3b5cc8249adc428c5f44c9063b9734b4"
          ],
          "data": "0x0000000000000000000000000000000000000000000000002900742a71fa36cc",
          "blockHash": "0x4452ae2bdeb88b2840acc998189985562540b09c8ec694123b9ed013d0f36644",
          "blockNumber": "0x725d4e",
          "transactionHash": "0xb90d95a0d6c736b237b7fd6ea427c1f1ead1848eb15c0813c83e075622b01fa5",
          "transactionIndex": "0x4b",
          "logIndex": "0x77",
          "removed": false
        },
        {
          "address": "0xbf4a322f1496e5c3d34a9bcdb4c60567b38c7de2",
          "topics": [
            "0x4afcb4a87cdbd9974efdb92ee48bc8d7cd0ae4bf217004db3d080cbaee652ca7"
          ],
          "data": "0x000000000000000000000000000000000000000000000000000000006787521c00000000000000000000000000000000000000000000000000039c70258558c10000000000000000000000000000000000000000000000000de0b6b3a7640000",
          "blockHash": "0x4452ae2bdeb88b2840acc998189985562540b09c8ec694123b9ed013d0f36644",
          "blockNumber": "0x725d4e",
          "transactionHash": "0xb90d95a0d6c736b237b7fd6ea427c1f1ead1848eb15c0813c83e075622b01fa5",
          "transactionIndex": "0x4b",
          "logIndex": "0x78",
          "removed": false
        }
      ],
      "logsBloom": "0x00000000000000000000000000000000000000000000000000000000000000000000000000000000000000000000000000000000000000004000000000000000000000000000000000000008000000000000001000000000000000000000000000000000020000000000000000000800020000000000000000000010000000000000000000000000000000000000000000000000000008000000010000000000000000000000000000000000000000004000000000000000000000000000000000000002000000800000000000001000000000000000080000000000000020000000000000000000000000000000000000000000000000000000000000000000",
      "type": "0x2",
      "transactionHash": "0xb90d95a0d6c736b237b7fd6ea427c1f1ead1848eb15c0813c83e075622b01fa5",
      "transactionIndex": "0x4b",
      "blockHash": "0x4452ae2bdeb88b2840acc998189985562540b09c8ec694123b9ed013d0f36644",
      "blockNumber": "0x725d4e",
      "gasUsed": "0x13af6",
      "effectiveGasPrice": "0x40e5a7946",
      "from": "0xc77f7fed3b5cc8249adc428c5f44c9063b9734b4",
      "to": "0xbf4a322f1496e5c3d34a9bcdb4c60567b38c7de2",
      "contractAddress": null
    }
  ],
  "libraries": [],
  "pending": [],
  "returns": {},
  "timestamp": 1736921629,
  "chain": 11155111,
  "commit": "51a374b"
}