{
  "transactions": [
    {
      "hash": "0x4b994ceced8ffc1e797ca9b6ab04e090c8426fe591e690d4ed0bc165e0d51e0f",
      "transactionType": "CALL",
      "contractName": null,
      "contractAddress": "0x270e88f8683660553e8ba4eb2ad7c91a1710d769",
      "function": "sell(uint256)",
      "arguments": [
        "953439556381643398180"
      ],
      "transaction": {
        "from": "0xc77f7fed3b5cc8249adc428c5f44c9063b9734b4",
        "to": "0x270e88f8683660553e8ba4eb2ad7c91a1710d769",
        "gas": "0x16fec",
        "value": "0x0",
        "input": "0xe4849b32000000000000000000000000000000000000000000000033afa1c0fd65e05c24",
        "nonce": "0x5d7",
        "chainId": "0xaa36a7"
      },
      "additionalContracts": [],
      "isFixedGasLimit": false
    }
  ],
  "receipts": [
    {
      "status": "0x1",
      "cumulativeGasUsed": "0xfa1f25",
      "logs": [
        {
          "address": "0x270e88f8683660553e8ba4eb2ad7c91a1710d769",
          "topics": [
            "0xddf252ad1be2c89b69c2b068fc378daa952ba7f163c4a11628f55a4df523b3ef",
            "0x000000000000000000000000c77f7fed3b5cc8249adc428c5f44c9063b9734b4",
            "0x0000000000000000000000000000000000000000000000000000000000000000"
          ],
          "data": "0x000000000000000000000000000000000000000000000033afa1c0fd65e05c24",
          "blockHash": "0x171a512c43df5e02ab5d62f543440d7fea4ce5817f702baa089e9b476f3aef3a",
          "blockNumber": "0x725298",
          "transactionHash": "0x4b994ceced8ffc1e797ca9b6ab04e090c8426fe591e690d4ed0bc165e0d51e0f",
          "transactionIndex": "0x59",
          "logIndex": "0xcf",
          "removed": false
        },
        {
          "address": "0x270e88f8683660553e8ba4eb2ad7c91a1710d769",
          "topics": [
            "0x4afcb4a87cdbd9974efdb92ee48bc8d7cd0ae4bf217004db3d080cbaee652ca7"
          ],
          "data": "0x000000000000000000000000000000000000000000000000000000006786d1280000000000000000000000000000000000000000000000000003b386f74e00440000000000000000000000000000000000000000000000000dc83e831e1e1b25",
          "blockHash": "0x171a512c43df5e02ab5d62f543440d7fea4ce5817f702baa089e9b476f3aef3a",
          "blockNumber": "0x725298",
          "transactionHash": "0x4b994ceced8ffc1e797ca9b6ab04e090c8426fe591e690d4ed0bc165e0d51e0f",
          "transactionIndex": "0x59",
          "logIndex": "0xd0",
          "removed": false
        }
      ],
      "logsBloom": "0x00000000000000000000000000000000000000000000000000000000000000000000000000000000000000000000000020000000000000004000000000000000000000000000000000000008000000000000000000000000000000000000000000000000020000000000000000000800020000000000000000000010000000000000000000010000000000000000000000000000000000000000010000000000000000000000000000000000000000004000000000000000000000000000000000000002000000800000000000000000000000000000080000008000000020000000000000000000000000000000000000000000000000000000000000000000",
      "type": "0x2",
      "transactionHash": "0x4b994ceced8ffc1e797ca9b6ab04e090c8426fe591e690d4ed0bc165e0d51e0f",
      "transactionIndex": "0x59",
      "blockHash": "0x171a512c43df5e02ab5d62f543440d7fea4ce5817f702baa089e9b476f3aef3a",
      "blockNumber": "0x725298",
      "gasUsed": "0xfb93",
      "effectiveGasPrice": "0x37416b2e7",
      "from": "0xc77f7fed3b5cc8249adc428c5f44c9063b9734b4",
      "to": "0x270e88f8683660553e8ba4eb2ad7c91a1710d769",
      "contractAddress": null
    }
  ],
  "libraries": [],
  "pending": [],
  "returns": {},
  "timestamp": 1736888617,
  "chain": 11155111,
  "commit": "51a374b"
}