{
  "transactions": [
    {
      "hash": "0xd2d533dd82ed4f318e49d1084a9dfbca535e777e68ebe27a0df383e48bf21fd7",
      "transactionType": "CALL",
      "contractName": null,
      "contractAddress": "0x8aafd3ede9adb0ff97c7aebce82a919afb1c8764",
      "function": "sell(uint256)",
      "arguments": [
        "4794078688"
      ],
      "transaction": {
        "from": "0xc77f7fed3b5cc8249adc428c5f44c9063b9734b4",
        "to": "0x8aafd3ede9adb0ff97c7aebce82a919afb1c8764",
        "gas": "0x1722a",
        "value": "0x0",
        "input": "0xe4849b32000000000000000000000000000000000000000000000000000000011dbfd5e0",
        "nonce": "0x1768",
        "chainId": "0xaa36a7"
      },
      "additionalContracts": [],
      "isFixedGasLimit": false
    }
  ],
  "receipts": [
    {
      "status": "0x1",
      "cumulativeGasUsed": "0x21d9888",
      "logs": [
        {
          "address": "0x8aafd3ede9adb0ff97c7aebce82a919afb1c8764",
          "topics": [
            "0xddf252ad1be2c89b69c2b068fc378daa952ba7f163c4a11628f55a4df523b3ef",
            "0x000000000000000000000000c77f7fed3b5cc8249adc428c5f44c9063b9734b4",
            "0x0000000000000000000000000000000000000000000000000000000000000000"
          ],
          "data": "0x000000000000000000000000000000000000000000000000000000011b769eeb",
          "blockHash": "0xd5d7f2de6dbd86aa4adbc8343197d10064321967728d36dfcf1d1f6bbe2a983c",
          "blockNumber": "0x731f3e",
          "transactionHash": "0xd2d533dd82ed4f318e49d1084a9dfbca535e777e68ebe27a0df383e48bf21fd7",
          "transactionIndex": "0x5c",
          "logIndex": "0x110b",
          "removed": false
        },
        {
          "address": "0x8aafd3ede9adb0ff97c7aebce82a919afb1c8764",
          "topics": [
            "0xddf252ad1be2c89b69c2b068fc378daa952ba7f163c4a11628f55a4df523b3ef",
            "0x000000000000000000000000c77f7fed3b5cc8249adc428c5f44c9063b9734b4",
            "0x000000000000000000000000c77f7fed3b5cc8249adc428c5f44c9063b9734b4"
          ],
          "data": "0x00000000000000000000000000000000000000000000000000000000024936f5",
          "blockHash": "0xd5d7f2de6dbd86aa4adbc8343197d10064321967728d36dfcf1d1f6bbe2a983c",
          "blockNumber": "0x731f3e",
          "transactionHash": "0xd2d533dd82ed4f318e49d1084a9dfbca535e777e68ebe27a0df383e48bf21fd7",
          "transactionIndex": "0x5c",
          "logIndex": "0x110c",
          "removed": false
        },
        {
          "address": "0x8aafd3ede9adb0ff97c7aebce82a919afb1c8764",
          "topics": [
            "0x4afcb4a87cdbd9974efdb92ee48bc8d7cd0ae4bf217004db3d080cbaee652ca7"
          ],
          "data": "0x00000000000000000000000000000000000000000000000000000000679073d0000000000000000000000000000000000000000000000000001837f956d37b480000000000000000000000000000000000000000000000000000000001f2ac03",
          "blockHash": "0xd5d7f2de6dbd86aa4adbc8343197d10064321967728d36dfcf1d1f6bbe2a983c",
          "blockNumber": "0x731f3e",
          "transactionHash": "0xd2d533dd82ed4f318e49d1084a9dfbca535e777e68ebe27a0df383e48bf21fd7",
          "transactionIndex": "0x5c",
          "logIndex": "0x110d",
          "removed": false
        }
      ],
      "logsBloom": "0x00000000000000000000000000000000000000000600000000000000000000000000000000000000000000000000000000000000000000004000000000000000000000000000004000000008000000000000000000000000000000000000000000000000020000000000000000000800020000000000000000000010000000000000000000000000000000000000000000000000000000000000010000000000000000000000000000000000000000004000000000000000000000000000000000000002000000800000000000000000000000000000080000000000000020000000000000000000000000000000000000000000000000000000000000000000",
      "type": "0x2",
      "transactionHash": "0xd2d533dd82ed4f318e49d1084a9dfbca535e777e68ebe27a0df383e48bf21fd7",
      "transactionIndex": "0x5c",
      "blockHash": "0xd5d7f2de6dbd86aa4adbc8343197d10064321967728d36dfcf1d1f6bbe2a983c",
      "blockNumber": "0x731f3e",
      "gasUsed": "0xfd1b",
      "effectiveGasPrice": "0x313cad9e",
      "from": "0xc77f7fed3b5cc8249adc428c5f44c9063b9734b4",
      "to": "0x8aafd3ede9adb0ff97c7aebce82a919afb1c8764",
      "contractAddress": null
    }
  ],
  "libraries": [],
  "pending": [],
  "returns": {},
  "timestamp": 1737520081,
  "chain": 11155111,
  "commit": "1d2fb70"
}