{
  "transactions": [
    {
      "hash": "0x1aa5fcb635f4a97b8707145f9a29c4b7df812de0d9956554d34efec8ff67b5b5",
      "transactionType": "CALL",
      "contractName": null,
      "contractAddress": "0x8aafd3ede9adb0ff97c7aebce82a919afb1c8764",
      "function": "sell(uint256)",
      "arguments": [
        "152237336866587"
      ],
      "transaction": {
        "from": "0xc77f7fed3b5cc8249adc428c5f44c9063b9734b4",
        "to": "0x8aafd3ede9adb0ff97c7aebce82a919afb1c8764",
        "gas": "0x15daa",
        "value": "0x0",
        "input": "0xe4849b3200000000000000000000000000000000000000000000000000008a758462af1b",
        "nonce": "0x1340",
        "chainId": "0xaa36a7"
      },
      "additionalContracts": [],
      "isFixedGasLimit": false
    }
  ],
  "receipts": [
    {
      "status": "0x1",
      "cumulativeGasUsed": "0xaa6688",
      "logs": [
        {
          "address": "0x8aafd3ede9adb0ff97c7aebce82a919afb1c8764",
          "topics": [
            "0xddf252ad1be2c89b69c2b068fc378daa952ba7f163c4a11628f55a4df523b3ef",
            "0x000000000000000000000000c77f7fed3b5cc8249adc428c5f44c9063b9734b4",
            "0x0000000000000000000000000000000000000000000000000000000000000000"
          ],
          "data": "0x00000000000000000000000000000000000000000000000000008959f3f76607",
          "blockHash": "0x6785db6f81e00b66c243d246e0fc79b39b746426ed36818ac8b6763defb1a9bf",
          "blockNumber": "0x731a59",
          "transactionHash": "0x1aa5fcb635f4a97b8707145f9a29c4b7df812de0d9956554d34efec8ff67b5b5",
          "transactionIndex": "0x79",
          "logIndex": "0xd5",
          "removed": false
        },
        {
          "address": "0x8aafd3ede9adb0ff97c7aebce82a919afb1c8764",
          "topics": [
            "0xddf252ad1be2c89b69c2b068fc378daa952ba7f163c4a11628f55a4df523b3ef",
            "0x000000000000000000000000c77f7fed3b5cc8249adc428c5f44c9063b9734b4",
            "0x000000000000000000000000c77f7fed3b5cc8249adc428c5f44c9063b9734b4"
          ],
          "data": "0x0000000000000000000000000000000000000000000000000000011b906b4914",
          "blockHash": "0x6785db6f81e00b66c243d246e0fc79b39b746426ed36818ac8b6763defb1a9bf",
          "blockNumber": "0x731a59",
          "transactionHash": "0x1aa5fcb635f4a97b8707145f9a29c4b7df812de0d9956554d34efec8ff67b5b5",
          "transactionIndex": "0x79",
          "logIndex": "0xd6",
          "removed": false
        },
        {
          "address": "0x8aafd3ede9adb0ff97c7aebce82a919afb1c8764",
          "topics": [
            "0x4afcb4a87cdbd9974efdb92ee48bc8d7cd0ae4bf217004db3d080cbaee652ca7"
          ],
          "data": "0x00000000000000000000000000000000000000000000000000000000679038fc000000000000000000000000000000000000000000000000000bf75fc98ec1d000000000000000000000000000000000000000000000000000000077635d2cda",
          "blockHash": "0x6785db6f81e00b66c243d246e0fc79b39b746426ed36818ac8b6763defb1a9bf",
          "blockNumber": "0x731a59",
          "transactionHash": "0x1aa5fcb635f4a97b8707145f9a29c4b7df812de0d9956554d34efec8ff67b5b5",
          "transactionIndex": "0x79",
          "logIndex": "0xd7",
          "removed": false
        }
      ],
      "logsBloom": "0x00000000000000000000000000000000000000000600000000000000000000000000000000000000000000000000000000000000000000004000000000000000000000000000004000000008000000000000000000000000000000000000000000000000020000000000000000000800020000000000000000000010000000000000000000000000000000000000000000000000000000000000010000000000000000000000000000000000000000004000000000000000000000000000000000000002000000800000000000000000000000000000080000000000000020000000000000000000000000000000000000000000000000000000000000000000",
      "type": "0x2",
      "transactionHash": "0x1aa5fcb635f4a97b8707145f9a29c4b7df812de0d9956554d34efec8ff67b5b5",
      "transactionIndex": "0x79",
      "blockHash": "0x6785db6f81e00b66c243d246e0fc79b39b746426ed36818ac8b6763defb1a9bf",
      "blockNumber": "0x731a59",
      "gasUsed": "0xfd27",
      "effectiveGasPrice": "0x4e433954",
      "from": "0xc77f7fed3b5cc8249adc428c5f44c9063b9734b4",
      "to": "0x8aafd3ede9adb0ff97c7aebce82a919afb1c8764",
      "contractAddress": null
    }
  ],
  "libraries": [],
  "pending": [],
  "returns": {},
  "timestamp": 1737505024,
  "chain": 11155111,
  "commit": "1d2fb70"
}