{
  "transactions": [
    {
      "hash": "0x71c5c2e5475405e05bb964667473f5747eb4928516b2b678f96f1d9a01dadbdf",
      "transactionType": "CALL",
      "contractName": null,
      "contractAddress": "0x270e88f8683660553e8ba4eb2ad7c91a1710d769",
      "function": "sell(uint256)",
      "arguments": [
        "718880452356776579724"
      ],
      "transaction": {
        "from": "0xc77f7fed3b5cc8249adc428c5f44c9063b9734b4",
        "to": "0x270e88f8683660553e8ba4eb2ad7c91a1710d769",
        "gas": "0x16fec",
        "value": "0x0",
        "input": "0xe4849b32000000000000000000000000000000000000000000000026f8786aa069cad28c",
        "nonce": "0x830",
        "chainId": "0xaa36a7"
      },
      "additionalContracts": [],
      "isFixedGasLimit": false
    }
  ],
  "receipts": [
    {
      "status": "0x1",
      "cumulativeGasUsed": "0x12f5a90",
      "logs": [
        {
          "address": "0x270e88f8683660553e8ba4eb2ad7c91a1710d769",
          "topics": [
            "0xddf252ad1be2c89b69c2b068fc378daa952ba7f163c4a11628f55a4df523b3ef",
            "0x000000000000000000000000c77f7fed3b5cc8249adc428c5f44c9063b9734b4",
            "0x0000000000000000000000000000000000000000000000000000000000000000"
          ],
          "data": "0x000000000000000000000000000000000000000000000026f8786aa069cad28c",
          "blockHash": "0x50bc7e2393f7403c0f444f08312e3a09c8c07c95329b875f4f3b4cc4ff208fdb",
          "blockNumber": "0x72557a",
          "transactionHash": "0x71c5c2e5475405e05bb964667473f5747eb4928516b2b678f96f1d9a01dadbdf",
          "transactionIndex": "0x5c",
          "logIndex": "0x7c",
          "removed": false
        },
        {
          "address": "0x270e88f8683660553e8ba4eb2ad7c91a1710d769",
          "topics": [
            "0x4afcb4a87cdbd9974efdb92ee48bc8d7cd0ae4bf217004db3d080cbaee652ca7"
          ],
          "data": "0x000000000000000000000000000000000000000000000000000000006786f3c00000000000000000000000000000000000000000000000000004e8985212261c0000000000000000000000000000000000000000000000000dc826503b035977",
          "blockHash": "0x50bc7e2393f7403c0f444f08312e3a09c8c07c95329b875f4f3b4cc4ff208fdb",
          "blockNumber": "0x72557a",
          "transactionHash": "0x71c5c2e5475405e05bb964667473f5747eb4928516b2b678f96f1d9a01dadbdf",
          "transactionIndex": "0x5c",
          "logIndex": "0x7d",
          "removed": false
        }
      ],
      "logsBloom": "0x00000000000000000000000000000000000000000000000000000000000000000000000000000000000000000000000020000000000000004000000000000000000000000000000000000008000000000000000000000000000000000000000000000000020000000000000000000800020000000000000000000010000000000000000000010000000000000000000000000000000000000000010000000000000000000000000000000000000000004000000000000000000000000000000000000002000000800000000000000000000000000000080000008000000020000000000000000000000000000000000000000000000000000000000000000000",
      "type": "0x2",
      "transactionHash": "0x71c5c2e5475405e05bb964667473f5747eb4928516b2b678f96f1d9a01dadbdf",
      "transactionIndex": "0x5c",
      "blockHash": "0x50bc7e2393f7403c0f444f08312e3a09c8c07c95329b875f4f3b4cc4ff208fdb",
      "blockNumber": "0x72557a",
      "gasUsed": "0xfb93",
      "effectiveGasPrice": "0x6efe91cc",
      "from": "0xc77f7fed3b5cc8249adc428c5f44c9063b9734b4",
      "to": "0x270e88f8683660553e8ba4eb2ad7c91a1710d769",
      "contractAddress": null
    }
  ],
  "libraries": [],
  "pending": [],
  "returns": {},
  "timestamp": 1736897473,
  "chain": 11155111,
  "commit": "51a374b"
}