{
  "transactions": [
    {
      "hash": "0xcea23182ee35f673920a7ab2c0a6a96cd2000ccf3d602fbf17a5e2eddf3824d8",
      "transactionType": "CALL",
      "contractName": null,
      "contractAddress": "0x8aafd3ede9adb0ff97c7aebce82a919afb1c8764",
      "function": "sell(uint256)",
      "arguments": [
        "1421029"
      ],
      "transaction": {
        "from": "0xc77f7fed3b5cc8249adc428c5f44c9063b9734b4",
        "to": "0x8aafd3ede9adb0ff97c7aebce82a919afb1c8764",
        "gas": "0x16208",
        "value": "0x0",
        "input": "0xe4849b32000000000000000000000000000000000000000000000000000000000015aee5",
        "nonce": "0x1228",
        "chainId": "0xaa36a7"
      },
      "additionalContracts": [],
      "isFixedGasLimit": false
    }
  ],
  "receipts": [
    {
      "status": "0x1",
      "cumulativeGasUsed": "0xbdf8ee",
      "logs": [
        {
          "address": "0x8aafd3ede9adb0ff97c7aebce82a919afb1c8764",
          "topics": [
            "0xddf252ad1be2c89b69c2b068fc378daa952ba7f163c4a11628f55a4df523b3ef",
            "0x000000000000000000000000c77f7fed3b5cc8249adc428c5f44c9063b9734b4",
            "0x0000000000000000000000000000000000000000000000000000000000000000"
          ],
          "data": "0x000000000000000000000000000000000000000000000000000000000015827d",
          "blockHash": "0x3f2455d95a33843c0f0fda6003af18f67cc6beac977709e1327027d1fc69ea07",
          "blockNumber": "0x731906",
          "transactionHash": "0xcea23182ee35f673920a7ab2c0a6a96cd2000ccf3d602fbf17a5e2eddf3824d8",
          "transactionIndex": "0x88",
          "logIndex": "0xb2",
          "removed": false
        },
        {
          "address": "0x8aafd3ede9adb0ff97c7aebce82a919afb1c8764",
          "topics": [
            "0xddf252ad1be2c89b69c2b068fc378daa952ba7f163c4a11628f55a4df523b3ef",
            "0x000000000000000000000000c77f7fed3b5cc8249adc428c5f44c9063b9734b4",
            "0x000000000000000000000000c77f7fed3b5cc8249adc428c5f44c9063b9734b4"
          ],
          "data": "0x0000000000000000000000000000000000000000000000000000000000002c68",
          "blockHash": "0x3f2455d95a33843c0f0fda6003af18f67cc6beac977709e1327027d1fc69ea07",
          "blockNumber": "0x731906",
          "transactionHash": "0xcea23182ee35f673920a7ab2c0a6a96cd2000ccf3d602fbf17a5e2eddf3824d8",
          "transactionIndex": "0x88",
          "logIndex": "0xb3",
          "removed": false
        },
        {
          "address": "0x8aafd3ede9adb0ff97c7aebce82a919afb1c8764",
          "topics": [
            "0x4afcb4a87cdbd9974efdb92ee48bc8d7cd0ae4bf217004db3d080cbaee652ca7"
          ],
          "data": "0x00000000000000000000000000000000000000000000000000000000679029180000000000000000000000000000000000000000000000000005364a907699fb0000000000000000000000000000000000000000000000000000000000000824",
          "blockHash": "0x3f2455d95a33843c0f0fda6003af18f67cc6beac977709e1327027d1fc69ea07",
          "blockNumber": "0x731906",
          "transactionHash": "0xcea23182ee35f673920a7ab2c0a6a96cd2000ccf3d602fbf17a5e2eddf3824d8",
          "transactionIndex": "0x88",
          "logIndex": "0xb4",
          "removed": false
        }
      ],
      "logsBloom": "0x00000000000000000000000000000000000000000600000000000000000000000000000000000000000000000000000000000000000000004000000000000000000000000000004000000008000000000000000000000000000000000000000000000000020000000000000000000800020000000000000000000010000000000000000000000000000000000000000000000000000000000000010000000000000000000000000000000000000000004000000000000000000000000000000000000002000000800000000000000000000000000000080000000000000020000000000000000000000000000000000000000000000000000000000000000000",
      "type": "0x2",
      "transactionHash": "0xcea23182ee35f673920a7ab2c0a6a96cd2000ccf3d602fbf17a5e2eddf3824d8",
      "transactionIndex": "0x88",
      "blockHash": "0x3f2455d95a33843c0f0fda6003af18f67cc6beac977709e1327027d1fc69ea07",
      "blockNumber": "0x731906",
      "gasUsed": "0xf213",
      "effectiveGasPrice": "0x4e149336",
      "from": "0xc77f7fed3b5cc8249adc428c5f44c9063b9734b4",
      "to": "0x8aafd3ede9adb0ff97c7aebce82a919afb1c8764",
      "contractAddress": null
    }
  ],
  "libraries": [],
  "pending": [],
  "returns": {},
  "timestamp": 1737500953,
  "chain": 11155111,
  "commit": "1d2fb70"
}