{
  "transactions": [
    {
      "hash": "0xba5a09e3c13bcf20c36a3e6f6d167af665ebca0696e72e307cf27aed77405bf9",
      "transactionType": "CALL",
      "contractName": null,
      "contractAddress": "0x8aafd3ede9adb0ff97c7aebce82a919afb1c8764",
      "function": "sell(uint256)",
      "arguments": [
        "47423020897078327"
      ],
      "transaction": {
        "from": "0xc77f7fed3b5cc8249adc428c5f44c9063b9734b4",
        "to": "0x8aafd3ede9adb0ff97c7aebce82a919afb1c8764",
        "gas": "0x1724d",
        "value": "0x0",
        "input": "0xe4849b3200000000000000000000000000000000000000000000000000a87afc7abf0c37",
        "nonce": "0xf9b",
        "chainId": "0xaa36a7"
      },
      "additionalContracts": [],
      "isFixedGasLimit": false
    }
  ],
  "receipts": [
    {
      "status": "0x1",
      "cumulativeGasUsed": "0xac64da",
      "logs": [
        {
          "address": "0x8aafd3ede9adb0ff97c7aebce82a919afb1c8764",
          "topics": [
            "0xddf252ad1be2c89b69c2b068fc378daa952ba7f163c4a11628f55a4df523b3ef",
            "0x000000000000000000000000c77f7fed3b5cc8249adc428c5f44c9063b9734b4",
            "0x0000000000000000000000000000000000000000000000000000000000000000"
          ],
          "data": "0x00000000000000000000000000000000000000000000000000a721f0383a7285",
          "blockHash": "0xd0e23ec20184e10f4c5fc94fe0269996782cfd840b818843f6bfc10c9565576b",
          "blockNumber": "0x731601",
          "transactionHash": "0xba5a09e3c13bcf20c36a3e6f6d167af665ebca0696e72e307cf27aed77405bf9",
          "transactionIndex": "0x7e",
          "logIndex": "0xb4",
          "removed": false
        },
        {
          "address": "0x8aafd3ede9adb0ff97c7aebce82a919afb1c8764",
          "topics": [
            "0xddf252ad1be2c89b69c2b068fc378daa952ba7f163c4a11628f55a4df523b3ef",
            "0x000000000000000000000000c77f7fed3b5cc8249adc428c5f44c9063b9734b4",
            "0x000000000000000000000000c77f7fed3b5cc8249adc428c5f44c9063b9734b4"
          ],
          "data": "0x0000000000000000000000000000000000000000000000000001590c428499b2",
          "blockHash": "0xd0e23ec20184e10f4c5fc94fe0269996782cfd840b818843f6bfc10c9565576b",
          "blockNumber": "0x731601",
          "transactionHash": "0xba5a09e3c13bcf20c36a3e6f6d167af665ebca0696e72e307cf27aed77405bf9",
          "transactionIndex": "0x7e",
          "logIndex": "0xb5",
          "removed": false
        },
        {
          "address": "0x8aafd3ede9adb0ff97c7aebce82a919afb1c8764",
          "topics": [
            "0x4afcb4a87cdbd9974efdb92ee48bc8d7cd0ae4bf217004db3d080cbaee652ca7"
          ],
          "data": "0x00000000000000000000000000000000000000000000000000000000679004b80000000000000000000000000000000000000000000000000004c3273f4c3b68000000000000000000000000000000000000000000000000000039d0e0ee5a6d",
          "blockHash": "0xd0e23ec20184e10f4c5fc94fe0269996782cfd840b818843f6bfc10c9565576b",
          "blockNumber": "0x731601",
          "transactionHash": "0xba5a09e3c13bcf20c36a3e6f6d167af665ebca0696e72e307cf27aed77405bf9",
          "transactionIndex": "0x7e",
          "logIndex": "0xb6",
          "removed": false
        }
      ],
      "logsBloom": "0x00000000000000000000000000000000000000000600000000000000000000000000000000000000000000000000000000000000000000004000000000000000000000000000004000000008000000000000000000000000000000000000000000000000020000000000000000000800020000000000000000000010000000000000000000000000000000000000000000000000000000000000010000000000000000000000000000000000000000004000000000000000000000000000000000000002000000800000000000000000000000000000080000000000000020000000000000000000000000000000000000000000000000000000000000000000",
      "type": "0x2",
      "transactionHash": "0xba5a09e3c13bcf20c36a3e6f6d167af665ebca0696e72e307cf27aed77405bf9",
      "transactionIndex": "0x7e",
      "blockHash": "0xd0e23ec20184e10f4c5fc94fe0269996782cfd840b818843f6bfc10c9565576b",
      "blockNumber": "0x731601",
      "gasUsed": "0xfd33",
      "effectiveGasPrice": "0x6a54ce0c",
      "from": "0xc77f7fed3b5cc8249adc428c5f44c9063b9734b4",
      "to": "0x8aafd3ede9adb0ff97c7aebce82a919afb1c8764",
      "contractAddress": null
    }
  ],
  "libraries": [],
  "pending": [],
  "returns": {},
  "timestamp": 1737491642,
  "chain": 11155111,
  "commit": "1d2fb70"
}