{
  "transactions": [
    {
      "hash": "0xa7932cf5be6a02114b7f5c4e5e1db29581cabdf44c3b062582e5f769dca028a7",
      "transactionType": "CALL",
      "contractName": null,
      "contractAddress": "0x270e88f8683660553e8ba4eb2ad7c91a1710d769",
      "function": "buy(address)",
      "arguments": [
        "0xC77f7fed3b5Cc8249aDc428c5F44C9063B9734b4"
      ],
      "transaction": {
        "from": "0xc77f7fed3b5cc8249adc428c5f44c9063b9734b4",
        "to": "0x270e88f8683660553e8ba4eb2ad7c91a1710d769",
        "gas": "0x1b30c",
        "value": "0xde0b6b3a7640000",
        "input": "0xf088d547000000000000000000000000c77f7fed3b5cc8249adc428c5f44c9063b9734b4",
        "nonce": "0x5ec",
        "chainId": "0xaa36a7"
      },
      "additionalContracts": [],
      "isFixedGasLimit": false
    }
  ],
  "receipts": [
    {
      "status": "0x1",
      "cumulativeGasUsed": "0x8ff174",
      "logs": [
        {
          "address": "0x270e88f8683660553e8ba4eb2ad7c91a1710d769",
          "topics": [
            "0xddf252ad1be2c89b69c2b068fc378daa952ba7f163c4a11628f55a4df523b3ef",
            "0x0000000000000000000000000000000000000000000000000000000000000000",
            "0x000000000000000000000000c77f7fed3b5cc8249adc428c5f44c9063b9734b4"
          ],
          "data": "0x0000000000000000000000000000000000000000000000335af2d74c8a8db387",
          "blockHash": "0xddfb34bf939ae676e25bfb29e2b52fd84f9943dfd99830112f0089558e75d906",
          "blockNumber": "0x7252b2",
          "transactionHash": "0xa7932cf5be6a02114b7f5c4e5e1db29581cabdf44c3b062582e5f769dca028a7",
          "transactionIndex": "0x54",
          "logIndex": "0xa9",
          "removed": false
        },
        {
          "address": "0x270e88f8683660553e8ba4eb2ad7c91a1710d769",
          "topics": [
            "0xddf252ad1be2c89b69c2b068fc378daa952ba7f163c4a11628f55a4df523b3ef",
            "0x0000000000000000000000000000000000000000000000000000000000000000",
            "0x000000000000000000000000c77f7fed3b5cc8249adc428c5f44c9063b9734b4"
          ],
          "data": "0x00000000000000000000000000000000000000000000000027e10dd4b31dc669",
          "blockHash": "0xddfb34bf939ae676e25bfb29e2b52fd84f9943dfd99830112f0089558e75d906",
          "blockNumber": "0x7252b2",
          "transactionHash": "0xa7932cf5be6a02114b7f5c4e5e1db29581cabdf44c3b062582e5f769dca028a7",
          "transactionIndex": "0x54",
          "logIndex": "0xaa",
          "removed": false
        },
        {
          "address": "0x270e88f8683660553e8ba4eb2ad7c91a1710d769",
          "topics": [
            "0x4afcb4a87cdbd9974efdb92ee48bc8d7cd0ae4bf217004db3d080cbaee652ca7"
          ],
          "data": "0x000000000000000000000000000000000000000000000000000000006786d2600000000000000000000000000000000000000000000000000003b68eb25a09a80000000000000000000000000000000000000000000000000de0b6b3a7640000",
          "blockHash": "0xddfb34bf939ae676e25bfb29e2b52fd84f9943dfd99830112f0089558e75d906",
          "blockNumber": "0x7252b2",
          "transactionHash": "0xa7932cf5be6a02114b7f5c4e5e1db29581cabdf44c3b062582e5f769dca028a7",
          "transactionIndex": "0x54",
          "logIndex": "0xab",
          "removed": false
        }
      ],
      "logsBloom": "0x00000000000000000000000000000000000000000000000000000000000000000000000000000000000000000000000020000000000000004000000000000000000000000000000000000008000000000000000000000000000000000000000000000000020000000000000000000800020000000000000000000010000000000000000000010000000000000000000000000000000000000000010000000000000000000000000000000000000000004000000000000000000000000000000000000002000000800000000000000000000000000000080000008000000020000000000000000000000000000000000000000000000000000000000000000000",
      "type": "0x2",
      "transactionHash": "0xa7932cf5be6a02114b7f5c4e5e1db29581cabdf44c3b062582e5f769dca028a7",
      "transactionIndex": "0x54",
      "blockHash": "0xddfb34bf939ae676e25bfb29e2b52fd84f9943dfd99830112f0089558e75d906",
      "blockNumber": "0x7252b2",
      "gasUsed": "0x13af8",
      "effectiveGasPrice": "0x3108bdc59",
      "from": "0xc77f7fed3b5cc8249adc428c5f44c9063b9734b4",
      "to": "0x270e88f8683660553e8ba4eb2ad7c91a1710d769",
      "contractAddress": null
    }
  ],
  "libraries": [],
  "pending": [],
  "returns": {},
  "timestamp": 1736888929,
  "chain": 11155111,
  "commit": "51a374b"
}