{
  "transactions": [
    {
      "hash": "0x668211545a1a43dc1505849e0877e16080023ca775c90d3c4a726f5a46cff95e",
      "transactionType": "CALL",
      "contractName": null,
      "contractAddress": "0xbf4a322f1496e5c3d34a9bcdb4c60567b38c7de2",
      "function": "sell(uint256)",
      "arguments": [
        "978671853869569197399"
      ],
      "transaction": {
        "from": "0xc77f7fed3b5cc8249adc428c5f44c9063b9734b4",
        "to": "0xbf4a322f1496e5c3d34a9bcdb4c60567b38c7de2",
        "gas": "0x16fea",
        "value": "0x0",
        "input": "0xe4849b320000000000000000000000000000000000000000000000350dcce1de60acc557",
        "nonce": "0xc7b",
        "chainId": "0xaa36a7"
      },
      "additionalContracts": [],
      "isFixedGasLimit": false
    }
  ],
  "receipts": [
    {
      "status": "0x1",
      "cumulativeGasUsed": "0x8d199d",
      "logs": [
        {
          "address": "0xbf4a322f1496e5c3d34a9bcdb4c60567b38c7de2",
          "topics": [
            "0xddf252ad1be2c89b69c2b068fc378daa952ba7f163c4a11628f55a4df523b3ef",
            "0x000000000000000000000000c77f7fed3b5cc8249adc428c5f44c9063b9734b4",
            "0x0000000000000000000000000000000000000000000000000000000000000000"
          ],
          "data": "0x0000000000000000000000000000000000000000000000350dcce1de60acc557",
          "blockHash": "0x955a4dcc5c4dd3346e545f455acb0392a813ba006ee987fd6053dae340ebbfab",
          "blockNumber": "0x725cba",
          "transactionHash": "0x668211545a1a43dc1505849e0877e16080023ca775c90d3c4a726f5a46cff95e",
          "transactionIndex": "0x42",
          "logIndex": "0x56",
          "removed": false
        },
        {
          "address": "0xbf4a322f1496e5c3d34a9bcdb4c60567b38c7de2",
          "topics": [
            "0x4afcb4a87cdbd9974efdb92ee48bc8d7cd0ae4bf217004db3d080cbaee652ca7"
          ],
          "data": "0x0000000000000000000000000000000000000000000000000000000067874b2c00000000000000000000000000000000000000000000000000039ad68e56bac60000000000000000000000000000000000000000000000000dc7e3defa73f99e",
          "blockHash": "0x955a4dcc5c4dd3346e545f455acb0392a813ba006ee987fd6053dae340ebbfab",
          "blockNumber": "0x725cba",
          "transactionHash": "0x668211545a1a43dc1505849e0877e16080023ca775c90d3c4a726f5a46cff95e",
          "transactionIndex": "0x42",
          "logIndex": "0x57",
          "removed": false
        }
      ],
      "logsBloom": "0x00000000000000000000000000000000000000000000000000000000000000000000000000000000000000000000000000000000000000004000000000000000000000000000000000000008000000000000001000000000000000000000000000000000020000000000000000000800020000000000000000000010000000000000000000000000000000000000000000000000000008000000010000000000000000000000000000000000000000004000000000000000000000000000000000000002000000800000000000001000000000000000080000000000000020000000000000000000000000000000000000000000000000000000000000000000",
      "type": "0x2",
      "transactionHash": "0x668211545a1a43dc1505849e0877e16080023ca775c90d3c4a726f5a46cff95e",
      "transactionIndex": "0x42",
      "blockHash": "0x955a4dcc5c4dd3346e545f455acb0392a813ba006ee987fd6053dae340ebbfab",
      "blockNumber": "0x725cba",
      "gasUsed": "0xfb91",
      "effectiveGasPrice": "0x293a7ab96",
      "from": "0xc77f7fed3b5cc8249adc428c5f44c9063b9734b4",
      "to": "0xbf4a322f1496e5c3d34a9bcdb4c60567b38c7de2",
      "contractAddress": null
    }
  ],
  "libraries": [],
  "pending": [],
  "returns": {},
  "timestamp": 1736919853,
  "chain": 11155111,
  "commit": "51a374b"
}