{
  "transactions": [
    {
      "hash": "0xeff20acb2a48c492113e3b1d327b96d113e126f9c148aa46c30e76ce7df58f9f",
      "transactionType": "CALL",
      "contractName": null,
      "contractAddress": "0x8aafd3ede9adb0ff97c7aebce82a919afb1c8764",
      "function": "sell(uint256)",
      "arguments": [
        "47182108"
      ],
      "transaction": {
        "from": "0xc77f7fed3b5cc8249adc428c5f44c9063b9734b4",
        "to": "0x8aafd3ede9adb0ff97c7aebce82a919afb1c8764",
        "gas": "0x15d88",
        "value": "0x0",
        "input": "0xe4849b320000000000000000000000000000000000000000000000000000000002cff11c",
        "nonce": "0x15e6",
        "chainId": "0xaa36a7"
      },
      "additionalContracts": [],
      "isFixedGasLimit": false
    }
  ],
  "receipts": [
    {
      "status": "0x1",
      "cumulativeGasUsed": "0xb713d8",
      "logs": [
        {
          "address": "0x8aafd3ede9adb0ff97c7aebce82a919afb1c8764",
          "topics": [
            "0xddf252ad1be2c89b69c2b068fc378daa952ba7f163c4a11628f55a4df523b3ef",
            "0x000000000000000000000000c77f7fed3b5cc8249adc428c5f44c9063b9734b4",
            "0x0000000000000000000000000000000000000000000000000000000000000000"
          ],
          "data": "0x0000000000000000000000000000000000000000000000000000000002ca2eac",
          "blockHash": "0x97693018623542ef4a618734a0cf39abf4cb5fa4383c7c48ed3ecb66f8147d9c",
          "blockNumber": "0x731d68",
          "transactionHash": "0xeff20acb2a48c492113e3b1d327b96d113e126f9c148aa46c30e76ce7df58f9f",
          "transactionIndex": "0x58",
          "logIndex": "0xe2",
          "removed": false
        },
        {
          "address": "0x8aafd3ede9adb0ff97c7aebce82a919afb1c8764",
          "topics": [
            "0xddf252ad1be2c89b69c2b068fc378daa952ba7f163c4a11628f55a4df523b3ef",
            "0x000000000000000000000000c77f7fed3b5cc8249adc428c5f44c9063b9734b4",
            "0x000000000000000000000000c77f7fed3b5cc8249adc428c5f44c9063b9734b4"
          ],
          "data": "0x000000000000000000000000000000000000000000000000000000000005c270",
          "blockHash": "0x97693018623542ef4a618734a0cf39abf4cb5fa4383c7c48ed3ecb66f8147d9c",
          "blockNumber": "0x731d68",
          "transactionHash": "0xeff20acb2a48c492113e3b1d327b96d113e126f9c148aa46c30e76ce7df58f9f",
          "transactionIndex": "0x58",
          "logIndex": "0xe3",
          "removed": false
        },
        {
          "address": "0x8aafd3ede9adb0ff97c7aebce82a919afb1c8764",
          "topics": [
            "0x4afcb4a87cdbd9974efdb92ee48bc8d7cd0ae4bf217004db3d080cbaee652ca7"
          ],
          "data": "0x0000000000000000000000000000000000000000000000000000000067905dc80000000000000000000000000000000000000000000000000013b48955bbf3b0000000000000000000000000000000000000000000000000000000000003fe40",
          "blockHash": "0x97693018623542ef4a618734a0cf39abf4cb5fa4383c7c48ed3ecb66f8147d9c",
          "blockNumber": "0x731d68",
          "transactionHash": "0xeff20acb2a48c492113e3b1d327b96d113e126f9c148aa46c30e76ce7df58f9f",
          "transactionIndex": "0x58",
          "logIndex": "0xe4",
          "removed": false
        }
      ],
      "logsBloom": "0x00000000000000000000000000000000000000000600000000000000000000000000000000000000000000000000000000000000000000004000000000000000000000000000004000000008000000000000000000000000000000000000000000000000020000000000000000000800020000000000000000000010000000000000000000000000000000000000000000000000000000000000010000000000000000000000000000000000000000004000000000000000000000000000000000000002000000800000000000000000000000000000080000000000000020000000000000000000000000000000000000000000000000000000000000000000",
      "type": "0x2",
      "transactionHash": "0xeff20acb2a48c492113e3b1d327b96d113e126f9c148aa46c30e76ce7df58f9f",
      "transactionIndex": "0x58",
      "blockHash": "0x97693018623542ef4a618734a0cf39abf4cb5fa4383c7c48ed3ecb66f8147d9c",
      "blockNumber": "0x731d68",
      "gasUsed": "0xfd0f",
      "effectiveGasPrice": "0x5fe53b45",
      "from": "0xc77f7fed3b5cc8249adc428c5f44c9063b9734b4",
      "to": "0x8aafd3ede9adb0ff97c7aebce82a919afb1c8764",
      "contractAddress": null
    }
  ],
  "libraries": [],
  "pending": [],
  "returns": {},
  "timestamp": 1737514442,
  "chain": 11155111,
  "commit": "1d2fb70"
}