{
  "transactions": [
    {
      "hash": "0xb24b070b2401d1ebee7c05c436298fbfd0287c5919759317a65654f7084a9f24",
      "transactionType": "CALL",
      "contractName": null,
      "contractAddress": "0xbf4a322f1496e5c3d34a9bcdb4c60567b38c7de2",
      "function": "sell(uint256)",
      "arguments": [
        "981168782967113285021"
      ],
      "transaction": {
        "from": "0xc77f7fed3b5cc8249adc428c5f44c9063b9734b4",
        "to": "0xbf4a322f1496e5c3d34a9bcdb4c60567b38c7de2",
        "gas": "0x16fea",
        "value": "0x0",
        "input": "0xe4849b320000000000000000000000000000000000000000000000353073c1a751207d9d",
        "nonce": "0xbc1",
        "chainId": "0xaa36a7"
      },
      "additionalContracts": [],
      "isFixedGasLimit": false
    }
  ],
  "receipts": [
    {
      "status": "0x1",
      "cumulativeGasUsed": "0xd3b6c8",
      "logs": [
        {
          "address": "0xbf4a322f1496e5c3d34a9bcdb4c60567b38c7de2",
          "topics": [
            "0xddf252ad1be2c89b69c2b068fc378daa952ba7f163c4a11628f55a4df523b3ef",
            "0x000000000000000000000000c77f7fed3b5cc8249adc428c5f44c9063b9734b4",
            "0x0000000000000000000000000000000000000000000000000000000000000000"
          ],
          "data": "0x0000000000000000000000000000000000000000000000353073c1a751207d9d",
          "blockHash": "0x1c0184698bc66523d631f3e09d3511f4ae5e85c25a337dd85558ceea12f20a3d",
          "blockNumber": "0x725bde",
          "transactionHash": "0xb24b070b2401d1ebee7c05c436298fbfd0287c5919759317a65654f7084a9f24",
          "transactionIndex": "0x86",
          "logIndex": "0x94",
          "removed": false
        },
        {
          "address": "0xbf4a322f1496e5c3d34a9bcdb4c60567b38c7de2",
          "topics": [
            "0x4afcb4a87cdbd9974efdb92ee48bc8d7cd0ae4bf217004db3d080cbaee652ca7"
          ],
          "data": "0x00000000000000000000000000000000000000000000000000000000678740c40000000000000000000000000000000000000000000000000003987d5c2868330000000000000000000000000000000000000000000000000dc7e3e4c8a557f5",
          "blockHash": "0x1c0184698bc66523d631f3e09d3511f4ae5e85c25a337dd85558ceea12f20a3d",
          "blockNumber": "0x725bde",
          "transactionHash": "0xb24b070b2401d1ebee7c05c436298fbfd0287c5919759317a65654f7084a9f24",
          "transactionIndex": "0x86",
          "logIndex": "0x95",
          "removed": false
        }
      ],
      "logsBloom": "0x00000000000000000000000000000000000000000000000000000000000000000000000000000000000000000000000000000000000000004000000000000000000000000000000000000008000000000000001000000000000000000000000000000000020000000000000000000800020000000000000000000010000000000000000000000000000000000000000000000000000008000000010000000000000000000000000000000000000000004000000000000000000000000000000000000002000000800000000000001000000000000000080000000000000020000000000000000000000000000000000000000000000000000000000000000000",
      "type": "0x2",
      "transactionHash": "0xb24b070b2401d1ebee7c05c436298fbfd0287c5919759317a65654f7084a9f24",
      "transactionIndex": "0x86",
      "blockHash": "0x1c0184698bc66523d631f3e09d3511f4ae5e85c25a337dd85558ceea12f20a3d",
      "blockNumber": "0x725bde",
      "gasUsed": "0xfb91",
      "effectiveGasPrice": "0x6984b0ac",
      "from": "0xc77f7fed3b5cc8249adc428c5f44c9063b9734b4",
      "to": "0xbf4a322f1496e5c3d34a9bcdb4c60567b38c7de2",
      "contractAddress": null
    }
  ],
  "libraries": [],
  "pending": [],
  "returns": {},
  "timestamp": 1736917191,
  "chain": 11155111,
  "commit": "51a374b"
}