{
  "transactions": [
    {
      "hash": "0x89a19b29c1f6cda00dc7bda4ee464eaa37f89d8a6e878bec3af3d485cbb4aeeb",
      "transactionType": "CALL",
      "contractName": null,
      "contractAddress": "0x8aafd3ede9adb0ff97c7aebce82a919afb1c8764",
      "function": "sell(uint256)",
      "arguments": [
        "349599025463599"
      ],
      "transaction": {
        "from": "0xc77f7fed3b5cc8249adc428c5f44c9063b9734b4",
        "to": "0x8aafd3ede9adb0ff97c7aebce82a919afb1c8764",
        "gas": "0x1724d",
        "value": "0x0",
        "input": "0xe4849b3200000000000000000000000000000000000000000000000000013df55dba012f",
        "nonce": "0x11de",
        "chainId": "0xaa36a7"
      },
      "additionalContracts": [],
      "isFixedGasLimit": false
    }
  ],
  "receipts": [
    {
      "status": "0x1",
      "cumulativeGasUsed": "0x1186527",
      "logs": [
        {
          "address": "0x8aafd3ede9adb0ff97c7aebce82a919afb1c8764",
          "topics": [
            "0xddf252ad1be2c89b69c2b068fc378daa952ba7f163c4a11628f55a4df523b3ef",
            "0x000000000000000000000000c77f7fed3b5cc8249adc428c5f44c9063b9734b4",
            "0x0000000000000000000000000000000000000000000000000000000000000000"
          ],
          "data": "0x00000000000000000000000000000000000000000000000000013b6a2febb773",
          "blockHash": "0x2534d046c1da2a547e9b7cd7a25f18c696d3e0dffa30acda5fe8a119f727e98d",
          "blockNumber": "0x7318b4",
          "transactionHash": "0x89a19b29c1f6cda00dc7bda4ee464eaa37f89d8a6e878bec3af3d485cbb4aeeb",
          "transactionIndex": "0x8b",
          "logIndex": "0xb4",
          "removed": false
        },
        {
          "address": "0x8aafd3ede9adb0ff97c7aebce82a919afb1c8764",
          "topics": [
            "0xddf252ad1be2c89b69c2b068fc378daa952ba7f163c4a11628f55a4df523b3ef",
            "0x000000000000000000000000c77f7fed3b5cc8249adc428c5f44c9063b9734b4",
            "0x000000000000000000000000c77f7fed3b5cc8249adc428c5f44c9063b9734b4"
          ],
          "data": "0x0000000000000000000000000000000000000000000000000000028b2dce49bc",
          "blockHash": "0x2534d046c1da2a547e9b7cd7a25f18c696d3e0dffa30acda5fe8a119f727e98d",
          "blockNumber": "0x7318b4",
          "transactionHash": "0x89a19b29c1f6cda00dc7bda4ee464eaa37f89d8a6e878bec3af3d485cbb4aeeb",
          "transactionIndex": "0x8b",
          "logIndex": "0xb5",
          "removed": false
        },
        {
          "address": "0x8aafd3ede9adb0ff97c7aebce82a919afb1c8764",
          "topics": [
            "0x4afcb4a87cdbd9974efdb92ee48bc8d7cd0ae4bf217004db3d080cbaee652ca7"
          ],
          "data": "0x000000000000000000000000000000000000000000000000000000006790254000000000000000000000000000000000000000000000000000052c1eafcfc0200000000000000000000000000000000000000000000000000000007681561ac7",
          "blockHash": "0x2534d046c1da2a547e9b7cd7a25f18c696d3e0dffa30acda5fe8a119f727e98d",
          "blockNumber": "0x7318b4",
          "transactionHash": "0x89a19b29c1f6cda00dc7bda4ee464eaa37f89d8a6e878bec3af3d485cbb4aeeb",
          "transactionIndex": "0x8b",
          "logIndex": "0xb6",
          "removed": false
        }
      ],
      "logsBloom": "0x00000000000000000000000000000000000000000600000000000000000000000000000000000000000000000000000000000000000000004000000000000000000000000000004000000008000000000000000000000000000000000000000000000000020000000000000000000800020000000000000000000010000000000000000000000000000000000000000000000000000000000000010000000000000000000000000000000000000000004000000000000000000000000000000000000002000000800000000000000000000000000000080000000000000020000000000000000000000000000000000000000000000000000000000000000000",
      "type": "0x2",
      "transactionHash": "0x89a19b29c1f6cda00dc7bda4ee464eaa37f89d8a6e878bec3af3d485cbb4aeeb",
      "transactionIndex": "0x8b",
      "blockHash": "0x2534d046c1da2a547e9b7cd7a25f18c696d3e0dffa30acda5fe8a119f727e98d",
      "blockNumber": "0x7318b4",
      "gasUsed": "0xfd33",
      "effectiveGasPrice": "0x3f4bcccf",
      "from": "0xc77f7fed3b5cc8249adc428c5f44c9063b9734b4",
      "to": "0x8aafd3ede9adb0ff97c7aebce82a919afb1c8764",
      "contractAddress": null
    }
  ],
  "libraries": [],
  "pending": [],
  "returns": {},
  "timestamp": 1737499969,
  "chain": 11155111,
  "commit": "1d2fb70"
}