{
  "transactions": [
    {
      "hash": "0xddae4cfeed43498351d252533966b0b5f1ceb76ef74a47629faec65c6dc93745",
      "transactionType": "CALL",
      "contractName": null,
      "contractAddress": "0x5eb9cc76c3506942c1c0ead70e877dd5e4f00cb0",
      "function": "buy(address)",
      "arguments": [
        "0xC77f7fed3b5Cc8249aDc428c5F44C9063B9734b4"
      ],
      "transaction": {
        "from": "0xc77f7fed3b5cc8249adc428c5f44c9063b9734b4",
        "to": "0x5eb9cc76c3506942c1c0ead70e877dd5e4f00cb0",
        "gas": "0x1b30c",
        "value": "0xde0b6b3a7640000",
        "input": "0xf088d547000000000000000000000000c77f7fed3b5cc8249adc428c5f44c9063b9734b4",
        "nonce": "0x310",
        "chainId": "0xaa36a7"
      },
      "additionalContracts": [],
      "isFixedGasLimit": false
    }
  ],
  "receipts": [
    {
      "status": "0x1",
      "cumulativeGasUsed": "0xe6c605",
      "logs": [
        {
          "address": "0x5eb9cc76c3506942c1c0ead70e877dd5e4f00cb0",
          "topics": [
            "0xddf252ad1be2c89b69c2b068fc378daa952ba7f163c4a11628f55a4df523b3ef",
            "0x0000000000000000000000000000000000000000000000000000000000000000",
            "0x000000000000000000000000c77f7fed3b5cc8249adc428c5f44c9063b9734b4"
          ],
          "data": "0x0000000000000000000000000000000000000000000000357589b0040da66b3e",
          "blockHash": "0x813549390e8268f59f2e1532302dbad2d7fd9431af792a398a17facd03289b87",
          "blockNumber": "0x724ef5",
          "transactionHash": "0xddae4cfeed43498351d252533966b0b5f1ceb76ef74a47629faec65c6dc93745",
          "transactionIndex": "0x68",
          "logIndex": "0xb5",
          "removed": false
        },
        {
          "address": "0x5eb9cc76c3506942c1c0ead70e877dd5e4f00cb0",
          "topics": [
            "0xddf252ad1be2c89b69c2b068fc378daa952ba7f163c4a11628f55a4df523b3ef",
            "0x0000000000000000000000000000000000000000000000000000000000000000",
            "0x000000000000000000000000c77f7fed3b5cc8249adc428c5f44c9063b9734b4"
          ],
          "data": "0x000000000000000000000000000000000000000000000000298349754eca2bb3",
          "blockHash": "0x813549390e8268f59f2e1532302dbad2d7fd9431af792a398a17facd03289b87",
          "blockNumber": "0x724ef5",
          "transactionHash": "0xddae4cfeed43498351d252533966b0b5f1ceb76ef74a47629faec65c6dc93745",
          "transactionIndex": "0x68",
          "logIndex": "0xb6",
          "removed": false
        },
        {
          "address": "0x5eb9cc76c3506942c1c0ead70e877dd5e4f00cb0",
          "topics": [
            "0x4afcb4a87cdbd9974efdb92ee48bc8d7cd0ae4bf217004db3d080cbaee652ca7"
          ],
          "data": "0x000000000000000000000000000000000000000000000000000000006786a5300000000000000000000000000000000000000000000000000003910c62cb81520000000000000000000000000000000000000000000000000de0b6b3a7640000",
          "blockHash": "0x813549390e8268f59f2e1532302dbad2d7fd9431af792a398a17facd03289b87",
          "blockNumber": "0x724ef5",
          "transactionHash": "0xddae4cfeed43498351d252533966b0b5f1ceb76ef74a47629faec65c6dc93745",
          "transactionIndex": "0x68",
          "logIndex": "0xb7",
          "removed": false
        }
      ],
      "logsBloom": "0x00000000000000000000000000000000000000000000000000000000000000000000000000000000000000000000000000000000000000004000000000000000000000000000000000000008000000000000000000000000000000000000000000000000020000000000000004000800020000000000000000000010000000000000000000000000000000000000000000000000000000000000010000000000000000000000000000000000000000004000000000000000000000000000020000000002000000800000008000000000000000000000080000000000000020000000000000000000000000000000000000000000000000000000000000000000",
      "type": "0x2",
      "transactionHash": "0xddae4cfeed43498351d252533966b0b5f1ceb76ef74a47629faec65c6dc93745",
      "transactionIndex": "0x68",
      "blockHash": "0x813549390e8268f59f2e1532302dbad2d7fd9431af792a398a17facd03289b87",
      "blockNumber": "0x724ef5",
      "gasUsed": "0x13af8",
      "effectiveGasPrice": "0x649ca58b4",
      "from": "0xc77f7fed3b5cc8249adc428c5f44c9063b9734b4",
      "to": "0x5eb9cc76c3506942c1c0ead70e877dd5e4f00cb0",
      "contractAddress": null
    }
  ],
  "libraries": [],
  "pending": [],
  "returns": {},
  "timestamp": 1736877362,
  "chain": 11155111,
  "commit": "51a374b"
}