{
  "transactions": [
    {
      "hash": "0xf391fc872532aef52e5e3d6b9baa0432780211c4507a35cc0eccb6acba3eb093",
      "transactionType": "CALL",
      "contractName": null,
      "contractAddress": "0x270e88f8683660553e8ba4eb2ad7c91a1710d769",
      "function": "sell(uint256)",
      "arguments": [
        "735342185406664090443"
      ],
      "transaction": {
        "from": "0xc77f7fed3b5cc8249adc428c5f44c9063b9734b4",
        "to": "0x270e88f8683660553e8ba4eb2ad7c91a1710d769",
        "gas": "0x16fec",
        "value": "0x0",
        "input": "0xe4849b32000000000000000000000000000000000000000000000027dcec3d9e13a5234b",
        "nonce": "0x770",
        "chainId": "0xaa36a7"
      },
      "additionalContracts": [],
      "isFixedGasLimit": false
    }
  ],
  "receipts": [
    {
      "status": "0x1",
      "cumulativeGasUsed": "0x11322b6",
      "logs": [
        {
          "address": "0x270e88f8683660553e8ba4eb2ad7c91a1710d769",
          "topics": [
            "0xddf252ad1be2c89b69c2b068fc378daa952ba7f163c4a11628f55a4df523b3ef",
            "0x000000000000000000000000c77f7fed3b5cc8249adc428c5f44c9063b9734b4",
            "0x0000000000000000000000000000000000000000000000000000000000000000"
          ],
          "data": "0x000000000000000000000000000000000000000000000027dcec3d9e13a5234b",
          "blockHash": "0x01fc083bfba3346ca7d0973de4536d5fff10d5a91c5fb660c6577c01cbe59d5a",
          "blockNumber": "0x72549e",
          "transactionHash": "0xf391fc872532aef52e5e3d6b9baa0432780211c4507a35cc0eccb6acba3eb093",
          "transactionIndex": "0x3d",
          "logIndex": "0x64",
          "removed": false
        },
        {
          "address": "0x270e88f8683660553e8ba4eb2ad7c91a1710d769",
          "topics": [
            "0x4afcb4a87cdbd9974efdb92ee48bc8d7cd0ae4bf217004db3d080cbaee652ca7"
          ],
          "data": "0x000000000000000000000000000000000000000000000000000000006786e9700000000000000000000000000000000000000000000000000004cc7884d8b5fc0000000000000000000000000000000000000000000000000dc828048f0f9128",
          "blockHash": "0x01fc083bfba3346ca7d0973de4536d5fff10d5a91c5fb660c6577c01cbe59d5a",
          "blockNumber": "0x72549e",
          "transactionHash": "0xf391fc872532aef52e5e3d6b9baa0432780211c4507a35cc0eccb6acba3eb093",
          "transactionIndex": "0x3d",
          "logIndex": "0x65",
          "removed": false
        }
      ],
      "logsBloom": "0x00000000000000000000000000000000000000000000000000000000000000000000000000000000000000000000000020000000000000004000000000000000000000000000000000000008000000000000000000000000000000000000000000000000020000000000000000000800020000000000000000000010000000000000000000010000000000000000000000000000000000000000010000000000000000000000000000000000000000004000000000000000000000000000000000000002000000800000000000000000000000000000080000008000000020000000000000000000000000000000000000000000000000000000000000000000",
      "type": "0x2",
      "transactionHash": "0xf391fc872532aef52e5e3d6b9baa0432780211c4507a35cc0eccb6acba3eb093",
      "transactionIndex": "0x3d",
      "blockHash": "0x01fc083bfba3346ca7d0973de4536d5fff10d5a91c5fb660c6577c01cbe59d5a",
      "blockNumber": "0x72549e",
      "gasUsed": "0xfb93",
      "effectiveGasPrice": "0x1346f6ef9",
      "from": "0xc77f7fed3b5cc8249adc428c5f44c9063b9734b4",
      "to": "0x270e88f8683660553e8ba4eb2ad7c91a1710d769",
      "contractAddress": null
    }
  ],
  "libraries": [],
  "pending": [],
  "returns": {},
  "timestamp": 1736894834,
  "chain": 11155111,
  "commit": "51a374b"
}