{
  "transactions": [
    {
      "hash": "0x86d0eefe92c6bbb58c3dbf7266490b3329a23b3af55b3033dcdb15b129b4ceb1",
      "transactionType": "CALL",
      "contractName": null,
      "contractAddress": "0x8aafd3ede9adb0ff97c7aebce82a919afb1c8764",
      "function": "sell(uint256)",
      "arguments": [
        "5178243640"
      ],
      "transaction": {
        "from": "0xc77f7fed3b5cc8249adc428c5f44c9063b9734b4",
        "to": "0x8aafd3ede9adb0ff97c7aebce82a919afb1c8764",
        "gas": "0x1722a",
        "value": "0x0",
        "input": "0xe4849b320000000000000000000000000000000000000000000000000000000134a5ba38",
        "nonce": "0x16cf",
        "chainId": "0xaa36a7"
      },
      "additionalContracts": [],
      "isFixedGasLimit": false
    }
  ],
  "receipts": [
    {
      "status": "0x1",
      "cumulativeGasUsed": "0xff3184",
      "logs": [
        {
          "address": "0x8aafd3ede9adb0ff97c7aebce82a919afb1c8764",
          "topics": [
            "0xddf252ad1be2c89b69c2b068fc378daa952ba7f163c4a11628f55a4df523b3ef",
            "0x000000000000000000000000c77f7fed3b5cc8249adc428c5f44c9063b9734b4",
            "0x0000000000000000000000000000000000000000000000000000000000000000"
          ],
          "data": "0x00000000000000000000000000000000000000000000000000000001322d9e1b",
          "blockHash": "0x3167b63e5928aad66d220bc53bd7eaeb489f4fc6520ccb691ecdc9f63d60a406",
          "blockNumber": "0x731e8a",
          "transactionHash": "0x86d0eefe92c6bbb58c3dbf7266490b3329a23b3af55b3033dcdb15b129b4ceb1",
          "transactionIndex": "0x83",
          "logIndex": "0xc7",
          "removed": false
        },
        {
          "address": "0x8aafd3ede9adb0ff97c7aebce82a919afb1c8764",
          "topics": [
            "0xddf252ad1be2c89b69c2b068fc378daa952ba7f163c4a11628f55a4df523b3ef",
            "0x000000000000000000000000c77f7fed3b5cc8249adc428c5f44c9063b9734b4",
            "0x000000000000000000000000c77f7fed3b5cc8249adc428c5f44c9063b9734b4"
          ],
          "data": "0x0000000000000000000000000000000000000000000000000000000002781c1d",
          "blockHash": "0x3167b63e5928aad66d220bc53bd7eaeb489f4fc6520ccb691ecdc9f63d60a406",
          "blockNumber": "0x731e8a",
          "transactionHash": "0x86d0eefe92c6bbb58c3dbf7266490b3329a23b3af55b3033dcdb15b129b4ceb1",
          "transactionIndex": "0x83",
          "logIndex": "0xc8",
          "removed": false
        },
        {
          "address": "0x8aafd3ede9adb0ff97c7aebce82a919afb1c8764",
          "topics": [
            "0x4afcb4a87cdbd9974efdb92ee48bc8d7cd0ae4bf217004db3d080cbaee652ca7"
          ],
          "data": "0x0000000000000000000000000000000000000000000000000000000067906b6000000000000000000000000000000000000000000000000000166dec19a797db0000000000000000000000000000000000000000000000000000000001f2d692",
          "blockHash": "0x3167b63e5928aad66d220bc53bd7eaeb489f4fc6520ccb691ecdc9f63d60a406",
          "blockNumber": "0x731e8a",
          "transactionHash": "0x86d0eefe92c6bbb58c3dbf7266490b3329a23b3af55b3033dcdb15b129b4ceb1",
          "transactionIndex": "0x83",
          "logIndex": "0xc9",
          "removed": false
        }
      ],
      "logsBloom": "0x00000000000000000000000000000000000000000600000000000000000000000000000000000000000000000000000000000000000000004000000000000000000000000000004000000008000000000000000000000000000000000000000000000000020000000000000000000800020000000000000000000010000000000000000000000000000000000000000000000000000000000000010000000000000000000000000000000000000000004000000000000000000000000000000000000002000000800000000000000000000000000000080000000000000020000000000000000000000000000000000000000000000000000000000000000000",
      "type": "0x2",
      "transactionHash": "0x86d0eefe92c6bbb58c3dbf7266490b3329a23b3af55b3033dcdb15b129b4ceb1",
      "transactionIndex": "0x83",
      "blockHash": "0x3167b63e5928aad66d220bc53bd7eaeb489f4fc6520ccb691ecdc9f63d60a406",
      "blockNumber": "0x731e8a",
      "gasUsed": "0xfd1b",
      "effectiveGasPrice": "0x45a7179f",
      "from": "0xc77f7fed3b5cc8249adc428c5f44c9063b9734b4",
      "to": "0x8aafd3ede9adb0ff97c7aebce82a919afb1c8764",
      "contractAddress": null
    }
  ],
  "libraries": [],
  "pending": [],
  "returns": {},
  "timestamp": 1737517921,
  "chain": 11155111,
  "commit": "1d2fb70"
}