{
  "transactions": [
    {
      "hash": "0xefd55c3d8676f46001ef757fbe08a51a2d75a3d7bdfe99a4ca1b8d21edbfb9f0",
      "transactionType": "CALL",
      "contractName": null,
      "contractAddress": "0x5eb9cc76c3506942c1c0ead70e877dd5e4f00cb0",
      "function": "buy(address)",
      "arguments": [
        "0xC77f7fed3b5Cc8249aDc428c5F44C9063B9734b4"
      ],
      "transaction": {
        "from": "0xc77f7fed3b5cc8249adc428c5f44c9063b9734b4",
        "to": "0x5eb9cc76c3506942c1c0ead70e877dd5e4f00cb0",
        "gas": "0x156c8",
        "value": "0xde0b6b3a7640000",
        "input": "0xf088d547000000000000000000000000c77f7fed3b5cc8249adc428c5f44c9063b9734b4",
        "nonce": "0x138",
        "chainId": "0xaa36a7"
      },
      "additionalContracts": [],
      "isFixedGasLimit": false
    }
  ],
  "receipts": [
    {
      "status": "0x1",
      "cumulativeGasUsed": "0xca4e8f",
      "logs": [
        {
          "address": "0x5eb9cc76c3506942c1c0ead70e877dd5e4f00cb0",
          "topics": [
            "0xddf252ad1be2c89b69c2b068fc378daa952ba7f163c4a11628f55a4df523b3ef",
            "0x0000000000000000000000000000000000000000000000000000000000000000",
            "0x000000000000000000000000c77f7fed3b5cc8249adc428c5f44c9063b9734b4"
          ],
          "data": "0x000000000000000000000000000000000000000000000035aafbf39f21c4304e",
          "blockHash": "0xd857a18b3ebc0556036762fab3ce9cdf55dca865a37682cf651674ad387cb8cc",
          "blockNumber": "0x723b1c",
          "transactionHash": "0xefd55c3d8676f46001ef757fbe08a51a2d75a3d7bdfe99a4ca1b8d21edbfb9f0",
          "transactionIndex": "0x4e",
          "logIndex": "0xa3",
          "removed": false
        },
        {
          "address": "0x5eb9cc76c3506942c1c0ead70e877dd5e4f00cb0",
          "topics": [
            "0xddf252ad1be2c89b69c2b068fc378daa952ba7f163c4a11628f55a4df523b3ef",
            "0x0000000000000000000000000000000000000000000000000000000000000000",
            "0x000000000000000000000000c77f7fed3b5cc8249adc428c5f44c9063b9734b4"
          ],
          "data": "0x00000000000000000000000000000000000000000000000029acca33f7878c89",
          "blockHash": "0xd857a18b3ebc0556036762fab3ce9cdf55dca865a37682cf651674ad387cb8cc",
          "blockNumber": "0x723b1c",
          "transactionHash": "0xefd55c3d8676f46001ef757fbe08a51a2d75a3d7bdfe99a4ca1b8d21edbfb9f0",
          "transactionIndex": "0x4e",
          "logIndex": "0xa4",
          "removed": false
        },
        {
          "address": "0x5eb9cc76c3506942c1c0ead70e877dd5e4f00cb0",
          "topics": [
            "0x4afcb4a87cdbd9974efdb92ee48bc8d7cd0ae4bf217004db3d080cbaee652ca7"
          ],
          "data": "0x000000000000000000000000000000000000000000000000000000006785b6a400000000000000000000000000000000000000000000000000038d7f1b68cc020000000000000000000000000000000000000000000000000de0b6b3a7640000",
          "blockHash": "0xd857a18b3ebc0556036762fab3ce9cdf55dca865a37682cf651674ad387cb8cc",
          "blockNumber": "0x723b1c",
          "transactionHash": "0xefd55c3d8676f46001ef757fbe08a51a2d75a3d7bdfe99a4ca1b8d21edbfb9f0",
          "transactionIndex": "0x4e",
          "logIndex": "0xa5",
          "removed": false
        }
      ],
      "logsBloom": "0x00000000000000000000000000000000000000000000000000000000000000000000000000000000000000000000000000000000000000004000000000000000000000000000000000000008000000000000000000000000000000000000000000000000020000000000000004000800020000000000000000000010000000000000000000000000000000000000000000000000000000000000010000000000000000000000000000000000000000004000000000000000000000000000020000000002000000800000008000000000000000000000080000000000000020000000000000000000000000000000000000000000000000000000000000000000",
      "type": "0x2",
      "transactionHash": "0xefd55c3d8676f46001ef757fbe08a51a2d75a3d7bdfe99a4ca1b8d21edbfb9f0",
      "transactionIndex": "0x4e",
      "blockHash": "0xd857a18b3ebc0556036762fab3ce9cdf55dca865a37682cf651674ad387cb8cc",
      "blockNumber": "0x723b1c",
      "gasUsed": "0xf82c",
      "effectiveGasPrice": "0x37f886a39",
      "from": "0xc77f7fed3b5cc8249adc428c5f44c9063b9734b4",
      "to": "0x5eb9cc76c3506942c1c0ead70e877dd5e4f00cb0",
      "contractAddress": null
    }
  ],
  "libraries": [],
  "pending": [],
  "returns": {},
  "timestamp": 1736816293,
  "chain": 11155111,
  "commit": "51a374b"
}