{
  "transactions": [
    {
      "hash": "0x4d7e71d0b0e369b95150248965fa4d996dad86518f75d60882faac4177f0f6c3",
      "transactionType": "CALL",
      "contractName": null,
      "contractAddress": "0xd7bc75898e513accccf720a874d44dab5a4b6223",
      "function": "sell(uint256)",
      "arguments": [
        "9929991265547839893"
      ],
      "transaction": {
        "from": "0xc77f7fed3b5cc8249adc428c5f44c9063b9734b4",
        "to": "0xd7bc75898e513accccf720a874d44dab5a4b6223",
        "gas": "0x15b6b",
        "value": "0x0",
        "input": "0xe4849b3200000000000000000000000000000000000000000000000089ce6a71d5b5e995",
        "nonce": "0x105",
        "chainId": "0xaa36a7"
      },
      "additionalContracts": [],
      "isFixedGasLimit": false
    }
  ],
  "receipts": [
    {
      "status": "0x1",
      "cumulativeGasUsed": "0xad0b3",
      "logs": [
        {
          "address": "0xd7bc75898e513accccf720a874d44dab5a4b6223",
          "topics": [
            "0xddf252ad1be2c89b69c2b068fc378daa952ba7f163c4a11628f55a4df523b3ef",
            "0x000000000000000000000000c77f7fed3b5cc8249adc428c5f44c9063b9734b4",
            "0x0000000000000000000000000000000000000000000000000000000000000000"
          ],
          "data": "0x00000000000000000000000000000000000000000000000089ce6a71d5b5e995",
          "blockHash": "0x04abf86c7a144e9eba4b2cf8393312fe8c45279064fad3653f497840aee84f15",
          "blockNumber": "0x723998",
          "transactionHash": "0x4d7e71d0b0e369b95150248965fa4d996dad86518f75d60882faac4177f0f6c3",
          "transactionIndex": "0x3",
          "logIndex": "0x13",
          "removed": false
        },
        {
          "address": "0xd7bc75898e513accccf720a874d44dab5a4b6223",
          "topics": [
            "0x4afcb4a87cdbd9974efdb92ee48bc8d7cd0ae4bf217004db3d080cbaee652ca7"
          ],
          "data": "0x000000000000000000000000000000000000000000000000000000006785a47400000000000000000000000000000000000000000000000000038d7f8da6c5250000000000000000000000000000000000000000000000000023474f493d2797",
          "blockHash": "0x04abf86c7a144e9eba4b2cf8393312fe8c45279064fad3653f497840aee84f15",
          "blockNumber": "0x723998",
          "transactionHash": "0x4d7e71d0b0e369b95150248965fa4d996dad86518f75d60882faac4177f0f6c3",
          "transactionIndex": "0x3",
          "logIndex": "0x14",
          "removed": false
        }
      ],
      "logsBloom": "0x00000000000000000000000000000000000000000000000000000000000000000000000000000000000000000000000000000000000000004000000000000000000000000000000000000008000000000000000000000000000000000000000000000000020000000000000000000800020000000000000000000010000000000000000000000000000000000000000000000000000000000000010000000000000000000000000000000000000000004000001000000000000000000000000000000002000000800000000000004000000000000000080000000000000020000000000000000000000000000000000000000000080000000000000000000000",
      "type": "0x2",
      "transactionHash": "0x4d7e71d0b0e369b95150248965fa4d996dad86518f75d60882faac4177f0f6c3",
      "transactionIndex": "0x3",
      "blockHash": "0x04abf86c7a144e9eba4b2cf8393312fe8c45279064fad3653f497840aee84f15",
      "blockNumber": "0x723998",
      "gasUsed": "0xfb87",
      "effectiveGasPrice": "0x2bafe4524",
      "from": "0xc77f7fed3b5cc8249adc428c5f44c9063b9734b4",
      "to": "0xd7bc75898e513accccf720a874d44dab5a4b6223",
      "contractAddress": null
    }
  ],
  "libraries": [],
  "pending": [],
  "returns": {},
  "timestamp": 1736811639,
  "chain": 11155111,
  "commit": "51a374b"
}