{
  "transactions": [
    {
      "hash": "0xa71e21388cc4fb0eed9731197565d8cf31f61653e90f63647d49a5afbea085f2",
      "transactionType": "CALL",
      "contractName": null,
      "contractAddress": "0x270e88f8683660553e8ba4eb2ad7c91a1710d769",
      "function": "sell(uint256)",
      "arguments": [
        "967484019472926601218"
      ],
      "transaction": {
        "from": "0xc77f7fed3b5cc8249adc428c5f44c9063b9734b4",
        "to": "0x270e88f8683660553e8ba4eb2ad7c91a1710d769",
        "gas": "0x16fec",
        "value": "0x0",
        "input": "0xe4849b320000000000000000000000000000000000000000000000347289b5c2b6e57002",
        "nonce": "0x579",
        "chainId": "0xaa36a7"
      },
      "additionalContracts": [],
      "isFixedGasLimit": false
    }
  ],
  "receipts": [
    {
      "status": "0x1",
      "cumulativeGasUsed": "0x13b25bd",
      "logs": [
        {
          "address": "0x270e88f8683660553e8ba4eb2ad7c91a1710d769",
          "topics": [
            "0xddf252ad1be2c89b69c2b068fc378daa952ba7f163c4a11628f55a4df523b3ef",
            "0x000000000000000000000000c77f7fed3b5cc8249adc428c5f44c9063b9734b4",
            "0x0000000000000000000000000000000000000000000000000000000000000000"
          ],
          "data": "0x0000000000000000000000000000000000000000000000347289b5c2b6e57002",
          "blockHash": "0x32420e374b5d6a4e57b24083634083c580a9247522f934ce203a528822214ec2",
          "blockNumber": "0x725224",
          "transactionHash": "0xa71e21388cc4fb0eed9731197565d8cf31f61653e90f63647d49a5afbea085f2",
          "transactionIndex": "0x66",
          "logIndex": "0x88",
          "removed": false
        },
        {
          "address": "0x270e88f8683660553e8ba4eb2ad7c91a1710d769",
          "topics": [
            "0x4afcb4a87cdbd9974efdb92ee48bc8d7cd0ae4bf217004db3d080cbaee652ca7"
          ],
          "data": "0x000000000000000000000000000000000000000000000000000000006786cba00000000000000000000000000000000000000000000000000003a5c6d41bf4c20000000000000000000000000000000000000000000000000dc83ff487bf8725",
          "blockHash": "0x32420e374b5d6a4e57b24083634083c580a9247522f934ce203a528822214ec2",
          "blockNumber": "0x725224",
          "transactionHash": "0xa71e21388cc4fb0eed9731197565d8cf31f61653e90f63647d49a5afbea085f2",
          "transactionIndex": "0x66",
          "logIndex": "0x89",
          "removed": false
        }
      ],
      "logsBloom": "0x00000000000000000000000000000000000000000000000000000000000000000000000000000000000000000000000020000000000000004000000000000000000000000000000000000008000000000000000000000000000000000000000000000000020000000000000000000800020000000000000000000010000000000000000000010000000000000000000000000000000000000000010000000000000000000000000000000000000000004000000000000000000000000000000000000002000000800000000000000000000000000000080000008000000020000000000000000000000000000000000000000000000000000000000000000000",
      "type": "0x2",
      "transactionHash": "0xa71e21388cc4fb0eed9731197565d8cf31f61653e90f63647d49a5afbea085f2",
      "transactionIndex": "0x66",
      "blockHash": "0x32420e374b5d6a4e57b24083634083c580a9247522f934ce203a528822214ec2",
      "blockNumber": "0x725224",
      "gasUsed": "0xfb93",
      "effectiveGasPrice": "0x424d85ac5",
      "from": "0xc77f7fed3b5cc8249adc428c5f44c9063b9734b4",
      "to": "0x270e88f8683660553e8ba4eb2ad7c91a1710d769",
      "contractAddress": null
    }
  ],
  "libraries": [],
  "pending": [],
  "returns": {},
  "timestamp": 1736887202,
  "chain": 11155111,
  "commit": "51a374b"
}