{
  "transactions": [
    {
      "hash": "0x8ad5a4622fa68c5f452f0df3da880e2be0de632a3afd2a9a7b95582dd3562cd6",
      "transactionType": "CALL",
      "contractName": null,
      "contractAddress": "0xbf4a322f1496e5c3d34a9bcdb4c60567b38c7de2",
      "function": "sell(uint256)",
      "arguments": [
        "982921524575240882850"
      ],
      "transaction": {
        "from": "0xc77f7fed3b5cc8249adc428c5f44c9063b9734b4",
        "to": "0xbf4a322f1496e5c3d34a9bcdb4c60567b38c7de2",
        "gas": "0x16fea",
        "value": "0x0",
        "input": "0xe4849b3200000000000000000000000000000000000000000000003548c6bedc189e8aa2",
        "nonce": "0xb3f",
        "chainId": "0xaa36a7"
      },
      "additionalContracts": [],
      "isFixedGasLimit": false
    }
  ],
  "receipts": [
    {
      "status": "0x1",
      "cumulativeGasUsed": "0x21d1384",
      "logs": [
        {
          "address": "0xbf4a322f1496e5c3d34a9bcdb4c60567b38c7de2",
          "topics": [
            "0xddf252ad1be2c89b69c2b068fc378daa952ba7f163c4a11628f55a4df523b3ef",
            "0x000000000000000000000000c77f7fed3b5cc8249adc428c5f44c9063b9734b4",
            "0x0000000000000000000000000000000000000000000000000000000000000000"
          ],
          "data": "0x00000000000000000000000000000000000000000000003548c6bedc189e8aa2",
          "blockHash": "0x414e4586d4ced399993dab15d9179b720802dc46a16a7e14656cc899b12ae12c",
          "blockNumber": "0x725b43",
          "transactionHash": "0x8ad5a4622fa68c5f452f0df3da880e2be0de632a3afd2a9a7b95582dd3562cd6",
          "transactionIndex": "0x111",
          "logIndex": "0x18d",
          "removed": false
        },
        {
          "address": "0xbf4a322f1496e5c3d34a9bcdb4c60567b38c7de2",
          "topics": [
            "0x4afcb4a87cdbd9974efdb92ee48bc8d7cd0ae4bf217004db3d080cbaee652ca7"
          ],
          "data": "0x0000000000000000000000000000000000000000000000000000000067873980000000000000000000000000000000000000000000000000000396d92b701a570000000000000000000000000000000000000000000000000dc7e3e8dbe2c61f",
          "blockHash": "0x414e4586d4ced399993dab15d9179b720802dc46a16a7e14656cc899b12ae12c",
          "blockNumber": "0x725b43",
          "transactionHash": "0x8ad5a4622fa68c5f452f0df3da880e2be0de632a3afd2a9a7b95582dd3562cd6",
          "transactionIndex": "0x111",
          "logIndex": "0x18e",
          "removed": false
        }
      ],
      "logsBloom": "0x00000000000000000000000000000000000000000000000000000000000000000000000000000000000000000000000000000000000000004000000000000000000000000000000000000008000000000000001000000000000000000000000000000000020000000000000000000800020000000000000000000010000000000000000000000000000000000000000000000000000008000000010000000000000000000000000000000000000000004000000000000000000000000000000000000002000000800000000000001000000000000000080000000000000020000000000000000000000000000000000000000000000000000000000000000000",
      "type": "0x2",
      "transactionHash": "0x8ad5a4622fa68c5f452f0df3da880e2be0de632a3afd2a9a7b95582dd3562cd6",
      "transactionIndex": "0x111",
      "blockHash": "0x414e4586d4ced399993dab15d9179b720802dc46a16a7e14656cc899b12ae12c",
      "blockNumber": "0x725b43",
      "gasUsed": "0xfb91",
      "effectiveGasPrice": "0x3c33e840",
      "from": "0xc77f7fed3b5cc8249adc428c5f44c9063b9734b4",
      "to": "0xbf4a322f1496e5c3d34a9bcdb4c60567b38c7de2",
      "contractAddress": null
    }
  ],
  "libraries": [],
  "pending": [],
  "returns": {},
  "timestamp": 1736915329,
  "chain": 11155111,
  "commit": "51a374b"
}