{
  "transactions": [
    {
      "hash": "0xccfb05d4059e847f9e3243806771b8fc806289e764f4c437d537d1487c7a044a",
      "transactionType": "CALL",
      "contractName": null,
      "contractAddress": "0x270e88f8683660553e8ba4eb2ad7c91a1710d769",
      "function": "sell(uint256)",
      "arguments": [
        "3858999375117485303693"
      ],
      "transaction": {
        "from": "0xc77f7fed3b5cc8249adc428c5f44c9063b9734b4",
        "to": "0x270e88f8683660553e8ba4eb2ad7c91a1710d769",
        "gas": "0x16fec",
        "value": "0x0",
        "input": "0xe4849b320000000000000000000000000000000000000000000000d1325fddd07c1b678d",
        "nonce": "0x664",
        "chainId": "0xaa36a7"
      },
      "additionalContracts": [],
      "isFixedGasLimit": false
    }
  ],
  "receipts": [
    {
      "status": "0x1",
      "cumulativeGasUsed": "0x6dfcd1",
      "logs": [
        {
          "address": "0x270e88f8683660553e8ba4eb2ad7c91a1710d769",
          "topics": [
            "0xddf252ad1be2c89b69c2b068fc378daa952ba7f163c4a11628f55a4df523b3ef",
            "0x000000000000000000000000c77f7fed3b5cc8249adc428c5f44c9063b9734b4",
            "0x0000000000000000000000000000000000000000000000000000000000000000"
          ],
          "data": "0x0000000000000000000000000000000000000000000000d1325fddd07c1b678d",
          "blockHash": "0x974c8938161b2a30e3e348595eeeaa2a15302cabb07c28a198a6e2318202dd30",
          "blockNumber": "0x72535d",
          "transactionHash": "0xccfb05d4059e847f9e3243806771b8fc806289e764f4c437d537d1487c7a044a",
          "transactionIndex": "0x30",
          "logIndex": "0x4b",
          "removed": false
        },
        {
          "address": "0x270e88f8683660553e8ba4eb2ad7c91a1710d769",
          "topics": [
            "0x4afcb4a87cdbd9974efdb92ee48bc8d7cd0ae4bf217004db3d080cbaee652ca7"
          ],
          "data": "0x000000000000000000000000000000000000000000000000000000006786da640000000000000000000000000000000000000000000000000004a537fb54631d00000000000000000000000000000000000000000000000045f82394e93f3b30",
          "blockHash": "0x974c8938161b2a30e3e348595eeeaa2a15302cabb07c28a198a6e2318202dd30",
          "blockNumber": "0x72535d",
          "transactionHash": "0xccfb05d4059e847f9e3243806771b8fc806289e764f4c437d537d1487c7a044a",
          "transactionIndex": "0x30",
          "logIndex": "0x4c",
          "removed": false
        }
      ],
      "logsBloom": "0x00000000000000000000000000000000000000000000000000000000000000000000000000000000000000000000000020000000000000004000000000000000000000000000000000000008000000000000000000000000000000000000000000000000020000000000000000000800020000000000000000000010000000000000000000010000000000000000000000000000000000000000010000000000000000000000000000000000000000004000000000000000000000000000000000000002000000800000000000000000000000000000080000008000000020000000000000000000000000000000000000000000000000000000000000000000",
      "type": "0x2",
      "transactionHash": "0xccfb05d4059e847f9e3243806771b8fc806289e764f4c437d537d1487c7a044a",
      "transactionIndex": "0x30",
      "blockHash": "0x974c8938161b2a30e3e348595eeeaa2a15302cabb07c28a198a6e2318202dd30",
      "blockNumber": "0x72535d",
      "gasUsed": "0xfb93",
      "effectiveGasPrice": "0x35389fe2a",
      "from": "0xc77f7fed3b5cc8249adc428c5f44c9063b9734b4",
      "to": "0x270e88f8683660553e8ba4eb2ad7c91a1710d769",
      "contractAddress": null
    }
  ],
  "libraries": [],
  "pending": [],
  "returns": {},
  "timestamp": 1736890981,
  "chain": 11155111,
  "commit": "51a374b"
}