{
  "transactions": [
    {
      "hash": "0xd6596a1074856c835871dfd0974cf66bc15679f2f2c57c270c342ce12a29be86",
      "transactionType": "CALL",
      "contractName": null,
      "contractAddress": "0xbf4a322f1496e5c3d34a9bcdb4c60567b38c7de2",
      "function": "sell(uint256)",
      "arguments": [
        "979717404648776087690"
      ],
      "transaction": {
        "from": "0xc77f7fed3b5cc8249adc428c5f44c9063b9734b4",
        "to": "0xbf4a322f1496e5c3d34a9bcdb4c60567b38c7de2",
        "gas": "0x16fea",
        "value": "0x0",
        "input": "0xe4849b320000000000000000000000000000000000000000000000351c4f6cc345ef388a",
        "nonce": "0xc2d",
        "chainId": "0xaa36a7"
      },
      "additionalContracts": [],
      "isFixedGasLimit": false
    }
  ],
  "receipts": [
    {
      "status": "0x1",
      "cumulativeGasUsed": "0xf01abf",
      "logs": [
        {
          "address": "0xbf4a322f1496e5c3d34a9bcdb4c60567b38c7de2",
          "topics": [
            "0xddf252ad1be2c89b69c2b068fc378daa952ba7f163c4a11628f55a4df523b3ef",
            "0x000000000000000000000000c77f7fed3b5cc8249adc428c5f44c9063b9734b4",
            "0x0000000000000000000000000000000000000000000000000000000000000000"
          ],
          "data": "0x0000000000000000000000000000000000000000000000351c4f6cc345ef388a",
          "blockHash": "0xa0b0a6ad307264854fcab15fd48a594ac7d119acbc003e89ff0b395268dc16f6",
          "blockNumber": "0x725c5f",
          "transactionHash": "0xd6596a1074856c835871dfd0974cf66bc15679f2f2c57c270c342ce12a29be86",
          "transactionIndex": "0x56",
          "logIndex": "0xf6",
          "removed": false
        },
        {
          "address": "0xbf4a322f1496e5c3d34a9bcdb4c60567b38c7de2",
          "topics": [
            "0x4afcb4a87cdbd9974efdb92ee48bc8d7cd0ae4bf217004db3d080cbaee652ca7"
          ],
          "data": "0x00000000000000000000000000000000000000000000000000000000678746d0000000000000000000000000000000000000000000000000000399da7103690a0000000000000000000000000000000000000000000000000dc7e3e168c6587f",
          "blockHash": "0xa0b0a6ad307264854fcab15fd48a594ac7d119acbc003e89ff0b395268dc16f6",
          "blockNumber": "0x725c5f",
          "transactionHash": "0xd6596a1074856c835871dfd0974cf66bc15679f2f2c57c270c342ce12a29be86",
          "transactionIndex": "0x56",
          "logIndex": "0xf7",
          "removed": false
        }
      ],
      "logsBloom": "0x00000000000000000000000000000000000000000000000000000000000000000000000000000000000000000000000000000000000000004000000000000000000000000000000000000008000000000000001000000000000000000000000000000000020000000000000000000800020000000000000000000010000000000000000000000000000000000000000000000000000008000000010000000000000000000000000000000000000000004000000000000000000000000000000000000002000000800000000000001000000000000000080000000000000020000000000000000000000000000000000000000000000000000000000000000000",
      "type": "0x2",
      "transactionHash": "0xd6596a1074856c835871dfd0974cf66bc15679f2f2c57c270c342ce12a29be86",
      "transactionIndex": "0x56",
      "blockHash": "0xa0b0a6ad307264854fcab15fd48a594ac7d119acbc003e89ff0b395268dc16f6",
      "blockNumber": "0x725c5f",
      "gasUsed": "0xfb91",
      "effectiveGasPrice": "0x17fa358e6",
      "from": "0xc77f7fed3b5cc8249adc428c5f44c9063b9734b4",
      "to": "0xbf4a322f1496e5c3d34a9bcdb4c60567b38c7de2",
      "contractAddress": null
    }
  ],
  "libraries": [],
  "pending": [],
  "returns": {},
  "timestamp": 1736918738,
  "chain": 11155111,
  "commit": "51a374b"
}