{
  "transactions": [
    {
      "hash": "0xfded855026f55634ace8abbac740e6a62e0a90798506833a83175c0ccd4b0be8",
      "transactionType": "CALL",
      "contractName": null,
      "contractAddress": "0x8aafd3ede9adb0ff97c7aebce82a919afb1c8764",
      "function": "buy(address)",
      "arguments": [
        "0xC77f7fed3b5Cc8249aDc428c5F44C9063B9734b4"
      ],
      "transaction": {
        "from": "0xc77f7fed3b5cc8249adc428c5f44c9063b9734b4",
        "to": "0x8aafd3ede9adb0ff97c7aebce82a919afb1c8764",
        "gas": "0x156ea",
        "value": "0xde0b6b3a7640000",
        "input": "0xf088d547000000000000000000000000c77f7fed3b5cc8249adc428c5f44c9063b9734b4",
        "nonce": "0xfca",
        "chainId": "0xaa36a7"
      },
      "additionalContracts": [],
      "isFixedGasLimit": false
    }
  ],
  "receipts": [
    {
      "status": "0x1",
      "cumulativeGasUsed": "0x8de214",
      "logs": [
        {
          "address": "0x8aafd3ede9adb0ff97c7aebce82a919afb1c8764",
          "topics": [
            "0xddf252ad1be2c89b69c2b068fc378daa952ba7f163c4a11628f55a4df523b3ef",
            "0x0000000000000000000000000000000000000000000000000000000000000000",
            "0x000000000000000000000000c77f7fed3b5cc8249adc428c5f44c9063b9734b4"
          ],
          "data": "0x000000000000000000000000000000000000000000000027fe5b8347101128bb",
          "blockHash": "0x7769a4987614e3c05c8de638cc18642f2594a212b9f3b8981efefbb4a1f93a36",
          "blockNumber": "0x731637",
          "transactionHash": "0xfded855026f55634ace8abbac740e6a62e0a90798506833a83175c0ccd4b0be8",
          "transactionIndex": "0x7c",
          "logIndex": "0x96",
          "removed": false
        },
        {
          "address": "0x8aafd3ede9adb0ff97c7aebce82a919afb1c8764",
          "topics": [
            "0xddf252ad1be2c89b69c2b068fc378daa952ba7f163c4a11628f55a4df523b3ef",
            "0x0000000000000000000000000000000000000000000000000000000000000000",
            "0x000000000000000000000000c77f7fed3b5cc8249adc428c5f44c9063b9734b4"
          ],
          "data": "0x0000000000000000000000000000000000000000000000001f0e6f0de7e605ca",
          "blockHash": "0x7769a4987614e3c05c8de638cc18642f2594a212b9f3b8981efefbb4a1f93a36",
          "blockNumber": "0x731637",
          "transactionHash": "0xfded855026f55634ace8abbac740e6a62e0a90798506833a83175c0ccd4b0be8",
          "transactionIndex": "0x7c",
          "logIndex": "0x97",
          "removed": false
        },
        {
          "address": "0x8aafd3ede9adb0ff97c7aebce82a919afb1c8764",
          "topics": [
            "0x4afcb4a87cdbd9974efdb92ee48bc8d7cd0ae4bf217004db3d080cbaee652ca7"
          ],
          "data": "0x00000000000000000000000000000000000000000000000000000000679007400000000000000000000000000000000000000000000000000004c48f4d8030470000000000000000000000000000000000000000000000000de0b6b3a7640000",
          "blockHash": "0x7769a4987614e3c05c8de638cc18642f2594a212b9f3b8981efefbb4a1f93a36",
          "blockNumber": "0x731637",
          "transactionHash": "0xfded855026f55634ace8abbac740e6a62e0a90798506833a83175c0ccd4b0be8",
          "transactionIndex": "0x7c",
          "logIndex": "0x98",
          "removed": false
        }
      ],
      "logsBloom": "0x00000000000000000000000000000000000000000600000000000000000000000000000000000000000000000000000000000000000000004000000000000000000000000000004000000008000000000000000000000000000000000000000000000000020000000000000000000800020000000000000000000010000000000000000000000000000000000000000000000000000000000000010000000000000000000000000000000000000000004000000000000000000000000000000000000002000000800000000000000000000000000000080000000000000020000000000000000000000000000000000000000000000000000000000000000000",
      "type": "0x2",
      "transactionHash": "0xfded855026f55634ace8abbac740e6a62e0a90798506833a83175c0ccd4b0be8",
      "transactionIndex": "0x7c",
      "blockHash": "0x7769a4987614e3c05c8de638cc18642f2594a212b9f3b8981efefbb4a1f93a36",
      "blockNumber": "0x731637",
      "gasUsed": "0xf844",
      "effectiveGasPrice": "0x5645e766",
      "from": "0xc77f7fed3b5cc8249adc428c5f44c9063b9734b4",
      "to": "0x8aafd3ede9adb0ff97c7aebce82a919afb1c8764",
      "contractAddress": null
    }
  ],
  "libraries": [],
  "pending": [],
  "returns": {},
  "timestamp": 1737492290,
  "chain": 11155111,
  "commit": "1d2fb70"
}