{
  "transactions": [
    {
      "hash": "0x9572516ce76f6fc92a2fd03ff355926c91da9489e8e5cf40a6622033d133da8d",
      "transactionType": "CALL",
      "contractName": null,
      "contractAddress": "0x270e88f8683660553e8ba4eb2ad7c91a1710d769",
      "function": "buy(address)",
      "arguments": [
        "0xC77f7fed3b5Cc8249aDc428c5F44C9063B9734b4"
      ],
      "transaction": {
        "from": "0xc77f7fed3b5cc8249adc428c5f44c9063b9734b4",
        "to": "0x270e88f8683660553e8ba4eb2ad7c91a1710d769",
        "gas": "0x1b30c",
        "value": "0xde0b6b3a7640000",
        "input": "0xf088d547000000000000000000000000c77f7fed3b5cc8249adc428c5f44c9063b9734b4",
        "nonce": "0x7d1",
        "chainId": "0xaa36a7"
      },
      "additionalContracts": [],
      "isFixedGasLimit": false
    }
  ],
  "receipts": [
    {
      "status": "0x1",
      "cumulativeGasUsed": "0x1517f7a",
      "logs": [
        {
          "address": "0x270e88f8683660553e8ba4eb2ad7c91a1710d769",
          "topics": [
            "0xddf252ad1be2c89b69c2b068fc378daa952ba7f163c4a11628f55a4df523b3ef",
            "0x0000000000000000000000000000000000000000000000000000000000000000",
            "0x000000000000000000000000c77f7fed3b5cc8249adc428c5f44c9063b9734b4"
          ],
          "data": "0x0000000000000000000000000000000000000000000000274885cb0a455f260a",
          "blockHash": "0xe70890908847e5469899c064332a434347f2bfd306f8a50b5376fc90f992d1ba",
          "blockNumber": "0x725509",
          "transactionHash": "0x9572516ce76f6fc92a2fd03ff355926c91da9489e8e5cf40a6622033d133da8d",
          "transactionIndex": "0x59",
          "logIndex": "0x90",
          "removed": false
        },
        {
          "address": "0x270e88f8683660553e8ba4eb2ad7c91a1710d769",
          "topics": [
            "0xddf252ad1be2c89b69c2b068fc378daa952ba7f163c4a11628f55a4df523b3ef",
            "0x0000000000000000000000000000000000000000000000000000000000000000",
            "0x000000000000000000000000c77f7fed3b5cc8249adc428c5f44c9063b9734b4"
          ],
          "data": "0x0000000000000000000000000000000000000000000000001e813b9bf3918617",
          "blockHash": "0xe70890908847e5469899c064332a434347f2bfd306f8a50b5376fc90f992d1ba",
          "blockNumber": "0x725509",
          "transactionHash": "0x9572516ce76f6fc92a2fd03ff355926c91da9489e8e5cf40a6622033d133da8d",
          "transactionIndex": "0x59",
          "logIndex": "0x91",
          "removed": false
        },
        {
          "address": "0x270e88f8683660553e8ba4eb2ad7c91a1710d769",
          "topics": [
            "0x4afcb4a87cdbd9974efdb92ee48bc8d7cd0ae4bf217004db3d080cbaee652ca7"
          ],
          "data": "0x000000000000000000000000000000000000000000000000000000006786ee740000000000000000000000000000000000000000000000000004daa32919b3b40000000000000000000000000000000000000000000000000de0b6b3a7640000",
          "blockHash": "0xe70890908847e5469899c064332a434347f2bfd306f8a50b5376fc90f992d1ba",
          "blockNumber": "0x725509",
          "transactionHash": "0x9572516ce76f6fc92a2fd03ff355926c91da9489e8e5cf40a6622033d133da8d",
          "transactionIndex": "0x59",
          "logIndex": "0x92",
          "removed": false
        }
      ],
      "logsBloom": "0x00000000000000000000000000000000000000000000000000000000000000000000000000000000000000000000000020000000000000004000000000000000000000000000000000000008000000000000000000000000000000000000000000000000020000000000000000000800020000000000000000000010000000000000000000010000000000000000000000000000000000000000010000000000000000000000000000000000000000004000000000000000000000000000000000000002000000800000000000000000000000000000080000008000000020000000000000000000000000000000000000000000000000000000000000000000",
      "type": "0x2",
      "transactionHash": "0x9572516ce76f6fc92a2fd03ff355926c91da9489e8e5cf40a6622033d133da8d",
      "transactionIndex": "0x59",
      "blockHash": "0xe70890908847e5469899c064332a434347f2bfd306f8a50b5376fc90f992d1ba",
      "blockNumber": "0x725509",
      "gasUsed": "0x13af8",
      "effectiveGasPrice": "0xb083c6a3",
      "from": "0xc77f7fed3b5cc8249adc428c5f44c9063b9734b4",
      "to": "0x270e88f8683660553e8ba4eb2ad7c91a1710d769",
      "contractAddress": null
    }
  ],
  "libraries": [],
  "pending": [],
  "returns": {},
  "timestamp": 1736896117,
  "chain": 11155111,
  "commit": "51a374b"
}