{
  "transactions": [
    {
      "hash": "0xb4ceb85e24a7ba8126cc15b34783ea2755420793c8cfd9d16be17fd95f8a305e",
      "transactionType": "CALL",
      "contractName": null,
      "contractAddress": "0x270e88f8683660553e8ba4eb2ad7c91a1710d769",
      "function": "sell(uint256)",
      "arguments": [
        "986024119220077198901"
      ],
      "transaction": {
        "from": "0xc77f7fed3b5cc8249adc428c5f44c9063b9734b4",
        "to": "0x270e88f8683660553e8ba4eb2ad7c91a1710d769",
        "gas": "0x16fec",
        "value": "0x0",
        "input": "0xe4849b3200000000000000000000000000000000000000000000003573d56040401dfe35",
        "nonce": "0x501",
        "chainId": "0xaa36a7"
      },
      "additionalContracts": [],
      "isFixedGasLimit": false
    }
  ],
  "receipts": [
    {
      "status": "0x1",
      "cumulativeGasUsed": "0x98fad0",
      "logs": [
        {
          "address": "0x270e88f8683660553e8ba4eb2ad7c91a1710d769",
          "topics": [
            "0xddf252ad1be2c89b69c2b068fc378daa952ba7f163c4a11628f55a4df523b3ef",
            "0x000000000000000000000000c77f7fed3b5cc8249adc428c5f44c9063b9734b4",
            "0x0000000000000000000000000000000000000000000000000000000000000000"
          ],
          "data": "0x00000000000000000000000000000000000000000000003573d56040401dfe35",
          "blockHash": "0x4c5ee2412a364c950ffc6aa7f8ee2a4124713dbd28de4bfeca9512edf38c6bce",
          "blockNumber": "0x725194",
          "transactionHash": "0xb4ceb85e24a7ba8126cc15b34783ea2755420793c8cfd9d16be17fd95f8a305e",
          "transactionIndex": "0x4e",
          "logIndex": "0xa6",
          "removed": false
        },
        {
          "address": "0x270e88f8683660553e8ba4eb2ad7c91a1710d769",
          "topics": [
            "0x4afcb4a87cdbd9974efdb92ee48bc8d7cd0ae4bf217004db3d080cbaee652ca7"
          ],
          "data": "0x000000000000000000000000000000000000000000000000000000006786c4d400000000000000000000000000000000000000000000000000039439755489800000000000000000000000000000000000000000000000000dc841dbee713ba2",
          "blockHash": "0x4c5ee2412a364c950ffc6aa7f8ee2a4124713dbd28de4bfeca9512edf38c6bce",
          "blockNumber": "0x725194",
          "transactionHash": "0xb4ceb85e24a7ba8126cc15b34783ea2755420793c8cfd9d16be17fd95f8a305e",
          "transactionIndex": "0x4e",
          "logIndex": "0xa7",
          "removed": false
        }
      ],
      "logsBloom": "0x00000000000000000000000000000000000000000000000000000000000000000000000000000000000000000000000020000000000000004000000000000000000000000000000000000008000000000000000000000000000000000000000000000000020000000000000000000800020000000000000000000010000000000000000000010000000000000000000000000000000000000000010000000000000000000000000000000000000000004000000000000000000000000000000000000002000000800000000000000000000000000000080000008000000020000000000000000000000000000000000000000000000000000000000000000000",
      "type": "0x2",
      "transactionHash": "0xb4ceb85e24a7ba8126cc15b34783ea2755420793c8cfd9d16be17fd95f8a305e",
      "transactionIndex": "0x4e",
      "blockHash": "0x4c5ee2412a364c950ffc6aa7f8ee2a4124713dbd28de4bfeca9512edf38c6bce",
      "blockNumber": "0x725194",
      "gasUsed": "0xfb93",
      "effectiveGasPrice": "0x48cfc3c08",
      "from": "0xc77f7fed3b5cc8249adc428c5f44c9063b9734b4",
      "to": "0x270e88f8683660553e8ba4eb2ad7c91a1710d769",
      "contractAddress": null
    }
  ],
  "libraries": [],
  "pending": [],
  "returns": {},
  "timestamp": 1736885464,
  "chain": 11155111,
  "commit": "51a374b"
}