{
  "transactions": [
    {
      "hash": "0x2bf72b67dde638154d3fddea8dd5a45841b45b6ac9561e7291d9b7df7bcad13c",
      "transactionType": "CALL",
      "contractName": null,
      "contractAddress": "0x8aafd3ede9adb0ff97c7aebce82a919afb1c8764",
      "function": "sell(uint256)",
      "arguments": [
        "7584538669"
      ],
      "transaction": {
        "from": "0xc77f7fed3b5cc8249adc428c5f44c9063b9734b4",
        "to": "0x8aafd3ede9adb0ff97c7aebce82a919afb1c8764",
        "gas": "0x1722a",
        "value": "0x0",
        "input": "0xe4849b3200000000000000000000000000000000000000000000000000000001c412e02d",
        "nonce": "0x146b",
        "chainId": "0xaa36a7"
      },
      "additionalContracts": [],
      "isFixedGasLimit": false
    }
  ],
  "receipts": [
    {
      "status": "0x1",
      "cumulativeGasUsed": "0x8ac6f6",
      "logs": [
        {
          "address": "0x8aafd3ede9adb0ff97c7aebce82a919afb1c8764",
          "topics": [
            "0xddf252ad1be2c89b69c2b068fc378daa952ba7f163c4a11628f55a4df523b3ef",
            "0x000000000000000000000000c77f7fed3b5cc8249adc428c5f44c9063b9734b4",
            "0x0000000000000000000000000000000000000000000000000000000000000000"
          ],
          "data": "0x00000000000000000000000000000000000000000000000000000001c0750758",
          "blockHash": "0x1d32edcd2fe9afbfea1259b34d8f2b67e49463982bbc00ecf3ccad6f991e49fb",
          "blockNumber": "0x731bb7",
          "transactionHash": "0x2bf72b67dde638154d3fddea8dd5a45841b45b6ac9561e7291d9b7df7bcad13c",
          "transactionIndex": "0x59",
          "logIndex": "0x6c",
          "removed": false
        },
        {
          "address": "0x8aafd3ede9adb0ff97c7aebce82a919afb1c8764",
          "topics": [
            "0xddf252ad1be2c89b69c2b068fc378daa952ba7f163c4a11628f55a4df523b3ef",
            "0x000000000000000000000000c77f7fed3b5cc8249adc428c5f44c9063b9734b4",
            "0x000000000000000000000000c77f7fed3b5cc8249adc428c5f44c9063b9734b4"
          ],
          "data": "0x00000000000000000000000000000000000000000000000000000000039dd8d5",
          "blockHash": "0x1d32edcd2fe9afbfea1259b34d8f2b67e49463982bbc00ecf3ccad6f991e49fb",
          "blockNumber": "0x731bb7",
          "transactionHash": "0x2bf72b67dde638154d3fddea8dd5a45841b45b6ac9561e7291d9b7df7bcad13c",
          "transactionIndex": "0x59",
          "logIndex": "0x6d",
          "removed": false
        },
        {
          "address": "0x8aafd3ede9adb0ff97c7aebce82a919afb1c8764",
          "topics": [
            "0x4afcb4a87cdbd9974efdb92ee48bc8d7cd0ae4bf217004db3d080cbaee652ca7"
          ],
          "data": "0x0000000000000000000000000000000000000000000000000000000067904970000000000000000000000000000000000000000000000000000f583f583fc61f0000000000000000000000000000000000000000000000000000000001f3dc04",
          "blockHash": "0x1d32edcd2fe9afbfea1259b34d8f2b67e49463982bbc00ecf3ccad6f991e49fb",
          "blockNumber": "0x731bb7",
          "transactionHash": "0x2bf72b67dde638154d3fddea8dd5a45841b45b6ac9561e7291d9b7df7bcad13c",
          "transactionIndex": "0x59",
          "logIndex": "0x6e",
          "removed": false
        }
      ],
      "logsBloom": "0x00000000000000000000000000000000000000000600000000000000000000000000000000000000000000000000000000000000000000004000000000000000000000000000004000000008000000000000000000000000000000000000000000000000020000000000000000000800020000000000000000000010000000000000000000000000000000000000000000000000000000000000010000000000000000000000000000000000000000004000000000000000000000000000000000000002000000800000000000000000000000000000080000000000000020000000000000000000000000000000000000000000000000000000000000000000",
      "type": "0x2",
      "transactionHash": "0x2bf72b67dde638154d3fddea8dd5a45841b45b6ac9561e7291d9b7df7bcad13c",
      "transactionIndex": "0x59",
      "blockHash": "0x1d32edcd2fe9afbfea1259b34d8f2b67e49463982bbc00ecf3ccad6f991e49fb",
      "blockNumber": "0x731bb7",
      "gasUsed": "0xfd1b",
      "effectiveGasPrice": "0x102fdfe05",
      "from": "0xc77f7fed3b5cc8249adc428c5f44c9063b9734b4",
      "to": "0x8aafd3ede9adb0ff97c7aebce82a919afb1c8764",
      "contractAddress": null
    }
  ],
  "libraries": [],
  "pending": [],
  "returns": {},
  "timestamp": 1737509234,
  "chain": 11155111,
  "commit": "1d2fb70"
}