{
  "transactions": [
    {
      "hash": "0x3e8853ac1fca29b78d2c06ae3c3d4e379c7b0c2ffe79e454ec2d84667951628f",
      "transactionType": "CALL",
      "contractName": null,
      "contractAddress": "0xbf4a322f1496e5c3d34a9bcdb4c60567b38c7de2",
      "function": "sell(uint256)",
      "arguments": [
        "977067663580737627124"
      ],
      "transaction": {
        "from": "0xc77f7fed3b5cc8249adc428c5f44c9063b9734b4",
        "to": "0xbf4a322f1496e5c3d34a9bcdb4c60567b38c7de2",
        "gas": "0x16fea",
        "value": "0x0",
        "input": "0xe4849b32000000000000000000000000000000000000000000000034f789a74ce2bce3f4",
        "nonce": "0xcf3",
        "chainId": "0xaa36a7"
      },
      "additionalContracts": [],
      "isFixedGasLimit": false
    }
  ],
  "receipts": [
    {
      "status": "0x1",
      "cumulativeGasUsed": "0x695a21",
      "logs": [
        {
          "address": "0xbf4a322f1496e5c3d34a9bcdb4c60567b38c7de2",
          "topics": [
            "0xddf252ad1be2c89b69c2b068fc378daa952ba7f163c4a11628f55a4df523b3ef",
            "0x000000000000000000000000c77f7fed3b5cc8249adc428c5f44c9063b9734b4",
            "0x0000000000000000000000000000000000000000000000000000000000000000"
          ],
          "data": "0x000000000000000000000000000000000000000000000034f789a74ce2bce3f4",
          "blockHash": "0xc4022c326bc2a5040d441db8e3a4bdb001f4cd7fbebbde4beb572f19eea93046",
          "blockNumber": "0x725d45",
          "transactionHash": "0x3e8853ac1fca29b78d2c06ae3c3d4e379c7b0c2ffe79e454ec2d84667951628f",
          "transactionIndex": "0x3a",
          "logIndex": "0x48",
          "removed": false
        },
        {
          "address": "0xbf4a322f1496e5c3d34a9bcdb4c60567b38c7de2",
          "topics": [
            "0x4afcb4a87cdbd9974efdb92ee48bc8d7cd0ae4bf217004db3d080cbaee652ca7"
          ],
          "data": "0x00000000000000000000000000000000000000000000000000000000678751b000000000000000000000000000000000000000000000000000039c5a6cc0a65a0000000000000000000000000000000000000000000000000dc7e3db3f9ebf4a",
          "blockHash": "0xc4022c326bc2a5040d441db8e3a4bdb001f4cd7fbebbde4beb572f19eea93046",
          "blockNumber": "0x725d45",
          "transactionHash": "0x3e8853ac1fca29b78d2c06ae3c3d4e379c7b0c2ffe79e454ec2d84667951628f",
          "transactionIndex": "0x3a",
          "logIndex": "0x49",
          "removed": false
        }
      ],
      "logsBloom": "0x00000000000000000000000000000000000000000000000000000000000000000000000000000000000000000000000000000000000000004000000000000000000000000000000000000008000000000000001000000000000000000000000000000000020000000000000000000800020000000000000000000010000000000000000000000000000000000000000000000000000008000000010000000000000000000000000000000000000000004000000000000000000000000000000000000002000000800000000000001000000000000000080000000000000020000000000000000000000000000000000000000000000000000000000000000000",
      "type": "0x2",
      "transactionHash": "0x3e8853ac1fca29b78d2c06ae3c3d4e379c7b0c2ffe79e454ec2d84667951628f",
      "transactionIndex": "0x3a",
      "blockHash": "0xc4022c326bc2a5040d441db8e3a4bdb001f4cd7fbebbde4beb572f19eea93046",
      "blockNumber": "0x725d45",
      "gasUsed": "0xfb91",
      "effectiveGasPrice": "0x3fd319aa8",
      "from": "0xc77f7fed3b5cc8249adc428c5f44c9063b9734b4",
      "to": "0xbf4a322f1496e5c3d34a9bcdb4c60567b38c7de2",
      "contractAddress": null
    }
  ],
  "libraries": [],
  "pending": [],
  "returns": {},
  "timestamp": 1736921523,
  "chain": 11155111,
  "commit": "51a374b"
}