{
  "transactions": [
    {
      "hash": "0x2dd93eb378bd7e27bba05be95f7f5fcc579641d77ea7f274b5685c60f6b9e0c4",
      "transactionType": "CALL",
      "contractName": null,
      "contractAddress": "0x8aafd3ede9adb0ff97c7aebce82a919afb1c8764",
      "function": "sell(uint256)",
      "arguments": [
        "45957102"
      ],
      "transaction": {
        "from": "0xc77f7fed3b5cc8249adc428c5f44c9063b9734b4",
        "to": "0x8aafd3ede9adb0ff97c7aebce82a919afb1c8764",
        "gas": "0x15d88",
        "value": "0x0",
        "input": "0xe4849b320000000000000000000000000000000000000000000000000000000002bd3fee",
        "nonce": "0x1613",
        "chainId": "0xaa36a7"
      },
      "additionalContracts": [],
      "isFixedGasLimit": false
    }
  ],
  "receipts": [
    {
      "status": "0x1",
      "cumulativeGasUsed": "0xa20256",
      "logs": [
        {
          "address": "0x8aafd3ede9adb0ff97c7aebce82a919afb1c8764",
          "topics": [
            "0xddf252ad1be2c89b69c2b068fc378daa952ba7f163c4a11628f55a4df523b3ef",
            "0x000000000000000000000000c77f7fed3b5cc8249adc428c5f44c9063b9734b4",
            "0x0000000000000000000000000000000000000000000000000000000000000000"
          ],
          "data": "0x0000000000000000000000000000000000000000000000000000000002b7a3c6",
          "blockHash": "0xb90de10401c687543b21fd171b6a4e7c0d880fe37a6e86a28b31a225b1b17743",
          "blockNumber": "0x731da8",
          "transactionHash": "0x2dd93eb378bd7e27bba05be95f7f5fcc579641d77ea7f274b5685c60f6b9e0c4",
          "transactionIndex": "0x6d",
          "logIndex": "0xaa",
          "removed": false
        },
        {
          "address": "0x8aafd3ede9adb0ff97c7aebce82a919afb1c8764",
          "topics": [
            "0xddf252ad1be2c89b69c2b068fc378daa952ba7f163c4a11628f55a4df523b3ef",
            "0x000000000000000000000000c77f7fed3b5cc8249adc428c5f44c9063b9734b4",
            "0x000000000000000000000000c77f7fed3b5cc8249adc428c5f44c9063b9734b4"
          ],
          "data": "0x0000000000000000000000000000000000000000000000000000000000059c28",
          "blockHash": "0xb90de10401c687543b21fd171b6a4e7c0d880fe37a6e86a28b31a225b1b17743",
          "blockNumber": "0x731da8",
          "transactionHash": "0x2dd93eb378bd7e27bba05be95f7f5fcc579641d77ea7f274b5685c60f6b9e0c4",
          "transactionIndex": "0x6d",
          "logIndex": "0xab",
          "removed": false
        },
        {
          "address": "0x8aafd3ede9adb0ff97c7aebce82a919afb1c8764",
          "topics": [
            "0x4afcb4a87cdbd9974efdb92ee48bc8d7cd0ae4bf217004db3d080cbaee652ca7"
          ],
          "data": "0x00000000000000000000000000000000000000000000000000000000679060c800000000000000000000000000000000000000000000000000143a5242fdf06c000000000000000000000000000000000000000000000000000000000003fe1e",
          "blockHash": "0xb90de10401c687543b21fd171b6a4e7c0d880fe37a6e86a28b31a225b1b17743",
          "blockNumber": "0x731da8",
          "transactionHash": "0x2dd93eb378bd7e27bba05be95f7f5fcc579641d77ea7f274b5685c60f6b9e0c4",
          "transactionIndex": "0x6d",
          "logIndex": "0xac",
          "removed": false
        }
      ],
      "logsBloom": "0x00000000000000000000000000000000000000000600000000000000000000000000000000000000000000000000000000000000000000004000000000000000000000000000004000000008000000000000000000000000000000000000000000000000020000000000000000000800020000000000000000000010000000000000000000000000000000000000000000000000000000000000010000000000000000000000000000000000000000004000000000000000000000000000000000000002000000800000000000000000000000000000080000000000000020000000000000000000000000000000000000000000000000000000000000000000",
      "type": "0x2",
      "transactionHash": "0x2dd93eb378bd7e27bba05be95f7f5fcc579641d77ea7f274b5685c60f6b9e0c4",
      "transactionIndex": "0x6d",
      "blockHash": "0xb90de10401c687543b21fd171b6a4e7c0d880fe37a6e86a28b31a225b1b17743",
      "blockNumber": "0x731da8",
      "gasUsed": "0xfd0f",
      "effectiveGasPrice": "0x7c7bf724",
      "from": "0xc77f7fed3b5cc8249adc428c5f44c9063b9734b4",
      "to": "0x8aafd3ede9adb0ff97c7aebce82a919afb1c8764",
      "contractAddress": null
    }
  ],
  "libraries": [],
  "pending": [],
  "returns": {},
  "timestamp": 1737515210,
  "chain": 11155111,
  "commit": "1d2fb70"
}