{
  "transactions": [
    {
      "hash": "0x9dd3525f4966d4fa7fcb8fd20f6628b5d27db4468627a4b0f354f26ee73a25ab",
      "transactionType": "CALL",
      "contractName": null,
      "contractAddress": "0x8aafd3ede9adb0ff97c7aebce82a919afb1c8764",
      "function": "sell(uint256)",
      "arguments": [
        "340982489606086"
      ],
      "transaction": {
        "from": "0xc77f7fed3b5cc8249adc428c5f44c9063b9734b4",
        "to": "0x8aafd3ede9adb0ff97c7aebce82a919afb1c8764",
        "gas": "0x1724d",
        "value": "0x0",
        "input": "0xe4849b320000000000000000000000000000000000000000000000000001361f2c2ae7c6",
        "nonce": "0x12c4",
        "chainId": "0xaa36a7"
      },
      "additionalContracts": [],
      "isFixedGasLimit": false
    }
  ],
  "receipts": [
    {
      "status": "0x1",
      "cumulativeGasUsed": "0x105b263",
      "logs": [
        {
          "address": "0x8aafd3ede9adb0ff97c7aebce82a919afb1c8764",
          "topics": [
            "0xddf252ad1be2c89b69c2b068fc378daa952ba7f163c4a11628f55a4df523b3ef",
            "0x000000000000000000000000c77f7fed3b5cc8249adc428c5f44c9063b9734b4",
            "0x0000000000000000000000000000000000000000000000000000000000000000"
          ],
          "data": "0x000000000000000000000000000000000000000000000000000133a40b0bd796",
          "blockHash": "0xf8bb47636f1d2ecc85a6ac673f8d40a5a52da17e856f8439b6cfde170ff28f72",
          "blockNumber": "0x7319bd",
          "transactionHash": "0x9dd3525f4966d4fa7fcb8fd20f6628b5d27db4468627a4b0f354f26ee73a25ab",
          "transactionIndex": "0x6f",
          "logIndex": "0x6e",
          "removed": false
        },
        {
          "address": "0x8aafd3ede9adb0ff97c7aebce82a919afb1c8764",
          "topics": [
            "0xddf252ad1be2c89b69c2b068fc378daa952ba7f163c4a11628f55a4df523b3ef",
            "0x000000000000000000000000c77f7fed3b5cc8249adc428c5f44c9063b9734b4",
            "0x000000000000000000000000c77f7fed3b5cc8249adc428c5f44c9063b9734b4"
          ],
          "data": "0x0000000000000000000000000000000000000000000000000000027b211f1030",
          "blockHash": "0xf8bb47636f1d2ecc85a6ac673f8d40a5a52da17e856f8439b6cfde170ff28f72",
          "blockNumber": "0x7319bd",
          "transactionHash": "0x9dd3525f4966d4fa7fcb8fd20f6628b5d27db4468627a4b0f354f26ee73a25ab",
          "transactionIndex": "0x6f",
          "logIndex": "0x6f",
          "removed": false
        },
        {
          "address": "0x8aafd3ede9adb0ff97c7aebce82a919afb1c8764",
          "topics": [
            "0x4afcb4a87cdbd9974efdb92ee48bc8d7cd0ae4bf217004db3d080cbaee652ca7"
          ],
          "data": "0x00000000000000000000000000000000000000000000000000000000679031ac00000000000000000000000000000000000000000000000000054d8b337064370000000000000000000000000000000000000000000000000000007680869d79",
          "blockHash": "0xf8bb47636f1d2ecc85a6ac673f8d40a5a52da17e856f8439b6cfde170ff28f72",
          "blockNumber": "0x7319bd",
          "transactionHash": "0x9dd3525f4966d4fa7fcb8fd20f6628b5d27db4468627a4b0f354f26ee73a25ab",
          "transactionIndex": "0x6f",
          "logIndex": "0x70",
          "removed": false
        }
      ],
      "logsBloom": "0x00000000000000000000000000000000000000000600000000000000000000000000000000000000000000000000000000000000000000004000000000000000000000000000004000000008000000000000000000000000000000000000000000000000020000000000000000000800020000000000000000000010000000000000000000000000000000000000000000000000000000000000010000000000000000000000000000000000000000004000000000000000000000000000000000000002000000800000000000000000000000000000080000000000000020000000000000000000000000000000000000000000000000000000000000000000",
      "type": "0x2",
      "transactionHash": "0x9dd3525f4966d4fa7fcb8fd20f6628b5d27db4468627a4b0f354f26ee73a25ab",
      "transactionIndex": "0x6f",
      "blockHash": "0xf8bb47636f1d2ecc85a6ac673f8d40a5a52da17e856f8439b6cfde170ff28f72",
      "blockNumber": "0x7319bd",
      "gasUsed": "0xfd33",
      "effectiveGasPrice": "0x4410e6e8",
      "from": "0xc77f7fed3b5cc8249adc428c5f44c9063b9734b4",
      "to": "0x8aafd3ede9adb0ff97c7aebce82a919afb1c8764",
      "contractAddress": null
    }
  ],
  "libraries": [],
  "pending": [],
  "returns": {},
  "timestamp": 1737503150,
  "chain": 11155111,
  "commit": "1d2fb70"
}