{
  "transactions": [
    {
      "hash": "0xf7679adfeb76e9cfc2def36bd9e0b6a92e7285502bfb89c608a6df764a50a3a1",
      "transactionType": "CALL",
      "contractName": null,
      "contractAddress": "0x270e88f8683660553e8ba4eb2ad7c91a1710d769",
      "function": "sell(uint256)",
      "arguments": [
        "950796451389831886591"
      ],
      "transaction": {
        "from": "0xc77f7fed3b5cc8249adc428c5f44c9063b9734b4",
        "to": "0x270e88f8683660553e8ba4eb2ad7c91a1710d769",
        "gas": "0x15b6b",
        "value": "0x0",
        "input": "0xe4849b320000000000000000000000000000000000000000000000338af38f00e8e3b6ff",
        "nonce": "0x5e9",
        "chainId": "0xaa36a7"
      },
      "additionalContracts": [],
      "isFixedGasLimit": false
    }
  ],
  "receipts": [
    {
      "status": "0x1",
      "cumulativeGasUsed": "0x13f4b24",
      "logs": [
        {
          "address": "0x270e88f8683660553e8ba4eb2ad7c91a1710d769",
          "topics": [
            "0xddf252ad1be2c89b69c2b068fc378daa952ba7f163c4a11628f55a4df523b3ef",
            "0x000000000000000000000000c77f7fed3b5cc8249adc428c5f44c9063b9734b4",
            "0x0000000000000000000000000000000000000000000000000000000000000000"
          ],
          "data": "0x0000000000000000000000000000000000000000000000338af38f00e8e3b6ff",
          "blockHash": "0x4860ca2fddf6cfded5e251ee5080d9ad961c01e0ca8ff2b610c5a04ee189e9c5",
          "blockNumber": "0x7252ae",
          "transactionHash": "0xf7679adfeb76e9cfc2def36bd9e0b6a92e7285502bfb89c608a6df764a50a3a1",
          "transactionIndex": "0x64",
          "logIndex": "0xaa",
          "removed": false
        },
        {
          "address": "0x270e88f8683660553e8ba4eb2ad7c91a1710d769",
          "topics": [
            "0x4afcb4a87cdbd9974efdb92ee48bc8d7cd0ae4bf217004db3d080cbaee652ca7"
          ],
          "data": "0x000000000000000000000000000000000000000000000000000000006786d2300000000000000000000000000000000000000000000000000003b6291139c09e0000000000000000000000000000000000000000000000000dc83e3d93aa11e7",
          "blockHash": "0x4860ca2fddf6cfded5e251ee5080d9ad961c01e0ca8ff2b610c5a04ee189e9c5",
          "blockNumber": "0x7252ae",
          "transactionHash": "0xf7679adfeb76e9cfc2def36bd9e0b6a92e7285502bfb89c608a6df764a50a3a1",
          "transactionIndex": "0x64",
          "logIndex": "0xab",
          "removed": false
        }
      ],
      "logsBloom": "0x00000000000000000000000000000000000000000000000000000000000000000000000000000000000000000000000020000000000000004000000000000000000000000000000000000008000000000000000000000000000000000000000000000000020000000000000000000800020000000000000000000010000000000000000000010000000000000000000000000000000000000000010000000000000000000000000000000000000000004000000000000000000000000000000000000002000000800000000000000000000000000000080000008000000020000000000000000000000000000000000000000000000000000000000000000000",
      "type": "0x2",
      "transactionHash": "0xf7679adfeb76e9cfc2def36bd9e0b6a92e7285502bfb89c608a6df764a50a3a1",
      "transactionIndex": "0x64",
      "blockHash": "0x4860ca2fddf6cfded5e251ee5080d9ad961c01e0ca8ff2b610c5a04ee189e9c5",
      "blockNumber": "0x7252ae",
      "gasUsed": "0xfb87",
      "effectiveGasPrice": "0x31809c33b",
      "from": "0xc77f7fed3b5cc8249adc428c5f44c9063b9734b4",
      "to": "0x270e88f8683660553e8ba4eb2ad7c91a1710d769",
      "contractAddress": null
    }
  ],
  "libraries": [],
  "pending": [],
  "returns": {},
  "timestamp": 1736888880,
  "chain": 11155111,
  "commit": "51a374b"
}