{
  "transactions": [
    {
      "hash": "0xd377b786a61d5c0db6a5d51af25fe80f7bb7db82fa2a0716dd94a426e96340a5",
      "transactionType": "CALL",
      "contractName": null,
      "contractAddress": "0xbf4a322f1496e5c3d34a9bcdb4c60567b38c7de2",
      "function": "sell(uint256)",
      "arguments": [
        "979959002851409782402"
      ],
      "transaction": {
        "from": "0xc77f7fed3b5cc8249adc428c5f44c9063b9734b4",
        "to": "0xbf4a322f1496e5c3d34a9bcdb4c60567b38c7de2",
        "gas": "0x16fea",
        "value": "0x0",
        "input": "0xe4849b320000000000000000000000000000000000000000000000351fa9c10c4c49e682",
        "nonce": "0xc1b",
        "chainId": "0xaa36a7"
      },
      "additionalContracts": [],
      "isFixedGasLimit": false
    }
  ],
  "receipts": [
    {
      "status": "0x1",
      "cumulativeGasUsed": "0x12f5c08",
      "logs": [
        {
          "address": "0xbf4a322f1496e5c3d34a9bcdb4c60567b38c7de2",
          "topics": [
            "0xddf252ad1be2c89b69c2b068fc378daa952ba7f163c4a11628f55a4df523b3ef",
            "0x000000000000000000000000c77f7fed3b5cc8249adc428c5f44c9063b9734b4",
            "0x0000000000000000000000000000000000000000000000000000000000000000"
          ],
          "data": "0x0000000000000000000000000000000000000000000000351fa9c10c4c49e682",
          "blockHash": "0x5b8fcb88b44605234c2a2a175f453fde1a2c44f9060468629a0f1432640d0263",
          "blockNumber": "0x725c47",
          "transactionHash": "0xd377b786a61d5c0db6a5d51af25fe80f7bb7db82fa2a0716dd94a426e96340a5",
          "transactionIndex": "0x75",
          "logIndex": "0xbf",
          "removed": false
        },
        {
          "address": "0xbf4a322f1496e5c3d34a9bcdb4c60567b38c7de2",
          "topics": [
            "0x4afcb4a87cdbd9974efdb92ee48bc8d7cd0ae4bf217004db3d080cbaee652ca7"
          ],
          "data": "0x00000000000000000000000000000000000000000000000000000000678745b0000000000000000000000000000000000000000000000000000399a042ddbcf50000000000000000000000000000000000000000000000000dc7e3e1f893794b",
          "blockHash": "0x5b8fcb88b44605234c2a2a175f453fde1a2c44f9060468629a0f1432640d0263",
          "blockNumber": "0x725c47",
          "transactionHash": "0xd377b786a61d5c0db6a5d51af25fe80f7bb7db82fa2a0716dd94a426e96340a5",
          "transactionIndex": "0x75",
          "logIndex": "0xc0",
          "removed": false
        }
      ],
      "logsBloom": "0x00000000000000000000000000000000000000000000000000000000000000000000000000000000000000000000000000000000000000004000000000000000000000000000000000000008000000000000001000000000000000000000000000000000020000000000000000000800020000000000000000000010000000000000000000000000000000000000000000000000000008000000010000000000000000000000000000000000000000004000000000000000000000000000000000000002000000800000000000001000000000000000080000000000000020000000000000000000000000000000000000000000000000000000000000000000",
      "type": "0x2",
      "transactionHash": "0xd377b786a61d5c0db6a5d51af25fe80f7bb7db82fa2a0716dd94a426e96340a5",
      "transactionIndex": "0x75",
      "blockHash": "0x5b8fcb88b44605234c2a2a175f453fde1a2c44f9060468629a0f1432640d0263",
      "blockNumber": "0x725c47",
      "gasUsed": "0xfb91",
      "effectiveGasPrice": "0x12ffd74bf",
      "from": "0xc77f7fed3b5cc8249adc428c5f44c9063b9734b4",
      "to": "0xbf4a322f1496e5c3d34a9bcdb4c60567b38c7de2",
      "contractAddress": null
    }
  ],
  "libraries": [],
  "pending": [],
  "returns": {},
  "timestamp": 1736918450,
  "chain": 11155111,
  "commit": "51a374b"
}