{
  "transactions": [
    {
      "hash": "0x37c149b3073b9f3ab86ea2d4be82a46d1277f5da0b3e77568a1e16269648e8d1",
      "transactionType": "CALL",
      "contractName": null,
      "contractAddress": "0x8aafd3ede9adb0ff97c7aebce82a919afb1c8764",
      "function": "sell(uint256)",
      "arguments": [
        "173652428"
      ],
      "transaction": {
        "from": "0xc77f7fed3b5cc8249adc428c5f44c9063b9734b4",
        "to": "0x8aafd3ede9adb0ff97c7aebce82a919afb1c8764",
        "gas": "0x14e6c",
        "value": "0x0",
        "input": "0xe4849b32000000000000000000000000000000000000000000000000000000000a59b9cc",
        "nonce": "0x12f9",
        "chainId": "0xaa36a7"
      },
      "additionalContracts": [],
      "isFixedGasLimit": false
    }
  ],
  "receipts": [
    {
      "status": "0x1",
      "cumulativeGasUsed": "0xb1770d",
      "logs": [
        {
          "address": "0x8aafd3ede9adb0ff97c7aebce82a919afb1c8764",
          "topics": [
            "0xddf252ad1be2c89b69c2b068fc378daa952ba7f163c4a11628f55a4df523b3ef",
            "0x000000000000000000000000c77f7fed3b5cc8249adc428c5f44c9063b9734b4",
            "0x0000000000000000000000000000000000000000000000000000000000000000"
          ],
          "data": "0x000000000000000000000000000000000000000000000000000000000a448729",
          "blockHash": "0x3b6b77216c139e32739000297957c7e28104b14f40ac826814eb8e559a0de5e8",
          "blockNumber": "0x731a00",
          "transactionHash": "0x37c149b3073b9f3ab86ea2d4be82a46d1277f5da0b3e77568a1e16269648e8d1",
          "transactionIndex": "0x7e",
          "logIndex": "0x9d",
          "removed": false
        },
        {
          "address": "0x8aafd3ede9adb0ff97c7aebce82a919afb1c8764",
          "topics": [
            "0xddf252ad1be2c89b69c2b068fc378daa952ba7f163c4a11628f55a4df523b3ef",
            "0x000000000000000000000000c77f7fed3b5cc8249adc428c5f44c9063b9734b4",
            "0x000000000000000000000000c77f7fed3b5cc8249adc428c5f44c9063b9734b4"
          ],
          "data": "0x00000000000000000000000000000000000000000000000000000000001532a3",
          "blockHash": "0x3b6b77216c139e32739000297957c7e28104b14f40ac826814eb8e559a0de5e8",
          "blockNumber": "0x731a00",
          "transactionHash": "0x37c149b3073b9f3ab86ea2d4be82a46d1277f5da0b3e77568a1e16269648e8d1",
          "transactionIndex": "0x7e",
          "logIndex": "0x9e",
          "removed": false
        },
        {
          "address": "0x8aafd3ede9adb0ff97c7aebce82a919afb1c8764",
          "topics": [
            "0x4afcb4a87cdbd9974efdb92ee48bc8d7cd0ae4bf217004db3d080cbaee652ca7"
          ],
          "data": "0x00000000000000000000000000000000000000000000000000000000679034d0000000000000000000000000000000000000000000000000000554cfa80ab84a000000000000000000000000000000000000000000000000000000000003f9eb",
          "blockHash": "0x3b6b77216c139e32739000297957c7e28104b14f40ac826814eb8e559a0de5e8",
          "blockNumber": "0x731a00",
          "transactionHash": "0x37c149b3073b9f3ab86ea2d4be82a46d1277f5da0b3e77568a1e16269648e8d1",
          "transactionIndex": "0x7e",
          "logIndex": "0x9f",
          "removed": false
        }
      ],
      "logsBloom": "0x00000000000000000000000000000000000000000600000000000000000000000000000000000000000000000000000000000000000000004000000000000000000000000000004000000008000000000000000000000000000000000000000000000000020000000000000000000800020000000000000000000010000000000000000000000000000000000000000000000000000000000000010000000000000000000000000000000000000000004000000000000000000000000000000000000002000000800000000000000000000000000000080000000000000020000000000000000000000000000000000000000000000000000000000000000000",
      "type": "0x2",
      "transactionHash": "0x37c149b3073b9f3ab86ea2d4be82a46d1277f5da0b3e77568a1e16269648e8d1",
      "transactionIndex": "0x7e",
      "blockHash": "0x3b6b77216c139e32739000297957c7e28104b14f40ac826814eb8e559a0de5e8",
      "blockNumber": "0x731a00",
      "gasUsed": "0xf21f",
      "effectiveGasPrice": "0x3f073ea1",
      "from": "0xc77f7fed3b5cc8249adc428c5f44c9063b9734b4",
      "to": "0x8aafd3ede9adb0ff97c7aebce82a919afb1c8764",
      "contractAddress": null
    }
  ],
  "libraries": [],
  "pending": [],
  "returns": {},
  "timestamp": 1737503952,
  "chain": 11155111,
  "commit": "1d2fb70"
}