{
  "transactions": [
    {
      "hash": "0xdcc51edf2e5bbbeb5a459ad18a18a319f94190e216ad1f3ed106553bfc7c8852",
      "transactionType": "CALL",
      "contractName": null,
      "contractAddress": "0xbf4a322f1496e5c3d34a9bcdb4c60567b38c7de2",
      "function": "sell(uint256)",
      "arguments": [
        "985223039817035237203"
      ],
      "transaction": {
        "from": "0xc77f7fed3b5cc8249adc428c5f44c9063b9734b4",
        "to": "0xbf4a322f1496e5c3d34a9bcdb4c60567b38c7de2",
        "gas": "0x16fea",
        "value": "0x0",
        "input": "0xe4849b3200000000000000000000000000000000000000000000003568b75ec738eb4753",
        "nonce": "0xa95",
        "chainId": "0xaa36a7"
      },
      "additionalContracts": [],
      "isFixedGasLimit": false
    }
  ],
  "receipts": [
    {
      "status": "0x1",
      "cumulativeGasUsed": "0x1c357d5",
      "logs": [
        {
          "address": "0xbf4a322f1496e5c3d34a9bcdb4c60567b38c7de2",
          "topics": [
            "0xddf252ad1be2c89b69c2b068fc378daa952ba7f163c4a11628f55a4df523b3ef",
            "0x000000000000000000000000c77f7fed3b5cc8249adc428c5f44c9063b9734b4",
            "0x0000000000000000000000000000000000000000000000000000000000000000"
          ],
          "data": "0x00000000000000000000000000000000000000000000003568b75ec738eb4753",
          "blockHash": "0xfb9eeb6c95fbca148981a2f206e8f3028a5e02f99901cb2680821f0f7bfa32d7",
          "blockNumber": "0x725a7b",
          "transactionHash": "0xdcc51edf2e5bbbeb5a459ad18a18a319f94190e216ad1f3ed106553bfc7c8852",
          "transactionIndex": "0xc7",
          "logIndex": "0x16d",
          "removed": false
        },
        {
          "address": "0xbf4a322f1496e5c3d34a9bcdb4c60567b38c7de2",
          "topics": [
            "0x4afcb4a87cdbd9974efdb92ee48bc8d7cd0ae4bf217004db3d080cbaee652ca7"
          ],
          "data": "0x0000000000000000000000000000000000000000000000000000000067873014000000000000000000000000000000000000000000000000000394b3b0cb92670000000000000000000000000000000000000000000000000dc7e3ee35c01f8a",
          "blockHash": "0xfb9eeb6c95fbca148981a2f206e8f3028a5e02f99901cb2680821f0f7bfa32d7",
          "blockNumber": "0x725a7b",
          "transactionHash": "0xdcc51edf2e5bbbeb5a459ad18a18a319f94190e216ad1f3ed106553bfc7c8852",
          "transactionIndex": "0xc7",
          "logIndex": "0x16e",
          "removed": false
        }
      ],
      "logsBloom": "0x00000000000000000000000000000000000000000000000000000000000000000000000000000000000000000000000000000000000000004000000000000000000000000000000000000008000000000000001000000000000000000000000000000000020000000000000000000800020000000000000000000010000000000000000000000000000000000000000000000000000008000000010000000000000000000000000000000000000000004000000000000000000000000000000000000002000000800000000000001000000000000000080000000000000020000000000000000000000000000000000000000000000000000000000000000000",
      "type": "0x2",
      "transactionHash": "0xdcc51edf2e5bbbeb5a459ad18a18a319f94190e216ad1f3ed106553bfc7c8852",
      "transactionIndex": "0xc7",
      "blockHash": "0xfb9eeb6c95fbca148981a2f206e8f3028a5e02f99901cb2680821f0f7bfa32d7",
      "blockNumber": "0x725a7b",
      "gasUsed": "0xfb91",
      "effectiveGasPrice": "0x1deaca337",
      "from": "0xc77f7fed3b5cc8249adc428c5f44c9063b9734b4",
      "to": "0xbf4a322f1496e5c3d34a9bcdb4c60567b38c7de2",
      "contractAddress": null
    }
  ],
  "libraries": [],
  "pending": [],
  "returns": {},
  "timestamp": 1736912917,
  "chain": 11155111,
  "commit": "51a374b"
}