{
  "transactions": [
    {
      "hash": "0x80089c85e02e9581e49bc917bbac753d18d850274cb8278650b9cfaf40c9b7d2",
      "transactionType": "CALL",
      "contractName": null,
      "contractAddress": "0x8aafd3ede9adb0ff97c7aebce82a919afb1c8764",
      "function": "buy(address)",
      "arguments": [
        "0xC77f7fed3b5Cc8249aDc428c5F44C9063B9734b4"
      ],
      "transaction": {
        "from": "0xc77f7fed3b5cc8249adc428c5f44c9063b9734b4",
        "to": "0x8aafd3ede9adb0ff97c7aebce82a919afb1c8764",
        "gas": "0x156ea",
        "value": "0xde0b6b3a7640000",
        "input": "0xf088d547000000000000000000000000c77f7fed3b5cc8249adc428c5f44c9063b9734b4",
        "nonce": "0x14fe",
        "chainId": "0xaa36a7"
      },
      "additionalContracts": [],
      "isFixedGasLimit": false
    }
  ],
  "receipts": [
    {
      "status": "0x1",
      "cumulativeGasUsed": "0x102511b",
      "logs": [
        {
          "address": "0x8aafd3ede9adb0ff97c7aebce82a919afb1c8764",
          "topics": [
            "0xddf252ad1be2c89b69c2b068fc378daa952ba7f163c4a11628f55a4df523b3ef",
            "0x0000000000000000000000000000000000000000000000000000000000000000",
            "0x000000000000000000000000c77f7fed3b5cc8249adc428c5f44c9063b9734b4"
          ],
          "data": "0x00000000000000000000000000000000000000000000000b37600939beeae52a",
          "blockHash": "0x7ecee67879a0283294c28f3085e0f3db7345d8d77dc6d6ac57220fa052d74817",
          "blockNumber": "0x731c60",
          "transactionHash": "0x80089c85e02e9581e49bc917bbac753d18d850274cb8278650b9cfaf40c9b7d2",
          "transactionIndex": "0xa5",
          "logIndex": "0x123",
          "removed": false
        },
        {
          "address": "0x8aafd3ede9adb0ff97c7aebce82a919afb1c8764",
          "topics": [
            "0xddf252ad1be2c89b69c2b068fc378daa952ba7f163c4a11628f55a4df523b3ef",
            "0x0000000000000000000000000000000000000000000000000000000000000000",
            "0x000000000000000000000000c77f7fed3b5cc8249adc428c5f44c9063b9734b4"
          ],
          "data": "0x00000000000000000000000000000000000000000000000008b5b8825a74865a",
          "blockHash": "0x7ecee67879a0283294c28f3085e0f3db7345d8d77dc6d6ac57220fa052d74817",
          "blockNumber": "0x731c60",
          "transactionHash": "0x80089c85e02e9581e49bc917bbac753d18d850274cb8278650b9cfaf40c9b7d2",
          "transactionIndex": "0xa5",
          "logIndex": "0x124",
          "removed": false
        },
        {
          "address": "0x8aafd3ede9adb0ff97c7aebce82a919afb1c8764",
          "topics": [
            "0x4afcb4a87cdbd9974efdb92ee48bc8d7cd0ae4bf217004db3d080cbaee652ca7"
          ],
          "data": "0x000000000000000000000000000000000000000000000000000000006790515c0000000000000000000000000000000000000000000000000011064453c5cbfc0000000000000000000000000000000000000000000000000de0b6b3a7640000",
          "blockHash": "0x7ecee67879a0283294c28f3085e0f3db7345d8d77dc6d6ac57220fa052d74817",
          "blockNumber": "0x731c60",
          "transactionHash": "0x80089c85e02e9581e49bc917bbac753d18d850274cb8278650b9cfaf40c9b7d2",
          "transactionIndex": "0xa5",
          "logIndex": "0x125",
          "removed": false
        }
      ],
      "logsBloom": "0x00000000000000000000000000000000000000000600000000000000000000000000000000000000000000000000000000000000000000004000000000000000000000000000004000000008000000000000000000000000000000000000000000000000020000000000000000000800020000000000000000000010000000000000000000000000000000000000000000000000000000000000010000000000000000000000000000000000000000004000000000000000000000000000000000000002000000800000000000000000000000000000080000000000000020000000000000000000000000000000000000000000000000000000000000000000",
      "type": "0x2",
      "transactionHash": "0x80089c85e02e9581e49bc917bbac753d18d850274cb8278650b9cfaf40c9b7d2",
      "transactionIndex": "0xa5",
      "blockHash": "0x7ecee67879a0283294c28f3085e0f3db7345d8d77dc6d6ac57220fa052d74817",
      "blockNumber": "0x731c60",
      "gasUsed": "0xf844",
      "effectiveGasPrice": "0x17ba40877",
      "from": "0xc77f7fed3b5cc8249adc428c5f44c9063b9734b4",
      "to": "0x8aafd3ede9adb0ff97c7aebce82a919afb1c8764",
      "contractAddress": null
    }
  ],
  "libraries": [],
  "pending": [],
  "returns": {},
  "timestamp": 1737511262,
  "chain": 11155111,
  "commit": "1d2fb70"
}