{
  "transactions": [
    {
      "hash": "0x29a4b3c615f5fd46ecebe2c46abfa1730765778f804078e2123201810ea84277",
      "transactionType": "CALL",
      "contractName": null,
      "contractAddress": "0x8aafd3ede9adb0ff97c7aebce82a919afb1c8764",
      "function": "buy(address)",
      "arguments": [
        "0xC77f7fed3b5Cc8249aDc428c5F44C9063B9734b4"
      ],
      "transaction": {
        "from": "0xc77f7fed3b5cc8249adc428c5f44c9063b9734b4",
        "to": "0x8aafd3ede9adb0ff97c7aebce82a919afb1c8764",
        "gas": "0x156ea",
        "value": "0xde0b6b3a7640000",
        "input": "0xf088d547000000000000000000000000c77f7fed3b5cc8249adc428c5f44c9063b9734b4",
        "nonce": "0xf84",
        "chainId": "0xaa36a7"
      },
      "additionalContracts": [],
      "isFixedGasLimit": false
    }
  ],
  "receipts": [
    {
      "status": "0x1",
      "cumulativeGasUsed": "0xbf2243",
      "logs": [
        {
          "address": "0x8aafd3ede9adb0ff97c7aebce82a919afb1c8764",
          "topics": [
            "0xddf252ad1be2c89b69c2b068fc378daa952ba7f163c4a11628f55a4df523b3ef",
            "0x0000000000000000000000000000000000000000000000000000000000000000",
            "0x000000000000000000000000c77f7fed3b5cc8249adc428c5f44c9063b9734b4"
          ],
          "data": "0x00000000000000000000000000000000000000000000002811a658b6277015c3",
          "blockHash": "0x93c3e4ca29fc7a4df0d26cb5dbb5a505e00ff746bc2db3b6f948b5c26f90e59f",
          "blockNumber": "0x7315e9",
          "transactionHash": "0x29a4b3c615f5fd46ecebe2c46abfa1730765778f804078e2123201810ea84277",
          "transactionIndex": "0x84",
          "logIndex": "0xab",
          "removed": false
        },
        {
          "address": "0x8aafd3ede9adb0ff97c7aebce82a919afb1c8764",
          "topics": [
            "0xddf252ad1be2c89b69c2b068fc378daa952ba7f163c4a11628f55a4df523b3ef",
            "0x0000000000000000000000000000000000000000000000000000000000000000",
            "0x000000000000000000000000c77f7fed3b5cc8249adc428c5f44c9063b9734b4"
          ],
          "data": "0x0000000000000000000000000000000000000000000000001f1d6a3a27e4c9df",
          "blockHash": "0x93c3e4ca29fc7a4df0d26cb5dbb5a505e00ff746bc2db3b6f948b5c26f90e59f",
          "blockNumber": "0x7315e9",
          "transactionHash": "0x29a4b3c615f5fd46ecebe2c46abfa1730765778f804078e2123201810ea84277",
          "transactionIndex": "0x84",
          "logIndex": "0xac",
          "removed": false
        },
        {
          "address": "0x8aafd3ede9adb0ff97c7aebce82a919afb1c8764",
          "topics": [
            "0x4afcb4a87cdbd9974efdb92ee48bc8d7cd0ae4bf217004db3d080cbaee652ca7"
          ],
          "data": "0x00000000000000000000000000000000000000000000000000000000679003980000000000000000000000000000000000000000000000000004c243acd1af990000000000000000000000000000000000000000000000000de0b6b3a7640000",
          "blockHash": "0x93c3e4ca29fc7a4df0d26cb5dbb5a505e00ff746bc2db3b6f948b5c26f90e59f",
          "blockNumber": "0x7315e9",
          "transactionHash": "0x29a4b3c615f5fd46ecebe2c46abfa1730765778f804078e2123201810ea84277",
          "transactionIndex": "0x84",
          "logIndex": "0xad",
          "removed": false
        }
      ],
      "logsBloom": "0x00000000000000000000000000000000000000000600000000000000000000000000000000000000000000000000000000000000000000004000000000000000000000000000004000000008000000000000000000000000000000000000000000000000020000000000000000000800020000000000000000000010000000000000000000000000000000000000000000000000000000000000010000000000000000000000000000000000000000004000000000000000000000000000000000000002000000800000000000000000000000000000080000000000000020000000000000000000000000000000000000000000000000000000000000000000",
      "type": "0x2",
      "transactionHash": "0x29a4b3c615f5fd46ecebe2c46abfa1730765778f804078e2123201810ea84277",
      "transactionIndex": "0x84",
      "blockHash": "0x93c3e4ca29fc7a4df0d26cb5dbb5a505e00ff746bc2db3b6f948b5c26f90e59f",
      "blockNumber": "0x7315e9",
      "gasUsed": "0xf844",
      "effectiveGasPrice": "0x6dc5fd63",
      "from": "0xc77f7fed3b5cc8249adc428c5f44c9063b9734b4",
      "to": "0x8aafd3ede9adb0ff97c7aebce82a919afb1c8764",
      "contractAddress": null
    }
  ],
  "libraries": [],
  "pending": [],
  "returns": {},
  "timestamp": 1737491354,
  "chain": 11155111,
  "commit": "1d2fb70"
}