{
  "transactions": [
    {
      "hash": "0xeb6ad215c0477b9e8ea7aa9910ec50cc08a57ef9feafbb5e1bec65dccf6bf1d9",
      "transactionType": "CALL",
      "contractName": null,
      "contractAddress": "0xdcdc1e6ceb62644378f8ef76e4613e842c013a18",
      "function": "borrow(uint256,uint256)",
      "arguments": [
        "9999999999999990",
        "0"
      ],
      "transaction": {
        "from": "0xc77f7fed3b5cc8249adc428c5f44c9063b9734b4",
        "to": "0xdcdc1e6ceb62644378f8ef76e4613e842c013a18",
        "gas": "0x61057",
        "value": "0x0",
        "input": "0x0ecbcdab000000000000000000000000000000000000000000000000002386f26fc0fff60000000000000000000000000000000000000000000000000000000000000000",
        "nonce": "0x18e1",
        "chainId": "0xaa36a7"
      },
      "additionalContracts": [],
      "isFixedGasLimit": false
    }
  ],
  "receipts": [
    {
      "status": "0x1",
      "cumulativeGasUsed": "0xac6451",
      "logs": [
        {
          "address": "0xdcdc1e6ceb62644378f8ef76e4613e842c013a18",
          "topics": [
            "0xddf252ad1be2c89b69c2b068fc378daa952ba7f163c4a11628f55a4df523b3ef",
            "0x000000000000000000000000c77f7fed3b5cc8249adc428c5f44c9063b9734b4",
            "0x000000000000000000000000dcdc1e6ceb62644378f8ef76e4613e842c013a18"
          ],
          "data": "0x0000000000000000000000000000000000000000000000008ac7230489e7ffff",
          "blockHash": "0x07e8dfa401d023d4fcf9fb6d1084173cf53bab0b24805d903a68156465c2a854",
          "blockNumber": "0x7397d6",
          "transactionHash": "0xeb6ad215c0477b9e8ea7aa9910ec50cc08a57ef9feafbb5e1bec65dccf6bf1d9",
          "transactionIndex": "0x87",
          "logIndex": "0xc2",
          "removed": false
        },
        {
          "address": "0xdcdc1e6ceb62644378f8ef76e4613e842c013a18",
          "topics": [
            "0x03bbe564cb1b78e43195eeadbde99e5b89b19345862807fcfb59f884e4165e25"
          ],
          "data": "0x00000000000000000000000038818e389773445cd73adbaa37b8b169f458c6e1000000000000000000000000000000000000000000000000000002bb30ed607a",
          "blockHash": "0x07e8dfa401d023d4fcf9fb6d1084173cf53bab0b24805d903a68156465c2a854",
          "blockNumber": "0x7397d6",
          "transactionHash": "0xeb6ad215c0477b9e8ea7aa9910ec50cc08a57ef9feafbb5e1bec65dccf6bf1d9",
          "transactionIndex": "0x87",
          "logIndex": "0xc3",
          "removed": false
        },
        {
          "address": "0xdcdc1e6ceb62644378f8ef76e4613e842c013a18",
          "topics": [
            "0x03bbe564cb1b78e43195eeadbde99e5b89b19345862807fcfb59f884e4165e25"
          ],
          "data": "0x000000000000000000000000c77f7fed3b5cc8249adc428c5f44c9063b9734b4000000000000000000000000000000000000000000000000002319e60ad867f8",
          "blockHash": "0x07e8dfa401d023d4fcf9fb6d1084173cf53bab0b24805d903a68156465c2a854",
          "blockNumber": "0x7397d6",
          "transactionHash": "0xeb6ad215c0477b9e8ea7aa9910ec50cc08a57ef9feafbb5e1bec65dccf6bf1d9",
          "transactionIndex": "0x87",
          "logIndex": "0xc4",
          "removed": false
        },
        {
          "address": "0xdcdc1e6ceb62644378f8ef76e4613e842c013a18",
          "topics": [
            "0xaec00f5213a37254bc68a26b0685d1a5b2bf513e1e587c94c7df7f4a62b56c9c"
          ],
          "data": "0x0000000000000000000000000000000000000000000000008ac7230489e7ffff000000000000000000000000000000000000000000000000002319e60ad867f8000000000000000000000000000000000000000000000000002319e60ad867f80000000000000000000000000000000000000000000000008ac7230489e7ffff",
          "blockHash": "0x07e8dfa401d023d4fcf9fb6d1084173cf53bab0b24805d903a68156465c2a854",
          "blockNumber": "0x7397d6",
          "transactionHash": "0xeb6ad215c0477b9e8ea7aa9910ec50cc08a57ef9feafbb5e1bec65dccf6bf1d9",
          "transactionIndex": "0x87",
          "logIndex": "0xc5",
          "removed": false
        },
        {
          "address": "0xdcdc1e6ceb62644378f8ef76e4613e842c013a18",
          "topics": [
            "0x4afcb4a87cdbd9974efdb92ee48bc8d7cd0ae4bf217004db3d080cbaee652ca7"
          ],
          "data": "0x000000000000000000000000000000000000000000000000000000006796523400000000000000000000000000000000000000000000000000038d38b97b8ff2000000000000000000000000000000000000000000000000000009184e729fff",
          "blockHash": "0x07e8dfa401d023d4fcf9fb6d1084173cf53bab0b24805d903a68156465c2a854",
          "blockNumber": "0x7397d6",
          "transactionHash": "0xeb6ad215c0477b9e8ea7aa9910ec50cc08a57ef9feafbb5e1bec65dccf6bf1d9",
          "transactionIndex": "0x87",
          "logIndex": "0xc6",
          "removed": false
        }
      ],
      "logsBloom": "0x00000010000000000000000000000100400000000000000000000000000000001008000000000000000000000000000000002000000000004000000000000000000000000000000000000008000000000000000000000020000000000000000000000000000000000000000000000020020000000000000000000010000000000000000000000000000000000000000000000000000000000000010000000000000000000000000000000400000000004004000000000000000000001000000000000002000000800000000000000000000000000000080000000000000000000000000000000000000000000010000000000000000000000000000000000000",
      "type": "0x2",
      "transactionHash": "0xeb6ad215c0477b9e8ea7aa9910ec50cc08a57ef9feafbb5e1bec65dccf6bf1d9",
      "transactionIndex": "0x87",
      "blockHash": "0x07e8dfa401d023d4fcf9fb6d1084173cf53bab0b24805d903a68156465c2a854",
      "blockNumber": "0x7397d6",
      "gasUsed": "0x463df",
      "effectiveGasPrice": "0x369fffe54",
      "from": "0xc77f7fed3b5cc8249adc428c5f44c9063b9734b4",
      "to": "0xdcdc1e6ceb62644378f8ef76e4613e842c013a18",
      "contractAddress": null
    }
  ],
  "libraries": [],
  "pending": [],
  "returns": {},
  "timestamp": 1737904693,
  "chain": 11155111,
  "commit": "f5162e9"
}