{
  "transactions": [
    {
      "hash": "0x1eb10626b10d4214b93f0480fcb997bc54151ea829b2b9bd8868dcdc1c37e3d6",
      "transactionType": "CALL",
      "contractName": null,
      "contractAddress": "0x8aafd3ede9adb0ff97c7aebce82a919afb1c8764",
      "function": "sell(uint256)",
      "arguments": [
        "183426956"
      ],
      "transaction": {
        "from": "0xc77f7fed3b5cc8249adc428c5f44c9063b9734b4",
        "to": "0x8aafd3ede9adb0ff97c7aebce82a919afb1c8764",
        "gas": "0x14e6c",
        "value": "0x0",
        "input": "0xe4849b32000000000000000000000000000000000000000000000000000000000aeedf8c",
        "nonce": "0x1105",
        "chainId": "0xaa36a7"
      },
      "additionalContracts": [],
      "isFixedGasLimit": false
    }
  ],
  "receipts": [
    {
      "status": "0x1",
      "cumulativeGasUsed": "0xf48eef",
      "logs": [
        {
          "address": "0x8aafd3ede9adb0ff97c7aebce82a919afb1c8764",
          "topics": [
            "0xddf252ad1be2c89b69c2b068fc378daa952ba7f163c4a11628f55a4df523b3ef",
            "0x000000000000000000000000c77f7fed3b5cc8249adc428c5f44c9063b9734b4",
            "0x0000000000000000000000000000000000000000000000000000000000000000"
          ],
          "data": "0x000000000000000000000000000000000000000000000000000000000ad87b75",
          "blockHash": "0xb27cb7ae3aa998f70295dc70d1445735cbcea5c5ece04a10fc03760a677742c1",
          "blockNumber": "0x7317b4",
          "transactionHash": "0x1eb10626b10d4214b93f0480fcb997bc54151ea829b2b9bd8868dcdc1c37e3d6",
          "transactionIndex": "0x97",
          "logIndex": "0x112",
          "removed": false
        },
        {
          "address": "0x8aafd3ede9adb0ff97c7aebce82a919afb1c8764",
          "topics": [
            "0xddf252ad1be2c89b69c2b068fc378daa952ba7f163c4a11628f55a4df523b3ef",
            "0x000000000000000000000000c77f7fed3b5cc8249adc428c5f44c9063b9734b4",
            "0x000000000000000000000000c77f7fed3b5cc8249adc428c5f44c9063b9734b4"
          ],
          "data": "0x0000000000000000000000000000000000000000000000000000000000166417",
          "blockHash": "0xb27cb7ae3aa998f70295dc70d1445735cbcea5c5ece04a10fc03760a677742c1",
          "blockNumber": "0x7317b4",
          "transactionHash": "0x1eb10626b10d4214b93f0480fcb997bc54151ea829b2b9bd8868dcdc1c37e3d6",
          "transactionIndex": "0x97",
          "logIndex": "0x113",
          "removed": false
        },
        {
          "address": "0x8aafd3ede9adb0ff97c7aebce82a919afb1c8764",
          "topics": [
            "0x4afcb4a87cdbd9974efdb92ee48bc8d7cd0ae4bf217004db3d080cbaee652ca7"
          ],
          "data": "0x000000000000000000000000000000000000000000000000000000006790193400000000000000000000000000000000000000000000000000050c28b60a434c000000000000000000000000000000000000000000000000000000000003f9fa",
          "blockHash": "0xb27cb7ae3aa998f70295dc70d1445735cbcea5c5ece04a10fc03760a677742c1",
          "blockNumber": "0x7317b4",
          "transactionHash": "0x1eb10626b10d4214b93f0480fcb997bc54151ea829b2b9bd8868dcdc1c37e3d6",
          "transactionIndex": "0x97",
          "logIndex": "0x114",
          "removed": false
        }
      ],
      "logsBloom": "0x00000000000000000000000000000000000000000600000000000000000000000000000000000000000000000000000000000000000000004000000000000000000000000000004000000008000000000000000000000000000000000000000000000000020000000000000000000800020000000000000000000010000000000000000000000000000000000000000000000000000000000000010000000000000000000000000000000000000000004000000000000000000000000000000000000002000000800000000000000000000000000000080000000000000020000000000000000000000000000000000000000000000000000000000000000000",
      "type": "0x2",
      "transactionHash": "0x1eb10626b10d4214b93f0480fcb997bc54151ea829b2b9bd8868dcdc1c37e3d6",
      "transactionIndex": "0x97",
      "blockHash": "0xb27cb7ae3aa998f70295dc70d1445735cbcea5c5ece04a10fc03760a677742c1",
      "blockNumber": "0x7317b4",
      "gasUsed": "0xf21f",
      "effectiveGasPrice": "0x3d572fb2",
      "from": "0xc77f7fed3b5cc8249adc428c5f44c9063b9734b4",
      "to": "0x8aafd3ede9adb0ff97c7aebce82a919afb1c8764",
      "contractAddress": null
    }
  ],
  "libraries": [],
  "pending": [],
  "returns": {},
  "timestamp": 1737496886,
  "chain": 11155111,
  "commit": "1d2fb70"
}