{
  "transactions": [
    {
      "hash": "0x4479d2aa4cf7cab0bdb86794acccfce8ff0a3c621cd027c644548343465cad63",
      "transactionType": "CALL",
      "contractName": null,
      "contractAddress": "0xbf4a322f1496e5c3d34a9bcdb4c60567b38c7de2",
      "function": "buy(address)",
      "arguments": [
        "0xC77f7fed3b5Cc8249aDc428c5F44C9063B9734b4"
      ],
      "transaction": {
        "from": "0xc77f7fed3b5cc8249adc428c5f44c9063b9734b4",
        "to": "0xbf4a322f1496e5c3d34a9bcdb4c60567b38c7de2",
        "gas": "0x1b309",
        "value": "0xde0b6b3a7640000",
        "input": "0xf088d547000000000000000000000000c77f7fed3b5cc8249adc428c5f44c9063b9734b4",
        "nonce": "0xaae",
        "chainId": "0xaa36a7"
      },
      "additionalContracts": [],
      "isFixedGasLimit": false
    }
  ],
  "receipts": [
    {
      "status": "0x1",
      "cumulativeGasUsed": "0x1aa1d03",
      "logs": [
        {
          "address": "0xbf4a322f1496e5c3d34a9bcdb4c60567b38c7de2",
          "topics": [
            "0xddf252ad1be2c89b69c2b068fc378daa952ba7f163c4a11628f55a4df523b3ef",
            "0x0000000000000000000000000000000000000000000000000000000000000000",
            "0x000000000000000000000000c77f7fed3b5cc8249adc428c5f44c9063b9734b4"
          ],
          "data": "0x0000000000000000000000000000000000000000000000353a7cea875c10210e",
          "blockHash": "0x9a7547584d60c28afec2a7cd62e2ab05c69ca1904bf3d7cac8893a69391c8f80",
          "blockNumber": "0x725a98",
          "transactionHash": "0x4479d2aa4cf7cab0bdb86794acccfce8ff0a3c621cd027c644548343465cad63",
          "transactionIndex": "0x100",
          "logIndex": "0x1b3",
          "removed": false
        },
        {
          "address": "0xbf4a322f1496e5c3d34a9bcdb4c60567b38c7de2",
          "topics": [
            "0xddf252ad1be2c89b69c2b068fc378daa952ba7f163c4a11628f55a4df523b3ef",
            "0x0000000000000000000000000000000000000000000000000000000000000000",
            "0x000000000000000000000000c77f7fed3b5cc8249adc428c5f44c9063b9734b4"
          ],
          "data": "0x00000000000000000000000000000000000000000000000029556ec503748d65",
          "blockHash": "0x9a7547584d60c28afec2a7cd62e2ab05c69ca1904bf3d7cac8893a69391c8f80",
          "blockNumber": "0x725a98",
          "transactionHash": "0x4479d2aa4cf7cab0bdb86794acccfce8ff0a3c621cd027c644548343465cad63",
          "transactionIndex": "0x100",
          "logIndex": "0x1b4",
          "removed": false
        },
        {
          "address": "0xbf4a322f1496e5c3d34a9bcdb4c60567b38c7de2",
          "topics": [
            "0x4afcb4a87cdbd9974efdb92ee48bc8d7cd0ae4bf217004db3d080cbaee652ca7"
          ],
          "data": "0x00000000000000000000000000000000000000000000000000000000678731700000000000000000000000000000000000000000000000000003950397a4e7fd0000000000000000000000000000000000000000000000000de0b6b3a7640000",
          "blockHash": "0x9a7547584d60c28afec2a7cd62e2ab05c69ca1904bf3d7cac8893a69391c8f80",
          "blockNumber": "0x725a98",
          "transactionHash": "0x4479d2aa4cf7cab0bdb86794acccfce8ff0a3c621cd027c644548343465cad63",
          "transactionIndex": "0x100",
          "logIndex": "0x1b5",
          "removed": false
        }
      ],
      "logsBloom": "0x00000000000000000000000000000000000000000000000000000000000000000000000000000000000000000000000000000000000000004000000000000000000000000000000000000008000000000000001000000000000000000000000000000000020000000000000000000800020000000000000000000010000000000000000000000000000000000000000000000000000008000000010000000000000000000000000000000000000000004000000000000000000000000000000000000002000000800000000000001000000000000000080000000000000020000000000000000000000000000000000000000000000000000000000000000000",
      "type": "0x2",
      "transactionHash": "0x4479d2aa4cf7cab0bdb86794acccfce8ff0a3c621cd027c644548343465cad63",
      "transactionIndex": "0x100",
      "blockHash": "0x9a7547584d60c28afec2a7cd62e2ab05c69ca1904bf3d7cac8893a69391c8f80",
      "blockNumber": "0x725a98",
      "gasUsed": "0x13af6",
      "effectiveGasPrice": "0x181fa4627",
      "from": "0xc77f7fed3b5cc8249adc428c5f44c9063b9734b4",
      "to": "0xbf4a322f1496e5c3d34a9bcdb4c60567b38c7de2",
      "contractAddress": null
    }
  ],
  "libraries": [],
  "pending": [],
  "returns": {},
  "timestamp": 1736913265,
  "chain": 11155111,
  "commit": "51a374b"
}