{
  "transactions": [
    {
      "hash": "0x23e5e6c5a2133c5178673fe7d7f949ef5727db09ff15b9f66a72c258dfbccb13",
      "transactionType": "CALL",
      "contractName": null,
      "contractAddress": "0x270e88f8683660553e8ba4eb2ad7c91a1710d769",
      "function": "buy(address)",
      "arguments": [
        "0xC77f7fed3b5Cc8249aDc428c5F44C9063B9734b4"
      ],
      "transaction": {
        "from": "0xc77f7fed3b5cc8249adc428c5f44c9063b9734b4",
        "to": "0x270e88f8683660553e8ba4eb2ad7c91a1710d769",
        "gas": "0x1b30c",
        "value": "0xde0b6b3a7640000",
        "input": "0xf088d547000000000000000000000000c77f7fed3b5cc8249adc428c5f44c9063b9734b4",
        "nonce": "0x899",
        "chainId": "0xaa36a7"
      },
      "additionalContracts": [],
      "isFixedGasLimit": false
    }
  ],
  "receipts": [
    {
      "status": "0x1",
      "cumulativeGasUsed": "0x918075",
      "logs": [
        {
          "address": "0x270e88f8683660553e8ba4eb2ad7c91a1710d769",
          "topics": [
            "0xddf252ad1be2c89b69c2b068fc378daa952ba7f163c4a11628f55a4df523b3ef",
            "0x0000000000000000000000000000000000000000000000000000000000000000",
            "0x000000000000000000000000c77f7fed3b5cc8249adc428c5f44c9063b9734b4"
          ],
          "data": "0x00000000000000000000000000000000000000000000002660dd0c38d91c02fd",
          "blockHash": "0x44dcfa83b77dbf7263d1f38eebfdc9b95c30fe0068aad9295c22a169a1532002",
          "blockNumber": "0x7255f7",
          "transactionHash": "0x23e5e6c5a2133c5178673fe7d7f949ef5727db09ff15b9f66a72c258dfbccb13",
          "transactionIndex": "0x2f",
          "logIndex": "0x49",
          "removed": false
        },
        {
          "address": "0x270e88f8683660553e8ba4eb2ad7c91a1710d769",
          "topics": [
            "0xddf252ad1be2c89b69c2b068fc378daa952ba7f163c4a11628f55a4df523b3ef",
            "0x0000000000000000000000000000000000000000000000000000000000000000",
            "0x000000000000000000000000c77f7fed3b5cc8249adc428c5f44c9063b9734b4"
          ],
          "data": "0x0000000000000000000000000000000000000000000000001dcd577396b54fff",
          "blockHash": "0x44dcfa83b77dbf7263d1f38eebfdc9b95c30fe0068aad9295c22a169a1532002",
          "blockNumber": "0x7255f7",
          "transactionHash": "0x23e5e6c5a2133c5178673fe7d7f949ef5727db09ff15b9f66a72c258dfbccb13",
          "transactionIndex": "0x2f",
          "logIndex": "0x4a",
          "removed": false
        },
        {
          "address": "0x270e88f8683660553e8ba4eb2ad7c91a1710d769",
          "topics": [
            "0x4afcb4a87cdbd9974efdb92ee48bc8d7cd0ae4bf217004db3d080cbaee652ca7"
          ],
          "data": "0x000000000000000000000000000000000000000000000000000000006786f99c0000000000000000000000000000000000000000000000000004f7ef54b3d8ec0000000000000000000000000000000000000000000000000de0b6b3a7640000",
          "blockHash": "0x44dcfa83b77dbf7263d1f38eebfdc9b95c30fe0068aad9295c22a169a1532002",
          "blockNumber": "0x7255f7",
          "transactionHash": "0x23e5e6c5a2133c5178673fe7d7f949ef5727db09ff15b9f66a72c258dfbccb13",
          "transactionIndex": "0x2f",
          "logIndex": "0x4b",
          "removed": false
        }
      ],
      "logsBloom": "0x00000000000000000000000000000000000000000000000000000000000000000000000000000000000000000000000020000000000000004000000000000000000000000000000000000008000000000000000000000000000000000000000000000000020000000000000000000800020000000000000000000010000000000000000000010000000000000000000000000000000000000000010000000000000000000000000000000000000000004000000000000000000000000000000000000002000000800000000000000000000000000000080000008000000020000000000000000000000000000000000000000000000000000000000000000000",
      "type": "0x2",
      "transactionHash": "0x23e5e6c5a2133c5178673fe7d7f949ef5727db09ff15b9f66a72c258dfbccb13",
      "transactionIndex": "0x2f",
      "blockHash": "0x44dcfa83b77dbf7263d1f38eebfdc9b95c30fe0068aad9295c22a169a1532002",
      "blockNumber": "0x7255f7",
      "gasUsed": "0x13af8",
      "effectiveGasPrice": "0x9f39c236",
      "from": "0xc77f7fed3b5cc8249adc428c5f44c9063b9734b4",
      "to": "0x270e88f8683660553e8ba4eb2ad7c91a1710d769",
      "contractAddress": null
    }
  ],
  "libraries": [],
  "pending": [],
  "returns": {},
  "timestamp": 1736898973,
  "chain": 11155111,
  "commit": "51a374b"
}