{
  "transactions": [
    {
      "hash": "0xe100ee8a2ce7d8c4dc6647d429b44234815bbb75004c0573a7c4c657f4b3b715",
      "transactionType": "CALL",
      "contractName": null,
      "contractAddress": "0x8aafd3ede9adb0ff97c7aebce82a919afb1c8764",
      "function": "sell(uint256)",
      "arguments": [
        "43844366107012025"
      ],
      "transaction": {
        "from": "0xc77f7fed3b5cc8249adc428c5f44c9063b9734b4",
        "to": "0x8aafd3ede9adb0ff97c7aebce82a919afb1c8764",
        "gas": "0x1724d",
        "value": "0x0",
        "input": "0xe4849b32000000000000000000000000000000000000000000000000009bc437fb35ebb9",
        "nonce": "0x11bf",
        "chainId": "0xaa36a7"
      },
      "additionalContracts": [],
      "isFixedGasLimit": false
    }
  ],
  "receipts": [
    {
      "status": "0x1",
      "cumulativeGasUsed": "0xb49a93",
      "logs": [
        {
          "address": "0x8aafd3ede9adb0ff97c7aebce82a919afb1c8764",
          "topics": [
            "0xddf252ad1be2c89b69c2b068fc378daa952ba7f163c4a11628f55a4df523b3ef",
            "0x000000000000000000000000c77f7fed3b5cc8249adc428c5f44c9063b9734b4",
            "0x0000000000000000000000000000000000000000000000000000000000000000"
          ],
          "data": "0x000000000000000000000000000000000000000000000000009a85357c45df99",
          "blockHash": "0x2dc5829e0e5b27b459701cffdb860847cf1fb95004ef28cee072d459b243c615",
          "blockNumber": "0x73188d",
          "transactionHash": "0xe100ee8a2ce7d8c4dc6647d429b44234815bbb75004c0573a7c4c657f4b3b715",
          "transactionIndex": "0x8f",
          "logIndex": "0xfb",
          "removed": false
        },
        {
          "address": "0x8aafd3ede9adb0ff97c7aebce82a919afb1c8764",
          "topics": [
            "0xddf252ad1be2c89b69c2b068fc378daa952ba7f163c4a11628f55a4df523b3ef",
            "0x000000000000000000000000c77f7fed3b5cc8249adc428c5f44c9063b9734b4",
            "0x000000000000000000000000c77f7fed3b5cc8249adc428c5f44c9063b9734b4"
          ],
          "data": "0x00000000000000000000000000000000000000000000000000013f027ef00c20",
          "blockHash": "0x2dc5829e0e5b27b459701cffdb860847cf1fb95004ef28cee072d459b243c615",
          "blockNumber": "0x73188d",
          "transactionHash": "0xe100ee8a2ce7d8c4dc6647d429b44234815bbb75004c0573a7c4c657f4b3b715",
          "transactionIndex": "0x8f",
          "logIndex": "0xfc",
          "removed": false
        },
        {
          "address": "0x8aafd3ede9adb0ff97c7aebce82a919afb1c8764",
          "topics": [
            "0x4afcb4a87cdbd9974efdb92ee48bc8d7cd0ae4bf217004db3d080cbaee652ca7"
          ],
          "data": "0x000000000000000000000000000000000000000000000000000000006790236c000000000000000000000000000000000000000000000000000527c2d0af6efd000000000000000000000000000000000000000000000000000039dd347075f8",
          "blockHash": "0x2dc5829e0e5b27b459701cffdb860847cf1fb95004ef28cee072d459b243c615",
          "blockNumber": "0x73188d",
          "transactionHash": "0xe100ee8a2ce7d8c4dc6647d429b44234815bbb75004c0573a7c4c657f4b3b715",
          "transactionIndex": "0x8f",
          "logIndex": "0xfd",
          "removed": false
        }
      ],
      "logsBloom": "0x00000000000000000000000000000000000000000600000000000000000000000000000000000000000000000000000000000000000000004000000000000000000000000000004000000008000000000000000000000000000000000000000000000000020000000000000000000800020000000000000000000010000000000000000000000000000000000000000000000000000000000000010000000000000000000000000000000000000000004000000000000000000000000000000000000002000000800000000000000000000000000000080000000000000020000000000000000000000000000000000000000000000000000000000000000000",
      "type": "0x2",
      "transactionHash": "0xe100ee8a2ce7d8c4dc6647d429b44234815bbb75004c0573a7c4c657f4b3b715",
      "transactionIndex": "0x8f",
      "blockHash": "0x2dc5829e0e5b27b459701cffdb860847cf1fb95004ef28cee072d459b243c615",
      "blockNumber": "0x73188d",
      "gasUsed": "0xfd33",
      "effectiveGasPrice": "0x3eedf77a",
      "from": "0xc77f7fed3b5cc8249adc428c5f44c9063b9734b4",
      "to": "0x8aafd3ede9adb0ff97c7aebce82a919afb1c8764",
      "contractAddress": null
    }
  ],
  "libraries": [],
  "pending": [],
  "returns": {},
  "timestamp": 1737499501,
  "chain": 11155111,
  "commit": "1d2fb70"
}