{
  "transactions": [
    {
      "hash": "0x1ab9963ed682251db9fc696504802b658c84c7ff0fd1b9d7cad42fef86ff3faf",
      "transactionType": "CALL",
      "contractName": null,
      "contractAddress": "0x270e88f8683660553e8ba4eb2ad7c91a1710d769",
      "function": "sell(uint256)",
      "arguments": [
        "727704807229818158154"
      ],
      "transaction": {
        "from": "0xc77f7fed3b5cc8249adc428c5f44c9063b9734b4",
        "to": "0x270e88f8683660553e8ba4eb2ad7c91a1710d769",
        "gas": "0x16fec",
        "value": "0x0",
        "input": "0xe4849b3200000000000000000000000000000000000000000000002772eed2a1556c3c4a",
        "nonce": "0x7c8",
        "chainId": "0xaa36a7"
      },
      "additionalContracts": [],
      "isFixedGasLimit": false
    }
  ],
  "receipts": [
    {
      "status": "0x1",
      "cumulativeGasUsed": "0xd46c34",
      "logs": [
        {
          "address": "0x270e88f8683660553e8ba4eb2ad7c91a1710d769",
          "topics": [
            "0xddf252ad1be2c89b69c2b068fc378daa952ba7f163c4a11628f55a4df523b3ef",
            "0x000000000000000000000000c77f7fed3b5cc8249adc428c5f44c9063b9734b4",
            "0x0000000000000000000000000000000000000000000000000000000000000000"
          ],
          "data": "0x00000000000000000000000000000000000000000000002772eed2a1556c3c4a",
          "blockHash": "0x49f7a5a3562f4abb77af2cec1db2a327923cd166ca05f09ebcbcc5c949d315bf",
          "blockNumber": "0x725500",
          "transactionHash": "0x1ab9963ed682251db9fc696504802b658c84c7ff0fd1b9d7cad42fef86ff3faf",
          "transactionIndex": "0x47",
          "logIndex": "0x76",
          "removed": false
        },
        {
          "address": "0x270e88f8683660553e8ba4eb2ad7c91a1710d769",
          "topics": [
            "0x4afcb4a87cdbd9974efdb92ee48bc8d7cd0ae4bf217004db3d080cbaee652ca7"
          ],
          "data": "0x000000000000000000000000000000000000000000000000000000006786ee080000000000000000000000000000000000000000000000000004d95c57a8e0280000000000000000000000000000000000000000000000000dc8273a27a51ce6",
          "blockHash": "0x49f7a5a3562f4abb77af2cec1db2a327923cd166ca05f09ebcbcc5c949d315bf",
          "blockNumber": "0x725500",
          "transactionHash": "0x1ab9963ed682251db9fc696504802b658c84c7ff0fd1b9d7cad42fef86ff3faf",
          "transactionIndex": "0x47",
          "logIndex": "0x77",
          "removed": false
        }
      ],
      "logsBloom": "0x00000000000000000000000000000000000000000000000000000000000000000000000000000000000000000000000020000000000000004000000000000000000000000000000000000008000000000000000000000000000000000000000000000000020000000000000000000800020000000000000000000010000000000000000000010000000000000000000000000000000000000000010000000000000000000000000000000000000000004000000000000000000000000000000000000002000000800000000000000000000000000000080000008000000020000000000000000000000000000000000000000000000000000000000000000000",
      "type": "0x2",
      "transactionHash": "0x1ab9963ed682251db9fc696504802b658c84c7ff0fd1b9d7cad42fef86ff3faf",
      "transactionIndex": "0x47",
      "blockHash": "0x49f7a5a3562f4abb77af2cec1db2a327923cd166ca05f09ebcbcc5c949d315bf",
      "blockNumber": "0x725500",
      "gasUsed": "0xfb93",
      "effectiveGasPrice": "0xc7981187",
      "from": "0xc77f7fed3b5cc8249adc428c5f44c9063b9734b4",
      "to": "0x270e88f8683660553e8ba4eb2ad7c91a1710d769",
      "contractAddress": null
    }
  ],
  "libraries": [],
  "pending": [],
  "returns": {},
  "timestamp": 1736896010,
  "chain": 11155111,
  "commit": "51a374b"
}