{
  "transactions": [
    {
      "hash": "0xc28b5b99c74fea3d21604dfb59842204c79de44edfcfb26199b411e21dd48960",
      "transactionType": "CALL",
      "contractName": null,
      "contractAddress": "0x8aafd3ede9adb0ff97c7aebce82a919afb1c8764",
      "function": "sell(uint256)",
      "arguments": [
        "746731013074443728012"
      ],
      "transaction": {
        "from": "0xc77f7fed3b5cc8249adc428c5f44c9063b9734b4",
        "to": "0x8aafd3ede9adb0ff97c7aebce82a919afb1c8764",
        "gas": "0x17270",
        "value": "0x0",
        "input": "0xe4849b320000000000000000000000000000000000000000000000287af97c0a6dca748c",
        "nonce": "0xed8",
        "chainId": "0xaa36a7"
      },
      "additionalContracts": [],
      "isFixedGasLimit": false
    }
  ],
  "receipts": [
    {
      "status": "0x1",
      "cumulativeGasUsed": "0x1330878",
      "logs": [
        {
          "address": "0x8aafd3ede9adb0ff97c7aebce82a919afb1c8764",
          "topics": [
            "0xddf252ad1be2c89b69c2b068fc378daa952ba7f163c4a11628f55a4df523b3ef",
            "0x000000000000000000000000c77f7fed3b5cc8249adc428c5f44c9063b9734b4",
            "0x0000000000000000000000000000000000000000000000000000000000000000"
          ],
          "data": "0x00000000000000000000000000000000000000000000002828121cd7253b860c",
          "blockHash": "0x21004e12532ec897c9243b48d505391320375dfc4ebc32d5148dd1cbe76d7418",
          "blockNumber": "0x73144d",
          "transactionHash": "0xc28b5b99c74fea3d21604dfb59842204c79de44edfcfb26199b411e21dd48960",
          "transactionIndex": "0xa3",
          "logIndex": "0x115",
          "removed": false
        },
        {
          "address": "0x8aafd3ede9adb0ff97c7aebce82a919afb1c8764",
          "topics": [
            "0xddf252ad1be2c89b69c2b068fc378daa952ba7f163c4a11628f55a4df523b3ef",
            "0x000000000000000000000000c77f7fed3b5cc8249adc428c5f44c9063b9734b4",
            "0x000000000000000000000000c77f7fed3b5cc8249adc428c5f44c9063b9734b4"
          ],
          "data": "0x00000000000000000000000000000000000000000000000052e75f33488eee80",
          "blockHash": "0x21004e12532ec897c9243b48d505391320375dfc4ebc32d5148dd1cbe76d7418",
          "blockNumber": "0x73144d",
          "transactionHash": "0xc28b5b99c74fea3d21604dfb59842204c79de44edfcfb26199b411e21dd48960",
          "transactionIndex": "0xa3",
          "logIndex": "0x116",
          "removed": false
        },
        {
          "address": "0x8aafd3ede9adb0ff97c7aebce82a919afb1c8764",
          "topics": [
            "0x4afcb4a87cdbd9974efdb92ee48bc8d7cd0ae4bf217004db3d080cbaee652ca7"
          ],
          "data": "0x00000000000000000000000000000000000000000000000000000000678ff0480000000000000000000000000000000000000000000000000004b9dc095f54850000000000000000000000000000000000000000000000000dc8348332a31110",
          "blockHash": "0x21004e12532ec897c9243b48d505391320375dfc4ebc32d5148dd1cbe76d7418",
          "blockNumber": "0x73144d",
          "transactionHash": "0xc28b5b99c74fea3d21604dfb59842204c79de44edfcfb26199b411e21dd48960",
          "transactionIndex": "0xa3",
          "logIndex": "0x117",
          "removed": false
        }
      ],
      "logsBloom": "0x00000000000000000000000000000000000000000600000000000000000000000000000000000000000000000000000000000000000000004000000000000000000000000000004000000008000000000000000000000000000000000000000000000000020000000000000000000800020000000000000000000010000000000000000000000000000000000000000000000000000000000000010000000000000000000000000000000000000000004000000000000000000000000000000000000002000000800000000000000000000000000000080000000000000020000000000000000000000000000000000000000000000000000000000000000000",
      "type": "0x2",
      "transactionHash": "0xc28b5b99c74fea3d21604dfb59842204c79de44edfcfb26199b411e21dd48960",
      "transactionIndex": "0xa3",
      "blockHash": "0x21004e12532ec897c9243b48d505391320375dfc4ebc32d5148dd1cbe76d7418",
      "blockNumber": "0x73144d",
      "gasUsed": "0xfd4b",
      "effectiveGasPrice": "0x929a9010",
      "from": "0xc77f7fed3b5cc8249adc428c5f44c9063b9734b4",
      "to": "0x8aafd3ede9adb0ff97c7aebce82a919afb1c8764",
      "contractAddress": null
    }
  ],
  "libraries": [],
  "pending": [],
  "returns": {},
  "timestamp": 1737486410,
  "chain": 11155111,
  "commit": "51a374b"
}