{
  "transactions": [
    {
      "hash": "0xc4ba888cd920da27faa8754254ff97595bf84955659e64dd3ea3c23514f91f59",
      "transactionType": "CALL",
      "contractName": null,
      "contractAddress": "0x8aafd3ede9adb0ff97c7aebce82a919afb1c8764",
      "function": "sell(uint256)",
      "arguments": [
        "379486265280274"
      ],
      "transaction": {
        "from": "0xc77f7fed3b5cc8249adc428c5f44c9063b9734b4",
        "to": "0x8aafd3ede9adb0ff97c7aebce82a919afb1c8764",
        "gas": "0x1724d",
        "value": "0x0",
        "input": "0xe4849b3200000000000000000000000000000000000000000000000000015924080a0712",
        "nonce": "0xf92",
        "chainId": "0xaa36a7"
      },
      "additionalContracts": [],
      "isFixedGasLimit": false
    }
  ],
  "receipts": [
    {
      "status": "0x1",
      "cumulativeGasUsed": "0xc44b7f",
      "logs": [
        {
          "address": "0x8aafd3ede9adb0ff97c7aebce82a919afb1c8764",
          "topics": [
            "0xddf252ad1be2c89b69c2b068fc378daa952ba7f163c4a11628f55a4df523b3ef",
            "0x000000000000000000000000c77f7fed3b5cc8249adc428c5f44c9063b9734b4",
            "0x0000000000000000000000000000000000000000000000000000000000000000"
          ],
          "data": "0x000000000000000000000000000000000000000000000000000156612ee30910",
          "blockHash": "0x0a0263df50c5c55952585ddc9cc6e48336c6a67d27af9a01f3f8e9817a3cda5f",
          "blockNumber": "0x7315f7",
          "transactionHash": "0xc4ba888cd920da27faa8754254ff97595bf84955659e64dd3ea3c23514f91f59",
          "transactionIndex": "0x7d",
          "logIndex": "0xa5",
          "removed": false
        },
        {
          "address": "0x8aafd3ede9adb0ff97c7aebce82a919afb1c8764",
          "topics": [
            "0xddf252ad1be2c89b69c2b068fc378daa952ba7f163c4a11628f55a4df523b3ef",
            "0x000000000000000000000000c77f7fed3b5cc8249adc428c5f44c9063b9734b4",
            "0x000000000000000000000000c77f7fed3b5cc8249adc428c5f44c9063b9734b4"
          ],
          "data": "0x000000000000000000000000000000000000000000000000000002c2d926fe02",
          "blockHash": "0x0a0263df50c5c55952585ddc9cc6e48336c6a67d27af9a01f3f8e9817a3cda5f",
          "blockNumber": "0x7315f7",
          "transactionHash": "0xc4ba888cd920da27faa8754254ff97595bf84955659e64dd3ea3c23514f91f59",
          "transactionIndex": "0x7d",
          "logIndex": "0xa6",
          "removed": false
        },
        {
          "address": "0x8aafd3ede9adb0ff97c7aebce82a919afb1c8764",
          "topics": [
            "0x4afcb4a87cdbd9974efdb92ee48bc8d7cd0ae4bf217004db3d080cbaee652ca7"
          ],
          "data": "0x00000000000000000000000000000000000000000000000000000000679004400000000000000000000000000000000000000000000000000004c2d34cf59809000000000000000000000000000000000000000000000000000000766833b684",
          "blockHash": "0x0a0263df50c5c55952585ddc9cc6e48336c6a67d27af9a01f3f8e9817a3cda5f",
          "blockNumber": "0x7315f7",
          "transactionHash": "0xc4ba888cd920da27faa8754254ff97595bf84955659e64dd3ea3c23514f91f59",
          "transactionIndex": "0x7d",
          "logIndex": "0xa7",
          "removed": false
        }
      ],
      "logsBloom": "0x00000000000000000000000000000000000000000600000000000000000000000000000000000000000000000000000000000000000000004000000000000000000000000000004000000008000000000000000000000000000000000000000000000000020000000000000000000800020000000000000000000010000000000000000000000000000000000000000000000000000000000000010000000000000000000000000000000000000000004000000000000000000000000000000000000002000000800000000000000000000000000000080000000000000020000000000000000000000000000000000000000000000000000000000000000000",
      "type": "0x2",
      "transactionHash": "0xc4ba888cd920da27faa8754254ff97595bf84955659e64dd3ea3c23514f91f59",
      "transactionIndex": "0x7d",
      "blockHash": "0x0a0263df50c5c55952585ddc9cc6e48336c6a67d27af9a01f3f8e9817a3cda5f",
      "blockNumber": "0x7315f7",
      "gasUsed": "0xfd33",
      "effectiveGasPrice": "0x6b5779d9",
      "from": "0xc77f7fed3b5cc8249adc428c5f44c9063b9734b4",
      "to": "0x8aafd3ede9adb0ff97c7aebce82a919afb1c8764",
      "contractAddress": null
    }
  ],
  "libraries": [],
  "pending": [],
  "returns": {},
  "timestamp": 1737491522,
  "chain": 11155111,
  "commit": "1d2fb70"
}