{
  "transactions": [
    {
      "hash": "0xfda2b12dbae0f1f089ffbdea6fe24df914f7ebe3365418999d9e5bb4100169d9",
      "transactionType": "CALL",
      "contractName": null,
      "contractAddress": "0x9a940ef65f8bf33332aa4faea921454828f0c80a",
      "function": "borrowMore(uint256)",
      "arguments": [
        "45431115935682"
      ],
      "transaction": {
        "from": "0xf66076775ad1f36dd12c1f1b10c21d1aadf0d6de",
        "to": "0x9a940ef65f8bf33332aa4faea921454828f0c80a",
        "gas": "0x1db4c",
        "value": "0x0",
        "input": "0x9d0bf2e900000000000000000000000000000000000000000000000000002951c186efc2",
        "nonce": "0x57",
        "chainId": "0xaa36a7"
      },
      "additionalContracts": [],
      "isFixedGasLimit": false
    }
  ],
  "receipts": [
    {
      "status": "0x1",
      "cumulativeGasUsed": "0xf4c14e",
      "logs": [
        {
          "address": "0x9a940ef65f8bf33332aa4faea921454828f0c80a",
          "topics": [
            "0x03bbe564cb1b78e43195eeadbde99e5b89b19345862807fcfb59f884e4165e25"
          ],
          "data": "0x00000000000000000000000038818e389773445cd73adbaa37b8b169f458c6e1000000000000000000000000000000000000000000000000000000032c5f24fc",
          "blockHash": "0xd5581f73e00de80747125125b1ad76087e3c9a7eb19c12f9161012465363038d",
          "blockNumber": "0x73d11f",
          "transactionHash": "0xfda2b12dbae0f1f089ffbdea6fe24df914f7ebe3365418999d9e5bb4100169d9",
          "transactionIndex": "0xa1",
          "logIndex": "0xe5",
          "removed": false
        },
        {
          "address": "0x9a940ef65f8bf33332aa4faea921454828f0c80a",
          "topics": [
            "0x03bbe564cb1b78e43195eeadbde99e5b89b19345862807fcfb59f884e4165e25"
          ],
          "data": "0x000000000000000000000000f66076775ad1f36dd12c1f1b10c21d1aadf0d6de000000000000000000000000000000000000000000000000000028dd6690f8e6",
          "blockHash": "0xd5581f73e00de80747125125b1ad76087e3c9a7eb19c12f9161012465363038d",
          "blockNumber": "0x73d11f",
          "transactionHash": "0xfda2b12dbae0f1f089ffbdea6fe24df914f7ebe3365418999d9e5bb4100169d9",
          "transactionIndex": "0xa1",
          "logIndex": "0xe6",
          "removed": false
        },
        {
          "address": "0x9a940ef65f8bf33332aa4faea921454828f0c80a",
          "topics": [
            "0xaec00f5213a37254bc68a26b0685d1a5b2bf513e1e587c94c7df7f4a62b56c9c"
          ],
          "data": "0x000000000000000000000000000000000000000000000000ebd1ba2d746911070000000000000000000000000000000000000000000000000062c40f6f6e72b30000000000000000000000000000000000000000000000000062c40f6f6e72b3000000000000000000000000000000000000000000000000ebd1ba2d74691107",
          "blockHash": "0xd5581f73e00de80747125125b1ad76087e3c9a7eb19c12f9161012465363038d",
          "blockNumber": "0x73d11f",
          "transactionHash": "0xfda2b12dbae0f1f089ffbdea6fe24df914f7ebe3365418999d9e5bb4100169d9",
          "transactionIndex": "0xa1",
          "logIndex": "0xe7",
          "removed": false
        },
        {
          "address": "0x9a940ef65f8bf33332aa4faea921454828f0c80a",
          "topics": [
            "0x4afcb4a87cdbd9974efdb92ee48bc8d7cd0ae4bf217004db3d080cbaee652ca7"
          ],
          "data": "0x00000000000000000000000000000000000000000000000000000000679910e80000000000000000000000000000000000000000000000000005df00eca17b450000000000000000000000000000000000000000000000000000000a93e7d09f",
          "blockHash": "0xd5581f73e00de80747125125b1ad76087e3c9a7eb19c12f9161012465363038d",
          "blockNumber": "0x73d11f",
          "transactionHash": "0xfda2b12dbae0f1f089ffbdea6fe24df914f7ebe3365418999d9e5bb4100169d9",
          "transactionIndex": "0xa1",
          "logIndex": "0xe8",
          "removed": false
        }
      ],
      "logsBloom": "0x80000000000000000000000000000100400000000000000000000000000000000008000000000000000000000000000000002000000000004000000000000000000000000000000000000000000000000000000000000000000000000000000000000000000000000000800000000000020000000000000000000000000000000000000000000000000000000000000000000000000000000000000000000000000000000000000000000400000000004000000000000000000000001000000000000000000000000000000000000000000000000000000000000000000000000000000000000000000000200000000000000000000000000000000000000000",
      "type": "0x2",
      "transactionHash": "0xfda2b12dbae0f1f089ffbdea6fe24df914f7ebe3365418999d9e5bb4100169d9",
      "transactionIndex": "0xa1",
      "blockHash": "0xd5581f73e00de80747125125b1ad76087e3c9a7eb19c12f9161012465363038d",
      "blockNumber": "0x73d11f",
      "gasUsed": "0x1581c",
      "effectiveGasPrice": "0x4f3f3df5",
      "from": "0xf66076775ad1f36dd12c1f1b10c21d1aadf0d6de",
      "to": "0x9a940ef65f8bf33332aa4faea921454828f0c80a",
      "contractAddress": null
    }
  ],
  "libraries": [],
  "pending": [],
  "returns": {},
  "timestamp": 1738084585,
  "chain": 11155111,
  "commit": "f5162e9"
}