{
  "transactions": [
    {
      "hash": "0xf26016cf37e8fb19c2a2a23b826565fb9ec7b51c900b68709ec7c6a89eba1da7",
      "transactionType": "CALL",
      "contractName": null,
      "contractAddress": "0x270e88f8683660553e8ba4eb2ad7c91a1710d769",
      "function": "sell(uint256)",
      "arguments": [
        "940368576558468690324"
      ],
      "transaction": {
        "from": "0xc77f7fed3b5cc8249adc428c5f44c9063b9734b4",
        "to": "0x270e88f8683660553e8ba4eb2ad7c91a1710d769",
        "gas": "0x16fec",
        "value": "0x0",
        "input": "0xe4849b32000000000000000000000000000000000000000000000032fa3c4e17fb3ff194",
        "nonce": "0x631",
        "chainId": "0xaa36a7"
      },
      "additionalContracts": [],
      "isFixedGasLimit": false
    }
  ],
  "receipts": [
    {
      "status": "0x1",
      "cumulativeGasUsed": "0x86d35e",
      "logs": [
        {
          "address": "0x270e88f8683660553e8ba4eb2ad7c91a1710d769",
          "topics": [
            "0xddf252ad1be2c89b69c2b068fc378daa952ba7f163c4a11628f55a4df523b3ef",
            "0x000000000000000000000000c77f7fed3b5cc8249adc428c5f44c9063b9734b4",
            "0x0000000000000000000000000000000000000000000000000000000000000000"
          ],
          "data": "0x000000000000000000000000000000000000000000000032fa3c4e17fb3ff194",
          "blockHash": "0x3bc596c90f55b0d6b55a6924d6896a49fe18a592e0fa604298c1a3cdc647fb99",
          "blockNumber": "0x725302",
          "transactionHash": "0xf26016cf37e8fb19c2a2a23b826565fb9ec7b51c900b68709ec7c6a89eba1da7",
          "transactionIndex": "0x3d",
          "logIndex": "0x62",
          "removed": false
        },
        {
          "address": "0x270e88f8683660553e8ba4eb2ad7c91a1710d769",
          "topics": [
            "0x4afcb4a87cdbd9974efdb92ee48bc8d7cd0ae4bf217004db3d080cbaee652ca7"
          ],
          "data": "0x000000000000000000000000000000000000000000000000000000006786d6200000000000000000000000000000000000000000000000000003c0b1930ebcc80000000000000000000000000000000000000000000000000dc83d2b285c3ef6",
          "blockHash": "0x3bc596c90f55b0d6b55a6924d6896a49fe18a592e0fa604298c1a3cdc647fb99",
          "blockNumber": "0x725302",
          "transactionHash": "0xf26016cf37e8fb19c2a2a23b826565fb9ec7b51c900b68709ec7c6a89eba1da7",
          "transactionIndex": "0x3d",
          "logIndex": "0x63",
          "removed": false
        }
      ],
      "logsBloom": "0x00000000000000000000000000000000000000000000000000000000000000000000000000000000000000000000000020000000000000004000000000000000000000000000000000000008000000000000000000000000000000000000000000000000020000000000000000000800020000000000000000000010000000000000000000010000000000000000000000000000000000000000010000000000000000000000000000000000000000004000000000000000000000000000000000000002000000800000000000000000000000000000080000008000000020000000000000000000000000000000000000000000000000000000000000000000",
      "type": "0x2",
      "transactionHash": "0xf26016cf37e8fb19c2a2a23b826565fb9ec7b51c900b68709ec7c6a89eba1da7",
      "transactionIndex": "0x3d",
      "blockHash": "0x3bc596c90f55b0d6b55a6924d6896a49fe18a592e0fa604298c1a3cdc647fb99",
      "blockNumber": "0x725302",
      "gasUsed": "0xfb93",
      "effectiveGasPrice": "0x2c987d098",
      "from": "0xc77f7fed3b5cc8249adc428c5f44c9063b9734b4",
      "to": "0x270e88f8683660553e8ba4eb2ad7c91a1710d769",
      "contractAddress": null
    }
  ],
  "libraries": [],
  "pending": [],
  "returns": {},
  "timestamp": 1736889890,
  "chain": 11155111,
  "commit": "51a374b"
}