{
  "transactions": [
    {
      "hash": "0x7c9bccc1d7f5a95db3c7754540d8ad2703f0180a75af9f2ad3a949527d394139",
      "transactionType": "CALL",
      "contractName": null,
      "contractAddress": "0x270e88f8683660553e8ba4eb2ad7c91a1710d769",
      "function": "buy(address)",
      "arguments": [
        "0xC77f7fed3b5Cc8249aDc428c5F44C9063B9734b4"
      ],
      "transaction": {
        "from": "0xc77f7fed3b5cc8249adc428c5f44c9063b9734b4",
        "to": "0x270e88f8683660553e8ba4eb2ad7c91a1710d769",
        "gas": "0x1b30c",
        "value": "0xde0b6b3a7640000",
        "input": "0xf088d547000000000000000000000000c77f7fed3b5cc8249adc428c5f44c9063b9734b4",
        "nonce": "0x59c",
        "chainId": "0xaa36a7"
      },
      "additionalContracts": [],
      "isFixedGasLimit": false
    }
  ],
  "receipts": [
    {
      "status": "0x1",
      "cumulativeGasUsed": "0x2ead5a",
      "logs": [
        {
          "address": "0x270e88f8683660553e8ba4eb2ad7c91a1710d769",
          "topics": [
            "0xddf252ad1be2c89b69c2b068fc378daa952ba7f163c4a11628f55a4df523b3ef",
            "0x0000000000000000000000000000000000000000000000000000000000000000",
            "0x000000000000000000000000c77f7fed3b5cc8249adc428c5f44c9063b9734b4"
          ],
          "data": "0x000000000000000000000000000000000000000000000033fed811fbdaf6cb94",
          "blockHash": "0xdaa12869f4eadb938693e19f7ddd2cffda906b3466d1e8c78346979e5b44940a",
          "blockNumber": "0x725252",
          "transactionHash": "0x7c9bccc1d7f5a95db3c7754540d8ad2703f0180a75af9f2ad3a949527d394139",
          "transactionIndex": "0x12",
          "logIndex": "0x1b",
          "removed": false
        },
        {
          "address": "0x270e88f8683660553e8ba4eb2ad7c91a1710d769",
          "topics": [
            "0xddf252ad1be2c89b69c2b068fc378daa952ba7f163c4a11628f55a4df523b3ef",
            "0x0000000000000000000000000000000000000000000000000000000000000000",
            "0x000000000000000000000000c77f7fed3b5cc8249adc428c5f44c9063b9734b4"
          ],
          "data": "0x0000000000000000000000000000000000000000000000002860530ceea80793",
          "blockHash": "0xdaa12869f4eadb938693e19f7ddd2cffda906b3466d1e8c78346979e5b44940a",
          "blockNumber": "0x725252",
          "transactionHash": "0x7c9bccc1d7f5a95db3c7754540d8ad2703f0180a75af9f2ad3a949527d394139",
          "transactionIndex": "0x12",
          "logIndex": "0x1c",
          "removed": false
        },
        {
          "address": "0x270e88f8683660553e8ba4eb2ad7c91a1710d769",
          "topics": [
            "0x4afcb4a87cdbd9974efdb92ee48bc8d7cd0ae4bf217004db3d080cbaee652ca7"
          ],
          "data": "0x000000000000000000000000000000000000000000000000000000006786cdc80000000000000000000000000000000000000000000000000003aadac29b27c10000000000000000000000000000000000000000000000000de0b6b3a7640000",
          "blockHash": "0xdaa12869f4eadb938693e19f7ddd2cffda906b3466d1e8c78346979e5b44940a",
          "blockNumber": "0x725252",
          "transactionHash": "0x7c9bccc1d7f5a95db3c7754540d8ad2703f0180a75af9f2ad3a949527d394139",
          "transactionIndex": "0x12",
          "logIndex": "0x1d",
          "removed": false
        }
      ],
      "logsBloom": "0x00000000000000000000000000000000000000000000000000000000000000000000000000000000000000000000000020000000000000004000000000000000000000000000000000000008000000000000000000000000000000000000000000000000020000000000000000000800020000000000000000000010000000000000000000010000000000000000000000000000000000000000010000000000000000000000000000000000000000004000000000000000000000000000000000000002000000800000000000000000000000000000080000008000000020000000000000000000000000000000000000000000000000000000000000000000",
      "type": "0x2",
      "transactionHash": "0x7c9bccc1d7f5a95db3c7754540d8ad2703f0180a75af9f2ad3a949527d394139",
      "transactionIndex": "0x12",
      "blockHash": "0xdaa12869f4eadb938693e19f7ddd2cffda906b3466d1e8c78346979e5b44940a",
      "blockNumber": "0x725252",
      "gasUsed": "0x13af8",
      "effectiveGasPrice": "0x45ac5e04c",
      "from": "0xc77f7fed3b5cc8249adc428c5f44c9063b9734b4",
      "to": "0x270e88f8683660553e8ba4eb2ad7c91a1710d769",
      "contractAddress": null
    }
  ],
  "libraries": [],
  "pending": [],
  "returns": {},
  "timestamp": 1736887753,
  "chain": 11155111,
  "commit": "51a374b"
}