{
  "transactions": [
    {
      "hash": "0xeee1293c558685576ab459089aae034acc02ced2f80d7be87e984d839764f18c",
      "transactionType": "CALL",
      "contractName": null,
      "contractAddress": "0x8aafd3ede9adb0ff97c7aebce82a919afb1c8764",
      "function": "buy(address)",
      "arguments": [
        "0xC77f7fed3b5Cc8249aDc428c5F44C9063B9734b4"
      ],
      "transaction": {
        "from": "0xc77f7fed3b5cc8249adc428c5f44c9063b9734b4",
        "to": "0x8aafd3ede9adb0ff97c7aebce82a919afb1c8764",
        "gas": "0x156ea",
        "value": "0xde0b6b3a7640000",
        "input": "0xf088d547000000000000000000000000c77f7fed3b5cc8249adc428c5f44c9063b9734b4",
        "nonce": "0x1333",
        "chainId": "0xaa36a7"
      },
      "additionalContracts": [],
      "isFixedGasLimit": false
    }
  ],
  "receipts": [
    {
      "status": "0x1",
      "cumulativeGasUsed": "0x8c0010",
      "logs": [
        {
          "address": "0x8aafd3ede9adb0ff97c7aebce82a919afb1c8764",
          "topics": [
            "0xddf252ad1be2c89b69c2b068fc378daa952ba7f163c4a11628f55a4df523b3ef",
            "0x0000000000000000000000000000000000000000000000000000000000000000",
            "0x000000000000000000000000c77f7fed3b5cc8249adc428c5f44c9063b9734b4"
          ],
          "data": "0x0000000000000000000000000000000000000000000000103568e89682912a37",
          "blockHash": "0x0be063c4ad085a392cc57ae610c5c1d25cbbde75c3e799fd7c40a2707d78519d",
          "blockNumber": "0x731a46",
          "transactionHash": "0xeee1293c558685576ab459089aae034acc02ced2f80d7be87e984d839764f18c",
          "transactionIndex": "0x7e",
          "logIndex": "0xaf",
          "removed": false
        },
        {
          "address": "0x8aafd3ede9adb0ff97c7aebce82a919afb1c8764",
          "topics": [
            "0xddf252ad1be2c89b69c2b068fc378daa952ba7f163c4a11628f55a4df523b3ef",
            "0x0000000000000000000000000000000000000000000000000000000000000000",
            "0x000000000000000000000000c77f7fed3b5cc8249adc428c5f44c9063b9734b4"
          ],
          "data": "0x0000000000000000000000000000000000000000000000000c962882ba584c22",
          "blockHash": "0x0be063c4ad085a392cc57ae610c5c1d25cbbde75c3e799fd7c40a2707d78519d",
          "blockNumber": "0x731a46",
          "transactionHash": "0xeee1293c558685576ab459089aae034acc02ced2f80d7be87e984d839764f18c",
          "transactionIndex": "0x7e",
          "logIndex": "0xb0",
          "removed": false
        },
        {
          "address": "0x8aafd3ede9adb0ff97c7aebce82a919afb1c8764",
          "topics": [
            "0x4afcb4a87cdbd9974efdb92ee48bc8d7cd0ae4bf217004db3d080cbaee652ca7"
          ],
          "data": "0x0000000000000000000000000000000000000000000000000000000067903818000000000000000000000000000000000000000000000000000bc95850fbd7510000000000000000000000000000000000000000000000000de0b6b3a7640000",
          "blockHash": "0x0be063c4ad085a392cc57ae610c5c1d25cbbde75c3e799fd7c40a2707d78519d",
          "blockNumber": "0x731a46",
          "transactionHash": "0xeee1293c558685576ab459089aae034acc02ced2f80d7be87e984d839764f18c",
          "transactionIndex": "0x7e",
          "logIndex": "0xb1",
          "removed": false
        }
      ],
      "logsBloom": "0x00000000000000000000000000000000000000000600000000000000000000000000000000000000000000000000000000000000000000004000000000000000000000000000004000000008000000000000000000000000000000000000000000000000020000000000000000000800020000000000000000000010000000000000000000000000000000000000000000000000000000000000010000000000000000000000000000000000000000004000000000000000000000000000000000000002000000800000000000000000000000000000080000000000000020000000000000000000000000000000000000000000000000000000000000000000",
      "type": "0x2",
      "transactionHash": "0xeee1293c558685576ab459089aae034acc02ced2f80d7be87e984d839764f18c",
      "transactionIndex": "0x7e",
      "blockHash": "0x0be063c4ad085a392cc57ae610c5c1d25cbbde75c3e799fd7c40a2707d78519d",
      "blockNumber": "0x731a46",
      "gasUsed": "0xf844",
      "effectiveGasPrice": "0x4a9fa1e7",
      "from": "0xc77f7fed3b5cc8249adc428c5f44c9063b9734b4",
      "to": "0x8aafd3ede9adb0ff97c7aebce82a919afb1c8764",
      "contractAddress": null
    }
  ],
  "libraries": [],
  "pending": [],
  "returns": {},
  "timestamp": 1737504793,
  "chain": 11155111,
  "commit": "1d2fb70"
}