{
  "transactions": [
    {
      "hash": "0x653e69e08a0f927faebf6da625ac378508cefa8e07f951084479c0c623abe722",
      "transactionType": "CALL",
      "contractName": null,
      "contractAddress": "0x5eb9cc76c3506942c1c0ead70e877dd5e4f00cb0",
      "function": "buy(address)",
      "arguments": [
        "0xC77f7fed3b5Cc8249aDc428c5F44C9063B9734b4"
      ],
      "transaction": {
        "from": "0xc77f7fed3b5cc8249adc428c5f44c9063b9734b4",
        "to": "0x5eb9cc76c3506942c1c0ead70e877dd5e4f00cb0",
        "gas": "0x1b30c",
        "value": "0xde0b6b3a7640000",
        "input": "0xf088d547000000000000000000000000c77f7fed3b5cc8249adc428c5f44c9063b9734b4",
        "nonce": "0x39e",
        "chainId": "0xaa36a7"
      },
      "additionalContracts": [],
      "isFixedGasLimit": false
    }
  ],
  "receipts": [
    {
      "status": "0x1",
      "cumulativeGasUsed": "0xf86cd8",
      "logs": [
        {
          "address": "0x5eb9cc76c3506942c1c0ead70e877dd5e4f00cb0",
          "topics": [
            "0xddf252ad1be2c89b69c2b068fc378daa952ba7f163c4a11628f55a4df523b3ef",
            "0x0000000000000000000000000000000000000000000000000000000000000000",
            "0x000000000000000000000000c77f7fed3b5cc8249adc428c5f44c9063b9734b4"
          ],
          "data": "0x000000000000000000000000000000000000000000000035753988ee92f365cf",
          "blockHash": "0x77d68d2f66910f9acb36d7d79b31bc01abb8bb5427bb3862c62069d99182f19b",
          "blockNumber": "0x724f9a",
          "transactionHash": "0x653e69e08a0f927faebf6da625ac378508cefa8e07f951084479c0c623abe722",
          "transactionIndex": "0x53",
          "logIndex": "0xa8",
          "removed": false
        },
        {
          "address": "0x5eb9cc76c3506942c1c0ead70e877dd5e4f00cb0",
          "topics": [
            "0xddf252ad1be2c89b69c2b068fc378daa952ba7f163c4a11628f55a4df523b3ef",
            "0x0000000000000000000000000000000000000000000000000000000000000000",
            "0x000000000000000000000000c77f7fed3b5cc8249adc428c5f44c9063b9734b4"
          ],
          "data": "0x00000000000000000000000000000000000000000000000029830b378a0a324d",
          "blockHash": "0x77d68d2f66910f9acb36d7d79b31bc01abb8bb5427bb3862c62069d99182f19b",
          "blockNumber": "0x724f9a",
          "transactionHash": "0x653e69e08a0f927faebf6da625ac378508cefa8e07f951084479c0c623abe722",
          "transactionIndex": "0x53",
          "logIndex": "0xa9",
          "removed": false
        },
        {
          "address": "0x5eb9cc76c3506942c1c0ead70e877dd5e4f00cb0",
          "topics": [
            "0x4afcb4a87cdbd9974efdb92ee48bc8d7cd0ae4bf217004db3d080cbaee652ca7"
          ],
          "data": "0x000000000000000000000000000000000000000000000000000000006786acf800000000000000000000000000000000000000000000000000039111bbc88a5e0000000000000000000000000000000000000000000000000de0b6b3a7640000",
          "blockHash": "0x77d68d2f66910f9acb36d7d79b31bc01abb8bb5427bb3862c62069d99182f19b",
          "blockNumber": "0x724f9a",
          "transactionHash": "0x653e69e08a0f927faebf6da625ac378508cefa8e07f951084479c0c623abe722",
          "transactionIndex": "0x53",
          "logIndex": "0xaa",
          "removed": false
        }
      ],
      "logsBloom": "0x00000000000000000000000000000000000000000000000000000000000000000000000000000000000000000000000000000000000000004000000000000000000000000000000000000008000000000000000000000000000000000000000000000000020000000000000004000800020000000000000000000010000000000000000000000000000000000000000000000000000000000000010000000000000000000000000000000000000000004000000000000000000000000000020000000002000000800000008000000000000000000000080000000000000020000000000000000000000000000000000000000000000000000000000000000000",
      "type": "0x2",
      "transactionHash": "0x653e69e08a0f927faebf6da625ac378508cefa8e07f951084479c0c623abe722",
      "transactionIndex": "0x53",
      "blockHash": "0x77d68d2f66910f9acb36d7d79b31bc01abb8bb5427bb3862c62069d99182f19b",
      "blockNumber": "0x724f9a",
      "gasUsed": "0x13af8",
      "effectiveGasPrice": "0x552545880",
      "from": "0xc77f7fed3b5cc8249adc428c5f44c9063b9734b4",
      "to": "0x5eb9cc76c3506942c1c0ead70e877dd5e4f00cb0",
      "contractAddress": null
    }
  ],
  "libraries": [],
  "pending": [],
  "returns": {},
  "timestamp": 1736879353,
  "chain": 11155111,
  "commit": "51a374b"
}