{
  "transactions": [
    {
      "hash": "0x99b55178055561d87e3551a505cba4ce1a0c04705ee03e71a78f1cc77039e5ba",
      "transactionType": "CALL",
      "contractName": null,
      "contractAddress": "0x270e88f8683660553e8ba4eb2ad7c91a1710d769",
      "function": "sell(uint256)",
      "arguments": [
        "758125119165344067491"
      ],
      "transaction": {
        "from": "0xc77f7fed3b5cc8249adc428c5f44c9063b9734b4",
        "to": "0x270e88f8683660553e8ba4eb2ad7c91a1710d769",
        "gas": "0x16fec",
        "value": "0x0",
        "input": "0xe4849b3200000000000000000000000000000000000000000000002919197b296f052fa3",
        "nonce": "0x674",
        "chainId": "0xaa36a7"
      },
      "additionalContracts": [],
      "isFixedGasLimit": false
    }
  ],
  "receipts": [
    {
      "status": "0x1",
      "cumulativeGasUsed": "0x1d10a1f",
      "logs": [
        {
          "address": "0x270e88f8683660553e8ba4eb2ad7c91a1710d769",
          "topics": [
            "0xddf252ad1be2c89b69c2b068fc378daa952ba7f163c4a11628f55a4df523b3ef",
            "0x000000000000000000000000c77f7fed3b5cc8249adc428c5f44c9063b9734b4",
            "0x0000000000000000000000000000000000000000000000000000000000000000"
          ],
          "data": "0x00000000000000000000000000000000000000000000002919197b296f052fa3",
          "blockHash": "0xd3209dd3f9da7e938f701ea406ef0f7ccd9468231bc90a250e891205c0be2f67",
          "blockNumber": "0x72536f",
          "transactionHash": "0x99b55178055561d87e3551a505cba4ce1a0c04705ee03e71a78f1cc77039e5ba",
          "transactionIndex": "0x6e",
          "logIndex": "0x270",
          "removed": false
        },
        {
          "address": "0x270e88f8683660553e8ba4eb2ad7c91a1710d769",
          "topics": [
            "0x4afcb4a87cdbd9974efdb92ee48bc8d7cd0ae4bf217004db3d080cbaee652ca7"
          ],
          "data": "0x000000000000000000000000000000000000000000000000000000006786db3c0000000000000000000000000000000000000000000000000004a78fdab05f770000000000000000000000000000000000000000000000000dc82a600b5cbd57",
          "blockHash": "0xd3209dd3f9da7e938f701ea406ef0f7ccd9468231bc90a250e891205c0be2f67",
          "blockNumber": "0x72536f",
          "transactionHash": "0x99b55178055561d87e3551a505cba4ce1a0c04705ee03e71a78f1cc77039e5ba",
          "transactionIndex": "0x6e",
          "logIndex": "0x271",
          "removed": false
        }
      ],
      "logsBloom": "0x00000000000000000000000000000000000000000000000000000000000000000000000000000000000000000000000020000000000000004000000000000000000000000000000000000008000000000000000000000000000000000000000000000000020000000000000000000800020000000000000000000010000000000000000000010000000000000000000000000000000000000000010000000000000000000000000000000000000000004000000000000000000000000000000000000002000000800000000000000000000000000000080000008000000020000000000000000000000000000000000000000000000000000000000000000000",
      "type": "0x2",
      "transactionHash": "0x99b55178055561d87e3551a505cba4ce1a0c04705ee03e71a78f1cc77039e5ba",
      "transactionIndex": "0x6e",
      "blockHash": "0xd3209dd3f9da7e938f701ea406ef0f7ccd9468231bc90a250e891205c0be2f67",
      "blockNumber": "0x72536f",
      "gasUsed": "0xfb93",
      "effectiveGasPrice": "0x210dda00c",
      "from": "0xc77f7fed3b5cc8249adc428c5f44c9063b9734b4",
      "to": "0x270e88f8683660553e8ba4eb2ad7c91a1710d769",
      "contractAddress": null
    }
  ],
  "libraries": [],
  "pending": [],
  "returns": {},
  "timestamp": 1736891197,
  "chain": 11155111,
  "commit": "51a374b"
}