{
  "transactions": [
    {
      "hash": "0xb06400bff7bb8dcefe2b139f851a2217dbeb2b4d9f0b2af6322be4938954dc9c",
      "transactionType": "CALL",
      "contractName": null,
      "contractAddress": "0x8aafd3ede9adb0ff97c7aebce82a919afb1c8764",
      "function": "sell(uint256)",
      "arguments": [
        "354663403831375"
      ],
      "transaction": {
        "from": "0xc77f7fed3b5cc8249adc428c5f44c9063b9734b4",
        "to": "0x8aafd3ede9adb0ff97c7aebce82a919afb1c8764",
        "gas": "0x1724d",
        "value": "0x0",
        "input": "0xe4849b32000000000000000000000000000000000000000000000000000142908233404f",
        "nonce": "0x115c",
        "chainId": "0xaa36a7"
      },
      "additionalContracts": [],
      "isFixedGasLimit": false
    }
  ],
  "receipts": [
    {
      "status": "0x1",
      "cumulativeGasUsed": "0xfba069",
      "logs": [
        {
          "address": "0x8aafd3ede9adb0ff97c7aebce82a919afb1c8764",
          "topics": [
            "0xddf252ad1be2c89b69c2b068fc378daa952ba7f163c4a11628f55a4df523b3ef",
            "0x000000000000000000000000c77f7fed3b5cc8249adc428c5f44c9063b9734b4",
            "0x0000000000000000000000000000000000000000000000000000000000000000"
          ],
          "data": "0x00000000000000000000000000000000000000000000000000013ffbe582b694",
          "blockHash": "0x94afa915a42bf25fb6612065416a1a67331c12cd6f19d7a33ec426a91a842346",
          "blockNumber": "0x731819",
          "transactionHash": "0xb06400bff7bb8dcefe2b139f851a2217dbeb2b4d9f0b2af6322be4938954dc9c",
          "transactionIndex": "0x94",
          "logIndex": "0xd5",
          "removed": false
        },
        {
          "address": "0x8aafd3ede9adb0ff97c7aebce82a919afb1c8764",
          "topics": [
            "0xddf252ad1be2c89b69c2b068fc378daa952ba7f163c4a11628f55a4df523b3ef",
            "0x000000000000000000000000c77f7fed3b5cc8249adc428c5f44c9063b9734b4",
            "0x000000000000000000000000c77f7fed3b5cc8249adc428c5f44c9063b9734b4"
          ],
          "data": "0x000000000000000000000000000000000000000000000000000002949cb089bb",
          "blockHash": "0x94afa915a42bf25fb6612065416a1a67331c12cd6f19d7a33ec426a91a842346",
          "blockNumber": "0x731819",
          "transactionHash": "0xb06400bff7bb8dcefe2b139f851a2217dbeb2b4d9f0b2af6322be4938954dc9c",
          "transactionIndex": "0x94",
          "logIndex": "0xd6",
          "removed": false
        },
        {
          "address": "0x8aafd3ede9adb0ff97c7aebce82a919afb1c8764",
          "topics": [
            "0x4afcb4a87cdbd9974efdb92ee48bc8d7cd0ae4bf217004db3d080cbaee652ca7"
          ],
          "data": "0x0000000000000000000000000000000000000000000000000000000067901df00000000000000000000000000000000000000000000000000005193b93fc6deb0000000000000000000000000000000000000000000000000000007681cfffc8",
          "blockHash": "0x94afa915a42bf25fb6612065416a1a67331c12cd6f19d7a33ec426a91a842346",
          "blockNumber": "0x731819",
          "transactionHash": "0xb06400bff7bb8dcefe2b139f851a2217dbeb2b4d9f0b2af6322be4938954dc9c",
          "transactionIndex": "0x94",
          "logIndex": "0xd7",
          "removed": false
        }
      ],
      "logsBloom": "0x00000000000000000000000000000000000000000600000000000000000000000000000000000000000000000000000000000000000000004000000000000000000000000000004000000008000000000000000000000000000000000000000000000000020000000000000000000800020000000000000000000010000000000000000000000000000000000000000000000000000000000000010000000000000000000000000000000000000000004000000000000000000000000000000000000002000000800000000000000000000000000000080000000000000020000000000000000000000000000000000000000000000000000000000000000000",
      "type": "0x2",
      "transactionHash": "0xb06400bff7bb8dcefe2b139f851a2217dbeb2b4d9f0b2af6322be4938954dc9c",
      "transactionIndex": "0x94",
      "blockHash": "0x94afa915a42bf25fb6612065416a1a67331c12cd6f19d7a33ec426a91a842346",
      "blockNumber": "0x731819",
      "gasUsed": "0xfd33",
      "effectiveGasPrice": "0x466d4f3a",
      "from": "0xc77f7fed3b5cc8249adc428c5f44c9063b9734b4",
      "to": "0x8aafd3ede9adb0ff97c7aebce82a919afb1c8764",
      "contractAddress": null
    }
  ],
  "libraries": [],
  "pending": [],
  "returns": {},
  "timestamp": 1737498097,
  "chain": 11155111,
  "commit": "1d2fb70"
}