{
  "transactions": [
    {
      "hash": "0x68f5bafaf4b9696592d735cea4963b4799b23ba2f3eabcd5de3da9dbca600eff",
      "transactionType": "CALL",
      "contractName": null,
      "contractAddress": "0x8aafd3ede9adb0ff97c7aebce82a919afb1c8764",
      "function": "sell(uint256)",
      "arguments": [
        "39384980"
      ],
      "transaction": {
        "from": "0xc77f7fed3b5cc8249adc428c5f44c9063b9734b4",
        "to": "0x8aafd3ede9adb0ff97c7aebce82a919afb1c8764",
        "gas": "0x15d88",
        "value": "0x0",
        "input": "0xe4849b32000000000000000000000000000000000000000000000000000000000258f794",
        "nonce": "0x1733",
        "chainId": "0xaa36a7"
      },
      "additionalContracts": [],
      "isFixedGasLimit": false
    }
  ],
  "receipts": [
    {
      "status": "0x1",
      "cumulativeGasUsed": "0x102450e",
      "logs": [
        {
          "address": "0x8aafd3ede9adb0ff97c7aebce82a919afb1c8764",
          "topics": [
            "0xddf252ad1be2c89b69c2b068fc378daa952ba7f163c4a11628f55a4df523b3ef",
            "0x000000000000000000000000c77f7fed3b5cc8249adc428c5f44c9063b9734b4",
            "0x0000000000000000000000000000000000000000000000000000000000000000"
          ],
          "data": "0x00000000000000000000000000000000000000000000000000000000025428cd",
          "blockHash": "0x1ec7b8bc7d157752e5e9fd77cedfdc43f3381932962c3e6302bdbd0269bbc6ca",
          "blockNumber": "0x731efe",
          "transactionHash": "0x68f5bafaf4b9696592d735cea4963b4799b23ba2f3eabcd5de3da9dbca600eff",
          "transactionIndex": "0x87",
          "logIndex": "0xc6",
          "removed": false
        },
        {
          "address": "0x8aafd3ede9adb0ff97c7aebce82a919afb1c8764",
          "topics": [
            "0xddf252ad1be2c89b69c2b068fc378daa952ba7f163c4a11628f55a4df523b3ef",
            "0x000000000000000000000000c77f7fed3b5cc8249adc428c5f44c9063b9734b4",
            "0x000000000000000000000000c77f7fed3b5cc8249adc428c5f44c9063b9734b4"
          ],
          "data": "0x000000000000000000000000000000000000000000000000000000000004cec7",
          "blockHash": "0x1ec7b8bc7d157752e5e9fd77cedfdc43f3381932962c3e6302bdbd0269bbc6ca",
          "blockNumber": "0x731efe",
          "transactionHash": "0x68f5bafaf4b9696592d735cea4963b4799b23ba2f3eabcd5de3da9dbca600eff",
          "transactionIndex": "0x87",
          "logIndex": "0xc7",
          "removed": false
        },
        {
          "address": "0x8aafd3ede9adb0ff97c7aebce82a919afb1c8764",
          "topics": [
            "0x4afcb4a87cdbd9974efdb92ee48bc8d7cd0ae4bf217004db3d080cbaee652ca7"
          ],
          "data": "0x00000000000000000000000000000000000000000000000000000000679070d00000000000000000000000000000000000000000000000000017962395be5904000000000000000000000000000000000000000000000000000000000003fd65",
          "blockHash": "0x1ec7b8bc7d157752e5e9fd77cedfdc43f3381932962c3e6302bdbd0269bbc6ca",
          "blockNumber": "0x731efe",
          "transactionHash": "0x68f5bafaf4b9696592d735cea4963b4799b23ba2f3eabcd5de3da9dbca600eff",
          "transactionIndex": "0x87",
          "logIndex": "0xc8",
          "removed": false
        }
      ],
      "logsBloom": "0x00000000000000000000000000000000000000000600000000000000000000000000000000000000000000000000000000000000000000004000000000000000000000000000004000000008000000000000000000000000000000000000000000000000020000000000000000000800020000000000000000000010000000000000000000000000000000000000000000000000000000000000010000000000000000000000000000000000000000004000000000000000000000000000000000000002000000800000000000000000000000000000080000000000000020000000000000000000000000000000000000000000000000000000000000000000",
      "type": "0x2",
      "transactionHash": "0x68f5bafaf4b9696592d735cea4963b4799b23ba2f3eabcd5de3da9dbca600eff",
      "transactionIndex": "0x87",
      "blockHash": "0x1ec7b8bc7d157752e5e9fd77cedfdc43f3381932962c3e6302bdbd0269bbc6ca",
      "blockNumber": "0x731efe",
      "gasUsed": "0xfd0f",
      "effectiveGasPrice": "0x442c8719",
      "from": "0xc77f7fed3b5cc8249adc428c5f44c9063b9734b4",
      "to": "0x8aafd3ede9adb0ff97c7aebce82a919afb1c8764",
      "contractAddress": null
    }
  ],
  "libraries": [],
  "pending": [],
  "returns": {},
  "timestamp": 1737519314,
  "chain": 11155111,
  "commit": "1d2fb70"
}