{
  "transactions": [
    {
      "hash": "0x3b9acb47ff5f87828f83bc79b15d8b590c34cb57445edc72491990ca6e3c5fe1",
      "transactionType": "CALL",
      "contractName": null,
      "contractAddress": "0x270e88f8683660553e8ba4eb2ad7c91a1710d769",
      "function": "sell(uint256)",
      "arguments": [
        "724285360972376823590"
      ],
      "transaction": {
        "from": "0xc77f7fed3b5cc8249adc428c5f44c9063b9734b4",
        "to": "0x270e88f8683660553e8ba4eb2ad7c91a1710d769",
        "gas": "0x16fec",
        "value": "0x0",
        "input": "0xe4849b32000000000000000000000000000000000000000000000027437a82604617d726",
        "nonce": "0x7f0",
        "chainId": "0xaa36a7"
      },
      "additionalContracts": [],
      "isFixedGasLimit": false
    }
  ],
  "receipts": [
    {
      "status": "0x1",
      "cumulativeGasUsed": "0x14bee7f",
      "logs": [
        {
          "address": "0x270e88f8683660553e8ba4eb2ad7c91a1710d769",
          "topics": [
            "0xddf252ad1be2c89b69c2b068fc378daa952ba7f163c4a11628f55a4df523b3ef",
            "0x000000000000000000000000c77f7fed3b5cc8249adc428c5f44c9063b9734b4",
            "0x0000000000000000000000000000000000000000000000000000000000000000"
          ],
          "data": "0x000000000000000000000000000000000000000000000027437a82604617d726",
          "blockHash": "0x1cbf7494a7844a0a4ee6d7a9a9ca7eba0d03ce2c3a55674b0edfa9fa1e437595",
          "blockNumber": "0x72552c",
          "transactionHash": "0x3b9acb47ff5f87828f83bc79b15d8b590c34cb57445edc72491990ca6e3c5fe1",
          "transactionIndex": "0x74",
          "logIndex": "0xab",
          "removed": false
        },
        {
          "address": "0x270e88f8683660553e8ba4eb2ad7c91a1710d769",
          "topics": [
            "0x4afcb4a87cdbd9974efdb92ee48bc8d7cd0ae4bf217004db3d080cbaee652ca7"
          ],
          "data": "0x000000000000000000000000000000000000000000000000000000006786f0180000000000000000000000000000000000000000000000000004df384f70d8330000000000000000000000000000000000000000000000000dc826df845b3168",
          "blockHash": "0x1cbf7494a7844a0a4ee6d7a9a9ca7eba0d03ce2c3a55674b0edfa9fa1e437595",
          "blockNumber": "0x72552c",
          "transactionHash": "0x3b9acb47ff5f87828f83bc79b15d8b590c34cb57445edc72491990ca6e3c5fe1",
          "transactionIndex": "0x74",
          "logIndex": "0xac",
          "removed": false
        }
      ],
      "logsBloom": "0x00000000000000000000000000000000000000000000000000000000000000000000000000000000000000000000000020000000000000004000000000000000000000000000000000000008000000000000000000000000000000000000000000000000020000000000000000000800020000000000000000000010000000000000000000010000000000000000000000000000000000000000010000000000000000000000000000000000000000004000000000000000000000000000000000000002000000800000000000000000000000000000080000008000000020000000000000000000000000000000000000000000000000000000000000000000",
      "type": "0x2",
      "transactionHash": "0x3b9acb47ff5f87828f83bc79b15d8b590c34cb57445edc72491990ca6e3c5fe1",
      "transactionIndex": "0x74",
      "blockHash": "0x1cbf7494a7844a0a4ee6d7a9a9ca7eba0d03ce2c3a55674b0edfa9fa1e437595",
      "blockNumber": "0x72552c",
      "gasUsed": "0xfb93",
      "effectiveGasPrice": "0x9c599a3d",
      "from": "0xc77f7fed3b5cc8249adc428c5f44c9063b9734b4",
      "to": "0x270e88f8683660553e8ba4eb2ad7c91a1710d769",
      "contractAddress": null
    }
  ],
  "libraries": [],
  "pending": [],
  "returns": {},
  "timestamp": 1736896536,
  "chain": 11155111,
  "commit": "51a374b"
}