{
  "transactions": [
    {
      "hash": "0x1d063be4da127d35e61d7d9cb4a2a2735522a440cc64110ef91f673babb5b197",
      "transactionType": "CALL",
      "contractName": null,
      "contractAddress": "0xd7bc75898e513accccf720a874d44dab5a4b6223",
      "function": "sell(uint256)",
      "arguments": [
        "9929990976544307109"
      ],
      "transaction": {
        "from": "0xc77f7fed3b5cc8249adc428c5f44c9063b9734b4",
        "to": "0xd7bc75898e513accccf720a874d44dab5a4b6223",
        "gas": "0x15b6b",
        "value": "0x0",
        "input": "0xe4849b3200000000000000000000000000000000000000000000000089ce6a2e8bc1f7a5",
        "nonce": "0x117",
        "chainId": "0xaa36a7"
      },
      "additionalContracts": [],
      "isFixedGasLimit": false
    }
  ],
  "receipts": [
    {
      "status": "0x1",
      "cumulativeGasUsed": "0x46328f",
      "logs": [
        {
          "address": "0xd7bc75898e513accccf720a874d44dab5a4b6223",
          "topics": [
            "0xddf252ad1be2c89b69c2b068fc378daa952ba7f163c4a11628f55a4df523b3ef",
            "0x000000000000000000000000c77f7fed3b5cc8249adc428c5f44c9063b9734b4",
            "0x0000000000000000000000000000000000000000000000000000000000000000"
          ],
          "data": "0x00000000000000000000000000000000000000000000000089ce6a2e8bc1f7a5",
          "blockHash": "0x5d44ea2a8c4d37a0b8cbefc86947ea4c01b0a6c82647933ebb6358c9f31a3841",
          "blockNumber": "0x7239ad",
          "transactionHash": "0x1d063be4da127d35e61d7d9cb4a2a2735522a440cc64110ef91f673babb5b197",
          "transactionIndex": "0x28",
          "logIndex": "0x44",
          "removed": false
        },
        {
          "address": "0xd7bc75898e513accccf720a874d44dab5a4b6223",
          "topics": [
            "0x4afcb4a87cdbd9974efdb92ee48bc8d7cd0ae4bf217004db3d080cbaee652ca7"
          ],
          "data": "0x000000000000000000000000000000000000000000000000000000006785a57000000000000000000000000000000000000000000000000000038d7f8f62dd830000000000000000000000000000000000000000000000000023474f493d2797",
          "blockHash": "0x5d44ea2a8c4d37a0b8cbefc86947ea4c01b0a6c82647933ebb6358c9f31a3841",
          "blockNumber": "0x7239ad",
          "transactionHash": "0x1d063be4da127d35e61d7d9cb4a2a2735522a440cc64110ef91f673babb5b197",
          "transactionIndex": "0x28",
          "logIndex": "0x45",
          "removed": false
        }
      ],
      "logsBloom": "0x00000000000000000000000000000000000000000000000000000000000000000000000000000000000000000000000000000000000000004000000000000000000000000000000000000008000000000000000000000000000000000000000000000000020000000000000000000800020000000000000000000010000000000000000000000000000000000000000000000000000000000000010000000000000000000000000000000000000000004000001000000000000000000000000000000002000000800000000000004000000000000000080000000000000020000000000000000000000000000000000000000000080000000000000000000000",
      "type": "0x2",
      "transactionHash": "0x1d063be4da127d35e61d7d9cb4a2a2735522a440cc64110ef91f673babb5b197",
      "transactionIndex": "0x28",
      "blockHash": "0x5d44ea2a8c4d37a0b8cbefc86947ea4c01b0a6c82647933ebb6358c9f31a3841",
      "blockNumber": "0x7239ad",
      "gasUsed": "0xfb87",
      "effectiveGasPrice": "0x1b50e8b08",
      "from": "0xc77f7fed3b5cc8249adc428c5f44c9063b9734b4",
      "to": "0xd7bc75898e513accccf720a874d44dab5a4b6223",
      "contractAddress": null
    }
  ],
  "libraries": [],
  "pending": [],
  "returns": {},
  "timestamp": 1736811889,
  "chain": 11155111,
  "commit": "51a374b"
}