{
  "transactions": [
    {
      "hash": "0xdd57033ecd024c58173a05cd08391e248ade588ead509ab272d8d6872212b90d",
      "transactionType": "CALL",
      "contractName": null,
      "contractAddress": "0x270e88f8683660553e8ba4eb2ad7c91a1710d769",
      "function": "sell(uint256)",
      "arguments": [
        "725478513440904047489"
      ],
      "transaction": {
        "from": "0xc77f7fed3b5cc8249adc428c5f44c9063b9734b4",
        "to": "0x270e88f8683660553e8ba4eb2ad7c91a1710d769",
        "gas": "0x16fec",
        "value": "0x0",
        "input": "0xe4849b32000000000000000000000000000000000000000000000027540970397f89eb81",
        "nonce": "0x7e2",
        "chainId": "0xaa36a7"
      },
      "additionalContracts": [],
      "isFixedGasLimit": false
    }
  ],
  "receipts": [
    {
      "status": "0x1",
      "cumulativeGasUsed": "0xdd5601",
      "logs": [
        {
          "address": "0x270e88f8683660553e8ba4eb2ad7c91a1710d769",
          "topics": [
            "0xddf252ad1be2c89b69c2b068fc378daa952ba7f163c4a11628f55a4df523b3ef",
            "0x000000000000000000000000c77f7fed3b5cc8249adc428c5f44c9063b9734b4",
            "0x0000000000000000000000000000000000000000000000000000000000000000"
          ],
          "data": "0x000000000000000000000000000000000000000000000027540970397f89eb81",
          "blockHash": "0x0cd270088b299152700d9dd1f859ab78eb1a1ff3416bbd4f98301efadbb55b79",
          "blockNumber": "0x72551d",
          "transactionHash": "0xdd57033ecd024c58173a05cd08391e248ade588ead509ab272d8d6872212b90d",
          "transactionIndex": "0x6d",
          "logIndex": "0xf4",
          "removed": false
        },
        {
          "address": "0x270e88f8683660553e8ba4eb2ad7c91a1710d769",
          "topics": [
            "0x4afcb4a87cdbd9974efdb92ee48bc8d7cd0ae4bf217004db3d080cbaee652ca7"
          ],
          "data": "0x000000000000000000000000000000000000000000000000000000006786ef640000000000000000000000000000000000000000000000000004dd2b5172ffe40000000000000000000000000000000000000000000000000dc826ff2502d7a6",
          "blockHash": "0x0cd270088b299152700d9dd1f859ab78eb1a1ff3416bbd4f98301efadbb55b79",
          "blockNumber": "0x72551d",
          "transactionHash": "0xdd57033ecd024c58173a05cd08391e248ade588ead509ab272d8d6872212b90d",
          "transactionIndex": "0x6d",
          "logIndex": "0xf5",
          "removed": false
        }
      ],
      "logsBloom": "0x00000000000000000000000000000000000000000000000000000000000000000000000000000000000000000000000020000000000000004000000000000000000000000000000000000008000000000000000000000000000000000000000000000000020000000000000000000800020000000000000000000010000000000000000000010000000000000000000000000000000000000000010000000000000000000000000000000000000000004000000000000000000000000000000000000002000000800000000000000000000000000000080000008000000020000000000000000000000000000000000000000000000000000000000000000000",
      "type": "0x2",
      "transactionHash": "0xdd57033ecd024c58173a05cd08391e248ade588ead509ab272d8d6872212b90d",
      "transactionIndex": "0x6d",
      "blockHash": "0x0cd270088b299152700d9dd1f859ab78eb1a1ff3416bbd4f98301efadbb55b79",
      "blockNumber": "0x72551d",
      "gasUsed": "0xfb93",
      "effectiveGasPrice": "0xb6c12e74",
      "from": "0xc77f7fed3b5cc8249adc428c5f44c9063b9734b4",
      "to": "0x270e88f8683660553e8ba4eb2ad7c91a1710d769",
      "contractAddress": null
    }
  ],
  "libraries": [],
  "pending": [],
  "returns": {},
  "timestamp": 1736896357,
  "chain": 11155111,
  "commit": "51a374b"
}