{
  "transactions": [
    {
      "hash": "0x3447050dd68c1d742c2ab6de6c8a7e0c415126e4b42ce121e6f832cb345dfcd6",
      "transactionType": "CALL",
      "contractName": null,
      "contractAddress": "0x8aafd3ede9adb0ff97c7aebce82a919afb1c8764",
      "function": "sell(uint256)",
      "arguments": [
        "44731631978170542"
      ],
      "transaction": {
        "from": "0xc77f7fed3b5cc8249adc428c5f44c9063b9734b4",
        "to": "0x8aafd3ede9adb0ff97c7aebce82a919afb1c8764",
        "gas": "0x1724d",
        "value": "0x0",
        "input": "0xe4849b32000000000000000000000000000000000000000000000000009eeb2eaa4848ae",
        "nonce": "0x110b",
        "chainId": "0xaa36a7"
      },
      "additionalContracts": [],
      "isFixedGasLimit": false
    }
  ],
  "receipts": [
    {
      "status": "0x1",
      "cumulativeGasUsed": "0xcad51d",
      "logs": [
        {
          "address": "0x8aafd3ede9adb0ff97c7aebce82a919afb1c8764",
          "topics": [
            "0xddf252ad1be2c89b69c2b068fc378daa952ba7f163c4a11628f55a4df523b3ef",
            "0x000000000000000000000000c77f7fed3b5cc8249adc428c5f44c9063b9734b4",
            "0x0000000000000000000000000000000000000000000000000000000000000000"
          ],
          "data": "0x000000000000000000000000000000000000000000000000009da5b7820212da",
          "blockHash": "0x444c2e3fb8b615ffa4ec398125952979c00eb89ead782423cbbf9eaa1a963757",
          "blockNumber": "0x7317ba",
          "transactionHash": "0x3447050dd68c1d742c2ab6de6c8a7e0c415126e4b42ce121e6f832cb345dfcd6",
          "transactionIndex": "0x8c",
          "logIndex": "0x98",
          "removed": false
        },
        {
          "address": "0x8aafd3ede9adb0ff97c7aebce82a919afb1c8764",
          "topics": [
            "0xddf252ad1be2c89b69c2b068fc378daa952ba7f163c4a11628f55a4df523b3ef",
            "0x000000000000000000000000c77f7fed3b5cc8249adc428c5f44c9063b9734b4",
            "0x000000000000000000000000c77f7fed3b5cc8249adc428c5f44c9063b9734b4"
          ],
          "data": "0x00000000000000000000000000000000000000000000000000014577284635d4",
          "blockHash": "0x444c2e3fb8b615ffa4ec398125952979c00eb89ead782423cbbf9eaa1a963757",
          "blockNumber": "0x7317ba",
          "transactionHash": "0x3447050dd68c1d742c2ab6de6c8a7e0c415126e4b42ce121e6f832cb345dfcd6",
          "transactionIndex": "0x8c",
          "logIndex": "0x99",
          "removed": false
        },
        {
          "address": "0x8aafd3ede9adb0ff97c7aebce82a919afb1c8764",
          "topics": [
            "0x4afcb4a87cdbd9974efdb92ee48bc8d7cd0ae4bf217004db3d080cbaee652ca7"
          ],
          "data": "0x000000000000000000000000000000000000000000000000000000006790197c00000000000000000000000000000000000000000000000000050d9c905c494f000000000000000000000000000000000000000000000000000039dd87d7e0eb",
          "blockHash": "0x444c2e3fb8b615ffa4ec398125952979c00eb89ead782423cbbf9eaa1a963757",
          "blockNumber": "0x7317ba",
          "transactionHash": "0x3447050dd68c1d742c2ab6de6c8a7e0c415126e4b42ce121e6f832cb345dfcd6",
          "transactionIndex": "0x8c",
          "logIndex": "0x9a",
          "removed": false
        }
      ],
      "logsBloom": "0x00000000000000000000000000000000000000000600000000000000000000000000000000000000000000000000000000000000000000004000000000000000000000000000004000000008000000000000000000000000000000000000000000000000020000000000000000000800020000000000000000000010000000000000000000000000000000000000000000000000000000000000010000000000000000000000000000000000000000004000000000000000000000000000000000000002000000800000000000000000000000000000080000000000000020000000000000000000000000000000000000000000000000000000000000000000",
      "type": "0x2",
      "transactionHash": "0x3447050dd68c1d742c2ab6de6c8a7e0c415126e4b42ce121e6f832cb345dfcd6",
      "transactionIndex": "0x8c",
      "blockHash": "0x444c2e3fb8b615ffa4ec398125952979c00eb89ead782423cbbf9eaa1a963757",
      "blockNumber": "0x7317ba",
      "gasUsed": "0xfd33",
      "effectiveGasPrice": "0x4b11fc16",
      "from": "0xc77f7fed3b5cc8249adc428c5f44c9063b9734b4",
      "to": "0x8aafd3ede9adb0ff97c7aebce82a919afb1c8764",
      "contractAddress": null
    }
  ],
  "libraries": [],
  "pending": [],
  "returns": {},
  "timestamp": 1737496957,
  "chain": 11155111,
  "commit": "1d2fb70"
}