{
  "transactions": [
    {
      "hash": "0x16bd71fc76511d1100d7837788dddb3cd9946befa50a0ba8a959de2571ff12fa",
      "transactionType": "CALL",
      "contractName": null,
      "contractAddress": "0x5eb9cc76c3506942c1c0ead70e877dd5e4f00cb0",
      "function": "buy(address)",
      "arguments": [
        "0xC77f7fed3b5Cc8249aDc428c5F44C9063B9734b4"
      ],
      "transaction": {
        "from": "0xc77f7fed3b5cc8249adc428c5f44c9063b9734b4",
        "to": "0x5eb9cc76c3506942c1c0ead70e877dd5e4f00cb0",
        "gas": "0x156c8",
        "value": "0xde0b6b3a7640000",
        "input": "0xf088d547000000000000000000000000c77f7fed3b5cc8249adc428c5f44c9063b9734b4",
        "nonce": "0x21c",
        "chainId": "0xaa36a7"
      },
      "additionalContracts": [],
      "isFixedGasLimit": false
    }
  ],
  "receipts": [
    {
      "status": "0x1",
      "cumulativeGasUsed": "0xbb8fa9",
      "logs": [
        {
          "address": "0x5eb9cc76c3506942c1c0ead70e877dd5e4f00cb0",
          "topics": [
            "0xddf252ad1be2c89b69c2b068fc378daa952ba7f163c4a11628f55a4df523b3ef",
            "0x0000000000000000000000000000000000000000000000000000000000000000",
            "0x000000000000000000000000c77f7fed3b5cc8249adc428c5f44c9063b9734b4"
          ],
          "data": "0x0000000000000000000000000000000000000000000000357c4269522940dc4a",
          "blockHash": "0xdd58bad16a0454770d4b925218f398b65ba36a9fcab6ba1eea0d8169bf843bf5",
          "blockNumber": "0x724dae",
          "transactionHash": "0x16bd71fc76511d1100d7837788dddb3cd9946befa50a0ba8a959de2571ff12fa",
          "transactionIndex": "0x65",
          "logIndex": "0x77",
          "removed": false
        },
        {
          "address": "0x5eb9cc76c3506942c1c0ead70e877dd5e4f00cb0",
          "topics": [
            "0xddf252ad1be2c89b69c2b068fc378daa952ba7f163c4a11628f55a4df523b3ef",
            "0x0000000000000000000000000000000000000000000000000000000000000000",
            "0x000000000000000000000000c77f7fed3b5cc8249adc428c5f44c9063b9734b4"
          ],
          "data": "0x000000000000000000000000000000000000000000000000298881a8b3e88729",
          "blockHash": "0xdd58bad16a0454770d4b925218f398b65ba36a9fcab6ba1eea0d8169bf843bf5",
          "blockNumber": "0x724dae",
          "transactionHash": "0x16bd71fc76511d1100d7837788dddb3cd9946befa50a0ba8a959de2571ff12fa",
          "transactionIndex": "0x65",
          "logIndex": "0x78",
          "removed": false
        },
        {
          "address": "0x5eb9cc76c3506942c1c0ead70e877dd5e4f00cb0",
          "topics": [
            "0x4afcb4a87cdbd9974efdb92ee48bc8d7cd0ae4bf217004db3d080cbaee652ca7"
          ],
          "data": "0x00000000000000000000000000000000000000000000000000000000678695dc00000000000000000000000000000000000000000000000000039099a3e78f380000000000000000000000000000000000000000000000000de0b6b3a7640000",
          "blockHash": "0xdd58bad16a0454770d4b925218f398b65ba36a9fcab6ba1eea0d8169bf843bf5",
          "blockNumber": "0x724dae",
          "transactionHash": "0x16bd71fc76511d1100d7837788dddb3cd9946befa50a0ba8a959de2571ff12fa",
          "transactionIndex": "0x65",
          "logIndex": "0x79",
          "removed": false
        }
      ],
      "logsBloom": "0x00000000000000000000000000000000000000000000000000000000000000000000000000000000000000000000000000000000000000004000000000000000000000000000000000000008000000000000000000000000000000000000000000000000020000000000000004000800020000000000000000000010000000000000000000000000000000000000000000000000000000000000010000000000000000000000000000000000000000004000000000000000000000000000020000000002000000800000008000000000000000000000080000000000000020000000000000000000000000000000000000000000000000000000000000000000",
      "type": "0x2",
      "transactionHash": "0x16bd71fc76511d1100d7837788dddb3cd9946befa50a0ba8a959de2571ff12fa",
      "transactionIndex": "0x65",
      "blockHash": "0xdd58bad16a0454770d4b925218f398b65ba36a9fcab6ba1eea0d8169bf843bf5",
      "blockNumber": "0x724dae",
      "gasUsed": "0xf82c",
      "effectiveGasPrice": "0x41ae45863",
      "from": "0xc77f7fed3b5cc8249adc428c5f44c9063b9734b4",
      "to": "0x5eb9cc76c3506942c1c0ead70e877dd5e4f00cb0",
      "contractAddress": null
    }
  ],
  "libraries": [],
  "pending": [],
  "returns": {},
  "timestamp": 1736873437,
  "chain": 11155111,
  "commit": "51a374b"
}