{
  "transactions": [
    {
      "hash": "0x0bba21ad741f817d4eefbf8f7adc06204307b360c8f10dcc86de5e29e2f0c857",
      "transactionType": "CALL",
      "contractName": null,
      "contractAddress": "0x8aafd3ede9adb0ff97c7aebce82a919afb1c8764",
      "function": "sell(uint256)",
      "arguments": [
        "8133424798"
      ],
      "transaction": {
        "from": "0xc77f7fed3b5cc8249adc428c5f44c9063b9734b4",
        "to": "0x8aafd3ede9adb0ff97c7aebce82a919afb1c8764",
        "gas": "0x1722a",
        "value": "0x0",
        "input": "0xe4849b3200000000000000000000000000000000000000000000000000000001e4ca369e",
        "nonce": "0x1411",
        "chainId": "0xaa36a7"
      },
      "additionalContracts": [],
      "isFixedGasLimit": false
    }
  ],
  "receipts": [
    {
      "status": "0x1",
      "cumulativeGasUsed": "0x1d146ee",
      "logs": [
        {
          "address": "0x8aafd3ede9adb0ff97c7aebce82a919afb1c8764",
          "topics": [
            "0xddf252ad1be2c89b69c2b068fc378daa952ba7f163c4a11628f55a4df523b3ef",
            "0x000000000000000000000000c77f7fed3b5cc8249adc428c5f44c9063b9734b4",
            "0x0000000000000000000000000000000000000000000000000000000000000000"
          ],
          "data": "0x00000000000000000000000000000000000000000000000000000001e0e95d18",
          "blockHash": "0xbc3cc6b58a3f627aa605c168d139011cff39dde137ed7ece674153e667698abb",
          "blockNumber": "0x731b4c",
          "transactionHash": "0x0bba21ad741f817d4eefbf8f7adc06204307b360c8f10dcc86de5e29e2f0c857",
          "transactionIndex": "0xf3",
          "logIndex": "0x139",
          "removed": false
        },
        {
          "address": "0x8aafd3ede9adb0ff97c7aebce82a919afb1c8764",
          "topics": [
            "0xddf252ad1be2c89b69c2b068fc378daa952ba7f163c4a11628f55a4df523b3ef",
            "0x000000000000000000000000c77f7fed3b5cc8249adc428c5f44c9063b9734b4",
            "0x000000000000000000000000c77f7fed3b5cc8249adc428c5f44c9063b9734b4"
          ],
          "data": "0x0000000000000000000000000000000000000000000000000000000003e0d986",
          "blockHash": "0xbc3cc6b58a3f627aa605c168d139011cff39dde137ed7ece674153e667698abb",
          "blockNumber": "0x731b4c",
          "transactionHash": "0x0bba21ad741f817d4eefbf8f7adc06204307b360c8f10dcc86de5e29e2f0c857",
          "transactionIndex": "0xf3",
          "logIndex": "0x13a",
          "removed": false
        },
        {
          "address": "0x8aafd3ede9adb0ff97c7aebce82a919afb1c8764",
          "topics": [
            "0x4afcb4a87cdbd9974efdb92ee48bc8d7cd0ae4bf217004db3d080cbaee652ca7"
          ],
          "data": "0x0000000000000000000000000000000000000000000000000000000067904460000000000000000000000000000000000000000000000000000e50d2e2eaa3080000000000000000000000000000000000000000000000000000000001f41688",
          "blockHash": "0xbc3cc6b58a3f627aa605c168d139011cff39dde137ed7ece674153e667698abb",
          "blockNumber": "0x731b4c",
          "transactionHash": "0x0bba21ad741f817d4eefbf8f7adc06204307b360c8f10dcc86de5e29e2f0c857",
          "transactionIndex": "0xf3",
          "logIndex": "0x13b",
          "removed": false
        }
      ],
      "logsBloom": "0x00000000000000000000000000000000000000000600000000000000000000000000000000000000000000000000000000000000000000004000000000000000000000000000004000000008000000000000000000000000000000000000000000000000020000000000000000000800020000000000000000000010000000000000000000000000000000000000000000000000000000000000010000000000000000000000000000000000000000004000000000000000000000000000000000000002000000800000000000000000000000000000080000000000000020000000000000000000000000000000000000000000000000000000000000000000",
      "type": "0x2",
      "transactionHash": "0x0bba21ad741f817d4eefbf8f7adc06204307b360c8f10dcc86de5e29e2f0c857",
      "transactionIndex": "0xf3",
      "blockHash": "0xbc3cc6b58a3f627aa605c168d139011cff39dde137ed7ece674153e667698abb",
      "blockNumber": "0x731b4c",
      "gasUsed": "0xfd1b",
      "effectiveGasPrice": "0xbcd581e8",
      "from": "0xc77f7fed3b5cc8249adc428c5f44c9063b9734b4",
      "to": "0x8aafd3ede9adb0ff97c7aebce82a919afb1c8764",
      "contractAddress": null
    }
  ],
  "libraries": [],
  "pending": [],
  "returns": {},
  "timestamp": 1737507937,
  "chain": 11155111,
  "commit": "1d2fb70"
}