{
  "transactions": [
    {
      "hash": "0xa8c21cea1cbd71d21937f8aa2b04f9ac5dc7a9d63cfe45132d3db3bf1bbb4a03",
      "transactionType": "CALL",
      "contractName": null,
      "contractAddress": "0x8aafd3ede9adb0ff97c7aebce82a919afb1c8764",
      "function": "buy(address)",
      "arguments": [
        "0xC77f7fed3b5Cc8249aDc428c5F44C9063B9734b4"
      ],
      "transaction": {
        "from": "0xc77f7fed3b5cc8249adc428c5f44c9063b9734b4",
        "to": "0x8aafd3ede9adb0ff97c7aebce82a919afb1c8764",
        "gas": "0x156ea",
        "value": "0xde0b6b3a7640000",
        "input": "0xf088d547000000000000000000000000c77f7fed3b5cc8249adc428c5f44c9063b9734b4",
        "nonce": "0xe55",
        "chainId": "0xaa36a7"
      },
      "additionalContracts": [],
      "isFixedGasLimit": false
    }
  ],
  "receipts": [
    {
      "status": "0x1",
      "cumulativeGasUsed": "0x1179daf",
      "logs": [
        {
          "address": "0x8aafd3ede9adb0ff97c7aebce82a919afb1c8764",
          "topics": [
            "0xddf252ad1be2c89b69c2b068fc378daa952ba7f163c4a11628f55a4df523b3ef",
            "0x0000000000000000000000000000000000000000000000000000000000000000",
            "0x000000000000000000000000c77f7fed3b5cc8249adc428c5f44c9063b9734b4"
          ],
          "data": "0x0000000000000000000000000000000000000000000000288a01c9dcb7f23ad6",
          "blockHash": "0x444b0a12795aa13baab3f7befbd2e1bd933c865de8a16730b514884eca8c0321",
          "blockNumber": "0x7313a7",
          "transactionHash": "0xa8c21cea1cbd71d21937f8aa2b04f9ac5dc7a9d63cfe45132d3db3bf1bbb4a03",
          "transactionIndex": "0x99",
          "logIndex": "0xd2",
          "removed": false
        },
        {
          "address": "0x8aafd3ede9adb0ff97c7aebce82a919afb1c8764",
          "topics": [
            "0xddf252ad1be2c89b69c2b068fc378daa952ba7f163c4a11628f55a4df523b3ef",
            "0x0000000000000000000000000000000000000000000000000000000000000000",
            "0x000000000000000000000000c77f7fed3b5cc8249adc428c5f44c9063b9734b4"
          ],
          "data": "0x0000000000000000000000000000000000000000000000001f7ae05ce4053525",
          "blockHash": "0x444b0a12795aa13baab3f7befbd2e1bd933c865de8a16730b514884eca8c0321",
          "blockNumber": "0x7313a7",
          "transactionHash": "0xa8c21cea1cbd71d21937f8aa2b04f9ac5dc7a9d63cfe45132d3db3bf1bbb4a03",
          "transactionIndex": "0x99",
          "logIndex": "0xd3",
          "removed": false
        },
        {
          "address": "0x8aafd3ede9adb0ff97c7aebce82a919afb1c8764",
          "topics": [
            "0x4afcb4a87cdbd9974efdb92ee48bc8d7cd0ae4bf217004db3d080cbaee652ca7"
          ],
          "data": "0x00000000000000000000000000000000000000000000000000000000678fe8680000000000000000000000000000000000000000000000000004b429757360730000000000000000000000000000000000000000000000000de0b6b3a7640000",
          "blockHash": "0x444b0a12795aa13baab3f7befbd2e1bd933c865de8a16730b514884eca8c0321",
          "blockNumber": "0x7313a7",
          "transactionHash": "0xa8c21cea1cbd71d21937f8aa2b04f9ac5dc7a9d63cfe45132d3db3bf1bbb4a03",
          "transactionIndex": "0x99",
          "logIndex": "0xd4",
          "removed": false
        }
      ],
      "logsBloom": "0x00000000000000000000000000000000000000000600000000000000000000000000000000000000000000000000000000000000000000004000000000000000000000000000004000000008000000000000000000000000000000000000000000000000020000000000000000000800020000000000000000000010000000000000000000000000000000000000000000000000000000000000010000000000000000000000000000000000000000004000000000000000000000000000000000000002000000800000000000000000000000000000080000000000000020000000000000000000000000000000000000000000000000000000000000000000",
      "type": "0x2",
      "transactionHash": "0xa8c21cea1cbd71d21937f8aa2b04f9ac5dc7a9d63cfe45132d3db3bf1bbb4a03",
      "transactionIndex": "0x99",
      "blockHash": "0x444b0a12795aa13baab3f7befbd2e1bd933c865de8a16730b514884eca8c0321",
      "blockNumber": "0x7313a7",
      "gasUsed": "0xf844",
      "effectiveGasPrice": "0x7d52b82e",
      "from": "0xc77f7fed3b5cc8249adc428c5f44c9063b9734b4",
      "to": "0x8aafd3ede9adb0ff97c7aebce82a919afb1c8764",
      "contractAddress": null
    }
  ],
  "libraries": [],
  "pending": [],
  "returns": {},
  "timestamp": 1737484394,
  "chain": 11155111,
  "commit": "51a374b"
}