{
  "transactions": [
    {
      "hash": "0x91e75a23fa2bf46313f40360f6f76c38bd42ff855ff478d58e299482abff91ca",
      "transactionType": "CALL",
      "contractName": null,
      "contractAddress": "0x270e88f8683660553e8ba4eb2ad7c91a1710d769",
      "function": "sell(uint256)",
      "arguments": [
        "965970346350305344802"
      ],
      "transaction": {
        "from": "0xc77f7fed3b5cc8249adc428c5f44c9063b9734b4",
        "to": "0x270e88f8683660553e8ba4eb2ad7c91a1710d769",
        "gas": "0x16fec",
        "value": "0x0",
        "input": "0xe4849b320000000000000000000000000000000000000000000000345d8810134afffd22",
        "nonce": "0x583",
        "chainId": "0xaa36a7"
      },
      "additionalContracts": [],
      "isFixedGasLimit": false
    }
  ],
  "receipts": [
    {
      "status": "0x1",
      "cumulativeGasUsed": "0x116116e",
      "logs": [
        {
          "address": "0x270e88f8683660553e8ba4eb2ad7c91a1710d769",
          "topics": [
            "0xddf252ad1be2c89b69c2b068fc378daa952ba7f163c4a11628f55a4df523b3ef",
            "0x000000000000000000000000c77f7fed3b5cc8249adc428c5f44c9063b9734b4",
            "0x0000000000000000000000000000000000000000000000000000000000000000"
          ],
          "data": "0x0000000000000000000000000000000000000000000000345d8810134afffd22",
          "blockHash": "0x1870ffbb2789f6961e123f46805c0120a6386112d599191a53198b37b2646d2f",
          "blockNumber": "0x725230",
          "transactionHash": "0x91e75a23fa2bf46313f40360f6f76c38bd42ff855ff478d58e299482abff91ca",
          "transactionIndex": "0x44",
          "logIndex": "0x74",
          "removed": false
        },
        {
          "address": "0x270e88f8683660553e8ba4eb2ad7c91a1710d769",
          "topics": [
            "0x4afcb4a87cdbd9974efdb92ee48bc8d7cd0ae4bf217004db3d080cbaee652ca7"
          ],
          "data": "0x000000000000000000000000000000000000000000000000000000006786cc300000000000000000000000000000000000000000000000000003a73d4c31aa360000000000000000000000000000000000000000000000000dc83fccb9644346",
          "blockHash": "0x1870ffbb2789f6961e123f46805c0120a6386112d599191a53198b37b2646d2f",
          "blockNumber": "0x725230",
          "transactionHash": "0x91e75a23fa2bf46313f40360f6f76c38bd42ff855ff478d58e299482abff91ca",
          "transactionIndex": "0x44",
          "logIndex": "0x75",
          "removed": false
        }
      ],
      "logsBloom": "0x00000000000000000000000000000000000000000000000000000000000000000000000000000000000000000000000020000000000000004000000000000000000000000000000000000008000000000000000000000000000000000000000000000000020000000000000000000800020000000000000000000010000000000000000000010000000000000000000000000000000000000000010000000000000000000000000000000000000000004000000000000000000000000000000000000002000000800000000000000000000000000000080000008000000020000000000000000000000000000000000000000000000000000000000000000000",
      "type": "0x2",
      "transactionHash": "0x91e75a23fa2bf46313f40360f6f76c38bd42ff855ff478d58e299482abff91ca",
      "transactionIndex": "0x44",
      "blockHash": "0x1870ffbb2789f6961e123f46805c0120a6386112d599191a53198b37b2646d2f",
      "blockNumber": "0x725230",
      "gasUsed": "0xfb93",
      "effectiveGasPrice": "0x3e20d44c9",
      "from": "0xc77f7fed3b5cc8249adc428c5f44c9063b9734b4",
      "to": "0x270e88f8683660553e8ba4eb2ad7c91a1710d769",
      "contractAddress": null
    }
  ],
  "libraries": [],
  "pending": [],
  "returns": {},
  "timestamp": 1736887345,
  "chain": 11155111,
  "commit": "51a374b"
}