{
  "transactions": [
    {
      "hash": "0xf6bbaef75c057fa6531b8409944a22c3f4c28582aa177fe430e3b03b97fa7b25",
      "transactionType": "CALL",
      "contractName": null,
      "contractAddress": "0xbf4a322f1496e5c3d34a9bcdb4c60567b38c7de2",
      "function": "buy(address)",
      "arguments": [
        "0xC77f7fed3b5Cc8249aDc428c5F44C9063B9734b4"
      ],
      "transaction": {
        "from": "0xc77f7fed3b5cc8249adc428c5f44c9063b9734b4",
        "to": "0xbf4a322f1496e5c3d34a9bcdb4c60567b38c7de2",
        "gas": "0x1b309",
        "value": "0xde0b6b3a7640000",
        "input": "0xf088d547000000000000000000000000c77f7fed3b5cc8249adc428c5f44c9063b9734b4",
        "nonce": "0x9da",
        "chainId": "0xaa36a7"
      },
      "additionalContracts": [],
      "isFixedGasLimit": false
    }
  ],
  "receipts": [
    {
      "status": "0x1",
      "cumulativeGasUsed": "0xec8bb7",
      "logs": [
        {
          "address": "0xbf4a322f1496e5c3d34a9bcdb4c60567b38c7de2",
          "topics": [
            "0xddf252ad1be2c89b69c2b068fc378daa952ba7f163c4a11628f55a4df523b3ef",
            "0x0000000000000000000000000000000000000000000000000000000000000000",
            "0x000000000000000000000000c77f7fed3b5cc8249adc428c5f44c9063b9734b4"
          ],
          "data": "0x00000000000000000000000000000000000000000000003562611e39c540aeca",
          "blockHash": "0x35b9dc550ff0b82a0c6aeb60e5d140bc07fcfd7a3bb31038443f39a081d79d7c",
          "blockNumber": "0x72598c",
          "transactionHash": "0xf6bbaef75c057fa6531b8409944a22c3f4c28582aa177fe430e3b03b97fa7b25",
          "transactionIndex": "0x66",
          "logIndex": "0xba",
          "removed": false
        },
        {
          "address": "0xbf4a322f1496e5c3d34a9bcdb4c60567b38c7de2",
          "topics": [
            "0xddf252ad1be2c89b69c2b068fc378daa952ba7f163c4a11628f55a4df523b3ef",
            "0x0000000000000000000000000000000000000000000000000000000000000000",
            "0x000000000000000000000000c77f7fed3b5cc8249adc428c5f44c9063b9734b4"
          ],
          "data": "0x000000000000000000000000000000000000000000000000297468e489d3d336",
          "blockHash": "0x35b9dc550ff0b82a0c6aeb60e5d140bc07fcfd7a3bb31038443f39a081d79d7c",
          "blockNumber": "0x72598c",
          "transactionHash": "0xf6bbaef75c057fa6531b8409944a22c3f4c28582aa177fe430e3b03b97fa7b25",
          "transactionIndex": "0x66",
          "logIndex": "0xbb",
          "removed": false
        },
        {
          "address": "0xbf4a322f1496e5c3d34a9bcdb4c60567b38c7de2",
          "topics": [
            "0x4afcb4a87cdbd9974efdb92ee48bc8d7cd0ae4bf217004db3d080cbaee652ca7"
          ],
          "data": "0x00000000000000000000000000000000000000000000000000000000678724c8000000000000000000000000000000000000000000000000000392565c440d810000000000000000000000000000000000000000000000000de0b6b3a7640000",
          "blockHash": "0x35b9dc550ff0b82a0c6aeb60e5d140bc07fcfd7a3bb31038443f39a081d79d7c",
          "blockNumber": "0x72598c",
          "transactionHash": "0xf6bbaef75c057fa6531b8409944a22c3f4c28582aa177fe430e3b03b97fa7b25",
          "transactionIndex": "0x66",
          "logIndex": "0xbc",
          "removed": false
        }
      ],
      "logsBloom": "0x00000000000000000000000000000000000000000000000000000000000000000000000000000000000000000000000000000000000000004000000000000000000000000000000000000008000000000000001000000000000000000000000000000000020000000000000000000800020000000000000000000010000000000000000000000000000000000000000000000000000008000000010000000000000000000000000000000000000000004000000000000000000000000000000000000002000000800000000000001000000000000000080000000000000020000000000000000000000000000000000000000000000000000000000000000000",
      "type": "0x2",
      "transactionHash": "0xf6bbaef75c057fa6531b8409944a22c3f4c28582aa177fe430e3b03b97fa7b25",
      "transactionIndex": "0x66",
      "blockHash": "0x35b9dc550ff0b82a0c6aeb60e5d140bc07fcfd7a3bb31038443f39a081d79d7c",
      "blockNumber": "0x72598c",
      "gasUsed": "0x13af6",
      "effectiveGasPrice": "0x2954d1d66",
      "from": "0xc77f7fed3b5cc8249adc428c5f44c9063b9734b4",
      "to": "0xbf4a322f1496e5c3d34a9bcdb4c60567b38c7de2",
      "contractAddress": null
    }
  ],
  "libraries": [],
  "pending": [],
  "returns": {},
  "timestamp": 1736910026,
  "chain": 11155111,
  "commit": "51a374b"
}