{
  "transactions": [
    {
      "hash": "0x96efba481c7b9e158726a4869ddf155cf07c49394f0019d32f61f9a776b1caa4",
      "transactionType": "CALL",
      "contractName": null,
      "contractAddress": "0x8aafd3ede9adb0ff97c7aebce82a919afb1c8764",
      "function": "sell(uint256)",
      "arguments": [
        "1393676"
      ],
      "transaction": {
        "from": "0xc77f7fed3b5cc8249adc428c5f44c9063b9734b4",
        "to": "0x8aafd3ede9adb0ff97c7aebce82a919afb1c8764",
        "gas": "0x16208",
        "value": "0x0",
        "input": "0xe4849b32000000000000000000000000000000000000000000000000000000000015440c",
        "nonce": "0x12dc",
        "chainId": "0xaa36a7"
      },
      "additionalContracts": [],
      "isFixedGasLimit": false
    }
  ],
  "receipts": [
    {
      "status": "0x1",
      "cumulativeGasUsed": "0xdbf214",
      "logs": [
        {
          "address": "0x8aafd3ede9adb0ff97c7aebce82a919afb1c8764",
          "topics": [
            "0xddf252ad1be2c89b69c2b068fc378daa952ba7f163c4a11628f55a4df523b3ef",
            "0x000000000000000000000000c77f7fed3b5cc8249adc428c5f44c9063b9734b4",
            "0x0000000000000000000000000000000000000000000000000000000000000000"
          ],
          "data": "0x000000000000000000000000000000000000000000000000000000000015187f",
          "blockHash": "0xd74d9ff4a42a4be06ca2ae83025d43c4644ca2ffa55355f7eb9635d0e7bf66f9",
          "blockNumber": "0x7319dc",
          "transactionHash": "0x96efba481c7b9e158726a4869ddf155cf07c49394f0019d32f61f9a776b1caa4",
          "transactionIndex": "0x79",
          "logIndex": "0x86",
          "removed": false
        },
        {
          "address": "0x8aafd3ede9adb0ff97c7aebce82a919afb1c8764",
          "topics": [
            "0xddf252ad1be2c89b69c2b068fc378daa952ba7f163c4a11628f55a4df523b3ef",
            "0x000000000000000000000000c77f7fed3b5cc8249adc428c5f44c9063b9734b4",
            "0x000000000000000000000000c77f7fed3b5cc8249adc428c5f44c9063b9734b4"
          ],
          "data": "0x0000000000000000000000000000000000000000000000000000000000002b8d",
          "blockHash": "0xd74d9ff4a42a4be06ca2ae83025d43c4644ca2ffa55355f7eb9635d0e7bf66f9",
          "blockNumber": "0x7319dc",
          "transactionHash": "0x96efba481c7b9e158726a4869ddf155cf07c49394f0019d32f61f9a776b1caa4",
          "transactionIndex": "0x79",
          "logIndex": "0x87",
          "removed": false
        },
        {
          "address": "0x8aafd3ede9adb0ff97c7aebce82a919afb1c8764",
          "topics": [
            "0x4afcb4a87cdbd9974efdb92ee48bc8d7cd0ae4bf217004db3d080cbaee652ca7"
          ],
          "data": "0x0000000000000000000000000000000000000000000000000000000067903320000000000000000000000000000000000000000000000000000550735e5f9e220000000000000000000000000000000000000000000000000000000000000824",
          "blockHash": "0xd74d9ff4a42a4be06ca2ae83025d43c4644ca2ffa55355f7eb9635d0e7bf66f9",
          "blockNumber": "0x7319dc",
          "transactionHash": "0x96efba481c7b9e158726a4869ddf155cf07c49394f0019d32f61f9a776b1caa4",
          "transactionIndex": "0x79",
          "logIndex": "0x88",
          "removed": false
        }
      ],
      "logsBloom": "0x00000000000000000000000000000000000000000600000000000000000000000000000000000000000000000000000000000000000000004000000000000000000000000000004000000008000000000000000000000000000000000000000000000000020000000000000000000800020000000000000000000010000000000000000000000000000000000000000000000000000000000000010000000000000000000000000000000000000000004000000000000000000000000000000000000002000000800000000000000000000000000000080000000000000020000000000000000000000000000000000000000000000000000000000000000000",
      "type": "0x2",
      "transactionHash": "0x96efba481c7b9e158726a4869ddf155cf07c49394f0019d32f61f9a776b1caa4",
      "transactionIndex": "0x79",
      "blockHash": "0xd74d9ff4a42a4be06ca2ae83025d43c4644ca2ffa55355f7eb9635d0e7bf66f9",
      "blockNumber": "0x7319dc",
      "gasUsed": "0xf213",
      "effectiveGasPrice": "0x43b93190",
      "from": "0xc77f7fed3b5cc8249adc428c5f44c9063b9734b4",
      "to": "0x8aafd3ede9adb0ff97c7aebce82a919afb1c8764",
      "contractAddress": null
    }
  ],
  "libraries": [],
  "pending": [],
  "returns": {},
  "timestamp": 1737503521,
  "chain": 11155111,
  "commit": "1d2fb70"
}