{
  "transactions": [
    {
      "hash": "0xdf39fe3c13ff325cacc72c3dd778c332db51a7f47fa6c3b2bc89070f12172b8c",
      "transactionType": "CALL",
      "contractName": null,
      "contractAddress": "0xd733d32bbc32b9da11d0a266572d231cd445ea4a",
      "function": "borrow(uint256,uint256)",
      "arguments": [
        "110649900278",
        "0"
      ],
      "transaction": {
        "from": "0xc77f7fed3b5cc8249adc428c5f44c9063b9734b4",
        "to": "0xd733d32bbc32b9da11d0a266572d231cd445ea4a",
        "gas": "0x36fab",
        "value": "0x0",
        "input": "0x0ecbcdab00000000000000000000000000000000000000000000000000000019c33f7cf60000000000000000000000000000000000000000000000000000000000000000",
        "nonce": "0x193e",
        "chainId": "0xaa36a7"
      },
      "additionalContracts": [],
      "isFixedGasLimit": false
    }
  ],
  "receipts": [
    {
      "status": "0x1",
      "cumulativeGasUsed": "0x79223c",
      "logs": [
        {
          "address": "0xd733d32bbc32b9da11d0a266572d231cd445ea4a",
          "topics": [
            "0xddf252ad1be2c89b69c2b068fc378daa952ba7f163c4a11628f55a4df523b3ef",
            "0x000000000000000000000000c77f7fed3b5cc8249adc428c5f44c9063b9734b4",
            "0x000000000000000000000000d733d32bbc32b9da11d0a266572d231cd445ea4a"
          ],
          "data": "0x0000000000000000000000000000000000000000000000000000000000000000",
          "blockHash": "0x72d2abf89a7310161e657ee6d3836c253fda879e0c68f289d64882445f1fd6bd",
          "blockNumber": "0x739c6f",
          "transactionHash": "0xdf39fe3c13ff325cacc72c3dd778c332db51a7f47fa6c3b2bc89070f12172b8c",
          "transactionIndex": "0x5c",
          "logIndex": "0xb5",
          "removed": false
        },
        {
          "address": "0xd733d32bbc32b9da11d0a266572d231cd445ea4a",
          "topics": [
            "0x03bbe564cb1b78e43195eeadbde99e5b89b19345862807fcfb59f884e4165e25"
          ],
          "data": "0x00000000000000000000000038818e389773445cd73adbaa37b8b169f458c6e10000000000000000000000000000000000000000000000000000000001fa83da",
          "blockHash": "0x72d2abf89a7310161e657ee6d3836c253fda879e0c68f289d64882445f1fd6bd",
          "blockNumber": "0x739c6f",
          "transactionHash": "0xdf39fe3c13ff325cacc72c3dd778c332db51a7f47fa6c3b2bc89070f12172b8c",
          "transactionIndex": "0x5c",
          "logIndex": "0xb6",
          "removed": false
        },
        {
          "address": "0xd733d32bbc32b9da11d0a266572d231cd445ea4a",
          "topics": [
            "0x03bbe564cb1b78e43195eeadbde99e5b89b19345862807fcfb59f884e4165e25"
          ],
          "data": "0x000000000000000000000000c77f7fed3b5cc8249adc428c5f44c9063b9734b4000000000000000000000000000000000000000000000000000000197ab3450f",
          "blockHash": "0x72d2abf89a7310161e657ee6d3836c253fda879e0c68f289d64882445f1fd6bd",
          "blockNumber": "0x739c6f",
          "transactionHash": "0xdf39fe3c13ff325cacc72c3dd778c332db51a7f47fa6c3b2bc89070f12172b8c",
          "transactionIndex": "0x5c",
          "logIndex": "0xb7",
          "removed": false
        },
        {
          "address": "0xd733d32bbc32b9da11d0a266572d231cd445ea4a",
          "topics": [
            "0xaec00f5213a37254bc68a26b0685d1a5b2bf513e1e587c94c7df7f4a62b56c9c"
          ],
          "data": "0x000000000000000000000000000000000000000000000000000000000000000000000000000000000000000000000000000000000000000000000019814ba73b00000000000000000000000000000000000000000000000000000019814ba73b0000000000000000000000000000000000000000000000000000000000000000",
          "blockHash": "0x72d2abf89a7310161e657ee6d3836c253fda879e0c68f289d64882445f1fd6bd",
          "blockNumber": "0x739c6f",
          "transactionHash": "0xdf39fe3c13ff325cacc72c3dd778c332db51a7f47fa6c3b2bc89070f12172b8c",
          "transactionIndex": "0x5c",
          "logIndex": "0xb8",
          "removed": false
        },
        {
          "address": "0xd733d32bbc32b9da11d0a266572d231cd445ea4a",
          "topics": [
            "0x4afcb4a87cdbd9974efdb92ee48bc8d7cd0ae4bf217004db3d080cbaee652ca7"
          ],
          "data": "0x0000000000000000000000000000000000000000000000000000000067968bf40000000000000000000000000000000000000001658773c9d36d6e9e78ed8587000000000000000000000000000000000000000000000000000000000698622c",
          "blockHash": "0x72d2abf89a7310161e657ee6d3836c253fda879e0c68f289d64882445f1fd6bd",
          "blockNumber": "0x739c6f",
          "transactionHash": "0xdf39fe3c13ff325cacc72c3dd778c332db51a7f47fa6c3b2bc89070f12172b8c",
          "transactionIndex": "0x5c",
          "logIndex": "0xb9",
          "removed": false
        }
      ],
      "logsBloom": "0x00000000000000020000000000000100400000000000000000000000000000000008000000000000000000000000000000002000000000004000000000000000000000000000000000000008000000000000000000000000000000000000000000000000000000000000000000000000020000000000000000000010000000000000000000000000000000000000000000000000000000000000010000000000000000000000000000000400000000004000000000000000000000001000020000040002000000800000000000000000000000000000080000000000000000100000000000000000000000000080000000000000000000000000008000000000",
      "type": "0x2",
      "transactionHash": "0xdf39fe3c13ff325cacc72c3dd778c332db51a7f47fa6c3b2bc89070f12172b8c",
      "transactionIndex": "0x5c",
      "blockHash": "0x72d2abf89a7310161e657ee6d3836c253fda879e0c68f289d64882445f1fd6bd",
      "blockNumber": "0x739c6f",
      "gasUsed": "0x27cde",
      "effectiveGasPrice": "0x1428aa950",
      "from": "0xc77f7fed3b5cc8249adc428c5f44c9063b9734b4",
      "to": "0xd733d32bbc32b9da11d0a266572d231cd445ea4a",
      "contractAddress": null
    }
  ],
  "libraries": [],
  "pending": [],
  "returns": {},
  "timestamp": 1737919477,
  "chain": 11155111,
  "commit": "f5162e9"
}