{
  "transactions": [
    {
      "hash": "0xc7b6144e1a8f64ae2719663d39d87d71c859709ba029c3f52999e227cfd2e995",
      "transactionType": "CALL",
      "contractName": null,
      "contractAddress": "0x8aafd3ede9adb0ff97c7aebce82a919afb1c8764",
      "function": "sell(uint256)",
      "arguments": [
        "524325"
      ],
      "transaction": {
        "from": "0xc77f7fed3b5cc8249adc428c5f44c9063b9734b4",
        "to": "0x8aafd3ede9adb0ff97c7aebce82a919afb1c8764",
        "gas": "0x14e4c",
        "value": "0x0",
        "input": "0xe4849b320000000000000000000000000000000000000000000000000000000000080025",
        "nonce": "0x140a",
        "chainId": "0xaa36a7"
      },
      "additionalContracts": [],
      "isFixedGasLimit": false
    }
  ],
  "receipts": [
    {
      "status": "0x1",
      "cumulativeGasUsed": "0x131b02e",
      "logs": [
        {
          "address": "0x8aafd3ede9adb0ff97c7aebce82a919afb1c8764",
          "topics": [
            "0xddf252ad1be2c89b69c2b068fc378daa952ba7f163c4a11628f55a4df523b3ef",
            "0x000000000000000000000000c77f7fed3b5cc8249adc428c5f44c9063b9734b4",
            "0x0000000000000000000000000000000000000000000000000000000000000000"
          ],
          "data": "0x000000000000000000000000000000000000000000000000000000000007efc3",
          "blockHash": "0x4d4db64386425b8ac8181e5da04e7990201d9fa7f2dbd634952d3fcefca55708",
          "blockNumber": "0x731b44",
          "transactionHash": "0xc7b6144e1a8f64ae2719663d39d87d71c859709ba029c3f52999e227cfd2e995",
          "transactionIndex": "0xa2",
          "logIndex": "0x6f",
          "removed": false
        },
        {
          "address": "0x8aafd3ede9adb0ff97c7aebce82a919afb1c8764",
          "topics": [
            "0xddf252ad1be2c89b69c2b068fc378daa952ba7f163c4a11628f55a4df523b3ef",
            "0x000000000000000000000000c77f7fed3b5cc8249adc428c5f44c9063b9734b4",
            "0x000000000000000000000000c77f7fed3b5cc8249adc428c5f44c9063b9734b4"
          ],
          "data": "0x0000000000000000000000000000000000000000000000000000000000001062",
          "blockHash": "0x4d4db64386425b8ac8181e5da04e7990201d9fa7f2dbd634952d3fcefca55708",
          "blockNumber": "0x731b44",
          "transactionHash": "0xc7b6144e1a8f64ae2719663d39d87d71c859709ba029c3f52999e227cfd2e995",
          "transactionIndex": "0xa2",
          "logIndex": "0x70",
          "removed": false
        },
        {
          "address": "0x8aafd3ede9adb0ff97c7aebce82a919afb1c8764",
          "topics": [
            "0x4afcb4a87cdbd9974efdb92ee48bc8d7cd0ae4bf217004db3d080cbaee652ca7"
          ],
          "data": "0x0000000000000000000000000000000000000000000000000000000067904400000000000000000000000000000000000000000000000000000e368a5ef5b0c70000000000000000000000000000000000000000000000000000000000000831",
          "blockHash": "0x4d4db64386425b8ac8181e5da04e7990201d9fa7f2dbd634952d3fcefca55708",
          "blockNumber": "0x731b44",
          "transactionHash": "0xc7b6144e1a8f64ae2719663d39d87d71c859709ba029c3f52999e227cfd2e995",
          "transactionIndex": "0xa2",
          "logIndex": "0x71",
          "removed": false
        }
      ],
      "logsBloom": "0x00000000000000000000000000000000000000000600000000000000000000000000000000000000000000000000000000000000000000004000000000000000000000000000004000000008000000000000000000000000000000000000000000000000020000000000000000000800020000000000000000000010000000000000000000000000000000000000000000000000000000000000010000000000000000000000000000000000000000004000000000000000000000000000000000000002000000800000000000000000000000000000080000000000000020000000000000000000000000000000000000000000000000000000000000000000",
      "type": "0x2",
      "transactionHash": "0xc7b6144e1a8f64ae2719663d39d87d71c859709ba029c3f52999e227cfd2e995",
      "transactionIndex": "0xa2",
      "blockHash": "0x4d4db64386425b8ac8181e5da04e7990201d9fa7f2dbd634952d3fcefca55708",
      "blockNumber": "0x731b44",
      "gasUsed": "0xf207",
      "effectiveGasPrice": "0xc3106bbf",
      "from": "0xc77f7fed3b5cc8249adc428c5f44c9063b9734b4",
      "to": "0x8aafd3ede9adb0ff97c7aebce82a919afb1c8764",
      "contractAddress": null
    }
  ],
  "libraries": [],
  "pending": [],
  "returns": {},
  "timestamp": 1737507841,
  "chain": 11155111,
  "commit": "1d2fb70"
}