{
  "transactions": [
    {
      "hash": "0xc5d5d36c02003a3212b4cd6f23256b16fb874f386c1e004a7622ebd613b4e64b",
      "transactionType": "CALL",
      "contractName": null,
      "contractAddress": "0x8aafd3ede9adb0ff97c7aebce82a919afb1c8764",
      "function": "sell(uint256)",
      "arguments": [
        "267487799768029069032"
      ],
      "transaction": {
        "from": "0xc77f7fed3b5cc8249adc428c5f44c9063b9734b4",
        "to": "0x8aafd3ede9adb0ff97c7aebce82a919afb1c8764",
        "gas": "0x17270",
        "value": "0x0",
        "input": "0xe4849b3200000000000000000000000000000000000000000000000e802390ad8c2ffee8",
        "nonce": "0x13b2",
        "chainId": "0xaa36a7"
      },
      "additionalContracts": [],
      "isFixedGasLimit": false
    }
  ],
  "receipts": [
    {
      "status": "0x1",
      "cumulativeGasUsed": "0x788c9c",
      "logs": [
        {
          "address": "0x8aafd3ede9adb0ff97c7aebce82a919afb1c8764",
          "topics": [
            "0xddf252ad1be2c89b69c2b068fc378daa952ba7f163c4a11628f55a4df523b3ef",
            "0x000000000000000000000000c77f7fed3b5cc8249adc428c5f44c9063b9734b4",
            "0x0000000000000000000000000000000000000000000000000000000000000000"
          ],
          "data": "0x00000000000000000000000000000000000000000000000e62711ac8d4cb4280",
          "blockHash": "0xc14d843955aac7d0b9991e75054d54659856a38ea2e057297481aadb30fd6425",
          "blockNumber": "0x731ada",
          "transactionHash": "0xc5d5d36c02003a3212b4cd6f23256b16fb874f386c1e004a7622ebd613b4e64b",
          "transactionIndex": "0x4f",
          "logIndex": "0x59",
          "removed": false
        },
        {
          "address": "0x8aafd3ede9adb0ff97c7aebce82a919afb1c8764",
          "topics": [
            "0xddf252ad1be2c89b69c2b068fc378daa952ba7f163c4a11628f55a4df523b3ef",
            "0x000000000000000000000000c77f7fed3b5cc8249adc428c5f44c9063b9734b4",
            "0x000000000000000000000000c77f7fed3b5cc8249adc428c5f44c9063b9734b4"
          ],
          "data": "0x0000000000000000000000000000000000000000000000001db275e4b764bc68",
          "blockHash": "0xc14d843955aac7d0b9991e75054d54659856a38ea2e057297481aadb30fd6425",
          "blockNumber": "0x731ada",
          "transactionHash": "0xc5d5d36c02003a3212b4cd6f23256b16fb874f386c1e004a7622ebd613b4e64b",
          "transactionIndex": "0x4f",
          "logIndex": "0x5a",
          "removed": false
        },
        {
          "address": "0x8aafd3ede9adb0ff97c7aebce82a919afb1c8764",
          "topics": [
            "0x4afcb4a87cdbd9974efdb92ee48bc8d7cd0ae4bf217004db3d080cbaee652ca7"
          ],
          "data": "0x0000000000000000000000000000000000000000000000000000000067903f08000000000000000000000000000000000000000000000000000d4a5931b719180000000000000000000000000000000000000000000000000dce4130d88d0bc3",
          "blockHash": "0xc14d843955aac7d0b9991e75054d54659856a38ea2e057297481aadb30fd6425",
          "blockNumber": "0x731ada",
          "transactionHash": "0xc5d5d36c02003a3212b4cd6f23256b16fb874f386c1e004a7622ebd613b4e64b",
          "transactionIndex": "0x4f",
          "logIndex": "0x5b",
          "removed": false
        }
      ],
      "logsBloom": "0x00000000000000000000000000000000000000000600000000000000000000000000000000000000000000000000000000000000000000004000000000000000000000000000004000000008000000000000000000000000000000000000000000000000020000000000000000000800020000000000000000000010000000000000000000000000000000000000000000000000000000000000010000000000000000000000000000000000000000004000000000000000000000000000000000000002000000800000000000000000000000000000080000000000000020000000000000000000000000000000000000000000000000000000000000000000",
      "type": "0x2",
      "transactionHash": "0xc5d5d36c02003a3212b4cd6f23256b16fb874f386c1e004a7622ebd613b4e64b",
      "transactionIndex": "0x4f",
      "blockHash": "0xc14d843955aac7d0b9991e75054d54659856a38ea2e057297481aadb30fd6425",
      "blockNumber": "0x731ada",
      "gasUsed": "0xfd4b",
      "effectiveGasPrice": "0x88ceffbf",
      "from": "0xc77f7fed3b5cc8249adc428c5f44c9063b9734b4",
      "to": "0x8aafd3ede9adb0ff97c7aebce82a919afb1c8764",
      "contractAddress": null
    }
  ],
  "libraries": [],
  "pending": [],
  "returns": {},
  "timestamp": 1737506571,
  "chain": 11155111,
  "commit": "1d2fb70"
}