{
  "transactions": [
    {
      "hash": "0xf7d3f67cc705e18aab86e5a438d0035443b2a16541aab12fc55c529cf2db7372",
      "transactionType": "CALL",
      "contractName": null,
      "contractAddress": "0x8aafd3ede9adb0ff97c7aebce82a919afb1c8764",
      "function": "sell(uint256)",
      "arguments": [
        "2818464007027"
      ],
      "transaction": {
        "from": "0xc77f7fed3b5cc8249adc428c5f44c9063b9734b4",
        "to": "0x8aafd3ede9adb0ff97c7aebce82a919afb1c8764",
        "gas": "0x15daa",
        "value": "0x0",
        "input": "0xe4849b3200000000000000000000000000000000000000000000000000000290398bc373",
        "nonce": "0x1199",
        "chainId": "0xaa36a7"
      },
      "additionalContracts": [],
      "isFixedGasLimit": false
    }
  ],
  "receipts": [
    {
      "status": "0x1",
      "cumulativeGasUsed": "0xbc8681",
      "logs": [
        {
          "address": "0x8aafd3ede9adb0ff97c7aebce82a919afb1c8764",
          "topics": [
            "0xddf252ad1be2c89b69c2b068fc378daa952ba7f163c4a11628f55a4df523b3ef",
            "0x000000000000000000000000c77f7fed3b5cc8249adc428c5f44c9063b9734b4",
            "0x0000000000000000000000000000000000000000000000000000000000000000"
          ],
          "data": "0x0000000000000000000000000000000000000000000000000000028af998fb3b",
          "blockHash": "0x85a013d61e2137606107ae89ea816509f8f5efcc3f54d4f26edbf7f40f6764a7",
          "blockNumber": "0x731860",
          "transactionHash": "0xf7d3f67cc705e18aab86e5a438d0035443b2a16541aab12fc55c529cf2db7372",
          "transactionIndex": "0x90",
          "logIndex": "0xe1",
          "removed": false
        },
        {
          "address": "0x8aafd3ede9adb0ff97c7aebce82a919afb1c8764",
          "topics": [
            "0xddf252ad1be2c89b69c2b068fc378daa952ba7f163c4a11628f55a4df523b3ef",
            "0x000000000000000000000000c77f7fed3b5cc8249adc428c5f44c9063b9734b4",
            "0x000000000000000000000000c77f7fed3b5cc8249adc428c5f44c9063b9734b4"
          ],
          "data": "0x000000000000000000000000000000000000000000000000000000053ff2c838",
          "blockHash": "0x85a013d61e2137606107ae89ea816509f8f5efcc3f54d4f26edbf7f40f6764a7",
          "blockNumber": "0x731860",
          "transactionHash": "0xf7d3f67cc705e18aab86e5a438d0035443b2a16541aab12fc55c529cf2db7372",
          "transactionIndex": "0x90",
          "logIndex": "0xe2",
          "removed": false
        },
        {
          "address": "0x8aafd3ede9adb0ff97c7aebce82a919afb1c8764",
          "topics": [
            "0x4afcb4a87cdbd9974efdb92ee48bc8d7cd0ae4bf217004db3d080cbaee652ca7"
          ],
          "data": "0x0000000000000000000000000000000000000000000000000000000067902150000000000000000000000000000000000000000000000000000521f30ef397b900000000000000000000000000000000000000000000000000000000f2b362f3",
          "blockHash": "0x85a013d61e2137606107ae89ea816509f8f5efcc3f54d4f26edbf7f40f6764a7",
          "blockNumber": "0x731860",
          "transactionHash": "0xf7d3f67cc705e18aab86e5a438d0035443b2a16541aab12fc55c529cf2db7372",
          "transactionIndex": "0x90",
          "logIndex": "0xe3",
          "removed": false
        }
      ],
      "logsBloom": "0x00000000000000000000000000000000000000000600000000000000000000000000000000000000000000000000000000000000000000004000000000000000000000000000004000000008000000000000000000000000000000000000000000000000020000000000000000000800020000000000000000000010000000000000000000000000000000000000000000000000000000000000010000000000000000000000000000000000000000004000000000000000000000000000000000000002000000800000000000000000000000000000080000000000000020000000000000000000000000000000000000000000000000000000000000000000",
      "type": "0x2",
      "transactionHash": "0xf7d3f67cc705e18aab86e5a438d0035443b2a16541aab12fc55c529cf2db7372",
      "transactionIndex": "0x90",
      "blockHash": "0x85a013d61e2137606107ae89ea816509f8f5efcc3f54d4f26edbf7f40f6764a7",
      "blockNumber": "0x731860",
      "gasUsed": "0xfd27",
      "effectiveGasPrice": "0x33070a12",
      "from": "0xc77f7fed3b5cc8249adc428c5f44c9063b9734b4",
      "to": "0x8aafd3ede9adb0ff97c7aebce82a919afb1c8764",
      "contractAddress": null
    }
  ],
  "libraries": [],
  "pending": [],
  "returns": {},
  "timestamp": 1737498961,
  "chain": 11155111,
  "commit": "1d2fb70"
}