{
  "transactions": [
    {
      "hash": "0xd83627240c4435e5d126e5c8783d74bd44c8ff1642cfc928d1cc5b01c824a4fa",
      "transactionType": "CALL",
      "contractName": null,
      "contractAddress": "0x8aafd3ede9adb0ff97c7aebce82a919afb1c8764",
      "function": "sell(uint256)",
      "arguments": [
        "8565799920"
      ],
      "transaction": {
        "from": "0xc77f7fed3b5cc8249adc428c5f44c9063b9734b4",
        "to": "0x8aafd3ede9adb0ff97c7aebce82a919afb1c8764",
        "gas": "0x1722a",
        "value": "0x0",
        "input": "0xe4849b3200000000000000000000000000000000000000000000000000000001fe8fbbf0",
        "nonce": "0x13d2",
        "chainId": "0xaa36a7"
      },
      "additionalContracts": [],
      "isFixedGasLimit": false
    }
  ],
  "receipts": [
    {
      "status": "0x1",
      "cumulativeGasUsed": "0x15222e3",
      "logs": [
        {
          "address": "0x8aafd3ede9adb0ff97c7aebce82a919afb1c8764",
          "topics": [
            "0xddf252ad1be2c89b69c2b068fc378daa952ba7f163c4a11628f55a4df523b3ef",
            "0x000000000000000000000000c77f7fed3b5cc8249adc428c5f44c9063b9734b4",
            "0x0000000000000000000000000000000000000000000000000000000000000000"
          ],
          "data": "0x00000000000000000000000000000000000000000000000000000001fa7a1ab1",
          "blockHash": "0xd75dcac9acfdc1b1092e6a42b6573affe52d9c4d443639c512c2afdeabbce025",
          "blockNumber": "0x731aff",
          "transactionHash": "0xd83627240c4435e5d126e5c8783d74bd44c8ff1642cfc928d1cc5b01c824a4fa",
          "transactionIndex": "0xb1",
          "logIndex": "0xb6",
          "removed": false
        },
        {
          "address": "0x8aafd3ede9adb0ff97c7aebce82a919afb1c8764",
          "topics": [
            "0xddf252ad1be2c89b69c2b068fc378daa952ba7f163c4a11628f55a4df523b3ef",
            "0x000000000000000000000000c77f7fed3b5cc8249adc428c5f44c9063b9734b4",
            "0x000000000000000000000000c77f7fed3b5cc8249adc428c5f44c9063b9734b4"
          ],
          "data": "0x000000000000000000000000000000000000000000000000000000000415a13f",
          "blockHash": "0xd75dcac9acfdc1b1092e6a42b6573affe52d9c4d443639c512c2afdeabbce025",
          "blockNumber": "0x731aff",
          "transactionHash": "0xd83627240c4435e5d126e5c8783d74bd44c8ff1642cfc928d1cc5b01c824a4fa",
          "transactionIndex": "0xb1",
          "logIndex": "0xb7",
          "removed": false
        },
        {
          "address": "0x8aafd3ede9adb0ff97c7aebce82a919afb1c8764",
          "topics": [
            "0x4afcb4a87cdbd9974efdb92ee48bc8d7cd0ae4bf217004db3d080cbaee652ca7"
          ],
          "data": "0x00000000000000000000000000000000000000000000000000000000679040c4000000000000000000000000000000000000000000000000000d991499f131950000000000000000000000000000000000000000000000000000000001f4445c",
          "blockHash": "0xd75dcac9acfdc1b1092e6a42b6573affe52d9c4d443639c512c2afdeabbce025",
          "blockNumber": "0x731aff",
          "transactionHash": "0xd83627240c4435e5d126e5c8783d74bd44c8ff1642cfc928d1cc5b01c824a4fa",
          "transactionIndex": "0xb1",
          "logIndex": "0xb8",
          "removed": false
        }
      ],
      "logsBloom": "0x00000000000000000000000000000000000000000600000000000000000000000000000000000000000000000000000000000000000000004000000000000000000000000000004000000008000000000000000000000000000000000000000000000000020000000000000000000800020000000000000000000010000000000000000000000000000000000000000000000000000000000000010000000000000000000000000000000000000000004000000000000000000000000000000000000002000000800000000000000000000000000000080000000000000020000000000000000000000000000000000000000000000000000000000000000000",
      "type": "0x2",
      "transactionHash": "0xd83627240c4435e5d126e5c8783d74bd44c8ff1642cfc928d1cc5b01c824a4fa",
      "transactionIndex": "0xb1",
      "blockHash": "0xd75dcac9acfdc1b1092e6a42b6573affe52d9c4d443639c512c2afdeabbce025",
      "blockNumber": "0x731aff",
      "gasUsed": "0xfd1b",
      "effectiveGasPrice": "0x7d268e5c",
      "from": "0xc77f7fed3b5cc8249adc428c5f44c9063b9734b4",
      "to": "0x8aafd3ede9adb0ff97c7aebce82a919afb1c8764",
      "contractAddress": null
    }
  ],
  "libraries": [],
  "pending": [],
  "returns": {},
  "timestamp": 1737507013,
  "chain": 11155111,
  "commit": "1d2fb70"
}