{
  "transactions": [
    {
      "hash": "0xe944de946adadf94d5916dcc2d1c4d53aa63292617b66fc83301a50ef66312fe",
      "transactionType": "CALL",
      "contractName": null,
      "contractAddress": "0x8aafd3ede9adb0ff97c7aebce82a919afb1c8764",
      "function": "sell(uint256)",
      "arguments": [
        "11647"
      ],
      "transaction": {
        "from": "0xc77f7fed3b5cc8249adc428c5f44c9063b9734b4",
        "to": "0x8aafd3ede9adb0ff97c7aebce82a919afb1c8764",
        "gas": "0x14e4c",
        "value": "0x0",
        "input": "0xe4849b320000000000000000000000000000000000000000000000000000000000002d7f",
        "nonce": "0x114d",
        "chainId": "0xaa36a7"
      },
      "additionalContracts": [],
      "isFixedGasLimit": false
    }
  ],
  "receipts": [
    {
      "status": "0x1",
      "cumulativeGasUsed": "0xd5e2aa",
      "logs": [
        {
          "address": "0x8aafd3ede9adb0ff97c7aebce82a919afb1c8764",
          "topics": [
            "0xddf252ad1be2c89b69c2b068fc378daa952ba7f163c4a11628f55a4df523b3ef",
            "0x000000000000000000000000c77f7fed3b5cc8249adc428c5f44c9063b9734b4",
            "0x0000000000000000000000000000000000000000000000000000000000000000"
          ],
          "data": "0x0000000000000000000000000000000000000000000000000000000000002d22",
          "blockHash": "0xc594ed2d7a0ccc61cb3ab67ef3947e361bbf2b14d9e5af1751a32285d24e797e",
          "blockNumber": "0x731806",
          "transactionHash": "0xe944de946adadf94d5916dcc2d1c4d53aa63292617b66fc83301a50ef66312fe",
          "transactionIndex": "0x8b",
          "logIndex": "0xd0",
          "removed": false
        },
        {
          "address": "0x8aafd3ede9adb0ff97c7aebce82a919afb1c8764",
          "topics": [
            "0xddf252ad1be2c89b69c2b068fc378daa952ba7f163c4a11628f55a4df523b3ef",
            "0x000000000000000000000000c77f7fed3b5cc8249adc428c5f44c9063b9734b4",
            "0x000000000000000000000000c77f7fed3b5cc8249adc428c5f44c9063b9734b4"
          ],
          "data": "0x000000000000000000000000000000000000000000000000000000000000005d",
          "blockHash": "0xc594ed2d7a0ccc61cb3ab67ef3947e361bbf2b14d9e5af1751a32285d24e797e",
          "blockNumber": "0x731806",
          "transactionHash": "0xe944de946adadf94d5916dcc2d1c4d53aa63292617b66fc83301a50ef66312fe",
          "transactionIndex": "0x8b",
          "logIndex": "0xd1",
          "removed": false
        },
        {
          "address": "0x8aafd3ede9adb0ff97c7aebce82a919afb1c8764",
          "topics": [
            "0x4afcb4a87cdbd9974efdb92ee48bc8d7cd0ae4bf217004db3d080cbaee652ca7"
          ],
          "data": "0x0000000000000000000000000000000000000000000000000000000067901d0c00000000000000000000000000000000000000000000000000051653cb011b370000000000000000000000000000000000000000000000000000000000000010",
          "blockHash": "0xc594ed2d7a0ccc61cb3ab67ef3947e361bbf2b14d9e5af1751a32285d24e797e",
          "blockNumber": "0x731806",
          "transactionHash": "0xe944de946adadf94d5916dcc2d1c4d53aa63292617b66fc83301a50ef66312fe",
          "transactionIndex": "0x8b",
          "logIndex": "0xd2",
          "removed": false
        }
      ],
      "logsBloom": "0x00000000000000000000000000000000000000000600000000000000000000000000000000000000000000000000000000000000000000004000000000000000000000000000004000000008000000000000000000000000000000000000000000000000020000000000000000000800020000000000000000000010000000000000000000000000000000000000000000000000000000000000010000000000000000000000000000000000000000004000000000000000000000000000000000000002000000800000000000000000000000000000080000000000000020000000000000000000000000000000000000000000000000000000000000000000",
      "type": "0x2",
      "transactionHash": "0xe944de946adadf94d5916dcc2d1c4d53aa63292617b66fc83301a50ef66312fe",
      "transactionIndex": "0x8b",
      "blockHash": "0xc594ed2d7a0ccc61cb3ab67ef3947e361bbf2b14d9e5af1751a32285d24e797e",
      "blockNumber": "0x731806",
      "gasUsed": "0xf207",
      "effectiveGasPrice": "0x3ffb1a0b",
      "from": "0xc77f7fed3b5cc8249adc428c5f44c9063b9734b4",
      "to": "0x8aafd3ede9adb0ff97c7aebce82a919afb1c8764",
      "contractAddress": null
    }
  ],
  "libraries": [],
  "pending": [],
  "returns": {},
  "timestamp": 1737497869,
  "chain": 11155111,
  "commit": "1d2fb70"
}