{
  "transactions": [
    {
      "hash": "0x42c3d77b767b89bd0a41a683e788557956558fddaa84e77d8265ff7495678ff9",
      "transactionType": "CALL",
      "contractName": null,
      "contractAddress": "0x8aafd3ede9adb0ff97c7aebce82a919afb1c8764",
      "function": "sell(uint256)",
      "arguments": [
        "356533"
      ],
      "transaction": {
        "from": "0xc77f7fed3b5cc8249adc428c5f44c9063b9734b4",
        "to": "0x8aafd3ede9adb0ff97c7aebce82a919afb1c8764",
        "gas": "0x16208",
        "value": "0x0",
        "input": "0xe4849b3200000000000000000000000000000000000000000000000000000000000570b5",
        "nonce": "0x164a",
        "chainId": "0xaa36a7"
      },
      "additionalContracts": [],
      "isFixedGasLimit": false
    }
  ],
  "receipts": [
    {
      "status": "0x1",
      "cumulativeGasUsed": "0xc5d356",
      "logs": [
        {
          "address": "0x8aafd3ede9adb0ff97c7aebce82a919afb1c8764",
          "topics": [
            "0xddf252ad1be2c89b69c2b068fc378daa952ba7f163c4a11628f55a4df523b3ef",
            "0x000000000000000000000000c77f7fed3b5cc8249adc428c5f44c9063b9734b4",
            "0x0000000000000000000000000000000000000000000000000000000000000000"
          ],
          "data": "0x0000000000000000000000000000000000000000000000000000000000056591",
          "blockHash": "0x7d04bba62b299c65357a6910fe4193d15f59905d6167c844851d0ec657937c9f",
          "blockNumber": "0x731de4",
          "transactionHash": "0x42c3d77b767b89bd0a41a683e788557956558fddaa84e77d8265ff7495678ff9",
          "transactionIndex": "0x61",
          "logIndex": "0xa3",
          "removed": false
        },
        {
          "address": "0x8aafd3ede9adb0ff97c7aebce82a919afb1c8764",
          "topics": [
            "0xddf252ad1be2c89b69c2b068fc378daa952ba7f163c4a11628f55a4df523b3ef",
            "0x000000000000000000000000c77f7fed3b5cc8249adc428c5f44c9063b9734b4",
            "0x000000000000000000000000c77f7fed3b5cc8249adc428c5f44c9063b9734b4"
          ],
          "data": "0x0000000000000000000000000000000000000000000000000000000000000b24",
          "blockHash": "0x7d04bba62b299c65357a6910fe4193d15f59905d6167c844851d0ec657937c9f",
          "blockNumber": "0x731de4",
          "transactionHash": "0x42c3d77b767b89bd0a41a683e788557956558fddaa84e77d8265ff7495678ff9",
          "transactionIndex": "0x61",
          "logIndex": "0xa4",
          "removed": false
        },
        {
          "address": "0x8aafd3ede9adb0ff97c7aebce82a919afb1c8764",
          "topics": [
            "0x4afcb4a87cdbd9974efdb92ee48bc8d7cd0ae4bf217004db3d080cbaee652ca7"
          ],
          "data": "0x00000000000000000000000000000000000000000000000000000000679063980000000000000000000000000000000000000000000000000014db13d970b47e000000000000000000000000000000000000000000000000000000000000082c",
          "blockHash": "0x7d04bba62b299c65357a6910fe4193d15f59905d6167c844851d0ec657937c9f",
          "blockNumber": "0x731de4",
          "transactionHash": "0x42c3d77b767b89bd0a41a683e788557956558fddaa84e77d8265ff7495678ff9",
          "transactionIndex": "0x61",
          "logIndex": "0xa5",
          "removed": false
        }
      ],
      "logsBloom": "0x00000000000000000000000000000000000000000600000000000000000000000000000000000000000000000000000000000000000000004000000000000000000000000000004000000008000000000000000000000000000000000000000000000000020000000000000000000800020000000000000000000010000000000000000000000000000000000000000000000000000000000000010000000000000000000000000000000000000000004000000000000000000000000000000000000002000000800000000000000000000000000000080000000000000020000000000000000000000000000000000000000000000000000000000000000000",
      "type": "0x2",
      "transactionHash": "0x42c3d77b767b89bd0a41a683e788557956558fddaa84e77d8265ff7495678ff9",
      "transactionIndex": "0x61",
      "blockHash": "0x7d04bba62b299c65357a6910fe4193d15f59905d6167c844851d0ec657937c9f",
      "blockNumber": "0x731de4",
      "gasUsed": "0xf213",
      "effectiveGasPrice": "0x47ebbba7",
      "from": "0xc77f7fed3b5cc8249adc428c5f44c9063b9734b4",
      "to": "0x8aafd3ede9adb0ff97c7aebce82a919afb1c8764",
      "contractAddress": null
    }
  ],
  "libraries": [],
  "pending": [],
  "returns": {},
  "timestamp": 1737515929,
  "chain": 11155111,
  "commit": "1d2fb70"
}