{
  "transactions": [
    {
      "hash": "0x3c7fe1fe45099e4e45aba42582b7c46d283d0b452be2e6d86d42b96a72023ac5",
      "transactionType": "CALL",
      "contractName": null,
      "contractAddress": "0x8aafd3ede9adb0ff97c7aebce82a919afb1c8764",
      "function": "sell(uint256)",
      "arguments": [
        "5739830926807964080"
      ],
      "transaction": {
        "from": "0xc77f7fed3b5cc8249adc428c5f44c9063b9734b4",
        "to": "0x8aafd3ede9adb0ff97c7aebce82a919afb1c8764",
        "gas": "0x15dca",
        "value": "0x0",
        "input": "0xe4849b320000000000000000000000000000000000000000000000004fa7f9d1273099b0",
        "nonce": "0x1024",
        "chainId": "0xaa36a7"
      },
      "additionalContracts": [],
      "isFixedGasLimit": false
    }
  ],
  "receipts": [
    {
      "status": "0x1",
      "cumulativeGasUsed": "0xd027e0",
      "logs": [
        {
          "address": "0x8aafd3ede9adb0ff97c7aebce82a919afb1c8764",
          "topics": [
            "0xddf252ad1be2c89b69c2b068fc378daa952ba7f163c4a11628f55a4df523b3ef",
            "0x000000000000000000000000c77f7fed3b5cc8249adc428c5f44c9063b9734b4",
            "0x0000000000000000000000000000000000000000000000000000000000000000"
          ],
          "data": "0x0000000000000000000000000000000000000000000000004f04d70ceb7bfcd0",
          "blockHash": "0x18b7bafdf032bcb12c4298596956768348afd18ae15ef2d29ccf52b4c071478b",
          "blockNumber": "0x73169c",
          "transactionHash": "0x3c7fe1fe45099e4e45aba42582b7c46d283d0b452be2e6d86d42b96a72023ac5",
          "transactionIndex": "0x88",
          "logIndex": "0xb3",
          "removed": false
        },
        {
          "address": "0x8aafd3ede9adb0ff97c7aebce82a919afb1c8764",
          "topics": [
            "0xddf252ad1be2c89b69c2b068fc378daa952ba7f163c4a11628f55a4df523b3ef",
            "0x000000000000000000000000c77f7fed3b5cc8249adc428c5f44c9063b9734b4",
            "0x000000000000000000000000c77f7fed3b5cc8249adc428c5f44c9063b9734b4"
          ],
          "data": "0x00000000000000000000000000000000000000000000000000a322c43bb49ce0",
          "blockHash": "0x18b7bafdf032bcb12c4298596956768348afd18ae15ef2d29ccf52b4c071478b",
          "blockNumber": "0x73169c",
          "transactionHash": "0x3c7fe1fe45099e4e45aba42582b7c46d283d0b452be2e6d86d42b96a72023ac5",
          "transactionIndex": "0x88",
          "logIndex": "0xb4",
          "removed": false
        },
        {
          "address": "0x8aafd3ede9adb0ff97c7aebce82a919afb1c8764",
          "topics": [
            "0x4afcb4a87cdbd9974efdb92ee48bc8d7cd0ae4bf217004db3d080cbaee652ca7"
          ],
          "data": "0x0000000000000000000000000000000000000000000000000000000067900bfc0000000000000000000000000000000000000000000000000004ec354c1d95d2000000000000000000000000000000000000000000000000001c41559ac51f29",
          "blockHash": "0x18b7bafdf032bcb12c4298596956768348afd18ae15ef2d29ccf52b4c071478b",
          "blockNumber": "0x73169c",
          "transactionHash": "0x3c7fe1fe45099e4e45aba42582b7c46d283d0b452be2e6d86d42b96a72023ac5",
          "transactionIndex": "0x88",
          "logIndex": "0xb5",
          "removed": false
        }
      ],
      "logsBloom": "0x00000000000000000000000000000000000000000600000000000000000000000000000000000000000000000000000000000000000000004000000000000000000000000000004000000008000000000000000000000000000000000000000000000000020000000000000000000800020000000000000000000010000000000000000000000000000000000000000000000000000000000000010000000000000000000000000000000000000000004000000000000000000000000000000000000002000000800000000000000000000000000000080000000000000020000000000000000000000000000000000000000000000000000000000000000000",
      "type": "0x2",
      "transactionHash": "0x3c7fe1fe45099e4e45aba42582b7c46d283d0b452be2e6d86d42b96a72023ac5",
      "transactionIndex": "0x88",
      "blockHash": "0x18b7bafdf032bcb12c4298596956768348afd18ae15ef2d29ccf52b4c071478b",
      "blockNumber": "0x73169c",
      "gasUsed": "0xfd3f",
      "effectiveGasPrice": "0x40921052",
      "from": "0xc77f7fed3b5cc8249adc428c5f44c9063b9734b4",
      "to": "0x8aafd3ede9adb0ff97c7aebce82a919afb1c8764",
      "contractAddress": null
    }
  ],
  "libraries": [],
  "pending": [],
  "returns": {},
  "timestamp": 1737493501,
  "chain": 11155111,
  "commit": "1d2fb70"
}