{
  "transactions": [
    {
      "hash": "0x04cd6efb5368cb8e05e94fc35173ac71f317b632b7172db330b1008c68d12023",
      "transactionType": "CALL",
      "contractName": null,
      "contractAddress": "0xd7bc75898e513accccf720a874d44dab5a4b6223",
      "function": "sell(uint256)",
      "arguments": [
        "9929993224350005494"
      ],
      "transaction": {
        "from": "0xc77f7fed3b5cc8249adc428c5f44c9063b9734b4",
        "to": "0xd7bc75898e513accccf720a874d44dab5a4b6223",
        "gas": "0x15b6b",
        "value": "0x0",
        "input": "0xe4849b3200000000000000000000000000000000000000000000000089ce6c39e76af8f6",
        "nonce": "0x8b",
        "chainId": "0xaa36a7"
      },
      "additionalContracts": [],
      "isFixedGasLimit": false
    }
  ],
  "receipts": [
    {
      "status": "0x1",
      "cumulativeGasUsed": "0x81b0ab",
      "logs": [
        {
          "address": "0xd7bc75898e513accccf720a874d44dab5a4b6223",
          "topics": [
            "0xddf252ad1be2c89b69c2b068fc378daa952ba7f163c4a11628f55a4df523b3ef",
            "0x000000000000000000000000c77f7fed3b5cc8249adc428c5f44c9063b9734b4",
            "0x0000000000000000000000000000000000000000000000000000000000000000"
          ],
          "data": "0x00000000000000000000000000000000000000000000000089ce6c39e76af8f6",
          "blockHash": "0x49ec34624b39762d66e5ac673f5be642a1a67c2d2e3d2da4e63cc0d47e9120dd",
          "blockNumber": "0x7238fa",
          "transactionHash": "0x04cd6efb5368cb8e05e94fc35173ac71f317b632b7172db330b1008c68d12023",
          "transactionIndex": "0x37",
          "logIndex": "0x62",
          "removed": false
        },
        {
          "address": "0xd7bc75898e513accccf720a874d44dab5a4b6223",
          "topics": [
            "0x4afcb4a87cdbd9974efdb92ee48bc8d7cd0ae4bf217004db3d080cbaee652ca7"
          ],
          "data": "0x0000000000000000000000000000000000000000000000000000000067859d0000000000000000000000000000000000000000000000000000038d7f81e4caa90000000000000000000000000000000000000000000000000023474f493d2799",
          "blockHash": "0x49ec34624b39762d66e5ac673f5be642a1a67c2d2e3d2da4e63cc0d47e9120dd",
          "blockNumber": "0x7238fa",
          "transactionHash": "0x04cd6efb5368cb8e05e94fc35173ac71f317b632b7172db330b1008c68d12023",
          "transactionIndex": "0x37",
          "logIndex": "0x63",
          "removed": false
        }
      ],
      "logsBloom": "0x00000000000000000000000000000000000000000000000000000000000000000000000000000000000000000000000000000000000000004000000000000000000000000000000000000008000000000000000000000000000000000000000000000000020000000000000000000800020000000000000000000010000000000000000000000000000000000000000000000000000000000000010000000000000000000000000000000000000000004000001000000000000000000000000000000002000000800000000000004000000000000000080000000000000020000000000000000000000000000000000000000000080000000000000000000000",
      "type": "0x2",
      "transactionHash": "0x04cd6efb5368cb8e05e94fc35173ac71f317b632b7172db330b1008c68d12023",
      "transactionIndex": "0x37",
      "blockHash": "0x49ec34624b39762d66e5ac673f5be642a1a67c2d2e3d2da4e63cc0d47e9120dd",
      "blockNumber": "0x7238fa",
      "gasUsed": "0xfb87",
      "effectiveGasPrice": "0xdb5687",
      "from": "0xc77f7fed3b5cc8249adc428c5f44c9063b9734b4",
      "to": "0xd7bc75898e513accccf720a874d44dab5a4b6223",
      "contractAddress": null
    }
  ],
  "libraries": [],
  "pending": [],
  "returns": {},
  "timestamp": 1736809729,
  "chain": 11155111,
  "commit": "51a374b"
}