{
  "transactions": [
    {
      "hash": "0xc21bee30179e10420b0265f3c823518ea6d4fe8cd6636d3ed22776cab70371df",
      "transactionType": "CALL",
      "contractName": null,
      "contractAddress": "0x5eb9cc76c3506942c1c0ead70e877dd5e4f00cb0",
      "function": "buy(address)",
      "arguments": [
        "0xC77f7fed3b5Cc8249aDc428c5F44C9063B9734b4"
      ],
      "transaction": {
        "from": "0xc77f7fed3b5cc8249adc428c5f44c9063b9734b4",
        "to": "0x5eb9cc76c3506942c1c0ead70e877dd5e4f00cb0",
        "gas": "0x156c8",
        "value": "0xde0b6b3a7640000",
        "input": "0xf088d547000000000000000000000000c77f7fed3b5cc8249adc428c5f44c9063b9734b4",
        "nonce": "0x177",
        "chainId": "0xaa36a7"
      },
      "additionalContracts": [],
      "isFixedGasLimit": false
    }
  ],
  "receipts": [
    {
      "status": "0x1",
      "cumulativeGasUsed": "0xbb7626",
      "logs": [
        {
          "address": "0x5eb9cc76c3506942c1c0ead70e877dd5e4f00cb0",
          "topics": [
            "0xddf252ad1be2c89b69c2b068fc378daa952ba7f163c4a11628f55a4df523b3ef",
            "0x0000000000000000000000000000000000000000000000000000000000000000",
            "0x000000000000000000000000c77f7fed3b5cc8249adc428c5f44c9063b9734b4"
          ],
          "data": "0x000000000000000000000000000000000000000000000035a6d3037a24a91d1a",
          "blockHash": "0xd9fb322f69d04d38a5a824c5634e72ce47ac6ecaa737ccd4f39acca4e29e0057",
          "blockNumber": "0x723c34",
          "transactionHash": "0xc21bee30179e10420b0265f3c823518ea6d4fe8cd6636d3ed22776cab70371df",
          "transactionIndex": "0x50",
          "logIndex": "0x71",
          "removed": false
        },
        {
          "address": "0x5eb9cc76c3506942c1c0ead70e877dd5e4f00cb0",
          "topics": [
            "0xddf252ad1be2c89b69c2b068fc378daa952ba7f163c4a11628f55a4df523b3ef",
            "0x0000000000000000000000000000000000000000000000000000000000000000",
            "0x000000000000000000000000c77f7fed3b5cc8249adc428c5f44c9063b9734b4"
          ],
          "data": "0x00000000000000000000000000000000000000000000000029a98f3e0500dcc7",
          "blockHash": "0xd9fb322f69d04d38a5a824c5634e72ce47ac6ecaa737ccd4f39acca4e29e0057",
          "blockNumber": "0x723c34",
          "transactionHash": "0xc21bee30179e10420b0265f3c823518ea6d4fe8cd6636d3ed22776cab70371df",
          "transactionIndex": "0x50",
          "logIndex": "0x72",
          "removed": false
        },
        {
          "address": "0x5eb9cc76c3506942c1c0ead70e877dd5e4f00cb0",
          "topics": [
            "0x4afcb4a87cdbd9974efdb92ee48bc8d7cd0ae4bf217004db3d080cbaee652ca7"
          ],
          "data": "0x000000000000000000000000000000000000000000000000000000006785c3c400000000000000000000000000000000000000000000000000038dc59fe1c13f0000000000000000000000000000000000000000000000000de0b6b3a7640000",
          "blockHash": "0xd9fb322f69d04d38a5a824c5634e72ce47ac6ecaa737ccd4f39acca4e29e0057",
          "blockNumber": "0x723c34",
          "transactionHash": "0xc21bee30179e10420b0265f3c823518ea6d4fe8cd6636d3ed22776cab70371df",
          "transactionIndex": "0x50",
          "logIndex": "0x73",
          "removed": false
        }
      ],
      "logsBloom": "0x00000000000000000000000000000000000000000000000000000000000000000000000000000000000000000000000000000000000000004000000000000000000000000000000000000008000000000000000000000000000000000000000000000000020000000000000004000800020000000000000000000010000000000000000000000000000000000000000000000000000000000000010000000000000000000000000000000000000000004000000000000000000000000000020000000002000000800000008000000000000000000000080000000000000020000000000000000000000000000000000000000000000000000000000000000000",
      "type": "0x2",
      "transactionHash": "0xc21bee30179e10420b0265f3c823518ea6d4fe8cd6636d3ed22776cab70371df",
      "transactionIndex": "0x50",
      "blockHash": "0xd9fb322f69d04d38a5a824c5634e72ce47ac6ecaa737ccd4f39acca4e29e0057",
      "blockNumber": "0x723c34",
      "gasUsed": "0xf82c",
      "effectiveGasPrice": "0x1ed0e2ad5",
      "from": "0xc77f7fed3b5cc8249adc428c5f44c9063b9734b4",
      "to": "0x5eb9cc76c3506942c1c0ead70e877dd5e4f00cb0",
      "contractAddress": null
    }
  ],
  "libraries": [],
  "pending": [],
  "returns": {},
  "timestamp": 1736819654,
  "chain": 11155111,
  "commit": "51a374b"
}