{
  "transactions": [
    {
      "hash": "0x658b9a113d31f62bf403e69a1dae38a4ca7618bff2ec5c11afdaa215838ed7b0",
      "transactionType": "CALL",
      "contractName": null,
      "contractAddress": "0x270e88f8683660553e8ba4eb2ad7c91a1710d769",
      "function": "sell(uint256)",
      "arguments": [
        "739043973905759628066"
      ],
      "transaction": {
        "from": "0xc77f7fed3b5cc8249adc428c5f44c9063b9734b4",
        "to": "0x270e88f8683660553e8ba4eb2ad7c91a1710d769",
        "gas": "0x16fec",
        "value": "0x0",
        "input": "0xe4849b32000000000000000000000000000000000000000000000028104ba2a4fddc6b22",
        "nonce": "0x746",
        "chainId": "0xaa36a7"
      },
      "additionalContracts": [],
      "isFixedGasLimit": false
    }
  ],
  "receipts": [
    {
      "status": "0x1",
      "cumulativeGasUsed": "0x1433991",
      "logs": [
        {
          "address": "0x270e88f8683660553e8ba4eb2ad7c91a1710d769",
          "topics": [
            "0xddf252ad1be2c89b69c2b068fc378daa952ba7f163c4a11628f55a4df523b3ef",
            "0x000000000000000000000000c77f7fed3b5cc8249adc428c5f44c9063b9734b4",
            "0x0000000000000000000000000000000000000000000000000000000000000000"
          ],
          "data": "0x000000000000000000000000000000000000000000000028104ba2a4fddc6b22",
          "blockHash": "0xa12cd1ff6a4eb6462a6b09b16b61b783a0490b9679f6d4e62af4b40f81bfeb57",
          "blockNumber": "0x725469",
          "transactionHash": "0x658b9a113d31f62bf403e69a1dae38a4ca7618bff2ec5c11afdaa215838ed7b0",
          "transactionIndex": "0x77",
          "logIndex": "0x171",
          "removed": false
        },
        {
          "address": "0x270e88f8683660553e8ba4eb2ad7c91a1710d769",
          "topics": [
            "0x4afcb4a87cdbd9974efdb92ee48bc8d7cd0ae4bf217004db3d080cbaee652ca7"
          ],
          "data": "0x000000000000000000000000000000000000000000000000000000006786e6f40000000000000000000000000000000000000000000000000004c651a7ba219e0000000000000000000000000000000000000000000000000dc82866a4f95032",
          "blockHash": "0xa12cd1ff6a4eb6462a6b09b16b61b783a0490b9679f6d4e62af4b40f81bfeb57",
          "blockNumber": "0x725469",
          "transactionHash": "0x658b9a113d31f62bf403e69a1dae38a4ca7618bff2ec5c11afdaa215838ed7b0",
          "transactionIndex": "0x77",
          "logIndex": "0x172",
          "removed": false
        }
      ],
      "logsBloom": "0x00000000000000000000000000000000000000000000000000000000000000000000000000000000000000000000000020000000000000004000000000000000000000000000000000000008000000000000000000000000000000000000000000000000020000000000000000000800020000000000000000000010000000000000000000010000000000000000000000000000000000000000010000000000000000000000000000000000000000004000000000000000000000000000000000000002000000800000000000000000000000000000080000008000000020000000000000000000000000000000000000000000000000000000000000000000",
      "type": "0x2",
      "transactionHash": "0x658b9a113d31f62bf403e69a1dae38a4ca7618bff2ec5c11afdaa215838ed7b0",
      "transactionIndex": "0x77",
      "blockHash": "0xa12cd1ff6a4eb6462a6b09b16b61b783a0490b9679f6d4e62af4b40f81bfeb57",
      "blockNumber": "0x725469",
      "gasUsed": "0xfb93",
      "effectiveGasPrice": "0x13a8b48c8",
      "from": "0xc77f7fed3b5cc8249adc428c5f44c9063b9734b4",
      "to": "0x270e88f8683660553e8ba4eb2ad7c91a1710d769",
      "contractAddress": null
    }
  ],
  "libraries": [],
  "pending": [],
  "returns": {},
  "timestamp": 1736894196,
  "chain": 11155111,
  "commit": "51a374b"
}