{
  "transactions": [
    {
      "hash": "0x9038565bcbcbcee9dcb56dc2fb7ce8b3b8a432acdbf9f727084c759767ec89d6",
      "transactionType": "CALL",
      "contractName": null,
      "contractAddress": "0x8aafd3ede9adb0ff97c7aebce82a919afb1c8764",
      "function": "sell(uint256)",
      "arguments": [
        "11101"
      ],
      "transaction": {
        "from": "0xc77f7fed3b5cc8249adc428c5f44c9063b9734b4",
        "to": "0x8aafd3ede9adb0ff97c7aebce82a919afb1c8764",
        "gas": "0x14e4c",
        "value": "0x0",
        "input": "0xe4849b320000000000000000000000000000000000000000000000000000000000002b5d",
        "nonce": "0x1305",
        "chainId": "0xaa36a7"
      },
      "additionalContracts": [],
      "isFixedGasLimit": false
    }
  ],
  "receipts": [
    {
      "status": "0x1",
      "cumulativeGasUsed": "0x138f217",
      "logs": [
        {
          "address": "0x8aafd3ede9adb0ff97c7aebce82a919afb1c8764",
          "topics": [
            "0xddf252ad1be2c89b69c2b068fc378daa952ba7f163c4a11628f55a4df523b3ef",
            "0x000000000000000000000000c77f7fed3b5cc8249adc428c5f44c9063b9734b4",
            "0x0000000000000000000000000000000000000000000000000000000000000000"
          ],
          "data": "0x0000000000000000000000000000000000000000000000000000000000002b05",
          "blockHash": "0x34fefab8c87024d5975d109087a05ec36041a03a0ab0352f2ea3fffe0093a642",
          "blockNumber": "0x731a0e",
          "transactionHash": "0x9038565bcbcbcee9dcb56dc2fb7ce8b3b8a432acdbf9f727084c759767ec89d6",
          "transactionIndex": "0x92",
          "logIndex": "0xcc",
          "removed": false
        },
        {
          "address": "0x8aafd3ede9adb0ff97c7aebce82a919afb1c8764",
          "topics": [
            "0xddf252ad1be2c89b69c2b068fc378daa952ba7f163c4a11628f55a4df523b3ef",
            "0x000000000000000000000000c77f7fed3b5cc8249adc428c5f44c9063b9734b4",
            "0x000000000000000000000000c77f7fed3b5cc8249adc428c5f44c9063b9734b4"
          ],
          "data": "0x0000000000000000000000000000000000000000000000000000000000000058",
          "blockHash": "0x34fefab8c87024d5975d109087a05ec36041a03a0ab0352f2ea3fffe0093a642",
          "blockNumber": "0x731a0e",
          "transactionHash": "0x9038565bcbcbcee9dcb56dc2fb7ce8b3b8a432acdbf9f727084c759767ec89d6",
          "transactionIndex": "0x92",
          "logIndex": "0xcd",
          "removed": false
        },
        {
          "address": "0x8aafd3ede9adb0ff97c7aebce82a919afb1c8764",
          "topics": [
            "0x4afcb4a87cdbd9974efdb92ee48bc8d7cd0ae4bf217004db3d080cbaee652ca7"
          ],
          "data": "0x0000000000000000000000000000000000000000000000000000000067903578000000000000000000000000000000000000000000000000000b41bece9ee6660000000000000000000000000000000000000000000000000000000000000023",
          "blockHash": "0x34fefab8c87024d5975d109087a05ec36041a03a0ab0352f2ea3fffe0093a642",
          "blockNumber": "0x731a0e",
          "transactionHash": "0x9038565bcbcbcee9dcb56dc2fb7ce8b3b8a432acdbf9f727084c759767ec89d6",
          "transactionIndex": "0x92",
          "logIndex": "0xce",
          "removed": false
        }
      ],
      "logsBloom": "0x00000000000000000000000000000000000000000600000000000000000000000000000000000000000000000000000000000000000000004000000000000000000000000000004000000008000000000000000000000000000000000000000000000000020000000000000000000800020000000000000000000010000000000000000000000000000000000000000000000000000000000000010000000000000000000000000000000000000000004000000000000000000000000000000000000002000000800000000000000000000000000000080000000000000020000000000000000000000000000000000000000000000000000000000000000000",
      "type": "0x2",
      "transactionHash": "0x9038565bcbcbcee9dcb56dc2fb7ce8b3b8a432acdbf9f727084c759767ec89d6",
      "transactionIndex": "0x92",
      "blockHash": "0x34fefab8c87024d5975d109087a05ec36041a03a0ab0352f2ea3fffe0093a642",
      "blockNumber": "0x731a0e",
      "gasUsed": "0xf207",
      "effectiveGasPrice": "0x3bb8f0f9",
      "from": "0xc77f7fed3b5cc8249adc428c5f44c9063b9734b4",
      "to": "0x8aafd3ede9adb0ff97c7aebce82a919afb1c8764",
      "contractAddress": null
    }
  ],
  "libraries": [],
  "pending": [],
  "returns": {},
  "timestamp": 1737504120,
  "chain": 11155111,
  "commit": "1d2fb70"
}