{
  "transactions": [
    {
      "hash": "0xae5616cd82ff35516f27c6797af66f4670f963944b27a309a8b87466ba316daf",
      "transactionType": "CALL",
      "contractName": null,
      "contractAddress": "0x8aafd3ede9adb0ff97c7aebce82a919afb1c8764",
      "function": "sell(uint256)",
      "arguments": [
        "24300200074"
      ],
      "transaction": {
        "from": "0xc77f7fed3b5cc8249adc428c5f44c9063b9734b4",
        "to": "0x8aafd3ede9adb0ff97c7aebce82a919afb1c8764",
        "gas": "0x1722a",
        "value": "0x0",
        "input": "0xe4849b3200000000000000000000000000000000000000000000000000000005a867a08a",
        "nonce": "0xf80",
        "chainId": "0xaa36a7"
      },
      "additionalContracts": [],
      "isFixedGasLimit": false
    }
  ],
  "receipts": [
    {
      "status": "0x1",
      "cumulativeGasUsed": "0xbc0147",
      "logs": [
        {
          "address": "0x8aafd3ede9adb0ff97c7aebce82a919afb1c8764",
          "topics": [
            "0xddf252ad1be2c89b69c2b068fc378daa952ba7f163c4a11628f55a4df523b3ef",
            "0x000000000000000000000000c77f7fed3b5cc8249adc428c5f44c9063b9734b4",
            "0x0000000000000000000000000000000000000000000000000000000000000000"
          ],
          "data": "0x000000000000000000000000000000000000000000000000000000059cd14b4a",
          "blockHash": "0x3db06ca300265e1135991c092e652cf510f3de5a4a6ed4075aa107d3b728ebbf",
          "blockNumber": "0x7315e3",
          "transactionHash": "0xae5616cd82ff35516f27c6797af66f4670f963944b27a309a8b87466ba316daf",
          "transactionIndex": "0x8c",
          "logIndex": "0xcc",
          "removed": false
        },
        {
          "address": "0x8aafd3ede9adb0ff97c7aebce82a919afb1c8764",
          "topics": [
            "0xddf252ad1be2c89b69c2b068fc378daa952ba7f163c4a11628f55a4df523b3ef",
            "0x000000000000000000000000c77f7fed3b5cc8249adc428c5f44c9063b9734b4",
            "0x000000000000000000000000c77f7fed3b5cc8249adc428c5f44c9063b9734b4"
          ],
          "data": "0x000000000000000000000000000000000000000000000000000000000b965540",
          "blockHash": "0x3db06ca300265e1135991c092e652cf510f3de5a4a6ed4075aa107d3b728ebbf",
          "blockNumber": "0x7315e3",
          "transactionHash": "0xae5616cd82ff35516f27c6797af66f4670f963944b27a309a8b87466ba316daf",
          "transactionIndex": "0x8c",
          "logIndex": "0xcd",
          "removed": false
        },
        {
          "address": "0x8aafd3ede9adb0ff97c7aebce82a919afb1c8764",
          "topics": [
            "0x4afcb4a87cdbd9974efdb92ee48bc8d7cd0ae4bf217004db3d080cbaee652ca7"
          ],
          "data": "0x00000000000000000000000000000000000000000000000000000000679003500000000000000000000000000000000000000000000000000004c22b685291180000000000000000000000000000000000000000000000000000000001f0a29b",
          "blockHash": "0x3db06ca300265e1135991c092e652cf510f3de5a4a6ed4075aa107d3b728ebbf",
          "blockNumber": "0x7315e3",
          "transactionHash": "0xae5616cd82ff35516f27c6797af66f4670f963944b27a309a8b87466ba316daf",
          "transactionIndex": "0x8c",
          "logIndex": "0xce",
          "removed": false
        }
      ],
      "logsBloom": "0x00000000000000000000000000000000000000000600000000000000000000000000000000000000000000000000000000000000000000004000000000000000000000000000004000000008000000000000000000000000000000000000000000000000020000000000000000000800020000000000000000000010000000000000000000000000000000000000000000000000000000000000010000000000000000000000000000000000000000004000000000000000000000000000000000000002000000800000000000000000000000000000080000000000000020000000000000000000000000000000000000000000000000000000000000000000",
      "type": "0x2",
      "transactionHash": "0xae5616cd82ff35516f27c6797af66f4670f963944b27a309a8b87466ba316daf",
      "transactionIndex": "0x8c",
      "blockHash": "0x3db06ca300265e1135991c092e652cf510f3de5a4a6ed4075aa107d3b728ebbf",
      "blockNumber": "0x7315e3",
      "gasUsed": "0xfd1b",
      "effectiveGasPrice": "0x719f1728",
      "from": "0xc77f7fed3b5cc8249adc428c5f44c9063b9734b4",
      "to": "0x8aafd3ede9adb0ff97c7aebce82a919afb1c8764",
      "contractAddress": null
    }
  ],
  "libraries": [],
  "pending": [],
  "returns": {},
  "timestamp": 1737491280,
  "chain": 11155111,
  "commit": "1d2fb70"
}