{
  "transactions": [
    {
      "hash": "0x9ba9b97d7842b903cb186943988a6021cc623091b46aa93fae87384c05d4a65a",
      "transactionType": "CALL",
      "contractName": null,
      "contractAddress": "0xbf4a322f1496e5c3d34a9bcdb4c60567b38c7de2",
      "function": "sell(uint256)",
      "arguments": [
        "987698988036521256091"
      ],
      "transaction": {
        "from": "0xc77f7fed3b5cc8249adc428c5f44c9063b9734b4",
        "to": "0xbf4a322f1496e5c3d34a9bcdb4c60567b38c7de2",
        "gas": "0x16fea",
        "value": "0x0",
        "input": "0xe4849b320000000000000000000000000000000000000000000000358b13b490d1a4e49b",
        "nonce": "0x9df",
        "chainId": "0xaa36a7"
      },
      "additionalContracts": [],
      "isFixedGasLimit": false
    }
  ],
  "receipts": [
    {
      "status": "0x1",
      "cumulativeGasUsed": "0x918986",
      "logs": [
        {
          "address": "0xbf4a322f1496e5c3d34a9bcdb4c60567b38c7de2",
          "topics": [
            "0xddf252ad1be2c89b69c2b068fc378daa952ba7f163c4a11628f55a4df523b3ef",
            "0x000000000000000000000000c77f7fed3b5cc8249adc428c5f44c9063b9734b4",
            "0x0000000000000000000000000000000000000000000000000000000000000000"
          ],
          "data": "0x0000000000000000000000000000000000000000000000358b13b490d1a4e49b",
          "blockHash": "0x1058594864f11106a8af5efce4304b68cc28e25cd7d0b86ee55a6fd990f29de2",
          "blockNumber": "0x725992",
          "transactionHash": "0x9ba9b97d7842b903cb186943988a6021cc623091b46aa93fae87384c05d4a65a",
          "transactionIndex": "0x53",
          "logIndex": "0x71",
          "removed": false
        },
        {
          "address": "0xbf4a322f1496e5c3d34a9bcdb4c60567b38c7de2",
          "topics": [
            "0x4afcb4a87cdbd9974efdb92ee48bc8d7cd0ae4bf217004db3d080cbaee652ca7"
          ],
          "data": "0x0000000000000000000000000000000000000000000000000000000067872510000000000000000000000000000000000000000000000000000392676cecde5e0000000000000000000000000000000000000000000000000dc7e3f3f76d8337",
          "blockHash": "0x1058594864f11106a8af5efce4304b68cc28e25cd7d0b86ee55a6fd990f29de2",
          "blockNumber": "0x725992",
          "transactionHash": "0x9ba9b97d7842b903cb186943988a6021cc623091b46aa93fae87384c05d4a65a",
          "transactionIndex": "0x53",
          "logIndex": "0x72",
          "removed": false
        }
      ],
      "logsBloom": "0x00000000000000000000000000000000000000000000000000000000000000000000000000000000000000000000000000000000000000004000000000000000000000000000000000000008000000000000001000000000000000000000000000000000020000000000000000000800020000000000000000000010000000000000000000000000000000000000000000000000000008000000010000000000000000000000000000000000000000004000000000000000000000000000000000000002000000800000000000001000000000000000080000000000000020000000000000000000000000000000000000000000000000000000000000000000",
      "type": "0x2",
      "transactionHash": "0x9ba9b97d7842b903cb186943988a6021cc623091b46aa93fae87384c05d4a65a",
      "transactionIndex": "0x53",
      "blockHash": "0x1058594864f11106a8af5efce4304b68cc28e25cd7d0b86ee55a6fd990f29de2",
      "blockNumber": "0x725992",
      "gasUsed": "0xfb91",
      "effectiveGasPrice": "0x263c47f64",
      "from": "0xc77f7fed3b5cc8249adc428c5f44c9063b9734b4",
      "to": "0xbf4a322f1496e5c3d34a9bcdb4c60567b38c7de2",
      "contractAddress": null
    }
  ],
  "libraries": [],
  "pending": [],
  "returns": {},
  "timestamp": 1736910096,
  "chain": 11155111,
  "commit": "51a374b"
}