{
  "transactions": [
    {
      "hash": "0x91b30122e76e483eea406507f1e7eaf58e891d57754433062e736568d098186f",
      "transactionType": "CALL",
      "contractName": null,
      "contractAddress": "0x8aafd3ede9adb0ff97c7aebce82a919afb1c8764",
      "function": "sell(uint256)",
      "arguments": [
        "7148757628"
      ],
      "transaction": {
        "from": "0xc77f7fed3b5cc8249adc428c5f44c9063b9734b4",
        "to": "0x8aafd3ede9adb0ff97c7aebce82a919afb1c8764",
        "gas": "0x1722a",
        "value": "0x0",
        "input": "0xe4849b3200000000000000000000000000000000000000000000000000000001aa19627c",
        "nonce": "0x14bc",
        "chainId": "0xaa36a7"
      },
      "additionalContracts": [],
      "isFixedGasLimit": false
    }
  ],
  "receipts": [
    {
      "status": "0x1",
      "cumulativeGasUsed": "0x1218342",
      "logs": [
        {
          "address": "0x8aafd3ede9adb0ff97c7aebce82a919afb1c8764",
          "topics": [
            "0xddf252ad1be2c89b69c2b068fc378daa952ba7f163c4a11628f55a4df523b3ef",
            "0x000000000000000000000000c77f7fed3b5cc8249adc428c5f44c9063b9734b4",
            "0x0000000000000000000000000000000000000000000000000000000000000000"
          ],
          "data": "0x00000000000000000000000000000000000000000000000000000001a6b0bbcf",
          "blockHash": "0x4ec17e077a75967a2841f054e1d48f5034536388a2bc384c051af724a6e92661",
          "blockNumber": "0x731c18",
          "transactionHash": "0x91b30122e76e483eea406507f1e7eaf58e891d57754433062e736568d098186f",
          "transactionIndex": "0x7c",
          "logIndex": "0xac",
          "removed": false
        },
        {
          "address": "0x8aafd3ede9adb0ff97c7aebce82a919afb1c8764",
          "topics": [
            "0xddf252ad1be2c89b69c2b068fc378daa952ba7f163c4a11628f55a4df523b3ef",
            "0x000000000000000000000000c77f7fed3b5cc8249adc428c5f44c9063b9734b4",
            "0x000000000000000000000000c77f7fed3b5cc8249adc428c5f44c9063b9734b4"
          ],
          "data": "0x000000000000000000000000000000000000000000000000000000000368a6ad",
          "blockHash": "0x4ec17e077a75967a2841f054e1d48f5034536388a2bc384c051af724a6e92661",
          "blockNumber": "0x731c18",
          "transactionHash": "0x91b30122e76e483eea406507f1e7eaf58e891d57754433062e736568d098186f",
          "transactionIndex": "0x7c",
          "logIndex": "0xad",
          "removed": false
        },
        {
          "address": "0x8aafd3ede9adb0ff97c7aebce82a919afb1c8764",
          "topics": [
            "0x4afcb4a87cdbd9974efdb92ee48bc8d7cd0ae4bf217004db3d080cbaee652ca7"
          ],
          "data": "0x0000000000000000000000000000000000000000000000000000000067904dfc0000000000000000000000000000000000000000000000000010462ff0843fef0000000000000000000000000000000000000000000000000000000001f3ad48",
          "blockHash": "0x4ec17e077a75967a2841f054e1d48f5034536388a2bc384c051af724a6e92661",
          "blockNumber": "0x731c18",
          "transactionHash": "0x91b30122e76e483eea406507f1e7eaf58e891d57754433062e736568d098186f",
          "transactionIndex": "0x7c",
          "logIndex": "0xae",
          "removed": false
        }
      ],
      "logsBloom": "0x00000000000000000000000000000000000000000600000000000000000000000000000000000000000000000000000000000000000000004000000000000000000000000000004000000008000000000000000000000000000000000000000000000000020000000000000000000800020000000000000000000010000000000000000000000000000000000000000000000000000000000000010000000000000000000000000000000000000000004000000000000000000000000000000000000002000000800000000000000000000000000000080000000000000020000000000000000000000000000000000000000000000000000000000000000000",
      "type": "0x2",
      "transactionHash": "0x91b30122e76e483eea406507f1e7eaf58e891d57754433062e736568d098186f",
      "transactionIndex": "0x7c",
      "blockHash": "0x4ec17e077a75967a2841f054e1d48f5034536388a2bc384c051af724a6e92661",
      "blockNumber": "0x731c18",
      "gasUsed": "0xfd1b",
      "effectiveGasPrice": "0xfe7ae596",
      "from": "0xc77f7fed3b5cc8249adc428c5f44c9063b9734b4",
      "to": "0x8aafd3ede9adb0ff97c7aebce82a919afb1c8764",
      "contractAddress": null
    }
  ],
  "libraries": [],
  "pending": [],
  "returns": {},
  "timestamp": 1737510398,
  "chain": 11155111,
  "commit": "1d2fb70"
}