{
  "transactions": [
    {
      "hash": "0x667d9f785a99dbd7785a47450cb46b05285e1c8244d80997542598c3e5b81ec0",
      "transactionType": "CALL",
      "contractName": null,
      "contractAddress": "0x270e88f8683660553e8ba4eb2ad7c91a1710d769",
      "function": "buy(address)",
      "arguments": [
        "0xC77f7fed3b5Cc8249aDc428c5F44C9063B9734b4"
      ],
      "transaction": {
        "from": "0xc77f7fed3b5cc8249adc428c5f44c9063b9734b4",
        "to": "0x270e88f8683660553e8ba4eb2ad7c91a1710d769",
        "gas": "0x1b30c",
        "value": "0xde0b6b3a7640000",
        "input": "0xf088d547000000000000000000000000c77f7fed3b5cc8249adc428c5f44c9063b9734b4",
        "nonce": "0x891",
        "chainId": "0xaa36a7"
      },
      "additionalContracts": [],
      "isFixedGasLimit": false
    }
  ],
  "receipts": [
    {
      "status": "0x1",
      "cumulativeGasUsed": "0xea8ee0",
      "logs": [
        {
          "address": "0x270e88f8683660553e8ba4eb2ad7c91a1710d769",
          "topics": [
            "0xddf252ad1be2c89b69c2b068fc378daa952ba7f163c4a11628f55a4df523b3ef",
            "0x0000000000000000000000000000000000000000000000000000000000000000",
            "0x000000000000000000000000c77f7fed3b5cc8249adc428c5f44c9063b9734b4"
          ],
          "data": "0x00000000000000000000000000000000000000000000002669ecd674df1deb6a",
          "blockHash": "0x983a52b037d9bb6ed90f90598e85d0d369fe7727c9bf3b1eb0b9f88f6ace8032",
          "blockNumber": "0x7255ee",
          "transactionHash": "0x667d9f785a99dbd7785a47450cb46b05285e1c8244d80997542598c3e5b81ec0",
          "transactionIndex": "0x36",
          "logIndex": "0x4f",
          "removed": false
        },
        {
          "address": "0x270e88f8683660553e8ba4eb2ad7c91a1710d769",
          "topics": [
            "0xddf252ad1be2c89b69c2b068fc378daa952ba7f163c4a11628f55a4df523b3ef",
            "0x0000000000000000000000000000000000000000000000000000000000000000",
            "0x000000000000000000000000c77f7fed3b5cc8249adc428c5f44c9063b9734b4"
          ],
          "data": "0x0000000000000000000000000000000000000000000000001dd460d8f9f9ad34",
          "blockHash": "0x983a52b037d9bb6ed90f90598e85d0d369fe7727c9bf3b1eb0b9f88f6ace8032",
          "blockNumber": "0x7255ee",
          "transactionHash": "0x667d9f785a99dbd7785a47450cb46b05285e1c8244d80997542598c3e5b81ec0",
          "transactionIndex": "0x36",
          "logIndex": "0x50",
          "removed": false
        },
        {
          "address": "0x270e88f8683660553e8ba4eb2ad7c91a1710d769",
          "topics": [
            "0x4afcb4a87cdbd9974efdb92ee48bc8d7cd0ae4bf217004db3d080cbaee652ca7"
          ],
          "data": "0x000000000000000000000000000000000000000000000000000000006786f9300000000000000000000000000000000000000000000000000004f6c34f64bb090000000000000000000000000000000000000000000000000de0b6b3a7640000",
          "blockHash": "0x983a52b037d9bb6ed90f90598e85d0d369fe7727c9bf3b1eb0b9f88f6ace8032",
          "blockNumber": "0x7255ee",
          "transactionHash": "0x667d9f785a99dbd7785a47450cb46b05285e1c8244d80997542598c3e5b81ec0",
          "transactionIndex": "0x36",
          "logIndex": "0x51",
          "removed": false
        }
      ],
      "logsBloom": "0x00000000000000000000000000000000000000000000000000000000000000000000000000000000000000000000000020000000000000004000000000000000000000000000000000000008000000000000000000000000000000000000000000000000020000000000000000000800020000000000000000000010000000000000000000010000000000000000000000000000000000000000010000000000000000000000000000000000000000004000000000000000000000000000000000000002000000800000000000000000000000000000080000008000000020000000000000000000000000000000000000000000000000000000000000000000",
      "type": "0x2",
      "transactionHash": "0x667d9f785a99dbd7785a47450cb46b05285e1c8244d80997542598c3e5b81ec0",
      "transactionIndex": "0x36",
      "blockHash": "0x983a52b037d9bb6ed90f90598e85d0d369fe7727c9bf3b1eb0b9f88f6ace8032",
      "blockNumber": "0x7255ee",
      "gasUsed": "0x13af8",
      "effectiveGasPrice": "0xb6ebc289",
      "from": "0xc77f7fed3b5cc8249adc428c5f44c9063b9734b4",
      "to": "0x270e88f8683660553e8ba4eb2ad7c91a1710d769",
      "contractAddress": null
    }
  ],
  "libraries": [],
  "pending": [],
  "returns": {},
  "timestamp": 1736898865,
  "chain": 11155111,
  "commit": "51a374b"
}