{
  "transactions": [
    {
      "hash": "0x813fada24f951556c56b2908a23891170b80bc07cb23c856f1bd96acdaac4d99",
      "transactionType": "CALL",
      "contractName": null,
      "contractAddress": "0x8aafd3ede9adb0ff97c7aebce82a919afb1c8764",
      "function": "sell(uint256)",
      "arguments": [
        "593072"
      ],
      "transaction": {
        "from": "0xc77f7fed3b5cc8249adc428c5f44c9063b9734b4",
        "to": "0x8aafd3ede9adb0ff97c7aebce82a919afb1c8764",
        "gas": "0x16208",
        "value": "0x0",
        "input": "0xe4849b320000000000000000000000000000000000000000000000000000000000090cb0",
        "nonce": "0x137a",
        "chainId": "0xaa36a7"
      },
      "additionalContracts": [],
      "isFixedGasLimit": false
    }
  ],
  "receipts": [
    {
      "status": "0x1",
      "cumulativeGasUsed": "0xebc89d",
      "logs": [
        {
          "address": "0x8aafd3ede9adb0ff97c7aebce82a919afb1c8764",
          "topics": [
            "0xddf252ad1be2c89b69c2b068fc378daa952ba7f163c4a11628f55a4df523b3ef",
            "0x000000000000000000000000c77f7fed3b5cc8249adc428c5f44c9063b9734b4",
            "0x0000000000000000000000000000000000000000000000000000000000000000"
          ],
          "data": "0x000000000000000000000000000000000000000000000000000000000008fa28",
          "blockHash": "0xd32486a96b423bf8729c671ce573b9e06d7c60d15d3d2fe1e5d9875412f58311",
          "blockNumber": "0x731a9e",
          "transactionHash": "0x813fada24f951556c56b2908a23891170b80bc07cb23c856f1bd96acdaac4d99",
          "transactionIndex": "0x9a",
          "logIndex": "0x8c",
          "removed": false
        },
        {
          "address": "0x8aafd3ede9adb0ff97c7aebce82a919afb1c8764",
          "topics": [
            "0xddf252ad1be2c89b69c2b068fc378daa952ba7f163c4a11628f55a4df523b3ef",
            "0x000000000000000000000000c77f7fed3b5cc8249adc428c5f44c9063b9734b4",
            "0x000000000000000000000000c77f7fed3b5cc8249adc428c5f44c9063b9734b4"
          ],
          "data": "0x0000000000000000000000000000000000000000000000000000000000001288",
          "blockHash": "0xd32486a96b423bf8729c671ce573b9e06d7c60d15d3d2fe1e5d9875412f58311",
          "blockNumber": "0x731a9e",
          "transactionHash": "0x813fada24f951556c56b2908a23891170b80bc07cb23c856f1bd96acdaac4d99",
          "transactionIndex": "0x9a",
          "logIndex": "0x8d",
          "removed": false
        },
        {
          "address": "0x8aafd3ede9adb0ff97c7aebce82a919afb1c8764",
          "topics": [
            "0x4afcb4a87cdbd9974efdb92ee48bc8d7cd0ae4bf217004db3d080cbaee652ca7"
          ],
          "data": "0x0000000000000000000000000000000000000000000000000000000067903c38000000000000000000000000000000000000000000000000000c939e512572fd0000000000000000000000000000000000000000000000000000000000000833",
          "blockHash": "0xd32486a96b423bf8729c671ce573b9e06d7c60d15d3d2fe1e5d9875412f58311",
          "blockNumber": "0x731a9e",
          "transactionHash": "0x813fada24f951556c56b2908a23891170b80bc07cb23c856f1bd96acdaac4d99",
          "transactionIndex": "0x9a",
          "logIndex": "0x8e",
          "removed": false
        }
      ],
      "logsBloom": "0x00000000000000000000000000000000000000000600000000000000000000000000000000000000000000000000000000000000000000004000000000000000000000000000004000000008000000000000000000000000000000000000000000000000020000000000000000000800020000000000000000000010000000000000000000000000000000000000000000000000000000000000010000000000000000000000000000000000000000004000000000000000000000000000000000000002000000800000000000000000000000000000080000000000000020000000000000000000000000000000000000000000000000000000000000000000",
      "type": "0x2",
      "transactionHash": "0x813fada24f951556c56b2908a23891170b80bc07cb23c856f1bd96acdaac4d99",
      "transactionIndex": "0x9a",
      "blockHash": "0xd32486a96b423bf8729c671ce573b9e06d7c60d15d3d2fe1e5d9875412f58311",
      "blockNumber": "0x731a9e",
      "gasUsed": "0xf213",
      "effectiveGasPrice": "0x78df5d35",
      "from": "0xc77f7fed3b5cc8249adc428c5f44c9063b9734b4",
      "to": "0x8aafd3ede9adb0ff97c7aebce82a919afb1c8764",
      "contractAddress": null
    }
  ],
  "libraries": [],
  "pending": [],
  "returns": {},
  "timestamp": 1737505849,
  "chain": 11155111,
  "commit": "1d2fb70"
}