{
  "transactions": [
    {
      "hash": "0x325bc69821fddee7b2a035158409f1bed87b2dfca4046d2739bc5f688fa79633",
      "transactionType": "CALL",
      "contractName": null,
      "contractAddress": "0x5eb9cc76c3506942c1c0ead70e877dd5e4f00cb0",
      "function": "buy(address)",
      "arguments": [
        "0xC77f7fed3b5Cc8249aDc428c5F44C9063B9734b4"
      ],
      "transaction": {
        "from": "0xc77f7fed3b5cc8249adc428c5f44c9063b9734b4",
        "to": "0x5eb9cc76c3506942c1c0ead70e877dd5e4f00cb0",
        "gas": "0x1b30c",
        "value": "0xde0b6b3a7640000",
        "input": "0xf088d547000000000000000000000000c77f7fed3b5cc8249adc428c5f44c9063b9734b4",
        "nonce": "0x2d2",
        "chainId": "0xaa36a7"
      },
      "additionalContracts": [],
      "isFixedGasLimit": false
    }
  ],
  "receipts": [
    {
      "status": "0x1",
      "cumulativeGasUsed": "0xc29c2e",
      "logs": [
        {
          "address": "0x5eb9cc76c3506942c1c0ead70e877dd5e4f00cb0",
          "topics": [
            "0xddf252ad1be2c89b69c2b068fc378daa952ba7f163c4a11628f55a4df523b3ef",
            "0x0000000000000000000000000000000000000000000000000000000000000000",
            "0x000000000000000000000000c77f7fed3b5cc8249adc428c5f44c9063b9734b4"
          ],
          "data": "0x00000000000000000000000000000000000000000000003575acaf58d07cceea",
          "blockHash": "0x3cfcf5aab391e65733c28e083a2c753f6df22334f52025dacdf689ad86b34567",
          "blockNumber": "0x724eae",
          "transactionHash": "0x325bc69821fddee7b2a035158409f1bed87b2dfca4046d2739bc5f688fa79633",
          "transactionIndex": "0x5d",
          "logIndex": "0x93",
          "removed": false
        },
        {
          "address": "0x5eb9cc76c3506942c1c0ead70e877dd5e4f00cb0",
          "topics": [
            "0xddf252ad1be2c89b69c2b068fc378daa952ba7f163c4a11628f55a4df523b3ef",
            "0x0000000000000000000000000000000000000000000000000000000000000000",
            "0x000000000000000000000000c77f7fed3b5cc8249adc428c5f44c9063b9734b4"
          ],
          "data": "0x000000000000000000000000000000000000000000000000298364a288b25c36",
          "blockHash": "0x3cfcf5aab391e65733c28e083a2c753f6df22334f52025dacdf689ad86b34567",
          "blockNumber": "0x724eae",
          "transactionHash": "0x325bc69821fddee7b2a035158409f1bed87b2dfca4046d2739bc5f688fa79633",
          "transactionIndex": "0x5d",
          "logIndex": "0x94",
          "removed": false
        },
        {
          "address": "0x5eb9cc76c3506942c1c0ead70e877dd5e4f00cb0",
          "topics": [
            "0x4afcb4a87cdbd9974efdb92ee48bc8d7cd0ae4bf217004db3d080cbaee652ca7"
          ],
          "data": "0x000000000000000000000000000000000000000000000000000000006786a1dc0000000000000000000000000000000000000000000000000003910a0d114e810000000000000000000000000000000000000000000000000de0b6b3a7640000",
          "blockHash": "0x3cfcf5aab391e65733c28e083a2c753f6df22334f52025dacdf689ad86b34567",
          "blockNumber": "0x724eae",
          "transactionHash": "0x325bc69821fddee7b2a035158409f1bed87b2dfca4046d2739bc5f688fa79633",
          "transactionIndex": "0x5d",
          "logIndex": "0x95",
          "removed": false
        }
      ],
      "logsBloom": "0x00000000000000000000000000000000000000000000000000000000000000000000000000000000000000000000000000000000000000004000000000000000000000000000000000000008000000000000000000000000000000000000000000000000020000000000000004000800020000000000000000000010000000000000000000000000000000000000000000000000000000000000010000000000000000000000000000000000000000004000000000000000000000000000020000000002000000800000008000000000000000000000080000000000000020000000000000000000000000000000000000000000000000000000000000000000",
      "type": "0x2",
      "transactionHash": "0x325bc69821fddee7b2a035158409f1bed87b2dfca4046d2739bc5f688fa79633",
      "transactionIndex": "0x5d",
      "blockHash": "0x3cfcf5aab391e65733c28e083a2c753f6df22334f52025dacdf689ad86b34567",
      "blockNumber": "0x724eae",
      "gasUsed": "0x13af8",
      "effectiveGasPrice": "0x4663422d4",
      "from": "0xc77f7fed3b5cc8249adc428c5f44c9063b9734b4",
      "to": "0x5eb9cc76c3506942c1c0ead70e877dd5e4f00cb0",
      "contractAddress": null
    }
  ],
  "libraries": [],
  "pending": [],
  "returns": {},
  "timestamp": 1736876509,
  "chain": 11155111,
  "commit": "51a374b"
}