{
  "transactions": [
    {
      "hash": "0xc1bad25bba8197f6079103199642e1f7032fb59fba57b3b5b965ee96062d8b6f",
      "transactionType": "CALL",
      "contractName": null,
      "contractAddress": "0x8aafd3ede9adb0ff97c7aebce82a919afb1c8764",
      "function": "sell(uint256)",
      "arguments": [
        "43256201"
      ],
      "transaction": {
        "from": "0xc77f7fed3b5cc8249adc428c5f44c9063b9734b4",
        "to": "0x8aafd3ede9adb0ff97c7aebce82a919afb1c8764",
        "gas": "0x15d88",
        "value": "0x0",
        "input": "0xe4849b320000000000000000000000000000000000000000000000000000000002940989",
        "nonce": "0x167f",
        "chainId": "0xaa36a7"
      },
      "additionalContracts": [],
      "isFixedGasLimit": false
    }
  ],
  "receipts": [
    {
      "status": "0x1",
      "cumulativeGasUsed": "0x9bb3c2",
      "logs": [
        {
          "address": "0x8aafd3ede9adb0ff97c7aebce82a919afb1c8764",
          "topics": [
            "0xddf252ad1be2c89b69c2b068fc378daa952ba7f163c4a11628f55a4df523b3ef",
            "0x000000000000000000000000c77f7fed3b5cc8249adc428c5f44c9063b9734b4",
            "0x0000000000000000000000000000000000000000000000000000000000000000"
          ],
          "data": "0x00000000000000000000000000000000000000000000000000000000028ec1c8",
          "blockHash": "0xb7d9f6bdb32f0e19b410c1878901505fd5ad4e5538a9610d9d37594e62ef5d3a",
          "blockNumber": "0x731e30",
          "transactionHash": "0xc1bad25bba8197f6079103199642e1f7032fb59fba57b3b5b965ee96062d8b6f",
          "transactionIndex": "0x62",
          "logIndex": "0x67",
          "removed": false
        },
        {
          "address": "0x8aafd3ede9adb0ff97c7aebce82a919afb1c8764",
          "topics": [
            "0xddf252ad1be2c89b69c2b068fc378daa952ba7f163c4a11628f55a4df523b3ef",
            "0x000000000000000000000000c77f7fed3b5cc8249adc428c5f44c9063b9734b4",
            "0x000000000000000000000000c77f7fed3b5cc8249adc428c5f44c9063b9734b4"
          ],
          "data": "0x00000000000000000000000000000000000000000000000000000000000547c1",
          "blockHash": "0xb7d9f6bdb32f0e19b410c1878901505fd5ad4e5538a9610d9d37594e62ef5d3a",
          "blockNumber": "0x731e30",
          "transactionHash": "0xc1bad25bba8197f6079103199642e1f7032fb59fba57b3b5b965ee96062d8b6f",
          "transactionIndex": "0x62",
          "logIndex": "0x68",
          "removed": false
        },
        {
          "address": "0x8aafd3ede9adb0ff97c7aebce82a919afb1c8764",
          "topics": [
            "0x4afcb4a87cdbd9974efdb92ee48bc8d7cd0ae4bf217004db3d080cbaee652ca7"
          ],
          "data": "0x000000000000000000000000000000000000000000000000000000006790672800000000000000000000000000000000000000000000000000157c0e9921a8b3000000000000000000000000000000000000000000000000000000000003fdd2",
          "blockHash": "0xb7d9f6bdb32f0e19b410c1878901505fd5ad4e5538a9610d9d37594e62ef5d3a",
          "blockNumber": "0x731e30",
          "transactionHash": "0xc1bad25bba8197f6079103199642e1f7032fb59fba57b3b5b965ee96062d8b6f",
          "transactionIndex": "0x62",
          "logIndex": "0x69",
          "removed": false
        }
      ],
      "logsBloom": "0x00000000000000000000000000000000000000000600000000000000000000000000000000000000000000000000000000000000000000004000000000000000000000000000004000000008000000000000000000000000000000000000000000000000020000000000000000000800020000000000000000000010000000000000000000000000000000000000000000000000000000000000010000000000000000000000000000000000000000004000000000000000000000000000000000000002000000800000000000000000000000000000080000000000000020000000000000000000000000000000000000000000000000000000000000000000",
      "type": "0x2",
      "transactionHash": "0xc1bad25bba8197f6079103199642e1f7032fb59fba57b3b5b965ee96062d8b6f",
      "transactionIndex": "0x62",
      "blockHash": "0xb7d9f6bdb32f0e19b410c1878901505fd5ad4e5538a9610d9d37594e62ef5d3a",
      "blockNumber": "0x731e30",
      "gasUsed": "0xfd0f",
      "effectiveGasPrice": "0x47b965ea",
      "from": "0xc77f7fed3b5cc8249adc428c5f44c9063b9734b4",
      "to": "0x8aafd3ede9adb0ff97c7aebce82a919afb1c8764",
      "contractAddress": null
    }
  ],
  "libraries": [],
  "pending": [],
  "returns": {},
  "timestamp": 1737516841,
  "chain": 11155111,
  "commit": "1d2fb70"
}