{
  "transactions": [
    {
      "hash": "0x9a371f5ebb442a11f1711199fd5bb13818072738da496763dd0e3491053c4c7b",
      "transactionType": "CALL",
      "contractName": null,
      "contractAddress": "0x8aafd3ede9adb0ff97c7aebce82a919afb1c8764",
      "function": "sell(uint256)",
      "arguments": [
        "5547797139704858116"
      ],
      "transaction": {
        "from": "0xc77f7fed3b5cc8249adc428c5f44c9063b9734b4",
        "to": "0x8aafd3ede9adb0ff97c7aebce82a919afb1c8764",
        "gas": "0x15dca",
        "value": "0x0",
        "input": "0xe4849b320000000000000000000000000000000000000000000000004cfdbc1ae6094604",
        "nonce": "0x1150",
        "chainId": "0xaa36a7"
      },
      "additionalContracts": [],
      "isFixedGasLimit": false
    }
  ],
  "receipts": [
    {
      "status": "0x1",
      "cumulativeGasUsed": "0x7ac45b",
      "logs": [
        {
          "address": "0x8aafd3ede9adb0ff97c7aebce82a919afb1c8764",
          "topics": [
            "0xddf252ad1be2c89b69c2b068fc378daa952ba7f163c4a11628f55a4df523b3ef",
            "0x000000000000000000000000c77f7fed3b5cc8249adc428c5f44c9063b9734b4",
            "0x0000000000000000000000000000000000000000000000000000000000000000"
          ],
          "data": "0x0000000000000000000000000000000000000000000000004c600e9177a6e534",
          "blockHash": "0x055e4ba967a2a8d3733adc7948dd7bfb64253e6a8007f76d6c1a29148bbc0af7",
          "blockNumber": "0x73180a",
          "transactionHash": "0x9a371f5ebb442a11f1711199fd5bb13818072738da496763dd0e3491053c4c7b",
          "transactionIndex": "0x6a",
          "logIndex": "0x87",
          "removed": false
        },
        {
          "address": "0x8aafd3ede9adb0ff97c7aebce82a919afb1c8764",
          "topics": [
            "0xddf252ad1be2c89b69c2b068fc378daa952ba7f163c4a11628f55a4df523b3ef",
            "0x000000000000000000000000c77f7fed3b5cc8249adc428c5f44c9063b9734b4",
            "0x000000000000000000000000c77f7fed3b5cc8249adc428c5f44c9063b9734b4"
          ],
          "data": "0x000000000000000000000000000000000000000000000000009dad896e6260d0",
          "blockHash": "0x055e4ba967a2a8d3733adc7948dd7bfb64253e6a8007f76d6c1a29148bbc0af7",
          "blockNumber": "0x73180a",
          "transactionHash": "0x9a371f5ebb442a11f1711199fd5bb13818072738da496763dd0e3491053c4c7b",
          "transactionIndex": "0x6a",
          "logIndex": "0x88",
          "removed": false
        },
        {
          "address": "0x8aafd3ede9adb0ff97c7aebce82a919afb1c8764",
          "topics": [
            "0x4afcb4a87cdbd9974efdb92ee48bc8d7cd0ae4bf217004db3d080cbaee652ca7"
          ],
          "data": "0x0000000000000000000000000000000000000000000000000000000067901d3c000000000000000000000000000000000000000000000000000517c7aa71ff47000000000000000000000000000000000000000000000000001c410f885d6121",
          "blockHash": "0x055e4ba967a2a8d3733adc7948dd7bfb64253e6a8007f76d6c1a29148bbc0af7",
          "blockNumber": "0x73180a",
          "transactionHash": "0x9a371f5ebb442a11f1711199fd5bb13818072738da496763dd0e3491053c4c7b",
          "transactionIndex": "0x6a",
          "logIndex": "0x89",
          "removed": false
        }
      ],
      "logsBloom": "0x00000000000000000000000000000000000000000600000000000000000000000000000000000000000000000000000000000000000000004000000000000000000000000000004000000008000000000000000000000000000000000000000000000000020000000000000000000800020000000000000000000010000000000000000000000000000000000000000000000000000000000000010000000000000000000000000000000000000000004000000000000000000000000000000000000002000000800000000000000000000000000000080000000000000020000000000000000000000000000000000000000000000000000000000000000000",
      "type": "0x2",
      "transactionHash": "0x9a371f5ebb442a11f1711199fd5bb13818072738da496763dd0e3491053c4c7b",
      "transactionIndex": "0x6a",
      "blockHash": "0x055e4ba967a2a8d3733adc7948dd7bfb64253e6a8007f76d6c1a29148bbc0af7",
      "blockNumber": "0x73180a",
      "gasUsed": "0xfd3f",
      "effectiveGasPrice": "0x435adb58",
      "from": "0xc77f7fed3b5cc8249adc428c5f44c9063b9734b4",
      "to": "0x8aafd3ede9adb0ff97c7aebce82a919afb1c8764",
      "contractAddress": null
    }
  ],
  "libraries": [],
  "pending": [],
  "returns": {},
  "timestamp": 1737497917,
  "chain": 11155111,
  "commit": "1d2fb70"
}