{
  "transactions": [
    {
      "hash": "0x049854e6538bd74ee44c4e8486815bc34649ee2266e38f30421158b121b8f82a",
      "transactionType": "CALL",
      "contractName": null,
      "contractAddress": "0x8aafd3ede9adb0ff97c7aebce82a919afb1c8764",
      "function": "sell(uint256)",
      "arguments": [
        "306821"
      ],
      "transaction": {
        "from": "0xc77f7fed3b5cc8249adc428c5f44c9063b9734b4",
        "to": "0x8aafd3ede9adb0ff97c7aebce82a919afb1c8764",
        "gas": "0x16208",
        "value": "0x0",
        "input": "0xe4849b32000000000000000000000000000000000000000000000000000000000004ae85",
        "nonce": "0x176a",
        "chainId": "0xaa36a7"
      },
      "additionalContracts": [],
      "isFixedGasLimit": false
    }
  ],
  "receipts": [
    {
      "status": "0x1",
      "cumulativeGasUsed": "0x21650c7",
      "logs": [
        {
          "address": "0x8aafd3ede9adb0ff97c7aebce82a919afb1c8764",
          "topics": [
            "0xddf252ad1be2c89b69c2b068fc378daa952ba7f163c4a11628f55a4df523b3ef",
            "0x000000000000000000000000c77f7fed3b5cc8249adc428c5f44c9063b9734b4",
            "0x0000000000000000000000000000000000000000000000000000000000000000"
          ],
          "data": "0x000000000000000000000000000000000000000000000000000000000004a4ef",
          "blockHash": "0x5307e8c81c5898ed4d06a838e428e3943ea9f7dbd6057737a6427480678d35cf",
          "blockNumber": "0x731f41",
          "transactionHash": "0x049854e6538bd74ee44c4e8486815bc34649ee2266e38f30421158b121b8f82a",
          "transactionIndex": "0x4e",
          "logIndex": "0x1108",
          "removed": false
        },
        {
          "address": "0x8aafd3ede9adb0ff97c7aebce82a919afb1c8764",
          "topics": [
            "0xddf252ad1be2c89b69c2b068fc378daa952ba7f163c4a11628f55a4df523b3ef",
            "0x000000000000000000000000c77f7fed3b5cc8249adc428c5f44c9063b9734b4",
            "0x000000000000000000000000c77f7fed3b5cc8249adc428c5f44c9063b9734b4"
          ],
          "data": "0x0000000000000000000000000000000000000000000000000000000000000996",
          "blockHash": "0x5307e8c81c5898ed4d06a838e428e3943ea9f7dbd6057737a6427480678d35cf",
          "blockNumber": "0x731f41",
          "transactionHash": "0x049854e6538bd74ee44c4e8486815bc34649ee2266e38f30421158b121b8f82a",
          "transactionIndex": "0x4e",
          "logIndex": "0x1109",
          "removed": false
        },
        {
          "address": "0x8aafd3ede9adb0ff97c7aebce82a919afb1c8764",
          "topics": [
            "0x4afcb4a87cdbd9974efdb92ee48bc8d7cd0ae4bf217004db3d080cbaee652ca7"
          ],
          "data": "0x00000000000000000000000000000000000000000000000000000000679073f4000000000000000000000000000000000000000000000000001837f956d37b4e000000000000000000000000000000000000000000000000000000000000082b",
          "blockHash": "0x5307e8c81c5898ed4d06a838e428e3943ea9f7dbd6057737a6427480678d35cf",
          "blockNumber": "0x731f41",
          "transactionHash": "0x049854e6538bd74ee44c4e8486815bc34649ee2266e38f30421158b121b8f82a",
          "transactionIndex": "0x4e",
          "logIndex": "0x110a",
          "removed": false
        }
      ],
      "logsBloom": "0x00000000000000000000000000000000000000000600000000000000000000000000000000000000000000000000000000000000000000004000000000000000000000000000004000000008000000000000000000000000000000000000000000000000020000000000000000000800020000000000000000000010000000000000000000000000000000000000000000000000000000000000010000000000000000000000000000000000000000004000000000000000000000000000000000000002000000800000000000000000000000000000080000000000000020000000000000000000000000000000000000000000000000000000000000000000",
      "type": "0x2",
      "transactionHash": "0x049854e6538bd74ee44c4e8486815bc34649ee2266e38f30421158b121b8f82a",
      "transactionIndex": "0x4e",
      "blockHash": "0x5307e8c81c5898ed4d06a838e428e3943ea9f7dbd6057737a6427480678d35cf",
      "blockNumber": "0x731f41",
      "gasUsed": "0xf213",
      "effectiveGasPrice": "0x322cfb2b",
      "from": "0xc77f7fed3b5cc8249adc428c5f44c9063b9734b4",
      "to": "0x8aafd3ede9adb0ff97c7aebce82a919afb1c8764",
      "contractAddress": null
    }
  ],
  "libraries": [],
  "pending": [],
  "returns": {},
  "timestamp": 1737520117,
  "chain": 11155111,
  "commit": "1d2fb70"
}