{
  "transactions": [
    {
      "hash": "0x7606967dae6d7f1a1ad293791e9eea4b08e35f32eb143c35b8654293635f5572",
      "transactionType": "CALL",
      "contractName": null,
      "contractAddress": "0x5eb9cc76c3506942c1c0ead70e877dd5e4f00cb0",
      "function": "buy(address)",
      "arguments": [
        "0xC77f7fed3b5Cc8249aDc428c5F44C9063B9734b4"
      ],
      "transaction": {
        "from": "0xc77f7fed3b5cc8249adc428c5f44c9063b9734b4",
        "to": "0x5eb9cc76c3506942c1c0ead70e877dd5e4f00cb0",
        "gas": "0x1b30c",
        "value": "0xde0b6b3a7640000",
        "input": "0xf088d547000000000000000000000000c77f7fed3b5cc8249adc428c5f44c9063b9734b4",
        "nonce": "0x446",
        "chainId": "0xaa36a7"
      },
      "additionalContracts": [],
      "isFixedGasLimit": false
    }
  ],
  "receipts": [
    {
      "status": "0x1",
      "cumulativeGasUsed": "0xe48502",
      "logs": [
        {
          "address": "0x5eb9cc76c3506942c1c0ead70e877dd5e4f00cb0",
          "topics": [
            "0xddf252ad1be2c89b69c2b068fc378daa952ba7f163c4a11628f55a4df523b3ef",
            "0x0000000000000000000000000000000000000000000000000000000000000000",
            "0x000000000000000000000000c77f7fed3b5cc8249adc428c5f44c9063b9734b4"
          ],
          "data": "0x00000000000000000000000000000000000000000000003574dab60b8b067a93",
          "blockHash": "0x7a26160c59e9ace291260abd771799dbbcc786c8f13d4a72d3f189b372727c7c",
          "blockNumber": "0x725065",
          "transactionHash": "0x7606967dae6d7f1a1ad293791e9eea4b08e35f32eb143c35b8654293635f5572",
          "transactionIndex": "0x6a",
          "logIndex": "0xb0",
          "removed": false
        },
        {
          "address": "0x5eb9cc76c3506942c1c0ead70e877dd5e4f00cb0",
          "topics": [
            "0xddf252ad1be2c89b69c2b068fc378daa952ba7f163c4a11628f55a4df523b3ef",
            "0x0000000000000000000000000000000000000000000000000000000000000000",
            "0x000000000000000000000000c77f7fed3b5cc8249adc428c5f44c9063b9734b4"
          ],
          "data": "0x0000000000000000000000000000000000000000000000002982c19542f681d1",
          "blockHash": "0x7a26160c59e9ace291260abd771799dbbcc786c8f13d4a72d3f189b372727c7c",
          "blockNumber": "0x725065",
          "transactionHash": "0x7606967dae6d7f1a1ad293791e9eea4b08e35f32eb143c35b8654293635f5572",
          "transactionIndex": "0x6a",
          "logIndex": "0xb1",
          "removed": false
        },
        {
          "address": "0x5eb9cc76c3506942c1c0ead70e877dd5e4f00cb0",
          "topics": [
            "0x4afcb4a87cdbd9974efdb92ee48bc8d7cd0ae4bf217004db3d080cbaee652ca7"
          ],
          "data": "0x000000000000000000000000000000000000000000000000000000006786b688000000000000000000000000000000000000000000000000000391180f6e7f740000000000000000000000000000000000000000000000000de0b6b3a7640000",
          "blockHash": "0x7a26160c59e9ace291260abd771799dbbcc786c8f13d4a72d3f189b372727c7c",
          "blockNumber": "0x725065",
          "transactionHash": "0x7606967dae6d7f1a1ad293791e9eea4b08e35f32eb143c35b8654293635f5572",
          "transactionIndex": "0x6a",
          "logIndex": "0xb2",
          "removed": false
        }
      ],
      "logsBloom": "0x00000000000000000000000000000000000000000000000000000000000000000000000000000000000000000000000000000000000000004000000000000000000000000000000000000008000000000000000000000000000000000000000000000000020000000000000004000800020000000000000000000010000000000000000000000000000000000000000000000000000000000000010000000000000000000000000000000000000000004000000000000000000000000000020000000002000000800000008000000000000000000000080000000000000020000000000000000000000000000000000000000000000000000000000000000000",
      "type": "0x2",
      "transactionHash": "0x7606967dae6d7f1a1ad293791e9eea4b08e35f32eb143c35b8654293635f5572",
      "transactionIndex": "0x6a",
      "blockHash": "0x7a26160c59e9ace291260abd771799dbbcc786c8f13d4a72d3f189b372727c7c",
      "blockNumber": "0x725065",
      "gasUsed": "0x13af8",
      "effectiveGasPrice": "0x27564dba8",
      "from": "0xc77f7fed3b5cc8249adc428c5f44c9063b9734b4",
      "to": "0x5eb9cc76c3506942c1c0ead70e877dd5e4f00cb0",
      "contractAddress": null
    }
  ],
  "libraries": [],
  "pending": [],
  "returns": {},
  "timestamp": 1736881800,
  "chain": 11155111,
  "commit": "51a374b"
}