{
  "transactions": [
    {
      "hash": "0x9d12fc5f52d98ed454b9f998c942e54909a650bfc04ac8ef467d68127600c47b",
      "transactionType": "CALL",
      "contractName": null,
      "contractAddress": "0xbf4a322f1496e5c3d34a9bcdb4c60567b38c7de2",
      "function": "buy(address)",
      "arguments": [
        "0xC77f7fed3b5Cc8249aDc428c5F44C9063B9734b4"
      ],
      "transaction": {
        "from": "0xc77f7fed3b5cc8249adc428c5f44c9063b9734b4",
        "to": "0xbf4a322f1496e5c3d34a9bcdb4c60567b38c7de2",
        "gas": "0x1b309",
        "value": "0xde0b6b3a7640000",
        "input": "0xf088d547000000000000000000000000c77f7fed3b5cc8249adc428c5f44c9063b9734b4",
        "nonce": "0xb40",
        "chainId": "0xaa36a7"
      },
      "additionalContracts": [],
      "isFixedGasLimit": false
    }
  ],
  "receipts": [
    {
      "status": "0x1",
      "cumulativeGasUsed": "0xd037da",
      "logs": [
        {
          "address": "0xbf4a322f1496e5c3d34a9bcdb4c60567b38c7de2",
          "topics": [
            "0xddf252ad1be2c89b69c2b068fc378daa952ba7f163c4a11628f55a4df523b3ef",
            "0x0000000000000000000000000000000000000000000000000000000000000000",
            "0x000000000000000000000000c77f7fed3b5cc8249adc428c5f44c9063b9734b4"
          ],
          "data": "0x0000000000000000000000000000000000000000000000351f2692a9298fd0bc",
          "blockHash": "0x8f7cb334a7f7f796e8a77dcc597ba57cbe13b00bc5f6dc1eccad176dd5d12eef",
          "blockNumber": "0x725b44",
          "transactionHash": "0x9d12fc5f52d98ed454b9f998c942e54909a650bfc04ac8ef467d68127600c47b",
          "transactionIndex": "0x4d",
          "logIndex": "0x61",
          "removed": false
        },
        {
          "address": "0xbf4a322f1496e5c3d34a9bcdb4c60567b38c7de2",
          "topics": [
            "0xddf252ad1be2c89b69c2b068fc378daa952ba7f163c4a11628f55a4df523b3ef",
            "0x0000000000000000000000000000000000000000000000000000000000000000",
            "0x000000000000000000000000c77f7fed3b5cc8249adc428c5f44c9063b9734b4"
          ],
          "data": "0x000000000000000000000000000000000000000000000000294034513dda4ef4",
          "blockHash": "0x8f7cb334a7f7f796e8a77dcc597ba57cbe13b00bc5f6dc1eccad176dd5d12eef",
          "blockNumber": "0x725b44",
          "transactionHash": "0x9d12fc5f52d98ed454b9f998c942e54909a650bfc04ac8ef467d68127600c47b",
          "transactionIndex": "0x4d",
          "logIndex": "0x62",
          "removed": false
        },
        {
          "address": "0xbf4a322f1496e5c3d34a9bcdb4c60567b38c7de2",
          "topics": [
            "0x4afcb4a87cdbd9974efdb92ee48bc8d7cd0ae4bf217004db3d080cbaee652ca7"
          ],
          "data": "0x000000000000000000000000000000000000000000000000000000006787398c000000000000000000000000000000000000000000000000000396db7f7a774e0000000000000000000000000000000000000000000000000de0b6b3a7640000",
          "blockHash": "0x8f7cb334a7f7f796e8a77dcc597ba57cbe13b00bc5f6dc1eccad176dd5d12eef",
          "blockNumber": "0x725b44",
          "transactionHash": "0x9d12fc5f52d98ed454b9f998c942e54909a650bfc04ac8ef467d68127600c47b",
          "transactionIndex": "0x4d",
          "logIndex": "0x63",
          "removed": false
        }
      ],
      "logsBloom": "0x00000000000000000000000000000000000000000000000000000000000000000000000000000000000000000000000000000000000000004000000000000000000000000000000000000008000000000000001000000000000000000000000000000000020000000000000000000800020000000000000000000010000000000000000000000000000000000000000000000000000008000000010000000000000000000000000000000000000000004000000000000000000000000000000000000002000000800000000000001000000000000000080000000000000020000000000000000000000000000000000000000000000000000000000000000000",
      "type": "0x2",
      "transactionHash": "0x9d12fc5f52d98ed454b9f998c942e54909a650bfc04ac8ef467d68127600c47b",
      "transactionIndex": "0x4d",
      "blockHash": "0x8f7cb334a7f7f796e8a77dcc597ba57cbe13b00bc5f6dc1eccad176dd5d12eef",
      "blockNumber": "0x725b44",
      "gasUsed": "0x13af6",
      "effectiveGasPrice": "0x43b15fd6",
      "from": "0xc77f7fed3b5cc8249adc428c5f44c9063b9734b4",
      "to": "0xbf4a322f1496e5c3d34a9bcdb4c60567b38c7de2",
      "contractAddress": null
    }
  ],
  "libraries": [],
  "pending": [],
  "returns": {},
  "timestamp": 1736915341,
  "chain": 11155111,
  "commit": "51a374b"
}