{
  "transactions": [
    {
      "hash": "0x13f2f6f343322be4c7862d58ca33ec445a77a2cbf3f9a50ff8e5efd92c940072",
      "transactionType": "CALL",
      "contractName": null,
      "contractAddress": "0x8aafd3ede9adb0ff97c7aebce82a919afb1c8764",
      "function": "sell(uint256)",
      "arguments": [
        "5753103815929362789"
      ],
      "transaction": {
        "from": "0xc77f7fed3b5cc8249adc428c5f44c9063b9734b4",
        "to": "0x8aafd3ede9adb0ff97c7aebce82a919afb1c8764",
        "gas": "0x15dca",
        "value": "0x0",
        "input": "0xe4849b320000000000000000000000000000000000000000000000004fd721707869f965",
        "nonce": "0x1010",
        "chainId": "0xaa36a7"
      },
      "additionalContracts": [],
      "isFixedGasLimit": false
    }
  ],
  "receipts": [
    {
      "status": "0x1",
      "cumulativeGasUsed": "0xfad1e2",
      "logs": [
        {
          "address": "0x8aafd3ede9adb0ff97c7aebce82a919afb1c8764",
          "topics": [
            "0xddf252ad1be2c89b69c2b068fc378daa952ba7f163c4a11628f55a4df523b3ef",
            "0x000000000000000000000000c77f7fed3b5cc8249adc428c5f44c9063b9734b4",
            "0x0000000000000000000000000000000000000000000000000000000000000000"
          ],
          "data": "0x0000000000000000000000000000000000000000000000004f339e198dfa88cf",
          "blockHash": "0x3ed7f6ee9162597e15c9bef816115d3d7da9805e96c5668c079d4119e4bee643",
          "blockNumber": "0x731687",
          "transactionHash": "0x13f2f6f343322be4c7862d58ca33ec445a77a2cbf3f9a50ff8e5efd92c940072",
          "transactionIndex": "0x83",
          "logIndex": "0xcd",
          "removed": false
        },
        {
          "address": "0x8aafd3ede9adb0ff97c7aebce82a919afb1c8764",
          "topics": [
            "0xddf252ad1be2c89b69c2b068fc378daa952ba7f163c4a11628f55a4df523b3ef",
            "0x000000000000000000000000c77f7fed3b5cc8249adc428c5f44c9063b9734b4",
            "0x000000000000000000000000c77f7fed3b5cc8249adc428c5f44c9063b9734b4"
          ],
          "data": "0x00000000000000000000000000000000000000000000000000a38356ea6f7096",
          "blockHash": "0x3ed7f6ee9162597e15c9bef816115d3d7da9805e96c5668c079d4119e4bee643",
          "blockNumber": "0x731687",
          "transactionHash": "0x13f2f6f343322be4c7862d58ca33ec445a77a2cbf3f9a50ff8e5efd92c940072",
          "transactionIndex": "0x83",
          "logIndex": "0xce",
          "removed": false
        },
        {
          "address": "0x8aafd3ede9adb0ff97c7aebce82a919afb1c8764",
          "topics": [
            "0x4afcb4a87cdbd9974efdb92ee48bc8d7cd0ae4bf217004db3d080cbaee652ca7"
          ],
          "data": "0x0000000000000000000000000000000000000000000000000000000067900b000000000000000000000000000000000000000000000000000004e94dd9146359000000000000000000000000000000000000000000000000001c415a72103f07",
          "blockHash": "0x3ed7f6ee9162597e15c9bef816115d3d7da9805e96c5668c079d4119e4bee643",
          "blockNumber": "0x731687",
          "transactionHash": "0x13f2f6f343322be4c7862d58ca33ec445a77a2cbf3f9a50ff8e5efd92c940072",
          "transactionIndex": "0x83",
          "logIndex": "0xcf",
          "removed": false
        }
      ],
      "logsBloom": "0x00000000000000000000000000000000000000000600000000000000000000000000000000000000000000000000000000000000000000004000000000000000000000000000004000000008000000000000000000000000000000000000000000000000020000000000000000000800020000000000000000000010000000000000000000000000000000000000000000000000000000000000010000000000000000000000000000000000000000004000000000000000000000000000000000000002000000800000000000000000000000000000080000000000000020000000000000000000000000000000000000000000000000000000000000000000",
      "type": "0x2",
      "transactionHash": "0x13f2f6f343322be4c7862d58ca33ec445a77a2cbf3f9a50ff8e5efd92c940072",
      "transactionIndex": "0x83",
      "blockHash": "0x3ed7f6ee9162597e15c9bef816115d3d7da9805e96c5668c079d4119e4bee643",
      "blockNumber": "0x731687",
      "gasUsed": "0xfd3f",
      "effectiveGasPrice": "0x3f6c5d56",
      "from": "0xc77f7fed3b5cc8249adc428c5f44c9063b9734b4",
      "to": "0x8aafd3ede9adb0ff97c7aebce82a919afb1c8764",
      "contractAddress": null
    }
  ],
  "libraries": [],
  "pending": [],
  "returns": {},
  "timestamp": 1737493250,
  "chain": 11155111,
  "commit": "1d2fb70"
}