{
  "transactions": [
    {
      "hash": "0xc7e65883c760635af1b5332f6722428c97adcd84f50048aaace69ae1e4771e54",
      "transactionType": "CALL",
      "contractName": null,
      "contractAddress": "0x8aafd3ede9adb0ff97c7aebce82a919afb1c8764",
      "function": "sell(uint256)",
      "arguments": [
        "1439883671897598578"
      ],
      "transaction": {
        "from": "0xc77f7fed3b5cc8249adc428c5f44c9063b9734b4",
        "to": "0x8aafd3ede9adb0ff97c7aebce82a919afb1c8764",
        "gas": "0x15dca",
        "value": "0x0",
        "input": "0xe4849b3200000000000000000000000000000000000000000000000013fb7e921d576a72",
        "nonce": "0x15e1",
        "chainId": "0xaa36a7"
      },
      "additionalContracts": [],
      "isFixedGasLimit": false
    }
  ],
  "receipts": [
    {
      "status": "0x1",
      "cumulativeGasUsed": "0xe9e4a5",
      "logs": [
        {
          "address": "0x8aafd3ede9adb0ff97c7aebce82a919afb1c8764",
          "topics": [
            "0xddf252ad1be2c89b69c2b068fc378daa952ba7f163c4a11628f55a4df523b3ef",
            "0x000000000000000000000000c77f7fed3b5cc8249adc428c5f44c9063b9734b4",
            "0x0000000000000000000000000000000000000000000000000000000000000000"
          ],
          "data": "0x00000000000000000000000000000000000000000000000013d29209c7173a7e",
          "blockHash": "0x620dfebc88552866581a23944d6b146ffa20c9af7e87c344560cf69be4aba58f",
          "blockNumber": "0x731d63",
          "transactionHash": "0xc7e65883c760635af1b5332f6722428c97adcd84f50048aaace69ae1e4771e54",
          "transactionIndex": "0x74",
          "logIndex": "0xd4",
          "removed": false
        },
        {
          "address": "0x8aafd3ede9adb0ff97c7aebce82a919afb1c8764",
          "topics": [
            "0xddf252ad1be2c89b69c2b068fc378daa952ba7f163c4a11628f55a4df523b3ef",
            "0x000000000000000000000000c77f7fed3b5cc8249adc428c5f44c9063b9734b4",
            "0x000000000000000000000000c77f7fed3b5cc8249adc428c5f44c9063b9734b4"
          ],
          "data": "0x0000000000000000000000000000000000000000000000000028ec8856402ff4",
          "blockHash": "0x620dfebc88552866581a23944d6b146ffa20c9af7e87c344560cf69be4aba58f",
          "blockNumber": "0x731d63",
          "transactionHash": "0xc7e65883c760635af1b5332f6722428c97adcd84f50048aaace69ae1e4771e54",
          "transactionIndex": "0x74",
          "logIndex": "0xd5",
          "removed": false
        },
        {
          "address": "0x8aafd3ede9adb0ff97c7aebce82a919afb1c8764",
          "topics": [
            "0x4afcb4a87cdbd9974efdb92ee48bc8d7cd0ae4bf217004db3d080cbaee652ca7"
          ],
          "data": "0x0000000000000000000000000000000000000000000000000000000067905d8c0000000000000000000000000000000000000000000000000013b4890127170b000000000000000000000000000000000000000000000000001c5f503b6fe523",
          "blockHash": "0x620dfebc88552866581a23944d6b146ffa20c9af7e87c344560cf69be4aba58f",
          "blockNumber": "0x731d63",
          "transactionHash": "0xc7e65883c760635af1b5332f6722428c97adcd84f50048aaace69ae1e4771e54",
          "transactionIndex": "0x74",
          "logIndex": "0xd6",
          "removed": false
        }
      ],
      "logsBloom": "0x00000000000000000000000000000000000000000600000000000000000000000000000000000000000000000000000000000000000000004000000000000000000000000000004000000008000000000000000000000000000000000000000000000000020000000000000000000800020000000000000000000010000000000000000000000000000000000000000000000000000000000000010000000000000000000000000000000000000000004000000000000000000000000000000000000002000000800000000000000000000000000000080000000000000020000000000000000000000000000000000000000000000000000000000000000000",
      "type": "0x2",
      "transactionHash": "0xc7e65883c760635af1b5332f6722428c97adcd84f50048aaace69ae1e4771e54",
      "transactionIndex": "0x74",
      "blockHash": "0x620dfebc88552866581a23944d6b146ffa20c9af7e87c344560cf69be4aba58f",
      "blockNumber": "0x731d63",
      "gasUsed": "0xfd3f",
      "effectiveGasPrice": "0x68b11575",
      "from": "0xc77f7fed3b5cc8249adc428c5f44c9063b9734b4",
      "to": "0x8aafd3ede9adb0ff97c7aebce82a919afb1c8764",
      "contractAddress": null
    }
  ],
  "libraries": [],
  "pending": [],
  "returns": {},
  "timestamp": 1737514381,
  "chain": 11155111,
  "commit": "1d2fb70"
}