{
  "transactions": [
    {
      "hash": "0x9f0c530c8202a4c3cf78294d69359975ad7d3b22728c473e82e1de7fd365684d",
      "transactionType": "CALL",
      "contractName": null,
      "contractAddress": "0x270e88f8683660553e8ba4eb2ad7c91a1710d769",
      "function": "buy(address)",
      "arguments": [
        "0xC77f7fed3b5Cc8249aDc428c5F44C9063B9734b4"
      ],
      "transaction": {
        "from": "0xc77f7fed3b5cc8249adc428c5f44c9063b9734b4",
        "to": "0x270e88f8683660553e8ba4eb2ad7c91a1710d769",
        "gas": "0x1b30c",
        "value": "0xde0b6b3a7640000",
        "input": "0xf088d547000000000000000000000000c77f7fed3b5cc8249adc428c5f44c9063b9734b4",
        "nonce": "0x644",
        "chainId": "0xaa36a7"
      },
      "additionalContracts": [],
      "isFixedGasLimit": false
    }
  ],
  "receipts": [
    {
      "status": "0x1",
      "cumulativeGasUsed": "0x7cb1c5",
      "logs": [
        {
          "address": "0x270e88f8683660553e8ba4eb2ad7c91a1710d769",
          "topics": [
            "0xddf252ad1be2c89b69c2b068fc378daa952ba7f163c4a11628f55a4df523b3ef",
            "0x0000000000000000000000000000000000000000000000000000000000000000",
            "0x000000000000000000000000c77f7fed3b5cc8249adc428c5f44c9063b9734b4"
          ],
          "data": "0x00000000000000000000000000000000000000000000002c93e1a936d0235656",
          "blockHash": "0x3665b13796520fb62d92aee3c4a0c7f333730c4b2d558f39e4f15f7441587acb",
          "blockNumber": "0x72532d",
          "transactionHash": "0x9f0c530c8202a4c3cf78294d69359975ad7d3b22728c473e82e1de7fd365684d",
          "transactionIndex": "0x45",
          "logIndex": "0x89",
          "removed": false
        },
        {
          "address": "0x270e88f8683660553e8ba4eb2ad7c91a1710d769",
          "topics": [
            "0xddf252ad1be2c89b69c2b068fc378daa952ba7f163c4a11628f55a4df523b3ef",
            "0x0000000000000000000000000000000000000000000000000000000000000000",
            "0x000000000000000000000000c77f7fed3b5cc8249adc428c5f44c9063b9734b4"
          ],
          "data": "0x000000000000000000000000000000000000000000000000229db719891f6cc0",
          "blockHash": "0x3665b13796520fb62d92aee3c4a0c7f333730c4b2d558f39e4f15f7441587acb",
          "blockNumber": "0x72532d",
          "transactionHash": "0x9f0c530c8202a4c3cf78294d69359975ad7d3b22728c473e82e1de7fd365684d",
          "transactionIndex": "0x45",
          "logIndex": "0x8a",
          "removed": false
        },
        {
          "address": "0x270e88f8683660553e8ba4eb2ad7c91a1710d769",
          "topics": [
            "0x4afcb4a87cdbd9974efdb92ee48bc8d7cd0ae4bf217004db3d080cbaee652ca7"
          ],
          "data": "0x000000000000000000000000000000000000000000000000000000006786d824000000000000000000000000000000000000000000000000000446f7b0d17dc00000000000000000000000000000000000000000000000000de0b6b3a7640000",
          "blockHash": "0x3665b13796520fb62d92aee3c4a0c7f333730c4b2d558f39e4f15f7441587acb",
          "blockNumber": "0x72532d",
          "transactionHash": "0x9f0c530c8202a4c3cf78294d69359975ad7d3b22728c473e82e1de7fd365684d",
          "transactionIndex": "0x45",
          "logIndex": "0x8b",
          "removed": false
        }
      ],
      "logsBloom": "0x00000000000000000000000000000000000000000000000000000000000000000000000000000000000000000000000020000000000000004000000000000000000000000000000000000008000000000000000000000000000000000000000000000000020000000000000000000800020000000000000000000010000000000000000000010000000000000000000000000000000000000000010000000000000000000000000000000000000000004000000000000000000000000000000000000002000000800000000000000000000000000000080000008000000020000000000000000000000000000000000000000000000000000000000000000000",
      "type": "0x2",
      "transactionHash": "0x9f0c530c8202a4c3cf78294d69359975ad7d3b22728c473e82e1de7fd365684d",
      "transactionIndex": "0x45",
      "blockHash": "0x3665b13796520fb62d92aee3c4a0c7f333730c4b2d558f39e4f15f7441587acb",
      "blockNumber": "0x72532d",
      "gasUsed": "0x13af8",
      "effectiveGasPrice": "0x1fa9805b2",
      "from": "0xc77f7fed3b5cc8249adc428c5f44c9063b9734b4",
      "to": "0x270e88f8683660553e8ba4eb2ad7c91a1710d769",
      "contractAddress": null
    }
  ],
  "libraries": [],
  "pending": [],
  "returns": {},
  "timestamp": 1736890405,
  "chain": 11155111,
  "commit": "51a374b"
}