{
  "transactions": [
    {
      "hash": "0x8d5e0a6ce5fe25121dd743ba9db69cef6807d353f43f2bbf07f396fe2a769195",
      "transactionType": "CALL",
      "contractName": null,
      "contractAddress": "0xbf4a322f1496e5c3d34a9bcdb4c60567b38c7de2",
      "function": "buy(address)",
      "arguments": [
        "0xC77f7fed3b5Cc8249aDc428c5F44C9063B9734b4"
      ],
      "transaction": {
        "from": "0xc77f7fed3b5cc8249adc428c5f44c9063b9734b4",
        "to": "0xbf4a322f1496e5c3d34a9bcdb4c60567b38c7de2",
        "gas": "0x1b309",
        "value": "0xde0b6b3a7640000",
        "input": "0xf088d547000000000000000000000000c77f7fed3b5cc8249adc428c5f44c9063b9734b4",
        "nonce": "0xb5a",
        "chainId": "0xaa36a7"
      },
      "additionalContracts": [],
      "isFixedGasLimit": false
    }
  ],
  "receipts": [
    {
      "status": "0x1",
      "cumulativeGasUsed": "0x75c3d8",
      "logs": [
        {
          "address": "0xbf4a322f1496e5c3d34a9bcdb4c60567b38c7de2",
          "topics": [
            "0xddf252ad1be2c89b69c2b068fc378daa952ba7f163c4a11628f55a4df523b3ef",
            "0x0000000000000000000000000000000000000000000000000000000000000000",
            "0x000000000000000000000000c77f7fed3b5cc8249adc428c5f44c9063b9734b4"
          ],
          "data": "0x0000000000000000000000000000000000000000000000351a4b3c801b89e04a",
          "blockHash": "0x34a858aeb2f0559cb4ccdbb77c7d6d7ed441c984a3672c367f20c2800f8257c3",
          "blockNumber": "0x725b62",
          "transactionHash": "0x8d5e0a6ce5fe25121dd743ba9db69cef6807d353f43f2bbf07f396fe2a769195",
          "transactionIndex": "0x49",
          "logIndex": "0x4d",
          "removed": false
        },
        {
          "address": "0xbf4a322f1496e5c3d34a9bcdb4c60567b38c7de2",
          "topics": [
            "0xddf252ad1be2c89b69c2b068fc378daa952ba7f163c4a11628f55a4df523b3ef",
            "0x0000000000000000000000000000000000000000000000000000000000000000",
            "0x000000000000000000000000c77f7fed3b5cc8249adc428c5f44c9063b9734b4"
          ],
          "data": "0x000000000000000000000000000000000000000000000000293c6ed2f817ceb3",
          "blockHash": "0x34a858aeb2f0559cb4ccdbb77c7d6d7ed441c984a3672c367f20c2800f8257c3",
          "blockNumber": "0x725b62",
          "transactionHash": "0x8d5e0a6ce5fe25121dd743ba9db69cef6807d353f43f2bbf07f396fe2a769195",
          "transactionIndex": "0x49",
          "logIndex": "0x4e",
          "removed": false
        },
        {
          "address": "0xbf4a322f1496e5c3d34a9bcdb4c60567b38c7de2",
          "topics": [
            "0x4afcb4a87cdbd9974efdb92ee48bc8d7cd0ae4bf217004db3d080cbaee652ca7"
          ],
          "data": "0x0000000000000000000000000000000000000000000000000000000067873af40000000000000000000000000000000000000000000000000003972f89370a400000000000000000000000000000000000000000000000000de0b6b3a7640000",
          "blockHash": "0x34a858aeb2f0559cb4ccdbb77c7d6d7ed441c984a3672c367f20c2800f8257c3",
          "blockNumber": "0x725b62",
          "transactionHash": "0x8d5e0a6ce5fe25121dd743ba9db69cef6807d353f43f2bbf07f396fe2a769195",
          "transactionIndex": "0x49",
          "logIndex": "0x4f",
          "removed": false
        }
      ],
      "logsBloom": "0x00000000000000000000000000000000000000000000000000000000000000000000000000000000000000000000000000000000000000004000000000000000000000000000000000000008000000000000001000000000000000000000000000000000020000000000000000000800020000000000000000000010000000000000000000000000000000000000000000000000000008000000010000000000000000000000000000000000000000004000000000000000000000000000000000000002000000800000000000001000000000000000080000000000000020000000000000000000000000000000000000000000000000000000000000000000",
      "type": "0x2",
      "transactionHash": "0x8d5e0a6ce5fe25121dd743ba9db69cef6807d353f43f2bbf07f396fe2a769195",
      "transactionIndex": "0x49",
      "blockHash": "0x34a858aeb2f0559cb4ccdbb77c7d6d7ed441c984a3672c367f20c2800f8257c3",
      "blockNumber": "0x725b62",
      "gasUsed": "0x13af6",
      "effectiveGasPrice": "0x44604011",
      "from": "0xc77f7fed3b5cc8249adc428c5f44c9063b9734b4",
      "to": "0xbf4a322f1496e5c3d34a9bcdb4c60567b38c7de2",
      "contractAddress": null
    }
  ],
  "libraries": [],
  "pending": [],
  "returns": {},
  "timestamp": 1736915702,
  "chain": 11155111,
  "commit": "51a374b"
}