{
  "transactions": [
    {
      "hash": "0x4a7c6dd27f5b4f8aa44a5aab6024253a904b663f3ee9fd0eb18102bac15096d6",
      "transactionType": "CALL",
      "contractName": null,
      "contractAddress": "0x8aafd3ede9adb0ff97c7aebce82a919afb1c8764",
      "function": "sell(uint256)",
      "arguments": [
        "1439865"
      ],
      "transaction": {
        "from": "0xc77f7fed3b5cc8249adc428c5f44c9063b9734b4",
        "to": "0x8aafd3ede9adb0ff97c7aebce82a919afb1c8764",
        "gas": "0x16208",
        "value": "0x0",
        "input": "0xe4849b32000000000000000000000000000000000000000000000000000000000015f879",
        "nonce": "0x11b0",
        "chainId": "0xaa36a7"
      },
      "additionalContracts": [],
      "isFixedGasLimit": false
    }
  ],
  "receipts": [
    {
      "status": "0x1",
      "cumulativeGasUsed": "0x78ab0e",
      "logs": [
        {
          "address": "0x8aafd3ede9adb0ff97c7aebce82a919afb1c8764",
          "topics": [
            "0xddf252ad1be2c89b69c2b068fc378daa952ba7f163c4a11628f55a4df523b3ef",
            "0x000000000000000000000000c77f7fed3b5cc8249adc428c5f44c9063b9734b4",
            "0x0000000000000000000000000000000000000000000000000000000000000000"
          ],
          "data": "0x000000000000000000000000000000000000000000000000000000000015cb7b",
          "blockHash": "0x37130ae1f2c0be1d82ac7b3d6f83ade71b0efe072a7d422d8795da58c4cfcda9",
          "blockNumber": "0x73187d",
          "transactionHash": "0x4a7c6dd27f5b4f8aa44a5aab6024253a904b663f3ee9fd0eb18102bac15096d6",
          "transactionIndex": "0x71",
          "logIndex": "0x67",
          "removed": false
        },
        {
          "address": "0x8aafd3ede9adb0ff97c7aebce82a919afb1c8764",
          "topics": [
            "0xddf252ad1be2c89b69c2b068fc378daa952ba7f163c4a11628f55a4df523b3ef",
            "0x000000000000000000000000c77f7fed3b5cc8249adc428c5f44c9063b9734b4",
            "0x000000000000000000000000c77f7fed3b5cc8249adc428c5f44c9063b9734b4"
          ],
          "data": "0x0000000000000000000000000000000000000000000000000000000000002cfe",
          "blockHash": "0x37130ae1f2c0be1d82ac7b3d6f83ade71b0efe072a7d422d8795da58c4cfcda9",
          "blockNumber": "0x73187d",
          "transactionHash": "0x4a7c6dd27f5b4f8aa44a5aab6024253a904b663f3ee9fd0eb18102bac15096d6",
          "transactionIndex": "0x71",
          "logIndex": "0x68",
          "removed": false
        },
        {
          "address": "0x8aafd3ede9adb0ff97c7aebce82a919afb1c8764",
          "topics": [
            "0x4afcb4a87cdbd9974efdb92ee48bc8d7cd0ae4bf217004db3d080cbaee652ca7"
          ],
          "data": "0x00000000000000000000000000000000000000000000000000000000679022ac000000000000000000000000000000000000000000000000000524daed34730c0000000000000000000000000000000000000000000000000000000000000824",
          "blockHash": "0x37130ae1f2c0be1d82ac7b3d6f83ade71b0efe072a7d422d8795da58c4cfcda9",
          "blockNumber": "0x73187d",
          "transactionHash": "0x4a7c6dd27f5b4f8aa44a5aab6024253a904b663f3ee9fd0eb18102bac15096d6",
          "transactionIndex": "0x71",
          "logIndex": "0x69",
          "removed": false
        }
      ],
      "logsBloom": "0x00000000000000000000000000000000000000000600000000000000000000000000000000000000000000000000000000000000000000004000000000000000000000000000004000000008000000000000000000000000000000000000000000000000020000000000000000000800020000000000000000000010000000000000000000000000000000000000000000000000000000000000010000000000000000000000000000000000000000004000000000000000000000000000000000000002000000800000000000000000000000000000080000000000000020000000000000000000000000000000000000000000000000000000000000000000",
      "type": "0x2",
      "transactionHash": "0x4a7c6dd27f5b4f8aa44a5aab6024253a904b663f3ee9fd0eb18102bac15096d6",
      "transactionIndex": "0x71",
      "blockHash": "0x37130ae1f2c0be1d82ac7b3d6f83ade71b0efe072a7d422d8795da58c4cfcda9",
      "blockNumber": "0x73187d",
      "gasUsed": "0xf213",
      "effectiveGasPrice": "0x478e92fc",
      "from": "0xc77f7fed3b5cc8249adc428c5f44c9063b9734b4",
      "to": "0x8aafd3ede9adb0ff97c7aebce82a919afb1c8764",
      "contractAddress": null
    }
  ],
  "libraries": [],
  "pending": [],
  "returns": {},
  "timestamp": 1737499309,
  "chain": 11155111,
  "commit": "1d2fb70"
}