{
  "transactions": [
    {
      "hash": "0x6e35a1b7a91eba13785c9c9539258f48f031633a32aebaa23d153cb2235e15cb",
      "transactionType": "CALL",
      "contractName": null,
      "contractAddress": "0x8aafd3ede9adb0ff97c7aebce82a919afb1c8764",
      "function": "sell(uint256)",
      "arguments": [
        "1971458439543206598"
      ],
      "transaction": {
        "from": "0xc77f7fed3b5cc8249adc428c5f44c9063b9734b4",
        "to": "0x8aafd3ede9adb0ff97c7aebce82a919afb1c8764",
        "gas": "0x15dca",
        "value": "0x0",
        "input": "0xe4849b320000000000000000000000000000000000000000000000001b5c07016a6b32c6",
        "nonce": "0x1416",
        "chainId": "0xaa36a7"
      },
      "additionalContracts": [],
      "isFixedGasLimit": false
    }
  ],
  "receipts": [
    {
      "status": "0x1",
      "cumulativeGasUsed": "0x946c23",
      "logs": [
        {
          "address": "0x8aafd3ede9adb0ff97c7aebce82a919afb1c8764",
          "topics": [
            "0xddf252ad1be2c89b69c2b068fc378daa952ba7f163c4a11628f55a4df523b3ef",
            "0x000000000000000000000000c77f7fed3b5cc8249adc428c5f44c9063b9734b4",
            "0x0000000000000000000000000000000000000000000000000000000000000000"
          ],
          "data": "0x0000000000000000000000000000000000000000000000001b23fec1ea976592",
          "blockHash": "0x29584165b6d4bdd99d734ebf8f3230a07e4c361652fc3b30e6274f635d4d4ed9",
          "blockNumber": "0x731b51",
          "transactionHash": "0x6e35a1b7a91eba13785c9c9539258f48f031633a32aebaa23d153cb2235e15cb",
          "transactionIndex": "0x4d",
          "logIndex": "0x43",
          "removed": false
        },
        {
          "address": "0x8aafd3ede9adb0ff97c7aebce82a919afb1c8764",
          "topics": [
            "0xddf252ad1be2c89b69c2b068fc378daa952ba7f163c4a11628f55a4df523b3ef",
            "0x000000000000000000000000c77f7fed3b5cc8249adc428c5f44c9063b9734b4",
            "0x000000000000000000000000c77f7fed3b5cc8249adc428c5f44c9063b9734b4"
          ],
          "data": "0x0000000000000000000000000000000000000000000000000038083f7fd3cd34",
          "blockHash": "0x29584165b6d4bdd99d734ebf8f3230a07e4c361652fc3b30e6274f635d4d4ed9",
          "blockNumber": "0x731b51",
          "transactionHash": "0x6e35a1b7a91eba13785c9c9539258f48f031633a32aebaa23d153cb2235e15cb",
          "transactionIndex": "0x4d",
          "logIndex": "0x44",
          "removed": false
        },
        {
          "address": "0x8aafd3ede9adb0ff97c7aebce82a919afb1c8764",
          "topics": [
            "0x4afcb4a87cdbd9974efdb92ee48bc8d7cd0ae4bf217004db3d080cbaee652ca7"
          ],
          "data": "0x000000000000000000000000000000000000000000000000000000006790449c000000000000000000000000000000000000000000000000000e6b1de89b813b000000000000000000000000000000000000000000000000001c6c913ec0a0cb",
          "blockHash": "0x29584165b6d4bdd99d734ebf8f3230a07e4c361652fc3b30e6274f635d4d4ed9",
          "blockNumber": "0x731b51",
          "transactionHash": "0x6e35a1b7a91eba13785c9c9539258f48f031633a32aebaa23d153cb2235e15cb",
          "transactionIndex": "0x4d",
          "logIndex": "0x45",
          "removed": false
        }
      ],
      "logsBloom": "0x00000000000000000000000000000000000000000600000000000000000000000000000000000000000000000000000000000000000000004000000000000000000000000000004000000008000000000000000000000000000000000000000000000000020000000000000000000800020000000000000000000010000000000000000000000000000000000000000000000000000000000000010000000000000000000000000000000000000000004000000000000000000000000000000000000002000000800000000000000000000000000000080000000000000020000000000000000000000000000000000000000000000000000000000000000000",
      "type": "0x2",
      "transactionHash": "0x6e35a1b7a91eba13785c9c9539258f48f031633a32aebaa23d153cb2235e15cb",
      "transactionIndex": "0x4d",
      "blockHash": "0x29584165b6d4bdd99d734ebf8f3230a07e4c361652fc3b30e6274f635d4d4ed9",
      "blockNumber": "0x731b51",
      "gasUsed": "0xfd3f",
      "effectiveGasPrice": "0xd978d937",
      "from": "0xc77f7fed3b5cc8249adc428c5f44c9063b9734b4",
      "to": "0x8aafd3ede9adb0ff97c7aebce82a919afb1c8764",
      "contractAddress": null
    }
  ],
  "libraries": [],
  "pending": [],
  "returns": {},
  "timestamp": 1737507998,
  "chain": 11155111,
  "commit": "1d2fb70"
}