{
  "transactions": [
    {
      "hash": "0xb38a27aed6b2ed94f628cd97cf0f549421ff56b3503f2574e955c2abbdf7a0a5",
      "transactionType": "CALL",
      "contractName": null,
      "contractAddress": "0x270e88f8683660553e8ba4eb2ad7c91a1710d769",
      "function": "buy(address)",
      "arguments": [
        "0xC77f7fed3b5Cc8249aDc428c5F44C9063B9734b4"
      ],
      "transaction": {
        "from": "0xc77f7fed3b5cc8249adc428c5f44c9063b9734b4",
        "to": "0x270e88f8683660553e8ba4eb2ad7c91a1710d769",
        "gas": "0x1b30c",
        "value": "0xde0b6b3a7640000",
        "input": "0xf088d547000000000000000000000000c77f7fed3b5cc8249adc428c5f44c9063b9734b4",
        "nonce": "0x652",
        "chainId": "0xaa36a7"
      },
      "additionalContracts": [],
      "isFixedGasLimit": false
    }
  ],
  "receipts": [
    {
      "status": "0x1",
      "cumulativeGasUsed": "0xc26cde",
      "logs": [
        {
          "address": "0x270e88f8683660553e8ba4eb2ad7c91a1710d769",
          "topics": [
            "0xddf252ad1be2c89b69c2b068fc378daa952ba7f163c4a11628f55a4df523b3ef",
            "0x0000000000000000000000000000000000000000000000000000000000000000",
            "0x000000000000000000000000c77f7fed3b5cc8249adc428c5f44c9063b9734b4"
          ],
          "data": "0x00000000000000000000000000000000000000000000002c92684d059b13402e",
          "blockHash": "0x9adb1d3223bc32b46d4813a46f71c7e5405f8682f3aee2d886d67fe28e84b026",
          "blockNumber": "0x72533d",
          "transactionHash": "0xb38a27aed6b2ed94f628cd97cf0f549421ff56b3503f2574e955c2abbdf7a0a5",
          "transactionIndex": "0x58",
          "logIndex": "0x94",
          "removed": false
        },
        {
          "address": "0x270e88f8683660553e8ba4eb2ad7c91a1710d769",
          "topics": [
            "0xddf252ad1be2c89b69c2b068fc378daa952ba7f163c4a11628f55a4df523b3ef",
            "0x0000000000000000000000000000000000000000000000000000000000000000",
            "0x000000000000000000000000c77f7fed3b5cc8249adc428c5f44c9063b9734b4"
          ],
          "data": "0x000000000000000000000000000000000000000000000000229c921115d13bbf",
          "blockHash": "0x9adb1d3223bc32b46d4813a46f71c7e5405f8682f3aee2d886d67fe28e84b026",
          "blockNumber": "0x72533d",
          "transactionHash": "0xb38a27aed6b2ed94f628cd97cf0f549421ff56b3503f2574e955c2abbdf7a0a5",
          "transactionIndex": "0x58",
          "logIndex": "0x95",
          "removed": false
        },
        {
          "address": "0x270e88f8683660553e8ba4eb2ad7c91a1710d769",
          "topics": [
            "0x4afcb4a87cdbd9974efdb92ee48bc8d7cd0ae4bf217004db3d080cbaee652ca7"
          ],
          "data": "0x000000000000000000000000000000000000000000000000000000006786d8e40000000000000000000000000000000000000000000000000004471be71afa1f0000000000000000000000000000000000000000000000000de0b6b3a7640000",
          "blockHash": "0x9adb1d3223bc32b46d4813a46f71c7e5405f8682f3aee2d886d67fe28e84b026",
          "blockNumber": "0x72533d",
          "transactionHash": "0xb38a27aed6b2ed94f628cd97cf0f549421ff56b3503f2574e955c2abbdf7a0a5",
          "transactionIndex": "0x58",
          "logIndex": "0x96",
          "removed": false
        }
      ],
      "logsBloom": "0x00000000000000000000000000000000000000000000000000000000000000000000000000000000000000000000000020000000000000004000000000000000000000000000000000000008000000000000000000000000000000000000000000000000020000000000000000000800020000000000000000000010000000000000000000010000000000000000000000000000000000000000010000000000000000000000000000000000000000004000000000000000000000000000000000000002000000800000000000000000000000000000080000008000000020000000000000000000000000000000000000000000000000000000000000000000",
      "type": "0x2",
      "transactionHash": "0xb38a27aed6b2ed94f628cd97cf0f549421ff56b3503f2574e955c2abbdf7a0a5",
      "transactionIndex": "0x58",
      "blockHash": "0x9adb1d3223bc32b46d4813a46f71c7e5405f8682f3aee2d886d67fe28e84b026",
      "blockNumber": "0x72533d",
      "gasUsed": "0x13af8",
      "effectiveGasPrice": "0x1af4e7746",
      "from": "0xc77f7fed3b5cc8249adc428c5f44c9063b9734b4",
      "to": "0x270e88f8683660553e8ba4eb2ad7c91a1710d769",
      "contractAddress": null
    }
  ],
  "libraries": [],
  "pending": [],
  "returns": {},
  "timestamp": 1736890597,
  "chain": 11155111,
  "commit": "51a374b"
}