{
  "transactions": [
    {
      "hash": "0x261480f34b03a388d73ce23e7c1cd0fe6be4b3382ec7b96cc50b8c8fdb65e959",
      "transactionType": "CALL",
      "contractName": null,
      "contractAddress": "0x8aafd3ede9adb0ff97c7aebce82a919afb1c8764",
      "function": "sell(uint256)",
      "arguments": [
        "302848"
      ],
      "transaction": {
        "from": "0xc77f7fed3b5cc8249adc428c5f44c9063b9734b4",
        "to": "0x8aafd3ede9adb0ff97c7aebce82a919afb1c8764",
        "gas": "0x14e4c",
        "value": "0x0",
        "input": "0xe4849b320000000000000000000000000000000000000000000000000000000000049f00",
        "nonce": "0x1785",
        "chainId": "0xaa36a7"
      },
      "additionalContracts": [],
      "isFixedGasLimit": false
    }
  ],
  "receipts": [
    {
      "status": "0x1",
      "cumulativeGasUsed": "0xc370a6",
      "logs": [
        {
          "address": "0x8aafd3ede9adb0ff97c7aebce82a919afb1c8764",
          "topics": [
            "0xddf252ad1be2c89b69c2b068fc378daa952ba7f163c4a11628f55a4df523b3ef",
            "0x000000000000000000000000c77f7fed3b5cc8249adc428c5f44c9063b9734b4",
            "0x0000000000000000000000000000000000000000000000000000000000000000"
          ],
          "data": "0x000000000000000000000000000000000000000000000000000000000004958a",
          "blockHash": "0xaa28b182cbb7155b49af861dd4c4908ac49b59108bb79f7c1af56c5cab29d580",
          "blockNumber": "0x731f60",
          "transactionHash": "0x261480f34b03a388d73ce23e7c1cd0fe6be4b3382ec7b96cc50b8c8fdb65e959",
          "transactionIndex": "0x66",
          "logIndex": "0xa5",
          "removed": false
        },
        {
          "address": "0x8aafd3ede9adb0ff97c7aebce82a919afb1c8764",
          "topics": [
            "0xddf252ad1be2c89b69c2b068fc378daa952ba7f163c4a11628f55a4df523b3ef",
            "0x000000000000000000000000c77f7fed3b5cc8249adc428c5f44c9063b9734b4",
            "0x000000000000000000000000c77f7fed3b5cc8249adc428c5f44c9063b9734b4"
          ],
          "data": "0x0000000000000000000000000000000000000000000000000000000000000976",
          "blockHash": "0xaa28b182cbb7155b49af861dd4c4908ac49b59108bb79f7c1af56c5cab29d580",
          "blockNumber": "0x731f60",
          "transactionHash": "0x261480f34b03a388d73ce23e7c1cd0fe6be4b3382ec7b96cc50b8c8fdb65e959",
          "transactionIndex": "0x66",
          "logIndex": "0xa6",
          "removed": false
        },
        {
          "address": "0x8aafd3ede9adb0ff97c7aebce82a919afb1c8764",
          "topics": [
            "0x4afcb4a87cdbd9974efdb92ee48bc8d7cd0ae4bf217004db3d080cbaee652ca7"
          ],
          "data": "0x0000000000000000000000000000000000000000000000000000000067907568000000000000000000000000000000000000000000000000001888f5227da31f000000000000000000000000000000000000000000000000000000000000082b",
          "blockHash": "0xaa28b182cbb7155b49af861dd4c4908ac49b59108bb79f7c1af56c5cab29d580",
          "blockNumber": "0x731f60",
          "transactionHash": "0x261480f34b03a388d73ce23e7c1cd0fe6be4b3382ec7b96cc50b8c8fdb65e959",
          "transactionIndex": "0x66",
          "logIndex": "0xa7",
          "removed": false
        }
      ],
      "logsBloom": "0x00000000000000000000000000000000000000000600000000000000000000000000000000000000000000000000000000000000000000004000000000000000000000000000004000000008000000000000000000000000000000000000000000000000020000000000000000000800020000000000000000000010000000000000000000000000000000000000000000000000000000000000010000000000000000000000000000000000000000004000000000000000000000000000000000000002000000800000000000000000000000000000080000000000000020000000000000000000000000000000000000000000000000000000000000000000",
      "type": "0x2",
      "transactionHash": "0x261480f34b03a388d73ce23e7c1cd0fe6be4b3382ec7b96cc50b8c8fdb65e959",
      "transactionIndex": "0x66",
      "blockHash": "0xaa28b182cbb7155b49af861dd4c4908ac49b59108bb79f7c1af56c5cab29d580",
      "blockNumber": "0x731f60",
      "gasUsed": "0xf207",
      "effectiveGasPrice": "0x3f0810d4",
      "from": "0xc77f7fed3b5cc8249adc428c5f44c9063b9734b4",
      "to": "0x8aafd3ede9adb0ff97c7aebce82a919afb1c8764",
      "contractAddress": null
    }
  ],
  "libraries": [],
  "pending": [],
  "returns": {},
  "timestamp": 1737520489,
  "chain": 11155111,
  "commit": "1d2fb70"
}