{
  "transactions": [
    {
      "hash": "0xc6011fb6dc2e5a0145517f153e7bcab367c703c420c9b741d0d8e4422820ae90",
      "transactionType": "CALL",
      "contractName": null,
      "contractAddress": "0x5eb9cc76c3506942c1c0ead70e877dd5e4f00cb0",
      "function": "sell(uint256)",
      "arguments": [
        "989137289164943608157"
      ],
      "transaction": {
        "from": "0xc77f7fed3b5cc8249adc428c5f44c9063b9734b4",
        "to": "0x5eb9cc76c3506942c1c0ead70e877dd5e4f00cb0",
        "gas": "0x16fec",
        "value": "0x0",
        "input": "0xe4849b320000000000000000000000000000000000000000000000359f0993d2514d495d",
        "nonce": "0x317",
        "chainId": "0xaa36a7"
      },
      "additionalContracts": [],
      "isFixedGasLimit": false
    }
  ],
  "receipts": [
    {
      "status": "0x1",
      "cumulativeGasUsed": "0x1488cec",
      "logs": [
        {
          "address": "0x5eb9cc76c3506942c1c0ead70e877dd5e4f00cb0",
          "topics": [
            "0xddf252ad1be2c89b69c2b068fc378daa952ba7f163c4a11628f55a4df523b3ef",
            "0x000000000000000000000000c77f7fed3b5cc8249adc428c5f44c9063b9734b4",
            "0x0000000000000000000000000000000000000000000000000000000000000000"
          ],
          "data": "0x0000000000000000000000000000000000000000000000359f0993d2514d495d",
          "blockHash": "0x09de6b4f301c1747a0a2a2df34353c1b1cdc6bbc69e285266175598494bb2500",
          "blockNumber": "0x724efc",
          "transactionHash": "0xc6011fb6dc2e5a0145517f153e7bcab367c703c420c9b741d0d8e4422820ae90",
          "transactionIndex": "0x51",
          "logIndex": "0x9a",
          "removed": false
        },
        {
          "address": "0x5eb9cc76c3506942c1c0ead70e877dd5e4f00cb0",
          "topics": [
            "0x4afcb4a87cdbd9974efdb92ee48bc8d7cd0ae4bf217004db3d080cbaee652ca7"
          ],
          "data": "0x000000000000000000000000000000000000000000000000000000006786a5840000000000000000000000000000000000000000000000000003910ca8f863cb0000000000000000000000000000000000000000000000000dc7db133229ccac",
          "blockHash": "0x09de6b4f301c1747a0a2a2df34353c1b1cdc6bbc69e285266175598494bb2500",
          "blockNumber": "0x724efc",
          "transactionHash": "0xc6011fb6dc2e5a0145517f153e7bcab367c703c420c9b741d0d8e4422820ae90",
          "transactionIndex": "0x51",
          "logIndex": "0x9b",
          "removed": false
        }
      ],
      "logsBloom": "0x00000000000000000000000000000000000000000000000000000000000000000000000000000000000000000000000000000000000000004000000000000000000000000000000000000008000000000000000000000000000000000000000000000000020000000000000004000800020000000000000000000010000000000000000000000000000000000000000000000000000000000000010000000000000000000000000000000000000000004000000000000000000000000000020000000002000000800000008000000000000000000000080000000000000020000000000000000000000000000000000000000000000000000000000000000000",
      "type": "0x2",
      "transactionHash": "0xc6011fb6dc2e5a0145517f153e7bcab367c703c420c9b741d0d8e4422820ae90",
      "transactionIndex": "0x51",
      "blockHash": "0x09de6b4f301c1747a0a2a2df34353c1b1cdc6bbc69e285266175598494bb2500",
      "blockNumber": "0x724efc",
      "gasUsed": "0xfb93",
      "effectiveGasPrice": "0x66a20b03e",
      "from": "0xc77f7fed3b5cc8249adc428c5f44c9063b9734b4",
      "to": "0x5eb9cc76c3506942c1c0ead70e877dd5e4f00cb0",
      "contractAddress": null
    }
  ],
  "libraries": [],
  "pending": [],
  "returns": {},
  "timestamp": 1736877446,
  "chain": 11155111,
  "commit": "51a374b"
}