{
  "transactions": [
    {
      "hash": "0x2e8ec68d0f47c4297f76236203d0c979f34cdce537be6ed9ec8fcfa86b6fc578",
      "transactionType": "CALL",
      "contractName": null,
      "contractAddress": "0x270e88f8683660553e8ba4eb2ad7c91a1710d769",
      "function": "sell(uint256)",
      "arguments": [
        "712401080997995498553"
      ],
      "transaction": {
        "from": "0xc77f7fed3b5cc8249adc428c5f44c9063b9734b4",
        "to": "0x270e88f8683660553e8ba4eb2ad7c91a1710d769",
        "gas": "0x16fec",
        "value": "0x0",
        "input": "0xe4849b320000000000000000000000000000000000000000000000269e8d10b479ce4c39",
        "nonce": "0x87e",
        "chainId": "0xaa36a7"
      },
      "additionalContracts": [],
      "isFixedGasLimit": false
    }
  ],
  "receipts": [
    {
      "status": "0x1",
      "cumulativeGasUsed": "0x542c81",
      "logs": [
        {
          "address": "0x270e88f8683660553e8ba4eb2ad7c91a1710d769",
          "topics": [
            "0xddf252ad1be2c89b69c2b068fc378daa952ba7f163c4a11628f55a4df523b3ef",
            "0x000000000000000000000000c77f7fed3b5cc8249adc428c5f44c9063b9734b4",
            "0x0000000000000000000000000000000000000000000000000000000000000000"
          ],
          "data": "0x0000000000000000000000000000000000000000000000269e8d10b479ce4c39",
          "blockHash": "0xacacbf5f1e097f0c934093158ef5553a934e8803225b71090d7d85c2b7691c25",
          "blockNumber": "0x7255d9",
          "transactionHash": "0x2e8ec68d0f47c4297f76236203d0c979f34cdce537be6ed9ec8fcfa86b6fc578",
          "transactionIndex": "0x33",
          "logIndex": "0x45",
          "removed": false
        },
        {
          "address": "0x270e88f8683660553e8ba4eb2ad7c91a1710d769",
          "topics": [
            "0x4afcb4a87cdbd9974efdb92ee48bc8d7cd0ae4bf217004db3d080cbaee652ca7"
          ],
          "data": "0x000000000000000000000000000000000000000000000000000000006786f8340000000000000000000000000000000000000000000000000004f4056f2bd91e0000000000000000000000000000000000000000000000000dc825a46d092c7f",
          "blockHash": "0xacacbf5f1e097f0c934093158ef5553a934e8803225b71090d7d85c2b7691c25",
          "blockNumber": "0x7255d9",
          "transactionHash": "0x2e8ec68d0f47c4297f76236203d0c979f34cdce537be6ed9ec8fcfa86b6fc578",
          "transactionIndex": "0x33",
          "logIndex": "0x46",
          "removed": false
        }
      ],
      "logsBloom": "0x00000000000000000000000000000000000000000000000000000000000000000000000000000000000000000000000020000000000000004000000000000000000000000000000000000008000000000000000000000000000000000000000000000000020000000000000000000800020000000000000000000010000000000000000000010000000000000000000000000000000000000000010000000000000000000000000000000000000000004000000000000000000000000000000000000002000000800000000000000000000000000000080000008000000020000000000000000000000000000000000000000000000000000000000000000000",
      "type": "0x2",
      "transactionHash": "0x2e8ec68d0f47c4297f76236203d0c979f34cdce537be6ed9ec8fcfa86b6fc578",
      "transactionIndex": "0x33",
      "blockHash": "0xacacbf5f1e097f0c934093158ef5553a934e8803225b71090d7d85c2b7691c25",
      "blockNumber": "0x7255d9",
      "gasUsed": "0xfb93",
      "effectiveGasPrice": "0xc242dd88",
      "from": "0xc77f7fed3b5cc8249adc428c5f44c9063b9734b4",
      "to": "0x270e88f8683660553e8ba4eb2ad7c91a1710d769",
      "contractAddress": null
    }
  ],
  "libraries": [],
  "pending": [],
  "returns": {},
  "timestamp": 1736898613,
  "chain": 11155111,
  "commit": "51a374b"
}