{
  "transactions": [
    {
      "hash": "0x4ac6176a12e62499c88e9d442f96245c5a0b64b069868cd87ebeaa0cbb3664bd",
      "transactionType": "CALL",
      "contractName": null,
      "contractAddress": "0x5eb9cc76c3506942c1c0ead70e877dd5e4f00cb0",
      "function": "sell(uint256)",
      "arguments": [
        "989118803129321287964"
      ],
      "transaction": {
        "from": "0xc77f7fed3b5cc8249adc428c5f44c9063b9734b4",
        "to": "0x5eb9cc76c3506942c1c0ead70e877dd5e4f00cb0",
        "gas": "0x16fec",
        "value": "0x0",
        "input": "0xe4849b320000000000000000000000000000000000000000000000359ec7e6debeba711c",
        "nonce": "0x38b",
        "chainId": "0xaa36a7"
      },
      "additionalContracts": [],
      "isFixedGasLimit": false
    }
  ],
  "receipts": [
    {
      "status": "0x1",
      "cumulativeGasUsed": "0xf12876",
      "logs": [
        {
          "address": "0x5eb9cc76c3506942c1c0ead70e877dd5e4f00cb0",
          "topics": [
            "0xddf252ad1be2c89b69c2b068fc378daa952ba7f163c4a11628f55a4df523b3ef",
            "0x000000000000000000000000c77f7fed3b5cc8249adc428c5f44c9063b9734b4",
            "0x0000000000000000000000000000000000000000000000000000000000000000"
          ],
          "data": "0x0000000000000000000000000000000000000000000000359ec7e6debeba711c",
          "blockHash": "0x54ed0861b553d892af266de77519a1a014b14a9daa884194778cc5b604e6b559",
          "blockNumber": "0x724f85",
          "transactionHash": "0x4ac6176a12e62499c88e9d442f96245c5a0b64b069868cd87ebeaa0cbb3664bd",
          "transactionIndex": "0x64",
          "logIndex": "0xa3",
          "removed": false
        },
        {
          "address": "0x5eb9cc76c3506942c1c0ead70e877dd5e4f00cb0",
          "topics": [
            "0x4afcb4a87cdbd9974efdb92ee48bc8d7cd0ae4bf217004db3d080cbaee652ca7"
          ],
          "data": "0x000000000000000000000000000000000000000000000000000000006786abf000000000000000000000000000000000000000000000000000039111074c80d10000000000000000000000000000000000000000000000000dc7db133208e7f0",
          "blockHash": "0x54ed0861b553d892af266de77519a1a014b14a9daa884194778cc5b604e6b559",
          "blockNumber": "0x724f85",
          "transactionHash": "0x4ac6176a12e62499c88e9d442f96245c5a0b64b069868cd87ebeaa0cbb3664bd",
          "transactionIndex": "0x64",
          "logIndex": "0xa4",
          "removed": false
        }
      ],
      "logsBloom": "0x00000000000000000000000000000000000000000000000000000000000000000000000000000000000000000000000000000000000000004000000000000000000000000000000000000008000000000000000000000000000000000000000000000000020000000000000004000800020000000000000000000010000000000000000000000000000000000000000000000000000000000000010000000000000000000000000000000000000000004000000000000000000000000000020000000002000000800000008000000000000000000000080000000000000020000000000000000000000000000000000000000000000000000000000000000000",
      "type": "0x2",
      "transactionHash": "0x4ac6176a12e62499c88e9d442f96245c5a0b64b069868cd87ebeaa0cbb3664bd",
      "transactionIndex": "0x64",
      "blockHash": "0x54ed0861b553d892af266de77519a1a014b14a9daa884194778cc5b604e6b559",
      "blockNumber": "0x724f85",
      "gasUsed": "0xfb93",
      "effectiveGasPrice": "0x591a8ce31",
      "from": "0xc77f7fed3b5cc8249adc428c5f44c9063b9734b4",
      "to": "0x5eb9cc76c3506942c1c0ead70e877dd5e4f00cb0",
      "contractAddress": null
    }
  ],
  "libraries": [],
  "pending": [],
  "returns": {},
  "timestamp": 1736879091,
  "chain": 11155111,
  "commit": "51a374b"
}