{
  "transactions": [
    {
      "hash": "0x8233fcd6606cc9184db9fe83a97ac18db3874be9bb54d70dc79bb1bbb946a0fa",
      "transactionType": "CALL",
      "contractName": null,
      "contractAddress": "0x8aafd3ede9adb0ff97c7aebce82a919afb1c8764",
      "function": "sell(uint256)",
      "arguments": [
        "1499472"
      ],
      "transaction": {
        "from": "0xc77f7fed3b5cc8249adc428c5f44c9063b9734b4",
        "to": "0x8aafd3ede9adb0ff97c7aebce82a919afb1c8764",
        "gas": "0x16208",
        "value": "0x0",
        "input": "0xe4849b32000000000000000000000000000000000000000000000000000000000016e150",
        "nonce": "0x1048",
        "chainId": "0xaa36a7"
      },
      "additionalContracts": [],
      "isFixedGasLimit": false
    }
  ],
  "receipts": [
    {
      "status": "0x1",
      "cumulativeGasUsed": "0x18235d7",
      "logs": [
        {
          "address": "0x8aafd3ede9adb0ff97c7aebce82a919afb1c8764",
          "topics": [
            "0xddf252ad1be2c89b69c2b068fc378daa952ba7f163c4a11628f55a4df523b3ef",
            "0x000000000000000000000000c77f7fed3b5cc8249adc428c5f44c9063b9734b4",
            "0x0000000000000000000000000000000000000000000000000000000000000000"
          ],
          "data": "0x000000000000000000000000000000000000000000000000000000000016b275",
          "blockHash": "0xc58154baef638801f38c32ebab0fe64e7407e5ec76e063b062d64c38e73e3892",
          "blockNumber": "0x7316c9",
          "transactionHash": "0x8233fcd6606cc9184db9fe83a97ac18db3874be9bb54d70dc79bb1bbb946a0fa",
          "transactionIndex": "0x91",
          "logIndex": "0x91",
          "removed": false
        },
        {
          "address": "0x8aafd3ede9adb0ff97c7aebce82a919afb1c8764",
          "topics": [
            "0xddf252ad1be2c89b69c2b068fc378daa952ba7f163c4a11628f55a4df523b3ef",
            "0x000000000000000000000000c77f7fed3b5cc8249adc428c5f44c9063b9734b4",
            "0x000000000000000000000000c77f7fed3b5cc8249adc428c5f44c9063b9734b4"
          ],
          "data": "0x0000000000000000000000000000000000000000000000000000000000002edb",
          "blockHash": "0xc58154baef638801f38c32ebab0fe64e7407e5ec76e063b062d64c38e73e3892",
          "blockNumber": "0x7316c9",
          "transactionHash": "0x8233fcd6606cc9184db9fe83a97ac18db3874be9bb54d70dc79bb1bbb946a0fa",
          "transactionIndex": "0x91",
          "logIndex": "0x92",
          "removed": false
        },
        {
          "address": "0x8aafd3ede9adb0ff97c7aebce82a919afb1c8764",
          "topics": [
            "0x4afcb4a87cdbd9974efdb92ee48bc8d7cd0ae4bf217004db3d080cbaee652ca7"
          ],
          "data": "0x0000000000000000000000000000000000000000000000000000000067900e240000000000000000000000000000000000000000000000000004f09087c47ba20000000000000000000000000000000000000000000000000000000000000824",
          "blockHash": "0xc58154baef638801f38c32ebab0fe64e7407e5ec76e063b062d64c38e73e3892",
          "blockNumber": "0x7316c9",
          "transactionHash": "0x8233fcd6606cc9184db9fe83a97ac18db3874be9bb54d70dc79bb1bbb946a0fa",
          "transactionIndex": "0x91",
          "logIndex": "0x93",
          "removed": false
        }
      ],
      "logsBloom": "0x00000000000000000000000000000000000000000600000000000000000000000000000000000000000000000000000000000000000000004000000000000000000000000000004000000008000000000000000000000000000000000000000000000000020000000000000000000800020000000000000000000010000000000000000000000000000000000000000000000000000000000000010000000000000000000000000000000000000000004000000000000000000000000000000000000002000000800000000000000000000000000000080000000000000020000000000000000000000000000000000000000000000000000000000000000000",
      "type": "0x2",
      "transactionHash": "0x8233fcd6606cc9184db9fe83a97ac18db3874be9bb54d70dc79bb1bbb946a0fa",
      "transactionIndex": "0x91",
      "blockHash": "0xc58154baef638801f38c32ebab0fe64e7407e5ec76e063b062d64c38e73e3892",
      "blockNumber": "0x7316c9",
      "gasUsed": "0xf213",
      "effectiveGasPrice": "0x3b895542",
      "from": "0xc77f7fed3b5cc8249adc428c5f44c9063b9734b4",
      "to": "0x8aafd3ede9adb0ff97c7aebce82a919afb1c8764",
      "contractAddress": null
    }
  ],
  "libraries": [],
  "pending": [],
  "returns": {},
  "timestamp": 1737494053,
  "chain": 11155111,
  "commit": "1d2fb70"
}