{
  "transactions": [
    {
      "hash": "0xf8ebe59f0270956b7a61176d9ef371462b60bd5335b9790577bede4b100cc299",
      "transactionType": "CALL",
      "contractName": null,
      "contractAddress": "0x270e88f8683660553e8ba4eb2ad7c91a1710d769",
      "function": "sell(uint256)",
      "arguments": [
        "757752488663922029527"
      ],
      "transaction": {
        "from": "0xc77f7fed3b5cc8249adc428c5f44c9063b9734b4",
        "to": "0x270e88f8683660553e8ba4eb2ad7c91a1710d769",
        "gas": "0x16fec",
        "value": "0x0",
        "input": "0xe4849b3200000000000000000000000000000000000000000000002913eda1b1f148b3d7",
        "nonce": "0x678",
        "chainId": "0xaa36a7"
      },
      "additionalContracts": [],
      "isFixedGasLimit": false
    }
  ],
  "receipts": [
    {
      "status": "0x1",
      "cumulativeGasUsed": "0x674572",
      "logs": [
        {
          "address": "0x270e88f8683660553e8ba4eb2ad7c91a1710d769",
          "topics": [
            "0xddf252ad1be2c89b69c2b068fc378daa952ba7f163c4a11628f55a4df523b3ef",
            "0x000000000000000000000000c77f7fed3b5cc8249adc428c5f44c9063b9734b4",
            "0x0000000000000000000000000000000000000000000000000000000000000000"
          ],
          "data": "0x00000000000000000000000000000000000000000000002913eda1b1f148b3d7",
          "blockHash": "0xf2722534bfe70d643bc30934cc47630de26f48cda4bb08d2e1391a728cec3fa5",
          "blockNumber": "0x725374",
          "transactionHash": "0xf8ebe59f0270956b7a61176d9ef371462b60bd5335b9790577bede4b100cc299",
          "transactionIndex": "0x45",
          "logIndex": "0x66",
          "removed": false
        },
        {
          "address": "0x270e88f8683660553e8ba4eb2ad7c91a1710d769",
          "topics": [
            "0x4afcb4a87cdbd9974efdb92ee48bc8d7cd0ae4bf217004db3d080cbaee652ca7"
          ],
          "data": "0x000000000000000000000000000000000000000000000000000000006786db780000000000000000000000000000000000000000000000000004a825d2bca5660000000000000000000000000000000000000000000000000dc82a562d777e11",
          "blockHash": "0xf2722534bfe70d643bc30934cc47630de26f48cda4bb08d2e1391a728cec3fa5",
          "blockNumber": "0x725374",
          "transactionHash": "0xf8ebe59f0270956b7a61176d9ef371462b60bd5335b9790577bede4b100cc299",
          "transactionIndex": "0x45",
          "logIndex": "0x67",
          "removed": false
        }
      ],
      "logsBloom": "0x00000000000000000000000000000000000000000000000000000000000000000000000000000000000000000000000020000000000000004000000000000000000000000000000000000008000000000000000000000000000000000000000000000000020000000000000000000800020000000000000000000010000000000000000000010000000000000000000000000000000000000000010000000000000000000000000000000000000000004000000000000000000000000000000000000002000000800000000000000000000000000000080000008000000020000000000000000000000000000000000000000000000000000000000000000000",
      "type": "0x2",
      "transactionHash": "0xf8ebe59f0270956b7a61176d9ef371462b60bd5335b9790577bede4b100cc299",
      "transactionIndex": "0x45",
      "blockHash": "0xf2722534bfe70d643bc30934cc47630de26f48cda4bb08d2e1391a728cec3fa5",
      "blockNumber": "0x725374",
      "gasUsed": "0xfb93",
      "effectiveGasPrice": "0x210165283",
      "from": "0xc77f7fed3b5cc8249adc428c5f44c9063b9734b4",
      "to": "0x270e88f8683660553e8ba4eb2ad7c91a1710d769",
      "contractAddress": null
    }
  ],
  "libraries": [],
  "pending": [],
  "returns": {},
  "timestamp": 1736891258,
  "chain": 11155111,
  "commit": "51a374b"
}