{
  "transactions": [
    {
      "hash": "0xc8f6ef4eb3283710f93a798a12dfbd63d472f90bf722558bc36c5e71987b027b",
      "transactionType": "CALL",
      "contractName": null,
      "contractAddress": "0x8aafd3ede9adb0ff97c7aebce82a919afb1c8764",
      "function": "sell(uint256)",
      "arguments": [
        "329855"
      ],
      "transaction": {
        "from": "0xc77f7fed3b5cc8249adc428c5f44c9063b9734b4",
        "to": "0x8aafd3ede9adb0ff97c7aebce82a919afb1c8764",
        "gas": "0x16208",
        "value": "0x0",
        "input": "0xe4849b32000000000000000000000000000000000000000000000000000000000005087f",
        "nonce": "0x16da",
        "chainId": "0xaa36a7"
      },
      "additionalContracts": [],
      "isFixedGasLimit": false
    }
  ],
  "receipts": [
    {
      "status": "0x1",
      "cumulativeGasUsed": "0x16c4f4c",
      "logs": [
        {
          "address": "0x8aafd3ede9adb0ff97c7aebce82a919afb1c8764",
          "topics": [
            "0xddf252ad1be2c89b69c2b068fc378daa952ba7f163c4a11628f55a4df523b3ef",
            "0x000000000000000000000000c77f7fed3b5cc8249adc428c5f44c9063b9734b4",
            "0x0000000000000000000000000000000000000000000000000000000000000000"
          ],
          "data": "0x000000000000000000000000000000000000000000000000000000000004fe31",
          "blockHash": "0x3ede66336d71a691886bc9fcc700d69cd5fdf66ab70f287da6bb5cd6f04c56be",
          "blockNumber": "0x731e97",
          "transactionHash": "0xc8f6ef4eb3283710f93a798a12dfbd63d472f90bf722558bc36c5e71987b027b",
          "transactionIndex": "0x87",
          "logIndex": "0xd2",
          "removed": false
        },
        {
          "address": "0x8aafd3ede9adb0ff97c7aebce82a919afb1c8764",
          "topics": [
            "0xddf252ad1be2c89b69c2b068fc378daa952ba7f163c4a11628f55a4df523b3ef",
            "0x000000000000000000000000c77f7fed3b5cc8249adc428c5f44c9063b9734b4",
            "0x000000000000000000000000c77f7fed3b5cc8249adc428c5f44c9063b9734b4"
          ],
          "data": "0x0000000000000000000000000000000000000000000000000000000000000a4e",
          "blockHash": "0x3ede66336d71a691886bc9fcc700d69cd5fdf66ab70f287da6bb5cd6f04c56be",
          "blockNumber": "0x731e97",
          "transactionHash": "0xc8f6ef4eb3283710f93a798a12dfbd63d472f90bf722558bc36c5e71987b027b",
          "transactionIndex": "0x87",
          "logIndex": "0xd3",
          "removed": false
        },
        {
          "address": "0x8aafd3ede9adb0ff97c7aebce82a919afb1c8764",
          "topics": [
            "0x4afcb4a87cdbd9974efdb92ee48bc8d7cd0ae4bf217004db3d080cbaee652ca7"
          ],
          "data": "0x0000000000000000000000000000000000000000000000000000000067906bfc000000000000000000000000000000000000000000000000001688d30679c650000000000000000000000000000000000000000000000000000000000000082c",
          "blockHash": "0x3ede66336d71a691886bc9fcc700d69cd5fdf66ab70f287da6bb5cd6f04c56be",
          "blockNumber": "0x731e97",
          "transactionHash": "0xc8f6ef4eb3283710f93a798a12dfbd63d472f90bf722558bc36c5e71987b027b",
          "transactionIndex": "0x87",
          "logIndex": "0xd4",
          "removed": false
        }
      ],
      "logsBloom": "0x00000000000000000000000000000000000000000600000000000000000000000000000000000000000000000000000000000000000000004000000000000000000000000000004000000008000000000000000000000000000000000000000000000000020000000000000000000800020000000000000000000010000000000000000000000000000000000000000000000000000000000000010000000000000000000000000000000000000000004000000000000000000000000000000000000002000000800000000000000000000000000000080000000000000020000000000000000000000000000000000000000000000000000000000000000000",
      "type": "0x2",
      "transactionHash": "0xc8f6ef4eb3283710f93a798a12dfbd63d472f90bf722558bc36c5e71987b027b",
      "transactionIndex": "0x87",
      "blockHash": "0x3ede66336d71a691886bc9fcc700d69cd5fdf66ab70f287da6bb5cd6f04c56be",
      "blockNumber": "0x731e97",
      "gasUsed": "0xf213",
      "effectiveGasPrice": "0x43100e76",
      "from": "0xc77f7fed3b5cc8249adc428c5f44c9063b9734b4",
      "to": "0x8aafd3ede9adb0ff97c7aebce82a919afb1c8764",
      "contractAddress": null
    }
  ],
  "libraries": [],
  "pending": [],
  "returns": {},
  "timestamp": 1737518077,
  "chain": 11155111,
  "commit": "1d2fb70"
}