{
  "transactions": [
    {
      "hash": "0x2b77b5f07f9691965592536a8d6cd90e80ef0b66a06a514314808da146afb366",
      "transactionType": "CALL",
      "contractName": null,
      "contractAddress": "0x8aafd3ede9adb0ff97c7aebce82a919afb1c8764",
      "function": "sell(uint256)",
      "arguments": [
        "2869275166090"
      ],
      "transaction": {
        "from": "0xc77f7fed3b5cc8249adc428c5f44c9063b9734b4",
        "to": "0x8aafd3ede9adb0ff97c7aebce82a919afb1c8764",
        "gas": "0x15daa",
        "value": "0x0",
        "input": "0xe4849b320000000000000000000000000000000000000000000000000000029c0e20858a",
        "nonce": "0x10f9",
        "chainId": "0xaa36a7"
      },
      "additionalContracts": [],
      "isFixedGasLimit": false
    }
  ],
  "receipts": [
    {
      "status": "0x1",
      "cumulativeGasUsed": "0xaa59b4",
      "logs": [
        {
          "address": "0x8aafd3ede9adb0ff97c7aebce82a919afb1c8764",
          "topics": [
            "0xddf252ad1be2c89b69c2b068fc378daa952ba7f163c4a11628f55a4df523b3ef",
            "0x000000000000000000000000c77f7fed3b5cc8249adc428c5f44c9063b9734b4",
            "0x0000000000000000000000000000000000000000000000000000000000000000"
          ],
          "data": "0x00000000000000000000000000000000000000000000000000000296b5f3349a",
          "blockHash": "0xec04ee98f8b58aeb0971ef60246930e9050ede95822eb206eb7f8a5c6c94dcb2",
          "blockNumber": "0x7317a3",
          "transactionHash": "0x2b77b5f07f9691965592536a8d6cd90e80ef0b66a06a514314808da146afb366",
          "transactionIndex": "0x84",
          "logIndex": "0xc5",
          "removed": false
        },
        {
          "address": "0x8aafd3ede9adb0ff97c7aebce82a919afb1c8764",
          "topics": [
            "0xddf252ad1be2c89b69c2b068fc378daa952ba7f163c4a11628f55a4df523b3ef",
            "0x000000000000000000000000c77f7fed3b5cc8249adc428c5f44c9063b9734b4",
            "0x000000000000000000000000c77f7fed3b5cc8249adc428c5f44c9063b9734b4"
          ],
          "data": "0x00000000000000000000000000000000000000000000000000000005582d50f0",
          "blockHash": "0xec04ee98f8b58aeb0971ef60246930e9050ede95822eb206eb7f8a5c6c94dcb2",
          "blockNumber": "0x7317a3",
          "transactionHash": "0x2b77b5f07f9691965592536a8d6cd90e80ef0b66a06a514314808da146afb366",
          "transactionIndex": "0x84",
          "logIndex": "0xc6",
          "removed": false
        },
        {
          "address": "0x8aafd3ede9adb0ff97c7aebce82a919afb1c8764",
          "topics": [
            "0x4afcb4a87cdbd9974efdb92ee48bc8d7cd0ae4bf217004db3d080cbaee652ca7"
          ],
          "data": "0x000000000000000000000000000000000000000000000000000000006790186800000000000000000000000000000000000000000000000000050ab4dd0c626900000000000000000000000000000000000000000000000000000000f2b49bf5",
          "blockHash": "0xec04ee98f8b58aeb0971ef60246930e9050ede95822eb206eb7f8a5c6c94dcb2",
          "blockNumber": "0x7317a3",
          "transactionHash": "0x2b77b5f07f9691965592536a8d6cd90e80ef0b66a06a514314808da146afb366",
          "transactionIndex": "0x84",
          "logIndex": "0xc7",
          "removed": false
        }
      ],
      "logsBloom": "0x00000000000000000000000000000000000000000600000000000000000000000000000000000000000000000000000000000000000000004000000000000000000000000000004000000008000000000000000000000000000000000000000000000000020000000000000000000800020000000000000000000010000000000000000000000000000000000000000000000000000000000000010000000000000000000000000000000000000000004000000000000000000000000000000000000002000000800000000000000000000000000000080000000000000020000000000000000000000000000000000000000000000000000000000000000000",
      "type": "0x2",
      "transactionHash": "0x2b77b5f07f9691965592536a8d6cd90e80ef0b66a06a514314808da146afb366",
      "transactionIndex": "0x84",
      "blockHash": "0xec04ee98f8b58aeb0971ef60246930e9050ede95822eb206eb7f8a5c6c94dcb2",
      "blockNumber": "0x7317a3",
      "gasUsed": "0xfd27",
      "effectiveGasPrice": "0x47bd5686",
      "from": "0xc77f7fed3b5cc8249adc428c5f44c9063b9734b4",
      "to": "0x8aafd3ede9adb0ff97c7aebce82a919afb1c8764",
      "contractAddress": null
    }
  ],
  "libraries": [],
  "pending": [],
  "returns": {},
  "timestamp": 1737496681,
  "chain": 11155111,
  "commit": "1d2fb70"
}