{
  "transactions": [
    {
      "hash": "0xec7d805137eaaa36e97f0d063f269114040b05e16b0c16630e5ee075d2be4b6f",
      "transactionType": "CALL",
      "contractName": null,
      "contractAddress": "0x8aafd3ede9adb0ff97c7aebce82a919afb1c8764",
      "function": "sell(uint256)",
      "arguments": [
        "44185225418584630"
      ],
      "transaction": {
        "from": "0xc77f7fed3b5cc8249adc428c5f44c9063b9734b4",
        "to": "0x8aafd3ede9adb0ff97c7aebce82a919afb1c8764",
        "gas": "0x1724d",
        "value": "0x0",
        "input": "0xe4849b32000000000000000000000000000000000000000000000000009cfa3a79653236",
        "nonce": "0x1179",
        "chainId": "0xaa36a7"
      },
      "additionalContracts": [],
      "isFixedGasLimit": false
    }
  ],
  "receipts": [
    {
      "status": "0x1",
      "cumulativeGasUsed": "0xf100a5",
      "logs": [
        {
          "address": "0x8aafd3ede9adb0ff97c7aebce82a919afb1c8764",
          "topics": [
            "0xddf252ad1be2c89b69c2b068fc378daa952ba7f163c4a11628f55a4df523b3ef",
            "0x000000000000000000000000c77f7fed3b5cc8249adc428c5f44c9063b9734b4",
            "0x0000000000000000000000000000000000000000000000000000000000000000"
          ],
          "data": "0x000000000000000000000000000000000000000000000000009bb8bd14127771",
          "blockHash": "0x52bfc0668e44b2d9765f1f136294254470558072445b54359d19480dbdf10767",
          "blockNumber": "0x73183a",
          "transactionHash": "0xec7d805137eaaa36e97f0d063f269114040b05e16b0c16630e5ee075d2be4b6f",
          "transactionIndex": "0x9c",
          "logIndex": "0xcd",
          "removed": false
        },
        {
          "address": "0x8aafd3ede9adb0ff97c7aebce82a919afb1c8764",
          "topics": [
            "0xddf252ad1be2c89b69c2b068fc378daa952ba7f163c4a11628f55a4df523b3ef",
            "0x000000000000000000000000c77f7fed3b5cc8249adc428c5f44c9063b9734b4",
            "0x000000000000000000000000c77f7fed3b5cc8249adc428c5f44c9063b9734b4"
          ],
          "data": "0x0000000000000000000000000000000000000000000000000001417d6552bac5",
          "blockHash": "0x52bfc0668e44b2d9765f1f136294254470558072445b54359d19480dbdf10767",
          "blockNumber": "0x73183a",
          "transactionHash": "0xec7d805137eaaa36e97f0d063f269114040b05e16b0c16630e5ee075d2be4b6f",
          "transactionIndex": "0x9c",
          "logIndex": "0xce",
          "removed": false
        },
        {
          "address": "0x8aafd3ede9adb0ff97c7aebce82a919afb1c8764",
          "topics": [
            "0x4afcb4a87cdbd9974efdb92ee48bc8d7cd0ae4bf217004db3d080cbaee652ca7"
          ],
          "data": "0x0000000000000000000000000000000000000000000000000000000067901f7c00000000000000000000000000000000000000000000000000051d974b739018000000000000000000000000000000000000000000000000000039dd547c3b8c",
          "blockHash": "0x52bfc0668e44b2d9765f1f136294254470558072445b54359d19480dbdf10767",
          "blockNumber": "0x73183a",
          "transactionHash": "0xec7d805137eaaa36e97f0d063f269114040b05e16b0c16630e5ee075d2be4b6f",
          "transactionIndex": "0x9c",
          "logIndex": "0xcf",
          "removed": false
        }
      ],
      "logsBloom": "0x00000000000000000000000000000000000000000600000000000000000000000000000000000000000000000000000000000000000000004000000000000000000000000000004000000008000000000000000000000000000000000000000000000000020000000000000000000800020000000000000000000010000000000000000000000000000000000000000000000000000000000000010000000000000000000000000000000000000000004000000000000000000000000000000000000002000000800000000000000000000000000000080000000000000020000000000000000000000000000000000000000000000000000000000000000000",
      "type": "0x2",
      "transactionHash": "0xec7d805137eaaa36e97f0d063f269114040b05e16b0c16630e5ee075d2be4b6f",
      "transactionIndex": "0x9c",
      "blockHash": "0x52bfc0668e44b2d9765f1f136294254470558072445b54359d19480dbdf10767",
      "blockNumber": "0x73183a",
      "gasUsed": "0xfd33",
      "effectiveGasPrice": "0x3e12739d",
      "from": "0xc77f7fed3b5cc8249adc428c5f44c9063b9734b4",
      "to": "0x8aafd3ede9adb0ff97c7aebce82a919afb1c8764",
      "contractAddress": null
    }
  ],
  "libraries": [],
  "pending": [],
  "returns": {},
  "timestamp": 1737498493,
  "chain": 11155111,
  "commit": "1d2fb70"
}