{
  "transactions": [
    {
      "hash": "0xa20d605a083981f8e19c764e8995a20b79924c8ce4aeac1c668f7862ef6c0ec2",
      "transactionType": "CALL",
      "contractName": null,
      "contractAddress": "0x270e88f8683660553e8ba4eb2ad7c91a1710d769",
      "function": "buy(address)",
      "arguments": [
        "0xC77f7fed3b5Cc8249aDc428c5F44C9063B9734b4"
      ],
      "transaction": {
        "from": "0xc77f7fed3b5cc8249adc428c5f44c9063b9734b4",
        "to": "0x270e88f8683660553e8ba4eb2ad7c91a1710d769",
        "gas": "0x1b30c",
        "value": "0xde0b6b3a7640000",
        "input": "0xf088d547000000000000000000000000c77f7fed3b5cc8249adc428c5f44c9063b9734b4",
        "nonce": "0x6ed",
        "chainId": "0xaa36a7"
      },
      "additionalContracts": [],
      "isFixedGasLimit": false
    }
  ],
  "receipts": [
    {
      "status": "0x1",
      "cumulativeGasUsed": "0x7bfffc",
      "logs": [
        {
          "address": "0x270e88f8683660553e8ba4eb2ad7c91a1710d769",
          "topics": [
            "0xddf252ad1be2c89b69c2b068fc378daa952ba7f163c4a11628f55a4df523b3ef",
            "0x0000000000000000000000000000000000000000000000000000000000000000",
            "0x000000000000000000000000c77f7fed3b5cc8249adc428c5f44c9063b9734b4"
          ],
          "data": "0x0000000000000000000000000000000000000000000000285e47016bf62be0c1",
          "blockHash": "0x38526e12885f931afd9a9d013b0b3fd8118fd0425a41db44e8699627668e76e1",
          "blockNumber": "0x725401",
          "transactionHash": "0xa20d605a083981f8e19c764e8995a20b79924c8ce4aeac1c668f7862ef6c0ec2",
          "transactionIndex": "0x44",
          "logIndex": "0x60",
          "removed": false
        },
        {
          "address": "0x270e88f8683660553e8ba4eb2ad7c91a1710d769",
          "topics": [
            "0xddf252ad1be2c89b69c2b068fc378daa952ba7f163c4a11628f55a4df523b3ef",
            "0x0000000000000000000000000000000000000000000000000000000000000000",
            "0x000000000000000000000000c77f7fed3b5cc8249adc428c5f44c9063b9734b4"
          ],
          "data": "0x0000000000000000000000000000000000000000000000001f58eb3b65ffbead",
          "blockHash": "0x38526e12885f931afd9a9d013b0b3fd8118fd0425a41db44e8699627668e76e1",
          "blockNumber": "0x725401",
          "transactionHash": "0xa20d605a083981f8e19c764e8995a20b79924c8ce4aeac1c668f7862ef6c0ec2",
          "transactionIndex": "0x44",
          "logIndex": "0x61",
          "removed": false
        },
        {
          "address": "0x270e88f8683660553e8ba4eb2ad7c91a1710d769",
          "topics": [
            "0x4afcb4a87cdbd9974efdb92ee48bc8d7cd0ae4bf217004db3d080cbaee652ca7"
          ],
          "data": "0x000000000000000000000000000000000000000000000000000000006786e2140000000000000000000000000000000000000000000000000004b93de15f28110000000000000000000000000000000000000000000000000de0b6b3a7640000",
          "blockHash": "0x38526e12885f931afd9a9d013b0b3fd8118fd0425a41db44e8699627668e76e1",
          "blockNumber": "0x725401",
          "transactionHash": "0xa20d605a083981f8e19c764e8995a20b79924c8ce4aeac1c668f7862ef6c0ec2",
          "transactionIndex": "0x44",
          "logIndex": "0x62",
          "removed": false
        }
      ],
      "logsBloom": "0x00000000000000000000000000000000000000000000000000000000000000000000000000000000000000000000000020000000000000004000000000000000000000000000000000000008000000000000000000000000000000000000000000000000020000000000000000000800020000000000000000000010000000000000000000010000000000000000000000000000000000000000010000000000000000000000000000000000000000004000000000000000000000000000000000000002000000800000000000000000000000000000080000008000000020000000000000000000000000000000000000000000000000000000000000000000",
      "type": "0x2",
      "transactionHash": "0xa20d605a083981f8e19c764e8995a20b79924c8ce4aeac1c668f7862ef6c0ec2",
      "transactionIndex": "0x44",
      "blockHash": "0x38526e12885f931afd9a9d013b0b3fd8118fd0425a41db44e8699627668e76e1",
      "blockNumber": "0x725401",
      "gasUsed": "0x13af8",
      "effectiveGasPrice": "0x159ceea9b",
      "from": "0xc77f7fed3b5cc8249adc428c5f44c9063b9734b4",
      "to": "0x270e88f8683660553e8ba4eb2ad7c91a1710d769",
      "contractAddress": null
    }
  ],
  "libraries": [],
  "pending": [],
  "returns": {},
  "timestamp": 1736892950,
  "chain": 11155111,
  "commit": "51a374b"
}