{
  "transactions": [
    {
      "hash": "0xfc50d4e15b6c3650dcbe52f7a091aea09afb0c8ddb6c11fcb73cd9d17c9376d5",
      "transactionType": "CALL",
      "contractName": null,
      "contractAddress": "0x5eb9cc76c3506942c1c0ead70e877dd5e4f00cb0",
      "function": "buy(address)",
      "arguments": [
        "0xC77f7fed3b5Cc8249aDc428c5F44C9063B9734b4"
      ],
      "transaction": {
        "from": "0xc77f7fed3b5cc8249adc428c5f44c9063b9734b4",
        "to": "0x5eb9cc76c3506942c1c0ead70e877dd5e4f00cb0",
        "gas": "0x1b30c",
        "value": "0xde0b6b3a7640000",
        "input": "0xf088d547000000000000000000000000c77f7fed3b5cc8249adc428c5f44c9063b9734b4",
        "nonce": "0x230",
        "chainId": "0xaa36a7"
      },
      "additionalContracts": [],
      "isFixedGasLimit": false
    }
  ],
  "receipts": [
    {
      "status": "0x1",
      "cumulativeGasUsed": "0xa43ad6",
      "logs": [
        {
          "address": "0x5eb9cc76c3506942c1c0ead70e877dd5e4f00cb0",
          "topics": [
            "0xddf252ad1be2c89b69c2b068fc378daa952ba7f163c4a11628f55a4df523b3ef",
            "0x0000000000000000000000000000000000000000000000000000000000000000",
            "0x000000000000000000000000c77f7fed3b5cc8249adc428c5f44c9063b9734b4"
          ],
          "data": "0x0000000000000000000000000000000000000000000000357c32ff96d2d11639",
          "blockHash": "0xff5c20ed9a9f3f8b8c4b0d555879d5bded05d115ea753c8419c1a6fb99d928fa",
          "blockNumber": "0x724de0",
          "transactionHash": "0xfc50d4e15b6c3650dcbe52f7a091aea09afb0c8ddb6c11fcb73cd9d17c9376d5",
          "transactionIndex": "0x5d",
          "logIndex": "0x75",
          "removed": false
        },
        {
          "address": "0x5eb9cc76c3506942c1c0ead70e877dd5e4f00cb0",
          "topics": [
            "0xddf252ad1be2c89b69c2b068fc378daa952ba7f163c4a11628f55a4df523b3ef",
            "0x0000000000000000000000000000000000000000000000000000000000000000",
            "0x000000000000000000000000c77f7fed3b5cc8249adc428c5f44c9063b9734b4"
          ],
          "data": "0x000000000000000000000000000000000000000000000000298875b0b51b2328",
          "blockHash": "0xff5c20ed9a9f3f8b8c4b0d555879d5bded05d115ea753c8419c1a6fb99d928fa",
          "blockNumber": "0x724de0",
          "transactionHash": "0xfc50d4e15b6c3650dcbe52f7a091aea09afb0c8ddb6c11fcb73cd9d17c9376d5",
          "transactionIndex": "0x5d",
          "logIndex": "0x76",
          "removed": false
        },
        {
          "address": "0x5eb9cc76c3506942c1c0ead70e877dd5e4f00cb0",
          "topics": [
            "0x4afcb4a87cdbd9974efdb92ee48bc8d7cd0ae4bf217004db3d080cbaee652ca7"
          ],
          "data": "0x00000000000000000000000000000000000000000000000000000000678698340000000000000000000000000000000000000000000000000003909aaae46bf30000000000000000000000000000000000000000000000000de0b6b3a7640000",
          "blockHash": "0xff5c20ed9a9f3f8b8c4b0d555879d5bded05d115ea753c8419c1a6fb99d928fa",
          "blockNumber": "0x724de0",
          "transactionHash": "0xfc50d4e15b6c3650dcbe52f7a091aea09afb0c8ddb6c11fcb73cd9d17c9376d5",
          "transactionIndex": "0x5d",
          "logIndex": "0x77",
          "removed": false
        }
      ],
      "logsBloom": "0x00000000000000000000000000000000000000000000000000000000000000000000000000000000000000000000000000000000000000004000000000000000000000000000000000000008000000000000000000000000000000000000000000000000020000000000000004000800020000000000000000000010000000000000000000000000000000000000000000000000000000000000010000000000000000000000000000000000000000004000000000000000000000000000020000000002000000800000008000000000000000000000080000000000000020000000000000000000000000000000000000000000000000000000000000000000",
      "type": "0x2",
      "transactionHash": "0xfc50d4e15b6c3650dcbe52f7a091aea09afb0c8ddb6c11fcb73cd9d17c9376d5",
      "transactionIndex": "0x5d",
      "blockHash": "0xff5c20ed9a9f3f8b8c4b0d555879d5bded05d115ea753c8419c1a6fb99d928fa",
      "blockNumber": "0x724de0",
      "gasUsed": "0x13af8",
      "effectiveGasPrice": "0x431ac3bf8",
      "from": "0xc77f7fed3b5cc8249adc428c5f44c9063b9734b4",
      "to": "0x5eb9cc76c3506942c1c0ead70e877dd5e4f00cb0",
      "contractAddress": null
    }
  ],
  "libraries": [],
  "pending": [],
  "returns": {},
  "timestamp": 1736874036,
  "chain": 11155111,
  "commit": "51a374b"
}