{
  "transactions": [
    {
      "hash": "0x253cf8bf4f02243c3251ca1cacb4b49600f8dc67d76487ce1b428050bd18ab75",
      "transactionType": "CALL",
      "contractName": null,
      "contractAddress": "0x5eb9cc76c3506942c1c0ead70e877dd5e4f00cb0",
      "function": "sell(uint256)",
      "arguments": [
        "989088844469967322212"
      ],
      "transaction": {
        "from": "0xc77f7fed3b5cc8249adc428c5f44c9063b9734b4",
        "to": "0x5eb9cc76c3506942c1c0ead70e877dd5e4f00cb0",
        "gas": "0x16fec",
        "value": "0x0",
        "input": "0xe4849b320000000000000000000000000000000000000000000000359e5d77a0cdfcfc64",
        "nonce": "0x447",
        "chainId": "0xaa36a7"
      },
      "additionalContracts": [],
      "isFixedGasLimit": false
    }
  ],
  "receipts": [
    {
      "status": "0x1",
      "cumulativeGasUsed": "0x975b34",
      "logs": [
        {
          "address": "0x5eb9cc76c3506942c1c0ead70e877dd5e4f00cb0",
          "topics": [
            "0xddf252ad1be2c89b69c2b068fc378daa952ba7f163c4a11628f55a4df523b3ef",
            "0x000000000000000000000000c77f7fed3b5cc8249adc428c5f44c9063b9734b4",
            "0x0000000000000000000000000000000000000000000000000000000000000000"
          ],
          "data": "0x0000000000000000000000000000000000000000000000359e5d77a0cdfcfc64",
          "blockHash": "0x561a6b587f9249289b3976e928fbd634486420e4929dcd191c7b1ec0b82c2373",
          "blockNumber": "0x725066",
          "transactionHash": "0x253cf8bf4f02243c3251ca1cacb4b49600f8dc67d76487ce1b428050bd18ab75",
          "transactionIndex": "0x57",
          "logIndex": "0xa7",
          "removed": false
        },
        {
          "address": "0x5eb9cc76c3506942c1c0ead70e877dd5e4f00cb0",
          "topics": [
            "0x4afcb4a87cdbd9974efdb92ee48bc8d7cd0ae4bf217004db3d080cbaee652ca7"
          ],
          "data": "0x000000000000000000000000000000000000000000000000000000006786b694000000000000000000000000000000000000000000000000000391181bc32b750000000000000000000000000000000000000000000000000dc7db1331d39936",
          "blockHash": "0x561a6b587f9249289b3976e928fbd634486420e4929dcd191c7b1ec0b82c2373",
          "blockNumber": "0x725066",
          "transactionHash": "0x253cf8bf4f02243c3251ca1cacb4b49600f8dc67d76487ce1b428050bd18ab75",
          "transactionIndex": "0x57",
          "logIndex": "0xa8",
          "removed": false
        }
      ],
      "logsBloom": "0x00000000000000000000000000000000000000000000000000000000000000000000000000000000000000000000000000000000000000004000000000000000000000000000000000000008000000000000000000000000000000000000000000000000020000000000000004000800020000000000000000000010000000000000000000000000000000000000000000000000000000000000010000000000000000000000000000000000000000004000000000000000000000000000020000000002000000800000008000000000000000000000080000000000000020000000000000000000000000000000000000000000000000000000000000000000",
      "type": "0x2",
      "transactionHash": "0x253cf8bf4f02243c3251ca1cacb4b49600f8dc67d76487ce1b428050bd18ab75",
      "transactionIndex": "0x57",
      "blockHash": "0x561a6b587f9249289b3976e928fbd634486420e4929dcd191c7b1ec0b82c2373",
      "blockNumber": "0x725066",
      "gasUsed": "0xfb93",
      "effectiveGasPrice": "0x2aca80461",
      "from": "0xc77f7fed3b5cc8249adc428c5f44c9063b9734b4",
      "to": "0x5eb9cc76c3506942c1c0ead70e877dd5e4f00cb0",
      "contractAddress": null
    }
  ],
  "libraries": [],
  "pending": [],
  "returns": {},
  "timestamp": 1736881815,
  "chain": 11155111,
  "commit": "51a374b"
}