{
  "transactions": [
    {
      "hash": "0x8252a254aebf35d379f875091205f5a272d2c47a98f7c8c3104736ffb91e9ee6",
      "transactionType": "CALL",
      "contractName": null,
      "contractAddress": "0x5eb9cc76c3506942c1c0ead70e877dd5e4f00cb0",
      "function": "buy(address)",
      "arguments": [
        "0xC77f7fed3b5Cc8249aDc428c5F44C9063B9734b4"
      ],
      "transaction": {
        "from": "0xc77f7fed3b5cc8249adc428c5f44c9063b9734b4",
        "to": "0x5eb9cc76c3506942c1c0ead70e877dd5e4f00cb0",
        "gas": "0x1b30c",
        "value": "0xde0b6b3a7640000",
        "input": "0xf088d547000000000000000000000000c77f7fed3b5cc8249adc428c5f44c9063b9734b4",
        "nonce": "0x3e4",
        "chainId": "0xaa36a7"
      },
      "additionalContracts": [],
      "isFixedGasLimit": false
    }
  ],
  "receipts": [
    {
      "status": "0x1",
      "cumulativeGasUsed": "0x97e8be",
      "logs": [
        {
          "address": "0x5eb9cc76c3506942c1c0ead70e877dd5e4f00cb0",
          "topics": [
            "0xddf252ad1be2c89b69c2b068fc378daa952ba7f163c4a11628f55a4df523b3ef",
            "0x0000000000000000000000000000000000000000000000000000000000000000",
            "0x000000000000000000000000c77f7fed3b5cc8249adc428c5f44c9063b9734b4"
          ],
          "data": "0x0000000000000000000000000000000000000000000000357512063c6dd1d336",
          "blockHash": "0x44f6cdc0a05c56972f5148cf98987a4b8c9cfdbef8d7b8b696a0a7b58acf95ee",
          "blockNumber": "0x724fea",
          "transactionHash": "0x8252a254aebf35d379f875091205f5a272d2c47a98f7c8c3104736ffb91e9ee6",
          "transactionIndex": "0x53",
          "logIndex": "0x8f",
          "removed": false
        },
        {
          "address": "0x5eb9cc76c3506942c1c0ead70e877dd5e4f00cb0",
          "topics": [
            "0xddf252ad1be2c89b69c2b068fc378daa952ba7f163c4a11628f55a4df523b3ef",
            "0x0000000000000000000000000000000000000000000000000000000000000000",
            "0x000000000000000000000000c77f7fed3b5cc8249adc428c5f44c9063b9734b4"
          ],
          "data": "0x0000000000000000000000000000000000000000000000002982ec892202eb63",
          "blockHash": "0x44f6cdc0a05c56972f5148cf98987a4b8c9cfdbef8d7b8b696a0a7b58acf95ee",
          "blockNumber": "0x724fea",
          "transactionHash": "0x8252a254aebf35d379f875091205f5a272d2c47a98f7c8c3104736ffb91e9ee6",
          "transactionIndex": "0x53",
          "logIndex": "0x90",
          "removed": false
        },
        {
          "address": "0x5eb9cc76c3506942c1c0ead70e877dd5e4f00cb0",
          "topics": [
            "0x4afcb4a87cdbd9974efdb92ee48bc8d7cd0ae4bf217004db3d080cbaee652ca7"
          ],
          "data": "0x000000000000000000000000000000000000000000000000000000006786b0c4000000000000000000000000000000000000000000000000000391145ea305d10000000000000000000000000000000000000000000000000de0b6b3a7640000",
          "blockHash": "0x44f6cdc0a05c56972f5148cf98987a4b8c9cfdbef8d7b8b696a0a7b58acf95ee",
          "blockNumber": "0x724fea",
          "transactionHash": "0x8252a254aebf35d379f875091205f5a272d2c47a98f7c8c3104736ffb91e9ee6",
          "transactionIndex": "0x53",
          "logIndex": "0x91",
          "removed": false
        }
      ],
      "logsBloom": "0x00000000000000000000000000000000000000000000000000000000000000000000000000000000000000000000000000000000000000004000000000000000000000000000000000000008000000000000000000000000000000000000000000000000020000000000000004000800020000000000000000000010000000000000000000000000000000000000000000000000000000000000010000000000000000000000000000000000000000004000000000000000000000000000020000000002000000800000008000000000000000000000080000000000000020000000000000000000000000000000000000000000000000000000000000000000",
      "type": "0x2",
      "transactionHash": "0x8252a254aebf35d379f875091205f5a272d2c47a98f7c8c3104736ffb91e9ee6",
      "transactionIndex": "0x53",
      "blockHash": "0x44f6cdc0a05c56972f5148cf98987a4b8c9cfdbef8d7b8b696a0a7b58acf95ee",
      "blockNumber": "0x724fea",
      "gasUsed": "0x13af8",
      "effectiveGasPrice": "0x38950e869",
      "from": "0xc77f7fed3b5cc8249adc428c5f44c9063b9734b4",
      "to": "0x5eb9cc76c3506942c1c0ead70e877dd5e4f00cb0",
      "contractAddress": null
    }
  ],
  "libraries": [],
  "pending": [],
  "returns": {},
  "timestamp": 1736880325,
  "chain": 11155111,
  "commit": "51a374b"
}