{
  "transactions": [
    {
      "hash": "0x58d71fa16e4453364758dd8acaf0383812658094517e1a7f5fa8a683a45c4be3",
      "transactionType": "CALL",
      "contractName": null,
      "contractAddress": "0x8aafd3ede9adb0ff97c7aebce82a919afb1c8764",
      "function": "sell(uint256)",
      "arguments": [
        "41621792"
      ],
      "transaction": {
        "from": "0xc77f7fed3b5cc8249adc428c5f44c9063b9734b4",
        "to": "0x8aafd3ede9adb0ff97c7aebce82a919afb1c8764",
        "gas": "0x15d88",
        "value": "0x0",
        "input": "0xe4849b3200000000000000000000000000000000000000000000000000000000027b1920",
        "nonce": "0x16c7",
        "chainId": "0xaa36a7"
      },
      "additionalContracts": [],
      "isFixedGasLimit": false
    }
  ],
  "receipts": [
    {
      "status": "0x1",
      "cumulativeGasUsed": "0x17341cc",
      "logs": [
        {
          "address": "0x8aafd3ede9adb0ff97c7aebce82a919afb1c8764",
          "topics": [
            "0xddf252ad1be2c89b69c2b068fc378daa952ba7f163c4a11628f55a4df523b3ef",
            "0x000000000000000000000000c77f7fed3b5cc8249adc428c5f44c9063b9734b4",
            "0x0000000000000000000000000000000000000000000000000000000000000000"
          ],
          "data": "0x0000000000000000000000000000000000000000000000000000000002760472",
          "blockHash": "0x302a36db57423d3f8db817e5641fea9793cdb029a48928ec1fd91d7e77b14ca0",
          "blockNumber": "0x731e81",
          "transactionHash": "0x58d71fa16e4453364758dd8acaf0383812658094517e1a7f5fa8a683a45c4be3",
          "transactionIndex": "0x99",
          "logIndex": "0x147",
          "removed": false
        },
        {
          "address": "0x8aafd3ede9adb0ff97c7aebce82a919afb1c8764",
          "topics": [
            "0xddf252ad1be2c89b69c2b068fc378daa952ba7f163c4a11628f55a4df523b3ef",
            "0x000000000000000000000000c77f7fed3b5cc8249adc428c5f44c9063b9734b4",
            "0x000000000000000000000000c77f7fed3b5cc8249adc428c5f44c9063b9734b4"
          ],
          "data": "0x00000000000000000000000000000000000000000000000000000000000514ae",
          "blockHash": "0x302a36db57423d3f8db817e5641fea9793cdb029a48928ec1fd91d7e77b14ca0",
          "blockNumber": "0x731e81",
          "transactionHash": "0x58d71fa16e4453364758dd8acaf0383812658094517e1a7f5fa8a683a45c4be3",
          "transactionIndex": "0x99",
          "logIndex": "0x148",
          "removed": false
        },
        {
          "address": "0x8aafd3ede9adb0ff97c7aebce82a919afb1c8764",
          "topics": [
            "0x4afcb4a87cdbd9974efdb92ee48bc8d7cd0ae4bf217004db3d080cbaee652ca7"
          ],
          "data": "0x0000000000000000000000000000000000000000000000000000000067906af40000000000000000000000000000000000000000000000000016530696101829000000000000000000000000000000000000000000000000000000000003fda4",
          "blockHash": "0x302a36db57423d3f8db817e5641fea9793cdb029a48928ec1fd91d7e77b14ca0",
          "blockNumber": "0x731e81",
          "transactionHash": "0x58d71fa16e4453364758dd8acaf0383812658094517e1a7f5fa8a683a45c4be3",
          "transactionIndex": "0x99",
          "logIndex": "0x149",
          "removed": false
        }
      ],
      "logsBloom": "0x00000000000000000000000000000000000000000600000000000000000000000000000000000000000000000000000000000000000000004000000000000000000000000000004000000008000000000000000000000000000000000000000000000000020000000000000000000800020000000000000000000010000000000000000000000000000000000000000000000000000000000000010000000000000000000000000000000000000000004000000000000000000000000000000000000002000000800000000000000000000000000000080000000000000020000000000000000000000000000000000000000000000000000000000000000000",
      "type": "0x2",
      "transactionHash": "0x58d71fa16e4453364758dd8acaf0383812658094517e1a7f5fa8a683a45c4be3",
      "transactionIndex": "0x99",
      "blockHash": "0x302a36db57423d3f8db817e5641fea9793cdb029a48928ec1fd91d7e77b14ca0",
      "blockNumber": "0x731e81",
      "gasUsed": "0xfd0f",
      "effectiveGasPrice": "0x4423f697",
      "from": "0xc77f7fed3b5cc8249adc428c5f44c9063b9734b4",
      "to": "0x8aafd3ede9adb0ff97c7aebce82a919afb1c8764",
      "contractAddress": null
    }
  ],
  "libraries": [],
  "pending": [],
  "returns": {},
  "timestamp": 1737517814,
  "chain": 11155111,
  "commit": "1d2fb70"
}