{
  "transactions": [
    {
      "hash": "0x0b48c62d9dd175ad04452295844a9c02ddf3258a32c1d53b464d03b919d3c958",
      "transactionType": "CALL",
      "contractName": null,
      "contractAddress": "0x5eb9cc76c3506942c1c0ead70e877dd5e4f00cb0",
      "function": "buy(address)",
      "arguments": [
        "0xC77f7fed3b5Cc8249aDc428c5F44C9063B9734b4"
      ],
      "transaction": {
        "from": "0xc77f7fed3b5cc8249adc428c5f44c9063b9734b4",
        "to": "0x5eb9cc76c3506942c1c0ead70e877dd5e4f00cb0",
        "gas": "0x156c8",
        "value": "0xde0b6b3a7640000",
        "input": "0xf088d547000000000000000000000000c77f7fed3b5cc8249adc428c5f44c9063b9734b4",
        "nonce": "0x158",
        "chainId": "0xaa36a7"
      },
      "additionalContracts": [],
      "isFixedGasLimit": false
    }
  ],
  "receipts": [
    {
      "status": "0x1",
      "cumulativeGasUsed": "0x1d6fc1f",
      "logs": [
        {
          "address": "0x5eb9cc76c3506942c1c0ead70e877dd5e4f00cb0",
          "topics": [
            "0xddf252ad1be2c89b69c2b068fc378daa952ba7f163c4a11628f55a4df523b3ef",
            "0x0000000000000000000000000000000000000000000000000000000000000000",
            "0x000000000000000000000000c77f7fed3b5cc8249adc428c5f44c9063b9734b4"
          ],
          "data": "0x000000000000000000000000000000000000000000000035aaeed56835bde1d8",
          "blockHash": "0xacc68e06e51d649e0dd0415d06e73f788a593373baa557bf94cddd33ee192d8e",
          "blockNumber": "0x723b52",
          "transactionHash": "0x0b48c62d9dd175ad04452295844a9c02ddf3258a32c1d53b464d03b919d3c958",
          "transactionIndex": "0x7e",
          "logIndex": "0x226",
          "removed": false
        },
        {
          "address": "0x5eb9cc76c3506942c1c0ead70e877dd5e4f00cb0",
          "topics": [
            "0xddf252ad1be2c89b69c2b068fc378daa952ba7f163c4a11628f55a4df523b3ef",
            "0x0000000000000000000000000000000000000000000000000000000000000000",
            "0x000000000000000000000000c77f7fed3b5cc8249adc428c5f44c9063b9734b4"
          ],
          "data": "0x00000000000000000000000000000000000000000000000029acc00432e2dfa0",
          "blockHash": "0xacc68e06e51d649e0dd0415d06e73f788a593373baa557bf94cddd33ee192d8e",
          "blockNumber": "0x723b52",
          "transactionHash": "0x0b48c62d9dd175ad04452295844a9c02ddf3258a32c1d53b464d03b919d3c958",
          "transactionIndex": "0x7e",
          "logIndex": "0x227",
          "removed": false
        },
        {
          "address": "0x5eb9cc76c3506942c1c0ead70e877dd5e4f00cb0",
          "topics": [
            "0x4afcb4a87cdbd9974efdb92ee48bc8d7cd0ae4bf217004db3d080cbaee652ca7"
          ],
          "data": "0x000000000000000000000000000000000000000000000000000000006785b92c00000000000000000000000000000000000000000000000000038d7ff9b6e0b40000000000000000000000000000000000000000000000000de0b6b3a7640000",
          "blockHash": "0xacc68e06e51d649e0dd0415d06e73f788a593373baa557bf94cddd33ee192d8e",
          "blockNumber": "0x723b52",
          "transactionHash": "0x0b48c62d9dd175ad04452295844a9c02ddf3258a32c1d53b464d03b919d3c958",
          "transactionIndex": "0x7e",
          "logIndex": "0x228",
          "removed": false
        }
      ],
      "logsBloom": "0x00000000000000000000000000000000000000000000000000000000000000000000000000000000000000000000000000000000000000004000000000000000000000000000000000000008000000000000000000000000000000000000000000000000020000000000000004000800020000000000000000000010000000000000000000000000000000000000000000000000000000000000010000000000000000000000000000000000000000004000000000000000000000000000020000000002000000800000008000000000000000000000080000000000000020000000000000000000000000000000000000000000000000000000000000000000",
      "type": "0x2",
      "transactionHash": "0x0b48c62d9dd175ad04452295844a9c02ddf3258a32c1d53b464d03b919d3c958",
      "transactionIndex": "0x7e",
      "blockHash": "0xacc68e06e51d649e0dd0415d06e73f788a593373baa557bf94cddd33ee192d8e",
      "blockNumber": "0x723b52",
      "gasUsed": "0xf82c",
      "effectiveGasPrice": "0x5a74e9d45",
      "from": "0xc77f7fed3b5cc8249adc428c5f44c9063b9734b4",
      "to": "0x5eb9cc76c3506942c1c0ead70e877dd5e4f00cb0",
      "contractAddress": null
    }
  ],
  "libraries": [],
  "pending": [],
  "returns": {},
  "timestamp": 1736816941,
  "chain": 11155111,
  "commit": "51a374b"
}