{
  "transactions": [
    {
      "hash": "0xc6f71fcfd2e9313b34a1c6e13e54f7cf7bd69610d34149624675e90227c09a0a",
      "transactionType": "CALL",
      "contractName": null,
      "contractAddress": "0x270e88f8683660553e8ba4eb2ad7c91a1710d769",
      "function": "sell(uint256)",
      "arguments": [
        "734816377102526746291"
      ],
      "transaction": {
        "from": "0xc77f7fed3b5cc8249adc428c5f44c9063b9734b4",
        "to": "0x270e88f8683660553e8ba4eb2ad7c91a1710d769",
        "gas": "0x16fec",
        "value": "0x0",
        "input": "0xe4849b32000000000000000000000000000000000000000000000027d5a031c02f968eb3",
        "nonce": "0x776",
        "chainId": "0xaa36a7"
      },
      "additionalContracts": [],
      "isFixedGasLimit": false
    }
  ],
  "receipts": [
    {
      "status": "0x1",
      "cumulativeGasUsed": "0xa01cd5",
      "logs": [
        {
          "address": "0x270e88f8683660553e8ba4eb2ad7c91a1710d769",
          "topics": [
            "0xddf252ad1be2c89b69c2b068fc378daa952ba7f163c4a11628f55a4df523b3ef",
            "0x000000000000000000000000c77f7fed3b5cc8249adc428c5f44c9063b9734b4",
            "0x0000000000000000000000000000000000000000000000000000000000000000"
          ],
          "data": "0x000000000000000000000000000000000000000000000027d5a031c02f968eb3",
          "blockHash": "0x47071e7f5bb8f47b78929f7ed42444eeffd03e55d7028f223af21525b29602b2",
          "blockNumber": "0x7254a6",
          "transactionHash": "0xc6f71fcfd2e9313b34a1c6e13e54f7cf7bd69610d34149624675e90227c09a0a",
          "transactionIndex": "0x53",
          "logIndex": "0x78",
          "removed": false
        },
        {
          "address": "0x270e88f8683660553e8ba4eb2ad7c91a1710d769",
          "topics": [
            "0x4afcb4a87cdbd9974efdb92ee48bc8d7cd0ae4bf217004db3d080cbaee652ca7"
          ],
          "data": "0x000000000000000000000000000000000000000000000000000000006786e9d00000000000000000000000000000000000000000000000000004cd59809204890000000000000000000000000000000000000000000000000dc827f6a02871f1",
          "blockHash": "0x47071e7f5bb8f47b78929f7ed42444eeffd03e55d7028f223af21525b29602b2",
          "blockNumber": "0x7254a6",
          "transactionHash": "0xc6f71fcfd2e9313b34a1c6e13e54f7cf7bd69610d34149624675e90227c09a0a",
          "transactionIndex": "0x53",
          "logIndex": "0x79",
          "removed": false
        }
      ],
      "logsBloom": "0x00000000000000000000000000000000000000000000000000000000000000000000000000000000000000000000000020000000000000004000000000000000000000000000000000000008000000000000000000000000000000000000000000000000020000000000000000000800020000000000000000000010000000000000000000010000000000000000000000000000000000000000010000000000000000000000000000000000000000004000000000000000000000000000000000000002000000800000000000000000000000000000080000008000000020000000000000000000000000000000000000000000000000000000000000000000",
      "type": "0x2",
      "transactionHash": "0xc6f71fcfd2e9313b34a1c6e13e54f7cf7bd69610d34149624675e90227c09a0a",
      "transactionIndex": "0x53",
      "blockHash": "0x47071e7f5bb8f47b78929f7ed42444eeffd03e55d7028f223af21525b29602b2",
      "blockNumber": "0x7254a6",
      "gasUsed": "0xfb93",
      "effectiveGasPrice": "0x1266cd751",
      "from": "0xc77f7fed3b5cc8249adc428c5f44c9063b9734b4",
      "to": "0x270e88f8683660553e8ba4eb2ad7c91a1710d769",
      "contractAddress": null
    }
  ],
  "libraries": [],
  "pending": [],
  "returns": {},
  "timestamp": 1736894930,
  "chain": 11155111,
  "commit": "51a374b"
}