{
  "transactions": [
    {
      "hash": "0x4e31999635bd9a1b082db907f4c460830355652ec3e0d2de32868bff6a761c88",
      "transactionType": "CALL",
      "contractName": null,
      "contractAddress": "0x8aafd3ede9adb0ff97c7aebce82a919afb1c8764",
      "function": "sell(uint256)",
      "arguments": [
        "24267528667"
      ],
      "transaction": {
        "from": "0xc77f7fed3b5cc8249adc428c5f44c9063b9734b4",
        "to": "0x8aafd3ede9adb0ff97c7aebce82a919afb1c8764",
        "gas": "0x1722a",
        "value": "0x0",
        "input": "0xe4849b3200000000000000000000000000000000000000000000000000000005a67519db",
        "nonce": "0xfb2",
        "chainId": "0xaa36a7"
      },
      "additionalContracts": [],
      "isFixedGasLimit": false
    }
  ],
  "receipts": [
    {
      "status": "0x1",
      "cumulativeGasUsed": "0xb18a98",
      "logs": [
        {
          "address": "0x8aafd3ede9adb0ff97c7aebce82a919afb1c8764",
          "topics": [
            "0xddf252ad1be2c89b69c2b068fc378daa952ba7f163c4a11628f55a4df523b3ef",
            "0x000000000000000000000000c77f7fed3b5cc8249adc428c5f44c9063b9734b4",
            "0x0000000000000000000000000000000000000000000000000000000000000000"
          ],
          "data": "0x000000000000000000000000000000000000000000000000000000059ae2c196",
          "blockHash": "0x6ea03428556025fe6d7db0a8fb66feebd43a195386354feee08af245a3795043",
          "blockNumber": "0x73161c",
          "transactionHash": "0x4e31999635bd9a1b082db907f4c460830355652ec3e0d2de32868bff6a761c88",
          "transactionIndex": "0x77",
          "logIndex": "0xcb",
          "removed": false
        },
        {
          "address": "0x8aafd3ede9adb0ff97c7aebce82a919afb1c8764",
          "topics": [
            "0xddf252ad1be2c89b69c2b068fc378daa952ba7f163c4a11628f55a4df523b3ef",
            "0x000000000000000000000000c77f7fed3b5cc8249adc428c5f44c9063b9734b4",
            "0x000000000000000000000000c77f7fed3b5cc8249adc428c5f44c9063b9734b4"
          ],
          "data": "0x000000000000000000000000000000000000000000000000000000000b925845",
          "blockHash": "0x6ea03428556025fe6d7db0a8fb66feebd43a195386354feee08af245a3795043",
          "blockNumber": "0x73161c",
          "transactionHash": "0x4e31999635bd9a1b082db907f4c460830355652ec3e0d2de32868bff6a761c88",
          "transactionIndex": "0x77",
          "logIndex": "0xcc",
          "removed": false
        },
        {
          "address": "0x8aafd3ede9adb0ff97c7aebce82a919afb1c8764",
          "topics": [
            "0x4afcb4a87cdbd9974efdb92ee48bc8d7cd0ae4bf217004db3d080cbaee652ca7"
          ],
          "data": "0x00000000000000000000000000000000000000000000000000000000679005fc0000000000000000000000000000000000000000000000000004c3cf240dae220000000000000000000000000000000000000000000000000000000001f0a290",
          "blockHash": "0x6ea03428556025fe6d7db0a8fb66feebd43a195386354feee08af245a3795043",
          "blockNumber": "0x73161c",
          "transactionHash": "0x4e31999635bd9a1b082db907f4c460830355652ec3e0d2de32868bff6a761c88",
          "transactionIndex": "0x77",
          "logIndex": "0xcd",
          "removed": false
        }
      ],
      "logsBloom": "0x00000000000000000000000000000000000000000600000000000000000000000000000000000000000000000000000000000000000000004000000000000000000000000000004000000008000000000000000000000000000000000000000000000000020000000000000000000800020000000000000000000010000000000000000000000000000000000000000000000000000000000000010000000000000000000000000000000000000000004000000000000000000000000000000000000002000000800000000000000000000000000000080000000000000020000000000000000000000000000000000000000000000000000000000000000000",
      "type": "0x2",
      "transactionHash": "0x4e31999635bd9a1b082db907f4c460830355652ec3e0d2de32868bff6a761c88",
      "transactionIndex": "0x77",
      "blockHash": "0x6ea03428556025fe6d7db0a8fb66feebd43a195386354feee08af245a3795043",
      "blockNumber": "0x73161c",
      "gasUsed": "0xfd1b",
      "effectiveGasPrice": "0x620c674b",
      "from": "0xc77f7fed3b5cc8249adc428c5f44c9063b9734b4",
      "to": "0x8aafd3ede9adb0ff97c7aebce82a919afb1c8764",
      "contractAddress": null
    }
  ],
  "libraries": [],
  "pending": [],
  "returns": {},
  "timestamp": 1737491966,
  "chain": 11155111,
  "commit": "1d2fb70"
}