{
  "transactions": [
    {
      "hash": "0xca099389727930e96757932e6baee7c67446b98e1e9b017ee6dc406737acb90f",
      "transactionType": "CALL",
      "contractName": null,
      "contractAddress": "0x8aafd3ede9adb0ff97c7aebce82a919afb1c8764",
      "function": "sell(uint256)",
      "arguments": [
        "44581284779824747"
      ],
      "transaction": {
        "from": "0xc77f7fed3b5cc8249adc428c5f44c9063b9734b4",
        "to": "0x8aafd3ede9adb0ff97c7aebce82a919afb1c8764",
        "gas": "0x1724d",
        "value": "0x0",
        "input": "0xe4849b32000000000000000000000000000000000000000000000000009e62713aee966b",
        "nonce": "0x1129",
        "chainId": "0xaa36a7"
      },
      "additionalContracts": [],
      "isFixedGasLimit": false
    }
  ],
  "receipts": [
    {
      "status": "0x1",
      "cumulativeGasUsed": "0xef90f4",
      "logs": [
        {
          "address": "0x8aafd3ede9adb0ff97c7aebce82a919afb1c8764",
          "topics": [
            "0xddf252ad1be2c89b69c2b068fc378daa952ba7f163c4a11628f55a4df523b3ef",
            "0x000000000000000000000000c77f7fed3b5cc8249adc428c5f44c9063b9734b4",
            "0x0000000000000000000000000000000000000000000000000000000000000000"
          ],
          "data": "0x000000000000000000000000000000000000000000000000009d1e121dc9dce6",
          "blockHash": "0xdf7a23bd953ccba5f0969a67c2626536720d3dac7e871be6c7f9b3ae00d07401",
          "blockNumber": "0x7317e0",
          "transactionHash": "0xca099389727930e96757932e6baee7c67446b98e1e9b017ee6dc406737acb90f",
          "transactionIndex": "0x80",
          "logIndex": "0xa2",
          "removed": false
        },
        {
          "address": "0x8aafd3ede9adb0ff97c7aebce82a919afb1c8764",
          "topics": [
            "0xddf252ad1be2c89b69c2b068fc378daa952ba7f163c4a11628f55a4df523b3ef",
            "0x000000000000000000000000c77f7fed3b5cc8249adc428c5f44c9063b9734b4",
            "0x000000000000000000000000c77f7fed3b5cc8249adc428c5f44c9063b9734b4"
          ],
          "data": "0x0000000000000000000000000000000000000000000000000001445f1d24b985",
          "blockHash": "0xdf7a23bd953ccba5f0969a67c2626536720d3dac7e871be6c7f9b3ae00d07401",
          "blockNumber": "0x7317e0",
          "transactionHash": "0xca099389727930e96757932e6baee7c67446b98e1e9b017ee6dc406737acb90f",
          "transactionIndex": "0x80",
          "logIndex": "0xa3",
          "removed": false
        },
        {
          "address": "0x8aafd3ede9adb0ff97c7aebce82a919afb1c8764",
          "topics": [
            "0x4afcb4a87cdbd9974efdb92ee48bc8d7cd0ae4bf217004db3d080cbaee652ca7"
          ],
          "data": "0x0000000000000000000000000000000000000000000000000000000067901b44000000000000000000000000000000000000000000000000000511f82794860e000000000000000000000000000000000000000000000000000039dd79b69dc2",
          "blockHash": "0xdf7a23bd953ccba5f0969a67c2626536720d3dac7e871be6c7f9b3ae00d07401",
          "blockNumber": "0x7317e0",
          "transactionHash": "0xca099389727930e96757932e6baee7c67446b98e1e9b017ee6dc406737acb90f",
          "transactionIndex": "0x80",
          "logIndex": "0xa4",
          "removed": false
        }
      ],
      "logsBloom": "0x00000000000000000000000000000000000000000600000000000000000000000000000000000000000000000000000000000000000000004000000000000000000000000000004000000008000000000000000000000000000000000000000000000000020000000000000000000800020000000000000000000010000000000000000000000000000000000000000000000000000000000000010000000000000000000000000000000000000000004000000000000000000000000000000000000002000000800000000000000000000000000000080000000000000020000000000000000000000000000000000000000000000000000000000000000000",
      "type": "0x2",
      "transactionHash": "0xca099389727930e96757932e6baee7c67446b98e1e9b017ee6dc406737acb90f",
      "transactionIndex": "0x80",
      "blockHash": "0xdf7a23bd953ccba5f0969a67c2626536720d3dac7e871be6c7f9b3ae00d07401",
      "blockNumber": "0x7317e0",
      "gasUsed": "0xfd33",
      "effectiveGasPrice": "0x464dbf07",
      "from": "0xc77f7fed3b5cc8249adc428c5f44c9063b9734b4",
      "to": "0x8aafd3ede9adb0ff97c7aebce82a919afb1c8764",
      "contractAddress": null
    }
  ],
  "libraries": [],
  "pending": [],
  "returns": {},
  "timestamp": 1737497414,
  "chain": 11155111,
  "commit": "1d2fb70"
}