{
  "transactions": [
    {
      "hash": "0xab4a8c6d6240bf402e253c5f1e5fe21ef9650a6594f0c5ead3b600cd6600cac1",
      "transactionType": "CALL",
      "contractName": null,
      "contractAddress": "0x270e88f8683660553e8ba4eb2ad7c91a1710d769",
      "function": "buy(address)",
      "arguments": [
        "0xC77f7fed3b5Cc8249aDc428c5F44C9063B9734b4"
      ],
      "transaction": {
        "from": "0xc77f7fed3b5cc8249adc428c5f44c9063b9734b4",
        "to": "0x270e88f8683660553e8ba4eb2ad7c91a1710d769",
        "gas": "0x1b30c",
        "value": "0xde0b6b3a7640000",
        "input": "0xf088d547000000000000000000000000c77f7fed3b5cc8249adc428c5f44c9063b9734b4",
        "nonce": "0x88b",
        "chainId": "0xaa36a7"
      },
      "additionalContracts": [],
      "isFixedGasLimit": false
    }
  ],
  "receipts": [
    {
      "status": "0x1",
      "cumulativeGasUsed": "0x540300",
      "logs": [
        {
          "address": "0x270e88f8683660553e8ba4eb2ad7c91a1710d769",
          "topics": [
            "0xddf252ad1be2c89b69c2b068fc378daa952ba7f163c4a11628f55a4df523b3ef",
            "0x0000000000000000000000000000000000000000000000000000000000000000",
            "0x000000000000000000000000c77f7fed3b5cc8249adc428c5f44c9063b9734b4"
          ],
          "data": "0x00000000000000000000000000000000000000000000002670bb7c0adf703ca7",
          "blockHash": "0xfd47b395e67998b077eae8ce4484116d5645dc229f8ca30c6281a42b701152b5",
          "blockNumber": "0x7255e7",
          "transactionHash": "0xab4a8c6d6240bf402e253c5f1e5fe21ef9650a6594f0c5ead3b600cd6600cac1",
          "transactionIndex": "0x2b",
          "logIndex": "0x3b",
          "removed": false
        },
        {
          "address": "0x270e88f8683660553e8ba4eb2ad7c91a1710d769",
          "topics": [
            "0xddf252ad1be2c89b69c2b068fc378daa952ba7f163c4a11628f55a4df523b3ef",
            "0x0000000000000000000000000000000000000000000000000000000000000000",
            "0x000000000000000000000000c77f7fed3b5cc8249adc428c5f44c9063b9734b4"
          ],
          "data": "0x0000000000000000000000000000000000000000000000001dd9aa127fbbf971",
          "blockHash": "0xfd47b395e67998b077eae8ce4484116d5645dc229f8ca30c6281a42b701152b5",
          "blockNumber": "0x7255e7",
          "transactionHash": "0xab4a8c6d6240bf402e253c5f1e5fe21ef9650a6594f0c5ead3b600cd6600cac1",
          "transactionIndex": "0x2b",
          "logIndex": "0x3c",
          "removed": false
        },
        {
          "address": "0x270e88f8683660553e8ba4eb2ad7c91a1710d769",
          "topics": [
            "0x4afcb4a87cdbd9974efdb92ee48bc8d7cd0ae4bf217004db3d080cbaee652ca7"
          ],
          "data": "0x000000000000000000000000000000000000000000000000000000006786f8dc0000000000000000000000000000000000000000000000000004f5e24b9a98ed0000000000000000000000000000000000000000000000000de0b6b3a7640000",
          "blockHash": "0xfd47b395e67998b077eae8ce4484116d5645dc229f8ca30c6281a42b701152b5",
          "blockNumber": "0x7255e7",
          "transactionHash": "0xab4a8c6d6240bf402e253c5f1e5fe21ef9650a6594f0c5ead3b600cd6600cac1",
          "transactionIndex": "0x2b",
          "logIndex": "0x3d",
          "removed": false
        }
      ],
      "logsBloom": "0x00000000000000000000000000000000000000000000000000000000000000000000000000000000000000000000000020000000000000004000000000000000000000000000000000000008000000000000000000000000000000000000000000000000020000000000000000000800020000000000000000000010000000000000000000010000000000000000000000000000000000000000010000000000000000000000000000000000000000004000000000000000000000000000000000000002000000800000000000000000000000000000080000008000000020000000000000000000000000000000000000000000000000000000000000000000",
      "type": "0x2",
      "transactionHash": "0xab4a8c6d6240bf402e253c5f1e5fe21ef9650a6594f0c5ead3b600cd6600cac1",
      "transactionIndex": "0x2b",
      "blockHash": "0xfd47b395e67998b077eae8ce4484116d5645dc229f8ca30c6281a42b701152b5",
      "blockNumber": "0x7255e7",
      "gasUsed": "0x13af8",
      "effectiveGasPrice": "0xf2c1a575",
      "from": "0xc77f7fed3b5cc8249adc428c5f44c9063b9734b4",
      "to": "0x270e88f8683660553e8ba4eb2ad7c91a1710d769",
      "contractAddress": null
    }
  ],
  "libraries": [],
  "pending": [],
  "returns": {},
  "timestamp": 1736898781,
  "chain": 11155111,
  "commit": "51a374b"
}