{
  "transactions": [
    {
      "hash": "0xd0c04916e94f815835a08f50da7688914b1ab7ee615433fb797ef088d079e2aa",
      "transactionType": "CALL",
      "contractName": null,
      "contractAddress": "0x8aafd3ede9adb0ff97c7aebce82a919afb1c8764",
      "function": "sell(uint256)",
      "arguments": [
        "2358526043888336305"
      ],
      "transaction": {
        "from": "0xc77f7fed3b5cc8249adc428c5f44c9063b9734b4",
        "to": "0x8aafd3ede9adb0ff97c7aebce82a919afb1c8764",
        "gas": "0x15dca",
        "value": "0x0",
        "input": "0xe4849b3200000000000000000000000000000000000000000000000020bb2af0df78bdb1",
        "nonce": "0x1347",
        "chainId": "0xaa36a7"
      },
      "additionalContracts": [],
      "isFixedGasLimit": false
    }
  ],
  "receipts": [
    {
      "status": "0x1",
      "cumulativeGasUsed": "0xeddfcf",
      "logs": [
        {
          "address": "0x8aafd3ede9adb0ff97c7aebce82a919afb1c8764",
          "topics": [
            "0xddf252ad1be2c89b69c2b068fc378daa952ba7f163c4a11628f55a4df523b3ef",
            "0x000000000000000000000000c77f7fed3b5cc8249adc428c5f44c9063b9734b4",
            "0x0000000000000000000000000000000000000000000000000000000000000000"
          ],
          "data": "0x00000000000000000000000000000000000000000000000020782267c727e72f",
          "blockHash": "0x1b343716eb7ccdf80079834a71643226deae2aaec138c55a3b7fb85ba06d2b0b",
          "blockNumber": "0x731a60",
          "transactionHash": "0xd0c04916e94f815835a08f50da7688914b1ab7ee615433fb797ef088d079e2aa",
          "transactionIndex": "0xb6",
          "logIndex": "0xb8",
          "removed": false
        },
        {
          "address": "0x8aafd3ede9adb0ff97c7aebce82a919afb1c8764",
          "topics": [
            "0xddf252ad1be2c89b69c2b068fc378daa952ba7f163c4a11628f55a4df523b3ef",
            "0x000000000000000000000000c77f7fed3b5cc8249adc428c5f44c9063b9734b4",
            "0x000000000000000000000000c77f7fed3b5cc8249adc428c5f44c9063b9734b4"
          ],
          "data": "0x000000000000000000000000000000000000000000000000004308891850d682",
          "blockHash": "0x1b343716eb7ccdf80079834a71643226deae2aaec138c55a3b7fb85ba06d2b0b",
          "blockNumber": "0x731a60",
          "transactionHash": "0xd0c04916e94f815835a08f50da7688914b1ab7ee615433fb797ef088d079e2aa",
          "transactionIndex": "0xb6",
          "logIndex": "0xb9",
          "removed": false
        },
        {
          "address": "0x8aafd3ede9adb0ff97c7aebce82a919afb1c8764",
          "topics": [
            "0x4afcb4a87cdbd9974efdb92ee48bc8d7cd0ae4bf217004db3d080cbaee652ca7"
          ],
          "data": "0x0000000000000000000000000000000000000000000000000000000067903950000000000000000000000000000000000000000000000000000c1160f0d503ef000000000000000000000000000000000000000000000000001c76005f86b04e",
          "blockHash": "0x1b343716eb7ccdf80079834a71643226deae2aaec138c55a3b7fb85ba06d2b0b",
          "blockNumber": "0x731a60",
          "transactionHash": "0xd0c04916e94f815835a08f50da7688914b1ab7ee615433fb797ef088d079e2aa",
          "transactionIndex": "0xb6",
          "logIndex": "0xba",
          "removed": false
        }
      ],
      "logsBloom": "0x00000000000000000000000000000000000000000600000000000000000000000000000000000000000000000000000000000000000000004000000000000000000000000000004000000008000000000000000000000000000000000000000000000000020000000000000000000800020000000000000000000010000000000000000000000000000000000000000000000000000000000000010000000000000000000000000000000000000000004000000000000000000000000000000000000002000000800000000000000000000000000000080000000000000020000000000000000000000000000000000000000000000000000000000000000000",
      "type": "0x2",
      "transactionHash": "0xd0c04916e94f815835a08f50da7688914b1ab7ee615433fb797ef088d079e2aa",
      "transactionIndex": "0xb6",
      "blockHash": "0x1b343716eb7ccdf80079834a71643226deae2aaec138c55a3b7fb85ba06d2b0b",
      "blockNumber": "0x731a60",
      "gasUsed": "0xfd3f",
      "effectiveGasPrice": "0x40220c9b",
      "from": "0xc77f7fed3b5cc8249adc428c5f44c9063b9734b4",
      "to": "0x8aafd3ede9adb0ff97c7aebce82a919afb1c8764",
      "contractAddress": null
    }
  ],
  "libraries": [],
  "pending": [],
  "returns": {},
  "timestamp": 1737505105,
  "chain": 11155111,
  "commit": "1d2fb70"
}