{
  "transactions": [
    {
      "hash": "0xd7edda7437bfdf8d3b943913c3fbe9f5f523749c58f878dd67ec2356727ffd6f",
      "transactionType": "CALL",
      "contractName": null,
      "contractAddress": "0x8aafd3ede9adb0ff97c7aebce82a919afb1c8764",
      "function": "buy(address)",
      "arguments": [
        "0xC77f7fed3b5Cc8249aDc428c5F44C9063B9734b4"
      ],
      "transaction": {
        "from": "0xc77f7fed3b5cc8249adc428c5f44c9063b9734b4",
        "to": "0x8aafd3ede9adb0ff97c7aebce82a919afb1c8764",
        "gas": "0x156ea",
        "value": "0xde0b6b3a7640000",
        "input": "0xf088d547000000000000000000000000c77f7fed3b5cc8249adc428c5f44c9063b9734b4",
        "nonce": "0x166f",
        "chainId": "0xaa36a7"
      },
      "additionalContracts": [],
      "isFixedGasLimit": false
    }
  ],
  "receipts": [
    {
      "status": "0x1",
      "cumulativeGasUsed": "0x11dbad7",
      "logs": [
        {
          "address": "0x8aafd3ede9adb0ff97c7aebce82a919afb1c8764",
          "topics": [
            "0xddf252ad1be2c89b69c2b068fc378daa952ba7f163c4a11628f55a4df523b3ef",
            "0x0000000000000000000000000000000000000000000000000000000000000000",
            "0x000000000000000000000000c77f7fed3b5cc8249adc428c5f44c9063b9734b4"
          ],
          "data": "0x000000000000000000000000000000000000000000000008f64a1fa863fa7d55",
          "blockHash": "0x703c42e617115ff06dc06c58e29e1b1d1530224e97c960ebbedc206ac460769f",
          "blockNumber": "0x731e1e",
          "transactionHash": "0xd7edda7437bfdf8d3b943913c3fbe9f5f523749c58f878dd67ec2356727ffd6f",
          "transactionIndex": "0x8c",
          "logIndex": "0xed",
          "removed": false
        },
        {
          "address": "0x8aafd3ede9adb0ff97c7aebce82a919afb1c8764",
          "topics": [
            "0xddf252ad1be2c89b69c2b068fc378daa952ba7f163c4a11628f55a4df523b3ef",
            "0x0000000000000000000000000000000000000000000000000000000000000000",
            "0x000000000000000000000000c77f7fed3b5cc8249adc428c5f44c9063b9734b4"
          ],
          "data": "0x00000000000000000000000000000000000000000000000006f5981648e8c1d4",
          "blockHash": "0x703c42e617115ff06dc06c58e29e1b1d1530224e97c960ebbedc206ac460769f",
          "blockNumber": "0x731e1e",
          "transactionHash": "0xd7edda7437bfdf8d3b943913c3fbe9f5f523749c58f878dd67ec2356727ffd6f",
          "transactionIndex": "0x8c",
          "logIndex": "0xee",
          "removed": false
        },
        {
          "address": "0x8aafd3ede9adb0ff97c7aebce82a919afb1c8764",
          "topics": [
            "0x4afcb4a87cdbd9974efdb92ee48bc8d7cd0ae4bf217004db3d080cbaee652ca7"
          ],
          "data": "0x000000000000000000000000000000000000000000000000000000006790665000000000000000000000000000000000000000000000000000154d2967caa3670000000000000000000000000000000000000000000000000de0b6b3a7640000",
          "blockHash": "0x703c42e617115ff06dc06c58e29e1b1d1530224e97c960ebbedc206ac460769f",
          "blockNumber": "0x731e1e",
          "transactionHash": "0xd7edda7437bfdf8d3b943913c3fbe9f5f523749c58f878dd67ec2356727ffd6f",
          "transactionIndex": "0x8c",
          "logIndex": "0xef",
          "removed": false
        }
      ],
      "logsBloom": "0x00000000000000000000000000000000000000000600000000000000000000000000000000000000000000000000000000000000000000004000000000000000000000000000004000000008000000000000000000000000000000000000000000000000020000000000000000000800020000000000000000000010000000000000000000000000000000000000000000000000000000000000010000000000000000000000000000000000000000004000000000000000000000000000000000000002000000800000000000000000000000000000080000000000000020000000000000000000000000000000000000000000000000000000000000000000",
      "type": "0x2",
      "transactionHash": "0xd7edda7437bfdf8d3b943913c3fbe9f5f523749c58f878dd67ec2356727ffd6f",
      "transactionIndex": "0x8c",
      "blockHash": "0x703c42e617115ff06dc06c58e29e1b1d1530224e97c960ebbedc206ac460769f",
      "blockNumber": "0x731e1e",
      "gasUsed": "0xf844",
      "effectiveGasPrice": "0x3f67836a",
      "from": "0xc77f7fed3b5cc8249adc428c5f44c9063b9734b4",
      "to": "0x8aafd3ede9adb0ff97c7aebce82a919afb1c8764",
      "contractAddress": null
    }
  ],
  "libraries": [],
  "pending": [],
  "returns": {},
  "timestamp": 1737516625,
  "chain": 11155111,
  "commit": "1d2fb70"
}