{
  "transactions": [
    {
      "hash": "0xa56da45611ed8d4a3b8b25dddd531a1be1b473ed597ba0beff25f2b4cfe4381b",
      "transactionType": "CALL",
      "contractName": null,
      "contractAddress": "0x8aafd3ede9adb0ff97c7aebce82a919afb1c8764",
      "function": "buy(address)",
      "arguments": [
        "0xC77f7fed3b5Cc8249aDc428c5F44C9063B9734b4"
      ],
      "transaction": {
        "from": "0xc77f7fed3b5cc8249adc428c5f44c9063b9734b4",
        "to": "0x8aafd3ede9adb0ff97c7aebce82a919afb1c8764",
        "gas": "0x156ea",
        "value": "0xde0b6b3a7640000",
        "input": "0xf088d547000000000000000000000000c77f7fed3b5cc8249adc428c5f44c9063b9734b4",
        "nonce": "0x12ac",
        "chainId": "0xaa36a7"
      },
      "additionalContracts": [],
      "isFixedGasLimit": false
    }
  ],
  "receipts": [
    {
      "status": "0x1",
      "cumulativeGasUsed": "0xa55a4e",
      "logs": [
        {
          "address": "0x8aafd3ede9adb0ff97c7aebce82a919afb1c8764",
          "topics": [
            "0xddf252ad1be2c89b69c2b068fc378daa952ba7f163c4a11628f55a4df523b3ef",
            "0x0000000000000000000000000000000000000000000000000000000000000000",
            "0x000000000000000000000000c77f7fed3b5cc8249adc428c5f44c9063b9734b4"
          ],
          "data": "0x00000000000000000000000000000000000000000000002412312d8308c8bce9",
          "blockHash": "0x59102d0ed361325dd24a6953b9ff0281a6bada168395fb6e9745d98164f0ca27",
          "blockNumber": "0x7319a2",
          "transactionHash": "0xa56da45611ed8d4a3b8b25dddd531a1be1b473ed597ba0beff25f2b4cfe4381b",
          "transactionIndex": "0x71",
          "logIndex": "0xc0",
          "removed": false
        },
        {
          "address": "0x8aafd3ede9adb0ff97c7aebce82a919afb1c8764",
          "topics": [
            "0xddf252ad1be2c89b69c2b068fc378daa952ba7f163c4a11628f55a4df523b3ef",
            "0x0000000000000000000000000000000000000000000000000000000000000000",
            "0x000000000000000000000000c77f7fed3b5cc8249adc428c5f44c9063b9734b4"
          ],
          "data": "0x0000000000000000000000000000000000000000000000001c02aa46d440dff7",
          "blockHash": "0x59102d0ed361325dd24a6953b9ff0281a6bada168395fb6e9745d98164f0ca27",
          "blockNumber": "0x7319a2",
          "transactionHash": "0xa56da45611ed8d4a3b8b25dddd531a1be1b473ed597ba0beff25f2b4cfe4381b",
          "transactionIndex": "0x71",
          "logIndex": "0xc1",
          "removed": false
        },
        {
          "address": "0x8aafd3ede9adb0ff97c7aebce82a919afb1c8764",
          "topics": [
            "0x4afcb4a87cdbd9974efdb92ee48bc8d7cd0ae4bf217004db3d080cbaee652ca7"
          ],
          "data": "0x0000000000000000000000000000000000000000000000000000000067903068000000000000000000000000000000000000000000000000000549980cb4abf90000000000000000000000000000000000000000000000000de0b6b3a7640000",
          "blockHash": "0x59102d0ed361325dd24a6953b9ff0281a6bada168395fb6e9745d98164f0ca27",
          "blockNumber": "0x7319a2",
          "transactionHash": "0xa56da45611ed8d4a3b8b25dddd531a1be1b473ed597ba0beff25f2b4cfe4381b",
          "transactionIndex": "0x71",
          "logIndex": "0xc2",
          "removed": false
        }
      ],
      "logsBloom": "0x00000000000000000000000000000000000000000600000000000000000000000000000000000000000000000000000000000000000000004000000000000000000000000000004000000008000000000000000000000000000000000000000000000000020000000000000000000800020000000000000000000010000000000000000000000000000000000000000000000000000000000000010000000000000000000000000000000000000000004000000000000000000000000000000000000002000000800000000000000000000000000000080000000000000020000000000000000000000000000000000000000000000000000000000000000000",
      "type": "0x2",
      "transactionHash": "0xa56da45611ed8d4a3b8b25dddd531a1be1b473ed597ba0beff25f2b4cfe4381b",
      "transactionIndex": "0x71",
      "blockHash": "0x59102d0ed361325dd24a6953b9ff0281a6bada168395fb6e9745d98164f0ca27",
      "blockNumber": "0x7319a2",
      "gasUsed": "0xf844",
      "effectiveGasPrice": "0x416c31b3",
      "from": "0xc77f7fed3b5cc8249adc428c5f44c9063b9734b4",
      "to": "0x8aafd3ede9adb0ff97c7aebce82a919afb1c8764",
      "contractAddress": null
    }
  ],
  "libraries": [],
  "pending": [],
  "returns": {},
  "timestamp": 1737502825,
  "chain": 11155111,
  "commit": "1d2fb70"
}