{
  "transactions": [
    {
      "hash": "0x8142c37b9faf38bac358bfc798fe1a0745c3094aba1d779d86f8a464dff4282e",
      "transactionType": "CALL",
      "contractName": null,
      "contractAddress": "0x8aafd3ede9adb0ff97c7aebce82a919afb1c8764",
      "function": "sell(uint256)",
      "arguments": [
        "23348735343"
      ],
      "transaction": {
        "from": "0xc77f7fed3b5cc8249adc428c5f44c9063b9734b4",
        "to": "0x8aafd3ede9adb0ff97c7aebce82a919afb1c8764",
        "gas": "0x1722a",
        "value": "0x0",
        "input": "0xe4849b32000000000000000000000000000000000000000000000000000000056fb16d6f",
        "nonce": "0x1064",
        "chainId": "0xaa36a7"
      },
      "additionalContracts": [],
      "isFixedGasLimit": false
    }
  ],
  "receipts": [
    {
      "status": "0x1",
      "cumulativeGasUsed": "0x11c2299",
      "logs": [
        {
          "address": "0x8aafd3ede9adb0ff97c7aebce82a919afb1c8764",
          "topics": [
            "0xddf252ad1be2c89b69c2b068fc378daa952ba7f163c4a11628f55a4df523b3ef",
            "0x000000000000000000000000c77f7fed3b5cc8249adc428c5f44c9063b9734b4",
            "0x0000000000000000000000000000000000000000000000000000000000000000"
          ],
          "data": "0x00000000000000000000000000000000000000000000000000000005648f3d75",
          "blockHash": "0xbe9fc9aea6f9e92b5bb3c029a85274af99a14eb2e964e557916913682d3c9eec",
          "blockNumber": "0x7316ea",
          "transactionHash": "0x8142c37b9faf38bac358bfc798fe1a0745c3094aba1d779d86f8a464dff4282e",
          "transactionIndex": "0x7d",
          "logIndex": "0xea",
          "removed": false
        },
        {
          "address": "0x8aafd3ede9adb0ff97c7aebce82a919afb1c8764",
          "topics": [
            "0xddf252ad1be2c89b69c2b068fc378daa952ba7f163c4a11628f55a4df523b3ef",
            "0x000000000000000000000000c77f7fed3b5cc8249adc428c5f44c9063b9734b4",
            "0x000000000000000000000000c77f7fed3b5cc8249adc428c5f44c9063b9734b4"
          ],
          "data": "0x000000000000000000000000000000000000000000000000000000000b222ffa",
          "blockHash": "0xbe9fc9aea6f9e92b5bb3c029a85274af99a14eb2e964e557916913682d3c9eec",
          "blockNumber": "0x7316ea",
          "transactionHash": "0x8142c37b9faf38bac358bfc798fe1a0745c3094aba1d779d86f8a464dff4282e",
          "transactionIndex": "0x7d",
          "logIndex": "0xeb",
          "removed": false
        },
        {
          "address": "0x8aafd3ede9adb0ff97c7aebce82a919afb1c8764",
          "topics": [
            "0x4afcb4a87cdbd9974efdb92ee48bc8d7cd0ae4bf217004db3d080cbaee652ca7"
          ],
          "data": "0x0000000000000000000000000000000000000000000000000000000067900fb00000000000000000000000000000000000000000000000000004f4ebcbd3aec70000000000000000000000000000000000000000000000000000000001f11203",
          "blockHash": "0xbe9fc9aea6f9e92b5bb3c029a85274af99a14eb2e964e557916913682d3c9eec",
          "blockNumber": "0x7316ea",
          "transactionHash": "0x8142c37b9faf38bac358bfc798fe1a0745c3094aba1d779d86f8a464dff4282e",
          "transactionIndex": "0x7d",
          "logIndex": "0xec",
          "removed": false
        }
      ],
      "logsBloom": "0x00000000000000000000000000000000000000000600000000000000000000000000000000000000000000000000000000000000000000004000000000000000000000000000004000000008000000000000000000000000000000000000000000000000020000000000000000000800020000000000000000000010000000000000000000000000000000000000000000000000000000000000010000000000000000000000000000000000000000004000000000000000000000000000000000000002000000800000000000000000000000000000080000000000000020000000000000000000000000000000000000000000000000000000000000000000",
      "type": "0x2",
      "transactionHash": "0x8142c37b9faf38bac358bfc798fe1a0745c3094aba1d779d86f8a464dff4282e",
      "transactionIndex": "0x7d",
      "blockHash": "0xbe9fc9aea6f9e92b5bb3c029a85274af99a14eb2e964e557916913682d3c9eec",
      "blockNumber": "0x7316ea",
      "gasUsed": "0xfd1b",
      "effectiveGasPrice": "0x3e35b481",
      "from": "0xc77f7fed3b5cc8249adc428c5f44c9063b9734b4",
      "to": "0x8aafd3ede9adb0ff97c7aebce82a919afb1c8764",
      "contractAddress": null
    }
  ],
  "libraries": [],
  "pending": [],
  "returns": {},
  "timestamp": 1737494449,
  "chain": 11155111,
  "commit": "1d2fb70"
}