{
  "transactions": [
    {
      "hash": "0x758c7db549148d6c285ff4a273a7cd7849627857866a46f55f583b6a063bd519",
      "transactionType": "CALL",
      "contractName": null,
      "contractAddress": "0x270e88f8683660553e8ba4eb2ad7c91a1710d769",
      "function": "buy(address)",
      "arguments": [
        "0xC77f7fed3b5Cc8249aDc428c5F44C9063B9734b4"
      ],
      "transaction": {
        "from": "0xc77f7fed3b5cc8249adc428c5f44c9063b9734b4",
        "to": "0x270e88f8683660553e8ba4eb2ad7c91a1710d769",
        "gas": "0x1b30c",
        "value": "0xde0b6b3a7640000",
        "input": "0xf088d547000000000000000000000000c77f7fed3b5cc8249adc428c5f44c9063b9734b4",
        "nonce": "0x540",
        "chainId": "0xaa36a7"
      },
      "additionalContracts": [],
      "isFixedGasLimit": false
    }
  ],
  "receipts": [
    {
      "status": "0x1",
      "cumulativeGasUsed": "0x9a2a15",
      "logs": [
        {
          "address": "0x270e88f8683660553e8ba4eb2ad7c91a1710d769",
          "topics": [
            "0xddf252ad1be2c89b69c2b068fc378daa952ba7f163c4a11628f55a4df523b3ef",
            "0x0000000000000000000000000000000000000000000000000000000000000000",
            "0x000000000000000000000000c77f7fed3b5cc8249adc428c5f44c9063b9734b4"
          ],
          "data": "0x000000000000000000000000000000000000000000000034c06f32dec27d6f65",
          "blockHash": "0x935503adff69a2b5a54d868ef71bf1bb96386834ae19469dc42538901b64f396",
          "blockNumber": "0x7251dd",
          "transactionHash": "0x758c7db549148d6c285ff4a273a7cd7849627857866a46f55f583b6a063bd519",
          "transactionIndex": "0x5b",
          "logIndex": "0xac",
          "removed": false
        },
        {
          "address": "0x270e88f8683660553e8ba4eb2ad7c91a1710d769",
          "topics": [
            "0xddf252ad1be2c89b69c2b068fc378daa952ba7f163c4a11628f55a4df523b3ef",
            "0x0000000000000000000000000000000000000000000000000000000000000000",
            "0x000000000000000000000000c77f7fed3b5cc8249adc428c5f44c9063b9734b4"
          ],
          "data": "0x00000000000000000000000000000000000000000000000028f6a7677b267c29",
          "blockHash": "0x935503adff69a2b5a54d868ef71bf1bb96386834ae19469dc42538901b64f396",
          "blockNumber": "0x7251dd",
          "transactionHash": "0x758c7db549148d6c285ff4a273a7cd7849627857866a46f55f583b6a063bd519",
          "transactionIndex": "0x5b",
          "logIndex": "0xad",
          "removed": false
        },
        {
          "address": "0x270e88f8683660553e8ba4eb2ad7c91a1710d769",
          "topics": [
            "0x4afcb4a87cdbd9974efdb92ee48bc8d7cd0ae4bf217004db3d080cbaee652ca7"
          ],
          "data": "0x000000000000000000000000000000000000000000000000000000006786c84c00000000000000000000000000000000000000000000000000039d65b0af5f280000000000000000000000000000000000000000000000000de0b6b3a7640000",
          "blockHash": "0x935503adff69a2b5a54d868ef71bf1bb96386834ae19469dc42538901b64f396",
          "blockNumber": "0x7251dd",
          "transactionHash": "0x758c7db549148d6c285ff4a273a7cd7849627857866a46f55f583b6a063bd519",
          "transactionIndex": "0x5b",
          "logIndex": "0xae",
          "removed": false
        }
      ],
      "logsBloom": "0x00000000000000000000000000000000000000000000000000000000000000000000000000000000000000000000000020000000000000004000000000000000000000000000000000000008000000000000000000000000000000000000000000000000020000000000000000000800020000000000000000000010000000000000000000010000000000000000000000000000000000000000010000000000000000000000000000000000000000004000000000000000000000000000000000000002000000800000000000000000000000000000080000008000000020000000000000000000000000000000000000000000000000000000000000000000",
      "type": "0x2",
      "transactionHash": "0x758c7db549148d6c285ff4a273a7cd7849627857866a46f55f583b6a063bd519",
      "transactionIndex": "0x5b",
      "blockHash": "0x935503adff69a2b5a54d868ef71bf1bb96386834ae19469dc42538901b64f396",
      "blockNumber": "0x7251dd",
      "gasUsed": "0x13af8",
      "effectiveGasPrice": "0x41fc3d7de",
      "from": "0xc77f7fed3b5cc8249adc428c5f44c9063b9734b4",
      "to": "0x270e88f8683660553e8ba4eb2ad7c91a1710d769",
      "contractAddress": null
    }
  ],
  "libraries": [],
  "pending": [],
  "returns": {},
  "timestamp": 1736886350,
  "chain": 11155111,
  "commit": "51a374b"
}