{
  "transactions": [
    {
      "hash": "0x57f880565eaf547c9ebee5b0e962980124ec983cb877704524cc82a4ccabb768",
      "transactionType": "CALL",
      "contractName": null,
      "contractAddress": "0x229177d919e66b3300c159770ff2db68cec9bdb8",
      "function": "borrowMore(uint256)",
      "arguments": [
        "76028919999999922"
      ],
      "transaction": {
        "from": "0xc77f7fed3b5cc8249adc428c5f44c9063b9734b4",
        "to": "0x229177d919e66b3300c159770ff2db68cec9bdb8",
        "gas": "0x1dbe9",
        "value": "0x0",
        "input": "0x9d0bf2e9000000000000000000000000000000000000000000000000010e1be66141afb2",
        "nonce": "0x1934",
        "chainId": "0xaa36a7"
      },
      "additionalContracts": [],
      "isFixedGasLimit": false
    }
  ],
  "receipts": [
    {
      "status": "0x1",
      "cumulativeGasUsed": "0x147c894",
      "logs": [
        {
          "address": "0x229177d919e66b3300c159770ff2db68cec9bdb8",
          "topics": [
            "0x03bbe564cb1b78e43195eeadbde99e5b89b19345862807fcfb59f884e4165e25"
          ],
          "data": "0x00000000000000000000000038818e389773445cd73adbaa37b8b169f458c6e1000000000000000000000000000000000000000000000000000014be8f07e0ff",
          "blockHash": "0xa9cda15f61c7238baa29f9e0f4be4be580a642a089a2e6378b06860e79a1b0d6",
          "blockNumber": "0x739be8",
          "transactionHash": "0x57f880565eaf547c9ebee5b0e962980124ec983cb877704524cc82a4ccabb768",
          "transactionIndex": "0x84",
          "logIndex": "0x1a9",
          "removed": false
        },
        {
          "address": "0x229177d919e66b3300c159770ff2db68cec9bdb8",
          "topics": [
            "0x03bbe564cb1b78e43195eeadbde99e5b89b19345862807fcfb59f884e4165e25"
          ],
          "data": "0x000000000000000000000000c77f7fed3b5cc8249adc428c5f44c9063b9734b4000000000000000000000000000000000000000000000000010ac93ba8f645b3",
          "blockHash": "0xa9cda15f61c7238baa29f9e0f4be4be580a642a089a2e6378b06860e79a1b0d6",
          "blockNumber": "0x739be8",
          "transactionHash": "0x57f880565eaf547c9ebee5b0e962980124ec983cb877704524cc82a4ccabb768",
          "transactionIndex": "0x84",
          "logIndex": "0x1aa",
          "removed": false
        },
        {
          "address": "0x229177d919e66b3300c159770ff2db68cec9bdb8",
          "topics": [
            "0xaec00f5213a37254bc68a26b0685d1a5b2bf513e1e587c94c7df7f4a62b56c9c"
          ],
          "data": "0x0000000000000000000000000000000000000000000000008ac7230489e7ffff000000000000000000000000000000000000000000000000013147e5c0886fa8000000000000000000000000000000000000000000000000890ebd127e884fa800000000000000000000000000000000000000000000003daa0a4a6e9eaaa9ae",
          "blockHash": "0xa9cda15f61c7238baa29f9e0f4be4be580a642a089a2e6378b06860e79a1b0d6",
          "blockNumber": "0x739be8",
          "transactionHash": "0x57f880565eaf547c9ebee5b0e962980124ec983cb877704524cc82a4ccabb768",
          "transactionIndex": "0x84",
          "logIndex": "0x1ab",
          "removed": false
        },
        {
          "address": "0x229177d919e66b3300c159770ff2db68cec9bdb8",
          "topics": [
            "0x4afcb4a87cdbd9974efdb92ee48bc8d7cd0ae4bf217004db3d080cbaee652ca7"
          ],
          "data": "0x000000000000000000000000000000000000000000000000000000006796851c000000000000000000000000000000000000000000000000001f29a280f8574800000000000000000000000000000000000000000000000000004525dcc4edff",
          "blockHash": "0xa9cda15f61c7238baa29f9e0f4be4be580a642a089a2e6378b06860e79a1b0d6",
          "blockNumber": "0x739be8",
          "transactionHash": "0x57f880565eaf547c9ebee5b0e962980124ec983cb877704524cc82a4ccabb768",
          "transactionIndex": "0x84",
          "logIndex": "0x1ac",
          "removed": false
        }
      ],
      "logsBloom": "0x00000000000000000000000000000100400000000000000000000000000000000008000000000000000000000000000000002000000000004000000000000000000000000000000000000000000000000000000000000000000000000000000000000000000000000000000000000000020000000000000000000000800000000000002000000000000000000000000000000000000000000000000000000000000002000000000000000400000000004000000000000000000000001000000000000000000000000000000000000000000000000000000000000000000000000000000000000000000000000000000000000000000000000000000000000000",
      "type": "0x2",
      "transactionHash": "0x57f880565eaf547c9ebee5b0e962980124ec983cb877704524cc82a4ccabb768",
      "transactionIndex": "0x84",
      "blockHash": "0xa9cda15f61c7238baa29f9e0f4be4be580a642a089a2e6378b06860e79a1b0d6",
      "blockNumber": "0x739be8",
      "gasUsed": "0x1588e",
      "effectiveGasPrice": "0x1b6f88be8",
      "from": "0xc77f7fed3b5cc8249adc428c5f44c9063b9734b4",
      "to": "0x229177d919e66b3300c159770ff2db68cec9bdb8",
      "contractAddress": null
    }
  ],
  "libraries": [],
  "pending": [],
  "returns": {},
  "timestamp": 1737917727,
  "chain": 11155111,
  "commit": "f5162e9"
}