{
  "transactions": [
    {
      "hash": "0x527012380343212bf501578689333e79080ce9e29480a488d493e1c15777b4d5",
      "transactionType": "CALL",
      "contractName": null,
      "contractAddress": "0x270e88f8683660553e8ba4eb2ad7c91a1710d769",
      "function": "sell(uint256)",
      "arguments": [
        "942378315316785698704"
      ],
      "transaction": {
        "from": "0xc77f7fed3b5cc8249adc428c5f44c9063b9734b4",
        "to": "0x270e88f8683660553e8ba4eb2ad7c91a1710d769",
        "gas": "0x16fec",
        "value": "0x0",
        "input": "0xe4849b32000000000000000000000000000000000000000000000033162054d8a811d790",
        "nonce": "0x623",
        "chainId": "0xaa36a7"
      },
      "additionalContracts": [],
      "isFixedGasLimit": false
    }
  ],
  "receipts": [
    {
      "status": "0x1",
      "cumulativeGasUsed": "0x7b21be",
      "logs": [
        {
          "address": "0x270e88f8683660553e8ba4eb2ad7c91a1710d769",
          "topics": [
            "0xddf252ad1be2c89b69c2b068fc378daa952ba7f163c4a11628f55a4df523b3ef",
            "0x000000000000000000000000c77f7fed3b5cc8249adc428c5f44c9063b9734b4",
            "0x0000000000000000000000000000000000000000000000000000000000000000"
          ],
          "data": "0x000000000000000000000000000000000000000000000033162054d8a811d790",
          "blockHash": "0xd0ddc96e0d4a6c0e02775fe58c677660e35a4756348656ecd3c147b09aeab065",
          "blockNumber": "0x7252f3",
          "transactionHash": "0x527012380343212bf501578689333e79080ce9e29480a488d493e1c15777b4d5",
          "transactionIndex": "0x3d",
          "logIndex": "0x91",
          "removed": false
        },
        {
          "address": "0x270e88f8683660553e8ba4eb2ad7c91a1710d769",
          "topics": [
            "0x4afcb4a87cdbd9974efdb92ee48bc8d7cd0ae4bf217004db3d080cbaee652ca7"
          ],
          "data": "0x000000000000000000000000000000000000000000000000000000006786d56c0000000000000000000000000000000000000000000000000003bea53dabffe60000000000000000000000000000000000000000000000000dc83d600d979aab",
          "blockHash": "0xd0ddc96e0d4a6c0e02775fe58c677660e35a4756348656ecd3c147b09aeab065",
          "blockNumber": "0x7252f3",
          "transactionHash": "0x527012380343212bf501578689333e79080ce9e29480a488d493e1c15777b4d5",
          "transactionIndex": "0x3d",
          "logIndex": "0x92",
          "removed": false
        }
      ],
      "logsBloom": "0x00000000000000000000000000000000000000000000000000000000000000000000000000000000000000000000000020000000000000004000000000000000000000000000000000000008000000000000000000000000000000000000000000000000020000000000000000000800020000000000000000000010000000000000000000010000000000000000000000000000000000000000010000000000000000000000000000000000000000004000000000000000000000000000000000000002000000800000000000000000000000000000080000008000000020000000000000000000000000000000000000000000000000000000000000000000",
      "type": "0x2",
      "transactionHash": "0x527012380343212bf501578689333e79080ce9e29480a488d493e1c15777b4d5",
      "transactionIndex": "0x3d",
      "blockHash": "0xd0ddc96e0d4a6c0e02775fe58c677660e35a4756348656ecd3c147b09aeab065",
      "blockNumber": "0x7252f3",
      "gasUsed": "0xfb93",
      "effectiveGasPrice": "0x2b050efbf",
      "from": "0xc77f7fed3b5cc8249adc428c5f44c9063b9734b4",
      "to": "0x270e88f8683660553e8ba4eb2ad7c91a1710d769",
      "contractAddress": null
    }
  ],
  "libraries": [],
  "pending": [],
  "returns": {},
  "timestamp": 1736889709,
  "chain": 11155111,
  "commit": "51a374b"
}