{
  "transactions": [
    {
      "hash": "0xba2a3bf0e746eb885d70bfdf67b0e4623f8ca34983aaf939418a626adf53ed0f",
      "transactionType": "CALL",
      "contractName": null,
      "contractAddress": "0xbf4a322f1496e5c3d34a9bcdb4c60567b38c7de2",
      "function": "buy(address)",
      "arguments": [
        "0xC77f7fed3b5Cc8249aDc428c5F44C9063B9734b4"
      ],
      "transaction": {
        "from": "0xc77f7fed3b5cc8249adc428c5f44c9063b9734b4",
        "to": "0xbf4a322f1496e5c3d34a9bcdb4c60567b38c7de2",
        "gas": "0x1b309",
        "value": "0xde0b6b3a7640000",
        "input": "0xf088d547000000000000000000000000c77f7fed3b5cc8249adc428c5f44c9063b9734b4",
        "nonce": "0x9b6",
        "chainId": "0xaa36a7"
      },
      "additionalContracts": [],
      "isFixedGasLimit": false
    }
  ],
  "receipts": [
    {
      "status": "0x1",
      "cumulativeGasUsed": "0xa6e38a",
      "logs": [
        {
          "address": "0xbf4a322f1496e5c3d34a9bcdb4c60567b38c7de2",
          "topics": [
            "0xddf252ad1be2c89b69c2b068fc378daa952ba7f163c4a11628f55a4df523b3ef",
            "0x0000000000000000000000000000000000000000000000000000000000000000",
            "0x000000000000000000000000c77f7fed3b5cc8249adc428c5f44c9063b9734b4"
          ],
          "data": "0x000000000000000000000000000000000000000000000035692d34afec09f1ff",
          "blockHash": "0x59b26463749b7dc00857d8f3050fffb6aae3dc1a298b0dbc8bfcb18e93aa6883",
          "blockNumber": "0x725961",
          "transactionHash": "0xba2a3bf0e746eb885d70bfdf67b0e4623f8ca34983aaf939418a626adf53ed0f",
          "transactionIndex": "0x70",
          "logIndex": "0xab",
          "removed": false
        },
        {
          "address": "0xbf4a322f1496e5c3d34a9bcdb4c60567b38c7de2",
          "topics": [
            "0xddf252ad1be2c89b69c2b068fc378daa952ba7f163c4a11628f55a4df523b3ef",
            "0x0000000000000000000000000000000000000000000000000000000000000000",
            "0x000000000000000000000000c77f7fed3b5cc8249adc428c5f44c9063b9734b4"
          ],
          "data": "0x0000000000000000000000000000000000000000000000002979b021559d4d37",
          "blockHash": "0x59b26463749b7dc00857d8f3050fffb6aae3dc1a298b0dbc8bfcb18e93aa6883",
          "blockNumber": "0x725961",
          "transactionHash": "0xba2a3bf0e746eb885d70bfdf67b0e4623f8ca34983aaf939418a626adf53ed0f",
          "transactionIndex": "0x70",
          "logIndex": "0xac",
          "removed": false
        },
        {
          "address": "0xbf4a322f1496e5c3d34a9bcdb4c60567b38c7de2",
          "topics": [
            "0x4afcb4a87cdbd9974efdb92ee48bc8d7cd0ae4bf217004db3d080cbaee652ca7"
          ],
          "data": "0x00000000000000000000000000000000000000000000000000000000678722b8000000000000000000000000000000000000000000000000000391e2001856fa0000000000000000000000000000000000000000000000000de0b6b3a7640000",
          "blockHash": "0x59b26463749b7dc00857d8f3050fffb6aae3dc1a298b0dbc8bfcb18e93aa6883",
          "blockNumber": "0x725961",
          "transactionHash": "0xba2a3bf0e746eb885d70bfdf67b0e4623f8ca34983aaf939418a626adf53ed0f",
          "transactionIndex": "0x70",
          "logIndex": "0xad",
          "removed": false
        }
      ],
      "logsBloom": "0x00000000000000000000000000000000000000000000000000000000000000000000000000000000000000000000000000000000000000004000000000000000000000000000000000000008000000000000001000000000000000000000000000000000020000000000000000000800020000000000000000000010000000000000000000000000000000000000000000000000000008000000010000000000000000000000000000000000000000004000000000000000000000000000000000000002000000800000000000001000000000000000080000000000000020000000000000000000000000000000000000000000000000000000000000000000",
      "type": "0x2",
      "transactionHash": "0xba2a3bf0e746eb885d70bfdf67b0e4623f8ca34983aaf939418a626adf53ed0f",
      "transactionIndex": "0x70",
      "blockHash": "0x59b26463749b7dc00857d8f3050fffb6aae3dc1a298b0dbc8bfcb18e93aa6883",
      "blockNumber": "0x725961",
      "gasUsed": "0x13af6",
      "effectiveGasPrice": "0x299604785",
      "from": "0xc77f7fed3b5cc8249adc428c5f44c9063b9734b4",
      "to": "0xbf4a322f1496e5c3d34a9bcdb4c60567b38c7de2",
      "contractAddress": null
    }
  ],
  "libraries": [],
  "pending": [],
  "returns": {},
  "timestamp": 1736909498,
  "chain": 11155111,
  "commit": "51a374b"
}