{
  "transactions": [
    {
      "hash": "0xe786990913c278353ee092a07fe28e229b1572d8c08749c1bdc3e98d15c5a2d2",
      "transactionType": "CALL",
      "contractName": null,
      "contractAddress": "0x5eb9cc76c3506942c1c0ead70e877dd5e4f00cb0",
      "function": "buy(address)",
      "arguments": [
        "0xC77f7fed3b5Cc8249aDc428c5F44C9063B9734b4"
      ],
      "transaction": {
        "from": "0xc77f7fed3b5cc8249adc428c5f44c9063b9734b4",
        "to": "0x5eb9cc76c3506942c1c0ead70e877dd5e4f00cb0",
        "gas": "0x156c8",
        "value": "0xde0b6b3a7640000",
        "input": "0xf088d547000000000000000000000000c77f7fed3b5cc8249adc428c5f44c9063b9734b4",
        "nonce": "0x14f",
        "chainId": "0xaa36a7"
      },
      "additionalContracts": [],
      "isFixedGasLimit": false
    }
  ],
  "receipts": [
    {
      "status": "0x1",
      "cumulativeGasUsed": "0x3778ed",
      "logs": [
        {
          "address": "0x5eb9cc76c3506942c1c0ead70e877dd5e4f00cb0",
          "topics": [
            "0xddf252ad1be2c89b69c2b068fc378daa952ba7f163c4a11628f55a4df523b3ef",
            "0x0000000000000000000000000000000000000000000000000000000000000000",
            "0x000000000000000000000000c77f7fed3b5cc8249adc428c5f44c9063b9734b4"
          ],
          "data": "0x000000000000000000000000000000000000000000000035aaf285b904a036c8",
          "blockHash": "0x4b90eedf452ceed2ddb81b5f689bf8d4ab21927ecae9d0d46c32a9fcbde12821",
          "blockNumber": "0x723b45",
          "transactionHash": "0xe786990913c278353ee092a07fe28e229b1572d8c08749c1bdc3e98d15c5a2d2",
          "transactionIndex": "0x22",
          "logIndex": "0x3c",
          "removed": false
        },
        {
          "address": "0x5eb9cc76c3506942c1c0ead70e877dd5e4f00cb0",
          "topics": [
            "0xddf252ad1be2c89b69c2b068fc378daa952ba7f163c4a11628f55a4df523b3ef",
            "0x0000000000000000000000000000000000000000000000000000000000000000",
            "0x000000000000000000000000c77f7fed3b5cc8249adc428c5f44c9063b9734b4"
          ],
          "data": "0x00000000000000000000000000000000000000000000000029acc2e17df9c2dd",
          "blockHash": "0x4b90eedf452ceed2ddb81b5f689bf8d4ab21927ecae9d0d46c32a9fcbde12821",
          "blockNumber": "0x723b45",
          "transactionHash": "0xe786990913c278353ee092a07fe28e229b1572d8c08749c1bdc3e98d15c5a2d2",
          "transactionIndex": "0x22",
          "logIndex": "0x3d",
          "removed": false
        },
        {
          "address": "0x5eb9cc76c3506942c1c0ead70e877dd5e4f00cb0",
          "topics": [
            "0x4afcb4a87cdbd9974efdb92ee48bc8d7cd0ae4bf217004db3d080cbaee652ca7"
          ],
          "data": "0x000000000000000000000000000000000000000000000000000000006785b89000000000000000000000000000000000000000000000000000038d7fbb33f6400000000000000000000000000000000000000000000000000de0b6b3a7640000",
          "blockHash": "0x4b90eedf452ceed2ddb81b5f689bf8d4ab21927ecae9d0d46c32a9fcbde12821",
          "blockNumber": "0x723b45",
          "transactionHash": "0xe786990913c278353ee092a07fe28e229b1572d8c08749c1bdc3e98d15c5a2d2",
          "transactionIndex": "0x22",
          "logIndex": "0x3e",
          "removed": false
        }
      ],
      "logsBloom": "0x00000000000000000000000000000000000000000000000000000000000000000000000000000000000000000000000000000000000000004000000000000000000000000000000000000008000000000000000000000000000000000000000000000000020000000000000004000800020000000000000000000010000000000000000000000000000000000000000000000000000000000000010000000000000000000000000000000000000000004000000000000000000000000000020000000002000000800000008000000000000000000000080000000000000020000000000000000000000000000000000000000000000000000000000000000000",
      "type": "0x2",
      "transactionHash": "0xe786990913c278353ee092a07fe28e229b1572d8c08749c1bdc3e98d15c5a2d2",
      "transactionIndex": "0x22",
      "blockHash": "0x4b90eedf452ceed2ddb81b5f689bf8d4ab21927ecae9d0d46c32a9fcbde12821",
      "blockNumber": "0x723b45",
      "gasUsed": "0xf82c",
      "effectiveGasPrice": "0x5f2999028",
      "from": "0xc77f7fed3b5cc8249adc428c5f44c9063b9734b4",
      "to": "0x5eb9cc76c3506942c1c0ead70e877dd5e4f00cb0",
      "contractAddress": null
    }
  ],
  "libraries": [],
  "pending": [],
  "returns": {},
  "timestamp": 1736816786,
  "chain": 11155111,
  "commit": "51a374b"
}