{
  "transactions": [
    {
      "hash": "0xdc069285a1b0922e8fd4d699eed790af9726ae833277282ad1d7fd4e7dd45357",
      "transactionType": "CALL",
      "contractName": null,
      "contractAddress": "0x5eb9cc76c3506942c1c0ead70e877dd5e4f00cb0",
      "function": "buy(address)",
      "arguments": [
        "0xC77f7fed3b5Cc8249aDc428c5F44C9063B9734b4"
      ],
      "transaction": {
        "from": "0xc77f7fed3b5cc8249adc428c5f44c9063b9734b4",
        "to": "0x5eb9cc76c3506942c1c0ead70e877dd5e4f00cb0",
        "gas": "0x156c8",
        "value": "0xde0b6b3a7640000",
        "input": "0xf088d547000000000000000000000000c77f7fed3b5cc8249adc428c5f44c9063b9734b4",
        "nonce": "0x153",
        "chainId": "0xaa36a7"
      },
      "additionalContracts": [],
      "isFixedGasLimit": false
    }
  ],
  "receipts": [
    {
      "status": "0x1",
      "cumulativeGasUsed": "0x851b2a",
      "logs": [
        {
          "address": "0x5eb9cc76c3506942c1c0ead70e877dd5e4f00cb0",
          "topics": [
            "0xddf252ad1be2c89b69c2b068fc378daa952ba7f163c4a11628f55a4df523b3ef",
            "0x0000000000000000000000000000000000000000000000000000000000000000",
            "0x000000000000000000000000c77f7fed3b5cc8249adc428c5f44c9063b9734b4"
          ],
          "data": "0x000000000000000000000000000000000000000000000035aaf0e2026056aef4",
          "blockHash": "0xf622a76ec3ee819b8326a22aa1ed39ad147f808a1ec5b28ca2a981d9a265821a",
          "blockNumber": "0x723b4b",
          "transactionHash": "0xdc069285a1b0922e8fd4d699eed790af9726ae833277282ad1d7fd4e7dd45357",
          "transactionIndex": "0x4e",
          "logIndex": "0x81",
          "removed": false
        },
        {
          "address": "0x5eb9cc76c3506942c1c0ead70e877dd5e4f00cb0",
          "topics": [
            "0xddf252ad1be2c89b69c2b068fc378daa952ba7f163c4a11628f55a4df523b3ef",
            "0x0000000000000000000000000000000000000000000000000000000000000000",
            "0x000000000000000000000000c77f7fed3b5cc8249adc428c5f44c9063b9734b4"
          ],
          "data": "0x00000000000000000000000000000000000000000000000029acc19b91fe4a61",
          "blockHash": "0xf622a76ec3ee819b8326a22aa1ed39ad147f808a1ec5b28ca2a981d9a265821a",
          "blockNumber": "0x723b4b",
          "transactionHash": "0xdc069285a1b0922e8fd4d699eed790af9726ae833277282ad1d7fd4e7dd45357",
          "transactionIndex": "0x4e",
          "logIndex": "0x82",
          "removed": false
        },
        {
          "address": "0x5eb9cc76c3506942c1c0ead70e877dd5e4f00cb0",
          "topics": [
            "0x4afcb4a87cdbd9974efdb92ee48bc8d7cd0ae4bf217004db3d080cbaee652ca7"
          ],
          "data": "0x000000000000000000000000000000000000000000000000000000006785b8d800000000000000000000000000000000000000000000000000038d7fd6fca9bb0000000000000000000000000000000000000000000000000de0b6b3a7640000",
          "blockHash": "0xf622a76ec3ee819b8326a22aa1ed39ad147f808a1ec5b28ca2a981d9a265821a",
          "blockNumber": "0x723b4b",
          "transactionHash": "0xdc069285a1b0922e8fd4d699eed790af9726ae833277282ad1d7fd4e7dd45357",
          "transactionIndex": "0x4e",
          "logIndex": "0x83",
          "removed": false
        }
      ],
      "logsBloom": "0x00000000000000000000000000000000000000000000000000000000000000000000000000000000000000000000000000000000000000004000000000000000000000000000000000000008000000000000000000000000000000000000000000000000020000000000000004000800020000000000000000000010000000000000000000000000000000000000000000000000000000000000010000000000000000000000000000000000000000004000000000000000000000000000020000000002000000800000008000000000000000000000080000000000000020000000000000000000000000000000000000000000000000000000000000000000",
      "type": "0x2",
      "transactionHash": "0xdc069285a1b0922e8fd4d699eed790af9726ae833277282ad1d7fd4e7dd45357",
      "transactionIndex": "0x4e",
      "blockHash": "0xf622a76ec3ee819b8326a22aa1ed39ad147f808a1ec5b28ca2a981d9a265821a",
      "blockNumber": "0x723b4b",
      "gasUsed": "0xf82c",
      "effectiveGasPrice": "0x5d9abcc8d",
      "from": "0xc77f7fed3b5cc8249adc428c5f44c9063b9734b4",
      "to": "0x5eb9cc76c3506942c1c0ead70e877dd5e4f00cb0",
      "contractAddress": null
    }
  ],
  "libraries": [],
  "pending": [],
  "returns": {},
  "timestamp": 1736816857,
  "chain": 11155111,
  "commit": "51a374b"
}