{
  "transactions": [
    {
      "hash": "0xaad0c122d84e89fe06c4575747e5b57e23e3fc7c1405fdc890dd2c6f1993b6ee",
      "transactionType": "CALL",
      "contractName": null,
      "contractAddress": "0xbf4a322f1496e5c3d34a9bcdb4c60567b38c7de2",
      "function": "buy(address)",
      "arguments": [
        "0xC77f7fed3b5Cc8249aDc428c5F44C9063B9734b4"
      ],
      "transaction": {
        "from": "0xc77f7fed3b5cc8249adc428c5f44c9063b9734b4",
        "to": "0xbf4a322f1496e5c3d34a9bcdb4c60567b38c7de2",
        "gas": "0x1b309",
        "value": "0xde0b6b3a7640000",
        "input": "0xf088d547000000000000000000000000c77f7fed3b5cc8249adc428c5f44c9063b9734b4",
        "nonce": "0xc0a",
        "chainId": "0xaa36a7"
      },
      "additionalContracts": [],
      "isFixedGasLimit": false
    }
  ],
  "receipts": [
    {
      "status": "0x1",
      "cumulativeGasUsed": "0x16a2877",
      "logs": [
        {
          "address": "0xbf4a322f1496e5c3d34a9bcdb4c60567b38c7de2",
          "topics": [
            "0xddf252ad1be2c89b69c2b068fc378daa952ba7f163c4a11628f55a4df523b3ef",
            "0x0000000000000000000000000000000000000000000000000000000000000000",
            "0x000000000000000000000000c77f7fed3b5cc8249adc428c5f44c9063b9734b4"
          ],
          "data": "0x000000000000000000000000000000000000000000000034f9821858f211fd0d",
          "blockHash": "0xda4a7bb0f07b5c2f7df650588022eb311348bfcdf505e9577915c9579eaf8b1f",
          "blockNumber": "0x725c35",
          "transactionHash": "0xaad0c122d84e89fe06c4575747e5b57e23e3fc7c1405fdc890dd2c6f1993b6ee",
          "transactionIndex": "0x82",
          "logIndex": "0xcd",
          "removed": false
        },
        {
          "address": "0xbf4a322f1496e5c3d34a9bcdb4c60567b38c7de2",
          "topics": [
            "0xddf252ad1be2c89b69c2b068fc378daa952ba7f163c4a11628f55a4df523b3ef",
            "0x0000000000000000000000000000000000000000000000000000000000000000",
            "0x000000000000000000000000c77f7fed3b5cc8249adc428c5f44c9063b9734b4"
          ],
          "data": "0x0000000000000000000000000000000000000000000000002922f9437e8e5cb9",
          "blockHash": "0xda4a7bb0f07b5c2f7df650588022eb311348bfcdf505e9577915c9579eaf8b1f",
          "blockNumber": "0x725c35",
          "transactionHash": "0xaad0c122d84e89fe06c4575747e5b57e23e3fc7c1405fdc890dd2c6f1993b6ee",
          "transactionIndex": "0x82",
          "logIndex": "0xce",
          "removed": false
        },
        {
          "address": "0xbf4a322f1496e5c3d34a9bcdb4c60567b38c7de2",
          "topics": [
            "0x4afcb4a87cdbd9974efdb92ee48bc8d7cd0ae4bf217004db3d080cbaee652ca7"
          ],
          "data": "0x00000000000000000000000000000000000000000000000000000000678744d80000000000000000000000000000000000000000000000000003996868c37d9f0000000000000000000000000000000000000000000000000de0b6b3a7640000",
          "blockHash": "0xda4a7bb0f07b5c2f7df650588022eb311348bfcdf505e9577915c9579eaf8b1f",
          "blockNumber": "0x725c35",
          "transactionHash": "0xaad0c122d84e89fe06c4575747e5b57e23e3fc7c1405fdc890dd2c6f1993b6ee",
          "transactionIndex": "0x82",
          "logIndex": "0xcf",
          "removed": false
        }
      ],
      "logsBloom": "0x00000000000000000000000000000000000000000000000000000000000000000000000000000000000000000000000000000000000000004000000000000000000000000000000000000008000000000000001000000000000000000000000000000000020000000000000000000800020000000000000000000010000000000000000000000000000000000000000000000000000008000000010000000000000000000000000000000000000000004000000000000000000000000000000000000002000000800000000000001000000000000000080000000000000020000000000000000000000000000000000000000000000000000000000000000000",
      "type": "0x2",
      "transactionHash": "0xaad0c122d84e89fe06c4575747e5b57e23e3fc7c1405fdc890dd2c6f1993b6ee",
      "transactionIndex": "0x82",
      "blockHash": "0xda4a7bb0f07b5c2f7df650588022eb311348bfcdf505e9577915c9579eaf8b1f",
      "blockNumber": "0x725c35",
      "gasUsed": "0x13af6",
      "effectiveGasPrice": "0x10754099f",
      "from": "0xc77f7fed3b5cc8249adc428c5f44c9063b9734b4",
      "to": "0xbf4a322f1496e5c3d34a9bcdb4c60567b38c7de2",
      "contractAddress": null
    }
  ],
  "libraries": [],
  "pending": [],
  "returns": {},
  "timestamp": 1736918233,
  "chain": 11155111,
  "commit": "51a374b"
}