{
  "transactions": [
    {
      "hash": "0x9982b3db60b20e7f0e5336881010a6b3ace547aaec4ff2da922e9857102c0d53",
      "transactionType": "CALL",
      "contractName": null,
      "contractAddress": "0x8aafd3ede9adb0ff97c7aebce82a919afb1c8764",
      "function": "sell(uint256)",
      "arguments": [
        "502379"
      ],
      "transaction": {
        "from": "0xc77f7fed3b5cc8249adc428c5f44c9063b9734b4",
        "to": "0x8aafd3ede9adb0ff97c7aebce82a919afb1c8764",
        "gas": "0x16208",
        "value": "0x0",
        "input": "0xe4849b32000000000000000000000000000000000000000000000000000000000007aa6b",
        "nonce": "0x1440",
        "chainId": "0xaa36a7"
      },
      "additionalContracts": [],
      "isFixedGasLimit": false
    }
  ],
  "receipts": [
    {
      "status": "0x1",
      "cumulativeGasUsed": "0x109c676",
      "logs": [
        {
          "address": "0x8aafd3ede9adb0ff97c7aebce82a919afb1c8764",
          "topics": [
            "0xddf252ad1be2c89b69c2b068fc378daa952ba7f163c4a11628f55a4df523b3ef",
            "0x000000000000000000000000c77f7fed3b5cc8249adc428c5f44c9063b9734b4",
            "0x0000000000000000000000000000000000000000000000000000000000000000"
          ],
          "data": "0x0000000000000000000000000000000000000000000000000000000000079ab8",
          "blockHash": "0xe34f45f9f684d830e342203ce62004b5ef861d2c353d86db0fb9baf22cfde57a",
          "blockNumber": "0x731b82",
          "transactionHash": "0x9982b3db60b20e7f0e5336881010a6b3ace547aaec4ff2da922e9857102c0d53",
          "transactionIndex": "0xa1",
          "logIndex": "0xd5",
          "removed": false
        },
        {
          "address": "0x8aafd3ede9adb0ff97c7aebce82a919afb1c8764",
          "topics": [
            "0xddf252ad1be2c89b69c2b068fc378daa952ba7f163c4a11628f55a4df523b3ef",
            "0x000000000000000000000000c77f7fed3b5cc8249adc428c5f44c9063b9734b4",
            "0x000000000000000000000000c77f7fed3b5cc8249adc428c5f44c9063b9734b4"
          ],
          "data": "0x0000000000000000000000000000000000000000000000000000000000000fb3",
          "blockHash": "0xe34f45f9f684d830e342203ce62004b5ef861d2c353d86db0fb9baf22cfde57a",
          "blockNumber": "0x731b82",
          "transactionHash": "0x9982b3db60b20e7f0e5336881010a6b3ace547aaec4ff2da922e9857102c0d53",
          "transactionIndex": "0xa1",
          "logIndex": "0xd6",
          "removed": false
        },
        {
          "address": "0x8aafd3ede9adb0ff97c7aebce82a919afb1c8764",
          "topics": [
            "0x4afcb4a87cdbd9974efdb92ee48bc8d7cd0ae4bf217004db3d080cbaee652ca7"
          ],
          "data": "0x00000000000000000000000000000000000000000000000000000000679046f4000000000000000000000000000000000000000000000000000ed46770d206760000000000000000000000000000000000000000000000000000000000000831",
          "blockHash": "0xe34f45f9f684d830e342203ce62004b5ef861d2c353d86db0fb9baf22cfde57a",
          "blockNumber": "0x731b82",
          "transactionHash": "0x9982b3db60b20e7f0e5336881010a6b3ace547aaec4ff2da922e9857102c0d53",
          "transactionIndex": "0xa1",
          "logIndex": "0xd7",
          "removed": false
        }
      ],
      "logsBloom": "0x00000000000000000000000000000000000000000600000000000000000000000000000000000000000000000000000000000000000000004000000000000000000000000000004000000008000000000000000000000000000000000000000000000000020000000000000000000800020000000000000000000010000000000000000000000000000000000000000000000000000000000000010000000000000000000000000000000000000000004000000000000000000000000000000000000002000000800000000000000000000000000000080000000000000020000000000000000000000000000000000000000000000000000000000000000000",
      "type": "0x2",
      "transactionHash": "0x9982b3db60b20e7f0e5336881010a6b3ace547aaec4ff2da922e9857102c0d53",
      "transactionIndex": "0xa1",
      "blockHash": "0xe34f45f9f684d830e342203ce62004b5ef861d2c353d86db0fb9baf22cfde57a",
      "blockNumber": "0x731b82",
      "gasUsed": "0xf213",
      "effectiveGasPrice": "0x10173459a",
      "from": "0xc77f7fed3b5cc8249adc428c5f44c9063b9734b4",
      "to": "0x8aafd3ede9adb0ff97c7aebce82a919afb1c8764",
      "contractAddress": null
    }
  ],
  "libraries": [],
  "pending": [],
  "returns": {},
  "timestamp": 1737508597,
  "chain": 11155111,
  "commit": "1d2fb70"
}