{
  "transactions": [
    {
      "hash": "0xaf8b6f8c2f1d6b072c56fec648543d48110e7d37a4e15f347f89bc18a131d347",
      "transactionType": "CALL",
      "contractName": null,
      "contractAddress": "0x8aafd3ede9adb0ff97c7aebce82a919afb1c8764",
      "function": "sell(uint256)",
      "arguments": [
        "2809135358321"
      ],
      "transaction": {
        "from": "0xc77f7fed3b5cc8249adc428c5f44c9063b9734b4",
        "to": "0x8aafd3ede9adb0ff97c7aebce82a919afb1c8764",
        "gas": "0x15daa",
        "value": "0x0",
        "input": "0xe4849b320000000000000000000000000000000000000000000000000000028e0d83e171",
        "nonce": "0x11b7",
        "chainId": "0xaa36a7"
      },
      "additionalContracts": [],
      "isFixedGasLimit": false
    }
  ],
  "receipts": [
    {
      "status": "0x1",
      "cumulativeGasUsed": "0xb2b747",
      "logs": [
        {
          "address": "0x8aafd3ede9adb0ff97c7aebce82a919afb1c8764",
          "topics": [
            "0xddf252ad1be2c89b69c2b068fc378daa952ba7f163c4a11628f55a4df523b3ef",
            "0x000000000000000000000000c77f7fed3b5cc8249adc428c5f44c9063b9734b4",
            "0x0000000000000000000000000000000000000000000000000000000000000000"
          ],
          "data": "0x00000000000000000000000000000000000000000000000000000288d203d97f",
          "blockHash": "0xe1fcb37e0ca34745fb4dff9f877ed6f8ef5a01b07025ff98e96605c1779e12be",
          "blockNumber": "0x731885",
          "transactionHash": "0xaf8b6f8c2f1d6b072c56fec648543d48110e7d37a4e15f347f89bc18a131d347",
          "transactionIndex": "0x7a",
          "logIndex": "0xc3",
          "removed": false
        },
        {
          "address": "0x8aafd3ede9adb0ff97c7aebce82a919afb1c8764",
          "topics": [
            "0xddf252ad1be2c89b69c2b068fc378daa952ba7f163c4a11628f55a4df523b3ef",
            "0x000000000000000000000000c77f7fed3b5cc8249adc428c5f44c9063b9734b4",
            "0x000000000000000000000000c77f7fed3b5cc8249adc428c5f44c9063b9734b4"
          ],
          "data": "0x000000000000000000000000000000000000000000000000000000053b8007f2",
          "blockHash": "0xe1fcb37e0ca34745fb4dff9f877ed6f8ef5a01b07025ff98e96605c1779e12be",
          "blockNumber": "0x731885",
          "transactionHash": "0xaf8b6f8c2f1d6b072c56fec648543d48110e7d37a4e15f347f89bc18a131d347",
          "transactionIndex": "0x7a",
          "logIndex": "0xc4",
          "removed": false
        },
        {
          "address": "0x8aafd3ede9adb0ff97c7aebce82a919afb1c8764",
          "topics": [
            "0x4afcb4a87cdbd9974efdb92ee48bc8d7cd0ae4bf217004db3d080cbaee652ca7"
          ],
          "data": "0x000000000000000000000000000000000000000000000000000000006790230c0000000000000000000000000000000000000000000000000005264ede4e643a00000000000000000000000000000000000000000000000000000000f2b32977",
          "blockHash": "0xe1fcb37e0ca34745fb4dff9f877ed6f8ef5a01b07025ff98e96605c1779e12be",
          "blockNumber": "0x731885",
          "transactionHash": "0xaf8b6f8c2f1d6b072c56fec648543d48110e7d37a4e15f347f89bc18a131d347",
          "transactionIndex": "0x7a",
          "logIndex": "0xc5",
          "removed": false
        }
      ],
      "logsBloom": "0x00000000000000000000000000000000000000000600000000000000000000000000000000000000000000000000000000000000000000004000000000000000000000000000004000000008000000000000000000000000000000000000000000000000020000000000000000000800020000000000000000000010000000000000000000000000000000000000000000000000000000000000010000000000000000000000000000000000000000004000000000000000000000000000000000000002000000800000000000000000000000000000080000000000000020000000000000000000000000000000000000000000000000000000000000000000",
      "type": "0x2",
      "transactionHash": "0xaf8b6f8c2f1d6b072c56fec648543d48110e7d37a4e15f347f89bc18a131d347",
      "transactionIndex": "0x7a",
      "blockHash": "0xe1fcb37e0ca34745fb4dff9f877ed6f8ef5a01b07025ff98e96605c1779e12be",
      "blockNumber": "0x731885",
      "gasUsed": "0xfd27",
      "effectiveGasPrice": "0x420cf3ca",
      "from": "0xc77f7fed3b5cc8249adc428c5f44c9063b9734b4",
      "to": "0x8aafd3ede9adb0ff97c7aebce82a919afb1c8764",
      "contractAddress": null
    }
  ],
  "libraries": [],
  "pending": [],
  "returns": {},
  "timestamp": 1737499405,
  "chain": 11155111,
  "commit": "1d2fb70"
}