{
  "transactions": [
    {
      "hash": "0xda8b05f9c323af60f323561ba305512d368fa266a39d1eba8c917a2154c4bc4c",
      "transactionType": "CALL",
      "contractName": null,
      "contractAddress": "0x2aef30832a750ad996bd851b780443b458cc957f",
      "function": "borrow(uint256,uint256)",
      "arguments": [
        "9999999999999990",
        "0"
      ],
      "transaction": {
        "from": "0xc77f7fed3b5cc8249adc428c5f44c9063b9734b4",
        "to": "0x2aef30832a750ad996bd851b780443b458cc957f",
        "gas": "0x57f3c",
        "value": "0x0",
        "input": "0x0ecbcdab000000000000000000000000000000000000000000000000002386f26fc0fff60000000000000000000000000000000000000000000000000000000000000000",
        "nonce": "0x18cc",
        "chainId": "0xaa36a7"
      },
      "additionalContracts": [],
      "isFixedGasLimit": false
    }
  ],
  "receipts": [
    {
      "status": "0x1",
      "cumulativeGasUsed": "0x138dce3",
      "logs": [
        {
          "address": "0x2aef30832a750ad996bd851b780443b458cc957f",
          "topics": [
            "0xddf252ad1be2c89b69c2b068fc378daa952ba7f163c4a11628f55a4df523b3ef",
            "0x000000000000000000000000c77f7fed3b5cc8249adc428c5f44c9063b9734b4",
            "0x0000000000000000000000002aef30832a750ad996bd851b780443b458cc957f"
          ],
          "data": "0x0000000000000000000000000000000000000000000000008ac7230489e7ffff",
          "blockHash": "0x13cd873a39a57c7bf7a8aa2226382f715e002f852f7aca6617aff407e4318708",
          "blockNumber": "0x73844b",
          "transactionHash": "0xda8b05f9c323af60f323561ba305512d368fa266a39d1eba8c917a2154c4bc4c",
          "transactionIndex": "0x88",
          "logIndex": "0xf9",
          "removed": false
        },
        {
          "address": "0x2aef30832a750ad996bd851b780443b458cc957f",
          "topics": [
            "0xddf252ad1be2c89b69c2b068fc378daa952ba7f163c4a11628f55a4df523b3ef",
            "0x0000000000000000000000002aef30832a750ad996bd851b780443b458cc957f",
            "0x000000000000000000000000c77f7fed3b5cc8249adc428c5f44c9063b9734b4"
          ],
          "data": "0x000000000000000000000000000000000000000000000000000aa87bee537ed6",
          "blockHash": "0x13cd873a39a57c7bf7a8aa2226382f715e002f852f7aca6617aff407e4318708",
          "blockNumber": "0x73844b",
          "transactionHash": "0xda8b05f9c323af60f323561ba305512d368fa266a39d1eba8c917a2154c4bc4c",
          "transactionIndex": "0x88",
          "logIndex": "0xfa",
          "removed": false
        },
        {
          "address": "0x2aef30832a750ad996bd851b780443b458cc957f",
          "topics": [
            "0xddf252ad1be2c89b69c2b068fc378daa952ba7f163c4a11628f55a4df523b3ef",
            "0x0000000000000000000000002aef30832a750ad996bd851b780443b458cc957f",
            "0x0000000000000000000000000000000000000000000000000000000000000000"
          ],
          "data": "0x0000000000000000000000000000000000000000000000000018de76816d7d4b",
          "blockHash": "0x13cd873a39a57c7bf7a8aa2226382f715e002f852f7aca6617aff407e4318708",
          "blockNumber": "0x73844b",
          "transactionHash": "0xda8b05f9c323af60f323561ba305512d368fa266a39d1eba8c917a2154c4bc4c",
          "transactionIndex": "0x88",
          "logIndex": "0xfb",
          "removed": false
        },
        {
          "address": "0x2aef30832a750ad996bd851b780443b458cc957f",
          "topics": [
            "0x03bbe564cb1b78e43195eeadbde99e5b89b19345862807fcfb59f884e4165e25"
          ],
          "data": "0x000000000000000000000000c77f7fed3b5cc8249adc428c5f44c9063b9734b4000000000000000000000000000000000000000000000000002322fe594b07f7",
          "blockHash": "0x13cd873a39a57c7bf7a8aa2226382f715e002f852f7aca6617aff407e4318708",
          "blockNumber": "0x73844b",
          "transactionHash": "0xda8b05f9c323af60f323561ba305512d368fa266a39d1eba8c917a2154c4bc4c",
          "transactionIndex": "0x88",
          "logIndex": "0xfc",
          "removed": false
        },
        {
          "address": "0x2aef30832a750ad996bd851b780443b458cc957f",
          "topics": [
            "0xaec00f5213a37254bc68a26b0685d1a5b2bf513e1e587c94c7df7f4a62b56c9c"
          ],
          "data": "0x0000000000000000000000000000000000000000000000008aa39c121a2703de000000000000000000000000000000000000000000000000002322fe594b07f7000000000000000000000000000000000000000000000000002322fe594b07f70000000000000000000000000000000000000000000000008aa39c121a2703de",
          "blockHash": "0x13cd873a39a57c7bf7a8aa2226382f715e002f852f7aca6617aff407e4318708",
          "blockNumber": "0x73844b",
          "transactionHash": "0xda8b05f9c323af60f323561ba305512d368fa266a39d1eba8c917a2154c4bc4c",
          "transactionIndex": "0x88",
          "logIndex": "0xfd",
          "removed": false
        },
        {
          "address": "0x2aef30832a750ad996bd851b780443b458cc957f",
          "topics": [
            "0x4afcb4a87cdbd9974efdb92ee48bc8d7cd0ae4bf217004db3d080cbaee652ca7"
          ],
          "data": "0x0000000000000000000000000000000000000000000000000000000067955cb800000000000000000000000000000000000000000000000000038e21bd40e347000000000000000000000000000000000000000000000000000009184e729fff",
          "blockHash": "0x13cd873a39a57c7bf7a8aa2226382f715e002f852f7aca6617aff407e4318708",
          "blockNumber": "0x73844b",
          "transactionHash": "0xda8b05f9c323af60f323561ba305512d368fa266a39d1eba8c917a2154c4bc4c",
          "transactionIndex": "0x88",
          "logIndex": "0xfe",
          "removed": false
        }
      ],
      "logsBloom": "0x00000000000000000000000000000100400000000000000000000000000000000008000000000001000000000000000000002000000000004000000000000000000000000000000000000008000000000000000000000000000000000000000000001000020000000020000020000800020000000000000000000010000000000000000000000000000000000000000000000000000000000000010000000000000000000000000000000400000020006000000000000000000000001000000000000002000000800000000000000000000000000000080000000000000020000000000000000000000000000000000000000000000000000000000000000000",
      "type": "0x2",
      "transactionHash": "0xda8b05f9c323af60f323561ba305512d368fa266a39d1eba8c917a2154c4bc4c",
      "transactionIndex": "0x88",
      "blockHash": "0x13cd873a39a57c7bf7a8aa2226382f715e002f852f7aca6617aff407e4318708",
      "blockNumber": "0x73844b",
      "gasUsed": "0x3fad0",
      "effectiveGasPrice": "0x42376ca2",
      "from": "0xc77f7fed3b5cc8249adc428c5f44c9063b9734b4",
      "to": "0x2aef30832a750ad996bd851b780443b458cc957f",
      "contractAddress": null
    }
  ],
  "libraries": [],
  "pending": [],
  "returns": {},
  "timestamp": 1737841850,
  "chain": 11155111,
  "commit": "f5162e9"
}