{
  "transactions": [
    {
      "hash": "0xf1b1913febb12b7cc4f524d184f16a3be2efecb30fa7e90e6169e330921d4854",
      "transactionType": "CALL",
      "contractName": null,
      "contractAddress": "0x5eb9cc76c3506942c1c0ead70e877dd5e4f00cb0",
      "function": "sell(uint256)",
      "arguments": [
        "989140795215168430747"
      ],
      "transaction": {
        "from": "0xc77f7fed3b5cc8249adc428c5f44c9063b9734b4",
        "to": "0x5eb9cc76c3506942c1c0ead70e877dd5e4f00cb0",
        "gas": "0x16fec",
        "value": "0x0",
        "input": "0xe4849b320000000000000000000000000000000000000000000000359f16088e3f84629b",
        "nonce": "0x301",
        "chainId": "0xaa36a7"
      },
      "additionalContracts": [],
      "isFixedGasLimit": false
    }
  ],
  "receipts": [
    {
      "status": "0x1",
      "cumulativeGasUsed": "0xbe03bc",
      "logs": [
        {
          "address": "0x5eb9cc76c3506942c1c0ead70e877dd5e4f00cb0",
          "topics": [
            "0xddf252ad1be2c89b69c2b068fc378daa952ba7f163c4a11628f55a4df523b3ef",
            "0x000000000000000000000000c77f7fed3b5cc8249adc428c5f44c9063b9734b4",
            "0x0000000000000000000000000000000000000000000000000000000000000000"
          ],
          "data": "0x0000000000000000000000000000000000000000000000359f16088e3f84629b",
          "blockHash": "0x1483a4f9ca49c02dd3e2baa35a3b2cdfaf091aee699cc8dbfcf1d4e5e093826b",
          "blockNumber": "0x724ee2",
          "transactionHash": "0xf1b1913febb12b7cc4f524d184f16a3be2efecb30fa7e90e6169e330921d4854",
          "transactionIndex": "0x53",
          "logIndex": "0x76",
          "removed": false
        },
        {
          "address": "0x5eb9cc76c3506942c1c0ead70e877dd5e4f00cb0",
          "topics": [
            "0x4afcb4a87cdbd9974efdb92ee48bc8d7cd0ae4bf217004db3d080cbaee652ca7"
          ],
          "data": "0x000000000000000000000000000000000000000000000000000000006786a44c0000000000000000000000000000000000000000000000000003910bd4df9c160000000000000000000000000000000000000000000000000dc7db13323009be",
          "blockHash": "0x1483a4f9ca49c02dd3e2baa35a3b2cdfaf091aee699cc8dbfcf1d4e5e093826b",
          "blockNumber": "0x724ee2",
          "transactionHash": "0xf1b1913febb12b7cc4f524d184f16a3be2efecb30fa7e90e6169e330921d4854",
          "transactionIndex": "0x53",
          "logIndex": "0x77",
          "removed": false
        }
      ],
      "logsBloom": "0x00000000000000000000000000000000000000000000000000000000000000000000000000000000000000000000000000000000000000004000000000000000000000000000000000000008000000000000000000000000000000000000000000000000020000000000000004000800020000000000000000000010000000000000000000000000000000000000000000000000000000000000010000000000000000000000000000000000000000004000000000000000000000000000020000000002000000800000008000000000000000000000080000000000000020000000000000000000000000000000000000000000000000000000000000000000",
      "type": "0x2",
      "transactionHash": "0xf1b1913febb12b7cc4f524d184f16a3be2efecb30fa7e90e6169e330921d4854",
      "transactionIndex": "0x53",
      "blockHash": "0x1483a4f9ca49c02dd3e2baa35a3b2cdfaf091aee699cc8dbfcf1d4e5e093826b",
      "blockNumber": "0x724ee2",
      "gasUsed": "0xfb93",
      "effectiveGasPrice": "0x6db38989f",
      "from": "0xc77f7fed3b5cc8249adc428c5f44c9063b9734b4",
      "to": "0x5eb9cc76c3506942c1c0ead70e877dd5e4f00cb0",
      "contractAddress": null
    }
  ],
  "libraries": [],
  "pending": [],
  "returns": {},
  "timestamp": 1736877133,
  "chain": 11155111,
  "commit": "51a374b"
}