{
  "transactions": [
    {
      "hash": "0x98da99c4874b70c38c28e1388f604cea2a17227da1d5e15ca9b229ac40f618d4",
      "transactionType": "CALL",
      "contractName": null,
      "contractAddress": "0x8aafd3ede9adb0ff97c7aebce82a919afb1c8764",
      "function": "sell(uint256)",
      "arguments": [
        "2757411032163"
      ],
      "transaction": {
        "from": "0xc77f7fed3b5cc8249adc428c5f44c9063b9734b4",
        "to": "0x8aafd3ede9adb0ff97c7aebce82a919afb1c8764",
        "gas": "0x15daa",
        "value": "0x0",
        "input": "0xe4849b320000000000000000000000000000000000000000000000000000028202814c63",
        "nonce": "0x1261",
        "chainId": "0xaa36a7"
      },
      "additionalContracts": [],
      "isFixedGasLimit": false
    }
  ],
  "receipts": [
    {
      "status": "0x1",
      "cumulativeGasUsed": "0xdcf7c5",
      "logs": [
        {
          "address": "0x8aafd3ede9adb0ff97c7aebce82a919afb1c8764",
          "topics": [
            "0xddf252ad1be2c89b69c2b068fc378daa952ba7f163c4a11628f55a4df523b3ef",
            "0x000000000000000000000000c77f7fed3b5cc8249adc428c5f44c9063b9734b4",
            "0x0000000000000000000000000000000000000000000000000000000000000000"
          ],
          "data": "0x0000000000000000000000000000000000000000000000000000027cdfab45a2",
          "blockHash": "0x6bede1aed7f1e4bf9d11188fbef7dc6078432a3e79221d91f62d83b354ab3f14",
          "blockNumber": "0x731946",
          "transactionHash": "0x98da99c4874b70c38c28e1388f604cea2a17227da1d5e15ca9b229ac40f618d4",
          "transactionIndex": "0x6e",
          "logIndex": "0xa9",
          "removed": false
        },
        {
          "address": "0x8aafd3ede9adb0ff97c7aebce82a919afb1c8764",
          "topics": [
            "0xddf252ad1be2c89b69c2b068fc378daa952ba7f163c4a11628f55a4df523b3ef",
            "0x000000000000000000000000c77f7fed3b5cc8249adc428c5f44c9063b9734b4",
            "0x000000000000000000000000c77f7fed3b5cc8249adc428c5f44c9063b9734b4"
          ],
          "data": "0x0000000000000000000000000000000000000000000000000000000522d606c1",
          "blockHash": "0x6bede1aed7f1e4bf9d11188fbef7dc6078432a3e79221d91f62d83b354ab3f14",
          "blockNumber": "0x731946",
          "transactionHash": "0x98da99c4874b70c38c28e1388f604cea2a17227da1d5e15ca9b229ac40f618d4",
          "transactionIndex": "0x6e",
          "logIndex": "0xaa",
          "removed": false
        },
        {
          "address": "0x8aafd3ede9adb0ff97c7aebce82a919afb1c8764",
          "topics": [
            "0x4afcb4a87cdbd9974efdb92ee48bc8d7cd0ae4bf217004db3d080cbaee652ca7"
          ],
          "data": "0x0000000000000000000000000000000000000000000000000000000067902c1800000000000000000000000000000000000000000000000000053f02a7aa8b2900000000000000000000000000000000000000000000000000000000f2b1eaaa",
          "blockHash": "0x6bede1aed7f1e4bf9d11188fbef7dc6078432a3e79221d91f62d83b354ab3f14",
          "blockNumber": "0x731946",
          "transactionHash": "0x98da99c4874b70c38c28e1388f604cea2a17227da1d5e15ca9b229ac40f618d4",
          "transactionIndex": "0x6e",
          "logIndex": "0xab",
          "removed": false
        }
      ],
      "logsBloom": "0x00000000000000000000000000000000000000000600000000000000000000000000000000000000000000000000000000000000000000004000000000000000000000000000004000000008000000000000000000000000000000000000000000000000020000000000000000000800020000000000000000000010000000000000000000000000000000000000000000000000000000000000010000000000000000000000000000000000000000004000000000000000000000000000000000000002000000800000000000000000000000000000080000000000000020000000000000000000000000000000000000000000000000000000000000000000",
      "type": "0x2",
      "transactionHash": "0x98da99c4874b70c38c28e1388f604cea2a17227da1d5e15ca9b229ac40f618d4",
      "transactionIndex": "0x6e",
      "blockHash": "0x6bede1aed7f1e4bf9d11188fbef7dc6078432a3e79221d91f62d83b354ab3f14",
      "blockNumber": "0x731946",
      "gasUsed": "0xfd27",
      "effectiveGasPrice": "0x3d2f1f4f",
      "from": "0xc77f7fed3b5cc8249adc428c5f44c9063b9734b4",
      "to": "0x8aafd3ede9adb0ff97c7aebce82a919afb1c8764",
      "contractAddress": null
    }
  ],
  "libraries": [],
  "pending": [],
  "returns": {},
  "timestamp": 1737501721,
  "chain": 11155111,
  "commit": "1d2fb70"
}