{
  "transactions": [
    {
      "hash": "0xae17affa4444f6262c121ab0a5ff2e11aeab093178db1fbf7fcaaef1c8125e3a",
      "transactionType": "CALL",
      "contractName": null,
      "contractAddress": "0x5eb9cc76c3506942c1c0ead70e877dd5e4f00cb0",
      "function": "sell(uint256)",
      "arguments": [
        "989121352886257742460"
      ],
      "transaction": {
        "from": "0xc77f7fed3b5cc8249adc428c5f44c9063b9734b4",
        "to": "0x5eb9cc76c3506942c1c0ead70e877dd5e4f00cb0",
        "gas": "0x16fec",
        "value": "0x0",
        "input": "0xe4849b320000000000000000000000000000000000000000000000359ed0f5dc4b30727c",
        "nonce": "0x37b",
        "chainId": "0xaa36a7"
      },
      "additionalContracts": [],
      "isFixedGasLimit": false
    }
  ],
  "receipts": [
    {
      "status": "0x1",
      "cumulativeGasUsed": "0x9f6254",
      "logs": [
        {
          "address": "0x5eb9cc76c3506942c1c0ead70e877dd5e4f00cb0",
          "topics": [
            "0xddf252ad1be2c89b69c2b068fc378daa952ba7f163c4a11628f55a4df523b3ef",
            "0x000000000000000000000000c77f7fed3b5cc8249adc428c5f44c9063b9734b4",
            "0x0000000000000000000000000000000000000000000000000000000000000000"
          ],
          "data": "0x0000000000000000000000000000000000000000000000359ed0f5dc4b30727c",
          "blockHash": "0xd842595a10cf33f1b02af826f92d33e12fbd1d49b1737eb2ab4f9a2707113416",
          "blockNumber": "0x724f74",
          "transactionHash": "0xae17affa4444f6262c121ab0a5ff2e11aeab093178db1fbf7fcaaef1c8125e3a",
          "transactionIndex": "0x54",
          "logIndex": "0x6a",
          "removed": false
        },
        {
          "address": "0x5eb9cc76c3506942c1c0ead70e877dd5e4f00cb0",
          "topics": [
            "0x4afcb4a87cdbd9974efdb92ee48bc8d7cd0ae4bf217004db3d080cbaee652ca7"
          ],
          "data": "0x000000000000000000000000000000000000000000000000000000006786ab24000000000000000000000000000000000000000000000000000391106d0bef930000000000000000000000000000000000000000000000000dc7db13320d7166",
          "blockHash": "0xd842595a10cf33f1b02af826f92d33e12fbd1d49b1737eb2ab4f9a2707113416",
          "blockNumber": "0x724f74",
          "transactionHash": "0xae17affa4444f6262c121ab0a5ff2e11aeab093178db1fbf7fcaaef1c8125e3a",
          "transactionIndex": "0x54",
          "logIndex": "0x6b",
          "removed": false
        }
      ],
      "logsBloom": "0x00000000000000000000000000000000000000000000000000000000000000000000000000000000000000000000000000000000000000004000000000000000000000000000000000000008000000000000000000000000000000000000000000000000020000000000000004000800020000000000000000000010000000000000000000000000000000000000000000000000000000000000010000000000000000000000000000000000000000004000000000000000000000000000020000000002000000800000008000000000000000000000080000000000000020000000000000000000000000000000000000000000000000000000000000000000",
      "type": "0x2",
      "transactionHash": "0xae17affa4444f6262c121ab0a5ff2e11aeab093178db1fbf7fcaaef1c8125e3a",
      "transactionIndex": "0x54",
      "blockHash": "0xd842595a10cf33f1b02af826f92d33e12fbd1d49b1737eb2ab4f9a2707113416",
      "blockNumber": "0x724f74",
      "gasUsed": "0xfb93",
      "effectiveGasPrice": "0x5cb16e54d",
      "from": "0xc77f7fed3b5cc8249adc428c5f44c9063b9734b4",
      "to": "0x5eb9cc76c3506942c1c0ead70e877dd5e4f00cb0",
      "contractAddress": null
    }
  ],
  "libraries": [],
  "pending": [],
  "returns": {},
  "timestamp": 1736878885,
  "chain": 11155111,
  "commit": "51a374b"
}