{
  "transactions": [
    {
      "hash": "0x3beb90917923b1cfafe592971cdc8038ca3851cb0d50eb1713581e7c2f0ef574",
      "transactionType": "CALL",
      "contractName": null,
      "contractAddress": "0x8aafd3ede9adb0ff97c7aebce82a919afb1c8764",
      "function": "sell(uint256)",
      "arguments": [
        "60676309"
      ],
      "transaction": {
        "from": "0xc77f7fed3b5cc8249adc428c5f44c9063b9734b4",
        "to": "0x8aafd3ede9adb0ff97c7aebce82a919afb1c8764",
        "gas": "0x15d88",
        "value": "0x0",
        "input": "0xe4849b3200000000000000000000000000000000000000000000000000000000039dd8d5",
        "nonce": "0x146c",
        "chainId": "0xaa36a7"
      },
      "additionalContracts": [],
      "isFixedGasLimit": false
    }
  ],
  "receipts": [
    {
      "status": "0x1",
      "cumulativeGasUsed": "0x1f33f53",
      "logs": [
        {
          "address": "0x8aafd3ede9adb0ff97c7aebce82a919afb1c8764",
          "topics": [
            "0xddf252ad1be2c89b69c2b068fc378daa952ba7f163c4a11628f55a4df523b3ef",
            "0x000000000000000000000000c77f7fed3b5cc8249adc428c5f44c9063b9734b4",
            "0x0000000000000000000000000000000000000000000000000000000000000000"
          ],
          "data": "0x00000000000000000000000000000000000000000000000000000000039670b3",
          "blockHash": "0x02a6a4a69a78f7c04d5a351dae857a974b097c337e28b5bd385ace305bc622a7",
          "blockNumber": "0x731bb9",
          "transactionHash": "0x3beb90917923b1cfafe592971cdc8038ca3851cb0d50eb1713581e7c2f0ef574",
          "transactionIndex": "0xc3",
          "logIndex": "0x11a",
          "removed": false
        },
        {
          "address": "0x8aafd3ede9adb0ff97c7aebce82a919afb1c8764",
          "topics": [
            "0xddf252ad1be2c89b69c2b068fc378daa952ba7f163c4a11628f55a4df523b3ef",
            "0x000000000000000000000000c77f7fed3b5cc8249adc428c5f44c9063b9734b4",
            "0x000000000000000000000000c77f7fed3b5cc8249adc428c5f44c9063b9734b4"
          ],
          "data": "0x0000000000000000000000000000000000000000000000000000000000076822",
          "blockHash": "0x02a6a4a69a78f7c04d5a351dae857a974b097c337e28b5bd385ace305bc622a7",
          "blockNumber": "0x731bb9",
          "transactionHash": "0x3beb90917923b1cfafe592971cdc8038ca3851cb0d50eb1713581e7c2f0ef574",
          "transactionIndex": "0xc3",
          "logIndex": "0x11b",
          "removed": false
        },
        {
          "address": "0x8aafd3ede9adb0ff97c7aebce82a919afb1c8764",
          "topics": [
            "0x4afcb4a87cdbd9974efdb92ee48bc8d7cd0ae4bf217004db3d080cbaee652ca7"
          ],
          "data": "0x0000000000000000000000000000000000000000000000000000000067904988000000000000000000000000000000000000000000000000000f583f583fc625000000000000000000000000000000000000000000000000000000000003ffb6",
          "blockHash": "0x02a6a4a69a78f7c04d5a351dae857a974b097c337e28b5bd385ace305bc622a7",
          "blockNumber": "0x731bb9",
          "transactionHash": "0x3beb90917923b1cfafe592971cdc8038ca3851cb0d50eb1713581e7c2f0ef574",
          "transactionIndex": "0xc3",
          "logIndex": "0x11c",
          "removed": false
        }
      ],
      "logsBloom": "0x00000000000000000000000000000000000000000600000000000000000000000000000000000000000000000000000000000000000000004000000000000000000000000000004000000008000000000000000000000000000000000000000000000000020000000000000000000800020000000000000000000010000000000000000000000000000000000000000000000000000000000000010000000000000000000000000000000000000000004000000000000000000000000000000000000002000000800000000000000000000000000000080000000000000020000000000000000000000000000000000000000000000000000000000000000000",
      "type": "0x2",
      "transactionHash": "0x3beb90917923b1cfafe592971cdc8038ca3851cb0d50eb1713581e7c2f0ef574",
      "transactionIndex": "0xc3",
      "blockHash": "0x02a6a4a69a78f7c04d5a351dae857a974b097c337e28b5bd385ace305bc622a7",
      "blockNumber": "0x731bb9",
      "gasUsed": "0xfd0f",
      "effectiveGasPrice": "0xe7e84bf5",
      "from": "0xc77f7fed3b5cc8249adc428c5f44c9063b9734b4",
      "to": "0x8aafd3ede9adb0ff97c7aebce82a919afb1c8764",
      "contractAddress": null
    }
  ],
  "libraries": [],
  "pending": [],
  "returns": {},
  "timestamp": 1737509257,
  "chain": 11155111,
  "commit": "1d2fb70"
}