{
  "transactions": [
    {
      "hash": "0x42cffe66307b32e5c80e80f11e611a59845f4f704dacb14e608a58ac782add69",
      "transactionType": "CALL",
      "contractName": null,
      "contractAddress": "0x8aafd3ede9adb0ff97c7aebce82a919afb1c8764",
      "function": "sell(uint256)",
      "arguments": [
        "1326579670675017584"
      ],
      "transaction": {
        "from": "0xc77f7fed3b5cc8249adc428c5f44c9063b9734b4",
        "to": "0x8aafd3ede9adb0ff97c7aebce82a919afb1c8764",
        "gas": "0x15dca",
        "value": "0x0",
        "input": "0xe4849b320000000000000000000000000000000000000000000000001268f52e94d6cf70",
        "nonce": "0x1671",
        "chainId": "0xaa36a7"
      },
      "additionalContracts": [],
      "isFixedGasLimit": false
    }
  ],
  "receipts": [
    {
      "status": "0x1",
      "cumulativeGasUsed": "0xec51f8",
      "logs": [
        {
          "address": "0x8aafd3ede9adb0ff97c7aebce82a919afb1c8764",
          "topics": [
            "0xddf252ad1be2c89b69c2b068fc378daa952ba7f163c4a11628f55a4df523b3ef",
            "0x000000000000000000000000c77f7fed3b5cc8249adc428c5f44c9063b9734b4",
            "0x0000000000000000000000000000000000000000000000000000000000000000"
          ],
          "data": "0x0000000000000000000000000000000000000000000000001243410b648b5d24",
          "blockHash": "0x50a98c8ce7877a4236451e5762326008fa6dac97f05793b4a37a4f3b9bacec7e",
          "blockNumber": "0x731e21",
          "transactionHash": "0x42cffe66307b32e5c80e80f11e611a59845f4f704dacb14e608a58ac782add69",
          "transactionIndex": "0x6f",
          "logIndex": "0xb1",
          "removed": false
        },
        {
          "address": "0x8aafd3ede9adb0ff97c7aebce82a919afb1c8764",
          "topics": [
            "0xddf252ad1be2c89b69c2b068fc378daa952ba7f163c4a11628f55a4df523b3ef",
            "0x000000000000000000000000c77f7fed3b5cc8249adc428c5f44c9063b9734b4",
            "0x000000000000000000000000c77f7fed3b5cc8249adc428c5f44c9063b9734b4"
          ],
          "data": "0x0000000000000000000000000000000000000000000000000025b423304b724c",
          "blockHash": "0x50a98c8ce7877a4236451e5762326008fa6dac97f05793b4a37a4f3b9bacec7e",
          "blockNumber": "0x731e21",
          "transactionHash": "0x42cffe66307b32e5c80e80f11e611a59845f4f704dacb14e608a58ac782add69",
          "transactionIndex": "0x6f",
          "logIndex": "0xb2",
          "removed": false
        },
        {
          "address": "0x8aafd3ede9adb0ff97c7aebce82a919afb1c8764",
          "topics": [
            "0x4afcb4a87cdbd9974efdb92ee48bc8d7cd0ae4bf217004db3d080cbaee652ca7"
          ],
          "data": "0x000000000000000000000000000000000000000000000000000000006790667400000000000000000000000000000000000000000000000000156135f4bdd7c6000000000000000000000000000000000000000000000000001c5c701c1636d8",
          "blockHash": "0x50a98c8ce7877a4236451e5762326008fa6dac97f05793b4a37a4f3b9bacec7e",
          "blockNumber": "0x731e21",
          "transactionHash": "0x42cffe66307b32e5c80e80f11e611a59845f4f704dacb14e608a58ac782add69",
          "transactionIndex": "0x6f",
          "logIndex": "0xb3",
          "removed": false
        }
      ],
      "logsBloom": "0x00000000000000000000000000000000000000000600000000000000000000000000000000000000000000000000000000000000000000004000000000000000000000000000004000000008000000000000000000000000000000000000000000000000020000000000000000000800020000000000000000000010000000000000000000000000000000000000000000000000000000000000010000000000000000000000000000000000000000004000000000000000000000000000000000000002000000800000000000000000000000000000080000000000000020000000000000000000000000000000000000000000000000000000000000000000",
      "type": "0x2",
      "transactionHash": "0x42cffe66307b32e5c80e80f11e611a59845f4f704dacb14e608a58ac782add69",
      "transactionIndex": "0x6f",
      "blockHash": "0x50a98c8ce7877a4236451e5762326008fa6dac97f05793b4a37a4f3b9bacec7e",
      "blockNumber": "0x731e21",
      "gasUsed": "0xfd3f",
      "effectiveGasPrice": "0x484dd00a",
      "from": "0xc77f7fed3b5cc8249adc428c5f44c9063b9734b4",
      "to": "0x8aafd3ede9adb0ff97c7aebce82a919afb1c8764",
      "contractAddress": null
    }
  ],
  "libraries": [],
  "pending": [],
  "returns": {},
  "timestamp": 1737516662,
  "chain": 11155111,
  "commit": "1d2fb70"
}