{
  "transactions": [
    {
      "hash": "0x593e22bac26be8a3f571cf859dc9050d35930868b4f7e3536364942c6238596b",
      "transactionType": "CALL",
      "contractName": null,
      "contractAddress": "0x8aafd3ede9adb0ff97c7aebce82a919afb1c8764",
      "function": "sell(uint256)",
      "arguments": [
        "5766437827889504910"
      ],
      "transaction": {
        "from": "0xc77f7fed3b5cc8249adc428c5f44c9063b9734b4",
        "to": "0x8aafd3ede9adb0ff97c7aebce82a919afb1c8764",
        "gas": "0x15dca",
        "value": "0x0",
        "input": "0xe4849b32000000000000000000000000000000000000000000000000500680a70ebaa28e",
        "nonce": "0xffc",
        "chainId": "0xaa36a7"
      },
      "additionalContracts": [],
      "isFixedGasLimit": false
    }
  ],
  "receipts": [
    {
      "status": "0x1",
      "cumulativeGasUsed": "0xdeeb8a",
      "logs": [
        {
          "address": "0x8aafd3ede9adb0ff97c7aebce82a919afb1c8764",
          "topics": [
            "0xddf252ad1be2c89b69c2b068fc378daa952ba7f163c4a11628f55a4df523b3ef",
            "0x000000000000000000000000c77f7fed3b5cc8249adc428c5f44c9063b9734b4",
            "0x0000000000000000000000000000000000000000000000000000000000000000"
          ],
          "data": "0x0000000000000000000000000000000000000000000000004f629c4b9bec5787",
          "blockHash": "0x44dde8cb67e50d0b49e7664840ebac629673c541ac5706f301fd0d6a5dd21979",
          "blockNumber": "0x731671",
          "transactionHash": "0x593e22bac26be8a3f571cf859dc9050d35930868b4f7e3536364942c6238596b",
          "transactionIndex": "0xaf",
          "logIndex": "0xce",
          "removed": false
        },
        {
          "address": "0x8aafd3ede9adb0ff97c7aebce82a919afb1c8764",
          "topics": [
            "0xddf252ad1be2c89b69c2b068fc378daa952ba7f163c4a11628f55a4df523b3ef",
            "0x000000000000000000000000c77f7fed3b5cc8249adc428c5f44c9063b9734b4",
            "0x000000000000000000000000c77f7fed3b5cc8249adc428c5f44c9063b9734b4"
          ],
          "data": "0x00000000000000000000000000000000000000000000000000a3e45b72ce4b07",
          "blockHash": "0x44dde8cb67e50d0b49e7664840ebac629673c541ac5706f301fd0d6a5dd21979",
          "blockNumber": "0x731671",
          "transactionHash": "0x593e22bac26be8a3f571cf859dc9050d35930868b4f7e3536364942c6238596b",
          "transactionIndex": "0xaf",
          "logIndex": "0xcf",
          "removed": false
        },
        {
          "address": "0x8aafd3ede9adb0ff97c7aebce82a919afb1c8764",
          "topics": [
            "0x4afcb4a87cdbd9974efdb92ee48bc8d7cd0ae4bf217004db3d080cbaee652ca7"
          ],
          "data": "0x00000000000000000000000000000000000000000000000000000000679009f80000000000000000000000000000000000000000000000000004e6666bca1414000000000000000000000000000000000000000000000000001c415f4efd9f3b",
          "blockHash": "0x44dde8cb67e50d0b49e7664840ebac629673c541ac5706f301fd0d6a5dd21979",
          "blockNumber": "0x731671",
          "transactionHash": "0x593e22bac26be8a3f571cf859dc9050d35930868b4f7e3536364942c6238596b",
          "transactionIndex": "0xaf",
          "logIndex": "0xd0",
          "removed": false
        }
      ],
      "logsBloom": "0x00000000000000000000000000000000000000000600000000000000000000000000000000000000000000000000000000000000000000004000000000000000000000000000004000000008000000000000000000000000000000000000000000000000020000000000000000000800020000000000000000000010000000000000000000000000000000000000000000000000000000000000010000000000000000000000000000000000000000004000000000000000000000000000000000000002000000800000000000000000000000000000080000000000000020000000000000000000000000000000000000000000000000000000000000000000",
      "type": "0x2",
      "transactionHash": "0x593e22bac26be8a3f571cf859dc9050d35930868b4f7e3536364942c6238596b",
      "transactionIndex": "0xaf",
      "blockHash": "0x44dde8cb67e50d0b49e7664840ebac629673c541ac5706f301fd0d6a5dd21979",
      "blockNumber": "0x731671",
      "gasUsed": "0xfd3f",
      "effectiveGasPrice": "0x3df6e15f",
      "from": "0xc77f7fed3b5cc8249adc428c5f44c9063b9734b4",
      "to": "0x8aafd3ede9adb0ff97c7aebce82a919afb1c8764",
      "contractAddress": null
    }
  ],
  "libraries": [],
  "pending": [],
  "returns": {},
  "timestamp": 1737492984,
  "chain": 11155111,
  "commit": "1d2fb70"
}