{
  "transactions": [
    {
      "hash": "0x7eded8fce97b5f1a771bc9a4e4648b5301dad70e01d78106fc33a1cc0adb71f4",
      "transactionType": "CALL",
      "contractName": null,
      "contractAddress": "0x8aafd3ede9adb0ff97c7aebce82a919afb1c8764",
      "function": "sell(uint256)",
      "arguments": [
        "192257425233942950266"
      ],
      "transaction": {
        "from": "0xc77f7fed3b5cc8249adc428c5f44c9063b9734b4",
        "to": "0x8aafd3ede9adb0ff97c7aebce82a919afb1c8764",
        "gas": "0x17270",
        "value": "0x0",
        "input": "0xe4849b3200000000000000000000000000000000000000000000000a6c1b95a07464317a",
        "nonce": "0x1574",
        "chainId": "0xaa36a7"
      },
      "additionalContracts": [],
      "isFixedGasLimit": false
    }
  ],
  "receipts": [
    {
      "status": "0x1",
      "cumulativeGasUsed": "0xe47bd0",
      "logs": [
        {
          "address": "0x8aafd3ede9adb0ff97c7aebce82a919afb1c8764",
          "topics": [
            "0xddf252ad1be2c89b69c2b068fc378daa952ba7f163c4a11628f55a4df523b3ef",
            "0x000000000000000000000000c77f7fed3b5cc8249adc428c5f44c9063b9734b4",
            "0x0000000000000000000000000000000000000000000000000000000000000000"
          ],
          "data": "0x00000000000000000000000000000000000000000000000a56c34cbff0636448",
          "blockHash": "0xb0fa98bcbd212c7f328528acab6a3b4039b694fa2171aa66887b96879580c9d7",
          "blockNumber": "0x731cde",
          "transactionHash": "0x7eded8fce97b5f1a771bc9a4e4648b5301dad70e01d78106fc33a1cc0adb71f4",
          "transactionIndex": "0xa5",
          "logIndex": "0xd3",
          "removed": false
        },
        {
          "address": "0x8aafd3ede9adb0ff97c7aebce82a919afb1c8764",
          "topics": [
            "0xddf252ad1be2c89b69c2b068fc378daa952ba7f163c4a11628f55a4df523b3ef",
            "0x000000000000000000000000c77f7fed3b5cc8249adc428c5f44c9063b9734b4",
            "0x000000000000000000000000c77f7fed3b5cc8249adc428c5f44c9063b9734b4"
          ],
          "data": "0x000000000000000000000000000000000000000000000000155848e08400cd32",
          "blockHash": "0xb0fa98bcbd212c7f328528acab6a3b4039b694fa2171aa66887b96879580c9d7",
          "blockNumber": "0x731cde",
          "transactionHash": "0x7eded8fce97b5f1a771bc9a4e4648b5301dad70e01d78106fc33a1cc0adb71f4",
          "transactionIndex": "0xa5",
          "logIndex": "0xd4",
          "removed": false
        },
        {
          "address": "0x8aafd3ede9adb0ff97c7aebce82a919afb1c8764",
          "topics": [
            "0x4afcb4a87cdbd9974efdb92ee48bc8d7cd0ae4bf217004db3d080cbaee652ca7"
          ],
          "data": "0x0000000000000000000000000000000000000000000000000000000067905750000000000000000000000000000000000000000000000000001273ff8a2c24ce0000000000000000000000000000000000000000000000000dccd059a75287f2",
          "blockHash": "0xb0fa98bcbd212c7f328528acab6a3b4039b694fa2171aa66887b96879580c9d7",
          "blockNumber": "0x731cde",
          "transactionHash": "0x7eded8fce97b5f1a771bc9a4e4648b5301dad70e01d78106fc33a1cc0adb71f4",
          "transactionIndex": "0xa5",
          "logIndex": "0xd5",
          "removed": false
        }
      ],
      "logsBloom": "0x00000000000000000000000000000000000000000600000000000000000000000000000000000000000000000000000000000000000000004000000000000000000000000000004000000008000000000000000000000000000000000000000000000000020000000000000000000800020000000000000000000010000000000000000000000000000000000000000000000000000000000000010000000000000000000000000000000000000000004000000000000000000000000000000000000002000000800000000000000000000000000000080000000000000020000000000000000000000000000000000000000000000000000000000000000000",
      "type": "0x2",
      "transactionHash": "0x7eded8fce97b5f1a771bc9a4e4648b5301dad70e01d78106fc33a1cc0adb71f4",
      "transactionIndex": "0xa5",
      "blockHash": "0xb0fa98bcbd212c7f328528acab6a3b4039b694fa2171aa66887b96879580c9d7",
      "blockNumber": "0x731cde",
      "gasUsed": "0xfd4b",
      "effectiveGasPrice": "0x744f20fa",
      "from": "0xc77f7fed3b5cc8249adc428c5f44c9063b9734b4",
      "to": "0x8aafd3ede9adb0ff97c7aebce82a919afb1c8764",
      "contractAddress": null
    }
  ],
  "libraries": [],
  "pending": [],
  "returns": {},
  "timestamp": 1737512786,
  "chain": 11155111,
  "commit": "1d2fb70"
}