{
  "transactions": [
    {
      "hash": "0xd92f27172d85c4fd826b767572405104ea9573c0b0a7340637c305a22f3b288b",
      "transactionType": "CALL",
      "contractName": null,
      "contractAddress": "0x270e88f8683660553e8ba4eb2ad7c91a1710d769",
      "function": "sell(uint256)",
      "arguments": [
        "733941695405547462396"
      ],
      "transaction": {
        "from": "0xc77f7fed3b5cc8249adc428c5f44c9063b9734b4",
        "to": "0x270e88f8683660553e8ba4eb2ad7c91a1710d769",
        "gas": "0x16fec",
        "value": "0x0",
        "input": "0xe4849b32000000000000000000000000000000000000000000000027c97cb361af9a1efc",
        "nonce": "0x780",
        "chainId": "0xaa36a7"
      },
      "additionalContracts": [],
      "isFixedGasLimit": false
    }
  ],
  "receipts": [
    {
      "status": "0x1",
      "cumulativeGasUsed": "0x18db689",
      "logs": [
        {
          "address": "0x270e88f8683660553e8ba4eb2ad7c91a1710d769",
          "topics": [
            "0xddf252ad1be2c89b69c2b068fc378daa952ba7f163c4a11628f55a4df523b3ef",
            "0x000000000000000000000000c77f7fed3b5cc8249adc428c5f44c9063b9734b4",
            "0x0000000000000000000000000000000000000000000000000000000000000000"
          ],
          "data": "0x000000000000000000000000000000000000000000000027c97cb361af9a1efc",
          "blockHash": "0xa724db9e36ca06d938dee3461ed6a3e7536020810eca863eb2beb1c8ec46d001",
          "blockNumber": "0x7254b0",
          "transactionHash": "0xd92f27172d85c4fd826b767572405104ea9573c0b0a7340637c305a22f3b288b",
          "transactionIndex": "0x3d",
          "logIndex": "0x81",
          "removed": false
        },
        {
          "address": "0x270e88f8683660553e8ba4eb2ad7c91a1710d769",
          "topics": [
            "0x4afcb4a87cdbd9974efdb92ee48bc8d7cd0ae4bf217004db3d080cbaee652ca7"
          ],
          "data": "0x000000000000000000000000000000000000000000000000000000006786ea480000000000000000000000000000000000000000000000000004ced079d598110000000000000000000000000000000000000000000000000dc827df727b2cc7",
          "blockHash": "0xa724db9e36ca06d938dee3461ed6a3e7536020810eca863eb2beb1c8ec46d001",
          "blockNumber": "0x7254b0",
          "transactionHash": "0xd92f27172d85c4fd826b767572405104ea9573c0b0a7340637c305a22f3b288b",
          "transactionIndex": "0x3d",
          "logIndex": "0x82",
          "removed": false
        }
      ],
      "logsBloom": "0x00000000000000000000000000000000000000000000000000000000000000000000000000000000000000000000000020000000000000004000000000000000000000000000000000000008000000000000000000000000000000000000000000000000020000000000000000000800020000000000000000000010000000000000000000010000000000000000000000000000000000000000010000000000000000000000000000000000000000004000000000000000000000000000000000000002000000800000000000000000000000000000080000008000000020000000000000000000000000000000000000000000000000000000000000000000",
      "type": "0x2",
      "transactionHash": "0xd92f27172d85c4fd826b767572405104ea9573c0b0a7340637c305a22f3b288b",
      "transactionIndex": "0x3d",
      "blockHash": "0xa724db9e36ca06d938dee3461ed6a3e7536020810eca863eb2beb1c8ec46d001",
      "blockNumber": "0x7254b0",
      "gasUsed": "0xfb93",
      "effectiveGasPrice": "0x12ba084ec",
      "from": "0xc77f7fed3b5cc8249adc428c5f44c9063b9734b4",
      "to": "0x270e88f8683660553e8ba4eb2ad7c91a1710d769",
      "contractAddress": null
    }
  ],
  "libraries": [],
  "pending": [],
  "returns": {},
  "timestamp": 1736895050,
  "chain": 11155111,
  "commit": "51a374b"
}