{
  "transactions": [
    {
      "hash": "0x83a39a4a0a466d3a8bfdef6d21040fcf453a830a62c0e8f21c8acddc634dd5cf",
      "transactionType": "CALL",
      "contractName": null,
      "contractAddress": "0x8aafd3ede9adb0ff97c7aebce82a919afb1c8764",
      "function": "sell(uint256)",
      "arguments": [
        "140210372847257"
      ],
      "transaction": {
        "from": "0xc77f7fed3b5cc8249adc428c5f44c9063b9734b4",
        "to": "0x8aafd3ede9adb0ff97c7aebce82a919afb1c8764",
        "gas": "0x15daa",
        "value": "0x0",
        "input": "0xe4849b3200000000000000000000000000000000000000000000000000007f854577a699",
        "nonce": "0x139a",
        "chainId": "0xaa36a7"
      },
      "additionalContracts": [],
      "isFixedGasLimit": false
    }
  ],
  "receipts": [
    {
      "status": "0x1",
      "cumulativeGasUsed": "0x1e9789d",
      "logs": [
        {
          "address": "0x8aafd3ede9adb0ff97c7aebce82a919afb1c8764",
          "topics": [
            "0xddf252ad1be2c89b69c2b068fc378daa952ba7f163c4a11628f55a4df523b3ef",
            "0x000000000000000000000000c77f7fed3b5cc8249adc428c5f44c9063b9734b4",
            "0x0000000000000000000000000000000000000000000000000000000000000000"
          ],
          "data": "0x00000000000000000000000000000000000000000000000000007e801bf39f1f",
          "blockHash": "0x1404577a8bb866e22aa6e1a9c2971a0bb417363f5dc0c3577bc6ab5694bf5248",
          "blockNumber": "0x731abf",
          "transactionHash": "0x83a39a4a0a466d3a8bfdef6d21040fcf453a830a62c0e8f21c8acddc634dd5cf",
          "transactionIndex": "0xd4",
          "logIndex": "0x128",
          "removed": false
        },
        {
          "address": "0x8aafd3ede9adb0ff97c7aebce82a919afb1c8764",
          "topics": [
            "0xddf252ad1be2c89b69c2b068fc378daa952ba7f163c4a11628f55a4df523b3ef",
            "0x000000000000000000000000c77f7fed3b5cc8249adc428c5f44c9063b9734b4",
            "0x000000000000000000000000c77f7fed3b5cc8249adc428c5f44c9063b9734b4"
          ],
          "data": "0x000000000000000000000000000000000000000000000000000001052984077a",
          "blockHash": "0x1404577a8bb866e22aa6e1a9c2971a0bb417363f5dc0c3577bc6ab5694bf5248",
          "blockNumber": "0x731abf",
          "transactionHash": "0x83a39a4a0a466d3a8bfdef6d21040fcf453a830a62c0e8f21c8acddc634dd5cf",
          "transactionIndex": "0xd4",
          "logIndex": "0x129",
          "removed": false
        },
        {
          "address": "0x8aafd3ede9adb0ff97c7aebce82a919afb1c8764",
          "topics": [
            "0x4afcb4a87cdbd9974efdb92ee48bc8d7cd0ae4bf217004db3d080cbaee652ca7"
          ],
          "data": "0x0000000000000000000000000000000000000000000000000000000067903dc4000000000000000000000000000000000000000000000000000cfc0d0d5059370000000000000000000000000000000000000000000000000000007750211b5a",
          "blockHash": "0x1404577a8bb866e22aa6e1a9c2971a0bb417363f5dc0c3577bc6ab5694bf5248",
          "blockNumber": "0x731abf",
          "transactionHash": "0x83a39a4a0a466d3a8bfdef6d21040fcf453a830a62c0e8f21c8acddc634dd5cf",
          "transactionIndex": "0xd4",
          "logIndex": "0x12a",
          "removed": false
        }
      ],
      "logsBloom": "0x00000000000000000000000000000000000000000600000000000000000000000000000000000000000000000000000000000000000000004000000000000000000000000000004000000008000000000000000000000000000000000000000000000000020000000000000000000800020000000000000000000010000000000000000000000000000000000000000000000000000000000000010000000000000000000000000000000000000000004000000000000000000000000000000000000002000000800000000000000000000000000000080000000000000020000000000000000000000000000000000000000000000000000000000000000000",
      "type": "0x2",
      "transactionHash": "0x83a39a4a0a466d3a8bfdef6d21040fcf453a830a62c0e8f21c8acddc634dd5cf",
      "transactionIndex": "0xd4",
      "blockHash": "0x1404577a8bb866e22aa6e1a9c2971a0bb417363f5dc0c3577bc6ab5694bf5248",
      "blockNumber": "0x731abf",
      "gasUsed": "0xfd27",
      "effectiveGasPrice": "0x7fa5595a",
      "from": "0xc77f7fed3b5cc8249adc428c5f44c9063b9734b4",
      "to": "0x8aafd3ede9adb0ff97c7aebce82a919afb1c8764",
      "contractAddress": null
    }
  ],
  "libraries": [],
  "pending": [],
  "returns": {},
  "timestamp": 1737506245,
  "chain": 11155111,
  "commit": "1d2fb70"
}