{
  "transactions": [
    {
      "hash": "0xb5a3a3fb9600afc7ca937e1f7644714c004bbc63716d453166d73f7a20cbe982",
      "transactionType": "CALL",
      "contractName": null,
      "contractAddress": "0x5eb9cc76c3506942c1c0ead70e877dd5e4f00cb0",
      "function": "buy(address)",
      "arguments": [
        "0xC77f7fed3b5Cc8249aDc428c5F44C9063B9734b4"
      ],
      "transaction": {
        "from": "0xc77f7fed3b5cc8249adc428c5f44c9063b9734b4",
        "to": "0x5eb9cc76c3506942c1c0ead70e877dd5e4f00cb0",
        "gas": "0x156c8",
        "value": "0xde0b6b3a7640000",
        "input": "0xf088d547000000000000000000000000c77f7fed3b5cc8249adc428c5f44c9063b9734b4",
        "nonce": "0x195",
        "chainId": "0xaa36a7"
      },
      "additionalContracts": [],
      "isFixedGasLimit": false
    }
  ],
  "receipts": [
    {
      "status": "0x1",
      "cumulativeGasUsed": "0xc3fe2e",
      "logs": [
        {
          "address": "0x5eb9cc76c3506942c1c0ead70e877dd5e4f00cb0",
          "topics": [
            "0xddf252ad1be2c89b69c2b068fc378daa952ba7f163c4a11628f55a4df523b3ef",
            "0x0000000000000000000000000000000000000000000000000000000000000000",
            "0x000000000000000000000000c77f7fed3b5cc8249adc428c5f44c9063b9734b4"
          ],
          "data": "0x000000000000000000000000000000000000000000000035a37da62ed1c212b9",
          "blockHash": "0x0a9f9b5bdf3e9c144840f4568dbb5989a18a79195484256cfdfc7fb0cb143d49",
          "blockNumber": "0x723c7a",
          "transactionHash": "0xb5a3a3fb9600afc7ca937e1f7644714c004bbc63716d453166d73f7a20cbe982",
          "transactionIndex": "0x4c",
          "logIndex": "0x72",
          "removed": false
        },
        {
          "address": "0x5eb9cc76c3506942c1c0ead70e877dd5e4f00cb0",
          "topics": [
            "0xddf252ad1be2c89b69c2b068fc378daa952ba7f163c4a11628f55a4df523b3ef",
            "0x0000000000000000000000000000000000000000000000000000000000000000",
            "0x000000000000000000000000c77f7fed3b5cc8249adc428c5f44c9063b9734b4"
          ],
          "data": "0x00000000000000000000000000000000000000000000000029a6f8935f7576ff",
          "blockHash": "0x0a9f9b5bdf3e9c144840f4568dbb5989a18a79195484256cfdfc7fb0cb143d49",
          "blockNumber": "0x723c7a",
          "transactionHash": "0xb5a3a3fb9600afc7ca937e1f7644714c004bbc63716d453166d73f7a20cbe982",
          "transactionIndex": "0x4c",
          "logIndex": "0x73",
          "removed": false
        },
        {
          "address": "0x5eb9cc76c3506942c1c0ead70e877dd5e4f00cb0",
          "topics": [
            "0x4afcb4a87cdbd9974efdb92ee48bc8d7cd0ae4bf217004db3d080cbaee652ca7"
          ],
          "data": "0x000000000000000000000000000000000000000000000000000000006785c70c00000000000000000000000000000000000000000000000000038dfe2a22a30b0000000000000000000000000000000000000000000000000de0b6b3a7640000",
          "blockHash": "0x0a9f9b5bdf3e9c144840f4568dbb5989a18a79195484256cfdfc7fb0cb143d49",
          "blockNumber": "0x723c7a",
          "transactionHash": "0xb5a3a3fb9600afc7ca937e1f7644714c004bbc63716d453166d73f7a20cbe982",
          "transactionIndex": "0x4c",
          "logIndex": "0x74",
          "removed": false
        }
      ],
      "logsBloom": "0x00000000000000000000000000000000000000000000000000000000000000000000000000000000000000000000000000000000000000004000000000000000000000000000000000000008000000000000000000000000000000000000000000000000020000000000000004000800020000000000000000000010000000000000000000000000000000000000000000000000000000000000010000000000000000000000000000000000000000004000000000000000000000000000020000000002000000800000008000000000000000000000080000000000000020000000000000000000000000000000000000000000000000000000000000000000",
      "type": "0x2",
      "transactionHash": "0xb5a3a3fb9600afc7ca937e1f7644714c004bbc63716d453166d73f7a20cbe982",
      "transactionIndex": "0x4c",
      "blockHash": "0x0a9f9b5bdf3e9c144840f4568dbb5989a18a79195484256cfdfc7fb0cb143d49",
      "blockNumber": "0x723c7a",
      "gasUsed": "0xf82c",
      "effectiveGasPrice": "0x1ce01ebdd",
      "from": "0xc77f7fed3b5cc8249adc428c5f44c9063b9734b4",
      "to": "0x5eb9cc76c3506942c1c0ead70e877dd5e4f00cb0",
      "contractAddress": null
    }
  ],
  "libraries": [],
  "pending": [],
  "returns": {},
  "timestamp": 1736820493,
  "chain": 11155111,
  "commit": "51a374b"
}