{
  "transactions": [
    {
      "hash": "0x28c368c35fe7a71b1bcc78ce869ce5bd980f2619c8c84cfa41b451da3c6ecd65",
      "transactionType": "CALL",
      "contractName": null,
      "contractAddress": "0xd7bc75898e513accccf720a874d44dab5a4b6223",
      "function": "buy(address)",
      "arguments": [
        "0xC77f7fed3b5Cc8249aDc428c5F44C9063B9734b4"
      ],
      "transaction": {
        "from": "0xc77f7fed3b5cc8249adc428c5f44c9063b9734b4",
        "to": "0xd7bc75898e513accccf720a874d44dab5a4b6223",
        "gas": "0x1b30c",
        "value": "0x16345785d8a0000",
        "input": "0xf088d547000000000000000000000000c77f7fed3b5cc8249adc428c5f44c9063b9734b4",
        "nonce": "0x75",
        "chainId": "0xaa36a7"
      },
      "additionalContracts": [],
      "isFixedGasLimit": false
    },
    {
      "hash": "0x8ef622040eb65ca218705fb44e063cf406c62ba945e52098dff6f307ecd1f625",
      "transactionType": "CALL",
      "contractName": null,
      "contractAddress": "0xd7bc75898e513accccf720a874d44dab5a4b6223",
      "function": "sell(uint256)",
      "arguments": [
        "99300267850948784667"
      ],
      "transaction": {
        "from": "0xc77f7fed3b5cc8249adc428c5f44c9063b9734b4",
        "to": "0xd7bc75898e513accccf720a874d44dab5a4b6223",
        "gas": "0x16fec",
        "value": "0x0",
        "input": "0xe4849b3200000000000000000000000000000000000000000000000562116b7ebcf1b21b",
        "nonce": "0x76",
        "chainId": "0xaa36a7"
      },
      "additionalContracts": [],
      "isFixedGasLimit": false
    }
  ],
  "receipts": [
    {
      "status": "0x1",
      "cumulativeGasUsed": "0xcdf84b",
      "logs": [
        {
          "address": "0xd7bc75898e513accccf720a874d44dab5a4b6223",
          "topics": [
            "0xddf252ad1be2c89b69c2b068fc378daa952ba7f163c4a11628f55a4df523b3ef",
            "0x0000000000000000000000000000000000000000000000000000000000000000",
            "0x000000000000000000000000c77f7fed3b5cc8249adc428c5f44c9063b9734b4"
          ],
          "data": "0x0000000000000000000000000000000000000000000000055de68a0d60bb7beb",
          "blockHash": "0xc84db76dba733f1c62c978d2c078714f29daa449c46b3901ea205f9b70e50292",
          "blockNumber": "0x7238a0",
          "transactionHash": "0x28c368c35fe7a71b1bcc78ce869ce5bd980f2619c8c84cfa41b451da3c6ecd65",
          "transactionIndex": "0x62",
          "logIndex": "0x192",
          "removed": false
        },
        {
          "address": "0xd7bc75898e513accccf720a874d44dab5a4b6223",
          "topics": [
            "0xddf252ad1be2c89b69c2b068fc378daa952ba7f163c4a11628f55a4df523b3ef",
            "0x0000000000000000000000000000000000000000000000000000000000000000",
            "0x000000000000000000000000c77f7fed3b5cc8249adc428c5f44c9063b9734b4"
          ],
          "data": "0x000000000000000000000000000000000000000000000000042ae1715c363630",
          "blockHash": "0xc84db76dba733f1c62c978d2c078714f29daa449c46b3901ea205f9b70e50292",
          "blockNumber": "0x7238a0",
          "transactionHash": "0x28c368c35fe7a71b1bcc78ce869ce5bd980f2619c8c84cfa41b451da3c6ecd65",
          "transactionIndex": "0x62",
          "logIndex": "0x193",
          "removed": false
        },
        {
          "address": "0xd7bc75898e513accccf720a874d44dab5a4b6223",
          "topics": [
            "0x4afcb4a87cdbd9974efdb92ee48bc8d7cd0ae4bf217004db3d080cbaee652ca7"
          ],
          "data": "0x00000000000000000000000000000000000000000000000000000000678598c800000000000000000000000000000000000000000000000000038d7eb8f2b60d000000000000000000000000000000000000000000000000016345785d8a0000",
          "blockHash": "0xc84db76dba733f1c62c978d2c078714f29daa449c46b3901ea205f9b70e50292",
          "blockNumber": "0x7238a0",
          "transactionHash": "0x28c368c35fe7a71b1bcc78ce869ce5bd980f2619c8c84cfa41b451da3c6ecd65",
          "transactionIndex": "0x62",
          "logIndex": "0x194",
          "removed": false
        }
      ],
      "logsBloom": "0x00000000000000000000000000000000000000000000000000000000000000000000000000000000000000000000000000000000000000004000000000000000000000000000000000000008000000000000000000000000000000000000000000000000020000000000000000000800020000000000000000000010000000000000000000000000000000000000000000000000000000000000010000000000000000000000000000000000000000004000001000000000000000000000000000000002000000800000000000004000000000000000080000000000000020000000000000000000000000000000000000000000080000000000000000000000",
      "type": "0x2",
      "transactionHash": "0x28c368c35fe7a71b1bcc78ce869ce5bd980f2619c8c84cfa41b451da3c6ecd65",
      "transactionIndex": "0x62",
      "blockHash": "0xc84db76dba733f1c62c978d2c078714f29daa449c46b3901ea205f9b70e50292",
      "blockNumber": "0x7238a0",
      "gasUsed": "0x13af8",
      "effectiveGasPrice": "0x2227166",
      "from": "0xc77f7fed3b5cc8249adc428c5f44c9063b9734b4",
      "to": "0xd7bc75898e513accccf720a874d44dab5a4b6223",
      "contractAddress": null
    },
    {
      "status": "0x1",
      "cumulativeGasUsed": "0xd9f89f",
      "logs": [
        {
          "address": "0xd7bc75898e513accccf720a874d44dab5a4b6223",
          "topics": [
            "0xddf252ad1be2c89b69c2b068fc378daa952ba7f163c4a11628f55a4df523b3ef",
            "0x000000000000000000000000c77f7fed3b5cc8249adc428c5f44c9063b9734b4",
            "0x0000000000000000000000000000000000000000000000000000000000000000"
          ],
          "data": "0x00000000000000000000000000000000000000000000000562116b7ebcf1b21b",
          "blockHash": "0xc84db76dba733f1c62c978d2c078714f29daa449c46b3901ea205f9b70e50292",
          "blockNumber": "0x7238a0",
          "transactionHash": "0x8ef622040eb65ca218705fb44e063cf406c62ba945e52098dff6f307ecd1f625",
          "transactionIndex": "0x68",
          "logIndex": "0x1a2",
          "removed": false
        },
        {
          "address": "0xd7bc75898e513accccf720a874d44dab5a4b6223",
          "topics": [
            "0x4afcb4a87cdbd9974efdb92ee48bc8d7cd0ae4bf217004db3d080cbaee652ca7"
          ],
          "data": "0x00000000000000000000000000000000000000000000000000000000678598c800000000000000000000000000000000000000000000000000038d7eba2e60d40000000000000000000000000000000000000000000000000160c9191a82ed3f",
          "blockHash": "0xc84db76dba733f1c62c978d2c078714f29daa449c46b3901ea205f9b70e50292",
          "blockNumber": "0x7238a0",
          "transactionHash": "0x8ef622040eb65ca218705fb44e063cf406c62ba945e52098dff6f307ecd1f625",
          "transactionIndex": "0x68",
          "logIndex": "0x1a3",
          "removed": false
        }
      ],
      "logsBloom": "0x00000000000000000000000000000000000000000000000000000000000000000000000000000000000000000000000000000000000000004000000000000000000000000000000000000008000000000000000000000000000000000000000000000000020000000000000000000800020000000000000000000010000000000000000000000000000000000000000000000000000000000000010000000000000000000000000000000000000000004000001000000000000000000000000000000002000000800000000000004000000000000000080000000000000020000000000000000000000000000000000000000000080000000000000000000000",
      "type": "0x2",
      "transactionHash": "0x8ef622040eb65ca218705fb44e063cf406c62ba945e52098dff6f307ecd1f625",
      "transactionIndex": "0x68",
      "blockHash": "0xc84db76dba733f1c62c978d2c078714f29daa449c46b3901ea205f9b70e50292",
      "blockNumber": "0x7238a0",
      "gasUsed": "0xfb93",
      "effectiveGasPrice": "0x2227166",
      "from": "0xc77f7fed3b5cc8249adc428c5f44c9063b9734b4",
      "to": "0xd7bc75898e513accccf720a874d44dab5a4b6223",
      "contractAddress": null
    }
  ],
  "libraries": [],
  "pending": [],
  "returns": {},
  "timestamp": 1736808650,
  "chain": 11155111,
  "commit": "51a374b"
}