{
  "transactions": [
    {
      "hash": "0x7b392968ba6acfb6887d0e80d8a3a63db7f8d66e023bd0a09e4cdce1104d8e3f",
      "transactionType": "CALL",
      "contractName": null,
      "contractAddress": "0xbf4a322f1496e5c3d34a9bcdb4c60567b38c7de2",
      "function": "sell(uint256)",
      "arguments": [
        "977521650110752336471"
      ],
      "transaction": {
        "from": "0xc77f7fed3b5cc8249adc428c5f44c9063b9734b4",
        "to": "0xbf4a322f1496e5c3d34a9bcdb4c60567b38c7de2",
        "gas": "0x16fea",
        "value": "0x0",
        "input": "0xe4849b32000000000000000000000000000000000000000000000034fdd689a4e113aa57",
        "nonce": "0xcd1",
        "chainId": "0xaa36a7"
      },
      "additionalContracts": [],
      "isFixedGasLimit": false
    }
  ],
  "receipts": [
    {
      "status": "0x1",
      "cumulativeGasUsed": "0x1533d23",
      "logs": [
        {
          "address": "0xbf4a322f1496e5c3d34a9bcdb4c60567b38c7de2",
          "topics": [
            "0xddf252ad1be2c89b69c2b068fc378daa952ba7f163c4a11628f55a4df523b3ef",
            "0x000000000000000000000000c77f7fed3b5cc8249adc428c5f44c9063b9734b4",
            "0x0000000000000000000000000000000000000000000000000000000000000000"
          ],
          "data": "0x000000000000000000000000000000000000000000000034fdd689a4e113aa57",
          "blockHash": "0x8709eb0a29d8e38e94092d7e92d605bbc52abe65293cd098883fb88e0dd0fc6e",
          "blockNumber": "0x725d22",
          "transactionHash": "0x7b392968ba6acfb6887d0e80d8a3a63db7f8d66e023bd0a09e4cdce1104d8e3f",
          "transactionIndex": "0xb9",
          "logIndex": "0xe3",
          "removed": false
        },
        {
          "address": "0xbf4a322f1496e5c3d34a9bcdb4c60567b38c7de2",
          "topics": [
            "0x4afcb4a87cdbd9974efdb92ee48bc8d7cd0ae4bf217004db3d080cbaee652ca7"
          ],
          "data": "0x000000000000000000000000000000000000000000000000000000006787500c00000000000000000000000000000000000000000000000000039bec8753bc360000000000000000000000000000000000000000000000000dc7e3dc4dd6b324",
          "blockHash": "0x8709eb0a29d8e38e94092d7e92d605bbc52abe65293cd098883fb88e0dd0fc6e",
          "blockNumber": "0x725d22",
          "transactionHash": "0x7b392968ba6acfb6887d0e80d8a3a63db7f8d66e023bd0a09e4cdce1104d8e3f",
          "transactionIndex": "0xb9",
          "logIndex": "0xe4",
          "removed": false
        }
      ],
      "logsBloom": "0x00000000000000000000000000000000000000000000000000000000000000000000000000000000000000000000000000000000000000004000000000000000000000000000000000000008000000000000001000000000000000000000000000000000020000000000000000000800020000000000000000000010000000000000000000000000000000000000000000000000000008000000010000000000000000000000000000000000000000004000000000000000000000000000000000000002000000800000000000001000000000000000080000000000000020000000000000000000000000000000000000000000000000000000000000000000",
      "type": "0x2",
      "transactionHash": "0x7b392968ba6acfb6887d0e80d8a3a63db7f8d66e023bd0a09e4cdce1104d8e3f",
      "transactionIndex": "0xb9",
      "blockHash": "0x8709eb0a29d8e38e94092d7e92d605bbc52abe65293cd098883fb88e0dd0fc6e",
      "blockNumber": "0x725d22",
      "gasUsed": "0xfb91",
      "effectiveGasPrice": "0x4ae07bcf4",
      "from": "0xc77f7fed3b5cc8249adc428c5f44c9063b9734b4",
      "to": "0xbf4a322f1496e5c3d34a9bcdb4c60567b38c7de2",
      "contractAddress": null
    }
  ],
  "libraries": [],
  "pending": [],
  "returns": {},
  "timestamp": 1736921101,
  "chain": 11155111,
  "commit": "51a374b"
}