{
  "transactions": [
    {
      "hash": "0x44fa61df3e6a2bfcebae466216baba8ee386305d944a5a35ced2abcd6553f7fe",
      "transactionType": "CALL",
      "contractName": null,
      "contractAddress": "0x5eb9cc76c3506942c1c0ead70e877dd5e4f00cb0",
      "function": "sell(uint256)",
      "arguments": [
        "989123583934360600259"
      ],
      "transaction": {
        "from": "0xc77f7fed3b5cc8249adc428c5f44c9063b9734b4",
        "to": "0x5eb9cc76c3506942c1c0ead70e877dd5e4f00cb0",
        "gas": "0x16fec",
        "value": "0x0",
        "input": "0xe4849b320000000000000000000000000000000000000000000000359ed8e2fca8d63ec3",
        "nonce": "0x36d",
        "chainId": "0xaa36a7"
      },
      "additionalContracts": [],
      "isFixedGasLimit": false
    }
  ],
  "receipts": [
    {
      "status": "0x1",
      "cumulativeGasUsed": "0xe79574",
      "logs": [
        {
          "address": "0x5eb9cc76c3506942c1c0ead70e877dd5e4f00cb0",
          "topics": [
            "0xddf252ad1be2c89b69c2b068fc378daa952ba7f163c4a11628f55a4df523b3ef",
            "0x000000000000000000000000c77f7fed3b5cc8249adc428c5f44c9063b9734b4",
            "0x0000000000000000000000000000000000000000000000000000000000000000"
          ],
          "data": "0x0000000000000000000000000000000000000000000000359ed8e2fca8d63ec3",
          "blockHash": "0xb7d3134b01bd7c810f8d6c57a67a91f421d7aa24e6902e11838697c88914c7a6",
          "blockNumber": "0x724f63",
          "transactionHash": "0x44fa61df3e6a2bfcebae466216baba8ee386305d944a5a35ced2abcd6553f7fe",
          "transactionIndex": "0x51",
          "logIndex": "0x6d",
          "removed": false
        },
        {
          "address": "0x5eb9cc76c3506942c1c0ead70e877dd5e4f00cb0",
          "topics": [
            "0x4afcb4a87cdbd9974efdb92ee48bc8d7cd0ae4bf217004db3d080cbaee652ca7"
          ],
          "data": "0x000000000000000000000000000000000000000000000000000000006786aa580000000000000000000000000000000000000000000000000003910fe613707c0000000000000000000000000000000000000000000000000dc7db13321169af",
          "blockHash": "0xb7d3134b01bd7c810f8d6c57a67a91f421d7aa24e6902e11838697c88914c7a6",
          "blockNumber": "0x724f63",
          "transactionHash": "0x44fa61df3e6a2bfcebae466216baba8ee386305d944a5a35ced2abcd6553f7fe",
          "transactionIndex": "0x51",
          "logIndex": "0x6e",
          "removed": false
        }
      ],
      "logsBloom": "0x00000000000000000000000000000000000000000000000000000000000000000000000000000000000000000000000000000000000000004000000000000000000000000000000000000008000000000000000000000000000000000000000000000000020000000000000004000800020000000000000000000010000000000000000000000000000000000000000000000000000000000000010000000000000000000000000000000000000000004000000000000000000000000000020000000002000000800000008000000000000000000000080000000000000020000000000000000000000000000000000000000000000000000000000000000000",
      "type": "0x2",
      "transactionHash": "0x44fa61df3e6a2bfcebae466216baba8ee386305d944a5a35ced2abcd6553f7fe",
      "transactionIndex": "0x51",
      "blockHash": "0xb7d3134b01bd7c810f8d6c57a67a91f421d7aa24e6902e11838697c88914c7a6",
      "blockNumber": "0x724f63",
      "gasUsed": "0xfb93",
      "effectiveGasPrice": "0x5e0f798f4",
      "from": "0xc77f7fed3b5cc8249adc428c5f44c9063b9734b4",
      "to": "0x5eb9cc76c3506942c1c0ead70e877dd5e4f00cb0",
      "contractAddress": null
    }
  ],
  "libraries": [],
  "pending": [],
  "returns": {},
  "timestamp": 1736878681,
  "chain": 11155111,
  "commit": "51a374b"
}