{
  "transactions": [
    {
      "hash": "0x54234484d3af7990eec2625e1a94b7601748a50c5422d17e7b43d1845b7d87de",
      "transactionType": "CALL",
      "contractName": null,
      "contractAddress": "0x5eb9cc76c3506942c1c0ead70e877dd5e4f00cb0",
      "function": "buy(address)",
      "arguments": [
        "0xC77f7fed3b5Cc8249aDc428c5F44C9063B9734b4"
      ],
      "transaction": {
        "from": "0xc77f7fed3b5cc8249adc428c5f44c9063b9734b4",
        "to": "0x5eb9cc76c3506942c1c0ead70e877dd5e4f00cb0",
        "gas": "0x156c8",
        "value": "0xde0b6b3a7640000",
        "input": "0xf088d547000000000000000000000000c77f7fed3b5cc8249adc428c5f44c9063b9734b4",
        "nonce": "0x14c",
        "chainId": "0xaa36a7"
      },
      "additionalContracts": [],
      "isFixedGasLimit": false
    }
  ],
  "receipts": [
    {
      "status": "0x1",
      "cumulativeGasUsed": "0x18b1222",
      "logs": [
        {
          "address": "0x5eb9cc76c3506942c1c0ead70e877dd5e4f00cb0",
          "topics": [
            "0xddf252ad1be2c89b69c2b068fc378daa952ba7f163c4a11628f55a4df523b3ef",
            "0x0000000000000000000000000000000000000000000000000000000000000000",
            "0x000000000000000000000000c77f7fed3b5cc8249adc428c5f44c9063b9734b4"
          ],
          "data": "0x000000000000000000000000000000000000000000000035aaf3c086bae465b6",
          "blockHash": "0x1db1a3164c98bae82044818a4c904d28f8d241deb1df35a395f4c6f6100dbb97",
          "blockNumber": "0x723b42",
          "transactionHash": "0x54234484d3af7990eec2625e1a94b7601748a50c5422d17e7b43d1845b7d87de",
          "transactionIndex": "0x96",
          "logIndex": "0x196",
          "removed": false
        },
        {
          "address": "0x5eb9cc76c3506942c1c0ead70e877dd5e4f00cb0",
          "topics": [
            "0xddf252ad1be2c89b69c2b068fc378daa952ba7f163c4a11628f55a4df523b3ef",
            "0x0000000000000000000000000000000000000000000000000000000000000000",
            "0x000000000000000000000000c77f7fed3b5cc8249adc428c5f44c9063b9734b4"
          ],
          "data": "0x00000000000000000000000000000000000000000000000029acc3d5f2a2c95a",
          "blockHash": "0x1db1a3164c98bae82044818a4c904d28f8d241deb1df35a395f4c6f6100dbb97",
          "blockNumber": "0x723b42",
          "transactionHash": "0x54234484d3af7990eec2625e1a94b7601748a50c5422d17e7b43d1845b7d87de",
          "transactionIndex": "0x96",
          "logIndex": "0x197",
          "removed": false
        },
        {
          "address": "0x5eb9cc76c3506942c1c0ead70e877dd5e4f00cb0",
          "topics": [
            "0x4afcb4a87cdbd9974efdb92ee48bc8d7cd0ae4bf217004db3d080cbaee652ca7"
          ],
          "data": "0x000000000000000000000000000000000000000000000000000000006785b86c00000000000000000000000000000000000000000000000000038d7fa65d20960000000000000000000000000000000000000000000000000de0b6b3a7640000",
          "blockHash": "0x1db1a3164c98bae82044818a4c904d28f8d241deb1df35a395f4c6f6100dbb97",
          "blockNumber": "0x723b42",
          "transactionHash": "0x54234484d3af7990eec2625e1a94b7601748a50c5422d17e7b43d1845b7d87de",
          "transactionIndex": "0x96",
          "logIndex": "0x198",
          "removed": false
        }
      ],
      "logsBloom": "0x00000000000000000000000000000000000000000000000000000000000000000000000000000000000000000000000000000000000000004000000000000000000000000000000000000008000000000000000000000000000000000000000000000000020000000000000004000800020000000000000000000010000000000000000000000000000000000000000000000000000000000000010000000000000000000000000000000000000000004000000000000000000000000000020000000002000000800000008000000000000000000000080000000000000020000000000000000000000000000000000000000000000000000000000000000000",
      "type": "0x2",
      "transactionHash": "0x54234484d3af7990eec2625e1a94b7601748a50c5422d17e7b43d1845b7d87de",
      "transactionIndex": "0x96",
      "blockHash": "0x1db1a3164c98bae82044818a4c904d28f8d241deb1df35a395f4c6f6100dbb97",
      "blockNumber": "0x723b42",
      "gasUsed": "0xf82c",
      "effectiveGasPrice": "0x61407d75b",
      "from": "0xc77f7fed3b5cc8249adc428c5f44c9063b9734b4",
      "to": "0x5eb9cc76c3506942c1c0ead70e877dd5e4f00cb0",
      "contractAddress": null
    }
  ],
  "libraries": [],
  "pending": [],
  "returns": {},
  "timestamp": 1736816750,
  "chain": 11155111,
  "commit": "51a374b"
}