{
  "transactions": [
    {
      "hash": "0x9052e2079d9115e2def16e07a9e500e0adbf7f0410f914b02ccc52bd2b71219d",
      "transactionType": "CALL",
      "contractName": null,
      "contractAddress": "0x5eb9cc76c3506942c1c0ead70e877dd5e4f00cb0",
      "function": "sell(uint256)",
      "arguments": [
        "989146532441876096206"
      ],
      "transaction": {
        "from": "0xc77f7fed3b5cc8249adc428c5f44c9063b9734b4",
        "to": "0x5eb9cc76c3506942c1c0ead70e877dd5e4f00cb0",
        "gas": "0x16fec",
        "value": "0x0",
        "input": "0xe4849b320000000000000000000000000000000000000000000000359f2a6a886f6c64ce",
        "nonce": "0x2dd",
        "chainId": "0xaa36a7"
      },
      "additionalContracts": [],
      "isFixedGasLimit": false
    }
  ],
  "receipts": [
    {
      "status": "0x1",
      "cumulativeGasUsed": "0xa5bf68",
      "logs": [
        {
          "address": "0x5eb9cc76c3506942c1c0ead70e877dd5e4f00cb0",
          "topics": [
            "0xddf252ad1be2c89b69c2b068fc378daa952ba7f163c4a11628f55a4df523b3ef",
            "0x000000000000000000000000c77f7fed3b5cc8249adc428c5f44c9063b9734b4",
            "0x0000000000000000000000000000000000000000000000000000000000000000"
          ],
          "data": "0x0000000000000000000000000000000000000000000000359f2a6a886f6c64ce",
          "blockHash": "0xe35113cf21e91891c0b4349fc5b62d7c92d7c6030ceb42eef7e2977ea0386fe3",
          "blockNumber": "0x724eba",
          "transactionHash": "0x9052e2079d9115e2def16e07a9e500e0adbf7f0410f914b02ccc52bd2b71219d",
          "transactionIndex": "0x50",
          "logIndex": "0x93",
          "removed": false
        },
        {
          "address": "0x5eb9cc76c3506942c1c0ead70e877dd5e4f00cb0",
          "topics": [
            "0x4afcb4a87cdbd9974efdb92ee48bc8d7cd0ae4bf217004db3d080cbaee652ca7"
          ],
          "data": "0x000000000000000000000000000000000000000000000000000000006786a26c0000000000000000000000000000000000000000000000000003910a79ce55490000000000000000000000000000000000000000000000000dc7db13323a3f28",
          "blockHash": "0xe35113cf21e91891c0b4349fc5b62d7c92d7c6030ceb42eef7e2977ea0386fe3",
          "blockNumber": "0x724eba",
          "transactionHash": "0x9052e2079d9115e2def16e07a9e500e0adbf7f0410f914b02ccc52bd2b71219d",
          "transactionIndex": "0x50",
          "logIndex": "0x94",
          "removed": false
        }
      ],
      "logsBloom": "0x00000000000000000000000000000000000000000000000000000000000000000000000000000000000000000000000000000000000000004000000000000000000000000000000000000008000000000000000000000000000000000000000000000000020000000000000004000800020000000000000000000010000000000000000000000000000000000000000000000000000000000000010000000000000000000000000000000000000000004000000000000000000000000000020000000002000000800000008000000000000000000000080000000000000020000000000000000000000000000000000000000000000000000000000000000000",
      "type": "0x2",
      "transactionHash": "0x9052e2079d9115e2def16e07a9e500e0adbf7f0410f914b02ccc52bd2b71219d",
      "transactionIndex": "0x50",
      "blockHash": "0xe35113cf21e91891c0b4349fc5b62d7c92d7c6030ceb42eef7e2977ea0386fe3",
      "blockNumber": "0x724eba",
      "gasUsed": "0xfb93",
      "effectiveGasPrice": "0x4951a1706",
      "from": "0xc77f7fed3b5cc8249adc428c5f44c9063b9734b4",
      "to": "0x5eb9cc76c3506942c1c0ead70e877dd5e4f00cb0",
      "contractAddress": null
    }
  ],
  "libraries": [],
  "pending": [],
  "returns": {},
  "timestamp": 1736876653,
  "chain": 11155111,
  "commit": "51a374b"
}