{
  "transactions": [
    {
      "hash": "0xb450579a7591c628338d916bb31de8b50c92c462262321a21be4f182f30aeaf3",
      "transactionType": "CALL",
      "contractName": null,
      "contractAddress": "0x8aafd3ede9adb0ff97c7aebce82a919afb1c8764",
      "function": "sell(uint256)",
      "arguments": [
        "132833199386324"
      ],
      "transaction": {
        "from": "0xc77f7fed3b5cc8249adc428c5f44c9063b9734b4",
        "to": "0x8aafd3ede9adb0ff97c7aebce82a919afb1c8764",
        "gas": "0x15daa",
        "value": "0x0",
        "input": "0xe4849b32000000000000000000000000000000000000000000000000000078cfa3a9eed4",
        "nonce": "0x13d9",
        "chainId": "0xaa36a7"
      },
      "additionalContracts": [],
      "isFixedGasLimit": false
    }
  ],
  "receipts": [
    {
      "status": "0x1",
      "cumulativeGasUsed": "0x10c54db",
      "logs": [
        {
          "address": "0x8aafd3ede9adb0ff97c7aebce82a919afb1c8764",
          "topics": [
            "0xddf252ad1be2c89b69c2b068fc378daa952ba7f163c4a11628f55a4df523b3ef",
            "0x000000000000000000000000c77f7fed3b5cc8249adc428c5f44c9063b9734b4",
            "0x0000000000000000000000000000000000000000000000000000000000000000"
          ],
          "data": "0x000000000000000000000000000000000000000000000000000077d837dbc602",
          "blockHash": "0xcd2a4b2f622de45859efdcde09a4c5393f7abba8feaabee006c5e1c611c3c3d3",
          "blockNumber": "0x731b06",
          "transactionHash": "0xb450579a7591c628338d916bb31de8b50c92c462262321a21be4f182f30aeaf3",
          "transactionIndex": "0xa4",
          "logIndex": "0xae",
          "removed": false
        },
        {
          "address": "0x8aafd3ede9adb0ff97c7aebce82a919afb1c8764",
          "topics": [
            "0xddf252ad1be2c89b69c2b068fc378daa952ba7f163c4a11628f55a4df523b3ef",
            "0x000000000000000000000000c77f7fed3b5cc8249adc428c5f44c9063b9734b4",
            "0x000000000000000000000000c77f7fed3b5cc8249adc428c5f44c9063b9734b4"
          ],
          "data": "0x000000000000000000000000000000000000000000000000000000f76bce28d2",
          "blockHash": "0xcd2a4b2f622de45859efdcde09a4c5393f7abba8feaabee006c5e1c611c3c3d3",
          "blockNumber": "0x731b06",
          "transactionHash": "0xb450579a7591c628338d916bb31de8b50c92c462262321a21be4f182f30aeaf3",
          "transactionIndex": "0xa4",
          "logIndex": "0xaf",
          "removed": false
        },
        {
          "address": "0x8aafd3ede9adb0ff97c7aebce82a919afb1c8764",
          "topics": [
            "0x4afcb4a87cdbd9974efdb92ee48bc8d7cd0ae4bf217004db3d080cbaee652ca7"
          ],
          "data": "0x0000000000000000000000000000000000000000000000000000000067904118000000000000000000000000000000000000000000000000000db34b6fe7cb27000000000000000000000000000000000000000000000000000000774440280d",
          "blockHash": "0xcd2a4b2f622de45859efdcde09a4c5393f7abba8feaabee006c5e1c611c3c3d3",
          "blockNumber": "0x731b06",
          "transactionHash": "0xb450579a7591c628338d916bb31de8b50c92c462262321a21be4f182f30aeaf3",
          "transactionIndex": "0xa4",
          "logIndex": "0xb0",
          "removed": false
        }
      ],
      "logsBloom": "0x00000000000000000000000000000000000000000600000000000000000000000000000000000000000000000000000000000000000000004000000000000000000000000000004000000008000000000000000000000000000000000000000000000000020000000000000000000800020000000000000000000010000000000000000000000000000000000000000000000000000000000000010000000000000000000000000000000000000000004000000000000000000000000000000000000002000000800000000000000000000000000000080000000000000020000000000000000000000000000000000000000000000000000000000000000000",
      "type": "0x2",
      "transactionHash": "0xb450579a7591c628338d916bb31de8b50c92c462262321a21be4f182f30aeaf3",
      "transactionIndex": "0xa4",
      "blockHash": "0xcd2a4b2f622de45859efdcde09a4c5393f7abba8feaabee006c5e1c611c3c3d3",
      "blockNumber": "0x731b06",
      "gasUsed": "0xfd27",
      "effectiveGasPrice": "0x8c48391d",
      "from": "0xc77f7fed3b5cc8249adc428c5f44c9063b9734b4",
      "to": "0x8aafd3ede9adb0ff97c7aebce82a919afb1c8764",
      "contractAddress": null
    }
  ],
  "libraries": [],
  "pending": [],
  "returns": {},
  "timestamp": 1737507096,
  "chain": 11155111,
  "commit": "1d2fb70"
}