{
  "transactions": [
    {
      "hash": "0xf54cfe5b81208f468c97fbf21aab36c395951c86fdc761c0d4c5d044bdfc53cb",
      "transactionType": "CALL",
      "contractName": null,
      "contractAddress": "0x5eb9cc76c3506942c1c0ead70e877dd5e4f00cb0",
      "function": "buy(address)",
      "arguments": [
        "0xC77f7fed3b5Cc8249aDc428c5F44C9063B9734b4"
      ],
      "transaction": {
        "from": "0xc77f7fed3b5cc8249adc428c5f44c9063b9734b4",
        "to": "0x5eb9cc76c3506942c1c0ead70e877dd5e4f00cb0",
        "gas": "0x1b30c",
        "value": "0xde0b6b3a7640000",
        "input": "0xf088d547000000000000000000000000c77f7fed3b5cc8249adc428c5f44c9063b9734b4",
        "nonce": "0x3ca",
        "chainId": "0xaa36a7"
      },
      "additionalContracts": [],
      "isFixedGasLimit": false
    }
  ],
  "receipts": [
    {
      "status": "0x1",
      "cumulativeGasUsed": "0xccaee2",
      "logs": [
        {
          "address": "0x5eb9cc76c3506942c1c0ead70e877dd5e4f00cb0",
          "topics": [
            "0xddf252ad1be2c89b69c2b068fc378daa952ba7f163c4a11628f55a4df523b3ef",
            "0x0000000000000000000000000000000000000000000000000000000000000000",
            "0x000000000000000000000000c77f7fed3b5cc8249adc428c5f44c9063b9734b4"
          ],
          "data": "0x0000000000000000000000000000000000000000000000357520b318b1919766",
          "blockHash": "0x9f628ccc7c0fd6154fe33675b3bfb6bd5fed93668f552afff3f0b4c70b5b4953",
          "blockNumber": "0x724fcc",
          "transactionHash": "0xf54cfe5b81208f468c97fbf21aab36c395951c86fdc761c0d4c5d044bdfc53cb",
          "transactionIndex": "0x69",
          "logIndex": "0xaa",
          "removed": false
        },
        {
          "address": "0x5eb9cc76c3506942c1c0ead70e877dd5e4f00cb0",
          "topics": [
            "0xddf252ad1be2c89b69c2b068fc378daa952ba7f163c4a11628f55a4df523b3ef",
            "0x0000000000000000000000000000000000000000000000000000000000000000",
            "0x000000000000000000000000c77f7fed3b5cc8249adc428c5f44c9063b9734b4"
          ],
          "data": "0x0000000000000000000000000000000000000000000000002982f7ee768e6858",
          "blockHash": "0x9f628ccc7c0fd6154fe33675b3bfb6bd5fed93668f552afff3f0b4c70b5b4953",
          "blockNumber": "0x724fcc",
          "transactionHash": "0xf54cfe5b81208f468c97fbf21aab36c395951c86fdc761c0d4c5d044bdfc53cb",
          "transactionIndex": "0x69",
          "logIndex": "0xab",
          "removed": false
        },
        {
          "address": "0x5eb9cc76c3506942c1c0ead70e877dd5e4f00cb0",
          "topics": [
            "0x4afcb4a87cdbd9974efdb92ee48bc8d7cd0ae4bf217004db3d080cbaee652ca7"
          ],
          "data": "0x000000000000000000000000000000000000000000000000000000006786af5c0000000000000000000000000000000000000000000000000003911363fa19cb0000000000000000000000000000000000000000000000000de0b6b3a7640000",
          "blockHash": "0x9f628ccc7c0fd6154fe33675b3bfb6bd5fed93668f552afff3f0b4c70b5b4953",
          "blockNumber": "0x724fcc",
          "transactionHash": "0xf54cfe5b81208f468c97fbf21aab36c395951c86fdc761c0d4c5d044bdfc53cb",
          "transactionIndex": "0x69",
          "logIndex": "0xac",
          "removed": false
        }
      ],
      "logsBloom": "0x00000000000000000000000000000000000000000000000000000000000000000000000000000000000000000000000000000000000000004000000000000000000000000000000000000008000000000000000000000000000000000000000000000000020000000000000004000800020000000000000000000010000000000000000000000000000000000000000000000000000000000000010000000000000000000000000000000000000000004000000000000000000000000000020000000002000000800000008000000000000000000000080000000000000020000000000000000000000000000000000000000000000000000000000000000000",
      "type": "0x2",
      "transactionHash": "0xf54cfe5b81208f468c97fbf21aab36c395951c86fdc761c0d4c5d044bdfc53cb",
      "transactionIndex": "0x69",
      "blockHash": "0x9f628ccc7c0fd6154fe33675b3bfb6bd5fed93668f552afff3f0b4c70b5b4953",
      "blockNumber": "0x724fcc",
      "gasUsed": "0x13af8",
      "effectiveGasPrice": "0x3859dbe67",
      "from": "0xc77f7fed3b5cc8249adc428c5f44c9063b9734b4",
      "to": "0x5eb9cc76c3506942c1c0ead70e877dd5e4f00cb0",
      "contractAddress": null
    }
  ],
  "libraries": [],
  "pending": [],
  "returns": {},
  "timestamp": 1736879965,
  "chain": 11155111,
  "commit": "51a374b"
}