{
  "transactions": [
    {
      "hash": "0xbd08fba8e95789dbde6f93dcd31f44684c657f6b0206d4d3d54ea40529e15128",
      "transactionType": "CALL",
      "contractName": null,
      "contractAddress": "0xd7bc75898e513accccf720a874d44dab5a4b6223",
      "function": "sell(uint256)",
      "arguments": [
        "9929991618774402806"
      ],
      "transaction": {
        "from": "0xc77f7fed3b5cc8249adc428c5f44c9063b9734b4",
        "to": "0xd7bc75898e513accccf720a874d44dab5a4b6223",
        "gas": "0x15b6b",
        "value": "0x0",
        "input": "0xe4849b3200000000000000000000000000000000000000000000000089ce6ac413a786f6",
        "nonce": "0xef",
        "chainId": "0xaa36a7"
      },
      "additionalContracts": [],
      "isFixedGasLimit": false
    }
  ],
  "receipts": [
    {
      "status": "0x1",
      "cumulativeGasUsed": "0xfba505",
      "logs": [
        {
          "address": "0xd7bc75898e513accccf720a874d44dab5a4b6223",
          "topics": [
            "0xddf252ad1be2c89b69c2b068fc378daa952ba7f163c4a11628f55a4df523b3ef",
            "0x000000000000000000000000c77f7fed3b5cc8249adc428c5f44c9063b9734b4",
            "0x0000000000000000000000000000000000000000000000000000000000000000"
          ],
          "data": "0x00000000000000000000000000000000000000000000000089ce6ac413a786f6",
          "blockHash": "0xe0ac8c6912dbeaa4999f83acea003de61092a6dde6749a9cf4ef31ddf5c728aa",
          "blockNumber": "0x72397a",
          "transactionHash": "0xbd08fba8e95789dbde6f93dcd31f44684c657f6b0206d4d3d54ea40529e15128",
          "transactionIndex": "0x48",
          "logIndex": "0xcb",
          "removed": false
        },
        {
          "address": "0xd7bc75898e513accccf720a874d44dab5a4b6223",
          "topics": [
            "0x4afcb4a87cdbd9974efdb92ee48bc8d7cd0ae4bf217004db3d080cbaee652ca7"
          ],
          "data": "0x000000000000000000000000000000000000000000000000000000006785a30000000000000000000000000000000000000000000000000000038d7f8b87fcb20000000000000000000000000000000000000000000000000023474f493d2797",
          "blockHash": "0xe0ac8c6912dbeaa4999f83acea003de61092a6dde6749a9cf4ef31ddf5c728aa",
          "blockNumber": "0x72397a",
          "transactionHash": "0xbd08fba8e95789dbde6f93dcd31f44684c657f6b0206d4d3d54ea40529e15128",
          "transactionIndex": "0x48",
          "logIndex": "0xcc",
          "removed": false
        }
      ],
      "logsBloom": "0x00000000000000000000000000000000000000000000000000000000000000000000000000000000000000000000000000000000000000004000000000000000000000000000000000000008000000000000000000000000000000000000000000000000020000000000000000000800020000000000000000000010000000000000000000000000000000000000000000000000000000000000010000000000000000000000000000000000000000004000001000000000000000000000000000000002000000800000000000004000000000000000080000000000000020000000000000000000000000000000000000000000080000000000000000000000",
      "type": "0x2",
      "transactionHash": "0xbd08fba8e95789dbde6f93dcd31f44684c657f6b0206d4d3d54ea40529e15128",
      "transactionIndex": "0x48",
      "blockHash": "0xe0ac8c6912dbeaa4999f83acea003de61092a6dde6749a9cf4ef31ddf5c728aa",
      "blockNumber": "0x72397a",
      "gasUsed": "0xfb87",
      "effectiveGasPrice": "0x6e9d090f",
      "from": "0xc77f7fed3b5cc8249adc428c5f44c9063b9734b4",
      "to": "0xd7bc75898e513accccf720a874d44dab5a4b6223",
      "contractAddress": null
    }
  ],
  "libraries": [],
  "pending": [],
  "returns": {},
  "timestamp": 1736811264,
  "chain": 11155111,
  "commit": "51a374b"
}