{
  "transactions": [
    {
      "hash": "0x4db75ee815eddcfe12984648e6960bd0f6e34d0456746d41236ad0f07d09c39f",
      "transactionType": "CALL",
      "contractName": null,
      "contractAddress": "0x8aafd3ede9adb0ff97c7aebce82a919afb1c8764",
      "function": "buy(address)",
      "arguments": [
        "0xC77f7fed3b5Cc8249aDc428c5F44C9063B9734b4"
      ],
      "transaction": {
        "from": "0xc77f7fed3b5cc8249adc428c5f44c9063b9734b4",
        "to": "0x8aafd3ede9adb0ff97c7aebce82a919afb1c8764",
        "gas": "0x156ea",
        "value": "0xde0b6b3a7640000",
        "input": "0xf088d547000000000000000000000000c77f7fed3b5cc8249adc428c5f44c9063b9734b4",
        "nonce": "0x1252",
        "chainId": "0xaa36a7"
      },
      "additionalContracts": [],
      "isFixedGasLimit": false
    }
  ],
  "receipts": [
    {
      "status": "0x1",
      "cumulativeGasUsed": "0xb7a278",
      "logs": [
        {
          "address": "0x8aafd3ede9adb0ff97c7aebce82a919afb1c8764",
          "topics": [
            "0xddf252ad1be2c89b69c2b068fc378daa952ba7f163c4a11628f55a4df523b3ef",
            "0x0000000000000000000000000000000000000000000000000000000000000000",
            "0x000000000000000000000000c77f7fed3b5cc8249adc428c5f44c9063b9734b4"
          ],
          "data": "0x0000000000000000000000000000000000000000000000246c51b61c19b57f5f",
          "blockHash": "0x527863edb1dfb8983ee4bab7fe10c62abd1292f9a4400c7b9eee2c51d3d7718f",
          "blockNumber": "0x731936",
          "transactionHash": "0x4db75ee815eddcfe12984648e6960bd0f6e34d0456746d41236ad0f07d09c39f",
          "transactionIndex": "0x7f",
          "logIndex": "0x84",
          "removed": false
        },
        {
          "address": "0x8aafd3ede9adb0ff97c7aebce82a919afb1c8764",
          "topics": [
            "0xddf252ad1be2c89b69c2b068fc378daa952ba7f163c4a11628f55a4df523b3ef",
            "0x0000000000000000000000000000000000000000000000000000000000000000",
            "0x000000000000000000000000c77f7fed3b5cc8249adc428c5f44c9063b9734b4"
          ],
          "data": "0x0000000000000000000000000000000000000000000000001c48a6e2d152a74b",
          "blockHash": "0x527863edb1dfb8983ee4bab7fe10c62abd1292f9a4400c7b9eee2c51d3d7718f",
          "blockNumber": "0x731936",
          "transactionHash": "0x4db75ee815eddcfe12984648e6960bd0f6e34d0456746d41236ad0f07d09c39f",
          "transactionIndex": "0x7f",
          "logIndex": "0x85",
          "removed": false
        },
        {
          "address": "0x8aafd3ede9adb0ff97c7aebce82a919afb1c8764",
          "topics": [
            "0x4afcb4a87cdbd9974efdb92ee48bc8d7cd0ae4bf217004db3d080cbaee652ca7"
          ],
          "data": "0x0000000000000000000000000000000000000000000000000000000067902b5800000000000000000000000000000000000000000000000000053c839fe4115e0000000000000000000000000000000000000000000000000de0b6b3a7640000",
          "blockHash": "0x527863edb1dfb8983ee4bab7fe10c62abd1292f9a4400c7b9eee2c51d3d7718f",
          "blockNumber": "0x731936",
          "transactionHash": "0x4db75ee815eddcfe12984648e6960bd0f6e34d0456746d41236ad0f07d09c39f",
          "transactionIndex": "0x7f",
          "logIndex": "0x86",
          "removed": false
        }
      ],
      "logsBloom": "0x00000000000000000000000000000000000000000600000000000000000000000000000000000000000000000000000000000000000000004000000000000000000000000000004000000008000000000000000000000000000000000000000000000000020000000000000000000800020000000000000000000010000000000000000000000000000000000000000000000000000000000000010000000000000000000000000000000000000000004000000000000000000000000000000000000002000000800000000000000000000000000000080000000000000020000000000000000000000000000000000000000000000000000000000000000000",
      "type": "0x2",
      "transactionHash": "0x4db75ee815eddcfe12984648e6960bd0f6e34d0456746d41236ad0f07d09c39f",
      "transactionIndex": "0x7f",
      "blockHash": "0x527863edb1dfb8983ee4bab7fe10c62abd1292f9a4400c7b9eee2c51d3d7718f",
      "blockNumber": "0x731936",
      "gasUsed": "0xf844",
      "effectiveGasPrice": "0x3d1ac0d4",
      "from": "0xc77f7fed3b5cc8249adc428c5f44c9063b9734b4",
      "to": "0x8aafd3ede9adb0ff97c7aebce82a919afb1c8764",
      "contractAddress": null
    }
  ],
  "libraries": [],
  "pending": [],
  "returns": {},
  "timestamp": 1737501530,
  "chain": 11155111,
  "commit": "1d2fb70"
}