{
  "transactions": [
    {
      "hash": "0x56c15882ce4b31913409b76787b604010370ccdbb9e7a1237bf4b5862c3b651b",
      "transactionType": "CALL",
      "contractName": null,
      "contractAddress": "0x270e88f8683660553e8ba4eb2ad7c91a1710d769",
      "function": "buy(address)",
      "arguments": [
        "0xC77f7fed3b5Cc8249aDc428c5F44C9063B9734b4"
      ],
      "transaction": {
        "from": "0xc77f7fed3b5cc8249adc428c5f44c9063b9734b4",
        "to": "0x270e88f8683660553e8ba4eb2ad7c91a1710d769",
        "gas": "0x1b30c",
        "value": "0xde0b6b3a7640000",
        "input": "0xf088d547000000000000000000000000c77f7fed3b5cc8249adc428c5f44c9063b9734b4",
        "nonce": "0x883",
        "chainId": "0xaa36a7"
      },
      "additionalContracts": [],
      "isFixedGasLimit": false
    }
  ],
  "receipts": [
    {
      "status": "0x1",
      "cumulativeGasUsed": "0xc6a0f5",
      "logs": [
        {
          "address": "0x270e88f8683660553e8ba4eb2ad7c91a1710d769",
          "topics": [
            "0xddf252ad1be2c89b69c2b068fc378daa952ba7f163c4a11628f55a4df523b3ef",
            "0x0000000000000000000000000000000000000000000000000000000000000000",
            "0x000000000000000000000000c77f7fed3b5cc8249adc428c5f44c9063b9734b4"
          ],
          "data": "0x00000000000000000000000000000000000000000000002679d2c3209420ad91",
          "blockHash": "0x394cde117317088e846abb4fb87120f51d9fd97b94361d17edca0e4e5556cc8b",
          "blockNumber": "0x7255df",
          "transactionHash": "0x56c15882ce4b31913409b76787b604010370ccdbb9e7a1237bf4b5862c3b651b",
          "transactionIndex": "0x43",
          "logIndex": "0x177",
          "removed": false
        },
        {
          "address": "0x270e88f8683660553e8ba4eb2ad7c91a1710d769",
          "topics": [
            "0xddf252ad1be2c89b69c2b068fc378daa952ba7f163c4a11628f55a4df523b3ef",
            "0x0000000000000000000000000000000000000000000000000000000000000000",
            "0x000000000000000000000000c77f7fed3b5cc8249adc428c5f44c9063b9734b4"
          ],
          "data": "0x0000000000000000000000000000000000000000000000001de0b94862e9f1d1",
          "blockHash": "0x394cde117317088e846abb4fb87120f51d9fd97b94361d17edca0e4e5556cc8b",
          "blockNumber": "0x7255df",
          "transactionHash": "0x56c15882ce4b31913409b76787b604010370ccdbb9e7a1237bf4b5862c3b651b",
          "transactionIndex": "0x43",
          "logIndex": "0x178",
          "removed": false
        },
        {
          "address": "0x270e88f8683660553e8ba4eb2ad7c91a1710d769",
          "topics": [
            "0x4afcb4a87cdbd9974efdb92ee48bc8d7cd0ae4bf217004db3d080cbaee652ca7"
          ],
          "data": "0x000000000000000000000000000000000000000000000000000000006786f87c0000000000000000000000000000000000000000000000000004f4b646cecd3a0000000000000000000000000000000000000000000000000de0b6b3a7640000",
          "blockHash": "0x394cde117317088e846abb4fb87120f51d9fd97b94361d17edca0e4e5556cc8b",
          "blockNumber": "0x7255df",
          "transactionHash": "0x56c15882ce4b31913409b76787b604010370ccdbb9e7a1237bf4b5862c3b651b",
          "transactionIndex": "0x43",
          "logIndex": "0x179",
          "removed": false
        }
      ],
      "logsBloom": "0x00000000000000000000000000000000000000000000000000000000000000000000000000000000000000000000000020000000000000004000000000000000000000000000000000000008000000000000000000000000000000000000000000000000020000000000000000000800020000000000000000000010000000000000000000010000000000000000000000000000000000000000010000000000000000000000000000000000000000004000000000000000000000000000000000000002000000800000000000000000000000000000080000008000000020000000000000000000000000000000000000000000000000000000000000000000",
      "type": "0x2",
      "transactionHash": "0x56c15882ce4b31913409b76787b604010370ccdbb9e7a1237bf4b5862c3b651b",
      "transactionIndex": "0x43",
      "blockHash": "0x394cde117317088e846abb4fb87120f51d9fd97b94361d17edca0e4e5556cc8b",
      "blockNumber": "0x7255df",
      "gasUsed": "0x13af8",
      "effectiveGasPrice": "0xc646be07",
      "from": "0xc77f7fed3b5cc8249adc428c5f44c9063b9734b4",
      "to": "0x270e88f8683660553e8ba4eb2ad7c91a1710d769",
      "contractAddress": null
    }
  ],
  "libraries": [],
  "pending": [],
  "returns": {},
  "timestamp": 1736898685,
  "chain": 11155111,
  "commit": "51a374b"
}