{
  "transactions": [
    {
      "hash": "0xa087e394a48127ec8830ca5ee43732d39829847ffc58e83c013c987c97ec047b",
      "transactionType": "CALL",
      "contractName": null,
      "contractAddress": "0x270e88f8683660553e8ba4eb2ad7c91a1710d769",
      "function": "sell(uint256)",
      "arguments": [
        "712565762377910159575"
      ],
      "transaction": {
        "from": "0xc77f7fed3b5cc8249adc428c5f44c9063b9734b4",
        "to": "0x270e88f8683660553e8ba4eb2ad7c91a1710d769",
        "gas": "0x16fec",
        "value": "0x0",
        "input": "0xe4849b32000000000000000000000000000000000000000000000026a0d6218c28bd88d7",
        "nonce": "0x87c",
        "chainId": "0xaa36a7"
      },
      "additionalContracts": [],
      "isFixedGasLimit": false
    }
  ],
  "receipts": [
    {
      "status": "0x1",
      "cumulativeGasUsed": "0x108a340",
      "logs": [
        {
          "address": "0x270e88f8683660553e8ba4eb2ad7c91a1710d769",
          "topics": [
            "0xddf252ad1be2c89b69c2b068fc378daa952ba7f163c4a11628f55a4df523b3ef",
            "0x000000000000000000000000c77f7fed3b5cc8249adc428c5f44c9063b9734b4",
            "0x0000000000000000000000000000000000000000000000000000000000000000"
          ],
          "data": "0x000000000000000000000000000000000000000000000026a0d6218c28bd88d7",
          "blockHash": "0xe7709caa8bde81918c5b40d85c6b0d65777d011fc3e3fd907282239825baf5ca",
          "blockNumber": "0x7255d6",
          "transactionHash": "0xa087e394a48127ec8830ca5ee43732d39829847ffc58e83c013c987c97ec047b",
          "transactionIndex": "0x45",
          "logIndex": "0x177",
          "removed": false
        },
        {
          "address": "0x270e88f8683660553e8ba4eb2ad7c91a1710d769",
          "topics": [
            "0x4afcb4a87cdbd9974efdb92ee48bc8d7cd0ae4bf217004db3d080cbaee652ca7"
          ],
          "data": "0x000000000000000000000000000000000000000000000000000000006786f8100000000000000000000000000000000000000000000000000004f3ba6e12d3800000000000000000000000000000000000000000000000000dc825a8cb026994",
          "blockHash": "0xe7709caa8bde81918c5b40d85c6b0d65777d011fc3e3fd907282239825baf5ca",
          "blockNumber": "0x7255d6",
          "transactionHash": "0xa087e394a48127ec8830ca5ee43732d39829847ffc58e83c013c987c97ec047b",
          "transactionIndex": "0x45",
          "logIndex": "0x178",
          "removed": false
        }
      ],
      "logsBloom": "0x00000000000000000000000000000000000000000000000000000000000000000000000000000000000000000000000020000000000000004000000000000000000000000000000000000008000000000000000000000000000000000000000000000000020000000000000000000800020000000000000000000010000000000000000000010000000000000000000000000000000000000000010000000000000000000000000000000000000000004000000000000000000000000000000000000002000000800000000000000000000000000000080000008000000020000000000000000000000000000000000000000000000000000000000000000000",
      "type": "0x2",
      "transactionHash": "0xa087e394a48127ec8830ca5ee43732d39829847ffc58e83c013c987c97ec047b",
      "transactionIndex": "0x45",
      "blockHash": "0xe7709caa8bde81918c5b40d85c6b0d65777d011fc3e3fd907282239825baf5ca",
      "blockNumber": "0x7255d6",
      "gasUsed": "0xfb93",
      "effectiveGasPrice": "0xbb509d8a",
      "from": "0xc77f7fed3b5cc8249adc428c5f44c9063b9734b4",
      "to": "0x270e88f8683660553e8ba4eb2ad7c91a1710d769",
      "contractAddress": null
    }
  ],
  "libraries": [],
  "pending": [],
  "returns": {},
  "timestamp": 1736898577,
  "chain": 11155111,
  "commit": "51a374b"
}