{
  "transactions": [
    {
      "hash": "0xae1a0e88dcc2e9070921234eafd1ff431e4b7c5903437fa60f07b7483acbf5d3",
      "transactionType": "CALL",
      "contractName": null,
      "contractAddress": "0x8aafd3ede9adb0ff97c7aebce82a919afb1c8764",
      "function": "sell(uint256)",
      "arguments": [
        "11233"
      ],
      "transaction": {
        "from": "0xc77f7fed3b5cc8249adc428c5f44c9063b9734b4",
        "to": "0x8aafd3ede9adb0ff97c7aebce82a919afb1c8764",
        "gas": "0x14e4c",
        "value": "0x0",
        "input": "0xe4849b320000000000000000000000000000000000000000000000000000000000002be1",
        "nonce": "0x1297",
        "chainId": "0xaa36a7"
      },
      "additionalContracts": [],
      "isFixedGasLimit": false
    }
  ],
  "receipts": [
    {
      "status": "0x1",
      "cumulativeGasUsed": "0x211fc57",
      "logs": [
        {
          "address": "0x8aafd3ede9adb0ff97c7aebce82a919afb1c8764",
          "topics": [
            "0xddf252ad1be2c89b69c2b068fc378daa952ba7f163c4a11628f55a4df523b3ef",
            "0x000000000000000000000000c77f7fed3b5cc8249adc428c5f44c9063b9734b4",
            "0x0000000000000000000000000000000000000000000000000000000000000000"
          ],
          "data": "0x0000000000000000000000000000000000000000000000000000000000002b88",
          "blockHash": "0xadcf3ff14f59280c32599c605e0b3147712ec985842b71ad5a7204b6c34a3586",
          "blockNumber": "0x731988",
          "transactionHash": "0xae1a0e88dcc2e9070921234eafd1ff431e4b7c5903437fa60f07b7483acbf5d3",
          "transactionIndex": "0x39",
          "logIndex": "0x1101",
          "removed": false
        },
        {
          "address": "0x8aafd3ede9adb0ff97c7aebce82a919afb1c8764",
          "topics": [
            "0xddf252ad1be2c89b69c2b068fc378daa952ba7f163c4a11628f55a4df523b3ef",
            "0x000000000000000000000000c77f7fed3b5cc8249adc428c5f44c9063b9734b4",
            "0x000000000000000000000000c77f7fed3b5cc8249adc428c5f44c9063b9734b4"
          ],
          "data": "0x0000000000000000000000000000000000000000000000000000000000000059",
          "blockHash": "0xadcf3ff14f59280c32599c605e0b3147712ec985842b71ad5a7204b6c34a3586",
          "blockNumber": "0x731988",
          "transactionHash": "0xae1a0e88dcc2e9070921234eafd1ff431e4b7c5903437fa60f07b7483acbf5d3",
          "transactionIndex": "0x39",
          "logIndex": "0x1102",
          "removed": false
        },
        {
          "address": "0x8aafd3ede9adb0ff97c7aebce82a919afb1c8764",
          "topics": [
            "0x4afcb4a87cdbd9974efdb92ee48bc8d7cd0ae4bf217004db3d080cbaee652ca7"
          ],
          "data": "0x0000000000000000000000000000000000000000000000000000000067902f3000000000000000000000000000000000000000000000000000054646dddfdbbd0000000000000000000000000000000000000000000000000000000000000010",
          "blockHash": "0xadcf3ff14f59280c32599c605e0b3147712ec985842b71ad5a7204b6c34a3586",
          "blockNumber": "0x731988",
          "transactionHash": "0xae1a0e88dcc2e9070921234eafd1ff431e4b7c5903437fa60f07b7483acbf5d3",
          "transactionIndex": "0x39",
          "logIndex": "0x1103",
          "removed": false
        }
      ],
      "logsBloom": "0x00000000000000000000000000000000000000000600000000000000000000000000000000000000000000000000000000000000000000004000000000000000000000000000004000000008000000000000000000000000000000000000000000000000020000000000000000000800020000000000000000000010000000000000000000000000000000000000000000000000000000000000010000000000000000000000000000000000000000004000000000000000000000000000000000000002000000800000000000000000000000000000080000000000000020000000000000000000000000000000000000000000000000000000000000000000",
      "type": "0x2",
      "transactionHash": "0xae1a0e88dcc2e9070921234eafd1ff431e4b7c5903437fa60f07b7483acbf5d3",
      "transactionIndex": "0x39",
      "blockHash": "0xadcf3ff14f59280c32599c605e0b3147712ec985842b71ad5a7204b6c34a3586",
      "blockNumber": "0x731988",
      "gasUsed": "0xf207",
      "effectiveGasPrice": "0x34e61d01",
      "from": "0xc77f7fed3b5cc8249adc428c5f44c9063b9734b4",
      "to": "0x8aafd3ede9adb0ff97c7aebce82a919afb1c8764",
      "contractAddress": null
    }
  ],
  "libraries": [],
  "pending": [],
  "returns": {},
  "timestamp": 1737502514,
  "chain": 11155111,
  "commit": "1d2fb70"
}