{
  "transactions": [
    {
      "hash": "0xd4a1b56d3ecb4c39074841e676eb402ea26a6945aa5b94657bb596a26ad20251",
      "transactionType": "CALL",
      "contractName": null,
      "contractAddress": "0x8aafd3ede9adb0ff97c7aebce82a919afb1c8764",
      "function": "sell(uint256)",
      "arguments": [
        "665268406743106825718"
      ],
      "transaction": {
        "from": "0xc77f7fed3b5cc8249adc428c5f44c9063b9734b4",
        "to": "0x8aafd3ede9adb0ff97c7aebce82a919afb1c8764",
        "gas": "0x17270",
        "value": "0x0",
        "input": "0xe4849b3200000000000000000000000000000000000000000000002410742b3094f7adf6",
        "nonce": "0x12cb",
        "chainId": "0xaa36a7"
      },
      "additionalContracts": [],
      "isFixedGasLimit": false
    }
  ],
  "receipts": [
    {
      "status": "0x1",
      "cumulativeGasUsed": "0x8fcc72",
      "logs": [
        {
          "address": "0x8aafd3ede9adb0ff97c7aebce82a919afb1c8764",
          "topics": [
            "0xddf252ad1be2c89b69c2b068fc378daa952ba7f163c4a11628f55a4df523b3ef",
            "0x000000000000000000000000c77f7fed3b5cc8249adc428c5f44c9063b9734b4",
            "0x0000000000000000000000000000000000000000000000000000000000000000"
          ],
          "data": "0x000000000000000000000000000000000000000000000023c6981a75d34385a9",
          "blockHash": "0x414a9b13f549ef6ab4898eddd0f268fabe088e0cf36f124f164a3e8762d7b7a1",
          "blockNumber": "0x7319c8",
          "transactionHash": "0xd4a1b56d3ecb4c39074841e676eb402ea26a6945aa5b94657bb596a26ad20251",
          "transactionIndex": "0x6e",
          "logIndex": "0xa9",
          "removed": false
        },
        {
          "address": "0x8aafd3ede9adb0ff97c7aebce82a919afb1c8764",
          "topics": [
            "0xddf252ad1be2c89b69c2b068fc378daa952ba7f163c4a11628f55a4df523b3ef",
            "0x000000000000000000000000c77f7fed3b5cc8249adc428c5f44c9063b9734b4",
            "0x000000000000000000000000c77f7fed3b5cc8249adc428c5f44c9063b9734b4"
          ],
          "data": "0x00000000000000000000000000000000000000000000000049dc10bac1b4284d",
          "blockHash": "0x414a9b13f549ef6ab4898eddd0f268fabe088e0cf36f124f164a3e8762d7b7a1",
          "blockNumber": "0x7319c8",
          "transactionHash": "0xd4a1b56d3ecb4c39074841e676eb402ea26a6945aa5b94657bb596a26ad20251",
          "transactionIndex": "0x6e",
          "logIndex": "0xaa",
          "removed": false
        },
        {
          "address": "0x8aafd3ede9adb0ff97c7aebce82a919afb1c8764",
          "topics": [
            "0x4afcb4a87cdbd9974efdb92ee48bc8d7cd0ae4bf217004db3d080cbaee652ca7"
          ],
          "data": "0x000000000000000000000000000000000000000000000000000000006790323000000000000000000000000000000000000000000000000000054efd24dbb4660000000000000000000000000000000000000000000000000dc8ec09acecc07c",
          "blockHash": "0x414a9b13f549ef6ab4898eddd0f268fabe088e0cf36f124f164a3e8762d7b7a1",
          "blockNumber": "0x7319c8",
          "transactionHash": "0xd4a1b56d3ecb4c39074841e676eb402ea26a6945aa5b94657bb596a26ad20251",
          "transactionIndex": "0x6e",
          "logIndex": "0xab",
          "removed": false
        }
      ],
      "logsBloom": "0x00000000000000000000000000000000000000000600000000000000000000000000000000000000000000000000000000000000000000004000000000000000000000000000004000000008000000000000000000000000000000000000000000000000020000000000000000000800020000000000000000000010000000000000000000000000000000000000000000000000000000000000010000000000000000000000000000000000000000004000000000000000000000000000000000000002000000800000000000000000000000000000080000000000000020000000000000000000000000000000000000000000000000000000000000000000",
      "type": "0x2",
      "transactionHash": "0xd4a1b56d3ecb4c39074841e676eb402ea26a6945aa5b94657bb596a26ad20251",
      "transactionIndex": "0x6e",
      "blockHash": "0x414a9b13f549ef6ab4898eddd0f268fabe088e0cf36f124f164a3e8762d7b7a1",
      "blockNumber": "0x7319c8",
      "gasUsed": "0xfd4b",
      "effectiveGasPrice": "0x4ebf2fd9",
      "from": "0xc77f7fed3b5cc8249adc428c5f44c9063b9734b4",
      "to": "0x8aafd3ede9adb0ff97c7aebce82a919afb1c8764",
      "contractAddress": null
    }
  ],
  "libraries": [],
  "pending": [],
  "returns": {},
  "timestamp": 1737503281,
  "chain": 11155111,
  "commit": "1d2fb70"
}