{
  "transactions": [
    {
      "hash": "0xb80b1ecd8554c3dda957aa4c04b52c0c9ddc03b4e4aff0e70f69f9036e07cac5",
      "transactionType": "CALL",
      "contractName": null,
      "contractAddress": "0x5eb9cc76c3506942c1c0ead70e877dd5e4f00cb0",
      "function": "buy(address)",
      "arguments": [
        "0xC77f7fed3b5Cc8249aDc428c5F44C9063B9734b4"
      ],
      "transaction": {
        "from": "0xc77f7fed3b5cc8249adc428c5f44c9063b9734b4",
        "to": "0x5eb9cc76c3506942c1c0ead70e877dd5e4f00cb0",
        "gas": "0x1b30c",
        "value": "0xde0b6b3a7640000",
        "input": "0xf088d547000000000000000000000000c77f7fed3b5cc8249adc428c5f44c9063b9734b4",
        "nonce": "0x3a0",
        "chainId": "0xaa36a7"
      },
      "additionalContracts": [],
      "isFixedGasLimit": false
    }
  ],
  "receipts": [
    {
      "status": "0x1",
      "cumulativeGasUsed": "0xf33571",
      "logs": [
        {
          "address": "0x5eb9cc76c3506942c1c0ead70e877dd5e4f00cb0",
          "topics": [
            "0xddf252ad1be2c89b69c2b068fc378daa952ba7f163c4a11628f55a4df523b3ef",
            "0x0000000000000000000000000000000000000000000000000000000000000000",
            "0x000000000000000000000000c77f7fed3b5cc8249adc428c5f44c9063b9734b4"
          ],
          "data": "0x000000000000000000000000000000000000000000000035753867effce9ad31",
          "blockHash": "0x3d0c026f540415c2d158c39093d8e3ac753fd252a78bb029f0937e8979b007c5",
          "blockNumber": "0x724f9c",
          "transactionHash": "0xb80b1ecd8554c3dda957aa4c04b52c0c9ddc03b4e4aff0e70f69f9036e07cac5",
          "transactionIndex": "0x67",
          "logIndex": "0x9e",
          "removed": false
        },
        {
          "address": "0x5eb9cc76c3506942c1c0ead70e877dd5e4f00cb0",
          "topics": [
            "0xddf252ad1be2c89b69c2b068fc378daa952ba7f163c4a11628f55a4df523b3ef",
            "0x0000000000000000000000000000000000000000000000000000000000000000",
            "0x000000000000000000000000c77f7fed3b5cc8249adc428c5f44c9063b9734b4"
          ],
          "data": "0x00000000000000000000000000000000000000000000000029830a572009c75b",
          "blockHash": "0x3d0c026f540415c2d158c39093d8e3ac753fd252a78bb029f0937e8979b007c5",
          "blockNumber": "0x724f9c",
          "transactionHash": "0xb80b1ecd8554c3dda957aa4c04b52c0c9ddc03b4e4aff0e70f69f9036e07cac5",
          "transactionIndex": "0x67",
          "logIndex": "0x9f",
          "removed": false
        },
        {
          "address": "0x5eb9cc76c3506942c1c0ead70e877dd5e4f00cb0",
          "topics": [
            "0x4afcb4a87cdbd9974efdb92ee48bc8d7cd0ae4bf217004db3d080cbaee652ca7"
          ],
          "data": "0x000000000000000000000000000000000000000000000000000000006786ad1000000000000000000000000000000000000000000000000000039111cf109c860000000000000000000000000000000000000000000000000de0b6b3a7640000",
          "blockHash": "0x3d0c026f540415c2d158c39093d8e3ac753fd252a78bb029f0937e8979b007c5",
          "blockNumber": "0x724f9c",
          "transactionHash": "0xb80b1ecd8554c3dda957aa4c04b52c0c9ddc03b4e4aff0e70f69f9036e07cac5",
          "transactionIndex": "0x67",
          "logIndex": "0xa0",
          "removed": false
        }
      ],
      "logsBloom": "0x00000000000000000000000000000000000000000000000000000000000000000000000000000000000000000000000000000000000000004000000000000000000000000000000000000008000000000000000000000000000000000000000000000000020000000000000004000800020000000000000000000010000000000000000000000000000000000000000000000000000000000000010000000000000000000000000000000000000000004000000000000000000000000000020000000002000000800000008000000000000000000000080000000000000020000000000000000000000000000000000000000000000000000000000000000000",
      "type": "0x2",
      "transactionHash": "0xb80b1ecd8554c3dda957aa4c04b52c0c9ddc03b4e4aff0e70f69f9036e07cac5",
      "transactionIndex": "0x67",
      "blockHash": "0x3d0c026f540415c2d158c39093d8e3ac753fd252a78bb029f0937e8979b007c5",
      "blockNumber": "0x724f9c",
      "gasUsed": "0x13af8",
      "effectiveGasPrice": "0x54c519da8",
      "from": "0xc77f7fed3b5cc8249adc428c5f44c9063b9734b4",
      "to": "0x5eb9cc76c3506942c1c0ead70e877dd5e4f00cb0",
      "contractAddress": null
    }
  ],
  "libraries": [],
  "pending": [],
  "returns": {},
  "timestamp": 1736879378,
  "chain": 11155111,
  "commit": "51a374b"
}