{
  "transactions": [
    {
      "hash": "0x714afab2a50b2dc50a3780e1ffdb68a0a99a89b0a7c03d5b025a524314e67933",
      "transactionType": "CALL",
      "contractName": null,
      "contractAddress": "0xbf4a322f1496e5c3d34a9bcdb4c60567b38c7de2",
      "function": "sell(uint256)",
      "arguments": [
        "988818595257310408407"
      ],
      "transaction": {
        "from": "0xc77f7fed3b5cc8249adc428c5f44c9063b9734b4",
        "to": "0xbf4a322f1496e5c3d34a9bcdb4c60567b38c7de2",
        "gas": "0x16fea",
        "value": "0x0",
        "input": "0xe4849b320000000000000000000000000000000000000000000000359a9d5966acbe6ed7",
        "nonce": "0x98d",
        "chainId": "0xaa36a7"
      },
      "additionalContracts": [],
      "isFixedGasLimit": false
    }
  ],
  "receipts": [
    {
      "status": "0x1",
      "cumulativeGasUsed": "0x14b8099",
      "logs": [
        {
          "address": "0xbf4a322f1496e5c3d34a9bcdb4c60567b38c7de2",
          "topics": [
            "0xddf252ad1be2c89b69c2b068fc378daa952ba7f163c4a11628f55a4df523b3ef",
            "0x000000000000000000000000c77f7fed3b5cc8249adc428c5f44c9063b9734b4",
            "0x0000000000000000000000000000000000000000000000000000000000000000"
          ],
          "data": "0x0000000000000000000000000000000000000000000000359a9d5966acbe6ed7",
          "blockHash": "0x2a010b8576aa2ded896b3497d19aff1ad2b318087306f14280e49e60baa53c04",
          "blockNumber": "0x725932",
          "transactionHash": "0x714afab2a50b2dc50a3780e1ffdb68a0a99a89b0a7c03d5b025a524314e67933",
          "transactionIndex": "0xa2",
          "logIndex": "0xe3",
          "removed": false
        },
        {
          "address": "0xbf4a322f1496e5c3d34a9bcdb4c60567b38c7de2",
          "topics": [
            "0x4afcb4a87cdbd9974efdb92ee48bc8d7cd0ae4bf217004db3d080cbaee652ca7"
          ],
          "data": "0x00000000000000000000000000000000000000000000000000000000678720840000000000000000000000000000000000000000000000000003915e6219d0e20000000000000000000000000000000000000000000000000dc7e3f691cfb65b",
          "blockHash": "0x2a010b8576aa2ded896b3497d19aff1ad2b318087306f14280e49e60baa53c04",
          "blockNumber": "0x725932",
          "transactionHash": "0x714afab2a50b2dc50a3780e1ffdb68a0a99a89b0a7c03d5b025a524314e67933",
          "transactionIndex": "0xa2",
          "logIndex": "0xe4",
          "removed": false
        }
      ],
      "logsBloom": "0x00000000000000000000000000000000000000000000000000000000000000000000000000000000000000000000000000000000000000004000000000000000000000000000000000000008000000000000001000000000000000000000000000000000020000000000000000000800020000000000000000000010000000000000000000000000000000000000000000000000000008000000010000000000000000000000000000000000000000004000000000000000000000000000000000000002000000800000000000001000000000000000080000000000000020000000000000000000000000000000000000000000000000000000000000000000",
      "type": "0x2",
      "transactionHash": "0x714afab2a50b2dc50a3780e1ffdb68a0a99a89b0a7c03d5b025a524314e67933",
      "transactionIndex": "0xa2",
      "blockHash": "0x2a010b8576aa2ded896b3497d19aff1ad2b318087306f14280e49e60baa53c04",
      "blockNumber": "0x725932",
      "gasUsed": "0xfb91",
      "effectiveGasPrice": "0x1938ba75e",
      "from": "0xc77f7fed3b5cc8249adc428c5f44c9063b9734b4",
      "to": "0xbf4a322f1496e5c3d34a9bcdb4c60567b38c7de2",
      "contractAddress": null
    }
  ],
  "libraries": [],
  "pending": [],
  "returns": {},
  "timestamp": 1736908934,
  "chain": 11155111,
  "commit": "51a374b"
}