{
  "transactions": [
    {
      "hash": "0xe8c22858654b2b4b70c68965295f3ca470350616e3a24f07ceada7f45afda194",
      "transactionType": "CALL",
      "contractName": null,
      "contractAddress": "0x8aafd3ede9adb0ff97c7aebce82a919afb1c8764",
      "function": "sell(uint256)",
      "arguments": [
        "345050147245593"
      ],
      "transaction": {
        "from": "0xc77f7fed3b5cc8249adc428c5f44c9063b9734b4",
        "to": "0x8aafd3ede9adb0ff97c7aebce82a919afb1c8764",
        "gas": "0x1724d",
        "value": "0x0",
        "input": "0xe4849b32000000000000000000000000000000000000000000000000000139d23f74ce19",
        "nonce": "0x1256",
        "chainId": "0xaa36a7"
      },
      "additionalContracts": [],
      "isFixedGasLimit": false
    }
  ],
  "receipts": [
    {
      "status": "0x1",
      "cumulativeGasUsed": "0xa7d498",
      "logs": [
        {
          "address": "0x8aafd3ede9adb0ff97c7aebce82a919afb1c8764",
          "topics": [
            "0xddf252ad1be2c89b69c2b068fc378daa952ba7f163c4a11628f55a4df523b3ef",
            "0x000000000000000000000000c77f7fed3b5cc8249adc428c5f44c9063b9734b4",
            "0x0000000000000000000000000000000000000000000000000000000000000000"
          ],
          "data": "0x0000000000000000000000000000000000000000000000000001374f8ab980ad",
          "blockHash": "0x792d2950fcdc5ee52515cdf01b44752b48ead2d727a6fb74a3184a32b1e38e0f",
          "blockNumber": "0x73193a",
          "transactionHash": "0xe8c22858654b2b4b70c68965295f3ca470350616e3a24f07ceada7f45afda194",
          "transactionIndex": "0x85",
          "logIndex": "0x9c",
          "removed": false
        },
        {
          "address": "0x8aafd3ede9adb0ff97c7aebce82a919afb1c8764",
          "topics": [
            "0xddf252ad1be2c89b69c2b068fc378daa952ba7f163c4a11628f55a4df523b3ef",
            "0x000000000000000000000000c77f7fed3b5cc8249adc428c5f44c9063b9734b4",
            "0x000000000000000000000000c77f7fed3b5cc8249adc428c5f44c9063b9734b4"
          ],
          "data": "0x00000000000000000000000000000000000000000000000000000282b4bb4d6c",
          "blockHash": "0x792d2950fcdc5ee52515cdf01b44752b48ead2d727a6fb74a3184a32b1e38e0f",
          "blockNumber": "0x73193a",
          "transactionHash": "0xe8c22858654b2b4b70c68965295f3ca470350616e3a24f07ceada7f45afda194",
          "transactionIndex": "0x85",
          "logIndex": "0x9d",
          "removed": false
        },
        {
          "address": "0x8aafd3ede9adb0ff97c7aebce82a919afb1c8764",
          "topics": [
            "0x4afcb4a87cdbd9974efdb92ee48bc8d7cd0ae4bf217004db3d080cbaee652ca7"
          ],
          "data": "0x0000000000000000000000000000000000000000000000000000000067902b8800000000000000000000000000000000000000000000000000053d8ea09d8e9a0000000000000000000000000000000000000000000000000000007680e894cf",
          "blockHash": "0x792d2950fcdc5ee52515cdf01b44752b48ead2d727a6fb74a3184a32b1e38e0f",
          "blockNumber": "0x73193a",
          "transactionHash": "0xe8c22858654b2b4b70c68965295f3ca470350616e3a24f07ceada7f45afda194",
          "transactionIndex": "0x85",
          "logIndex": "0x9e",
          "removed": false
        }
      ],
      "logsBloom": "0x00000000000000000000000000000000000000000600000000000000000000000000000000000000000000000000000000000000000000004000000000000000000000000000004000000008000000000000000000000000000000000000000000000000020000000000000000000800020000000000000000000010000000000000000000000000000000000000000000000000000000000000010000000000000000000000000000000000000000004000000000000000000000000000000000000002000000800000000000000000000000000000080000000000000020000000000000000000000000000000000000000000000000000000000000000000",
      "type": "0x2",
      "transactionHash": "0xe8c22858654b2b4b70c68965295f3ca470350616e3a24f07ceada7f45afda194",
      "transactionIndex": "0x85",
      "blockHash": "0x792d2950fcdc5ee52515cdf01b44752b48ead2d727a6fb74a3184a32b1e38e0f",
      "blockNumber": "0x73193a",
      "gasUsed": "0xfd33",
      "effectiveGasPrice": "0x3b67e8c2",
      "from": "0xc77f7fed3b5cc8249adc428c5f44c9063b9734b4",
      "to": "0x8aafd3ede9adb0ff97c7aebce82a919afb1c8764",
      "contractAddress": null
    }
  ],
  "libraries": [],
  "pending": [],
  "returns": {},
  "timestamp": 1737501577,
  "chain": 11155111,
  "commit": "1d2fb70"
}