{
  "transactions": [
    {
      "hash": "0x546e5445cf56e9d01d11c7612c4d2bbf0cfa1e7282206f78083766670fa9e4e0",
      "transactionType": "CALL",
      "contractName": null,
      "contractAddress": "0xbf4a322f1496e5c3d34a9bcdb4c60567b38c7de2",
      "function": "sell(uint256)",
      "arguments": [
        "983651428223765848294"
      ],
      "transaction": {
        "from": "0xc77f7fed3b5cc8249adc428c5f44c9063b9734b4",
        "to": "0xbf4a322f1496e5c3d34a9bcdb4c60567b38c7de2",
        "gas": "0x16fea",
        "value": "0x0",
        "input": "0xe4849b3200000000000000000000000000000000000000000000003552e7e25c633620e6",
        "nonce": "0xb09",
        "chainId": "0xaa36a7"
      },
      "additionalContracts": [],
      "isFixedGasLimit": false
    }
  ],
  "receipts": [
    {
      "status": "0x1",
      "cumulativeGasUsed": "0xcf194b",
      "logs": [
        {
          "address": "0xbf4a322f1496e5c3d34a9bcdb4c60567b38c7de2",
          "topics": [
            "0xddf252ad1be2c89b69c2b068fc378daa952ba7f163c4a11628f55a4df523b3ef",
            "0x000000000000000000000000c77f7fed3b5cc8249adc428c5f44c9063b9734b4",
            "0x0000000000000000000000000000000000000000000000000000000000000000"
          ],
          "data": "0x00000000000000000000000000000000000000000000003552e7e25c633620e6",
          "blockHash": "0x685408d506fb7e156ddf9ec6c2d5342708da4632188271e87f614409aa51ed3c",
          "blockNumber": "0x725afe",
          "transactionHash": "0x546e5445cf56e9d01d11c7612c4d2bbf0cfa1e7282206f78083766670fa9e4e0",
          "transactionIndex": "0x63",
          "logIndex": "0xa5",
          "removed": false
        },
        {
          "address": "0xbf4a322f1496e5c3d34a9bcdb4c60567b38c7de2",
          "topics": [
            "0x4afcb4a87cdbd9974efdb92ee48bc8d7cd0ae4bf217004db3d080cbaee652ca7"
          ],
          "data": "0x00000000000000000000000000000000000000000000000000000000678736440000000000000000000000000000000000000000000000000003962aa11322830000000000000000000000000000000000000000000000000dc7e3ea8e538b31",
          "blockHash": "0x685408d506fb7e156ddf9ec6c2d5342708da4632188271e87f614409aa51ed3c",
          "blockNumber": "0x725afe",
          "transactionHash": "0x546e5445cf56e9d01d11c7612c4d2bbf0cfa1e7282206f78083766670fa9e4e0",
          "transactionIndex": "0x63",
          "logIndex": "0xa6",
          "removed": false
        }
      ],
      "logsBloom": "0x00000000000000000000000000000000000000000000000000000000000000000000000000000000000000000000000000000000000000004000000000000000000000000000000000000008000000000000001000000000000000000000000000000000020000000000000000000800020000000000000000000010000000000000000000000000000000000000000000000000000008000000010000000000000000000000000000000000000000004000000000000000000000000000000000000002000000800000000000001000000000000000080000000000000020000000000000000000000000000000000000000000000000000000000000000000",
      "type": "0x2",
      "transactionHash": "0x546e5445cf56e9d01d11c7612c4d2bbf0cfa1e7282206f78083766670fa9e4e0",
      "transactionIndex": "0x63",
      "blockHash": "0x685408d506fb7e156ddf9ec6c2d5342708da4632188271e87f614409aa51ed3c",
      "blockNumber": "0x725afe",
      "gasUsed": "0xfb91",
      "effectiveGasPrice": "0x907a1527",
      "from": "0xc77f7fed3b5cc8249adc428c5f44c9063b9734b4",
      "to": "0xbf4a322f1496e5c3d34a9bcdb4c60567b38c7de2",
      "contractAddress": null
    }
  ],
  "libraries": [],
  "pending": [],
  "returns": {},
  "timestamp": 1736914502,
  "chain": 11155111,
  "commit": "51a374b"
}