{
  "transactions": [
    {
      "hash": "0xb824702bf145032c9bb50df385ef9f7ed17200edf136d1c435b03d55bf356702",
      "transactionType": "CALL",
      "contractName": null,
      "contractAddress": "0xd7bc75898e513accccf720a874d44dab5a4b6223",
      "function": "sell(uint256)",
      "arguments": [
        "9929992068335519223"
      ],
      "transaction": {
        "from": "0xc77f7fed3b5cc8249adc428c5f44c9063b9734b4",
        "to": "0xd7bc75898e513accccf720a874d44dab5a4b6223",
        "gas": "0x15b6b",
        "value": "0x0",
        "input": "0xe4849b3200000000000000000000000000000000000000000000000089ce6b2cbf95c5f7",
        "nonce": "0xd3",
        "chainId": "0xaa36a7"
      },
      "additionalContracts": [],
      "isFixedGasLimit": false
    }
  ],
  "receipts": [
    {
      "status": "0x1",
      "cumulativeGasUsed": "0x6275e9",
      "logs": [
        {
          "address": "0xd7bc75898e513accccf720a874d44dab5a4b6223",
          "topics": [
            "0xddf252ad1be2c89b69c2b068fc378daa952ba7f163c4a11628f55a4df523b3ef",
            "0x000000000000000000000000c77f7fed3b5cc8249adc428c5f44c9063b9734b4",
            "0x0000000000000000000000000000000000000000000000000000000000000000"
          ],
          "data": "0x00000000000000000000000000000000000000000000000089ce6b2cbf95c5f7",
          "blockHash": "0x6b92087d802be53a45fbd3f6108488c9bd9f793d7a48851585980ff4bf7b2150",
          "blockNumber": "0x723953",
          "transactionHash": "0xb824702bf145032c9bb50df385ef9f7ed17200edf136d1c435b03d55bf356702",
          "transactionIndex": "0x35",
          "logIndex": "0x50",
          "removed": false
        },
        {
          "address": "0xd7bc75898e513accccf720a874d44dab5a4b6223",
          "topics": [
            "0x4afcb4a87cdbd9974efdb92ee48bc8d7cd0ae4bf217004db3d080cbaee652ca7"
          ],
          "data": "0x000000000000000000000000000000000000000000000000000000006785a12c00000000000000000000000000000000000000000000000000038d7f88d52c200000000000000000000000000000000000000000000000000023474f493d2798",
          "blockHash": "0x6b92087d802be53a45fbd3f6108488c9bd9f793d7a48851585980ff4bf7b2150",
          "blockNumber": "0x723953",
          "transactionHash": "0xb824702bf145032c9bb50df385ef9f7ed17200edf136d1c435b03d55bf356702",
          "transactionIndex": "0x35",
          "logIndex": "0x51",
          "removed": false
        }
      ],
      "logsBloom": "0x00000000000000000000000000000000000000000000000000000000000000000000000000000000000000000000000000000000000000004000000000000000000000000000000000000008000000000000000000000000000000000000000000000000020000000000000000000800020000000000000000000010000000000000000000000000000000000000000000000000000000000000010000000000000000000000000000000000000000004000001000000000000000000000000000000002000000800000000000004000000000000000080000000000000020000000000000000000000000000000000000000000080000000000000000000000",
      "type": "0x2",
      "transactionHash": "0xb824702bf145032c9bb50df385ef9f7ed17200edf136d1c435b03d55bf356702",
      "transactionIndex": "0x35",
      "blockHash": "0x6b92087d802be53a45fbd3f6108488c9bd9f793d7a48851585980ff4bf7b2150",
      "blockNumber": "0x723953",
      "gasUsed": "0xfb87",
      "effectiveGasPrice": "0x217be5f8",
      "from": "0xc77f7fed3b5cc8249adc428c5f44c9063b9734b4",
      "to": "0xd7bc75898e513accccf720a874d44dab5a4b6223",
      "contractAddress": null
    }
  ],
  "libraries": [],
  "pending": [],
  "returns": {},
  "timestamp": 1736810796,
  "chain": 11155111,
  "commit": "51a374b"
}