{
  "transactions": [
    {
      "hash": "0x5c749d08cd40b48b0d4ffaf031cfef1544250f64a3ec2737e7b70707cf8bd6b6",
      "transactionType": "CALL",
      "contractName": null,
      "contractAddress": "0x8aafd3ede9adb0ff97c7aebce82a919afb1c8764",
      "function": "sell(uint256)",
      "arguments": [
        "1878115286015828"
      ],
      "transaction": {
        "from": "0xc77f7fed3b5cc8249adc428c5f44c9063b9734b4",
        "to": "0x8aafd3ede9adb0ff97c7aebce82a919afb1c8764",
        "gas": "0x1724d",
        "value": "0x0",
        "input": "0xe4849b320000000000000000000000000000000000000000000000000006ac22ca785f54",
        "nonce": "0xe45",
        "chainId": "0xaa36a7"
      },
      "additionalContracts": [],
      "isFixedGasLimit": false
    }
  ],
  "receipts": [
    {
      "status": "0x1",
      "cumulativeGasUsed": "0x111bca5",
      "logs": [
        {
          "address": "0x8aafd3ede9adb0ff97c7aebce82a919afb1c8764",
          "topics": [
            "0xddf252ad1be2c89b69c2b068fc378daa952ba7f163c4a11628f55a4df523b3ef",
            "0x000000000000000000000000c77f7fed3b5cc8249adc428c5f44c9063b9734b4",
            "0x0000000000000000000000000000000000000000000000000000000000000000"
          ],
          "data": "0x00000000000000000000000000000000000000000000000000069e7887507f56",
          "blockHash": "0x2e5affcd8f032d186b94bcadd205e45debea9f5878c3976ad8b31b62ef74c067",
          "blockNumber": "0x731384",
          "transactionHash": "0x5c749d08cd40b48b0d4ffaf031cfef1544250f64a3ec2737e7b70707cf8bd6b6",
          "transactionIndex": "0xa5",
          "logIndex": "0xcd",
          "removed": false
        },
        {
          "address": "0x8aafd3ede9adb0ff97c7aebce82a919afb1c8764",
          "topics": [
            "0xddf252ad1be2c89b69c2b068fc378daa952ba7f163c4a11628f55a4df523b3ef",
            "0x000000000000000000000000c77f7fed3b5cc8249adc428c5f44c9063b9734b4",
            "0x000000000000000000000000c77f7fed3b5cc8249adc428c5f44c9063b9734b4"
          ],
          "data": "0x00000000000000000000000000000000000000000000000000000daa4327dffe",
          "blockHash": "0x2e5affcd8f032d186b94bcadd205e45debea9f5878c3976ad8b31b62ef74c067",
          "blockNumber": "0x731384",
          "transactionHash": "0x5c749d08cd40b48b0d4ffaf031cfef1544250f64a3ec2737e7b70707cf8bd6b6",
          "transactionIndex": "0xa5",
          "logIndex": "0xce",
          "removed": false
        },
        {
          "address": "0x8aafd3ede9adb0ff97c7aebce82a919afb1c8764",
          "topics": [
            "0x4afcb4a87cdbd9974efdb92ee48bc8d7cd0ae4bf217004db3d080cbaee652ca7"
          ],
          "data": "0x00000000000000000000000000000000000000000000000000000000678fe6c40000000000000000000000000000000000000000000000000004b3a05822871b00000000000000000000000000000000000000000000000000000242b3577279",
          "blockHash": "0x2e5affcd8f032d186b94bcadd205e45debea9f5878c3976ad8b31b62ef74c067",
          "blockNumber": "0x731384",
          "transactionHash": "0x5c749d08cd40b48b0d4ffaf031cfef1544250f64a3ec2737e7b70707cf8bd6b6",
          "transactionIndex": "0xa5",
          "logIndex": "0xcf",
          "removed": false
        }
      ],
      "logsBloom": "0x00000000000000000000000000000000000000000600000000000000000000000000000000000000000000000000000000000000000000004000000000000000000000000000004000000008000000000000000000000000000000000000000000000000020000000000000000000800020000000000000000000010000000000000000000000000000000000000000000000000000000000000010000000000000000000000000000000000000000004000000000000000000000000000000000000002000000800000000000000000000000000000080000000000000020000000000000000000000000000000000000000000000000000000000000000000",
      "type": "0x2",
      "transactionHash": "0x5c749d08cd40b48b0d4ffaf031cfef1544250f64a3ec2737e7b70707cf8bd6b6",
      "transactionIndex": "0xa5",
      "blockHash": "0x2e5affcd8f032d186b94bcadd205e45debea9f5878c3976ad8b31b62ef74c067",
      "blockNumber": "0x731384",
      "gasUsed": "0xfd33",
      "effectiveGasPrice": "0x74fcc248",
      "from": "0xc77f7fed3b5cc8249adc428c5f44c9063b9734b4",
      "to": "0x8aafd3ede9adb0ff97c7aebce82a919afb1c8764",
      "contractAddress": null
    }
  ],
  "libraries": [],
  "pending": [],
  "returns": {},
  "timestamp": 1737483974,
  "chain": 11155111,
  "commit": "51a374b"
}