{
  "transactions": [
    {
      "hash": "0x0db7484559ba6758eb09f93c4fb9aedae6fbad40a813db3353ba7f1df8a91086",
      "transactionType": "CALL",
      "contractName": null,
      "contractAddress": "0x8aafd3ede9adb0ff97c7aebce82a919afb1c8764",
      "function": "sell(uint256)",
      "arguments": [
        "54737062"
      ],
      "transaction": {
        "from": "0xc77f7fed3b5cc8249adc428c5f44c9063b9734b4",
        "to": "0x8aafd3ede9adb0ff97c7aebce82a919afb1c8764",
        "gas": "0x15d88",
        "value": "0x0",
        "input": "0xe4849b3200000000000000000000000000000000000000000000000000000000034338a6",
        "nonce": "0x14fc",
        "chainId": "0xaa36a7"
      },
      "additionalContracts": [],
      "isFixedGasLimit": false
    }
  ],
  "receipts": [
    {
      "status": "0x1",
      "cumulativeGasUsed": "0xed234e",
      "logs": [
        {
          "address": "0x8aafd3ede9adb0ff97c7aebce82a919afb1c8764",
          "topics": [
            "0xddf252ad1be2c89b69c2b068fc378daa952ba7f163c4a11628f55a4df523b3ef",
            "0x000000000000000000000000c77f7fed3b5cc8249adc428c5f44c9063b9734b4",
            "0x0000000000000000000000000000000000000000000000000000000000000000"
          ],
          "data": "0x00000000000000000000000000000000000000000000000000000000033c8a1e",
          "blockHash": "0x551d9f651ae7ece8ed602cb02149b7ee800ff415f434fd6ab202ea0afed8ac76",
          "blockNumber": "0x731c5e",
          "transactionHash": "0x0db7484559ba6758eb09f93c4fb9aedae6fbad40a813db3353ba7f1df8a91086",
          "transactionIndex": "0xad",
          "logIndex": "0xea",
          "removed": false
        },
        {
          "address": "0x8aafd3ede9adb0ff97c7aebce82a919afb1c8764",
          "topics": [
            "0xddf252ad1be2c89b69c2b068fc378daa952ba7f163c4a11628f55a4df523b3ef",
            "0x000000000000000000000000c77f7fed3b5cc8249adc428c5f44c9063b9734b4",
            "0x000000000000000000000000c77f7fed3b5cc8249adc428c5f44c9063b9734b4"
          ],
          "data": "0x000000000000000000000000000000000000000000000000000000000006ae88",
          "blockHash": "0x551d9f651ae7ece8ed602cb02149b7ee800ff415f434fd6ab202ea0afed8ac76",
          "blockNumber": "0x731c5e",
          "transactionHash": "0x0db7484559ba6758eb09f93c4fb9aedae6fbad40a813db3353ba7f1df8a91086",
          "transactionIndex": "0xad",
          "logIndex": "0xeb",
          "removed": false
        },
        {
          "address": "0x8aafd3ede9adb0ff97c7aebce82a919afb1c8764",
          "topics": [
            "0x4afcb4a87cdbd9974efdb92ee48bc8d7cd0ae4bf217004db3d080cbaee652ca7"
          ],
          "data": "0x00000000000000000000000000000000000000000000000000000000679051440000000000000000000000000000000000000000000000000010ffc47481da39000000000000000000000000000000000000000000000000000000000003ff12",
          "blockHash": "0x551d9f651ae7ece8ed602cb02149b7ee800ff415f434fd6ab202ea0afed8ac76",
          "blockNumber": "0x731c5e",
          "transactionHash": "0x0db7484559ba6758eb09f93c4fb9aedae6fbad40a813db3353ba7f1df8a91086",
          "transactionIndex": "0xad",
          "logIndex": "0xec",
          "removed": false
        }
      ],
      "logsBloom": "0x00000000000000000000000000000000000000000600000000000000000000000000000000000000000000000000000000000000000000004000000000000000000000000000004000000008000000000000000000000000000000000000000000000000020000000000000000000800020000000000000000000010000000000000000000000000000000000000000000000000000000000000010000000000000000000000000000000000000000004000000000000000000000000000000000000002000000800000000000000000000000000000080000000000000020000000000000000000000000000000000000000000000000000000000000000000",
      "type": "0x2",
      "transactionHash": "0x0db7484559ba6758eb09f93c4fb9aedae6fbad40a813db3353ba7f1df8a91086",
      "transactionIndex": "0xad",
      "blockHash": "0x551d9f651ae7ece8ed602cb02149b7ee800ff415f434fd6ab202ea0afed8ac76",
      "blockNumber": "0x731c5e",
      "gasUsed": "0xfd0f",
      "effectiveGasPrice": "0x16b98c26f",
      "from": "0xc77f7fed3b5cc8249adc428c5f44c9063b9734b4",
      "to": "0x8aafd3ede9adb0ff97c7aebce82a919afb1c8764",
      "contractAddress": null
    }
  ],
  "libraries": [],
  "pending": [],
  "returns": {},
  "timestamp": 1737511237,
  "chain": 11155111,
  "commit": "1d2fb70"
}