{
  "transactions": [
    {
      "hash": "0xc77abaff49b10977cf5f8864d84d7c68e6d9b8f2b9f860d250ab3ca96c05f2ad",
      "transactionType": "CALL",
      "contractName": null,
      "contractAddress": "0x8aafd3ede9adb0ff97c7aebce82a919afb1c8764",
      "function": "buy(address)",
      "arguments": [
        "0xC77f7fed3b5Cc8249aDc428c5F44C9063B9734b4"
      ],
      "transaction": {
        "from": "0xc77f7fed3b5cc8249adc428c5f44c9063b9734b4",
        "to": "0x8aafd3ede9adb0ff97c7aebce82a919afb1c8764",
        "gas": "0x156ea",
        "value": "0xde0b6b3a7640000",
        "input": "0xf088d547000000000000000000000000c77f7fed3b5cc8249adc428c5f44c9063b9734b4",
        "nonce": "0x1750",
        "chainId": "0xaa36a7"
      },
      "additionalContracts": [],
      "isFixedGasLimit": false
    }
  ],
  "receipts": [
    {
      "status": "0x1",
      "cumulativeGasUsed": "0xb104f8",
      "logs": [
        {
          "address": "0x8aafd3ede9adb0ff97c7aebce82a919afb1c8764",
          "topics": [
            "0xddf252ad1be2c89b69c2b068fc378daa952ba7f163c4a11628f55a4df523b3ef",
            "0x0000000000000000000000000000000000000000000000000000000000000000",
            "0x000000000000000000000000c77f7fed3b5cc8249adc428c5f44c9063b9734b4"
          ],
          "data": "0x000000000000000000000000000000000000000000000007fa14757887f795ac",
          "blockHash": "0x36368a33c00ac12f1abdc1f1986116c070a0a7e0bb9c8f680a351ca25631e977",
          "blockNumber": "0x731f1f",
          "transactionHash": "0xc77abaff49b10977cf5f8864d84d7c68e6d9b8f2b9f860d250ab3ca96c05f2ad",
          "transactionIndex": "0x5c",
          "logIndex": "0x73",
          "removed": false
        },
        {
          "address": "0x8aafd3ede9adb0ff97c7aebce82a919afb1c8764",
          "topics": [
            "0xddf252ad1be2c89b69c2b068fc378daa952ba7f163c4a11628f55a4df523b3ef",
            "0x0000000000000000000000000000000000000000000000000000000000000000",
            "0x000000000000000000000000c77f7fed3b5cc8249adc428c5f44c9063b9734b4"
          ],
          "data": "0x0000000000000000000000000000000000000000000000000631bea5610d56b0",
          "blockHash": "0x36368a33c00ac12f1abdc1f1986116c070a0a7e0bb9c8f680a351ca25631e977",
          "blockNumber": "0x731f1f",
          "transactionHash": "0xc77abaff49b10977cf5f8864d84d7c68e6d9b8f2b9f860d250ab3ca96c05f2ad",
          "transactionIndex": "0x5c",
          "logIndex": "0x74",
          "removed": false
        },
        {
          "address": "0x8aafd3ede9adb0ff97c7aebce82a919afb1c8764",
          "topics": [
            "0x4afcb4a87cdbd9974efdb92ee48bc8d7cd0ae4bf217004db3d080cbaee652ca7"
          ],
          "data": "0x000000000000000000000000000000000000000000000000000000006790725c0000000000000000000000000000000000000000000000000017edf51cba9c900000000000000000000000000000000000000000000000000de0b6b3a7640000",
          "blockHash": "0x36368a33c00ac12f1abdc1f1986116c070a0a7e0bb9c8f680a351ca25631e977",
          "blockNumber": "0x731f1f",
          "transactionHash": "0xc77abaff49b10977cf5f8864d84d7c68e6d9b8f2b9f860d250ab3ca96c05f2ad",
          "transactionIndex": "0x5c",
          "logIndex": "0x75",
          "removed": false
        }
      ],
      "logsBloom": "0x00000000000000000000000000000000000000000600000000000000000000000000000000000000000000000000000000000000000000004000000000000000000000000000004000000008000000000000000000000000000000000000000000000000020000000000000000000800020000000000000000000010000000000000000000000000000000000000000000000000000000000000010000000000000000000000000000000000000000004000000000000000000000000000000000000002000000800000000000000000000000000000080000000000000020000000000000000000000000000000000000000000000000000000000000000000",
      "type": "0x2",
      "transactionHash": "0xc77abaff49b10977cf5f8864d84d7c68e6d9b8f2b9f860d250ab3ca96c05f2ad",
      "transactionIndex": "0x5c",
      "blockHash": "0x36368a33c00ac12f1abdc1f1986116c070a0a7e0bb9c8f680a351ca25631e977",
      "blockNumber": "0x731f1f",
      "gasUsed": "0xf844",
      "effectiveGasPrice": "0x3ac0a675",
      "from": "0xc77f7fed3b5cc8249adc428c5f44c9063b9734b4",
      "to": "0x8aafd3ede9adb0ff97c7aebce82a919afb1c8764",
      "contractAddress": null
    }
  ],
  "libraries": [],
  "pending": [],
  "returns": {},
  "timestamp": 1737519709,
  "chain": 11155111,
  "commit": "1d2fb70"
}