{
  "transactions": [
    {
      "hash": "0x87dbd2d2c7a102769d2cc112e053e665f7783c3e33036833be1ab585c958bab4",
      "transactionType": "CALL",
      "contractName": null,
      "contractAddress": "0x8aafd3ede9adb0ff97c7aebce82a919afb1c8764",
      "function": "sell(uint256)",
      "arguments": [
        "3073399372901"
      ],
      "transaction": {
        "from": "0xc77f7fed3b5cc8249adc428c5f44c9063b9734b4",
        "to": "0x8aafd3ede9adb0ff97c7aebce82a919afb1c8764",
        "gas": "0x15daa",
        "value": "0x0",
        "input": "0xe4849b32000000000000000000000000000000000000000000000000000002cb94e0bc65",
        "nonce": "0xe50",
        "chainId": "0xaa36a7"
      },
      "additionalContracts": [],
      "isFixedGasLimit": false
    }
  ],
  "receipts": [
    {
      "status": "0x1",
      "cumulativeGasUsed": "0xd7f301",
      "logs": [
        {
          "address": "0x8aafd3ede9adb0ff97c7aebce82a919afb1c8764",
          "topics": [
            "0xddf252ad1be2c89b69c2b068fc378daa952ba7f163c4a11628f55a4df523b3ef",
            "0x000000000000000000000000c77f7fed3b5cc8249adc428c5f44c9063b9734b4",
            "0x0000000000000000000000000000000000000000000000000000000000000000"
          ],
          "data": "0x000000000000000000000000000000000000000000000000000002c5db5de9fe",
          "blockHash": "0x14cc3f8b90218b79267281b799c7f607679c34f1a5fa2abdd560c146c8f5b912",
          "blockNumber": "0x7313a2",
          "transactionHash": "0x87dbd2d2c7a102769d2cc112e053e665f7783c3e33036833be1ab585c958bab4",
          "transactionIndex": "0x90",
          "logIndex": "0xbb",
          "removed": false
        },
        {
          "address": "0x8aafd3ede9adb0ff97c7aebce82a919afb1c8764",
          "topics": [
            "0xddf252ad1be2c89b69c2b068fc378daa952ba7f163c4a11628f55a4df523b3ef",
            "0x000000000000000000000000c77f7fed3b5cc8249adc428c5f44c9063b9734b4",
            "0x000000000000000000000000c77f7fed3b5cc8249adc428c5f44c9063b9734b4"
          ],
          "data": "0x00000000000000000000000000000000000000000000000000000005b982d267",
          "blockHash": "0x14cc3f8b90218b79267281b799c7f607679c34f1a5fa2abdd560c146c8f5b912",
          "blockNumber": "0x7313a2",
          "transactionHash": "0x87dbd2d2c7a102769d2cc112e053e665f7783c3e33036833be1ab585c958bab4",
          "transactionIndex": "0x90",
          "logIndex": "0xbc",
          "removed": false
        },
        {
          "address": "0x8aafd3ede9adb0ff97c7aebce82a919afb1c8764",
          "topics": [
            "0x4afcb4a87cdbd9974efdb92ee48bc8d7cd0ae4bf217004db3d080cbaee652ca7"
          ],
          "data": "0x00000000000000000000000000000000000000000000000000000000678fe82c0000000000000000000000000000000000000000000000000004b40ac35bc48300000000000000000000000000000000000000000000000000000000f2841f54",
          "blockHash": "0x14cc3f8b90218b79267281b799c7f607679c34f1a5fa2abdd560c146c8f5b912",
          "blockNumber": "0x7313a2",
          "transactionHash": "0x87dbd2d2c7a102769d2cc112e053e665f7783c3e33036833be1ab585c958bab4",
          "transactionIndex": "0x90",
          "logIndex": "0xbd",
          "removed": false
        }
      ],
      "logsBloom": "0x00000000000000000000000000000000000000000600000000000000000000000000000000000000000000000000000000000000000000004000000000000000000000000000004000000008000000000000000000000000000000000000000000000000020000000000000000000800020000000000000000000010000000000000000000000000000000000000000000000000000000000000010000000000000000000000000000000000000000004000000000000000000000000000000000000002000000800000000000000000000000000000080000000000000020000000000000000000000000000000000000000000000000000000000000000000",
      "type": "0x2",
      "transactionHash": "0x87dbd2d2c7a102769d2cc112e053e665f7783c3e33036833be1ab585c958bab4",
      "transactionIndex": "0x90",
      "blockHash": "0x14cc3f8b90218b79267281b799c7f607679c34f1a5fa2abdd560c146c8f5b912",
      "blockNumber": "0x7313a2",
      "gasUsed": "0xfd27",
      "effectiveGasPrice": "0x7fdac65a",
      "from": "0xc77f7fed3b5cc8249adc428c5f44c9063b9734b4",
      "to": "0x8aafd3ede9adb0ff97c7aebce82a919afb1c8764",
      "contractAddress": null
    }
  ],
  "libraries": [],
  "pending": [],
  "returns": {},
  "timestamp": 1737484333,
  "chain": 11155111,
  "commit": "51a374b"
}