{
  "transactions": [
    {
      "hash": "0xd03b2dd363e8fe1e2a39566262ef749dba6311d0bea873f0d9c2fe7555bfe946",
      "transactionType": "CALL",
      "contractName": null,
      "contractAddress": "0xbf4a322f1496e5c3d34a9bcdb4c60567b38c7de2",
      "function": "buy(address)",
      "arguments": [
        "0xC77f7fed3b5Cc8249aDc428c5F44C9063B9734b4"
      ],
      "transaction": {
        "from": "0xc77f7fed3b5cc8249adc428c5f44c9063b9734b4",
        "to": "0xbf4a322f1496e5c3d34a9bcdb4c60567b38c7de2",
        "gas": "0x1b309",
        "value": "0xde0b6b3a7640000",
        "input": "0xf088d547000000000000000000000000c77f7fed3b5cc8249adc428c5f44c9063b9734b4",
        "nonce": "0x8c7",
        "chainId": "0xaa36a7"
      },
      "additionalContracts": [],
      "isFixedGasLimit": false
    }
  ],
  "receipts": [
    {
      "status": "0x1",
      "cumulativeGasUsed": "0x82d1ab",
      "logs": [
        {
          "address": "0xbf4a322f1496e5c3d34a9bcdb4c60567b38c7de2",
          "topics": [
            "0xddf252ad1be2c89b69c2b068fc378daa952ba7f163c4a11628f55a4df523b3ef",
            "0x0000000000000000000000000000000000000000000000000000000000000000",
            "0x000000000000000000000000c77f7fed3b5cc8249adc428c5f44c9063b9734b4"
          ],
          "data": "0x000000000000000000000000000000000000000000000035ab01cf2c054b82b1",
          "blockHash": "0xd16a031aa64f4dde9dbc55b981de5409dceb6098db6f90d92e28ad5c7d03abc8",
          "blockNumber": "0x725832",
          "transactionHash": "0xd03b2dd363e8fe1e2a39566262ef749dba6311d0bea873f0d9c2fe7555bfe946",
          "transactionIndex": "0x3a",
          "logIndex": "0x4e",
          "removed": false
        },
        {
          "address": "0xbf4a322f1496e5c3d34a9bcdb4c60567b38c7de2",
          "topics": [
            "0xddf252ad1be2c89b69c2b068fc378daa952ba7f163c4a11628f55a4df523b3ef",
            "0x0000000000000000000000000000000000000000000000000000000000000000",
            "0x000000000000000000000000c77f7fed3b5cc8249adc428c5f44c9063b9734b4"
          ],
          "data": "0x00000000000000000000000000000000000000000000000029accec06b3d6984",
          "blockHash": "0xd16a031aa64f4dde9dbc55b981de5409dceb6098db6f90d92e28ad5c7d03abc8",
          "blockNumber": "0x725832",
          "transactionHash": "0xd03b2dd363e8fe1e2a39566262ef749dba6311d0bea873f0d9c2fe7555bfe946",
          "transactionIndex": "0x3a",
          "logIndex": "0x4f",
          "removed": false
        },
        {
          "address": "0xbf4a322f1496e5c3d34a9bcdb4c60567b38c7de2",
          "topics": [
            "0x4afcb4a87cdbd9974efdb92ee48bc8d7cd0ae4bf217004db3d080cbaee652ca7"
          ],
          "data": "0x000000000000000000000000000000000000000000000000000000006787147800000000000000000000000000000000000000000000000000038d8167223d7b0000000000000000000000000000000000000000000000000de0b6b3a7640000",
          "blockHash": "0xd16a031aa64f4dde9dbc55b981de5409dceb6098db6f90d92e28ad5c7d03abc8",
          "blockNumber": "0x725832",
          "transactionHash": "0xd03b2dd363e8fe1e2a39566262ef749dba6311d0bea873f0d9c2fe7555bfe946",
          "transactionIndex": "0x3a",
          "logIndex": "0x50",
          "removed": false
        }
      ],
      "logsBloom": "0x00000000000000000000000000000000000000000000000000000000000000000000000000000000000000000000000000000000000000004000000000000000000000000000000000000008000000000000001000000000000000000000000000000000020000000000000000000800020000000000000000000010000000000000000000000000000000000000000000000000000008000000010000000000000000000000000000000000000000004000000000000000000000000000000000000002000000800000000000001000000000000000080000000000000020000000000000000000000000000000000000000000000000000000000000000000",
      "type": "0x2",
      "transactionHash": "0xd03b2dd363e8fe1e2a39566262ef749dba6311d0bea873f0d9c2fe7555bfe946",
      "transactionIndex": "0x3a",
      "blockHash": "0xd16a031aa64f4dde9dbc55b981de5409dceb6098db6f90d92e28ad5c7d03abc8",
      "blockNumber": "0x725832",
      "gasUsed": "0x13af6",
      "effectiveGasPrice": "0x25f56dbe",
      "from": "0xc77f7fed3b5cc8249adc428c5f44c9063b9734b4",
      "to": "0xbf4a322f1496e5c3d34a9bcdb4c60567b38c7de2",
      "contractAddress": null
    }
  ],
  "libraries": [],
  "pending": [],
  "returns": {},
  "timestamp": 1736905849,
  "chain": 11155111,
  "commit": "51a374b"
}