{
  "transactions": [
    {
      "hash": "0xf8290cbe27c1095b4373c44aac1203a5a1c187c9081d4fe3374d53dc460e12f8",
      "transactionType": "CALL",
      "contractName": null,
      "contractAddress": "0x8aafd3ede9adb0ff97c7aebce82a919afb1c8764",
      "function": "sell(uint256)",
      "arguments": [
        "9085276321807379"
      ],
      "transaction": {
        "from": "0xc77f7fed3b5cc8249adc428c5f44c9063b9734b4",
        "to": "0x8aafd3ede9adb0ff97c7aebce82a919afb1c8764",
        "gas": "0x1724d",
        "value": "0x0",
        "input": "0xe4849b3200000000000000000000000000000000000000000000000000204702bbd8fc13",
        "nonce": "0x17a4",
        "chainId": "0xaa36a7"
      },
      "additionalContracts": [],
      "isFixedGasLimit": false
    }
  ],
  "receipts": [
    {
      "status": "0x1",
      "cumulativeGasUsed": "0xae4865",
      "logs": [
        {
          "address": "0x8aafd3ede9adb0ff97c7aebce82a919afb1c8764",
          "topics": [
            "0xddf252ad1be2c89b69c2b068fc378daa952ba7f163c4a11628f55a4df523b3ef",
            "0x000000000000000000000000c77f7fed3b5cc8249adc428c5f44c9063b9734b4",
            "0x0000000000000000000000000000000000000000000000000000000000000000"
          ],
          "data": "0x000000000000000000000000000000000000000000000000002004e816813b98",
          "blockHash": "0xd0c100c8786612a9aa3df8253f8910ae1dcdf8f1854316decc3b2b300bc3e865",
          "blockNumber": "0x731f84",
          "transactionHash": "0xf8290cbe27c1095b4373c44aac1203a5a1c187c9081d4fe3374d53dc460e12f8",
          "transactionIndex": "0x7d",
          "logIndex": "0x9e",
          "removed": false
        },
        {
          "address": "0x8aafd3ede9adb0ff97c7aebce82a919afb1c8764",
          "topics": [
            "0xddf252ad1be2c89b69c2b068fc378daa952ba7f163c4a11628f55a4df523b3ef",
            "0x000000000000000000000000c77f7fed3b5cc8249adc428c5f44c9063b9734b4",
            "0x000000000000000000000000c77f7fed3b5cc8249adc428c5f44c9063b9734b4"
          ],
          "data": "0x0000000000000000000000000000000000000000000000000000421aa557c07b",
          "blockHash": "0xd0c100c8786612a9aa3df8253f8910ae1dcdf8f1854316decc3b2b300bc3e865",
          "blockNumber": "0x731f84",
          "transactionHash": "0xf8290cbe27c1095b4373c44aac1203a5a1c187c9081d4fe3374d53dc460e12f8",
          "transactionIndex": "0x7d",
          "logIndex": "0x9f",
          "removed": false
        },
        {
          "address": "0x8aafd3ede9adb0ff97c7aebce82a919afb1c8764",
          "topics": [
            "0x4afcb4a87cdbd9974efdb92ee48bc8d7cd0ae4bf217004db3d080cbaee652ca7"
          ],
          "data": "0x00000000000000000000000000000000000000000000000000000000679077180000000000000000000000000000000000000000000000000018f50088b3d7b900000000000000000000000000000000000000000000000000003a0bbc05dd53",
          "blockHash": "0xd0c100c8786612a9aa3df8253f8910ae1dcdf8f1854316decc3b2b300bc3e865",
          "blockNumber": "0x731f84",
          "transactionHash": "0xf8290cbe27c1095b4373c44aac1203a5a1c187c9081d4fe3374d53dc460e12f8",
          "transactionIndex": "0x7d",
          "logIndex": "0xa0",
          "removed": false
        }
      ],
      "logsBloom": "0x00000000000000000000000000000000000000000600000000000000000000000000000000000000000000000000000000000000000000004000000000000000000000000000004000000008000000000000000000000000000000000000000000000000020000000000000000000800020000000000000000000010000000000000000000000000000000000000000000000000000000000000010000000000000000000000000000000000000000004000000000000000000000000000000000000002000000800000000000000000000000000000080000000000000020000000000000000000000000000000000000000000000000000000000000000000",
      "type": "0x2",
      "transactionHash": "0xf8290cbe27c1095b4373c44aac1203a5a1c187c9081d4fe3374d53dc460e12f8",
      "transactionIndex": "0x7d",
      "blockHash": "0xd0c100c8786612a9aa3df8253f8910ae1dcdf8f1854316decc3b2b300bc3e865",
      "blockNumber": "0x731f84",
      "gasUsed": "0xfd33",
      "effectiveGasPrice": "0x406b44b3",
      "from": "0xc77f7fed3b5cc8249adc428c5f44c9063b9734b4",
      "to": "0x8aafd3ede9adb0ff97c7aebce82a919afb1c8764",
      "contractAddress": null
    }
  ],
  "libraries": [],
  "pending": [],
  "returns": {},
  "timestamp": 1737520921,
  "chain": 11155111,
  "commit": "1d2fb70"
}