{
  "transactions": [
    {
      "hash": "0xd97ec189161f21a944794af4b4d65f89ec5fd73303f92943878639fc27153f06",
      "transactionType": "CALL",
      "contractName": null,
      "contractAddress": "0x8aafd3ede9adb0ff97c7aebce82a919afb1c8764",
      "function": "sell(uint256)",
      "arguments": [
        "358659395761359"
      ],
      "transaction": {
        "from": "0xc77f7fed3b5cc8249adc428c5f44c9063b9734b4",
        "to": "0x8aafd3ede9adb0ff97c7aebce82a919afb1c8764",
        "gas": "0x1724d",
        "value": "0x0",
        "input": "0xe4849b3200000000000000000000000000000000000000000000000000014632e5e134cf",
        "nonce": "0x10f8",
        "chainId": "0xaa36a7"
      },
      "additionalContracts": [],
      "isFixedGasLimit": false
    }
  ],
  "receipts": [
    {
      "status": "0x1",
      "cumulativeGasUsed": "0x102774d",
      "logs": [
        {
          "address": "0x8aafd3ede9adb0ff97c7aebce82a919afb1c8764",
          "topics": [
            "0xddf252ad1be2c89b69c2b068fc378daa952ba7f163c4a11628f55a4df523b3ef",
            "0x000000000000000000000000c77f7fed3b5cc8249adc428c5f44c9063b9734b4",
            "0x0000000000000000000000000000000000000000000000000000000000000000"
          ],
          "data": "0x00000000000000000000000000000000000000000000000000014396d7c0af45",
          "blockHash": "0xa5201e7620c82938655101413cc91987f1d470796047b14d6ad3597c0c73f8b6",
          "blockNumber": "0x7317a2",
          "transactionHash": "0xd97ec189161f21a944794af4b4d65f89ec5fd73303f92943878639fc27153f06",
          "transactionIndex": "0xc3",
          "logIndex": "0x101",
          "removed": false
        },
        {
          "address": "0x8aafd3ede9adb0ff97c7aebce82a919afb1c8764",
          "topics": [
            "0xddf252ad1be2c89b69c2b068fc378daa952ba7f163c4a11628f55a4df523b3ef",
            "0x000000000000000000000000c77f7fed3b5cc8249adc428c5f44c9063b9734b4",
            "0x000000000000000000000000c77f7fed3b5cc8249adc428c5f44c9063b9734b4"
          ],
          "data": "0x0000000000000000000000000000000000000000000000000000029c0e20858a",
          "blockHash": "0xa5201e7620c82938655101413cc91987f1d470796047b14d6ad3597c0c73f8b6",
          "blockNumber": "0x7317a2",
          "transactionHash": "0xd97ec189161f21a944794af4b4d65f89ec5fd73303f92943878639fc27153f06",
          "transactionIndex": "0xc3",
          "logIndex": "0x102",
          "removed": false
        },
        {
          "address": "0x8aafd3ede9adb0ff97c7aebce82a919afb1c8764",
          "topics": [
            "0x4afcb4a87cdbd9974efdb92ee48bc8d7cd0ae4bf217004db3d080cbaee652ca7"
          ],
          "data": "0x000000000000000000000000000000000000000000000000000000006790185c00000000000000000000000000000000000000000000000000050ab4dd0c502f000000000000000000000000000000000000000000000000000000768230260d",
          "blockHash": "0xa5201e7620c82938655101413cc91987f1d470796047b14d6ad3597c0c73f8b6",
          "blockNumber": "0x7317a2",
          "transactionHash": "0xd97ec189161f21a944794af4b4d65f89ec5fd73303f92943878639fc27153f06",
          "transactionIndex": "0xc3",
          "logIndex": "0x103",
          "removed": false
        }
      ],
      "logsBloom": "0x00000000000000000000000000000000000000000600000000000000000000000000000000000000000000000000000000000000000000004000000000000000000000000000004000000008000000000000000000000000000000000000000000000000020000000000000000000800020000000000000000000010000000000000000000000000000000000000000000000000000000000000010000000000000000000000000000000000000000004000000000000000000000000000000000000002000000800000000000000000000000000000080000000000000020000000000000000000000000000000000000000000000000000000000000000000",
      "type": "0x2",
      "transactionHash": "0xd97ec189161f21a944794af4b4d65f89ec5fd73303f92943878639fc27153f06",
      "transactionIndex": "0xc3",
      "blockHash": "0xa5201e7620c82938655101413cc91987f1d470796047b14d6ad3597c0c73f8b6",
      "blockNumber": "0x7317a2",
      "gasUsed": "0xfd33",
      "effectiveGasPrice": "0x44070a50",
      "from": "0xc77f7fed3b5cc8249adc428c5f44c9063b9734b4",
      "to": "0x8aafd3ede9adb0ff97c7aebce82a919afb1c8764",
      "contractAddress": null
    }
  ],
  "libraries": [],
  "pending": [],
  "returns": {},
  "timestamp": 1737496669,
  "chain": 11155111,
  "commit": "1d2fb70"
}