{
  "transactions": [
    {
      "hash": "0xbf3f53fc44af18b1856c136b079a01e328ba13e69596729118a9c0cda321a059",
      "transactionType": "CALL",
      "contractName": null,
      "contractAddress": "0xbf4a322f1496e5c3d34a9bcdb4c60567b38c7de2",
      "function": "buy(address)",
      "arguments": [
        "0xC77f7fed3b5Cc8249aDc428c5F44C9063B9734b4"
      ],
      "transaction": {
        "from": "0xc77f7fed3b5cc8249adc428c5f44c9063b9734b4",
        "to": "0xbf4a322f1496e5c3d34a9bcdb4c60567b38c7de2",
        "gas": "0x1b309",
        "value": "0xde0b6b3a7640000",
        "input": "0xf088d547000000000000000000000000c77f7fed3b5cc8249adc428c5f44c9063b9734b4",
        "nonce": "0xb5c",
        "chainId": "0xaa36a7"
      },
      "additionalContracts": [],
      "isFixedGasLimit": false
    }
  ],
  "receipts": [
    {
      "status": "0x1",
      "cumulativeGasUsed": "0xbf9fc8",
      "logs": [
        {
          "address": "0xbf4a322f1496e5c3d34a9bcdb4c60567b38c7de2",
          "topics": [
            "0xddf252ad1be2c89b69c2b068fc378daa952ba7f163c4a11628f55a4df523b3ef",
            "0x0000000000000000000000000000000000000000000000000000000000000000",
            "0x000000000000000000000000c77f7fed3b5cc8249adc428c5f44c9063b9734b4"
          ],
          "data": "0x00000000000000000000000000000000000000000000003519eba1bf9e1bd561",
          "blockHash": "0x033f6b5eedb7a3ed6217d883a8a8d68e90f56c208fe436c1de3e1bf1fe4ab661",
          "blockNumber": "0x725b64",
          "transactionHash": "0xbf3f53fc44af18b1856c136b079a01e328ba13e69596729118a9c0cda321a059",
          "transactionIndex": "0x63",
          "logIndex": "0x80",
          "removed": false
        },
        {
          "address": "0xbf4a322f1496e5c3d34a9bcdb4c60567b38c7de2",
          "topics": [
            "0xddf252ad1be2c89b69c2b068fc378daa952ba7f163c4a11628f55a4df523b3ef",
            "0x0000000000000000000000000000000000000000000000000000000000000000",
            "0x000000000000000000000000c77f7fed3b5cc8249adc428c5f44c9063b9734b4"
          ],
          "data": "0x000000000000000000000000000000000000000000000000293c24957d4abb8f",
          "blockHash": "0x033f6b5eedb7a3ed6217d883a8a8d68e90f56c208fe436c1de3e1bf1fe4ab661",
          "blockNumber": "0x725b64",
          "transactionHash": "0xbf3f53fc44af18b1856c136b079a01e328ba13e69596729118a9c0cda321a059",
          "transactionIndex": "0x63",
          "logIndex": "0x81",
          "removed": false
        },
        {
          "address": "0xbf4a322f1496e5c3d34a9bcdb4c60567b38c7de2",
          "topics": [
            "0x4afcb4a87cdbd9974efdb92ee48bc8d7cd0ae4bf217004db3d080cbaee652ca7"
          ],
          "data": "0x0000000000000000000000000000000000000000000000000000000067873b0c00000000000000000000000000000000000000000000000000039736001e33aa0000000000000000000000000000000000000000000000000de0b6b3a7640000",
          "blockHash": "0x033f6b5eedb7a3ed6217d883a8a8d68e90f56c208fe436c1de3e1bf1fe4ab661",
          "blockNumber": "0x725b64",
          "transactionHash": "0xbf3f53fc44af18b1856c136b079a01e328ba13e69596729118a9c0cda321a059",
          "transactionIndex": "0x63",
          "logIndex": "0x82",
          "removed": false
        }
      ],
      "logsBloom": "0x00000000000000000000000000000000000000000000000000000000000000000000000000000000000000000000000000000000000000004000000000000000000000000000000000000008000000000000001000000000000000000000000000000000020000000000000000000800020000000000000000000010000000000000000000000000000000000000000000000000000008000000010000000000000000000000000000000000000000004000000000000000000000000000000000000002000000800000000000001000000000000000080000000000000020000000000000000000000000000000000000000000000000000000000000000000",
      "type": "0x2",
      "transactionHash": "0xbf3f53fc44af18b1856c136b079a01e328ba13e69596729118a9c0cda321a059",
      "transactionIndex": "0x63",
      "blockHash": "0x033f6b5eedb7a3ed6217d883a8a8d68e90f56c208fe436c1de3e1bf1fe4ab661",
      "blockNumber": "0x725b64",
      "gasUsed": "0x13af6",
      "effectiveGasPrice": "0x3ee2296e",
      "from": "0xc77f7fed3b5cc8249adc428c5f44c9063b9734b4",
      "to": "0xbf4a322f1496e5c3d34a9bcdb4c60567b38c7de2",
      "contractAddress": null
    }
  ],
  "libraries": [],
  "pending": [],
  "returns": {},
  "timestamp": 1736915725,
  "chain": 11155111,
  "commit": "51a374b"
}