{
  "transactions": [
    {
      "hash": "0x682dc9c7746ca57f1c824ae2805d04445b27f8704fc1456530fd80632a944c73",
      "transactionType": "CALL",
      "contractName": null,
      "contractAddress": "0x270e88f8683660553e8ba4eb2ad7c91a1710d769",
      "function": "sell(uint256)",
      "arguments": [
        "750741314100159695838"
      ],
      "transaction": {
        "from": "0xc77f7fed3b5cc8249adc428c5f44c9063b9734b4",
        "to": "0x270e88f8683660553e8ba4eb2ad7c91a1710d769",
        "gas": "0x16fec",
        "value": "0x0",
        "input": "0xe4849b32000000000000000000000000000000000000000000000028b2a0ef937df9cbde",
        "nonce": "0x6c4",
        "chainId": "0xaa36a7"
      },
      "additionalContracts": [],
      "isFixedGasLimit": false
    }
  ],
  "receipts": [
    {
      "status": "0x1",
      "cumulativeGasUsed": "0x104900b",
      "logs": [
        {
          "address": "0x270e88f8683660553e8ba4eb2ad7c91a1710d769",
          "topics": [
            "0xddf252ad1be2c89b69c2b068fc378daa952ba7f163c4a11628f55a4df523b3ef",
            "0x000000000000000000000000c77f7fed3b5cc8249adc428c5f44c9063b9734b4",
            "0x0000000000000000000000000000000000000000000000000000000000000000"
          ],
          "data": "0x000000000000000000000000000000000000000000000028b2a0ef937df9cbde",
          "blockHash": "0xded2427f04866577bd33d4f901a591b4e72517da853b5741632e2dbb3f256e89",
          "blockNumber": "0x7253d2",
          "transactionHash": "0x682dc9c7746ca57f1c824ae2805d04445b27f8704fc1456530fd80632a944c73",
          "transactionIndex": "0x57",
          "logIndex": "0x153",
          "removed": false
        },
        {
          "address": "0x270e88f8683660553e8ba4eb2ad7c91a1710d769",
          "topics": [
            "0x4afcb4a87cdbd9974efdb92ee48bc8d7cd0ae4bf217004db3d080cbaee652ca7"
          ],
          "data": "0x000000000000000000000000000000000000000000000000000000006786dfe00000000000000000000000000000000000000000000000000004b3474b57b4460000000000000000000000000000000000000000000000000dc8299c8212f268",
          "blockHash": "0xded2427f04866577bd33d4f901a591b4e72517da853b5741632e2dbb3f256e89",
          "blockNumber": "0x7253d2",
          "transactionHash": "0x682dc9c7746ca57f1c824ae2805d04445b27f8704fc1456530fd80632a944c73",
          "transactionIndex": "0x57",
          "logIndex": "0x154",
          "removed": false
        }
      ],
      "logsBloom": "0x00000000000000000000000000000000000000000000000000000000000000000000000000000000000000000000000020000000000000004000000000000000000000000000000000000008000000000000000000000000000000000000000000000000020000000000000000000800020000000000000000000010000000000000000000010000000000000000000000000000000000000000010000000000000000000000000000000000000000004000000000000000000000000000000000000002000000800000000000000000000000000000080000008000000020000000000000000000000000000000000000000000000000000000000000000000",
      "type": "0x2",
      "transactionHash": "0x682dc9c7746ca57f1c824ae2805d04445b27f8704fc1456530fd80632a944c73",
      "transactionIndex": "0x57",
      "blockHash": "0xded2427f04866577bd33d4f901a591b4e72517da853b5741632e2dbb3f256e89",
      "blockNumber": "0x7253d2",
      "gasUsed": "0xfb93",
      "effectiveGasPrice": "0x17385132b",
      "from": "0xc77f7fed3b5cc8249adc428c5f44c9063b9734b4",
      "to": "0x270e88f8683660553e8ba4eb2ad7c91a1710d769",
      "contractAddress": null
    }
  ],
  "libraries": [],
  "pending": [],
  "returns": {},
  "timestamp": 1736892385,
  "chain": 11155111,
  "commit": "51a374b"
}