{
  "transactions": [
    {
      "hash": "0x24d108885d1c765b29f9b89e58c62b29b01c8b807998390223763552cb616053",
      "transactionType": "CALL",
      "contractName": null,
      "contractAddress": "0x8aafd3ede9adb0ff97c7aebce82a919afb1c8764",
      "function": "sell(uint256)",
      "arguments": [
        "131840378224745"
      ],
      "transaction": {
        "from": "0xc77f7fed3b5cc8249adc428c5f44c9063b9734b4",
        "to": "0x8aafd3ede9adb0ff97c7aebce82a919afb1c8764",
        "gas": "0x15daa",
        "value": "0x0",
        "input": "0xe4849b32000000000000000000000000000000000000000000000000000077e87ae94069",
        "nonce": "0x13e2",
        "chainId": "0xaa36a7"
      },
      "additionalContracts": [],
      "isFixedGasLimit": false
    }
  ],
  "receipts": [
    {
      "status": "0x1",
      "cumulativeGasUsed": "0x917e57",
      "logs": [
        {
          "address": "0x8aafd3ede9adb0ff97c7aebce82a919afb1c8764",
          "topics": [
            "0xddf252ad1be2c89b69c2b068fc378daa952ba7f163c4a11628f55a4df523b3ef",
            "0x000000000000000000000000c77f7fed3b5cc8249adc428c5f44c9063b9734b4",
            "0x0000000000000000000000000000000000000000000000000000000000000000"
          ],
          "data": "0x000000000000000000000000000000000000000000000000000076f2e88514e4",
          "blockHash": "0xdde0328ff796d84b580ba7430d17af060d764db5fe46ca4fdbc4bd2d682c6b21",
          "blockNumber": "0x731b11",
          "transactionHash": "0x24d108885d1c765b29f9b89e58c62b29b01c8b807998390223763552cb616053",
          "transactionIndex": "0x58",
          "logIndex": "0x75",
          "removed": false
        },
        {
          "address": "0x8aafd3ede9adb0ff97c7aebce82a919afb1c8764",
          "topics": [
            "0xddf252ad1be2c89b69c2b068fc378daa952ba7f163c4a11628f55a4df523b3ef",
            "0x000000000000000000000000c77f7fed3b5cc8249adc428c5f44c9063b9734b4",
            "0x000000000000000000000000c77f7fed3b5cc8249adc428c5f44c9063b9734b4"
          ],
          "data": "0x000000000000000000000000000000000000000000000000000000f592642b85",
          "blockHash": "0xdde0328ff796d84b580ba7430d17af060d764db5fe46ca4fdbc4bd2d682c6b21",
          "blockNumber": "0x731b11",
          "transactionHash": "0x24d108885d1c765b29f9b89e58c62b29b01c8b807998390223763552cb616053",
          "transactionIndex": "0x58",
          "logIndex": "0x76",
          "removed": false
        },
        {
          "address": "0x8aafd3ede9adb0ff97c7aebce82a919afb1c8764",
          "topics": [
            "0x4afcb4a87cdbd9974efdb92ee48bc8d7cd0ae4bf217004db3d080cbaee652ca7"
          ],
          "data": "0x000000000000000000000000000000000000000000000000000000006790419c000000000000000000000000000000000000000000000000000dcd854cbd4ec10000000000000000000000000000000000000000000000000000007742a5aa46",
          "blockHash": "0xdde0328ff796d84b580ba7430d17af060d764db5fe46ca4fdbc4bd2d682c6b21",
          "blockNumber": "0x731b11",
          "transactionHash": "0x24d108885d1c765b29f9b89e58c62b29b01c8b807998390223763552cb616053",
          "transactionIndex": "0x58",
          "logIndex": "0x77",
          "removed": false
        }
      ],
      "logsBloom": "0x00000000000000000000000000000000000000000600000000000000000000000000000000000000000000000000000000000000000000004000000000000000000000000000004000000008000000000000000000000000000000000000000000000000020000000000000000000800020000000000000000000010000000000000000000000000000000000000000000000000000000000000010000000000000000000000000000000000000000004000000000000000000000000000000000000002000000800000000000000000000000000000080000000000000020000000000000000000000000000000000000000000000000000000000000000000",
      "type": "0x2",
      "transactionHash": "0x24d108885d1c765b29f9b89e58c62b29b01c8b807998390223763552cb616053",
      "transactionIndex": "0x58",
      "blockHash": "0xdde0328ff796d84b580ba7430d17af060d764db5fe46ca4fdbc4bd2d682c6b21",
      "blockNumber": "0x731b11",
      "gasUsed": "0xfd27",
      "effectiveGasPrice": "0x917498a9",
      "from": "0xc77f7fed3b5cc8249adc428c5f44c9063b9734b4",
      "to": "0x8aafd3ede9adb0ff97c7aebce82a919afb1c8764",
      "contractAddress": null
    }
  ],
  "libraries": [],
  "pending": [],
  "returns": {},
  "timestamp": 1737507230,
  "chain": 11155111,
  "commit": "1d2fb70"
}