{
  "transactions": [
    {
      "hash": "0xf4167e03eb2c2be5dfe6972b1836fa2baa78f73a6f1777a05d01ce169409f55f",
      "transactionType": "CALL",
      "contractName": null,
      "contractAddress": "0x8aafd3ede9adb0ff97c7aebce82a919afb1c8764",
      "function": "sell(uint256)",
      "arguments": [
        "5350790028643919835"
      ],
      "transaction": {
        "from": "0xc77f7fed3b5cc8249adc428c5f44c9063b9734b4",
        "to": "0x8aafd3ede9adb0ff97c7aebce82a919afb1c8764",
        "gas": "0x15dca",
        "value": "0x0",
        "input": "0xe4849b320000000000000000000000000000000000000000000000004a41d32e6d05e7db",
        "nonce": "0x129a",
        "chainId": "0xaa36a7"
      },
      "additionalContracts": [],
      "isFixedGasLimit": false
    }
  ],
  "receipts": [
    {
      "status": "0x1",
      "cumulativeGasUsed": "0xc5a9ab",
      "logs": [
        {
          "address": "0x8aafd3ede9adb0ff97c7aebce82a919afb1c8764",
          "topics": [
            "0xddf252ad1be2c89b69c2b068fc378daa952ba7f163c4a11628f55a4df523b3ef",
            "0x000000000000000000000000c77f7fed3b5cc8249adc428c5f44c9063b9734b4",
            "0x0000000000000000000000000000000000000000000000000000000000000000"
          ],
          "data": "0x00000000000000000000000000000000000000000000000049a9bf0f559f755d",
          "blockHash": "0x27383f71c4e938b3370f2ce87f5a524a5f55d8d0c008ae602d1040914eabb708",
          "blockNumber": "0x73198c",
          "transactionHash": "0xf4167e03eb2c2be5dfe6972b1836fa2baa78f73a6f1777a05d01ce169409f55f",
          "transactionIndex": "0x7a",
          "logIndex": "0x83",
          "removed": false
        },
        {
          "address": "0x8aafd3ede9adb0ff97c7aebce82a919afb1c8764",
          "topics": [
            "0xddf252ad1be2c89b69c2b068fc378daa952ba7f163c4a11628f55a4df523b3ef",
            "0x000000000000000000000000c77f7fed3b5cc8249adc428c5f44c9063b9734b4",
            "0x000000000000000000000000c77f7fed3b5cc8249adc428c5f44c9063b9734b4"
          ],
          "data": "0x0000000000000000000000000000000000000000000000000098141f1766727e",
          "blockHash": "0x27383f71c4e938b3370f2ce87f5a524a5f55d8d0c008ae602d1040914eabb708",
          "blockNumber": "0x73198c",
          "transactionHash": "0xf4167e03eb2c2be5dfe6972b1836fa2baa78f73a6f1777a05d01ce169409f55f",
          "transactionIndex": "0x7a",
          "logIndex": "0x84",
          "removed": false
        },
        {
          "address": "0x8aafd3ede9adb0ff97c7aebce82a919afb1c8764",
          "topics": [
            "0x4afcb4a87cdbd9974efdb92ee48bc8d7cd0ae4bf217004db3d080cbaee652ca7"
          ],
          "data": "0x0000000000000000000000000000000000000000000000000000000067902f60000000000000000000000000000000000000000000000000000547bae81c1380000000000000000000000000000000000000000000000000001c40c7957b9c99",
          "blockHash": "0x27383f71c4e938b3370f2ce87f5a524a5f55d8d0c008ae602d1040914eabb708",
          "blockNumber": "0x73198c",
          "transactionHash": "0xf4167e03eb2c2be5dfe6972b1836fa2baa78f73a6f1777a05d01ce169409f55f",
          "transactionIndex": "0x7a",
          "logIndex": "0x85",
          "removed": false
        }
      ],
      "logsBloom": "0x00000000000000000000000000000000000000000600000000000000000000000000000000000000000000000000000000000000000000004000000000000000000000000000004000000008000000000000000000000000000000000000000000000000020000000000000000000800020000000000000000000010000000000000000000000000000000000000000000000000000000000000010000000000000000000000000000000000000000004000000000000000000000000000000000000002000000800000000000000000000000000000080000000000000020000000000000000000000000000000000000000000000000000000000000000000",
      "type": "0x2",
      "transactionHash": "0xf4167e03eb2c2be5dfe6972b1836fa2baa78f73a6f1777a05d01ce169409f55f",
      "transactionIndex": "0x7a",
      "blockHash": "0x27383f71c4e938b3370f2ce87f5a524a5f55d8d0c008ae602d1040914eabb708",
      "blockNumber": "0x73198c",
      "gasUsed": "0xfd3f",
      "effectiveGasPrice": "0x4a51e481",
      "from": "0xc77f7fed3b5cc8249adc428c5f44c9063b9734b4",
      "to": "0x8aafd3ede9adb0ff97c7aebce82a919afb1c8764",
      "contractAddress": null
    }
  ],
  "libraries": [],
  "pending": [],
  "returns": {},
  "timestamp": 1737502560,
  "chain": 11155111,
  "commit": "1d2fb70"
}