{
  "transactions": [
    {
      "hash": "0x0ed865d736007ff1d8c3f356c89642ecef9606b02686d909644e21487c209479",
      "transactionType": "CALL",
      "contractName": null,
      "contractAddress": "0x8aafd3ede9adb0ff97c7aebce82a919afb1c8764",
      "function": "sell(uint256)",
      "arguments": [
        "379282123907951"
      ],
      "transaction": {
        "from": "0xc77f7fed3b5cc8249adc428c5f44c9063b9734b4",
        "to": "0x8aafd3ede9adb0ff97c7aebce82a919afb1c8764",
        "gas": "0x1724d",
        "value": "0x0",
        "input": "0xe4849b32000000000000000000000000000000000000000000000000000158f48043e36f",
        "nonce": "0xfa6",
        "chainId": "0xaa36a7"
      },
      "additionalContracts": [],
      "isFixedGasLimit": false
    }
  ],
  "receipts": [
    {
      "status": "0x1",
      "cumulativeGasUsed": "0xe2ffe2",
      "logs": [
        {
          "address": "0x8aafd3ede9adb0ff97c7aebce82a919afb1c8764",
          "topics": [
            "0xddf252ad1be2c89b69c2b068fc378daa952ba7f163c4a11628f55a4df523b3ef",
            "0x000000000000000000000000c77f7fed3b5cc8249adc428c5f44c9063b9734b4",
            "0x0000000000000000000000000000000000000000000000000000000000000000"
          ],
          "data": "0x0000000000000000000000000000000000000000000000000001563208747f50",
          "blockHash": "0xaf316d48d88cf79268bead4005da41cbe13e7e756ac551a6ad7164d5fa8bdd79",
          "blockNumber": "0x73160f",
          "transactionHash": "0x0ed865d736007ff1d8c3f356c89642ecef9606b02686d909644e21487c209479",
          "transactionIndex": "0x9c",
          "logIndex": "0xd5",
          "removed": false
        },
        {
          "address": "0x8aafd3ede9adb0ff97c7aebce82a919afb1c8764",
          "topics": [
            "0xddf252ad1be2c89b69c2b068fc378daa952ba7f163c4a11628f55a4df523b3ef",
            "0x000000000000000000000000c77f7fed3b5cc8249adc428c5f44c9063b9734b4",
            "0x000000000000000000000000c77f7fed3b5cc8249adc428c5f44c9063b9734b4"
          ],
          "data": "0x000000000000000000000000000000000000000000000000000002c277cf641f",
          "blockHash": "0xaf316d48d88cf79268bead4005da41cbe13e7e756ac551a6ad7164d5fa8bdd79",
          "blockNumber": "0x73160f",
          "transactionHash": "0x0ed865d736007ff1d8c3f356c89642ecef9606b02686d909644e21487c209479",
          "transactionIndex": "0x9c",
          "logIndex": "0xd6",
          "removed": false
        },
        {
          "address": "0x8aafd3ede9adb0ff97c7aebce82a919afb1c8764",
          "topics": [
            "0x4afcb4a87cdbd9974efdb92ee48bc8d7cd0ae4bf217004db3d080cbaee652ca7"
          ],
          "data": "0x00000000000000000000000000000000000000000000000000000000679005600000000000000000000000000000000000000000000000000004c37b31ab93a200000000000000000000000000000000000000000000000000000076683297ec",
          "blockHash": "0xaf316d48d88cf79268bead4005da41cbe13e7e756ac551a6ad7164d5fa8bdd79",
          "blockNumber": "0x73160f",
          "transactionHash": "0x0ed865d736007ff1d8c3f356c89642ecef9606b02686d909644e21487c209479",
          "transactionIndex": "0x9c",
          "logIndex": "0xd7",
          "removed": false
        }
      ],
      "logsBloom": "0x00000000000000000000000000000000000000000600000000000000000000000000000000000000000000000000000000000000000000004000000000000000000000000000004000000008000000000000000000000000000000000000000000000000020000000000000000000800020000000000000000000010000000000000000000000000000000000000000000000000000000000000010000000000000000000000000000000000000000004000000000000000000000000000000000000002000000800000000000000000000000000000080000000000000020000000000000000000000000000000000000000000000000000000000000000000",
      "type": "0x2",
      "transactionHash": "0x0ed865d736007ff1d8c3f356c89642ecef9606b02686d909644e21487c209479",
      "transactionIndex": "0x9c",
      "blockHash": "0xaf316d48d88cf79268bead4005da41cbe13e7e756ac551a6ad7164d5fa8bdd79",
      "blockNumber": "0x73160f",
      "gasUsed": "0xfd33",
      "effectiveGasPrice": "0x54f8fc68",
      "from": "0xc77f7fed3b5cc8249adc428c5f44c9063b9734b4",
      "to": "0x8aafd3ede9adb0ff97c7aebce82a919afb1c8764",
      "contractAddress": null
    }
  ],
  "libraries": [],
  "pending": [],
  "returns": {},
  "timestamp": 1737491809,
  "chain": 11155111,
  "commit": "1d2fb70"
}