{
  "transactions": [
    {
      "hash": "0xe9abeb2eae6e39ec6432b527719e9883d52b327966d432c7d2db59dd3d14e3e2",
      "transactionType": "CALL",
      "contractName": null,
      "contractAddress": "0x5eb9cc76c3506942c1c0ead70e877dd5e4f00cb0",
      "function": "buy(address)",
      "arguments": [
        "0xC77f7fed3b5Cc8249aDc428c5F44C9063B9734b4"
      ],
      "transaction": {
        "from": "0xc77f7fed3b5cc8249adc428c5f44c9063b9734b4",
        "to": "0x5eb9cc76c3506942c1c0ead70e877dd5e4f00cb0",
        "gas": "0x1b30c",
        "value": "0xde0b6b3a7640000",
        "input": "0xf088d547000000000000000000000000c77f7fed3b5cc8249adc428c5f44c9063b9734b4",
        "nonce": "0x416",
        "chainId": "0xaa36a7"
      },
      "additionalContracts": [],
      "isFixedGasLimit": false
    }
  ],
  "receipts": [
    {
      "status": "0x1",
      "cumulativeGasUsed": "0x18451bb",
      "logs": [
        {
          "address": "0x5eb9cc76c3506942c1c0ead70e877dd5e4f00cb0",
          "topics": [
            "0xddf252ad1be2c89b69c2b068fc378daa952ba7f163c4a11628f55a4df523b3ef",
            "0x0000000000000000000000000000000000000000000000000000000000000000",
            "0x000000000000000000000000c77f7fed3b5cc8249adc428c5f44c9063b9734b4"
          ],
          "data": "0x00000000000000000000000000000000000000000000003574f5cd97cc02f15a",
          "blockHash": "0x8addf9ec1a77c97df42d50938014d28d415fe67332c7494d940d8a7210185eca",
          "blockNumber": "0x725029",
          "transactionHash": "0xe9abeb2eae6e39ec6432b527719e9883d52b327966d432c7d2db59dd3d14e3e2",
          "transactionIndex": "0x8e",
          "logIndex": "0x12b",
          "removed": false
        },
        {
          "address": "0x5eb9cc76c3506942c1c0ead70e877dd5e4f00cb0",
          "topics": [
            "0xddf252ad1be2c89b69c2b068fc378daa952ba7f163c4a11628f55a4df523b3ef",
            "0x0000000000000000000000000000000000000000000000000000000000000000",
            "0x000000000000000000000000c77f7fed3b5cc8249adc428c5f44c9063b9734b4"
          ],
          "data": "0x0000000000000000000000000000000000000000000000002982d69ef378dc65",
          "blockHash": "0x8addf9ec1a77c97df42d50938014d28d415fe67332c7494d940d8a7210185eca",
          "blockNumber": "0x725029",
          "transactionHash": "0xe9abeb2eae6e39ec6432b527719e9883d52b327966d432c7d2db59dd3d14e3e2",
          "transactionIndex": "0x8e",
          "logIndex": "0x12c",
          "removed": false
        },
        {
          "address": "0x5eb9cc76c3506942c1c0ead70e877dd5e4f00cb0",
          "topics": [
            "0x4afcb4a87cdbd9974efdb92ee48bc8d7cd0ae4bf217004db3d080cbaee652ca7"
          ],
          "data": "0x000000000000000000000000000000000000000000000000000000006786b3b80000000000000000000000000000000000000000000000000003911640accbb60000000000000000000000000000000000000000000000000de0b6b3a7640000",
          "blockHash": "0x8addf9ec1a77c97df42d50938014d28d415fe67332c7494d940d8a7210185eca",
          "blockNumber": "0x725029",
          "transactionHash": "0xe9abeb2eae6e39ec6432b527719e9883d52b327966d432c7d2db59dd3d14e3e2",
          "transactionIndex": "0x8e",
          "logIndex": "0x12d",
          "removed": false
        }
      ],
      "logsBloom": "0x00000000000000000000000000000000000000000000000000000000000000000000000000000000000000000000000000000000000000004000000000000000000000000000000000000008000000000000000000000000000000000000000000000000020000000000000004000800020000000000000000000010000000000000000000000000000000000000000000000000000000000000010000000000000000000000000000000000000000004000000000000000000000000000020000000002000000800000008000000000000000000000080000000000000020000000000000000000000000000000000000000000000000000000000000000000",
      "type": "0x2",
      "transactionHash": "0xe9abeb2eae6e39ec6432b527719e9883d52b327966d432c7d2db59dd3d14e3e2",
      "transactionIndex": "0x8e",
      "blockHash": "0x8addf9ec1a77c97df42d50938014d28d415fe67332c7494d940d8a7210185eca",
      "blockNumber": "0x725029",
      "gasUsed": "0x13af8",
      "effectiveGasPrice": "0x2ef47e987",
      "from": "0xc77f7fed3b5cc8249adc428c5f44c9063b9734b4",
      "to": "0x5eb9cc76c3506942c1c0ead70e877dd5e4f00cb0",
      "contractAddress": null
    }
  ],
  "libraries": [],
  "pending": [],
  "returns": {},
  "timestamp": 1736881081,
  "chain": 11155111,
  "commit": "51a374b"
}