{
  "transactions": [
    {
      "hash": "0xb37e3a691a199157bf543d615d7eb738283fe0c5b217e44a51dec6f9f5e3550d",
      "transactionType": "CALL",
      "contractName": null,
      "contractAddress": "0x5eb9cc76c3506942c1c0ead70e877dd5e4f00cb0",
      "function": "sell(uint256)",
      "arguments": [
        "989130595865349863608"
      ],
      "transaction": {
        "from": "0xc77f7fed3b5cc8249adc428c5f44c9063b9734b4",
        "to": "0x5eb9cc76c3506942c1c0ead70e877dd5e4f00cb0",
        "gas": "0x16fec",
        "value": "0x0",
        "input": "0xe4849b320000000000000000000000000000000000000000000000359ef1cc4d10a438b8",
        "nonce": "0x341",
        "chainId": "0xaa36a7"
      },
      "additionalContracts": [],
      "isFixedGasLimit": false
    }
  ],
  "receipts": [
    {
      "status": "0x1",
      "cumulativeGasUsed": "0xffc360",
      "logs": [
        {
          "address": "0x5eb9cc76c3506942c1c0ead70e877dd5e4f00cb0",
          "topics": [
            "0xddf252ad1be2c89b69c2b068fc378daa952ba7f163c4a11628f55a4df523b3ef",
            "0x000000000000000000000000c77f7fed3b5cc8249adc428c5f44c9063b9734b4",
            "0x0000000000000000000000000000000000000000000000000000000000000000"
          ],
          "data": "0x0000000000000000000000000000000000000000000000359ef1cc4d10a438b8",
          "blockHash": "0x5798b521b226217fd47b1d51333f8fb46835f772a4bf6b214e37476bedb83acb",
          "blockNumber": "0x724f30",
          "transactionHash": "0xb37e3a691a199157bf543d615d7eb738283fe0c5b217e44a51dec6f9f5e3550d",
          "transactionIndex": "0x8a",
          "logIndex": "0xbc",
          "removed": false
        },
        {
          "address": "0x5eb9cc76c3506942c1c0ead70e877dd5e4f00cb0",
          "topics": [
            "0x4afcb4a87cdbd9974efdb92ee48bc8d7cd0ae4bf217004db3d080cbaee652ca7"
          ],
          "data": "0x000000000000000000000000000000000000000000000000000000006786a7f40000000000000000000000000000000000000000000000000003910e3de1e10f0000000000000000000000000000000000000000000000000dc7db13321de3c0",
          "blockHash": "0x5798b521b226217fd47b1d51333f8fb46835f772a4bf6b214e37476bedb83acb",
          "blockNumber": "0x724f30",
          "transactionHash": "0xb37e3a691a199157bf543d615d7eb738283fe0c5b217e44a51dec6f9f5e3550d",
          "transactionIndex": "0x8a",
          "logIndex": "0xbd",
          "removed": false
        }
      ],
      "logsBloom": "0x00000000000000000000000000000000000000000000000000000000000000000000000000000000000000000000000000000000000000004000000000000000000000000000000000000008000000000000000000000000000000000000000000000000020000000000000004000800020000000000000000000010000000000000000000000000000000000000000000000000000000000000010000000000000000000000000000000000000000004000000000000000000000000000020000000002000000800000008000000000000000000000080000000000000020000000000000000000000000000000000000000000000000000000000000000000",
      "type": "0x2",
      "transactionHash": "0xb37e3a691a199157bf543d615d7eb738283fe0c5b217e44a51dec6f9f5e3550d",
      "transactionIndex": "0x8a",
      "blockHash": "0x5798b521b226217fd47b1d51333f8fb46835f772a4bf6b214e37476bedb83acb",
      "blockNumber": "0x724f30",
      "gasUsed": "0xfb93",
      "effectiveGasPrice": "0x635135a19",
      "from": "0xc77f7fed3b5cc8249adc428c5f44c9063b9734b4",
      "to": "0x5eb9cc76c3506942c1c0ead70e877dd5e4f00cb0",
      "contractAddress": null
    }
  ],
  "libraries": [],
  "pending": [],
  "returns": {},
  "timestamp": 1736878069,
  "chain": 11155111,
  "commit": "51a374b"
}