{
  "transactions": [
    {
      "hash": "0x9a6149a1586e8872b44a557488ccd7efb8ad21f715179331b76db17bf5bc18e1",
      "transactionType": "CALL",
      "contractName": null,
      "contractAddress": "0x8aafd3ede9adb0ff97c7aebce82a919afb1c8764",
      "function": "sell(uint256)",
      "arguments": [
        "2945589153755"
      ],
      "transaction": {
        "from": "0xc77f7fed3b5cc8249adc428c5f44c9063b9734b4",
        "to": "0x8aafd3ede9adb0ff97c7aebce82a919afb1c8764",
        "gas": "0x15daa",
        "value": "0x0",
        "input": "0xe4849b32000000000000000000000000000000000000000000000000000002add2cb8fdb",
        "nonce": "0x1013",
        "chainId": "0xaa36a7"
      },
      "additionalContracts": [],
      "isFixedGasLimit": false
    }
  ],
  "receipts": [
    {
      "status": "0x1",
      "cumulativeGasUsed": "0x9396cd",
      "logs": [
        {
          "address": "0x8aafd3ede9adb0ff97c7aebce82a919afb1c8764",
          "topics": [
            "0xddf252ad1be2c89b69c2b068fc378daa952ba7f163c4a11628f55a4df523b3ef",
            "0x000000000000000000000000c77f7fed3b5cc8249adc428c5f44c9063b9734b4",
            "0x0000000000000000000000000000000000000000000000000000000000000000"
          ],
          "data": "0x000000000000000000000000000000000000000000000000000002a8563a92cd",
          "blockHash": "0xba187bee8c253bde06b70595a24ef44c7fadce16c5dcc469fd2e63af6533969d",
          "blockNumber": "0x73168a",
          "transactionHash": "0x9a6149a1586e8872b44a557488ccd7efb8ad21f715179331b76db17bf5bc18e1",
          "transactionIndex": "0x7e",
          "logIndex": "0x97",
          "removed": false
        },
        {
          "address": "0x8aafd3ede9adb0ff97c7aebce82a919afb1c8764",
          "topics": [
            "0xddf252ad1be2c89b69c2b068fc378daa952ba7f163c4a11628f55a4df523b3ef",
            "0x000000000000000000000000c77f7fed3b5cc8249adc428c5f44c9063b9734b4",
            "0x000000000000000000000000c77f7fed3b5cc8249adc428c5f44c9063b9734b4"
          ],
          "data": "0x000000000000000000000000000000000000000000000000000000057c90fd0e",
          "blockHash": "0xba187bee8c253bde06b70595a24ef44c7fadce16c5dcc469fd2e63af6533969d",
          "blockNumber": "0x73168a",
          "transactionHash": "0x9a6149a1586e8872b44a557488ccd7efb8ad21f715179331b76db17bf5bc18e1",
          "transactionIndex": "0x7e",
          "logIndex": "0x98",
          "removed": false
        },
        {
          "address": "0x8aafd3ede9adb0ff97c7aebce82a919afb1c8764",
          "topics": [
            "0x4afcb4a87cdbd9974efdb92ee48bc8d7cd0ae4bf217004db3d080cbaee652ca7"
          ],
          "data": "0x0000000000000000000000000000000000000000000000000000000067900b240000000000000000000000000000000000000000000000000004e94ddd75a09300000000000000000000000000000000000000000000000000000000f2b671d0",
          "blockHash": "0xba187bee8c253bde06b70595a24ef44c7fadce16c5dcc469fd2e63af6533969d",
          "blockNumber": "0x73168a",
          "transactionHash": "0x9a6149a1586e8872b44a557488ccd7efb8ad21f715179331b76db17bf5bc18e1",
          "transactionIndex": "0x7e",
          "logIndex": "0x99",
          "removed": false
        }
      ],
      "logsBloom": "0x00000000000000000000000000000000000000000600000000000000000000000000000000000000000000000000000000000000000000004000000000000000000000000000004000000008000000000000000000000000000000000000000000000000020000000000000000000800020000000000000000000010000000000000000000000000000000000000000000000000000000000000010000000000000000000000000000000000000000004000000000000000000000000000000000000002000000800000000000000000000000000000080000000000000020000000000000000000000000000000000000000000000000000000000000000000",
      "type": "0x2",
      "transactionHash": "0x9a6149a1586e8872b44a557488ccd7efb8ad21f715179331b76db17bf5bc18e1",
      "transactionIndex": "0x7e",
      "blockHash": "0xba187bee8c253bde06b70595a24ef44c7fadce16c5dcc469fd2e63af6533969d",
      "blockNumber": "0x73168a",
      "gasUsed": "0xfd27",
      "effectiveGasPrice": "0x3e52a09f",
      "from": "0xc77f7fed3b5cc8249adc428c5f44c9063b9734b4",
      "to": "0x8aafd3ede9adb0ff97c7aebce82a919afb1c8764",
      "contractAddress": null
    }
  ],
  "libraries": [],
  "pending": [],
  "returns": {},
  "timestamp": 1737493284,
  "chain": 11155111,
  "commit": "1d2fb70"
}