{
  "transactions": [
    {
      "hash": "0xa7421eb94b9c6fc32e1390f32d707b1c33dd7a9e91d2c0c2195d76ed9f5161e8",
      "transactionType": "CALL",
      "contractName": null,
      "contractAddress": "0xd7bc75898e513accccf720a874d44dab5a4b6223",
      "function": "buy(address)",
      "arguments": [
        "0xC77f7fed3b5Cc8249aDc428c5F44C9063B9734b4"
      ],
      "transaction": {
        "from": "0xc77f7fed3b5cc8249adc428c5f44c9063b9734b4",
        "to": "0xd7bc75898e513accccf720a874d44dab5a4b6223",
        "gas": "0x1b30c",
        "value": "0x2386f26fc10000",
        "input": "0xf088d547000000000000000000000000c77f7fed3b5cc8249adc428c5f44c9063b9734b4",
        "nonce": "0x11a",
        "chainId": "0xaa36a7"
      },
      "additionalContracts": [],
      "isFixedGasLimit": false
    }
  ],
  "receipts": [
    {
      "status": "0x1",
      "cumulativeGasUsed": "0x7b8ac4",
      "logs": [
        {
          "address": "0xd7bc75898e513accccf720a874d44dab5a4b6223",
          "topics": [
            "0xddf252ad1be2c89b69c2b068fc378daa952ba7f163c4a11628f55a4df523b3ef",
            "0x0000000000000000000000000000000000000000000000000000000000000000",
            "0x000000000000000000000000c77f7fed3b5cc8249adc428c5f44c9063b9734b4"
          ],
          "data": "0x0000000000000000000000000000000000000000000000008963ba13ea5d2c7f",
          "blockHash": "0x155966e680e63a2f5f57043fdfc2b94d537950ad87c7d83c2a8a0edc81cef960",
          "blockNumber": "0x7239b0",
          "transactionHash": "0xa7421eb94b9c6fc32e1390f32d707b1c33dd7a9e91d2c0c2195d76ed9f5161e8",
          "transactionIndex": "0x31",
          "logIndex": "0x80",
          "removed": false
        },
        {
          "address": "0xd7bc75898e513accccf720a874d44dab5a4b6223",
          "topics": [
            "0xddf252ad1be2c89b69c2b068fc378daa952ba7f163c4a11628f55a4df523b3ef",
            "0x0000000000000000000000000000000000000000000000000000000000000000",
            "0x000000000000000000000000c77f7fed3b5cc8249adc428c5f44c9063b9734b4"
          ],
          "data": "0x000000000000000000000000000000000000000000000000006ab00bad6781de",
          "blockHash": "0x155966e680e63a2f5f57043fdfc2b94d537950ad87c7d83c2a8a0edc81cef960",
          "blockNumber": "0x7239b0",
          "transactionHash": "0xa7421eb94b9c6fc32e1390f32d707b1c33dd7a9e91d2c0c2195d76ed9f5161e8",
          "transactionIndex": "0x31",
          "logIndex": "0x81",
          "removed": false
        },
        {
          "address": "0xd7bc75898e513accccf720a874d44dab5a4b6223",
          "topics": [
            "0x4afcb4a87cdbd9974efdb92ee48bc8d7cd0ae4bf217004db3d080cbaee652ca7"
          ],
          "data": "0x000000000000000000000000000000000000000000000000000000006785a59400000000000000000000000000000000000000000000000000038d7f8fa5ff50000000000000000000000000000000000000000000000000002386f26fc10000",
          "blockHash": "0x155966e680e63a2f5f57043fdfc2b94d537950ad87c7d83c2a8a0edc81cef960",
          "blockNumber": "0x7239b0",
          "transactionHash": "0xa7421eb94b9c6fc32e1390f32d707b1c33dd7a9e91d2c0c2195d76ed9f5161e8",
          "transactionIndex": "0x31",
          "logIndex": "0x82",
          "removed": false
        }
      ],
      "logsBloom": "0x00000000000000000000000000000000000000000000000000000000000000000000000000000000000000000000000000000000000000004000000000000000000000000000000000000008000000000000000000000000000000000000000000000000020000000000000000000800020000000000000000000010000000000000000000000000000000000000000000000000000000000000010000000000000000000000000000000000000000004000001000000000000000000000000000000002000000800000000000004000000000000000080000000000000020000000000000000000000000000000000000000000080000000000000000000000",
      "type": "0x2",
      "transactionHash": "0xa7421eb94b9c6fc32e1390f32d707b1c33dd7a9e91d2c0c2195d76ed9f5161e8",
      "transactionIndex": "0x31",
      "blockHash": "0x155966e680e63a2f5f57043fdfc2b94d537950ad87c7d83c2a8a0edc81cef960",
      "blockNumber": "0x7239b0",
      "gasUsed": "0x13af8",
      "effectiveGasPrice": "0x1a75f9269",
      "from": "0xc77f7fed3b5cc8249adc428c5f44c9063b9734b4",
      "to": "0xd7bc75898e513accccf720a874d44dab5a4b6223",
      "contractAddress": null
    }
  ],
  "libraries": [],
  "pending": [],
  "returns": {},
  "timestamp": 1736811925,
  "chain": 11155111,
  "commit": "51a374b"
}