{
  "transactions": [
    {
      "hash": "0x8e1c5bfae00a3cc9c59f7b7837fd3485da176b463d2afab39954b7defbc2cedf",
      "transactionType": "CALL",
      "contractName": null,
      "contractAddress": "0x5eb9cc76c3506942c1c0ead70e877dd5e4f00cb0",
      "function": "sell(uint256)",
      "arguments": [
        "989610736427247963795"
      ],
      "transaction": {
        "from": "0xc77f7fed3b5cc8249adc428c5f44c9063b9734b4",
        "to": "0x5eb9cc76c3506942c1c0ead70e877dd5e4f00cb0",
        "gas": "0x16fec",
        "value": "0x0",
        "input": "0xe4849b32000000000000000000000000000000000000000000000035a59b999922d58e93",
        "nonce": "0x26d",
        "chainId": "0xaa36a7"
      },
      "additionalContracts": [],
      "isFixedGasLimit": false
    }
  ],
  "receipts": [
    {
      "status": "0x1",
      "cumulativeGasUsed": "0xf5fea2",
      "logs": [
        {
          "address": "0x5eb9cc76c3506942c1c0ead70e877dd5e4f00cb0",
          "topics": [
            "0xddf252ad1be2c89b69c2b068fc378daa952ba7f163c4a11628f55a4df523b3ef",
            "0x000000000000000000000000c77f7fed3b5cc8249adc428c5f44c9063b9734b4",
            "0x0000000000000000000000000000000000000000000000000000000000000000"
          ],
          "data": "0x000000000000000000000000000000000000000000000035a59b999922d58e93",
          "blockHash": "0x7c8b02749b341678a898308cf623bf23156c9be1328d35820be5c92a75a95da9",
          "blockNumber": "0x724e34",
          "transactionHash": "0x8e1c5bfae00a3cc9c59f7b7837fd3485da176b463d2afab39954b7defbc2cedf",
          "transactionIndex": "0x83",
          "logIndex": "0x124",
          "removed": false
        },
        {
          "address": "0x5eb9cc76c3506942c1c0ead70e877dd5e4f00cb0",
          "topics": [
            "0x4afcb4a87cdbd9974efdb92ee48bc8d7cd0ae4bf217004db3d080cbaee652ca7"
          ],
          "data": "0x0000000000000000000000000000000000000000000000000000000067869c240000000000000000000000000000000000000000000000000003909cd464bb540000000000000000000000000000000000000000000000000dc7db118373b1be",
          "blockHash": "0x7c8b02749b341678a898308cf623bf23156c9be1328d35820be5c92a75a95da9",
          "blockNumber": "0x724e34",
          "transactionHash": "0x8e1c5bfae00a3cc9c59f7b7837fd3485da176b463d2afab39954b7defbc2cedf",
          "transactionIndex": "0x83",
          "logIndex": "0x125",
          "removed": false
        }
      ],
      "logsBloom": "0x00000000000000000000000000000000000000000000000000000000000000000000000000000000000000000000000000000000000000004000000000000000000000000000000000000008000000000000000000000000000000000000000000000000020000000000000004000800020000000000000000000010000000000000000000000000000000000000000000000000000000000000010000000000000000000000000000000000000000004000000000000000000000000000020000000002000000800000008000000000000000000000080000000000000020000000000000000000000000000000000000000000000000000000000000000000",
      "type": "0x2",
      "transactionHash": "0x8e1c5bfae00a3cc9c59f7b7837fd3485da176b463d2afab39954b7defbc2cedf",
      "transactionIndex": "0x83",
      "blockHash": "0x7c8b02749b341678a898308cf623bf23156c9be1328d35820be5c92a75a95da9",
      "blockNumber": "0x724e34",
      "gasUsed": "0xfb93",
      "effectiveGasPrice": "0x31a2ab1a1",
      "from": "0xc77f7fed3b5cc8249adc428c5f44c9063b9734b4",
      "to": "0x5eb9cc76c3506942c1c0ead70e877dd5e4f00cb0",
      "contractAddress": null
    }
  ],
  "libraries": [],
  "pending": [],
  "returns": {},
  "timestamp": 1736875045,
  "chain": 11155111,
  "commit": "51a374b"
}