{
  "transactions": [
    {
      "hash": "0x9205b4b32315d41e880f741476553fd3bfc4541b17ba96e6a2cf875b2aa93e5e",
      "transactionType": "CALL",
      "contractName": null,
      "contractAddress": "0x270e88f8683660553e8ba4eb2ad7c91a1710d769",
      "function": "sell(uint256)",
      "arguments": [
        "824609237173427107657"
      ],
      "transaction": {
        "from": "0xc77f7fed3b5cc8249adc428c5f44c9063b9734b4",
        "to": "0x270e88f8683660553e8ba4eb2ad7c91a1710d769",
        "gas": "0x16fec",
        "value": "0x0",
        "input": "0xe4849b3200000000000000000000000000000000000000000000002cb3c0843e03f5f749",
        "nonce": "0x65f",
        "chainId": "0xaa36a7"
      },
      "additionalContracts": [],
      "isFixedGasLimit": false
    }
  ],
  "receipts": [
    {
      "status": "0x1",
      "cumulativeGasUsed": "0x570b1e",
      "logs": [
        {
          "address": "0x270e88f8683660553e8ba4eb2ad7c91a1710d769",
          "topics": [
            "0xddf252ad1be2c89b69c2b068fc378daa952ba7f163c4a11628f55a4df523b3ef",
            "0x000000000000000000000000c77f7fed3b5cc8249adc428c5f44c9063b9734b4",
            "0x0000000000000000000000000000000000000000000000000000000000000000"
          ],
          "data": "0x00000000000000000000000000000000000000000000002cb3c0843e03f5f749",
          "blockHash": "0xad4e4d4c24e11d7b444a9ec38f40c5ad2317dfd9a355561675d8e4af45a7fb8b",
          "blockNumber": "0x725353",
          "transactionHash": "0x9205b4b32315d41e880f741476553fd3bfc4541b17ba96e6a2cf875b2aa93e5e",
          "transactionIndex": "0x33",
          "logIndex": "0x72",
          "removed": false
        },
        {
          "address": "0x270e88f8683660553e8ba4eb2ad7c91a1710d769",
          "topics": [
            "0x4afcb4a87cdbd9974efdb92ee48bc8d7cd0ae4bf217004db3d080cbaee652ca7"
          ],
          "data": "0x000000000000000000000000000000000000000000000000000000006786d9ec0000000000000000000000000000000000000000000000000004473e4045d1900000000000000000000000000000000000000000000000000dc7e0f93487ab03",
          "blockHash": "0xad4e4d4c24e11d7b444a9ec38f40c5ad2317dfd9a355561675d8e4af45a7fb8b",
          "blockNumber": "0x725353",
          "transactionHash": "0x9205b4b32315d41e880f741476553fd3bfc4541b17ba96e6a2cf875b2aa93e5e",
          "transactionIndex": "0x33",
          "logIndex": "0x73",
          "removed": false
        }
      ],
      "logsBloom": "0x00000000000000000000000000000000000000000000000000000000000000000000000000000000000000000000000020000000000000004000000000000000000000000000000000000008000000000000000000000000000000000000000000000000020000000000000000000800020000000000000000000010000000000000000000010000000000000000000000000000000000000000010000000000000000000000000000000000000000004000000000000000000000000000000000000002000000800000000000000000000000000000080000008000000020000000000000000000000000000000000000000000000000000000000000000000",
      "type": "0x2",
      "transactionHash": "0x9205b4b32315d41e880f741476553fd3bfc4541b17ba96e6a2cf875b2aa93e5e",
      "transactionIndex": "0x33",
      "blockHash": "0xad4e4d4c24e11d7b444a9ec38f40c5ad2317dfd9a355561675d8e4af45a7fb8b",
      "blockNumber": "0x725353",
      "gasUsed": "0xfb93",
      "effectiveGasPrice": "0x38722666a",
      "from": "0xc77f7fed3b5cc8249adc428c5f44c9063b9734b4",
      "to": "0x270e88f8683660553e8ba4eb2ad7c91a1710d769",
      "contractAddress": null
    }
  ],
  "libraries": [],
  "pending": [],
  "returns": {},
  "timestamp": 1736890861,
  "chain": 11155111,
  "commit": "51a374b"
}