{
  "transactions": [
    {
      "hash": "0xae1fa0b3ee743a07c9fe88e9b8dbdeee34dffd2fe1d9f3e0dd034cd10062e8ae",
      "transactionType": "CALL",
      "contractName": null,
      "contractAddress": "0x270e88f8683660553e8ba4eb2ad7c91a1710d769",
      "function": "buy(address)",
      "arguments": [
        "0xC77f7fed3b5Cc8249aDc428c5F44C9063B9734b4"
      ],
      "transaction": {
        "from": "0xc77f7fed3b5cc8249adc428c5f44c9063b9734b4",
        "to": "0x270e88f8683660553e8ba4eb2ad7c91a1710d769",
        "gas": "0x1b30c",
        "value": "0xde0b6b3a7640000",
        "input": "0xf088d547000000000000000000000000c77f7fed3b5cc8249adc428c5f44c9063b9734b4",
        "nonce": "0x7e3",
        "chainId": "0xaa36a7"
      },
      "additionalContracts": [],
      "isFixedGasLimit": false
    }
  ],
  "receipts": [
    {
      "status": "0x1",
      "cumulativeGasUsed": "0x49c0f1",
      "logs": [
        {
          "address": "0x270e88f8683660553e8ba4eb2ad7c91a1710d769",
          "topics": [
            "0xddf252ad1be2c89b69c2b068fc378daa952ba7f163c4a11628f55a4df523b3ef",
            "0x0000000000000000000000000000000000000000000000000000000000000000",
            "0x000000000000000000000000c77f7fed3b5cc8249adc428c5f44c9063b9734b4"
          ],
          "data": "0x000000000000000000000000000000000000000000000027333a53ca1f02cc9a",
          "blockHash": "0x289a79f84d45b7703314f93f5d99fcc81edd89ffe172aced53640f887c868655",
          "blockNumber": "0x72551e",
          "transactionHash": "0xae1fa0b3ee743a07c9fe88e9b8dbdeee34dffd2fe1d9f3e0dd034cd10062e8ae",
          "transactionIndex": "0x2b",
          "logIndex": "0x2d",
          "removed": false
        },
        {
          "address": "0x270e88f8683660553e8ba4eb2ad7c91a1710d769",
          "topics": [
            "0xddf252ad1be2c89b69c2b068fc378daa952ba7f163c4a11628f55a4df523b3ef",
            "0x0000000000000000000000000000000000000000000000000000000000000000",
            "0x000000000000000000000000c77f7fed3b5cc8249adc428c5f44c9063b9734b4"
          ],
          "data": "0x0000000000000000000000000000000000000000000000001e70b25c2a9df897",
          "blockHash": "0x289a79f84d45b7703314f93f5d99fcc81edd89ffe172aced53640f887c868655",
          "blockNumber": "0x72551e",
          "transactionHash": "0xae1fa0b3ee743a07c9fe88e9b8dbdeee34dffd2fe1d9f3e0dd034cd10062e8ae",
          "transactionIndex": "0x2b",
          "logIndex": "0x2e",
          "removed": false
        },
        {
          "address": "0x270e88f8683660553e8ba4eb2ad7c91a1710d769",
          "topics": [
            "0x4afcb4a87cdbd9974efdb92ee48bc8d7cd0ae4bf217004db3d080cbaee652ca7"
          ],
          "data": "0x000000000000000000000000000000000000000000000000000000006786ef700000000000000000000000000000000000000000000000000004dd462551b8ed0000000000000000000000000000000000000000000000000de0b6b3a7640000",
          "blockHash": "0x289a79f84d45b7703314f93f5d99fcc81edd89ffe172aced53640f887c868655",
          "blockNumber": "0x72551e",
          "transactionHash": "0xae1fa0b3ee743a07c9fe88e9b8dbdeee34dffd2fe1d9f3e0dd034cd10062e8ae",
          "transactionIndex": "0x2b",
          "logIndex": "0x2f",
          "removed": false
        }
      ],
      "logsBloom": "0x00000000000000000000000000000000000000000000000000000000000000000000000000000000000000000000000020000000000000004000000000000000000000000000000000000008000000000000000000000000000000000000000000000000020000000000000000000800020000000000000000000010000000000000000000010000000000000000000000000000000000000000010000000000000000000000000000000000000000004000000000000000000000000000000000000002000000800000000000000000000000000000080000008000000020000000000000000000000000000000000000000000000000000000000000000000",
      "type": "0x2",
      "transactionHash": "0xae1fa0b3ee743a07c9fe88e9b8dbdeee34dffd2fe1d9f3e0dd034cd10062e8ae",
      "transactionIndex": "0x2b",
      "blockHash": "0x289a79f84d45b7703314f93f5d99fcc81edd89ffe172aced53640f887c868655",
      "blockNumber": "0x72551e",
      "gasUsed": "0x13af8",
      "effectiveGasPrice": "0xb6af1318",
      "from": "0xc77f7fed3b5cc8249adc428c5f44c9063b9734b4",
      "to": "0x270e88f8683660553e8ba4eb2ad7c91a1710d769",
      "contractAddress": null
    }
  ],
  "libraries": [],
  "pending": [],
  "returns": {},
  "timestamp": 1736896369,
  "chain": 11155111,
  "commit": "51a374b"
}