{
  "transactions": [
    {
      "hash": "0x27f701e1eac180318c39f289e89ca8a4840e5b481d9d3debe72e7c4755a74aba",
      "transactionType": "CALL",
      "contractName": null,
      "contractAddress": "0x8aafd3ede9adb0ff97c7aebce82a919afb1c8764",
      "function": "sell(uint256)",
      "arguments": [
        "43084547377554070"
      ],
      "transaction": {
        "from": "0xc77f7fed3b5cc8249adc428c5f44c9063b9734b4",
        "to": "0x8aafd3ede9adb0ff97c7aebce82a919afb1c8764",
        "gas": "0x1724d",
        "value": "0x0",
        "input": "0xe4849b320000000000000000000000000000000000000000000000000099112ae5bf6296",
        "nonce": "0x125f",
        "chainId": "0xaa36a7"
      },
      "additionalContracts": [],
      "isFixedGasLimit": false
    }
  ],
  "receipts": [
    {
      "status": "0x1",
      "cumulativeGasUsed": "0xa8c895",
      "logs": [
        {
          "address": "0x8aafd3ede9adb0ff97c7aebce82a919afb1c8764",
          "topics": [
            "0xddf252ad1be2c89b69c2b068fc378daa952ba7f163c4a11628f55a4df523b3ef",
            "0x000000000000000000000000c77f7fed3b5cc8249adc428c5f44c9063b9734b4",
            "0x0000000000000000000000000000000000000000000000000000000000000000"
          ],
          "data": "0x0000000000000000000000000000000000000000000000000097d7afac9d1606",
          "blockHash": "0x3df6dad172a39ea9e5c1a4bcc9082d537778f968f2199a3f3cc9dd9353017d0e",
          "blockNumber": "0x731944",
          "transactionHash": "0x27f701e1eac180318c39f289e89ca8a4840e5b481d9d3debe72e7c4755a74aba",
          "transactionIndex": "0x74",
          "logIndex": "0x8a",
          "removed": false
        },
        {
          "address": "0x8aafd3ede9adb0ff97c7aebce82a919afb1c8764",
          "topics": [
            "0xddf252ad1be2c89b69c2b068fc378daa952ba7f163c4a11628f55a4df523b3ef",
            "0x000000000000000000000000c77f7fed3b5cc8249adc428c5f44c9063b9734b4",
            "0x000000000000000000000000c77f7fed3b5cc8249adc428c5f44c9063b9734b4"
          ],
          "data": "0x0000000000000000000000000000000000000000000000000001397b39224c90",
          "blockHash": "0x3df6dad172a39ea9e5c1a4bcc9082d537778f968f2199a3f3cc9dd9353017d0e",
          "blockNumber": "0x731944",
          "transactionHash": "0x27f701e1eac180318c39f289e89ca8a4840e5b481d9d3debe72e7c4755a74aba",
          "transactionIndex": "0x74",
          "logIndex": "0x8b",
          "removed": false
        },
        {
          "address": "0x8aafd3ede9adb0ff97c7aebce82a919afb1c8764",
          "topics": [
            "0x4afcb4a87cdbd9974efdb92ee48bc8d7cd0ae4bf217004db3d080cbaee652ca7"
          ],
          "data": "0x0000000000000000000000000000000000000000000000000000000067902c0000000000000000000000000000000000000000000000000000053f02a7a1932d000000000000000000000000000000000000000000000000000039dcecfba62f",
          "blockHash": "0x3df6dad172a39ea9e5c1a4bcc9082d537778f968f2199a3f3cc9dd9353017d0e",
          "blockNumber": "0x731944",
          "transactionHash": "0x27f701e1eac180318c39f289e89ca8a4840e5b481d9d3debe72e7c4755a74aba",
          "transactionIndex": "0x74",
          "logIndex": "0x8c",
          "removed": false
        }
      ],
      "logsBloom": "0x00000000000000000000000000000000000000000600000000000000000000000000000000000000000000000000000000000000000000004000000000000000000000000000004000000008000000000000000000000000000000000000000000000000020000000000000000000800020000000000000000000010000000000000000000000000000000000000000000000000000000000000010000000000000000000000000000000000000000004000000000000000000000000000000000000002000000800000000000000000000000000000080000000000000020000000000000000000000000000000000000000000000000000000000000000000",
      "type": "0x2",
      "transactionHash": "0x27f701e1eac180318c39f289e89ca8a4840e5b481d9d3debe72e7c4755a74aba",
      "transactionIndex": "0x74",
      "blockHash": "0x3df6dad172a39ea9e5c1a4bcc9082d537778f968f2199a3f3cc9dd9353017d0e",
      "blockNumber": "0x731944",
      "gasUsed": "0xfd33",
      "effectiveGasPrice": "0x3c5cda7e",
      "from": "0xc77f7fed3b5cc8249adc428c5f44c9063b9734b4",
      "to": "0x8aafd3ede9adb0ff97c7aebce82a919afb1c8764",
      "contractAddress": null
    }
  ],
  "libraries": [],
  "pending": [],
  "returns": {},
  "timestamp": 1737501697,
  "chain": 11155111,
  "commit": "1d2fb70"
}