{
  "transactions": [
    {
      "hash": "0xa2cdd76e2bdc8bba2e95149501c6b87011a2d80154c53910567a2653113a1584",
      "transactionType": "CALL",
      "contractName": null,
      "contractAddress": "0x8aafd3ede9adb0ff97c7aebce82a919afb1c8764",
      "function": "buy(address)",
      "arguments": [
        "0xC77f7fed3b5Cc8249aDc428c5F44C9063B9734b4"
      ],
      "transaction": {
        "from": "0xc77f7fed3b5cc8249adc428c5f44c9063b9734b4",
        "to": "0x8aafd3ede9adb0ff97c7aebce82a919afb1c8764",
        "gas": "0x156ea",
        "value": "0xde0b6b3a7640000",
        "input": "0xf088d547000000000000000000000000c77f7fed3b5cc8249adc428c5f44c9063b9734b4",
        "nonce": "0x14da",
        "chainId": "0xaa36a7"
      },
      "additionalContracts": [],
      "isFixedGasLimit": false
    }
  ],
  "receipts": [
    {
      "status": "0x1",
      "cumulativeGasUsed": "0xfd8961",
      "logs": [
        {
          "address": "0x8aafd3ede9adb0ff97c7aebce82a919afb1c8764",
          "topics": [
            "0xddf252ad1be2c89b69c2b068fc378daa952ba7f163c4a11628f55a4df523b3ef",
            "0x0000000000000000000000000000000000000000000000000000000000000000",
            "0x000000000000000000000000c77f7fed3b5cc8249adc428c5f44c9063b9734b4"
          ],
          "data": "0x00000000000000000000000000000000000000000000000b7f216e92d0015204",
          "blockHash": "0x98d0390fbf0af065dd1b692325f3f2720aebd3069ea51f4b61ee974f397b792b",
          "blockNumber": "0x731c38",
          "transactionHash": "0xa2cdd76e2bdc8bba2e95149501c6b87011a2d80154c53910567a2653113a1584",
          "transactionIndex": "0x6e",
          "logIndex": "0xc0",
          "removed": false
        },
        {
          "address": "0x8aafd3ede9adb0ff97c7aebce82a919afb1c8764",
          "topics": [
            "0xddf252ad1be2c89b69c2b068fc378daa952ba7f163c4a11628f55a4df523b3ef",
            "0x0000000000000000000000000000000000000000000000000000000000000000",
            "0x000000000000000000000000c77f7fed3b5cc8249adc428c5f44c9063b9734b4"
          ],
          "data": "0x00000000000000000000000000000000000000000000000008ed70f8bff80d63",
          "blockHash": "0x98d0390fbf0af065dd1b692325f3f2720aebd3069ea51f4b61ee974f397b792b",
          "blockNumber": "0x731c38",
          "transactionHash": "0xa2cdd76e2bdc8bba2e95149501c6b87011a2d80154c53910567a2653113a1584",
          "transactionIndex": "0x6e",
          "logIndex": "0xc1",
          "removed": false
        },
        {
          "address": "0x8aafd3ede9adb0ff97c7aebce82a919afb1c8764",
          "topics": [
            "0x4afcb4a87cdbd9974efdb92ee48bc8d7cd0ae4bf217004db3d080cbaee652ca7"
          ],
          "data": "0x0000000000000000000000000000000000000000000000000000000067904f7c00000000000000000000000000000000000000000000000000109c223b3e07090000000000000000000000000000000000000000000000000de0b6b3a7640000",
          "blockHash": "0x98d0390fbf0af065dd1b692325f3f2720aebd3069ea51f4b61ee974f397b792b",
          "blockNumber": "0x731c38",
          "transactionHash": "0xa2cdd76e2bdc8bba2e95149501c6b87011a2d80154c53910567a2653113a1584",
          "transactionIndex": "0x6e",
          "logIndex": "0xc2",
          "removed": false
        }
      ],
      "logsBloom": "0x00000000000000000000000000000000000000000600000000000000000000000000000000000000000000000000000000000000000000004000000000000000000000000000004000000008000000000000000000000000000000000000000000000000020000000000000000000800020000000000000000000010000000000000000000000000000000000000000000000000000000000000010000000000000000000000000000000000000000004000000000000000000000000000000000000002000000800000000000000000000000000000080000000000000020000000000000000000000000000000000000000000000000000000000000000000",
      "type": "0x2",
      "transactionHash": "0xa2cdd76e2bdc8bba2e95149501c6b87011a2d80154c53910567a2653113a1584",
      "transactionIndex": "0x6e",
      "blockHash": "0x98d0390fbf0af065dd1b692325f3f2720aebd3069ea51f4b61ee974f397b792b",
      "blockNumber": "0x731c38",
      "gasUsed": "0xf844",
      "effectiveGasPrice": "0x14317d2de",
      "from": "0xc77f7fed3b5cc8249adc428c5f44c9063b9734b4",
      "to": "0x8aafd3ede9adb0ff97c7aebce82a919afb1c8764",
      "contractAddress": null
    }
  ],
  "libraries": [],
  "pending": [],
  "returns": {},
  "timestamp": 1737510781,
  "chain": 11155111,
  "commit": "1d2fb70"
}