{
  "transactions": [
    {
      "hash": "0x847d9302b3314d09421d64669187e131ffe4d1b0b74ae4d6936b6203ab7e6a0c",
      "transactionType": "CALL",
      "contractName": null,
      "contractAddress": "0x8aafd3ede9adb0ff97c7aebce82a919afb1c8764",
      "function": "sell(uint256)",
      "arguments": [
        "382984466594472"
      ],
      "transaction": {
        "from": "0xc77f7fed3b5cc8249adc428c5f44c9063b9734b4",
        "to": "0x8aafd3ede9adb0ff97c7aebce82a919afb1c8764",
        "gas": "0x1724d",
        "value": "0x0",
        "input": "0xe4849b3200000000000000000000000000000000000000000000000000015c528515faa8",
        "nonce": "0xea9",
        "chainId": "0xaa36a7"
      },
      "additionalContracts": [],
      "isFixedGasLimit": false
    }
  ],
  "receipts": [
    {
      "status": "0x1",
      "cumulativeGasUsed": "0xbf27e1",
      "logs": [
        {
          "address": "0x8aafd3ede9adb0ff97c7aebce82a919afb1c8764",
          "topics": [
            "0xddf252ad1be2c89b69c2b068fc378daa952ba7f163c4a11628f55a4df523b3ef",
            "0x000000000000000000000000c77f7fed3b5cc8249adc428c5f44c9063b9734b4",
            "0x0000000000000000000000000000000000000000000000000000000000000000"
          ],
          "data": "0x0000000000000000000000000000000000000000000000000001598927dc7595",
          "blockHash": "0x6aa0ec19740ad998dcac67ce6b34fdf353b86afddfb0c0a2b7048cbcd1211f6e",
          "blockNumber": "0x73140c",
          "transactionHash": "0x847d9302b3314d09421d64669187e131ffe4d1b0b74ae4d6936b6203ab7e6a0c",
          "transactionIndex": "0x8f",
          "logIndex": "0xda",
          "removed": false
        },
        {
          "address": "0x8aafd3ede9adb0ff97c7aebce82a919afb1c8764",
          "topics": [
            "0xddf252ad1be2c89b69c2b068fc378daa952ba7f163c4a11628f55a4df523b3ef",
            "0x000000000000000000000000c77f7fed3b5cc8249adc428c5f44c9063b9734b4",
            "0x000000000000000000000000c77f7fed3b5cc8249adc428c5f44c9063b9734b4"
          ],
          "data": "0x000000000000000000000000000000000000000000000000000002c95d398513",
          "blockHash": "0x6aa0ec19740ad998dcac67ce6b34fdf353b86afddfb0c0a2b7048cbcd1211f6e",
          "blockNumber": "0x73140c",
          "transactionHash": "0x847d9302b3314d09421d64669187e131ffe4d1b0b74ae4d6936b6203ab7e6a0c",
          "transactionIndex": "0x8f",
          "logIndex": "0xdb",
          "removed": false
        },
        {
          "address": "0x8aafd3ede9adb0ff97c7aebce82a919afb1c8764",
          "topics": [
            "0x4afcb4a87cdbd9974efdb92ee48bc8d7cd0ae4bf217004db3d080cbaee652ca7"
          ],
          "data": "0x00000000000000000000000000000000000000000000000000000000678fed3c0000000000000000000000000000000000000000000000000004b7c88a182104000000000000000000000000000000000000000000000000000000766a7b076e",
          "blockHash": "0x6aa0ec19740ad998dcac67ce6b34fdf353b86afddfb0c0a2b7048cbcd1211f6e",
          "blockNumber": "0x73140c",
          "transactionHash": "0x847d9302b3314d09421d64669187e131ffe4d1b0b74ae4d6936b6203ab7e6a0c",
          "transactionIndex": "0x8f",
          "logIndex": "0xdc",
          "removed": false
        }
      ],
      "logsBloom": "0x00000000000000000000000000000000000000000600000000000000000000000000000000000000000000000000000000000000000000004000000000000000000000000000004000000008000000000000000000000000000000000000000000000000020000000000000000000800020000000000000000000010000000000000000000000000000000000000000000000000000000000000010000000000000000000000000000000000000000004000000000000000000000000000000000000002000000800000000000000000000000000000080000000000000020000000000000000000000000000000000000000000000000000000000000000000",
      "type": "0x2",
      "transactionHash": "0x847d9302b3314d09421d64669187e131ffe4d1b0b74ae4d6936b6203ab7e6a0c",
      "transactionIndex": "0x8f",
      "blockHash": "0x6aa0ec19740ad998dcac67ce6b34fdf353b86afddfb0c0a2b7048cbcd1211f6e",
      "blockNumber": "0x73140c",
      "gasUsed": "0xfd33",
      "effectiveGasPrice": "0x81b346c9",
      "from": "0xc77f7fed3b5cc8249adc428c5f44c9063b9734b4",
      "to": "0x8aafd3ede9adb0ff97c7aebce82a919afb1c8764",
      "contractAddress": null
    }
  ],
  "libraries": [],
  "pending": [],
  "returns": {},
  "timestamp": 1737485630,
  "chain": 11155111,
  "commit": "51a374b"
}