{
  "transactions": [
    {
      "hash": "0x755a3d3886cf10719d095c81e3a5416f59b6ca0be15b5f4c743e8a7871bfb2e1",
      "transactionType": "CALL",
      "contractName": null,
      "contractAddress": "0x8aafd3ede9adb0ff97c7aebce82a919afb1c8764",
      "function": "sell(uint256)",
      "arguments": [
        "748274171202034628927"
      ],
      "transaction": {
        "from": "0xc77f7fed3b5cc8249adc428c5f44c9063b9734b4",
        "to": "0x8aafd3ede9adb0ff97c7aebce82a919afb1c8764",
        "gas": "0x17270",
        "value": "0x0",
        "input": "0xe4849b320000000000000000000000000000000000000000000000289063e22e891a793f",
        "nonce": "0xe9c",
        "chainId": "0xaa36a7"
      },
      "additionalContracts": [],
      "isFixedGasLimit": false
    }
  ],
  "receipts": [
    {
      "status": "0x1",
      "cumulativeGasUsed": "0xd12421",
      "logs": [
        {
          "address": "0x8aafd3ede9adb0ff97c7aebce82a919afb1c8764",
          "topics": [
            "0xddf252ad1be2c89b69c2b068fc378daa952ba7f163c4a11628f55a4df523b3ef",
            "0x000000000000000000000000c77f7fed3b5cc8249adc428c5f44c9063b9734b4",
            "0x0000000000000000000000000000000000000000000000000000000000000000"
          ],
          "data": "0x0000000000000000000000000000000000000000000000283d50a70740539b18",
          "blockHash": "0xbfe4b910f650a15cd382bca39f08f0578e02a956e64e51c5491d988bf4270559",
          "blockNumber": "0x7313fd",
          "transactionHash": "0x755a3d3886cf10719d095c81e3a5416f59b6ca0be15b5f4c743e8a7871bfb2e1",
          "transactionIndex": "0xa4",
          "logIndex": "0xf8",
          "removed": false
        },
        {
          "address": "0x8aafd3ede9adb0ff97c7aebce82a919afb1c8764",
          "topics": [
            "0xddf252ad1be2c89b69c2b068fc378daa952ba7f163c4a11628f55a4df523b3ef",
            "0x000000000000000000000000c77f7fed3b5cc8249adc428c5f44c9063b9734b4",
            "0x000000000000000000000000c77f7fed3b5cc8249adc428c5f44c9063b9734b4"
          ],
          "data": "0x00000000000000000000000000000000000000000000000053133b2748c6de27",
          "blockHash": "0xbfe4b910f650a15cd382bca39f08f0578e02a956e64e51c5491d988bf4270559",
          "blockNumber": "0x7313fd",
          "transactionHash": "0x755a3d3886cf10719d095c81e3a5416f59b6ca0be15b5f4c743e8a7871bfb2e1",
          "transactionIndex": "0xa4",
          "logIndex": "0xf9",
          "removed": false
        },
        {
          "address": "0x8aafd3ede9adb0ff97c7aebce82a919afb1c8764",
          "topics": [
            "0x4afcb4a87cdbd9974efdb92ee48bc8d7cd0ae4bf217004db3d080cbaee652ca7"
          ],
          "data": "0x00000000000000000000000000000000000000000000000000000000678fec880000000000000000000000000000000000000000000000000004b75d8363cab70000000000000000000000000000000000000000000000000dc834b1e6b2915f",
          "blockHash": "0xbfe4b910f650a15cd382bca39f08f0578e02a956e64e51c5491d988bf4270559",
          "blockNumber": "0x7313fd",
          "transactionHash": "0x755a3d3886cf10719d095c81e3a5416f59b6ca0be15b5f4c743e8a7871bfb2e1",
          "transactionIndex": "0xa4",
          "logIndex": "0xfa",
          "removed": false
        }
      ],
      "logsBloom": "0x00000000000000000000000000000000000000000600000000000000000000000000000000000000000000000000000000000000000000004000000000000000000000000000004000000008000000000000000000000000000000000000000000000000020000000000000000000800020000000000000000000010000000000000000000000000000000000000000000000000000000000000010000000000000000000000000000000000000000004000000000000000000000000000000000000002000000800000000000000000000000000000080000000000000020000000000000000000000000000000000000000000000000000000000000000000",
      "type": "0x2",
      "transactionHash": "0x755a3d3886cf10719d095c81e3a5416f59b6ca0be15b5f4c743e8a7871bfb2e1",
      "transactionIndex": "0xa4",
      "blockHash": "0xbfe4b910f650a15cd382bca39f08f0578e02a956e64e51c5491d988bf4270559",
      "blockNumber": "0x7313fd",
      "gasUsed": "0xfd4b",
      "effectiveGasPrice": "0x7e65b84e",
      "from": "0xc77f7fed3b5cc8249adc428c5f44c9063b9734b4",
      "to": "0x8aafd3ede9adb0ff97c7aebce82a919afb1c8764",
      "contractAddress": null
    }
  ],
  "libraries": [],
  "pending": [],
  "returns": {},
  "timestamp": 1737485449,
  "chain": 11155111,
  "commit": "51a374b"
}