{
  "transactions": [
    {
      "hash": "0x82af649d419f8019472eab5b81f752ef2478d241fe4d228f9ba7fdcff85db014",
      "transactionType": "CALL",
      "contractName": null,
      "contractAddress": "0xbf4a322f1496e5c3d34a9bcdb4c60567b38c7de2",
      "function": "sell(uint256)",
      "arguments": [
        "974113730304668863862"
      ],
      "transaction": {
        "from": "0xc77f7fed3b5cc8249adc428c5f44c9063b9734b4",
        "to": "0xbf4a322f1496e5c3d34a9bcdb4c60567b38c7de2",
        "gas": "0x16fea",
        "value": "0x0",
        "input": "0xe4849b32000000000000000000000000000000000000000000000034ce8b2ca2e8740d76",
        "nonce": "0xdd1",
        "chainId": "0xaa36a7"
      },
      "additionalContracts": [],
      "isFixedGasLimit": false
    }
  ],
  "receipts": [
    {
      "status": "0x1",
      "cumulativeGasUsed": "0x12f25eb",
      "logs": [
        {
          "address": "0xbf4a322f1496e5c3d34a9bcdb4c60567b38c7de2",
          "topics": [
            "0xddf252ad1be2c89b69c2b068fc378daa952ba7f163c4a11628f55a4df523b3ef",
            "0x000000000000000000000000c77f7fed3b5cc8249adc428c5f44c9063b9734b4",
            "0x0000000000000000000000000000000000000000000000000000000000000000"
          ],
          "data": "0x000000000000000000000000000000000000000000000034ce8b2ca2e8740d76",
          "blockHash": "0x01595c1a5ca9350a72beb1650b77c2fb32bde493a3e905fc6ef94c3ce6c0992f",
          "blockNumber": "0x7266af",
          "transactionHash": "0x82af649d419f8019472eab5b81f752ef2478d241fe4d228f9ba7fdcff85db014",
          "transactionIndex": "0x52",
          "logIndex": "0x6c",
          "removed": false
        },
        {
          "address": "0xbf4a322f1496e5c3d34a9bcdb4c60567b38c7de2",
          "topics": [
            "0x4afcb4a87cdbd9974efdb92ee48bc8d7cd0ae4bf217004db3d080cbaee652ca7"
          ],
          "data": "0x000000000000000000000000000000000000000000000000000000006787c33800000000000000000000000000000000000000000000000000039f27fba181140000000000000000000000000000000000000000000000000dc7e3d4616490e0",
          "blockHash": "0x01595c1a5ca9350a72beb1650b77c2fb32bde493a3e905fc6ef94c3ce6c0992f",
          "blockNumber": "0x7266af",
          "transactionHash": "0x82af649d419f8019472eab5b81f752ef2478d241fe4d228f9ba7fdcff85db014",
          "transactionIndex": "0x52",
          "logIndex": "0x6d",
          "removed": false
        }
      ],
      "logsBloom": "0x00000000000000000000000000000000000000000000000000000000000000000000000000000000000000000000000000000000000000004000000000000000000000000000000000000008000000000000001000000000000000000000000000000000020000000000000000000800020000000000000000000010000000000000000000000000000000000000000000000000000008000000010000000000000000000000000000000000000000004000000000000000000000000000000000000002000000800000000000001000000000000000080000000000000020000000000000000000000000000000000000000000000000000000000000000000",
      "type": "0x2",
      "transactionHash": "0x82af649d419f8019472eab5b81f752ef2478d241fe4d228f9ba7fdcff85db014",
      "transactionIndex": "0x52",
      "blockHash": "0x01595c1a5ca9350a72beb1650b77c2fb32bde493a3e905fc6ef94c3ce6c0992f",
      "blockNumber": "0x7266af",
      "gasUsed": "0xfb91",
      "effectiveGasPrice": "0x19c04f66d",
      "from": "0xc77f7fed3b5cc8249adc428c5f44c9063b9734b4",
      "to": "0xbf4a322f1496e5c3d34a9bcdb4c60567b38c7de2",
      "contractAddress": null
    }
  ],
  "libraries": [],
  "pending": [],
  "returns": {},
  "timestamp": 1736950585,
  "chain": 11155111,
  "commit": "51a374b"
}