{
  "transactions": [
    {
      "hash": "0xc826304f416d6638ce1f7fe22a8e8dac8a97e51b02035d6027218635745a7015",
      "transactionType": "CALL",
      "contractName": null,
      "contractAddress": "0x8aafd3ede9adb0ff97c7aebce82a919afb1c8764",
      "function": "sell(uint256)",
      "arguments": [
        "5293807659007013745"
      ],
      "transaction": {
        "from": "0xc77f7fed3b5cc8249adc428c5f44c9063b9734b4",
        "to": "0x8aafd3ede9adb0ff97c7aebce82a919afb1c8764",
        "gas": "0x15dca",
        "value": "0x0",
        "input": "0xe4849b3200000000000000000000000000000000000000000000000049776204a05af371",
        "nonce": "0x12fe",
        "chainId": "0xaa36a7"
      },
      "additionalContracts": [],
      "isFixedGasLimit": false
    }
  ],
  "receipts": [
    {
      "status": "0x1",
      "cumulativeGasUsed": "0xdbcda2",
      "logs": [
        {
          "address": "0x8aafd3ede9adb0ff97c7aebce82a919afb1c8764",
          "topics": [
            "0xddf252ad1be2c89b69c2b068fc378daa952ba7f163c4a11628f55a4df523b3ef",
            "0x000000000000000000000000c77f7fed3b5cc8249adc428c5f44c9063b9734b4",
            "0x0000000000000000000000000000000000000000000000000000000000000000"
          ],
          "data": "0x00000000000000000000000000000000000000000000000048e0ec7f78291244",
          "blockHash": "0xaafa4d9b56eddd4adb11076546f61d472b0ad9c17bdf6089e81b3cb90699ae68",
          "blockNumber": "0x731a06",
          "transactionHash": "0xc826304f416d6638ce1f7fe22a8e8dac8a97e51b02035d6027218635745a7015",
          "transactionIndex": "0x73",
          "logIndex": "0x85",
          "removed": false
        },
        {
          "address": "0x8aafd3ede9adb0ff97c7aebce82a919afb1c8764",
          "topics": [
            "0xddf252ad1be2c89b69c2b068fc378daa952ba7f163c4a11628f55a4df523b3ef",
            "0x000000000000000000000000c77f7fed3b5cc8249adc428c5f44c9063b9734b4",
            "0x000000000000000000000000c77f7fed3b5cc8249adc428c5f44c9063b9734b4"
          ],
          "data": "0x000000000000000000000000000000000000000000000000009675852831e12d",
          "blockHash": "0xaafa4d9b56eddd4adb11076546f61d472b0ad9c17bdf6089e81b3cb90699ae68",
          "blockNumber": "0x731a06",
          "transactionHash": "0xc826304f416d6638ce1f7fe22a8e8dac8a97e51b02035d6027218635745a7015",
          "transactionIndex": "0x73",
          "logIndex": "0x86",
          "removed": false
        },
        {
          "address": "0x8aafd3ede9adb0ff97c7aebce82a919afb1c8764",
          "topics": [
            "0x4afcb4a87cdbd9974efdb92ee48bc8d7cd0ae4bf217004db3d080cbaee652ca7"
          ],
          "data": "0x0000000000000000000000000000000000000000000000000000000067903518000000000000000000000000000000000000000000000000000b41be1cfa17fb000000000000000000000000000000000000000000000000003b959cb6d17801",
          "blockHash": "0xaafa4d9b56eddd4adb11076546f61d472b0ad9c17bdf6089e81b3cb90699ae68",
          "blockNumber": "0x731a06",
          "transactionHash": "0xc826304f416d6638ce1f7fe22a8e8dac8a97e51b02035d6027218635745a7015",
          "transactionIndex": "0x73",
          "logIndex": "0x87",
          "removed": false
        }
      ],
      "logsBloom": "0x00000000000000000000000000000000000000000600000000000000000000000000000000000000000000000000000000000000000000004000000000000000000000000000004000000008000000000000000000000000000000000000000000000000020000000000000000000800020000000000000000000010000000000000000000000000000000000000000000000000000000000000010000000000000000000000000000000000000000004000000000000000000000000000000000000002000000800000000000000000000000000000080000000000000020000000000000000000000000000000000000000000000000000000000000000000",
      "type": "0x2",
      "transactionHash": "0xc826304f416d6638ce1f7fe22a8e8dac8a97e51b02035d6027218635745a7015",
      "transactionIndex": "0x73",
      "blockHash": "0xaafa4d9b56eddd4adb11076546f61d472b0ad9c17bdf6089e81b3cb90699ae68",
      "blockNumber": "0x731a06",
      "gasUsed": "0xfd3f",
      "effectiveGasPrice": "0x48a71274",
      "from": "0xc77f7fed3b5cc8249adc428c5f44c9063b9734b4",
      "to": "0x8aafd3ede9adb0ff97c7aebce82a919afb1c8764",
      "contractAddress": null
    }
  ],
  "libraries": [],
  "pending": [],
  "returns": {},
  "timestamp": 1737504025,
  "chain": 11155111,
  "commit": "1d2fb70"
}