{
  "transactions": [
    {
      "hash": "0x5924d83b870ad2f9d17426fef144f916b1ddf220c010b86b7490264cd09e86db",
      "transactionType": "CALL",
      "contractName": null,
      "contractAddress": "0x270e88f8683660553e8ba4eb2ad7c91a1710d769",
      "function": "buy(address)",
      "arguments": [
        "0xC77f7fed3b5Cc8249aDc428c5F44C9063B9734b4"
      ],
      "transaction": {
        "from": "0xc77f7fed3b5cc8249adc428c5f44c9063b9734b4",
        "to": "0x270e88f8683660553e8ba4eb2ad7c91a1710d769",
        "gas": "0x1b30c",
        "value": "0xde0b6b3a7640000",
        "input": "0xf088d547000000000000000000000000c77f7fed3b5cc8249adc428c5f44c9063b9734b4",
        "nonce": "0x69d",
        "chainId": "0xaa36a7"
      },
      "additionalContracts": [],
      "isFixedGasLimit": false
    }
  ],
  "receipts": [
    {
      "status": "0x1",
      "cumulativeGasUsed": "0x76dd77",
      "logs": [
        {
          "address": "0x270e88f8683660553e8ba4eb2ad7c91a1710d769",
          "topics": [
            "0xddf252ad1be2c89b69c2b068fc378daa952ba7f163c4a11628f55a4df523b3ef",
            "0x0000000000000000000000000000000000000000000000000000000000000000",
            "0x000000000000000000000000c77f7fed3b5cc8249adc428c5f44c9063b9734b4"
          ],
          "data": "0x000000000000000000000000000000000000000000000028c366150f34fdb9d9",
          "blockHash": "0x3af0398f487f62cc3969db6992a3398ec062e959896a0edf83048d618e251190",
          "blockNumber": "0x7253a1",
          "transactionHash": "0x5924d83b870ad2f9d17426fef144f916b1ddf220c010b86b7490264cd09e86db",
          "transactionIndex": "0x58",
          "logIndex": "0x6f",
          "removed": false
        },
        {
          "address": "0x270e88f8683660553e8ba4eb2ad7c91a1710d769",
          "topics": [
            "0xddf252ad1be2c89b69c2b068fc378daa952ba7f163c4a11628f55a4df523b3ef",
            "0x0000000000000000000000000000000000000000000000000000000000000000",
            "0x000000000000000000000000c77f7fed3b5cc8249adc428c5f44c9063b9734b4"
          ],
          "data": "0x0000000000000000000000000000000000000000000000001fa7716e1ab3e28e",
          "blockHash": "0x3af0398f487f62cc3969db6992a3398ec062e959896a0edf83048d618e251190",
          "blockNumber": "0x7253a1",
          "transactionHash": "0x5924d83b870ad2f9d17426fef144f916b1ddf220c010b86b7490264cd09e86db",
          "transactionIndex": "0x58",
          "logIndex": "0x70",
          "removed": false
        },
        {
          "address": "0x270e88f8683660553e8ba4eb2ad7c91a1710d769",
          "topics": [
            "0x4afcb4a87cdbd9974efdb92ee48bc8d7cd0ae4bf217004db3d080cbaee652ca7"
          ],
          "data": "0x000000000000000000000000000000000000000000000000000000006786dd940000000000000000000000000000000000000000000000000004ad865f7f7c7c0000000000000000000000000000000000000000000000000de0b6b3a7640000",
          "blockHash": "0x3af0398f487f62cc3969db6992a3398ec062e959896a0edf83048d618e251190",
          "blockNumber": "0x7253a1",
          "transactionHash": "0x5924d83b870ad2f9d17426fef144f916b1ddf220c010b86b7490264cd09e86db",
          "transactionIndex": "0x58",
          "logIndex": "0x71",
          "removed": false
        }
      ],
      "logsBloom": "0x00000000000000000000000000000000000000000000000000000000000000000000000000000000000000000000000020000000000000004000000000000000000000000000000000000008000000000000000000000000000000000000000000000000020000000000000000000800020000000000000000000010000000000000000000010000000000000000000000000000000000000000010000000000000000000000000000000000000000004000000000000000000000000000000000000002000000800000000000000000000000000000080000008000000020000000000000000000000000000000000000000000000000000000000000000000",
      "type": "0x2",
      "transactionHash": "0x5924d83b870ad2f9d17426fef144f916b1ddf220c010b86b7490264cd09e86db",
      "transactionIndex": "0x58",
      "blockHash": "0x3af0398f487f62cc3969db6992a3398ec062e959896a0edf83048d618e251190",
      "blockNumber": "0x7253a1",
      "gasUsed": "0x13af8",
      "effectiveGasPrice": "0x1b301606a",
      "from": "0xc77f7fed3b5cc8249adc428c5f44c9063b9734b4",
      "to": "0x270e88f8683660553e8ba4eb2ad7c91a1710d769",
      "contractAddress": null
    }
  ],
  "libraries": [],
  "pending": [],
  "returns": {},
  "timestamp": 1736891797,
  "chain": 11155111,
  "commit": "51a374b"
}