{
  "transactions": [
    {
      "hash": "0xa4fb46a64a1f7e103943588735fcc03dd5b7b63eeb367960e40843ed35f57c93",
      "transactionType": "CALL",
      "contractName": null,
      "contractAddress": "0x8aafd3ede9adb0ff97c7aebce82a919afb1c8764",
      "function": "sell(uint256)",
      "arguments": [
        "381670344624407"
      ],
      "transaction": {
        "from": "0xc77f7fed3b5cc8249adc428c5f44c9063b9734b4",
        "to": "0x8aafd3ede9adb0ff97c7aebce82a919afb1c8764",
        "gas": "0x1724d",
        "value": "0x0",
        "input": "0xe4849b3200000000000000000000000000000000000000000000000000015b208d500917",
        "nonce": "0xf0d",
        "chainId": "0xaa36a7"
      },
      "additionalContracts": [],
      "isFixedGasLimit": false
    }
  ],
  "receipts": [
    {
      "status": "0x1",
      "cumulativeGasUsed": "0xcce2fe",
      "logs": [
        {
          "address": "0x8aafd3ede9adb0ff97c7aebce82a919afb1c8764",
          "topics": [
            "0xddf252ad1be2c89b69c2b068fc378daa952ba7f163c4a11628f55a4df523b3ef",
            "0x000000000000000000000000c77f7fed3b5cc8249adc428c5f44c9063b9734b4",
            "0x0000000000000000000000000000000000000000000000000000000000000000"
          ],
          "data": "0x00000000000000000000000000000000000000000000000000015859a2b5cb94",
          "blockHash": "0xb065611cd6b756c74cb7417e84e17e30eda9575072a184134e36470eaf2bd860",
          "blockNumber": "0x731486",
          "transactionHash": "0xa4fb46a64a1f7e103943588735fcc03dd5b7b63eeb367960e40843ed35f57c93",
          "transactionIndex": "0x81",
          "logIndex": "0xfd",
          "removed": false
        },
        {
          "address": "0x8aafd3ede9adb0ff97c7aebce82a919afb1c8764",
          "topics": [
            "0xddf252ad1be2c89b69c2b068fc378daa952ba7f163c4a11628f55a4df523b3ef",
            "0x000000000000000000000000c77f7fed3b5cc8249adc428c5f44c9063b9734b4",
            "0x000000000000000000000000c77f7fed3b5cc8249adc428c5f44c9063b9734b4"
          ],
          "data": "0x000000000000000000000000000000000000000000000000000002c6ea9a3d83",
          "blockHash": "0xb065611cd6b756c74cb7417e84e17e30eda9575072a184134e36470eaf2bd860",
          "blockNumber": "0x731486",
          "transactionHash": "0xa4fb46a64a1f7e103943588735fcc03dd5b7b63eeb367960e40843ed35f57c93",
          "transactionIndex": "0x81",
          "logIndex": "0xfe",
          "removed": false
        },
        {
          "address": "0x8aafd3ede9adb0ff97c7aebce82a919afb1c8764",
          "topics": [
            "0x4afcb4a87cdbd9974efdb92ee48bc8d7cd0ae4bf217004db3d080cbaee652ca7"
          ],
          "data": "0x00000000000000000000000000000000000000000000000000000000678ff2f40000000000000000000000000000000000000000000000000004bbf0bfdfec2c000000000000000000000000000000000000000000000000000000766a71e6af",
          "blockHash": "0xb065611cd6b756c74cb7417e84e17e30eda9575072a184134e36470eaf2bd860",
          "blockNumber": "0x731486",
          "transactionHash": "0xa4fb46a64a1f7e103943588735fcc03dd5b7b63eeb367960e40843ed35f57c93",
          "transactionIndex": "0x81",
          "logIndex": "0xff",
          "removed": false
        }
      ],
      "logsBloom": "0x00000000000000000000000000000000000000000600000000000000000000000000000000000000000000000000000000000000000000004000000000000000000000000000004000000008000000000000000000000000000000000000000000000000020000000000000000000800020000000000000000000010000000000000000000000000000000000000000000000000000000000000010000000000000000000000000000000000000000004000000000000000000000000000000000000002000000800000000000000000000000000000080000000000000020000000000000000000000000000000000000000000000000000000000000000000",
      "type": "0x2",
      "transactionHash": "0xa4fb46a64a1f7e103943588735fcc03dd5b7b63eeb367960e40843ed35f57c93",
      "transactionIndex": "0x81",
      "blockHash": "0xb065611cd6b756c74cb7417e84e17e30eda9575072a184134e36470eaf2bd860",
      "blockNumber": "0x731486",
      "gasUsed": "0xfd33",
      "effectiveGasPrice": "0x8d1f90c4",
      "from": "0xc77f7fed3b5cc8249adc428c5f44c9063b9734b4",
      "to": "0x8aafd3ede9adb0ff97c7aebce82a919afb1c8764",
      "contractAddress": null
    }
  ],
  "libraries": [],
  "pending": [],
  "returns": {},
  "timestamp": 1737487093,
  "chain": 11155111,
  "commit": "51a374b"
}