{
  "transactions": [
    {
      "hash": "0x3f0d0b088ae2a749dcd58e5cfa794db69ed2b9aedc11c65ccc6833c50d4c9a79",
      "transactionType": "CALL",
      "contractName": null,
      "contractAddress": "0x8aafd3ede9adb0ff97c7aebce82a919afb1c8764",
      "function": "sell(uint256)",
      "arguments": [
        "84484769083306"
      ],
      "transaction": {
        "from": "0xc77f7fed3b5cc8249adc428c5f44c9063b9734b4",
        "to": "0x8aafd3ede9adb0ff97c7aebce82a919afb1c8764",
        "gas": "0x15daa",
        "value": "0x0",
        "input": "0xe4849b3200000000000000000000000000000000000000000000000000004cd6a4a66faa",
        "nonce": "0x167c",
        "chainId": "0xaa36a7"
      },
      "additionalContracts": [],
      "isFixedGasLimit": false
    }
  ],
  "receipts": [
    {
      "status": "0x1",
      "cumulativeGasUsed": "0xac5b7b",
      "logs": [
        {
          "address": "0x8aafd3ede9adb0ff97c7aebce82a919afb1c8764",
          "topics": [
            "0xddf252ad1be2c89b69c2b068fc378daa952ba7f163c4a11628f55a4df523b3ef",
            "0x000000000000000000000000c77f7fed3b5cc8249adc428c5f44c9063b9734b4",
            "0x0000000000000000000000000000000000000000000000000000000000000000"
          ],
          "data": "0x00000000000000000000000000000000000000000000000000004c39472c45d0",
          "blockHash": "0xd620727f89cb6537afec1037991c0e14738f2fd4047ba4124122886e9d45f40b",
          "blockNumber": "0x731e2d",
          "transactionHash": "0x3f0d0b088ae2a749dcd58e5cfa794db69ed2b9aedc11c65ccc6833c50d4c9a79",
          "transactionIndex": "0x6e",
          "logIndex": "0xa4",
          "removed": false
        },
        {
          "address": "0x8aafd3ede9adb0ff97c7aebce82a919afb1c8764",
          "topics": [
            "0xddf252ad1be2c89b69c2b068fc378daa952ba7f163c4a11628f55a4df523b3ef",
            "0x000000000000000000000000c77f7fed3b5cc8249adc428c5f44c9063b9734b4",
            "0x000000000000000000000000c77f7fed3b5cc8249adc428c5f44c9063b9734b4"
          ],
          "data": "0x0000000000000000000000000000000000000000000000000000009d5d7a29da",
          "blockHash": "0xd620727f89cb6537afec1037991c0e14738f2fd4047ba4124122886e9d45f40b",
          "blockNumber": "0x731e2d",
          "transactionHash": "0x3f0d0b088ae2a749dcd58e5cfa794db69ed2b9aedc11c65ccc6833c50d4c9a79",
          "transactionIndex": "0x6e",
          "logIndex": "0xa5",
          "removed": false
        },
        {
          "address": "0x8aafd3ede9adb0ff97c7aebce82a919afb1c8764",
          "topics": [
            "0x4afcb4a87cdbd9974efdb92ee48bc8d7cd0ae4bf217004db3d080cbaee652ca7"
          ],
          "data": "0x000000000000000000000000000000000000000000000000000000006790670400000000000000000000000000000000000000000000000000157c0e9920461700000000000000000000000000000000000000000000000000000076f4ae8535",
          "blockHash": "0xd620727f89cb6537afec1037991c0e14738f2fd4047ba4124122886e9d45f40b",
          "blockNumber": "0x731e2d",
          "transactionHash": "0x3f0d0b088ae2a749dcd58e5cfa794db69ed2b9aedc11c65ccc6833c50d4c9a79",
          "transactionIndex": "0x6e",
          "logIndex": "0xa6",
          "removed": false
        }
      ],
      "logsBloom": "0x00000000000000000000000000000000000000000600000000000000000000000000000000000000000000000000000000000000000000004000000000000000000000000000004000000008000000000000000000000000000000000000000000000000020000000000000000000800020000000000000000000010000000000000000000000000000000000000000000000000000000000000010000000000000000000000000000000000000000004000000000000000000000000000000000000002000000800000000000000000000000000000080000000000000020000000000000000000000000000000000000000000000000000000000000000000",
      "type": "0x2",
      "transactionHash": "0x3f0d0b088ae2a749dcd58e5cfa794db69ed2b9aedc11c65ccc6833c50d4c9a79",
      "transactionIndex": "0x6e",
      "blockHash": "0xd620727f89cb6537afec1037991c0e14738f2fd4047ba4124122886e9d45f40b",
      "blockNumber": "0x731e2d",
      "gasUsed": "0xfd27",
      "effectiveGasPrice": "0x4fa54603",
      "from": "0xc77f7fed3b5cc8249adc428c5f44c9063b9734b4",
      "to": "0x8aafd3ede9adb0ff97c7aebce82a919afb1c8764",
      "contractAddress": null
    }
  ],
  "libraries": [],
  "pending": [],
  "returns": {},
  "timestamp": 1737516805,
  "chain": 11155111,
  "commit": "1d2fb70"
}