{
  "transactions": [
    {
      "hash": "0x734f8c15ef7bf4fd6073a6029e8b926b52b457cd714608ce9337c33ea55f39e5",
      "transactionType": "CALL",
      "contractName": null,
      "contractAddress": "0x270e88f8683660553e8ba4eb2ad7c91a1710d769",
      "function": "sell(uint256)",
      "arguments": [
        "945553842965849573267"
      ],
      "transaction": {
        "from": "0xc77f7fed3b5cc8249adc428c5f44c9063b9734b4",
        "to": "0x270e88f8683660553e8ba4eb2ad7c91a1710d769",
        "gas": "0x16fec",
        "value": "0x0",
        "input": "0xe4849b320000000000000000000000000000000000000000000000334232126b20f40793",
        "nonce": "0x60d",
        "chainId": "0xaa36a7"
      },
      "additionalContracts": [],
      "isFixedGasLimit": false
    }
  ],
  "receipts": [
    {
      "status": "0x1",
      "cumulativeGasUsed": "0x9d8de3",
      "logs": [
        {
          "address": "0x270e88f8683660553e8ba4eb2ad7c91a1710d769",
          "topics": [
            "0xddf252ad1be2c89b69c2b068fc378daa952ba7f163c4a11628f55a4df523b3ef",
            "0x000000000000000000000000c77f7fed3b5cc8249adc428c5f44c9063b9734b4",
            "0x0000000000000000000000000000000000000000000000000000000000000000"
          ],
          "data": "0x0000000000000000000000000000000000000000000000334232126b20f40793",
          "blockHash": "0xcb6d7b679db8645fcb8ac5bc79c80e281d83cbc7bdb0a3587f2cc6d300d50fa3",
          "blockNumber": "0x7252d7",
          "transactionHash": "0x734f8c15ef7bf4fd6073a6029e8b926b52b457cd714608ce9337c33ea55f39e5",
          "transactionIndex": "0x49",
          "logIndex": "0xae",
          "removed": false
        },
        {
          "address": "0x270e88f8683660553e8ba4eb2ad7c91a1710d769",
          "topics": [
            "0x4afcb4a87cdbd9974efdb92ee48bc8d7cd0ae4bf217004db3d080cbaee652ca7"
          ],
          "data": "0x000000000000000000000000000000000000000000000000000000006786d41c0000000000000000000000000000000000000000000000000003bb6d4cf0b3400000000000000000000000000000000000000000000000000dc83db39fdd3e3c",
          "blockHash": "0xcb6d7b679db8645fcb8ac5bc79c80e281d83cbc7bdb0a3587f2cc6d300d50fa3",
          "blockNumber": "0x7252d7",
          "transactionHash": "0x734f8c15ef7bf4fd6073a6029e8b926b52b457cd714608ce9337c33ea55f39e5",
          "transactionIndex": "0x49",
          "logIndex": "0xaf",
          "removed": false
        }
      ],
      "logsBloom": "0x00000000000000000000000000000000000000000000000000000000000000000000000000000000000000000000000020000000000000004000000000000000000000000000000000000008000000000000000000000000000000000000000000000000020000000000000000000800020000000000000000000010000000000000000000010000000000000000000000000000000000000000010000000000000000000000000000000000000000004000000000000000000000000000000000000002000000800000000000000000000000000000080000008000000020000000000000000000000000000000000000000000000000000000000000000000",
      "type": "0x2",
      "transactionHash": "0x734f8c15ef7bf4fd6073a6029e8b926b52b457cd714608ce9337c33ea55f39e5",
      "transactionIndex": "0x49",
      "blockHash": "0xcb6d7b679db8645fcb8ac5bc79c80e281d83cbc7bdb0a3587f2cc6d300d50fa3",
      "blockNumber": "0x7252d7",
      "gasUsed": "0xfb93",
      "effectiveGasPrice": "0x2a420c12f",
      "from": "0xc77f7fed3b5cc8249adc428c5f44c9063b9734b4",
      "to": "0x270e88f8683660553e8ba4eb2ad7c91a1710d769",
      "contractAddress": null
    }
  ],
  "libraries": [],
  "pending": [],
  "returns": {},
  "timestamp": 1736889373,
  "chain": 11155111,
  "commit": "51a374b"
}