{
  "transactions": [
    {
      "hash": "0x1e3e2c314bfa6fa63586f90261b68389a952018ae64284726f7e5083e92942ab",
      "transactionType": "CALL",
      "contractName": null,
      "contractAddress": "0x270e88f8683660553e8ba4eb2ad7c91a1710d769",
      "function": "buy(address)",
      "arguments": [
        "0xC77f7fed3b5Cc8249aDc428c5F44C9063B9734b4"
      ],
      "transaction": {
        "from": "0xc77f7fed3b5cc8249adc428c5f44c9063b9734b4",
        "to": "0x270e88f8683660553e8ba4eb2ad7c91a1710d769",
        "gas": "0x1b30c",
        "value": "0xde0b6b3a7640000",
        "input": "0xf088d547000000000000000000000000c77f7fed3b5cc8249adc428c5f44c9063b9734b4",
        "nonce": "0x61c",
        "chainId": "0xaa36a7"
      },
      "additionalContracts": [],
      "isFixedGasLimit": false
    }
  ],
  "receipts": [
    {
      "status": "0x1",
      "cumulativeGasUsed": "0x116d1d5",
      "logs": [
        {
          "address": "0x270e88f8683660553e8ba4eb2ad7c91a1710d769",
          "topics": [
            "0xddf252ad1be2c89b69c2b068fc378daa952ba7f163c4a11628f55a4df523b3ef",
            "0x0000000000000000000000000000000000000000000000000000000000000000",
            "0x000000000000000000000000c77f7fed3b5cc8249adc428c5f44c9063b9734b4"
          ],
          "data": "0x000000000000000000000000000000000000000000000032fa877cba342d36eb",
          "blockHash": "0x810bdfcba035885b517843a3446c037736aae1fe97c4000c02c73fe82d23107a",
          "blockNumber": "0x7252e9",
          "transactionHash": "0x1e3e2c314bfa6fa63586f90261b68389a952018ae64284726f7e5083e92942ab",
          "transactionIndex": "0x48",
          "logIndex": "0x94",
          "removed": false
        },
        {
          "address": "0x270e88f8683660553e8ba4eb2ad7c91a1710d769",
          "topics": [
            "0xddf252ad1be2c89b69c2b068fc378daa952ba7f163c4a11628f55a4df523b3ef",
            "0x0000000000000000000000000000000000000000000000000000000000000000",
            "0x000000000000000000000000c77f7fed3b5cc8249adc428c5f44c9063b9734b4"
          ],
          "data": "0x00000000000000000000000000000000000000000000000027962e5d5c5339ee",
          "blockHash": "0x810bdfcba035885b517843a3446c037736aae1fe97c4000c02c73fe82d23107a",
          "blockNumber": "0x7252e9",
          "transactionHash": "0x1e3e2c314bfa6fa63586f90261b68389a952018ae64284726f7e5083e92942ab",
          "transactionIndex": "0x48",
          "logIndex": "0x95",
          "removed": false
        },
        {
          "address": "0x270e88f8683660553e8ba4eb2ad7c91a1710d769",
          "topics": [
            "0x4afcb4a87cdbd9974efdb92ee48bc8d7cd0ae4bf217004db3d080cbaee652ca7"
          ],
          "data": "0x000000000000000000000000000000000000000000000000000000006786d4f40000000000000000000000000000000000000000000000000003bd945b2d69560000000000000000000000000000000000000000000000000de0b6b3a7640000",
          "blockHash": "0x810bdfcba035885b517843a3446c037736aae1fe97c4000c02c73fe82d23107a",
          "blockNumber": "0x7252e9",
          "transactionHash": "0x1e3e2c314bfa6fa63586f90261b68389a952018ae64284726f7e5083e92942ab",
          "transactionIndex": "0x48",
          "logIndex": "0x96",
          "removed": false
        }
      ],
      "logsBloom": "0x00000000000000000000000000000000000000000000000000000000000000000000000000000000000000000000000020000000000000004000000000000000000000000000000000000008000000000000000000000000000000000000000000000000020000000000000000000800020000000000000000000010000000000000000000010000000000000000000000000000000000000000010000000000000000000000000000000000000000004000000000000000000000000000000000000002000000800000000000000000000000000000080000008000000020000000000000000000000000000000000000000000000000000000000000000000",
      "type": "0x2",
      "transactionHash": "0x1e3e2c314bfa6fa63586f90261b68389a952018ae64284726f7e5083e92942ab",
      "transactionIndex": "0x48",
      "blockHash": "0x810bdfcba035885b517843a3446c037736aae1fe97c4000c02c73fe82d23107a",
      "blockNumber": "0x7252e9",
      "gasUsed": "0x13af8",
      "effectiveGasPrice": "0x29c93369e",
      "from": "0xc77f7fed3b5cc8249adc428c5f44c9063b9734b4",
      "to": "0x270e88f8683660553e8ba4eb2ad7c91a1710d769",
      "contractAddress": null
    }
  ],
  "libraries": [],
  "pending": [],
  "returns": {},
  "timestamp": 1736889589,
  "chain": 11155111,
  "commit": "51a374b"
}