{
  "transactions": [
    {
      "hash": "0x7d13ce96558682acadd7d8602354fd834f390a0b8da76f8e4e83e93711f2d747",
      "transactionType": "CALL",
      "contractName": null,
      "contractAddress": "0xbf4a322f1496e5c3d34a9bcdb4c60567b38c7de2",
      "function": "buy(address)",
      "arguments": [
        "0xC77f7fed3b5Cc8249aDc428c5F44C9063B9734b4"
      ],
      "transaction": {
        "from": "0xc77f7fed3b5cc8249adc428c5f44c9063b9734b4",
        "to": "0xbf4a322f1496e5c3d34a9bcdb4c60567b38c7de2",
        "gas": "0x1b309",
        "value": "0xde0b6b3a7640000",
        "input": "0xf088d547000000000000000000000000c77f7fed3b5cc8249adc428c5f44c9063b9734b4",
        "nonce": "0x960",
        "chainId": "0xaa36a7"
      },
      "additionalContracts": [],
      "isFixedGasLimit": false
    }
  ],
  "receipts": [
    {
      "status": "0x1",
      "cumulativeGasUsed": "0xea2a1a",
      "logs": [
        {
          "address": "0xbf4a322f1496e5c3d34a9bcdb4c60567b38c7de2",
          "topics": [
            "0xddf252ad1be2c89b69c2b068fc378daa952ba7f163c4a11628f55a4df523b3ef",
            "0x0000000000000000000000000000000000000000000000000000000000000000",
            "0x000000000000000000000000c77f7fed3b5cc8249adc428c5f44c9063b9734b4"
          ],
          "data": "0x0000000000000000000000000000000000000000000000357971185c9fa51d0c",
          "blockHash": "0xc0bca4f8e10fbb3629759a3b7b98b603c79cd0de3fb94ee75fc6cab477f7c4ff",
          "blockNumber": "0x7258f6",
          "transactionHash": "0x7d13ce96558682acadd7d8602354fd834f390a0b8da76f8e4e83e93711f2d747",
          "transactionIndex": "0x4b",
          "logIndex": "0x70",
          "removed": false
        },
        {
          "address": "0xbf4a322f1496e5c3d34a9bcdb4c60567b38c7de2",
          "topics": [
            "0xddf252ad1be2c89b69c2b068fc378daa952ba7f163c4a11628f55a4df523b3ef",
            "0x0000000000000000000000000000000000000000000000000000000000000000",
            "0x000000000000000000000000c77f7fed3b5cc8249adc428c5f44c9063b9734b4"
          ],
          "data": "0x00000000000000000000000000000000000000000000000029865188467f1f5b",
          "blockHash": "0xc0bca4f8e10fbb3629759a3b7b98b603c79cd0de3fb94ee75fc6cab477f7c4ff",
          "blockNumber": "0x7258f6",
          "transactionHash": "0x7d13ce96558682acadd7d8602354fd834f390a0b8da76f8e4e83e93711f2d747",
          "transactionIndex": "0x4b",
          "logIndex": "0x71",
          "removed": false
        },
        {
          "address": "0xbf4a322f1496e5c3d34a9bcdb4c60567b38c7de2",
          "topics": [
            "0x4afcb4a87cdbd9974efdb92ee48bc8d7cd0ae4bf217004db3d080cbaee652ca7"
          ],
          "data": "0x0000000000000000000000000000000000000000000000000000000067871db4000000000000000000000000000000000000000000000000000390cc077ebda10000000000000000000000000000000000000000000000000de0b6b3a7640000",
          "blockHash": "0xc0bca4f8e10fbb3629759a3b7b98b603c79cd0de3fb94ee75fc6cab477f7c4ff",
          "blockNumber": "0x7258f6",
          "transactionHash": "0x7d13ce96558682acadd7d8602354fd834f390a0b8da76f8e4e83e93711f2d747",
          "transactionIndex": "0x4b",
          "logIndex": "0x72",
          "removed": false
        }
      ],
      "logsBloom": "0x00000000000000000000000000000000000000000000000000000000000000000000000000000000000000000000000000000000000000004000000000000000000000000000000000000008000000000000001000000000000000000000000000000000020000000000000000000800020000000000000000000010000000000000000000000000000000000000000000000000000008000000010000000000000000000000000000000000000000004000000000000000000000000000000000000002000000800000000000001000000000000000080000000000000020000000000000000000000000000000000000000000000000000000000000000000",
      "type": "0x2",
      "transactionHash": "0x7d13ce96558682acadd7d8602354fd834f390a0b8da76f8e4e83e93711f2d747",
      "transactionIndex": "0x4b",
      "blockHash": "0xc0bca4f8e10fbb3629759a3b7b98b603c79cd0de3fb94ee75fc6cab477f7c4ff",
      "blockNumber": "0x7258f6",
      "gasUsed": "0x13af6",
      "effectiveGasPrice": "0x94f6b27b",
      "from": "0xc77f7fed3b5cc8249adc428c5f44c9063b9734b4",
      "to": "0xbf4a322f1496e5c3d34a9bcdb4c60567b38c7de2",
      "contractAddress": null
    }
  ],
  "libraries": [],
  "pending": [],
  "returns": {},
  "timestamp": 1736908213,
  "chain": 11155111,
  "commit": "51a374b"
}