{
  "transactions": [
    {
      "hash": "0x9454539d83a8a48033a57d232211d8e1fad226e301118938ee37d0a62a9fc6dc",
      "transactionType": "CALL",
      "contractName": null,
      "contractAddress": "0x8aafd3ede9adb0ff97c7aebce82a919afb1c8764",
      "function": "sell(uint256)",
      "arguments": [
        "89295937194709"
      ],
      "transaction": {
        "from": "0xc77f7fed3b5cc8249adc428c5f44c9063b9734b4",
        "to": "0x8aafd3ede9adb0ff97c7aebce82a919afb1c8764",
        "gas": "0x15daa",
        "value": "0x0",
        "input": "0xe4849b3200000000000000000000000000000000000000000000000000005136d49dcad5",
        "nonce": "0x1619",
        "chainId": "0xaa36a7"
      },
      "additionalContracts": [],
      "isFixedGasLimit": false
    }
  ],
  "receipts": [
    {
      "status": "0x1",
      "cumulativeGasUsed": "0xc12028",
      "logs": [
        {
          "address": "0x8aafd3ede9adb0ff97c7aebce82a919afb1c8764",
          "topics": [
            "0xddf252ad1be2c89b69c2b068fc378daa952ba7f163c4a11628f55a4df523b3ef",
            "0x000000000000000000000000c77f7fed3b5cc8249adc428c5f44c9063b9734b4",
            "0x0000000000000000000000000000000000000000000000000000000000000000"
          ],
          "data": "0x0000000000000000000000000000000000000000000000000000509080fed580",
          "blockHash": "0xe67bcf0a079d1332c15558e2a655d08e4ad27182ce1a71ad228350ed74a42a97",
          "blockNumber": "0x731daf",
          "transactionHash": "0x9454539d83a8a48033a57d232211d8e1fad226e301118938ee37d0a62a9fc6dc",
          "transactionIndex": "0x69",
          "logIndex": "0xa8",
          "removed": false
        },
        {
          "address": "0x8aafd3ede9adb0ff97c7aebce82a919afb1c8764",
          "topics": [
            "0xddf252ad1be2c89b69c2b068fc378daa952ba7f163c4a11628f55a4df523b3ef",
            "0x000000000000000000000000c77f7fed3b5cc8249adc428c5f44c9063b9734b4",
            "0x000000000000000000000000c77f7fed3b5cc8249adc428c5f44c9063b9734b4"
          ],
          "data": "0x000000000000000000000000000000000000000000000000000000a6539ef555",
          "blockHash": "0xe67bcf0a079d1332c15558e2a655d08e4ad27182ce1a71ad228350ed74a42a97",
          "blockNumber": "0x731daf",
          "transactionHash": "0x9454539d83a8a48033a57d232211d8e1fad226e301118938ee37d0a62a9fc6dc",
          "transactionIndex": "0x69",
          "logIndex": "0xa9",
          "removed": false
        },
        {
          "address": "0x8aafd3ede9adb0ff97c7aebce82a919afb1c8764",
          "topics": [
            "0x4afcb4a87cdbd9974efdb92ee48bc8d7cd0ae4bf217004db3d080cbaee652ca7"
          ],
          "data": "0x000000000000000000000000000000000000000000000000000000006790611c000000000000000000000000000000000000000000000000001455191aaa960a00000000000000000000000000000000000000000000000000000076fcbf28c6",
          "blockHash": "0xe67bcf0a079d1332c15558e2a655d08e4ad27182ce1a71ad228350ed74a42a97",
          "blockNumber": "0x731daf",
          "transactionHash": "0x9454539d83a8a48033a57d232211d8e1fad226e301118938ee37d0a62a9fc6dc",
          "transactionIndex": "0x69",
          "logIndex": "0xaa",
          "removed": false
        }
      ],
      "logsBloom": "0x00000000000000000000000000000000000000000600000000000000000000000000000000000000000000000000000000000000000000004000000000000000000000000000004000000008000000000000000000000000000000000000000000000000020000000000000000000800020000000000000000000010000000000000000000000000000000000000000000000000000000000000010000000000000000000000000000000000000000004000000000000000000000000000000000000002000000800000000000000000000000000000080000000000000020000000000000000000000000000000000000000000000000000000000000000000",
      "type": "0x2",
      "transactionHash": "0x9454539d83a8a48033a57d232211d8e1fad226e301118938ee37d0a62a9fc6dc",
      "transactionIndex": "0x69",
      "blockHash": "0xe67bcf0a079d1332c15558e2a655d08e4ad27182ce1a71ad228350ed74a42a97",
      "blockNumber": "0x731daf",
      "gasUsed": "0xfd27",
      "effectiveGasPrice": "0x6ecb2729",
      "from": "0xc77f7fed3b5cc8249adc428c5f44c9063b9734b4",
      "to": "0x8aafd3ede9adb0ff97c7aebce82a919afb1c8764",
      "contractAddress": null
    }
  ],
  "libraries": [],
  "pending": [],
  "returns": {},
  "timestamp": 1737515293,
  "chain": 11155111,
  "commit": "1d2fb70"
}