{
  "transactions": [
    {
      "hash": "0x4eed7303e5cd1c6e3d82ece299763297f0e61b846476b0f3d63e9b4b28ee0e72",
      "transactionType": "CALL",
      "contractName": null,
      "contractAddress": "0x8aafd3ede9adb0ff97c7aebce82a919afb1c8764",
      "function": "sell(uint256)",
      "arguments": [
        "44531391966496293"
      ],
      "transaction": {
        "from": "0xc77f7fed3b5cc8249adc428c5f44c9063b9734b4",
        "to": "0x8aafd3ede9adb0ff97c7aebce82a919afb1c8764",
        "gas": "0x1724d",
        "value": "0x0",
        "input": "0xe4849b32000000000000000000000000000000000000000000000000009e3510a7844625",
        "nonce": "0x1133",
        "chainId": "0xaa36a7"
      },
      "additionalContracts": [],
      "isFixedGasLimit": false
    }
  ],
  "receipts": [
    {
      "status": "0x1",
      "cumulativeGasUsed": "0xc60fb0",
      "logs": [
        {
          "address": "0x8aafd3ede9adb0ff97c7aebce82a919afb1c8764",
          "topics": [
            "0xddf252ad1be2c89b69c2b068fc378daa952ba7f163c4a11628f55a4df523b3ef",
            "0x000000000000000000000000c77f7fed3b5cc8249adc428c5f44c9063b9734b4",
            "0x0000000000000000000000000000000000000000000000000000000000000000"
          ],
          "data": "0x000000000000000000000000000000000000000000000000009cf10e791edd23",
          "blockHash": "0xf2c398fbfe1717dd40909e1b4c9ca3b0577c63e60975dbe3a1982a3f02a9f50b",
          "blockNumber": "0x7317ec",
          "transactionHash": "0x4eed7303e5cd1c6e3d82ece299763297f0e61b846476b0f3d63e9b4b28ee0e72",
          "transactionIndex": "0x86",
          "logIndex": "0x8a",
          "removed": false
        },
        {
          "address": "0x8aafd3ede9adb0ff97c7aebce82a919afb1c8764",
          "topics": [
            "0xddf252ad1be2c89b69c2b068fc378daa952ba7f163c4a11628f55a4df523b3ef",
            "0x000000000000000000000000c77f7fed3b5cc8249adc428c5f44c9063b9734b4",
            "0x000000000000000000000000c77f7fed3b5cc8249adc428c5f44c9063b9734b4"
          ],
          "data": "0x000000000000000000000000000000000000000000000000000144022e656902",
          "blockHash": "0xf2c398fbfe1717dd40909e1b4c9ca3b0577c63e60975dbe3a1982a3f02a9f50b",
          "blockNumber": "0x7317ec",
          "transactionHash": "0x4eed7303e5cd1c6e3d82ece299763297f0e61b846476b0f3d63e9b4b28ee0e72",
          "transactionIndex": "0x86",
          "logIndex": "0x8b",
          "removed": false
        },
        {
          "address": "0x8aafd3ede9adb0ff97c7aebce82a919afb1c8764",
          "topics": [
            "0x4afcb4a87cdbd9974efdb92ee48bc8d7cd0ae4bf217004db3d080cbaee652ca7"
          ],
          "data": "0x0000000000000000000000000000000000000000000000000000000067901bd40000000000000000000000000000000000000000000000000005136c075c8e5b000000000000000000000000000000000000000000000000000039dd750628c0",
          "blockHash": "0xf2c398fbfe1717dd40909e1b4c9ca3b0577c63e60975dbe3a1982a3f02a9f50b",
          "blockNumber": "0x7317ec",
          "transactionHash": "0x4eed7303e5cd1c6e3d82ece299763297f0e61b846476b0f3d63e9b4b28ee0e72",
          "transactionIndex": "0x86",
          "logIndex": "0x8c",
          "removed": false
        }
      ],
      "logsBloom": "0x00000000000000000000000000000000000000000600000000000000000000000000000000000000000000000000000000000000000000004000000000000000000000000000004000000008000000000000000000000000000000000000000000000000020000000000000000000800020000000000000000000010000000000000000000000000000000000000000000000000000000000000010000000000000000000000000000000000000000004000000000000000000000000000000000000002000000800000000000000000000000000000080000000000000020000000000000000000000000000000000000000000000000000000000000000000",
      "type": "0x2",
      "transactionHash": "0x4eed7303e5cd1c6e3d82ece299763297f0e61b846476b0f3d63e9b4b28ee0e72",
      "transactionIndex": "0x86",
      "blockHash": "0xf2c398fbfe1717dd40909e1b4c9ca3b0577c63e60975dbe3a1982a3f02a9f50b",
      "blockNumber": "0x7317ec",
      "gasUsed": "0xfd33",
      "effectiveGasPrice": "0x4e8d7807",
      "from": "0xc77f7fed3b5cc8249adc428c5f44c9063b9734b4",
      "to": "0x8aafd3ede9adb0ff97c7aebce82a919afb1c8764",
      "contractAddress": null
    }
  ],
  "libraries": [],
  "pending": [],
  "returns": {},
  "timestamp": 1737497557,
  "chain": 11155111,
  "commit": "1d2fb70"
}