{
  "transactions": [
    {
      "hash": "0xe5ccb99c294dd4687a1767ef82ddf7210eaee6951a4abd5a38ae591717c64608",
      "transactionType": "CALL",
      "contractName": null,
      "contractAddress": "0x8aafd3ede9adb0ff97c7aebce82a919afb1c8764",
      "function": "sell(uint256)",
      "arguments": [
        "1494319"
      ],
      "transaction": {
        "from": "0xc77f7fed3b5cc8249adc428c5f44c9063b9734b4",
        "to": "0x8aafd3ede9adb0ff97c7aebce82a919afb1c8764",
        "gas": "0x16208",
        "value": "0x0",
        "input": "0xe4849b32000000000000000000000000000000000000000000000000000000000016cd2f",
        "nonce": "0x1066",
        "chainId": "0xaa36a7"
      },
      "additionalContracts": [],
      "isFixedGasLimit": false
    }
  ],
  "receipts": [
    {
      "status": "0x1",
      "cumulativeGasUsed": "0x7e5cab",
      "logs": [
        {
          "address": "0x8aafd3ede9adb0ff97c7aebce82a919afb1c8764",
          "topics": [
            "0xddf252ad1be2c89b69c2b068fc378daa952ba7f163c4a11628f55a4df523b3ef",
            "0x000000000000000000000000c77f7fed3b5cc8249adc428c5f44c9063b9734b4",
            "0x0000000000000000000000000000000000000000000000000000000000000000"
          ],
          "data": "0x0000000000000000000000000000000000000000000000000000000000169e7d",
          "blockHash": "0x8f9dc6f29707db023dd4a63c26ffcc22dda84e68efe227f77573c9d4e6b3535d",
          "blockNumber": "0x7316ec",
          "transactionHash": "0xe5ccb99c294dd4687a1767ef82ddf7210eaee6951a4abd5a38ae591717c64608",
          "transactionIndex": "0x62",
          "logIndex": "0x8b",
          "removed": false
        },
        {
          "address": "0x8aafd3ede9adb0ff97c7aebce82a919afb1c8764",
          "topics": [
            "0xddf252ad1be2c89b69c2b068fc378daa952ba7f163c4a11628f55a4df523b3ef",
            "0x000000000000000000000000c77f7fed3b5cc8249adc428c5f44c9063b9734b4",
            "0x000000000000000000000000c77f7fed3b5cc8249adc428c5f44c9063b9734b4"
          ],
          "data": "0x0000000000000000000000000000000000000000000000000000000000002eb2",
          "blockHash": "0x8f9dc6f29707db023dd4a63c26ffcc22dda84e68efe227f77573c9d4e6b3535d",
          "blockNumber": "0x7316ec",
          "transactionHash": "0xe5ccb99c294dd4687a1767ef82ddf7210eaee6951a4abd5a38ae591717c64608",
          "transactionIndex": "0x62",
          "logIndex": "0x8c",
          "removed": false
        },
        {
          "address": "0x8aafd3ede9adb0ff97c7aebce82a919afb1c8764",
          "topics": [
            "0x4afcb4a87cdbd9974efdb92ee48bc8d7cd0ae4bf217004db3d080cbaee652ca7"
          ],
          "data": "0x0000000000000000000000000000000000000000000000000000000067900fc80000000000000000000000000000000000000000000000000004f4ebcbd3aec70000000000000000000000000000000000000000000000000000000000000824",
          "blockHash": "0x8f9dc6f29707db023dd4a63c26ffcc22dda84e68efe227f77573c9d4e6b3535d",
          "blockNumber": "0x7316ec",
          "transactionHash": "0xe5ccb99c294dd4687a1767ef82ddf7210eaee6951a4abd5a38ae591717c64608",
          "transactionIndex": "0x62",
          "logIndex": "0x8d",
          "removed": false
        }
      ],
      "logsBloom": "0x00000000000000000000000000000000000000000600000000000000000000000000000000000000000000000000000000000000000000004000000000000000000000000000004000000008000000000000000000000000000000000000000000000000020000000000000000000800020000000000000000000010000000000000000000000000000000000000000000000000000000000000010000000000000000000000000000000000000000004000000000000000000000000000000000000002000000800000000000000000000000000000080000000000000020000000000000000000000000000000000000000000000000000000000000000000",
      "type": "0x2",
      "transactionHash": "0xe5ccb99c294dd4687a1767ef82ddf7210eaee6951a4abd5a38ae591717c64608",
      "transactionIndex": "0x62",
      "blockHash": "0x8f9dc6f29707db023dd4a63c26ffcc22dda84e68efe227f77573c9d4e6b3535d",
      "blockNumber": "0x7316ec",
      "gasUsed": "0xf213",
      "effectiveGasPrice": "0x3d979bb1",
      "from": "0xc77f7fed3b5cc8249adc428c5f44c9063b9734b4",
      "to": "0x8aafd3ede9adb0ff97c7aebce82a919afb1c8764",
      "contractAddress": null
    }
  ],
  "libraries": [],
  "pending": [],
  "returns": {},
  "timestamp": 1737494474,
  "chain": 11155111,
  "commit": "1d2fb70"
}