{
  "transactions": [
    {
      "hash": "0xcbd1c83fe514c7fc177dcd7ed4b7c87f0aaeb5d60670ff864202722f9b9da675",
      "transactionType": "CALL",
      "contractName": null,
      "contractAddress": "0x8aafd3ede9adb0ff97c7aebce82a919afb1c8764",
      "function": "sell(uint256)",
      "arguments": [
        "5804946829"
      ],
      "transaction": {
        "from": "0xc77f7fed3b5cc8249adc428c5f44c9063b9734b4",
        "to": "0x8aafd3ede9adb0ff97c7aebce82a919afb1c8764",
        "gas": "0x15d88",
        "value": "0x0",
        "input": "0xe4849b32000000000000000000000000000000000000000000000000000000015a00758d",
        "nonce": "0x1600",
        "chainId": "0xaa36a7"
      },
      "additionalContracts": [],
      "isFixedGasLimit": false
    }
  ],
  "receipts": [
    {
      "status": "0x1",
      "cumulativeGasUsed": "0x194aaa1",
      "logs": [
        {
          "address": "0x8aafd3ede9adb0ff97c7aebce82a919afb1c8764",
          "topics": [
            "0xddf252ad1be2c89b69c2b068fc378daa952ba7f163c4a11628f55a4df523b3ef",
            "0x000000000000000000000000c77f7fed3b5cc8249adc428c5f44c9063b9734b4",
            "0x0000000000000000000000000000000000000000000000000000000000000000"
          ],
          "data": "0x00000000000000000000000000000000000000000000000000000001573bd8f7",
          "blockHash": "0xd3414d07dc42437212d0ccc50d1edca0370cdc351ac26cf5716f63e8c155f99e",
          "blockNumber": "0x731d91",
          "transactionHash": "0xcbd1c83fe514c7fc177dcd7ed4b7c87f0aaeb5d60670ff864202722f9b9da675",
          "transactionIndex": "0xbc",
          "logIndex": "0x132",
          "removed": false
        },
        {
          "address": "0x8aafd3ede9adb0ff97c7aebce82a919afb1c8764",
          "topics": [
            "0xddf252ad1be2c89b69c2b068fc378daa952ba7f163c4a11628f55a4df523b3ef",
            "0x000000000000000000000000c77f7fed3b5cc8249adc428c5f44c9063b9734b4",
            "0x000000000000000000000000c77f7fed3b5cc8249adc428c5f44c9063b9734b4"
          ],
          "data": "0x0000000000000000000000000000000000000000000000000000000002c49c96",
          "blockHash": "0xd3414d07dc42437212d0ccc50d1edca0370cdc351ac26cf5716f63e8c155f99e",
          "blockNumber": "0x731d91",
          "transactionHash": "0xcbd1c83fe514c7fc177dcd7ed4b7c87f0aaeb5d60670ff864202722f9b9da675",
          "transactionIndex": "0xbc",
          "logIndex": "0x133",
          "removed": false
        },
        {
          "address": "0x8aafd3ede9adb0ff97c7aebce82a919afb1c8764",
          "topics": [
            "0x4afcb4a87cdbd9974efdb92ee48bc8d7cd0ae4bf217004db3d080cbaee652ca7"
          ],
          "data": "0x0000000000000000000000000000000000000000000000000000000067905fb4000000000000000000000000000000000000000000000000001404c9977d15940000000000000000000000000000000000000000000000000000000001f31b7d",
          "blockHash": "0xd3414d07dc42437212d0ccc50d1edca0370cdc351ac26cf5716f63e8c155f99e",
          "blockNumber": "0x731d91",
          "transactionHash": "0xcbd1c83fe514c7fc177dcd7ed4b7c87f0aaeb5d60670ff864202722f9b9da675",
          "transactionIndex": "0xbc",
          "logIndex": "0x134",
          "removed": false
        }
      ],
      "logsBloom": "0x00000000000000000000000000000000000000000600000000000000000000000000000000000000000000000000000000000000000000004000000000000000000000000000004000000008000000000000000000000000000000000000000000000000020000000000000000000800020000000000000000000010000000000000000000000000000000000000000000000000000000000000010000000000000000000000000000000000000000004000000000000000000000000000000000000002000000800000000000000000000000000000080000000000000020000000000000000000000000000000000000000000000000000000000000000000",
      "type": "0x2",
      "transactionHash": "0xcbd1c83fe514c7fc177dcd7ed4b7c87f0aaeb5d60670ff864202722f9b9da675",
      "transactionIndex": "0xbc",
      "blockHash": "0xd3414d07dc42437212d0ccc50d1edca0370cdc351ac26cf5716f63e8c155f99e",
      "blockNumber": "0x731d91",
      "gasUsed": "0xfd0f",
      "effectiveGasPrice": "0x5cb95ed3",
      "from": "0xc77f7fed3b5cc8249adc428c5f44c9063b9734b4",
      "to": "0x8aafd3ede9adb0ff97c7aebce82a919afb1c8764",
      "contractAddress": null
    }
  ],
  "libraries": [],
  "pending": [],
  "returns": {},
  "timestamp": 1737514933,
  "chain": 11155111,
  "commit": "1d2fb70"
}