{
  "transactions": [
    {
      "hash": "0x18be4a343ae47d478d8feae68e8ff8c7bee6613dc4734a12d38f7dbe35075b0a",
      "transactionType": "CALL",
      "contractName": null,
      "contractAddress": "0xbf4a322f1496e5c3d34a9bcdb4c60567b38c7de2",
      "function": "buy(address)",
      "arguments": [
        "0xC77f7fed3b5Cc8249aDc428c5F44C9063B9734b4"
      ],
      "transaction": {
        "from": "0xc77f7fed3b5cc8249adc428c5f44c9063b9734b4",
        "to": "0xbf4a322f1496e5c3d34a9bcdb4c60567b38c7de2",
        "gas": "0x1b309",
        "value": "0xde0b6b3a7640000",
        "input": "0xf088d547000000000000000000000000c77f7fed3b5cc8249adc428c5f44c9063b9734b4",
        "nonce": "0xd86",
        "chainId": "0xaa36a7"
      },
      "additionalContracts": [],
      "isFixedGasLimit": false
    }
  ],
  "receipts": [
    {
      "status": "0x1",
      "cumulativeGasUsed": "0xe33399",
      "logs": [
        {
          "address": "0xbf4a322f1496e5c3d34a9bcdb4c60567b38c7de2",
          "topics": [
            "0xddf252ad1be2c89b69c2b068fc378daa952ba7f163c4a11628f55a4df523b3ef",
            "0x0000000000000000000000000000000000000000000000000000000000000000",
            "0x000000000000000000000000c77f7fed3b5cc8249adc428c5f44c9063b9734b4"
          ],
          "data": "0x000000000000000000000000000000000000000000000034b341db50bef945ec",
          "blockHash": "0xc50491f75b7e1a1a33b5694c3580c10b870ac6d304a1d66d8218937f2f630892",
          "blockNumber": "0x726658",
          "transactionHash": "0x18be4a343ae47d478d8feae68e8ff8c7bee6613dc4734a12d38f7dbe35075b0a",
          "transactionIndex": "0x6f",
          "logIndex": "0xa4",
          "removed": false
        },
        {
          "address": "0xbf4a322f1496e5c3d34a9bcdb4c60567b38c7de2",
          "topics": [
            "0xddf252ad1be2c89b69c2b068fc378daa952ba7f163c4a11628f55a4df523b3ef",
            "0x0000000000000000000000000000000000000000000000000000000000000000",
            "0x000000000000000000000000c77f7fed3b5cc8249adc428c5f44c9063b9734b4"
          ],
          "data": "0x00000000000000000000000000000000000000000000000028ec6be39b39dec6",
          "blockHash": "0xc50491f75b7e1a1a33b5694c3580c10b870ac6d304a1d66d8218937f2f630892",
          "blockNumber": "0x726658",
          "transactionHash": "0x18be4a343ae47d478d8feae68e8ff8c7bee6613dc4734a12d38f7dbe35075b0a",
          "transactionIndex": "0x6f",
          "logIndex": "0xa5",
          "removed": false
        },
        {
          "address": "0xbf4a322f1496e5c3d34a9bcdb4c60567b38c7de2",
          "topics": [
            "0x4afcb4a87cdbd9974efdb92ee48bc8d7cd0ae4bf217004db3d080cbaee652ca7"
          ],
          "data": "0x000000000000000000000000000000000000000000000000000000006787bed000000000000000000000000000000000000000000000000000039e34a91cae460000000000000000000000000000000000000000000000000de0b6b3a7640000",
          "blockHash": "0xc50491f75b7e1a1a33b5694c3580c10b870ac6d304a1d66d8218937f2f630892",
          "blockNumber": "0x726658",
          "transactionHash": "0x18be4a343ae47d478d8feae68e8ff8c7bee6613dc4734a12d38f7dbe35075b0a",
          "transactionIndex": "0x6f",
          "logIndex": "0xa6",
          "removed": false
        }
      ],
      "logsBloom": "0x00000000000000000000000000000000000000000000000000000000000000000000000000000000000000000000000000000000000000004000000000000000000000000000000000000008000000000000001000000000000000000000000000000000020000000000000000000800020000000000000000000010000000000000000000000000000000000000000000000000000008000000010000000000000000000000000000000000000000004000000000000000000000000000000000000002000000800000000000001000000000000000080000000000000020000000000000000000000000000000000000000000000000000000000000000000",
      "type": "0x2",
      "transactionHash": "0x18be4a343ae47d478d8feae68e8ff8c7bee6613dc4734a12d38f7dbe35075b0a",
      "transactionIndex": "0x6f",
      "blockHash": "0xc50491f75b7e1a1a33b5694c3580c10b870ac6d304a1d66d8218937f2f630892",
      "blockNumber": "0x726658",
      "gasUsed": "0x13af6",
      "effectiveGasPrice": "0x8f944fcf",
      "from": "0xc77f7fed3b5cc8249adc428c5f44c9063b9734b4",
      "to": "0xbf4a322f1496e5c3d34a9bcdb4c60567b38c7de2",
      "contractAddress": null
    }
  ],
  "libraries": [],
  "pending": [],
  "returns": {},
  "timestamp": 1736949457,
  "chain": 11155111,
  "commit": "51a374b"
}