{
  "transactions": [
    {
      "hash": "0x63b1e24a1172d75263b0fc8df2c8a3eefe1e0ae5214a1114e4a24af2fd6996b3",
      "transactionType": "CALL",
      "contractName": null,
      "contractAddress": "0x5eb9cc76c3506942c1c0ead70e877dd5e4f00cb0",
      "function": "sell(uint256)",
      "arguments": [
        "989115934668480697025"
      ],
      "transaction": {
        "from": "0xc77f7fed3b5cc8249adc428c5f44c9063b9734b4",
        "to": "0x5eb9cc76c3506942c1c0ead70e877dd5e4f00cb0",
        "gas": "0x16fec",
        "value": "0x0",
        "input": "0xe4849b320000000000000000000000000000000000000000000000359ebdb6052945d2c1",
        "nonce": "0x39d",
        "chainId": "0xaa36a7"
      },
      "additionalContracts": [],
      "isFixedGasLimit": false
    }
  ],
  "receipts": [
    {
      "status": "0x1",
      "cumulativeGasUsed": "0x1164156",
      "logs": [
        {
          "address": "0x5eb9cc76c3506942c1c0ead70e877dd5e4f00cb0",
          "topics": [
            "0xddf252ad1be2c89b69c2b068fc378daa952ba7f163c4a11628f55a4df523b3ef",
            "0x000000000000000000000000c77f7fed3b5cc8249adc428c5f44c9063b9734b4",
            "0x0000000000000000000000000000000000000000000000000000000000000000"
          ],
          "data": "0x0000000000000000000000000000000000000000000000359ebdb6052945d2c1",
          "blockHash": "0x41a06806949f7cf719db3e473ca8f95539c6156495bdde22be5b15109816f5c4",
          "blockNumber": "0x724f99",
          "transactionHash": "0x63b1e24a1172d75263b0fc8df2c8a3eefe1e0ae5214a1114e4a24af2fd6996b3",
          "transactionIndex": "0x96",
          "logIndex": "0x111",
          "removed": false
        },
        {
          "address": "0x5eb9cc76c3506942c1c0ead70e877dd5e4f00cb0",
          "topics": [
            "0x4afcb4a87cdbd9974efdb92ee48bc8d7cd0ae4bf217004db3d080cbaee652ca7"
          ],
          "data": "0x000000000000000000000000000000000000000000000000000000006786acec00000000000000000000000000000000000000000000000000039111b4d524380000000000000000000000000000000000000000000000000dc7db133203cd4d",
          "blockHash": "0x41a06806949f7cf719db3e473ca8f95539c6156495bdde22be5b15109816f5c4",
          "blockNumber": "0x724f99",
          "transactionHash": "0x63b1e24a1172d75263b0fc8df2c8a3eefe1e0ae5214a1114e4a24af2fd6996b3",
          "transactionIndex": "0x96",
          "logIndex": "0x112",
          "removed": false
        }
      ],
      "logsBloom": "0x00000000000000000000000000000000000000000000000000000000000000000000000000000000000000000000000000000000000000004000000000000000000000000000000000000008000000000000000000000000000000000000000000000000020000000000000004000800020000000000000000000010000000000000000000000000000000000000000000000000000000000000010000000000000000000000000000000000000000004000000000000000000000000000020000000002000000800000008000000000000000000000080000000000000020000000000000000000000000000000000000000000000000000000000000000000",
      "type": "0x2",
      "transactionHash": "0x63b1e24a1172d75263b0fc8df2c8a3eefe1e0ae5214a1114e4a24af2fd6996b3",
      "transactionIndex": "0x96",
      "blockHash": "0x41a06806949f7cf719db3e473ca8f95539c6156495bdde22be5b15109816f5c4",
      "blockNumber": "0x724f99",
      "gasUsed": "0xfb93",
      "effectiveGasPrice": "0x51f6fd472",
      "from": "0xc77f7fed3b5cc8249adc428c5f44c9063b9734b4",
      "to": "0x5eb9cc76c3506942c1c0ead70e877dd5e4f00cb0",
      "contractAddress": null
    }
  ],
  "libraries": [],
  "pending": [],
  "returns": {},
  "timestamp": 1736879343,
  "chain": 11155111,
  "commit": "51a374b"
}