{
  "transactions": [
    {
      "hash": "0xa89f73117246772c6df5029fe9cac875afc6a45d67d26d77a9747bb80353ee63",
      "transactionType": "CALL",
      "contractName": null,
      "contractAddress": "0x5eb9cc76c3506942c1c0ead70e877dd5e4f00cb0",
      "function": "sell(uint256)",
      "arguments": [
        "989119440567323011309"
      ],
      "transaction": {
        "from": "0xc77f7fed3b5cc8249adc428c5f44c9063b9734b4",
        "to": "0x5eb9cc76c3506942c1c0ead70e877dd5e4f00cb0",
        "gas": "0x16fec",
        "value": "0x0",
        "input": "0xe4849b320000000000000000000000000000000000000000000000359eca2a9dd86328ed",
        "nonce": "0x387",
        "chainId": "0xaa36a7"
      },
      "additionalContracts": [],
      "isFixedGasLimit": false
    }
  ],
  "receipts": [
    {
      "status": "0x1",
      "cumulativeGasUsed": "0xcbdb27",
      "logs": [
        {
          "address": "0x5eb9cc76c3506942c1c0ead70e877dd5e4f00cb0",
          "topics": [
            "0xddf252ad1be2c89b69c2b068fc378daa952ba7f163c4a11628f55a4df523b3ef",
            "0x000000000000000000000000c77f7fed3b5cc8249adc428c5f44c9063b9734b4",
            "0x0000000000000000000000000000000000000000000000000000000000000000"
          ],
          "data": "0x0000000000000000000000000000000000000000000000359eca2a9dd86328ed",
          "blockHash": "0x547be8021c2c42b87d3bf2e233b603f1c8ba0f940ad5ddf4446d784e1f86a352",
          "blockNumber": "0x724f81",
          "transactionHash": "0xa89f73117246772c6df5029fe9cac875afc6a45d67d26d77a9747bb80353ee63",
          "transactionIndex": "0x68",
          "logIndex": "0x82",
          "removed": false
        },
        {
          "address": "0x5eb9cc76c3506942c1c0ead70e877dd5e4f00cb0",
          "topics": [
            "0x4afcb4a87cdbd9974efdb92ee48bc8d7cd0ae4bf217004db3d080cbaee652ca7"
          ],
          "data": "0x000000000000000000000000000000000000000000000000000000006786abc000000000000000000000000000000000000000000000000000039110e0bc5c820000000000000000000000000000000000000000000000000dc7db13320a0a4d",
          "blockHash": "0x547be8021c2c42b87d3bf2e233b603f1c8ba0f940ad5ddf4446d784e1f86a352",
          "blockNumber": "0x724f81",
          "transactionHash": "0xa89f73117246772c6df5029fe9cac875afc6a45d67d26d77a9747bb80353ee63",
          "transactionIndex": "0x68",
          "logIndex": "0x83",
          "removed": false
        }
      ],
      "logsBloom": "0x00000000000000000000000000000000000000000000000000000000000000000000000000000000000000000000000000000000000000004000000000000000000000000000000000000008000000000000000000000000000000000000000000000000020000000000000004000800020000000000000000000010000000000000000000000000000000000000000000000000000000000000010000000000000000000000000000000000000000004000000000000000000000000000020000000002000000800000008000000000000000000000080000000000000020000000000000000000000000000000000000000000000000000000000000000000",
      "type": "0x2",
      "transactionHash": "0xa89f73117246772c6df5029fe9cac875afc6a45d67d26d77a9747bb80353ee63",
      "transactionIndex": "0x68",
      "blockHash": "0x547be8021c2c42b87d3bf2e233b603f1c8ba0f940ad5ddf4446d784e1f86a352",
      "blockNumber": "0x724f81",
      "gasUsed": "0xfb93",
      "effectiveGasPrice": "0x588506c7e",
      "from": "0xc77f7fed3b5cc8249adc428c5f44c9063b9734b4",
      "to": "0x5eb9cc76c3506942c1c0ead70e877dd5e4f00cb0",
      "contractAddress": null
    }
  ],
  "libraries": [],
  "pending": [],
  "returns": {},
  "timestamp": 1736879041,
  "chain": 11155111,
  "commit": "51a374b"
}