{
  "transactions": [
    {
      "hash": "0x0ed5e8932de904364c19620f93ac90a8df6ded44dbf7aeaeae147880b66097ae",
      "transactionType": "CALL",
      "contractName": null,
      "contractAddress": "0x8aafd3ede9adb0ff97c7aebce82a919afb1c8764",
      "function": "sell(uint256)",
      "arguments": [
        "130861850159783"
      ],
      "transaction": {
        "from": "0xc77f7fed3b5cc8249adc428c5f44c9063b9734b4",
        "to": "0x8aafd3ede9adb0ff97c7aebce82a919afb1c8764",
        "gas": "0x15daa",
        "value": "0x0",
        "input": "0xe4849b3200000000000000000000000000000000000000000000000000007704a617eaa7",
        "nonce": "0x13eb",
        "chainId": "0xaa36a7"
      },
      "additionalContracts": [],
      "isFixedGasLimit": false
    }
  ],
  "receipts": [
    {
      "status": "0x1",
      "cumulativeGasUsed": "0xcdf187",
      "logs": [
        {
          "address": "0x8aafd3ede9adb0ff97c7aebce82a919afb1c8764",
          "topics": [
            "0xddf252ad1be2c89b69c2b068fc378daa952ba7f163c4a11628f55a4df523b3ef",
            "0x000000000000000000000000c77f7fed3b5cc8249adc428c5f44c9063b9734b4",
            "0x0000000000000000000000000000000000000000000000000000000000000000"
          ],
          "data": "0x00000000000000000000000000000000000000000000000000007610e64cf929",
          "blockHash": "0xace30d4ee92e004cbbc6c14137f9f48a864521f0b74d25ee8860dfd7db4b3214",
          "blockNumber": "0x731b1b",
          "transactionHash": "0x0ed5e8932de904364c19620f93ac90a8df6ded44dbf7aeaeae147880b66097ae",
          "transactionIndex": "0x92",
          "logIndex": "0x9d",
          "removed": false
        },
        {
          "address": "0x8aafd3ede9adb0ff97c7aebce82a919afb1c8764",
          "topics": [
            "0xddf252ad1be2c89b69c2b068fc378daa952ba7f163c4a11628f55a4df523b3ef",
            "0x000000000000000000000000c77f7fed3b5cc8249adc428c5f44c9063b9734b4",
            "0x000000000000000000000000c77f7fed3b5cc8249adc428c5f44c9063b9734b4"
          ],
          "data": "0x000000000000000000000000000000000000000000000000000000f3bfcaf17e",
          "blockHash": "0xace30d4ee92e004cbbc6c14137f9f48a864521f0b74d25ee8860dfd7db4b3214",
          "blockNumber": "0x731b1b",
          "transactionHash": "0x0ed5e8932de904364c19620f93ac90a8df6ded44dbf7aeaeae147880b66097ae",
          "transactionIndex": "0x92",
          "logIndex": "0x9e",
          "removed": false
        },
        {
          "address": "0x8aafd3ede9adb0ff97c7aebce82a919afb1c8764",
          "topics": [
            "0x4afcb4a87cdbd9974efdb92ee48bc8d7cd0ae4bf217004db3d080cbaee652ca7"
          ],
          "data": "0x0000000000000000000000000000000000000000000000000000000067904214000000000000000000000000000000000000000000000000000de7c2280d4a69000000000000000000000000000000000000000000000000000000774110ca6f",
          "blockHash": "0xace30d4ee92e004cbbc6c14137f9f48a864521f0b74d25ee8860dfd7db4b3214",
          "blockNumber": "0x731b1b",
          "transactionHash": "0x0ed5e8932de904364c19620f93ac90a8df6ded44dbf7aeaeae147880b66097ae",
          "transactionIndex": "0x92",
          "logIndex": "0x9f",
          "removed": false
        }
      ],
      "logsBloom": "0x00000000000000000000000000000000000000000600000000000000000000000000000000000000000000000000000000000000000000004000000000000000000000000000004000000008000000000000000000000000000000000000000000000000020000000000000000000800020000000000000000000010000000000000000000000000000000000000000000000000000000000000010000000000000000000000000000000000000000004000000000000000000000000000000000000002000000800000000000000000000000000000080000000000000020000000000000000000000000000000000000000000000000000000000000000000",
      "type": "0x2",
      "transactionHash": "0x0ed5e8932de904364c19620f93ac90a8df6ded44dbf7aeaeae147880b66097ae",
      "transactionIndex": "0x92",
      "blockHash": "0xace30d4ee92e004cbbc6c14137f9f48a864521f0b74d25ee8860dfd7db4b3214",
      "blockNumber": "0x731b1b",
      "gasUsed": "0xfd27",
      "effectiveGasPrice": "0x91efcb9a",
      "from": "0xc77f7fed3b5cc8249adc428c5f44c9063b9734b4",
      "to": "0x8aafd3ede9adb0ff97c7aebce82a919afb1c8764",
      "contractAddress": null
    }
  ],
  "libraries": [],
  "pending": [],
  "returns": {},
  "timestamp": 1737507349,
  "chain": 11155111,
  "commit": "1d2fb70"
}