{
  "transactions": [
    {
      "hash": "0x044b16fda42d1bffce20f2517cfee398f8e9d8f98e454352ec5638f355a7b48a",
      "transactionType": "CALL",
      "contractName": null,
      "contractAddress": "0x270e88f8683660553e8ba4eb2ad7c91a1710d769",
      "function": "sell(uint256)",
      "arguments": [
        "981947217688978276776"
      ],
      "transaction": {
        "from": "0xc77f7fed3b5cc8249adc428c5f44c9063b9734b4",
        "to": "0x270e88f8683660553e8ba4eb2ad7c91a1710d769",
        "gas": "0x16fec",
        "value": "0x0",
        "input": "0xe4849b320000000000000000000000000000000000000000000000353b414fe8a6b841a8",
        "nonce": "0x51b",
        "chainId": "0xaa36a7"
      },
      "additionalContracts": [],
      "isFixedGasLimit": false
    }
  ],
  "receipts": [
    {
      "status": "0x1",
      "cumulativeGasUsed": "0x1303b97",
      "logs": [
        {
          "address": "0x270e88f8683660553e8ba4eb2ad7c91a1710d769",
          "topics": [
            "0xddf252ad1be2c89b69c2b068fc378daa952ba7f163c4a11628f55a4df523b3ef",
            "0x000000000000000000000000c77f7fed3b5cc8249adc428c5f44c9063b9734b4",
            "0x0000000000000000000000000000000000000000000000000000000000000000"
          ],
          "data": "0x0000000000000000000000000000000000000000000000353b414fe8a6b841a8",
          "blockHash": "0xc878554cbfe405bcbdd7073bacdeb15eceae236af56f111c7840f918fdc1a02b",
          "blockNumber": "0x7251b3",
          "transactionHash": "0x044b16fda42d1bffce20f2517cfee398f8e9d8f98e454352ec5638f355a7b48a",
          "transactionIndex": "0x4c",
          "logIndex": "0x8c",
          "removed": false
        },
        {
          "address": "0x270e88f8683660553e8ba4eb2ad7c91a1710d769",
          "topics": [
            "0x4afcb4a87cdbd9974efdb92ee48bc8d7cd0ae4bf217004db3d080cbaee652ca7"
          ],
          "data": "0x000000000000000000000000000000000000000000000000000000006786c64800000000000000000000000000000000000000000000000000039806fb1c107e0000000000000000000000000000000000000000000000000dc84170c770fd70",
          "blockHash": "0xc878554cbfe405bcbdd7073bacdeb15eceae236af56f111c7840f918fdc1a02b",
          "blockNumber": "0x7251b3",
          "transactionHash": "0x044b16fda42d1bffce20f2517cfee398f8e9d8f98e454352ec5638f355a7b48a",
          "transactionIndex": "0x4c",
          "logIndex": "0x8d",
          "removed": false
        }
      ],
      "logsBloom": "0x00000000000000000000000000000000000000000000000000000000000000000000000000000000000000000000000020000000000000004000000000000000000000000000000000000008000000000000000000000000000000000000000000000000020000000000000000000800020000000000000000000010000000000000000000010000000000000000000000000000000000000000010000000000000000000000000000000000000000004000000000000000000000000000000000000002000000800000000000000000000000000000080000008000000020000000000000000000000000000000000000000000000000000000000000000000",
      "type": "0x2",
      "transactionHash": "0x044b16fda42d1bffce20f2517cfee398f8e9d8f98e454352ec5638f355a7b48a",
      "transactionIndex": "0x4c",
      "blockHash": "0xc878554cbfe405bcbdd7073bacdeb15eceae236af56f111c7840f918fdc1a02b",
      "blockNumber": "0x7251b3",
      "gasUsed": "0xfb93",
      "effectiveGasPrice": "0x4175817ac",
      "from": "0xc77f7fed3b5cc8249adc428c5f44c9063b9734b4",
      "to": "0x270e88f8683660553e8ba4eb2ad7c91a1710d769",
      "contractAddress": null
    }
  ],
  "libraries": [],
  "pending": [],
  "returns": {},
  "timestamp": 1736885833,
  "chain": 11155111,
  "commit": "51a374b"
}