{
  "transactions": [
    {
      "hash": "0x85faaa683b619e170a4e36eb8a2649dbd2fb6af544f890b0f305651eb34bae7b",
      "transactionType": "CALL",
      "contractName": null,
      "contractAddress": "0x8aafd3ede9adb0ff97c7aebce82a919afb1c8764",
      "function": "sell(uint256)",
      "arguments": [
        "5380634327"
      ],
      "transaction": {
        "from": "0xc77f7fed3b5cc8249adc428c5f44c9063b9734b4",
        "to": "0x8aafd3ede9adb0ff97c7aebce82a919afb1c8764",
        "gas": "0x1722a",
        "value": "0x0",
        "input": "0xe4849b320000000000000000000000000000000000000000000000000000000140b5f6d7",
        "nonce": "0x1687",
        "chainId": "0xaa36a7"
      },
      "additionalContracts": [],
      "isFixedGasLimit": false
    }
  ],
  "receipts": [
    {
      "status": "0x1",
      "cumulativeGasUsed": "0x1516f74",
      "logs": [
        {
          "address": "0x8aafd3ede9adb0ff97c7aebce82a919afb1c8764",
          "topics": [
            "0xddf252ad1be2c89b69c2b068fc378daa952ba7f163c4a11628f55a4df523b3ef",
            "0x000000000000000000000000c77f7fed3b5cc8249adc428c5f44c9063b9734b4",
            "0x0000000000000000000000000000000000000000000000000000000000000000"
          ],
          "data": "0x000000000000000000000000000000000000000000000000000000013e252605",
          "blockHash": "0x7ef69a7b0bd7908f6c21479f09209b44691bc56e9ed0aadc07683ad15f73b0c3",
          "blockNumber": "0x731e3a",
          "transactionHash": "0x85faaa683b619e170a4e36eb8a2649dbd2fb6af544f890b0f305651eb34bae7b",
          "transactionIndex": "0x9e",
          "logIndex": "0xf6",
          "removed": false
        },
        {
          "address": "0x8aafd3ede9adb0ff97c7aebce82a919afb1c8764",
          "topics": [
            "0xddf252ad1be2c89b69c2b068fc378daa952ba7f163c4a11628f55a4df523b3ef",
            "0x000000000000000000000000c77f7fed3b5cc8249adc428c5f44c9063b9734b4",
            "0x000000000000000000000000c77f7fed3b5cc8249adc428c5f44c9063b9734b4"
          ],
          "data": "0x000000000000000000000000000000000000000000000000000000000290d0d2",
          "blockHash": "0x7ef69a7b0bd7908f6c21479f09209b44691bc56e9ed0aadc07683ad15f73b0c3",
          "blockNumber": "0x731e3a",
          "transactionHash": "0x85faaa683b619e170a4e36eb8a2649dbd2fb6af544f890b0f305651eb34bae7b",
          "transactionIndex": "0x9e",
          "logIndex": "0xf7",
          "removed": false
        },
        {
          "address": "0x8aafd3ede9adb0ff97c7aebce82a919afb1c8764",
          "topics": [
            "0x4afcb4a87cdbd9974efdb92ee48bc8d7cd0ae4bf217004db3d080cbaee652ca7"
          ],
          "data": "0x00000000000000000000000000000000000000000000000000000000679067a0000000000000000000000000000000000000000000000000001596e86c56ab140000000000000000000000000000000000000000000000000000000001f2ece6",
          "blockHash": "0x7ef69a7b0bd7908f6c21479f09209b44691bc56e9ed0aadc07683ad15f73b0c3",
          "blockNumber": "0x731e3a",
          "transactionHash": "0x85faaa683b619e170a4e36eb8a2649dbd2fb6af544f890b0f305651eb34bae7b",
          "transactionIndex": "0x9e",
          "logIndex": "0xf8",
          "removed": false
        }
      ],
      "logsBloom": "0x00000000000000000000000000000000000000000600000000000000000000000000000000000000000000000000000000000000000000004000000000000000000000000000004000000008000000000000000000000000000000000000000000000000020000000000000000000800020000000000000000000010000000000000000000000000000000000000000000000000000000000000010000000000000000000000000000000000000000004000000000000000000000000000000000000002000000800000000000000000000000000000080000000000000020000000000000000000000000000000000000000000000000000000000000000000",
      "type": "0x2",
      "transactionHash": "0x85faaa683b619e170a4e36eb8a2649dbd2fb6af544f890b0f305651eb34bae7b",
      "transactionIndex": "0x9e",
      "blockHash": "0x7ef69a7b0bd7908f6c21479f09209b44691bc56e9ed0aadc07683ad15f73b0c3",
      "blockNumber": "0x731e3a",
      "gasUsed": "0xfd1b",
      "effectiveGasPrice": "0x44920408",
      "from": "0xc77f7fed3b5cc8249adc428c5f44c9063b9734b4",
      "to": "0x8aafd3ede9adb0ff97c7aebce82a919afb1c8764",
      "contractAddress": null
    }
  ],
  "libraries": [],
  "pending": [],
  "returns": {},
  "timestamp": 1737516963,
  "chain": 11155111,
  "commit": "1d2fb70"
}