{
  "transactions": [
    {
      "hash": "0x5e6c6b3013079a6ca2b2acede41b133636cda02d34df6be15f9f47d20beece99",
      "transactionType": "CALL",
      "contractName": null,
      "contractAddress": "0xbf4a322f1496e5c3d34a9bcdb4c60567b38c7de2",
      "function": "sell(uint256)",
      "arguments": [
        "986037914094375952793"
      ],
      "transaction": {
        "from": "0xc77f7fed3b5cc8249adc428c5f44c9063b9734b4",
        "to": "0xbf4a322f1496e5c3d34a9bcdb4c60567b38c7de2",
        "gas": "0x16fea",
        "value": "0x0",
        "input": "0xe4849b320000000000000000000000000000000000000000000000357406629db66a6199",
        "nonce": "0xa59",
        "chainId": "0xaa36a7"
      },
      "additionalContracts": [],
      "isFixedGasLimit": false
    }
  ],
  "receipts": [
    {
      "status": "0x1",
      "cumulativeGasUsed": "0x7c1e67",
      "logs": [
        {
          "address": "0xbf4a322f1496e5c3d34a9bcdb4c60567b38c7de2",
          "topics": [
            "0xddf252ad1be2c89b69c2b068fc378daa952ba7f163c4a11628f55a4df523b3ef",
            "0x000000000000000000000000c77f7fed3b5cc8249adc428c5f44c9063b9734b4",
            "0x0000000000000000000000000000000000000000000000000000000000000000"
          ],
          "data": "0x0000000000000000000000000000000000000000000000357406629db66a6199",
          "blockHash": "0xd88a7bd4e326f63a58e6ea74e6afab05baa852e809a48381293f9a2f6138ef5f",
          "blockNumber": "0x725a32",
          "transactionHash": "0x5e6c6b3013079a6ca2b2acede41b133636cda02d34df6be15f9f47d20beece99",
          "transactionIndex": "0x50",
          "logIndex": "0x79",
          "removed": false
        },
        {
          "address": "0xbf4a322f1496e5c3d34a9bcdb4c60567b38c7de2",
          "topics": [
            "0x4afcb4a87cdbd9974efdb92ee48bc8d7cd0ae4bf217004db3d080cbaee652ca7"
          ],
          "data": "0x0000000000000000000000000000000000000000000000000000000067872ca8000000000000000000000000000000000000000000000000000393f1c1c8bff60000000000000000000000000000000000000000000000000dc7e3f01ac3316e",
          "blockHash": "0xd88a7bd4e326f63a58e6ea74e6afab05baa852e809a48381293f9a2f6138ef5f",
          "blockNumber": "0x725a32",
          "transactionHash": "0x5e6c6b3013079a6ca2b2acede41b133636cda02d34df6be15f9f47d20beece99",
          "transactionIndex": "0x50",
          "logIndex": "0x7a",
          "removed": false
        }
      ],
      "logsBloom": "0x00000000000000000000000000000000000000000000000000000000000000000000000000000000000000000000000000000000000000004000000000000000000000000000000000000008000000000000001000000000000000000000000000000000020000000000000000000800020000000000000000000010000000000000000000000000000000000000000000000000000008000000010000000000000000000000000000000000000000004000000000000000000000000000000000000002000000800000000000001000000000000000080000000000000020000000000000000000000000000000000000000000000000000000000000000000",
      "type": "0x2",
      "transactionHash": "0x5e6c6b3013079a6ca2b2acede41b133636cda02d34df6be15f9f47d20beece99",
      "transactionIndex": "0x50",
      "blockHash": "0xd88a7bd4e326f63a58e6ea74e6afab05baa852e809a48381293f9a2f6138ef5f",
      "blockNumber": "0x725a32",
      "gasUsed": "0xfb91",
      "effectiveGasPrice": "0x4b373ca25",
      "from": "0xc77f7fed3b5cc8249adc428c5f44c9063b9734b4",
      "to": "0xbf4a322f1496e5c3d34a9bcdb4c60567b38c7de2",
      "contractAddress": null
    }
  ],
  "libraries": [],
  "pending": [],
  "returns": {},
  "timestamp": 1736912043,
  "chain": 11155111,
  "commit": "51a374b"
}