{
  "transactions": [
    {
      "hash": "0x8c791508dabbc317c15dd54d191ab7f0f01feba06933da9feb1bc04ed466da70",
      "transactionType": "CALL",
      "contractName": null,
      "contractAddress": "0x5eb9cc76c3506942c1c0ead70e877dd5e4f00cb0",
      "function": "sell(uint256)",
      "arguments": [
        "989136970434337447301"
      ],
      "transaction": {
        "from": "0xc77f7fed3b5cc8249adc428c5f44c9063b9734b4",
        "to": "0x5eb9cc76c3506942c1c0ead70e877dd5e4f00cb0",
        "gas": "0x16fec",
        "value": "0x0",
        "input": "0xe4849b320000000000000000000000000000000000000000000000359f0871f010be1d85",
        "nonce": "0x319",
        "chainId": "0xaa36a7"
      },
      "additionalContracts": [],
      "isFixedGasLimit": false
    }
  ],
  "receipts": [
    {
      "status": "0x1",
      "cumulativeGasUsed": "0xb02ba5",
      "logs": [
        {
          "address": "0x5eb9cc76c3506942c1c0ead70e877dd5e4f00cb0",
          "topics": [
            "0xddf252ad1be2c89b69c2b068fc378daa952ba7f163c4a11628f55a4df523b3ef",
            "0x000000000000000000000000c77f7fed3b5cc8249adc428c5f44c9063b9734b4",
            "0x0000000000000000000000000000000000000000000000000000000000000000"
          ],
          "data": "0x0000000000000000000000000000000000000000000000359f0871f010be1d85",
          "blockHash": "0x01f810c3756b7afa347a9936398bbccadf374abc943b4bcd0bb3cd949c084aa4",
          "blockNumber": "0x724eff",
          "transactionHash": "0x8c791508dabbc317c15dd54d191ab7f0f01feba06933da9feb1bc04ed466da70",
          "transactionIndex": "0x57",
          "logIndex": "0x79",
          "removed": false
        },
        {
          "address": "0x5eb9cc76c3506942c1c0ead70e877dd5e4f00cb0",
          "topics": [
            "0x4afcb4a87cdbd9974efdb92ee48bc8d7cd0ae4bf217004db3d080cbaee652ca7"
          ],
          "data": "0x000000000000000000000000000000000000000000000000000000006786a5a80000000000000000000000000000000000000000000000000003910cbc4075f30000000000000000000000000000000000000000000000000dc7db1332293b7c",
          "blockHash": "0x01f810c3756b7afa347a9936398bbccadf374abc943b4bcd0bb3cd949c084aa4",
          "blockNumber": "0x724eff",
          "transactionHash": "0x8c791508dabbc317c15dd54d191ab7f0f01feba06933da9feb1bc04ed466da70",
          "transactionIndex": "0x57",
          "logIndex": "0x7a",
          "removed": false
        }
      ],
      "logsBloom": "0x00000000000000000000000000000000000000000000000000000000000000000000000000000000000000000000000000000000000000004000000000000000000000000000000000000008000000000000000000000000000000000000000000000000020000000000000004000800020000000000000000000010000000000000000000000000000000000000000000000000000000000000010000000000000000000000000000000000000000004000000000000000000000000000020000000002000000800000008000000000000000000000080000000000000020000000000000000000000000000000000000000000000000000000000000000000",
      "type": "0x2",
      "transactionHash": "0x8c791508dabbc317c15dd54d191ab7f0f01feba06933da9feb1bc04ed466da70",
      "transactionIndex": "0x57",
      "blockHash": "0x01f810c3756b7afa347a9936398bbccadf374abc943b4bcd0bb3cd949c084aa4",
      "blockNumber": "0x724eff",
      "gasUsed": "0xfb93",
      "effectiveGasPrice": "0x701a31c2c",
      "from": "0xc77f7fed3b5cc8249adc428c5f44c9063b9734b4",
      "to": "0x5eb9cc76c3506942c1c0ead70e877dd5e4f00cb0",
      "contractAddress": null
    }
  ],
  "libraries": [],
  "pending": [],
  "returns": {},
  "timestamp": 1736877480,
  "chain": 11155111,
  "commit": "51a374b"
}