{
  "transactions": [
    {
      "hash": "0xe7ae1ed66822744e1ef10204b576b9a75b4aa254ad871b6dec2a11f2eb39604a",
      "transactionType": "CALL",
      "contractName": null,
      "contractAddress": "0x270e88f8683660553e8ba4eb2ad7c91a1710d769",
      "function": "sell(uint256)",
      "arguments": [
        "718712845762580955474"
      ],
      "transaction": {
        "from": "0xc77f7fed3b5cc8249adc428c5f44c9063b9734b4",
        "to": "0x270e88f8683660553e8ba4eb2ad7c91a1710d769",
        "gas": "0x16fec",
        "value": "0x0",
        "input": "0xe4849b32000000000000000000000000000000000000000000000026f624f55134bfc152",
        "nonce": "0x832",
        "chainId": "0xaa36a7"
      },
      "additionalContracts": [],
      "isFixedGasLimit": false
    }
  ],
  "receipts": [
    {
      "status": "0x1",
      "cumulativeGasUsed": "0x7f0527",
      "logs": [
        {
          "address": "0x270e88f8683660553e8ba4eb2ad7c91a1710d769",
          "topics": [
            "0xddf252ad1be2c89b69c2b068fc378daa952ba7f163c4a11628f55a4df523b3ef",
            "0x000000000000000000000000c77f7fed3b5cc8249adc428c5f44c9063b9734b4",
            "0x0000000000000000000000000000000000000000000000000000000000000000"
          ],
          "data": "0x000000000000000000000000000000000000000000000026f624f55134bfc152",
          "blockHash": "0xb7f9d98e2c1c8be8c77ac97a1ffc296cf209391fd272dab9015bfb9fe93aef54",
          "blockNumber": "0x72557d",
          "transactionHash": "0xe7ae1ed66822744e1ef10204b576b9a75b4aa254ad871b6dec2a11f2eb39604a",
          "transactionIndex": "0x48",
          "logIndex": "0x77",
          "removed": false
        },
        {
          "address": "0x270e88f8683660553e8ba4eb2ad7c91a1710d769",
          "topics": [
            "0x4afcb4a87cdbd9974efdb92ee48bc8d7cd0ae4bf217004db3d080cbaee652ca7"
          ],
          "data": "0x000000000000000000000000000000000000000000000000000000006786f3e40000000000000000000000000000000000000000000000000004e8e35276a7350000000000000000000000000000000000000000000000000dc8264bc96aeca4",
          "blockHash": "0xb7f9d98e2c1c8be8c77ac97a1ffc296cf209391fd272dab9015bfb9fe93aef54",
          "blockNumber": "0x72557d",
          "transactionHash": "0xe7ae1ed66822744e1ef10204b576b9a75b4aa254ad871b6dec2a11f2eb39604a",
          "transactionIndex": "0x48",
          "logIndex": "0x78",
          "removed": false
        }
      ],
      "logsBloom": "0x00000000000000000000000000000000000000000000000000000000000000000000000000000000000000000000000020000000000000004000000000000000000000000000000000000008000000000000000000000000000000000000000000000000020000000000000000000800020000000000000000000010000000000000000000010000000000000000000000000000000000000000010000000000000000000000000000000000000000004000000000000000000000000000000000000002000000800000000000000000000000000000080000008000000020000000000000000000000000000000000000000000000000000000000000000000",
      "type": "0x2",
      "transactionHash": "0xe7ae1ed66822744e1ef10204b576b9a75b4aa254ad871b6dec2a11f2eb39604a",
      "transactionIndex": "0x48",
      "blockHash": "0xb7f9d98e2c1c8be8c77ac97a1ffc296cf209391fd272dab9015bfb9fe93aef54",
      "blockNumber": "0x72557d",
      "gasUsed": "0xfb93",
      "effectiveGasPrice": "0x74d90b98",
      "from": "0xc77f7fed3b5cc8249adc428c5f44c9063b9734b4",
      "to": "0x270e88f8683660553e8ba4eb2ad7c91a1710d769",
      "contractAddress": null
    }
  ],
  "libraries": [],
  "pending": [],
  "returns": {},
  "timestamp": 1736897509,
  "chain": 11155111,
  "commit": "51a374b"
}