{
  "transactions": [
    {
      "hash": "0x49c831f8420b04bb31d63a4db275532d35528792d4b987554f55bdc590c58085",
      "transactionType": "CALL",
      "contractName": null,
      "contractAddress": "0x270e88f8683660553e8ba4eb2ad7c91a1710d769",
      "function": "buy(address)",
      "arguments": [
        "0xC77f7fed3b5Cc8249aDc428c5F44C9063B9734b4"
      ],
      "transaction": {
        "from": "0xc77f7fed3b5cc8249adc428c5f44c9063b9734b4",
        "to": "0x270e88f8683660553e8ba4eb2ad7c91a1710d769",
        "gas": "0x1b30c",
        "value": "0xde0b6b3a7640000",
        "input": "0xf088d547000000000000000000000000c77f7fed3b5cc8249adc428c5f44c9063b9734b4",
        "nonce": "0x558",
        "chainId": "0xaa36a7"
      },
      "additionalContracts": [],
      "isFixedGasLimit": false
    }
  ],
  "receipts": [
    {
      "status": "0x1",
      "cumulativeGasUsed": "0xf6977b",
      "logs": [
        {
          "address": "0x270e88f8683660553e8ba4eb2ad7c91a1710d769",
          "topics": [
            "0xddf252ad1be2c89b69c2b068fc378daa952ba7f163c4a11628f55a4df523b3ef",
            "0x0000000000000000000000000000000000000000000000000000000000000000",
            "0x000000000000000000000000c77f7fed3b5cc8249adc428c5f44c9063b9734b4"
          ],
          "data": "0x0000000000000000000000000000000000000000000000348d64aae924d0adc9",
          "blockHash": "0x335ddfefd6bd136fb4c3ae9bf5be7ea316c3a5a1e698270958cd6788a5cd6eea",
          "blockNumber": "0x7251fb",
          "transactionHash": "0x49c831f8420b04bb31d63a4db275532d35528792d4b987554f55bdc590c58085",
          "transactionIndex": "0x6b",
          "logIndex": "0x120",
          "removed": false
        },
        {
          "address": "0x270e88f8683660553e8ba4eb2ad7c91a1710d769",
          "topics": [
            "0xddf252ad1be2c89b69c2b068fc378daa952ba7f163c4a11628f55a4df523b3ef",
            "0x0000000000000000000000000000000000000000000000000000000000000000",
            "0x000000000000000000000000c77f7fed3b5cc8249adc428c5f44c9063b9734b4"
          ],
          "data": "0x00000000000000000000000000000000000000000000000028cf04cc10e282e0",
          "blockHash": "0x335ddfefd6bd136fb4c3ae9bf5be7ea316c3a5a1e698270958cd6788a5cd6eea",
          "blockNumber": "0x7251fb",
          "transactionHash": "0x49c831f8420b04bb31d63a4db275532d35528792d4b987554f55bdc590c58085",
          "transactionIndex": "0x6b",
          "logIndex": "0x121",
          "removed": false
        },
        {
          "address": "0x270e88f8683660553e8ba4eb2ad7c91a1710d769",
          "topics": [
            "0x4afcb4a87cdbd9974efdb92ee48bc8d7cd0ae4bf217004db3d080cbaee652ca7"
          ],
          "data": "0x000000000000000000000000000000000000000000000000000000006786c9b40000000000000000000000000000000000000000000000000003a0e8608f1bd60000000000000000000000000000000000000000000000000de0b6b3a7640000",
          "blockHash": "0x335ddfefd6bd136fb4c3ae9bf5be7ea316c3a5a1e698270958cd6788a5cd6eea",
          "blockNumber": "0x7251fb",
          "transactionHash": "0x49c831f8420b04bb31d63a4db275532d35528792d4b987554f55bdc590c58085",
          "transactionIndex": "0x6b",
          "logIndex": "0x122",
          "removed": false
        }
      ],
      "logsBloom": "0x00000000000000000000000000000000000000000000000000000000000000000000000000000000000000000000000020000000000000004000000000000000000000000000000000000008000000000000000000000000000000000000000000000000020000000000000000000800020000000000000000000010000000000000000000010000000000000000000000000000000000000000010000000000000000000000000000000000000000004000000000000000000000000000000000000002000000800000000000000000000000000000080000008000000020000000000000000000000000000000000000000000000000000000000000000000",
      "type": "0x2",
      "transactionHash": "0x49c831f8420b04bb31d63a4db275532d35528792d4b987554f55bdc590c58085",
      "transactionIndex": "0x6b",
      "blockHash": "0x335ddfefd6bd136fb4c3ae9bf5be7ea316c3a5a1e698270958cd6788a5cd6eea",
      "blockNumber": "0x7251fb",
      "gasUsed": "0x13af8",
      "effectiveGasPrice": "0x4424c6ed0",
      "from": "0xc77f7fed3b5cc8249adc428c5f44c9063b9734b4",
      "to": "0x270e88f8683660553e8ba4eb2ad7c91a1710d769",
      "contractAddress": null
    }
  ],
  "libraries": [],
  "pending": [],
  "returns": {},
  "timestamp": 1736886710,
  "chain": 11155111,
  "commit": "51a374b"
}