{
  "transactions": [
    {
      "hash": "0x6ed18814a5c4e36d08e5095554db3e67f93271a5cb4236b42e4971429c5654f6",
      "transactionType": "CALL",
      "contractName": null,
      "contractAddress": "0x8aafd3ede9adb0ff97c7aebce82a919afb1c8764",
      "function": "sell(uint256)",
      "arguments": [
        "876766804302"
      ],
      "transaction": {
        "from": "0xc77f7fed3b5cc8249adc428c5f44c9063b9734b4",
        "to": "0x8aafd3ede9adb0ff97c7aebce82a919afb1c8764",
        "gas": "0x1722a",
        "value": "0x0",
        "input": "0xe4849b32000000000000000000000000000000000000000000000000000000cc235fb94e",
        "nonce": "0x14d6",
        "chainId": "0xaa36a7"
      },
      "additionalContracts": [],
      "isFixedGasLimit": false
    }
  ],
  "receipts": [
    {
      "status": "0x1",
      "cumulativeGasUsed": "0xc80589",
      "logs": [
        {
          "address": "0x8aafd3ede9adb0ff97c7aebce82a919afb1c8764",
          "topics": [
            "0xddf252ad1be2c89b69c2b068fc378daa952ba7f163c4a11628f55a4df523b3ef",
            "0x000000000000000000000000c77f7fed3b5cc8249adc428c5f44c9063b9734b4",
            "0x0000000000000000000000000000000000000000000000000000000000000000"
          ],
          "data": "0x000000000000000000000000000000000000000000000000000000ca814c86ac",
          "blockHash": "0x35cd8e75143d984016cd7daf5af2bf9b9fe4f8b596f360fbb39e8d9b9338543d",
          "blockNumber": "0x731c34",
          "transactionHash": "0x6ed18814a5c4e36d08e5095554db3e67f93271a5cb4236b42e4971429c5654f6",
          "transactionIndex": "0x7a",
          "logIndex": "0x8b",
          "removed": false
        },
        {
          "address": "0x8aafd3ede9adb0ff97c7aebce82a919afb1c8764",
          "topics": [
            "0xddf252ad1be2c89b69c2b068fc378daa952ba7f163c4a11628f55a4df523b3ef",
            "0x000000000000000000000000c77f7fed3b5cc8249adc428c5f44c9063b9734b4",
            "0x000000000000000000000000c77f7fed3b5cc8249adc428c5f44c9063b9734b4"
          ],
          "data": "0x00000000000000000000000000000000000000000000000000000001a21332a2",
          "blockHash": "0x35cd8e75143d984016cd7daf5af2bf9b9fe4f8b596f360fbb39e8d9b9338543d",
          "blockNumber": "0x731c34",
          "transactionHash": "0x6ed18814a5c4e36d08e5095554db3e67f93271a5cb4236b42e4971429c5654f6",
          "transactionIndex": "0x7a",
          "logIndex": "0x8c",
          "removed": false
        },
        {
          "address": "0x8aafd3ede9adb0ff97c7aebce82a919afb1c8764",
          "topics": [
            "0x4afcb4a87cdbd9974efdb92ee48bc8d7cd0ae4bf217004db3d080cbaee652ca7"
          ],
          "data": "0x0000000000000000000000000000000000000000000000000000000067904f4c000000000000000000000000000000000000000000000000001095ab204a9ed300000000000000000000000000000000000000000000000000000000f3f488fb",
          "blockHash": "0x35cd8e75143d984016cd7daf5af2bf9b9fe4f8b596f360fbb39e8d9b9338543d",
          "blockNumber": "0x731c34",
          "transactionHash": "0x6ed18814a5c4e36d08e5095554db3e67f93271a5cb4236b42e4971429c5654f6",
          "transactionIndex": "0x7a",
          "logIndex": "0x8d",
          "removed": false
        }
      ],
      "logsBloom": "0x00000000000000000000000000000000000000000600000000000000000000000000000000000000000000000000000000000000000000004000000000000000000000000000004000000008000000000000000000000000000000000000000000000000020000000000000000000800020000000000000000000010000000000000000000000000000000000000000000000000000000000000010000000000000000000000000000000000000000004000000000000000000000000000000000000002000000800000000000000000000000000000080000000000000020000000000000000000000000000000000000000000000000000000000000000000",
      "type": "0x2",
      "transactionHash": "0x6ed18814a5c4e36d08e5095554db3e67f93271a5cb4236b42e4971429c5654f6",
      "transactionIndex": "0x7a",
      "blockHash": "0x35cd8e75143d984016cd7daf5af2bf9b9fe4f8b596f360fbb39e8d9b9338543d",
      "blockNumber": "0x731c34",
      "gasUsed": "0xfd1b",
      "effectiveGasPrice": "0x140c490f8",
      "from": "0xc77f7fed3b5cc8249adc428c5f44c9063b9734b4",
      "to": "0x8aafd3ede9adb0ff97c7aebce82a919afb1c8764",
      "contractAddress": null
    }
  ],
  "libraries": [],
  "pending": [],
  "returns": {},
  "timestamp": 1737510733,
  "chain": 11155111,
  "commit": "1d2fb70"
}