{
  "transactions": [
    {
      "hash": "0x62d8ce21a51a0bf9ab968c35c8eb41d0c386552fb70ee1a37f2a4befbaba0a2b",
      "transactionType": "CALL",
      "contractName": null,
      "contractAddress": "0x8aafd3ede9adb0ff97c7aebce82a919afb1c8764",
      "function": "sell(uint256)",
      "arguments": [
        "47576622024220492"
      ],
      "transaction": {
        "from": "0xc77f7fed3b5cc8249adc428c5f44c9063b9734b4",
        "to": "0x8aafd3ede9adb0ff97c7aebce82a919afb1c8764",
        "gas": "0x1724d",
        "value": "0x0",
        "input": "0xe4849b3200000000000000000000000000000000000000000000000000a906af875ddf4c",
        "nonce": "0xf23",
        "chainId": "0xaa36a7"
      },
      "additionalContracts": [],
      "isFixedGasLimit": false
    }
  ],
  "receipts": [
    {
      "status": "0x1",
      "cumulativeGasUsed": "0x834390",
      "logs": [
        {
          "address": "0x8aafd3ede9adb0ff97c7aebce82a919afb1c8764",
          "topics": [
            "0xddf252ad1be2c89b69c2b068fc378daa952ba7f163c4a11628f55a4df523b3ef",
            "0x000000000000000000000000c77f7fed3b5cc8249adc428c5f44c9063b9734b4",
            "0x0000000000000000000000000000000000000000000000000000000000000000"
          ],
          "data": "0x00000000000000000000000000000000000000000000000000a7ac852a1fae69",
          "blockHash": "0xc237e3f0990a43a203dda09786e5dcecacbeca0a37f2f220059c74314d9eb468",
          "blockNumber": "0x731575",
          "transactionHash": "0x62d8ce21a51a0bf9ab968c35c8eb41d0c386552fb70ee1a37f2a4befbaba0a2b",
          "transactionIndex": "0x66",
          "logIndex": "0x91",
          "removed": false
        },
        {
          "address": "0x8aafd3ede9adb0ff97c7aebce82a919afb1c8764",
          "topics": [
            "0xddf252ad1be2c89b69c2b068fc378daa952ba7f163c4a11628f55a4df523b3ef",
            "0x000000000000000000000000c77f7fed3b5cc8249adc428c5f44c9063b9734b4",
            "0x000000000000000000000000c77f7fed3b5cc8249adc428c5f44c9063b9734b4"
          ],
          "data": "0x00000000000000000000000000000000000000000000000000015a2a5d3e30e3",
          "blockHash": "0xc237e3f0990a43a203dda09786e5dcecacbeca0a37f2f220059c74314d9eb468",
          "blockNumber": "0x731575",
          "transactionHash": "0x62d8ce21a51a0bf9ab968c35c8eb41d0c386552fb70ee1a37f2a4befbaba0a2b",
          "transactionIndex": "0x66",
          "logIndex": "0x92",
          "removed": false
        },
        {
          "address": "0x8aafd3ede9adb0ff97c7aebce82a919afb1c8764",
          "topics": [
            "0x4afcb4a87cdbd9974efdb92ee48bc8d7cd0ae4bf217004db3d080cbaee652ca7"
          ],
          "data": "0x00000000000000000000000000000000000000000000000000000000678ffe280000000000000000000000000000000000000000000000000004bf37e45dc9f9000000000000000000000000000000000000000000000000000039d0e438a503",
          "blockHash": "0xc237e3f0990a43a203dda09786e5dcecacbeca0a37f2f220059c74314d9eb468",
          "blockNumber": "0x731575",
          "transactionHash": "0x62d8ce21a51a0bf9ab968c35c8eb41d0c386552fb70ee1a37f2a4befbaba0a2b",
          "transactionIndex": "0x66",
          "logIndex": "0x93",
          "removed": false
        }
      ],
      "logsBloom": "0x00000000000000000000000000000000000000000600000000000000000000000000000000000000000000000000000000000000000000004000000000000000000000000000004000000008000000000000000000000000000000000000000000000000020000000000000000000800020000000000000000000010000000000000000000000000000000000000000000000000000000000000010000000000000000000000000000000000000000004000000000000000000000000000000000000002000000800000000000000000000000000000080000000000000020000000000000000000000000000000000000000000000000000000000000000000",
      "type": "0x2",
      "transactionHash": "0x62d8ce21a51a0bf9ab968c35c8eb41d0c386552fb70ee1a37f2a4befbaba0a2b",
      "transactionIndex": "0x66",
      "blockHash": "0xc237e3f0990a43a203dda09786e5dcecacbeca0a37f2f220059c74314d9eb468",
      "blockNumber": "0x731575",
      "gasUsed": "0xfd33",
      "effectiveGasPrice": "0x8c5ff4df",
      "from": "0xc77f7fed3b5cc8249adc428c5f44c9063b9734b4",
      "to": "0x8aafd3ede9adb0ff97c7aebce82a919afb1c8764",
      "contractAddress": null
    }
  ],
  "libraries": [],
  "pending": [],
  "returns": {},
  "timestamp": 1737489961,
  "chain": 11155111,
  "commit": "1d2fb70"
}