{
  "transactions": [
    {
      "hash": "0xe9a2aad985a5b50489a9339385e62ea628ab9170b3fec7dbb6cd5dc1a1feaaed",
      "transactionType": "CALL",
      "contractName": null,
      "contractAddress": "0x8aafd3ede9adb0ff97c7aebce82a919afb1c8764",
      "function": "sell(uint256)",
      "arguments": [
        "556648"
      ],
      "transaction": {
        "from": "0xc77f7fed3b5cc8249adc428c5f44c9063b9734b4",
        "to": "0x8aafd3ede9adb0ff97c7aebce82a919afb1c8764",
        "gas": "0x16208",
        "value": "0x0",
        "input": "0xe4849b320000000000000000000000000000000000000000000000000000000000087e68",
        "nonce": "0x13c2",
        "chainId": "0xaa36a7"
      },
      "additionalContracts": [],
      "isFixedGasLimit": false
    }
  ],
  "receipts": [
    {
      "status": "0x1",
      "cumulativeGasUsed": "0xb1908b",
      "logs": [
        {
          "address": "0x8aafd3ede9adb0ff97c7aebce82a919afb1c8764",
          "topics": [
            "0xddf252ad1be2c89b69c2b068fc378daa952ba7f163c4a11628f55a4df523b3ef",
            "0x000000000000000000000000c77f7fed3b5cc8249adc428c5f44c9063b9734b4",
            "0x0000000000000000000000000000000000000000000000000000000000000000"
          ],
          "data": "0x0000000000000000000000000000000000000000000000000000000000086d03",
          "blockHash": "0xd924eb2ca6b146bae0b0a8b2adad4802195d3dcfd89aaf88e43a5a692acd84b6",
          "blockNumber": "0x731aed",
          "transactionHash": "0xe9a2aad985a5b50489a9339385e62ea628ab9170b3fec7dbb6cd5dc1a1feaaed",
          "transactionIndex": "0x56",
          "logIndex": "0x7b",
          "removed": false
        },
        {
          "address": "0x8aafd3ede9adb0ff97c7aebce82a919afb1c8764",
          "topics": [
            "0xddf252ad1be2c89b69c2b068fc378daa952ba7f163c4a11628f55a4df523b3ef",
            "0x000000000000000000000000c77f7fed3b5cc8249adc428c5f44c9063b9734b4",
            "0x000000000000000000000000c77f7fed3b5cc8249adc428c5f44c9063b9734b4"
          ],
          "data": "0x0000000000000000000000000000000000000000000000000000000000001165",
          "blockHash": "0xd924eb2ca6b146bae0b0a8b2adad4802195d3dcfd89aaf88e43a5a692acd84b6",
          "blockNumber": "0x731aed",
          "transactionHash": "0xe9a2aad985a5b50489a9339385e62ea628ab9170b3fec7dbb6cd5dc1a1feaaed",
          "transactionIndex": "0x56",
          "logIndex": "0x7c",
          "removed": false
        },
        {
          "address": "0x8aafd3ede9adb0ff97c7aebce82a919afb1c8764",
          "topics": [
            "0x4afcb4a87cdbd9974efdb92ee48bc8d7cd0ae4bf217004db3d080cbaee652ca7"
          ],
          "data": "0x0000000000000000000000000000000000000000000000000000000067903fec000000000000000000000000000000000000000000000000000d64b024d347e30000000000000000000000000000000000000000000000000000000000000832",
          "blockHash": "0xd924eb2ca6b146bae0b0a8b2adad4802195d3dcfd89aaf88e43a5a692acd84b6",
          "blockNumber": "0x731aed",
          "transactionHash": "0xe9a2aad985a5b50489a9339385e62ea628ab9170b3fec7dbb6cd5dc1a1feaaed",
          "transactionIndex": "0x56",
          "logIndex": "0x7d",
          "removed": false
        }
      ],
      "logsBloom": "0x00000000000000000000000000000000000000000600000000000000000000000000000000000000000000000000000000000000000000004000000000000000000000000000004000000008000000000000000000000000000000000000000000000000020000000000000000000800020000000000000000000010000000000000000000000000000000000000000000000000000000000000010000000000000000000000000000000000000000004000000000000000000000000000000000000002000000800000000000000000000000000000080000000000000020000000000000000000000000000000000000000000000000000000000000000000",
      "type": "0x2",
      "transactionHash": "0xe9a2aad985a5b50489a9339385e62ea628ab9170b3fec7dbb6cd5dc1a1feaaed",
      "transactionIndex": "0x56",
      "blockHash": "0xd924eb2ca6b146bae0b0a8b2adad4802195d3dcfd89aaf88e43a5a692acd84b6",
      "blockNumber": "0x731aed",
      "gasUsed": "0xf213",
      "effectiveGasPrice": "0x887d2f3a",
      "from": "0xc77f7fed3b5cc8249adc428c5f44c9063b9734b4",
      "to": "0x8aafd3ede9adb0ff97c7aebce82a919afb1c8764",
      "contractAddress": null
    }
  ],
  "libraries": [],
  "pending": [],
  "returns": {},
  "timestamp": 1737506797,
  "chain": 11155111,
  "commit": "1d2fb70"
}