{
  "transactions": [
    {
      "hash": "0xe4de1ba53e73c7de75d8edf85c19480fede7d7702ba3a01e1d09202228ce1d87",
      "transactionType": "CALL",
      "contractName": null,
      "contractAddress": "0x8aafd3ede9adb0ff97c7aebce82a919afb1c8764",
      "function": "sell(uint256)",
      "arguments": [
        "721829827419"
      ],
      "transaction": {
        "from": "0xc77f7fed3b5cc8249adc428c5f44c9063b9734b4",
        "to": "0x8aafd3ede9adb0ff97c7aebce82a919afb1c8764",
        "gas": "0x1722a",
        "value": "0x0",
        "input": "0xe4849b32000000000000000000000000000000000000000000000000000000a81069135b",
        "nonce": "0x1608",
        "chainId": "0xaa36a7"
      },
      "additionalContracts": [],
      "isFixedGasLimit": false
    }
  ],
  "receipts": [
    {
      "status": "0x1",
      "cumulativeGasUsed": "0x15536cd",
      "logs": [
        {
          "address": "0x8aafd3ede9adb0ff97c7aebce82a919afb1c8764",
          "topics": [
            "0xddf252ad1be2c89b69c2b068fc378daa952ba7f163c4a11628f55a4df523b3ef",
            "0x000000000000000000000000c77f7fed3b5cc8249adc428c5f44c9063b9734b4",
            "0x0000000000000000000000000000000000000000000000000000000000000000"
          ],
          "data": "0x000000000000000000000000000000000000000000000000000000a6b8371540",
          "blockHash": "0xa43f31c69785ef869094d98dd06d763e31fdd98e7a46fed757520f4676b0d0cc",
          "blockNumber": "0x731d9c",
          "transactionHash": "0xe4de1ba53e73c7de75d8edf85c19480fede7d7702ba3a01e1d09202228ce1d87",
          "transactionIndex": "0x99",
          "logIndex": "0x133",
          "removed": false
        },
        {
          "address": "0x8aafd3ede9adb0ff97c7aebce82a919afb1c8764",
          "topics": [
            "0xddf252ad1be2c89b69c2b068fc378daa952ba7f163c4a11628f55a4df523b3ef",
            "0x000000000000000000000000c77f7fed3b5cc8249adc428c5f44c9063b9734b4",
            "0x000000000000000000000000c77f7fed3b5cc8249adc428c5f44c9063b9734b4"
          ],
          "data": "0x000000000000000000000000000000000000000000000000000000015831fe1b",
          "blockHash": "0xa43f31c69785ef869094d98dd06d763e31fdd98e7a46fed757520f4676b0d0cc",
          "blockNumber": "0x731d9c",
          "transactionHash": "0xe4de1ba53e73c7de75d8edf85c19480fede7d7702ba3a01e1d09202228ce1d87",
          "transactionIndex": "0x99",
          "logIndex": "0x134",
          "removed": false
        },
        {
          "address": "0x8aafd3ede9adb0ff97c7aebce82a919afb1c8764",
          "topics": [
            "0x4afcb4a87cdbd9974efdb92ee48bc8d7cd0ae4bf217004db3d080cbaee652ca7"
          ],
          "data": "0x000000000000000000000000000000000000000000000000000000006790603800000000000000000000000000000000000000000000000000141f8d1614f7fa00000000000000000000000000000000000000000000000000000000f3b2cdaa",
          "blockHash": "0xa43f31c69785ef869094d98dd06d763e31fdd98e7a46fed757520f4676b0d0cc",
          "blockNumber": "0x731d9c",
          "transactionHash": "0xe4de1ba53e73c7de75d8edf85c19480fede7d7702ba3a01e1d09202228ce1d87",
          "transactionIndex": "0x99",
          "logIndex": "0x135",
          "removed": false
        }
      ],
      "logsBloom": "0x00000000000000000000000000000000000000000600000000000000000000000000000000000000000000000000000000000000000000004000000000000000000000000000004000000008000000000000000000000000000000000000000000000000020000000000000000000800020000000000000000000010000000000000000000000000000000000000000000000000000000000000010000000000000000000000000000000000000000004000000000000000000000000000000000000002000000800000000000000000000000000000080000000000000020000000000000000000000000000000000000000000000000000000000000000000",
      "type": "0x2",
      "transactionHash": "0xe4de1ba53e73c7de75d8edf85c19480fede7d7702ba3a01e1d09202228ce1d87",
      "transactionIndex": "0x99",
      "blockHash": "0xa43f31c69785ef869094d98dd06d763e31fdd98e7a46fed757520f4676b0d0cc",
      "blockNumber": "0x731d9c",
      "gasUsed": "0xfd1b",
      "effectiveGasPrice": "0x62aee094",
      "from": "0xc77f7fed3b5cc8249adc428c5f44c9063b9734b4",
      "to": "0x8aafd3ede9adb0ff97c7aebce82a919afb1c8764",
      "contractAddress": null
    }
  ],
  "libraries": [],
  "pending": [],
  "returns": {},
  "timestamp": 1737515065,
  "chain": 11155111,
  "commit": "1d2fb70"
}