{
  "transactions": [
    {
      "hash": "0xd1c60b297159f7900880a969109aaaaf04b9eac5d79669a4015e7a2b501f274e",
      "transactionType": "CALL",
      "contractName": null,
      "contractAddress": "0x8aafd3ede9adb0ff97c7aebce82a919afb1c8764",
      "function": "sell(uint256)",
      "arguments": [
        "14423144953792929"
      ],
      "transaction": {
        "from": "0xc77f7fed3b5cc8249adc428c5f44c9063b9734b4",
        "to": "0x8aafd3ede9adb0ff97c7aebce82a919afb1c8764",
        "gas": "0x1724d",
        "value": "0x0",
        "input": "0xe4849b3200000000000000000000000000000000000000000000000000333dc61f83c9a1",
        "nonce": "0x148c",
        "chainId": "0xaa36a7"
      },
      "additionalContracts": [],
      "isFixedGasLimit": false
    }
  ],
  "receipts": [
    {
      "status": "0x1",
      "cumulativeGasUsed": "0xea72cf",
      "logs": [
        {
          "address": "0x8aafd3ede9adb0ff97c7aebce82a919afb1c8764",
          "topics": [
            "0xddf252ad1be2c89b69c2b068fc378daa952ba7f163c4a11628f55a4df523b3ef",
            "0x000000000000000000000000c77f7fed3b5cc8249adc428c5f44c9063b9734b4",
            "0x0000000000000000000000000000000000000000000000000000000000000000"
          ],
          "data": "0x0000000000000000000000000000000000000000000000000032d4d4ec100b9a",
          "blockHash": "0x30cc6a94d61267e78e1167e523040f3bc227282ccd67f145edb285891d2caf8c",
          "blockNumber": "0x731bdc",
          "transactionHash": "0xd1c60b297159f7900880a969109aaaaf04b9eac5d79669a4015e7a2b501f274e",
          "transactionIndex": "0x9b",
          "logIndex": "0xbf",
          "removed": false
        },
        {
          "address": "0x8aafd3ede9adb0ff97c7aebce82a919afb1c8764",
          "topics": [
            "0xddf252ad1be2c89b69c2b068fc378daa952ba7f163c4a11628f55a4df523b3ef",
            "0x000000000000000000000000c77f7fed3b5cc8249adc428c5f44c9063b9734b4",
            "0x000000000000000000000000c77f7fed3b5cc8249adc428c5f44c9063b9734b4"
          ],
          "data": "0x000000000000000000000000000000000000000000000000000068f13373be07",
          "blockHash": "0x30cc6a94d61267e78e1167e523040f3bc227282ccd67f145edb285891d2caf8c",
          "blockNumber": "0x731bdc",
          "transactionHash": "0xd1c60b297159f7900880a969109aaaaf04b9eac5d79669a4015e7a2b501f274e",
          "transactionIndex": "0x9b",
          "logIndex": "0xc0",
          "removed": false
        },
        {
          "address": "0x8aafd3ede9adb0ff97c7aebce82a919afb1c8764",
          "topics": [
            "0x4afcb4a87cdbd9974efdb92ee48bc8d7cd0ae4bf217004db3d080cbaee652ca7"
          ],
          "data": "0x0000000000000000000000000000000000000000000000000000000067904b2c000000000000000000000000000000000000000000000000000fc1e718433efc00000000000000000000000000000000000000000000000000003a2e79bd16cb",
          "blockHash": "0x30cc6a94d61267e78e1167e523040f3bc227282ccd67f145edb285891d2caf8c",
          "blockNumber": "0x731bdc",
          "transactionHash": "0xd1c60b297159f7900880a969109aaaaf04b9eac5d79669a4015e7a2b501f274e",
          "transactionIndex": "0x9b",
          "logIndex": "0xc1",
          "removed": false
        }
      ],
      "logsBloom": "0x00000000000000000000000000000000000000000600000000000000000000000000000000000000000000000000000000000000000000004000000000000000000000000000004000000008000000000000000000000000000000000000000000000000020000000000000000000800020000000000000000000010000000000000000000000000000000000000000000000000000000000000010000000000000000000000000000000000000000004000000000000000000000000000000000000002000000800000000000000000000000000000080000000000000020000000000000000000000000000000000000000000000000000000000000000000",
      "type": "0x2",
      "transactionHash": "0xd1c60b297159f7900880a969109aaaaf04b9eac5d79669a4015e7a2b501f274e",
      "transactionIndex": "0x9b",
      "blockHash": "0x30cc6a94d61267e78e1167e523040f3bc227282ccd67f145edb285891d2caf8c",
      "blockNumber": "0x731bdc",
      "gasUsed": "0xfd33",
      "effectiveGasPrice": "0x11a303a94",
      "from": "0xc77f7fed3b5cc8249adc428c5f44c9063b9734b4",
      "to": "0x8aafd3ede9adb0ff97c7aebce82a919afb1c8764",
      "contractAddress": null
    }
  ],
  "libraries": [],
  "pending": [],
  "returns": {},
  "timestamp": 1737509678,
  "chain": 11155111,
  "commit": "1d2fb70"
}