{
  "transactions": [
    {
      "hash": "0xbedccc614793a09f8937af0ddda09403d97a3d65b9c5984d178ff805363bc6be",
      "transactionType": "CALL",
      "contractName": null,
      "contractAddress": "0xca42cb29c8ddaeca1ba6ddbccc9ac9554e4864d2",
      "function": "borrow(uint256,uint256)",
      "arguments": [
        "9999999999999990",
        "0"
      ],
      "transaction": {
        "from": "0xc77f7fed3b5cc8249adc428c5f44c9063b9734b4",
        "to": "0xca42cb29c8ddaeca1ba6ddbccc9ac9554e4864d2",
        "gas": "0x589d5",
        "value": "0x0",
        "input": "0x0ecbcdab000000000000000000000000000000000000000000000000002386f26fc0fff60000000000000000000000000000000000000000000000000000000000000000",
        "nonce": "0x18f5",
        "chainId": "0xaa36a7"
      },
      "additionalContracts": [],
      "isFixedGasLimit": false
    }
  ],
  "receipts": [
    {
      "status": "0x1",
      "cumulativeGasUsed": "0xb73df4",
      "logs": [
        {
          "address": "0xca42cb29c8ddaeca1ba6ddbccc9ac9554e4864d2",
          "topics": [
            "0xddf252ad1be2c89b69c2b068fc378daa952ba7f163c4a11628f55a4df523b3ef",
            "0x000000000000000000000000c77f7fed3b5cc8249adc428c5f44c9063b9734b4",
            "0x000000000000000000000000ca42cb29c8ddaeca1ba6ddbccc9ac9554e4864d2"
          ],
          "data": "0x0000000000000000000000000000000000000000000000008aae4bbc519735a6",
          "blockHash": "0x23655f7a2cd0165a990b685da280af59737e504e68daca7f23b00dd40d108db4",
          "blockNumber": "0x739860",
          "transactionHash": "0xbedccc614793a09f8937af0ddda09403d97a3d65b9c5984d178ff805363bc6be",
          "transactionIndex": "0x60",
          "logIndex": "0x8c",
          "removed": false
        },
        {
          "address": "0xca42cb29c8ddaeca1ba6ddbccc9ac9554e4864d2",
          "topics": [
            "0x03bbe564cb1b78e43195eeadbde99e5b89b19345862807fcfb59f884e4165e25"
          ],
          "data": "0x00000000000000000000000038818e389773445cd73adbaa37b8b169f458c6e1000000000000000000000000000000000000000000000000000002bb30ed607a",
          "blockHash": "0x23655f7a2cd0165a990b685da280af59737e504e68daca7f23b00dd40d108db4",
          "blockNumber": "0x739860",
          "transactionHash": "0xbedccc614793a09f8937af0ddda09403d97a3d65b9c5984d178ff805363bc6be",
          "transactionIndex": "0x60",
          "logIndex": "0x8d",
          "removed": false
        },
        {
          "address": "0xca42cb29c8ddaeca1ba6ddbccc9ac9554e4864d2",
          "topics": [
            "0x03bbe564cb1b78e43195eeadbde99e5b89b19345862807fcfb59f884e4165e25"
          ],
          "data": "0x000000000000000000000000c77f7fed3b5cc8249adc428c5f44c9063b9734b4000000000000000000000000000000000000000000000000002319e60ad867f8",
          "blockHash": "0x23655f7a2cd0165a990b685da280af59737e504e68daca7f23b00dd40d108db4",
          "blockNumber": "0x739860",
          "transactionHash": "0xbedccc614793a09f8937af0ddda09403d97a3d65b9c5984d178ff805363bc6be",
          "transactionIndex": "0x60",
          "logIndex": "0x8e",
          "removed": false
        },
        {
          "address": "0xca42cb29c8ddaeca1ba6ddbccc9ac9554e4864d2",
          "topics": [
            "0xaec00f5213a37254bc68a26b0685d1a5b2bf513e1e587c94c7df7f4a62b56c9c"
          ],
          "data": "0x0000000000000000000000000000000000000000000000008aae4bbc519735a6000000000000000000000000000000000000000000000000002322fe594b07f7000000000000000000000000000000000000000000000000002322fe594b07f70000000000000000000000000000000000000000000000008aae4bbc519735a6",
          "blockHash": "0x23655f7a2cd0165a990b685da280af59737e504e68daca7f23b00dd40d108db4",
          "blockNumber": "0x739860",
          "transactionHash": "0xbedccc614793a09f8937af0ddda09403d97a3d65b9c5984d178ff805363bc6be",
          "transactionIndex": "0x60",
          "logIndex": "0x8f",
          "removed": false
        },
        {
          "address": "0xca42cb29c8ddaeca1ba6ddbccc9ac9554e4864d2",
          "topics": [
            "0x4afcb4a87cdbd9974efdb92ee48bc8d7cd0ae4bf217004db3d080cbaee652ca7"
          ],
          "data": "0x000000000000000000000000000000000000000000000000000000006796590000000000000000000000000000000000000000000000000000038e218e209ff2000000000000000000000000000000000000000000000000000009184e729fff",
          "blockHash": "0x23655f7a2cd0165a990b685da280af59737e504e68daca7f23b00dd40d108db4",
          "blockNumber": "0x739860",
          "transactionHash": "0xbedccc614793a09f8937af0ddda09403d97a3d65b9c5984d178ff805363bc6be",
          "transactionIndex": "0x60",
          "logIndex": "0x90",
          "removed": false
        }
      ],
      "logsBloom": "0x00000000020000000000000000000100400000000000000000000000000000880008000000000000800000000000000000002000000000004000000000000000000000000000000000000008000000000000000000000000000000080000000000000000000000000000000000000000020000000000000000000010000000000000000000000000000000000000000000000000000000000000010000000000000000000000000000000400000000004000000000000000000000001000000000000002000000800000000000000000000100000000080000000000000000000000000000000000000000000000000000000000000000000000000000000000",
      "type": "0x2",
      "transactionHash": "0xbedccc614793a09f8937af0ddda09403d97a3d65b9c5984d178ff805363bc6be",
      "transactionIndex": "0x60",
      "blockHash": "0x23655f7a2cd0165a990b685da280af59737e504e68daca7f23b00dd40d108db4",
      "blockNumber": "0x739860",
      "gasUsed": "0x4027d",
      "effectiveGasPrice": "0x403f233d1",
      "from": "0xc77f7fed3b5cc8249adc428c5f44c9063b9734b4",
      "to": "0xca42cb29c8ddaeca1ba6ddbccc9ac9554e4864d2",
      "contractAddress": null
    }
  ],
  "libraries": [],
  "pending": [],
  "returns": {},
  "timestamp": 1737906433,
  "chain": 11155111,
  "commit": "f5162e9"
}