{
  "transactions": [
    {
      "hash": "0x84f923079dbbe8f7e72e001e3b563321e7267a160c187d1e8a3eee7d58b1db45",
      "transactionType": "CALL",
      "contractName": null,
      "contractAddress": "0x8aafd3ede9adb0ff97c7aebce82a919afb1c8764",
      "function": "sell(uint256)",
      "arguments": [
        "38352629"
      ],
      "transaction": {
        "from": "0xc77f7fed3b5cc8249adc428c5f44c9063b9734b4",
        "to": "0x8aafd3ede9adb0ff97c7aebce82a919afb1c8764",
        "gas": "0x15d88",
        "value": "0x0",
        "input": "0xe4849b3200000000000000000000000000000000000000000000000000000000024936f5",
        "nonce": "0x1769",
        "chainId": "0xaa36a7"
      },
      "additionalContracts": [],
      "isFixedGasLimit": false
    }
  ],
  "receipts": [
    {
      "status": "0x1",
      "cumulativeGasUsed": "0xd9cca1",
      "logs": [
        {
          "address": "0x8aafd3ede9adb0ff97c7aebce82a919afb1c8764",
          "topics": [
            "0xddf252ad1be2c89b69c2b068fc378daa952ba7f163c4a11628f55a4df523b3ef",
            "0x000000000000000000000000c77f7fed3b5cc8249adc428c5f44c9063b9734b4",
            "0x0000000000000000000000000000000000000000000000000000000000000000"
          ],
          "data": "0x0000000000000000000000000000000000000000000000000000000002448870",
          "blockHash": "0x1f35d863a0e7a4c510e4ce27bfa6c14d57bce5918d331554f848dded115aab0f",
          "blockNumber": "0x731f40",
          "transactionHash": "0x84f923079dbbe8f7e72e001e3b563321e7267a160c187d1e8a3eee7d58b1db45",
          "transactionIndex": "0xa2",
          "logIndex": "0xe7",
          "removed": false
        },
        {
          "address": "0x8aafd3ede9adb0ff97c7aebce82a919afb1c8764",
          "topics": [
            "0xddf252ad1be2c89b69c2b068fc378daa952ba7f163c4a11628f55a4df523b3ef",
            "0x000000000000000000000000c77f7fed3b5cc8249adc428c5f44c9063b9734b4",
            "0x000000000000000000000000c77f7fed3b5cc8249adc428c5f44c9063b9734b4"
          ],
          "data": "0x000000000000000000000000000000000000000000000000000000000004ae85",
          "blockHash": "0x1f35d863a0e7a4c510e4ce27bfa6c14d57bce5918d331554f848dded115aab0f",
          "blockNumber": "0x731f40",
          "transactionHash": "0x84f923079dbbe8f7e72e001e3b563321e7267a160c187d1e8a3eee7d58b1db45",
          "transactionIndex": "0xa2",
          "logIndex": "0xe8",
          "removed": false
        },
        {
          "address": "0x8aafd3ede9adb0ff97c7aebce82a919afb1c8764",
          "topics": [
            "0x4afcb4a87cdbd9974efdb92ee48bc8d7cd0ae4bf217004db3d080cbaee652ca7"
          ],
          "data": "0x00000000000000000000000000000000000000000000000000000000679073e8000000000000000000000000000000000000000000000000001837f956d37b4e000000000000000000000000000000000000000000000000000000000003fd47",
          "blockHash": "0x1f35d863a0e7a4c510e4ce27bfa6c14d57bce5918d331554f848dded115aab0f",
          "blockNumber": "0x731f40",
          "transactionHash": "0x84f923079dbbe8f7e72e001e3b563321e7267a160c187d1e8a3eee7d58b1db45",
          "transactionIndex": "0xa2",
          "logIndex": "0xe9",
          "removed": false
        }
      ],
      "logsBloom": "0x00000000000000000000000000000000000000000600000000000000000000000000000000000000000000000000000000000000000000004000000000000000000000000000004000000008000000000000000000000000000000000000000000000000020000000000000000000800020000000000000000000010000000000000000000000000000000000000000000000000000000000000010000000000000000000000000000000000000000004000000000000000000000000000000000000002000000800000000000000000000000000000080000000000000020000000000000000000000000000000000000000000000000000000000000000000",
      "type": "0x2",
      "transactionHash": "0x84f923079dbbe8f7e72e001e3b563321e7267a160c187d1e8a3eee7d58b1db45",
      "transactionIndex": "0xa2",
      "blockHash": "0x1f35d863a0e7a4c510e4ce27bfa6c14d57bce5918d331554f848dded115aab0f",
      "blockNumber": "0x731f40",
      "gasUsed": "0xfd0f",
      "effectiveGasPrice": "0x3170df75",
      "from": "0xc77f7fed3b5cc8249adc428c5f44c9063b9734b4",
      "to": "0x8aafd3ede9adb0ff97c7aebce82a919afb1c8764",
      "contractAddress": null
    }
  ],
  "libraries": [],
  "pending": [],
  "returns": {},
  "timestamp": 1737520105,
  "chain": 11155111,
  "commit": "1d2fb70"
}