{
  "transactions": [
    {
      "hash": "0x6475e229a329c8f7057a10729a7b9d26d3bee3ba169d5f7d9fb61cffa77a525a",
      "transactionType": "CALL",
      "contractName": null,
      "contractAddress": "0x5eb9cc76c3506942c1c0ead70e877dd5e4f00cb0",
      "function": "buy(address)",
      "arguments": [
        "0xC77f7fed3b5Cc8249aDc428c5F44C9063B9734b4"
      ],
      "transaction": {
        "from": "0xc77f7fed3b5cc8249adc428c5f44c9063b9734b4",
        "to": "0x5eb9cc76c3506942c1c0ead70e877dd5e4f00cb0",
        "gas": "0x1b30c",
        "value": "0xde0b6b3a7640000",
        "input": "0xf088d547000000000000000000000000c77f7fed3b5cc8249adc428c5f44c9063b9734b4",
        "nonce": "0x264",
        "chainId": "0xaa36a7"
      },
      "additionalContracts": [],
      "isFixedGasLimit": false
    }
  ],
  "receipts": [
    {
      "status": "0x1",
      "cumulativeGasUsed": "0xc0309b",
      "logs": [
        {
          "address": "0x5eb9cc76c3506942c1c0ead70e877dd5e4f00cb0",
          "topics": [
            "0xddf252ad1be2c89b69c2b068fc378daa952ba7f163c4a11628f55a4df523b3ef",
            "0x0000000000000000000000000000000000000000000000000000000000000000",
            "0x000000000000000000000000c77f7fed3b5cc8249adc428c5f44c9063b9734b4"
          ],
          "data": "0x0000000000000000000000000000000000000000000000357c1778b2fa9a3d1c",
          "blockHash": "0x868adf1fb73d45cbacc90669f288c7c5927813a631a9c4a878a932db56ac5fe7",
          "blockNumber": "0x724e24",
          "transactionHash": "0x6475e229a329c8f7057a10729a7b9d26d3bee3ba169d5f7d9fb61cffa77a525a",
          "transactionIndex": "0x58",
          "logIndex": "0xca",
          "removed": false
        },
        {
          "address": "0x5eb9cc76c3506942c1c0ead70e877dd5e4f00cb0",
          "topics": [
            "0xddf252ad1be2c89b69c2b068fc378daa952ba7f163c4a11628f55a4df523b3ef",
            "0x0000000000000000000000000000000000000000000000000000000000000000",
            "0x000000000000000000000000c77f7fed3b5cc8249adc428c5f44c9063b9734b4"
          ],
          "data": "0x000000000000000000000000000000000000000000000000298860508e961b21",
          "blockHash": "0x868adf1fb73d45cbacc90669f288c7c5927813a631a9c4a878a932db56ac5fe7",
          "blockNumber": "0x724e24",
          "transactionHash": "0x6475e229a329c8f7057a10729a7b9d26d3bee3ba169d5f7d9fb61cffa77a525a",
          "transactionIndex": "0x58",
          "logIndex": "0xcb",
          "removed": false
        },
        {
          "address": "0x5eb9cc76c3506942c1c0ead70e877dd5e4f00cb0",
          "topics": [
            "0x4afcb4a87cdbd9974efdb92ee48bc8d7cd0ae4bf217004db3d080cbaee652ca7"
          ],
          "data": "0x0000000000000000000000000000000000000000000000000000000067869b640000000000000000000000000000000000000000000000000003909c8094b9810000000000000000000000000000000000000000000000000de0b6b3a7640000",
          "blockHash": "0x868adf1fb73d45cbacc90669f288c7c5927813a631a9c4a878a932db56ac5fe7",
          "blockNumber": "0x724e24",
          "transactionHash": "0x6475e229a329c8f7057a10729a7b9d26d3bee3ba169d5f7d9fb61cffa77a525a",
          "transactionIndex": "0x58",
          "logIndex": "0xcc",
          "removed": false
        }
      ],
      "logsBloom": "0x00000000000000000000000000000000000000000000000000000000000000000000000000000000000000000000000000000000000000004000000000000000000000000000000000000008000000000000000000000000000000000000000000000000020000000000000004000800020000000000000000000010000000000000000000000000000000000000000000000000000000000000010000000000000000000000000000000000000000004000000000000000000000000000020000000002000000800000008000000000000000000000080000000000000020000000000000000000000000000000000000000000000000000000000000000000",
      "type": "0x2",
      "transactionHash": "0x6475e229a329c8f7057a10729a7b9d26d3bee3ba169d5f7d9fb61cffa77a525a",
      "transactionIndex": "0x58",
      "blockHash": "0x868adf1fb73d45cbacc90669f288c7c5927813a631a9c4a878a932db56ac5fe7",
      "blockNumber": "0x724e24",
      "gasUsed": "0x13af8",
      "effectiveGasPrice": "0x3978f721f",
      "from": "0xc77f7fed3b5cc8249adc428c5f44c9063b9734b4",
      "to": "0x5eb9cc76c3506942c1c0ead70e877dd5e4f00cb0",
      "contractAddress": null
    }
  ],
  "libraries": [],
  "pending": [],
  "returns": {},
  "timestamp": 1736874854,
  "chain": 11155111,
  "commit": "51a374b"
}