{
  "transactions": [
    {
      "hash": "0xe4f4d71ec7fd62fb87ec3d82fefae4b33696351a9ba9c32d0315fde08f5bc6c4",
      "transactionType": "CALL",
      "contractName": null,
      "contractAddress": "0x5eb9cc76c3506942c1c0ead70e877dd5e4f00cb0",
      "function": "sell(uint256)",
      "arguments": [
        "989121671606799094066"
      ],
      "transaction": {
        "from": "0xc77f7fed3b5cc8249adc428c5f44c9063b9734b4",
        "to": "0x5eb9cc76c3506942c1c0ead70e877dd5e4f00cb0",
        "gas": "0x16fec",
        "value": "0x0",
        "input": "0xe4849b320000000000000000000000000000000000000000000000359ed217bc33d6d132",
        "nonce": "0x379",
        "chainId": "0xaa36a7"
      },
      "additionalContracts": [],
      "isFixedGasLimit": false
    }
  ],
  "receipts": [
    {
      "status": "0x1",
      "cumulativeGasUsed": "0xbfd142",
      "logs": [
        {
          "address": "0x5eb9cc76c3506942c1c0ead70e877dd5e4f00cb0",
          "topics": [
            "0xddf252ad1be2c89b69c2b068fc378daa952ba7f163c4a11628f55a4df523b3ef",
            "0x000000000000000000000000c77f7fed3b5cc8249adc428c5f44c9063b9734b4",
            "0x0000000000000000000000000000000000000000000000000000000000000000"
          ],
          "data": "0x0000000000000000000000000000000000000000000000359ed217bc33d6d132",
          "blockHash": "0xb0c69f0516265c757db2e281fd980e8168ccefc2235fa000eaa0dcb9ff4a2435",
          "blockNumber": "0x724f72",
          "transactionHash": "0xe4f4d71ec7fd62fb87ec3d82fefae4b33696351a9ba9c32d0315fde08f5bc6c4",
          "transactionIndex": "0x6d",
          "logIndex": "0xaa",
          "removed": false
        },
        {
          "address": "0x5eb9cc76c3506942c1c0ead70e877dd5e4f00cb0",
          "topics": [
            "0x4afcb4a87cdbd9974efdb92ee48bc8d7cd0ae4bf217004db3d080cbaee652ca7"
          ],
          "data": "0x000000000000000000000000000000000000000000000000000000006786ab0c0000000000000000000000000000000000000000000000000003911059c3dd6b0000000000000000000000000000000000000000000000000dc7db13320e0295",
          "blockHash": "0xb0c69f0516265c757db2e281fd980e8168ccefc2235fa000eaa0dcb9ff4a2435",
          "blockNumber": "0x724f72",
          "transactionHash": "0xe4f4d71ec7fd62fb87ec3d82fefae4b33696351a9ba9c32d0315fde08f5bc6c4",
          "transactionIndex": "0x6d",
          "logIndex": "0xab",
          "removed": false
        }
      ],
      "logsBloom": "0x00000000000000000000000000000000000000000000000000000000000000000000000000000000000000000000000000000000000000004000000000000000000000000000000000000008000000000000000000000000000000000000000000000000020000000000000004000800020000000000000000000010000000000000000000000000000000000000000000000000000000000000010000000000000000000000000000000000000000004000000000000000000000000000020000000002000000800000008000000000000000000000080000000000000020000000000000000000000000000000000000000000000000000000000000000000",
      "type": "0x2",
      "transactionHash": "0xe4f4d71ec7fd62fb87ec3d82fefae4b33696351a9ba9c32d0315fde08f5bc6c4",
      "transactionIndex": "0x6d",
      "blockHash": "0xb0c69f0516265c757db2e281fd980e8168ccefc2235fa000eaa0dcb9ff4a2435",
      "blockNumber": "0x724f72",
      "gasUsed": "0xfb93",
      "effectiveGasPrice": "0x5bfc4bed9",
      "from": "0xc77f7fed3b5cc8249adc428c5f44c9063b9734b4",
      "to": "0x5eb9cc76c3506942c1c0ead70e877dd5e4f00cb0",
      "contractAddress": null
    }
  ],
  "libraries": [],
  "pending": [],
  "returns": {},
  "timestamp": 1736878862,
  "chain": 11155111,
  "commit": "51a374b"
}