{
  "transactions": [
    {
      "hash": "0xd52cb69ddd8c878a3ce3bba6e7c5baba39fef2ec5b5064c7269a6d1ecc1fc71d",
      "transactionType": "CALL",
      "contractName": null,
      "contractAddress": "0x8aafd3ede9adb0ff97c7aebce82a919afb1c8764",
      "function": "sell(uint256)",
      "arguments": [
        "9242207887846414"
      ],
      "transaction": {
        "from": "0xc77f7fed3b5cc8249adc428c5f44c9063b9734b4",
        "to": "0x8aafd3ede9adb0ff97c7aebce82a919afb1c8764",
        "gas": "0x1724d",
        "value": "0x0",
        "input": "0xe4849b320000000000000000000000000000000000000000000000000020d5bd36186c0e",
        "nonce": "0x1780",
        "chainId": "0xaa36a7"
      },
      "additionalContracts": [],
      "isFixedGasLimit": false
    }
  ],
  "receipts": [
    {
      "status": "0x1",
      "cumulativeGasUsed": "0xad6a1e",
      "logs": [
        {
          "address": "0x8aafd3ede9adb0ff97c7aebce82a919afb1c8764",
          "topics": [
            "0xddf252ad1be2c89b69c2b068fc378daa952ba7f163c4a11628f55a4df523b3ef",
            "0x000000000000000000000000c77f7fed3b5cc8249adc428c5f44c9063b9734b4",
            "0x0000000000000000000000000000000000000000000000000000000000000000"
          ],
          "data": "0x0000000000000000000000000000000000000000000000000020927e41f35cdb",
          "blockHash": "0x1d4c230f953478e93e4e55f2ef50415249c00f4765a6379bd7e5d13d1ae38748",
          "blockNumber": "0x731f5b",
          "transactionHash": "0xd52cb69ddd8c878a3ce3bba6e7c5baba39fef2ec5b5064c7269a6d1ecc1fc71d",
          "transactionIndex": "0x6d",
          "logIndex": "0xb0",
          "removed": false
        },
        {
          "address": "0x8aafd3ede9adb0ff97c7aebce82a919afb1c8764",
          "topics": [
            "0xddf252ad1be2c89b69c2b068fc378daa952ba7f163c4a11628f55a4df523b3ef",
            "0x000000000000000000000000c77f7fed3b5cc8249adc428c5f44c9063b9734b4",
            "0x000000000000000000000000c77f7fed3b5cc8249adc428c5f44c9063b9734b4"
          ],
          "data": "0x0000000000000000000000000000000000000000000000000000433ef4250f33",
          "blockHash": "0x1d4c230f953478e93e4e55f2ef50415249c00f4765a6379bd7e5d13d1ae38748",
          "blockNumber": "0x731f5b",
          "transactionHash": "0xd52cb69ddd8c878a3ce3bba6e7c5baba39fef2ec5b5064c7269a6d1ecc1fc71d",
          "transactionIndex": "0x6d",
          "logIndex": "0xb1",
          "removed": false
        },
        {
          "address": "0x8aafd3ede9adb0ff97c7aebce82a919afb1c8764",
          "topics": [
            "0x4afcb4a87cdbd9974efdb92ee48bc8d7cd0ae4bf217004db3d080cbaee652ca7"
          ],
          "data": "0x000000000000000000000000000000000000000000000000000000006790752c000000000000000000000000000000000000000000000000001888f521d096a700000000000000000000000000000000000000000000000000003a0cc67ae55a",
          "blockHash": "0x1d4c230f953478e93e4e55f2ef50415249c00f4765a6379bd7e5d13d1ae38748",
          "blockNumber": "0x731f5b",
          "transactionHash": "0xd52cb69ddd8c878a3ce3bba6e7c5baba39fef2ec5b5064c7269a6d1ecc1fc71d",
          "transactionIndex": "0x6d",
          "logIndex": "0xb2",
          "removed": false
        }
      ],
      "logsBloom": "0x00000000000000000000000000000000000000000600000000000000000000000000000000000000000000000000000000000000000000004000000000000000000000000000004000000008000000000000000000000000000000000000000000000000020000000000000000000800020000000000000000000010000000000000000000000000000000000000000000000000000000000000010000000000000000000000000000000000000000004000000000000000000000000000000000000002000000800000000000000000000000000000080000000000000020000000000000000000000000000000000000000000000000000000000000000000",
      "type": "0x2",
      "transactionHash": "0xd52cb69ddd8c878a3ce3bba6e7c5baba39fef2ec5b5064c7269a6d1ecc1fc71d",
      "transactionIndex": "0x6d",
      "blockHash": "0x1d4c230f953478e93e4e55f2ef50415249c00f4765a6379bd7e5d13d1ae38748",
      "blockNumber": "0x731f5b",
      "gasUsed": "0xfd33",
      "effectiveGasPrice": "0x49930568",
      "from": "0xc77f7fed3b5cc8249adc428c5f44c9063b9734b4",
      "to": "0x8aafd3ede9adb0ff97c7aebce82a919afb1c8764",
      "contractAddress": null
    }
  ],
  "libraries": [],
  "pending": [],
  "returns": {},
  "timestamp": 1737520429,
  "chain": 11155111,
  "commit": "1d2fb70"
}