{
  "transactions": [
    {
      "hash": "0x1dc69d7167967244e436df3c6aea677115f4fa73cb7453999880d08b31d43550",
      "transactionType": "CALL",
      "contractName": null,
      "contractAddress": "0x8afcfd5ee3a2d7e4934351fbbb9b3c842fe5638d",
      "function": "buy(address)",
      "arguments": [
        "0xF66076775AD1f36dd12C1f1b10C21d1aadf0D6dE"
      ],
      "transaction": {
        "from": "0xf66076775ad1f36dd12c1f1b10c21d1aadf0d6de",
        "to": "0x8afcfd5ee3a2d7e4934351fbbb9b3c842fe5638d",
        "gas": "0x2000d",
        "value": "0x2386f26fc10000",
        "input": "0xf088d547000000000000000000000000f66076775ad1f36dd12c1f1b10c21d1aadf0d6de",
        "nonce": "0x75",
        "chainId": "0xaa36a7"
      },
      "additionalContracts": [],
      "isFixedGasLimit": false
    },
    {
      "hash": "0x960c6323058a6176445064df6b14e4c979094a7c1a45ca79f4c1d5d583f2f175",
      "transactionType": "CALL",
      "contractName": null,
      "contractAddress": "0x8afcfd5ee3a2d7e4934351fbbb9b3c842fe5638d",
      "function": "borrow(uint256,uint256)",
      "arguments": [
        "9949748743718592",
        "0"
      ],
      "transaction": {
        "from": "0xf66076775ad1f36dd12c1f1b10c21d1aadf0d6de",
        "to": "0x8afcfd5ee3a2d7e4934351fbbb9b3c842fe5638d",
        "gas": "0x52ca3",
        "value": "0x0",
        "input": "0x0ecbcdab0000000000000000000000000000000000000000000000000023593e677946c00000000000000000000000000000000000000000000000000000000000000000",
        "nonce": "0x76",
        "chainId": "0xaa36a7"
      },
      "additionalContracts": [],
      "isFixedGasLimit": false
    }
  ],
  "receipts": [
    {
      "status": "0x1",
      "cumulativeGasUsed": "0x8c3b34",
      "logs": [
        {
          "address": "0x8afcfd5ee3a2d7e4934351fbbb9b3c842fe5638d",
          "topics": [
            "0xddf252ad1be2c89b69c2b068fc378daa952ba7f163c4a11628f55a4df523b3ef",
            "0x0000000000000000000000000000000000000000000000000000000000000000",
            "0x000000000000000000000000f66076775ad1f36dd12c1f1b10c21d1aadf0d6de"
          ],
          "data": "0x0000000000000000000000000000000000000000000000008963dd8c2c5e26ac",
          "blockHash": "0xbc6be32ad0b7baa73580f19402a86d5f8b1319cc76c053f557ac5e267c8a1bef",
          "blockNumber": "0x73d781",
          "transactionHash": "0x1dc69d7167967244e436df3c6aea677115f4fa73cb7453999880d08b31d43550",
          "transactionIndex": "0x68",
          "logIndex": "0x90",
          "removed": false
        },
        {
          "address": "0x8afcfd5ee3a2d7e4934351fbbb9b3c842fe5638d",
          "topics": [
            "0x4afcb4a87cdbd9974efdb92ee48bc8d7cd0ae4bf217004db3d080cbaee652ca7"
          ],
          "data": "0x0000000000000000000000000000000000000000000000000000000067995d9800000000000000000000000000000000000000000000000000039210a59a78eb000000000000000000000000000000000000000000000000002386f26fc10000",
          "blockHash": "0xbc6be32ad0b7baa73580f19402a86d5f8b1319cc76c053f557ac5e267c8a1bef",
          "blockNumber": "0x73d781",
          "transactionHash": "0x1dc69d7167967244e436df3c6aea677115f4fa73cb7453999880d08b31d43550",
          "transactionIndex": "0x68",
          "logIndex": "0x91",
          "removed": false
        }
      ],
      "logsBloom": "0x00000000000000040000000000000000000000000000000000000000000000000000000000000000000000000000000000000000000000004000000000000000000000000000000000000008000000000000000000000000000000000000000080000000020000000000000000000800a20000000000000000000010000000000000000000000000000000000000000000000000000000000000000000000000000000000000000000000000000000004000000000000000000000000000000000000002000000000000000000000000000000000000000000000020000020000000000000000000000000000000000000000000000000000001000000000000",
      "type": "0x2",
      "transactionHash": "0x1dc69d7167967244e436df3c6aea677115f4fa73cb7453999880d08b31d43550",
      "transactionIndex": "0x68",
      "blockHash": "0xbc6be32ad0b7baa73580f19402a86d5f8b1319cc76c053f557ac5e267c8a1bef",
      "blockNumber": "0x73d781",
      "gasUsed": "0x172b8",
      "effectiveGasPrice": "0x3ba89af6",
      "from": "0xf66076775ad1f36dd12c1f1b10c21d1aadf0d6de",
      "to": "0x8afcfd5ee3a2d7e4934351fbbb9b3c842fe5638d",
      "contractAddress": null
    },
    {
      "status": "0x1",
      "cumulativeGasUsed": "0x8ffa38",
      "logs": [
        {
          "address": "0x8afcfd5ee3a2d7e4934351fbbb9b3c842fe5638d",
          "topics": [
            "0xddf252ad1be2c89b69c2b068fc378daa952ba7f163c4a11628f55a4df523b3ef",
            "0x000000000000000000000000f66076775ad1f36dd12c1f1b10c21d1aadf0d6de",
            "0x0000000000000000000000008afcfd5ee3a2d7e4934351fbbb9b3c842fe5638d"
          ],
          "data": "0x0000000000000000000000000000000000000000000000008963dd8c2c5e22eb",
          "blockHash": "0xbc6be32ad0b7baa73580f19402a86d5f8b1319cc76c053f557ac5e267c8a1bef",
          "blockNumber": "0x73d781",
          "transactionHash": "0x960c6323058a6176445064df6b14e4c979094a7c1a45ca79f4c1d5d583f2f175",
          "transactionIndex": "0x69",
          "logIndex": "0x92",
          "removed": false
        },
        {
          "address": "0x8afcfd5ee3a2d7e4934351fbbb9b3c842fe5638d",
          "topics": [
            "0x03bbe564cb1b78e43195eeadbde99e5b89b19345862807fcfb59f884e4165e25"
          ],
          "data": "0x000000000000000000000000f66076775ad1f36dd12c1f1b10c21d1aadf0d6de0000000000000000000000000000000000000000000000000022f5b3bbd6eb18",
          "blockHash": "0xbc6be32ad0b7baa73580f19402a86d5f8b1319cc76c053f557ac5e267c8a1bef",
          "blockNumber": "0x73d781",
          "transactionHash": "0x960c6323058a6176445064df6b14e4c979094a7c1a45ca79f4c1d5d583f2f175",
          "transactionIndex": "0x69",
          "logIndex": "0x93",
          "removed": false
        },
        {
          "address": "0x8afcfd5ee3a2d7e4934351fbbb9b3c842fe5638d",
          "topics": [
            "0x03bbe564cb1b78e43195eeadbde99e5b89b19345862807fcfb59f884e4165e25"
          ],
          "data": "0x00000000000000000000000038818e389773445cd73adbaa37b8b169f458c6e1000000000000000000000000000000000000000000000000000002b6fb5f310b",
          "blockHash": "0xbc6be32ad0b7baa73580f19402a86d5f8b1319cc76c053f557ac5e267c8a1bef",
          "blockNumber": "0x73d781",
          "transactionHash": "0x960c6323058a6176445064df6b14e4c979094a7c1a45ca79f4c1d5d583f2f175",
          "transactionIndex": "0x69",
          "logIndex": "0x94",
          "removed": false
        },
        {
          "address": "0x8afcfd5ee3a2d7e4934351fbbb9b3c842fe5638d",
          "topics": [
            "0xaec00f5213a37254bc68a26b0685d1a5b2bf513e1e587c94c7df7f4a62b56c9c"
          ],
          "data": "0x0000000000000000000000000000000000000000000000008963dd8c2c5e22eb0000000000000000000000000000000000000000000000000022fec05714393e0000000000000000000000000000000000000000000000000022fec05714393e0000000000000000000000000000000000000000000000008963dd8c2c5e22eb",
          "blockHash": "0xbc6be32ad0b7baa73580f19402a86d5f8b1319cc76c053f557ac5e267c8a1bef",
          "blockNumber": "0x73d781",
          "transactionHash": "0x960c6323058a6176445064df6b14e4c979094a7c1a45ca79f4c1d5d583f2f175",
          "transactionIndex": "0x69",
          "logIndex": "0x95",
          "removed": false
        },
        {
          "address": "0x8afcfd5ee3a2d7e4934351fbbb9b3c842fe5638d",
          "topics": [
            "0x4afcb4a87cdbd9974efdb92ee48bc8d7cd0ae4bf217004db3d080cbaee652ca7"
          ],
          "data": "0x0000000000000000000000000000000000000000000000000000000067995d980000000000000000000000000000000000000000000000000003926222b3c8db0000000000000000000000000000000000000000000000000000090c9b3d4e26",
          "blockHash": "0xbc6be32ad0b7baa73580f19402a86d5f8b1319cc76c053f557ac5e267c8a1bef",
          "blockNumber": "0x73d781",
          "transactionHash": "0x960c6323058a6176445064df6b14e4c979094a7c1a45ca79f4c1d5d583f2f175",
          "transactionIndex": "0x69",
          "logIndex": "0x96",
          "removed": false
        }
      ],
      "logsBloom": "0x00000000000000040000000000000100400000000000000000000000040000000008000010000000000000000000000000002000000000004000000000000000000000000000000000000008000000000000000000000000000000000000000080000000000000000000000000000000a20000000000000000000010000000000000000000000000000000000000000000000000000000000000000000000040000000000000000000000400000000004000000000000000000000001000000000000002000000000000000000000000000000000000000000000020000000000000000000000000000000000000000000000000000000000001000000000000",
      "type": "0x2",
      "transactionHash": "0x960c6323058a6176445064df6b14e4c979094a7c1a45ca79f4c1d5d583f2f175",
      "transactionIndex": "0x69",
      "blockHash": "0xbc6be32ad0b7baa73580f19402a86d5f8b1319cc76c053f557ac5e267c8a1bef",
      "blockNumber": "0x73d781",
      "gasUsed": "0x3bf04",
      "effectiveGasPrice": "0x3ba89af6",
      "from": "0xf66076775ad1f36dd12c1f1b10c21d1aadf0d6de",
      "to": "0x8afcfd5ee3a2d7e4934351fbbb9b3c842fe5638d",
      "contractAddress": null
    }
  ],
  "libraries": [],
  "pending": [],
  "returns": {},
  "timestamp": 1738104216,
  "chain": 11155111,
  "commit": "b6e395f"
}