{
  "transactions": [
    {
      "hash": "0xf23e102e0d5a947fe12caa287e0cfa7ffbbb1d4f404fe0527024248b5373e608",
      "transactionType": "CALL",
      "contractName": null,
      "contractAddress": "0x8aafd3ede9adb0ff97c7aebce82a919afb1c8764",
      "function": "sell(uint256)",
      "arguments": [
        "2727859916848"
      ],
      "transaction": {
        "from": "0xc77f7fed3b5cc8249adc428c5f44c9063b9734b4",
        "to": "0x8aafd3ede9adb0ff97c7aebce82a919afb1c8764",
        "gas": "0x15daa",
        "value": "0x0",
        "input": "0xe4849b320000000000000000000000000000000000000000000000000000027b211f1030",
        "nonce": "0x12c5",
        "chainId": "0xaa36a7"
      },
      "additionalContracts": [],
      "isFixedGasLimit": false
    }
  ],
  "receipts": [
    {
      "status": "0x1",
      "cumulativeGasUsed": "0xa6fe11",
      "logs": [
        {
          "address": "0x8aafd3ede9adb0ff97c7aebce82a919afb1c8764",
          "topics": [
            "0xddf252ad1be2c89b69c2b068fc378daa952ba7f163c4a11628f55a4df523b3ef",
            "0x000000000000000000000000c77f7fed3b5cc8249adc428c5f44c9063b9734b4",
            "0x0000000000000000000000000000000000000000000000000000000000000000"
          ],
          "data": "0x000000000000000000000000000000000000000000000000000002760c6059ca",
          "blockHash": "0xa0bc3074a0e7dc533838337c9b85ed8b9374fbb66ca2ef014f04cea08a64486e",
          "blockNumber": "0x7319bf",
          "transactionHash": "0xf23e102e0d5a947fe12caa287e0cfa7ffbbb1d4f404fe0527024248b5373e608",
          "transactionIndex": "0x7b",
          "logIndex": "0x9f",
          "removed": false
        },
        {
          "address": "0x8aafd3ede9adb0ff97c7aebce82a919afb1c8764",
          "topics": [
            "0xddf252ad1be2c89b69c2b068fc378daa952ba7f163c4a11628f55a4df523b3ef",
            "0x000000000000000000000000c77f7fed3b5cc8249adc428c5f44c9063b9734b4",
            "0x000000000000000000000000c77f7fed3b5cc8249adc428c5f44c9063b9734b4"
          ],
          "data": "0x0000000000000000000000000000000000000000000000000000000514beb666",
          "blockHash": "0xa0bc3074a0e7dc533838337c9b85ed8b9374fbb66ca2ef014f04cea08a64486e",
          "blockNumber": "0x7319bf",
          "transactionHash": "0xf23e102e0d5a947fe12caa287e0cfa7ffbbb1d4f404fe0527024248b5373e608",
          "transactionIndex": "0x7b",
          "logIndex": "0xa0",
          "removed": false
        },
        {
          "address": "0x8aafd3ede9adb0ff97c7aebce82a919afb1c8764",
          "topics": [
            "0x4afcb4a87cdbd9974efdb92ee48bc8d7cd0ae4bf217004db3d080cbaee652ca7"
          ],
          "data": "0x00000000000000000000000000000000000000000000000000000000679031c400000000000000000000000000000000000000000000000000054d8b3370767000000000000000000000000000000000000000000000000000000000f2b13477",
          "blockHash": "0xa0bc3074a0e7dc533838337c9b85ed8b9374fbb66ca2ef014f04cea08a64486e",
          "blockNumber": "0x7319bf",
          "transactionHash": "0xf23e102e0d5a947fe12caa287e0cfa7ffbbb1d4f404fe0527024248b5373e608",
          "transactionIndex": "0x7b",
          "logIndex": "0xa1",
          "removed": false
        }
      ],
      "logsBloom": "0x00000000000000000000000000000000000000000600000000000000000000000000000000000000000000000000000000000000000000004000000000000000000000000000004000000008000000000000000000000000000000000000000000000000020000000000000000000800020000000000000000000010000000000000000000000000000000000000000000000000000000000000010000000000000000000000000000000000000000004000000000000000000000000000000000000002000000800000000000000000000000000000080000000000000020000000000000000000000000000000000000000000000000000000000000000000",
      "type": "0x2",
      "transactionHash": "0xf23e102e0d5a947fe12caa287e0cfa7ffbbb1d4f404fe0527024248b5373e608",
      "transactionIndex": "0x7b",
      "blockHash": "0xa0bc3074a0e7dc533838337c9b85ed8b9374fbb66ca2ef014f04cea08a64486e",
      "blockNumber": "0x7319bf",
      "gasUsed": "0xfd27",
      "effectiveGasPrice": "0x412a56c2",
      "from": "0xc77f7fed3b5cc8249adc428c5f44c9063b9734b4",
      "to": "0x8aafd3ede9adb0ff97c7aebce82a919afb1c8764",
      "contractAddress": null
    }
  ],
  "libraries": [],
  "pending": [],
  "returns": {},
  "timestamp": 1737503173,
  "chain": 11155111,
  "commit": "1d2fb70"
}