{
  "transactions": [
    {
      "hash": "0x0612ba4794807c53a85265d7864c732ae0223999932b0a3f7567ea571a3e7186",
      "transactionType": "CALL",
      "contractName": null,
      "contractAddress": "0x8aafd3ede9adb0ff97c7aebce82a919afb1c8764",
      "function": "sell(uint256)",
      "arguments": [
        "11570"
      ],
      "transaction": {
        "from": "0xc77f7fed3b5cc8249adc428c5f44c9063b9734b4",
        "to": "0x8aafd3ede9adb0ff97c7aebce82a919afb1c8764",
        "gas": "0x14e4c",
        "value": "0x0",
        "input": "0xe4849b320000000000000000000000000000000000000000000000000000000000002d32",
        "nonce": "0x1189",
        "chainId": "0xaa36a7"
      },
      "additionalContracts": [],
      "isFixedGasLimit": false
    }
  ],
  "receipts": [
    {
      "status": "0x1",
      "cumulativeGasUsed": "0xcce023",
      "logs": [
        {
          "address": "0x8aafd3ede9adb0ff97c7aebce82a919afb1c8764",
          "topics": [
            "0xddf252ad1be2c89b69c2b068fc378daa952ba7f163c4a11628f55a4df523b3ef",
            "0x000000000000000000000000c77f7fed3b5cc8249adc428c5f44c9063b9734b4",
            "0x0000000000000000000000000000000000000000000000000000000000000000"
          ],
          "data": "0x0000000000000000000000000000000000000000000000000000000000002cd6",
          "blockHash": "0xcc5503dca01630a7a6f8d9e673fd35fa47387e8e50926908c1aca72afe1962c0",
          "blockNumber": "0x73184c",
          "transactionHash": "0x0612ba4794807c53a85265d7864c732ae0223999932b0a3f7567ea571a3e7186",
          "transactionIndex": "0x8c",
          "logIndex": "0xbc",
          "removed": false
        },
        {
          "address": "0x8aafd3ede9adb0ff97c7aebce82a919afb1c8764",
          "topics": [
            "0xddf252ad1be2c89b69c2b068fc378daa952ba7f163c4a11628f55a4df523b3ef",
            "0x000000000000000000000000c77f7fed3b5cc8249adc428c5f44c9063b9734b4",
            "0x000000000000000000000000c77f7fed3b5cc8249adc428c5f44c9063b9734b4"
          ],
          "data": "0x000000000000000000000000000000000000000000000000000000000000005c",
          "blockHash": "0xcc5503dca01630a7a6f8d9e673fd35fa47387e8e50926908c1aca72afe1962c0",
          "blockNumber": "0x73184c",
          "transactionHash": "0x0612ba4794807c53a85265d7864c732ae0223999932b0a3f7567ea571a3e7186",
          "transactionIndex": "0x8c",
          "logIndex": "0xbd",
          "removed": false
        },
        {
          "address": "0x8aafd3ede9adb0ff97c7aebce82a919afb1c8764",
          "topics": [
            "0x4afcb4a87cdbd9974efdb92ee48bc8d7cd0ae4bf217004db3d080cbaee652ca7"
          ],
          "data": "0x000000000000000000000000000000000000000000000000000000006790205400000000000000000000000000000000000000000000000000051f0b35fb817b0000000000000000000000000000000000000000000000000000000000000010",
          "blockHash": "0xcc5503dca01630a7a6f8d9e673fd35fa47387e8e50926908c1aca72afe1962c0",
          "blockNumber": "0x73184c",
          "transactionHash": "0x0612ba4794807c53a85265d7864c732ae0223999932b0a3f7567ea571a3e7186",
          "transactionIndex": "0x8c",
          "logIndex": "0xbe",
          "removed": false
        }
      ],
      "logsBloom": "0x00000000000000000000000000000000000000000600000000000000000000000000000000000000000000000000000000000000000000004000000000000000000000000000004000000008000000000000000000000000000000000000000000000000020000000000000000000800020000000000000000000010000000000000000000000000000000000000000000000000000000000000010000000000000000000000000000000000000000004000000000000000000000000000000000000002000000800000000000000000000000000000080000000000000020000000000000000000000000000000000000000000000000000000000000000000",
      "type": "0x2",
      "transactionHash": "0x0612ba4794807c53a85265d7864c732ae0223999932b0a3f7567ea571a3e7186",
      "transactionIndex": "0x8c",
      "blockHash": "0xcc5503dca01630a7a6f8d9e673fd35fa47387e8e50926908c1aca72afe1962c0",
      "blockNumber": "0x73184c",
      "gasUsed": "0xf207",
      "effectiveGasPrice": "0x3d829bf4",
      "from": "0xc77f7fed3b5cc8249adc428c5f44c9063b9734b4",
      "to": "0x8aafd3ede9adb0ff97c7aebce82a919afb1c8764",
      "contractAddress": null
    }
  ],
  "libraries": [],
  "pending": [],
  "returns": {},
  "timestamp": 1737498710,
  "chain": 11155111,
  "commit": "1d2fb70"
}