{
  "transactions": [
    {
      "hash": "0x825efa25142baaa3235f84d562fed88dda694923a2f25a6b953a3eaac81e493b",
      "transactionType": "CALL",
      "contractName": null,
      "contractAddress": "0x5eb9cc76c3506942c1c0ead70e877dd5e4f00cb0",
      "function": "buy(address)",
      "arguments": [
        "0xC77f7fed3b5Cc8249aDc428c5F44C9063B9734b4"
      ],
      "transaction": {
        "from": "0xc77f7fed3b5cc8249adc428c5f44c9063b9734b4",
        "to": "0x5eb9cc76c3506942c1c0ead70e877dd5e4f00cb0",
        "gas": "0x1b30c",
        "value": "0xde0b6b3a7640000",
        "input": "0xf088d547000000000000000000000000c77f7fed3b5cc8249adc428c5f44c9063b9734b4",
        "nonce": "0x372",
        "chainId": "0xaa36a7"
      },
      "additionalContracts": [],
      "isFixedGasLimit": false
    }
  ],
  "receipts": [
    {
      "status": "0x1",
      "cumulativeGasUsed": "0x171b9e3",
      "logs": [
        {
          "address": "0x5eb9cc76c3506942c1c0ead70e877dd5e4f00cb0",
          "topics": [
            "0xddf252ad1be2c89b69c2b068fc378daa952ba7f163c4a11628f55a4df523b3ef",
            "0x0000000000000000000000000000000000000000000000000000000000000000",
            "0x000000000000000000000000c77f7fed3b5cc8249adc428c5f44c9063b9734b4"
          ],
          "data": "0x00000000000000000000000000000000000000000000003575525edb87cd7d01",
          "blockHash": "0x1e59ec4ac66e2008da3b85dddd1c31a900ed079a9d95e6aaa5a92a38824044a1",
          "blockNumber": "0x724f69",
          "transactionHash": "0x825efa25142baaa3235f84d562fed88dda694923a2f25a6b953a3eaac81e493b",
          "transactionIndex": "0xc5",
          "logIndex": "0x16a",
          "removed": false
        },
        {
          "address": "0x5eb9cc76c3506942c1c0ead70e877dd5e4f00cb0",
          "topics": [
            "0xddf252ad1be2c89b69c2b068fc378daa952ba7f163c4a11628f55a4df523b3ef",
            "0x0000000000000000000000000000000000000000000000000000000000000000",
            "0x000000000000000000000000c77f7fed3b5cc8249adc428c5f44c9063b9734b4"
          ],
          "data": "0x00000000000000000000000000000000000000000000000029831e80af715655",
          "blockHash": "0x1e59ec4ac66e2008da3b85dddd1c31a900ed079a9d95e6aaa5a92a38824044a1",
          "blockNumber": "0x724f69",
          "transactionHash": "0x825efa25142baaa3235f84d562fed88dda694923a2f25a6b953a3eaac81e493b",
          "transactionIndex": "0xc5",
          "logIndex": "0x16b",
          "removed": false
        },
        {
          "address": "0x5eb9cc76c3506942c1c0ead70e877dd5e4f00cb0",
          "topics": [
            "0x4afcb4a87cdbd9974efdb92ee48bc8d7cd0ae4bf217004db3d080cbaee652ca7"
          ],
          "data": "0x000000000000000000000000000000000000000000000000000000006786aaa0000000000000000000000000000000000000000000000000000391101396faf20000000000000000000000000000000000000000000000000de0b6b3a7640000",
          "blockHash": "0x1e59ec4ac66e2008da3b85dddd1c31a900ed079a9d95e6aaa5a92a38824044a1",
          "blockNumber": "0x724f69",
          "transactionHash": "0x825efa25142baaa3235f84d562fed88dda694923a2f25a6b953a3eaac81e493b",
          "transactionIndex": "0xc5",
          "logIndex": "0x16c",
          "removed": false
        }
      ],
      "logsBloom": "0x00000000000000000000000000000000000000000000000000000000000000000000000000000000000000000000000000000000000000004000000000000000000000000000000000000008000000000000000000000000000000000000000000000000020000000000000004000800020000000000000000000010000000000000000000000000000000000000000000000000000000000000010000000000000000000000000000000000000000004000000000000000000000000000020000000002000000800000008000000000000000000000080000000000000020000000000000000000000000000000000000000000000000000000000000000000",
      "type": "0x2",
      "transactionHash": "0x825efa25142baaa3235f84d562fed88dda694923a2f25a6b953a3eaac81e493b",
      "transactionIndex": "0xc5",
      "blockHash": "0x1e59ec4ac66e2008da3b85dddd1c31a900ed079a9d95e6aaa5a92a38824044a1",
      "blockNumber": "0x724f69",
      "gasUsed": "0x13af8",
      "effectiveGasPrice": "0x55b451ec5",
      "from": "0xc77f7fed3b5cc8249adc428c5f44c9063b9734b4",
      "to": "0x5eb9cc76c3506942c1c0ead70e877dd5e4f00cb0",
      "contractAddress": null
    }
  ],
  "libraries": [],
  "pending": [],
  "returns": {},
  "timestamp": 1736878754,
  "chain": 11155111,
  "commit": "51a374b"
}