{
  "transactions": [
    {
      "hash": "0xe646c16feb6f8915715f6da3568c459378b88b1292eb6f0d7772d9fd43593e53",
      "transactionType": "CALL",
      "contractName": null,
      "contractAddress": "0xbf4a322f1496e5c3d34a9bcdb4c60567b38c7de2",
      "function": "sell(uint256)",
      "arguments": [
        "990763441215612957310"
      ],
      "transaction": {
        "from": "0xc77f7fed3b5cc8249adc428c5f44c9063b9734b4",
        "to": "0xbf4a322f1496e5c3d34a9bcdb4c60567b38c7de2",
        "gas": "0x16fea",
        "value": "0x0",
        "input": "0xe4849b32000000000000000000000000000000000000000000000035b59ad47ef438b27e",
        "nonce": "0x8ff",
        "chainId": "0xaa36a7"
      },
      "additionalContracts": [],
      "isFixedGasLimit": false
    }
  ],
  "receipts": [
    {
      "status": "0x1",
      "cumulativeGasUsed": "0x11f4806",
      "logs": [
        {
          "address": "0xbf4a322f1496e5c3d34a9bcdb4c60567b38c7de2",
          "topics": [
            "0xddf252ad1be2c89b69c2b068fc378daa952ba7f163c4a11628f55a4df523b3ef",
            "0x000000000000000000000000c77f7fed3b5cc8249adc428c5f44c9063b9734b4",
            "0x0000000000000000000000000000000000000000000000000000000000000000"
          ],
          "data": "0x000000000000000000000000000000000000000000000035b59ad47ef438b27e",
          "blockHash": "0x9f5e064636fa9ec7da381922b03b76a63a96953c0c2f830f311727916f4cf1dd",
          "blockNumber": "0x725877",
          "transactionHash": "0xe646c16feb6f8915715f6da3568c459378b88b1292eb6f0d7772d9fd43593e53",
          "transactionIndex": "0x59",
          "logIndex": "0x6d",
          "removed": false
        },
        {
          "address": "0xbf4a322f1496e5c3d34a9bcdb4c60567b38c7de2",
          "topics": [
            "0x4afcb4a87cdbd9974efdb92ee48bc8d7cd0ae4bf217004db3d080cbaee652ca7"
          ],
          "data": "0x00000000000000000000000000000000000000000000000000000000678717c000000000000000000000000000000000000000000000000000038f93686c56e00000000000000000000000000000000000000000000000000dc7e3fb175dfb1d",
          "blockHash": "0x9f5e064636fa9ec7da381922b03b76a63a96953c0c2f830f311727916f4cf1dd",
          "blockNumber": "0x725877",
          "transactionHash": "0xe646c16feb6f8915715f6da3568c459378b88b1292eb6f0d7772d9fd43593e53",
          "transactionIndex": "0x59",
          "logIndex": "0x6e",
          "removed": false
        }
      ],
      "logsBloom": "0x00000000000000000000000000000000000000000000000000000000000000000000000000000000000000000000000000000000000000004000000000000000000000000000000000000008000000000000001000000000000000000000000000000000020000000000000000000800020000000000000000000010000000000000000000000000000000000000000000000000000008000000010000000000000000000000000000000000000000004000000000000000000000000000000000000002000000800000000000001000000000000000080000000000000020000000000000000000000000000000000000000000000000000000000000000000",
      "type": "0x2",
      "transactionHash": "0xe646c16feb6f8915715f6da3568c459378b88b1292eb6f0d7772d9fd43593e53",
      "transactionIndex": "0x59",
      "blockHash": "0x9f5e064636fa9ec7da381922b03b76a63a96953c0c2f830f311727916f4cf1dd",
      "blockNumber": "0x725877",
      "gasUsed": "0xfb91",
      "effectiveGasPrice": "0x29babc5c",
      "from": "0xc77f7fed3b5cc8249adc428c5f44c9063b9734b4",
      "to": "0xbf4a322f1496e5c3d34a9bcdb4c60567b38c7de2",
      "contractAddress": null
    }
  ],
  "libraries": [],
  "pending": [],
  "returns": {},
  "timestamp": 1736906690,
  "chain": 11155111,
  "commit": "51a374b"
}