{
  "transactions": [
    {
      "hash": "0x2c5ca765e249804694384373c2e75442a8c4418a1b31aee377eb7d738a27a078",
      "transactionType": "CALL",
      "contractName": null,
      "contractAddress": "0x5eb9cc76c3506942c1c0ead70e877dd5e4f00cb0",
      "function": "buy(address)",
      "arguments": [
        "0xC77f7fed3b5Cc8249aDc428c5F44C9063B9734b4"
      ],
      "transaction": {
        "from": "0xc77f7fed3b5cc8249adc428c5f44c9063b9734b4",
        "to": "0x5eb9cc76c3506942c1c0ead70e877dd5e4f00cb0",
        "gas": "0x156c8",
        "value": "0xde0b6b3a7640000",
        "input": "0xf088d547000000000000000000000000c77f7fed3b5cc8249adc428c5f44c9063b9734b4",
        "nonce": "0x1db",
        "chainId": "0xaa36a7"
      },
      "additionalContracts": [],
      "isFixedGasLimit": false
    }
  ],
  "receipts": [
    {
      "status": "0x1",
      "cumulativeGasUsed": "0xd69b29",
      "logs": [
        {
          "address": "0x5eb9cc76c3506942c1c0ead70e877dd5e4f00cb0",
          "topics": [
            "0xddf252ad1be2c89b69c2b068fc378daa952ba7f163c4a11628f55a4df523b3ef",
            "0x0000000000000000000000000000000000000000000000000000000000000000",
            "0x000000000000000000000000c77f7fed3b5cc8249adc428c5f44c9063b9734b4"
          ],
          "data": "0x000000000000000000000000000000000000000000000035a360feaa912bd603",
          "blockHash": "0x526e7a251bd1a78c5ff39219652586e05feb589e18b8dca85ad2223c0be08910",
          "blockNumber": "0x723cce",
          "transactionHash": "0x2c5ca765e249804694384373c2e75442a8c4418a1b31aee377eb7d738a27a078",
          "transactionIndex": "0x86",
          "logIndex": "0xf9",
          "removed": false
        },
        {
          "address": "0x5eb9cc76c3506942c1c0ead70e877dd5e4f00cb0",
          "topics": [
            "0xddf252ad1be2c89b69c2b068fc378daa952ba7f163c4a11628f55a4df523b3ef",
            "0x0000000000000000000000000000000000000000000000000000000000000000",
            "0x000000000000000000000000c77f7fed3b5cc8249adc428c5f44c9063b9734b4"
          ],
          "data": "0x00000000000000000000000000000000000000000000000029a6e2531811fe45",
          "blockHash": "0x526e7a251bd1a78c5ff39219652586e05feb589e18b8dca85ad2223c0be08910",
          "blockNumber": "0x723cce",
          "transactionHash": "0x2c5ca765e249804694384373c2e75442a8c4418a1b31aee377eb7d738a27a078",
          "transactionIndex": "0x86",
          "logIndex": "0xfa",
          "removed": false
        },
        {
          "address": "0x5eb9cc76c3506942c1c0ead70e877dd5e4f00cb0",
          "topics": [
            "0x4afcb4a87cdbd9974efdb92ee48bc8d7cd0ae4bf217004db3d080cbaee652ca7"
          ],
          "data": "0x000000000000000000000000000000000000000000000000000000006785cafc00000000000000000000000000000000000000000000000000038e00104272b00000000000000000000000000000000000000000000000000de0b6b3a7640000",
          "blockHash": "0x526e7a251bd1a78c5ff39219652586e05feb589e18b8dca85ad2223c0be08910",
          "blockNumber": "0x723cce",
          "transactionHash": "0x2c5ca765e249804694384373c2e75442a8c4418a1b31aee377eb7d738a27a078",
          "transactionIndex": "0x86",
          "logIndex": "0xfb",
          "removed": false
        }
      ],
      "logsBloom": "0x00000000000000000000000000000000000000000000000000000000000000000000000000000000000000000000000000000000000000004000000000000000000000000000000000000008000000000000000000000000000000000000000000000000020000000000000004000800020000000000000000000010000000000000000000000000000000000000000000000000000000000000010000000000000000000000000000000000000000004000000000000000000000000000020000000002000000800000008000000000000000000000080000000000000020000000000000000000000000000000000000000000000000000000000000000000",
      "type": "0x2",
      "transactionHash": "0x2c5ca765e249804694384373c2e75442a8c4418a1b31aee377eb7d738a27a078",
      "transactionIndex": "0x86",
      "blockHash": "0x526e7a251bd1a78c5ff39219652586e05feb589e18b8dca85ad2223c0be08910",
      "blockNumber": "0x723cce",
      "gasUsed": "0xf82c",
      "effectiveGasPrice": "0x1d7b8008c",
      "from": "0xc77f7fed3b5cc8249adc428c5f44c9063b9734b4",
      "to": "0x5eb9cc76c3506942c1c0ead70e877dd5e4f00cb0",
      "contractAddress": null
    }
  ],
  "libraries": [],
  "pending": [],
  "returns": {},
  "timestamp": 1736821501,
  "chain": 11155111,
  "commit": "51a374b"
}