{
  "transactions": [
    {
      "hash": "0x2eebd03a1fc6bf20db2e9cc808a53981c15ab6f300793d6a09cd1a2daf676dce",
      "transactionType": "CALL",
      "contractName": null,
      "contractAddress": "0x5eb9cc76c3506942c1c0ead70e877dd5e4f00cb0",
      "function": "buy(address)",
      "arguments": [
        "0xC77f7fed3b5Cc8249aDc428c5F44C9063B9734b4"
      ],
      "transaction": {
        "from": "0xc77f7fed3b5cc8249adc428c5f44c9063b9734b4",
        "to": "0x5eb9cc76c3506942c1c0ead70e877dd5e4f00cb0",
        "gas": "0x1b30c",
        "value": "0xde0b6b3a7640000",
        "input": "0xf088d547000000000000000000000000c77f7fed3b5cc8249adc428c5f44c9063b9734b4",
        "nonce": "0x454",
        "chainId": "0xaa36a7"
      },
      "additionalContracts": [],
      "isFixedGasLimit": false
    }
  ],
  "receipts": [
    {
      "status": "0x1",
      "cumulativeGasUsed": "0xab0d1d",
      "logs": [
        {
          "address": "0x5eb9cc76c3506942c1c0ead70e877dd5e4f00cb0",
          "topics": [
            "0xddf252ad1be2c89b69c2b068fc378daa952ba7f163c4a11628f55a4df523b3ef",
            "0x0000000000000000000000000000000000000000000000000000000000000000",
            "0x000000000000000000000000c77f7fed3b5cc8249adc428c5f44c9063b9734b4"
          ],
          "data": "0x00000000000000000000000000000000000000000000003574d2cf32799a4259",
          "blockHash": "0xadd9f477218a45635af7fc2c3ba2a7c890b2bf0e81e54aff6108383ada7b1739",
          "blockNumber": "0x725076",
          "transactionHash": "0x2eebd03a1fc6bf20db2e9cc808a53981c15ab6f300793d6a09cd1a2daf676dce",
          "transactionIndex": "0x67",
          "logIndex": "0xa0",
          "removed": false
        },
        {
          "address": "0x5eb9cc76c3506942c1c0ead70e877dd5e4f00cb0",
          "topics": [
            "0xddf252ad1be2c89b69c2b068fc378daa952ba7f163c4a11628f55a4df523b3ef",
            "0x0000000000000000000000000000000000000000000000000000000000000000",
            "0x000000000000000000000000c77f7fed3b5cc8249adc428c5f44c9063b9734b4"
          ],
          "data": "0x0000000000000000000000000000000000000000000000002982bb72737f7063",
          "blockHash": "0xadd9f477218a45635af7fc2c3ba2a7c890b2bf0e81e54aff6108383ada7b1739",
          "blockNumber": "0x725076",
          "transactionHash": "0x2eebd03a1fc6bf20db2e9cc808a53981c15ab6f300793d6a09cd1a2daf676dce",
          "transactionIndex": "0x67",
          "logIndex": "0xa1",
          "removed": false
        },
        {
          "address": "0x5eb9cc76c3506942c1c0ead70e877dd5e4f00cb0",
          "topics": [
            "0x4afcb4a87cdbd9974efdb92ee48bc8d7cd0ae4bf217004db3d080cbaee652ca7"
          ],
          "data": "0x000000000000000000000000000000000000000000000000000000006786b754000000000000000000000000000000000000000000000000000391189666fe8b0000000000000000000000000000000000000000000000000de0b6b3a7640000",
          "blockHash": "0xadd9f477218a45635af7fc2c3ba2a7c890b2bf0e81e54aff6108383ada7b1739",
          "blockNumber": "0x725076",
          "transactionHash": "0x2eebd03a1fc6bf20db2e9cc808a53981c15ab6f300793d6a09cd1a2daf676dce",
          "transactionIndex": "0x67",
          "logIndex": "0xa2",
          "removed": false
        }
      ],
      "logsBloom": "0x00000000000000000000000000000000000000000000000000000000000000000000000000000000000000000000000000000000000000004000000000000000000000000000000000000008000000000000000000000000000000000000000000000000020000000000000004000800020000000000000000000010000000000000000000000000000000000000000000000000000000000000010000000000000000000000000000000000000000004000000000000000000000000000020000000002000000800000008000000000000000000000080000000000000020000000000000000000000000000000000000000000000000000000000000000000",
      "type": "0x2",
      "transactionHash": "0x2eebd03a1fc6bf20db2e9cc808a53981c15ab6f300793d6a09cd1a2daf676dce",
      "transactionIndex": "0x67",
      "blockHash": "0xadd9f477218a45635af7fc2c3ba2a7c890b2bf0e81e54aff6108383ada7b1739",
      "blockNumber": "0x725076",
      "gasUsed": "0x13af8",
      "effectiveGasPrice": "0x21184e0e8",
      "from": "0xc77f7fed3b5cc8249adc428c5f44c9063b9734b4",
      "to": "0x5eb9cc76c3506942c1c0ead70e877dd5e4f00cb0",
      "contractAddress": null
    }
  ],
  "libraries": [],
  "pending": [],
  "returns": {},
  "timestamp": 1736882006,
  "chain": 11155111,
  "commit": "51a374b"
}