{
  "transactions": [
    {
      "hash": "0x529cf8b9b03ae89740fb1d4829aee7bfa96c5390870ead490ee261de16184915",
      "transactionType": "CALL",
      "contractName": null,
      "contractAddress": "0x270e88f8683660553e8ba4eb2ad7c91a1710d769",
      "function": "sell(uint256)",
      "arguments": [
        "715211035810306112699"
      ],
      "transaction": {
        "from": "0xc77f7fed3b5cc8249adc428c5f44c9063b9734b4",
        "to": "0x270e88f8683660553e8ba4eb2ad7c91a1710d769",
        "gas": "0x16fec",
        "value": "0x0",
        "input": "0xe4849b32000000000000000000000000000000000000000000000026c58c07b8107abcbb",
        "nonce": "0x85c",
        "chainId": "0xaa36a7"
      },
      "additionalContracts": [],
      "isFixedGasLimit": false
    }
  ],
  "receipts": [
    {
      "status": "0x1",
      "cumulativeGasUsed": "0x1329bce",
      "logs": [
        {
          "address": "0x270e88f8683660553e8ba4eb2ad7c91a1710d769",
          "topics": [
            "0xddf252ad1be2c89b69c2b068fc378daa952ba7f163c4a11628f55a4df523b3ef",
            "0x000000000000000000000000c77f7fed3b5cc8249adc428c5f44c9063b9734b4",
            "0x0000000000000000000000000000000000000000000000000000000000000000"
          ],
          "data": "0x000000000000000000000000000000000000000000000026c58c07b8107abcbb",
          "blockHash": "0xd22a0a6d834689933e49c717fe3c863190d0ea77ed79f8cfd394467f281d2a74",
          "blockNumber": "0x7255b1",
          "transactionHash": "0x529cf8b9b03ae89740fb1d4829aee7bfa96c5390870ead490ee261de16184915",
          "transactionIndex": "0x49",
          "logIndex": "0x192",
          "removed": false
        },
        {
          "address": "0x270e88f8683660553e8ba4eb2ad7c91a1710d769",
          "topics": [
            "0x4afcb4a87cdbd9974efdb92ee48bc8d7cd0ae4bf217004db3d080cbaee652ca7"
          ],
          "data": "0x000000000000000000000000000000000000000000000000000000006786f6540000000000000000000000000000000000000000000000000004ef0a5f048d990000000000000000000000000000000000000000000000000dc825eef029eef6",
          "blockHash": "0xd22a0a6d834689933e49c717fe3c863190d0ea77ed79f8cfd394467f281d2a74",
          "blockNumber": "0x7255b1",
          "transactionHash": "0x529cf8b9b03ae89740fb1d4829aee7bfa96c5390870ead490ee261de16184915",
          "transactionIndex": "0x49",
          "logIndex": "0x193",
          "removed": false
        }
      ],
      "logsBloom": "0x00000000000000000000000000000000000000000000000000000000000000000000000000000000000000000000000020000000000000004000000000000000000000000000000000000008000000000000000000000000000000000000000000000000020000000000000000000800020000000000000000000010000000000000000000010000000000000000000000000000000000000000010000000000000000000000000000000000000000004000000000000000000000000000000000000002000000800000000000000000000000000000080000008000000020000000000000000000000000000000000000000000000000000000000000000000",
      "type": "0x2",
      "transactionHash": "0x529cf8b9b03ae89740fb1d4829aee7bfa96c5390870ead490ee261de16184915",
      "transactionIndex": "0x49",
      "blockHash": "0xd22a0a6d834689933e49c717fe3c863190d0ea77ed79f8cfd394467f281d2a74",
      "blockNumber": "0x7255b1",
      "gasUsed": "0xfb93",
      "effectiveGasPrice": "0x65ddd74f",
      "from": "0xc77f7fed3b5cc8249adc428c5f44c9063b9734b4",
      "to": "0x270e88f8683660553e8ba4eb2ad7c91a1710d769",
      "contractAddress": null
    }
  ],
  "libraries": [],
  "pending": [],
  "returns": {},
  "timestamp": 1736898134,
  "chain": 11155111,
  "commit": "51a374b"
}