{
  "transactions": [
    {
      "hash": "0xbb22ae51f1afd1d87737f497d3202d488a643ebd9e119f294ee8dd5f3794633f",
      "transactionType": "CALL",
      "contractName": null,
      "contractAddress": "0x8aafd3ede9adb0ff97c7aebce82a919afb1c8764",
      "function": "sell(uint256)",
      "arguments": [
        "5835567180"
      ],
      "transaction": {
        "from": "0xc77f7fed3b5cc8249adc428c5f44c9063b9734b4",
        "to": "0x8aafd3ede9adb0ff97c7aebce82a919afb1c8764",
        "gas": "0x1722a",
        "value": "0x0",
        "input": "0xe4849b32000000000000000000000000000000000000000000000000000000015bd3b04c",
        "nonce": "0x15f7",
        "chainId": "0xaa36a7"
      },
      "additionalContracts": [],
      "isFixedGasLimit": false
    }
  ],
  "receipts": [
    {
      "status": "0x1",
      "cumulativeGasUsed": "0xe07886",
      "logs": [
        {
          "address": "0x8aafd3ede9adb0ff97c7aebce82a919afb1c8764",
          "topics": [
            "0xddf252ad1be2c89b69c2b068fc378daa952ba7f163c4a11628f55a4df523b3ef",
            "0x000000000000000000000000c77f7fed3b5cc8249adc428c5f44c9063b9734b4",
            "0x0000000000000000000000000000000000000000000000000000000000000000"
          ],
          "data": "0x00000000000000000000000000000000000000000000000000000001590b56d3",
          "blockHash": "0x12814ddbddd79fa5ba24b4c0bd271c3f1161e720deed0f9b0f160edc667bb0c7",
          "blockNumber": "0x731d86",
          "transactionHash": "0xbb22ae51f1afd1d87737f497d3202d488a643ebd9e119f294ee8dd5f3794633f",
          "transactionIndex": "0x78",
          "logIndex": "0xe3",
          "removed": false
        },
        {
          "address": "0x8aafd3ede9adb0ff97c7aebce82a919afb1c8764",
          "topics": [
            "0xddf252ad1be2c89b69c2b068fc378daa952ba7f163c4a11628f55a4df523b3ef",
            "0x000000000000000000000000c77f7fed3b5cc8249adc428c5f44c9063b9734b4",
            "0x000000000000000000000000c77f7fed3b5cc8249adc428c5f44c9063b9734b4"
          ],
          "data": "0x0000000000000000000000000000000000000000000000000000000002c85979",
          "blockHash": "0x12814ddbddd79fa5ba24b4c0bd271c3f1161e720deed0f9b0f160edc667bb0c7",
          "blockNumber": "0x731d86",
          "transactionHash": "0xbb22ae51f1afd1d87737f497d3202d488a643ebd9e119f294ee8dd5f3794633f",
          "transactionIndex": "0x78",
          "logIndex": "0xe4",
          "removed": false
        },
        {
          "address": "0x8aafd3ede9adb0ff97c7aebce82a919afb1c8764",
          "topics": [
            "0x4afcb4a87cdbd9974efdb92ee48bc8d7cd0ae4bf217004db3d080cbaee652ca7"
          ],
          "data": "0x0000000000000000000000000000000000000000000000000000000067905f300000000000000000000000000000000000000000000000000013ea07cacd638a0000000000000000000000000000000000000000000000000000000001f31ed7",
          "blockHash": "0x12814ddbddd79fa5ba24b4c0bd271c3f1161e720deed0f9b0f160edc667bb0c7",
          "blockNumber": "0x731d86",
          "transactionHash": "0xbb22ae51f1afd1d87737f497d3202d488a643ebd9e119f294ee8dd5f3794633f",
          "transactionIndex": "0x78",
          "logIndex": "0xe5",
          "removed": false
        }
      ],
      "logsBloom": "0x00000000000000000000000000000000000000000600000000000000000000000000000000000000000000000000000000000000000000004000000000000000000000000000004000000008000000000000000000000000000000000000000000000000020000000000000000000800020000000000000000000010000000000000000000000000000000000000000000000000000000000000010000000000000000000000000000000000000000004000000000000000000000000000000000000002000000800000000000000000000000000000080000000000000020000000000000000000000000000000000000000000000000000000000000000000",
      "type": "0x2",
      "transactionHash": "0xbb22ae51f1afd1d87737f497d3202d488a643ebd9e119f294ee8dd5f3794633f",
      "transactionIndex": "0x78",
      "blockHash": "0x12814ddbddd79fa5ba24b4c0bd271c3f1161e720deed0f9b0f160edc667bb0c7",
      "blockNumber": "0x731d86",
      "gasUsed": "0xfd1b",
      "effectiveGasPrice": "0x66cdeb44",
      "from": "0xc77f7fed3b5cc8249adc428c5f44c9063b9734b4",
      "to": "0x8aafd3ede9adb0ff97c7aebce82a919afb1c8764",
      "contractAddress": null
    }
  ],
  "libraries": [],
  "pending": [],
  "returns": {},
  "timestamp": 1737514802,
  "chain": 11155111,
  "commit": "1d2fb70"
}