{
  "transactions": [
    {
      "hash": "0x11dd321b99c555f03965418cd3d6c1e7abaa7d754f705cc3a1e0c98084bb1f0d",
      "transactionType": "CALL",
      "contractName": null,
      "contractAddress": "0x8aafd3ede9adb0ff97c7aebce82a919afb1c8764",
      "function": "sell(uint256)",
      "arguments": [
        "113882819138437"
      ],
      "transaction": {
        "from": "0xc77f7fed3b5cc8249adc428c5f44c9063b9734b4",
        "to": "0x8aafd3ede9adb0ff97c7aebce82a919afb1c8764",
        "gas": "0x15daa",
        "value": "0x0",
        "input": "0xe4849b320000000000000000000000000000000000000000000000000000679368fb1385",
        "nonce": "0x149f",
        "chainId": "0xaa36a7"
      },
      "additionalContracts": [],
      "isFixedGasLimit": false
    }
  ],
  "receipts": [
    {
      "status": "0x1",
      "cumulativeGasUsed": "0xe7a11f",
      "logs": [
        {
          "address": "0x8aafd3ede9adb0ff97c7aebce82a919afb1c8764",
          "topics": [
            "0xddf252ad1be2c89b69c2b068fc378daa952ba7f163c4a11628f55a4df523b3ef",
            "0x000000000000000000000000c77f7fed3b5cc8249adc428c5f44c9063b9734b4",
            "0x0000000000000000000000000000000000000000000000000000000000000000"
          ],
          "data": "0x000000000000000000000000000000000000000000000000000066bf496bc172",
          "blockHash": "0x3245d26a380607de748b015ed16847d9aa1647869a0cdf470fd0fc917e525c07",
          "blockNumber": "0x731bf1",
          "transactionHash": "0x11dd321b99c555f03965418cd3d6c1e7abaa7d754f705cc3a1e0c98084bb1f0d",
          "transactionIndex": "0x90",
          "logIndex": "0xce",
          "removed": false
        },
        {
          "address": "0x8aafd3ede9adb0ff97c7aebce82a919afb1c8764",
          "topics": [
            "0xddf252ad1be2c89b69c2b068fc378daa952ba7f163c4a11628f55a4df523b3ef",
            "0x000000000000000000000000c77f7fed3b5cc8249adc428c5f44c9063b9734b4",
            "0x000000000000000000000000c77f7fed3b5cc8249adc428c5f44c9063b9734b4"
          ],
          "data": "0x000000000000000000000000000000000000000000000000000000d41f8f5213",
          "blockHash": "0x3245d26a380607de748b015ed16847d9aa1647869a0cdf470fd0fc917e525c07",
          "blockNumber": "0x731bf1",
          "transactionHash": "0x11dd321b99c555f03965418cd3d6c1e7abaa7d754f705cc3a1e0c98084bb1f0d",
          "transactionIndex": "0x90",
          "logIndex": "0xcf",
          "removed": false
        },
        {
          "address": "0x8aafd3ede9adb0ff97c7aebce82a919afb1c8764",
          "topics": [
            "0x4afcb4a87cdbd9974efdb92ee48bc8d7cd0ae4bf217004db3d080cbaee652ca7"
          ],
          "data": "0x0000000000000000000000000000000000000000000000000000000067904c28000000000000000000000000000000000000000000000000000ff6c9d34bd5c500000000000000000000000000000000000000000000000000000077256fa9a7",
          "blockHash": "0x3245d26a380607de748b015ed16847d9aa1647869a0cdf470fd0fc917e525c07",
          "blockNumber": "0x731bf1",
          "transactionHash": "0x11dd321b99c555f03965418cd3d6c1e7abaa7d754f705cc3a1e0c98084bb1f0d",
          "transactionIndex": "0x90",
          "logIndex": "0xd0",
          "removed": false
        }
      ],
      "logsBloom": "0x00000000000000000000000000000000000000000600000000000000000000000000000000000000000000000000000000000000000000004000000000000000000000000000004000000008000000000000000000000000000000000000000000000000020000000000000000000800020000000000000000000010000000000000000000000000000000000000000000000000000000000000010000000000000000000000000000000000000000004000000000000000000000000000000000000002000000800000000000000000000000000000080000000000000020000000000000000000000000000000000000000000000000000000000000000000",
      "type": "0x2",
      "transactionHash": "0x11dd321b99c555f03965418cd3d6c1e7abaa7d754f705cc3a1e0c98084bb1f0d",
      "transactionIndex": "0x90",
      "blockHash": "0x3245d26a380607de748b015ed16847d9aa1647869a0cdf470fd0fc917e525c07",
      "blockNumber": "0x731bf1",
      "gasUsed": "0xfd27",
      "effectiveGasPrice": "0x104dde52c",
      "from": "0xc77f7fed3b5cc8249adc428c5f44c9063b9734b4",
      "to": "0x8aafd3ede9adb0ff97c7aebce82a919afb1c8764",
      "contractAddress": null
    }
  ],
  "libraries": [],
  "pending": [],
  "returns": {},
  "timestamp": 1737509929,
  "chain": 11155111,
  "commit": "1d2fb70"
}