{
  "transactions": [
    {
      "hash": "0x82aab91ab5a7e2455beec2c168f528666e036d2905cf2f2c535a46ab797178d9",
      "transactionType": "CALL",
      "contractName": null,
      "contractAddress": "0xbf4a322f1496e5c3d34a9bcdb4c60567b38c7de2",
      "function": "sell(uint256)",
      "arguments": [
        "987426297509027045019"
      ],
      "transaction": {
        "from": "0xc77f7fed3b5cc8249adc428c5f44c9063b9734b4",
        "to": "0xbf4a322f1496e5c3d34a9bcdb4c60567b38c7de2",
        "gas": "0x16fea",
        "value": "0x0",
        "input": "0xe4849b32000000000000000000000000000000000000000000000035874ae9f9c8bcde9b",
        "nonce": "0x9f3",
        "chainId": "0xaa36a7"
      },
      "additionalContracts": [],
      "isFixedGasLimit": false
    }
  ],
  "receipts": [
    {
      "status": "0x1",
      "cumulativeGasUsed": "0x74ea39",
      "logs": [
        {
          "address": "0xbf4a322f1496e5c3d34a9bcdb4c60567b38c7de2",
          "topics": [
            "0xddf252ad1be2c89b69c2b068fc378daa952ba7f163c4a11628f55a4df523b3ef",
            "0x000000000000000000000000c77f7fed3b5cc8249adc428c5f44c9063b9734b4",
            "0x0000000000000000000000000000000000000000000000000000000000000000"
          ],
          "data": "0x000000000000000000000000000000000000000000000035874ae9f9c8bcde9b",
          "blockHash": "0xa1b72505cb8db8c714683fdcc09702c50cb6544053dda1e33261ee9d1e2c8ca7",
          "blockNumber": "0x7259a9",
          "transactionHash": "0x82aab91ab5a7e2455beec2c168f528666e036d2905cf2f2c535a46ab797178d9",
          "transactionIndex": "0x56",
          "logIndex": "0x6c",
          "removed": false
        },
        {
          "address": "0xbf4a322f1496e5c3d34a9bcdb4c60567b38c7de2",
          "topics": [
            "0x4afcb4a87cdbd9974efdb92ee48bc8d7cd0ae4bf217004db3d080cbaee652ca7"
          ],
          "data": "0x0000000000000000000000000000000000000000000000000000000067872624000000000000000000000000000000000000000000000000000392a811e9a5fe0000000000000000000000000000000000000000000000000dc7e3f3551fa8f9",
          "blockHash": "0xa1b72505cb8db8c714683fdcc09702c50cb6544053dda1e33261ee9d1e2c8ca7",
          "blockNumber": "0x7259a9",
          "transactionHash": "0x82aab91ab5a7e2455beec2c168f528666e036d2905cf2f2c535a46ab797178d9",
          "transactionIndex": "0x56",
          "logIndex": "0x6d",
          "removed": false
        }
      ],
      "logsBloom": "0x00000000000000000000000000000000000000000000000000000000000000000000000000000000000000000000000000000000000000004000000000000000000000000000000000000008000000000000001000000000000000000000000000000000020000000000000000000800020000000000000000000010000000000000000000000000000000000000000000000000000008000000010000000000000000000000000000000000000000004000000000000000000000000000000000000002000000800000000000001000000000000000080000000000000020000000000000000000000000000000000000000000000000000000000000000000",
      "type": "0x2",
      "transactionHash": "0x82aab91ab5a7e2455beec2c168f528666e036d2905cf2f2c535a46ab797178d9",
      "transactionIndex": "0x56",
      "blockHash": "0xa1b72505cb8db8c714683fdcc09702c50cb6544053dda1e33261ee9d1e2c8ca7",
      "blockNumber": "0x7259a9",
      "gasUsed": "0xfb91",
      "effectiveGasPrice": "0x2f752c96e",
      "from": "0xc77f7fed3b5cc8249adc428c5f44c9063b9734b4",
      "to": "0xbf4a322f1496e5c3d34a9bcdb4c60567b38c7de2",
      "contractAddress": null
    }
  ],
  "libraries": [],
  "pending": [],
  "returns": {},
  "timestamp": 1736910373,
  "chain": 11155111,
  "commit": "51a374b"
}