{
  "transactions": [
    {
      "hash": "0x7ad4338a15e817067a1be8c3ca211dc9d288525007f6416517625a782ccdbb11",
      "transactionType": "CALL",
      "contractName": null,
      "contractAddress": "0x8aafd3ede9adb0ff97c7aebce82a919afb1c8764",
      "function": "sell(uint256)",
      "arguments": [
        "49280319"
      ],
      "transaction": {
        "from": "0xc77f7fed3b5cc8249adc428c5f44c9063b9734b4",
        "to": "0x8aafd3ede9adb0ff97c7aebce82a919afb1c8764",
        "gas": "0x15d88",
        "value": "0x0",
        "input": "0xe4849b320000000000000000000000000000000000000000000000000000000002eff53f",
        "nonce": "0x159e",
        "chainId": "0xaa36a7"
      },
      "additionalContracts": [],
      "isFixedGasLimit": false
    }
  ],
  "receipts": [
    {
      "status": "0x1",
      "cumulativeGasUsed": "0x123796f",
      "logs": [
        {
          "address": "0x8aafd3ede9adb0ff97c7aebce82a919afb1c8764",
          "topics": [
            "0xddf252ad1be2c89b69c2b068fc378daa952ba7f163c4a11628f55a4df523b3ef",
            "0x000000000000000000000000c77f7fed3b5cc8249adc428c5f44c9063b9734b4",
            "0x0000000000000000000000000000000000000000000000000000000000000000"
          ],
          "data": "0x0000000000000000000000000000000000000000000000000000000002e9f13d",
          "blockHash": "0x1832953391f405be208588630576a3a24019040118cd287d0db706879f078ec4",
          "blockNumber": "0x731d10",
          "transactionHash": "0x7ad4338a15e817067a1be8c3ca211dc9d288525007f6416517625a782ccdbb11",
          "transactionIndex": "0x9f",
          "logIndex": "0x15e",
          "removed": false
        },
        {
          "address": "0x8aafd3ede9adb0ff97c7aebce82a919afb1c8764",
          "topics": [
            "0xddf252ad1be2c89b69c2b068fc378daa952ba7f163c4a11628f55a4df523b3ef",
            "0x000000000000000000000000c77f7fed3b5cc8249adc428c5f44c9063b9734b4",
            "0x000000000000000000000000c77f7fed3b5cc8249adc428c5f44c9063b9734b4"
          ],
          "data": "0x0000000000000000000000000000000000000000000000000000000000060402",
          "blockHash": "0x1832953391f405be208588630576a3a24019040118cd287d0db706879f078ec4",
          "blockNumber": "0x731d10",
          "transactionHash": "0x7ad4338a15e817067a1be8c3ca211dc9d288525007f6416517625a782ccdbb11",
          "transactionIndex": "0x9f",
          "logIndex": "0x15f",
          "removed": false
        },
        {
          "address": "0x8aafd3ede9adb0ff97c7aebce82a919afb1c8764",
          "topics": [
            "0x4afcb4a87cdbd9974efdb92ee48bc8d7cd0ae4bf217004db3d080cbaee652ca7"
          ],
          "data": "0x00000000000000000000000000000000000000000000000000000000679059a80000000000000000000000000000000000000000000000000012ded63b4a35a8000000000000000000000000000000000000000000000000000000000003fe7b",
          "blockHash": "0x1832953391f405be208588630576a3a24019040118cd287d0db706879f078ec4",
          "blockNumber": "0x731d10",
          "transactionHash": "0x7ad4338a15e817067a1be8c3ca211dc9d288525007f6416517625a782ccdbb11",
          "transactionIndex": "0x9f",
          "logIndex": "0x160",
          "removed": false
        }
      ],
      "logsBloom": "0x00000000000000000000000000000000000000000600000000000000000000000000000000000000000000000000000000000000000000004000000000000000000000000000004000000008000000000000000000000000000000000000000000000000020000000000000000000800020000000000000000000010000000000000000000000000000000000000000000000000000000000000010000000000000000000000000000000000000000004000000000000000000000000000000000000002000000800000000000000000000000000000080000000000000020000000000000000000000000000000000000000000000000000000000000000000",
      "type": "0x2",
      "transactionHash": "0x7ad4338a15e817067a1be8c3ca211dc9d288525007f6416517625a782ccdbb11",
      "transactionIndex": "0x9f",
      "blockHash": "0x1832953391f405be208588630576a3a24019040118cd287d0db706879f078ec4",
      "blockNumber": "0x731d10",
      "gasUsed": "0xfd0f",
      "effectiveGasPrice": "0x52440d3b",
      "from": "0xc77f7fed3b5cc8249adc428c5f44c9063b9734b4",
      "to": "0x8aafd3ede9adb0ff97c7aebce82a919afb1c8764",
      "contractAddress": null
    }
  ],
  "libraries": [],
  "pending": [],
  "returns": {},
  "timestamp": 1737513384,
  "chain": 11155111,
  "commit": "1d2fb70"
}