{
  "transactions": [
    {
      "hash": "0x71c5e86cac140134e161ef5713eaba650ed70867027edc4a083ea6b12434d0a3",
      "transactionType": "CALL",
      "contractName": null,
      "contractAddress": "0x8aafd3ede9adb0ff97c7aebce82a919afb1c8764",
      "function": "sell(uint256)",
      "arguments": [
        "43037926838086321"
      ],
      "transaction": {
        "from": "0xc77f7fed3b5cc8249adc428c5f44c9063b9734b4",
        "to": "0x8aafd3ede9adb0ff97c7aebce82a919afb1c8764",
        "gas": "0x1724d",
        "value": "0x0",
        "input": "0xe4849b320000000000000000000000000000000000000000000000000098e6c4350daab1",
        "nonce": "0x1269",
        "chainId": "0xaa36a7"
      },
      "additionalContracts": [],
      "isFixedGasLimit": false
    }
  ],
  "receipts": [
    {
      "status": "0x1",
      "cumulativeGasUsed": "0xe24da3",
      "logs": [
        {
          "address": "0x8aafd3ede9adb0ff97c7aebce82a919afb1c8764",
          "topics": [
            "0xddf252ad1be2c89b69c2b068fc378daa952ba7f163c4a11628f55a4df523b3ef",
            "0x000000000000000000000000c77f7fed3b5cc8249adc428c5f44c9063b9734b4",
            "0x0000000000000000000000000000000000000000000000000000000000000000"
          ],
          "data": "0x0000000000000000000000000000000000000000000000000097ad9fd253307f",
          "blockHash": "0xa4ed991088adbbf3d0d27a5b6af69c11140743d541a16150ef7542e799c5bba6",
          "blockNumber": "0x731950",
          "transactionHash": "0x71c5e86cac140134e161ef5713eaba650ed70867027edc4a083ea6b12434d0a3",
          "transactionIndex": "0x8a",
          "logIndex": "0xd6",
          "removed": false
        },
        {
          "address": "0x8aafd3ede9adb0ff97c7aebce82a919afb1c8764",
          "topics": [
            "0xddf252ad1be2c89b69c2b068fc378daa952ba7f163c4a11628f55a4df523b3ef",
            "0x000000000000000000000000c77f7fed3b5cc8249adc428c5f44c9063b9734b4",
            "0x000000000000000000000000c77f7fed3b5cc8249adc428c5f44c9063b9734b4"
          ],
          "data": "0x0000000000000000000000000000000000000000000000000001392462ba7a32",
          "blockHash": "0xa4ed991088adbbf3d0d27a5b6af69c11140743d541a16150ef7542e799c5bba6",
          "blockNumber": "0x731950",
          "transactionHash": "0x71c5e86cac140134e161ef5713eaba650ed70867027edc4a083ea6b12434d0a3",
          "transactionIndex": "0x8a",
          "logIndex": "0xd7",
          "removed": false
        },
        {
          "address": "0x8aafd3ede9adb0ff97c7aebce82a919afb1c8764",
          "topics": [
            "0x4afcb4a87cdbd9974efdb92ee48bc8d7cd0ae4bf217004db3d080cbaee652ca7"
          ],
          "data": "0x0000000000000000000000000000000000000000000000000000000067902c9000000000000000000000000000000000000000000000000000054076aff2e4cb000000000000000000000000000000000000000000000000000039dce898ffa2",
          "blockHash": "0xa4ed991088adbbf3d0d27a5b6af69c11140743d541a16150ef7542e799c5bba6",
          "blockNumber": "0x731950",
          "transactionHash": "0x71c5e86cac140134e161ef5713eaba650ed70867027edc4a083ea6b12434d0a3",
          "transactionIndex": "0x8a",
          "logIndex": "0xd8",
          "removed": false
        }
      ],
      "logsBloom": "0x00000000000000000000000000000000000000000600000000000000000000000000000000000000000000000000000000000000000000004000000000000000000000000000004000000008000000000000000000000000000000000000000000000000020000000000000000000800020000000000000000000010000000000000000000000000000000000000000000000000000000000000010000000000000000000000000000000000000000004000000000000000000000000000000000000002000000800000000000000000000000000000080000000000000020000000000000000000000000000000000000000000000000000000000000000000",
      "type": "0x2",
      "transactionHash": "0x71c5e86cac140134e161ef5713eaba650ed70867027edc4a083ea6b12434d0a3",
      "transactionIndex": "0x8a",
      "blockHash": "0xa4ed991088adbbf3d0d27a5b6af69c11140743d541a16150ef7542e799c5bba6",
      "blockNumber": "0x731950",
      "gasUsed": "0xfd33",
      "effectiveGasPrice": "0x3cb64d8d",
      "from": "0xc77f7fed3b5cc8249adc428c5f44c9063b9734b4",
      "to": "0x8aafd3ede9adb0ff97c7aebce82a919afb1c8764",
      "contractAddress": null
    }
  ],
  "libraries": [],
  "pending": [],
  "returns": {},
  "timestamp": 1737501841,
  "chain": 11155111,
  "commit": "1d2fb70"
}