{
  "transactions": [
    {
      "hash": "0xd35110484de51336e2d1009d7e27c00679ad4248da5517d8898f96172dd4458b",
      "transactionType": "CALL",
      "contractName": null,
      "contractAddress": "0x8aafd3ede9adb0ff97c7aebce82a919afb1c8764",
      "function": "sell(uint256)",
      "arguments": [
        "1360068119608123132"
      ],
      "transaction": {
        "from": "0xc77f7fed3b5cc8249adc428c5f44c9063b9734b4",
        "to": "0x8aafd3ede9adb0ff97c7aebce82a919afb1c8764",
        "gas": "0x15dca",
        "value": "0x0",
        "input": "0xe4849b3200000000000000000000000000000000000000000000000012dfeebfb3935efc",
        "nonce": "0x1644",
        "chainId": "0xaa36a7"
      },
      "additionalContracts": [],
      "isFixedGasLimit": false
    }
  ],
  "receipts": [
    {
      "status": "0x1",
      "cumulativeGasUsed": "0xcdff6e",
      "logs": [
        {
          "address": "0x8aafd3ede9adb0ff97c7aebce82a919afb1c8764",
          "topics": [
            "0xddf252ad1be2c89b69c2b068fc378daa952ba7f163c4a11628f55a4df523b3ef",
            "0x000000000000000000000000c77f7fed3b5cc8249adc428c5f44c9063b9734b4",
            "0x0000000000000000000000000000000000000000000000000000000000000000"
          ],
          "data": "0x00000000000000000000000000000000000000000000000012b946f36a758523",
          "blockHash": "0xd8ed2a2bc964de07c83fac12b9cd272be37b3d45d170edb14b2cd0de95fea9b7",
          "blockNumber": "0x731ddd",
          "transactionHash": "0xd35110484de51336e2d1009d7e27c00679ad4248da5517d8898f96172dd4458b",
          "transactionIndex": "0x83",
          "logIndex": "0xa3",
          "removed": false
        },
        {
          "address": "0x8aafd3ede9adb0ff97c7aebce82a919afb1c8764",
          "topics": [
            "0xddf252ad1be2c89b69c2b068fc378daa952ba7f163c4a11628f55a4df523b3ef",
            "0x000000000000000000000000c77f7fed3b5cc8249adc428c5f44c9063b9734b4",
            "0x000000000000000000000000c77f7fed3b5cc8249adc428c5f44c9063b9734b4"
          ],
          "data": "0x0000000000000000000000000000000000000000000000000026a7cc491dd9d9",
          "blockHash": "0xd8ed2a2bc964de07c83fac12b9cd272be37b3d45d170edb14b2cd0de95fea9b7",
          "blockNumber": "0x731ddd",
          "transactionHash": "0xd35110484de51336e2d1009d7e27c00679ad4248da5517d8898f96172dd4458b",
          "transactionIndex": "0x83",
          "logIndex": "0xa4",
          "removed": false
        },
        {
          "address": "0x8aafd3ede9adb0ff97c7aebce82a919afb1c8764",
          "topics": [
            "0x4afcb4a87cdbd9974efdb92ee48bc8d7cd0ae4bf217004db3d080cbaee652ca7"
          ],
          "data": "0x00000000000000000000000000000000000000000000000000000000679063440000000000000000000000000000000000000000000000000014db1384e1e9e8000000000000000000000000000000000000000000000000001c5d4a3074a911",
          "blockHash": "0xd8ed2a2bc964de07c83fac12b9cd272be37b3d45d170edb14b2cd0de95fea9b7",
          "blockNumber": "0x731ddd",
          "transactionHash": "0xd35110484de51336e2d1009d7e27c00679ad4248da5517d8898f96172dd4458b",
          "transactionIndex": "0x83",
          "logIndex": "0xa5",
          "removed": false
        }
      ],
      "logsBloom": "0x00000000000000000000000000000000000000000600000000000000000000000000000000000000000000000000000000000000000000004000000000000000000000000000004000000008000000000000000000000000000000000000000000000000020000000000000000000800020000000000000000000010000000000000000000000000000000000000000000000000000000000000010000000000000000000000000000000000000000004000000000000000000000000000000000000002000000800000000000000000000000000000080000000000000020000000000000000000000000000000000000000000000000000000000000000000",
      "type": "0x2",
      "transactionHash": "0xd35110484de51336e2d1009d7e27c00679ad4248da5517d8898f96172dd4458b",
      "transactionIndex": "0x83",
      "blockHash": "0xd8ed2a2bc964de07c83fac12b9cd272be37b3d45d170edb14b2cd0de95fea9b7",
      "blockNumber": "0x731ddd",
      "gasUsed": "0xfd3f",
      "effectiveGasPrice": "0x46628218",
      "from": "0xc77f7fed3b5cc8249adc428c5f44c9063b9734b4",
      "to": "0x8aafd3ede9adb0ff97c7aebce82a919afb1c8764",
      "contractAddress": null
    }
  ],
  "libraries": [],
  "pending": [],
  "returns": {},
  "timestamp": 1737515846,
  "chain": 11155111,
  "commit": "1d2fb70"
}