{
  "transactions": [
    {
      "hash": "0x95ec7eaeb97d01d9ef3e698487073c301208c7bc8a4e122ffc67792dee10cc73",
      "transactionType": "CALL",
      "contractName": null,
      "contractAddress": "0x8aafd3ede9adb0ff97c7aebce82a919afb1c8764",
      "function": "sell(uint256)",
      "arguments": [
        "351215"
      ],
      "transaction": {
        "from": "0xc77f7fed3b5cc8249adc428c5f44c9063b9734b4",
        "to": "0x8aafd3ede9adb0ff97c7aebce82a919afb1c8764",
        "gas": "0x16208",
        "value": "0x0",
        "input": "0xe4849b320000000000000000000000000000000000000000000000000000000000055bef",
        "nonce": "0x1665",
        "chainId": "0xaa36a7"
      },
      "additionalContracts": [],
      "isFixedGasLimit": false
    }
  ],
  "receipts": [
    {
      "status": "0x1",
      "cumulativeGasUsed": "0xcabbb9",
      "logs": [
        {
          "address": "0x8aafd3ede9adb0ff97c7aebce82a919afb1c8764",
          "topics": [
            "0xddf252ad1be2c89b69c2b068fc378daa952ba7f163c4a11628f55a4df523b3ef",
            "0x000000000000000000000000c77f7fed3b5cc8249adc428c5f44c9063b9734b4",
            "0x0000000000000000000000000000000000000000000000000000000000000000"
          ],
          "data": "0x00000000000000000000000000000000000000000000000000000000000550f6",
          "blockHash": "0x289538abb7ee4e71ff7cb31f5aa6e567278b878b4586e3ed0891609b7dc2ed06",
          "blockNumber": "0x731e13",
          "transactionHash": "0x95ec7eaeb97d01d9ef3e698487073c301208c7bc8a4e122ffc67792dee10cc73",
          "transactionIndex": "0x89",
          "logIndex": "0xe7",
          "removed": false
        },
        {
          "address": "0x8aafd3ede9adb0ff97c7aebce82a919afb1c8764",
          "topics": [
            "0xddf252ad1be2c89b69c2b068fc378daa952ba7f163c4a11628f55a4df523b3ef",
            "0x000000000000000000000000c77f7fed3b5cc8249adc428c5f44c9063b9734b4",
            "0x000000000000000000000000c77f7fed3b5cc8249adc428c5f44c9063b9734b4"
          ],
          "data": "0x0000000000000000000000000000000000000000000000000000000000000af9",
          "blockHash": "0x289538abb7ee4e71ff7cb31f5aa6e567278b878b4586e3ed0891609b7dc2ed06",
          "blockNumber": "0x731e13",
          "transactionHash": "0x95ec7eaeb97d01d9ef3e698487073c301208c7bc8a4e122ffc67792dee10cc73",
          "transactionIndex": "0x89",
          "logIndex": "0xe8",
          "removed": false
        },
        {
          "address": "0x8aafd3ede9adb0ff97c7aebce82a919afb1c8764",
          "topics": [
            "0x4afcb4a87cdbd9974efdb92ee48bc8d7cd0ae4bf217004db3d080cbaee652ca7"
          ],
          "data": "0x00000000000000000000000000000000000000000000000000000000679065cc00000000000000000000000000000000000000000000000000152b8a4008e1cb000000000000000000000000000000000000000000000000000000000000082c",
          "blockHash": "0x289538abb7ee4e71ff7cb31f5aa6e567278b878b4586e3ed0891609b7dc2ed06",
          "blockNumber": "0x731e13",
          "transactionHash": "0x95ec7eaeb97d01d9ef3e698487073c301208c7bc8a4e122ffc67792dee10cc73",
          "transactionIndex": "0x89",
          "logIndex": "0xe9",
          "removed": false
        }
      ],
      "logsBloom": "0x00000000000000000000000000000000000000000600000000000000000000000000000000000000000000000000000000000000000000004000000000000000000000000000004000000008000000000000000000000000000000000000000000000000020000000000000000000800020000000000000000000010000000000000000000000000000000000000000000000000000000000000010000000000000000000000000000000000000000004000000000000000000000000000000000000002000000800000000000000000000000000000080000000000000020000000000000000000000000000000000000000000000000000000000000000000",
      "type": "0x2",
      "transactionHash": "0x95ec7eaeb97d01d9ef3e698487073c301208c7bc8a4e122ffc67792dee10cc73",
      "transactionIndex": "0x89",
      "blockHash": "0x289538abb7ee4e71ff7cb31f5aa6e567278b878b4586e3ed0891609b7dc2ed06",
      "blockNumber": "0x731e13",
      "gasUsed": "0xf213",
      "effectiveGasPrice": "0x4264c082",
      "from": "0xc77f7fed3b5cc8249adc428c5f44c9063b9734b4",
      "to": "0x8aafd3ede9adb0ff97c7aebce82a919afb1c8764",
      "contractAddress": null
    }
  ],
  "libraries": [],
  "pending": [],
  "returns": {},
  "timestamp": 1737516494,
  "chain": 11155111,
  "commit": "1d2fb70"
}