{
  "transactions": [
    {
      "hash": "0x93eeed4d24ddbb55e91e675f0973940679e5a0b6f644ae10c7d5a67b3bd6b0b9",
      "transactionType": "CALL",
      "contractName": null,
      "contractAddress": "0x270e88f8683660553e8ba4eb2ad7c91a1710d769",
      "function": "buy(address)",
      "arguments": [
        "0xC77f7fed3b5Cc8249aDc428c5F44C9063B9734b4"
      ],
      "transaction": {
        "from": "0xc77f7fed3b5cc8249adc428c5f44c9063b9734b4",
        "to": "0x270e88f8683660553e8ba4eb2ad7c91a1710d769",
        "gas": "0x1b30c",
        "value": "0xde0b6b3a7640000",
        "input": "0xf088d547000000000000000000000000c77f7fed3b5cc8249adc428c5f44c9063b9734b4",
        "nonce": "0x76b",
        "chainId": "0xaa36a7"
      },
      "additionalContracts": [],
      "isFixedGasLimit": false
    }
  ],
  "receipts": [
    {
      "status": "0x1",
      "cumulativeGasUsed": "0xd1b76e",
      "logs": [
        {
          "address": "0x270e88f8683660553e8ba4eb2ad7c91a1710d769",
          "topics": [
            "0xddf252ad1be2c89b69c2b068fc378daa952ba7f163c4a11628f55a4df523b3ef",
            "0x0000000000000000000000000000000000000000000000000000000000000000",
            "0x000000000000000000000000c77f7fed3b5cc8249adc428c5f44c9063b9734b4"
          ],
          "data": "0x000000000000000000000000000000000000000000000027c2eacfae747862de",
          "blockHash": "0xe3f5d9bb7d45a204ec5fbe01dad052646d1a22db8e61f0ade85f3d7c429d2acd",
          "blockNumber": "0x725496",
          "transactionHash": "0x93eeed4d24ddbb55e91e675f0973940679e5a0b6f644ae10c7d5a67b3bd6b0b9",
          "transactionIndex": "0x37",
          "logIndex": "0xcc",
          "removed": false
        },
        {
          "address": "0x270e88f8683660553e8ba4eb2ad7c91a1710d769",
          "topics": [
            "0xddf252ad1be2c89b69c2b068fc378daa952ba7f163c4a11628f55a4df523b3ef",
            "0x0000000000000000000000000000000000000000000000000000000000000000",
            "0x000000000000000000000000c77f7fed3b5cc8249adc428c5f44c9063b9734b4"
          ],
          "data": "0x0000000000000000000000000000000000000000000000001ee046c43b36eea6",
          "blockHash": "0xe3f5d9bb7d45a204ec5fbe01dad052646d1a22db8e61f0ade85f3d7c429d2acd",
          "blockNumber": "0x725496",
          "transactionHash": "0x93eeed4d24ddbb55e91e675f0973940679e5a0b6f644ae10c7d5a67b3bd6b0b9",
          "transactionIndex": "0x37",
          "logIndex": "0xcd",
          "removed": false
        },
        {
          "address": "0x270e88f8683660553e8ba4eb2ad7c91a1710d769",
          "topics": [
            "0x4afcb4a87cdbd9974efdb92ee48bc8d7cd0ae4bf217004db3d080cbaee652ca7"
          ],
          "data": "0x000000000000000000000000000000000000000000000000000000006786e9100000000000000000000000000000000000000000000000000004cbb25bfe998f0000000000000000000000000000000000000000000000000de0b6b3a7640000",
          "blockHash": "0xe3f5d9bb7d45a204ec5fbe01dad052646d1a22db8e61f0ade85f3d7c429d2acd",
          "blockNumber": "0x725496",
          "transactionHash": "0x93eeed4d24ddbb55e91e675f0973940679e5a0b6f644ae10c7d5a67b3bd6b0b9",
          "transactionIndex": "0x37",
          "logIndex": "0xce",
          "removed": false
        }
      ],
      "logsBloom": "0x00000000000000000000000000000000000000000000000000000000000000000000000000000000000000000000000020000000000000004000000000000000000000000000000000000008000000000000000000000000000000000000000000000000020000000000000000000800020000000000000000000010000000000000000000010000000000000000000000000000000000000000010000000000000000000000000000000000000000004000000000000000000000000000000000000002000000800000000000000000000000000000080000008000000020000000000000000000000000000000000000000000000000000000000000000000",
      "type": "0x2",
      "transactionHash": "0x93eeed4d24ddbb55e91e675f0973940679e5a0b6f644ae10c7d5a67b3bd6b0b9",
      "transactionIndex": "0x37",
      "blockHash": "0xe3f5d9bb7d45a204ec5fbe01dad052646d1a22db8e61f0ade85f3d7c429d2acd",
      "blockNumber": "0x725496",
      "gasUsed": "0x13af8",
      "effectiveGasPrice": "0x13c171a27",
      "from": "0xc77f7fed3b5cc8249adc428c5f44c9063b9734b4",
      "to": "0x270e88f8683660553e8ba4eb2ad7c91a1710d769",
      "contractAddress": null
    }
  ],
  "libraries": [],
  "pending": [],
  "returns": {},
  "timestamp": 1736894738,
  "chain": 11155111,
  "commit": "51a374b"
}