{
  "transactions": [
    {
      "hash": "0xca1cbf68d04ed992e3e42caa8b09b2a0bc4009a260a65622f1e34d876f8c640c",
      "transactionType": "CALL",
      "contractName": null,
      "contractAddress": "0x270e88f8683660553e8ba4eb2ad7c91a1710d769",
      "function": "buy(address)",
      "arguments": [
        "0xC77f7fed3b5Cc8249aDc428c5F44C9063B9734b4"
      ],
      "transaction": {
        "from": "0xc77f7fed3b5cc8249adc428c5f44c9063b9734b4",
        "to": "0x270e88f8683660553e8ba4eb2ad7c91a1710d769",
        "gas": "0x1b30c",
        "value": "0xde0b6b3a7640000",
        "input": "0xf088d547000000000000000000000000c77f7fed3b5cc8249adc428c5f44c9063b9734b4",
        "nonce": "0x4e2",
        "chainId": "0xaa36a7"
      },
      "additionalContracts": [],
      "isFixedGasLimit": false
    }
  ],
  "receipts": [
    {
      "status": "0x1",
      "cumulativeGasUsed": "0x14a60b5",
      "logs": [
        {
          "address": "0x270e88f8683660553e8ba4eb2ad7c91a1710d769",
          "topics": [
            "0xddf252ad1be2c89b69c2b068fc378daa952ba7f163c4a11628f55a4df523b3ef",
            "0x0000000000000000000000000000000000000000000000000000000000000000",
            "0x000000000000000000000000c77f7fed3b5cc8249adc428c5f44c9063b9734b4"
          ],
          "data": "0x0000000000000000000000000000000000000000000000358c1eac0b3dee67d8",
          "blockHash": "0x7e1d6550eafa2f27a9335208459f52d3ee12768e126e675db001abe586aeb1e6",
          "blockNumber": "0x725170",
          "transactionHash": "0xca1cbf68d04ed992e3e42caa8b09b2a0bc4009a260a65622f1e34d876f8c640c",
          "transactionIndex": "0x41",
          "logIndex": "0xa5",
          "removed": false
        },
        {
          "address": "0x270e88f8683660553e8ba4eb2ad7c91a1710d769",
          "topics": [
            "0xddf252ad1be2c89b69c2b068fc378daa952ba7f163c4a11628f55a4df523b3ef",
            "0x0000000000000000000000000000000000000000000000000000000000000000",
            "0x000000000000000000000000c77f7fed3b5cc8249adc428c5f44c9063b9734b4"
          ],
          "data": "0x0000000000000000000000000000000000000000000000002994d29702034131",
          "blockHash": "0x7e1d6550eafa2f27a9335208459f52d3ee12768e126e675db001abe586aeb1e6",
          "blockNumber": "0x725170",
          "transactionHash": "0xca1cbf68d04ed992e3e42caa8b09b2a0bc4009a260a65622f1e34d876f8c640c",
          "transactionIndex": "0x41",
          "logIndex": "0xa6",
          "removed": false
        },
        {
          "address": "0x270e88f8683660553e8ba4eb2ad7c91a1710d769",
          "topics": [
            "0x4afcb4a87cdbd9974efdb92ee48bc8d7cd0ae4bf217004db3d080cbaee652ca7"
          ],
          "data": "0x000000000000000000000000000000000000000000000000000000006786c32400000000000000000000000000000000000000000000000000038fa604e709660000000000000000000000000000000000000000000000000de0b6b3a7640000",
          "blockHash": "0x7e1d6550eafa2f27a9335208459f52d3ee12768e126e675db001abe586aeb1e6",
          "blockNumber": "0x725170",
          "transactionHash": "0xca1cbf68d04ed992e3e42caa8b09b2a0bc4009a260a65622f1e34d876f8c640c",
          "transactionIndex": "0x41",
          "logIndex": "0xa7",
          "removed": false
        }
      ],
      "logsBloom": "0x00000000000000000000000000000000000000000000000000000000000000000000000000000000000000000000000020000000000000004000000000000000000000000000000000000008000000000000000000000000000000000000000000000000020000000000000000000800020000000000000000000010000000000000000000010000000000000000000000000000000000000000010000000000000000000000000000000000000000004000000000000000000000000000000000000002000000800000000000000000000000000000080000008000000020000000000000000000000000000000000000000000000000000000000000000000",
      "type": "0x2",
      "transactionHash": "0xca1cbf68d04ed992e3e42caa8b09b2a0bc4009a260a65622f1e34d876f8c640c",
      "transactionIndex": "0x41",
      "blockHash": "0x7e1d6550eafa2f27a9335208459f52d3ee12768e126e675db001abe586aeb1e6",
      "blockNumber": "0x725170",
      "gasUsed": "0x13af8",
      "effectiveGasPrice": "0x43ee4adc7",
      "from": "0xc77f7fed3b5cc8249adc428c5f44c9063b9734b4",
      "to": "0x270e88f8683660553e8ba4eb2ad7c91a1710d769",
      "contractAddress": null
    }
  ],
  "libraries": [],
  "pending": [],
  "returns": {},
  "timestamp": 1736885030,
  "chain": 11155111,
  "commit": "51a374b"
}