{
  "transactions": [
    {
      "hash": "0x59b6f58ae2457c5c0967e04a3ffc940699b94dd60c768017256edbf80768ad2e",
      "transactionType": "CALL",
      "contractName": null,
      "contractAddress": "0x270e88f8683660553e8ba4eb2ad7c91a1710d769",
      "function": "buy(address)",
      "arguments": [
        "0xC77f7fed3b5Cc8249aDc428c5F44C9063B9734b4"
      ],
      "transaction": {
        "from": "0xc77f7fed3b5cc8249adc428c5f44c9063b9734b4",
        "to": "0x270e88f8683660553e8ba4eb2ad7c91a1710d769",
        "gas": "0x1b30c",
        "value": "0xde0b6b3a7640000",
        "input": "0xf088d547000000000000000000000000c77f7fed3b5cc8249adc428c5f44c9063b9734b4",
        "nonce": "0x73d",
        "chainId": "0xaa36a7"
      },
      "additionalContracts": [],
      "isFixedGasLimit": false
    }
  ],
  "receipts": [
    {
      "status": "0x1",
      "cumulativeGasUsed": "0xb102b3",
      "logs": [
        {
          "address": "0x270e88f8683660553e8ba4eb2ad7c91a1710d769",
          "topics": [
            "0xddf252ad1be2c89b69c2b068fc378daa952ba7f163c4a11628f55a4df523b3ef",
            "0x0000000000000000000000000000000000000000000000000000000000000000",
            "0x000000000000000000000000c77f7fed3b5cc8249adc428c5f44c9063b9734b4"
          ],
          "data": "0x000000000000000000000000000000000000000000000027fb17c23fa94b9c87",
          "blockHash": "0xee1fdbf4bb458cb8a6fde5fab467e90838a860818d24b0754db038788356ad52",
          "blockNumber": "0x72545e",
          "transactionHash": "0x59b6f58ae2457c5c0967e04a3ffc940699b94dd60c768017256edbf80768ad2e",
          "transactionIndex": "0x2c",
          "logIndex": "0x4d",
          "removed": false
        },
        {
          "address": "0x270e88f8683660553e8ba4eb2ad7c91a1710d769",
          "topics": [
            "0xddf252ad1be2c89b69c2b068fc378daa952ba7f163c4a11628f55a4df523b3ef",
            "0x0000000000000000000000000000000000000000000000000000000000000000",
            "0x000000000000000000000000c77f7fed3b5cc8249adc428c5f44c9063b9734b4"
          ],
          "data": "0x0000000000000000000000000000000000000000000000001f0be61014bc06bf",
          "blockHash": "0xee1fdbf4bb458cb8a6fde5fab467e90838a860818d24b0754db038788356ad52",
          "blockNumber": "0x72545e",
          "transactionHash": "0x59b6f58ae2457c5c0967e04a3ffc940699b94dd60c768017256edbf80768ad2e",
          "transactionIndex": "0x2c",
          "logIndex": "0x4e",
          "removed": false
        },
        {
          "address": "0x270e88f8683660553e8ba4eb2ad7c91a1710d769",
          "topics": [
            "0x4afcb4a87cdbd9974efdb92ee48bc8d7cd0ae4bf217004db3d080cbaee652ca7"
          ],
          "data": "0x000000000000000000000000000000000000000000000000000000006786e6700000000000000000000000000000000000000000000000000004c4f5838cf4340000000000000000000000000000000000000000000000000de0b6b3a7640000",
          "blockHash": "0xee1fdbf4bb458cb8a6fde5fab467e90838a860818d24b0754db038788356ad52",
          "blockNumber": "0x72545e",
          "transactionHash": "0x59b6f58ae2457c5c0967e04a3ffc940699b94dd60c768017256edbf80768ad2e",
          "transactionIndex": "0x2c",
          "logIndex": "0x4f",
          "removed": false
        }
      ],
      "logsBloom": "0x00000000000000000000000000000000000000000000000000000000000000000000000000000000000000000000000020000000000000004000000000000000000000000000000000000008000000000000000000000000000000000000000000000000020000000000000000000800020000000000000000000010000000000000000000010000000000000000000000000000000000000000010000000000000000000000000000000000000000004000000000000000000000000000000000000002000000800000000000000000000000000000080000008000000020000000000000000000000000000000000000000000000000000000000000000000",
      "type": "0x2",
      "transactionHash": "0x59b6f58ae2457c5c0967e04a3ffc940699b94dd60c768017256edbf80768ad2e",
      "transactionIndex": "0x2c",
      "blockHash": "0xee1fdbf4bb458cb8a6fde5fab467e90838a860818d24b0754db038788356ad52",
      "blockNumber": "0x72545e",
      "gasUsed": "0x13af8",
      "effectiveGasPrice": "0x14762f6b3",
      "from": "0xc77f7fed3b5cc8249adc428c5f44c9063b9734b4",
      "to": "0x270e88f8683660553e8ba4eb2ad7c91a1710d769",
      "contractAddress": null
    }
  ],
  "libraries": [],
  "pending": [],
  "returns": {},
  "timestamp": 1736894066,
  "chain": 11155111,
  "commit": "51a374b"
}