{
  "transactions": [
    {
      "hash": "0xb38720cf802953527a900ef89f7dd83147d755b3bbf48e8f2dd9cf72a1e22bd5",
      "transactionType": "CALL",
      "contractName": null,
      "contractAddress": "0x8aafd3ede9adb0ff97c7aebce82a919afb1c8764",
      "function": "sell(uint256)",
      "arguments": [
        "22647987194"
      ],
      "transaction": {
        "from": "0xc77f7fed3b5cc8249adc428c5f44c9063b9734b4",
        "to": "0x8aafd3ede9adb0ff97c7aebce82a919afb1c8764",
        "gas": "0x1722a",
        "value": "0x0",
        "input": "0xe4849b320000000000000000000000000000000000000000000000000000000545ecdbfa",
        "nonce": "0x1172",
        "chainId": "0xaa36a7"
      },
      "additionalContracts": [],
      "isFixedGasLimit": false
    }
  ],
  "receipts": [
    {
      "status": "0x1",
      "cumulativeGasUsed": "0xb99242",
      "logs": [
        {
          "address": "0x8aafd3ede9adb0ff97c7aebce82a919afb1c8764",
          "topics": [
            "0xddf252ad1be2c89b69c2b068fc378daa952ba7f163c4a11628f55a4df523b3ef",
            "0x000000000000000000000000c77f7fed3b5cc8249adc428c5f44c9063b9734b4",
            "0x0000000000000000000000000000000000000000000000000000000000000000"
          ],
          "data": "0x000000000000000000000000000000000000000000000000000000053b203661",
          "blockHash": "0x4ef7abd39e9c0eda37079711257be2786df211fb85ed72cbfab624ee33cb8892",
          "blockNumber": "0x731831",
          "transactionHash": "0xb38720cf802953527a900ef89f7dd83147d755b3bbf48e8f2dd9cf72a1e22bd5",
          "transactionIndex": "0x81",
          "logIndex": "0x9b",
          "removed": false
        },
        {
          "address": "0x8aafd3ede9adb0ff97c7aebce82a919afb1c8764",
          "topics": [
            "0xddf252ad1be2c89b69c2b068fc378daa952ba7f163c4a11628f55a4df523b3ef",
            "0x000000000000000000000000c77f7fed3b5cc8249adc428c5f44c9063b9734b4",
            "0x000000000000000000000000c77f7fed3b5cc8249adc428c5f44c9063b9734b4"
          ],
          "data": "0x000000000000000000000000000000000000000000000000000000000acca599",
          "blockHash": "0x4ef7abd39e9c0eda37079711257be2786df211fb85ed72cbfab624ee33cb8892",
          "blockNumber": "0x731831",
          "transactionHash": "0xb38720cf802953527a900ef89f7dd83147d755b3bbf48e8f2dd9cf72a1e22bd5",
          "transactionIndex": "0x81",
          "logIndex": "0x9c",
          "removed": false
        },
        {
          "address": "0x8aafd3ede9adb0ff97c7aebce82a919afb1c8764",
          "topics": [
            "0x4afcb4a87cdbd9974efdb92ee48bc8d7cd0ae4bf217004db3d080cbaee652ca7"
          ],
          "data": "0x0000000000000000000000000000000000000000000000000000000067901f1000000000000000000000000000000000000000000000000000051c236251e4e10000000000000000000000000000000000000000000000000000000001f10db2",
          "blockHash": "0x4ef7abd39e9c0eda37079711257be2786df211fb85ed72cbfab624ee33cb8892",
          "blockNumber": "0x731831",
          "transactionHash": "0xb38720cf802953527a900ef89f7dd83147d755b3bbf48e8f2dd9cf72a1e22bd5",
          "transactionIndex": "0x81",
          "logIndex": "0x9d",
          "removed": false
        }
      ],
      "logsBloom": "0x00000000000000000000000000000000000000000600000000000000000000000000000000000000000000000000000000000000000000004000000000000000000000000000004000000008000000000000000000000000000000000000000000000000020000000000000000000800020000000000000000000010000000000000000000000000000000000000000000000000000000000000010000000000000000000000000000000000000000004000000000000000000000000000000000000002000000800000000000000000000000000000080000000000000020000000000000000000000000000000000000000000000000000000000000000000",
      "type": "0x2",
      "transactionHash": "0xb38720cf802953527a900ef89f7dd83147d755b3bbf48e8f2dd9cf72a1e22bd5",
      "transactionIndex": "0x81",
      "blockHash": "0x4ef7abd39e9c0eda37079711257be2786df211fb85ed72cbfab624ee33cb8892",
      "blockNumber": "0x731831",
      "gasUsed": "0xfd1b",
      "effectiveGasPrice": "0x38260fa8",
      "from": "0xc77f7fed3b5cc8249adc428c5f44c9063b9734b4",
      "to": "0x8aafd3ede9adb0ff97c7aebce82a919afb1c8764",
      "contractAddress": null
    }
  ],
  "libraries": [],
  "pending": [],
  "returns": {},
  "timestamp": 1737498385,
  "chain": 11155111,
  "commit": "1d2fb70"
}