{
  "transactions": [
    {
      "hash": "0x421222ce0964460d2c2790c311e65f24470a00b2014bdbe0f9ff8adc464c6c12",
      "transactionType": "CALL",
      "contractName": null,
      "contractAddress": "0x8aafd3ede9adb0ff97c7aebce82a919afb1c8764",
      "function": "sell(uint256)",
      "arguments": [
        "1252429847553633882"
      ],
      "transaction": {
        "from": "0xc77f7fed3b5cc8249adc428c5f44c9063b9734b4",
        "to": "0x8aafd3ede9adb0ff97c7aebce82a919afb1c8764",
        "gas": "0x15dca",
        "value": "0x0",
        "input": "0xe4849b320000000000000000000000000000000000000000000000001161864f8987ee5a",
        "nonce": "0x16dd",
        "chainId": "0xaa36a7"
      },
      "additionalContracts": [],
      "isFixedGasLimit": false
    }
  ],
  "receipts": [
    {
      "status": "0x1",
      "cumulativeGasUsed": "0xe03fc6",
      "logs": [
        {
          "address": "0x8aafd3ede9adb0ff97c7aebce82a919afb1c8764",
          "topics": [
            "0xddf252ad1be2c89b69c2b068fc378daa952ba7f163c4a11628f55a4df523b3ef",
            "0x000000000000000000000000c77f7fed3b5cc8249adc428c5f44c9063b9734b4",
            "0x0000000000000000000000000000000000000000000000000000000000000000"
          ],
          "data": "0x000000000000000000000000000000000000000000000000113dedaf282cbb4b",
          "blockHash": "0xf1ad7ac0719702afadfed498f289c516aae6525202f8eb71a5fe60971bdfa6bd",
          "blockNumber": "0x731e9a",
          "transactionHash": "0x421222ce0964460d2c2790c311e65f24470a00b2014bdbe0f9ff8adc464c6c12",
          "transactionIndex": "0x81",
          "logIndex": "0xb0",
          "removed": false
        },
        {
          "address": "0x8aafd3ede9adb0ff97c7aebce82a919afb1c8764",
          "topics": [
            "0xddf252ad1be2c89b69c2b068fc378daa952ba7f163c4a11628f55a4df523b3ef",
            "0x000000000000000000000000c77f7fed3b5cc8249adc428c5f44c9063b9734b4",
            "0x000000000000000000000000c77f7fed3b5cc8249adc428c5f44c9063b9734b4"
          ],
          "data": "0x000000000000000000000000000000000000000000000000002398a0615b330f",
          "blockHash": "0xf1ad7ac0719702afadfed498f289c516aae6525202f8eb71a5fe60971bdfa6bd",
          "blockNumber": "0x731e9a",
          "transactionHash": "0x421222ce0964460d2c2790c311e65f24470a00b2014bdbe0f9ff8adc464c6c12",
          "transactionIndex": "0x81",
          "logIndex": "0xb1",
          "removed": false
        },
        {
          "address": "0x8aafd3ede9adb0ff97c7aebce82a919afb1c8764",
          "topics": [
            "0x4afcb4a87cdbd9974efdb92ee48bc8d7cd0ae4bf217004db3d080cbaee652ca7"
          ],
          "data": "0x0000000000000000000000000000000000000000000000000000000067906c200000000000000000000000000000000000000000000000000016a3bb0542037c000000000000000000000000000000000000000000000000001c5a8baeb9661c",
          "blockHash": "0xf1ad7ac0719702afadfed498f289c516aae6525202f8eb71a5fe60971bdfa6bd",
          "blockNumber": "0x731e9a",
          "transactionHash": "0x421222ce0964460d2c2790c311e65f24470a00b2014bdbe0f9ff8adc464c6c12",
          "transactionIndex": "0x81",
          "logIndex": "0xb2",
          "removed": false
        }
      ],
      "logsBloom": "0x00000000000000000000000000000000000000000600000000000000000000000000000000000000000000000000000000000000000000004000000000000000000000000000004000000008000000000000000000000000000000000000000000000000020000000000000000000800020000000000000000000010000000000000000000000000000000000000000000000000000000000000010000000000000000000000000000000000000000004000000000000000000000000000000000000002000000800000000000000000000000000000080000000000000020000000000000000000000000000000000000000000000000000000000000000000",
      "type": "0x2",
      "transactionHash": "0x421222ce0964460d2c2790c311e65f24470a00b2014bdbe0f9ff8adc464c6c12",
      "transactionIndex": "0x81",
      "blockHash": "0xf1ad7ac0719702afadfed498f289c516aae6525202f8eb71a5fe60971bdfa6bd",
      "blockNumber": "0x731e9a",
      "gasUsed": "0xfd3f",
      "effectiveGasPrice": "0x47f94092",
      "from": "0xc77f7fed3b5cc8249adc428c5f44c9063b9734b4",
      "to": "0x8aafd3ede9adb0ff97c7aebce82a919afb1c8764",
      "contractAddress": null
    }
  ],
  "libraries": [],
  "pending": [],
  "returns": {},
  "timestamp": 1737518112,
  "chain": 11155111,
  "commit": "1d2fb70"
}