{
  "transactions": [
    {
      "hash": "0x5d8b0b84d3b00c0df0ef2d7f559c983e71fac0e5fd8eb7ab1c8f09f63a0fa045",
      "transactionType": "CALL",
      "contractName": null,
      "contractAddress": "0x270e88f8683660553e8ba4eb2ad7c91a1710d769",
      "function": "sell(uint256)",
      "arguments": [
        "749646103702180467760"
      ],
      "transaction": {
        "from": "0xc77f7fed3b5cc8249adc428c5f44c9063b9734b4",
        "to": "0x270e88f8683660553e8ba4eb2ad7c91a1710d769",
        "gas": "0x16fec",
        "value": "0x0",
        "input": "0xe4849b32000000000000000000000000000000000000000000000028a36df785981c1430",
        "nonce": "0x6d0",
        "chainId": "0xaa36a7"
      },
      "additionalContracts": [],
      "isFixedGasLimit": false
    }
  ],
  "receipts": [
    {
      "status": "0x1",
      "cumulativeGasUsed": "0x3e8610",
      "logs": [
        {
          "address": "0x270e88f8683660553e8ba4eb2ad7c91a1710d769",
          "topics": [
            "0xddf252ad1be2c89b69c2b068fc378daa952ba7f163c4a11628f55a4df523b3ef",
            "0x000000000000000000000000c77f7fed3b5cc8249adc428c5f44c9063b9734b4",
            "0x0000000000000000000000000000000000000000000000000000000000000000"
          ],
          "data": "0x000000000000000000000000000000000000000000000028a36df785981c1430",
          "blockHash": "0x6bb23a32497c411808efe8cbef12888f7db9443aa430b52a863a2ed81da2d34e",
          "blockNumber": "0x7253df",
          "transactionHash": "0x5d8b0b84d3b00c0df0ef2d7f559c983e71fac0e5fd8eb7ab1c8f09f63a0fa045",
          "transactionIndex": "0x2a",
          "logIndex": "0x3d",
          "removed": false
        },
        {
          "address": "0x270e88f8683660553e8ba4eb2ad7c91a1710d769",
          "topics": [
            "0x4afcb4a87cdbd9974efdb92ee48bc8d7cd0ae4bf217004db3d080cbaee652ca7"
          ],
          "data": "0x000000000000000000000000000000000000000000000000000000006786e07c0000000000000000000000000000000000000000000000000004b50938aba08f0000000000000000000000000000000000000000000000000dc8297f803d5033",
          "blockHash": "0x6bb23a32497c411808efe8cbef12888f7db9443aa430b52a863a2ed81da2d34e",
          "blockNumber": "0x7253df",
          "transactionHash": "0x5d8b0b84d3b00c0df0ef2d7f559c983e71fac0e5fd8eb7ab1c8f09f63a0fa045",
          "transactionIndex": "0x2a",
          "logIndex": "0x3e",
          "removed": false
        }
      ],
      "logsBloom": "0x00000000000000000000000000000000000000000000000000000000000000000000000000000000000000000000000020000000000000004000000000000000000000000000000000000008000000000000000000000000000000000000000000000000020000000000000000000800020000000000000000000010000000000000000000010000000000000000000000000000000000000000010000000000000000000000000000000000000000004000000000000000000000000000000000000002000000800000000000000000000000000000080000008000000020000000000000000000000000000000000000000000000000000000000000000000",
      "type": "0x2",
      "transactionHash": "0x5d8b0b84d3b00c0df0ef2d7f559c983e71fac0e5fd8eb7ab1c8f09f63a0fa045",
      "transactionIndex": "0x2a",
      "blockHash": "0x6bb23a32497c411808efe8cbef12888f7db9443aa430b52a863a2ed81da2d34e",
      "blockNumber": "0x7253df",
      "gasUsed": "0xfb93",
      "effectiveGasPrice": "0x16e258a2c",
      "from": "0xc77f7fed3b5cc8249adc428c5f44c9063b9734b4",
      "to": "0x270e88f8683660553e8ba4eb2ad7c91a1710d769",
      "contractAddress": null
    }
  ],
  "libraries": [],
  "pending": [],
  "returns": {},
  "timestamp": 1736892541,
  "chain": 11155111,
  "commit": "51a374b"
}