{
  "transactions": [
    {
      "hash": "0x23786b774e7171c33c0085f5f5030772eff194c03a28a1827c1896afc1d42b6b",
      "transactionType": "CALL",
      "contractName": null,
      "contractAddress": "0x5eb9cc76c3506942c1c0ead70e877dd5e4f00cb0",
      "function": "buy(address)",
      "arguments": [
        "0xC77f7fed3b5Cc8249aDc428c5F44C9063B9734b4"
      ],
      "transaction": {
        "from": "0xc77f7fed3b5cc8249adc428c5f44c9063b9734b4",
        "to": "0x5eb9cc76c3506942c1c0ead70e877dd5e4f00cb0",
        "gas": "0x1b30c",
        "value": "0xde0b6b3a7640000",
        "input": "0xf088d547000000000000000000000000c77f7fed3b5cc8249adc428c5f44c9063b9734b4",
        "nonce": "0x484",
        "chainId": "0xaa36a7"
      },
      "additionalContracts": [],
      "isFixedGasLimit": false
    }
  ],
  "receipts": [
    {
      "status": "0x1",
      "cumulativeGasUsed": "0xaf95ca",
      "logs": [
        {
          "address": "0x5eb9cc76c3506942c1c0ead70e877dd5e4f00cb0",
          "topics": [
            "0xddf252ad1be2c89b69c2b068fc378daa952ba7f163c4a11628f55a4df523b3ef",
            "0x0000000000000000000000000000000000000000000000000000000000000000",
            "0x000000000000000000000000c77f7fed3b5cc8249adc428c5f44c9063b9734b4"
          ],
          "data": "0x00000000000000000000000000000000000000000000003574b7b7c9b0c09ea7",
          "blockHash": "0x861a694b3a459c5e81cc00c4ae61bb499436a99b56627a2e02f137388398fba3",
          "blockNumber": "0x7250b4",
          "transactionHash": "0x23786b774e7171c33c0085f5f5030772eff194c03a28a1827c1896afc1d42b6b",
          "transactionIndex": "0x43",
          "logIndex": "0x94",
          "removed": false
        },
        {
          "address": "0x5eb9cc76c3506942c1c0ead70e877dd5e4f00cb0",
          "topics": [
            "0xddf252ad1be2c89b69c2b068fc378daa952ba7f163c4a11628f55a4df523b3ef",
            "0x0000000000000000000000000000000000000000000000000000000000000000",
            "0x000000000000000000000000c77f7fed3b5cc8249adc428c5f44c9063b9734b4"
          ],
          "data": "0x0000000000000000000000000000000000000000000000002982a668de881edb",
          "blockHash": "0x861a694b3a459c5e81cc00c4ae61bb499436a99b56627a2e02f137388398fba3",
          "blockNumber": "0x7250b4",
          "transactionHash": "0x23786b774e7171c33c0085f5f5030772eff194c03a28a1827c1896afc1d42b6b",
          "transactionIndex": "0x43",
          "logIndex": "0x95",
          "removed": false
        },
        {
          "address": "0x5eb9cc76c3506942c1c0ead70e877dd5e4f00cb0",
          "topics": [
            "0x4afcb4a87cdbd9974efdb92ee48bc8d7cd0ae4bf217004db3d080cbaee652ca7"
          ],
          "data": "0x000000000000000000000000000000000000000000000000000000006786ba3c0000000000000000000000000000000000000000000000000003911a6528b2490000000000000000000000000000000000000000000000000de0b6b3a7640000",
          "blockHash": "0x861a694b3a459c5e81cc00c4ae61bb499436a99b56627a2e02f137388398fba3",
          "blockNumber": "0x7250b4",
          "transactionHash": "0x23786b774e7171c33c0085f5f5030772eff194c03a28a1827c1896afc1d42b6b",
          "transactionIndex": "0x43",
          "logIndex": "0x96",
          "removed": false
        }
      ],
      "logsBloom": "0x00000000000000000000000000000000000000000000000000000000000000000000000000000000000000000000000000000000000000004000000000000000000000000000000000000008000000000000000000000000000000000000000000000000020000000000000004000800020000000000000000000010000000000000000000000000000000000000000000000000000000000000010000000000000000000000000000000000000000004000000000000000000000000000020000000002000000800000008000000000000000000000080000000000000020000000000000000000000000000000000000000000000000000000000000000000",
      "type": "0x2",
      "transactionHash": "0x23786b774e7171c33c0085f5f5030772eff194c03a28a1827c1896afc1d42b6b",
      "transactionIndex": "0x43",
      "blockHash": "0x861a694b3a459c5e81cc00c4ae61bb499436a99b56627a2e02f137388398fba3",
      "blockNumber": "0x7250b4",
      "gasUsed": "0x13af8",
      "effectiveGasPrice": "0x2170c26bb",
      "from": "0xc77f7fed3b5cc8249adc428c5f44c9063b9734b4",
      "to": "0x5eb9cc76c3506942c1c0ead70e877dd5e4f00cb0",
      "contractAddress": null
    }
  ],
  "libraries": [],
  "pending": [],
  "returns": {},
  "timestamp": 1736882750,
  "chain": 11155111,
  "commit": "51a374b"
}