{
  "transactions": [
    {
      "hash": "0xe07a466033a9a01056eec1a7edce7f62de45caca0dc914356306c7ea1ac1f55e",
      "transactionType": "CALL",
      "contractName": null,
      "contractAddress": "0x8aafd3ede9adb0ff97c7aebce82a919afb1c8764",
      "function": "sell(uint256)",
      "arguments": [
        "179985458987199822307"
      ],
      "transaction": {
        "from": "0xc77f7fed3b5cc8249adc428c5f44c9063b9734b4",
        "to": "0x8aafd3ede9adb0ff97c7aebce82a919afb1c8764",
        "gas": "0x17270",
        "value": "0x0",
        "input": "0xe4849b32000000000000000000000000000000000000000000000009c1cccd5853aef9e3",
        "nonce": "0x15e0",
        "chainId": "0xaa36a7"
      },
      "additionalContracts": [],
      "isFixedGasLimit": false
    }
  ],
  "receipts": [
    {
      "status": "0x1",
      "cumulativeGasUsed": "0xc6cd95",
      "logs": [
        {
          "address": "0x8aafd3ede9adb0ff97c7aebce82a919afb1c8764",
          "topics": [
            "0xddf252ad1be2c89b69c2b068fc378daa952ba7f163c4a11628f55a4df523b3ef",
            "0x000000000000000000000000c77f7fed3b5cc8249adc428c5f44c9063b9734b4",
            "0x0000000000000000000000000000000000000000000000000000000000000000"
          ],
          "data": "0x000000000000000000000000000000000000000000000009add14ec636578f71",
          "blockHash": "0xdcbab62f558ebb77c62a56523398949f36accdc7668308977ff39a57346543b7",
          "blockNumber": "0x731d62",
          "transactionHash": "0xe07a466033a9a01056eec1a7edce7f62de45caca0dc914356306c7ea1ac1f55e",
          "transactionIndex": "0x71",
          "logIndex": "0xb2",
          "removed": false
        },
        {
          "address": "0x8aafd3ede9adb0ff97c7aebce82a919afb1c8764",
          "topics": [
            "0xddf252ad1be2c89b69c2b068fc378daa952ba7f163c4a11628f55a4df523b3ef",
            "0x000000000000000000000000c77f7fed3b5cc8249adc428c5f44c9063b9734b4",
            "0x000000000000000000000000c77f7fed3b5cc8249adc428c5f44c9063b9734b4"
          ],
          "data": "0x00000000000000000000000000000000000000000000000013fb7e921d576a72",
          "blockHash": "0xdcbab62f558ebb77c62a56523398949f36accdc7668308977ff39a57346543b7",
          "blockNumber": "0x731d62",
          "transactionHash": "0xe07a466033a9a01056eec1a7edce7f62de45caca0dc914356306c7ea1ac1f55e",
          "transactionIndex": "0x71",
          "logIndex": "0xb3",
          "removed": false
        },
        {
          "address": "0x8aafd3ede9adb0ff97c7aebce82a919afb1c8764",
          "topics": [
            "0x4afcb4a87cdbd9974efdb92ee48bc8d7cd0ae4bf217004db3d080cbaee652ca7"
          ],
          "data": "0x0000000000000000000000000000000000000000000000000000000067905d800000000000000000000000000000000000000000000000000013b4600989291f0000000000000000000000000000000000000000000000000dcc8ea678c22372",
          "blockHash": "0xdcbab62f558ebb77c62a56523398949f36accdc7668308977ff39a57346543b7",
          "blockNumber": "0x731d62",
          "transactionHash": "0xe07a466033a9a01056eec1a7edce7f62de45caca0dc914356306c7ea1ac1f55e",
          "transactionIndex": "0x71",
          "logIndex": "0xb4",
          "removed": false
        }
      ],
      "logsBloom": "0x00000000000000000000000000000000000000000600000000000000000000000000000000000000000000000000000000000000000000004000000000000000000000000000004000000008000000000000000000000000000000000000000000000000020000000000000000000800020000000000000000000010000000000000000000000000000000000000000000000000000000000000010000000000000000000000000000000000000000004000000000000000000000000000000000000002000000800000000000000000000000000000080000000000000020000000000000000000000000000000000000000000000000000000000000000000",
      "type": "0x2",
      "transactionHash": "0xe07a466033a9a01056eec1a7edce7f62de45caca0dc914356306c7ea1ac1f55e",
      "transactionIndex": "0x71",
      "blockHash": "0xdcbab62f558ebb77c62a56523398949f36accdc7668308977ff39a57346543b7",
      "blockNumber": "0x731d62",
      "gasUsed": "0xfd4b",
      "effectiveGasPrice": "0x69233aff",
      "from": "0xc77f7fed3b5cc8249adc428c5f44c9063b9734b4",
      "to": "0x8aafd3ede9adb0ff97c7aebce82a919afb1c8764",
      "contractAddress": null
    }
  ],
  "libraries": [],
  "pending": [],
  "returns": {},
  "timestamp": 1737514369,
  "chain": 11155111,
  "commit": "1d2fb70"
}