{
  "transactions": [
    {
      "hash": "0xf32f6f77c502054185f5f702f94bd45ca5fc328f5998ed7544b3e70b4244649f",
      "transactionType": "CALL",
      "contractName": null,
      "contractAddress": "0x5eb9cc76c3506942c1c0ead70e877dd5e4f00cb0",
      "function": "buy(address)",
      "arguments": [
        "0xC77f7fed3b5Cc8249aDc428c5F44C9063B9734b4"
      ],
      "transaction": {
        "from": "0xc77f7fed3b5cc8249adc428c5f44c9063b9734b4",
        "to": "0x5eb9cc76c3506942c1c0ead70e877dd5e4f00cb0",
        "gas": "0x156c8",
        "value": "0xde0b6b3a7640000",
        "input": "0xf088d547000000000000000000000000c77f7fed3b5cc8249adc428c5f44c9063b9734b4",
        "nonce": "0x15f",
        "chainId": "0xaa36a7"
      },
      "additionalContracts": [],
      "isFixedGasLimit": false
    }
  ],
  "receipts": [
    {
      "status": "0x1",
      "cumulativeGasUsed": "0xd7fd73",
      "logs": [
        {
          "address": "0x5eb9cc76c3506942c1c0ead70e877dd5e4f00cb0",
          "topics": [
            "0xddf252ad1be2c89b69c2b068fc378daa952ba7f163c4a11628f55a4df523b3ef",
            "0x0000000000000000000000000000000000000000000000000000000000000000",
            "0x000000000000000000000000c77f7fed3b5cc8249adc428c5f44c9063b9734b4"
          ],
          "data": "0x000000000000000000000000000000000000000000000035a6dc86de57cb1f53",
          "blockHash": "0xa8f66e2ede3346b4d3c01762f657b843f2fcb7e5af7f0816ead11294f04d7bd7",
          "blockNumber": "0x723c18",
          "transactionHash": "0xf32f6f77c502054185f5f702f94bd45ca5fc328f5998ed7544b3e70b4244649f",
          "transactionIndex": "0x6a",
          "logIndex": "0x8d",
          "removed": false
        },
        {
          "address": "0x5eb9cc76c3506942c1c0ead70e877dd5e4f00cb0",
          "topics": [
            "0xddf252ad1be2c89b69c2b068fc378daa952ba7f163c4a11628f55a4df523b3ef",
            "0x0000000000000000000000000000000000000000000000000000000000000000",
            "0x000000000000000000000000c77f7fed3b5cc8249adc428c5f44c9063b9734b4"
          ],
          "data": "0x00000000000000000000000000000000000000000000000029a996a12f1d5713",
          "blockHash": "0xa8f66e2ede3346b4d3c01762f657b843f2fcb7e5af7f0816ead11294f04d7bd7",
          "blockNumber": "0x723c18",
          "transactionHash": "0xf32f6f77c502054185f5f702f94bd45ca5fc328f5998ed7544b3e70b4244649f",
          "transactionIndex": "0x6a",
          "logIndex": "0x8e",
          "removed": false
        },
        {
          "address": "0x5eb9cc76c3506942c1c0ead70e877dd5e4f00cb0",
          "topics": [
            "0x4afcb4a87cdbd9974efdb92ee48bc8d7cd0ae4bf217004db3d080cbaee652ca7"
          ],
          "data": "0x000000000000000000000000000000000000000000000000000000006785c27400000000000000000000000000000000000000000000000000038dc4fe9190120000000000000000000000000000000000000000000000000de0b6b3a7640000",
          "blockHash": "0xa8f66e2ede3346b4d3c01762f657b843f2fcb7e5af7f0816ead11294f04d7bd7",
          "blockNumber": "0x723c18",
          "transactionHash": "0xf32f6f77c502054185f5f702f94bd45ca5fc328f5998ed7544b3e70b4244649f",
          "transactionIndex": "0x6a",
          "logIndex": "0x8f",
          "removed": false
        }
      ],
      "logsBloom": "0x00000000000000000000000000000000000000000000000000000000000000000000000000000000000000000000000000000000000000004000000000000000000000000000000000000008000000000000000000000000000000000000000000000000020000000000000004000800020000000000000000000010000000000000000000000000000000000000000000000000000000000000010000000000000000000000000000000000000000004000000000000000000000000000020000000002000000800000008000000000000000000000080000000000000020000000000000000000000000000000000000000000000000000000000000000000",
      "type": "0x2",
      "transactionHash": "0xf32f6f77c502054185f5f702f94bd45ca5fc328f5998ed7544b3e70b4244649f",
      "transactionIndex": "0x6a",
      "blockHash": "0xa8f66e2ede3346b4d3c01762f657b843f2fcb7e5af7f0816ead11294f04d7bd7",
      "blockNumber": "0x723c18",
      "gasUsed": "0xf82c",
      "effectiveGasPrice": "0x231662de1",
      "from": "0xc77f7fed3b5cc8249adc428c5f44c9063b9734b4",
      "to": "0x5eb9cc76c3506942c1c0ead70e877dd5e4f00cb0",
      "contractAddress": null
    }
  ],
  "libraries": [],
  "pending": [],
  "returns": {},
  "timestamp": 1736819316,
  "chain": 11155111,
  "commit": "51a374b"
}