{
  "transactions": [
    {
      "hash": "0xa62c2e403c7fa7966abfb9af37ca11aa24ce633f277aebfd90cbb6678b8499fb",
      "transactionType": "CALL",
      "contractName": null,
      "contractAddress": "0x8aafd3ede9adb0ff97c7aebce82a919afb1c8764",
      "function": "sell(uint256)",
      "arguments": [
        "42577178031558836"
      ],
      "transaction": {
        "from": "0xc77f7fed3b5cc8249adc428c5f44c9063b9734b4",
        "to": "0x8aafd3ede9adb0ff97c7aebce82a919afb1c8764",
        "gas": "0x1724d",
        "value": "0x0",
        "input": "0xe4849b32000000000000000000000000000000000000000000000000009743b7c41c10b4",
        "nonce": "0x12cd",
        "chainId": "0xaa36a7"
      },
      "additionalContracts": [],
      "isFixedGasLimit": false
    }
  ],
  "receipts": [
    {
      "status": "0x1",
      "cumulativeGasUsed": "0x8e42de",
      "logs": [
        {
          "address": "0x8aafd3ede9adb0ff97c7aebce82a919afb1c8764",
          "topics": [
            "0xddf252ad1be2c89b69c2b068fc378daa952ba7f163c4a11628f55a4df523b3ef",
            "0x000000000000000000000000c77f7fed3b5cc8249adc428c5f44c9063b9734b4",
            "0x0000000000000000000000000000000000000000000000000000000000000000"
          ],
          "data": "0x00000000000000000000000000000000000000000000000000960ded9788627e",
          "blockHash": "0xb519ffef13d08616878833fa8f01b95cb6dce6c87c22b0d541d82bf82d8c8616",
          "blockNumber": "0x7319ca",
          "transactionHash": "0xa62c2e403c7fa7966abfb9af37ca11aa24ce633f277aebfd90cbb6678b8499fb",
          "transactionIndex": "0x69",
          "logIndex": "0x96",
          "removed": false
        },
        {
          "address": "0x8aafd3ede9adb0ff97c7aebce82a919afb1c8764",
          "topics": [
            "0xddf252ad1be2c89b69c2b068fc378daa952ba7f163c4a11628f55a4df523b3ef",
            "0x000000000000000000000000c77f7fed3b5cc8249adc428c5f44c9063b9734b4",
            "0x000000000000000000000000c77f7fed3b5cc8249adc428c5f44c9063b9734b4"
          ],
          "data": "0x000000000000000000000000000000000000000000000000000135ca2c93ae36",
          "blockHash": "0xb519ffef13d08616878833fa8f01b95cb6dce6c87c22b0d541d82bf82d8c8616",
          "blockNumber": "0x7319ca",
          "transactionHash": "0xa62c2e403c7fa7966abfb9af37ca11aa24ce633f277aebfd90cbb6678b8499fb",
          "transactionIndex": "0x69",
          "logIndex": "0x97",
          "removed": false
        },
        {
          "address": "0x8aafd3ede9adb0ff97c7aebce82a919afb1c8764",
          "topics": [
            "0x4afcb4a87cdbd9974efdb92ee48bc8d7cd0ae4bf217004db3d080cbaee652ca7"
          ],
          "data": "0x000000000000000000000000000000000000000000000000000000006790324800000000000000000000000000000000000000000000000000054eff48407bdc000000000000000000000000000000000000000000000000000039dcbd405519",
          "blockHash": "0xb519ffef13d08616878833fa8f01b95cb6dce6c87c22b0d541d82bf82d8c8616",
          "blockNumber": "0x7319ca",
          "transactionHash": "0xa62c2e403c7fa7966abfb9af37ca11aa24ce633f277aebfd90cbb6678b8499fb",
          "transactionIndex": "0x69",
          "logIndex": "0x98",
          "removed": false
        }
      ],
      "logsBloom": "0x00000000000000000000000000000000000000000600000000000000000000000000000000000000000000000000000000000000000000004000000000000000000000000000004000000008000000000000000000000000000000000000000000000000020000000000000000000800020000000000000000000010000000000000000000000000000000000000000000000000000000000000010000000000000000000000000000000000000000004000000000000000000000000000000000000002000000800000000000000000000000000000080000000000000020000000000000000000000000000000000000000000000000000000000000000000",
      "type": "0x2",
      "transactionHash": "0xa62c2e403c7fa7966abfb9af37ca11aa24ce633f277aebfd90cbb6678b8499fb",
      "transactionIndex": "0x69",
      "blockHash": "0xb519ffef13d08616878833fa8f01b95cb6dce6c87c22b0d541d82bf82d8c8616",
      "blockNumber": "0x7319ca",
      "gasUsed": "0xfd33",
      "effectiveGasPrice": "0x497fe6a8",
      "from": "0xc77f7fed3b5cc8249adc428c5f44c9063b9734b4",
      "to": "0x8aafd3ede9adb0ff97c7aebce82a919afb1c8764",
      "contractAddress": null
    }
  ],
  "libraries": [],
  "pending": [],
  "returns": {},
  "timestamp": 1737503305,
  "chain": 11155111,
  "commit": "1d2fb70"
}