{
  "transactions": [
    {
      "hash": "0xcba6c16c0f9b5457168a8c1f824a959a23a55684ebf60f8e30df3d359b36cb48",
      "transactionType": "CALL",
      "contractName": null,
      "contractAddress": "0x8aafd3ede9adb0ff97c7aebce82a919afb1c8764",
      "function": "sell(uint256)",
      "arguments": [
        "47563783997508311"
      ],
      "transaction": {
        "from": "0xc77f7fed3b5cc8249adc428c5f44c9063b9734b4",
        "to": "0x8aafd3ede9adb0ff97c7aebce82a919afb1c8764",
        "gas": "0x1724d",
        "value": "0x0",
        "input": "0xe4849b3200000000000000000000000000000000000000000000000000a8fb0271584ad7",
        "nonce": "0xf2d",
        "chainId": "0xaa36a7"
      },
      "additionalContracts": [],
      "isFixedGasLimit": false
    }
  ],
  "receipts": [
    {
      "status": "0x1",
      "cumulativeGasUsed": "0xf0367e",
      "logs": [
        {
          "address": "0x8aafd3ede9adb0ff97c7aebce82a919afb1c8764",
          "topics": [
            "0xddf252ad1be2c89b69c2b068fc378daa952ba7f163c4a11628f55a4df523b3ef",
            "0x000000000000000000000000c77f7fed3b5cc8249adc428c5f44c9063b9734b4",
            "0x0000000000000000000000000000000000000000000000000000000000000000"
          ],
          "data": "0x00000000000000000000000000000000000000000000000000a7a0effdc008b5",
          "blockHash": "0x51ee1838e53dd43c75036687dfb908b918b9a95153898f9974044104d7021f70",
          "blockNumber": "0x731581",
          "transactionHash": "0xcba6c16c0f9b5457168a8c1f824a959a23a55684ebf60f8e30df3d359b36cb48",
          "transactionIndex": "0x99",
          "logIndex": "0xdb",
          "removed": false
        },
        {
          "address": "0x8aafd3ede9adb0ff97c7aebce82a919afb1c8764",
          "topics": [
            "0xddf252ad1be2c89b69c2b068fc378daa952ba7f163c4a11628f55a4df523b3ef",
            "0x000000000000000000000000c77f7fed3b5cc8249adc428c5f44c9063b9734b4",
            "0x000000000000000000000000c77f7fed3b5cc8249adc428c5f44c9063b9734b4"
          ],
          "data": "0x00000000000000000000000000000000000000000000000000015a1273984222",
          "blockHash": "0x51ee1838e53dd43c75036687dfb908b918b9a95153898f9974044104d7021f70",
          "blockNumber": "0x731581",
          "transactionHash": "0xcba6c16c0f9b5457168a8c1f824a959a23a55684ebf60f8e30df3d359b36cb48",
          "transactionIndex": "0x99",
          "logIndex": "0xdc",
          "removed": false
        },
        {
          "address": "0x8aafd3ede9adb0ff97c7aebce82a919afb1c8764",
          "topics": [
            "0x4afcb4a87cdbd9974efdb92ee48bc8d7cd0ae4bf217004db3d080cbaee652ca7"
          ],
          "data": "0x00000000000000000000000000000000000000000000000000000000678ffeb80000000000000000000000000000000000000000000000000004bf8bd68230f8000000000000000000000000000000000000000000000000000039d0e3f23f0d",
          "blockHash": "0x51ee1838e53dd43c75036687dfb908b918b9a95153898f9974044104d7021f70",
          "blockNumber": "0x731581",
          "transactionHash": "0xcba6c16c0f9b5457168a8c1f824a959a23a55684ebf60f8e30df3d359b36cb48",
          "transactionIndex": "0x99",
          "logIndex": "0xdd",
          "removed": false
        }
      ],
      "logsBloom": "0x00000000000000000000000000000000000000000600000000000000000000000000000000000000000000000000000000000000000000004000000000000000000000000000004000000008000000000000000000000000000000000000000000000000020000000000000000000800020000000000000000000010000000000000000000000000000000000000000000000000000000000000010000000000000000000000000000000000000000004000000000000000000000000000000000000002000000800000000000000000000000000000080000000000000020000000000000000000000000000000000000000000000000000000000000000000",
      "type": "0x2",
      "transactionHash": "0xcba6c16c0f9b5457168a8c1f824a959a23a55684ebf60f8e30df3d359b36cb48",
      "transactionIndex": "0x99",
      "blockHash": "0x51ee1838e53dd43c75036687dfb908b918b9a95153898f9974044104d7021f70",
      "blockNumber": "0x731581",
      "gasUsed": "0xfd33",
      "effectiveGasPrice": "0x65ea0ee1",
      "from": "0xc77f7fed3b5cc8249adc428c5f44c9063b9734b4",
      "to": "0x8aafd3ede9adb0ff97c7aebce82a919afb1c8764",
      "contractAddress": null
    }
  ],
  "libraries": [],
  "pending": [],
  "returns": {},
  "timestamp": 1737490106,
  "chain": 11155111,
  "commit": "1d2fb70"
}