{
  "transactions": [
    {
      "hash": "0x0a400f7afc97d3e2f4f3f87d41682c0d69230805a5b147012786746a3e3e1302",
      "transactionType": "CALL",
      "contractName": null,
      "contractAddress": "0xbf4a322f1496e5c3d34a9bcdb4c60567b38c7de2",
      "function": "buy(address)",
      "arguments": [
        "0xC77f7fed3b5Cc8249aDc428c5F44C9063B9734b4"
      ],
      "transaction": {
        "from": "0xc77f7fed3b5cc8249adc428c5f44c9063b9734b4",
        "to": "0xbf4a322f1496e5c3d34a9bcdb4c60567b38c7de2",
        "gas": "0x1b309",
        "value": "0xde0b6b3a7640000",
        "input": "0xf088d547000000000000000000000000c77f7fed3b5cc8249adc428c5f44c9063b9734b4",
        "nonce": "0xb6c",
        "chainId": "0xaa36a7"
      },
      "additionalContracts": [],
      "isFixedGasLimit": false
    }
  ],
  "receipts": [
    {
      "status": "0x1",
      "cumulativeGasUsed": "0x9df4da",
      "logs": [
        {
          "address": "0xbf4a322f1496e5c3d34a9bcdb4c60567b38c7de2",
          "topics": [
            "0xddf252ad1be2c89b69c2b068fc378daa952ba7f163c4a11628f55a4df523b3ef",
            "0x0000000000000000000000000000000000000000000000000000000000000000",
            "0x000000000000000000000000c77f7fed3b5cc8249adc428c5f44c9063b9734b4"
          ],
          "data": "0x00000000000000000000000000000000000000000000003516eefc1ec4c206ed",
          "blockHash": "0x893dddb2fffe249ef5aad3e10117aa69f993f71c09692adb3a3bfb6d11510960",
          "blockNumber": "0x725b77",
          "transactionHash": "0x0a400f7afc97d3e2f4f3f87d41682c0d69230805a5b147012786746a3e3e1302",
          "transactionIndex": "0x62",
          "logIndex": "0x85",
          "removed": false
        },
        {
          "address": "0xbf4a322f1496e5c3d34a9bcdb4c60567b38c7de2",
          "topics": [
            "0xddf252ad1be2c89b69c2b068fc378daa952ba7f163c4a11628f55a4df523b3ef",
            "0x0000000000000000000000000000000000000000000000000000000000000000",
            "0x000000000000000000000000c77f7fed3b5cc8249adc428c5f44c9063b9734b4"
          ],
          "data": "0x0000000000000000000000000000000000000000000000002939d2cf39ddc0d3",
          "blockHash": "0x893dddb2fffe249ef5aad3e10117aa69f993f71c09692adb3a3bfb6d11510960",
          "blockNumber": "0x725b77",
          "transactionHash": "0x0a400f7afc97d3e2f4f3f87d41682c0d69230805a5b147012786746a3e3e1302",
          "transactionIndex": "0x62",
          "logIndex": "0x86",
          "removed": false
        },
        {
          "address": "0xbf4a322f1496e5c3d34a9bcdb4c60567b38c7de2",
          "topics": [
            "0x4afcb4a87cdbd9974efdb92ee48bc8d7cd0ae4bf217004db3d080cbaee652ca7"
          ],
          "data": "0x0000000000000000000000000000000000000000000000000000000067873bf000000000000000000000000000000000000000000000000000039769b757b48a0000000000000000000000000000000000000000000000000de0b6b3a7640000",
          "blockHash": "0x893dddb2fffe249ef5aad3e10117aa69f993f71c09692adb3a3bfb6d11510960",
          "blockNumber": "0x725b77",
          "transactionHash": "0x0a400f7afc97d3e2f4f3f87d41682c0d69230805a5b147012786746a3e3e1302",
          "transactionIndex": "0x62",
          "logIndex": "0x87",
          "removed": false
        }
      ],
      "logsBloom": "0x00000000000000000000000000000000000000000000000000000000000000000000000000000000000000000000000000000000000000004000000000000000000000000000000000000008000000000000001000000000000000000000000000000000020000000000000000000800020000000000000000000010000000000000000000000000000000000000000000000000000008000000010000000000000000000000000000000000000000004000000000000000000000000000000000000002000000800000000000001000000000000000080000000000000020000000000000000000000000000000000000000000000000000000000000000000",
      "type": "0x2",
      "transactionHash": "0x0a400f7afc97d3e2f4f3f87d41682c0d69230805a5b147012786746a3e3e1302",
      "transactionIndex": "0x62",
      "blockHash": "0x893dddb2fffe249ef5aad3e10117aa69f993f71c09692adb3a3bfb6d11510960",
      "blockNumber": "0x725b77",
      "gasUsed": "0x13af6",
      "effectiveGasPrice": "0x3bd80c56",
      "from": "0xc77f7fed3b5cc8249adc428c5f44c9063b9734b4",
      "to": "0xbf4a322f1496e5c3d34a9bcdb4c60567b38c7de2",
      "contractAddress": null
    }
  ],
  "libraries": [],
  "pending": [],
  "returns": {},
  "timestamp": 1736915954,
  "chain": 11155111,
  "commit": "51a374b"
}