{
  "transactions": [
    {
      "hash": "0xd3c213695bb3d6a0516ed7622eecb890804794ae0a5caa6d430643023668c704",
      "transactionType": "CALL",
      "contractName": null,
      "contractAddress": "0xbf4a322f1496e5c3d34a9bcdb4c60567b38c7de2",
      "function": "buy(address)",
      "arguments": [
        "0xC77f7fed3b5Cc8249aDc428c5F44C9063B9734b4"
      ],
      "transaction": {
        "from": "0xc77f7fed3b5cc8249adc428c5f44c9063b9734b4",
        "to": "0xbf4a322f1496e5c3d34a9bcdb4c60567b38c7de2",
        "gas": "0x1b309",
        "value": "0xde0b6b3a7640000",
        "input": "0xf088d547000000000000000000000000c77f7fed3b5cc8249adc428c5f44c9063b9734b4",
        "nonce": "0x8da",
        "chainId": "0xaa36a7"
      },
      "additionalContracts": [],
      "isFixedGasLimit": false
    }
  ],
  "receipts": [
    {
      "status": "0x1",
      "cumulativeGasUsed": "0x903223",
      "logs": [
        {
          "address": "0xbf4a322f1496e5c3d34a9bcdb4c60567b38c7de2",
          "topics": [
            "0xddf252ad1be2c89b69c2b068fc378daa952ba7f163c4a11628f55a4df523b3ef",
            "0x0000000000000000000000000000000000000000000000000000000000000000",
            "0x000000000000000000000000c77f7fed3b5cc8249adc428c5f44c9063b9734b4"
          ],
          "data": "0x00000000000000000000000000000000000000000000003592dcca6e6282faab",
          "blockHash": "0xb7ebe3ca85362b3bf84d8f3ceaf3f83c2a271583e5f2b98ad3a9efcba090a4f0",
          "blockNumber": "0x72584d",
          "transactionHash": "0xd3c213695bb3d6a0516ed7622eecb890804794ae0a5caa6d430643023668c704",
          "transactionIndex": "0x2f",
          "logIndex": "0x3f",
          "removed": false
        },
        {
          "address": "0xbf4a322f1496e5c3d34a9bcdb4c60567b38c7de2",
          "topics": [
            "0xddf252ad1be2c89b69c2b068fc378daa952ba7f163c4a11628f55a4df523b3ef",
            "0x0000000000000000000000000000000000000000000000000000000000000000",
            "0x000000000000000000000000c77f7fed3b5cc8249adc428c5f44c9063b9734b4"
          ],
          "data": "0x000000000000000000000000000000000000000000000000299a0efadc3a9342",
          "blockHash": "0xb7ebe3ca85362b3bf84d8f3ceaf3f83c2a271583e5f2b98ad3a9efcba090a4f0",
          "blockNumber": "0x72584d",
          "transactionHash": "0xd3c213695bb3d6a0516ed7622eecb890804794ae0a5caa6d430643023668c704",
          "transactionIndex": "0x2f",
          "logIndex": "0x40",
          "removed": false
        },
        {
          "address": "0xbf4a322f1496e5c3d34a9bcdb4c60567b38c7de2",
          "topics": [
            "0x4afcb4a87cdbd9974efdb92ee48bc8d7cd0ae4bf217004db3d080cbaee652ca7"
          ],
          "data": "0x00000000000000000000000000000000000000000000000000000000678715bc00000000000000000000000000000000000000000000000000038f1ae96f8f600000000000000000000000000000000000000000000000000de0b6b3a7640000",
          "blockHash": "0xb7ebe3ca85362b3bf84d8f3ceaf3f83c2a271583e5f2b98ad3a9efcba090a4f0",
          "blockNumber": "0x72584d",
          "transactionHash": "0xd3c213695bb3d6a0516ed7622eecb890804794ae0a5caa6d430643023668c704",
          "transactionIndex": "0x2f",
          "logIndex": "0x41",
          "removed": false
        }
      ],
      "logsBloom": "0x00000000000000000000000000000000000000000000000000000000000000000000000000000000000000000000000000000000000000004000000000000000000000000000000000000008000000000000001000000000000000000000000000000000020000000000000000000800020000000000000000000010000000000000000000000000000000000000000000000000000008000000010000000000000000000000000000000000000000004000000000000000000000000000000000000002000000800000000000001000000000000000080000000000000020000000000000000000000000000000000000000000000000000000000000000000",
      "type": "0x2",
      "transactionHash": "0xd3c213695bb3d6a0516ed7622eecb890804794ae0a5caa6d430643023668c704",
      "transactionIndex": "0x2f",
      "blockHash": "0xb7ebe3ca85362b3bf84d8f3ceaf3f83c2a271583e5f2b98ad3a9efcba090a4f0",
      "blockNumber": "0x72584d",
      "gasUsed": "0x13af6",
      "effectiveGasPrice": "0x20e7a72a",
      "from": "0xc77f7fed3b5cc8249adc428c5f44c9063b9734b4",
      "to": "0xbf4a322f1496e5c3d34a9bcdb4c60567b38c7de2",
      "contractAddress": null
    }
  ],
  "libraries": [],
  "pending": [],
  "returns": {},
  "timestamp": 1736906173,
  "chain": 11155111,
  "commit": "51a374b"
}