{
  "transactions": [
    {
      "hash": "0x4d85d8a215492f8de52053276014355a2c9b23bd6cd2c4807ac1636e3884f9f1",
      "transactionType": "CALL",
      "contractName": null,
      "contractAddress": "0x5eb9cc76c3506942c1c0ead70e877dd5e4f00cb0",
      "function": "buy(address)",
      "arguments": [
        "0xC77f7fed3b5Cc8249aDc428c5F44C9063B9734b4"
      ],
      "transaction": {
        "from": "0xc77f7fed3b5cc8249adc428c5f44c9063b9734b4",
        "to": "0x5eb9cc76c3506942c1c0ead70e877dd5e4f00cb0",
        "gas": "0x156c8",
        "value": "0xde0b6b3a7640000",
        "input": "0xf088d547000000000000000000000000c77f7fed3b5cc8249adc428c5f44c9063b9734b4",
        "nonce": "0x170",
        "chainId": "0xaa36a7"
      },
      "additionalContracts": [],
      "isFixedGasLimit": false
    }
  ],
  "receipts": [
    {
      "status": "0x1",
      "cumulativeGasUsed": "0xb97770",
      "logs": [
        {
          "address": "0x5eb9cc76c3506942c1c0ead70e877dd5e4f00cb0",
          "topics": [
            "0xddf252ad1be2c89b69c2b068fc378daa952ba7f163c4a11628f55a4df523b3ef",
            "0x0000000000000000000000000000000000000000000000000000000000000000",
            "0x000000000000000000000000c77f7fed3b5cc8249adc428c5f44c9063b9734b4"
          ],
          "data": "0x000000000000000000000000000000000000000000000035a6d5c9b3a0124420",
          "blockHash": "0x4091f4900d0858f545598a78301fe0631acdc7c4146653e8479a32ec38f59f06",
          "blockNumber": "0x723c2d",
          "transactionHash": "0x4d85d8a215492f8de52053276014355a2c9b23bd6cd2c4807ac1636e3884f9f1",
          "transactionIndex": "0x57",
          "logIndex": "0x9f",
          "removed": false
        },
        {
          "address": "0x5eb9cc76c3506942c1c0ead70e877dd5e4f00cb0",
          "topics": [
            "0xddf252ad1be2c89b69c2b068fc378daa952ba7f163c4a11628f55a4df523b3ef",
            "0x0000000000000000000000000000000000000000000000000000000000000000",
            "0x000000000000000000000000c77f7fed3b5cc8249adc428c5f44c9063b9734b4"
          ],
          "data": "0x00000000000000000000000000000000000000000000000029a99165887adf3e",
          "blockHash": "0x4091f4900d0858f545598a78301fe0631acdc7c4146653e8479a32ec38f59f06",
          "blockNumber": "0x723c2d",
          "transactionHash": "0x4d85d8a215492f8de52053276014355a2c9b23bd6cd2c4807ac1636e3884f9f1",
          "transactionIndex": "0x57",
          "logIndex": "0xa0",
          "removed": false
        },
        {
          "address": "0x5eb9cc76c3506942c1c0ead70e877dd5e4f00cb0",
          "topics": [
            "0x4afcb4a87cdbd9974efdb92ee48bc8d7cd0ae4bf217004db3d080cbaee652ca7"
          ],
          "data": "0x000000000000000000000000000000000000000000000000000000006785c37000000000000000000000000000000000000000000000000000038dc570d6ab880000000000000000000000000000000000000000000000000de0b6b3a7640000",
          "blockHash": "0x4091f4900d0858f545598a78301fe0631acdc7c4146653e8479a32ec38f59f06",
          "blockNumber": "0x723c2d",
          "transactionHash": "0x4d85d8a215492f8de52053276014355a2c9b23bd6cd2c4807ac1636e3884f9f1",
          "transactionIndex": "0x57",
          "logIndex": "0xa1",
          "removed": false
        }
      ],
      "logsBloom": "0x00000000000000000000000000000000000000000000000000000000000000000000000000000000000000000000000000000000000000004000000000000000000000000000000000000008000000000000000000000000000000000000000000000000020000000000000004000800020000000000000000000010000000000000000000000000000000000000000000000000000000000000010000000000000000000000000000000000000000004000000000000000000000000000020000000002000000800000008000000000000000000000080000000000000020000000000000000000000000000000000000000000000000000000000000000000",
      "type": "0x2",
      "transactionHash": "0x4d85d8a215492f8de52053276014355a2c9b23bd6cd2c4807ac1636e3884f9f1",
      "transactionIndex": "0x57",
      "blockHash": "0x4091f4900d0858f545598a78301fe0631acdc7c4146653e8479a32ec38f59f06",
      "blockNumber": "0x723c2d",
      "gasUsed": "0xf82c",
      "effectiveGasPrice": "0x20b4f348b",
      "from": "0xc77f7fed3b5cc8249adc428c5f44c9063b9734b4",
      "to": "0x5eb9cc76c3506942c1c0ead70e877dd5e4f00cb0",
      "contractAddress": null
    }
  ],
  "libraries": [],
  "pending": [],
  "returns": {},
  "timestamp": 1736819569,
  "chain": 11155111,
  "commit": "51a374b"
}