{
  "transactions": [
    {
      "hash": "0xc8858a8574306de6b1d2f5fdf3d88d5240c6bfbfe3006a61e9ca2d0b8b502b15",
      "transactionType": "CALL",
      "contractName": null,
      "contractAddress": "0x8aafd3ede9adb0ff97c7aebce82a919afb1c8764",
      "function": "sell(uint256)",
      "arguments": [
        "5773127886465267213"
      ],
      "transaction": {
        "from": "0xc77f7fed3b5cc8249adc428c5f44c9063b9734b4",
        "to": "0x8aafd3ede9adb0ff97c7aebce82a919afb1c8764",
        "gas": "0x15dca",
        "value": "0x0",
        "input": "0xe4849b32000000000000000000000000000000000000000000000000501e4539b3a9f60d",
        "nonce": "0xff2",
        "chainId": "0xaa36a7"
      },
      "additionalContracts": [],
      "isFixedGasLimit": false
    }
  ],
  "receipts": [
    {
      "status": "0x1",
      "cumulativeGasUsed": "0x114e30b",
      "logs": [
        {
          "address": "0x8aafd3ede9adb0ff97c7aebce82a919afb1c8764",
          "topics": [
            "0xddf252ad1be2c89b69c2b068fc378daa952ba7f163c4a11628f55a4df523b3ef",
            "0x000000000000000000000000c77f7fed3b5cc8249adc428c5f44c9063b9734b4",
            "0x0000000000000000000000000000000000000000000000000000000000000000"
          ],
          "data": "0x0000000000000000000000000000000000000000000000004f7a30310c56ae74",
          "blockHash": "0xb4d2d32e99b878bff90e4b34f6838f42293f0d0eca383d94985152a98c50fc07",
          "blockNumber": "0x731667",
          "transactionHash": "0xc8858a8574306de6b1d2f5fdf3d88d5240c6bfbfe3006a61e9ca2d0b8b502b15",
          "transactionIndex": "0x9e",
          "logIndex": "0xff",
          "removed": false
        },
        {
          "address": "0x8aafd3ede9adb0ff97c7aebce82a919afb1c8764",
          "topics": [
            "0xddf252ad1be2c89b69c2b068fc378daa952ba7f163c4a11628f55a4df523b3ef",
            "0x000000000000000000000000c77f7fed3b5cc8249adc428c5f44c9063b9734b4",
            "0x000000000000000000000000c77f7fed3b5cc8249adc428c5f44c9063b9734b4"
          ],
          "data": "0x00000000000000000000000000000000000000000000000000a41508a7534799",
          "blockHash": "0xb4d2d32e99b878bff90e4b34f6838f42293f0d0eca383d94985152a98c50fc07",
          "blockNumber": "0x731667",
          "transactionHash": "0xc8858a8574306de6b1d2f5fdf3d88d5240c6bfbfe3006a61e9ca2d0b8b502b15",
          "transactionIndex": "0x9e",
          "logIndex": "0x100",
          "removed": false
        },
        {
          "address": "0x8aafd3ede9adb0ff97c7aebce82a919afb1c8764",
          "topics": [
            "0x4afcb4a87cdbd9974efdb92ee48bc8d7cd0ae4bf217004db3d080cbaee652ca7"
          ],
          "data": "0x00000000000000000000000000000000000000000000000000000000679009800000000000000000000000000000000000000000000000000004e4f2b74e86a4000000000000000000000000000000000000000000000000001c4161bf943805",
          "blockHash": "0xb4d2d32e99b878bff90e4b34f6838f42293f0d0eca383d94985152a98c50fc07",
          "blockNumber": "0x731667",
          "transactionHash": "0xc8858a8574306de6b1d2f5fdf3d88d5240c6bfbfe3006a61e9ca2d0b8b502b15",
          "transactionIndex": "0x9e",
          "logIndex": "0x101",
          "removed": false
        }
      ],
      "logsBloom": "0x00000000000000000000000000000000000000000600000000000000000000000000000000000000000000000000000000000000000000004000000000000000000000000000004000000008000000000000000000000000000000000000000000000000020000000000000000000800020000000000000000000010000000000000000000000000000000000000000000000000000000000000010000000000000000000000000000000000000000004000000000000000000000000000000000000002000000800000000000000000000000000000080000000000000020000000000000000000000000000000000000000000000000000000000000000000",
      "type": "0x2",
      "transactionHash": "0xc8858a8574306de6b1d2f5fdf3d88d5240c6bfbfe3006a61e9ca2d0b8b502b15",
      "transactionIndex": "0x9e",
      "blockHash": "0xb4d2d32e99b878bff90e4b34f6838f42293f0d0eca383d94985152a98c50fc07",
      "blockNumber": "0x731667",
      "gasUsed": "0xfd3f",
      "effectiveGasPrice": "0x4a0c2dbc",
      "from": "0xc77f7fed3b5cc8249adc428c5f44c9063b9734b4",
      "to": "0x8aafd3ede9adb0ff97c7aebce82a919afb1c8764",
      "contractAddress": null
    }
  ],
  "libraries": [],
  "pending": [],
  "returns": {},
  "timestamp": 1737492865,
  "chain": 11155111,
  "commit": "1d2fb70"
}