{
  "transactions": [
    {
      "hash": "0x9ef019548f774c48711e749d361dfa899170b5d66237d33ab9c2a3e634b6c0d9",
      "transactionType": "CALL",
      "contractName": null,
      "contractAddress": "0x8aafd3ede9adb0ff97c7aebce82a919afb1c8764",
      "function": "sell(uint256)",
      "arguments": [
        "165822458834377198100"
      ],
      "transaction": {
        "from": "0xc77f7fed3b5cc8249adc428c5f44c9063b9734b4",
        "to": "0x8aafd3ede9adb0ff97c7aebce82a919afb1c8764",
        "gas": "0x17270",
        "value": "0x0",
        "input": "0xe4849b32000000000000000000000000000000000000000000000008fd3fb7beace34a14",
        "nonce": "0x1670",
        "chainId": "0xaa36a7"
      },
      "additionalContracts": [],
      "isFixedGasLimit": false
    }
  ],
  "receipts": [
    {
      "status": "0x1",
      "cumulativeGasUsed": "0xa194f6",
      "logs": [
        {
          "address": "0x8aafd3ede9adb0ff97c7aebce82a919afb1c8764",
          "topics": [
            "0xddf252ad1be2c89b69c2b068fc378daa952ba7f163c4a11628f55a4df523b3ef",
            "0x000000000000000000000000c77f7fed3b5cc8249adc428c5f44c9063b9734b4",
            "0x0000000000000000000000000000000000000000000000000000000000000000"
          ],
          "data": "0x000000000000000000000000000000000000000000000008ead6c290180c7aa4",
          "blockHash": "0x9abb8a4c91e81918cf435050c691fb3da2a92aae8c8535af1d57128101dbe231",
          "blockNumber": "0x731e20",
          "transactionHash": "0x9ef019548f774c48711e749d361dfa899170b5d66237d33ab9c2a3e634b6c0d9",
          "transactionIndex": "0x6d",
          "logIndex": "0x9f",
          "removed": false
        },
        {
          "address": "0x8aafd3ede9adb0ff97c7aebce82a919afb1c8764",
          "topics": [
            "0xddf252ad1be2c89b69c2b068fc378daa952ba7f163c4a11628f55a4df523b3ef",
            "0x000000000000000000000000c77f7fed3b5cc8249adc428c5f44c9063b9734b4",
            "0x000000000000000000000000c77f7fed3b5cc8249adc428c5f44c9063b9734b4"
          ],
          "data": "0x0000000000000000000000000000000000000000000000001268f52e94d6cf70",
          "blockHash": "0x9abb8a4c91e81918cf435050c691fb3da2a92aae8c8535af1d57128101dbe231",
          "blockNumber": "0x731e20",
          "transactionHash": "0x9ef019548f774c48711e749d361dfa899170b5d66237d33ab9c2a3e634b6c0d9",
          "transactionIndex": "0x6d",
          "logIndex": "0xa0",
          "removed": false
        },
        {
          "address": "0x8aafd3ede9adb0ff97c7aebce82a919afb1c8764",
          "topics": [
            "0x4afcb4a87cdbd9974efdb92ee48bc8d7cd0ae4bf217004db3d080cbaee652ca7"
          ],
          "data": "0x00000000000000000000000000000000000000000000000000000000679066680000000000000000000000000000000000000000000000000015610d0143a8f20000000000000000000000000000000000000000000000000dcc40b02a4f7f2f",
          "blockHash": "0x9abb8a4c91e81918cf435050c691fb3da2a92aae8c8535af1d57128101dbe231",
          "blockNumber": "0x731e20",
          "transactionHash": "0x9ef019548f774c48711e749d361dfa899170b5d66237d33ab9c2a3e634b6c0d9",
          "transactionIndex": "0x6d",
          "logIndex": "0xa1",
          "removed": false
        }
      ],
      "logsBloom": "0x00000000000000000000000000000000000000000600000000000000000000000000000000000000000000000000000000000000000000004000000000000000000000000000004000000008000000000000000000000000000000000000000000000000020000000000000000000800020000000000000000000010000000000000000000000000000000000000000000000000000000000000010000000000000000000000000000000000000000004000000000000000000000000000000000000002000000800000000000000000000000000000080000000000000020000000000000000000000000000000000000000000000000000000000000000000",
      "type": "0x2",
      "transactionHash": "0x9ef019548f774c48711e749d361dfa899170b5d66237d33ab9c2a3e634b6c0d9",
      "transactionIndex": "0x6d",
      "blockHash": "0x9abb8a4c91e81918cf435050c691fb3da2a92aae8c8535af1d57128101dbe231",
      "blockNumber": "0x731e20",
      "gasUsed": "0xfd4b",
      "effectiveGasPrice": "0x47f99a4b",
      "from": "0xc77f7fed3b5cc8249adc428c5f44c9063b9734b4",
      "to": "0x8aafd3ede9adb0ff97c7aebce82a919afb1c8764",
      "contractAddress": null
    }
  ],
  "libraries": [],
  "pending": [],
  "returns": {},
  "timestamp": 1737516649,
  "chain": 11155111,
  "commit": "1d2fb70"
}