{
  "transactions": [
    {
      "hash": "0x010e2df7c38bc98f92a79c72c920be40edd0e0a772e63d5bcda83b33182ebfdb",
      "transactionType": "CALL",
      "contractName": null,
      "contractAddress": "0x5eb9cc76c3506942c1c0ead70e877dd5e4f00cb0",
      "function": "buy(address)",
      "arguments": [
        "0xC77f7fed3b5Cc8249aDc428c5F44C9063B9734b4"
      ],
      "transaction": {
        "from": "0xc77f7fed3b5cc8249adc428c5f44c9063b9734b4",
        "to": "0x5eb9cc76c3506942c1c0ead70e877dd5e4f00cb0",
        "gas": "0x1b30c",
        "value": "0xde0b6b3a7640000",
        "input": "0xf088d547000000000000000000000000c77f7fed3b5cc8249adc428c5f44c9063b9734b4",
        "nonce": "0x228",
        "chainId": "0xaa36a7"
      },
      "additionalContracts": [],
      "isFixedGasLimit": false
    }
  ],
  "receipts": [
    {
      "status": "0x1",
      "cumulativeGasUsed": "0x64a654",
      "logs": [
        {
          "address": "0x5eb9cc76c3506942c1c0ead70e877dd5e4f00cb0",
          "topics": [
            "0xddf252ad1be2c89b69c2b068fc378daa952ba7f163c4a11628f55a4df523b3ef",
            "0x0000000000000000000000000000000000000000000000000000000000000000",
            "0x000000000000000000000000c77f7fed3b5cc8249adc428c5f44c9063b9734b4"
          ],
          "data": "0x0000000000000000000000000000000000000000000000357c373bbc64333e60",
          "blockHash": "0xc789e0adae74a459d4b6a6b5e5da5d5ce427d62e4ef1edad4b5cebcd3012f41e",
          "blockNumber": "0x724dd6",
          "transactionHash": "0x010e2df7c38bc98f92a79c72c920be40edd0e0a772e63d5bcda83b33182ebfdb",
          "transactionIndex": "0x44",
          "logIndex": "0x60",
          "removed": false
        },
        {
          "address": "0x5eb9cc76c3506942c1c0ead70e877dd5e4f00cb0",
          "topics": [
            "0xddf252ad1be2c89b69c2b068fc378daa952ba7f163c4a11628f55a4df523b3ef",
            "0x0000000000000000000000000000000000000000000000000000000000000000",
            "0x000000000000000000000000c77f7fed3b5cc8249adc428c5f44c9063b9734b4"
          ],
          "data": "0x000000000000000000000000000000000000000000000000298878fa9599b314",
          "blockHash": "0xc789e0adae74a459d4b6a6b5e5da5d5ce427d62e4ef1edad4b5cebcd3012f41e",
          "blockNumber": "0x724dd6",
          "transactionHash": "0x010e2df7c38bc98f92a79c72c920be40edd0e0a772e63d5bcda83b33182ebfdb",
          "transactionIndex": "0x44",
          "logIndex": "0x61",
          "removed": false
        },
        {
          "address": "0x5eb9cc76c3506942c1c0ead70e877dd5e4f00cb0",
          "topics": [
            "0x4afcb4a87cdbd9974efdb92ee48bc8d7cd0ae4bf217004db3d080cbaee652ca7"
          ],
          "data": "0x00000000000000000000000000000000000000000000000000000000678697bc0000000000000000000000000000000000000000000000000003909a62a1e9dd0000000000000000000000000000000000000000000000000de0b6b3a7640000",
          "blockHash": "0xc789e0adae74a459d4b6a6b5e5da5d5ce427d62e4ef1edad4b5cebcd3012f41e",
          "blockNumber": "0x724dd6",
          "transactionHash": "0x010e2df7c38bc98f92a79c72c920be40edd0e0a772e63d5bcda83b33182ebfdb",
          "transactionIndex": "0x44",
          "logIndex": "0x62",
          "removed": false
        }
      ],
      "logsBloom": "0x00000000000000000000000000000000000000000000000000000000000000000000000000000000000000000000000000000000000000004000000000000000000000000000000000000008000000000000000000000000000000000000000000000000020000000000000004000800020000000000000000000010000000000000000000000000000000000000000000000000000000000000010000000000000000000000000000000000000000004000000000000000000000000000020000000002000000800000008000000000000000000000080000000000000020000000000000000000000000000000000000000000000000000000000000000000",
      "type": "0x2",
      "transactionHash": "0x010e2df7c38bc98f92a79c72c920be40edd0e0a772e63d5bcda83b33182ebfdb",
      "transactionIndex": "0x44",
      "blockHash": "0xc789e0adae74a459d4b6a6b5e5da5d5ce427d62e4ef1edad4b5cebcd3012f41e",
      "blockNumber": "0x724dd6",
      "gasUsed": "0x13af8",
      "effectiveGasPrice": "0x3ebea7093",
      "from": "0xc77f7fed3b5cc8249adc428c5f44c9063b9734b4",
      "to": "0x5eb9cc76c3506942c1c0ead70e877dd5e4f00cb0",
      "contractAddress": null
    }
  ],
  "libraries": [],
  "pending": [],
  "returns": {},
  "timestamp": 1736873917,
  "chain": 11155111,
  "commit": "51a374b"
}