{
  "transactions": [
    {
      "hash": "0xe31a661742d697e7d4f816b6c34f4228960245d5c1f7a91fd9d450f8cabd0df7",
      "transactionType": "CALL",
      "contractName": null,
      "contractAddress": "0xbf4a322f1496e5c3d34a9bcdb4c60567b38c7de2",
      "function": "buy(address)",
      "arguments": [
        "0xC77f7fed3b5Cc8249aDc428c5F44C9063B9734b4"
      ],
      "transaction": {
        "from": "0xc77f7fed3b5cc8249adc428c5f44c9063b9734b4",
        "to": "0xbf4a322f1496e5c3d34a9bcdb4c60567b38c7de2",
        "gas": "0x1b309",
        "value": "0xde0b6b3a7640000",
        "input": "0xf088d547000000000000000000000000c77f7fed3b5cc8249adc428c5f44c9063b9734b4",
        "nonce": "0x966",
        "chainId": "0xaa36a7"
      },
      "additionalContracts": [],
      "isFixedGasLimit": false
    }
  ],
  "receipts": [
    {
      "status": "0x1",
      "cumulativeGasUsed": "0x17af11a",
      "logs": [
        {
          "address": "0xbf4a322f1496e5c3d34a9bcdb4c60567b38c7de2",
          "topics": [
            "0xddf252ad1be2c89b69c2b068fc378daa952ba7f163c4a11628f55a4df523b3ef",
            "0x0000000000000000000000000000000000000000000000000000000000000000",
            "0x000000000000000000000000c77f7fed3b5cc8249adc428c5f44c9063b9734b4"
          ],
          "data": "0x000000000000000000000000000000000000000000000035784e45180467f380",
          "blockHash": "0xe769d91bcd0144ef06a99adb3b362d9bd593d37324d1f50a881a4e3c98d30e5a",
          "blockNumber": "0x7258fd",
          "transactionHash": "0xe31a661742d697e7d4f816b6c34f4228960245d5c1f7a91fd9d450f8cabd0df7",
          "transactionIndex": "0x6c",
          "logIndex": "0xbf",
          "removed": false
        },
        {
          "address": "0xbf4a322f1496e5c3d34a9bcdb4c60567b38c7de2",
          "topics": [
            "0xddf252ad1be2c89b69c2b068fc378daa952ba7f163c4a11628f55a4df523b3ef",
            "0x0000000000000000000000000000000000000000000000000000000000000000",
            "0x000000000000000000000000c77f7fed3b5cc8249adc428c5f44c9063b9734b4"
          ],
          "data": "0x00000000000000000000000000000000000000000000000029856fb253859784",
          "blockHash": "0xe769d91bcd0144ef06a99adb3b362d9bd593d37324d1f50a881a4e3c98d30e5a",
          "blockNumber": "0x7258fd",
          "transactionHash": "0xe31a661742d697e7d4f816b6c34f4228960245d5c1f7a91fd9d450f8cabd0df7",
          "transactionIndex": "0x6c",
          "logIndex": "0xc0",
          "removed": false
        },
        {
          "address": "0xbf4a322f1496e5c3d34a9bcdb4c60567b38c7de2",
          "topics": [
            "0x4afcb4a87cdbd9974efdb92ee48bc8d7cd0ae4bf217004db3d080cbaee652ca7"
          ],
          "data": "0x0000000000000000000000000000000000000000000000000000000067871e08000000000000000000000000000000000000000000000000000390df6c2fcd200000000000000000000000000000000000000000000000000de0b6b3a7640000",
          "blockHash": "0xe769d91bcd0144ef06a99adb3b362d9bd593d37324d1f50a881a4e3c98d30e5a",
          "blockNumber": "0x7258fd",
          "transactionHash": "0xe31a661742d697e7d4f816b6c34f4228960245d5c1f7a91fd9d450f8cabd0df7",
          "transactionIndex": "0x6c",
          "logIndex": "0xc1",
          "removed": false
        }
      ],
      "logsBloom": "0x00000000000000000000000000000000000000000000000000000000000000000000000000000000000000000000000000000000000000004000000000000000000000000000000000000008000000000000001000000000000000000000000000000000020000000000000000000800020000000000000000000010000000000000000000000000000000000000000000000000000008000000010000000000000000000000000000000000000000004000000000000000000000000000000000000002000000800000000000001000000000000000080000000000000020000000000000000000000000000000000000000000000000000000000000000000",
      "type": "0x2",
      "transactionHash": "0xe31a661742d697e7d4f816b6c34f4228960245d5c1f7a91fd9d450f8cabd0df7",
      "transactionIndex": "0x6c",
      "blockHash": "0xe769d91bcd0144ef06a99adb3b362d9bd593d37324d1f50a881a4e3c98d30e5a",
      "blockNumber": "0x7258fd",
      "gasUsed": "0x13af6",
      "effectiveGasPrice": "0x9e5b37b1",
      "from": "0xc77f7fed3b5cc8249adc428c5f44c9063b9734b4",
      "to": "0xbf4a322f1496e5c3d34a9bcdb4c60567b38c7de2",
      "contractAddress": null
    }
  ],
  "libraries": [],
  "pending": [],
  "returns": {},
  "timestamp": 1736908298,
  "chain": 11155111,
  "commit": "51a374b"
}