{
  "transactions": [
    {
      "hash": "0xa76448df804af88f1087a2cabddafd035d6a76d757f0b262db062504ec035ed4",
      "transactionType": "CALL",
      "contractName": null,
      "contractAddress": "0x8aafd3ede9adb0ff97c7aebce82a919afb1c8764",
      "function": "sell(uint256)",
      "arguments": [
        "1470725"
      ],
      "transaction": {
        "from": "0xc77f7fed3b5cc8249adc428c5f44c9063b9734b4",
        "to": "0x8aafd3ede9adb0ff97c7aebce82a919afb1c8764",
        "gas": "0x16208",
        "value": "0x0",
        "input": "0xe4849b320000000000000000000000000000000000000000000000000000000000167105",
        "nonce": "0x10f2",
        "chainId": "0xaa36a7"
      },
      "additionalContracts": [],
      "isFixedGasLimit": false
    }
  ],
  "receipts": [
    {
      "status": "0x1",
      "cumulativeGasUsed": "0xbb28d7",
      "logs": [
        {
          "address": "0x8aafd3ede9adb0ff97c7aebce82a919afb1c8764",
          "topics": [
            "0xddf252ad1be2c89b69c2b068fc378daa952ba7f163c4a11628f55a4df523b3ef",
            "0x000000000000000000000000c77f7fed3b5cc8249adc428c5f44c9063b9734b4",
            "0x0000000000000000000000000000000000000000000000000000000000000000"
          ],
          "data": "0x0000000000000000000000000000000000000000000000000000000000164310",
          "blockHash": "0x18ab3c5442f2217f4f00a85f382838bf149828bc794ffbaf0bc084ac92548284",
          "blockNumber": "0x731799",
          "transactionHash": "0xa76448df804af88f1087a2cabddafd035d6a76d757f0b262db062504ec035ed4",
          "transactionIndex": "0x99",
          "logIndex": "0xbc",
          "removed": false
        },
        {
          "address": "0x8aafd3ede9adb0ff97c7aebce82a919afb1c8764",
          "topics": [
            "0xddf252ad1be2c89b69c2b068fc378daa952ba7f163c4a11628f55a4df523b3ef",
            "0x000000000000000000000000c77f7fed3b5cc8249adc428c5f44c9063b9734b4",
            "0x000000000000000000000000c77f7fed3b5cc8249adc428c5f44c9063b9734b4"
          ],
          "data": "0x0000000000000000000000000000000000000000000000000000000000002df5",
          "blockHash": "0x18ab3c5442f2217f4f00a85f382838bf149828bc794ffbaf0bc084ac92548284",
          "blockNumber": "0x731799",
          "transactionHash": "0xa76448df804af88f1087a2cabddafd035d6a76d757f0b262db062504ec035ed4",
          "transactionIndex": "0x99",
          "logIndex": "0xbd",
          "removed": false
        },
        {
          "address": "0x8aafd3ede9adb0ff97c7aebce82a919afb1c8764",
          "topics": [
            "0x4afcb4a87cdbd9974efdb92ee48bc8d7cd0ae4bf217004db3d080cbaee652ca7"
          ],
          "data": "0x00000000000000000000000000000000000000000000000000000000679017f000000000000000000000000000000000000000000000000000050941056c5e840000000000000000000000000000000000000000000000000000000000000824",
          "blockHash": "0x18ab3c5442f2217f4f00a85f382838bf149828bc794ffbaf0bc084ac92548284",
          "blockNumber": "0x731799",
          "transactionHash": "0xa76448df804af88f1087a2cabddafd035d6a76d757f0b262db062504ec035ed4",
          "transactionIndex": "0x99",
          "logIndex": "0xbe",
          "removed": false
        }
      ],
      "logsBloom": "0x00000000000000000000000000000000000000000600000000000000000000000000000000000000000000000000000000000000000000004000000000000000000000000000004000000008000000000000000000000000000000000000000000000000020000000000000000000800020000000000000000000010000000000000000000000000000000000000000000000000000000000000010000000000000000000000000000000000000000004000000000000000000000000000000000000002000000800000000000000000000000000000080000000000000020000000000000000000000000000000000000000000000000000000000000000000",
      "type": "0x2",
      "transactionHash": "0xa76448df804af88f1087a2cabddafd035d6a76d757f0b262db062504ec035ed4",
      "transactionIndex": "0x99",
      "blockHash": "0x18ab3c5442f2217f4f00a85f382838bf149828bc794ffbaf0bc084ac92548284",
      "blockNumber": "0x731799",
      "gasUsed": "0xf213",
      "effectiveGasPrice": "0x3d8ba176",
      "from": "0xc77f7fed3b5cc8249adc428c5f44c9063b9734b4",
      "to": "0x8aafd3ede9adb0ff97c7aebce82a919afb1c8764",
      "contractAddress": null
    }
  ],
  "libraries": [],
  "pending": [],
  "returns": {},
  "timestamp": 1737496563,
  "chain": 11155111,
  "commit": "1d2fb70"
}