{
  "transactions": [
    {
      "hash": "0xf2a6bb4dcfecc3235e680324d27f88850905717d3ffe5f926abbff385546da42",
      "transactionType": "CALL",
      "contractName": null,
      "contractAddress": "0x8aafd3ede9adb0ff97c7aebce82a919afb1c8764",
      "function": "sell(uint256)",
      "arguments": [
        "741782986411996286524"
      ],
      "transaction": {
        "from": "0xc77f7fed3b5cc8249adc428c5f44c9063b9734b4",
        "to": "0x8aafd3ede9adb0ff97c7aebce82a919afb1c8764",
        "gas": "0x17270",
        "value": "0x0",
        "input": "0xe4849b32000000000000000000000000000000000000000000000028364e9001cb730e3c",
        "nonce": "0xf71",
        "chainId": "0xaa36a7"
      },
      "additionalContracts": [],
      "isFixedGasLimit": false
    }
  ],
  "receipts": [
    {
      "status": "0x1",
      "cumulativeGasUsed": "0x14057cb",
      "logs": [
        {
          "address": "0x8aafd3ede9adb0ff97c7aebce82a919afb1c8764",
          "topics": [
            "0xddf252ad1be2c89b69c2b068fc378daa952ba7f163c4a11628f55a4df523b3ef",
            "0x000000000000000000000000c77f7fed3b5cc8249adc428c5f44c9063b9734b4",
            "0x0000000000000000000000000000000000000000000000000000000000000000"
          ],
          "data": "0x000000000000000000000000000000000000000000000027e3f3d2705f536a48",
          "blockHash": "0x0d05f2cad004289613efa6d57e478fee789530a8d3393573098db2af9c4d0de3",
          "blockNumber": "0x7315d1",
          "transactionHash": "0xf2a6bb4dcfecc3235e680324d27f88850905717d3ffe5f926abbff385546da42",
          "transactionIndex": "0x85",
          "logIndex": "0xe4",
          "removed": false
        },
        {
          "address": "0x8aafd3ede9adb0ff97c7aebce82a919afb1c8764",
          "topics": [
            "0xddf252ad1be2c89b69c2b068fc378daa952ba7f163c4a11628f55a4df523b3ef",
            "0x000000000000000000000000c77f7fed3b5cc8249adc428c5f44c9063b9734b4",
            "0x000000000000000000000000c77f7fed3b5cc8249adc428c5f44c9063b9734b4"
          ],
          "data": "0x000000000000000000000000000000000000000000000000525abd916c1fa3f4",
          "blockHash": "0x0d05f2cad004289613efa6d57e478fee789530a8d3393573098db2af9c4d0de3",
          "blockNumber": "0x7315d1",
          "transactionHash": "0xf2a6bb4dcfecc3235e680324d27f88850905717d3ffe5f926abbff385546da42",
          "transactionIndex": "0x85",
          "logIndex": "0xe5",
          "removed": false
        },
        {
          "address": "0x8aafd3ede9adb0ff97c7aebce82a919afb1c8764",
          "topics": [
            "0x4afcb4a87cdbd9974efdb92ee48bc8d7cd0ae4bf217004db3d080cbaee652ca7"
          ],
          "data": "0x00000000000000000000000000000000000000000000000000000000679002780000000000000000000000000000000000000000000000000004c1d6fbc68ba40000000000000000000000000000000000000000000000000dc821497fba0972",
          "blockHash": "0x0d05f2cad004289613efa6d57e478fee789530a8d3393573098db2af9c4d0de3",
          "blockNumber": "0x7315d1",
          "transactionHash": "0xf2a6bb4dcfecc3235e680324d27f88850905717d3ffe5f926abbff385546da42",
          "transactionIndex": "0x85",
          "logIndex": "0xe6",
          "removed": false
        }
      ],
      "logsBloom": "0x00000000000000000000000000000000000000000600000000000000000000000000000000000000000000000000000000000000000000004000000000000000000000000000004000000008000000000000000000000000000000000000000000000000020000000000000000000800020000000000000000000010000000000000000000000000000000000000000000000000000000000000010000000000000000000000000000000000000000004000000000000000000000000000000000000002000000800000000000000000000000000000080000000000000020000000000000000000000000000000000000000000000000000000000000000000",
      "type": "0x2",
      "transactionHash": "0xf2a6bb4dcfecc3235e680324d27f88850905717d3ffe5f926abbff385546da42",
      "transactionIndex": "0x85",
      "blockHash": "0x0d05f2cad004289613efa6d57e478fee789530a8d3393573098db2af9c4d0de3",
      "blockNumber": "0x7315d1",
      "gasUsed": "0xfd4b",
      "effectiveGasPrice": "0x6ad90bdc",
      "from": "0xc77f7fed3b5cc8249adc428c5f44c9063b9734b4",
      "to": "0x8aafd3ede9adb0ff97c7aebce82a919afb1c8764",
      "contractAddress": null
    }
  ],
  "libraries": [],
  "pending": [],
  "returns": {},
  "timestamp": 1737491065,
  "chain": 11155111,
  "commit": "1d2fb70"
}