{
  "transactions": [
    {
      "hash": "0xe6190b8c825f8515f8a8f84a8fec608c5403648623fce7a658ffcce8ac0f1b49",
      "transactionType": "CALL",
      "contractName": null,
      "contractAddress": "0x270e88f8683660553e8ba4eb2ad7c91a1710d769",
      "function": "sell(uint256)",
      "arguments": [
        "720897833242240836773"
      ],
      "transaction": {
        "from": "0xc77f7fed3b5cc8249adc428c5f44c9063b9734b4",
        "to": "0x270e88f8683660553e8ba4eb2ad7c91a1710d769",
        "gas": "0x16fec",
        "value": "0x0",
        "input": "0xe4849b32000000000000000000000000000000000000000000000027147797da788d64a5",
        "nonce": "0x818",
        "chainId": "0xaa36a7"
      },
      "additionalContracts": [],
      "isFixedGasLimit": false
    }
  ],
  "receipts": [
    {
      "status": "0x1",
      "cumulativeGasUsed": "0x18c1e1e",
      "logs": [
        {
          "address": "0x270e88f8683660553e8ba4eb2ad7c91a1710d769",
          "topics": [
            "0xddf252ad1be2c89b69c2b068fc378daa952ba7f163c4a11628f55a4df523b3ef",
            "0x000000000000000000000000c77f7fed3b5cc8249adc428c5f44c9063b9734b4",
            "0x0000000000000000000000000000000000000000000000000000000000000000"
          ],
          "data": "0x000000000000000000000000000000000000000000000027147797da788d64a5",
          "blockHash": "0xe80f8967299a5e9a475f27a49b6e47cfd10732b73a13672bd6f6a501ba47538e",
          "blockNumber": "0x72555c",
          "transactionHash": "0xe6190b8c825f8515f8a8f84a8fec608c5403648623fce7a658ffcce8ac0f1b49",
          "transactionIndex": "0x94",
          "logIndex": "0xb9",
          "removed": false
        },
        {
          "address": "0x270e88f8683660553e8ba4eb2ad7c91a1710d769",
          "topics": [
            "0x4afcb4a87cdbd9974efdb92ee48bc8d7cd0ae4bf217004db3d080cbaee652ca7"
          ],
          "data": "0x000000000000000000000000000000000000000000000000000000006786f2580000000000000000000000000000000000000000000000000004e5144ed296ab0000000000000000000000000000000000000000000000000dc82685b71467c3",
          "blockHash": "0xe80f8967299a5e9a475f27a49b6e47cfd10732b73a13672bd6f6a501ba47538e",
          "blockNumber": "0x72555c",
          "transactionHash": "0xe6190b8c825f8515f8a8f84a8fec608c5403648623fce7a658ffcce8ac0f1b49",
          "transactionIndex": "0x94",
          "logIndex": "0xba",
          "removed": false
        }
      ],
      "logsBloom": "0x00000000000000000000000000000000000000000000000000000000000000000000000000000000000000000000000020000000000000004000000000000000000000000000000000000008000000000000000000000000000000000000000000000000020000000000000000000800020000000000000000000010000000000000000000010000000000000000000000000000000000000000010000000000000000000000000000000000000000004000000000000000000000000000000000000002000000800000000000000000000000000000080000008000000020000000000000000000000000000000000000000000000000000000000000000000",
      "type": "0x2",
      "transactionHash": "0xe6190b8c825f8515f8a8f84a8fec608c5403648623fce7a658ffcce8ac0f1b49",
      "transactionIndex": "0x94",
      "blockHash": "0xe80f8967299a5e9a475f27a49b6e47cfd10732b73a13672bd6f6a501ba47538e",
      "blockNumber": "0x72555c",
      "gasUsed": "0xfb93",
      "effectiveGasPrice": "0x7e884e4b",
      "from": "0xc77f7fed3b5cc8249adc428c5f44c9063b9734b4",
      "to": "0x270e88f8683660553e8ba4eb2ad7c91a1710d769",
      "contractAddress": null
    }
  ],
  "libraries": [],
  "pending": [],
  "returns": {},
  "timestamp": 1736897114,
  "chain": 11155111,
  "commit": "51a374b"
}