{
  "transactions": [
    {
      "hash": "0xb2e23005c6931828bd4c0713dceafba8dcffa989ccb17ddd567601a2a989dde4",
      "transactionType": "CALL",
      "contractName": null,
      "contractAddress": "0x8aafd3ede9adb0ff97c7aebce82a919afb1c8764",
      "function": "buy(address)",
      "arguments": [
        "0xC77f7fed3b5Cc8249aDc428c5F44C9063B9734b4"
      ],
      "transaction": {
        "from": "0xc77f7fed3b5cc8249adc428c5f44c9063b9734b4",
        "to": "0x8aafd3ede9adb0ff97c7aebce82a919afb1c8764",
        "gas": "0x156ea",
        "value": "0xde0b6b3a7640000",
        "input": "0xf088d547000000000000000000000000c77f7fed3b5cc8249adc428c5f44c9063b9734b4",
        "nonce": "0x1126",
        "chainId": "0xaa36a7"
      },
      "additionalContracts": [],
      "isFixedGasLimit": false
    }
  ],
  "receipts": [
    {
      "status": "0x1",
      "cumulativeGasUsed": "0x853434",
      "logs": [
        {
          "address": "0x8aafd3ede9adb0ff97c7aebce82a919afb1c8764",
          "topics": [
            "0xddf252ad1be2c89b69c2b068fc378daa952ba7f163c4a11628f55a4df523b3ef",
            "0x0000000000000000000000000000000000000000000000000000000000000000",
            "0x000000000000000000000000c77f7fed3b5cc8249adc428c5f44c9063b9734b4"
          ],
          "data": "0x000000000000000000000000000000000000000000000025a5ca5e51517be6ef",
          "blockHash": "0x6cac6dffab6b38d96b3920abf74d328c74bdaa32f78e67e3ae1ef96f9c9ec5f1",
          "blockNumber": "0x7317db",
          "transactionHash": "0xb2e23005c6931828bd4c0713dceafba8dcffa989ccb17ddd567601a2a989dde4",
          "transactionIndex": "0x77",
          "logIndex": "0x7e",
          "removed": false
        },
        {
          "address": "0x8aafd3ede9adb0ff97c7aebce82a919afb1c8764",
          "topics": [
            "0xddf252ad1be2c89b69c2b068fc378daa952ba7f163c4a11628f55a4df523b3ef",
            "0x0000000000000000000000000000000000000000000000000000000000000000",
            "0x000000000000000000000000c77f7fed3b5cc8249adc428c5f44c9063b9734b4"
          ],
          "data": "0x0000000000000000000000000000000000000000000000001d3c12b49abf13bb",
          "blockHash": "0x6cac6dffab6b38d96b3920abf74d328c74bdaa32f78e67e3ae1ef96f9c9ec5f1",
          "blockNumber": "0x7317db",
          "transactionHash": "0xb2e23005c6931828bd4c0713dceafba8dcffa989ccb17ddd567601a2a989dde4",
          "transactionIndex": "0x77",
          "logIndex": "0x7f",
          "removed": false
        },
        {
          "address": "0x8aafd3ede9adb0ff97c7aebce82a919afb1c8764",
          "topics": [
            "0x4afcb4a87cdbd9974efdb92ee48bc8d7cd0ae4bf217004db3d080cbaee652ca7"
          ],
          "data": "0x0000000000000000000000000000000000000000000000000000000067901b08000000000000000000000000000000000000000000000000000510ed27084f920000000000000000000000000000000000000000000000000de0b6b3a7640000",
          "blockHash": "0x6cac6dffab6b38d96b3920abf74d328c74bdaa32f78e67e3ae1ef96f9c9ec5f1",
          "blockNumber": "0x7317db",
          "transactionHash": "0xb2e23005c6931828bd4c0713dceafba8dcffa989ccb17ddd567601a2a989dde4",
          "transactionIndex": "0x77",
          "logIndex": "0x80",
          "removed": false
        }
      ],
      "logsBloom": "0x00000000000000000000000000000000000000000600000000000000000000000000000000000000000000000000000000000000000000004000000000000000000000000000004000000008000000000000000000000000000000000000000000000000020000000000000000000800020000000000000000000010000000000000000000000000000000000000000000000000000000000000010000000000000000000000000000000000000000004000000000000000000000000000000000000002000000800000000000000000000000000000080000000000000020000000000000000000000000000000000000000000000000000000000000000000",
      "type": "0x2",
      "transactionHash": "0xb2e23005c6931828bd4c0713dceafba8dcffa989ccb17ddd567601a2a989dde4",
      "transactionIndex": "0x77",
      "blockHash": "0x6cac6dffab6b38d96b3920abf74d328c74bdaa32f78e67e3ae1ef96f9c9ec5f1",
      "blockNumber": "0x7317db",
      "gasUsed": "0xf844",
      "effectiveGasPrice": "0x44b9d7ce",
      "from": "0xc77f7fed3b5cc8249adc428c5f44c9063b9734b4",
      "to": "0x8aafd3ede9adb0ff97c7aebce82a919afb1c8764",
      "contractAddress": null
    }
  ],
  "libraries": [],
  "pending": [],
  "returns": {},
  "timestamp": 1737497353,
  "chain": 11155111,
  "commit": "1d2fb70"
}