{
  "transactions": [
    {
      "hash": "0x4f1b6c99c9e38bd9c4f29ce4c1b6819cb3a77228e3aa6d2dd910a51d7748ffce",
      "transactionType": "CALL",
      "contractName": null,
      "contractAddress": "0x8aafd3ede9adb0ff97c7aebce82a919afb1c8764",
      "function": "sell(uint256)",
      "arguments": [
        "1239087041271"
      ],
      "transaction": {
        "from": "0xc77f7fed3b5cc8249adc428c5f44c9063b9734b4",
        "to": "0x8aafd3ede9adb0ff97c7aebce82a919afb1c8764",
        "gas": "0x15daa",
        "value": "0x0",
        "input": "0xe4849b32000000000000000000000000000000000000000000000000000001207f57caf7",
        "nonce": "0x132f",
        "chainId": "0xaa36a7"
      },
      "additionalContracts": [],
      "isFixedGasLimit": false
    }
  ],
  "receipts": [
    {
      "status": "0x1",
      "cumulativeGasUsed": "0x9b1964",
      "logs": [
        {
          "address": "0x8aafd3ede9adb0ff97c7aebce82a919afb1c8764",
          "topics": [
            "0xddf252ad1be2c89b69c2b068fc378daa952ba7f163c4a11628f55a4df523b3ef",
            "0x000000000000000000000000c77f7fed3b5cc8249adc428c5f44c9063b9734b4",
            "0x0000000000000000000000000000000000000000000000000000000000000000"
          ],
          "data": "0x0000000000000000000000000000000000000000000000000000011e30800ced",
          "blockHash": "0x054daac4724e1cf0525386bdf8efe05600c90a1ede3ddea81232b420ff3bf006",
          "blockNumber": "0x731a42",
          "transactionHash": "0x4f1b6c99c9e38bd9c4f29ce4c1b6819cb3a77228e3aa6d2dd910a51d7748ffce",
          "transactionIndex": "0x7f",
          "logIndex": "0x9b",
          "removed": false
        },
        {
          "address": "0x8aafd3ede9adb0ff97c7aebce82a919afb1c8764",
          "topics": [
            "0xddf252ad1be2c89b69c2b068fc378daa952ba7f163c4a11628f55a4df523b3ef",
            "0x000000000000000000000000c77f7fed3b5cc8249adc428c5f44c9063b9734b4",
            "0x000000000000000000000000c77f7fed3b5cc8249adc428c5f44c9063b9734b4"
          ],
          "data": "0x000000000000000000000000000000000000000000000000000000024ed7be0a",
          "blockHash": "0x054daac4724e1cf0525386bdf8efe05600c90a1ede3ddea81232b420ff3bf006",
          "blockNumber": "0x731a42",
          "transactionHash": "0x4f1b6c99c9e38bd9c4f29ce4c1b6819cb3a77228e3aa6d2dd910a51d7748ffce",
          "transactionIndex": "0x7f",
          "logIndex": "0x9c",
          "removed": false
        },
        {
          "address": "0x8aafd3ede9adb0ff97c7aebce82a919afb1c8764",
          "topics": [
            "0x4afcb4a87cdbd9974efdb92ee48bc8d7cd0ae4bf217004db3d080cbaee652ca7"
          ],
          "data": "0x00000000000000000000000000000000000000000000000000000000679037e8000000000000000000000000000000000000000000000000000bc367e28fed6700000000000000000000000000000000000000000000000000000000f48a66c8",
          "blockHash": "0x054daac4724e1cf0525386bdf8efe05600c90a1ede3ddea81232b420ff3bf006",
          "blockNumber": "0x731a42",
          "transactionHash": "0x4f1b6c99c9e38bd9c4f29ce4c1b6819cb3a77228e3aa6d2dd910a51d7748ffce",
          "transactionIndex": "0x7f",
          "logIndex": "0x9d",
          "removed": false
        }
      ],
      "logsBloom": "0x00000000000000000000000000000000000000000600000000000000000000000000000000000000000000000000000000000000000000004000000000000000000000000000004000000008000000000000000000000000000000000000000000000000020000000000000000000800020000000000000000000010000000000000000000000000000000000000000000000000000000000000010000000000000000000000000000000000000000004000000000000000000000000000000000000002000000800000000000000000000000000000080000000000000020000000000000000000000000000000000000000000000000000000000000000000",
      "type": "0x2",
      "transactionHash": "0x4f1b6c99c9e38bd9c4f29ce4c1b6819cb3a77228e3aa6d2dd910a51d7748ffce",
      "transactionIndex": "0x7f",
      "blockHash": "0x054daac4724e1cf0525386bdf8efe05600c90a1ede3ddea81232b420ff3bf006",
      "blockNumber": "0x731a42",
      "gasUsed": "0xfd27",
      "effectiveGasPrice": "0x457b3c3d",
      "from": "0xc77f7fed3b5cc8249adc428c5f44c9063b9734b4",
      "to": "0x8aafd3ede9adb0ff97c7aebce82a919afb1c8764",
      "contractAddress": null
    }
  ],
  "libraries": [],
  "pending": [],
  "returns": {},
  "timestamp": 1737504746,
  "chain": 11155111,
  "commit": "1d2fb70"
}