{
  "transactions": [
    {
      "hash": "0x126f5deea452a9fe1081876c99666405319aed92e8052f84c036f3cd89fbbeb3",
      "transactionType": "CALL",
      "contractName": null,
      "contractAddress": "0xbf4a322f1496e5c3d34a9bcdb4c60567b38c7de2",
      "function": "buy(address)",
      "arguments": [
        "0xC77f7fed3b5Cc8249aDc428c5F44C9063B9734b4"
      ],
      "transaction": {
        "from": "0xc77f7fed3b5cc8249adc428c5f44c9063b9734b4",
        "to": "0xbf4a322f1496e5c3d34a9bcdb4c60567b38c7de2",
        "gas": "0x1b309",
        "value": "0xde0b6b3a7640000",
        "input": "0xf088d547000000000000000000000000c77f7fed3b5cc8249adc428c5f44c9063b9734b4",
        "nonce": "0xdd6",
        "chainId": "0xaa36a7"
      },
      "additionalContracts": [],
      "isFixedGasLimit": false
    }
  ],
  "receipts": [
    {
      "status": "0x1",
      "cumulativeGasUsed": "0x15fe656",
      "logs": [
        {
          "address": "0xbf4a322f1496e5c3d34a9bcdb4c60567b38c7de2",
          "topics": [
            "0xddf252ad1be2c89b69c2b068fc378daa952ba7f163c4a11628f55a4df523b3ef",
            "0x0000000000000000000000000000000000000000000000000000000000000000",
            "0x000000000000000000000000c77f7fed3b5cc8249adc428c5f44c9063b9734b4"
          ],
          "data": "0x000000000000000000000000000000000000000000000034a48f6957e20e920c",
          "blockHash": "0x09869c4174f0991ff53338fedce9bc263ef1dd3c354e3f0fb7d3b60029f57384",
          "blockNumber": "0x7266b4",
          "transactionHash": "0x126f5deea452a9fe1081876c99666405319aed92e8052f84c036f3cd89fbbeb3",
          "transactionIndex": "0x55",
          "logIndex": "0x81",
          "removed": false
        },
        {
          "address": "0xbf4a322f1496e5c3d34a9bcdb4c60567b38c7de2",
          "topics": [
            "0xddf252ad1be2c89b69c2b068fc378daa952ba7f163c4a11628f55a4df523b3ef",
            "0x0000000000000000000000000000000000000000000000000000000000000000",
            "0x000000000000000000000000c77f7fed3b5cc8249adc428c5f44c9063b9734b4"
          ],
          "data": "0x00000000000000000000000000000000000000000000000028e10238d8485ae4",
          "blockHash": "0x09869c4174f0991ff53338fedce9bc263ef1dd3c354e3f0fb7d3b60029f57384",
          "blockNumber": "0x7266b4",
          "transactionHash": "0x126f5deea452a9fe1081876c99666405319aed92e8052f84c036f3cd89fbbeb3",
          "transactionIndex": "0x55",
          "logIndex": "0x82",
          "removed": false
        },
        {
          "address": "0xbf4a322f1496e5c3d34a9bcdb4c60567b38c7de2",
          "topics": [
            "0x4afcb4a87cdbd9974efdb92ee48bc8d7cd0ae4bf217004db3d080cbaee652ca7"
          ],
          "data": "0x000000000000000000000000000000000000000000000000000000006787c37400000000000000000000000000000000000000000000000000039f373d7fc2590000000000000000000000000000000000000000000000000de0b6b3a7640000",
          "blockHash": "0x09869c4174f0991ff53338fedce9bc263ef1dd3c354e3f0fb7d3b60029f57384",
          "blockNumber": "0x7266b4",
          "transactionHash": "0x126f5deea452a9fe1081876c99666405319aed92e8052f84c036f3cd89fbbeb3",
          "transactionIndex": "0x55",
          "logIndex": "0x83",
          "removed": false
        }
      ],
      "logsBloom": "0x00000000000000000000000000000000000000000000000000000000000000000000000000000000000000000000000000000000000000004000000000000000000000000000000000000008000000000000001000000000000000000000000000000000020000000000000000000800020000000000000000000010000000000000000000000000000000000000000000000000000008000000010000000000000000000000000000000000000000004000000000000000000000000000000000000002000000800000000000001000000000000000080000000000000020000000000000000000000000000000000000000000000000000000000000000000",
      "type": "0x2",
      "transactionHash": "0x126f5deea452a9fe1081876c99666405319aed92e8052f84c036f3cd89fbbeb3",
      "transactionIndex": "0x55",
      "blockHash": "0x09869c4174f0991ff53338fedce9bc263ef1dd3c354e3f0fb7d3b60029f57384",
      "blockNumber": "0x7266b4",
      "gasUsed": "0x13af6",
      "effectiveGasPrice": "0x1cc72f3ef",
      "from": "0xc77f7fed3b5cc8249adc428c5f44c9063b9734b4",
      "to": "0xbf4a322f1496e5c3d34a9bcdb4c60567b38c7de2",
      "contractAddress": null
    }
  ],
  "libraries": [],
  "pending": [],
  "returns": {},
  "timestamp": 1736950645,
  "chain": 11155111,
  "commit": "51a374b"
}