{
  "transactions": [
    {
      "hash": "0x123b6ae74fa797b528e214c6a578071caecd3fbee1d4f1d9c2d1d4d4054907ee",
      "transactionType": "CALL",
      "contractName": null,
      "contractAddress": "0x5eb9cc76c3506942c1c0ead70e877dd5e4f00cb0",
      "function": "buy(address)",
      "arguments": [
        "0xC77f7fed3b5Cc8249aDc428c5F44C9063B9734b4"
      ],
      "transaction": {
        "from": "0xc77f7fed3b5cc8249adc428c5f44c9063b9734b4",
        "to": "0x5eb9cc76c3506942c1c0ead70e877dd5e4f00cb0",
        "gas": "0x156c8",
        "value": "0xde0b6b3a7640000",
        "input": "0xf088d547000000000000000000000000c77f7fed3b5cc8249adc428c5f44c9063b9734b4",
        "nonce": "0x1d3",
        "chainId": "0xaa36a7"
      },
      "additionalContracts": [],
      "isFixedGasLimit": false
    }
  ],
  "receipts": [
    {
      "status": "0x1",
      "cumulativeGasUsed": "0x12e9b5e",
      "logs": [
        {
          "address": "0x5eb9cc76c3506942c1c0ead70e877dd5e4f00cb0",
          "topics": [
            "0xddf252ad1be2c89b69c2b068fc378daa952ba7f163c4a11628f55a4df523b3ef",
            "0x0000000000000000000000000000000000000000000000000000000000000000",
            "0x000000000000000000000000c77f7fed3b5cc8249adc428c5f44c9063b9734b4"
          ],
          "data": "0x000000000000000000000000000000000000000000000035a36444935b775022",
          "blockHash": "0xa32ed2cf8f6bda5642c4e135c6b3157f634b1b5534d38fb27f7e0cc90e222428",
          "blockNumber": "0x723cc3",
          "transactionHash": "0x123b6ae74fa797b528e214c6a578071caecd3fbee1d4f1d9c2d1d4d4054907ee",
          "transactionIndex": "0xa9",
          "logIndex": "0x10b",
          "removed": false
        },
        {
          "address": "0x5eb9cc76c3506942c1c0ead70e877dd5e4f00cb0",
          "topics": [
            "0xddf252ad1be2c89b69c2b068fc378daa952ba7f163c4a11628f55a4df523b3ef",
            "0x0000000000000000000000000000000000000000000000000000000000000000",
            "0x000000000000000000000000c77f7fed3b5cc8249adc428c5f44c9063b9734b4"
          ],
          "data": "0x00000000000000000000000000000000000000000000000029a6e4ddc25b4b47",
          "blockHash": "0xa32ed2cf8f6bda5642c4e135c6b3157f634b1b5534d38fb27f7e0cc90e222428",
          "blockNumber": "0x723cc3",
          "transactionHash": "0x123b6ae74fa797b528e214c6a578071caecd3fbee1d4f1d9c2d1d4d4054907ee",
          "transactionIndex": "0xa9",
          "logIndex": "0x10c",
          "removed": false
        },
        {
          "address": "0x5eb9cc76c3506942c1c0ead70e877dd5e4f00cb0",
          "topics": [
            "0x4afcb4a87cdbd9974efdb92ee48bc8d7cd0ae4bf217004db3d080cbaee652ca7"
          ],
          "data": "0x000000000000000000000000000000000000000000000000000000006785ca7800000000000000000000000000000000000000000000000000038dffd8bb200c0000000000000000000000000000000000000000000000000de0b6b3a7640000",
          "blockHash": "0xa32ed2cf8f6bda5642c4e135c6b3157f634b1b5534d38fb27f7e0cc90e222428",
          "blockNumber": "0x723cc3",
          "transactionHash": "0x123b6ae74fa797b528e214c6a578071caecd3fbee1d4f1d9c2d1d4d4054907ee",
          "transactionIndex": "0xa9",
          "logIndex": "0x10d",
          "removed": false
        }
      ],
      "logsBloom": "0x00000000000000000000000000000000000000000000000000000000000000000000000000000000000000000000000000000000000000004000000000000000000000000000000000000008000000000000000000000000000000000000000000000000020000000000000004000800020000000000000000000010000000000000000000000000000000000000000000000000000000000000010000000000000000000000000000000000000000004000000000000000000000000000020000000002000000800000008000000000000000000000080000000000000020000000000000000000000000000000000000000000000000000000000000000000",
      "type": "0x2",
      "transactionHash": "0x123b6ae74fa797b528e214c6a578071caecd3fbee1d4f1d9c2d1d4d4054907ee",
      "transactionIndex": "0xa9",
      "blockHash": "0xa32ed2cf8f6bda5642c4e135c6b3157f634b1b5534d38fb27f7e0cc90e222428",
      "blockNumber": "0x723cc3",
      "gasUsed": "0xf82c",
      "effectiveGasPrice": "0x1d19b7265",
      "from": "0xc77f7fed3b5cc8249adc428c5f44c9063b9734b4",
      "to": "0x5eb9cc76c3506942c1c0ead70e877dd5e4f00cb0",
      "contractAddress": null
    }
  ],
  "libraries": [],
  "pending": [],
  "returns": {},
  "timestamp": 1736821368,
  "chain": 11155111,
  "commit": "51a374b"
}