{
  "transactions": [
    {
      "hash": "0x457c7713132bb9310715fbecd0e07fec9b513bdf453ddb6b5882fbfbb76a9000",
      "transactionType": "CALL",
      "contractName": null,
      "contractAddress": "0x8aafd3ede9adb0ff97c7aebce82a919afb1c8764",
      "function": "buy(address)",
      "arguments": [
        "0xC77f7fed3b5Cc8249aDc428c5F44C9063B9734b4"
      ],
      "transaction": {
        "from": "0xc77f7fed3b5cc8249adc428c5f44c9063b9734b4",
        "to": "0x8aafd3ede9adb0ff97c7aebce82a919afb1c8764",
        "gas": "0x156ea",
        "value": "0xde0b6b3a7640000",
        "input": "0xf088d547000000000000000000000000c77f7fed3b5cc8249adc428c5f44c9063b9734b4",
        "nonce": "0x102c",
        "chainId": "0xaa36a7"
      },
      "additionalContracts": [],
      "isFixedGasLimit": false
    }
  ],
  "receipts": [
    {
      "status": "0x1",
      "cumulativeGasUsed": "0x14c4fd4",
      "logs": [
        {
          "address": "0x8aafd3ede9adb0ff97c7aebce82a919afb1c8764",
          "topics": [
            "0xddf252ad1be2c89b69c2b068fc378daa952ba7f163c4a11628f55a4df523b3ef",
            "0x0000000000000000000000000000000000000000000000000000000000000000",
            "0x000000000000000000000000c77f7fed3b5cc8249adc428c5f44c9063b9734b4"
          ],
          "data": "0x000000000000000000000000000000000000000000000026bb783a66c027522f",
          "blockHash": "0x3f18b40f0ebbe30e6ff060887c7cd934ee9b0d41dcd5359cf467734b6fdd48c0",
          "blockNumber": "0x7316a7",
          "transactionHash": "0x457c7713132bb9310715fbecd0e07fec9b513bdf453ddb6b5882fbfbb76a9000",
          "transactionIndex": "0xc1",
          "logIndex": "0x10c",
          "removed": false
        },
        {
          "address": "0x8aafd3ede9adb0ff97c7aebce82a919afb1c8764",
          "topics": [
            "0xddf252ad1be2c89b69c2b068fc378daa952ba7f163c4a11628f55a4df523b3ef",
            "0x0000000000000000000000000000000000000000000000000000000000000000",
            "0x000000000000000000000000c77f7fed3b5cc8249adc428c5f44c9063b9734b4"
          ],
          "data": "0x0000000000000000000000000000000000000000000000001e13b34cdec3ca53",
          "blockHash": "0x3f18b40f0ebbe30e6ff060887c7cd934ee9b0d41dcd5359cf467734b6fdd48c0",
          "blockNumber": "0x7316a7",
          "transactionHash": "0x457c7713132bb9310715fbecd0e07fec9b513bdf453ddb6b5882fbfbb76a9000",
          "transactionIndex": "0xc1",
          "logIndex": "0x10d",
          "removed": false
        },
        {
          "address": "0x8aafd3ede9adb0ff97c7aebce82a919afb1c8764",
          "topics": [
            "0x4afcb4a87cdbd9974efdb92ee48bc8d7cd0ae4bf217004db3d080cbaee652ca7"
          ],
          "data": "0x0000000000000000000000000000000000000000000000000000000067900c800000000000000000000000000000000000000000000000000004ec9e0bb473c60000000000000000000000000000000000000000000000000de0b6b3a7640000",
          "blockHash": "0x3f18b40f0ebbe30e6ff060887c7cd934ee9b0d41dcd5359cf467734b6fdd48c0",
          "blockNumber": "0x7316a7",
          "transactionHash": "0x457c7713132bb9310715fbecd0e07fec9b513bdf453ddb6b5882fbfbb76a9000",
          "transactionIndex": "0xc1",
          "logIndex": "0x10e",
          "removed": false
        }
      ],
      "logsBloom": "0x00000000000000000000000000000000000000000600000000000000000000000000000000000000000000000000000000000000000000004000000000000000000000000000004000000008000000000000000000000000000000000000000000000000020000000000000000000800020000000000000000000010000000000000000000000000000000000000000000000000000000000000010000000000000000000000000000000000000000004000000000000000000000000000000000000002000000800000000000000000000000000000080000000000000020000000000000000000000000000000000000000000000000000000000000000000",
      "type": "0x2",
      "transactionHash": "0x457c7713132bb9310715fbecd0e07fec9b513bdf453ddb6b5882fbfbb76a9000",
      "transactionIndex": "0xc1",
      "blockHash": "0x3f18b40f0ebbe30e6ff060887c7cd934ee9b0d41dcd5359cf467734b6fdd48c0",
      "blockNumber": "0x7316a7",
      "gasUsed": "0xf844",
      "effectiveGasPrice": "0x3d9693ed",
      "from": "0xc77f7fed3b5cc8249adc428c5f44c9063b9734b4",
      "to": "0x8aafd3ede9adb0ff97c7aebce82a919afb1c8764",
      "contractAddress": null
    }
  ],
  "libraries": [],
  "pending": [],
  "returns": {},
  "timestamp": 1737493633,
  "chain": 11155111,
  "commit": "1d2fb70"
}