{
  "transactions": [
    {
      "hash": "0x073dbeec070bf6f317aa57535d5783347900806207a79343f3683f6610513823",
      "transactionType": "CALL",
      "contractName": null,
      "contractAddress": "0x8aafd3ede9adb0ff97c7aebce82a919afb1c8764",
      "function": "sell(uint256)",
      "arguments": [
        "1039178509635"
      ],
      "transaction": {
        "from": "0xc77f7fed3b5cc8249adc428c5f44c9063b9734b4",
        "to": "0x8aafd3ede9adb0ff97c7aebce82a919afb1c8764",
        "gas": "0x1722a",
        "value": "0x0",
        "input": "0xe4849b32000000000000000000000000000000000000000000000000000000f1f3ddad43",
        "nonce": "0x13f5",
        "chainId": "0xaa36a7"
      },
      "additionalContracts": [],
      "isFixedGasLimit": false
    }
  ],
  "receipts": [
    {
      "status": "0x1",
      "cumulativeGasUsed": "0x19e7836",
      "logs": [
        {
          "address": "0x8aafd3ede9adb0ff97c7aebce82a919afb1c8764",
          "topics": [
            "0xddf252ad1be2c89b69c2b068fc378daa952ba7f163c4a11628f55a4df523b3ef",
            "0x000000000000000000000000c77f7fed3b5cc8249adc428c5f44c9063b9734b4",
            "0x0000000000000000000000000000000000000000000000000000000000000000"
          ],
          "data": "0x000000000000000000000000000000000000000000000000000000f00458d4d6",
          "blockHash": "0x3d1dae809952ecd097a867316e7a39f2af672a20d332d611817a171d36e21faa",
          "blockNumber": "0x731b28",
          "transactionHash": "0x073dbeec070bf6f317aa57535d5783347900806207a79343f3683f6610513823",
          "transactionIndex": "0xcf",
          "logIndex": "0x11f",
          "removed": false
        },
        {
          "address": "0x8aafd3ede9adb0ff97c7aebce82a919afb1c8764",
          "topics": [
            "0xddf252ad1be2c89b69c2b068fc378daa952ba7f163c4a11628f55a4df523b3ef",
            "0x000000000000000000000000c77f7fed3b5cc8249adc428c5f44c9063b9734b4",
            "0x000000000000000000000000c77f7fed3b5cc8249adc428c5f44c9063b9734b4"
          ],
          "data": "0x00000000000000000000000000000000000000000000000000000001ef84d86d",
          "blockHash": "0x3d1dae809952ecd097a867316e7a39f2af672a20d332d611817a171d36e21faa",
          "blockNumber": "0x731b28",
          "transactionHash": "0x073dbeec070bf6f317aa57535d5783347900806207a79343f3683f6610513823",
          "transactionIndex": "0xcf",
          "logIndex": "0x120",
          "removed": false
        },
        {
          "address": "0x8aafd3ede9adb0ff97c7aebce82a919afb1c8764",
          "topics": [
            "0x4afcb4a87cdbd9974efdb92ee48bc8d7cd0ae4bf217004db3d080cbaee652ca7"
          ],
          "data": "0x00000000000000000000000000000000000000000000000000000000679042b0000000000000000000000000000000000000000000000000000e0201f997dc3e00000000000000000000000000000000000000000000000000000000f43854df",
          "blockHash": "0x3d1dae809952ecd097a867316e7a39f2af672a20d332d611817a171d36e21faa",
          "blockNumber": "0x731b28",
          "transactionHash": "0x073dbeec070bf6f317aa57535d5783347900806207a79343f3683f6610513823",
          "transactionIndex": "0xcf",
          "logIndex": "0x121",
          "removed": false
        }
      ],
      "logsBloom": "0x00000000000000000000000000000000000000000600000000000000000000000000000000000000000000000000000000000000000000004000000000000000000000000000004000000008000000000000000000000000000000000000000000000000020000000000000000000800020000000000000000000010000000000000000000000000000000000000000000000000000000000000010000000000000000000000000000000000000000004000000000000000000000000000000000000002000000800000000000000000000000000000080000000000000020000000000000000000000000000000000000000000000000000000000000000000",
      "type": "0x2",
      "transactionHash": "0x073dbeec070bf6f317aa57535d5783347900806207a79343f3683f6610513823",
      "transactionIndex": "0xcf",
      "blockHash": "0x3d1dae809952ecd097a867316e7a39f2af672a20d332d611817a171d36e21faa",
      "blockNumber": "0x731b28",
      "gasUsed": "0xfd1b",
      "effectiveGasPrice": "0x9a9d4734",
      "from": "0xc77f7fed3b5cc8249adc428c5f44c9063b9734b4",
      "to": "0x8aafd3ede9adb0ff97c7aebce82a919afb1c8764",
      "contractAddress": null
    }
  ],
  "libraries": [],
  "pending": [],
  "returns": {},
  "timestamp": 1737507505,
  "chain": 11155111,
  "commit": "1d2fb70"
}