{
  "transactions": [
    {
      "hash": "0x959e09c73a35765b7d0b31acacaba60433d3cb1b5a484663be7c7997730f98ba",
      "transactionType": "CALL",
      "contractName": null,
      "contractAddress": "0x5eb9cc76c3506942c1c0ead70e877dd5e4f00cb0",
      "function": "sell(uint256)",
      "arguments": [
        "989124540100914260076"
      ],
      "transaction": {
        "from": "0xc77f7fed3b5cc8249adc428c5f44c9063b9734b4",
        "to": "0x5eb9cc76c3506942c1c0ead70e877dd5e4f00cb0",
        "gas": "0x16fec",
        "value": "0x0",
        "input": "0xe4849b320000000000000000000000000000000000000000000000359edc489d889d286c",
        "nonce": "0x367",
        "chainId": "0xaa36a7"
      },
      "additionalContracts": [],
      "isFixedGasLimit": false
    }
  ],
  "receipts": [
    {
      "status": "0x1",
      "cumulativeGasUsed": "0xa72b81",
      "logs": [
        {
          "address": "0x5eb9cc76c3506942c1c0ead70e877dd5e4f00cb0",
          "topics": [
            "0xddf252ad1be2c89b69c2b068fc378daa952ba7f163c4a11628f55a4df523b3ef",
            "0x000000000000000000000000c77f7fed3b5cc8249adc428c5f44c9063b9734b4",
            "0x0000000000000000000000000000000000000000000000000000000000000000"
          ],
          "data": "0x0000000000000000000000000000000000000000000000359edc489d889d286c",
          "blockHash": "0x119eb04ece3e1dcb4fb50dda7913835e13dc3a77f9714cde27cae68af33e1d41",
          "blockNumber": "0x724f5d",
          "transactionHash": "0x959e09c73a35765b7d0b31acacaba60433d3cb1b5a484663be7c7997730f98ba",
          "transactionIndex": "0x5a",
          "logIndex": "0x6c",
          "removed": false
        },
        {
          "address": "0x5eb9cc76c3506942c1c0ead70e877dd5e4f00cb0",
          "topics": [
            "0x4afcb4a87cdbd9974efdb92ee48bc8d7cd0ae4bf217004db3d080cbaee652ca7"
          ],
          "data": "0x000000000000000000000000000000000000000000000000000000006786aa100000000000000000000000000000000000000000000000000003910fac3b3a040000000000000000000000000000000000000000000000000dc7db1332131d3c",
          "blockHash": "0x119eb04ece3e1dcb4fb50dda7913835e13dc3a77f9714cde27cae68af33e1d41",
          "blockNumber": "0x724f5d",
          "transactionHash": "0x959e09c73a35765b7d0b31acacaba60433d3cb1b5a484663be7c7997730f98ba",
          "transactionIndex": "0x5a",
          "logIndex": "0x6d",
          "removed": false
        }
      ],
      "logsBloom": "0x00000000000000000000000000000000000000000000000000000000000000000000000000000000000000000000000000000000000000004000000000000000000000000000000000000008000000000000000000000000000000000000000000000000020000000000000004000800020000000000000000000010000000000000000000000000000000000000000000000000000000000000010000000000000000000000000000000000000000004000000000000000000000000000020000000002000000800000008000000000000000000000080000000000000020000000000000000000000000000000000000000000000000000000000000000000",
      "type": "0x2",
      "transactionHash": "0x959e09c73a35765b7d0b31acacaba60433d3cb1b5a484663be7c7997730f98ba",
      "transactionIndex": "0x5a",
      "blockHash": "0x119eb04ece3e1dcb4fb50dda7913835e13dc3a77f9714cde27cae68af33e1d41",
      "blockNumber": "0x724f5d",
      "gasUsed": "0xfb93",
      "effectiveGasPrice": "0x5968919ab",
      "from": "0xc77f7fed3b5cc8249adc428c5f44c9063b9734b4",
      "to": "0x5eb9cc76c3506942c1c0ead70e877dd5e4f00cb0",
      "contractAddress": null
    }
  ],
  "libraries": [],
  "pending": [],
  "returns": {},
  "timestamp": 1736878609,
  "chain": 11155111,
  "commit": "51a374b"
}