{
  "transactions": [
    {
      "hash": "0xc5dd862c6e52f7f2bb6f1524cee8fa7198d30dc8756e5f4e868c8c64d9a30961",
      "transactionType": "CALL",
      "contractName": null,
      "contractAddress": "0x8aafd3ede9adb0ff97c7aebce82a919afb1c8764",
      "function": "sell(uint256)",
      "arguments": [
        "1479066"
      ],
      "transaction": {
        "from": "0xc77f7fed3b5cc8249adc428c5f44c9063b9734b4",
        "to": "0x8aafd3ede9adb0ff97c7aebce82a919afb1c8764",
        "gas": "0x16208",
        "value": "0x0",
        "input": "0xe4849b32000000000000000000000000000000000000000000000000000000000016919a",
        "nonce": "0x10c0",
        "chainId": "0xaa36a7"
      },
      "additionalContracts": [],
      "isFixedGasLimit": false
    }
  ],
  "receipts": [
    {
      "status": "0x1",
      "cumulativeGasUsed": "0xdaeb08",
      "logs": [
        {
          "address": "0x8aafd3ede9adb0ff97c7aebce82a919afb1c8764",
          "topics": [
            "0xddf252ad1be2c89b69c2b068fc378daa952ba7f163c4a11628f55a4df523b3ef",
            "0x000000000000000000000000c77f7fed3b5cc8249adc428c5f44c9063b9734b4",
            "0x0000000000000000000000000000000000000000000000000000000000000000"
          ],
          "data": "0x0000000000000000000000000000000000000000000000000000000000166362",
          "blockHash": "0x6f09f06df272a2d8e4e6438351972be5737f7e1b5d4c22fb6e7aee96551a2ec4",
          "blockNumber": "0x731758",
          "transactionHash": "0xc5dd862c6e52f7f2bb6f1524cee8fa7198d30dc8756e5f4e868c8c64d9a30961",
          "transactionIndex": "0x85",
          "logIndex": "0x9f",
          "removed": false
        },
        {
          "address": "0x8aafd3ede9adb0ff97c7aebce82a919afb1c8764",
          "topics": [
            "0xddf252ad1be2c89b69c2b068fc378daa952ba7f163c4a11628f55a4df523b3ef",
            "0x000000000000000000000000c77f7fed3b5cc8249adc428c5f44c9063b9734b4",
            "0x000000000000000000000000c77f7fed3b5cc8249adc428c5f44c9063b9734b4"
          ],
          "data": "0x0000000000000000000000000000000000000000000000000000000000002e38",
          "blockHash": "0x6f09f06df272a2d8e4e6438351972be5737f7e1b5d4c22fb6e7aee96551a2ec4",
          "blockNumber": "0x731758",
          "transactionHash": "0xc5dd862c6e52f7f2bb6f1524cee8fa7198d30dc8756e5f4e868c8c64d9a30961",
          "transactionIndex": "0x85",
          "logIndex": "0xa0",
          "removed": false
        },
        {
          "address": "0x8aafd3ede9adb0ff97c7aebce82a919afb1c8764",
          "topics": [
            "0x4afcb4a87cdbd9974efdb92ee48bc8d7cd0ae4bf217004db3d080cbaee652ca7"
          ],
          "data": "0x00000000000000000000000000000000000000000000000000000000679014e4000000000000000000000000000000000000000000000000000501fde3e688050000000000000000000000000000000000000000000000000000000000000824",
          "blockHash": "0x6f09f06df272a2d8e4e6438351972be5737f7e1b5d4c22fb6e7aee96551a2ec4",
          "blockNumber": "0x731758",
          "transactionHash": "0xc5dd862c6e52f7f2bb6f1524cee8fa7198d30dc8756e5f4e868c8c64d9a30961",
          "transactionIndex": "0x85",
          "logIndex": "0xa1",
          "removed": false
        }
      ],
      "logsBloom": "0x00000000000000000000000000000000000000000600000000000000000000000000000000000000000000000000000000000000000000004000000000000000000000000000004000000008000000000000000000000000000000000000000000000000020000000000000000000800020000000000000000000010000000000000000000000000000000000000000000000000000000000000010000000000000000000000000000000000000000004000000000000000000000000000000000000002000000800000000000000000000000000000080000000000000020000000000000000000000000000000000000000000000000000000000000000000",
      "type": "0x2",
      "transactionHash": "0xc5dd862c6e52f7f2bb6f1524cee8fa7198d30dc8756e5f4e868c8c64d9a30961",
      "transactionIndex": "0x85",
      "blockHash": "0x6f09f06df272a2d8e4e6438351972be5737f7e1b5d4c22fb6e7aee96551a2ec4",
      "blockNumber": "0x731758",
      "gasUsed": "0xf213",
      "effectiveGasPrice": "0x3c918f33",
      "from": "0xc77f7fed3b5cc8249adc428c5f44c9063b9734b4",
      "to": "0x8aafd3ede9adb0ff97c7aebce82a919afb1c8764",
      "contractAddress": null
    }
  ],
  "libraries": [],
  "pending": [],
  "returns": {},
  "timestamp": 1737495781,
  "chain": 11155111,
  "commit": "1d2fb70"
}