{
  "transactions": [
    {
      "hash": "0xb58d76c193d2bdba8c2e52e1c38b6739669e738462220f8e647997312d6757ba",
      "transactionType": "CALL",
      "contractName": null,
      "contractAddress": "0xbf4a322f1496e5c3d34a9bcdb4c60567b38c7de2",
      "function": "sell(uint256)",
      "arguments": [
        "991257716679035948525"
      ],
      "transaction": {
        "from": "0xc77f7fed3b5cc8249adc428c5f44c9063b9734b4",
        "to": "0xbf4a322f1496e5c3d34a9bcdb4c60567b38c7de2",
        "gas": "0x16fea",
        "value": "0x0",
        "input": "0xe4849b32000000000000000000000000000000000000000000000035bc76d9693ebd8ded",
        "nonce": "0x8db",
        "chainId": "0xaa36a7"
      },
      "additionalContracts": [],
      "isFixedGasLimit": false
    }
  ],
  "receipts": [
    {
      "status": "0x1",
      "cumulativeGasUsed": "0x9391fb",
      "logs": [
        {
          "address": "0xbf4a322f1496e5c3d34a9bcdb4c60567b38c7de2",
          "topics": [
            "0xddf252ad1be2c89b69c2b068fc378daa952ba7f163c4a11628f55a4df523b3ef",
            "0x000000000000000000000000c77f7fed3b5cc8249adc428c5f44c9063b9734b4",
            "0x0000000000000000000000000000000000000000000000000000000000000000"
          ],
          "data": "0x000000000000000000000000000000000000000000000035bc76d9693ebd8ded",
          "blockHash": "0xda412dce4cd18becb0ea52c40ca7681831e72fdec4157af9b47dfd1072a794fc",
          "blockNumber": "0x72584e",
          "transactionHash": "0xb58d76c193d2bdba8c2e52e1c38b6739669e738462220f8e647997312d6757ba",
          "transactionIndex": "0x44",
          "logIndex": "0x5d",
          "removed": false
        },
        {
          "address": "0xbf4a322f1496e5c3d34a9bcdb4c60567b38c7de2",
          "topics": [
            "0x4afcb4a87cdbd9974efdb92ee48bc8d7cd0ae4bf217004db3d080cbaee652ca7"
          ],
          "data": "0x00000000000000000000000000000000000000000000000000000000678715c800000000000000000000000000000000000000000000000000038f1f0c4c4cce0000000000000000000000000000000000000000000000000dc7e3fc3d8dfc3d",
          "blockHash": "0xda412dce4cd18becb0ea52c40ca7681831e72fdec4157af9b47dfd1072a794fc",
          "blockNumber": "0x72584e",
          "transactionHash": "0xb58d76c193d2bdba8c2e52e1c38b6739669e738462220f8e647997312d6757ba",
          "transactionIndex": "0x44",
          "logIndex": "0x5e",
          "removed": false
        }
      ],
      "logsBloom": "0x00000000000000000000000000000000000000000000000000000000000000000000000000000000000000000000000000000000000000004000000000000000000000000000000000000008000000000000001000000000000000000000000000000000020000000000000000000800020000000000000000000010000000000000000000000000000000000000000000000000000008000000010000000000000000000000000000000000000000004000000000000000000000000000000000000002000000800000000000001000000000000000080000000000000020000000000000000000000000000000000000000000000000000000000000000000",
      "type": "0x2",
      "transactionHash": "0xb58d76c193d2bdba8c2e52e1c38b6739669e738462220f8e647997312d6757ba",
      "transactionIndex": "0x44",
      "blockHash": "0xda412dce4cd18becb0ea52c40ca7681831e72fdec4157af9b47dfd1072a794fc",
      "blockNumber": "0x72584e",
      "gasUsed": "0xfb91",
      "effectiveGasPrice": "0x20e0af0f",
      "from": "0xc77f7fed3b5cc8249adc428c5f44c9063b9734b4",
      "to": "0xbf4a322f1496e5c3d34a9bcdb4c60567b38c7de2",
      "contractAddress": null
    }
  ],
  "libraries": [],
  "pending": [],
  "returns": {},
  "timestamp": 1736906186,
  "chain": 11155111,
  "commit": "51a374b"
}