{
  "transactions": [
    {
      "hash": "0x4ad7f7c3b9850b3986f7722798ff151118f6cec77d38759fd262da2e9d8a54a9",
      "transactionType": "CALL",
      "contractName": null,
      "contractAddress": "0x8aafd3ede9adb0ff97c7aebce82a919afb1c8764",
      "function": "sell(uint256)",
      "arguments": [
        "1480745"
      ],
      "transaction": {
        "from": "0xc77f7fed3b5cc8249adc428c5f44c9063b9734b4",
        "to": "0x8aafd3ede9adb0ff97c7aebce82a919afb1c8764",
        "gas": "0x16208",
        "value": "0x0",
        "input": "0xe4849b320000000000000000000000000000000000000000000000000000000000169829",
        "nonce": "0x10b6",
        "chainId": "0xaa36a7"
      },
      "additionalContracts": [],
      "isFixedGasLimit": false
    }
  ],
  "receipts": [
    {
      "status": "0x1",
      "cumulativeGasUsed": "0xc07da5",
      "logs": [
        {
          "address": "0x8aafd3ede9adb0ff97c7aebce82a919afb1c8764",
          "topics": [
            "0xddf252ad1be2c89b69c2b068fc378daa952ba7f163c4a11628f55a4df523b3ef",
            "0x000000000000000000000000c77f7fed3b5cc8249adc428c5f44c9063b9734b4",
            "0x0000000000000000000000000000000000000000000000000000000000000000"
          ],
          "data": "0x00000000000000000000000000000000000000000000000000000000001669e4",
          "blockHash": "0xfccd2139b33cd543303c5c440e2c353d079c3dffb5c5f91e5f41da6aa88acda0",
          "blockNumber": "0x73174b",
          "transactionHash": "0x4ad7f7c3b9850b3986f7722798ff151118f6cec77d38759fd262da2e9d8a54a9",
          "transactionIndex": "0x7f",
          "logIndex": "0xc1",
          "removed": false
        },
        {
          "address": "0x8aafd3ede9adb0ff97c7aebce82a919afb1c8764",
          "topics": [
            "0xddf252ad1be2c89b69c2b068fc378daa952ba7f163c4a11628f55a4df523b3ef",
            "0x000000000000000000000000c77f7fed3b5cc8249adc428c5f44c9063b9734b4",
            "0x000000000000000000000000c77f7fed3b5cc8249adc428c5f44c9063b9734b4"
          ],
          "data": "0x0000000000000000000000000000000000000000000000000000000000002e45",
          "blockHash": "0xfccd2139b33cd543303c5c440e2c353d079c3dffb5c5f91e5f41da6aa88acda0",
          "blockNumber": "0x73174b",
          "transactionHash": "0x4ad7f7c3b9850b3986f7722798ff151118f6cec77d38759fd262da2e9d8a54a9",
          "transactionIndex": "0x7f",
          "logIndex": "0xc2",
          "removed": false
        },
        {
          "address": "0x8aafd3ede9adb0ff97c7aebce82a919afb1c8764",
          "topics": [
            "0x4afcb4a87cdbd9974efdb92ee48bc8d7cd0ae4bf217004db3d080cbaee652ca7"
          ],
          "data": "0x00000000000000000000000000000000000000000000000000000000679014480000000000000000000000000000000000000000000000000005008a148981f30000000000000000000000000000000000000000000000000000000000000824",
          "blockHash": "0xfccd2139b33cd543303c5c440e2c353d079c3dffb5c5f91e5f41da6aa88acda0",
          "blockNumber": "0x73174b",
          "transactionHash": "0x4ad7f7c3b9850b3986f7722798ff151118f6cec77d38759fd262da2e9d8a54a9",
          "transactionIndex": "0x7f",
          "logIndex": "0xc3",
          "removed": false
        }
      ],
      "logsBloom": "0x00000000000000000000000000000000000000000600000000000000000000000000000000000000000000000000000000000000000000004000000000000000000000000000004000000008000000000000000000000000000000000000000000000000020000000000000000000800020000000000000000000010000000000000000000000000000000000000000000000000000000000000010000000000000000000000000000000000000000004000000000000000000000000000000000000002000000800000000000000000000000000000080000000000000020000000000000000000000000000000000000000000000000000000000000000000",
      "type": "0x2",
      "transactionHash": "0x4ad7f7c3b9850b3986f7722798ff151118f6cec77d38759fd262da2e9d8a54a9",
      "transactionIndex": "0x7f",
      "blockHash": "0xfccd2139b33cd543303c5c440e2c353d079c3dffb5c5f91e5f41da6aa88acda0",
      "blockNumber": "0x73174b",
      "gasUsed": "0xf213",
      "effectiveGasPrice": "0x43dcaaa8",
      "from": "0xc77f7fed3b5cc8249adc428c5f44c9063b9734b4",
      "to": "0x8aafd3ede9adb0ff97c7aebce82a919afb1c8764",
      "contractAddress": null
    }
  ],
  "libraries": [],
  "pending": [],
  "returns": {},
  "timestamp": 1737495626,
  "chain": 11155111,
  "commit": "1d2fb70"
}