{
  "transactions": [
    {
      "hash": "0x6d51f441396d0b4e83b14b05457bbce1e2f0d79e157a85eb06dd603e183497b4",
      "transactionType": "CALL",
      "contractName": null,
      "contractAddress": "0xbf4a322f1496e5c3d34a9bcdb4c60567b38c7de2",
      "function": "buy(address)",
      "arguments": [
        "0xC77f7fed3b5Cc8249aDc428c5F44C9063B9734b4"
      ],
      "transaction": {
        "from": "0xc77f7fed3b5cc8249adc428c5f44c9063b9734b4",
        "to": "0xbf4a322f1496e5c3d34a9bcdb4c60567b38c7de2",
        "gas": "0x1b309",
        "value": "0xde0b6b3a7640000",
        "input": "0xf088d547000000000000000000000000c77f7fed3b5cc8249adc428c5f44c9063b9734b4",
        "nonce": "0xbee",
        "chainId": "0xaa36a7"
      },
      "additionalContracts": [],
      "isFixedGasLimit": false
    }
  ],
  "receipts": [
    {
      "status": "0x1",
      "cumulativeGasUsed": "0xbe0ade",
      "logs": [
        {
          "address": "0xbf4a322f1496e5c3d34a9bcdb4c60567b38c7de2",
          "topics": [
            "0xddf252ad1be2c89b69c2b068fc378daa952ba7f163c4a11628f55a4df523b3ef",
            "0x0000000000000000000000000000000000000000000000000000000000000000",
            "0x000000000000000000000000c77f7fed3b5cc8249adc428c5f44c9063b9734b4"
          ],
          "data": "0x000000000000000000000000000000000000000000000034feb6a8c2b609573a",
          "blockHash": "0xea1eb364c144db9d4bb5cff7990e32acdafea032c7e9dfefd8a5239ef47cbe18",
          "blockNumber": "0x725c15",
          "transactionHash": "0x6d51f441396d0b4e83b14b05457bbce1e2f0d79e157a85eb06dd603e183497b4",
          "transactionIndex": "0x6a",
          "logIndex": "0x8d",
          "removed": false
        },
        {
          "address": "0xbf4a322f1496e5c3d34a9bcdb4c60567b38c7de2",
          "topics": [
            "0xddf252ad1be2c89b69c2b068fc378daa952ba7f163c4a11628f55a4df523b3ef",
            "0x0000000000000000000000000000000000000000000000000000000000000000",
            "0x000000000000000000000000c77f7fed3b5cc8249adc428c5f44c9063b9734b4"
          ],
          "data": "0x0000000000000000000000000000000000000000000000002927040b8e273655",
          "blockHash": "0xea1eb364c144db9d4bb5cff7990e32acdafea032c7e9dfefd8a5239ef47cbe18",
          "blockNumber": "0x725c15",
          "transactionHash": "0x6d51f441396d0b4e83b14b05457bbce1e2f0d79e157a85eb06dd603e183497b4",
          "transactionIndex": "0x6a",
          "logIndex": "0x8e",
          "removed": false
        },
        {
          "address": "0xbf4a322f1496e5c3d34a9bcdb4c60567b38c7de2",
          "topics": [
            "0x4afcb4a87cdbd9974efdb92ee48bc8d7cd0ae4bf217004db3d080cbaee652ca7"
          ],
          "data": "0x00000000000000000000000000000000000000000000000000000000678743580000000000000000000000000000000000000000000000000003990de818b0910000000000000000000000000000000000000000000000000de0b6b3a7640000",
          "blockHash": "0xea1eb364c144db9d4bb5cff7990e32acdafea032c7e9dfefd8a5239ef47cbe18",
          "blockNumber": "0x725c15",
          "transactionHash": "0x6d51f441396d0b4e83b14b05457bbce1e2f0d79e157a85eb06dd603e183497b4",
          "transactionIndex": "0x6a",
          "logIndex": "0x8f",
          "removed": false
        }
      ],
      "logsBloom": "0x00000000000000000000000000000000000000000000000000000000000000000000000000000000000000000000000000000000000000004000000000000000000000000000000000000008000000000000001000000000000000000000000000000000020000000000000000000800020000000000000000000010000000000000000000000000000000000000000000000000000008000000010000000000000000000000000000000000000000004000000000000000000000000000000000000002000000800000000000001000000000000000080000000000000020000000000000000000000000000000000000000000000000000000000000000000",
      "type": "0x2",
      "transactionHash": "0x6d51f441396d0b4e83b14b05457bbce1e2f0d79e157a85eb06dd603e183497b4",
      "transactionIndex": "0x6a",
      "blockHash": "0xea1eb364c144db9d4bb5cff7990e32acdafea032c7e9dfefd8a5239ef47cbe18",
      "blockNumber": "0x725c15",
      "gasUsed": "0x13af6",
      "effectiveGasPrice": "0xdb6ece67",
      "from": "0xc77f7fed3b5cc8249adc428c5f44c9063b9734b4",
      "to": "0xbf4a322f1496e5c3d34a9bcdb4c60567b38c7de2",
      "contractAddress": null
    }
  ],
  "libraries": [],
  "pending": [],
  "returns": {},
  "timestamp": 1736917849,
  "chain": 11155111,
  "commit": "51a374b"
}