{
  "transactions": [
    {
      "hash": "0x37014de21751bede0ef137af5bccbd2b39362fead40af2029ff1571455973eae",
      "transactionType": "CALL",
      "contractName": null,
      "contractAddress": "0x8aafd3ede9adb0ff97c7aebce82a919afb1c8764",
      "function": "sell(uint256)",
      "arguments": [
        "21964116445"
      ],
      "transaction": {
        "from": "0xc77f7fed3b5cc8249adc428c5f44c9063b9734b4",
        "to": "0x8aafd3ede9adb0ff97c7aebce82a919afb1c8764",
        "gas": "0x1722a",
        "value": "0x0",
        "input": "0xe4849b32000000000000000000000000000000000000000000000000000000051d29d1dd",
        "nonce": "0x128a",
        "chainId": "0xaa36a7"
      },
      "additionalContracts": [],
      "isFixedGasLimit": false
    }
  ],
  "receipts": [
    {
      "status": "0x1",
      "cumulativeGasUsed": "0x855ea5",
      "logs": [
        {
          "address": "0x8aafd3ede9adb0ff97c7aebce82a919afb1c8764",
          "topics": [
            "0xddf252ad1be2c89b69c2b068fc378daa952ba7f163c4a11628f55a4df523b3ef",
            "0x000000000000000000000000c77f7fed3b5cc8249adc428c5f44c9063b9734b4",
            "0x0000000000000000000000000000000000000000000000000000000000000000"
          ],
          "data": "0x0000000000000000000000000000000000000000000000000000000512b0a73a",
          "blockHash": "0x36b447aeb02fb5baad62a032f304d6a510bb350504e541fcd84994e995ccd218",
          "blockNumber": "0x731978",
          "transactionHash": "0x37014de21751bede0ef137af5bccbd2b39362fead40af2029ff1571455973eae",
          "transactionIndex": "0x66",
          "logIndex": "0x82",
          "removed": false
        },
        {
          "address": "0x8aafd3ede9adb0ff97c7aebce82a919afb1c8764",
          "topics": [
            "0xddf252ad1be2c89b69c2b068fc378daa952ba7f163c4a11628f55a4df523b3ef",
            "0x000000000000000000000000c77f7fed3b5cc8249adc428c5f44c9063b9734b4",
            "0x000000000000000000000000c77f7fed3b5cc8249adc428c5f44c9063b9734b4"
          ],
          "data": "0x000000000000000000000000000000000000000000000000000000000a792aa3",
          "blockHash": "0x36b447aeb02fb5baad62a032f304d6a510bb350504e541fcd84994e995ccd218",
          "blockNumber": "0x731978",
          "transactionHash": "0x37014de21751bede0ef137af5bccbd2b39362fead40af2029ff1571455973eae",
          "transactionIndex": "0x66",
          "logIndex": "0x83",
          "removed": false
        },
        {
          "address": "0x8aafd3ede9adb0ff97c7aebce82a919afb1c8764",
          "topics": [
            "0x4afcb4a87cdbd9974efdb92ee48bc8d7cd0ae4bf217004db3d080cbaee652ca7"
          ],
          "data": "0x0000000000000000000000000000000000000000000000000000000067902e70000000000000000000000000000000000000000000000000000544d2d08393ec0000000000000000000000000000000000000000000000000000000001f1097b",
          "blockHash": "0x36b447aeb02fb5baad62a032f304d6a510bb350504e541fcd84994e995ccd218",
          "blockNumber": "0x731978",
          "transactionHash": "0x37014de21751bede0ef137af5bccbd2b39362fead40af2029ff1571455973eae",
          "transactionIndex": "0x66",
          "logIndex": "0x84",
          "removed": false
        }
      ],
      "logsBloom": "0x00000000000000000000000000000000000000000600000000000000000000000000000000000000000000000000000000000000000000004000000000000000000000000000004000000008000000000000000000000000000000000000000000000000020000000000000000000800020000000000000000000010000000000000000000000000000000000000000000000000000000000000010000000000000000000000000000000000000000004000000000000000000000000000000000000002000000800000000000000000000000000000080000000000000020000000000000000000000000000000000000000000000000000000000000000000",
      "type": "0x2",
      "transactionHash": "0x37014de21751bede0ef137af5bccbd2b39362fead40af2029ff1571455973eae",
      "transactionIndex": "0x66",
      "blockHash": "0x36b447aeb02fb5baad62a032f304d6a510bb350504e541fcd84994e995ccd218",
      "blockNumber": "0x731978",
      "gasUsed": "0xfd1b",
      "effectiveGasPrice": "0x47948d19",
      "from": "0xc77f7fed3b5cc8249adc428c5f44c9063b9734b4",
      "to": "0x8aafd3ede9adb0ff97c7aebce82a919afb1c8764",
      "contractAddress": null
    }
  ],
  "libraries": [],
  "pending": [],
  "returns": {},
  "timestamp": 1737502321,
  "chain": 11155111,
  "commit": "1d2fb70"
}