{
  "transactions": [
    {
      "hash": "0xd455af1a84260a14ef8ec1419eb8044ebc8dd31daff04dd8b493ba5f20030d7d",
      "transactionType": "CALL",
      "contractName": null,
      "contractAddress": "0x8aafd3ede9adb0ff97c7aebce82a919afb1c8764",
      "function": "sell(uint256)",
      "arguments": [
        "5541615684865245194"
      ],
      "transaction": {
        "from": "0xc77f7fed3b5cc8249adc428c5f44c9063b9734b4",
        "to": "0x8aafd3ede9adb0ff97c7aebce82a919afb1c8764",
        "gas": "0x15dca",
        "value": "0x0",
        "input": "0xe4849b320000000000000000000000000000000000000000000000004ce7c61aca20400a",
        "nonce": "0x115a",
        "chainId": "0xaa36a7"
      },
      "additionalContracts": [],
      "isFixedGasLimit": false
    }
  ],
  "receipts": [
    {
      "status": "0x1",
      "cumulativeGasUsed": "0x1f656c4",
      "logs": [
        {
          "address": "0x8aafd3ede9adb0ff97c7aebce82a919afb1c8764",
          "topics": [
            "0xddf252ad1be2c89b69c2b068fc378daa952ba7f163c4a11628f55a4df523b3ef",
            "0x000000000000000000000000c77f7fed3b5cc8249adc428c5f44c9063b9734b4",
            "0x0000000000000000000000000000000000000000000000000000000000000000"
          ],
          "data": "0x0000000000000000000000000000000000000000000000004c4a458b3719d921",
          "blockHash": "0x62157a4a7865c62d1281a384e9e2394ad8f5176a1f4b94eb108ec290fb04b872",
          "blockNumber": "0x731817",
          "transactionHash": "0xd455af1a84260a14ef8ec1419eb8044ebc8dd31daff04dd8b493ba5f20030d7d",
          "transactionIndex": "0xeb",
          "logIndex": "0x10e",
          "removed": false
        },
        {
          "address": "0x8aafd3ede9adb0ff97c7aebce82a919afb1c8764",
          "topics": [
            "0xddf252ad1be2c89b69c2b068fc378daa952ba7f163c4a11628f55a4df523b3ef",
            "0x000000000000000000000000c77f7fed3b5cc8249adc428c5f44c9063b9734b4",
            "0x000000000000000000000000c77f7fed3b5cc8249adc428c5f44c9063b9734b4"
          ],
          "data": "0x000000000000000000000000000000000000000000000000009d808f930666e9",
          "blockHash": "0x62157a4a7865c62d1281a384e9e2394ad8f5176a1f4b94eb108ec290fb04b872",
          "blockNumber": "0x731817",
          "transactionHash": "0xd455af1a84260a14ef8ec1419eb8044ebc8dd31daff04dd8b493ba5f20030d7d",
          "transactionIndex": "0xeb",
          "logIndex": "0x10f",
          "removed": false
        },
        {
          "address": "0x8aafd3ede9adb0ff97c7aebce82a919afb1c8764",
          "topics": [
            "0x4afcb4a87cdbd9974efdb92ee48bc8d7cd0ae4bf217004db3d080cbaee652ca7"
          ],
          "data": "0x0000000000000000000000000000000000000000000000000000000067901dd80000000000000000000000000000000000000000000000000005193b8f9b4ef1000000000000000000000000000000000000000000000000001c410d46af24bf",
          "blockHash": "0x62157a4a7865c62d1281a384e9e2394ad8f5176a1f4b94eb108ec290fb04b872",
          "blockNumber": "0x731817",
          "transactionHash": "0xd455af1a84260a14ef8ec1419eb8044ebc8dd31daff04dd8b493ba5f20030d7d",
          "transactionIndex": "0xeb",
          "logIndex": "0x110",
          "removed": false
        }
      ],
      "logsBloom": "0x00000000000000000000000000000000000000000600000000000000000000000000000000000000000000000000000000000000000000004000000000000000000000000000004000000008000000000000000000000000000000000000000000000000020000000000000000000800020000000000000000000010000000000000000000000000000000000000000000000000000000000000010000000000000000000000000000000000000000004000000000000000000000000000000000000002000000800000000000000000000000000000080000000000000020000000000000000000000000000000000000000000000000000000000000000000",
      "type": "0x2",
      "transactionHash": "0xd455af1a84260a14ef8ec1419eb8044ebc8dd31daff04dd8b493ba5f20030d7d",
      "transactionIndex": "0xeb",
      "blockHash": "0x62157a4a7865c62d1281a384e9e2394ad8f5176a1f4b94eb108ec290fb04b872",
      "blockNumber": "0x731817",
      "gasUsed": "0xfd3f",
      "effectiveGasPrice": "0x41441e30",
      "from": "0xc77f7fed3b5cc8249adc428c5f44c9063b9734b4",
      "to": "0x8aafd3ede9adb0ff97c7aebce82a919afb1c8764",
      "contractAddress": null
    }
  ],
  "libraries": [],
  "pending": [],
  "returns": {},
  "timestamp": 1737498073,
  "chain": 11155111,
  "commit": "1d2fb70"
}