{
  "transactions": [
    {
      "hash": "0x24b2a68a74e0aa30241612dbef9c8c2e66492364f733e71be014fdc4eeaecf8f",
      "transactionType": "CALL",
      "contractName": null,
      "contractAddress": "0xbf4a322f1496e5c3d34a9bcdb4c60567b38c7de2",
      "function": "sell(uint256)",
      "arguments": [
        "973742429783567544913"
      ],
      "transaction": {
        "from": "0xc77f7fed3b5cc8249adc428c5f44c9063b9734b4",
        "to": "0xbf4a322f1496e5c3d34a9bcdb4c60567b38c7de2",
        "gas": "0x16fea",
        "value": "0x0",
        "input": "0xe4849b32000000000000000000000000000000000000000000000034c9640cc7974ab251",
        "nonce": "0xded",
        "chainId": "0xaa36a7"
      },
      "additionalContracts": [],
      "isFixedGasLimit": false
    }
  ],
  "receipts": [
    {
      "status": "0x1",
      "cumulativeGasUsed": "0x1a86953",
      "logs": [
        {
          "address": "0xbf4a322f1496e5c3d34a9bcdb4c60567b38c7de2",
          "topics": [
            "0xddf252ad1be2c89b69c2b068fc378daa952ba7f163c4a11628f55a4df523b3ef",
            "0x000000000000000000000000c77f7fed3b5cc8249adc428c5f44c9063b9734b4",
            "0x0000000000000000000000000000000000000000000000000000000000000000"
          ],
          "data": "0x000000000000000000000000000000000000000000000034c9640cc7974ab251",
          "blockHash": "0xc15846c043a213161982504e24224da322a2770322a8bb9d6398275f19829d84",
          "blockNumber": "0x7266ce",
          "transactionHash": "0x24b2a68a74e0aa30241612dbef9c8c2e66492364f733e71be014fdc4eeaecf8f",
          "transactionIndex": "0xec",
          "logIndex": "0x168",
          "removed": false
        },
        {
          "address": "0xbf4a322f1496e5c3d34a9bcdb4c60567b38c7de2",
          "topics": [
            "0x4afcb4a87cdbd9974efdb92ee48bc8d7cd0ae4bf217004db3d080cbaee652ca7"
          ],
          "data": "0x000000000000000000000000000000000000000000000000000000006787c4ac00000000000000000000000000000000000000000000000000039f827c5fb37e0000000000000000000000000000000000000000000000000dc7e3d384634e0f",
          "blockHash": "0xc15846c043a213161982504e24224da322a2770322a8bb9d6398275f19829d84",
          "blockNumber": "0x7266ce",
          "transactionHash": "0x24b2a68a74e0aa30241612dbef9c8c2e66492364f733e71be014fdc4eeaecf8f",
          "transactionIndex": "0xec",
          "logIndex": "0x169",
          "removed": false
        }
      ],
      "logsBloom": "0x00000000000000000000000000000000000000000000000000000000000000000000000000000000000000000000000000000000000000004000000000000000000000000000000000000008000000000000001000000000000000000000000000000000020000000000000000000800020000000000000000000010000000000000000000000000000000000000000000000000000008000000010000000000000000000000000000000000000000004000000000000000000000000000000000000002000000800000000000001000000000000000080000000000000020000000000000000000000000000000000000000000000000000000000000000000",
      "type": "0x2",
      "transactionHash": "0x24b2a68a74e0aa30241612dbef9c8c2e66492364f733e71be014fdc4eeaecf8f",
      "transactionIndex": "0xec",
      "blockHash": "0xc15846c043a213161982504e24224da322a2770322a8bb9d6398275f19829d84",
      "blockNumber": "0x7266ce",
      "gasUsed": "0xfb91",
      "effectiveGasPrice": "0x20cdee147",
      "from": "0xc77f7fed3b5cc8249adc428c5f44c9063b9734b4",
      "to": "0xbf4a322f1496e5c3d34a9bcdb4c60567b38c7de2",
      "contractAddress": null
    }
  ],
  "libraries": [],
  "pending": [],
  "returns": {},
  "timestamp": 1736950958,
  "chain": 11155111,
  "commit": "51a374b"
}