{
  "transactions": [
    {
      "hash": "0x792d64025a20be330c4028d529fb3086c1839d6bee18cff01a35151fd0ef352a",
      "transactionType": "CALL",
      "contractName": null,
      "contractAddress": "0x5eb9cc76c3506942c1c0ead70e877dd5e4f00cb0",
      "function": "sell(uint256)",
      "arguments": [
        "989128046060760286327"
      ],
      "transaction": {
        "from": "0xc77f7fed3b5cc8249adc428c5f44c9063b9734b4",
        "to": "0x5eb9cc76c3506942c1c0ead70e877dd5e4f00cb0",
        "gas": "0x16fec",
        "value": "0x0",
        "input": "0xe4849b320000000000000000000000000000000000000000000000359ee8bd446bd54477",
        "nonce": "0x351",
        "chainId": "0xaa36a7"
      },
      "additionalContracts": [],
      "isFixedGasLimit": false
    }
  ],
  "receipts": [
    {
      "status": "0x1",
      "cumulativeGasUsed": "0x807fb3",
      "logs": [
        {
          "address": "0x5eb9cc76c3506942c1c0ead70e877dd5e4f00cb0",
          "topics": [
            "0xddf252ad1be2c89b69c2b068fc378daa952ba7f163c4a11628f55a4df523b3ef",
            "0x000000000000000000000000c77f7fed3b5cc8249adc428c5f44c9063b9734b4",
            "0x0000000000000000000000000000000000000000000000000000000000000000"
          ],
          "data": "0x0000000000000000000000000000000000000000000000359ee8bd446bd54477",
          "blockHash": "0x4bf6fa0f41e7a919379bb72a40c0b11b18d4e83ba131a33e4b453f0594bcff9c",
          "blockNumber": "0x724f43",
          "transactionHash": "0x792d64025a20be330c4028d529fb3086c1839d6bee18cff01a35151fd0ef352a",
          "transactionIndex": "0x3c",
          "logIndex": "0x48",
          "removed": false
        },
        {
          "address": "0x5eb9cc76c3506942c1c0ead70e877dd5e4f00cb0",
          "topics": [
            "0x4afcb4a87cdbd9974efdb92ee48bc8d7cd0ae4bf217004db3d080cbaee652ca7"
          ],
          "data": "0x000000000000000000000000000000000000000000000000000000006786a8d80000000000000000000000000000000000000000000000000003910ed822724e0000000000000000000000000000000000000000000000000dc7db1332195a44",
          "blockHash": "0x4bf6fa0f41e7a919379bb72a40c0b11b18d4e83ba131a33e4b453f0594bcff9c",
          "blockNumber": "0x724f43",
          "transactionHash": "0x792d64025a20be330c4028d529fb3086c1839d6bee18cff01a35151fd0ef352a",
          "transactionIndex": "0x3c",
          "logIndex": "0x49",
          "removed": false
        }
      ],
      "logsBloom": "0x00000000000000000000000000000000000000000000000000000000000000000000000000000000000000000000000000000000000000004000000000000000000000000000000000000008000000000000000000000000000000000000000000000000020000000000000004000800020000000000000000000010000000000000000000000000000000000000000000000000000000000000010000000000000000000000000000000000000000004000000000000000000000000000020000000002000000800000008000000000000000000000080000000000000020000000000000000000000000000000000000000000000000000000000000000000",
      "type": "0x2",
      "transactionHash": "0x792d64025a20be330c4028d529fb3086c1839d6bee18cff01a35151fd0ef352a",
      "transactionIndex": "0x3c",
      "blockHash": "0x4bf6fa0f41e7a919379bb72a40c0b11b18d4e83ba131a33e4b453f0594bcff9c",
      "blockNumber": "0x724f43",
      "gasUsed": "0xfb93",
      "effectiveGasPrice": "0x58b206823",
      "from": "0xc77f7fed3b5cc8249adc428c5f44c9063b9734b4",
      "to": "0x5eb9cc76c3506942c1c0ead70e877dd5e4f00cb0",
      "contractAddress": null
    }
  ],
  "libraries": [],
  "pending": [],
  "returns": {},
  "timestamp": 1736878297,
  "chain": 11155111,
  "commit": "51a374b"
}