{
  "transactions": [
    {
      "hash": "0x282d6536795f08dd3f3244455e425d6dced5913c53b4bba1b57b01c41778fc1f",
      "transactionType": "CALL",
      "contractName": null,
      "contractAddress": "0x8aafd3ede9adb0ff97c7aebce82a919afb1c8764",
      "function": "sell(uint256)",
      "arguments": [
        "5932666033893692997"
      ],
      "transaction": {
        "from": "0xc77f7fed3b5cc8249adc428c5f44c9063b9734b4",
        "to": "0x8aafd3ede9adb0ff97c7aebce82a919afb1c8764",
        "gas": "0x15dca",
        "value": "0x0",
        "input": "0xe4849b320000000000000000000000000000000000000000000000005255105341425645",
        "nonce": "0xf7c",
        "chainId": "0xaa36a7"
      },
      "additionalContracts": [],
      "isFixedGasLimit": false
    }
  ],
  "receipts": [
    {
      "status": "0x1",
      "cumulativeGasUsed": "0x946fab",
      "logs": [
        {
          "address": "0x8aafd3ede9adb0ff97c7aebce82a919afb1c8764",
          "topics": [
            "0xddf252ad1be2c89b69c2b068fc378daa952ba7f163c4a11628f55a4df523b3ef",
            "0x000000000000000000000000c77f7fed3b5cc8249adc428c5f44c9063b9734b4",
            "0x0000000000000000000000000000000000000000000000000000000000000000"
          ],
          "data": "0x00000000000000000000000000000000000000000000000051ac727fa516cc5e",
          "blockHash": "0xf601024f50751048cfd7ea0b3e5953571c386403df7f8753295a66dbcd05f67b",
          "blockNumber": "0x7315de",
          "transactionHash": "0x282d6536795f08dd3f3244455e425d6dced5913c53b4bba1b57b01c41778fc1f",
          "transactionIndex": "0x82",
          "logIndex": "0x7d",
          "removed": false
        },
        {
          "address": "0x8aafd3ede9adb0ff97c7aebce82a919afb1c8764",
          "topics": [
            "0xddf252ad1be2c89b69c2b068fc378daa952ba7f163c4a11628f55a4df523b3ef",
            "0x000000000000000000000000c77f7fed3b5cc8249adc428c5f44c9063b9734b4",
            "0x000000000000000000000000c77f7fed3b5cc8249adc428c5f44c9063b9734b4"
          ],
          "data": "0x00000000000000000000000000000000000000000000000000a89dd39c2b89e7",
          "blockHash": "0xf601024f50751048cfd7ea0b3e5953571c386403df7f8753295a66dbcd05f67b",
          "blockNumber": "0x7315de",
          "transactionHash": "0x282d6536795f08dd3f3244455e425d6dced5913c53b4bba1b57b01c41778fc1f",
          "transactionIndex": "0x82",
          "logIndex": "0x7e",
          "removed": false
        },
        {
          "address": "0x8aafd3ede9adb0ff97c7aebce82a919afb1c8764",
          "topics": [
            "0x4afcb4a87cdbd9974efdb92ee48bc8d7cd0ae4bf217004db3d080cbaee652ca7"
          ],
          "data": "0x00000000000000000000000000000000000000000000000000000000679003140000000000000000000000000000000000000000000000000004c22b67582f74000000000000000000000000000000000000000000000000001c3afb6b737664",
          "blockHash": "0xf601024f50751048cfd7ea0b3e5953571c386403df7f8753295a66dbcd05f67b",
          "blockNumber": "0x7315de",
          "transactionHash": "0x282d6536795f08dd3f3244455e425d6dced5913c53b4bba1b57b01c41778fc1f",
          "transactionIndex": "0x82",
          "logIndex": "0x7f",
          "removed": false
        }
      ],
      "logsBloom": "0x00000000000000000000000000000000000000000600000000000000000000000000000000000000000000000000000000000000000000004000000000000000000000000000004000000008000000000000000000000000000000000000000000000000020000000000000000000800020000000000000000000010000000000000000000000000000000000000000000000000000000000000010000000000000000000000000000000000000000004000000000000000000000000000000000000002000000800000000000000000000000000000080000000000000020000000000000000000000000000000000000000000000000000000000000000000",
      "type": "0x2",
      "transactionHash": "0x282d6536795f08dd3f3244455e425d6dced5913c53b4bba1b57b01c41778fc1f",
      "transactionIndex": "0x82",
      "blockHash": "0xf601024f50751048cfd7ea0b3e5953571c386403df7f8753295a66dbcd05f67b",
      "blockNumber": "0x7315de",
      "gasUsed": "0xfd3f",
      "effectiveGasPrice": "0x71e6d0c8",
      "from": "0xc77f7fed3b5cc8249adc428c5f44c9063b9734b4",
      "to": "0x8aafd3ede9adb0ff97c7aebce82a919afb1c8764",
      "contractAddress": null
    }
  ],
  "libraries": [],
  "pending": [],
  "returns": {},
  "timestamp": 1737491220,
  "chain": 11155111,
  "commit": "1d2fb70"
}