{
  "transactions": [
    {
      "hash": "0x139540c3464a5c259b7a457b886a790f3033087bd8e29f2bc7c7ceda48b91848",
      "transactionType": "CALL",
      "contractName": null,
      "contractAddress": "0xbf4a322f1496e5c3d34a9bcdb4c60567b38c7de2",
      "function": "buy(address)",
      "arguments": [
        "0xC77f7fed3b5Cc8249aDc428c5F44C9063B9734b4"
      ],
      "transaction": {
        "from": "0xc77f7fed3b5cc8249adc428c5f44c9063b9734b4",
        "to": "0xbf4a322f1496e5c3d34a9bcdb4c60567b38c7de2",
        "gas": "0x1b309",
        "value": "0xde0b6b3a7640000",
        "input": "0xf088d547000000000000000000000000c77f7fed3b5cc8249adc428c5f44c9063b9734b4",
        "nonce": "0x95e",
        "chainId": "0xaa36a7"
      },
      "additionalContracts": [],
      "isFixedGasLimit": false
    }
  ],
  "receipts": [
    {
      "status": "0x1",
      "cumulativeGasUsed": "0xf8dd7d",
      "logs": [
        {
          "address": "0xbf4a322f1496e5c3d34a9bcdb4c60567b38c7de2",
          "topics": [
            "0xddf252ad1be2c89b69c2b068fc378daa952ba7f163c4a11628f55a4df523b3ef",
            "0x0000000000000000000000000000000000000000000000000000000000000000",
            "0x000000000000000000000000c77f7fed3b5cc8249adc428c5f44c9063b9734b4"
          ],
          "data": "0x00000000000000000000000000000000000000000000003579d20c325cb11a6c",
          "blockHash": "0x0a8d82f725c2893c9211f6be4e32f011906092da38aac661fd6b03fbe89fe8f5",
          "blockNumber": "0x7258f4",
          "transactionHash": "0x139540c3464a5c259b7a457b886a790f3033087bd8e29f2bc7c7ceda48b91848",
          "transactionIndex": "0x7b",
          "logIndex": "0xcd",
          "removed": false
        },
        {
          "address": "0xbf4a322f1496e5c3d34a9bcdb4c60567b38c7de2",
          "topics": [
            "0xddf252ad1be2c89b69c2b068fc378daa952ba7f163c4a11628f55a4df523b3ef",
            "0x0000000000000000000000000000000000000000000000000000000000000000",
            "0x000000000000000000000000c77f7fed3b5cc8249adc428c5f44c9063b9734b4"
          ],
          "data": "0x00000000000000000000000000000000000000000000000029869cd1b94a58c6",
          "blockHash": "0x0a8d82f725c2893c9211f6be4e32f011906092da38aac661fd6b03fbe89fe8f5",
          "blockNumber": "0x7258f4",
          "transactionHash": "0x139540c3464a5c259b7a457b886a790f3033087bd8e29f2bc7c7ceda48b91848",
          "transactionIndex": "0x7b",
          "logIndex": "0xce",
          "removed": false
        },
        {
          "address": "0xbf4a322f1496e5c3d34a9bcdb4c60567b38c7de2",
          "topics": [
            "0x4afcb4a87cdbd9974efdb92ee48bc8d7cd0ae4bf217004db3d080cbaee652ca7"
          ],
          "data": "0x0000000000000000000000000000000000000000000000000000000067871d9c000000000000000000000000000000000000000000000000000390c5909910d00000000000000000000000000000000000000000000000000de0b6b3a7640000",
          "blockHash": "0x0a8d82f725c2893c9211f6be4e32f011906092da38aac661fd6b03fbe89fe8f5",
          "blockNumber": "0x7258f4",
          "transactionHash": "0x139540c3464a5c259b7a457b886a790f3033087bd8e29f2bc7c7ceda48b91848",
          "transactionIndex": "0x7b",
          "logIndex": "0xcf",
          "removed": false
        }
      ],
      "logsBloom": "0x00000000000000000000000000000000000000000000000000000000000000000000000000000000000000000000000000000000000000004000000000000000000000000000000000000008000000000000001000000000000000000000000000000000020000000000000000000800020000000000000000000010000000000000000000000000000000000000000000000000000008000000010000000000000000000000000000000000000000004000000000000000000000000000000000000002000000800000000000001000000000000000080000000000000020000000000000000000000000000000000000000000000000000000000000000000",
      "type": "0x2",
      "transactionHash": "0x139540c3464a5c259b7a457b886a790f3033087bd8e29f2bc7c7ceda48b91848",
      "transactionIndex": "0x7b",
      "blockHash": "0x0a8d82f725c2893c9211f6be4e32f011906092da38aac661fd6b03fbe89fe8f5",
      "blockNumber": "0x7258f4",
      "gasUsed": "0x13af6",
      "effectiveGasPrice": "0x8934e98b",
      "from": "0xc77f7fed3b5cc8249adc428c5f44c9063b9734b4",
      "to": "0xbf4a322f1496e5c3d34a9bcdb4c60567b38c7de2",
      "contractAddress": null
    }
  ],
  "libraries": [],
  "pending": [],
  "returns": {},
  "timestamp": 1736908189,
  "chain": 11155111,
  "commit": "51a374b"
}