{
  "transactions": [
    {
      "hash": "0xb90ed1d9485965e1909ae47a74f1dc04f47c2b02eaecc59aff9c0d071d283cb8",
      "transactionType": "CALL",
      "contractName": null,
      "contractAddress": "0x8aafd3ede9adb0ff97c7aebce82a919afb1c8764",
      "function": "sell(uint256)",
      "arguments": [
        "13446012843571513"
      ],
      "transaction": {
        "from": "0xc77f7fed3b5cc8249adc428c5f44c9063b9734b4",
        "to": "0x8aafd3ede9adb0ff97c7aebce82a919afb1c8764",
        "gas": "0x1724d",
        "value": "0x0",
        "input": "0xe4849b32000000000000000000000000000000000000000000000000002fc513d32fb939",
        "nonce": "0x14ef",
        "chainId": "0xaa36a7"
      },
      "additionalContracts": [],
      "isFixedGasLimit": false
    }
  ],
  "receipts": [
    {
      "status": "0x1",
      "cumulativeGasUsed": "0xef859f",
      "logs": [
        {
          "address": "0x8aafd3ede9adb0ff97c7aebce82a919afb1c8764",
          "topics": [
            "0xddf252ad1be2c89b69c2b068fc378daa952ba7f163c4a11628f55a4df523b3ef",
            "0x000000000000000000000000c77f7fed3b5cc8249adc428c5f44c9063b9734b4",
            "0x0000000000000000000000000000000000000000000000000000000000000000"
          ],
          "data": "0x000000000000000000000000000000000000000000000000002f633eaca2079d",
          "blockHash": "0x91fb2c9fe02db4264ac9dc2ce998aa98d7bff877baac06f871f44d200d411409",
          "blockNumber": "0x731c4f",
          "transactionHash": "0xb90ed1d9485965e1909ae47a74f1dc04f47c2b02eaecc59aff9c0d071d283cb8",
          "transactionIndex": "0x96",
          "logIndex": "0xea",
          "removed": false
        },
        {
          "address": "0x8aafd3ede9adb0ff97c7aebce82a919afb1c8764",
          "topics": [
            "0xddf252ad1be2c89b69c2b068fc378daa952ba7f163c4a11628f55a4df523b3ef",
            "0x000000000000000000000000c77f7fed3b5cc8249adc428c5f44c9063b9734b4",
            "0x000000000000000000000000c77f7fed3b5cc8249adc428c5f44c9063b9734b4"
          ],
          "data": "0x000000000000000000000000000000000000000000000000000061d5268db19c",
          "blockHash": "0x91fb2c9fe02db4264ac9dc2ce998aa98d7bff877baac06f871f44d200d411409",
          "blockNumber": "0x731c4f",
          "transactionHash": "0xb90ed1d9485965e1909ae47a74f1dc04f47c2b02eaecc59aff9c0d071d283cb8",
          "transactionIndex": "0x96",
          "logIndex": "0xeb",
          "removed": false
        },
        {
          "address": "0x8aafd3ede9adb0ff97c7aebce82a919afb1c8764",
          "topics": [
            "0x4afcb4a87cdbd9974efdb92ee48bc8d7cd0ae4bf217004db3d080cbaee652ca7"
          ],
          "data": "0x00000000000000000000000000000000000000000000000000000000679050900000000000000000000000000000000000000000000000000010e53ac8786d2000000000000000000000000000000000000000000000000000003a28361ed3b5",
          "blockHash": "0x91fb2c9fe02db4264ac9dc2ce998aa98d7bff877baac06f871f44d200d411409",
          "blockNumber": "0x731c4f",
          "transactionHash": "0xb90ed1d9485965e1909ae47a74f1dc04f47c2b02eaecc59aff9c0d071d283cb8",
          "transactionIndex": "0x96",
          "logIndex": "0xec",
          "removed": false
        }
      ],
      "logsBloom": "0x00000000000000000000000000000000000000000600000000000000000000000000000000000000000000000000000000000000000000004000000000000000000000000000004000000008000000000000000000000000000000000000000000000000020000000000000000000800020000000000000000000010000000000000000000000000000000000000000000000000000000000000010000000000000000000000000000000000000000004000000000000000000000000000000000000002000000800000000000000000000000000000080000000000000020000000000000000000000000000000000000000000000000000000000000000000",
      "type": "0x2",
      "transactionHash": "0xb90ed1d9485965e1909ae47a74f1dc04f47c2b02eaecc59aff9c0d071d283cb8",
      "transactionIndex": "0x96",
      "blockHash": "0x91fb2c9fe02db4264ac9dc2ce998aa98d7bff877baac06f871f44d200d411409",
      "blockNumber": "0x731c4f",
      "gasUsed": "0xfd33",
      "effectiveGasPrice": "0x15812a562",
      "from": "0xc77f7fed3b5cc8249adc428c5f44c9063b9734b4",
      "to": "0x8aafd3ede9adb0ff97c7aebce82a919afb1c8764",
      "contractAddress": null
    }
  ],
  "libraries": [],
  "pending": [],
  "returns": {},
  "timestamp": 1737511057,
  "chain": 11155111,
  "commit": "1d2fb70"
}