{
  "transactions": [
    {
      "hash": "0xeeb39c68d635209864d378b1efc74eda7bff310937872ed332934bb6b452eb6e",
      "transactionType": "CALL",
      "contractName": null,
      "contractAddress": "0x270e88f8683660553e8ba4eb2ad7c91a1710d769",
      "function": "buy(address)",
      "arguments": [
        "0xC77f7fed3b5Cc8249aDc428c5F44C9063B9734b4"
      ],
      "transaction": {
        "from": "0xc77f7fed3b5cc8249adc428c5f44c9063b9734b4",
        "to": "0x270e88f8683660553e8ba4eb2ad7c91a1710d769",
        "gas": "0x1b30c",
        "value": "0xde0b6b3a7640000",
        "input": "0xf088d547000000000000000000000000c77f7fed3b5cc8249adc428c5f44c9063b9734b4",
        "nonce": "0x5de",
        "chainId": "0xaa36a7"
      },
      "additionalContracts": [],
      "isFixedGasLimit": false
    }
  ],
  "receipts": [
    {
      "status": "0x1",
      "cumulativeGasUsed": "0xd304e8",
      "logs": [
        {
          "address": "0x270e88f8683660553e8ba4eb2ad7c91a1710d769",
          "topics": [
            "0xddf252ad1be2c89b69c2b068fc378daa952ba7f163c4a11628f55a4df523b3ef",
            "0x0000000000000000000000000000000000000000000000000000000000000000",
            "0x000000000000000000000000c77f7fed3b5cc8249adc428c5f44c9063b9734b4"
          ],
          "data": "0x0000000000000000000000000000000000000000000000337756d058740aba48",
          "blockHash": "0x2fa0ad185486b9cb468e2debfbd4a0d22bf1fe1cf24055d7e7c6932a76bf3a3a",
          "blockNumber": "0x7252a0",
          "transactionHash": "0xeeb39c68d635209864d378b1efc74eda7bff310937872ed332934bb6b452eb6e",
          "transactionIndex": "0x67",
          "logIndex": "0xc8",
          "removed": false
        },
        {
          "address": "0x270e88f8683660553e8ba4eb2ad7c91a1710d769",
          "topics": [
            "0xddf252ad1be2c89b69c2b068fc378daa952ba7f163c4a11628f55a4df523b3ef",
            "0x0000000000000000000000000000000000000000000000000000000000000000",
            "0x000000000000000000000000c77f7fed3b5cc8249adc428c5f44c9063b9734b4"
          ],
          "data": "0x00000000000000000000000000000000000000000000000027f719a8e08d8c51",
          "blockHash": "0x2fa0ad185486b9cb468e2debfbd4a0d22bf1fe1cf24055d7e7c6932a76bf3a3a",
          "blockNumber": "0x7252a0",
          "transactionHash": "0xeeb39c68d635209864d378b1efc74eda7bff310937872ed332934bb6b452eb6e",
          "transactionIndex": "0x67",
          "logIndex": "0xc9",
          "removed": false
        },
        {
          "address": "0x270e88f8683660553e8ba4eb2ad7c91a1710d769",
          "topics": [
            "0x4afcb4a87cdbd9974efdb92ee48bc8d7cd0ae4bf217004db3d080cbaee652ca7"
          ],
          "data": "0x000000000000000000000000000000000000000000000000000000006786d1880000000000000000000000000000000000000000000000000003b482649dc0810000000000000000000000000000000000000000000000000de0b6b3a7640000",
          "blockHash": "0x2fa0ad185486b9cb468e2debfbd4a0d22bf1fe1cf24055d7e7c6932a76bf3a3a",
          "blockNumber": "0x7252a0",
          "transactionHash": "0xeeb39c68d635209864d378b1efc74eda7bff310937872ed332934bb6b452eb6e",
          "transactionIndex": "0x67",
          "logIndex": "0xca",
          "removed": false
        }
      ],
      "logsBloom": "0x00000000000000000000000000000000000000000000000000000000000000000000000000000000000000000000000020000000000000004000000000000000000000000000000000000008000000000000000000000000000000000000000000000000020000000000000000000800020000000000000000000010000000000000000000010000000000000000000000000000000000000000010000000000000000000000000000000000000000004000000000000000000000000000000000000002000000800000000000000000000000000000080000008000000020000000000000000000000000000000000000000000000000000000000000000000",
      "type": "0x2",
      "transactionHash": "0xeeb39c68d635209864d378b1efc74eda7bff310937872ed332934bb6b452eb6e",
      "transactionIndex": "0x67",
      "blockHash": "0x2fa0ad185486b9cb468e2debfbd4a0d22bf1fe1cf24055d7e7c6932a76bf3a3a",
      "blockNumber": "0x7252a0",
      "gasUsed": "0x13af8",
      "effectiveGasPrice": "0x34939e57b",
      "from": "0xc77f7fed3b5cc8249adc428c5f44c9063b9734b4",
      "to": "0x270e88f8683660553e8ba4eb2ad7c91a1710d769",
      "contractAddress": null
    }
  ],
  "libraries": [],
  "pending": [],
  "returns": {},
  "timestamp": 1736888714,
  "chain": 11155111,
  "commit": "51a374b"
}