{
  "transactions": [
    {
      "hash": "0x2281dbb60a8792087a29b3cbfade86284670da2aa2e8fb51a061488574253051",
      "transactionType": "CALL",
      "contractName": null,
      "contractAddress": "0x8aafd3ede9adb0ff97c7aebce82a919afb1c8764",
      "function": "sell(uint256)",
      "arguments": [
        "6160039931"
      ],
      "transaction": {
        "from": "0xc77f7fed3b5cc8249adc428c5f44c9063b9734b4",
        "to": "0x8aafd3ede9adb0ff97c7aebce82a919afb1c8764",
        "gas": "0x1722a",
        "value": "0x0",
        "input": "0xe4849b32000000000000000000000000000000000000000000000000000000016f2abffb",
        "nonce": "0x159d",
        "chainId": "0xaa36a7"
      },
      "additionalContracts": [],
      "isFixedGasLimit": false
    }
  ],
  "receipts": [
    {
      "status": "0x1",
      "cumulativeGasUsed": "0xfc61f9",
      "logs": [
        {
          "address": "0x8aafd3ede9adb0ff97c7aebce82a919afb1c8764",
          "topics": [
            "0xddf252ad1be2c89b69c2b068fc378daa952ba7f163c4a11628f55a4df523b3ef",
            "0x000000000000000000000000c77f7fed3b5cc8249adc428c5f44c9063b9734b4",
            "0x0000000000000000000000000000000000000000000000000000000000000000"
          ],
          "data": "0x000000000000000000000000000000000000000000000000000000016c3acabc",
          "blockHash": "0x9b9a4f38ced820a9f535be72bbfb3775f33845d9d8e986a5103d6fe26a5bc586",
          "blockNumber": "0x731d0e",
          "transactionHash": "0x2281dbb60a8792087a29b3cbfade86284670da2aa2e8fb51a061488574253051",
          "transactionIndex": "0xcc",
          "logIndex": "0x131",
          "removed": false
        },
        {
          "address": "0x8aafd3ede9adb0ff97c7aebce82a919afb1c8764",
          "topics": [
            "0xddf252ad1be2c89b69c2b068fc378daa952ba7f163c4a11628f55a4df523b3ef",
            "0x000000000000000000000000c77f7fed3b5cc8249adc428c5f44c9063b9734b4",
            "0x000000000000000000000000c77f7fed3b5cc8249adc428c5f44c9063b9734b4"
          ],
          "data": "0x0000000000000000000000000000000000000000000000000000000002eff53f",
          "blockHash": "0x9b9a4f38ced820a9f535be72bbfb3775f33845d9d8e986a5103d6fe26a5bc586",
          "blockNumber": "0x731d0e",
          "transactionHash": "0x2281dbb60a8792087a29b3cbfade86284670da2aa2e8fb51a061488574253051",
          "transactionIndex": "0xcc",
          "logIndex": "0x132",
          "removed": false
        },
        {
          "address": "0x8aafd3ede9adb0ff97c7aebce82a919afb1c8764",
          "topics": [
            "0x4afcb4a87cdbd9974efdb92ee48bc8d7cd0ae4bf217004db3d080cbaee652ca7"
          ],
          "data": "0x00000000000000000000000000000000000000000000000000000000679059900000000000000000000000000000000000000000000000000012ded63b4a35a30000000000000000000000000000000000000000000000000000000001f34245",
          "blockHash": "0x9b9a4f38ced820a9f535be72bbfb3775f33845d9d8e986a5103d6fe26a5bc586",
          "blockNumber": "0x731d0e",
          "transactionHash": "0x2281dbb60a8792087a29b3cbfade86284670da2aa2e8fb51a061488574253051",
          "transactionIndex": "0xcc",
          "logIndex": "0x133",
          "removed": false
        }
      ],
      "logsBloom": "0x00000000000000000000000000000000000000000600000000000000000000000000000000000000000000000000000000000000000000004000000000000000000000000000004000000008000000000000000000000000000000000000000000000000020000000000000000000800020000000000000000000010000000000000000000000000000000000000000000000000000000000000010000000000000000000000000000000000000000004000000000000000000000000000000000000002000000800000000000000000000000000000080000000000000020000000000000000000000000000000000000000000000000000000000000000000",
      "type": "0x2",
      "transactionHash": "0x2281dbb60a8792087a29b3cbfade86284670da2aa2e8fb51a061488574253051",
      "transactionIndex": "0xcc",
      "blockHash": "0x9b9a4f38ced820a9f535be72bbfb3775f33845d9d8e986a5103d6fe26a5bc586",
      "blockNumber": "0x731d0e",
      "gasUsed": "0xfd1b",
      "effectiveGasPrice": "0x5314ec95",
      "from": "0xc77f7fed3b5cc8249adc428c5f44c9063b9734b4",
      "to": "0x8aafd3ede9adb0ff97c7aebce82a919afb1c8764",
      "contractAddress": null
    }
  ],
  "libraries": [],
  "pending": [],
  "returns": {},
  "timestamp": 1737513362,
  "chain": 11155111,
  "commit": "1d2fb70"
}