{
  "transactions": [
    {
      "hash": "0xbd54e171a829d00461335780c04c2df58d7bdeda940964116234759ca74832de",
      "transactionType": "CALL",
      "contractName": null,
      "contractAddress": "0x5eb9cc76c3506942c1c0ead70e877dd5e4f00cb0",
      "function": "sell(uint256)",
      "arguments": [
        "989613426590087789278"
      ],
      "transaction": {
        "from": "0xc77f7fed3b5cc8249adc428c5f44c9063b9734b4",
        "to": "0x5eb9cc76c3506942c1c0ead70e877dd5e4f00cb0",
        "gas": "0x16fec",
        "value": "0x0",
        "input": "0xe4849b32000000000000000000000000000000000000000000000035a5a528497b4a3ade",
        "nonce": "0x25b",
        "chainId": "0xaa36a7"
      },
      "additionalContracts": [],
      "isFixedGasLimit": false
    }
  ],
  "receipts": [
    {
      "status": "0x1",
      "cumulativeGasUsed": "0x117f737",
      "logs": [
        {
          "address": "0x5eb9cc76c3506942c1c0ead70e877dd5e4f00cb0",
          "topics": [
            "0xddf252ad1be2c89b69c2b068fc378daa952ba7f163c4a11628f55a4df523b3ef",
            "0x000000000000000000000000c77f7fed3b5cc8249adc428c5f44c9063b9734b4",
            "0x0000000000000000000000000000000000000000000000000000000000000000"
          ],
          "data": "0x000000000000000000000000000000000000000000000035a5a528497b4a3ade",
          "blockHash": "0xd7afdc8a6f4529f8ffa87d8bf83781085ea307feea952d6c5db9e888aeb8ffba",
          "blockNumber": "0x724e16",
          "transactionHash": "0xbd54e171a829d00461335780c04c2df58d7bdeda940964116234759ca74832de",
          "transactionIndex": "0x65",
          "logIndex": "0x81",
          "removed": false
        },
        {
          "address": "0x5eb9cc76c3506942c1c0ead70e877dd5e4f00cb0",
          "topics": [
            "0x4afcb4a87cdbd9974efdb92ee48bc8d7cd0ae4bf217004db3d080cbaee652ca7"
          ],
          "data": "0x0000000000000000000000000000000000000000000000000000000067869abc0000000000000000000000000000000000000000000000000003909c31cf16a30000000000000000000000000000000000000000000000000dc7db1183782dd8",
          "blockHash": "0xd7afdc8a6f4529f8ffa87d8bf83781085ea307feea952d6c5db9e888aeb8ffba",
          "blockNumber": "0x724e16",
          "transactionHash": "0xbd54e171a829d00461335780c04c2df58d7bdeda940964116234759ca74832de",
          "transactionIndex": "0x65",
          "logIndex": "0x82",
          "removed": false
        }
      ],
      "logsBloom": "0x00000000000000000000000000000000000000000000000000000000000000000000000000000000000000000000000000000000000000004000000000000000000000000000000000000008000000000000000000000000000000000000000000000000020000000000000004000800020000000000000000000010000000000000000000000000000000000000000000000000000000000000010000000000000000000000000000000000000000004000000000000000000000000000020000000002000000800000008000000000000000000000080000000000000020000000000000000000000000000000000000000000000000000000000000000000",
      "type": "0x2",
      "transactionHash": "0xbd54e171a829d00461335780c04c2df58d7bdeda940964116234759ca74832de",
      "transactionIndex": "0x65",
      "blockHash": "0xd7afdc8a6f4529f8ffa87d8bf83781085ea307feea952d6c5db9e888aeb8ffba",
      "blockNumber": "0x724e16",
      "gasUsed": "0xfb93",
      "effectiveGasPrice": "0x350da41d4",
      "from": "0xc77f7fed3b5cc8249adc428c5f44c9063b9734b4",
      "to": "0x5eb9cc76c3506942c1c0ead70e877dd5e4f00cb0",
      "contractAddress": null
    }
  ],
  "libraries": [],
  "pending": [],
  "returns": {},
  "timestamp": 1736874685,
  "chain": 11155111,
  "commit": "51a374b"
}