{
  "transactions": [
    {
      "hash": "0xa85fc766f31a590614a1e46382ca8dd0c606a6b59f7385ef020def9712652bd4",
      "transactionType": "CALL",
      "contractName": null,
      "contractAddress": "0x8aafd3ede9adb0ff97c7aebce82a919afb1c8764",
      "function": "buy(address)",
      "arguments": [
        "0xC77f7fed3b5Cc8249aDc428c5F44C9063B9734b4"
      ],
      "transaction": {
        "from": "0xc77f7fed3b5cc8249adc428c5f44c9063b9734b4",
        "to": "0x8aafd3ede9adb0ff97c7aebce82a919afb1c8764",
        "gas": "0x156ea",
        "value": "0xde0b6b3a7640000",
        "input": "0xf088d547000000000000000000000000c77f7fed3b5cc8249adc428c5f44c9063b9734b4",
        "nonce": "0x10c2",
        "chainId": "0xaa36a7"
      },
      "additionalContracts": [],
      "isFixedGasLimit": false
    }
  ],
  "receipts": [
    {
      "status": "0x1",
      "cumulativeGasUsed": "0xd4a1e9",
      "logs": [
        {
          "address": "0x8aafd3ede9adb0ff97c7aebce82a919afb1c8764",
          "topics": [
            "0xddf252ad1be2c89b69c2b068fc378daa952ba7f163c4a11628f55a4df523b3ef",
            "0x0000000000000000000000000000000000000000000000000000000000000000",
            "0x000000000000000000000000c77f7fed3b5cc8249adc428c5f44c9063b9734b4"
          ],
          "data": "0x00000000000000000000000000000000000000000000002612fc9e5779d4595b",
          "blockHash": "0x89780d5dbdf311b065333ce0dede7b26a4f4aa3782ddcbca6a68b6ae46ec76e0",
          "blockNumber": "0x73175c",
          "transactionHash": "0xa85fc766f31a590614a1e46382ca8dd0c606a6b59f7385ef020def9712652bd4",
          "transactionIndex": "0x89",
          "logIndex": "0xdd",
          "removed": false
        },
        {
          "address": "0x8aafd3ede9adb0ff97c7aebce82a919afb1c8764",
          "topics": [
            "0xddf252ad1be2c89b69c2b068fc378daa952ba7f163c4a11628f55a4df523b3ef",
            "0x0000000000000000000000000000000000000000000000000000000000000000",
            "0x000000000000000000000000c77f7fed3b5cc8249adc428c5f44c9063b9734b4"
          ],
          "data": "0x0000000000000000000000000000000000000000000000001d90de225aedd02c",
          "blockHash": "0x89780d5dbdf311b065333ce0dede7b26a4f4aa3782ddcbca6a68b6ae46ec76e0",
          "blockNumber": "0x73175c",
          "transactionHash": "0xa85fc766f31a590614a1e46382ca8dd0c606a6b59f7385ef020def9712652bd4",
          "transactionIndex": "0x89",
          "logIndex": "0xde",
          "removed": false
        },
        {
          "address": "0x8aafd3ede9adb0ff97c7aebce82a919afb1c8764",
          "topics": [
            "0x4afcb4a87cdbd9974efdb92ee48bc8d7cd0ae4bf217004db3d080cbaee652ca7"
          ],
          "data": "0x000000000000000000000000000000000000000000000000000000006790151400000000000000000000000000000000000000000000000000050266b41d8e710000000000000000000000000000000000000000000000000de0b6b3a7640000",
          "blockHash": "0x89780d5dbdf311b065333ce0dede7b26a4f4aa3782ddcbca6a68b6ae46ec76e0",
          "blockNumber": "0x73175c",
          "transactionHash": "0xa85fc766f31a590614a1e46382ca8dd0c606a6b59f7385ef020def9712652bd4",
          "transactionIndex": "0x89",
          "logIndex": "0xdf",
          "removed": false
        }
      ],
      "logsBloom": "0x00000000000000000000000000000000000000000600000000000000000000000000000000000000000000000000000000000000000000004000000000000000000000000000004000000008000000000000000000000000000000000000000000000000020000000000000000000800020000000000000000000010000000000000000000000000000000000000000000000000000000000000010000000000000000000000000000000000000000004000000000000000000000000000000000000002000000800000000000000000000000000000080000000000000020000000000000000000000000000000000000000000000000000000000000000000",
      "type": "0x2",
      "transactionHash": "0xa85fc766f31a590614a1e46382ca8dd0c606a6b59f7385ef020def9712652bd4",
      "transactionIndex": "0x89",
      "blockHash": "0x89780d5dbdf311b065333ce0dede7b26a4f4aa3782ddcbca6a68b6ae46ec76e0",
      "blockNumber": "0x73175c",
      "gasUsed": "0xf844",
      "effectiveGasPrice": "0x3608fa4f",
      "from": "0xc77f7fed3b5cc8249adc428c5f44c9063b9734b4",
      "to": "0x8aafd3ede9adb0ff97c7aebce82a919afb1c8764",
      "contractAddress": null
    }
  ],
  "libraries": [],
  "pending": [],
  "returns": {},
  "timestamp": 1737495829,
  "chain": 11155111,
  "commit": "1d2fb70"
}