{
  "transactions": [
    {
      "hash": "0x8a871916f2f1170ec165368d88a22a74259e826fcc64a13e4673d8fafbc2ed70",
      "transactionType": "CALL",
      "contractName": null,
      "contractAddress": "0xbf4a322f1496e5c3d34a9bcdb4c60567b38c7de2",
      "function": "sell(uint256)",
      "arguments": [
        "978297071937493083605"
      ],
      "transaction": {
        "from": "0xc77f7fed3b5cc8249adc428c5f44c9063b9734b4",
        "to": "0xbf4a322f1496e5c3d34a9bcdb4c60567b38c7de2",
        "gas": "0x16fea",
        "value": "0x0",
        "input": "0xe4849b32000000000000000000000000000000000000000000000035089963afe70b25d5",
        "nonce": "0xc97",
        "chainId": "0xaa36a7"
      },
      "additionalContracts": [],
      "isFixedGasLimit": false
    }
  ],
  "receipts": [
    {
      "status": "0x1",
      "cumulativeGasUsed": "0x9c9f09",
      "logs": [
        {
          "address": "0xbf4a322f1496e5c3d34a9bcdb4c60567b38c7de2",
          "topics": [
            "0xddf252ad1be2c89b69c2b068fc378daa952ba7f163c4a11628f55a4df523b3ef",
            "0x000000000000000000000000c77f7fed3b5cc8249adc428c5f44c9063b9734b4",
            "0x0000000000000000000000000000000000000000000000000000000000000000"
          ],
          "data": "0x000000000000000000000000000000000000000000000035089963afe70b25d5",
          "blockHash": "0x46eb06059ee9ea11709a93c58c7544dce88549832df71af23a5416ad161412c3",
          "blockNumber": "0x725cdf",
          "transactionHash": "0x8a871916f2f1170ec165368d88a22a74259e826fcc64a13e4673d8fafbc2ed70",
          "transactionIndex": "0x5d",
          "logIndex": "0xb0",
          "removed": false
        },
        {
          "address": "0xbf4a322f1496e5c3d34a9bcdb4c60567b38c7de2",
          "topics": [
            "0x4afcb4a87cdbd9974efdb92ee48bc8d7cd0ae4bf217004db3d080cbaee652ca7"
          ],
          "data": "0x0000000000000000000000000000000000000000000000000000000067874ce800000000000000000000000000000000000000000000000000039b310f0730990000000000000000000000000000000000000000000000000dc7e3de1b60f980",
          "blockHash": "0x46eb06059ee9ea11709a93c58c7544dce88549832df71af23a5416ad161412c3",
          "blockNumber": "0x725cdf",
          "transactionHash": "0x8a871916f2f1170ec165368d88a22a74259e826fcc64a13e4673d8fafbc2ed70",
          "transactionIndex": "0x5d",
          "logIndex": "0xb1",
          "removed": false
        }
      ],
      "logsBloom": "0x00000000000000000000000000000000000000000000000000000000000000000000000000000000000000000000000000000000000000004000000000000000000000000000000000000008000000000000001000000000000000000000000000000000020000000000000000000800020000000000000000000010000000000000000000000000000000000000000000000000000008000000010000000000000000000000000000000000000000004000000000000000000000000000000000000002000000800000000000001000000000000000080000000000000020000000000000000000000000000000000000000000000000000000000000000000",
      "type": "0x2",
      "transactionHash": "0x8a871916f2f1170ec165368d88a22a74259e826fcc64a13e4673d8fafbc2ed70",
      "transactionIndex": "0x5d",
      "blockHash": "0x46eb06059ee9ea11709a93c58c7544dce88549832df71af23a5416ad161412c3",
      "blockNumber": "0x725cdf",
      "gasUsed": "0xfb91",
      "effectiveGasPrice": "0x27188df8c",
      "from": "0xc77f7fed3b5cc8249adc428c5f44c9063b9734b4",
      "to": "0xbf4a322f1496e5c3d34a9bcdb4c60567b38c7de2",
      "contractAddress": null
    }
  ],
  "libraries": [],
  "pending": [],
  "returns": {},
  "timestamp": 1736920297,
  "chain": 11155111,
  "commit": "51a374b"
}