{
  "transactions": [
    {
      "hash": "0x4b21e82d52545127f0c8b121b9979a82c44c89645f57fd75ea660075adce565c",
      "transactionType": "CALL",
      "contractName": null,
      "contractAddress": "0xbf4a322f1496e5c3d34a9bcdb4c60567b38c7de2",
      "function": "buy(address)",
      "arguments": [
        "0xC77f7fed3b5Cc8249aDc428c5F44C9063B9734b4"
      ],
      "transaction": {
        "from": "0xc77f7fed3b5cc8249adc428c5f44c9063b9734b4",
        "to": "0xbf4a322f1496e5c3d34a9bcdb4c60567b38c7de2",
        "gas": "0x1b309",
        "value": "0xde0b6b3a7640000",
        "input": "0xf088d547000000000000000000000000c77f7fed3b5cc8249adc428c5f44c9063b9734b4",
        "nonce": "0xb22",
        "chainId": "0xaa36a7"
      },
      "additionalContracts": [],
      "isFixedGasLimit": false
    }
  ],
  "receipts": [
    {
      "status": "0x1",
      "cumulativeGasUsed": "0xc618d9",
      "logs": [
        {
          "address": "0xbf4a322f1496e5c3d34a9bcdb4c60567b38c7de2",
          "topics": [
            "0xddf252ad1be2c89b69c2b068fc378daa952ba7f163c4a11628f55a4df523b3ef",
            "0x0000000000000000000000000000000000000000000000000000000000000000",
            "0x000000000000000000000000c77f7fed3b5cc8249adc428c5f44c9063b9734b4"
          ],
          "data": "0x00000000000000000000000000000000000000000000003524c24bce81aa7a19",
          "blockHash": "0x094d578bf6715215b1bdf60fb458462ea684103183906f5dd19e58ca17416040",
          "blockNumber": "0x725b1d",
          "transactionHash": "0x4b21e82d52545127f0c8b121b9979a82c44c89645f57fd75ea660075adce565c",
          "transactionIndex": "0x4f",
          "logIndex": "0x5d",
          "removed": false
        },
        {
          "address": "0xbf4a322f1496e5c3d34a9bcdb4c60567b38c7de2",
          "topics": [
            "0xddf252ad1be2c89b69c2b068fc378daa952ba7f163c4a11628f55a4df523b3ef",
            "0x0000000000000000000000000000000000000000000000000000000000000000",
            "0x000000000000000000000000c77f7fed3b5cc8249adc428c5f44c9063b9734b4"
          ],
          "data": "0x00000000000000000000000000000000000000000000000029448f349594bfed",
          "blockHash": "0x094d578bf6715215b1bdf60fb458462ea684103183906f5dd19e58ca17416040",
          "blockNumber": "0x725b1d",
          "transactionHash": "0x4b21e82d52545127f0c8b121b9979a82c44c89645f57fd75ea660075adce565c",
          "transactionIndex": "0x4f",
          "logIndex": "0x5e",
          "removed": false
        },
        {
          "address": "0xbf4a322f1496e5c3d34a9bcdb4c60567b38c7de2",
          "topics": [
            "0x4afcb4a87cdbd9974efdb92ee48bc8d7cd0ae4bf217004db3d080cbaee652ca7"
          ],
          "data": "0x00000000000000000000000000000000000000000000000000000000678737b80000000000000000000000000000000000000000000000000003967a87f0df160000000000000000000000000000000000000000000000000de0b6b3a7640000",
          "blockHash": "0x094d578bf6715215b1bdf60fb458462ea684103183906f5dd19e58ca17416040",
          "blockNumber": "0x725b1d",
          "transactionHash": "0x4b21e82d52545127f0c8b121b9979a82c44c89645f57fd75ea660075adce565c",
          "transactionIndex": "0x4f",
          "logIndex": "0x5f",
          "removed": false
        }
      ],
      "logsBloom": "0x00000000000000000000000000000000000000000000000000000000000000000000000000000000000000000000000000000000000000004000000000000000000000000000000000000008000000000000001000000000000000000000000000000000020000000000000000000800020000000000000000000010000000000000000000000000000000000000000000000000000008000000010000000000000000000000000000000000000000004000000000000000000000000000000000000002000000800000000000001000000000000000080000000000000020000000000000000000000000000000000000000000000000000000000000000000",
      "type": "0x2",
      "transactionHash": "0x4b21e82d52545127f0c8b121b9979a82c44c89645f57fd75ea660075adce565c",
      "transactionIndex": "0x4f",
      "blockHash": "0x094d578bf6715215b1bdf60fb458462ea684103183906f5dd19e58ca17416040",
      "blockNumber": "0x725b1d",
      "gasUsed": "0x13af6",
      "effectiveGasPrice": "0x76103239",
      "from": "0xc77f7fed3b5cc8249adc428c5f44c9063b9734b4",
      "to": "0xbf4a322f1496e5c3d34a9bcdb4c60567b38c7de2",
      "contractAddress": null
    }
  ],
  "libraries": [],
  "pending": [],
  "returns": {},
  "timestamp": 1736914874,
  "chain": 11155111,
  "commit": "51a374b"
}