{
  "transactions": [
    {
      "hash": "0xbe345a3bd7f89e61ec46b2d97c1539b32ab04ba4a564f42d69dc3838472b1052",
      "transactionType": "CALL",
      "contractName": null,
      "contractAddress": "0x5eb9cc76c3506942c1c0ead70e877dd5e4f00cb0",
      "function": "buy(address)",
      "arguments": [
        "0xC77f7fed3b5Cc8249aDc428c5F44C9063B9734b4"
      ],
      "transaction": {
        "from": "0xc77f7fed3b5cc8249adc428c5f44c9063b9734b4",
        "to": "0x5eb9cc76c3506942c1c0ead70e877dd5e4f00cb0",
        "gas": "0x1b30c",
        "value": "0xde0b6b3a7640000",
        "input": "0xf088d547000000000000000000000000c77f7fed3b5cc8249adc428c5f44c9063b9734b4",
        "nonce": "0x27a",
        "chainId": "0xaa36a7"
      },
      "additionalContracts": [],
      "isFixedGasLimit": false
    }
  ],
  "receipts": [
    {
      "status": "0x1",
      "cumulativeGasUsed": "0xaf5628",
      "logs": [
        {
          "address": "0x5eb9cc76c3506942c1c0ead70e877dd5e4f00cb0",
          "topics": [
            "0xddf252ad1be2c89b69c2b068fc378daa952ba7f163c4a11628f55a4df523b3ef",
            "0x0000000000000000000000000000000000000000000000000000000000000000",
            "0x000000000000000000000000c77f7fed3b5cc8249adc428c5f44c9063b9734b4"
          ],
          "data": "0x00000000000000000000000000000000000000000000003575de5c1fcc026e06",
          "blockHash": "0x29d478508515faeec1900673e807124b23f2e7728d5ff58a1bd588194e0bc8a6",
          "blockNumber": "0x724e46",
          "transactionHash": "0xbe345a3bd7f89e61ec46b2d97c1539b32ab04ba4a564f42d69dc3838472b1052",
          "transactionIndex": "0x5b",
          "logIndex": "0xb5",
          "removed": false
        },
        {
          "address": "0x5eb9cc76c3506942c1c0ead70e877dd5e4f00cb0",
          "topics": [
            "0xddf252ad1be2c89b69c2b068fc378daa952ba7f163c4a11628f55a4df523b3ef",
            "0x0000000000000000000000000000000000000000000000000000000000000000",
            "0x000000000000000000000000c77f7fed3b5cc8249adc428c5f44c9063b9734b4"
          ],
          "data": "0x00000000000000000000000000000000000000000000000029838b358b985b08",
          "blockHash": "0x29d478508515faeec1900673e807124b23f2e7728d5ff58a1bd588194e0bc8a6",
          "blockNumber": "0x724e46",
          "transactionHash": "0xbe345a3bd7f89e61ec46b2d97c1539b32ab04ba4a564f42d69dc3838472b1052",
          "transactionIndex": "0x5b",
          "logIndex": "0xb6",
          "removed": false
        },
        {
          "address": "0x5eb9cc76c3506942c1c0ead70e877dd5e4f00cb0",
          "topics": [
            "0x4afcb4a87cdbd9974efdb92ee48bc8d7cd0ae4bf217004db3d080cbaee652ca7"
          ],
          "data": "0x0000000000000000000000000000000000000000000000000000000067869cfc00000000000000000000000000000000000000000000000000039106bcae2fab0000000000000000000000000000000000000000000000000de0b6b3a7640000",
          "blockHash": "0x29d478508515faeec1900673e807124b23f2e7728d5ff58a1bd588194e0bc8a6",
          "blockNumber": "0x724e46",
          "transactionHash": "0xbe345a3bd7f89e61ec46b2d97c1539b32ab04ba4a564f42d69dc3838472b1052",
          "transactionIndex": "0x5b",
          "logIndex": "0xb7",
          "removed": false
        }
      ],
      "logsBloom": "0x00000000000000000000000000000000000000000000000000000000000000000000000000000000000000000000000000000000000000004000000000000000000000000000000000000008000000000000000000000000000000000000000000000000020000000000000004000800020000000000000000000010000000000000000000000000000000000000000000000000000000000000010000000000000000000000000000000000000000004000000000000000000000000000020000000002000000800000008000000000000000000000080000000000000020000000000000000000000000000000000000000000000000000000000000000000",
      "type": "0x2",
      "transactionHash": "0xbe345a3bd7f89e61ec46b2d97c1539b32ab04ba4a564f42d69dc3838472b1052",
      "transactionIndex": "0x5b",
      "blockHash": "0x29d478508515faeec1900673e807124b23f2e7728d5ff58a1bd588194e0bc8a6",
      "blockNumber": "0x724e46",
      "gasUsed": "0x13af8",
      "effectiveGasPrice": "0x3cda69f5c",
      "from": "0xc77f7fed3b5cc8249adc428c5f44c9063b9734b4",
      "to": "0x5eb9cc76c3506942c1c0ead70e877dd5e4f00cb0",
      "contractAddress": null
    }
  ],
  "libraries": [],
  "pending": [],
  "returns": {},
  "timestamp": 1736875260,
  "chain": 11155111,
  "commit": "51a374b"
}