{
  "transactions": [
    {
      "hash": "0x16f08a1842f54d55e4107e64b4af85a3b4be52f78559a14409dea95a08fe5daf",
      "transactionType": "CALL",
      "contractName": null,
      "contractAddress": "0x270e88f8683660553e8ba4eb2ad7c91a1710d769",
      "function": "buy(address)",
      "arguments": [
        "0xC77f7fed3b5Cc8249aDc428c5F44C9063B9734b4"
      ],
      "transaction": {
        "from": "0xc77f7fed3b5cc8249adc428c5f44c9063b9734b4",
        "to": "0x270e88f8683660553e8ba4eb2ad7c91a1710d769",
        "gas": "0x1b30c",
        "value": "0xde0b6b3a7640000",
        "input": "0xf088d547000000000000000000000000c77f7fed3b5cc8249adc428c5f44c9063b9734b4",
        "nonce": "0x8ab",
        "chainId": "0xaa36a7"
      },
      "additionalContracts": [],
      "isFixedGasLimit": false
    }
  ],
  "receipts": [
    {
      "status": "0x1",
      "cumulativeGasUsed": "0xd8ec9f",
      "logs": [
        {
          "address": "0x270e88f8683660553e8ba4eb2ad7c91a1710d769",
          "topics": [
            "0xddf252ad1be2c89b69c2b068fc378daa952ba7f163c4a11628f55a4df523b3ef",
            "0x0000000000000000000000000000000000000000000000000000000000000000",
            "0x000000000000000000000000c77f7fed3b5cc8249adc428c5f44c9063b9734b4"
          ],
          "data": "0x0000000000000000000000000000000000000000000000264c891651442f64c9",
          "blockHash": "0xc07f18128aa9a3cab871d69c7edccf140f11a9338cce66cf976500cf2bbe9bf5",
          "blockNumber": "0x72560a",
          "transactionHash": "0x16f08a1842f54d55e4107e64b4af85a3b4be52f78559a14409dea95a08fe5daf",
          "transactionIndex": "0x37",
          "logIndex": "0x117",
          "removed": false
        },
        {
          "address": "0x270e88f8683660553e8ba4eb2ad7c91a1710d769",
          "topics": [
            "0xddf252ad1be2c89b69c2b068fc378daa952ba7f163c4a11628f55a4df523b3ef",
            "0x0000000000000000000000000000000000000000000000000000000000000000",
            "0x000000000000000000000000c77f7fed3b5cc8249adc428c5f44c9063b9734b4"
          ],
          "data": "0x0000000000000000000000000000000000000000000000001dbd8e660cd55162",
          "blockHash": "0xc07f18128aa9a3cab871d69c7edccf140f11a9338cce66cf976500cf2bbe9bf5",
          "blockNumber": "0x72560a",
          "transactionHash": "0x16f08a1842f54d55e4107e64b4af85a3b4be52f78559a14409dea95a08fe5daf",
          "transactionIndex": "0x37",
          "logIndex": "0x118",
          "removed": false
        },
        {
          "address": "0x270e88f8683660553e8ba4eb2ad7c91a1710d769",
          "topics": [
            "0x4afcb4a87cdbd9974efdb92ee48bc8d7cd0ae4bf217004db3d080cbaee652ca7"
          ],
          "data": "0x000000000000000000000000000000000000000000000000000000006786fa800000000000000000000000000000000000000000000000000004fa9261b755c30000000000000000000000000000000000000000000000000de0b6b3a7640000",
          "blockHash": "0xc07f18128aa9a3cab871d69c7edccf140f11a9338cce66cf976500cf2bbe9bf5",
          "blockNumber": "0x72560a",
          "transactionHash": "0x16f08a1842f54d55e4107e64b4af85a3b4be52f78559a14409dea95a08fe5daf",
          "transactionIndex": "0x37",
          "logIndex": "0x119",
          "removed": false
        }
      ],
      "logsBloom": "0x00000000000000000000000000000000000000000000000000000000000000000000000000000000000000000000000020000000000000004000000000000000000000000000000000000008000000000000000000000000000000000000000000000000020000000000000000000800020000000000000000000010000000000000000000010000000000000000000000000000000000000000010000000000000000000000000000000000000000004000000000000000000000000000000000000002000000800000000000000000000000000000080000008000000020000000000000000000000000000000000000000000000000000000000000000000",
      "type": "0x2",
      "transactionHash": "0x16f08a1842f54d55e4107e64b4af85a3b4be52f78559a14409dea95a08fe5daf",
      "transactionIndex": "0x37",
      "blockHash": "0xc07f18128aa9a3cab871d69c7edccf140f11a9338cce66cf976500cf2bbe9bf5",
      "blockNumber": "0x72560a",
      "gasUsed": "0x13af8",
      "effectiveGasPrice": "0x8785ea87",
      "from": "0xc77f7fed3b5cc8249adc428c5f44c9063b9734b4",
      "to": "0x270e88f8683660553e8ba4eb2ad7c91a1710d769",
      "contractAddress": null
    }
  ],
  "libraries": [],
  "pending": [],
  "returns": {},
  "timestamp": 1736899201,
  "chain": 11155111,
  "commit": "51a374b"
}