{
  "transactions": [
    {
      "hash": "0x2f9d98bae37c6dfac22120e633f4b6cf064e950ae0e545f081c1841df13df19f",
      "transactionType": "CALL",
      "contractName": null,
      "contractAddress": "0x270e88f8683660553e8ba4eb2ad7c91a1710d769",
      "function": "buy(address)",
      "arguments": [
        "0xC77f7fed3b5Cc8249aDc428c5F44C9063B9734b4"
      ],
      "transaction": {
        "from": "0xc77f7fed3b5cc8249adc428c5f44c9063b9734b4",
        "to": "0x270e88f8683660553e8ba4eb2ad7c91a1710d769",
        "gas": "0x1b30c",
        "value": "0xde0b6b3a7640000",
        "input": "0xf088d547000000000000000000000000c77f7fed3b5cc8249adc428c5f44c9063b9734b4",
        "nonce": "0x763",
        "chainId": "0xaa36a7"
      },
      "additionalContracts": [],
      "isFixedGasLimit": false
    }
  ],
  "receipts": [
    {
      "status": "0x1",
      "cumulativeGasUsed": "0xe489c2",
      "logs": [
        {
          "address": "0x270e88f8683660553e8ba4eb2ad7c91a1710d769",
          "topics": [
            "0xddf252ad1be2c89b69c2b068fc378daa952ba7f163c4a11628f55a4df523b3ef",
            "0x0000000000000000000000000000000000000000000000000000000000000000",
            "0x000000000000000000000000c77f7fed3b5cc8249adc428c5f44c9063b9734b4"
          ],
          "data": "0x000000000000000000000000000000000000000000000027cca484f50393199a",
          "blockHash": "0x51b0dac5f446aa64168383930ced11deef7cf9d3899b665298b2abeffd3fd1d8",
          "blockNumber": "0x72548c",
          "transactionHash": "0x2f9d98bae37c6dfac22120e633f4b6cf064e950ae0e545f081c1841df13df19f",
          "transactionIndex": "0x3d",
          "logIndex": "0x52",
          "removed": false
        },
        {
          "address": "0x270e88f8683660553e8ba4eb2ad7c91a1710d769",
          "topics": [
            "0xddf252ad1be2c89b69c2b068fc378daa952ba7f163c4a11628f55a4df523b3ef",
            "0x0000000000000000000000000000000000000000000000000000000000000000",
            "0x000000000000000000000000c77f7fed3b5cc8249adc428c5f44c9063b9734b4"
          ],
          "data": "0x0000000000000000000000000000000000000000000000001ee7d41c1bb7b353",
          "blockHash": "0x51b0dac5f446aa64168383930ced11deef7cf9d3899b665298b2abeffd3fd1d8",
          "blockNumber": "0x72548c",
          "transactionHash": "0x2f9d98bae37c6dfac22120e633f4b6cf064e950ae0e545f081c1841df13df19f",
          "transactionIndex": "0x3d",
          "logIndex": "0x53",
          "removed": false
        },
        {
          "address": "0x270e88f8683660553e8ba4eb2ad7c91a1710d769",
          "topics": [
            "0x4afcb4a87cdbd9974efdb92ee48bc8d7cd0ae4bf217004db3d080cbaee652ca7"
          ],
          "data": "0x000000000000000000000000000000000000000000000000000000006786e8980000000000000000000000000000000000000000000000000004ca86622043e70000000000000000000000000000000000000000000000000de0b6b3a7640000",
          "blockHash": "0x51b0dac5f446aa64168383930ced11deef7cf9d3899b665298b2abeffd3fd1d8",
          "blockNumber": "0x72548c",
          "transactionHash": "0x2f9d98bae37c6dfac22120e633f4b6cf064e950ae0e545f081c1841df13df19f",
          "transactionIndex": "0x3d",
          "logIndex": "0x54",
          "removed": false
        }
      ],
      "logsBloom": "0x00000000000000000000000000000000000000000000000000000000000000000000000000000000000000000000000020000000000000004000000000000000000000000000000000000008000000000000000000000000000000000000000000000000020000000000000000000800020000000000000000000010000000000000000000010000000000000000000000000000000000000000010000000000000000000000000000000000000000004000000000000000000000000000000000000002000000800000000000000000000000000000080000008000000020000000000000000000000000000000000000000000000000000000000000000000",
      "type": "0x2",
      "transactionHash": "0x2f9d98bae37c6dfac22120e633f4b6cf064e950ae0e545f081c1841df13df19f",
      "transactionIndex": "0x3d",
      "blockHash": "0x51b0dac5f446aa64168383930ced11deef7cf9d3899b665298b2abeffd3fd1d8",
      "blockNumber": "0x72548c",
      "gasUsed": "0x13af8",
      "effectiveGasPrice": "0x14876b9d6",
      "from": "0xc77f7fed3b5cc8249adc428c5f44c9063b9734b4",
      "to": "0x270e88f8683660553e8ba4eb2ad7c91a1710d769",
      "contractAddress": null
    }
  ],
  "libraries": [],
  "pending": [],
  "returns": {},
  "timestamp": 1736894618,
  "chain": 11155111,
  "commit": "51a374b"
}