{
  "transactions": [
    {
      "hash": "0x8429ebc628c720c26314fd72f5addf2548b8f16cdb7aca98640708f0cccda4de",
      "transactionType": "CALL",
      "contractName": null,
      "contractAddress": "0x8aafd3ede9adb0ff97c7aebce82a919afb1c8764",
      "function": "sell(uint256)",
      "arguments": [
        "1446255"
      ],
      "transaction": {
        "from": "0xc77f7fed3b5cc8249adc428c5f44c9063b9734b4",
        "to": "0x8aafd3ede9adb0ff97c7aebce82a919afb1c8764",
        "gas": "0x16208",
        "value": "0x0",
        "input": "0xe4849b32000000000000000000000000000000000000000000000000000000000016116f",
        "nonce": "0x1188",
        "chainId": "0xaa36a7"
      },
      "additionalContracts": [],
      "isFixedGasLimit": false
    }
  ],
  "receipts": [
    {
      "status": "0x1",
      "cumulativeGasUsed": "0xbddfcf",
      "logs": [
        {
          "address": "0x8aafd3ede9adb0ff97c7aebce82a919afb1c8764",
          "topics": [
            "0xddf252ad1be2c89b69c2b068fc378daa952ba7f163c4a11628f55a4df523b3ef",
            "0x000000000000000000000000c77f7fed3b5cc8249adc428c5f44c9063b9734b4",
            "0x0000000000000000000000000000000000000000000000000000000000000000"
          ],
          "data": "0x000000000000000000000000000000000000000000000000000000000015e43d",
          "blockHash": "0x1d64570ce435da43c69449600f5a3a9fc2b4288fded1ef99e694f19d914d454f",
          "blockNumber": "0x73184b",
          "transactionHash": "0x8429ebc628c720c26314fd72f5addf2548b8f16cdb7aca98640708f0cccda4de",
          "transactionIndex": "0x9b",
          "logIndex": "0xbd",
          "removed": false
        },
        {
          "address": "0x8aafd3ede9adb0ff97c7aebce82a919afb1c8764",
          "topics": [
            "0xddf252ad1be2c89b69c2b068fc378daa952ba7f163c4a11628f55a4df523b3ef",
            "0x000000000000000000000000c77f7fed3b5cc8249adc428c5f44c9063b9734b4",
            "0x000000000000000000000000c77f7fed3b5cc8249adc428c5f44c9063b9734b4"
          ],
          "data": "0x0000000000000000000000000000000000000000000000000000000000002d32",
          "blockHash": "0x1d64570ce435da43c69449600f5a3a9fc2b4288fded1ef99e694f19d914d454f",
          "blockNumber": "0x73184b",
          "transactionHash": "0x8429ebc628c720c26314fd72f5addf2548b8f16cdb7aca98640708f0cccda4de",
          "transactionIndex": "0x9b",
          "logIndex": "0xbe",
          "removed": false
        },
        {
          "address": "0x8aafd3ede9adb0ff97c7aebce82a919afb1c8764",
          "topics": [
            "0x4afcb4a87cdbd9974efdb92ee48bc8d7cd0ae4bf217004db3d080cbaee652ca7"
          ],
          "data": "0x000000000000000000000000000000000000000000000000000000006790204800000000000000000000000000000000000000000000000000051f0b35fb817b0000000000000000000000000000000000000000000000000000000000000824",
          "blockHash": "0x1d64570ce435da43c69449600f5a3a9fc2b4288fded1ef99e694f19d914d454f",
          "blockNumber": "0x73184b",
          "transactionHash": "0x8429ebc628c720c26314fd72f5addf2548b8f16cdb7aca98640708f0cccda4de",
          "transactionIndex": "0x9b",
          "logIndex": "0xbf",
          "removed": false
        }
      ],
      "logsBloom": "0x00000000000000000000000000000000000000000600000000000000000000000000000000000000000000000000000000000000000000004000000000000000000000000000004000000008000000000000000000000000000000000000000000000000020000000000000000000800020000000000000000000010000000000000000000000000000000000000000000000000000000000000010000000000000000000000000000000000000000004000000000000000000000000000000000000002000000800000000000000000000000000000080000000000000020000000000000000000000000000000000000000000000000000000000000000000",
      "type": "0x2",
      "transactionHash": "0x8429ebc628c720c26314fd72f5addf2548b8f16cdb7aca98640708f0cccda4de",
      "transactionIndex": "0x9b",
      "blockHash": "0x1d64570ce435da43c69449600f5a3a9fc2b4288fded1ef99e694f19d914d454f",
      "blockNumber": "0x73184b",
      "gasUsed": "0xf213",
      "effectiveGasPrice": "0x3f6a7096",
      "from": "0xc77f7fed3b5cc8249adc428c5f44c9063b9734b4",
      "to": "0x8aafd3ede9adb0ff97c7aebce82a919afb1c8764",
      "contractAddress": null
    }
  ],
  "libraries": [],
  "pending": [],
  "returns": {},
  "timestamp": 1737498698,
  "chain": 11155111,
  "commit": "1d2fb70"
}