{
  "transactions": [
    {
      "hash": "0x8668a51737c93d2c96d2fa84f93d4b65f53f9755b141c3ebd362fdf49d1ca874",
      "transactionType": "CALL",
      "contractName": null,
      "contractAddress": "0xbf4a322f1496e5c3d34a9bcdb4c60567b38c7de2",
      "function": "buy(address)",
      "arguments": [
        "0xC77f7fed3b5Cc8249aDc428c5F44C9063B9734b4"
      ],
      "transaction": {
        "from": "0xc77f7fed3b5cc8249adc428c5f44c9063b9734b4",
        "to": "0xbf4a322f1496e5c3d34a9bcdb4c60567b38c7de2",
        "gas": "0x1b309",
        "value": "0xde0b6b3a7640000",
        "input": "0xf088d547000000000000000000000000c77f7fed3b5cc8249adc428c5f44c9063b9734b4",
        "nonce": "0xa94",
        "chainId": "0xaa36a7"
      },
      "additionalContracts": [],
      "isFixedGasLimit": false
    }
  ],
  "receipts": [
    {
      "status": "0x1",
      "cumulativeGasUsed": "0x8223a0",
      "logs": [
        {
          "address": "0xbf4a322f1496e5c3d34a9bcdb4c60567b38c7de2",
          "topics": [
            "0xddf252ad1be2c89b69c2b068fc378daa952ba7f163c4a11628f55a4df523b3ef",
            "0x0000000000000000000000000000000000000000000000000000000000000000",
            "0x000000000000000000000000c77f7fed3b5cc8249adc428c5f44c9063b9734b4"
          ],
          "data": "0x0000000000000000000000000000000000000000000000353f5e25eff4217ede",
          "blockHash": "0x7c99587962702fcd9e807b4ed680518295b8f7492142095c1a0c3ddc884974cf",
          "blockNumber": "0x725a79",
          "transactionHash": "0x8668a51737c93d2c96d2fa84f93d4b65f53f9755b141c3ebd362fdf49d1ca874",
          "transactionIndex": "0x57",
          "logIndex": "0x71",
          "removed": false
        },
        {
          "address": "0xbf4a322f1496e5c3d34a9bcdb4c60567b38c7de2",
          "topics": [
            "0xddf252ad1be2c89b69c2b068fc378daa952ba7f163c4a11628f55a4df523b3ef",
            "0x0000000000000000000000000000000000000000000000000000000000000000",
            "0x000000000000000000000000c77f7fed3b5cc8249adc428c5f44c9063b9734b4"
          ],
          "data": "0x000000000000000000000000000000000000000000000000295938d744c9c875",
          "blockHash": "0x7c99587962702fcd9e807b4ed680518295b8f7492142095c1a0c3ddc884974cf",
          "blockNumber": "0x725a79",
          "transactionHash": "0x8668a51737c93d2c96d2fa84f93d4b65f53f9755b141c3ebd362fdf49d1ca874",
          "transactionIndex": "0x57",
          "logIndex": "0x72",
          "removed": false
        },
        {
          "address": "0xbf4a322f1496e5c3d34a9bcdb4c60567b38c7de2",
          "topics": [
            "0x4afcb4a87cdbd9974efdb92ee48bc8d7cd0ae4bf217004db3d080cbaee652ca7"
          ],
          "data": "0x0000000000000000000000000000000000000000000000000000000067872ffc000000000000000000000000000000000000000000000000000394af8deed92f0000000000000000000000000000000000000000000000000de0b6b3a7640000",
          "blockHash": "0x7c99587962702fcd9e807b4ed680518295b8f7492142095c1a0c3ddc884974cf",
          "blockNumber": "0x725a79",
          "transactionHash": "0x8668a51737c93d2c96d2fa84f93d4b65f53f9755b141c3ebd362fdf49d1ca874",
          "transactionIndex": "0x57",
          "logIndex": "0x73",
          "removed": false
        }
      ],
      "logsBloom": "0x00000000000000000000000000000000000000000000000000000000000000000000000000000000000000000000000000000000000000004000000000000000000000000000000000000008000000000000001000000000000000000000000000000000020000000000000000000800020000000000000000000010000000000000000000000000000000000000000000000000000008000000010000000000000000000000000000000000000000004000000000000000000000000000000000000002000000800000000000001000000000000000080000000000000020000000000000000000000000000000000000000000000000000000000000000000",
      "type": "0x2",
      "transactionHash": "0x8668a51737c93d2c96d2fa84f93d4b65f53f9755b141c3ebd362fdf49d1ca874",
      "transactionIndex": "0x57",
      "blockHash": "0x7c99587962702fcd9e807b4ed680518295b8f7492142095c1a0c3ddc884974cf",
      "blockNumber": "0x725a79",
      "gasUsed": "0x13af6",
      "effectiveGasPrice": "0x1f6cfa068",
      "from": "0xc77f7fed3b5cc8249adc428c5f44c9063b9734b4",
      "to": "0xbf4a322f1496e5c3d34a9bcdb4c60567b38c7de2",
      "contractAddress": null
    }
  ],
  "libraries": [],
  "pending": [],
  "returns": {},
  "timestamp": 1736912893,
  "chain": 11155111,
  "commit": "51a374b"
}