{
  "transactions": [
    {
      "hash": "0x8bdc74a7fd7f02379c79a6f494925f3e56757a79341fb9d1fc3f1e400c9950e4",
      "transactionType": "CALL",
      "contractName": null,
      "contractAddress": "0x270e88f8683660553e8ba4eb2ad7c91a1710d769",
      "function": "buy(address)",
      "arguments": [
        "0xC77f7fed3b5Cc8249aDc428c5F44C9063B9734b4"
      ],
      "transaction": {
        "from": "0xc77f7fed3b5cc8249adc428c5f44c9063b9734b4",
        "to": "0x270e88f8683660553e8ba4eb2ad7c91a1710d769",
        "gas": "0x1b30c",
        "value": "0xde0b6b3a7640000",
        "input": "0xf088d547000000000000000000000000c77f7fed3b5cc8249adc428c5f44c9063b9734b4",
        "nonce": "0x5ba",
        "chainId": "0xaa36a7"
      },
      "additionalContracts": [],
      "isFixedGasLimit": false
    }
  ],
  "receipts": [
    {
      "status": "0x1",
      "cumulativeGasUsed": "0xad2924",
      "logs": [
        {
          "address": "0x270e88f8683660553e8ba4eb2ad7c91a1710d769",
          "topics": [
            "0xddf252ad1be2c89b69c2b068fc378daa952ba7f163c4a11628f55a4df523b3ef",
            "0x0000000000000000000000000000000000000000000000000000000000000000",
            "0x000000000000000000000000c77f7fed3b5cc8249adc428c5f44c9063b9734b4"
          ],
          "data": "0x000000000000000000000000000000000000000000000033c0e86d2f0803df10",
          "blockHash": "0x7a0fbfe5648d82554bd6b7abaac5e25e1786003d30bfe84d9ed29316bb083bff",
          "blockNumber": "0x725277",
          "transactionHash": "0x8bdc74a7fd7f02379c79a6f494925f3e56757a79341fb9d1fc3f1e400c9950e4",
          "transactionIndex": "0x42",
          "logIndex": "0x87",
          "removed": false
        },
        {
          "address": "0x270e88f8683660553e8ba4eb2ad7c91a1710d769",
          "topics": [
            "0xddf252ad1be2c89b69c2b068fc378daa952ba7f163c4a11628f55a4df523b3ef",
            "0x0000000000000000000000000000000000000000000000000000000000000000",
            "0x000000000000000000000000c77f7fed3b5cc8249adc428c5f44c9063b9734b4"
          ],
          "data": "0x00000000000000000000000000000000000000000000000028303a9a31060ba0",
          "blockHash": "0x7a0fbfe5648d82554bd6b7abaac5e25e1786003d30bfe84d9ed29316bb083bff",
          "blockNumber": "0x725277",
          "transactionHash": "0x8bdc74a7fd7f02379c79a6f494925f3e56757a79341fb9d1fc3f1e400c9950e4",
          "transactionIndex": "0x42",
          "logIndex": "0x88",
          "removed": false
        },
        {
          "address": "0x270e88f8683660553e8ba4eb2ad7c91a1710d769",
          "topics": [
            "0x4afcb4a87cdbd9974efdb92ee48bc8d7cd0ae4bf217004db3d080cbaee652ca7"
          ],
          "data": "0x000000000000000000000000000000000000000000000000000000006786cf840000000000000000000000000000000000000000000000000003af3e365a17150000000000000000000000000000000000000000000000000de0b6b3a7640000",
          "blockHash": "0x7a0fbfe5648d82554bd6b7abaac5e25e1786003d30bfe84d9ed29316bb083bff",
          "blockNumber": "0x725277",
          "transactionHash": "0x8bdc74a7fd7f02379c79a6f494925f3e56757a79341fb9d1fc3f1e400c9950e4",
          "transactionIndex": "0x42",
          "logIndex": "0x89",
          "removed": false
        }
      ],
      "logsBloom": "0x00000000000000000000000000000000000000000000000000000000000000000000000000000000000000000000000020000000000000004000000000000000000000000000000000000008000000000000000000000000000000000000000000000000020000000000000000000800020000000000000000000010000000000000000000010000000000000000000000000000000000000000010000000000000000000000000000000000000000004000000000000000000000000000000000000002000000800000000000000000000000000000080000008000000020000000000000000000000000000000000000000000000000000000000000000000",
      "type": "0x2",
      "transactionHash": "0x8bdc74a7fd7f02379c79a6f494925f3e56757a79341fb9d1fc3f1e400c9950e4",
      "transactionIndex": "0x42",
      "blockHash": "0x7a0fbfe5648d82554bd6b7abaac5e25e1786003d30bfe84d9ed29316bb083bff",
      "blockNumber": "0x725277",
      "gasUsed": "0x13af8",
      "effectiveGasPrice": "0x43780b24d",
      "from": "0xc77f7fed3b5cc8249adc428c5f44c9063b9734b4",
      "to": "0x270e88f8683660553e8ba4eb2ad7c91a1710d769",
      "contractAddress": null
    }
  ],
  "libraries": [],
  "pending": [],
  "returns": {},
  "timestamp": 1736888198,
  "chain": 11155111,
  "commit": "51a374b"
}