{
  "transactions": [
    {
      "hash": "0x2da80d70a98dfc56dfecfb59d37bc7e5705a19d1169c879572a82effa5e39952",
      "transactionType": "CALL",
      "contractName": null,
      "contractAddress": "0x5eb9cc76c3506942c1c0ead70e877dd5e4f00cb0",
      "function": "buy(address)",
      "arguments": [
        "0xC77f7fed3b5Cc8249aDc428c5F44C9063B9734b4"
      ],
      "transaction": {
        "from": "0xc77f7fed3b5cc8249adc428c5f44c9063b9734b4",
        "to": "0x5eb9cc76c3506942c1c0ead70e877dd5e4f00cb0",
        "gas": "0x1b30c",
        "value": "0xde0b6b3a7640000",
        "input": "0xf088d547000000000000000000000000c77f7fed3b5cc8249adc428c5f44c9063b9734b4",
        "nonce": "0x486",
        "chainId": "0xaa36a7"
      },
      "additionalContracts": [],
      "isFixedGasLimit": false
    }
  ],
  "receipts": [
    {
      "status": "0x1",
      "cumulativeGasUsed": "0x92397f",
      "logs": [
        {
          "address": "0x5eb9cc76c3506942c1c0ead70e877dd5e4f00cb0",
          "topics": [
            "0xddf252ad1be2c89b69c2b068fc378daa952ba7f163c4a11628f55a4df523b3ef",
            "0x0000000000000000000000000000000000000000000000000000000000000000",
            "0x000000000000000000000000c77f7fed3b5cc8249adc428c5f44c9063b9734b4"
          ],
          "data": "0x00000000000000000000000000000000000000000000003574b696d0964526b6",
          "blockHash": "0x2eae78ca12bcec463474a67f38c64890c7111193c8663b3f099453ce55b91b4c",
          "blockNumber": "0x7250b7",
          "transactionHash": "0x2da80d70a98dfc56dfecfb59d37bc7e5705a19d1169c879572a82effa5e39952",
          "transactionIndex": "0x4b",
          "logIndex": "0x6b",
          "removed": false
        },
        {
          "address": "0x5eb9cc76c3506942c1c0ead70e877dd5e4f00cb0",
          "topics": [
            "0xddf252ad1be2c89b69c2b068fc378daa952ba7f163c4a11628f55a4df523b3ef",
            "0x0000000000000000000000000000000000000000000000000000000000000000",
            "0x000000000000000000000000c77f7fed3b5cc8249adc428c5f44c9063b9734b4"
          ],
          "data": "0x0000000000000000000000000000000000000000000000002982a58878c99c94",
          "blockHash": "0x2eae78ca12bcec463474a67f38c64890c7111193c8663b3f099453ce55b91b4c",
          "blockNumber": "0x7250b7",
          "transactionHash": "0x2da80d70a98dfc56dfecfb59d37bc7e5705a19d1169c879572a82effa5e39952",
          "transactionIndex": "0x4b",
          "logIndex": "0x6c",
          "removed": false
        },
        {
          "address": "0x5eb9cc76c3506942c1c0ead70e877dd5e4f00cb0",
          "topics": [
            "0x4afcb4a87cdbd9974efdb92ee48bc8d7cd0ae4bf217004db3d080cbaee652ca7"
          ],
          "data": "0x000000000000000000000000000000000000000000000000000000006786ba600000000000000000000000000000000000000000000000000003911a7870c4710000000000000000000000000000000000000000000000000de0b6b3a7640000",
          "blockHash": "0x2eae78ca12bcec463474a67f38c64890c7111193c8663b3f099453ce55b91b4c",
          "blockNumber": "0x7250b7",
          "transactionHash": "0x2da80d70a98dfc56dfecfb59d37bc7e5705a19d1169c879572a82effa5e39952",
          "transactionIndex": "0x4b",
          "logIndex": "0x6d",
          "removed": false
        }
      ],
      "logsBloom": "0x00000000000000000000000000000000000000000000000000000000000000000000000000000000000000000000000000000000000000004000000000000000000000000000000000000008000000000000000000000000000000000000000000000000020000000000000004000800020000000000000000000010000000000000000000000000000000000000000000000000000000000000010000000000000000000000000000000000000000004000000000000000000000000000020000000002000000800000008000000000000000000000080000000000000020000000000000000000000000000000000000000000000000000000000000000000",
      "type": "0x2",
      "transactionHash": "0x2da80d70a98dfc56dfecfb59d37bc7e5705a19d1169c879572a82effa5e39952",
      "transactionIndex": "0x4b",
      "blockHash": "0x2eae78ca12bcec463474a67f38c64890c7111193c8663b3f099453ce55b91b4c",
      "blockNumber": "0x7250b7",
      "gasUsed": "0x13af8",
      "effectiveGasPrice": "0x23e949d6b",
      "from": "0xc77f7fed3b5cc8249adc428c5f44c9063b9734b4",
      "to": "0x5eb9cc76c3506942c1c0ead70e877dd5e4f00cb0",
      "contractAddress": null
    }
  ],
  "libraries": [],
  "pending": [],
  "returns": {},
  "timestamp": 1736882785,
  "chain": 11155111,
  "commit": "51a374b"
}