{
  "transactions": [
    {
      "hash": "0x523a7aa14a02c31d11250e32ebe0ba5d542f94431dc4ef51e01758ca1da4e709",
      "transactionType": "CALL",
      "contractName": null,
      "contractAddress": "0x270e88f8683660553e8ba4eb2ad7c91a1710d769",
      "function": "buy(address)",
      "arguments": [
        "0xC77f7fed3b5Cc8249aDc428c5F44C9063B9734b4"
      ],
      "transaction": {
        "from": "0xc77f7fed3b5cc8249adc428c5f44c9063b9734b4",
        "to": "0x270e88f8683660553e8ba4eb2ad7c91a1710d769",
        "gas": "0x1b30c",
        "value": "0xde0b6b3a7640000",
        "input": "0xf088d547000000000000000000000000c77f7fed3b5cc8249adc428c5f44c9063b9734b4",
        "nonce": "0x71d",
        "chainId": "0xaa36a7"
      },
      "additionalContracts": [],
      "isFixedGasLimit": false
    }
  ],
  "receipts": [
    {
      "status": "0x1",
      "cumulativeGasUsed": "0x37d426",
      "logs": [
        {
          "address": "0x270e88f8683660553e8ba4eb2ad7c91a1710d769",
          "topics": [
            "0xddf252ad1be2c89b69c2b068fc378daa952ba7f163c4a11628f55a4df523b3ef",
            "0x0000000000000000000000000000000000000000000000000000000000000000",
            "0x000000000000000000000000c77f7fed3b5cc8249adc428c5f44c9063b9734b4"
          ],
          "data": "0x0000000000000000000000000000000000000000000000282289abfb77428149",
          "blockHash": "0x03deb10f253db479041ac3f5adf79f3ffc4c5e1f3d308cdf6f6d136aa347e0f5",
          "blockNumber": "0x725439",
          "transactionHash": "0x523a7aa14a02c31d11250e32ebe0ba5d542f94431dc4ef51e01758ca1da4e709",
          "transactionIndex": "0x20",
          "logIndex": "0x3a",
          "removed": false
        },
        {
          "address": "0x270e88f8683660553e8ba4eb2ad7c91a1710d769",
          "topics": [
            "0xddf252ad1be2c89b69c2b068fc378daa952ba7f163c4a11628f55a4df523b3ef",
            "0x0000000000000000000000000000000000000000000000000000000000000000",
            "0x000000000000000000000000c77f7fed3b5cc8249adc428c5f44c9063b9734b4"
          ],
          "data": "0x0000000000000000000000000000000000000000000000001f2a876fcca50369",
          "blockHash": "0x03deb10f253db479041ac3f5adf79f3ffc4c5e1f3d308cdf6f6d136aa347e0f5",
          "blockNumber": "0x725439",
          "transactionHash": "0x523a7aa14a02c31d11250e32ebe0ba5d542f94431dc4ef51e01758ca1da4e709",
          "transactionIndex": "0x20",
          "logIndex": "0x3b",
          "removed": false
        },
        {
          "address": "0x270e88f8683660553e8ba4eb2ad7c91a1710d769",
          "topics": [
            "0x4afcb4a87cdbd9974efdb92ee48bc8d7cd0ae4bf217004db3d080cbaee652ca7"
          ],
          "data": "0x000000000000000000000000000000000000000000000000000000006786e4b40000000000000000000000000000000000000000000000000004c045a53de2920000000000000000000000000000000000000000000000000de0b6b3a7640000",
          "blockHash": "0x03deb10f253db479041ac3f5adf79f3ffc4c5e1f3d308cdf6f6d136aa347e0f5",
          "blockNumber": "0x725439",
          "transactionHash": "0x523a7aa14a02c31d11250e32ebe0ba5d542f94431dc4ef51e01758ca1da4e709",
          "transactionIndex": "0x20",
          "logIndex": "0x3c",
          "removed": false
        }
      ],
      "logsBloom": "0x00000000000000000000000000000000000000000000000000000000000000000000000000000000000000000000000020000000000000004000000000000000000000000000000000000008000000000000000000000000000000000000000000000000020000000000000000000800020000000000000000000010000000000000000000010000000000000000000000000000000000000000010000000000000000000000000000000000000000004000000000000000000000000000000000000002000000800000000000000000000000000000080000008000000020000000000000000000000000000000000000000000000000000000000000000000",
      "type": "0x2",
      "transactionHash": "0x523a7aa14a02c31d11250e32ebe0ba5d542f94431dc4ef51e01758ca1da4e709",
      "transactionIndex": "0x20",
      "blockHash": "0x03deb10f253db479041ac3f5adf79f3ffc4c5e1f3d308cdf6f6d136aa347e0f5",
      "blockNumber": "0x725439",
      "gasUsed": "0x13af8",
      "effectiveGasPrice": "0x14daf107c",
      "from": "0xc77f7fed3b5cc8249adc428c5f44c9063b9734b4",
      "to": "0x270e88f8683660553e8ba4eb2ad7c91a1710d769",
      "contractAddress": null
    }
  ],
  "libraries": [],
  "pending": [],
  "returns": {},
  "timestamp": 1736893621,
  "chain": 11155111,
  "commit": "51a374b"
}