{
  "transactions": [
    {
      "hash": "0x0e1ea7eb91489cc287359c3b38ea168485e3263ea22619864dfdda3531232859",
      "transactionType": "CALL",
      "contractName": null,
      "contractAddress": "0x8aafd3ede9adb0ff97c7aebce82a919afb1c8764",
      "function": "sell(uint256)",
      "arguments": [
        "9999605749"
      ],
      "transaction": {
        "from": "0xc77f7fed3b5cc8249adc428c5f44c9063b9734b4",
        "to": "0x8aafd3ede9adb0ff97c7aebce82a919afb1c8764",
        "gas": "0x1722a",
        "value": "0x0",
        "input": "0xe4849b32000000000000000000000000000000000000000000000000000000025405dff5",
        "nonce": "0x1327",
        "chainId": "0xaa36a7"
      },
      "additionalContracts": [],
      "isFixedGasLimit": false
    }
  ],
  "receipts": [
    {
      "status": "0x1",
      "cumulativeGasUsed": "0x955506",
      "logs": [
        {
          "address": "0x8aafd3ede9adb0ff97c7aebce82a919afb1c8764",
          "topics": [
            "0xddf252ad1be2c89b69c2b068fc378daa952ba7f163c4a11628f55a4df523b3ef",
            "0x000000000000000000000000c77f7fed3b5cc8249adc428c5f44c9063b9734b4",
            "0x0000000000000000000000000000000000000000000000000000000000000000"
          ],
          "data": "0x000000000000000000000000000000000000000000000000000000024f413848",
          "blockHash": "0x526454be562221fcc12a3c998cc237bed4d5d68999a2a20065753f699eb12dc9",
          "blockNumber": "0x731a39",
          "transactionHash": "0x0e1ea7eb91489cc287359c3b38ea168485e3263ea22619864dfdda3531232859",
          "transactionIndex": "0x77",
          "logIndex": "0x99",
          "removed": false
        },
        {
          "address": "0x8aafd3ede9adb0ff97c7aebce82a919afb1c8764",
          "topics": [
            "0xddf252ad1be2c89b69c2b068fc378daa952ba7f163c4a11628f55a4df523b3ef",
            "0x000000000000000000000000c77f7fed3b5cc8249adc428c5f44c9063b9734b4",
            "0x000000000000000000000000c77f7fed3b5cc8249adc428c5f44c9063b9734b4"
          ],
          "data": "0x0000000000000000000000000000000000000000000000000000000004c4a7ad",
          "blockHash": "0x526454be562221fcc12a3c998cc237bed4d5d68999a2a20065753f699eb12dc9",
          "blockNumber": "0x731a39",
          "transactionHash": "0x0e1ea7eb91489cc287359c3b38ea168485e3263ea22619864dfdda3531232859",
          "transactionIndex": "0x77",
          "logIndex": "0x9a",
          "removed": false
        },
        {
          "address": "0x8aafd3ede9adb0ff97c7aebce82a919afb1c8764",
          "topics": [
            "0x4afcb4a87cdbd9974efdb92ee48bc8d7cd0ae4bf217004db3d080cbaee652ca7"
          ],
          "data": "0x000000000000000000000000000000000000000000000000000000006790377c000000000000000000000000000000000000000000000000000ba9718e83131d0000000000000000000000000000000000000000000000000000000001f4dac5",
          "blockHash": "0x526454be562221fcc12a3c998cc237bed4d5d68999a2a20065753f699eb12dc9",
          "blockNumber": "0x731a39",
          "transactionHash": "0x0e1ea7eb91489cc287359c3b38ea168485e3263ea22619864dfdda3531232859",
          "transactionIndex": "0x77",
          "logIndex": "0x9b",
          "removed": false
        }
      ],
      "logsBloom": "0x00000000000000000000000000000000000000000600000000000000000000000000000000000000000000000000000000000000000000004000000000000000000000000000004000000008000000000000000000000000000000000000000000000000020000000000000000000800020000000000000000000010000000000000000000000000000000000000000000000000000000000000010000000000000000000000000000000000000000004000000000000000000000000000000000000002000000800000000000000000000000000000080000000000000020000000000000000000000000000000000000000000000000000000000000000000",
      "type": "0x2",
      "transactionHash": "0x0e1ea7eb91489cc287359c3b38ea168485e3263ea22619864dfdda3531232859",
      "transactionIndex": "0x77",
      "blockHash": "0x526454be562221fcc12a3c998cc237bed4d5d68999a2a20065753f699eb12dc9",
      "blockNumber": "0x731a39",
      "gasUsed": "0xfd1b",
      "effectiveGasPrice": "0x50de6f7a",
      "from": "0xc77f7fed3b5cc8249adc428c5f44c9063b9734b4",
      "to": "0x8aafd3ede9adb0ff97c7aebce82a919afb1c8764",
      "contractAddress": null
    }
  ],
  "libraries": [],
  "pending": [],
  "returns": {},
  "timestamp": 1737504637,
  "chain": 11155111,
  "commit": "1d2fb70"
}