{
  "transactions": [
    {
      "hash": "0xc339894a6bd1c3d7d065007ad98d7a48731dec33e7cf048c3714bb8ca3a0fc38",
      "transactionType": "CALL",
      "contractName": null,
      "contractAddress": "0x8aafd3ede9adb0ff97c7aebce82a919afb1c8764",
      "function": "buy(address)",
      "arguments": [
        "0xC77f7fed3b5Cc8249aDc428c5F44C9063B9734b4"
      ],
      "transaction": {
        "from": "0xc77f7fed3b5cc8249adc428c5f44c9063b9734b4",
        "to": "0x8aafd3ede9adb0ff97c7aebce82a919afb1c8764",
        "gas": "0x156ea",
        "value": "0xde0b6b3a7640000",
        "input": "0xf088d547000000000000000000000000c77f7fed3b5cc8249adc428c5f44c9063b9734b4",
        "nonce": "0xf2a",
        "chainId": "0xaa36a7"
      },
      "additionalContracts": [],
      "isFixedGasLimit": false
    }
  ],
  "receipts": [
    {
      "status": "0x1",
      "cumulativeGasUsed": "0x17abfea",
      "logs": [
        {
          "address": "0x8aafd3ede9adb0ff97c7aebce82a919afb1c8764",
          "topics": [
            "0xddf252ad1be2c89b69c2b068fc378daa952ba7f163c4a11628f55a4df523b3ef",
            "0x0000000000000000000000000000000000000000000000000000000000000000",
            "0x000000000000000000000000c77f7fed3b5cc8249adc428c5f44c9063b9734b4"
          ],
          "data": "0x0000000000000000000000000000000000000000000000282a8fa5acd9852368",
          "blockHash": "0xa7000a1437694dcc2c276ec444edbfa58db31dc8179438155524a23659534e0c",
          "blockNumber": "0x73157e",
          "transactionHash": "0xc339894a6bd1c3d7d065007ad98d7a48731dec33e7cf048c3714bb8ca3a0fc38",
          "transactionIndex": "0xda",
          "logIndex": "0x199",
          "removed": false
        },
        {
          "address": "0x8aafd3ede9adb0ff97c7aebce82a919afb1c8764",
          "topics": [
            "0xddf252ad1be2c89b69c2b068fc378daa952ba7f163c4a11628f55a4df523b3ef",
            "0x0000000000000000000000000000000000000000000000000000000000000000",
            "0x000000000000000000000000c77f7fed3b5cc8249adc428c5f44c9063b9734b4"
          ],
          "data": "0x0000000000000000000000000000000000000000000000001f30c26b2c6ae1d8",
          "blockHash": "0xa7000a1437694dcc2c276ec444edbfa58db31dc8179438155524a23659534e0c",
          "blockNumber": "0x73157e",
          "transactionHash": "0xc339894a6bd1c3d7d065007ad98d7a48731dec33e7cf048c3714bb8ca3a0fc38",
          "transactionIndex": "0xda",
          "logIndex": "0x19a",
          "removed": false
        },
        {
          "address": "0x8aafd3ede9adb0ff97c7aebce82a919afb1c8764",
          "topics": [
            "0x4afcb4a87cdbd9974efdb92ee48bc8d7cd0ae4bf217004db3d080cbaee652ca7"
          ],
          "data": "0x00000000000000000000000000000000000000000000000000000000678ffe940000000000000000000000000000000000000000000000000004bf5028b441cf0000000000000000000000000000000000000000000000000de0b6b3a7640000",
          "blockHash": "0xa7000a1437694dcc2c276ec444edbfa58db31dc8179438155524a23659534e0c",
          "blockNumber": "0x73157e",
          "transactionHash": "0xc339894a6bd1c3d7d065007ad98d7a48731dec33e7cf048c3714bb8ca3a0fc38",
          "transactionIndex": "0xda",
          "logIndex": "0x19b",
          "removed": false
        }
      ],
      "logsBloom": "0x00000000000000000000000000000000000000000600000000000000000000000000000000000000000000000000000000000000000000004000000000000000000000000000004000000008000000000000000000000000000000000000000000000000020000000000000000000800020000000000000000000010000000000000000000000000000000000000000000000000000000000000010000000000000000000000000000000000000000004000000000000000000000000000000000000002000000800000000000000000000000000000080000000000000020000000000000000000000000000000000000000000000000000000000000000000",
      "type": "0x2",
      "transactionHash": "0xc339894a6bd1c3d7d065007ad98d7a48731dec33e7cf048c3714bb8ca3a0fc38",
      "transactionIndex": "0xda",
      "blockHash": "0xa7000a1437694dcc2c276ec444edbfa58db31dc8179438155524a23659534e0c",
      "blockNumber": "0x73157e",
      "gasUsed": "0xf844",
      "effectiveGasPrice": "0x680041db",
      "from": "0xc77f7fed3b5cc8249adc428c5f44c9063b9734b4",
      "to": "0x8aafd3ede9adb0ff97c7aebce82a919afb1c8764",
      "contractAddress": null
    }
  ],
  "libraries": [],
  "pending": [],
  "returns": {},
  "timestamp": 1737490069,
  "chain": 11155111,
  "commit": "1d2fb70"
}