{
  "transactions": [
    {
      "hash": "0x3eb93181a40d51cff27127dfdbf141af5ab2521bae9d11bfdb7de13f3d5abafb",
      "transactionType": "CALL",
      "contractName": null,
      "contractAddress": "0x270e88f8683660553e8ba4eb2ad7c91a1710d769",
      "function": "buy(address)",
      "arguments": [
        "0xC77f7fed3b5Cc8249aDc428c5F44C9063B9734b4"
      ],
      "transaction": {
        "from": "0xc77f7fed3b5cc8249adc428c5f44c9063b9734b4",
        "to": "0x270e88f8683660553e8ba4eb2ad7c91a1710d769",
        "gas": "0x1b30c",
        "value": "0xde0b6b3a7640000",
        "input": "0xf088d547000000000000000000000000c77f7fed3b5cc8249adc428c5f44c9063b9734b4",
        "nonce": "0x83d",
        "chainId": "0xaa36a7"
      },
      "additionalContracts": [],
      "isFixedGasLimit": false
    }
  ],
  "receipts": [
    {
      "status": "0x1",
      "cumulativeGasUsed": "0x12904e0",
      "logs": [
        {
          "address": "0x270e88f8683660553e8ba4eb2ad7c91a1710d769",
          "topics": [
            "0xddf252ad1be2c89b69c2b068fc378daa952ba7f163c4a11628f55a4df523b3ef",
            "0x0000000000000000000000000000000000000000000000000000000000000000",
            "0x000000000000000000000000c77f7fed3b5cc8249adc428c5f44c9063b9734b4"
          ],
          "data": "0x000000000000000000000000000000000000000000000026ca16f74f7135f8d2",
          "blockHash": "0xa2b0e7020c431de54c16ed06b15f86b0a5edfe6dfddedf2be70c5bd549a855c9",
          "blockNumber": "0x72558a",
          "transactionHash": "0x3eb93181a40d51cff27127dfdbf141af5ab2521bae9d11bfdb7de13f3d5abafb",
          "transactionIndex": "0x5b",
          "logIndex": "0x81",
          "removed": false
        },
        {
          "address": "0x270e88f8683660553e8ba4eb2ad7c91a1710d769",
          "topics": [
            "0xddf252ad1be2c89b69c2b068fc378daa952ba7f163c4a11628f55a4df523b3ef",
            "0x0000000000000000000000000000000000000000000000000000000000000000",
            "0x000000000000000000000000c77f7fed3b5cc8249adc428c5f44c9063b9734b4"
          ],
          "data": "0x0000000000000000000000000000000000000000000000001e1f0da9f7d12af9",
          "blockHash": "0xa2b0e7020c431de54c16ed06b15f86b0a5edfe6dfddedf2be70c5bd549a855c9",
          "blockNumber": "0x72558a",
          "transactionHash": "0x3eb93181a40d51cff27127dfdbf141af5ab2521bae9d11bfdb7de13f3d5abafb",
          "transactionIndex": "0x5b",
          "logIndex": "0x82",
          "removed": false
        },
        {
          "address": "0x270e88f8683660553e8ba4eb2ad7c91a1710d769",
          "topics": [
            "0x4afcb4a87cdbd9974efdb92ee48bc8d7cd0ae4bf217004db3d080cbaee652ca7"
          ],
          "data": "0x000000000000000000000000000000000000000000000000000000006786f4800000000000000000000000000000000000000000000000000004ea75296fc1aa0000000000000000000000000000000000000000000000000de0b6b3a7640000",
          "blockHash": "0xa2b0e7020c431de54c16ed06b15f86b0a5edfe6dfddedf2be70c5bd549a855c9",
          "blockNumber": "0x72558a",
          "transactionHash": "0x3eb93181a40d51cff27127dfdbf141af5ab2521bae9d11bfdb7de13f3d5abafb",
          "transactionIndex": "0x5b",
          "logIndex": "0x83",
          "removed": false
        }
      ],
      "logsBloom": "0x00000000000000000000000000000000000000000000000000000000000000000000000000000000000000000000000020000000000000004000000000000000000000000000000000000008000000000000000000000000000000000000000000000000020000000000000000000800020000000000000000000010000000000000000000010000000000000000000000000000000000000000010000000000000000000000000000000000000000004000000000000000000000000000000000000002000000800000000000000000000000000000080000008000000020000000000000000000000000000000000000000000000000000000000000000000",
      "type": "0x2",
      "transactionHash": "0x3eb93181a40d51cff27127dfdbf141af5ab2521bae9d11bfdb7de13f3d5abafb",
      "transactionIndex": "0x5b",
      "blockHash": "0xa2b0e7020c431de54c16ed06b15f86b0a5edfe6dfddedf2be70c5bd549a855c9",
      "blockNumber": "0x72558a",
      "gasUsed": "0x13af8",
      "effectiveGasPrice": "0x6c5acf07",
      "from": "0xc77f7fed3b5cc8249adc428c5f44c9063b9734b4",
      "to": "0x270e88f8683660553e8ba4eb2ad7c91a1710d769",
      "contractAddress": null
    }
  ],
  "libraries": [],
  "pending": [],
  "returns": {},
  "timestamp": 1736897665,
  "chain": 11155111,
  "commit": "51a374b"
}