{
  "transactions": [
    {
      "hash": "0x0564e5aa1ee8b32e50a515a270410aea8af0a96ceb5d44c6aca21291052c9732",
      "transactionType": "CALL",
      "contractName": null,
      "contractAddress": "0x8aafd3ede9adb0ff97c7aebce82a919afb1c8764",
      "function": "buy(address)",
      "arguments": [
        "0xC77f7fed3b5Cc8249aDc428c5F44C9063B9734b4"
      ],
      "transaction": {
        "from": "0xc77f7fed3b5cc8249adc428c5f44c9063b9734b4",
        "to": "0x8aafd3ede9adb0ff97c7aebce82a919afb1c8764",
        "gas": "0x156ea",
        "value": "0xde0b6b3a7640000",
        "input": "0xf088d547000000000000000000000000c77f7fed3b5cc8249adc428c5f44c9063b9734b4",
        "nonce": "0x14c8",
        "chainId": "0xaa36a7"
      },
      "additionalContracts": [],
      "isFixedGasLimit": false
    }
  ],
  "receipts": [
    {
      "status": "0x1",
      "cumulativeGasUsed": "0xa3987c",
      "logs": [
        {
          "address": "0x8aafd3ede9adb0ff97c7aebce82a919afb1c8764",
          "topics": [
            "0xddf252ad1be2c89b69c2b068fc378daa952ba7f163c4a11628f55a4df523b3ef",
            "0x0000000000000000000000000000000000000000000000000000000000000000",
            "0x000000000000000000000000c77f7fed3b5cc8249adc428c5f44c9063b9734b4"
          ],
          "data": "0x00000000000000000000000000000000000000000000000ba45522039d54094e",
          "blockHash": "0xba8193852a8d7779092435b1f238dcc4cd9c239f88b5faa7bd4d72a99f9bca1e",
          "blockNumber": "0x731c26",
          "transactionHash": "0x0564e5aa1ee8b32e50a515a270410aea8af0a96ceb5d44c6aca21291052c9732",
          "transactionIndex": "0x85",
          "logIndex": "0xbe",
          "removed": false
        },
        {
          "address": "0x8aafd3ede9adb0ff97c7aebce82a919afb1c8764",
          "topics": [
            "0xddf252ad1be2c89b69c2b068fc378daa952ba7f163c4a11628f55a4df523b3ef",
            "0x0000000000000000000000000000000000000000000000000000000000000000",
            "0x000000000000000000000000c77f7fed3b5cc8249adc428c5f44c9063b9734b4"
          ],
          "data": "0x000000000000000000000000000000000000000000000000090a5473479998db",
          "blockHash": "0xba8193852a8d7779092435b1f238dcc4cd9c239f88b5faa7bd4d72a99f9bca1e",
          "blockNumber": "0x731c26",
          "transactionHash": "0x0564e5aa1ee8b32e50a515a270410aea8af0a96ceb5d44c6aca21291052c9732",
          "transactionIndex": "0x85",
          "logIndex": "0xbf",
          "removed": false
        },
        {
          "address": "0x8aafd3ede9adb0ff97c7aebce82a919afb1c8764",
          "topics": [
            "0x4afcb4a87cdbd9974efdb92ee48bc8d7cd0ae4bf217004db3d080cbaee652ca7"
          ],
          "data": "0x0000000000000000000000000000000000000000000000000000000067904ea40000000000000000000000000000000000000000000000000010671e9ec066af0000000000000000000000000000000000000000000000000de0b6b3a7640000",
          "blockHash": "0xba8193852a8d7779092435b1f238dcc4cd9c239f88b5faa7bd4d72a99f9bca1e",
          "blockNumber": "0x731c26",
          "transactionHash": "0x0564e5aa1ee8b32e50a515a270410aea8af0a96ceb5d44c6aca21291052c9732",
          "transactionIndex": "0x85",
          "logIndex": "0xc0",
          "removed": false
        }
      ],
      "logsBloom": "0x00000000000000000000000000000000000000000600000000000000000000000000000000000000000000000000000000000000000000004000000000000000000000000000004000000008000000000000000000000000000000000000000000000000020000000000000000000800020000000000000000000010000000000000000000000000000000000000000000000000000000000000010000000000000000000000000000000000000000004000000000000000000000000000000000000002000000800000000000000000000000000000080000000000000020000000000000000000000000000000000000000000000000000000000000000000",
      "type": "0x2",
      "transactionHash": "0x0564e5aa1ee8b32e50a515a270410aea8af0a96ceb5d44c6aca21291052c9732",
      "transactionIndex": "0x85",
      "blockHash": "0xba8193852a8d7779092435b1f238dcc4cd9c239f88b5faa7bd4d72a99f9bca1e",
      "blockNumber": "0x731c26",
      "gasUsed": "0xf844",
      "effectiveGasPrice": "0x1133a1817",
      "from": "0xc77f7fed3b5cc8249adc428c5f44c9063b9734b4",
      "to": "0x8aafd3ede9adb0ff97c7aebce82a919afb1c8764",
      "contractAddress": null
    }
  ],
  "libraries": [],
  "pending": [],
  "returns": {},
  "timestamp": 1737510567,
  "chain": 11155111,
  "commit": "1d2fb70"
}