{
  "transactions": [
    {
      "hash": "0xe238267685d950dd1cb4210bc1c3584eb4ce04a15cf5b2ef49246655024d67ff",
      "transactionType": "CALL",
      "contractName": null,
      "contractAddress": "0x270e88f8683660553e8ba4eb2ad7c91a1710d769",
      "function": "sell(uint256)",
      "arguments": [
        "746018319461703158966"
      ],
      "transaction": {
        "from": "0xc77f7fed3b5cc8249adc428c5f44c9063b9734b4",
        "to": "0x270e88f8683660553e8ba4eb2ad7c91a1710d769",
        "gas": "0x16fec",
        "value": "0x0",
        "input": "0xe4849b3200000000000000000000000000000000000000000000002871157cf9d8b30cb6",
        "nonce": "0x6f8",
        "chainId": "0xaa36a7"
      },
      "additionalContracts": [],
      "isFixedGasLimit": false
    }
  ],
  "receipts": [
    {
      "status": "0x1",
      "cumulativeGasUsed": "0xbb7781",
      "logs": [
        {
          "address": "0x270e88f8683660553e8ba4eb2ad7c91a1710d769",
          "topics": [
            "0xddf252ad1be2c89b69c2b068fc378daa952ba7f163c4a11628f55a4df523b3ef",
            "0x000000000000000000000000c77f7fed3b5cc8249adc428c5f44c9063b9734b4",
            "0x0000000000000000000000000000000000000000000000000000000000000000"
          ],
          "data": "0x00000000000000000000000000000000000000000000002871157cf9d8b30cb6",
          "blockHash": "0x681aff09f2c989fa452b37ab64e47927affd3d30833aea42871a53914bb4d3b1",
          "blockNumber": "0x72540d",
          "transactionHash": "0xe238267685d950dd1cb4210bc1c3584eb4ce04a15cf5b2ef49246655024d67ff",
          "transactionIndex": "0x4a",
          "logIndex": "0x93",
          "removed": false
        },
        {
          "address": "0x270e88f8683660553e8ba4eb2ad7c91a1710d769",
          "topics": [
            "0x4afcb4a87cdbd9974efdb92ee48bc8d7cd0ae4bf217004db3d080cbaee652ca7"
          ],
          "data": "0x000000000000000000000000000000000000000000000000000000006786e2a40000000000000000000000000000000000000000000000000004bae4ffb48aa90000000000000000000000000000000000000000000000000dc8291f68edfe52",
          "blockHash": "0x681aff09f2c989fa452b37ab64e47927affd3d30833aea42871a53914bb4d3b1",
          "blockNumber": "0x72540d",
          "transactionHash": "0xe238267685d950dd1cb4210bc1c3584eb4ce04a15cf5b2ef49246655024d67ff",
          "transactionIndex": "0x4a",
          "logIndex": "0x94",
          "removed": false
        }
      ],
      "logsBloom": "0x00000000000000000000000000000000000000000000000000000000000000000000000000000000000000000000000020000000000000004000000000000000000000000000000000000008000000000000000000000000000000000000000000000000020000000000000000000800020000000000000000000010000000000000000000010000000000000000000000000000000000000000010000000000000000000000000000000000000000004000000000000000000000000000000000000002000000800000000000000000000000000000080000008000000020000000000000000000000000000000000000000000000000000000000000000000",
      "type": "0x2",
      "transactionHash": "0xe238267685d950dd1cb4210bc1c3584eb4ce04a15cf5b2ef49246655024d67ff",
      "transactionIndex": "0x4a",
      "blockHash": "0x681aff09f2c989fa452b37ab64e47927affd3d30833aea42871a53914bb4d3b1",
      "blockNumber": "0x72540d",
      "gasUsed": "0xfb93",
      "effectiveGasPrice": "0x14ff07a42",
      "from": "0xc77f7fed3b5cc8249adc428c5f44c9063b9734b4",
      "to": "0x270e88f8683660553e8ba4eb2ad7c91a1710d769",
      "contractAddress": null
    }
  ],
  "libraries": [],
  "pending": [],
  "returns": {},
  "timestamp": 1736893092,
  "chain": 11155111,
  "commit": "51a374b"
}