{
  "transactions": [
    {
      "hash": "0x88df3e36b1c1f65ad9561d4960ee9a01aa0fe1120573b64c983d72e68bcb5c99",
      "transactionType": "CALL",
      "contractName": null,
      "contractAddress": "0xbf4a322f1496e5c3d34a9bcdb4c60567b38c7de2",
      "function": "sell(uint256)",
      "arguments": [
        "981599646974271571534"
      ],
      "transaction": {
        "from": "0xc77f7fed3b5cc8249adc428c5f44c9063b9734b4",
        "to": "0xbf4a322f1496e5c3d34a9bcdb4c60567b38c7de2",
        "gas": "0x16fea",
        "value": "0x0",
        "input": "0xe4849b32000000000000000000000000000000000000000000000035366e7e2f6e4c464e",
        "nonce": "0xba1",
        "chainId": "0xaa36a7"
      },
      "additionalContracts": [],
      "isFixedGasLimit": false
    }
  ],
  "receipts": [
    {
      "status": "0x1",
      "cumulativeGasUsed": "0xedf5a1",
      "logs": [
        {
          "address": "0xbf4a322f1496e5c3d34a9bcdb4c60567b38c7de2",
          "topics": [
            "0xddf252ad1be2c89b69c2b068fc378daa952ba7f163c4a11628f55a4df523b3ef",
            "0x000000000000000000000000c77f7fed3b5cc8249adc428c5f44c9063b9734b4",
            "0x0000000000000000000000000000000000000000000000000000000000000000"
          ],
          "data": "0x000000000000000000000000000000000000000000000035366e7e2f6e4c464e",
          "blockHash": "0xc9d72e9e364e11f4e7b5425a7817826a1214e261cf663bd1ef8702f58b73ad5f",
          "blockNumber": "0x725bb6",
          "transactionHash": "0x88df3e36b1c1f65ad9561d4960ee9a01aa0fe1120573b64c983d72e68bcb5c99",
          "transactionIndex": "0x6d",
          "logIndex": "0xc6",
          "removed": false
        },
        {
          "address": "0xbf4a322f1496e5c3d34a9bcdb4c60567b38c7de2",
          "topics": [
            "0x4afcb4a87cdbd9974efdb92ee48bc8d7cd0ae4bf217004db3d080cbaee652ca7"
          ],
          "data": "0x0000000000000000000000000000000000000000000000000000000067873ee400000000000000000000000000000000000000000000000000039815edb1df3c0000000000000000000000000000000000000000000000000dc7e3e5c9193f2b",
          "blockHash": "0xc9d72e9e364e11f4e7b5425a7817826a1214e261cf663bd1ef8702f58b73ad5f",
          "blockNumber": "0x725bb6",
          "transactionHash": "0x88df3e36b1c1f65ad9561d4960ee9a01aa0fe1120573b64c983d72e68bcb5c99",
          "transactionIndex": "0x6d",
          "logIndex": "0xc7",
          "removed": false
        }
      ],
      "logsBloom": "0x00000000000000000000000000000000000000000000000000000000000000000000000000000000000000000000000000000000000000004000000000000000000000000000000000000008000000000000001000000000000000000000000000000000020000000000000000000800020000000000000000000010000000000000000000000000000000000000000000000000000008000000010000000000000000000000000000000000000000004000000000000000000000000000000000000002000000800000000000001000000000000000080000000000000020000000000000000000000000000000000000000000000000000000000000000000",
      "type": "0x2",
      "transactionHash": "0x88df3e36b1c1f65ad9561d4960ee9a01aa0fe1120573b64c983d72e68bcb5c99",
      "transactionIndex": "0x6d",
      "blockHash": "0xc9d72e9e364e11f4e7b5425a7817826a1214e261cf663bd1ef8702f58b73ad5f",
      "blockNumber": "0x725bb6",
      "gasUsed": "0xfb91",
      "effectiveGasPrice": "0x52bd2c3c",
      "from": "0xc77f7fed3b5cc8249adc428c5f44c9063b9734b4",
      "to": "0xbf4a322f1496e5c3d34a9bcdb4c60567b38c7de2",
      "contractAddress": null
    }
  ],
  "libraries": [],
  "pending": [],
  "returns": {},
  "timestamp": 1736916709,
  "chain": 11155111,
  "commit": "51a374b"
}