{
  "transactions": [
    {
      "hash": "0x7b3107bee891f9d61c68f367fa920366f98bd8168a8372c84df4647c0350fb39",
      "transactionType": "CALL",
      "contractName": null,
      "contractAddress": "0x270e88f8683660553e8ba4eb2ad7c91a1710d769",
      "function": "buy(address)",
      "arguments": [
        "0xC77f7fed3b5Cc8249aDc428c5F44C9063B9734b4"
      ],
      "transaction": {
        "from": "0xc77f7fed3b5cc8249adc428c5f44c9063b9734b4",
        "to": "0x270e88f8683660553e8ba4eb2ad7c91a1710d769",
        "gas": "0x1b30c",
        "value": "0xde0b6b3a7640000",
        "input": "0xf088d547000000000000000000000000c77f7fed3b5cc8249adc428c5f44c9063b9734b4",
        "nonce": "0x622",
        "chainId": "0xaa36a7"
      },
      "additionalContracts": [],
      "isFixedGasLimit": false
    }
  ],
  "receipts": [
    {
      "status": "0x1",
      "cumulativeGasUsed": "0xac6600",
      "logs": [
        {
          "address": "0x270e88f8683660553e8ba4eb2ad7c91a1710d769",
          "topics": [
            "0xddf252ad1be2c89b69c2b068fc378daa952ba7f163c4a11628f55a4df523b3ef",
            "0x0000000000000000000000000000000000000000000000000000000000000000",
            "0x000000000000000000000000c77f7fed3b5cc8249adc428c5f44c9063b9734b4"
          ],
          "data": "0x000000000000000000000000000000000000000000000032ee936eb7ef3e47d2",
          "blockHash": "0xa54e68fa6c304b6eb327d9b086215e0cdc4b6fc6778a15b17cff84e4a8997e53",
          "blockNumber": "0x7252f1",
          "transactionHash": "0x7b3107bee891f9d61c68f367fa920366f98bd8168a8372c84df4647c0350fb39",
          "transactionIndex": "0x3c",
          "logIndex": "0x83",
          "removed": false
        },
        {
          "address": "0x270e88f8683660553e8ba4eb2ad7c91a1710d769",
          "topics": [
            "0xddf252ad1be2c89b69c2b068fc378daa952ba7f163c4a11628f55a4df523b3ef",
            "0x0000000000000000000000000000000000000000000000000000000000000000",
            "0x000000000000000000000000c77f7fed3b5cc8249adc428c5f44c9063b9734b4"
          ],
          "data": "0x000000000000000000000000000000000000000000000000278ce620b8d38fbe",
          "blockHash": "0xa54e68fa6c304b6eb327d9b086215e0cdc4b6fc6778a15b17cff84e4a8997e53",
          "blockNumber": "0x7252f1",
          "transactionHash": "0x7b3107bee891f9d61c68f367fa920366f98bd8168a8372c84df4647c0350fb39",
          "transactionIndex": "0x3c",
          "logIndex": "0x84",
          "removed": false
        },
        {
          "address": "0x270e88f8683660553e8ba4eb2ad7c91a1710d769",
          "topics": [
            "0x4afcb4a87cdbd9974efdb92ee48bc8d7cd0ae4bf217004db3d080cbaee652ca7"
          ],
          "data": "0x000000000000000000000000000000000000000000000000000000006786d5540000000000000000000000000000000000000000000000000003be75119483e10000000000000000000000000000000000000000000000000de0b6b3a7640000",
          "blockHash": "0xa54e68fa6c304b6eb327d9b086215e0cdc4b6fc6778a15b17cff84e4a8997e53",
          "blockNumber": "0x7252f1",
          "transactionHash": "0x7b3107bee891f9d61c68f367fa920366f98bd8168a8372c84df4647c0350fb39",
          "transactionIndex": "0x3c",
          "logIndex": "0x85",
          "removed": false
        }
      ],
      "logsBloom": "0x00000000000000000000000000000000000000000000000000000000000000000000000000000000000000000000000020000000000000004000000000000000000000000000000000000008000000000000000000000000000000000000000000000000020000000000000000000800020000000000000000000010000000000000000000010000000000000000000000000000000000000000010000000000000000000000000000000000000000004000000000000000000000000000000000000002000000800000000000000000000000000000080000008000000020000000000000000000000000000000000000000000000000000000000000000000",
      "type": "0x2",
      "transactionHash": "0x7b3107bee891f9d61c68f367fa920366f98bd8168a8372c84df4647c0350fb39",
      "transactionIndex": "0x3c",
      "blockHash": "0xa54e68fa6c304b6eb327d9b086215e0cdc4b6fc6778a15b17cff84e4a8997e53",
      "blockNumber": "0x7252f1",
      "gasUsed": "0x13af8",
      "effectiveGasPrice": "0x2a99f534f",
      "from": "0xc77f7fed3b5cc8249adc428c5f44c9063b9734b4",
      "to": "0x270e88f8683660553e8ba4eb2ad7c91a1710d769",
      "contractAddress": null
    }
  ],
  "libraries": [],
  "pending": [],
  "returns": {},
  "timestamp": 1736889685,
  "chain": 11155111,
  "commit": "51a374b"
}