{
  "transactions": [
    {
      "hash": "0xf794b70e03444f6281d1dd9ee7cec71d199240329f2afd480bbd9294ad991f91",
      "transactionType": "CALL",
      "contractName": null,
      "contractAddress": "0xbf4a322f1496e5c3d34a9bcdb4c60567b38c7de2",
      "function": "buy(address)",
      "arguments": [
        "0xC77f7fed3b5Cc8249aDc428c5F44C9063B9734b4"
      ],
      "transaction": {
        "from": "0xc77f7fed3b5cc8249adc428c5f44c9063b9734b4",
        "to": "0xbf4a322f1496e5c3d34a9bcdb4c60567b38c7de2",
        "gas": "0x1b309",
        "value": "0xde0b6b3a7640000",
        "input": "0xf088d547000000000000000000000000c77f7fed3b5cc8249adc428c5f44c9063b9734b4",
        "nonce": "0x96c",
        "chainId": "0xaa36a7"
      },
      "additionalContracts": [],
      "isFixedGasLimit": false
    }
  ],
  "receipts": [
    {
      "status": "0x1",
      "cumulativeGasUsed": "0x1a3a769",
      "logs": [
        {
          "address": "0xbf4a322f1496e5c3d34a9bcdb4c60567b38c7de2",
          "topics": [
            "0xddf252ad1be2c89b69c2b068fc378daa952ba7f163c4a11628f55a4df523b3ef",
            "0x0000000000000000000000000000000000000000000000000000000000000000",
            "0x000000000000000000000000c77f7fed3b5cc8249adc428c5f44c9063b9734b4"
          ],
          "data": "0x000000000000000000000000000000000000000000000035772b7e2db64fa0b5",
          "blockHash": "0x2a663b19d140f503a16c0131573dfa6f853c0f869d6f3e98079f533b60a86810",
          "blockNumber": "0x725904",
          "transactionHash": "0xf794b70e03444f6281d1dd9ee7cec71d199240329f2afd480bbd9294ad991f91",
          "transactionIndex": "0x102",
          "logIndex": "0x178",
          "removed": false
        },
        {
          "address": "0xbf4a322f1496e5c3d34a9bcdb4c60567b38c7de2",
          "topics": [
            "0xddf252ad1be2c89b69c2b068fc378daa952ba7f163c4a11628f55a4df523b3ef",
            "0x0000000000000000000000000000000000000000000000000000000000000000",
            "0x000000000000000000000000c77f7fed3b5cc8249adc428c5f44c9063b9734b4"
          ],
          "data": "0x00000000000000000000000000000000000000000000000029848de5f82e95c8",
          "blockHash": "0x2a663b19d140f503a16c0131573dfa6f853c0f869d6f3e98079f533b60a86810",
          "blockNumber": "0x725904",
          "transactionHash": "0xf794b70e03444f6281d1dd9ee7cec71d199240329f2afd480bbd9294ad991f91",
          "transactionIndex": "0x102",
          "logIndex": "0x179",
          "removed": false
        },
        {
          "address": "0xbf4a322f1496e5c3d34a9bcdb4c60567b38c7de2",
          "topics": [
            "0x4afcb4a87cdbd9974efdb92ee48bc8d7cd0ae4bf217004db3d080cbaee652ca7"
          ],
          "data": "0x0000000000000000000000000000000000000000000000000000000067871e5c000000000000000000000000000000000000000000000000000390f2d0e0ea330000000000000000000000000000000000000000000000000de0b6b3a7640000",
          "blockHash": "0x2a663b19d140f503a16c0131573dfa6f853c0f869d6f3e98079f533b60a86810",
          "blockNumber": "0x725904",
          "transactionHash": "0xf794b70e03444f6281d1dd9ee7cec71d199240329f2afd480bbd9294ad991f91",
          "transactionIndex": "0x102",
          "logIndex": "0x17a",
          "removed": false
        }
      ],
      "logsBloom": "0x00000000000000000000000000000000000000000000000000000000000000000000000000000000000000000000000000000000000000004000000000000000000000000000000000000008000000000000001000000000000000000000000000000000020000000000000000000800020000000000000000000010000000000000000000000000000000000000000000000000000008000000010000000000000000000000000000000000000000004000000000000000000000000000000000000002000000800000000000001000000000000000080000000000000020000000000000000000000000000000000000000000000000000000000000000000",
      "type": "0x2",
      "transactionHash": "0xf794b70e03444f6281d1dd9ee7cec71d199240329f2afd480bbd9294ad991f91",
      "transactionIndex": "0x102",
      "blockHash": "0x2a663b19d140f503a16c0131573dfa6f853c0f869d6f3e98079f533b60a86810",
      "blockNumber": "0x725904",
      "gasUsed": "0x13af6",
      "effectiveGasPrice": "0x950bc9b7",
      "from": "0xc77f7fed3b5cc8249adc428c5f44c9063b9734b4",
      "to": "0xbf4a322f1496e5c3d34a9bcdb4c60567b38c7de2",
      "contractAddress": null
    }
  ],
  "libraries": [],
  "pending": [],
  "returns": {},
  "timestamp": 1736908381,
  "chain": 11155111,
  "commit": "51a374b"
}