{
  "transactions": [
    {
      "hash": "0x69829a2f43308460114cb4c62439d12a234eb4d4fec6aa3cfd308d7f8d3f5111",
      "transactionType": "CALL",
      "contractName": null,
      "contractAddress": "0x270e88f8683660553e8ba4eb2ad7c91a1710d769",
      "function": "buy(address)",
      "arguments": [
        "0xC77f7fed3b5Cc8249aDc428c5F44C9063B9734b4"
      ],
      "transaction": {
        "from": "0xc77f7fed3b5cc8249adc428c5f44c9063b9734b4",
        "to": "0x270e88f8683660553e8ba4eb2ad7c91a1710d769",
        "gas": "0x1b30c",
        "value": "0xde0b6b3a7640000",
        "input": "0xf088d547000000000000000000000000c77f7fed3b5cc8249adc428c5f44c9063b9734b4",
        "nonce": "0x82b",
        "chainId": "0xaa36a7"
      },
      "additionalContracts": [],
      "isFixedGasLimit": false
    }
  ],
  "receipts": [
    {
      "status": "0x1",
      "cumulativeGasUsed": "0x571448",
      "logs": [
        {
          "address": "0x270e88f8683660553e8ba4eb2ad7c91a1710d769",
          "topics": [
            "0xddf252ad1be2c89b69c2b068fc378daa952ba7f163c4a11628f55a4df523b3ef",
            "0x0000000000000000000000000000000000000000000000000000000000000000",
            "0x000000000000000000000000c77f7fed3b5cc8249adc428c5f44c9063b9734b4"
          ],
          "data": "0x000000000000000000000000000000000000000000000026def0eb6ccfb26dd0",
          "blockHash": "0x9cec1cb3f6b04ef556a4c3023f96fd5295b5ce65a4331564ea5e0473ae9283b2",
          "blockNumber": "0x725573",
          "transactionHash": "0x69829a2f43308460114cb4c62439d12a234eb4d4fec6aa3cfd308d7f8d3f5111",
          "transactionIndex": "0x39",
          "logIndex": "0x5b",
          "removed": false
        },
        {
          "address": "0x270e88f8683660553e8ba4eb2ad7c91a1710d769",
          "topics": [
            "0xddf252ad1be2c89b69c2b068fc378daa952ba7f163c4a11628f55a4df523b3ef",
            "0x0000000000000000000000000000000000000000000000000000000000000000",
            "0x000000000000000000000000c77f7fed3b5cc8249adc428c5f44c9063b9734b4"
          ],
          "data": "0x0000000000000000000000000000000000000000000000001e2f3ec457c1d40e",
          "blockHash": "0x9cec1cb3f6b04ef556a4c3023f96fd5295b5ce65a4331564ea5e0473ae9283b2",
          "blockNumber": "0x725573",
          "transactionHash": "0x69829a2f43308460114cb4c62439d12a234eb4d4fec6aa3cfd308d7f8d3f5111",
          "transactionIndex": "0x39",
          "logIndex": "0x5c",
          "removed": false
        },
        {
          "address": "0x270e88f8683660553e8ba4eb2ad7c91a1710d769",
          "topics": [
            "0x4afcb4a87cdbd9974efdb92ee48bc8d7cd0ae4bf217004db3d080cbaee652ca7"
          ],
          "data": "0x000000000000000000000000000000000000000000000000000000006786f36c0000000000000000000000000000000000000000000000000004e7d2259085cf0000000000000000000000000000000000000000000000000de0b6b3a7640000",
          "blockHash": "0x9cec1cb3f6b04ef556a4c3023f96fd5295b5ce65a4331564ea5e0473ae9283b2",
          "blockNumber": "0x725573",
          "transactionHash": "0x69829a2f43308460114cb4c62439d12a234eb4d4fec6aa3cfd308d7f8d3f5111",
          "transactionIndex": "0x39",
          "logIndex": "0x5d",
          "removed": false
        }
      ],
      "logsBloom": "0x00000000000000000000000000000000000000000000000000000000000000000000000000000000000000000000000020000000000000004000000000000000000000000000000000000008000000000000000000000000000000000000000000000000020000000000000000000800020000000000000000000010000000000000000000010000000000000000000000000000000000000000010000000000000000000000000000000000000000004000000000000000000000000000000000000002000000800000000000000000000000000000080000008000000020000000000000000000000000000000000000000000000000000000000000000000",
      "type": "0x2",
      "transactionHash": "0x69829a2f43308460114cb4c62439d12a234eb4d4fec6aa3cfd308d7f8d3f5111",
      "transactionIndex": "0x39",
      "blockHash": "0x9cec1cb3f6b04ef556a4c3023f96fd5295b5ce65a4331564ea5e0473ae9283b2",
      "blockNumber": "0x725573",
      "gasUsed": "0x13af8",
      "effectiveGasPrice": "0x87b1a76c",
      "from": "0xc77f7fed3b5cc8249adc428c5f44c9063b9734b4",
      "to": "0x270e88f8683660553e8ba4eb2ad7c91a1710d769",
      "contractAddress": null
    }
  ],
  "libraries": [],
  "pending": [],
  "returns": {},
  "timestamp": 1736897390,
  "chain": 11155111,
  "commit": "51a374b"
}