{
  "transactions": [
    {
      "hash": "0x1f7ac5b35b99ffb92cc00a198fbb259c0541f3d37e8aebc834b536cda21ee5d5",
      "transactionType": "CALL",
      "contractName": null,
      "contractAddress": "0x8aafd3ede9adb0ff97c7aebce82a919afb1c8764",
      "function": "sell(uint256)",
      "arguments": [
        "8833464044"
      ],
      "transaction": {
        "from": "0xc77f7fed3b5cc8249adc428c5f44c9063b9734b4",
        "to": "0x8aafd3ede9adb0ff97c7aebce82a919afb1c8764",
        "gas": "0x1722a",
        "value": "0x0",
        "input": "0xe4849b32000000000000000000000000000000000000000000000000000000020e83f6ec",
        "nonce": "0x13ae",
        "chainId": "0xaa36a7"
      },
      "additionalContracts": [],
      "isFixedGasLimit": false
    }
  ],
  "receipts": [
    {
      "status": "0x1",
      "cumulativeGasUsed": "0x802477",
      "logs": [
        {
          "address": "0x8aafd3ede9adb0ff97c7aebce82a919afb1c8764",
          "topics": [
            "0xddf252ad1be2c89b69c2b068fc378daa952ba7f163c4a11628f55a4df523b3ef",
            "0x000000000000000000000000c77f7fed3b5cc8249adc428c5f44c9063b9734b4",
            "0x0000000000000000000000000000000000000000000000000000000000000000"
          ],
          "data": "0x000000000000000000000000000000000000000000000000000000020a4da92c",
          "blockHash": "0x712c8f6b042d175c2269d3b78067c16532611dd54008b7b491f1b5747330d6d5",
          "blockNumber": "0x731ad6",
          "transactionHash": "0x1f7ac5b35b99ffb92cc00a198fbb259c0541f3d37e8aebc834b536cda21ee5d5",
          "transactionIndex": "0x4b",
          "logIndex": "0x86",
          "removed": false
        },
        {
          "address": "0x8aafd3ede9adb0ff97c7aebce82a919afb1c8764",
          "topics": [
            "0xddf252ad1be2c89b69c2b068fc378daa952ba7f163c4a11628f55a4df523b3ef",
            "0x000000000000000000000000c77f7fed3b5cc8249adc428c5f44c9063b9734b4",
            "0x000000000000000000000000c77f7fed3b5cc8249adc428c5f44c9063b9734b4"
          ],
          "data": "0x0000000000000000000000000000000000000000000000000000000004364dc0",
          "blockHash": "0x712c8f6b042d175c2269d3b78067c16532611dd54008b7b491f1b5747330d6d5",
          "blockNumber": "0x731ad6",
          "transactionHash": "0x1f7ac5b35b99ffb92cc00a198fbb259c0541f3d37e8aebc834b536cda21ee5d5",
          "transactionIndex": "0x4b",
          "logIndex": "0x87",
          "removed": false
        },
        {
          "address": "0x8aafd3ede9adb0ff97c7aebce82a919afb1c8764",
          "topics": [
            "0x4afcb4a87cdbd9974efdb92ee48bc8d7cd0ae4bf217004db3d080cbaee652ca7"
          ],
          "data": "0x0000000000000000000000000000000000000000000000000000000067903ed8000000000000000000000000000000000000000000000000000d3058333ccb2e0000000000000000000000000000000000000000000000000000000001f4609e",
          "blockHash": "0x712c8f6b042d175c2269d3b78067c16532611dd54008b7b491f1b5747330d6d5",
          "blockNumber": "0x731ad6",
          "transactionHash": "0x1f7ac5b35b99ffb92cc00a198fbb259c0541f3d37e8aebc834b536cda21ee5d5",
          "transactionIndex": "0x4b",
          "logIndex": "0x88",
          "removed": false
        }
      ],
      "logsBloom": "0x00000000000000000000000000000000000000000600000000000000000000000000000000000000000000000000000000000000000000004000000000000000000000000000004000000008000000000000000000000000000000000000000000000000020000000000000000000800020000000000000000000010000000000000000000000000000000000000000000000000000000000000010000000000000000000000000000000000000000004000000000000000000000000000000000000002000000800000000000000000000000000000080000000000000020000000000000000000000000000000000000000000000000000000000000000000",
      "type": "0x2",
      "transactionHash": "0x1f7ac5b35b99ffb92cc00a198fbb259c0541f3d37e8aebc834b536cda21ee5d5",
      "transactionIndex": "0x4b",
      "blockHash": "0x712c8f6b042d175c2269d3b78067c16532611dd54008b7b491f1b5747330d6d5",
      "blockNumber": "0x731ad6",
      "gasUsed": "0xfd1b",
      "effectiveGasPrice": "0x8bb69868",
      "from": "0xc77f7fed3b5cc8249adc428c5f44c9063b9734b4",
      "to": "0x8aafd3ede9adb0ff97c7aebce82a919afb1c8764",
      "contractAddress": null
    }
  ],
  "libraries": [],
  "pending": [],
  "returns": {},
  "timestamp": 1737506522,
  "chain": 11155111,
  "commit": "1d2fb70"
}