{
  "transactions": [
    {
      "hash": "0xcdf555b0954963ae172f486ac7200ec97f017fbe4abd9df484b804977ee0c468",
      "transactionType": "CALL",
      "contractName": null,
      "contractAddress": "0x8aafd3ede9adb0ff97c7aebce82a919afb1c8764",
      "function": "sell(uint256)",
      "arguments": [
        "120132442174374"
      ],
      "transaction": {
        "from": "0xc77f7fed3b5cc8249adc428c5f44c9063b9734b4",
        "to": "0x8aafd3ede9adb0ff97c7aebce82a919afb1c8764",
        "gas": "0x15daa",
        "value": "0x0",
        "input": "0xe4849b3200000000000000000000000000000000000000000000000000006d42838ab3a6",
        "nonce": "0x1457",
        "chainId": "0xaa36a7"
      },
      "additionalContracts": [],
      "isFixedGasLimit": false
    }
  ],
  "receipts": [
    {
      "status": "0x1",
      "cumulativeGasUsed": "0xb9887c",
      "logs": [
        {
          "address": "0x8aafd3ede9adb0ff97c7aebce82a919afb1c8764",
          "topics": [
            "0xddf252ad1be2c89b69c2b068fc378daa952ba7f163c4a11628f55a4df523b3ef",
            "0x000000000000000000000000c77f7fed3b5cc8249adc428c5f44c9063b9734b4",
            "0x0000000000000000000000000000000000000000000000000000000000000000"
          ],
          "data": "0x00000000000000000000000000000000000000000000000000006c62bfedf1b4",
          "blockHash": "0x64b42fbe9f111fb3e595ef2c56656436b456beb1fbeb3413db88f178cd67b492",
          "blockNumber": "0x731b9e",
          "transactionHash": "0xcdf555b0954963ae172f486ac7200ec97f017fbe4abd9df484b804977ee0c468",
          "transactionIndex": "0x85",
          "logIndex": "0x82",
          "removed": false
        },
        {
          "address": "0x8aafd3ede9adb0ff97c7aebce82a919afb1c8764",
          "topics": [
            "0xddf252ad1be2c89b69c2b068fc378daa952ba7f163c4a11628f55a4df523b3ef",
            "0x000000000000000000000000c77f7fed3b5cc8249adc428c5f44c9063b9734b4",
            "0x000000000000000000000000c77f7fed3b5cc8249adc428c5f44c9063b9734b4"
          ],
          "data": "0x000000000000000000000000000000000000000000000000000000dfc39cc1f2",
          "blockHash": "0x64b42fbe9f111fb3e595ef2c56656436b456beb1fbeb3413db88f178cd67b492",
          "blockNumber": "0x731b9e",
          "transactionHash": "0xcdf555b0954963ae172f486ac7200ec97f017fbe4abd9df484b804977ee0c468",
          "transactionIndex": "0x85",
          "logIndex": "0x83",
          "removed": false
        },
        {
          "address": "0x8aafd3ede9adb0ff97c7aebce82a919afb1c8764",
          "topics": [
            "0x4afcb4a87cdbd9974efdb92ee48bc8d7cd0ae4bf217004db3d080cbaee652ca7"
          ],
          "data": "0x0000000000000000000000000000000000000000000000000000000067904844000000000000000000000000000000000000000000000000000f237ab8ae690f000000000000000000000000000000000000000000000000000000772fa5e5bf",
          "blockHash": "0x64b42fbe9f111fb3e595ef2c56656436b456beb1fbeb3413db88f178cd67b492",
          "blockNumber": "0x731b9e",
          "transactionHash": "0xcdf555b0954963ae172f486ac7200ec97f017fbe4abd9df484b804977ee0c468",
          "transactionIndex": "0x85",
          "logIndex": "0x84",
          "removed": false
        }
      ],
      "logsBloom": "0x00000000000000000000000000000000000000000600000000000000000000000000000000000000000000000000000000000000000000004000000000000000000000000000004000000008000000000000000000000000000000000000000000000000020000000000000000000800020000000000000000000010000000000000000000000000000000000000000000000000000000000000010000000000000000000000000000000000000000004000000000000000000000000000000000000002000000800000000000000000000000000000080000000000000020000000000000000000000000000000000000000000000000000000000000000000",
      "type": "0x2",
      "transactionHash": "0xcdf555b0954963ae172f486ac7200ec97f017fbe4abd9df484b804977ee0c468",
      "transactionIndex": "0x85",
      "blockHash": "0x64b42fbe9f111fb3e595ef2c56656436b456beb1fbeb3413db88f178cd67b492",
      "blockNumber": "0x731b9e",
      "gasUsed": "0xfd27",
      "effectiveGasPrice": "0x114c06d0c",
      "from": "0xc77f7fed3b5cc8249adc428c5f44c9063b9734b4",
      "to": "0x8aafd3ede9adb0ff97c7aebce82a919afb1c8764",
      "contractAddress": null
    }
  ],
  "libraries": [],
  "pending": [],
  "returns": {},
  "timestamp": 1737508933,
  "chain": 11155111,
  "commit": "1d2fb70"
}