{
  "transactions": [
    {
      "hash": "0xace7216c597e52b0e74ff4440b66307ab1eb58fd19783fa9d5240ab3a5039ba0",
      "transactionType": "CALL",
      "contractName": null,
      "contractAddress": "0xbf4a322f1496e5c3d34a9bcdb4c60567b38c7de2",
      "function": "sell(uint256)",
      "arguments": [
        "987181004709454086163"
      ],
      "transaction": {
        "from": "0xc77f7fed3b5cc8249adc428c5f44c9063b9734b4",
        "to": "0xbf4a322f1496e5c3d34a9bcdb4c60567b38c7de2",
        "gas": "0x15b68",
        "value": "0x0",
        "input": "0xe4849b3200000000000000000000000000000000000000000000003583e37579603b0013",
        "nonce": "0xa05",
        "chainId": "0xaa36a7"
      },
      "additionalContracts": [],
      "isFixedGasLimit": false
    }
  ],
  "receipts": [
    {
      "status": "0x1",
      "cumulativeGasUsed": "0x933751",
      "logs": [
        {
          "address": "0xbf4a322f1496e5c3d34a9bcdb4c60567b38c7de2",
          "topics": [
            "0xddf252ad1be2c89b69c2b068fc378daa952ba7f163c4a11628f55a4df523b3ef",
            "0x000000000000000000000000c77f7fed3b5cc8249adc428c5f44c9063b9734b4",
            "0x0000000000000000000000000000000000000000000000000000000000000000"
          ],
          "data": "0x00000000000000000000000000000000000000000000003583e37579603b0013",
          "blockHash": "0xa5bb03813c9996e438502c014e8666d9d0dcb9d6b1728a256f0d1d75f6c73a59",
          "blockNumber": "0x7259c1",
          "transactionHash": "0xace7216c597e52b0e74ff4440b66307ab1eb58fd19783fa9d5240ab3a5039ba0",
          "transactionIndex": "0x60",
          "logIndex": "0x77",
          "removed": false
        },
        {
          "address": "0xbf4a322f1496e5c3d34a9bcdb4c60567b38c7de2",
          "topics": [
            "0x4afcb4a87cdbd9974efdb92ee48bc8d7cd0ae4bf217004db3d080cbaee652ca7"
          ],
          "data": "0x0000000000000000000000000000000000000000000000000000000067872750000000000000000000000000000000000000000000000000000392e24000da260000000000000000000000000000000000000000000000000dc7e3f2c3205f11",
          "blockHash": "0xa5bb03813c9996e438502c014e8666d9d0dcb9d6b1728a256f0d1d75f6c73a59",
          "blockNumber": "0x7259c1",
          "transactionHash": "0xace7216c597e52b0e74ff4440b66307ab1eb58fd19783fa9d5240ab3a5039ba0",
          "transactionIndex": "0x60",
          "logIndex": "0x78",
          "removed": false
        }
      ],
      "logsBloom": "0x00000000000000000000000000000000000000000000000000000000000000000000000000000000000000000000000000000000000000004000000000000000000000000000000000000008000000000000001000000000000000000000000000000000020000000000000000000800020000000000000000000010000000000000000000000000000000000000000000000000000008000000010000000000000000000000000000000000000000004000000000000000000000000000000000000002000000800000000000001000000000000000080000000000000020000000000000000000000000000000000000000000000000000000000000000000",
      "type": "0x2",
      "transactionHash": "0xace7216c597e52b0e74ff4440b66307ab1eb58fd19783fa9d5240ab3a5039ba0",
      "transactionIndex": "0x60",
      "blockHash": "0xa5bb03813c9996e438502c014e8666d9d0dcb9d6b1728a256f0d1d75f6c73a59",
      "blockNumber": "0x7259c1",
      "gasUsed": "0xfb85",
      "effectiveGasPrice": "0x38e67adfd",
      "from": "0xc77f7fed3b5cc8249adc428c5f44c9063b9734b4",
      "to": "0xbf4a322f1496e5c3d34a9bcdb4c60567b38c7de2",
      "contractAddress": null
    }
  ],
  "libraries": [],
  "pending": [],
  "returns": {},
  "timestamp": 1736910673,
  "chain": 11155111,
  "commit": "51a374b"
}