{
  "transactions": [
    {
      "hash": "0x82e4455a198a991ec8950d418fd8e7a42483a53aa80dc23fd949a27de06ef02b",
      "transactionType": "CALL",
      "contractName": null,
      "contractAddress": "0x8aafd3ede9adb0ff97c7aebce82a919afb1c8764",
      "function": "buy(address)",
      "arguments": [
        "0xC77f7fed3b5Cc8249aDc428c5F44C9063B9734b4"
      ],
      "transaction": {
        "from": "0xc77f7fed3b5cc8249adc428c5f44c9063b9734b4",
        "to": "0x8aafd3ede9adb0ff97c7aebce82a919afb1c8764",
        "gas": "0x156ea",
        "value": "0xde0b6b3a7640000",
        "input": "0xf088d547000000000000000000000000c77f7fed3b5cc8249adc428c5f44c9063b9734b4",
        "nonce": "0xe5f",
        "chainId": "0xaa36a7"
      },
      "additionalContracts": [],
      "isFixedGasLimit": false
    }
  ],
  "receipts": [
    {
      "status": "0x1",
      "cumulativeGasUsed": "0xf27bfa",
      "logs": [
        {
          "address": "0x8aafd3ede9adb0ff97c7aebce82a919afb1c8764",
          "topics": [
            "0xddf252ad1be2c89b69c2b068fc378daa952ba7f163c4a11628f55a4df523b3ef",
            "0x0000000000000000000000000000000000000000000000000000000000000000",
            "0x000000000000000000000000c77f7fed3b5cc8249adc428c5f44c9063b9734b4"
          ],
          "data": "0x000000000000000000000000000000000000000000000028866cd8e4a89e2f29",
          "blockHash": "0x44796d3deae5fbcc37a71a93e83a2a3fd5e53f08e637ae47177ee628c05da297",
          "blockNumber": "0x7313b2",
          "transactionHash": "0x82e4455a198a991ec8950d418fd8e7a42483a53aa80dc23fd949a27de06ef02b",
          "transactionIndex": "0xa1",
          "logIndex": "0xeb",
          "removed": false
        },
        {
          "address": "0x8aafd3ede9adb0ff97c7aebce82a919afb1c8764",
          "topics": [
            "0xddf252ad1be2c89b69c2b068fc378daa952ba7f163c4a11628f55a4df523b3ef",
            "0x0000000000000000000000000000000000000000000000000000000000000000",
            "0x000000000000000000000000c77f7fed3b5cc8249adc428c5f44c9063b9734b4"
          ],
          "data": "0x0000000000000000000000000000000000000000000000001f781853a0a002d0",
          "blockHash": "0x44796d3deae5fbcc37a71a93e83a2a3fd5e53f08e637ae47177ee628c05da297",
          "blockNumber": "0x7313b2",
          "transactionHash": "0x82e4455a198a991ec8950d418fd8e7a42483a53aa80dc23fd949a27de06ef02b",
          "transactionIndex": "0xa1",
          "logIndex": "0xec",
          "removed": false
        },
        {
          "address": "0x8aafd3ede9adb0ff97c7aebce82a919afb1c8764",
          "topics": [
            "0x4afcb4a87cdbd9974efdb92ee48bc8d7cd0ae4bf217004db3d080cbaee652ca7"
          ],
          "data": "0x00000000000000000000000000000000000000000000000000000000678fe8ec0000000000000000000000000000000000000000000000000004b493e0c02c2b0000000000000000000000000000000000000000000000000de0b6b3a7640000",
          "blockHash": "0x44796d3deae5fbcc37a71a93e83a2a3fd5e53f08e637ae47177ee628c05da297",
          "blockNumber": "0x7313b2",
          "transactionHash": "0x82e4455a198a991ec8950d418fd8e7a42483a53aa80dc23fd949a27de06ef02b",
          "transactionIndex": "0xa1",
          "logIndex": "0xed",
          "removed": false
        }
      ],
      "logsBloom": "0x00000000000000000000000000000000000000000600000000000000000000000000000000000000000000000000000000000000000000004000000000000000000000000000004000000008000000000000000000000000000000000000000000000000020000000000000000000800020000000000000000000010000000000000000000000000000000000000000000000000000000000000010000000000000000000000000000000000000000004000000000000000000000000000000000000002000000800000000000000000000000000000080000000000000020000000000000000000000000000000000000000000000000000000000000000000",
      "type": "0x2",
      "transactionHash": "0x82e4455a198a991ec8950d418fd8e7a42483a53aa80dc23fd949a27de06ef02b",
      "transactionIndex": "0xa1",
      "blockHash": "0x44796d3deae5fbcc37a71a93e83a2a3fd5e53f08e637ae47177ee628c05da297",
      "blockNumber": "0x7313b2",
      "gasUsed": "0xf844",
      "effectiveGasPrice": "0x7980b7b3",
      "from": "0xc77f7fed3b5cc8249adc428c5f44c9063b9734b4",
      "to": "0x8aafd3ede9adb0ff97c7aebce82a919afb1c8764",
      "contractAddress": null
    }
  ],
  "libraries": [],
  "pending": [],
  "returns": {},
  "timestamp": 1737484525,
  "chain": 11155111,
  "commit": "51a374b"
}