{
  "transactions": [
    {
      "hash": "0xc6f791b06caa24d0fe551444d952387503124f6a10fa57fb8b7ce0112e84215a",
      "transactionType": "CALL",
      "contractName": null,
      "contractAddress": "0x270e88f8683660553e8ba4eb2ad7c91a1710d769",
      "function": "sell(uint256)",
      "arguments": [
        "748009253553900066688"
      ],
      "transaction": {
        "from": "0xc77f7fed3b5cc8249adc428c5f44c9063b9734b4",
        "to": "0x270e88f8683660553e8ba4eb2ad7c91a1710d769",
        "gas": "0x16fec",
        "value": "0x0",
        "input": "0xe4849b320000000000000000000000000000000000000000000000288cb6b4fc014f9780",
        "nonce": "0x6e2",
        "chainId": "0xaa36a7"
      },
      "additionalContracts": [],
      "isFixedGasLimit": false
    }
  ],
  "receipts": [
    {
      "status": "0x1",
      "cumulativeGasUsed": "0xa47560",
      "logs": [
        {
          "address": "0x270e88f8683660553e8ba4eb2ad7c91a1710d769",
          "topics": [
            "0xddf252ad1be2c89b69c2b068fc378daa952ba7f163c4a11628f55a4df523b3ef",
            "0x000000000000000000000000c77f7fed3b5cc8249adc428c5f44c9063b9734b4",
            "0x0000000000000000000000000000000000000000000000000000000000000000"
          ],
          "data": "0x0000000000000000000000000000000000000000000000288cb6b4fc014f9780",
          "blockHash": "0x304f855bd45f60fe8679cd4b5bc793a8778387c8909c4e92a5e8f91df87384a7",
          "blockNumber": "0x7253f5",
          "transactionHash": "0xc6f791b06caa24d0fe551444d952387503124f6a10fa57fb8b7ce0112e84215a",
          "transactionIndex": "0x4a",
          "logIndex": "0x76",
          "removed": false
        },
        {
          "address": "0x270e88f8683660553e8ba4eb2ad7c91a1710d769",
          "topics": [
            "0x4afcb4a87cdbd9974efdb92ee48bc8d7cd0ae4bf217004db3d080cbaee652ca7"
          ],
          "data": "0x000000000000000000000000000000000000000000000000000000006786e1840000000000000000000000000000000000000000000000000004b7ac1e08bcfe0000000000000000000000000000000000000000000000000dc82954256f9feb",
          "blockHash": "0x304f855bd45f60fe8679cd4b5bc793a8778387c8909c4e92a5e8f91df87384a7",
          "blockNumber": "0x7253f5",
          "transactionHash": "0xc6f791b06caa24d0fe551444d952387503124f6a10fa57fb8b7ce0112e84215a",
          "transactionIndex": "0x4a",
          "logIndex": "0x77",
          "removed": false
        }
      ],
      "logsBloom": "0x00000000000000000000000000000000000000000000000000000000000000000000000000000000000000000000000020000000000000004000000000000000000000000000000000000008000000000000000000000000000000000000000000000000020000000000000000000800020000000000000000000010000000000000000000010000000000000000000000000000000000000000010000000000000000000000000000000000000000004000000000000000000000000000000000000002000000800000000000000000000000000000080000008000000020000000000000000000000000000000000000000000000000000000000000000000",
      "type": "0x2",
      "transactionHash": "0xc6f791b06caa24d0fe551444d952387503124f6a10fa57fb8b7ce0112e84215a",
      "transactionIndex": "0x4a",
      "blockHash": "0x304f855bd45f60fe8679cd4b5bc793a8778387c8909c4e92a5e8f91df87384a7",
      "blockNumber": "0x7253f5",
      "gasUsed": "0xfb93",
      "effectiveGasPrice": "0x15c9f2bac",
      "from": "0xc77f7fed3b5cc8249adc428c5f44c9063b9734b4",
      "to": "0x270e88f8683660553e8ba4eb2ad7c91a1710d769",
      "contractAddress": null
    }
  ],
  "libraries": [],
  "pending": [],
  "returns": {},
  "timestamp": 1736892805,
  "chain": 11155111,
  "commit": "51a374b"
}