{
  "transactions": [
    {
      "hash": "0x2e99fba96f9ed47d9bbf2301b171d2f0ebd81c9c2f7cab077d87ba40ce5953fc",
      "transactionType": "CALL",
      "contractName": null,
      "contractAddress": "0x270e88f8683660553e8ba4eb2ad7c91a1710d769",
      "function": "buy(address)",
      "arguments": [
        "0xC77f7fed3b5Cc8249aDc428c5F44C9063B9734b4"
      ],
      "transaction": {
        "from": "0xc77f7fed3b5cc8249adc428c5f44c9063b9734b4",
        "to": "0x270e88f8683660553e8ba4eb2ad7c91a1710d769",
        "gas": "0x1b30c",
        "value": "0xde0b6b3a7640000",
        "input": "0xf088d547000000000000000000000000c77f7fed3b5cc8249adc428c5f44c9063b9734b4",
        "nonce": "0x797",
        "chainId": "0xaa36a7"
      },
      "additionalContracts": [],
      "isFixedGasLimit": false
    }
  ],
  "receipts": [
    {
      "status": "0x1",
      "cumulativeGasUsed": "0x5b4859",
      "logs": [
        {
          "address": "0x270e88f8683660553e8ba4eb2ad7c91a1710d769",
          "topics": [
            "0xddf252ad1be2c89b69c2b068fc378daa952ba7f163c4a11628f55a4df523b3ef",
            "0x0000000000000000000000000000000000000000000000000000000000000000",
            "0x000000000000000000000000c77f7fed3b5cc8249adc428c5f44c9063b9734b4"
          ],
          "data": "0x0000000000000000000000000000000000000000000000278dc1c1101f3a802b",
          "blockHash": "0xe32c6994ce97318d1ba9c2a73fadd61225d3d23a91a0c830ec8ad62254505a4d",
          "blockNumber": "0x7254ca",
          "transactionHash": "0x2e99fba96f9ed47d9bbf2301b171d2f0ebd81c9c2f7cab077d87ba40ce5953fc",
          "transactionIndex": "0x35",
          "logIndex": "0x65",
          "removed": false
        },
        {
          "address": "0x270e88f8683660553e8ba4eb2ad7c91a1710d769",
          "topics": [
            "0xddf252ad1be2c89b69c2b068fc378daa952ba7f163c4a11628f55a4df523b3ef",
            "0x0000000000000000000000000000000000000000000000000000000000000000",
            "0x000000000000000000000000c77f7fed3b5cc8249adc428c5f44c9063b9734b4"
          ],
          "data": "0x0000000000000000000000000000000000000000000000001eb6fede968a5a9b",
          "blockHash": "0xe32c6994ce97318d1ba9c2a73fadd61225d3d23a91a0c830ec8ad62254505a4d",
          "blockNumber": "0x7254ca",
          "transactionHash": "0x2e99fba96f9ed47d9bbf2301b171d2f0ebd81c9c2f7cab077d87ba40ce5953fc",
          "transactionIndex": "0x35",
          "logIndex": "0x66",
          "removed": false
        },
        {
          "address": "0x270e88f8683660553e8ba4eb2ad7c91a1710d769",
          "topics": [
            "0x4afcb4a87cdbd9974efdb92ee48bc8d7cd0ae4bf217004db3d080cbaee652ca7"
          ],
          "data": "0x000000000000000000000000000000000000000000000000000000006786eb800000000000000000000000000000000000000000000000000004d2243fdc24800000000000000000000000000000000000000000000000000de0b6b3a7640000",
          "blockHash": "0xe32c6994ce97318d1ba9c2a73fadd61225d3d23a91a0c830ec8ad62254505a4d",
          "blockNumber": "0x7254ca",
          "transactionHash": "0x2e99fba96f9ed47d9bbf2301b171d2f0ebd81c9c2f7cab077d87ba40ce5953fc",
          "transactionIndex": "0x35",
          "logIndex": "0x67",
          "removed": false
        }
      ],
      "logsBloom": "0x00000000000000000000000000000000000000000000000000000000000000000000000000000000000000000000000020000000000000004000000000000000000000000000000000000008000000000000000000000000000000000000000000000000020000000000000000000800020000000000000000000010000000000000000000010000000000000000000000000000000000000000010000000000000000000000000000000000000000004000000000000000000000000000000000000002000000800000000000000000000000000000080000008000000020000000000000000000000000000000000000000000000000000000000000000000",
      "type": "0x2",
      "transactionHash": "0x2e99fba96f9ed47d9bbf2301b171d2f0ebd81c9c2f7cab077d87ba40ce5953fc",
      "transactionIndex": "0x35",
      "blockHash": "0xe32c6994ce97318d1ba9c2a73fadd61225d3d23a91a0c830ec8ad62254505a4d",
      "blockNumber": "0x7254ca",
      "gasUsed": "0x13af8",
      "effectiveGasPrice": "0x1057bccd8",
      "from": "0xc77f7fed3b5cc8249adc428c5f44c9063b9734b4",
      "to": "0x270e88f8683660553e8ba4eb2ad7c91a1710d769",
      "contractAddress": null
    }
  ],
  "libraries": [],
  "pending": [],
  "returns": {},
  "timestamp": 1736895361,
  "chain": 11155111,
  "commit": "51a374b"
}