{
  "transactions": [
    {
      "hash": "0xdf9c2beb9cf7f4b48aef546f996333bed9f377e87356c71d57376def562e9788",
      "transactionType": "CALL",
      "contractName": null,
      "contractAddress": "0xbf4a322f1496e5c3d34a9bcdb4c60567b38c7de2",
      "function": "buy(address)",
      "arguments": [
        "0xC77f7fed3b5Cc8249aDc428c5F44C9063B9734b4"
      ],
      "transaction": {
        "from": "0xc77f7fed3b5cc8249adc428c5f44c9063b9734b4",
        "to": "0xbf4a322f1496e5c3d34a9bcdb4c60567b38c7de2",
        "gas": "0x1b309",
        "value": "0xde0b6b3a7640000",
        "input": "0xf088d547000000000000000000000000c77f7fed3b5cc8249adc428c5f44c9063b9734b4",
        "nonce": "0x96a",
        "chainId": "0xaa36a7"
      },
      "additionalContracts": [],
      "isFixedGasLimit": false
    }
  ],
  "receipts": [
    {
      "status": "0x1",
      "cumulativeGasUsed": "0xcc7f4f",
      "logs": [
        {
          "address": "0xbf4a322f1496e5c3d34a9bcdb4c60567b38c7de2",
          "topics": [
            "0xddf252ad1be2c89b69c2b068fc378daa952ba7f163c4a11628f55a4df523b3ef",
            "0x0000000000000000000000000000000000000000000000000000000000000000",
            "0x000000000000000000000000c77f7fed3b5cc8249adc428c5f44c9063b9734b4"
          ],
          "data": "0x000000000000000000000000000000000000000000000035778c69c7298a24cb",
          "blockHash": "0x2d24221be6479437db8050b66bc20fc0119d06d09ec36f23ee3fa817215e9c2d",
          "blockNumber": "0x725901",
          "transactionHash": "0xdf9c2beb9cf7f4b48aef546f996333bed9f377e87356c71d57376def562e9788",
          "transactionIndex": "0x5c",
          "logIndex": "0x8b",
          "removed": false
        },
        {
          "address": "0xbf4a322f1496e5c3d34a9bcdb4c60567b38c7de2",
          "topics": [
            "0xddf252ad1be2c89b69c2b068fc378daa952ba7f163c4a11628f55a4df523b3ef",
            "0x0000000000000000000000000000000000000000000000000000000000000000",
            "0x000000000000000000000000c77f7fed3b5cc8249adc428c5f44c9063b9734b4"
          ],
          "data": "0x0000000000000000000000000000000000000000000000002984d92905d1685c",
          "blockHash": "0x2d24221be6479437db8050b66bc20fc0119d06d09ec36f23ee3fa817215e9c2d",
          "blockNumber": "0x725901",
          "transactionHash": "0xdf9c2beb9cf7f4b48aef546f996333bed9f377e87356c71d57376def562e9788",
          "transactionIndex": "0x5c",
          "logIndex": "0x8c",
          "removed": false
        },
        {
          "address": "0xbf4a322f1496e5c3d34a9bcdb4c60567b38c7de2",
          "topics": [
            "0x4afcb4a87cdbd9974efdb92ee48bc8d7cd0ae4bf217004db3d080cbaee652ca7"
          ],
          "data": "0x0000000000000000000000000000000000000000000000000000000067871e38000000000000000000000000000000000000000000000000000390ec59fb34550000000000000000000000000000000000000000000000000de0b6b3a7640000",
          "blockHash": "0x2d24221be6479437db8050b66bc20fc0119d06d09ec36f23ee3fa817215e9c2d",
          "blockNumber": "0x725901",
          "transactionHash": "0xdf9c2beb9cf7f4b48aef546f996333bed9f377e87356c71d57376def562e9788",
          "transactionIndex": "0x5c",
          "logIndex": "0x8d",
          "removed": false
        }
      ],
      "logsBloom": "0x00000000000000000000000000000000000000000000000000000000000000000000000000000000000000000000000000000000000000004000000000000000000000000000000000000008000000000000001000000000000000000000000000000000020000000000000000000800020000000000000000000010000000000000000000000000000000000000000000000000000008000000010000000000000000000000000000000000000000004000000000000000000000000000000000000002000000800000000000001000000000000000080000000000000020000000000000000000000000000000000000000000000000000000000000000000",
      "type": "0x2",
      "transactionHash": "0xdf9c2beb9cf7f4b48aef546f996333bed9f377e87356c71d57376def562e9788",
      "transactionIndex": "0x5c",
      "blockHash": "0x2d24221be6479437db8050b66bc20fc0119d06d09ec36f23ee3fa817215e9c2d",
      "blockNumber": "0x725901",
      "gasUsed": "0x13af6",
      "effectiveGasPrice": "0xa707a253",
      "from": "0xc77f7fed3b5cc8249adc428c5f44c9063b9734b4",
      "to": "0xbf4a322f1496e5c3d34a9bcdb4c60567b38c7de2",
      "contractAddress": null
    }
  ],
  "libraries": [],
  "pending": [],
  "returns": {},
  "timestamp": 1736908345,
  "chain": 11155111,
  "commit": "51a374b"
}