{
  "transactions": [
    {
      "hash": "0xc4ff3fa60bdc031cc035ac9b26f845ab997f87a2d364921d1e9c488aff984d1a",
      "transactionType": "CALL",
      "contractName": null,
      "contractAddress": "0xbf4a322f1496e5c3d34a9bcdb4c60567b38c7de2",
      "function": "sell(uint256)",
      "arguments": [
        "984707648854293410061"
      ],
      "transaction": {
        "from": "0xc77f7fed3b5cc8249adc428c5f44c9063b9734b4",
        "to": "0xbf4a322f1496e5c3d34a9bcdb4c60567b38c7de2",
        "gas": "0x16fea",
        "value": "0x0",
        "input": "0xe4849b320000000000000000000000000000000000000000000000356190556da23ef10d",
        "nonce": "0xabb",
        "chainId": "0xaa36a7"
      },
      "additionalContracts": [],
      "isFixedGasLimit": false
    }
  ],
  "receipts": [
    {
      "status": "0x1",
      "cumulativeGasUsed": "0xd4fae6",
      "logs": [
        {
          "address": "0xbf4a322f1496e5c3d34a9bcdb4c60567b38c7de2",
          "topics": [
            "0xddf252ad1be2c89b69c2b068fc378daa952ba7f163c4a11628f55a4df523b3ef",
            "0x000000000000000000000000c77f7fed3b5cc8249adc428c5f44c9063b9734b4",
            "0x0000000000000000000000000000000000000000000000000000000000000000"
          ],
          "data": "0x0000000000000000000000000000000000000000000000356190556da23ef10d",
          "blockHash": "0x97d80b1918fe0bdeb773c636a10cbf3afb3e60c74ceb15be88f0bb9e186aec05",
          "blockNumber": "0x725aa8",
          "transactionHash": "0xc4ff3fa60bdc031cc035ac9b26f845ab997f87a2d364921d1e9c488aff984d1a",
          "transactionIndex": "0x72",
          "logIndex": "0xdf",
          "removed": false
        },
        {
          "address": "0xbf4a322f1496e5c3d34a9bcdb4c60567b38c7de2",
          "topics": [
            "0x4afcb4a87cdbd9974efdb92ee48bc8d7cd0ae4bf217004db3d080cbaee652ca7"
          ],
          "data": "0x00000000000000000000000000000000000000000000000000000000678732300000000000000000000000000000000000000000000000000003952e83e9ae240000000000000000000000000000000000000000000000000dc7e3ed02fd6cd9",
          "blockHash": "0x97d80b1918fe0bdeb773c636a10cbf3afb3e60c74ceb15be88f0bb9e186aec05",
          "blockNumber": "0x725aa8",
          "transactionHash": "0xc4ff3fa60bdc031cc035ac9b26f845ab997f87a2d364921d1e9c488aff984d1a",
          "transactionIndex": "0x72",
          "logIndex": "0xe0",
          "removed": false
        }
      ],
      "logsBloom": "0x00000000000000000000000000000000000000000000000000000000000000000000000000000000000000000000000000000000000000004000000000000000000000000000000000000008000000000000001000000000000000000000000000000000020000000000000000000800020000000000000000000010000000000000000000000000000000000000000000000000000008000000010000000000000000000000000000000000000000004000000000000000000000000000000000000002000000800000000000001000000000000000080000000000000020000000000000000000000000000000000000000000000000000000000000000000",
      "type": "0x2",
      "transactionHash": "0xc4ff3fa60bdc031cc035ac9b26f845ab997f87a2d364921d1e9c488aff984d1a",
      "transactionIndex": "0x72",
      "blockHash": "0x97d80b1918fe0bdeb773c636a10cbf3afb3e60c74ceb15be88f0bb9e186aec05",
      "blockNumber": "0x725aa8",
      "gasUsed": "0xfb91",
      "effectiveGasPrice": "0x1297a253c",
      "from": "0xc77f7fed3b5cc8249adc428c5f44c9063b9734b4",
      "to": "0xbf4a322f1496e5c3d34a9bcdb4c60567b38c7de2",
      "contractAddress": null
    }
  ],
  "libraries": [],
  "pending": [],
  "returns": {},
  "timestamp": 1736913457,
  "chain": 11155111,
  "commit": "51a374b"
}