{
  "transactions": [
    {
      "hash": "0xa712589243f55a1417af571a6d2f63295a2e559d923751524b3f28419b0af9de",
      "transactionType": "CALL",
      "contractName": null,
      "contractAddress": "0x8aafd3ede9adb0ff97c7aebce82a919afb1c8764",
      "function": "sell(uint256)",
      "arguments": [
        "6800408406"
      ],
      "transaction": {
        "from": "0xc77f7fed3b5cc8249adc428c5f44c9063b9734b4",
        "to": "0x8aafd3ede9adb0ff97c7aebce82a919afb1c8764",
        "gas": "0x1722a",
        "value": "0x0",
        "input": "0xe4849b32000000000000000000000000000000000000000000000000000000019555ff56",
        "nonce": "0x1504",
        "chainId": "0xaa36a7"
      },
      "additionalContracts": [],
      "isFixedGasLimit": false
    }
  ],
  "receipts": [
    {
      "status": "0x1",
      "cumulativeGasUsed": "0x170ced2",
      "logs": [
        {
          "address": "0x8aafd3ede9adb0ff97c7aebce82a919afb1c8764",
          "topics": [
            "0xddf252ad1be2c89b69c2b068fc378daa952ba7f163c4a11628f55a4df523b3ef",
            "0x000000000000000000000000c77f7fed3b5cc8249adc428c5f44c9063b9734b4",
            "0x0000000000000000000000000000000000000000000000000000000000000000"
          ],
          "data": "0x000000000000000000000000000000000000000000000000000000019217de93",
          "blockHash": "0xda742fdeb455d0c858cc1f18a872815373f06558c9d55af6c37419536ab2acd5",
          "blockNumber": "0x731c66",
          "transactionHash": "0xa712589243f55a1417af571a6d2f63295a2e559d923751524b3f28419b0af9de",
          "transactionIndex": "0xca",
          "logIndex": "0x167",
          "removed": false
        },
        {
          "address": "0x8aafd3ede9adb0ff97c7aebce82a919afb1c8764",
          "topics": [
            "0xddf252ad1be2c89b69c2b068fc378daa952ba7f163c4a11628f55a4df523b3ef",
            "0x000000000000000000000000c77f7fed3b5cc8249adc428c5f44c9063b9734b4",
            "0x000000000000000000000000c77f7fed3b5cc8249adc428c5f44c9063b9734b4"
          ],
          "data": "0x00000000000000000000000000000000000000000000000000000000033e20c3",
          "blockHash": "0xda742fdeb455d0c858cc1f18a872815373f06558c9d55af6c37419536ab2acd5",
          "blockNumber": "0x731c66",
          "transactionHash": "0xa712589243f55a1417af571a6d2f63295a2e559d923751524b3f28419b0af9de",
          "transactionIndex": "0xca",
          "logIndex": "0x168",
          "removed": false
        },
        {
          "address": "0x8aafd3ede9adb0ff97c7aebce82a919afb1c8764",
          "topics": [
            "0x4afcb4a87cdbd9974efdb92ee48bc8d7cd0ae4bf217004db3d080cbaee652ca7"
          ],
          "data": "0x00000000000000000000000000000000000000000000000000000000679051a400000000000000000000000000000000000000000000000000111a50508246cc0000000000000000000000000000000000000000000000000000000001f387bc",
          "blockHash": "0xda742fdeb455d0c858cc1f18a872815373f06558c9d55af6c37419536ab2acd5",
          "blockNumber": "0x731c66",
          "transactionHash": "0xa712589243f55a1417af571a6d2f63295a2e559d923751524b3f28419b0af9de",
          "transactionIndex": "0xca",
          "logIndex": "0x169",
          "removed": false
        }
      ],
      "logsBloom": "0x00000000000000000000000000000000000000000600000000000000000000000000000000000000000000000000000000000000000000004000000000000000000000000000004000000008000000000000000000000000000000000000000000000000020000000000000000000800020000000000000000000010000000000000000000000000000000000000000000000000000000000000010000000000000000000000000000000000000000004000000000000000000000000000000000000002000000800000000000000000000000000000080000000000000020000000000000000000000000000000000000000000000000000000000000000000",
      "type": "0x2",
      "transactionHash": "0xa712589243f55a1417af571a6d2f63295a2e559d923751524b3f28419b0af9de",
      "transactionIndex": "0xca",
      "blockHash": "0xda742fdeb455d0c858cc1f18a872815373f06558c9d55af6c37419536ab2acd5",
      "blockNumber": "0x731c66",
      "gasUsed": "0xfd1b",
      "effectiveGasPrice": "0x192462dea",
      "from": "0xc77f7fed3b5cc8249adc428c5f44c9063b9734b4",
      "to": "0x8aafd3ede9adb0ff97c7aebce82a919afb1c8764",
      "contractAddress": null
    }
  ],
  "libraries": [],
  "pending": [],
  "returns": {},
  "timestamp": 1737511334,
  "chain": 11155111,
  "commit": "1d2fb70"
}