{
  "transactions": [
    {
      "hash": "0x3802cdd9120a94292beacde6d9575fe2519259e9bc18da9f4defa5d4abe5879e",
      "transactionType": "CALL",
      "contractName": null,
      "contractAddress": "0x270e88f8683660553e8ba4eb2ad7c91a1710d769",
      "function": "sell(uint256)",
      "arguments": [
        "988233387189996234392"
      ],
      "transaction": {
        "from": "0xc77f7fed3b5cc8249adc428c5f44c9063b9734b4",
        "to": "0x270e88f8683660553e8ba4eb2ad7c91a1710d769",
        "gas": "0x16fec",
        "value": "0x0",
        "input": "0xe4849b32000000000000000000000000000000000000000000000035927e45c3b0ca2698",
        "nonce": "0x4f3",
        "chainId": "0xaa36a7"
      },
      "additionalContracts": [],
      "isFixedGasLimit": false
    }
  ],
  "receipts": [
    {
      "status": "0x1",
      "cumulativeGasUsed": "0xbf5a3f",
      "logs": [
        {
          "address": "0x270e88f8683660553e8ba4eb2ad7c91a1710d769",
          "topics": [
            "0xddf252ad1be2c89b69c2b068fc378daa952ba7f163c4a11628f55a4df523b3ef",
            "0x000000000000000000000000c77f7fed3b5cc8249adc428c5f44c9063b9734b4",
            "0x0000000000000000000000000000000000000000000000000000000000000000"
          ],
          "data": "0x000000000000000000000000000000000000000000000035927e45c3b0ca2698",
          "blockHash": "0xbd8ce957eaab4975a582b77b0b8fdcc2a6317ba53ef3fa7d4557ac5379d0b4ef",
          "blockNumber": "0x725184",
          "transactionHash": "0x3802cdd9120a94292beacde6d9575fe2519259e9bc18da9f4defa5d4abe5879e",
          "transactionIndex": "0x5b",
          "logIndex": "0x9a",
          "removed": false
        },
        {
          "address": "0x270e88f8683660553e8ba4eb2ad7c91a1710d769",
          "topics": [
            "0x4afcb4a87cdbd9974efdb92ee48bc8d7cd0ae4bf217004db3d080cbaee652ca7"
          ],
          "data": "0x000000000000000000000000000000000000000000000000000000006786c4140000000000000000000000000000000000000000000000000003922d436caf0d0000000000000000000000000000000000000000000000000dc84215fdbc741e",
          "blockHash": "0xbd8ce957eaab4975a582b77b0b8fdcc2a6317ba53ef3fa7d4557ac5379d0b4ef",
          "blockNumber": "0x725184",
          "transactionHash": "0x3802cdd9120a94292beacde6d9575fe2519259e9bc18da9f4defa5d4abe5879e",
          "transactionIndex": "0x5b",
          "logIndex": "0x9b",
          "removed": false
        }
      ],
      "logsBloom": "0x00000000000000000000000000000000000000000000000000000000000000000000000000000000000000000000000020000000000000004000000000000000000000000000000000000008000000000000000000000000000000000000000000000000020000000000000000000800020000000000000000000010000000000000000000010000000000000000000000000000000000000000010000000000000000000000000000000000000000004000000000000000000000000000000000000002000000800000000000000000000000000000080000008000000020000000000000000000000000000000000000000000000000000000000000000000",
      "type": "0x2",
      "transactionHash": "0x3802cdd9120a94292beacde6d9575fe2519259e9bc18da9f4defa5d4abe5879e",
      "transactionIndex": "0x5b",
      "blockHash": "0xbd8ce957eaab4975a582b77b0b8fdcc2a6317ba53ef3fa7d4557ac5379d0b4ef",
      "blockNumber": "0x725184",
      "gasUsed": "0xfb93",
      "effectiveGasPrice": "0x4510b47ec",
      "from": "0xc77f7fed3b5cc8249adc428c5f44c9063b9734b4",
      "to": "0x270e88f8683660553e8ba4eb2ad7c91a1710d769",
      "contractAddress": null
    }
  ],
  "libraries": [],
  "pending": [],
  "returns": {},
  "timestamp": 1736885269,
  "chain": 11155111,
  "commit": "51a374b"
}