{
  "transactions": [
    {
      "hash": "0x96a9d28ce32901fb082c08b105523d722a8a9c2cacd14d6c9eb11d66766a46e0",
      "transactionType": "CALL",
      "contractName": null,
      "contractAddress": "0xbf4a322f1496e5c3d34a9bcdb4c60567b38c7de2",
      "function": "sell(uint256)",
      "arguments": [
        "978457657620114648137"
      ],
      "transaction": {
        "from": "0xc77f7fed3b5cc8249adc428c5f44c9063b9734b4",
        "to": "0xbf4a322f1496e5c3d34a9bcdb4c60567b38c7de2",
        "gas": "0x16fea",
        "value": "0x0",
        "input": "0xe4849b320000000000000000000000000000000000000000000000350ad3e783bfb72c49",
        "nonce": "0xc8b",
        "chainId": "0xaa36a7"
      },
      "additionalContracts": [],
      "isFixedGasLimit": false
    }
  ],
  "receipts": [
    {
      "status": "0x1",
      "cumulativeGasUsed": "0xdb94a8",
      "logs": [
        {
          "address": "0xbf4a322f1496e5c3d34a9bcdb4c60567b38c7de2",
          "topics": [
            "0xddf252ad1be2c89b69c2b068fc378daa952ba7f163c4a11628f55a4df523b3ef",
            "0x000000000000000000000000c77f7fed3b5cc8249adc428c5f44c9063b9734b4",
            "0x0000000000000000000000000000000000000000000000000000000000000000"
          ],
          "data": "0x0000000000000000000000000000000000000000000000350ad3e783bfb72c49",
          "blockHash": "0x57aef142e7458fad36a8b923ad912e67bbf8360a33d15182d1ce44bca70fd33e",
          "blockNumber": "0x725ccf",
          "transactionHash": "0x96a9d28ce32901fb082c08b105523d722a8a9c2cacd14d6c9eb11d66766a46e0",
          "transactionIndex": "0x6e",
          "logIndex": "0x87",
          "removed": false
        },
        {
          "address": "0xbf4a322f1496e5c3d34a9bcdb4c60567b38c7de2",
          "topics": [
            "0x4afcb4a87cdbd9974efdb92ee48bc8d7cd0ae4bf217004db3d080cbaee652ca7"
          ],
          "data": "0x0000000000000000000000000000000000000000000000000000000067874c2800000000000000000000000000000000000000000000000000039b0a4596daaf0000000000000000000000000000000000000000000000000dc7e3de7af60e3e",
          "blockHash": "0x57aef142e7458fad36a8b923ad912e67bbf8360a33d15182d1ce44bca70fd33e",
          "blockNumber": "0x725ccf",
          "transactionHash": "0x96a9d28ce32901fb082c08b105523d722a8a9c2cacd14d6c9eb11d66766a46e0",
          "transactionIndex": "0x6e",
          "logIndex": "0x88",
          "removed": false
        }
      ],
      "logsBloom": "0x00000000000000000000000000000000000000000000000000000000000000000000000000000000000000000000000000000000000000004000000000000000000000000000000000000008000000000000001000000000000000000000000000000000020000000000000000000800020000000000000000000010000000000000000000000000000000000000000000000000000008000000010000000000000000000000000000000000000000004000000000000000000000000000000000000002000000800000000000001000000000000000080000000000000020000000000000000000000000000000000000000000000000000000000000000000",
      "type": "0x2",
      "transactionHash": "0x96a9d28ce32901fb082c08b105523d722a8a9c2cacd14d6c9eb11d66766a46e0",
      "transactionIndex": "0x6e",
      "blockHash": "0x57aef142e7458fad36a8b923ad912e67bbf8360a33d15182d1ce44bca70fd33e",
      "blockNumber": "0x725ccf",
      "gasUsed": "0xfb91",
      "effectiveGasPrice": "0x279796b03",
      "from": "0xc77f7fed3b5cc8249adc428c5f44c9063b9734b4",
      "to": "0xbf4a322f1496e5c3d34a9bcdb4c60567b38c7de2",
      "contractAddress": null
    }
  ],
  "libraries": [],
  "pending": [],
  "returns": {},
  "timestamp": 1736920105,
  "chain": 11155111,
  "commit": "51a374b"
}