{
  "transactions": [
    {
      "hash": "0x415b878a29c39aaf77c01fd31cf2ed2bd5dd7a98192b220dc3cd07f86c307fe1",
      "transactionType": "CALL",
      "contractName": null,
      "contractAddress": "0x8aafd3ede9adb0ff97c7aebce82a919afb1c8764",
      "function": "sell(uint256)",
      "arguments": [
        "47708793078050947"
      ],
      "transaction": {
        "from": "0xc77f7fed3b5cc8249adc428c5f44c9063b9734b4",
        "to": "0x8aafd3ede9adb0ff97c7aebce82a919afb1c8764",
        "gas": "0x15daa",
        "value": "0x0",
        "input": "0xe4849b3200000000000000000000000000000000000000000000000000a97ee500147083",
        "nonce": "0xf0c",
        "chainId": "0xaa36a7"
      },
      "additionalContracts": [],
      "isFixedGasLimit": false
    }
  ],
  "receipts": [
    {
      "status": "0x1",
      "cumulativeGasUsed": "0xb35651",
      "logs": [
        {
          "address": "0x8aafd3ede9adb0ff97c7aebce82a919afb1c8764",
          "topics": [
            "0xddf252ad1be2c89b69c2b068fc378daa952ba7f163c4a11628f55a4df523b3ef",
            "0x000000000000000000000000c77f7fed3b5cc8249adc428c5f44c9063b9734b4",
            "0x0000000000000000000000000000000000000000000000000000000000000000"
          ],
          "data": "0x00000000000000000000000000000000000000000000000000a823c472c4676c",
          "blockHash": "0xc1c669d6835f16fc4d746faf1cbfef873b30b965ea5dc93728577b2df9f9ad1e",
          "blockNumber": "0x731485",
          "transactionHash": "0x415b878a29c39aaf77c01fd31cf2ed2bd5dd7a98192b220dc3cd07f86c307fe1",
          "transactionIndex": "0x7f",
          "logIndex": "0xb0",
          "removed": false
        },
        {
          "address": "0x8aafd3ede9adb0ff97c7aebce82a919afb1c8764",
          "topics": [
            "0xddf252ad1be2c89b69c2b068fc378daa952ba7f163c4a11628f55a4df523b3ef",
            "0x000000000000000000000000c77f7fed3b5cc8249adc428c5f44c9063b9734b4",
            "0x000000000000000000000000c77f7fed3b5cc8249adc428c5f44c9063b9734b4"
          ],
          "data": "0x00000000000000000000000000000000000000000000000000015b208d500917",
          "blockHash": "0xc1c669d6835f16fc4d746faf1cbfef873b30b965ea5dc93728577b2df9f9ad1e",
          "blockNumber": "0x731485",
          "transactionHash": "0x415b878a29c39aaf77c01fd31cf2ed2bd5dd7a98192b220dc3cd07f86c307fe1",
          "transactionIndex": "0x7f",
          "logIndex": "0xb1",
          "removed": false
        },
        {
          "address": "0x8aafd3ede9adb0ff97c7aebce82a919afb1c8764",
          "topics": [
            "0x4afcb4a87cdbd9974efdb92ee48bc8d7cd0ae4bf217004db3d080cbaee652ca7"
          ],
          "data": "0x00000000000000000000000000000000000000000000000000000000678ff2e80000000000000000000000000000000000000000000000000004bbf0bfdd66b0000000000000000000000000000000000000000000000000000039d1f98e9a31",
          "blockHash": "0xc1c669d6835f16fc4d746faf1cbfef873b30b965ea5dc93728577b2df9f9ad1e",
          "blockNumber": "0x731485",
          "transactionHash": "0x415b878a29c39aaf77c01fd31cf2ed2bd5dd7a98192b220dc3cd07f86c307fe1",
          "transactionIndex": "0x7f",
          "logIndex": "0xb2",
          "removed": false
        }
      ],
      "logsBloom": "0x00000000000000000000000000000000000000000600000000000000000000000000000000000000000000000000000000000000000000004000000000000000000000000000004000000008000000000000000000000000000000000000000000000000020000000000000000000800020000000000000000000010000000000000000000000000000000000000000000000000000000000000010000000000000000000000000000000000000000004000000000000000000000000000000000000002000000800000000000000000000000000000080000000000000020000000000000000000000000000000000000000000000000000000000000000000",
      "type": "0x2",
      "transactionHash": "0x415b878a29c39aaf77c01fd31cf2ed2bd5dd7a98192b220dc3cd07f86c307fe1",
      "transactionIndex": "0x7f",
      "blockHash": "0xc1c669d6835f16fc4d746faf1cbfef873b30b965ea5dc93728577b2df9f9ad1e",
      "blockNumber": "0x731485",
      "gasUsed": "0xfd27",
      "effectiveGasPrice": "0x9075790d",
      "from": "0xc77f7fed3b5cc8249adc428c5f44c9063b9734b4",
      "to": "0x8aafd3ede9adb0ff97c7aebce82a919afb1c8764",
      "contractAddress": null
    }
  ],
  "libraries": [],
  "pending": [],
  "returns": {},
  "timestamp": 1737487081,
  "chain": 11155111,
  "commit": "51a374b"
}