{
  "transactions": [
    {
      "hash": "0x95264cadbe94ec8ef366ffe4472d3c628e0cec641e7c20406d7c78969c17973c",
      "transactionType": "CALL",
      "contractName": null,
      "contractAddress": "0x8aafd3ede9adb0ff97c7aebce82a919afb1c8764",
      "function": "sell(uint256)",
      "arguments": [
        "383116375655441"
      ],
      "transaction": {
        "from": "0xc77f7fed3b5cc8249adc428c5f44c9063b9734b4",
        "to": "0x8aafd3ede9adb0ff97c7aebce82a919afb1c8764",
        "gas": "0x1724d",
        "value": "0x0",
        "input": "0xe4849b3200000000000000000000000000000000000000000000000000015c713b7a8411",
        "nonce": "0xe9f",
        "chainId": "0xaa36a7"
      },
      "additionalContracts": [],
      "isFixedGasLimit": false
    }
  ],
  "receipts": [
    {
      "status": "0x1",
      "cumulativeGasUsed": "0x107c04f",
      "logs": [
        {
          "address": "0x8aafd3ede9adb0ff97c7aebce82a919afb1c8764",
          "topics": [
            "0xddf252ad1be2c89b69c2b068fc378daa952ba7f163c4a11628f55a4df523b3ef",
            "0x000000000000000000000000c77f7fed3b5cc8249adc428c5f44c9063b9734b4",
            "0x0000000000000000000000000000000000000000000000000000000000000000"
          ],
          "data": "0x000000000000000000000000000000000000000000000000000159a79f5ad0d6",
          "blockHash": "0xc4955adadea417827bf89ab754bed64e0352d6a92d6a9a898b84f985b4376db2",
          "blockNumber": "0x731401",
          "transactionHash": "0x95264cadbe94ec8ef366ffe4472d3c628e0cec641e7c20406d7c78969c17973c",
          "transactionIndex": "0xb4",
          "logIndex": "0xfd",
          "removed": false
        },
        {
          "address": "0x8aafd3ede9adb0ff97c7aebce82a919afb1c8764",
          "topics": [
            "0xddf252ad1be2c89b69c2b068fc378daa952ba7f163c4a11628f55a4df523b3ef",
            "0x000000000000000000000000c77f7fed3b5cc8249adc428c5f44c9063b9734b4",
            "0x000000000000000000000000c77f7fed3b5cc8249adc428c5f44c9063b9734b4"
          ],
          "data": "0x000000000000000000000000000000000000000000000000000002c99c1fb33b",
          "blockHash": "0xc4955adadea417827bf89ab754bed64e0352d6a92d6a9a898b84f985b4376db2",
          "blockNumber": "0x731401",
          "transactionHash": "0x95264cadbe94ec8ef366ffe4472d3c628e0cec641e7c20406d7c78969c17973c",
          "transactionIndex": "0xb4",
          "logIndex": "0xfe",
          "removed": false
        },
        {
          "address": "0x8aafd3ede9adb0ff97c7aebce82a919afb1c8764",
          "topics": [
            "0x4afcb4a87cdbd9974efdb92ee48bc8d7cd0ae4bf217004db3d080cbaee652ca7"
          ],
          "data": "0x00000000000000000000000000000000000000000000000000000000678fecb80000000000000000000000000000000000000000000000000004b75e1e86a528000000000000000000000000000000000000000000000000000000766a7bf1fc",
          "blockHash": "0xc4955adadea417827bf89ab754bed64e0352d6a92d6a9a898b84f985b4376db2",
          "blockNumber": "0x731401",
          "transactionHash": "0x95264cadbe94ec8ef366ffe4472d3c628e0cec641e7c20406d7c78969c17973c",
          "transactionIndex": "0xb4",
          "logIndex": "0xff",
          "removed": false
        }
      ],
      "logsBloom": "0x00000000000000000000000000000000000000000600000000000000000000000000000000000000000000000000000000000000000000004000000000000000000000000000004000000008000000000000000000000000000000000000000000000000020000000000000000000800020000000000000000000010000000000000000000000000000000000000000000000000000000000000010000000000000000000000000000000000000000004000000000000000000000000000000000000002000000800000000000000000000000000000080000000000000020000000000000000000000000000000000000000000000000000000000000000000",
      "type": "0x2",
      "transactionHash": "0x95264cadbe94ec8ef366ffe4472d3c628e0cec641e7c20406d7c78969c17973c",
      "transactionIndex": "0xb4",
      "blockHash": "0xc4955adadea417827bf89ab754bed64e0352d6a92d6a9a898b84f985b4376db2",
      "blockNumber": "0x731401",
      "gasUsed": "0xfd33",
      "effectiveGasPrice": "0x7a770e74",
      "from": "0xc77f7fed3b5cc8249adc428c5f44c9063b9734b4",
      "to": "0x8aafd3ede9adb0ff97c7aebce82a919afb1c8764",
      "contractAddress": null
    }
  ],
  "libraries": [],
  "pending": [],
  "returns": {},
  "timestamp": 1737485497,
  "chain": 11155111,
  "commit": "51a374b"
}