{
  "transactions": [
    {
      "hash": "0x9acdb287dc7495b7c1fb471d3ceda8362c0530acafe41e0ce10df9a84661ee67",
      "transactionType": "CALL",
      "contractName": null,
      "contractAddress": "0x5eb9cc76c3506942c1c0ead70e877dd5e4f00cb0",
      "function": "sell(uint256)",
      "arguments": [
        "989146213705312986930"
      ],
      "transaction": {
        "from": "0xc77f7fed3b5cc8249adc428c5f44c9063b9734b4",
        "to": "0x5eb9cc76c3506942c1c0ead70e877dd5e4f00cb0",
        "gas": "0x16fec",
        "value": "0x0",
        "input": "0xe4849b320000000000000000000000000000000000000000000000359f2948a4cbcd6732",
        "nonce": "0x2df",
        "chainId": "0xaa36a7"
      },
      "additionalContracts": [],
      "isFixedGasLimit": false
    }
  ],
  "receipts": [
    {
      "status": "0x1",
      "cumulativeGasUsed": "0xa706cf",
      "logs": [
        {
          "address": "0x5eb9cc76c3506942c1c0ead70e877dd5e4f00cb0",
          "topics": [
            "0xddf252ad1be2c89b69c2b068fc378daa952ba7f163c4a11628f55a4df523b3ef",
            "0x000000000000000000000000c77f7fed3b5cc8249adc428c5f44c9063b9734b4",
            "0x0000000000000000000000000000000000000000000000000000000000000000"
          ],
          "data": "0x0000000000000000000000000000000000000000000000359f2948a4cbcd6732",
          "blockHash": "0x631bd2a78e3f73e915b801f68887accf2bc5728b3d4704e4034d2f4274babb9f",
          "blockNumber": "0x724ebc",
          "transactionHash": "0x9acdb287dc7495b7c1fb471d3ceda8362c0530acafe41e0ce10df9a84661ee67",
          "transactionIndex": "0x4f",
          "logIndex": "0x77",
          "removed": false
        },
        {
          "address": "0x5eb9cc76c3506942c1c0ead70e877dd5e4f00cb0",
          "topics": [
            "0x4afcb4a87cdbd9974efdb92ee48bc8d7cd0ae4bf217004db3d080cbaee652ca7"
          ],
          "data": "0x000000000000000000000000000000000000000000000000000000006786a2840000000000000000000000000000000000000000000000000003910a8d1667710000000000000000000000000000000000000000000000000dc7db133239adf7",
          "blockHash": "0x631bd2a78e3f73e915b801f68887accf2bc5728b3d4704e4034d2f4274babb9f",
          "blockNumber": "0x724ebc",
          "transactionHash": "0x9acdb287dc7495b7c1fb471d3ceda8362c0530acafe41e0ce10df9a84661ee67",
          "transactionIndex": "0x4f",
          "logIndex": "0x78",
          "removed": false
        }
      ],
      "logsBloom": "0x00000000000000000000000000000000000000000000000000000000000000000000000000000000000000000000000000000000000000004000000000000000000000000000000000000008000000000000000000000000000000000000000000000000020000000000000004000800020000000000000000000010000000000000000000000000000000000000000000000000000000000000010000000000000000000000000000000000000000004000000000000000000000000000020000000002000000800000008000000000000000000000080000000000000020000000000000000000000000000000000000000000000000000000000000000000",
      "type": "0x2",
      "transactionHash": "0x9acdb287dc7495b7c1fb471d3ceda8362c0530acafe41e0ce10df9a84661ee67",
      "transactionIndex": "0x4f",
      "blockHash": "0x631bd2a78e3f73e915b801f68887accf2bc5728b3d4704e4034d2f4274babb9f",
      "blockNumber": "0x724ebc",
      "gasUsed": "0xfb93",
      "effectiveGasPrice": "0x4bf5a0161",
      "from": "0xc77f7fed3b5cc8249adc428c5f44c9063b9734b4",
      "to": "0x5eb9cc76c3506942c1c0ead70e877dd5e4f00cb0",
      "contractAddress": null
    }
  ],
  "libraries": [],
  "pending": [],
  "returns": {},
  "timestamp": 1736876677,
  "chain": 11155111,
  "commit": "51a374b"
}