{
  "transactions": [
    {
      "hash": "0x98ad078725b652855ad9301580419cefc79b4e58403c2f399f2eb7ea67f7f985",
      "transactionType": "CALL",
      "contractName": null,
      "contractAddress": "0x8aafd3ede9adb0ff97c7aebce82a919afb1c8764",
      "function": "buy(address)",
      "arguments": [
        "0xC77f7fed3b5Cc8249aDc428c5F44C9063B9734b4"
      ],
      "transaction": {
        "from": "0xc77f7fed3b5cc8249adc428c5f44c9063b9734b4",
        "to": "0x8aafd3ede9adb0ff97c7aebce82a919afb1c8764",
        "gas": "0x156ea",
        "value": "0xde0b6b3a7640000",
        "input": "0xf088d547000000000000000000000000c77f7fed3b5cc8249adc428c5f44c9063b9734b4",
        "nonce": "0x1522",
        "chainId": "0xaa36a7"
      },
      "additionalContracts": [],
      "isFixedGasLimit": false
    }
  ],
  "receipts": [
    {
      "status": "0x1",
      "cumulativeGasUsed": "0x866eea",
      "logs": [
        {
          "address": "0x8aafd3ede9adb0ff97c7aebce82a919afb1c8764",
          "topics": [
            "0xddf252ad1be2c89b69c2b068fc378daa952ba7f163c4a11628f55a4df523b3ef",
            "0x0000000000000000000000000000000000000000000000000000000000000000",
            "0x000000000000000000000000c77f7fed3b5cc8249adc428c5f44c9063b9734b4"
          ],
          "data": "0x00000000000000000000000000000000000000000000000af2f30084c90bb2fe",
          "blockHash": "0x9141b2641a2f4ffb0a4652b28336e2ee94c4fbd55ea1e0d3c13cd54aaecb66d4",
          "blockNumber": "0x731c84",
          "transactionHash": "0x98ad078725b652855ad9301580419cefc79b4e58403c2f399f2eb7ea67f7f985",
          "transactionIndex": "0x69",
          "logIndex": "0x86",
          "removed": false
        },
        {
          "address": "0x8aafd3ede9adb0ff97c7aebce82a919afb1c8764",
          "topics": [
            "0xddf252ad1be2c89b69c2b068fc378daa952ba7f163c4a11628f55a4df523b3ef",
            "0x0000000000000000000000000000000000000000000000000000000000000000",
            "0x000000000000000000000000c77f7fed3b5cc8249adc428c5f44c9063b9734b4"
          ],
          "data": "0x000000000000000000000000000000000000000000000000088095ef4db245fb",
          "blockHash": "0x9141b2641a2f4ffb0a4652b28336e2ee94c4fbd55ea1e0d3c13cd54aaecb66d4",
          "blockNumber": "0x731c84",
          "transactionHash": "0x98ad078725b652855ad9301580419cefc79b4e58403c2f399f2eb7ea67f7f985",
          "transactionIndex": "0x69",
          "logIndex": "0x87",
          "removed": false
        },
        {
          "address": "0x8aafd3ede9adb0ff97c7aebce82a919afb1c8764",
          "topics": [
            "0x4afcb4a87cdbd9974efdb92ee48bc8d7cd0ae4bf217004db3d080cbaee652ca7"
          ],
          "data": "0x000000000000000000000000000000000000000000000000000000006790530c0000000000000000000000000000000000000000000000000011708926255ba90000000000000000000000000000000000000000000000000de0b6b3a7640000",
          "blockHash": "0x9141b2641a2f4ffb0a4652b28336e2ee94c4fbd55ea1e0d3c13cd54aaecb66d4",
          "blockNumber": "0x731c84",
          "transactionHash": "0x98ad078725b652855ad9301580419cefc79b4e58403c2f399f2eb7ea67f7f985",
          "transactionIndex": "0x69",
          "logIndex": "0x88",
          "removed": false
        }
      ],
      "logsBloom": "0x00000000000000000000000000000000000000000600000000000000000000000000000000000000000000000000000000000000000000004000000000000000000000000000004000000008000000000000000000000000000000000000000000000000020000000000000000000800020000000000000000000010000000000000000000000000000000000000000000000000000000000000010000000000000000000000000000000000000000004000000000000000000000000000000000000002000000800000000000000000000000000000080000000000000020000000000000000000000000000000000000000000000000000000000000000000",
      "type": "0x2",
      "transactionHash": "0x98ad078725b652855ad9301580419cefc79b4e58403c2f399f2eb7ea67f7f985",
      "transactionIndex": "0x69",
      "blockHash": "0x9141b2641a2f4ffb0a4652b28336e2ee94c4fbd55ea1e0d3c13cd54aaecb66d4",
      "blockNumber": "0x731c84",
      "gasUsed": "0xf844",
      "effectiveGasPrice": "0x1334233fa",
      "from": "0xc77f7fed3b5cc8249adc428c5f44c9063b9734b4",
      "to": "0x8aafd3ede9adb0ff97c7aebce82a919afb1c8764",
      "contractAddress": null
    }
  ],
  "libraries": [],
  "pending": [],
  "returns": {},
  "timestamp": 1737511693,
  "chain": 11155111,
  "commit": "1d2fb70"
}