{
  "transactions": [
    {
      "hash": "0x084a16771199b94853a333ab617358d5b56ec0b3cd59dd69b49cf06a25581618",
      "transactionType": "CALL",
      "contractName": null,
      "contractAddress": "0x270e88f8683660553e8ba4eb2ad7c91a1710d769",
      "function": "sell(uint256)",
      "arguments": [
        "736924125313873519312"
      ],
      "transaction": {
        "from": "0xc77f7fed3b5cc8249adc428c5f44c9063b9734b4",
        "to": "0x270e88f8683660553e8ba4eb2ad7c91a1710d769",
        "gas": "0x16fec",
        "value": "0x0",
        "input": "0xe4849b32000000000000000000000000000000000000000000000027f2e06b94e4e0a2d0",
        "nonce": "0x75e",
        "chainId": "0xaa36a7"
      },
      "additionalContracts": [],
      "isFixedGasLimit": false
    }
  ],
  "receipts": [
    {
      "status": "0x1",
      "cumulativeGasUsed": "0x73843b",
      "logs": [
        {
          "address": "0x270e88f8683660553e8ba4eb2ad7c91a1710d769",
          "topics": [
            "0xddf252ad1be2c89b69c2b068fc378daa952ba7f163c4a11628f55a4df523b3ef",
            "0x000000000000000000000000c77f7fed3b5cc8249adc428c5f44c9063b9734b4",
            "0x0000000000000000000000000000000000000000000000000000000000000000"
          ],
          "data": "0x000000000000000000000000000000000000000000000027f2e06b94e4e0a2d0",
          "blockHash": "0xb21697f5b3bb00642bb46430b9c8c04cf081cfde8506a5eb571e8e389b866a55",
          "blockNumber": "0x725485",
          "transactionHash": "0x084a16771199b94853a333ab617358d5b56ec0b3cd59dd69b49cf06a25581618",
          "transactionIndex": "0x3e",
          "logIndex": "0x60",
          "removed": false
        },
        {
          "address": "0x270e88f8683660553e8ba4eb2ad7c91a1710d769",
          "topics": [
            "0x4afcb4a87cdbd9974efdb92ee48bc8d7cd0ae4bf217004db3d080cbaee652ca7"
          ],
          "data": "0x000000000000000000000000000000000000000000000000000000006786e8440000000000000000000000000000000000000000000000000004c9d592bbafb80000000000000000000000000000000000000000000000000dc8282e7a066890",
          "blockHash": "0xb21697f5b3bb00642bb46430b9c8c04cf081cfde8506a5eb571e8e389b866a55",
          "blockNumber": "0x725485",
          "transactionHash": "0x084a16771199b94853a333ab617358d5b56ec0b3cd59dd69b49cf06a25581618",
          "transactionIndex": "0x3e",
          "logIndex": "0x61",
          "removed": false
        }
      ],
      "logsBloom": "0x00000000000000000000000000000000000000000000000000000000000000000000000000000000000000000000000020000000000000004000000000000000000000000000000000000008000000000000000000000000000000000000000000000000020000000000000000000800020000000000000000000010000000000000000000010000000000000000000000000000000000000000010000000000000000000000000000000000000000004000000000000000000000000000000000000002000000800000000000000000000000000000080000008000000020000000000000000000000000000000000000000000000000000000000000000000",
      "type": "0x2",
      "transactionHash": "0x084a16771199b94853a333ab617358d5b56ec0b3cd59dd69b49cf06a25581618",
      "transactionIndex": "0x3e",
      "blockHash": "0xb21697f5b3bb00642bb46430b9c8c04cf081cfde8506a5eb571e8e389b866a55",
      "blockNumber": "0x725485",
      "gasUsed": "0xfb93",
      "effectiveGasPrice": "0x125e409f8",
      "from": "0xc77f7fed3b5cc8249adc428c5f44c9063b9734b4",
      "to": "0x270e88f8683660553e8ba4eb2ad7c91a1710d769",
      "contractAddress": null
    }
  ],
  "libraries": [],
  "pending": [],
  "returns": {},
  "timestamp": 1736894533,
  "chain": 11155111,
  "commit": "51a374b"
}