{
  "transactions": [
    {
      "hash": "0xecae5fb4109f6a9c40b8188517b57862c250a1cc4e0e25f3600163e5987393ce",
      "transactionType": "CALL",
      "contractName": null,
      "contractAddress": "0x8aafd3ede9adb0ff97c7aebce82a919afb1c8764",
      "function": "sell(uint256)",
      "arguments": [
        "679823334227148244849"
      ],
      "transaction": {
        "from": "0xc77f7fed3b5cc8249adc428c5f44c9063b9734b4",
        "to": "0x8aafd3ede9adb0ff97c7aebce82a919afb1c8764",
        "gas": "0x17270",
        "value": "0x0",
        "input": "0xe4849b32000000000000000000000000000000000000000000000024da71a89f06d38771",
        "nonce": "0x1203",
        "chainId": "0xaa36a7"
      },
      "additionalContracts": [],
      "isFixedGasLimit": false
    }
  ],
  "receipts": [
    {
      "status": "0x1",
      "cumulativeGasUsed": "0xb78b6a",
      "logs": [
        {
          "address": "0x8aafd3ede9adb0ff97c7aebce82a919afb1c8764",
          "topics": [
            "0xddf252ad1be2c89b69c2b068fc378daa952ba7f163c4a11628f55a4df523b3ef",
            "0x000000000000000000000000c77f7fed3b5cc8249adc428c5f44c9063b9734b4",
            "0x0000000000000000000000000000000000000000000000000000000000000000"
          ],
          "data": "0x0000000000000000000000000000000000000000000000248ef7eadb31c798cb",
          "blockHash": "0xc048c604f7a8e536fa9f5f4949f996f5a19f623d635688c2bd813ad3537a9eee",
          "blockNumber": "0x7318de",
          "transactionHash": "0xecae5fb4109f6a9c40b8188517b57862c250a1cc4e0e25f3600163e5987393ce",
          "transactionIndex": "0x75",
          "logIndex": "0x65",
          "removed": false
        },
        {
          "address": "0x8aafd3ede9adb0ff97c7aebce82a919afb1c8764",
          "topics": [
            "0xddf252ad1be2c89b69c2b068fc378daa952ba7f163c4a11628f55a4df523b3ef",
            "0x000000000000000000000000c77f7fed3b5cc8249adc428c5f44c9063b9734b4",
            "0x000000000000000000000000c77f7fed3b5cc8249adc428c5f44c9063b9734b4"
          ],
          "data": "0x0000000000000000000000000000000000000000000000004b79bdc3d50beea6",
          "blockHash": "0xc048c604f7a8e536fa9f5f4949f996f5a19f623d635688c2bd813ad3537a9eee",
          "blockNumber": "0x7318de",
          "transactionHash": "0xecae5fb4109f6a9c40b8188517b57862c250a1cc4e0e25f3600163e5987393ce",
          "transactionIndex": "0x75",
          "logIndex": "0x66",
          "removed": false
        },
        {
          "address": "0x8aafd3ede9adb0ff97c7aebce82a919afb1c8764",
          "topics": [
            "0x4afcb4a87cdbd9974efdb92ee48bc8d7cd0ae4bf217004db3d080cbaee652ca7"
          ],
          "data": "0x0000000000000000000000000000000000000000000000000000000067902738000000000000000000000000000000000000000000000000000531ec72b49f4b0000000000000000000000000000000000000000000000000dc8f1c015865e65",
          "blockHash": "0xc048c604f7a8e536fa9f5f4949f996f5a19f623d635688c2bd813ad3537a9eee",
          "blockNumber": "0x7318de",
          "transactionHash": "0xecae5fb4109f6a9c40b8188517b57862c250a1cc4e0e25f3600163e5987393ce",
          "transactionIndex": "0x75",
          "logIndex": "0x67",
          "removed": false
        }
      ],
      "logsBloom": "0x00000000000000000000000000000000000000000600000000000000000000000000000000000000000000000000000000000000000000004000000000000000000000000000004000000008000000000000000000000000000000000000000000000000020000000000000000000800020000000000000000000010000000000000000000000000000000000000000000000000000000000000010000000000000000000000000000000000000000004000000000000000000000000000000000000002000000800000000000000000000000000000080000000000000020000000000000000000000000000000000000000000000000000000000000000000",
      "type": "0x2",
      "transactionHash": "0xecae5fb4109f6a9c40b8188517b57862c250a1cc4e0e25f3600163e5987393ce",
      "transactionIndex": "0x75",
      "blockHash": "0xc048c604f7a8e536fa9f5f4949f996f5a19f623d635688c2bd813ad3537a9eee",
      "blockNumber": "0x7318de",
      "gasUsed": "0xfd4b",
      "effectiveGasPrice": "0x40907d6e",
      "from": "0xc77f7fed3b5cc8249adc428c5f44c9063b9734b4",
      "to": "0x8aafd3ede9adb0ff97c7aebce82a919afb1c8764",
      "contractAddress": null
    }
  ],
  "libraries": [],
  "pending": [],
  "returns": {},
  "timestamp": 1737500473,
  "chain": 11155111,
  "commit": "1d2fb70"
}