{
  "transactions": [
    {
      "hash": "0x4ee8ea9032ed82bf47ed780bb42c072b65d29c67b83d0c434a5027a7f1c99cac",
      "transactionType": "CALL",
      "contractName": null,
      "contractAddress": "0x8aafd3ede9adb0ff97c7aebce82a919afb1c8764",
      "function": "sell(uint256)",
      "arguments": [
        "329517"
      ],
      "transaction": {
        "from": "0xc77f7fed3b5cc8249adc428c5f44c9063b9734b4",
        "to": "0x8aafd3ede9adb0ff97c7aebce82a919afb1c8764",
        "gas": "0x16208",
        "value": "0x0",
        "input": "0xe4849b32000000000000000000000000000000000000000000000000000000000005072d",
        "nonce": "0xfef",
        "chainId": "0xaa36a7"
      },
      "additionalContracts": [],
      "isFixedGasLimit": false
    }
  ],
  "receipts": [
    {
      "status": "0x1",
      "cumulativeGasUsed": "0x97a641",
      "logs": [
        {
          "address": "0x8aafd3ede9adb0ff97c7aebce82a919afb1c8764",
          "topics": [
            "0xddf252ad1be2c89b69c2b068fc378daa952ba7f163c4a11628f55a4df523b3ef",
            "0x000000000000000000000000c77f7fed3b5cc8249adc428c5f44c9063b9734b4",
            "0x0000000000000000000000000000000000000000000000000000000000000000"
          ],
          "data": "0x000000000000000000000000000000000000000000000000000000000004fce1",
          "blockHash": "0x30228bb911d4f4c175bb0d88bc61bd960b0a635a132f7ccbf0ebd4e3b5ed653e",
          "blockNumber": "0x731661",
          "transactionHash": "0x4ee8ea9032ed82bf47ed780bb42c072b65d29c67b83d0c434a5027a7f1c99cac",
          "transactionIndex": "0x58",
          "logIndex": "0x82",
          "removed": false
        },
        {
          "address": "0x8aafd3ede9adb0ff97c7aebce82a919afb1c8764",
          "topics": [
            "0xddf252ad1be2c89b69c2b068fc378daa952ba7f163c4a11628f55a4df523b3ef",
            "0x000000000000000000000000c77f7fed3b5cc8249adc428c5f44c9063b9734b4",
            "0x000000000000000000000000c77f7fed3b5cc8249adc428c5f44c9063b9734b4"
          ],
          "data": "0x0000000000000000000000000000000000000000000000000000000000000a4c",
          "blockHash": "0x30228bb911d4f4c175bb0d88bc61bd960b0a635a132f7ccbf0ebd4e3b5ed653e",
          "blockNumber": "0x731661",
          "transactionHash": "0x4ee8ea9032ed82bf47ed780bb42c072b65d29c67b83d0c434a5027a7f1c99cac",
          "transactionIndex": "0x58",
          "logIndex": "0x83",
          "removed": false
        },
        {
          "address": "0x8aafd3ede9adb0ff97c7aebce82a919afb1c8764",
          "topics": [
            "0x4afcb4a87cdbd9974efdb92ee48bc8d7cd0ae4bf217004db3d080cbaee652ca7"
          ],
          "data": "0x00000000000000000000000000000000000000000000000000000000679009380000000000000000000000000000000000000000000000000004e37f08a65ea800000000000000000000000000000000000000000000000000000000000001c5",
          "blockHash": "0x30228bb911d4f4c175bb0d88bc61bd960b0a635a132f7ccbf0ebd4e3b5ed653e",
          "blockNumber": "0x731661",
          "transactionHash": "0x4ee8ea9032ed82bf47ed780bb42c072b65d29c67b83d0c434a5027a7f1c99cac",
          "transactionIndex": "0x58",
          "logIndex": "0x84",
          "removed": false
        }
      ],
      "logsBloom": "0x00000000000000000000000000000000000000000600000000000000000000000000000000000000000000000000000000000000000000004000000000000000000000000000004000000008000000000000000000000000000000000000000000000000020000000000000000000800020000000000000000000010000000000000000000000000000000000000000000000000000000000000010000000000000000000000000000000000000000004000000000000000000000000000000000000002000000800000000000000000000000000000080000000000000020000000000000000000000000000000000000000000000000000000000000000000",
      "type": "0x2",
      "transactionHash": "0x4ee8ea9032ed82bf47ed780bb42c072b65d29c67b83d0c434a5027a7f1c99cac",
      "transactionIndex": "0x58",
      "blockHash": "0x30228bb911d4f4c175bb0d88bc61bd960b0a635a132f7ccbf0ebd4e3b5ed653e",
      "blockNumber": "0x731661",
      "gasUsed": "0xf213",
      "effectiveGasPrice": "0x4e64951b",
      "from": "0xc77f7fed3b5cc8249adc428c5f44c9063b9734b4",
      "to": "0x8aafd3ede9adb0ff97c7aebce82a919afb1c8764",
      "contractAddress": null
    }
  ],
  "libraries": [],
  "pending": [],
  "returns": {},
  "timestamp": 1737492793,
  "chain": 11155111,
  "commit": "1d2fb70"
}