{
  "transactions": [
    {
      "hash": "0xf42a70a8c4c004197e175888076d4aad98c2a372b79c95bcd149ec5b3c51a45f",
      "transactionType": "CALL",
      "contractName": null,
      "contractAddress": "0x8aafd3ede9adb0ff97c7aebce82a919afb1c8764",
      "function": "sell(uint256)",
      "arguments": [
        "5993521771"
      ],
      "transaction": {
        "from": "0xc77f7fed3b5cc8249adc428c5f44c9063b9734b4",
        "to": "0x8aafd3ede9adb0ff97c7aebce82a919afb1c8764",
        "gas": "0x1722a",
        "value": "0x0",
        "input": "0xe4849b3200000000000000000000000000000000000000000000000000000001653de26b",
        "nonce": "0x15ca",
        "chainId": "0xaa36a7"
      },
      "additionalContracts": [],
      "isFixedGasLimit": false
    }
  ],
  "receipts": [
    {
      "status": "0x1",
      "cumulativeGasUsed": "0x1b936f",
      "logs": [
        {
          "address": "0x8aafd3ede9adb0ff97c7aebce82a919afb1c8764",
          "topics": [
            "0xddf252ad1be2c89b69c2b068fc378daa952ba7f163c4a11628f55a4df523b3ef",
            "0x000000000000000000000000c77f7fed3b5cc8249adc428c5f44c9063b9734b4",
            "0x0000000000000000000000000000000000000000000000000000000000000000"
          ],
          "data": "0x00000000000000000000000000000000000000000000000000000001626240dd",
          "blockHash": "0x3429078d9cb04c892b3d54e5f55d163767b81fb49041f8fc209b27b31182e9e8",
          "blockNumber": "0x731d46",
          "transactionHash": "0xf42a70a8c4c004197e175888076d4aad98c2a372b79c95bcd149ec5b3c51a45f",
          "transactionIndex": "0x11",
          "logIndex": "0x14",
          "removed": false
        },
        {
          "address": "0x8aafd3ede9adb0ff97c7aebce82a919afb1c8764",
          "topics": [
            "0xddf252ad1be2c89b69c2b068fc378daa952ba7f163c4a11628f55a4df523b3ef",
            "0x000000000000000000000000c77f7fed3b5cc8249adc428c5f44c9063b9734b4",
            "0x000000000000000000000000c77f7fed3b5cc8249adc428c5f44c9063b9734b4"
          ],
          "data": "0x0000000000000000000000000000000000000000000000000000000002dba18e",
          "blockHash": "0x3429078d9cb04c892b3d54e5f55d163767b81fb49041f8fc209b27b31182e9e8",
          "blockNumber": "0x731d46",
          "transactionHash": "0xf42a70a8c4c004197e175888076d4aad98c2a372b79c95bcd149ec5b3c51a45f",
          "transactionIndex": "0x11",
          "logIndex": "0x15",
          "removed": false
        },
        {
          "address": "0x8aafd3ede9adb0ff97c7aebce82a919afb1c8764",
          "topics": [
            "0x4afcb4a87cdbd9974efdb92ee48bc8d7cd0ae4bf217004db3d080cbaee652ca7"
          ],
          "data": "0x0000000000000000000000000000000000000000000000000000000067905c3000000000000000000000000000000000000000000000000000136458b8c6d8830000000000000000000000000000000000000000000000000000000001f3301c",
          "blockHash": "0x3429078d9cb04c892b3d54e5f55d163767b81fb49041f8fc209b27b31182e9e8",
          "blockNumber": "0x731d46",
          "transactionHash": "0xf42a70a8c4c004197e175888076d4aad98c2a372b79c95bcd149ec5b3c51a45f",
          "transactionIndex": "0x11",
          "logIndex": "0x16",
          "removed": false
        }
      ],
      "logsBloom": "0x00000000000000000000000000000000000000000600000000000000000000000000000000000000000000000000000000000000000000004000000000000000000000000000004000000008000000000000000000000000000000000000000000000000020000000000000000000800020000000000000000000010000000000000000000000000000000000000000000000000000000000000010000000000000000000000000000000000000000004000000000000000000000000000000000000002000000800000000000000000000000000000080000000000000020000000000000000000000000000000000000000000000000000000000000000000",
      "type": "0x2",
      "transactionHash": "0xf42a70a8c4c004197e175888076d4aad98c2a372b79c95bcd149ec5b3c51a45f",
      "transactionIndex": "0x11",
      "blockHash": "0x3429078d9cb04c892b3d54e5f55d163767b81fb49041f8fc209b27b31182e9e8",
      "blockNumber": "0x731d46",
      "gasUsed": "0xfd1b",
      "effectiveGasPrice": "0x6aa5a29b",
      "from": "0xc77f7fed3b5cc8249adc428c5f44c9063b9734b4",
      "to": "0x8aafd3ede9adb0ff97c7aebce82a919afb1c8764",
      "contractAddress": null
    }
  ],
  "libraries": [],
  "pending": [],
  "returns": {},
  "timestamp": 1737514033,
  "chain": 11155111,
  "commit": "1d2fb70"
}