{
  "transactions": [
    {
      "hash": "0xccea0aafb9cadab922e771476430bd98945777f45e2c613e91261f53cf99c246",
      "transactionType": "CALL",
      "contractName": null,
      "contractAddress": "0x8aafd3ede9adb0ff97c7aebce82a919afb1c8764",
      "function": "sell(uint256)",
      "arguments": [
        "5407025221"
      ],
      "transaction": {
        "from": "0xc77f7fed3b5cc8249adc428c5f44c9063b9734b4",
        "to": "0x8aafd3ede9adb0ff97c7aebce82a919afb1c8764",
        "gas": "0x1722a",
        "value": "0x0",
        "input": "0xe4849b32000000000000000000000000000000000000000000000000000000014248a845",
        "nonce": "0x167e",
        "chainId": "0xaa36a7"
      },
      "additionalContracts": [],
      "isFixedGasLimit": false
    }
  ],
  "receipts": [
    {
      "status": "0x1",
      "cumulativeGasUsed": "0x95da7a",
      "logs": [
        {
          "address": "0x8aafd3ede9adb0ff97c7aebce82a919afb1c8764",
          "topics": [
            "0xddf252ad1be2c89b69c2b068fc378daa952ba7f163c4a11628f55a4df523b3ef",
            "0x000000000000000000000000c77f7fed3b5cc8249adc428c5f44c9063b9734b4",
            "0x0000000000000000000000000000000000000000000000000000000000000000"
          ],
          "data": "0x000000000000000000000000000000000000000000000000000000013fb49ebc",
          "blockHash": "0xc8921c08290b027726d810f06472ed052d9b8055132e5a12a31fe323bdda8ded",
          "blockNumber": "0x731e2f",
          "transactionHash": "0xccea0aafb9cadab922e771476430bd98945777f45e2c613e91261f53cf99c246",
          "transactionIndex": "0x5e",
          "logIndex": "0x99",
          "removed": false
        },
        {
          "address": "0x8aafd3ede9adb0ff97c7aebce82a919afb1c8764",
          "topics": [
            "0xddf252ad1be2c89b69c2b068fc378daa952ba7f163c4a11628f55a4df523b3ef",
            "0x000000000000000000000000c77f7fed3b5cc8249adc428c5f44c9063b9734b4",
            "0x000000000000000000000000c77f7fed3b5cc8249adc428c5f44c9063b9734b4"
          ],
          "data": "0x0000000000000000000000000000000000000000000000000000000002940989",
          "blockHash": "0xc8921c08290b027726d810f06472ed052d9b8055132e5a12a31fe323bdda8ded",
          "blockNumber": "0x731e2f",
          "transactionHash": "0xccea0aafb9cadab922e771476430bd98945777f45e2c613e91261f53cf99c246",
          "transactionIndex": "0x5e",
          "logIndex": "0x9a",
          "removed": false
        },
        {
          "address": "0x8aafd3ede9adb0ff97c7aebce82a919afb1c8764",
          "topics": [
            "0x4afcb4a87cdbd9974efdb92ee48bc8d7cd0ae4bf217004db3d080cbaee652ca7"
          ],
          "data": "0x000000000000000000000000000000000000000000000000000000006790671c00000000000000000000000000000000000000000000000000157c0e9921a8ad0000000000000000000000000000000000000000000000000000000001f2efce",
          "blockHash": "0xc8921c08290b027726d810f06472ed052d9b8055132e5a12a31fe323bdda8ded",
          "blockNumber": "0x731e2f",
          "transactionHash": "0xccea0aafb9cadab922e771476430bd98945777f45e2c613e91261f53cf99c246",
          "transactionIndex": "0x5e",
          "logIndex": "0x9b",
          "removed": false
        }
      ],
      "logsBloom": "0x00000000000000000000000000000000000000000600000000000000000000000000000000000000000000000000000000000000000000004000000000000000000000000000004000000008000000000000000000000000000000000000000000000000020000000000000000000800020000000000000000000010000000000000000000000000000000000000000000000000000000000000010000000000000000000000000000000000000000004000000000000000000000000000000000000002000000800000000000000000000000000000080000000000000020000000000000000000000000000000000000000000000000000000000000000000",
      "type": "0x2",
      "transactionHash": "0xccea0aafb9cadab922e771476430bd98945777f45e2c613e91261f53cf99c246",
      "transactionIndex": "0x5e",
      "blockHash": "0xc8921c08290b027726d810f06472ed052d9b8055132e5a12a31fe323bdda8ded",
      "blockNumber": "0x731e2f",
      "gasUsed": "0xfd1b",
      "effectiveGasPrice": "0x4dcbbfb2",
      "from": "0xc77f7fed3b5cc8249adc428c5f44c9063b9734b4",
      "to": "0x8aafd3ede9adb0ff97c7aebce82a919afb1c8764",
      "contractAddress": null
    }
  ],
  "libraries": [],
  "pending": [],
  "returns": {},
  "timestamp": 1737516830,
  "chain": 11155111,
  "commit": "1d2fb70"
}