{
  "transactions": [
    {
      "hash": "0xba399655ad4a09ed45a994bbbb8a89ce58d1dfd2d34c31f28b4649f43f00b416",
      "transactionType": "CALL",
      "contractName": null,
      "contractAddress": "0x5eb9cc76c3506942c1c0ead70e877dd5e4f00cb0",
      "function": "buy(address)",
      "arguments": [
        "0xC77f7fed3b5Cc8249aDc428c5F44C9063B9734b4"
      ],
      "transaction": {
        "from": "0xc77f7fed3b5cc8249adc428c5f44c9063b9734b4",
        "to": "0x5eb9cc76c3506942c1c0ead70e877dd5e4f00cb0",
        "gas": "0x156c8",
        "value": "0xde0b6b3a7640000",
        "input": "0xf088d547000000000000000000000000c77f7fed3b5cc8249adc428c5f44c9063b9734b4",
        "nonce": "0x154",
        "chainId": "0xaa36a7"
      },
      "additionalContracts": [],
      "isFixedGasLimit": false
    }
  ],
  "receipts": [
    {
      "status": "0x1",
      "cumulativeGasUsed": "0xfb1b84",
      "logs": [
        {
          "address": "0x5eb9cc76c3506942c1c0ead70e877dd5e4f00cb0",
          "topics": [
            "0xddf252ad1be2c89b69c2b068fc378daa952ba7f163c4a11628f55a4df523b3ef",
            "0x0000000000000000000000000000000000000000000000000000000000000000",
            "0x000000000000000000000000c77f7fed3b5cc8249adc428c5f44c9063b9734b4"
          ],
          "data": "0x000000000000000000000000000000000000000000000035aaf07915d7962879",
          "blockHash": "0x19ebc4bc84e7c18e3f99915de2578135243cb6a9b7c62cce4599694a3c35d286",
          "blockNumber": "0x723b4d",
          "transactionHash": "0xba399655ad4a09ed45a994bbbb8a89ce58d1dfd2d34c31f28b4649f43f00b416",
          "transactionIndex": "0x74",
          "logIndex": "0x108",
          "removed": false
        },
        {
          "address": "0x5eb9cc76c3506942c1c0ead70e877dd5e4f00cb0",
          "topics": [
            "0xddf252ad1be2c89b69c2b068fc378daa952ba7f163c4a11628f55a4df523b3ef",
            "0x0000000000000000000000000000000000000000000000000000000000000000",
            "0x000000000000000000000000c77f7fed3b5cc8249adc428c5f44c9063b9734b4"
          ],
          "data": "0x00000000000000000000000000000000000000000000000029acc14a17df5021",
          "blockHash": "0x19ebc4bc84e7c18e3f99915de2578135243cb6a9b7c62cce4599694a3c35d286",
          "blockNumber": "0x723b4d",
          "transactionHash": "0xba399655ad4a09ed45a994bbbb8a89ce58d1dfd2d34c31f28b4649f43f00b416",
          "transactionIndex": "0x74",
          "logIndex": "0x109",
          "removed": false
        },
        {
          "address": "0x5eb9cc76c3506942c1c0ead70e877dd5e4f00cb0",
          "topics": [
            "0x4afcb4a87cdbd9974efdb92ee48bc8d7cd0ae4bf217004db3d080cbaee652ca7"
          ],
          "data": "0x000000000000000000000000000000000000000000000000000000006785b8f000000000000000000000000000000000000000000000000000038d7fddeec3c70000000000000000000000000000000000000000000000000de0b6b3a7640000",
          "blockHash": "0x19ebc4bc84e7c18e3f99915de2578135243cb6a9b7c62cce4599694a3c35d286",
          "blockNumber": "0x723b4d",
          "transactionHash": "0xba399655ad4a09ed45a994bbbb8a89ce58d1dfd2d34c31f28b4649f43f00b416",
          "transactionIndex": "0x74",
          "logIndex": "0x10a",
          "removed": false
        }
      ],
      "logsBloom": "0x00000000000000000000000000000000000000000000000000000000000000000000000000000000000000000000000000000000000000004000000000000000000000000000000000000008000000000000000000000000000000000000000000000000020000000000000004000800020000000000000000000010000000000000000000000000000000000000000000000000000000000000010000000000000000000000000000000000000000004000000000000000000000000000020000000002000000800000008000000000000000000000080000000000000020000000000000000000000000000000000000000000000000000000000000000000",
      "type": "0x2",
      "transactionHash": "0xba399655ad4a09ed45a994bbbb8a89ce58d1dfd2d34c31f28b4649f43f00b416",
      "transactionIndex": "0x74",
      "blockHash": "0x19ebc4bc84e7c18e3f99915de2578135243cb6a9b7c62cce4599694a3c35d286",
      "blockNumber": "0x723b4d",
      "gasUsed": "0xf82c",
      "effectiveGasPrice": "0x61c8a17d3",
      "from": "0xc77f7fed3b5cc8249adc428c5f44c9063b9734b4",
      "to": "0x5eb9cc76c3506942c1c0ead70e877dd5e4f00cb0",
      "contractAddress": null
    }
  ],
  "libraries": [],
  "pending": [],
  "returns": {},
  "timestamp": 1736816881,
  "chain": 11155111,
  "commit": "51a374b"
}