{
  "transactions": [
    {
      "hash": "0x784644858b68615b345726a47c7645a0abcfbcff837bbdd5244de1e3cefb70cd",
      "transactionType": "CALL",
      "contractName": null,
      "contractAddress": "0x8aafd3ede9adb0ff97c7aebce82a919afb1c8764",
      "function": "sell(uint256)",
      "arguments": [
        "810456571975"
      ],
      "transaction": {
        "from": "0xc77f7fed3b5cc8249adc428c5f44c9063b9734b4",
        "to": "0x8aafd3ede9adb0ff97c7aebce82a919afb1c8764",
        "gas": "0x1722a",
        "value": "0x0",
        "input": "0xe4849b32000000000000000000000000000000000000000000000000000000bcb2f9e047",
        "nonce": "0x154b",
        "chainId": "0xaa36a7"
      },
      "additionalContracts": [],
      "isFixedGasLimit": false
    }
  ],
  "receipts": [
    {
      "status": "0x1",
      "cumulativeGasUsed": "0xaf1452",
      "logs": [
        {
          "address": "0x8aafd3ede9adb0ff97c7aebce82a919afb1c8764",
          "topics": [
            "0xddf252ad1be2c89b69c2b068fc378daa952ba7f163c4a11628f55a4df523b3ef",
            "0x000000000000000000000000c77f7fed3b5cc8249adc428c5f44c9063b9734b4",
            "0x0000000000000000000000000000000000000000000000000000000000000000"
          ],
          "data": "0x000000000000000000000000000000000000000000000000000000bb30853068",
          "blockHash": "0x9b765ddf88a605a624de2e6507924e5f741c10abd325b24f0e2617b61d57c9c1",
          "blockNumber": "0x731cb1",
          "transactionHash": "0x784644858b68615b345726a47c7645a0abcfbcff837bbdd5244de1e3cefb70cd",
          "transactionIndex": "0x70",
          "logIndex": "0xef",
          "removed": false
        },
        {
          "address": "0x8aafd3ede9adb0ff97c7aebce82a919afb1c8764",
          "topics": [
            "0xddf252ad1be2c89b69c2b068fc378daa952ba7f163c4a11628f55a4df523b3ef",
            "0x000000000000000000000000c77f7fed3b5cc8249adc428c5f44c9063b9734b4",
            "0x000000000000000000000000c77f7fed3b5cc8249adc428c5f44c9063b9734b4"
          ],
          "data": "0x000000000000000000000000000000000000000000000000000000018274afdf",
          "blockHash": "0x9b765ddf88a605a624de2e6507924e5f741c10abd325b24f0e2617b61d57c9c1",
          "blockNumber": "0x731cb1",
          "transactionHash": "0x784644858b68615b345726a47c7645a0abcfbcff837bbdd5244de1e3cefb70cd",
          "transactionIndex": "0x70",
          "logIndex": "0xf0",
          "removed": false
        },
        {
          "address": "0x8aafd3ede9adb0ff97c7aebce82a919afb1c8764",
          "topics": [
            "0x4afcb4a87cdbd9974efdb92ee48bc8d7cd0ae4bf217004db3d080cbaee652ca7"
          ],
          "data": "0x00000000000000000000000000000000000000000000000000000000679055280000000000000000000000000000000000000000000000000011eefba2f989ab00000000000000000000000000000000000000000000000000000000f3d88947",
          "blockHash": "0x9b765ddf88a605a624de2e6507924e5f741c10abd325b24f0e2617b61d57c9c1",
          "blockNumber": "0x731cb1",
          "transactionHash": "0x784644858b68615b345726a47c7645a0abcfbcff837bbdd5244de1e3cefb70cd",
          "transactionIndex": "0x70",
          "logIndex": "0xf1",
          "removed": false
        }
      ],
      "logsBloom": "0x00000000000000000000000000000000000000000600000000000000000000000000000000000000000000000000000000000000000000004000000000000000000000000000004000000008000000000000000000000000000000000000000000000000020000000000000000000800020000000000000000000010000000000000000000000000000000000000000000000000000000000000010000000000000000000000000000000000000000004000000000000000000000000000000000000002000000800000000000000000000000000000080000000000000020000000000000000000000000000000000000000000000000000000000000000000",
      "type": "0x2",
      "transactionHash": "0x784644858b68615b345726a47c7645a0abcfbcff837bbdd5244de1e3cefb70cd",
      "transactionIndex": "0x70",
      "blockHash": "0x9b765ddf88a605a624de2e6507924e5f741c10abd325b24f0e2617b61d57c9c1",
      "blockNumber": "0x731cb1",
      "gasUsed": "0xfd1b",
      "effectiveGasPrice": "0x10f340386",
      "from": "0xc77f7fed3b5cc8249adc428c5f44c9063b9734b4",
      "to": "0x8aafd3ede9adb0ff97c7aebce82a919afb1c8764",
      "contractAddress": null
    }
  ],
  "libraries": [],
  "pending": [],
  "returns": {},
  "timestamp": 1737512233,
  "chain": 11155111,
  "commit": "1d2fb70"
}