{
  "transactions": [
    {
      "hash": "0x141094989c6dfbe0b33b1fd416a86cbe9201abca18faa409b988d9305d4671b8",
      "transactionType": "CALL",
      "contractName": null,
      "contractAddress": "0xbf4a322f1496e5c3d34a9bcdb4c60567b38c7de2",
      "function": "sell(uint256)",
      "arguments": [
        "982678463956770636455"
      ],
      "transaction": {
        "from": "0xc77f7fed3b5cc8249adc428c5f44c9063b9734b4",
        "to": "0xbf4a322f1496e5c3d34a9bcdb4c60567b38c7de2",
        "gas": "0x16fea",
        "value": "0x0",
        "input": "0xe4849b3200000000000000000000000000000000000000000000003545673883d9d042a7",
        "nonce": "0xb51",
        "chainId": "0xaa36a7"
      },
      "additionalContracts": [],
      "isFixedGasLimit": false
    }
  ],
  "receipts": [
    {
      "status": "0x1",
      "cumulativeGasUsed": "0xd2dc84",
      "logs": [
        {
          "address": "0xbf4a322f1496e5c3d34a9bcdb4c60567b38c7de2",
          "topics": [
            "0xddf252ad1be2c89b69c2b068fc378daa952ba7f163c4a11628f55a4df523b3ef",
            "0x000000000000000000000000c77f7fed3b5cc8249adc428c5f44c9063b9734b4",
            "0x0000000000000000000000000000000000000000000000000000000000000000"
          ],
          "data": "0x00000000000000000000000000000000000000000000003545673883d9d042a7",
          "blockHash": "0x5f3853ac8ed04bc9e48dbbbbd81d6d2bde92b9c396dcd4dc701eab91af36e233",
          "blockNumber": "0x725b57",
          "transactionHash": "0x141094989c6dfbe0b33b1fd416a86cbe9201abca18faa409b988d9305d4671b8",
          "transactionIndex": "0x52",
          "logIndex": "0x81",
          "removed": false
        },
        {
          "address": "0xbf4a322f1496e5c3d34a9bcdb4c60567b38c7de2",
          "topics": [
            "0x4afcb4a87cdbd9974efdb92ee48bc8d7cd0ae4bf217004db3d080cbaee652ca7"
          ],
          "data": "0x0000000000000000000000000000000000000000000000000000000067873a7000000000000000000000000000000000000000000000000000039713599008f10000000000000000000000000000000000000000000000000dc7e3e84b37204a",
          "blockHash": "0x5f3853ac8ed04bc9e48dbbbbd81d6d2bde92b9c396dcd4dc701eab91af36e233",
          "blockNumber": "0x725b57",
          "transactionHash": "0x141094989c6dfbe0b33b1fd416a86cbe9201abca18faa409b988d9305d4671b8",
          "transactionIndex": "0x52",
          "logIndex": "0x82",
          "removed": false
        }
      ],
      "logsBloom": "0x00000000000000000000000000000000000000000000000000000000000000000000000000000000000000000000000000000000000000004000000000000000000000000000000000000008000000000000001000000000000000000000000000000000020000000000000000000800020000000000000000000010000000000000000000000000000000000000000000000000000008000000010000000000000000000000000000000000000000004000000000000000000000000000000000000002000000800000000000001000000000000000080000000000000020000000000000000000000000000000000000000000000000000000000000000000",
      "type": "0x2",
      "transactionHash": "0x141094989c6dfbe0b33b1fd416a86cbe9201abca18faa409b988d9305d4671b8",
      "transactionIndex": "0x52",
      "blockHash": "0x5f3853ac8ed04bc9e48dbbbbd81d6d2bde92b9c396dcd4dc701eab91af36e233",
      "blockNumber": "0x725b57",
      "gasUsed": "0xfb91",
      "effectiveGasPrice": "0x46e82cd5",
      "from": "0xc77f7fed3b5cc8249adc428c5f44c9063b9734b4",
      "to": "0xbf4a322f1496e5c3d34a9bcdb4c60567b38c7de2",
      "contractAddress": null
    }
  ],
  "libraries": [],
  "pending": [],
  "returns": {},
  "timestamp": 1736915569,
  "chain": 11155111,
  "commit": "51a374b"
}