{
  "transactions": [
    {
      "hash": "0x74699945b6702fc97be33456cffc553d8eab7ced0a0134389d1965660dc3e656",
      "transactionType": "CALL",
      "contractName": null,
      "contractAddress": "0x270e88f8683660553e8ba4eb2ad7c91a1710d769",
      "function": "buy(address)",
      "arguments": [
        "0xC77f7fed3b5Cc8249aDc428c5F44C9063B9734b4"
      ],
      "transaction": {
        "from": "0xc77f7fed3b5cc8249adc428c5f44c9063b9734b4",
        "to": "0x270e88f8683660553e8ba4eb2ad7c91a1710d769",
        "gas": "0x1b30c",
        "value": "0xde0b6b3a7640000",
        "input": "0xf088d547000000000000000000000000c77f7fed3b5cc8249adc428c5f44c9063b9734b4",
        "nonce": "0x6ad",
        "chainId": "0xaa36a7"
      },
      "additionalContracts": [],
      "isFixedGasLimit": false
    }
  ],
  "receipts": [
    {
      "status": "0x1",
      "cumulativeGasUsed": "0x675706",
      "logs": [
        {
          "address": "0x270e88f8683660553e8ba4eb2ad7c91a1710d769",
          "topics": [
            "0xddf252ad1be2c89b69c2b068fc378daa952ba7f163c4a11628f55a4df523b3ef",
            "0x0000000000000000000000000000000000000000000000000000000000000000",
            "0x000000000000000000000000c77f7fed3b5cc8249adc428c5f44c9063b9734b4"
          ],
          "data": "0x000000000000000000000000000000000000000000000028af044e46d9a6af9a",
          "blockHash": "0xed7e636c04c4f0757cab2b3a143f4a1d714330d967db5384a55a3e7881aa9bfd",
          "blockNumber": "0x7253b4",
          "transactionHash": "0x74699945b6702fc97be33456cffc553d8eab7ced0a0134389d1965660dc3e656",
          "transactionIndex": "0x3e",
          "logIndex": "0x6a",
          "removed": false
        },
        {
          "address": "0x270e88f8683660553e8ba4eb2ad7c91a1710d769",
          "topics": [
            "0xddf252ad1be2c89b69c2b068fc378daa952ba7f163c4a11628f55a4df523b3ef",
            "0x0000000000000000000000000000000000000000000000000000000000000000",
            "0x000000000000000000000000c77f7fed3b5cc8249adc428c5f44c9063b9734b4"
          ],
          "data": "0x0000000000000000000000000000000000000000000000001f979da60f2e7007",
          "blockHash": "0xed7e636c04c4f0757cab2b3a143f4a1d714330d967db5384a55a3e7881aa9bfd",
          "blockNumber": "0x7253b4",
          "transactionHash": "0x74699945b6702fc97be33456cffc553d8eab7ced0a0134389d1965660dc3e656",
          "transactionIndex": "0x3e",
          "logIndex": "0x6b",
          "removed": false
        },
        {
          "address": "0x270e88f8683660553e8ba4eb2ad7c91a1710d769",
          "topics": [
            "0x4afcb4a87cdbd9974efdb92ee48bc8d7cd0ae4bf217004db3d080cbaee652ca7"
          ],
          "data": "0x000000000000000000000000000000000000000000000000000000006786de780000000000000000000000000000000000000000000000000004afde43a895ca0000000000000000000000000000000000000000000000000de0b6b3a7640000",
          "blockHash": "0xed7e636c04c4f0757cab2b3a143f4a1d714330d967db5384a55a3e7881aa9bfd",
          "blockNumber": "0x7253b4",
          "transactionHash": "0x74699945b6702fc97be33456cffc553d8eab7ced0a0134389d1965660dc3e656",
          "transactionIndex": "0x3e",
          "logIndex": "0x6c",
          "removed": false
        }
      ],
      "logsBloom": "0x00000000000000000000000000000000000000000000000000000000000000000000000000000000000000000000000020000000000000004000000000000000000000000000000000000008000000000000000000000000000000000000000000000000020000000000000000000800020000000000000000000010000000000000000000010000000000000000000000000000000000000000010000000000000000000000000000000000000000004000000000000000000000000000000000000002000000800000000000000000000000000000080000008000000020000000000000000000000000000000000000000000000000000000000000000000",
      "type": "0x2",
      "transactionHash": "0x74699945b6702fc97be33456cffc553d8eab7ced0a0134389d1965660dc3e656",
      "transactionIndex": "0x3e",
      "blockHash": "0xed7e636c04c4f0757cab2b3a143f4a1d714330d967db5384a55a3e7881aa9bfd",
      "blockNumber": "0x7253b4",
      "gasUsed": "0x13af8",
      "effectiveGasPrice": "0x1afbd6a5f",
      "from": "0xc77f7fed3b5cc8249adc428c5f44c9063b9734b4",
      "to": "0x270e88f8683660553e8ba4eb2ad7c91a1710d769",
      "contractAddress": null
    }
  ],
  "libraries": [],
  "pending": [],
  "returns": {},
  "timestamp": 1736892025,
  "chain": 11155111,
  "commit": "51a374b"
}