{
  "transactions": [
    {
      "hash": "0x377de818484b82dd5036f9a0498d907f930e07ae617e1f83f8f7bb41a1dbe3d8",
      "transactionType": "CALL",
      "contractName": null,
      "contractAddress": "0x5eb9cc76c3506942c1c0ead70e877dd5e4f00cb0",
      "function": "sell(uint256)",
      "arguments": [
        "989077052729456256382"
      ],
      "transaction": {
        "from": "0xc77f7fed3b5cc8249adc428c5f44c9063b9734b4",
        "to": "0x5eb9cc76c3506942c1c0ead70e877dd5e4f00cb0",
        "gas": "0x16fec",
        "value": "0x0",
        "input": "0xe4849b320000000000000000000000000000000000000000000000359e33931a458ae57e",
        "nonce": "0x491",
        "chainId": "0xaa36a7"
      },
      "additionalContracts": [],
      "isFixedGasLimit": false
    }
  ],
  "receipts": [
    {
      "status": "0x1",
      "cumulativeGasUsed": "0x131236a",
      "logs": [
        {
          "address": "0x5eb9cc76c3506942c1c0ead70e877dd5e4f00cb0",
          "topics": [
            "0xddf252ad1be2c89b69c2b068fc378daa952ba7f163c4a11628f55a4df523b3ef",
            "0x000000000000000000000000c77f7fed3b5cc8249adc428c5f44c9063b9734b4",
            "0x0000000000000000000000000000000000000000000000000000000000000000"
          ],
          "data": "0x0000000000000000000000000000000000000000000000359e33931a458ae57e",
          "blockHash": "0x9b3c83e4ebc61e19fdffcdabb0898adf1eb57393e4d1e4e82636cdc8db5c58c9",
          "blockNumber": "0x7250c5",
          "transactionHash": "0x377de818484b82dd5036f9a0498d907f930e07ae617e1f83f8f7bb41a1dbe3d8",
          "transactionIndex": "0x53",
          "logIndex": "0x8c",
          "removed": false
        },
        {
          "address": "0x5eb9cc76c3506942c1c0ead70e877dd5e4f00cb0",
          "topics": [
            "0x4afcb4a87cdbd9974efdb92ee48bc8d7cd0ae4bf217004db3d080cbaee652ca7"
          ],
          "data": "0x000000000000000000000000000000000000000000000000000000006786bb080000000000000000000000000000000000000000000000000003911ae52dcb3a0000000000000000000000000000000000000000000000000dc7db1331be9dda",
          "blockHash": "0x9b3c83e4ebc61e19fdffcdabb0898adf1eb57393e4d1e4e82636cdc8db5c58c9",
          "blockNumber": "0x7250c5",
          "transactionHash": "0x377de818484b82dd5036f9a0498d907f930e07ae617e1f83f8f7bb41a1dbe3d8",
          "transactionIndex": "0x53",
          "logIndex": "0x8d",
          "removed": false
        }
      ],
      "logsBloom": "0x00000000000000000000000000000000000000000000000000000000000000000000000000000000000000000000000000000000000000004000000000000000000000000000000000000008000000000000000000000000000000000000000000000000020000000000000004000800020000000000000000000010000000000000000000000000000000000000000000000000000000000000010000000000000000000000000000000000000000004000000000000000000000000000020000000002000000800000008000000000000000000000080000000000000020000000000000000000000000000000000000000000000000000000000000000000",
      "type": "0x2",
      "transactionHash": "0x377de818484b82dd5036f9a0498d907f930e07ae617e1f83f8f7bb41a1dbe3d8",
      "transactionIndex": "0x53",
      "blockHash": "0x9b3c83e4ebc61e19fdffcdabb0898adf1eb57393e4d1e4e82636cdc8db5c58c9",
      "blockNumber": "0x7250c5",
      "gasUsed": "0xfb93",
      "effectiveGasPrice": "0x24145b34f",
      "from": "0xc77f7fed3b5cc8249adc428c5f44c9063b9734b4",
      "to": "0x5eb9cc76c3506942c1c0ead70e877dd5e4f00cb0",
      "contractAddress": null
    }
  ],
  "libraries": [],
  "pending": [],
  "returns": {},
  "timestamp": 1736882952,
  "chain": 11155111,
  "commit": "51a374b"
}