{
  "transactions": [
    {
      "hash": "0xc9d1d8ff8389b084661323cacc167fddc31fd8cffbe9ad8b5cc523ac13928f92",
      "transactionType": "CALL",
      "contractName": null,
      "contractAddress": "0x8aafd3ede9adb0ff97c7aebce82a919afb1c8764",
      "function": "sell(uint256)",
      "arguments": [
        "721640985808158401654"
      ],
      "transaction": {
        "from": "0xc77f7fed3b5cc8249adc428c5f44c9063b9734b4",
        "to": "0x8aafd3ede9adb0ff97c7aebce82a919afb1c8764",
        "gas": "0x17270",
        "value": "0x0",
        "input": "0xe4849b320000000000000000000000000000000000000000000000271ec7cd2cb9fd2476",
        "nonce": "0xff1",
        "chainId": "0xaa36a7"
      },
      "additionalContracts": [],
      "isFixedGasLimit": false
    }
  ],
  "receipts": [
    {
      "status": "0x1",
      "cumulativeGasUsed": "0x8b6c7e",
      "logs": [
        {
          "address": "0x8aafd3ede9adb0ff97c7aebce82a919afb1c8764",
          "topics": [
            "0xddf252ad1be2c89b69c2b068fc378daa952ba7f163c4a11628f55a4df523b3ef",
            "0x000000000000000000000000c77f7fed3b5cc8249adc428c5f44c9063b9734b4",
            "0x0000000000000000000000000000000000000000000000000000000000000000"
          ],
          "data": "0x000000000000000000000000000000000000000000000026cea987f306532e69",
          "blockHash": "0xcd54daa8e364bfc537376b1288f4e28d0fe726873da3480732a0b0ec4555d1f5",
          "blockNumber": "0x731664",
          "transactionHash": "0xc9d1d8ff8389b084661323cacc167fddc31fd8cffbe9ad8b5cc523ac13928f92",
          "transactionIndex": "0x68",
          "logIndex": "0x6b",
          "removed": false
        },
        {
          "address": "0x8aafd3ede9adb0ff97c7aebce82a919afb1c8764",
          "topics": [
            "0xddf252ad1be2c89b69c2b068fc378daa952ba7f163c4a11628f55a4df523b3ef",
            "0x000000000000000000000000c77f7fed3b5cc8249adc428c5f44c9063b9734b4",
            "0x000000000000000000000000c77f7fed3b5cc8249adc428c5f44c9063b9734b4"
          ],
          "data": "0x000000000000000000000000000000000000000000000000501e4539b3a9f60d",
          "blockHash": "0xcd54daa8e364bfc537376b1288f4e28d0fe726873da3480732a0b0ec4555d1f5",
          "blockNumber": "0x731664",
          "transactionHash": "0xc9d1d8ff8389b084661323cacc167fddc31fd8cffbe9ad8b5cc523ac13928f92",
          "transactionIndex": "0x68",
          "logIndex": "0x6c",
          "removed": false
        },
        {
          "address": "0x8aafd3ede9adb0ff97c7aebce82a919afb1c8764",
          "topics": [
            "0x4afcb4a87cdbd9974efdb92ee48bc8d7cd0ae4bf217004db3d080cbaee652ca7"
          ],
          "data": "0x000000000000000000000000000000000000000000000000000000006790095c0000000000000000000000000000000000000000000000000004e4f0983598380000000000000000000000000000000000000000000000000dc9021a7f427781",
          "blockHash": "0xcd54daa8e364bfc537376b1288f4e28d0fe726873da3480732a0b0ec4555d1f5",
          "blockNumber": "0x731664",
          "transactionHash": "0xc9d1d8ff8389b084661323cacc167fddc31fd8cffbe9ad8b5cc523ac13928f92",
          "transactionIndex": "0x68",
          "logIndex": "0x6d",
          "removed": false
        }
      ],
      "logsBloom": "0x00000000000000000000000000000000000000000600000000000000000000000000000000000000000000000000000000000000000000004000000000000000000000000000004000000008000000000000000000000000000000000000000000000000020000000000000000000800020000000000000000000010000000000000000000000000000000000000000000000000000000000000010000000000000000000000000000000000000000004000000000000000000000000000000000000002000000800000000000000000000000000000080000000000000020000000000000000000000000000000000000000000000000000000000000000000",
      "type": "0x2",
      "transactionHash": "0xc9d1d8ff8389b084661323cacc167fddc31fd8cffbe9ad8b5cc523ac13928f92",
      "transactionIndex": "0x68",
      "blockHash": "0xcd54daa8e364bfc537376b1288f4e28d0fe726873da3480732a0b0ec4555d1f5",
      "blockNumber": "0x731664",
      "gasUsed": "0xfd4b",
      "effectiveGasPrice": "0x532e6a77",
      "from": "0xc77f7fed3b5cc8249adc428c5f44c9063b9734b4",
      "to": "0x8aafd3ede9adb0ff97c7aebce82a919afb1c8764",
      "contractAddress": null
    }
  ],
  "libraries": [],
  "pending": [],
  "returns": {},
  "timestamp": 1737492829,
  "chain": 11155111,
  "commit": "1d2fb70"
}