{
  "transactions": [
    {
      "hash": "0x0dbfd929bb3437540a866ba5231a2013ee1f7c7909061ee1e895a1da077c92f4",
      "transactionType": "CALL",
      "contractName": null,
      "contractAddress": "0x270e88f8683660553e8ba4eb2ad7c91a1710d769",
      "function": "sell(uint256)",
      "arguments": [
        "737982530568292174271"
      ],
      "transaction": {
        "from": "0xc77f7fed3b5cc8249adc428c5f44c9063b9734b4",
        "to": "0x270e88f8683660553e8ba4eb2ad7c91a1710d769",
        "gas": "0x16fec",
        "value": "0x0",
        "input": "0xe4849b320000000000000000000000000000000000000000000000280190a18d86e889bf",
        "nonce": "0x752",
        "chainId": "0xaa36a7"
      },
      "additionalContracts": [],
      "isFixedGasLimit": false
    }
  ],
  "receipts": [
    {
      "status": "0x1",
      "cumulativeGasUsed": "0xf75fe0",
      "logs": [
        {
          "address": "0x270e88f8683660553e8ba4eb2ad7c91a1710d769",
          "topics": [
            "0xddf252ad1be2c89b69c2b068fc378daa952ba7f163c4a11628f55a4df523b3ef",
            "0x000000000000000000000000c77f7fed3b5cc8249adc428c5f44c9063b9734b4",
            "0x0000000000000000000000000000000000000000000000000000000000000000"
          ],
          "data": "0x0000000000000000000000000000000000000000000000280190a18d86e889bf",
          "blockHash": "0xfa134741d28b2fe79fda9203bd9fd0515f807b87cfaf18ccc86ec868691aec83",
          "blockNumber": "0x725478",
          "transactionHash": "0x0dbfd929bb3437540a866ba5231a2013ee1f7c7909061ee1e895a1da077c92f4",
          "transactionIndex": "0x51",
          "logIndex": "0x7b",
          "removed": false
        },
        {
          "address": "0x270e88f8683660553e8ba4eb2ad7c91a1710d769",
          "topics": [
            "0x4afcb4a87cdbd9974efdb92ee48bc8d7cd0ae4bf217004db3d080cbaee652ca7"
          ],
          "data": "0x000000000000000000000000000000000000000000000000000000006786e7a80000000000000000000000000000000000000000000000000004c8139ce00e310000000000000000000000000000000000000000000000000dc8284a85523d4f",
          "blockHash": "0xfa134741d28b2fe79fda9203bd9fd0515f807b87cfaf18ccc86ec868691aec83",
          "blockNumber": "0x725478",
          "transactionHash": "0x0dbfd929bb3437540a866ba5231a2013ee1f7c7909061ee1e895a1da077c92f4",
          "transactionIndex": "0x51",
          "logIndex": "0x7c",
          "removed": false
        }
      ],
      "logsBloom": "0x00000000000000000000000000000000000000000000000000000000000000000000000000000000000000000000000020000000000000004000000000000000000000000000000000000008000000000000000000000000000000000000000000000000020000000000000000000800020000000000000000000010000000000000000000010000000000000000000000000000000000000000010000000000000000000000000000000000000000004000000000000000000000000000000000000002000000800000000000000000000000000000080000008000000020000000000000000000000000000000000000000000000000000000000000000000",
      "type": "0x2",
      "transactionHash": "0x0dbfd929bb3437540a866ba5231a2013ee1f7c7909061ee1e895a1da077c92f4",
      "transactionIndex": "0x51",
      "blockHash": "0xfa134741d28b2fe79fda9203bd9fd0515f807b87cfaf18ccc86ec868691aec83",
      "blockNumber": "0x725478",
      "gasUsed": "0xfb93",
      "effectiveGasPrice": "0x13bc06128",
      "from": "0xc77f7fed3b5cc8249adc428c5f44c9063b9734b4",
      "to": "0x270e88f8683660553e8ba4eb2ad7c91a1710d769",
      "contractAddress": null
    }
  ],
  "libraries": [],
  "pending": [],
  "returns": {},
  "timestamp": 1736894377,
  "chain": 11155111,
  "commit": "51a374b"
}