{
  "transactions": [
    {
      "hash": "0x5facde05330c0d460d76742cf21577b94144786861353cc4b783da9d4007bd25",
      "transactionType": "CALL",
      "contractName": null,
      "contractAddress": "0x8aafd3ede9adb0ff97c7aebce82a919afb1c8764",
      "function": "buy(address)",
      "arguments": [
        "0xC77f7fed3b5Cc8249aDc428c5F44C9063B9734b4"
      ],
      "transaction": {
        "from": "0xc77f7fed3b5cc8249adc428c5f44c9063b9734b4",
        "to": "0x8aafd3ede9adb0ff97c7aebce82a919afb1c8764",
        "gas": "0x156ea",
        "value": "0xde0b6b3a7640000",
        "input": "0xf088d547000000000000000000000000c77f7fed3b5cc8249adc428c5f44c9063b9734b4",
        "nonce": "0xec3",
        "chainId": "0xaa36a7"
      },
      "additionalContracts": [],
      "isFixedGasLimit": false
    }
  ],
  "receipts": [
    {
      "status": "0x1",
      "cumulativeGasUsed": "0xe8857a",
      "logs": [
        {
          "address": "0x8aafd3ede9adb0ff97c7aebce82a919afb1c8764",
          "topics": [
            "0xddf252ad1be2c89b69c2b068fc378daa952ba7f163c4a11628f55a4df523b3ef",
            "0x0000000000000000000000000000000000000000000000000000000000000000",
            "0x000000000000000000000000c77f7fed3b5cc8249adc428c5f44c9063b9734b4"
          ],
          "data": "0x00000000000000000000000000000000000000000000002862be0e3cac457c67",
          "blockHash": "0xba08b96afc30bb60562ae4c54c1d0892defe0a214678a26e490e4fc223d68d6a",
          "blockNumber": "0x73142b",
          "transactionHash": "0x5facde05330c0d460d76742cf21577b94144786861353cc4b783da9d4007bd25",
          "transactionIndex": "0x9a",
          "logIndex": "0xf6",
          "removed": false
        },
        {
          "address": "0x8aafd3ede9adb0ff97c7aebce82a919afb1c8764",
          "topics": [
            "0xddf252ad1be2c89b69c2b068fc378daa952ba7f163c4a11628f55a4df523b3ef",
            "0x0000000000000000000000000000000000000000000000000000000000000000",
            "0x000000000000000000000000c77f7fed3b5cc8249adc428c5f44c9063b9734b4"
          ],
          "data": "0x0000000000000000000000000000000000000000000000001f5c62d971585ee5",
          "blockHash": "0xba08b96afc30bb60562ae4c54c1d0892defe0a214678a26e490e4fc223d68d6a",
          "blockNumber": "0x73142b",
          "transactionHash": "0x5facde05330c0d460d76742cf21577b94144786861353cc4b783da9d4007bd25",
          "transactionIndex": "0x9a",
          "logIndex": "0xf7",
          "removed": false
        },
        {
          "address": "0x8aafd3ede9adb0ff97c7aebce82a919afb1c8764",
          "topics": [
            "0x4afcb4a87cdbd9974efdb92ee48bc8d7cd0ae4bf217004db3d080cbaee652ca7"
          ],
          "data": "0x00000000000000000000000000000000000000000000000000000000678feeb00000000000000000000000000000000000000000000000000004b8bc13dba3d00000000000000000000000000000000000000000000000000de0b6b3a7640000",
          "blockHash": "0xba08b96afc30bb60562ae4c54c1d0892defe0a214678a26e490e4fc223d68d6a",
          "blockNumber": "0x73142b",
          "transactionHash": "0x5facde05330c0d460d76742cf21577b94144786861353cc4b783da9d4007bd25",
          "transactionIndex": "0x9a",
          "logIndex": "0xf8",
          "removed": false
        }
      ],
      "logsBloom": "0x00000000000000000000000000000000000000000600000000000000000000000000000000000000000000000000000000000000000000004000000000000000000000000000004000000008000000000000000000000000000000000000000000000000020000000000000000000800020000000000000000000010000000000000000000000000000000000000000000000000000000000000010000000000000000000000000000000000000000004000000000000000000000000000000000000002000000800000000000000000000000000000080000000000000020000000000000000000000000000000000000000000000000000000000000000000",
      "type": "0x2",
      "transactionHash": "0x5facde05330c0d460d76742cf21577b94144786861353cc4b783da9d4007bd25",
      "transactionIndex": "0x9a",
      "blockHash": "0xba08b96afc30bb60562ae4c54c1d0892defe0a214678a26e490e4fc223d68d6a",
      "blockNumber": "0x73142b",
      "gasUsed": "0xf844",
      "effectiveGasPrice": "0xbabe46aa",
      "from": "0xc77f7fed3b5cc8249adc428c5f44c9063b9734b4",
      "to": "0x8aafd3ede9adb0ff97c7aebce82a919afb1c8764",
      "contractAddress": null
    }
  ],
  "libraries": [],
  "pending": [],
  "returns": {},
  "timestamp": 1737486001,
  "chain": 11155111,
  "commit": "51a374b"
}