{
  "transactions": [
    {
      "hash": "0xc3c412f98d55640614ab2008908e57913cf0123bf3655941fff70ee2195037f8",
      "transactionType": "CALL",
      "contractName": null,
      "contractAddress": "0x8aafd3ede9adb0ff97c7aebce82a919afb1c8764",
      "function": "sell(uint256)",
      "arguments": [
        "193983743"
      ],
      "transaction": {
        "from": "0xc77f7fed3b5cc8249adc428c5f44c9063b9734b4",
        "to": "0x8aafd3ede9adb0ff97c7aebce82a919afb1c8764",
        "gas": "0x15d88",
        "value": "0x0",
        "input": "0xe4849b32000000000000000000000000000000000000000000000000000000000b8ff4ff",
        "nonce": "0xfd1",
        "chainId": "0xaa36a7"
      },
      "additionalContracts": [],
      "isFixedGasLimit": false
    }
  ],
  "receipts": [
    {
      "status": "0x1",
      "cumulativeGasUsed": "0xc1d50e",
      "logs": [
        {
          "address": "0x8aafd3ede9adb0ff97c7aebce82a919afb1c8764",
          "topics": [
            "0xddf252ad1be2c89b69c2b068fc378daa952ba7f163c4a11628f55a4df523b3ef",
            "0x000000000000000000000000c77f7fed3b5cc8249adc428c5f44c9063b9734b4",
            "0x0000000000000000000000000000000000000000000000000000000000000000"
          ],
          "data": "0x000000000000000000000000000000000000000000000000000000000b784702",
          "blockHash": "0xda796ab50801ce0d014671df8df94b683d771cd144ee930a3f0f647fac262cd5",
          "blockNumber": "0x73163e",
          "transactionHash": "0xc3c412f98d55640614ab2008908e57913cf0123bf3655941fff70ee2195037f8",
          "transactionIndex": "0x91",
          "logIndex": "0x9a",
          "removed": false
        },
        {
          "address": "0x8aafd3ede9adb0ff97c7aebce82a919afb1c8764",
          "topics": [
            "0xddf252ad1be2c89b69c2b068fc378daa952ba7f163c4a11628f55a4df523b3ef",
            "0x000000000000000000000000c77f7fed3b5cc8249adc428c5f44c9063b9734b4",
            "0x000000000000000000000000c77f7fed3b5cc8249adc428c5f44c9063b9734b4"
          ],
          "data": "0x000000000000000000000000000000000000000000000000000000000017adfd",
          "blockHash": "0xda796ab50801ce0d014671df8df94b683d771cd144ee930a3f0f647fac262cd5",
          "blockNumber": "0x73163e",
          "transactionHash": "0xc3c412f98d55640614ab2008908e57913cf0123bf3655941fff70ee2195037f8",
          "transactionIndex": "0x91",
          "logIndex": "0x9b",
          "removed": false
        },
        {
          "address": "0x8aafd3ede9adb0ff97c7aebce82a919afb1c8764",
          "topics": [
            "0x4afcb4a87cdbd9974efdb92ee48bc8d7cd0ae4bf217004db3d080cbaee652ca7"
          ],
          "data": "0x00000000000000000000000000000000000000000000000000000000679007940000000000000000000000000000000000000000000000000004c4cafb504c03000000000000000000000000000000000000000000000000000000000003f91b",
          "blockHash": "0xda796ab50801ce0d014671df8df94b683d771cd144ee930a3f0f647fac262cd5",
          "blockNumber": "0x73163e",
          "transactionHash": "0xc3c412f98d55640614ab2008908e57913cf0123bf3655941fff70ee2195037f8",
          "transactionIndex": "0x91",
          "logIndex": "0x9c",
          "removed": false
        }
      ],
      "logsBloom": "0x00000000000000000000000000000000000000000600000000000000000000000000000000000000000000000000000000000000000000004000000000000000000000000000004000000008000000000000000000000000000000000000000000000000020000000000000000000800020000000000000000000010000000000000000000000000000000000000000000000000000000000000010000000000000000000000000000000000000000004000000000000000000000000000000000000002000000800000000000000000000000000000080000000000000020000000000000000000000000000000000000000000000000000000000000000000",
      "type": "0x2",
      "transactionHash": "0xc3c412f98d55640614ab2008908e57913cf0123bf3655941fff70ee2195037f8",
      "transactionIndex": "0x91",
      "blockHash": "0xda796ab50801ce0d014671df8df94b683d771cd144ee930a3f0f647fac262cd5",
      "blockNumber": "0x73163e",
      "gasUsed": "0xfd0f",
      "effectiveGasPrice": "0x5a00c488",
      "from": "0xc77f7fed3b5cc8249adc428c5f44c9063b9734b4",
      "to": "0x8aafd3ede9adb0ff97c7aebce82a919afb1c8764",
      "contractAddress": null
    }
  ],
  "libraries": [],
  "pending": [],
  "returns": {},
  "timestamp": 1737492374,
  "chain": 11155111,
  "commit": "1d2fb70"
}