{
  "transactions": [
    {
      "hash": "0xd3e2d6327105a45c3d9d5584da52684389d81ad13ddf2fd70cf19b1358409424",
      "transactionType": "CALL",
      "contractName": null,
      "contractAddress": "0x5eb9cc76c3506942c1c0ead70e877dd5e4f00cb0",
      "function": "buy(address)",
      "arguments": [
        "0xC77f7fed3b5Cc8249aDc428c5F44C9063B9734b4"
      ],
      "transaction": {
        "from": "0xc77f7fed3b5cc8249adc428c5f44c9063b9734b4",
        "to": "0x5eb9cc76c3506942c1c0ead70e877dd5e4f00cb0",
        "gas": "0x156c8",
        "value": "0xde0b6b3a7640000",
        "input": "0xf088d547000000000000000000000000c77f7fed3b5cc8249adc428c5f44c9063b9734b4",
        "nonce": "0x1c5",
        "chainId": "0xaa36a7"
      },
      "additionalContracts": [],
      "isFixedGasLimit": false
    }
  ],
  "receipts": [
    {
      "status": "0x1",
      "cumulativeGasUsed": "0x7e8dac",
      "logs": [
        {
          "address": "0x5eb9cc76c3506942c1c0ead70e877dd5e4f00cb0",
          "topics": [
            "0xddf252ad1be2c89b69c2b068fc378daa952ba7f163c4a11628f55a4df523b3ef",
            "0x0000000000000000000000000000000000000000000000000000000000000000",
            "0x000000000000000000000000c77f7fed3b5cc8249adc428c5f44c9063b9734b4"
          ],
          "data": "0x000000000000000000000000000000000000000000000035a369ff2febb39974",
          "blockHash": "0x992d3952e22ee0126d13bbac700dc8d497239be85d6dfb76359e2e996030a357",
          "blockNumber": "0x723cb3",
          "transactionHash": "0xd3e2d6327105a45c3d9d5584da52684389d81ad13ddf2fd70cf19b1358409424",
          "transactionIndex": "0x3a",
          "logIndex": "0x4e",
          "removed": false
        },
        {
          "address": "0x5eb9cc76c3506942c1c0ead70e877dd5e4f00cb0",
          "topics": [
            "0xddf252ad1be2c89b69c2b068fc378daa952ba7f163c4a11628f55a4df523b3ef",
            "0x0000000000000000000000000000000000000000000000000000000000000000",
            "0x000000000000000000000000c77f7fed3b5cc8249adc428c5f44c9063b9734b4"
          ],
          "data": "0x00000000000000000000000000000000000000000000000029a6e950a21428f8",
          "blockHash": "0x992d3952e22ee0126d13bbac700dc8d497239be85d6dfb76359e2e996030a357",
          "blockNumber": "0x723cb3",
          "transactionHash": "0xd3e2d6327105a45c3d9d5584da52684389d81ad13ddf2fd70cf19b1358409424",
          "transactionIndex": "0x3a",
          "logIndex": "0x4f",
          "removed": false
        },
        {
          "address": "0x5eb9cc76c3506942c1c0ead70e877dd5e4f00cb0",
          "topics": [
            "0x4afcb4a87cdbd9974efdb92ee48bc8d7cd0ae4bf217004db3d080cbaee652ca7"
          ],
          "data": "0x000000000000000000000000000000000000000000000000000000006785c9b800000000000000000000000000000000000000000000000000038dff7789ca170000000000000000000000000000000000000000000000000de0b6b3a7640000",
          "blockHash": "0x992d3952e22ee0126d13bbac700dc8d497239be85d6dfb76359e2e996030a357",
          "blockNumber": "0x723cb3",
          "transactionHash": "0xd3e2d6327105a45c3d9d5584da52684389d81ad13ddf2fd70cf19b1358409424",
          "transactionIndex": "0x3a",
          "logIndex": "0x50",
          "removed": false
        }
      ],
      "logsBloom": "0x00000000000000000000000000000000000000000000000000000000000000000000000000000000000000000000000000000000000000004000000000000000000000000000000000000008000000000000000000000000000000000000000000000000020000000000000004000800020000000000000000000010000000000000000000000000000000000000000000000000000000000000010000000000000000000000000000000000000000004000000000000000000000000000020000000002000000800000008000000000000000000000080000000000000020000000000000000000000000000000000000000000000000000000000000000000",
      "type": "0x2",
      "transactionHash": "0xd3e2d6327105a45c3d9d5584da52684389d81ad13ddf2fd70cf19b1358409424",
      "transactionIndex": "0x3a",
      "blockHash": "0x992d3952e22ee0126d13bbac700dc8d497239be85d6dfb76359e2e996030a357",
      "blockNumber": "0x723cb3",
      "gasUsed": "0xf82c",
      "effectiveGasPrice": "0x1c2625f09",
      "from": "0xc77f7fed3b5cc8249adc428c5f44c9063b9734b4",
      "to": "0x5eb9cc76c3506942c1c0ead70e877dd5e4f00cb0",
      "contractAddress": null
    }
  ],
  "libraries": [],
  "pending": [],
  "returns": {},
  "timestamp": 1736821177,
  "chain": 11155111,
  "commit": "51a374b"
}