{
  "transactions": [
    {
      "hash": "0x7f5f85ac2d145d04a37ed56449ac8575e4ed61551022713f55eeee54ca0bda91",
      "transactionType": "CALL",
      "contractName": null,
      "contractAddress": "0xd7bc75898e513accccf720a874d44dab5a4b6223",
      "function": "buy(address)",
      "arguments": [
        "0xC77f7fed3b5Cc8249aDc428c5F44C9063B9734b4"
      ],
      "transaction": {
        "from": "0xc77f7fed3b5cc8249adc428c5f44c9063b9734b4",
        "to": "0xd7bc75898e513accccf720a874d44dab5a4b6223",
        "gas": "0x1b30c",
        "value": "0x2386f26fc10000",
        "input": "0xf088d547000000000000000000000000c77f7fed3b5cc8249adc428c5f44c9063b9734b4",
        "nonce": "0xa0",
        "chainId": "0xaa36a7"
      },
      "additionalContracts": [],
      "isFixedGasLimit": false
    }
  ],
  "receipts": [
    {
      "status": "0x1",
      "cumulativeGasUsed": "0xd3bbe0",
      "logs": [
        {
          "address": "0xd7bc75898e513accccf720a874d44dab5a4b6223",
          "topics": [
            "0xddf252ad1be2c89b69c2b068fc378daa952ba7f163c4a11628f55a4df523b3ef",
            "0x0000000000000000000000000000000000000000000000000000000000000000",
            "0x000000000000000000000000c77f7fed3b5cc8249adc428c5f44c9063b9734b4"
          ],
          "data": "0x0000000000000000000000000000000000000000000000008963bbda9afb0ee6",
          "blockHash": "0xbd1c445d5c054e19cc0b76fd2bae0540f42659d1fb5032f3f6321a364515d889",
          "blockNumber": "0x723913",
          "transactionHash": "0x7f5f85ac2d145d04a37ed56449ac8575e4ed61551022713f55eeee54ca0bda91",
          "transactionIndex": "0x73",
          "logIndex": "0xad",
          "removed": false
        },
        {
          "address": "0xd7bc75898e513accccf720a874d44dab5a4b6223",
          "topics": [
            "0xddf252ad1be2c89b69c2b068fc378daa952ba7f163c4a11628f55a4df523b3ef",
            "0x0000000000000000000000000000000000000000000000000000000000000000",
            "0x000000000000000000000000c77f7fed3b5cc8249adc428c5f44c9063b9734b4"
          ],
          "data": "0x000000000000000000000000000000000000000000000000006ab00d0e7c8e7e",
          "blockHash": "0xbd1c445d5c054e19cc0b76fd2bae0540f42659d1fb5032f3f6321a364515d889",
          "blockNumber": "0x723913",
          "transactionHash": "0x7f5f85ac2d145d04a37ed56449ac8575e4ed61551022713f55eeee54ca0bda91",
          "transactionIndex": "0x73",
          "logIndex": "0xae",
          "removed": false
        },
        {
          "address": "0xd7bc75898e513accccf720a874d44dab5a4b6223",
          "topics": [
            "0x4afcb4a87cdbd9974efdb92ee48bc8d7cd0ae4bf217004db3d080cbaee652ca7"
          ],
          "data": "0x0000000000000000000000000000000000000000000000000000000067859e2c00000000000000000000000000000000000000000000000000038d7f83e404d3000000000000000000000000000000000000000000000000002386f26fc10000",
          "blockHash": "0xbd1c445d5c054e19cc0b76fd2bae0540f42659d1fb5032f3f6321a364515d889",
          "blockNumber": "0x723913",
          "transactionHash": "0x7f5f85ac2d145d04a37ed56449ac8575e4ed61551022713f55eeee54ca0bda91",
          "transactionIndex": "0x73",
          "logIndex": "0xaf",
          "removed": false
        }
      ],
      "logsBloom": "0x00000000000000000000000000000000000000000000000000000000000000000000000000000000000000000000000000000000000000004000000000000000000000000000000000000008000000000000000000000000000000000000000000000000020000000000000000000800020000000000000000000010000000000000000000000000000000000000000000000000000000000000010000000000000000000000000000000000000000004000001000000000000000000000000000000002000000800000000000004000000000000000080000000000000020000000000000000000000000000000000000000000080000000000000000000000",
      "type": "0x2",
      "transactionHash": "0x7f5f85ac2d145d04a37ed56449ac8575e4ed61551022713f55eeee54ca0bda91",
      "transactionIndex": "0x73",
      "blockHash": "0xbd1c445d5c054e19cc0b76fd2bae0540f42659d1fb5032f3f6321a364515d889",
      "blockNumber": "0x723913",
      "gasUsed": "0x13af8",
      "effectiveGasPrice": "0x87ec56",
      "from": "0xc77f7fed3b5cc8249adc428c5f44c9063b9734b4",
      "to": "0xd7bc75898e513accccf720a874d44dab5a4b6223",
      "contractAddress": null
    }
  ],
  "libraries": [],
  "pending": [],
  "returns": {},
  "timestamp": 1736810029,
  "chain": 11155111,
  "commit": "51a374b"
}