{
  "transactions": [
    {
      "hash": "0x12239fcd53fdfa449a12dad188f702d2ca3a6395f11c15d9e02dd09c7970c451",
      "transactionType": "CALL",
      "contractName": null,
      "contractAddress": "0x2aef30832a750ad996bd851b780443b458cc957f",
      "function": "borrow(uint256,uint256)",
      "arguments": [
        "116819419486930107",
        "0"
      ],
      "transaction": {
        "from": "0xc77f7fed3b5cc8249adc428c5f44c9063b9734b4",
        "to": "0x2aef30832a750ad996bd851b780443b458cc957f",
        "gas": "0x243b8",
        "value": "0x0",
        "input": "0x0ecbcdab000000000000000000000000000000000000000000000000019f06a4a162c4bb0000000000000000000000000000000000000000000000000000000000000000",
        "nonce": "0x18ce",
        "chainId": "0xaa36a7"
      },
      "additionalContracts": [],
      "isFixedGasLimit": false
    }
  ],
  "receipts": [
    {
      "status": "0x1",
      "cumulativeGasUsed": "0x15ca30e",
      "logs": [
        {
          "address": "0x2aef30832a750ad996bd851b780443b458cc957f",
          "topics": [
            "0xddf252ad1be2c89b69c2b068fc378daa952ba7f163c4a11628f55a4df523b3ef",
            "0x000000000000000000000000c77f7fed3b5cc8249adc428c5f44c9063b9734b4",
            "0x0000000000000000000000002aef30832a750ad996bd851b780443b458cc957f"
          ],
          "data": "0x000000000000000000000000000000000000000000000000002322fe594b07ae",
          "blockHash": "0xeb5ddf69612c9fe7b9678934e9bb4cb94a9839f698c13d93ec04f0c74c5080b0",
          "blockNumber": "0x73846c",
          "transactionHash": "0x12239fcd53fdfa449a12dad188f702d2ca3a6395f11c15d9e02dd09c7970c451",
          "transactionIndex": "0x86",
          "logIndex": "0x164",
          "removed": false
        },
        {
          "address": "0x2aef30832a750ad996bd851b780443b458cc957f",
          "topics": [
            "0xddf252ad1be2c89b69c2b068fc378daa952ba7f163c4a11628f55a4df523b3ef",
            "0x0000000000000000000000002aef30832a750ad996bd851b780443b458cc957f",
            "0x000000000000000000000000c77f7fed3b5cc8249adc428c5f44c9063b9734b4"
          ],
          "data": "0x000000000000000000000000000000000000000000000000000a8a7f81301bfd",
          "blockHash": "0xeb5ddf69612c9fe7b9678934e9bb4cb94a9839f698c13d93ec04f0c74c5080b0",
          "blockNumber": "0x73846c",
          "transactionHash": "0x12239fcd53fdfa449a12dad188f702d2ca3a6395f11c15d9e02dd09c7970c451",
          "transactionIndex": "0x86",
          "logIndex": "0x165",
          "removed": false
        },
        {
          "address": "0x2aef30832a750ad996bd851b780443b458cc957f",
          "topics": [
            "0xddf252ad1be2c89b69c2b068fc378daa952ba7f163c4a11628f55a4df523b3ef",
            "0x0000000000000000000000002aef30832a750ad996bd851b780443b458cc957f",
            "0x0000000000000000000000000000000000000000000000000000000000000000"
          ],
          "data": "0x0000000000000000000000000000000000000000000000000018987ed81aebfc",
          "blockHash": "0xeb5ddf69612c9fe7b9678934e9bb4cb94a9839f698c13d93ec04f0c74c5080b0",
          "blockNumber": "0x73846c",
          "transactionHash": "0x12239fcd53fdfa449a12dad188f702d2ca3a6395f11c15d9e02dd09c7970c451",
          "transactionIndex": "0x86",
          "logIndex": "0x166",
          "removed": false
        },
        {
          "address": "0x2aef30832a750ad996bd851b780443b458cc957f",
          "topics": [
            "0x03bbe564cb1b78e43195eeadbde99e5b89b19345862807fcfb59f884e4165e25"
          ],
          "data": "0x000000000000000000000000c77f7fed3b5cc8249adc428c5f44c9063b9734b4000000000000000000000000000000000000000000000000019a6e16623b75a9",
          "blockHash": "0xeb5ddf69612c9fe7b9678934e9bb4cb94a9839f698c13d93ec04f0c74c5080b0",
          "blockNumber": "0x73846c",
          "transactionHash": "0x12239fcd53fdfa449a12dad188f702d2ca3a6395f11c15d9e02dd09c7970c451",
          "transactionIndex": "0x86",
          "logIndex": "0x167",
          "removed": false
        },
        {
          "address": "0x2aef30832a750ad996bd851b780443b458cc957f",
          "topics": [
            "0xaec00f5213a37254bc68a26b0685d1a5b2bf513e1e587c94c7df7f4a62b56c9c"
          ],
          "data": "0x0000000000000000000000000000000000000000000000000000000000000000000000000000000000000000000000000000000000000000000000000000000000000000000000000000000000000000000000000000000000000000000000000000000000000000000000000000000000000000000000000000000000000000",
          "blockHash": "0xeb5ddf69612c9fe7b9678934e9bb4cb94a9839f698c13d93ec04f0c74c5080b0",
          "blockNumber": "0x73846c",
          "transactionHash": "0x12239fcd53fdfa449a12dad188f702d2ca3a6395f11c15d9e02dd09c7970c451",
          "transactionIndex": "0x86",
          "logIndex": "0x168",
          "removed": false
        },
        {
          "address": "0x2aef30832a750ad996bd851b780443b458cc957f",
          "topics": [
            "0xaec00f5213a37254bc68a26b0685d1a5b2bf513e1e587c94c7df7f4a62b56c9c"
          ],
          "data": "0x0000000000000000000000000000000000000000000000008aa39c121a27039300000000000000000000000000000000000000000000000001bd9114bb867da000000000000000000000000000000000000000000000000001bd9114bb867da00000000000000000000000000000000000000000000000008aa39c121a270393",
          "blockHash": "0xeb5ddf69612c9fe7b9678934e9bb4cb94a9839f698c13d93ec04f0c74c5080b0",
          "blockNumber": "0x73846c",
          "transactionHash": "0x12239fcd53fdfa449a12dad188f702d2ca3a6395f11c15d9e02dd09c7970c451",
          "transactionIndex": "0x86",
          "logIndex": "0x169",
          "removed": false
        },
        {
          "address": "0x2aef30832a750ad996bd851b780443b458cc957f",
          "topics": [
            "0x4afcb4a87cdbd9974efdb92ee48bc8d7cd0ae4bf217004db3d080cbaee652ca7"
          ],
          "data": "0x0000000000000000000000000000000000000000000000000000000067955e74000000000000000000000000000000000000000000000000002d88ec75fdfff10000000000000000000000000000000000000000000000000000733ddbe60fd2",
          "blockHash": "0xeb5ddf69612c9fe7b9678934e9bb4cb94a9839f698c13d93ec04f0c74c5080b0",
          "blockNumber": "0x73846c",
          "transactionHash": "0x12239fcd53fdfa449a12dad188f702d2ca3a6395f11c15d9e02dd09c7970c451",
          "transactionIndex": "0x86",
          "logIndex": "0x16a",
          "removed": false
        }
      ],
      "logsBloom": "0x00000000000000000000000000000100400000000000000000000000000000000008000000000001000000000000000000002000000000004000000000000000000000000000000000000008000000000000000000000000000000000000000000001000020000000020000020000800020000000000000000000010000000000000000000000000000000000000000000000000000000000000010000000000000000000000000000000400000020006000000000000000000000001000000000000002000000800000000000000000000000000000080000000000000020000000000000000000000000000000000000000000000000000000000000000000",
      "type": "0x2",
      "transactionHash": "0x12239fcd53fdfa449a12dad188f702d2ca3a6395f11c15d9e02dd09c7970c451",
      "transactionIndex": "0x86",
      "blockHash": "0xeb5ddf69612c9fe7b9678934e9bb4cb94a9839f698c13d93ec04f0c74c5080b0",
      "blockNumber": "0x73846c",
      "gasUsed": "0x1a3b5",
      "effectiveGasPrice": "0x3a737e89",
      "from": "0xc77f7fed3b5cc8249adc428c5f44c9063b9734b4",
      "to": "0x2aef30832a750ad996bd851b780443b458cc957f",
      "contractAddress": null
    }
  ],
  "libraries": [],
  "pending": [],
  "returns": {},
  "timestamp": 1737842293,
  "chain": 11155111,
  "commit": "f5162e9"
}