{
  "transactions": [
    {
      "hash": "0x8e9e9ff8198eeea898886206dddf1ee9c187b0508732f9726fb08a24f5144cae",
      "transactionType": "CALL",
      "contractName": null,
      "contractAddress": "0x8aafd3ede9adb0ff97c7aebce82a919afb1c8764",
      "function": "sell(uint256)",
      "arguments": [
        "6560114021"
      ],
      "transaction": {
        "from": "0xc77f7fed3b5cc8249adc428c5f44c9063b9734b4",
        "to": "0x8aafd3ede9adb0ff97c7aebce82a919afb1c8764",
        "gas": "0x1722a",
        "value": "0x0",
        "input": "0xe4849b320000000000000000000000000000000000000000000000000000000187036565",
        "nonce": "0x153a",
        "chainId": "0xaa36a7"
      },
      "additionalContracts": [],
      "isFixedGasLimit": false
    }
  ],
  "receipts": [
    {
      "status": "0x1",
      "cumulativeGasUsed": "0xd52c91",
      "logs": [
        {
          "address": "0x8aafd3ede9adb0ff97c7aebce82a919afb1c8764",
          "topics": [
            "0xddf252ad1be2c89b69c2b068fc378daa952ba7f163c4a11628f55a4df523b3ef",
            "0x000000000000000000000000c77f7fed3b5cc8249adc428c5f44c9063b9734b4",
            "0x0000000000000000000000000000000000000000000000000000000000000000"
          ],
          "data": "0x0000000000000000000000000000000000000000000000000000000183e299d5",
          "blockHash": "0xbc9ea2672efe28c140bc2a9be4a31b6a6e9756408e0b585f571f653a4d1dba8b",
          "blockNumber": "0x731c9e",
          "transactionHash": "0x8e9e9ff8198eeea898886206dddf1ee9c187b0508732f9726fb08a24f5144cae",
          "transactionIndex": "0x5f",
          "logIndex": "0xab",
          "removed": false
        },
        {
          "address": "0x8aafd3ede9adb0ff97c7aebce82a919afb1c8764",
          "topics": [
            "0xddf252ad1be2c89b69c2b068fc378daa952ba7f163c4a11628f55a4df523b3ef",
            "0x000000000000000000000000c77f7fed3b5cc8249adc428c5f44c9063b9734b4",
            "0x000000000000000000000000c77f7fed3b5cc8249adc428c5f44c9063b9734b4"
          ],
          "data": "0x000000000000000000000000000000000000000000000000000000000320cb90",
          "blockHash": "0xbc9ea2672efe28c140bc2a9be4a31b6a6e9756408e0b585f571f653a4d1dba8b",
          "blockNumber": "0x731c9e",
          "transactionHash": "0x8e9e9ff8198eeea898886206dddf1ee9c187b0508732f9726fb08a24f5144cae",
          "transactionIndex": "0x5f",
          "logIndex": "0xac",
          "removed": false
        },
        {
          "address": "0x8aafd3ede9adb0ff97c7aebce82a919afb1c8764",
          "topics": [
            "0x4afcb4a87cdbd9974efdb92ee48bc8d7cd0ae4bf217004db3d080cbaee652ca7"
          ],
          "data": "0x00000000000000000000000000000000000000000000000000000000679054440000000000000000000000000000000000000000000000000011b9c4562d056c0000000000000000000000000000000000000000000000000000000001f36dbd",
          "blockHash": "0xbc9ea2672efe28c140bc2a9be4a31b6a6e9756408e0b585f571f653a4d1dba8b",
          "blockNumber": "0x731c9e",
          "transactionHash": "0x8e9e9ff8198eeea898886206dddf1ee9c187b0508732f9726fb08a24f5144cae",
          "transactionIndex": "0x5f",
          "logIndex": "0xad",
          "removed": false
        }
      ],
      "logsBloom": "0x00000000000000000000000000000000000000000600000000000000000000000000000000000000000000000000000000000000000000004000000000000000000000000000004000000008000000000000000000000000000000000000000000000000020000000000000000000800020000000000000000000010000000000000000000000000000000000000000000000000000000000000010000000000000000000000000000000000000000004000000000000000000000000000000000000002000000800000000000000000000000000000080000000000000020000000000000000000000000000000000000000000000000000000000000000000",
      "type": "0x2",
      "transactionHash": "0x8e9e9ff8198eeea898886206dddf1ee9c187b0508732f9726fb08a24f5144cae",
      "transactionIndex": "0x5f",
      "blockHash": "0xbc9ea2672efe28c140bc2a9be4a31b6a6e9756408e0b585f571f653a4d1dba8b",
      "blockNumber": "0x731c9e",
      "gasUsed": "0xfd1b",
      "effectiveGasPrice": "0x108c932d2",
      "from": "0xc77f7fed3b5cc8249adc428c5f44c9063b9734b4",
      "to": "0x8aafd3ede9adb0ff97c7aebce82a919afb1c8764",
      "contractAddress": null
    }
  ],
  "libraries": [],
  "pending": [],
  "returns": {},
  "timestamp": 1737512006,
  "chain": 11155111,
  "commit": "1d2fb70"
}