{
  "transactions": [
    {
      "hash": "0xedb840086f97f14ebef4732025b20c47325d5280555255540f74bb0c9d605c79",
      "transactionType": "CALL",
      "contractName": null,
      "contractAddress": "0x5eb9cc76c3506942c1c0ead70e877dd5e4f00cb0",
      "function": "sell(uint256)",
      "arguments": [
        "989143982555122825120"
      ],
      "transaction": {
        "from": "0xc77f7fed3b5cc8249adc428c5f44c9063b9734b4",
        "to": "0x5eb9cc76c3506942c1c0ead70e877dd5e4f00cb0",
        "gas": "0x16fec",
        "value": "0x0",
        "input": "0xe4849b320000000000000000000000000000000000000000000000359f215b6ca946f7a0",
        "nonce": "0x2ed",
        "chainId": "0xaa36a7"
      },
      "additionalContracts": [],
      "isFixedGasLimit": false
    }
  ],
  "receipts": [
    {
      "status": "0x1",
      "cumulativeGasUsed": "0x12ebb17",
      "logs": [
        {
          "address": "0x5eb9cc76c3506942c1c0ead70e877dd5e4f00cb0",
          "topics": [
            "0xddf252ad1be2c89b69c2b068fc378daa952ba7f163c4a11628f55a4df523b3ef",
            "0x000000000000000000000000c77f7fed3b5cc8249adc428c5f44c9063b9734b4",
            "0x0000000000000000000000000000000000000000000000000000000000000000"
          ],
          "data": "0x0000000000000000000000000000000000000000000000359f215b6ca946f7a0",
          "blockHash": "0x5a292114e7848d80db50bcb10782e8cf064fbdf445177ae6d10ec69b2613a054",
          "blockNumber": "0x724ecd",
          "transactionHash": "0xedb840086f97f14ebef4732025b20c47325d5280555255540f74bb0c9d605c79",
          "transactionIndex": "0x9f",
          "logIndex": "0xd0",
          "removed": false
        },
        {
          "address": "0x5eb9cc76c3506942c1c0ead70e877dd5e4f00cb0",
          "topics": [
            "0x4afcb4a87cdbd9974efdb92ee48bc8d7cd0ae4bf217004db3d080cbaee652ca7"
          ],
          "data": "0x000000000000000000000000000000000000000000000000000000006786a3500000000000000000000000000000000000000000000000000003910b140ee6880000000000000000000000000000000000000000000000000dc7db133235b5a3",
          "blockHash": "0x5a292114e7848d80db50bcb10782e8cf064fbdf445177ae6d10ec69b2613a054",
          "blockNumber": "0x724ecd",
          "transactionHash": "0xedb840086f97f14ebef4732025b20c47325d5280555255540f74bb0c9d605c79",
          "transactionIndex": "0x9f",
          "logIndex": "0xd1",
          "removed": false
        }
      ],
      "logsBloom": "0x00000000000000000000000000000000000000000000000000000000000000000000000000000000000000000000000000000000000000004000000000000000000000000000000000000008000000000000000000000000000000000000000000000000020000000000000004000800020000000000000000000010000000000000000000000000000000000000000000000000000000000000010000000000000000000000000000000000000000004000000000000000000000000000020000000002000000800000008000000000000000000000080000000000000020000000000000000000000000000000000000000000000000000000000000000000",
      "type": "0x2",
      "transactionHash": "0xedb840086f97f14ebef4732025b20c47325d5280555255540f74bb0c9d605c79",
      "transactionIndex": "0x9f",
      "blockHash": "0x5a292114e7848d80db50bcb10782e8cf064fbdf445177ae6d10ec69b2613a054",
      "blockNumber": "0x724ecd",
      "gasUsed": "0xfb93",
      "effectiveGasPrice": "0x54b4c36d2",
      "from": "0xc77f7fed3b5cc8249adc428c5f44c9063b9734b4",
      "to": "0x5eb9cc76c3506942c1c0ead70e877dd5e4f00cb0",
      "contractAddress": null
    }
  ],
  "libraries": [],
  "pending": [],
  "returns": {},
  "timestamp": 1736876881,
  "chain": 11155111,
  "commit": "51a374b"
}