{
  "transactions": [
    {
      "hash": "0x0330e6768e55bf3e89bb9be1dbd7cc31395bb71e66d2ee5c7bc9d076c3278b81",
      "transactionType": "CALL",
      "contractName": null,
      "contractAddress": "0x8aafd3ede9adb0ff97c7aebce82a919afb1c8764",
      "function": "sell(uint256)",
      "arguments": [
        "5409004708577171418"
      ],
      "transaction": {
        "from": "0xc77f7fed3b5cc8249adc428c5f44c9063b9734b4",
        "to": "0x8aafd3ede9adb0ff97c7aebce82a919afb1c8764",
        "gas": "0x15dca",
        "value": "0x0",
        "input": "0xe4849b320000000000000000000000000000000000000000000000004b10a51fd32857da",
        "nonce": "0x1236",
        "chainId": "0xaa36a7"
      },
      "additionalContracts": [],
      "isFixedGasLimit": false
    }
  ],
  "receipts": [
    {
      "status": "0x1",
      "cumulativeGasUsed": "0xa5c92a",
      "logs": [
        {
          "address": "0x8aafd3ede9adb0ff97c7aebce82a919afb1c8764",
          "topics": [
            "0xddf252ad1be2c89b69c2b068fc378daa952ba7f163c4a11628f55a4df523b3ef",
            "0x000000000000000000000000c77f7fed3b5cc8249adc428c5f44c9063b9734b4",
            "0x0000000000000000000000000000000000000000000000000000000000000000"
          ],
          "data": "0x0000000000000000000000000000000000000000000000004a76e96f71365b3f",
          "blockHash": "0x5f6f8585c056a2415e4f3069a060ddc403a29553d915483a106841b9918e77fa",
          "blockNumber": "0x731915",
          "transactionHash": "0x0330e6768e55bf3e89bb9be1dbd7cc31395bb71e66d2ee5c7bc9d076c3278b81",
          "transactionIndex": "0x90",
          "logIndex": "0xaf",
          "removed": false
        },
        {
          "address": "0x8aafd3ede9adb0ff97c7aebce82a919afb1c8764",
          "topics": [
            "0xddf252ad1be2c89b69c2b068fc378daa952ba7f163c4a11628f55a4df523b3ef",
            "0x000000000000000000000000c77f7fed3b5cc8249adc428c5f44c9063b9734b4",
            "0x000000000000000000000000c77f7fed3b5cc8249adc428c5f44c9063b9734b4"
          ],
          "data": "0x0000000000000000000000000000000000000000000000000099bbb061f1fc9b",
          "blockHash": "0x5f6f8585c056a2415e4f3069a060ddc403a29553d915483a106841b9918e77fa",
          "blockNumber": "0x731915",
          "transactionHash": "0x0330e6768e55bf3e89bb9be1dbd7cc31395bb71e66d2ee5c7bc9d076c3278b81",
          "transactionIndex": "0x90",
          "logIndex": "0xb0",
          "removed": false
        },
        {
          "address": "0x8aafd3ede9adb0ff97c7aebce82a919afb1c8764",
          "topics": [
            "0x4afcb4a87cdbd9974efdb92ee48bc8d7cd0ae4bf217004db3d080cbaee652ca7"
          ],
          "data": "0x00000000000000000000000000000000000000000000000000000000679029cc000000000000000000000000000000000000000000000000000539328eb6d7e7000000000000000000000000000000000000000000000000001c40dcd9db7c0f",
          "blockHash": "0x5f6f8585c056a2415e4f3069a060ddc403a29553d915483a106841b9918e77fa",
          "blockNumber": "0x731915",
          "transactionHash": "0x0330e6768e55bf3e89bb9be1dbd7cc31395bb71e66d2ee5c7bc9d076c3278b81",
          "transactionIndex": "0x90",
          "logIndex": "0xb1",
          "removed": false
        }
      ],
      "logsBloom": "0x00000000000000000000000000000000000000000600000000000000000000000000000000000000000000000000000000000000000000004000000000000000000000000000004000000008000000000000000000000000000000000000000000000000020000000000000000000800020000000000000000000010000000000000000000000000000000000000000000000000000000000000010000000000000000000000000000000000000000004000000000000000000000000000000000000002000000800000000000000000000000000000080000000000000020000000000000000000000000000000000000000000000000000000000000000000",
      "type": "0x2",
      "transactionHash": "0x0330e6768e55bf3e89bb9be1dbd7cc31395bb71e66d2ee5c7bc9d076c3278b81",
      "transactionIndex": "0x90",
      "blockHash": "0x5f6f8585c056a2415e4f3069a060ddc403a29553d915483a106841b9918e77fa",
      "blockNumber": "0x731915",
      "gasUsed": "0xfd3f",
      "effectiveGasPrice": "0x34a1c671",
      "from": "0xc77f7fed3b5cc8249adc428c5f44c9063b9734b4",
      "to": "0x8aafd3ede9adb0ff97c7aebce82a919afb1c8764",
      "contractAddress": null
    }
  ],
  "libraries": [],
  "pending": [],
  "returns": {},
  "timestamp": 1737501133,
  "chain": 11155111,
  "commit": "1d2fb70"
}