{
  "transactions": [
    {
      "hash": "0x1ee9bdc9dfe02e487dabbc1ea4e6fd61c838ce5b829a1831e16cf59b44b555f4",
      "transactionType": "CALL",
      "contractName": null,
      "contractAddress": "0x8aafd3ede9adb0ff97c7aebce82a919afb1c8764",
      "function": "sell(uint256)",
      "arguments": [
        "5504812513724882676"
      ],
      "transaction": {
        "from": "0xc77f7fed3b5cc8249adc428c5f44c9063b9734b4",
        "to": "0x8aafd3ede9adb0ff97c7aebce82a919afb1c8764",
        "gas": "0x15dca",
        "value": "0x0",
        "input": "0xe4849b320000000000000000000000000000000000000000000000004c6505d0c3b25ef4",
        "nonce": "0x1196",
        "chainId": "0xaa36a7"
      },
      "additionalContracts": [],
      "isFixedGasLimit": false
    }
  ],
  "receipts": [
    {
      "status": "0x1",
      "cumulativeGasUsed": "0x9ad558",
      "logs": [
        {
          "address": "0x8aafd3ede9adb0ff97c7aebce82a919afb1c8764",
          "topics": [
            "0xddf252ad1be2c89b69c2b068fc378daa952ba7f163c4a11628f55a4df523b3ef",
            "0x000000000000000000000000c77f7fed3b5cc8249adc428c5f44c9063b9734b4",
            "0x0000000000000000000000000000000000000000000000000000000000000000"
          ],
          "data": "0x0000000000000000000000000000000000000000000000004bc891087036105f",
          "blockHash": "0xa38da425563d609019aebf4cd86c8b6ba7b631d9b4e6758049ca1255163e8347",
          "blockNumber": "0x73185d",
          "transactionHash": "0x1ee9bdc9dfe02e487dabbc1ea4e6fd61c838ce5b829a1831e16cf59b44b555f4",
          "transactionIndex": "0x72",
          "logIndex": "0xbc",
          "removed": false
        },
        {
          "address": "0x8aafd3ede9adb0ff97c7aebce82a919afb1c8764",
          "topics": [
            "0xddf252ad1be2c89b69c2b068fc378daa952ba7f163c4a11628f55a4df523b3ef",
            "0x000000000000000000000000c77f7fed3b5cc8249adc428c5f44c9063b9734b4",
            "0x000000000000000000000000c77f7fed3b5cc8249adc428c5f44c9063b9734b4"
          ],
          "data": "0x000000000000000000000000000000000000000000000000009c74c8537c4e95",
          "blockHash": "0xa38da425563d609019aebf4cd86c8b6ba7b631d9b4e6758049ca1255163e8347",
          "blockNumber": "0x73185d",
          "transactionHash": "0x1ee9bdc9dfe02e487dabbc1ea4e6fd61c838ce5b829a1831e16cf59b44b555f4",
          "transactionIndex": "0x72",
          "logIndex": "0xbd",
          "removed": false
        },
        {
          "address": "0x8aafd3ede9adb0ff97c7aebce82a919afb1c8764",
          "topics": [
            "0x4afcb4a87cdbd9974efdb92ee48bc8d7cd0ae4bf217004db3d080cbaee652ca7"
          ],
          "data": "0x000000000000000000000000000000000000000000000000000000006790212c000000000000000000000000000000000000000000000000000521f30a92689f000000000000000000000000000000000000000000000000001c40ffd6f565b1",
          "blockHash": "0xa38da425563d609019aebf4cd86c8b6ba7b631d9b4e6758049ca1255163e8347",
          "blockNumber": "0x73185d",
          "transactionHash": "0x1ee9bdc9dfe02e487dabbc1ea4e6fd61c838ce5b829a1831e16cf59b44b555f4",
          "transactionIndex": "0x72",
          "logIndex": "0xbe",
          "removed": false
        }
      ],
      "logsBloom": "0x00000000000000000000000000000000000000000600000000000000000000000000000000000000000000000000000000000000000000004000000000000000000000000000004000000008000000000000000000000000000000000000000000000000020000000000000000000800020000000000000000000010000000000000000000000000000000000000000000000000000000000000010000000000000000000000000000000000000000004000000000000000000000000000000000000002000000800000000000000000000000000000080000000000000020000000000000000000000000000000000000000000000000000000000000000000",
      "type": "0x2",
      "transactionHash": "0x1ee9bdc9dfe02e487dabbc1ea4e6fd61c838ce5b829a1831e16cf59b44b555f4",
      "transactionIndex": "0x72",
      "blockHash": "0xa38da425563d609019aebf4cd86c8b6ba7b631d9b4e6758049ca1255163e8347",
      "blockNumber": "0x73185d",
      "gasUsed": "0xfd3f",
      "effectiveGasPrice": "0x340e26ea",
      "from": "0xc77f7fed3b5cc8249adc428c5f44c9063b9734b4",
      "to": "0x8aafd3ede9adb0ff97c7aebce82a919afb1c8764",
      "contractAddress": null
    }
  ],
  "libraries": [],
  "pending": [],
  "returns": {},
  "timestamp": 1737498925,
  "chain": 11155111,
  "commit": "1d2fb70"
}