{
  "transactions": [
    {
      "hash": "0x4ecd617268130861e74c87207b7e8ab8c1ad5526292cb644ed7734e7dbd14955",
      "transactionType": "CALL",
      "contractName": null,
      "contractAddress": "0x5eb9cc76c3506942c1c0ead70e877dd5e4f00cb0",
      "function": "sell(uint256)",
      "arguments": [
        "989152907216275694376"
      ],
      "transaction": {
        "from": "0xc77f7fed3b5cc8249adc428c5f44c9063b9734b4",
        "to": "0x5eb9cc76c3506942c1c0ead70e877dd5e4f00cb0",
        "gas": "0x16fec",
        "value": "0x0",
        "input": "0xe4849b320000000000000000000000000000000000000000000000359f41105b4308e328",
        "nonce": "0x2b5",
        "chainId": "0xaa36a7"
      },
      "additionalContracts": [],
      "isFixedGasLimit": false
    }
  ],
  "receipts": [
    {
      "status": "0x1",
      "cumulativeGasUsed": "0xd782df",
      "logs": [
        {
          "address": "0x5eb9cc76c3506942c1c0ead70e877dd5e4f00cb0",
          "topics": [
            "0xddf252ad1be2c89b69c2b068fc378daa952ba7f163c4a11628f55a4df523b3ef",
            "0x000000000000000000000000c77f7fed3b5cc8249adc428c5f44c9063b9734b4",
            "0x0000000000000000000000000000000000000000000000000000000000000000"
          ],
          "data": "0x0000000000000000000000000000000000000000000000359f41105b4308e328",
          "blockHash": "0x7d1dc40dac19e07755663a60afa8db4d1771d1f91bb4af4bb88e092cd60c6a92",
          "blockNumber": "0x724e90",
          "transactionHash": "0x4ecd617268130861e74c87207b7e8ab8c1ad5526292cb644ed7734e7dbd14955",
          "transactionIndex": "0x72",
          "logIndex": "0xc6",
          "removed": false
        },
        {
          "address": "0x5eb9cc76c3506942c1c0ead70e877dd5e4f00cb0",
          "topics": [
            "0x4afcb4a87cdbd9974efdb92ee48bc8d7cd0ae4bf217004db3d080cbaee652ca7"
          ],
          "data": "0x000000000000000000000000000000000000000000000000000000006786a07400000000000000000000000000000000000000000000000000039108f82cea2e0000000000000000000000000000000000000000000000000dc7db13324596fc",
          "blockHash": "0x7d1dc40dac19e07755663a60afa8db4d1771d1f91bb4af4bb88e092cd60c6a92",
          "blockNumber": "0x724e90",
          "transactionHash": "0x4ecd617268130861e74c87207b7e8ab8c1ad5526292cb644ed7734e7dbd14955",
          "transactionIndex": "0x72",
          "logIndex": "0xc7",
          "removed": false
        }
      ],
      "logsBloom": "0x00000000000000000000000000000000000000000000000000000000000000000000000000000000000000000000000000000000000000004000000000000000000000000000000000000008000000000000000000000000000000000000000000000000020000000000000004000800020000000000000000000010000000000000000000000000000000000000000000000000000000000000010000000000000000000000000000000000000000004000000000000000000000000000020000000002000000800000008000000000000000000000080000000000000020000000000000000000000000000000000000000000000000000000000000000000",
      "type": "0x2",
      "transactionHash": "0x4ecd617268130861e74c87207b7e8ab8c1ad5526292cb644ed7734e7dbd14955",
      "transactionIndex": "0x72",
      "blockHash": "0x7d1dc40dac19e07755663a60afa8db4d1771d1f91bb4af4bb88e092cd60c6a92",
      "blockNumber": "0x724e90",
      "gasUsed": "0xfb93",
      "effectiveGasPrice": "0x45a1e680d",
      "from": "0xc77f7fed3b5cc8249adc428c5f44c9063b9734b4",
      "to": "0x5eb9cc76c3506942c1c0ead70e877dd5e4f00cb0",
      "contractAddress": null
    }
  ],
  "libraries": [],
  "pending": [],
  "returns": {},
  "timestamp": 1736876148,
  "chain": 11155111,
  "commit": "51a374b"
}