{
  "transactions": [
    {
      "hash": "0x84aceea7073bdea5950fad36f5c0052e272f466606f31793db628a62ecddb105",
      "transactionType": "CALL",
      "contractName": null,
      "contractAddress": "0x8aafd3ede9adb0ff97c7aebce82a919afb1c8764",
      "function": "sell(uint256)",
      "arguments": [
        "492062"
      ],
      "transaction": {
        "from": "0xc77f7fed3b5cc8249adc428c5f44c9063b9734b4",
        "to": "0x8aafd3ede9adb0ff97c7aebce82a919afb1c8764",
        "gas": "0x16208",
        "value": "0x0",
        "input": "0xe4849b32000000000000000000000000000000000000000000000000000000000007821e",
        "nonce": "0x145b",
        "chainId": "0xaa36a7"
      },
      "additionalContracts": [],
      "isFixedGasLimit": false
    }
  ],
  "receipts": [
    {
      "status": "0x1",
      "cumulativeGasUsed": "0x128130a",
      "logs": [
        {
          "address": "0x8aafd3ede9adb0ff97c7aebce82a919afb1c8764",
          "topics": [
            "0xddf252ad1be2c89b69c2b068fc378daa952ba7f163c4a11628f55a4df523b3ef",
            "0x000000000000000000000000c77f7fed3b5cc8249adc428c5f44c9063b9734b4",
            "0x0000000000000000000000000000000000000000000000000000000000000000"
          ],
          "data": "0x00000000000000000000000000000000000000000000000000000000000772be",
          "blockHash": "0xb345d3c7c99058b69485bc1f81fdd4caf9ba2f2c4a9e64a81efeeadc90997723",
          "blockNumber": "0x731ba5",
          "transactionHash": "0x84aceea7073bdea5950fad36f5c0052e272f466606f31793db628a62ecddb105",
          "transactionIndex": "0xad",
          "logIndex": "0xca",
          "removed": false
        },
        {
          "address": "0x8aafd3ede9adb0ff97c7aebce82a919afb1c8764",
          "topics": [
            "0xddf252ad1be2c89b69c2b068fc378daa952ba7f163c4a11628f55a4df523b3ef",
            "0x000000000000000000000000c77f7fed3b5cc8249adc428c5f44c9063b9734b4",
            "0x000000000000000000000000c77f7fed3b5cc8249adc428c5f44c9063b9734b4"
          ],
          "data": "0x0000000000000000000000000000000000000000000000000000000000000f60",
          "blockHash": "0xb345d3c7c99058b69485bc1f81fdd4caf9ba2f2c4a9e64a81efeeadc90997723",
          "blockNumber": "0x731ba5",
          "transactionHash": "0x84aceea7073bdea5950fad36f5c0052e272f466606f31793db628a62ecddb105",
          "transactionIndex": "0xad",
          "logIndex": "0xcb",
          "removed": false
        },
        {
          "address": "0x8aafd3ede9adb0ff97c7aebce82a919afb1c8764",
          "topics": [
            "0x4afcb4a87cdbd9974efdb92ee48bc8d7cd0ae4bf217004db3d080cbaee652ca7"
          ],
          "data": "0x0000000000000000000000000000000000000000000000000000000067904898000000000000000000000000000000000000000000000000000f237ab8afcc5b0000000000000000000000000000000000000000000000000000000000000830",
          "blockHash": "0xb345d3c7c99058b69485bc1f81fdd4caf9ba2f2c4a9e64a81efeeadc90997723",
          "blockNumber": "0x731ba5",
          "transactionHash": "0x84aceea7073bdea5950fad36f5c0052e272f466606f31793db628a62ecddb105",
          "transactionIndex": "0xad",
          "logIndex": "0xcc",
          "removed": false
        }
      ],
      "logsBloom": "0x00000000000000000000000000000000000000000600000000000000000000000000000000000000000000000000000000000000000000004000000000000000000000000000004000000008000000000000000000000000000000000000000000000000020000000000000000000800020000000000000000000010000000000000000000000000000000000000000000000000000000000000010000000000000000000000000000000000000000004000000000000000000000000000000000000002000000800000000000000000000000000000080000000000000020000000000000000000000000000000000000000000000000000000000000000000",
      "type": "0x2",
      "transactionHash": "0x84aceea7073bdea5950fad36f5c0052e272f466606f31793db628a62ecddb105",
      "transactionIndex": "0xad",
      "blockHash": "0xb345d3c7c99058b69485bc1f81fdd4caf9ba2f2c4a9e64a81efeeadc90997723",
      "blockNumber": "0x731ba5",
      "gasUsed": "0xf213",
      "effectiveGasPrice": "0x1095666dc",
      "from": "0xc77f7fed3b5cc8249adc428c5f44c9063b9734b4",
      "to": "0x8aafd3ede9adb0ff97c7aebce82a919afb1c8764",
      "contractAddress": null
    }
  ],
  "libraries": [],
  "pending": [],
  "returns": {},
  "timestamp": 1737509017,
  "chain": 11155111,
  "commit": "1d2fb70"
}