{
  "transactions": [
    {
      "hash": "0xe62af3b9e2e22a4bb8408e838ae9e6c4d6b3972d8c3c302d903e6d6538cd3301",
      "transactionType": "CALL",
      "contractName": null,
      "contractAddress": "0x5eb9cc76c3506942c1c0ead70e877dd5e4f00cb0",
      "function": "sell(uint256)",
      "arguments": [
        "989099361664932938156"
      ],
      "transaction": {
        "from": "0xc77f7fed3b5cc8249adc428c5f44c9063b9734b4",
        "to": "0x5eb9cc76c3506942c1c0ead70e877dd5e4f00cb0",
        "gas": "0x16fec",
        "value": "0x0",
        "input": "0xe4849b320000000000000000000000000000000000000000000000359e82d4f613f281ac",
        "nonce": "0x405",
        "chainId": "0xaa36a7"
      },
      "additionalContracts": [],
      "isFixedGasLimit": false
    }
  ],
  "receipts": [
    {
      "status": "0x1",
      "cumulativeGasUsed": "0xb96596",
      "logs": [
        {
          "address": "0x5eb9cc76c3506942c1c0ead70e877dd5e4f00cb0",
          "topics": [
            "0xddf252ad1be2c89b69c2b068fc378daa952ba7f163c4a11628f55a4df523b3ef",
            "0x000000000000000000000000c77f7fed3b5cc8249adc428c5f44c9063b9734b4",
            "0x0000000000000000000000000000000000000000000000000000000000000000"
          ],
          "data": "0x0000000000000000000000000000000000000000000000359e82d4f613f281ac",
          "blockHash": "0xc6f1aa1a59be5c3950cded5abfb2f0480a83a7fbd6d8b2c6b24812668401cdb1",
          "blockNumber": "0x725010",
          "transactionHash": "0xe62af3b9e2e22a4bb8408e838ae9e6c4d6b3972d8c3c302d903e6d6538cd3301",
          "transactionIndex": "0x5f",
          "logIndex": "0xd8",
          "removed": false
        },
        {
          "address": "0x5eb9cc76c3506942c1c0ead70e877dd5e4f00cb0",
          "topics": [
            "0x4afcb4a87cdbd9974efdb92ee48bc8d7cd0ae4bf217004db3d080cbaee652ca7"
          ],
          "data": "0x000000000000000000000000000000000000000000000000000000006786b28c000000000000000000000000000000000000000000000000000391159f78d4510000000000000000000000000000000000000000000000000dc7db1331e64ffd",
          "blockHash": "0xc6f1aa1a59be5c3950cded5abfb2f0480a83a7fbd6d8b2c6b24812668401cdb1",
          "blockNumber": "0x725010",
          "transactionHash": "0xe62af3b9e2e22a4bb8408e838ae9e6c4d6b3972d8c3c302d903e6d6538cd3301",
          "transactionIndex": "0x5f",
          "logIndex": "0xd9",
          "removed": false
        }
      ],
      "logsBloom": "0x00000000000000000000000000000000000000000000000000000000000000000000000000000000000000000000000000000000000000004000000000000000000000000000000000000008000000000000000000000000000000000000000000000000020000000000000004000800020000000000000000000010000000000000000000000000000000000000000000000000000000000000010000000000000000000000000000000000000000004000000000000000000000000000020000000002000000800000008000000000000000000000080000000000000020000000000000000000000000000000000000000000000000000000000000000000",
      "type": "0x2",
      "transactionHash": "0xe62af3b9e2e22a4bb8408e838ae9e6c4d6b3972d8c3c302d903e6d6538cd3301",
      "transactionIndex": "0x5f",
      "blockHash": "0xc6f1aa1a59be5c3950cded5abfb2f0480a83a7fbd6d8b2c6b24812668401cdb1",
      "blockNumber": "0x725010",
      "gasUsed": "0xfb93",
      "effectiveGasPrice": "0x34e3ce5ea",
      "from": "0xc77f7fed3b5cc8249adc428c5f44c9063b9734b4",
      "to": "0x5eb9cc76c3506942c1c0ead70e877dd5e4f00cb0",
      "contractAddress": null
    }
  ],
  "libraries": [],
  "pending": [],
  "returns": {},
  "timestamp": 1736880781,
  "chain": 11155111,
  "commit": "51a374b"
}