{
  "transactions": [
    {
      "hash": "0x5e665455f304e81ed8a64bca4a21165f6a5a9bdfe1ecdd93b3b86898b4d56502",
      "transactionType": "CALL",
      "contractName": null,
      "contractAddress": "0x8aafd3ede9adb0ff97c7aebce82a919afb1c8764",
      "function": "sell(uint256)",
      "arguments": [
        "1556050"
      ],
      "transaction": {
        "from": "0xc77f7fed3b5cc8249adc428c5f44c9063b9734b4",
        "to": "0x8aafd3ede9adb0ff97c7aebce82a919afb1c8764",
        "gas": "0x16208",
        "value": "0x0",
        "input": "0xe4849b32000000000000000000000000000000000000000000000000000000000017be52",
        "nonce": "0xf6e",
        "chainId": "0xaa36a7"
      },
      "additionalContracts": [],
      "isFixedGasLimit": false
    }
  ],
  "receipts": [
    {
      "status": "0x1",
      "cumulativeGasUsed": "0xd4c1ff",
      "logs": [
        {
          "address": "0x8aafd3ede9adb0ff97c7aebce82a919afb1c8764",
          "topics": [
            "0xddf252ad1be2c89b69c2b068fc378daa952ba7f163c4a11628f55a4df523b3ef",
            "0x000000000000000000000000c77f7fed3b5cc8249adc428c5f44c9063b9734b4",
            "0x0000000000000000000000000000000000000000000000000000000000000000"
          ],
          "data": "0x0000000000000000000000000000000000000000000000000000000000178db2",
          "blockHash": "0x053c73a9beb259c2b6bc55225dc13193b9ec7790934cea08fdaf68774c98622d",
          "blockNumber": "0x7315ce",
          "transactionHash": "0x5e665455f304e81ed8a64bca4a21165f6a5a9bdfe1ecdd93b3b86898b4d56502",
          "transactionIndex": "0x96",
          "logIndex": "0xb4",
          "removed": false
        },
        {
          "address": "0x8aafd3ede9adb0ff97c7aebce82a919afb1c8764",
          "topics": [
            "0xddf252ad1be2c89b69c2b068fc378daa952ba7f163c4a11628f55a4df523b3ef",
            "0x000000000000000000000000c77f7fed3b5cc8249adc428c5f44c9063b9734b4",
            "0x000000000000000000000000c77f7fed3b5cc8249adc428c5f44c9063b9734b4"
          ],
          "data": "0x00000000000000000000000000000000000000000000000000000000000030a0",
          "blockHash": "0x053c73a9beb259c2b6bc55225dc13193b9ec7790934cea08fdaf68774c98622d",
          "blockNumber": "0x7315ce",
          "transactionHash": "0x5e665455f304e81ed8a64bca4a21165f6a5a9bdfe1ecdd93b3b86898b4d56502",
          "transactionIndex": "0x96",
          "logIndex": "0xb5",
          "removed": false
        },
        {
          "address": "0x8aafd3ede9adb0ff97c7aebce82a919afb1c8764",
          "topics": [
            "0x4afcb4a87cdbd9974efdb92ee48bc8d7cd0ae4bf217004db3d080cbaee652ca7"
          ],
          "data": "0x00000000000000000000000000000000000000000000000000000000679002540000000000000000000000000000000000000000000000000004c18383c27bc30000000000000000000000000000000000000000000000000000000000000823",
          "blockHash": "0x053c73a9beb259c2b6bc55225dc13193b9ec7790934cea08fdaf68774c98622d",
          "blockNumber": "0x7315ce",
          "transactionHash": "0x5e665455f304e81ed8a64bca4a21165f6a5a9bdfe1ecdd93b3b86898b4d56502",
          "transactionIndex": "0x96",
          "logIndex": "0xb6",
          "removed": false
        }
      ],
      "logsBloom": "0x00000000000000000000000000000000000000000600000000000000000000000000000000000000000000000000000000000000000000004000000000000000000000000000004000000008000000000000000000000000000000000000000000000000020000000000000000000800020000000000000000000010000000000000000000000000000000000000000000000000000000000000010000000000000000000000000000000000000000004000000000000000000000000000000000000002000000800000000000000000000000000000080000000000000020000000000000000000000000000000000000000000000000000000000000000000",
      "type": "0x2",
      "transactionHash": "0x5e665455f304e81ed8a64bca4a21165f6a5a9bdfe1ecdd93b3b86898b4d56502",
      "transactionIndex": "0x96",
      "blockHash": "0x053c73a9beb259c2b6bc55225dc13193b9ec7790934cea08fdaf68774c98622d",
      "blockNumber": "0x7315ce",
      "gasUsed": "0xf213",
      "effectiveGasPrice": "0x63871596",
      "from": "0xc77f7fed3b5cc8249adc428c5f44c9063b9734b4",
      "to": "0x8aafd3ede9adb0ff97c7aebce82a919afb1c8764",
      "contractAddress": null
    }
  ],
  "libraries": [],
  "pending": [],
  "returns": {},
  "timestamp": 1737491029,
  "chain": 11155111,
  "commit": "1d2fb70"
}