{
  "transactions": [
    {
      "hash": "0x014dbedde049f58dde41156e8fd6e7bc68fd60dccc09d6a70e5c2e1f49a9e961",
      "transactionType": "CALL",
      "contractName": null,
      "contractAddress": "0x5eb9cc76c3506942c1c0ead70e877dd5e4f00cb0",
      "function": "buy(address)",
      "arguments": [
        "0xC77f7fed3b5Cc8249aDc428c5F44C9063B9734b4"
      ],
      "transaction": {
        "from": "0xc77f7fed3b5cc8249adc428c5f44c9063b9734b4",
        "to": "0x5eb9cc76c3506942c1c0ead70e877dd5e4f00cb0",
        "gas": "0x156c8",
        "value": "0xde0b6b3a7640000",
        "input": "0xf088d547000000000000000000000000c77f7fed3b5cc8249adc428c5f44c9063b9734b4",
        "nonce": "0x1b8",
        "chainId": "0xaa36a7"
      },
      "additionalContracts": [],
      "isFixedGasLimit": false
    }
  ],
  "receipts": [
    {
      "status": "0x1",
      "cumulativeGasUsed": "0x938130",
      "logs": [
        {
          "address": "0x5eb9cc76c3506942c1c0ead70e877dd5e4f00cb0",
          "topics": [
            "0xddf252ad1be2c89b69c2b068fc378daa952ba7f163c4a11628f55a4df523b3ef",
            "0x0000000000000000000000000000000000000000000000000000000000000000",
            "0x000000000000000000000000c77f7fed3b5cc8249adc428c5f44c9063b9734b4"
          ],
          "data": "0x000000000000000000000000000000000000000000000035a36f5159503fb7c2",
          "blockHash": "0x7fd54b56474a69d681465c38f000dbdd59f074401722d137a7359d0eb7ed980a",
          "blockNumber": "0x723ca3",
          "transactionHash": "0x014dbedde049f58dde41156e8fd6e7bc68fd60dccc09d6a70e5c2e1f49a9e961",
          "transactionIndex": "0x7b",
          "logIndex": "0x97",
          "removed": false
        },
        {
          "address": "0x5eb9cc76c3506942c1c0ead70e877dd5e4f00cb0",
          "topics": [
            "0xddf252ad1be2c89b69c2b068fc378daa952ba7f163c4a11628f55a4df523b3ef",
            "0x0000000000000000000000000000000000000000000000000000000000000000",
            "0x000000000000000000000000c77f7fed3b5cc8249adc428c5f44c9063b9734b4"
          ],
          "data": "0x00000000000000000000000000000000000000000000000029a6ed7265ec3c81",
          "blockHash": "0x7fd54b56474a69d681465c38f000dbdd59f074401722d137a7359d0eb7ed980a",
          "blockNumber": "0x723ca3",
          "transactionHash": "0x014dbedde049f58dde41156e8fd6e7bc68fd60dccc09d6a70e5c2e1f49a9e961",
          "transactionIndex": "0x7b",
          "logIndex": "0x98",
          "removed": false
        },
        {
          "address": "0x5eb9cc76c3506942c1c0ead70e877dd5e4f00cb0",
          "topics": [
            "0x4afcb4a87cdbd9974efdb92ee48bc8d7cd0ae4bf217004db3d080cbaee652ca7"
          ],
          "data": "0x000000000000000000000000000000000000000000000000000000006785c8f800000000000000000000000000000000000000000000000000038dff1d4489b60000000000000000000000000000000000000000000000000de0b6b3a7640000",
          "blockHash": "0x7fd54b56474a69d681465c38f000dbdd59f074401722d137a7359d0eb7ed980a",
          "blockNumber": "0x723ca3",
          "transactionHash": "0x014dbedde049f58dde41156e8fd6e7bc68fd60dccc09d6a70e5c2e1f49a9e961",
          "transactionIndex": "0x7b",
          "logIndex": "0x99",
          "removed": false
        }
      ],
      "logsBloom": "0x00000000000000000000000000000000000000000000000000000000000000000000000000000000000000000000000000000000000000004000000000000000000000000000000000000008000000000000000000000000000000000000000000000000020000000000000004000800020000000000000000000010000000000000000000000000000000000000000000000000000000000000010000000000000000000000000000000000000000004000000000000000000000000000020000000002000000800000008000000000000000000000080000000000000020000000000000000000000000000000000000000000000000000000000000000000",
      "type": "0x2",
      "transactionHash": "0x014dbedde049f58dde41156e8fd6e7bc68fd60dccc09d6a70e5c2e1f49a9e961",
      "transactionIndex": "0x7b",
      "blockHash": "0x7fd54b56474a69d681465c38f000dbdd59f074401722d137a7359d0eb7ed980a",
      "blockNumber": "0x723ca3",
      "gasUsed": "0xf82c",
      "effectiveGasPrice": "0x1c1895e2f",
      "from": "0xc77f7fed3b5cc8249adc428c5f44c9063b9734b4",
      "to": "0x5eb9cc76c3506942c1c0ead70e877dd5e4f00cb0",
      "contractAddress": null
    }
  ],
  "libraries": [],
  "pending": [],
  "returns": {},
  "timestamp": 1736820985,
  "chain": 11155111,
  "commit": "51a374b"
}