{
  "transactions": [
    {
      "hash": "0xb1b508953a87669d462ab5bdd0e29937509cc77f3640c7c0bdf447e48dd81761",
      "transactionType": "CALL",
      "contractName": null,
      "contractAddress": "0x5eb9cc76c3506942c1c0ead70e877dd5e4f00cb0",
      "function": "sell(uint256)",
      "arguments": [
        "989086932276730405109"
      ],
      "transaction": {
        "from": "0xc77f7fed3b5cc8249adc428c5f44c9063b9734b4",
        "to": "0x5eb9cc76c3506942c1c0ead70e877dd5e4f00cb0",
        "gas": "0x16fec",
        "value": "0x0",
        "input": "0xe4849b320000000000000000000000000000000000000000000000359e56ac7f9f5c20f5",
        "nonce": "0x453",
        "chainId": "0xaa36a7"
      },
      "additionalContracts": [],
      "isFixedGasLimit": false
    }
  ],
  "receipts": [
    {
      "status": "0x1",
      "cumulativeGasUsed": "0xa60b0a",
      "logs": [
        {
          "address": "0x5eb9cc76c3506942c1c0ead70e877dd5e4f00cb0",
          "topics": [
            "0xddf252ad1be2c89b69c2b068fc378daa952ba7f163c4a11628f55a4df523b3ef",
            "0x000000000000000000000000c77f7fed3b5cc8249adc428c5f44c9063b9734b4",
            "0x0000000000000000000000000000000000000000000000000000000000000000"
          ],
          "data": "0x0000000000000000000000000000000000000000000000359e56ac7f9f5c20f5",
          "blockHash": "0xd823bb3226132a753ea51daeb61979a59cbb1111f32aeb92c79afb59046d9d53",
          "blockNumber": "0x725075",
          "transactionHash": "0xb1b508953a87669d462ab5bdd0e29937509cc77f3640c7c0bdf447e48dd81761",
          "transactionIndex": "0x57",
          "logIndex": "0x8a",
          "removed": false
        },
        {
          "address": "0x5eb9cc76c3506942c1c0ead70e877dd5e4f00cb0",
          "topics": [
            "0x4afcb4a87cdbd9974efdb92ee48bc8d7cd0ae4bf217004db3d080cbaee652ca7"
          ],
          "data": "0x000000000000000000000000000000000000000000000000000000006786b748000000000000000000000000000000000000000000000000000391188f7398650000000000000000000000000000000000000000000000000dc7db1331d0322b",
          "blockHash": "0xd823bb3226132a753ea51daeb61979a59cbb1111f32aeb92c79afb59046d9d53",
          "blockNumber": "0x725075",
          "transactionHash": "0xb1b508953a87669d462ab5bdd0e29937509cc77f3640c7c0bdf447e48dd81761",
          "transactionIndex": "0x57",
          "logIndex": "0x8b",
          "removed": false
        }
      ],
      "logsBloom": "0x00000000000000000000000000000000000000000000000000000000000000000000000000000000000000000000000000000000000000004000000000000000000000000000000000000008000000000000000000000000000000000000000000000000020000000000000004000800020000000000000000000010000000000000000000000000000000000000000000000000000000000000010000000000000000000000000000000000000000004000000000000000000000000000020000000002000000800000008000000000000000000000080000000000000020000000000000000000000000000000000000000000000000000000000000000000",
      "type": "0x2",
      "transactionHash": "0xb1b508953a87669d462ab5bdd0e29937509cc77f3640c7c0bdf447e48dd81761",
      "transactionIndex": "0x57",
      "blockHash": "0xd823bb3226132a753ea51daeb61979a59cbb1111f32aeb92c79afb59046d9d53",
      "blockNumber": "0x725075",
      "gasUsed": "0xfb93",
      "effectiveGasPrice": "0x21764937f",
      "from": "0xc77f7fed3b5cc8249adc428c5f44c9063b9734b4",
      "to": "0x5eb9cc76c3506942c1c0ead70e877dd5e4f00cb0",
      "contractAddress": null
    }
  ],
  "libraries": [],
  "pending": [],
  "returns": {},
  "timestamp": 1736881993,
  "chain": 11155111,
  "commit": "51a374b"
}