{
  "transactions": [
    {
      "hash": "0x2b1193a9ea863faa0f17ed5c4975a3791de4a6f35da614353e6f7b23059ab88b",
      "transactionType": "CALL",
      "contractName": null,
      "contractAddress": "0x8aafd3ede9adb0ff97c7aebce82a919afb1c8764",
      "function": "sell(uint256)",
      "arguments": [
        "11418"
      ],
      "transaction": {
        "from": "0xc77f7fed3b5cc8249adc428c5f44c9063b9734b4",
        "to": "0x8aafd3ede9adb0ff97c7aebce82a919afb1c8764",
        "gas": "0x14e4c",
        "value": "0x0",
        "input": "0xe4849b320000000000000000000000000000000000000000000000000000000000002c9a",
        "nonce": "0x1201",
        "chainId": "0xaa36a7"
      },
      "additionalContracts": [],
      "isFixedGasLimit": false
    }
  ],
  "receipts": [
    {
      "status": "0x1",
      "cumulativeGasUsed": "0x21c45da",
      "logs": [
        {
          "address": "0x8aafd3ede9adb0ff97c7aebce82a919afb1c8764",
          "topics": [
            "0xddf252ad1be2c89b69c2b068fc378daa952ba7f163c4a11628f55a4df523b3ef",
            "0x000000000000000000000000c77f7fed3b5cc8249adc428c5f44c9063b9734b4",
            "0x0000000000000000000000000000000000000000000000000000000000000000"
          ],
          "data": "0x0000000000000000000000000000000000000000000000000000000000002c3f",
          "blockHash": "0xc0ac19ccfcadbec9b3389934a8e971138d9499615c04282935ecbd0f46bec209",
          "blockNumber": "0x7318db",
          "transactionHash": "0x2b1193a9ea863faa0f17ed5c4975a3791de4a6f35da614353e6f7b23059ab88b",
          "transactionIndex": "0x6f",
          "logIndex": "0x1110",
          "removed": false
        },
        {
          "address": "0x8aafd3ede9adb0ff97c7aebce82a919afb1c8764",
          "topics": [
            "0xddf252ad1be2c89b69c2b068fc378daa952ba7f163c4a11628f55a4df523b3ef",
            "0x000000000000000000000000c77f7fed3b5cc8249adc428c5f44c9063b9734b4",
            "0x000000000000000000000000c77f7fed3b5cc8249adc428c5f44c9063b9734b4"
          ],
          "data": "0x000000000000000000000000000000000000000000000000000000000000005b",
          "blockHash": "0xc0ac19ccfcadbec9b3389934a8e971138d9499615c04282935ecbd0f46bec209",
          "blockNumber": "0x7318db",
          "transactionHash": "0x2b1193a9ea863faa0f17ed5c4975a3791de4a6f35da614353e6f7b23059ab88b",
          "transactionIndex": "0x6f",
          "logIndex": "0x1111",
          "removed": false
        },
        {
          "address": "0x8aafd3ede9adb0ff97c7aebce82a919afb1c8764",
          "topics": [
            "0x4afcb4a87cdbd9974efdb92ee48bc8d7cd0ae4bf217004db3d080cbaee652ca7"
          ],
          "data": "0x00000000000000000000000000000000000000000000000000000000679027140000000000000000000000000000000000000000000000000005307a9a9eaa4e0000000000000000000000000000000000000000000000000000000000000010",
          "blockHash": "0xc0ac19ccfcadbec9b3389934a8e971138d9499615c04282935ecbd0f46bec209",
          "blockNumber": "0x7318db",
          "transactionHash": "0x2b1193a9ea863faa0f17ed5c4975a3791de4a6f35da614353e6f7b23059ab88b",
          "transactionIndex": "0x6f",
          "logIndex": "0x1112",
          "removed": false
        }
      ],
      "logsBloom": "0x00000000000000000000000000000000000000000600000000000000000000000000000000000000000000000000000000000000000000004000000000000000000000000000004000000008000000000000000000000000000000000000000000000000020000000000000000000800020000000000000000000010000000000000000000000000000000000000000000000000000000000000010000000000000000000000000000000000000000004000000000000000000000000000000000000002000000800000000000000000000000000000080000000000000020000000000000000000000000000000000000000000000000000000000000000000",
      "type": "0x2",
      "transactionHash": "0x2b1193a9ea863faa0f17ed5c4975a3791de4a6f35da614353e6f7b23059ab88b",
      "transactionIndex": "0x6f",
      "blockHash": "0xc0ac19ccfcadbec9b3389934a8e971138d9499615c04282935ecbd0f46bec209",
      "blockNumber": "0x7318db",
      "gasUsed": "0xf207",
      "effectiveGasPrice": "0x3dd18736",
      "from": "0xc77f7fed3b5cc8249adc428c5f44c9063b9734b4",
      "to": "0x8aafd3ede9adb0ff97c7aebce82a919afb1c8764",
      "contractAddress": null
    }
  ],
  "libraries": [],
  "pending": [],
  "returns": {},
  "timestamp": 1737500437,
  "chain": 11155111,
  "commit": "1d2fb70"
}