{
  "transactions": [
    {
      "hash": "0xb9a3491a11a4de45aa75a1a54acf0a09697fca167bdbb5643b99ae7e477ecf4e",
      "transactionType": "CALL",
      "contractName": null,
      "contractAddress": "0xbf4a322f1496e5c3d34a9bcdb4c60567b38c7de2",
      "function": "sell(uint256)",
      "arguments": [
        "980630734444555413505"
      ],
      "transaction": {
        "from": "0xc77f7fed3b5cc8249adc428c5f44c9063b9734b4",
        "to": "0xbf4a322f1496e5c3d34a9bcdb4c60567b38c7de2",
        "gas": "0x16fea",
        "value": "0x0",
        "input": "0xe4849b3200000000000000000000000000000000000000000000003528fc395f7e242801",
        "nonce": "0xbe9",
        "chainId": "0xaa36a7"
      },
      "additionalContracts": [],
      "isFixedGasLimit": false
    }
  ],
  "receipts": [
    {
      "status": "0x1",
      "cumulativeGasUsed": "0x1ba236b",
      "logs": [
        {
          "address": "0xbf4a322f1496e5c3d34a9bcdb4c60567b38c7de2",
          "topics": [
            "0xddf252ad1be2c89b69c2b068fc378daa952ba7f163c4a11628f55a4df523b3ef",
            "0x000000000000000000000000c77f7fed3b5cc8249adc428c5f44c9063b9734b4",
            "0x0000000000000000000000000000000000000000000000000000000000000000"
          ],
          "data": "0x00000000000000000000000000000000000000000000003528fc395f7e242801",
          "blockHash": "0xa07434a2698cc14266eb4eb9881595f7cf671e598d1c1099d6cf370be284ae0c",
          "blockNumber": "0x725c10",
          "transactionHash": "0xb9a3491a11a4de45aa75a1a54acf0a09697fca167bdbb5643b99ae7e477ecf4e",
          "transactionIndex": "0x8d",
          "logIndex": "0x123",
          "removed": false
        },
        {
          "address": "0xbf4a322f1496e5c3d34a9bcdb4c60567b38c7de2",
          "topics": [
            "0x4afcb4a87cdbd9974efdb92ee48bc8d7cd0ae4bf217004db3d080cbaee652ca7"
          ],
          "data": "0x000000000000000000000000000000000000000000000000000000006787431c000000000000000000000000000000000000000000000000000398fea63ea9900000000000000000000000000000000000000000000000000dc7e3e3886555c9",
          "blockHash": "0xa07434a2698cc14266eb4eb9881595f7cf671e598d1c1099d6cf370be284ae0c",
          "blockNumber": "0x725c10",
          "transactionHash": "0xb9a3491a11a4de45aa75a1a54acf0a09697fca167bdbb5643b99ae7e477ecf4e",
          "transactionIndex": "0x8d",
          "logIndex": "0x124",
          "removed": false
        }
      ],
      "logsBloom": "0x00000000000000000000000000000000000000000000000000000000000000000000000000000000000000000000000000000000000000004000000000000000000000000000000000000008000000000000001000000000000000000000000000000000020000000000000000000800020000000000000000000010000000000000000000000000000000000000000000000000000008000000010000000000000000000000000000000000000000004000000000000000000000000000000000000002000000800000000000001000000000000000080000000000000020000000000000000000000000000000000000000000000000000000000000000000",
      "type": "0x2",
      "transactionHash": "0xb9a3491a11a4de45aa75a1a54acf0a09697fca167bdbb5643b99ae7e477ecf4e",
      "transactionIndex": "0x8d",
      "blockHash": "0xa07434a2698cc14266eb4eb9881595f7cf671e598d1c1099d6cf370be284ae0c",
      "blockNumber": "0x725c10",
      "gasUsed": "0xfb91",
      "effectiveGasPrice": "0xbc963cc4",
      "from": "0xc77f7fed3b5cc8249adc428c5f44c9063b9734b4",
      "to": "0xbf4a322f1496e5c3d34a9bcdb4c60567b38c7de2",
      "contractAddress": null
    }
  ],
  "libraries": [],
  "pending": [],
  "returns": {},
  "timestamp": 1736917790,
  "chain": 11155111,
  "commit": "51a374b"
}