{
  "transactions": [
    {
      "hash": "0xe3d535157ab7d00d85e8d6f497ded5276fc4d5a5b4884005e199309cd6c80148",
      "transactionType": "CALL",
      "contractName": null,
      "contractAddress": "0x8aafd3ede9adb0ff97c7aebce82a919afb1c8764",
      "function": "sell(uint256)",
      "arguments": [
        "5391408550712401016"
      ],
      "transaction": {
        "from": "0xc77f7fed3b5cc8249adc428c5f44c9063b9734b4",
        "to": "0x8aafd3ede9adb0ff97c7aebce82a919afb1c8764",
        "gas": "0x15dca",
        "value": "0x0",
        "input": "0xe4849b320000000000000000000000000000000000000000000000004ad2218310375c78",
        "nonce": "0x1254",
        "chainId": "0xaa36a7"
      },
      "additionalContracts": [],
      "isFixedGasLimit": false
    }
  ],
  "receipts": [
    {
      "status": "0x1",
      "cumulativeGasUsed": "0x9cbdab",
      "logs": [
        {
          "address": "0x8aafd3ede9adb0ff97c7aebce82a919afb1c8764",
          "topics": [
            "0xddf252ad1be2c89b69c2b068fc378daa952ba7f163c4a11628f55a4df523b3ef",
            "0x000000000000000000000000c77f7fed3b5cc8249adc428c5f44c9063b9734b4",
            "0x0000000000000000000000000000000000000000000000000000000000000000"
          ],
          "data": "0x0000000000000000000000000000000000000000000000004a38e5da142eb9f0",
          "blockHash": "0x8e832905753d7d34e716bebe6b9ffcef51496f2fee03f2fdae50810012a992d9",
          "blockNumber": "0x731938",
          "transactionHash": "0xe3d535157ab7d00d85e8d6f497ded5276fc4d5a5b4884005e199309cd6c80148",
          "transactionIndex": "0x7d",
          "logIndex": "0x86",
          "removed": false
        },
        {
          "address": "0x8aafd3ede9adb0ff97c7aebce82a919afb1c8764",
          "topics": [
            "0xddf252ad1be2c89b69c2b068fc378daa952ba7f163c4a11628f55a4df523b3ef",
            "0x000000000000000000000000c77f7fed3b5cc8249adc428c5f44c9063b9734b4",
            "0x000000000000000000000000c77f7fed3b5cc8249adc428c5f44c9063b9734b4"
          ],
          "data": "0x00000000000000000000000000000000000000000000000000993ba8fc08a288",
          "blockHash": "0x8e832905753d7d34e716bebe6b9ffcef51496f2fee03f2fdae50810012a992d9",
          "blockNumber": "0x731938",
          "transactionHash": "0xe3d535157ab7d00d85e8d6f497ded5276fc4d5a5b4884005e199309cd6c80148",
          "transactionIndex": "0x7d",
          "logIndex": "0x87",
          "removed": false
        },
        {
          "address": "0x8aafd3ede9adb0ff97c7aebce82a919afb1c8764",
          "topics": [
            "0x4afcb4a87cdbd9974efdb92ee48bc8d7cd0ae4bf217004db3d080cbaee652ca7"
          ],
          "data": "0x0000000000000000000000000000000000000000000000000000000067902b7000000000000000000000000000000000000000000000000000053d8e9c3c782d000000000000000000000000000000000000000000000000001c40d66c5f38fb",
          "blockHash": "0x8e832905753d7d34e716bebe6b9ffcef51496f2fee03f2fdae50810012a992d9",
          "blockNumber": "0x731938",
          "transactionHash": "0xe3d535157ab7d00d85e8d6f497ded5276fc4d5a5b4884005e199309cd6c80148",
          "transactionIndex": "0x7d",
          "logIndex": "0x88",
          "removed": false
        }
      ],
      "logsBloom": "0x00000000000000000000000000000000000000000600000000000000000000000000000000000000000000000000000000000000000000004000000000000000000000000000004000000008000000000000000000000000000000000000000000000000020000000000000000000800020000000000000000000010000000000000000000000000000000000000000000000000000000000000010000000000000000000000000000000000000000004000000000000000000000000000000000000002000000800000000000000000000000000000080000000000000020000000000000000000000000000000000000000000000000000000000000000000",
      "type": "0x2",
      "transactionHash": "0xe3d535157ab7d00d85e8d6f497ded5276fc4d5a5b4884005e199309cd6c80148",
      "transactionIndex": "0x7d",
      "blockHash": "0x8e832905753d7d34e716bebe6b9ffcef51496f2fee03f2fdae50810012a992d9",
      "blockNumber": "0x731938",
      "gasUsed": "0xfd3f",
      "effectiveGasPrice": "0x3c714786",
      "from": "0xc77f7fed3b5cc8249adc428c5f44c9063b9734b4",
      "to": "0x8aafd3ede9adb0ff97c7aebce82a919afb1c8764",
      "contractAddress": null
    }
  ],
  "libraries": [],
  "pending": [],
  "returns": {},
  "timestamp": 1737501553,
  "chain": 11155111,
  "commit": "1d2fb70"
}