{
  "transactions": [
    {
      "hash": "0x50cb142d8b2437f5ff49128f6ebe0be588c62cfe35b6991aff7cb286cc62542d",
      "transactionType": "CALL",
      "contractName": null,
      "contractAddress": "0x5eb9cc76c3506942c1c0ead70e877dd5e4f00cb0",
      "function": "sell(uint256)",
      "arguments": [
        "989088525770581056215"
      ],
      "transaction": {
        "from": "0xc77f7fed3b5cc8249adc428c5f44c9063b9734b4",
        "to": "0x5eb9cc76c3506942c1c0ead70e877dd5e4f00cb0",
        "gas": "0x16fec",
        "value": "0x0",
        "input": "0xe4849b320000000000000000000000000000000000000000000000359e5c55c5d2479ad7",
        "nonce": "0x449",
        "chainId": "0xaa36a7"
      },
      "additionalContracts": [],
      "isFixedGasLimit": false
    }
  ],
  "receipts": [
    {
      "status": "0x1",
      "cumulativeGasUsed": "0x814305",
      "logs": [
        {
          "address": "0x5eb9cc76c3506942c1c0ead70e877dd5e4f00cb0",
          "topics": [
            "0xddf252ad1be2c89b69c2b068fc378daa952ba7f163c4a11628f55a4df523b3ef",
            "0x000000000000000000000000c77f7fed3b5cc8249adc428c5f44c9063b9734b4",
            "0x0000000000000000000000000000000000000000000000000000000000000000"
          ],
          "data": "0x0000000000000000000000000000000000000000000000359e5c55c5d2479ad7",
          "blockHash": "0x1491e336cb72c0b1e3d1cecee62aa8f103d269939daaf1b99ab264da8443d033",
          "blockNumber": "0x725069",
          "transactionHash": "0x50cb142d8b2437f5ff49128f6ebe0be588c62cfe35b6991aff7cb286cc62542d",
          "transactionIndex": "0x5d",
          "logIndex": "0x7b",
          "removed": false
        },
        {
          "address": "0x5eb9cc76c3506942c1c0ead70e877dd5e4f00cb0",
          "topics": [
            "0x4afcb4a87cdbd9974efdb92ee48bc8d7cd0ae4bf217004db3d080cbaee652ca7"
          ],
          "data": "0x000000000000000000000000000000000000000000000000000000006786b6b8000000000000000000000000000000000000000000000000000391182f0b3d9d0000000000000000000000000000000000000000000000000dc7db1331d30809",
          "blockHash": "0x1491e336cb72c0b1e3d1cecee62aa8f103d269939daaf1b99ab264da8443d033",
          "blockNumber": "0x725069",
          "transactionHash": "0x50cb142d8b2437f5ff49128f6ebe0be588c62cfe35b6991aff7cb286cc62542d",
          "transactionIndex": "0x5d",
          "logIndex": "0x7c",
          "removed": false
        }
      ],
      "logsBloom": "0x00000000000000000000000000000000000000000000000000000000000000000000000000000000000000000000000000000000000000004000000000000000000000000000000000000008000000000000000000000000000000000000000000000000020000000000000004000800020000000000000000000010000000000000000000000000000000000000000000000000000000000000010000000000000000000000000000000000000000004000000000000000000000000000020000000002000000800000008000000000000000000000080000000000000020000000000000000000000000000000000000000000000000000000000000000000",
      "type": "0x2",
      "transactionHash": "0x50cb142d8b2437f5ff49128f6ebe0be588c62cfe35b6991aff7cb286cc62542d",
      "transactionIndex": "0x5d",
      "blockHash": "0x1491e336cb72c0b1e3d1cecee62aa8f103d269939daaf1b99ab264da8443d033",
      "blockNumber": "0x725069",
      "gasUsed": "0xfb93",
      "effectiveGasPrice": "0x27e9e9555",
      "from": "0xc77f7fed3b5cc8249adc428c5f44c9063b9734b4",
      "to": "0x5eb9cc76c3506942c1c0ead70e877dd5e4f00cb0",
      "contractAddress": null
    }
  ],
  "libraries": [],
  "pending": [],
  "returns": {},
  "timestamp": 1736881850,
  "chain": 11155111,
  "commit": "51a374b"
}