{
  "transactions": [
    {
      "hash": "0x564fc3878e8d020d10cdabf4ffef3aa909cb0a1e8ffd3ed6d1f5ed418e713a78",
      "transactionType": "CALL",
      "contractName": null,
      "contractAddress": "0x8aafd3ede9adb0ff97c7aebce82a919afb1c8764",
      "function": "sell(uint256)",
      "arguments": [
        "1620691455106232627"
      ],
      "transaction": {
        "from": "0xc77f7fed3b5cc8249adc428c5f44c9063b9734b4",
        "to": "0x8aafd3ede9adb0ff97c7aebce82a919afb1c8764",
        "gas": "0x15dca",
        "value": "0x0",
        "input": "0xe4849b32000000000000000000000000000000000000000000000000167dda4aa81e3133",
        "nonce": "0x1524",
        "chainId": "0xaa36a7"
      },
      "additionalContracts": [],
      "isFixedGasLimit": false
    }
  ],
  "receipts": [
    {
      "status": "0x1",
      "cumulativeGasUsed": "0x6bee54",
      "logs": [
        {
          "address": "0x8aafd3ede9adb0ff97c7aebce82a919afb1c8764",
          "topics": [
            "0xddf252ad1be2c89b69c2b068fc378daa952ba7f163c4a11628f55a4df523b3ef",
            "0x000000000000000000000000c77f7fed3b5cc8249adc428c5f44c9063b9734b4",
            "0x0000000000000000000000000000000000000000000000000000000000000000"
          ],
          "data": "0x000000000000000000000000000000000000000000000000164fca3594574b6e",
          "blockHash": "0x5f3a7252663da7aeef373b1a3b43d0c1311142ca3136d34e24735f31c8a4737c",
          "blockNumber": "0x731c86",
          "transactionHash": "0x564fc3878e8d020d10cdabf4ffef3aa909cb0a1e8ffd3ed6d1f5ed418e713a78",
          "transactionIndex": "0x5b",
          "logIndex": "0x75",
          "removed": false
        },
        {
          "address": "0x8aafd3ede9adb0ff97c7aebce82a919afb1c8764",
          "topics": [
            "0xddf252ad1be2c89b69c2b068fc378daa952ba7f163c4a11628f55a4df523b3ef",
            "0x000000000000000000000000c77f7fed3b5cc8249adc428c5f44c9063b9734b4",
            "0x000000000000000000000000c77f7fed3b5cc8249adc428c5f44c9063b9734b4"
          ],
          "data": "0x000000000000000000000000000000000000000000000000002e101513c6e5c5",
          "blockHash": "0x5f3a7252663da7aeef373b1a3b43d0c1311142ca3136d34e24735f31c8a4737c",
          "blockNumber": "0x731c86",
          "transactionHash": "0x564fc3878e8d020d10cdabf4ffef3aa909cb0a1e8ffd3ed6d1f5ed418e713a78",
          "transactionIndex": "0x5b",
          "logIndex": "0x76",
          "removed": false
        },
        {
          "address": "0x8aafd3ede9adb0ff97c7aebce82a919afb1c8764",
          "topics": [
            "0x4afcb4a87cdbd9974efdb92ee48bc8d7cd0ae4bf217004db3d080cbaee652ca7"
          ],
          "data": "0x000000000000000000000000000000000000000000000000000000006790532400000000000000000000000000000000000000000000000000118494eacfcb1e000000000000000000000000000000000000000000000000001c63dd1dc0a845",
          "blockHash": "0x5f3a7252663da7aeef373b1a3b43d0c1311142ca3136d34e24735f31c8a4737c",
          "blockNumber": "0x731c86",
          "transactionHash": "0x564fc3878e8d020d10cdabf4ffef3aa909cb0a1e8ffd3ed6d1f5ed418e713a78",
          "transactionIndex": "0x5b",
          "logIndex": "0x77",
          "removed": false
        }
      ],
      "logsBloom": "0x00000000000000000000000000000000000000000600000000000000000000000000000000000000000000000000000000000000000000004000000000000000000000000000004000000008000000000000000000000000000000000000000000000000020000000000000000000800020000000000000000000010000000000000000000000000000000000000000000000000000000000000010000000000000000000000000000000000000000004000000000000000000000000000000000000002000000800000000000000000000000000000080000000000000020000000000000000000000000000000000000000000000000000000000000000000",
      "type": "0x2",
      "transactionHash": "0x564fc3878e8d020d10cdabf4ffef3aa909cb0a1e8ffd3ed6d1f5ed418e713a78",
      "transactionIndex": "0x5b",
      "blockHash": "0x5f3a7252663da7aeef373b1a3b43d0c1311142ca3136d34e24735f31c8a4737c",
      "blockNumber": "0x731c86",
      "gasUsed": "0xfd3f",
      "effectiveGasPrice": "0x1034a327d",
      "from": "0xc77f7fed3b5cc8249adc428c5f44c9063b9734b4",
      "to": "0x8aafd3ede9adb0ff97c7aebce82a919afb1c8764",
      "contractAddress": null
    }
  ],
  "libraries": [],
  "pending": [],
  "returns": {},
  "timestamp": 1737511717,
  "chain": 11155111,
  "commit": "1d2fb70"
}