{
  "transactions": [
    {
      "hash": "0xfeaf81a9e6148aec1b411b00a7cb9083d3d945bd335c2f999ff64bc887055a51",
      "transactionType": "CALL",
      "contractName": null,
      "contractAddress": "0x8aafd3ede9adb0ff97c7aebce82a919afb1c8764",
      "function": "sell(uint256)",
      "arguments": [
        "740785398257717085341"
      ],
      "transaction": {
        "from": "0xc77f7fed3b5cc8249adc428c5f44c9063b9734b4",
        "to": "0x8aafd3ede9adb0ff97c7aebce82a919afb1c8764",
        "gas": "0x17270",
        "value": "0x0",
        "input": "0xe4849b3200000000000000000000000000000000000000000000002828766addbb80049d",
        "nonce": "0xfa3",
        "chainId": "0xaa36a7"
      },
      "additionalContracts": [],
      "isFixedGasLimit": false
    }
  ],
  "receipts": [
    {
      "status": "0x1",
      "cumulativeGasUsed": "0xce8fbb",
      "logs": [
        {
          "address": "0x8aafd3ede9adb0ff97c7aebce82a919afb1c8764",
          "topics": [
            "0xddf252ad1be2c89b69c2b068fc378daa952ba7f163c4a11628f55a4df523b3ef",
            "0x000000000000000000000000c77f7fed3b5cc8249adc428c5f44c9063b9734b4",
            "0x0000000000000000000000000000000000000000000000000000000000000000"
          ],
          "data": "0x000000000000000000000000000000000000000000000027d63807b50beb89b3",
          "blockHash": "0x5285146ae89c8edc02d02e6ec5e65eb3d0352a51def8bfc4ceb9825e2cde9b1d",
          "blockNumber": "0x73160b",
          "transactionHash": "0xfeaf81a9e6148aec1b411b00a7cb9083d3d945bd335c2f999ff64bc887055a51",
          "transactionIndex": "0x8d",
          "logIndex": "0xf2",
          "removed": false
        },
        {
          "address": "0x8aafd3ede9adb0ff97c7aebce82a919afb1c8764",
          "topics": [
            "0xddf252ad1be2c89b69c2b068fc378daa952ba7f163c4a11628f55a4df523b3ef",
            "0x000000000000000000000000c77f7fed3b5cc8249adc428c5f44c9063b9734b4",
            "0x000000000000000000000000c77f7fed3b5cc8249adc428c5f44c9063b9734b4"
          ],
          "data": "0x000000000000000000000000000000000000000000000000523e6328af947aea",
          "blockHash": "0x5285146ae89c8edc02d02e6ec5e65eb3d0352a51def8bfc4ceb9825e2cde9b1d",
          "blockNumber": "0x73160b",
          "transactionHash": "0xfeaf81a9e6148aec1b411b00a7cb9083d3d945bd335c2f999ff64bc887055a51",
          "transactionIndex": "0x8d",
          "logIndex": "0xf3",
          "removed": false
        },
        {
          "address": "0x8aafd3ede9adb0ff97c7aebce82a919afb1c8764",
          "topics": [
            "0x4afcb4a87cdbd9974efdb92ee48bc8d7cd0ae4bf217004db3d080cbaee652ca7"
          ],
          "data": "0x00000000000000000000000000000000000000000000000000000000679005300000000000000000000000000000000000000000000000000004c37ab769fedb0000000000000000000000000000000000000000000000000dc821318ea3b51d",
          "blockHash": "0x5285146ae89c8edc02d02e6ec5e65eb3d0352a51def8bfc4ceb9825e2cde9b1d",
          "blockNumber": "0x73160b",
          "transactionHash": "0xfeaf81a9e6148aec1b411b00a7cb9083d3d945bd335c2f999ff64bc887055a51",
          "transactionIndex": "0x8d",
          "logIndex": "0xf4",
          "removed": false
        }
      ],
      "logsBloom": "0x00000000000000000000000000000000000000000600000000000000000000000000000000000000000000000000000000000000000000004000000000000000000000000000004000000008000000000000000000000000000000000000000000000000020000000000000000000800020000000000000000000010000000000000000000000000000000000000000000000000000000000000010000000000000000000000000000000000000000004000000000000000000000000000000000000002000000800000000000000000000000000000080000000000000020000000000000000000000000000000000000000000000000000000000000000000",
      "type": "0x2",
      "transactionHash": "0xfeaf81a9e6148aec1b411b00a7cb9083d3d945bd335c2f999ff64bc887055a51",
      "transactionIndex": "0x8d",
      "blockHash": "0x5285146ae89c8edc02d02e6ec5e65eb3d0352a51def8bfc4ceb9825e2cde9b1d",
      "blockNumber": "0x73160b",
      "gasUsed": "0xfd4b",
      "effectiveGasPrice": "0x5ca500ce",
      "from": "0xc77f7fed3b5cc8249adc428c5f44c9063b9734b4",
      "to": "0x8aafd3ede9adb0ff97c7aebce82a919afb1c8764",
      "contractAddress": null
    }
  ],
  "libraries": [],
  "pending": [],
  "returns": {},
  "timestamp": 1737491762,
  "chain": 11155111,
  "commit": "1d2fb70"
}