{
  "transactions": [
    {
      "hash": "0x48eb8686647ae1cb8079aa01fc1c89df8f1a63bcda822857335c5dc71fb79ef2",
      "transactionType": "CALL",
      "contractName": null,
      "contractAddress": "0x8aafd3ede9adb0ff97c7aebce82a919afb1c8764",
      "function": "sell(uint256)",
      "arguments": [
        "609919877510"
      ],
      "transaction": {
        "from": "0xc77f7fed3b5cc8249adc428c5f44c9063b9734b4",
        "to": "0x8aafd3ede9adb0ff97c7aebce82a919afb1c8764",
        "gas": "0x1722a",
        "value": "0x0",
        "input": "0xe4849b320000000000000000000000000000000000000000000000000000008e020ec186",
        "nonce": "0x1743",
        "chainId": "0xaa36a7"
      },
      "additionalContracts": [],
      "isFixedGasLimit": false
    }
  ],
  "receipts": [
    {
      "status": "0x1",
      "cumulativeGasUsed": "0x10c9ea7",
      "logs": [
        {
          "address": "0x8aafd3ede9adb0ff97c7aebce82a919afb1c8764",
          "topics": [
            "0xddf252ad1be2c89b69c2b068fc378daa952ba7f163c4a11628f55a4df523b3ef",
            "0x000000000000000000000000c77f7fed3b5cc8249adc428c5f44c9063b9734b4",
            "0x0000000000000000000000000000000000000000000000000000000000000000"
          ],
          "data": "0x0000000000000000000000000000000000000000000000000000008cdf39a55a",
          "blockHash": "0xbfd65cf6463dbface6de7df98a64eeac2463c69dc8fff23390fbf280855c6b59",
          "blockNumber": "0x731f0f",
          "transactionHash": "0x48eb8686647ae1cb8079aa01fc1c89df8f1a63bcda822857335c5dc71fb79ef2",
          "transactionIndex": "0x70",
          "logIndex": "0xd3",
          "removed": false
        },
        {
          "address": "0x8aafd3ede9adb0ff97c7aebce82a919afb1c8764",
          "topics": [
            "0xddf252ad1be2c89b69c2b068fc378daa952ba7f163c4a11628f55a4df523b3ef",
            "0x000000000000000000000000c77f7fed3b5cc8249adc428c5f44c9063b9734b4",
            "0x000000000000000000000000c77f7fed3b5cc8249adc428c5f44c9063b9734b4"
          ],
          "data": "0x0000000000000000000000000000000000000000000000000000000122d51c2c",
          "blockHash": "0xbfd65cf6463dbface6de7df98a64eeac2463c69dc8fff23390fbf280855c6b59",
          "blockNumber": "0x731f0f",
          "transactionHash": "0x48eb8686647ae1cb8079aa01fc1c89df8f1a63bcda822857335c5dc71fb79ef2",
          "transactionIndex": "0x70",
          "logIndex": "0xd4",
          "removed": false
        },
        {
          "address": "0x8aafd3ede9adb0ff97c7aebce82a919afb1c8764",
          "topics": [
            "0x4afcb4a87cdbd9974efdb92ee48bc8d7cd0ae4bf217004db3d080cbaee652ca7"
          ],
          "data": "0x000000000000000000000000000000000000000000000000000000006790719c0000000000000000000000000000000000000000000000000017cc1067b12ed500000000000000000000000000000000000000000000000000000000f3829d56",
          "blockHash": "0xbfd65cf6463dbface6de7df98a64eeac2463c69dc8fff23390fbf280855c6b59",
          "blockNumber": "0x731f0f",
          "transactionHash": "0x48eb8686647ae1cb8079aa01fc1c89df8f1a63bcda822857335c5dc71fb79ef2",
          "transactionIndex": "0x70",
          "logIndex": "0xd5",
          "removed": false
        }
      ],
      "logsBloom": "0x00000000000000000000000000000000000000000600000000000000000000000000000000000000000000000000000000000000000000004000000000000000000000000000004000000008000000000000000000000000000000000000000000000000020000000000000000000800020000000000000000000010000000000000000000000000000000000000000000000000000000000000010000000000000000000000000000000000000000004000000000000000000000000000000000000002000000800000000000000000000000000000080000000000000020000000000000000000000000000000000000000000000000000000000000000000",
      "type": "0x2",
      "transactionHash": "0x48eb8686647ae1cb8079aa01fc1c89df8f1a63bcda822857335c5dc71fb79ef2",
      "transactionIndex": "0x70",
      "blockHash": "0xbfd65cf6463dbface6de7df98a64eeac2463c69dc8fff23390fbf280855c6b59",
      "blockNumber": "0x731f0f",
      "gasUsed": "0xfd1b",
      "effectiveGasPrice": "0x38f69675",
      "from": "0xc77f7fed3b5cc8249adc428c5f44c9063b9734b4",
      "to": "0x8aafd3ede9adb0ff97c7aebce82a919afb1c8764",
      "contractAddress": null
    }
  ],
  "libraries": [],
  "pending": [],
  "returns": {},
  "timestamp": 1737519518,
  "chain": 11155111,
  "commit": "1d2fb70"
}