{
  "transactions": [
    {
      "hash": "0xadb5d3b18062188907574031d6deaae78bd705ff1b9f501b59eb8c68f46d41f6",
      "transactionType": "CALL",
      "contractName": null,
      "contractAddress": "0x8aafd3ede9adb0ff97c7aebce82a919afb1c8764",
      "function": "sell(uint256)",
      "arguments": [
        "4732010438"
      ],
      "transaction": {
        "from": "0xc77f7fed3b5cc8249adc428c5f44c9063b9734b4",
        "to": "0x8aafd3ede9adb0ff97c7aebce82a919afb1c8764",
        "gas": "0x1722a",
        "value": "0x0",
        "input": "0xe4849b32000000000000000000000000000000000000000000000000000000011a0cbfc6",
        "nonce": "0x1783",
        "chainId": "0xaa36a7"
      },
      "additionalContracts": [],
      "isFixedGasLimit": false
    }
  ],
  "receipts": [
    {
      "status": "0x1",
      "cumulativeGasUsed": "0x805b4f",
      "logs": [
        {
          "address": "0x8aafd3ede9adb0ff97c7aebce82a919afb1c8764",
          "topics": [
            "0xddf252ad1be2c89b69c2b068fc378daa952ba7f163c4a11628f55a4df523b3ef",
            "0x000000000000000000000000c77f7fed3b5cc8249adc428c5f44c9063b9734b4",
            "0x0000000000000000000000000000000000000000000000000000000000000000"
          ],
          "data": "0x0000000000000000000000000000000000000000000000000000000117cb1c73",
          "blockHash": "0x36b8e13046cb5e0196d76044797b8919af2502fa2771a055394e6a9a49f0eba0",
          "blockNumber": "0x731f5e",
          "transactionHash": "0xadb5d3b18062188907574031d6deaae78bd705ff1b9f501b59eb8c68f46d41f6",
          "transactionIndex": "0x5e",
          "logIndex": "0x75",
          "removed": false
        },
        {
          "address": "0x8aafd3ede9adb0ff97c7aebce82a919afb1c8764",
          "topics": [
            "0xddf252ad1be2c89b69c2b068fc378daa952ba7f163c4a11628f55a4df523b3ef",
            "0x000000000000000000000000c77f7fed3b5cc8249adc428c5f44c9063b9734b4",
            "0x000000000000000000000000c77f7fed3b5cc8249adc428c5f44c9063b9734b4"
          ],
          "data": "0x000000000000000000000000000000000000000000000000000000000241a353",
          "blockHash": "0x36b8e13046cb5e0196d76044797b8919af2502fa2771a055394e6a9a49f0eba0",
          "blockNumber": "0x731f5e",
          "transactionHash": "0xadb5d3b18062188907574031d6deaae78bd705ff1b9f501b59eb8c68f46d41f6",
          "transactionIndex": "0x5e",
          "logIndex": "0x76",
          "removed": false
        },
        {
          "address": "0x8aafd3ede9adb0ff97c7aebce82a919afb1c8764",
          "topics": [
            "0x4afcb4a87cdbd9974efdb92ee48bc8d7cd0ae4bf217004db3d080cbaee652ca7"
          ],
          "data": "0x0000000000000000000000000000000000000000000000000000000067907550000000000000000000000000000000000000000000000000001888f5227da31a0000000000000000000000000000000000000000000000000000000001f2a51d",
          "blockHash": "0x36b8e13046cb5e0196d76044797b8919af2502fa2771a055394e6a9a49f0eba0",
          "blockNumber": "0x731f5e",
          "transactionHash": "0xadb5d3b18062188907574031d6deaae78bd705ff1b9f501b59eb8c68f46d41f6",
          "transactionIndex": "0x5e",
          "logIndex": "0x77",
          "removed": false
        }
      ],
      "logsBloom": "0x00000000000000000000000000000000000000000600000000000000000000000000000000000000000000000000000000000000000000004000000000000000000000000000004000000008000000000000000000000000000000000000000000000000020000000000000000000800020000000000000000000010000000000000000000000000000000000000000000000000000000000000010000000000000000000000000000000000000000004000000000000000000000000000000000000002000000800000000000000000000000000000080000000000000020000000000000000000000000000000000000000000000000000000000000000000",
      "type": "0x2",
      "transactionHash": "0xadb5d3b18062188907574031d6deaae78bd705ff1b9f501b59eb8c68f46d41f6",
      "transactionIndex": "0x5e",
      "blockHash": "0x36b8e13046cb5e0196d76044797b8919af2502fa2771a055394e6a9a49f0eba0",
      "blockNumber": "0x731f5e",
      "gasUsed": "0xfd1b",
      "effectiveGasPrice": "0x429c5730",
      "from": "0xc77f7fed3b5cc8249adc428c5f44c9063b9734b4",
      "to": "0x8aafd3ede9adb0ff97c7aebce82a919afb1c8764",
      "contractAddress": null
    }
  ],
  "libraries": [],
  "pending": [],
  "returns": {},
  "timestamp": 1737520464,
  "chain": 11155111,
  "commit": "1d2fb70"
}