{
  "transactions": [
    {
      "hash": "0x5b32557efb10e83aae79f328225339a2c142bc40229768271245c89d7d97b93f",
      "transactionType": "CALL",
      "contractName": null,
      "contractAddress": "0x5eb9cc76c3506942c1c0ead70e877dd5e4f00cb0",
      "function": "sell(uint256)",
      "arguments": [
        "989156094634288238857"
      ],
      "transaction": {
        "from": "0xc77f7fed3b5cc8249adc428c5f44c9063b9734b4",
        "to": "0x5eb9cc76c3506942c1c0ead70e877dd5e4f00cb0",
        "gas": "0x16fec",
        "value": "0x0",
        "input": "0xe4849b320000000000000000000000000000000000000000000000359f4c634bd96c5109",
        "nonce": "0x2a1",
        "chainId": "0xaa36a7"
      },
      "additionalContracts": [],
      "isFixedGasLimit": false
    }
  ],
  "receipts": [
    {
      "status": "0x1",
      "cumulativeGasUsed": "0xc76a94",
      "logs": [
        {
          "address": "0x5eb9cc76c3506942c1c0ead70e877dd5e4f00cb0",
          "topics": [
            "0xddf252ad1be2c89b69c2b068fc378daa952ba7f163c4a11628f55a4df523b3ef",
            "0x000000000000000000000000c77f7fed3b5cc8249adc428c5f44c9063b9734b4",
            "0x0000000000000000000000000000000000000000000000000000000000000000"
          ],
          "data": "0x0000000000000000000000000000000000000000000000359f4c634bd96c5109",
          "blockHash": "0x908a18d24398e3cd001f5f347f8e41ba9df289430f4a8fb79cadab9c01547deb",
          "blockNumber": "0x724e77",
          "transactionHash": "0x5b32557efb10e83aae79f328225339a2c142bc40229768271245c89d7d97b93f",
          "transactionIndex": "0x4d",
          "logIndex": "0x9a",
          "removed": false
        },
        {
          "address": "0x5eb9cc76c3506942c1c0ead70e877dd5e4f00cb0",
          "topics": [
            "0x4afcb4a87cdbd9974efdb92ee48bc8d7cd0ae4bf217004db3d080cbaee652ca7"
          ],
          "data": "0x0000000000000000000000000000000000000000000000000000000067869f4800000000000000000000000000000000000000000000000000039108375c34a00000000000000000000000000000000000000000000000000dc7db13324b42ea",
          "blockHash": "0x908a18d24398e3cd001f5f347f8e41ba9df289430f4a8fb79cadab9c01547deb",
          "blockNumber": "0x724e77",
          "transactionHash": "0x5b32557efb10e83aae79f328225339a2c142bc40229768271245c89d7d97b93f",
          "transactionIndex": "0x4d",
          "logIndex": "0x9b",
          "removed": false
        }
      ],
      "logsBloom": "0x00000000000000000000000000000000000000000000000000000000000000000000000000000000000000000000000000000000000000004000000000000000000000000000000000000008000000000000000000000000000000000000000000000000020000000000000004000800020000000000000000000010000000000000000000000000000000000000000000000000000000000000010000000000000000000000000000000000000000004000000000000000000000000000020000000002000000800000008000000000000000000000080000000000000020000000000000000000000000000000000000000000000000000000000000000000",
      "type": "0x2",
      "transactionHash": "0x5b32557efb10e83aae79f328225339a2c142bc40229768271245c89d7d97b93f",
      "transactionIndex": "0x4d",
      "blockHash": "0x908a18d24398e3cd001f5f347f8e41ba9df289430f4a8fb79cadab9c01547deb",
      "blockNumber": "0x724e77",
      "gasUsed": "0xfb93",
      "effectiveGasPrice": "0x44a237ca1",
      "from": "0xc77f7fed3b5cc8249adc428c5f44c9063b9734b4",
      "to": "0x5eb9cc76c3506942c1c0ead70e877dd5e4f00cb0",
      "contractAddress": null
    }
  ],
  "libraries": [],
  "pending": [],
  "returns": {},
  "timestamp": 1736875849,
  "chain": 11155111,
  "commit": "51a374b"
}