{
  "transactions": [
    {
      "hash": "0x0e66b7ea64f97db47b66d62cecbd4b7b7690d7ec15e73bbf1cd0226a38b088c2",
      "transactionType": "CALL",
      "contractName": null,
      "contractAddress": "0xbf4a322f1496e5c3d34a9bcdb4c60567b38c7de2",
      "function": "buy(address)",
      "arguments": [
        "0xC77f7fed3b5Cc8249aDc428c5F44C9063B9734b4"
      ],
      "transaction": {
        "from": "0xc77f7fed3b5cc8249adc428c5f44c9063b9734b4",
        "to": "0xbf4a322f1496e5c3d34a9bcdb4c60567b38c7de2",
        "gas": "0x1b309",
        "value": "0xde0b6b3a7640000",
        "input": "0xf088d547000000000000000000000000c77f7fed3b5cc8249adc428c5f44c9063b9734b4",
        "nonce": "0xc7e",
        "chainId": "0xaa36a7"
      },
      "additionalContracts": [],
      "isFixedGasLimit": false
    }
  ],
  "receipts": [
    {
      "status": "0x1",
      "cumulativeGasUsed": "0x9e4c65",
      "logs": [
        {
          "address": "0xbf4a322f1496e5c3d34a9bcdb4c60567b38c7de2",
          "topics": [
            "0xddf252ad1be2c89b69c2b068fc378daa952ba7f163c4a11628f55a4df523b3ef",
            "0x0000000000000000000000000000000000000000000000000000000000000000",
            "0x000000000000000000000000c77f7fed3b5cc8249adc428c5f44c9063b9734b4"
          ],
          "data": "0x000000000000000000000000000000000000000000000034e3fc5887ef8f0c07",
          "blockHash": "0x6fb5c9acb6c04cab80e902028a2c914d900840a1dfab58bf3ad56db544776c61",
          "blockNumber": "0x725cbe",
          "transactionHash": "0x0e66b7ea64f97db47b66d62cecbd4b7b7690d7ec15e73bbf1cd0226a38b088c2",
          "transactionIndex": "0x59",
          "logIndex": "0x7f",
          "removed": false
        },
        {
          "address": "0xbf4a322f1496e5c3d34a9bcdb4c60567b38c7de2",
          "topics": [
            "0xddf252ad1be2c89b69c2b068fc378daa952ba7f163c4a11628f55a4df523b3ef",
            "0x0000000000000000000000000000000000000000000000000000000000000000",
            "0x000000000000000000000000c77f7fed3b5cc8249adc428c5f44c9063b9734b4"
          ],
          "data": "0x000000000000000000000000000000000000000000000000291242c1618d7dc7",
          "blockHash": "0x6fb5c9acb6c04cab80e902028a2c914d900840a1dfab58bf3ad56db544776c61",
          "blockNumber": "0x725cbe",
          "transactionHash": "0x0e66b7ea64f97db47b66d62cecbd4b7b7690d7ec15e73bbf1cd0226a38b088c2",
          "transactionIndex": "0x59",
          "logIndex": "0x80",
          "removed": false
        },
        {
          "address": "0xbf4a322f1496e5c3d34a9bcdb4c60567b38c7de2",
          "topics": [
            "0x4afcb4a87cdbd9974efdb92ee48bc8d7cd0ae4bf217004db3d080cbaee652ca7"
          ],
          "data": "0x0000000000000000000000000000000000000000000000000000000067874b5c00000000000000000000000000000000000000000000000000039adf594a05490000000000000000000000000000000000000000000000000de0b6b3a7640000",
          "blockHash": "0x6fb5c9acb6c04cab80e902028a2c914d900840a1dfab58bf3ad56db544776c61",
          "blockNumber": "0x725cbe",
          "transactionHash": "0x0e66b7ea64f97db47b66d62cecbd4b7b7690d7ec15e73bbf1cd0226a38b088c2",
          "transactionIndex": "0x59",
          "logIndex": "0x81",
          "removed": false
        }
      ],
      "logsBloom": "0x00000000000000000000000000000000000000000000000000000000000000000000000000000000000000000000000000000000000000004000000000000000000000000000000000000008000000000000001000000000000000000000000000000000020000000000000000000800020000000000000000000010000000000000000000000000000000000000000000000000000008000000010000000000000000000000000000000000000000004000000000000000000000000000000000000002000000800000000000001000000000000000080000000000000020000000000000000000000000000000000000000000000000000000000000000000",
      "type": "0x2",
      "transactionHash": "0x0e66b7ea64f97db47b66d62cecbd4b7b7690d7ec15e73bbf1cd0226a38b088c2",
      "transactionIndex": "0x59",
      "blockHash": "0x6fb5c9acb6c04cab80e902028a2c914d900840a1dfab58bf3ad56db544776c61",
      "blockNumber": "0x725cbe",
      "gasUsed": "0x13af6",
      "effectiveGasPrice": "0x2a87217f0",
      "from": "0xc77f7fed3b5cc8249adc428c5f44c9063b9734b4",
      "to": "0xbf4a322f1496e5c3d34a9bcdb4c60567b38c7de2",
      "contractAddress": null
    }
  ],
  "libraries": [],
  "pending": [],
  "returns": {},
  "timestamp": 1736919903,
  "chain": 11155111,
  "commit": "51a374b"
}