{
  "transactions": [
    {
      "hash": "0xdf13d8f560a9ffb31f630f833fa38f881194a19f298d1054ece9f5b57ffa0206",
      "transactionType": "CALL",
      "contractName": null,
      "contractAddress": "0x8aafd3ede9adb0ff97c7aebce82a919afb1c8764",
      "function": "sell(uint256)",
      "arguments": [
        "21776200641"
      ],
      "transaction": {
        "from": "0xc77f7fed3b5cc8249adc428c5f44c9063b9734b4",
        "to": "0x8aafd3ede9adb0ff97c7aebce82a919afb1c8764",
        "gas": "0x1722a",
        "value": "0x0",
        "input": "0xe4849b320000000000000000000000000000000000000000000000000000000511f673c1",
        "nonce": "0x12da",
        "chainId": "0xaa36a7"
      },
      "additionalContracts": [],
      "isFixedGasLimit": false
    }
  ],
  "receipts": [
    {
      "status": "0x1",
      "cumulativeGasUsed": "0x21e6795",
      "logs": [
        {
          "address": "0x8aafd3ede9adb0ff97c7aebce82a919afb1c8764",
          "topics": [
            "0xddf252ad1be2c89b69c2b068fc378daa952ba7f163c4a11628f55a4df523b3ef",
            "0x000000000000000000000000c77f7fed3b5cc8249adc428c5f44c9063b9734b4",
            "0x0000000000000000000000000000000000000000000000000000000000000000"
          ],
          "data": "0x000000000000000000000000000000000000000000000000000000050794397c",
          "blockHash": "0xd1449663026d7d71722e659c5235494f5ab43f5605c39ca8bb8c9c4ac6fe9d90",
          "blockNumber": "0x7319da",
          "transactionHash": "0xdf13d8f560a9ffb31f630f833fa38f881194a19f298d1054ece9f5b57ffa0206",
          "transactionIndex": "0x57",
          "logIndex": "0x10f1",
          "removed": false
        },
        {
          "address": "0x8aafd3ede9adb0ff97c7aebce82a919afb1c8764",
          "topics": [
            "0xddf252ad1be2c89b69c2b068fc378daa952ba7f163c4a11628f55a4df523b3ef",
            "0x000000000000000000000000c77f7fed3b5cc8249adc428c5f44c9063b9734b4",
            "0x000000000000000000000000c77f7fed3b5cc8249adc428c5f44c9063b9734b4"
          ],
          "data": "0x000000000000000000000000000000000000000000000000000000000a623a45",
          "blockHash": "0xd1449663026d7d71722e659c5235494f5ab43f5605c39ca8bb8c9c4ac6fe9d90",
          "blockNumber": "0x7319da",
          "transactionHash": "0xdf13d8f560a9ffb31f630f833fa38f881194a19f298d1054ece9f5b57ffa0206",
          "transactionIndex": "0x57",
          "logIndex": "0x10f2",
          "removed": false
        },
        {
          "address": "0x8aafd3ede9adb0ff97c7aebce82a919afb1c8764",
          "topics": [
            "0x4afcb4a87cdbd9974efdb92ee48bc8d7cd0ae4bf217004db3d080cbaee652ca7"
          ],
          "data": "0x0000000000000000000000000000000000000000000000000000000067903308000000000000000000000000000000000000000000000000000550735e5f9e220000000000000000000000000000000000000000000000000000000001f10852",
          "blockHash": "0xd1449663026d7d71722e659c5235494f5ab43f5605c39ca8bb8c9c4ac6fe9d90",
          "blockNumber": "0x7319da",
          "transactionHash": "0xdf13d8f560a9ffb31f630f833fa38f881194a19f298d1054ece9f5b57ffa0206",
          "transactionIndex": "0x57",
          "logIndex": "0x10f3",
          "removed": false
        }
      ],
      "logsBloom": "0x00000000000000000000000000000000000000000600000000000000000000000000000000000000000000000000000000000000000000004000000000000000000000000000004000000008000000000000000000000000000000000000000000000000020000000000000000000800020000000000000000000010000000000000000000000000000000000000000000000000000000000000010000000000000000000000000000000000000000004000000000000000000000000000000000000002000000800000000000000000000000000000080000000000000020000000000000000000000000000000000000000000000000000000000000000000",
      "type": "0x2",
      "transactionHash": "0xdf13d8f560a9ffb31f630f833fa38f881194a19f298d1054ece9f5b57ffa0206",
      "transactionIndex": "0x57",
      "blockHash": "0xd1449663026d7d71722e659c5235494f5ab43f5605c39ca8bb8c9c4ac6fe9d90",
      "blockNumber": "0x7319da",
      "gasUsed": "0xfd1b",
      "effectiveGasPrice": "0x3c3a372d",
      "from": "0xc77f7fed3b5cc8249adc428c5f44c9063b9734b4",
      "to": "0x8aafd3ede9adb0ff97c7aebce82a919afb1c8764",
      "contractAddress": null
    }
  ],
  "libraries": [],
  "pending": [],
  "returns": {},
  "timestamp": 1737503497,
  "chain": 11155111,
  "commit": "1d2fb70"
}