{
  "transactions": [
    {
      "hash": "0xe5b5b1d8084388bbd7564a6201cf9c14ee8027c9ec505fa3d836654c7df523e4",
      "transactionType": "CALL",
      "contractName": null,
      "contractAddress": "0xbf4a322f1496e5c3d34a9bcdb4c60567b38c7de2",
      "function": "buy(address)",
      "arguments": [
        "0xC77f7fed3b5Cc8249aDc428c5F44C9063B9734b4"
      ],
      "transaction": {
        "from": "0xc77f7fed3b5cc8249adc428c5f44c9063b9734b4",
        "to": "0xbf4a322f1496e5c3d34a9bcdb4c60567b38c7de2",
        "gas": "0x1b309",
        "value": "0xde0b6b3a7640000",
        "input": "0xf088d547000000000000000000000000c77f7fed3b5cc8249adc428c5f44c9063b9734b4",
        "nonce": "0xadc",
        "chainId": "0xaa36a7"
      },
      "additionalContracts": [],
      "isFixedGasLimit": false
    }
  ],
  "receipts": [
    {
      "status": "0x1",
      "cumulativeGasUsed": "0x8e8984",
      "logs": [
        {
          "address": "0xbf4a322f1496e5c3d34a9bcdb4c60567b38c7de2",
          "topics": [
            "0xddf252ad1be2c89b69c2b068fc378daa952ba7f163c4a11628f55a4df523b3ef",
            "0x0000000000000000000000000000000000000000000000000000000000000000",
            "0x000000000000000000000000c77f7fed3b5cc8249adc428c5f44c9063b9734b4"
          ],
          "data": "0x00000000000000000000000000000000000000000000003531dcece8d404711c",
          "blockHash": "0xb70a09596c3582be09f3c86df14312e89c98bdc3eea9fac11a1353a60cc0a9dc",
          "blockNumber": "0x725acf",
          "transactionHash": "0xe5b5b1d8084388bbd7564a6201cf9c14ee8027c9ec505fa3d836654c7df523e4",
          "transactionIndex": "0x50",
          "logIndex": "0x8d",
          "removed": false
        },
        {
          "address": "0xbf4a322f1496e5c3d34a9bcdb4c60567b38c7de2",
          "topics": [
            "0xddf252ad1be2c89b69c2b068fc378daa952ba7f163c4a11628f55a4df523b3ef",
            "0x0000000000000000000000000000000000000000000000000000000000000000",
            "0x000000000000000000000000c77f7fed3b5cc8249adc428c5f44c9063b9734b4"
          ],
          "data": "0x000000000000000000000000000000000000000000000000294ebc30827ac894",
          "blockHash": "0xb70a09596c3582be09f3c86df14312e89c98bdc3eea9fac11a1353a60cc0a9dc",
          "blockNumber": "0x725acf",
          "transactionHash": "0xe5b5b1d8084388bbd7564a6201cf9c14ee8027c9ec505fa3d836654c7df523e4",
          "transactionIndex": "0x50",
          "logIndex": "0x8e",
          "removed": false
        },
        {
          "address": "0xbf4a322f1496e5c3d34a9bcdb4c60567b38c7de2",
          "topics": [
            "0x4afcb4a87cdbd9974efdb92ee48bc8d7cd0ae4bf217004db3d080cbaee652ca7"
          ],
          "data": "0x000000000000000000000000000000000000000000000000000000006787340400000000000000000000000000000000000000000000000000039598465f946a0000000000000000000000000000000000000000000000000de0b6b3a7640000",
          "blockHash": "0xb70a09596c3582be09f3c86df14312e89c98bdc3eea9fac11a1353a60cc0a9dc",
          "blockNumber": "0x725acf",
          "transactionHash": "0xe5b5b1d8084388bbd7564a6201cf9c14ee8027c9ec505fa3d836654c7df523e4",
          "transactionIndex": "0x50",
          "logIndex": "0x8f",
          "removed": false
        }
      ],
      "logsBloom": "0x00000000000000000000000000000000000000000000000000000000000000000000000000000000000000000000000000000000000000004000000000000000000000000000000000000008000000000000001000000000000000000000000000000000020000000000000000000800020000000000000000000010000000000000000000000000000000000000000000000000000008000000010000000000000000000000000000000000000000004000000000000000000000000000000000000002000000800000000000001000000000000000080000000000000020000000000000000000000000000000000000000000000000000000000000000000",
      "type": "0x2",
      "transactionHash": "0xe5b5b1d8084388bbd7564a6201cf9c14ee8027c9ec505fa3d836654c7df523e4",
      "transactionIndex": "0x50",
      "blockHash": "0xb70a09596c3582be09f3c86df14312e89c98bdc3eea9fac11a1353a60cc0a9dc",
      "blockNumber": "0x725acf",
      "gasUsed": "0x13af6",
      "effectiveGasPrice": "0xda670111",
      "from": "0xc77f7fed3b5cc8249adc428c5f44c9063b9734b4",
      "to": "0xbf4a322f1496e5c3d34a9bcdb4c60567b38c7de2",
      "contractAddress": null
    }
  ],
  "libraries": [],
  "pending": [],
  "returns": {},
  "timestamp": 1736913925,
  "chain": 11155111,
  "commit": "51a374b"
}