{
  "transactions": [
    {
      "hash": "0x6978a96c5c495a5adb6c78f0a58bfc458f6bf677df23eae5d4fcd92aea93148d",
      "transactionType": "CALL",
      "contractName": null,
      "contractAddress": "0x8aafd3ede9adb0ff97c7aebce82a919afb1c8764",
      "function": "sell(uint256)",
      "arguments": [
        "1877069408974602193"
      ],
      "transaction": {
        "from": "0xc77f7fed3b5cc8249adc428c5f44c9063b9734b4",
        "to": "0x8aafd3ede9adb0ff97c7aebce82a919afb1c8764",
        "gas": "0x15dca",
        "value": "0x0",
        "input": "0xe4849b320000000000000000000000000000000000000000000000001a0cb0aeacaeffd1",
        "nonce": "0x1455",
        "chainId": "0xaa36a7"
      },
      "additionalContracts": [],
      "isFixedGasLimit": false
    }
  ],
  "receipts": [
    {
      "status": "0x1",
      "cumulativeGasUsed": "0x76eca5",
      "logs": [
        {
          "address": "0x8aafd3ede9adb0ff97c7aebce82a919afb1c8764",
          "topics": [
            "0xddf252ad1be2c89b69c2b068fc378daa952ba7f163c4a11628f55a4df523b3ef",
            "0x000000000000000000000000c77f7fed3b5cc8249adc428c5f44c9063b9734b4",
            "0x0000000000000000000000000000000000000000000000000000000000000000"
          ],
          "data": "0x00000000000000000000000000000000000000000000000019d7573471f54780",
          "blockHash": "0x0ca7f3e3127ea2cc5f1a1269af088b811ef014d7394723888d236440bf79a062",
          "blockNumber": "0x731b9c",
          "transactionHash": "0x6978a96c5c495a5adb6c78f0a58bfc458f6bf677df23eae5d4fcd92aea93148d",
          "transactionIndex": "0x4c",
          "logIndex": "0x86",
          "removed": false
        },
        {
          "address": "0x8aafd3ede9adb0ff97c7aebce82a919afb1c8764",
          "topics": [
            "0xddf252ad1be2c89b69c2b068fc378daa952ba7f163c4a11628f55a4df523b3ef",
            "0x000000000000000000000000c77f7fed3b5cc8249adc428c5f44c9063b9734b4",
            "0x000000000000000000000000c77f7fed3b5cc8249adc428c5f44c9063b9734b4"
          ],
          "data": "0x0000000000000000000000000000000000000000000000000035597a3ab9b851",
          "blockHash": "0x0ca7f3e3127ea2cc5f1a1269af088b811ef014d7394723888d236440bf79a062",
          "blockNumber": "0x731b9c",
          "transactionHash": "0x6978a96c5c495a5adb6c78f0a58bfc458f6bf677df23eae5d4fcd92aea93148d",
          "transactionIndex": "0x4c",
          "logIndex": "0x87",
          "removed": false
        },
        {
          "address": "0x8aafd3ede9adb0ff97c7aebce82a919afb1c8764",
          "topics": [
            "0x4afcb4a87cdbd9974efdb92ee48bc8d7cd0ae4bf217004db3d080cbaee652ca7"
          ],
          "data": "0x000000000000000000000000000000000000000000000000000000006790482c000000000000000000000000000000000000000000000000000f237a63fa2734000000000000000000000000000000000000000000000000001c6a3d935506f8",
          "blockHash": "0x0ca7f3e3127ea2cc5f1a1269af088b811ef014d7394723888d236440bf79a062",
          "blockNumber": "0x731b9c",
          "transactionHash": "0x6978a96c5c495a5adb6c78f0a58bfc458f6bf677df23eae5d4fcd92aea93148d",
          "transactionIndex": "0x4c",
          "logIndex": "0x88",
          "removed": false
        }
      ],
      "logsBloom": "0x00000000000000000000000000000000000000000600000000000000000000000000000000000000000000000000000000000000000000004000000000000000000000000000004000000008000000000000000000000000000000000000000000000000020000000000000000000800020000000000000000000010000000000000000000000000000000000000000000000000000000000000010000000000000000000000000000000000000000004000000000000000000000000000000000000002000000800000000000000000000000000000080000000000000020000000000000000000000000000000000000000000000000000000000000000000",
      "type": "0x2",
      "transactionHash": "0x6978a96c5c495a5adb6c78f0a58bfc458f6bf677df23eae5d4fcd92aea93148d",
      "transactionIndex": "0x4c",
      "blockHash": "0x0ca7f3e3127ea2cc5f1a1269af088b811ef014d7394723888d236440bf79a062",
      "blockNumber": "0x731b9c",
      "gasUsed": "0xfd3f",
      "effectiveGasPrice": "0x114744b7d",
      "from": "0xc77f7fed3b5cc8249adc428c5f44c9063b9734b4",
      "to": "0x8aafd3ede9adb0ff97c7aebce82a919afb1c8764",
      "contractAddress": null
    }
  ],
  "libraries": [],
  "pending": [],
  "returns": {},
  "timestamp": 1737508909,
  "chain": 11155111,
  "commit": "1d2fb70"
}