{
  "transactions": [
    {
      "hash": "0xed513cc37de8eeac46e5bd6b075a57ffa1cb5dd2b81d3ba6733e0fd9482ff738",
      "transactionType": "CALL",
      "contractName": null,
      "contractAddress": "0xbf4a322f1496e5c3d34a9bcdb4c60567b38c7de2",
      "function": "sell(uint256)",
      "arguments": [
        "979932152724043737150"
      ],
      "transaction": {
        "from": "0xc77f7fed3b5cc8249adc428c5f44c9063b9734b4",
        "to": "0xbf4a322f1496e5c3d34a9bcdb4c60567b38c7de2",
        "gas": "0x16fea",
        "value": "0x0",
        "input": "0xe4849b320000000000000000000000000000000000000000000000351f4a5cffdc76283e",
        "nonce": "0xc1d",
        "chainId": "0xaa36a7"
      },
      "additionalContracts": [],
      "isFixedGasLimit": false
    }
  ],
  "receipts": [
    {
      "status": "0x1",
      "cumulativeGasUsed": "0xc9fdea",
      "logs": [
        {
          "address": "0xbf4a322f1496e5c3d34a9bcdb4c60567b38c7de2",
          "topics": [
            "0xddf252ad1be2c89b69c2b068fc378daa952ba7f163c4a11628f55a4df523b3ef",
            "0x000000000000000000000000c77f7fed3b5cc8249adc428c5f44c9063b9734b4",
            "0x0000000000000000000000000000000000000000000000000000000000000000"
          ],
          "data": "0x0000000000000000000000000000000000000000000000351f4a5cffdc76283e",
          "blockHash": "0x95a69affbd868a64e25ff3ae57e89cb1868ec9e8a2f7ae197713fa435f7cb481",
          "blockNumber": "0x725c4a",
          "transactionHash": "0xed513cc37de8eeac46e5bd6b075a57ffa1cb5dd2b81d3ba6733e0fd9482ff738",
          "transactionIndex": "0x61",
          "logIndex": "0xc1",
          "removed": false
        },
        {
          "address": "0xbf4a322f1496e5c3d34a9bcdb4c60567b38c7de2",
          "topics": [
            "0x4afcb4a87cdbd9974efdb92ee48bc8d7cd0ae4bf217004db3d080cbaee652ca7"
          ],
          "data": "0x00000000000000000000000000000000000000000000000000000000678745d4000000000000000000000000000000000000000000000000000399a6b9c574d30000000000000000000000000000000000000000000000000dc7e3e1e8983b2c",
          "blockHash": "0x95a69affbd868a64e25ff3ae57e89cb1868ec9e8a2f7ae197713fa435f7cb481",
          "blockNumber": "0x725c4a",
          "transactionHash": "0xed513cc37de8eeac46e5bd6b075a57ffa1cb5dd2b81d3ba6733e0fd9482ff738",
          "transactionIndex": "0x61",
          "logIndex": "0xc2",
          "removed": false
        }
      ],
      "logsBloom": "0x00000000000000000000000000000000000000000000000000000000000000000000000000000000000000000000000000000000000000004000000000000000000000000000000000000008000000000000001000000000000000000000000000000000020000000000000000000800020000000000000000000010000000000000000000000000000000000000000000000000000008000000010000000000000000000000000000000000000000004000000000000000000000000000000000000002000000800000000000001000000000000000080000000000000020000000000000000000000000000000000000000000000000000000000000000000",
      "type": "0x2",
      "transactionHash": "0xed513cc37de8eeac46e5bd6b075a57ffa1cb5dd2b81d3ba6733e0fd9482ff738",
      "transactionIndex": "0x61",
      "blockHash": "0x95a69affbd868a64e25ff3ae57e89cb1868ec9e8a2f7ae197713fa435f7cb481",
      "blockNumber": "0x725c4a",
      "gasUsed": "0xfb91",
      "effectiveGasPrice": "0x1437bc7c3",
      "from": "0xc77f7fed3b5cc8249adc428c5f44c9063b9734b4",
      "to": "0xbf4a322f1496e5c3d34a9bcdb4c60567b38c7de2",
      "contractAddress": null
    }
  ],
  "libraries": [],
  "pending": [],
  "returns": {},
  "timestamp": 1736918486,
  "chain": 11155111,
  "commit": "51a374b"
}