{
  "transactions": [
    {
      "hash": "0x169323b04920ad258752d0b1b8f3be4935854d7569dbf59d140d6575359815e8",
      "transactionType": "CALL",
      "contractName": null,
      "contractAddress": "0x5eb9cc76c3506942c1c0ead70e877dd5e4f00cb0",
      "function": "buy(address)",
      "arguments": [
        "0xC77f7fed3b5Cc8249aDc428c5F44C9063B9734b4"
      ],
      "transaction": {
        "from": "0xc77f7fed3b5cc8249adc428c5f44c9063b9734b4",
        "to": "0x5eb9cc76c3506942c1c0ead70e877dd5e4f00cb0",
        "gas": "0x156c8",
        "value": "0xde0b6b3a7640000",
        "input": "0xf088d547000000000000000000000000c77f7fed3b5cc8249adc428c5f44c9063b9734b4",
        "nonce": "0x201",
        "chainId": "0xaa36a7"
      },
      "additionalContracts": [],
      "isFixedGasLimit": false
    }
  ],
  "receipts": [
    {
      "status": "0x1",
      "cumulativeGasUsed": "0x18b1b24",
      "logs": [
        {
          "address": "0x5eb9cc76c3506942c1c0ead70e877dd5e4f00cb0",
          "topics": [
            "0xddf252ad1be2c89b69c2b068fc378daa952ba7f163c4a11628f55a4df523b3ef",
            "0x0000000000000000000000000000000000000000000000000000000000000000",
            "0x000000000000000000000000c77f7fed3b5cc8249adc428c5f44c9063b9734b4"
          ],
          "data": "0x00000000000000000000000000000000000000000000003584bc9a12f3e18420",
          "blockHash": "0x9c174a975170df5887c2014e1adf57154180efd6ce6b40afae99cf6cd1e245b1",
          "blockNumber": "0x724b1c",
          "transactionHash": "0x169323b04920ad258752d0b1b8f3be4935854d7569dbf59d140d6575359815e8",
          "transactionIndex": "0x88",
          "logIndex": "0xfd",
          "removed": false
        },
        {
          "address": "0x5eb9cc76c3506942c1c0ead70e877dd5e4f00cb0",
          "topics": [
            "0xddf252ad1be2c89b69c2b068fc378daa952ba7f163c4a11628f55a4df523b3ef",
            "0x0000000000000000000000000000000000000000000000000000000000000000",
            "0x000000000000000000000000c77f7fed3b5cc8249adc428c5f44c9063b9734b4"
          ],
          "data": "0x000000000000000000000000000000000000000000000000298f16e2ca3824e5",
          "blockHash": "0x9c174a975170df5887c2014e1adf57154180efd6ce6b40afae99cf6cd1e245b1",
          "blockNumber": "0x724b1c",
          "transactionHash": "0x169323b04920ad258752d0b1b8f3be4935854d7569dbf59d140d6575359815e8",
          "transactionIndex": "0x88",
          "logIndex": "0xfe",
          "removed": false
        },
        {
          "address": "0x5eb9cc76c3506942c1c0ead70e877dd5e4f00cb0",
          "topics": [
            "0x4afcb4a87cdbd9974efdb92ee48bc8d7cd0ae4bf217004db3d080cbaee652ca7"
          ],
          "data": "0x00000000000000000000000000000000000000000000000000000000678676f800000000000000000000000000000000000000000000000000039009162658d90000000000000000000000000000000000000000000000000de0b6b3a7640000",
          "blockHash": "0x9c174a975170df5887c2014e1adf57154180efd6ce6b40afae99cf6cd1e245b1",
          "blockNumber": "0x724b1c",
          "transactionHash": "0x169323b04920ad258752d0b1b8f3be4935854d7569dbf59d140d6575359815e8",
          "transactionIndex": "0x88",
          "logIndex": "0xff",
          "removed": false
        }
      ],
      "logsBloom": "0x00000000000000000000000000000000000000000000000000000000000000000000000000000000000000000000000000000000000000004000000000000000000000000000000000000008000000000000000000000000000000000000000000000000020000000000000004000800020000000000000000000010000000000000000000000000000000000000000000000000000000000000010000000000000000000000000000000000000000004000000000000000000000000000020000000002000000800000008000000000000000000000080000000000000020000000000000000000000000000000000000000000000000000000000000000000",
      "type": "0x2",
      "transactionHash": "0x169323b04920ad258752d0b1b8f3be4935854d7569dbf59d140d6575359815e8",
      "transactionIndex": "0x88",
      "blockHash": "0x9c174a975170df5887c2014e1adf57154180efd6ce6b40afae99cf6cd1e245b1",
      "blockNumber": "0x724b1c",
      "gasUsed": "0xf82c",
      "effectiveGasPrice": "0x541ed001e",
      "from": "0xc77f7fed3b5cc8249adc428c5f44c9063b9734b4",
      "to": "0x5eb9cc76c3506942c1c0ead70e877dd5e4f00cb0",
      "contractAddress": null
    }
  ],
  "libraries": [],
  "pending": [],
  "returns": {},
  "timestamp": 1736865529,
  "chain": 11155111,
  "commit": "51a374b"
}