{
  "transactions": [
    {
      "hash": "0x667fd8dfdf67f0514655e24adea39224c1272e3f93127a1da0416732f1132a82",
      "transactionType": "CALL",
      "contractName": null,
      "contractAddress": "0x8aafd3ede9adb0ff97c7aebce82a919afb1c8764",
      "function": "sell(uint256)",
      "arguments": [
        "12566"
      ],
      "transaction": {
        "from": "0xc77f7fed3b5cc8249adc428c5f44c9063b9734b4",
        "to": "0x8aafd3ede9adb0ff97c7aebce82a919afb1c8764",
        "gas": "0x14e4c",
        "value": "0x0",
        "input": "0xe4849b320000000000000000000000000000000000000000000000000000000000003116",
        "nonce": "0xe86",
        "chainId": "0xaa36a7"
      },
      "additionalContracts": [],
      "isFixedGasLimit": false
    }
  ],
  "receipts": [
    {
      "status": "0x1",
      "cumulativeGasUsed": "0x15bc4f1",
      "logs": [
        {
          "address": "0x8aafd3ede9adb0ff97c7aebce82a919afb1c8764",
          "topics": [
            "0xddf252ad1be2c89b69c2b068fc378daa952ba7f163c4a11628f55a4df523b3ef",
            "0x000000000000000000000000c77f7fed3b5cc8249adc428c5f44c9063b9734b4",
            "0x0000000000000000000000000000000000000000000000000000000000000000"
          ],
          "data": "0x00000000000000000000000000000000000000000000000000000000000030b2",
          "blockHash": "0x789974c4ee13900ba61f8ea67a4824b6f4670105676c31f784f36f234f58a502",
          "blockNumber": "0x7313e3",
          "transactionHash": "0x667fd8dfdf67f0514655e24adea39224c1272e3f93127a1da0416732f1132a82",
          "transactionIndex": "0xd6",
          "logIndex": "0x136",
          "removed": false
        },
        {
          "address": "0x8aafd3ede9adb0ff97c7aebce82a919afb1c8764",
          "topics": [
            "0xddf252ad1be2c89b69c2b068fc378daa952ba7f163c4a11628f55a4df523b3ef",
            "0x000000000000000000000000c77f7fed3b5cc8249adc428c5f44c9063b9734b4",
            "0x000000000000000000000000c77f7fed3b5cc8249adc428c5f44c9063b9734b4"
          ],
          "data": "0x0000000000000000000000000000000000000000000000000000000000000064",
          "blockHash": "0x789974c4ee13900ba61f8ea67a4824b6f4670105676c31f784f36f234f58a502",
          "blockNumber": "0x7313e3",
          "transactionHash": "0x667fd8dfdf67f0514655e24adea39224c1272e3f93127a1da0416732f1132a82",
          "transactionIndex": "0xd6",
          "logIndex": "0x137",
          "removed": false
        },
        {
          "address": "0x8aafd3ede9adb0ff97c7aebce82a919afb1c8764",
          "topics": [
            "0x4afcb4a87cdbd9974efdb92ee48bc8d7cd0ae4bf217004db3d080cbaee652ca7"
          ],
          "data": "0x00000000000000000000000000000000000000000000000000000000678feb380000000000000000000000000000000000000000000000000004b61edc0cf9ee0000000000000000000000000000000000000000000000000000000000000010",
          "blockHash": "0x789974c4ee13900ba61f8ea67a4824b6f4670105676c31f784f36f234f58a502",
          "blockNumber": "0x7313e3",
          "transactionHash": "0x667fd8dfdf67f0514655e24adea39224c1272e3f93127a1da0416732f1132a82",
          "transactionIndex": "0xd6",
          "logIndex": "0x138",
          "removed": false
        }
      ],
      "logsBloom": "0x00000000000000000000000000000000000000000600000000000000000000000000000000000000000000000000000000000000000000004000000000000000000000000000004000000008000000000000000000000000000000000000000000000000020000000000000000000800020000000000000000000010000000000000000000000000000000000000000000000000000000000000010000000000000000000000000000000000000000004000000000000000000000000000000000000002000000800000000000000000000000000000080000000000000020000000000000000000000000000000000000000000000000000000000000000000",
      "type": "0x2",
      "transactionHash": "0x667fd8dfdf67f0514655e24adea39224c1272e3f93127a1da0416732f1132a82",
      "transactionIndex": "0xd6",
      "blockHash": "0x789974c4ee13900ba61f8ea67a4824b6f4670105676c31f784f36f234f58a502",
      "blockNumber": "0x7313e3",
      "gasUsed": "0xf207",
      "effectiveGasPrice": "0x6f41bdec",
      "from": "0xc77f7fed3b5cc8249adc428c5f44c9063b9734b4",
      "to": "0x8aafd3ede9adb0ff97c7aebce82a919afb1c8764",
      "contractAddress": null
    }
  ],
  "libraries": [],
  "pending": [],
  "returns": {},
  "timestamp": 1737485114,
  "chain": 11155111,
  "commit": "51a374b"
}