{
  "transactions": [
    {
      "hash": "0x15bfca63ed7a09f4e07ec799067b7a88830fd4a52c23df9347f258c726a7a3a9",
      "transactionType": "CALL",
      "contractName": null,
      "contractAddress": "0x8aafd3ede9adb0ff97c7aebce82a919afb1c8764",
      "function": "sell(uint256)",
      "arguments": [
        "147194900045645"
      ],
      "transaction": {
        "from": "0xc77f7fed3b5cc8249adc428c5f44c9063b9734b4",
        "to": "0x8aafd3ede9adb0ff97c7aebce82a919afb1c8764",
        "gas": "0x15daa",
        "value": "0x0",
        "input": "0xe4849b32000000000000000000000000000000000000000000000000000085df7bbadf4d",
        "nonce": "0x1364",
        "chainId": "0xaa36a7"
      },
      "additionalContracts": [],
      "isFixedGasLimit": false
    }
  ],
  "receipts": [
    {
      "status": "0x1",
      "cumulativeGasUsed": "0x10eb700",
      "logs": [
        {
          "address": "0x8aafd3ede9adb0ff97c7aebce82a919afb1c8764",
          "topics": [
            "0xddf252ad1be2c89b69c2b068fc378daa952ba7f163c4a11628f55a4df523b3ef",
            "0x000000000000000000000000c77f7fed3b5cc8249adc428c5f44c9063b9734b4",
            "0x0000000000000000000000000000000000000000000000000000000000000000"
          ],
          "data": "0x000000000000000000000000000000000000000000000000000084cd4fbb6ce0",
          "blockHash": "0xbd97f7b72eac93dc271ad74faccc44b906ca6dac5bb3ca006679f5d8f08da1e5",
          "blockNumber": "0x731a84",
          "transactionHash": "0x15bfca63ed7a09f4e07ec799067b7a88830fd4a52c23df9347f258c726a7a3a9",
          "transactionIndex": "0x8f",
          "logIndex": "0xc2",
          "removed": false
        },
        {
          "address": "0x8aafd3ede9adb0ff97c7aebce82a919afb1c8764",
          "topics": [
            "0xddf252ad1be2c89b69c2b068fc378daa952ba7f163c4a11628f55a4df523b3ef",
            "0x000000000000000000000000c77f7fed3b5cc8249adc428c5f44c9063b9734b4",
            "0x000000000000000000000000c77f7fed3b5cc8249adc428c5f44c9063b9734b4"
          ],
          "data": "0x000000000000000000000000000000000000000000000000000001122bff726d",
          "blockHash": "0xbd97f7b72eac93dc271ad74faccc44b906ca6dac5bb3ca006679f5d8f08da1e5",
          "blockNumber": "0x731a84",
          "transactionHash": "0x15bfca63ed7a09f4e07ec799067b7a88830fd4a52c23df9347f258c726a7a3a9",
          "transactionIndex": "0x8f",
          "logIndex": "0xc3",
          "removed": false
        },
        {
          "address": "0x8aafd3ede9adb0ff97c7aebce82a919afb1c8764",
          "topics": [
            "0x4afcb4a87cdbd9974efdb92ee48bc8d7cd0ae4bf217004db3d080cbaee652ca7"
          ],
          "data": "0x0000000000000000000000000000000000000000000000000000000067903b00000000000000000000000000000000000000000000000000000c5f7b57949981000000000000000000000000000000000000000000000000000000775b51a4f6",
          "blockHash": "0xbd97f7b72eac93dc271ad74faccc44b906ca6dac5bb3ca006679f5d8f08da1e5",
          "blockNumber": "0x731a84",
          "transactionHash": "0x15bfca63ed7a09f4e07ec799067b7a88830fd4a52c23df9347f258c726a7a3a9",
          "transactionIndex": "0x8f",
          "logIndex": "0xc4",
          "removed": false
        }
      ],
      "logsBloom": "0x00000000000000000000000000000000000000000600000000000000000000000000000000000000000000000000000000000000000000004000000000000000000000000000004000000008000000000000000000000000000000000000000000000000020000000000000000000800020000000000000000000010000000000000000000000000000000000000000000000000000000000000010000000000000000000000000000000000000000004000000000000000000000000000000000000002000000800000000000000000000000000000080000000000000020000000000000000000000000000000000000000000000000000000000000000000",
      "type": "0x2",
      "transactionHash": "0x15bfca63ed7a09f4e07ec799067b7a88830fd4a52c23df9347f258c726a7a3a9",
      "transactionIndex": "0x8f",
      "blockHash": "0xbd97f7b72eac93dc271ad74faccc44b906ca6dac5bb3ca006679f5d8f08da1e5",
      "blockNumber": "0x731a84",
      "gasUsed": "0xfd27",
      "effectiveGasPrice": "0x4e375c2a",
      "from": "0xc77f7fed3b5cc8249adc428c5f44c9063b9734b4",
      "to": "0x8aafd3ede9adb0ff97c7aebce82a919afb1c8764",
      "contractAddress": null
    }
  ],
  "libraries": [],
  "pending": [],
  "returns": {},
  "timestamp": 1737505538,
  "chain": 11155111,
  "commit": "1d2fb70"
}