{
  "transactions": [
    {
      "hash": "0x115b761e4196cd9ab86c58fb1709c5c32d200f628051518eaccac76d73f6726a",
      "transactionType": "CALL",
      "contractName": null,
      "contractAddress": "0x8aafd3ede9adb0ff97c7aebce82a919afb1c8764",
      "function": "sell(uint256)",
      "arguments": [
        "47410265488493893"
      ],
      "transaction": {
        "from": "0xc77f7fed3b5cc8249adc428c5f44c9063b9734b4",
        "to": "0x8aafd3ede9adb0ff97c7aebce82a919afb1c8764",
        "gas": "0x1724d",
        "value": "0x0",
        "input": "0xe4849b3200000000000000000000000000000000000000000000000000a86f62a1260d45",
        "nonce": "0xfa5",
        "chainId": "0xaa36a7"
      },
      "additionalContracts": [],
      "isFixedGasLimit": false
    }
  ],
  "receipts": [
    {
      "status": "0x1",
      "cumulativeGasUsed": "0xddff4a",
      "logs": [
        {
          "address": "0x8aafd3ede9adb0ff97c7aebce82a919afb1c8764",
          "topics": [
            "0xddf252ad1be2c89b69c2b068fc378daa952ba7f163c4a11628f55a4df523b3ef",
            "0x000000000000000000000000c77f7fed3b5cc8249adc428c5f44c9063b9734b4",
            "0x0000000000000000000000000000000000000000000000000000000000000000"
          ],
          "data": "0x00000000000000000000000000000000000000000000000000a7166e20e229d6",
          "blockHash": "0x9c73ec3de6db6f065b8a5bc0c913245f6adf957f2f32c3523c272588918529a9",
          "blockNumber": "0x73160d",
          "transactionHash": "0x115b761e4196cd9ab86c58fb1709c5c32d200f628051518eaccac76d73f6726a",
          "transactionIndex": "0x8d",
          "logIndex": "0x9a",
          "removed": false
        },
        {
          "address": "0x8aafd3ede9adb0ff97c7aebce82a919afb1c8764",
          "topics": [
            "0xddf252ad1be2c89b69c2b068fc378daa952ba7f163c4a11628f55a4df523b3ef",
            "0x000000000000000000000000c77f7fed3b5cc8249adc428c5f44c9063b9734b4",
            "0x000000000000000000000000c77f7fed3b5cc8249adc428c5f44c9063b9734b4"
          ],
          "data": "0x000000000000000000000000000000000000000000000000000158f48043e36f",
          "blockHash": "0x9c73ec3de6db6f065b8a5bc0c913245f6adf957f2f32c3523c272588918529a9",
          "blockNumber": "0x73160d",
          "transactionHash": "0x115b761e4196cd9ab86c58fb1709c5c32d200f628051518eaccac76d73f6726a",
          "transactionIndex": "0x8d",
          "logIndex": "0x9b",
          "removed": false
        },
        {
          "address": "0x8aafd3ede9adb0ff97c7aebce82a919afb1c8764",
          "topics": [
            "0x4afcb4a87cdbd9974efdb92ee48bc8d7cd0ae4bf217004db3d080cbaee652ca7"
          ],
          "data": "0x00000000000000000000000000000000000000000000000000000000679005480000000000000000000000000000000000000000000000000004c37b31a996f4000000000000000000000000000000000000000000000000000039d0e0a86813",
          "blockHash": "0x9c73ec3de6db6f065b8a5bc0c913245f6adf957f2f32c3523c272588918529a9",
          "blockNumber": "0x73160d",
          "transactionHash": "0x115b761e4196cd9ab86c58fb1709c5c32d200f628051518eaccac76d73f6726a",
          "transactionIndex": "0x8d",
          "logIndex": "0x9c",
          "removed": false
        }
      ],
      "logsBloom": "0x00000000000000000000000000000000000000000600000000000000000000000000000000000000000000000000000000000000000000004000000000000000000000000000004000000008000000000000000000000000000000000000000000000000020000000000000000000800020000000000000000000010000000000000000000000000000000000000000000000000000000000000010000000000000000000000000000000000000000004000000000000000000000000000000000000002000000800000000000000000000000000000080000000000000020000000000000000000000000000000000000000000000000000000000000000000",
      "type": "0x2",
      "transactionHash": "0x115b761e4196cd9ab86c58fb1709c5c32d200f628051518eaccac76d73f6726a",
      "transactionIndex": "0x8d",
      "blockHash": "0x9c73ec3de6db6f065b8a5bc0c913245f6adf957f2f32c3523c272588918529a9",
      "blockNumber": "0x73160d",
      "gasUsed": "0xfd33",
      "effectiveGasPrice": "0x57bb8f92",
      "from": "0xc77f7fed3b5cc8249adc428c5f44c9063b9734b4",
      "to": "0x8aafd3ede9adb0ff97c7aebce82a919afb1c8764",
      "contractAddress": null
    }
  ],
  "libraries": [],
  "pending": [],
  "returns": {},
  "timestamp": 1737491786,
  "chain": 11155111,
  "commit": "1d2fb70"
}