{
  "transactions": [
    {
      "hash": "0x7fe271296767ef6135035995c2f8bf3a1becaa3847bb39e726133e51125e650e",
      "transactionType": "CALL",
      "contractName": null,
      "contractAddress": "0x270e88f8683660553e8ba4eb2ad7c91a1710d769",
      "function": "buy(address)",
      "arguments": [
        "0xC77f7fed3b5Cc8249aDc428c5F44C9063B9734b4"
      ],
      "transaction": {
        "from": "0xc77f7fed3b5cc8249adc428c5f44c9063b9734b4",
        "to": "0x270e88f8683660553e8ba4eb2ad7c91a1710d769",
        "gas": "0x1b30c",
        "value": "0xde0b6b3a7640000",
        "input": "0xf088d547000000000000000000000000c77f7fed3b5cc8249adc428c5f44c9063b9734b4",
        "nonce": "0x7a9",
        "chainId": "0xaa36a7"
      },
      "additionalContracts": [],
      "isFixedGasLimit": false
    }
  ],
  "receipts": [
    {
      "status": "0x1",
      "cumulativeGasUsed": "0x80aa82",
      "logs": [
        {
          "address": "0x270e88f8683660553e8ba4eb2ad7c91a1710d769",
          "topics": [
            "0xddf252ad1be2c89b69c2b068fc378daa952ba7f163c4a11628f55a4df523b3ef",
            "0x0000000000000000000000000000000000000000000000000000000000000000",
            "0x000000000000000000000000c77f7fed3b5cc8249adc428c5f44c9063b9734b4"
          ],
          "data": "0x000000000000000000000000000000000000000000000027782b359ac9b99102",
          "blockHash": "0x5cd5e7b88aff5ecd281b13343c58c028602da4baabc5b84c4e9e5547355abcc4",
          "blockNumber": "0x7254dd",
          "transactionHash": "0x7fe271296767ef6135035995c2f8bf3a1becaa3847bb39e726133e51125e650e",
          "transactionIndex": "0x54",
          "logIndex": "0xae",
          "removed": false
        },
        {
          "address": "0x270e88f8683660553e8ba4eb2ad7c91a1710d769",
          "topics": [
            "0xddf252ad1be2c89b69c2b068fc378daa952ba7f163c4a11628f55a4df523b3ef",
            "0x0000000000000000000000000000000000000000000000000000000000000000",
            "0x000000000000000000000000c77f7fed3b5cc8249adc428c5f44c9063b9734b4"
          ],
          "data": "0x0000000000000000000000000000000000000000000000001ea63b51a7fa719c",
          "blockHash": "0x5cd5e7b88aff5ecd281b13343c58c028602da4baabc5b84c4e9e5547355abcc4",
          "blockNumber": "0x7254dd",
          "transactionHash": "0x7fe271296767ef6135035995c2f8bf3a1becaa3847bb39e726133e51125e650e",
          "transactionIndex": "0x54",
          "logIndex": "0xaf",
          "removed": false
        },
        {
          "address": "0x270e88f8683660553e8ba4eb2ad7c91a1710d769",
          "topics": [
            "0x4afcb4a87cdbd9974efdb92ee48bc8d7cd0ae4bf217004db3d080cbaee652ca7"
          ],
          "data": "0x000000000000000000000000000000000000000000000000000000006786ec640000000000000000000000000000000000000000000000000004d4c7370fb7bc0000000000000000000000000000000000000000000000000de0b6b3a7640000",
          "blockHash": "0x5cd5e7b88aff5ecd281b13343c58c028602da4baabc5b84c4e9e5547355abcc4",
          "blockNumber": "0x7254dd",
          "transactionHash": "0x7fe271296767ef6135035995c2f8bf3a1becaa3847bb39e726133e51125e650e",
          "transactionIndex": "0x54",
          "logIndex": "0xb0",
          "removed": false
        }
      ],
      "logsBloom": "0x00000000000000000000000000000000000000000000000000000000000000000000000000000000000000000000000020000000000000004000000000000000000000000000000000000008000000000000000000000000000000000000000000000000020000000000000000000800020000000000000000000010000000000000000000010000000000000000000000000000000000000000010000000000000000000000000000000000000000004000000000000000000000000000000000000002000000800000000000000000000000000000080000008000000020000000000000000000000000000000000000000000000000000000000000000000",
      "type": "0x2",
      "transactionHash": "0x7fe271296767ef6135035995c2f8bf3a1becaa3847bb39e726133e51125e650e",
      "transactionIndex": "0x54",
      "blockHash": "0x5cd5e7b88aff5ecd281b13343c58c028602da4baabc5b84c4e9e5547355abcc4",
      "blockNumber": "0x7254dd",
      "gasUsed": "0x13af8",
      "effectiveGasPrice": "0xeabe729b",
      "from": "0xc77f7fed3b5cc8249adc428c5f44c9063b9734b4",
      "to": "0x270e88f8683660553e8ba4eb2ad7c91a1710d769",
      "contractAddress": null
    }
  ],
  "libraries": [],
  "pending": [],
  "returns": {},
  "timestamp": 1736895589,
  "chain": 11155111,
  "commit": "51a374b"
}