{
  "transactions": [
    {
      "hash": "0x299b24d256817b6a955c17170849dafb6e88282b1594d1ed351ee53cba225e46",
      "transactionType": "CALL",
      "contractName": null,
      "contractAddress": "0xbf4a322f1496e5c3d34a9bcdb4c60567b38c7de2",
      "function": "buy(address)",
      "arguments": [
        "0xC77f7fed3b5Cc8249aDc428c5F44C9063B9734b4"
      ],
      "transaction": {
        "from": "0xc77f7fed3b5cc8249adc428c5f44c9063b9734b4",
        "to": "0xbf4a322f1496e5c3d34a9bcdb4c60567b38c7de2",
        "gas": "0x1b309",
        "value": "0xde0b6b3a7640000",
        "input": "0xf088d547000000000000000000000000c77f7fed3b5cc8249adc428c5f44c9063b9734b4",
        "nonce": "0xb4c",
        "chainId": "0xaa36a7"
      },
      "additionalContracts": [],
      "isFixedGasLimit": false
    }
  ],
  "receipts": [
    {
      "status": "0x1",
      "cumulativeGasUsed": "0xd5e6a4",
      "logs": [
        {
          "address": "0xbf4a322f1496e5c3d34a9bcdb4c60567b38c7de2",
          "topics": [
            "0xddf252ad1be2c89b69c2b068fc378daa952ba7f163c4a11628f55a4df523b3ef",
            "0x0000000000000000000000000000000000000000000000000000000000000000",
            "0x000000000000000000000000c77f7fed3b5cc8249adc428c5f44c9063b9734b4"
          ],
          "data": "0x0000000000000000000000000000000000000000000000351ce89d6a28d3df29",
          "blockHash": "0xf065696b87b8f41311687d5c4cb1a089e2197dc101e384922b3237b93cffc4cf",
          "blockNumber": "0x725b52",
          "transactionHash": "0x299b24d256817b6a955c17170849dafb6e88282b1594d1ed351ee53cba225e46",
          "transactionIndex": "0x44",
          "logIndex": "0x7d",
          "removed": false
        },
        {
          "address": "0xbf4a322f1496e5c3d34a9bcdb4c60567b38c7de2",
          "topics": [
            "0xddf252ad1be2c89b69c2b068fc378daa952ba7f163c4a11628f55a4df523b3ef",
            "0x0000000000000000000000000000000000000000000000000000000000000000",
            "0x000000000000000000000000c77f7fed3b5cc8249adc428c5f44c9063b9734b4"
          ],
          "data": "0x000000000000000000000000000000000000000000000000293e769e906b5e99",
          "blockHash": "0xf065696b87b8f41311687d5c4cb1a089e2197dc101e384922b3237b93cffc4cf",
          "blockNumber": "0x725b52",
          "transactionHash": "0x299b24d256817b6a955c17170849dafb6e88282b1594d1ed351ee53cba225e46",
          "transactionIndex": "0x44",
          "logIndex": "0x7e",
          "removed": false
        },
        {
          "address": "0xbf4a322f1496e5c3d34a9bcdb4c60567b38c7de2",
          "topics": [
            "0x4afcb4a87cdbd9974efdb92ee48bc8d7cd0ae4bf217004db3d080cbaee652ca7"
          ],
          "data": "0x0000000000000000000000000000000000000000000000000000000067873a340000000000000000000000000000000000000000000000000003970248e512050000000000000000000000000000000000000000000000000de0b6b3a7640000",
          "blockHash": "0xf065696b87b8f41311687d5c4cb1a089e2197dc101e384922b3237b93cffc4cf",
          "blockNumber": "0x725b52",
          "transactionHash": "0x299b24d256817b6a955c17170849dafb6e88282b1594d1ed351ee53cba225e46",
          "transactionIndex": "0x44",
          "logIndex": "0x7f",
          "removed": false
        }
      ],
      "logsBloom": "0x00000000000000000000000000000000000000000000000000000000000000000000000000000000000000000000000000000000000000004000000000000000000000000000000000000008000000000000001000000000000000000000000000000000020000000000000000000800020000000000000000000010000000000000000000000000000000000000000000000000000008000000010000000000000000000000000000000000000000004000000000000000000000000000000000000002000000800000000000001000000000000000080000000000000020000000000000000000000000000000000000000000000000000000000000000000",
      "type": "0x2",
      "transactionHash": "0x299b24d256817b6a955c17170849dafb6e88282b1594d1ed351ee53cba225e46",
      "transactionIndex": "0x44",
      "blockHash": "0xf065696b87b8f41311687d5c4cb1a089e2197dc101e384922b3237b93cffc4cf",
      "blockNumber": "0x725b52",
      "gasUsed": "0x13af6",
      "effectiveGasPrice": "0x4b84113e",
      "from": "0xc77f7fed3b5cc8249adc428c5f44c9063b9734b4",
      "to": "0xbf4a322f1496e5c3d34a9bcdb4c60567b38c7de2",
      "contractAddress": null
    }
  ],
  "libraries": [],
  "pending": [],
  "returns": {},
  "timestamp": 1736915511,
  "chain": 11155111,
  "commit": "51a374b"
}