{
  "transactions": [
    {
      "hash": "0xd4934eb27251203198b4001915df7c0f38f87ac8e9963344966e0a2dbeb49de9",
      "transactionType": "CALL",
      "contractName": null,
      "contractAddress": "0xbf4a322f1496e5c3d34a9bcdb4c60567b38c7de2",
      "function": "buy(address)",
      "arguments": [
        "0xC77f7fed3b5Cc8249aDc428c5F44C9063B9734b4"
      ],
      "transaction": {
        "from": "0xc77f7fed3b5cc8249adc428c5f44c9063b9734b4",
        "to": "0xbf4a322f1496e5c3d34a9bcdb4c60567b38c7de2",
        "gas": "0x1b309",
        "value": "0xde0b6b3a7640000",
        "input": "0xf088d547000000000000000000000000c77f7fed3b5cc8249adc428c5f44c9063b9734b4",
        "nonce": "0xe1e",
        "chainId": "0xaa36a7"
      },
      "additionalContracts": [],
      "isFixedGasLimit": false
    }
  ],
  "receipts": [
    {
      "status": "0x1",
      "cumulativeGasUsed": "0x12f0fc5",
      "logs": [
        {
          "address": "0xbf4a322f1496e5c3d34a9bcdb4c60567b38c7de2",
          "topics": [
            "0xddf252ad1be2c89b69c2b068fc378daa952ba7f163c4a11628f55a4df523b3ef",
            "0x0000000000000000000000000000000000000000000000000000000000000000",
            "0x000000000000000000000000c77f7fed3b5cc8249adc428c5f44c9063b9734b4"
          ],
          "data": "0x000000000000000000000000000000000000000000000034975c3605ca406d9c",
          "blockHash": "0x179938da82f072c7912ac1cff866927ce609a6d14a92338511d05144eb54e920",
          "blockNumber": "0x726708",
          "transactionHash": "0xd4934eb27251203198b4001915df7c0f38f87ac8e9963344966e0a2dbeb49de9",
          "transactionIndex": "0x65",
          "logIndex": "0xf7",
          "removed": false
        },
        {
          "address": "0xbf4a322f1496e5c3d34a9bcdb4c60567b38c7de2",
          "topics": [
            "0xddf252ad1be2c89b69c2b068fc378daa952ba7f163c4a11628f55a4df523b3ef",
            "0x0000000000000000000000000000000000000000000000000000000000000000",
            "0x000000000000000000000000c77f7fed3b5cc8249adc428c5f44c9063b9734b4"
          ],
          "data": "0x00000000000000000000000000000000000000000000000028d6c22859ca69a5",
          "blockHash": "0x179938da82f072c7912ac1cff866927ce609a6d14a92338511d05144eb54e920",
          "blockNumber": "0x726708",
          "transactionHash": "0xd4934eb27251203198b4001915df7c0f38f87ac8e9963344966e0a2dbeb49de9",
          "transactionIndex": "0x65",
          "logIndex": "0xf8",
          "removed": false
        },
        {
          "address": "0xbf4a322f1496e5c3d34a9bcdb4c60567b38c7de2",
          "topics": [
            "0x4afcb4a87cdbd9974efdb92ee48bc8d7cd0ae4bf217004db3d080cbaee652ca7"
          ],
          "data": "0x000000000000000000000000000000000000000000000000000000006787c7d00000000000000000000000000000000000000000000000000003a01ff64725210000000000000000000000000000000000000000000000000de0b6b3a7640000",
          "blockHash": "0x179938da82f072c7912ac1cff866927ce609a6d14a92338511d05144eb54e920",
          "blockNumber": "0x726708",
          "transactionHash": "0xd4934eb27251203198b4001915df7c0f38f87ac8e9963344966e0a2dbeb49de9",
          "transactionIndex": "0x65",
          "logIndex": "0xf9",
          "removed": false
        }
      ],
      "logsBloom": "0x00000000000000000000000000000000000000000000000000000000000000000000000000000000000000000000000000000000000000004000000000000000000000000000000000000008000000000000001000000000000000000000000000000000020000000000000000000800020000000000000000000010000000000000000000000000000000000000000000000000000008000000010000000000000000000000000000000000000000004000000000000000000000000000000000000002000000800000000000001000000000000000080000000000000020000000000000000000000000000000000000000000000000000000000000000000",
      "type": "0x2",
      "transactionHash": "0xd4934eb27251203198b4001915df7c0f38f87ac8e9963344966e0a2dbeb49de9",
      "transactionIndex": "0x65",
      "blockHash": "0x179938da82f072c7912ac1cff866927ce609a6d14a92338511d05144eb54e920",
      "blockNumber": "0x726708",
      "gasUsed": "0x13af6",
      "effectiveGasPrice": "0x3d56fc0c0",
      "from": "0xc77f7fed3b5cc8249adc428c5f44c9063b9734b4",
      "to": "0xbf4a322f1496e5c3d34a9bcdb4c60567b38c7de2",
      "contractAddress": null
    }
  ],
  "libraries": [],
  "pending": [],
  "returns": {},
  "timestamp": 1736951761,
  "chain": 11155111,
  "commit": "51a374b"
}