{
  "transactions": [
    {
      "hash": "0xc87a9b34618df868916700768072fc9130e03f2c01a3d9e1ec83b03f5a6c101c",
      "transactionType": "CALL",
      "contractName": null,
      "contractAddress": "0xf26ac4b7b4ec1e4e8b09bf33f29023faf4bdf5e0",
      "function": "leverage(uint256,uint256)",
      "arguments": [
        "10000000000000000000",
        "0"
      ],
      "transaction": {
        "from": "0xc77f7fed3b5cc8249adc428c5f44c9063b9734b4",
        "to": "0xf26ac4b7b4ec1e4e8b09bf33f29023faf4bdf5e0",
        "gas": "0x62d8f",
        "value": "0x186cc6acd4b0000",
        "input": "0x5e96263c0000000000000000000000000000000000000000000000008ac7230489e800000000000000000000000000000000000000000000000000000000000000000000",
        "nonce": "0x17ec",
        "chainId": "0xaa36a7"
      },
      "additionalContracts": [],
      "isFixedGasLimit": false
    }
  ],
  "receipts": [
    {
      "status": "0x1",
      "cumulativeGasUsed": "0x13a8dfb",
      "logs": [
        {
          "address": "0xf26ac4b7b4ec1e4e8b09bf33f29023faf4bdf5e0",
          "topics": [
            "0xddf252ad1be2c89b69c2b068fc378daa952ba7f163c4a11628f55a4df523b3ef",
            "0x0000000000000000000000000000000000000000000000000000000000000000",
            "0x000000000000000000000000f26ac4b7b4ec1e4e8b09bf33f29023faf4bdf5e0"
          ],
          "data": "0x00000000000000000000000000000000000000000000002cad9c30b6107d3e11",
          "blockHash": "0x93a65a5dffe48d6c069afa300708c075aff7df29e366b98af9bd95fd9954453c",
          "blockNumber": "0x734b40",
          "transactionHash": "0xc87a9b34618df868916700768072fc9130e03f2c01a3d9e1ec83b03f5a6c101c",
          "transactionIndex": "0xd3",
          "logIndex": "0x103",
          "removed": false
        },
        {
          "address": "0xf26ac4b7b4ec1e4e8b09bf33f29023faf4bdf5e0",
          "topics": [
            "0xddf252ad1be2c89b69c2b068fc378daa952ba7f163c4a11628f55a4df523b3ef",
            "0x0000000000000000000000000000000000000000000000000000000000000000",
            "0x000000000000000000000000c77f7fed3b5cc8249adc428c5f44c9063b9734b4"
          ],
          "data": "0x0000000000000000000000000000000000000000000000002633be0b3e4e8331",
          "blockHash": "0x93a65a5dffe48d6c069afa300708c075aff7df29e366b98af9bd95fd9954453c",
          "blockNumber": "0x734b40",
          "transactionHash": "0xc87a9b34618df868916700768072fc9130e03f2c01a3d9e1ec83b03f5a6c101c",
          "transactionIndex": "0xd3",
          "logIndex": "0x104",
          "removed": false
        },
        {
          "address": "0xf26ac4b7b4ec1e4e8b09bf33f29023faf4bdf5e0",
          "topics": [
            "0xaec00f5213a37254bc68a26b0685d1a5b2bf513e1e587c94c7df7f4a62b56c9c"
          ],
          "data": "0x00000000000000000000000000000000000000000000002cad9c30b6107d3e1100000000000000000000000000000000000000000000000089405699bc9d000000000000000000000000000000000000000000000000000089405699bc9d000000000000000000000000000000000000000000000000002cad9c30b6107d3e11",
          "blockHash": "0x93a65a5dffe48d6c069afa300708c075aff7df29e366b98af9bd95fd9954453c",
          "blockNumber": "0x734b40",
          "transactionHash": "0xc87a9b34618df868916700768072fc9130e03f2c01a3d9e1ec83b03f5a6c101c",
          "transactionIndex": "0xd3",
          "logIndex": "0x105",
          "removed": false
        },
        {
          "address": "0xf26ac4b7b4ec1e4e8b09bf33f29023faf4bdf5e0",
          "topics": [
            "0x4afcb4a87cdbd9974efdb92ee48bc8d7cd0ae4bf217004db3d080cbaee652ca7"
          ],
          "data": "0x0000000000000000000000000000000000000000000000000000000067929378000000000000000000000000000000000000000000000000002a7e09f28ac80d0000000000000000000000000000000000000000000000008ac7230489e80000",
          "blockHash": "0x93a65a5dffe48d6c069afa300708c075aff7df29e366b98af9bd95fd9954453c",
          "blockNumber": "0x734b40",
          "transactionHash": "0xc87a9b34618df868916700768072fc9130e03f2c01a3d9e1ec83b03f5a6c101c",
          "transactionIndex": "0xd3",
          "logIndex": "0x106",
          "removed": false
        }
      ],
      "logsBloom": "0x00000000000000000000000000000000400000000000000000000000000000000000000000000000000000000000000000000000000000004000000000008000000000000000000000000008200000000000000000000000000000800000000000000000020000000000000000000800022000000000000000000010000000000000000000000000000000000000000000000000000000000000010000000000000000000000000000000400000000004000000000000000000000001000000000000002000000800000000000000000000000000000080000000000000220000000000000000000080000000000000000000000000000000000000000000000",
      "type": "0x2",
      "transactionHash": "0xc87a9b34618df868916700768072fc9130e03f2c01a3d9e1ec83b03f5a6c101c",
      "transactionIndex": "0xd3",
      "blockHash": "0x93a65a5dffe48d6c069afa300708c075aff7df29e366b98af9bd95fd9954453c",
      "blockNumber": "0x734b40",
      "gasUsed": "0x43969",
      "effectiveGasPrice": "0x2908446aa",
      "from": "0xc77f7fed3b5cc8249adc428c5f44c9063b9734b4",
      "to": "0xf26ac4b7b4ec1e4e8b09bf33f29023faf4bdf5e0",
      "contractAddress": null
    }
  ],
  "libraries": [],
  "pending": [],
  "returns": {},
  "timestamp": 1737659257,
  "chain": 11155111,
  "commit": "f5162e9"
}