{
  "transactions": [
    {
      "hash": "0xd1844fd525bff1dec8badca6ef9e11ec619e4bb5f77dda085d74a4211e5dc8bd",
      "transactionType": "CALL",
      "contractName": null,
      "contractAddress": "0x8aafd3ede9adb0ff97c7aebce82a919afb1c8764",
      "function": "sell(uint256)",
      "arguments": [
        "1504662"
      ],
      "transaction": {
        "from": "0xc77f7fed3b5cc8249adc428c5f44c9063b9734b4",
        "to": "0x8aafd3ede9adb0ff97c7aebce82a919afb1c8764",
        "gas": "0x16208",
        "value": "0x0",
        "input": "0xe4849b32000000000000000000000000000000000000000000000000000000000016f596",
        "nonce": "0x102a",
        "chainId": "0xaa36a7"
      },
      "additionalContracts": [],
      "isFixedGasLimit": false
    }
  ],
  "receipts": [
    {
      "status": "0x1",
      "cumulativeGasUsed": "0xd53aa7",
      "logs": [
        {
          "address": "0x8aafd3ede9adb0ff97c7aebce82a919afb1c8764",
          "topics": [
            "0xddf252ad1be2c89b69c2b068fc378daa952ba7f163c4a11628f55a4df523b3ef",
            "0x000000000000000000000000c77f7fed3b5cc8249adc428c5f44c9063b9734b4",
            "0x0000000000000000000000000000000000000000000000000000000000000000"
          ],
          "data": "0x000000000000000000000000000000000000000000000000000000000016c691",
          "blockHash": "0xe043e2b6325eba36160ed446a5bc8339b8ab3f22dc781e2dbebe4a64f2a52bd9",
          "blockNumber": "0x7316a4",
          "transactionHash": "0xd1844fd525bff1dec8badca6ef9e11ec619e4bb5f77dda085d74a4211e5dc8bd",
          "transactionIndex": "0x90",
          "logIndex": "0xa5",
          "removed": false
        },
        {
          "address": "0x8aafd3ede9adb0ff97c7aebce82a919afb1c8764",
          "topics": [
            "0xddf252ad1be2c89b69c2b068fc378daa952ba7f163c4a11628f55a4df523b3ef",
            "0x000000000000000000000000c77f7fed3b5cc8249adc428c5f44c9063b9734b4",
            "0x000000000000000000000000c77f7fed3b5cc8249adc428c5f44c9063b9734b4"
          ],
          "data": "0x0000000000000000000000000000000000000000000000000000000000002f05",
          "blockHash": "0xe043e2b6325eba36160ed446a5bc8339b8ab3f22dc781e2dbebe4a64f2a52bd9",
          "blockNumber": "0x7316a4",
          "transactionHash": "0xd1844fd525bff1dec8badca6ef9e11ec619e4bb5f77dda085d74a4211e5dc8bd",
          "transactionIndex": "0x90",
          "logIndex": "0xa6",
          "removed": false
        },
        {
          "address": "0x8aafd3ede9adb0ff97c7aebce82a919afb1c8764",
          "topics": [
            "0x4afcb4a87cdbd9974efdb92ee48bc8d7cd0ae4bf217004db3d080cbaee652ca7"
          ],
          "data": "0x0000000000000000000000000000000000000000000000000000000067900c5c0000000000000000000000000000000000000000000000000004ec35507ed2700000000000000000000000000000000000000000000000000000000000000824",
          "blockHash": "0xe043e2b6325eba36160ed446a5bc8339b8ab3f22dc781e2dbebe4a64f2a52bd9",
          "blockNumber": "0x7316a4",
          "transactionHash": "0xd1844fd525bff1dec8badca6ef9e11ec619e4bb5f77dda085d74a4211e5dc8bd",
          "transactionIndex": "0x90",
          "logIndex": "0xa7",
          "removed": false
        }
      ],
      "logsBloom": "0x00000000000000000000000000000000000000000600000000000000000000000000000000000000000000000000000000000000000000004000000000000000000000000000004000000008000000000000000000000000000000000000000000000000020000000000000000000800020000000000000000000010000000000000000000000000000000000000000000000000000000000000010000000000000000000000000000000000000000004000000000000000000000000000000000000002000000800000000000000000000000000000080000000000000020000000000000000000000000000000000000000000000000000000000000000000",
      "type": "0x2",
      "transactionHash": "0xd1844fd525bff1dec8badca6ef9e11ec619e4bb5f77dda085d74a4211e5dc8bd",
      "transactionIndex": "0x90",
      "blockHash": "0xe043e2b6325eba36160ed446a5bc8339b8ab3f22dc781e2dbebe4a64f2a52bd9",
      "blockNumber": "0x7316a4",
      "gasUsed": "0xf213",
      "effectiveGasPrice": "0x4325983b",
      "from": "0xc77f7fed3b5cc8249adc428c5f44c9063b9734b4",
      "to": "0x8aafd3ede9adb0ff97c7aebce82a919afb1c8764",
      "contractAddress": null
    }
  ],
  "libraries": [],
  "pending": [],
  "returns": {},
  "timestamp": 1737493596,
  "chain": 11155111,
  "commit": "1d2fb70"
}