{
  "transactions": [
    {
      "hash": "0xc7fba00c3ee0c0aa3498f64a3df68fc43704f672a92fdeea87df5a8a3c23308d",
      "transactionType": "CALL",
      "contractName": null,
      "contractAddress": "0x8aafd3ede9adb0ff97c7aebce82a919afb1c8764",
      "function": "sell(uint256)",
      "arguments": [
        "77945516"
      ],
      "transaction": {
        "from": "0xc77f7fed3b5cc8249adc428c5f44c9063b9734b4",
        "to": "0x8aafd3ede9adb0ff97c7aebce82a919afb1c8764",
        "gas": "0x15d88",
        "value": "0x0",
        "input": "0xe4849b320000000000000000000000000000000000000000000000000000000004a55aac",
        "nonce": "0x1343",
        "chainId": "0xaa36a7"
      },
      "additionalContracts": [],
      "isFixedGasLimit": false
    }
  ],
  "receipts": [
    {
      "status": "0x1",
      "cumulativeGasUsed": "0x7bfdde",
      "logs": [
        {
          "address": "0x8aafd3ede9adb0ff97c7aebce82a919afb1c8764",
          "topics": [
            "0xddf252ad1be2c89b69c2b068fc378daa952ba7f163c4a11628f55a4df523b3ef",
            "0x000000000000000000000000c77f7fed3b5cc8249adc428c5f44c9063b9734b4",
            "0x0000000000000000000000000000000000000000000000000000000000000000"
          ],
          "data": "0x00000000000000000000000000000000000000000000000000000000049bd6e0",
          "blockHash": "0xfca3ea25e0e4a6443cbef0b30b96371724c2b40f229247ce341520d32f7eecc0",
          "blockNumber": "0x731a5c",
          "transactionHash": "0xc7fba00c3ee0c0aa3498f64a3df68fc43704f672a92fdeea87df5a8a3c23308d",
          "transactionIndex": "0x6e",
          "logIndex": "0x62",
          "removed": false
        },
        {
          "address": "0x8aafd3ede9adb0ff97c7aebce82a919afb1c8764",
          "topics": [
            "0xddf252ad1be2c89b69c2b068fc378daa952ba7f163c4a11628f55a4df523b3ef",
            "0x000000000000000000000000c77f7fed3b5cc8249adc428c5f44c9063b9734b4",
            "0x000000000000000000000000c77f7fed3b5cc8249adc428c5f44c9063b9734b4"
          ],
          "data": "0x00000000000000000000000000000000000000000000000000000000000983cc",
          "blockHash": "0xfca3ea25e0e4a6443cbef0b30b96371724c2b40f229247ce341520d32f7eecc0",
          "blockNumber": "0x731a5c",
          "transactionHash": "0xc7fba00c3ee0c0aa3498f64a3df68fc43704f672a92fdeea87df5a8a3c23308d",
          "transactionIndex": "0x6e",
          "logIndex": "0x63",
          "removed": false
        },
        {
          "address": "0x8aafd3ede9adb0ff97c7aebce82a919afb1c8764",
          "topics": [
            "0x4afcb4a87cdbd9974efdb92ee48bc8d7cd0ae4bf217004db3d080cbaee652ca7"
          ],
          "data": "0x0000000000000000000000000000000000000000000000000000000067903920000000000000000000000000000000000000000000000000000bf75fc99025b60000000000000000000000000000000000000000000000000000000000040189",
          "blockHash": "0xfca3ea25e0e4a6443cbef0b30b96371724c2b40f229247ce341520d32f7eecc0",
          "blockNumber": "0x731a5c",
          "transactionHash": "0xc7fba00c3ee0c0aa3498f64a3df68fc43704f672a92fdeea87df5a8a3c23308d",
          "transactionIndex": "0x6e",
          "logIndex": "0x64",
          "removed": false
        }
      ],
      "logsBloom": "0x00000000000000000000000000000000000000000600000000000000000000000000000000000000000000000000000000000000000000004000000000000000000000000000004000000008000000000000000000000000000000000000000000000000020000000000000000000800020000000000000000000010000000000000000000000000000000000000000000000000000000000000010000000000000000000000000000000000000000004000000000000000000000000000000000000002000000800000000000000000000000000000080000000000000020000000000000000000000000000000000000000000000000000000000000000000",
      "type": "0x2",
      "transactionHash": "0xc7fba00c3ee0c0aa3498f64a3df68fc43704f672a92fdeea87df5a8a3c23308d",
      "transactionIndex": "0x6e",
      "blockHash": "0xfca3ea25e0e4a6443cbef0b30b96371724c2b40f229247ce341520d32f7eecc0",
      "blockNumber": "0x731a5c",
      "gasUsed": "0xfd0f",
      "effectiveGasPrice": "0x4830a0ac",
      "from": "0xc77f7fed3b5cc8249adc428c5f44c9063b9734b4",
      "to": "0x8aafd3ede9adb0ff97c7aebce82a919afb1c8764",
      "contractAddress": null
    }
  ],
  "libraries": [],
  "pending": [],
  "returns": {},
  "timestamp": 1737505057,
  "chain": 11155111,
  "commit": "1d2fb70"
}