{
  "transactions": [
    {
      "hash": "0xdee88385abcc3fc63aa39f165171b611b3705e0fcfbe1308bebb6e6977eae44e",
      "transactionType": "CALL",
      "contractName": null,
      "contractAddress": "0x270e88f8683660553e8ba4eb2ad7c91a1710d769",
      "function": "buy(address)",
      "arguments": [
        "0xC77f7fed3b5Cc8249aDc428c5F44C9063B9734b4"
      ],
      "transaction": {
        "from": "0xc77f7fed3b5cc8249adc428c5f44c9063b9734b4",
        "to": "0x270e88f8683660553e8ba4eb2ad7c91a1710d769",
        "gas": "0x1b30c",
        "value": "0xde0b6b3a7640000",
        "input": "0xf088d547000000000000000000000000c77f7fed3b5cc8249adc428c5f44c9063b9734b4",
        "nonce": "0x5a4",
        "chainId": "0xaa36a7"
      },
      "additionalContracts": [],
      "isFixedGasLimit": false
    }
  ],
  "receipts": [
    {
      "status": "0x1",
      "cumulativeGasUsed": "0x7a0deb",
      "logs": [
        {
          "address": "0x270e88f8683660553e8ba4eb2ad7c91a1710d769",
          "topics": [
            "0xddf252ad1be2c89b69c2b068fc378daa952ba7f163c4a11628f55a4df523b3ef",
            "0x0000000000000000000000000000000000000000000000000000000000000000",
            "0x000000000000000000000000c77f7fed3b5cc8249adc428c5f44c9063b9734b4"
          ],
          "data": "0x000000000000000000000000000000000000000000000033ee45763e0716ddac",
          "blockHash": "0xbd7be86d322ec42295196785964360f9a18cda8cd0d5718fe63842c7f923873b",
          "blockNumber": "0x72525d",
          "transactionHash": "0xdee88385abcc3fc63aa39f165171b611b3705e0fcfbe1308bebb6e6977eae44e",
          "transactionIndex": "0x4b",
          "logIndex": "0x95",
          "removed": false
        },
        {
          "address": "0x270e88f8683660553e8ba4eb2ad7c91a1710d769",
          "topics": [
            "0xddf252ad1be2c89b69c2b068fc378daa952ba7f163c4a11628f55a4df523b3ef",
            "0x0000000000000000000000000000000000000000000000000000000000000000",
            "0x000000000000000000000000c77f7fed3b5cc8249adc428c5f44c9063b9734b4"
          ],
          "data": "0x000000000000000000000000000000000000000000000000285374853956658b",
          "blockHash": "0xbd7be86d322ec42295196785964360f9a18cda8cd0d5718fe63842c7f923873b",
          "blockNumber": "0x72525d",
          "transactionHash": "0xdee88385abcc3fc63aa39f165171b611b3705e0fcfbe1308bebb6e6977eae44e",
          "transactionIndex": "0x4b",
          "logIndex": "0x96",
          "removed": false
        },
        {
          "address": "0x270e88f8683660553e8ba4eb2ad7c91a1710d769",
          "topics": [
            "0x4afcb4a87cdbd9974efdb92ee48bc8d7cd0ae4bf217004db3d080cbaee652ca7"
          ],
          "data": "0x000000000000000000000000000000000000000000000000000000006786ce4c0000000000000000000000000000000000000000000000000003ac065835db560000000000000000000000000000000000000000000000000de0b6b3a7640000",
          "blockHash": "0xbd7be86d322ec42295196785964360f9a18cda8cd0d5718fe63842c7f923873b",
          "blockNumber": "0x72525d",
          "transactionHash": "0xdee88385abcc3fc63aa39f165171b611b3705e0fcfbe1308bebb6e6977eae44e",
          "transactionIndex": "0x4b",
          "logIndex": "0x97",
          "removed": false
        }
      ],
      "logsBloom": "0x00000000000000000000000000000000000000000000000000000000000000000000000000000000000000000000000020000000000000004000000000000000000000000000000000000008000000000000000000000000000000000000000000000000020000000000000000000800020000000000000000000010000000000000000000010000000000000000000000000000000000000000010000000000000000000000000000000000000000004000000000000000000000000000000000000002000000800000000000000000000000000000080000008000000020000000000000000000000000000000000000000000000000000000000000000000",
      "type": "0x2",
      "transactionHash": "0xdee88385abcc3fc63aa39f165171b611b3705e0fcfbe1308bebb6e6977eae44e",
      "transactionIndex": "0x4b",
      "blockHash": "0xbd7be86d322ec42295196785964360f9a18cda8cd0d5718fe63842c7f923873b",
      "blockNumber": "0x72525d",
      "gasUsed": "0x13af8",
      "effectiveGasPrice": "0x5d6daaeaa",
      "from": "0xc77f7fed3b5cc8249adc428c5f44c9063b9734b4",
      "to": "0x270e88f8683660553e8ba4eb2ad7c91a1710d769",
      "contractAddress": null
    }
  ],
  "libraries": [],
  "pending": [],
  "returns": {},
  "timestamp": 1736887885,
  "chain": 11155111,
  "commit": "51a374b"
}