{
  "transactions": [
    {
      "hash": "0xaf40434adad748716dff7869d191844f15d79c6ef7af696d55cb7c61e8fcba6c",
      "transactionType": "CALL",
      "contractName": null,
      "contractAddress": "0x8aafd3ede9adb0ff97c7aebce82a919afb1c8764",
      "function": "sell(uint256)",
      "arguments": [
        "713364173189426609109"
      ],
      "transaction": {
        "from": "0xc77f7fed3b5cc8249adc428c5f44c9063b9734b4",
        "to": "0x8aafd3ede9adb0ff97c7aebce82a919afb1c8764",
        "gas": "0x17270",
        "value": "0x0",
        "input": "0xe4849b32000000000000000000000000000000000000000000000026abeaa7f34e027bd5",
        "nonce": "0x1055",
        "chainId": "0xaa36a7"
      },
      "additionalContracts": [],
      "isFixedGasLimit": false
    }
  ],
  "receipts": [
    {
      "status": "0x1",
      "cumulativeGasUsed": "0x8a7151",
      "logs": [
        {
          "address": "0x8aafd3ede9adb0ff97c7aebce82a919afb1c8764",
          "topics": [
            "0xddf252ad1be2c89b69c2b068fc378daa952ba7f163c4a11628f55a4df523b3ef",
            "0x000000000000000000000000c77f7fed3b5cc8249adc428c5f44c9063b9734b4",
            "0x0000000000000000000000000000000000000000000000000000000000000000"
          ],
          "data": "0x0000000000000000000000000000000000000000000000265cb7a0767a710e4d",
          "blockHash": "0xe79358b918ecf3b54d9e9f5c1c76f1cb3b066077423d6e1c8558032a286d211f",
          "blockNumber": "0x7316d7",
          "transactionHash": "0xaf40434adad748716dff7869d191844f15d79c6ef7af696d55cb7c61e8fcba6c",
          "transactionIndex": "0x7a",
          "logIndex": "0x8c",
          "removed": false
        },
        {
          "address": "0x8aafd3ede9adb0ff97c7aebce82a919afb1c8764",
          "topics": [
            "0xddf252ad1be2c89b69c2b068fc378daa952ba7f163c4a11628f55a4df523b3ef",
            "0x000000000000000000000000c77f7fed3b5cc8249adc428c5f44c9063b9734b4",
            "0x000000000000000000000000c77f7fed3b5cc8249adc428c5f44c9063b9734b4"
          ],
          "data": "0x0000000000000000000000000000000000000000000000004f33077cd3916d88",
          "blockHash": "0xe79358b918ecf3b54d9e9f5c1c76f1cb3b066077423d6e1c8558032a286d211f",
          "blockNumber": "0x7316d7",
          "transactionHash": "0xaf40434adad748716dff7869d191844f15d79c6ef7af696d55cb7c61e8fcba6c",
          "transactionIndex": "0x7a",
          "logIndex": "0x8d",
          "removed": false
        },
        {
          "address": "0x8aafd3ede9adb0ff97c7aebce82a919afb1c8764",
          "topics": [
            "0x4afcb4a87cdbd9974efdb92ee48bc8d7cd0ae4bf217004db3d080cbaee652ca7"
          ],
          "data": "0x0000000000000000000000000000000000000000000000000000000067900ecc0000000000000000000000000000000000000000000000000004f375e59685df0000000000000000000000000000000000000000000000000dc8fedfaed64ca9",
          "blockHash": "0xe79358b918ecf3b54d9e9f5c1c76f1cb3b066077423d6e1c8558032a286d211f",
          "blockNumber": "0x7316d7",
          "transactionHash": "0xaf40434adad748716dff7869d191844f15d79c6ef7af696d55cb7c61e8fcba6c",
          "transactionIndex": "0x7a",
          "logIndex": "0x8e",
          "removed": false
        }
      ],
      "logsBloom": "0x00000000000000000000000000000000000000000600000000000000000000000000000000000000000000000000000000000000000000004000000000000000000000000000004000000008000000000000000000000000000000000000000000000000020000000000000000000800020000000000000000000010000000000000000000000000000000000000000000000000000000000000010000000000000000000000000000000000000000004000000000000000000000000000000000000002000000800000000000000000000000000000080000000000000020000000000000000000000000000000000000000000000000000000000000000000",
      "type": "0x2",
      "transactionHash": "0xaf40434adad748716dff7869d191844f15d79c6ef7af696d55cb7c61e8fcba6c",
      "transactionIndex": "0x7a",
      "blockHash": "0xe79358b918ecf3b54d9e9f5c1c76f1cb3b066077423d6e1c8558032a286d211f",
      "blockNumber": "0x7316d7",
      "gasUsed": "0xfd4b",
      "effectiveGasPrice": "0x4454a3d0",
      "from": "0xc77f7fed3b5cc8249adc428c5f44c9063b9734b4",
      "to": "0x8aafd3ede9adb0ff97c7aebce82a919afb1c8764",
      "contractAddress": null
    }
  ],
  "libraries": [],
  "pending": [],
  "returns": {},
  "timestamp": 1737494221,
  "chain": 11155111,
  "commit": "1d2fb70"
}