{
  "transactions": [
    {
      "hash": "0x34e5c38653c01f72918f600ca0f8c7038ae8c1c0174d21057c0a94003e592939",
      "transactionType": "CALL",
      "contractName": null,
      "contractAddress": "0xbf4a322f1496e5c3d34a9bcdb4c60567b38c7de2",
      "function": "sell(uint256)",
      "arguments": [
        "973689409951569852469"
      ],
      "transaction": {
        "from": "0xc77f7fed3b5cc8249adc428c5f44c9063b9734b4",
        "to": "0xbf4a322f1496e5c3d34a9bcdb4c60567b38c7de2",
        "gas": "0x16fea",
        "value": "0x0",
        "input": "0xe4849b32000000000000000000000000000000000000000000000034c8a7af85fb04b835",
        "nonce": "0xdf1",
        "chainId": "0xaa36a7"
      },
      "additionalContracts": [],
      "isFixedGasLimit": false
    }
  ],
  "receipts": [
    {
      "status": "0x1",
      "cumulativeGasUsed": "0x91bc29",
      "logs": [
        {
          "address": "0xbf4a322f1496e5c3d34a9bcdb4c60567b38c7de2",
          "topics": [
            "0xddf252ad1be2c89b69c2b068fc378daa952ba7f163c4a11628f55a4df523b3ef",
            "0x000000000000000000000000c77f7fed3b5cc8249adc428c5f44c9063b9734b4",
            "0x0000000000000000000000000000000000000000000000000000000000000000"
          ],
          "data": "0x000000000000000000000000000000000000000000000034c8a7af85fb04b835",
          "blockHash": "0xa3309a29a6dfdc5692841bbb2aa24a8523e03d8f1f669ed187d334f9a0cbb66a",
          "blockNumber": "0x7266d2",
          "transactionHash": "0x34e5c38653c01f72918f600ca0f8c7038ae8c1c0174d21057c0a94003e592939",
          "transactionIndex": "0x3a",
          "logIndex": "0x48",
          "removed": false
        },
        {
          "address": "0xbf4a322f1496e5c3d34a9bcdb4c60567b38c7de2",
          "topics": [
            "0x4afcb4a87cdbd9974efdb92ee48bc8d7cd0ae4bf217004db3d080cbaee652ca7"
          ],
          "data": "0x000000000000000000000000000000000000000000000000000000006787c4e800000000000000000000000000000000000000000000000000039f8f6a31d2160000000000000000000000000000000000000000000000000dc7e3d364d45a9f",
          "blockHash": "0xa3309a29a6dfdc5692841bbb2aa24a8523e03d8f1f669ed187d334f9a0cbb66a",
          "blockNumber": "0x7266d2",
          "transactionHash": "0x34e5c38653c01f72918f600ca0f8c7038ae8c1c0174d21057c0a94003e592939",
          "transactionIndex": "0x3a",
          "logIndex": "0x49",
          "removed": false
        }
      ],
      "logsBloom": "0x00000000000000000000000000000000000000000000000000000000000000000000000000000000000000000000000000000000000000004000000000000000000000000000000000000008000000000000001000000000000000000000000000000000020000000000000000000800020000000000000000000010000000000000000000000000000000000000000000000000000008000000010000000000000000000000000000000000000000004000000000000000000000000000000000000002000000800000000000001000000000000000080000000000000020000000000000000000000000000000000000000000000000000000000000000000",
      "type": "0x2",
      "transactionHash": "0x34e5c38653c01f72918f600ca0f8c7038ae8c1c0174d21057c0a94003e592939",
      "transactionIndex": "0x3a",
      "blockHash": "0xa3309a29a6dfdc5692841bbb2aa24a8523e03d8f1f669ed187d334f9a0cbb66a",
      "blockNumber": "0x7266d2",
      "gasUsed": "0xfb91",
      "effectiveGasPrice": "0x29781e6e2",
      "from": "0xc77f7fed3b5cc8249adc428c5f44c9063b9734b4",
      "to": "0xbf4a322f1496e5c3d34a9bcdb4c60567b38c7de2",
      "contractAddress": null
    }
  ],
  "libraries": [],
  "pending": [],
  "returns": {},
  "timestamp": 1736951017,
  "chain": 11155111,
  "commit": "51a374b"
}