{
  "transactions": [
    {
      "hash": "0xec7723e7c4d14856574580e5d49140861c251ce64d44e2e2296be4b6e0756ad2",
      "transactionType": "CALL",
      "contractName": null,
      "contractAddress": "0x8aafd3ede9adb0ff97c7aebce82a919afb1c8764",
      "function": "sell(uint256)",
      "arguments": [
        "4901145139"
      ],
      "transaction": {
        "from": "0xc77f7fed3b5cc8249adc428c5f44c9063b9734b4",
        "to": "0x8aafd3ede9adb0ff97c7aebce82a919afb1c8764",
        "gas": "0x1722a",
        "value": "0x0",
        "input": "0xe4849b320000000000000000000000000000000000000000000000000000000124218a33",
        "nonce": "0x173b",
        "chainId": "0xaa36a7"
      },
      "additionalContracts": [],
      "isFixedGasLimit": false
    }
  ],
  "receipts": [
    {
      "status": "0x1",
      "cumulativeGasUsed": "0xd8e8f1",
      "logs": [
        {
          "address": "0x8aafd3ede9adb0ff97c7aebce82a919afb1c8764",
          "topics": [
            "0xddf252ad1be2c89b69c2b068fc378daa952ba7f163c4a11628f55a4df523b3ef",
            "0x000000000000000000000000c77f7fed3b5cc8249adc428c5f44c9063b9734b4",
            "0x0000000000000000000000000000000000000000000000000000000000000000"
          ],
          "data": "0x0000000000000000000000000000000000000000000000000000000121cb416a",
          "blockHash": "0x2f9d0ac5ff61c21305145dcdf360c6d4a83c82bcd2c68c20974857e4bdb0a15a",
          "blockNumber": "0x731f06",
          "transactionHash": "0xec7723e7c4d14856574580e5d49140861c251ce64d44e2e2296be4b6e0756ad2",
          "transactionIndex": "0x6e",
          "logIndex": "0xd1",
          "removed": false
        },
        {
          "address": "0x8aafd3ede9adb0ff97c7aebce82a919afb1c8764",
          "topics": [
            "0xddf252ad1be2c89b69c2b068fc378daa952ba7f163c4a11628f55a4df523b3ef",
            "0x000000000000000000000000c77f7fed3b5cc8249adc428c5f44c9063b9734b4",
            "0x000000000000000000000000c77f7fed3b5cc8249adc428c5f44c9063b9734b4"
          ],
          "data": "0x00000000000000000000000000000000000000000000000000000000025648c9",
          "blockHash": "0x2f9d0ac5ff61c21305145dcdf360c6d4a83c82bcd2c68c20974857e4bdb0a15a",
          "blockNumber": "0x731f06",
          "transactionHash": "0xec7723e7c4d14856574580e5d49140861c251ce64d44e2e2296be4b6e0756ad2",
          "transactionIndex": "0x6e",
          "logIndex": "0xd2",
          "removed": false
        },
        {
          "address": "0x8aafd3ede9adb0ff97c7aebce82a919afb1c8764",
          "topics": [
            "0x4afcb4a87cdbd9974efdb92ee48bc8d7cd0ae4bf217004db3d080cbaee652ca7"
          ],
          "data": "0x00000000000000000000000000000000000000000000000000000000679071300000000000000000000000000000000000000000000000000017b11959989efd0000000000000000000000000000000000000000000000000000000001f2b7e6",
          "blockHash": "0x2f9d0ac5ff61c21305145dcdf360c6d4a83c82bcd2c68c20974857e4bdb0a15a",
          "blockNumber": "0x731f06",
          "transactionHash": "0xec7723e7c4d14856574580e5d49140861c251ce64d44e2e2296be4b6e0756ad2",
          "transactionIndex": "0x6e",
          "logIndex": "0xd3",
          "removed": false
        }
      ],
      "logsBloom": "0x00000000000000000000000000000000000000000600000000000000000000000000000000000000000000000000000000000000000000004000000000000000000000000000004000000008000000000000000000000000000000000000000000000000020000000000000000000800020000000000000000000010000000000000000000000000000000000000000000000000000000000000010000000000000000000000000000000000000000004000000000000000000000000000000000000002000000800000000000000000000000000000080000000000000020000000000000000000000000000000000000000000000000000000000000000000",
      "type": "0x2",
      "transactionHash": "0xec7723e7c4d14856574580e5d49140861c251ce64d44e2e2296be4b6e0756ad2",
      "transactionIndex": "0x6e",
      "blockHash": "0x2f9d0ac5ff61c21305145dcdf360c6d4a83c82bcd2c68c20974857e4bdb0a15a",
      "blockNumber": "0x731f06",
      "gasUsed": "0xfd1b",
      "effectiveGasPrice": "0x4038378d",
      "from": "0xc77f7fed3b5cc8249adc428c5f44c9063b9734b4",
      "to": "0x8aafd3ede9adb0ff97c7aebce82a919afb1c8764",
      "contractAddress": null
    }
  ],
  "libraries": [],
  "pending": [],
  "returns": {},
  "timestamp": 1737519409,
  "chain": 11155111,
  "commit": "1d2fb70"
}