{
  "transactions": [
    {
      "hash": "0x8d7f7c8536f148dc9276ad8e463a2a205b70c2e30813304f9465055ad2e045d4",
      "transactionType": "CALL",
      "contractName": null,
      "contractAddress": "0x8aafd3ede9adb0ff97c7aebce82a919afb1c8764",
      "function": "sell(uint256)",
      "arguments": [
        "46684537"
      ],
      "transaction": {
        "from": "0xc77f7fed3b5cc8249adc428c5f44c9063b9734b4",
        "to": "0x8aafd3ede9adb0ff97c7aebce82a919afb1c8764",
        "gas": "0x15d88",
        "value": "0x0",
        "input": "0xe4849b320000000000000000000000000000000000000000000000000000000002c85979",
        "nonce": "0x15f8",
        "chainId": "0xaa36a7"
      },
      "additionalContracts": [],
      "isFixedGasLimit": false
    }
  ],
  "receipts": [
    {
      "status": "0x1",
      "cumulativeGasUsed": "0xbcef30",
      "logs": [
        {
          "address": "0x8aafd3ede9adb0ff97c7aebce82a919afb1c8764",
          "topics": [
            "0xddf252ad1be2c89b69c2b068fc378daa952ba7f163c4a11628f55a4df523b3ef",
            "0x000000000000000000000000c77f7fed3b5cc8249adc428c5f44c9063b9734b4",
            "0x0000000000000000000000000000000000000000000000000000000000000000"
          ],
          "data": "0x0000000000000000000000000000000000000000000000000000000002c2a695",
          "blockHash": "0x41f37a3cac6f4db9f007e48e25ce767c0badd733e2344cc5717fd0556048e98a",
          "blockNumber": "0x731d88",
          "transactionHash": "0x8d7f7c8536f148dc9276ad8e463a2a205b70c2e30813304f9465055ad2e045d4",
          "transactionIndex": "0x56",
          "logIndex": "0x9f",
          "removed": false
        },
        {
          "address": "0x8aafd3ede9adb0ff97c7aebce82a919afb1c8764",
          "topics": [
            "0xddf252ad1be2c89b69c2b068fc378daa952ba7f163c4a11628f55a4df523b3ef",
            "0x000000000000000000000000c77f7fed3b5cc8249adc428c5f44c9063b9734b4",
            "0x000000000000000000000000c77f7fed3b5cc8249adc428c5f44c9063b9734b4"
          ],
          "data": "0x000000000000000000000000000000000000000000000000000000000005b2e4",
          "blockHash": "0x41f37a3cac6f4db9f007e48e25ce767c0badd733e2344cc5717fd0556048e98a",
          "blockNumber": "0x731d88",
          "transactionHash": "0x8d7f7c8536f148dc9276ad8e463a2a205b70c2e30813304f9465055ad2e045d4",
          "transactionIndex": "0x56",
          "logIndex": "0xa0",
          "removed": false
        },
        {
          "address": "0x8aafd3ede9adb0ff97c7aebce82a919afb1c8764",
          "topics": [
            "0x4afcb4a87cdbd9974efdb92ee48bc8d7cd0ae4bf217004db3d080cbaee652ca7"
          ],
          "data": "0x0000000000000000000000000000000000000000000000000000000067905f480000000000000000000000000000000000000000000000000013ea07cacd6390000000000000000000000000000000000000000000000000000000000003fe32",
          "blockHash": "0x41f37a3cac6f4db9f007e48e25ce767c0badd733e2344cc5717fd0556048e98a",
          "blockNumber": "0x731d88",
          "transactionHash": "0x8d7f7c8536f148dc9276ad8e463a2a205b70c2e30813304f9465055ad2e045d4",
          "transactionIndex": "0x56",
          "logIndex": "0xa1",
          "removed": false
        }
      ],
      "logsBloom": "0x00000000000000000000000000000000000000000600000000000000000000000000000000000000000000000000000000000000000000004000000000000000000000000000004000000008000000000000000000000000000000000000000000000000020000000000000000000800020000000000000000000010000000000000000000000000000000000000000000000000000000000000010000000000000000000000000000000000000000004000000000000000000000000000000000000002000000800000000000000000000000000000080000000000000020000000000000000000000000000000000000000000000000000000000000000000",
      "type": "0x2",
      "transactionHash": "0x8d7f7c8536f148dc9276ad8e463a2a205b70c2e30813304f9465055ad2e045d4",
      "transactionIndex": "0x56",
      "blockHash": "0x41f37a3cac6f4db9f007e48e25ce767c0badd733e2344cc5717fd0556048e98a",
      "blockNumber": "0x731d88",
      "gasUsed": "0xfd0f",
      "effectiveGasPrice": "0x69583c1e",
      "from": "0xc77f7fed3b5cc8249adc428c5f44c9063b9734b4",
      "to": "0x8aafd3ede9adb0ff97c7aebce82a919afb1c8764",
      "contractAddress": null
    }
  ],
  "libraries": [],
  "pending": [],
  "returns": {},
  "timestamp": 1737514825,
  "chain": 11155111,
  "commit": "1d2fb70"
}