{
  "transactions": [
    {
      "hash": "0x8ef3172fbcf6a39351b268e3a4e658996f624177741560a4be3dfea70dee5e99",
      "transactionType": "CALL",
      "contractName": null,
      "contractAddress": "0x8aafd3ede9adb0ff97c7aebce82a919afb1c8764",
      "function": "sell(uint256)",
      "arguments": [
        "382589282745603"
      ],
      "transaction": {
        "from": "0xc77f7fed3b5cc8249adc428c5f44c9063b9734b4",
        "to": "0x8aafd3ede9adb0ff97c7aebce82a919afb1c8764",
        "gas": "0x1724d",
        "value": "0x0",
        "input": "0xe4849b3200000000000000000000000000000000000000000000000000015bf6824afd03",
        "nonce": "0xec7",
        "chainId": "0xaa36a7"
      },
      "additionalContracts": [],
      "isFixedGasLimit": false
    }
  ],
  "receipts": [
    {
      "status": "0x1",
      "cumulativeGasUsed": "0xba409f",
      "logs": [
        {
          "address": "0x8aafd3ede9adb0ff97c7aebce82a919afb1c8764",
          "topics": [
            "0xddf252ad1be2c89b69c2b068fc378daa952ba7f163c4a11628f55a4df523b3ef",
            "0x000000000000000000000000c77f7fed3b5cc8249adc428c5f44c9063b9734b4",
            "0x0000000000000000000000000000000000000000000000000000000000000000"
          ],
          "data": "0x0000000000000000000000000000000000000000000000000001592de181af37",
          "blockHash": "0xcbea49ef010e866f2bec92093f39586cb0faaa0a9238bceabf5e527889cdf229",
          "blockNumber": "0x731432",
          "transactionHash": "0x8ef3172fbcf6a39351b268e3a4e658996f624177741560a4be3dfea70dee5e99",
          "transactionIndex": "0x89",
          "logIndex": "0xb9",
          "removed": false
        },
        {
          "address": "0x8aafd3ede9adb0ff97c7aebce82a919afb1c8764",
          "topics": [
            "0xddf252ad1be2c89b69c2b068fc378daa952ba7f163c4a11628f55a4df523b3ef",
            "0x000000000000000000000000c77f7fed3b5cc8249adc428c5f44c9063b9734b4",
            "0x000000000000000000000000c77f7fed3b5cc8249adc428c5f44c9063b9734b4"
          ],
          "data": "0x000000000000000000000000000000000000000000000000000002c8a0c94dcc",
          "blockHash": "0xcbea49ef010e866f2bec92093f39586cb0faaa0a9238bceabf5e527889cdf229",
          "blockNumber": "0x731432",
          "transactionHash": "0x8ef3172fbcf6a39351b268e3a4e658996f624177741560a4be3dfea70dee5e99",
          "transactionIndex": "0x89",
          "logIndex": "0xba",
          "removed": false
        },
        {
          "address": "0x8aafd3ede9adb0ff97c7aebce82a919afb1c8764",
          "topics": [
            "0x4afcb4a87cdbd9974efdb92ee48bc8d7cd0ae4bf217004db3d080cbaee652ca7"
          ],
          "data": "0x00000000000000000000000000000000000000000000000000000000678fef040000000000000000000000000000000000000000000000000004b907cd073ffb000000000000000000000000000000000000000000000000000000766a7848bb",
          "blockHash": "0xcbea49ef010e866f2bec92093f39586cb0faaa0a9238bceabf5e527889cdf229",
          "blockNumber": "0x731432",
          "transactionHash": "0x8ef3172fbcf6a39351b268e3a4e658996f624177741560a4be3dfea70dee5e99",
          "transactionIndex": "0x89",
          "logIndex": "0xbb",
          "removed": false
        }
      ],
      "logsBloom": "0x00000000000000000000000000000000000000000600000000000000000000000000000000000000000000000000000000000000000000004000000000000000000000000000004000000008000000000000000000000000000000000000000000000000020000000000000000000800020000000000000000000010000000000000000000000000000000000000000000000000000000000000010000000000000000000000000000000000000000004000000000000000000000000000000000000002000000800000000000000000000000000000080000000000000020000000000000000000000000000000000000000000000000000000000000000000",
      "type": "0x2",
      "transactionHash": "0x8ef3172fbcf6a39351b268e3a4e658996f624177741560a4be3dfea70dee5e99",
      "transactionIndex": "0x89",
      "blockHash": "0xcbea49ef010e866f2bec92093f39586cb0faaa0a9238bceabf5e527889cdf229",
      "blockNumber": "0x731432",
      "gasUsed": "0xfd33",
      "effectiveGasPrice": "0xa3dd89cf",
      "from": "0xc77f7fed3b5cc8249adc428c5f44c9063b9734b4",
      "to": "0x8aafd3ede9adb0ff97c7aebce82a919afb1c8764",
      "contractAddress": null
    }
  ],
  "libraries": [],
  "pending": [],
  "returns": {},
  "timestamp": 1737486086,
  "chain": 11155111,
  "commit": "51a374b"
}