{
  "transactions": [
    {
      "hash": "0xa2b5ffc713f92f7300db256cbc7f26ae2b9ef8ed51047e6d2da12e39f54c029c",
      "transactionType": "CALL",
      "contractName": null,
      "contractAddress": "0x8aafd3ede9adb0ff97c7aebce82a919afb1c8764",
      "function": "sell(uint256)",
      "arguments": [
        "47889546956930216"
      ],
      "transaction": {
        "from": "0xc77f7fed3b5cc8249adc428c5f44c9063b9734b4",
        "to": "0x8aafd3ede9adb0ff97c7aebce82a919afb1c8764",
        "gas": "0x1724d",
        "value": "0x0",
        "input": "0xe4849b3200000000000000000000000000000000000000000000000000aa234a0ad27ca8",
        "nonce": "0xe9e",
        "chainId": "0xaa36a7"
      },
      "additionalContracts": [],
      "isFixedGasLimit": false
    }
  ],
  "receipts": [
    {
      "status": "0x1",
      "cumulativeGasUsed": "0xd8c608",
      "logs": [
        {
          "address": "0x8aafd3ede9adb0ff97c7aebce82a919afb1c8764",
          "topics": [
            "0xddf252ad1be2c89b69c2b068fc378daa952ba7f163c4a11628f55a4df523b3ef",
            "0x000000000000000000000000c77f7fed3b5cc8249adc428c5f44c9063b9734b4",
            "0x0000000000000000000000000000000000000000000000000000000000000000"
          ],
          "data": "0x00000000000000000000000000000000000000000000000000a8c6d8cf57f897",
          "blockHash": "0x44232602ec689d15e2e99ae67e5754e45e1740efab7858965d904411a69de729",
          "blockNumber": "0x731400",
          "transactionHash": "0xa2b5ffc713f92f7300db256cbc7f26ae2b9ef8ed51047e6d2da12e39f54c029c",
          "transactionIndex": "0x88",
          "logIndex": "0xc3",
          "removed": false
        },
        {
          "address": "0x8aafd3ede9adb0ff97c7aebce82a919afb1c8764",
          "topics": [
            "0xddf252ad1be2c89b69c2b068fc378daa952ba7f163c4a11628f55a4df523b3ef",
            "0x000000000000000000000000c77f7fed3b5cc8249adc428c5f44c9063b9734b4",
            "0x000000000000000000000000c77f7fed3b5cc8249adc428c5f44c9063b9734b4"
          ],
          "data": "0x00000000000000000000000000000000000000000000000000015c713b7a8411",
          "blockHash": "0x44232602ec689d15e2e99ae67e5754e45e1740efab7858965d904411a69de729",
          "blockNumber": "0x731400",
          "transactionHash": "0xa2b5ffc713f92f7300db256cbc7f26ae2b9ef8ed51047e6d2da12e39f54c029c",
          "transactionIndex": "0x88",
          "logIndex": "0xc4",
          "removed": false
        },
        {
          "address": "0x8aafd3ede9adb0ff97c7aebce82a919afb1c8764",
          "topics": [
            "0x4afcb4a87cdbd9974efdb92ee48bc8d7cd0ae4bf217004db3d080cbaee652ca7"
          ],
          "data": "0x00000000000000000000000000000000000000000000000000000000678fecac0000000000000000000000000000000000000000000000000004b75e1e841fac000000000000000000000000000000000000000000000000000039d1fe761083",
          "blockHash": "0x44232602ec689d15e2e99ae67e5754e45e1740efab7858965d904411a69de729",
          "blockNumber": "0x731400",
          "transactionHash": "0xa2b5ffc713f92f7300db256cbc7f26ae2b9ef8ed51047e6d2da12e39f54c029c",
          "transactionIndex": "0x88",
          "logIndex": "0xc5",
          "removed": false
        }
      ],
      "logsBloom": "0x00000000000000000000000000000000000000000600000000000000000000000000000000000000000000000000000000000000000000004000000000000000000000000000004000000008000000000000000000000000000000000000000000000000020000000000000000000800020000000000000000000010000000000000000000000000000000000000000000000000000000000000010000000000000000000000000000000000000000004000000000000000000000000000000000000002000000800000000000000000000000000000080000000000000020000000000000000000000000000000000000000000000000000000000000000000",
      "type": "0x2",
      "transactionHash": "0xa2b5ffc713f92f7300db256cbc7f26ae2b9ef8ed51047e6d2da12e39f54c029c",
      "transactionIndex": "0x88",
      "blockHash": "0x44232602ec689d15e2e99ae67e5754e45e1740efab7858965d904411a69de729",
      "blockNumber": "0x731400",
      "gasUsed": "0xfd33",
      "effectiveGasPrice": "0x7b288b70",
      "from": "0xc77f7fed3b5cc8249adc428c5f44c9063b9734b4",
      "to": "0x8aafd3ede9adb0ff97c7aebce82a919afb1c8764",
      "contractAddress": null
    }
  ],
  "libraries": [],
  "pending": [],
  "returns": {},
  "timestamp": 1737485485,
  "chain": 11155111,
  "commit": "51a374b"
}