{
  "transactions": [
    {
      "hash": "0x0c6ce0466b689aff12c5c1929e9faeeee4915740cf72481896a4bacb17029444",
      "transactionType": "CALL",
      "contractName": null,
      "contractAddress": "0x8aafd3ede9adb0ff97c7aebce82a919afb1c8764",
      "function": "sell(uint256)",
      "arguments": [
        "196155584"
      ],
      "transaction": {
        "from": "0xc77f7fed3b5cc8249adc428c5f44c9063b9734b4",
        "to": "0x8aafd3ede9adb0ff97c7aebce82a919afb1c8764",
        "gas": "0x14e6c",
        "value": "0x0",
        "input": "0xe4849b32000000000000000000000000000000000000000000000000000000000bb118c0",
        "nonce": "0xea2",
        "chainId": "0xaa36a7"
      },
      "additionalContracts": [],
      "isFixedGasLimit": false
    }
  ],
  "receipts": [
    {
      "status": "0x1",
      "cumulativeGasUsed": "0xf4c58f",
      "logs": [
        {
          "address": "0x8aafd3ede9adb0ff97c7aebce82a919afb1c8764",
          "topics": [
            "0xddf252ad1be2c89b69c2b068fc378daa952ba7f163c4a11628f55a4df523b3ef",
            "0x000000000000000000000000c77f7fed3b5cc8249adc428c5f44c9063b9734b4",
            "0x0000000000000000000000000000000000000000000000000000000000000000"
          ],
          "data": "0x000000000000000000000000000000000000000000000000000000000b9926e4",
          "blockHash": "0x152b35ef407ae974cb689b1c668f22994f49fd33987d46922abcf34fe0c016a9",
          "blockNumber": "0x731405",
          "transactionHash": "0x0c6ce0466b689aff12c5c1929e9faeeee4915740cf72481896a4bacb17029444",
          "transactionIndex": "0xa3",
          "logIndex": "0xb0",
          "removed": false
        },
        {
          "address": "0x8aafd3ede9adb0ff97c7aebce82a919afb1c8764",
          "topics": [
            "0xddf252ad1be2c89b69c2b068fc378daa952ba7f163c4a11628f55a4df523b3ef",
            "0x000000000000000000000000c77f7fed3b5cc8249adc428c5f44c9063b9734b4",
            "0x000000000000000000000000c77f7fed3b5cc8249adc428c5f44c9063b9734b4"
          ],
          "data": "0x000000000000000000000000000000000000000000000000000000000017f1dc",
          "blockHash": "0x152b35ef407ae974cb689b1c668f22994f49fd33987d46922abcf34fe0c016a9",
          "blockNumber": "0x731405",
          "transactionHash": "0x0c6ce0466b689aff12c5c1929e9faeeee4915740cf72481896a4bacb17029444",
          "transactionIndex": "0xa3",
          "logIndex": "0xb1",
          "removed": false
        },
        {
          "address": "0x8aafd3ede9adb0ff97c7aebce82a919afb1c8764",
          "topics": [
            "0x4afcb4a87cdbd9974efdb92ee48bc8d7cd0ae4bf217004db3d080cbaee652ca7"
          ],
          "data": "0x00000000000000000000000000000000000000000000000000000000678fece80000000000000000000000000000000000000000000000000004b75e1e86aa5d000000000000000000000000000000000000000000000000000000000003f92f",
          "blockHash": "0x152b35ef407ae974cb689b1c668f22994f49fd33987d46922abcf34fe0c016a9",
          "blockNumber": "0x731405",
          "transactionHash": "0x0c6ce0466b689aff12c5c1929e9faeeee4915740cf72481896a4bacb17029444",
          "transactionIndex": "0xa3",
          "logIndex": "0xb2",
          "removed": false
        }
      ],
      "logsBloom": "0x00000000000000000000000000000000000000000600000000000000000000000000000000000000000000000000000000000000000000004000000000000000000000000000004000000008000000000000000000000000000000000000000000000000020000000000000000000800020000000000000000000010000000000000000000000000000000000000000000000000000000000000010000000000000000000000000000000000000000004000000000000000000000000000000000000002000000800000000000000000000000000000080000000000000020000000000000000000000000000000000000000000000000000000000000000000",
      "type": "0x2",
      "transactionHash": "0x0c6ce0466b689aff12c5c1929e9faeeee4915740cf72481896a4bacb17029444",
      "transactionIndex": "0xa3",
      "blockHash": "0x152b35ef407ae974cb689b1c668f22994f49fd33987d46922abcf34fe0c016a9",
      "blockNumber": "0x731405",
      "gasUsed": "0xf21f",
      "effectiveGasPrice": "0x7a65ae87",
      "from": "0xc77f7fed3b5cc8249adc428c5f44c9063b9734b4",
      "to": "0x8aafd3ede9adb0ff97c7aebce82a919afb1c8764",
      "contractAddress": null
    }
  ],
  "libraries": [],
  "pending": [],
  "returns": {},
  "timestamp": 1737485545,
  "chain": 11155111,
  "commit": "51a374b"
}