{
  "transactions": [
    {
      "hash": "0x3fc07cb455bdf76a69632e186b59a5341b53449587d814c2dfaeac2e0e8ffe43",
      "transactionType": "CALL",
      "contractName": null,
      "contractAddress": "0x8aafd3ede9adb0ff97c7aebce82a919afb1c8764",
      "function": "sell(uint256)",
      "arguments": [
        "38020193"
      ],
      "transaction": {
        "from": "0xc77f7fed3b5cc8249adc428c5f44c9063b9734b4",
        "to": "0x8aafd3ede9adb0ff97c7aebce82a919afb1c8764",
        "gas": "0x15d88",
        "value": "0x0",
        "input": "0xe4849b320000000000000000000000000000000000000000000000000000000002442461",
        "nonce": "0x177b",
        "chainId": "0xaa36a7"
      },
      "additionalContracts": [],
      "isFixedGasLimit": false
    }
  ],
  "receipts": [
    {
      "status": "0x1",
      "cumulativeGasUsed": "0x1670009",
      "logs": [
        {
          "address": "0x8aafd3ede9adb0ff97c7aebce82a919afb1c8764",
          "topics": [
            "0xddf252ad1be2c89b69c2b068fc378daa952ba7f163c4a11628f55a4df523b3ef",
            "0x000000000000000000000000c77f7fed3b5cc8249adc428c5f44c9063b9734b4",
            "0x0000000000000000000000000000000000000000000000000000000000000000"
          ],
          "data": "0x00000000000000000000000000000000000000000000000000000000023f8040",
          "blockHash": "0xc913dcb9c601b18c4510ff06b16ca6539662d0eecb0612fe20567e1aaf54634e",
          "blockNumber": "0x731f56",
          "transactionHash": "0x3fc07cb455bdf76a69632e186b59a5341b53449587d814c2dfaeac2e0e8ffe43",
          "transactionIndex": "0xb4",
          "logIndex": "0x180",
          "removed": false
        },
        {
          "address": "0x8aafd3ede9adb0ff97c7aebce82a919afb1c8764",
          "topics": [
            "0xddf252ad1be2c89b69c2b068fc378daa952ba7f163c4a11628f55a4df523b3ef",
            "0x000000000000000000000000c77f7fed3b5cc8249adc428c5f44c9063b9734b4",
            "0x000000000000000000000000c77f7fed3b5cc8249adc428c5f44c9063b9734b4"
          ],
          "data": "0x000000000000000000000000000000000000000000000000000000000004a421",
          "blockHash": "0xc913dcb9c601b18c4510ff06b16ca6539662d0eecb0612fe20567e1aaf54634e",
          "blockNumber": "0x731f56",
          "transactionHash": "0x3fc07cb455bdf76a69632e186b59a5341b53449587d814c2dfaeac2e0e8ffe43",
          "transactionIndex": "0xb4",
          "logIndex": "0x181",
          "removed": false
        },
        {
          "address": "0x8aafd3ede9adb0ff97c7aebce82a919afb1c8764",
          "topics": [
            "0x4afcb4a87cdbd9974efdb92ee48bc8d7cd0ae4bf217004db3d080cbaee652ca7"
          ],
          "data": "0x00000000000000000000000000000000000000000000000000000000679074f000000000000000000000000000000000000000000000000000186df54e920581000000000000000000000000000000000000000000000000000000000003fd3e",
          "blockHash": "0xc913dcb9c601b18c4510ff06b16ca6539662d0eecb0612fe20567e1aaf54634e",
          "blockNumber": "0x731f56",
          "transactionHash": "0x3fc07cb455bdf76a69632e186b59a5341b53449587d814c2dfaeac2e0e8ffe43",
          "transactionIndex": "0xb4",
          "logIndex": "0x182",
          "removed": false
        }
      ],
      "logsBloom": "0x00000000000000000000000000000000000000000600000000000000000000000000000000000000000000000000000000000000000000004000000000000000000000000000004000000008000000000000000000000000000000000000000000000000020000000000000000000800020000000000000000000010000000000000000000000000000000000000000000000000000000000000010000000000000000000000000000000000000000004000000000000000000000000000000000000002000000800000000000000000000000000000080000000000000020000000000000000000000000000000000000000000000000000000000000000000",
      "type": "0x2",
      "transactionHash": "0x3fc07cb455bdf76a69632e186b59a5341b53449587d814c2dfaeac2e0e8ffe43",
      "transactionIndex": "0xb4",
      "blockHash": "0xc913dcb9c601b18c4510ff06b16ca6539662d0eecb0612fe20567e1aaf54634e",
      "blockNumber": "0x731f56",
      "gasUsed": "0xfd0f",
      "effectiveGasPrice": "0x3edd5eba",
      "from": "0xc77f7fed3b5cc8249adc428c5f44c9063b9734b4",
      "to": "0x8aafd3ede9adb0ff97c7aebce82a919afb1c8764",
      "contractAddress": null
    }
  ],
  "libraries": [],
  "pending": [],
  "returns": {},
  "timestamp": 1737520369,
  "chain": 11155111,
  "commit": "1d2fb70"
}