{
  "transactions": [
    {
      "hash": "0x1b54dc9744c0f2f66a2ba8c16a3d13b0e5c0ddc4758772cfa46e9ca8233eb5d8",
      "transactionType": "CALL",
      "contractName": null,
      "contractAddress": "0xc35ac92a931c0a4a53ecc09338b9ed77044b1053",
      "function": "borrow(uint256,uint256)",
      "arguments": [
        "9999267311347303",
        "0"
      ],
      "transaction": {
        "from": "0xc77f7fed3b5cc8249adc428c5f44c9063b9734b4",
        "to": "0xc35ac92a931c0a4a53ecc09338b9ed77044b1053",
        "gas": "0x2605d",
        "value": "0x0",
        "input": "0x0ecbcdab00000000000000000000000000000000000000000000000000238647d81b66670000000000000000000000000000000000000000000000000000000000000000",
        "nonce": "0x188d",
        "chainId": "0xaa36a7"
      },
      "additionalContracts": [],
      "isFixedGasLimit": false
    }
  ],
  "receipts": [
    {
      "status": "0x1",
      "cumulativeGasUsed": "0x1dcb67f",
      "logs": [
        {
          "address": "0xc35ac92a931c0a4a53ecc09338b9ed77044b1053",
          "topics": [
            "0xddf252ad1be2c89b69c2b068fc378daa952ba7f163c4a11628f55a4df523b3ef",
            "0x000000000000000000000000c77f7fed3b5cc8249adc428c5f44c9063b9734b4",
            "0x000000000000000000000000c35ac92a931c0a4a53ecc09338b9ed77044b1053"
          ],
          "data": "0x00000000000000000000000000000000000000000000000031f4087e7304bd95",
          "blockHash": "0xdf94ad6412f56d783df02033dcb5fec708f785824fc9f43302e394a0e32688f2",
          "blockNumber": "0x737f38",
          "transactionHash": "0x1b54dc9744c0f2f66a2ba8c16a3d13b0e5c0ddc4758772cfa46e9ca8233eb5d8",
          "transactionIndex": "0x112",
          "logIndex": "0x248",
          "removed": false
        },
        {
          "address": "0xc35ac92a931c0a4a53ecc09338b9ed77044b1053",
          "topics": [
            "0xddf252ad1be2c89b69c2b068fc378daa952ba7f163c4a11628f55a4df523b3ef",
            "0x000000000000000000000000c35ac92a931c0a4a53ecc09338b9ed77044b1053",
            "0x000000000000000000000000c77f7fed3b5cc8249adc428c5f44c9063b9734b4"
          ],
          "data": "0x0000000000000000000000000000000000000000000000000003e0cbef37e0eb",
          "blockHash": "0xdf94ad6412f56d783df02033dcb5fec708f785824fc9f43302e394a0e32688f2",
          "blockNumber": "0x737f38",
          "transactionHash": "0x1b54dc9744c0f2f66a2ba8c16a3d13b0e5c0ddc4758772cfa46e9ca8233eb5d8",
          "transactionIndex": "0x112",
          "logIndex": "0x249",
          "removed": false
        },
        {
          "address": "0xc35ac92a931c0a4a53ecc09338b9ed77044b1053",
          "topics": [
            "0xddf252ad1be2c89b69c2b068fc378daa952ba7f163c4a11628f55a4df523b3ef",
            "0x000000000000000000000000c35ac92a931c0a4a53ecc09338b9ed77044b1053",
            "0x0000000000000000000000000000000000000000000000000000000000000000"
          ],
          "data": "0x00000000000000000000000000000000000000000000000000090c8683826226",
          "blockHash": "0xdf94ad6412f56d783df02033dcb5fec708f785824fc9f43302e394a0e32688f2",
          "blockNumber": "0x737f38",
          "transactionHash": "0x1b54dc9744c0f2f66a2ba8c16a3d13b0e5c0ddc4758772cfa46e9ca8233eb5d8",
          "transactionIndex": "0x112",
          "logIndex": "0x24a",
          "removed": false
        },
        {
          "address": "0xc35ac92a931c0a4a53ecc09338b9ed77044b1053",
          "topics": [
            "0x03bbe564cb1b78e43195eeadbde99e5b89b19345862807fcfb59f884e4165e25"
          ],
          "data": "0x000000000000000000000000c77f7fed3b5cc8249adc428c5f44c9063b9734b40000000000000000000000000000000000000000000000000023223c93d2c3fa",
          "blockHash": "0xdf94ad6412f56d783df02033dcb5fec708f785824fc9f43302e394a0e32688f2",
          "blockNumber": "0x737f38",
          "transactionHash": "0x1b54dc9744c0f2f66a2ba8c16a3d13b0e5c0ddc4758772cfa46e9ca8233eb5d8",
          "transactionIndex": "0x112",
          "logIndex": "0x24b",
          "removed": false
        },
        {
          "address": "0xc35ac92a931c0a4a53ecc09338b9ed77044b1053",
          "topics": [
            "0xaec00f5213a37254bc68a26b0685d1a5b2bf513e1e587c94c7df7f4a62b56c9c"
          ],
          "data": "0x0000000000000000000000000000000000000000000000000000000000000000000000000000000000000000000000000000000000000000000000000000000000000000000000000000000000000000000000000000000000000000000000000000000000000000000000000000000000000000000000000000000000000000",
          "blockHash": "0xdf94ad6412f56d783df02033dcb5fec708f785824fc9f43302e394a0e32688f2",
          "blockNumber": "0x737f38",
          "transactionHash": "0x1b54dc9744c0f2f66a2ba8c16a3d13b0e5c0ddc4758772cfa46e9ca8233eb5d8",
          "transactionIndex": "0x112",
          "logIndex": "0x24c",
          "removed": false
        },
        {
          "address": "0xc35ac92a931c0a4a53ecc09338b9ed77044b1053",
          "topics": [
            "0xaec00f5213a37254bc68a26b0685d1a5b2bf513e1e587c94c7df7f4a62b56c9c"
          ],
          "data": "0x0000000000000000000000000000000000000000000000003274980d8241ac3f0000000000000000000000000000000000000000000000000023851773bc0ba90000000000000000000000000000000000000000000000000023851773bc0ba90000000000000000000000000000000000000000000000003274980d8241ac3f",
          "blockHash": "0xdf94ad6412f56d783df02033dcb5fec708f785824fc9f43302e394a0e32688f2",
          "blockNumber": "0x737f38",
          "transactionHash": "0x1b54dc9744c0f2f66a2ba8c16a3d13b0e5c0ddc4758772cfa46e9ca8233eb5d8",
          "transactionIndex": "0x112",
          "logIndex": "0x24d",
          "removed": false
        },
        {
          "address": "0xc35ac92a931c0a4a53ecc09338b9ed77044b1053",
          "topics": [
            "0x4afcb4a87cdbd9974efdb92ee48bc8d7cd0ae4bf217004db3d080cbaee652ca7"
          ],
          "data": "0x0000000000000000000000000000000000000000000000000000000067951cc80000000000000000000000000000000000000000000000000009e04d2e30b2fe000000000000000000000000000000000000000000000000000009317156054b",
          "blockHash": "0xdf94ad6412f56d783df02033dcb5fec708f785824fc9f43302e394a0e32688f2",
          "blockNumber": "0x737f38",
          "transactionHash": "0x1b54dc9744c0f2f66a2ba8c16a3d13b0e5c0ddc4758772cfa46e9ca8233eb5d8",
          "transactionIndex": "0x112",
          "logIndex": "0x24e",
          "removed": false
        }
      ],
      "logsBloom": "0x00000000000000008000000000000100400000000000000000000000000000002008000000000000000000000000000000002000000000004000000800000000000000000000000000000008000000000000000000000000000000000000100000000000020000000000000000000800020000000000000000000010000000000000000000000000000000000000010000000000000000000000010080000000000000000000000000000400000000004000000000000000000000001000000000000002000000800000000000000000000000000000080000000000000020000000000000000000000000000000000000000000000000000000000000000000",
      "type": "0x2",
      "transactionHash": "0x1b54dc9744c0f2f66a2ba8c16a3d13b0e5c0ddc4758772cfa46e9ca8233eb5d8",
      "transactionIndex": "0x112",
      "blockHash": "0xdf94ad6412f56d783df02033dcb5fec708f785824fc9f43302e394a0e32688f2",
      "blockNumber": "0x737f38",
      "gasUsed": "0x19ffa",
      "effectiveGasPrice": "0x4009461ac",
      "from": "0xc77f7fed3b5cc8249adc428c5f44c9063b9734b4",
      "to": "0xc35ac92a931c0a4a53ecc09338b9ed77044b1053",
      "contractAddress": null
    }
  ],
  "libraries": [],
  "pending": [],
  "returns": {},
  "timestamp": 1737825481,
  "chain": 11155111,
  "commit": "f5162e9"
}