{
  "transactions": [
    {
      "hash": "0x72b022551433d041be67300d8ee0eed78281934acdec22f0b5225cdb9a3a3b59",
      "transactionType": "CALL",
      "contractName": null,
      "contractAddress": "0xd7bc75898e513accccf720a874d44dab5a4b6223",
      "function": "buy(address)",
      "arguments": [
        "0xC77f7fed3b5Cc8249aDc428c5F44C9063B9734b4"
      ],
      "transaction": {
        "from": "0xc77f7fed3b5cc8249adc428c5f44c9063b9734b4",
        "to": "0xd7bc75898e513accccf720a874d44dab5a4b6223",
        "gas": "0x1b30c",
        "value": "0x2386f26fc10000",
        "input": "0xf088d547000000000000000000000000c77f7fed3b5cc8249adc428c5f44c9063b9734b4",
        "nonce": "0xca",
        "chainId": "0xaa36a7"
      },
      "additionalContracts": [],
      "isFixedGasLimit": false
    }
  ],
  "receipts": [
    {
      "status": "0x1",
      "cumulativeGasUsed": "0x6722d2",
      "logs": [
        {
          "address": "0xd7bc75898e513accccf720a874d44dab5a4b6223",
          "topics": [
            "0xddf252ad1be2c89b69c2b068fc378daa952ba7f163c4a11628f55a4df523b3ef",
            "0x0000000000000000000000000000000000000000000000000000000000000000",
            "0x000000000000000000000000c77f7fed3b5cc8249adc428c5f44c9063b9734b4"
          ],
          "data": "0x0000000000000000000000000000000000000000000000008963bb3e12a1cdc7",
          "blockHash": "0x618711a909a8cf50f52bdea6a5bfc13c1f06e41a20498446d9dbf2c9b1c5ebe2",
          "blockNumber": "0x723949",
          "transactionHash": "0x72b022551433d041be67300d8ee0eed78281934acdec22f0b5225cdb9a3a3b59",
          "transactionIndex": "0x42",
          "logIndex": "0x5a",
          "removed": false
        },
        {
          "address": "0xd7bc75898e513accccf720a874d44dab5a4b6223",
          "topics": [
            "0xddf252ad1be2c89b69c2b068fc378daa952ba7f163c4a11628f55a4df523b3ef",
            "0x0000000000000000000000000000000000000000000000000000000000000000",
            "0x000000000000000000000000c77f7fed3b5cc8249adc428c5f44c9063b9734b4"
          ],
          "data": "0x000000000000000000000000000000000000000000000000006ab00c94ef02d2",
          "blockHash": "0x618711a909a8cf50f52bdea6a5bfc13c1f06e41a20498446d9dbf2c9b1c5ebe2",
          "blockNumber": "0x723949",
          "transactionHash": "0x72b022551433d041be67300d8ee0eed78281934acdec22f0b5225cdb9a3a3b59",
          "transactionIndex": "0x42",
          "logIndex": "0x5b",
          "removed": false
        },
        {
          "address": "0xd7bc75898e513accccf720a874d44dab5a4b6223",
          "topics": [
            "0x4afcb4a87cdbd9974efdb92ee48bc8d7cd0ae4bf217004db3d080cbaee652ca7"
          ],
          "data": "0x000000000000000000000000000000000000000000000000000000006785a0b400000000000000000000000000000000000000000000000000038d7f87f03dae000000000000000000000000000000000000000000000000002386f26fc10000",
          "blockHash": "0x618711a909a8cf50f52bdea6a5bfc13c1f06e41a20498446d9dbf2c9b1c5ebe2",
          "blockNumber": "0x723949",
          "transactionHash": "0x72b022551433d041be67300d8ee0eed78281934acdec22f0b5225cdb9a3a3b59",
          "transactionIndex": "0x42",
          "logIndex": "0x5c",
          "removed": false
        }
      ],
      "logsBloom": "0x00000000000000000000000000000000000000000000000000000000000000000000000000000000000000000000000000000000000000004000000000000000000000000000000000000008000000000000000000000000000000000000000000000000020000000000000000000800020000000000000000000010000000000000000000000000000000000000000000000000000000000000010000000000000000000000000000000000000000004000001000000000000000000000000000000002000000800000000000004000000000000000080000000000000020000000000000000000000000000000000000000000080000000000000000000000",
      "type": "0x2",
      "transactionHash": "0x72b022551433d041be67300d8ee0eed78281934acdec22f0b5225cdb9a3a3b59",
      "transactionIndex": "0x42",
      "blockHash": "0x618711a909a8cf50f52bdea6a5bfc13c1f06e41a20498446d9dbf2c9b1c5ebe2",
      "blockNumber": "0x723949",
      "gasUsed": "0x13af8",
      "effectiveGasPrice": "0x23e2f6c3",
      "from": "0xc77f7fed3b5cc8249adc428c5f44c9063b9734b4",
      "to": "0xd7bc75898e513accccf720a874d44dab5a4b6223",
      "contractAddress": null
    }
  ],
  "libraries": [],
  "pending": [],
  "returns": {},
  "timestamp": 1736810678,
  "chain": 11155111,
  "commit": "51a374b"
}