{
  "transactions": [
    {
      "hash": "0x03ba633c9c2e7675c725cb833406016f021db124c865d0a8fb3a75e5e152029c",
      "transactionType": "CALL",
      "contractName": null,
      "contractAddress": "0x270e88f8683660553e8ba4eb2ad7c91a1710d769",
      "function": "sell(uint256)",
      "arguments": [
        "752390129956834443515"
      ],
      "transaction": {
        "from": "0xc77f7fed3b5cc8249adc428c5f44c9063b9734b4",
        "to": "0x270e88f8683660553e8ba4eb2ad7c91a1710d769",
        "gas": "0x15b6b",
        "value": "0x0",
        "input": "0xe4849b32000000000000000000000000000000000000000000000028c982b4dcab1b00fb",
        "nonce": "0x6b2",
        "chainId": "0xaa36a7"
      },
      "additionalContracts": [],
      "isFixedGasLimit": false
    }
  ],
  "receipts": [
    {
      "status": "0x1",
      "cumulativeGasUsed": "0x546a4f",
      "logs": [
        {
          "address": "0x270e88f8683660553e8ba4eb2ad7c91a1710d769",
          "topics": [
            "0xddf252ad1be2c89b69c2b068fc378daa952ba7f163c4a11628f55a4df523b3ef",
            "0x000000000000000000000000c77f7fed3b5cc8249adc428c5f44c9063b9734b4",
            "0x0000000000000000000000000000000000000000000000000000000000000000"
          ],
          "data": "0x000000000000000000000000000000000000000000000028c982b4dcab1b00fb",
          "blockHash": "0xeba5ec184f358b6a681f16d7a39f57cc477249da138f8a704209d5c17dd6d3f2",
          "blockNumber": "0x7253bb",
          "transactionHash": "0x03ba633c9c2e7675c725cb833406016f021db124c865d0a8fb3a75e5e152029c",
          "transactionIndex": "0x2d",
          "logIndex": "0x3e",
          "removed": false
        },
        {
          "address": "0x270e88f8683660553e8ba4eb2ad7c91a1710d769",
          "topics": [
            "0x4afcb4a87cdbd9974efdb92ee48bc8d7cd0ae4bf217004db3d080cbaee652ca7"
          ],
          "data": "0x000000000000000000000000000000000000000000000000000000006786decc0000000000000000000000000000000000000000000000000004b0a468ba656c0000000000000000000000000000000000000000000000000dc829c82d01180d",
          "blockHash": "0xeba5ec184f358b6a681f16d7a39f57cc477249da138f8a704209d5c17dd6d3f2",
          "blockNumber": "0x7253bb",
          "transactionHash": "0x03ba633c9c2e7675c725cb833406016f021db124c865d0a8fb3a75e5e152029c",
          "transactionIndex": "0x2d",
          "logIndex": "0x3f",
          "removed": false
        }
      ],
      "logsBloom": "0x00000000000000000000000000000000000000000000000000000000000000000000000000000000000000000000000020000000000000004000000000000000000000000000000000000008000000000000000000000000000000000000000000000000020000000000000000000800020000000000000000000010000000000000000000010000000000000000000000000000000000000000010000000000000000000000000000000000000000004000000000000000000000000000000000000002000000800000000000000000000000000000080000008000000020000000000000000000000000000000000000000000000000000000000000000000",
      "type": "0x2",
      "transactionHash": "0x03ba633c9c2e7675c725cb833406016f021db124c865d0a8fb3a75e5e152029c",
      "transactionIndex": "0x2d",
      "blockHash": "0xeba5ec184f358b6a681f16d7a39f57cc477249da138f8a704209d5c17dd6d3f2",
      "blockNumber": "0x7253bb",
      "gasUsed": "0xfb87",
      "effectiveGasPrice": "0x19af328fc",
      "from": "0xc77f7fed3b5cc8249adc428c5f44c9063b9734b4",
      "to": "0x270e88f8683660553e8ba4eb2ad7c91a1710d769",
      "contractAddress": null
    }
  ],
  "libraries": [],
  "pending": [],
  "returns": {},
  "timestamp": 1736892111,
  "chain": 11155111,
  "commit": "51a374b"
}