{
  "transactions": [
    {
      "hash": "0x6022aebaeaafa2de0a8dea38191f7a1f50bce6433f42f76855e8ae2278d3b3b7",
      "transactionType": "CALL",
      "contractName": null,
      "contractAddress": "0x8aafd3ede9adb0ff97c7aebce82a919afb1c8764",
      "function": "sell(uint256)",
      "arguments": [
        "1433532"
      ],
      "transaction": {
        "from": "0xc77f7fed3b5cc8249adc428c5f44c9063b9734b4",
        "to": "0x8aafd3ede9adb0ff97c7aebce82a919afb1c8764",
        "gas": "0x16208",
        "value": "0x0",
        "input": "0xe4849b32000000000000000000000000000000000000000000000000000000000015dfbc",
        "nonce": "0x11d8",
        "chainId": "0xaa36a7"
      },
      "additionalContracts": [],
      "isFixedGasLimit": false
    }
  ],
  "receipts": [
    {
      "status": "0x1",
      "cumulativeGasUsed": "0x14c0261",
      "logs": [
        {
          "address": "0x8aafd3ede9adb0ff97c7aebce82a919afb1c8764",
          "topics": [
            "0xddf252ad1be2c89b69c2b068fc378daa952ba7f163c4a11628f55a4df523b3ef",
            "0x000000000000000000000000c77f7fed3b5cc8249adc428c5f44c9063b9734b4",
            "0x0000000000000000000000000000000000000000000000000000000000000000"
          ],
          "data": "0x000000000000000000000000000000000000000000000000000000000015b2f0",
          "blockHash": "0xb4917e04a4d721f9d4dea51b78ae8fd5a0fb779ce7983250784261b07ffdf8d5",
          "blockNumber": "0x7318ad",
          "transactionHash": "0x6022aebaeaafa2de0a8dea38191f7a1f50bce6433f42f76855e8ae2278d3b3b7",
          "transactionIndex": "0x8e",
          "logIndex": "0xe0",
          "removed": false
        },
        {
          "address": "0x8aafd3ede9adb0ff97c7aebce82a919afb1c8764",
          "topics": [
            "0xddf252ad1be2c89b69c2b068fc378daa952ba7f163c4a11628f55a4df523b3ef",
            "0x000000000000000000000000c77f7fed3b5cc8249adc428c5f44c9063b9734b4",
            "0x000000000000000000000000c77f7fed3b5cc8249adc428c5f44c9063b9734b4"
          ],
          "data": "0x0000000000000000000000000000000000000000000000000000000000002ccc",
          "blockHash": "0xb4917e04a4d721f9d4dea51b78ae8fd5a0fb779ce7983250784261b07ffdf8d5",
          "blockNumber": "0x7318ad",
          "transactionHash": "0x6022aebaeaafa2de0a8dea38191f7a1f50bce6433f42f76855e8ae2278d3b3b7",
          "transactionIndex": "0x8e",
          "logIndex": "0xe1",
          "removed": false
        },
        {
          "address": "0x8aafd3ede9adb0ff97c7aebce82a919afb1c8764",
          "topics": [
            "0x4afcb4a87cdbd9974efdb92ee48bc8d7cd0ae4bf217004db3d080cbaee652ca7"
          ],
          "data": "0x00000000000000000000000000000000000000000000000000000000679024ec00000000000000000000000000000000000000000000000000052aaab979d1730000000000000000000000000000000000000000000000000000000000000824",
          "blockHash": "0xb4917e04a4d721f9d4dea51b78ae8fd5a0fb779ce7983250784261b07ffdf8d5",
          "blockNumber": "0x7318ad",
          "transactionHash": "0x6022aebaeaafa2de0a8dea38191f7a1f50bce6433f42f76855e8ae2278d3b3b7",
          "transactionIndex": "0x8e",
          "logIndex": "0xe2",
          "removed": false
        }
      ],
      "logsBloom": "0x00000000000000000000000000000000000000000600000000000000000000000000000000000000000000000000000000000000000000004000000000000000000000000000004000000008000000000000000000000000000000000000000000000000020000000000000000000800020000000000000000000010000000000000000000000000000000000000000000000000000000000000010000000000000000000000000000000000000000004000000000000000000000000000000000000002000000800000000000000000000000000000080000000000000020000000000000000000000000000000000000000000000000000000000000000000",
      "type": "0x2",
      "transactionHash": "0x6022aebaeaafa2de0a8dea38191f7a1f50bce6433f42f76855e8ae2278d3b3b7",
      "transactionIndex": "0x8e",
      "blockHash": "0xb4917e04a4d721f9d4dea51b78ae8fd5a0fb779ce7983250784261b07ffdf8d5",
      "blockNumber": "0x7318ad",
      "gasUsed": "0xf213",
      "effectiveGasPrice": "0x483c9134",
      "from": "0xc77f7fed3b5cc8249adc428c5f44c9063b9734b4",
      "to": "0x8aafd3ede9adb0ff97c7aebce82a919afb1c8764",
      "contractAddress": null
    }
  ],
  "libraries": [],
  "pending": [],
  "returns": {},
  "timestamp": 1737499885,
  "chain": 11155111,
  "commit": "1d2fb70"
}