{
  "transactions": [
    {
      "hash": "0x3182a7a9040cc89ffbc534548469aef9fd034ebdd243324ac48ba30f40fa1779",
      "transactionType": "CALL",
      "contractName": null,
      "contractAddress": "0xbf4a322f1496e5c3d34a9bcdb4c60567b38c7de2",
      "function": "buy(address)",
      "arguments": [
        "0xC77f7fed3b5Cc8249aDc428c5F44C9063B9734b4"
      ],
      "transaction": {
        "from": "0xc77f7fed3b5cc8249adc428c5f44c9063b9734b4",
        "to": "0xbf4a322f1496e5c3d34a9bcdb4c60567b38c7de2",
        "gas": "0x1b309",
        "value": "0xde0b6b3a7640000",
        "input": "0xf088d547000000000000000000000000c77f7fed3b5cc8249adc428c5f44c9063b9734b4",
        "nonce": "0x97e",
        "chainId": "0xaa36a7"
      },
      "additionalContracts": [],
      "isFixedGasLimit": false
    }
  ],
  "receipts": [
    {
      "status": "0x1",
      "cumulativeGasUsed": "0x9219dd",
      "logs": [
        {
          "address": "0xbf4a322f1496e5c3d34a9bcdb4c60567b38c7de2",
          "topics": [
            "0xddf252ad1be2c89b69c2b068fc378daa952ba7f163c4a11628f55a4df523b3ef",
            "0x0000000000000000000000000000000000000000000000000000000000000000",
            "0x000000000000000000000000c77f7fed3b5cc8249adc428c5f44c9063b9734b4"
          ],
          "data": "0x00000000000000000000000000000000000000000000003573c37384bcf50046",
          "blockHash": "0x127c31df52da07d2f6926c5ead349722893eadcfc0eb2a25d6f7ec79423c9cb8",
          "blockNumber": "0x72591c",
          "transactionHash": "0x3182a7a9040cc89ffbc534548469aef9fd034ebdd243324ac48ba30f40fa1779",
          "transactionIndex": "0x66",
          "logIndex": "0x96",
          "removed": false
        },
        {
          "address": "0xbf4a322f1496e5c3d34a9bcdb4c60567b38c7de2",
          "topics": [
            "0xddf252ad1be2c89b69c2b068fc378daa952ba7f163c4a11628f55a4df523b3ef",
            "0x0000000000000000000000000000000000000000000000000000000000000000",
            "0x000000000000000000000000c77f7fed3b5cc8249adc428c5f44c9063b9734b4"
          ],
          "data": "0x0000000000000000000000000000000000000000000000002981e8ba6ddcd219",
          "blockHash": "0x127c31df52da07d2f6926c5ead349722893eadcfc0eb2a25d6f7ec79423c9cb8",
          "blockNumber": "0x72591c",
          "transactionHash": "0x3182a7a9040cc89ffbc534548469aef9fd034ebdd243324ac48ba30f40fa1779",
          "transactionIndex": "0x66",
          "logIndex": "0x97",
          "removed": false
        },
        {
          "address": "0xbf4a322f1496e5c3d34a9bcdb4c60567b38c7de2",
          "topics": [
            "0x4afcb4a87cdbd9974efdb92ee48bc8d7cd0ae4bf217004db3d080cbaee652ca7"
          ],
          "data": "0x0000000000000000000000000000000000000000000000000000000067871f7c0000000000000000000000000000000000000000000000000003912cfef492df0000000000000000000000000000000000000000000000000de0b6b3a7640000",
          "blockHash": "0x127c31df52da07d2f6926c5ead349722893eadcfc0eb2a25d6f7ec79423c9cb8",
          "blockNumber": "0x72591c",
          "transactionHash": "0x3182a7a9040cc89ffbc534548469aef9fd034ebdd243324ac48ba30f40fa1779",
          "transactionIndex": "0x66",
          "logIndex": "0x98",
          "removed": false
        }
      ],
      "logsBloom": "0x00000000000000000000000000000000000000000000000000000000000000000000000000000000000000000000000000000000000000004000000000000000000000000000000000000008000000000000001000000000000000000000000000000000020000000000000000000800020000000000000000000010000000000000000000000000000000000000000000000000000008000000010000000000000000000000000000000000000000004000000000000000000000000000000000000002000000800000000000001000000000000000080000000000000020000000000000000000000000000000000000000000000000000000000000000000",
      "type": "0x2",
      "transactionHash": "0x3182a7a9040cc89ffbc534548469aef9fd034ebdd243324ac48ba30f40fa1779",
      "transactionIndex": "0x66",
      "blockHash": "0x127c31df52da07d2f6926c5ead349722893eadcfc0eb2a25d6f7ec79423c9cb8",
      "blockNumber": "0x72591c",
      "gasUsed": "0x13af6",
      "effectiveGasPrice": "0xb96cc695",
      "from": "0xc77f7fed3b5cc8249adc428c5f44c9063b9734b4",
      "to": "0xbf4a322f1496e5c3d34a9bcdb4c60567b38c7de2",
      "contractAddress": null
    }
  ],
  "libraries": [],
  "pending": [],
  "returns": {},
  "timestamp": 1736908669,
  "chain": 11155111,
  "commit": "51a374b"
}