{
  "transactions": [
    {
      "hash": "0x058187ee9782978d6c1d43b125c18ee506c1403997be59d5b0ffda56aedcc385",
      "transactionType": "CALL",
      "contractName": null,
      "contractAddress": "0x270e88f8683660553e8ba4eb2ad7c91a1710d769",
      "function": "buy(address)",
      "arguments": [
        "0xC77f7fed3b5Cc8249aDc428c5F44C9063B9734b4"
      ],
      "transaction": {
        "from": "0xc77f7fed3b5cc8249adc428c5f44c9063b9734b4",
        "to": "0x270e88f8683660553e8ba4eb2ad7c91a1710d769",
        "gas": "0x1b30c",
        "value": "0xde0b6b3a7640000",
        "input": "0xf088d547000000000000000000000000c77f7fed3b5cc8249adc428c5f44c9063b9734b4",
        "nonce": "0x650",
        "chainId": "0xaa36a7"
      },
      "additionalContracts": [],
      "isFixedGasLimit": false
    }
  ],
  "receipts": [
    {
      "status": "0x1",
      "cumulativeGasUsed": "0xc24049",
      "logs": [
        {
          "address": "0x270e88f8683660553e8ba4eb2ad7c91a1710d769",
          "topics": [
            "0xddf252ad1be2c89b69c2b068fc378daa952ba7f163c4a11628f55a4df523b3ef",
            "0x0000000000000000000000000000000000000000000000000000000000000000",
            "0x000000000000000000000000c77f7fed3b5cc8249adc428c5f44c9063b9734b4"
          ],
          "data": "0x00000000000000000000000000000000000000000000002c929e3417d2d7ea07",
          "blockHash": "0xdf536478431605256fcab1681a29fa3e1e8adc8f81a53f1255788168b7a75bb3",
          "blockNumber": "0x72533b",
          "transactionHash": "0x058187ee9782978d6c1d43b125c18ee506c1403997be59d5b0ffda56aedcc385",
          "transactionIndex": "0x7c",
          "logIndex": "0xe0",
          "removed": false
        },
        {
          "address": "0x270e88f8683660553e8ba4eb2ad7c91a1710d769",
          "topics": [
            "0xddf252ad1be2c89b69c2b068fc378daa952ba7f163c4a11628f55a4df523b3ef",
            "0x0000000000000000000000000000000000000000000000000000000000000000",
            "0x000000000000000000000000c77f7fed3b5cc8249adc428c5f44c9063b9734b4"
          ],
          "data": "0x000000000000000000000000000000000000000000000000229cbbec88dfec8d",
          "blockHash": "0xdf536478431605256fcab1681a29fa3e1e8adc8f81a53f1255788168b7a75bb3",
          "blockNumber": "0x72533b",
          "transactionHash": "0x058187ee9782978d6c1d43b125c18ee506c1403997be59d5b0ffda56aedcc385",
          "transactionIndex": "0x7c",
          "logIndex": "0xe1",
          "removed": false
        },
        {
          "address": "0x270e88f8683660553e8ba4eb2ad7c91a1710d769",
          "topics": [
            "0x4afcb4a87cdbd9974efdb92ee48bc8d7cd0ae4bf217004db3d080cbaee652ca7"
          ],
          "data": "0x000000000000000000000000000000000000000000000000000000006786d8cc00000000000000000000000000000000000000000000000000044716bac754740000000000000000000000000000000000000000000000000de0b6b3a7640000",
          "blockHash": "0xdf536478431605256fcab1681a29fa3e1e8adc8f81a53f1255788168b7a75bb3",
          "blockNumber": "0x72533b",
          "transactionHash": "0x058187ee9782978d6c1d43b125c18ee506c1403997be59d5b0ffda56aedcc385",
          "transactionIndex": "0x7c",
          "logIndex": "0xe2",
          "removed": false
        }
      ],
      "logsBloom": "0x00000000000000000000000000000000000000000000000000000000000000000000000000000000000000000000000020000000000000004000000000000000000000000000000000000008000000000000000000000000000000000000000000000000020000000000000000000800020000000000000000000010000000000000000000010000000000000000000000000000000000000000010000000000000000000000000000000000000000004000000000000000000000000000000000000002000000800000000000000000000000000000080000008000000020000000000000000000000000000000000000000000000000000000000000000000",
      "type": "0x2",
      "transactionHash": "0x058187ee9782978d6c1d43b125c18ee506c1403997be59d5b0ffda56aedcc385",
      "transactionIndex": "0x7c",
      "blockHash": "0xdf536478431605256fcab1681a29fa3e1e8adc8f81a53f1255788168b7a75bb3",
      "blockNumber": "0x72533b",
      "gasUsed": "0x13af8",
      "effectiveGasPrice": "0x1a23506d5",
      "from": "0xc77f7fed3b5cc8249adc428c5f44c9063b9734b4",
      "to": "0x270e88f8683660553e8ba4eb2ad7c91a1710d769",
      "contractAddress": null
    }
  ],
  "libraries": [],
  "pending": [],
  "returns": {},
  "timestamp": 1736890574,
  "chain": 11155111,
  "commit": "51a374b"
}