{
  "transactions": [
    {
      "hash": "0xfdca7de53da652e6b80a4c85eb4d06e88fa672cd384bb9b0801c8c7e9c825051",
      "transactionType": "CALL",
      "contractName": null,
      "contractAddress": "0x270e88f8683660553e8ba4eb2ad7c91a1710d769",
      "function": "sell(uint256)",
      "arguments": [
        "732024690825435305794"
      ],
      "transaction": {
        "from": "0xc77f7fed3b5cc8249adc428c5f44c9063b9734b4",
        "to": "0x270e88f8683660553e8ba4eb2ad7c91a1710d769",
        "gas": "0x16fec",
        "value": "0x0",
        "input": "0xe4849b32000000000000000000000000000000000000000000000027aee221df69385742",
        "nonce": "0x796",
        "chainId": "0xaa36a7"
      },
      "additionalContracts": [],
      "isFixedGasLimit": false
    }
  ],
  "receipts": [
    {
      "status": "0x1",
      "cumulativeGasUsed": "0x121755e",
      "logs": [
        {
          "address": "0x270e88f8683660553e8ba4eb2ad7c91a1710d769",
          "topics": [
            "0xddf252ad1be2c89b69c2b068fc378daa952ba7f163c4a11628f55a4df523b3ef",
            "0x000000000000000000000000c77f7fed3b5cc8249adc428c5f44c9063b9734b4",
            "0x0000000000000000000000000000000000000000000000000000000000000000"
          ],
          "data": "0x000000000000000000000000000000000000000000000027aee221df69385742",
          "blockHash": "0x072ce99c1a17286d0ea7d1c5a73ba1009ef76fb973a86e41aac08ee78503b61e",
          "blockNumber": "0x7254c9",
          "transactionHash": "0xfdca7de53da652e6b80a4c85eb4d06e88fa672cd384bb9b0801c8c7e9c825051",
          "transactionIndex": "0x56",
          "logIndex": "0x78",
          "removed": false
        },
        {
          "address": "0x270e88f8683660553e8ba4eb2ad7c91a1710d769",
          "topics": [
            "0x4afcb4a87cdbd9974efdb92ee48bc8d7cd0ae4bf217004db3d080cbaee652ca7"
          ],
          "data": "0x000000000000000000000000000000000000000000000000000000006786eb740000000000000000000000000000000000000000000000000004d2096cbad7460000000000000000000000000000000000000000000000000dc827aca54884f3",
          "blockHash": "0x072ce99c1a17286d0ea7d1c5a73ba1009ef76fb973a86e41aac08ee78503b61e",
          "blockNumber": "0x7254c9",
          "transactionHash": "0xfdca7de53da652e6b80a4c85eb4d06e88fa672cd384bb9b0801c8c7e9c825051",
          "transactionIndex": "0x56",
          "logIndex": "0x79",
          "removed": false
        }
      ],
      "logsBloom": "0x00000000000000000000000000000000000000000000000000000000000000000000000000000000000000000000000020000000000000004000000000000000000000000000000000000008000000000000000000000000000000000000000000000000020000000000000000000800020000000000000000000010000000000000000000010000000000000000000000000000000000000000010000000000000000000000000000000000000000004000000000000000000000000000000000000002000000800000000000000000000000000000080000008000000020000000000000000000000000000000000000000000000000000000000000000000",
      "type": "0x2",
      "transactionHash": "0xfdca7de53da652e6b80a4c85eb4d06e88fa672cd384bb9b0801c8c7e9c825051",
      "transactionIndex": "0x56",
      "blockHash": "0x072ce99c1a17286d0ea7d1c5a73ba1009ef76fb973a86e41aac08ee78503b61e",
      "blockNumber": "0x7254c9",
      "gasUsed": "0xfb93",
      "effectiveGasPrice": "0xf52100fb",
      "from": "0xc77f7fed3b5cc8249adc428c5f44c9063b9734b4",
      "to": "0x270e88f8683660553e8ba4eb2ad7c91a1710d769",
      "contractAddress": null
    }
  ],
  "libraries": [],
  "pending": [],
  "returns": {},
  "timestamp": 1736895349,
  "chain": 11155111,
  "commit": "51a374b"
}