{
  "transactions": [
    {
      "hash": "0x50628868a7be53611611409044cad6f5fe388b4020d205bfcbbd1a70077a4a5f",
      "transactionType": "CALL",
      "contractName": null,
      "contractAddress": "0x8aafd3ede9adb0ff97c7aebce82a919afb1c8764",
      "function": "sell(uint256)",
      "arguments": [
        "183015032"
      ],
      "transaction": {
        "from": "0xc77f7fed3b5cc8249adc428c5f44c9063b9734b4",
        "to": "0x8aafd3ede9adb0ff97c7aebce82a919afb1c8764",
        "gas": "0x14e6c",
        "value": "0x0",
        "input": "0xe4849b32000000000000000000000000000000000000000000000000000000000ae89678",
        "nonce": "0x1119",
        "chainId": "0xaa36a7"
      },
      "additionalContracts": [],
      "isFixedGasLimit": false
    }
  ],
  "receipts": [
    {
      "status": "0x1",
      "cumulativeGasUsed": "0xa48be4",
      "logs": [
        {
          "address": "0x8aafd3ede9adb0ff97c7aebce82a919afb1c8764",
          "topics": [
            "0xddf252ad1be2c89b69c2b068fc378daa952ba7f163c4a11628f55a4df523b3ef",
            "0x000000000000000000000000c77f7fed3b5cc8249adc428c5f44c9063b9734b4",
            "0x0000000000000000000000000000000000000000000000000000000000000000"
          ],
          "data": "0x000000000000000000000000000000000000000000000000000000000ad23f40",
          "blockHash": "0xc5c902bacfc97c656fa7ef2eab42b8655df3513772ea77a060e265fa65fddb74",
          "blockNumber": "0x7317cb",
          "transactionHash": "0x50628868a7be53611611409044cad6f5fe388b4020d205bfcbbd1a70077a4a5f",
          "transactionIndex": "0x87",
          "logIndex": "0x97",
          "removed": false
        },
        {
          "address": "0x8aafd3ede9adb0ff97c7aebce82a919afb1c8764",
          "topics": [
            "0xddf252ad1be2c89b69c2b068fc378daa952ba7f163c4a11628f55a4df523b3ef",
            "0x000000000000000000000000c77f7fed3b5cc8249adc428c5f44c9063b9734b4",
            "0x000000000000000000000000c77f7fed3b5cc8249adc428c5f44c9063b9734b4"
          ],
          "data": "0x0000000000000000000000000000000000000000000000000000000000165738",
          "blockHash": "0xc5c902bacfc97c656fa7ef2eab42b8655df3513772ea77a060e265fa65fddb74",
          "blockNumber": "0x7317cb",
          "transactionHash": "0x50628868a7be53611611409044cad6f5fe388b4020d205bfcbbd1a70077a4a5f",
          "transactionIndex": "0x87",
          "logIndex": "0x98",
          "removed": false
        },
        {
          "address": "0x8aafd3ede9adb0ff97c7aebce82a919afb1c8764",
          "topics": [
            "0x4afcb4a87cdbd9974efdb92ee48bc8d7cd0ae4bf217004db3d080cbaee652ca7"
          ],
          "data": "0x0000000000000000000000000000000000000000000000000000000067901a4800000000000000000000000000000000000000000000000000050f106c1c9eab000000000000000000000000000000000000000000000000000000000003f9fa",
          "blockHash": "0xc5c902bacfc97c656fa7ef2eab42b8655df3513772ea77a060e265fa65fddb74",
          "blockNumber": "0x7317cb",
          "transactionHash": "0x50628868a7be53611611409044cad6f5fe388b4020d205bfcbbd1a70077a4a5f",
          "transactionIndex": "0x87",
          "logIndex": "0x99",
          "removed": false
        }
      ],
      "logsBloom": "0x00000000000000000000000000000000000000000600000000000000000000000000000000000000000000000000000000000000000000004000000000000000000000000000004000000008000000000000000000000000000000000000000000000000020000000000000000000800020000000000000000000010000000000000000000000000000000000000000000000000000000000000010000000000000000000000000000000000000000004000000000000000000000000000000000000002000000800000000000000000000000000000080000000000000020000000000000000000000000000000000000000000000000000000000000000000",
      "type": "0x2",
      "transactionHash": "0x50628868a7be53611611409044cad6f5fe388b4020d205bfcbbd1a70077a4a5f",
      "transactionIndex": "0x87",
      "blockHash": "0xc5c902bacfc97c656fa7ef2eab42b8655df3513772ea77a060e265fa65fddb74",
      "blockNumber": "0x7317cb",
      "gasUsed": "0xf21f",
      "effectiveGasPrice": "0x36bc709d",
      "from": "0xc77f7fed3b5cc8249adc428c5f44c9063b9734b4",
      "to": "0x8aafd3ede9adb0ff97c7aebce82a919afb1c8764",
      "contractAddress": null
    }
  ],
  "libraries": [],
  "pending": [],
  "returns": {},
  "timestamp": 1737497162,
  "chain": 11155111,
  "commit": "1d2fb70"
}