{
  "transactions": [
    {
      "hash": "0x407805ba522c0db43d5934a68c9ec6a8ef22638d941fd97a1a301731b8e49309",
      "transactionType": "CALL",
      "contractName": null,
      "contractAddress": "0x8aafd3ede9adb0ff97c7aebce82a919afb1c8764",
      "function": "sell(uint256)",
      "arguments": [
        "125274521487125"
      ],
      "transaction": {
        "from": "0xc77f7fed3b5cc8249adc428c5f44c9063b9734b4",
        "to": "0x8aafd3ede9adb0ff97c7aebce82a919afb1c8764",
        "gas": "0x15daa",
        "value": "0x0",
        "input": "0xe4849b32000000000000000000000000000000000000000000000000000071efbf5a4715",
        "nonce": "0x1421",
        "chainId": "0xaa36a7"
      },
      "additionalContracts": [],
      "isFixedGasLimit": false
    }
  ],
  "receipts": [
    {
      "status": "0x1",
      "cumulativeGasUsed": "0xdf1553",
      "logs": [
        {
          "address": "0x8aafd3ede9adb0ff97c7aebce82a919afb1c8764",
          "topics": [
            "0xddf252ad1be2c89b69c2b068fc378daa952ba7f163c4a11628f55a4df523b3ef",
            "0x000000000000000000000000c77f7fed3b5cc8249adc428c5f44c9063b9734b4",
            "0x0000000000000000000000000000000000000000000000000000000000000000"
          ],
          "data": "0x0000000000000000000000000000000000000000000000000000710667ce4a9c",
          "blockHash": "0xcb8ff555d3f0dfa9bd4687cae2f5fb2e5de1862f15aac0202f0d29915835caeb",
          "blockNumber": "0x731b5d",
          "transactionHash": "0x407805ba522c0db43d5934a68c9ec6a8ef22638d941fd97a1a301731b8e49309",
          "transactionIndex": "0x9a",
          "logIndex": "0xaa",
          "removed": false
        },
        {
          "address": "0x8aafd3ede9adb0ff97c7aebce82a919afb1c8764",
          "topics": [
            "0xddf252ad1be2c89b69c2b068fc378daa952ba7f163c4a11628f55a4df523b3ef",
            "0x000000000000000000000000c77f7fed3b5cc8249adc428c5f44c9063b9734b4",
            "0x000000000000000000000000c77f7fed3b5cc8249adc428c5f44c9063b9734b4"
          ],
          "data": "0x000000000000000000000000000000000000000000000000000000e9578bfc79",
          "blockHash": "0xcb8ff555d3f0dfa9bd4687cae2f5fb2e5de1862f15aac0202f0d29915835caeb",
          "blockNumber": "0x731b5d",
          "transactionHash": "0x407805ba522c0db43d5934a68c9ec6a8ef22638d941fd97a1a301731b8e49309",
          "transactionIndex": "0x9a",
          "logIndex": "0xab",
          "removed": false
        },
        {
          "address": "0x8aafd3ede9adb0ff97c7aebce82a919afb1c8764",
          "topics": [
            "0x4afcb4a87cdbd9974efdb92ee48bc8d7cd0ae4bf217004db3d080cbaee652ca7"
          ],
          "data": "0x000000000000000000000000000000000000000000000000000000006790452c000000000000000000000000000000000000000000000000000e856c669a7724000000000000000000000000000000000000000000000000000000773803579d",
          "blockHash": "0xcb8ff555d3f0dfa9bd4687cae2f5fb2e5de1862f15aac0202f0d29915835caeb",
          "blockNumber": "0x731b5d",
          "transactionHash": "0x407805ba522c0db43d5934a68c9ec6a8ef22638d941fd97a1a301731b8e49309",
          "transactionIndex": "0x9a",
          "logIndex": "0xac",
          "removed": false
        }
      ],
      "logsBloom": "0x00000000000000000000000000000000000000000600000000000000000000000000000000000000000000000000000000000000000000004000000000000000000000000000004000000008000000000000000000000000000000000000000000000000020000000000000000000800020000000000000000000010000000000000000000000000000000000000000000000000000000000000010000000000000000000000000000000000000000004000000000000000000000000000000000000002000000800000000000000000000000000000080000000000000020000000000000000000000000000000000000000000000000000000000000000000",
      "type": "0x2",
      "transactionHash": "0x407805ba522c0db43d5934a68c9ec6a8ef22638d941fd97a1a301731b8e49309",
      "transactionIndex": "0x9a",
      "blockHash": "0xcb8ff555d3f0dfa9bd4687cae2f5fb2e5de1862f15aac0202f0d29915835caeb",
      "blockNumber": "0x731b5d",
      "gasUsed": "0xfd27",
      "effectiveGasPrice": "0xf76c9695",
      "from": "0xc77f7fed3b5cc8249adc428c5f44c9063b9734b4",
      "to": "0x8aafd3ede9adb0ff97c7aebce82a919afb1c8764",
      "contractAddress": null
    }
  ],
  "libraries": [],
  "pending": [],
  "returns": {},
  "timestamp": 1737508141,
  "chain": 11155111,
  "commit": "1d2fb70"
}