{
  "transactions": [
    {
      "hash": "0xa436dcd1769b3c517fd42e507435c7074422d257d85f3dc901711264a87f8344",
      "transactionType": "CALL",
      "contractName": null,
      "contractAddress": "0xd7bc75898e513accccf720a874d44dab5a4b6223",
      "function": "buy(address)",
      "arguments": [
        "0xC77f7fed3b5Cc8249aDc428c5F44C9063B9734b4"
      ],
      "transaction": {
        "from": "0xc77f7fed3b5cc8249adc428c5f44c9063b9734b4",
        "to": "0xd7bc75898e513accccf720a874d44dab5a4b6223",
        "gas": "0x1b30c",
        "value": "0x16345785d8a0000",
        "input": "0xf088d547000000000000000000000000c77f7fed3b5cc8249adc428c5f44c9063b9734b4",
        "nonce": "0x73",
        "chainId": "0xaa36a7"
      },
      "additionalContracts": [],
      "isFixedGasLimit": false
    },
    {
      "hash": "0x0488734f105c874eb29db8bb21cfbcb4109b67157914bbd3d06c72c1d0f2020f",
      "transactionType": "CALL",
      "contractName": null,
      "contractAddress": "0xd7bc75898e513accccf720a874d44dab5a4b6223",
      "function": "sell(uint256)",
      "arguments": [
        "99300271063232046535"
      ],
      "transaction": {
        "from": "0xc77f7fed3b5cc8249adc428c5f44c9063b9734b4",
        "to": "0xd7bc75898e513accccf720a874d44dab5a4b6223",
        "gas": "0x16fec",
        "value": "0x0",
        "input": "0xe4849b3200000000000000000000000000000000000000000000000562116e6aa7f265c7",
        "nonce": "0x74",
        "chainId": "0xaa36a7"
      },
      "additionalContracts": [],
      "isFixedGasLimit": false
    }
  ],
  "receipts": [
    {
      "status": "0x1",
      "cumulativeGasUsed": "0xc2a3fb",
      "logs": [
        {
          "address": "0xd7bc75898e513accccf720a874d44dab5a4b6223",
          "topics": [
            "0xddf252ad1be2c89b69c2b068fc378daa952ba7f163c4a11628f55a4df523b3ef",
            "0x0000000000000000000000000000000000000000000000000000000000000000",
            "0x000000000000000000000000c77f7fed3b5cc8249adc428c5f44c9063b9734b4"
          ],
          "data": "0x0000000000000000000000000000000000000000000000055de68cf708b52973",
          "blockHash": "0x9e24e47543512602dbf56be8ea10ada9d3ada60c46c693494b03f56c5ad310b1",
          "blockNumber": "0x72389f",
          "transactionHash": "0xa436dcd1769b3c517fd42e507435c7074422d257d85f3dc901711264a87f8344",
          "transactionIndex": "0x47",
          "logIndex": "0x78",
          "removed": false
        },
        {
          "address": "0xd7bc75898e513accccf720a874d44dab5a4b6223",
          "topics": [
            "0xddf252ad1be2c89b69c2b068fc378daa952ba7f163c4a11628f55a4df523b3ef",
            "0x0000000000000000000000000000000000000000000000000000000000000000",
            "0x000000000000000000000000c77f7fed3b5cc8249adc428c5f44c9063b9734b4"
          ],
          "data": "0x000000000000000000000000000000000000000000000000042ae1739f3d3c54",
          "blockHash": "0x9e24e47543512602dbf56be8ea10ada9d3ada60c46c693494b03f56c5ad310b1",
          "blockNumber": "0x72389f",
          "transactionHash": "0xa436dcd1769b3c517fd42e507435c7074422d257d85f3dc901711264a87f8344",
          "transactionIndex": "0x47",
          "logIndex": "0x79",
          "removed": false
        },
        {
          "address": "0xd7bc75898e513accccf720a874d44dab5a4b6223",
          "topics": [
            "0x4afcb4a87cdbd9974efdb92ee48bc8d7cd0ae4bf217004db3d080cbaee652ca7"
          ],
          "data": "0x00000000000000000000000000000000000000000000000000000000678598bc00000000000000000000000000000000000000000000000000038d7eb70519fd000000000000000000000000000000000000000000000000016345785d8a0000",
          "blockHash": "0x9e24e47543512602dbf56be8ea10ada9d3ada60c46c693494b03f56c5ad310b1",
          "blockNumber": "0x72389f",
          "transactionHash": "0xa436dcd1769b3c517fd42e507435c7074422d257d85f3dc901711264a87f8344",
          "transactionIndex": "0x47",
          "logIndex": "0x7a",
          "removed": false
        }
      ],
      "logsBloom": "0x00000000000000000000000000000000000000000000000000000000000000000000000000000000000000000000000000000000000000004000000000000000000000000000000000000008000000000000000000000000000000000000000000000000020000000000000000000800020000000000000000000010000000000000000000000000000000000000000000000000000000000000010000000000000000000000000000000000000000004000001000000000000000000000000000000002000000800000000000004000000000000000080000000000000020000000000000000000000000000000000000000000080000000000000000000000",
      "type": "0x2",
      "transactionHash": "0xa436dcd1769b3c517fd42e507435c7074422d257d85f3dc901711264a87f8344",
      "transactionIndex": "0x47",
      "blockHash": "0x9e24e47543512602dbf56be8ea10ada9d3ada60c46c693494b03f56c5ad310b1",
      "blockNumber": "0x72389f",
      "gasUsed": "0x13af8",
      "effectiveGasPrice": "0x235248f",
      "from": "0xc77f7fed3b5cc8249adc428c5f44c9063b9734b4",
      "to": "0xd7bc75898e513accccf720a874d44dab5a4b6223",
      "contractAddress": null
    },
    {
      "status": "0x1",
      "cumulativeGasUsed": "0xc39f8e",
      "logs": [
        {
          "address": "0xd7bc75898e513accccf720a874d44dab5a4b6223",
          "topics": [
            "0xddf252ad1be2c89b69c2b068fc378daa952ba7f163c4a11628f55a4df523b3ef",
            "0x000000000000000000000000c77f7fed3b5cc8249adc428c5f44c9063b9734b4",
            "0x0000000000000000000000000000000000000000000000000000000000000000"
          ],
          "data": "0x00000000000000000000000000000000000000000000000562116e6aa7f265c7",
          "blockHash": "0x9e24e47543512602dbf56be8ea10ada9d3ada60c46c693494b03f56c5ad310b1",
          "blockNumber": "0x72389f",
          "transactionHash": "0x0488734f105c874eb29db8bb21cfbcb4109b67157914bbd3d06c72c1d0f2020f",
          "transactionIndex": "0x48",
          "logIndex": "0x7b",
          "removed": false
        },
        {
          "address": "0xd7bc75898e513accccf720a874d44dab5a4b6223",
          "topics": [
            "0x4afcb4a87cdbd9974efdb92ee48bc8d7cd0ae4bf217004db3d080cbaee652ca7"
          ],
          "data": "0x00000000000000000000000000000000000000000000000000000000678598bc00000000000000000000000000000000000000000000000000038d7eb840c4c40000000000000000000000000000000000000000000000000160c9191a82ed64",
          "blockHash": "0x9e24e47543512602dbf56be8ea10ada9d3ada60c46c693494b03f56c5ad310b1",
          "blockNumber": "0x72389f",
          "transactionHash": "0x0488734f105c874eb29db8bb21cfbcb4109b67157914bbd3d06c72c1d0f2020f",
          "transactionIndex": "0x48",
          "logIndex": "0x7c",
          "removed": false
        }
      ],
      "logsBloom": "0x00000000000000000000000000000000000000000000000000000000000000000000000000000000000000000000000000000000000000004000000000000000000000000000000000000008000000000000000000000000000000000000000000000000020000000000000000000800020000000000000000000010000000000000000000000000000000000000000000000000000000000000010000000000000000000000000000000000000000004000001000000000000000000000000000000002000000800000000000004000000000000000080000000000000020000000000000000000000000000000000000000000080000000000000000000000",
      "type": "0x2",
      "transactionHash": "0x0488734f105c874eb29db8bb21cfbcb4109b67157914bbd3d06c72c1d0f2020f",
      "transactionIndex": "0x48",
      "blockHash": "0x9e24e47543512602dbf56be8ea10ada9d3ada60c46c693494b03f56c5ad310b1",
      "blockNumber": "0x72389f",
      "gasUsed": "0xfb93",
      "effectiveGasPrice": "0x235248f",
      "from": "0xc77f7fed3b5cc8249adc428c5f44c9063b9734b4",
      "to": "0xd7bc75898e513accccf720a874d44dab5a4b6223",
      "contractAddress": null
    }
  ],
  "libraries": [],
  "pending": [],
  "returns": {},
  "timestamp": 1736808637,
  "chain": 11155111,
  "commit": "51a374b"
}