{
  "transactions": [
    {
      "hash": "0x62bd345f7abe272affd144d4d70d0e9a9b0a6844ddb8ced440135b80c86df6d4",
      "transactionType": "CALL",
      "contractName": null,
      "contractAddress": "0x8aafd3ede9adb0ff97c7aebce82a919afb1c8764",
      "function": "sell(uint256)",
      "arguments": [
        "6194431896"
      ],
      "transaction": {
        "from": "0xc77f7fed3b5cc8249adc428c5f44c9063b9734b4",
        "to": "0x8aafd3ede9adb0ff97c7aebce82a919afb1c8764",
        "gas": "0x1722a",
        "value": "0x0",
        "input": "0xe4849b320000000000000000000000000000000000000000000000000000000171378798",
        "nonce": "0x1594",
        "chainId": "0xaa36a7"
      },
      "additionalContracts": [],
      "isFixedGasLimit": false
    }
  ],
  "receipts": [
    {
      "status": "0x1",
      "cumulativeGasUsed": "0x7b6bd7",
      "logs": [
        {
          "address": "0x8aafd3ede9adb0ff97c7aebce82a919afb1c8764",
          "topics": [
            "0xddf252ad1be2c89b69c2b068fc378daa952ba7f163c4a11628f55a4df523b3ef",
            "0x000000000000000000000000c77f7fed3b5cc8249adc428c5f44c9063b9734b4",
            "0x0000000000000000000000000000000000000000000000000000000000000000"
          ],
          "data": "0x000000000000000000000000000000000000000000000000000000016e435f99",
          "blockHash": "0xf277decc4c490f917070398eb9f3028326d1629c948ccc6dcb6a4974a772afe8",
          "blockNumber": "0x731d03",
          "transactionHash": "0x62bd345f7abe272affd144d4d70d0e9a9b0a6844ddb8ced440135b80c86df6d4",
          "transactionIndex": "0x63",
          "logIndex": "0x81",
          "removed": false
        },
        {
          "address": "0x8aafd3ede9adb0ff97c7aebce82a919afb1c8764",
          "topics": [
            "0xddf252ad1be2c89b69c2b068fc378daa952ba7f163c4a11628f55a4df523b3ef",
            "0x000000000000000000000000c77f7fed3b5cc8249adc428c5f44c9063b9734b4",
            "0x000000000000000000000000c77f7fed3b5cc8249adc428c5f44c9063b9734b4"
          ],
          "data": "0x0000000000000000000000000000000000000000000000000000000002f427ff",
          "blockHash": "0xf277decc4c490f917070398eb9f3028326d1629c948ccc6dcb6a4974a772afe8",
          "blockNumber": "0x731d03",
          "transactionHash": "0x62bd345f7abe272affd144d4d70d0e9a9b0a6844ddb8ced440135b80c86df6d4",
          "transactionIndex": "0x63",
          "logIndex": "0x82",
          "removed": false
        },
        {
          "address": "0x8aafd3ede9adb0ff97c7aebce82a919afb1c8764",
          "topics": [
            "0x4afcb4a87cdbd9974efdb92ee48bc8d7cd0ae4bf217004db3d080cbaee652ca7"
          ],
          "data": "0x000000000000000000000000000000000000000000000000000000006790590c0000000000000000000000000000000000000000000000000012c4280dbb2f410000000000000000000000000000000000000000000000000000000001f34604",
          "blockHash": "0xf277decc4c490f917070398eb9f3028326d1629c948ccc6dcb6a4974a772afe8",
          "blockNumber": "0x731d03",
          "transactionHash": "0x62bd345f7abe272affd144d4d70d0e9a9b0a6844ddb8ced440135b80c86df6d4",
          "transactionIndex": "0x63",
          "logIndex": "0x83",
          "removed": false
        }
      ],
      "logsBloom": "0x00000000000000000000000000000000000000000600000000000000000000000000000000000000000000000000000000000000000000004000000000000000000000000000004000000008000000000000000000000000000000000000000000000000020000000000000000000800020000000000000000000010000000000000000000000000000000000000000000000000000000000000010000000000000000000000000000000000000000004000000000000000000000000000000000000002000000800000000000000000000000000000080000000000000020000000000000000000000000000000000000000000000000000000000000000000",
      "type": "0x2",
      "transactionHash": "0x62bd345f7abe272affd144d4d70d0e9a9b0a6844ddb8ced440135b80c86df6d4",
      "transactionIndex": "0x63",
      "blockHash": "0xf277decc4c490f917070398eb9f3028326d1629c948ccc6dcb6a4974a772afe8",
      "blockNumber": "0x731d03",
      "gasUsed": "0xfd1b",
      "effectiveGasPrice": "0x711a8d08",
      "from": "0xc77f7fed3b5cc8249adc428c5f44c9063b9734b4",
      "to": "0x8aafd3ede9adb0ff97c7aebce82a919afb1c8764",
      "contractAddress": null
    }
  ],
  "libraries": [],
  "pending": [],
  "returns": {},
  "timestamp": 1737513228,
  "chain": 11155111,
  "commit": "1d2fb70"
}