{
  "transactions": [
    {
      "hash": "0x41dfd9852c3b1f098708269439f3068a56b11a34ccb05ee984c8e5e319afc5ef",
      "transactionType": "CALL",
      "contractName": null,
      "contractAddress": "0x5eb9cc76c3506942c1c0ead70e877dd5e4f00cb0",
      "function": "buy(address)",
      "arguments": [
        "0xC77f7fed3b5Cc8249aDc428c5F44C9063B9734b4"
      ],
      "transaction": {
        "from": "0xc77f7fed3b5cc8249adc428c5f44c9063b9734b4",
        "to": "0x5eb9cc76c3506942c1c0ead70e877dd5e4f00cb0",
        "gas": "0x156c8",
        "value": "0xde0b6b3a7640000",
        "input": "0xf088d547000000000000000000000000c77f7fed3b5cc8249adc428c5f44c9063b9734b4",
        "nonce": "0x199",
        "chainId": "0xaa36a7"
      },
      "additionalContracts": [],
      "isFixedGasLimit": false
    }
  ],
  "receipts": [
    {
      "status": "0x1",
      "cumulativeGasUsed": "0x1f94230",
      "logs": [
        {
          "address": "0x5eb9cc76c3506942c1c0ead70e877dd5e4f00cb0",
          "topics": [
            "0xddf252ad1be2c89b69c2b068fc378daa952ba7f163c4a11628f55a4df523b3ef",
            "0x0000000000000000000000000000000000000000000000000000000000000000",
            "0x000000000000000000000000c77f7fed3b5cc8249adc428c5f44c9063b9734b4"
          ],
          "data": "0x000000000000000000000000000000000000000000000035a37c02c752b1ec69",
          "blockHash": "0xde5edb38c5bce39d170592b1e71695ee85d1017297110e5e2606644df0d51901",
          "blockNumber": "0x723c7f",
          "transactionHash": "0x41dfd9852c3b1f098708269439f3068a56b11a34ccb05ee984c8e5e319afc5ef",
          "transactionIndex": "0x39",
          "logIndex": "0x10db",
          "removed": false
        },
        {
          "address": "0x5eb9cc76c3506942c1c0ead70e877dd5e4f00cb0",
          "topics": [
            "0xddf252ad1be2c89b69c2b068fc378daa952ba7f163c4a11628f55a4df523b3ef",
            "0x0000000000000000000000000000000000000000000000000000000000000000",
            "0x000000000000000000000000c77f7fed3b5cc8249adc428c5f44c9063b9734b4"
          ],
          "data": "0x00000000000000000000000000000000000000000000000029a6f74db0ef869d",
          "blockHash": "0xde5edb38c5bce39d170592b1e71695ee85d1017297110e5e2606644df0d51901",
          "blockNumber": "0x723c7f",
          "transactionHash": "0x41dfd9852c3b1f098708269439f3068a56b11a34ccb05ee984c8e5e319afc5ef",
          "transactionIndex": "0x39",
          "logIndex": "0x10dc",
          "removed": false
        },
        {
          "address": "0x5eb9cc76c3506942c1c0ead70e877dd5e4f00cb0",
          "topics": [
            "0x4afcb4a87cdbd9974efdb92ee48bc8d7cd0ae4bf217004db3d080cbaee652ca7"
          ],
          "data": "0x000000000000000000000000000000000000000000000000000000006785c74800000000000000000000000000000000000000000000000000038dfe45edd1e60000000000000000000000000000000000000000000000000de0b6b3a7640000",
          "blockHash": "0xde5edb38c5bce39d170592b1e71695ee85d1017297110e5e2606644df0d51901",
          "blockNumber": "0x723c7f",
          "transactionHash": "0x41dfd9852c3b1f098708269439f3068a56b11a34ccb05ee984c8e5e319afc5ef",
          "transactionIndex": "0x39",
          "logIndex": "0x10dd",
          "removed": false
        }
      ],
      "logsBloom": "0x00000000000000000000000000000000000000000000000000000000000000000000000000000000000000000000000000000000000000004000000000000000000000000000000000000008000000000000000000000000000000000000000000000000020000000000000004000800020000000000000000000010000000000000000000000000000000000000000000000000000000000000010000000000000000000000000000000000000000004000000000000000000000000000020000000002000000800000008000000000000000000000080000000000000020000000000000000000000000000000000000000000000000000000000000000000",
      "type": "0x2",
      "transactionHash": "0x41dfd9852c3b1f098708269439f3068a56b11a34ccb05ee984c8e5e319afc5ef",
      "transactionIndex": "0x39",
      "blockHash": "0xde5edb38c5bce39d170592b1e71695ee85d1017297110e5e2606644df0d51901",
      "blockNumber": "0x723c7f",
      "gasUsed": "0xf82c",
      "effectiveGasPrice": "0x1cd66472b",
      "from": "0xc77f7fed3b5cc8249adc428c5f44c9063b9734b4",
      "to": "0x5eb9cc76c3506942c1c0ead70e877dd5e4f00cb0",
      "contractAddress": null
    }
  ],
  "libraries": [],
  "pending": [],
  "returns": {},
  "timestamp": 1736820554,
  "chain": 11155111,
  "commit": "51a374b"
}