{
  "transactions": [
    {
      "hash": "0xf9b3ad076b03ca02a3e6cc8e42fc3a78ce7a519cd59a4f486e1c3a43529e098f",
      "transactionType": "CALL",
      "contractName": null,
      "contractAddress": "0x8aafd3ede9adb0ff97c7aebce82a919afb1c8764",
      "function": "sell(uint256)",
      "arguments": [
        "1495609973308194197"
      ],
      "transaction": {
        "from": "0xc77f7fed3b5cc8249adc428c5f44c9063b9734b4",
        "to": "0x8aafd3ede9adb0ff97c7aebce82a919afb1c8764",
        "gas": "0x15dca",
        "value": "0x0",
        "input": "0xe4849b3200000000000000000000000000000000000000000000000014c17958bd90fd95",
        "nonce": "0x15a2",
        "chainId": "0xaa36a7"
      },
      "additionalContracts": [],
      "isFixedGasLimit": false
    }
  ],
  "receipts": [
    {
      "status": "0x1",
      "cumulativeGasUsed": "0xeaf944",
      "logs": [
        {
          "address": "0x8aafd3ede9adb0ff97c7aebce82a919afb1c8764",
          "topics": [
            "0xddf252ad1be2c89b69c2b068fc378daa952ba7f163c4a11628f55a4df523b3ef",
            "0x000000000000000000000000c77f7fed3b5cc8249adc428c5f44c9063b9734b4",
            "0x0000000000000000000000000000000000000000000000000000000000000000"
          ],
          "data": "0x0000000000000000000000000000000000000000000000001496f75a141d2484",
          "blockHash": "0xb4afdcab0795dd6b9492db3007d80cc6aacded4cccd2d48ebae2dd17e5951b41",
          "blockNumber": "0x731d15",
          "transactionHash": "0xf9b3ad076b03ca02a3e6cc8e42fc3a78ce7a519cd59a4f486e1c3a43529e098f",
          "transactionIndex": "0x84",
          "logIndex": "0x110",
          "removed": false
        },
        {
          "address": "0x8aafd3ede9adb0ff97c7aebce82a919afb1c8764",
          "topics": [
            "0xddf252ad1be2c89b69c2b068fc378daa952ba7f163c4a11628f55a4df523b3ef",
            "0x000000000000000000000000c77f7fed3b5cc8249adc428c5f44c9063b9734b4",
            "0x000000000000000000000000c77f7fed3b5cc8249adc428c5f44c9063b9734b4"
          ],
          "data": "0x000000000000000000000000000000000000000000000000002a81fea973d911",
          "blockHash": "0xb4afdcab0795dd6b9492db3007d80cc6aacded4cccd2d48ebae2dd17e5951b41",
          "blockNumber": "0x731d15",
          "transactionHash": "0xf9b3ad076b03ca02a3e6cc8e42fc3a78ce7a519cd59a4f486e1c3a43529e098f",
          "transactionIndex": "0x84",
          "logIndex": "0x111",
          "removed": false
        },
        {
          "address": "0x8aafd3ede9adb0ff97c7aebce82a919afb1c8764",
          "topics": [
            "0x4afcb4a87cdbd9974efdb92ee48bc8d7cd0ae4bf217004db3d080cbaee652ca7"
          ],
          "data": "0x00000000000000000000000000000000000000000000000000000000679059e40000000000000000000000000000000000000000000000000012f985f0bcb20e000000000000000000000000000000000000000000000000001c60b884004418",
          "blockHash": "0xb4afdcab0795dd6b9492db3007d80cc6aacded4cccd2d48ebae2dd17e5951b41",
          "blockNumber": "0x731d15",
          "transactionHash": "0xf9b3ad076b03ca02a3e6cc8e42fc3a78ce7a519cd59a4f486e1c3a43529e098f",
          "transactionIndex": "0x84",
          "logIndex": "0x112",
          "removed": false
        }
      ],
      "logsBloom": "0x00000000000000000000000000000000000000000600000000000000000000000000000000000000000000000000000000000000000000004000000000000000000000000000004000000008000000000000000000000000000000000000000000000000020000000000000000000800020000000000000000000010000000000000000000000000000000000000000000000000000000000000010000000000000000000000000000000000000000004000000000000000000000000000000000000002000000800000000000000000000000000000080000000000000020000000000000000000000000000000000000000000000000000000000000000000",
      "type": "0x2",
      "transactionHash": "0xf9b3ad076b03ca02a3e6cc8e42fc3a78ce7a519cd59a4f486e1c3a43529e098f",
      "transactionIndex": "0x84",
      "blockHash": "0xb4afdcab0795dd6b9492db3007d80cc6aacded4cccd2d48ebae2dd17e5951b41",
      "blockNumber": "0x731d15",
      "gasUsed": "0xfd3f",
      "effectiveGasPrice": "0x536c95d2",
      "from": "0xc77f7fed3b5cc8249adc428c5f44c9063b9734b4",
      "to": "0x8aafd3ede9adb0ff97c7aebce82a919afb1c8764",
      "contractAddress": null
    }
  ],
  "libraries": [],
  "pending": [],
  "returns": {},
  "timestamp": 1737513444,
  "chain": 11155111,
  "commit": "1d2fb70"
}