{
  "transactions": [
    {
      "hash": "0xec3be82e51e8c1a8eb794a4b5df2ff6c6316f9bee800f5dba72dc40cc065f297",
      "transactionType": "CALL",
      "contractName": null,
      "contractAddress": "0x270e88f8683660553e8ba4eb2ad7c91a1710d769",
      "function": "sell(uint256)",
      "arguments": [
        "754599825328046493195"
      ],
      "transaction": {
        "from": "0xc77f7fed3b5cc8249adc428c5f44c9063b9734b4",
        "to": "0x270e88f8683660553e8ba4eb2ad7c91a1710d769",
        "gas": "0x16fec",
        "value": "0x0",
        "input": "0xe4849b32000000000000000000000000000000000000000000000028e82d1f183a064e0b",
        "nonce": "0x69a",
        "chainId": "0xaa36a7"
      },
      "additionalContracts": [],
      "isFixedGasLimit": false
    }
  ],
  "receipts": [
    {
      "status": "0x1",
      "cumulativeGasUsed": "0x10fd9a4",
      "logs": [
        {
          "address": "0x270e88f8683660553e8ba4eb2ad7c91a1710d769",
          "topics": [
            "0xddf252ad1be2c89b69c2b068fc378daa952ba7f163c4a11628f55a4df523b3ef",
            "0x000000000000000000000000c77f7fed3b5cc8249adc428c5f44c9063b9734b4",
            "0x0000000000000000000000000000000000000000000000000000000000000000"
          ],
          "data": "0x000000000000000000000000000000000000000000000028e82d1f183a064e0b",
          "blockHash": "0x81ab7b8a87448eb9aeb2af807160da1bca208a89a554585a18410ff8c1f1b5d3",
          "blockNumber": "0x72539e",
          "transactionHash": "0xec3be82e51e8c1a8eb794a4b5df2ff6c6316f9bee800f5dba72dc40cc065f297",
          "transactionIndex": "0x47",
          "logIndex": "0x69",
          "removed": false
        },
        {
          "address": "0x270e88f8683660553e8ba4eb2ad7c91a1710d769",
          "topics": [
            "0x4afcb4a87cdbd9974efdb92ee48bc8d7cd0ae4bf217004db3d080cbaee652ca7"
          ],
          "data": "0x000000000000000000000000000000000000000000000000000000006786dd700000000000000000000000000000000000000000000000000004ad20927da5ee0000000000000000000000000000000000000000000000000dc82a02b1bb6cdc",
          "blockHash": "0x81ab7b8a87448eb9aeb2af807160da1bca208a89a554585a18410ff8c1f1b5d3",
          "blockNumber": "0x72539e",
          "transactionHash": "0xec3be82e51e8c1a8eb794a4b5df2ff6c6316f9bee800f5dba72dc40cc065f297",
          "transactionIndex": "0x47",
          "logIndex": "0x6a",
          "removed": false
        }
      ],
      "logsBloom": "0x00000000000000000000000000000000000000000000000000000000000000000000000000000000000000000000000020000000000000004000000000000000000000000000000000000008000000000000000000000000000000000000000000000000020000000000000000000800020000000000000000000010000000000000000000010000000000000000000000000000000000000000010000000000000000000000000000000000000000004000000000000000000000000000000000000002000000800000000000000000000000000000080000008000000020000000000000000000000000000000000000000000000000000000000000000000",
      "type": "0x2",
      "transactionHash": "0xec3be82e51e8c1a8eb794a4b5df2ff6c6316f9bee800f5dba72dc40cc065f297",
      "transactionIndex": "0x47",
      "blockHash": "0x81ab7b8a87448eb9aeb2af807160da1bca208a89a554585a18410ff8c1f1b5d3",
      "blockNumber": "0x72539e",
      "gasUsed": "0xfb93",
      "effectiveGasPrice": "0x1d2d99047",
      "from": "0xc77f7fed3b5cc8249adc428c5f44c9063b9734b4",
      "to": "0x270e88f8683660553e8ba4eb2ad7c91a1710d769",
      "contractAddress": null
    }
  ],
  "libraries": [],
  "pending": [],
  "returns": {},
  "timestamp": 1736891761,
  "chain": 11155111,
  "commit": "51a374b"
}