{
  "transactions": [
    {
      "hash": "0x9b78e5ee470fdad52dcb6326cb3f71f9dd67393a17b7d4a67e459937601c8bc8",
      "transactionType": "CALL",
      "contractName": null,
      "contractAddress": "0x270e88f8683660553e8ba4eb2ad7c91a1710d769",
      "function": "buy(address)",
      "arguments": [
        "0xC77f7fed3b5Cc8249aDc428c5F44C9063B9734b4"
      ],
      "transaction": {
        "from": "0xc77f7fed3b5cc8249adc428c5f44c9063b9734b4",
        "to": "0x270e88f8683660553e8ba4eb2ad7c91a1710d769",
        "gas": "0x1b30c",
        "value": "0xde0b6b3a7640000",
        "input": "0xf088d547000000000000000000000000c77f7fed3b5cc8249adc428c5f44c9063b9734b4",
        "nonce": "0x89d",
        "chainId": "0xaa36a7"
      },
      "additionalContracts": [],
      "isFixedGasLimit": false
    }
  ],
  "receipts": [
    {
      "status": "0x1",
      "cumulativeGasUsed": "0xccd589",
      "logs": [
        {
          "address": "0x270e88f8683660553e8ba4eb2ad7c91a1710d769",
          "topics": [
            "0xddf252ad1be2c89b69c2b068fc378daa952ba7f163c4a11628f55a4df523b3ef",
            "0x0000000000000000000000000000000000000000000000000000000000000000",
            "0x000000000000000000000000c77f7fed3b5cc8249adc428c5f44c9063b9734b4"
          ],
          "data": "0x0000000000000000000000000000000000000000000000265c56c07def5e8c6f",
          "blockHash": "0xe2b2bb28bca26e3efa0323634b8a7eaf63f0abd7b2f331cd28ddb5c5877ac279",
          "blockNumber": "0x7255fb",
          "transactionHash": "0x9b78e5ee470fdad52dcb6326cb3f71f9dd67393a17b7d4a67e459937601c8bc8",
          "transactionIndex": "0x41",
          "logIndex": "0x77",
          "removed": false
        },
        {
          "address": "0x270e88f8683660553e8ba4eb2ad7c91a1710d769",
          "topics": [
            "0xddf252ad1be2c89b69c2b068fc378daa952ba7f163c4a11628f55a4df523b3ef",
            "0x0000000000000000000000000000000000000000000000000000000000000000",
            "0x000000000000000000000000c77f7fed3b5cc8249adc428c5f44c9063b9734b4"
          ],
          "data": "0x0000000000000000000000000000000000000000000000001dc9d3fecc41741b",
          "blockHash": "0xe2b2bb28bca26e3efa0323634b8a7eaf63f0abd7b2f331cd28ddb5c5877ac279",
          "blockNumber": "0x7255fb",
          "transactionHash": "0x9b78e5ee470fdad52dcb6326cb3f71f9dd67393a17b7d4a67e459937601c8bc8",
          "transactionIndex": "0x41",
          "logIndex": "0x78",
          "removed": false
        },
        {
          "address": "0x270e88f8683660553e8ba4eb2ad7c91a1710d769",
          "topics": [
            "0x4afcb4a87cdbd9974efdb92ee48bc8d7cd0ae4bf217004db3d080cbaee652ca7"
          ],
          "data": "0x000000000000000000000000000000000000000000000000000000006786f9cc0000000000000000000000000000000000000000000000000004f88557777bf20000000000000000000000000000000000000000000000000de0b6b3a7640000",
          "blockHash": "0xe2b2bb28bca26e3efa0323634b8a7eaf63f0abd7b2f331cd28ddb5c5877ac279",
          "blockNumber": "0x7255fb",
          "transactionHash": "0x9b78e5ee470fdad52dcb6326cb3f71f9dd67393a17b7d4a67e459937601c8bc8",
          "transactionIndex": "0x41",
          "logIndex": "0x79",
          "removed": false
        }
      ],
      "logsBloom": "0x00000000000000000000000000000000000000000000000000000000000000000000000000000000000000000000000020000000000000004000000000000000000000000000000000000008000000000000000000000000000000000000000000000000020000000000000000000800020000000000000000000010000000000000000000010000000000000000000000000000000000000000010000000000000000000000000000000000000000004000000000000000000000000000000000000002000000800000000000000000000000000000080000008000000020000000000000000000000000000000000000000000000000000000000000000000",
      "type": "0x2",
      "transactionHash": "0x9b78e5ee470fdad52dcb6326cb3f71f9dd67393a17b7d4a67e459937601c8bc8",
      "transactionIndex": "0x41",
      "blockHash": "0xe2b2bb28bca26e3efa0323634b8a7eaf63f0abd7b2f331cd28ddb5c5877ac279",
      "blockNumber": "0x7255fb",
      "gasUsed": "0x13af8",
      "effectiveGasPrice": "0x9993ec04",
      "from": "0xc77f7fed3b5cc8249adc428c5f44c9063b9734b4",
      "to": "0x270e88f8683660553e8ba4eb2ad7c91a1710d769",
      "contractAddress": null
    }
  ],
  "libraries": [],
  "pending": [],
  "returns": {},
  "timestamp": 1736899022,
  "chain": 11155111,
  "commit": "51a374b"
}