{
  "transactions": [
    {
      "hash": "0x0501257534680e736b2f3a2cec90d93bb48d429c8862a01a00b36136761a3f81",
      "transactionType": "CALL",
      "contractName": null,
      "contractAddress": "0x270e88f8683660553e8ba4eb2ad7c91a1710d769",
      "function": "buy(address)",
      "arguments": [
        "0xC77f7fed3b5Cc8249aDc428c5F44C9063B9734b4"
      ],
      "transaction": {
        "from": "0xc77f7fed3b5cc8249adc428c5f44c9063b9734b4",
        "to": "0x270e88f8683660553e8ba4eb2ad7c91a1710d769",
        "gas": "0x1b30c",
        "value": "0xde0b6b3a7640000",
        "input": "0xf088d547000000000000000000000000c77f7fed3b5cc8249adc428c5f44c9063b9734b4",
        "nonce": "0x584",
        "chainId": "0xaa36a7"
      },
      "additionalContracts": [],
      "isFixedGasLimit": false
    }
  ],
  "receipts": [
    {
      "status": "0x1",
      "cumulativeGasUsed": "0x8b8eaa",
      "logs": [
        {
          "address": "0x270e88f8683660553e8ba4eb2ad7c91a1710d769",
          "topics": [
            "0xddf252ad1be2c89b69c2b068fc378daa952ba7f163c4a11628f55a4df523b3ef",
            "0x0000000000000000000000000000000000000000000000000000000000000000",
            "0x000000000000000000000000c77f7fed3b5cc8249adc428c5f44c9063b9734b4"
          ],
          "data": "0x00000000000000000000000000000000000000000000003430cf6be4f08fab1a",
          "blockHash": "0x46fd356410b1cd2e4d3fe3fc8414c6ec9e30c7a873b8e3a77d04eac914825a2b",
          "blockNumber": "0x725231",
          "transactionHash": "0x0501257534680e736b2f3a2cec90d93bb48d429c8862a01a00b36136761a3f81",
          "transactionIndex": "0x40",
          "logIndex": "0x7d",
          "removed": false
        },
        {
          "address": "0x270e88f8683660553e8ba4eb2ad7c91a1710d769",
          "topics": [
            "0xddf252ad1be2c89b69c2b068fc378daa952ba7f163c4a11628f55a4df523b3ef",
            "0x0000000000000000000000000000000000000000000000000000000000000000",
            "0x000000000000000000000000c77f7fed3b5cc8249adc428c5f44c9063b9734b4"
          ],
          "data": "0x00000000000000000000000000000000000000000000000028871ff8966223aa",
          "blockHash": "0x46fd356410b1cd2e4d3fe3fc8414c6ec9e30c7a873b8e3a77d04eac914825a2b",
          "blockNumber": "0x725231",
          "transactionHash": "0x0501257534680e736b2f3a2cec90d93bb48d429c8862a01a00b36136761a3f81",
          "transactionIndex": "0x40",
          "logIndex": "0x7e",
          "removed": false
        },
        {
          "address": "0x270e88f8683660553e8ba4eb2ad7c91a1710d769",
          "topics": [
            "0x4afcb4a87cdbd9974efdb92ee48bc8d7cd0ae4bf217004db3d080cbaee652ca7"
          ],
          "data": "0x000000000000000000000000000000000000000000000000000000006786cc3c0000000000000000000000000000000000000000000000000003a75804fcb0f90000000000000000000000000000000000000000000000000de0b6b3a7640000",
          "blockHash": "0x46fd356410b1cd2e4d3fe3fc8414c6ec9e30c7a873b8e3a77d04eac914825a2b",
          "blockNumber": "0x725231",
          "transactionHash": "0x0501257534680e736b2f3a2cec90d93bb48d429c8862a01a00b36136761a3f81",
          "transactionIndex": "0x40",
          "logIndex": "0x7f",
          "removed": false
        }
      ],
      "logsBloom": "0x00000000000000000000000000000000000000000000000000000000000000000000000000000000000000000000000020000000000000004000000000000000000000000000000000000008000000000000000000000000000000000000000000000000020000000000000000000800020000000000000000000010000000000000000000010000000000000000000000000000000000000000010000000000000000000000000000000000000000004000000000000000000000000000000000000002000000800000000000000000000000000000080000008000000020000000000000000000000000000000000000000000000000000000000000000000",
      "type": "0x2",
      "transactionHash": "0x0501257534680e736b2f3a2cec90d93bb48d429c8862a01a00b36136761a3f81",
      "transactionIndex": "0x40",
      "blockHash": "0x46fd356410b1cd2e4d3fe3fc8414c6ec9e30c7a873b8e3a77d04eac914825a2b",
      "blockNumber": "0x725231",
      "gasUsed": "0x13af8",
      "effectiveGasPrice": "0x3f93e355e",
      "from": "0xc77f7fed3b5cc8249adc428c5f44c9063b9734b4",
      "to": "0x270e88f8683660553e8ba4eb2ad7c91a1710d769",
      "contractAddress": null
    }
  ],
  "libraries": [],
  "pending": [],
  "returns": {},
  "timestamp": 1736887357,
  "chain": 11155111,
  "commit": "51a374b"
}