{
  "transactions": [
    {
      "hash": "0xa52a16c46f550b511a1faa7725491b9ea65c3607c5976bf9c3d7fb831f00212c",
      "transactionType": "CALL",
      "contractName": null,
      "contractAddress": "0x5eb9cc76c3506942c1c0ead70e877dd5e4f00cb0",
      "function": "buy(address)",
      "arguments": [
        "0xC77f7fed3b5Cc8249aDc428c5F44C9063B9734b4"
      ],
      "transaction": {
        "from": "0xc77f7fed3b5cc8249adc428c5f44c9063b9734b4",
        "to": "0x5eb9cc76c3506942c1c0ead70e877dd5e4f00cb0",
        "gas": "0x1b30c",
        "value": "0xde0b6b3a7640000",
        "input": "0xf088d547000000000000000000000000c77f7fed3b5cc8249adc428c5f44c9063b9734b4",
        "nonce": "0x304",
        "chainId": "0xaa36a7"
      },
      "additionalContracts": [],
      "isFixedGasLimit": false
    }
  ],
  "receipts": [
    {
      "status": "0x1",
      "cumulativeGasUsed": "0xe25316",
      "logs": [
        {
          "address": "0x5eb9cc76c3506942c1c0ead70e877dd5e4f00cb0",
          "topics": [
            "0xddf252ad1be2c89b69c2b068fc378daa952ba7f163c4a11628f55a4df523b3ef",
            "0x0000000000000000000000000000000000000000000000000000000000000000",
            "0x000000000000000000000000c77f7fed3b5cc8249adc428c5f44c9063b9734b4"
          ],
          "data": "0x00000000000000000000000000000000000000000000003575907610e1f006b2",
          "blockHash": "0xf93135ebebe41260ed6118a0d9caaa6169baacf2c1586545985d9778f66df1d3",
          "blockNumber": "0x724ee6",
          "transactionHash": "0xa52a16c46f550b511a1faa7725491b9ea65c3607c5976bf9c3d7fb831f00212c",
          "transactionIndex": "0x73",
          "logIndex": "0x9d",
          "removed": false
        },
        {
          "address": "0x5eb9cc76c3506942c1c0ead70e877dd5e4f00cb0",
          "topics": [
            "0xddf252ad1be2c89b69c2b068fc378daa952ba7f163c4a11628f55a4df523b3ef",
            "0x0000000000000000000000000000000000000000000000000000000000000000",
            "0x000000000000000000000000c77f7fed3b5cc8249adc428c5f44c9063b9734b4"
          ],
          "data": "0x00000000000000000000000000000000000000000000000029834eb7db597e62",
          "blockHash": "0xf93135ebebe41260ed6118a0d9caaa6169baacf2c1586545985d9778f66df1d3",
          "blockNumber": "0x724ee6",
          "transactionHash": "0xa52a16c46f550b511a1faa7725491b9ea65c3607c5976bf9c3d7fb831f00212c",
          "transactionIndex": "0x73",
          "logIndex": "0x9e",
          "removed": false
        },
        {
          "address": "0x5eb9cc76c3506942c1c0ead70e877dd5e4f00cb0",
          "topics": [
            "0x4afcb4a87cdbd9974efdb92ee48bc8d7cd0ae4bf217004db3d080cbaee652ca7"
          ],
          "data": "0x000000000000000000000000000000000000000000000000000000006786a47c0000000000000000000000000000000000000000000000000003910bef1b14630000000000000000000000000000000000000000000000000de0b6b3a7640000",
          "blockHash": "0xf93135ebebe41260ed6118a0d9caaa6169baacf2c1586545985d9778f66df1d3",
          "blockNumber": "0x724ee6",
          "transactionHash": "0xa52a16c46f550b511a1faa7725491b9ea65c3607c5976bf9c3d7fb831f00212c",
          "transactionIndex": "0x73",
          "logIndex": "0x9f",
          "removed": false
        }
      ],
      "logsBloom": "0x00000000000000000000000000000000000000000000000000000000000000000000000000000000000000000000000000000000000000004000000000000000000000000000000000000008000000000000000000000000000000000000000000000000020000000000000004000800020000000000000000000010000000000000000000000000000000000000000000000000000000000000010000000000000000000000000000000000000000004000000000000000000000000000020000000002000000800000008000000000000000000000080000000000000020000000000000000000000000000000000000000000000000000000000000000000",
      "type": "0x2",
      "transactionHash": "0xa52a16c46f550b511a1faa7725491b9ea65c3607c5976bf9c3d7fb831f00212c",
      "transactionIndex": "0x73",
      "blockHash": "0xf93135ebebe41260ed6118a0d9caaa6169baacf2c1586545985d9778f66df1d3",
      "blockNumber": "0x724ee6",
      "gasUsed": "0x13af8",
      "effectiveGasPrice": "0x68927d3b1",
      "from": "0xc77f7fed3b5cc8249adc428c5f44c9063b9734b4",
      "to": "0x5eb9cc76c3506942c1c0ead70e877dd5e4f00cb0",
      "contractAddress": null
    }
  ],
  "libraries": [],
  "pending": [],
  "returns": {},
  "timestamp": 1736877180,
  "chain": 11155111,
  "commit": "51a374b"
}