{
  "transactions": [
    {
      "hash": "0xb00effd19bd6a17c43e4d94bdff31cd96a8cb219df28567e136471771639f6b9",
      "transactionType": "CALL",
      "contractName": null,
      "contractAddress": "0x8aafd3ede9adb0ff97c7aebce82a919afb1c8764",
      "function": "sell(uint256)",
      "arguments": [
        "21846293347"
      ],
      "transaction": {
        "from": "0xc77f7fed3b5cc8249adc428c5f44c9063b9734b4",
        "to": "0x8aafd3ede9adb0ff97c7aebce82a919afb1c8764",
        "gas": "0x1722a",
        "value": "0x0",
        "input": "0xe4849b32000000000000000000000000000000000000000000000000000000051623fb63",
        "nonce": "0x12bc",
        "chainId": "0xaa36a7"
      },
      "additionalContracts": [],
      "isFixedGasLimit": false
    }
  ],
  "receipts": [
    {
      "status": "0x1",
      "cumulativeGasUsed": "0xe2e5fd",
      "logs": [
        {
          "address": "0x8aafd3ede9adb0ff97c7aebce82a919afb1c8764",
          "topics": [
            "0xddf252ad1be2c89b69c2b068fc378daa952ba7f163c4a11628f55a4df523b3ef",
            "0x000000000000000000000000c77f7fed3b5cc8249adc428c5f44c9063b9734b4",
            "0x0000000000000000000000000000000000000000000000000000000000000000"
          ],
          "data": "0x000000000000000000000000000000000000000000000000000000050bb932b9",
          "blockHash": "0xc619ff3ae723d3d137ae58442acf54e3ad59043fe249dfde9c801f182a4d13dc",
          "blockNumber": "0x7319b4",
          "transactionHash": "0xb00effd19bd6a17c43e4d94bdff31cd96a8cb219df28567e136471771639f6b9",
          "transactionIndex": "0x6a",
          "logIndex": "0x8e",
          "removed": false
        },
        {
          "address": "0x8aafd3ede9adb0ff97c7aebce82a919afb1c8764",
          "topics": [
            "0xddf252ad1be2c89b69c2b068fc378daa952ba7f163c4a11628f55a4df523b3ef",
            "0x000000000000000000000000c77f7fed3b5cc8249adc428c5f44c9063b9734b4",
            "0x000000000000000000000000c77f7fed3b5cc8249adc428c5f44c9063b9734b4"
          ],
          "data": "0x000000000000000000000000000000000000000000000000000000000a6ac8aa",
          "blockHash": "0xc619ff3ae723d3d137ae58442acf54e3ad59043fe249dfde9c801f182a4d13dc",
          "blockNumber": "0x7319b4",
          "transactionHash": "0xb00effd19bd6a17c43e4d94bdff31cd96a8cb219df28567e136471771639f6b9",
          "transactionIndex": "0x6a",
          "logIndex": "0x8f",
          "removed": false
        },
        {
          "address": "0x8aafd3ede9adb0ff97c7aebce82a919afb1c8764",
          "topics": [
            "0x4afcb4a87cdbd9974efdb92ee48bc8d7cd0ae4bf217004db3d080cbaee652ca7"
          ],
          "data": "0x000000000000000000000000000000000000000000000000000000006790314000000000000000000000000000000000000000000000000000054c171fd54bab0000000000000000000000000000000000000000000000000000000001f108c1",
          "blockHash": "0xc619ff3ae723d3d137ae58442acf54e3ad59043fe249dfde9c801f182a4d13dc",
          "blockNumber": "0x7319b4",
          "transactionHash": "0xb00effd19bd6a17c43e4d94bdff31cd96a8cb219df28567e136471771639f6b9",
          "transactionIndex": "0x6a",
          "logIndex": "0x90",
          "removed": false
        }
      ],
      "logsBloom": "0x00000000000000000000000000000000000000000600000000000000000000000000000000000000000000000000000000000000000000004000000000000000000000000000004000000008000000000000000000000000000000000000000000000000020000000000000000000800020000000000000000000010000000000000000000000000000000000000000000000000000000000000010000000000000000000000000000000000000000004000000000000000000000000000000000000002000000800000000000000000000000000000080000000000000020000000000000000000000000000000000000000000000000000000000000000000",
      "type": "0x2",
      "transactionHash": "0xb00effd19bd6a17c43e4d94bdff31cd96a8cb219df28567e136471771639f6b9",
      "transactionIndex": "0x6a",
      "blockHash": "0xc619ff3ae723d3d137ae58442acf54e3ad59043fe249dfde9c801f182a4d13dc",
      "blockNumber": "0x7319b4",
      "gasUsed": "0xfd1b",
      "effectiveGasPrice": "0x4240d842",
      "from": "0xc77f7fed3b5cc8249adc428c5f44c9063b9734b4",
      "to": "0x8aafd3ede9adb0ff97c7aebce82a919afb1c8764",
      "contractAddress": null
    }
  ],
  "libraries": [],
  "pending": [],
  "returns": {},
  "timestamp": 1737503042,
  "chain": 11155111,
  "commit": "1d2fb70"
}