{
  "transactions": [
    {
      "hash": "0x28be767b7c3ccad688b4a38a0640a707a83105d8fcff4ab6183342d860896772",
      "transactionType": "CALL",
      "contractName": null,
      "contractAddress": "0xbf4a322f1496e5c3d34a9bcdb4c60567b38c7de2",
      "function": "buy(address)",
      "arguments": [
        "0xC77f7fed3b5Cc8249aDc428c5F44C9063B9734b4"
      ],
      "transaction": {
        "from": "0xc77f7fed3b5cc8249adc428c5f44c9063b9734b4",
        "to": "0xbf4a322f1496e5c3d34a9bcdb4c60567b38c7de2",
        "gas": "0x1b309",
        "value": "0xde0b6b3a7640000",
        "input": "0xf088d547000000000000000000000000c77f7fed3b5cc8249adc428c5f44c9063b9734b4",
        "nonce": "0x8ea",
        "chainId": "0xaa36a7"
      },
      "additionalContracts": [],
      "isFixedGasLimit": false
    }
  ],
  "receipts": [
    {
      "status": "0x1",
      "cumulativeGasUsed": "0x9d7a67",
      "logs": [
        {
          "address": "0xbf4a322f1496e5c3d34a9bcdb4c60567b38c7de2",
          "topics": [
            "0xddf252ad1be2c89b69c2b068fc378daa952ba7f163c4a11628f55a4df523b3ef",
            "0x0000000000000000000000000000000000000000000000000000000000000000",
            "0x000000000000000000000000c77f7fed3b5cc8249adc428c5f44c9063b9734b4"
          ],
          "data": "0x0000000000000000000000000000000000000000000000358fd27b80cbe57896",
          "blockHash": "0x66dd9c5d1d03955ec7efa19172446692074cf07d7bc47b4586cc6d7579312de7",
          "blockNumber": "0x725861",
          "transactionHash": "0x28be767b7c3ccad688b4a38a0640a707a83105d8fcff4ab6183342d860896772",
          "transactionIndex": "0x5b",
          "logIndex": "0x91",
          "removed": false
        },
        {
          "address": "0xbf4a322f1496e5c3d34a9bcdb4c60567b38c7de2",
          "topics": [
            "0xddf252ad1be2c89b69c2b068fc378daa952ba7f163c4a11628f55a4df523b3ef",
            "0x0000000000000000000000000000000000000000000000000000000000000000",
            "0x000000000000000000000000c77f7fed3b5cc8249adc428c5f44c9063b9734b4"
          ],
          "data": "0x0000000000000000000000000000000000000000000000002997b298d3073610",
          "blockHash": "0x66dd9c5d1d03955ec7efa19172446692074cf07d7bc47b4586cc6d7579312de7",
          "blockNumber": "0x725861",
          "transactionHash": "0x28be767b7c3ccad688b4a38a0640a707a83105d8fcff4ab6183342d860896772",
          "transactionIndex": "0x5b",
          "logIndex": "0x92",
          "removed": false
        },
        {
          "address": "0xbf4a322f1496e5c3d34a9bcdb4c60567b38c7de2",
          "topics": [
            "0x4afcb4a87cdbd9974efdb92ee48bc8d7cd0ae4bf217004db3d080cbaee652ca7"
          ],
          "data": "0x00000000000000000000000000000000000000000000000000000000678716b800000000000000000000000000000000000000000000000000038f4ea09a021f0000000000000000000000000000000000000000000000000de0b6b3a7640000",
          "blockHash": "0x66dd9c5d1d03955ec7efa19172446692074cf07d7bc47b4586cc6d7579312de7",
          "blockNumber": "0x725861",
          "transactionHash": "0x28be767b7c3ccad688b4a38a0640a707a83105d8fcff4ab6183342d860896772",
          "transactionIndex": "0x5b",
          "logIndex": "0x93",
          "removed": false
        }
      ],
      "logsBloom": "0x00000000000000000000000000000000000000000000000000000000000000000000000000000000000000000000000000000000000000004000000000000000000000000000000000000008000000000000001000000000000000000000000000000000020000000000000000000800020000000000000000000010000000000000000000000000000000000000000000000000000008000000010000000000000000000000000000000000000000004000000000000000000000000000000000000002000000800000000000001000000000000000080000000000000020000000000000000000000000000000000000000000000000000000000000000000",
      "type": "0x2",
      "transactionHash": "0x28be767b7c3ccad688b4a38a0640a707a83105d8fcff4ab6183342d860896772",
      "transactionIndex": "0x5b",
      "blockHash": "0x66dd9c5d1d03955ec7efa19172446692074cf07d7bc47b4586cc6d7579312de7",
      "blockNumber": "0x725861",
      "gasUsed": "0x13af6",
      "effectiveGasPrice": "0x248ddf23",
      "from": "0xc77f7fed3b5cc8249adc428c5f44c9063b9734b4",
      "to": "0xbf4a322f1496e5c3d34a9bcdb4c60567b38c7de2",
      "contractAddress": null
    }
  ],
  "libraries": [],
  "pending": [],
  "returns": {},
  "timestamp": 1736906425,
  "chain": 11155111,
  "commit": "51a374b"
}