{
  "transactions": [
    {
      "hash": "0x5a01c7c06d5901186b4cd80c0e033c442c43c10fafb78db550c244dab12ea15e",
      "transactionType": "CALL",
      "contractName": null,
      "contractAddress": "0x8aafd3ede9adb0ff97c7aebce82a919afb1c8764",
      "function": "sell(uint256)",
      "arguments": [
        "422336"
      ],
      "transaction": {
        "from": "0xc77f7fed3b5cc8249adc428c5f44c9063b9734b4",
        "to": "0x8aafd3ede9adb0ff97c7aebce82a919afb1c8764",
        "gas": "0x16208",
        "value": "0x0",
        "input": "0xe4849b3200000000000000000000000000000000000000000000000000000000000671c0",
        "nonce": "0x1533",
        "chainId": "0xaa36a7"
      },
      "additionalContracts": [],
      "isFixedGasLimit": false
    }
  ],
  "receipts": [
    {
      "status": "0x1",
      "cumulativeGasUsed": "0xc8ee41",
      "logs": [
        {
          "address": "0x8aafd3ede9adb0ff97c7aebce82a919afb1c8764",
          "topics": [
            "0xddf252ad1be2c89b69c2b068fc378daa952ba7f163c4a11628f55a4df523b3ef",
            "0x000000000000000000000000c77f7fed3b5cc8249adc428c5f44c9063b9734b4",
            "0x0000000000000000000000000000000000000000000000000000000000000000"
          ],
          "data": "0x000000000000000000000000000000000000000000000000000000000006648e",
          "blockHash": "0xa3eac330bf96612cdaf0a5d2e0503614b79b04e9d2d1651667a72f906bc7dd3e",
          "blockNumber": "0x731c96",
          "transactionHash": "0x5a01c7c06d5901186b4cd80c0e033c442c43c10fafb78db550c244dab12ea15e",
          "transactionIndex": "0x75",
          "logIndex": "0x10b",
          "removed": false
        },
        {
          "address": "0x8aafd3ede9adb0ff97c7aebce82a919afb1c8764",
          "topics": [
            "0xddf252ad1be2c89b69c2b068fc378daa952ba7f163c4a11628f55a4df523b3ef",
            "0x000000000000000000000000c77f7fed3b5cc8249adc428c5f44c9063b9734b4",
            "0x000000000000000000000000c77f7fed3b5cc8249adc428c5f44c9063b9734b4"
          ],
          "data": "0x0000000000000000000000000000000000000000000000000000000000000d32",
          "blockHash": "0xa3eac330bf96612cdaf0a5d2e0503614b79b04e9d2d1651667a72f906bc7dd3e",
          "blockNumber": "0x731c96",
          "transactionHash": "0x5a01c7c06d5901186b4cd80c0e033c442c43c10fafb78db550c244dab12ea15e",
          "transactionIndex": "0x75",
          "logIndex": "0x10c",
          "removed": false
        },
        {
          "address": "0x8aafd3ede9adb0ff97c7aebce82a919afb1c8764",
          "topics": [
            "0x4afcb4a87cdbd9974efdb92ee48bc8d7cd0ae4bf217004db3d080cbaee652ca7"
          ],
          "data": "0x00000000000000000000000000000000000000000000000000000000679053e400000000000000000000000000000000000000000000000000119f2bc1a6af85000000000000000000000000000000000000000000000000000000000000082e",
          "blockHash": "0xa3eac330bf96612cdaf0a5d2e0503614b79b04e9d2d1651667a72f906bc7dd3e",
          "blockNumber": "0x731c96",
          "transactionHash": "0x5a01c7c06d5901186b4cd80c0e033c442c43c10fafb78db550c244dab12ea15e",
          "transactionIndex": "0x75",
          "logIndex": "0x10d",
          "removed": false
        }
      ],
      "logsBloom": "0x00000000000000000000000000000000000000000600000000000000000000000000000000000000000000000000000000000000000000004000000000000000000000000000004000000008000000000000000000000000000000000000000000000000020000000000000000000800020000000000000000000010000000000000000000000000000000000000000000000000000000000000010000000000000000000000000000000000000000004000000000000000000000000000000000000002000000800000000000000000000000000000080000000000000020000000000000000000000000000000000000000000000000000000000000000000",
      "type": "0x2",
      "transactionHash": "0x5a01c7c06d5901186b4cd80c0e033c442c43c10fafb78db550c244dab12ea15e",
      "transactionIndex": "0x75",
      "blockHash": "0xa3eac330bf96612cdaf0a5d2e0503614b79b04e9d2d1651667a72f906bc7dd3e",
      "blockNumber": "0x731c96",
      "gasUsed": "0xf213",
      "effectiveGasPrice": "0xebbda6f6",
      "from": "0xc77f7fed3b5cc8249adc428c5f44c9063b9734b4",
      "to": "0x8aafd3ede9adb0ff97c7aebce82a919afb1c8764",
      "contractAddress": null
    }
  ],
  "libraries": [],
  "pending": [],
  "returns": {},
  "timestamp": 1737511911,
  "chain": 11155111,
  "commit": "1d2fb70"
}