{
  "transactions": [
    {
      "hash": "0x67a95e8a69f1a92bf4c20a348f5a117a6e52b348d15f600d7296d9bb2d0cd258",
      "transactionType": "CALL",
      "contractName": null,
      "contractAddress": "0x5eb9cc76c3506942c1c0ead70e877dd5e4f00cb0",
      "function": "sell(uint256)",
      "arguments": [
        "989129958412970042870"
      ],
      "transaction": {
        "from": "0xc77f7fed3b5cc8249adc428c5f44c9063b9734b4",
        "to": "0x5eb9cc76c3506942c1c0ead70e877dd5e4f00cb0",
        "gas": "0x16fec",
        "value": "0x0",
        "input": "0xe4849b320000000000000000000000000000000000000000000000359eef888a9dfb25f6",
        "nonce": "0x345",
        "chainId": "0xaa36a7"
      },
      "additionalContracts": [],
      "isFixedGasLimit": false
    }
  ],
  "receipts": [
    {
      "status": "0x1",
      "cumulativeGasUsed": "0x9e314d",
      "logs": [
        {
          "address": "0x5eb9cc76c3506942c1c0ead70e877dd5e4f00cb0",
          "topics": [
            "0xddf252ad1be2c89b69c2b068fc378daa952ba7f163c4a11628f55a4df523b3ef",
            "0x000000000000000000000000c77f7fed3b5cc8249adc428c5f44c9063b9734b4",
            "0x0000000000000000000000000000000000000000000000000000000000000000"
          ],
          "data": "0x0000000000000000000000000000000000000000000000359eef888a9dfb25f6",
          "blockHash": "0x3b0c37f898e5fee9f28cad7d8867ec44657b3ca157111086d9c3e8624d9e7945",
          "blockNumber": "0x724f34",
          "transactionHash": "0x67a95e8a69f1a92bf4c20a348f5a117a6e52b348d15f600d7296d9bb2d0cd258",
          "transactionIndex": "0x48",
          "logIndex": "0x7d",
          "removed": false
        },
        {
          "address": "0x5eb9cc76c3506942c1c0ead70e877dd5e4f00cb0",
          "topics": [
            "0x4afcb4a87cdbd9974efdb92ee48bc8d7cd0ae4bf217004db3d080cbaee652ca7"
          ],
          "data": "0x000000000000000000000000000000000000000000000000000000006786a8240000000000000000000000000000000000000000000000000003910e6472055f0000000000000000000000000000000000000000000000000dc7db13321cc160",
          "blockHash": "0x3b0c37f898e5fee9f28cad7d8867ec44657b3ca157111086d9c3e8624d9e7945",
          "blockNumber": "0x724f34",
          "transactionHash": "0x67a95e8a69f1a92bf4c20a348f5a117a6e52b348d15f600d7296d9bb2d0cd258",
          "transactionIndex": "0x48",
          "logIndex": "0x7e",
          "removed": false
        }
      ],
      "logsBloom": "0x00000000000000000000000000000000000000000000000000000000000000000000000000000000000000000000000000000000000000004000000000000000000000000000000000000008000000000000000000000000000000000000000000000000020000000000000004000800020000000000000000000010000000000000000000000000000000000000000000000000000000000000010000000000000000000000000000000000000000004000000000000000000000000000020000000002000000800000008000000000000000000000080000000000000020000000000000000000000000000000000000000000000000000000000000000000",
      "type": "0x2",
      "transactionHash": "0x67a95e8a69f1a92bf4c20a348f5a117a6e52b348d15f600d7296d9bb2d0cd258",
      "transactionIndex": "0x48",
      "blockHash": "0x3b0c37f898e5fee9f28cad7d8867ec44657b3ca157111086d9c3e8624d9e7945",
      "blockNumber": "0x724f34",
      "gasUsed": "0xfb93",
      "effectiveGasPrice": "0x5f6d63b88",
      "from": "0xc77f7fed3b5cc8249adc428c5f44c9063b9734b4",
      "to": "0x5eb9cc76c3506942c1c0ead70e877dd5e4f00cb0",
      "contractAddress": null
    }
  ],
  "libraries": [],
  "pending": [],
  "returns": {},
  "timestamp": 1736878118,
  "chain": 11155111,
  "commit": "51a374b"
}