{
  "transactions": [
    {
      "hash": "0x8444fdce24aa7c787b1221ccbb1cdf65d6f3ddb8efa227fabc06b05d37fe0f3c",
      "transactionType": "CALL",
      "contractName": null,
      "contractAddress": "0x270e88f8683660553e8ba4eb2ad7c91a1710d769",
      "function": "sell(uint256)",
      "arguments": [
        "742068009924462306845"
      ],
      "transaction": {
        "from": "0xc77f7fed3b5cc8249adc428c5f44c9063b9734b4",
        "to": "0x270e88f8683660553e8ba4eb2ad7c91a1710d769",
        "gas": "0x16fec",
        "value": "0x0",
        "input": "0xe4849b320000000000000000000000000000000000000000000000283a432b61a89ee61d",
        "nonce": "0x724",
        "chainId": "0xaa36a7"
      },
      "additionalContracts": [],
      "isFixedGasLimit": false
    }
  ],
  "receipts": [
    {
      "status": "0x1",
      "cumulativeGasUsed": "0x49892d",
      "logs": [
        {
          "address": "0x270e88f8683660553e8ba4eb2ad7c91a1710d769",
          "topics": [
            "0xddf252ad1be2c89b69c2b068fc378daa952ba7f163c4a11628f55a4df523b3ef",
            "0x000000000000000000000000c77f7fed3b5cc8249adc428c5f44c9063b9734b4",
            "0x0000000000000000000000000000000000000000000000000000000000000000"
          ],
          "data": "0x0000000000000000000000000000000000000000000000283a432b61a89ee61d",
          "blockHash": "0x820b32a29f971676babb80a06d6d071c066554d203b12ffa91cccf61d98f6df2",
          "blockNumber": "0x725441",
          "transactionHash": "0x8444fdce24aa7c787b1221ccbb1cdf65d6f3ddb8efa227fabc06b05d37fe0f3c",
          "transactionIndex": "0x27",
          "logIndex": "0x51",
          "removed": false
        },
        {
          "address": "0x270e88f8683660553e8ba4eb2ad7c91a1710d769",
          "topics": [
            "0x4afcb4a87cdbd9974efdb92ee48bc8d7cd0ae4bf217004db3d080cbaee652ca7"
          ],
          "data": "0x000000000000000000000000000000000000000000000000000000006786e5140000000000000000000000000000000000000000000000000004c156ca58a27a0000000000000000000000000000000000000000000000000dc828b6c34bb6d3",
          "blockHash": "0x820b32a29f971676babb80a06d6d071c066554d203b12ffa91cccf61d98f6df2",
          "blockNumber": "0x725441",
          "transactionHash": "0x8444fdce24aa7c787b1221ccbb1cdf65d6f3ddb8efa227fabc06b05d37fe0f3c",
          "transactionIndex": "0x27",
          "logIndex": "0x52",
          "removed": false
        }
      ],
      "logsBloom": "0x00000000000000000000000000000000000000000000000000000000000000000000000000000000000000000000000020000000000000004000000000000000000000000000000000000008000000000000000000000000000000000000000000000000020000000000000000000800020000000000000000000010000000000000000000010000000000000000000000000000000000000000010000000000000000000000000000000000000000004000000000000000000000000000000000000002000000800000000000000000000000000000080000008000000020000000000000000000000000000000000000000000000000000000000000000000",
      "type": "0x2",
      "transactionHash": "0x8444fdce24aa7c787b1221ccbb1cdf65d6f3ddb8efa227fabc06b05d37fe0f3c",
      "transactionIndex": "0x27",
      "blockHash": "0x820b32a29f971676babb80a06d6d071c066554d203b12ffa91cccf61d98f6df2",
      "blockNumber": "0x725441",
      "gasUsed": "0xfb93",
      "effectiveGasPrice": "0x170a571d5",
      "from": "0xc77f7fed3b5cc8249adc428c5f44c9063b9734b4",
      "to": "0x270e88f8683660553e8ba4eb2ad7c91a1710d769",
      "contractAddress": null
    }
  ],
  "libraries": [],
  "pending": [],
  "returns": {},
  "timestamp": 1736893717,
  "chain": 11155111,
  "commit": "51a374b"
}