{
  "transactions": [
    {
      "hash": "0x2b384362cbdef633ee9c1753859de298ab0fce1f706921e936e6418dede6ae24",
      "transactionType": "CALL",
      "contractName": null,
      "contractAddress": "0x8aafd3ede9adb0ff97c7aebce82a919afb1c8764",
      "function": "sell(uint256)",
      "arguments": [
        "5629421185940592161"
      ],
      "transaction": {
        "from": "0xc77f7fed3b5cc8249adc428c5f44c9063b9734b4",
        "to": "0x8aafd3ede9adb0ff97c7aebce82a919afb1c8764",
        "gas": "0x15dca",
        "value": "0x0",
        "input": "0xe4849b320000000000000000000000000000000000000000000000004e1fb8be1f0c1621",
        "nonce": "0x10ce",
        "chainId": "0xaa36a7"
      },
      "additionalContracts": [],
      "isFixedGasLimit": false
    }
  ],
  "receipts": [
    {
      "status": "0x1",
      "cumulativeGasUsed": "0xb69613",
      "logs": [
        {
          "address": "0x8aafd3ede9adb0ff97c7aebce82a919afb1c8764",
          "topics": [
            "0xddf252ad1be2c89b69c2b068fc378daa952ba7f163c4a11628f55a4df523b3ef",
            "0x000000000000000000000000c77f7fed3b5cc8249adc428c5f44c9063b9734b4",
            "0x0000000000000000000000000000000000000000000000000000000000000000"
          ],
          "data": "0x0000000000000000000000000000000000000000000000004d7fb9500e6a32a0",
          "blockHash": "0x5e3b52f2bffdf1f0f6b1617ad9c989bb3d242151a0edba1313bbf318a6e9ddd6",
          "blockNumber": "0x73176b",
          "transactionHash": "0x2b384362cbdef633ee9c1753859de298ab0fce1f706921e936e6418dede6ae24",
          "transactionIndex": "0x82",
          "logIndex": "0xb0",
          "removed": false
        },
        {
          "address": "0x8aafd3ede9adb0ff97c7aebce82a919afb1c8764",
          "topics": [
            "0xddf252ad1be2c89b69c2b068fc378daa952ba7f163c4a11628f55a4df523b3ef",
            "0x000000000000000000000000c77f7fed3b5cc8249adc428c5f44c9063b9734b4",
            "0x000000000000000000000000c77f7fed3b5cc8249adc428c5f44c9063b9734b4"
          ],
          "data": "0x000000000000000000000000000000000000000000000000009fff6e10a1e381",
          "blockHash": "0x5e3b52f2bffdf1f0f6b1617ad9c989bb3d242151a0edba1313bbf318a6e9ddd6",
          "blockNumber": "0x73176b",
          "transactionHash": "0x2b384362cbdef633ee9c1753859de298ab0fce1f706921e936e6418dede6ae24",
          "transactionIndex": "0x82",
          "logIndex": "0xb1",
          "removed": false
        },
        {
          "address": "0x8aafd3ede9adb0ff97c7aebce82a919afb1c8764",
          "topics": [
            "0x4afcb4a87cdbd9974efdb92ee48bc8d7cd0ae4bf217004db3d080cbaee652ca7"
          ],
          "data": "0x00000000000000000000000000000000000000000000000000000000679015c8000000000000000000000000000000000000000000000000000504e58265c985000000000000000000000000000000000000000000000000001c412d52f53917",
          "blockHash": "0x5e3b52f2bffdf1f0f6b1617ad9c989bb3d242151a0edba1313bbf318a6e9ddd6",
          "blockNumber": "0x73176b",
          "transactionHash": "0x2b384362cbdef633ee9c1753859de298ab0fce1f706921e936e6418dede6ae24",
          "transactionIndex": "0x82",
          "logIndex": "0xb2",
          "removed": false
        }
      ],
      "logsBloom": "0x00000000000000000000000000000000000000000600000000000000000000000000000000000000000000000000000000000000000000004000000000000000000000000000004000000008000000000000000000000000000000000000000000000000020000000000000000000800020000000000000000000010000000000000000000000000000000000000000000000000000000000000010000000000000000000000000000000000000000004000000000000000000000000000000000000002000000800000000000000000000000000000080000000000000020000000000000000000000000000000000000000000000000000000000000000000",
      "type": "0x2",
      "transactionHash": "0x2b384362cbdef633ee9c1753859de298ab0fce1f706921e936e6418dede6ae24",
      "transactionIndex": "0x82",
      "blockHash": "0x5e3b52f2bffdf1f0f6b1617ad9c989bb3d242151a0edba1313bbf318a6e9ddd6",
      "blockNumber": "0x73176b",
      "gasUsed": "0xfd3f",
      "effectiveGasPrice": "0x41a4d710",
      "from": "0xc77f7fed3b5cc8249adc428c5f44c9063b9734b4",
      "to": "0x8aafd3ede9adb0ff97c7aebce82a919afb1c8764",
      "contractAddress": null
    }
  ],
  "libraries": [],
  "pending": [],
  "returns": {},
  "timestamp": 1737496009,
  "chain": 11155111,
  "commit": "1d2fb70"
}