{
  "transactions": [
    {
      "hash": "0x1a336aae5e25a8aaa39a5c982e42c49aed1586835963db643642524f15cf2a34",
      "transactionType": "CALL",
      "contractName": null,
      "contractAddress": "0xbf4a322f1496e5c3d34a9bcdb4c60567b38c7de2",
      "function": "buy(address)",
      "arguments": [
        "0xC77f7fed3b5Cc8249aDc428c5F44C9063B9734b4"
      ],
      "transaction": {
        "from": "0xc77f7fed3b5cc8249adc428c5f44c9063b9734b4",
        "to": "0xbf4a322f1496e5c3d34a9bcdb4c60567b38c7de2",
        "gas": "0x1b309",
        "value": "0xde0b6b3a7640000",
        "input": "0xf088d547000000000000000000000000c77f7fed3b5cc8249adc428c5f44c9063b9734b4",
        "nonce": "0xac4",
        "chainId": "0xaa36a7"
      },
      "additionalContracts": [],
      "isFixedGasLimit": false
    }
  ],
  "receipts": [
    {
      "status": "0x1",
      "cumulativeGasUsed": "0xcfeb47",
      "logs": [
        {
          "address": "0xbf4a322f1496e5c3d34a9bcdb4c60567b38c7de2",
          "topics": [
            "0xddf252ad1be2c89b69c2b068fc378daa952ba7f163c4a11628f55a4df523b3ef",
            "0x0000000000000000000000000000000000000000000000000000000000000000",
            "0x000000000000000000000000c77f7fed3b5cc8249adc428c5f44c9063b9734b4"
          ],
          "data": "0x000000000000000000000000000000000000000000000035365c9262abd92766",
          "blockHash": "0x914040beb90fe59f9acecc4b5ca2c31f883abbbee23af55e724c35ac65d4fd52",
          "blockNumber": "0x725ab4",
          "transactionHash": "0x1a336aae5e25a8aaa39a5c982e42c49aed1586835963db643642524f15cf2a34",
          "transactionIndex": "0x45",
          "logIndex": "0xba",
          "removed": false
        },
        {
          "address": "0xbf4a322f1496e5c3d34a9bcdb4c60567b38c7de2",
          "topics": [
            "0xddf252ad1be2c89b69c2b068fc378daa952ba7f163c4a11628f55a4df523b3ef",
            "0x0000000000000000000000000000000000000000000000000000000000000000",
            "0x000000000000000000000000c77f7fed3b5cc8249adc428c5f44c9063b9734b4"
          ],
          "data": "0x00000000000000000000000000000000000000000000000029523a7b712c4ec4",
          "blockHash": "0x914040beb90fe59f9acecc4b5ca2c31f883abbbee23af55e724c35ac65d4fd52",
          "blockNumber": "0x725ab4",
          "transactionHash": "0x1a336aae5e25a8aaa39a5c982e42c49aed1586835963db643642524f15cf2a34",
          "transactionIndex": "0x45",
          "logIndex": "0xbb",
          "removed": false
        },
        {
          "address": "0xbf4a322f1496e5c3d34a9bcdb4c60567b38c7de2",
          "topics": [
            "0x4afcb4a87cdbd9974efdb92ee48bc8d7cd0ae4bf217004db3d080cbaee652ca7"
          ],
          "data": "0x00000000000000000000000000000000000000000000000000000000678732c00000000000000000000000000000000000000000000000000003954ab38e7ecc0000000000000000000000000000000000000000000000000de0b6b3a7640000",
          "blockHash": "0x914040beb90fe59f9acecc4b5ca2c31f883abbbee23af55e724c35ac65d4fd52",
          "blockNumber": "0x725ab4",
          "transactionHash": "0x1a336aae5e25a8aaa39a5c982e42c49aed1586835963db643642524f15cf2a34",
          "transactionIndex": "0x45",
          "logIndex": "0xbc",
          "removed": false
        }
      ],
      "logsBloom": "0x00000000000000000000000000000000000000000000000000000000000000000000000000000000000000000000000000000000000000004000000000000000000000000000000000000008000000000000001000000000000000000000000000000000020000000000000000000800020000000000000000000010000000000000000000000000000000000000000000000000000008000000010000000000000000000000000000000000000000004000000000000000000000000000000000000002000000800000000000001000000000000000080000000000000020000000000000000000000000000000000000000000000000000000000000000000",
      "type": "0x2",
      "transactionHash": "0x1a336aae5e25a8aaa39a5c982e42c49aed1586835963db643642524f15cf2a34",
      "transactionIndex": "0x45",
      "blockHash": "0x914040beb90fe59f9acecc4b5ca2c31f883abbbee23af55e724c35ac65d4fd52",
      "blockNumber": "0x725ab4",
      "gasUsed": "0x13af6",
      "effectiveGasPrice": "0x108760be9",
      "from": "0xc77f7fed3b5cc8249adc428c5f44c9063b9734b4",
      "to": "0xbf4a322f1496e5c3d34a9bcdb4c60567b38c7de2",
      "contractAddress": null
    }
  ],
  "libraries": [],
  "pending": [],
  "returns": {},
  "timestamp": 1736913602,
  "chain": 11155111,
  "commit": "51a374b"
}