{
  "transactions": [
    {
      "hash": "0x9359a1827fddd5e2364471a2fd0e2f0f71f10cf16d3a76fefd403ca29e17e3aa",
      "transactionType": "CALL",
      "contractName": null,
      "contractAddress": "0x270e88f8683660553e8ba4eb2ad7c91a1710d769",
      "function": "sell(uint256)",
      "arguments": [
        "992681671228630588068"
      ],
      "transaction": {
        "from": "0xc77f7fed3b5cc8249adc428c5f44c9063b9734b4",
        "to": "0x270e88f8683660553e8ba4eb2ad7c91a1710d769",
        "gas": "0x16fec",
        "value": "0x0",
        "input": "0xe4849b32000000000000000000000000000000000000000000000035d039c0878fa15aa4",
        "nonce": "0x4d7",
        "chainId": "0xaa36a7"
      },
      "additionalContracts": [],
      "isFixedGasLimit": false
    }
  ],
  "receipts": [
    {
      "status": "0x1",
      "cumulativeGasUsed": "0xa16952",
      "logs": [
        {
          "address": "0x270e88f8683660553e8ba4eb2ad7c91a1710d769",
          "topics": [
            "0xddf252ad1be2c89b69c2b068fc378daa952ba7f163c4a11628f55a4df523b3ef",
            "0x000000000000000000000000c77f7fed3b5cc8249adc428c5f44c9063b9734b4",
            "0x0000000000000000000000000000000000000000000000000000000000000000"
          ],
          "data": "0x000000000000000000000000000000000000000000000035d039c0878fa15aa4",
          "blockHash": "0x9941be2be17c10cc95c461e60d296b92422350728cc0f85e0ea3d3d5747b6714",
          "blockNumber": "0x72515c",
          "transactionHash": "0x9359a1827fddd5e2364471a2fd0e2f0f71f10cf16d3a76fefd403ca29e17e3aa",
          "transactionIndex": "0x52",
          "logIndex": "0x96",
          "removed": false
        },
        {
          "address": "0x270e88f8683660553e8ba4eb2ad7c91a1710d769",
          "topics": [
            "0x4afcb4a87cdbd9974efdb92ee48bc8d7cd0ae4bf217004db3d080cbaee652ca7"
          ],
          "data": "0x000000000000000000000000000000000000000000000000000000006786c23400000000000000000000000000000000000000000000000000038e14e4c47f770000000000000000000000000000000000000000000000000dc8428ae1318a32",
          "blockHash": "0x9941be2be17c10cc95c461e60d296b92422350728cc0f85e0ea3d3d5747b6714",
          "blockNumber": "0x72515c",
          "transactionHash": "0x9359a1827fddd5e2364471a2fd0e2f0f71f10cf16d3a76fefd403ca29e17e3aa",
          "transactionIndex": "0x52",
          "logIndex": "0x97",
          "removed": false
        }
      ],
      "logsBloom": "0x00000000000000000000000000000000000000000000000000000000000000000000000000000000000000000000000020000000000000004000000000000000000000000000000000000008000000000000000000000000000000000000000000000000020000000000000000000800020000000000000000000010000000000000000000010000000000000000000000000000000000000000010000000000000000000000000000000000000000004000000000000000000000000000000000000002000000800000000000000000000000000000080000008000000020000000000000000000000000000000000000000000000000000000000000000000",
      "type": "0x2",
      "transactionHash": "0x9359a1827fddd5e2364471a2fd0e2f0f71f10cf16d3a76fefd403ca29e17e3aa",
      "transactionIndex": "0x52",
      "blockHash": "0x9941be2be17c10cc95c461e60d296b92422350728cc0f85e0ea3d3d5747b6714",
      "blockNumber": "0x72515c",
      "gasUsed": "0xfb93",
      "effectiveGasPrice": "0x3f4d87e5c",
      "from": "0xc77f7fed3b5cc8249adc428c5f44c9063b9734b4",
      "to": "0x270e88f8683660553e8ba4eb2ad7c91a1710d769",
      "contractAddress": null
    }
  ],
  "libraries": [],
  "pending": [],
  "returns": {},
  "timestamp": 1736884789,
  "chain": 11155111,
  "commit": "51a374b"
}