{
  "transactions": [
    {
      "hash": "0xe0101a1633e6f04a14739b188ed1ef8490fb0ca18d7161814b6f3ddbc678cbb2",
      "transactionType": "CALL",
      "contractName": null,
      "contractAddress": "0x8aafd3ede9adb0ff97c7aebce82a919afb1c8764",
      "function": "sell(uint256)",
      "arguments": [
        "310896"
      ],
      "transaction": {
        "from": "0xc77f7fed3b5cc8249adc428c5f44c9063b9734b4",
        "to": "0x8aafd3ede9adb0ff97c7aebce82a919afb1c8764",
        "gas": "0x16208",
        "value": "0x0",
        "input": "0xe4849b32000000000000000000000000000000000000000000000000000000000004be70",
        "nonce": "0x174f",
        "chainId": "0xaa36a7"
      },
      "additionalContracts": [],
      "isFixedGasLimit": false
    }
  ],
  "receipts": [
    {
      "status": "0x1",
      "cumulativeGasUsed": "0xa316f1",
      "logs": [
        {
          "address": "0x8aafd3ede9adb0ff97c7aebce82a919afb1c8764",
          "topics": [
            "0xddf252ad1be2c89b69c2b068fc378daa952ba7f163c4a11628f55a4df523b3ef",
            "0x000000000000000000000000c77f7fed3b5cc8249adc428c5f44c9063b9734b4",
            "0x0000000000000000000000000000000000000000000000000000000000000000"
          ],
          "data": "0x000000000000000000000000000000000000000000000000000000000004b4b9",
          "blockHash": "0x4e2f3b298a80fd8eabe78d8bdfd31b59e85f21b7e21aac1e7e78dc810e97c66d",
          "blockNumber": "0x731f1e",
          "transactionHash": "0xe0101a1633e6f04a14739b188ed1ef8490fb0ca18d7161814b6f3ddbc678cbb2",
          "transactionIndex": "0x67",
          "logIndex": "0x9c",
          "removed": false
        },
        {
          "address": "0x8aafd3ede9adb0ff97c7aebce82a919afb1c8764",
          "topics": [
            "0xddf252ad1be2c89b69c2b068fc378daa952ba7f163c4a11628f55a4df523b3ef",
            "0x000000000000000000000000c77f7fed3b5cc8249adc428c5f44c9063b9734b4",
            "0x000000000000000000000000c77f7fed3b5cc8249adc428c5f44c9063b9734b4"
          ],
          "data": "0x00000000000000000000000000000000000000000000000000000000000009b7",
          "blockHash": "0x4e2f3b298a80fd8eabe78d8bdfd31b59e85f21b7e21aac1e7e78dc810e97c66d",
          "blockNumber": "0x731f1e",
          "transactionHash": "0xe0101a1633e6f04a14739b188ed1ef8490fb0ca18d7161814b6f3ddbc678cbb2",
          "transactionIndex": "0x67",
          "logIndex": "0x9d",
          "removed": false
        },
        {
          "address": "0x8aafd3ede9adb0ff97c7aebce82a919afb1c8764",
          "topics": [
            "0x4afcb4a87cdbd9974efdb92ee48bc8d7cd0ae4bf217004db3d080cbaee652ca7"
          ],
          "data": "0x00000000000000000000000000000000000000000000000000000000679072500000000000000000000000000000000000000000000000000017e708bda0cedc000000000000000000000000000000000000000000000000000000000000082b",
          "blockHash": "0x4e2f3b298a80fd8eabe78d8bdfd31b59e85f21b7e21aac1e7e78dc810e97c66d",
          "blockNumber": "0x731f1e",
          "transactionHash": "0xe0101a1633e6f04a14739b188ed1ef8490fb0ca18d7161814b6f3ddbc678cbb2",
          "transactionIndex": "0x67",
          "logIndex": "0x9e",
          "removed": false
        }
      ],
      "logsBloom": "0x00000000000000000000000000000000000000000600000000000000000000000000000000000000000000000000000000000000000000004000000000000000000000000000004000000008000000000000000000000000000000000000000000000000020000000000000000000800020000000000000000000010000000000000000000000000000000000000000000000000000000000000010000000000000000000000000000000000000000004000000000000000000000000000000000000002000000800000000000000000000000000000080000000000000020000000000000000000000000000000000000000000000000000000000000000000",
      "type": "0x2",
      "transactionHash": "0xe0101a1633e6f04a14739b188ed1ef8490fb0ca18d7161814b6f3ddbc678cbb2",
      "transactionIndex": "0x67",
      "blockHash": "0x4e2f3b298a80fd8eabe78d8bdfd31b59e85f21b7e21aac1e7e78dc810e97c66d",
      "blockNumber": "0x731f1e",
      "gasUsed": "0xf213",
      "effectiveGasPrice": "0x3e071772",
      "from": "0xc77f7fed3b5cc8249adc428c5f44c9063b9734b4",
      "to": "0x8aafd3ede9adb0ff97c7aebce82a919afb1c8764",
      "contractAddress": null
    }
  ],
  "libraries": [],
  "pending": [],
  "returns": {},
  "timestamp": 1737519697,
  "chain": 11155111,
  "commit": "1d2fb70"
}