{
  "transactions": [
    {
      "hash": "0x6e38f6985262730282b8baadd4a42106cdfa7469398ac1f74deee71809b87c50",
      "transactionType": "CALL",
      "contractName": null,
      "contractAddress": "0x270e88f8683660553e8ba4eb2ad7c91a1710d769",
      "function": "buy(address)",
      "arguments": [
        "0xC77f7fed3b5Cc8249aDc428c5F44C9063B9734b4"
      ],
      "transaction": {
        "from": "0xc77f7fed3b5cc8249adc428c5f44c9063b9734b4",
        "to": "0x270e88f8683660553e8ba4eb2ad7c91a1710d769",
        "gas": "0x1b30c",
        "value": "0xde0b6b3a7640000",
        "input": "0xf088d547000000000000000000000000c77f7fed3b5cc8249adc428c5f44c9063b9734b4",
        "nonce": "0x608",
        "chainId": "0xaa36a7"
      },
      "additionalContracts": [],
      "isFixedGasLimit": false
    }
  ],
  "receipts": [
    {
      "status": "0x1",
      "cumulativeGasUsed": "0xc9231b",
      "logs": [
        {
          "address": "0x270e88f8683660553e8ba4eb2ad7c91a1710d769",
          "topics": [
            "0xddf252ad1be2c89b69c2b068fc378daa952ba7f163c4a11628f55a4df523b3ef",
            "0x0000000000000000000000000000000000000000000000000000000000000000",
            "0x000000000000000000000000c77f7fed3b5cc8249adc428c5f44c9063b9734b4"
          ],
          "data": "0x00000000000000000000000000000000000000000000003322883445765df750",
          "blockHash": "0x6590598b69e8bc65870ad6eab16e1604b41527658f091518389946130857f593",
          "blockNumber": "0x7252cf",
          "transactionHash": "0x6e38f6985262730282b8baadd4a42106cdfa7469398ac1f74deee71809b87c50",
          "transactionIndex": "0x50",
          "logIndex": "0x84",
          "removed": false
        },
        {
          "address": "0x270e88f8683660553e8ba4eb2ad7c91a1710d769",
          "topics": [
            "0xddf252ad1be2c89b69c2b068fc378daa952ba7f163c4a11628f55a4df523b3ef",
            "0x0000000000000000000000000000000000000000000000000000000000000000",
            "0x000000000000000000000000c77f7fed3b5cc8249adc428c5f44c9063b9734b4"
          ],
          "data": "0x00000000000000000000000000000000000000000000000027b53ea1773d186d",
          "blockHash": "0x6590598b69e8bc65870ad6eab16e1604b41527658f091518389946130857f593",
          "blockNumber": "0x7252cf",
          "transactionHash": "0x6e38f6985262730282b8baadd4a42106cdfa7469398ac1f74deee71809b87c50",
          "transactionIndex": "0x50",
          "logIndex": "0x85",
          "removed": false
        },
        {
          "address": "0x270e88f8683660553e8ba4eb2ad7c91a1710d769",
          "topics": [
            "0x4afcb4a87cdbd9974efdb92ee48bc8d7cd0ae4bf217004db3d080cbaee652ca7"
          ],
          "data": "0x000000000000000000000000000000000000000000000000000000006786d3bc0000000000000000000000000000000000000000000000000003baa75294d58b0000000000000000000000000000000000000000000000000de0b6b3a7640000",
          "blockHash": "0x6590598b69e8bc65870ad6eab16e1604b41527658f091518389946130857f593",
          "blockNumber": "0x7252cf",
          "transactionHash": "0x6e38f6985262730282b8baadd4a42106cdfa7469398ac1f74deee71809b87c50",
          "transactionIndex": "0x50",
          "logIndex": "0x86",
          "removed": false
        }
      ],
      "logsBloom": "0x00000000000000000000000000000000000000000000000000000000000000000000000000000000000000000000000020000000000000004000000000000000000000000000000000000008000000000000000000000000000000000000000000000000020000000000000000000800020000000000000000000010000000000000000000010000000000000000000000000000000000000000010000000000000000000000000000000000000000004000000000000000000000000000000000000002000000800000000000000000000000000000080000008000000020000000000000000000000000000000000000000000000000000000000000000000",
      "type": "0x2",
      "transactionHash": "0x6e38f6985262730282b8baadd4a42106cdfa7469398ac1f74deee71809b87c50",
      "transactionIndex": "0x50",
      "blockHash": "0x6590598b69e8bc65870ad6eab16e1604b41527658f091518389946130857f593",
      "blockNumber": "0x7252cf",
      "gasUsed": "0x13af8",
      "effectiveGasPrice": "0x2d466bb51",
      "from": "0xc77f7fed3b5cc8249adc428c5f44c9063b9734b4",
      "to": "0x270e88f8683660553e8ba4eb2ad7c91a1710d769",
      "contractAddress": null
    }
  ],
  "libraries": [],
  "pending": [],
  "returns": {},
  "timestamp": 1736889277,
  "chain": 11155111,
  "commit": "51a374b"
}