{
  "transactions": [
    {
      "hash": "0x20a034f5ca56544375f0a2f6d78df8b32470a11f49cefbe0a64941146d93d287",
      "transactionType": "CALL",
      "contractName": null,
      "contractAddress": "0xbf4a322f1496e5c3d34a9bcdb4c60567b38c7de2",
      "function": "sell(uint256)",
      "arguments": [
        "974671212189756175661"
      ],
      "transaction": {
        "from": "0xc77f7fed3b5cc8249adc428c5f44c9063b9734b4",
        "to": "0xbf4a322f1496e5c3d34a9bcdb4c60567b38c7de2",
        "gas": "0x16fea",
        "value": "0x0",
        "input": "0xe4849b32000000000000000000000000000000000000000000000034d647bf7509cc352d",
        "nonce": "0xda7",
        "chainId": "0xaa36a7"
      },
      "additionalContracts": [],
      "isFixedGasLimit": false
    }
  ],
  "receipts": [
    {
      "status": "0x1",
      "cumulativeGasUsed": "0xd759b5",
      "logs": [
        {
          "address": "0xbf4a322f1496e5c3d34a9bcdb4c60567b38c7de2",
          "topics": [
            "0xddf252ad1be2c89b69c2b068fc378daa952ba7f163c4a11628f55a4df523b3ef",
            "0x000000000000000000000000c77f7fed3b5cc8249adc428c5f44c9063b9734b4",
            "0x0000000000000000000000000000000000000000000000000000000000000000"
          ],
          "data": "0x000000000000000000000000000000000000000000000034d647bf7509cc352d",
          "blockHash": "0x3db62cb3e21f73624e30edd4de179c74edbac2603c63051cb642d98b65ef2ad8",
          "blockNumber": "0x72667d",
          "transactionHash": "0x20a034f5ca56544375f0a2f6d78df8b32470a11f49cefbe0a64941146d93d287",
          "transactionIndex": "0x4e",
          "logIndex": "0x72",
          "removed": false
        },
        {
          "address": "0xbf4a322f1496e5c3d34a9bcdb4c60567b38c7de2",
          "topics": [
            "0x4afcb4a87cdbd9974efdb92ee48bc8d7cd0ae4bf217004db3d080cbaee652ca7"
          ],
          "data": "0x000000000000000000000000000000000000000000000000000000006787c0bc00000000000000000000000000000000000000000000000000039ea03a864f0c0000000000000000000000000000000000000000000000000dc7e3d5ad3745a3",
          "blockHash": "0x3db62cb3e21f73624e30edd4de179c74edbac2603c63051cb642d98b65ef2ad8",
          "blockNumber": "0x72667d",
          "transactionHash": "0x20a034f5ca56544375f0a2f6d78df8b32470a11f49cefbe0a64941146d93d287",
          "transactionIndex": "0x4e",
          "logIndex": "0x73",
          "removed": false
        }
      ],
      "logsBloom": "0x00000000000000000000000000000000000000000000000000000000000000000000000000000000000000000000000000000000000000004000000000000000000000000000000000000008000000000000001000000000000000000000000000000000020000000000000000000800020000000000000000000010000000000000000000000000000000000000000000000000000008000000010000000000000000000000000000000000000000004000000000000000000000000000000000000002000000800000000000001000000000000000080000000000000020000000000000000000000000000000000000000000000000000000000000000000",
      "type": "0x2",
      "transactionHash": "0x20a034f5ca56544375f0a2f6d78df8b32470a11f49cefbe0a64941146d93d287",
      "transactionIndex": "0x4e",
      "blockHash": "0x3db62cb3e21f73624e30edd4de179c74edbac2603c63051cb642d98b65ef2ad8",
      "blockNumber": "0x72667d",
      "gasUsed": "0xfb91",
      "effectiveGasPrice": "0x8f29fc5f",
      "from": "0xc77f7fed3b5cc8249adc428c5f44c9063b9734b4",
      "to": "0xbf4a322f1496e5c3d34a9bcdb4c60567b38c7de2",
      "contractAddress": null
    }
  ],
  "libraries": [],
  "pending": [],
  "returns": {},
  "timestamp": 1736949949,
  "chain": 11155111,
  "commit": "51a374b"
}