{
  "transactions": [
    {
      "hash": "0xb60045b55b07ca7a8f6154ddc0cde35ab63de18121aa8897d5c41ce3a03927da",
      "transactionType": "CALL",
      "contractName": null,
      "contractAddress": "0x270e88f8683660553e8ba4eb2ad7c91a1710d769",
      "function": "buy(address)",
      "arguments": [
        "0xC77f7fed3b5Cc8249aDc428c5F44C9063B9734b4"
      ],
      "transaction": {
        "from": "0xc77f7fed3b5cc8249adc428c5f44c9063b9734b4",
        "to": "0x270e88f8683660553e8ba4eb2ad7c91a1710d769",
        "gas": "0x1b30c",
        "value": "0xde0b6b3a7640000",
        "input": "0xf088d547000000000000000000000000c77f7fed3b5cc8249adc428c5f44c9063b9734b4",
        "nonce": "0x677",
        "chainId": "0xaa36a7"
      },
      "additionalContracts": [],
      "isFixedGasLimit": false
    }
  ],
  "receipts": [
    {
      "status": "0x1",
      "cumulativeGasUsed": "0x5a55bf",
      "logs": [
        {
          "address": "0x270e88f8683660553e8ba4eb2ad7c91a1710d769",
          "topics": [
            "0xddf252ad1be2c89b69c2b068fc378daa952ba7f163c4a11628f55a4df523b3ef",
            "0x0000000000000000000000000000000000000000000000000000000000000000",
            "0x000000000000000000000000c77f7fed3b5cc8249adc428c5f44c9063b9734b4"
          ],
          "data": "0x000000000000000000000000000000000000000000000028f420599218a839e8",
          "blockHash": "0xeecc05d27047b3f46356bef4fe7982be220a0cb067c3029b332d6de31a42a793",
          "blockNumber": "0x725373",
          "transactionHash": "0xb60045b55b07ca7a8f6154ddc0cde35ab63de18121aa8897d5c41ce3a03927da",
          "transactionIndex": "0x3b",
          "logIndex": "0x7c",
          "removed": false
        },
        {
          "address": "0x270e88f8683660553e8ba4eb2ad7c91a1710d769",
          "topics": [
            "0xddf252ad1be2c89b69c2b068fc378daa952ba7f163c4a11628f55a4df523b3ef",
            "0x0000000000000000000000000000000000000000000000000000000000000000",
            "0x000000000000000000000000c77f7fed3b5cc8249adc428c5f44c9063b9734b4"
          ],
          "data": "0x0000000000000000000000000000000000000000000000001fcd481fd8a079ef",
          "blockHash": "0xeecc05d27047b3f46356bef4fe7982be220a0cb067c3029b332d6de31a42a793",
          "blockNumber": "0x725373",
          "transactionHash": "0xb60045b55b07ca7a8f6154ddc0cde35ab63de18121aa8897d5c41ce3a03927da",
          "transactionIndex": "0x3b",
          "logIndex": "0x7d",
          "removed": false
        },
        {
          "address": "0x270e88f8683660553e8ba4eb2ad7c91a1710d769",
          "topics": [
            "0x4afcb4a87cdbd9974efdb92ee48bc8d7cd0ae4bf217004db3d080cbaee652ca7"
          ],
          "data": "0x000000000000000000000000000000000000000000000000000000006786db6c0000000000000000000000000000000000000000000000000004a7f5a6e7b4cf0000000000000000000000000000000000000000000000000de0b6b3a7640000",
          "blockHash": "0xeecc05d27047b3f46356bef4fe7982be220a0cb067c3029b332d6de31a42a793",
          "blockNumber": "0x725373",
          "transactionHash": "0xb60045b55b07ca7a8f6154ddc0cde35ab63de18121aa8897d5c41ce3a03927da",
          "transactionIndex": "0x3b",
          "logIndex": "0x7e",
          "removed": false
        }
      ],
      "logsBloom": "0x00000000000000000000000000000000000000000000000000000000000000000000000000000000000000000000000020000000000000004000000000000000000000000000000000000008000000000000000000000000000000000000000000000000020000000000000000000800020000000000000000000010000000000000000000010000000000000000000000000000000000000000010000000000000000000000000000000000000000004000000000000000000000000000000000000002000000800000000000000000000000000000080000008000000020000000000000000000000000000000000000000000000000000000000000000000",
      "type": "0x2",
      "transactionHash": "0xb60045b55b07ca7a8f6154ddc0cde35ab63de18121aa8897d5c41ce3a03927da",
      "transactionIndex": "0x3b",
      "blockHash": "0xeecc05d27047b3f46356bef4fe7982be220a0cb067c3029b332d6de31a42a793",
      "blockNumber": "0x725373",
      "gasUsed": "0x13af8",
      "effectiveGasPrice": "0x237994a08",
      "from": "0xc77f7fed3b5cc8249adc428c5f44c9063b9734b4",
      "to": "0x270e88f8683660553e8ba4eb2ad7c91a1710d769",
      "contractAddress": null
    }
  ],
  "libraries": [],
  "pending": [],
  "returns": {},
  "timestamp": 1736891245,
  "chain": 11155111,
  "commit": "51a374b"
}