{
  "transactions": [
    {
      "hash": "0xb274512e5455c92a27728c80df04497bdd9ddc0356df2ad4746dfdfd06a21a63",
      "transactionType": "CALL",
      "contractName": null,
      "contractAddress": "0x270e88f8683660553e8ba4eb2ad7c91a1710d769",
      "function": "buy(address)",
      "arguments": [
        "0xC77f7fed3b5Cc8249aDc428c5F44C9063B9734b4"
      ],
      "transaction": {
        "from": "0xc77f7fed3b5cc8249adc428c5f44c9063b9734b4",
        "to": "0x270e88f8683660553e8ba4eb2ad7c91a1710d769",
        "gas": "0x1b30c",
        "value": "0xde0b6b3a7640000",
        "input": "0xf088d547000000000000000000000000c77f7fed3b5cc8249adc428c5f44c9063b9734b4",
        "nonce": "0x5be",
        "chainId": "0xaa36a7"
      },
      "additionalContracts": [],
      "isFixedGasLimit": false
    }
  ],
  "receipts": [
    {
      "status": "0x1",
      "cumulativeGasUsed": "0x7ad6bb",
      "logs": [
        {
          "address": "0x270e88f8683660553e8ba4eb2ad7c91a1710d769",
          "topics": [
            "0xddf252ad1be2c89b69c2b068fc378daa952ba7f163c4a11628f55a4df523b3ef",
            "0x0000000000000000000000000000000000000000000000000000000000000000",
            "0x000000000000000000000000c77f7fed3b5cc8249adc428c5f44c9063b9734b4"
          ],
          "data": "0x000000000000000000000000000000000000000000000033b8b173985c3a24f4",
          "blockHash": "0x1b95fc15807ef7963a520fa992410c81674520dbe396bbcacc8469c3f45130e9",
          "blockNumber": "0x72527d",
          "transactionHash": "0xb274512e5455c92a27728c80df04497bdd9ddc0356df2ad4746dfdfd06a21a63",
          "transactionIndex": "0x46",
          "logIndex": "0x6f",
          "removed": false
        },
        {
          "address": "0x270e88f8683660553e8ba4eb2ad7c91a1710d769",
          "topics": [
            "0xddf252ad1be2c89b69c2b068fc378daa952ba7f163c4a11628f55a4df523b3ef",
            "0x0000000000000000000000000000000000000000000000000000000000000000",
            "0x000000000000000000000000c77f7fed3b5cc8249adc428c5f44c9063b9734b4"
          ],
          "data": "0x0000000000000000000000000000000000000000000000002829d9920df6586f",
          "blockHash": "0x1b95fc15807ef7963a520fa992410c81674520dbe396bbcacc8469c3f45130e9",
          "blockNumber": "0x72527d",
          "transactionHash": "0xb274512e5455c92a27728c80df04497bdd9ddc0356df2ad4746dfdfd06a21a63",
          "transactionIndex": "0x46",
          "logIndex": "0x70",
          "removed": false
        },
        {
          "address": "0x270e88f8683660553e8ba4eb2ad7c91a1710d769",
          "topics": [
            "0x4afcb4a87cdbd9974efdb92ee48bc8d7cd0ae4bf217004db3d080cbaee652ca7"
          ],
          "data": "0x000000000000000000000000000000000000000000000000000000006786cfcc0000000000000000000000000000000000000000000000000003afd402143b1a0000000000000000000000000000000000000000000000000de0b6b3a7640000",
          "blockHash": "0x1b95fc15807ef7963a520fa992410c81674520dbe396bbcacc8469c3f45130e9",
          "blockNumber": "0x72527d",
          "transactionHash": "0xb274512e5455c92a27728c80df04497bdd9ddc0356df2ad4746dfdfd06a21a63",
          "transactionIndex": "0x46",
          "logIndex": "0x71",
          "removed": false
        }
      ],
      "logsBloom": "0x00000000000000000000000000000000000000000000000000000000000000000000000000000000000000000000000020000000000000004000000000000000000000000000000000000008000000000000000000000000000000000000000000000000020000000000000000000800020000000000000000000010000000000000000000010000000000000000000000000000000000000000010000000000000000000000000000000000000000004000000000000000000000000000000000000002000000800000000000000000000000000000080000008000000020000000000000000000000000000000000000000000000000000000000000000000",
      "type": "0x2",
      "transactionHash": "0xb274512e5455c92a27728c80df04497bdd9ddc0356df2ad4746dfdfd06a21a63",
      "transactionIndex": "0x46",
      "blockHash": "0x1b95fc15807ef7963a520fa992410c81674520dbe396bbcacc8469c3f45130e9",
      "blockNumber": "0x72527d",
      "gasUsed": "0x13af8",
      "effectiveGasPrice": "0x442a8bb03",
      "from": "0xc77f7fed3b5cc8249adc428c5f44c9063b9734b4",
      "to": "0x270e88f8683660553e8ba4eb2ad7c91a1710d769",
      "contractAddress": null
    }
  ],
  "libraries": [],
  "pending": [],
  "returns": {},
  "timestamp": 1736888269,
  "chain": 11155111,
  "commit": "51a374b"
}