{
  "transactions": [
    {
      "hash": "0xb3e1cc6dc8130a17bc9d9c510ce338a23fbaefd6082ba90a8fa2e486e84e52e0",
      "transactionType": "CALL",
      "contractName": null,
      "contractAddress": "0x270e88f8683660553e8ba4eb2ad7c91a1710d769",
      "function": "sell(uint256)",
      "arguments": [
        "941228845431881397129"
      ],
      "transaction": {
        "from": "0xc77f7fed3b5cc8249adc428c5f44c9063b9734b4",
        "to": "0x270e88f8683660553e8ba4eb2ad7c91a1710d769",
        "gas": "0x16fec",
        "value": "0x0",
        "input": "0xe4849b32000000000000000000000000000000000000000000000033062c98137e56f389",
        "nonce": "0x62b",
        "chainId": "0xaa36a7"
      },
      "additionalContracts": [],
      "isFixedGasLimit": false
    }
  ],
  "receipts": [
    {
      "status": "0x1",
      "cumulativeGasUsed": "0x1ede9e0",
      "logs": [
        {
          "address": "0x270e88f8683660553e8ba4eb2ad7c91a1710d769",
          "topics": [
            "0xddf252ad1be2c89b69c2b068fc378daa952ba7f163c4a11628f55a4df523b3ef",
            "0x000000000000000000000000c77f7fed3b5cc8249adc428c5f44c9063b9734b4",
            "0x0000000000000000000000000000000000000000000000000000000000000000"
          ],
          "data": "0x000000000000000000000000000000000000000000000033062c98137e56f389",
          "blockHash": "0x2310e38e6b112f5ba445db1904506363f32d60c76846823a1f076ecada192f34",
          "blockNumber": "0x7252fb",
          "transactionHash": "0xb3e1cc6dc8130a17bc9d9c510ce338a23fbaefd6082ba90a8fa2e486e84e52e0",
          "transactionIndex": "0x52",
          "logIndex": "0xaf",
          "removed": false
        },
        {
          "address": "0x270e88f8683660553e8ba4eb2ad7c91a1710d769",
          "topics": [
            "0x4afcb4a87cdbd9974efdb92ee48bc8d7cd0ae4bf217004db3d080cbaee652ca7"
          ],
          "data": "0x000000000000000000000000000000000000000000000000000000006786d5cc0000000000000000000000000000000000000000000000000003bfd0dbfcae310000000000000000000000000000000000000000000000000dc83d41cccb98cd",
          "blockHash": "0x2310e38e6b112f5ba445db1904506363f32d60c76846823a1f076ecada192f34",
          "blockNumber": "0x7252fb",
          "transactionHash": "0xb3e1cc6dc8130a17bc9d9c510ce338a23fbaefd6082ba90a8fa2e486e84e52e0",
          "transactionIndex": "0x52",
          "logIndex": "0xb0",
          "removed": false
        }
      ],
      "logsBloom": "0x00000000000000000000000000000000000000000000000000000000000000000000000000000000000000000000000020000000000000004000000000000000000000000000000000000008000000000000000000000000000000000000000000000000020000000000000000000800020000000000000000000010000000000000000000010000000000000000000000000000000000000000010000000000000000000000000000000000000000004000000000000000000000000000000000000002000000800000000000000000000000000000080000008000000020000000000000000000000000000000000000000000000000000000000000000000",
      "type": "0x2",
      "transactionHash": "0xb3e1cc6dc8130a17bc9d9c510ce338a23fbaefd6082ba90a8fa2e486e84e52e0",
      "transactionIndex": "0x52",
      "blockHash": "0x2310e38e6b112f5ba445db1904506363f32d60c76846823a1f076ecada192f34",
      "blockNumber": "0x7252fb",
      "gasUsed": "0xfb93",
      "effectiveGasPrice": "0x28a5ede20",
      "from": "0xc77f7fed3b5cc8249adc428c5f44c9063b9734b4",
      "to": "0x270e88f8683660553e8ba4eb2ad7c91a1710d769",
      "contractAddress": null
    }
  ],
  "libraries": [],
  "pending": [],
  "returns": {},
  "timestamp": 1736889805,
  "chain": 11155111,
  "commit": "51a374b"
}