{
  "transactions": [
    {
      "hash": "0xadffff423c99ee086cad9edc8a40264cc458662825e3b3db483b34f3faeb76df",
      "transactionType": "CALL",
      "contractName": null,
      "contractAddress": "0xbf4a322f1496e5c3d34a9bcdb4c60567b38c7de2",
      "function": "sell(uint256)",
      "arguments": [
        "990653669140012019357"
      ],
      "transaction": {
        "from": "0xc77f7fed3b5cc8249adc428c5f44c9063b9734b4",
        "to": "0xbf4a322f1496e5c3d34a9bcdb4c60567b38c7de2",
        "gas": "0x16fea",
        "value": "0x0",
        "input": "0xe4849b32000000000000000000000000000000000000000000000035b414d75fefc52e9d",
        "nonce": "0x907",
        "chainId": "0xaa36a7"
      },
      "additionalContracts": [],
      "isFixedGasLimit": false
    }
  ],
  "receipts": [
    {
      "status": "0x1",
      "cumulativeGasUsed": "0x18adae2",
      "logs": [
        {
          "address": "0xbf4a322f1496e5c3d34a9bcdb4c60567b38c7de2",
          "topics": [
            "0xddf252ad1be2c89b69c2b068fc378daa952ba7f163c4a11628f55a4df523b3ef",
            "0x000000000000000000000000c77f7fed3b5cc8249adc428c5f44c9063b9734b4",
            "0x0000000000000000000000000000000000000000000000000000000000000000"
          ],
          "data": "0x000000000000000000000000000000000000000000000035b414d75fefc52e9d",
          "blockHash": "0x70e2cb496ff6eabbed9e95760694454b1622be8e4d3e0bf6f572121ec2bf5582",
          "blockNumber": "0x725881",
          "transactionHash": "0xadffff423c99ee086cad9edc8a40264cc458662825e3b3db483b34f3faeb76df",
          "transactionIndex": "0x68",
          "logIndex": "0x82",
          "removed": false
        },
        {
          "address": "0xbf4a322f1496e5c3d34a9bcdb4c60567b38c7de2",
          "topics": [
            "0x4afcb4a87cdbd9974efdb92ee48bc8d7cd0ae4bf217004db3d080cbaee652ca7"
          ],
          "data": "0x000000000000000000000000000000000000000000000000000000006787183800000000000000000000000000000000000000000000000000038fad4401f1090000000000000000000000000000000000000000000000000dc7e3fad6082953",
          "blockHash": "0x70e2cb496ff6eabbed9e95760694454b1622be8e4d3e0bf6f572121ec2bf5582",
          "blockNumber": "0x725881",
          "transactionHash": "0xadffff423c99ee086cad9edc8a40264cc458662825e3b3db483b34f3faeb76df",
          "transactionIndex": "0x68",
          "logIndex": "0x83",
          "removed": false
        }
      ],
      "logsBloom": "0x00000000000000000000000000000000000000000000000000000000000000000000000000000000000000000000000000000000000000004000000000000000000000000000000000000008000000000000001000000000000000000000000000000000020000000000000000000800020000000000000000000010000000000000000000000000000000000000000000000000000008000000010000000000000000000000000000000000000000004000000000000000000000000000000000000002000000800000000000001000000000000000080000000000000020000000000000000000000000000000000000000000000000000000000000000000",
      "type": "0x2",
      "transactionHash": "0xadffff423c99ee086cad9edc8a40264cc458662825e3b3db483b34f3faeb76df",
      "transactionIndex": "0x68",
      "blockHash": "0x70e2cb496ff6eabbed9e95760694454b1622be8e4d3e0bf6f572121ec2bf5582",
      "blockNumber": "0x725881",
      "gasUsed": "0xfb91",
      "effectiveGasPrice": "0x2bd2e768",
      "from": "0xc77f7fed3b5cc8249adc428c5f44c9063b9734b4",
      "to": "0xbf4a322f1496e5c3d34a9bcdb4c60567b38c7de2",
      "contractAddress": null
    }
  ],
  "libraries": [],
  "pending": [],
  "returns": {},
  "timestamp": 1736906810,
  "chain": 11155111,
  "commit": "51a374b"
}