{
  "transactions": [
    {
      "hash": "0xab0e66b749ec10eb664573cab59f582a6c1acc99744e51632906bdb6f8d1104b",
      "transactionType": "CALL",
      "contractName": null,
      "contractAddress": "0x8aafd3ede9adb0ff97c7aebce82a919afb1c8764",
      "function": "sell(uint256)",
      "arguments": [
        "353481803348677"
      ],
      "transaction": {
        "from": "0xc77f7fed3b5cc8249adc428c5f44c9063b9734b4",
        "to": "0x8aafd3ede9adb0ff97c7aebce82a919afb1c8764",
        "gas": "0x1724d",
        "value": "0x0",
        "input": "0xe4849b320000000000000000000000000000000000000000000000000001417d6552bac5",
        "nonce": "0x117a",
        "chainId": "0xaa36a7"
      },
      "additionalContracts": [],
      "isFixedGasLimit": false
    }
  ],
  "receipts": [
    {
      "status": "0x1",
      "cumulativeGasUsed": "0xb5ec04",
      "logs": [
        {
          "address": "0x8aafd3ede9adb0ff97c7aebce82a919afb1c8764",
          "topics": [
            "0xddf252ad1be2c89b69c2b068fc378daa952ba7f163c4a11628f55a4df523b3ef",
            "0x000000000000000000000000c77f7fed3b5cc8249adc428c5f44c9063b9734b4",
            "0x0000000000000000000000000000000000000000000000000000000000000000"
          ],
          "data": "0x00000000000000000000000000000000000000000000000000013eeafc108820",
          "blockHash": "0x5316579dbdb59298f5a89c34b02a5724ef56b38cb23c0115eb406f12b357ceca",
          "blockNumber": "0x73183b",
          "transactionHash": "0xab0e66b749ec10eb664573cab59f582a6c1acc99744e51632906bdb6f8d1104b",
          "transactionIndex": "0x88",
          "logIndex": "0xed",
          "removed": false
        },
        {
          "address": "0x8aafd3ede9adb0ff97c7aebce82a919afb1c8764",
          "topics": [
            "0xddf252ad1be2c89b69c2b068fc378daa952ba7f163c4a11628f55a4df523b3ef",
            "0x000000000000000000000000c77f7fed3b5cc8249adc428c5f44c9063b9734b4",
            "0x000000000000000000000000c77f7fed3b5cc8249adc428c5f44c9063b9734b4"
          ],
          "data": "0x00000000000000000000000000000000000000000000000000000292694232a5",
          "blockHash": "0x5316579dbdb59298f5a89c34b02a5724ef56b38cb23c0115eb406f12b357ceca",
          "blockNumber": "0x73183b",
          "transactionHash": "0xab0e66b749ec10eb664573cab59f582a6c1acc99744e51632906bdb6f8d1104b",
          "transactionIndex": "0x88",
          "logIndex": "0xee",
          "removed": false
        },
        {
          "address": "0x8aafd3ede9adb0ff97c7aebce82a919afb1c8764",
          "topics": [
            "0x4afcb4a87cdbd9974efdb92ee48bc8d7cd0ae4bf217004db3d080cbaee652ca7"
          ],
          "data": "0x0000000000000000000000000000000000000000000000000000000067901f8800000000000000000000000000000000000000000000000000051d974b7c75eb0000000000000000000000000000000000000000000000000000007681b39021",
          "blockHash": "0x5316579dbdb59298f5a89c34b02a5724ef56b38cb23c0115eb406f12b357ceca",
          "blockNumber": "0x73183b",
          "transactionHash": "0xab0e66b749ec10eb664573cab59f582a6c1acc99744e51632906bdb6f8d1104b",
          "transactionIndex": "0x88",
          "logIndex": "0xef",
          "removed": false
        }
      ],
      "logsBloom": "0x00000000000000000000000000000000000000000600000000000000000000000000000000000000000000000000000000000000000000004000000000000000000000000000004000000008000000000000000000000000000000000000000000000000020000000000000000000800020000000000000000000010000000000000000000000000000000000000000000000000000000000000010000000000000000000000000000000000000000004000000000000000000000000000000000000002000000800000000000000000000000000000080000000000000020000000000000000000000000000000000000000000000000000000000000000000",
      "type": "0x2",
      "transactionHash": "0xab0e66b749ec10eb664573cab59f582a6c1acc99744e51632906bdb6f8d1104b",
      "transactionIndex": "0x88",
      "blockHash": "0x5316579dbdb59298f5a89c34b02a5724ef56b38cb23c0115eb406f12b357ceca",
      "blockNumber": "0x73183b",
      "gasUsed": "0xfd33",
      "effectiveGasPrice": "0x3f8bb6f4",
      "from": "0xc77f7fed3b5cc8249adc428c5f44c9063b9734b4",
      "to": "0x8aafd3ede9adb0ff97c7aebce82a919afb1c8764",
      "contractAddress": null
    }
  ],
  "libraries": [],
  "pending": [],
  "returns": {},
  "timestamp": 1737498506,
  "chain": 11155111,
  "commit": "1d2fb70"
}