{
  "transactions": [
    {
      "hash": "0x54fe7be91959233f4af84d1ce302099c32572599e68c104f7498f2e02521a05f",
      "transactionType": "CALL",
      "contractName": null,
      "contractAddress": "0x8aafd3ede9adb0ff97c7aebce82a919afb1c8764",
      "function": "sell(uint256)",
      "arguments": [
        "383909738231490"
      ],
      "transaction": {
        "from": "0xc77f7fed3b5cc8249adc428c5f44c9063b9734b4",
        "to": "0x8aafd3ede9adb0ff97c7aebce82a919afb1c8764",
        "gas": "0x1724d",
        "value": "0x0",
        "input": "0xe4849b3200000000000000000000000000000000000000000000000000015d29f392b6c2",
        "nonce": "0xe63",
        "chainId": "0xaa36a7"
      },
      "additionalContracts": [],
      "isFixedGasLimit": false
    }
  ],
  "receipts": [
    {
      "status": "0x1",
      "cumulativeGasUsed": "0xa78b75",
      "logs": [
        {
          "address": "0x8aafd3ede9adb0ff97c7aebce82a919afb1c8764",
          "topics": [
            "0xddf252ad1be2c89b69c2b068fc378daa952ba7f163c4a11628f55a4df523b3ef",
            "0x000000000000000000000000c77f7fed3b5cc8249adc428c5f44c9063b9734b4",
            "0x0000000000000000000000000000000000000000000000000000000000000000"
          ],
          "data": "0x00000000000000000000000000000000000000000000000000015a5edd24ff07",
          "blockHash": "0x9f400a277953e796d8976cf0e03375da37e9f815db74d81d0d42b14868680d21",
          "blockNumber": "0x7313b6",
          "transactionHash": "0x54fe7be91959233f4af84d1ce302099c32572599e68c104f7498f2e02521a05f",
          "transactionIndex": "0x83",
          "logIndex": "0x7f",
          "removed": false
        },
        {
          "address": "0x8aafd3ede9adb0ff97c7aebce82a919afb1c8764",
          "topics": [
            "0xddf252ad1be2c89b69c2b068fc378daa952ba7f163c4a11628f55a4df523b3ef",
            "0x000000000000000000000000c77f7fed3b5cc8249adc428c5f44c9063b9734b4",
            "0x000000000000000000000000c77f7fed3b5cc8249adc428c5f44c9063b9734b4"
          ],
          "data": "0x000000000000000000000000000000000000000000000000000002cb166db7bb",
          "blockHash": "0x9f400a277953e796d8976cf0e03375da37e9f815db74d81d0d42b14868680d21",
          "blockNumber": "0x7313b6",
          "transactionHash": "0x54fe7be91959233f4af84d1ce302099c32572599e68c104f7498f2e02521a05f",
          "transactionIndex": "0x83",
          "logIndex": "0x80",
          "removed": false
        },
        {
          "address": "0x8aafd3ede9adb0ff97c7aebce82a919afb1c8764",
          "topics": [
            "0x4afcb4a87cdbd9974efdb92ee48bc8d7cd0ae4bf217004db3d080cbaee652ca7"
          ],
          "data": "0x00000000000000000000000000000000000000000000000000000000678fe91c0000000000000000000000000000000000000000000000000004b4df99eb8cc3000000000000000000000000000000000000000000000000000000766a8174b2",
          "blockHash": "0x9f400a277953e796d8976cf0e03375da37e9f815db74d81d0d42b14868680d21",
          "blockNumber": "0x7313b6",
          "transactionHash": "0x54fe7be91959233f4af84d1ce302099c32572599e68c104f7498f2e02521a05f",
          "transactionIndex": "0x83",
          "logIndex": "0x81",
          "removed": false
        }
      ],
      "logsBloom": "0x00000000000000000000000000000000000000000600000000000000000000000000000000000000000000000000000000000000000000004000000000000000000000000000004000000008000000000000000000000000000000000000000000000000020000000000000000000800020000000000000000000010000000000000000000000000000000000000000000000000000000000000010000000000000000000000000000000000000000004000000000000000000000000000000000000002000000800000000000000000000000000000080000000000000020000000000000000000000000000000000000000000000000000000000000000000",
      "type": "0x2",
      "transactionHash": "0x54fe7be91959233f4af84d1ce302099c32572599e68c104f7498f2e02521a05f",
      "transactionIndex": "0x83",
      "blockHash": "0x9f400a277953e796d8976cf0e03375da37e9f815db74d81d0d42b14868680d21",
      "blockNumber": "0x7313b6",
      "gasUsed": "0xfd33",
      "effectiveGasPrice": "0x7b632f4a",
      "from": "0xc77f7fed3b5cc8249adc428c5f44c9063b9734b4",
      "to": "0x8aafd3ede9adb0ff97c7aebce82a919afb1c8764",
      "contractAddress": null
    }
  ],
  "libraries": [],
  "pending": [],
  "returns": {},
  "timestamp": 1737484574,
  "chain": 11155111,
  "commit": "51a374b"
}