{
  "transactions": [
    {
      "hash": "0xd9dc0238e3228df9f82fae4a69a5ccd4e6eead5fd64900226b2b834e775b6567",
      "transactionType": "CALL",
      "contractName": null,
      "contractAddress": "0x8aafd3ede9adb0ff97c7aebce82a919afb1c8764",
      "function": "sell(uint256)",
      "arguments": [
        "241237656393489672930"
      ],
      "transaction": {
        "from": "0xc77f7fed3b5cc8249adc428c5f44c9063b9734b4",
        "to": "0x8aafd3ede9adb0ff97c7aebce82a919afb1c8764",
        "gas": "0x17270",
        "value": "0x0",
        "input": "0xe4849b3200000000000000000000000000000000000000000000000d13d8525ba5b16ae2",
        "nonce": "0x1430",
        "chainId": "0xaa36a7"
      },
      "additionalContracts": [],
      "isFixedGasLimit": false
    }
  ],
  "receipts": [
    {
      "status": "0x1",
      "cumulativeGasUsed": "0xf180d8",
      "logs": [
        {
          "address": "0x8aafd3ede9adb0ff97c7aebce82a919afb1c8764",
          "topics": [
            "0xddf252ad1be2c89b69c2b068fc378daa952ba7f163c4a11628f55a4df523b3ef",
            "0x000000000000000000000000c77f7fed3b5cc8249adc428c5f44c9063b9734b4",
            "0x0000000000000000000000000000000000000000000000000000000000000000"
          ],
          "data": "0x00000000000000000000000000000000000000000000000cf90fef652770829b",
          "blockHash": "0xc528d964de096b6e82ae8295c996417ee64606b88a88d47474e97005cc13e959",
          "blockNumber": "0x731b6e",
          "transactionHash": "0xd9dc0238e3228df9f82fae4a69a5ccd4e6eead5fd64900226b2b834e775b6567",
          "transactionIndex": "0xa4",
          "logIndex": "0xab",
          "removed": false
        },
        {
          "address": "0x8aafd3ede9adb0ff97c7aebce82a919afb1c8764",
          "topics": [
            "0xddf252ad1be2c89b69c2b068fc378daa952ba7f163c4a11628f55a4df523b3ef",
            "0x000000000000000000000000c77f7fed3b5cc8249adc428c5f44c9063b9734b4",
            "0x000000000000000000000000c77f7fed3b5cc8249adc428c5f44c9063b9734b4"
          ],
          "data": "0x0000000000000000000000000000000000000000000000001ac862f67e40e847",
          "blockHash": "0xc528d964de096b6e82ae8295c996417ee64606b88a88d47474e97005cc13e959",
          "blockNumber": "0x731b6e",
          "transactionHash": "0xd9dc0238e3228df9f82fae4a69a5ccd4e6eead5fd64900226b2b834e775b6567",
          "transactionIndex": "0xa4",
          "logIndex": "0xac",
          "removed": false
        },
        {
          "address": "0x8aafd3ede9adb0ff97c7aebce82a919afb1c8764",
          "topics": [
            "0x4afcb4a87cdbd9974efdb92ee48bc8d7cd0ae4bf217004db3d080cbaee652ca7"
          ],
          "data": "0x0000000000000000000000000000000000000000000000000000000067904604000000000000000000000000000000000000000000000000000eb9e7a9beb52f0000000000000000000000000000000000000000000000000dcdc6b715ef323b",
          "blockHash": "0xc528d964de096b6e82ae8295c996417ee64606b88a88d47474e97005cc13e959",
          "blockNumber": "0x731b6e",
          "transactionHash": "0xd9dc0238e3228df9f82fae4a69a5ccd4e6eead5fd64900226b2b834e775b6567",
          "transactionIndex": "0xa4",
          "logIndex": "0xad",
          "removed": false
        }
      ],
      "logsBloom": "0x00000000000000000000000000000000000000000600000000000000000000000000000000000000000000000000000000000000000000004000000000000000000000000000004000000008000000000000000000000000000000000000000000000000020000000000000000000800020000000000000000000010000000000000000000000000000000000000000000000000000000000000010000000000000000000000000000000000000000004000000000000000000000000000000000000002000000800000000000000000000000000000080000000000000020000000000000000000000000000000000000000000000000000000000000000000",
      "type": "0x2",
      "transactionHash": "0xd9dc0238e3228df9f82fae4a69a5ccd4e6eead5fd64900226b2b834e775b6567",
      "transactionIndex": "0xa4",
      "blockHash": "0xc528d964de096b6e82ae8295c996417ee64606b88a88d47474e97005cc13e959",
      "blockNumber": "0x731b6e",
      "gasUsed": "0xfd4b",
      "effectiveGasPrice": "0x107365d15",
      "from": "0xc77f7fed3b5cc8249adc428c5f44c9063b9734b4",
      "to": "0x8aafd3ede9adb0ff97c7aebce82a919afb1c8764",
      "contractAddress": null
    }
  ],
  "libraries": [],
  "pending": [],
  "returns": {},
  "timestamp": 1737508359,
  "chain": 11155111,
  "commit": "1d2fb70"
}