{
  "transactions": [
    {
      "hash": "0x3a4636b32a7012f0ac4096a2276143f00b9d622e35303c160f8415ee5f64fe95",
      "transactionType": "CALL",
      "contractName": null,
      "contractAddress": "0x270e88f8683660553e8ba4eb2ad7c91a1710d769",
      "function": "sell(uint256)",
      "arguments": [
        "710267114908980694722"
      ],
      "transaction": {
        "from": "0xc77f7fed3b5cc8249adc428c5f44c9063b9734b4",
        "to": "0x270e88f8683660553e8ba4eb2ad7c91a1710d769",
        "gas": "0x16fec",
        "value": "0x0",
        "input": "0xe4849b3200000000000000000000000000000000000000000000002680efb1da6f594ec2",
        "nonce": "0x898",
        "chainId": "0xaa36a7"
      },
      "additionalContracts": [],
      "isFixedGasLimit": false
    }
  ],
  "receipts": [
    {
      "status": "0x1",
      "cumulativeGasUsed": "0x12a8680",
      "logs": [
        {
          "address": "0x270e88f8683660553e8ba4eb2ad7c91a1710d769",
          "topics": [
            "0xddf252ad1be2c89b69c2b068fc378daa952ba7f163c4a11628f55a4df523b3ef",
            "0x000000000000000000000000c77f7fed3b5cc8249adc428c5f44c9063b9734b4",
            "0x0000000000000000000000000000000000000000000000000000000000000000"
          ],
          "data": "0x00000000000000000000000000000000000000000000002680efb1da6f594ec2",
          "blockHash": "0xfc8344d1e727d3051802b8042ed4f8c56c9e2d0cefcac18edbb0f0f55757a896",
          "blockNumber": "0x7255f6",
          "transactionHash": "0x3a4636b32a7012f0ac4096a2276143f00b9d622e35303c160f8415ee5f64fe95",
          "transactionIndex": "0x59",
          "logIndex": "0x71",
          "removed": false
        },
        {
          "address": "0x270e88f8683660553e8ba4eb2ad7c91a1710d769",
          "topics": [
            "0x4afcb4a87cdbd9974efdb92ee48bc8d7cd0ae4bf217004db3d080cbaee652ca7"
          ],
          "data": "0x000000000000000000000000000000000000000000000000000000006786f9900000000000000000000000000000000000000000000000000004f7d47f1ccdfa0000000000000000000000000000000000000000000000000dc8256bd59e0f93",
          "blockHash": "0xfc8344d1e727d3051802b8042ed4f8c56c9e2d0cefcac18edbb0f0f55757a896",
          "blockNumber": "0x7255f6",
          "transactionHash": "0x3a4636b32a7012f0ac4096a2276143f00b9d622e35303c160f8415ee5f64fe95",
          "transactionIndex": "0x59",
          "logIndex": "0x72",
          "removed": false
        }
      ],
      "logsBloom": "0x00000000000000000000000000000000000000000000000000000000000000000000000000000000000000000000000020000000000000004000000000000000000000000000000000000008000000000000000000000000000000000000000000000000020000000000000000000800020000000000000000000010000000000000000000010000000000000000000000000000000000000000010000000000000000000000000000000000000000004000000000000000000000000000000000000002000000800000000000000000000000000000080000008000000020000000000000000000000000000000000000000000000000000000000000000000",
      "type": "0x2",
      "transactionHash": "0x3a4636b32a7012f0ac4096a2276143f00b9d622e35303c160f8415ee5f64fe95",
      "transactionIndex": "0x59",
      "blockHash": "0xfc8344d1e727d3051802b8042ed4f8c56c9e2d0cefcac18edbb0f0f55757a896",
      "blockNumber": "0x7255f6",
      "gasUsed": "0xfb93",
      "effectiveGasPrice": "0x98547200",
      "from": "0xc77f7fed3b5cc8249adc428c5f44c9063b9734b4",
      "to": "0x270e88f8683660553e8ba4eb2ad7c91a1710d769",
      "contractAddress": null
    }
  ],
  "libraries": [],
  "pending": [],
  "returns": {},
  "timestamp": 1736898960,
  "chain": 11155111,
  "commit": "51a374b"
}