{
  "transactions": [
    {
      "hash": "0x93eae64d295916fa35cf3652090517533d81caedbe81f34b5f2c620cbbc5514d",
      "transactionType": "CALL",
      "contractName": null,
      "contractAddress": "0x8aafd3ede9adb0ff97c7aebce82a919afb1c8764",
      "function": "buy(address)",
      "arguments": [
        "0xC77f7fed3b5Cc8249aDc428c5F44C9063B9734b4"
      ],
      "transaction": {
        "from": "0xc77f7fed3b5cc8249adc428c5f44c9063b9734b4",
        "to": "0x8aafd3ede9adb0ff97c7aebce82a919afb1c8764",
        "gas": "0x156ea",
        "value": "0xde0b6b3a7640000",
        "input": "0xf088d547000000000000000000000000c77f7fed3b5cc8249adc428c5f44c9063b9734b4",
        "nonce": "0x1642",
        "chainId": "0xaa36a7"
      },
      "additionalContracts": [],
      "isFixedGasLimit": false
    }
  ],
  "receipts": [
    {
      "status": "0x1",
      "cumulativeGasUsed": "0xab2184",
      "logs": [
        {
          "address": "0x8aafd3ede9adb0ff97c7aebce82a919afb1c8764",
          "topics": [
            "0xddf252ad1be2c89b69c2b068fc378daa952ba7f163c4a11628f55a4df523b3ef",
            "0x0000000000000000000000000000000000000000000000000000000000000000",
            "0x000000000000000000000000c77f7fed3b5cc8249adc428c5f44c9063b9734b4"
          ],
          "data": "0x000000000000000000000000000000000000000000000009303501efa3a90a97",
          "blockHash": "0x33c651f262f06f146495c0472b5f2469a638a54a62bc939638069d605d6d06b5",
          "blockNumber": "0x731ddb",
          "transactionHash": "0x93eae64d295916fa35cf3652090517533d81caedbe81f34b5f2c620cbbc5514d",
          "transactionIndex": "0x72",
          "logIndex": "0x9d",
          "removed": false
        },
        {
          "address": "0x8aafd3ede9adb0ff97c7aebce82a919afb1c8764",
          "topics": [
            "0xddf252ad1be2c89b69c2b068fc378daa952ba7f163c4a11628f55a4df523b3ef",
            "0x0000000000000000000000000000000000000000000000000000000000000000",
            "0x000000000000000000000000c77f7fed3b5cc8249adc428c5f44c9063b9734b4"
          ],
          "data": "0x000000000000000000000000000000000000000000000000072291ab0b4c4b72",
          "blockHash": "0x33c651f262f06f146495c0472b5f2469a638a54a62bc939638069d605d6d06b5",
          "blockNumber": "0x731ddb",
          "transactionHash": "0x93eae64d295916fa35cf3652090517533d81caedbe81f34b5f2c620cbbc5514d",
          "transactionIndex": "0x72",
          "logIndex": "0x9e",
          "removed": false
        },
        {
          "address": "0x8aafd3ede9adb0ff97c7aebce82a919afb1c8764",
          "topics": [
            "0x4afcb4a87cdbd9974efdb92ee48bc8d7cd0ae4bf217004db3d080cbaee652ca7"
          ],
          "data": "0x000000000000000000000000000000000000000000000000000000006790632c0000000000000000000000000000000000000000000000000014c7070d9d259b0000000000000000000000000000000000000000000000000de0b6b3a7640000",
          "blockHash": "0x33c651f262f06f146495c0472b5f2469a638a54a62bc939638069d605d6d06b5",
          "blockNumber": "0x731ddb",
          "transactionHash": "0x93eae64d295916fa35cf3652090517533d81caedbe81f34b5f2c620cbbc5514d",
          "transactionIndex": "0x72",
          "logIndex": "0x9f",
          "removed": false
        }
      ],
      "logsBloom": "0x00000000000000000000000000000000000000000600000000000000000000000000000000000000000000000000000000000000000000004000000000000000000000000000004000000008000000000000000000000000000000000000000000000000020000000000000000000800020000000000000000000010000000000000000000000000000000000000000000000000000000000000010000000000000000000000000000000000000000004000000000000000000000000000000000000002000000800000000000000000000000000000080000000000000020000000000000000000000000000000000000000000000000000000000000000000",
      "type": "0x2",
      "transactionHash": "0x93eae64d295916fa35cf3652090517533d81caedbe81f34b5f2c620cbbc5514d",
      "transactionIndex": "0x72",
      "blockHash": "0x33c651f262f06f146495c0472b5f2469a638a54a62bc939638069d605d6d06b5",
      "blockNumber": "0x731ddb",
      "gasUsed": "0xf844",
      "effectiveGasPrice": "0x4a09ddd7",
      "from": "0xc77f7fed3b5cc8249adc428c5f44c9063b9734b4",
      "to": "0x8aafd3ede9adb0ff97c7aebce82a919afb1c8764",
      "contractAddress": null
    }
  ],
  "libraries": [],
  "pending": [],
  "returns": {},
  "timestamp": 1737515821,
  "chain": 11155111,
  "commit": "1d2fb70"
}