{
  "transactions": [
    {
      "hash": "0x61a8e4c19d4b5aa881764344081f9955e6b0769c1bf0d8c85cb1d391b6378351",
      "transactionType": "CALL",
      "contractName": null,
      "contractAddress": "0x8aafd3ede9adb0ff97c7aebce82a919afb1c8764",
      "function": "sell(uint256)",
      "arguments": [
        "16001131384189249"
      ],
      "transaction": {
        "from": "0xc77f7fed3b5cc8249adc428c5f44c9063b9734b4",
        "to": "0x8aafd3ede9adb0ff97c7aebce82a919afb1c8764",
        "gas": "0x1724d",
        "value": "0x0",
        "input": "0xe4849b320000000000000000000000000000000000000000000000000038d8f1b828b141",
        "nonce": "0x1405",
        "chainId": "0xaa36a7"
      },
      "additionalContracts": [],
      "isFixedGasLimit": false
    }
  ],
  "receipts": [
    {
      "status": "0x1",
      "cumulativeGasUsed": "0x142dfaa",
      "logs": [
        {
          "address": "0x8aafd3ede9adb0ff97c7aebce82a919afb1c8764",
          "topics": [
            "0xddf252ad1be2c89b69c2b068fc378daa952ba7f163c4a11628f55a4df523b3ef",
            "0x000000000000000000000000c77f7fed3b5cc8249adc428c5f44c9063b9734b4",
            "0x0000000000000000000000000000000000000000000000000000000000000000"
          ],
          "data": "0x000000000000000000000000000000000000000000000000003864854a244558",
          "blockHash": "0x13e31966d9f40d7e6f303a6df70f4af018905c182cf864cf54ba660808c2dd87",
          "blockNumber": "0x731b3d",
          "transactionHash": "0x61a8e4c19d4b5aa881764344081f9955e6b0769c1bf0d8c85cb1d391b6378351",
          "transactionIndex": "0xa5",
          "logIndex": "0x9d",
          "removed": false
        },
        {
          "address": "0x8aafd3ede9adb0ff97c7aebce82a919afb1c8764",
          "topics": [
            "0xddf252ad1be2c89b69c2b068fc378daa952ba7f163c4a11628f55a4df523b3ef",
            "0x000000000000000000000000c77f7fed3b5cc8249adc428c5f44c9063b9734b4",
            "0x000000000000000000000000c77f7fed3b5cc8249adc428c5f44c9063b9734b4"
          ],
          "data": "0x0000000000000000000000000000000000000000000000000000746c6e046be9",
          "blockHash": "0x13e31966d9f40d7e6f303a6df70f4af018905c182cf864cf54ba660808c2dd87",
          "blockNumber": "0x731b3d",
          "transactionHash": "0x61a8e4c19d4b5aa881764344081f9955e6b0769c1bf0d8c85cb1d391b6378351",
          "transactionIndex": "0xa5",
          "logIndex": "0x9e",
          "removed": false
        },
        {
          "address": "0x8aafd3ede9adb0ff97c7aebce82a919afb1c8764",
          "topics": [
            "0x4afcb4a87cdbd9974efdb92ee48bc8d7cd0ae4bf217004db3d080cbaee652ca7"
          ],
          "data": "0x00000000000000000000000000000000000000000000000000000000679043ac000000000000000000000000000000000000000000000000000e368a5e4821ec00000000000000000000000000000000000000000000000000003a3882af1a77",
          "blockHash": "0x13e31966d9f40d7e6f303a6df70f4af018905c182cf864cf54ba660808c2dd87",
          "blockNumber": "0x731b3d",
          "transactionHash": "0x61a8e4c19d4b5aa881764344081f9955e6b0769c1bf0d8c85cb1d391b6378351",
          "transactionIndex": "0xa5",
          "logIndex": "0x9f",
          "removed": false
        }
      ],
      "logsBloom": "0x00000000000000000000000000000000000000000600000000000000000000000000000000000000000000000000000000000000000000004000000000000000000000000000004000000008000000000000000000000000000000000000000000000000020000000000000000000800020000000000000000000010000000000000000000000000000000000000000000000000000000000000010000000000000000000000000000000000000000004000000000000000000000000000000000000002000000800000000000000000000000000000080000000000000020000000000000000000000000000000000000000000000000000000000000000000",
      "type": "0x2",
      "transactionHash": "0x61a8e4c19d4b5aa881764344081f9955e6b0769c1bf0d8c85cb1d391b6378351",
      "transactionIndex": "0xa5",
      "blockHash": "0x13e31966d9f40d7e6f303a6df70f4af018905c182cf864cf54ba660808c2dd87",
      "blockNumber": "0x731b3d",
      "gasUsed": "0xfd33",
      "effectiveGasPrice": "0xc2395bbd",
      "from": "0xc77f7fed3b5cc8249adc428c5f44c9063b9734b4",
      "to": "0x8aafd3ede9adb0ff97c7aebce82a919afb1c8764",
      "contractAddress": null
    }
  ],
  "libraries": [],
  "pending": [],
  "returns": {},
  "timestamp": 1737507756,
  "chain": 11155111,
  "commit": "1d2fb70"
}