{
  "transactions": [
    {
      "hash": "0x006b1657c8f47d7b7542550211bda9417dc5aea62d4c05f2beae04242737cc53",
      "transactionType": "CALL",
      "contractName": null,
      "contractAddress": "0x8aafd3ede9adb0ff97c7aebce82a919afb1c8764",
      "function": "sell(uint256)",
      "arguments": [
        "3064931005243"
      ],
      "transaction": {
        "from": "0xc77f7fed3b5cc8249adc428c5f44c9063b9734b4",
        "to": "0x8aafd3ede9adb0ff97c7aebce82a919afb1c8764",
        "gas": "0x15daa",
        "value": "0x0",
        "input": "0xe4849b32000000000000000000000000000000000000000000000000000002c99c1fb33b",
        "nonce": "0xea0",
        "chainId": "0xaa36a7"
      },
      "additionalContracts": [],
      "isFixedGasLimit": false
    }
  ],
  "receipts": [
    {
      "status": "0x1",
      "cumulativeGasUsed": "0xe038fb",
      "logs": [
        {
          "address": "0x8aafd3ede9adb0ff97c7aebce82a919afb1c8764",
          "topics": [
            "0xddf252ad1be2c89b69c2b068fc378daa952ba7f163c4a11628f55a4df523b3ef",
            "0x000000000000000000000000c77f7fed3b5cc8249adc428c5f44c9063b9734b4",
            "0x0000000000000000000000000000000000000000000000000000000000000000"
          ],
          "data": "0x000000000000000000000000000000000000000000000000000002c3e6a69d52",
          "blockHash": "0xc3267adeb69772e8dca95405c0cc236e3eaa63bb28b1014b3db908d5dfd3d476",
          "blockNumber": "0x731402",
          "transactionHash": "0x006b1657c8f47d7b7542550211bda9417dc5aea62d4c05f2beae04242737cc53",
          "transactionIndex": "0x9e",
          "logIndex": "0x10c",
          "removed": false
        },
        {
          "address": "0x8aafd3ede9adb0ff97c7aebce82a919afb1c8764",
          "topics": [
            "0xddf252ad1be2c89b69c2b068fc378daa952ba7f163c4a11628f55a4df523b3ef",
            "0x000000000000000000000000c77f7fed3b5cc8249adc428c5f44c9063b9734b4",
            "0x000000000000000000000000c77f7fed3b5cc8249adc428c5f44c9063b9734b4"
          ],
          "data": "0x00000000000000000000000000000000000000000000000000000005b57915e9",
          "blockHash": "0xc3267adeb69772e8dca95405c0cc236e3eaa63bb28b1014b3db908d5dfd3d476",
          "blockNumber": "0x731402",
          "transactionHash": "0x006b1657c8f47d7b7542550211bda9417dc5aea62d4c05f2beae04242737cc53",
          "transactionIndex": "0x9e",
          "logIndex": "0x10d",
          "removed": false
        },
        {
          "address": "0x8aafd3ede9adb0ff97c7aebce82a919afb1c8764",
          "topics": [
            "0x4afcb4a87cdbd9974efdb92ee48bc8d7cd0ae4bf217004db3d080cbaee652ca7"
          ],
          "data": "0x00000000000000000000000000000000000000000000000000000000678fecc40000000000000000000000000000000000000000000000000004b75e1e86aa5200000000000000000000000000000000000000000000000000000000f2841046",
          "blockHash": "0xc3267adeb69772e8dca95405c0cc236e3eaa63bb28b1014b3db908d5dfd3d476",
          "blockNumber": "0x731402",
          "transactionHash": "0x006b1657c8f47d7b7542550211bda9417dc5aea62d4c05f2beae04242737cc53",
          "transactionIndex": "0x9e",
          "logIndex": "0x10e",
          "removed": false
        }
      ],
      "logsBloom": "0x00000000000000000000000000000000000000000600000000000000000000000000000000000000000000000000000000000000000000004000000000000000000000000000004000000008000000000000000000000000000000000000000000000000020000000000000000000800020000000000000000000010000000000000000000000000000000000000000000000000000000000000010000000000000000000000000000000000000000004000000000000000000000000000000000000002000000800000000000000000000000000000080000000000000020000000000000000000000000000000000000000000000000000000000000000000",
      "type": "0x2",
      "transactionHash": "0x006b1657c8f47d7b7542550211bda9417dc5aea62d4c05f2beae04242737cc53",
      "transactionIndex": "0x9e",
      "blockHash": "0xc3267adeb69772e8dca95405c0cc236e3eaa63bb28b1014b3db908d5dfd3d476",
      "blockNumber": "0x731402",
      "gasUsed": "0xfd27",
      "effectiveGasPrice": "0x7d34590f",
      "from": "0xc77f7fed3b5cc8249adc428c5f44c9063b9734b4",
      "to": "0x8aafd3ede9adb0ff97c7aebce82a919afb1c8764",
      "contractAddress": null
    }
  ],
  "libraries": [],
  "pending": [],
  "returns": {},
  "timestamp": 1737485510,
  "chain": 11155111,
  "commit": "51a374b"
}