{
  "transactions": [
    {
      "hash": "0x62e990420b110f7c1870ab786a26212369062caa0596f06453b5fdf1f97462f3",
      "transactionType": "CALL",
      "contractName": null,
      "contractAddress": "0x270e88f8683660553e8ba4eb2ad7c91a1710d769",
      "function": "sell(uint256)",
      "arguments": [
        "989817489346624499549"
      ],
      "transaction": {
        "from": "0xc77f7fed3b5cc8249adc428c5f44c9063b9734b4",
        "to": "0x270e88f8683660553e8ba4eb2ad7c91a1710d769",
        "gas": "0x16fec",
        "value": "0x0",
        "input": "0xe4849b32000000000000000000000000000000000000000000000035a87a22486e8c2f5d",
        "nonce": "0x4e9",
        "chainId": "0xaa36a7"
      },
      "additionalContracts": [],
      "isFixedGasLimit": false
    }
  ],
  "receipts": [
    {
      "status": "0x1",
      "cumulativeGasUsed": "0x52bb5b",
      "logs": [
        {
          "address": "0x270e88f8683660553e8ba4eb2ad7c91a1710d769",
          "topics": [
            "0xddf252ad1be2c89b69c2b068fc378daa952ba7f163c4a11628f55a4df523b3ef",
            "0x000000000000000000000000c77f7fed3b5cc8249adc428c5f44c9063b9734b4",
            "0x0000000000000000000000000000000000000000000000000000000000000000"
          ],
          "data": "0x000000000000000000000000000000000000000000000035a87a22486e8c2f5d",
          "blockHash": "0xe62aaae0e059f8977d4d488dfa437d755a59db22610c6da3c07b4d760cdfd919",
          "blockNumber": "0x725178",
          "transactionHash": "0x62e990420b110f7c1870ab786a26212369062caa0596f06453b5fdf1f97462f3",
          "transactionIndex": "0x3d",
          "logIndex": "0x63",
          "removed": false
        },
        {
          "address": "0x270e88f8683660553e8ba4eb2ad7c91a1710d769",
          "topics": [
            "0x4afcb4a87cdbd9974efdb92ee48bc8d7cd0ae4bf217004db3d080cbaee652ca7"
          ],
          "data": "0x000000000000000000000000000000000000000000000000000000006786c384000000000000000000000000000000000000000000000000000390b6d7af48ee0000000000000000000000000000000000000000000000000dc8423f9e7047f4",
          "blockHash": "0xe62aaae0e059f8977d4d488dfa437d755a59db22610c6da3c07b4d760cdfd919",
          "blockNumber": "0x725178",
          "transactionHash": "0x62e990420b110f7c1870ab786a26212369062caa0596f06453b5fdf1f97462f3",
          "transactionIndex": "0x3d",
          "logIndex": "0x64",
          "removed": false
        }
      ],
      "logsBloom": "0x00000000000000000000000000000000000000000000000000000000000000000000000000000000000000000000000020000000000000004000000000000000000000000000000000000008000000000000000000000000000000000000000000000000020000000000000000000800020000000000000000000010000000000000000000010000000000000000000000000000000000000000010000000000000000000000000000000000000000004000000000000000000000000000000000000002000000800000000000000000000000000000080000008000000020000000000000000000000000000000000000000000000000000000000000000000",
      "type": "0x2",
      "transactionHash": "0x62e990420b110f7c1870ab786a26212369062caa0596f06453b5fdf1f97462f3",
      "transactionIndex": "0x3d",
      "blockHash": "0xe62aaae0e059f8977d4d488dfa437d755a59db22610c6da3c07b4d760cdfd919",
      "blockNumber": "0x725178",
      "gasUsed": "0xfb93",
      "effectiveGasPrice": "0x4c100272e",
      "from": "0xc77f7fed3b5cc8249adc428c5f44c9063b9734b4",
      "to": "0x270e88f8683660553e8ba4eb2ad7c91a1710d769",
      "contractAddress": null
    }
  ],
  "libraries": [],
  "pending": [],
  "returns": {},
  "timestamp": 1736885126,
  "chain": 11155111,
  "commit": "51a374b"
}