{
  "transactions": [
    {
      "hash": "0x8c5e4728a972da389855b55c13cce4cc9da657fc9d547a62627515ac58445b0e",
      "transactionType": "CALL",
      "contractName": null,
      "contractAddress": "0xbf4a322f1496e5c3d34a9bcdb4c60567b38c7de2",
      "function": "buy(address)",
      "arguments": [
        "0xC77f7fed3b5Cc8249aDc428c5F44C9063B9734b4"
      ],
      "transaction": {
        "from": "0xc77f7fed3b5cc8249adc428c5f44c9063b9734b4",
        "to": "0xbf4a322f1496e5c3d34a9bcdb4c60567b38c7de2",
        "gas": "0x1b309",
        "value": "0xde0b6b3a7640000",
        "input": "0xf088d547000000000000000000000000c77f7fed3b5cc8249adc428c5f44c9063b9734b4",
        "nonce": "0xbc0",
        "chainId": "0xaa36a7"
      },
      "additionalContracts": [],
      "isFixedGasLimit": false
    }
  ],
  "receipts": [
    {
      "status": "0x1",
      "cumulativeGasUsed": "0xb130c8",
      "logs": [
        {
          "address": "0xbf4a322f1496e5c3d34a9bcdb4c60567b38c7de2",
          "topics": [
            "0xddf252ad1be2c89b69c2b068fc378daa952ba7f163c4a11628f55a4df523b3ef",
            "0x0000000000000000000000000000000000000000000000000000000000000000",
            "0x000000000000000000000000c77f7fed3b5cc8249adc428c5f44c9063b9734b4"
          ],
          "data": "0x000000000000000000000000000000000000000000000035074617e297f1af91",
          "blockHash": "0xe8dacc9cba8c5b18c929c9536a729cb2074311c9507c22adea4e676bae3410af",
          "blockNumber": "0x725bdd",
          "transactionHash": "0x8c5e4728a972da389855b55c13cce4cc9da657fc9d547a62627515ac58445b0e",
          "transactionIndex": "0x35",
          "logIndex": "0x40",
          "removed": false
        },
        {
          "address": "0xbf4a322f1496e5c3d34a9bcdb4c60567b38c7de2",
          "topics": [
            "0xddf252ad1be2c89b69c2b068fc378daa952ba7f163c4a11628f55a4df523b3ef",
            "0x0000000000000000000000000000000000000000000000000000000000000000",
            "0x000000000000000000000000c77f7fed3b5cc8249adc428c5f44c9063b9734b4"
          ],
          "data": "0x000000000000000000000000000000000000000000000000292da9c4b92ece0c",
          "blockHash": "0xe8dacc9cba8c5b18c929c9536a729cb2074311c9507c22adea4e676bae3410af",
          "blockNumber": "0x725bdd",
          "transactionHash": "0x8c5e4728a972da389855b55c13cce4cc9da657fc9d547a62627515ac58445b0e",
          "transactionIndex": "0x35",
          "logIndex": "0x41",
          "removed": false
        },
        {
          "address": "0xbf4a322f1496e5c3d34a9bcdb4c60567b38c7de2",
          "topics": [
            "0x4afcb4a87cdbd9974efdb92ee48bc8d7cd0ae4bf217004db3d080cbaee652ca7"
          ],
          "data": "0x00000000000000000000000000000000000000000000000000000000678740b800000000000000000000000000000000000000000000000000039879394bb1d00000000000000000000000000000000000000000000000000de0b6b3a7640000",
          "blockHash": "0xe8dacc9cba8c5b18c929c9536a729cb2074311c9507c22adea4e676bae3410af",
          "blockNumber": "0x725bdd",
          "transactionHash": "0x8c5e4728a972da389855b55c13cce4cc9da657fc9d547a62627515ac58445b0e",
          "transactionIndex": "0x35",
          "logIndex": "0x42",
          "removed": false
        }
      ],
      "logsBloom": "0x00000000000000000000000000000000000000000000000000000000000000000000000000000000000000000000000000000000000000004000000000000000000000000000000000000008000000000000001000000000000000000000000000000000020000000000000000000800020000000000000000000010000000000000000000000000000000000000000000000000000008000000010000000000000000000000000000000000000000004000000000000000000000000000000000000002000000800000000000001000000000000000080000000000000020000000000000000000000000000000000000000000000000000000000000000000",
      "type": "0x2",
      "transactionHash": "0x8c5e4728a972da389855b55c13cce4cc9da657fc9d547a62627515ac58445b0e",
      "transactionIndex": "0x35",
      "blockHash": "0xe8dacc9cba8c5b18c929c9536a729cb2074311c9507c22adea4e676bae3410af",
      "blockNumber": "0x725bdd",
      "gasUsed": "0x13af6",
      "effectiveGasPrice": "0x654fb1a8",
      "from": "0xc77f7fed3b5cc8249adc428c5f44c9063b9734b4",
      "to": "0xbf4a322f1496e5c3d34a9bcdb4c60567b38c7de2",
      "contractAddress": null
    }
  ],
  "libraries": [],
  "pending": [],
  "returns": {},
  "timestamp": 1736917178,
  "chain": 11155111,
  "commit": "51a374b"
}