{
  "transactions": [
    {
      "hash": "0xf3327a82061a4dbbac1d8d5e64b3702d3f4eae9ddce0d97c548c99f9dce45852",
      "transactionType": "CALL",
      "contractName": null,
      "contractAddress": "0xd7bc75898e513accccf720a874d44dab5a4b6223",
      "function": "buy(address)",
      "arguments": [
        "0xC77f7fed3b5Cc8249aDc428c5F44C9063B9734b4"
      ],
      "transaction": {
        "from": "0xc77f7fed3b5cc8249adc428c5f44c9063b9734b4",
        "to": "0xd7bc75898e513accccf720a874d44dab5a4b6223",
        "gas": "0x1b30c",
        "value": "0x2386f26fc10000",
        "input": "0xf088d547000000000000000000000000c77f7fed3b5cc8249adc428c5f44c9063b9734b4",
        "nonce": "0x96",
        "chainId": "0xaa36a7"
      },
      "additionalContracts": [],
      "isFixedGasLimit": false
    }
  ],
  "receipts": [
    {
      "status": "0x1",
      "cumulativeGasUsed": "0xa564a2",
      "logs": [
        {
          "address": "0xd7bc75898e513accccf720a874d44dab5a4b6223",
          "topics": [
            "0xddf252ad1be2c89b69c2b068fc378daa952ba7f163c4a11628f55a4df523b3ef",
            "0x0000000000000000000000000000000000000000000000000000000000000000",
            "0x000000000000000000000000c77f7fed3b5cc8249adc428c5f44c9063b9734b4"
          ],
          "data": "0x0000000000000000000000000000000000000000000000008963bbffe00452f9",
          "blockHash": "0x28ae16baed1f2443bfc30d429e668f525a44908c16daac9162a76c5d153693e6",
          "blockNumber": "0x723908",
          "transactionHash": "0xf3327a82061a4dbbac1d8d5e64b3702d3f4eae9ddce0d97c548c99f9dce45852",
          "transactionIndex": "0x56",
          "logIndex": "0x7e",
          "removed": false
        },
        {
          "address": "0xd7bc75898e513accccf720a874d44dab5a4b6223",
          "topics": [
            "0xddf252ad1be2c89b69c2b068fc378daa952ba7f163c4a11628f55a4df523b3ef",
            "0x0000000000000000000000000000000000000000000000000000000000000000",
            "0x000000000000000000000000c77f7fed3b5cc8249adc428c5f44c9063b9734b4"
          ],
          "data": "0x000000000000000000000000000000000000000000000000006ab00d2b6d7f25",
          "blockHash": "0x28ae16baed1f2443bfc30d429e668f525a44908c16daac9162a76c5d153693e6",
          "blockNumber": "0x723908",
          "transactionHash": "0xf3327a82061a4dbbac1d8d5e64b3702d3f4eae9ddce0d97c548c99f9dce45852",
          "transactionIndex": "0x56",
          "logIndex": "0x7f",
          "removed": false
        },
        {
          "address": "0xd7bc75898e513accccf720a874d44dab5a4b6223",
          "topics": [
            "0x4afcb4a87cdbd9974efdb92ee48bc8d7cd0ae4bf217004db3d080cbaee652ca7"
          ],
          "data": "0x0000000000000000000000000000000000000000000000000000000067859da800000000000000000000000000000000000000000000000000038d7f82ed4c9f000000000000000000000000000000000000000000000000002386f26fc10000",
          "blockHash": "0x28ae16baed1f2443bfc30d429e668f525a44908c16daac9162a76c5d153693e6",
          "blockNumber": "0x723908",
          "transactionHash": "0xf3327a82061a4dbbac1d8d5e64b3702d3f4eae9ddce0d97c548c99f9dce45852",
          "transactionIndex": "0x56",
          "logIndex": "0x80",
          "removed": false
        }
      ],
      "logsBloom": "0x00000000000000000000000000000000000000000000000000000000000000000000000000000000000000000000000000000000000000004000000000000000000000000000000000000008000000000000000000000000000000000000000000000000020000000000000000000800020000000000000000000010000000000000000000000000000000000000000000000000000000000000010000000000000000000000000000000000000000004000001000000000000000000000000000000002000000800000000000004000000000000000080000000000000020000000000000000000000000000000000000000000080000000000000000000000",
      "type": "0x2",
      "transactionHash": "0xf3327a82061a4dbbac1d8d5e64b3702d3f4eae9ddce0d97c548c99f9dce45852",
      "transactionIndex": "0x56",
      "blockHash": "0x28ae16baed1f2443bfc30d429e668f525a44908c16daac9162a76c5d153693e6",
      "blockNumber": "0x723908",
      "gasUsed": "0x13af8",
      "effectiveGasPrice": "0xa78ad4",
      "from": "0xc77f7fed3b5cc8249adc428c5f44c9063b9734b4",
      "to": "0xd7bc75898e513accccf720a874d44dab5a4b6223",
      "contractAddress": null
    }
  ],
  "libraries": [],
  "pending": [],
  "returns": {},
  "timestamp": 1736809898,
  "chain": 11155111,
  "commit": "51a374b"
}