{
  "transactions": [
    {
      "hash": "0x4d58fefbf27bc39b47c80ecd7d809023ddf811b5d52ec30da1e8c8954a92afa3",
      "transactionType": "CALL",
      "contractName": null,
      "contractAddress": "0xbf4a322f1496e5c3d34a9bcdb4c60567b38c7de2",
      "function": "sell(uint256)",
      "arguments": [
        "978190044089175199313"
      ],
      "transaction": {
        "from": "0xc77f7fed3b5cc8249adc428c5f44c9063b9734b4",
        "to": "0xbf4a322f1496e5c3d34a9bcdb4c60567b38c7de2",
        "gas": "0x16fea",
        "value": "0x0",
        "input": "0xe4849b32000000000000000000000000000000000000000000000035071d266d16fb4e51",
        "nonce": "0xc9f",
        "chainId": "0xaa36a7"
      },
      "additionalContracts": [],
      "isFixedGasLimit": false
    }
  ],
  "receipts": [
    {
      "status": "0x1",
      "cumulativeGasUsed": "0x788c5a",
      "logs": [
        {
          "address": "0xbf4a322f1496e5c3d34a9bcdb4c60567b38c7de2",
          "topics": [
            "0xddf252ad1be2c89b69c2b068fc378daa952ba7f163c4a11628f55a4df523b3ef",
            "0x000000000000000000000000c77f7fed3b5cc8249adc428c5f44c9063b9734b4",
            "0x0000000000000000000000000000000000000000000000000000000000000000"
          ],
          "data": "0x000000000000000000000000000000000000000000000035071d266d16fb4e51",
          "blockHash": "0x765a0af3cae4bfc5cd436a68efef2a6566c6abddaa8021f0ae9af4df47206022",
          "blockNumber": "0x725ce8",
          "transactionHash": "0x4d58fefbf27bc39b47c80ecd7d809023ddf811b5d52ec30da1e8c8954a92afa3",
          "transactionIndex": "0x56",
          "logIndex": "0x75",
          "removed": false
        },
        {
          "address": "0xbf4a322f1496e5c3d34a9bcdb4c60567b38c7de2",
          "topics": [
            "0x4afcb4a87cdbd9974efdb92ee48bc8d7cd0ae4bf217004db3d080cbaee652ca7"
          ],
          "data": "0x0000000000000000000000000000000000000000000000000000000067874d5400000000000000000000000000000000000000000000000000039b4aeaa787620000000000000000000000000000000000000000000000000dc7e3dddbacb54d",
          "blockHash": "0x765a0af3cae4bfc5cd436a68efef2a6566c6abddaa8021f0ae9af4df47206022",
          "blockNumber": "0x725ce8",
          "transactionHash": "0x4d58fefbf27bc39b47c80ecd7d809023ddf811b5d52ec30da1e8c8954a92afa3",
          "transactionIndex": "0x56",
          "logIndex": "0x76",
          "removed": false
        }
      ],
      "logsBloom": "0x00000000000000000000000000000000000000000000000000000000000000000000000000000000000000000000000000000000000000004000000000000000000000000000000000000008000000000000001000000000000000000000000000000000020000000000000000000800020000000000000000000010000000000000000000000000000000000000000000000000000008000000010000000000000000000000000000000000000000004000000000000000000000000000000000000002000000800000000000001000000000000000080000000000000020000000000000000000000000000000000000000000000000000000000000000000",
      "type": "0x2",
      "transactionHash": "0x4d58fefbf27bc39b47c80ecd7d809023ddf811b5d52ec30da1e8c8954a92afa3",
      "transactionIndex": "0x56",
      "blockHash": "0x765a0af3cae4bfc5cd436a68efef2a6566c6abddaa8021f0ae9af4df47206022",
      "blockNumber": "0x725ce8",
      "gasUsed": "0xfb91",
      "effectiveGasPrice": "0x25edbacb1",
      "from": "0xc77f7fed3b5cc8249adc428c5f44c9063b9734b4",
      "to": "0xbf4a322f1496e5c3d34a9bcdb4c60567b38c7de2",
      "contractAddress": null
    }
  ],
  "libraries": [],
  "pending": [],
  "returns": {},
  "timestamp": 1736920405,
  "chain": 11155111,
  "commit": "51a374b"
}