{
  "transactions": [
    {
      "hash": "0x83e6294c69954db204e39a9e330fe5868950eda7974939fb1bfe0b3b653f8651",
      "transactionType": "CALL",
      "contractName": null,
      "contractAddress": "0x270e88f8683660553e8ba4eb2ad7c91a1710d769",
      "function": "buy(address)",
      "arguments": [
        "0xC77f7fed3b5Cc8249aDc428c5F44C9063B9734b4"
      ],
      "transaction": {
        "from": "0xc77f7fed3b5cc8249adc428c5f44c9063b9734b4",
        "to": "0x270e88f8683660553e8ba4eb2ad7c91a1710d769",
        "gas": "0x1b30c",
        "value": "0xde0b6b3a7640000",
        "input": "0xf088d547000000000000000000000000c77f7fed3b5cc8249adc428c5f44c9063b9734b4",
        "nonce": "0x5aa",
        "chainId": "0xaa36a7"
      },
      "additionalContracts": [],
      "isFixedGasLimit": false
    }
  ],
  "receipts": [
    {
      "status": "0x1",
      "cumulativeGasUsed": "0x9aa7d1",
      "logs": [
        {
          "address": "0x270e88f8683660553e8ba4eb2ad7c91a1710d769",
          "topics": [
            "0xddf252ad1be2c89b69c2b068fc378daa952ba7f163c4a11628f55a4df523b3ef",
            "0x0000000000000000000000000000000000000000000000000000000000000000",
            "0x000000000000000000000000c77f7fed3b5cc8249adc428c5f44c9063b9734b4"
          ],
          "data": "0x000000000000000000000000000000000000000000000033e1de69b4cdd09a38",
          "blockHash": "0x57b5318b80b176c152035787d8c7f2bbe167d1393ecbe8a767205270db6b71b6",
          "blockNumber": "0x725264",
          "transactionHash": "0x83e6294c69954db204e39a9e330fe5868950eda7974939fb1bfe0b3b653f8651",
          "transactionIndex": "0x49",
          "logIndex": "0x9e",
          "removed": false
        },
        {
          "address": "0x270e88f8683660553e8ba4eb2ad7c91a1710d769",
          "topics": [
            "0xddf252ad1be2c89b69c2b068fc378daa952ba7f163c4a11628f55a4df523b3ef",
            "0x0000000000000000000000000000000000000000000000000000000000000000",
            "0x000000000000000000000000c77f7fed3b5cc8249adc428c5f44c9063b9734b4"
          ],
          "data": "0x0000000000000000000000000000000000000000000000002849d2fc9097feaa",
          "blockHash": "0x57b5318b80b176c152035787d8c7f2bbe167d1393ecbe8a767205270db6b71b6",
          "blockNumber": "0x725264",
          "transactionHash": "0x83e6294c69954db204e39a9e330fe5868950eda7974939fb1bfe0b3b653f8651",
          "transactionIndex": "0x49",
          "logIndex": "0x9f",
          "removed": false
        },
        {
          "address": "0x270e88f8683660553e8ba4eb2ad7c91a1710d769",
          "topics": [
            "0x4afcb4a87cdbd9974efdb92ee48bc8d7cd0ae4bf217004db3d080cbaee652ca7"
          ],
          "data": "0x000000000000000000000000000000000000000000000000000000006786cea00000000000000000000000000000000000000000000000000003ace708c2f7650000000000000000000000000000000000000000000000000de0b6b3a7640000",
          "blockHash": "0x57b5318b80b176c152035787d8c7f2bbe167d1393ecbe8a767205270db6b71b6",
          "blockNumber": "0x725264",
          "transactionHash": "0x83e6294c69954db204e39a9e330fe5868950eda7974939fb1bfe0b3b653f8651",
          "transactionIndex": "0x49",
          "logIndex": "0xa0",
          "removed": false
        }
      ],
      "logsBloom": "0x00000000000000000000000000000000000000000000000000000000000000000000000000000000000000000000000020000000000000004000000000000000000000000000000000000008000000000000000000000000000000000000000000000000020000000000000000000800020000000000000000000010000000000000000000010000000000000000000000000000000000000000010000000000000000000000000000000000000000004000000000000000000000000000000000000002000000800000000000000000000000000000080000008000000020000000000000000000000000000000000000000000000000000000000000000000",
      "type": "0x2",
      "transactionHash": "0x83e6294c69954db204e39a9e330fe5868950eda7974939fb1bfe0b3b653f8651",
      "transactionIndex": "0x49",
      "blockHash": "0x57b5318b80b176c152035787d8c7f2bbe167d1393ecbe8a767205270db6b71b6",
      "blockNumber": "0x725264",
      "gasUsed": "0x13af8",
      "effectiveGasPrice": "0x48d3fd163",
      "from": "0xc77f7fed3b5cc8249adc428c5f44c9063b9734b4",
      "to": "0x270e88f8683660553e8ba4eb2ad7c91a1710d769",
      "contractAddress": null
    }
  ],
  "libraries": [],
  "pending": [],
  "returns": {},
  "timestamp": 1736887969,
  "chain": 11155111,
  "commit": "51a374b"
}