{
  "transactions": [
    {
      "hash": "0x6e750e304afe4edb3d8c7917e27e68402ca26c8f648570d84cdef80f964bb9e2",
      "transactionType": "CALL",
      "contractName": null,
      "contractAddress": "0xbf4a322f1496e5c3d34a9bcdb4c60567b38c7de2",
      "function": "sell(uint256)",
      "arguments": [
        "977494933345570023719"
      ],
      "transaction": {
        "from": "0xc77f7fed3b5cc8249adc428c5f44c9063b9734b4",
        "to": "0xbf4a322f1496e5c3d34a9bcdb4c60567b38c7de2",
        "gas": "0x16fea",
        "value": "0x0",
        "input": "0xe4849b32000000000000000000000000000000000000000000000034fd779ee33ed66927",
        "nonce": "0xcd3",
        "chainId": "0xaa36a7"
      },
      "additionalContracts": [],
      "isFixedGasLimit": false
    }
  ],
  "receipts": [
    {
      "status": "0x1",
      "cumulativeGasUsed": "0x150a56e",
      "logs": [
        {
          "address": "0xbf4a322f1496e5c3d34a9bcdb4c60567b38c7de2",
          "topics": [
            "0xddf252ad1be2c89b69c2b068fc378daa952ba7f163c4a11628f55a4df523b3ef",
            "0x000000000000000000000000c77f7fed3b5cc8249adc428c5f44c9063b9734b4",
            "0x0000000000000000000000000000000000000000000000000000000000000000"
          ],
          "data": "0x000000000000000000000000000000000000000000000034fd779ee33ed66927",
          "blockHash": "0xa99f877ae0f49aea359ae507206dbc7c391e53213cd3aaa46c62ce43891af896",
          "blockNumber": "0x725d24",
          "transactionHash": "0x6e750e304afe4edb3d8c7917e27e68402ca26c8f648570d84cdef80f964bb9e2",
          "transactionIndex": "0xa5",
          "logIndex": "0xd6",
          "removed": false
        },
        {
          "address": "0xbf4a322f1496e5c3d34a9bcdb4c60567b38c7de2",
          "topics": [
            "0x4afcb4a87cdbd9974efdb92ee48bc8d7cd0ae4bf217004db3d080cbaee652ca7"
          ],
          "data": "0x000000000000000000000000000000000000000000000000000000006787502400000000000000000000000000000000000000000000000000039bf2fe3bfa710000000000000000000000000000000000000000000000000dc7e3dc3defbfe4",
          "blockHash": "0xa99f877ae0f49aea359ae507206dbc7c391e53213cd3aaa46c62ce43891af896",
          "blockNumber": "0x725d24",
          "transactionHash": "0x6e750e304afe4edb3d8c7917e27e68402ca26c8f648570d84cdef80f964bb9e2",
          "transactionIndex": "0xa5",
          "logIndex": "0xd7",
          "removed": false
        }
      ],
      "logsBloom": "0x00000000000000000000000000000000000000000000000000000000000000000000000000000000000000000000000000000000000000004000000000000000000000000000000000000008000000000000001000000000000000000000000000000000020000000000000000000800020000000000000000000010000000000000000000000000000000000000000000000000000008000000010000000000000000000000000000000000000000004000000000000000000000000000000000000002000000800000000000001000000000000000080000000000000020000000000000000000000000000000000000000000000000000000000000000000",
      "type": "0x2",
      "transactionHash": "0x6e750e304afe4edb3d8c7917e27e68402ca26c8f648570d84cdef80f964bb9e2",
      "transactionIndex": "0xa5",
      "blockHash": "0xa99f877ae0f49aea359ae507206dbc7c391e53213cd3aaa46c62ce43891af896",
      "blockNumber": "0x725d24",
      "gasUsed": "0xfb91",
      "effectiveGasPrice": "0x52ad76ca2",
      "from": "0xc77f7fed3b5cc8249adc428c5f44c9063b9734b4",
      "to": "0xbf4a322f1496e5c3d34a9bcdb4c60567b38c7de2",
      "contractAddress": null
    }
  ],
  "libraries": [],
  "pending": [],
  "returns": {},
  "timestamp": 1736921126,
  "chain": 11155111,
  "commit": "51a374b"
}