{
  "transactions": [
    {
      "hash": "0x58ccc56a40e6f6e34dbb74f69da569266478991b35cbb7df664a66248ce036ec",
      "transactionType": "CALL",
      "contractName": null,
      "contractAddress": "0x8aafd3ede9adb0ff97c7aebce82a919afb1c8764",
      "function": "sell(uint256)",
      "arguments": [
        "317930"
      ],
      "transaction": {
        "from": "0xc77f7fed3b5cc8249adc428c5f44c9063b9734b4",
        "to": "0x8aafd3ede9adb0ff97c7aebce82a919afb1c8764",
        "gas": "0x16208",
        "value": "0x0",
        "input": "0xe4849b32000000000000000000000000000000000000000000000000000000000004d9ea",
        "nonce": "0x1722",
        "chainId": "0xaa36a7"
      },
      "additionalContracts": [],
      "isFixedGasLimit": false
    }
  ],
  "receipts": [
    {
      "status": "0x1",
      "cumulativeGasUsed": "0x5f9bef",
      "logs": [
        {
          "address": "0x8aafd3ede9adb0ff97c7aebce82a919afb1c8764",
          "topics": [
            "0xddf252ad1be2c89b69c2b068fc378daa952ba7f163c4a11628f55a4df523b3ef",
            "0x000000000000000000000000c77f7fed3b5cc8249adc428c5f44c9063b9734b4",
            "0x0000000000000000000000000000000000000000000000000000000000000000"
          ],
          "data": "0x000000000000000000000000000000000000000000000000000000000004cffb",
          "blockHash": "0x3a028417e1bc0e66b3b20dca6c8ae7bc9d6c8447ecc6c4f4f4ab619ff0d0bfe8",
          "blockNumber": "0x731ee9",
          "transactionHash": "0x58ccc56a40e6f6e34dbb74f69da569266478991b35cbb7df664a66248ce036ec",
          "transactionIndex": "0x50",
          "logIndex": "0x67",
          "removed": false
        },
        {
          "address": "0x8aafd3ede9adb0ff97c7aebce82a919afb1c8764",
          "topics": [
            "0xddf252ad1be2c89b69c2b068fc378daa952ba7f163c4a11628f55a4df523b3ef",
            "0x000000000000000000000000c77f7fed3b5cc8249adc428c5f44c9063b9734b4",
            "0x000000000000000000000000c77f7fed3b5cc8249adc428c5f44c9063b9734b4"
          ],
          "data": "0x00000000000000000000000000000000000000000000000000000000000009ef",
          "blockHash": "0x3a028417e1bc0e66b3b20dca6c8ae7bc9d6c8447ecc6c4f4f4ab619ff0d0bfe8",
          "blockNumber": "0x731ee9",
          "transactionHash": "0x58ccc56a40e6f6e34dbb74f69da569266478991b35cbb7df664a66248ce036ec",
          "transactionIndex": "0x50",
          "logIndex": "0x68",
          "removed": false
        },
        {
          "address": "0x8aafd3ede9adb0ff97c7aebce82a919afb1c8764",
          "topics": [
            "0x4afcb4a87cdbd9974efdb92ee48bc8d7cd0ae4bf217004db3d080cbaee652ca7"
          ],
          "data": "0x0000000000000000000000000000000000000000000000000000000067906fd40000000000000000000000000000000000000000000000000017603bf683344e000000000000000000000000000000000000000000000000000000000000082b",
          "blockHash": "0x3a028417e1bc0e66b3b20dca6c8ae7bc9d6c8447ecc6c4f4f4ab619ff0d0bfe8",
          "blockNumber": "0x731ee9",
          "transactionHash": "0x58ccc56a40e6f6e34dbb74f69da569266478991b35cbb7df664a66248ce036ec",
          "transactionIndex": "0x50",
          "logIndex": "0x69",
          "removed": false
        }
      ],
      "logsBloom": "0x00000000000000000000000000000000000000000600000000000000000000000000000000000000000000000000000000000000000000004000000000000000000000000000004000000008000000000000000000000000000000000000000000000000020000000000000000000800020000000000000000000010000000000000000000000000000000000000000000000000000000000000010000000000000000000000000000000000000000004000000000000000000000000000000000000002000000800000000000000000000000000000080000000000000020000000000000000000000000000000000000000000000000000000000000000000",
      "type": "0x2",
      "transactionHash": "0x58ccc56a40e6f6e34dbb74f69da569266478991b35cbb7df664a66248ce036ec",
      "transactionIndex": "0x50",
      "blockHash": "0x3a028417e1bc0e66b3b20dca6c8ae7bc9d6c8447ecc6c4f4f4ab619ff0d0bfe8",
      "blockNumber": "0x731ee9",
      "gasUsed": "0xf213",
      "effectiveGasPrice": "0x44aae45e",
      "from": "0xc77f7fed3b5cc8249adc428c5f44c9063b9734b4",
      "to": "0x8aafd3ede9adb0ff97c7aebce82a919afb1c8764",
      "contractAddress": null
    }
  ],
  "libraries": [],
  "pending": [],
  "returns": {},
  "timestamp": 1737519062,
  "chain": 11155111,
  "commit": "1d2fb70"
}