{
  "transactions": [
    {
      "hash": "0xf2dfa1b7bf807ac0b3f1675608ad66a88109d6ba732ec05d7f53d1e293a8a157",
      "transactionType": "CALL",
      "contractName": null,
      "contractAddress": "0x8aafd3ede9adb0ff97c7aebce82a919afb1c8764",
      "function": "sell(uint256)",
      "arguments": [
        "11245"
      ],
      "transaction": {
        "from": "0xc77f7fed3b5cc8249adc428c5f44c9063b9734b4",
        "to": "0x8aafd3ede9adb0ff97c7aebce82a919afb1c8764",
        "gas": "0x14e4c",
        "value": "0x0",
        "input": "0xe4849b320000000000000000000000000000000000000000000000000000000000002bed",
        "nonce": "0x128d",
        "chainId": "0xaa36a7"
      },
      "additionalContracts": [],
      "isFixedGasLimit": false
    }
  ],
  "receipts": [
    {
      "status": "0x1",
      "cumulativeGasUsed": "0x86f395",
      "logs": [
        {
          "address": "0x8aafd3ede9adb0ff97c7aebce82a919afb1c8764",
          "topics": [
            "0xddf252ad1be2c89b69c2b068fc378daa952ba7f163c4a11628f55a4df523b3ef",
            "0x000000000000000000000000c77f7fed3b5cc8249adc428c5f44c9063b9734b4",
            "0x0000000000000000000000000000000000000000000000000000000000000000"
          ],
          "data": "0x0000000000000000000000000000000000000000000000000000000000002b94",
          "blockHash": "0x45a542fd54401413f99965b373d55e5eb2570f85d05e9525d101d261d49e8b57",
          "blockNumber": "0x73197b",
          "transactionHash": "0xf2dfa1b7bf807ac0b3f1675608ad66a88109d6ba732ec05d7f53d1e293a8a157",
          "transactionIndex": "0x64",
          "logIndex": "0xa2",
          "removed": false
        },
        {
          "address": "0x8aafd3ede9adb0ff97c7aebce82a919afb1c8764",
          "topics": [
            "0xddf252ad1be2c89b69c2b068fc378daa952ba7f163c4a11628f55a4df523b3ef",
            "0x000000000000000000000000c77f7fed3b5cc8249adc428c5f44c9063b9734b4",
            "0x000000000000000000000000c77f7fed3b5cc8249adc428c5f44c9063b9734b4"
          ],
          "data": "0x0000000000000000000000000000000000000000000000000000000000000059",
          "blockHash": "0x45a542fd54401413f99965b373d55e5eb2570f85d05e9525d101d261d49e8b57",
          "blockNumber": "0x73197b",
          "transactionHash": "0xf2dfa1b7bf807ac0b3f1675608ad66a88109d6ba732ec05d7f53d1e293a8a157",
          "transactionIndex": "0x64",
          "logIndex": "0xa3",
          "removed": false
        },
        {
          "address": "0x8aafd3ede9adb0ff97c7aebce82a919afb1c8764",
          "topics": [
            "0x4afcb4a87cdbd9974efdb92ee48bc8d7cd0ae4bf217004db3d080cbaee652ca7"
          ],
          "data": "0x0000000000000000000000000000000000000000000000000000000067902e94000000000000000000000000000000000000000000000000000544d2d08393ec0000000000000000000000000000000000000000000000000000000000000010",
          "blockHash": "0x45a542fd54401413f99965b373d55e5eb2570f85d05e9525d101d261d49e8b57",
          "blockNumber": "0x73197b",
          "transactionHash": "0xf2dfa1b7bf807ac0b3f1675608ad66a88109d6ba732ec05d7f53d1e293a8a157",
          "transactionIndex": "0x64",
          "logIndex": "0xa4",
          "removed": false
        }
      ],
      "logsBloom": "0x00000000000000000000000000000000000000000600000000000000000000000000000000000000000000000000000000000000000000004000000000000000000000000000004000000008000000000000000000000000000000000000000000000000020000000000000000000800020000000000000000000010000000000000000000000000000000000000000000000000000000000000010000000000000000000000000000000000000000004000000000000000000000000000000000000002000000800000000000000000000000000000080000000000000020000000000000000000000000000000000000000000000000000000000000000000",
      "type": "0x2",
      "transactionHash": "0xf2dfa1b7bf807ac0b3f1675608ad66a88109d6ba732ec05d7f53d1e293a8a157",
      "transactionIndex": "0x64",
      "blockHash": "0x45a542fd54401413f99965b373d55e5eb2570f85d05e9525d101d261d49e8b57",
      "blockNumber": "0x73197b",
      "gasUsed": "0xf207",
      "effectiveGasPrice": "0x3e8d0e52",
      "from": "0xc77f7fed3b5cc8249adc428c5f44c9063b9734b4",
      "to": "0x8aafd3ede9adb0ff97c7aebce82a919afb1c8764",
      "contractAddress": null
    }
  ],
  "libraries": [],
  "pending": [],
  "returns": {},
  "timestamp": 1737502357,
  "chain": 11155111,
  "commit": "1d2fb70"
}