{
  "transactions": [
    {
      "hash": "0xd7cd144557bfb9477393de37df413dbee7baf2fd3ea0d935a5e688a70d8d04ce",
      "transactionType": "CALL",
      "contractName": null,
      "contractAddress": "0x5eb9cc76c3506942c1c0ead70e877dd5e4f00cb0",
      "function": "buy(address)",
      "arguments": [
        "0xC77f7fed3b5Cc8249aDc428c5F44C9063B9734b4"
      ],
      "transaction": {
        "from": "0xc77f7fed3b5cc8249adc428c5f44c9063b9734b4",
        "to": "0x5eb9cc76c3506942c1c0ead70e877dd5e4f00cb0",
        "gas": "0x156c8",
        "value": "0xde0b6b3a7640000",
        "input": "0xf088d547000000000000000000000000c77f7fed3b5cc8249adc428c5f44c9063b9734b4",
        "nonce": "0x1b3",
        "chainId": "0xaa36a7"
      },
      "additionalContracts": [],
      "isFixedGasLimit": false
    }
  ],
  "receipts": [
    {
      "status": "0x1",
      "cumulativeGasUsed": "0xa00ee4",
      "logs": [
        {
          "address": "0x5eb9cc76c3506942c1c0ead70e877dd5e4f00cb0",
          "topics": [
            "0xddf252ad1be2c89b69c2b068fc378daa952ba7f163c4a11628f55a4df523b3ef",
            "0x0000000000000000000000000000000000000000000000000000000000000000",
            "0x000000000000000000000000c77f7fed3b5cc8249adc428c5f44c9063b9734b4"
          ],
          "data": "0x000000000000000000000000000000000000000000000035a3715d56144ec19a",
          "blockHash": "0x5eaa89a03f8b26c4db0afcb37708b456f291b8277a7f2cf3265e559e78bd6d59",
          "blockNumber": "0x723c9e",
          "transactionHash": "0xd7cd144557bfb9477393de37df413dbee7baf2fd3ea0d935a5e688a70d8d04ce",
          "transactionIndex": "0x55",
          "logIndex": "0x79",
          "removed": false
        },
        {
          "address": "0x5eb9cc76c3506942c1c0ead70e877dd5e4f00cb0",
          "topics": [
            "0xddf252ad1be2c89b69c2b068fc378daa952ba7f163c4a11628f55a4df523b3ef",
            "0x0000000000000000000000000000000000000000000000000000000000000000",
            "0x000000000000000000000000c77f7fed3b5cc8249adc428c5f44c9063b9734b4"
          ],
          "data": "0x00000000000000000000000000000000000000000000000029a6ef094acd91ee",
          "blockHash": "0x5eaa89a03f8b26c4db0afcb37708b456f291b8277a7f2cf3265e559e78bd6d59",
          "blockNumber": "0x723c9e",
          "transactionHash": "0xd7cd144557bfb9477393de37df413dbee7baf2fd3ea0d935a5e688a70d8d04ce",
          "transactionIndex": "0x55",
          "logIndex": "0x7a",
          "removed": false
        },
        {
          "address": "0x5eb9cc76c3506942c1c0ead70e877dd5e4f00cb0",
          "topics": [
            "0x4afcb4a87cdbd9974efdb92ee48bc8d7cd0ae4bf217004db3d080cbaee652ca7"
          ],
          "data": "0x000000000000000000000000000000000000000000000000000000006785c8bc00000000000000000000000000000000000000000000000000038dfefa8b0ad40000000000000000000000000000000000000000000000000de0b6b3a7640000",
          "blockHash": "0x5eaa89a03f8b26c4db0afcb37708b456f291b8277a7f2cf3265e559e78bd6d59",
          "blockNumber": "0x723c9e",
          "transactionHash": "0xd7cd144557bfb9477393de37df413dbee7baf2fd3ea0d935a5e688a70d8d04ce",
          "transactionIndex": "0x55",
          "logIndex": "0x7b",
          "removed": false
        }
      ],
      "logsBloom": "0x00000000000000000000000000000000000000000000000000000000000000000000000000000000000000000000000000000000000000004000000000000000000000000000000000000008000000000000000000000000000000000000000000000000020000000000000004000800020000000000000000000010000000000000000000000000000000000000000000000000000000000000010000000000000000000000000000000000000000004000000000000000000000000000020000000002000000800000008000000000000000000000080000000000000020000000000000000000000000000000000000000000000000000000000000000000",
      "type": "0x2",
      "transactionHash": "0xd7cd144557bfb9477393de37df413dbee7baf2fd3ea0d935a5e688a70d8d04ce",
      "transactionIndex": "0x55",
      "blockHash": "0x5eaa89a03f8b26c4db0afcb37708b456f291b8277a7f2cf3265e559e78bd6d59",
      "blockNumber": "0x723c9e",
      "gasUsed": "0xf82c",
      "effectiveGasPrice": "0x2021b0775",
      "from": "0xc77f7fed3b5cc8249adc428c5f44c9063b9734b4",
      "to": "0x5eb9cc76c3506942c1c0ead70e877dd5e4f00cb0",
      "contractAddress": null
    }
  ],
  "libraries": [],
  "pending": [],
  "returns": {},
  "timestamp": 1736820925,
  "chain": 11155111,
  "commit": "51a374b"
}