{
  "transactions": [
    {
      "hash": "0x7285c1133c98c24a5bcd025442bb70bec422203637b66baf138af29c6fa7e5ec",
      "transactionType": "CALL",
      "contractName": null,
      "contractAddress": "0x5eb9cc76c3506942c1c0ead70e877dd5e4f00cb0",
      "function": "sell(uint256)",
      "arguments": [
        "989108604233028992958"
      ],
      "transaction": {
        "from": "0xc77f7fed3b5cc8249adc428c5f44c9063b9734b4",
        "to": "0x5eb9cc76c3506942c1c0ead70e877dd5e4f00cb0",
        "gas": "0x16fec",
        "value": "0x0",
        "input": "0xe4849b320000000000000000000000000000000000000000000000359ea3ab07281fffbe",
        "nonce": "0x3cb",
        "chainId": "0xaa36a7"
      },
      "additionalContracts": [],
      "isFixedGasLimit": false
    }
  ],
  "receipts": [
    {
      "status": "0x1",
      "cumulativeGasUsed": "0xa5ef41",
      "logs": [
        {
          "address": "0x5eb9cc76c3506942c1c0ead70e877dd5e4f00cb0",
          "topics": [
            "0xddf252ad1be2c89b69c2b068fc378daa952ba7f163c4a11628f55a4df523b3ef",
            "0x000000000000000000000000c77f7fed3b5cc8249adc428c5f44c9063b9734b4",
            "0x0000000000000000000000000000000000000000000000000000000000000000"
          ],
          "data": "0x0000000000000000000000000000000000000000000000359ea3ab07281fffbe",
          "blockHash": "0x17846800ccfe042c110265cc91e91309647c42956e6b7858cb2b5b2608a9e9df",
          "blockNumber": "0x724fce",
          "transactionHash": "0x7285c1133c98c24a5bcd025442bb70bec422203637b66baf138af29c6fa7e5ec",
          "transactionIndex": "0x44",
          "logIndex": "0x55",
          "removed": false
        },
        {
          "address": "0x5eb9cc76c3506942c1c0ead70e877dd5e4f00cb0",
          "topics": [
            "0x4afcb4a87cdbd9974efdb92ee48bc8d7cd0ae4bf217004db3d080cbaee652ca7"
          ],
          "data": "0x000000000000000000000000000000000000000000000000000000006786af7400000000000000000000000000000000000000000000000000039113704ec5cd0000000000000000000000000000000000000000000000000dc7db1331f6c226",
          "blockHash": "0x17846800ccfe042c110265cc91e91309647c42956e6b7858cb2b5b2608a9e9df",
          "blockNumber": "0x724fce",
          "transactionHash": "0x7285c1133c98c24a5bcd025442bb70bec422203637b66baf138af29c6fa7e5ec",
          "transactionIndex": "0x44",
          "logIndex": "0x56",
          "removed": false
        }
      ],
      "logsBloom": "0x00000000000000000000000000000000000000000000000000000000000000000000000000000000000000000000000000000000000000004000000000000000000000000000000000000008000000000000000000000000000000000000000000000000020000000000000004000800020000000000000000000010000000000000000000000000000000000000000000000000000000000000010000000000000000000000000000000000000000004000000000000000000000000000020000000002000000800000008000000000000000000000080000000000000020000000000000000000000000000000000000000000000000000000000000000000",
      "type": "0x2",
      "transactionHash": "0x7285c1133c98c24a5bcd025442bb70bec422203637b66baf138af29c6fa7e5ec",
      "transactionIndex": "0x44",
      "blockHash": "0x17846800ccfe042c110265cc91e91309647c42956e6b7858cb2b5b2608a9e9df",
      "blockNumber": "0x724fce",
      "gasUsed": "0xfb93",
      "effectiveGasPrice": "0x3a59794d3",
      "from": "0xc77f7fed3b5cc8249adc428c5f44c9063b9734b4",
      "to": "0x5eb9cc76c3506942c1c0ead70e877dd5e4f00cb0",
      "contractAddress": null
    }
  ],
  "libraries": [],
  "pending": [],
  "returns": {},
  "timestamp": 1736879989,
  "chain": 11155111,
  "commit": "51a374b"
}