{
  "transactions": [
    {
      "hash": "0x84c5cb87f4f4e511325a19551e3c4086f57a7898868ed9d97ec3ea428374c77a",
      "transactionType": "CALL",
      "contractName": null,
      "contractAddress": "0xd7bc75898e513accccf720a874d44dab5a4b6223",
      "function": "sell(uint256)",
      "arguments": [
        "9929991426105365375"
      ],
      "transaction": {
        "from": "0xc77f7fed3b5cc8249adc428c5f44c9063b9734b4",
        "to": "0xd7bc75898e513accccf720a874d44dab5a4b6223",
        "gas": "0x15b6b",
        "value": "0x0",
        "input": "0xe4849b3200000000000000000000000000000000000000000000000089ce6a9737af537f",
        "nonce": "0xfb",
        "chainId": "0xaa36a7"
      },
      "additionalContracts": [],
      "isFixedGasLimit": false
    }
  ],
  "receipts": [
    {
      "status": "0x1",
      "cumulativeGasUsed": "0x1e7bb09",
      "logs": [
        {
          "address": "0xd7bc75898e513accccf720a874d44dab5a4b6223",
          "topics": [
            "0xddf252ad1be2c89b69c2b068fc378daa952ba7f163c4a11628f55a4df523b3ef",
            "0x000000000000000000000000c77f7fed3b5cc8249adc428c5f44c9063b9734b4",
            "0x0000000000000000000000000000000000000000000000000000000000000000"
          ],
          "data": "0x00000000000000000000000000000000000000000000000089ce6a9737af537f",
          "blockHash": "0x04164a4a2b31c63fc5b46457a493ce5869b7d0d5c53915c543146474662d13ba",
          "blockNumber": "0x72398d",
          "transactionHash": "0x84c5cb87f4f4e511325a19551e3c4086f57a7898868ed9d97ec3ea428374c77a",
          "transactionIndex": "0xd",
          "logIndex": "0x2d9",
          "removed": false
        },
        {
          "address": "0xd7bc75898e513accccf720a874d44dab5a4b6223",
          "topics": [
            "0x4afcb4a87cdbd9974efdb92ee48bc8d7cd0ae4bf217004db3d080cbaee652ca7"
          ],
          "data": "0x000000000000000000000000000000000000000000000000000000006785a3f000000000000000000000000000000000000000000000000000038d7f8cb00cf10000000000000000000000000000000000000000000000000023474f493d2797",
          "blockHash": "0x04164a4a2b31c63fc5b46457a493ce5869b7d0d5c53915c543146474662d13ba",
          "blockNumber": "0x72398d",
          "transactionHash": "0x84c5cb87f4f4e511325a19551e3c4086f57a7898868ed9d97ec3ea428374c77a",
          "transactionIndex": "0xd",
          "logIndex": "0x2da",
          "removed": false
        }
      ],
      "logsBloom": "0x00000000000000000000000000000000000000000000000000000000000000000000000000000000000000000000000000000000000000004000000000000000000000000000000000000008000000000000000000000000000000000000000000000000020000000000000000000800020000000000000000000010000000000000000000000000000000000000000000000000000000000000010000000000000000000000000000000000000000004000001000000000000000000000000000000002000000800000000000004000000000000000080000000000000020000000000000000000000000000000000000000000080000000000000000000000",
      "type": "0x2",
      "transactionHash": "0x84c5cb87f4f4e511325a19551e3c4086f57a7898868ed9d97ec3ea428374c77a",
      "transactionIndex": "0xd",
      "blockHash": "0x04164a4a2b31c63fc5b46457a493ce5869b7d0d5c53915c543146474662d13ba",
      "blockNumber": "0x72398d",
      "gasUsed": "0xfb87",
      "effectiveGasPrice": "0x15522a569",
      "from": "0xc77f7fed3b5cc8249adc428c5f44c9063b9734b4",
      "to": "0xd7bc75898e513accccf720a874d44dab5a4b6223",
      "contractAddress": null
    }
  ],
  "libraries": [],
  "pending": [],
  "returns": {},
  "timestamp": 1736811505,
  "chain": 11155111,
  "commit": "51a374b"
}