{
  "transactions": [
    {
      "hash": "0x6533ea0082705f9da99c4ae524b67d5b26f7d7dc4a2f93dc4291dbfe239e57a6",
      "transactionType": "CALL",
      "contractName": null,
      "contractAddress": "0x5eb9cc76c3506942c1c0ead70e877dd5e4f00cb0",
      "function": "buy(address)",
      "arguments": [
        "0xC77f7fed3b5Cc8249aDc428c5F44C9063B9734b4"
      ],
      "transaction": {
        "from": "0xc77f7fed3b5cc8249adc428c5f44c9063b9734b4",
        "to": "0x5eb9cc76c3506942c1c0ead70e877dd5e4f00cb0",
        "gas": "0x156c8",
        "value": "0xde0b6b3a7640000",
        "input": "0xf088d547000000000000000000000000c77f7fed3b5cc8249adc428c5f44c9063b9734b4",
        "nonce": "0x13c",
        "chainId": "0xaa36a7"
      },
      "additionalContracts": [],
      "isFixedGasLimit": false
    }
  ],
  "receipts": [
    {
      "status": "0x1",
      "cumulativeGasUsed": "0x5fc0f7",
      "logs": [
        {
          "address": "0x5eb9cc76c3506942c1c0ead70e877dd5e4f00cb0",
          "topics": [
            "0xddf252ad1be2c89b69c2b068fc378daa952ba7f163c4a11628f55a4df523b3ef",
            "0x0000000000000000000000000000000000000000000000000000000000000000",
            "0x000000000000000000000000c77f7fed3b5cc8249adc428c5f44c9063b9734b4"
          ],
          "data": "0x000000000000000000000000000000000000000000000035aafa4fbf06e08bfe",
          "blockHash": "0xf9dfac565c26288fc14dc61da4af9b432e8e3e661fd3f413bd10161d0cc2e287",
          "blockNumber": "0x723b25",
          "transactionHash": "0x6533ea0082705f9da99c4ae524b67d5b26f7d7dc4a2f93dc4291dbfe239e57a6",
          "transactionIndex": "0x2e",
          "logIndex": "0x46",
          "removed": false
        },
        {
          "address": "0x5eb9cc76c3506942c1c0ead70e877dd5e4f00cb0",
          "topics": [
            "0xddf252ad1be2c89b69c2b068fc378daa952ba7f163c4a11628f55a4df523b3ef",
            "0x0000000000000000000000000000000000000000000000000000000000000000",
            "0x000000000000000000000000c77f7fed3b5cc8249adc428c5f44c9063b9734b4"
          ],
          "data": "0x00000000000000000000000000000000000000000000000029acc8edeb597a51",
          "blockHash": "0xf9dfac565c26288fc14dc61da4af9b432e8e3e661fd3f413bd10161d0cc2e287",
          "blockNumber": "0x723b25",
          "transactionHash": "0x6533ea0082705f9da99c4ae524b67d5b26f7d7dc4a2f93dc4291dbfe239e57a6",
          "transactionIndex": "0x2e",
          "logIndex": "0x47",
          "removed": false
        },
        {
          "address": "0x5eb9cc76c3506942c1c0ead70e877dd5e4f00cb0",
          "topics": [
            "0x4afcb4a87cdbd9974efdb92ee48bc8d7cd0ae4bf217004db3d080cbaee652ca7"
          ],
          "data": "0x000000000000000000000000000000000000000000000000000000006785b71000000000000000000000000000000000000000000000000000038d7f3734345e0000000000000000000000000000000000000000000000000de0b6b3a7640000",
          "blockHash": "0xf9dfac565c26288fc14dc61da4af9b432e8e3e661fd3f413bd10161d0cc2e287",
          "blockNumber": "0x723b25",
          "transactionHash": "0x6533ea0082705f9da99c4ae524b67d5b26f7d7dc4a2f93dc4291dbfe239e57a6",
          "transactionIndex": "0x2e",
          "logIndex": "0x48",
          "removed": false
        }
      ],
      "logsBloom": "0x00000000000000000000000000000000000000000000000000000000000000000000000000000000000000000000000000000000000000004000000000000000000000000000000000000008000000000000000000000000000000000000000000000000020000000000000004000800020000000000000000000010000000000000000000000000000000000000000000000000000000000000010000000000000000000000000000000000000000004000000000000000000000000000020000000002000000800000008000000000000000000000080000000000000020000000000000000000000000000000000000000000000000000000000000000000",
      "type": "0x2",
      "transactionHash": "0x6533ea0082705f9da99c4ae524b67d5b26f7d7dc4a2f93dc4291dbfe239e57a6",
      "transactionIndex": "0x2e",
      "blockHash": "0xf9dfac565c26288fc14dc61da4af9b432e8e3e661fd3f413bd10161d0cc2e287",
      "blockNumber": "0x723b25",
      "gasUsed": "0xf82c",
      "effectiveGasPrice": "0x472a9d3c0",
      "from": "0xc77f7fed3b5cc8249adc428c5f44c9063b9734b4",
      "to": "0x5eb9cc76c3506942c1c0ead70e877dd5e4f00cb0",
      "contractAddress": null
    }
  ],
  "libraries": [],
  "pending": [],
  "returns": {},
  "timestamp": 1736816402,
  "chain": 11155111,
  "commit": "51a374b"
}