{
  "transactions": [
    {
      "hash": "0x940a54d94405890f0b1bac7b7459048041965ae0aadce487c77162aaf6a54cfe",
      "transactionType": "CALL",
      "contractName": null,
      "contractAddress": "0x5eb9cc76c3506942c1c0ead70e877dd5e4f00cb0",
      "function": "buy(address)",
      "arguments": [
        "0xC77f7fed3b5Cc8249aDc428c5F44C9063B9734b4"
      ],
      "transaction": {
        "from": "0xc77f7fed3b5cc8249adc428c5f44c9063b9734b4",
        "to": "0x5eb9cc76c3506942c1c0ead70e877dd5e4f00cb0",
        "gas": "0x156c8",
        "value": "0x2386f26fc10000",
        "input": "0xf088d547000000000000000000000000c77f7fed3b5cc8249adc428c5f44c9063b9734b4",
        "nonce": "0x127",
        "chainId": "0xaa36a7"
      },
      "additionalContracts": [],
      "isFixedGasLimit": false
    }
  ],
  "receipts": [
    {
      "status": "0x1",
      "cumulativeGasUsed": "0xa97d09",
      "logs": [
        {
          "address": "0x5eb9cc76c3506942c1c0ead70e877dd5e4f00cb0",
          "topics": [
            "0xddf252ad1be2c89b69c2b068fc378daa952ba7f163c4a11628f55a4df523b3ef",
            "0x0000000000000000000000000000000000000000000000000000000000000000",
            "0x000000000000000000000000c77f7fed3b5cc8249adc428c5f44c9063b9734b4"
          ],
          "data": "0x0000000000000000000000000000000000000000000000008963dd7c0b8a5a7b",
          "blockHash": "0xdd784b4917e4ebfd4d4d2b589e5d7dcac3d8eabbc3458d27d04358d5251f0f41",
          "blockNumber": "0x723b04",
          "transactionHash": "0x940a54d94405890f0b1bac7b7459048041965ae0aadce487c77162aaf6a54cfe",
          "transactionIndex": "0x4f",
          "logIndex": "0x5f",
          "removed": false
        },
        {
          "address": "0x5eb9cc76c3506942c1c0ead70e877dd5e4f00cb0",
          "topics": [
            "0xddf252ad1be2c89b69c2b068fc378daa952ba7f163c4a11628f55a4df523b3ef",
            "0x0000000000000000000000000000000000000000000000000000000000000000",
            "0x000000000000000000000000c77f7fed3b5cc8249adc428c5f44c9063b9734b4"
          ],
          "data": "0x000000000000000000000000000000000000000000000000006ab0272c02980e",
          "blockHash": "0xdd784b4917e4ebfd4d4d2b589e5d7dcac3d8eabbc3458d27d04358d5251f0f41",
          "blockNumber": "0x723b04",
          "transactionHash": "0x940a54d94405890f0b1bac7b7459048041965ae0aadce487c77162aaf6a54cfe",
          "transactionIndex": "0x4f",
          "logIndex": "0x60",
          "removed": false
        },
        {
          "address": "0x5eb9cc76c3506942c1c0ead70e877dd5e4f00cb0",
          "topics": [
            "0x4afcb4a87cdbd9974efdb92ee48bc8d7cd0ae4bf217004db3d080cbaee652ca7"
          ],
          "data": "0x000000000000000000000000000000000000000000000000000000006785b58400000000000000000000000000000000000000000000000000038d7ea5430f54000000000000000000000000000000000000000000000000002386f26fc10000",
          "blockHash": "0xdd784b4917e4ebfd4d4d2b589e5d7dcac3d8eabbc3458d27d04358d5251f0f41",
          "blockNumber": "0x723b04",
          "transactionHash": "0x940a54d94405890f0b1bac7b7459048041965ae0aadce487c77162aaf6a54cfe",
          "transactionIndex": "0x4f",
          "logIndex": "0x61",
          "removed": false
        }
      ],
      "logsBloom": "0x00000000000000000000000000000000000000000000000000000000000000000000000000000000000000000000000000000000000000004000000000000000000000000000000000000008000000000000000000000000000000000000000000000000020000000000000004000800020000000000000000000010000000000000000000000000000000000000000000000000000000000000010000000000000000000000000000000000000000004000000000000000000000000000020000000002000000800000008000000000000000000000080000000000000020000000000000000000000000000000000000000000000000000000000000000000",
      "type": "0x2",
      "transactionHash": "0x940a54d94405890f0b1bac7b7459048041965ae0aadce487c77162aaf6a54cfe",
      "transactionIndex": "0x4f",
      "blockHash": "0xdd784b4917e4ebfd4d4d2b589e5d7dcac3d8eabbc3458d27d04358d5251f0f41",
      "blockNumber": "0x723b04",
      "gasUsed": "0xf82c",
      "effectiveGasPrice": "0x2462b066e",
      "from": "0xc77f7fed3b5cc8249adc428c5f44c9063b9734b4",
      "to": "0x5eb9cc76c3506942c1c0ead70e877dd5e4f00cb0",
      "contractAddress": null
    }
  ],
  "libraries": [],
  "pending": [],
  "returns": {},
  "timestamp": 1736816006,
  "chain": 11155111,
  "commit": "51a374b"
}