{
  "transactions": [
    {
      "hash": "0x5511a8352afb52578fe0cdf826624112cdbfb72d2f55a686ec9bc349f67e017b",
      "transactionType": "CALL",
      "contractName": null,
      "contractAddress": "0x270e88f8683660553e8ba4eb2ad7c91a1710d769",
      "function": "sell(uint256)",
      "arguments": [
        "757194227722975734687"
      ],
      "transaction": {
        "from": "0xc77f7fed3b5cc8249adc428c5f44c9063b9734b4",
        "to": "0x270e88f8683660553e8ba4eb2ad7c91a1710d769",
        "gas": "0x16fec",
        "value": "0x0",
        "input": "0xe4849b320000000000000000000000000000000000000000000000290c2e4a53bc346b9f",
        "nonce": "0x67e",
        "chainId": "0xaa36a7"
      },
      "additionalContracts": [],
      "isFixedGasLimit": false
    }
  ],
  "receipts": [
    {
      "status": "0x1",
      "cumulativeGasUsed": "0x76d30e",
      "logs": [
        {
          "address": "0x270e88f8683660553e8ba4eb2ad7c91a1710d769",
          "topics": [
            "0xddf252ad1be2c89b69c2b068fc378daa952ba7f163c4a11628f55a4df523b3ef",
            "0x000000000000000000000000c77f7fed3b5cc8249adc428c5f44c9063b9734b4",
            "0x0000000000000000000000000000000000000000000000000000000000000000"
          ],
          "data": "0x0000000000000000000000000000000000000000000000290c2e4a53bc346b9f",
          "blockHash": "0xb3db2f46e082e71718757b449ec93c7d23809d81ac22464880bd7d6199b93ab4",
          "blockNumber": "0x72537d",
          "transactionHash": "0x5511a8352afb52578fe0cdf826624112cdbfb72d2f55a686ec9bc349f67e017b",
          "transactionIndex": "0x31",
          "logIndex": "0x91",
          "removed": false
        },
        {
          "address": "0x270e88f8683660553e8ba4eb2ad7c91a1710d769",
          "topics": [
            "0x4afcb4a87cdbd9974efdb92ee48bc8d7cd0ae4bf217004db3d080cbaee652ca7"
          ],
          "data": "0x000000000000000000000000000000000000000000000000000000006786dbe40000000000000000000000000000000000000000000000000004a906c6f6edf90000000000000000000000000000000000000000000000000dc82a4765352365",
          "blockHash": "0xb3db2f46e082e71718757b449ec93c7d23809d81ac22464880bd7d6199b93ab4",
          "blockNumber": "0x72537d",
          "transactionHash": "0x5511a8352afb52578fe0cdf826624112cdbfb72d2f55a686ec9bc349f67e017b",
          "transactionIndex": "0x31",
          "logIndex": "0x92",
          "removed": false
        }
      ],
      "logsBloom": "0x00000000000000000000000000000000000000000000000000000000000000000000000000000000000000000000000020000000000000004000000000000000000000000000000000000008000000000000000000000000000000000000000000000000020000000000000000000800020000000000000000000010000000000000000000010000000000000000000000000000000000000000010000000000000000000000000000000000000000004000000000000000000000000000000000000002000000800000000000000000000000000000080000008000000020000000000000000000000000000000000000000000000000000000000000000000",
      "type": "0x2",
      "transactionHash": "0x5511a8352afb52578fe0cdf826624112cdbfb72d2f55a686ec9bc349f67e017b",
      "transactionIndex": "0x31",
      "blockHash": "0xb3db2f46e082e71718757b449ec93c7d23809d81ac22464880bd7d6199b93ab4",
      "blockNumber": "0x72537d",
      "gasUsed": "0xfb93",
      "effectiveGasPrice": "0x20be80cb7",
      "from": "0xc77f7fed3b5cc8249adc428c5f44c9063b9734b4",
      "to": "0x270e88f8683660553e8ba4eb2ad7c91a1710d769",
      "contractAddress": null
    }
  ],
  "libraries": [],
  "pending": [],
  "returns": {},
  "timestamp": 1736891366,
  "chain": 11155111,
  "commit": "51a374b"
}