{
  "transactions": [
    {
      "hash": "0xccf76a3bb71b51e4ea6a906442a5c4960162c0d56b952d953e3ae43ba02b3cd0",
      "transactionType": "CALL",
      "contractName": null,
      "contractAddress": "0x270e88f8683660553e8ba4eb2ad7c91a1710d769",
      "function": "sell(uint256)",
      "arguments": [
        "950211078135135042032"
      ],
      "transaction": {
        "from": "0xc77f7fed3b5cc8249adc428c5f44c9063b9734b4",
        "to": "0x270e88f8683660553e8ba4eb2ad7c91a1710d769",
        "gas": "0x16fec",
        "value": "0x0",
        "input": "0xe4849b3200000000000000000000000000000000000000000000003382d3e5213dab79f0",
        "nonce": "0x5ed",
        "chainId": "0xaa36a7"
      },
      "additionalContracts": [],
      "isFixedGasLimit": false
    }
  ],
  "receipts": [
    {
      "status": "0x1",
      "cumulativeGasUsed": "0x815f2c",
      "logs": [
        {
          "address": "0x270e88f8683660553e8ba4eb2ad7c91a1710d769",
          "topics": [
            "0xddf252ad1be2c89b69c2b068fc378daa952ba7f163c4a11628f55a4df523b3ef",
            "0x000000000000000000000000c77f7fed3b5cc8249adc428c5f44c9063b9734b4",
            "0x0000000000000000000000000000000000000000000000000000000000000000"
          ],
          "data": "0x00000000000000000000000000000000000000000000003382d3e5213dab79f0",
          "blockHash": "0xb96baf6fa9fed00ef5064f07e0bacc42dab8cdbd5ff98943f81cd84b550e612e",
          "blockNumber": "0x7252b3",
          "transactionHash": "0xccf76a3bb71b51e4ea6a906442a5c4960162c0d56b952d953e3ae43ba02b3cd0",
          "transactionIndex": "0x4a",
          "logIndex": "0x78",
          "removed": false
        },
        {
          "address": "0x270e88f8683660553e8ba4eb2ad7c91a1710d769",
          "topics": [
            "0x4afcb4a87cdbd9974efdb92ee48bc8d7cd0ae4bf217004db3d080cbaee652ca7"
          ],
          "data": "0x000000000000000000000000000000000000000000000000000000006786d26c0000000000000000000000000000000000000000000000000003b6bede7456200000000000000000000000000000000000000000000000000dc83e2e2cb6c181",
          "blockHash": "0xb96baf6fa9fed00ef5064f07e0bacc42dab8cdbd5ff98943f81cd84b550e612e",
          "blockNumber": "0x7252b3",
          "transactionHash": "0xccf76a3bb71b51e4ea6a906442a5c4960162c0d56b952d953e3ae43ba02b3cd0",
          "transactionIndex": "0x4a",
          "logIndex": "0x79",
          "removed": false
        }
      ],
      "logsBloom": "0x00000000000000000000000000000000000000000000000000000000000000000000000000000000000000000000000020000000000000004000000000000000000000000000000000000008000000000000000000000000000000000000000000000000020000000000000000000800020000000000000000000010000000000000000000010000000000000000000000000000000000000000010000000000000000000000000000000000000000004000000000000000000000000000000000000002000000800000000000000000000000000000080000008000000020000000000000000000000000000000000000000000000000000000000000000000",
      "type": "0x2",
      "transactionHash": "0xccf76a3bb71b51e4ea6a906442a5c4960162c0d56b952d953e3ae43ba02b3cd0",
      "transactionIndex": "0x4a",
      "blockHash": "0xb96baf6fa9fed00ef5064f07e0bacc42dab8cdbd5ff98943f81cd84b550e612e",
      "blockNumber": "0x7252b3",
      "gasUsed": "0xfb93",
      "effectiveGasPrice": "0x2f502e3e1",
      "from": "0xc77f7fed3b5cc8249adc428c5f44c9063b9734b4",
      "to": "0x270e88f8683660553e8ba4eb2ad7c91a1710d769",
      "contractAddress": null
    }
  ],
  "libraries": [],
  "pending": [],
  "returns": {},
  "timestamp": 1736888940,
  "chain": 11155111,
  "commit": "51a374b"
}