{
  "transactions": [
    {
      "hash": "0x055623e60f1d37bcd0ee0e399b6ffbe9d93d137242a1f9a15e3fecd3259f3447",
      "transactionType": "CALL",
      "contractName": null,
      "contractAddress": "0xbf4a322f1496e5c3d34a9bcdb4c60567b38c7de2",
      "function": "buy(address)",
      "arguments": [
        "0xC77f7fed3b5Cc8249aDc428c5F44C9063B9734b4"
      ],
      "transaction": {
        "from": "0xc77f7fed3b5cc8249adc428c5f44c9063b9734b4",
        "to": "0xbf4a322f1496e5c3d34a9bcdb4c60567b38c7de2",
        "gas": "0x1b309",
        "value": "0xde0b6b3a7640000",
        "input": "0xf088d547000000000000000000000000c77f7fed3b5cc8249adc428c5f44c9063b9734b4",
        "nonce": "0xb8a",
        "chainId": "0xaa36a7"
      },
      "additionalContracts": [],
      "isFixedGasLimit": false
    }
  ],
  "receipts": [
    {
      "status": "0x1",
      "cumulativeGasUsed": "0xc9e97c",
      "logs": [
        {
          "address": "0xbf4a322f1496e5c3d34a9bcdb4c60567b38c7de2",
          "topics": [
            "0xddf252ad1be2c89b69c2b068fc378daa952ba7f163c4a11628f55a4df523b3ef",
            "0x0000000000000000000000000000000000000000000000000000000000000000",
            "0x000000000000000000000000c77f7fed3b5cc8249adc428c5f44c9063b9734b4"
          ],
          "data": "0x00000000000000000000000000000000000000000000003511562d44cc386aab",
          "blockHash": "0xd89796d0fff66dd58a2ac8a5e00f980e76274fed04db7b5ab3f8efcb5db54843",
          "blockNumber": "0x725b99",
          "transactionHash": "0x055623e60f1d37bcd0ee0e399b6ffbe9d93d137242a1f9a15e3fecd3259f3447",
          "transactionIndex": "0x3f",
          "logIndex": "0x54",
          "removed": false
        },
        {
          "address": "0xbf4a322f1496e5c3d34a9bcdb4c60567b38c7de2",
          "topics": [
            "0xddf252ad1be2c89b69c2b068fc378daa952ba7f163c4a11628f55a4df523b3ef",
            "0x0000000000000000000000000000000000000000000000000000000000000000",
            "0x000000000000000000000000c77f7fed3b5cc8249adc428c5f44c9063b9734b4"
          ],
          "data": "0x00000000000000000000000000000000000000000000000029357a2f680bc9bf",
          "blockHash": "0xd89796d0fff66dd58a2ac8a5e00f980e76274fed04db7b5ab3f8efcb5db54843",
          "blockNumber": "0x725b99",
          "transactionHash": "0x055623e60f1d37bcd0ee0e399b6ffbe9d93d137242a1f9a15e3fecd3259f3447",
          "transactionIndex": "0x3f",
          "logIndex": "0x55",
          "removed": false
        },
        {
          "address": "0xbf4a322f1496e5c3d34a9bcdb4c60567b38c7de2",
          "topics": [
            "0x4afcb4a87cdbd9974efdb92ee48bc8d7cd0ae4bf217004db3d080cbaee652ca7"
          ],
          "data": "0x0000000000000000000000000000000000000000000000000000000067873d88000000000000000000000000000000000000000000000000000397caaee486b40000000000000000000000000000000000000000000000000de0b6b3a7640000",
          "blockHash": "0xd89796d0fff66dd58a2ac8a5e00f980e76274fed04db7b5ab3f8efcb5db54843",
          "blockNumber": "0x725b99",
          "transactionHash": "0x055623e60f1d37bcd0ee0e399b6ffbe9d93d137242a1f9a15e3fecd3259f3447",
          "transactionIndex": "0x3f",
          "logIndex": "0x56",
          "removed": false
        }
      ],
      "logsBloom": "0x00000000000000000000000000000000000000000000000000000000000000000000000000000000000000000000000000000000000000004000000000000000000000000000000000000008000000000000001000000000000000000000000000000000020000000000000000000800020000000000000000000010000000000000000000000000000000000000000000000000000008000000010000000000000000000000000000000000000000004000000000000000000000000000000000000002000000800000000000001000000000000000080000000000000020000000000000000000000000000000000000000000000000000000000000000000",
      "type": "0x2",
      "transactionHash": "0x055623e60f1d37bcd0ee0e399b6ffbe9d93d137242a1f9a15e3fecd3259f3447",
      "transactionIndex": "0x3f",
      "blockHash": "0xd89796d0fff66dd58a2ac8a5e00f980e76274fed04db7b5ab3f8efcb5db54843",
      "blockNumber": "0x725b99",
      "gasUsed": "0x13af6",
      "effectiveGasPrice": "0x4610fe2e",
      "from": "0xc77f7fed3b5cc8249adc428c5f44c9063b9734b4",
      "to": "0xbf4a322f1496e5c3d34a9bcdb4c60567b38c7de2",
      "contractAddress": null
    }
  ],
  "libraries": [],
  "pending": [],
  "returns": {},
  "timestamp": 1736916361,
  "chain": 11155111,
  "commit": "51a374b"
}