{
  "transactions": [
    {
      "hash": "0xb6d239115975a92fad2a6166b000810ef59d7fc22d73b972672acd0c51daf752",
      "transactionType": "CALL",
      "contractName": null,
      "contractAddress": "0xbf4a322f1496e5c3d34a9bcdb4c60567b38c7de2",
      "function": "sell(uint256)",
      "arguments": [
        "980765191259073822296"
      ],
      "transaction": {
        "from": "0xc77f7fed3b5cc8249adc428c5f44c9063b9734b4",
        "to": "0xbf4a322f1496e5c3d34a9bcdb4c60567b38c7de2",
        "gas": "0x16fea",
        "value": "0x0",
        "input": "0xe4849b320000000000000000000000000000000000000000000000352ad9e92229243e58",
        "nonce": "0xbdf",
        "chainId": "0xaa36a7"
      },
      "additionalContracts": [],
      "isFixedGasLimit": false
    }
  ],
  "receipts": [
    {
      "status": "0x1",
      "cumulativeGasUsed": "0x10ad544",
      "logs": [
        {
          "address": "0xbf4a322f1496e5c3d34a9bcdb4c60567b38c7de2",
          "topics": [
            "0xddf252ad1be2c89b69c2b068fc378daa952ba7f163c4a11628f55a4df523b3ef",
            "0x000000000000000000000000c77f7fed3b5cc8249adc428c5f44c9063b9734b4",
            "0x0000000000000000000000000000000000000000000000000000000000000000"
          ],
          "data": "0x0000000000000000000000000000000000000000000000352ad9e92229243e58",
          "blockHash": "0x63af90b89ee97981827af8dd30a494de65c7b3e2d33d02fd1173daa04b261de5",
          "blockNumber": "0x725c03",
          "transactionHash": "0xb6d239115975a92fad2a6166b000810ef59d7fc22d73b972672acd0c51daf752",
          "transactionIndex": "0x68",
          "logIndex": "0xbe",
          "removed": false
        },
        {
          "address": "0xbf4a322f1496e5c3d34a9bcdb4c60567b38c7de2",
          "topics": [
            "0x4afcb4a87cdbd9974efdb92ee48bc8d7cd0ae4bf217004db3d080cbaee652ca7"
          ],
          "data": "0x0000000000000000000000000000000000000000000000000000000067874280000000000000000000000000000000000000000000000000000398de53b8e19d0000000000000000000000000000000000000000000000000dc7e3e3d86ceb9c",
          "blockHash": "0x63af90b89ee97981827af8dd30a494de65c7b3e2d33d02fd1173daa04b261de5",
          "blockNumber": "0x725c03",
          "transactionHash": "0xb6d239115975a92fad2a6166b000810ef59d7fc22d73b972672acd0c51daf752",
          "transactionIndex": "0x68",
          "logIndex": "0xbf",
          "removed": false
        }
      ],
      "logsBloom": "0x00000000000000000000000000000000000000000000000000000000000000000000000000000000000000000000000000000000000000004000000000000000000000000000000000000008000000000000001000000000000000000000000000000000020000000000000000000800020000000000000000000010000000000000000000000000000000000000000000000000000008000000010000000000000000000000000000000000000000004000000000000000000000000000000000000002000000800000000000001000000000000000080000000000000020000000000000000000000000000000000000000000000000000000000000000000",
      "type": "0x2",
      "transactionHash": "0xb6d239115975a92fad2a6166b000810ef59d7fc22d73b972672acd0c51daf752",
      "transactionIndex": "0x68",
      "blockHash": "0x63af90b89ee97981827af8dd30a494de65c7b3e2d33d02fd1173daa04b261de5",
      "blockNumber": "0x725c03",
      "gasUsed": "0xfb91",
      "effectiveGasPrice": "0x9ff6b663",
      "from": "0xc77f7fed3b5cc8249adc428c5f44c9063b9734b4",
      "to": "0xbf4a322f1496e5c3d34a9bcdb4c60567b38c7de2",
      "contractAddress": null
    }
  ],
  "libraries": [],
  "pending": [],
  "returns": {},
  "timestamp": 1736917633,
  "chain": 11155111,
  "commit": "51a374b"
}