{
  "transactions": [
    {
      "hash": "0x9d9aea025c2e207123acf46e1159f499e4c808d40af2badd6168921ffbda70ce",
      "transactionType": "CALL",
      "contractName": null,
      "contractAddress": "0x270e88f8683660553e8ba4eb2ad7c91a1710d769",
      "function": "sell(uint256)",
      "arguments": [
        "718377866439568537152"
      ],
      "transaction": {
        "from": "0xc77f7fed3b5cc8249adc428c5f44c9063b9734b4",
        "to": "0x270e88f8683660553e8ba4eb2ad7c91a1710d769",
        "gas": "0x16fec",
        "value": "0x0",
        "input": "0xe4849b32000000000000000000000000000000000000000000000026f17edf65d17e3640",
        "nonce": "0x836",
        "chainId": "0xaa36a7"
      },
      "additionalContracts": [],
      "isFixedGasLimit": false
    }
  ],
  "receipts": [
    {
      "status": "0x1",
      "cumulativeGasUsed": "0x10fd806",
      "logs": [
        {
          "address": "0x270e88f8683660553e8ba4eb2ad7c91a1710d769",
          "topics": [
            "0xddf252ad1be2c89b69c2b068fc378daa952ba7f163c4a11628f55a4df523b3ef",
            "0x000000000000000000000000c77f7fed3b5cc8249adc428c5f44c9063b9734b4",
            "0x0000000000000000000000000000000000000000000000000000000000000000"
          ],
          "data": "0x000000000000000000000000000000000000000000000026f17edf65d17e3640",
          "blockHash": "0x78d5910f26f2fd9f7b4dc23209d29a61b712e76a54e62c777539dad8cf1c909a",
          "blockNumber": "0x725582",
          "transactionHash": "0x9d9aea025c2e207123acf46e1159f499e4c808d40af2badd6168921ffbda70ce",
          "transactionIndex": "0x3e",
          "logIndex": "0x56",
          "removed": false
        },
        {
          "address": "0x270e88f8683660553e8ba4eb2ad7c91a1710d769",
          "topics": [
            "0x4afcb4a87cdbd9974efdb92ee48bc8d7cd0ae4bf217004db3d080cbaee652ca7"
          ],
          "data": "0x000000000000000000000000000000000000000000000000000000006786f4200000000000000000000000000000000000000000000000000004e979534e08380000000000000000000000000000000000000000000000000dc82642e7cb9bcf",
          "blockHash": "0x78d5910f26f2fd9f7b4dc23209d29a61b712e76a54e62c777539dad8cf1c909a",
          "blockNumber": "0x725582",
          "transactionHash": "0x9d9aea025c2e207123acf46e1159f499e4c808d40af2badd6168921ffbda70ce",
          "transactionIndex": "0x3e",
          "logIndex": "0x57",
          "removed": false
        }
      ],
      "logsBloom": "0x00000000000000000000000000000000000000000000000000000000000000000000000000000000000000000000000020000000000000004000000000000000000000000000000000000008000000000000000000000000000000000000000000000000020000000000000000000800020000000000000000000010000000000000000000010000000000000000000000000000000000000000010000000000000000000000000000000000000000004000000000000000000000000000000000000002000000800000000000000000000000000000080000008000000020000000000000000000000000000000000000000000000000000000000000000000",
      "type": "0x2",
      "transactionHash": "0x9d9aea025c2e207123acf46e1159f499e4c808d40af2badd6168921ffbda70ce",
      "transactionIndex": "0x3e",
      "blockHash": "0x78d5910f26f2fd9f7b4dc23209d29a61b712e76a54e62c777539dad8cf1c909a",
      "blockNumber": "0x725582",
      "gasUsed": "0xfb93",
      "effectiveGasPrice": "0x79dea5fb",
      "from": "0xc77f7fed3b5cc8249adc428c5f44c9063b9734b4",
      "to": "0x270e88f8683660553e8ba4eb2ad7c91a1710d769",
      "contractAddress": null
    }
  ],
  "libraries": [],
  "pending": [],
  "returns": {},
  "timestamp": 1736897570,
  "chain": 11155111,
  "commit": "51a374b"
}