{
  "transactions": [
    {
      "hash": "0xa7b4f5dee29d7c220d04b34141956fc251ec6b0ef9d45a8b8879726c96c21c80",
      "transactionType": "CALL",
      "contractName": null,
      "contractAddress": "0x8aafd3ede9adb0ff97c7aebce82a919afb1c8764",
      "function": "sell(uint256)",
      "arguments": [
        "618161708099"
      ],
      "transaction": {
        "from": "0xc77f7fed3b5cc8249adc428c5f44c9063b9734b4",
        "to": "0x8aafd3ede9adb0ff97c7aebce82a919afb1c8764",
        "gas": "0x1722a",
        "value": "0x0",
        "input": "0xe4849b320000000000000000000000000000000000000000000000000000008fed4f1c43",
        "nonce": "0x1728",
        "chainId": "0xaa36a7"
      },
      "additionalContracts": [],
      "isFixedGasLimit": false
    }
  ],
  "receipts": [
    {
      "status": "0x1",
      "cumulativeGasUsed": "0x80e294",
      "logs": [
        {
          "address": "0x8aafd3ede9adb0ff97c7aebce82a919afb1c8764",
          "topics": [
            "0xddf252ad1be2c89b69c2b068fc378daa952ba7f163c4a11628f55a4df523b3ef",
            "0x000000000000000000000000c77f7fed3b5cc8249adc428c5f44c9063b9734b4",
            "0x0000000000000000000000000000000000000000000000000000000000000000"
          ],
          "data": "0x0000000000000000000000000000000000000000000000000000008ec68beae3",
          "blockHash": "0x2f1d43c801edd9689c1c83c39ca173515256357bb514c4cfeedfb08da44b4eec",
          "blockNumber": "0x731ef1",
          "transactionHash": "0xa7b4f5dee29d7c220d04b34141956fc251ec6b0ef9d45a8b8879726c96c21c80",
          "transactionIndex": "0x5b",
          "logIndex": "0x7d",
          "removed": false
        },
        {
          "address": "0x8aafd3ede9adb0ff97c7aebce82a919afb1c8764",
          "topics": [
            "0xddf252ad1be2c89b69c2b068fc378daa952ba7f163c4a11628f55a4df523b3ef",
            "0x000000000000000000000000c77f7fed3b5cc8249adc428c5f44c9063b9734b4",
            "0x000000000000000000000000c77f7fed3b5cc8249adc428c5f44c9063b9734b4"
          ],
          "data": "0x0000000000000000000000000000000000000000000000000000000126c33160",
          "blockHash": "0x2f1d43c801edd9689c1c83c39ca173515256357bb514c4cfeedfb08da44b4eec",
          "blockNumber": "0x731ef1",
          "transactionHash": "0xa7b4f5dee29d7c220d04b34141956fc251ec6b0ef9d45a8b8879726c96c21c80",
          "transactionIndex": "0x5b",
          "logIndex": "0x7e",
          "removed": false
        },
        {
          "address": "0x8aafd3ede9adb0ff97c7aebce82a919afb1c8764",
          "topics": [
            "0x4afcb4a87cdbd9974efdb92ee48bc8d7cd0ae4bf217004db3d080cbaee652ca7"
          ],
          "data": "0x000000000000000000000000000000000000000000000000000000006790703400000000000000000000000000000000000000000000000000177b2f1e904bd500000000000000000000000000000000000000000000000000000000f3862f6c",
          "blockHash": "0x2f1d43c801edd9689c1c83c39ca173515256357bb514c4cfeedfb08da44b4eec",
          "blockNumber": "0x731ef1",
          "transactionHash": "0xa7b4f5dee29d7c220d04b34141956fc251ec6b0ef9d45a8b8879726c96c21c80",
          "transactionIndex": "0x5b",
          "logIndex": "0x7f",
          "removed": false
        }
      ],
      "logsBloom": "0x00000000000000000000000000000000000000000600000000000000000000000000000000000000000000000000000000000000000000004000000000000000000000000000004000000008000000000000000000000000000000000000000000000000020000000000000000000800020000000000000000000010000000000000000000000000000000000000000000000000000000000000010000000000000000000000000000000000000000004000000000000000000000000000000000000002000000800000000000000000000000000000080000000000000020000000000000000000000000000000000000000000000000000000000000000000",
      "type": "0x2",
      "transactionHash": "0xa7b4f5dee29d7c220d04b34141956fc251ec6b0ef9d45a8b8879726c96c21c80",
      "transactionIndex": "0x5b",
      "blockHash": "0x2f1d43c801edd9689c1c83c39ca173515256357bb514c4cfeedfb08da44b4eec",
      "blockNumber": "0x731ef1",
      "gasUsed": "0xfd1b",
      "effectiveGasPrice": "0x473b5edf",
      "from": "0xc77f7fed3b5cc8249adc428c5f44c9063b9734b4",
      "to": "0x8aafd3ede9adb0ff97c7aebce82a919afb1c8764",
      "contractAddress": null
    }
  ],
  "libraries": [],
  "pending": [],
  "returns": {},
  "timestamp": 1737519157,
  "chain": 11155111,
  "commit": "1d2fb70"
}