{
  "transactions": [
    {
      "hash": "0x72312bc2b158c13e1673531a11a73fdc2de45d7d74ba267afe43308718b16366",
      "transactionType": "CALL",
      "contractName": null,
      "contractAddress": "0x270e88f8683660553e8ba4eb2ad7c91a1710d769",
      "function": "buy(address)",
      "arguments": [
        "0xC77f7fed3b5Cc8249aDc428c5F44C9063B9734b4"
      ],
      "transaction": {
        "from": "0xc77f7fed3b5cc8249adc428c5f44c9063b9734b4",
        "to": "0x270e88f8683660553e8ba4eb2ad7c91a1710d769",
        "gas": "0x1b30c",
        "value": "0xde0b6b3a7640000",
        "input": "0xf088d547000000000000000000000000c77f7fed3b5cc8249adc428c5f44c9063b9734b4",
        "nonce": "0x75f",
        "chainId": "0xaa36a7"
      },
      "additionalContracts": [],
      "isFixedGasLimit": false
    }
  ],
  "receipts": [
    {
      "status": "0x1",
      "cumulativeGasUsed": "0x10e955a",
      "logs": [
        {
          "address": "0x270e88f8683660553e8ba4eb2ad7c91a1710d769",
          "topics": [
            "0xddf252ad1be2c89b69c2b068fc378daa952ba7f163c4a11628f55a4df523b3ef",
            "0x0000000000000000000000000000000000000000000000000000000000000000",
            "0x000000000000000000000000c77f7fed3b5cc8249adc428c5f44c9063b9734b4"
          ],
          "data": "0x000000000000000000000000000000000000000000000027d183278f720a180b",
          "blockHash": "0x7228bdda80c0f548fbe88c300e098a6665ec38d3fc505d01036a20a278faad5e",
          "blockNumber": "0x725487",
          "transactionHash": "0x72312bc2b158c13e1673531a11a73fdc2de45d7d74ba267afe43308718b16366",
          "transactionIndex": "0x57",
          "logIndex": "0xfe",
          "removed": false
        },
        {
          "address": "0x270e88f8683660553e8ba4eb2ad7c91a1710d769",
          "topics": [
            "0xddf252ad1be2c89b69c2b068fc378daa952ba7f163c4a11628f55a4df523b3ef",
            "0x0000000000000000000000000000000000000000000000000000000000000000",
            "0x000000000000000000000000c77f7fed3b5cc8249adc428c5f44c9063b9734b4"
          ],
          "data": "0x0000000000000000000000000000000000000000000000001eeb9c2a1e958b64",
          "blockHash": "0x7228bdda80c0f548fbe88c300e098a6665ec38d3fc505d01036a20a278faad5e",
          "blockNumber": "0x725487",
          "transactionHash": "0x72312bc2b158c13e1673531a11a73fdc2de45d7d74ba267afe43308718b16366",
          "transactionIndex": "0x57",
          "logIndex": "0xff",
          "removed": false
        },
        {
          "address": "0x270e88f8683660553e8ba4eb2ad7c91a1710d769",
          "topics": [
            "0x4afcb4a87cdbd9974efdb92ee48bc8d7cd0ae4bf217004db3d080cbaee652ca7"
          ],
          "data": "0x000000000000000000000000000000000000000000000000000000006786e85c0000000000000000000000000000000000000000000000000004c9f0654f3e9b0000000000000000000000000000000000000000000000000de0b6b3a7640000",
          "blockHash": "0x7228bdda80c0f548fbe88c300e098a6665ec38d3fc505d01036a20a278faad5e",
          "blockNumber": "0x725487",
          "transactionHash": "0x72312bc2b158c13e1673531a11a73fdc2de45d7d74ba267afe43308718b16366",
          "transactionIndex": "0x57",
          "logIndex": "0x100",
          "removed": false
        }
      ],
      "logsBloom": "0x00000000000000000000000000000000000000000000000000000000000000000000000000000000000000000000000020000000000000004000000000000000000000000000000000000008000000000000000000000000000000000000000000000000020000000000000000000800020000000000000000000010000000000000000000010000000000000000000000000000000000000000010000000000000000000000000000000000000000004000000000000000000000000000000000000002000000800000000000000000000000000000080000008000000020000000000000000000000000000000000000000000000000000000000000000000",
      "type": "0x2",
      "transactionHash": "0x72312bc2b158c13e1673531a11a73fdc2de45d7d74ba267afe43308718b16366",
      "transactionIndex": "0x57",
      "blockHash": "0x7228bdda80c0f548fbe88c300e098a6665ec38d3fc505d01036a20a278faad5e",
      "blockNumber": "0x725487",
      "gasUsed": "0x13af8",
      "effectiveGasPrice": "0x1396b8c83",
      "from": "0xc77f7fed3b5cc8249adc428c5f44c9063b9734b4",
      "to": "0x270e88f8683660553e8ba4eb2ad7c91a1710d769",
      "contractAddress": null
    }
  ],
  "libraries": [],
  "pending": [],
  "returns": {},
  "timestamp": 1736894557,
  "chain": 11155111,
  "commit": "51a374b"
}