{
  "transactions": [
    {
      "hash": "0x0906d19afb5c80b56b9cdb9d8b2b4ebfef415317aec61f27f950585ab0495a41",
      "transactionType": "CALL",
      "contractName": null,
      "contractAddress": "0x5eb9cc76c3506942c1c0ead70e877dd5e4f00cb0",
      "function": "sell(uint256)",
      "arguments": [
        "989611035333507903465"
      ],
      "transaction": {
        "from": "0xc77f7fed3b5cc8249adc428c5f44c9063b9734b4",
        "to": "0x5eb9cc76c3506942c1c0ead70e877dd5e4f00cb0",
        "gas": "0x16fec",
        "value": "0x0",
        "input": "0xe4849b32000000000000000000000000000000000000000000000035a59ca973ac476fe9",
        "nonce": "0x26b",
        "chainId": "0xaa36a7"
      },
      "additionalContracts": [],
      "isFixedGasLimit": false
    }
  ],
  "receipts": [
    {
      "status": "0x1",
      "cumulativeGasUsed": "0x13ea139",
      "logs": [
        {
          "address": "0x5eb9cc76c3506942c1c0ead70e877dd5e4f00cb0",
          "topics": [
            "0xddf252ad1be2c89b69c2b068fc378daa952ba7f163c4a11628f55a4df523b3ef",
            "0x000000000000000000000000c77f7fed3b5cc8249adc428c5f44c9063b9734b4",
            "0x0000000000000000000000000000000000000000000000000000000000000000"
          ],
          "data": "0x000000000000000000000000000000000000000000000035a59ca973ac476fe9",
          "blockHash": "0xdd6dfc9d2d30d5f4d086100d802af5c176bb430c739f5104c1a98806f1de173e",
          "blockNumber": "0x724e30",
          "transactionHash": "0x0906d19afb5c80b56b9cdb9d8b2b4ebfef415317aec61f27f950585ab0495a41",
          "transactionIndex": "0xbb",
          "logIndex": "0x156",
          "removed": false
        },
        {
          "address": "0x5eb9cc76c3506942c1c0ead70e877dd5e4f00cb0",
          "topics": [
            "0x4afcb4a87cdbd9974efdb92ee48bc8d7cd0ae4bf217004db3d080cbaee652ca7"
          ],
          "data": "0x0000000000000000000000000000000000000000000000000000000067869bf40000000000000000000000000000000000000000000000000003909cc2541acf0000000000000000000000000000000000000000000000000dc7db118374314f",
          "blockHash": "0xdd6dfc9d2d30d5f4d086100d802af5c176bb430c739f5104c1a98806f1de173e",
          "blockNumber": "0x724e30",
          "transactionHash": "0x0906d19afb5c80b56b9cdb9d8b2b4ebfef415317aec61f27f950585ab0495a41",
          "transactionIndex": "0xbb",
          "logIndex": "0x157",
          "removed": false
        }
      ],
      "logsBloom": "0x00000000000000000000000000000000000000000000000000000000000000000000000000000000000000000000000000000000000000004000000000000000000000000000000000000008000000000000000000000000000000000000000000000000020000000000000004000800020000000000000000000010000000000000000000000000000000000000000000000000000000000000010000000000000000000000000000000000000000004000000000000000000000000000020000000002000000800000008000000000000000000000080000000000000020000000000000000000000000000000000000000000000000000000000000000000",
      "type": "0x2",
      "transactionHash": "0x0906d19afb5c80b56b9cdb9d8b2b4ebfef415317aec61f27f950585ab0495a41",
      "transactionIndex": "0xbb",
      "blockHash": "0xdd6dfc9d2d30d5f4d086100d802af5c176bb430c739f5104c1a98806f1de173e",
      "blockNumber": "0x724e30",
      "gasUsed": "0xfb93",
      "effectiveGasPrice": "0x32eeaa80c",
      "from": "0xc77f7fed3b5cc8249adc428c5f44c9063b9734b4",
      "to": "0x5eb9cc76c3506942c1c0ead70e877dd5e4f00cb0",
      "contractAddress": null
    }
  ],
  "libraries": [],
  "pending": [],
  "returns": {},
  "timestamp": 1736874996,
  "chain": 11155111,
  "commit": "51a374b"
}