{
  "transactions": [
    {
      "hash": "0x17f8fadff75ef1cefade89115c00e688976db7241e90dfaa547e8c33dc70bca7",
      "transactionType": "CALL",
      "contractName": null,
      "contractAddress": "0xbf4a322f1496e5c3d34a9bcdb4c60567b38c7de2",
      "function": "sell(uint256)",
      "arguments": [
        "990214823913602400057"
      ],
      "transaction": {
        "from": "0xc77f7fed3b5cc8249adc428c5f44c9063b9734b4",
        "to": "0xbf4a322f1496e5c3d34a9bcdb4c60567b38c7de2",
        "gas": "0x16fea",
        "value": "0x0",
        "input": "0xe4849b32000000000000000000000000000000000000000000000035adfdbff7683fbf39",
        "nonce": "0x927",
        "chainId": "0xaa36a7"
      },
      "additionalContracts": [],
      "isFixedGasLimit": false
    }
  ],
  "receipts": [
    {
      "status": "0x1",
      "cumulativeGasUsed": "0x157af51",
      "logs": [
        {
          "address": "0xbf4a322f1496e5c3d34a9bcdb4c60567b38c7de2",
          "topics": [
            "0xddf252ad1be2c89b69c2b068fc378daa952ba7f163c4a11628f55a4df523b3ef",
            "0x000000000000000000000000c77f7fed3b5cc8249adc428c5f44c9063b9734b4",
            "0x0000000000000000000000000000000000000000000000000000000000000000"
          ],
          "data": "0x000000000000000000000000000000000000000000000035adfdbff7683fbf39",
          "blockHash": "0xd635d7b2496f4e0f6fabbe1736fe3e54574d3a43d6f105e4f5679bd8434a7964",
          "blockNumber": "0x7258af",
          "transactionHash": "0x17f8fadff75ef1cefade89115c00e688976db7241e90dfaa547e8c33dc70bca7",
          "transactionIndex": "0xb4",
          "logIndex": "0xfd",
          "removed": false
        },
        {
          "address": "0xbf4a322f1496e5c3d34a9bcdb4c60567b38c7de2",
          "topics": [
            "0x4afcb4a87cdbd9974efdb92ee48bc8d7cd0ae4bf217004db3d080cbaee652ca7"
          ],
          "data": "0x0000000000000000000000000000000000000000000000000000000067871a6000000000000000000000000000000000000000000000000000039014b2594ba50000000000000000000000000000000000000000000000000dc7e3f9d0d5de44",
          "blockHash": "0xd635d7b2496f4e0f6fabbe1736fe3e54574d3a43d6f105e4f5679bd8434a7964",
          "blockNumber": "0x7258af",
          "transactionHash": "0x17f8fadff75ef1cefade89115c00e688976db7241e90dfaa547e8c33dc70bca7",
          "transactionIndex": "0xb4",
          "logIndex": "0xfe",
          "removed": false
        }
      ],
      "logsBloom": "0x00000000000000000000000000000000000000000000000000000000000000000000000000000000000000000000000000000000000000004000000000000000000000000000000000000008000000000000001000000000000000000000000000000000020000000000000000000800020000000000000000000010000000000000000000000000000000000000000000000000000008000000010000000000000000000000000000000000000000004000000000000000000000000000000000000002000000800000000000001000000000000000080000000000000020000000000000000000000000000000000000000000000000000000000000000000",
      "type": "0x2",
      "transactionHash": "0x17f8fadff75ef1cefade89115c00e688976db7241e90dfaa547e8c33dc70bca7",
      "transactionIndex": "0xb4",
      "blockHash": "0xd635d7b2496f4e0f6fabbe1736fe3e54574d3a43d6f105e4f5679bd8434a7964",
      "blockNumber": "0x7258af",
      "gasUsed": "0xfb91",
      "effectiveGasPrice": "0x50742e6b",
      "from": "0xc77f7fed3b5cc8249adc428c5f44c9063b9734b4",
      "to": "0xbf4a322f1496e5c3d34a9bcdb4c60567b38c7de2",
      "contractAddress": null
    }
  ],
  "libraries": [],
  "pending": [],
  "returns": {},
  "timestamp": 1736907363,
  "chain": 11155111,
  "commit": "51a374b"
}