{
  "transactions": [
    {
      "hash": "0xbf2686562e78cffcc919aaf54fba53fcb01d0613a69e9f98960d78b065189096",
      "transactionType": "CALL",
      "contractName": null,
      "contractAddress": "0x8aafd3ede9adb0ff97c7aebce82a919afb1c8764",
      "function": "sell(uint256)",
      "arguments": [
        "607948"
      ],
      "transaction": {
        "from": "0xc77f7fed3b5cc8249adc428c5f44c9063b9734b4",
        "to": "0x8aafd3ede9adb0ff97c7aebce82a919afb1c8764",
        "gas": "0x16208",
        "value": "0x0",
        "input": "0xe4849b3200000000000000000000000000000000000000000000000000000000000946cc",
        "nonce": "0x135f",
        "chainId": "0xaa36a7"
      },
      "additionalContracts": [],
      "isFixedGasLimit": false
    }
  ],
  "receipts": [
    {
      "status": "0x1",
      "cumulativeGasUsed": "0xaea4bf",
      "logs": [
        {
          "address": "0x8aafd3ede9adb0ff97c7aebce82a919afb1c8764",
          "topics": [
            "0xddf252ad1be2c89b69c2b068fc378daa952ba7f163c4a11628f55a4df523b3ef",
            "0x000000000000000000000000c77f7fed3b5cc8249adc428c5f44c9063b9734b4",
            "0x0000000000000000000000000000000000000000000000000000000000000000"
          ],
          "data": "0x00000000000000000000000000000000000000000000000000000000000933cd",
          "blockHash": "0xbae1c7e3c7f9eaf8bb112556156000f764798ea1bbb9af2fe814e6e5712bb0b6",
          "blockNumber": "0x731a7e",
          "transactionHash": "0xbf2686562e78cffcc919aaf54fba53fcb01d0613a69e9f98960d78b065189096",
          "transactionIndex": "0x71",
          "logIndex": "0x71",
          "removed": false
        },
        {
          "address": "0x8aafd3ede9adb0ff97c7aebce82a919afb1c8764",
          "topics": [
            "0xddf252ad1be2c89b69c2b068fc378daa952ba7f163c4a11628f55a4df523b3ef",
            "0x000000000000000000000000c77f7fed3b5cc8249adc428c5f44c9063b9734b4",
            "0x000000000000000000000000c77f7fed3b5cc8249adc428c5f44c9063b9734b4"
          ],
          "data": "0x00000000000000000000000000000000000000000000000000000000000012ff",
          "blockHash": "0xbae1c7e3c7f9eaf8bb112556156000f764798ea1bbb9af2fe814e6e5712bb0b6",
          "blockNumber": "0x731a7e",
          "transactionHash": "0xbf2686562e78cffcc919aaf54fba53fcb01d0613a69e9f98960d78b065189096",
          "transactionIndex": "0x71",
          "logIndex": "0x72",
          "removed": false
        },
        {
          "address": "0x8aafd3ede9adb0ff97c7aebce82a919afb1c8764",
          "topics": [
            "0x4afcb4a87cdbd9974efdb92ee48bc8d7cd0ae4bf217004db3d080cbaee652ca7"
          ],
          "data": "0x0000000000000000000000000000000000000000000000000000000067903ab8000000000000000000000000000000000000000000000000000c456f178774060000000000000000000000000000000000000000000000000000000000000833",
          "blockHash": "0xbae1c7e3c7f9eaf8bb112556156000f764798ea1bbb9af2fe814e6e5712bb0b6",
          "blockNumber": "0x731a7e",
          "transactionHash": "0xbf2686562e78cffcc919aaf54fba53fcb01d0613a69e9f98960d78b065189096",
          "transactionIndex": "0x71",
          "logIndex": "0x73",
          "removed": false
        }
      ],
      "logsBloom": "0x00000000000000000000000000000000000000000600000000000000000000000000000000000000000000000000000000000000000000004000000000000000000000000000004000000008000000000000000000000000000000000000000000000000020000000000000000000800020000000000000000000010000000000000000000000000000000000000000000000000000000000000010000000000000000000000000000000000000000004000000000000000000000000000000000000002000000800000000000000000000000000000080000000000000020000000000000000000000000000000000000000000000000000000000000000000",
      "type": "0x2",
      "transactionHash": "0xbf2686562e78cffcc919aaf54fba53fcb01d0613a69e9f98960d78b065189096",
      "transactionIndex": "0x71",
      "blockHash": "0xbae1c7e3c7f9eaf8bb112556156000f764798ea1bbb9af2fe814e6e5712bb0b6",
      "blockNumber": "0x731a7e",
      "gasUsed": "0xf213",
      "effectiveGasPrice": "0x452ac5c5",
      "from": "0xc77f7fed3b5cc8249adc428c5f44c9063b9734b4",
      "to": "0x8aafd3ede9adb0ff97c7aebce82a919afb1c8764",
      "contractAddress": null
    }
  ],
  "libraries": [],
  "pending": [],
  "returns": {},
  "timestamp": 1737505466,
  "chain": 11155111,
  "commit": "1d2fb70"
}