{
  "transactions": [
    {
      "hash": "0x6fb1ae402702736ea635a8facb1364929b585356fbd54b70df48aaa5af7fed12",
      "transactionType": "CALL",
      "contractName": null,
      "contractAddress": "0x5eb9cc76c3506942c1c0ead70e877dd5e4f00cb0",
      "function": "buy(address)",
      "arguments": [
        "0xC77f7fed3b5Cc8249aDc428c5F44C9063B9734b4"
      ],
      "transaction": {
        "from": "0xc77f7fed3b5cc8249adc428c5f44c9063b9734b4",
        "to": "0x5eb9cc76c3506942c1c0ead70e877dd5e4f00cb0",
        "gas": "0x1b30c",
        "value": "0xde0b6b3a7640000",
        "input": "0xf088d547000000000000000000000000c77f7fed3b5cc8249adc428c5f44c9063b9734b4",
        "nonce": "0x442",
        "chainId": "0xaa36a7"
      },
      "additionalContracts": [],
      "isFixedGasLimit": false
    }
  ],
  "receipts": [
    {
      "status": "0x1",
      "cumulativeGasUsed": "0x9aa080",
      "logs": [
        {
          "address": "0x5eb9cc76c3506942c1c0ead70e877dd5e4f00cb0",
          "topics": [
            "0xddf252ad1be2c89b69c2b068fc378daa952ba7f163c4a11628f55a4df523b3ef",
            "0x0000000000000000000000000000000000000000000000000000000000000000",
            "0x000000000000000000000000c77f7fed3b5cc8249adc428c5f44c9063b9734b4"
          ],
          "data": "0x00000000000000000000000000000000000000000000003574dcf800d945b8ec",
          "blockHash": "0xf7eac5936fae6b30ce83d9401aac25ad0f7c3956f255fc6b41a8bbd19f12d79c",
          "blockNumber": "0x725061",
          "transactionHash": "0x6fb1ae402702736ea635a8facb1364929b585356fbd54b70df48aaa5af7fed12",
          "transactionIndex": "0x70",
          "logIndex": "0xad",
          "removed": false
        },
        {
          "address": "0x5eb9cc76c3506942c1c0ead70e877dd5e4f00cb0",
          "topics": [
            "0xddf252ad1be2c89b69c2b068fc378daa952ba7f163c4a11628f55a4df523b3ef",
            "0x0000000000000000000000000000000000000000000000000000000000000000",
            "0x000000000000000000000000c77f7fed3b5cc8249adc428c5f44c9063b9734b4"
          ],
          "data": "0x0000000000000000000000000000000000000000000000002982c35610db8929",
          "blockHash": "0xf7eac5936fae6b30ce83d9401aac25ad0f7c3956f255fc6b41a8bbd19f12d79c",
          "blockNumber": "0x725061",
          "transactionHash": "0x6fb1ae402702736ea635a8facb1364929b585356fbd54b70df48aaa5af7fed12",
          "transactionIndex": "0x70",
          "logIndex": "0xae",
          "removed": false
        },
        {
          "address": "0x5eb9cc76c3506942c1c0ead70e877dd5e4f00cb0",
          "topics": [
            "0x4afcb4a87cdbd9974efdb92ee48bc8d7cd0ae4bf217004db3d080cbaee652ca7"
          ],
          "data": "0x000000000000000000000000000000000000000000000000000000006786b65800000000000000000000000000000000000000000000000000039117e8de5b240000000000000000000000000000000000000000000000000de0b6b3a7640000",
          "blockHash": "0xf7eac5936fae6b30ce83d9401aac25ad0f7c3956f255fc6b41a8bbd19f12d79c",
          "blockNumber": "0x725061",
          "transactionHash": "0x6fb1ae402702736ea635a8facb1364929b585356fbd54b70df48aaa5af7fed12",
          "transactionIndex": "0x70",
          "logIndex": "0xaf",
          "removed": false
        }
      ],
      "logsBloom": "0x00000000000000000000000000000000000000000000000000000000000000000000000000000000000000000000000000000000000000004000000000000000000000000000000000000008000000000000000000000000000000000000000000000000020000000000000004000800020000000000000000000010000000000000000000000000000000000000000000000000000000000000010000000000000000000000000000000000000000004000000000000000000000000000020000000002000000800000008000000000000000000000080000000000000020000000000000000000000000000000000000000000000000000000000000000000",
      "type": "0x2",
      "transactionHash": "0x6fb1ae402702736ea635a8facb1364929b585356fbd54b70df48aaa5af7fed12",
      "transactionIndex": "0x70",
      "blockHash": "0xf7eac5936fae6b30ce83d9401aac25ad0f7c3956f255fc6b41a8bbd19f12d79c",
      "blockNumber": "0x725061",
      "gasUsed": "0x13af8",
      "effectiveGasPrice": "0x264aa9e62",
      "from": "0xc77f7fed3b5cc8249adc428c5f44c9063b9734b4",
      "to": "0x5eb9cc76c3506942c1c0ead70e877dd5e4f00cb0",
      "contractAddress": null
    }
  ],
  "libraries": [],
  "pending": [],
  "returns": {},
  "timestamp": 1736881752,
  "chain": 11155111,
  "commit": "51a374b"
}