{
  "transactions": [
    {
      "hash": "0xaba1cb1499a60ebc68bf7b7165c0ead65ad899b72fec924fbde0ec2b6ba28c92",
      "transactionType": "CALL",
      "contractName": null,
      "contractAddress": "0x8aafd3ede9adb0ff97c7aebce82a919afb1c8764",
      "function": "sell(uint256)",
      "arguments": [
        "24527896027"
      ],
      "transaction": {
        "from": "0xc77f7fed3b5cc8249adc428c5f44c9063b9734b4",
        "to": "0x8aafd3ede9adb0ff97c7aebce82a919afb1c8764",
        "gas": "0x1722a",
        "value": "0x0",
        "input": "0xe4849b3200000000000000000000000000000000000000000000000000000005b5f9fddb",
        "nonce": "0xe97",
        "chainId": "0xaa36a7"
      },
      "additionalContracts": [],
      "isFixedGasLimit": false
    }
  ],
  "receipts": [
    {
      "status": "0x1",
      "cumulativeGasUsed": "0x12cbc95",
      "logs": [
        {
          "address": "0x8aafd3ede9adb0ff97c7aebce82a919afb1c8764",
          "topics": [
            "0xddf252ad1be2c89b69c2b068fc378daa952ba7f163c4a11628f55a4df523b3ef",
            "0x000000000000000000000000c77f7fed3b5cc8249adc428c5f44c9063b9734b4",
            "0x0000000000000000000000000000000000000000000000000000000000000000"
          ],
          "data": "0x00000000000000000000000000000000000000000000000000000005aa47dd1b",
          "blockHash": "0xf424b10a42095573d92623e8832f7ebb25f8255d18e9027a340cc804a010687c",
          "blockNumber": "0x7313f5",
          "transactionHash": "0xaba1cb1499a60ebc68bf7b7165c0ead65ad899b72fec924fbde0ec2b6ba28c92",
          "transactionIndex": "0xd5",
          "logIndex": "0x162",
          "removed": false
        },
        {
          "address": "0x8aafd3ede9adb0ff97c7aebce82a919afb1c8764",
          "topics": [
            "0xddf252ad1be2c89b69c2b068fc378daa952ba7f163c4a11628f55a4df523b3ef",
            "0x000000000000000000000000c77f7fed3b5cc8249adc428c5f44c9063b9734b4",
            "0x000000000000000000000000c77f7fed3b5cc8249adc428c5f44c9063b9734b4"
          ],
          "data": "0x000000000000000000000000000000000000000000000000000000000bb220c0",
          "blockHash": "0xf424b10a42095573d92623e8832f7ebb25f8255d18e9027a340cc804a010687c",
          "blockNumber": "0x7313f5",
          "transactionHash": "0xaba1cb1499a60ebc68bf7b7165c0ead65ad899b72fec924fbde0ec2b6ba28c92",
          "transactionIndex": "0xd5",
          "logIndex": "0x163",
          "removed": false
        },
        {
          "address": "0x8aafd3ede9adb0ff97c7aebce82a919afb1c8764",
          "topics": [
            "0x4afcb4a87cdbd9974efdb92ee48bc8d7cd0ae4bf217004db3d080cbaee652ca7"
          ],
          "data": "0x00000000000000000000000000000000000000000000000000000000678fec280000000000000000000000000000000000000000000000000004b6f3b2fef88f0000000000000000000000000000000000000000000000000000000001f0ac2d",
          "blockHash": "0xf424b10a42095573d92623e8832f7ebb25f8255d18e9027a340cc804a010687c",
          "blockNumber": "0x7313f5",
          "transactionHash": "0xaba1cb1499a60ebc68bf7b7165c0ead65ad899b72fec924fbde0ec2b6ba28c92",
          "transactionIndex": "0xd5",
          "logIndex": "0x164",
          "removed": false
        }
      ],
      "logsBloom": "0x00000000000000000000000000000000000000000600000000000000000000000000000000000000000000000000000000000000000000004000000000000000000000000000004000000008000000000000000000000000000000000000000000000000020000000000000000000800020000000000000000000010000000000000000000000000000000000000000000000000000000000000010000000000000000000000000000000000000000004000000000000000000000000000000000000002000000800000000000000000000000000000080000000000000020000000000000000000000000000000000000000000000000000000000000000000",
      "type": "0x2",
      "transactionHash": "0xaba1cb1499a60ebc68bf7b7165c0ead65ad899b72fec924fbde0ec2b6ba28c92",
      "transactionIndex": "0xd5",
      "blockHash": "0xf424b10a42095573d92623e8832f7ebb25f8255d18e9027a340cc804a010687c",
      "blockNumber": "0x7313f5",
      "gasUsed": "0xfd1b",
      "effectiveGasPrice": "0x812ddc7a",
      "from": "0xc77f7fed3b5cc8249adc428c5f44c9063b9734b4",
      "to": "0x8aafd3ede9adb0ff97c7aebce82a919afb1c8764",
      "contractAddress": null
    }
  ],
  "libraries": [],
  "pending": [],
  "returns": {},
  "timestamp": 1737485354,
  "chain": 11155111,
  "commit": "51a374b"
}