{
  "transactions": [
    {
      "hash": "0xee154883521039fa1bf69ecc52731a5a182093cbc243cdd30e232166c3650962",
      "transactionType": "CALL",
      "contractName": null,
      "contractAddress": "0x8aafd3ede9adb0ff97c7aebce82a919afb1c8764",
      "function": "sell(uint256)",
      "arguments": [
        "45394950726849481"
      ],
      "transaction": {
        "from": "0xc77f7fed3b5cc8249adc428c5f44c9063b9734b4",
        "to": "0x8aafd3ede9adb0ff97c7aebce82a919afb1c8764",
        "gas": "0x1724d",
        "value": "0x0",
        "input": "0xe4849b3200000000000000000000000000000000000000000000000000a1467798ab93c9",
        "nonce": "0x1089",
        "chainId": "0xaa36a7"
      },
      "additionalContracts": [],
      "isFixedGasLimit": false
    }
  ],
  "receipts": [
    {
      "status": "0x1",
      "cumulativeGasUsed": "0xef8e03",
      "logs": [
        {
          "address": "0x8aafd3ede9adb0ff97c7aebce82a919afb1c8764",
          "topics": [
            "0xddf252ad1be2c89b69c2b068fc378daa952ba7f163c4a11628f55a4df523b3ef",
            "0x000000000000000000000000c77f7fed3b5cc8249adc428c5f44c9063b9734b4",
            "0x0000000000000000000000000000000000000000000000000000000000000000"
          ],
          "data": "0x000000000000000000000000000000000000000000000000009ffc2ce95e6dbe",
          "blockHash": "0x54822db04abf86c2850825e2fdc45721d8403b5e072baf66623cea0c78824ce9",
          "blockNumber": "0x731715",
          "transactionHash": "0xee154883521039fa1bf69ecc52731a5a182093cbc243cdd30e232166c3650962",
          "transactionIndex": "0x8a",
          "logIndex": "0x80",
          "removed": false
        },
        {
          "address": "0x8aafd3ede9adb0ff97c7aebce82a919afb1c8764",
          "topics": [
            "0xddf252ad1be2c89b69c2b068fc378daa952ba7f163c4a11628f55a4df523b3ef",
            "0x000000000000000000000000c77f7fed3b5cc8249adc428c5f44c9063b9734b4",
            "0x000000000000000000000000c77f7fed3b5cc8249adc428c5f44c9063b9734b4"
          ],
          "data": "0x00000000000000000000000000000000000000000000000000014a4aaf4d260b",
          "blockHash": "0x54822db04abf86c2850825e2fdc45721d8403b5e072baf66623cea0c78824ce9",
          "blockNumber": "0x731715",
          "transactionHash": "0xee154883521039fa1bf69ecc52731a5a182093cbc243cdd30e232166c3650962",
          "transactionIndex": "0x8a",
          "logIndex": "0x81",
          "removed": false
        },
        {
          "address": "0x8aafd3ede9adb0ff97c7aebce82a919afb1c8764",
          "topics": [
            "0x4afcb4a87cdbd9974efdb92ee48bc8d7cd0ae4bf217004db3d080cbaee652ca7"
          ],
          "data": "0x00000000000000000000000000000000000000000000000000000000679011c00000000000000000000000000000000000000000000000000004fabae4f3b26d000000000000000000000000000000000000000000000000000039ddc62b593c",
          "blockHash": "0x54822db04abf86c2850825e2fdc45721d8403b5e072baf66623cea0c78824ce9",
          "blockNumber": "0x731715",
          "transactionHash": "0xee154883521039fa1bf69ecc52731a5a182093cbc243cdd30e232166c3650962",
          "transactionIndex": "0x8a",
          "logIndex": "0x82",
          "removed": false
        }
      ],
      "logsBloom": "0x00000000000000000000000000000000000000000600000000000000000000000000000000000000000000000000000000000000000000004000000000000000000000000000004000000008000000000000000000000000000000000000000000000000020000000000000000000800020000000000000000000010000000000000000000000000000000000000000000000000000000000000010000000000000000000000000000000000000000004000000000000000000000000000000000000002000000800000000000000000000000000000080000000000000020000000000000000000000000000000000000000000000000000000000000000000",
      "type": "0x2",
      "transactionHash": "0xee154883521039fa1bf69ecc52731a5a182093cbc243cdd30e232166c3650962",
      "transactionIndex": "0x8a",
      "blockHash": "0x54822db04abf86c2850825e2fdc45721d8403b5e072baf66623cea0c78824ce9",
      "blockNumber": "0x731715",
      "gasUsed": "0xfd33",
      "effectiveGasPrice": "0x415c7b84",
      "from": "0xc77f7fed3b5cc8249adc428c5f44c9063b9734b4",
      "to": "0x8aafd3ede9adb0ff97c7aebce82a919afb1c8764",
      "contractAddress": null
    }
  ],
  "libraries": [],
  "pending": [],
  "returns": {},
  "timestamp": 1737494977,
  "chain": 11155111,
  "commit": "1d2fb70"
}