{
  "transactions": [
    {
      "hash": "0xc8b0536a14dcb391be1e950a3c1bffe9d6cecad39dc3a89e4ab7879003e3d906",
      "transactionType": "CALL",
      "contractName": null,
      "contractAddress": "0x8aafd3ede9adb0ff97c7aebce82a919afb1c8764",
      "function": "sell(uint256)",
      "arguments": [
        "560962"
      ],
      "transaction": {
        "from": "0xc77f7fed3b5cc8249adc428c5f44c9063b9734b4",
        "to": "0x8aafd3ede9adb0ff97c7aebce82a919afb1c8764",
        "gas": "0x16208",
        "value": "0x0",
        "input": "0xe4849b320000000000000000000000000000000000000000000000000000000000088f42",
        "nonce": "0x13b9",
        "chainId": "0xaa36a7"
      },
      "additionalContracts": [],
      "isFixedGasLimit": false
    }
  ],
  "receipts": [
    {
      "status": "0x1",
      "cumulativeGasUsed": "0xf880eb",
      "logs": [
        {
          "address": "0x8aafd3ede9adb0ff97c7aebce82a919afb1c8764",
          "topics": [
            "0xddf252ad1be2c89b69c2b068fc378daa952ba7f163c4a11628f55a4df523b3ef",
            "0x000000000000000000000000c77f7fed3b5cc8249adc428c5f44c9063b9734b4",
            "0x0000000000000000000000000000000000000000000000000000000000000000"
          ],
          "data": "0x0000000000000000000000000000000000000000000000000000000000087dbb",
          "blockHash": "0x58064869198ae7b3196f79d7934555f74d3ecc3b5b6d299acf46a02aad23068c",
          "blockNumber": "0x731ae3",
          "transactionHash": "0xc8b0536a14dcb391be1e950a3c1bffe9d6cecad39dc3a89e4ab7879003e3d906",
          "transactionIndex": "0x89",
          "logIndex": "0xc1",
          "removed": false
        },
        {
          "address": "0x8aafd3ede9adb0ff97c7aebce82a919afb1c8764",
          "topics": [
            "0xddf252ad1be2c89b69c2b068fc378daa952ba7f163c4a11628f55a4df523b3ef",
            "0x000000000000000000000000c77f7fed3b5cc8249adc428c5f44c9063b9734b4",
            "0x000000000000000000000000c77f7fed3b5cc8249adc428c5f44c9063b9734b4"
          ],
          "data": "0x0000000000000000000000000000000000000000000000000000000000001187",
          "blockHash": "0x58064869198ae7b3196f79d7934555f74d3ecc3b5b6d299acf46a02aad23068c",
          "blockNumber": "0x731ae3",
          "transactionHash": "0xc8b0536a14dcb391be1e950a3c1bffe9d6cecad39dc3a89e4ab7879003e3d906",
          "transactionIndex": "0x89",
          "logIndex": "0xc2",
          "removed": false
        },
        {
          "address": "0x8aafd3ede9adb0ff97c7aebce82a919afb1c8764",
          "topics": [
            "0x4afcb4a87cdbd9974efdb92ee48bc8d7cd0ae4bf217004db3d080cbaee652ca7"
          ],
          "data": "0x0000000000000000000000000000000000000000000000000000000067903f74000000000000000000000000000000000000000000000000000d4a829722efd10000000000000000000000000000000000000000000000000000000000000832",
          "blockHash": "0x58064869198ae7b3196f79d7934555f74d3ecc3b5b6d299acf46a02aad23068c",
          "blockNumber": "0x731ae3",
          "transactionHash": "0xc8b0536a14dcb391be1e950a3c1bffe9d6cecad39dc3a89e4ab7879003e3d906",
          "transactionIndex": "0x89",
          "logIndex": "0xc3",
          "removed": false
        }
      ],
      "logsBloom": "0x00000000000000000000000000000000000000000600000000000000000000000000000000000000000000000000000000000000000000004000000000000000000000000000004000000008000000000000000000000000000000000000000000000000020000000000000000000800020000000000000000000010000000000000000000000000000000000000000000000000000000000000010000000000000000000000000000000000000000004000000000000000000000000000000000000002000000800000000000000000000000000000080000000000000020000000000000000000000000000000000000000000000000000000000000000000",
      "type": "0x2",
      "transactionHash": "0xc8b0536a14dcb391be1e950a3c1bffe9d6cecad39dc3a89e4ab7879003e3d906",
      "transactionIndex": "0x89",
      "blockHash": "0x58064869198ae7b3196f79d7934555f74d3ecc3b5b6d299acf46a02aad23068c",
      "blockNumber": "0x731ae3",
      "gasUsed": "0xf213",
      "effectiveGasPrice": "0x84042a76",
      "from": "0xc77f7fed3b5cc8249adc428c5f44c9063b9734b4",
      "to": "0x8aafd3ede9adb0ff97c7aebce82a919afb1c8764",
      "contractAddress": null
    }
  ],
  "libraries": [],
  "pending": [],
  "returns": {},
  "timestamp": 1737506678,
  "chain": 11155111,
  "commit": "1d2fb70"
}