{
  "transactions": [
    {
      "hash": "0x204faa63cde91368b19aca5d66a4b59db17cc87c94a33ab8435f8a58c606e0e2",
      "transactionType": "CALL",
      "contractName": null,
      "contractAddress": "0xbf4a322f1496e5c3d34a9bcdb4c60567b38c7de2",
      "function": "sell(uint256)",
      "arguments": [
        "990845786234335996049"
      ],
      "transaction": {
        "from": "0xc77f7fed3b5cc8249adc428c5f44c9063b9734b4",
        "to": "0xbf4a322f1496e5c3d34a9bcdb4c60567b38c7de2",
        "gas": "0x16fea",
        "value": "0x0",
        "input": "0xe4849b32000000000000000000000000000000000000000000000035b6bf60daaa3b2891",
        "nonce": "0x8f9",
        "chainId": "0xaa36a7"
      },
      "additionalContracts": [],
      "isFixedGasLimit": false
    }
  ],
  "receipts": [
    {
      "status": "0x1",
      "cumulativeGasUsed": "0x104f410",
      "logs": [
        {
          "address": "0xbf4a322f1496e5c3d34a9bcdb4c60567b38c7de2",
          "topics": [
            "0xddf252ad1be2c89b69c2b068fc378daa952ba7f163c4a11628f55a4df523b3ef",
            "0x000000000000000000000000c77f7fed3b5cc8249adc428c5f44c9063b9734b4",
            "0x0000000000000000000000000000000000000000000000000000000000000000"
          ],
          "data": "0x000000000000000000000000000000000000000000000035b6bf60daaa3b2891",
          "blockHash": "0x34064e3428ef84fdebc80467f2f7a05034629b706a89d62c311c2a2aeb0109f8",
          "blockNumber": "0x725871",
          "transactionHash": "0x204faa63cde91368b19aca5d66a4b59db17cc87c94a33ab8435f8a58c606e0e2",
          "transactionIndex": "0x70",
          "logIndex": "0xa5",
          "removed": false
        },
        {
          "address": "0xbf4a322f1496e5c3d34a9bcdb4c60567b38c7de2",
          "topics": [
            "0x4afcb4a87cdbd9974efdb92ee48bc8d7cd0ae4bf217004db3d080cbaee652ca7"
          ],
          "data": "0x000000000000000000000000000000000000000000000000000000006787177800000000000000000000000000000000000000000000000000038f8003bc33240000000000000000000000000000000000000000000000000dc7e3fb4860c632",
          "blockHash": "0x34064e3428ef84fdebc80467f2f7a05034629b706a89d62c311c2a2aeb0109f8",
          "blockNumber": "0x725871",
          "transactionHash": "0x204faa63cde91368b19aca5d66a4b59db17cc87c94a33ab8435f8a58c606e0e2",
          "transactionIndex": "0x70",
          "logIndex": "0xa6",
          "removed": false
        }
      ],
      "logsBloom": "0x00000000000000000000000000000000000000000000000000000000000000000000000000000000000000000000000000000000000000004000000000000000000000000000000000000008000000000000001000000000000000000000000000000000020000000000000000000800020000000000000000000010000000000000000000000000000000000000000000000000000008000000010000000000000000000000000000000000000000004000000000000000000000000000000000000002000000800000000000001000000000000000080000000000000020000000000000000000000000000000000000000000000000000000000000000000",
      "type": "0x2",
      "transactionHash": "0x204faa63cde91368b19aca5d66a4b59db17cc87c94a33ab8435f8a58c606e0e2",
      "transactionIndex": "0x70",
      "blockHash": "0x34064e3428ef84fdebc80467f2f7a05034629b706a89d62c311c2a2aeb0109f8",
      "blockNumber": "0x725871",
      "gasUsed": "0xfb91",
      "effectiveGasPrice": "0x259d083a",
      "from": "0xc77f7fed3b5cc8249adc428c5f44c9063b9734b4",
      "to": "0xbf4a322f1496e5c3d34a9bcdb4c60567b38c7de2",
      "contractAddress": null
    }
  ],
  "libraries": [],
  "pending": [],
  "returns": {},
  "timestamp": 1736906617,
  "chain": 11155111,
  "commit": "51a374b"
}