{
  "transactions": [
    {
      "hash": "0x1d6bb62cc06699e61f0dc012ee67729c56cc4da70014e9ea2f73b79e4946d69a",
      "transactionType": "CALL",
      "contractName": null,
      "contractAddress": "0x8aafd3ede9adb0ff97c7aebce82a919afb1c8764",
      "function": "sell(uint256)",
      "arguments": [
        "9124017635153021"
      ],
      "transaction": {
        "from": "0xc77f7fed3b5cc8249adc428c5f44c9063b9734b4",
        "to": "0x8aafd3ede9adb0ff97c7aebce82a919afb1c8764",
        "gas": "0x1724d",
        "value": "0x0",
        "input": "0xe4849b3200000000000000000000000000000000000000000000000000206a3ee611547d",
        "nonce": "0x179b",
        "chainId": "0xaa36a7"
      },
      "additionalContracts": [],
      "isFixedGasLimit": false
    }
  ],
  "receipts": [
    {
      "status": "0x1",
      "cumulativeGasUsed": "0xd0a36d",
      "logs": [
        {
          "address": "0x8aafd3ede9adb0ff97c7aebce82a919afb1c8764",
          "topics": [
            "0xddf252ad1be2c89b69c2b068fc378daa952ba7f163c4a11628f55a4df523b3ef",
            "0x000000000000000000000000c77f7fed3b5cc8249adc428c5f44c9063b9734b4",
            "0x0000000000000000000000000000000000000000000000000000000000000000"
          ],
          "data": "0x000000000000000000000000000000000000000000000000002027dc176d59f5",
          "blockHash": "0xc81eaacec0422afbfa7d2f6641f0da3e19c17eb4cfde5ecfd1c8cd3a0a116ed3",
          "blockNumber": "0x731f7a",
          "transactionHash": "0x1d6bb62cc06699e61f0dc012ee67729c56cc4da70014e9ea2f73b79e4946d69a",
          "transactionIndex": "0x71",
          "logIndex": "0xd2",
          "removed": false
        },
        {
          "address": "0x8aafd3ede9adb0ff97c7aebce82a919afb1c8764",
          "topics": [
            "0xddf252ad1be2c89b69c2b068fc378daa952ba7f163c4a11628f55a4df523b3ef",
            "0x000000000000000000000000c77f7fed3b5cc8249adc428c5f44c9063b9734b4",
            "0x000000000000000000000000c77f7fed3b5cc8249adc428c5f44c9063b9734b4"
          ],
          "data": "0x00000000000000000000000000000000000000000000000000004262cea3fa88",
          "blockHash": "0xc81eaacec0422afbfa7d2f6641f0da3e19c17eb4cfde5ecfd1c8cd3a0a116ed3",
          "blockNumber": "0x731f7a",
          "transactionHash": "0x1d6bb62cc06699e61f0dc012ee67729c56cc4da70014e9ea2f73b79e4946d69a",
          "transactionIndex": "0x71",
          "logIndex": "0xd3",
          "removed": false
        },
        {
          "address": "0x8aafd3ede9adb0ff97c7aebce82a919afb1c8764",
          "topics": [
            "0x4afcb4a87cdbd9974efdb92ee48bc8d7cd0ae4bf217004db3d080cbaee652ca7"
          ],
          "data": "0x00000000000000000000000000000000000000000000000000000000679076a00000000000000000000000000000000000000000000000000018d9fbe31199f100000000000000000000000000000000000000000000000000003a0bfdd543e2",
          "blockHash": "0xc81eaacec0422afbfa7d2f6641f0da3e19c17eb4cfde5ecfd1c8cd3a0a116ed3",
          "blockNumber": "0x731f7a",
          "transactionHash": "0x1d6bb62cc06699e61f0dc012ee67729c56cc4da70014e9ea2f73b79e4946d69a",
          "transactionIndex": "0x71",
          "logIndex": "0xd4",
          "removed": false
        }
      ],
      "logsBloom": "0x00000000000000000000000000000000000000000600000000000000000000000000000000000000000000000000000000000000000000004000000000000000000000000000004000000008000000000000000000000000000000000000000000000000020000000000000000000800020000000000000000000010000000000000000000000000000000000000000000000000000000000000010000000000000000000000000000000000000000004000000000000000000000000000000000000002000000800000000000000000000000000000080000000000000020000000000000000000000000000000000000000000000000000000000000000000",
      "type": "0x2",
      "transactionHash": "0x1d6bb62cc06699e61f0dc012ee67729c56cc4da70014e9ea2f73b79e4946d69a",
      "transactionIndex": "0x71",
      "blockHash": "0xc81eaacec0422afbfa7d2f6641f0da3e19c17eb4cfde5ecfd1c8cd3a0a116ed3",
      "blockNumber": "0x731f7a",
      "gasUsed": "0xfd33",
      "effectiveGasPrice": "0x635aa36f",
      "from": "0xc77f7fed3b5cc8249adc428c5f44c9063b9734b4",
      "to": "0x8aafd3ede9adb0ff97c7aebce82a919afb1c8764",
      "contractAddress": null
    }
  ],
  "libraries": [],
  "pending": [],
  "returns": {},
  "timestamp": 1737520802,
  "chain": 11155111,
  "commit": "1d2fb70"
}