{
  "transactions": [
    {
      "hash": "0x1d72d696f7d2361bf03824cbef857d90d5547dc9a03ef751ca86009ad4a4501b",
      "transactionType": "CALL",
      "contractName": null,
      "contractAddress": "0x5eb9cc76c3506942c1c0ead70e877dd5e4f00cb0",
      "function": "buy(address)",
      "arguments": [
        "0xC77f7fed3b5Cc8249aDc428c5F44C9063B9734b4"
      ],
      "transaction": {
        "from": "0xc77f7fed3b5cc8249adc428c5f44c9063b9734b4",
        "to": "0x5eb9cc76c3506942c1c0ead70e877dd5e4f00cb0",
        "gas": "0x156c8",
        "value": "0xde0b6b3a7640000",
        "input": "0xf088d547000000000000000000000000c77f7fed3b5cc8249adc428c5f44c9063b9734b4",
        "nonce": "0x12c",
        "chainId": "0xaa36a7"
      },
      "additionalContracts": [],
      "isFixedGasLimit": false
    }
  ],
  "receipts": [
    {
      "status": "0x1",
      "cumulativeGasUsed": "0x48af56",
      "logs": [
        {
          "address": "0x5eb9cc76c3506942c1c0ead70e877dd5e4f00cb0",
          "topics": [
            "0xddf252ad1be2c89b69c2b068fc378daa952ba7f163c4a11628f55a4df523b3ef",
            "0x0000000000000000000000000000000000000000000000000000000000000000",
            "0x000000000000000000000000c77f7fed3b5cc8249adc428c5f44c9063b9734b4"
          ],
          "data": "0x000000000000000000000000000000000000000000000035ab00df6abc877d34",
          "blockHash": "0x36ba76a8747dcf0aa850040a7a615fc3b68632ece44858715a7ead353566cf6e",
          "blockNumber": "0x723b0d",
          "transactionHash": "0x1d72d696f7d2361bf03824cbef857d90d5547dc9a03ef751ca86009ad4a4501b",
          "transactionIndex": "0x2b",
          "logIndex": "0x4b",
          "removed": false
        },
        {
          "address": "0x5eb9cc76c3506942c1c0ead70e877dd5e4f00cb0",
          "topics": [
            "0xddf252ad1be2c89b69c2b068fc378daa952ba7f163c4a11628f55a4df523b3ef",
            "0x0000000000000000000000000000000000000000000000000000000000000000",
            "0x000000000000000000000000c77f7fed3b5cc8249adc428c5f44c9063b9734b4"
          ],
          "data": "0x00000000000000000000000000000000000000000000000029acce063daf632d",
          "blockHash": "0x36ba76a8747dcf0aa850040a7a615fc3b68632ece44858715a7ead353566cf6e",
          "blockNumber": "0x723b0d",
          "transactionHash": "0x1d72d696f7d2361bf03824cbef857d90d5547dc9a03ef751ca86009ad4a4501b",
          "transactionIndex": "0x2b",
          "logIndex": "0x4c",
          "removed": false
        },
        {
          "address": "0x5eb9cc76c3506942c1c0ead70e877dd5e4f00cb0",
          "topics": [
            "0x4afcb4a87cdbd9974efdb92ee48bc8d7cd0ae4bf217004db3d080cbaee652ca7"
          ],
          "data": "0x000000000000000000000000000000000000000000000000000000006785b5f000000000000000000000000000000000000000000000000000038d7ec803bf860000000000000000000000000000000000000000000000000de0b6b3a7640000",
          "blockHash": "0x36ba76a8747dcf0aa850040a7a615fc3b68632ece44858715a7ead353566cf6e",
          "blockNumber": "0x723b0d",
          "transactionHash": "0x1d72d696f7d2361bf03824cbef857d90d5547dc9a03ef751ca86009ad4a4501b",
          "transactionIndex": "0x2b",
          "logIndex": "0x4d",
          "removed": false
        }
      ],
      "logsBloom": "0x00000000000000000000000000000000000000000000000000000000000000000000000000000000000000000000000000000000000000004000000000000000000000000000000000000008000000000000000000000000000000000000000000000000020000000000000004000800020000000000000000000010000000000000000000000000000000000000000000000000000000000000010000000000000000000000000000000000000000004000000000000000000000000000020000000002000000800000008000000000000000000000080000000000000020000000000000000000000000000000000000000000000000000000000000000000",
      "type": "0x2",
      "transactionHash": "0x1d72d696f7d2361bf03824cbef857d90d5547dc9a03ef751ca86009ad4a4501b",
      "transactionIndex": "0x2b",
      "blockHash": "0x36ba76a8747dcf0aa850040a7a615fc3b68632ece44858715a7ead353566cf6e",
      "blockNumber": "0x723b0d",
      "gasUsed": "0xf82c",
      "effectiveGasPrice": "0x3537be6a2",
      "from": "0xc77f7fed3b5cc8249adc428c5f44c9063b9734b4",
      "to": "0x5eb9cc76c3506942c1c0ead70e877dd5e4f00cb0",
      "contractAddress": null
    }
  ],
  "libraries": [],
  "pending": [],
  "returns": {},
  "timestamp": 1736816113,
  "chain": 11155111,
  "commit": "51a374b"
}