{
  "transactions": [
    {
      "hash": "0xcd2763c54ce5c558bfd5eeba23aae9a40e8d253eb6f5bfad34272e14d8ae2341",
      "transactionType": "CALL",
      "contractName": null,
      "contractAddress": "0x8aafd3ede9adb0ff97c7aebce82a919afb1c8764",
      "function": "sell(uint256)",
      "arguments": [
        "1373930404908380017"
      ],
      "transaction": {
        "from": "0xc77f7fed3b5cc8249adc428c5f44c9063b9734b4",
        "to": "0x8aafd3ede9adb0ff97c7aebce82a919afb1c8764",
        "gas": "0x15dca",
        "value": "0x0",
        "input": "0xe4849b3200000000000000000000000000000000000000000000000013112e6c82ac2f71",
        "nonce": "0x1632",
        "chainId": "0xaa36a7"
      },
      "additionalContracts": [],
      "isFixedGasLimit": false
    }
  ],
  "receipts": [
    {
      "status": "0x1",
      "cumulativeGasUsed": "0xfee252",
      "logs": [
        {
          "address": "0x8aafd3ede9adb0ff97c7aebce82a919afb1c8764",
          "topics": [
            "0xddf252ad1be2c89b69c2b068fc378daa952ba7f163c4a11628f55a4df523b3ef",
            "0x000000000000000000000000c77f7fed3b5cc8249adc428c5f44c9063b9734b4",
            "0x0000000000000000000000000000000000000000000000000000000000000000"
          ],
          "data": "0x00000000000000000000000000000000000000000000000012ea21c3b4d3c491",
          "blockHash": "0xf33e277f601da8f6d19ca9565dc1a2edb09865ea9f2953f94b82c9f2bb9906f3",
          "blockNumber": "0x731dca",
          "transactionHash": "0xcd2763c54ce5c558bfd5eeba23aae9a40e8d253eb6f5bfad34272e14d8ae2341",
          "transactionIndex": "0x6e",
          "logIndex": "0x9a",
          "removed": false
        },
        {
          "address": "0x8aafd3ede9adb0ff97c7aebce82a919afb1c8764",
          "topics": [
            "0xddf252ad1be2c89b69c2b068fc378daa952ba7f163c4a11628f55a4df523b3ef",
            "0x000000000000000000000000c77f7fed3b5cc8249adc428c5f44c9063b9734b4",
            "0x000000000000000000000000c77f7fed3b5cc8249adc428c5f44c9063b9734b4"
          ],
          "data": "0x00000000000000000000000000000000000000000000000000270ca8cdd86ae0",
          "blockHash": "0xf33e277f601da8f6d19ca9565dc1a2edb09865ea9f2953f94b82c9f2bb9906f3",
          "blockNumber": "0x731dca",
          "transactionHash": "0xcd2763c54ce5c558bfd5eeba23aae9a40e8d253eb6f5bfad34272e14d8ae2341",
          "transactionIndex": "0x6e",
          "logIndex": "0x9b",
          "removed": false
        },
        {
          "address": "0x8aafd3ede9adb0ff97c7aebce82a919afb1c8764",
          "topics": [
            "0x4afcb4a87cdbd9974efdb92ee48bc8d7cd0ae4bf217004db3d080cbaee652ca7"
          ],
          "data": "0x00000000000000000000000000000000000000000000000000000000679062600000000000000000000000000000000000000000000000000014a5772af03c90000000000000000000000000000000000000000000000000001c5da455e68a9b",
          "blockHash": "0xf33e277f601da8f6d19ca9565dc1a2edb09865ea9f2953f94b82c9f2bb9906f3",
          "blockNumber": "0x731dca",
          "transactionHash": "0xcd2763c54ce5c558bfd5eeba23aae9a40e8d253eb6f5bfad34272e14d8ae2341",
          "transactionIndex": "0x6e",
          "logIndex": "0x9c",
          "removed": false
        }
      ],
      "logsBloom": "0x00000000000000000000000000000000000000000600000000000000000000000000000000000000000000000000000000000000000000004000000000000000000000000000004000000008000000000000000000000000000000000000000000000000020000000000000000000800020000000000000000000010000000000000000000000000000000000000000000000000000000000000010000000000000000000000000000000000000000004000000000000000000000000000000000000002000000800000000000000000000000000000080000000000000020000000000000000000000000000000000000000000000000000000000000000000",
      "type": "0x2",
      "transactionHash": "0xcd2763c54ce5c558bfd5eeba23aae9a40e8d253eb6f5bfad34272e14d8ae2341",
      "transactionIndex": "0x6e",
      "blockHash": "0xf33e277f601da8f6d19ca9565dc1a2edb09865ea9f2953f94b82c9f2bb9906f3",
      "blockNumber": "0x731dca",
      "gasUsed": "0xfd3f",
      "effectiveGasPrice": "0x58628725",
      "from": "0xc77f7fed3b5cc8249adc428c5f44c9063b9734b4",
      "to": "0x8aafd3ede9adb0ff97c7aebce82a919afb1c8764",
      "contractAddress": null
    }
  ],
  "libraries": [],
  "pending": [],
  "returns": {},
  "timestamp": 1737515618,
  "chain": 11155111,
  "commit": "1d2fb70"
}