{
  "transactions": [
    {
      "hash": "0xa8806f5b7f6551dd5c39173257ea5ffdbe045eb5aed9c6645015888767a402bc",
      "transactionType": "CALL",
      "contractName": null,
      "contractAddress": "0x8aafd3ede9adb0ff97c7aebce82a919afb1c8764",
      "function": "sell(uint256)",
      "arguments": [
        "6059063581"
      ],
      "transaction": {
        "from": "0xc77f7fed3b5cc8249adc428c5f44c9063b9734b4",
        "to": "0x8aafd3ede9adb0ff97c7aebce82a919afb1c8764",
        "gas": "0x1722a",
        "value": "0x0",
        "input": "0xe4849b32000000000000000000000000000000000000000000000000000000016925f91d",
        "nonce": "0x15b8",
        "chainId": "0xaa36a7"
      },
      "additionalContracts": [],
      "isFixedGasLimit": false
    }
  ],
  "receipts": [
    {
      "status": "0x1",
      "cumulativeGasUsed": "0xd43527",
      "logs": [
        {
          "address": "0x8aafd3ede9adb0ff97c7aebce82a919afb1c8764",
          "topics": [
            "0xddf252ad1be2c89b69c2b068fc378daa952ba7f163c4a11628f55a4df523b3ef",
            "0x000000000000000000000000c77f7fed3b5cc8249adc428c5f44c9063b9734b4",
            "0x0000000000000000000000000000000000000000000000000000000000000000"
          ],
          "data": "0x0000000000000000000000000000000000000000000000000000000166425761",
          "blockHash": "0x446d83b4c8b8ead25bc0b0830fe803815cab245c54524da60fc056c2932b073c",
          "blockNumber": "0x731d31",
          "transactionHash": "0xa8806f5b7f6551dd5c39173257ea5ffdbe045eb5aed9c6645015888767a402bc",
          "transactionIndex": "0x72",
          "logIndex": "0xbc",
          "removed": false
        },
        {
          "address": "0x8aafd3ede9adb0ff97c7aebce82a919afb1c8764",
          "topics": [
            "0xddf252ad1be2c89b69c2b068fc378daa952ba7f163c4a11628f55a4df523b3ef",
            "0x000000000000000000000000c77f7fed3b5cc8249adc428c5f44c9063b9734b4",
            "0x000000000000000000000000c77f7fed3b5cc8249adc428c5f44c9063b9734b4"
          ],
          "data": "0x0000000000000000000000000000000000000000000000000000000002e3a1bc",
          "blockHash": "0x446d83b4c8b8ead25bc0b0830fe803815cab245c54524da60fc056c2932b073c",
          "blockNumber": "0x731d31",
          "transactionHash": "0xa8806f5b7f6551dd5c39173257ea5ffdbe045eb5aed9c6645015888767a402bc",
          "transactionIndex": "0x72",
          "logIndex": "0xbd",
          "removed": false
        },
        {
          "address": "0x8aafd3ede9adb0ff97c7aebce82a919afb1c8764",
          "topics": [
            "0x4afcb4a87cdbd9974efdb92ee48bc8d7cd0ae4bf217004db3d080cbaee652ca7"
          ],
          "data": "0x0000000000000000000000000000000000000000000000000000000067905b3400000000000000000000000000000000000000000000000000132eebde75ffe10000000000000000000000000000000000000000000000000000000001f33743",
          "blockHash": "0x446d83b4c8b8ead25bc0b0830fe803815cab245c54524da60fc056c2932b073c",
          "blockNumber": "0x731d31",
          "transactionHash": "0xa8806f5b7f6551dd5c39173257ea5ffdbe045eb5aed9c6645015888767a402bc",
          "transactionIndex": "0x72",
          "logIndex": "0xbe",
          "removed": false
        }
      ],
      "logsBloom": "0x00000000000000000000000000000000000000000600000000000000000000000000000000000000000000000000000000000000000000004000000000000000000000000000004000000008000000000000000000000000000000000000000000000000020000000000000000000800020000000000000000000010000000000000000000000000000000000000000000000000000000000000010000000000000000000000000000000000000000004000000000000000000000000000000000000002000000800000000000000000000000000000080000000000000020000000000000000000000000000000000000000000000000000000000000000000",
      "type": "0x2",
      "transactionHash": "0xa8806f5b7f6551dd5c39173257ea5ffdbe045eb5aed9c6645015888767a402bc",
      "transactionIndex": "0x72",
      "blockHash": "0x446d83b4c8b8ead25bc0b0830fe803815cab245c54524da60fc056c2932b073c",
      "blockNumber": "0x731d31",
      "gasUsed": "0xfd1b",
      "effectiveGasPrice": "0x50ab4b5b",
      "from": "0xc77f7fed3b5cc8249adc428c5f44c9063b9734b4",
      "to": "0x8aafd3ede9adb0ff97c7aebce82a919afb1c8764",
      "contractAddress": null
    }
  ],
  "libraries": [],
  "pending": [],
  "returns": {},
  "timestamp": 1737513780,
  "chain": 11155111,
  "commit": "1d2fb70"
}