{
  "transactions": [
    {
      "hash": "0xb20b31cb748f2acd4a673f2d851a30949975b033a301830eacd1c262687b789d",
      "transactionType": "CALL",
      "contractName": null,
      "contractAddress": "0xbf4a322f1496e5c3d34a9bcdb4c60567b38c7de2",
      "function": "buy(address)",
      "arguments": [
        "0xC77f7fed3b5Cc8249aDc428c5F44C9063B9734b4"
      ],
      "transaction": {
        "from": "0xc77f7fed3b5cc8249adc428c5f44c9063b9734b4",
        "to": "0xbf4a322f1496e5c3d34a9bcdb4c60567b38c7de2",
        "gas": "0x1b309",
        "value": "0xde0b6b3a7640000",
        "input": "0xf088d547000000000000000000000000c77f7fed3b5cc8249adc428c5f44c9063b9734b4",
        "nonce": "0xd6a",
        "chainId": "0xaa36a7"
      },
      "additionalContracts": [],
      "isFixedGasLimit": false
    }
  ],
  "receipts": [
    {
      "status": "0x1",
      "cumulativeGasUsed": "0x195124a",
      "logs": [
        {
          "address": "0xbf4a322f1496e5c3d34a9bcdb4c60567b38c7de2",
          "topics": [
            "0xddf252ad1be2c89b69c2b068fc378daa952ba7f163c4a11628f55a4df523b3ef",
            "0x0000000000000000000000000000000000000000000000000000000000000000",
            "0x000000000000000000000000c77f7fed3b5cc8249adc428c5f44c9063b9734b4"
          ],
          "data": "0x000000000000000000000000000000000000000000000034b868a6cb25554103",
          "blockHash": "0x1522d2b42762b80d373742d7fffe0660f0dc98de23bc9077d0ea29dc98a834f3",
          "blockNumber": "0x726611",
          "transactionHash": "0xb20b31cb748f2acd4a673f2d851a30949975b033a301830eacd1c262687b789d",
          "transactionIndex": "0xbd",
          "logIndex": "0x12a",
          "removed": false
        },
        {
          "address": "0xbf4a322f1496e5c3d34a9bcdb4c60567b38c7de2",
          "topics": [
            "0xddf252ad1be2c89b69c2b068fc378daa952ba7f163c4a11628f55a4df523b3ef",
            "0x0000000000000000000000000000000000000000000000000000000000000000",
            "0x000000000000000000000000c77f7fed3b5cc8249adc428c5f44c9063b9734b4"
          ],
          "data": "0x00000000000000000000000000000000000000000000000028f06bfa6f5c0983",
          "blockHash": "0x1522d2b42762b80d373742d7fffe0660f0dc98de23bc9077d0ea29dc98a834f3",
          "blockNumber": "0x726611",
          "transactionHash": "0xb20b31cb748f2acd4a673f2d851a30949975b033a301830eacd1c262687b789d",
          "transactionIndex": "0xbd",
          "logIndex": "0x12b",
          "removed": false
        },
        {
          "address": "0xbf4a322f1496e5c3d34a9bcdb4c60567b38c7de2",
          "topics": [
            "0x4afcb4a87cdbd9974efdb92ee48bc8d7cd0ae4bf217004db3d080cbaee652ca7"
          ],
          "data": "0x000000000000000000000000000000000000000000000000000000006787bb7c00000000000000000000000000000000000000000000000000039dda286290fb0000000000000000000000000000000000000000000000000de0b6b3a7640000",
          "blockHash": "0x1522d2b42762b80d373742d7fffe0660f0dc98de23bc9077d0ea29dc98a834f3",
          "blockNumber": "0x726611",
          "transactionHash": "0xb20b31cb748f2acd4a673f2d851a30949975b033a301830eacd1c262687b789d",
          "transactionIndex": "0xbd",
          "logIndex": "0x12c",
          "removed": false
        }
      ],
      "logsBloom": "0x00000000000000000000000000000000000000000000000000000000000000000000000000000000000000000000000000000000000000004000000000000000000000000000000000000008000000000000001000000000000000000000000000000000020000000000000000000800020000000000000000000010000000000000000000000000000000000000000000000000000008000000010000000000000000000000000000000000000000004000000000000000000000000000000000000002000000800000000000001000000000000000080000000000000020000000000000000000000000000000000000000000000000000000000000000000",
      "type": "0x2",
      "transactionHash": "0xb20b31cb748f2acd4a673f2d851a30949975b033a301830eacd1c262687b789d",
      "transactionIndex": "0xbd",
      "blockHash": "0x1522d2b42762b80d373742d7fffe0660f0dc98de23bc9077d0ea29dc98a834f3",
      "blockNumber": "0x726611",
      "gasUsed": "0x13af6",
      "effectiveGasPrice": "0x70ed53b3",
      "from": "0xc77f7fed3b5cc8249adc428c5f44c9063b9734b4",
      "to": "0xbf4a322f1496e5c3d34a9bcdb4c60567b38c7de2",
      "contractAddress": null
    }
  ],
  "libraries": [],
  "pending": [],
  "returns": {},
  "timestamp": 1736948605,
  "chain": 11155111,
  "commit": "51a374b"
}