{
  "transactions": [
    {
      "hash": "0xa459184371a4858d4c255008ffa20f9051002c56ac78d8b200321b189d80e41d",
      "transactionType": "CALL",
      "contractName": null,
      "contractAddress": "0x270e88f8683660553e8ba4eb2ad7c91a1710d769",
      "function": "sell(uint256)",
      "arguments": [
        "711414585705965237311"
      ],
      "transaction": {
        "from": "0xc77f7fed3b5cc8249adc428c5f44c9063b9734b4",
        "to": "0x270e88f8683660553e8ba4eb2ad7c91a1710d769",
        "gas": "0x16fec",
        "value": "0x0",
        "input": "0xe4849b3200000000000000000000000000000000000000000000002690dc5476abbf343f",
        "nonce": "0x88a",
        "chainId": "0xaa36a7"
      },
      "additionalContracts": [],
      "isFixedGasLimit": false
    }
  ],
  "receipts": [
    {
      "status": "0x1",
      "cumulativeGasUsed": "0x9d8d91",
      "logs": [
        {
          "address": "0x270e88f8683660553e8ba4eb2ad7c91a1710d769",
          "topics": [
            "0xddf252ad1be2c89b69c2b068fc378daa952ba7f163c4a11628f55a4df523b3ef",
            "0x000000000000000000000000c77f7fed3b5cc8249adc428c5f44c9063b9734b4",
            "0x0000000000000000000000000000000000000000000000000000000000000000"
          ],
          "data": "0x00000000000000000000000000000000000000000000002690dc5476abbf343f",
          "blockHash": "0xba5bb259f7884d3b5cce3dea4e62a26953f29a8f884237e93230506ebdc3690c",
          "blockNumber": "0x7255e6",
          "transactionHash": "0xa459184371a4858d4c255008ffa20f9051002c56ac78d8b200321b189d80e41d",
          "transactionIndex": "0x3a",
          "logIndex": "0x106",
          "removed": false
        },
        {
          "address": "0x270e88f8683660553e8ba4eb2ad7c91a1710d769",
          "topics": [
            "0x4afcb4a87cdbd9974efdb92ee48bc8d7cd0ae4bf217004db3d080cbaee652ca7"
          ],
          "data": "0x000000000000000000000000000000000000000000000000000000006786f8d00000000000000000000000000000000000000000000000000004f5c77624c7280000000000000000000000000000000000000000000000000dc8258a43e1b37d",
          "blockHash": "0xba5bb259f7884d3b5cce3dea4e62a26953f29a8f884237e93230506ebdc3690c",
          "blockNumber": "0x7255e6",
          "transactionHash": "0xa459184371a4858d4c255008ffa20f9051002c56ac78d8b200321b189d80e41d",
          "transactionIndex": "0x3a",
          "logIndex": "0x107",
          "removed": false
        }
      ],
      "logsBloom": "0x00000000000000000000000000000000000000000000000000000000000000000000000000000000000000000000000020000000000000004000000000000000000000000000000000000008000000000000000000000000000000000000000000000000020000000000000000000800020000000000000000000010000000000000000000010000000000000000000000000000000000000000010000000000000000000000000000000000000000004000000000000000000000000000000000000002000000800000000000000000000000000000080000008000000020000000000000000000000000000000000000000000000000000000000000000000",
      "type": "0x2",
      "transactionHash": "0xa459184371a4858d4c255008ffa20f9051002c56ac78d8b200321b189d80e41d",
      "transactionIndex": "0x3a",
      "blockHash": "0xba5bb259f7884d3b5cce3dea4e62a26953f29a8f884237e93230506ebdc3690c",
      "blockNumber": "0x7255e6",
      "gasUsed": "0xfb93",
      "effectiveGasPrice": "0xe934320f",
      "from": "0xc77f7fed3b5cc8249adc428c5f44c9063b9734b4",
      "to": "0x270e88f8683660553e8ba4eb2ad7c91a1710d769",
      "contractAddress": null
    }
  ],
  "libraries": [],
  "pending": [],
  "returns": {},
  "timestamp": 1736898770,
  "chain": 11155111,
  "commit": "51a374b"
}