{
  "transactions": [
    {
      "hash": "0xefd8eccb0e4a0ca37f7cd53129fa31544af8844e31d35818dd3362cf3f4d9695",
      "transactionType": "CALL",
      "contractName": null,
      "contractAddress": "0xbf4a322f1496e5c3d34a9bcdb4c60567b38c7de2",
      "function": "sell(uint256)",
      "arguments": [
        "973848486767538654779"
      ],
      "transaction": {
        "from": "0xc77f7fed3b5cc8249adc428c5f44c9063b9734b4",
        "to": "0xbf4a322f1496e5c3d34a9bcdb4c60567b38c7de2",
        "gas": "0x16fea",
        "value": "0x0",
        "input": "0xe4849b32000000000000000000000000000000000000000000000034cadcd70b6ed6ce3b",
        "nonce": "0xde5",
        "chainId": "0xaa36a7"
      },
      "additionalContracts": [],
      "isFixedGasLimit": false
    }
  ],
  "receipts": [
    {
      "status": "0x1",
      "cumulativeGasUsed": "0xd27fbf",
      "logs": [
        {
          "address": "0xbf4a322f1496e5c3d34a9bcdb4c60567b38c7de2",
          "topics": [
            "0xddf252ad1be2c89b69c2b068fc378daa952ba7f163c4a11628f55a4df523b3ef",
            "0x000000000000000000000000c77f7fed3b5cc8249adc428c5f44c9063b9734b4",
            "0x0000000000000000000000000000000000000000000000000000000000000000"
          ],
          "data": "0x000000000000000000000000000000000000000000000034cadcd70b6ed6ce3b",
          "blockHash": "0x1234d1f7341307825fea7ef0a25e22b648a660639e937ef7843bfe9d5acaa940",
          "blockNumber": "0x7266c4",
          "transactionHash": "0xefd8eccb0e4a0ca37f7cd53129fa31544af8844e31d35818dd3362cf3f4d9695",
          "transactionIndex": "0x4e",
          "logIndex": "0x7e",
          "removed": false
        },
        {
          "address": "0xbf4a322f1496e5c3d34a9bcdb4c60567b38c7de2",
          "topics": [
            "0x4afcb4a87cdbd9974efdb92ee48bc8d7cd0ae4bf217004db3d080cbaee652ca7"
          ],
          "data": "0x000000000000000000000000000000000000000000000000000000006787c43400000000000000000000000000000000000000000000000000039f68a0bb87d90000000000000000000000000000000000000000000000000dc7e3d3c383d79f",
          "blockHash": "0x1234d1f7341307825fea7ef0a25e22b648a660639e937ef7843bfe9d5acaa940",
          "blockNumber": "0x7266c4",
          "transactionHash": "0xefd8eccb0e4a0ca37f7cd53129fa31544af8844e31d35818dd3362cf3f4d9695",
          "transactionIndex": "0x4e",
          "logIndex": "0x7f",
          "removed": false
        }
      ],
      "logsBloom": "0x00000000000000000000000000000000000000000000000000000000000000000000000000000000000000000000000000000000000000004000000000000000000000000000000000000008000000000000001000000000000000000000000000000000020000000000000000000800020000000000000000000010000000000000000000000000000000000000000000000000000008000000010000000000000000000000000000000000000000004000000000000000000000000000000000000002000000800000000000001000000000000000080000000000000020000000000000000000000000000000000000000000000000000000000000000000",
      "type": "0x2",
      "transactionHash": "0xefd8eccb0e4a0ca37f7cd53129fa31544af8844e31d35818dd3362cf3f4d9695",
      "transactionIndex": "0x4e",
      "blockHash": "0x1234d1f7341307825fea7ef0a25e22b648a660639e937ef7843bfe9d5acaa940",
      "blockNumber": "0x7266c4",
      "gasUsed": "0xfb91",
      "effectiveGasPrice": "0x252fa01d7",
      "from": "0xc77f7fed3b5cc8249adc428c5f44c9063b9734b4",
      "to": "0xbf4a322f1496e5c3d34a9bcdb4c60567b38c7de2",
      "contractAddress": null
    }
  ],
  "libraries": [],
  "pending": [],
  "returns": {},
  "timestamp": 1736950838,
  "chain": 11155111,
  "commit": "51a374b"
}