{
  "transactions": [
    {
      "hash": "0x6f9f2aa3ddce7bdc996a0e0643d6a95b2198b0d30ef5e23ede3103ca3c839114",
      "transactionType": "CALL",
      "contractName": null,
      "contractAddress": "0xbf4a322f1496e5c3d34a9bcdb4c60567b38c7de2",
      "function": "sell(uint256)",
      "arguments": [
        "984816107410311046614"
      ],
      "transaction": {
        "from": "0xc77f7fed3b5cc8249adc428c5f44c9063b9734b4",
        "to": "0xbf4a322f1496e5c3d34a9bcdb4c60567b38c7de2",
        "gas": "0x16fea",
        "value": "0x0",
        "input": "0xe4849b320000000000000000000000000000000000000000000000356311a7e90a8765d6",
        "nonce": "0xab3",
        "chainId": "0xaa36a7"
      },
      "additionalContracts": [],
      "isFixedGasLimit": false
    }
  ],
  "receipts": [
    {
      "status": "0x1",
      "cumulativeGasUsed": "0xd6228b",
      "logs": [
        {
          "address": "0xbf4a322f1496e5c3d34a9bcdb4c60567b38c7de2",
          "topics": [
            "0xddf252ad1be2c89b69c2b068fc378daa952ba7f163c4a11628f55a4df523b3ef",
            "0x000000000000000000000000c77f7fed3b5cc8249adc428c5f44c9063b9734b4",
            "0x0000000000000000000000000000000000000000000000000000000000000000"
          ],
          "data": "0x0000000000000000000000000000000000000000000000356311a7e90a8765d6",
          "blockHash": "0x14a7e44929b813496bd283e539992fc9fc632114bf8464482e85fc71cff49f92",
          "blockNumber": "0x725a9e",
          "transactionHash": "0x6f9f2aa3ddce7bdc996a0e0643d6a95b2198b0d30ef5e23ede3103ca3c839114",
          "transactionIndex": "0x65",
          "logIndex": "0x93",
          "removed": false
        },
        {
          "address": "0xbf4a322f1496e5c3d34a9bcdb4c60567b38c7de2",
          "topics": [
            "0x4afcb4a87cdbd9974efdb92ee48bc8d7cd0ae4bf217004db3d080cbaee652ca7"
          ],
          "data": "0x00000000000000000000000000000000000000000000000000000000678731b800000000000000000000000000000000000000000000000000039514a84ef4b50000000000000000000000000000000000000000000000000dc7e3ed438b62eb",
          "blockHash": "0x14a7e44929b813496bd283e539992fc9fc632114bf8464482e85fc71cff49f92",
          "blockNumber": "0x725a9e",
          "transactionHash": "0x6f9f2aa3ddce7bdc996a0e0643d6a95b2198b0d30ef5e23ede3103ca3c839114",
          "transactionIndex": "0x65",
          "logIndex": "0x94",
          "removed": false
        }
      ],
      "logsBloom": "0x00000000000000000000000000000000000000000000000000000000000000000000000000000000000000000000000000000000000000004000000000000000000000000000000000000008000000000000001000000000000000000000000000000000020000000000000000000800020000000000000000000010000000000000000000000000000000000000000000000000000008000000010000000000000000000000000000000000000000004000000000000000000000000000000000000002000000800000000000001000000000000000080000000000000020000000000000000000000000000000000000000000000000000000000000000000",
      "type": "0x2",
      "transactionHash": "0x6f9f2aa3ddce7bdc996a0e0643d6a95b2198b0d30ef5e23ede3103ca3c839114",
      "transactionIndex": "0x65",
      "blockHash": "0x14a7e44929b813496bd283e539992fc9fc632114bf8464482e85fc71cff49f92",
      "blockNumber": "0x725a9e",
      "gasUsed": "0xfb91",
      "effectiveGasPrice": "0x15cd19b46",
      "from": "0xc77f7fed3b5cc8249adc428c5f44c9063b9734b4",
      "to": "0xbf4a322f1496e5c3d34a9bcdb4c60567b38c7de2",
      "contractAddress": null
    }
  ],
  "libraries": [],
  "pending": [],
  "returns": {},
  "timestamp": 1736913338,
  "chain": 11155111,
  "commit": "51a374b"
}