{
  "transactions": [
    {
      "hash": "0x78156f177ef3c8737920e6be8718b9ed2d16af427ecabc4e744e3022e8008125",
      "transactionType": "CALL",
      "contractName": null,
      "contractAddress": "0x270e88f8683660553e8ba4eb2ad7c91a1710d769",
      "function": "buy(address)",
      "arguments": [
        "0xC77f7fed3b5Cc8249aDc428c5F44C9063B9734b4"
      ],
      "transaction": {
        "from": "0xc77f7fed3b5cc8249adc428c5f44c9063b9734b4",
        "to": "0x270e88f8683660553e8ba4eb2ad7c91a1710d769",
        "gas": "0x1b30c",
        "value": "0xde0b6b3a7640000",
        "input": "0xf088d547000000000000000000000000c77f7fed3b5cc8249adc428c5f44c9063b9734b4",
        "nonce": "0x5ca",
        "chainId": "0xaa36a7"
      },
      "additionalContracts": [],
      "isFixedGasLimit": false
    }
  ],
  "receipts": [
    {
      "status": "0x1",
      "cumulativeGasUsed": "0xb6d300",
      "logs": [
        {
          "address": "0x270e88f8683660553e8ba4eb2ad7c91a1710d769",
          "topics": [
            "0xddf252ad1be2c89b69c2b068fc378daa952ba7f163c4a11628f55a4df523b3ef",
            "0x0000000000000000000000000000000000000000000000000000000000000000",
            "0x000000000000000000000000c77f7fed3b5cc8249adc428c5f44c9063b9734b4"
          ],
          "data": "0x000000000000000000000000000000000000000000000033a01c19fba7d5524c",
          "blockHash": "0x77b367a0074d0f238565eb7976bc34141a21694e5a1e5f2904e244504e92140f",
          "blockNumber": "0x725289",
          "transactionHash": "0x78156f177ef3c8737920e6be8718b9ed2d16af427ecabc4e744e3022e8008125",
          "transactionIndex": "0x63",
          "logIndex": "0xe8",
          "removed": false
        },
        {
          "address": "0x270e88f8683660553e8ba4eb2ad7c91a1710d769",
          "topics": [
            "0xddf252ad1be2c89b69c2b068fc378daa952ba7f163c4a11628f55a4df523b3ef",
            "0x0000000000000000000000000000000000000000000000000000000000000000",
            "0x000000000000000000000000c77f7fed3b5cc8249adc428c5f44c9063b9734b4"
          ],
          "data": "0x0000000000000000000000000000000000000000000000002816c291cdecf83e",
          "blockHash": "0x77b367a0074d0f238565eb7976bc34141a21694e5a1e5f2904e244504e92140f",
          "blockNumber": "0x725289",
          "transactionHash": "0x78156f177ef3c8737920e6be8718b9ed2d16af427ecabc4e744e3022e8008125",
          "transactionIndex": "0x63",
          "logIndex": "0xe9",
          "removed": false
        },
        {
          "address": "0x270e88f8683660553e8ba4eb2ad7c91a1710d769",
          "topics": [
            "0x4afcb4a87cdbd9974efdb92ee48bc8d7cd0ae4bf217004db3d080cbaee652ca7"
          ],
          "data": "0x000000000000000000000000000000000000000000000000000000006786d05c0000000000000000000000000000000000000000000000000003b195660c75c30000000000000000000000000000000000000000000000000de0b6b3a7640000",
          "blockHash": "0x77b367a0074d0f238565eb7976bc34141a21694e5a1e5f2904e244504e92140f",
          "blockNumber": "0x725289",
          "transactionHash": "0x78156f177ef3c8737920e6be8718b9ed2d16af427ecabc4e744e3022e8008125",
          "transactionIndex": "0x63",
          "logIndex": "0xea",
          "removed": false
        }
      ],
      "logsBloom": "0x00000000000000000000000000000000000000000000000000000000000000000000000000000000000000000000000020000000000000004000000000000000000000000000000000000008000000000000000000000000000000000000000000000000020000000000000000000800020000000000000000000010000000000000000000010000000000000000000000000000000000000000010000000000000000000000000000000000000000004000000000000000000000000000000000000002000000800000000000000000000000000000080000008000000020000000000000000000000000000000000000000000000000000000000000000000",
      "type": "0x2",
      "transactionHash": "0x78156f177ef3c8737920e6be8718b9ed2d16af427ecabc4e744e3022e8008125",
      "transactionIndex": "0x63",
      "blockHash": "0x77b367a0074d0f238565eb7976bc34141a21694e5a1e5f2904e244504e92140f",
      "blockNumber": "0x725289",
      "gasUsed": "0x13af8",
      "effectiveGasPrice": "0x3f1ea9f83",
      "from": "0xc77f7fed3b5cc8249adc428c5f44c9063b9734b4",
      "to": "0x270e88f8683660553e8ba4eb2ad7c91a1710d769",
      "contractAddress": null
    }
  ],
  "libraries": [],
  "pending": [],
  "returns": {},
  "timestamp": 1736888413,
  "chain": 11155111,
  "commit": "51a374b"
}