{
  "transactions": [
    {
      "hash": "0x17e2502cc39ac23287284dba02ee0a8c6643893cab7d8b11cd15b269060daa17",
      "transactionType": "CALL",
      "contractName": null,
      "contractAddress": "0x8aafd3ede9adb0ff97c7aebce82a919afb1c8764",
      "function": "sell(uint256)",
      "arguments": [
        "5996520054670790802"
      ],
      "transaction": {
        "from": "0xc77f7fed3b5cc8249adc428c5f44c9063b9734b4",
        "to": "0x8aafd3ede9adb0ff97c7aebce82a919afb1c8764",
        "gas": "0x15dca",
        "value": "0x0",
        "input": "0xe4849b320000000000000000000000000000000000000000000000005337eb3803289092",
        "nonce": "0xe6b",
        "chainId": "0xaa36a7"
      },
      "additionalContracts": [],
      "isFixedGasLimit": false
    }
  ],
  "receipts": [
    {
      "status": "0x1",
      "cumulativeGasUsed": "0xc78863",
      "logs": [
        {
          "address": "0x8aafd3ede9adb0ff97c7aebce82a919afb1c8764",
          "topics": [
            "0xddf252ad1be2c89b69c2b068fc378daa952ba7f163c4a11628f55a4df523b3ef",
            "0x000000000000000000000000c77f7fed3b5cc8249adc428c5f44c9063b9734b4",
            "0x0000000000000000000000000000000000000000000000000000000000000000"
          ],
          "data": "0x000000000000000000000000000000000000000000000000528d7ccb052e625c",
          "blockHash": "0xd963066a12a0b7e475c75879580605c0414ff7fad6ac7ba9d299c81abb50674e",
          "blockNumber": "0x7313c1",
          "transactionHash": "0x17e2502cc39ac23287284dba02ee0a8c6643893cab7d8b11cd15b269060daa17",
          "transactionIndex": "0x7f",
          "logIndex": "0xff",
          "removed": false
        },
        {
          "address": "0x8aafd3ede9adb0ff97c7aebce82a919afb1c8764",
          "topics": [
            "0xddf252ad1be2c89b69c2b068fc378daa952ba7f163c4a11628f55a4df523b3ef",
            "0x000000000000000000000000c77f7fed3b5cc8249adc428c5f44c9063b9734b4",
            "0x000000000000000000000000c77f7fed3b5cc8249adc428c5f44c9063b9734b4"
          ],
          "data": "0x00000000000000000000000000000000000000000000000000aa6e6cfdfa2e36",
          "blockHash": "0xd963066a12a0b7e475c75879580605c0414ff7fad6ac7ba9d299c81abb50674e",
          "blockNumber": "0x7313c1",
          "transactionHash": "0x17e2502cc39ac23287284dba02ee0a8c6643893cab7d8b11cd15b269060daa17",
          "transactionIndex": "0x7f",
          "logIndex": "0x100",
          "removed": false
        },
        {
          "address": "0x8aafd3ede9adb0ff97c7aebce82a919afb1c8764",
          "topics": [
            "0x4afcb4a87cdbd9974efdb92ee48bc8d7cd0ae4bf217004db3d080cbaee652ca7"
          ],
          "data": "0x00000000000000000000000000000000000000000000000000000000678fe9a00000000000000000000000000000000000000000000000000004b54a04047f9d000000000000000000000000000000000000000000000000001c3b86bcfc90b5",
          "blockHash": "0xd963066a12a0b7e475c75879580605c0414ff7fad6ac7ba9d299c81abb50674e",
          "blockNumber": "0x7313c1",
          "transactionHash": "0x17e2502cc39ac23287284dba02ee0a8c6643893cab7d8b11cd15b269060daa17",
          "transactionIndex": "0x7f",
          "logIndex": "0x101",
          "removed": false
        }
      ],
      "logsBloom": "0x00000000000000000000000000000000000000000600000000000000000000000000000000000000000000000000000000000000000000004000000000000000000000000000004000000008000000000000000000000000000000000000000000000000020000000000000000000800020000000000000000000010000000000000000000000000000000000000000000000000000000000000010000000000000000000000000000000000000000004000000000000000000000000000000000000002000000800000000000000000000000000000080000000000000020000000000000000000000000000000000000000000000000000000000000000000",
      "type": "0x2",
      "transactionHash": "0x17e2502cc39ac23287284dba02ee0a8c6643893cab7d8b11cd15b269060daa17",
      "transactionIndex": "0x7f",
      "blockHash": "0xd963066a12a0b7e475c75879580605c0414ff7fad6ac7ba9d299c81abb50674e",
      "blockNumber": "0x7313c1",
      "gasUsed": "0xfd3f",
      "effectiveGasPrice": "0x76e8b992",
      "from": "0xc77f7fed3b5cc8249adc428c5f44c9063b9734b4",
      "to": "0x8aafd3ede9adb0ff97c7aebce82a919afb1c8764",
      "contractAddress": null
    }
  ],
  "libraries": [],
  "pending": [],
  "returns": {},
  "timestamp": 1737484705,
  "chain": 11155111,
  "commit": "51a374b"
}