{
  "transactions": [
    {
      "hash": "0x759fffc281661ab9477681bb7d0c3be5c1be30e4fd73c333ae580b442e4ca491",
      "transactionType": "CALL",
      "contractName": null,
      "contractAddress": "0x8aafd3ede9adb0ff97c7aebce82a919afb1c8764",
      "function": "buy(address)",
      "arguments": [
        "0xC77f7fed3b5Cc8249aDc428c5F44C9063B9734b4"
      ],
      "transaction": {
        "from": "0xc77f7fed3b5cc8249adc428c5f44c9063b9734b4",
        "to": "0x8aafd3ede9adb0ff97c7aebce82a919afb1c8764",
        "gas": "0x156ea",
        "value": "0xde0b6b3a7640000",
        "input": "0xf088d547000000000000000000000000c77f7fed3b5cc8249adc428c5f44c9063b9734b4",
        "nonce": "0xe69",
        "chainId": "0xaa36a7"
      },
      "additionalContracts": [],
      "isFixedGasLimit": false
    }
  ],
  "receipts": [
    {
      "status": "0x1",
      "cumulativeGasUsed": "0xbf5d34",
      "logs": [
        {
          "address": "0x8aafd3ede9adb0ff97c7aebce82a919afb1c8764",
          "topics": [
            "0xddf252ad1be2c89b69c2b068fc378daa952ba7f163c4a11628f55a4df523b3ef",
            "0x0000000000000000000000000000000000000000000000000000000000000000",
            "0x000000000000000000000000c77f7fed3b5cc8249adc428c5f44c9063b9734b4"
          ],
          "data": "0x00000000000000000000000000000000000000000000002882d88991a7c67aa0",
          "blockHash": "0xa6062ca5f79ce72f54f7a5d660af111006cf3c57b05cdd36c432874b52887c70",
          "blockNumber": "0x7313bf",
          "transactionHash": "0x759fffc281661ab9477681bb7d0c3be5c1be30e4fd73c333ae580b442e4ca491",
          "transactionIndex": "0x7f",
          "logIndex": "0x9a",
          "removed": false
        },
        {
          "address": "0x8aafd3ede9adb0ff97c7aebce82a919afb1c8764",
          "topics": [
            "0xddf252ad1be2c89b69c2b068fc378daa952ba7f163c4a11628f55a4df523b3ef",
            "0x0000000000000000000000000000000000000000000000000000000000000000",
            "0x000000000000000000000000c77f7fed3b5cc8249adc428c5f44c9063b9734b4"
          ],
          "data": "0x0000000000000000000000000000000000000000000000001f7550c7e3081c73",
          "blockHash": "0xa6062ca5f79ce72f54f7a5d660af111006cf3c57b05cdd36c432874b52887c70",
          "blockNumber": "0x7313bf",
          "transactionHash": "0x759fffc281661ab9477681bb7d0c3be5c1be30e4fd73c333ae580b442e4ca491",
          "transactionIndex": "0x7f",
          "logIndex": "0x9b",
          "removed": false
        },
        {
          "address": "0x8aafd3ede9adb0ff97c7aebce82a919afb1c8764",
          "topics": [
            "0x4afcb4a87cdbd9974efdb92ee48bc8d7cd0ae4bf217004db3d080cbaee652ca7"
          ],
          "data": "0x00000000000000000000000000000000000000000000000000000000678fe9880000000000000000000000000000000000000000000000000004b4fe4c16cc2d0000000000000000000000000000000000000000000000000de0b6b3a7640000",
          "blockHash": "0xa6062ca5f79ce72f54f7a5d660af111006cf3c57b05cdd36c432874b52887c70",
          "blockNumber": "0x7313bf",
          "transactionHash": "0x759fffc281661ab9477681bb7d0c3be5c1be30e4fd73c333ae580b442e4ca491",
          "transactionIndex": "0x7f",
          "logIndex": "0x9c",
          "removed": false
        }
      ],
      "logsBloom": "0x00000000000000000000000000000000000000000600000000000000000000000000000000000000000000000000000000000000000000004000000000000000000000000000004000000008000000000000000000000000000000000000000000000000020000000000000000000800020000000000000000000010000000000000000000000000000000000000000000000000000000000000010000000000000000000000000000000000000000004000000000000000000000000000000000000002000000800000000000000000000000000000080000000000000020000000000000000000000000000000000000000000000000000000000000000000",
      "type": "0x2",
      "transactionHash": "0x759fffc281661ab9477681bb7d0c3be5c1be30e4fd73c333ae580b442e4ca491",
      "transactionIndex": "0x7f",
      "blockHash": "0xa6062ca5f79ce72f54f7a5d660af111006cf3c57b05cdd36c432874b52887c70",
      "blockNumber": "0x7313bf",
      "gasUsed": "0xf844",
      "effectiveGasPrice": "0x74f839c9",
      "from": "0xc77f7fed3b5cc8249adc428c5f44c9063b9734b4",
      "to": "0x8aafd3ede9adb0ff97c7aebce82a919afb1c8764",
      "contractAddress": null
    }
  ],
  "libraries": [],
  "pending": [],
  "returns": {},
  "timestamp": 1737484682,
  "chain": 11155111,
  "commit": "51a374b"
}