{
  "transactions": [
    {
      "hash": "0xfe8e5b436bb0c57df3b63540aeddda7ad0030cba945feaf9195f184e991dda45",
      "transactionType": "CALL",
      "contractName": null,
      "contractAddress": "0x5eb9cc76c3506942c1c0ead70e877dd5e4f00cb0",
      "function": "sell(uint256)",
      "arguments": [
        "989159600817828165198"
      ],
      "transaction": {
        "from": "0xc77f7fed3b5cc8249adc428c5f44c9063b9734b4",
        "to": "0x5eb9cc76c3506942c1c0ead70e877dd5e4f00cb0",
        "gas": "0x16fec",
        "value": "0x0",
        "input": "0xe4849b320000000000000000000000000000000000000000000000359f58d826d1d6764e",
        "nonce": "0x28b",
        "chainId": "0xaa36a7"
      },
      "additionalContracts": [],
      "isFixedGasLimit": false
    }
  ],
  "receipts": [
    {
      "status": "0x1",
      "cumulativeGasUsed": "0xf2a3bc",
      "logs": [
        {
          "address": "0x5eb9cc76c3506942c1c0ead70e877dd5e4f00cb0",
          "topics": [
            "0xddf252ad1be2c89b69c2b068fc378daa952ba7f163c4a11628f55a4df523b3ef",
            "0x000000000000000000000000c77f7fed3b5cc8249adc428c5f44c9063b9734b4",
            "0x0000000000000000000000000000000000000000000000000000000000000000"
          ],
          "data": "0x0000000000000000000000000000000000000000000000359f58d826d1d6764e",
          "blockHash": "0x963d79fbb37b8048061e8a806f9311095b3333e917df96596aeaf95adafa99c7",
          "blockNumber": "0x724e5a",
          "transactionHash": "0xfe8e5b436bb0c57df3b63540aeddda7ad0030cba945feaf9195f184e991dda45",
          "transactionIndex": "0x97",
          "logIndex": "0xd7",
          "removed": false
        },
        {
          "address": "0x5eb9cc76c3506942c1c0ead70e877dd5e4f00cb0",
          "topics": [
            "0x4afcb4a87cdbd9974efdb92ee48bc8d7cd0ae4bf217004db3d080cbaee652ca7"
          ],
          "data": "0x0000000000000000000000000000000000000000000000000000000067869dec0000000000000000000000000000000000000000000000000003910763436cea0000000000000000000000000000000000000000000000000dc7db133251800b",
          "blockHash": "0x963d79fbb37b8048061e8a806f9311095b3333e917df96596aeaf95adafa99c7",
          "blockNumber": "0x724e5a",
          "transactionHash": "0xfe8e5b436bb0c57df3b63540aeddda7ad0030cba945feaf9195f184e991dda45",
          "transactionIndex": "0x97",
          "logIndex": "0xd8",
          "removed": false
        }
      ],
      "logsBloom": "0x00000000000000000000000000000000000000000000000000000000000000000000000000000000000000000000000000000000000000004000000000000000000000000000000000000008000000000000000000000000000000000000000000000000020000000000000004000800020000000000000000000010000000000000000000000000000000000000000000000000000000000000010000000000000000000000000000000000000000004000000000000000000000000000020000000002000000800000008000000000000000000000080000000000000020000000000000000000000000000000000000000000000000000000000000000000",
      "type": "0x2",
      "transactionHash": "0xfe8e5b436bb0c57df3b63540aeddda7ad0030cba945feaf9195f184e991dda45",
      "transactionIndex": "0x97",
      "blockHash": "0x963d79fbb37b8048061e8a806f9311095b3333e917df96596aeaf95adafa99c7",
      "blockNumber": "0x724e5a",
      "gasUsed": "0xfb93",
      "effectiveGasPrice": "0x3e843dd61",
      "from": "0xc77f7fed3b5cc8249adc428c5f44c9063b9734b4",
      "to": "0x5eb9cc76c3506942c1c0ead70e877dd5e4f00cb0",
      "contractAddress": null
    }
  ],
  "libraries": [],
  "pending": [],
  "returns": {},
  "timestamp": 1736875502,
  "chain": 11155111,
  "commit": "51a374b"
}