{
  "transactions": [
    {
      "hash": "0x696dcc427586078befeafcad2bec7222e57e3e0dd2a46408336a63fced08cba6",
      "transactionType": "CALL",
      "contractName": null,
      "contractAddress": "0x8aafd3ede9adb0ff97c7aebce82a919afb1c8764",
      "function": "sell(uint256)",
      "arguments": [
        "2262392261837002274"
      ],
      "transaction": {
        "from": "0xc77f7fed3b5cc8249adc428c5f44c9063b9734b4",
        "to": "0x8aafd3ede9adb0ff97c7aebce82a919afb1c8764",
        "gas": "0x15dca",
        "value": "0x0",
        "input": "0xe4849b320000000000000000000000000000000000000000000000001f65a1c685631622",
        "nonce": "0x1374",
        "chainId": "0xaa36a7"
      },
      "additionalContracts": [],
      "isFixedGasLimit": false
    }
  ],
  "receipts": [
    {
      "status": "0x1",
      "cumulativeGasUsed": "0x1170e46",
      "logs": [
        {
          "address": "0x8aafd3ede9adb0ff97c7aebce82a919afb1c8764",
          "topics": [
            "0xddf252ad1be2c89b69c2b068fc378daa952ba7f163c4a11628f55a4df523b3ef",
            "0x000000000000000000000000c77f7fed3b5cc8249adc428c5f44c9063b9734b4",
            "0x0000000000000000000000000000000000000000000000000000000000000000"
          ],
          "data": "0x0000000000000000000000000000000000000000000000001f2554b48c830fd0",
          "blockHash": "0xc555adb0aecfdb17e2c26986842ec9bbfea6da057ff185cc06b26f004de9d316",
          "blockNumber": "0x731a96",
          "transactionHash": "0x696dcc427586078befeafcad2bec7222e57e3e0dd2a46408336a63fced08cba6",
          "transactionIndex": "0x95",
          "logIndex": "0xc7",
          "removed": false
        },
        {
          "address": "0x8aafd3ede9adb0ff97c7aebce82a919afb1c8764",
          "topics": [
            "0xddf252ad1be2c89b69c2b068fc378daa952ba7f163c4a11628f55a4df523b3ef",
            "0x000000000000000000000000c77f7fed3b5cc8249adc428c5f44c9063b9734b4",
            "0x000000000000000000000000c77f7fed3b5cc8249adc428c5f44c9063b9734b4"
          ],
          "data": "0x00000000000000000000000000000000000000000000000000404d11f8e00652",
          "blockHash": "0xc555adb0aecfdb17e2c26986842ec9bbfea6da057ff185cc06b26f004de9d316",
          "blockNumber": "0x731a96",
          "transactionHash": "0x696dcc427586078befeafcad2bec7222e57e3e0dd2a46408336a63fced08cba6",
          "transactionIndex": "0x95",
          "logIndex": "0xc8",
          "removed": false
        },
        {
          "address": "0x8aafd3ede9adb0ff97c7aebce82a919afb1c8764",
          "topics": [
            "0x4afcb4a87cdbd9974efdb92ee48bc8d7cd0ae4bf217004db3d080cbaee652ca7"
          ],
          "data": "0x0000000000000000000000000000000000000000000000000000000067903bd8000000000000000000000000000000000000000000000000000c939dfc537f8e000000000000000000000000000000000000000000000000001c73ac7fd59aaf",
          "blockHash": "0xc555adb0aecfdb17e2c26986842ec9bbfea6da057ff185cc06b26f004de9d316",
          "blockNumber": "0x731a96",
          "transactionHash": "0x696dcc427586078befeafcad2bec7222e57e3e0dd2a46408336a63fced08cba6",
          "transactionIndex": "0x95",
          "logIndex": "0xc9",
          "removed": false
        }
      ],
      "logsBloom": "0x00000000000000000000000000000000000000000600000000000000000000000000000000000000000000000000000000000000000000004000000000000000000000000000004000000008000000000000000000000000000000000000000000000000020000000000000000000800020000000000000000000010000000000000000000000000000000000000000000000000000000000000010000000000000000000000000000000000000000004000000000000000000000000000000000000002000000800000000000000000000000000000080000000000000020000000000000000000000000000000000000000000000000000000000000000000",
      "type": "0x2",
      "transactionHash": "0x696dcc427586078befeafcad2bec7222e57e3e0dd2a46408336a63fced08cba6",
      "transactionIndex": "0x95",
      "blockHash": "0xc555adb0aecfdb17e2c26986842ec9bbfea6da057ff185cc06b26f004de9d316",
      "blockNumber": "0x731a96",
      "gasUsed": "0xfd3f",
      "effectiveGasPrice": "0x79ee8d8d",
      "from": "0xc77f7fed3b5cc8249adc428c5f44c9063b9734b4",
      "to": "0x8aafd3ede9adb0ff97c7aebce82a919afb1c8764",
      "contractAddress": null
    }
  ],
  "libraries": [],
  "pending": [],
  "returns": {},
  "timestamp": 1737505753,
  "chain": 11155111,
  "commit": "1d2fb70"
}