{
  "transactions": [
    {
      "hash": "0xae353920b946d07dc9dd1197a2311d217da5f45e022f839b45c982973ba6d268",
      "transactionType": "CALL",
      "contractName": null,
      "contractAddress": "0xbf4a322f1496e5c3d34a9bcdb4c60567b38c7de2",
      "function": "buy(address)",
      "arguments": [
        "0xC77f7fed3b5Cc8249aDc428c5F44C9063B9734b4"
      ],
      "transaction": {
        "from": "0xc77f7fed3b5cc8249adc428c5f44c9063b9734b4",
        "to": "0xbf4a322f1496e5c3d34a9bcdb4c60567b38c7de2",
        "gas": "0x1b309",
        "value": "0xde0b6b3a7640000",
        "input": "0xf088d547000000000000000000000000c77f7fed3b5cc8249adc428c5f44c9063b9734b4",
        "nonce": "0xd2a",
        "chainId": "0xaa36a7"
      },
      "additionalContracts": [],
      "isFixedGasLimit": false
    }
  ],
  "receipts": [
    {
      "status": "0x1",
      "cumulativeGasUsed": "0xe361ca",
      "logs": [
        {
          "address": "0xbf4a322f1496e5c3d34a9bcdb4c60567b38c7de2",
          "topics": [
            "0xddf252ad1be2c89b69c2b068fc378daa952ba7f163c4a11628f55a4df523b3ef",
            "0x0000000000000000000000000000000000000000000000000000000000000000",
            "0x000000000000000000000000c77f7fed3b5cc8249adc428c5f44c9063b9734b4"
          ],
          "data": "0x000000000000000000000000000000000000000000000034c432d2f3ba6490d8",
          "blockHash": "0x755a0c028f1e7aa6a1a9d631358d3760cc950f6e027b21fc20f8e9a7a6a552bf",
          "blockNumber": "0x725d8d",
          "transactionHash": "0xae353920b946d07dc9dd1197a2311d217da5f45e022f839b45c982973ba6d268",
          "transactionIndex": "0x79",
          "logIndex": "0xcd",
          "removed": false
        },
        {
          "address": "0xbf4a322f1496e5c3d34a9bcdb4c60567b38c7de2",
          "topics": [
            "0xddf252ad1be2c89b69c2b068fc378daa952ba7f163c4a11628f55a4df523b3ef",
            "0x0000000000000000000000000000000000000000000000000000000000000000",
            "0x000000000000000000000000c77f7fed3b5cc8249adc428c5f44c9063b9734b4"
          ],
          "data": "0x00000000000000000000000000000000000000000000000028f993b130ef8a28",
          "blockHash": "0x755a0c028f1e7aa6a1a9d631358d3760cc950f6e027b21fc20f8e9a7a6a552bf",
          "blockNumber": "0x725d8d",
          "transactionHash": "0xae353920b946d07dc9dd1197a2311d217da5f45e022f839b45c982973ba6d268",
          "transactionIndex": "0x79",
          "logIndex": "0xce",
          "removed": false
        },
        {
          "address": "0xbf4a322f1496e5c3d34a9bcdb4c60567b38c7de2",
          "topics": [
            "0x4afcb4a87cdbd9974efdb92ee48bc8d7cd0ae4bf217004db3d080cbaee652ca7"
          ],
          "data": "0x000000000000000000000000000000000000000000000000000000006787551000000000000000000000000000000000000000000000000000039d0b4b4faa730000000000000000000000000000000000000000000000000de0b6b3a7640000",
          "blockHash": "0x755a0c028f1e7aa6a1a9d631358d3760cc950f6e027b21fc20f8e9a7a6a552bf",
          "blockNumber": "0x725d8d",
          "transactionHash": "0xae353920b946d07dc9dd1197a2311d217da5f45e022f839b45c982973ba6d268",
          "transactionIndex": "0x79",
          "logIndex": "0xcf",
          "removed": false
        }
      ],
      "logsBloom": "0x00000000000000000000000000000000000000000000000000000000000000000000000000000000000000000000000000000000000000004000000000000000000000000000000000000008000000000000001000000000000000000000000000000000020000000000000000000800020000000000000000000010000000000000000000000000000000000000000000000000000008000000010000000000000000000000000000000000000000004000000000000000000000000000000000000002000000800000000000001000000000000000080000000000000020000000000000000000000000000000000000000000000000000000000000000000",
      "type": "0x2",
      "transactionHash": "0xae353920b946d07dc9dd1197a2311d217da5f45e022f839b45c982973ba6d268",
      "transactionIndex": "0x79",
      "blockHash": "0x755a0c028f1e7aa6a1a9d631358d3760cc950f6e027b21fc20f8e9a7a6a552bf",
      "blockNumber": "0x725d8d",
      "gasUsed": "0x13af6",
      "effectiveGasPrice": "0x25eab8aca",
      "from": "0xc77f7fed3b5cc8249adc428c5f44c9063b9734b4",
      "to": "0xbf4a322f1496e5c3d34a9bcdb4c60567b38c7de2",
      "contractAddress": null
    }
  ],
  "libraries": [],
  "pending": [],
  "returns": {},
  "timestamp": 1736922384,
  "chain": 11155111,
  "commit": "51a374b"
}