{
  "transactions": [
    {
      "hash": "0x2a197e7665852503becb930c29a5ac23c6588669946e449e6af440e3702bf3b4",
      "transactionType": "CALL",
      "contractName": null,
      "contractAddress": "0x270e88f8683660553e8ba4eb2ad7c91a1710d769",
      "function": "sell(uint256)",
      "arguments": [
        "984452091617486716066"
      ],
      "transaction": {
        "from": "0xc77f7fed3b5cc8249adc428c5f44c9063b9734b4",
        "to": "0x270e88f8683660553e8ba4eb2ad7c91a1710d769",
        "gas": "0x16fec",
        "value": "0x0",
        "input": "0xe4849b320000000000000000000000000000000000000000000000355e046979b29a3ca2",
        "nonce": "0x50b",
        "chainId": "0xaa36a7"
      },
      "additionalContracts": [],
      "isFixedGasLimit": false
    }
  ],
  "receipts": [
    {
      "status": "0x1",
      "cumulativeGasUsed": "0x92c504",
      "logs": [
        {
          "address": "0x270e88f8683660553e8ba4eb2ad7c91a1710d769",
          "topics": [
            "0xddf252ad1be2c89b69c2b068fc378daa952ba7f163c4a11628f55a4df523b3ef",
            "0x000000000000000000000000c77f7fed3b5cc8249adc428c5f44c9063b9734b4",
            "0x0000000000000000000000000000000000000000000000000000000000000000"
          ],
          "data": "0x0000000000000000000000000000000000000000000000355e046979b29a3ca2",
          "blockHash": "0x7f0061414e03140cba8d79a1969ad0ef6ee632572bfc202b1dd981e12f682350",
          "blockNumber": "0x7251a0",
          "transactionHash": "0x2a197e7665852503becb930c29a5ac23c6588669946e449e6af440e3702bf3b4",
          "transactionIndex": "0x53",
          "logIndex": "0x8c",
          "removed": false
        },
        {
          "address": "0x270e88f8683660553e8ba4eb2ad7c91a1710d769",
          "topics": [
            "0x4afcb4a87cdbd9974efdb92ee48bc8d7cd0ae4bf217004db3d080cbaee652ca7"
          ],
          "data": "0x000000000000000000000000000000000000000000000000000000006786c564000000000000000000000000000000000000000000000000000395afe32a8be90000000000000000000000000000000000000000000000000dc841b29da7bd55",
          "blockHash": "0x7f0061414e03140cba8d79a1969ad0ef6ee632572bfc202b1dd981e12f682350",
          "blockNumber": "0x7251a0",
          "transactionHash": "0x2a197e7665852503becb930c29a5ac23c6588669946e449e6af440e3702bf3b4",
          "transactionIndex": "0x53",
          "logIndex": "0x8d",
          "removed": false
        }
      ],
      "logsBloom": "0x00000000000000000000000000000000000000000000000000000000000000000000000000000000000000000000000020000000000000004000000000000000000000000000000000000008000000000000000000000000000000000000000000000000020000000000000000000800020000000000000000000010000000000000000000010000000000000000000000000000000000000000010000000000000000000000000000000000000000004000000000000000000000000000000000000002000000800000000000000000000000000000080000008000000020000000000000000000000000000000000000000000000000000000000000000000",
      "type": "0x2",
      "transactionHash": "0x2a197e7665852503becb930c29a5ac23c6588669946e449e6af440e3702bf3b4",
      "transactionIndex": "0x53",
      "blockHash": "0x7f0061414e03140cba8d79a1969ad0ef6ee632572bfc202b1dd981e12f682350",
      "blockNumber": "0x7251a0",
      "gasUsed": "0xfb93",
      "effectiveGasPrice": "0x43c804590",
      "from": "0xc77f7fed3b5cc8249adc428c5f44c9063b9734b4",
      "to": "0x270e88f8683660553e8ba4eb2ad7c91a1710d769",
      "contractAddress": null
    }
  ],
  "libraries": [],
  "pending": [],
  "returns": {},
  "timestamp": 1736885604,
  "chain": 11155111,
  "commit": "51a374b"
}