{
  "transactions": [
    {
      "hash": "0x1ca6cc3e9522b77fd6a5c756bc6b65ed5ecde776e469f257a08f0304a8e040eb",
      "transactionType": "CALL",
      "contractName": null,
      "contractAddress": "0xbf4a322f1496e5c3d34a9bcdb4c60567b38c7de2",
      "function": "sell(uint256)",
      "arguments": [
        "988217515093914771298"
      ],
      "transaction": {
        "from": "0xc77f7fed3b5cc8249adc428c5f44c9063b9734b4",
        "to": "0xbf4a322f1496e5c3d34a9bcdb4c60567b38c7de2",
        "gas": "0x16fea",
        "value": "0x0",
        "input": "0xe4849b320000000000000000000000000000000000000000000000359245e22d58035f62",
        "nonce": "0x9b9",
        "chainId": "0xaa36a7"
      },
      "additionalContracts": [],
      "isFixedGasLimit": false
    }
  ],
  "receipts": [
    {
      "status": "0x1",
      "cumulativeGasUsed": "0xdc6679",
      "logs": [
        {
          "address": "0xbf4a322f1496e5c3d34a9bcdb4c60567b38c7de2",
          "topics": [
            "0xddf252ad1be2c89b69c2b068fc378daa952ba7f163c4a11628f55a4df523b3ef",
            "0x000000000000000000000000c77f7fed3b5cc8249adc428c5f44c9063b9734b4",
            "0x0000000000000000000000000000000000000000000000000000000000000000"
          ],
          "data": "0x0000000000000000000000000000000000000000000000359245e22d58035f62",
          "blockHash": "0x34b97d4b74e567f6593840d5f726be26e177159013404855e4b0b316d157ba66",
          "blockNumber": "0x725964",
          "transactionHash": "0x1ca6cc3e9522b77fd6a5c756bc6b65ed5ecde776e469f257a08f0304a8e040eb",
          "transactionIndex": "0x5a",
          "logIndex": "0xbd",
          "removed": false
        },
        {
          "address": "0xbf4a322f1496e5c3d34a9bcdb4c60567b38c7de2",
          "topics": [
            "0x4afcb4a87cdbd9974efdb92ee48bc8d7cd0ae4bf217004db3d080cbaee652ca7"
          ],
          "data": "0x00000000000000000000000000000000000000000000000000000000678722dc000000000000000000000000000000000000000000000000000391ec99db01690000000000000000000000000000000000000000000000000dc7e3f52c0d628a",
          "blockHash": "0x34b97d4b74e567f6593840d5f726be26e177159013404855e4b0b316d157ba66",
          "blockNumber": "0x725964",
          "transactionHash": "0x1ca6cc3e9522b77fd6a5c756bc6b65ed5ecde776e469f257a08f0304a8e040eb",
          "transactionIndex": "0x5a",
          "logIndex": "0xbe",
          "removed": false
        }
      ],
      "logsBloom": "0x00000000000000000000000000000000000000000000000000000000000000000000000000000000000000000000000000000000000000004000000000000000000000000000000000000008000000000000001000000000000000000000000000000000020000000000000000000800020000000000000000000010000000000000000000000000000000000000000000000000000008000000010000000000000000000000000000000000000000004000000000000000000000000000000000000002000000800000000000001000000000000000080000000000000020000000000000000000000000000000000000000000000000000000000000000000",
      "type": "0x2",
      "transactionHash": "0x1ca6cc3e9522b77fd6a5c756bc6b65ed5ecde776e469f257a08f0304a8e040eb",
      "transactionIndex": "0x5a",
      "blockHash": "0x34b97d4b74e567f6593840d5f726be26e177159013404855e4b0b316d157ba66",
      "blockNumber": "0x725964",
      "gasUsed": "0xfb91",
      "effectiveGasPrice": "0x2974e7823",
      "from": "0xc77f7fed3b5cc8249adc428c5f44c9063b9734b4",
      "to": "0xbf4a322f1496e5c3d34a9bcdb4c60567b38c7de2",
      "contractAddress": null
    }
  ],
  "libraries": [],
  "pending": [],
  "returns": {},
  "timestamp": 1736909533,
  "chain": 11155111,
  "commit": "51a374b"
}