{
  "transactions": [
    {
      "hash": "0xf527f78e75508dd62c2938a08ca67f1db290340440e932d773ef125dffb345dd",
      "transactionType": "CALL",
      "contractName": null,
      "contractAddress": "0x5eb9cc76c3506942c1c0ead70e877dd5e4f00cb0",
      "function": "sell(uint256)",
      "arguments": [
        "989610437521168589369"
      ],
      "transaction": {
        "from": "0xc77f7fed3b5cc8249adc428c5f44c9063b9734b4",
        "to": "0x5eb9cc76c3506942c1c0ead70e877dd5e4f00cb0",
        "gas": "0x16fec",
        "value": "0x0",
        "input": "0xe4849b32000000000000000000000000000000000000000000000035a59a89bea426e239",
        "nonce": "0x26f",
        "chainId": "0xaa36a7"
      },
      "additionalContracts": [],
      "isFixedGasLimit": false
    }
  ],
  "receipts": [
    {
      "status": "0x1",
      "cumulativeGasUsed": "0x16087b5",
      "logs": [
        {
          "address": "0x5eb9cc76c3506942c1c0ead70e877dd5e4f00cb0",
          "topics": [
            "0xddf252ad1be2c89b69c2b068fc378daa952ba7f163c4a11628f55a4df523b3ef",
            "0x000000000000000000000000c77f7fed3b5cc8249adc428c5f44c9063b9734b4",
            "0x0000000000000000000000000000000000000000000000000000000000000000"
          ],
          "data": "0x000000000000000000000000000000000000000000000035a59a89bea426e239",
          "blockHash": "0x7ca46a2b68bedbd8dd3aa050169f66beb9a4f3e1a3d9ce8ff4337e50704e7877",
          "blockNumber": "0x724e36",
          "transactionHash": "0xf527f78e75508dd62c2938a08ca67f1db290340440e932d773ef125dffb345dd",
          "transactionIndex": "0x83",
          "logIndex": "0xd2",
          "removed": false
        },
        {
          "address": "0x5eb9cc76c3506942c1c0ead70e877dd5e4f00cb0",
          "topics": [
            "0x4afcb4a87cdbd9974efdb92ee48bc8d7cd0ae4bf217004db3d080cbaee652ca7"
          ],
          "data": "0x0000000000000000000000000000000000000000000000000000000067869c3c0000000000000000000000000000000000000000000000000003909ce6755bda0000000000000000000000000000000000000000000000000dc7db118373322d",
          "blockHash": "0x7ca46a2b68bedbd8dd3aa050169f66beb9a4f3e1a3d9ce8ff4337e50704e7877",
          "blockNumber": "0x724e36",
          "transactionHash": "0xf527f78e75508dd62c2938a08ca67f1db290340440e932d773ef125dffb345dd",
          "transactionIndex": "0x83",
          "logIndex": "0xd3",
          "removed": false
        }
      ],
      "logsBloom": "0x00000000000000000000000000000000000000000000000000000000000000000000000000000000000000000000000000000000000000004000000000000000000000000000000000000008000000000000000000000000000000000000000000000000020000000000000004000800020000000000000000000010000000000000000000000000000000000000000000000000000000000000010000000000000000000000000000000000000000004000000000000000000000000000020000000002000000800000008000000000000000000000080000000000000020000000000000000000000000000000000000000000000000000000000000000000",
      "type": "0x2",
      "transactionHash": "0xf527f78e75508dd62c2938a08ca67f1db290340440e932d773ef125dffb345dd",
      "transactionIndex": "0x83",
      "blockHash": "0x7ca46a2b68bedbd8dd3aa050169f66beb9a4f3e1a3d9ce8ff4337e50704e7877",
      "blockNumber": "0x724e36",
      "gasUsed": "0xfb93",
      "effectiveGasPrice": "0x315fce114",
      "from": "0xc77f7fed3b5cc8249adc428c5f44c9063b9734b4",
      "to": "0x5eb9cc76c3506942c1c0ead70e877dd5e4f00cb0",
      "contractAddress": null
    }
  ],
  "libraries": [],
  "pending": [],
  "returns": {},
  "timestamp": 1736875070,
  "chain": 11155111,
  "commit": "51a374b"
}