{
  "transactions": [
    {
      "hash": "0x4286731a2ff13a6847cadccceb1a1c9e15e52e681439007e72834f128ff2ea0c",
      "transactionType": "CALL",
      "contractName": null,
      "contractAddress": "0x270e88f8683660553e8ba4eb2ad7c91a1710d769",
      "function": "buy(address)",
      "arguments": [
        "0xC77f7fed3b5Cc8249aDc428c5F44C9063B9734b4"
      ],
      "transaction": {
        "from": "0xc77f7fed3b5cc8249adc428c5f44c9063b9734b4",
        "to": "0x270e88f8683660553e8ba4eb2ad7c91a1710d769",
        "gas": "0x1b30c",
        "value": "0xde0b6b3a7640000",
        "input": "0xf088d547000000000000000000000000c77f7fed3b5cc8249adc428c5f44c9063b9734b4",
        "nonce": "0x67f",
        "chainId": "0xaa36a7"
      },
      "additionalContracts": [],
      "isFixedGasLimit": false
    }
  ],
  "receipts": [
    {
      "status": "0x1",
      "cumulativeGasUsed": "0x626a2a",
      "logs": [
        {
          "address": "0x270e88f8683660553e8ba4eb2ad7c91a1710d769",
          "topics": [
            "0xddf252ad1be2c89b69c2b068fc378daa952ba7f163c4a11628f55a4df523b3ef",
            "0x0000000000000000000000000000000000000000000000000000000000000000",
            "0x000000000000000000000000c77f7fed3b5cc8249adc428c5f44c9063b9734b4"
          ],
          "data": "0x000000000000000000000000000000000000000000000028e9d489b90177c88d",
          "blockHash": "0x8627bbaf7ceec0ceecd6f846fd9cb6688c5b21b0271a50a95237cb0ef168b940",
          "blockNumber": "0x72537e",
          "transactionHash": "0x4286731a2ff13a6847cadccceb1a1c9e15e52e681439007e72834f128ff2ea0c",
          "transactionIndex": "0x42",
          "logIndex": "0x59",
          "removed": false
        },
        {
          "address": "0x270e88f8683660553e8ba4eb2ad7c91a1710d769",
          "topics": [
            "0xddf252ad1be2c89b69c2b068fc378daa952ba7f163c4a11628f55a4df523b3ef",
            "0x0000000000000000000000000000000000000000000000000000000000000000",
            "0x000000000000000000000000c77f7fed3b5cc8249adc428c5f44c9063b9734b4"
          ],
          "data": "0x0000000000000000000000000000000000000000000000001fc549539891f2ad",
          "blockHash": "0x8627bbaf7ceec0ceecd6f846fd9cb6688c5b21b0271a50a95237cb0ef168b940",
          "blockNumber": "0x72537e",
          "transactionHash": "0x4286731a2ff13a6847cadccceb1a1c9e15e52e681439007e72834f128ff2ea0c",
          "transactionIndex": "0x42",
          "logIndex": "0x5a",
          "removed": false
        },
        {
          "address": "0x270e88f8683660553e8ba4eb2ad7c91a1710d769",
          "topics": [
            "0x4afcb4a87cdbd9974efdb92ee48bc8d7cd0ae4bf217004db3d080cbaee652ca7"
          ],
          "data": "0x000000000000000000000000000000000000000000000000000000006786dbf00000000000000000000000000000000000000000000000000004a92197404f320000000000000000000000000000000000000000000000000de0b6b3a7640000",
          "blockHash": "0x8627bbaf7ceec0ceecd6f846fd9cb6688c5b21b0271a50a95237cb0ef168b940",
          "blockNumber": "0x72537e",
          "transactionHash": "0x4286731a2ff13a6847cadccceb1a1c9e15e52e681439007e72834f128ff2ea0c",
          "transactionIndex": "0x42",
          "logIndex": "0x5b",
          "removed": false
        }
      ],
      "logsBloom": "0x00000000000000000000000000000000000000000000000000000000000000000000000000000000000000000000000020000000000000004000000000000000000000000000000000000008000000000000000000000000000000000000000000000000020000000000000000000800020000000000000000000010000000000000000000010000000000000000000000000000000000000000010000000000000000000000000000000000000000004000000000000000000000000000000000000002000000800000000000000000000000000000080000008000000020000000000000000000000000000000000000000000000000000000000000000000",
      "type": "0x2",
      "transactionHash": "0x4286731a2ff13a6847cadccceb1a1c9e15e52e681439007e72834f128ff2ea0c",
      "transactionIndex": "0x42",
      "blockHash": "0x8627bbaf7ceec0ceecd6f846fd9cb6688c5b21b0271a50a95237cb0ef168b940",
      "blockNumber": "0x72537e",
      "gasUsed": "0x13af8",
      "effectiveGasPrice": "0x2498937df",
      "from": "0xc77f7fed3b5cc8249adc428c5f44c9063b9734b4",
      "to": "0x270e88f8683660553e8ba4eb2ad7c91a1710d769",
      "contractAddress": null
    }
  ],
  "libraries": [],
  "pending": [],
  "returns": {},
  "timestamp": 1736891377,
  "chain": 11155111,
  "commit": "51a374b"
}