{
  "transactions": [
    {
      "hash": "0x3b1d5971d46273f3cc3b934a139e4b9436460ed935f638550abb7fd2f5c221d4",
      "transactionType": "CALL",
      "contractName": null,
      "contractAddress": "0xd7bc75898e513accccf720a874d44dab5a4b6223",
      "function": "sell(uint256)",
      "arguments": [
        "9929991875666464346"
      ],
      "transaction": {
        "from": "0xc77f7fed3b5cc8249adc428c5f44c9063b9734b4",
        "to": "0xd7bc75898e513accccf720a874d44dab5a4b6223",
        "gas": "0x15b6b",
        "value": "0x0",
        "input": "0xe4849b3200000000000000000000000000000000000000000000000089ce6affe39d4e5a",
        "nonce": "0xdf",
        "chainId": "0xaa36a7"
      },
      "additionalContracts": [],
      "isFixedGasLimit": false
    }
  ],
  "receipts": [
    {
      "status": "0x1",
      "cumulativeGasUsed": "0x1db0a87",
      "logs": [
        {
          "address": "0xd7bc75898e513accccf720a874d44dab5a4b6223",
          "topics": [
            "0xddf252ad1be2c89b69c2b068fc378daa952ba7f163c4a11628f55a4df523b3ef",
            "0x000000000000000000000000c77f7fed3b5cc8249adc428c5f44c9063b9734b4",
            "0x0000000000000000000000000000000000000000000000000000000000000000"
          ],
          "data": "0x00000000000000000000000000000000000000000000000089ce6affe39d4e5a",
          "blockHash": "0xb9d984ba12ee1bece87fbe54d6673bf624c3df00c1a3105477be71ba3f637aee",
          "blockNumber": "0x72395f",
          "transactionHash": "0x3b1d5971d46273f3cc3b934a139e4b9436460ed935f638550abb7fd2f5c221d4",
          "transactionIndex": "0x3f",
          "logIndex": "0x288",
          "removed": false
        },
        {
          "address": "0xd7bc75898e513accccf720a874d44dab5a4b6223",
          "topics": [
            "0x4afcb4a87cdbd9974efdb92ee48bc8d7cd0ae4bf217004db3d080cbaee652ca7"
          ],
          "data": "0x000000000000000000000000000000000000000000000000000000006785a1bc00000000000000000000000000000000000000000000000000038d7f89fd3c5f0000000000000000000000000000000000000000000000000023474f493d2798",
          "blockHash": "0xb9d984ba12ee1bece87fbe54d6673bf624c3df00c1a3105477be71ba3f637aee",
          "blockNumber": "0x72395f",
          "transactionHash": "0x3b1d5971d46273f3cc3b934a139e4b9436460ed935f638550abb7fd2f5c221d4",
          "transactionIndex": "0x3f",
          "logIndex": "0x289",
          "removed": false
        }
      ],
      "logsBloom": "0x00000000000000000000000000000000000000000000000000000000000000000000000000000000000000000000000000000000000000004000000000000000000000000000000000000008000000000000000000000000000000000000000000000000020000000000000000000800020000000000000000000010000000000000000000000000000000000000000000000000000000000000010000000000000000000000000000000000000000004000001000000000000000000000000000000002000000800000000000004000000000000000080000000000000020000000000000000000000000000000000000000000080000000000000000000000",
      "type": "0x2",
      "transactionHash": "0x3b1d5971d46273f3cc3b934a139e4b9436460ed935f638550abb7fd2f5c221d4",
      "transactionIndex": "0x3f",
      "blockHash": "0xb9d984ba12ee1bece87fbe54d6673bf624c3df00c1a3105477be71ba3f637aee",
      "blockNumber": "0x72395f",
      "gasUsed": "0xfb87",
      "effectiveGasPrice": "0x1bdbd1b8",
      "from": "0xc77f7fed3b5cc8249adc428c5f44c9063b9734b4",
      "to": "0xd7bc75898e513accccf720a874d44dab5a4b6223",
      "contractAddress": null
    }
  ],
  "libraries": [],
  "pending": [],
  "returns": {},
  "timestamp": 1736810941,
  "chain": 11155111,
  "commit": "51a374b"
}