{
  "transactions": [
    {
      "hash": "0x6c33bf63290f3e33e97a5a59643ef46912411f86368b06308c2e81fbfd84723f",
      "transactionType": "CALL",
      "contractName": null,
      "contractAddress": "0x8aafd3ede9adb0ff97c7aebce82a919afb1c8764",
      "function": "sell(uint256)",
      "arguments": [
        "988109440587"
      ],
      "transaction": {
        "from": "0xc77f7fed3b5cc8249adc428c5f44c9063b9734b4",
        "to": "0x8aafd3ede9adb0ff97c7aebce82a919afb1c8764",
        "gas": "0x1722a",
        "value": "0x0",
        "input": "0xe4849b32000000000000000000000000000000000000000000000000000000e60fe9864b",
        "nonce": "0x1434",
        "chainId": "0xaa36a7"
      },
      "additionalContracts": [],
      "isFixedGasLimit": false
    }
  ],
  "receipts": [
    {
      "status": "0x1",
      "cumulativeGasUsed": "0xefa1b7",
      "logs": [
        {
          "address": "0x8aafd3ede9adb0ff97c7aebce82a919afb1c8764",
          "topics": [
            "0xddf252ad1be2c89b69c2b068fc378daa952ba7f163c4a11628f55a4df523b3ef",
            "0x000000000000000000000000c77f7fed3b5cc8249adc428c5f44c9063b9734b4",
            "0x0000000000000000000000000000000000000000000000000000000000000000"
          ],
          "data": "0x000000000000000000000000000000000000000000000000000000e438beb247",
          "blockHash": "0xeb627f6654d0411a0a0836680f0bb331ac57f3acb1545eef78934fe3dfdc6d55",
          "blockNumber": "0x731b72",
          "transactionHash": "0x6c33bf63290f3e33e97a5a59643ef46912411f86368b06308c2e81fbfd84723f",
          "transactionIndex": "0xb1",
          "logIndex": "0xdd",
          "removed": false
        },
        {
          "address": "0x8aafd3ede9adb0ff97c7aebce82a919afb1c8764",
          "topics": [
            "0xddf252ad1be2c89b69c2b068fc378daa952ba7f163c4a11628f55a4df523b3ef",
            "0x000000000000000000000000c77f7fed3b5cc8249adc428c5f44c9063b9734b4",
            "0x000000000000000000000000c77f7fed3b5cc8249adc428c5f44c9063b9734b4"
          ],
          "data": "0x00000000000000000000000000000000000000000000000000000001d72ad404",
          "blockHash": "0xeb627f6654d0411a0a0836680f0bb331ac57f3acb1545eef78934fe3dfdc6d55",
          "blockNumber": "0x731b72",
          "transactionHash": "0x6c33bf63290f3e33e97a5a59643ef46912411f86368b06308c2e81fbfd84723f",
          "transactionIndex": "0xb1",
          "logIndex": "0xde",
          "removed": false
        },
        {
          "address": "0x8aafd3ede9adb0ff97c7aebce82a919afb1c8764",
          "topics": [
            "0x4afcb4a87cdbd9974efdb92ee48bc8d7cd0ae4bf217004db3d080cbaee652ca7"
          ],
          "data": "0x0000000000000000000000000000000000000000000000000000000067904634000000000000000000000000000000000000000000000000000eba1107b18f3100000000000000000000000000000000000000000000000000000000f42320c5",
          "blockHash": "0xeb627f6654d0411a0a0836680f0bb331ac57f3acb1545eef78934fe3dfdc6d55",
          "blockNumber": "0x731b72",
          "transactionHash": "0x6c33bf63290f3e33e97a5a59643ef46912411f86368b06308c2e81fbfd84723f",
          "transactionIndex": "0xb1",
          "logIndex": "0xdf",
          "removed": false
        }
      ],
      "logsBloom": "0x00000000000000000000000000000000000000000600000000000000000000000000000000000000000000000000000000000000000000004000000000000000000000000000004000000008000000000000000000000000000000000000000000000000020000000000000000000800020000000000000000000010000000000000000000000000000000000000000000000000000000000000010000000000000000000000000000000000000000004000000000000000000000000000000000000002000000800000000000000000000000000000080000000000000020000000000000000000000000000000000000000000000000000000000000000000",
      "type": "0x2",
      "transactionHash": "0x6c33bf63290f3e33e97a5a59643ef46912411f86368b06308c2e81fbfd84723f",
      "transactionIndex": "0xb1",
      "blockHash": "0xeb627f6654d0411a0a0836680f0bb331ac57f3acb1545eef78934fe3dfdc6d55",
      "blockNumber": "0x731b72",
      "gasUsed": "0xfd1b",
      "effectiveGasPrice": "0x10b0fb601",
      "from": "0xc77f7fed3b5cc8249adc428c5f44c9063b9734b4",
      "to": "0x8aafd3ede9adb0ff97c7aebce82a919afb1c8764",
      "contractAddress": null
    }
  ],
  "libraries": [],
  "pending": [],
  "returns": {},
  "timestamp": 1737508406,
  "chain": 11155111,
  "commit": "1d2fb70"
}