{
  "transactions": [
    {
      "hash": "0xd3f8b00d439a93583b13eb94a9fffea6aa1fb43fa397f690a50e4023c498bdea",
      "transactionType": "CALL",
      "contractName": null,
      "contractAddress": "0x5eb9cc76c3506942c1c0ead70e877dd5e4f00cb0",
      "function": "buy(address)",
      "arguments": [
        "0xC77f7fed3b5Cc8249aDc428c5F44C9063B9734b4"
      ],
      "transaction": {
        "from": "0xc77f7fed3b5cc8249adc428c5f44c9063b9734b4",
        "to": "0x5eb9cc76c3506942c1c0ead70e877dd5e4f00cb0",
        "gas": "0x156c8",
        "value": "0xde0b6b3a7640000",
        "input": "0xf088d547000000000000000000000000c77f7fed3b5cc8249adc428c5f44c9063b9734b4",
        "nonce": "0x130",
        "chainId": "0xaa36a7"
      },
      "additionalContracts": [],
      "isFixedGasLimit": false
    }
  ],
  "receipts": [
    {
      "status": "0x1",
      "cumulativeGasUsed": "0xae8517",
      "logs": [
        {
          "address": "0x5eb9cc76c3506942c1c0ead70e877dd5e4f00cb0",
          "topics": [
            "0xddf252ad1be2c89b69c2b068fc378daa952ba7f163c4a11628f55a4df523b3ef",
            "0x0000000000000000000000000000000000000000000000000000000000000000",
            "0x000000000000000000000000c77f7fed3b5cc8249adc428c5f44c9063b9734b4"
          ],
          "data": "0x000000000000000000000000000000000000000000000035aaff3b74fc5867a6",
          "blockHash": "0x618108a948c415ab9d4e93368121a951079c49160a08b26aa1067730fa79bf8e",
          "blockNumber": "0x723b12",
          "transactionHash": "0xd3f8b00d439a93583b13eb94a9fffea6aa1fb43fa397f690a50e4023c498bdea",
          "transactionIndex": "0x24",
          "logIndex": "0x3f",
          "removed": false
        },
        {
          "address": "0x5eb9cc76c3506942c1c0ead70e877dd5e4f00cb0",
          "topics": [
            "0xddf252ad1be2c89b69c2b068fc378daa952ba7f163c4a11628f55a4df523b3ef",
            "0x0000000000000000000000000000000000000000000000000000000000000000",
            "0x000000000000000000000000c77f7fed3b5cc8249adc428c5f44c9063b9734b4"
          ],
          "data": "0x00000000000000000000000000000000000000000000000029acccc020b24fd8",
          "blockHash": "0x618108a948c415ab9d4e93368121a951079c49160a08b26aa1067730fa79bf8e",
          "blockNumber": "0x723b12",
          "transactionHash": "0xd3f8b00d439a93583b13eb94a9fffea6aa1fb43fa397f690a50e4023c498bdea",
          "transactionIndex": "0x24",
          "logIndex": "0x40",
          "removed": false
        },
        {
          "address": "0x5eb9cc76c3506942c1c0ead70e877dd5e4f00cb0",
          "topics": [
            "0x4afcb4a87cdbd9974efdb92ee48bc8d7cd0ae4bf217004db3d080cbaee652ca7"
          ],
          "data": "0x000000000000000000000000000000000000000000000000000000006785b62c00000000000000000000000000000000000000000000000000038d7ee3d091990000000000000000000000000000000000000000000000000de0b6b3a7640000",
          "blockHash": "0x618108a948c415ab9d4e93368121a951079c49160a08b26aa1067730fa79bf8e",
          "blockNumber": "0x723b12",
          "transactionHash": "0xd3f8b00d439a93583b13eb94a9fffea6aa1fb43fa397f690a50e4023c498bdea",
          "transactionIndex": "0x24",
          "logIndex": "0x41",
          "removed": false
        }
      ],
      "logsBloom": "0x00000000000000000000000000000000000000000000000000000000000000000000000000000000000000000000000000000000000000004000000000000000000000000000000000000008000000000000000000000000000000000000000000000000020000000000000004000800020000000000000000000010000000000000000000000000000000000000000000000000000000000000010000000000000000000000000000000000000000004000000000000000000000000000020000000002000000800000008000000000000000000000080000000000000020000000000000000000000000000000000000000000000000000000000000000000",
      "type": "0x2",
      "transactionHash": "0xd3f8b00d439a93583b13eb94a9fffea6aa1fb43fa397f690a50e4023c498bdea",
      "transactionIndex": "0x24",
      "blockHash": "0x618108a948c415ab9d4e93368121a951079c49160a08b26aa1067730fa79bf8e",
      "blockNumber": "0x723b12",
      "gasUsed": "0xf82c",
      "effectiveGasPrice": "0x330cf0daf",
      "from": "0xc77f7fed3b5cc8249adc428c5f44c9063b9734b4",
      "to": "0x5eb9cc76c3506942c1c0ead70e877dd5e4f00cb0",
      "contractAddress": null
    }
  ],
  "libraries": [],
  "pending": [],
  "returns": {},
  "timestamp": 1736816174,
  "chain": 11155111,
  "commit": "51a374b"
}