{
  "transactions": [
    {
      "hash": "0x75f46075578e58dc8a244d05157d3a61f9f7ef2e07660e10453c375722645f81",
      "transactionType": "CALL",
      "contractName": null,
      "contractAddress": "0xbf4a322f1496e5c3d34a9bcdb4c60567b38c7de2",
      "function": "sell(uint256)",
      "arguments": [
        "985738970432997946269"
      ],
      "transaction": {
        "from": "0xc77f7fed3b5cc8249adc428c5f44c9063b9734b4",
        "to": "0xbf4a322f1496e5c3d34a9bcdb4c60567b38c7de2",
        "gas": "0x16fea",
        "value": "0x0",
        "input": "0xe4849b320000000000000000000000000000000000000000000000356fe052f09e1ff39d",
        "nonce": "0xa6f",
        "chainId": "0xaa36a7"
      },
      "additionalContracts": [],
      "isFixedGasLimit": false
    }
  ],
  "receipts": [
    {
      "status": "0x1",
      "cumulativeGasUsed": "0xaf4187",
      "logs": [
        {
          "address": "0xbf4a322f1496e5c3d34a9bcdb4c60567b38c7de2",
          "topics": [
            "0xddf252ad1be2c89b69c2b068fc378daa952ba7f163c4a11628f55a4df523b3ef",
            "0x000000000000000000000000c77f7fed3b5cc8249adc428c5f44c9063b9734b4",
            "0x0000000000000000000000000000000000000000000000000000000000000000"
          ],
          "data": "0x0000000000000000000000000000000000000000000000356fe052f09e1ff39d",
          "blockHash": "0xa8b8c646da6a23a7f269596d35ed674f5cd2655a42280bfb12548cb7fd135387",
          "blockNumber": "0x725a4c",
          "transactionHash": "0x75f46075578e58dc8a244d05157d3a61f9f7ef2e07660e10453c375722645f81",
          "transactionIndex": "0x87",
          "logIndex": "0xbe",
          "removed": false
        },
        {
          "address": "0xbf4a322f1496e5c3d34a9bcdb4c60567b38c7de2",
          "topics": [
            "0x4afcb4a87cdbd9974efdb92ee48bc8d7cd0ae4bf217004db3d080cbaee652ca7"
          ],
          "data": "0x0000000000000000000000000000000000000000000000000000000067872de000000000000000000000000000000000000000000000000000039438ddaf92c50000000000000000000000000000000000000000000000000dc7e3ef68d4eed2",
          "blockHash": "0xa8b8c646da6a23a7f269596d35ed674f5cd2655a42280bfb12548cb7fd135387",
          "blockNumber": "0x725a4c",
          "transactionHash": "0x75f46075578e58dc8a244d05157d3a61f9f7ef2e07660e10453c375722645f81",
          "transactionIndex": "0x87",
          "logIndex": "0xbf",
          "removed": false
        }
      ],
      "logsBloom": "0x00000000000000000000000000000000000000000000000000000000000000000000000000000000000000000000000000000000000000004000000000000000000000000000000000000008000000000000001000000000000000000000000000000000020000000000000000000800020000000000000000000010000000000000000000000000000000000000000000000000000008000000010000000000000000000000000000000000000000004000000000000000000000000000000000000002000000800000000000001000000000000000080000000000000020000000000000000000000000000000000000000000000000000000000000000000",
      "type": "0x2",
      "transactionHash": "0x75f46075578e58dc8a244d05157d3a61f9f7ef2e07660e10453c375722645f81",
      "transactionIndex": "0x87",
      "blockHash": "0xa8b8c646da6a23a7f269596d35ed674f5cd2655a42280bfb12548cb7fd135387",
      "blockNumber": "0x725a4c",
      "gasUsed": "0xfb91",
      "effectiveGasPrice": "0x3406680d4",
      "from": "0xc77f7fed3b5cc8249adc428c5f44c9063b9734b4",
      "to": "0xbf4a322f1496e5c3d34a9bcdb4c60567b38c7de2",
      "contractAddress": null
    }
  ],
  "libraries": [],
  "pending": [],
  "returns": {},
  "timestamp": 1736912353,
  "chain": 11155111,
  "commit": "51a374b"
}