{
  "transactions": [
    {
      "hash": "0xb91040eb1d82bd8a30c62b718b09040d5462420b71759ec7b4dcf5bbb8b4b148",
      "transactionType": "CALL",
      "contractName": null,
      "contractAddress": "0x8aafd3ede9adb0ff97c7aebce82a919afb1c8764",
      "function": "buy(address)",
      "arguments": [
        "0xC77f7fed3b5Cc8249aDc428c5F44C9063B9734b4"
      ],
      "transaction": {
        "from": "0xc77f7fed3b5cc8249adc428c5f44c9063b9734b4",
        "to": "0x8aafd3ede9adb0ff97c7aebce82a919afb1c8764",
        "gas": "0x156ea",
        "value": "0xde0b6b3a7640000",
        "input": "0xf088d547000000000000000000000000c77f7fed3b5cc8249adc428c5f44c9063b9734b4",
        "nonce": "0xf5c",
        "chainId": "0xaa36a7"
      },
      "additionalContracts": [],
      "isFixedGasLimit": false
    }
  ],
  "receipts": [
    {
      "status": "0x1",
      "cumulativeGasUsed": "0xa20bfe",
      "logs": [
        {
          "address": "0x8aafd3ede9adb0ff97c7aebce82a919afb1c8764",
          "topics": [
            "0xddf252ad1be2c89b69c2b068fc378daa952ba7f163c4a11628f55a4df523b3ef",
            "0x0000000000000000000000000000000000000000000000000000000000000000",
            "0x000000000000000000000000c77f7fed3b5cc8249adc428c5f44c9063b9734b4"
          ],
          "data": "0x0000000000000000000000000000000000000000000000281cb4e3b7dd5c5777",
          "blockHash": "0x2b4bf93f9565d6bffb0596bd8ce25378cf86a29b94f10b2fc3fa94fd31b519c7",
          "blockNumber": "0x7315b9",
          "transactionHash": "0xb91040eb1d82bd8a30c62b718b09040d5462420b71759ec7b4dcf5bbb8b4b148",
          "transactionIndex": "0x80",
          "logIndex": "0x95",
          "removed": false
        },
        {
          "address": "0x8aafd3ede9adb0ff97c7aebce82a919afb1c8764",
          "topics": [
            "0xddf252ad1be2c89b69c2b068fc378daa952ba7f163c4a11628f55a4df523b3ef",
            "0x0000000000000000000000000000000000000000000000000000000000000000",
            "0x000000000000000000000000c77f7fed3b5cc8249adc428c5f44c9063b9734b4"
          ],
          "data": "0x0000000000000000000000000000000000000000000000001f26003d87fb8718",
          "blockHash": "0x2b4bf93f9565d6bffb0596bd8ce25378cf86a29b94f10b2fc3fa94fd31b519c7",
          "blockNumber": "0x7315b9",
          "transactionHash": "0xb91040eb1d82bd8a30c62b718b09040d5462420b71759ec7b4dcf5bbb8b4b148",
          "transactionIndex": "0x80",
          "logIndex": "0x96",
          "removed": false
        },
        {
          "address": "0x8aafd3ede9adb0ff97c7aebce82a919afb1c8764",
          "topics": [
            "0x4afcb4a87cdbd9974efdb92ee48bc8d7cd0ae4bf217004db3d080cbaee652ca7"
          ],
          "data": "0x00000000000000000000000000000000000000000000000000000000679001580000000000000000000000000000000000000000000000000004c0f3e3b1912f0000000000000000000000000000000000000000000000000de0b6b3a7640000",
          "blockHash": "0x2b4bf93f9565d6bffb0596bd8ce25378cf86a29b94f10b2fc3fa94fd31b519c7",
          "blockNumber": "0x7315b9",
          "transactionHash": "0xb91040eb1d82bd8a30c62b718b09040d5462420b71759ec7b4dcf5bbb8b4b148",
          "transactionIndex": "0x80",
          "logIndex": "0x97",
          "removed": false
        }
      ],
      "logsBloom": "0x00000000000000000000000000000000000000000600000000000000000000000000000000000000000000000000000000000000000000004000000000000000000000000000004000000008000000000000000000000000000000000000000000000000020000000000000000000800020000000000000000000010000000000000000000000000000000000000000000000000000000000000010000000000000000000000000000000000000000004000000000000000000000000000000000000002000000800000000000000000000000000000080000000000000020000000000000000000000000000000000000000000000000000000000000000000",
      "type": "0x2",
      "transactionHash": "0xb91040eb1d82bd8a30c62b718b09040d5462420b71759ec7b4dcf5bbb8b4b148",
      "transactionIndex": "0x80",
      "blockHash": "0x2b4bf93f9565d6bffb0596bd8ce25378cf86a29b94f10b2fc3fa94fd31b519c7",
      "blockNumber": "0x7315b9",
      "gasUsed": "0xf844",
      "effectiveGasPrice": "0x7fd680a6",
      "from": "0xc77f7fed3b5cc8249adc428c5f44c9063b9734b4",
      "to": "0x8aafd3ede9adb0ff97c7aebce82a919afb1c8764",
      "contractAddress": null
    }
  ],
  "libraries": [],
  "pending": [],
  "returns": {},
  "timestamp": 1737490777,
  "chain": 11155111,
  "commit": "1d2fb70"
}