{
  "transactions": [
    {
      "hash": "0xb8427a74db3566132272c567077607be457b5d7f76379f3ee8ea403d6e893d0d",
      "transactionType": "CALL",
      "contractName": null,
      "contractAddress": "0x5eb9cc76c3506942c1c0ead70e877dd5e4f00cb0",
      "function": "buy(address)",
      "arguments": [
        "0xC77f7fed3b5Cc8249aDc428c5F44C9063B9734b4"
      ],
      "transaction": {
        "from": "0xc77f7fed3b5cc8249adc428c5f44c9063b9734b4",
        "to": "0x5eb9cc76c3506942c1c0ead70e877dd5e4f00cb0",
        "gas": "0x156c8",
        "value": "0xde0b6b3a7640000",
        "input": "0xf088d547000000000000000000000000c77f7fed3b5cc8249adc428c5f44c9063b9734b4",
        "nonce": "0x19e",
        "chainId": "0xaa36a7"
      },
      "additionalContracts": [],
      "isFixedGasLimit": false
    }
  ],
  "receipts": [
    {
      "status": "0x1",
      "cumulativeGasUsed": "0xf7ed2e",
      "logs": [
        {
          "address": "0x5eb9cc76c3506942c1c0ead70e877dd5e4f00cb0",
          "topics": [
            "0xddf252ad1be2c89b69c2b068fc378daa952ba7f163c4a11628f55a4df523b3ef",
            "0x0000000000000000000000000000000000000000000000000000000000000000",
            "0x000000000000000000000000c77f7fed3b5cc8249adc428c5f44c9063b9734b4"
          ],
          "data": "0x000000000000000000000000000000000000000000000035a379f6901436ceb8",
          "blockHash": "0x3bffdc41625ac41e5f141d40a00ac39a52fc58e056d84159007dbccd5c888429",
          "blockNumber": "0x723c84",
          "transactionHash": "0xb8427a74db3566132272c567077607be457b5d7f76379f3ee8ea403d6e893d0d",
          "transactionIndex": "0x8c",
          "logIndex": "0xf3",
          "removed": false
        },
        {
          "address": "0x5eb9cc76c3506942c1c0ead70e877dd5e4f00cb0",
          "topics": [
            "0xddf252ad1be2c89b69c2b068fc378daa952ba7f163c4a11628f55a4df523b3ef",
            "0x0000000000000000000000000000000000000000000000000000000000000000",
            "0x000000000000000000000000c77f7fed3b5cc8249adc428c5f44c9063b9734b4"
          ],
          "data": "0x00000000000000000000000000000000000000000000000029a6f5b69ea52610",
          "blockHash": "0x3bffdc41625ac41e5f141d40a00ac39a52fc58e056d84159007dbccd5c888429",
          "blockNumber": "0x723c84",
          "transactionHash": "0xb8427a74db3566132272c567077607be457b5d7f76379f3ee8ea403d6e893d0d",
          "transactionIndex": "0x8c",
          "logIndex": "0xf4",
          "removed": false
        },
        {
          "address": "0x5eb9cc76c3506942c1c0ead70e877dd5e4f00cb0",
          "topics": [
            "0x4afcb4a87cdbd9974efdb92ee48bc8d7cd0ae4bf217004db3d080cbaee652ca7"
          ],
          "data": "0x000000000000000000000000000000000000000000000000000000006785c78400000000000000000000000000000000000000000000000000038dfe68ab23110000000000000000000000000000000000000000000000000de0b6b3a7640000",
          "blockHash": "0x3bffdc41625ac41e5f141d40a00ac39a52fc58e056d84159007dbccd5c888429",
          "blockNumber": "0x723c84",
          "transactionHash": "0xb8427a74db3566132272c567077607be457b5d7f76379f3ee8ea403d6e893d0d",
          "transactionIndex": "0x8c",
          "logIndex": "0xf5",
          "removed": false
        }
      ],
      "logsBloom": "0x00000000000000000000000000000000000000000000000000000000000000000000000000000000000000000000000000000000000000004000000000000000000000000000000000000008000000000000000000000000000000000000000000000000020000000000000004000800020000000000000000000010000000000000000000000000000000000000000000000000000000000000010000000000000000000000000000000000000000004000000000000000000000000000020000000002000000800000008000000000000000000000080000000000000020000000000000000000000000000000000000000000000000000000000000000000",
      "type": "0x2",
      "transactionHash": "0xb8427a74db3566132272c567077607be457b5d7f76379f3ee8ea403d6e893d0d",
      "transactionIndex": "0x8c",
      "blockHash": "0x3bffdc41625ac41e5f141d40a00ac39a52fc58e056d84159007dbccd5c888429",
      "blockNumber": "0x723c84",
      "gasUsed": "0xf82c",
      "effectiveGasPrice": "0x1be61fcd3",
      "from": "0xc77f7fed3b5cc8249adc428c5f44c9063b9734b4",
      "to": "0x5eb9cc76c3506942c1c0ead70e877dd5e4f00cb0",
      "contractAddress": null
    }
  ],
  "libraries": [],
  "pending": [],
  "returns": {},
  "timestamp": 1736820613,
  "chain": 11155111,
  "commit": "51a374b"
}