{
  "transactions": [
    {
      "hash": "0xccfa98376578208cffaaea839c8a6f8154bba3a61e0ce8789019d98a9f6caa74",
      "transactionType": "CALL",
      "contractName": null,
      "contractAddress": "0x5eb9cc76c3506942c1c0ead70e877dd5e4f00cb0",
      "function": "buy(address)",
      "arguments": [
        "0xC77f7fed3b5Cc8249aDc428c5F44C9063B9734b4"
      ],
      "transaction": {
        "from": "0xc77f7fed3b5cc8249adc428c5f44c9063b9734b4",
        "to": "0x5eb9cc76c3506942c1c0ead70e877dd5e4f00cb0",
        "gas": "0x156c8",
        "value": "0xde0b6b3a7640000",
        "input": "0xf088d547000000000000000000000000c77f7fed3b5cc8249adc428c5f44c9063b9734b4",
        "nonce": "0x1c7",
        "chainId": "0xaa36a7"
      },
      "additionalContracts": [],
      "isFixedGasLimit": false
    }
  ],
  "receipts": [
    {
      "status": "0x1",
      "cumulativeGasUsed": "0x11e5e5f",
      "logs": [
        {
          "address": "0x5eb9cc76c3506942c1c0ead70e877dd5e4f00cb0",
          "topics": [
            "0xddf252ad1be2c89b69c2b068fc378daa952ba7f163c4a11628f55a4df523b3ef",
            "0x0000000000000000000000000000000000000000000000000000000000000000",
            "0x000000000000000000000000c77f7fed3b5cc8249adc428c5f44c9063b9734b4"
          ],
          "data": "0x000000000000000000000000000000000000000000000035a3692da672c5acf8",
          "blockHash": "0x7a407d6028e7d9116d96aa2277754ec73e99042cfc484a07138ad49be4685afe",
          "blockNumber": "0x723cb5",
          "transactionHash": "0xccfa98376578208cffaaea839c8a6f8154bba3a61e0ce8789019d98a9f6caa74",
          "transactionIndex": "0x95",
          "logIndex": "0x172",
          "removed": false
        },
        {
          "address": "0x5eb9cc76c3506942c1c0ead70e877dd5e4f00cb0",
          "topics": [
            "0xddf252ad1be2c89b69c2b068fc378daa952ba7f163c4a11628f55a4df523b3ef",
            "0x0000000000000000000000000000000000000000000000000000000000000000",
            "0x000000000000000000000000c77f7fed3b5cc8249adc428c5f44c9063b9734b4"
          ],
          "data": "0x00000000000000000000000000000000000000000000000029a6e8adeba54f6d",
          "blockHash": "0x7a407d6028e7d9116d96aa2277754ec73e99042cfc484a07138ad49be4685afe",
          "blockNumber": "0x723cb5",
          "transactionHash": "0xccfa98376578208cffaaea839c8a6f8154bba3a61e0ce8789019d98a9f6caa74",
          "transactionIndex": "0x95",
          "logIndex": "0x173",
          "removed": false
        },
        {
          "address": "0x5eb9cc76c3506942c1c0ead70e877dd5e4f00cb0",
          "topics": [
            "0x4afcb4a87cdbd9974efdb92ee48bc8d7cd0ae4bf217004db3d080cbaee652ca7"
          ],
          "data": "0x000000000000000000000000000000000000000000000000000000006785c9d000000000000000000000000000000000000000000000000000038dff856c9e490000000000000000000000000000000000000000000000000de0b6b3a7640000",
          "blockHash": "0x7a407d6028e7d9116d96aa2277754ec73e99042cfc484a07138ad49be4685afe",
          "blockNumber": "0x723cb5",
          "transactionHash": "0xccfa98376578208cffaaea839c8a6f8154bba3a61e0ce8789019d98a9f6caa74",
          "transactionIndex": "0x95",
          "logIndex": "0x174",
          "removed": false
        }
      ],
      "logsBloom": "0x00000000000000000000000000000000000000000000000000000000000000000000000000000000000000000000000000000000000000004000000000000000000000000000000000000008000000000000000000000000000000000000000000000000020000000000000004000800020000000000000000000010000000000000000000000000000000000000000000000000000000000000010000000000000000000000000000000000000000004000000000000000000000000000020000000002000000800000008000000000000000000000080000000000000020000000000000000000000000000000000000000000000000000000000000000000",
      "type": "0x2",
      "transactionHash": "0xccfa98376578208cffaaea839c8a6f8154bba3a61e0ce8789019d98a9f6caa74",
      "transactionIndex": "0x95",
      "blockHash": "0x7a407d6028e7d9116d96aa2277754ec73e99042cfc484a07138ad49be4685afe",
      "blockNumber": "0x723cb5",
      "gasUsed": "0xf82c",
      "effectiveGasPrice": "0x190692a66",
      "from": "0xc77f7fed3b5cc8249adc428c5f44c9063b9734b4",
      "to": "0x5eb9cc76c3506942c1c0ead70e877dd5e4f00cb0",
      "contractAddress": null
    }
  ],
  "libraries": [],
  "pending": [],
  "returns": {},
  "timestamp": 1736821201,
  "chain": 11155111,
  "commit": "51a374b"
}