{
  "transactions": [
    {
      "hash": "0x530fe75465f1b359ccb052a31b8fce21e08e1fc90f4776f95cd9c7ef176fec97",
      "transactionType": "CALL",
      "contractName": null,
      "contractAddress": "0xd7bc75898e513accccf720a874d44dab5a4b6223",
      "function": "sell(uint256)",
      "arguments": [
        "9929992999569389862"
      ],
      "transaction": {
        "from": "0xc77f7fed3b5cc8249adc428c5f44c9063b9734b4",
        "to": "0xd7bc75898e513accccf720a874d44dab5a4b6223",
        "gas": "0x15b6b",
        "value": "0x0",
        "input": "0xe4849b3200000000000000000000000000000000000000000000000089ce6c059172f926",
        "nonce": "0x99",
        "chainId": "0xaa36a7"
      },
      "additionalContracts": [],
      "isFixedGasLimit": false
    }
  ],
  "receipts": [
    {
      "status": "0x1",
      "cumulativeGasUsed": "0x5ca690",
      "logs": [
        {
          "address": "0xd7bc75898e513accccf720a874d44dab5a4b6223",
          "topics": [
            "0xddf252ad1be2c89b69c2b068fc378daa952ba7f163c4a11628f55a4df523b3ef",
            "0x000000000000000000000000c77f7fed3b5cc8249adc428c5f44c9063b9734b4",
            "0x0000000000000000000000000000000000000000000000000000000000000000"
          ],
          "data": "0x00000000000000000000000000000000000000000000000089ce6c059172f926",
          "blockHash": "0x0336adfbdd7ce618241b6ff28f54372dc215870e09c68323426e83a2a97c97db",
          "blockNumber": "0x72390b",
          "transactionHash": "0x530fe75465f1b359ccb052a31b8fce21e08e1fc90f4776f95cd9c7ef176fec97",
          "transactionIndex": "0x42",
          "logIndex": "0x67",
          "removed": false
        },
        {
          "address": "0xd7bc75898e513accccf720a874d44dab5a4b6223",
          "topics": [
            "0x4afcb4a87cdbd9974efdb92ee48bc8d7cd0ae4bf217004db3d080cbaee652ca7"
          ],
          "data": "0x0000000000000000000000000000000000000000000000000000000067859dcc00000000000000000000000000000000000000000000000000038d7f833e32f20000000000000000000000000000000000000000000000000023474f493d2799",
          "blockHash": "0x0336adfbdd7ce618241b6ff28f54372dc215870e09c68323426e83a2a97c97db",
          "blockNumber": "0x72390b",
          "transactionHash": "0x530fe75465f1b359ccb052a31b8fce21e08e1fc90f4776f95cd9c7ef176fec97",
          "transactionIndex": "0x42",
          "logIndex": "0x68",
          "removed": false
        }
      ],
      "logsBloom": "0x00000000000000000000000000000000000000000000000000000000000000000000000000000000000000000000000000000000000000004000000000000000000000000000000000000008000000000000000000000000000000000000000000000000020000000000000000000800020000000000000000000010000000000000000000000000000000000000000000000000000000000000010000000000000000000000000000000000000000004000001000000000000000000000000000000002000000800000000000004000000000000000080000000000000020000000000000000000000000000000000000000000080000000000000000000000",
      "type": "0x2",
      "transactionHash": "0x530fe75465f1b359ccb052a31b8fce21e08e1fc90f4776f95cd9c7ef176fec97",
      "transactionIndex": "0x42",
      "blockHash": "0x0336adfbdd7ce618241b6ff28f54372dc215870e09c68323426e83a2a97c97db",
      "blockNumber": "0x72390b",
      "gasUsed": "0xfb87",
      "effectiveGasPrice": "0xa0b4d3",
      "from": "0xc77f7fed3b5cc8249adc428c5f44c9063b9734b4",
      "to": "0xd7bc75898e513accccf720a874d44dab5a4b6223",
      "contractAddress": null
    }
  ],
  "libraries": [],
  "pending": [],
  "returns": {},
  "timestamp": 1736809933,
  "chain": 11155111,
  "commit": "51a374b"
}