{
  "transactions": [
    {
      "hash": "0xda1a19ac097af3ced8b6718185a046b7d594fd44424488f9e1152754680a9bbc",
      "transactionType": "CALL",
      "contractName": null,
      "contractAddress": "0x8aafd3ede9adb0ff97c7aebce82a919afb1c8764",
      "function": "buy(address)",
      "arguments": [
        "0xC77f7fed3b5Cc8249aDc428c5F44C9063B9734b4"
      ],
      "transaction": {
        "from": "0xc77f7fed3b5cc8249adc428c5f44c9063b9734b4",
        "to": "0x8aafd3ede9adb0ff97c7aebce82a919afb1c8764",
        "gas": "0x156ea",
        "value": "0xde0b6b3a7640000",
        "input": "0xf088d547000000000000000000000000c77f7fed3b5cc8249adc428c5f44c9063b9734b4",
        "nonce": "0x1759",
        "chainId": "0xaa36a7"
      },
      "additionalContracts": [],
      "isFixedGasLimit": false
    }
  ],
  "receipts": [
    {
      "status": "0x1",
      "cumulativeGasUsed": "0xa124da",
      "logs": [
        {
          "address": "0x8aafd3ede9adb0ff97c7aebce82a919afb1c8764",
          "topics": [
            "0xddf252ad1be2c89b69c2b068fc378daa952ba7f163c4a11628f55a4df523b3ef",
            "0x0000000000000000000000000000000000000000000000000000000000000000",
            "0x000000000000000000000000c77f7fed3b5cc8249adc428c5f44c9063b9734b4"
          ],
          "data": "0x000000000000000000000000000000000000000000000007f11dfe7e621d68d2",
          "blockHash": "0x41e4b6362bbe77a6277a8703e2f8df3d220a088ac65c8ec1c81c2cf52327a9ca",
          "blockNumber": "0x731f2b",
          "transactionHash": "0xda1a19ac097af3ced8b6718185a046b7d594fd44424488f9e1152754680a9bbc",
          "transactionIndex": "0x5a",
          "logIndex": "0x92",
          "removed": false
        },
        {
          "address": "0x8aafd3ede9adb0ff97c7aebce82a919afb1c8764",
          "topics": [
            "0xddf252ad1be2c89b69c2b068fc378daa952ba7f163c4a11628f55a4df523b3ef",
            "0x0000000000000000000000000000000000000000000000000000000000000000",
            "0x000000000000000000000000c77f7fed3b5cc8249adc428c5f44c9063b9734b4"
          ],
          "data": "0x000000000000000000000000000000000000000000000000062ac8ea7638da96",
          "blockHash": "0x41e4b6362bbe77a6277a8703e2f8df3d220a088ac65c8ec1c81c2cf52327a9ca",
          "blockNumber": "0x731f2b",
          "transactionHash": "0xda1a19ac097af3ced8b6718185a046b7d594fd44424488f9e1152754680a9bbc",
          "transactionIndex": "0x5a",
          "logIndex": "0x93",
          "removed": false
        },
        {
          "address": "0x8aafd3ede9adb0ff97c7aebce82a919afb1c8764",
          "topics": [
            "0x4afcb4a87cdbd9974efdb92ee48bc8d7cd0ae4bf217004db3d080cbaee652ca7"
          ],
          "data": "0x00000000000000000000000000000000000000000000000000000000679072ec000000000000000000000000000000000000000000000000001808eff81ec7720000000000000000000000000000000000000000000000000de0b6b3a7640000",
          "blockHash": "0x41e4b6362bbe77a6277a8703e2f8df3d220a088ac65c8ec1c81c2cf52327a9ca",
          "blockNumber": "0x731f2b",
          "transactionHash": "0xda1a19ac097af3ced8b6718185a046b7d594fd44424488f9e1152754680a9bbc",
          "transactionIndex": "0x5a",
          "logIndex": "0x94",
          "removed": false
        }
      ],
      "logsBloom": "0x00000000000000000000000000000000000000000600000000000000000000000000000000000000000000000000000000000000000000004000000000000000000000000000004000000008000000000000000000000000000000000000000000000000020000000000000000000800020000000000000000000010000000000000000000000000000000000000000000000000000000000000010000000000000000000000000000000000000000004000000000000000000000000000000000000002000000800000000000000000000000000000080000000000000020000000000000000000000000000000000000000000000000000000000000000000",
      "type": "0x2",
      "transactionHash": "0xda1a19ac097af3ced8b6718185a046b7d594fd44424488f9e1152754680a9bbc",
      "transactionIndex": "0x5a",
      "blockHash": "0x41e4b6362bbe77a6277a8703e2f8df3d220a088ac65c8ec1c81c2cf52327a9ca",
      "blockNumber": "0x731f2b",
      "gasUsed": "0xf844",
      "effectiveGasPrice": "0x38702394",
      "from": "0xc77f7fed3b5cc8249adc428c5f44c9063b9734b4",
      "to": "0x8aafd3ede9adb0ff97c7aebce82a919afb1c8764",
      "contractAddress": null
    }
  ],
  "libraries": [],
  "pending": [],
  "returns": {},
  "timestamp": 1737519853,
  "chain": 11155111,
  "commit": "1d2fb70"
}