{
  "transactions": [
    {
      "hash": "0x1fac4d8379d97aa94721c411807c554c35a812673dee2e7405027fed8115a119",
      "transactionType": "CALL",
      "contractName": null,
      "contractAddress": "0x8aafd3ede9adb0ff97c7aebce82a919afb1c8764",
      "function": "sell(uint256)",
      "arguments": [
        "43604077526470581"
      ],
      "transaction": {
        "from": "0xc77f7fed3b5cc8249adc428c5f44c9063b9734b4",
        "to": "0x8aafd3ede9adb0ff97c7aebce82a919afb1c8764",
        "gas": "0x1724d",
        "value": "0x0",
        "input": "0xe4849b32000000000000000000000000000000000000000000000000009ae9ad6fb94fb5",
        "nonce": "0x11f1",
        "chainId": "0xaa36a7"
      },
      "additionalContracts": [],
      "isFixedGasLimit": false
    }
  ],
  "receipts": [
    {
      "status": "0x1",
      "cumulativeGasUsed": "0xb7a10b",
      "logs": [
        {
          "address": "0x8aafd3ede9adb0ff97c7aebce82a919afb1c8764",
          "topics": [
            "0xddf252ad1be2c89b69c2b068fc378daa952ba7f163c4a11628f55a4df523b3ef",
            "0x000000000000000000000000c77f7fed3b5cc8249adc428c5f44c9063b9734b4",
            "0x0000000000000000000000000000000000000000000000000000000000000000"
          ],
          "data": "0x0000000000000000000000000000000000000000000000000099ac6a834f6181",
          "blockHash": "0xb05532143c2fb249f11dcc9bbedf5ed822114bd6571ff09f8c0ccbc44521920b",
          "blockNumber": "0x7318c9",
          "transactionHash": "0x1fac4d8379d97aa94721c411807c554c35a812673dee2e7405027fed8115a119",
          "transactionIndex": "0x82",
          "logIndex": "0xab",
          "removed": false
        },
        {
          "address": "0x8aafd3ede9adb0ff97c7aebce82a919afb1c8764",
          "topics": [
            "0xddf252ad1be2c89b69c2b068fc378daa952ba7f163c4a11628f55a4df523b3ef",
            "0x000000000000000000000000c77f7fed3b5cc8249adc428c5f44c9063b9734b4",
            "0x000000000000000000000000c77f7fed3b5cc8249adc428c5f44c9063b9734b4"
          ],
          "data": "0x00000000000000000000000000000000000000000000000000013d42ec69ee34",
          "blockHash": "0xb05532143c2fb249f11dcc9bbedf5ed822114bd6571ff09f8c0ccbc44521920b",
          "blockNumber": "0x7318c9",
          "transactionHash": "0x1fac4d8379d97aa94721c411807c554c35a812673dee2e7405027fed8115a119",
          "transactionIndex": "0x82",
          "logIndex": "0xac",
          "removed": false
        },
        {
          "address": "0x8aafd3ede9adb0ff97c7aebce82a919afb1c8764",
          "topics": [
            "0x4afcb4a87cdbd9974efdb92ee48bc8d7cd0ae4bf217004db3d080cbaee652ca7"
          ],
          "data": "0x000000000000000000000000000000000000000000000000000000006790263c00000000000000000000000000000000000000000000000000052f06a059f851000000000000000000000000000000000000000000000000000039dd1dd849cf",
          "blockHash": "0xb05532143c2fb249f11dcc9bbedf5ed822114bd6571ff09f8c0ccbc44521920b",
          "blockNumber": "0x7318c9",
          "transactionHash": "0x1fac4d8379d97aa94721c411807c554c35a812673dee2e7405027fed8115a119",
          "transactionIndex": "0x82",
          "logIndex": "0xad",
          "removed": false
        }
      ],
      "logsBloom": "0x00000000000000000000000000000000000000000600000000000000000000000000000000000000000000000000000000000000000000004000000000000000000000000000004000000008000000000000000000000000000000000000000000000000020000000000000000000800020000000000000000000010000000000000000000000000000000000000000000000000000000000000010000000000000000000000000000000000000000004000000000000000000000000000000000000002000000800000000000000000000000000000080000000000000020000000000000000000000000000000000000000000000000000000000000000000",
      "type": "0x2",
      "transactionHash": "0x1fac4d8379d97aa94721c411807c554c35a812673dee2e7405027fed8115a119",
      "transactionIndex": "0x82",
      "blockHash": "0xb05532143c2fb249f11dcc9bbedf5ed822114bd6571ff09f8c0ccbc44521920b",
      "blockNumber": "0x7318c9",
      "gasUsed": "0xfd33",
      "effectiveGasPrice": "0x461e5619",
      "from": "0xc77f7fed3b5cc8249adc428c5f44c9063b9734b4",
      "to": "0x8aafd3ede9adb0ff97c7aebce82a919afb1c8764",
      "contractAddress": null
    }
  ],
  "libraries": [],
  "pending": [],
  "returns": {},
  "timestamp": 1737500221,
  "chain": 11155111,
  "commit": "1d2fb70"
}