{
  "transactions": [
    {
      "hash": "0x4291e70d0d48d7ae20224b3fece7951aee9f03fd2925e97c4534aad3a0df9cfe",
      "transactionType": "CALL",
      "contractName": null,
      "contractAddress": "0x270e88f8683660553e8ba4eb2ad7c91a1710d769",
      "function": "buy(address)",
      "arguments": [
        "0xC77f7fed3b5Cc8249aDc428c5F44C9063B9734b4"
      ],
      "transaction": {
        "from": "0xc77f7fed3b5cc8249adc428c5f44c9063b9734b4",
        "to": "0x270e88f8683660553e8ba4eb2ad7c91a1710d769",
        "gas": "0x1b30c",
        "value": "0xde0b6b3a7640000",
        "input": "0xf088d547000000000000000000000000c77f7fed3b5cc8249adc428c5f44c9063b9734b4",
        "nonce": "0x6c1",
        "chainId": "0xaa36a7"
      },
      "additionalContracts": [],
      "isFixedGasLimit": false
    }
  ],
  "receipts": [
    {
      "status": "0x1",
      "cumulativeGasUsed": "0x5f607e",
      "logs": [
        {
          "address": "0x270e88f8683660553e8ba4eb2ad7c91a1710d769",
          "topics": [
            "0xddf252ad1be2c89b69c2b068fc378daa952ba7f163c4a11628f55a4df523b3ef",
            "0x0000000000000000000000000000000000000000000000000000000000000000",
            "0x000000000000000000000000c77f7fed3b5cc8249adc428c5f44c9063b9734b4"
          ],
          "data": "0x00000000000000000000000000000000000000000000002895a69d9788292685",
          "blockHash": "0xf2753b733ec2781c9b98e208afb471efca5e5a128dec99efdd35b91b5fff886c",
          "blockNumber": "0x7253ce",
          "transactionHash": "0x4291e70d0d48d7ae20224b3fece7951aee9f03fd2925e97c4534aad3a0df9cfe",
          "transactionIndex": "0x3a",
          "logIndex": "0x6f",
          "removed": false
        },
        {
          "address": "0x270e88f8683660553e8ba4eb2ad7c91a1710d769",
          "topics": [
            "0xddf252ad1be2c89b69c2b068fc378daa952ba7f163c4a11628f55a4df523b3ef",
            "0x0000000000000000000000000000000000000000000000000000000000000000",
            "0x000000000000000000000000c77f7fed3b5cc8249adc428c5f44c9063b9734b4"
          ],
          "data": "0x0000000000000000000000000000000000000000000000001f83eb13a5d68c97",
          "blockHash": "0xf2753b733ec2781c9b98e208afb471efca5e5a128dec99efdd35b91b5fff886c",
          "blockNumber": "0x7253ce",
          "transactionHash": "0x4291e70d0d48d7ae20224b3fece7951aee9f03fd2925e97c4534aad3a0df9cfe",
          "transactionIndex": "0x3a",
          "logIndex": "0x70",
          "removed": false
        },
        {
          "address": "0x270e88f8683660553e8ba4eb2ad7c91a1710d769",
          "topics": [
            "0x4afcb4a87cdbd9974efdb92ee48bc8d7cd0ae4bf217004db3d080cbaee652ca7"
          ],
          "data": "0x000000000000000000000000000000000000000000000000000000006786dfb00000000000000000000000000000000000000000000000000004b2cc22b42bce0000000000000000000000000000000000000000000000000de0b6b3a7640000",
          "blockHash": "0xf2753b733ec2781c9b98e208afb471efca5e5a128dec99efdd35b91b5fff886c",
          "blockNumber": "0x7253ce",
          "transactionHash": "0x4291e70d0d48d7ae20224b3fece7951aee9f03fd2925e97c4534aad3a0df9cfe",
          "transactionIndex": "0x3a",
          "logIndex": "0x71",
          "removed": false
        }
      ],
      "logsBloom": "0x00000000000000000000000000000000000000000000000000000000000000000000000000000000000000000000000020000000000000004000000000000000000000000000000000000008000000000000000000000000000000000000000000000000020000000000000000000800020000000000000000000010000000000000000000010000000000000000000000000000000000000000010000000000000000000000000000000000000000004000000000000000000000000000000000000002000000800000000000000000000000000000080000008000000020000000000000000000000000000000000000000000000000000000000000000000",
      "type": "0x2",
      "transactionHash": "0x4291e70d0d48d7ae20224b3fece7951aee9f03fd2925e97c4534aad3a0df9cfe",
      "transactionIndex": "0x3a",
      "blockHash": "0xf2753b733ec2781c9b98e208afb471efca5e5a128dec99efdd35b91b5fff886c",
      "blockNumber": "0x7253ce",
      "gasUsed": "0x13af8",
      "effectiveGasPrice": "0x1911a4f62",
      "from": "0xc77f7fed3b5cc8249adc428c5f44c9063b9734b4",
      "to": "0x270e88f8683660553e8ba4eb2ad7c91a1710d769",
      "contractAddress": null
    }
  ],
  "libraries": [],
  "pending": [],
  "returns": {},
  "timestamp": 1736892337,
  "chain": 11155111,
  "commit": "51a374b"
}