{
  "transactions": [
    {
      "hash": "0x3a5e3f8b7733b54bf6c9eb3c54704878ff3daf8e9934541bfb3ea71c3d938991",
      "transactionType": "CALL",
      "contractName": null,
      "contractAddress": "0x5eb9cc76c3506942c1c0ead70e877dd5e4f00cb0",
      "function": "buy(address)",
      "arguments": [
        "0xC77f7fed3b5Cc8249aDc428c5F44C9063B9734b4"
      ],
      "transaction": {
        "from": "0xc77f7fed3b5cc8249adc428c5f44c9063b9734b4",
        "to": "0x5eb9cc76c3506942c1c0ead70e877dd5e4f00cb0",
        "gas": "0x1b30c",
        "value": "0xde0b6b3a7640000",
        "input": "0xf088d547000000000000000000000000c77f7fed3b5cc8249adc428c5f44c9063b9734b4",
        "nonce": "0x2bc",
        "chainId": "0xaa36a7"
      },
      "additionalContracts": [],
      "isFixedGasLimit": false
    }
  ],
  "receipts": [
    {
      "status": "0x1",
      "cumulativeGasUsed": "0x98a552",
      "logs": [
        {
          "address": "0x5eb9cc76c3506942c1c0ead70e877dd5e4f00cb0",
          "topics": [
            "0xddf252ad1be2c89b69c2b068fc378daa952ba7f163c4a11628f55a4df523b3ef",
            "0x0000000000000000000000000000000000000000000000000000000000000000",
            "0x000000000000000000000000c77f7fed3b5cc8249adc428c5f44c9063b9734b4"
          ],
          "data": "0x00000000000000000000000000000000000000000000003575b91a81e7cf2230",
          "blockHash": "0xb81048819a912fd0eff3f7caf1dab0228467a10949342cacd11d4436823c41c6",
          "blockNumber": "0x724e97",
          "transactionHash": "0x3a5e3f8b7733b54bf6c9eb3c54704878ff3daf8e9934541bfb3ea71c3d938991",
          "transactionIndex": "0x4c",
          "logIndex": "0x6f",
          "removed": false
        },
        {
          "address": "0x5eb9cc76c3506942c1c0ead70e877dd5e4f00cb0",
          "topics": [
            "0xddf252ad1be2c89b69c2b068fc378daa952ba7f163c4a11628f55a4df523b3ef",
            "0x0000000000000000000000000000000000000000000000000000000000000000",
            "0x000000000000000000000000c77f7fed3b5cc8249adc428c5f44c9063b9734b4"
          ],
          "data": "0x00000000000000000000000000000000000000000000000029836e4742b366e8",
          "blockHash": "0xb81048819a912fd0eff3f7caf1dab0228467a10949342cacd11d4436823c41c6",
          "blockNumber": "0x724e97",
          "transactionHash": "0x3a5e3f8b7733b54bf6c9eb3c54704878ff3daf8e9934541bfb3ea71c3d938991",
          "transactionIndex": "0x4c",
          "logIndex": "0x70",
          "removed": false
        },
        {
          "address": "0x5eb9cc76c3506942c1c0ead70e877dd5e4f00cb0",
          "topics": [
            "0x4afcb4a87cdbd9974efdb92ee48bc8d7cd0ae4bf217004db3d080cbaee652ca7"
          ],
          "data": "0x000000000000000000000000000000000000000000000000000000006786a0c80000000000000000000000000000000000000000000000000003910938f886cb0000000000000000000000000000000000000000000000000de0b6b3a7640000",
          "blockHash": "0xb81048819a912fd0eff3f7caf1dab0228467a10949342cacd11d4436823c41c6",
          "blockNumber": "0x724e97",
          "transactionHash": "0x3a5e3f8b7733b54bf6c9eb3c54704878ff3daf8e9934541bfb3ea71c3d938991",
          "transactionIndex": "0x4c",
          "logIndex": "0x71",
          "removed": false
        }
      ],
      "logsBloom": "0x00000000000000000000000000000000000000000000000000000000000000000000000000000000000000000000000000000000000000004000000000000000000000000000000000000008000000000000000000000000000000000000000000000000020000000000000004000800020000000000000000000010000000000000000000000000000000000000000000000000000000000000010000000000000000000000000000000000000000004000000000000000000000000000020000000002000000800000008000000000000000000000080000000000000020000000000000000000000000000000000000000000000000000000000000000000",
      "type": "0x2",
      "transactionHash": "0x3a5e3f8b7733b54bf6c9eb3c54704878ff3daf8e9934541bfb3ea71c3d938991",
      "transactionIndex": "0x4c",
      "blockHash": "0xb81048819a912fd0eff3f7caf1dab0228467a10949342cacd11d4436823c41c6",
      "blockNumber": "0x724e97",
      "gasUsed": "0x13af8",
      "effectiveGasPrice": "0x4819397b3",
      "from": "0xc77f7fed3b5cc8249adc428c5f44c9063b9734b4",
      "to": "0x5eb9cc76c3506942c1c0ead70e877dd5e4f00cb0",
      "contractAddress": null
    }
  ],
  "libraries": [],
  "pending": [],
  "returns": {},
  "timestamp": 1736876233,
  "chain": 11155111,
  "commit": "51a374b"
}