{
  "transactions": [
    {
      "hash": "0x8c3f0e8f51c7570a3e0da5379033095a4d11b3f1ca14b35db20322a0a277d111",
      "transactionType": "CALL",
      "contractName": null,
      "contractAddress": "0x8aafd3ede9adb0ff97c7aebce82a919afb1c8764",
      "function": "sell(uint256)",
      "arguments": [
        "17252859461402852"
      ],
      "transaction": {
        "from": "0xc77f7fed3b5cc8249adc428c5f44c9063b9734b4",
        "to": "0x8aafd3ede9adb0ff97c7aebce82a919afb1c8764",
        "gas": "0x1724d",
        "value": "0x0",
        "input": "0xe4849b32000000000000000000000000000000000000000000000000003d4b625f8e80e4",
        "nonce": "0x13ab",
        "chainId": "0xaa36a7"
      },
      "additionalContracts": [],
      "isFixedGasLimit": false
    }
  ],
  "receipts": [
    {
      "status": "0x1",
      "cumulativeGasUsed": "0x1142d7f",
      "logs": [
        {
          "address": "0x8aafd3ede9adb0ff97c7aebce82a919afb1c8764",
          "topics": [
            "0xddf252ad1be2c89b69c2b068fc378daa952ba7f163c4a11628f55a4df523b3ef",
            "0x000000000000000000000000c77f7fed3b5cc8249adc428c5f44c9063b9734b4",
            "0x0000000000000000000000000000000000000000000000000000000000000000"
          ],
          "data": "0x000000000000000000000000000000000000000000000000003ccdda6b14880e",
          "blockHash": "0x81dfa6c99b5c256eb60a4c44cd386d3e19174a7f8e89bc62339c8496095d48b0",
          "blockNumber": "0x731ad3",
          "transactionHash": "0x8c3f0e8f51c7570a3e0da5379033095a4d11b3f1ca14b35db20322a0a277d111",
          "transactionIndex": "0x75",
          "logIndex": "0xa5",
          "removed": false
        },
        {
          "address": "0x8aafd3ede9adb0ff97c7aebce82a919afb1c8764",
          "topics": [
            "0xddf252ad1be2c89b69c2b068fc378daa952ba7f163c4a11628f55a4df523b3ef",
            "0x000000000000000000000000c77f7fed3b5cc8249adc428c5f44c9063b9734b4",
            "0x000000000000000000000000c77f7fed3b5cc8249adc428c5f44c9063b9734b4"
          ],
          "data": "0x00000000000000000000000000000000000000000000000000007d87f479f8d6",
          "blockHash": "0x81dfa6c99b5c256eb60a4c44cd386d3e19174a7f8e89bc62339c8496095d48b0",
          "blockNumber": "0x731ad3",
          "transactionHash": "0x8c3f0e8f51c7570a3e0da5379033095a4d11b3f1ca14b35db20322a0a277d111",
          "transactionIndex": "0x75",
          "logIndex": "0xa6",
          "removed": false
        },
        {
          "address": "0x8aafd3ede9adb0ff97c7aebce82a919afb1c8764",
          "topics": [
            "0x4afcb4a87cdbd9974efdb92ee48bc8d7cd0ae4bf217004db3d080cbaee652ca7"
          ],
          "data": "0x0000000000000000000000000000000000000000000000000000000067903eb4000000000000000000000000000000000000000000000000000d3058328f24d200000000000000000000000000000000000000000000000000003a40673e7a12",
          "blockHash": "0x81dfa6c99b5c256eb60a4c44cd386d3e19174a7f8e89bc62339c8496095d48b0",
          "blockNumber": "0x731ad3",
          "transactionHash": "0x8c3f0e8f51c7570a3e0da5379033095a4d11b3f1ca14b35db20322a0a277d111",
          "transactionIndex": "0x75",
          "logIndex": "0xa7",
          "removed": false
        }
      ],
      "logsBloom": "0x00000000000000000000000000000000000000000600000000000000000000000000000000000000000000000000000000000000000000004000000000000000000000000000004000000008000000000000000000000000000000000000000000000000020000000000000000000800020000000000000000000010000000000000000000000000000000000000000000000000000000000000010000000000000000000000000000000000000000004000000000000000000000000000000000000002000000800000000000000000000000000000080000000000000020000000000000000000000000000000000000000000000000000000000000000000",
      "type": "0x2",
      "transactionHash": "0x8c3f0e8f51c7570a3e0da5379033095a4d11b3f1ca14b35db20322a0a277d111",
      "transactionIndex": "0x75",
      "blockHash": "0x81dfa6c99b5c256eb60a4c44cd386d3e19174a7f8e89bc62339c8496095d48b0",
      "blockNumber": "0x731ad3",
      "gasUsed": "0xfd33",
      "effectiveGasPrice": "0x89db8c37",
      "from": "0xc77f7fed3b5cc8249adc428c5f44c9063b9734b4",
      "to": "0x8aafd3ede9adb0ff97c7aebce82a919afb1c8764",
      "contractAddress": null
    }
  ],
  "libraries": [],
  "pending": [],
  "returns": {},
  "timestamp": 1737506486,
  "chain": 11155111,
  "commit": "1d2fb70"
}