{
  "transactions": [
    {
      "hash": "0x2b654e61c9270bd78c454dc888869bb2a0762600f0a1e311e893d6d3b28d9cd0",
      "transactionType": "CALL",
      "contractName": null,
      "contractAddress": "0x270e88f8683660553e8ba4eb2ad7c91a1710d769",
      "function": "buy(address)",
      "arguments": [
        "0xC77f7fed3b5Cc8249aDc428c5F44C9063B9734b4"
      ],
      "transaction": {
        "from": "0xc77f7fed3b5cc8249adc428c5f44c9063b9734b4",
        "to": "0x270e88f8683660553e8ba4eb2ad7c91a1710d769",
        "gas": "0x1b30c",
        "value": "0xde0b6b3a7640000",
        "input": "0xf088d547000000000000000000000000c77f7fed3b5cc8249adc428c5f44c9063b9734b4",
        "nonce": "0x887",
        "chainId": "0xaa36a7"
      },
      "additionalContracts": [],
      "isFixedGasLimit": false
    }
  ],
  "receipts": [
    {
      "status": "0x1",
      "cumulativeGasUsed": "0x1861774",
      "logs": [
        {
          "address": "0x270e88f8683660553e8ba4eb2ad7c91a1710d769",
          "topics": [
            "0xddf252ad1be2c89b69c2b068fc378daa952ba7f163c4a11628f55a4df523b3ef",
            "0x0000000000000000000000000000000000000000000000000000000000000000",
            "0x000000000000000000000000c77f7fed3b5cc8249adc428c5f44c9063b9734b4"
          ],
          "data": "0x0000000000000000000000000000000000000000000000267546965610eb3b8c",
          "blockHash": "0x0b0726fb2aa6af6edebce1f366e01a522bd170f7033b71f7cfb7e05aa48f293e",
          "blockNumber": "0x7255e3",
          "transactionHash": "0x2b654e61c9270bd78c454dc888869bb2a0762600f0a1e311e893d6d3b28d9cd0",
          "transactionIndex": "0x57",
          "logIndex": "0x127",
          "removed": false
        },
        {
          "address": "0x270e88f8683660553e8ba4eb2ad7c91a1710d769",
          "topics": [
            "0xddf252ad1be2c89b69c2b068fc378daa952ba7f163c4a11628f55a4df523b3ef",
            "0x0000000000000000000000000000000000000000000000000000000000000000",
            "0x000000000000000000000000c77f7fed3b5cc8249adc428c5f44c9063b9734b4"
          ],
          "data": "0x0000000000000000000000000000000000000000000000001ddd3142dd492ffd",
          "blockHash": "0x0b0726fb2aa6af6edebce1f366e01a522bd170f7033b71f7cfb7e05aa48f293e",
          "blockNumber": "0x7255e3",
          "transactionHash": "0x2b654e61c9270bd78c454dc888869bb2a0762600f0a1e311e893d6d3b28d9cd0",
          "transactionIndex": "0x57",
          "logIndex": "0x128",
          "removed": false
        },
        {
          "address": "0x270e88f8683660553e8ba4eb2ad7c91a1710d769",
          "topics": [
            "0x4afcb4a87cdbd9974efdb92ee48bc8d7cd0ae4bf217004db3d080cbaee652ca7"
          ],
          "data": "0x000000000000000000000000000000000000000000000000000000006786f8ac0000000000000000000000000000000000000000000000000004f54c492b4df30000000000000000000000000000000000000000000000000de0b6b3a7640000",
          "blockHash": "0x0b0726fb2aa6af6edebce1f366e01a522bd170f7033b71f7cfb7e05aa48f293e",
          "blockNumber": "0x7255e3",
          "transactionHash": "0x2b654e61c9270bd78c454dc888869bb2a0762600f0a1e311e893d6d3b28d9cd0",
          "transactionIndex": "0x57",
          "logIndex": "0x129",
          "removed": false
        }
      ],
      "logsBloom": "0x00000000000000000000000000000000000000000000000000000000000000000000000000000000000000000000000020000000000000004000000000000000000000000000000000000008000000000000000000000000000000000000000000000000020000000000000000000800020000000000000000000010000000000000000000010000000000000000000000000000000000000000010000000000000000000000000000000000000000004000000000000000000000000000000000000002000000800000000000000000000000000000080000008000000020000000000000000000000000000000000000000000000000000000000000000000",
      "type": "0x2",
      "transactionHash": "0x2b654e61c9270bd78c454dc888869bb2a0762600f0a1e311e893d6d3b28d9cd0",
      "transactionIndex": "0x57",
      "blockHash": "0x0b0726fb2aa6af6edebce1f366e01a522bd170f7033b71f7cfb7e05aa48f293e",
      "blockNumber": "0x7255e3",
      "gasUsed": "0x13af8",
      "effectiveGasPrice": "0xd1091dcb",
      "from": "0xc77f7fed3b5cc8249adc428c5f44c9063b9734b4",
      "to": "0x270e88f8683660553e8ba4eb2ad7c91a1710d769",
      "contractAddress": null
    }
  ],
  "libraries": [],
  "pending": [],
  "returns": {},
  "timestamp": 1736898732,
  "chain": 11155111,
  "commit": "51a374b"
}