{
  "transactions": [
    {
      "hash": "0x633b31732edf32ae972129c2b130b00fc06aa2d1685bb7920c142625a076a840",
      "transactionType": "CALL",
      "contractName": null,
      "contractAddress": "0xbf4a322f1496e5c3d34a9bcdb4c60567b38c7de2",
      "function": "sell(uint256)",
      "arguments": [
        "988244821069678460726"
      ],
      "transaction": {
        "from": "0xc77f7fed3b5cc8249adc428c5f44c9063b9734b4",
        "to": "0xbf4a322f1496e5c3d34a9bcdb4c60567b38c7de2",
        "gas": "0x16fea",
        "value": "0x0",
        "input": "0xe4849b3200000000000000000000000000000000000000000000003592a6e4d141a73f36",
        "nonce": "0x9b7",
        "chainId": "0xaa36a7"
      },
      "additionalContracts": [],
      "isFixedGasLimit": false
    }
  ],
  "receipts": [
    {
      "status": "0x1",
      "cumulativeGasUsed": "0x1040f87",
      "logs": [
        {
          "address": "0xbf4a322f1496e5c3d34a9bcdb4c60567b38c7de2",
          "topics": [
            "0xddf252ad1be2c89b69c2b068fc378daa952ba7f163c4a11628f55a4df523b3ef",
            "0x000000000000000000000000c77f7fed3b5cc8249adc428c5f44c9063b9734b4",
            "0x0000000000000000000000000000000000000000000000000000000000000000"
          ],
          "data": "0x00000000000000000000000000000000000000000000003592a6e4d141a73f36",
          "blockHash": "0xdb5a322f6bef30ef9c3a855fa70bb511d24a44656bff880d533ae6731d8f49a8",
          "blockNumber": "0x725962",
          "transactionHash": "0x633b31732edf32ae972129c2b130b00fc06aa2d1685bb7920c142625a076a840",
          "transactionIndex": "0x6c",
          "logIndex": "0xcd",
          "removed": false
        },
        {
          "address": "0xbf4a322f1496e5c3d34a9bcdb4c60567b38c7de2",
          "topics": [
            "0x4afcb4a87cdbd9974efdb92ee48bc8d7cd0ae4bf217004db3d080cbaee652ca7"
          ],
          "data": "0x00000000000000000000000000000000000000000000000000000000678722c4000000000000000000000000000000000000000000000000000391e622f5124d0000000000000000000000000000000000000000000000000dc7e3f53c4dfcf9",
          "blockHash": "0xdb5a322f6bef30ef9c3a855fa70bb511d24a44656bff880d533ae6731d8f49a8",
          "blockNumber": "0x725962",
          "transactionHash": "0x633b31732edf32ae972129c2b130b00fc06aa2d1685bb7920c142625a076a840",
          "transactionIndex": "0x6c",
          "logIndex": "0xce",
          "removed": false
        }
      ],
      "logsBloom": "0x00000000000000000000000000000000000000000000000000000000000000000000000000000000000000000000000000000000000000004000000000000000000000000000000000000008000000000000001000000000000000000000000000000000020000000000000000000800020000000000000000000010000000000000000000000000000000000000000000000000000008000000010000000000000000000000000000000000000000004000000000000000000000000000000000000002000000800000000000001000000000000000080000000000000020000000000000000000000000000000000000000000000000000000000000000000",
      "type": "0x2",
      "transactionHash": "0x633b31732edf32ae972129c2b130b00fc06aa2d1685bb7920c142625a076a840",
      "transactionIndex": "0x6c",
      "blockHash": "0xdb5a322f6bef30ef9c3a855fa70bb511d24a44656bff880d533ae6731d8f49a8",
      "blockNumber": "0x725962",
      "gasUsed": "0xfb91",
      "effectiveGasPrice": "0x281c2a2f9",
      "from": "0xc77f7fed3b5cc8249adc428c5f44c9063b9734b4",
      "to": "0xbf4a322f1496e5c3d34a9bcdb4c60567b38c7de2",
      "contractAddress": null
    }
  ],
  "libraries": [],
  "pending": [],
  "returns": {},
  "timestamp": 1736909509,
  "chain": 11155111,
  "commit": "51a374b"
}