{
  "transactions": [
    {
      "hash": "0x279c7202d8b3c2dbf349c0b8e2da21e09676d0901abc6d7fd9769cb12dd2902a",
      "transactionType": "CALL",
      "contractName": null,
      "contractAddress": "0xbf4a322f1496e5c3d34a9bcdb4c60567b38c7de2",
      "function": "sell(uint256)",
      "arguments": [
        "974963481180912945419"
      ],
      "transaction": {
        "from": "0xc77f7fed3b5cc8249adc428c5f44c9063b9734b4",
        "to": "0xbf4a322f1496e5c3d34a9bcdb4c60567b38c7de2",
        "gas": "0x16fea",
        "value": "0x0",
        "input": "0xe4849b32000000000000000000000000000000000000000000000034da56188e5e8f090b",
        "nonce": "0xd91",
        "chainId": "0xaa36a7"
      },
      "additionalContracts": [],
      "isFixedGasLimit": false
    }
  ],
  "receipts": [
    {
      "status": "0x1",
      "cumulativeGasUsed": "0x99cdb0",
      "logs": [
        {
          "address": "0xbf4a322f1496e5c3d34a9bcdb4c60567b38c7de2",
          "topics": [
            "0xddf252ad1be2c89b69c2b068fc378daa952ba7f163c4a11628f55a4df523b3ef",
            "0x000000000000000000000000c77f7fed3b5cc8249adc428c5f44c9063b9734b4",
            "0x0000000000000000000000000000000000000000000000000000000000000000"
          ],
          "data": "0x000000000000000000000000000000000000000000000034da56188e5e8f090b",
          "blockHash": "0xed1fcc4a204e44f14b033f242f9b4a9ac40431d5f7c82fa343c128473b83de47",
          "blockNumber": "0x726665",
          "transactionHash": "0x279c7202d8b3c2dbf349c0b8e2da21e09676d0901abc6d7fd9769cb12dd2902a",
          "transactionIndex": "0x51",
          "logIndex": "0x8c",
          "removed": false
        },
        {
          "address": "0xbf4a322f1496e5c3d34a9bcdb4c60567b38c7de2",
          "topics": [
            "0x4afcb4a87cdbd9974efdb92ee48bc8d7cd0ae4bf217004db3d080cbaee652ca7"
          ],
          "data": "0x000000000000000000000000000000000000000000000000000000006787bf8400000000000000000000000000000000000000000000000000039e591e8542b50000000000000000000000000000000000000000000000000dc7e3d65b2deacd",
          "blockHash": "0xed1fcc4a204e44f14b033f242f9b4a9ac40431d5f7c82fa343c128473b83de47",
          "blockNumber": "0x726665",
          "transactionHash": "0x279c7202d8b3c2dbf349c0b8e2da21e09676d0901abc6d7fd9769cb12dd2902a",
          "transactionIndex": "0x51",
          "logIndex": "0x8d",
          "removed": false
        }
      ],
      "logsBloom": "0x00000000000000000000000000000000000000000000000000000000000000000000000000000000000000000000000000000000000000004000000000000000000000000000000000000008000000000000001000000000000000000000000000000000020000000000000000000800020000000000000000000010000000000000000000000000000000000000000000000000000008000000010000000000000000000000000000000000000000004000000000000000000000000000000000000002000000800000000000001000000000000000080000000000000020000000000000000000000000000000000000000000000000000000000000000000",
      "type": "0x2",
      "transactionHash": "0x279c7202d8b3c2dbf349c0b8e2da21e09676d0901abc6d7fd9769cb12dd2902a",
      "transactionIndex": "0x51",
      "blockHash": "0xed1fcc4a204e44f14b033f242f9b4a9ac40431d5f7c82fa343c128473b83de47",
      "blockNumber": "0x726665",
      "gasUsed": "0xfb91",
      "effectiveGasPrice": "0x992b0219",
      "from": "0xc77f7fed3b5cc8249adc428c5f44c9063b9734b4",
      "to": "0xbf4a322f1496e5c3d34a9bcdb4c60567b38c7de2",
      "contractAddress": null
    }
  ],
  "libraries": [],
  "pending": [],
  "returns": {},
  "timestamp": 1736949637,
  "chain": 11155111,
  "commit": "51a374b"
}