{
  "transactions": [
    {
      "hash": "0xe7654831e650c68dae550c8d1317ff98d0f936f3077b2cf0a3e3236876c3133b",
      "transactionType": "CALL",
      "contractName": null,
      "contractAddress": "0x270e88f8683660553e8ba4eb2ad7c91a1710d769",
      "function": "sell(uint256)",
      "arguments": [
        "967787321943149409576"
      ],
      "transaction": {
        "from": "0xc77f7fed3b5cc8249adc428c5f44c9063b9734b4",
        "to": "0x270e88f8683660553e8ba4eb2ad7c91a1710d769",
        "gas": "0x16fec",
        "value": "0x0",
        "input": "0xe4849b3200000000000000000000000000000000000000000000003476bf41c014067528",
        "nonce": "0x577",
        "chainId": "0xaa36a7"
      },
      "additionalContracts": [],
      "isFixedGasLimit": false
    }
  ],
  "receipts": [
    {
      "status": "0x1",
      "cumulativeGasUsed": "0x1627fb1",
      "logs": [
        {
          "address": "0x270e88f8683660553e8ba4eb2ad7c91a1710d769",
          "topics": [
            "0xddf252ad1be2c89b69c2b068fc378daa952ba7f163c4a11628f55a4df523b3ef",
            "0x000000000000000000000000c77f7fed3b5cc8249adc428c5f44c9063b9734b4",
            "0x0000000000000000000000000000000000000000000000000000000000000000"
          ],
          "data": "0x00000000000000000000000000000000000000000000003476bf41c014067528",
          "blockHash": "0xa6b2d7cfc6e1fa4d6740d3a2122ec69c9ba1aa0fafbba4080231010411b8b490",
          "blockNumber": "0x725221",
          "transactionHash": "0xe7654831e650c68dae550c8d1317ff98d0f936f3077b2cf0a3e3236876c3133b",
          "transactionIndex": "0x89",
          "logIndex": "0xce",
          "removed": false
        },
        {
          "address": "0x270e88f8683660553e8ba4eb2ad7c91a1710d769",
          "topics": [
            "0x4afcb4a87cdbd9974efdb92ee48bc8d7cd0ae4bf217004db3d080cbaee652ca7"
          ],
          "data": "0x000000000000000000000000000000000000000000000000000000006786cb7c0000000000000000000000000000000000000000000000000003a57bef64960b0000000000000000000000000000000000000000000000000dc83ffc8194da5d",
          "blockHash": "0xa6b2d7cfc6e1fa4d6740d3a2122ec69c9ba1aa0fafbba4080231010411b8b490",
          "blockNumber": "0x725221",
          "transactionHash": "0xe7654831e650c68dae550c8d1317ff98d0f936f3077b2cf0a3e3236876c3133b",
          "transactionIndex": "0x89",
          "logIndex": "0xcf",
          "removed": false
        }
      ],
      "logsBloom": "0x00000000000000000000000000000000000000000000000000000000000000000000000000000000000000000000000020000000000000004000000000000000000000000000000000000008000000000000000000000000000000000000000000000000020000000000000000000800020000000000000000000010000000000000000000010000000000000000000000000000000000000000010000000000000000000000000000000000000000004000000000000000000000000000000000000002000000800000000000000000000000000000080000008000000020000000000000000000000000000000000000000000000000000000000000000000",
      "type": "0x2",
      "transactionHash": "0xe7654831e650c68dae550c8d1317ff98d0f936f3077b2cf0a3e3236876c3133b",
      "transactionIndex": "0x89",
      "blockHash": "0xa6b2d7cfc6e1fa4d6740d3a2122ec69c9ba1aa0fafbba4080231010411b8b490",
      "blockNumber": "0x725221",
      "gasUsed": "0xfb93",
      "effectiveGasPrice": "0x426bdf683",
      "from": "0xc77f7fed3b5cc8249adc428c5f44c9063b9734b4",
      "to": "0x270e88f8683660553e8ba4eb2ad7c91a1710d769",
      "contractAddress": null
    }
  ],
  "libraries": [],
  "pending": [],
  "returns": {},
  "timestamp": 1736887167,
  "chain": 11155111,
  "commit": "51a374b"
}