{
  "transactions": [
    {
      "hash": "0xcaf87b56b48060df96751eef4b217ad0182e5d4ba4283a0fc5a6537e96ddf6e4",
      "transactionType": "CALL",
      "contractName": null,
      "contractAddress": "0xbf4a322f1496e5c3d34a9bcdb4c60567b38c7de2",
      "function": "sell(uint256)",
      "arguments": [
        "982489499880446142298"
      ],
      "transaction": {
        "from": "0xc77f7fed3b5cc8249adc428c5f44c9063b9734b4",
        "to": "0xbf4a322f1496e5c3d34a9bcdb4c60567b38c7de2",
        "gas": "0x16fea",
        "value": "0x0",
        "input": "0xe4849b3200000000000000000000000000000000000000000000003542c7e2b0552ea75a",
        "nonce": "0xb5f",
        "chainId": "0xaa36a7"
      },
      "additionalContracts": [],
      "isFixedGasLimit": false
    }
  ],
  "receipts": [
    {
      "status": "0x1",
      "cumulativeGasUsed": "0xe8559b",
      "logs": [
        {
          "address": "0xbf4a322f1496e5c3d34a9bcdb4c60567b38c7de2",
          "topics": [
            "0xddf252ad1be2c89b69c2b068fc378daa952ba7f163c4a11628f55a4df523b3ef",
            "0x000000000000000000000000c77f7fed3b5cc8249adc428c5f44c9063b9734b4",
            "0x0000000000000000000000000000000000000000000000000000000000000000"
          ],
          "data": "0x00000000000000000000000000000000000000000000003542c7e2b0552ea75a",
          "blockHash": "0xbf9aa3f0e0af33a4188252aebb16fd4a035beff13f5832456a7f0885c1767f9b",
          "blockNumber": "0x725b69",
          "transactionHash": "0xcaf87b56b48060df96751eef4b217ad0182e5d4ba4283a0fc5a6537e96ddf6e4",
          "transactionIndex": "0x72",
          "logIndex": "0xb8",
          "removed": false
        },
        {
          "address": "0xbf4a322f1496e5c3d34a9bcdb4c60567b38c7de2",
          "topics": [
            "0x4afcb4a87cdbd9974efdb92ee48bc8d7cd0ae4bf217004db3d080cbaee652ca7"
          ],
          "data": "0x0000000000000000000000000000000000000000000000000000000067873b480000000000000000000000000000000000000000000000000003974099e215e10000000000000000000000000000000000000000000000000dc7e3e7dabe4325",
          "blockHash": "0xbf9aa3f0e0af33a4188252aebb16fd4a035beff13f5832456a7f0885c1767f9b",
          "blockNumber": "0x725b69",
          "transactionHash": "0xcaf87b56b48060df96751eef4b217ad0182e5d4ba4283a0fc5a6537e96ddf6e4",
          "transactionIndex": "0x72",
          "logIndex": "0xb9",
          "removed": false
        }
      ],
      "logsBloom": "0x00000000000000000000000000000000000000000000000000000000000000000000000000000000000000000000000000000000000000004000000000000000000000000000000000000008000000000000001000000000000000000000000000000000020000000000000000000800020000000000000000000010000000000000000000000000000000000000000000000000000008000000010000000000000000000000000000000000000000004000000000000000000000000000000000000002000000800000000000001000000000000000080000000000000020000000000000000000000000000000000000000000000000000000000000000000",
      "type": "0x2",
      "transactionHash": "0xcaf87b56b48060df96751eef4b217ad0182e5d4ba4283a0fc5a6537e96ddf6e4",
      "transactionIndex": "0x72",
      "blockHash": "0xbf9aa3f0e0af33a4188252aebb16fd4a035beff13f5832456a7f0885c1767f9b",
      "blockNumber": "0x725b69",
      "gasUsed": "0xfb91",
      "effectiveGasPrice": "0x3e072f34",
      "from": "0xc77f7fed3b5cc8249adc428c5f44c9063b9734b4",
      "to": "0xbf4a322f1496e5c3d34a9bcdb4c60567b38c7de2",
      "contractAddress": null
    }
  ],
  "libraries": [],
  "pending": [],
  "returns": {},
  "timestamp": 1736915786,
  "chain": 11155111,
  "commit": "51a374b"
}