{
  "transactions": [
    {
      "hash": "0xe653629704fc8add95a4d3335b578bf74a24b3bb18483a0480d45af1c386e292",
      "transactionType": "CALL",
      "contractName": null,
      "contractAddress": "0x8aafd3ede9adb0ff97c7aebce82a919afb1c8764",
      "function": "sell(uint256)",
      "arguments": [
        "1435110"
      ],
      "transaction": {
        "from": "0xc77f7fed3b5cc8249adc428c5f44c9063b9734b4",
        "to": "0x8aafd3ede9adb0ff97c7aebce82a919afb1c8764",
        "gas": "0x16208",
        "value": "0x0",
        "input": "0xe4849b32000000000000000000000000000000000000000000000000000000000015e5e6",
        "nonce": "0x11ce",
        "chainId": "0xaa36a7"
      },
      "additionalContracts": [],
      "isFixedGasLimit": false
    }
  ],
  "receipts": [
    {
      "status": "0x1",
      "cumulativeGasUsed": "0xbe9e72",
      "logs": [
        {
          "address": "0x8aafd3ede9adb0ff97c7aebce82a919afb1c8764",
          "topics": [
            "0xddf252ad1be2c89b69c2b068fc378daa952ba7f163c4a11628f55a4df523b3ef",
            "0x000000000000000000000000c77f7fed3b5cc8249adc428c5f44c9063b9734b4",
            "0x0000000000000000000000000000000000000000000000000000000000000000"
          ],
          "data": "0x000000000000000000000000000000000000000000000000000000000015b90e",
          "blockHash": "0x185c5ea9fdc253676dfa539af943f51dc42a73c1aa4a924279f745d3eefabd4c",
          "blockNumber": "0x7318a2",
          "transactionHash": "0xe653629704fc8add95a4d3335b578bf74a24b3bb18483a0480d45af1c386e292",
          "transactionIndex": "0x9a",
          "logIndex": "0xaa",
          "removed": false
        },
        {
          "address": "0x8aafd3ede9adb0ff97c7aebce82a919afb1c8764",
          "topics": [
            "0xddf252ad1be2c89b69c2b068fc378daa952ba7f163c4a11628f55a4df523b3ef",
            "0x000000000000000000000000c77f7fed3b5cc8249adc428c5f44c9063b9734b4",
            "0x000000000000000000000000c77f7fed3b5cc8249adc428c5f44c9063b9734b4"
          ],
          "data": "0x0000000000000000000000000000000000000000000000000000000000002cd8",
          "blockHash": "0x185c5ea9fdc253676dfa539af943f51dc42a73c1aa4a924279f745d3eefabd4c",
          "blockNumber": "0x7318a2",
          "transactionHash": "0xe653629704fc8add95a4d3335b578bf74a24b3bb18483a0480d45af1c386e292",
          "transactionIndex": "0x9a",
          "logIndex": "0xab",
          "removed": false
        },
        {
          "address": "0x8aafd3ede9adb0ff97c7aebce82a919afb1c8764",
          "topics": [
            "0x4afcb4a87cdbd9974efdb92ee48bc8d7cd0ae4bf217004db3d080cbaee652ca7"
          ],
          "data": "0x000000000000000000000000000000000000000000000000000000006790246800000000000000000000000000000000000000000000000000052936c471c75b0000000000000000000000000000000000000000000000000000000000000824",
          "blockHash": "0x185c5ea9fdc253676dfa539af943f51dc42a73c1aa4a924279f745d3eefabd4c",
          "blockNumber": "0x7318a2",
          "transactionHash": "0xe653629704fc8add95a4d3335b578bf74a24b3bb18483a0480d45af1c386e292",
          "transactionIndex": "0x9a",
          "logIndex": "0xac",
          "removed": false
        }
      ],
      "logsBloom": "0x00000000000000000000000000000000000000000600000000000000000000000000000000000000000000000000000000000000000000004000000000000000000000000000004000000008000000000000000000000000000000000000000000000000020000000000000000000800020000000000000000000010000000000000000000000000000000000000000000000000000000000000010000000000000000000000000000000000000000004000000000000000000000000000000000000002000000800000000000000000000000000000080000000000000020000000000000000000000000000000000000000000000000000000000000000000",
      "type": "0x2",
      "transactionHash": "0xe653629704fc8add95a4d3335b578bf74a24b3bb18483a0480d45af1c386e292",
      "transactionIndex": "0x9a",
      "blockHash": "0x185c5ea9fdc253676dfa539af943f51dc42a73c1aa4a924279f745d3eefabd4c",
      "blockNumber": "0x7318a2",
      "gasUsed": "0xf213",
      "effectiveGasPrice": "0x37418e3f",
      "from": "0xc77f7fed3b5cc8249adc428c5f44c9063b9734b4",
      "to": "0x8aafd3ede9adb0ff97c7aebce82a919afb1c8764",
      "contractAddress": null
    }
  ],
  "libraries": [],
  "pending": [],
  "returns": {},
  "timestamp": 1737499753,
  "chain": 11155111,
  "commit": "1d2fb70"
}