{
  "transactions": [
    {
      "hash": "0x4c00dcb5f79231f583f62dfab54303d663bf812567f14ec29a84dcf1edd5dd81",
      "transactionType": "CALL",
      "contractName": null,
      "contractAddress": "0xbf4a322f1496e5c3d34a9bcdb4c60567b38c7de2",
      "function": "buy(address)",
      "arguments": [
        "0xC77f7fed3b5Cc8249aDc428c5F44C9063B9734b4"
      ],
      "transaction": {
        "from": "0xc77f7fed3b5cc8249adc428c5f44c9063b9734b4",
        "to": "0xbf4a322f1496e5c3d34a9bcdb4c60567b38c7de2",
        "gas": "0x1b309",
        "value": "0xde0b6b3a7640000",
        "input": "0xf088d547000000000000000000000000c77f7fed3b5cc8249adc428c5f44c9063b9734b4",
        "nonce": "0x976",
        "chainId": "0xaa36a7"
      },
      "additionalContracts": [],
      "isFixedGasLimit": false
    }
  ],
  "receipts": [
    {
      "status": "0x1",
      "cumulativeGasUsed": "0x7535fe",
      "logs": [
        {
          "address": "0xbf4a322f1496e5c3d34a9bcdb4c60567b38c7de2",
          "topics": [
            "0xddf252ad1be2c89b69c2b068fc378daa952ba7f163c4a11628f55a4df523b3ef",
            "0x0000000000000000000000000000000000000000000000000000000000000000",
            "0x000000000000000000000000c77f7fed3b5cc8249adc428c5f44c9063b9734b4"
          ],
          "data": "0x0000000000000000000000000000000000000000000000357546f8c311dcca1a",
          "blockHash": "0x9fcb18182a861ab07f404bb41f6375749c78f9e615dcc048165ca8d44445ecf0",
          "blockNumber": "0x725911",
          "transactionHash": "0x4c00dcb5f79231f583f62dfab54303d663bf812567f14ec29a84dcf1edd5dd81",
          "transactionIndex": "0x55",
          "logIndex": "0x62",
          "removed": false
        },
        {
          "address": "0xbf4a322f1496e5c3d34a9bcdb4c60567b38c7de2",
          "topics": [
            "0xddf252ad1be2c89b69c2b068fc378daa952ba7f163c4a11628f55a4df523b3ef",
            "0x0000000000000000000000000000000000000000000000000000000000000000",
            "0x000000000000000000000000c77f7fed3b5cc8249adc428c5f44c9063b9734b4"
          ],
          "data": "0x000000000000000000000000000000000000000000000000298315a6af417cae",
          "blockHash": "0x9fcb18182a861ab07f404bb41f6375749c78f9e615dcc048165ca8d44445ecf0",
          "blockNumber": "0x725911",
          "transactionHash": "0x4c00dcb5f79231f583f62dfab54303d663bf812567f14ec29a84dcf1edd5dd81",
          "transactionIndex": "0x55",
          "logIndex": "0x63",
          "removed": false
        },
        {
          "address": "0xbf4a322f1496e5c3d34a9bcdb4c60567b38c7de2",
          "topics": [
            "0x4afcb4a87cdbd9974efdb92ee48bc8d7cd0ae4bf217004db3d080cbaee652ca7"
          ],
          "data": "0x0000000000000000000000000000000000000000000000000000000067871ef800000000000000000000000000000000000000000000000000039113235d8e290000000000000000000000000000000000000000000000000de0b6b3a7640000",
          "blockHash": "0x9fcb18182a861ab07f404bb41f6375749c78f9e615dcc048165ca8d44445ecf0",
          "blockNumber": "0x725911",
          "transactionHash": "0x4c00dcb5f79231f583f62dfab54303d663bf812567f14ec29a84dcf1edd5dd81",
          "transactionIndex": "0x55",
          "logIndex": "0x64",
          "removed": false
        }
      ],
      "logsBloom": "0x00000000000000000000000000000000000000000000000000000000000000000000000000000000000000000000000000000000000000004000000000000000000000000000000000000008000000000000001000000000000000000000000000000000020000000000000000000800020000000000000000000010000000000000000000000000000000000000000000000000000008000000010000000000000000000000000000000000000000004000000000000000000000000000000000000002000000800000000000001000000000000000080000000000000020000000000000000000000000000000000000000000000000000000000000000000",
      "type": "0x2",
      "transactionHash": "0x4c00dcb5f79231f583f62dfab54303d663bf812567f14ec29a84dcf1edd5dd81",
      "transactionIndex": "0x55",
      "blockHash": "0x9fcb18182a861ab07f404bb41f6375749c78f9e615dcc048165ca8d44445ecf0",
      "blockNumber": "0x725911",
      "gasUsed": "0x13af6",
      "effectiveGasPrice": "0xa85a41b5",
      "from": "0xc77f7fed3b5cc8249adc428c5f44c9063b9734b4",
      "to": "0xbf4a322f1496e5c3d34a9bcdb4c60567b38c7de2",
      "contractAddress": null
    }
  ],
  "libraries": [],
  "pending": [],
  "returns": {},
  "timestamp": 1736908537,
  "chain": 11155111,
  "commit": "51a374b"
}