{
  "transactions": [
    {
      "hash": "0xa3b1b571e7d7e30bfefa9cb681a658e0d75c7a87b23a476854347e8e2fd4c5e7",
      "transactionType": "CALL",
      "contractName": null,
      "contractAddress": "0x270e88f8683660553e8ba4eb2ad7c91a1710d769",
      "function": "buy(address)",
      "arguments": [
        "0xC77f7fed3b5Cc8249aDc428c5F44C9063B9734b4"
      ],
      "transaction": {
        "from": "0xc77f7fed3b5cc8249adc428c5f44c9063b9734b4",
        "to": "0x270e88f8683660553e8ba4eb2ad7c91a1710d769",
        "gas": "0x1b30c",
        "value": "0xde0b6b3a7640000",
        "input": "0xf088d547000000000000000000000000c77f7fed3b5cc8249adc428c5f44c9063b9734b4",
        "nonce": "0x77b",
        "chainId": "0xaa36a7"
      },
      "additionalContracts": [],
      "isFixedGasLimit": false
    }
  ],
  "receipts": [
    {
      "status": "0x1",
      "cumulativeGasUsed": "0x120fab6",
      "logs": [
        {
          "address": "0x270e88f8683660553e8ba4eb2ad7c91a1710d769",
          "topics": [
            "0xddf252ad1be2c89b69c2b068fc378daa952ba7f163c4a11628f55a4df523b3ef",
            "0x0000000000000000000000000000000000000000000000000000000000000000",
            "0x000000000000000000000000c77f7fed3b5cc8249adc428c5f44c9063b9734b4"
          ],
          "data": "0x000000000000000000000000000000000000000000000027af8598bbc53e6563",
          "blockHash": "0x16a431840a62f6784131b25d3795ee58d38877a5ac31f32c48957b8b1e5259ce",
          "blockNumber": "0x7254ab",
          "transactionHash": "0xa3b1b571e7d7e30bfefa9cb681a658e0d75c7a87b23a476854347e8e2fd4c5e7",
          "transactionIndex": "0x44",
          "logIndex": "0x7a",
          "removed": false
        },
        {
          "address": "0x270e88f8683660553e8ba4eb2ad7c91a1710d769",
          "topics": [
            "0xddf252ad1be2c89b69c2b068fc378daa952ba7f163c4a11628f55a4df523b3ef",
            "0x0000000000000000000000000000000000000000000000000000000000000000",
            "0x000000000000000000000000c77f7fed3b5cc8249adc428c5f44c9063b9734b4"
          ],
          "data": "0x0000000000000000000000000000000000000000000000001ed1371ba5b67712",
          "blockHash": "0x16a431840a62f6784131b25d3795ee58d38877a5ac31f32c48957b8b1e5259ce",
          "blockNumber": "0x7254ab",
          "transactionHash": "0xa3b1b571e7d7e30bfefa9cb681a658e0d75c7a87b23a476854347e8e2fd4c5e7",
          "transactionIndex": "0x44",
          "logIndex": "0x7b",
          "removed": false
        },
        {
          "address": "0x270e88f8683660553e8ba4eb2ad7c91a1710d769",
          "topics": [
            "0x4afcb4a87cdbd9974efdb92ee48bc8d7cd0ae4bf217004db3d080cbaee652ca7"
          ],
          "data": "0x000000000000000000000000000000000000000000000000000000006786ea0c0000000000000000000000000000000000000000000000000004ce0a50abe9c20000000000000000000000000000000000000000000000000de0b6b3a7640000",
          "blockHash": "0x16a431840a62f6784131b25d3795ee58d38877a5ac31f32c48957b8b1e5259ce",
          "blockNumber": "0x7254ab",
          "transactionHash": "0xa3b1b571e7d7e30bfefa9cb681a658e0d75c7a87b23a476854347e8e2fd4c5e7",
          "transactionIndex": "0x44",
          "logIndex": "0x7c",
          "removed": false
        }
      ],
      "logsBloom": "0x00000000000000000000000000000000000000000000000000000000000000000000000000000000000000000000000020000000000000004000000000000000000000000000000000000008000000000000000000000000000000000000000000000000020000000000000000000800020000000000000000000010000000000000000000010000000000000000000000000000000000000000010000000000000000000000000000000000000000004000000000000000000000000000000000000002000000800000000000000000000000000000080000008000000020000000000000000000000000000000000000000000000000000000000000000000",
      "type": "0x2",
      "transactionHash": "0xa3b1b571e7d7e30bfefa9cb681a658e0d75c7a87b23a476854347e8e2fd4c5e7",
      "transactionIndex": "0x44",
      "blockHash": "0x16a431840a62f6784131b25d3795ee58d38877a5ac31f32c48957b8b1e5259ce",
      "blockNumber": "0x7254ab",
      "gasUsed": "0x13af8",
      "effectiveGasPrice": "0x128f7a143",
      "from": "0xc77f7fed3b5cc8249adc428c5f44c9063b9734b4",
      "to": "0x270e88f8683660553e8ba4eb2ad7c91a1710d769",
      "contractAddress": null
    }
  ],
  "libraries": [],
  "pending": [],
  "returns": {},
  "timestamp": 1736894990,
  "chain": 11155111,
  "commit": "51a374b"
}