{
  "transactions": [
    {
      "hash": "0xd0cbf7bbce332d1b22410c6570e3c9a530905c009b1d3ed874599c6730c1f418",
      "transactionType": "CALL",
      "contractName": null,
      "contractAddress": "0x8aafd3ede9adb0ff97c7aebce82a919afb1c8764",
      "function": "sell(uint256)",
      "arguments": [
        "740188130216446097913"
      ],
      "transaction": {
        "from": "0xc77f7fed3b5cc8249adc428c5f44c9063b9734b4",
        "to": "0x8aafd3ede9adb0ff97c7aebce82a919afb1c8764",
        "gas": "0x17270",
        "value": "0x0",
        "input": "0xe4849b32000000000000000000000000000000000000000000000028202c7ebf3fd979f9",
        "nonce": "0xfc1",
        "chainId": "0xaa36a7"
      },
      "additionalContracts": [],
      "isFixedGasLimit": false
    }
  ],
  "receipts": [
    {
      "status": "0x1",
      "cumulativeGasUsed": "0xb5b495",
      "logs": [
        {
          "address": "0x8aafd3ede9adb0ff97c7aebce82a919afb1c8764",
          "topics": [
            "0xddf252ad1be2c89b69c2b068fc378daa952ba7f163c4a11628f55a4df523b3ef",
            "0x000000000000000000000000c77f7fed3b5cc8249adc428c5f44c9063b9734b4",
            "0x0000000000000000000000000000000000000000000000000000000000000000"
          ],
          "data": "0x000000000000000000000000000000000000000000000027cdff1548fbc1356a",
          "blockHash": "0xc83bdb825c41e8dd41454b4153fa800a56cb101627d29c35d878ae1708c6c02e",
          "blockNumber": "0x73162d",
          "transactionHash": "0xd0cbf7bbce332d1b22410c6570e3c9a530905c009b1d3ed874599c6730c1f418",
          "transactionIndex": "0x80",
          "logIndex": "0xd8",
          "removed": false
        },
        {
          "address": "0x8aafd3ede9adb0ff97c7aebce82a919afb1c8764",
          "topics": [
            "0xddf252ad1be2c89b69c2b068fc378daa952ba7f163c4a11628f55a4df523b3ef",
            "0x000000000000000000000000c77f7fed3b5cc8249adc428c5f44c9063b9734b4",
            "0x000000000000000000000000c77f7fed3b5cc8249adc428c5f44c9063b9734b4"
          ],
          "data": "0x000000000000000000000000000000000000000000000000522d69764418448f",
          "blockHash": "0xc83bdb825c41e8dd41454b4153fa800a56cb101627d29c35d878ae1708c6c02e",
          "blockNumber": "0x73162d",
          "transactionHash": "0xd0cbf7bbce332d1b22410c6570e3c9a530905c009b1d3ed874599c6730c1f418",
          "transactionIndex": "0x80",
          "logIndex": "0xd9",
          "removed": false
        },
        {
          "address": "0x8aafd3ede9adb0ff97c7aebce82a919afb1c8764",
          "topics": [
            "0x4afcb4a87cdbd9974efdb92ee48bc8d7cd0ae4bf217004db3d080cbaee652ca7"
          ],
          "data": "0x00000000000000000000000000000000000000000000000000000000679006c80000000000000000000000000000000000000000000000000004c4768e9e71c00000000000000000000000000000000000000000000000000dc8212338fe74fa",
          "blockHash": "0xc83bdb825c41e8dd41454b4153fa800a56cb101627d29c35d878ae1708c6c02e",
          "blockNumber": "0x73162d",
          "transactionHash": "0xd0cbf7bbce332d1b22410c6570e3c9a530905c009b1d3ed874599c6730c1f418",
          "transactionIndex": "0x80",
          "logIndex": "0xda",
          "removed": false
        }
      ],
      "logsBloom": "0x00000000000000000000000000000000000000000600000000000000000000000000000000000000000000000000000000000000000000004000000000000000000000000000004000000008000000000000000000000000000000000000000000000000020000000000000000000800020000000000000000000010000000000000000000000000000000000000000000000000000000000000010000000000000000000000000000000000000000004000000000000000000000000000000000000002000000800000000000000000000000000000080000000000000020000000000000000000000000000000000000000000000000000000000000000000",
      "type": "0x2",
      "transactionHash": "0xd0cbf7bbce332d1b22410c6570e3c9a530905c009b1d3ed874599c6730c1f418",
      "transactionIndex": "0x80",
      "blockHash": "0xc83bdb825c41e8dd41454b4153fa800a56cb101627d29c35d878ae1708c6c02e",
      "blockNumber": "0x73162d",
      "gasUsed": "0xfd4b",
      "effectiveGasPrice": "0x5ed8d507",
      "from": "0xc77f7fed3b5cc8249adc428c5f44c9063b9734b4",
      "to": "0x8aafd3ede9adb0ff97c7aebce82a919afb1c8764",
      "contractAddress": null
    }
  ],
  "libraries": [],
  "pending": [],
  "returns": {},
  "timestamp": 1737492169,
  "chain": 11155111,
  "commit": "1d2fb70"
}