{
  "transactions": [
    {
      "hash": "0x630343cdefaaace630c10a37e04f240cebf065ef318b75dace5a652796c19471",
      "transactionType": "CALL",
      "contractName": null,
      "contractAddress": "0x8aafd3ede9adb0ff97c7aebce82a919afb1c8764",
      "function": "sell(uint256)",
      "arguments": [
        "39562349"
      ],
      "transaction": {
        "from": "0xc77f7fed3b5cc8249adc428c5f44c9063b9734b4",
        "to": "0x8aafd3ede9adb0ff97c7aebce82a919afb1c8764",
        "gas": "0x15d88",
        "value": "0x0",
        "input": "0xe4849b3200000000000000000000000000000000000000000000000000000000025bac6d",
        "nonce": "0x172a",
        "chainId": "0xaa36a7"
      },
      "additionalContracts": [],
      "isFixedGasLimit": false
    }
  ],
  "receipts": [
    {
      "status": "0x1",
      "cumulativeGasUsed": "0xa6f901",
      "logs": [
        {
          "address": "0x8aafd3ede9adb0ff97c7aebce82a919afb1c8764",
          "topics": [
            "0xddf252ad1be2c89b69c2b068fc378daa952ba7f163c4a11628f55a4df523b3ef",
            "0x000000000000000000000000c77f7fed3b5cc8249adc428c5f44c9063b9734b4",
            "0x0000000000000000000000000000000000000000000000000000000000000000"
          ],
          "data": "0x000000000000000000000000000000000000000000000000000000000256d81b",
          "blockHash": "0x92d5dc88f3354110e1d9780c5fd43bf24b0d61498197850e5d0cc08d90f376bc",
          "blockNumber": "0x731ef3",
          "transactionHash": "0x630343cdefaaace630c10a37e04f240cebf065ef318b75dace5a652796c19471",
          "transactionIndex": "0x61",
          "logIndex": "0x91",
          "removed": false
        },
        {
          "address": "0x8aafd3ede9adb0ff97c7aebce82a919afb1c8764",
          "topics": [
            "0xddf252ad1be2c89b69c2b068fc378daa952ba7f163c4a11628f55a4df523b3ef",
            "0x000000000000000000000000c77f7fed3b5cc8249adc428c5f44c9063b9734b4",
            "0x000000000000000000000000c77f7fed3b5cc8249adc428c5f44c9063b9734b4"
          ],
          "data": "0x000000000000000000000000000000000000000000000000000000000004d452",
          "blockHash": "0x92d5dc88f3354110e1d9780c5fd43bf24b0d61498197850e5d0cc08d90f376bc",
          "blockNumber": "0x731ef3",
          "transactionHash": "0x630343cdefaaace630c10a37e04f240cebf065ef318b75dace5a652796c19471",
          "transactionIndex": "0x61",
          "logIndex": "0x92",
          "removed": false
        },
        {
          "address": "0x8aafd3ede9adb0ff97c7aebce82a919afb1c8764",
          "topics": [
            "0x4afcb4a87cdbd9974efdb92ee48bc8d7cd0ae4bf217004db3d080cbaee652ca7"
          ],
          "data": "0x000000000000000000000000000000000000000000000000000000006790704c00000000000000000000000000000000000000000000000000177b2f1e904eab000000000000000000000000000000000000000000000000000000000003fd6a",
          "blockHash": "0x92d5dc88f3354110e1d9780c5fd43bf24b0d61498197850e5d0cc08d90f376bc",
          "blockNumber": "0x731ef3",
          "transactionHash": "0x630343cdefaaace630c10a37e04f240cebf065ef318b75dace5a652796c19471",
          "transactionIndex": "0x61",
          "logIndex": "0x93",
          "removed": false
        }
      ],
      "logsBloom": "0x00000000000000000000000000000000000000000600000000000000000000000000000000000000000000000000000000000000000000004000000000000000000000000000004000000008000000000000000000000000000000000000000000000000020000000000000000000800020000000000000000000010000000000000000000000000000000000000000000000000000000000000010000000000000000000000000000000000000000004000000000000000000000000000000000000002000000800000000000000000000000000000080000000000000020000000000000000000000000000000000000000000000000000000000000000000",
      "type": "0x2",
      "transactionHash": "0x630343cdefaaace630c10a37e04f240cebf065ef318b75dace5a652796c19471",
      "transactionIndex": "0x61",
      "blockHash": "0x92d5dc88f3354110e1d9780c5fd43bf24b0d61498197850e5d0cc08d90f376bc",
      "blockNumber": "0x731ef3",
      "gasUsed": "0xfd0f",
      "effectiveGasPrice": "0x413a4c86",
      "from": "0xc77f7fed3b5cc8249adc428c5f44c9063b9734b4",
      "to": "0x8aafd3ede9adb0ff97c7aebce82a919afb1c8764",
      "contractAddress": null
    }
  ],
  "libraries": [],
  "pending": [],
  "returns": {},
  "timestamp": 1737519181,
  "chain": 11155111,
  "commit": "1d2fb70"
}