{
  "transactions": [
    {
      "hash": "0xd69d2e45364848e52a09f6465150a2bbc29c3e6d243bb92cd36fe3ed0f2e3d65",
      "transactionType": "CALL",
      "contractName": null,
      "contractAddress": "0x8aafd3ede9adb0ff97c7aebce82a919afb1c8764",
      "function": "buy(address)",
      "arguments": [
        "0xC77f7fed3b5Cc8249aDc428c5F44C9063B9734b4"
      ],
      "transaction": {
        "from": "0xc77f7fed3b5cc8249adc428c5f44c9063b9734b4",
        "to": "0x8aafd3ede9adb0ff97c7aebce82a919afb1c8764",
        "gas": "0x156ea",
        "value": "0xde0b6b3a7640000",
        "input": "0xf088d547000000000000000000000000c77f7fed3b5cc8249adc428c5f44c9063b9734b4",
        "nonce": "0xf52",
        "chainId": "0xaa36a7"
      },
      "additionalContracts": [],
      "isFixedGasLimit": false
    }
  ],
  "receipts": [
    {
      "status": "0x1",
      "cumulativeGasUsed": "0x1265818",
      "logs": [
        {
          "address": "0x8aafd3ede9adb0ff97c7aebce82a919afb1c8764",
          "topics": [
            "0xddf252ad1be2c89b69c2b068fc378daa952ba7f163c4a11628f55a4df523b3ef",
            "0x0000000000000000000000000000000000000000000000000000000000000000",
            "0x000000000000000000000000c77f7fed3b5cc8249adc428c5f44c9063b9734b4"
          ],
          "data": "0x0000000000000000000000000000000000000000000000281f797a3ac4461c37",
          "blockHash": "0xc7c0874ca28578851a2c71b01534d8a616cc51b3a805f2fc4c3f9b91d7d2b738",
          "blockNumber": "0x7315ad",
          "transactionHash": "0xd69d2e45364848e52a09f6465150a2bbc29c3e6d243bb92cd36fe3ed0f2e3d65",
          "transactionIndex": "0x9e",
          "logIndex": "0xf0",
          "removed": false
        },
        {
          "address": "0x8aafd3ede9adb0ff97c7aebce82a919afb1c8764",
          "topics": [
            "0xddf252ad1be2c89b69c2b068fc378daa952ba7f163c4a11628f55a4df523b3ef",
            "0x0000000000000000000000000000000000000000000000000000000000000000",
            "0x000000000000000000000000c77f7fed3b5cc8249adc428c5f44c9063b9734b4"
          ],
          "data": "0x0000000000000000000000000000000000000000000000001f28267ba9a7943d",
          "blockHash": "0xc7c0874ca28578851a2c71b01534d8a616cc51b3a805f2fc4c3f9b91d7d2b738",
          "blockNumber": "0x7315ad",
          "transactionHash": "0xd69d2e45364848e52a09f6465150a2bbc29c3e6d243bb92cd36fe3ed0f2e3d65",
          "transactionIndex": "0x9e",
          "logIndex": "0xf1",
          "removed": false
        },
        {
          "address": "0x8aafd3ede9adb0ff97c7aebce82a919afb1c8764",
          "topics": [
            "0x4afcb4a87cdbd9974efdb92ee48bc8d7cd0ae4bf217004db3d080cbaee652ca7"
          ],
          "data": "0x00000000000000000000000000000000000000000000000000000000679000c80000000000000000000000000000000000000000000000000004c09ff17566620000000000000000000000000000000000000000000000000de0b6b3a7640000",
          "blockHash": "0xc7c0874ca28578851a2c71b01534d8a616cc51b3a805f2fc4c3f9b91d7d2b738",
          "blockNumber": "0x7315ad",
          "transactionHash": "0xd69d2e45364848e52a09f6465150a2bbc29c3e6d243bb92cd36fe3ed0f2e3d65",
          "transactionIndex": "0x9e",
          "logIndex": "0xf2",
          "removed": false
        }
      ],
      "logsBloom": "0x00000000000000000000000000000000000000000600000000000000000000000000000000000000000000000000000000000000000000004000000000000000000000000000004000000008000000000000000000000000000000000000000000000000020000000000000000000800020000000000000000000010000000000000000000000000000000000000000000000000000000000000010000000000000000000000000000000000000000004000000000000000000000000000000000000002000000800000000000000000000000000000080000000000000020000000000000000000000000000000000000000000000000000000000000000000",
      "type": "0x2",
      "transactionHash": "0xd69d2e45364848e52a09f6465150a2bbc29c3e6d243bb92cd36fe3ed0f2e3d65",
      "transactionIndex": "0x9e",
      "blockHash": "0xc7c0874ca28578851a2c71b01534d8a616cc51b3a805f2fc4c3f9b91d7d2b738",
      "blockNumber": "0x7315ad",
      "gasUsed": "0xf844",
      "effectiveGasPrice": "0x78c674ca",
      "from": "0xc77f7fed3b5cc8249adc428c5f44c9063b9734b4",
      "to": "0x8aafd3ede9adb0ff97c7aebce82a919afb1c8764",
      "contractAddress": null
    }
  ],
  "libraries": [],
  "pending": [],
  "returns": {},
  "timestamp": 1737490634,
  "chain": 11155111,
  "commit": "1d2fb70"
}