{
  "transactions": [
    {
      "hash": "0x6765d6ec9751dcee71f366169667e9a826b2d7566855652f33873ecca6d70d83",
      "transactionType": "CALL",
      "contractName": null,
      "contractAddress": "0x5eb9cc76c3506942c1c0ead70e877dd5e4f00cb0",
      "function": "buy(address)",
      "arguments": [
        "0xC77f7fed3b5Cc8249aDc428c5F44C9063B9734b4"
      ],
      "transaction": {
        "from": "0xc77f7fed3b5cc8249adc428c5f44c9063b9734b4",
        "to": "0x5eb9cc76c3506942c1c0ead70e877dd5e4f00cb0",
        "gas": "0x156c8",
        "value": "0xde0b6b3a7640000",
        "input": "0xf088d547000000000000000000000000c77f7fed3b5cc8249adc428c5f44c9063b9734b4",
        "nonce": "0x1f6",
        "chainId": "0xaa36a7"
      },
      "additionalContracts": [],
      "isFixedGasLimit": false
    }
  ],
  "receipts": [
    {
      "status": "0x1",
      "cumulativeGasUsed": "0x889734",
      "logs": [
        {
          "address": "0x5eb9cc76c3506942c1c0ead70e877dd5e4f00cb0",
          "topics": [
            "0xddf252ad1be2c89b69c2b068fc378daa952ba7f163c4a11628f55a4df523b3ef",
            "0x0000000000000000000000000000000000000000000000000000000000000000",
            "0x000000000000000000000000c77f7fed3b5cc8249adc428c5f44c9063b9734b4"
          ],
          "data": "0x00000000000000000000000000000000000000000000003584c11644c8c85594",
          "blockHash": "0x2596c7f940e602edc64d3abef7c04ecd6b55e3b0957980596577ce581c8717e5",
          "blockNumber": "0x724b0e",
          "transactionHash": "0x6765d6ec9751dcee71f366169667e9a826b2d7566855652f33873ecca6d70d83",
          "transactionIndex": "0x4b",
          "logIndex": "0x5b",
          "removed": false
        },
        {
          "address": "0x5eb9cc76c3506942c1c0ead70e877dd5e4f00cb0",
          "topics": [
            "0xddf252ad1be2c89b69c2b068fc378daa952ba7f163c4a11628f55a4df523b3ef",
            "0x0000000000000000000000000000000000000000000000000000000000000000",
            "0x000000000000000000000000c77f7fed3b5cc8249adc428c5f44c9063b9734b4"
          ],
          "data": "0x000000000000000000000000000000000000000000000000298f1a5e66f8c5bf",
          "blockHash": "0x2596c7f940e602edc64d3abef7c04ecd6b55e3b0957980596577ce581c8717e5",
          "blockNumber": "0x724b0e",
          "transactionHash": "0x6765d6ec9751dcee71f366169667e9a826b2d7566855652f33873ecca6d70d83",
          "transactionIndex": "0x4b",
          "logIndex": "0x5c",
          "removed": false
        },
        {
          "address": "0x5eb9cc76c3506942c1c0ead70e877dd5e4f00cb0",
          "topics": [
            "0x4afcb4a87cdbd9974efdb92ee48bc8d7cd0ae4bf217004db3d080cbaee652ca7"
          ],
          "data": "0x000000000000000000000000000000000000000000000000000000006786765000000000000000000000000000000000000000000000000000039008c9b7bd500000000000000000000000000000000000000000000000000de0b6b3a7640000",
          "blockHash": "0x2596c7f940e602edc64d3abef7c04ecd6b55e3b0957980596577ce581c8717e5",
          "blockNumber": "0x724b0e",
          "transactionHash": "0x6765d6ec9751dcee71f366169667e9a826b2d7566855652f33873ecca6d70d83",
          "transactionIndex": "0x4b",
          "logIndex": "0x5d",
          "removed": false
        }
      ],
      "logsBloom": "0x00000000000000000000000000000000000000000000000000000000000000000000000000000000000000000000000000000000000000004000000000000000000000000000000000000008000000000000000000000000000000000000000000000000020000000000000004000800020000000000000000000010000000000000000000000000000000000000000000000000000000000000010000000000000000000000000000000000000000004000000000000000000000000000020000000002000000800000008000000000000000000000080000000000000020000000000000000000000000000000000000000000000000000000000000000000",
      "type": "0x2",
      "transactionHash": "0x6765d6ec9751dcee71f366169667e9a826b2d7566855652f33873ecca6d70d83",
      "transactionIndex": "0x4b",
      "blockHash": "0x2596c7f940e602edc64d3abef7c04ecd6b55e3b0957980596577ce581c8717e5",
      "blockNumber": "0x724b0e",
      "gasUsed": "0xf82c",
      "effectiveGasPrice": "0x535791698",
      "from": "0xc77f7fed3b5cc8249adc428c5f44c9063b9734b4",
      "to": "0x5eb9cc76c3506942c1c0ead70e877dd5e4f00cb0",
      "contractAddress": null
    }
  ],
  "libraries": [],
  "pending": [],
  "returns": {},
  "timestamp": 1736865361,
  "chain": 11155111,
  "commit": "51a374b"
}