{
  "transactions": [
    {
      "hash": "0x02a7e02a550014fcd33415eccbbdc0414b304581872ceb956e23666d92109c9b",
      "transactionType": "CALL",
      "contractName": null,
      "contractAddress": "0x270e88f8683660553e8ba4eb2ad7c91a1710d769",
      "function": "buy(address)",
      "arguments": [
        "0xC77f7fed3b5Cc8249aDc428c5F44C9063B9734b4"
      ],
      "transaction": {
        "from": "0xc77f7fed3b5cc8249adc428c5f44c9063b9734b4",
        "to": "0x270e88f8683660553e8ba4eb2ad7c91a1710d769",
        "gas": "0x1b30c",
        "value": "0xde0b6b3a7640000",
        "input": "0xf088d547000000000000000000000000c77f7fed3b5cc8249adc428c5f44c9063b9734b4",
        "nonce": "0x7d9",
        "chainId": "0xaa36a7"
      },
      "additionalContracts": [],
      "isFixedGasLimit": false
    }
  ],
  "receipts": [
    {
      "status": "0x1",
      "cumulativeGasUsed": "0x103a792",
      "logs": [
        {
          "address": "0x270e88f8683660553e8ba4eb2ad7c91a1710d769",
          "topics": [
            "0xddf252ad1be2c89b69c2b068fc378daa952ba7f163c4a11628f55a4df523b3ef",
            "0x0000000000000000000000000000000000000000000000000000000000000000",
            "0x000000000000000000000000c77f7fed3b5cc8249adc428c5f44c9063b9734b4"
          ],
          "data": "0x0000000000000000000000000000000000000000000000273f0c12644be62919",
          "blockHash": "0xda8b2e3ef3077cf3ee1d74f317e6750de9023ea3ea4059f9b645b714648f25d8",
          "blockNumber": "0x725512",
          "transactionHash": "0x02a7e02a550014fcd33415eccbbdc0414b304581872ceb956e23666d92109c9b",
          "transactionIndex": "0x43",
          "logIndex": "0x72",
          "removed": false
        },
        {
          "address": "0x270e88f8683660553e8ba4eb2ad7c91a1710d769",
          "topics": [
            "0xddf252ad1be2c89b69c2b068fc378daa952ba7f163c4a11628f55a4df523b3ef",
            "0x0000000000000000000000000000000000000000000000000000000000000000",
            "0x000000000000000000000000c77f7fed3b5cc8249adc428c5f44c9063b9734b4"
          ],
          "data": "0x0000000000000000000000000000000000000000000000001e79dff430b78e70",
          "blockHash": "0xda8b2e3ef3077cf3ee1d74f317e6750de9023ea3ea4059f9b645b714648f25d8",
          "blockNumber": "0x725512",
          "transactionHash": "0x02a7e02a550014fcd33415eccbbdc0414b304581872ceb956e23666d92109c9b",
          "transactionIndex": "0x43",
          "logIndex": "0x73",
          "removed": false
        },
        {
          "address": "0x270e88f8683660553e8ba4eb2ad7c91a1710d769",
          "topics": [
            "0x4afcb4a87cdbd9974efdb92ee48bc8d7cd0ae4bf217004db3d080cbaee652ca7"
          ],
          "data": "0x000000000000000000000000000000000000000000000000000000006786eee00000000000000000000000000000000000000000000000000004dbcf273a9a9d0000000000000000000000000000000000000000000000000de0b6b3a7640000",
          "blockHash": "0xda8b2e3ef3077cf3ee1d74f317e6750de9023ea3ea4059f9b645b714648f25d8",
          "blockNumber": "0x725512",
          "transactionHash": "0x02a7e02a550014fcd33415eccbbdc0414b304581872ceb956e23666d92109c9b",
          "transactionIndex": "0x43",
          "logIndex": "0x74",
          "removed": false
        }
      ],
      "logsBloom": "0x00000000000000000000000000000000000000000000000000000000000000000000000000000000000000000000000020000000000000004000000000000000000000000000000000000008000000000000000000000000000000000000000000000000020000000000000000000800020000000000000000000010000000000000000000010000000000000000000000000000000000000000010000000000000000000000000000000000000000004000000000000000000000000000000000000002000000800000000000000000000000000000080000008000000020000000000000000000000000000000000000000000000000000000000000000000",
      "type": "0x2",
      "transactionHash": "0x02a7e02a550014fcd33415eccbbdc0414b304581872ceb956e23666d92109c9b",
      "transactionIndex": "0x43",
      "blockHash": "0xda8b2e3ef3077cf3ee1d74f317e6750de9023ea3ea4059f9b645b714648f25d8",
      "blockNumber": "0x725512",
      "gasUsed": "0x13af8",
      "effectiveGasPrice": "0xaf9b80cc",
      "from": "0xc77f7fed3b5cc8249adc428c5f44c9063b9734b4",
      "to": "0x270e88f8683660553e8ba4eb2ad7c91a1710d769",
      "contractAddress": null
    }
  ],
  "libraries": [],
  "pending": [],
  "returns": {},
  "timestamp": 1736896225,
  "chain": 11155111,
  "commit": "51a374b"
}