{
  "transactions": [
    {
      "hash": "0x64052386b569cf46452acaf7aa39275b832a9e2081f2b9164c10818492ac5495",
      "transactionType": "CALL",
      "contractName": null,
      "contractAddress": "0xbf4a322f1496e5c3d34a9bcdb4c60567b38c7de2",
      "function": "sell(uint256)",
      "arguments": [
        "984924589854858160674"
      ],
      "transaction": {
        "from": "0xc77f7fed3b5cc8249adc428c5f44c9063b9734b4",
        "to": "0xbf4a322f1496e5c3d34a9bcdb4c60567b38c7de2",
        "gas": "0x16fea",
        "value": "0x0",
        "input": "0xe4849b320000000000000000000000000000000000000000000000356493101e6e202a22",
        "nonce": "0xaab",
        "chainId": "0xaa36a7"
      },
      "additionalContracts": [],
      "isFixedGasLimit": false
    }
  ],
  "receipts": [
    {
      "status": "0x1",
      "cumulativeGasUsed": "0xfd0dff",
      "logs": [
        {
          "address": "0xbf4a322f1496e5c3d34a9bcdb4c60567b38c7de2",
          "topics": [
            "0xddf252ad1be2c89b69c2b068fc378daa952ba7f163c4a11628f55a4df523b3ef",
            "0x000000000000000000000000c77f7fed3b5cc8249adc428c5f44c9063b9734b4",
            "0x0000000000000000000000000000000000000000000000000000000000000000"
          ],
          "data": "0x0000000000000000000000000000000000000000000000356493101e6e202a22",
          "blockHash": "0xe102a79c3912dedcde097f29b038434f8afcebe45086f1e505fe07e92e6ad0cc",
          "blockNumber": "0x725a94",
          "transactionHash": "0x64052386b569cf46452acaf7aa39275b832a9e2081f2b9164c10818492ac5495",
          "transactionIndex": "0x60",
          "logIndex": "0x8f",
          "removed": false
        },
        {
          "address": "0xbf4a322f1496e5c3d34a9bcdb4c60567b38c7de2",
          "topics": [
            "0x4afcb4a87cdbd9974efdb92ee48bc8d7cd0ae4bf217004db3d080cbaee652ca7"
          ],
          "data": "0x0000000000000000000000000000000000000000000000000000000067873140000000000000000000000000000000000000000000000000000394faccb453310000000000000000000000000000000000000000000000000dc7e3ed841cfb80",
          "blockHash": "0xe102a79c3912dedcde097f29b038434f8afcebe45086f1e505fe07e92e6ad0cc",
          "blockNumber": "0x725a94",
          "transactionHash": "0x64052386b569cf46452acaf7aa39275b832a9e2081f2b9164c10818492ac5495",
          "transactionIndex": "0x60",
          "logIndex": "0x90",
          "removed": false
        }
      ],
      "logsBloom": "0x00000000000000000000000000000000000000000000000000000000000000000000000000000000000000000000000000000000000000004000000000000000000000000000000000000008000000000000001000000000000000000000000000000000020000000000000000000800020000000000000000000010000000000000000000000000000000000000000000000000000008000000010000000000000000000000000000000000000000004000000000000000000000000000000000000002000000800000000000001000000000000000080000000000000020000000000000000000000000000000000000000000000000000000000000000000",
      "type": "0x2",
      "transactionHash": "0x64052386b569cf46452acaf7aa39275b832a9e2081f2b9164c10818492ac5495",
      "transactionIndex": "0x60",
      "blockHash": "0xe102a79c3912dedcde097f29b038434f8afcebe45086f1e505fe07e92e6ad0cc",
      "blockNumber": "0x725a94",
      "gasUsed": "0xfb91",
      "effectiveGasPrice": "0x1b6aa8452",
      "from": "0xc77f7fed3b5cc8249adc428c5f44c9063b9734b4",
      "to": "0xbf4a322f1496e5c3d34a9bcdb4c60567b38c7de2",
      "contractAddress": null
    }
  ],
  "libraries": [],
  "pending": [],
  "returns": {},
  "timestamp": 1736913216,
  "chain": 11155111,
  "commit": "51a374b"
}