{
  "transactions": [
    {
      "hash": "0xd10e8296cae57a8e4c0b3f6c4b76ed71e3901b16f805fe14c8dcc489d3c95a17",
      "transactionType": "CALL",
      "contractName": null,
      "contractAddress": "0xbf4a322f1496e5c3d34a9bcdb4c60567b38c7de2",
      "function": "buy(address)",
      "arguments": [
        "0xC77f7fed3b5Cc8249aDc428c5F44C9063B9734b4"
      ],
      "transaction": {
        "from": "0xc77f7fed3b5cc8249adc428c5f44c9063b9734b4",
        "to": "0xbf4a322f1496e5c3d34a9bcdb4c60567b38c7de2",
        "gas": "0x1b309",
        "value": "0xde0b6b3a7640000",
        "input": "0xf088d547000000000000000000000000c77f7fed3b5cc8249adc428c5f44c9063b9734b4",
        "nonce": "0xc8c",
        "chainId": "0xaa36a7"
      },
      "additionalContracts": [],
      "isFixedGasLimit": false
    }
  ],
  "receipts": [
    {
      "status": "0x1",
      "cumulativeGasUsed": "0x4e2b5c",
      "logs": [
        {
          "address": "0xbf4a322f1496e5c3d34a9bcdb4c60567b38c7de2",
          "topics": [
            "0xddf252ad1be2c89b69c2b068fc378daa952ba7f163c4a11628f55a4df523b3ef",
            "0x0000000000000000000000000000000000000000000000000000000000000000",
            "0x000000000000000000000000c77f7fed3b5cc8249adc428c5f44c9063b9734b4"
          ],
          "data": "0x000000000000000000000000000000000000000000000034e1648ee9b161f4fe",
          "blockHash": "0xe5f1694187143049a2c33945c336134ffea1fa971c997dfc06d94e26a9ed8ed5",
          "blockNumber": "0x725cd1",
          "transactionHash": "0xd10e8296cae57a8e4c0b3f6c4b76ed71e3901b16f805fe14c8dcc489d3c95a17",
          "transactionIndex": "0x32",
          "logIndex": "0x3c",
          "removed": false
        },
        {
          "address": "0xbf4a322f1496e5c3d34a9bcdb4c60567b38c7de2",
          "topics": [
            "0xddf252ad1be2c89b69c2b068fc378daa952ba7f163c4a11628f55a4df523b3ef",
            "0x0000000000000000000000000000000000000000000000000000000000000000",
            "0x000000000000000000000000c77f7fed3b5cc8249adc428c5f44c9063b9734b4"
          ],
          "data": "0x00000000000000000000000000000000000000000000000029103f4d3c7e87d0",
          "blockHash": "0xe5f1694187143049a2c33945c336134ffea1fa971c997dfc06d94e26a9ed8ed5",
          "blockNumber": "0x725cd1",
          "transactionHash": "0xd10e8296cae57a8e4c0b3f6c4b76ed71e3901b16f805fe14c8dcc489d3c95a17",
          "transactionIndex": "0x32",
          "logIndex": "0x3d",
          "removed": false
        },
        {
          "address": "0xbf4a322f1496e5c3d34a9bcdb4c60567b38c7de2",
          "topics": [
            "0x4afcb4a87cdbd9974efdb92ee48bc8d7cd0ae4bf217004db3d080cbaee652ca7"
          ],
          "data": "0x0000000000000000000000000000000000000000000000000000000067874c4000000000000000000000000000000000000000000000000000039b0c99a230d60000000000000000000000000000000000000000000000000de0b6b3a7640000",
          "blockHash": "0xe5f1694187143049a2c33945c336134ffea1fa971c997dfc06d94e26a9ed8ed5",
          "blockNumber": "0x725cd1",
          "transactionHash": "0xd10e8296cae57a8e4c0b3f6c4b76ed71e3901b16f805fe14c8dcc489d3c95a17",
          "transactionIndex": "0x32",
          "logIndex": "0x3e",
          "removed": false
        }
      ],
      "logsBloom": "0x00000000000000000000000000000000000000000000000000000000000000000000000000000000000000000000000000000000000000004000000000000000000000000000000000000008000000000000001000000000000000000000000000000000020000000000000000000800020000000000000000000010000000000000000000000000000000000000000000000000000008000000010000000000000000000000000000000000000000004000000000000000000000000000000000000002000000800000000000001000000000000000080000000000000020000000000000000000000000000000000000000000000000000000000000000000",
      "type": "0x2",
      "transactionHash": "0xd10e8296cae57a8e4c0b3f6c4b76ed71e3901b16f805fe14c8dcc489d3c95a17",
      "transactionIndex": "0x32",
      "blockHash": "0xe5f1694187143049a2c33945c336134ffea1fa971c997dfc06d94e26a9ed8ed5",
      "blockNumber": "0x725cd1",
      "gasUsed": "0x13af6",
      "effectiveGasPrice": "0x2c43dd057",
      "from": "0xc77f7fed3b5cc8249adc428c5f44c9063b9734b4",
      "to": "0xbf4a322f1496e5c3d34a9bcdb4c60567b38c7de2",
      "contractAddress": null
    }
  ],
  "libraries": [],
  "pending": [],
  "returns": {},
  "timestamp": 1736920128,
  "chain": 11155111,
  "commit": "51a374b"
}