{
  "transactions": [
    {
      "hash": "0xf1aea92242e2fcfb3edc94fa95a01aa25cabc1579135b1f1ab3b71ffc4a4d0a5",
      "transactionType": "CALL",
      "contractName": null,
      "contractAddress": "0x270e88f8683660553e8ba4eb2ad7c91a1710d769",
      "function": "sell(uint256)",
      "arguments": [
        "955209782815732419210"
      ],
      "transaction": {
        "from": "0xc77f7fed3b5cc8249adc428c5f44c9063b9734b4",
        "to": "0x270e88f8683660553e8ba4eb2ad7c91a1710d769",
        "gas": "0x16fec",
        "value": "0x0",
        "input": "0xe4849b32000000000000000000000000000000000000000000000033c832dc8d75c24a8a",
        "nonce": "0x5cb",
        "chainId": "0xaa36a7"
      },
      "additionalContracts": [],
      "isFixedGasLimit": false
    }
  ],
  "receipts": [
    {
      "status": "0x1",
      "cumulativeGasUsed": "0xb4cec6",
      "logs": [
        {
          "address": "0x270e88f8683660553e8ba4eb2ad7c91a1710d769",
          "topics": [
            "0xddf252ad1be2c89b69c2b068fc378daa952ba7f163c4a11628f55a4df523b3ef",
            "0x000000000000000000000000c77f7fed3b5cc8249adc428c5f44c9063b9734b4",
            "0x0000000000000000000000000000000000000000000000000000000000000000"
          ],
          "data": "0x000000000000000000000000000000000000000000000033c832dc8d75c24a8a",
          "blockHash": "0x7344e94d2d87b3a9c148ea39594d905e0a59b40f8d171d5cae4a0ac336c3a491",
          "blockNumber": "0x72528a",
          "transactionHash": "0xf1aea92242e2fcfb3edc94fa95a01aa25cabc1579135b1f1ab3b71ffc4a4d0a5",
          "transactionIndex": "0x58",
          "logIndex": "0x89",
          "removed": false
        },
        {
          "address": "0x270e88f8683660553e8ba4eb2ad7c91a1710d769",
          "topics": [
            "0x4afcb4a87cdbd9974efdb92ee48bc8d7cd0ae4bf217004db3d080cbaee652ca7"
          ],
          "data": "0x000000000000000000000000000000000000000000000000000000006786d0680000000000000000000000000000000000000000000000000003b1c592288de80000000000000000000000000000000000000000000000000dc83eb1b07e5f78",
          "blockHash": "0x7344e94d2d87b3a9c148ea39594d905e0a59b40f8d171d5cae4a0ac336c3a491",
          "blockNumber": "0x72528a",
          "transactionHash": "0xf1aea92242e2fcfb3edc94fa95a01aa25cabc1579135b1f1ab3b71ffc4a4d0a5",
          "transactionIndex": "0x58",
          "logIndex": "0x8a",
          "removed": false
        }
      ],
      "logsBloom": "0x00000000000000000000000000000000000000000000000000000000000000000000000000000000000000000000000020000000000000004000000000000000000000000000000000000008000000000000000000000000000000000000000000000000020000000000000000000800020000000000000000000010000000000000000000010000000000000000000000000000000000000000010000000000000000000000000000000000000000004000000000000000000000000000000000000002000000800000000000000000000000000000080000008000000020000000000000000000000000000000000000000000000000000000000000000000",
      "type": "0x2",
      "transactionHash": "0xf1aea92242e2fcfb3edc94fa95a01aa25cabc1579135b1f1ab3b71ffc4a4d0a5",
      "transactionIndex": "0x58",
      "blockHash": "0x7344e94d2d87b3a9c148ea39594d905e0a59b40f8d171d5cae4a0ac336c3a491",
      "blockNumber": "0x72528a",
      "gasUsed": "0xfb93",
      "effectiveGasPrice": "0x3e0e8f7e1",
      "from": "0xc77f7fed3b5cc8249adc428c5f44c9063b9734b4",
      "to": "0x270e88f8683660553e8ba4eb2ad7c91a1710d769",
      "contractAddress": null
    }
  ],
  "libraries": [],
  "pending": [],
  "returns": {},
  "timestamp": 1736888425,
  "chain": 11155111,
  "commit": "51a374b"
}