{
  "transactions": [
    {
      "hash": "0x50a5f1537944bb291d1a7f354b67122c526a8846a921e75aee4d2fd1e89a605f",
      "transactionType": "CALL",
      "contractName": null,
      "contractAddress": "0x5eb9cc76c3506942c1c0ead70e877dd5e4f00cb0",
      "function": "buy(address)",
      "arguments": [
        "0xC77f7fed3b5Cc8249aDc428c5F44C9063B9734b4"
      ],
      "transaction": {
        "from": "0xc77f7fed3b5cc8249adc428c5f44c9063b9734b4",
        "to": "0x5eb9cc76c3506942c1c0ead70e877dd5e4f00cb0",
        "gas": "0x156c8",
        "value": "0xde0b6b3a7640000",
        "input": "0xf088d547000000000000000000000000c77f7fed3b5cc8249adc428c5f44c9063b9734b4",
        "nonce": "0x1b5",
        "chainId": "0xaa36a7"
      },
      "additionalContracts": [],
      "isFixedGasLimit": false
    }
  ],
  "receipts": [
    {
      "status": "0x1",
      "cumulativeGasUsed": "0xf11c6c",
      "logs": [
        {
          "address": "0x5eb9cc76c3506942c1c0ead70e877dd5e4f00cb0",
          "topics": [
            "0xddf252ad1be2c89b69c2b068fc378daa952ba7f163c4a11628f55a4df523b3ef",
            "0x0000000000000000000000000000000000000000000000000000000000000000",
            "0x000000000000000000000000c77f7fed3b5cc8249adc428c5f44c9063b9734b4"
          ],
          "data": "0x000000000000000000000000000000000000000000000035a3708bbc6c8f9b08",
          "blockHash": "0x2f74f67b2c18c1d3e9fe90dc42121626ee03606992745a260db789457b5f1fb8",
          "blockNumber": "0x723ca0",
          "transactionHash": "0x50a5f1537944bb291d1a7f354b67122c526a8846a921e75aee4d2fd1e89a605f",
          "transactionIndex": "0x8a",
          "logIndex": "0x112",
          "removed": false
        },
        {
          "address": "0x5eb9cc76c3506942c1c0ead70e877dd5e4f00cb0",
          "topics": [
            "0xddf252ad1be2c89b69c2b068fc378daa952ba7f163c4a11628f55a4df523b3ef",
            "0x0000000000000000000000000000000000000000000000000000000000000000",
            "0x000000000000000000000000c77f7fed3b5cc8249adc428c5f44c9063b9734b4"
          ],
          "data": "0x00000000000000000000000000000000000000000000000029a6ee6687cdae6b",
          "blockHash": "0x2f74f67b2c18c1d3e9fe90dc42121626ee03606992745a260db789457b5f1fb8",
          "blockNumber": "0x723ca0",
          "transactionHash": "0x50a5f1537944bb291d1a7f354b67122c526a8846a921e75aee4d2fd1e89a605f",
          "transactionIndex": "0x8a",
          "logIndex": "0x113",
          "removed": false
        },
        {
          "address": "0x5eb9cc76c3506942c1c0ead70e877dd5e4f00cb0",
          "topics": [
            "0x4afcb4a87cdbd9974efdb92ee48bc8d7cd0ae4bf217004db3d080cbaee652ca7"
          ],
          "data": "0x000000000000000000000000000000000000000000000000000000006785c8d400000000000000000000000000000000000000000000000000038dff086eedbf0000000000000000000000000000000000000000000000000de0b6b3a7640000",
          "blockHash": "0x2f74f67b2c18c1d3e9fe90dc42121626ee03606992745a260db789457b5f1fb8",
          "blockNumber": "0x723ca0",
          "transactionHash": "0x50a5f1537944bb291d1a7f354b67122c526a8846a921e75aee4d2fd1e89a605f",
          "transactionIndex": "0x8a",
          "logIndex": "0x114",
          "removed": false
        }
      ],
      "logsBloom": "0x00000000000000000000000000000000000000000000000000000000000000000000000000000000000000000000000000000000000000004000000000000000000000000000000000000008000000000000000000000000000000000000000000000000020000000000000004000800020000000000000000000010000000000000000000000000000000000000000000000000000000000000010000000000000000000000000000000000000000004000000000000000000000000000020000000002000000800000008000000000000000000000080000000000000020000000000000000000000000000000000000000000000000000000000000000000",
      "type": "0x2",
      "transactionHash": "0x50a5f1537944bb291d1a7f354b67122c526a8846a921e75aee4d2fd1e89a605f",
      "transactionIndex": "0x8a",
      "blockHash": "0x2f74f67b2c18c1d3e9fe90dc42121626ee03606992745a260db789457b5f1fb8",
      "blockNumber": "0x723ca0",
      "gasUsed": "0xf82c",
      "effectiveGasPrice": "0x1d65884bf",
      "from": "0xc77f7fed3b5cc8249adc428c5f44c9063b9734b4",
      "to": "0x5eb9cc76c3506942c1c0ead70e877dd5e4f00cb0",
      "contractAddress": null
    }
  ],
  "libraries": [],
  "pending": [],
  "returns": {},
  "timestamp": 1736820950,
  "chain": 11155111,
  "commit": "51a374b"
}