{
  "transactions": [
    {
      "hash": "0xf752e47f6402ee280599669eff13e0199cd6e830a75aad6e78df687353c59341",
      "transactionType": "CALL",
      "contractName": null,
      "contractAddress": "0xd733d32bbc32b9da11d0a266572d231cd445ea4a",
      "function": "borrowMore(uint256)",
      "arguments": [
        "76929929999999923"
      ],
      "transaction": {
        "from": "0xc77f7fed3b5cc8249adc428c5f44c9063b9734b4",
        "to": "0xd733d32bbc32b9da11d0a266572d231cd445ea4a",
        "gas": "0x1dae0",
        "value": "0x0",
        "input": "0x9d0bf2e900000000000000000000000000000000000000000000000001114f5d1e3ee3b3",
        "nonce": "0x193b",
        "chainId": "0xaa36a7"
      },
      "additionalContracts": [],
      "isFixedGasLimit": false
    }
  ],
  "receipts": [
    {
      "status": "0x1",
      "cumulativeGasUsed": "0x1eedd38",
      "logs": [
        {
          "address": "0xd733d32bbc32b9da11d0a266572d231cd445ea4a",
          "topics": [
            "0x03bbe564cb1b78e43195eeadbde99e5b89b19345862807fcfb59f884e4165e25"
          ],
          "data": "0x00000000000000000000000038818e389773445cd73adbaa37b8b169f458c6e1000000000000000000000000000000000000000000000000000014fd7e5856bf",
          "blockHash": "0xbd40eccf2e36e2ad74bebc3b6f99d9054266a329eb7512b97cc12127ebfd0385",
          "blockNumber": "0x739c3e",
          "transactionHash": "0xf752e47f6402ee280599669eff13e0199cd6e830a75aad6e78df687353c59341",
          "transactionIndex": "0x99",
          "logIndex": "0x1c8",
          "removed": false
        },
        {
          "address": "0xd733d32bbc32b9da11d0a266572d231cd445ea4a",
          "topics": [
            "0x03bbe564cb1b78e43195eeadbde99e5b89b19345862807fcfb59f884e4165e25"
          ],
          "data": "0x000000000000000000000000c77f7fed3b5cc8249adc428c5f44c9063b9734b40000000000000000000000000000000000000000000000000111096579186d34",
          "blockHash": "0xbd40eccf2e36e2ad74bebc3b6f99d9054266a329eb7512b97cc12127ebfd0385",
          "blockNumber": "0x739c3e",
          "transactionHash": "0xf752e47f6402ee280599669eff13e0199cd6e830a75aad6e78df687353c59341",
          "transactionIndex": "0x99",
          "logIndex": "0x1c9",
          "removed": false
        },
        {
          "address": "0xd733d32bbc32b9da11d0a266572d231cd445ea4a",
          "topics": [
            "0xaec00f5213a37254bc68a26b0685d1a5b2bf513e1e587c94c7df7f4a62b56c9c"
          ],
          "data": "0x0000000000000000000000000000000000000000000000008ac7230489e7ffff00000000000000000000000000000000000000000000000001347b5c7d85a3a90000000000000000000000000000000000000000000000008911f0893b8583a900000000000000000000000000000000000000000000003daa0a4a6e9eaaa9ae",
          "blockHash": "0xbd40eccf2e36e2ad74bebc3b6f99d9054266a329eb7512b97cc12127ebfd0385",
          "blockNumber": "0x739c3e",
          "transactionHash": "0xf752e47f6402ee280599669eff13e0199cd6e830a75aad6e78df687353c59341",
          "transactionIndex": "0x99",
          "logIndex": "0x1ca",
          "removed": false
        },
        {
          "address": "0xd733d32bbc32b9da11d0a266572d231cd445ea4a",
          "topics": [
            "0x4afcb4a87cdbd9974efdb92ee48bc8d7cd0ae4bf217004db3d080cbaee652ca7"
          ],
          "data": "0x0000000000000000000000000000000000000000000000000000000067968960000000000000000000000000000000000000000000000000001f28f2bfb1c5a6000000000000000000000000000000000000000000000000000045f7a526767f",
          "blockHash": "0xbd40eccf2e36e2ad74bebc3b6f99d9054266a329eb7512b97cc12127ebfd0385",
          "blockNumber": "0x739c3e",
          "transactionHash": "0xf752e47f6402ee280599669eff13e0199cd6e830a75aad6e78df687353c59341",
          "transactionIndex": "0x99",
          "logIndex": "0x1cb",
          "removed": false
        }
      ],
      "logsBloom": "0x00000000000000020000000000000100400000000000000000000000000000000008000000000000000000000000000000002000000000004000000000000000000000000000000000000000000000000000000000000000000000000000000000000000000000000000000000000000020000000000000000000000000000000000000000000000000000000000000000000000000000000000000000000000000000000000000000000400000000004000000000000000000000001000000000040000000000000000000000000000000000000000000000000000000000000000000000000000000000000080000000000000000000000000000000000000",
      "type": "0x2",
      "transactionHash": "0xf752e47f6402ee280599669eff13e0199cd6e830a75aad6e78df687353c59341",
      "transactionIndex": "0x99",
      "blockHash": "0xbd40eccf2e36e2ad74bebc3b6f99d9054266a329eb7512b97cc12127ebfd0385",
      "blockNumber": "0x739c3e",
      "gasUsed": "0x157ce",
      "effectiveGasPrice": "0x14265e13d",
      "from": "0xc77f7fed3b5cc8249adc428c5f44c9063b9734b4",
      "to": "0xd733d32bbc32b9da11d0a266572d231cd445ea4a",
      "contractAddress": null
    }
  ],
  "libraries": [],
  "pending": [],
  "returns": {},
  "timestamp": 1737918817,
  "chain": 11155111,
  "commit": "f5162e9"
}