{
  "transactions": [
    {
      "hash": "0x8e8bbec7d9c5f378100816527b6c14cf3fa6fa46d819613a53b20af2fed9cb36",
      "transactionType": "CALL",
      "contractName": null,
      "contractAddress": "0x8aafd3ede9adb0ff97c7aebce82a919afb1c8764",
      "function": "sell(uint256)",
      "arguments": [
        "5277542424"
      ],
      "transaction": {
        "from": "0xc77f7fed3b5cc8249adc428c5f44c9063b9734b4",
        "to": "0x8aafd3ede9adb0ff97c7aebce82a919afb1c8764",
        "gas": "0x1722a",
        "value": "0x0",
        "input": "0xe4849b32000000000000000000000000000000000000000000000000000000013a90e818",
        "nonce": "0x16ab",
        "chainId": "0xaa36a7"
      },
      "additionalContracts": [],
      "isFixedGasLimit": false
    }
  ],
  "receipts": [
    {
      "status": "0x1",
      "cumulativeGasUsed": "0x1183511",
      "logs": [
        {
          "address": "0x8aafd3ede9adb0ff97c7aebce82a919afb1c8764",
          "topics": [
            "0xddf252ad1be2c89b69c2b068fc378daa952ba7f163c4a11628f55a4df523b3ef",
            "0x000000000000000000000000c77f7fed3b5cc8249adc428c5f44c9063b9734b4",
            "0x0000000000000000000000000000000000000000000000000000000000000000"
          ],
          "data": "0x00000000000000000000000000000000000000000000000000000001380cace5",
          "blockHash": "0xed1b96a5a45b0affaf458a5be6d4b547fe01fd7f3bcbc3b288367a4459cadbb9",
          "blockNumber": "0x731e63",
          "transactionHash": "0x8e8bbec7d9c5f378100816527b6c14cf3fa6fa46d819613a53b20af2fed9cb36",
          "transactionIndex": "0x6a",
          "logIndex": "0xb4",
          "removed": false
        },
        {
          "address": "0x8aafd3ede9adb0ff97c7aebce82a919afb1c8764",
          "topics": [
            "0xddf252ad1be2c89b69c2b068fc378daa952ba7f163c4a11628f55a4df523b3ef",
            "0x000000000000000000000000c77f7fed3b5cc8249adc428c5f44c9063b9734b4",
            "0x000000000000000000000000c77f7fed3b5cc8249adc428c5f44c9063b9734b4"
          ],
          "data": "0x0000000000000000000000000000000000000000000000000000000002843b33",
          "blockHash": "0xed1b96a5a45b0affaf458a5be6d4b547fe01fd7f3bcbc3b288367a4459cadbb9",
          "blockNumber": "0x731e63",
          "transactionHash": "0x8e8bbec7d9c5f378100816527b6c14cf3fa6fa46d819613a53b20af2fed9cb36",
          "transactionIndex": "0x6a",
          "logIndex": "0xb5",
          "removed": false
        },
        {
          "address": "0x8aafd3ede9adb0ff97c7aebce82a919afb1c8764",
          "topics": [
            "0x4afcb4a87cdbd9974efdb92ee48bc8d7cd0ae4bf217004db3d080cbaee652ca7"
          ],
          "data": "0x000000000000000000000000000000000000000000000000000000006790698c0000000000000000000000000000000000000000000000000016025e9e8e35fd0000000000000000000000000000000000000000000000000000000001f2e189",
          "blockHash": "0xed1b96a5a45b0affaf458a5be6d4b547fe01fd7f3bcbc3b288367a4459cadbb9",
          "blockNumber": "0x731e63",
          "transactionHash": "0x8e8bbec7d9c5f378100816527b6c14cf3fa6fa46d819613a53b20af2fed9cb36",
          "transactionIndex": "0x6a",
          "logIndex": "0xb6",
          "removed": false
        }
      ],
      "logsBloom": "0x00000000000000000000000000000000000000000600000000000000000000000000000000000000000000000000000000000000000000004000000000000000000000000000004000000008000000000000000000000000000000000000000000000000020000000000000000000800020000000000000000000010000000000000000000000000000000000000000000000000000000000000010000000000000000000000000000000000000000004000000000000000000000000000000000000002000000800000000000000000000000000000080000000000000020000000000000000000000000000000000000000000000000000000000000000000",
      "type": "0x2",
      "transactionHash": "0x8e8bbec7d9c5f378100816527b6c14cf3fa6fa46d819613a53b20af2fed9cb36",
      "transactionIndex": "0x6a",
      "blockHash": "0xed1b96a5a45b0affaf458a5be6d4b547fe01fd7f3bcbc3b288367a4459cadbb9",
      "blockNumber": "0x731e63",
      "gasUsed": "0xfd1b",
      "effectiveGasPrice": "0x53c529d0",
      "from": "0xc77f7fed3b5cc8249adc428c5f44c9063b9734b4",
      "to": "0x8aafd3ede9adb0ff97c7aebce82a919afb1c8764",
      "contractAddress": null
    }
  ],
  "libraries": [],
  "pending": [],
  "returns": {},
  "timestamp": 1737517453,
  "chain": 11155111,
  "commit": "1d2fb70"
}