{
  "transactions": [
    {
      "hash": "0x60f2aebb2fdd61ca6092e4ff4a56a0ab8e078519b1a3db4c580319b0d21112bb",
      "transactionType": "CALL",
      "contractName": null,
      "contractAddress": "0x8aafd3ede9adb0ff97c7aebce82a919afb1c8764",
      "function": "sell(uint256)",
      "arguments": [
        "13699481317229225"
      ],
      "transaction": {
        "from": "0xc77f7fed3b5cc8249adc428c5f44c9063b9734b4",
        "to": "0x8aafd3ede9adb0ff97c7aebce82a919afb1c8764",
        "gas": "0x1724d",
        "value": "0x0",
        "input": "0xe4849b320000000000000000000000000000000000000000000000000030ab9b0d8542a9",
        "nonce": "0x14d4",
        "chainId": "0xaa36a7"
      },
      "additionalContracts": [],
      "isFixedGasLimit": false
    }
  ],
  "receipts": [
    {
      "status": "0x1",
      "cumulativeGasUsed": "0xac43ca",
      "logs": [
        {
          "address": "0x8aafd3ede9adb0ff97c7aebce82a919afb1c8764",
          "topics": [
            "0xddf252ad1be2c89b69c2b068fc378daa952ba7f163c4a11628f55a4df523b3ef",
            "0x000000000000000000000000c77f7fed3b5cc8249adc428c5f44c9063b9734b4",
            "0x0000000000000000000000000000000000000000000000000000000000000000"
          ],
          "data": "0x000000000000000000000000000000000000000000000000003047edc7c7c740",
          "blockHash": "0x543fc9162c2622023994cbadf6bf027371ea89b39646ddbe0156e1890e7343b4",
          "blockNumber": "0x731c32",
          "transactionHash": "0x60f2aebb2fdd61ca6092e4ff4a56a0ab8e078519b1a3db4c580319b0d21112bb",
          "transactionIndex": "0x64",
          "logIndex": "0x84",
          "removed": false
        },
        {
          "address": "0x8aafd3ede9adb0ff97c7aebce82a919afb1c8764",
          "topics": [
            "0xddf252ad1be2c89b69c2b068fc378daa952ba7f163c4a11628f55a4df523b3ef",
            "0x000000000000000000000000c77f7fed3b5cc8249adc428c5f44c9063b9734b4",
            "0x000000000000000000000000c77f7fed3b5cc8249adc428c5f44c9063b9734b4"
          ],
          "data": "0x000000000000000000000000000000000000000000000000000063ad45bd7b69",
          "blockHash": "0x543fc9162c2622023994cbadf6bf027371ea89b39646ddbe0156e1890e7343b4",
          "blockNumber": "0x731c32",
          "transactionHash": "0x60f2aebb2fdd61ca6092e4ff4a56a0ab8e078519b1a3db4c580319b0d21112bb",
          "transactionIndex": "0x64",
          "logIndex": "0x85",
          "removed": false
        },
        {
          "address": "0x8aafd3ede9adb0ff97c7aebce82a919afb1c8764",
          "topics": [
            "0x4afcb4a87cdbd9974efdb92ee48bc8d7cd0ae4bf217004db3d080cbaee652ca7"
          ],
          "data": "0x0000000000000000000000000000000000000000000000000000000067904f34000000000000000000000000000000000000000000000000001095ab1f9d3e8c00000000000000000000000000000000000000000000000000003a29d713cc64",
          "blockHash": "0x543fc9162c2622023994cbadf6bf027371ea89b39646ddbe0156e1890e7343b4",
          "blockNumber": "0x731c32",
          "transactionHash": "0x60f2aebb2fdd61ca6092e4ff4a56a0ab8e078519b1a3db4c580319b0d21112bb",
          "transactionIndex": "0x64",
          "logIndex": "0x86",
          "removed": false
        }
      ],
      "logsBloom": "0x00000000000000000000000000000000000000000600000000000000000000000000000000000000000000000000000000000000000000004000000000000000000000000000004000000008000000000000000000000000000000000000000000000000020000000000000000000800020000000000000000000010000000000000000000000000000000000000000000000000000000000000010000000000000000000000000000000000000000004000000000000000000000000000000000000002000000800000000000000000000000000000080000000000000020000000000000000000000000000000000000000000000000000000000000000000",
      "type": "0x2",
      "transactionHash": "0x60f2aebb2fdd61ca6092e4ff4a56a0ab8e078519b1a3db4c580319b0d21112bb",
      "transactionIndex": "0x64",
      "blockHash": "0x543fc9162c2622023994cbadf6bf027371ea89b39646ddbe0156e1890e7343b4",
      "blockNumber": "0x731c32",
      "gasUsed": "0xfd33",
      "effectiveGasPrice": "0x1432601d8",
      "from": "0xc77f7fed3b5cc8249adc428c5f44c9063b9734b4",
      "to": "0x8aafd3ede9adb0ff97c7aebce82a919afb1c8764",
      "contractAddress": null
    }
  ],
  "libraries": [],
  "pending": [],
  "returns": {},
  "timestamp": 1737510709,
  "chain": 11155111,
  "commit": "1d2fb70"
}