{
  "transactions": [
    {
      "hash": "0x9e13aea4f10656d2e09818e0821507db3c59f67b75cb33ac7868e15c3943573e",
      "transactionType": "CALL",
      "contractName": null,
      "contractAddress": "0xbf4a322f1496e5c3d34a9bcdb4c60567b38c7de2",
      "function": "buy(address)",
      "arguments": [
        "0xC77f7fed3b5Cc8249aDc428c5F44C9063B9734b4"
      ],
      "transaction": {
        "from": "0xc77f7fed3b5cc8249adc428c5f44c9063b9734b4",
        "to": "0xbf4a322f1496e5c3d34a9bcdb4c60567b38c7de2",
        "gas": "0x1b309",
        "value": "0xde0b6b3a7640000",
        "input": "0xf088d547000000000000000000000000c77f7fed3b5cc8249adc428c5f44c9063b9734b4",
        "nonce": "0xc56",
        "chainId": "0xaa36a7"
      },
      "additionalContracts": [],
      "isFixedGasLimit": false
    }
  ],
  "receipts": [
    {
      "status": "0x1",
      "cumulativeGasUsed": "0x19a0e46",
      "logs": [
        {
          "address": "0xbf4a322f1496e5c3d34a9bcdb4c60567b38c7de2",
          "topics": [
            "0xddf252ad1be2c89b69c2b068fc378daa952ba7f163c4a11628f55a4df523b3ef",
            "0x0000000000000000000000000000000000000000000000000000000000000000",
            "0x000000000000000000000000c77f7fed3b5cc8249adc428c5f44c9063b9734b4"
          ],
          "data": "0x000000000000000000000000000000000000000000000034eb6648862873f01b",
          "blockHash": "0x08f9bbd6750996d8fbce89a09eacdf98bbceca7a6365fc6d9ca84177ed9b484d",
          "blockNumber": "0x725c8f",
          "transactionHash": "0x9e13aea4f10656d2e09818e0821507db3c59f67b75cb33ac7868e15c3943573e",
          "transactionIndex": "0xa2",
          "logIndex": "0x168",
          "removed": false
        },
        {
          "address": "0xbf4a322f1496e5c3d34a9bcdb4c60567b38c7de2",
          "topics": [
            "0xddf252ad1be2c89b69c2b068fc378daa952ba7f163c4a11628f55a4df523b3ef",
            "0x0000000000000000000000000000000000000000000000000000000000000000",
            "0x000000000000000000000000c77f7fed3b5cc8249adc428c5f44c9063b9734b4"
          ],
          "data": "0x000000000000000000000000000000000000000000000000291804918e84094d",
          "blockHash": "0x08f9bbd6750996d8fbce89a09eacdf98bbceca7a6365fc6d9ca84177ed9b484d",
          "blockNumber": "0x725c8f",
          "transactionHash": "0x9e13aea4f10656d2e09818e0821507db3c59f67b75cb33ac7868e15c3943573e",
          "transactionIndex": "0xa2",
          "logIndex": "0x169",
          "removed": false
        },
        {
          "address": "0xbf4a322f1496e5c3d34a9bcdb4c60567b38c7de2",
          "topics": [
            "0x4afcb4a87cdbd9974efdb92ee48bc8d7cd0ae4bf217004db3d080cbaee652ca7"
          ],
          "data": "0x000000000000000000000000000000000000000000000000000000006787492800000000000000000000000000000000000000000000000000039a5e0f2b17850000000000000000000000000000000000000000000000000de0b6b3a7640000",
          "blockHash": "0x08f9bbd6750996d8fbce89a09eacdf98bbceca7a6365fc6d9ca84177ed9b484d",
          "blockNumber": "0x725c8f",
          "transactionHash": "0x9e13aea4f10656d2e09818e0821507db3c59f67b75cb33ac7868e15c3943573e",
          "transactionIndex": "0xa2",
          "logIndex": "0x16a",
          "removed": false
        }
      ],
      "logsBloom": "0x00000000000000000000000000000000000000000000000000000000000000000000000000000000000000000000000000000000000000004000000000000000000000000000000000000008000000000000001000000000000000000000000000000000020000000000000000000800020000000000000000000010000000000000000000000000000000000000000000000000000008000000010000000000000000000000000000000000000000004000000000000000000000000000000000000002000000800000000000001000000000000000080000000000000020000000000000000000000000000000000000000000000000000000000000000000",
      "type": "0x2",
      "transactionHash": "0x9e13aea4f10656d2e09818e0821507db3c59f67b75cb33ac7868e15c3943573e",
      "transactionIndex": "0xa2",
      "blockHash": "0x08f9bbd6750996d8fbce89a09eacdf98bbceca7a6365fc6d9ca84177ed9b484d",
      "blockNumber": "0x725c8f",
      "gasUsed": "0x13af6",
      "effectiveGasPrice": "0x26444f5a4",
      "from": "0xc77f7fed3b5cc8249adc428c5f44c9063b9734b4",
      "to": "0xbf4a322f1496e5c3d34a9bcdb4c60567b38c7de2",
      "contractAddress": null
    }
  ],
  "libraries": [],
  "pending": [],
  "returns": {},
  "timestamp": 1736919338,
  "chain": 11155111,
  "commit": "51a374b"
}