{
  "transactions": [
    {
      "hash": "0x19c4144c35df2c941b20a7c4088cc48105f674feef8e8c3aee1226eb3eabe0aa",
      "transactionType": "CALL",
      "contractName": null,
      "contractAddress": "0x8aafd3ede9adb0ff97c7aebce82a919afb1c8764",
      "function": "sell(uint256)",
      "arguments": [
        "12441"
      ],
      "transaction": {
        "from": "0xc77f7fed3b5cc8249adc428c5f44c9063b9734b4",
        "to": "0x8aafd3ede9adb0ff97c7aebce82a919afb1c8764",
        "gas": "0x14e4c",
        "value": "0x0",
        "input": "0xe4849b320000000000000000000000000000000000000000000000000000000000003099",
        "nonce": "0xf83",
        "chainId": "0xaa36a7"
      },
      "additionalContracts": [],
      "isFixedGasLimit": false
    }
  ],
  "receipts": [
    {
      "status": "0x1",
      "cumulativeGasUsed": "0xb38a7c",
      "logs": [
        {
          "address": "0x8aafd3ede9adb0ff97c7aebce82a919afb1c8764",
          "topics": [
            "0xddf252ad1be2c89b69c2b068fc378daa952ba7f163c4a11628f55a4df523b3ef",
            "0x000000000000000000000000c77f7fed3b5cc8249adc428c5f44c9063b9734b4",
            "0x0000000000000000000000000000000000000000000000000000000000000000"
          ],
          "data": "0x0000000000000000000000000000000000000000000000000000000000003036",
          "blockHash": "0xf497a9fea6c6dcb73f9fa32fce6abaf98c6f5f1fbfc9c02317243a4decaa9842",
          "blockNumber": "0x7315e8",
          "transactionHash": "0x19c4144c35df2c941b20a7c4088cc48105f674feef8e8c3aee1226eb3eabe0aa",
          "transactionIndex": "0x7f",
          "logIndex": "0x9d",
          "removed": false
        },
        {
          "address": "0x8aafd3ede9adb0ff97c7aebce82a919afb1c8764",
          "topics": [
            "0xddf252ad1be2c89b69c2b068fc378daa952ba7f163c4a11628f55a4df523b3ef",
            "0x000000000000000000000000c77f7fed3b5cc8249adc428c5f44c9063b9734b4",
            "0x000000000000000000000000c77f7fed3b5cc8249adc428c5f44c9063b9734b4"
          ],
          "data": "0x0000000000000000000000000000000000000000000000000000000000000063",
          "blockHash": "0xf497a9fea6c6dcb73f9fa32fce6abaf98c6f5f1fbfc9c02317243a4decaa9842",
          "blockNumber": "0x7315e8",
          "transactionHash": "0x19c4144c35df2c941b20a7c4088cc48105f674feef8e8c3aee1226eb3eabe0aa",
          "transactionIndex": "0x7f",
          "logIndex": "0x9e",
          "removed": false
        },
        {
          "address": "0x8aafd3ede9adb0ff97c7aebce82a919afb1c8764",
          "topics": [
            "0x4afcb4a87cdbd9974efdb92ee48bc8d7cd0ae4bf217004db3d080cbaee652ca7"
          ],
          "data": "0x000000000000000000000000000000000000000000000000000000006790038c0000000000000000000000000000000000000000000000000004c22b685291180000000000000000000000000000000000000000000000000000000000000010",
          "blockHash": "0xf497a9fea6c6dcb73f9fa32fce6abaf98c6f5f1fbfc9c02317243a4decaa9842",
          "blockNumber": "0x7315e8",
          "transactionHash": "0x19c4144c35df2c941b20a7c4088cc48105f674feef8e8c3aee1226eb3eabe0aa",
          "transactionIndex": "0x7f",
          "logIndex": "0x9f",
          "removed": false
        }
      ],
      "logsBloom": "0x00000000000000000000000000000000000000000600000000000000000000000000000000000000000000000000000000000000000000004000000000000000000000000000004000000008000000000000000000000000000000000000000000000000020000000000000000000800020000000000000000000010000000000000000000000000000000000000000000000000000000000000010000000000000000000000000000000000000000004000000000000000000000000000000000000002000000800000000000000000000000000000080000000000000020000000000000000000000000000000000000000000000000000000000000000000",
      "type": "0x2",
      "transactionHash": "0x19c4144c35df2c941b20a7c4088cc48105f674feef8e8c3aee1226eb3eabe0aa",
      "transactionIndex": "0x7f",
      "blockHash": "0xf497a9fea6c6dcb73f9fa32fce6abaf98c6f5f1fbfc9c02317243a4decaa9842",
      "blockNumber": "0x7315e8",
      "gasUsed": "0xf207",
      "effectiveGasPrice": "0x6f30e6e5",
      "from": "0xc77f7fed3b5cc8249adc428c5f44c9063b9734b4",
      "to": "0x8aafd3ede9adb0ff97c7aebce82a919afb1c8764",
      "contractAddress": null
    }
  ],
  "libraries": [],
  "pending": [],
  "returns": {},
  "timestamp": 1737491341,
  "chain": 11155111,
  "commit": "1d2fb70"
}