{
  "transactions": [
    {
      "hash": "0x2348c308fd2357e472ab4ce7554aacd8aaa8263020afe27ce862b2010e73dc64",
      "transactionType": "CALL",
      "contractName": null,
      "contractAddress": "0x5eb9cc76c3506942c1c0ead70e877dd5e4f00cb0",
      "function": "buy(address)",
      "arguments": [
        "0xC77f7fed3b5Cc8249aDc428c5F44C9063B9734b4"
      ],
      "transaction": {
        "from": "0xc77f7fed3b5cc8249adc428c5f44c9063b9734b4",
        "to": "0x5eb9cc76c3506942c1c0ead70e877dd5e4f00cb0",
        "gas": "0x156c8",
        "value": "0xde0b6b3a7640000",
        "input": "0xf088d547000000000000000000000000c77f7fed3b5cc8249adc428c5f44c9063b9734b4",
        "nonce": "0x1fd",
        "chainId": "0xaa36a7"
      },
      "additionalContracts": [],
      "isFixedGasLimit": false
    }
  ],
  "receipts": [
    {
      "status": "0x1",
      "cumulativeGasUsed": "0x14fbc5d",
      "logs": [
        {
          "address": "0x5eb9cc76c3506942c1c0ead70e877dd5e4f00cb0",
          "topics": [
            "0xddf252ad1be2c89b69c2b068fc378daa952ba7f163c4a11628f55a4df523b3ef",
            "0x0000000000000000000000000000000000000000000000000000000000000000",
            "0x000000000000000000000000c77f7fed3b5cc8249adc428c5f44c9063b9734b4"
          ],
          "data": "0x00000000000000000000000000000000000000000000003584be3b932d905ae6",
          "blockHash": "0xa560a320bdca9c7551b0c3ff67b10d2ccfefb969b7a023db65e4f316dba8c94d",
          "blockNumber": "0x724b17",
          "transactionHash": "0x2348c308fd2357e472ab4ce7554aacd8aaa8263020afe27ce862b2010e73dc64",
          "transactionIndex": "0x7a",
          "logIndex": "0xf7",
          "removed": false
        },
        {
          "address": "0x5eb9cc76c3506942c1c0ead70e877dd5e4f00cb0",
          "topics": [
            "0xddf252ad1be2c89b69c2b068fc378daa952ba7f163c4a11628f55a4df523b3ef",
            "0x0000000000000000000000000000000000000000000000000000000000000000",
            "0x000000000000000000000000c77f7fed3b5cc8249adc428c5f44c9063b9734b4"
          ],
          "data": "0x000000000000000000000000000000000000000000000000298f1826fe5c2584",
          "blockHash": "0xa560a320bdca9c7551b0c3ff67b10d2ccfefb969b7a023db65e4f316dba8c94d",
          "blockNumber": "0x724b17",
          "transactionHash": "0x2348c308fd2357e472ab4ce7554aacd8aaa8263020afe27ce862b2010e73dc64",
          "transactionIndex": "0x7a",
          "logIndex": "0xf8",
          "removed": false
        },
        {
          "address": "0x5eb9cc76c3506942c1c0ead70e877dd5e4f00cb0",
          "topics": [
            "0x4afcb4a87cdbd9974efdb92ee48bc8d7cd0ae4bf217004db3d080cbaee652ca7"
          ],
          "data": "0x00000000000000000000000000000000000000000000000000000000678676bc00000000000000000000000000000000000000000000000000039008fa5ba0bd0000000000000000000000000000000000000000000000000de0b6b3a7640000",
          "blockHash": "0xa560a320bdca9c7551b0c3ff67b10d2ccfefb969b7a023db65e4f316dba8c94d",
          "blockNumber": "0x724b17",
          "transactionHash": "0x2348c308fd2357e472ab4ce7554aacd8aaa8263020afe27ce862b2010e73dc64",
          "transactionIndex": "0x7a",
          "logIndex": "0xf9",
          "removed": false
        }
      ],
      "logsBloom": "0x00000000000000000000000000000000000000000000000000000000000000000000000000000000000000000000000000000000000000004000000000000000000000000000000000000008000000000000000000000000000000000000000000000000020000000000000004000800020000000000000000000010000000000000000000000000000000000000000000000000000000000000010000000000000000000000000000000000000000004000000000000000000000000000020000000002000000800000008000000000000000000000080000000000000020000000000000000000000000000000000000000000000000000000000000000000",
      "type": "0x2",
      "transactionHash": "0x2348c308fd2357e472ab4ce7554aacd8aaa8263020afe27ce862b2010e73dc64",
      "transactionIndex": "0x7a",
      "blockHash": "0xa560a320bdca9c7551b0c3ff67b10d2ccfefb969b7a023db65e4f316dba8c94d",
      "blockNumber": "0x724b17",
      "gasUsed": "0xf82c",
      "effectiveGasPrice": "0x52dca7c47",
      "from": "0xc77f7fed3b5cc8249adc428c5f44c9063b9734b4",
      "to": "0x5eb9cc76c3506942c1c0ead70e877dd5e4f00cb0",
      "contractAddress": null
    }
  ],
  "libraries": [],
  "pending": [],
  "returns": {},
  "timestamp": 1736865469,
  "chain": 11155111,
  "commit": "51a374b"
}