{
  "transactions": [
    {
      "hash": "0x301a54d146a21701728569e525a249233121f8397b0838c2a9e579381edf4c31",
      "transactionType": "CALL",
      "contractName": null,
      "contractAddress": "0xbf4a322f1496e5c3d34a9bcdb4c60567b38c7de2",
      "function": "sell(uint256)",
      "arguments": [
        "986445856799912818228"
      ],
      "transaction": {
        "from": "0xc77f7fed3b5cc8249adc428c5f44c9063b9734b4",
        "to": "0xbf4a322f1496e5c3d34a9bcdb4c60567b38c7de2",
        "gas": "0x16fea",
        "value": "0x0",
        "input": "0xe4849b3200000000000000000000000000000000000000000000003579afb0586aa6f634",
        "nonce": "0xa3b",
        "chainId": "0xaa36a7"
      },
      "additionalContracts": [],
      "isFixedGasLimit": false
    }
  ],
  "receipts": [
    {
      "status": "0x1",
      "cumulativeGasUsed": "0xdf25ce",
      "logs": [
        {
          "address": "0xbf4a322f1496e5c3d34a9bcdb4c60567b38c7de2",
          "topics": [
            "0xddf252ad1be2c89b69c2b068fc378daa952ba7f163c4a11628f55a4df523b3ef",
            "0x000000000000000000000000c77f7fed3b5cc8249adc428c5f44c9063b9734b4",
            "0x0000000000000000000000000000000000000000000000000000000000000000"
          ],
          "data": "0x00000000000000000000000000000000000000000000003579afb0586aa6f634",
          "blockHash": "0x100ca9f261b80bf919221e82207aece7f2574965e3c1e54953340a7f399e5bf1",
          "blockNumber": "0x725a11",
          "transactionHash": "0x301a54d146a21701728569e525a249233121f8397b0838c2a9e579381edf4c31",
          "transactionIndex": "0x91",
          "logIndex": "0xff",
          "removed": false
        },
        {
          "address": "0xbf4a322f1496e5c3d34a9bcdb4c60567b38c7de2",
          "topics": [
            "0x4afcb4a87cdbd9974efdb92ee48bc8d7cd0ae4bf217004db3d080cbaee652ca7"
          ],
          "data": "0x0000000000000000000000000000000000000000000000000000000067872b1c00000000000000000000000000000000000000000000000000039390ca4950620000000000000000000000000000000000000000000000000dc7e3f10d91a72e",
          "blockHash": "0x100ca9f261b80bf919221e82207aece7f2574965e3c1e54953340a7f399e5bf1",
          "blockNumber": "0x725a11",
          "transactionHash": "0x301a54d146a21701728569e525a249233121f8397b0838c2a9e579381edf4c31",
          "transactionIndex": "0x91",
          "logIndex": "0x100",
          "removed": false
        }
      ],
      "logsBloom": "0x00000000000000000000000000000000000000000000000000000000000000000000000000000000000000000000000000000000000000004000000000000000000000000000000000000008000000000000001000000000000000000000000000000000020000000000000000000800020000000000000000000010000000000000000000000000000000000000000000000000000008000000010000000000000000000000000000000000000000004000000000000000000000000000000000000002000000800000000000001000000000000000080000000000000020000000000000000000000000000000000000000000000000000000000000000000",
      "type": "0x2",
      "transactionHash": "0x301a54d146a21701728569e525a249233121f8397b0838c2a9e579381edf4c31",
      "transactionIndex": "0x91",
      "blockHash": "0x100ca9f261b80bf919221e82207aece7f2574965e3c1e54953340a7f399e5bf1",
      "blockNumber": "0x725a11",
      "gasUsed": "0xfb91",
      "effectiveGasPrice": "0x687d93f9f",
      "from": "0xc77f7fed3b5cc8249adc428c5f44c9063b9734b4",
      "to": "0xbf4a322f1496e5c3d34a9bcdb4c60567b38c7de2",
      "contractAddress": null
    }
  ],
  "libraries": [],
  "pending": [],
  "returns": {},
  "timestamp": 1736911646,
  "chain": 11155111,
  "commit": "51a374b"
}