{
  "transactions": [
    {
      "hash": "0x6565357751f59c228894f3a154a6c097cb7ab7825447071460602ffc90cc567c",
      "transactionType": "CALL",
      "contractName": null,
      "contractAddress": "0x270e88f8683660553e8ba4eb2ad7c91a1710d769",
      "function": "sell(uint256)",
      "arguments": [
        "961757079962719509476"
      ],
      "transaction": {
        "from": "0xc77f7fed3b5cc8249adc428c5f44c9063b9734b4",
        "to": "0x270e88f8683660553e8ba4eb2ad7c91a1710d769",
        "gas": "0x16fec",
        "value": "0x0",
        "input": "0xe4849b32000000000000000000000000000000000000000000000034230f889e62da5be4",
        "nonce": "0x59f",
        "chainId": "0xaa36a7"
      },
      "additionalContracts": [],
      "isFixedGasLimit": false
    }
  ],
  "receipts": [
    {
      "status": "0x1",
      "cumulativeGasUsed": "0x7dfbc1",
      "logs": [
        {
          "address": "0x270e88f8683660553e8ba4eb2ad7c91a1710d769",
          "topics": [
            "0xddf252ad1be2c89b69c2b068fc378daa952ba7f163c4a11628f55a4df523b3ef",
            "0x000000000000000000000000c77f7fed3b5cc8249adc428c5f44c9063b9734b4",
            "0x0000000000000000000000000000000000000000000000000000000000000000"
          ],
          "data": "0x000000000000000000000000000000000000000000000034230f889e62da5be4",
          "blockHash": "0xd6cfb603d46af4ef8f590fc5ec711a2da619f54d79194c0ea6552c67051f1e06",
          "blockNumber": "0x725257",
          "transactionHash": "0x6565357751f59c228894f3a154a6c097cb7ab7825447071460602ffc90cc567c",
          "transactionIndex": "0x48",
          "logIndex": "0xc0",
          "removed": false
        },
        {
          "address": "0x270e88f8683660553e8ba4eb2ad7c91a1710d769",
          "topics": [
            "0x4afcb4a87cdbd9974efdb92ee48bc8d7cd0ae4bf217004db3d080cbaee652ca7"
          ],
          "data": "0x000000000000000000000000000000000000000000000000000000006786ce040000000000000000000000000000000000000000000000000003ab55d41388df0000000000000000000000000000000000000000000000000dc83f5dea284f5f",
          "blockHash": "0xd6cfb603d46af4ef8f590fc5ec711a2da619f54d79194c0ea6552c67051f1e06",
          "blockNumber": "0x725257",
          "transactionHash": "0x6565357751f59c228894f3a154a6c097cb7ab7825447071460602ffc90cc567c",
          "transactionIndex": "0x48",
          "logIndex": "0xc1",
          "removed": false
        }
      ],
      "logsBloom": "0x00000000000000000000000000000000000000000000000000000000000000000000000000000000000000000000000020000000000000004000000000000000000000000000000000000008000000000000000000000000000000000000000000000000020000000000000000000800020000000000000000000010000000000000000000010000000000000000000000000000000000000000010000000000000000000000000000000000000000004000000000000000000000000000000000000002000000800000000000000000000000000000080000008000000020000000000000000000000000000000000000000000000000000000000000000000",
      "type": "0x2",
      "transactionHash": "0x6565357751f59c228894f3a154a6c097cb7ab7825447071460602ffc90cc567c",
      "transactionIndex": "0x48",
      "blockHash": "0xd6cfb603d46af4ef8f590fc5ec711a2da619f54d79194c0ea6552c67051f1e06",
      "blockNumber": "0x725257",
      "gasUsed": "0xfb93",
      "effectiveGasPrice": "0x53eebc0e3",
      "from": "0xc77f7fed3b5cc8249adc428c5f44c9063b9734b4",
      "to": "0x270e88f8683660553e8ba4eb2ad7c91a1710d769",
      "contractAddress": null
    }
  ],
  "libraries": [],
  "pending": [],
  "returns": {},
  "timestamp": 1736887812,
  "chain": 11155111,
  "commit": "51a374b"
}