{
  "transactions": [
    {
      "hash": "0x163fd2213d1b85aae16439d04a722d67fa2574b927d27eba235e5dc5817d5b2a",
      "transactionType": "CALL",
      "contractName": null,
      "contractAddress": "0x8aafd3ede9adb0ff97c7aebce82a919afb1c8764",
      "function": "sell(uint256)",
      "arguments": [
        "1407221"
      ],
      "transaction": {
        "from": "0xc77f7fed3b5cc8249adc428c5f44c9063b9734b4",
        "to": "0x8aafd3ede9adb0ff97c7aebce82a919afb1c8764",
        "gas": "0x16208",
        "value": "0x0",
        "input": "0xe4849b3200000000000000000000000000000000000000000000000000000000001578f5",
        "nonce": "0x1282",
        "chainId": "0xaa36a7"
      },
      "additionalContracts": [],
      "isFixedGasLimit": false
    }
  ],
  "receipts": [
    {
      "status": "0x1",
      "cumulativeGasUsed": "0x931ef1",
      "logs": [
        {
          "address": "0x8aafd3ede9adb0ff97c7aebce82a919afb1c8764",
          "topics": [
            "0xddf252ad1be2c89b69c2b068fc378daa952ba7f163c4a11628f55a4df523b3ef",
            "0x000000000000000000000000c77f7fed3b5cc8249adc428c5f44c9063b9734b4",
            "0x0000000000000000000000000000000000000000000000000000000000000000"
          ],
          "data": "0x0000000000000000000000000000000000000000000000000000000000154cfc",
          "blockHash": "0xd63ad3e006da80550bf4fe00b02a1b333138205df2c71c55b0c7e31f79aa34e0",
          "blockNumber": "0x73196e",
          "transactionHash": "0x163fd2213d1b85aae16439d04a722d67fa2574b927d27eba235e5dc5817d5b2a",
          "transactionIndex": "0x74",
          "logIndex": "0x9d",
          "removed": false
        },
        {
          "address": "0x8aafd3ede9adb0ff97c7aebce82a919afb1c8764",
          "topics": [
            "0xddf252ad1be2c89b69c2b068fc378daa952ba7f163c4a11628f55a4df523b3ef",
            "0x000000000000000000000000c77f7fed3b5cc8249adc428c5f44c9063b9734b4",
            "0x000000000000000000000000c77f7fed3b5cc8249adc428c5f44c9063b9734b4"
          ],
          "data": "0x0000000000000000000000000000000000000000000000000000000000002bf9",
          "blockHash": "0xd63ad3e006da80550bf4fe00b02a1b333138205df2c71c55b0c7e31f79aa34e0",
          "blockNumber": "0x73196e",
          "transactionHash": "0x163fd2213d1b85aae16439d04a722d67fa2574b927d27eba235e5dc5817d5b2a",
          "transactionIndex": "0x74",
          "logIndex": "0x9e",
          "removed": false
        },
        {
          "address": "0x8aafd3ede9adb0ff97c7aebce82a919afb1c8764",
          "topics": [
            "0x4afcb4a87cdbd9974efdb92ee48bc8d7cd0ae4bf217004db3d080cbaee652ca7"
          ],
          "data": "0x0000000000000000000000000000000000000000000000000000000067902df80000000000000000000000000000000000000000000000000005435ec4690b430000000000000000000000000000000000000000000000000000000000000824",
          "blockHash": "0xd63ad3e006da80550bf4fe00b02a1b333138205df2c71c55b0c7e31f79aa34e0",
          "blockNumber": "0x73196e",
          "transactionHash": "0x163fd2213d1b85aae16439d04a722d67fa2574b927d27eba235e5dc5817d5b2a",
          "transactionIndex": "0x74",
          "logIndex": "0x9f",
          "removed": false
        }
      ],
      "logsBloom": "0x00000000000000000000000000000000000000000600000000000000000000000000000000000000000000000000000000000000000000004000000000000000000000000000004000000008000000000000000000000000000000000000000000000000020000000000000000000800020000000000000000000010000000000000000000000000000000000000000000000000000000000000010000000000000000000000000000000000000000004000000000000000000000000000000000000002000000800000000000000000000000000000080000000000000020000000000000000000000000000000000000000000000000000000000000000000",
      "type": "0x2",
      "transactionHash": "0x163fd2213d1b85aae16439d04a722d67fa2574b927d27eba235e5dc5817d5b2a",
      "transactionIndex": "0x74",
      "blockHash": "0xd63ad3e006da80550bf4fe00b02a1b333138205df2c71c55b0c7e31f79aa34e0",
      "blockNumber": "0x73196e",
      "gasUsed": "0xf213",
      "effectiveGasPrice": "0x42075381",
      "from": "0xc77f7fed3b5cc8249adc428c5f44c9063b9734b4",
      "to": "0x8aafd3ede9adb0ff97c7aebce82a919afb1c8764",
      "contractAddress": null
    }
  ],
  "libraries": [],
  "pending": [],
  "returns": {},
  "timestamp": 1737502201,
  "chain": 11155111,
  "commit": "1d2fb70"
}