{
  "transactions": [
    {
      "hash": "0x04f7d64dec98e8ef208846761b9c52e3499e7f84238681db2825027deb68f6bc",
      "transactionType": "CALL",
      "contractName": null,
      "contractAddress": "0x8aafd3ede9adb0ff97c7aebce82a919afb1c8764",
      "function": "sell(uint256)",
      "arguments": [
        "695802999476504591556"
      ],
      "transaction": {
        "from": "0xc77f7fed3b5cc8249adc428c5f44c9063b9734b4",
        "to": "0x8aafd3ede9adb0ff97c7aebce82a919afb1c8764",
        "gas": "0x17270",
        "value": "0x0",
        "input": "0xe4849b32000000000000000000000000000000000000000000000025b834d580685d7cc4",
        "nonce": "0x1131",
        "chainId": "0xaa36a7"
      },
      "additionalContracts": [],
      "isFixedGasLimit": false
    }
  ],
  "receipts": [
    {
      "status": "0x1",
      "cumulativeGasUsed": "0x11e42ac",
      "logs": [
        {
          "address": "0x8aafd3ede9adb0ff97c7aebce82a919afb1c8764",
          "topics": [
            "0xddf252ad1be2c89b69c2b068fc378daa952ba7f163c4a11628f55a4df523b3ef",
            "0x000000000000000000000000c77f7fed3b5cc8249adc428c5f44c9063b9734b4",
            "0x0000000000000000000000000000000000000000000000000000000000000000"
          ],
          "data": "0x0000000000000000000000000000000000000000000000256af4ec5e9cc73c48",
          "blockHash": "0x51d69887108242be0cb78c65dd576dd890dcc77ceca27ace3cddd681de1a1440",
          "blockNumber": "0x7317e9",
          "transactionHash": "0x04f7d64dec98e8ef208846761b9c52e3499e7f84238681db2825027deb68f6bc",
          "transactionIndex": "0xc1",
          "logIndex": "0x119",
          "removed": false
        },
        {
          "address": "0x8aafd3ede9adb0ff97c7aebce82a919afb1c8764",
          "topics": [
            "0xddf252ad1be2c89b69c2b068fc378daa952ba7f163c4a11628f55a4df523b3ef",
            "0x000000000000000000000000c77f7fed3b5cc8249adc428c5f44c9063b9734b4",
            "0x000000000000000000000000c77f7fed3b5cc8249adc428c5f44c9063b9734b4"
          ],
          "data": "0x0000000000000000000000000000000000000000000000004d3fe921cb96407c",
          "blockHash": "0x51d69887108242be0cb78c65dd576dd890dcc77ceca27ace3cddd681de1a1440",
          "blockNumber": "0x7317e9",
          "transactionHash": "0x04f7d64dec98e8ef208846761b9c52e3499e7f84238681db2825027deb68f6bc",
          "transactionIndex": "0xc1",
          "logIndex": "0x11a",
          "removed": false
        },
        {
          "address": "0x8aafd3ede9adb0ff97c7aebce82a919afb1c8764",
          "topics": [
            "0x4afcb4a87cdbd9974efdb92ee48bc8d7cd0ae4bf217004db3d080cbaee652ca7"
          ],
          "data": "0x0000000000000000000000000000000000000000000000000000000067901bb000000000000000000000000000000000000000000000000000051369e3f10b010000000000000000000000000000000000000000000000000dc8f8027ccd32e3",
          "blockHash": "0x51d69887108242be0cb78c65dd576dd890dcc77ceca27ace3cddd681de1a1440",
          "blockNumber": "0x7317e9",
          "transactionHash": "0x04f7d64dec98e8ef208846761b9c52e3499e7f84238681db2825027deb68f6bc",
          "transactionIndex": "0xc1",
          "logIndex": "0x11b",
          "removed": false
        }
      ],
      "logsBloom": "0x00000000000000000000000000000000000000000600000000000000000000000000000000000000000000000000000000000000000000004000000000000000000000000000004000000008000000000000000000000000000000000000000000000000020000000000000000000800020000000000000000000010000000000000000000000000000000000000000000000000000000000000010000000000000000000000000000000000000000004000000000000000000000000000000000000002000000800000000000000000000000000000080000000000000020000000000000000000000000000000000000000000000000000000000000000000",
      "type": "0x2",
      "transactionHash": "0x04f7d64dec98e8ef208846761b9c52e3499e7f84238681db2825027deb68f6bc",
      "transactionIndex": "0xc1",
      "blockHash": "0x51d69887108242be0cb78c65dd576dd890dcc77ceca27ace3cddd681de1a1440",
      "blockNumber": "0x7317e9",
      "gasUsed": "0xfd4b",
      "effectiveGasPrice": "0x39cf9c01",
      "from": "0xc77f7fed3b5cc8249adc428c5f44c9063b9734b4",
      "to": "0x8aafd3ede9adb0ff97c7aebce82a919afb1c8764",
      "contractAddress": null
    }
  ],
  "libraries": [],
  "pending": [],
  "returns": {},
  "timestamp": 1737497521,
  "chain": 11155111,
  "commit": "1d2fb70"
}