{
  "transactions": [
    {
      "hash": "0x2466961683a831b1302c4249566d950d603eee4df4a8b56e500c7a9c1fe64023",
      "transactionType": "CALL",
      "contractName": null,
      "contractAddress": "0x8aafd3ede9adb0ff97c7aebce82a919afb1c8764",
      "function": "sell(uint256)",
      "arguments": [
        "23510347476"
      ],
      "transaction": {
        "from": "0xc77f7fed3b5cc8249adc428c5f44c9063b9734b4",
        "to": "0x8aafd3ede9adb0ff97c7aebce82a919afb1c8764",
        "gas": "0x1722a",
        "value": "0x0",
        "input": "0xe4849b320000000000000000000000000000000000000000000000000000000579536ed4",
        "nonce": "0x1028",
        "chainId": "0xaa36a7"
      },
      "additionalContracts": [],
      "isFixedGasLimit": false
    }
  ],
  "receipts": [
    {
      "status": "0x1",
      "cumulativeGasUsed": "0x9dd9a3",
      "logs": [
        {
          "address": "0x8aafd3ede9adb0ff97c7aebce82a919afb1c8764",
          "topics": [
            "0xddf252ad1be2c89b69c2b068fc378daa952ba7f163c4a11628f55a4df523b3ef",
            "0x000000000000000000000000c77f7fed3b5cc8249adc428c5f44c9063b9734b4",
            "0x0000000000000000000000000000000000000000000000000000000000000000"
          ],
          "data": "0x000000000000000000000000000000000000000000000000000000056e1d8479",
          "blockHash": "0x3ef20304bf70c2d6e69fd5a04ef2fe89f97ef808a0a8d7ad596e8317b28b73d7",
          "blockNumber": "0x7316a2",
          "transactionHash": "0x2466961683a831b1302c4249566d950d603eee4df4a8b56e500c7a9c1fe64023",
          "transactionIndex": "0x79",
          "logIndex": "0x7c",
          "removed": false
        },
        {
          "address": "0x8aafd3ede9adb0ff97c7aebce82a919afb1c8764",
          "topics": [
            "0xddf252ad1be2c89b69c2b068fc378daa952ba7f163c4a11628f55a4df523b3ef",
            "0x000000000000000000000000c77f7fed3b5cc8249adc428c5f44c9063b9734b4",
            "0x000000000000000000000000c77f7fed3b5cc8249adc428c5f44c9063b9734b4"
          ],
          "data": "0x000000000000000000000000000000000000000000000000000000000b35ea5b",
          "blockHash": "0x3ef20304bf70c2d6e69fd5a04ef2fe89f97ef808a0a8d7ad596e8317b28b73d7",
          "blockNumber": "0x7316a2",
          "transactionHash": "0x2466961683a831b1302c4249566d950d603eee4df4a8b56e500c7a9c1fe64023",
          "transactionIndex": "0x79",
          "logIndex": "0x7d",
          "removed": false
        },
        {
          "address": "0x8aafd3ede9adb0ff97c7aebce82a919afb1c8764",
          "topics": [
            "0x4afcb4a87cdbd9974efdb92ee48bc8d7cd0ae4bf217004db3d080cbaee652ca7"
          ],
          "data": "0x0000000000000000000000000000000000000000000000000000000067900c440000000000000000000000000000000000000000000000000004ec35507ed2700000000000000000000000000000000000000000000000000000000001f11302",
          "blockHash": "0x3ef20304bf70c2d6e69fd5a04ef2fe89f97ef808a0a8d7ad596e8317b28b73d7",
          "blockNumber": "0x7316a2",
          "transactionHash": "0x2466961683a831b1302c4249566d950d603eee4df4a8b56e500c7a9c1fe64023",
          "transactionIndex": "0x79",
          "logIndex": "0x7e",
          "removed": false
        }
      ],
      "logsBloom": "0x00000000000000000000000000000000000000000600000000000000000000000000000000000000000000000000000000000000000000004000000000000000000000000000004000000008000000000000000000000000000000000000000000000000020000000000000000000800020000000000000000000010000000000000000000000000000000000000000000000000000000000000010000000000000000000000000000000000000000004000000000000000000000000000000000000002000000800000000000000000000000000000080000000000000020000000000000000000000000000000000000000000000000000000000000000000",
      "type": "0x2",
      "transactionHash": "0x2466961683a831b1302c4249566d950d603eee4df4a8b56e500c7a9c1fe64023",
      "transactionIndex": "0x79",
      "blockHash": "0x3ef20304bf70c2d6e69fd5a04ef2fe89f97ef808a0a8d7ad596e8317b28b73d7",
      "blockNumber": "0x7316a2",
      "gasUsed": "0xfd1b",
      "effectiveGasPrice": "0x47be50ba",
      "from": "0xc77f7fed3b5cc8249adc428c5f44c9063b9734b4",
      "to": "0x8aafd3ede9adb0ff97c7aebce82a919afb1c8764",
      "contractAddress": null
    }
  ],
  "libraries": [],
  "pending": [],
  "returns": {},
  "timestamp": 1737493573,
  "chain": 11155111,
  "commit": "1d2fb70"
}