{
  "transactions": [
    {
      "hash": "0xf5fbf29058b9a91bf09acbc2c470d00bd09c7369abcdcf15863ef5505629015f",
      "transactionType": "CALL",
      "contractName": null,
      "contractAddress": "0x5eb9cc76c3506942c1c0ead70e877dd5e4f00cb0",
      "function": "buy(address)",
      "arguments": [
        "0xC77f7fed3b5Cc8249aDc428c5F44C9063B9734b4"
      ],
      "transaction": {
        "from": "0xc77f7fed3b5cc8249adc428c5f44c9063b9734b4",
        "to": "0x5eb9cc76c3506942c1c0ead70e877dd5e4f00cb0",
        "gas": "0x156c8",
        "value": "0xde0b6b3a7640000",
        "input": "0xf088d547000000000000000000000000c77f7fed3b5cc8249adc428c5f44c9063b9734b4",
        "nonce": "0x1e9",
        "chainId": "0xaa36a7"
      },
      "additionalContracts": [],
      "isFixedGasLimit": false
    }
  ],
  "receipts": [
    {
      "status": "0x1",
      "cumulativeGasUsed": "0x12cdba0",
      "logs": [
        {
          "address": "0x5eb9cc76c3506942c1c0ead70e877dd5e4f00cb0",
          "topics": [
            "0xddf252ad1be2c89b69c2b068fc378daa952ba7f163c4a11628f55a4df523b3ef",
            "0x0000000000000000000000000000000000000000000000000000000000000000",
            "0x000000000000000000000000c77f7fed3b5cc8249adc428c5f44c9063b9734b4"
          ],
          "data": "0x00000000000000000000000000000000000000000000003584c6637f9da09f36",
          "blockHash": "0xae988deb99c2461acfba5f5ae8c47bc12b6341597a13fd80b9957326a5b78de4",
          "blockNumber": "0x724aff",
          "transactionHash": "0xf5fbf29058b9a91bf09acbc2c470d00bd09c7369abcdcf15863ef5505629015f",
          "transactionIndex": "0x70",
          "logIndex": "0xbf",
          "removed": false
        },
        {
          "address": "0x5eb9cc76c3506942c1c0ead70e877dd5e4f00cb0",
          "topics": [
            "0xddf252ad1be2c89b69c2b068fc378daa952ba7f163c4a11628f55a4df523b3ef",
            "0x0000000000000000000000000000000000000000000000000000000000000000",
            "0x000000000000000000000000c77f7fed3b5cc8249adc428c5f44c9063b9734b4"
          ],
          "data": "0x000000000000000000000000000000000000000000000000298f1e7c5664d4b9",
          "blockHash": "0xae988deb99c2461acfba5f5ae8c47bc12b6341597a13fd80b9957326a5b78de4",
          "blockNumber": "0x724aff",
          "transactionHash": "0xf5fbf29058b9a91bf09acbc2c470d00bd09c7369abcdcf15863ef5505629015f",
          "transactionIndex": "0x70",
          "logIndex": "0xc0",
          "removed": false
        },
        {
          "address": "0x5eb9cc76c3506942c1c0ead70e877dd5e4f00cb0",
          "topics": [
            "0x4afcb4a87cdbd9974efdb92ee48bc8d7cd0ae4bf217004db3d080cbaee652ca7"
          ],
          "data": "0x000000000000000000000000000000000000000000000000000000006786759c000000000000000000000000000000000000000000000000000390086f5efcec0000000000000000000000000000000000000000000000000de0b6b3a7640000",
          "blockHash": "0xae988deb99c2461acfba5f5ae8c47bc12b6341597a13fd80b9957326a5b78de4",
          "blockNumber": "0x724aff",
          "transactionHash": "0xf5fbf29058b9a91bf09acbc2c470d00bd09c7369abcdcf15863ef5505629015f",
          "transactionIndex": "0x70",
          "logIndex": "0xc1",
          "removed": false
        }
      ],
      "logsBloom": "0x00000000000000000000000000000000000000000000000000000000000000000000000000000000000000000000000000000000000000004000000000000000000000000000000000000008000000000000000000000000000000000000000000000000020000000000000004000800020000000000000000000010000000000000000000000000000000000000000000000000000000000000010000000000000000000000000000000000000000004000000000000000000000000000020000000002000000800000008000000000000000000000080000000000000020000000000000000000000000000000000000000000000000000000000000000000",
      "type": "0x2",
      "transactionHash": "0xf5fbf29058b9a91bf09acbc2c470d00bd09c7369abcdcf15863ef5505629015f",
      "transactionIndex": "0x70",
      "blockHash": "0xae988deb99c2461acfba5f5ae8c47bc12b6341597a13fd80b9957326a5b78de4",
      "blockNumber": "0x724aff",
      "gasUsed": "0xf82c",
      "effectiveGasPrice": "0x41af345b5",
      "from": "0xc77f7fed3b5cc8249adc428c5f44c9063b9734b4",
      "to": "0x5eb9cc76c3506942c1c0ead70e877dd5e4f00cb0",
      "contractAddress": null
    }
  ],
  "libraries": [],
  "pending": [],
  "returns": {},
  "timestamp": 1736865180,
  "chain": 11155111,
  "commit": "51a374b"
}