{
  "transactions": [
    {
      "hash": "0x9c90a8b2649f8d89d7f6aea6a57fa88d0a1579bada7ac59a070a72f3e56c7a99",
      "transactionType": "CALL",
      "contractName": null,
      "contractAddress": "0x5eb9cc76c3506942c1c0ead70e877dd5e4f00cb0",
      "function": "buy(address)",
      "arguments": [
        "0xC77f7fed3b5Cc8249aDc428c5F44C9063B9734b4"
      ],
      "transaction": {
        "from": "0xc77f7fed3b5cc8249adc428c5f44c9063b9734b4",
        "to": "0x5eb9cc76c3506942c1c0ead70e877dd5e4f00cb0",
        "gas": "0x1b30c",
        "value": "0xde0b6b3a7640000",
        "input": "0xf088d547000000000000000000000000c77f7fed3b5cc8249adc428c5f44c9063b9734b4",
        "nonce": "0x274",
        "chainId": "0xaa36a7"
      },
      "additionalContracts": [],
      "isFixedGasLimit": false
    }
  ],
  "receipts": [
    {
      "status": "0x1",
      "cumulativeGasUsed": "0x137daa8",
      "logs": [
        {
          "address": "0x5eb9cc76c3506942c1c0ead70e877dd5e4f00cb0",
          "topics": [
            "0xddf252ad1be2c89b69c2b068fc378daa952ba7f163c4a11628f55a4df523b3ef",
            "0x0000000000000000000000000000000000000000000000000000000000000000",
            "0x000000000000000000000000c77f7fed3b5cc8249adc428c5f44c9063b9734b4"
          ],
          "data": "0x0000000000000000000000000000000000000000000000357c0f007292c006cd",
          "blockHash": "0x1c5752a724caf524866e8d8d109c9a9492f04538139fa9c463648b9ea956aa67",
          "blockNumber": "0x724e3b",
          "transactionHash": "0x9c90a8b2649f8d89d7f6aea6a57fa88d0a1579bada7ac59a070a72f3e56c7a99",
          "transactionIndex": "0x6e",
          "logIndex": "0x106",
          "removed": false
        },
        {
          "address": "0x5eb9cc76c3506942c1c0ead70e877dd5e4f00cb0",
          "topics": [
            "0xddf252ad1be2c89b69c2b068fc378daa952ba7f163c4a11628f55a4df523b3ef",
            "0x0000000000000000000000000000000000000000000000000000000000000000",
            "0x000000000000000000000000c77f7fed3b5cc8249adc428c5f44c9063b9734b4"
          ],
          "data": "0x000000000000000000000000000000000000000000000000298859bcd5ee0deb",
          "blockHash": "0x1c5752a724caf524866e8d8d109c9a9492f04538139fa9c463648b9ea956aa67",
          "blockNumber": "0x724e3b",
          "transactionHash": "0x9c90a8b2649f8d89d7f6aea6a57fa88d0a1579bada7ac59a070a72f3e56c7a99",
          "transactionIndex": "0x6e",
          "logIndex": "0x107",
          "removed": false
        },
        {
          "address": "0x5eb9cc76c3506942c1c0ead70e877dd5e4f00cb0",
          "topics": [
            "0x4afcb4a87cdbd9974efdb92ee48bc8d7cd0ae4bf217004db3d080cbaee652ca7"
          ],
          "data": "0x0000000000000000000000000000000000000000000000000000000067869c780000000000000000000000000000000000000000000000000003909d1119bdad0000000000000000000000000000000000000000000000000de0b6b3a7640000",
          "blockHash": "0x1c5752a724caf524866e8d8d109c9a9492f04538139fa9c463648b9ea956aa67",
          "blockNumber": "0x724e3b",
          "transactionHash": "0x9c90a8b2649f8d89d7f6aea6a57fa88d0a1579bada7ac59a070a72f3e56c7a99",
          "transactionIndex": "0x6e",
          "logIndex": "0x108",
          "removed": false
        }
      ],
      "logsBloom": "0x00000000000000000000000000000000000000000000000000000000000000000000000000000000000000000000000000000000000000004000000000000000000000000000000000000008000000000000000000000000000000000000000000000000020000000000000004000800020000000000000000000010000000000000000000000000000000000000000000000000000000000000010000000000000000000000000000000000000000004000000000000000000000000000020000000002000000800000008000000000000000000000080000000000000020000000000000000000000000000000000000000000000000000000000000000000",
      "type": "0x2",
      "transactionHash": "0x9c90a8b2649f8d89d7f6aea6a57fa88d0a1579bada7ac59a070a72f3e56c7a99",
      "transactionIndex": "0x6e",
      "blockHash": "0x1c5752a724caf524866e8d8d109c9a9492f04538139fa9c463648b9ea956aa67",
      "blockNumber": "0x724e3b",
      "gasUsed": "0x13af8",
      "effectiveGasPrice": "0x33e04e638",
      "from": "0xc77f7fed3b5cc8249adc428c5f44c9063b9734b4",
      "to": "0x5eb9cc76c3506942c1c0ead70e877dd5e4f00cb0",
      "contractAddress": null
    }
  ],
  "libraries": [],
  "pending": [],
  "returns": {},
  "timestamp": 1736875130,
  "chain": 11155111,
  "commit": "51a374b"
}