{
  "transactions": [
    {
      "hash": "0x1776848a474e6d7432f3ab8d8ad3ea6e26f7ef7b02ce851d459b2a5b93bc1fbb",
      "transactionType": "CALL",
      "contractName": null,
      "contractAddress": "0x8aafd3ede9adb0ff97c7aebce82a919afb1c8764",
      "function": "sell(uint256)",
      "arguments": [
        "704474864149202086373"
      ],
      "transaction": {
        "from": "0xc77f7fed3b5cc8249adc428c5f44c9063b9734b4",
        "to": "0x8aafd3ede9adb0ff97c7aebce82a919afb1c8764",
        "gas": "0x17270",
        "value": "0x0",
        "input": "0xe4849b32000000000000000000000000000000000000000000000026308d7c79d4c229e5",
        "nonce": "0x10c3",
        "chainId": "0xaa36a7"
      },
      "additionalContracts": [],
      "isFixedGasLimit": false
    }
  ],
  "receipts": [
    {
      "status": "0x1",
      "cumulativeGasUsed": "0xaf7baa",
      "logs": [
        {
          "address": "0x8aafd3ede9adb0ff97c7aebce82a919afb1c8764",
          "topics": [
            "0xddf252ad1be2c89b69c2b068fc378daa952ba7f163c4a11628f55a4df523b3ef",
            "0x000000000000000000000000c77f7fed3b5cc8249adc428c5f44c9063b9734b4",
            "0x0000000000000000000000000000000000000000000000000000000000000000"
          ],
          "data": "0x000000000000000000000000000000000000000000000025e2571b395e5204b3",
          "blockHash": "0x2c6c10bb2a39d072fea3ea8c37e06e0e6701dc6352dfa57b077ce9d9f18c2935",
          "blockNumber": "0x73175d",
          "transactionHash": "0x1776848a474e6d7432f3ab8d8ad3ea6e26f7ef7b02ce851d459b2a5b93bc1fbb",
          "transactionIndex": "0x8f",
          "logIndex": "0xd4",
          "removed": false
        },
        {
          "address": "0x8aafd3ede9adb0ff97c7aebce82a919afb1c8764",
          "topics": [
            "0xddf252ad1be2c89b69c2b068fc378daa952ba7f163c4a11628f55a4df523b3ef",
            "0x000000000000000000000000c77f7fed3b5cc8249adc428c5f44c9063b9734b4",
            "0x000000000000000000000000c77f7fed3b5cc8249adc428c5f44c9063b9734b4"
          ],
          "data": "0x0000000000000000000000000000000000000000000000004e36614076702532",
          "blockHash": "0x2c6c10bb2a39d072fea3ea8c37e06e0e6701dc6352dfa57b077ce9d9f18c2935",
          "blockNumber": "0x73175d",
          "transactionHash": "0x1776848a474e6d7432f3ab8d8ad3ea6e26f7ef7b02ce851d459b2a5b93bc1fbb",
          "transactionIndex": "0x8f",
          "logIndex": "0xd5",
          "removed": false
        },
        {
          "address": "0x8aafd3ede9adb0ff97c7aebce82a919afb1c8764",
          "topics": [
            "0x4afcb4a87cdbd9974efdb92ee48bc8d7cd0ae4bf217004db3d080cbaee652ca7"
          ],
          "data": "0x00000000000000000000000000000000000000000000000000000000679015200000000000000000000000000000000000000000000000000005036f912f8e1e0000000000000000000000000000000000000000000000000dc8fb66b3ddb5e3",
          "blockHash": "0x2c6c10bb2a39d072fea3ea8c37e06e0e6701dc6352dfa57b077ce9d9f18c2935",
          "blockNumber": "0x73175d",
          "transactionHash": "0x1776848a474e6d7432f3ab8d8ad3ea6e26f7ef7b02ce851d459b2a5b93bc1fbb",
          "transactionIndex": "0x8f",
          "logIndex": "0xd6",
          "removed": false
        }
      ],
      "logsBloom": "0x00000000000000000000000000000000000000000600000000000000000000000000000000000000000000000000000000000000000000004000000000000000000000000000004000000008000000000000000000000000000000000000000000000000020000000000000000000800020000000000000000000010000000000000000000000000000000000000000000000000000000000000010000000000000000000000000000000000000000004000000000000000000000000000000000000002000000800000000000000000000000000000080000000000000020000000000000000000000000000000000000000000000000000000000000000000",
      "type": "0x2",
      "transactionHash": "0x1776848a474e6d7432f3ab8d8ad3ea6e26f7ef7b02ce851d459b2a5b93bc1fbb",
      "transactionIndex": "0x8f",
      "blockHash": "0x2c6c10bb2a39d072fea3ea8c37e06e0e6701dc6352dfa57b077ce9d9f18c2935",
      "blockNumber": "0x73175d",
      "gasUsed": "0xfd4b",
      "effectiveGasPrice": "0x35cb696d",
      "from": "0xc77f7fed3b5cc8249adc428c5f44c9063b9734b4",
      "to": "0x8aafd3ede9adb0ff97c7aebce82a919afb1c8764",
      "contractAddress": null
    }
  ],
  "libraries": [],
  "pending": [],
  "returns": {},
  "timestamp": 1737495842,
  "chain": 11155111,
  "commit": "1d2fb70"
}