{
  "transactions": [
    {
      "hash": "0xe0e40708138607eb3e0f70c5e9713da84d642c7ba8cb714c9863e72ae70f8320",
      "transactionType": "CALL",
      "contractName": null,
      "contractAddress": "0x5eb9cc76c3506942c1c0ead70e877dd5e4f00cb0",
      "function": "buy(address)",
      "arguments": [
        "0xC77f7fed3b5Cc8249aDc428c5F44C9063B9734b4"
      ],
      "transaction": {
        "from": "0xc77f7fed3b5cc8249adc428c5f44c9063b9734b4",
        "to": "0x5eb9cc76c3506942c1c0ead70e877dd5e4f00cb0",
        "gas": "0x1b30c",
        "value": "0xde0b6b3a7640000",
        "input": "0xf088d547000000000000000000000000c77f7fed3b5cc8249adc428c5f44c9063b9734b4",
        "nonce": "0x384",
        "chainId": "0xaa36a7"
      },
      "additionalContracts": [],
      "isFixedGasLimit": false
    }
  ],
  "receipts": [
    {
      "status": "0x1",
      "cumulativeGasUsed": "0xd35293",
      "logs": [
        {
          "address": "0x5eb9cc76c3506942c1c0ead70e877dd5e4f00cb0",
          "topics": [
            "0xddf252ad1be2c89b69c2b068fc378daa952ba7f163c4a11628f55a4df523b3ef",
            "0x0000000000000000000000000000000000000000000000000000000000000000",
            "0x000000000000000000000000c77f7fed3b5cc8249adc428c5f44c9063b9734b4"
          ],
          "data": "0x000000000000000000000000000000000000000000000035754835e08826941b",
          "blockHash": "0xd4c0b499835e0c180cb61d774c95b90a732cbeeb2a309c7ca2e6e34cac2c55f5",
          "blockNumber": "0x724f7e",
          "transactionHash": "0xe0e40708138607eb3e0f70c5e9713da84d642c7ba8cb714c9863e72ae70f8320",
          "transactionIndex": "0x51",
          "logIndex": "0x60",
          "removed": false
        },
        {
          "address": "0x5eb9cc76c3506942c1c0ead70e877dd5e4f00cb0",
          "topics": [
            "0xddf252ad1be2c89b69c2b068fc378daa952ba7f163c4a11628f55a4df523b3ef",
            "0x0000000000000000000000000000000000000000000000000000000000000000",
            "0x000000000000000000000000c77f7fed3b5cc8249adc428c5f44c9063b9734b4"
          ],
          "data": "0x0000000000000000000000000000000000000000000000002983169cef6e20ec",
          "blockHash": "0xd4c0b499835e0c180cb61d774c95b90a732cbeeb2a309c7ca2e6e34cac2c55f5",
          "blockNumber": "0x724f7e",
          "transactionHash": "0xe0e40708138607eb3e0f70c5e9713da84d642c7ba8cb714c9863e72ae70f8320",
          "transactionIndex": "0x51",
          "logIndex": "0x61",
          "removed": false
        },
        {
          "address": "0x5eb9cc76c3506942c1c0ead70e877dd5e4f00cb0",
          "topics": [
            "0x4afcb4a87cdbd9974efdb92ee48bc8d7cd0ae4bf217004db3d080cbaee652ca7"
          ],
          "data": "0x000000000000000000000000000000000000000000000000000000006786ab9c00000000000000000000000000000000000000000000000000039110c11f9e580000000000000000000000000000000000000000000000000de0b6b3a7640000",
          "blockHash": "0xd4c0b499835e0c180cb61d774c95b90a732cbeeb2a309c7ca2e6e34cac2c55f5",
          "blockNumber": "0x724f7e",
          "transactionHash": "0xe0e40708138607eb3e0f70c5e9713da84d642c7ba8cb714c9863e72ae70f8320",
          "transactionIndex": "0x51",
          "logIndex": "0x62",
          "removed": false
        }
      ],
      "logsBloom": "0x00000000000000000000000000000000000000000000000000000000000000000000000000000000000000000000000000000000000000004000000000000000000000000000000000000008000000000000000000000000000000000000000000000000020000000000000004000800020000000000000000000010000000000000000000000000000000000000000000000000000000000000010000000000000000000000000000000000000000004000000000000000000000000000020000000002000000800000008000000000000000000000080000000000000020000000000000000000000000000000000000000000000000000000000000000000",
      "type": "0x2",
      "transactionHash": "0xe0e40708138607eb3e0f70c5e9713da84d642c7ba8cb714c9863e72ae70f8320",
      "transactionIndex": "0x51",
      "blockHash": "0xd4c0b499835e0c180cb61d774c95b90a732cbeeb2a309c7ca2e6e34cac2c55f5",
      "blockNumber": "0x724f7e",
      "gasUsed": "0x13af8",
      "effectiveGasPrice": "0x59c077cb2",
      "from": "0xc77f7fed3b5cc8249adc428c5f44c9063b9734b4",
      "to": "0x5eb9cc76c3506942c1c0ead70e877dd5e4f00cb0",
      "contractAddress": null
    }
  ],
  "libraries": [],
  "pending": [],
  "returns": {},
  "timestamp": 1736879005,
  "chain": 11155111,
  "commit": "51a374b"
}