{
  "transactions": [
    {
      "hash": "0x7286be0d9c7e2cabd71b14ec64b91ce830d11cd1ce4545f0a09aeb643101ad37",
      "transactionType": "CALL",
      "contractName": null,
      "contractAddress": "0x8aafd3ede9adb0ff97c7aebce82a919afb1c8764",
      "function": "sell(uint256)",
      "arguments": [
        "742382827955372798167"
      ],
      "transaction": {
        "from": "0xc77f7fed3b5cc8249adc428c5f44c9063b9734b4",
        "to": "0x8aafd3ede9adb0ff97c7aebce82a919afb1c8764",
        "gas": "0x17270",
        "value": "0x0",
        "input": "0xe4849b320000000000000000000000000000000000000000000000283ea1a0b66dedb0d7",
        "nonce": "0xf53",
        "chainId": "0xaa36a7"
      },
      "additionalContracts": [],
      "isFixedGasLimit": false
    }
  ],
  "receipts": [
    {
      "status": "0x1",
      "cumulativeGasUsed": "0x9daa09",
      "logs": [
        {
          "address": "0x8aafd3ede9adb0ff97c7aebce82a919afb1c8764",
          "topics": [
            "0xddf252ad1be2c89b69c2b068fc378daa952ba7f163c4a11628f55a4df523b3ef",
            "0x000000000000000000000000c77f7fed3b5cc8249adc428c5f44c9063b9734b4",
            "0x0000000000000000000000000000000000000000000000000000000000000000"
          ],
          "data": "0x000000000000000000000000000000000000000000000027ec35d6b910e398e6",
          "blockHash": "0xf4b4262da66e82a34de0d15c82bda6ab765011b7f06c777887389e6adcdb812b",
          "blockNumber": "0x7315ae",
          "transactionHash": "0x7286be0d9c7e2cabd71b14ec64b91ce830d11cd1ce4545f0a09aeb643101ad37",
          "transactionIndex": "0x7e",
          "logIndex": "0x97",
          "removed": false
        },
        {
          "address": "0x8aafd3ede9adb0ff97c7aebce82a919afb1c8764",
          "topics": [
            "0xddf252ad1be2c89b69c2b068fc378daa952ba7f163c4a11628f55a4df523b3ef",
            "0x000000000000000000000000c77f7fed3b5cc8249adc428c5f44c9063b9734b4",
            "0x000000000000000000000000c77f7fed3b5cc8249adc428c5f44c9063b9734b4"
          ],
          "data": "0x000000000000000000000000000000000000000000000000526bc9fd5d0a17f1",
          "blockHash": "0xf4b4262da66e82a34de0d15c82bda6ab765011b7f06c777887389e6adcdb812b",
          "blockNumber": "0x7315ae",
          "transactionHash": "0x7286be0d9c7e2cabd71b14ec64b91ce830d11cd1ce4545f0a09aeb643101ad37",
          "transactionIndex": "0x7e",
          "logIndex": "0x98",
          "removed": false
        },
        {
          "address": "0x8aafd3ede9adb0ff97c7aebce82a919afb1c8764",
          "topics": [
            "0x4afcb4a87cdbd9974efdb92ee48bc8d7cd0ae4bf217004db3d080cbaee652ca7"
          ],
          "data": "0x00000000000000000000000000000000000000000000000000000000679000d40000000000000000000000000000000000000000000000000004c0db2503c3d60000000000000000000000000000000000000000000000000dc82157e50239e2",
          "blockHash": "0xf4b4262da66e82a34de0d15c82bda6ab765011b7f06c777887389e6adcdb812b",
          "blockNumber": "0x7315ae",
          "transactionHash": "0x7286be0d9c7e2cabd71b14ec64b91ce830d11cd1ce4545f0a09aeb643101ad37",
          "transactionIndex": "0x7e",
          "logIndex": "0x99",
          "removed": false
        }
      ],
      "logsBloom": "0x00000000000000000000000000000000000000000600000000000000000000000000000000000000000000000000000000000000000000004000000000000000000000000000004000000008000000000000000000000000000000000000000000000000020000000000000000000800020000000000000000000010000000000000000000000000000000000000000000000000000000000000010000000000000000000000000000000000000000004000000000000000000000000000000000000002000000800000000000000000000000000000080000000000000020000000000000000000000000000000000000000000000000000000000000000000",
      "type": "0x2",
      "transactionHash": "0x7286be0d9c7e2cabd71b14ec64b91ce830d11cd1ce4545f0a09aeb643101ad37",
      "transactionIndex": "0x7e",
      "blockHash": "0xf4b4262da66e82a34de0d15c82bda6ab765011b7f06c777887389e6adcdb812b",
      "blockNumber": "0x7315ae",
      "gasUsed": "0xfd4b",
      "effectiveGasPrice": "0x7dba5465",
      "from": "0xc77f7fed3b5cc8249adc428c5f44c9063b9734b4",
      "to": "0x8aafd3ede9adb0ff97c7aebce82a919afb1c8764",
      "contractAddress": null
    }
  ],
  "libraries": [],
  "pending": [],
  "returns": {},
  "timestamp": 1737490646,
  "chain": 11155111,
  "commit": "1d2fb70"
}