{
  "transactions": [
    {
      "hash": "0x5e50ab75c5388b69fcd522215d8931b9aaf5a7b7b7578042cb9ed721a333ff33",
      "transactionType": "CALL",
      "contractName": null,
      "contractAddress": "0x8aafd3ede9adb0ff97c7aebce82a919afb1c8764",
      "function": "sell(uint256)",
      "arguments": [
        "664556904332378772728"
      ],
      "transaction": {
        "from": "0xc77f7fed3b5cc8249adc428c5f44c9063b9734b4",
        "to": "0x8aafd3ede9adb0ff97c7aebce82a919afb1c8764",
        "gas": "0x17270",
        "value": "0x0",
        "input": "0xe4849b320000000000000000000000000000000000000000000000240694678454b014f8",
        "nonce": "0x12d5",
        "chainId": "0xaa36a7"
      },
      "additionalContracts": [],
      "isFixedGasLimit": false
    }
  ],
  "receipts": [
    {
      "status": "0x1",
      "cumulativeGasUsed": "0xd035c0",
      "logs": [
        {
          "address": "0x8aafd3ede9adb0ff97c7aebce82a919afb1c8764",
          "topics": [
            "0xddf252ad1be2c89b69c2b068fc378daa952ba7f163c4a11628f55a4df523b3ef",
            "0x000000000000000000000000c77f7fed3b5cc8249adc428c5f44c9063b9734b4",
            "0x0000000000000000000000000000000000000000000000000000000000000000"
          ],
          "data": "0x000000000000000000000000000000000000000000000023bccc8fa616920053",
          "blockHash": "0x7f5ef51d926750ad13f6e24ab602fcff8e33c03f4c01fdd34584dd6645e1131d",
          "blockNumber": "0x7319d3",
          "transactionHash": "0x5e50ab75c5388b69fcd522215d8931b9aaf5a7b7b7578042cb9ed721a333ff33",
          "transactionIndex": "0x6d",
          "logIndex": "0xbb",
          "removed": false
        },
        {
          "address": "0x8aafd3ede9adb0ff97c7aebce82a919afb1c8764",
          "topics": [
            "0xddf252ad1be2c89b69c2b068fc378daa952ba7f163c4a11628f55a4df523b3ef",
            "0x000000000000000000000000c77f7fed3b5cc8249adc428c5f44c9063b9734b4",
            "0x000000000000000000000000c77f7fed3b5cc8249adc428c5f44c9063b9734b4"
          ],
          "data": "0x00000000000000000000000000000000000000000000000049c7d7de3e1e14a5",
          "blockHash": "0x7f5ef51d926750ad13f6e24ab602fcff8e33c03f4c01fdd34584dd6645e1131d",
          "blockNumber": "0x7319d3",
          "transactionHash": "0x5e50ab75c5388b69fcd522215d8931b9aaf5a7b7b7578042cb9ed721a333ff33",
          "transactionIndex": "0x6d",
          "logIndex": "0xbc",
          "removed": false
        },
        {
          "address": "0x8aafd3ede9adb0ff97c7aebce82a919afb1c8764",
          "topics": [
            "0x4afcb4a87cdbd9974efdb92ee48bc8d7cd0ae4bf217004db3d080cbaee652ca7"
          ],
          "data": "0x00000000000000000000000000000000000000000000000000000000679032b4000000000000000000000000000000000000000000000000000550713af206c40000000000000000000000000000000000000000000000000dc8ebc21de5018d",
          "blockHash": "0x7f5ef51d926750ad13f6e24ab602fcff8e33c03f4c01fdd34584dd6645e1131d",
          "blockNumber": "0x7319d3",
          "transactionHash": "0x5e50ab75c5388b69fcd522215d8931b9aaf5a7b7b7578042cb9ed721a333ff33",
          "transactionIndex": "0x6d",
          "logIndex": "0xbd",
          "removed": false
        }
      ],
      "logsBloom": "0x00000000000000000000000000000000000000000600000000000000000000000000000000000000000000000000000000000000000000004000000000000000000000000000004000000008000000000000000000000000000000000000000000000000020000000000000000000800020000000000000000000010000000000000000000000000000000000000000000000000000000000000010000000000000000000000000000000000000000004000000000000000000000000000000000000002000000800000000000000000000000000000080000000000000020000000000000000000000000000000000000000000000000000000000000000000",
      "type": "0x2",
      "transactionHash": "0x5e50ab75c5388b69fcd522215d8931b9aaf5a7b7b7578042cb9ed721a333ff33",
      "transactionIndex": "0x6d",
      "blockHash": "0x7f5ef51d926750ad13f6e24ab602fcff8e33c03f4c01fdd34584dd6645e1131d",
      "blockNumber": "0x7319d3",
      "gasUsed": "0xfd4b",
      "effectiveGasPrice": "0x3a077f64",
      "from": "0xc77f7fed3b5cc8249adc428c5f44c9063b9734b4",
      "to": "0x8aafd3ede9adb0ff97c7aebce82a919afb1c8764",
      "contractAddress": null
    }
  ],
  "libraries": [],
  "pending": [],
  "returns": {},
  "timestamp": 1737503414,
  "chain": 11155111,
  "commit": "1d2fb70"
}