{
  "transactions": [
    {
      "hash": "0x0416283399c9dbbf7157dd62f524ebeaffff5760d58738756b0622b0647bdb68",
      "transactionType": "CALL",
      "contractName": null,
      "contractAddress": "0x5eb9cc76c3506942c1c0ead70e877dd5e4f00cb0",
      "function": "sell(uint256)",
      "arguments": [
        "989135695513966892244"
      ],
      "transaction": {
        "from": "0xc77f7fed3b5cc8249adc428c5f44c9063b9734b4",
        "to": "0x5eb9cc76c3506942c1c0ead70e877dd5e4f00cb0",
        "gas": "0x16fec",
        "value": "0x0",
        "input": "0xe4849b320000000000000000000000000000000000000000000000359f03ea6788f054d4",
        "nonce": "0x321",
        "chainId": "0xaa36a7"
      },
      "additionalContracts": [],
      "isFixedGasLimit": false
    }
  ],
  "receipts": [
    {
      "status": "0x1",
      "cumulativeGasUsed": "0xd43c10",
      "logs": [
        {
          "address": "0x5eb9cc76c3506942c1c0ead70e877dd5e4f00cb0",
          "topics": [
            "0xddf252ad1be2c89b69c2b068fc378daa952ba7f163c4a11628f55a4df523b3ef",
            "0x000000000000000000000000c77f7fed3b5cc8249adc428c5f44c9063b9734b4",
            "0x0000000000000000000000000000000000000000000000000000000000000000"
          ],
          "data": "0x0000000000000000000000000000000000000000000000359f03ea6788f054d4",
          "blockHash": "0xabf89d3fc26a14515113bda4ef3cc1595d84109022fc0dbadf67746cf5e24858",
          "blockNumber": "0x724f09",
          "transactionHash": "0x0416283399c9dbbf7157dd62f524ebeaffff5760d58738756b0622b0647bdb68",
          "transactionIndex": "0x3f",
          "logIndex": "0x58",
          "removed": false
        },
        {
          "address": "0x5eb9cc76c3506942c1c0ead70e877dd5e4f00cb0",
          "topics": [
            "0x4afcb4a87cdbd9974efdb92ee48bc8d7cd0ae4bf217004db3d080cbaee652ca7"
          ],
          "data": "0x000000000000000000000000000000000000000000000000000000006786a6200000000000000000000000000000000000000000000000000003910d0960be920000000000000000000000000000000000000000000000000dc7db133226f6bc",
          "blockHash": "0xabf89d3fc26a14515113bda4ef3cc1595d84109022fc0dbadf67746cf5e24858",
          "blockNumber": "0x724f09",
          "transactionHash": "0x0416283399c9dbbf7157dd62f524ebeaffff5760d58738756b0622b0647bdb68",
          "transactionIndex": "0x3f",
          "logIndex": "0x59",
          "removed": false
        }
      ],
      "logsBloom": "0x00000000000000000000000000000000000000000000000000000000000000000000000000000000000000000000000000000000000000004000000000000000000000000000000000000008000000000000000000000000000000000000000000000000020000000000000004000800020000000000000000000010000000000000000000000000000000000000000000000000000000000000010000000000000000000000000000000000000000004000000000000000000000000000020000000002000000800000008000000000000000000000080000000000000020000000000000000000000000000000000000000000000000000000000000000000",
      "type": "0x2",
      "transactionHash": "0x0416283399c9dbbf7157dd62f524ebeaffff5760d58738756b0622b0647bdb68",
      "transactionIndex": "0x3f",
      "blockHash": "0xabf89d3fc26a14515113bda4ef3cc1595d84109022fc0dbadf67746cf5e24858",
      "blockNumber": "0x724f09",
      "gasUsed": "0xfb93",
      "effectiveGasPrice": "0x6a6e2e7c9",
      "from": "0xc77f7fed3b5cc8249adc428c5f44c9063b9734b4",
      "to": "0x5eb9cc76c3506942c1c0ead70e877dd5e4f00cb0",
      "contractAddress": null
    }
  ],
  "libraries": [],
  "pending": [],
  "returns": {},
  "timestamp": 1736877601,
  "chain": 11155111,
  "commit": "51a374b"
}