{
  "transactions": [
    {
      "hash": "0x4a0855d1037039040b937b2b2a05f22f9e71f689d4b2d9e37c2c17bd3ea6b0a1",
      "transactionType": "CALL",
      "contractName": null,
      "contractAddress": "0xd7bc75898e513accccf720a874d44dab5a4b6223",
      "function": "buy(address)",
      "arguments": [
        "0xC77f7fed3b5Cc8249aDc428c5F44C9063B9734b4"
      ],
      "transaction": {
        "from": "0xc77f7fed3b5cc8249adc428c5f44c9063b9734b4",
        "to": "0xd7bc75898e513accccf720a874d44dab5a4b6223",
        "gas": "0x1b30c",
        "value": "0x2386f26fc10000",
        "input": "0xf088d547000000000000000000000000c77f7fed3b5cc8249adc428c5f44c9063b9734b4",
        "nonce": "0x98",
        "chainId": "0xaa36a7"
      },
      "additionalContracts": [],
      "isFixedGasLimit": false
    }
  ],
  "receipts": [
    {
      "status": "0x1",
      "cumulativeGasUsed": "0xe8ef41",
      "logs": [
        {
          "address": "0xd7bc75898e513accccf720a874d44dab5a4b6223",
          "topics": [
            "0xddf252ad1be2c89b69c2b068fc378daa952ba7f163c4a11628f55a4df523b3ef",
            "0x0000000000000000000000000000000000000000000000000000000000000000",
            "0x000000000000000000000000c77f7fed3b5cc8249adc428c5f44c9063b9734b4"
          ],
          "data": "0x0000000000000000000000000000000000000000000000008963bbf86bcf43be",
          "blockHash": "0xed258ecb6d49c976f8dcf214733cd162773889b5a913adc02a1c2f2608ecac5e",
          "blockNumber": "0x72390a",
          "transactionHash": "0x4a0855d1037039040b937b2b2a05f22f9e71f689d4b2d9e37c2c17bd3ea6b0a1",
          "transactionIndex": "0x93",
          "logIndex": "0xf0",
          "removed": false
        },
        {
          "address": "0xd7bc75898e513accccf720a874d44dab5a4b6223",
          "topics": [
            "0xddf252ad1be2c89b69c2b068fc378daa952ba7f163c4a11628f55a4df523b3ef",
            "0x0000000000000000000000000000000000000000000000000000000000000000",
            "0x000000000000000000000000c77f7fed3b5cc8249adc428c5f44c9063b9734b4"
          ],
          "data": "0x000000000000000000000000000000000000000000000000006ab00d25a3b568",
          "blockHash": "0xed258ecb6d49c976f8dcf214733cd162773889b5a913adc02a1c2f2608ecac5e",
          "blockNumber": "0x72390a",
          "transactionHash": "0x4a0855d1037039040b937b2b2a05f22f9e71f689d4b2d9e37c2c17bd3ea6b0a1",
          "transactionIndex": "0x93",
          "logIndex": "0xf1",
          "removed": false
        },
        {
          "address": "0xd7bc75898e513accccf720a874d44dab5a4b6223",
          "topics": [
            "0x4afcb4a87cdbd9974efdb92ee48bc8d7cd0ae4bf217004db3d080cbaee652ca7"
          ],
          "data": "0x0000000000000000000000000000000000000000000000000000000067859dc000000000000000000000000000000000000000000000000000038d7f831ea4aa000000000000000000000000000000000000000000000000002386f26fc10000",
          "blockHash": "0xed258ecb6d49c976f8dcf214733cd162773889b5a913adc02a1c2f2608ecac5e",
          "blockNumber": "0x72390a",
          "transactionHash": "0x4a0855d1037039040b937b2b2a05f22f9e71f689d4b2d9e37c2c17bd3ea6b0a1",
          "transactionIndex": "0x93",
          "logIndex": "0xf2",
          "removed": false
        }
      ],
      "logsBloom": "0x00000000000000000000000000000000000000000000000000000000000000000000000000000000000000000000000000000000000000004000000000000000000000000000000000000008000000000000000000000000000000000000000000000000020000000000000000000800020000000000000000000010000000000000000000000000000000000000000000000000000000000000010000000000000000000000000000000000000000004000001000000000000000000000000000000002000000800000000000004000000000000000080000000000000020000000000000000000000000000000000000000000080000000000000000000000",
      "type": "0x2",
      "transactionHash": "0x4a0855d1037039040b937b2b2a05f22f9e71f689d4b2d9e37c2c17bd3ea6b0a1",
      "transactionIndex": "0x93",
      "blockHash": "0xed258ecb6d49c976f8dcf214733cd162773889b5a913adc02a1c2f2608ecac5e",
      "blockNumber": "0x72390a",
      "gasUsed": "0x13af8",
      "effectiveGasPrice": "0x9e8b45",
      "from": "0xc77f7fed3b5cc8249adc428c5f44c9063b9734b4",
      "to": "0xd7bc75898e513accccf720a874d44dab5a4b6223",
      "contractAddress": null
    }
  ],
  "libraries": [],
  "pending": [],
  "returns": {},
  "timestamp": 1736809921,
  "chain": 11155111,
  "commit": "51a374b"
}