{
  "transactions": [
    {
      "hash": "0x40c14303340b361b88826290842978572a0a1452782d36e07887d2139b3abc3a",
      "transactionType": "CALL",
      "contractName": null,
      "contractAddress": "0x270e88f8683660553e8ba4eb2ad7c91a1710d769",
      "function": "sell(uint256)",
      "arguments": [
        "961457534425672880002"
      ],
      "transaction": {
        "from": "0xc77f7fed3b5cc8249adc428c5f44c9063b9734b4",
        "to": "0x270e88f8683660553e8ba4eb2ad7c91a1710d769",
        "gas": "0x16fec",
        "value": "0x0",
        "input": "0xe4849b320000000000000000000000000000000000000000000000341ee7558a31228f82",
        "nonce": "0x5a1",
        "chainId": "0xaa36a7"
      },
      "additionalContracts": [],
      "isFixedGasLimit": false
    }
  ],
  "receipts": [
    {
      "status": "0x1",
      "cumulativeGasUsed": "0x969b53",
      "logs": [
        {
          "address": "0x270e88f8683660553e8ba4eb2ad7c91a1710d769",
          "topics": [
            "0xddf252ad1be2c89b69c2b068fc378daa952ba7f163c4a11628f55a4df523b3ef",
            "0x000000000000000000000000c77f7fed3b5cc8249adc428c5f44c9063b9734b4",
            "0x0000000000000000000000000000000000000000000000000000000000000000"
          ],
          "data": "0x0000000000000000000000000000000000000000000000341ee7558a31228f82",
          "blockHash": "0x2a11c77c94b300a62996176bfb9c40d3fd44c004f9e1b93952299226ddeee0ae",
          "blockNumber": "0x725259",
          "transactionHash": "0x40c14303340b361b88826290842978572a0a1452782d36e07887d2139b3abc3a",
          "transactionIndex": "0x4e",
          "logIndex": "0x81",
          "removed": false
        },
        {
          "address": "0x270e88f8683660553e8ba4eb2ad7c91a1710d769",
          "topics": [
            "0x4afcb4a87cdbd9974efdb92ee48bc8d7cd0ae4bf217004db3d080cbaee652ca7"
          ],
          "data": "0x000000000000000000000000000000000000000000000000000000006786ce1c0000000000000000000000000000000000000000000000000003aba0b975dbd10000000000000000000000000000000000000000000000000dc83f5609378da0",
          "blockHash": "0x2a11c77c94b300a62996176bfb9c40d3fd44c004f9e1b93952299226ddeee0ae",
          "blockNumber": "0x725259",
          "transactionHash": "0x40c14303340b361b88826290842978572a0a1452782d36e07887d2139b3abc3a",
          "transactionIndex": "0x4e",
          "logIndex": "0x82",
          "removed": false
        }
      ],
      "logsBloom": "0x00000000000000000000000000000000000000000000000000000000000000000000000000000000000000000000000020000000000000004000000000000000000000000000000000000008000000000000000000000000000000000000000000000000020000000000000000000800020000000000000000000010000000000000000000010000000000000000000000000000000000000000010000000000000000000000000000000000000000004000000000000000000000000000000000000002000000800000000000000000000000000000080000008000000020000000000000000000000000000000000000000000000000000000000000000000",
      "type": "0x2",
      "transactionHash": "0x40c14303340b361b88826290842978572a0a1452782d36e07887d2139b3abc3a",
      "transactionIndex": "0x4e",
      "blockHash": "0x2a11c77c94b300a62996176bfb9c40d3fd44c004f9e1b93952299226ddeee0ae",
      "blockNumber": "0x725259",
      "gasUsed": "0xfb93",
      "effectiveGasPrice": "0x4bc6fac9d",
      "from": "0xc77f7fed3b5cc8249adc428c5f44c9063b9734b4",
      "to": "0x270e88f8683660553e8ba4eb2ad7c91a1710d769",
      "contractAddress": null
    }
  ],
  "libraries": [],
  "pending": [],
  "returns": {},
  "timestamp": 1736887837,
  "chain": 11155111,
  "commit": "51a374b"
}