{
  "transactions": [
    {
      "hash": "0x69117b3edaf3e9a4b888d983d6e5bc34e3ca9a80de30634baec6e9a2e1cab4a6",
      "transactionType": "CALL",
      "contractName": null,
      "contractAddress": "0x270e88f8683660553e8ba4eb2ad7c91a1710d769",
      "function": "sell(uint256)",
      "arguments": [
        "752757515344336461729"
      ],
      "transaction": {
        "from": "0xc77f7fed3b5cc8249adc428c5f44c9063b9734b4",
        "to": "0x270e88f8683660553e8ba4eb2ad7c91a1710d769",
        "gas": "0x16fec",
        "value": "0x0",
        "input": "0xe4849b32000000000000000000000000000000000000000000000028ce9bebece8d51fa1",
        "nonce": "0x6ae",
        "chainId": "0xaa36a7"
      },
      "additionalContracts": [],
      "isFixedGasLimit": false
    }
  ],
  "receipts": [
    {
      "status": "0x1",
      "cumulativeGasUsed": "0x191d932",
      "logs": [
        {
          "address": "0x270e88f8683660553e8ba4eb2ad7c91a1710d769",
          "topics": [
            "0xddf252ad1be2c89b69c2b068fc378daa952ba7f163c4a11628f55a4df523b3ef",
            "0x000000000000000000000000c77f7fed3b5cc8249adc428c5f44c9063b9734b4",
            "0x0000000000000000000000000000000000000000000000000000000000000000"
          ],
          "data": "0x000000000000000000000000000000000000000000000028ce9bebece8d51fa1",
          "blockHash": "0x8bcd2c01a23f39698783bb86b9bd13799b779e45be09dbfa43922b6402dd9fcf",
          "blockNumber": "0x7253b6",
          "transactionHash": "0x69117b3edaf3e9a4b888d983d6e5bc34e3ca9a80de30634baec6e9a2e1cab4a6",
          "transactionIndex": "0x94",
          "logIndex": "0xf3",
          "removed": false
        },
        {
          "address": "0x270e88f8683660553e8ba4eb2ad7c91a1710d769",
          "topics": [
            "0x4afcb4a87cdbd9974efdb92ee48bc8d7cd0ae4bf217004db3d080cbaee652ca7"
          ],
          "data": "0x000000000000000000000000000000000000000000000000000000006786de900000000000000000000000000000000000000000000000000004b00e6f7bb80f0000000000000000000000000000000000000000000000000dc829d1e7c90c6d",
          "blockHash": "0x8bcd2c01a23f39698783bb86b9bd13799b779e45be09dbfa43922b6402dd9fcf",
          "blockNumber": "0x7253b6",
          "transactionHash": "0x69117b3edaf3e9a4b888d983d6e5bc34e3ca9a80de30634baec6e9a2e1cab4a6",
          "transactionIndex": "0x94",
          "logIndex": "0xf4",
          "removed": false
        }
      ],
      "logsBloom": "0x00000000000000000000000000000000000000000000000000000000000000000000000000000000000000000000000020000000000000004000000000000000000000000000000000000008000000000000000000000000000000000000000000000000020000000000000000000800020000000000000000000010000000000000000000010000000000000000000000000000000000000000010000000000000000000000000000000000000000004000000000000000000000000000000000000002000000800000000000000000000000000000080000008000000020000000000000000000000000000000000000000000000000000000000000000000",
      "type": "0x2",
      "transactionHash": "0x69117b3edaf3e9a4b888d983d6e5bc34e3ca9a80de30634baec6e9a2e1cab4a6",
      "transactionIndex": "0x94",
      "blockHash": "0x8bcd2c01a23f39698783bb86b9bd13799b779e45be09dbfa43922b6402dd9fcf",
      "blockNumber": "0x7253b6",
      "gasUsed": "0xfb93",
      "effectiveGasPrice": "0x1876ab9dc",
      "from": "0xc77f7fed3b5cc8249adc428c5f44c9063b9734b4",
      "to": "0x270e88f8683660553e8ba4eb2ad7c91a1710d769",
      "contractAddress": null
    }
  ],
  "libraries": [],
  "pending": [],
  "returns": {},
  "timestamp": 1736892049,
  "chain": 11155111,
  "commit": "51a374b"
}