{
  "transactions": [
    {
      "hash": "0x5758685598a6700e385a91d6b11860710f6681d402e8fc80c84369e7c6eced9b",
      "transactionType": "CALL",
      "contractName": null,
      "contractAddress": "0x5eb9cc76c3506942c1c0ead70e877dd5e4f00cb0",
      "function": "buy(address)",
      "arguments": [
        "0xC77f7fed3b5Cc8249aDc428c5F44C9063B9734b4"
      ],
      "transaction": {
        "from": "0xc77f7fed3b5cc8249adc428c5f44c9063b9734b4",
        "to": "0x5eb9cc76c3506942c1c0ead70e877dd5e4f00cb0",
        "gas": "0x1b30c",
        "value": "0xde0b6b3a7640000",
        "input": "0xf088d547000000000000000000000000c77f7fed3b5cc8249adc428c5f44c9063b9734b4",
        "nonce": "0x426",
        "chainId": "0xaa36a7"
      },
      "additionalContracts": [],
      "isFixedGasLimit": false
    }
  ],
  "receipts": [
    {
      "status": "0x1",
      "cumulativeGasUsed": "0x1340788",
      "logs": [
        {
          "address": "0x5eb9cc76c3506942c1c0ead70e877dd5e4f00cb0",
          "topics": [
            "0xddf252ad1be2c89b69c2b068fc378daa952ba7f163c4a11628f55a4df523b3ef",
            "0x0000000000000000000000000000000000000000000000000000000000000000",
            "0x000000000000000000000000c77f7fed3b5cc8249adc428c5f44c9063b9734b4"
          ],
          "data": "0x00000000000000000000000000000000000000000000003574ecc5bb53ea9a71",
          "blockHash": "0x3b1ed0ef90b56bd23d2319d75b6f30fc001ae979922d3d2e22cf8552bdd20654",
          "blockNumber": "0x72503b",
          "transactionHash": "0x5758685598a6700e385a91d6b11860710f6681d402e8fc80c84369e7c6eced9b",
          "transactionIndex": "0xcd",
          "logIndex": "0x141",
          "removed": false
        },
        {
          "address": "0x5eb9cc76c3506942c1c0ead70e877dd5e4f00cb0",
          "topics": [
            "0xddf252ad1be2c89b69c2b068fc378daa952ba7f163c4a11628f55a4df523b3ef",
            "0x0000000000000000000000000000000000000000000000000000000000000000",
            "0x000000000000000000000000c77f7fed3b5cc8249adc428c5f44c9063b9734b4"
          ],
          "data": "0x0000000000000000000000000000000000000000000000002982cf9bb6443144",
          "blockHash": "0x3b1ed0ef90b56bd23d2319d75b6f30fc001ae979922d3d2e22cf8552bdd20654",
          "blockNumber": "0x72503b",
          "transactionHash": "0x5758685598a6700e385a91d6b11860710f6681d402e8fc80c84369e7c6eced9b",
          "transactionIndex": "0xcd",
          "logIndex": "0x142",
          "removed": false
        },
        {
          "address": "0x5eb9cc76c3506942c1c0ead70e877dd5e4f00cb0",
          "topics": [
            "0x4afcb4a87cdbd9974efdb92ee48bc8d7cd0ae4bf217004db3d080cbaee652ca7"
          ],
          "data": "0x000000000000000000000000000000000000000000000000000000006786b49000000000000000000000000000000000000000000000000000039116daed5cf50000000000000000000000000000000000000000000000000de0b6b3a7640000",
          "blockHash": "0x3b1ed0ef90b56bd23d2319d75b6f30fc001ae979922d3d2e22cf8552bdd20654",
          "blockNumber": "0x72503b",
          "transactionHash": "0x5758685598a6700e385a91d6b11860710f6681d402e8fc80c84369e7c6eced9b",
          "transactionIndex": "0xcd",
          "logIndex": "0x143",
          "removed": false
        }
      ],
      "logsBloom": "0x00000000000000000000000000000000000000000000000000000000000000000000000000000000000000000000000000000000000000004000000000000000000000000000000000000008000000000000000000000000000000000000000000000000020000000000000004000800020000000000000000000010000000000000000000000000000000000000000000000000000000000000010000000000000000000000000000000000000000004000000000000000000000000000020000000002000000800000008000000000000000000000080000000000000020000000000000000000000000000000000000000000000000000000000000000000",
      "type": "0x2",
      "transactionHash": "0x5758685598a6700e385a91d6b11860710f6681d402e8fc80c84369e7c6eced9b",
      "transactionIndex": "0xcd",
      "blockHash": "0x3b1ed0ef90b56bd23d2319d75b6f30fc001ae979922d3d2e22cf8552bdd20654",
      "blockNumber": "0x72503b",
      "gasUsed": "0x13af8",
      "effectiveGasPrice": "0x28792ee19",
      "from": "0xc77f7fed3b5cc8249adc428c5f44c9063b9734b4",
      "to": "0x5eb9cc76c3506942c1c0ead70e877dd5e4f00cb0",
      "contractAddress": null
    }
  ],
  "libraries": [],
  "pending": [],
  "returns": {},
  "timestamp": 1736881298,
  "chain": 11155111,
  "commit": "51a374b"
}