{
  "transactions": [
    {
      "hash": "0x96dd34536324b606b6f74135600afdf0444361a161a378a8b366de0c4d836cb0",
      "transactionType": "CALL",
      "contractName": null,
      "contractAddress": "0xd7bc75898e513accccf720a874d44dab5a4b6223",
      "function": "buy(address)",
      "arguments": [
        "0xC77f7fed3b5Cc8249aDc428c5F44C9063B9734b4"
      ],
      "transaction": {
        "from": "0xc77f7fed3b5cc8249adc428c5f44c9063b9734b4",
        "to": "0xd7bc75898e513accccf720a874d44dab5a4b6223",
        "gas": "0x1b30c",
        "value": "0x2386f26fc10000",
        "input": "0xf088d547000000000000000000000000c77f7fed3b5cc8249adc428c5f44c9063b9734b4",
        "nonce": "0xb8",
        "chainId": "0xaa36a7"
      },
      "additionalContracts": [],
      "isFixedGasLimit": false
    }
  ],
  "receipts": [
    {
      "status": "0x1",
      "cumulativeGasUsed": "0x217de5c",
      "logs": [
        {
          "address": "0xd7bc75898e513accccf720a874d44dab5a4b6223",
          "topics": [
            "0xddf252ad1be2c89b69c2b068fc378daa952ba7f163c4a11628f55a4df523b3ef",
            "0x0000000000000000000000000000000000000000000000000000000000000000",
            "0x000000000000000000000000c77f7fed3b5cc8249adc428c5f44c9063b9734b4"
          ],
          "data": "0x0000000000000000000000000000000000000000000000008963bb81287ebe02",
          "blockHash": "0x2dc1e16cd83ccefdb87becd46e8a11fec9143de259303fb4846eeabdb62d920d",
          "blockNumber": "0x723931",
          "transactionHash": "0x96dd34536324b606b6f74135600afdf0444361a161a378a8b366de0c4d836cb0",
          "transactionIndex": "0x55",
          "logIndex": "0x2be",
          "removed": false
        },
        {
          "address": "0xd7bc75898e513accccf720a874d44dab5a4b6223",
          "topics": [
            "0xddf252ad1be2c89b69c2b068fc378daa952ba7f163c4a11628f55a4df523b3ef",
            "0x0000000000000000000000000000000000000000000000000000000000000000",
            "0x000000000000000000000000c77f7fed3b5cc8249adc428c5f44c9063b9734b4"
          ],
          "data": "0x000000000000000000000000000000000000000000000000006ab00cc90719fa",
          "blockHash": "0x2dc1e16cd83ccefdb87becd46e8a11fec9143de259303fb4846eeabdb62d920d",
          "blockNumber": "0x723931",
          "transactionHash": "0x96dd34536324b606b6f74135600afdf0444361a161a378a8b366de0c4d836cb0",
          "transactionIndex": "0x55",
          "logIndex": "0x2bf",
          "removed": false
        },
        {
          "address": "0xd7bc75898e513accccf720a874d44dab5a4b6223",
          "topics": [
            "0x4afcb4a87cdbd9974efdb92ee48bc8d7cd0ae4bf217004db3d080cbaee652ca7"
          ],
          "data": "0x0000000000000000000000000000000000000000000000000000000067859f9400000000000000000000000000000000000000000000000000038d7f86342551000000000000000000000000000000000000000000000000002386f26fc10000",
          "blockHash": "0x2dc1e16cd83ccefdb87becd46e8a11fec9143de259303fb4846eeabdb62d920d",
          "blockNumber": "0x723931",
          "transactionHash": "0x96dd34536324b606b6f74135600afdf0444361a161a378a8b366de0c4d836cb0",
          "transactionIndex": "0x55",
          "logIndex": "0x2c0",
          "removed": false
        }
      ],
      "logsBloom": "0x00000000000000000000000000000000000000000000000000000000000000000000000000000000000000000000000000000000000000004000000000000000000000000000000000000008000000000000000000000000000000000000000000000000020000000000000000000800020000000000000000000010000000000000000000000000000000000000000000000000000000000000010000000000000000000000000000000000000000004000001000000000000000000000000000000002000000800000000000004000000000000000080000000000000020000000000000000000000000000000000000000000080000000000000000000000",
      "type": "0x2",
      "transactionHash": "0x96dd34536324b606b6f74135600afdf0444361a161a378a8b366de0c4d836cb0",
      "transactionIndex": "0x55",
      "blockHash": "0x2dc1e16cd83ccefdb87becd46e8a11fec9143de259303fb4846eeabdb62d920d",
      "blockNumber": "0x723931",
      "gasUsed": "0x13af8",
      "effectiveGasPrice": "0x5fec388",
      "from": "0xc77f7fed3b5cc8249adc428c5f44c9063b9734b4",
      "to": "0xd7bc75898e513accccf720a874d44dab5a4b6223",
      "contractAddress": null
    }
  ],
  "libraries": [],
  "pending": [],
  "returns": {},
  "timestamp": 1736810389,
  "chain": 11155111,
  "commit": "51a374b"
}