{
  "transactions": [
    {
      "hash": "0x892aa4a7ec991e1eb17bf8982145b478d9b24808a9f0b73bcde9414d8334497e",
      "transactionType": "CALL",
      "contractName": null,
      "contractAddress": "0x5eb9cc76c3506942c1c0ead70e877dd5e4f00cb0",
      "function": "sell(uint256)",
      "arguments": [
        "989158644583488573335"
      ],
      "transaction": {
        "from": "0xc77f7fed3b5cc8249adc428c5f44c9063b9734b4",
        "to": "0x5eb9cc76c3506942c1c0ead70e877dd5e4f00cb0",
        "gas": "0x16fec",
        "value": "0x0",
        "input": "0xe4849b320000000000000000000000000000000000000000000000359f55727629b44f97",
        "nonce": "0x291",
        "chainId": "0xaa36a7"
      },
      "additionalContracts": [],
      "isFixedGasLimit": false
    }
  ],
  "receipts": [
    {
      "status": "0x1",
      "cumulativeGasUsed": "0xae996d",
      "logs": [
        {
          "address": "0x5eb9cc76c3506942c1c0ead70e877dd5e4f00cb0",
          "topics": [
            "0xddf252ad1be2c89b69c2b068fc378daa952ba7f163c4a11628f55a4df523b3ef",
            "0x000000000000000000000000c77f7fed3b5cc8249adc428c5f44c9063b9734b4",
            "0x0000000000000000000000000000000000000000000000000000000000000000"
          ],
          "data": "0x0000000000000000000000000000000000000000000000359f55727629b44f97",
          "blockHash": "0x0f672ef0aa948a985f022a3dc36cf8d9f2f6c349b6a7870333b9a32c53745bec",
          "blockNumber": "0x724e60",
          "transactionHash": "0x892aa4a7ec991e1eb17bf8982145b478d9b24808a9f0b73bcde9414d8334497e",
          "transactionIndex": "0x76",
          "logIndex": "0xba",
          "removed": false
        },
        {
          "address": "0x5eb9cc76c3506942c1c0ead70e877dd5e4f00cb0",
          "topics": [
            "0x4afcb4a87cdbd9974efdb92ee48bc8d7cd0ae4bf217004db3d080cbaee652ca7"
          ],
          "data": "0x0000000000000000000000000000000000000000000000000000000067869e34000000000000000000000000000000000000000000000000000391079d1ba3620000000000000000000000000000000000000000000000000dc7db13324fcc76",
          "blockHash": "0x0f672ef0aa948a985f022a3dc36cf8d9f2f6c349b6a7870333b9a32c53745bec",
          "blockNumber": "0x724e60",
          "transactionHash": "0x892aa4a7ec991e1eb17bf8982145b478d9b24808a9f0b73bcde9414d8334497e",
          "transactionIndex": "0x76",
          "logIndex": "0xbb",
          "removed": false
        }
      ],
      "logsBloom": "0x00000000000000000000000000000000000000000000000000000000000000000000000000000000000000000000000000000000000000004000000000000000000000000000000000000008000000000000000000000000000000000000000000000000020000000000000004000800020000000000000000000010000000000000000000000000000000000000000000000000000000000000010000000000000000000000000000000000000000004000000000000000000000000000020000000002000000800000008000000000000000000000080000000000000020000000000000000000000000000000000000000000000000000000000000000000",
      "type": "0x2",
      "transactionHash": "0x892aa4a7ec991e1eb17bf8982145b478d9b24808a9f0b73bcde9414d8334497e",
      "transactionIndex": "0x76",
      "blockHash": "0x0f672ef0aa948a985f022a3dc36cf8d9f2f6c349b6a7870333b9a32c53745bec",
      "blockNumber": "0x724e60",
      "gasUsed": "0xfb93",
      "effectiveGasPrice": "0x40afa11a3",
      "from": "0xc77f7fed3b5cc8249adc428c5f44c9063b9734b4",
      "to": "0x5eb9cc76c3506942c1c0ead70e877dd5e4f00cb0",
      "contractAddress": null
    }
  ],
  "libraries": [],
  "pending": [],
  "returns": {},
  "timestamp": 1736875573,
  "chain": 11155111,
  "commit": "51a374b"
}