{
  "transactions": [
    {
      "hash": "0x25f9b5bc40a01ab2000a160a063d60cb4e68da4ff24bae03d5ae83d3f09e8e57",
      "transactionType": "CALL",
      "contractName": null,
      "contractAddress": "0x270e88f8683660553e8ba4eb2ad7c91a1710d769",
      "function": "buy(address)",
      "arguments": [
        "0xC77f7fed3b5Cc8249aDc428c5F44C9063B9734b4"
      ],
      "transaction": {
        "from": "0xc77f7fed3b5cc8249adc428c5f44c9063b9734b4",
        "to": "0x270e88f8683660553e8ba4eb2ad7c91a1710d769",
        "gas": "0x1b30c",
        "value": "0xde0b6b3a7640000",
        "input": "0xf088d547000000000000000000000000c77f7fed3b5cc8249adc428c5f44c9063b9734b4",
        "nonce": "0x863",
        "chainId": "0xaa36a7"
      },
      "additionalContracts": [],
      "isFixedGasLimit": false
    }
  ],
  "receipts": [
    {
      "status": "0x1",
      "cumulativeGasUsed": "0xd87fe9",
      "logs": [
        {
          "address": "0x270e88f8683660553e8ba4eb2ad7c91a1710d769",
          "topics": [
            "0xddf252ad1be2c89b69c2b068fc378daa952ba7f163c4a11628f55a4df523b3ef",
            "0x0000000000000000000000000000000000000000000000000000000000000000",
            "0x000000000000000000000000c77f7fed3b5cc8249adc428c5f44c9063b9734b4"
          ],
          "data": "0x0000000000000000000000000000000000000000000000269e5af10406506391",
          "blockHash": "0x2cd367352b348f1fc306ef91df95b2b63acb7b13db33fb3e15c36a30ce02996f",
          "blockNumber": "0x7255b8",
          "transactionHash": "0x25f9b5bc40a01ab2000a160a063d60cb4e68da4ff24bae03d5ae83d3f09e8e57",
          "transactionIndex": "0x3c",
          "logIndex": "0x18e",
          "removed": false
        },
        {
          "address": "0x270e88f8683660553e8ba4eb2ad7c91a1710d769",
          "topics": [
            "0xddf252ad1be2c89b69c2b068fc378daa952ba7f163c4a11628f55a4df523b3ef",
            "0x0000000000000000000000000000000000000000000000000000000000000000",
            "0x000000000000000000000000c77f7fed3b5cc8249adc428c5f44c9063b9734b4"
          ],
          "data": "0x0000000000000000000000000000000000000000000000001dfd1791a6b3c354",
          "blockHash": "0x2cd367352b348f1fc306ef91df95b2b63acb7b13db33fb3e15c36a30ce02996f",
          "blockNumber": "0x7255b8",
          "transactionHash": "0x25f9b5bc40a01ab2000a160a063d60cb4e68da4ff24bae03d5ae83d3f09e8e57",
          "transactionIndex": "0x3c",
          "logIndex": "0x18f",
          "removed": false
        },
        {
          "address": "0x270e88f8683660553e8ba4eb2ad7c91a1710d769",
          "topics": [
            "0x4afcb4a87cdbd9974efdb92ee48bc8d7cd0ae4bf217004db3d080cbaee652ca7"
          ],
          "data": "0x000000000000000000000000000000000000000000000000000000006786f6a80000000000000000000000000000000000000000000000000004f006369147ad0000000000000000000000000000000000000000000000000de0b6b3a7640000",
          "blockHash": "0x2cd367352b348f1fc306ef91df95b2b63acb7b13db33fb3e15c36a30ce02996f",
          "blockNumber": "0x7255b8",
          "transactionHash": "0x25f9b5bc40a01ab2000a160a063d60cb4e68da4ff24bae03d5ae83d3f09e8e57",
          "transactionIndex": "0x3c",
          "logIndex": "0x190",
          "removed": false
        }
      ],
      "logsBloom": "0x00000000000000000000000000000000000000000000000000000000000000000000000000000000000000000000000020000000000000004000000000000000000000000000000000000008000000000000000000000000000000000000000000000000020000000000000000000800020000000000000000000010000000000000000000010000000000000000000000000000000000000000010000000000000000000000000000000000000000004000000000000000000000000000000000000002000000800000000000000000000000000000080000008000000020000000000000000000000000000000000000000000000000000000000000000000",
      "type": "0x2",
      "transactionHash": "0x25f9b5bc40a01ab2000a160a063d60cb4e68da4ff24bae03d5ae83d3f09e8e57",
      "transactionIndex": "0x3c",
      "blockHash": "0x2cd367352b348f1fc306ef91df95b2b63acb7b13db33fb3e15c36a30ce02996f",
      "blockNumber": "0x7255b8",
      "gasUsed": "0x13af8",
      "effectiveGasPrice": "0x981eda30",
      "from": "0xc77f7fed3b5cc8249adc428c5f44c9063b9734b4",
      "to": "0x270e88f8683660553e8ba4eb2ad7c91a1710d769",
      "contractAddress": null
    }
  ],
  "libraries": [],
  "pending": [],
  "returns": {},
  "timestamp": 1736898217,
  "chain": 11155111,
  "commit": "51a374b"
}