{
  "transactions": [
    {
      "hash": "0xc1e319edb152000dda7558a6247b5c8784a6b99aff971dcd8c255dddad449fec",
      "transactionType": "CALL",
      "contractName": null,
      "contractAddress": "0x5eb9cc76c3506942c1c0ead70e877dd5e4f00cb0",
      "function": "sell(uint256)",
      "arguments": [
        "989135376784387774582"
      ],
      "transaction": {
        "from": "0xc77f7fed3b5cc8249adc428c5f44c9063b9734b4",
        "to": "0x5eb9cc76c3506942c1c0ead70e877dd5e4f00cb0",
        "gas": "0x16fec",
        "value": "0x0",
        "input": "0xe4849b320000000000000000000000000000000000000000000000359f02c88585989876",
        "nonce": "0x323",
        "chainId": "0xaa36a7"
      },
      "additionalContracts": [],
      "isFixedGasLimit": false
    }
  ],
  "receipts": [
    {
      "status": "0x1",
      "cumulativeGasUsed": "0xcb1b29",
      "logs": [
        {
          "address": "0x5eb9cc76c3506942c1c0ead70e877dd5e4f00cb0",
          "topics": [
            "0xddf252ad1be2c89b69c2b068fc378daa952ba7f163c4a11628f55a4df523b3ef",
            "0x000000000000000000000000c77f7fed3b5cc8249adc428c5f44c9063b9734b4",
            "0x0000000000000000000000000000000000000000000000000000000000000000"
          ],
          "data": "0x0000000000000000000000000000000000000000000000359f02c88585989876",
          "blockHash": "0x935dec074abaa786e0f5939c46563f82f6c203cbf7ae5104f4e31c425b4f352b",
          "blockNumber": "0x724f0b",
          "transactionHash": "0xc1e319edb152000dda7558a6247b5c8784a6b99aff971dcd8c255dddad449fec",
          "transactionIndex": "0x53",
          "logIndex": "0x74",
          "removed": false
        },
        {
          "address": "0x5eb9cc76c3506942c1c0ead70e877dd5e4f00cb0",
          "topics": [
            "0x4afcb4a87cdbd9974efdb92ee48bc8d7cd0ae4bf217004db3d080cbaee652ca7"
          ],
          "data": "0x000000000000000000000000000000000000000000000000000000006786a6380000000000000000000000000000000000000000000000000003910d1ca8d0ba0000000000000000000000000000000000000000000000000dc7db133226658c",
          "blockHash": "0x935dec074abaa786e0f5939c46563f82f6c203cbf7ae5104f4e31c425b4f352b",
          "blockNumber": "0x724f0b",
          "transactionHash": "0xc1e319edb152000dda7558a6247b5c8784a6b99aff971dcd8c255dddad449fec",
          "transactionIndex": "0x53",
          "logIndex": "0x75",
          "removed": false
        }
      ],
      "logsBloom": "0x00000000000000000000000000000000000000000000000000000000000000000000000000000000000000000000000000000000000000004000000000000000000000000000000000000008000000000000000000000000000000000000000000000000020000000000000004000800020000000000000000000010000000000000000000000000000000000000000000000000000000000000010000000000000000000000000000000000000000004000000000000000000000000000020000000002000000800000008000000000000000000000080000000000000020000000000000000000000000000000000000000000000000000000000000000000",
      "type": "0x2",
      "transactionHash": "0xc1e319edb152000dda7558a6247b5c8784a6b99aff971dcd8c255dddad449fec",
      "transactionIndex": "0x53",
      "blockHash": "0x935dec074abaa786e0f5939c46563f82f6c203cbf7ae5104f4e31c425b4f352b",
      "blockNumber": "0x724f0b",
      "gasUsed": "0xfb93",
      "effectiveGasPrice": "0x6ce84301f",
      "from": "0xc77f7fed3b5cc8249adc428c5f44c9063b9734b4",
      "to": "0x5eb9cc76c3506942c1c0ead70e877dd5e4f00cb0",
      "contractAddress": null
    }
  ],
  "libraries": [],
  "pending": [],
  "returns": {},
  "timestamp": 1736877624,
  "chain": 11155111,
  "commit": "51a374b"
}