{
  "transactions": [
    {
      "hash": "0x83a91f3ecf9596d2764196a5192ad6dd367deeb549027ab5af676fb6c1d0668a",
      "transactionType": "CALL",
      "contractName": null,
      "contractAddress": "0x5eb9cc76c3506942c1c0ead70e877dd5e4f00cb0",
      "function": "buy(address)",
      "arguments": [
        "0xC77f7fed3b5Cc8249aDc428c5F44C9063B9734b4"
      ],
      "transaction": {
        "from": "0xc77f7fed3b5cc8249adc428c5f44c9063b9734b4",
        "to": "0x5eb9cc76c3506942c1c0ead70e877dd5e4f00cb0",
        "gas": "0x1b30c",
        "value": "0xde0b6b3a7640000",
        "input": "0xf088d547000000000000000000000000c77f7fed3b5cc8249adc428c5f44c9063b9734b4",
        "nonce": "0x49e",
        "chainId": "0xaa36a7"
      },
      "additionalContracts": [],
      "isFixedGasLimit": false
    }
  ],
  "receipts": [
    {
      "status": "0x1",
      "cumulativeGasUsed": "0x310f2d",
      "logs": [
        {
          "address": "0x5eb9cc76c3506942c1c0ead70e877dd5e4f00cb0",
          "topics": [
            "0xddf252ad1be2c89b69c2b068fc378daa952ba7f163c4a11628f55a4df523b3ef",
            "0x0000000000000000000000000000000000000000000000000000000000000000",
            "0x000000000000000000000000c77f7fed3b5cc8249adc428c5f44c9063b9734b4"
          ],
          "data": "0x00000000000000000000000000000000000000000000003574a90b271067162b",
          "blockHash": "0x8bb0e1dcbabbd6faa2f963b428b4a85382632b61ae9371be2cfc6424b193b034",
          "blockNumber": "0x7250d8",
          "transactionHash": "0x83a91f3ecf9596d2764196a5192ad6dd367deeb549027ab5af676fb6c1d0668a",
          "transactionIndex": "0x1f",
          "logIndex": "0x22",
          "removed": false
        },
        {
          "address": "0x5eb9cc76c3506942c1c0ead70e877dd5e4f00cb0",
          "topics": [
            "0xddf252ad1be2c89b69c2b068fc378daa952ba7f163c4a11628f55a4df523b3ef",
            "0x0000000000000000000000000000000000000000000000000000000000000000",
            "0x000000000000000000000000c77f7fed3b5cc8249adc428c5f44c9063b9734b4"
          ],
          "data": "0x00000000000000000000000000000000000000000000000029829b03b6beb40d",
          "blockHash": "0x8bb0e1dcbabbd6faa2f963b428b4a85382632b61ae9371be2cfc6424b193b034",
          "blockNumber": "0x7250d8",
          "transactionHash": "0x83a91f3ecf9596d2764196a5192ad6dd367deeb549027ab5af676fb6c1d0668a",
          "transactionIndex": "0x1f",
          "logIndex": "0x23",
          "removed": false
        },
        {
          "address": "0x5eb9cc76c3506942c1c0ead70e877dd5e4f00cb0",
          "topics": [
            "0x4afcb4a87cdbd9974efdb92ee48bc8d7cd0ae4bf217004db3d080cbaee652ca7"
          ],
          "data": "0x000000000000000000000000000000000000000000000000000000006786bc040000000000000000000000000000000000000000000000000003911b5fd19e500000000000000000000000000000000000000000000000000de0b6b3a7640000",
          "blockHash": "0x8bb0e1dcbabbd6faa2f963b428b4a85382632b61ae9371be2cfc6424b193b034",
          "blockNumber": "0x7250d8",
          "transactionHash": "0x83a91f3ecf9596d2764196a5192ad6dd367deeb549027ab5af676fb6c1d0668a",
          "transactionIndex": "0x1f",
          "logIndex": "0x24",
          "removed": false
        }
      ],
      "logsBloom": "0x00000000000000000000000000000000000000000000000000000000000000000000000000000000000000000000000000000000000000004000000000000000000000000000000000000008000000000000000000000000000000000000000000000000020000000000000004000800020000000000000000000010000000000000000000000000000000000000000000000000000000000000010000000000000000000000000000000000000000004000000000000000000000000000020000000002000000800000008000000000000000000000080000000000000020000000000000000000000000000000000000000000000000000000000000000000",
      "type": "0x2",
      "transactionHash": "0x83a91f3ecf9596d2764196a5192ad6dd367deeb549027ab5af676fb6c1d0668a",
      "transactionIndex": "0x1f",
      "blockHash": "0x8bb0e1dcbabbd6faa2f963b428b4a85382632b61ae9371be2cfc6424b193b034",
      "blockNumber": "0x7250d8",
      "gasUsed": "0x13af8",
      "effectiveGasPrice": "0x25d77b27d",
      "from": "0xc77f7fed3b5cc8249adc428c5f44c9063b9734b4",
      "to": "0x5eb9cc76c3506942c1c0ead70e877dd5e4f00cb0",
      "contractAddress": null
    }
  ],
  "libraries": [],
  "pending": [],
  "returns": {},
  "timestamp": 1736883205,
  "chain": 11155111,
  "commit": "51a374b"
}