{
  "transactions": [
    {
      "hash": "0xc675541ad103a8944eff6a6ce85cb7b61075b9f1b3f9dc0e8c36a60a1ced51e0",
      "transactionType": "CALL",
      "contractName": null,
      "contractAddress": "0xbf4a322f1496e5c3d34a9bcdb4c60567b38c7de2",
      "function": "buy(address)",
      "arguments": [
        "0xC77f7fed3b5Cc8249aDc428c5F44C9063B9734b4"
      ],
      "transaction": {
        "from": "0xc77f7fed3b5cc8249adc428c5f44c9063b9734b4",
        "to": "0xbf4a322f1496e5c3d34a9bcdb4c60567b38c7de2",
        "gas": "0x1b309",
        "value": "0xde0b6b3a7640000",
        "input": "0xf088d547000000000000000000000000c77f7fed3b5cc8249adc428c5f44c9063b9734b4",
        "nonce": "0x8e8",
        "chainId": "0xaa36a7"
      },
      "additionalContracts": [],
      "isFixedGasLimit": false
    }
  ],
  "receipts": [
    {
      "status": "0x1",
      "cumulativeGasUsed": "0x16691f5",
      "logs": [
        {
          "address": "0xbf4a322f1496e5c3d34a9bcdb4c60567b38c7de2",
          "topics": [
            "0xddf252ad1be2c89b69c2b068fc378daa952ba7f163c4a11628f55a4df523b3ef",
            "0x0000000000000000000000000000000000000000000000000000000000000000",
            "0x000000000000000000000000c77f7fed3b5cc8249adc428c5f44c9063b9734b4"
          ],
          "data": "0x0000000000000000000000000000000000000000000000359033c08a0e726e6f",
          "blockHash": "0xe9939ae7a90d2a52de2bb831c49d512dc3bf1aa0486eff78af8ce72d4e06f537",
          "blockNumber": "0x72585f",
          "transactionHash": "0xc675541ad103a8944eff6a6ce85cb7b61075b9f1b3f9dc0e8c36a60a1ced51e0",
          "transactionIndex": "0x90",
          "logIndex": "0xe0",
          "removed": false
        },
        {
          "address": "0xbf4a322f1496e5c3d34a9bcdb4c60567b38c7de2",
          "topics": [
            "0xddf252ad1be2c89b69c2b068fc378daa952ba7f163c4a11628f55a4df523b3ef",
            "0x0000000000000000000000000000000000000000000000000000000000000000",
            "0x000000000000000000000000c77f7fed3b5cc8249adc428c5f44c9063b9734b4"
          ],
          "data": "0x0000000000000000000000000000000000000000000000002997fe21540aa0e0",
          "blockHash": "0xe9939ae7a90d2a52de2bb831c49d512dc3bf1aa0486eff78af8ce72d4e06f537",
          "blockNumber": "0x72585f",
          "transactionHash": "0xc675541ad103a8944eff6a6ce85cb7b61075b9f1b3f9dc0e8c36a60a1ced51e0",
          "transactionIndex": "0x90",
          "logIndex": "0xe1",
          "removed": false
        },
        {
          "address": "0xbf4a322f1496e5c3d34a9bcdb4c60567b38c7de2",
          "topics": [
            "0x4afcb4a87cdbd9974efdb92ee48bc8d7cd0ae4bf217004db3d080cbaee652ca7"
          ],
          "data": "0x00000000000000000000000000000000000000000000000000000000678716a000000000000000000000000000000000000000000000000000038f4829b4ae7b0000000000000000000000000000000000000000000000000de0b6b3a7640000",
          "blockHash": "0xe9939ae7a90d2a52de2bb831c49d512dc3bf1aa0486eff78af8ce72d4e06f537",
          "blockNumber": "0x72585f",
          "transactionHash": "0xc675541ad103a8944eff6a6ce85cb7b61075b9f1b3f9dc0e8c36a60a1ced51e0",
          "transactionIndex": "0x90",
          "logIndex": "0xe2",
          "removed": false
        }
      ],
      "logsBloom": "0x00000000000000000000000000000000000000000000000000000000000000000000000000000000000000000000000000000000000000004000000000000000000000000000000000000008000000000000001000000000000000000000000000000000020000000000000000000800020000000000000000000010000000000000000000000000000000000000000000000000000008000000010000000000000000000000000000000000000000004000000000000000000000000000000000000002000000800000000000001000000000000000080000000000000020000000000000000000000000000000000000000000000000000000000000000000",
      "type": "0x2",
      "transactionHash": "0xc675541ad103a8944eff6a6ce85cb7b61075b9f1b3f9dc0e8c36a60a1ced51e0",
      "transactionIndex": "0x90",
      "blockHash": "0xe9939ae7a90d2a52de2bb831c49d512dc3bf1aa0486eff78af8ce72d4e06f537",
      "blockNumber": "0x72585f",
      "gasUsed": "0x13af6",
      "effectiveGasPrice": "0x242c9833",
      "from": "0xc77f7fed3b5cc8249adc428c5f44c9063b9734b4",
      "to": "0xbf4a322f1496e5c3d34a9bcdb4c60567b38c7de2",
      "contractAddress": null
    }
  ],
  "libraries": [],
  "pending": [],
  "returns": {},
  "timestamp": 1736906401,
  "chain": 11155111,
  "commit": "51a374b"
}