{
  "transactions": [
    {
      "hash": "0x7ed2f8a77657daa892d820f005e7e64db1ebb771ad94ca146dbb155c2589a9cf",
      "transactionType": "CALL",
      "contractName": null,
      "contractAddress": "0xbf4a322f1496e5c3d34a9bcdb4c60567b38c7de2",
      "function": "buy(address)",
      "arguments": [
        "0xC77f7fed3b5Cc8249aDc428c5F44C9063B9734b4"
      ],
      "transaction": {
        "from": "0xc77f7fed3b5cc8249adc428c5f44c9063b9734b4",
        "to": "0xbf4a322f1496e5c3d34a9bcdb4c60567b38c7de2",
        "gas": "0x1b309",
        "value": "0xde0b6b3a7640000",
        "input": "0xf088d547000000000000000000000000c77f7fed3b5cc8249adc428c5f44c9063b9734b4",
        "nonce": "0xbd6",
        "chainId": "0xaa36a7"
      },
      "additionalContracts": [],
      "isFixedGasLimit": false
    }
  ],
  "receipts": [
    {
      "status": "0x1",
      "cumulativeGasUsed": "0x11cf06c",
      "logs": [
        {
          "address": "0xbf4a322f1496e5c3d34a9bcdb4c60567b38c7de2",
          "topics": [
            "0xddf252ad1be2c89b69c2b068fc378daa952ba7f163c4a11628f55a4df523b3ef",
            "0x0000000000000000000000000000000000000000000000000000000000000000",
            "0x000000000000000000000000c77f7fed3b5cc8249adc428c5f44c9063b9734b4"
          ],
          "data": "0x000000000000000000000000000000000000000000000035032dabd9a450fdaa",
          "blockHash": "0xc9ad287752501eec2270401371c24b3a6ed31bd766278a9efa3722ff092b34aa",
          "blockNumber": "0x725bf9",
          "transactionHash": "0x7ed2f8a77657daa892d820f005e7e64db1ebb771ad94ca146dbb155c2589a9cf",
          "transactionIndex": "0x64",
          "logIndex": "0xa9",
          "removed": false
        },
        {
          "address": "0xbf4a322f1496e5c3d34a9bcdb4c60567b38c7de2",
          "topics": [
            "0xddf252ad1be2c89b69c2b068fc378daa952ba7f163c4a11628f55a4df523b3ef",
            "0x0000000000000000000000000000000000000000000000000000000000000000",
            "0x000000000000000000000000c77f7fed3b5cc8249adc428c5f44c9063b9734b4"
          ],
          "data": "0x000000000000000000000000000000000000000000000000292a7ba20c198f89",
          "blockHash": "0xc9ad287752501eec2270401371c24b3a6ed31bd766278a9efa3722ff092b34aa",
          "blockNumber": "0x725bf9",
          "transactionHash": "0x7ed2f8a77657daa892d820f005e7e64db1ebb771ad94ca146dbb155c2589a9cf",
          "transactionIndex": "0x64",
          "logIndex": "0xaa",
          "removed": false
        },
        {
          "address": "0xbf4a322f1496e5c3d34a9bcdb4c60567b38c7de2",
          "topics": [
            "0x4afcb4a87cdbd9974efdb92ee48bc8d7cd0ae4bf217004db3d080cbaee652ca7"
          ],
          "data": "0x0000000000000000000000000000000000000000000000000000000067874208000000000000000000000000000000000000000000000000000398c0553e0c8f0000000000000000000000000000000000000000000000000de0b6b3a7640000",
          "blockHash": "0xc9ad287752501eec2270401371c24b3a6ed31bd766278a9efa3722ff092b34aa",
          "blockNumber": "0x725bf9",
          "transactionHash": "0x7ed2f8a77657daa892d820f005e7e64db1ebb771ad94ca146dbb155c2589a9cf",
          "transactionIndex": "0x64",
          "logIndex": "0xab",
          "removed": false
        }
      ],
      "logsBloom": "0x00000000000000000000000000000000000000000000000000000000000000000000000000000000000000000000000000000000000000004000000000000000000000000000000000000008000000000000001000000000000000000000000000000000020000000000000000000800020000000000000000000010000000000000000000000000000000000000000000000000000008000000010000000000000000000000000000000000000000004000000000000000000000000000000000000002000000800000000000001000000000000000080000000000000020000000000000000000000000000000000000000000000000000000000000000000",
      "type": "0x2",
      "transactionHash": "0x7ed2f8a77657daa892d820f005e7e64db1ebb771ad94ca146dbb155c2589a9cf",
      "transactionIndex": "0x64",
      "blockHash": "0xc9ad287752501eec2270401371c24b3a6ed31bd766278a9efa3722ff092b34aa",
      "blockNumber": "0x725bf9",
      "gasUsed": "0x13af6",
      "effectiveGasPrice": "0x8b214778",
      "from": "0xc77f7fed3b5cc8249adc428c5f44c9063b9734b4",
      "to": "0xbf4a322f1496e5c3d34a9bcdb4c60567b38c7de2",
      "contractAddress": null
    }
  ],
  "libraries": [],
  "pending": [],
  "returns": {},
  "timestamp": 1736917512,
  "chain": 11155111,
  "commit": "51a374b"
}