{
  "transactions": [
    {
      "hash": "0xa63907f2bbb242e5edb77c522eb6ef076fae2fa1ec9b575b2de020b9468c4d7c",
      "transactionType": "CALL",
      "contractName": null,
      "contractAddress": "0x8aafd3ede9adb0ff97c7aebce82a919afb1c8764",
      "function": "sell(uint256)",
      "arguments": [
        "1441457"
      ],
      "transaction": {
        "from": "0xc77f7fed3b5cc8249adc428c5f44c9063b9734b4",
        "to": "0x8aafd3ede9adb0ff97c7aebce82a919afb1c8764",
        "gas": "0x16208",
        "value": "0x0",
        "input": "0xe4849b32000000000000000000000000000000000000000000000000000000000015feb1",
        "nonce": "0x11a6",
        "chainId": "0xaa36a7"
      },
      "additionalContracts": [],
      "isFixedGasLimit": false
    }
  ],
  "receipts": [
    {
      "status": "0x1",
      "cumulativeGasUsed": "0xa88aa5",
      "logs": [
        {
          "address": "0x8aafd3ede9adb0ff97c7aebce82a919afb1c8764",
          "topics": [
            "0xddf252ad1be2c89b69c2b068fc378daa952ba7f163c4a11628f55a4df523b3ef",
            "0x000000000000000000000000c77f7fed3b5cc8249adc428c5f44c9063b9734b4",
            "0x0000000000000000000000000000000000000000000000000000000000000000"
          ],
          "data": "0x000000000000000000000000000000000000000000000000000000000015d1a6",
          "blockHash": "0x894904314b2f521a324d860746f03ebdb3c00f0840b9ae83cd11813bafb65631",
          "blockNumber": "0x731870",
          "transactionHash": "0xa63907f2bbb242e5edb77c522eb6ef076fae2fa1ec9b575b2de020b9468c4d7c",
          "transactionIndex": "0x76",
          "logIndex": "0x98",
          "removed": false
        },
        {
          "address": "0x8aafd3ede9adb0ff97c7aebce82a919afb1c8764",
          "topics": [
            "0xddf252ad1be2c89b69c2b068fc378daa952ba7f163c4a11628f55a4df523b3ef",
            "0x000000000000000000000000c77f7fed3b5cc8249adc428c5f44c9063b9734b4",
            "0x000000000000000000000000c77f7fed3b5cc8249adc428c5f44c9063b9734b4"
          ],
          "data": "0x0000000000000000000000000000000000000000000000000000000000002d0b",
          "blockHash": "0x894904314b2f521a324d860746f03ebdb3c00f0840b9ae83cd11813bafb65631",
          "blockNumber": "0x731870",
          "transactionHash": "0xa63907f2bbb242e5edb77c522eb6ef076fae2fa1ec9b575b2de020b9468c4d7c",
          "transactionIndex": "0x76",
          "logIndex": "0x99",
          "removed": false
        },
        {
          "address": "0x8aafd3ede9adb0ff97c7aebce82a919afb1c8764",
          "topics": [
            "0x4afcb4a87cdbd9974efdb92ee48bc8d7cd0ae4bf217004db3d080cbaee652ca7"
          ],
          "data": "0x000000000000000000000000000000000000000000000000000000006790221000000000000000000000000000000000000000000000000000052366fd6b47d00000000000000000000000000000000000000000000000000000000000000824",
          "blockHash": "0x894904314b2f521a324d860746f03ebdb3c00f0840b9ae83cd11813bafb65631",
          "blockNumber": "0x731870",
          "transactionHash": "0xa63907f2bbb242e5edb77c522eb6ef076fae2fa1ec9b575b2de020b9468c4d7c",
          "transactionIndex": "0x76",
          "logIndex": "0x9a",
          "removed": false
        }
      ],
      "logsBloom": "0x00000000000000000000000000000000000000000600000000000000000000000000000000000000000000000000000000000000000000004000000000000000000000000000004000000008000000000000000000000000000000000000000000000000020000000000000000000800020000000000000000000010000000000000000000000000000000000000000000000000000000000000010000000000000000000000000000000000000000004000000000000000000000000000000000000002000000800000000000000000000000000000080000000000000020000000000000000000000000000000000000000000000000000000000000000000",
      "type": "0x2",
      "transactionHash": "0xa63907f2bbb242e5edb77c522eb6ef076fae2fa1ec9b575b2de020b9468c4d7c",
      "transactionIndex": "0x76",
      "blockHash": "0x894904314b2f521a324d860746f03ebdb3c00f0840b9ae83cd11813bafb65631",
      "blockNumber": "0x731870",
      "gasUsed": "0xf213",
      "effectiveGasPrice": "0x4ef81a71",
      "from": "0xc77f7fed3b5cc8249adc428c5f44c9063b9734b4",
      "to": "0x8aafd3ede9adb0ff97c7aebce82a919afb1c8764",
      "contractAddress": null
    }
  ],
  "libraries": [],
  "pending": [],
  "returns": {},
  "timestamp": 1737499153,
  "chain": 11155111,
  "commit": "1d2fb70"
}