{
  "transactions": [
    {
      "hash": "0x0ac5e2e8b021f0211653a083acf7cc661378f2e4cd16317cd5ce44179a33fa86",
      "transactionType": "CALL",
      "contractName": null,
      "contractAddress": "0xbf4a322f1496e5c3d34a9bcdb4c60567b38c7de2",
      "function": "buy(address)",
      "arguments": [
        "0xC77f7fed3b5Cc8249aDc428c5F44C9063B9734b4"
      ],
      "transaction": {
        "from": "0xc77f7fed3b5cc8249adc428c5f44c9063b9734b4",
        "to": "0xbf4a322f1496e5c3d34a9bcdb4c60567b38c7de2",
        "gas": "0x1b309",
        "value": "0xde0b6b3a7640000",
        "input": "0xf088d547000000000000000000000000c77f7fed3b5cc8249adc428c5f44c9063b9734b4",
        "nonce": "0x9a0",
        "chainId": "0xaa36a7"
      },
      "additionalContracts": [],
      "isFixedGasLimit": false
    }
  ],
  "receipts": [
    {
      "status": "0x1",
      "cumulativeGasUsed": "0x919b4f",
      "logs": [
        {
          "address": "0xbf4a322f1496e5c3d34a9bcdb4c60567b38c7de2",
          "topics": [
            "0xddf252ad1be2c89b69c2b068fc378daa952ba7f163c4a11628f55a4df523b3ef",
            "0x0000000000000000000000000000000000000000000000000000000000000000",
            "0x000000000000000000000000c77f7fed3b5cc8249adc428c5f44c9063b9734b4"
          ],
          "data": "0x0000000000000000000000000000000000000000000000356d5571e5e93808ff",
          "blockHash": "0x034f8e0ab61098cee38e128d3a34d330c210cde8eba3f1e07f235b710fe4d36f",
          "blockNumber": "0x725947",
          "transactionHash": "0x0ac5e2e8b021f0211653a083acf7cc661378f2e4cd16317cd5ce44179a33fa86",
          "transactionIndex": "0x5a",
          "logIndex": "0x7b",
          "removed": false
        },
        {
          "address": "0xbf4a322f1496e5c3d34a9bcdb4c60567b38c7de2",
          "topics": [
            "0xddf252ad1be2c89b69c2b068fc378daa952ba7f163c4a11628f55a4df523b3ef",
            "0x0000000000000000000000000000000000000000000000000000000000000000",
            "0x000000000000000000000000c77f7fed3b5cc8249adc428c5f44c9063b9734b4"
          ],
          "data": "0x000000000000000000000000000000000000000000000000297cea8c55715d87",
          "blockHash": "0x034f8e0ab61098cee38e128d3a34d330c210cde8eba3f1e07f235b710fe4d36f",
          "blockNumber": "0x725947",
          "transactionHash": "0x0ac5e2e8b021f0211653a083acf7cc661378f2e4cd16317cd5ce44179a33fa86",
          "transactionIndex": "0x5a",
          "logIndex": "0x7c",
          "removed": false
        },
        {
          "address": "0xbf4a322f1496e5c3d34a9bcdb4c60567b38c7de2",
          "topics": [
            "0x4afcb4a87cdbd9974efdb92ee48bc8d7cd0ae4bf217004db3d080cbaee652ca7"
          ],
          "data": "0x00000000000000000000000000000000000000000000000000000000678721800000000000000000000000000000000000000000000000000003919ae43773f20000000000000000000000000000000000000000000000000de0b6b3a7640000",
          "blockHash": "0x034f8e0ab61098cee38e128d3a34d330c210cde8eba3f1e07f235b710fe4d36f",
          "blockNumber": "0x725947",
          "transactionHash": "0x0ac5e2e8b021f0211653a083acf7cc661378f2e4cd16317cd5ce44179a33fa86",
          "transactionIndex": "0x5a",
          "logIndex": "0x7d",
          "removed": false
        }
      ],
      "logsBloom": "0x00000000000000000000000000000000000000000000000000000000000000000000000000000000000000000000000000000000000000004000000000000000000000000000000000000008000000000000001000000000000000000000000000000000020000000000000000000800020000000000000000000010000000000000000000000000000000000000000000000000000008000000010000000000000000000000000000000000000000004000000000000000000000000000000000000002000000800000000000001000000000000000080000000000000020000000000000000000000000000000000000000000000000000000000000000000",
      "type": "0x2",
      "transactionHash": "0x0ac5e2e8b021f0211653a083acf7cc661378f2e4cd16317cd5ce44179a33fa86",
      "transactionIndex": "0x5a",
      "blockHash": "0x034f8e0ab61098cee38e128d3a34d330c210cde8eba3f1e07f235b710fe4d36f",
      "blockNumber": "0x725947",
      "gasUsed": "0x13af6",
      "effectiveGasPrice": "0x294c8d0a4",
      "from": "0xc77f7fed3b5cc8249adc428c5f44c9063b9734b4",
      "to": "0xbf4a322f1496e5c3d34a9bcdb4c60567b38c7de2",
      "contractAddress": null
    }
  ],
  "libraries": [],
  "pending": [],
  "returns": {},
  "timestamp": 1736909185,
  "chain": 11155111,
  "commit": "51a374b"
}