{
  "transactions": [
    {
      "hash": "0x066ebbb08f5f8a321d01d9441a6a551d6550d43feb725b87273c635e184c95d3",
      "transactionType": "CALL",
      "contractName": null,
      "contractAddress": "0x8aafd3ede9adb0ff97c7aebce82a919afb1c8764",
      "function": "sell(uint256)",
      "arguments": [
        "47499697483817567"
      ],
      "transaction": {
        "from": "0xc77f7fed3b5cc8249adc428c5f44c9063b9734b4",
        "to": "0x8aafd3ede9adb0ff97c7aebce82a919afb1c8764",
        "gas": "0x1724d",
        "value": "0x0",
        "input": "0xe4849b3200000000000000000000000000000000000000000000000000a8c0b92376225f",
        "nonce": "0xf5f",
        "chainId": "0xaa36a7"
      },
      "additionalContracts": [],
      "isFixedGasLimit": false
    }
  ],
  "receipts": [
    {
      "status": "0x1",
      "cumulativeGasUsed": "0xa903c0",
      "logs": [
        {
          "address": "0x8aafd3ede9adb0ff97c7aebce82a919afb1c8764",
          "topics": [
            "0xddf252ad1be2c89b69c2b068fc378daa952ba7f163c4a11628f55a4df523b3ef",
            "0x000000000000000000000000c77f7fed3b5cc8249adc428c5f44c9063b9734b4",
            "0x0000000000000000000000000000000000000000000000000000000000000000"
          ],
          "data": "0x00000000000000000000000000000000000000000000000000a7671e0eb2a113",
          "blockHash": "0x945e5fbcd607f697c02af6dd756e07f7414e2dd6cabe38eef785874bdd26eae9",
          "blockNumber": "0x7315bd",
          "transactionHash": "0x066ebbb08f5f8a321d01d9441a6a551d6550d43feb725b87273c635e184c95d3",
          "transactionIndex": "0x7d",
          "logIndex": "0xa3",
          "removed": false
        },
        {
          "address": "0x8aafd3ede9adb0ff97c7aebce82a919afb1c8764",
          "topics": [
            "0xddf252ad1be2c89b69c2b068fc378daa952ba7f163c4a11628f55a4df523b3ef",
            "0x000000000000000000000000c77f7fed3b5cc8249adc428c5f44c9063b9734b4",
            "0x000000000000000000000000c77f7fed3b5cc8249adc428c5f44c9063b9734b4"
          ],
          "data": "0x0000000000000000000000000000000000000000000000000001599b14c3814c",
          "blockHash": "0x945e5fbcd607f697c02af6dd756e07f7414e2dd6cabe38eef785874bdd26eae9",
          "blockNumber": "0x7315bd",
          "transactionHash": "0x066ebbb08f5f8a321d01d9441a6a551d6550d43feb725b87273c635e184c95d3",
          "transactionIndex": "0x7d",
          "logIndex": "0xa4",
          "removed": false
        },
        {
          "address": "0x8aafd3ede9adb0ff97c7aebce82a919afb1c8764",
          "topics": [
            "0x4afcb4a87cdbd9974efdb92ee48bc8d7cd0ae4bf217004db3d080cbaee652ca7"
          ],
          "data": "0x00000000000000000000000000000000000000000000000000000000679001880000000000000000000000000000000000000000000000000004c12f917f8e12000000000000000000000000000000000000000000000000000039d0e292d23c",
          "blockHash": "0x945e5fbcd607f697c02af6dd756e07f7414e2dd6cabe38eef785874bdd26eae9",
          "blockNumber": "0x7315bd",
          "transactionHash": "0x066ebbb08f5f8a321d01d9441a6a551d6550d43feb725b87273c635e184c95d3",
          "transactionIndex": "0x7d",
          "logIndex": "0xa5",
          "removed": false
        }
      ],
      "logsBloom": "0x00000000000000000000000000000000000000000600000000000000000000000000000000000000000000000000000000000000000000004000000000000000000000000000004000000008000000000000000000000000000000000000000000000000020000000000000000000800020000000000000000000010000000000000000000000000000000000000000000000000000000000000010000000000000000000000000000000000000000004000000000000000000000000000000000000002000000800000000000000000000000000000080000000000000020000000000000000000000000000000000000000000000000000000000000000000",
      "type": "0x2",
      "transactionHash": "0x066ebbb08f5f8a321d01d9441a6a551d6550d43feb725b87273c635e184c95d3",
      "transactionIndex": "0x7d",
      "blockHash": "0x945e5fbcd607f697c02af6dd756e07f7414e2dd6cabe38eef785874bdd26eae9",
      "blockNumber": "0x7315bd",
      "gasUsed": "0xfd33",
      "effectiveGasPrice": "0x780161c1",
      "from": "0xc77f7fed3b5cc8249adc428c5f44c9063b9734b4",
      "to": "0x8aafd3ede9adb0ff97c7aebce82a919afb1c8764",
      "contractAddress": null
    }
  ],
  "libraries": [],
  "pending": [],
  "returns": {},
  "timestamp": 1737490824,
  "chain": 11155111,
  "commit": "1d2fb70"
}