{
  "transactions": [
    {
      "hash": "0xf11df9d8baac0fc80cd87043f28ed6c7cf577bf40169916567fc11d278ed97bf",
      "transactionType": "CALL",
      "contractName": null,
      "contractAddress": "0x8aafd3ede9adb0ff97c7aebce82a919afb1c8764",
      "function": "sell(uint256)",
      "arguments": [
        "44136209152210404"
      ],
      "transaction": {
        "from": "0xc77f7fed3b5cc8249adc428c5f44c9063b9734b4",
        "to": "0x8aafd3ede9adb0ff97c7aebce82a919afb1c8764",
        "gas": "0x1724d",
        "value": "0x0",
        "input": "0xe4849b32000000000000000000000000000000000000000000000000009ccda5fc3ff5e4",
        "nonce": "0x1183",
        "chainId": "0xaa36a7"
      },
      "additionalContracts": [],
      "isFixedGasLimit": false
    }
  ],
  "receipts": [
    {
      "status": "0x1",
      "cumulativeGasUsed": "0xc009ee",
      "logs": [
        {
          "address": "0x8aafd3ede9adb0ff97c7aebce82a919afb1c8764",
          "topics": [
            "0xddf252ad1be2c89b69c2b068fc378daa952ba7f163c4a11628f55a4df523b3ef",
            "0x000000000000000000000000c77f7fed3b5cc8249adc428c5f44c9063b9734b4",
            "0x0000000000000000000000000000000000000000000000000000000000000000"
          ],
          "data": "0x000000000000000000000000000000000000000000000000009b8c83e3b42f51",
          "blockHash": "0x7f80eafba8721b7057c1bca9985297ed6c7d34b7364963f5fab4212fc4b22c39",
          "blockNumber": "0x731846",
          "transactionHash": "0xf11df9d8baac0fc80cd87043f28ed6c7cf577bf40169916567fc11d278ed97bf",
          "transactionIndex": "0x8b",
          "logIndex": "0xcb",
          "removed": false
        },
        {
          "address": "0x8aafd3ede9adb0ff97c7aebce82a919afb1c8764",
          "topics": [
            "0xddf252ad1be2c89b69c2b068fc378daa952ba7f163c4a11628f55a4df523b3ef",
            "0x000000000000000000000000c77f7fed3b5cc8249adc428c5f44c9063b9734b4",
            "0x000000000000000000000000c77f7fed3b5cc8249adc428c5f44c9063b9734b4"
          ],
          "data": "0x00000000000000000000000000000000000000000000000000014122188bc693",
          "blockHash": "0x7f80eafba8721b7057c1bca9985297ed6c7d34b7364963f5fab4212fc4b22c39",
          "blockNumber": "0x731846",
          "transactionHash": "0xf11df9d8baac0fc80cd87043f28ed6c7cf577bf40169916567fc11d278ed97bf",
          "transactionIndex": "0x8b",
          "logIndex": "0xcc",
          "removed": false
        },
        {
          "address": "0x8aafd3ede9adb0ff97c7aebce82a919afb1c8764",
          "topics": [
            "0x4afcb4a87cdbd9974efdb92ee48bc8d7cd0ae4bf217004db3d080cbaee652ca7"
          ],
          "data": "0x000000000000000000000000000000000000000000000000000000006790200c00000000000000000000000000000000000000000000000000051f0b35f2894a000000000000000000000000000000000000000000000000000039dd4fe09bc5",
          "blockHash": "0x7f80eafba8721b7057c1bca9985297ed6c7d34b7364963f5fab4212fc4b22c39",
          "blockNumber": "0x731846",
          "transactionHash": "0xf11df9d8baac0fc80cd87043f28ed6c7cf577bf40169916567fc11d278ed97bf",
          "transactionIndex": "0x8b",
          "logIndex": "0xcd",
          "removed": false
        }
      ],
      "logsBloom": "0x00000000000000000000000000000000000000000600000000000000000000000000000000000000000000000000000000000000000000004000000000000000000000000000004000000008000000000000000000000000000000000000000000000000020000000000000000000800020000000000000000000010000000000000000000000000000000000000000000000000000000000000010000000000000000000000000000000000000000004000000000000000000000000000000000000002000000800000000000000000000000000000080000000000000020000000000000000000000000000000000000000000000000000000000000000000",
      "type": "0x2",
      "transactionHash": "0xf11df9d8baac0fc80cd87043f28ed6c7cf577bf40169916567fc11d278ed97bf",
      "transactionIndex": "0x8b",
      "blockHash": "0x7f80eafba8721b7057c1bca9985297ed6c7d34b7364963f5fab4212fc4b22c39",
      "blockNumber": "0x731846",
      "gasUsed": "0xfd33",
      "effectiveGasPrice": "0x461ce0e4",
      "from": "0xc77f7fed3b5cc8249adc428c5f44c9063b9734b4",
      "to": "0x8aafd3ede9adb0ff97c7aebce82a919afb1c8764",
      "contractAddress": null
    }
  ],
  "libraries": [],
  "pending": [],
  "returns": {},
  "timestamp": 1737498639,
  "chain": 11155111,
  "commit": "1d2fb70"
}