{
  "transactions": [
    {
      "hash": "0xb8420ea54114b2e830896cc3b9c19a7dbebb35eadcace3bfd28b4476a86e3268",
      "transactionType": "CALL",
      "contractName": null,
      "contractAddress": "0x270e88f8683660553e8ba4eb2ad7c91a1710d769",
      "function": "sell(uint256)",
      "arguments": [
        "722926544719440514623"
      ],
      "transaction": {
        "from": "0xc77f7fed3b5cc8249adc428c5f44c9063b9734b4",
        "to": "0x270e88f8683660553e8ba4eb2ad7c91a1710d769",
        "gas": "0x16fec",
        "value": "0x0",
        "input": "0xe4849b32000000000000000000000000000000000000000000000027309f06317ecc0e3f",
        "nonce": "0x800",
        "chainId": "0xaa36a7"
      },
      "additionalContracts": [],
      "isFixedGasLimit": false
    }
  ],
  "receipts": [
    {
      "status": "0x1",
      "cumulativeGasUsed": "0x545025",
      "logs": [
        {
          "address": "0x270e88f8683660553e8ba4eb2ad7c91a1710d769",
          "topics": [
            "0xddf252ad1be2c89b69c2b068fc378daa952ba7f163c4a11628f55a4df523b3ef",
            "0x000000000000000000000000c77f7fed3b5cc8249adc428c5f44c9063b9734b4",
            "0x0000000000000000000000000000000000000000000000000000000000000000"
          ],
          "data": "0x000000000000000000000000000000000000000000000027309f06317ecc0e3f",
          "blockHash": "0xb69acfedbccd90e33df0a43872e7a9f26688202c802c39d7a55a9b62eed579a0",
          "blockNumber": "0x72553d",
          "transactionHash": "0xb8420ea54114b2e830896cc3b9c19a7dbebb35eadcace3bfd28b4476a86e3268",
          "transactionIndex": "0x31",
          "logIndex": "0x4a",
          "removed": false
        },
        {
          "address": "0x270e88f8683660553e8ba4eb2ad7c91a1710d769",
          "topics": [
            "0x4afcb4a87cdbd9974efdb92ee48bc8d7cd0ae4bf217004db3d080cbaee652ca7"
          ],
          "data": "0x000000000000000000000000000000000000000000000000000000006786f0e40000000000000000000000000000000000000000000000000004e1904e490eaa0000000000000000000000000000000000000000000000000dc826bb7f215381",
          "blockHash": "0xb69acfedbccd90e33df0a43872e7a9f26688202c802c39d7a55a9b62eed579a0",
          "blockNumber": "0x72553d",
          "transactionHash": "0xb8420ea54114b2e830896cc3b9c19a7dbebb35eadcace3bfd28b4476a86e3268",
          "transactionIndex": "0x31",
          "logIndex": "0x4b",
          "removed": false
        }
      ],
      "logsBloom": "0x00000000000000000000000000000000000000000000000000000000000000000000000000000000000000000000000020000000000000004000000000000000000000000000000000000008000000000000000000000000000000000000000000000000020000000000000000000800020000000000000000000010000000000000000000010000000000000000000000000000000000000000010000000000000000000000000000000000000000004000000000000000000000000000000000000002000000800000000000000000000000000000080000008000000020000000000000000000000000000000000000000000000000000000000000000000",
      "type": "0x2",
      "transactionHash": "0xb8420ea54114b2e830896cc3b9c19a7dbebb35eadcace3bfd28b4476a86e3268",
      "transactionIndex": "0x31",
      "blockHash": "0xb69acfedbccd90e33df0a43872e7a9f26688202c802c39d7a55a9b62eed579a0",
      "blockNumber": "0x72553d",
      "gasUsed": "0xfb93",
      "effectiveGasPrice": "0x9d01b74d",
      "from": "0xc77f7fed3b5cc8249adc428c5f44c9063b9734b4",
      "to": "0x270e88f8683660553e8ba4eb2ad7c91a1710d769",
      "contractAddress": null
    }
  ],
  "libraries": [],
  "pending": [],
  "returns": {},
  "timestamp": 1736896742,
  "chain": 11155111,
  "commit": "51a374b"
}