{
  "transactions": [
    {
      "hash": "0xbd996fba0ea0e4b790fc3196fe0f405697e21a0fc567c980c8a7b3544211304b",
      "transactionType": "CALL",
      "contractName": null,
      "contractAddress": "0x8aafd3ede9adb0ff97c7aebce82a919afb1c8764",
      "function": "sell(uint256)",
      "arguments": [
        "740387112693544554785"
      ],
      "transaction": {
        "from": "0xc77f7fed3b5cc8249adc428c5f44c9063b9734b4",
        "to": "0x8aafd3ede9adb0ff97c7aebce82a919afb1c8764",
        "gas": "0x17270",
        "value": "0x0",
        "input": "0xe4849b3200000000000000000000000000000000000000000000002822ef6c4177d49121",
        "nonce": "0xfb7",
        "chainId": "0xaa36a7"
      },
      "additionalContracts": [],
      "isFixedGasLimit": false
    }
  ],
  "receipts": [
    {
      "status": "0x1",
      "cumulativeGasUsed": "0xd68fa1",
      "logs": [
        {
          "address": "0x8aafd3ede9adb0ff97c7aebce82a919afb1c8764",
          "topics": [
            "0xddf252ad1be2c89b69c2b068fc378daa952ba7f163c4a11628f55a4df523b3ef",
            "0x000000000000000000000000c77f7fed3b5cc8249adc428c5f44c9063b9734b4",
            "0x0000000000000000000000000000000000000000000000000000000000000000"
          ],
          "data": "0x000000000000000000000000000000000000000000000027d0bc5b0174d2ddcb",
          "blockHash": "0x06f3979c3518ec0557e294a1851dc0b0892fafba57fbe1213111d205c9aba257",
          "blockNumber": "0x731622",
          "transactionHash": "0xbd996fba0ea0e4b790fc3196fe0f405697e21a0fc567c980c8a7b3544211304b",
          "transactionIndex": "0x80",
          "logIndex": "0xcc",
          "removed": false
        },
        {
          "address": "0x8aafd3ede9adb0ff97c7aebce82a919afb1c8764",
          "topics": [
            "0xddf252ad1be2c89b69c2b068fc378daa952ba7f163c4a11628f55a4df523b3ef",
            "0x000000000000000000000000c77f7fed3b5cc8249adc428c5f44c9063b9734b4",
            "0x000000000000000000000000c77f7fed3b5cc8249adc428c5f44c9063b9734b4"
          ],
          "data": "0x000000000000000000000000000000000000000000000000523311400301b356",
          "blockHash": "0x06f3979c3518ec0557e294a1851dc0b0892fafba57fbe1213111d205c9aba257",
          "blockNumber": "0x731622",
          "transactionHash": "0xbd996fba0ea0e4b790fc3196fe0f405697e21a0fc567c980c8a7b3544211304b",
          "transactionIndex": "0x80",
          "logIndex": "0xcd",
          "removed": false
        },
        {
          "address": "0x8aafd3ede9adb0ff97c7aebce82a919afb1c8764",
          "topics": [
            "0x4afcb4a87cdbd9974efdb92ee48bc8d7cd0ae4bf217004db3d080cbaee652ca7"
          ],
          "data": "0x00000000000000000000000000000000000000000000000000000000679006440000000000000000000000000000000000000000000000000004c4229c32e7020000000000000000000000000000000000000000000000000dc82127ff8f4dd1",
          "blockHash": "0x06f3979c3518ec0557e294a1851dc0b0892fafba57fbe1213111d205c9aba257",
          "blockNumber": "0x731622",
          "transactionHash": "0xbd996fba0ea0e4b790fc3196fe0f405697e21a0fc567c980c8a7b3544211304b",
          "transactionIndex": "0x80",
          "logIndex": "0xce",
          "removed": false
        }
      ],
      "logsBloom": "0x00000000000000000000000000000000000000000600000000000000000000000000000000000000000000000000000000000000000000004000000000000000000000000000004000000008000000000000000000000000000000000000000000000000020000000000000000000800020000000000000000000010000000000000000000000000000000000000000000000000000000000000010000000000000000000000000000000000000000004000000000000000000000000000000000000002000000800000000000000000000000000000080000000000000020000000000000000000000000000000000000000000000000000000000000000000",
      "type": "0x2",
      "transactionHash": "0xbd996fba0ea0e4b790fc3196fe0f405697e21a0fc567c980c8a7b3544211304b",
      "transactionIndex": "0x80",
      "blockHash": "0x06f3979c3518ec0557e294a1851dc0b0892fafba57fbe1213111d205c9aba257",
      "blockNumber": "0x731622",
      "gasUsed": "0xfd4b",
      "effectiveGasPrice": "0x6cc01ca5",
      "from": "0xc77f7fed3b5cc8249adc428c5f44c9063b9734b4",
      "to": "0x8aafd3ede9adb0ff97c7aebce82a919afb1c8764",
      "contractAddress": null
    }
  ],
  "libraries": [],
  "pending": [],
  "returns": {},
  "timestamp": 1737492037,
  "chain": 11155111,
  "commit": "1d2fb70"
}