{
  "transactions": [
    {
      "hash": "0x52ffb62f9fa3b68691c37e7b8b24956c01f9d6926a943d0b71f2f9db5562b22c",
      "transactionType": "CALL",
      "contractName": null,
      "contractAddress": "0x8aafd3ede9adb0ff97c7aebce82a919afb1c8764",
      "function": "sell(uint256)",
      "arguments": [
        "662431444250991045696"
      ],
      "transaction": {
        "from": "0xc77f7fed3b5cc8249adc428c5f44c9063b9734b4",
        "to": "0x8aafd3ede9adb0ff97c7aebce82a919afb1c8764",
        "gas": "0x17270",
        "value": "0x0",
        "input": "0xe4849b32000000000000000000000000000000000000000000000023e91540d5854cac40",
        "nonce": "0x12f3",
        "chainId": "0xaa36a7"
      },
      "additionalContracts": [],
      "isFixedGasLimit": false
    }
  ],
  "receipts": [
    {
      "status": "0x1",
      "cumulativeGasUsed": "0xb4d20e",
      "logs": [
        {
          "address": "0x8aafd3ede9adb0ff97c7aebce82a919afb1c8764",
          "topics": [
            "0xddf252ad1be2c89b69c2b068fc378daa952ba7f163c4a11628f55a4df523b3ef",
            "0x000000000000000000000000c77f7fed3b5cc8249adc428c5f44c9063b9734b4",
            "0x0000000000000000000000000000000000000000000000000000000000000000"
          ],
          "data": "0x0000000000000000000000000000000000000000000000239f89d1b93043de13",
          "blockHash": "0x7624f92cfdbe468738a73c057ddf79edb0902481612d87875a8ed53895553b0d",
          "blockNumber": "0x7319f8",
          "transactionHash": "0x52ffb62f9fa3b68691c37e7b8b24956c01f9d6926a943d0b71f2f9db5562b22c",
          "transactionIndex": "0x77",
          "logIndex": "0x8a",
          "removed": false
        },
        {
          "address": "0x8aafd3ede9adb0ff97c7aebce82a919afb1c8764",
          "topics": [
            "0xddf252ad1be2c89b69c2b068fc378daa952ba7f163c4a11628f55a4df523b3ef",
            "0x000000000000000000000000c77f7fed3b5cc8249adc428c5f44c9063b9734b4",
            "0x000000000000000000000000c77f7fed3b5cc8249adc428c5f44c9063b9734b4"
          ],
          "data": "0x000000000000000000000000000000000000000000000000498b6f1c5508ce2d",
          "blockHash": "0x7624f92cfdbe468738a73c057ddf79edb0902481612d87875a8ed53895553b0d",
          "blockNumber": "0x7319f8",
          "transactionHash": "0x52ffb62f9fa3b68691c37e7b8b24956c01f9d6926a943d0b71f2f9db5562b22c",
          "transactionIndex": "0x77",
          "logIndex": "0x8b",
          "removed": false
        },
        {
          "address": "0x8aafd3ede9adb0ff97c7aebce82a919afb1c8764",
          "topics": [
            "0x4afcb4a87cdbd9974efdb92ee48bc8d7cd0ae4bf217004db3d080cbaee652ca7"
          ],
          "data": "0x0000000000000000000000000000000000000000000000000000000067903470000000000000000000000000000000000000000000000000000554cd849d99000000000000000000000000000000000000000000000000000dc8eaec4fb9975e",
          "blockHash": "0x7624f92cfdbe468738a73c057ddf79edb0902481612d87875a8ed53895553b0d",
          "blockNumber": "0x7319f8",
          "transactionHash": "0x52ffb62f9fa3b68691c37e7b8b24956c01f9d6926a943d0b71f2f9db5562b22c",
          "transactionIndex": "0x77",
          "logIndex": "0x8c",
          "removed": false
        }
      ],
      "logsBloom": "0x00000000000000000000000000000000000000000600000000000000000000000000000000000000000000000000000000000000000000004000000000000000000000000000004000000008000000000000000000000000000000000000000000000000020000000000000000000800020000000000000000000010000000000000000000000000000000000000000000000000000000000000010000000000000000000000000000000000000000004000000000000000000000000000000000000002000000800000000000000000000000000000080000000000000020000000000000000000000000000000000000000000000000000000000000000000",
      "type": "0x2",
      "transactionHash": "0x52ffb62f9fa3b68691c37e7b8b24956c01f9d6926a943d0b71f2f9db5562b22c",
      "transactionIndex": "0x77",
      "blockHash": "0x7624f92cfdbe468738a73c057ddf79edb0902481612d87875a8ed53895553b0d",
      "blockNumber": "0x7319f8",
      "gasUsed": "0xfd4b",
      "effectiveGasPrice": "0x4be86289",
      "from": "0xc77f7fed3b5cc8249adc428c5f44c9063b9734b4",
      "to": "0x8aafd3ede9adb0ff97c7aebce82a919afb1c8764",
      "contractAddress": null
    }
  ],
  "libraries": [],
  "pending": [],
  "returns": {},
  "timestamp": 1737503857,
  "chain": 11155111,
  "commit": "1d2fb70"
}