{
  "transactions": [
    {
      "hash": "0xb000184299a697527b8d8f43fb55c6ccae6b6a45c381e65c2f45e4a7e54f4b75",
      "transactionType": "CALL",
      "contractName": null,
      "contractAddress": "0x5eb9cc76c3506942c1c0ead70e877dd5e4f00cb0",
      "function": "buy(address)",
      "arguments": [
        "0xC77f7fed3b5Cc8249aDc428c5F44C9063B9734b4"
      ],
      "transaction": {
        "from": "0xc77f7fed3b5cc8249adc428c5f44c9063b9734b4",
        "to": "0x5eb9cc76c3506942c1c0ead70e877dd5e4f00cb0",
        "gas": "0x1b30c",
        "value": "0xde0b6b3a7640000",
        "input": "0xf088d547000000000000000000000000c77f7fed3b5cc8249adc428c5f44c9063b9734b4",
        "nonce": "0x2dc",
        "chainId": "0xaa36a7"
      },
      "additionalContracts": [],
      "isFixedGasLimit": false
    }
  ],
  "receipts": [
    {
      "status": "0x1",
      "cumulativeGasUsed": "0xa49fed",
      "logs": [
        {
          "address": "0x5eb9cc76c3506942c1c0ead70e877dd5e4f00cb0",
          "topics": [
            "0xddf252ad1be2c89b69c2b068fc378daa952ba7f163c4a11628f55a4df523b3ef",
            "0x0000000000000000000000000000000000000000000000000000000000000000",
            "0x000000000000000000000000c77f7fed3b5cc8249adc428c5f44c9063b9734b4"
          ],
          "data": "0x00000000000000000000000000000000000000000000003575a70a480b3f5959",
          "blockHash": "0x812f989be7ac40e3a745a6948f5499ad7ddb715f879c802f320d476639167a09",
          "blockNumber": "0x724eb9",
          "transactionHash": "0xb000184299a697527b8d8f43fb55c6ccae6b6a45c381e65c2f45e4a7e54f4b75",
          "transactionIndex": "0x4d",
          "logIndex": "0x80",
          "removed": false
        },
        {
          "address": "0x5eb9cc76c3506942c1c0ead70e877dd5e4f00cb0",
          "topics": [
            "0xddf252ad1be2c89b69c2b068fc378daa952ba7f163c4a11628f55a4df523b3ef",
            "0x0000000000000000000000000000000000000000000000000000000000000000",
            "0x000000000000000000000000c77f7fed3b5cc8249adc428c5f44c9063b9734b4"
          ],
          "data": "0x00000000000000000000000000000000000000000000000029836040642d0b75",
          "blockHash": "0x812f989be7ac40e3a745a6948f5499ad7ddb715f879c802f320d476639167a09",
          "blockNumber": "0x724eb9",
          "transactionHash": "0xb000184299a697527b8d8f43fb55c6ccae6b6a45c381e65c2f45e4a7e54f4b75",
          "transactionIndex": "0x4d",
          "logIndex": "0x81",
          "removed": false
        },
        {
          "address": "0x5eb9cc76c3506942c1c0ead70e877dd5e4f00cb0",
          "topics": [
            "0x4afcb4a87cdbd9974efdb92ee48bc8d7cd0ae4bf217004db3d080cbaee652ca7"
          ],
          "data": "0x000000000000000000000000000000000000000000000000000000006786a2600000000000000000000000000000000000000000000000000003910a6d79a9480000000000000000000000000000000000000000000000000de0b6b3a7640000",
          "blockHash": "0x812f989be7ac40e3a745a6948f5499ad7ddb715f879c802f320d476639167a09",
          "blockNumber": "0x724eb9",
          "transactionHash": "0xb000184299a697527b8d8f43fb55c6ccae6b6a45c381e65c2f45e4a7e54f4b75",
          "transactionIndex": "0x4d",
          "logIndex": "0x82",
          "removed": false
        }
      ],
      "logsBloom": "0x00000000000000000000000000000000000000000000000000000000000000000000000000000000000000000000000000000000000000004000000000000000000000000000000000000008000000000000000000000000000000000000000000000000020000000000000004000800020000000000000000000010000000000000000000000000000000000000000000000000000000000000010000000000000000000000000000000000000000004000000000000000000000000000020000000002000000800000008000000000000000000000080000000000000020000000000000000000000000000000000000000000000000000000000000000000",
      "type": "0x2",
      "transactionHash": "0xb000184299a697527b8d8f43fb55c6ccae6b6a45c381e65c2f45e4a7e54f4b75",
      "transactionIndex": "0x4d",
      "blockHash": "0x812f989be7ac40e3a745a6948f5499ad7ddb715f879c802f320d476639167a09",
      "blockNumber": "0x724eb9",
      "gasUsed": "0x13af8",
      "effectiveGasPrice": "0x4a78c2b34",
      "from": "0xc77f7fed3b5cc8249adc428c5f44c9063b9734b4",
      "to": "0x5eb9cc76c3506942c1c0ead70e877dd5e4f00cb0",
      "contractAddress": null
    }
  ],
  "libraries": [],
  "pending": [],
  "returns": {},
  "timestamp": 1736876641,
  "chain": 11155111,
  "commit": "51a374b"
}