{
  "transactions": [
    {
      "hash": "0xb0a25faf365ea927324d85c862cdc47cb78eeac5cea47a647c2001ca23f4869a",
      "transactionType": "CALL",
      "contractName": null,
      "contractAddress": "0x270e88f8683660553e8ba4eb2ad7c91a1710d769",
      "function": "buy(address)",
      "arguments": [
        "0xC77f7fed3b5Cc8249aDc428c5F44C9063B9734b4"
      ],
      "transaction": {
        "from": "0xc77f7fed3b5cc8249adc428c5f44c9063b9734b4",
        "to": "0x270e88f8683660553e8ba4eb2ad7c91a1710d769",
        "gas": "0x1b30c",
        "value": "0xde0b6b3a7640000",
        "input": "0xf088d547000000000000000000000000c77f7fed3b5cc8249adc428c5f44c9063b9734b4",
        "nonce": "0x508",
        "chainId": "0xaa36a7"
      },
      "additionalContracts": [],
      "isFixedGasLimit": false
    }
  ],
  "receipts": [
    {
      "status": "0x1",
      "cumulativeGasUsed": "0xb3126f",
      "logs": [
        {
          "address": "0x270e88f8683660553e8ba4eb2ad7c91a1710d769",
          "topics": [
            "0xddf252ad1be2c89b69c2b068fc378daa952ba7f163c4a11628f55a4df523b3ef",
            "0x0000000000000000000000000000000000000000000000000000000000000000",
            "0x000000000000000000000000c77f7fed3b5cc8249adc428c5f44c9063b9734b4"
          ],
          "data": "0x000000000000000000000000000000000000000000000035390babcc93ceabc7",
          "blockHash": "0xdd31d220b38624c0376a404ab9b1daa0be5c0f7c95bdcd63cccb0fb94fd24b2f",
          "blockNumber": "0x72519d",
          "transactionHash": "0xb0a25faf365ea927324d85c862cdc47cb78eeac5cea47a647c2001ca23f4869a",
          "transactionIndex": "0x4d",
          "logIndex": "0xb1",
          "removed": false
        },
        {
          "address": "0x270e88f8683660553e8ba4eb2ad7c91a1710d769",
          "topics": [
            "0xddf252ad1be2c89b69c2b068fc378daa952ba7f163c4a11628f55a4df523b3ef",
            "0x0000000000000000000000000000000000000000000000000000000000000000",
            "0x000000000000000000000000c77f7fed3b5cc8249adc428c5f44c9063b9734b4"
          ],
          "data": "0x00000000000000000000000000000000000000000000000029545009c89d9479",
          "blockHash": "0xdd31d220b38624c0376a404ab9b1daa0be5c0f7c95bdcd63cccb0fb94fd24b2f",
          "blockNumber": "0x72519d",
          "transactionHash": "0xb0a25faf365ea927324d85c862cdc47cb78eeac5cea47a647c2001ca23f4869a",
          "transactionIndex": "0x4d",
          "logIndex": "0xb2",
          "removed": false
        },
        {
          "address": "0x270e88f8683660553e8ba4eb2ad7c91a1710d769",
          "topics": [
            "0x4afcb4a87cdbd9974efdb92ee48bc8d7cd0ae4bf217004db3d080cbaee652ca7"
          ],
          "data": "0x000000000000000000000000000000000000000000000000000000006786c54000000000000000000000000000000000000000000000000000039534d42d9fff0000000000000000000000000000000000000000000000000de0b6b3a7640000",
          "blockHash": "0xdd31d220b38624c0376a404ab9b1daa0be5c0f7c95bdcd63cccb0fb94fd24b2f",
          "blockNumber": "0x72519d",
          "transactionHash": "0xb0a25faf365ea927324d85c862cdc47cb78eeac5cea47a647c2001ca23f4869a",
          "transactionIndex": "0x4d",
          "logIndex": "0xb3",
          "removed": false
        }
      ],
      "logsBloom": "0x00000000000000000000000000000000000000000000000000000000000000000000000000000000000000000000000020000000000000004000000000000000000000000000000000000008000000000000000000000000000000000000000000000000020000000000000000000800020000000000000000000010000000000000000000010000000000000000000000000000000000000000010000000000000000000000000000000000000000004000000000000000000000000000000000000002000000800000000000000000000000000000080000008000000020000000000000000000000000000000000000000000000000000000000000000000",
      "type": "0x2",
      "transactionHash": "0xb0a25faf365ea927324d85c862cdc47cb78eeac5cea47a647c2001ca23f4869a",
      "transactionIndex": "0x4d",
      "blockHash": "0xdd31d220b38624c0376a404ab9b1daa0be5c0f7c95bdcd63cccb0fb94fd24b2f",
      "blockNumber": "0x72519d",
      "gasUsed": "0x13af8",
      "effectiveGasPrice": "0x46efb7d94",
      "from": "0xc77f7fed3b5cc8249adc428c5f44c9063b9734b4",
      "to": "0x270e88f8683660553e8ba4eb2ad7c91a1710d769",
      "contractAddress": null
    }
  ],
  "libraries": [],
  "pending": [],
  "returns": {},
  "timestamp": 1736885569,
  "chain": 11155111,
  "commit": "51a374b"
}