{
  "transactions": [
    {
      "hash": "0x917881c00434f940719000ab240efb6d2be8e15cd785c441d76931c6c47409d6",
      "transactionType": "CALL",
      "contractName": null,
      "contractAddress": "0x8aafd3ede9adb0ff97c7aebce82a919afb1c8764",
      "function": "sell(uint256)",
      "arguments": [
        "746987764837925655928"
      ],
      "transaction": {
        "from": "0xc77f7fed3b5cc8249adc428c5f44c9063b9734b4",
        "to": "0x8aafd3ede9adb0ff97c7aebce82a919afb1c8764",
        "gas": "0x17270",
        "value": "0x0",
        "input": "0xe4849b320000000000000000000000000000000000000000000000287e89a668c7961578",
        "nonce": "0xece",
        "chainId": "0xaa36a7"
      },
      "additionalContracts": [],
      "isFixedGasLimit": false
    }
  ],
  "receipts": [
    {
      "status": "0x1",
      "cumulativeGasUsed": "0xccad91",
      "logs": [
        {
          "address": "0x8aafd3ede9adb0ff97c7aebce82a919afb1c8764",
          "topics": [
            "0xddf252ad1be2c89b69c2b068fc378daa952ba7f163c4a11628f55a4df523b3ef",
            "0x000000000000000000000000c77f7fed3b5cc8249adc428c5f44c9063b9734b4",
            "0x0000000000000000000000000000000000000000000000000000000000000000"
          ],
          "data": "0x0000000000000000000000000000000000000000000000282b9afb1811c3fcb9",
          "blockHash": "0x7ed65c98de6cbd8e7ea243520e67d5e4be61ef16e6a60a8f76710cdc2a7f99a8",
          "blockNumber": "0x731439",
          "transactionHash": "0x917881c00434f940719000ab240efb6d2be8e15cd785c441d76931c6c47409d6",
          "transactionIndex": "0x78",
          "logIndex": "0xe0",
          "removed": false
        },
        {
          "address": "0x8aafd3ede9adb0ff97c7aebce82a919afb1c8764",
          "topics": [
            "0xddf252ad1be2c89b69c2b068fc378daa952ba7f163c4a11628f55a4df523b3ef",
            "0x000000000000000000000000c77f7fed3b5cc8249adc428c5f44c9063b9734b4",
            "0x000000000000000000000000c77f7fed3b5cc8249adc428c5f44c9063b9734b4"
          ],
          "data": "0x00000000000000000000000000000000000000000000000052eeab50b5d218bf",
          "blockHash": "0x7ed65c98de6cbd8e7ea243520e67d5e4be61ef16e6a60a8f76710cdc2a7f99a8",
          "blockNumber": "0x731439",
          "transactionHash": "0x917881c00434f940719000ab240efb6d2be8e15cd785c441d76931c6c47409d6",
          "transactionIndex": "0x78",
          "logIndex": "0xe1",
          "removed": false
        },
        {
          "address": "0x8aafd3ede9adb0ff97c7aebce82a919afb1c8764",
          "topics": [
            "0x4afcb4a87cdbd9974efdb92ee48bc8d7cd0ae4bf217004db3d080cbaee652ca7"
          ],
          "data": "0x00000000000000000000000000000000000000000000000000000000678fef580000000000000000000000000000000000000000000000000004b9719d9cfe9d0000000000000000000000000000000000000000000000000dc8348af7f1749c",
          "blockHash": "0x7ed65c98de6cbd8e7ea243520e67d5e4be61ef16e6a60a8f76710cdc2a7f99a8",
          "blockNumber": "0x731439",
          "transactionHash": "0x917881c00434f940719000ab240efb6d2be8e15cd785c441d76931c6c47409d6",
          "transactionIndex": "0x78",
          "logIndex": "0xe2",
          "removed": false
        }
      ],
      "logsBloom": "0x00000000000000000000000000000000000000000600000000000000000000000000000000000000000000000000000000000000000000004000000000000000000000000000004000000008000000000000000000000000000000000000000000000000020000000000000000000800020000000000000000000010000000000000000000000000000000000000000000000000000000000000010000000000000000000000000000000000000000004000000000000000000000000000000000000002000000800000000000000000000000000000080000000000000020000000000000000000000000000000000000000000000000000000000000000000",
      "type": "0x2",
      "transactionHash": "0x917881c00434f940719000ab240efb6d2be8e15cd785c441d76931c6c47409d6",
      "transactionIndex": "0x78",
      "blockHash": "0x7ed65c98de6cbd8e7ea243520e67d5e4be61ef16e6a60a8f76710cdc2a7f99a8",
      "blockNumber": "0x731439",
      "gasUsed": "0xfd4b",
      "effectiveGasPrice": "0x9da3e01a",
      "from": "0xc77f7fed3b5cc8249adc428c5f44c9063b9734b4",
      "to": "0x8aafd3ede9adb0ff97c7aebce82a919afb1c8764",
      "contractAddress": null
    }
  ],
  "libraries": [],
  "pending": [],
  "returns": {},
  "timestamp": 1737486169,
  "chain": 11155111,
  "commit": "51a374b"
}