{
  "transactions": [
    {
      "hash": "0x0f47c7f9f0e5b1de1934681e291d3dbc794c8c7c9158115f0a8c69024022040d",
      "transactionType": "CALL",
      "contractName": null,
      "contractAddress": "0x270e88f8683660553e8ba4eb2ad7c91a1710d769",
      "function": "sell(uint256)",
      "arguments": [
        "740641863952932209456"
      ],
      "transaction": {
        "from": "0xc77f7fed3b5cc8249adc428c5f44c9063b9734b4",
        "to": "0x270e88f8683660553e8ba4eb2ad7c91a1710d769",
        "gas": "0x16fec",
        "value": "0x0",
        "input": "0xe4849b3200000000000000000000000000000000000000000000002826787b2d29b70330",
        "nonce": "0x734",
        "chainId": "0xaa36a7"
      },
      "additionalContracts": [],
      "isFixedGasLimit": false
    }
  ],
  "receipts": [
    {
      "status": "0x1",
      "cumulativeGasUsed": "0x86d207",
      "logs": [
        {
          "address": "0x270e88f8683660553e8ba4eb2ad7c91a1710d769",
          "topics": [
            "0xddf252ad1be2c89b69c2b068fc378daa952ba7f163c4a11628f55a4df523b3ef",
            "0x000000000000000000000000c77f7fed3b5cc8249adc428c5f44c9063b9734b4",
            "0x0000000000000000000000000000000000000000000000000000000000000000"
          ],
          "data": "0x00000000000000000000000000000000000000000000002826787b2d29b70330",
          "blockHash": "0x0ab09f29a8dbcc050e9f3ed97045774bcbd371b7a91e00616febbe2bcff746f9",
          "blockNumber": "0x725455",
          "transactionHash": "0x0f47c7f9f0e5b1de1934681e291d3dbc794c8c7c9158115f0a8c69024022040d",
          "transactionIndex": "0x37",
          "logIndex": "0x59",
          "removed": false
        },
        {
          "address": "0x270e88f8683660553e8ba4eb2ad7c91a1710d769",
          "topics": [
            "0x4afcb4a87cdbd9974efdb92ee48bc8d7cd0ae4bf217004db3d080cbaee652ca7"
          ],
          "data": "0x000000000000000000000000000000000000000000000000000000006786e6040000000000000000000000000000000000000000000000000004c3aeb95712e30000000000000000000000000000000000000000000000000dc82890facf8534",
          "blockHash": "0x0ab09f29a8dbcc050e9f3ed97045774bcbd371b7a91e00616febbe2bcff746f9",
          "blockNumber": "0x725455",
          "transactionHash": "0x0f47c7f9f0e5b1de1934681e291d3dbc794c8c7c9158115f0a8c69024022040d",
          "transactionIndex": "0x37",
          "logIndex": "0x5a",
          "removed": false
        }
      ],
      "logsBloom": "0x00000000000000000000000000000000000000000000000000000000000000000000000000000000000000000000000020000000000000004000000000000000000000000000000000000008000000000000000000000000000000000000000000000000020000000000000000000800020000000000000000000010000000000000000000010000000000000000000000000000000000000000010000000000000000000000000000000000000000004000000000000000000000000000000000000002000000800000000000000000000000000000080000008000000020000000000000000000000000000000000000000000000000000000000000000000",
      "type": "0x2",
      "transactionHash": "0x0f47c7f9f0e5b1de1934681e291d3dbc794c8c7c9158115f0a8c69024022040d",
      "transactionIndex": "0x37",
      "blockHash": "0x0ab09f29a8dbcc050e9f3ed97045774bcbd371b7a91e00616febbe2bcff746f9",
      "blockNumber": "0x725455",
      "gasUsed": "0xfb93",
      "effectiveGasPrice": "0x14666e263",
      "from": "0xc77f7fed3b5cc8249adc428c5f44c9063b9734b4",
      "to": "0x270e88f8683660553e8ba4eb2ad7c91a1710d769",
      "contractAddress": null
    }
  ],
  "libraries": [],
  "pending": [],
  "returns": {},
  "timestamp": 1736893957,
  "chain": 11155111,
  "commit": "51a374b"
}