{
  "transactions": [
    {
      "hash": "0xe1fbbb0f755cccefff16215e9ef92402edcf292b7397bba42466d262c889b671",
      "transactionType": "CALL",
      "contractName": null,
      "contractAddress": "0xbf4a322f1496e5c3d34a9bcdb4c60567b38c7de2",
      "function": "sell(uint256)",
      "arguments": [
        "981572706890559346001"
      ],
      "transaction": {
        "from": "0xc77f7fed3b5cc8249adc428c5f44c9063b9734b4",
        "to": "0xbf4a322f1496e5c3d34a9bcdb4c60567b38c7de2",
        "gas": "0x16fea",
        "value": "0x0",
        "input": "0xe4849b32000000000000000000000000000000000000000000000035360ec85266695551",
        "nonce": "0xba3",
        "chainId": "0xaa36a7"
      },
      "additionalContracts": [],
      "isFixedGasLimit": false
    }
  ],
  "receipts": [
    {
      "status": "0x1",
      "cumulativeGasUsed": "0xd6f891",
      "logs": [
        {
          "address": "0xbf4a322f1496e5c3d34a9bcdb4c60567b38c7de2",
          "topics": [
            "0xddf252ad1be2c89b69c2b068fc378daa952ba7f163c4a11628f55a4df523b3ef",
            "0x000000000000000000000000c77f7fed3b5cc8249adc428c5f44c9063b9734b4",
            "0x0000000000000000000000000000000000000000000000000000000000000000"
          ],
          "data": "0x000000000000000000000000000000000000000000000035360ec85266695551",
          "blockHash": "0x238e9f1e1e6464c3c39ae642014a4c18aaf9c00928665e8d884ca36a58d9dff1",
          "blockNumber": "0x725bb9",
          "transactionHash": "0xe1fbbb0f755cccefff16215e9ef92402edcf292b7397bba42466d262c889b671",
          "transactionIndex": "0x69",
          "logIndex": "0xa7",
          "removed": false
        },
        {
          "address": "0xbf4a322f1496e5c3d34a9bcdb4c60567b38c7de2",
          "topics": [
            "0x4afcb4a87cdbd9974efdb92ee48bc8d7cd0ae4bf217004db3d080cbaee652ca7"
          ],
          "data": "0x0000000000000000000000000000000000000000000000000000000067873f080000000000000000000000000000000000000000000000000003981c64993ca90000000000000000000000000000000000000000000000000dc7e3e5b91050fe",
          "blockHash": "0x238e9f1e1e6464c3c39ae642014a4c18aaf9c00928665e8d884ca36a58d9dff1",
          "blockNumber": "0x725bb9",
          "transactionHash": "0xe1fbbb0f755cccefff16215e9ef92402edcf292b7397bba42466d262c889b671",
          "transactionIndex": "0x69",
          "logIndex": "0xa8",
          "removed": false
        }
      ],
      "logsBloom": "0x00000000000000000000000000000000000000000000000000000000000000000000000000000000000000000000000000000000000000004000000000000000000000000000000000000008000000000000001000000000000000000000000000000000020000000000000000000800020000000000000000000010000000000000000000000000000000000000000000000000000008000000010000000000000000000000000000000000000000004000000000000000000000000000000000000002000000800000000000001000000000000000080000000000000020000000000000000000000000000000000000000000000000000000000000000000",
      "type": "0x2",
      "transactionHash": "0xe1fbbb0f755cccefff16215e9ef92402edcf292b7397bba42466d262c889b671",
      "transactionIndex": "0x69",
      "blockHash": "0x238e9f1e1e6464c3c39ae642014a4c18aaf9c00928665e8d884ca36a58d9dff1",
      "blockNumber": "0x725bb9",
      "gasUsed": "0xfb91",
      "effectiveGasPrice": "0x557a4e81",
      "from": "0xc77f7fed3b5cc8249adc428c5f44c9063b9734b4",
      "to": "0xbf4a322f1496e5c3d34a9bcdb4c60567b38c7de2",
      "contractAddress": null
    }
  ],
  "libraries": [],
  "pending": [],
  "returns": {},
  "timestamp": 1736916745,
  "chain": 11155111,
  "commit": "51a374b"
}