{
  "transactions": [
    {
      "hash": "0xa6f92fee237ace3edc89e31d974e75792931c969c35b39cc732401fa4d2bd81c",
      "transactionType": "CALL",
      "contractName": null,
      "contractAddress": "0x8aafd3ede9adb0ff97c7aebce82a919afb1c8764",
      "function": "sell(uint256)",
      "arguments": [
        "145984439727174"
      ],
      "transaction": {
        "from": "0xc77f7fed3b5cc8249adc428c5f44c9063b9734b4",
        "to": "0x8aafd3ede9adb0ff97c7aebce82a919afb1c8764",
        "gas": "0x15daa",
        "value": "0x0",
        "input": "0xe4849b32000000000000000000000000000000000000000000000000000084c5a6ac3446",
        "nonce": "0x136d",
        "chainId": "0xaa36a7"
      },
      "additionalContracts": [],
      "isFixedGasLimit": false
    }
  ],
  "receipts": [
    {
      "status": "0x1",
      "cumulativeGasUsed": "0xa2b479",
      "logs": [
        {
          "address": "0x8aafd3ede9adb0ff97c7aebce82a919afb1c8764",
          "topics": [
            "0xddf252ad1be2c89b69c2b068fc378daa952ba7f163c4a11628f55a4df523b3ef",
            "0x000000000000000000000000c77f7fed3b5cc8249adc428c5f44c9063b9734b4",
            "0x0000000000000000000000000000000000000000000000000000000000000000"
          ],
          "data": "0x000000000000000000000000000000000000000000000000000083b5bbde06cd",
          "blockHash": "0x1bfec077d6158723727c291d38a398982f147acb487b5adfafcc48d42289718f",
          "blockNumber": "0x731a8d",
          "transactionHash": "0xa6f92fee237ace3edc89e31d974e75792931c969c35b39cc732401fa4d2bd81c",
          "transactionIndex": "0x76",
          "logIndex": "0x9f",
          "removed": false
        },
        {
          "address": "0x8aafd3ede9adb0ff97c7aebce82a919afb1c8764",
          "topics": [
            "0xddf252ad1be2c89b69c2b068fc378daa952ba7f163c4a11628f55a4df523b3ef",
            "0x000000000000000000000000c77f7fed3b5cc8249adc428c5f44c9063b9734b4",
            "0x000000000000000000000000c77f7fed3b5cc8249adc428c5f44c9063b9734b4"
          ],
          "data": "0x0000000000000000000000000000000000000000000000000000010feace2d79",
          "blockHash": "0x1bfec077d6158723727c291d38a398982f147acb487b5adfafcc48d42289718f",
          "blockNumber": "0x731a8d",
          "transactionHash": "0xa6f92fee237ace3edc89e31d974e75792931c969c35b39cc732401fa4d2bd81c",
          "transactionIndex": "0x76",
          "logIndex": "0xa0",
          "removed": false
        },
        {
          "address": "0x8aafd3ede9adb0ff97c7aebce82a919afb1c8764",
          "topics": [
            "0x4afcb4a87cdbd9974efdb92ee48bc8d7cd0ae4bf217004db3d080cbaee652ca7"
          ],
          "data": "0x0000000000000000000000000000000000000000000000000000000067903b6c000000000000000000000000000000000000000000000000000c798b18ea0ee7000000000000000000000000000000000000000000000000000000775962319f",
          "blockHash": "0x1bfec077d6158723727c291d38a398982f147acb487b5adfafcc48d42289718f",
          "blockNumber": "0x731a8d",
          "transactionHash": "0xa6f92fee237ace3edc89e31d974e75792931c969c35b39cc732401fa4d2bd81c",
          "transactionIndex": "0x76",
          "logIndex": "0xa1",
          "removed": false
        }
      ],
      "logsBloom": "0x00000000000000000000000000000000000000000600000000000000000000000000000000000000000000000000000000000000000000004000000000000000000000000000004000000008000000000000000000000000000000000000000000000000020000000000000000000800020000000000000000000010000000000000000000000000000000000000000000000000000000000000010000000000000000000000000000000000000000004000000000000000000000000000000000000002000000800000000000000000000000000000080000000000000020000000000000000000000000000000000000000000000000000000000000000000",
      "type": "0x2",
      "transactionHash": "0xa6f92fee237ace3edc89e31d974e75792931c969c35b39cc732401fa4d2bd81c",
      "transactionIndex": "0x76",
      "blockHash": "0x1bfec077d6158723727c291d38a398982f147acb487b5adfafcc48d42289718f",
      "blockNumber": "0x731a8d",
      "gasUsed": "0xfd27",
      "effectiveGasPrice": "0x5464678b",
      "from": "0xc77f7fed3b5cc8249adc428c5f44c9063b9734b4",
      "to": "0x8aafd3ede9adb0ff97c7aebce82a919afb1c8764",
      "contractAddress": null
    }
  ],
  "libraries": [],
  "pending": [],
  "returns": {},
  "timestamp": 1737505645,
  "chain": 11155111,
  "commit": "1d2fb70"
}