{
  "transactions": [
    {
      "hash": "0x0690eb87a2bffde1dd6b322cb80d5e7b9d637a1d29aec0b28b1047f7f7084f06",
      "transactionType": "CALL",
      "contractName": null,
      "contractAddress": "0x8aafd3ede9adb0ff97c7aebce82a919afb1c8764",
      "function": "sell(uint256)",
      "arguments": [
        "1864297819976109898"
      ],
      "transaction": {
        "from": "0xc77f7fed3b5cc8249adc428c5f44c9063b9734b4",
        "to": "0x8aafd3ede9adb0ff97c7aebce82a919afb1c8764",
        "gas": "0x15dca",
        "value": "0x0",
        "input": "0xe4849b3200000000000000000000000000000000000000000000000019df50fd63360f4a",
        "nonce": "0x145e",
        "chainId": "0xaa36a7"
      },
      "additionalContracts": [],
      "isFixedGasLimit": false
    }
  ],
  "receipts": [
    {
      "status": "0x1",
      "cumulativeGasUsed": "0x911f71",
      "logs": [
        {
          "address": "0x8aafd3ede9adb0ff97c7aebce82a919afb1c8764",
          "topics": [
            "0xddf252ad1be2c89b69c2b068fc378daa952ba7f163c4a11628f55a4df523b3ef",
            "0x000000000000000000000000c77f7fed3b5cc8249adc428c5f44c9063b9734b4",
            "0x0000000000000000000000000000000000000000000000000000000000000000"
          ],
          "data": "0x00000000000000000000000000000000000000000000000019aa547018b081db",
          "blockHash": "0x92b7f898cbd1926f3e42f3089950d5d9996e639de4f0f17672369ccd734b7bf0",
          "blockNumber": "0x731ba8",
          "transactionHash": "0x0690eb87a2bffde1dd6b322cb80d5e7b9d637a1d29aec0b28b1047f7f7084f06",
          "transactionIndex": "0x67",
          "logIndex": "0x4a",
          "removed": false
        },
        {
          "address": "0x8aafd3ede9adb0ff97c7aebce82a919afb1c8764",
          "topics": [
            "0xddf252ad1be2c89b69c2b068fc378daa952ba7f163c4a11628f55a4df523b3ef",
            "0x000000000000000000000000c77f7fed3b5cc8249adc428c5f44c9063b9734b4",
            "0x000000000000000000000000c77f7fed3b5cc8249adc428c5f44c9063b9734b4"
          ],
          "data": "0x0000000000000000000000000000000000000000000000000034fc8d4a858d6f",
          "blockHash": "0x92b7f898cbd1926f3e42f3089950d5d9996e639de4f0f17672369ccd734b7bf0",
          "blockNumber": "0x731ba8",
          "transactionHash": "0x0690eb87a2bffde1dd6b322cb80d5e7b9d637a1d29aec0b28b1047f7f7084f06",
          "transactionIndex": "0x67",
          "logIndex": "0x4b",
          "removed": false
        },
        {
          "address": "0x8aafd3ede9adb0ff97c7aebce82a919afb1c8764",
          "topics": [
            "0x4afcb4a87cdbd9974efdb92ee48bc8d7cd0ae4bf217004db3d080cbaee652ca7"
          ],
          "data": "0x00000000000000000000000000000000000000000000000000000000679048bc000000000000000000000000000000000000000000000000000f3ddb68df4937000000000000000000000000000000000000000000000000001c69ecc3227e24",
          "blockHash": "0x92b7f898cbd1926f3e42f3089950d5d9996e639de4f0f17672369ccd734b7bf0",
          "blockNumber": "0x731ba8",
          "transactionHash": "0x0690eb87a2bffde1dd6b322cb80d5e7b9d637a1d29aec0b28b1047f7f7084f06",
          "transactionIndex": "0x67",
          "logIndex": "0x4c",
          "removed": false
        }
      ],
      "logsBloom": "0x00000000000000000000000000000000000000000600000000000000000000000000000000000000000000000000000000000000000000004000000000000000000000000000004000000008000000000000000000000000000000000000000000000000020000000000000000000800020000000000000000000010000000000000000000000000000000000000000000000000000000000000010000000000000000000000000000000000000000004000000000000000000000000000000000000002000000800000000000000000000000000000080000000000000020000000000000000000000000000000000000000000000000000000000000000000",
      "type": "0x2",
      "transactionHash": "0x0690eb87a2bffde1dd6b322cb80d5e7b9d637a1d29aec0b28b1047f7f7084f06",
      "transactionIndex": "0x67",
      "blockHash": "0x92b7f898cbd1926f3e42f3089950d5d9996e639de4f0f17672369ccd734b7bf0",
      "blockNumber": "0x731ba8",
      "gasUsed": "0xfd3f",
      "effectiveGasPrice": "0x1152da74b",
      "from": "0xc77f7fed3b5cc8249adc428c5f44c9063b9734b4",
      "to": "0x8aafd3ede9adb0ff97c7aebce82a919afb1c8764",
      "contractAddress": null
    }
  ],
  "libraries": [],
  "pending": [],
  "returns": {},
  "timestamp": 1737509053,
  "chain": 11155111,
  "commit": "1d2fb70"
}