{
  "transactions": [
    {
      "hash": "0x2ba99a57e20e91287218edf18580942b5b64aabc2feb2a38e7daf9a122db3755",
      "transactionType": "CALL",
      "contractName": null,
      "contractAddress": "0x8aafd3ede9adb0ff97c7aebce82a919afb1c8764",
      "function": "sell(uint256)",
      "arguments": [
        "10665182222586922"
      ],
      "transaction": {
        "from": "0xc77f7fed3b5cc8249adc428c5f44c9063b9734b4",
        "to": "0x8aafd3ede9adb0ff97c7aebce82a919afb1c8764",
        "gas": "0x1724d",
        "value": "0x0",
        "input": "0xe4849b320000000000000000000000000000000000000000000000000025e3ed3dd7942a",
        "nonce": "0x1669",
        "chainId": "0xaa36a7"
      },
      "additionalContracts": [],
      "isFixedGasLimit": false
    }
  ],
  "receipts": [
    {
      "status": "0x1",
      "cumulativeGasUsed": "0x11ad59e",
      "logs": [
        {
          "address": "0x8aafd3ede9adb0ff97c7aebce82a919afb1c8764",
          "topics": [
            "0xddf252ad1be2c89b69c2b068fc378daa952ba7f163c4a11628f55a4df523b3ef",
            "0x000000000000000000000000c77f7fed3b5cc8249adc428c5f44c9063b9734b4",
            "0x0000000000000000000000000000000000000000000000000000000000000000"
          ],
          "data": "0x00000000000000000000000000000000000000000000000000259653caa8cc53",
          "blockHash": "0xf133f7bddaedac9df2e4587ecd25dc5e481acab023168a7989d92e70bd5cd5d1",
          "blockNumber": "0x731e18",
          "transactionHash": "0x2ba99a57e20e91287218edf18580942b5b64aabc2feb2a38e7daf9a122db3755",
          "transactionIndex": "0x8d",
          "logIndex": "0xd3",
          "removed": false
        },
        {
          "address": "0x8aafd3ede9adb0ff97c7aebce82a919afb1c8764",
          "topics": [
            "0xddf252ad1be2c89b69c2b068fc378daa952ba7f163c4a11628f55a4df523b3ef",
            "0x000000000000000000000000c77f7fed3b5cc8249adc428c5f44c9063b9734b4",
            "0x000000000000000000000000c77f7fed3b5cc8249adc428c5f44c9063b9734b4"
          ],
          "data": "0x00000000000000000000000000000000000000000000000000004d99732ec7d7",
          "blockHash": "0xf133f7bddaedac9df2e4587ecd25dc5e481acab023168a7989d92e70bd5cd5d1",
          "blockNumber": "0x731e18",
          "transactionHash": "0x2ba99a57e20e91287218edf18580942b5b64aabc2feb2a38e7daf9a122db3755",
          "transactionIndex": "0x8d",
          "logIndex": "0xd4",
          "removed": false
        },
        {
          "address": "0x8aafd3ede9adb0ff97c7aebce82a919afb1c8764",
          "topics": [
            "0x4afcb4a87cdbd9974efdb92ee48bc8d7cd0ae4bf217004db3d080cbaee652ca7"
          ],
          "data": "0x00000000000000000000000000000000000000000000000000000000679066080000000000000000000000000000000000000000000000000015465f7f35e15400000000000000000000000000000000000000000000000000003a1627f56446",
          "blockHash": "0xf133f7bddaedac9df2e4587ecd25dc5e481acab023168a7989d92e70bd5cd5d1",
          "blockNumber": "0x731e18",
          "transactionHash": "0x2ba99a57e20e91287218edf18580942b5b64aabc2feb2a38e7daf9a122db3755",
          "transactionIndex": "0x8d",
          "logIndex": "0xd5",
          "removed": false
        }
      ],
      "logsBloom": "0x00000000000000000000000000000000000000000600000000000000000000000000000000000000000000000000000000000000000000004000000000000000000000000000004000000008000000000000000000000000000000000000000000000000020000000000000000000800020000000000000000000010000000000000000000000000000000000000000000000000000000000000010000000000000000000000000000000000000000004000000000000000000000000000000000000002000000800000000000000000000000000000080000000000000020000000000000000000000000000000000000000000000000000000000000000000",
      "type": "0x2",
      "transactionHash": "0x2ba99a57e20e91287218edf18580942b5b64aabc2feb2a38e7daf9a122db3755",
      "transactionIndex": "0x8d",
      "blockHash": "0xf133f7bddaedac9df2e4587ecd25dc5e481acab023168a7989d92e70bd5cd5d1",
      "blockNumber": "0x731e18",
      "gasUsed": "0xfd33",
      "effectiveGasPrice": "0x3a74a95a",
      "from": "0xc77f7fed3b5cc8249adc428c5f44c9063b9734b4",
      "to": "0x8aafd3ede9adb0ff97c7aebce82a919afb1c8764",
      "contractAddress": null
    }
  ],
  "libraries": [],
  "pending": [],
  "returns": {},
  "timestamp": 1737516553,
  "chain": 11155111,
  "commit": "1d2fb70"
}