{
  "transactions": [
    {
      "hash": "0x5c74f92d1f59a880fc1d8671ff43e74e0d5f9887468ecbe9b9cd8d43d55d4dbe",
      "transactionType": "CALL",
      "contractName": null,
      "contractAddress": "0x8aafd3ede9adb0ff97c7aebce82a919afb1c8764",
      "function": "sell(uint256)",
      "arguments": [
        "746474437390985953072"
      ],
      "transaction": {
        "from": "0xc77f7fed3b5cc8249adc428c5f44c9063b9734b4",
        "to": "0x8aafd3ede9adb0ff97c7aebce82a919afb1c8764",
        "gas": "0x17270",
        "value": "0x0",
        "input": "0xe4849b320000000000000000000000000000000000000000000000287769f1d0e7497f30",
        "nonce": "0xee2",
        "chainId": "0xaa36a7"
      },
      "additionalContracts": [],
      "isFixedGasLimit": false
    }
  ],
  "receipts": [
    {
      "status": "0x1",
      "cumulativeGasUsed": "0x1b8e275",
      "logs": [
        {
          "address": "0x8aafd3ede9adb0ff97c7aebce82a919afb1c8764",
          "topics": [
            "0xddf252ad1be2c89b69c2b068fc378daa952ba7f163c4a11628f55a4df523b3ef",
            "0x000000000000000000000000c77f7fed3b5cc8249adc428c5f44c9063b9734b4",
            "0x0000000000000000000000000000000000000000000000000000000000000000"
          ],
          "data": "0x0000000000000000000000000000000000000000000000282489dd73127e2828",
          "blockHash": "0x0604614eae1a64a5605e14e36a00110e9b344a3d41bca494f55ab82b2c826cd3",
          "blockNumber": "0x731459",
          "transactionHash": "0x5c74f92d1f59a880fc1d8671ff43e74e0d5f9887468ecbe9b9cd8d43d55d4dbe",
          "transactionIndex": "0x95",
          "logIndex": "0xee",
          "removed": false
        },
        {
          "address": "0x8aafd3ede9adb0ff97c7aebce82a919afb1c8764",
          "topics": [
            "0xddf252ad1be2c89b69c2b068fc378daa952ba7f163c4a11628f55a4df523b3ef",
            "0x000000000000000000000000c77f7fed3b5cc8249adc428c5f44c9063b9734b4",
            "0x000000000000000000000000c77f7fed3b5cc8249adc428c5f44c9063b9734b4"
          ],
          "data": "0x00000000000000000000000000000000000000000000000052e0145dd4cb5708",
          "blockHash": "0x0604614eae1a64a5605e14e36a00110e9b344a3d41bca494f55ab82b2c826cd3",
          "blockNumber": "0x731459",
          "transactionHash": "0x5c74f92d1f59a880fc1d8671ff43e74e0d5f9887468ecbe9b9cd8d43d55d4dbe",
          "transactionIndex": "0x95",
          "logIndex": "0xef",
          "removed": false
        },
        {
          "address": "0x8aafd3ede9adb0ff97c7aebce82a919afb1c8764",
          "topics": [
            "0x4afcb4a87cdbd9974efdb92ee48bc8d7cd0ae4bf217004db3d080cbaee652ca7"
          ],
          "data": "0x00000000000000000000000000000000000000000000000000000000678ff0d80000000000000000000000000000000000000000000000000004ba46752b6a520000000000000000000000000000000000000000000000000dc8347b6ead01b6",
          "blockHash": "0x0604614eae1a64a5605e14e36a00110e9b344a3d41bca494f55ab82b2c826cd3",
          "blockNumber": "0x731459",
          "transactionHash": "0x5c74f92d1f59a880fc1d8671ff43e74e0d5f9887468ecbe9b9cd8d43d55d4dbe",
          "transactionIndex": "0x95",
          "logIndex": "0xf0",
          "removed": false
        }
      ],
      "logsBloom": "0x00000000000000000000000000000000000000000600000000000000000000000000000000000000000000000000000000000000000000004000000000000000000000000000004000000008000000000000000000000000000000000000000000000000020000000000000000000800020000000000000000000010000000000000000000000000000000000000000000000000000000000000010000000000000000000000000000000000000000004000000000000000000000000000000000000002000000800000000000000000000000000000080000000000000020000000000000000000000000000000000000000000000000000000000000000000",
      "type": "0x2",
      "transactionHash": "0x5c74f92d1f59a880fc1d8671ff43e74e0d5f9887468ecbe9b9cd8d43d55d4dbe",
      "transactionIndex": "0x95",
      "blockHash": "0x0604614eae1a64a5605e14e36a00110e9b344a3d41bca494f55ab82b2c826cd3",
      "blockNumber": "0x731459",
      "gasUsed": "0xfd4b",
      "effectiveGasPrice": "0xb555461c",
      "from": "0xc77f7fed3b5cc8249adc428c5f44c9063b9734b4",
      "to": "0x8aafd3ede9adb0ff97c7aebce82a919afb1c8764",
      "contractAddress": null
    }
  ],
  "libraries": [],
  "pending": [],
  "returns": {},
  "timestamp": 1737486553,
  "chain": 11155111,
  "commit": "51a374b"
}