{
  "transactions": [
    {
      "hash": "0x632cd9c5461db8723d6137c9e16d936dcc9a7192541278c776a651f8733c3768",
      "transactionType": "CALL",
      "contractName": null,
      "contractAddress": "0x270e88f8683660553e8ba4eb2ad7c91a1710d769",
      "function": "sell(uint256)",
      "arguments": [
        "721066458454969293402"
      ],
      "transaction": {
        "from": "0xc77f7fed3b5cc8249adc428c5f44c9063b9734b4",
        "to": "0x270e88f8683660553e8ba4eb2ad7c91a1710d769",
        "gas": "0x16fec",
        "value": "0x0",
        "input": "0xe4849b3200000000000000000000000000000000000000000000002716ceab9749681a5a",
        "nonce": "0x816",
        "chainId": "0xaa36a7"
      },
      "additionalContracts": [],
      "isFixedGasLimit": false
    }
  ],
  "receipts": [
    {
      "status": "0x1",
      "cumulativeGasUsed": "0x55e763",
      "logs": [
        {
          "address": "0x270e88f8683660553e8ba4eb2ad7c91a1710d769",
          "topics": [
            "0xddf252ad1be2c89b69c2b068fc378daa952ba7f163c4a11628f55a4df523b3ef",
            "0x000000000000000000000000c77f7fed3b5cc8249adc428c5f44c9063b9734b4",
            "0x0000000000000000000000000000000000000000000000000000000000000000"
          ],
          "data": "0x00000000000000000000000000000000000000000000002716ceab9749681a5a",
          "blockHash": "0x4f70e3f4e563c0aaa32203f200a31a9965b09487717bf52d0085a0e49c7b0763",
          "blockNumber": "0x725559",
          "transactionHash": "0x632cd9c5461db8723d6137c9e16d936dcc9a7192541278c776a651f8733c3768",
          "transactionIndex": "0x3a",
          "logIndex": "0x51",
          "removed": false
        },
        {
          "address": "0x270e88f8683660553e8ba4eb2ad7c91a1710d769",
          "topics": [
            "0x4afcb4a87cdbd9974efdb92ee48bc8d7cd0ae4bf217004db3d080cbaee652ca7"
          ],
          "data": "0x000000000000000000000000000000000000000000000000000000006786f2340000000000000000000000000000000000000000000000000004e4c94eac910b0000000000000000000000000000000000000000000000000dc8268a2f81a344",
          "blockHash": "0x4f70e3f4e563c0aaa32203f200a31a9965b09487717bf52d0085a0e49c7b0763",
          "blockNumber": "0x725559",
          "transactionHash": "0x632cd9c5461db8723d6137c9e16d936dcc9a7192541278c776a651f8733c3768",
          "transactionIndex": "0x3a",
          "logIndex": "0x52",
          "removed": false
        }
      ],
      "logsBloom": "0x00000000000000000000000000000000000000000000000000000000000000000000000000000000000000000000000020000000000000004000000000000000000000000000000000000008000000000000000000000000000000000000000000000000020000000000000000000800020000000000000000000010000000000000000000010000000000000000000000000000000000000000010000000000000000000000000000000000000000004000000000000000000000000000000000000002000000800000000000000000000000000000080000008000000020000000000000000000000000000000000000000000000000000000000000000000",
      "type": "0x2",
      "transactionHash": "0x632cd9c5461db8723d6137c9e16d936dcc9a7192541278c776a651f8733c3768",
      "transactionIndex": "0x3a",
      "blockHash": "0x4f70e3f4e563c0aaa32203f200a31a9965b09487717bf52d0085a0e49c7b0763",
      "blockNumber": "0x725559",
      "gasUsed": "0xfb93",
      "effectiveGasPrice": "0x977b0738",
      "from": "0xc77f7fed3b5cc8249adc428c5f44c9063b9734b4",
      "to": "0x270e88f8683660553e8ba4eb2ad7c91a1710d769",
      "contractAddress": null
    }
  ],
  "libraries": [],
  "pending": [],
  "returns": {},
  "timestamp": 1736897078,
  "chain": 11155111,
  "commit": "51a374b"
}