{
  "transactions": [
    {
      "hash": "0x7afd370e6dda222d7e14c2ee7cd4c1136d79e0ac969f3cb483a4ad46ffd7880e",
      "transactionType": "CALL",
      "contractName": null,
      "contractAddress": "0x8aafd3ede9adb0ff97c7aebce82a919afb1c8764",
      "function": "sell(uint256)",
      "arguments": [
        "689628268003287572565"
      ],
      "transaction": {
        "from": "0xc77f7fed3b5cc8249adc428c5f44c9063b9734b4",
        "to": "0x8aafd3ede9adb0ff97c7aebce82a919afb1c8764",
        "gas": "0x17270",
        "value": "0x0",
        "input": "0xe4849b320000000000000000000000000000000000000000000000256283c7f11bd72055",
        "nonce": "0x1181",
        "chainId": "0xaa36a7"
      },
      "additionalContracts": [],
      "isFixedGasLimit": false
    }
  ],
  "receipts": [
    {
      "status": "0x1",
      "cumulativeGasUsed": "0xafecca",
      "logs": [
        {
          "address": "0x8aafd3ede9adb0ff97c7aebce82a919afb1c8764",
          "topics": [
            "0xddf252ad1be2c89b69c2b068fc378daa952ba7f163c4a11628f55a4df523b3ef",
            "0x000000000000000000000000c77f7fed3b5cc8249adc428c5f44c9063b9734b4",
            "0x0000000000000000000000000000000000000000000000000000000000000000"
          ],
          "data": "0x00000000000000000000000000000000000000000000002515f35de4f09c0fb1",
          "blockHash": "0x9dec137bc13dd4e1ca264b41c9e441229af7216c456ff9052032081eb8ba6bb9",
          "blockNumber": "0x731843",
          "transactionHash": "0x7afd370e6dda222d7e14c2ee7cd4c1136d79e0ac969f3cb483a4ad46ffd7880e",
          "transactionIndex": "0x7a",
          "logIndex": "0xa0",
          "removed": false
        },
        {
          "address": "0x8aafd3ede9adb0ff97c7aebce82a919afb1c8764",
          "topics": [
            "0xddf252ad1be2c89b69c2b068fc378daa952ba7f163c4a11628f55a4df523b3ef",
            "0x000000000000000000000000c77f7fed3b5cc8249adc428c5f44c9063b9734b4",
            "0x000000000000000000000000c77f7fed3b5cc8249adc428c5f44c9063b9734b4"
          ],
          "data": "0x0000000000000000000000000000000000000000000000004c906a0c2b3b10a4",
          "blockHash": "0x9dec137bc13dd4e1ca264b41c9e441229af7216c456ff9052032081eb8ba6bb9",
          "blockNumber": "0x731843",
          "transactionHash": "0x7afd370e6dda222d7e14c2ee7cd4c1136d79e0ac969f3cb483a4ad46ffd7880e",
          "transactionIndex": "0x7a",
          "logIndex": "0xa1",
          "removed": false
        },
        {
          "address": "0x8aafd3ede9adb0ff97c7aebce82a919afb1c8764",
          "topics": [
            "0x4afcb4a87cdbd9974efdb92ee48bc8d7cd0ae4bf217004db3d080cbaee652ca7"
          ],
          "data": "0x0000000000000000000000000000000000000000000000000000000067901fe800000000000000000000000000000000000000000000000000051f09128862650000000000000000000000000000000000000000000000000dc8f597b0dc48b1",
          "blockHash": "0x9dec137bc13dd4e1ca264b41c9e441229af7216c456ff9052032081eb8ba6bb9",
          "blockNumber": "0x731843",
          "transactionHash": "0x7afd370e6dda222d7e14c2ee7cd4c1136d79e0ac969f3cb483a4ad46ffd7880e",
          "transactionIndex": "0x7a",
          "logIndex": "0xa2",
          "removed": false
        }
      ],
      "logsBloom": "0x00000000000000000000000000000000000000000600000000000000000000000000000000000000000000000000000000000000000000004000000000000000000000000000004000000008000000000000000000000000000000000000000000000000020000000000000000000800020000000000000000000010000000000000000000000000000000000000000000000000000000000000010000000000000000000000000000000000000000004000000000000000000000000000000000000002000000800000000000000000000000000000080000000000000020000000000000000000000000000000000000000000000000000000000000000000",
      "type": "0x2",
      "transactionHash": "0x7afd370e6dda222d7e14c2ee7cd4c1136d79e0ac969f3cb483a4ad46ffd7880e",
      "transactionIndex": "0x7a",
      "blockHash": "0x9dec137bc13dd4e1ca264b41c9e441229af7216c456ff9052032081eb8ba6bb9",
      "blockNumber": "0x731843",
      "gasUsed": "0xfd4b",
      "effectiveGasPrice": "0x47cfa676",
      "from": "0xc77f7fed3b5cc8249adc428c5f44c9063b9734b4",
      "to": "0x8aafd3ede9adb0ff97c7aebce82a919afb1c8764",
      "contractAddress": null
    }
  ],
  "libraries": [],
  "pending": [],
  "returns": {},
  "timestamp": 1737498601,
  "chain": 11155111,
  "commit": "1d2fb70"
}