{
  "transactions": [
    {
      "hash": "0x49ff309344bb1721d1cc02faa89a71842be24e60fde183aa483e4d7e574b1e4d",
      "transactionType": "CALL",
      "contractName": null,
      "contractAddress": "0x8aafd3ede9adb0ff97c7aebce82a919afb1c8764",
      "function": "sell(uint256)",
      "arguments": [
        "666075120013"
      ],
      "transaction": {
        "from": "0xc77f7fed3b5cc8249adc428c5f44c9063b9734b4",
        "to": "0x8aafd3ede9adb0ff97c7aebce82a919afb1c8764",
        "gas": "0x1722a",
        "value": "0x0",
        "input": "0xe4849b320000000000000000000000000000000000000000000000000000009b152bc18d",
        "nonce": "0x1698",
        "chainId": "0xaa36a7"
      },
      "additionalContracts": [],
      "isFixedGasLimit": false
    }
  ],
  "receipts": [
    {
      "status": "0x1",
      "cumulativeGasUsed": "0xe035fe",
      "logs": [
        {
          "address": "0x8aafd3ede9adb0ff97c7aebce82a919afb1c8764",
          "topics": [
            "0xddf252ad1be2c89b69c2b068fc378daa952ba7f163c4a11628f55a4df523b3ef",
            "0x000000000000000000000000c77f7fed3b5cc8249adc428c5f44c9063b9734b4",
            "0x0000000000000000000000000000000000000000000000000000000000000000"
          ],
          "data": "0x00000000000000000000000000000000000000000000000000000099d78fc20d",
          "blockHash": "0x1a61731a1bd9d6faff71ce9fd34030100af94e7e562d21fe987e0ecaef99b0f0",
          "blockNumber": "0x731e4e",
          "transactionHash": "0x49ff309344bb1721d1cc02faa89a71842be24e60fde183aa483e4d7e574b1e4d",
          "transactionIndex": "0x7a",
          "logIndex": "0x10d",
          "removed": false
        },
        {
          "address": "0x8aafd3ede9adb0ff97c7aebce82a919afb1c8764",
          "topics": [
            "0xddf252ad1be2c89b69c2b068fc378daa952ba7f163c4a11628f55a4df523b3ef",
            "0x000000000000000000000000c77f7fed3b5cc8249adc428c5f44c9063b9734b4",
            "0x000000000000000000000000c77f7fed3b5cc8249adc428c5f44c9063b9734b4"
          ],
          "data": "0x000000000000000000000000000000000000000000000000000000013d9bff80",
          "blockHash": "0x1a61731a1bd9d6faff71ce9fd34030100af94e7e562d21fe987e0ecaef99b0f0",
          "blockNumber": "0x731e4e",
          "transactionHash": "0x49ff309344bb1721d1cc02faa89a71842be24e60fde183aa483e4d7e574b1e4d",
          "transactionIndex": "0x7a",
          "logIndex": "0x10e",
          "removed": false
        },
        {
          "address": "0x8aafd3ede9adb0ff97c7aebce82a919afb1c8764",
          "topics": [
            "0x4afcb4a87cdbd9974efdb92ee48bc8d7cd0ae4bf217004db3d080cbaee652ca7"
          ],
          "data": "0x00000000000000000000000000000000000000000000000000000000679068900000000000000000000000000000000000000000000000000015cca090b9dacd00000000000000000000000000000000000000000000000000000000f39adfae",
          "blockHash": "0x1a61731a1bd9d6faff71ce9fd34030100af94e7e562d21fe987e0ecaef99b0f0",
          "blockNumber": "0x731e4e",
          "transactionHash": "0x49ff309344bb1721d1cc02faa89a71842be24e60fde183aa483e4d7e574b1e4d",
          "transactionIndex": "0x7a",
          "logIndex": "0x10f",
          "removed": false
        }
      ],
      "logsBloom": "0x00000000000000000000000000000000000000000600000000000000000000000000000000000000000000000000000000000000000000004000000000000000000000000000004000000008000000000000000000000000000000000000000000000000020000000000000000000800020000000000000000000010000000000000000000000000000000000000000000000000000000000000010000000000000000000000000000000000000000004000000000000000000000000000000000000002000000800000000000000000000000000000080000000000000020000000000000000000000000000000000000000000000000000000000000000000",
      "type": "0x2",
      "transactionHash": "0x49ff309344bb1721d1cc02faa89a71842be24e60fde183aa483e4d7e574b1e4d",
      "transactionIndex": "0x7a",
      "blockHash": "0x1a61731a1bd9d6faff71ce9fd34030100af94e7e562d21fe987e0ecaef99b0f0",
      "blockNumber": "0x731e4e",
      "gasUsed": "0xfd1b",
      "effectiveGasPrice": "0x5ab9c2f0",
      "from": "0xc77f7fed3b5cc8249adc428c5f44c9063b9734b4",
      "to": "0x8aafd3ede9adb0ff97c7aebce82a919afb1c8764",
      "contractAddress": null
    }
  ],
  "libraries": [],
  "pending": [],
  "returns": {},
  "timestamp": 1737517201,
  "chain": 11155111,
  "commit": "1d2fb70"
}