{
  "transactions": [
    {
      "hash": "0xcd36bee14ccc19b42d0ca53c1e90510eefa10d3fe16616fd18e91ff903672c5f",
      "transactionType": "CALL",
      "contractName": null,
      "contractAddress": "0xd7bc75898e513accccf720a874d44dab5a4b6223",
      "function": "buy(address)",
      "arguments": [
        "0xC77f7fed3b5Cc8249aDc428c5F44C9063B9734b4"
      ],
      "transaction": {
        "from": "0xc77f7fed3b5cc8249adc428c5f44c9063b9734b4",
        "to": "0xd7bc75898e513accccf720a874d44dab5a4b6223",
        "gas": "0x1b30c",
        "value": "0x2386f26fc10000",
        "input": "0xf088d547000000000000000000000000c77f7fed3b5cc8249adc428c5f44c9063b9734b4",
        "nonce": "0xf6",
        "chainId": "0xaa36a7"
      },
      "additionalContracts": [],
      "isFixedGasLimit": false
    }
  ],
  "receipts": [
    {
      "status": "0x1",
      "cumulativeGasUsed": "0x2043c7d",
      "logs": [
        {
          "address": "0xd7bc75898e513accccf720a874d44dab5a4b6223",
          "topics": [
            "0xddf252ad1be2c89b69c2b068fc378daa952ba7f163c4a11628f55a4df523b3ef",
            "0x0000000000000000000000000000000000000000000000000000000000000000",
            "0x000000000000000000000000c77f7fed3b5cc8249adc428c5f44c9063b9734b4"
          ],
          "data": "0x0000000000000000000000000000000000000000000000008963ba9a16150821",
          "blockHash": "0x5e4c34e4a7aa3e0236049937dfff1e024fed95e5e695722ad3412a5538ac8169",
          "blockNumber": "0x723985",
          "transactionHash": "0xcd36bee14ccc19b42d0ca53c1e90510eefa10d3fe16616fd18e91ff903672c5f",
          "transactionIndex": "0x20",
          "logIndex": "0x328",
          "removed": false
        },
        {
          "address": "0xd7bc75898e513accccf720a874d44dab5a4b6223",
          "topics": [
            "0xddf252ad1be2c89b69c2b068fc378daa952ba7f163c4a11628f55a4df523b3ef",
            "0x0000000000000000000000000000000000000000000000000000000000000000",
            "0x000000000000000000000000c77f7fed3b5cc8249adc428c5f44c9063b9734b4"
          ],
          "data": "0x000000000000000000000000000000000000000000000000006ab00c1597ae9c",
          "blockHash": "0x5e4c34e4a7aa3e0236049937dfff1e024fed95e5e695722ad3412a5538ac8169",
          "blockNumber": "0x723985",
          "transactionHash": "0xcd36bee14ccc19b42d0ca53c1e90510eefa10d3fe16616fd18e91ff903672c5f",
          "transactionIndex": "0x20",
          "logIndex": "0x329",
          "removed": false
        },
        {
          "address": "0xd7bc75898e513accccf720a874d44dab5a4b6223",
          "topics": [
            "0x4afcb4a87cdbd9974efdb92ee48bc8d7cd0ae4bf217004db3d080cbaee652ca7"
          ],
          "data": "0x000000000000000000000000000000000000000000000000000000006785a39000000000000000000000000000000000000000000000000000038d7f8c2dce94000000000000000000000000000000000000000000000000002386f26fc10000",
          "blockHash": "0x5e4c34e4a7aa3e0236049937dfff1e024fed95e5e695722ad3412a5538ac8169",
          "blockNumber": "0x723985",
          "transactionHash": "0xcd36bee14ccc19b42d0ca53c1e90510eefa10d3fe16616fd18e91ff903672c5f",
          "transactionIndex": "0x20",
          "logIndex": "0x32a",
          "removed": false
        }
      ],
      "logsBloom": "0x00000000000000000000000000000000000000000000000000000000000000000000000000000000000000000000000000000000000000004000000000000000000000000000000000000008000000000000000000000000000000000000000000000000020000000000000000000800020000000000000000000010000000000000000000000000000000000000000000000000000000000000010000000000000000000000000000000000000000004000001000000000000000000000000000000002000000800000000000004000000000000000080000000000000020000000000000000000000000000000000000000000080000000000000000000000",
      "type": "0x2",
      "transactionHash": "0xcd36bee14ccc19b42d0ca53c1e90510eefa10d3fe16616fd18e91ff903672c5f",
      "transactionIndex": "0x20",
      "blockHash": "0x5e4c34e4a7aa3e0236049937dfff1e024fed95e5e695722ad3412a5538ac8169",
      "blockNumber": "0x723985",
      "gasUsed": "0x13af8",
      "effectiveGasPrice": "0xeb67e35c",
      "from": "0xc77f7fed3b5cc8249adc428c5f44c9063b9734b4",
      "to": "0xd7bc75898e513accccf720a874d44dab5a4b6223",
      "contractAddress": null
    }
  ],
  "libraries": [],
  "pending": [],
  "returns": {},
  "timestamp": 1736811409,
  "chain": 11155111,
  "commit": "51a374b"
}