{
  "transactions": [
    {
      "hash": "0x307555b003d69ed1c0692f1e4ab86cb844364435167d40d287021d18c31451ae",
      "transactionType": "CALL",
      "contractName": null,
      "contractAddress": "0xbf4a322f1496e5c3d34a9bcdb4c60567b38c7de2",
      "function": "sell(uint256)",
      "arguments": [
        "988791257573096026023"
      ],
      "transaction": {
        "from": "0xc77f7fed3b5cc8249adc428c5f44c9063b9734b4",
        "to": "0xbf4a322f1496e5c3d34a9bcdb4c60567b38c7de2",
        "gas": "0x16fea",
        "value": "0x0",
        "input": "0xe4849b320000000000000000000000000000000000000000000000359a3c39ec1029efa7",
        "nonce": "0x98f",
        "chainId": "0xaa36a7"
      },
      "additionalContracts": [],
      "isFixedGasLimit": false
    }
  ],
  "receipts": [
    {
      "status": "0x1",
      "cumulativeGasUsed": "0x10c6ed2",
      "logs": [
        {
          "address": "0xbf4a322f1496e5c3d34a9bcdb4c60567b38c7de2",
          "topics": [
            "0xddf252ad1be2c89b69c2b068fc378daa952ba7f163c4a11628f55a4df523b3ef",
            "0x000000000000000000000000c77f7fed3b5cc8249adc428c5f44c9063b9734b4",
            "0x0000000000000000000000000000000000000000000000000000000000000000"
          ],
          "data": "0x0000000000000000000000000000000000000000000000359a3c39ec1029efa7",
          "blockHash": "0xc41e3292fe86d786449000c2f33084b36c2d8fd86aa5ff33df4abbff67403c3f",
          "blockNumber": "0x725934",
          "transactionHash": "0x307555b003d69ed1c0692f1e4ab86cb844364435167d40d287021d18c31451ae",
          "transactionIndex": "0x89",
          "logIndex": "0xb0",
          "removed": false
        },
        {
          "address": "0xbf4a322f1496e5c3d34a9bcdb4c60567b38c7de2",
          "topics": [
            "0x4afcb4a87cdbd9974efdb92ee48bc8d7cd0ae4bf217004db3d080cbaee652ca7"
          ],
          "data": "0x000000000000000000000000000000000000000000000000000000006787209c00000000000000000000000000000000000000000000000000039164d8ffa05d0000000000000000000000000000000000000000000000000dc7e3f6818a48d4",
          "blockHash": "0xc41e3292fe86d786449000c2f33084b36c2d8fd86aa5ff33df4abbff67403c3f",
          "blockNumber": "0x725934",
          "transactionHash": "0x307555b003d69ed1c0692f1e4ab86cb844364435167d40d287021d18c31451ae",
          "transactionIndex": "0x89",
          "logIndex": "0xb1",
          "removed": false
        }
      ],
      "logsBloom": "0x00000000000000000000000000000000000000000000000000000000000000000000000000000000000000000000000000000000000000004000000000000000000000000000000000000008000000000000001000000000000000000000000000000000020000000000000000000800020000000000000000000010000000000000000000000000000000000000000000000000000008000000010000000000000000000000000000000000000000004000000000000000000000000000000000000002000000800000000000001000000000000000080000000000000020000000000000000000000000000000000000000000000000000000000000000000",
      "type": "0x2",
      "transactionHash": "0x307555b003d69ed1c0692f1e4ab86cb844364435167d40d287021d18c31451ae",
      "transactionIndex": "0x89",
      "blockHash": "0xc41e3292fe86d786449000c2f33084b36c2d8fd86aa5ff33df4abbff67403c3f",
      "blockNumber": "0x725934",
      "gasUsed": "0xfb91",
      "effectiveGasPrice": "0x1b2721ada",
      "from": "0xc77f7fed3b5cc8249adc428c5f44c9063b9734b4",
      "to": "0xbf4a322f1496e5c3d34a9bcdb4c60567b38c7de2",
      "contractAddress": null
    }
  ],
  "libraries": [],
  "pending": [],
  "returns": {},
  "timestamp": 1736908957,
  "chain": 11155111,
  "commit": "51a374b"
}