{
  "transactions": [
    {
      "hash": "0x3dc9dd07766a55c0c220b996e7b0d5e377e6f452470f62f8a3710272ba421a91",
      "transactionType": "CALL",
      "contractName": null,
      "contractAddress": "0x8aafd3ede9adb0ff97c7aebce82a919afb1c8764",
      "function": "sell(uint256)",
      "arguments": [
        "1410266"
      ],
      "transaction": {
        "from": "0xc77f7fed3b5cc8249adc428c5f44c9063b9734b4",
        "to": "0x8aafd3ede9adb0ff97c7aebce82a919afb1c8764",
        "gas": "0x16208",
        "value": "0x0",
        "input": "0xe4849b3200000000000000000000000000000000000000000000000000000000001584da",
        "nonce": "0x126e",
        "chainId": "0xaa36a7"
      },
      "additionalContracts": [],
      "isFixedGasLimit": false
    }
  ],
  "receipts": [
    {
      "status": "0x1",
      "cumulativeGasUsed": "0xbcf1d0",
      "logs": [
        {
          "address": "0x8aafd3ede9adb0ff97c7aebce82a919afb1c8764",
          "topics": [
            "0xddf252ad1be2c89b69c2b068fc378daa952ba7f163c4a11628f55a4df523b3ef",
            "0x000000000000000000000000c77f7fed3b5cc8249adc428c5f44c9063b9734b4",
            "0x0000000000000000000000000000000000000000000000000000000000000000"
          ],
          "data": "0x00000000000000000000000000000000000000000000000000000000001558c8",
          "blockHash": "0xf783405c892c9a4f8dd9c56e821d18c744d5ec06a5d802a8efb57ed09d64b1f3",
          "blockNumber": "0x731956",
          "transactionHash": "0x3dc9dd07766a55c0c220b996e7b0d5e377e6f452470f62f8a3710272ba421a91",
          "transactionIndex": "0x7a",
          "logIndex": "0x82",
          "removed": false
        },
        {
          "address": "0x8aafd3ede9adb0ff97c7aebce82a919afb1c8764",
          "topics": [
            "0xddf252ad1be2c89b69c2b068fc378daa952ba7f163c4a11628f55a4df523b3ef",
            "0x000000000000000000000000c77f7fed3b5cc8249adc428c5f44c9063b9734b4",
            "0x000000000000000000000000c77f7fed3b5cc8249adc428c5f44c9063b9734b4"
          ],
          "data": "0x0000000000000000000000000000000000000000000000000000000000002c12",
          "blockHash": "0xf783405c892c9a4f8dd9c56e821d18c744d5ec06a5d802a8efb57ed09d64b1f3",
          "blockNumber": "0x731956",
          "transactionHash": "0x3dc9dd07766a55c0c220b996e7b0d5e377e6f452470f62f8a3710272ba421a91",
          "transactionIndex": "0x7a",
          "logIndex": "0x83",
          "removed": false
        },
        {
          "address": "0x8aafd3ede9adb0ff97c7aebce82a919afb1c8764",
          "topics": [
            "0x4afcb4a87cdbd9974efdb92ee48bc8d7cd0ae4bf217004db3d080cbaee652ca7"
          ],
          "data": "0x0000000000000000000000000000000000000000000000000000000067902cd800000000000000000000000000000000000000000000000000054076affbdcec0000000000000000000000000000000000000000000000000000000000000824",
          "blockHash": "0xf783405c892c9a4f8dd9c56e821d18c744d5ec06a5d802a8efb57ed09d64b1f3",
          "blockNumber": "0x731956",
          "transactionHash": "0x3dc9dd07766a55c0c220b996e7b0d5e377e6f452470f62f8a3710272ba421a91",
          "transactionIndex": "0x7a",
          "logIndex": "0x84",
          "removed": false
        }
      ],
      "logsBloom": "0x00000000000000000000000000000000000000000600000000000000000000000000000000000000000000000000000000000000000000004000000000000000000000000000004000000008000000000000000000000000000000000000000000000000020000000000000000000800020000000000000000000010000000000000000000000000000000000000000000000000000000000000010000000000000000000000000000000000000000004000000000000000000000000000000000000002000000800000000000000000000000000000080000000000000020000000000000000000000000000000000000000000000000000000000000000000",
      "type": "0x2",
      "transactionHash": "0x3dc9dd07766a55c0c220b996e7b0d5e377e6f452470f62f8a3710272ba421a91",
      "transactionIndex": "0x7a",
      "blockHash": "0xf783405c892c9a4f8dd9c56e821d18c744d5ec06a5d802a8efb57ed09d64b1f3",
      "blockNumber": "0x731956",
      "gasUsed": "0xf213",
      "effectiveGasPrice": "0x46fe16ea",
      "from": "0xc77f7fed3b5cc8249adc428c5f44c9063b9734b4",
      "to": "0x8aafd3ede9adb0ff97c7aebce82a919afb1c8764",
      "contractAddress": null
    }
  ],
  "libraries": [],
  "pending": [],
  "returns": {},
  "timestamp": 1737501914,
  "chain": 11155111,
  "commit": "1d2fb70"
}