{
  "transactions": [
    {
      "hash": "0x598bd6b6c9c9263043a4066de1cbb83cc19e89e030d8fa0a29d66bff6b8c6ae5",
      "transactionType": "CALL",
      "contractName": null,
      "contractAddress": "0x5eb9cc76c3506942c1c0ead70e877dd5e4f00cb0",
      "function": "sell(uint256)",
      "arguments": [
        "989147169915618559936"
      ],
      "transaction": {
        "from": "0xc77f7fed3b5cc8249adc428c5f44c9063b9734b4",
        "to": "0x5eb9cc76c3506942c1c0ead70e877dd5e4f00cb0",
        "gas": "0x16fec",
        "value": "0x0",
        "input": "0xe4849b320000000000000000000000000000000000000000000000359f2cae4fdb6587c0",
        "nonce": "0x2d9",
        "chainId": "0xaa36a7"
      },
      "additionalContracts": [],
      "isFixedGasLimit": false
    }
  ],
  "receipts": [
    {
      "status": "0x1",
      "cumulativeGasUsed": "0xe4e983",
      "logs": [
        {
          "address": "0x5eb9cc76c3506942c1c0ead70e877dd5e4f00cb0",
          "topics": [
            "0xddf252ad1be2c89b69c2b068fc378daa952ba7f163c4a11628f55a4df523b3ef",
            "0x000000000000000000000000c77f7fed3b5cc8249adc428c5f44c9063b9734b4",
            "0x0000000000000000000000000000000000000000000000000000000000000000"
          ],
          "data": "0x0000000000000000000000000000000000000000000000359f2cae4fdb6587c0",
          "blockHash": "0x4d48b8cbf20458839de7aa9a58cccc7e7c566ab68bbfedb7dfbdf98de284820e",
          "blockNumber": "0x724eb6",
          "transactionHash": "0x598bd6b6c9c9263043a4066de1cbb83cc19e89e030d8fa0a29d66bff6b8c6ae5",
          "transactionIndex": "0x4b",
          "logIndex": "0xc4",
          "removed": false
        },
        {
          "address": "0x5eb9cc76c3506942c1c0ead70e877dd5e4f00cb0",
          "topics": [
            "0x4afcb4a87cdbd9974efdb92ee48bc8d7cd0ae4bf217004db3d080cbaee652ca7"
          ],
          "data": "0x000000000000000000000000000000000000000000000000000000006786a23c0000000000000000000000000000000000000000000000000003910a533e30fa0000000000000000000000000000000000000000000000000dc7db13323b6189",
          "blockHash": "0x4d48b8cbf20458839de7aa9a58cccc7e7c566ab68bbfedb7dfbdf98de284820e",
          "blockNumber": "0x724eb6",
          "transactionHash": "0x598bd6b6c9c9263043a4066de1cbb83cc19e89e030d8fa0a29d66bff6b8c6ae5",
          "transactionIndex": "0x4b",
          "logIndex": "0xc5",
          "removed": false
        }
      ],
      "logsBloom": "0x00000000000000000000000000000000000000000000000000000000000000000000000000000000000000000000000000000000000000004000000000000000000000000000000000000008000000000000000000000000000000000000000000000000020000000000000004000800020000000000000000000010000000000000000000000000000000000000000000000000000000000000010000000000000000000000000000000000000000004000000000000000000000000000020000000002000000800000008000000000000000000000080000000000000020000000000000000000000000000000000000000000000000000000000000000000",
      "type": "0x2",
      "transactionHash": "0x598bd6b6c9c9263043a4066de1cbb83cc19e89e030d8fa0a29d66bff6b8c6ae5",
      "transactionIndex": "0x4b",
      "blockHash": "0x4d48b8cbf20458839de7aa9a58cccc7e7c566ab68bbfedb7dfbdf98de284820e",
      "blockNumber": "0x724eb6",
      "gasUsed": "0xfb93",
      "effectiveGasPrice": "0x4a64269bc",
      "from": "0xc77f7fed3b5cc8249adc428c5f44c9063b9734b4",
      "to": "0x5eb9cc76c3506942c1c0ead70e877dd5e4f00cb0",
      "contractAddress": null
    }
  ],
  "libraries": [],
  "pending": [],
  "returns": {},
  "timestamp": 1736876606,
  "chain": 11155111,
  "commit": "51a374b"
}