{
  "transactions": [
    {
      "hash": "0x0bf0a6dfb6ca9ad8db5f2f9ab72e27d2ea660e5feaaff84f7d5043b51a13c479",
      "transactionType": "CALL",
      "contractName": null,
      "contractAddress": "0xbf4a322f1496e5c3d34a9bcdb4c60567b38c7de2",
      "function": "sell(uint256)",
      "arguments": [
        "980308188417645207927"
      ],
      "transaction": {
        "from": "0xc77f7fed3b5cc8249adc428c5f44c9063b9734b4",
        "to": "0xbf4a322f1496e5c3d34a9bcdb4c60567b38c7de2",
        "gas": "0x16fea",
        "value": "0x0",
        "input": "0xe4849b3200000000000000000000000000000000000000000000003524824f787071e177",
        "nonce": "0xc01",
        "chainId": "0xaa36a7"
      },
      "additionalContracts": [],
      "isFixedGasLimit": false
    }
  ],
  "receipts": [
    {
      "status": "0x1",
      "cumulativeGasUsed": "0xbcec04",
      "logs": [
        {
          "address": "0xbf4a322f1496e5c3d34a9bcdb4c60567b38c7de2",
          "topics": [
            "0xddf252ad1be2c89b69c2b068fc378daa952ba7f163c4a11628f55a4df523b3ef",
            "0x000000000000000000000000c77f7fed3b5cc8249adc428c5f44c9063b9734b4",
            "0x0000000000000000000000000000000000000000000000000000000000000000"
          ],
          "data": "0x00000000000000000000000000000000000000000000003524824f787071e177",
          "blockHash": "0xe9e4ac88b7a4044b4ac7cbe60b4e62484a51cab289751b7f38f8167f9f7f976d",
          "blockNumber": "0x725c2b",
          "transactionHash": "0x0bf0a6dfb6ca9ad8db5f2f9ab72e27d2ea660e5feaaff84f7d5043b51a13c479",
          "transactionIndex": "0x3f",
          "logIndex": "0x5c",
          "removed": false
        },
        {
          "address": "0xbf4a322f1496e5c3d34a9bcdb4c60567b38c7de2",
          "topics": [
            "0x4afcb4a87cdbd9974efdb92ee48bc8d7cd0ae4bf217004db3d080cbaee652ca7"
          ],
          "data": "0x00000000000000000000000000000000000000000000000000000000678744600000000000000000000000000000000000000000000000000003994c3919ed6a0000000000000000000000000000000000000000000000000dc7e3e2c86a0119",
          "blockHash": "0xe9e4ac88b7a4044b4ac7cbe60b4e62484a51cab289751b7f38f8167f9f7f976d",
          "blockNumber": "0x725c2b",
          "transactionHash": "0x0bf0a6dfb6ca9ad8db5f2f9ab72e27d2ea660e5feaaff84f7d5043b51a13c479",
          "transactionIndex": "0x3f",
          "logIndex": "0x5d",
          "removed": false
        }
      ],
      "logsBloom": "0x00000000000000000000000000000000000000000000000000000000000000000000000000000000000000000000000000000000000000004000000000000000000000000000000000000008000000000000001000000000000000000000000000000000020000000000000000000800020000000000000000000010000000000000000000000000000000000000000000000000000008000000010000000000000000000000000000000000000000004000000000000000000000000000000000000002000000800000000000001000000000000000080000000000000020000000000000000000000000000000000000000000000000000000000000000000",
      "type": "0x2",
      "transactionHash": "0x0bf0a6dfb6ca9ad8db5f2f9ab72e27d2ea660e5feaaff84f7d5043b51a13c479",
      "transactionIndex": "0x3f",
      "blockHash": "0xe9e4ac88b7a4044b4ac7cbe60b4e62484a51cab289751b7f38f8167f9f7f976d",
      "blockNumber": "0x725c2b",
      "gasUsed": "0xfb91",
      "effectiveGasPrice": "0xe83de5e8",
      "from": "0xc77f7fed3b5cc8249adc428c5f44c9063b9734b4",
      "to": "0xbf4a322f1496e5c3d34a9bcdb4c60567b38c7de2",
      "contractAddress": null
    }
  ],
  "libraries": [],
  "pending": [],
  "returns": {},
  "timestamp": 1736918114,
  "chain": 11155111,
  "commit": "51a374b"
}