{
  "transactions": [
    {
      "hash": "0x21f54c03aac1278a2c5b144dccbded3088d72593a2bed9828cfdf2f76790f1dd",
      "transactionType": "CALL",
      "contractName": null,
      "contractAddress": "0x8aafd3ede9adb0ff97c7aebce82a919afb1c8764",
      "function": "buy(address)",
      "arguments": [
        "0xC77f7fed3b5Cc8249aDc428c5F44C9063B9734b4"
      ],
      "transaction": {
        "from": "0xc77f7fed3b5cc8249adc428c5f44c9063b9734b4",
        "to": "0x8aafd3ede9adb0ff97c7aebce82a919afb1c8764",
        "gas": "0x156ea",
        "value": "0xde0b6b3a7640000",
        "input": "0xf088d547000000000000000000000000c77f7fed3b5cc8249adc428c5f44c9063b9734b4",
        "nonce": "0x119e",
        "chainId": "0xaa36a7"
      },
      "additionalContracts": [],
      "isFixedGasLimit": false
    }
  ],
  "receipts": [
    {
      "status": "0x1",
      "cumulativeGasUsed": "0x76f458",
      "logs": [
        {
          "address": "0x8aafd3ede9adb0ff97c7aebce82a919afb1c8764",
          "topics": [
            "0xddf252ad1be2c89b69c2b068fc378daa952ba7f163c4a11628f55a4df523b3ef",
            "0x0000000000000000000000000000000000000000000000000000000000000000",
            "0x000000000000000000000000c77f7fed3b5cc8249adc428c5f44c9063b9734b4"
          ],
          "data": "0x00000000000000000000000000000000000000000000002525ec0788c149af48",
          "blockHash": "0x2f5588e7f199ea5441c1ccf58053e47053843484319e33663a8851b54d0084a1",
          "blockNumber": "0x731867",
          "transactionHash": "0x21f54c03aac1278a2c5b144dccbded3088d72593a2bed9828cfdf2f76790f1dd",
          "transactionIndex": "0x5f",
          "logIndex": "0xa4",
          "removed": false
        },
        {
          "address": "0x8aafd3ede9adb0ff97c7aebce82a919afb1c8764",
          "topics": [
            "0xddf252ad1be2c89b69c2b068fc378daa952ba7f163c4a11628f55a4df523b3ef",
            "0x0000000000000000000000000000000000000000000000000000000000000000",
            "0x000000000000000000000000c77f7fed3b5cc8249adc428c5f44c9063b9734b4"
          ],
          "data": "0x0000000000000000000000000000000000000000000000001cd8c75febb68bc3",
          "blockHash": "0x2f5588e7f199ea5441c1ccf58053e47053843484319e33663a8851b54d0084a1",
          "blockNumber": "0x731867",
          "transactionHash": "0x21f54c03aac1278a2c5b144dccbded3088d72593a2bed9828cfdf2f76790f1dd",
          "transactionIndex": "0x5f",
          "logIndex": "0xa5",
          "removed": false
        },
        {
          "address": "0x8aafd3ede9adb0ff97c7aebce82a919afb1c8764",
          "topics": [
            "0x4afcb4a87cdbd9974efdb92ee48bc8d7cd0ae4bf217004db3d080cbaee652ca7"
          ],
          "data": "0x00000000000000000000000000000000000000000000000000000000679021a40000000000000000000000000000000000000000000000000005225bfcc732ca0000000000000000000000000000000000000000000000000de0b6b3a7640000",
          "blockHash": "0x2f5588e7f199ea5441c1ccf58053e47053843484319e33663a8851b54d0084a1",
          "blockNumber": "0x731867",
          "transactionHash": "0x21f54c03aac1278a2c5b144dccbded3088d72593a2bed9828cfdf2f76790f1dd",
          "transactionIndex": "0x5f",
          "logIndex": "0xa6",
          "removed": false
        }
      ],
      "logsBloom": "0x00000000000000000000000000000000000000000600000000000000000000000000000000000000000000000000000000000000000000004000000000000000000000000000004000000008000000000000000000000000000000000000000000000000020000000000000000000800020000000000000000000010000000000000000000000000000000000000000000000000000000000000010000000000000000000000000000000000000000004000000000000000000000000000000000000002000000800000000000000000000000000000080000000000000020000000000000000000000000000000000000000000000000000000000000000000",
      "type": "0x2",
      "transactionHash": "0x21f54c03aac1278a2c5b144dccbded3088d72593a2bed9828cfdf2f76790f1dd",
      "transactionIndex": "0x5f",
      "blockHash": "0x2f5588e7f199ea5441c1ccf58053e47053843484319e33663a8851b54d0084a1",
      "blockNumber": "0x731867",
      "gasUsed": "0xf844",
      "effectiveGasPrice": "0x3fc9d0cc",
      "from": "0xc77f7fed3b5cc8249adc428c5f44c9063b9734b4",
      "to": "0x8aafd3ede9adb0ff97c7aebce82a919afb1c8764",
      "contractAddress": null
    }
  ],
  "libraries": [],
  "pending": [],
  "returns": {},
  "timestamp": 1737499045,
  "chain": 11155111,
  "commit": "1d2fb70"
}