{
  "transactions": [
    {
      "hash": "0x7380ad137ae68fe16a00313fdcc1a0defe87c90388ef5d583d62344195c21763",
      "transactionType": "CALL",
      "contractName": null,
      "contractAddress": "0x8aafd3ede9adb0ff97c7aebce82a919afb1c8764",
      "function": "sell(uint256)",
      "arguments": [
        "44832424470169922"
      ],
      "transaction": {
        "from": "0xc77f7fed3b5cc8249adc428c5f44c9063b9734b4",
        "to": "0x8aafd3ede9adb0ff97c7aebce82a919afb1c8764",
        "gas": "0x1724d",
        "value": "0x0",
        "input": "0xe4849b32000000000000000000000000000000000000000000000000009f46da3ef6c942",
        "nonce": "0x10f7",
        "chainId": "0xaa36a7"
      },
      "additionalContracts": [],
      "isFixedGasLimit": false
    }
  ],
  "receipts": [
    {
      "status": "0x1",
      "cumulativeGasUsed": "0x889771",
      "logs": [
        {
          "address": "0x8aafd3ede9adb0ff97c7aebce82a919afb1c8764",
          "topics": [
            "0xddf252ad1be2c89b69c2b068fc378daa952ba7f163c4a11628f55a4df523b3ef",
            "0x000000000000000000000000c77f7fed3b5cc8249adc428c5f44c9063b9734b4",
            "0x0000000000000000000000000000000000000000000000000000000000000000"
          ],
          "data": "0x000000000000000000000000000000000000000000000000009e00a759159473",
          "blockHash": "0xe6b6ffd9c7cf267302b4ecacde90631f666fdf07e887bc24ab458e88a0904019",
          "blockNumber": "0x7317a0",
          "transactionHash": "0x7380ad137ae68fe16a00313fdcc1a0defe87c90388ef5d583d62344195c21763",
          "transactionIndex": "0x76",
          "logIndex": "0x6e",
          "removed": false
        },
        {
          "address": "0x8aafd3ede9adb0ff97c7aebce82a919afb1c8764",
          "topics": [
            "0xddf252ad1be2c89b69c2b068fc378daa952ba7f163c4a11628f55a4df523b3ef",
            "0x000000000000000000000000c77f7fed3b5cc8249adc428c5f44c9063b9734b4",
            "0x000000000000000000000000c77f7fed3b5cc8249adc428c5f44c9063b9734b4"
          ],
          "data": "0x00000000000000000000000000000000000000000000000000014632e5e134cf",
          "blockHash": "0xe6b6ffd9c7cf267302b4ecacde90631f666fdf07e887bc24ab458e88a0904019",
          "blockNumber": "0x7317a0",
          "transactionHash": "0x7380ad137ae68fe16a00313fdcc1a0defe87c90388ef5d583d62344195c21763",
          "transactionIndex": "0x76",
          "logIndex": "0x6f",
          "removed": false
        },
        {
          "address": "0x8aafd3ede9adb0ff97c7aebce82a919afb1c8764",
          "topics": [
            "0x4afcb4a87cdbd9974efdb92ee48bc8d7cd0ae4bf217004db3d080cbaee652ca7"
          ],
          "data": "0x000000000000000000000000000000000000000000000000000000006790184400000000000000000000000000000000000000000000000000050ab4dd036a53000000000000000000000000000000000000000000000000000039dd9150b789",
          "blockHash": "0xe6b6ffd9c7cf267302b4ecacde90631f666fdf07e887bc24ab458e88a0904019",
          "blockNumber": "0x7317a0",
          "transactionHash": "0x7380ad137ae68fe16a00313fdcc1a0defe87c90388ef5d583d62344195c21763",
          "transactionIndex": "0x76",
          "logIndex": "0x70",
          "removed": false
        }
      ],
      "logsBloom": "0x00000000000000000000000000000000000000000600000000000000000000000000000000000000000000000000000000000000000000004000000000000000000000000000004000000008000000000000000000000000000000000000000000000000020000000000000000000800020000000000000000000010000000000000000000000000000000000000000000000000000000000000010000000000000000000000000000000000000000004000000000000000000000000000000000000002000000800000000000000000000000000000080000000000000020000000000000000000000000000000000000000000000000000000000000000000",
      "type": "0x2",
      "transactionHash": "0x7380ad137ae68fe16a00313fdcc1a0defe87c90388ef5d583d62344195c21763",
      "transactionIndex": "0x76",
      "blockHash": "0xe6b6ffd9c7cf267302b4ecacde90631f666fdf07e887bc24ab458e88a0904019",
      "blockNumber": "0x7317a0",
      "gasUsed": "0xfd33",
      "effectiveGasPrice": "0x4abc252b",
      "from": "0xc77f7fed3b5cc8249adc428c5f44c9063b9734b4",
      "to": "0x8aafd3ede9adb0ff97c7aebce82a919afb1c8764",
      "contractAddress": null
    }
  ],
  "libraries": [],
  "pending": [],
  "returns": {},
  "timestamp": 1737496645,
  "chain": 11155111,
  "commit": "1d2fb70"
}