{
  "transactions": [
    {
      "hash": "0x3ae236dea9ac4834168a0a6afc6662487c3689438e9eafe413887222a7e801e6",
      "transactionType": "CALL",
      "contractName": null,
      "contractAddress": "0x8aafd3ede9adb0ff97c7aebce82a919afb1c8764",
      "function": "sell(uint256)",
      "arguments": [
        "22227826214"
      ],
      "transaction": {
        "from": "0xc77f7fed3b5cc8249adc428c5f44c9063b9734b4",
        "to": "0x8aafd3ede9adb0ff97c7aebce82a919afb1c8764",
        "gas": "0x1722a",
        "value": "0x0",
        "input": "0xe4849b32000000000000000000000000000000000000000000000000000000052ce1b626",
        "nonce": "0x121c",
        "chainId": "0xaa36a7"
      },
      "additionalContracts": [],
      "isFixedGasLimit": false
    }
  ],
  "receipts": [
    {
      "status": "0x1",
      "cumulativeGasUsed": "0x97e31d",
      "logs": [
        {
          "address": "0x8aafd3ede9adb0ff97c7aebce82a919afb1c8764",
          "topics": [
            "0xddf252ad1be2c89b69c2b068fc378daa952ba7f163c4a11628f55a4df523b3ef",
            "0x000000000000000000000000c77f7fed3b5cc8249adc428c5f44c9063b9734b4",
            "0x0000000000000000000000000000000000000000000000000000000000000000"
          ],
          "data": "0x0000000000000000000000000000000000000000000000000000000522485a95",
          "blockHash": "0xf8708ea135fecd07f1d5aa4b926e6132f50470ddd80c7947c17bbcab0990e3c7",
          "blockNumber": "0x7318f8",
          "transactionHash": "0x3ae236dea9ac4834168a0a6afc6662487c3689438e9eafe413887222a7e801e6",
          "transactionIndex": "0x7c",
          "logIndex": "0x93",
          "removed": false
        },
        {
          "address": "0x8aafd3ede9adb0ff97c7aebce82a919afb1c8764",
          "topics": [
            "0xddf252ad1be2c89b69c2b068fc378daa952ba7f163c4a11628f55a4df523b3ef",
            "0x000000000000000000000000c77f7fed3b5cc8249adc428c5f44c9063b9734b4",
            "0x000000000000000000000000c77f7fed3b5cc8249adc428c5f44c9063b9734b4"
          ],
          "data": "0x000000000000000000000000000000000000000000000000000000000a995b91",
          "blockHash": "0xf8708ea135fecd07f1d5aa4b926e6132f50470ddd80c7947c17bbcab0990e3c7",
          "blockNumber": "0x7318f8",
          "transactionHash": "0x3ae236dea9ac4834168a0a6afc6662487c3689438e9eafe413887222a7e801e6",
          "transactionIndex": "0x7c",
          "logIndex": "0x94",
          "removed": false
        },
        {
          "address": "0x8aafd3ede9adb0ff97c7aebce82a919afb1c8764",
          "topics": [
            "0x4afcb4a87cdbd9974efdb92ee48bc8d7cd0ae4bf217004db3d080cbaee652ca7"
          ],
          "data": "0x0000000000000000000000000000000000000000000000000000000067902870000000000000000000000000000000000000000000000000000534d691123c120000000000000000000000000000000000000000000000000000000001f10b1b",
          "blockHash": "0xf8708ea135fecd07f1d5aa4b926e6132f50470ddd80c7947c17bbcab0990e3c7",
          "blockNumber": "0x7318f8",
          "transactionHash": "0x3ae236dea9ac4834168a0a6afc6662487c3689438e9eafe413887222a7e801e6",
          "transactionIndex": "0x7c",
          "logIndex": "0x95",
          "removed": false
        }
      ],
      "logsBloom": "0x00000000000000000000000000000000000000000600000000000000000000000000000000000000000000000000000000000000000000004000000000000000000000000000004000000008000000000000000000000000000000000000000000000000020000000000000000000800020000000000000000000010000000000000000000000000000000000000000000000000000000000000010000000000000000000000000000000000000000004000000000000000000000000000000000000002000000800000000000000000000000000000080000000000000020000000000000000000000000000000000000000000000000000000000000000000",
      "type": "0x2",
      "transactionHash": "0x3ae236dea9ac4834168a0a6afc6662487c3689438e9eafe413887222a7e801e6",
      "transactionIndex": "0x7c",
      "blockHash": "0xf8708ea135fecd07f1d5aa4b926e6132f50470ddd80c7947c17bbcab0990e3c7",
      "blockNumber": "0x7318f8",
      "gasUsed": "0xfd1b",
      "effectiveGasPrice": "0x47e13bdc",
      "from": "0xc77f7fed3b5cc8249adc428c5f44c9063b9734b4",
      "to": "0x8aafd3ede9adb0ff97c7aebce82a919afb1c8764",
      "contractAddress": null
    }
  ],
  "libraries": [],
  "pending": [],
  "returns": {},
  "timestamp": 1737500785,
  "chain": 11155111,
  "commit": "1d2fb70"
}