{
  "transactions": [
    {
      "hash": "0xce11de9b696b06e392fa5d8572b43f33eca9772194e1dbcc950cbc5cfc18c44f",
      "transactionType": "CALL",
      "contractName": null,
      "contractAddress": "0x8aafd3ede9adb0ff97c7aebce82a919afb1c8764",
      "function": "sell(uint256)",
      "arguments": [
        "210093950680804898879"
      ],
      "transaction": {
        "from": "0xc77f7fed3b5cc8249adc428c5f44c9063b9734b4",
        "to": "0x8aafd3ede9adb0ff97c7aebce82a919afb1c8764",
        "gas": "0x17270",
        "value": "0x0",
        "input": "0xe4849b3200000000000000000000000000000000000000000000000b63a3a704cbd0383f",
        "nonce": "0x14ed",
        "chainId": "0xaa36a7"
      },
      "additionalContracts": [],
      "isFixedGasLimit": false
    }
  ],
  "receipts": [
    {
      "status": "0x1",
      "cumulativeGasUsed": "0xb6a32d",
      "logs": [
        {
          "address": "0x8aafd3ede9adb0ff97c7aebce82a919afb1c8764",
          "topics": [
            "0xddf252ad1be2c89b69c2b068fc378daa952ba7f163c4a11628f55a4df523b3ef",
            "0x000000000000000000000000c77f7fed3b5cc8249adc428c5f44c9063b9734b4",
            "0x0000000000000000000000000000000000000000000000000000000000000000"
          ],
          "data": "0x00000000000000000000000000000000000000000000000b4c506c56ad82c728",
          "blockHash": "0xbd6dc96c0a007ff9be0ec51ec6af9c941b64fb30b615261a6c2d6d044cefd4cd",
          "blockNumber": "0x731c4d",
          "transactionHash": "0xce11de9b696b06e392fa5d8572b43f33eca9772194e1dbcc950cbc5cfc18c44f",
          "transactionIndex": "0x7f",
          "logIndex": "0xb4",
          "removed": false
        },
        {
          "address": "0x8aafd3ede9adb0ff97c7aebce82a919afb1c8764",
          "topics": [
            "0xddf252ad1be2c89b69c2b068fc378daa952ba7f163c4a11628f55a4df523b3ef",
            "0x000000000000000000000000c77f7fed3b5cc8249adc428c5f44c9063b9734b4",
            "0x000000000000000000000000c77f7fed3b5cc8249adc428c5f44c9063b9734b4"
          ],
          "data": "0x00000000000000000000000000000000000000000000000017533aae1e4d7117",
          "blockHash": "0xbd6dc96c0a007ff9be0ec51ec6af9c941b64fb30b615261a6c2d6d044cefd4cd",
          "blockNumber": "0x731c4d",
          "transactionHash": "0xce11de9b696b06e392fa5d8572b43f33eca9772194e1dbcc950cbc5cfc18c44f",
          "transactionIndex": "0x7f",
          "logIndex": "0xb5",
          "removed": false
        },
        {
          "address": "0x8aafd3ede9adb0ff97c7aebce82a919afb1c8764",
          "topics": [
            "0x4afcb4a87cdbd9974efdb92ee48bc8d7cd0ae4bf217004db3d080cbaee652ca7"
          ],
          "data": "0x00000000000000000000000000000000000000000000000000000000679050780000000000000000000000000000000000000000000000000010e511742a86a00000000000000000000000000000000000000000000000000dcd2ce981ddfdb3",
          "blockHash": "0xbd6dc96c0a007ff9be0ec51ec6af9c941b64fb30b615261a6c2d6d044cefd4cd",
          "blockNumber": "0x731c4d",
          "transactionHash": "0xce11de9b696b06e392fa5d8572b43f33eca9772194e1dbcc950cbc5cfc18c44f",
          "transactionIndex": "0x7f",
          "logIndex": "0xb6",
          "removed": false
        }
      ],
      "logsBloom": "0x00000000000000000000000000000000000000000600000000000000000000000000000000000000000000000000000000000000000000004000000000000000000000000000004000000008000000000000000000000000000000000000000000000000020000000000000000000800020000000000000000000010000000000000000000000000000000000000000000000000000000000000010000000000000000000000000000000000000000004000000000000000000000000000000000000002000000800000000000000000000000000000080000000000000020000000000000000000000000000000000000000000000000000000000000000000",
      "type": "0x2",
      "transactionHash": "0xce11de9b696b06e392fa5d8572b43f33eca9772194e1dbcc950cbc5cfc18c44f",
      "transactionIndex": "0x7f",
      "blockHash": "0xbd6dc96c0a007ff9be0ec51ec6af9c941b64fb30b615261a6c2d6d044cefd4cd",
      "blockNumber": "0x731c4d",
      "gasUsed": "0xfd4b",
      "effectiveGasPrice": "0x153c102bb",
      "from": "0xc77f7fed3b5cc8249adc428c5f44c9063b9734b4",
      "to": "0x8aafd3ede9adb0ff97c7aebce82a919afb1c8764",
      "contractAddress": null
    }
  ],
  "libraries": [],
  "pending": [],
  "returns": {},
  "timestamp": 1737511033,
  "chain": 11155111,
  "commit": "1d2fb70"
}