{
  "transactions": [
    {
      "hash": "0x03b562576a31c8a16abda3d5753821e44f90af5209021fbe1519395c463a82e3",
      "transactionType": "CALL",
      "contractName": null,
      "contractAddress": "0x8aafd3ede9adb0ff97c7aebce82a919afb1c8764",
      "function": "sell(uint256)",
      "arguments": [
        "157126257206622954322"
      ],
      "transaction": {
        "from": "0xc77f7fed3b5cc8249adc428c5f44c9063b9734b4",
        "to": "0x8aafd3ede9adb0ff97c7aebce82a919afb1c8764",
        "gas": "0x17270",
        "value": "0x0",
        "input": "0xe4849b3200000000000000000000000000000000000000000000000884909a70576c2352",
        "nonce": "0xfe8",
        "chainId": "0xaa36a7"
      },
      "additionalContracts": [],
      "isFixedGasLimit": false
    }
  ],
  "receipts": [
    {
      "status": "0x1",
      "cumulativeGasUsed": "0xb3956d",
      "logs": [
        {
          "address": "0x8aafd3ede9adb0ff97c7aebce82a919afb1c8764",
          "topics": [
            "0xddf252ad1be2c89b69c2b068fc378daa952ba7f163c4a11628f55a4df523b3ef",
            "0x000000000000000000000000c77f7fed3b5cc8249adc428c5f44c9063b9734b4",
            "0x0000000000000000000000000000000000000000000000000000000000000000"
          ],
          "data": "0x000000000000000000000000000000000000000000000008731ece7389ec4c00",
          "blockHash": "0xb33582d0ebe7c031807756ce1f5e42b1ccf96f8f9ac0ee7de6687b7c3445b84e",
          "blockNumber": "0x73165a",
          "transactionHash": "0x03b562576a31c8a16abda3d5753821e44f90af5209021fbe1519395c463a82e3",
          "transactionIndex": "0x82",
          "logIndex": "0xbd",
          "removed": false
        },
        {
          "address": "0x8aafd3ede9adb0ff97c7aebce82a919afb1c8764",
          "topics": [
            "0xddf252ad1be2c89b69c2b068fc378daa952ba7f163c4a11628f55a4df523b3ef",
            "0x000000000000000000000000c77f7fed3b5cc8249adc428c5f44c9063b9734b4",
            "0x000000000000000000000000c77f7fed3b5cc8249adc428c5f44c9063b9734b4"
          ],
          "data": "0x0000000000000000000000000000000000000000000000001171cbfccd7fd752",
          "blockHash": "0xb33582d0ebe7c031807756ce1f5e42b1ccf96f8f9ac0ee7de6687b7c3445b84e",
          "blockNumber": "0x73165a",
          "transactionHash": "0x03b562576a31c8a16abda3d5753821e44f90af5209021fbe1519395c463a82e3",
          "transactionIndex": "0x82",
          "logIndex": "0xbe",
          "removed": false
        },
        {
          "address": "0x8aafd3ede9adb0ff97c7aebce82a919afb1c8764",
          "topics": [
            "0x4afcb4a87cdbd9974efdb92ee48bc8d7cd0ae4bf217004db3d080cbaee652ca7"
          ],
          "data": "0x00000000000000000000000000000000000000000000000000000000679008e40000000000000000000000000000000000000000000000000004e37e9195145500000000000000000000000000000000000000000000000002ffff3e49928144",
          "blockHash": "0xb33582d0ebe7c031807756ce1f5e42b1ccf96f8f9ac0ee7de6687b7c3445b84e",
          "blockNumber": "0x73165a",
          "transactionHash": "0x03b562576a31c8a16abda3d5753821e44f90af5209021fbe1519395c463a82e3",
          "transactionIndex": "0x82",
          "logIndex": "0xbf",
          "removed": false
        }
      ],
      "logsBloom": "0x00000000000000000000000000000000000000000600000000000000000000000000000000000000000000000000000000000000000000004000000000000000000000000000004000000008000000000000000000000000000000000000000000000000020000000000000000000800020000000000000000000010000000000000000000000000000000000000000000000000000000000000010000000000000000000000000000000000000000004000000000000000000000000000000000000002000000800000000000000000000000000000080000000000000020000000000000000000000000000000000000000000000000000000000000000000",
      "type": "0x2",
      "transactionHash": "0x03b562576a31c8a16abda3d5753821e44f90af5209021fbe1519395c463a82e3",
      "transactionIndex": "0x82",
      "blockHash": "0xb33582d0ebe7c031807756ce1f5e42b1ccf96f8f9ac0ee7de6687b7c3445b84e",
      "blockNumber": "0x73165a",
      "gasUsed": "0xfd4b",
      "effectiveGasPrice": "0x4fc0fac5",
      "from": "0xc77f7fed3b5cc8249adc428c5f44c9063b9734b4",
      "to": "0x8aafd3ede9adb0ff97c7aebce82a919afb1c8764",
      "contractAddress": null
    }
  ],
  "libraries": [],
  "pending": [],
  "returns": {},
  "timestamp": 1737492708,
  "chain": 11155111,
  "commit": "1d2fb70"
}