{
  "transactions": [
    {
      "hash": "0x4464699ddebd1aa17e146dd085fdf4ff5fbfd8b974582c42414ad729db358581",
      "transactionType": "CALL",
      "contractName": null,
      "contractAddress": "0xbf4a322f1496e5c3d34a9bcdb4c60567b38c7de2",
      "function": "sell(uint256)",
      "arguments": [
        "980361931356821467852"
      ],
      "transaction": {
        "from": "0xc77f7fed3b5cc8249adc428c5f44c9063b9734b4",
        "to": "0xbf4a322f1496e5c3d34a9bcdb4c60567b38c7de2",
        "gas": "0x16fea",
        "value": "0x0",
        "input": "0xe4849b3200000000000000000000000000000000000000000000003525413e638f3b32cc",
        "nonce": "0xbfd",
        "chainId": "0xaa36a7"
      },
      "additionalContracts": [],
      "isFixedGasLimit": false
    }
  ],
  "receipts": [
    {
      "status": "0x1",
      "cumulativeGasUsed": "0xdd324b",
      "logs": [
        {
          "address": "0xbf4a322f1496e5c3d34a9bcdb4c60567b38c7de2",
          "topics": [
            "0xddf252ad1be2c89b69c2b068fc378daa952ba7f163c4a11628f55a4df523b3ef",
            "0x000000000000000000000000c77f7fed3b5cc8249adc428c5f44c9063b9734b4",
            "0x0000000000000000000000000000000000000000000000000000000000000000"
          ],
          "data": "0x00000000000000000000000000000000000000000000003525413e638f3b32cc",
          "blockHash": "0xe342ab57c50f3e4be017c6a00f77482f28dcfe6bff8ce5d167089ada66c2aba6",
          "blockNumber": "0x725c25",
          "transactionHash": "0x4464699ddebd1aa17e146dd085fdf4ff5fbfd8b974582c42414ad729db358581",
          "transactionIndex": "0x48",
          "logIndex": "0x67",
          "removed": false
        },
        {
          "address": "0xbf4a322f1496e5c3d34a9bcdb4c60567b38c7de2",
          "topics": [
            "0x4afcb4a87cdbd9974efdb92ee48bc8d7cd0ae4bf217004db3d080cbaee652ca7"
          ],
          "data": "0x00000000000000000000000000000000000000000000000000000000678744180000000000000000000000000000000000000000000000000003993f4b4aa8a00000000000000000000000000000000000000000000000000dc7e3e2e866fc07",
          "blockHash": "0xe342ab57c50f3e4be017c6a00f77482f28dcfe6bff8ce5d167089ada66c2aba6",
          "blockNumber": "0x725c25",
          "transactionHash": "0x4464699ddebd1aa17e146dd085fdf4ff5fbfd8b974582c42414ad729db358581",
          "transactionIndex": "0x48",
          "logIndex": "0x68",
          "removed": false
        }
      ],
      "logsBloom": "0x00000000000000000000000000000000000000000000000000000000000000000000000000000000000000000000000000000000000000004000000000000000000000000000000000000008000000000000001000000000000000000000000000000000020000000000000000000800020000000000000000000010000000000000000000000000000000000000000000000000000008000000010000000000000000000000000000000000000000004000000000000000000000000000000000000002000000800000000000001000000000000000080000000000000020000000000000000000000000000000000000000000000000000000000000000000",
      "type": "0x2",
      "transactionHash": "0x4464699ddebd1aa17e146dd085fdf4ff5fbfd8b974582c42414ad729db358581",
      "transactionIndex": "0x48",
      "blockHash": "0xe342ab57c50f3e4be017c6a00f77482f28dcfe6bff8ce5d167089ada66c2aba6",
      "blockNumber": "0x725c25",
      "gasUsed": "0xfb91",
      "effectiveGasPrice": "0xe552e2ff",
      "from": "0xc77f7fed3b5cc8249adc428c5f44c9063b9734b4",
      "to": "0xbf4a322f1496e5c3d34a9bcdb4c60567b38c7de2",
      "contractAddress": null
    }
  ],
  "libraries": [],
  "pending": [],
  "returns": {},
  "timestamp": 1736918042,
  "chain": 11155111,
  "commit": "51a374b"
}