{
  "transactions": [
    {
      "hash": "0xc395fb5796381def9a0a92627592be557e0a8b708d90797a12d000a3f98a0436",
      "transactionType": "CALL",
      "contractName": null,
      "contractAddress": "0xbf4a322f1496e5c3d34a9bcdb4c60567b38c7de2",
      "function": "sell(uint256)",
      "arguments": [
        "987726265371190920630"
      ],
      "transaction": {
        "from": "0xc77f7fed3b5cc8249adc428c5f44c9063b9734b4",
        "to": "0xbf4a322f1496e5c3d34a9bcdb4c60567b38c7de2",
        "gas": "0x16fea",
        "value": "0x0",
        "input": "0xe4849b320000000000000000000000000000000000000000000000358b749d28350c85b6",
        "nonce": "0x9dd",
        "chainId": "0xaa36a7"
      },
      "additionalContracts": [],
      "isFixedGasLimit": false
    }
  ],
  "receipts": [
    {
      "status": "0x1",
      "cumulativeGasUsed": "0x6d6218",
      "logs": [
        {
          "address": "0xbf4a322f1496e5c3d34a9bcdb4c60567b38c7de2",
          "topics": [
            "0xddf252ad1be2c89b69c2b068fc378daa952ba7f163c4a11628f55a4df523b3ef",
            "0x000000000000000000000000c77f7fed3b5cc8249adc428c5f44c9063b9734b4",
            "0x0000000000000000000000000000000000000000000000000000000000000000"
          ],
          "data": "0x0000000000000000000000000000000000000000000000358b749d28350c85b6",
          "blockHash": "0x4b74ae3a1b249523d6a8c144812beae289e7e93b2c164c157c4511162e25d43d",
          "blockNumber": "0x725990",
          "transactionHash": "0xc395fb5796381def9a0a92627592be557e0a8b708d90797a12d000a3f98a0436",
          "transactionIndex": "0x55",
          "logIndex": "0x73",
          "removed": false
        },
        {
          "address": "0xbf4a322f1496e5c3d34a9bcdb4c60567b38c7de2",
          "topics": [
            "0x4afcb4a87cdbd9974efdb92ee48bc8d7cd0ae4bf217004db3d080cbaee652ca7"
          ],
          "data": "0x00000000000000000000000000000000000000000000000000000000678724f800000000000000000000000000000000000000000000000000039260f606d2ad0000000000000000000000000000000000000000000000000dc7e3f407a9c208",
          "blockHash": "0x4b74ae3a1b249523d6a8c144812beae289e7e93b2c164c157c4511162e25d43d",
          "blockNumber": "0x725990",
          "transactionHash": "0xc395fb5796381def9a0a92627592be557e0a8b708d90797a12d000a3f98a0436",
          "transactionIndex": "0x55",
          "logIndex": "0x74",
          "removed": false
        }
      ],
      "logsBloom": "0x00000000000000000000000000000000000000000000000000000000000000000000000000000000000000000000000000000000000000004000000000000000000000000000000000000008000000000000001000000000000000000000000000000000020000000000000000000800020000000000000000000010000000000000000000000000000000000000000000000000000008000000010000000000000000000000000000000000000000004000000000000000000000000000000000000002000000800000000000001000000000000000080000000000000020000000000000000000000000000000000000000000000000000000000000000000",
      "type": "0x2",
      "transactionHash": "0xc395fb5796381def9a0a92627592be557e0a8b708d90797a12d000a3f98a0436",
      "transactionIndex": "0x55",
      "blockHash": "0x4b74ae3a1b249523d6a8c144812beae289e7e93b2c164c157c4511162e25d43d",
      "blockNumber": "0x725990",
      "gasUsed": "0xfb91",
      "effectiveGasPrice": "0x2950e08c6",
      "from": "0xc77f7fed3b5cc8249adc428c5f44c9063b9734b4",
      "to": "0xbf4a322f1496e5c3d34a9bcdb4c60567b38c7de2",
      "contractAddress": null
    }
  ],
  "libraries": [],
  "pending": [],
  "returns": {},
  "timestamp": 1736910073,
  "chain": 11155111,
  "commit": "51a374b"
}