{
  "transactions": [
    {
      "hash": "0x65296dd272e33d4acedeafd854262868f54d7d42de1f80e52ffeacbee716542a",
      "transactionType": "CALL",
      "contractName": null,
      "contractAddress": "0xbf4a322f1496e5c3d34a9bcdb4c60567b38c7de2",
      "function": "buy(address)",
      "arguments": [
        "0xC77f7fed3b5Cc8249aDc428c5F44C9063B9734b4"
      ],
      "transaction": {
        "from": "0xc77f7fed3b5cc8249adc428c5f44c9063b9734b4",
        "to": "0xbf4a322f1496e5c3d34a9bcdb4c60567b38c7de2",
        "gas": "0x1b309",
        "value": "0xde0b6b3a7640000",
        "input": "0xf088d547000000000000000000000000c77f7fed3b5cc8249adc428c5f44c9063b9734b4",
        "nonce": "0xa0a",
        "chainId": "0xaa36a7"
      },
      "additionalContracts": [],
      "isFixedGasLimit": false
    }
  ],
  "receipts": [
    {
      "status": "0x1",
      "cumulativeGasUsed": "0x22107ac",
      "logs": [
        {
          "address": "0xbf4a322f1496e5c3d34a9bcdb4c60567b38c7de2",
          "topics": [
            "0xddf252ad1be2c89b69c2b068fc378daa952ba7f163c4a11628f55a4df523b3ef",
            "0x0000000000000000000000000000000000000000000000000000000000000000",
            "0x000000000000000000000000c77f7fed3b5cc8249adc428c5f44c9063b9734b4"
          ],
          "data": "0x0000000000000000000000000000000000000000000000355953b0995d21f7e5",
          "blockHash": "0xe37a6d7fd3fdf16855141cd5459be2c0ba598344a2867a6e8b8e6f1a5a3db6ac",
          "blockNumber": "0x7259c7",
          "transactionHash": "0x65296dd272e33d4acedeafd854262868f54d7d42de1f80e52ffeacbee716542a",
          "transactionIndex": "0x123",
          "logIndex": "0x1ef",
          "removed": false
        },
        {
          "address": "0xbf4a322f1496e5c3d34a9bcdb4c60567b38c7de2",
          "topics": [
            "0xddf252ad1be2c89b69c2b068fc378daa952ba7f163c4a11628f55a4df523b3ef",
            "0x0000000000000000000000000000000000000000000000000000000000000000",
            "0x000000000000000000000000c77f7fed3b5cc8249adc428c5f44c9063b9734b4"
          ],
          "data": "0x000000000000000000000000000000000000000000000000296d6154a6365a09",
          "blockHash": "0xe37a6d7fd3fdf16855141cd5459be2c0ba598344a2867a6e8b8e6f1a5a3db6ac",
          "blockNumber": "0x7259c7",
          "transactionHash": "0x65296dd272e33d4acedeafd854262868f54d7d42de1f80e52ffeacbee716542a",
          "transactionIndex": "0x123",
          "logIndex": "0x1f0",
          "removed": false
        },
        {
          "address": "0xbf4a322f1496e5c3d34a9bcdb4c60567b38c7de2",
          "topics": [
            "0x4afcb4a87cdbd9974efdb92ee48bc8d7cd0ae4bf217004db3d080cbaee652ca7"
          ],
          "data": "0x0000000000000000000000000000000000000000000000000000000067872798000000000000000000000000000000000000000000000000000392f181d6a1610000000000000000000000000000000000000000000000000de0b6b3a7640000",
          "blockHash": "0xe37a6d7fd3fdf16855141cd5459be2c0ba598344a2867a6e8b8e6f1a5a3db6ac",
          "blockNumber": "0x7259c7",
          "transactionHash": "0x65296dd272e33d4acedeafd854262868f54d7d42de1f80e52ffeacbee716542a",
          "transactionIndex": "0x123",
          "logIndex": "0x1f1",
          "removed": false
        }
      ],
      "logsBloom": "0x00000000000000000000000000000000000000000000000000000000000000000000000000000000000000000000000000000000000000004000000000000000000000000000000000000008000000000000001000000000000000000000000000000000020000000000000000000800020000000000000000000010000000000000000000000000000000000000000000000000000008000000010000000000000000000000000000000000000000004000000000000000000000000000000000000002000000800000000000001000000000000000080000000000000020000000000000000000000000000000000000000000000000000000000000000000",
      "type": "0x2",
      "transactionHash": "0x65296dd272e33d4acedeafd854262868f54d7d42de1f80e52ffeacbee716542a",
      "transactionIndex": "0x123",
      "blockHash": "0xe37a6d7fd3fdf16855141cd5459be2c0ba598344a2867a6e8b8e6f1a5a3db6ac",
      "blockNumber": "0x7259c7",
      "gasUsed": "0x13af6",
      "effectiveGasPrice": "0x2e3c87466",
      "from": "0xc77f7fed3b5cc8249adc428c5f44c9063b9734b4",
      "to": "0xbf4a322f1496e5c3d34a9bcdb4c60567b38c7de2",
      "contractAddress": null
    }
  ],
  "libraries": [],
  "pending": [],
  "returns": {},
  "timestamp": 1736910745,
  "chain": 11155111,
  "commit": "51a374b"
}