{
  "transactions": [
    {
      "hash": "0xf0326f4380e8745790cd36a4cc04513e320fb5f0da713850f7c8a72605b92c6c",
      "transactionType": "CALL",
      "contractName": null,
      "contractAddress": "0x8aafd3ede9adb0ff97c7aebce82a919afb1c8764",
      "function": "sell(uint256)",
      "arguments": [
        "2742556360722"
      ],
      "transaction": {
        "from": "0xc77f7fed3b5cc8249adc428c5f44c9063b9734b4",
        "to": "0x8aafd3ede9adb0ff97c7aebce82a919afb1c8764",
        "gas": "0x1722a",
        "value": "0x0",
        "input": "0xe4849b320000000000000000000000000000000000000000000000000000027e8d190012",
        "nonce": "0x1293",
        "chainId": "0xaa36a7"
      },
      "additionalContracts": [],
      "isFixedGasLimit": false
    }
  ],
  "receipts": [
    {
      "status": "0x1",
      "cumulativeGasUsed": "0x799dd0",
      "logs": [
        {
          "address": "0x8aafd3ede9adb0ff97c7aebce82a919afb1c8764",
          "topics": [
            "0xddf252ad1be2c89b69c2b068fc378daa952ba7f163c4a11628f55a4df523b3ef",
            "0x000000000000000000000000c77f7fed3b5cc8249adc428c5f44c9063b9734b4",
            "0x0000000000000000000000000000000000000000000000000000000000000000"
          ],
          "data": "0x00000000000000000000000000000000000000000000000000000279715849cd",
          "blockHash": "0x46259e9c3b0033f1299f1af9459266c0563ac0292e982d65b100dcf6218b5e67",
          "blockNumber": "0x731983",
          "transactionHash": "0xf0326f4380e8745790cd36a4cc04513e320fb5f0da713850f7c8a72605b92c6c",
          "transactionIndex": "0x4f",
          "logIndex": "0x91",
          "removed": false
        },
        {
          "address": "0x8aafd3ede9adb0ff97c7aebce82a919afb1c8764",
          "topics": [
            "0xddf252ad1be2c89b69c2b068fc378daa952ba7f163c4a11628f55a4df523b3ef",
            "0x000000000000000000000000c77f7fed3b5cc8249adc428c5f44c9063b9734b4",
            "0x000000000000000000000000c77f7fed3b5cc8249adc428c5f44c9063b9734b4"
          ],
          "data": "0x000000000000000000000000000000000000000000000000000000051bc0b645",
          "blockHash": "0x46259e9c3b0033f1299f1af9459266c0563ac0292e982d65b100dcf6218b5e67",
          "blockNumber": "0x731983",
          "transactionHash": "0xf0326f4380e8745790cd36a4cc04513e320fb5f0da713850f7c8a72605b92c6c",
          "transactionIndex": "0x4f",
          "logIndex": "0x92",
          "removed": false
        },
        {
          "address": "0x8aafd3ede9adb0ff97c7aebce82a919afb1c8764",
          "topics": [
            "0x4afcb4a87cdbd9974efdb92ee48bc8d7cd0ae4bf217004db3d080cbaee652ca7"
          ],
          "data": "0x0000000000000000000000000000000000000000000000000000000067902ef400000000000000000000000000000000000000000000000000054646dddfdb9700000000000000000000000000000000000000000000000000000000f2b18f15",
          "blockHash": "0x46259e9c3b0033f1299f1af9459266c0563ac0292e982d65b100dcf6218b5e67",
          "blockNumber": "0x731983",
          "transactionHash": "0xf0326f4380e8745790cd36a4cc04513e320fb5f0da713850f7c8a72605b92c6c",
          "transactionIndex": "0x4f",
          "logIndex": "0x93",
          "removed": false
        }
      ],
      "logsBloom": "0x00000000000000000000000000000000000000000600000000000000000000000000000000000000000000000000000000000000000000004000000000000000000000000000004000000008000000000000000000000000000000000000000000000000020000000000000000000800020000000000000000000010000000000000000000000000000000000000000000000000000000000000010000000000000000000000000000000000000000004000000000000000000000000000000000000002000000800000000000000000000000000000080000000000000020000000000000000000000000000000000000000000000000000000000000000000",
      "type": "0x2",
      "transactionHash": "0xf0326f4380e8745790cd36a4cc04513e320fb5f0da713850f7c8a72605b92c6c",
      "transactionIndex": "0x4f",
      "blockHash": "0x46259e9c3b0033f1299f1af9459266c0563ac0292e982d65b100dcf6218b5e67",
      "blockNumber": "0x731983",
      "gasUsed": "0xfd1b",
      "effectiveGasPrice": "0x4220790e",
      "from": "0xc77f7fed3b5cc8249adc428c5f44c9063b9734b4",
      "to": "0x8aafd3ede9adb0ff97c7aebce82a919afb1c8764",
      "contractAddress": null
    }
  ],
  "libraries": [],
  "pending": [],
  "returns": {},
  "timestamp": 1737502452,
  "chain": 11155111,
  "commit": "1d2fb70"
}