{
  "transactions": [
    {
      "hash": "0x395556162df244289e8e5e87a161d8c8670bb4aa0e80f2f2f2f667e08cd7ac5d",
      "transactionType": "CALL",
      "contractName": null,
      "contractAddress": "0x8aafd3ede9adb0ff97c7aebce82a919afb1c8764",
      "function": "sell(uint256)",
      "arguments": [
        "761545197946"
      ],
      "transaction": {
        "from": "0xc77f7fed3b5cc8249adc428c5f44c9063b9734b4",
        "to": "0x8aafd3ede9adb0ff97c7aebce82a919afb1c8764",
        "gas": "0x1722a",
        "value": "0x0",
        "input": "0xe4849b32000000000000000000000000000000000000000000000000000000b14fa1897a",
        "nonce": "0x15ae",
        "chainId": "0xaa36a7"
      },
      "additionalContracts": [],
      "isFixedGasLimit": false
    }
  ],
  "receipts": [
    {
      "status": "0x1",
      "cumulativeGasUsed": "0xe1b863",
      "logs": [
        {
          "address": "0x8aafd3ede9adb0ff97c7aebce82a919afb1c8764",
          "topics": [
            "0xddf252ad1be2c89b69c2b068fc378daa952ba7f163c4a11628f55a4df523b3ef",
            "0x000000000000000000000000c77f7fed3b5cc8249adc428c5f44c9063b9734b4",
            "0x0000000000000000000000000000000000000000000000000000000000000000"
          ],
          "data": "0x000000000000000000000000000000000000000000000000000000afe47f7a0b",
          "blockHash": "0x05972bb1d44f024585cb68cb52ba0cd2b870380f303007f0b1f39f2dd8a0fecf",
          "blockNumber": "0x731d26",
          "transactionHash": "0x395556162df244289e8e5e87a161d8c8670bb4aa0e80f2f2f2f667e08cd7ac5d",
          "transactionIndex": "0x71",
          "logIndex": "0xc6",
          "removed": false
        },
        {
          "address": "0x8aafd3ede9adb0ff97c7aebce82a919afb1c8764",
          "topics": [
            "0xddf252ad1be2c89b69c2b068fc378daa952ba7f163c4a11628f55a4df523b3ef",
            "0x000000000000000000000000c77f7fed3b5cc8249adc428c5f44c9063b9734b4",
            "0x000000000000000000000000c77f7fed3b5cc8249adc428c5f44c9063b9734b4"
          ],
          "data": "0x000000000000000000000000000000000000000000000000000000016b220f6f",
          "blockHash": "0x05972bb1d44f024585cb68cb52ba0cd2b870380f303007f0b1f39f2dd8a0fecf",
          "blockNumber": "0x731d26",
          "transactionHash": "0x395556162df244289e8e5e87a161d8c8670bb4aa0e80f2f2f2f667e08cd7ac5d",
          "transactionIndex": "0x71",
          "logIndex": "0xc7",
          "removed": false
        },
        {
          "address": "0x8aafd3ede9adb0ff97c7aebce82a919afb1c8764",
          "topics": [
            "0x4afcb4a87cdbd9974efdb92ee48bc8d7cd0ae4bf217004db3d080cbaee652ca7"
          ],
          "data": "0x0000000000000000000000000000000000000000000000000000000067905ab00000000000000000000000000000000000000000000000000013143827bf68a600000000000000000000000000000000000000000000000000000000f3c3c1e9",
          "blockHash": "0x05972bb1d44f024585cb68cb52ba0cd2b870380f303007f0b1f39f2dd8a0fecf",
          "blockNumber": "0x731d26",
          "transactionHash": "0x395556162df244289e8e5e87a161d8c8670bb4aa0e80f2f2f2f667e08cd7ac5d",
          "transactionIndex": "0x71",
          "logIndex": "0xc8",
          "removed": false
        }
      ],
      "logsBloom": "0x00000000000000000000000000000000000000000600000000000000000000000000000000000000000000000000000000000000000000004000000000000000000000000000004000000008000000000000000000000000000000000000000000000000020000000000000000000800020000000000000000000010000000000000000000000000000000000000000000000000000000000000010000000000000000000000000000000000000000004000000000000000000000000000000000000002000000800000000000000000000000000000080000000000000020000000000000000000000000000000000000000000000000000000000000000000",
      "type": "0x2",
      "transactionHash": "0x395556162df244289e8e5e87a161d8c8670bb4aa0e80f2f2f2f667e08cd7ac5d",
      "transactionIndex": "0x71",
      "blockHash": "0x05972bb1d44f024585cb68cb52ba0cd2b870380f303007f0b1f39f2dd8a0fecf",
      "blockNumber": "0x731d26",
      "gasUsed": "0xfd1b",
      "effectiveGasPrice": "0x4c73d63f",
      "from": "0xc77f7fed3b5cc8249adc428c5f44c9063b9734b4",
      "to": "0x8aafd3ede9adb0ff97c7aebce82a919afb1c8764",
      "contractAddress": null
    }
  ],
  "libraries": [],
  "pending": [],
  "returns": {},
  "timestamp": 1737513649,
  "chain": 11155111,
  "commit": "1d2fb70"
}