{
  "transactions": [
    {
      "hash": "0x1fb98ddc723968b35c0a56e031c427c0600e96ca64e2347dd839d25e95764a03",
      "transactionType": "CALL",
      "contractName": null,
      "contractAddress": "0x8aafd3ede9adb0ff97c7aebce82a919afb1c8764",
      "function": "sell(uint256)",
      "arguments": [
        "5474512260387816619"
      ],
      "transaction": {
        "from": "0xc77f7fed3b5cc8249adc428c5f44c9063b9734b4",
        "to": "0x8aafd3ede9adb0ff97c7aebce82a919afb1c8764",
        "gas": "0x15dca",
        "value": "0x0",
        "input": "0xe4849b320000000000000000000000000000000000000000000000004bf95fe546efc4ab",
        "nonce": "0x11c8",
        "chainId": "0xaa36a7"
      },
      "additionalContracts": [],
      "isFixedGasLimit": false
    }
  ],
  "receipts": [
    {
      "status": "0x1",
      "cumulativeGasUsed": "0xa0fa8c",
      "logs": [
        {
          "address": "0x8aafd3ede9adb0ff97c7aebce82a919afb1c8764",
          "topics": [
            "0xddf252ad1be2c89b69c2b068fc378daa952ba7f163c4a11628f55a4df523b3ef",
            "0x000000000000000000000000c77f7fed3b5cc8249adc428c5f44c9063b9734b4",
            "0x0000000000000000000000000000000000000000000000000000000000000000"
          ],
          "data": "0x0000000000000000000000000000000000000000000000004b5dc79392252567",
          "blockHash": "0x3b74f30c4c86eea8eab2cb52bdaf8fc1ddec1ccda31c030d0cea4d776b534a0e",
          "blockNumber": "0x73189a",
          "transactionHash": "0x1fb98ddc723968b35c0a56e031c427c0600e96ca64e2347dd839d25e95764a03",
          "transactionIndex": "0x7e",
          "logIndex": "0x8f",
          "removed": false
        },
        {
          "address": "0x8aafd3ede9adb0ff97c7aebce82a919afb1c8764",
          "topics": [
            "0xddf252ad1be2c89b69c2b068fc378daa952ba7f163c4a11628f55a4df523b3ef",
            "0x000000000000000000000000c77f7fed3b5cc8249adc428c5f44c9063b9734b4",
            "0x000000000000000000000000c77f7fed3b5cc8249adc428c5f44c9063b9734b4"
          ],
          "data": "0x000000000000000000000000000000000000000000000000009b9851b4ca9f44",
          "blockHash": "0x3b74f30c4c86eea8eab2cb52bdaf8fc1ddec1ccda31c030d0cea4d776b534a0e",
          "blockNumber": "0x73189a",
          "transactionHash": "0x1fb98ddc723968b35c0a56e031c427c0600e96ca64e2347dd839d25e95764a03",
          "transactionIndex": "0x7e",
          "logIndex": "0x90",
          "removed": false
        },
        {
          "address": "0x8aafd3ede9adb0ff97c7aebce82a919afb1c8764",
          "topics": [
            "0x4afcb4a87cdbd9974efdb92ee48bc8d7cd0ae4bf217004db3d080cbaee652ca7"
          ],
          "data": "0x000000000000000000000000000000000000000000000000000000006790240800000000000000000000000000000000000000000000000000052936c01099d5000000000000000000000000000000000000000000000000001c40f4c6975d7c",
          "blockHash": "0x3b74f30c4c86eea8eab2cb52bdaf8fc1ddec1ccda31c030d0cea4d776b534a0e",
          "blockNumber": "0x73189a",
          "transactionHash": "0x1fb98ddc723968b35c0a56e031c427c0600e96ca64e2347dd839d25e95764a03",
          "transactionIndex": "0x7e",
          "logIndex": "0x91",
          "removed": false
        }
      ],
      "logsBloom": "0x00000000000000000000000000000000000000000600000000000000000000000000000000000000000000000000000000000000000000004000000000000000000000000000004000000008000000000000000000000000000000000000000000000000020000000000000000000800020000000000000000000010000000000000000000000000000000000000000000000000000000000000010000000000000000000000000000000000000000004000000000000000000000000000000000000002000000800000000000000000000000000000080000000000000020000000000000000000000000000000000000000000000000000000000000000000",
      "type": "0x2",
      "transactionHash": "0x1fb98ddc723968b35c0a56e031c427c0600e96ca64e2347dd839d25e95764a03",
      "transactionIndex": "0x7e",
      "blockHash": "0x3b74f30c4c86eea8eab2cb52bdaf8fc1ddec1ccda31c030d0cea4d776b534a0e",
      "blockNumber": "0x73189a",
      "gasUsed": "0xfd3f",
      "effectiveGasPrice": "0x453b504a",
      "from": "0xc77f7fed3b5cc8249adc428c5f44c9063b9734b4",
      "to": "0x8aafd3ede9adb0ff97c7aebce82a919afb1c8764",
      "contractAddress": null
    }
  ],
  "libraries": [],
  "pending": [],
  "returns": {},
  "timestamp": 1737499657,
  "chain": 11155111,
  "commit": "1d2fb70"
}