{
  "transactions": [
    {
      "hash": "0x0dc5cf56adcc4c1a64576ba61ce6333ce83f9b78dcee52d939ac11c2239fad1c",
      "transactionType": "CALL",
      "contractName": null,
      "contractAddress": "0x270e88f8683660553e8ba4eb2ad7c91a1710d769",
      "function": "buy(address)",
      "arguments": [
        "0xC77f7fed3b5Cc8249aDc428c5F44C9063B9734b4"
      ],
      "transaction": {
        "from": "0xc77f7fed3b5cc8249adc428c5f44c9063b9734b4",
        "to": "0x270e88f8683660553e8ba4eb2ad7c91a1710d769",
        "gas": "0x1b30c",
        "value": "0xde0b6b3a7640000",
        "input": "0xf088d547000000000000000000000000c77f7fed3b5cc8249adc428c5f44c9063b9734b4",
        "nonce": "0x5ce",
        "chainId": "0xaa36a7"
      },
      "additionalContracts": [],
      "isFixedGasLimit": false
    }
  ],
  "receipts": [
    {
      "status": "0x1",
      "cumulativeGasUsed": "0x4fe97c",
      "logs": [
        {
          "address": "0x270e88f8683660553e8ba4eb2ad7c91a1710d769",
          "topics": [
            "0xddf252ad1be2c89b69c2b068fc378daa952ba7f163c4a11628f55a4df523b3ef",
            "0x0000000000000000000000000000000000000000000000000000000000000000",
            "0x000000000000000000000000c77f7fed3b5cc8249adc428c5f44c9063b9734b4"
          ],
          "data": "0x00000000000000000000000000000000000000000000003397ef7e67d23e4068",
          "blockHash": "0x1281db7945b7a8b1c271ed9f8322a9d6953ca593f192b3737b9ec8e3880d4828",
          "blockNumber": "0x72528d",
          "transactionHash": "0x0dc5cf56adcc4c1a64576ba61ce6333ce83f9b78dcee52d939ac11c2239fad1c",
          "transactionIndex": "0x33",
          "logIndex": "0x5c",
          "removed": false
        },
        {
          "address": "0x270e88f8683660553e8ba4eb2ad7c91a1710d769",
          "topics": [
            "0xddf252ad1be2c89b69c2b068fc378daa952ba7f163c4a11628f55a4df523b3ef",
            "0x0000000000000000000000000000000000000000000000000000000000000000",
            "0x000000000000000000000000c77f7fed3b5cc8249adc428c5f44c9063b9734b4"
          ],
          "data": "0x0000000000000000000000000000000000000000000000002810699698fa6b4f",
          "blockHash": "0x1281db7945b7a8b1c271ed9f8322a9d6953ca593f192b3737b9ec8e3880d4828",
          "blockNumber": "0x72528d",
          "transactionHash": "0x0dc5cf56adcc4c1a64576ba61ce6333ce83f9b78dcee52d939ac11c2239fad1c",
          "transactionIndex": "0x33",
          "logIndex": "0x5d",
          "removed": false
        },
        {
          "address": "0x270e88f8683660553e8ba4eb2ad7c91a1710d769",
          "topics": [
            "0x4afcb4a87cdbd9974efdb92ee48bc8d7cd0ae4bf217004db3d080cbaee652ca7"
          ],
          "data": "0x000000000000000000000000000000000000000000000000000000006786d08c0000000000000000000000000000000000000000000000000003b22b324d00a70000000000000000000000000000000000000000000000000de0b6b3a7640000",
          "blockHash": "0x1281db7945b7a8b1c271ed9f8322a9d6953ca593f192b3737b9ec8e3880d4828",
          "blockNumber": "0x72528d",
          "transactionHash": "0x0dc5cf56adcc4c1a64576ba61ce6333ce83f9b78dcee52d939ac11c2239fad1c",
          "transactionIndex": "0x33",
          "logIndex": "0x5e",
          "removed": false
        }
      ],
      "logsBloom": "0x00000000000000000000000000000000000000000000000000000000000000000000000000000000000000000000000020000000000000004000000000000000000000000000000000000008000000000000000000000000000000000000000000000000020000000000000000000800020000000000000000000010000000000000000000010000000000000000000000000000000000000000010000000000000000000000000000000000000000004000000000000000000000000000000000000002000000800000000000000000000000000000080000008000000020000000000000000000000000000000000000000000000000000000000000000000",
      "type": "0x2",
      "transactionHash": "0x0dc5cf56adcc4c1a64576ba61ce6333ce83f9b78dcee52d939ac11c2239fad1c",
      "transactionIndex": "0x33",
      "blockHash": "0x1281db7945b7a8b1c271ed9f8322a9d6953ca593f192b3737b9ec8e3880d4828",
      "blockNumber": "0x72528d",
      "gasUsed": "0x13af8",
      "effectiveGasPrice": "0x3c5cc8a1e",
      "from": "0xc77f7fed3b5cc8249adc428c5f44c9063b9734b4",
      "to": "0x270e88f8683660553e8ba4eb2ad7c91a1710d769",
      "contractAddress": null
    }
  ],
  "libraries": [],
  "pending": [],
  "returns": {},
  "timestamp": 1736888461,
  "chain": 11155111,
  "commit": "51a374b"
}