{
  "transactions": [
    {
      "hash": "0xb0d79989404a263deec08feec1dd3a9dde6a3b9858ebc0baed4b432dd9537cee",
      "transactionType": "CALL",
      "contractName": null,
      "contractAddress": "0x8aafd3ede9adb0ff97c7aebce82a919afb1c8764",
      "function": "sell(uint256)",
      "arguments": [
        "1264219638788632980"
      ],
      "transaction": {
        "from": "0xc77f7fed3b5cc8249adc428c5f44c9063b9734b4",
        "to": "0x8aafd3ede9adb0ff97c7aebce82a919afb1c8764",
        "gas": "0x15dca",
        "value": "0x0",
        "input": "0xe4849b32000000000000000000000000000000000000000000000000118b69103811b194",
        "nonce": "0x16cb",
        "chainId": "0xaa36a7"
      },
      "additionalContracts": [],
      "isFixedGasLimit": false
    }
  ],
  "receipts": [
    {
      "status": "0x1",
      "cumulativeGasUsed": "0xff4235",
      "logs": [
        {
          "address": "0x8aafd3ede9adb0ff97c7aebce82a919afb1c8764",
          "topics": [
            "0xddf252ad1be2c89b69c2b068fc378daa952ba7f163c4a11628f55a4df523b3ef",
            "0x000000000000000000000000c77f7fed3b5cc8249adc428c5f44c9063b9734b4",
            "0x0000000000000000000000000000000000000000000000000000000000000000"
          ],
          "data": "0x00000000000000000000000000000000000000000000000011677aa7a42a20cd",
          "blockHash": "0x932c41d565a526fb52ad554e1aeffde1938c849c0b41b0634ed49c26d7afed5e",
          "blockNumber": "0x731e85",
          "transactionHash": "0xb0d79989404a263deec08feec1dd3a9dde6a3b9858ebc0baed4b432dd9537cee",
          "transactionIndex": "0x7c",
          "logIndex": "0xde",
          "removed": false
        },
        {
          "address": "0x8aafd3ede9adb0ff97c7aebce82a919afb1c8764",
          "topics": [
            "0xddf252ad1be2c89b69c2b068fc378daa952ba7f163c4a11628f55a4df523b3ef",
            "0x000000000000000000000000c77f7fed3b5cc8249adc428c5f44c9063b9734b4",
            "0x000000000000000000000000c77f7fed3b5cc8249adc428c5f44c9063b9734b4"
          ],
          "data": "0x0000000000000000000000000000000000000000000000000023ee6893e790c7",
          "blockHash": "0x932c41d565a526fb52ad554e1aeffde1938c849c0b41b0634ed49c26d7afed5e",
          "blockNumber": "0x731e85",
          "transactionHash": "0xb0d79989404a263deec08feec1dd3a9dde6a3b9858ebc0baed4b432dd9537cee",
          "transactionIndex": "0x7c",
          "logIndex": "0xdf",
          "removed": false
        },
        {
          "address": "0x8aafd3ede9adb0ff97c7aebce82a919afb1c8764",
          "topics": [
            "0x4afcb4a87cdbd9974efdb92ee48bc8d7cd0ae4bf217004db3d080cbaee652ca7"
          ],
          "data": "0x0000000000000000000000000000000000000000000000000000000067906b2400000000000000000000000000000000000000000000000000166debc5202129000000000000000000000000000000000000000000000000001c5ad8d9fb11c9",
          "blockHash": "0x932c41d565a526fb52ad554e1aeffde1938c849c0b41b0634ed49c26d7afed5e",
          "blockNumber": "0x731e85",
          "transactionHash": "0xb0d79989404a263deec08feec1dd3a9dde6a3b9858ebc0baed4b432dd9537cee",
          "transactionIndex": "0x7c",
          "logIndex": "0xe0",
          "removed": false
        }
      ],
      "logsBloom": "0x00000000000000000000000000000000000000000600000000000000000000000000000000000000000000000000000000000000000000004000000000000000000000000000004000000008000000000000000000000000000000000000000000000000020000000000000000000800020000000000000000000010000000000000000000000000000000000000000000000000000000000000010000000000000000000000000000000000000000004000000000000000000000000000000000000002000000800000000000000000000000000000080000000000000020000000000000000000000000000000000000000000000000000000000000000000",
      "type": "0x2",
      "transactionHash": "0xb0d79989404a263deec08feec1dd3a9dde6a3b9858ebc0baed4b432dd9537cee",
      "transactionIndex": "0x7c",
      "blockHash": "0x932c41d565a526fb52ad554e1aeffde1938c849c0b41b0634ed49c26d7afed5e",
      "blockNumber": "0x731e85",
      "gasUsed": "0xfd3f",
      "effectiveGasPrice": "0x45d7e82f",
      "from": "0xc77f7fed3b5cc8249adc428c5f44c9063b9734b4",
      "to": "0x8aafd3ede9adb0ff97c7aebce82a919afb1c8764",
      "contractAddress": null
    }
  ],
  "libraries": [],
  "pending": [],
  "returns": {},
  "timestamp": 1737517861,
  "chain": 11155111,
  "commit": "1d2fb70"
}