{
  "transactions": [
    {
      "hash": "0x836749d5a681aa61b22d65bfdcbcd5be4b731c0b82dc5b8ef7cb4ede877131ed",
      "transactionType": "CALL",
      "contractName": null,
      "contractAddress": "0x5eb9cc76c3506942c1c0ead70e877dd5e4f00cb0",
      "function": "sell(uint256)",
      "arguments": [
        "989117528255782612304"
      ],
      "transaction": {
        "from": "0xc77f7fed3b5cc8249adc428c5f44c9063b9734b4",
        "to": "0x5eb9cc76c3506942c1c0ead70e877dd5e4f00cb0",
        "gas": "0x16fec",
        "value": "0x0",
        "input": "0xe4849b320000000000000000000000000000000000000000000000359ec35f611e526d50",
        "nonce": "0x393",
        "chainId": "0xaa36a7"
      },
      "additionalContracts": [],
      "isFixedGasLimit": false
    }
  ],
  "receipts": [
    {
      "status": "0x1",
      "cumulativeGasUsed": "0xbe37aa",
      "logs": [
        {
          "address": "0x5eb9cc76c3506942c1c0ead70e877dd5e4f00cb0",
          "topics": [
            "0xddf252ad1be2c89b69c2b068fc378daa952ba7f163c4a11628f55a4df523b3ef",
            "0x000000000000000000000000c77f7fed3b5cc8249adc428c5f44c9063b9734b4",
            "0x0000000000000000000000000000000000000000000000000000000000000000"
          ],
          "data": "0x0000000000000000000000000000000000000000000000359ec35f611e526d50",
          "blockHash": "0xe0ae59b488d802014adc25688371dedaed1f03f560291ef5613144711614f104",
          "blockNumber": "0x724f8f",
          "transactionHash": "0x836749d5a681aa61b22d65bfdcbcd5be4b731c0b82dc5b8ef7cb4ede877131ed",
          "transactionIndex": "0x5d",
          "logIndex": "0x91",
          "removed": false
        },
        {
          "address": "0x5eb9cc76c3506942c1c0ead70e877dd5e4f00cb0",
          "topics": [
            "0x4afcb4a87cdbd9974efdb92ee48bc8d7cd0ae4bf217004db3d080cbaee652ca7"
          ],
          "data": "0x000000000000000000000000000000000000000000000000000000006786ac6800000000000000000000000000000000000000000000000000039111546cc9710000000000000000000000000000000000000000000000000dc7db133206a335",
          "blockHash": "0xe0ae59b488d802014adc25688371dedaed1f03f560291ef5613144711614f104",
          "blockNumber": "0x724f8f",
          "transactionHash": "0x836749d5a681aa61b22d65bfdcbcd5be4b731c0b82dc5b8ef7cb4ede877131ed",
          "transactionIndex": "0x5d",
          "logIndex": "0x92",
          "removed": false
        }
      ],
      "logsBloom": "0x00000000000000000000000000000000000000000000000000000000000000000000000000000000000000000000000000000000000000004000000000000000000000000000000000000008000000000000000000000000000000000000000000000000020000000000000004000800020000000000000000000010000000000000000000000000000000000000000000000000000000000000010000000000000000000000000000000000000000004000000000000000000000000000020000000002000000800000008000000000000000000000080000000000000020000000000000000000000000000000000000000000000000000000000000000000",
      "type": "0x2",
      "transactionHash": "0x836749d5a681aa61b22d65bfdcbcd5be4b731c0b82dc5b8ef7cb4ede877131ed",
      "transactionIndex": "0x5d",
      "blockHash": "0xe0ae59b488d802014adc25688371dedaed1f03f560291ef5613144711614f104",
      "blockNumber": "0x724f8f",
      "gasUsed": "0xfb93",
      "effectiveGasPrice": "0x58ea61977",
      "from": "0xc77f7fed3b5cc8249adc428c5f44c9063b9734b4",
      "to": "0x5eb9cc76c3506942c1c0ead70e877dd5e4f00cb0",
      "contractAddress": null
    }
  ],
  "libraries": [],
  "pending": [],
  "returns": {},
  "timestamp": 1736879209,
  "chain": 11155111,
  "commit": "51a374b"
}