{
  "transactions": [
    {
      "hash": "0x7e6c8a7f19470c2e2964e1cc5d37572ceaba4abc0d57c63ada43a44d6e9ff188",
      "transactionType": "CALL",
      "contractName": null,
      "contractAddress": "0x270e88f8683660553e8ba4eb2ad7c91a1710d769",
      "function": "buy(address)",
      "arguments": [
        "0xC77f7fed3b5Cc8249aDc428c5F44C9063B9734b4"
      ],
      "transaction": {
        "from": "0xc77f7fed3b5cc8249adc428c5f44c9063b9734b4",
        "to": "0x270e88f8683660553e8ba4eb2ad7c91a1710d769",
        "gas": "0x1b30c",
        "value": "0xde0b6b3a7640000",
        "input": "0xf088d547000000000000000000000000c77f7fed3b5cc8249adc428c5f44c9063b9734b4",
        "nonce": "0x6f5",
        "chainId": "0xaa36a7"
      },
      "additionalContracts": [],
      "isFixedGasLimit": false
    }
  ],
  "receipts": [
    {
      "status": "0x1",
      "cumulativeGasUsed": "0x60f8cc",
      "logs": [
        {
          "address": "0x270e88f8683660553e8ba4eb2ad7c91a1710d769",
          "topics": [
            "0xddf252ad1be2c89b69c2b068fc378daa952ba7f163c4a11628f55a4df523b3ef",
            "0x0000000000000000000000000000000000000000000000000000000000000000",
            "0x000000000000000000000000c77f7fed3b5cc8249adc428c5f44c9063b9734b4"
          ],
          "data": "0x0000000000000000000000000000000000000000000000285445ce26e78f89ce",
          "blockHash": "0x429509a4cb1a7f3f96573d5c2205e9f4b7c206792e277a7acae91a36e088b1c7",
          "blockNumber": "0x72540a",
          "transactionHash": "0x7e6c8a7f19470c2e2964e1cc5d37572ceaba4abc0d57c63ada43a44d6e9ff188",
          "transactionIndex": "0x32",
          "logIndex": "0x43",
          "removed": false
        },
        {
          "address": "0x270e88f8683660553e8ba4eb2ad7c91a1710d769",
          "topics": [
            "0xddf252ad1be2c89b69c2b068fc378daa952ba7f163c4a11628f55a4df523b3ef",
            "0x0000000000000000000000000000000000000000000000000000000000000000",
            "0x000000000000000000000000c77f7fed3b5cc8249adc428c5f44c9063b9734b4"
          ],
          "data": "0x0000000000000000000000000000000000000000000000001f51265f661434b9",
          "blockHash": "0x429509a4cb1a7f3f96573d5c2205e9f4b7c206792e277a7acae91a36e088b1c7",
          "blockNumber": "0x72540a",
          "transactionHash": "0x7e6c8a7f19470c2e2964e1cc5d37572ceaba4abc0d57c63ada43a44d6e9ff188",
          "transactionIndex": "0x32",
          "logIndex": "0x44",
          "removed": false
        },
        {
          "address": "0x270e88f8683660553e8ba4eb2ad7c91a1710d769",
          "topics": [
            "0x4afcb4a87cdbd9974efdb92ee48bc8d7cd0ae4bf217004db3d080cbaee652ca7"
          ],
          "data": "0x000000000000000000000000000000000000000000000000000000006786e2800000000000000000000000000000000000000000000000000004ba69d68bc8e70000000000000000000000000000000000000000000000000de0b6b3a7640000",
          "blockHash": "0x429509a4cb1a7f3f96573d5c2205e9f4b7c206792e277a7acae91a36e088b1c7",
          "blockNumber": "0x72540a",
          "transactionHash": "0x7e6c8a7f19470c2e2964e1cc5d37572ceaba4abc0d57c63ada43a44d6e9ff188",
          "transactionIndex": "0x32",
          "logIndex": "0x45",
          "removed": false
        }
      ],
      "logsBloom": "0x00000000000000000000000000000000000000000000000000000000000000000000000000000000000000000000000020000000000000004000000000000000000000000000000000000008000000000000000000000000000000000000000000000000020000000000000000000800020000000000000000000010000000000000000000010000000000000000000000000000000000000000010000000000000000000000000000000000000000004000000000000000000000000000000000000002000000800000000000000000000000000000080000008000000020000000000000000000000000000000000000000000000000000000000000000000",
      "type": "0x2",
      "transactionHash": "0x7e6c8a7f19470c2e2964e1cc5d37572ceaba4abc0d57c63ada43a44d6e9ff188",
      "transactionIndex": "0x32",
      "blockHash": "0x429509a4cb1a7f3f96573d5c2205e9f4b7c206792e277a7acae91a36e088b1c7",
      "blockNumber": "0x72540a",
      "gasUsed": "0x13af8",
      "effectiveGasPrice": "0x158b4994c",
      "from": "0xc77f7fed3b5cc8249adc428c5f44c9063b9734b4",
      "to": "0x270e88f8683660553e8ba4eb2ad7c91a1710d769",
      "contractAddress": null
    }
  ],
  "libraries": [],
  "pending": [],
  "returns": {},
  "timestamp": 1736893058,
  "chain": 11155111,
  "commit": "51a374b"
}