{
  "transactions": [
    {
      "hash": "0x6ed8897eb470f35efd518323eb783be1c8d95266aff91aa86db518dc9c1e07dd",
      "transactionType": "CALL",
      "contractName": null,
      "contractAddress": "0xbf4a322f1496e5c3d34a9bcdb4c60567b38c7de2",
      "function": "sell(uint256)",
      "arguments": [
        "979690567755513149732"
      ],
      "transaction": {
        "from": "0xc77f7fed3b5cc8249adc428c5f44c9063b9734b4",
        "to": "0xbf4a322f1496e5c3d34a9bcdb4c60567b38c7de2",
        "gas": "0x16fea",
        "value": "0x0",
        "input": "0xe4849b320000000000000000000000000000000000000000000000351bf014c0241f3924",
        "nonce": "0xc2f",
        "chainId": "0xaa36a7"
      },
      "additionalContracts": [],
      "isFixedGasLimit": false
    }
  ],
  "receipts": [
    {
      "status": "0x1",
      "cumulativeGasUsed": "0x170facb",
      "logs": [
        {
          "address": "0xbf4a322f1496e5c3d34a9bcdb4c60567b38c7de2",
          "topics": [
            "0xddf252ad1be2c89b69c2b068fc378daa952ba7f163c4a11628f55a4df523b3ef",
            "0x000000000000000000000000c77f7fed3b5cc8249adc428c5f44c9063b9734b4",
            "0x0000000000000000000000000000000000000000000000000000000000000000"
          ],
          "data": "0x0000000000000000000000000000000000000000000000351bf014c0241f3924",
          "blockHash": "0x46c4fd0a6215e0d856662f6ebc7f69a75c1a8c85985caabbcc0d2592640a25b1",
          "blockNumber": "0x725c62",
          "transactionHash": "0x6ed8897eb470f35efd518323eb783be1c8d95266aff91aa86db518dc9c1e07dd",
          "transactionIndex": "0x89",
          "logIndex": "0x118",
          "removed": false
        },
        {
          "address": "0xbf4a322f1496e5c3d34a9bcdb4c60567b38c7de2",
          "topics": [
            "0x4afcb4a87cdbd9974efdb92ee48bc8d7cd0ae4bf217004db3d080cbaee652ca7"
          ],
          "data": "0x00000000000000000000000000000000000000000000000000000000678746f4000000000000000000000000000000000000000000000000000399e0e7eb2e390000000000000000000000000000000000000000000000000dc7e3e158cd1de1",
          "blockHash": "0x46c4fd0a6215e0d856662f6ebc7f69a75c1a8c85985caabbcc0d2592640a25b1",
          "blockNumber": "0x725c62",
          "transactionHash": "0x6ed8897eb470f35efd518323eb783be1c8d95266aff91aa86db518dc9c1e07dd",
          "transactionIndex": "0x89",
          "logIndex": "0x119",
          "removed": false
        }
      ],
      "logsBloom": "0x00000000000000000000000000000000000000000000000000000000000000000000000000000000000000000000000000000000000000004000000000000000000000000000000000000008000000000000001000000000000000000000000000000000020000000000000000000800020000000000000000000010000000000000000000000000000000000000000000000000000008000000010000000000000000000000000000000000000000004000000000000000000000000000000000000002000000800000000000001000000000000000080000000000000020000000000000000000000000000000000000000000000000000000000000000000",
      "type": "0x2",
      "transactionHash": "0x6ed8897eb470f35efd518323eb783be1c8d95266aff91aa86db518dc9c1e07dd",
      "transactionIndex": "0x89",
      "blockHash": "0x46c4fd0a6215e0d856662f6ebc7f69a75c1a8c85985caabbcc0d2592640a25b1",
      "blockNumber": "0x725c62",
      "gasUsed": "0xfb91",
      "effectiveGasPrice": "0x18bb902e6",
      "from": "0xc77f7fed3b5cc8249adc428c5f44c9063b9734b4",
      "to": "0xbf4a322f1496e5c3d34a9bcdb4c60567b38c7de2",
      "contractAddress": null
    }
  ],
  "libraries": [],
  "pending": [],
  "returns": {},
  "timestamp": 1736918773,
  "chain": 11155111,
  "commit": "51a374b"
}