{
  "transactions": [
    {
      "hash": "0xe36af3892d502bc0b29fe68fcc4150cae7b45ce044ccacc8d2531207e9fe8b82",
      "transactionType": "CALL",
      "contractName": null,
      "contractAddress": "0x5eb9cc76c3506942c1c0ead70e877dd5e4f00cb0",
      "function": "sell(uint256)",
      "arguments": [
        "989085338788014200608"
      ],
      "transaction": {
        "from": "0xc77f7fed3b5cc8249adc428c5f44c9063b9734b4",
        "to": "0x5eb9cc76c3506942c1c0ead70e877dd5e4f00cb0",
        "gas": "0x16fec",
        "value": "0x0",
        "input": "0xe4849b320000000000000000000000000000000000000000000000359e51033a9e7a1720",
        "nonce": "0x45d",
        "chainId": "0xaa36a7"
      },
      "additionalContracts": [],
      "isFixedGasLimit": false
    }
  ],
  "receipts": [
    {
      "status": "0x1",
      "cumulativeGasUsed": "0x9b1a3e",
      "logs": [
        {
          "address": "0x5eb9cc76c3506942c1c0ead70e877dd5e4f00cb0",
          "topics": [
            "0xddf252ad1be2c89b69c2b068fc378daa952ba7f163c4a11628f55a4df523b3ef",
            "0x000000000000000000000000c77f7fed3b5cc8249adc428c5f44c9063b9734b4",
            "0x0000000000000000000000000000000000000000000000000000000000000000"
          ],
          "data": "0x0000000000000000000000000000000000000000000000359e51033a9e7a1720",
          "blockHash": "0xad48a55ccb29b3c9396113d2707e57d4d264ec0b30614faecd8a1e18365752d4",
          "blockNumber": "0x725081",
          "transactionHash": "0xe36af3892d502bc0b29fe68fcc4150cae7b45ce044ccacc8d2531207e9fe8b82",
          "transactionIndex": "0x63",
          "logIndex": "0xb4",
          "removed": false
        },
        {
          "address": "0x5eb9cc76c3506942c1c0ead70e877dd5e4f00cb0",
          "topics": [
            "0x4afcb4a87cdbd9974efdb92ee48bc8d7cd0ae4bf217004db3d080cbaee652ca7"
          ],
          "data": "0x000000000000000000000000000000000000000000000000000000006786b7d800000000000000000000000000000000000000000000000000039118efdbf32c0000000000000000000000000000000000000000000000000dc7db1331cd5c4e",
          "blockHash": "0xad48a55ccb29b3c9396113d2707e57d4d264ec0b30614faecd8a1e18365752d4",
          "blockNumber": "0x725081",
          "transactionHash": "0xe36af3892d502bc0b29fe68fcc4150cae7b45ce044ccacc8d2531207e9fe8b82",
          "transactionIndex": "0x63",
          "logIndex": "0xb5",
          "removed": false
        }
      ],
      "logsBloom": "0x00000000000000000000000000000000000000000000000000000000000000000000000000000000000000000000000000000000000000004000000000000000000000000000000000000008000000000000000000000000000000000000000000000000020000000000000004000800020000000000000000000010000000000000000000000000000000000000000000000000000000000000010000000000000000000000000000000000000000004000000000000000000000000000020000000002000000800000008000000000000000000000080000000000000020000000000000000000000000000000000000000000000000000000000000000000",
      "type": "0x2",
      "transactionHash": "0xe36af3892d502bc0b29fe68fcc4150cae7b45ce044ccacc8d2531207e9fe8b82",
      "transactionIndex": "0x63",
      "blockHash": "0xad48a55ccb29b3c9396113d2707e57d4d264ec0b30614faecd8a1e18365752d4",
      "blockNumber": "0x725081",
      "gasUsed": "0xfb93",
      "effectiveGasPrice": "0x1f4c192a7",
      "from": "0xc77f7fed3b5cc8249adc428c5f44c9063b9734b4",
      "to": "0x5eb9cc76c3506942c1c0ead70e877dd5e4f00cb0",
      "contractAddress": null
    }
  ],
  "libraries": [],
  "pending": [],
  "returns": {},
  "timestamp": 1736882138,
  "chain": 11155111,
  "commit": "51a374b"
}