{
  "transactions": [
    {
      "hash": "0xf137b0f2f9b87e08b6622d89cccd26d4e5ad59cb4a4e24cd326ad8fb9b51d83e",
      "transactionType": "CALL",
      "contractName": null,
      "contractAddress": "0x5eb9cc76c3506942c1c0ead70e877dd5e4f00cb0",
      "function": "buy(address)",
      "arguments": [
        "0xC77f7fed3b5Cc8249aDc428c5F44C9063B9734b4"
      ],
      "transaction": {
        "from": "0xc77f7fed3b5cc8249adc428c5f44c9063b9734b4",
        "to": "0x5eb9cc76c3506942c1c0ead70e877dd5e4f00cb0",
        "gas": "0x156c8",
        "value": "0xde0b6b3a7640000",
        "input": "0xf088d547000000000000000000000000c77f7fed3b5cc8249adc428c5f44c9063b9734b4",
        "nonce": "0x20d",
        "chainId": "0xaa36a7"
      },
      "additionalContracts": [],
      "isFixedGasLimit": false
    }
  ],
  "receipts": [
    {
      "status": "0x1",
      "cumulativeGasUsed": "0xc76c57",
      "logs": [
        {
          "address": "0x5eb9cc76c3506942c1c0ead70e877dd5e4f00cb0",
          "topics": [
            "0xddf252ad1be2c89b69c2b068fc378daa952ba7f163c4a11628f55a4df523b3ef",
            "0x0000000000000000000000000000000000000000000000000000000000000000",
            "0x000000000000000000000000c77f7fed3b5cc8249adc428c5f44c9063b9734b4"
          ],
          "data": "0x00000000000000000000000000000000000000000000003584b7b5bd2f186a71",
          "blockHash": "0xfdd8fd98843d0defa6af0366e048234d76b837c45252758bf6ce7549cec3d71a",
          "blockNumber": "0x724b28",
          "transactionHash": "0xf137b0f2f9b87e08b6622d89cccd26d4e5ad59cb4a4e24cd326ad8fb9b51d83e",
          "transactionIndex": "0x6b",
          "logIndex": "0xb5",
          "removed": false
        },
        {
          "address": "0x5eb9cc76c3506942c1c0ead70e877dd5e4f00cb0",
          "topics": [
            "0xddf252ad1be2c89b69c2b068fc378daa952ba7f163c4a11628f55a4df523b3ef",
            "0x0000000000000000000000000000000000000000000000000000000000000000",
            "0x000000000000000000000000c77f7fed3b5cc8249adc428c5f44c9063b9734b4"
          ],
          "data": "0x000000000000000000000000000000000000000000000000298f13164f1dcac1",
          "blockHash": "0xfdd8fd98843d0defa6af0366e048234d76b837c45252758bf6ce7549cec3d71a",
          "blockNumber": "0x724b28",
          "transactionHash": "0xf137b0f2f9b87e08b6622d89cccd26d4e5ad59cb4a4e24cd326ad8fb9b51d83e",
          "transactionIndex": "0x6b",
          "logIndex": "0xb6",
          "removed": false
        },
        {
          "address": "0x5eb9cc76c3506942c1c0ead70e877dd5e4f00cb0",
          "topics": [
            "0x4afcb4a87cdbd9974efdb92ee48bc8d7cd0ae4bf217004db3d080cbaee652ca7"
          ],
          "data": "0x0000000000000000000000000000000000000000000000000000000067867788000000000000000000000000000000000000000000000000000390096983b0290000000000000000000000000000000000000000000000000de0b6b3a7640000",
          "blockHash": "0xfdd8fd98843d0defa6af0366e048234d76b837c45252758bf6ce7549cec3d71a",
          "blockNumber": "0x724b28",
          "transactionHash": "0xf137b0f2f9b87e08b6622d89cccd26d4e5ad59cb4a4e24cd326ad8fb9b51d83e",
          "transactionIndex": "0x6b",
          "logIndex": "0xb7",
          "removed": false
        }
      ],
      "logsBloom": "0x00000000000000000000000000000000000000000000000000000000000000000000000000000000000000000000000000000000000000004000000000000000000000000000000000000008000000000000000000000000000000000000000000000000020000000000000004000800020000000000000000000010000000000000000000000000000000000000000000000000000000000000010000000000000000000000000000000000000000004000000000000000000000000000020000000002000000800000008000000000000000000000080000000000000020000000000000000000000000000000000000000000000000000000000000000000",
      "type": "0x2",
      "transactionHash": "0xf137b0f2f9b87e08b6622d89cccd26d4e5ad59cb4a4e24cd326ad8fb9b51d83e",
      "transactionIndex": "0x6b",
      "blockHash": "0xfdd8fd98843d0defa6af0366e048234d76b837c45252758bf6ce7549cec3d71a",
      "blockNumber": "0x724b28",
      "gasUsed": "0xf82c",
      "effectiveGasPrice": "0x526e19d33",
      "from": "0xc77f7fed3b5cc8249adc428c5f44c9063b9734b4",
      "to": "0x5eb9cc76c3506942c1c0ead70e877dd5e4f00cb0",
      "contractAddress": null
    }
  ],
  "libraries": [],
  "pending": [],
  "returns": {},
  "timestamp": 1736865673,
  "chain": 11155111,
  "commit": "51a374b"
}