{
  "transactions": [
    {
      "hash": "0x2cea6d1af18f5a9c819f0b31a4cb9f51f6b40a75151f3a4ecb1035f2048c838b",
      "transactionType": "CALL",
      "contractName": null,
      "contractAddress": "0xbf4a322f1496e5c3d34a9bcdb4c60567b38c7de2",
      "function": "sell(uint256)",
      "arguments": [
        "983813776236278642957"
      ],
      "transaction": {
        "from": "0xc77f7fed3b5cc8249adc428c5f44c9063b9734b4",
        "to": "0xbf4a322f1496e5c3d34a9bcdb4c60567b38c7de2",
        "gas": "0x16fea",
        "value": "0x0",
        "input": "0xe4849b320000000000000000000000000000000000000000000000355528a904a306f90d",
        "nonce": "0xafd",
        "chainId": "0xaa36a7"
      },
      "additionalContracts": [],
      "isFixedGasLimit": false
    }
  ],
  "receipts": [
    {
      "status": "0x1",
      "cumulativeGasUsed": "0x1177fcf",
      "logs": [
        {
          "address": "0xbf4a322f1496e5c3d34a9bcdb4c60567b38c7de2",
          "topics": [
            "0xddf252ad1be2c89b69c2b068fc378daa952ba7f163c4a11628f55a4df523b3ef",
            "0x000000000000000000000000c77f7fed3b5cc8249adc428c5f44c9063b9734b4",
            "0x0000000000000000000000000000000000000000000000000000000000000000"
          ],
          "data": "0x0000000000000000000000000000000000000000000000355528a904a306f90d",
          "blockHash": "0x4b67188a839f4d327c76a7388547dc4a3a29f3a3bb862b664400101ee90c3f7e",
          "blockNumber": "0x725af2",
          "transactionHash": "0x2cea6d1af18f5a9c819f0b31a4cb9f51f6b40a75151f3a4ecb1035f2048c838b",
          "transactionIndex": "0x84",
          "logIndex": "0x127",
          "removed": false
        },
        {
          "address": "0xbf4a322f1496e5c3d34a9bcdb4c60567b38c7de2",
          "topics": [
            "0x4afcb4a87cdbd9974efdb92ee48bc8d7cd0ae4bf217004db3d080cbaee652ca7"
          ],
          "data": "0x00000000000000000000000000000000000000000000000000000000678735a800000000000000000000000000000000000000000000000000039603d7a9b7eb0000000000000000000000000000000000000000000000000dc7e3eaeef4c781",
          "blockHash": "0x4b67188a839f4d327c76a7388547dc4a3a29f3a3bb862b664400101ee90c3f7e",
          "blockNumber": "0x725af2",
          "transactionHash": "0x2cea6d1af18f5a9c819f0b31a4cb9f51f6b40a75151f3a4ecb1035f2048c838b",
          "transactionIndex": "0x84",
          "logIndex": "0x128",
          "removed": false
        }
      ],
      "logsBloom": "0x00000000000000000000000000000000000000000000000000000000000000000000000000000000000000000000000000000000000000004000000000000000000000000000000000000008000000000000001000000000000000000000000000000000020000000000000000000800020000000000000000000010000000000000000000000000000000000000000000000000000008000000010000000000000000000000000000000000000000004000000000000000000000000000000000000002000000800000000000001000000000000000080000000000000020000000000000000000000000000000000000000000000000000000000000000000",
      "type": "0x2",
      "transactionHash": "0x2cea6d1af18f5a9c819f0b31a4cb9f51f6b40a75151f3a4ecb1035f2048c838b",
      "transactionIndex": "0x84",
      "blockHash": "0x4b67188a839f4d327c76a7388547dc4a3a29f3a3bb862b664400101ee90c3f7e",
      "blockNumber": "0x725af2",
      "gasUsed": "0xfb91",
      "effectiveGasPrice": "0x8f6333f9",
      "from": "0xc77f7fed3b5cc8249adc428c5f44c9063b9734b4",
      "to": "0xbf4a322f1496e5c3d34a9bcdb4c60567b38c7de2",
      "contractAddress": null
    }
  ],
  "libraries": [],
  "pending": [],
  "returns": {},
  "timestamp": 1736914345,
  "chain": 11155111,
  "commit": "51a374b"
}