{
  "transactions": [
    {
      "hash": "0x8a56cfd9b777657b27866a395992f31a7a19817bfcc1006a9acd6220af48dc22",
      "transactionType": "CALL",
      "contractName": null,
      "contractAddress": "0x8aafd3ede9adb0ff97c7aebce82a919afb1c8764",
      "function": "sell(uint256)",
      "arguments": [
        "5706913385515412872"
      ],
      "transaction": {
        "from": "0xc77f7fed3b5cc8249adc428c5f44c9063b9734b4",
        "to": "0x8aafd3ede9adb0ff97c7aebce82a919afb1c8764",
        "gas": "0x15dca",
        "value": "0x0",
        "input": "0xe4849b320000000000000000000000000000000000000000000000004f33077cd3916d88",
        "nonce": "0x1056",
        "chainId": "0xaa36a7"
      },
      "additionalContracts": [],
      "isFixedGasLimit": false
    }
  ],
  "receipts": [
    {
      "status": "0x1",
      "cumulativeGasUsed": "0x110d7cd",
      "logs": [
        {
          "address": "0x8aafd3ede9adb0ff97c7aebce82a919afb1c8764",
          "topics": [
            "0xddf252ad1be2c89b69c2b068fc378daa952ba7f163c4a11628f55a4df523b3ef",
            "0x000000000000000000000000c77f7fed3b5cc8249adc428c5f44c9063b9734b4",
            "0x0000000000000000000000000000000000000000000000000000000000000000"
          ],
          "data": "0x0000000000000000000000000000000000000000000000004e90d43a4ab520e2",
          "blockHash": "0x6f2ac70d632bcf5c693f2b2ec141e7f9c6a08f8e68ab35bf33583243cf870a09",
          "blockNumber": "0x7316d9",
          "transactionHash": "0x8a56cfd9b777657b27866a395992f31a7a19817bfcc1006a9acd6220af48dc22",
          "transactionIndex": "0x92",
          "logIndex": "0x107",
          "removed": false
        },
        {
          "address": "0x8aafd3ede9adb0ff97c7aebce82a919afb1c8764",
          "topics": [
            "0xddf252ad1be2c89b69c2b068fc378daa952ba7f163c4a11628f55a4df523b3ef",
            "0x000000000000000000000000c77f7fed3b5cc8249adc428c5f44c9063b9734b4",
            "0x000000000000000000000000c77f7fed3b5cc8249adc428c5f44c9063b9734b4"
          ],
          "data": "0x00000000000000000000000000000000000000000000000000a2334288dc4ca6",
          "blockHash": "0x6f2ac70d632bcf5c693f2b2ec141e7f9c6a08f8e68ab35bf33583243cf870a09",
          "blockNumber": "0x7316d9",
          "transactionHash": "0x8a56cfd9b777657b27866a395992f31a7a19817bfcc1006a9acd6220af48dc22",
          "transactionIndex": "0x92",
          "logIndex": "0x108",
          "removed": false
        },
        {
          "address": "0x8aafd3ede9adb0ff97c7aebce82a919afb1c8764",
          "topics": [
            "0x4afcb4a87cdbd9974efdb92ee48bc8d7cd0ae4bf217004db3d080cbaee652ca7"
          ],
          "data": "0x0000000000000000000000000000000000000000000000000000000067900ee40000000000000000000000000000000000000000000000000004f37804ada55c000000000000000000000000000000000000000000000000001c414998ef8539",
          "blockHash": "0x6f2ac70d632bcf5c693f2b2ec141e7f9c6a08f8e68ab35bf33583243cf870a09",
          "blockNumber": "0x7316d9",
          "transactionHash": "0x8a56cfd9b777657b27866a395992f31a7a19817bfcc1006a9acd6220af48dc22",
          "transactionIndex": "0x92",
          "logIndex": "0x109",
          "removed": false
        }
      ],
      "logsBloom": "0x00000000000000000000000000000000000000000600000000000000000000000000000000000000000000000000000000000000000000004000000000000000000000000000004000000008000000000000000000000000000000000000000000000000020000000000000000000800020000000000000000000010000000000000000000000000000000000000000000000000000000000000010000000000000000000000000000000000000000004000000000000000000000000000000000000002000000800000000000000000000000000000080000000000000020000000000000000000000000000000000000000000000000000000000000000000",
      "type": "0x2",
      "transactionHash": "0x8a56cfd9b777657b27866a395992f31a7a19817bfcc1006a9acd6220af48dc22",
      "transactionIndex": "0x92",
      "blockHash": "0x6f2ac70d632bcf5c693f2b2ec141e7f9c6a08f8e68ab35bf33583243cf870a09",
      "blockNumber": "0x7316d9",
      "gasUsed": "0xfd3f",
      "effectiveGasPrice": "0x3d315672",
      "from": "0xc77f7fed3b5cc8249adc428c5f44c9063b9734b4",
      "to": "0x8aafd3ede9adb0ff97c7aebce82a919afb1c8764",
      "contractAddress": null
    }
  ],
  "libraries": [],
  "pending": [],
  "returns": {},
  "timestamp": 1737494245,
  "chain": 11155111,
  "commit": "1d2fb70"
}