{
  "transactions": [
    {
      "hash": "0x5816fd2e972f3fc63cd34419d2de52b6e002d6a0d09f7d2008f264991a2fb788",
      "transactionType": "CALL",
      "contractName": null,
      "contractAddress": "0x8aafd3ede9adb0ff97c7aebce82a919afb1c8764",
      "function": "sell(uint256)",
      "arguments": [
        "1568164"
      ],
      "transaction": {
        "from": "0xc77f7fed3b5cc8249adc428c5f44c9063b9734b4",
        "to": "0x8aafd3ede9adb0ff97c7aebce82a919afb1c8764",
        "gas": "0x16208",
        "value": "0x0",
        "input": "0xe4849b32000000000000000000000000000000000000000000000000000000000017eda4",
        "nonce": "0xeb7",
        "chainId": "0xaa36a7"
      },
      "additionalContracts": [],
      "isFixedGasLimit": false
    }
  ],
  "receipts": [
    {
      "status": "0x1",
      "cumulativeGasUsed": "0x100edec",
      "logs": [
        {
          "address": "0x8aafd3ede9adb0ff97c7aebce82a919afb1c8764",
          "topics": [
            "0xddf252ad1be2c89b69c2b068fc378daa952ba7f163c4a11628f55a4df523b3ef",
            "0x000000000000000000000000c77f7fed3b5cc8249adc428c5f44c9063b9734b4",
            "0x0000000000000000000000000000000000000000000000000000000000000000"
          ],
          "data": "0x000000000000000000000000000000000000000000000000000000000017bca3",
          "blockHash": "0xa93e4e0dd90ac8b211c4b02b301c0d40715c2807ca6b8ae2932493d1ec4501fa",
          "blockNumber": "0x73141a",
          "transactionHash": "0x5816fd2e972f3fc63cd34419d2de52b6e002d6a0d09f7d2008f264991a2fb788",
          "transactionIndex": "0xa7",
          "logIndex": "0x105",
          "removed": false
        },
        {
          "address": "0x8aafd3ede9adb0ff97c7aebce82a919afb1c8764",
          "topics": [
            "0xddf252ad1be2c89b69c2b068fc378daa952ba7f163c4a11628f55a4df523b3ef",
            "0x000000000000000000000000c77f7fed3b5cc8249adc428c5f44c9063b9734b4",
            "0x000000000000000000000000c77f7fed3b5cc8249adc428c5f44c9063b9734b4"
          ],
          "data": "0x0000000000000000000000000000000000000000000000000000000000003101",
          "blockHash": "0xa93e4e0dd90ac8b211c4b02b301c0d40715c2807ca6b8ae2932493d1ec4501fa",
          "blockNumber": "0x73141a",
          "transactionHash": "0x5816fd2e972f3fc63cd34419d2de52b6e002d6a0d09f7d2008f264991a2fb788",
          "transactionIndex": "0xa7",
          "logIndex": "0x106",
          "removed": false
        },
        {
          "address": "0x8aafd3ede9adb0ff97c7aebce82a919afb1c8764",
          "topics": [
            "0x4afcb4a87cdbd9974efdb92ee48bc8d7cd0ae4bf217004db3d080cbaee652ca7"
          ],
          "data": "0x00000000000000000000000000000000000000000000000000000000678fede40000000000000000000000000000000000000000000000000004b832f5b36a720000000000000000000000000000000000000000000000000000000000000823",
          "blockHash": "0xa93e4e0dd90ac8b211c4b02b301c0d40715c2807ca6b8ae2932493d1ec4501fa",
          "blockNumber": "0x73141a",
          "transactionHash": "0x5816fd2e972f3fc63cd34419d2de52b6e002d6a0d09f7d2008f264991a2fb788",
          "transactionIndex": "0xa7",
          "logIndex": "0x107",
          "removed": false
        }
      ],
      "logsBloom": "0x00000000000000000000000000000000000000000600000000000000000000000000000000000000000000000000000000000000000000004000000000000000000000000000004000000008000000000000000000000000000000000000000000000000020000000000000000000800020000000000000000000010000000000000000000000000000000000000000000000000000000000000010000000000000000000000000000000000000000004000000000000000000000000000000000000002000000800000000000000000000000000000080000000000000020000000000000000000000000000000000000000000000000000000000000000000",
      "type": "0x2",
      "transactionHash": "0x5816fd2e972f3fc63cd34419d2de52b6e002d6a0d09f7d2008f264991a2fb788",
      "transactionIndex": "0xa7",
      "blockHash": "0xa93e4e0dd90ac8b211c4b02b301c0d40715c2807ca6b8ae2932493d1ec4501fa",
      "blockNumber": "0x73141a",
      "gasUsed": "0xf213",
      "effectiveGasPrice": "0xaa2d88b3",
      "from": "0xc77f7fed3b5cc8249adc428c5f44c9063b9734b4",
      "to": "0x8aafd3ede9adb0ff97c7aebce82a919afb1c8764",
      "contractAddress": null
    }
  ],
  "libraries": [],
  "pending": [],
  "returns": {},
  "timestamp": 1737485797,
  "chain": 11155111,
  "commit": "51a374b"
}