{
  "transactions": [
    {
      "hash": "0xf905d903e08358289bd624a867b320d1e96c1dda05baff5d1d806d779e9d680b",
      "transactionType": "CALL",
      "contractName": null,
      "contractAddress": "0x8aafd3ede9adb0ff97c7aebce82a919afb1c8764",
      "function": "sell(uint256)",
      "arguments": [
        "460464"
      ],
      "transaction": {
        "from": "0xc77f7fed3b5cc8249adc428c5f44c9063b9734b4",
        "to": "0x8aafd3ede9adb0ff97c7aebce82a919afb1c8764",
        "gas": "0x16208",
        "value": "0x0",
        "input": "0xe4849b3200000000000000000000000000000000000000000000000000000000000706b0",
        "nonce": "0x14b5",
        "chainId": "0xaa36a7"
      },
      "additionalContracts": [],
      "isFixedGasLimit": false
    }
  ],
  "receipts": [
    {
      "status": "0x1",
      "cumulativeGasUsed": "0x15245ce",
      "logs": [
        {
          "address": "0x8aafd3ede9adb0ff97c7aebce82a919afb1c8764",
          "topics": [
            "0xddf252ad1be2c89b69c2b068fc378daa952ba7f163c4a11628f55a4df523b3ef",
            "0x000000000000000000000000c77f7fed3b5cc8249adc428c5f44c9063b9734b4",
            "0x0000000000000000000000000000000000000000000000000000000000000000"
          ],
          "data": "0x000000000000000000000000000000000000000000000000000000000006f84d",
          "blockHash": "0x4850cf573eb94095901a6d06ea625cc5fcfb5ce1daa5752ab3331b381097c7ce",
          "blockNumber": "0x731c0e",
          "transactionHash": "0xf905d903e08358289bd624a867b320d1e96c1dda05baff5d1d806d779e9d680b",
          "transactionIndex": "0xe0",
          "logIndex": "0x16a",
          "removed": false
        },
        {
          "address": "0x8aafd3ede9adb0ff97c7aebce82a919afb1c8764",
          "topics": [
            "0xddf252ad1be2c89b69c2b068fc378daa952ba7f163c4a11628f55a4df523b3ef",
            "0x000000000000000000000000c77f7fed3b5cc8249adc428c5f44c9063b9734b4",
            "0x000000000000000000000000c77f7fed3b5cc8249adc428c5f44c9063b9734b4"
          ],
          "data": "0x0000000000000000000000000000000000000000000000000000000000000e63",
          "blockHash": "0x4850cf573eb94095901a6d06ea625cc5fcfb5ce1daa5752ab3331b381097c7ce",
          "blockNumber": "0x731c0e",
          "transactionHash": "0xf905d903e08358289bd624a867b320d1e96c1dda05baff5d1d806d779e9d680b",
          "transactionIndex": "0xe0",
          "logIndex": "0x16b",
          "removed": false
        },
        {
          "address": "0x8aafd3ede9adb0ff97c7aebce82a919afb1c8764",
          "topics": [
            "0x4afcb4a87cdbd9974efdb92ee48bc8d7cd0ae4bf217004db3d080cbaee652ca7"
          ],
          "data": "0x0000000000000000000000000000000000000000000000000000000067904d8400000000000000000000000000000000000000000000000000102bb6324808b4000000000000000000000000000000000000000000000000000000000000082f",
          "blockHash": "0x4850cf573eb94095901a6d06ea625cc5fcfb5ce1daa5752ab3331b381097c7ce",
          "blockNumber": "0x731c0e",
          "transactionHash": "0xf905d903e08358289bd624a867b320d1e96c1dda05baff5d1d806d779e9d680b",
          "transactionIndex": "0xe0",
          "logIndex": "0x16c",
          "removed": false
        }
      ],
      "logsBloom": "0x00000000000000000000000000000000000000000600000000000000000000000000000000000000000000000000000000000000000000004000000000000000000000000000004000000008000000000000000000000000000000000000000000000000020000000000000000000800020000000000000000000010000000000000000000000000000000000000000000000000000000000000010000000000000000000000000000000000000000004000000000000000000000000000000000000002000000800000000000000000000000000000080000000000000020000000000000000000000000000000000000000000000000000000000000000000",
      "type": "0x2",
      "transactionHash": "0xf905d903e08358289bd624a867b320d1e96c1dda05baff5d1d806d779e9d680b",
      "transactionIndex": "0xe0",
      "blockHash": "0x4850cf573eb94095901a6d06ea625cc5fcfb5ce1daa5752ab3331b381097c7ce",
      "blockNumber": "0x731c0e",
      "gasUsed": "0xf213",
      "effectiveGasPrice": "0xf1c72f10",
      "from": "0xc77f7fed3b5cc8249adc428c5f44c9063b9734b4",
      "to": "0x8aafd3ede9adb0ff97c7aebce82a919afb1c8764",
      "contractAddress": null
    }
  ],
  "libraries": [],
  "pending": [],
  "returns": {},
  "timestamp": 1737510277,
  "chain": 11155111,
  "commit": "1d2fb70"
}