{
  "transactions": [
    {
      "hash": "0xc5dfa8d1ee60e5c39e289cd37a5732ad1792257ce16c3fafe067f88ebb022e80",
      "transactionType": "CALL",
      "contractName": null,
      "contractAddress": "0x8aafd3ede9adb0ff97c7aebce82a919afb1c8764",
      "function": "sell(uint256)",
      "arguments": [
        "2948998735517"
      ],
      "transaction": {
        "from": "0xc77f7fed3b5cc8249adc428c5f44c9063b9734b4",
        "to": "0x8aafd3ede9adb0ff97c7aebce82a919afb1c8764",
        "gas": "0x15daa",
        "value": "0x0",
        "input": "0xe4849b32000000000000000000000000000000000000000000000000000002ae9e05a69d",
        "nonce": "0x1009",
        "chainId": "0xaa36a7"
      },
      "additionalContracts": [],
      "isFixedGasLimit": false
    }
  ],
  "receipts": [
    {
      "status": "0x1",
      "cumulativeGasUsed": "0x10b80e7",
      "logs": [
        {
          "address": "0x8aafd3ede9adb0ff97c7aebce82a919afb1c8764",
          "topics": [
            "0xddf252ad1be2c89b69c2b068fc378daa952ba7f163c4a11628f55a4df523b3ef",
            "0x000000000000000000000000c77f7fed3b5cc8249adc428c5f44c9063b9734b4",
            "0x0000000000000000000000000000000000000000000000000000000000000000"
          ],
          "data": "0x000000000000000000000000000000000000000000000000000002a91fd47421",
          "blockHash": "0x49dd824a93087e3f248d31e4f1697a09c38796de07e23767070e0d699877a3a3",
          "blockNumber": "0x73167e",
          "transactionHash": "0xc5dfa8d1ee60e5c39e289cd37a5732ad1792257ce16c3fafe067f88ebb022e80",
          "transactionIndex": "0xb6",
          "logIndex": "0xff",
          "removed": false
        },
        {
          "address": "0x8aafd3ede9adb0ff97c7aebce82a919afb1c8764",
          "topics": [
            "0xddf252ad1be2c89b69c2b068fc378daa952ba7f163c4a11628f55a4df523b3ef",
            "0x000000000000000000000000c77f7fed3b5cc8249adc428c5f44c9063b9734b4",
            "0x000000000000000000000000c77f7fed3b5cc8249adc428c5f44c9063b9734b4"
          ],
          "data": "0x000000000000000000000000000000000000000000000000000000057e31327c",
          "blockHash": "0x49dd824a93087e3f248d31e4f1697a09c38796de07e23767070e0d699877a3a3",
          "blockNumber": "0x73167e",
          "transactionHash": "0xc5dfa8d1ee60e5c39e289cd37a5732ad1792257ce16c3fafe067f88ebb022e80",
          "transactionIndex": "0xb6",
          "logIndex": "0x100",
          "removed": false
        },
        {
          "address": "0x8aafd3ede9adb0ff97c7aebce82a919afb1c8764",
          "topics": [
            "0x4afcb4a87cdbd9974efdb92ee48bc8d7cd0ae4bf217004db3d080cbaee652ca7"
          ],
          "data": "0x0000000000000000000000000000000000000000000000000000000067900a940000000000000000000000000000000000000000000000000004e7da261835b000000000000000000000000000000000000000000000000000000000f2b686cc",
          "blockHash": "0x49dd824a93087e3f248d31e4f1697a09c38796de07e23767070e0d699877a3a3",
          "blockNumber": "0x73167e",
          "transactionHash": "0xc5dfa8d1ee60e5c39e289cd37a5732ad1792257ce16c3fafe067f88ebb022e80",
          "transactionIndex": "0xb6",
          "logIndex": "0x101",
          "removed": false
        }
      ],
      "logsBloom": "0x00000000000000000000000000000000000000000600000000000000000000000000000000000000000000000000000000000000000000004000000000000000000000000000004000000008000000000000000000000000000000000000000000000000020000000000000000000800020000000000000000000010000000000000000000000000000000000000000000000000000000000000010000000000000000000000000000000000000000004000000000000000000000000000000000000002000000800000000000000000000000000000080000000000000020000000000000000000000000000000000000000000000000000000000000000000",
      "type": "0x2",
      "transactionHash": "0xc5dfa8d1ee60e5c39e289cd37a5732ad1792257ce16c3fafe067f88ebb022e80",
      "transactionIndex": "0xb6",
      "blockHash": "0x49dd824a93087e3f248d31e4f1697a09c38796de07e23767070e0d699877a3a3",
      "blockNumber": "0x73167e",
      "gasUsed": "0xfd27",
      "effectiveGasPrice": "0x3ac57d76",
      "from": "0xc77f7fed3b5cc8249adc428c5f44c9063b9734b4",
      "to": "0x8aafd3ede9adb0ff97c7aebce82a919afb1c8764",
      "contractAddress": null
    }
  ],
  "libraries": [],
  "pending": [],
  "returns": {},
  "timestamp": 1737493141,
  "chain": 11155111,
  "commit": "1d2fb70"
}