{
  "transactions": [
    {
      "hash": "0xb5b0cb194e34dbad2927d98f6b0cd41ad6663031ff1503660be670cb03b87321",
      "transactionType": "CALL",
      "contractName": null,
      "contractAddress": "0x9a940ef65f8bf33332aa4faea921454828f0c80a",
      "function": "buy(address)",
      "arguments": [
        "0xF66076775AD1f36dd12C1f1b10C21d1aadf0D6dE"
      ],
      "transaction": {
        "from": "0xf66076775ad1f36dd12c1f1b10c21d1aadf0d6de",
        "to": "0x9a940ef65f8bf33332aa4faea921454828f0c80a",
        "gas": "0x14787",
        "value": "0x2386f26fc10000",
        "input": "0xf088d547000000000000000000000000f66076775ad1f36dd12c1f1b10c21d1aadf0d6de",
        "nonce": "0x6d",
        "chainId": "0xaa36a7"
      },
      "additionalContracts": [],
      "isFixedGasLimit": false
    }
  ],
  "receipts": [
    {
      "status": "0x1",
      "cumulativeGasUsed": "0xc94836",
      "logs": [
        {
          "address": "0x9a940ef65f8bf33332aa4faea921454828f0c80a",
          "topics": [
            "0xddf252ad1be2c89b69c2b068fc378daa952ba7f163c4a11628f55a4df523b3ef",
            "0x0000000000000000000000000000000000000000000000000000000000000000",
            "0x000000000000000000000000f66076775ad1f36dd12c1f1b10c21d1aadf0d6de"
          ],
          "data": "0x0000000000000000000000000000000000000000000000003e01d3d2f494e39e",
          "blockHash": "0xb2ea899307215a43b7a36695cfbe7fe5bf2eeced2378b3ebb10b95278073db9a",
          "blockNumber": "0x73d4cf",
          "transactionHash": "0xb5b0cb194e34dbad2927d98f6b0cd41ad6663031ff1503660be670cb03b87321",
          "transactionIndex": "0x6d",
          "logIndex": "0xb4",
          "removed": false
        },
        {
          "address": "0x9a940ef65f8bf33332aa4faea921454828f0c80a",
          "topics": [
            "0x4afcb4a87cdbd9974efdb92ee48bc8d7cd0ae4bf217004db3d080cbaee652ca7"
          ],
          "data": "0x0000000000000000000000000000000000000000000000000000000067993d340000000000000000000000000000000000000000000000000007df5f0c38e9a6000000000000000000000000000000000000000000000000002386f26fc10000",
          "blockHash": "0xb2ea899307215a43b7a36695cfbe7fe5bf2eeced2378b3ebb10b95278073db9a",
          "blockNumber": "0x73d4cf",
          "transactionHash": "0xb5b0cb194e34dbad2927d98f6b0cd41ad6663031ff1503660be670cb03b87321",
          "transactionIndex": "0x6d",
          "logIndex": "0xb5",
          "removed": false
        }
      ],
      "logsBloom": "0x80000000000000040000000000000000000000000000000000000000000000000000000000000000000000000000000000000000000000004000000000000000000000000000000000000008000000000000000000000000000000000000000000000000020000000000800000000800220000000000000000000010000000000000000000000000000000000000000000000000000000000000000000000000000000000000000000000000000000004000000000000000000000000000000000000002000000000000000000000000000000000000000000000020000020000000000000000000000000200000000000000000000000000000000000000000",
      "type": "0x2",
      "transactionHash": "0xb5b0cb194e34dbad2927d98f6b0cd41ad6663031ff1503660be670cb03b87321",
      "transactionIndex": "0x6d",
      "blockHash": "0xb2ea899307215a43b7a36695cfbe7fe5bf2eeced2378b3ebb10b95278073db9a",
      "blockNumber": "0x73d4cf",
      "gasUsed": "0xed20",
      "effectiveGasPrice": "0x45bd1cc1",
      "from": "0xf66076775ad1f36dd12c1f1b10c21d1aadf0d6de",
      "to": "0x9a940ef65f8bf33332aa4faea921454828f0c80a",
      "contractAddress": null
    }
  ],
  "libraries": [],
  "pending": [],
  "returns": {},
  "timestamp": 1738095925,
  "chain": 11155111,
  "commit": "b9c1499"
}