{
  "transactions": [
    {
      "hash": "0x2e53481e06187fac6eb09772811a57f5184218107d5d87afa67f41d3f36f4366",
      "transactionType": "CALL",
      "contractName": null,
      "contractAddress": "0x270e88f8683660553e8ba4eb2ad7c91a1710d769",
      "function": "sell(uint256)",
      "arguments": [
        "736571996441803848680"
      ],
      "transaction": {
        "from": "0xc77f7fed3b5cc8249adc428c5f44c9063b9734b4",
        "to": "0x270e88f8683660553e8ba4eb2ad7c91a1710d769",
        "gas": "0x16fec",
        "value": "0x0",
        "input": "0xe4849b32000000000000000000000000000000000000000000000027edfd683cf6017be8",
        "nonce": "0x762",
        "chainId": "0xaa36a7"
      },
      "additionalContracts": [],
      "isFixedGasLimit": false
    }
  ],
  "receipts": [
    {
      "status": "0x1",
      "cumulativeGasUsed": "0x58abf0",
      "logs": [
        {
          "address": "0x270e88f8683660553e8ba4eb2ad7c91a1710d769",
          "topics": [
            "0xddf252ad1be2c89b69c2b068fc378daa952ba7f163c4a11628f55a4df523b3ef",
            "0x000000000000000000000000c77f7fed3b5cc8249adc428c5f44c9063b9734b4",
            "0x0000000000000000000000000000000000000000000000000000000000000000"
          ],
          "data": "0x000000000000000000000000000000000000000000000027edfd683cf6017be8",
          "blockHash": "0xa98a529c2589d3a42e57906abee19d20b26f4ff7a7f98dc7100c9d0be9caa4ac",
          "blockNumber": "0x72548b",
          "transactionHash": "0x2e53481e06187fac6eb09772811a57f5184218107d5d87afa67f41d3f36f4366",
          "transactionIndex": "0x2c",
          "logIndex": "0x5f",
          "removed": false
        },
        {
          "address": "0x270e88f8683660553e8ba4eb2ad7c91a1710d769",
          "topics": [
            "0x4afcb4a87cdbd9974efdb92ee48bc8d7cd0ae4bf217004db3d080cbaee652ca7"
          ],
          "data": "0x000000000000000000000000000000000000000000000000000000006786e88c0000000000000000000000000000000000000000000000000004ca6b8f8285440000000000000000000000000000000000000000000000000dc82825256f5f68",
          "blockHash": "0xa98a529c2589d3a42e57906abee19d20b26f4ff7a7f98dc7100c9d0be9caa4ac",
          "blockNumber": "0x72548b",
          "transactionHash": "0x2e53481e06187fac6eb09772811a57f5184218107d5d87afa67f41d3f36f4366",
          "transactionIndex": "0x2c",
          "logIndex": "0x60",
          "removed": false
        }
      ],
      "logsBloom": "0x00000000000000000000000000000000000000000000000000000000000000000000000000000000000000000000000020000000000000004000000000000000000000000000000000000008000000000000000000000000000000000000000000000000020000000000000000000800020000000000000000000010000000000000000000010000000000000000000000000000000000000000010000000000000000000000000000000000000000004000000000000000000000000000000000000002000000800000000000000000000000000000080000008000000020000000000000000000000000000000000000000000000000000000000000000000",
      "type": "0x2",
      "transactionHash": "0x2e53481e06187fac6eb09772811a57f5184218107d5d87afa67f41d3f36f4366",
      "transactionIndex": "0x2c",
      "blockHash": "0xa98a529c2589d3a42e57906abee19d20b26f4ff7a7f98dc7100c9d0be9caa4ac",
      "blockNumber": "0x72548b",
      "gasUsed": "0xfb93",
      "effectiveGasPrice": "0x15d1b8c4e",
      "from": "0xc77f7fed3b5cc8249adc428c5f44c9063b9734b4",
      "to": "0x270e88f8683660553e8ba4eb2ad7c91a1710d769",
      "contractAddress": null
    }
  ],
  "libraries": [],
  "pending": [],
  "returns": {},
  "timestamp": 1736894605,
  "chain": 11155111,
  "commit": "51a374b"
}