{
  "transactions": [
    {
      "hash": "0xadf66bbc888ad326492378ad827522efff62599e912c38856a2bbef8620baa6b",
      "transactionType": "CALL",
      "contractName": null,
      "contractAddress": "0x5eb9cc76c3506942c1c0ead70e877dd5e4f00cb0",
      "function": "buy(address)",
      "arguments": [
        "0xC77f7fed3b5Cc8249aDc428c5F44C9063B9734b4"
      ],
      "transaction": {
        "from": "0xc77f7fed3b5cc8249adc428c5f44c9063b9734b4",
        "to": "0x5eb9cc76c3506942c1c0ead70e877dd5e4f00cb0",
        "gas": "0x156c8",
        "value": "0xde0b6b3a7640000",
        "input": "0xf088d547000000000000000000000000c77f7fed3b5cc8249adc428c5f44c9063b9734b4",
        "nonce": "0x134",
        "chainId": "0xaa36a7"
      },
      "additionalContracts": [],
      "isFixedGasLimit": false
    }
  ],
  "receipts": [
    {
      "status": "0x1",
      "cumulativeGasUsed": "0xbe3802",
      "logs": [
        {
          "address": "0x5eb9cc76c3506942c1c0ead70e877dd5e4f00cb0",
          "topics": [
            "0xddf252ad1be2c89b69c2b068fc378daa952ba7f163c4a11628f55a4df523b3ef",
            "0x0000000000000000000000000000000000000000000000000000000000000000",
            "0x000000000000000000000000c77f7fed3b5cc8249adc428c5f44c9063b9734b4"
          ],
          "data": "0x000000000000000000000000000000000000000000000035aafd97867381b9a5",
          "blockHash": "0x9c6d16c3a1a27315b0488503f2174319e19b82c7c2ae04069ce89beaf7387053",
          "blockNumber": "0x723b16",
          "transactionHash": "0xadf66bbc888ad326492378ad827522efff62599e912c38856a2bbef8620baa6b",
          "transactionIndex": "0x5b",
          "logIndex": "0xd7",
          "removed": false
        },
        {
          "address": "0x5eb9cc76c3506942c1c0ead70e877dd5e4f00cb0",
          "topics": [
            "0xddf252ad1be2c89b69c2b068fc378daa952ba7f163c4a11628f55a4df523b3ef",
            "0x0000000000000000000000000000000000000000000000000000000000000000",
            "0x000000000000000000000000c77f7fed3b5cc8249adc428c5f44c9063b9734b4"
          ],
          "data": "0x00000000000000000000000000000000000000000000000029accb7a094fc357",
          "blockHash": "0x9c6d16c3a1a27315b0488503f2174319e19b82c7c2ae04069ce89beaf7387053",
          "blockNumber": "0x723b16",
          "transactionHash": "0xadf66bbc888ad326492378ad827522efff62599e912c38856a2bbef8620baa6b",
          "transactionIndex": "0x5b",
          "logIndex": "0xd8",
          "removed": false
        },
        {
          "address": "0x5eb9cc76c3506942c1c0ead70e877dd5e4f00cb0",
          "topics": [
            "0x4afcb4a87cdbd9974efdb92ee48bc8d7cd0ae4bf217004db3d080cbaee652ca7"
          ],
          "data": "0x000000000000000000000000000000000000000000000000000000006785b65c00000000000000000000000000000000000000000000000000038d7eff9ceb170000000000000000000000000000000000000000000000000de0b6b3a7640000",
          "blockHash": "0x9c6d16c3a1a27315b0488503f2174319e19b82c7c2ae04069ce89beaf7387053",
          "blockNumber": "0x723b16",
          "transactionHash": "0xadf66bbc888ad326492378ad827522efff62599e912c38856a2bbef8620baa6b",
          "transactionIndex": "0x5b",
          "logIndex": "0xd9",
          "removed": false
        }
      ],
      "logsBloom": "0x00000000000000000000000000000000000000000000000000000000000000000000000000000000000000000000000000000000000000004000000000000000000000000000000000000008000000000000000000000000000000000000000000000000020000000000000004000800020000000000000000000010000000000000000000000000000000000000000000000000000000000000010000000000000000000000000000000000000000004000000000000000000000000000020000000002000000800000008000000000000000000000080000000000000020000000000000000000000000000000000000000000000000000000000000000000",
      "type": "0x2",
      "transactionHash": "0xadf66bbc888ad326492378ad827522efff62599e912c38856a2bbef8620baa6b",
      "transactionIndex": "0x5b",
      "blockHash": "0x9c6d16c3a1a27315b0488503f2174319e19b82c7c2ae04069ce89beaf7387053",
      "blockNumber": "0x723b16",
      "gasUsed": "0xf82c",
      "effectiveGasPrice": "0x2e85d5bcb",
      "from": "0xc77f7fed3b5cc8249adc428c5f44c9063b9734b4",
      "to": "0x5eb9cc76c3506942c1c0ead70e877dd5e4f00cb0",
      "contractAddress": null
    }
  ],
  "libraries": [],
  "pending": [],
  "returns": {},
  "timestamp": 1736816223,
  "chain": 11155111,
  "commit": "51a374b"
}