{
  "transactions": [
    {
      "hash": "0xa0d76c2ee21369f291ed583b03844720bdd8e02d71568838fc5a90745ce7c5ae",
      "transactionType": "CALL",
      "contractName": null,
      "contractAddress": "0x5eb9cc76c3506942c1c0ead70e877dd5e4f00cb0",
      "function": "buy(address)",
      "arguments": [
        "0xC77f7fed3b5Cc8249aDc428c5F44C9063B9734b4"
      ],
      "transaction": {
        "from": "0xc77f7fed3b5cc8249adc428c5f44c9063b9734b4",
        "to": "0x5eb9cc76c3506942c1c0ead70e877dd5e4f00cb0",
        "gas": "0x1b30c",
        "value": "0xde0b6b3a7640000",
        "input": "0xf088d547000000000000000000000000c77f7fed3b5cc8249adc428c5f44c9063b9734b4",
        "nonce": "0x3da",
        "chainId": "0xaa36a7"
      },
      "additionalContracts": [],
      "isFixedGasLimit": false
    }
  ],
  "receipts": [
    {
      "status": "0x1",
      "cumulativeGasUsed": "0x13a59e5",
      "logs": [
        {
          "address": "0x5eb9cc76c3506942c1c0ead70e877dd5e4f00cb0",
          "topics": [
            "0xddf252ad1be2c89b69c2b068fc378daa952ba7f163c4a11628f55a4df523b3ef",
            "0x0000000000000000000000000000000000000000000000000000000000000000",
            "0x000000000000000000000000c77f7fed3b5cc8249adc428c5f44c9063b9734b4"
          ],
          "data": "0x0000000000000000000000000000000000000000000000357517ab2dbb287981",
          "blockHash": "0x9513759d28ddf0c45f955291de94144da80d6f3ab990a604c30765b9976b6a9b",
          "blockNumber": "0x724fe0",
          "transactionHash": "0xa0d76c2ee21369f291ed583b03844720bdd8e02d71568838fc5a90745ce7c5ae",
          "transactionIndex": "0x62",
          "logIndex": "0xa2",
          "removed": false
        },
        {
          "address": "0x5eb9cc76c3506942c1c0ead70e877dd5e4f00cb0",
          "topics": [
            "0xddf252ad1be2c89b69c2b068fc378daa952ba7f163c4a11628f55a4df523b3ef",
            "0x0000000000000000000000000000000000000000000000000000000000000000",
            "0x000000000000000000000000c77f7fed3b5cc8249adc428c5f44c9063b9734b4"
          ],
          "data": "0x0000000000000000000000000000000000000000000000002982f0eb2e188d73",
          "blockHash": "0x9513759d28ddf0c45f955291de94144da80d6f3ab990a604c30765b9976b6a9b",
          "blockNumber": "0x724fe0",
          "transactionHash": "0xa0d76c2ee21369f291ed583b03844720bdd8e02d71568838fc5a90745ce7c5ae",
          "transactionIndex": "0x62",
          "logIndex": "0xa3",
          "removed": false
        },
        {
          "address": "0x5eb9cc76c3506942c1c0ead70e877dd5e4f00cb0",
          "topics": [
            "0x4afcb4a87cdbd9974efdb92ee48bc8d7cd0ae4bf217004db3d080cbaee652ca7"
          ],
          "data": "0x000000000000000000000000000000000000000000000000000000006786b04c00000000000000000000000000000000000000000000000000039113fe3aab0a0000000000000000000000000000000000000000000000000de0b6b3a7640000",
          "blockHash": "0x9513759d28ddf0c45f955291de94144da80d6f3ab990a604c30765b9976b6a9b",
          "blockNumber": "0x724fe0",
          "transactionHash": "0xa0d76c2ee21369f291ed583b03844720bdd8e02d71568838fc5a90745ce7c5ae",
          "transactionIndex": "0x62",
          "logIndex": "0xa4",
          "removed": false
        }
      ],
      "logsBloom": "0x00000000000000000000000000000000000000000000000000000000000000000000000000000000000000000000000000000000000000004000000000000000000000000000000000000008000000000000000000000000000000000000000000000000020000000000000004000800020000000000000000000010000000000000000000000000000000000000000000000000000000000000010000000000000000000000000000000000000000004000000000000000000000000000020000000002000000800000008000000000000000000000080000000000000020000000000000000000000000000000000000000000000000000000000000000000",
      "type": "0x2",
      "transactionHash": "0xa0d76c2ee21369f291ed583b03844720bdd8e02d71568838fc5a90745ce7c5ae",
      "transactionIndex": "0x62",
      "blockHash": "0x9513759d28ddf0c45f955291de94144da80d6f3ab990a604c30765b9976b6a9b",
      "blockNumber": "0x724fe0",
      "gasUsed": "0x13af8",
      "effectiveGasPrice": "0x3b1f8836c",
      "from": "0xc77f7fed3b5cc8249adc428c5f44c9063b9734b4",
      "to": "0x5eb9cc76c3506942c1c0ead70e877dd5e4f00cb0",
      "contractAddress": null
    }
  ],
  "libraries": [],
  "pending": [],
  "returns": {},
  "timestamp": 1736880205,
  "chain": 11155111,
  "commit": "51a374b"
}