{
  "transactions": [
    {
      "hash": "0xff5ea1a6af587f04c2bb3ac194cc1f3118babc782cb6ec421ff2f2199875e493",
      "transactionType": "CALL",
      "contractName": null,
      "contractAddress": "0xbf4a322f1496e5c3d34a9bcdb4c60567b38c7de2",
      "function": "buy(address)",
      "arguments": [
        "0xC77f7fed3b5Cc8249aDc428c5F44C9063B9734b4"
      ],
      "transaction": {
        "from": "0xc77f7fed3b5cc8249adc428c5f44c9063b9734b4",
        "to": "0xbf4a322f1496e5c3d34a9bcdb4c60567b38c7de2",
        "gas": "0x1b309",
        "value": "0xde0b6b3a7640000",
        "input": "0xf088d547000000000000000000000000c77f7fed3b5cc8249adc428c5f44c9063b9734b4",
        "nonce": "0xcea",
        "chainId": "0xaa36a7"
      },
      "additionalContracts": [],
      "isFixedGasLimit": false
    }
  ],
  "receipts": [
    {
      "status": "0x1",
      "cumulativeGasUsed": "0xc10cf3",
      "logs": [
        {
          "address": "0xbf4a322f1496e5c3d34a9bcdb4c60567b38c7de2",
          "topics": [
            "0xddf252ad1be2c89b69c2b068fc378daa952ba7f163c4a11628f55a4df523b3ef",
            "0x0000000000000000000000000000000000000000000000000000000000000000",
            "0x000000000000000000000000c77f7fed3b5cc8249adc428c5f44c9063b9734b4"
          ],
          "data": "0x000000000000000000000000000000000000000000000034d00245d9823aaa0c",
          "blockHash": "0x7b55708ec4253a820a2da2463f7888329abb22fb5efe0fb2b01fef025624f60e",
          "blockNumber": "0x725d3b",
          "transactionHash": "0xff5ea1a6af587f04c2bb3ac194cc1f3118babc782cb6ec421ff2f2199875e493",
          "transactionIndex": "0x68",
          "logIndex": "0xe6",
          "removed": false
        },
        {
          "address": "0xbf4a322f1496e5c3d34a9bcdb4c60567b38c7de2",
          "topics": [
            "0xddf252ad1be2c89b69c2b068fc378daa952ba7f163c4a11628f55a4df523b3ef",
            "0x0000000000000000000000000000000000000000000000000000000000000000",
            "0x000000000000000000000000c77f7fed3b5cc8249adc428c5f44c9063b9734b4"
          ],
          "data": "0x0000000000000000000000000000000000000000000000002902bf80d79e8561",
          "blockHash": "0x7b55708ec4253a820a2da2463f7888329abb22fb5efe0fb2b01fef025624f60e",
          "blockNumber": "0x725d3b",
          "transactionHash": "0xff5ea1a6af587f04c2bb3ac194cc1f3118babc782cb6ec421ff2f2199875e493",
          "transactionIndex": "0x68",
          "logIndex": "0xe7",
          "removed": false
        },
        {
          "address": "0xbf4a322f1496e5c3d34a9bcdb4c60567b38c7de2",
          "topics": [
            "0x4afcb4a87cdbd9974efdb92ee48bc8d7cd0ae4bf217004db3d080cbaee652ca7"
          ],
          "data": "0x000000000000000000000000000000000000000000000000000000006787513800000000000000000000000000000000000000000000000000039c3c6e42a4720000000000000000000000000000000000000000000000000de0b6b3a7640000",
          "blockHash": "0x7b55708ec4253a820a2da2463f7888329abb22fb5efe0fb2b01fef025624f60e",
          "blockNumber": "0x725d3b",
          "transactionHash": "0xff5ea1a6af587f04c2bb3ac194cc1f3118babc782cb6ec421ff2f2199875e493",
          "transactionIndex": "0x68",
          "logIndex": "0xe8",
          "removed": false
        }
      ],
      "logsBloom": "0x00000000000000000000000000000000000000000000000000000000000000000000000000000000000000000000000000000000000000004000000000000000000000000000000000000008000000000000001000000000000000000000000000000000020000000000000000000800020000000000000000000010000000000000000000000000000000000000000000000000000008000000010000000000000000000000000000000000000000004000000000000000000000000000000000000002000000800000000000001000000000000000080000000000000020000000000000000000000000000000000000000000000000000000000000000000",
      "type": "0x2",
      "transactionHash": "0xff5ea1a6af587f04c2bb3ac194cc1f3118babc782cb6ec421ff2f2199875e493",
      "transactionIndex": "0x68",
      "blockHash": "0x7b55708ec4253a820a2da2463f7888329abb22fb5efe0fb2b01fef025624f60e",
      "blockNumber": "0x725d3b",
      "gasUsed": "0x13af6",
      "effectiveGasPrice": "0x46c18c3d9",
      "from": "0xc77f7fed3b5cc8249adc428c5f44c9063b9734b4",
      "to": "0xbf4a322f1496e5c3d34a9bcdb4c60567b38c7de2",
      "contractAddress": null
    }
  ],
  "libraries": [],
  "pending": [],
  "returns": {},
  "timestamp": 1736921403,
  "chain": 11155111,
  "commit": "51a374b"
}