{
  "transactions": [
    {
      "hash": "0xcc81afb05e61a1bedf86df5e1978f9f471b13ee8a00e514ebd165f6d452bd683",
      "transactionType": "CALL",
      "contractName": null,
      "contractAddress": "0xbf4a322f1496e5c3d34a9bcdb4c60567b38c7de2",
      "function": "buy(address)",
      "arguments": [
        "0xC77f7fed3b5Cc8249aDc428c5F44C9063B9734b4"
      ],
      "transaction": {
        "from": "0xc77f7fed3b5cc8249adc428c5f44c9063b9734b4",
        "to": "0xbf4a322f1496e5c3d34a9bcdb4c60567b38c7de2",
        "gas": "0x1b309",
        "value": "0xde0b6b3a7640000",
        "input": "0xf088d547000000000000000000000000c77f7fed3b5cc8249adc428c5f44c9063b9734b4",
        "nonce": "0xbbc",
        "chainId": "0xaa36a7"
      },
      "additionalContracts": [],
      "isFixedGasLimit": false
    }
  ],
  "receipts": [
    {
      "status": "0x1",
      "cumulativeGasUsed": "0xc80a1d",
      "logs": [
        {
          "address": "0xbf4a322f1496e5c3d34a9bcdb4c60567b38c7de2",
          "topics": [
            "0xddf252ad1be2c89b69c2b068fc378daa952ba7f163c4a11628f55a4df523b3ef",
            "0x0000000000000000000000000000000000000000000000000000000000000000",
            "0x000000000000000000000000c77f7fed3b5cc8249adc428c5f44c9063b9734b4"
          ],
          "data": "0x0000000000000000000000000000000000000000000000350804c89087e39a83",
          "blockHash": "0x17933e295b6de3de767b2c5be09f52a553465a2c6ab057a3ae46545f6f807299",
          "blockNumber": "0x725bd7",
          "transactionHash": "0xcc81afb05e61a1bedf86df5e1978f9f471b13ee8a00e514ebd165f6d452bd683",
          "transactionIndex": "0x60",
          "logIndex": "0x74",
          "removed": false
        },
        {
          "address": "0xbf4a322f1496e5c3d34a9bcdb4c60567b38c7de2",
          "topics": [
            "0xddf252ad1be2c89b69c2b068fc378daa952ba7f163c4a11628f55a4df523b3ef",
            "0x0000000000000000000000000000000000000000000000000000000000000000",
            "0x000000000000000000000000c77f7fed3b5cc8249adc428c5f44c9063b9734b4"
          ],
          "data": "0x000000000000000000000000000000000000000000000000292e3dd88a433553",
          "blockHash": "0x17933e295b6de3de767b2c5be09f52a553465a2c6ab057a3ae46545f6f807299",
          "blockNumber": "0x725bd7",
          "transactionHash": "0xcc81afb05e61a1bedf86df5e1978f9f471b13ee8a00e514ebd165f6d452bd683",
          "transactionIndex": "0x60",
          "logIndex": "0x75",
          "removed": false
        },
        {
          "address": "0xbf4a322f1496e5c3d34a9bcdb4c60567b38c7de2",
          "topics": [
            "0x4afcb4a87cdbd9974efdb92ee48bc8d7cd0ae4bf217004db3d080cbaee652ca7"
          ],
          "data": "0x00000000000000000000000000000000000000000000000000000000678740700000000000000000000000000000000000000000000000000003986c4b7ccbe00000000000000000000000000000000000000000000000000de0b6b3a7640000",
          "blockHash": "0x17933e295b6de3de767b2c5be09f52a553465a2c6ab057a3ae46545f6f807299",
          "blockNumber": "0x725bd7",
          "transactionHash": "0xcc81afb05e61a1bedf86df5e1978f9f471b13ee8a00e514ebd165f6d452bd683",
          "transactionIndex": "0x60",
          "logIndex": "0x76",
          "removed": false
        }
      ],
      "logsBloom": "0x00000000000000000000000000000000000000000000000000000000000000000000000000000000000000000000000000000000000000004000000000000000000000000000000000000008000000000000001000000000000000000000000000000000020000000000000000000800020000000000000000000010000000000000000000000000000000000000000000000000000008000000010000000000000000000000000000000000000000004000000000000000000000000000000000000002000000800000000000001000000000000000080000000000000020000000000000000000000000000000000000000000000000000000000000000000",
      "type": "0x2",
      "transactionHash": "0xcc81afb05e61a1bedf86df5e1978f9f471b13ee8a00e514ebd165f6d452bd683",
      "transactionIndex": "0x60",
      "blockHash": "0x17933e295b6de3de767b2c5be09f52a553465a2c6ab057a3ae46545f6f807299",
      "blockNumber": "0x725bd7",
      "gasUsed": "0x13af6",
      "effectiveGasPrice": "0x5e4d13dd",
      "from": "0xc77f7fed3b5cc8249adc428c5f44c9063b9734b4",
      "to": "0xbf4a322f1496e5c3d34a9bcdb4c60567b38c7de2",
      "contractAddress": null
    }
  ],
  "libraries": [],
  "pending": [],
  "returns": {},
  "timestamp": 1736917105,
  "chain": 11155111,
  "commit": "51a374b"
}