{
  "transactions": [
    {
      "hash": "0xe5c73f8715ebb48cc84d3b626c8c5c4882cc57ba7ff4e22a27c0fd7b1d977561",
      "transactionType": "CALL",
      "contractName": null,
      "contractAddress": "0x8aafd3ede9adb0ff97c7aebce82a919afb1c8764",
      "function": "sell(uint256)",
      "arguments": [
        "620957638739"
      ],
      "transaction": {
        "from": "0xc77f7fed3b5cc8249adc428c5f44c9063b9734b4",
        "to": "0x8aafd3ede9adb0ff97c7aebce82a919afb1c8764",
        "gas": "0x1722a",
        "value": "0x0",
        "input": "0xe4849b320000000000000000000000000000000000000000000000000000009093f5a053",
        "nonce": "0x171f",
        "chainId": "0xaa36a7"
      },
      "additionalContracts": [],
      "isFixedGasLimit": false
    }
  ],
  "receipts": [
    {
      "status": "0x1",
      "cumulativeGasUsed": "0xe5c3bb",
      "logs": [
        {
          "address": "0x8aafd3ede9adb0ff97c7aebce82a919afb1c8764",
          "topics": [
            "0xddf252ad1be2c89b69c2b068fc378daa952ba7f163c4a11628f55a4df523b3ef",
            "0x000000000000000000000000c77f7fed3b5cc8249adc428c5f44c9063b9734b4",
            "0x0000000000000000000000000000000000000000000000000000000000000000"
          ],
          "data": "0x0000000000000000000000000000000000000000000000000000008f6bdd221e",
          "blockHash": "0x88f5f0f6e62428c5e423ad0ba3ad90c4f84a5796656fa79ebca675aeb7e01b45",
          "blockNumber": "0x731ee5",
          "transactionHash": "0xe5c73f8715ebb48cc84d3b626c8c5c4882cc57ba7ff4e22a27c0fd7b1d977561",
          "transactionIndex": "0x66",
          "logIndex": "0xa9",
          "removed": false
        },
        {
          "address": "0x8aafd3ede9adb0ff97c7aebce82a919afb1c8764",
          "topics": [
            "0xddf252ad1be2c89b69c2b068fc378daa952ba7f163c4a11628f55a4df523b3ef",
            "0x000000000000000000000000c77f7fed3b5cc8249adc428c5f44c9063b9734b4",
            "0x000000000000000000000000c77f7fed3b5cc8249adc428c5f44c9063b9734b4"
          ],
          "data": "0x0000000000000000000000000000000000000000000000000000000128187e35",
          "blockHash": "0x88f5f0f6e62428c5e423ad0ba3ad90c4f84a5796656fa79ebca675aeb7e01b45",
          "blockNumber": "0x731ee5",
          "transactionHash": "0xe5c73f8715ebb48cc84d3b626c8c5c4882cc57ba7ff4e22a27c0fd7b1d977561",
          "transactionIndex": "0x66",
          "logIndex": "0xaa",
          "removed": false
        },
        {
          "address": "0x8aafd3ede9adb0ff97c7aebce82a919afb1c8764",
          "topics": [
            "0x4afcb4a87cdbd9974efdb92ee48bc8d7cd0ae4bf217004db3d080cbaee652ca7"
          ],
          "data": "0x0000000000000000000000000000000000000000000000000000000067906fa40000000000000000000000000000000000000000000000000017603bf683317800000000000000000000000000000000000000000000000000000000f387654f",
          "blockHash": "0x88f5f0f6e62428c5e423ad0ba3ad90c4f84a5796656fa79ebca675aeb7e01b45",
          "blockNumber": "0x731ee5",
          "transactionHash": "0xe5c73f8715ebb48cc84d3b626c8c5c4882cc57ba7ff4e22a27c0fd7b1d977561",
          "transactionIndex": "0x66",
          "logIndex": "0xab",
          "removed": false
        }
      ],
      "logsBloom": "0x00000000000000000000000000000000000000000600000000000000000000000000000000000000000000000000000000000000000000004000000000000000000000000000004000000008000000000000000000000000000000000000000000000000020000000000000000000800020000000000000000000010000000000000000000000000000000000000000000000000000000000000010000000000000000000000000000000000000000004000000000000000000000000000000000000002000000800000000000000000000000000000080000000000000020000000000000000000000000000000000000000000000000000000000000000000",
      "type": "0x2",
      "transactionHash": "0xe5c73f8715ebb48cc84d3b626c8c5c4882cc57ba7ff4e22a27c0fd7b1d977561",
      "transactionIndex": "0x66",
      "blockHash": "0x88f5f0f6e62428c5e423ad0ba3ad90c4f84a5796656fa79ebca675aeb7e01b45",
      "blockNumber": "0x731ee5",
      "gasUsed": "0xfd1b",
      "effectiveGasPrice": "0x46f7eb67",
      "from": "0xc77f7fed3b5cc8249adc428c5f44c9063b9734b4",
      "to": "0x8aafd3ede9adb0ff97c7aebce82a919afb1c8764",
      "contractAddress": null
    }
  ],
  "libraries": [],
  "pending": [],
  "returns": {},
  "timestamp": 1737519013,
  "chain": 11155111,
  "commit": "1d2fb70"
}