{
  "transactions": [
    {
      "hash": "0xc721daa442db12213bcb113effa9fda23d49ab9d2a7cb6198f741bacd7cb0a76",
      "transactionType": "CALL",
      "contractName": null,
      "contractAddress": "0xbf4a322f1496e5c3d34a9bcdb4c60567b38c7de2",
      "function": "buy(address)",
      "arguments": [
        "0xC77f7fed3b5Cc8249aDc428c5F44C9063B9734b4"
      ],
      "transaction": {
        "from": "0xc77f7fed3b5cc8249adc428c5f44c9063b9734b4",
        "to": "0xbf4a322f1496e5c3d34a9bcdb4c60567b38c7de2",
        "gas": "0x1b309",
        "value": "0xde0b6b3a7640000",
        "input": "0xf088d547000000000000000000000000c77f7fed3b5cc8249adc428c5f44c9063b9734b4",
        "nonce": "0xcf8",
        "chainId": "0xaa36a7"
      },
      "additionalContracts": [],
      "isFixedGasLimit": false
    }
  ],
  "receipts": [
    {
      "status": "0x1",
      "cumulativeGasUsed": "0x8aa2d5",
      "logs": [
        {
          "address": "0xbf4a322f1496e5c3d34a9bcdb4c60567b38c7de2",
          "topics": [
            "0xddf252ad1be2c89b69c2b068fc378daa952ba7f163c4a11628f55a4df523b3ef",
            "0x0000000000000000000000000000000000000000000000000000000000000000",
            "0x000000000000000000000000c77f7fed3b5cc8249adc428c5f44c9063b9734b4"
          ],
          "data": "0x000000000000000000000000000000000000000000000034cd6c711dd6cee156",
          "blockHash": "0x421e233d37da0a3be0c4e1ee84f4ba23b2bd2d0b0c6452fb0a61ba74f9f0e5b3",
          "blockNumber": "0x725d4c",
          "transactionHash": "0xc721daa442db12213bcb113effa9fda23d49ab9d2a7cb6198f741bacd7cb0a76",
          "transactionIndex": "0x5f",
          "logIndex": "0x82",
          "removed": false
        },
        {
          "address": "0xbf4a322f1496e5c3d34a9bcdb4c60567b38c7de2",
          "topics": [
            "0xddf252ad1be2c89b69c2b068fc378daa952ba7f163c4a11628f55a4df523b3ef",
            "0x0000000000000000000000000000000000000000000000000000000000000000",
            "0x000000000000000000000000c77f7fed3b5cc8249adc428c5f44c9063b9734b4"
          ],
          "data": "0x0000000000000000000000000000000000000000000000002900bd91a6de63e0",
          "blockHash": "0x421e233d37da0a3be0c4e1ee84f4ba23b2bd2d0b0c6452fb0a61ba74f9f0e5b3",
          "blockNumber": "0x725d4c",
          "transactionHash": "0xc721daa442db12213bcb113effa9fda23d49ab9d2a7cb6198f741bacd7cb0a76",
          "transactionIndex": "0x5f",
          "logIndex": "0x83",
          "removed": false
        },
        {
          "address": "0xbf4a322f1496e5c3d34a9bcdb4c60567b38c7de2",
          "topics": [
            "0x4afcb4a87cdbd9974efdb92ee48bc8d7cd0ae4bf217004db3d080cbaee652ca7"
          ],
          "data": "0x000000000000000000000000000000000000000000000000000000006787520400000000000000000000000000000000000000000000000000039c69ae9cfd100000000000000000000000000000000000000000000000000de0b6b3a7640000",
          "blockHash": "0x421e233d37da0a3be0c4e1ee84f4ba23b2bd2d0b0c6452fb0a61ba74f9f0e5b3",
          "blockNumber": "0x725d4c",
          "transactionHash": "0xc721daa442db12213bcb113effa9fda23d49ab9d2a7cb6198f741bacd7cb0a76",
          "transactionIndex": "0x5f",
          "logIndex": "0x84",
          "removed": false
        }
      ],
      "logsBloom": "0x00000000000000000000000000000000000000000000000000000000000000000000000000000000000000000000000000000000000000004000000000000000000000000000000000000008000000000000001000000000000000000000000000000000020000000000000000000800020000000000000000000010000000000000000000000000000000000000000000000000000008000000010000000000000000000000000000000000000000004000000000000000000000000000000000000002000000800000000000001000000000000000080000000000000020000000000000000000000000000000000000000000000000000000000000000000",
      "type": "0x2",
      "transactionHash": "0xc721daa442db12213bcb113effa9fda23d49ab9d2a7cb6198f741bacd7cb0a76",
      "transactionIndex": "0x5f",
      "blockHash": "0x421e233d37da0a3be0c4e1ee84f4ba23b2bd2d0b0c6452fb0a61ba74f9f0e5b3",
      "blockNumber": "0x725d4c",
      "gasUsed": "0x13af6",
      "effectiveGasPrice": "0x43e053533",
      "from": "0xc77f7fed3b5cc8249adc428c5f44c9063b9734b4",
      "to": "0xbf4a322f1496e5c3d34a9bcdb4c60567b38c7de2",
      "contractAddress": null
    }
  ],
  "libraries": [],
  "pending": [],
  "returns": {},
  "timestamp": 1736921605,
  "chain": 11155111,
  "commit": "51a374b"
}