{
  "transactions": [
    {
      "hash": "0x49110c49225871e514e1b429f5aecc136ba811a1dae4a2f35e3db27836715792",
      "transactionType": "CALL",
      "contractName": null,
      "contractAddress": "0x5eb9cc76c3506942c1c0ead70e877dd5e4f00cb0",
      "function": "buy(address)",
      "arguments": [
        "0xC77f7fed3b5Cc8249aDc428c5F44C9063B9734b4"
      ],
      "transaction": {
        "from": "0xc77f7fed3b5cc8249adc428c5f44c9063b9734b4",
        "to": "0x5eb9cc76c3506942c1c0ead70e877dd5e4f00cb0",
        "gas": "0x156c8",
        "value": "0xde0b6b3a7640000",
        "input": "0xf088d547000000000000000000000000c77f7fed3b5cc8249adc428c5f44c9063b9734b4",
        "nonce": "0x16c",
        "chainId": "0xaa36a7"
      },
      "additionalContracts": [],
      "isFixedGasLimit": false
    }
  ],
  "receipts": [
    {
      "status": "0x1",
      "cumulativeGasUsed": "0x8655e3",
      "logs": [
        {
          "address": "0x5eb9cc76c3506942c1c0ead70e877dd5e4f00cb0",
          "topics": [
            "0xddf252ad1be2c89b69c2b068fc378daa952ba7f163c4a11628f55a4df523b3ef",
            "0x0000000000000000000000000000000000000000000000000000000000000000",
            "0x000000000000000000000000c77f7fed3b5cc8249adc428c5f44c9063b9734b4"
          ],
          "data": "0x000000000000000000000000000000000000000000000035a6d75f9499923ba8",
          "blockHash": "0xb211235c41f43033603940e71523008f90c18c2c07742465b24fb1607826d224",
          "blockNumber": "0x723c28",
          "transactionHash": "0x49110c49225871e514e1b429f5aecc136ba811a1dae4a2f35e3db27836715792",
          "transactionIndex": "0x50",
          "logIndex": "0x76",
          "removed": false
        },
        {
          "address": "0x5eb9cc76c3506942c1c0ead70e877dd5e4f00cb0",
          "topics": [
            "0xddf252ad1be2c89b69c2b068fc378daa952ba7f163c4a11628f55a4df523b3ef",
            "0x0000000000000000000000000000000000000000000000000000000000000000",
            "0x000000000000000000000000c77f7fed3b5cc8249adc428c5f44c9063b9734b4"
          ],
          "data": "0x00000000000000000000000000000000000000000000000029a992a0b63ca7f1",
          "blockHash": "0xb211235c41f43033603940e71523008f90c18c2c07742465b24fb1607826d224",
          "blockNumber": "0x723c28",
          "transactionHash": "0x49110c49225871e514e1b429f5aecc136ba811a1dae4a2f35e3db27836715792",
          "transactionIndex": "0x50",
          "logIndex": "0x77",
          "removed": false
        },
        {
          "address": "0x5eb9cc76c3506942c1c0ead70e877dd5e4f00cb0",
          "topics": [
            "0x4afcb4a87cdbd9974efdb92ee48bc8d7cd0ae4bf217004db3d080cbaee652ca7"
          ],
          "data": "0x000000000000000000000000000000000000000000000000000000006785c33400000000000000000000000000000000000000000000000000038dc555f44d410000000000000000000000000000000000000000000000000de0b6b3a7640000",
          "blockHash": "0xb211235c41f43033603940e71523008f90c18c2c07742465b24fb1607826d224",
          "blockNumber": "0x723c28",
          "transactionHash": "0x49110c49225871e514e1b429f5aecc136ba811a1dae4a2f35e3db27836715792",
          "transactionIndex": "0x50",
          "logIndex": "0x78",
          "removed": false
        }
      ],
      "logsBloom": "0x00000000000000000000000000000000000000000000000000000000000000000000000000000000000000000000000000000000000000004000000000000000000000000000000000000008000000000000000000000000000000000000000000000000020000000000000004000800020000000000000000000010000000000000000000000000000000000000000000000000000000000000010000000000000000000000000000000000000000004000000000000000000000000000020000000002000000800000008000000000000000000000080000000000000020000000000000000000000000000000000000000000000000000000000000000000",
      "type": "0x2",
      "transactionHash": "0x49110c49225871e514e1b429f5aecc136ba811a1dae4a2f35e3db27836715792",
      "transactionIndex": "0x50",
      "blockHash": "0xb211235c41f43033603940e71523008f90c18c2c07742465b24fb1607826d224",
      "blockNumber": "0x723c28",
      "gasUsed": "0xf82c",
      "effectiveGasPrice": "0x210c7a803",
      "from": "0xc77f7fed3b5cc8249adc428c5f44c9063b9734b4",
      "to": "0x5eb9cc76c3506942c1c0ead70e877dd5e4f00cb0",
      "contractAddress": null
    }
  ],
  "libraries": [],
  "pending": [],
  "returns": {},
  "timestamp": 1736819509,
  "chain": 11155111,
  "commit": "51a374b"
}