{
  "transactions": [
    {
      "hash": "0x21c102a0556a3933ef2a42e802f9d87bb1626698ee46c6aa03477e6bc728e961",
      "transactionType": "CALL",
      "contractName": null,
      "contractAddress": "0x8aafd3ede9adb0ff97c7aebce82a919afb1c8764",
      "function": "sell(uint256)",
      "arguments": [
        "228372110261621001743"
      ],
      "transaction": {
        "from": "0xc77f7fed3b5cc8249adc428c5f44c9063b9734b4",
        "to": "0x8aafd3ede9adb0ff97c7aebce82a919afb1c8764",
        "gas": "0x17270",
        "value": "0x0",
        "input": "0xe4849b3200000000000000000000000000000000000000000000000c614cb850ce428e0f",
        "nonce": "0x1478",
        "chainId": "0xaa36a7"
      },
      "additionalContracts": [],
      "isFixedGasLimit": false
    }
  ],
  "receipts": [
    {
      "status": "0x1",
      "cumulativeGasUsed": "0x14d9cd9",
      "logs": [
        {
          "address": "0x8aafd3ede9adb0ff97c7aebce82a919afb1c8764",
          "topics": [
            "0xddf252ad1be2c89b69c2b068fc378daa952ba7f163c4a11628f55a4df523b3ef",
            "0x000000000000000000000000c77f7fed3b5cc8249adc428c5f44c9063b9734b4",
            "0x0000000000000000000000000000000000000000000000000000000000000000"
          ],
          "data": "0x00000000000000000000000000000000000000000000000c47f1fe85684205c2",
          "blockHash": "0xd750731ad90bbb461c5488f59ee84b0b55a4c076ff90f2b39f9a5eb5adb6421b",
          "blockNumber": "0x731bc5",
          "transactionHash": "0x21c102a0556a3933ef2a42e802f9d87bb1626698ee46c6aa03477e6bc728e961",
          "transactionIndex": "0xa5",
          "logIndex": "0xc5",
          "removed": false
        },
        {
          "address": "0x8aafd3ede9adb0ff97c7aebce82a919afb1c8764",
          "topics": [
            "0xddf252ad1be2c89b69c2b068fc378daa952ba7f163c4a11628f55a4df523b3ef",
            "0x000000000000000000000000c77f7fed3b5cc8249adc428c5f44c9063b9734b4",
            "0x000000000000000000000000c77f7fed3b5cc8249adc428c5f44c9063b9734b4"
          ],
          "data": "0x000000000000000000000000000000000000000000000000195ab9cb6600884d",
          "blockHash": "0xd750731ad90bbb461c5488f59ee84b0b55a4c076ff90f2b39f9a5eb5adb6421b",
          "blockNumber": "0x731bc5",
          "transactionHash": "0x21c102a0556a3933ef2a42e802f9d87bb1626698ee46c6aa03477e6bc728e961",
          "transactionIndex": "0xa5",
          "logIndex": "0xc6",
          "removed": false
        },
        {
          "address": "0x8aafd3ede9adb0ff97c7aebce82a919afb1c8764",
          "topics": [
            "0x4afcb4a87cdbd9974efdb92ee48bc8d7cd0ae4bf217004db3d080cbaee652ca7"
          ],
          "data": "0x0000000000000000000000000000000000000000000000000000000067904a18000000000000000000000000000000000000000000000000000f8ce4da1eef540000000000000000000000000000000000000000000000000dcd8857128ed9aa",
          "blockHash": "0xd750731ad90bbb461c5488f59ee84b0b55a4c076ff90f2b39f9a5eb5adb6421b",
          "blockNumber": "0x731bc5",
          "transactionHash": "0x21c102a0556a3933ef2a42e802f9d87bb1626698ee46c6aa03477e6bc728e961",
          "transactionIndex": "0xa5",
          "logIndex": "0xc7",
          "removed": false
        }
      ],
      "logsBloom": "0x00000000000000000000000000000000000000000600000000000000000000000000000000000000000000000000000000000000000000004000000000000000000000000000004000000008000000000000000000000000000000000000000000000000020000000000000000000800020000000000000000000010000000000000000000000000000000000000000000000000000000000000010000000000000000000000000000000000000000004000000000000000000000000000000000000002000000800000000000000000000000000000080000000000000020000000000000000000000000000000000000000000000000000000000000000000",
      "type": "0x2",
      "transactionHash": "0x21c102a0556a3933ef2a42e802f9d87bb1626698ee46c6aa03477e6bc728e961",
      "transactionIndex": "0xa5",
      "blockHash": "0xd750731ad90bbb461c5488f59ee84b0b55a4c076ff90f2b39f9a5eb5adb6421b",
      "blockNumber": "0x731bc5",
      "gasUsed": "0xfd4b",
      "effectiveGasPrice": "0xf05a1f9b",
      "from": "0xc77f7fed3b5cc8249adc428c5f44c9063b9734b4",
      "to": "0x8aafd3ede9adb0ff97c7aebce82a919afb1c8764",
      "contractAddress": null
    }
  ],
  "libraries": [],
  "pending": [],
  "returns": {},
  "timestamp": 1737509402,
  "chain": 11155111,
  "commit": "1d2fb70"
}