{
  "transactions": [
    {
      "hash": "0xb8687e0d33a05137d6e750e9e4115e44627c39c0134167b0cc89338787383992",
      "transactionType": "CALL",
      "contractName": null,
      "contractAddress": "0xd7bc75898e513accccf720a874d44dab5a4b6223",
      "function": "buy(address)",
      "arguments": [
        "0xC77f7fed3b5Cc8249aDc428c5F44C9063B9734b4"
      ],
      "transaction": {
        "from": "0xc77f7fed3b5cc8249adc428c5f44c9063b9734b4",
        "to": "0xd7bc75898e513accccf720a874d44dab5a4b6223",
        "gas": "0x1b30c",
        "value": "0x2386f26fc10000",
        "input": "0xf088d547000000000000000000000000c77f7fed3b5cc8249adc428c5f44c9063b9734b4",
        "nonce": "0x9e",
        "chainId": "0xaa36a7"
      },
      "additionalContracts": [],
      "isFixedGasLimit": false
    }
  ],
  "receipts": [
    {
      "status": "0x1",
      "cumulativeGasUsed": "0x8e8aa7",
      "logs": [
        {
          "address": "0xd7bc75898e513accccf720a874d44dab5a4b6223",
          "topics": [
            "0xddf252ad1be2c89b69c2b068fc378daa952ba7f163c4a11628f55a4df523b3ef",
            "0x0000000000000000000000000000000000000000000000000000000000000000",
            "0x000000000000000000000000c77f7fed3b5cc8249adc428c5f44c9063b9734b4"
          ],
          "data": "0x0000000000000000000000000000000000000000000000008963bbe20f301ae4",
          "blockHash": "0xec6761a32860dd833d89c544fc3fcede34c0878c00e8b54bb233d1fd328ccc87",
          "blockNumber": "0x723910",
          "transactionHash": "0xb8687e0d33a05137d6e750e9e4115e44627c39c0134167b0cc89338787383992",
          "transactionIndex": "0x3f",
          "logIndex": "0x4a",
          "removed": false
        },
        {
          "address": "0xd7bc75898e513accccf720a874d44dab5a4b6223",
          "topics": [
            "0xddf252ad1be2c89b69c2b068fc378daa952ba7f163c4a11628f55a4df523b3ef",
            "0x0000000000000000000000000000000000000000000000000000000000000000",
            "0x000000000000000000000000c77f7fed3b5cc8249adc428c5f44c9063b9734b4"
          ],
          "data": "0x000000000000000000000000000000000000000000000000006ab00d14465837",
          "blockHash": "0xec6761a32860dd833d89c544fc3fcede34c0878c00e8b54bb233d1fd328ccc87",
          "blockNumber": "0x723910",
          "transactionHash": "0xb8687e0d33a05137d6e750e9e4115e44627c39c0134167b0cc89338787383992",
          "transactionIndex": "0x3f",
          "logIndex": "0x4b",
          "removed": false
        },
        {
          "address": "0xd7bc75898e513accccf720a874d44dab5a4b6223",
          "topics": [
            "0x4afcb4a87cdbd9974efdb92ee48bc8d7cd0ae4bf217004db3d080cbaee652ca7"
          ],
          "data": "0x0000000000000000000000000000000000000000000000000000000067859e0800000000000000000000000000000000000000000000000000038d7f83b2acc9000000000000000000000000000000000000000000000000002386f26fc10000",
          "blockHash": "0xec6761a32860dd833d89c544fc3fcede34c0878c00e8b54bb233d1fd328ccc87",
          "blockNumber": "0x723910",
          "transactionHash": "0xb8687e0d33a05137d6e750e9e4115e44627c39c0134167b0cc89338787383992",
          "transactionIndex": "0x3f",
          "logIndex": "0x4c",
          "removed": false
        }
      ],
      "logsBloom": "0x00000000000000000000000000000000000000000000000000000000000000000000000000000000000000000000000000000000000000004000000000000000000000000000000000000008000000000000000000000000000000000000000000000000020000000000000000000800020000000000000000000010000000000000000000000000000000000000000000000000000000000000010000000000000000000000000000000000000000004000001000000000000000000000000000000002000000800000000000004000000000000000080000000000000020000000000000000000000000000000000000000000080000000000000000000000",
      "type": "0x2",
      "transactionHash": "0xb8687e0d33a05137d6e750e9e4115e44627c39c0134167b0cc89338787383992",
      "transactionIndex": "0x3f",
      "blockHash": "0xec6761a32860dd833d89c544fc3fcede34c0878c00e8b54bb233d1fd328ccc87",
      "blockNumber": "0x723910",
      "gasUsed": "0x13af8",
      "effectiveGasPrice": "0x95b5fd",
      "from": "0xc77f7fed3b5cc8249adc428c5f44c9063b9734b4",
      "to": "0xd7bc75898e513accccf720a874d44dab5a4b6223",
      "contractAddress": null
    }
  ],
  "libraries": [],
  "pending": [],
  "returns": {},
  "timestamp": 1736809993,
  "chain": 11155111,
  "commit": "51a374b"
}