{
  "transactions": [
    {
      "hash": "0xfd82dc6ab2501069697d162ca147a8aa6da44b2567f94cddd21db58f7d7759ce",
      "transactionType": "CALL",
      "contractName": null,
      "contractAddress": "0x8aafd3ede9adb0ff97c7aebce82a919afb1c8764",
      "function": "sell(uint256)",
      "arguments": [
        "194192447"
      ],
      "transaction": {
        "from": "0xc77f7fed3b5cc8249adc428c5f44c9063b9734b4",
        "to": "0x8aafd3ede9adb0ff97c7aebce82a919afb1c8764",
        "gas": "0x14e6c",
        "value": "0x0",
        "input": "0xe4849b32000000000000000000000000000000000000000000000000000000000b93243f",
        "nonce": "0xfa9",
        "chainId": "0xaa36a7"
      },
      "additionalContracts": [],
      "isFixedGasLimit": false
    }
  ],
  "receipts": [
    {
      "status": "0x1",
      "cumulativeGasUsed": "0x1fafb50",
      "logs": [
        {
          "address": "0x8aafd3ede9adb0ff97c7aebce82a919afb1c8764",
          "topics": [
            "0xddf252ad1be2c89b69c2b068fc378daa952ba7f163c4a11628f55a4df523b3ef",
            "0x000000000000000000000000c77f7fed3b5cc8249adc428c5f44c9063b9734b4",
            "0x0000000000000000000000000000000000000000000000000000000000000000"
          ],
          "data": "0x000000000000000000000000000000000000000000000000000000000b7b6fbc",
          "blockHash": "0x6a14e6f33d5d0623fca296bc340cb399591d97909bc9d97842590287d9dc0d27",
          "blockNumber": "0x731612",
          "transactionHash": "0xfd82dc6ab2501069697d162ca147a8aa6da44b2567f94cddd21db58f7d7759ce",
          "transactionIndex": "0x9e",
          "logIndex": "0xce",
          "removed": false
        },
        {
          "address": "0x8aafd3ede9adb0ff97c7aebce82a919afb1c8764",
          "topics": [
            "0xddf252ad1be2c89b69c2b068fc378daa952ba7f163c4a11628f55a4df523b3ef",
            "0x000000000000000000000000c77f7fed3b5cc8249adc428c5f44c9063b9734b4",
            "0x000000000000000000000000c77f7fed3b5cc8249adc428c5f44c9063b9734b4"
          ],
          "data": "0x000000000000000000000000000000000000000000000000000000000017b483",
          "blockHash": "0x6a14e6f33d5d0623fca296bc340cb399591d97909bc9d97842590287d9dc0d27",
          "blockNumber": "0x731612",
          "transactionHash": "0xfd82dc6ab2501069697d162ca147a8aa6da44b2567f94cddd21db58f7d7759ce",
          "transactionIndex": "0x9e",
          "logIndex": "0xcf",
          "removed": false
        },
        {
          "address": "0x8aafd3ede9adb0ff97c7aebce82a919afb1c8764",
          "topics": [
            "0x4afcb4a87cdbd9974efdb92ee48bc8d7cd0ae4bf217004db3d080cbaee652ca7"
          ],
          "data": "0x00000000000000000000000000000000000000000000000000000000679005840000000000000000000000000000000000000000000000000004c37b31ab97bc000000000000000000000000000000000000000000000000000000000003f91b",
          "blockHash": "0x6a14e6f33d5d0623fca296bc340cb399591d97909bc9d97842590287d9dc0d27",
          "blockNumber": "0x731612",
          "transactionHash": "0xfd82dc6ab2501069697d162ca147a8aa6da44b2567f94cddd21db58f7d7759ce",
          "transactionIndex": "0x9e",
          "logIndex": "0xd0",
          "removed": false
        }
      ],
      "logsBloom": "0x00000000000000000000000000000000000000000600000000000000000000000000000000000000000000000000000000000000000000004000000000000000000000000000004000000008000000000000000000000000000000000000000000000000020000000000000000000800020000000000000000000010000000000000000000000000000000000000000000000000000000000000010000000000000000000000000000000000000000004000000000000000000000000000000000000002000000800000000000000000000000000000080000000000000020000000000000000000000000000000000000000000000000000000000000000000",
      "type": "0x2",
      "transactionHash": "0xfd82dc6ab2501069697d162ca147a8aa6da44b2567f94cddd21db58f7d7759ce",
      "transactionIndex": "0x9e",
      "blockHash": "0x6a14e6f33d5d0623fca296bc340cb399591d97909bc9d97842590287d9dc0d27",
      "blockNumber": "0x731612",
      "gasUsed": "0xf21f",
      "effectiveGasPrice": "0x5a4695cc",
      "from": "0xc77f7fed3b5cc8249adc428c5f44c9063b9734b4",
      "to": "0x8aafd3ede9adb0ff97c7aebce82a919afb1c8764",
      "contractAddress": null
    }
  ],
  "libraries": [],
  "pending": [],
  "returns": {},
  "timestamp": 1737491845,
  "chain": 11155111,
  "commit": "1d2fb70"
}