{
  "transactions": [
    {
      "hash": "0xbbf3a25befc1d99758731b873413ca2282afa7971d45c655487c82496af7f2f7",
      "transactionType": "CALL",
      "contractName": null,
      "contractAddress": "0x5eb9cc76c3506942c1c0ead70e877dd5e4f00cb0",
      "function": "sell(uint256)",
      "arguments": [
        "989111153937384241576"
      ],
      "transaction": {
        "from": "0xc77f7fed3b5cc8249adc428c5f44c9063b9734b4",
        "to": "0x5eb9cc76c3506942c1c0ead70e877dd5e4f00cb0",
        "gas": "0x16fec",
        "value": "0x0",
        "input": "0xe4849b320000000000000000000000000000000000000000000000359eacb9f8768079a8",
        "nonce": "0x3bb",
        "chainId": "0xaa36a7"
      },
      "additionalContracts": [],
      "isFixedGasLimit": false
    }
  ],
  "receipts": [
    {
      "status": "0x1",
      "cumulativeGasUsed": "0xa0919f",
      "logs": [
        {
          "address": "0x5eb9cc76c3506942c1c0ead70e877dd5e4f00cb0",
          "topics": [
            "0xddf252ad1be2c89b69c2b068fc378daa952ba7f163c4a11628f55a4df523b3ef",
            "0x000000000000000000000000c77f7fed3b5cc8249adc428c5f44c9063b9734b4",
            "0x0000000000000000000000000000000000000000000000000000000000000000"
          ],
          "data": "0x0000000000000000000000000000000000000000000000359eacb9f8768079a8",
          "blockHash": "0x20c426bd8822efbd0d11cdab8a61baacd97fcaeb31b07c60a7c12f833c3dff98",
          "blockNumber": "0x724fba",
          "transactionHash": "0xbbf3a25befc1d99758731b873413ca2282afa7971d45c655487c82496af7f2f7",
          "transactionIndex": "0x4b",
          "logIndex": "0x5e",
          "removed": false
        },
        {
          "address": "0x5eb9cc76c3506942c1c0ead70e877dd5e4f00cb0",
          "topics": [
            "0x4afcb4a87cdbd9974efdb92ee48bc8d7cd0ae4bf217004db3d080cbaee652ca7"
          ],
          "data": "0x000000000000000000000000000000000000000000000000000000006786ae8400000000000000000000000000000000000000000000000000039112d60e348e0000000000000000000000000000000000000000000000000dc7db1331fb4b96",
          "blockHash": "0x20c426bd8822efbd0d11cdab8a61baacd97fcaeb31b07c60a7c12f833c3dff98",
          "blockNumber": "0x724fba",
          "transactionHash": "0xbbf3a25befc1d99758731b873413ca2282afa7971d45c655487c82496af7f2f7",
          "transactionIndex": "0x4b",
          "logIndex": "0x5f",
          "removed": false
        }
      ],
      "logsBloom": "0x00000000000000000000000000000000000000000000000000000000000000000000000000000000000000000000000000000000000000004000000000000000000000000000000000000008000000000000000000000000000000000000000000000000020000000000000004000800020000000000000000000010000000000000000000000000000000000000000000000000000000000000010000000000000000000000000000000000000000004000000000000000000000000000020000000002000000800000008000000000000000000000080000000000000020000000000000000000000000000000000000000000000000000000000000000000",
      "type": "0x2",
      "transactionHash": "0xbbf3a25befc1d99758731b873413ca2282afa7971d45c655487c82496af7f2f7",
      "transactionIndex": "0x4b",
      "blockHash": "0x20c426bd8822efbd0d11cdab8a61baacd97fcaeb31b07c60a7c12f833c3dff98",
      "blockNumber": "0x724fba",
      "gasUsed": "0xfb93",
      "effectiveGasPrice": "0x3e8db0a51",
      "from": "0xc77f7fed3b5cc8249adc428c5f44c9063b9734b4",
      "to": "0x5eb9cc76c3506942c1c0ead70e877dd5e4f00cb0",
      "contractAddress": null
    }
  ],
  "libraries": [],
  "pending": [],
  "returns": {},
  "timestamp": 1736879750,
  "chain": 11155111,
  "commit": "51a374b"
}