{
  "transactions": [
    {
      "hash": "0xa6896bf08710da4ef85a0b96aa29792f8790ffc1a5812c47327340ccc0eedce4",
      "transactionType": "CALL",
      "contractName": null,
      "contractAddress": "0x270e88f8683660553e8ba4eb2ad7c91a1710d769",
      "function": "sell(uint256)",
      "arguments": [
        "743320390836597281728"
      ],
      "transaction": {
        "from": "0xc77f7fed3b5cc8249adc428c5f44c9063b9734b4",
        "to": "0x270e88f8683660553e8ba4eb2ad7c91a1710d769",
        "gas": "0x16fec",
        "value": "0x0",
        "input": "0xe4849b320000000000000000000000000000000000000000000000284ba4852f87e7d3c0",
        "nonce": "0x716",
        "chainId": "0xaa36a7"
      },
      "additionalContracts": [],
      "isFixedGasLimit": false
    }
  ],
  "receipts": [
    {
      "status": "0x1",
      "cumulativeGasUsed": "0x61abdd",
      "logs": [
        {
          "address": "0x270e88f8683660553e8ba4eb2ad7c91a1710d769",
          "topics": [
            "0xddf252ad1be2c89b69c2b068fc378daa952ba7f163c4a11628f55a4df523b3ef",
            "0x000000000000000000000000c77f7fed3b5cc8249adc428c5f44c9063b9734b4",
            "0x0000000000000000000000000000000000000000000000000000000000000000"
          ],
          "data": "0x0000000000000000000000000000000000000000000000284ba4852f87e7d3c0",
          "blockHash": "0xe4e49b64fd79c08cae395bd60cdd916a0718460db10c085ac7b7a41fcc3b0e07",
          "blockNumber": "0x72542f",
          "transactionHash": "0xa6896bf08710da4ef85a0b96aa29792f8790ffc1a5812c47327340ccc0eedce4",
          "transactionIndex": "0x3f",
          "logIndex": "0x66",
          "removed": false
        },
        {
          "address": "0x270e88f8683660553e8ba4eb2ad7c91a1710d769",
          "topics": [
            "0x4afcb4a87cdbd9974efdb92ee48bc8d7cd0ae4bf217004db3d080cbaee652ca7"
          ],
          "data": "0x000000000000000000000000000000000000000000000000000000006786e43c0000000000000000000000000000000000000000000000000004bf49da45d8c50000000000000000000000000000000000000000000000000dc828d7f0e330b3",
          "blockHash": "0xe4e49b64fd79c08cae395bd60cdd916a0718460db10c085ac7b7a41fcc3b0e07",
          "blockNumber": "0x72542f",
          "transactionHash": "0xa6896bf08710da4ef85a0b96aa29792f8790ffc1a5812c47327340ccc0eedce4",
          "transactionIndex": "0x3f",
          "logIndex": "0x67",
          "removed": false
        }
      ],
      "logsBloom": "0x00000000000000000000000000000000000000000000000000000000000000000000000000000000000000000000000020000000000000004000000000000000000000000000000000000008000000000000000000000000000000000000000000000000020000000000000000000800020000000000000000000010000000000000000000010000000000000000000000000000000000000000010000000000000000000000000000000000000000004000000000000000000000000000000000000002000000800000000000000000000000000000080000008000000020000000000000000000000000000000000000000000000000000000000000000000",
      "type": "0x2",
      "transactionHash": "0xa6896bf08710da4ef85a0b96aa29792f8790ffc1a5812c47327340ccc0eedce4",
      "transactionIndex": "0x3f",
      "blockHash": "0xe4e49b64fd79c08cae395bd60cdd916a0718460db10c085ac7b7a41fcc3b0e07",
      "blockNumber": "0x72542f",
      "gasUsed": "0xfb93",
      "effectiveGasPrice": "0x134458ca2",
      "from": "0xc77f7fed3b5cc8249adc428c5f44c9063b9734b4",
      "to": "0x270e88f8683660553e8ba4eb2ad7c91a1710d769",
      "contractAddress": null
    }
  ],
  "libraries": [],
  "pending": [],
  "returns": {},
  "timestamp": 1736893501,
  "chain": 11155111,
  "commit": "51a374b"
}