{
  "transactions": [
    {
      "hash": "0xfaf2b2f5d1dab6ea9cceec83f3839f164253a0f0d91af7489f4d17a8ac07770b",
      "transactionType": "CALL",
      "contractName": null,
      "contractAddress": "0x270e88f8683660553e8ba4eb2ad7c91a1710d769",
      "function": "sell(uint256)",
      "arguments": [
        "734291318618602134645"
      ],
      "transaction": {
        "from": "0xc77f7fed3b5cc8249adc428c5f44c9063b9734b4",
        "to": "0x270e88f8683660553e8ba4eb2ad7c91a1710d769",
        "gas": "0x16fec",
        "value": "0x0",
        "input": "0xe4849b32000000000000000000000000000000000000000000000027ce56cfd76af4dc75",
        "nonce": "0x77c",
        "chainId": "0xaa36a7"
      },
      "additionalContracts": [],
      "isFixedGasLimit": false
    }
  ],
  "receipts": [
    {
      "status": "0x1",
      "cumulativeGasUsed": "0xcbadaf",
      "logs": [
        {
          "address": "0x270e88f8683660553e8ba4eb2ad7c91a1710d769",
          "topics": [
            "0xddf252ad1be2c89b69c2b068fc378daa952ba7f163c4a11628f55a4df523b3ef",
            "0x000000000000000000000000c77f7fed3b5cc8249adc428c5f44c9063b9734b4",
            "0x0000000000000000000000000000000000000000000000000000000000000000"
          ],
          "data": "0x000000000000000000000000000000000000000000000027ce56cfd76af4dc75",
          "blockHash": "0x4b2b516b32ad054fef1f0c90149c0bebbd2a99e1a9f0822cd7b401f545b4cace",
          "blockNumber": "0x7254ac",
          "transactionHash": "0xfaf2b2f5d1dab6ea9cceec83f3839f164253a0f0d91af7489f4d17a8ac07770b",
          "transactionIndex": "0x36",
          "logIndex": "0x8d",
          "removed": false
        },
        {
          "address": "0x270e88f8683660553e8ba4eb2ad7c91a1710d769",
          "topics": [
            "0x4afcb4a87cdbd9974efdb92ee48bc8d7cd0ae4bf217004db3d080cbaee652ca7"
          ],
          "data": "0x000000000000000000000000000000000000000000000000000000006786ea180000000000000000000000000000000000000000000000000004ce3a7c785e2c0000000000000000000000000000000000000000000000000dc827e8b647b228",
          "blockHash": "0x4b2b516b32ad054fef1f0c90149c0bebbd2a99e1a9f0822cd7b401f545b4cace",
          "blockNumber": "0x7254ac",
          "transactionHash": "0xfaf2b2f5d1dab6ea9cceec83f3839f164253a0f0d91af7489f4d17a8ac07770b",
          "transactionIndex": "0x36",
          "logIndex": "0x8e",
          "removed": false
        }
      ],
      "logsBloom": "0x00000000000000000000000000000000000000000000000000000000000000000000000000000000000000000000000020000000000000004000000000000000000000000000000000000008000000000000000000000000000000000000000000000000020000000000000000000800020000000000000000000010000000000000000000010000000000000000000000000000000000000000010000000000000000000000000000000000000000004000000000000000000000000000000000000002000000800000000000000000000000000000080000008000000020000000000000000000000000000000000000000000000000000000000000000000",
      "type": "0x2",
      "transactionHash": "0xfaf2b2f5d1dab6ea9cceec83f3839f164253a0f0d91af7489f4d17a8ac07770b",
      "transactionIndex": "0x36",
      "blockHash": "0x4b2b516b32ad054fef1f0c90149c0bebbd2a99e1a9f0822cd7b401f545b4cace",
      "blockNumber": "0x7254ac",
      "gasUsed": "0xfb93",
      "effectiveGasPrice": "0x12ff05bc5",
      "from": "0xc77f7fed3b5cc8249adc428c5f44c9063b9734b4",
      "to": "0x270e88f8683660553e8ba4eb2ad7c91a1710d769",
      "contractAddress": null
    }
  ],
  "libraries": [],
  "pending": [],
  "returns": {},
  "timestamp": 1736895001,
  "chain": 11155111,
  "commit": "51a374b"
}