{
  "transactions": [
    {
      "hash": "0x0408c177e5e8ba1738d02cee738097ca986a6b35350af2877f893bcc064f2180",
      "transactionType": "CALL",
      "contractName": null,
      "contractAddress": "0x270e88f8683660553e8ba4eb2ad7c91a1710d769",
      "function": "sell(uint256)",
      "arguments": [
        "709123332145114710461"
      ],
      "transaction": {
        "from": "0xc77f7fed3b5cc8249adc428c5f44c9063b9734b4",
        "to": "0x270e88f8683660553e8ba4eb2ad7c91a1710d769",
        "gas": "0x16fec",
        "value": "0x0",
        "input": "0xe4849b320000000000000000000000000000000000000000000000267110297d52e701bd",
        "nonce": "0x8a6",
        "chainId": "0xaa36a7"
      },
      "additionalContracts": [],
      "isFixedGasLimit": false
    }
  ],
  "receipts": [
    {
      "status": "0x1",
      "cumulativeGasUsed": "0xae3406",
      "logs": [
        {
          "address": "0x270e88f8683660553e8ba4eb2ad7c91a1710d769",
          "topics": [
            "0xddf252ad1be2c89b69c2b068fc378daa952ba7f163c4a11628f55a4df523b3ef",
            "0x000000000000000000000000c77f7fed3b5cc8249adc428c5f44c9063b9734b4",
            "0x0000000000000000000000000000000000000000000000000000000000000000"
          ],
          "data": "0x0000000000000000000000000000000000000000000000267110297d52e701bd",
          "blockHash": "0xa6f93731a2a8b98c3bc44daff225ffa241d217544a6e34ea70d8d86919bc865f",
          "blockNumber": "0x725604",
          "transactionHash": "0x0408c177e5e8ba1738d02cee738097ca986a6b35350af2877f893bcc064f2180",
          "transactionIndex": "0x40",
          "logIndex": "0x131",
          "removed": false
        },
        {
          "address": "0x270e88f8683660553e8ba4eb2ad7c91a1710d769",
          "topics": [
            "0x4afcb4a87cdbd9974efdb92ee48bc8d7cd0ae4bf217004db3d080cbaee652ca7"
          ],
          "data": "0x000000000000000000000000000000000000000000000000000000006786fa380000000000000000000000000000000000000000000000000004f9e188fa2cbd0000000000000000000000000000000000000000000000000dc8254d801934f0",
          "blockHash": "0xa6f93731a2a8b98c3bc44daff225ffa241d217544a6e34ea70d8d86919bc865f",
          "blockNumber": "0x725604",
          "transactionHash": "0x0408c177e5e8ba1738d02cee738097ca986a6b35350af2877f893bcc064f2180",
          "transactionIndex": "0x40",
          "logIndex": "0x132",
          "removed": false
        }
      ],
      "logsBloom": "0x00000000000000000000000000000000000000000000000000000000000000000000000000000000000000000000000020000000000000004000000000000000000000000000000000000008000000000000000000000000000000000000000000000000020000000000000000000800020000000000000000000010000000000000000000010000000000000000000000000000000000000000010000000000000000000000000000000000000000004000000000000000000000000000000000000002000000800000000000000000000000000000080000008000000020000000000000000000000000000000000000000000000000000000000000000000",
      "type": "0x2",
      "transactionHash": "0x0408c177e5e8ba1738d02cee738097ca986a6b35350af2877f893bcc064f2180",
      "transactionIndex": "0x40",
      "blockHash": "0xa6f93731a2a8b98c3bc44daff225ffa241d217544a6e34ea70d8d86919bc865f",
      "blockNumber": "0x725604",
      "gasUsed": "0xfb93",
      "effectiveGasPrice": "0x8b0cde62",
      "from": "0xc77f7fed3b5cc8249adc428c5f44c9063b9734b4",
      "to": "0x270e88f8683660553e8ba4eb2ad7c91a1710d769",
      "contractAddress": null
    }
  ],
  "libraries": [],
  "pending": [],
  "returns": {},
  "timestamp": 1736899128,
  "chain": 11155111,
  "commit": "51a374b"
}