{
  "transactions": [
    {
      "hash": "0xab0bc5a0c54cf23704dcd6b5904a5400fc1223733553c50be05825480cfac150",
      "transactionType": "CALL",
      "contractName": null,
      "contractAddress": "0x8aafd3ede9adb0ff97c7aebce82a919afb1c8764",
      "function": "sell(uint256)",
      "arguments": [
        "805758699008"
      ],
      "transaction": {
        "from": "0xc77f7fed3b5cc8249adc428c5f44c9063b9734b4",
        "to": "0x8aafd3ede9adb0ff97c7aebce82a919afb1c8764",
        "gas": "0x15d88",
        "value": "0x0",
        "input": "0xe4849b32000000000000000000000000000000000000000000000000000000bb9af60600",
        "nonce": "0x1554",
        "chainId": "0xaa36a7"
      },
      "additionalContracts": [],
      "isFixedGasLimit": false
    }
  ],
  "receipts": [
    {
      "status": "0x1",
      "cumulativeGasUsed": "0x948116",
      "logs": [
        {
          "address": "0x8aafd3ede9adb0ff97c7aebce82a919afb1c8764",
          "topics": [
            "0xddf252ad1be2c89b69c2b068fc378daa952ba7f163c4a11628f55a4df523b3ef",
            "0x000000000000000000000000c77f7fed3b5cc8249adc428c5f44c9063b9734b4",
            "0x0000000000000000000000000000000000000000000000000000000000000000"
          ],
          "data": "0x000000000000000000000000000000000000000000000000000000ba1abecea8",
          "blockHash": "0xb527002ad09b983e4ed56a94fce078a5307ab3ad60dd8f7db1f800a1d3a8f2aa",
          "blockNumber": "0x731cba",
          "transactionHash": "0xab0bc5a0c54cf23704dcd6b5904a5400fc1223733553c50be05825480cfac150",
          "transactionIndex": "0x64",
          "logIndex": "0x8c",
          "removed": false
        },
        {
          "address": "0x8aafd3ede9adb0ff97c7aebce82a919afb1c8764",
          "topics": [
            "0xddf252ad1be2c89b69c2b068fc378daa952ba7f163c4a11628f55a4df523b3ef",
            "0x000000000000000000000000c77f7fed3b5cc8249adc428c5f44c9063b9734b4",
            "0x000000000000000000000000c77f7fed3b5cc8249adc428c5f44c9063b9734b4"
          ],
          "data": "0x0000000000000000000000000000000000000000000000000000000180373758",
          "blockHash": "0xb527002ad09b983e4ed56a94fce078a5307ab3ad60dd8f7db1f800a1d3a8f2aa",
          "blockNumber": "0x731cba",
          "transactionHash": "0xab0bc5a0c54cf23704dcd6b5904a5400fc1223733553c50be05825480cfac150",
          "transactionIndex": "0x64",
          "logIndex": "0x8d",
          "removed": false
        },
        {
          "address": "0x8aafd3ede9adb0ff97c7aebce82a919afb1c8764",
          "topics": [
            "0x4afcb4a87cdbd9974efdb92ee48bc8d7cd0ae4bf217004db3d080cbaee652ca7"
          ],
          "data": "0x00000000000000000000000000000000000000000000000000000000679055940000000000000000000000000000000000000000000000000012099a51cd66ff00000000000000000000000000000000000000000000000000000000f3d68b92",
          "blockHash": "0xb527002ad09b983e4ed56a94fce078a5307ab3ad60dd8f7db1f800a1d3a8f2aa",
          "blockNumber": "0x731cba",
          "transactionHash": "0xab0bc5a0c54cf23704dcd6b5904a5400fc1223733553c50be05825480cfac150",
          "transactionIndex": "0x64",
          "logIndex": "0x8e",
          "removed": false
        }
      ],
      "logsBloom": "0x00000000000000000000000000000000000000000600000000000000000000000000000000000000000000000000000000000000000000004000000000000000000000000000004000000008000000000000000000000000000000000000000000000000020000000000000000000800020000000000000000000010000000000000000000000000000000000000000000000000000000000000010000000000000000000000000000000000000000004000000000000000000000000000000000000002000000800000000000000000000000000000080000000000000020000000000000000000000000000000000000000000000000000000000000000000",
      "type": "0x2",
      "transactionHash": "0xab0bc5a0c54cf23704dcd6b5904a5400fc1223733553c50be05825480cfac150",
      "transactionIndex": "0x64",
      "blockHash": "0xb527002ad09b983e4ed56a94fce078a5307ab3ad60dd8f7db1f800a1d3a8f2aa",
      "blockNumber": "0x731cba",
      "gasUsed": "0xfd0f",
      "effectiveGasPrice": "0xce55c58e",
      "from": "0xc77f7fed3b5cc8249adc428c5f44c9063b9734b4",
      "to": "0x8aafd3ede9adb0ff97c7aebce82a919afb1c8764",
      "contractAddress": null
    }
  ],
  "libraries": [],
  "pending": [],
  "returns": {},
  "timestamp": 1737512341,
  "chain": 11155111,
  "commit": "1d2fb70"
}