{
  "transactions": [
    {
      "hash": "0x7376a9e7db346dc41cea9375d352923dfb8cddcf05ba80c1cf334826e8234a98",
      "transactionType": "CALL",
      "contractName": null,
      "contractAddress": "0x8aafd3ede9adb0ff97c7aebce82a919afb1c8764",
      "function": "buy(address)",
      "arguments": [
        "0xC77f7fed3b5Cc8249aDc428c5F44C9063B9734b4"
      ],
      "transaction": {
        "from": "0xc77f7fed3b5cc8249adc428c5f44c9063b9734b4",
        "to": "0x8aafd3ede9adb0ff97c7aebce82a919afb1c8764",
        "gas": "0x156ea",
        "value": "0xde0b6b3a7640000",
        "input": "0xf088d547000000000000000000000000c77f7fed3b5cc8249adc428c5f44c9063b9734b4",
        "nonce": "0x141d",
        "chainId": "0xaa36a7"
      },
      "additionalContracts": [],
      "isFixedGasLimit": false
    }
  ],
  "receipts": [
    {
      "status": "0x1",
      "cumulativeGasUsed": "0x13bdbdb",
      "logs": [
        {
          "address": "0x8aafd3ede9adb0ff97c7aebce82a919afb1c8764",
          "topics": [
            "0xddf252ad1be2c89b69c2b068fc378daa952ba7f163c4a11628f55a4df523b3ef",
            "0x0000000000000000000000000000000000000000000000000000000000000000",
            "0x000000000000000000000000c77f7fed3b5cc8249adc428c5f44c9063b9734b4"
          ],
          "data": "0x00000000000000000000000000000000000000000000000d394dcf39ee1c4fae",
          "blockHash": "0x0167090a9682f8f16358db4dc6e53b9e33c9b80da59e82799f55623249d3718d",
          "blockNumber": "0x731b58",
          "transactionHash": "0x7376a9e7db346dc41cea9375d352923dfb8cddcf05ba80c1cf334826e8234a98",
          "transactionIndex": "0xae",
          "logIndex": "0xa1",
          "removed": false
        },
        {
          "address": "0x8aafd3ede9adb0ff97c7aebce82a919afb1c8764",
          "topics": [
            "0xddf252ad1be2c89b69c2b068fc378daa952ba7f163c4a11628f55a4df523b3ef",
            "0x0000000000000000000000000000000000000000000000000000000000000000",
            "0x000000000000000000000000c77f7fed3b5cc8249adc428c5f44c9063b9734b4"
          ],
          "data": "0x0000000000000000000000000000000000000000000000000a44cdd1e8e9ea73",
          "blockHash": "0x0167090a9682f8f16358db4dc6e53b9e33c9b80da59e82799f55623249d3718d",
          "blockNumber": "0x731b58",
          "transactionHash": "0x7376a9e7db346dc41cea9375d352923dfb8cddcf05ba80c1cf334826e8234a98",
          "transactionIndex": "0xae",
          "logIndex": "0xa2",
          "removed": false
        },
        {
          "address": "0x8aafd3ede9adb0ff97c7aebce82a919afb1c8764",
          "topics": [
            "0x4afcb4a87cdbd9974efdb92ee48bc8d7cd0ae4bf217004db3d080cbaee652ca7"
          ],
          "data": "0x00000000000000000000000000000000000000000000000000000000679044f0000000000000000000000000000000000000000000000000000e71614bd083580000000000000000000000000000000000000000000000000de0b6b3a7640000",
          "blockHash": "0x0167090a9682f8f16358db4dc6e53b9e33c9b80da59e82799f55623249d3718d",
          "blockNumber": "0x731b58",
          "transactionHash": "0x7376a9e7db346dc41cea9375d352923dfb8cddcf05ba80c1cf334826e8234a98",
          "transactionIndex": "0xae",
          "logIndex": "0xa3",
          "removed": false
        }
      ],
      "logsBloom": "0x00000000000000000000000000000000000000000600000000000000000000000000000000000000000000000000000000000000000000004000000000000000000000000000004000000008000000000000000000000000000000000000000000000000020000000000000000000800020000000000000000000010000000000000000000000000000000000000000000000000000000000000010000000000000000000000000000000000000000004000000000000000000000000000000000000002000000800000000000000000000000000000080000000000000020000000000000000000000000000000000000000000000000000000000000000000",
      "type": "0x2",
      "transactionHash": "0x7376a9e7db346dc41cea9375d352923dfb8cddcf05ba80c1cf334826e8234a98",
      "transactionIndex": "0xae",
      "blockHash": "0x0167090a9682f8f16358db4dc6e53b9e33c9b80da59e82799f55623249d3718d",
      "blockNumber": "0x731b58",
      "gasUsed": "0xf844",
      "effectiveGasPrice": "0xe92a8c20",
      "from": "0xc77f7fed3b5cc8249adc428c5f44c9063b9734b4",
      "to": "0x8aafd3ede9adb0ff97c7aebce82a919afb1c8764",
      "contractAddress": null
    }
  ],
  "libraries": [],
  "pending": [],
  "returns": {},
  "timestamp": 1737508083,
  "chain": 11155111,
  "commit": "1d2fb70"
}