{
  "transactions": [
    {
      "hash": "0x51b03231f945d006f2427b924087366af4a4388ff0d41754523a07c58caf10a7",
      "transactionType": "CALL",
      "contractName": null,
      "contractAddress": "0x5eb9cc76c3506942c1c0ead70e877dd5e4f00cb0",
      "function": "buy(address)",
      "arguments": [
        "0xC77f7fed3b5Cc8249aDc428c5F44C9063B9734b4"
      ],
      "transaction": {
        "from": "0xc77f7fed3b5cc8249adc428c5f44c9063b9734b4",
        "to": "0x5eb9cc76c3506942c1c0ead70e877dd5e4f00cb0",
        "gas": "0x1b30c",
        "value": "0xde0b6b3a7640000",
        "input": "0xf088d547000000000000000000000000c77f7fed3b5cc8249adc428c5f44c9063b9734b4",
        "nonce": "0x234",
        "chainId": "0xaa36a7"
      },
      "additionalContracts": [],
      "isFixedGasLimit": false
    }
  ],
  "receipts": [
    {
      "status": "0x1",
      "cumulativeGasUsed": "0xd9dc3d",
      "logs": [
        {
          "address": "0x5eb9cc76c3506942c1c0ead70e877dd5e4f00cb0",
          "topics": [
            "0xddf252ad1be2c89b69c2b068fc378daa952ba7f163c4a11628f55a4df523b3ef",
            "0x0000000000000000000000000000000000000000000000000000000000000000",
            "0x000000000000000000000000c77f7fed3b5cc8249adc428c5f44c9063b9734b4"
          ],
          "data": "0x0000000000000000000000000000000000000000000000357c30e1844a81b712",
          "blockHash": "0x2ea28c7bc7f71e54c03eea9079f3a2f13afd9e25ad6b4b9c1a8177684f6cfc4e",
          "blockNumber": "0x724de8",
          "transactionHash": "0x51b03231f945d006f2427b924087366af4a4388ff0d41754523a07c58caf10a7",
          "transactionIndex": "0x79",
          "logIndex": "0xbf",
          "removed": false
        },
        {
          "address": "0x5eb9cc76c3506942c1c0ead70e877dd5e4f00cb0",
          "topics": [
            "0xddf252ad1be2c89b69c2b068fc378daa952ba7f163c4a11628f55a4df523b3ef",
            "0x0000000000000000000000000000000000000000000000000000000000000000",
            "0x000000000000000000000000c77f7fed3b5cc8249adc428c5f44c9063b9734b4"
          ],
          "data": "0x0000000000000000000000000000000000000000000000002988740bc50dd9ce",
          "blockHash": "0x2ea28c7bc7f71e54c03eea9079f3a2f13afd9e25ad6b4b9c1a8177684f6cfc4e",
          "blockNumber": "0x724de8",
          "transactionHash": "0x51b03231f945d006f2427b924087366af4a4388ff0d41754523a07c58caf10a7",
          "transactionIndex": "0x79",
          "logIndex": "0xc0",
          "removed": false
        },
        {
          "address": "0x5eb9cc76c3506942c1c0ead70e877dd5e4f00cb0",
          "topics": [
            "0x4afcb4a87cdbd9974efdb92ee48bc8d7cd0ae4bf217004db3d080cbaee652ca7"
          ],
          "data": "0x00000000000000000000000000000000000000000000000000000000678698940000000000000000000000000000000000000000000000000003909acf05acfe0000000000000000000000000000000000000000000000000de0b6b3a7640000",
          "blockHash": "0x2ea28c7bc7f71e54c03eea9079f3a2f13afd9e25ad6b4b9c1a8177684f6cfc4e",
          "blockNumber": "0x724de8",
          "transactionHash": "0x51b03231f945d006f2427b924087366af4a4388ff0d41754523a07c58caf10a7",
          "transactionIndex": "0x79",
          "logIndex": "0xc1",
          "removed": false
        }
      ],
      "logsBloom": "0x00000000000000000000000000000000000000000000000000000000000000000000000000000000000000000000000000000000000000004000000000000000000000000000000000000008000000000000000000000000000000000000000000000000020000000000000004000800020000000000000000000010000000000000000000000000000000000000000000000000000000000000010000000000000000000000000000000000000000004000000000000000000000000000020000000002000000800000008000000000000000000000080000000000000020000000000000000000000000000000000000000000000000000000000000000000",
      "type": "0x2",
      "transactionHash": "0x51b03231f945d006f2427b924087366af4a4388ff0d41754523a07c58caf10a7",
      "transactionIndex": "0x79",
      "blockHash": "0x2ea28c7bc7f71e54c03eea9079f3a2f13afd9e25ad6b4b9c1a8177684f6cfc4e",
      "blockNumber": "0x724de8",
      "gasUsed": "0x13af8",
      "effectiveGasPrice": "0x3fb610c63",
      "from": "0xc77f7fed3b5cc8249adc428c5f44c9063b9734b4",
      "to": "0x5eb9cc76c3506942c1c0ead70e877dd5e4f00cb0",
      "contractAddress": null
    }
  ],
  "libraries": [],
  "pending": [],
  "returns": {},
  "timestamp": 1736874133,
  "chain": 11155111,
  "commit": "51a374b"
}