{
  "transactions": [
    {
      "hash": "0x9913233fb23fbc2f3b7733e0d36a8d39979baf2d5ebbae566a55c0a1b6d80f72",
      "transactionType": "CALL",
      "contractName": null,
      "contractAddress": "0x8aafd3ede9adb0ff97c7aebce82a919afb1c8764",
      "function": "sell(uint256)",
      "arguments": [
        "5202724085"
      ],
      "transaction": {
        "from": "0xc77f7fed3b5cc8249adc428c5f44c9063b9734b4",
        "to": "0x8aafd3ede9adb0ff97c7aebce82a919afb1c8764",
        "gas": "0x1722a",
        "value": "0x0",
        "input": "0xe4849b3200000000000000000000000000000000000000000000000000000001361b44f5",
        "nonce": "0x16c6",
        "chainId": "0xaa36a7"
      },
      "additionalContracts": [],
      "isFixedGasLimit": false
    }
  ],
  "receipts": [
    {
      "status": "0x1",
      "cumulativeGasUsed": "0x4cbe2e",
      "logs": [
        {
          "address": "0x8aafd3ede9adb0ff97c7aebce82a919afb1c8764",
          "topics": [
            "0xddf252ad1be2c89b69c2b068fc378daa952ba7f163c4a11628f55a4df523b3ef",
            "0x000000000000000000000000c77f7fed3b5cc8249adc428c5f44c9063b9734b4",
            "0x0000000000000000000000000000000000000000000000000000000000000000"
          ],
          "data": "0x0000000000000000000000000000000000000000000000000000000133a02bd5",
          "blockHash": "0x68fc1dd4d1623dcdd72f7e5acc5aa52a90a1197f7a2bf8f37ffc8f1208101549",
          "blockNumber": "0x731e80",
          "transactionHash": "0x9913233fb23fbc2f3b7733e0d36a8d39979baf2d5ebbae566a55c0a1b6d80f72",
          "transactionIndex": "0x44",
          "logIndex": "0x43",
          "removed": false
        },
        {
          "address": "0x8aafd3ede9adb0ff97c7aebce82a919afb1c8764",
          "topics": [
            "0xddf252ad1be2c89b69c2b068fc378daa952ba7f163c4a11628f55a4df523b3ef",
            "0x000000000000000000000000c77f7fed3b5cc8249adc428c5f44c9063b9734b4",
            "0x000000000000000000000000c77f7fed3b5cc8249adc428c5f44c9063b9734b4"
          ],
          "data": "0x00000000000000000000000000000000000000000000000000000000027b1920",
          "blockHash": "0x68fc1dd4d1623dcdd72f7e5acc5aa52a90a1197f7a2bf8f37ffc8f1208101549",
          "blockNumber": "0x731e80",
          "transactionHash": "0x9913233fb23fbc2f3b7733e0d36a8d39979baf2d5ebbae566a55c0a1b6d80f72",
          "transactionIndex": "0x44",
          "logIndex": "0x44",
          "removed": false
        },
        {
          "address": "0x8aafd3ede9adb0ff97c7aebce82a919afb1c8764",
          "topics": [
            "0x4afcb4a87cdbd9974efdb92ee48bc8d7cd0ae4bf217004db3d080cbaee652ca7"
          ],
          "data": "0x0000000000000000000000000000000000000000000000000000000067906ae800000000000000000000000000000000000000000000000000165306961018230000000000000000000000000000000000000000000000000000000001f2d947",
          "blockHash": "0x68fc1dd4d1623dcdd72f7e5acc5aa52a90a1197f7a2bf8f37ffc8f1208101549",
          "blockNumber": "0x731e80",
          "transactionHash": "0x9913233fb23fbc2f3b7733e0d36a8d39979baf2d5ebbae566a55c0a1b6d80f72",
          "transactionIndex": "0x44",
          "logIndex": "0x45",
          "removed": false
        }
      ],
      "logsBloom": "0x00000000000000000000000000000000000000000600000000000000000000000000000000000000000000000000000000000000000000004000000000000000000000000000004000000008000000000000000000000000000000000000000000000000020000000000000000000800020000000000000000000010000000000000000000000000000000000000000000000000000000000000010000000000000000000000000000000000000000004000000000000000000000000000000000000002000000800000000000000000000000000000080000000000000020000000000000000000000000000000000000000000000000000000000000000000",
      "type": "0x2",
      "transactionHash": "0x9913233fb23fbc2f3b7733e0d36a8d39979baf2d5ebbae566a55c0a1b6d80f72",
      "transactionIndex": "0x44",
      "blockHash": "0x68fc1dd4d1623dcdd72f7e5acc5aa52a90a1197f7a2bf8f37ffc8f1208101549",
      "blockNumber": "0x731e80",
      "gasUsed": "0xfd1b",
      "effectiveGasPrice": "0x483ac9b1",
      "from": "0xc77f7fed3b5cc8249adc428c5f44c9063b9734b4",
      "to": "0x8aafd3ede9adb0ff97c7aebce82a919afb1c8764",
      "contractAddress": null
    }
  ],
  "libraries": [],
  "pending": [],
  "returns": {},
  "timestamp": 1737517801,
  "chain": 11155111,
  "commit": "1d2fb70"
}