{
  "transactions": [
    {
      "hash": "0x69a7d92a5e0482ef8f6896fd82b646df828b3175ae0298b241a2af18c5d9a994",
      "transactionType": "CALL",
      "contractName": null,
      "contractAddress": "0x8aafd3ede9adb0ff97c7aebce82a919afb1c8764",
      "function": "sell(uint256)",
      "arguments": [
        "82858617753117"
      ],
      "transaction": {
        "from": "0xc77f7fed3b5cc8249adc428c5f44c9063b9734b4",
        "to": "0x8aafd3ede9adb0ff97c7aebce82a919afb1c8764",
        "gas": "0x15daa",
        "value": "0x0",
        "input": "0xe4849b3200000000000000000000000000000000000000000000000000004b5c067a4e1d",
        "nonce": "0x16a0",
        "chainId": "0xaa36a7"
      },
      "additionalContracts": [],
      "isFixedGasLimit": false
    }
  ],
  "receipts": [
    {
      "status": "0x1",
      "cumulativeGasUsed": "0xcd111d",
      "logs": [
        {
          "address": "0x8aafd3ede9adb0ff97c7aebce82a919afb1c8764",
          "topics": [
            "0xddf252ad1be2c89b69c2b068fc378daa952ba7f163c4a11628f55a4df523b3ef",
            "0x000000000000000000000000c77f7fed3b5cc8249adc428c5f44c9063b9734b4",
            "0x0000000000000000000000000000000000000000000000000000000000000000"
          ],
          "data": "0x00000000000000000000000000000000000000000000000000004ac1b068f155",
          "blockHash": "0x7aa787d5f2217c77855e21f41769cce944cbd17a05f3ba48312a08cb2b0cf8f0",
          "blockNumber": "0x731e57",
          "transactionHash": "0x69a7d92a5e0482ef8f6896fd82b646df828b3175ae0298b241a2af18c5d9a994",
          "transactionIndex": "0x85",
          "logIndex": "0x10b",
          "removed": false
        },
        {
          "address": "0x8aafd3ede9adb0ff97c7aebce82a919afb1c8764",
          "topics": [
            "0xddf252ad1be2c89b69c2b068fc378daa952ba7f163c4a11628f55a4df523b3ef",
            "0x000000000000000000000000c77f7fed3b5cc8249adc428c5f44c9063b9734b4",
            "0x000000000000000000000000c77f7fed3b5cc8249adc428c5f44c9063b9734b4"
          ],
          "data": "0x0000000000000000000000000000000000000000000000000000009a56115cc8",
          "blockHash": "0x7aa787d5f2217c77855e21f41769cce944cbd17a05f3ba48312a08cb2b0cf8f0",
          "blockNumber": "0x731e57",
          "transactionHash": "0x69a7d92a5e0482ef8f6896fd82b646df828b3175ae0298b241a2af18c5d9a994",
          "transactionIndex": "0x85",
          "logIndex": "0x10c",
          "removed": false
        },
        {
          "address": "0x8aafd3ede9adb0ff97c7aebce82a919afb1c8764",
          "topics": [
            "0x4afcb4a87cdbd9974efdb92ee48bc8d7cd0ae4bf217004db3d080cbaee652ca7"
          ],
          "data": "0x00000000000000000000000000000000000000000000000000000000679068fc0000000000000000000000000000000000000000000000000015e77edbed5ee200000000000000000000000000000000000000000000000000000076f1f29c82",
          "blockHash": "0x7aa787d5f2217c77855e21f41769cce944cbd17a05f3ba48312a08cb2b0cf8f0",
          "blockNumber": "0x731e57",
          "transactionHash": "0x69a7d92a5e0482ef8f6896fd82b646df828b3175ae0298b241a2af18c5d9a994",
          "transactionIndex": "0x85",
          "logIndex": "0x10d",
          "removed": false
        }
      ],
      "logsBloom": "0x00000000000000000000000000000000000000000600000000000000000000000000000000000000000000000000000000000000000000004000000000000000000000000000004000000008000000000000000000000000000000000000000000000000020000000000000000000800020000000000000000000010000000000000000000000000000000000000000000000000000000000000010000000000000000000000000000000000000000004000000000000000000000000000000000000002000000800000000000000000000000000000080000000000000020000000000000000000000000000000000000000000000000000000000000000000",
      "type": "0x2",
      "transactionHash": "0x69a7d92a5e0482ef8f6896fd82b646df828b3175ae0298b241a2af18c5d9a994",
      "transactionIndex": "0x85",
      "blockHash": "0x7aa787d5f2217c77855e21f41769cce944cbd17a05f3ba48312a08cb2b0cf8f0",
      "blockNumber": "0x731e57",
      "gasUsed": "0xfd27",
      "effectiveGasPrice": "0x5c72a655",
      "from": "0xc77f7fed3b5cc8249adc428c5f44c9063b9734b4",
      "to": "0x8aafd3ede9adb0ff97c7aebce82a919afb1c8764",
      "contractAddress": null
    }
  ],
  "libraries": [],
  "pending": [],
  "returns": {},
  "timestamp": 1737517309,
  "chain": 11155111,
  "commit": "1d2fb70"
}