{
  "transactions": [
    {
      "hash": "0xe99a9484bbcd3d0cb86d29a4234644b6bb71566805b25f9573bf7309d98feee6",
      "transactionType": "CALL",
      "contractName": null,
      "contractAddress": "0x5eb9cc76c3506942c1c0ead70e877dd5e4f00cb0",
      "function": "sell(uint256)",
      "arguments": [
        "989614024406038424634"
      ],
      "transaction": {
        "from": "0xc77f7fed3b5cc8249adc428c5f44c9063b9734b4",
        "to": "0x5eb9cc76c3506942c1c0ead70e877dd5e4f00cb0",
        "gas": "0x16fec",
        "value": "0x0",
        "input": "0xe4849b32000000000000000000000000000000000000000000000035a5a747ff5aab2c3a",
        "nonce": "0x257",
        "chainId": "0xaa36a7"
      },
      "additionalContracts": [],
      "isFixedGasLimit": false
    }
  ],
  "receipts": [
    {
      "status": "0x1",
      "cumulativeGasUsed": "0xd5bde8",
      "logs": [
        {
          "address": "0x5eb9cc76c3506942c1c0ead70e877dd5e4f00cb0",
          "topics": [
            "0xddf252ad1be2c89b69c2b068fc378daa952ba7f163c4a11628f55a4df523b3ef",
            "0x000000000000000000000000c77f7fed3b5cc8249adc428c5f44c9063b9734b4",
            "0x0000000000000000000000000000000000000000000000000000000000000000"
          ],
          "data": "0x000000000000000000000000000000000000000000000035a5a747ff5aab2c3a",
          "blockHash": "0x892daebb2471ebff96fb93a0178b671b8e23ce833874d2a5ae780ec519306458",
          "blockNumber": "0x724e12",
          "transactionHash": "0xe99a9484bbcd3d0cb86d29a4234644b6bb71566805b25f9573bf7309d98feee6",
          "transactionIndex": "0x76",
          "logIndex": "0xda",
          "removed": false
        },
        {
          "address": "0x5eb9cc76c3506942c1c0ead70e877dd5e4f00cb0",
          "topics": [
            "0x4afcb4a87cdbd9974efdb92ee48bc8d7cd0ae4bf217004db3d080cbaee652ca7"
          ],
          "data": "0x0000000000000000000000000000000000000000000000000000000067869a8c0000000000000000000000000000000000000000000000000003909c0dadd5980000000000000000000000000000000000000000000000000dc7db1183792cfb",
          "blockHash": "0x892daebb2471ebff96fb93a0178b671b8e23ce833874d2a5ae780ec519306458",
          "blockNumber": "0x724e12",
          "transactionHash": "0xe99a9484bbcd3d0cb86d29a4234644b6bb71566805b25f9573bf7309d98feee6",
          "transactionIndex": "0x76",
          "logIndex": "0xdb",
          "removed": false
        }
      ],
      "logsBloom": "0x00000000000000000000000000000000000000000000000000000000000000000000000000000000000000000000000000000000000000004000000000000000000000000000000000000008000000000000000000000000000000000000000000000000020000000000000004000800020000000000000000000010000000000000000000000000000000000000000000000000000000000000010000000000000000000000000000000000000000004000000000000000000000000000020000000002000000800000008000000000000000000000080000000000000020000000000000000000000000000000000000000000000000000000000000000000",
      "type": "0x2",
      "transactionHash": "0xe99a9484bbcd3d0cb86d29a4234644b6bb71566805b25f9573bf7309d98feee6",
      "transactionIndex": "0x76",
      "blockHash": "0x892daebb2471ebff96fb93a0178b671b8e23ce833874d2a5ae780ec519306458",
      "blockNumber": "0x724e12",
      "gasUsed": "0xfb93",
      "effectiveGasPrice": "0x331ce2257",
      "from": "0xc77f7fed3b5cc8249adc428c5f44c9063b9734b4",
      "to": "0x5eb9cc76c3506942c1c0ead70e877dd5e4f00cb0",
      "contractAddress": null
    }
  ],
  "libraries": [],
  "pending": [],
  "returns": {},
  "timestamp": 1736874637,
  "chain": 11155111,
  "commit": "51a374b"
}