{
  "transactions": [
    {
      "hash": "0x9b8d7fb0f930d72112fda84cedd80fb490739149ba4785c7e8bedeeb04d17a76",
      "transactionType": "CALL",
      "contractName": null,
      "contractAddress": "0xbf4a322f1496e5c3d34a9bcdb4c60567b38c7de2",
      "function": "sell(uint256)",
      "arguments": [
        "981438028644608143942"
      ],
      "transaction": {
        "from": "0xc77f7fed3b5cc8249adc428c5f44c9063b9734b4",
        "to": "0xbf4a322f1496e5c3d34a9bcdb4c60567b38c7de2",
        "gas": "0x16fea",
        "value": "0x0",
        "input": "0xe4849b3200000000000000000000000000000000000000000000003534304f2bb5847246",
        "nonce": "0xbad",
        "chainId": "0xaa36a7"
      },
      "additionalContracts": [],
      "isFixedGasLimit": false
    }
  ],
  "receipts": [
    {
      "status": "0x1",
      "cumulativeGasUsed": "0x181adeb",
      "logs": [
        {
          "address": "0xbf4a322f1496e5c3d34a9bcdb4c60567b38c7de2",
          "topics": [
            "0xddf252ad1be2c89b69c2b068fc378daa952ba7f163c4a11628f55a4df523b3ef",
            "0x000000000000000000000000c77f7fed3b5cc8249adc428c5f44c9063b9734b4",
            "0x0000000000000000000000000000000000000000000000000000000000000000"
          ],
          "data": "0x00000000000000000000000000000000000000000000003534304f2bb5847246",
          "blockHash": "0x3f14ca3f87ef265f00a49db50252b566726d5f391fb38d7b33cd5188e91dbe37",
          "blockNumber": "0x725bc5",
          "transactionHash": "0x9b8d7fb0f930d72112fda84cedd80fb490739149ba4785c7e8bedeeb04d17a76",
          "transactionIndex": "0x80",
          "logIndex": "0xed",
          "removed": false
        },
        {
          "address": "0xbf4a322f1496e5c3d34a9bcdb4c60567b38c7de2",
          "topics": [
            "0x4afcb4a87cdbd9974efdb92ee48bc8d7cd0ae4bf217004db3d080cbaee652ca7"
          ],
          "data": "0x0000000000000000000000000000000000000000000000000000000067873f980000000000000000000000000000000000000000000000000003983cb71e260f0000000000000000000000000000000000000000000000000dc7e3e568e709cf",
          "blockHash": "0x3f14ca3f87ef265f00a49db50252b566726d5f391fb38d7b33cd5188e91dbe37",
          "blockNumber": "0x725bc5",
          "transactionHash": "0x9b8d7fb0f930d72112fda84cedd80fb490739149ba4785c7e8bedeeb04d17a76",
          "transactionIndex": "0x80",
          "logIndex": "0xee",
          "removed": false
        }
      ],
      "logsBloom": "0x00000000000000000000000000000000000000000000000000000000000000000000000000000000000000000000000000000000000000004000000000000000000000000000000000000008000000000000001000000000000000000000000000000000020000000000000000000800020000000000000000000010000000000000000000000000000000000000000000000000000008000000010000000000000000000000000000000000000000004000000000000000000000000000000000000002000000800000000000001000000000000000080000000000000020000000000000000000000000000000000000000000000000000000000000000000",
      "type": "0x2",
      "transactionHash": "0x9b8d7fb0f930d72112fda84cedd80fb490739149ba4785c7e8bedeeb04d17a76",
      "transactionIndex": "0x80",
      "blockHash": "0x3f14ca3f87ef265f00a49db50252b566726d5f391fb38d7b33cd5188e91dbe37",
      "blockNumber": "0x725bc5",
      "gasUsed": "0xfb91",
      "effectiveGasPrice": "0x55da6f72",
      "from": "0xc77f7fed3b5cc8249adc428c5f44c9063b9734b4",
      "to": "0xbf4a322f1496e5c3d34a9bcdb4c60567b38c7de2",
      "contractAddress": null
    }
  ],
  "libraries": [],
  "pending": [],
  "returns": {},
  "timestamp": 1736916889,
  "chain": 11155111,
  "commit": "51a374b"
}