{
  "transactions": [
    {
      "hash": "0x697654ab72059d4d6af84eea4aafdd3fa605ebdb95570e29cb2e85f9970ac3f1",
      "transactionType": "CALL",
      "contractName": null,
      "contractAddress": "0x270e88f8683660553e8ba4eb2ad7c91a1710d769",
      "function": "sell(uint256)",
      "arguments": [
        "985394707805650863593"
      ],
      "transaction": {
        "from": "0xc77f7fed3b5cc8249adc428c5f44c9063b9734b4",
        "to": "0x270e88f8683660553e8ba4eb2ad7c91a1710d769",
        "gas": "0x16fec",
        "value": "0x0",
        "input": "0xe4849b320000000000000000000000000000000000000000000000356b1941e781a8c5e9",
        "nonce": "0x505",
        "chainId": "0xaa36a7"
      },
      "additionalContracts": [],
      "isFixedGasLimit": false
    }
  ],
  "receipts": [
    {
      "status": "0x1",
      "cumulativeGasUsed": "0x10d9e2e",
      "logs": [
        {
          "address": "0x270e88f8683660553e8ba4eb2ad7c91a1710d769",
          "topics": [
            "0xddf252ad1be2c89b69c2b068fc378daa952ba7f163c4a11628f55a4df523b3ef",
            "0x000000000000000000000000c77f7fed3b5cc8249adc428c5f44c9063b9734b4",
            "0x0000000000000000000000000000000000000000000000000000000000000000"
          ],
          "data": "0x0000000000000000000000000000000000000000000000356b1941e781a8c5e9",
          "blockHash": "0x661203e5e981055deffea6a388fd47fa295e3b633c0dd8f2f0723a86e9638fac",
          "blockNumber": "0x72519a",
          "transactionHash": "0x697654ab72059d4d6af84eea4aafdd3fa605ebdb95570e29cb2e85f9970ac3f1",
          "transactionIndex": "0x98",
          "logIndex": "0x120",
          "removed": false
        },
        {
          "address": "0x270e88f8683660553e8ba4eb2ad7c91a1710d769",
          "topics": [
            "0x4afcb4a87cdbd9974efdb92ee48bc8d7cd0ae4bf217004db3d080cbaee652ca7"
          ],
          "data": "0x000000000000000000000000000000000000000000000000000000006786c51c000000000000000000000000000000000000000000000000000394cf3ac29bbd0000000000000000000000000000000000000000000000000dc841cb63c0e8eb",
          "blockHash": "0x661203e5e981055deffea6a388fd47fa295e3b633c0dd8f2f0723a86e9638fac",
          "blockNumber": "0x72519a",
          "transactionHash": "0x697654ab72059d4d6af84eea4aafdd3fa605ebdb95570e29cb2e85f9970ac3f1",
          "transactionIndex": "0x98",
          "logIndex": "0x121",
          "removed": false
        }
      ],
      "logsBloom": "0x00000000000000000000000000000000000000000000000000000000000000000000000000000000000000000000000020000000000000004000000000000000000000000000000000000008000000000000000000000000000000000000000000000000020000000000000000000800020000000000000000000010000000000000000000010000000000000000000000000000000000000000010000000000000000000000000000000000000000004000000000000000000000000000000000000002000000800000000000000000000000000000080000008000000020000000000000000000000000000000000000000000000000000000000000000000",
      "type": "0x2",
      "transactionHash": "0x697654ab72059d4d6af84eea4aafdd3fa605ebdb95570e29cb2e85f9970ac3f1",
      "transactionIndex": "0x98",
      "blockHash": "0x661203e5e981055deffea6a388fd47fa295e3b633c0dd8f2f0723a86e9638fac",
      "blockNumber": "0x72519a",
      "gasUsed": "0xfb93",
      "effectiveGasPrice": "0x4390807a8",
      "from": "0xc77f7fed3b5cc8249adc428c5f44c9063b9734b4",
      "to": "0x270e88f8683660553e8ba4eb2ad7c91a1710d769",
      "contractAddress": null
    }
  ],
  "libraries": [],
  "pending": [],
  "returns": {},
  "timestamp": 1736885533,
  "chain": 11155111,
  "commit": "51a374b"
}