{
  "transactions": [
    {
      "hash": "0xef4a2662447e56edcda77d212155fc1d77a8e2cc76434c3171a157215a125759",
      "transactionType": "CALL",
      "contractName": null,
      "contractAddress": "0x270e88f8683660553e8ba4eb2ad7c91a1710d769",
      "function": "sell(uint256)",
      "arguments": [
        "979455022494493106190"
      ],
      "transaction": {
        "from": "0xc77f7fed3b5cc8249adc428c5f44c9063b9734b4",
        "to": "0x270e88f8683660553e8ba4eb2ad7c91a1710d769",
        "gas": "0x16fec",
        "value": "0x0",
        "input": "0xe4849b3200000000000000000000000000000000000000000000003518ab4195687ee00e",
        "nonce": "0x52b",
        "chainId": "0xaa36a7"
      },
      "additionalContracts": [],
      "isFixedGasLimit": false
    }
  ],
  "receipts": [
    {
      "status": "0x1",
      "cumulativeGasUsed": "0x15996c3",
      "logs": [
        {
          "address": "0x270e88f8683660553e8ba4eb2ad7c91a1710d769",
          "topics": [
            "0xddf252ad1be2c89b69c2b068fc378daa952ba7f163c4a11628f55a4df523b3ef",
            "0x000000000000000000000000c77f7fed3b5cc8249adc428c5f44c9063b9734b4",
            "0x0000000000000000000000000000000000000000000000000000000000000000"
          ],
          "data": "0x00000000000000000000000000000000000000000000003518ab4195687ee00e",
          "blockHash": "0x35e5a84480318acccbe59d533bf6167a16af38284519263574c3b2ac3d9871ba",
          "blockNumber": "0x7251c5",
          "transactionHash": "0xef4a2662447e56edcda77d212155fc1d77a8e2cc76434c3171a157215a125759",
          "transactionIndex": "0x5f",
          "logIndex": "0xa2",
          "removed": false
        },
        {
          "address": "0x270e88f8683660553e8ba4eb2ad7c91a1710d769",
          "topics": [
            "0x4afcb4a87cdbd9974efdb92ee48bc8d7cd0ae4bf217004db3d080cbaee652ca7"
          ],
          "data": "0x000000000000000000000000000000000000000000000000000000006786c72000000000000000000000000000000000000000000000000000039a5e154416ab0000000000000000000000000000000000000000000000000dc8412f4529be9b",
          "blockHash": "0x35e5a84480318acccbe59d533bf6167a16af38284519263574c3b2ac3d9871ba",
          "blockNumber": "0x7251c5",
          "transactionHash": "0xef4a2662447e56edcda77d212155fc1d77a8e2cc76434c3171a157215a125759",
          "transactionIndex": "0x5f",
          "logIndex": "0xa3",
          "removed": false
        }
      ],
      "logsBloom": "0x00000000000000000000000000000000000000000000000000000000000000000000000000000000000000000000000020000000000000004000000000000000000000000000000000000008000000000000000000000000000000000000000000000000020000000000000000000800020000000000000000000010000000000000000000010000000000000000000000000000000000000000010000000000000000000000000000000000000000004000000000000000000000000000000000000002000000800000000000000000000000000000080000008000000020000000000000000000000000000000000000000000000000000000000000000000",
      "type": "0x2",
      "transactionHash": "0xef4a2662447e56edcda77d212155fc1d77a8e2cc76434c3171a157215a125759",
      "transactionIndex": "0x5f",
      "blockHash": "0x35e5a84480318acccbe59d533bf6167a16af38284519263574c3b2ac3d9871ba",
      "blockNumber": "0x7251c5",
      "gasUsed": "0xfb93",
      "effectiveGasPrice": "0x45eaa147d",
      "from": "0xc77f7fed3b5cc8249adc428c5f44c9063b9734b4",
      "to": "0x270e88f8683660553e8ba4eb2ad7c91a1710d769",
      "contractAddress": null
    }
  ],
  "libraries": [],
  "pending": [],
  "returns": {},
  "timestamp": 1736886049,
  "chain": 11155111,
  "commit": "51a374b"
}