{
  "transactions": [
    {
      "hash": "0x0a153c9d410785f1598783ce2cddbe870a8b4dead91d9eb1bc16c3f6ad405608",
      "transactionType": "CALL",
      "contractName": null,
      "contractAddress": "0x8aafd3ede9adb0ff97c7aebce82a919afb1c8764",
      "function": "sell(uint256)",
      "arguments": [
        "310605445098763621254"
      ],
      "transaction": {
        "from": "0xc77f7fed3b5cc8249adc428c5f44c9063b9734b4",
        "to": "0x8aafd3ede9adb0ff97c7aebce82a919afb1c8764",
        "gas": "0x17270",
        "value": "0x0",
        "input": "0xe4849b32000000000000000000000000000000000000000000000010d68436a8bde69386",
        "nonce": "0x1310",
        "chainId": "0xaa36a7"
      },
      "additionalContracts": [],
      "isFixedGasLimit": false
    }
  ],
  "receipts": [
    {
      "status": "0x1",
      "cumulativeGasUsed": "0xb6ea27",
      "logs": [
        {
          "address": "0x8aafd3ede9adb0ff97c7aebce82a919afb1c8764",
          "topics": [
            "0xddf252ad1be2c89b69c2b068fc378daa952ba7f163c4a11628f55a4df523b3ef",
            "0x000000000000000000000000c77f7fed3b5cc8249adc428c5f44c9063b9734b4",
            "0x0000000000000000000000000000000000000000000000000000000000000000"
          ],
          "data": "0x000000000000000000000000000000000000000000000010b408469b1a96e85c",
          "blockHash": "0x04504bdacde484cb2d95bb7714f248d9eef72ce5c9ce870261e595d0040b00d7",
          "blockNumber": "0x731a1c",
          "transactionHash": "0x0a153c9d410785f1598783ce2cddbe870a8b4dead91d9eb1bc16c3f6ad405608",
          "transactionIndex": "0x9f",
          "logIndex": "0xa6",
          "removed": false
        },
        {
          "address": "0x8aafd3ede9adb0ff97c7aebce82a919afb1c8764",
          "topics": [
            "0xddf252ad1be2c89b69c2b068fc378daa952ba7f163c4a11628f55a4df523b3ef",
            "0x000000000000000000000000c77f7fed3b5cc8249adc428c5f44c9063b9734b4",
            "0x000000000000000000000000c77f7fed3b5cc8249adc428c5f44c9063b9734b4"
          ],
          "data": "0x000000000000000000000000000000000000000000000000227bf00da34fab2a",
          "blockHash": "0x04504bdacde484cb2d95bb7714f248d9eef72ce5c9ce870261e595d0040b00d7",
          "blockNumber": "0x731a1c",
          "transactionHash": "0x0a153c9d410785f1598783ce2cddbe870a8b4dead91d9eb1bc16c3f6ad405608",
          "transactionIndex": "0x9f",
          "logIndex": "0xa7",
          "removed": false
        },
        {
          "address": "0x8aafd3ede9adb0ff97c7aebce82a919afb1c8764",
          "topics": [
            "0x4afcb4a87cdbd9974efdb92ee48bc8d7cd0ae4bf217004db3d080cbaee652ca7"
          ],
          "data": "0x0000000000000000000000000000000000000000000000000000000067903620000000000000000000000000000000000000000000000000000b7566ee61a3570000000000000000000000000000000000000000000000000dcefd78588ff9e7",
          "blockHash": "0x04504bdacde484cb2d95bb7714f248d9eef72ce5c9ce870261e595d0040b00d7",
          "blockNumber": "0x731a1c",
          "transactionHash": "0x0a153c9d410785f1598783ce2cddbe870a8b4dead91d9eb1bc16c3f6ad405608",
          "transactionIndex": "0x9f",
          "logIndex": "0xa8",
          "removed": false
        }
      ],
      "logsBloom": "0x00000000000000000000000000000000000000000600000000000000000000000000000000000000000000000000000000000000000000004000000000000000000000000000004000000008000000000000000000000000000000000000000000000000020000000000000000000800020000000000000000000010000000000000000000000000000000000000000000000000000000000000010000000000000000000000000000000000000000004000000000000000000000000000000000000002000000800000000000000000000000000000080000000000000020000000000000000000000000000000000000000000000000000000000000000000",
      "type": "0x2",
      "transactionHash": "0x0a153c9d410785f1598783ce2cddbe870a8b4dead91d9eb1bc16c3f6ad405608",
      "transactionIndex": "0x9f",
      "blockHash": "0x04504bdacde484cb2d95bb7714f248d9eef72ce5c9ce870261e595d0040b00d7",
      "blockNumber": "0x731a1c",
      "gasUsed": "0xfd4b",
      "effectiveGasPrice": "0x483443e6",
      "from": "0xc77f7fed3b5cc8249adc428c5f44c9063b9734b4",
      "to": "0x8aafd3ede9adb0ff97c7aebce82a919afb1c8764",
      "contractAddress": null
    }
  ],
  "libraries": [],
  "pending": [],
  "returns": {},
  "timestamp": 1737504289,
  "chain": 11155111,
  "commit": "1d2fb70"
}