{
  "transactions": [
    {
      "hash": "0x7c5df18783bfcf1480da25c199c7f1878969300e9a35ae8294d9dad25ad157ce",
      "transactionType": "CALL",
      "contractName": null,
      "contractAddress": "0x5eb9cc76c3506942c1c0ead70e877dd5e4f00cb0",
      "function": "buy(address)",
      "arguments": [
        "0xC77f7fed3b5Cc8249aDc428c5F44C9063B9734b4"
      ],
      "transaction": {
        "from": "0xc77f7fed3b5cc8249adc428c5f44c9063b9734b4",
        "to": "0x5eb9cc76c3506942c1c0ead70e877dd5e4f00cb0",
        "gas": "0x1b30c",
        "value": "0xde0b6b3a7640000",
        "input": "0xf088d547000000000000000000000000c77f7fed3b5cc8249adc428c5f44c9063b9734b4",
        "nonce": "0x3ba",
        "chainId": "0xaa36a7"
      },
      "additionalContracts": [],
      "isFixedGasLimit": false
    }
  ],
  "receipts": [
    {
      "status": "0x1",
      "cumulativeGasUsed": "0x9a9d8a",
      "logs": [
        {
          "address": "0x5eb9cc76c3506942c1c0ead70e877dd5e4f00cb0",
          "topics": [
            "0xddf252ad1be2c89b69c2b068fc378daa952ba7f163c4a11628f55a4df523b3ef",
            "0x0000000000000000000000000000000000000000000000000000000000000000",
            "0x000000000000000000000000c77f7fed3b5cc8249adc428c5f44c9063b9734b4"
          ],
          "data": "0x0000000000000000000000000000000000000000000000357529bb06b51da22d",
          "blockHash": "0x50df0e98c5c51fe8469170f67d4c68f14c9d0a1de8cd3b0a82c4bcf0ae96a606",
          "blockNumber": "0x724fb9",
          "transactionHash": "0x7c5df18783bfcf1480da25c199c7f1878969300e9a35ae8294d9dad25ad157ce",
          "transactionIndex": "0x47",
          "logIndex": "0x6a",
          "removed": false
        },
        {
          "address": "0x5eb9cc76c3506942c1c0ead70e877dd5e4f00cb0",
          "topics": [
            "0xddf252ad1be2c89b69c2b068fc378daa952ba7f163c4a11628f55a4df523b3ef",
            "0x0000000000000000000000000000000000000000000000000000000000000000",
            "0x000000000000000000000000c77f7fed3b5cc8249adc428c5f44c9063b9734b4"
          ],
          "data": "0x0000000000000000000000000000000000000000000000002982fef1c162d77b",
          "blockHash": "0x50df0e98c5c51fe8469170f67d4c68f14c9d0a1de8cd3b0a82c4bcf0ae96a606",
          "blockNumber": "0x724fb9",
          "transactionHash": "0x7c5df18783bfcf1480da25c199c7f1878969300e9a35ae8294d9dad25ad157ce",
          "transactionIndex": "0x47",
          "logIndex": "0x6b",
          "removed": false
        },
        {
          "address": "0x5eb9cc76c3506942c1c0ead70e877dd5e4f00cb0",
          "topics": [
            "0x4afcb4a87cdbd9974efdb92ee48bc8d7cd0ae4bf217004db3d080cbaee652ca7"
          ],
          "data": "0x000000000000000000000000000000000000000000000000000000006786ae7800000000000000000000000000000000000000000000000000039112c9b9888c0000000000000000000000000000000000000000000000000de0b6b3a7640000",
          "blockHash": "0x50df0e98c5c51fe8469170f67d4c68f14c9d0a1de8cd3b0a82c4bcf0ae96a606",
          "blockNumber": "0x724fb9",
          "transactionHash": "0x7c5df18783bfcf1480da25c199c7f1878969300e9a35ae8294d9dad25ad157ce",
          "transactionIndex": "0x47",
          "logIndex": "0x6c",
          "removed": false
        }
      ],
      "logsBloom": "0x00000000000000000000000000000000000000000000000000000000000000000000000000000000000000000000000000000000000000004000000000000000000000000000000000000008000000000000000000000000000000000000000000000000020000000000000004000800020000000000000000000010000000000000000000000000000000000000000000000000000000000000010000000000000000000000000000000000000000004000000000000000000000000000020000000002000000800000008000000000000000000000080000000000000020000000000000000000000000000000000000000000000000000000000000000000",
      "type": "0x2",
      "transactionHash": "0x7c5df18783bfcf1480da25c199c7f1878969300e9a35ae8294d9dad25ad157ce",
      "transactionIndex": "0x47",
      "blockHash": "0x50df0e98c5c51fe8469170f67d4c68f14c9d0a1de8cd3b0a82c4bcf0ae96a606",
      "blockNumber": "0x724fb9",
      "gasUsed": "0x13af8",
      "effectiveGasPrice": "0x411f8b465",
      "from": "0xc77f7fed3b5cc8249adc428c5f44c9063b9734b4",
      "to": "0x5eb9cc76c3506942c1c0ead70e877dd5e4f00cb0",
      "contractAddress": null
    }
  ],
  "libraries": [],
  "pending": [],
  "returns": {},
  "timestamp": 1736879737,
  "chain": 11155111,
  "commit": "51a374b"
}