{
  "transactions": [
    {
      "hash": "0xd7b8d2a167bd9f60f00d08566055e173309e6c94e31814d599b1bd87fca01f69",
      "transactionType": "CALL",
      "contractName": null,
      "contractAddress": "0x8aafd3ede9adb0ff97c7aebce82a919afb1c8764",
      "function": "sell(uint256)",
      "arguments": [
        "24502569481"
      ],
      "transaction": {
        "from": "0xc77f7fed3b5cc8249adc428c5f44c9063b9734b4",
        "to": "0x8aafd3ede9adb0ff97c7aebce82a919afb1c8764",
        "gas": "0x1722a",
        "value": "0x0",
        "input": "0xe4849b3200000000000000000000000000000000000000000000000000000005b4778a09",
        "nonce": "0xeb5",
        "chainId": "0xaa36a7"
      },
      "additionalContracts": [],
      "isFixedGasLimit": false
    }
  ],
  "receipts": [
    {
      "status": "0x1",
      "cumulativeGasUsed": "0x10b156b",
      "logs": [
        {
          "address": "0x8aafd3ede9adb0ff97c7aebce82a919afb1c8764",
          "topics": [
            "0xddf252ad1be2c89b69c2b068fc378daa952ba7f163c4a11628f55a4df523b3ef",
            "0x000000000000000000000000c77f7fed3b5cc8249adc428c5f44c9063b9734b4",
            "0x0000000000000000000000000000000000000000000000000000000000000000"
          ],
          "data": "0x00000000000000000000000000000000000000000000000000000005a8c880be",
          "blockHash": "0x5a5d9357e6bcff9f07cac669a978747f76a6c19b3fc3f9044a9d5c8c070f48b1",
          "blockNumber": "0x731418",
          "transactionHash": "0xd7b8d2a167bd9f60f00d08566055e173309e6c94e31814d599b1bd87fca01f69",
          "transactionIndex": "0xb7",
          "logIndex": "0x122",
          "removed": false
        },
        {
          "address": "0x8aafd3ede9adb0ff97c7aebce82a919afb1c8764",
          "topics": [
            "0xddf252ad1be2c89b69c2b068fc378daa952ba7f163c4a11628f55a4df523b3ef",
            "0x000000000000000000000000c77f7fed3b5cc8249adc428c5f44c9063b9734b4",
            "0x000000000000000000000000c77f7fed3b5cc8249adc428c5f44c9063b9734b4"
          ],
          "data": "0x000000000000000000000000000000000000000000000000000000000baf094b",
          "blockHash": "0x5a5d9357e6bcff9f07cac669a978747f76a6c19b3fc3f9044a9d5c8c070f48b1",
          "blockNumber": "0x731418",
          "transactionHash": "0xd7b8d2a167bd9f60f00d08566055e173309e6c94e31814d599b1bd87fca01f69",
          "transactionIndex": "0xb7",
          "logIndex": "0x123",
          "removed": false
        },
        {
          "address": "0x8aafd3ede9adb0ff97c7aebce82a919afb1c8764",
          "topics": [
            "0x4afcb4a87cdbd9974efdb92ee48bc8d7cd0ae4bf217004db3d080cbaee652ca7"
          ],
          "data": "0x00000000000000000000000000000000000000000000000000000000678fedcc0000000000000000000000000000000000000000000000000004b832f5b36a710000000000000000000000000000000000000000000000000000000001f0ac21",
          "blockHash": "0x5a5d9357e6bcff9f07cac669a978747f76a6c19b3fc3f9044a9d5c8c070f48b1",
          "blockNumber": "0x731418",
          "transactionHash": "0xd7b8d2a167bd9f60f00d08566055e173309e6c94e31814d599b1bd87fca01f69",
          "transactionIndex": "0xb7",
          "logIndex": "0x124",
          "removed": false
        }
      ],
      "logsBloom": "0x00000000000000000000000000000000000000000600000000000000000000000000000000000000000000000000000000000000000000004000000000000000000000000000004000000008000000000000000000000000000000000000000000000000020000000000000000000800020000000000000000000010000000000000000000000000000000000000000000000000000000000000010000000000000000000000000000000000000000004000000000000000000000000000000000000002000000800000000000000000000000000000080000000000000020000000000000000000000000000000000000000000000000000000000000000000",
      "type": "0x2",
      "transactionHash": "0xd7b8d2a167bd9f60f00d08566055e173309e6c94e31814d599b1bd87fca01f69",
      "transactionIndex": "0xb7",
      "blockHash": "0x5a5d9357e6bcff9f07cac669a978747f76a6c19b3fc3f9044a9d5c8c070f48b1",
      "blockNumber": "0x731418",
      "gasUsed": "0xfd1b",
      "effectiveGasPrice": "0x9db8a03e",
      "from": "0xc77f7fed3b5cc8249adc428c5f44c9063b9734b4",
      "to": "0x8aafd3ede9adb0ff97c7aebce82a919afb1c8764",
      "contractAddress": null
    }
  ],
  "libraries": [],
  "pending": [],
  "returns": {},
  "timestamp": 1737485774,
  "chain": 11155111,
  "commit": "51a374b"
}