{
  "transactions": [
    {
      "hash": "0x2ba7c0c853fd55b370db8a39dbc9c960a70b9ea1b6d28d5adb5ea6ff50cd97db",
      "transactionType": "CALL",
      "contractName": null,
      "contractAddress": "0x8aafd3ede9adb0ff97c7aebce82a919afb1c8764",
      "function": "buy(address)",
      "arguments": [
        "0xC77f7fed3b5Cc8249aDc428c5F44C9063B9734b4"
      ],
      "transaction": {
        "from": "0xc77f7fed3b5cc8249adc428c5f44c9063b9734b4",
        "to": "0x8aafd3ede9adb0ff97c7aebce82a919afb1c8764",
        "gas": "0x156ea",
        "value": "0xde0b6b3a7640000",
        "input": "0xf088d547000000000000000000000000c77f7fed3b5cc8249adc428c5f44c9063b9734b4",
        "nonce": "0x1639",
        "chainId": "0xaa36a7"
      },
      "additionalContracts": [],
      "isFixedGasLimit": false
    }
  ],
  "receipts": [
    {
      "status": "0x1",
      "cumulativeGasUsed": "0x75b1cc",
      "logs": [
        {
          "address": "0x8aafd3ede9adb0ff97c7aebce82a919afb1c8764",
          "topics": [
            "0xddf252ad1be2c89b69c2b068fc378daa952ba7f163c4a11628f55a4df523b3ef",
            "0x0000000000000000000000000000000000000000000000000000000000000000",
            "0x000000000000000000000000c77f7fed3b5cc8249adc428c5f44c9063b9734b4"
          ],
          "data": "0x0000000000000000000000000000000000000000000000093c228bc67b0c2f5e",
          "blockHash": "0xb4296d47b18fd9183281cf7b2ef972b9e31a17e056cfa3fc4b15e30f845e6f17",
          "blockNumber": "0x731dd1",
          "transactionHash": "0x2ba7c0c853fd55b370db8a39dbc9c960a70b9ea1b6d28d5adb5ea6ff50cd97db",
          "transactionIndex": "0x57",
          "logIndex": "0x73",
          "removed": false
        },
        {
          "address": "0x8aafd3ede9adb0ff97c7aebce82a919afb1c8764",
          "topics": [
            "0xddf252ad1be2c89b69c2b068fc378daa952ba7f163c4a11628f55a4df523b3ef",
            "0x0000000000000000000000000000000000000000000000000000000000000000",
            "0x000000000000000000000000c77f7fed3b5cc8249adc428c5f44c9063b9734b4"
          ],
          "data": "0x000000000000000000000000000000000000000000000000072bd4d84acbd89a",
          "blockHash": "0xb4296d47b18fd9183281cf7b2ef972b9e31a17e056cfa3fc4b15e30f845e6f17",
          "blockNumber": "0x731dd1",
          "transactionHash": "0x2ba7c0c853fd55b370db8a39dbc9c960a70b9ea1b6d28d5adb5ea6ff50cd97db",
          "transactionIndex": "0x57",
          "logIndex": "0x74",
          "removed": false
        },
        {
          "address": "0x8aafd3ede9adb0ff97c7aebce82a919afb1c8764",
          "topics": [
            "0x4afcb4a87cdbd9974efdb92ee48bc8d7cd0ae4bf217004db3d080cbaee652ca7"
          ],
          "data": "0x00000000000000000000000000000000000000000000000000000000679062b40000000000000000000000000000000000000000000000000014ac38184fc8750000000000000000000000000000000000000000000000000de0b6b3a7640000",
          "blockHash": "0xb4296d47b18fd9183281cf7b2ef972b9e31a17e056cfa3fc4b15e30f845e6f17",
          "blockNumber": "0x731dd1",
          "transactionHash": "0x2ba7c0c853fd55b370db8a39dbc9c960a70b9ea1b6d28d5adb5ea6ff50cd97db",
          "transactionIndex": "0x57",
          "logIndex": "0x75",
          "removed": false
        }
      ],
      "logsBloom": "0x00000000000000000000000000000000000000000600000000000000000000000000000000000000000000000000000000000000000000004000000000000000000000000000004000000008000000000000000000000000000000000000000000000000020000000000000000000800020000000000000000000010000000000000000000000000000000000000000000000000000000000000010000000000000000000000000000000000000000004000000000000000000000000000000000000002000000800000000000000000000000000000080000000000000020000000000000000000000000000000000000000000000000000000000000000000",
      "type": "0x2",
      "transactionHash": "0x2ba7c0c853fd55b370db8a39dbc9c960a70b9ea1b6d28d5adb5ea6ff50cd97db",
      "transactionIndex": "0x57",
      "blockHash": "0xb4296d47b18fd9183281cf7b2ef972b9e31a17e056cfa3fc4b15e30f845e6f17",
      "blockNumber": "0x731dd1",
      "gasUsed": "0xf844",
      "effectiveGasPrice": "0x538342e7",
      "from": "0xc77f7fed3b5cc8249adc428c5f44c9063b9734b4",
      "to": "0x8aafd3ede9adb0ff97c7aebce82a919afb1c8764",
      "contractAddress": null
    }
  ],
  "libraries": [],
  "pending": [],
  "returns": {},
  "timestamp": 1737515702,
  "chain": 11155111,
  "commit": "1d2fb70"
}