{
  "transactions": [
    {
      "hash": "0xb0d35c5759cc37db68c8bce850731990660e7a6da2d516f6aa7b8f3addf6df98",
      "transactionType": "CALL",
      "contractName": null,
      "contractAddress": "0xbf4a322f1496e5c3d34a9bcdb4c60567b38c7de2",
      "function": "sell(uint256)",
      "arguments": [
        "988490642756940072665"
      ],
      "transaction": {
        "from": "0xc77f7fed3b5cc8249adc428c5f44c9063b9734b4",
        "to": "0xbf4a322f1496e5c3d34a9bcdb4c60567b38c7de2",
        "gas": "0x16fea",
        "value": "0x0",
        "input": "0xe4849b3200000000000000000000000000000000000000000000003596103a56ecf806d9",
        "nonce": "0x9a5",
        "chainId": "0xaa36a7"
      },
      "additionalContracts": [],
      "isFixedGasLimit": false
    }
  ],
  "receipts": [
    {
      "status": "0x1",
      "cumulativeGasUsed": "0x9b81cb",
      "logs": [
        {
          "address": "0xbf4a322f1496e5c3d34a9bcdb4c60567b38c7de2",
          "topics": [
            "0xddf252ad1be2c89b69c2b068fc378daa952ba7f163c4a11628f55a4df523b3ef",
            "0x000000000000000000000000c77f7fed3b5cc8249adc428c5f44c9063b9734b4",
            "0x0000000000000000000000000000000000000000000000000000000000000000"
          ],
          "data": "0x00000000000000000000000000000000000000000000003596103a56ecf806d9",
          "blockHash": "0x89a7be48fe0db634a6cd198b76d12c6a56643d434c9666f51b6a9a7b6d231b6c",
          "blockNumber": "0x72594c",
          "transactionHash": "0xb0d35c5759cc37db68c8bce850731990660e7a6da2d516f6aa7b8f3addf6df98",
          "transactionIndex": "0x65",
          "logIndex": "0x99",
          "removed": false
        },
        {
          "address": "0xbf4a322f1496e5c3d34a9bcdb4c60567b38c7de2",
          "topics": [
            "0x4afcb4a87cdbd9974efdb92ee48bc8d7cd0ae4bf217004db3d080cbaee652ca7"
          ],
          "data": "0x00000000000000000000000000000000000000000000000000000000678721bc000000000000000000000000000000000000000000000000000391abf4dfee130000000000000000000000000000000000000000000000000dc7e3f5ce9dbfe7",
          "blockHash": "0x89a7be48fe0db634a6cd198b76d12c6a56643d434c9666f51b6a9a7b6d231b6c",
          "blockNumber": "0x72594c",
          "transactionHash": "0xb0d35c5759cc37db68c8bce850731990660e7a6da2d516f6aa7b8f3addf6df98",
          "transactionIndex": "0x65",
          "logIndex": "0x9a",
          "removed": false
        }
      ],
      "logsBloom": "0x00000000000000000000000000000000000000000000000000000000000000000000000000000000000000000000000000000000000000004000000000000000000000000000000000000008000000000000001000000000000000000000000000000000020000000000000000000800020000000000000000000010000000000000000000000000000000000000000000000000000008000000010000000000000000000000000000000000000000004000000000000000000000000000000000000002000000800000000000001000000000000000080000000000000020000000000000000000000000000000000000000000000000000000000000000000",
      "type": "0x2",
      "transactionHash": "0xb0d35c5759cc37db68c8bce850731990660e7a6da2d516f6aa7b8f3addf6df98",
      "transactionIndex": "0x65",
      "blockHash": "0x89a7be48fe0db634a6cd198b76d12c6a56643d434c9666f51b6a9a7b6d231b6c",
      "blockNumber": "0x72594c",
      "gasUsed": "0xfb91",
      "effectiveGasPrice": "0x2264c9f3d",
      "from": "0xc77f7fed3b5cc8249adc428c5f44c9063b9734b4",
      "to": "0xbf4a322f1496e5c3d34a9bcdb4c60567b38c7de2",
      "contractAddress": null
    }
  ],
  "libraries": [],
  "pending": [],
  "returns": {},
  "timestamp": 1736909245,
  "chain": 11155111,
  "commit": "51a374b"
}