{
  "transactions": [
    {
      "hash": "0xd8797fae84b11f053d014b08a96003452a28ec181a81d9abc447e09f56fb82e5",
      "transactionType": "CALL",
      "contractName": null,
      "contractAddress": "0x8aafd3ede9adb0ff97c7aebce82a919afb1c8764",
      "function": "sell(uint256)",
      "arguments": [
        "52792057"
      ],
      "transaction": {
        "from": "0xc77f7fed3b5cc8249adc428c5f44c9063b9734b4",
        "to": "0x8aafd3ede9adb0ff97c7aebce82a919afb1c8764",
        "gas": "0x15d88",
        "value": "0x0",
        "input": "0xe4849b320000000000000000000000000000000000000000000000000000000003258af9",
        "nonce": "0x1532",
        "chainId": "0xaa36a7"
      },
      "additionalContracts": [],
      "isFixedGasLimit": false
    }
  ],
  "receipts": [
    {
      "status": "0x1",
      "cumulativeGasUsed": "0xaafab4",
      "logs": [
        {
          "address": "0x8aafd3ede9adb0ff97c7aebce82a919afb1c8764",
          "topics": [
            "0xddf252ad1be2c89b69c2b068fc378daa952ba7f163c4a11628f55a4df523b3ef",
            "0x000000000000000000000000c77f7fed3b5cc8249adc428c5f44c9063b9734b4",
            "0x0000000000000000000000000000000000000000000000000000000000000000"
          ],
          "data": "0x00000000000000000000000000000000000000000000000000000000031f1939",
          "blockHash": "0x00941ecd73528f1584ee45c458c26096217f3f4958a4f441c6ced108d7d59984",
          "blockNumber": "0x731c95",
          "transactionHash": "0xd8797fae84b11f053d014b08a96003452a28ec181a81d9abc447e09f56fb82e5",
          "transactionIndex": "0x79",
          "logIndex": "0x9b",
          "removed": false
        },
        {
          "address": "0x8aafd3ede9adb0ff97c7aebce82a919afb1c8764",
          "topics": [
            "0xddf252ad1be2c89b69c2b068fc378daa952ba7f163c4a11628f55a4df523b3ef",
            "0x000000000000000000000000c77f7fed3b5cc8249adc428c5f44c9063b9734b4",
            "0x000000000000000000000000c77f7fed3b5cc8249adc428c5f44c9063b9734b4"
          ],
          "data": "0x00000000000000000000000000000000000000000000000000000000000671c0",
          "blockHash": "0x00941ecd73528f1584ee45c458c26096217f3f4958a4f441c6ced108d7d59984",
          "blockNumber": "0x731c95",
          "transactionHash": "0xd8797fae84b11f053d014b08a96003452a28ec181a81d9abc447e09f56fb82e5",
          "transactionIndex": "0x79",
          "logIndex": "0x9c",
          "removed": false
        },
        {
          "address": "0x8aafd3ede9adb0ff97c7aebce82a919afb1c8764",
          "topics": [
            "0x4afcb4a87cdbd9974efdb92ee48bc8d7cd0ae4bf217004db3d080cbaee652ca7"
          ],
          "data": "0x00000000000000000000000000000000000000000000000000000000679053d800000000000000000000000000000000000000000000000000119f2bc1a6af85000000000000000000000000000000000000000000000000000000000003fedd",
          "blockHash": "0x00941ecd73528f1584ee45c458c26096217f3f4958a4f441c6ced108d7d59984",
          "blockNumber": "0x731c95",
          "transactionHash": "0xd8797fae84b11f053d014b08a96003452a28ec181a81d9abc447e09f56fb82e5",
          "transactionIndex": "0x79",
          "logIndex": "0x9d",
          "removed": false
        }
      ],
      "logsBloom": "0x00000000000000000000000000000000000000000600000000000000000000000000000000000000000000000000000000000000000000004000000000000000000000000000004000000008000000000000000000000000000000000000000000000000020000000000000000000800020000000000000000000010000000000000000000000000000000000000000000000000000000000000010000000000000000000000000000000000000000004000000000000000000000000000000000000002000000800000000000000000000000000000080000000000000020000000000000000000000000000000000000000000000000000000000000000000",
      "type": "0x2",
      "transactionHash": "0xd8797fae84b11f053d014b08a96003452a28ec181a81d9abc447e09f56fb82e5",
      "transactionIndex": "0x79",
      "blockHash": "0x00941ecd73528f1584ee45c458c26096217f3f4958a4f441c6ced108d7d59984",
      "blockNumber": "0x731c95",
      "gasUsed": "0xfd0f",
      "effectiveGasPrice": "0xf34d3649",
      "from": "0xc77f7fed3b5cc8249adc428c5f44c9063b9734b4",
      "to": "0x8aafd3ede9adb0ff97c7aebce82a919afb1c8764",
      "contractAddress": null
    }
  ],
  "libraries": [],
  "pending": [],
  "returns": {},
  "timestamp": 1737511898,
  "chain": 11155111,
  "commit": "1d2fb70"
}