{
  "transactions": [
    {
      "hash": "0x794db7da4ec062691b48717245c5c36157baf536ca8ee0b8c717d6b7923dba75",
      "transactionType": "CALL",
      "contractName": null,
      "contractAddress": "0x8aafd3ede9adb0ff97c7aebce82a919afb1c8764",
      "function": "buy(address)",
      "arguments": [
        "0xC77f7fed3b5Cc8249aDc428c5F44C9063B9734b4"
      ],
      "transaction": {
        "from": "0xc77f7fed3b5cc8249adc428c5f44c9063b9734b4",
        "to": "0x8aafd3ede9adb0ff97c7aebce82a919afb1c8764",
        "gas": "0x156ea",
        "value": "0xde0b6b3a7640000",
        "input": "0xf088d547000000000000000000000000c77f7fed3b5cc8249adc428c5f44c9063b9734b4",
        "nonce": "0x1630",
        "chainId": "0xaa36a7"
      },
      "additionalContracts": [],
      "isFixedGasLimit": false
    }
  ],
  "receipts": [
    {
      "status": "0x1",
      "cumulativeGasUsed": "0xfb40b2",
      "logs": [
        {
          "address": "0x8aafd3ede9adb0ff97c7aebce82a919afb1c8764",
          "topics": [
            "0xddf252ad1be2c89b69c2b068fc378daa952ba7f163c4a11628f55a4df523b3ef",
            "0x0000000000000000000000000000000000000000000000000000000000000000",
            "0x000000000000000000000000c77f7fed3b5cc8249adc428c5f44c9063b9734b4"
          ],
          "data": "0x000000000000000000000000000000000000000000000009482e7b5b79ded228",
          "blockHash": "0x78912fdace87da9ac8d5a941880078cc30a66314229aca9f459bb64cd8e34c03",
          "blockNumber": "0x731dc8",
          "transactionHash": "0x794db7da4ec062691b48717245c5c36157baf536ca8ee0b8c717d6b7923dba75",
          "transactionIndex": "0x80",
          "logIndex": "0xfa",
          "removed": false
        },
        {
          "address": "0x8aafd3ede9adb0ff97c7aebce82a919afb1c8764",
          "topics": [
            "0xddf252ad1be2c89b69c2b068fc378daa952ba7f163c4a11628f55a4df523b3ef",
            "0x0000000000000000000000000000000000000000000000000000000000000000",
            "0x000000000000000000000000c77f7fed3b5cc8249adc428c5f44c9063b9734b4"
          ],
          "data": "0x00000000000000000000000000000000000000000000000007352fa054344cc4",
          "blockHash": "0x78912fdace87da9ac8d5a941880078cc30a66314229aca9f459bb64cd8e34c03",
          "blockNumber": "0x731dc8",
          "transactionHash": "0x794db7da4ec062691b48717245c5c36157baf536ca8ee0b8c717d6b7923dba75",
          "transactionIndex": "0x80",
          "logIndex": "0xfb",
          "removed": false
        },
        {
          "address": "0x8aafd3ede9adb0ff97c7aebce82a919afb1c8764",
          "topics": [
            "0x4afcb4a87cdbd9974efdb92ee48bc8d7cd0ae4bf217004db3d080cbaee652ca7"
          ],
          "data": "0x00000000000000000000000000000000000000000000000000000000679062480000000000000000000000000000000000000000000000000014916abcbb61ad0000000000000000000000000000000000000000000000000de0b6b3a7640000",
          "blockHash": "0x78912fdace87da9ac8d5a941880078cc30a66314229aca9f459bb64cd8e34c03",
          "blockNumber": "0x731dc8",
          "transactionHash": "0x794db7da4ec062691b48717245c5c36157baf536ca8ee0b8c717d6b7923dba75",
          "transactionIndex": "0x80",
          "logIndex": "0xfc",
          "removed": false
        }
      ],
      "logsBloom": "0x00000000000000000000000000000000000000000600000000000000000000000000000000000000000000000000000000000000000000004000000000000000000000000000004000000008000000000000000000000000000000000000000000000000020000000000000000000800020000000000000000000010000000000000000000000000000000000000000000000000000000000000010000000000000000000000000000000000000000004000000000000000000000000000000000000002000000800000000000000000000000000000080000000000000020000000000000000000000000000000000000000000000000000000000000000000",
      "type": "0x2",
      "transactionHash": "0x794db7da4ec062691b48717245c5c36157baf536ca8ee0b8c717d6b7923dba75",
      "transactionIndex": "0x80",
      "blockHash": "0x78912fdace87da9ac8d5a941880078cc30a66314229aca9f459bb64cd8e34c03",
      "blockNumber": "0x731dc8",
      "gasUsed": "0xf844",
      "effectiveGasPrice": "0x57b049ea",
      "from": "0xc77f7fed3b5cc8249adc428c5f44c9063b9734b4",
      "to": "0x8aafd3ede9adb0ff97c7aebce82a919afb1c8764",
      "contractAddress": null
    }
  ],
  "libraries": [],
  "pending": [],
  "returns": {},
  "timestamp": 1737515593,
  "chain": 11155111,
  "commit": "1d2fb70"
}