{
  "transactions": [
    {
      "hash": "0x39ff4d5b56795241242add0e8c6eb1fb0f6d458c098f0b8aeef854c60647914d",
      "transactionType": "CALL",
      "contractName": null,
      "contractAddress": "0x5eb9cc76c3506942c1c0ead70e877dd5e4f00cb0",
      "function": "buy(address)",
      "arguments": [
        "0xC77f7fed3b5Cc8249aDc428c5F44C9063B9734b4"
      ],
      "transaction": {
        "from": "0xc77f7fed3b5cc8249adc428c5f44c9063b9734b4",
        "to": "0x5eb9cc76c3506942c1c0ead70e877dd5e4f00cb0",
        "gas": "0x156c8",
        "value": "0xde0b6b3a7640000",
        "input": "0xf088d547000000000000000000000000c77f7fed3b5cc8249adc428c5f44c9063b9734b4",
        "nonce": "0x1d8",
        "chainId": "0xaa36a7"
      },
      "additionalContracts": [],
      "isFixedGasLimit": false
    }
  ],
  "receipts": [
    {
      "status": "0x1",
      "cumulativeGasUsed": "0xa39136",
      "logs": [
        {
          "address": "0x5eb9cc76c3506942c1c0ead70e877dd5e4f00cb0",
          "topics": [
            "0xddf252ad1be2c89b69c2b068fc378daa952ba7f163c4a11628f55a4df523b3ef",
            "0x0000000000000000000000000000000000000000000000000000000000000000",
            "0x000000000000000000000000c77f7fed3b5cc8249adc428c5f44c9063b9734b4"
          ],
          "data": "0x000000000000000000000000000000000000000000000035a36238de7eb416d1",
          "blockHash": "0x33d02fa4576db867ced3853d00f51a3bc89aca9dece8efa1b117c0732d9d64d1",
          "blockNumber": "0x723cc9",
          "transactionHash": "0x39ff4d5b56795241242add0e8c6eb1fb0f6d458c098f0b8aeef854c60647914d",
          "transactionIndex": "0x63",
          "logIndex": "0x9b",
          "removed": false
        },
        {
          "address": "0x5eb9cc76c3506942c1c0ead70e877dd5e4f00cb0",
          "topics": [
            "0xddf252ad1be2c89b69c2b068fc378daa952ba7f163c4a11628f55a4df523b3ef",
            "0x0000000000000000000000000000000000000000000000000000000000000000",
            "0x000000000000000000000000c77f7fed3b5cc8249adc428c5f44c9063b9734b4"
          ],
          "data": "0x00000000000000000000000000000000000000000000000029a6e347154fda8c",
          "blockHash": "0x33d02fa4576db867ced3853d00f51a3bc89aca9dece8efa1b117c0732d9d64d1",
          "blockNumber": "0x723cc9",
          "transactionHash": "0x39ff4d5b56795241242add0e8c6eb1fb0f6d458c098f0b8aeef854c60647914d",
          "transactionIndex": "0x63",
          "logIndex": "0x9c",
          "removed": false
        },
        {
          "address": "0x5eb9cc76c3506942c1c0ead70e877dd5e4f00cb0",
          "topics": [
            "0x4afcb4a87cdbd9974efdb92ee48bc8d7cd0ae4bf217004db3d080cbaee652ca7"
          ],
          "data": "0x000000000000000000000000000000000000000000000000000000006785cac000000000000000000000000000000000000000000000000000038dfffb6fec0d0000000000000000000000000000000000000000000000000de0b6b3a7640000",
          "blockHash": "0x33d02fa4576db867ced3853d00f51a3bc89aca9dece8efa1b117c0732d9d64d1",
          "blockNumber": "0x723cc9",
          "transactionHash": "0x39ff4d5b56795241242add0e8c6eb1fb0f6d458c098f0b8aeef854c60647914d",
          "transactionIndex": "0x63",
          "logIndex": "0x9d",
          "removed": false
        }
      ],
      "logsBloom": "0x00000000000000000000000000000000000000000000000000000000000000000000000000000000000000000000000000000000000000004000000000000000000000000000000000000008000000000000000000000000000000000000000000000000020000000000000004000800020000000000000000000010000000000000000000000000000000000000000000000000000000000000010000000000000000000000000000000000000000004000000000000000000000000000020000000002000000800000008000000000000000000000080000000000000020000000000000000000000000000000000000000000000000000000000000000000",
      "type": "0x2",
      "transactionHash": "0x39ff4d5b56795241242add0e8c6eb1fb0f6d458c098f0b8aeef854c60647914d",
      "transactionIndex": "0x63",
      "blockHash": "0x33d02fa4576db867ced3853d00f51a3bc89aca9dece8efa1b117c0732d9d64d1",
      "blockNumber": "0x723cc9",
      "gasUsed": "0xf82c",
      "effectiveGasPrice": "0x1e86ab450",
      "from": "0xc77f7fed3b5cc8249adc428c5f44c9063b9734b4",
      "to": "0x5eb9cc76c3506942c1c0ead70e877dd5e4f00cb0",
      "contractAddress": null
    }
  ],
  "libraries": [],
  "pending": [],
  "returns": {},
  "timestamp": 1736821442,
  "chain": 11155111,
  "commit": "51a374b"
}