{
  "transactions": [
    {
      "hash": "0x3d67c7404f329733a171a19ed43d6a6b8b3418b490de5c425e228376e19cbe34",
      "transactionType": "CALL",
      "contractName": null,
      "contractAddress": "0x5eb9cc76c3506942c1c0ead70e877dd5e4f00cb0",
      "function": "buy(address)",
      "arguments": [
        "0xC77f7fed3b5Cc8249aDc428c5F44C9063B9734b4"
      ],
      "transaction": {
        "from": "0xc77f7fed3b5cc8249adc428c5f44c9063b9734b4",
        "to": "0x5eb9cc76c3506942c1c0ead70e877dd5e4f00cb0",
        "gas": "0x1b30c",
        "value": "0xde0b6b3a7640000",
        "input": "0xf088d547000000000000000000000000c77f7fed3b5cc8249adc428c5f44c9063b9734b4",
        "nonce": "0x496",
        "chainId": "0xaa36a7"
      },
      "additionalContracts": [],
      "isFixedGasLimit": false
    }
  ],
  "receipts": [
    {
      "status": "0x1",
      "cumulativeGasUsed": "0xa2b5c5",
      "logs": [
        {
          "address": "0x5eb9cc76c3506942c1c0ead70e877dd5e4f00cb0",
          "topics": [
            "0xddf252ad1be2c89b69c2b068fc378daa952ba7f163c4a11628f55a4df523b3ef",
            "0x0000000000000000000000000000000000000000000000000000000000000000",
            "0x000000000000000000000000c77f7fed3b5cc8249adc428c5f44c9063b9734b4"
          ],
          "data": "0x00000000000000000000000000000000000000000000003574ad8f0979c2931b",
          "blockHash": "0x4dcdd2ddbbfb85715ff68ae7ac3a9c358fe618097f82de41e35744a5065254bc",
          "blockNumber": "0x7250ca",
          "transactionHash": "0x3d67c7404f329733a171a19ed43d6a6b8b3418b490de5c425e228376e19cbe34",
          "transactionIndex": "0x41",
          "logIndex": "0x82",
          "removed": false
        },
        {
          "address": "0x5eb9cc76c3506942c1c0ead70e877dd5e4f00cb0",
          "topics": [
            "0xddf252ad1be2c89b69c2b068fc378daa952ba7f163c4a11628f55a4df523b3ef",
            "0x0000000000000000000000000000000000000000000000000000000000000000",
            "0x000000000000000000000000c77f7fed3b5cc8249adc428c5f44c9063b9734b4"
          ],
          "data": "0x00000000000000000000000000000000000000000000000029829e854c2ab59c",
          "blockHash": "0x4dcdd2ddbbfb85715ff68ae7ac3a9c358fe618097f82de41e35744a5065254bc",
          "blockNumber": "0x7250ca",
          "transactionHash": "0x3d67c7404f329733a171a19ed43d6a6b8b3418b490de5c425e228376e19cbe34",
          "transactionIndex": "0x41",
          "logIndex": "0x83",
          "removed": false
        },
        {
          "address": "0x5eb9cc76c3506942c1c0ead70e877dd5e4f00cb0",
          "topics": [
            "0x4afcb4a87cdbd9974efdb92ee48bc8d7cd0ae4bf217004db3d080cbaee652ca7"
          ],
          "data": "0x000000000000000000000000000000000000000000000000000000006786bb440000000000000000000000000000000000000000000000000003911b12b155b00000000000000000000000000000000000000000000000000de0b6b3a7640000",
          "blockHash": "0x4dcdd2ddbbfb85715ff68ae7ac3a9c358fe618097f82de41e35744a5065254bc",
          "blockNumber": "0x7250ca",
          "transactionHash": "0x3d67c7404f329733a171a19ed43d6a6b8b3418b490de5c425e228376e19cbe34",
          "transactionIndex": "0x41",
          "logIndex": "0x84",
          "removed": false
        }
      ],
      "logsBloom": "0x00000000000000000000000000000000000000000000000000000000000000000000000000000000000000000000000000000000000000004000000000000000000000000000000000000008000000000000000000000000000000000000000000000000020000000000000004000800020000000000000000000010000000000000000000000000000000000000000000000000000000000000010000000000000000000000000000000000000000004000000000000000000000000000020000000002000000800000008000000000000000000000080000000000000020000000000000000000000000000000000000000000000000000000000000000000",
      "type": "0x2",
      "transactionHash": "0x3d67c7404f329733a171a19ed43d6a6b8b3418b490de5c425e228376e19cbe34",
      "transactionIndex": "0x41",
      "blockHash": "0x4dcdd2ddbbfb85715ff68ae7ac3a9c358fe618097f82de41e35744a5065254bc",
      "blockNumber": "0x7250ca",
      "gasUsed": "0x13af8",
      "effectiveGasPrice": "0x252e147e0",
      "from": "0xc77f7fed3b5cc8249adc428c5f44c9063b9734b4",
      "to": "0x5eb9cc76c3506942c1c0ead70e877dd5e4f00cb0",
      "contractAddress": null
    }
  ],
  "libraries": [],
  "pending": [],
  "returns": {},
  "timestamp": 1736883014,
  "chain": 11155111,
  "commit": "51a374b"
}