{
  "transactions": [
    {
      "hash": "0x02b635448b836ef01cf8b0ac70a5d053155459b26741dc2ae5f795780b708e6c",
      "transactionType": "CALL",
      "contractName": null,
      "contractAddress": "0x270e88f8683660553e8ba4eb2ad7c91a1710d769",
      "function": "sell(uint256)",
      "arguments": [
        "948750784976664162290"
      ],
      "transaction": {
        "from": "0xc77f7fed3b5cc8249adc428c5f44c9063b9734b4",
        "to": "0x270e88f8683660553e8ba4eb2ad7c91a1710d769",
        "gas": "0x16fec",
        "value": "0x0",
        "input": "0xe4849b320000000000000000000000000000000000000000000000336e8fe43d3b146ff2",
        "nonce": "0x5f7",
        "chainId": "0xaa36a7"
      },
      "additionalContracts": [],
      "isFixedGasLimit": false
    }
  ],
  "receipts": [
    {
      "status": "0x1",
      "cumulativeGasUsed": "0x767424",
      "logs": [
        {
          "address": "0x270e88f8683660553e8ba4eb2ad7c91a1710d769",
          "topics": [
            "0xddf252ad1be2c89b69c2b068fc378daa952ba7f163c4a11628f55a4df523b3ef",
            "0x000000000000000000000000c77f7fed3b5cc8249adc428c5f44c9063b9734b4",
            "0x0000000000000000000000000000000000000000000000000000000000000000"
          ],
          "data": "0x0000000000000000000000000000000000000000000000336e8fe43d3b146ff2",
          "blockHash": "0xdf706f3efc32e67fcf46b0952d8222c99a6c755da011d5f4c4e736b7042cb124",
          "blockNumber": "0x7252be",
          "transactionHash": "0x02b635448b836ef01cf8b0ac70a5d053155459b26741dc2ae5f795780b708e6c",
          "transactionIndex": "0x4e",
          "logIndex": "0x94",
          "removed": false
        },
        {
          "address": "0x270e88f8683660553e8ba4eb2ad7c91a1710d769",
          "topics": [
            "0x4afcb4a87cdbd9974efdb92ee48bc8d7cd0ae4bf217004db3d080cbaee652ca7"
          ],
          "data": "0x000000000000000000000000000000000000000000000000000000006786d2f00000000000000000000000000000000000000000000000000003b8356017f0c50000000000000000000000000000000000000000000000000dc83e07c02869df",
          "blockHash": "0xdf706f3efc32e67fcf46b0952d8222c99a6c755da011d5f4c4e736b7042cb124",
          "blockNumber": "0x7252be",
          "transactionHash": "0x02b635448b836ef01cf8b0ac70a5d053155459b26741dc2ae5f795780b708e6c",
          "transactionIndex": "0x4e",
          "logIndex": "0x95",
          "removed": false
        }
      ],
      "logsBloom": "0x00000000000000000000000000000000000000000000000000000000000000000000000000000000000000000000000020000000000000004000000000000000000000000000000000000008000000000000000000000000000000000000000000000000020000000000000000000800020000000000000000000010000000000000000000010000000000000000000000000000000000000000010000000000000000000000000000000000000000004000000000000000000000000000000000000002000000800000000000000000000000000000080000008000000020000000000000000000000000000000000000000000000000000000000000000000",
      "type": "0x2",
      "transactionHash": "0x02b635448b836ef01cf8b0ac70a5d053155459b26741dc2ae5f795780b708e6c",
      "transactionIndex": "0x4e",
      "blockHash": "0xdf706f3efc32e67fcf46b0952d8222c99a6c755da011d5f4c4e736b7042cb124",
      "blockNumber": "0x7252be",
      "gasUsed": "0xfb93",
      "effectiveGasPrice": "0x2b2d42170",
      "from": "0xc77f7fed3b5cc8249adc428c5f44c9063b9734b4",
      "to": "0x270e88f8683660553e8ba4eb2ad7c91a1710d769",
      "contractAddress": null
    }
  ],
  "libraries": [],
  "pending": [],
  "returns": {},
  "timestamp": 1736889072,
  "chain": 11155111,
  "commit": "51a374b"
}