{
  "transactions": [
    {
      "hash": "0xd0c78999f12847bc5e4154c66be065fef0f4b6a242ced0991d18485fbd99866d",
      "transactionType": "CALL",
      "contractName": null,
      "contractAddress": "0x270e88f8683660553e8ba4eb2ad7c91a1710d769",
      "function": "sell(uint256)",
      "arguments": [
        "736748018892976137071"
      ],
      "transaction": {
        "from": "0xc77f7fed3b5cc8249adc428c5f44c9063b9734b4",
        "to": "0x270e88f8683660553e8ba4eb2ad7c91a1710d769",
        "gas": "0x16fec",
        "value": "0x0",
        "input": "0xe4849b32000000000000000000000000000000000000000000000027f06ec3b9909fa36f",
        "nonce": "0x760",
        "chainId": "0xaa36a7"
      },
      "additionalContracts": [],
      "isFixedGasLimit": false
    }
  ],
  "receipts": [
    {
      "status": "0x1",
      "cumulativeGasUsed": "0x7aa3c5",
      "logs": [
        {
          "address": "0x270e88f8683660553e8ba4eb2ad7c91a1710d769",
          "topics": [
            "0xddf252ad1be2c89b69c2b068fc378daa952ba7f163c4a11628f55a4df523b3ef",
            "0x000000000000000000000000c77f7fed3b5cc8249adc428c5f44c9063b9734b4",
            "0x0000000000000000000000000000000000000000000000000000000000000000"
          ],
          "data": "0x000000000000000000000000000000000000000000000027f06ec3b9909fa36f",
          "blockHash": "0x8778a8cbbf1a053d6303c1871d4dbeb9b58e3c92661bc794e88d3e4ec11af839",
          "blockNumber": "0x725488",
          "transactionHash": "0xd0c78999f12847bc5e4154c66be065fef0f4b6a242ced0991d18485fbd99866d",
          "transactionIndex": "0x2f",
          "logIndex": "0x74",
          "removed": false
        },
        {
          "address": "0x270e88f8683660553e8ba4eb2ad7c91a1710d769",
          "topics": [
            "0x4afcb4a87cdbd9974efdb92ee48bc8d7cd0ae4bf217004db3d080cbaee652ca7"
          ],
          "data": "0x000000000000000000000000000000000000000000000000000000006786e8680000000000000000000000000000000000000000000000000004ca20911c968e0000000000000000000000000000000000000000000000000dc82829cf72de88",
          "blockHash": "0x8778a8cbbf1a053d6303c1871d4dbeb9b58e3c92661bc794e88d3e4ec11af839",
          "blockNumber": "0x725488",
          "transactionHash": "0xd0c78999f12847bc5e4154c66be065fef0f4b6a242ced0991d18485fbd99866d",
          "transactionIndex": "0x2f",
          "logIndex": "0x75",
          "removed": false
        }
      ],
      "logsBloom": "0x00000000000000000000000000000000000000000000000000000000000000000000000000000000000000000000000020000000000000004000000000000000000000000000000000000008000000000000000000000000000000000000000000000000020000000000000000000800020000000000000000000010000000000000000000010000000000000000000000000000000000000000010000000000000000000000000000000000000000004000000000000000000000000000000000000002000000800000000000000000000000000000080000008000000020000000000000000000000000000000000000000000000000000000000000000000",
      "type": "0x2",
      "transactionHash": "0xd0c78999f12847bc5e4154c66be065fef0f4b6a242ced0991d18485fbd99866d",
      "transactionIndex": "0x2f",
      "blockHash": "0x8778a8cbbf1a053d6303c1871d4dbeb9b58e3c92661bc794e88d3e4ec11af839",
      "blockNumber": "0x725488",
      "gasUsed": "0xfb93",
      "effectiveGasPrice": "0x1554a2342",
      "from": "0xc77f7fed3b5cc8249adc428c5f44c9063b9734b4",
      "to": "0x270e88f8683660553e8ba4eb2ad7c91a1710d769",
      "contractAddress": null
    }
  ],
  "libraries": [],
  "pending": [],
  "returns": {},
  "timestamp": 1736894571,
  "chain": 11155111,
  "commit": "51a374b"
}