{
  "transactions": [
    {
      "hash": "0xc15f29e2c7198e080dac356cca087066673cfa07cf9aedf8c99fa7fbd686de94",
      "transactionType": "CALL",
      "contractName": null,
      "contractAddress": "0x8aafd3ede9adb0ff97c7aebce82a919afb1c8764",
      "function": "sell(uint256)",
      "arguments": [
        "5961267049"
      ],
      "transaction": {
        "from": "0xc77f7fed3b5cc8249adc428c5f44c9063b9734b4",
        "to": "0x8aafd3ede9adb0ff97c7aebce82a919afb1c8764",
        "gas": "0x1722a",
        "value": "0x0",
        "input": "0xe4849b32000000000000000000000000000000000000000000000000000000016351b769",
        "nonce": "0x15d3",
        "chainId": "0xaa36a7"
      },
      "additionalContracts": [],
      "isFixedGasLimit": false
    }
  ],
  "receipts": [
    {
      "status": "0x1",
      "cumulativeGasUsed": "0x169e78a",
      "logs": [
        {
          "address": "0x8aafd3ede9adb0ff97c7aebce82a919afb1c8764",
          "topics": [
            "0xddf252ad1be2c89b69c2b068fc378daa952ba7f163c4a11628f55a4df523b3ef",
            "0x000000000000000000000000c77f7fed3b5cc8249adc428c5f44c9063b9734b4",
            "0x0000000000000000000000000000000000000000000000000000000000000000"
          ],
          "data": "0x00000000000000000000000000000000000000000000000000000001607a05d1",
          "blockHash": "0x4a7399a5f346ae5cf995f84b7237a95440d5e793bd188be27448155f5eb84930",
          "blockNumber": "0x731d50",
          "transactionHash": "0xc15f29e2c7198e080dac356cca087066673cfa07cf9aedf8c99fa7fbd686de94",
          "transactionIndex": "0xc5",
          "logIndex": "0x121",
          "removed": false
        },
        {
          "address": "0x8aafd3ede9adb0ff97c7aebce82a919afb1c8764",
          "topics": [
            "0xddf252ad1be2c89b69c2b068fc378daa952ba7f163c4a11628f55a4df523b3ef",
            "0x000000000000000000000000c77f7fed3b5cc8249adc428c5f44c9063b9734b4",
            "0x000000000000000000000000c77f7fed3b5cc8249adc428c5f44c9063b9734b4"
          ],
          "data": "0x0000000000000000000000000000000000000000000000000000000002d7b198",
          "blockHash": "0x4a7399a5f346ae5cf995f84b7237a95440d5e793bd188be27448155f5eb84930",
          "blockNumber": "0x731d50",
          "transactionHash": "0xc15f29e2c7198e080dac356cca087066673cfa07cf9aedf8c99fa7fbd686de94",
          "transactionIndex": "0xc5",
          "logIndex": "0x122",
          "removed": false
        },
        {
          "address": "0x8aafd3ede9adb0ff97c7aebce82a919afb1c8764",
          "topics": [
            "0x4afcb4a87cdbd9974efdb92ee48bc8d7cd0ae4bf217004db3d080cbaee652ca7"
          ],
          "data": "0x0000000000000000000000000000000000000000000000000000000067905ca800000000000000000000000000000000000000000000000000137f11d47f99830000000000000000000000000000000000000000000000000000000001f32c96",
          "blockHash": "0x4a7399a5f346ae5cf995f84b7237a95440d5e793bd188be27448155f5eb84930",
          "blockNumber": "0x731d50",
          "transactionHash": "0xc15f29e2c7198e080dac356cca087066673cfa07cf9aedf8c99fa7fbd686de94",
          "transactionIndex": "0xc5",
          "logIndex": "0x123",
          "removed": false
        }
      ],
      "logsBloom": "0x00000000000000000000000000000000000000000600000000000000000000000000000000000000000000000000000000000000000000004000000000000000000000000000004000000008000000000000000000000000000000000000000000000000020000000000000000000800020000000000000000000010000000000000000000000000000000000000000000000000000000000000010000000000000000000000000000000000000000004000000000000000000000000000000000000002000000800000000000000000000000000000080000000000000020000000000000000000000000000000000000000000000000000000000000000000",
      "type": "0x2",
      "transactionHash": "0xc15f29e2c7198e080dac356cca087066673cfa07cf9aedf8c99fa7fbd686de94",
      "transactionIndex": "0xc5",
      "blockHash": "0x4a7399a5f346ae5cf995f84b7237a95440d5e793bd188be27448155f5eb84930",
      "blockNumber": "0x731d50",
      "gasUsed": "0xfd1b",
      "effectiveGasPrice": "0x597bda86",
      "from": "0xc77f7fed3b5cc8249adc428c5f44c9063b9734b4",
      "to": "0x8aafd3ede9adb0ff97c7aebce82a919afb1c8764",
      "contractAddress": null
    }
  ],
  "libraries": [],
  "pending": [],
  "returns": {},
  "timestamp": 1737514153,
  "chain": 11155111,
  "commit": "1d2fb70"
}