{
  "transactions": [
    {
      "hash": "0x58e0e7a6d5afb05493614e06672417884f7f800b0dffbd1680ee7106c306de63",
      "transactionType": "CALL",
      "contractName": null,
      "contractAddress": "0x8aafd3ede9adb0ff97c7aebce82a919afb1c8764",
      "function": "sell(uint256)",
      "arguments": [
        "161057813258165348967"
      ],
      "transaction": {
        "from": "0xc77f7fed3b5cc8249adc428c5f44c9063b9734b4",
        "to": "0x8aafd3ede9adb0ff97c7aebce82a919afb1c8764",
        "gas": "0x17270",
        "value": "0x0",
        "input": "0xe4849b32000000000000000000000000000000000000000000000008bb204bd66224ea67",
        "nonce": "0x16a6",
        "chainId": "0xaa36a7"
      },
      "additionalContracts": [],
      "isFixedGasLimit": false
    }
  ],
  "receipts": [
    {
      "status": "0x1",
      "cumulativeGasUsed": "0x1aae373",
      "logs": [
        {
          "address": "0x8aafd3ede9adb0ff97c7aebce82a919afb1c8764",
          "topics": [
            "0xddf252ad1be2c89b69c2b068fc378daa952ba7f163c4a11628f55a4df523b3ef",
            "0x000000000000000000000000c77f7fed3b5cc8249adc428c5f44c9063b9734b4",
            "0x0000000000000000000000000000000000000000000000000000000000000000"
          ],
          "data": "0x000000000000000000000000000000000000000000000008a93ec203c5b60740",
          "blockHash": "0xf021fe9e79b6384d89e9d9511b090e012a37aed650f587dc442508a912a06bc7",
          "blockNumber": "0x731e5e",
          "transactionHash": "0x58e0e7a6d5afb05493614e06672417884f7f800b0dffbd1680ee7106c306de63",
          "transactionIndex": "0xbd",
          "logIndex": "0x15f",
          "removed": false
        },
        {
          "address": "0x8aafd3ede9adb0ff97c7aebce82a919afb1c8764",
          "topics": [
            "0xddf252ad1be2c89b69c2b068fc378daa952ba7f163c4a11628f55a4df523b3ef",
            "0x000000000000000000000000c77f7fed3b5cc8249adc428c5f44c9063b9734b4",
            "0x000000000000000000000000c77f7fed3b5cc8249adc428c5f44c9063b9734b4"
          ],
          "data": "0x00000000000000000000000000000000000000000000000011e189d29c6ee327",
          "blockHash": "0xf021fe9e79b6384d89e9d9511b090e012a37aed650f587dc442508a912a06bc7",
          "blockNumber": "0x731e5e",
          "transactionHash": "0x58e0e7a6d5afb05493614e06672417884f7f800b0dffbd1680ee7106c306de63",
          "transactionIndex": "0xbd",
          "logIndex": "0x160",
          "removed": false
        },
        {
          "address": "0x8aafd3ede9adb0ff97c7aebce82a919afb1c8764",
          "topics": [
            "0x4afcb4a87cdbd9974efdb92ee48bc8d7cd0ae4bf217004db3d080cbaee652ca7"
          ],
          "data": "0x00000000000000000000000000000000000000000000000000000000679069500000000000000000000000000000000000000000000000000016023557f0d3090000000000000000000000000000000000000000000000000dcc25eda08d9b4b",
          "blockHash": "0xf021fe9e79b6384d89e9d9511b090e012a37aed650f587dc442508a912a06bc7",
          "blockNumber": "0x731e5e",
          "transactionHash": "0x58e0e7a6d5afb05493614e06672417884f7f800b0dffbd1680ee7106c306de63",
          "transactionIndex": "0xbd",
          "logIndex": "0x161",
          "removed": false
        }
      ],
      "logsBloom": "0x00000000000000000000000000000000000000000600000000000000000000000000000000000000000000000000000000000000000000004000000000000000000000000000004000000008000000000000000000000000000000000000000000000000020000000000000000000800020000000000000000000010000000000000000000000000000000000000000000000000000000000000010000000000000000000000000000000000000000004000000000000000000000000000000000000002000000800000000000000000000000000000080000000000000020000000000000000000000000000000000000000000000000000000000000000000",
      "type": "0x2",
      "transactionHash": "0x58e0e7a6d5afb05493614e06672417884f7f800b0dffbd1680ee7106c306de63",
      "transactionIndex": "0xbd",
      "blockHash": "0xf021fe9e79b6384d89e9d9511b090e012a37aed650f587dc442508a912a06bc7",
      "blockNumber": "0x731e5e",
      "gasUsed": "0xfd4b",
      "effectiveGasPrice": "0x4219c19c",
      "from": "0xc77f7fed3b5cc8249adc428c5f44c9063b9734b4",
      "to": "0x8aafd3ede9adb0ff97c7aebce82a919afb1c8764",
      "contractAddress": null
    }
  ],
  "libraries": [],
  "pending": [],
  "returns": {},
  "timestamp": 1737517393,
  "chain": 11155111,
  "commit": "1d2fb70"
}