{
  "transactions": [
    {
      "hash": "0x646e691562b61f24a7cbe49779da6b74b38ff23cd7641f702b17d2dcff822b77",
      "transactionType": "CALL",
      "contractName": null,
      "contractAddress": "0x5eb9cc76c3506942c1c0ead70e877dd5e4f00cb0",
      "function": "sell(uint256)",
      "arguments": [
        "989125496269316531521"
      ],
      "transaction": {
        "from": "0xc77f7fed3b5cc8249adc428c5f44c9063b9734b4",
        "to": "0x5eb9cc76c3506942c1c0ead70e877dd5e4f00cb0",
        "gas": "0x16fec",
        "value": "0x0",
        "input": "0xe4849b320000000000000000000000000000000000000000000000359edfae3ed693a541",
        "nonce": "0x361",
        "chainId": "0xaa36a7"
      },
      "additionalContracts": [],
      "isFixedGasLimit": false
    }
  ],
  "receipts": [
    {
      "status": "0x1",
      "cumulativeGasUsed": "0x126a205",
      "logs": [
        {
          "address": "0x5eb9cc76c3506942c1c0ead70e877dd5e4f00cb0",
          "topics": [
            "0xddf252ad1be2c89b69c2b068fc378daa952ba7f163c4a11628f55a4df523b3ef",
            "0x000000000000000000000000c77f7fed3b5cc8249adc428c5f44c9063b9734b4",
            "0x0000000000000000000000000000000000000000000000000000000000000000"
          ],
          "data": "0x0000000000000000000000000000000000000000000000359edfae3ed693a541",
          "blockHash": "0x31c3086a8ddac2cdf544167fb4ce06003e9dc87cd01891d41069283bc5ea79e5",
          "blockNumber": "0x724f57",
          "transactionHash": "0x646e691562b61f24a7cbe49779da6b74b38ff23cd7641f702b17d2dcff822b77",
          "transactionIndex": "0x70",
          "logIndex": "0x96",
          "removed": false
        },
        {
          "address": "0x5eb9cc76c3506942c1c0ead70e877dd5e4f00cb0",
          "topics": [
            "0x4afcb4a87cdbd9974efdb92ee48bc8d7cd0ae4bf217004db3d080cbaee652ca7"
          ],
          "data": "0x000000000000000000000000000000000000000000000000000000006786a9c80000000000000000000000000000000000000000000000000003910f7263038d0000000000000000000000000000000000000000000000000dc7db133214d0c9",
          "blockHash": "0x31c3086a8ddac2cdf544167fb4ce06003e9dc87cd01891d41069283bc5ea79e5",
          "blockNumber": "0x724f57",
          "transactionHash": "0x646e691562b61f24a7cbe49779da6b74b38ff23cd7641f702b17d2dcff822b77",
          "transactionIndex": "0x70",
          "logIndex": "0x97",
          "removed": false
        }
      ],
      "logsBloom": "0x00000000000000000000000000000000000000000000000000000000000000000000000000000000000000000000000000000000000000004000000000000000000000000000000000000008000000000000000000000000000000000000000000000000020000000000000004000800020000000000000000000010000000000000000000000000000000000000000000000000000000000000010000000000000000000000000000000000000000004000000000000000000000000000020000000002000000800000008000000000000000000000080000000000000020000000000000000000000000000000000000000000000000000000000000000000",
      "type": "0x2",
      "transactionHash": "0x646e691562b61f24a7cbe49779da6b74b38ff23cd7641f702b17d2dcff822b77",
      "transactionIndex": "0x70",
      "blockHash": "0x31c3086a8ddac2cdf544167fb4ce06003e9dc87cd01891d41069283bc5ea79e5",
      "blockNumber": "0x724f57",
      "gasUsed": "0xfb93",
      "effectiveGasPrice": "0x54bfa2cdc",
      "from": "0xc77f7fed3b5cc8249adc428c5f44c9063b9734b4",
      "to": "0x5eb9cc76c3506942c1c0ead70e877dd5e4f00cb0",
      "contractAddress": null
    }
  ],
  "libraries": [],
  "pending": [],
  "returns": {},
  "timestamp": 1736878536,
  "chain": 11155111,
  "commit": "51a374b"
}