{
  "transactions": [
    {
      "hash": "0xd1cfc136664d2b54daec5c9c705615a9c932b3cf20d0010253b7ec4aa42f1d90",
      "transactionType": "CALL",
      "contractName": null,
      "contractAddress": "0x8aafd3ede9adb0ff97c7aebce82a919afb1c8764",
      "function": "sell(uint256)",
      "arguments": [
        "5356555392037042371"
      ],
      "transaction": {
        "from": "0xc77f7fed3b5cc8249adc428c5f44c9063b9734b4",
        "to": "0x8aafd3ede9adb0ff97c7aebce82a919afb1c8764",
        "gas": "0x15dca",
        "value": "0x0",
        "input": "0xe4849b320000000000000000000000000000000000000000000000004a564ebfb21238c3",
        "nonce": "0x1290",
        "chainId": "0xaa36a7"
      },
      "additionalContracts": [],
      "isFixedGasLimit": false
    }
  ],
  "receipts": [
    {
      "status": "0x1",
      "cumulativeGasUsed": "0x88564d",
      "logs": [
        {
          "address": "0x8aafd3ede9adb0ff97c7aebce82a919afb1c8764",
          "topics": [
            "0xddf252ad1be2c89b69c2b068fc378daa952ba7f163c4a11628f55a4df523b3ef",
            "0x000000000000000000000000c77f7fed3b5cc8249adc428c5f44c9063b9734b4",
            "0x0000000000000000000000000000000000000000000000000000000000000000"
          ],
          "data": "0x00000000000000000000000000000000000000000000000049be10adc72cb331",
          "blockHash": "0x7304cececf031fbe521e73c7031b4ad6a57f3dc938e487188c19256deb6fc4dd",
          "blockNumber": "0x731980",
          "transactionHash": "0xd1cfc136664d2b54daec5c9c705615a9c932b3cf20d0010253b7ec4aa42f1d90",
          "transactionIndex": "0x74",
          "logIndex": "0x85",
          "removed": false
        },
        {
          "address": "0x8aafd3ede9adb0ff97c7aebce82a919afb1c8764",
          "topics": [
            "0xddf252ad1be2c89b69c2b068fc378daa952ba7f163c4a11628f55a4df523b3ef",
            "0x000000000000000000000000c77f7fed3b5cc8249adc428c5f44c9063b9734b4",
            "0x000000000000000000000000c77f7fed3b5cc8249adc428c5f44c9063b9734b4"
          ],
          "data": "0x00000000000000000000000000000000000000000000000000983e11eae58592",
          "blockHash": "0x7304cececf031fbe521e73c7031b4ad6a57f3dc938e487188c19256deb6fc4dd",
          "blockNumber": "0x731980",
          "transactionHash": "0xd1cfc136664d2b54daec5c9c705615a9c932b3cf20d0010253b7ec4aa42f1d90",
          "transactionIndex": "0x74",
          "logIndex": "0x86",
          "removed": false
        },
        {
          "address": "0x8aafd3ede9adb0ff97c7aebce82a919afb1c8764",
          "topics": [
            "0x4afcb4a87cdbd9974efdb92ee48bc8d7cd0ae4bf217004db3d080cbaee652ca7"
          ],
          "data": "0x0000000000000000000000000000000000000000000000000000000067902ed000000000000000000000000000000000000000000000000000054646d97eb4ee000000000000000000000000000000000000000000000000001c40c9b0bc7d04",
          "blockHash": "0x7304cececf031fbe521e73c7031b4ad6a57f3dc938e487188c19256deb6fc4dd",
          "blockNumber": "0x731980",
          "transactionHash": "0xd1cfc136664d2b54daec5c9c705615a9c932b3cf20d0010253b7ec4aa42f1d90",
          "transactionIndex": "0x74",
          "logIndex": "0x87",
          "removed": false
        }
      ],
      "logsBloom": "0x00000000000000000000000000000000000000000600000000000000000000000000000000000000000000000000000000000000000000004000000000000000000000000000004000000008000000000000000000000000000000000000000000000000020000000000000000000800020000000000000000000010000000000000000000000000000000000000000000000000000000000000010000000000000000000000000000000000000000004000000000000000000000000000000000000002000000800000000000000000000000000000080000000000000020000000000000000000000000000000000000000000000000000000000000000000",
      "type": "0x2",
      "transactionHash": "0xd1cfc136664d2b54daec5c9c705615a9c932b3cf20d0010253b7ec4aa42f1d90",
      "transactionIndex": "0x74",
      "blockHash": "0x7304cececf031fbe521e73c7031b4ad6a57f3dc938e487188c19256deb6fc4dd",
      "blockNumber": "0x731980",
      "gasUsed": "0xfd3f",
      "effectiveGasPrice": "0x48761667",
      "from": "0xc77f7fed3b5cc8249adc428c5f44c9063b9734b4",
      "to": "0x8aafd3ede9adb0ff97c7aebce82a919afb1c8764",
      "contractAddress": null
    }
  ],
  "libraries": [],
  "pending": [],
  "returns": {},
  "timestamp": 1737502417,
  "chain": 11155111,
  "commit": "1d2fb70"
}