{
  "transactions": [
    {
      "hash": "0x0d64f81b3b9341ef7d18f5667a1429ec3aaeee0b76bb92693d7321ad4adfcdb2",
      "transactionType": "CALL",
      "contractName": null,
      "contractAddress": "0x8aafd3ede9adb0ff97c7aebce82a919afb1c8764",
      "function": "sell(uint256)",
      "arguments": [
        "7384650216"
      ],
      "transaction": {
        "from": "0xc77f7fed3b5cc8249adc428c5f44c9063b9734b4",
        "to": "0x8aafd3ede9adb0ff97c7aebce82a919afb1c8764",
        "gas": "0x1722a",
        "value": "0x0",
        "input": "0xe4849b3200000000000000000000000000000000000000000000000000000001b828d1e8",
        "nonce": "0x148f",
        "chainId": "0xaa36a7"
      },
      "additionalContracts": [],
      "isFixedGasLimit": false
    }
  ],
  "receipts": [
    {
      "status": "0x1",
      "cumulativeGasUsed": "0x18cb231",
      "logs": [
        {
          "address": "0x8aafd3ede9adb0ff97c7aebce82a919afb1c8764",
          "topics": [
            "0xddf252ad1be2c89b69c2b068fc378daa952ba7f163c4a11628f55a4df523b3ef",
            "0x000000000000000000000000c77f7fed3b5cc8249adc428c5f44c9063b9734b4",
            "0x0000000000000000000000000000000000000000000000000000000000000000"
          ],
          "data": "0x00000000000000000000000000000000000000000000000000000001b4a35f97",
          "blockHash": "0x48a7d130601f8fc4dac11685f36d9ee63c301c6811fcfce780a3ec4dca45963e",
          "blockNumber": "0x731be0",
          "transactionHash": "0x0d64f81b3b9341ef7d18f5667a1429ec3aaeee0b76bb92693d7321ad4adfcdb2",
          "transactionIndex": "0xdb",
          "logIndex": "0xf3",
          "removed": false
        },
        {
          "address": "0x8aafd3ede9adb0ff97c7aebce82a919afb1c8764",
          "topics": [
            "0xddf252ad1be2c89b69c2b068fc378daa952ba7f163c4a11628f55a4df523b3ef",
            "0x000000000000000000000000c77f7fed3b5cc8249adc428c5f44c9063b9734b4",
            "0x000000000000000000000000c77f7fed3b5cc8249adc428c5f44c9063b9734b4"
          ],
          "data": "0x0000000000000000000000000000000000000000000000000000000003857251",
          "blockHash": "0x48a7d130601f8fc4dac11685f36d9ee63c301c6811fcfce780a3ec4dca45963e",
          "blockNumber": "0x731be0",
          "transactionHash": "0x0d64f81b3b9341ef7d18f5667a1429ec3aaeee0b76bb92693d7321ad4adfcdb2",
          "transactionIndex": "0xdb",
          "logIndex": "0xf4",
          "removed": false
        },
        {
          "address": "0x8aafd3ede9adb0ff97c7aebce82a919afb1c8764",
          "topics": [
            "0x4afcb4a87cdbd9974efdb92ee48bc8d7cd0ae4bf217004db3d080cbaee652ca7"
          ],
          "data": "0x0000000000000000000000000000000000000000000000000000000067904b5c000000000000000000000000000000000000000000000000000fc1e718f0afe60000000000000000000000000000000000000000000000000000000001f3c69c",
          "blockHash": "0x48a7d130601f8fc4dac11685f36d9ee63c301c6811fcfce780a3ec4dca45963e",
          "blockNumber": "0x731be0",
          "transactionHash": "0x0d64f81b3b9341ef7d18f5667a1429ec3aaeee0b76bb92693d7321ad4adfcdb2",
          "transactionIndex": "0xdb",
          "logIndex": "0xf5",
          "removed": false
        }
      ],
      "logsBloom": "0x00000000000000000000000000000000000000000600000000000000000000000000000000000000000000000000000000000000000000004000000000000000000000000000004000000008000000000000000000000000000000000000000000000000020000000000000000000800020000000000000000000010000000000000000000000000000000000000000000000000000000000000010000000000000000000000000000000000000000004000000000000000000000000000000000000002000000800000000000000000000000000000080000000000000020000000000000000000000000000000000000000000000000000000000000000000",
      "type": "0x2",
      "transactionHash": "0x0d64f81b3b9341ef7d18f5667a1429ec3aaeee0b76bb92693d7321ad4adfcdb2",
      "transactionIndex": "0xdb",
      "blockHash": "0x48a7d130601f8fc4dac11685f36d9ee63c301c6811fcfce780a3ec4dca45963e",
      "blockNumber": "0x731be0",
      "gasUsed": "0xfd1b",
      "effectiveGasPrice": "0xfefca709",
      "from": "0xc77f7fed3b5cc8249adc428c5f44c9063b9734b4",
      "to": "0x8aafd3ede9adb0ff97c7aebce82a919afb1c8764",
      "contractAddress": null
    }
  ],
  "libraries": [],
  "pending": [],
  "returns": {},
  "timestamp": 1737509725,
  "chain": 11155111,
  "commit": "1d2fb70"
}