{
  "transactions": [
    {
      "hash": "0xb036295246d819776152d774443537b5cabde6a33acba95e34396f24375d8890",
      "transactionType": "CALL",
      "contractName": null,
      "contractAddress": "0x270e88f8683660553e8ba4eb2ad7c91a1710d769",
      "function": "buy(address)",
      "arguments": [
        "0xC77f7fed3b5Cc8249aDc428c5F44C9063B9734b4"
      ],
      "transaction": {
        "from": "0xc77f7fed3b5cc8249adc428c5f44c9063b9734b4",
        "to": "0x270e88f8683660553e8ba4eb2ad7c91a1710d769",
        "gas": "0x1b30c",
        "value": "0xde0b6b3a7640000",
        "input": "0xf088d547000000000000000000000000c77f7fed3b5cc8249adc428c5f44c9063b9734b4",
        "nonce": "0x51e",
        "chainId": "0xaa36a7"
      },
      "additionalContracts": [],
      "isFixedGasLimit": false
    }
  ],
  "receipts": [
    {
      "status": "0x1",
      "cumulativeGasUsed": "0x87bc0c",
      "logs": [
        {
          "address": "0x270e88f8683660553e8ba4eb2ad7c91a1710d769",
          "topics": [
            "0xddf252ad1be2c89b69c2b068fc378daa952ba7f163c4a11628f55a4df523b3ef",
            "0x0000000000000000000000000000000000000000000000000000000000000000",
            "0x000000000000000000000000c77f7fed3b5cc8249adc428c5f44c9063b9734b4"
          ],
          "data": "0x000000000000000000000000000000000000000000000035096844cd23237b84",
          "blockHash": "0xd7bb778b76c6262f86b3d0fb7889b171ca897968606d6dadf397cdd4d7314b2f",
          "blockNumber": "0x7251b7",
          "transactionHash": "0xb036295246d819776152d774443537b5cabde6a33acba95e34396f24375d8890",
          "transactionIndex": "0x4a",
          "logIndex": "0x74",
          "removed": false
        },
        {
          "address": "0x270e88f8683660553e8ba4eb2ad7c91a1710d769",
          "topics": [
            "0xddf252ad1be2c89b69c2b068fc378daa952ba7f163c4a11628f55a4df523b3ef",
            "0x0000000000000000000000000000000000000000000000000000000000000000",
            "0x000000000000000000000000c77f7fed3b5cc8249adc428c5f44c9063b9734b4"
          ],
          "data": "0x000000000000000000000000000000000000000000000000292f51e46f1eb1ff",
          "blockHash": "0xd7bb778b76c6262f86b3d0fb7889b171ca897968606d6dadf397cdd4d7314b2f",
          "blockNumber": "0x7251b7",
          "transactionHash": "0xb036295246d819776152d774443537b5cabde6a33acba95e34396f24375d8890",
          "transactionIndex": "0x4a",
          "logIndex": "0x75",
          "removed": false
        },
        {
          "address": "0x270e88f8683660553e8ba4eb2ad7c91a1710d769",
          "topics": [
            "0x4afcb4a87cdbd9974efdb92ee48bc8d7cd0ae4bf217004db3d080cbaee652ca7"
          ],
          "data": "0x000000000000000000000000000000000000000000000000000000006786c6780000000000000000000000000000000000000000000000000003986c954b99e20000000000000000000000000000000000000000000000000de0b6b3a7640000",
          "blockHash": "0xd7bb778b76c6262f86b3d0fb7889b171ca897968606d6dadf397cdd4d7314b2f",
          "blockNumber": "0x7251b7",
          "transactionHash": "0xb036295246d819776152d774443537b5cabde6a33acba95e34396f24375d8890",
          "transactionIndex": "0x4a",
          "logIndex": "0x76",
          "removed": false
        }
      ],
      "logsBloom": "0x00000000000000000000000000000000000000000000000000000000000000000000000000000000000000000000000020000000000000004000000000000000000000000000000000000008000000000000000000000000000000000000000000000000020000000000000000000800020000000000000000000010000000000000000000010000000000000000000000000000000000000000010000000000000000000000000000000000000000004000000000000000000000000000000000000002000000800000000000000000000000000000080000008000000020000000000000000000000000000000000000000000000000000000000000000000",
      "type": "0x2",
      "transactionHash": "0xb036295246d819776152d774443537b5cabde6a33acba95e34396f24375d8890",
      "transactionIndex": "0x4a",
      "blockHash": "0xd7bb778b76c6262f86b3d0fb7889b171ca897968606d6dadf397cdd4d7314b2f",
      "blockNumber": "0x7251b7",
      "gasUsed": "0x13af8",
      "effectiveGasPrice": "0x4299d737b",
      "from": "0xc77f7fed3b5cc8249adc428c5f44c9063b9734b4",
      "to": "0x270e88f8683660553e8ba4eb2ad7c91a1710d769",
      "contractAddress": null
    }
  ],
  "libraries": [],
  "pending": [],
  "returns": {},
  "timestamp": 1736885881,
  "chain": 11155111,
  "commit": "51a374b"
}