{
  "transactions": [
    {
      "hash": "0x4e09e2284bc354763aad341d441bb13ea3d4adf329c8f0543cdb659e4f480270",
      "transactionType": "CALL",
      "contractName": null,
      "contractAddress": "0xbf4a322f1496e5c3d34a9bcdb4c60567b38c7de2",
      "function": "buy(address)",
      "arguments": [
        "0xC77f7fed3b5Cc8249aDc428c5F44C9063B9734b4"
      ],
      "transaction": {
        "from": "0xc77f7fed3b5cc8249adc428c5f44c9063b9734b4",
        "to": "0xbf4a322f1496e5c3d34a9bcdb4c60567b38c7de2",
        "gas": "0x1b309",
        "value": "0xde0b6b3a7640000",
        "input": "0xf088d547000000000000000000000000c77f7fed3b5cc8249adc428c5f44c9063b9734b4",
        "nonce": "0xa6c",
        "chainId": "0xaa36a7"
      },
      "additionalContracts": [],
      "isFixedGasLimit": false
    }
  ],
  "receipts": [
    {
      "status": "0x1",
      "cumulativeGasUsed": "0xce0280",
      "logs": [
        {
          "address": "0xbf4a322f1496e5c3d34a9bcdb4c60567b38c7de2",
          "topics": [
            "0xddf252ad1be2c89b69c2b068fc378daa952ba7f163c4a11628f55a4df523b3ef",
            "0x0000000000000000000000000000000000000000000000000000000000000000",
            "0x000000000000000000000000c77f7fed3b5cc8249adc428c5f44c9063b9734b4"
          ],
          "data": "0x00000000000000000000000000000000000000000000003546e1ca933ac6121c",
          "blockHash": "0x25442ff75011abb80778407a4496c861bfa831cd3541fc17f721dbc35d9d1d33",
          "blockNumber": "0x725a49",
          "transactionHash": "0x4e09e2284bc354763aad341d441bb13ea3d4adf329c8f0543cdb659e4f480270",
          "transactionIndex": "0x73",
          "logIndex": "0x9c",
          "removed": false
        },
        {
          "address": "0xbf4a322f1496e5c3d34a9bcdb4c60567b38c7de2",
          "topics": [
            "0xddf252ad1be2c89b69c2b068fc378daa952ba7f163c4a11628f55a4df523b3ef",
            "0x0000000000000000000000000000000000000000000000000000000000000000",
            "0x000000000000000000000000c77f7fed3b5cc8249adc428c5f44c9063b9734b4"
          ],
          "data": "0x000000000000000000000000000000000000000000000000295f0e9d8a193789",
          "blockHash": "0x25442ff75011abb80778407a4496c861bfa831cd3541fc17f721dbc35d9d1d33",
          "blockNumber": "0x725a49",
          "transactionHash": "0x4e09e2284bc354763aad341d441bb13ea3d4adf329c8f0543cdb659e4f480270",
          "transactionIndex": "0x73",
          "logIndex": "0x9d",
          "removed": false
        },
        {
          "address": "0xbf4a322f1496e5c3d34a9bcdb4c60567b38c7de2",
          "topics": [
            "0x4afcb4a87cdbd9974efdb92ee48bc8d7cd0ae4bf217004db3d080cbaee652ca7"
          ],
          "data": "0x0000000000000000000000000000000000000000000000000000000067872dbc0000000000000000000000000000000000000000000000000003942e43ec616e0000000000000000000000000000000000000000000000000de0b6b3a7640000",
          "blockHash": "0x25442ff75011abb80778407a4496c861bfa831cd3541fc17f721dbc35d9d1d33",
          "blockNumber": "0x725a49",
          "transactionHash": "0x4e09e2284bc354763aad341d441bb13ea3d4adf329c8f0543cdb659e4f480270",
          "transactionIndex": "0x73",
          "logIndex": "0x9e",
          "removed": false
        }
      ],
      "logsBloom": "0x00000000000000000000000000000000000000000000000000000000000000000000000000000000000000000000000000000000000000004000000000000000000000000000000000000008000000000000001000000000000000000000000000000000020000000000000000000800020000000000000000000010000000000000000000000000000000000000000000000000000008000000010000000000000000000000000000000000000000004000000000000000000000000000000000000002000000800000000000001000000000000000080000000000000020000000000000000000000000000000000000000000000000000000000000000000",
      "type": "0x2",
      "transactionHash": "0x4e09e2284bc354763aad341d441bb13ea3d4adf329c8f0543cdb659e4f480270",
      "transactionIndex": "0x73",
      "blockHash": "0x25442ff75011abb80778407a4496c861bfa831cd3541fc17f721dbc35d9d1d33",
      "blockNumber": "0x725a49",
      "gasUsed": "0x13af6",
      "effectiveGasPrice": "0x38c3c1e18",
      "from": "0xc77f7fed3b5cc8249adc428c5f44c9063b9734b4",
      "to": "0xbf4a322f1496e5c3d34a9bcdb4c60567b38c7de2",
      "contractAddress": null
    }
  ],
  "libraries": [],
  "pending": [],
  "returns": {},
  "timestamp": 1736912318,
  "chain": 11155111,
  "commit": "51a374b"
}