{
  "transactions": [
    {
      "hash": "0x667e083c0403a3a3c7e66e4236f3212d794040731c5b170cc8291db1f7386c8f",
      "transactionType": "CALL",
      "contractName": null,
      "contractAddress": "0xbf4a322f1496e5c3d34a9bcdb4c60567b38c7de2",
      "function": "sell(uint256)",
      "arguments": [
        "973238974331764812821"
      ],
      "transaction": {
        "from": "0xc77f7fed3b5cc8249adc428c5f44c9063b9734b4",
        "to": "0xbf4a322f1496e5c3d34a9bcdb4c60567b38c7de2",
        "gas": "0x16fea",
        "value": "0x0",
        "input": "0xe4849b32000000000000000000000000000000000000000000000034c2676ab6b25b2c15",
        "nonce": "0xe13",
        "chainId": "0xaa36a7"
      },
      "additionalContracts": [],
      "isFixedGasLimit": false
    }
  ],
  "receipts": [
    {
      "status": "0x1",
      "cumulativeGasUsed": "0x16bbbb8",
      "logs": [
        {
          "address": "0xbf4a322f1496e5c3d34a9bcdb4c60567b38c7de2",
          "topics": [
            "0xddf252ad1be2c89b69c2b068fc378daa952ba7f163c4a11628f55a4df523b3ef",
            "0x000000000000000000000000c77f7fed3b5cc8249adc428c5f44c9063b9734b4",
            "0x0000000000000000000000000000000000000000000000000000000000000000"
          ],
          "data": "0x000000000000000000000000000000000000000000000034c2676ab6b25b2c15",
          "blockHash": "0xa51da89cd8370e1376903c88eea70e852a0df55afd52d5c7b0d7dc6fa26fee18",
          "blockNumber": "0x7266fc",
          "transactionHash": "0x667e083c0403a3a3c7e66e4236f3212d794040731c5b170cc8291db1f7386c8f",
          "transactionIndex": "0x98",
          "logIndex": "0x109",
          "removed": false
        },
        {
          "address": "0xbf4a322f1496e5c3d34a9bcdb4c60567b38c7de2",
          "topics": [
            "0x4afcb4a87cdbd9974efdb92ee48bc8d7cd0ae4bf217004db3d080cbaee652ca7"
          ],
          "data": "0x000000000000000000000000000000000000000000000000000000006787c73400000000000000000000000000000000000000000000000000039ffd4facc20f0000000000000000000000000000000000000000000000000dc7e3d258b8b7ce",
          "blockHash": "0xa51da89cd8370e1376903c88eea70e852a0df55afd52d5c7b0d7dc6fa26fee18",
          "blockNumber": "0x7266fc",
          "transactionHash": "0x667e083c0403a3a3c7e66e4236f3212d794040731c5b170cc8291db1f7386c8f",
          "transactionIndex": "0x98",
          "logIndex": "0x10a",
          "removed": false
        }
      ],
      "logsBloom": "0x00000000000000000000000000000000000000000000000000000000000000000000000000000000000000000000000000000000000000004000000000000000000000000000000000000008000000000000001000000000000000000000000000000000020000000000000000000800020000000000000000000010000000000000000000000000000000000000000000000000000008000000010000000000000000000000000000000000000000004000000000000000000000000000000000000002000000800000000000001000000000000000080000000000000020000000000000000000000000000000000000000000000000000000000000000000",
      "type": "0x2",
      "transactionHash": "0x667e083c0403a3a3c7e66e4236f3212d794040731c5b170cc8291db1f7386c8f",
      "transactionIndex": "0x98",
      "blockHash": "0xa51da89cd8370e1376903c88eea70e852a0df55afd52d5c7b0d7dc6fa26fee18",
      "blockNumber": "0x7266fc",
      "gasUsed": "0xfb91",
      "effectiveGasPrice": "0x373147f0f",
      "from": "0xc77f7fed3b5cc8249adc428c5f44c9063b9734b4",
      "to": "0xbf4a322f1496e5c3d34a9bcdb4c60567b38c7de2",
      "contractAddress": null
    }
  ],
  "libraries": [],
  "pending": [],
  "returns": {},
  "timestamp": 1736951605,
  "chain": 11155111,
  "commit": "51a374b"
}