{
  "transactions": [
    {
      "hash": "0x907a3ae89b5420061f265d795ab3c40a7f7f0290c16a9f3d255c38ebd0e82f7b",
      "transactionType": "CALL",
      "contractName": null,
      "contractAddress": "0x270e88f8683660553e8ba4eb2ad7c91a1710d769",
      "function": "buy(address)",
      "arguments": [
        "0xC77f7fed3b5Cc8249aDc428c5F44C9063B9734b4"
      ],
      "transaction": {
        "from": "0xc77f7fed3b5cc8249adc428c5f44c9063b9734b4",
        "to": "0x270e88f8683660553e8ba4eb2ad7c91a1710d769",
        "gas": "0x1b30c",
        "value": "0xde0b6b3a7640000",
        "input": "0xf088d547000000000000000000000000c77f7fed3b5cc8249adc428c5f44c9063b9734b4",
        "nonce": "0x568",
        "chainId": "0xaa36a7"
      },
      "additionalContracts": [],
      "isFixedGasLimit": false
    }
  ],
  "receipts": [
    {
      "status": "0x1",
      "cumulativeGasUsed": "0xbd3821",
      "logs": [
        {
          "address": "0x270e88f8683660553e8ba4eb2ad7c91a1710d769",
          "topics": [
            "0xddf252ad1be2c89b69c2b068fc378daa952ba7f163c4a11628f55a4df523b3ef",
            "0x0000000000000000000000000000000000000000000000000000000000000000",
            "0x000000000000000000000000c77f7fed3b5cc8249adc428c5f44c9063b9734b4"
          ],
          "data": "0x0000000000000000000000000000000000000000000000346b943ab8bcdd7deb",
          "blockHash": "0x58002b5e4d7c1b4d44986145e88b0eedc658693cafa6834fd17ebf3e7e8e6062",
          "blockNumber": "0x72520f",
          "transactionHash": "0x907a3ae89b5420061f265d795ab3c40a7f7f0290c16a9f3d255c38ebd0e82f7b",
          "transactionIndex": "0x50",
          "logIndex": "0x80",
          "removed": false
        },
        {
          "address": "0x270e88f8683660553e8ba4eb2ad7c91a1710d769",
          "topics": [
            "0xddf252ad1be2c89b69c2b068fc378daa952ba7f163c4a11628f55a4df523b3ef",
            "0x0000000000000000000000000000000000000000000000000000000000000000",
            "0x000000000000000000000000c77f7fed3b5cc8249adc428c5f44c9063b9734b4"
          ],
          "data": "0x00000000000000000000000000000000000000000000000028b4c2c70eda7567",
          "blockHash": "0x58002b5e4d7c1b4d44986145e88b0eedc658693cafa6834fd17ebf3e7e8e6062",
          "blockNumber": "0x72520f",
          "transactionHash": "0x907a3ae89b5420061f265d795ab3c40a7f7f0290c16a9f3d255c38ebd0e82f7b",
          "transactionIndex": "0x50",
          "logIndex": "0x81",
          "removed": false
        },
        {
          "address": "0x270e88f8683660553e8ba4eb2ad7c91a1710d769",
          "topics": [
            "0x4afcb4a87cdbd9974efdb92ee48bc8d7cd0ae4bf217004db3d080cbaee652ca7"
          ],
          "data": "0x000000000000000000000000000000000000000000000000000000006786caa40000000000000000000000000000000000000000000000000003a33f8330ccbc0000000000000000000000000000000000000000000000000de0b6b3a7640000",
          "blockHash": "0x58002b5e4d7c1b4d44986145e88b0eedc658693cafa6834fd17ebf3e7e8e6062",
          "blockNumber": "0x72520f",
          "transactionHash": "0x907a3ae89b5420061f265d795ab3c40a7f7f0290c16a9f3d255c38ebd0e82f7b",
          "transactionIndex": "0x50",
          "logIndex": "0x82",
          "removed": false
        }
      ],
      "logsBloom": "0x00000000000000000000000000000000000000000000000000000000000000000000000000000000000000000000000020000000000000004000000000000000000000000000000000000008000000000000000000000000000000000000000000000000020000000000000000000800020000000000000000000010000000000000000000010000000000000000000000000000000000000000010000000000000000000000000000000000000000004000000000000000000000000000000000000002000000800000000000000000000000000000080000008000000020000000000000000000000000000000000000000000000000000000000000000000",
      "type": "0x2",
      "transactionHash": "0x907a3ae89b5420061f265d795ab3c40a7f7f0290c16a9f3d255c38ebd0e82f7b",
      "transactionIndex": "0x50",
      "blockHash": "0x58002b5e4d7c1b4d44986145e88b0eedc658693cafa6834fd17ebf3e7e8e6062",
      "blockNumber": "0x72520f",
      "gasUsed": "0x13af8",
      "effectiveGasPrice": "0x4e1e5b929",
      "from": "0xc77f7fed3b5cc8249adc428c5f44c9063b9734b4",
      "to": "0x270e88f8683660553e8ba4eb2ad7c91a1710d769",
      "contractAddress": null
    }
  ],
  "libraries": [],
  "pending": [],
  "returns": {},
  "timestamp": 1736886950,
  "chain": 11155111,
  "commit": "51a374b"
}