{
  "transactions": [
    {
      "hash": "0xfa284724407e838488d08bf2fd11be1c0c4f0bf8831936ffb516ea939617befa",
      "transactionType": "CALL",
      "contractName": null,
      "contractAddress": "0x270e88f8683660553e8ba4eb2ad7c91a1710d769",
      "function": "sell(uint256)",
      "arguments": [
        "744217534259196553093"
      ],
      "transaction": {
        "from": "0xc77f7fed3b5cc8249adc428c5f44c9063b9734b4",
        "to": "0x270e88f8683660553e8ba4eb2ad7c91a1710d769",
        "gas": "0x16fec",
        "value": "0x0",
        "input": "0xe4849b320000000000000000000000000000000000000000000000285817d06010836785",
        "nonce": "0x70c",
        "chainId": "0xaa36a7"
      },
      "additionalContracts": [],
      "isFixedGasLimit": false
    }
  ],
  "receipts": [
    {
      "status": "0x1",
      "cumulativeGasUsed": "0x655529",
      "logs": [
        {
          "address": "0x270e88f8683660553e8ba4eb2ad7c91a1710d769",
          "topics": [
            "0xddf252ad1be2c89b69c2b068fc378daa952ba7f163c4a11628f55a4df523b3ef",
            "0x000000000000000000000000c77f7fed3b5cc8249adc428c5f44c9063b9734b4",
            "0x0000000000000000000000000000000000000000000000000000000000000000"
          ],
          "data": "0x0000000000000000000000000000000000000000000000285817d06010836785",
          "blockHash": "0xb6e59428cabf99ccf661d2f24aebb768625b2aff67edf6ad19dfb579070cbc07",
          "blockNumber": "0x725422",
          "transactionHash": "0xfa284724407e838488d08bf2fd11be1c0c4f0bf8831936ffb516ea939617befa",
          "transactionIndex": "0x41",
          "logIndex": "0x7e",
          "removed": false
        },
        {
          "address": "0x270e88f8683660553e8ba4eb2ad7c91a1710d769",
          "topics": [
            "0x4afcb4a87cdbd9974efdb92ee48bc8d7cd0ae4bf217004db3d080cbaee652ca7"
          ],
          "data": "0x000000000000000000000000000000000000000000000000000000006786e3a00000000000000000000000000000000000000000000000000004bdd2e63fae650000000000000000000000000000000000000000000000000dc828efb50f19eb",
          "blockHash": "0xb6e59428cabf99ccf661d2f24aebb768625b2aff67edf6ad19dfb579070cbc07",
          "blockNumber": "0x725422",
          "transactionHash": "0xfa284724407e838488d08bf2fd11be1c0c4f0bf8831936ffb516ea939617befa",
          "transactionIndex": "0x41",
          "logIndex": "0x7f",
          "removed": false
        }
      ],
      "logsBloom": "0x00000000000000000000000000000000000000000000000000000000000000000000000000000000000000000000000020000000000000004000000000000000000000000000000000000008000000000000000000000000000000000000000000000000020000000000000000000800020000000000000000000010000000000000000000010000000000000000000000000000000000000000010000000000000000000000000000000000000000004000000000000000000000000000000000000002000000800000000000000000000000000000080000008000000020000000000000000000000000000000000000000000000000000000000000000000",
      "type": "0x2",
      "transactionHash": "0xfa284724407e838488d08bf2fd11be1c0c4f0bf8831936ffb516ea939617befa",
      "transactionIndex": "0x41",
      "blockHash": "0xb6e59428cabf99ccf661d2f24aebb768625b2aff67edf6ad19dfb579070cbc07",
      "blockNumber": "0x725422",
      "gasUsed": "0xfb93",
      "effectiveGasPrice": "0x1428f4906",
      "from": "0xc77f7fed3b5cc8249adc428c5f44c9063b9734b4",
      "to": "0x270e88f8683660553e8ba4eb2ad7c91a1710d769",
      "contractAddress": null
    }
  ],
  "libraries": [],
  "pending": [],
  "returns": {},
  "timestamp": 1736893345,
  "chain": 11155111,
  "commit": "51a374b"
}