{
  "transactions": [
    {
      "hash": "0x923e36aef377836a77d02869b1b3ff935dc216b0613bc497d9c37099a75dcbeb",
      "transactionType": "CALL",
      "contractName": null,
      "contractAddress": "0x270e88f8683660553e8ba4eb2ad7c91a1710d769",
      "function": "sell(uint256)",
      "arguments": [
        "724115230247134988545"
      ],
      "transaction": {
        "from": "0xc77f7fed3b5cc8249adc428c5f44c9063b9734b4",
        "to": "0x270e88f8683660553e8ba4eb2ad7c91a1710d769",
        "gas": "0x16fec",
        "value": "0x0",
        "input": "0xe4849b32000000000000000000000000000000000000000000000027411e156202ac8901",
        "nonce": "0x7f2",
        "chainId": "0xaa36a7"
      },
      "additionalContracts": [],
      "isFixedGasLimit": false
    }
  ],
  "receipts": [
    {
      "status": "0x1",
      "cumulativeGasUsed": "0xad67a2",
      "logs": [
        {
          "address": "0x270e88f8683660553e8ba4eb2ad7c91a1710d769",
          "topics": [
            "0xddf252ad1be2c89b69c2b068fc378daa952ba7f163c4a11628f55a4df523b3ef",
            "0x000000000000000000000000c77f7fed3b5cc8249adc428c5f44c9063b9734b4",
            "0x0000000000000000000000000000000000000000000000000000000000000000"
          ],
          "data": "0x000000000000000000000000000000000000000000000027411e156202ac8901",
          "blockHash": "0x9bc9243f10575059851e992feb92ee68e74bf0bba9293cb21bec481b8b489192",
          "blockNumber": "0x72552e",
          "transactionHash": "0x923e36aef377836a77d02869b1b3ff935dc216b0613bc497d9c37099a75dcbeb",
          "transactionIndex": "0x48",
          "logIndex": "0x8f",
          "removed": false
        },
        {
          "address": "0x270e88f8683660553e8ba4eb2ad7c91a1710d769",
          "topics": [
            "0x4afcb4a87cdbd9974efdb92ee48bc8d7cd0ae4bf217004db3d080cbaee652ca7"
          ],
          "data": "0x000000000000000000000000000000000000000000000000000000006786f0300000000000000000000000000000000000000000000000000004df834f3ade910000000000000000000000000000000000000000000000000dc826db01d59421",
          "blockHash": "0x9bc9243f10575059851e992feb92ee68e74bf0bba9293cb21bec481b8b489192",
          "blockNumber": "0x72552e",
          "transactionHash": "0x923e36aef377836a77d02869b1b3ff935dc216b0613bc497d9c37099a75dcbeb",
          "transactionIndex": "0x48",
          "logIndex": "0x90",
          "removed": false
        }
      ],
      "logsBloom": "0x00000000000000000000000000000000000000000000000000000000000000000000000000000000000000000000000020000000000000004000000000000000000000000000000000000008000000000000000000000000000000000000000000000000020000000000000000000800020000000000000000000010000000000000000000010000000000000000000000000000000000000000010000000000000000000000000000000000000000004000000000000000000000000000000000000002000000800000000000000000000000000000080000008000000020000000000000000000000000000000000000000000000000000000000000000000",
      "type": "0x2",
      "transactionHash": "0x923e36aef377836a77d02869b1b3ff935dc216b0613bc497d9c37099a75dcbeb",
      "transactionIndex": "0x48",
      "blockHash": "0x9bc9243f10575059851e992feb92ee68e74bf0bba9293cb21bec481b8b489192",
      "blockNumber": "0x72552e",
      "gasUsed": "0xfb93",
      "effectiveGasPrice": "0x9b28547b",
      "from": "0xc77f7fed3b5cc8249adc428c5f44c9063b9734b4",
      "to": "0x270e88f8683660553e8ba4eb2ad7c91a1710d769",
      "contractAddress": null
    }
  ],
  "libraries": [],
  "pending": [],
  "returns": {},
  "timestamp": 1736896561,
  "chain": 11155111,
  "commit": "51a374b"
}