{
  "transactions": [
    {
      "hash": "0x75f58d734542150b2be9ee6dd7f213d8ca35c1faf9be7bb5e6f75bfb78de4d61",
      "transactionType": "CALL",
      "contractName": null,
      "contractAddress": "0x8aafd3ede9adb0ff97c7aebce82a919afb1c8764",
      "function": "sell(uint256)",
      "arguments": [
        "1553957"
      ],
      "transaction": {
        "from": "0xc77f7fed3b5cc8249adc428c5f44c9063b9734b4",
        "to": "0x8aafd3ede9adb0ff97c7aebce82a919afb1c8764",
        "gas": "0x16208",
        "value": "0x0",
        "input": "0xe4849b32000000000000000000000000000000000000000000000000000000000017b625",
        "nonce": "0xfa0",
        "chainId": "0xaa36a7"
      },
      "additionalContracts": [],
      "isFixedGasLimit": false
    }
  ],
  "receipts": [
    {
      "status": "0x1",
      "cumulativeGasUsed": "0x1030e67",
      "logs": [
        {
          "address": "0x8aafd3ede9adb0ff97c7aebce82a919afb1c8764",
          "topics": [
            "0xddf252ad1be2c89b69c2b068fc378daa952ba7f163c4a11628f55a4df523b3ef",
            "0x000000000000000000000000c77f7fed3b5cc8249adc428c5f44c9063b9734b4",
            "0x0000000000000000000000000000000000000000000000000000000000000000"
          ],
          "data": "0x0000000000000000000000000000000000000000000000000000000000178596",
          "blockHash": "0x7a6f90c414e8f4078fa51ac355b069035478ea78026a60748c1580730932793c",
          "blockNumber": "0x731608",
          "transactionHash": "0x75f58d734542150b2be9ee6dd7f213d8ca35c1faf9be7bb5e6f75bfb78de4d61",
          "transactionIndex": "0xab",
          "logIndex": "0xe9",
          "removed": false
        },
        {
          "address": "0x8aafd3ede9adb0ff97c7aebce82a919afb1c8764",
          "topics": [
            "0xddf252ad1be2c89b69c2b068fc378daa952ba7f163c4a11628f55a4df523b3ef",
            "0x000000000000000000000000c77f7fed3b5cc8249adc428c5f44c9063b9734b4",
            "0x000000000000000000000000c77f7fed3b5cc8249adc428c5f44c9063b9734b4"
          ],
          "data": "0x000000000000000000000000000000000000000000000000000000000000308f",
          "blockHash": "0x7a6f90c414e8f4078fa51ac355b069035478ea78026a60748c1580730932793c",
          "blockNumber": "0x731608",
          "transactionHash": "0x75f58d734542150b2be9ee6dd7f213d8ca35c1faf9be7bb5e6f75bfb78de4d61",
          "transactionIndex": "0xab",
          "logIndex": "0xea",
          "removed": false
        },
        {
          "address": "0x8aafd3ede9adb0ff97c7aebce82a919afb1c8764",
          "topics": [
            "0x4afcb4a87cdbd9974efdb92ee48bc8d7cd0ae4bf217004db3d080cbaee652ca7"
          ],
          "data": "0x000000000000000000000000000000000000000000000000000000006790050c0000000000000000000000000000000000000000000000000004c3273f4e3c300000000000000000000000000000000000000000000000000000000000000823",
          "blockHash": "0x7a6f90c414e8f4078fa51ac355b069035478ea78026a60748c1580730932793c",
          "blockNumber": "0x731608",
          "transactionHash": "0x75f58d734542150b2be9ee6dd7f213d8ca35c1faf9be7bb5e6f75bfb78de4d61",
          "transactionIndex": "0xab",
          "logIndex": "0xeb",
          "removed": false
        }
      ],
      "logsBloom": "0x00000000000000000000000000000000000000000600000000000000000000000000000000000000000000000000000000000000000000004000000000000000000000000000004000000008000000000000000000000000000000000000000000000000020000000000000000000800020000000000000000000010000000000000000000000000000000000000000000000000000000000000010000000000000000000000000000000000000000004000000000000000000000000000000000000002000000800000000000000000000000000000080000000000000020000000000000000000000000000000000000000000000000000000000000000000",
      "type": "0x2",
      "transactionHash": "0x75f58d734542150b2be9ee6dd7f213d8ca35c1faf9be7bb5e6f75bfb78de4d61",
      "transactionIndex": "0xab",
      "blockHash": "0x7a6f90c414e8f4078fa51ac355b069035478ea78026a60748c1580730932793c",
      "blockNumber": "0x731608",
      "gasUsed": "0xf213",
      "effectiveGasPrice": "0x534f4897",
      "from": "0xc77f7fed3b5cc8249adc428c5f44c9063b9734b4",
      "to": "0x8aafd3ede9adb0ff97c7aebce82a919afb1c8764",
      "contractAddress": null
    }
  ],
  "libraries": [],
  "pending": [],
  "returns": {},
  "timestamp": 1737491725,
  "chain": 11155111,
  "commit": "1d2fb70"
}