{
  "transactions": [
    {
      "hash": "0x14071e5bb63c6ef155b6eb02dd20d144243531dc74e7643e9f6da49df4975efc",
      "transactionType": "CALL",
      "contractName": null,
      "contractAddress": "0x5eb9cc76c3506942c1c0ead70e877dd5e4f00cb0",
      "function": "buy(address)",
      "arguments": [
        "0xC77f7fed3b5Cc8249aDc428c5F44C9063B9734b4"
      ],
      "transaction": {
        "from": "0xc77f7fed3b5cc8249adc428c5f44c9063b9734b4",
        "to": "0x5eb9cc76c3506942c1c0ead70e877dd5e4f00cb0",
        "gas": "0x156c8",
        "value": "0xde0b6b3a7640000",
        "input": "0xf088d547000000000000000000000000c77f7fed3b5cc8249adc428c5f44c9063b9734b4",
        "nonce": "0x207",
        "chainId": "0xaa36a7"
      },
      "additionalContracts": [],
      "isFixedGasLimit": false
    }
  ],
  "receipts": [
    {
      "status": "0x1",
      "cumulativeGasUsed": "0x11b890d",
      "logs": [
        {
          "address": "0x5eb9cc76c3506942c1c0ead70e877dd5e4f00cb0",
          "topics": [
            "0xddf252ad1be2c89b69c2b068fc378daa952ba7f163c4a11628f55a4df523b3ef",
            "0x0000000000000000000000000000000000000000000000000000000000000000",
            "0x000000000000000000000000c77f7fed3b5cc8249adc428c5f44c9063b9734b4"
          ],
          "data": "0x00000000000000000000000000000000000000000000003584ba27e0062aeb29",
          "blockHash": "0x1d30e965add166ca65e9c78098a90b68a0c9c5e30738fb2f20da67e76e67b4e2",
          "blockNumber": "0x724b22",
          "transactionHash": "0x14071e5bb63c6ef155b6eb02dd20d144243531dc74e7643e9f6da49df4975efc",
          "transactionIndex": "0x65",
          "logIndex": "0xfb",
          "removed": false
        },
        {
          "address": "0x5eb9cc76c3506942c1c0ead70e877dd5e4f00cb0",
          "topics": [
            "0xddf252ad1be2c89b69c2b068fc378daa952ba7f163c4a11628f55a4df523b3ef",
            "0x0000000000000000000000000000000000000000000000000000000000000000",
            "0x000000000000000000000000c77f7fed3b5cc8249adc428c5f44c9063b9734b4"
          ],
          "data": "0x000000000000000000000000000000000000000000000000298f14fc866bd5e1",
          "blockHash": "0x1d30e965add166ca65e9c78098a90b68a0c9c5e30738fb2f20da67e76e67b4e2",
          "blockNumber": "0x724b22",
          "transactionHash": "0x14071e5bb63c6ef155b6eb02dd20d144243531dc74e7643e9f6da49df4975efc",
          "transactionIndex": "0x65",
          "logIndex": "0xfc",
          "removed": false
        },
        {
          "address": "0x5eb9cc76c3506942c1c0ead70e877dd5e4f00cb0",
          "topics": [
            "0x4afcb4a87cdbd9974efdb92ee48bc8d7cd0ae4bf217004db3d080cbaee652ca7"
          ],
          "data": "0x0000000000000000000000000000000000000000000000000000000067867740000000000000000000000000000000000000000000000000000390093fd58bae0000000000000000000000000000000000000000000000000de0b6b3a7640000",
          "blockHash": "0x1d30e965add166ca65e9c78098a90b68a0c9c5e30738fb2f20da67e76e67b4e2",
          "blockNumber": "0x724b22",
          "transactionHash": "0x14071e5bb63c6ef155b6eb02dd20d144243531dc74e7643e9f6da49df4975efc",
          "transactionIndex": "0x65",
          "logIndex": "0xfd",
          "removed": false
        }
      ],
      "logsBloom": "0x00000000000000000000000000000000000000000000000000000000000000000000000000000000000000000000000000000000000000004000000000000000000000000000000000000008000000000000000000000000000000000000000000000000020000000000000004000800020000000000000000000010000000000000000000000000000000000000000000000000000000000000010000000000000000000000000000000000000000004000000000000000000000000000020000000002000000800000008000000000000000000000080000000000000020000000000000000000000000000000000000000000000000000000000000000000",
      "type": "0x2",
      "transactionHash": "0x14071e5bb63c6ef155b6eb02dd20d144243531dc74e7643e9f6da49df4975efc",
      "transactionIndex": "0x65",
      "blockHash": "0x1d30e965add166ca65e9c78098a90b68a0c9c5e30738fb2f20da67e76e67b4e2",
      "blockNumber": "0x724b22",
      "gasUsed": "0xf82c",
      "effectiveGasPrice": "0x5664d5808",
      "from": "0xc77f7fed3b5cc8249adc428c5f44c9063b9734b4",
      "to": "0x5eb9cc76c3506942c1c0ead70e877dd5e4f00cb0",
      "contractAddress": null
    }
  ],
  "libraries": [],
  "pending": [],
  "returns": {},
  "timestamp": 1736865602,
  "chain": 11155111,
  "commit": "51a374b"
}