{
  "transactions": [
    {
      "hash": "0x05e96fc4621d19631ee65f75abe5c443d79eec0c4efbcb71dcef43c760d208d8",
      "transactionType": "CALL",
      "contractName": null,
      "contractAddress": "0x8aafd3ede9adb0ff97c7aebce82a919afb1c8764",
      "function": "sell(uint256)",
      "arguments": [
        "273848384467299016480"
      ],
      "transaction": {
        "from": "0xc77f7fed3b5cc8249adc428c5f44c9063b9734b4",
        "to": "0x8aafd3ede9adb0ff97c7aebce82a919afb1c8764",
        "gas": "0x17270",
        "value": "0x0",
        "input": "0xe4849b3200000000000000000000000000000000000000000000000ed868e6c317f51f20",
        "nonce": "0x1397",
        "chainId": "0xaa36a7"
      },
      "additionalContracts": [],
      "isFixedGasLimit": false
    }
  ],
  "receipts": [
    {
      "status": "0x1",
      "cumulativeGasUsed": "0x1094d16",
      "logs": [
        {
          "address": "0x8aafd3ede9adb0ff97c7aebce82a919afb1c8764",
          "topics": [
            "0xddf252ad1be2c89b69c2b068fc378daa952ba7f163c4a11628f55a4df523b3ef",
            "0x000000000000000000000000c77f7fed3b5cc8249adc428c5f44c9063b9734b4",
            "0x0000000000000000000000000000000000000000000000000000000000000000"
          ],
          "data": "0x00000000000000000000000000000000000000000000000eba01a986240dc8dd",
          "blockHash": "0xec6e56c2041a32eed1a5652a5735975f7e72cc09049c4b31275ef6f7fb924cab",
          "blockNumber": "0x731abb",
          "transactionHash": "0x05e96fc4621d19631ee65f75abe5c443d79eec0c4efbcb71dcef43c760d208d8",
          "transactionIndex": "0x95",
          "logIndex": "0xc7",
          "removed": false
        },
        {
          "address": "0x8aafd3ede9adb0ff97c7aebce82a919afb1c8764",
          "topics": [
            "0xddf252ad1be2c89b69c2b068fc378daa952ba7f163c4a11628f55a4df523b3ef",
            "0x000000000000000000000000c77f7fed3b5cc8249adc428c5f44c9063b9734b4",
            "0x000000000000000000000000c77f7fed3b5cc8249adc428c5f44c9063b9734b4"
          ],
          "data": "0x0000000000000000000000000000000000000000000000001e673d3cf3e75643",
          "blockHash": "0xec6e56c2041a32eed1a5652a5735975f7e72cc09049c4b31275ef6f7fb924cab",
          "blockNumber": "0x731abb",
          "transactionHash": "0x05e96fc4621d19631ee65f75abe5c443d79eec0c4efbcb71dcef43c760d208d8",
          "transactionIndex": "0x95",
          "logIndex": "0xc8",
          "removed": false
        },
        {
          "address": "0x8aafd3ede9adb0ff97c7aebce82a919afb1c8764",
          "topics": [
            "0x4afcb4a87cdbd9974efdb92ee48bc8d7cd0ae4bf217004db3d080cbaee652ca7"
          ],
          "data": "0x0000000000000000000000000000000000000000000000000000000067903d94000000000000000000000000000000000000000000000000000cfbe3a61936920000000000000000000000000000000000000000000000000dce5df115e60385",
          "blockHash": "0xec6e56c2041a32eed1a5652a5735975f7e72cc09049c4b31275ef6f7fb924cab",
          "blockNumber": "0x731abb",
          "transactionHash": "0x05e96fc4621d19631ee65f75abe5c443d79eec0c4efbcb71dcef43c760d208d8",
          "transactionIndex": "0x95",
          "logIndex": "0xc9",
          "removed": false
        }
      ],
      "logsBloom": "0x00000000000000000000000000000000000000000600000000000000000000000000000000000000000000000000000000000000000000004000000000000000000000000000004000000008000000000000000000000000000000000000000000000000020000000000000000000800020000000000000000000010000000000000000000000000000000000000000000000000000000000000010000000000000000000000000000000000000000004000000000000000000000000000000000000002000000800000000000000000000000000000080000000000000020000000000000000000000000000000000000000000000000000000000000000000",
      "type": "0x2",
      "transactionHash": "0x05e96fc4621d19631ee65f75abe5c443d79eec0c4efbcb71dcef43c760d208d8",
      "transactionIndex": "0x95",
      "blockHash": "0xec6e56c2041a32eed1a5652a5735975f7e72cc09049c4b31275ef6f7fb924cab",
      "blockNumber": "0x731abb",
      "gasUsed": "0xfd4b",
      "effectiveGasPrice": "0x8324269d",
      "from": "0xc77f7fed3b5cc8249adc428c5f44c9063b9734b4",
      "to": "0x8aafd3ede9adb0ff97c7aebce82a919afb1c8764",
      "contractAddress": null
    }
  ],
  "libraries": [],
  "pending": [],
  "returns": {},
  "timestamp": 1737506198,
  "chain": 11155111,
  "commit": "1d2fb70"
}