{
  "transactions": [
    {
      "hash": "0xf281e3c0a825b9a9272893be3b7be45b351fb0495b62cc4484ee1bc91c73e250",
      "transactionType": "CALL",
      "contractName": null,
      "contractAddress": "0x8aafd3ede9adb0ff97c7aebce82a919afb1c8764",
      "function": "sell(uint256)",
      "arguments": [
        "12461"
      ],
      "transaction": {
        "from": "0xc77f7fed3b5cc8249adc428c5f44c9063b9734b4",
        "to": "0x8aafd3ede9adb0ff97c7aebce82a919afb1c8764",
        "gas": "0x14e4c",
        "value": "0x0",
        "input": "0xe4849b3200000000000000000000000000000000000000000000000000000000000030ad",
        "nonce": "0xf47",
        "chainId": "0xaa36a7"
      },
      "additionalContracts": [],
      "isFixedGasLimit": false
    }
  ],
  "receipts": [
    {
      "status": "0x1",
      "cumulativeGasUsed": "0xe2110e",
      "logs": [
        {
          "address": "0x8aafd3ede9adb0ff97c7aebce82a919afb1c8764",
          "topics": [
            "0xddf252ad1be2c89b69c2b068fc378daa952ba7f163c4a11628f55a4df523b3ef",
            "0x000000000000000000000000c77f7fed3b5cc8249adc428c5f44c9063b9734b4",
            "0x0000000000000000000000000000000000000000000000000000000000000000"
          ],
          "data": "0x000000000000000000000000000000000000000000000000000000000000304a",
          "blockHash": "0x42493b074a9cb598499db88530208349f48a0cc14ccbcc4791c0b1f90c1426be",
          "blockNumber": "0x7315a2",
          "transactionHash": "0xf281e3c0a825b9a9272893be3b7be45b351fb0495b62cc4484ee1bc91c73e250",
          "transactionIndex": "0x89",
          "logIndex": "0xcc",
          "removed": false
        },
        {
          "address": "0x8aafd3ede9adb0ff97c7aebce82a919afb1c8764",
          "topics": [
            "0xddf252ad1be2c89b69c2b068fc378daa952ba7f163c4a11628f55a4df523b3ef",
            "0x000000000000000000000000c77f7fed3b5cc8249adc428c5f44c9063b9734b4",
            "0x000000000000000000000000c77f7fed3b5cc8249adc428c5f44c9063b9734b4"
          ],
          "data": "0x0000000000000000000000000000000000000000000000000000000000000063",
          "blockHash": "0x42493b074a9cb598499db88530208349f48a0cc14ccbcc4791c0b1f90c1426be",
          "blockNumber": "0x7315a2",
          "transactionHash": "0xf281e3c0a825b9a9272893be3b7be45b351fb0495b62cc4484ee1bc91c73e250",
          "transactionIndex": "0x89",
          "logIndex": "0xcd",
          "removed": false
        },
        {
          "address": "0x8aafd3ede9adb0ff97c7aebce82a919afb1c8764",
          "topics": [
            "0x4afcb4a87cdbd9974efdb92ee48bc8d7cd0ae4bf217004db3d080cbaee652ca7"
          ],
          "data": "0x00000000000000000000000000000000000000000000000000000000679000440000000000000000000000000000000000000000000000000004c033badb46e90000000000000000000000000000000000000000000000000000000000000010",
          "blockHash": "0x42493b074a9cb598499db88530208349f48a0cc14ccbcc4791c0b1f90c1426be",
          "blockNumber": "0x7315a2",
          "transactionHash": "0xf281e3c0a825b9a9272893be3b7be45b351fb0495b62cc4484ee1bc91c73e250",
          "transactionIndex": "0x89",
          "logIndex": "0xce",
          "removed": false
        }
      ],
      "logsBloom": "0x00000000000000000000000000000000000000000600000000000000000000000000000000000000000000000000000000000000000000004000000000000000000000000000004000000008000000000000000000000000000000000000000000000000020000000000000000000800020000000000000000000010000000000000000000000000000000000000000000000000000000000000010000000000000000000000000000000000000000004000000000000000000000000000000000000002000000800000000000000000000000000000080000000000000020000000000000000000000000000000000000000000000000000000000000000000",
      "type": "0x2",
      "transactionHash": "0xf281e3c0a825b9a9272893be3b7be45b351fb0495b62cc4484ee1bc91c73e250",
      "transactionIndex": "0x89",
      "blockHash": "0x42493b074a9cb598499db88530208349f48a0cc14ccbcc4791c0b1f90c1426be",
      "blockNumber": "0x7315a2",
      "gasUsed": "0xf207",
      "effectiveGasPrice": "0x7212745e",
      "from": "0xc77f7fed3b5cc8249adc428c5f44c9063b9734b4",
      "to": "0x8aafd3ede9adb0ff97c7aebce82a919afb1c8764",
      "contractAddress": null
    }
  ],
  "libraries": [],
  "pending": [],
  "returns": {},
  "timestamp": 1737490501,
  "chain": 11155111,
  "commit": "1d2fb70"
}