{
  "transactions": [
    {
      "hash": "0x4cbace58e8de134d22c129f38aa4af5da63cee2ab8662a43b41c88fe6c40b211",
      "transactionType": "CALL",
      "contractName": null,
      "contractAddress": "0xbf4a322f1496e5c3d34a9bcdb4c60567b38c7de2",
      "function": "sell(uint256)",
      "arguments": [
        "988545286403151980166"
      ],
      "transaction": {
        "from": "0xc77f7fed3b5cc8249adc428c5f44c9063b9734b4",
        "to": "0xbf4a322f1496e5c3d34a9bcdb4c60567b38c7de2",
        "gas": "0x16fea",
        "value": "0x0",
        "input": "0xe4849b3200000000000000000000000000000000000000000000003596d25c723ea96686",
        "nonce": "0x9a1",
        "chainId": "0xaa36a7"
      },
      "additionalContracts": [],
      "isFixedGasLimit": false
    }
  ],
  "receipts": [
    {
      "status": "0x1",
      "cumulativeGasUsed": "0x60a905",
      "logs": [
        {
          "address": "0xbf4a322f1496e5c3d34a9bcdb4c60567b38c7de2",
          "topics": [
            "0xddf252ad1be2c89b69c2b068fc378daa952ba7f163c4a11628f55a4df523b3ef",
            "0x000000000000000000000000c77f7fed3b5cc8249adc428c5f44c9063b9734b4",
            "0x0000000000000000000000000000000000000000000000000000000000000000"
          ],
          "data": "0x00000000000000000000000000000000000000000000003596d25c723ea96686",
          "blockHash": "0xd956108e22d24674bfecac13fcdc485fbfeede42e7075966a3faee3f3651ce95",
          "blockNumber": "0x725948",
          "transactionHash": "0x4cbace58e8de134d22c129f38aa4af5da63cee2ab8662a43b41c88fe6c40b211",
          "transactionIndex": "0x43",
          "logIndex": "0x58",
          "removed": false
        },
        {
          "address": "0xbf4a322f1496e5c3d34a9bcdb4c60567b38c7de2",
          "topics": [
            "0x4afcb4a87cdbd9974efdb92ee48bc8d7cd0ae4bf217004db3d080cbaee652ca7"
          ],
          "data": "0x000000000000000000000000000000000000000000000000000000006787218c0000000000000000000000000000000000000000000000000003919f07142f7b0000000000000000000000000000000000000000000000000dc7e3f5ef23c754",
          "blockHash": "0xd956108e22d24674bfecac13fcdc485fbfeede42e7075966a3faee3f3651ce95",
          "blockNumber": "0x725948",
          "transactionHash": "0x4cbace58e8de134d22c129f38aa4af5da63cee2ab8662a43b41c88fe6c40b211",
          "transactionIndex": "0x43",
          "logIndex": "0x59",
          "removed": false
        }
      ],
      "logsBloom": "0x00000000000000000000000000000000000000000000000000000000000000000000000000000000000000000000000000000000000000004000000000000000000000000000000000000008000000000000001000000000000000000000000000000000020000000000000000000800020000000000000000000010000000000000000000000000000000000000000000000000000008000000010000000000000000000000000000000000000000004000000000000000000000000000000000000002000000800000000000001000000000000000080000000000000020000000000000000000000000000000000000000000000000000000000000000000",
      "type": "0x2",
      "transactionHash": "0x4cbace58e8de134d22c129f38aa4af5da63cee2ab8662a43b41c88fe6c40b211",
      "transactionIndex": "0x43",
      "blockHash": "0xd956108e22d24674bfecac13fcdc485fbfeede42e7075966a3faee3f3651ce95",
      "blockNumber": "0x725948",
      "gasUsed": "0xfb91",
      "effectiveGasPrice": "0x27fd1a465",
      "from": "0xc77f7fed3b5cc8249adc428c5f44c9063b9734b4",
      "to": "0xbf4a322f1496e5c3d34a9bcdb4c60567b38c7de2",
      "contractAddress": null
    }
  ],
  "libraries": [],
  "pending": [],
  "returns": {},
  "timestamp": 1736909196,
  "chain": 11155111,
  "commit": "51a374b"
}