{
  "transactions": [
    {
      "hash": "0xa1a8f13f0502354d94109d1ae67b565df9afa6cd784ee5e87ab483bbf4a7b6a7",
      "transactionType": "CALL",
      "contractName": null,
      "contractAddress": "0xbf4a322f1496e5c3d34a9bcdb4c60567b38c7de2",
      "function": "sell(uint256)",
      "arguments": [
        "980684512747256351967"
      ],
      "transaction": {
        "from": "0xc77f7fed3b5cc8249adc428c5f44c9063b9734b4",
        "to": "0xbf4a322f1496e5c3d34a9bcdb4c60567b38c7de2",
        "gas": "0x16fea",
        "value": "0x0",
        "input": "0xe4849b3200000000000000000000000000000000000000000000003529bb487453410cdf",
        "nonce": "0xbe5",
        "chainId": "0xaa36a7"
      },
      "additionalContracts": [],
      "isFixedGasLimit": false
    }
  ],
  "receipts": [
    {
      "status": "0x1",
      "cumulativeGasUsed": "0x14138b1",
      "logs": [
        {
          "address": "0xbf4a322f1496e5c3d34a9bcdb4c60567b38c7de2",
          "topics": [
            "0xddf252ad1be2c89b69c2b068fc378daa952ba7f163c4a11628f55a4df523b3ef",
            "0x000000000000000000000000c77f7fed3b5cc8249adc428c5f44c9063b9734b4",
            "0x0000000000000000000000000000000000000000000000000000000000000000"
          ],
          "data": "0x00000000000000000000000000000000000000000000003529bb487453410cdf",
          "blockHash": "0x2d0dd3aa38a98759dd278f84dbf336e0adab4a6c72b8cc5ce80ef1fcfb819e1c",
          "blockNumber": "0x725c0b",
          "transactionHash": "0xa1a8f13f0502354d94109d1ae67b565df9afa6cd784ee5e87ab483bbf4a7b6a7",
          "transactionIndex": "0x79",
          "logIndex": "0xe2",
          "removed": false
        },
        {
          "address": "0xbf4a322f1496e5c3d34a9bcdb4c60567b38c7de2",
          "topics": [
            "0x4afcb4a87cdbd9974efdb92ee48bc8d7cd0ae4bf217004db3d080cbaee652ca7"
          ],
          "data": "0x00000000000000000000000000000000000000000000000000000000678742e0000000000000000000000000000000000000000000000000000398f1b86f88560000000000000000000000000000000000000000000000000dc7e3e3a867b239",
          "blockHash": "0x2d0dd3aa38a98759dd278f84dbf336e0adab4a6c72b8cc5ce80ef1fcfb819e1c",
          "blockNumber": "0x725c0b",
          "transactionHash": "0xa1a8f13f0502354d94109d1ae67b565df9afa6cd784ee5e87ab483bbf4a7b6a7",
          "transactionIndex": "0x79",
          "logIndex": "0xe3",
          "removed": false
        }
      ],
      "logsBloom": "0x00000000000000000000000000000000000000000000000000000000000000000000000000000000000000000000000000000000000000004000000000000000000000000000000000000008000000000000001000000000000000000000000000000000020000000000000000000800020000000000000000000010000000000000000000000000000000000000000000000000000008000000010000000000000000000000000000000000000000004000000000000000000000000000000000000002000000800000000000001000000000000000080000000000000020000000000000000000000000000000000000000000000000000000000000000000",
      "type": "0x2",
      "transactionHash": "0xa1a8f13f0502354d94109d1ae67b565df9afa6cd784ee5e87ab483bbf4a7b6a7",
      "transactionIndex": "0x79",
      "blockHash": "0x2d0dd3aa38a98759dd278f84dbf336e0adab4a6c72b8cc5ce80ef1fcfb819e1c",
      "blockNumber": "0x725c0b",
      "gasUsed": "0xfb91",
      "effectiveGasPrice": "0xb5355206",
      "from": "0xc77f7fed3b5cc8249adc428c5f44c9063b9734b4",
      "to": "0xbf4a322f1496e5c3d34a9bcdb4c60567b38c7de2",
      "contractAddress": null
    }
  ],
  "libraries": [],
  "pending": [],
  "returns": {},
  "timestamp": 1736917729,
  "chain": 11155111,
  "commit": "51a374b"
}