{
  "transactions": [
    {
      "hash": "0x0a93e27372ce382ec82fe9474b49ec669cc191a8c2c7b198d8771d040d224de3",
      "transactionType": "CALL",
      "contractName": null,
      "contractAddress": "0x5eb9cc76c3506942c1c0ead70e877dd5e4f00cb0",
      "function": "sell(uint256)",
      "arguments": [
        "989161194545835950314"
      ],
      "transaction": {
        "from": "0xc77f7fed3b5cc8249adc428c5f44c9063b9734b4",
        "to": "0x5eb9cc76c3506942c1c0ead70e877dd5e4f00cb0",
        "gas": "0x16fec",
        "value": "0x0",
        "input": "0xe4849b320000000000000000000000000000000000000000000000359f5e81a3899c40ea",
        "nonce": "0x281",
        "chainId": "0xaa36a7"
      },
      "additionalContracts": [],
      "isFixedGasLimit": false
    }
  ],
  "receipts": [
    {
      "status": "0x1",
      "cumulativeGasUsed": "0x782be9",
      "logs": [
        {
          "address": "0x5eb9cc76c3506942c1c0ead70e877dd5e4f00cb0",
          "topics": [
            "0xddf252ad1be2c89b69c2b068fc378daa952ba7f163c4a11628f55a4df523b3ef",
            "0x000000000000000000000000c77f7fed3b5cc8249adc428c5f44c9063b9734b4",
            "0x0000000000000000000000000000000000000000000000000000000000000000"
          ],
          "data": "0x0000000000000000000000000000000000000000000000359f5e81a3899c40ea",
          "blockHash": "0xa137c24a80dc5bf49c1b0527e339c90a9ff4e3e5b8d3101857c3c8e4f9e59e4f",
          "blockNumber": "0x724e4f",
          "transactionHash": "0x0a93e27372ce382ec82fe9474b49ec669cc191a8c2c7b198d8771d040d224de3",
          "transactionIndex": "0x53",
          "logIndex": "0xa1",
          "removed": false
        },
        {
          "address": "0x5eb9cc76c3506942c1c0ead70e877dd5e4f00cb0",
          "topics": [
            "0x4afcb4a87cdbd9974efdb92ee48bc8d7cd0ae4bf217004db3d080cbaee652ca7"
          ],
          "data": "0x0000000000000000000000000000000000000000000000000000000067869d680000000000000000000000000000000000000000000000000003910702db12240000000000000000000000000000000000000000000000000dc7db1332545604",
          "blockHash": "0xa137c24a80dc5bf49c1b0527e339c90a9ff4e3e5b8d3101857c3c8e4f9e59e4f",
          "blockNumber": "0x724e4f",
          "transactionHash": "0x0a93e27372ce382ec82fe9474b49ec669cc191a8c2c7b198d8771d040d224de3",
          "transactionIndex": "0x53",
          "logIndex": "0xa2",
          "removed": false
        }
      ],
      "logsBloom": "0x00000000000000000000000000000000000000000000000000000000000000000000000000000000000000000000000000000000000000004000000000000000000000000000000000000008000000000000000000000000000000000000000000000000020000000000000004000800020000000000000000000010000000000000000000000000000000000000000000000000000000000000010000000000000000000000000000000000000000004000000000000000000000000000020000000002000000800000008000000000000000000000080000000000000020000000000000000000000000000000000000000000000000000000000000000000",
      "type": "0x2",
      "transactionHash": "0x0a93e27372ce382ec82fe9474b49ec669cc191a8c2c7b198d8771d040d224de3",
      "transactionIndex": "0x53",
      "blockHash": "0xa137c24a80dc5bf49c1b0527e339c90a9ff4e3e5b8d3101857c3c8e4f9e59e4f",
      "blockNumber": "0x724e4f",
      "gasUsed": "0xfb93",
      "effectiveGasPrice": "0x4088c738c",
      "from": "0xc77f7fed3b5cc8249adc428c5f44c9063b9734b4",
      "to": "0x5eb9cc76c3506942c1c0ead70e877dd5e4f00cb0",
      "contractAddress": null
    }
  ],
  "libraries": [],
  "pending": [],
  "returns": {},
  "timestamp": 1736875368,
  "chain": 11155111,
  "commit": "51a374b"
}