{
  "transactions": [
    {
      "hash": "0x08f3d9aa12ad77927629fc2347bdf9cac0a70e3894edabbddad3638907b220c6",
      "transactionType": "CALL",
      "contractName": null,
      "contractAddress": "0x5eb9cc76c3506942c1c0ead70e877dd5e4f00cb0",
      "function": "sell(uint256)",
      "arguments": [
        "989609241898656740846"
      ],
      "transaction": {
        "from": "0xc77f7fed3b5cc8249adc428c5f44c9063b9734b4",
        "to": "0x5eb9cc76c3506942c1c0ead70e877dd5e4f00cb0",
        "gas": "0x16fec",
        "value": "0x0",
        "input": "0xe4849b32000000000000000000000000000000000000000000000035a5964a55150c35ee",
        "nonce": "0x277",
        "chainId": "0xaa36a7"
      },
      "additionalContracts": [],
      "isFixedGasLimit": false
    }
  ],
  "receipts": [
    {
      "status": "0x1",
      "cumulativeGasUsed": "0x11b6073",
      "logs": [
        {
          "address": "0x5eb9cc76c3506942c1c0ead70e877dd5e4f00cb0",
          "topics": [
            "0xddf252ad1be2c89b69c2b068fc378daa952ba7f163c4a11628f55a4df523b3ef",
            "0x000000000000000000000000c77f7fed3b5cc8249adc428c5f44c9063b9734b4",
            "0x0000000000000000000000000000000000000000000000000000000000000000"
          ],
          "data": "0x000000000000000000000000000000000000000000000035a5964a55150c35ee",
          "blockHash": "0xf0f4b490a14a568d6ddeca6cc0927e9a3feb92490268eb5d2b37a36a34f68b58",
          "blockNumber": "0x724e41",
          "transactionHash": "0x08f3d9aa12ad77927629fc2347bdf9cac0a70e3894edabbddad3638907b220c6",
          "transactionIndex": "0x7b",
          "logIndex": "0x9f",
          "removed": false
        },
        {
          "address": "0x5eb9cc76c3506942c1c0ead70e877dd5e4f00cb0",
          "topics": [
            "0x4afcb4a87cdbd9974efdb92ee48bc8d7cd0ae4bf217004db3d080cbaee652ca7"
          ],
          "data": "0x0000000000000000000000000000000000000000000000000000000067869cc00000000000000000000000000000000000000000000000000003909d2eb7ddf00000000000000000000000000000000000000000000000000dc7db11837133e9",
          "blockHash": "0xf0f4b490a14a568d6ddeca6cc0927e9a3feb92490268eb5d2b37a36a34f68b58",
          "blockNumber": "0x724e41",
          "transactionHash": "0x08f3d9aa12ad77927629fc2347bdf9cac0a70e3894edabbddad3638907b220c6",
          "transactionIndex": "0x7b",
          "logIndex": "0xa0",
          "removed": false
        }
      ],
      "logsBloom": "0x00000000000000000000000000000000000000000000000000000000000000000000000000000000000000000000000000000000000000004000000000000000000000000000000000000008000000000000000000000000000000000000000000000000020000000000000004000800020000000000000000000010000000000000000000000000000000000000000000000000000000000000010000000000000000000000000000000000000000004000000000000000000000000000020000000002000000800000008000000000000000000000080000000000000020000000000000000000000000000000000000000000000000000000000000000000",
      "type": "0x2",
      "transactionHash": "0x08f3d9aa12ad77927629fc2347bdf9cac0a70e3894edabbddad3638907b220c6",
      "transactionIndex": "0x7b",
      "blockHash": "0xf0f4b490a14a568d6ddeca6cc0927e9a3feb92490268eb5d2b37a36a34f68b58",
      "blockNumber": "0x724e41",
      "gasUsed": "0xfb93",
      "effectiveGasPrice": "0x39295b4ba",
      "from": "0xc77f7fed3b5cc8249adc428c5f44c9063b9734b4",
      "to": "0x5eb9cc76c3506942c1c0ead70e877dd5e4f00cb0",
      "contractAddress": null
    }
  ],
  "libraries": [],
  "pending": [],
  "returns": {},
  "timestamp": 1736875201,
  "chain": 11155111,
  "commit": "51a374b"
}