{
  "transactions": [
    {
      "hash": "0xf843ea09fb1db8cdae3beb55fa46e3172bc291e48110c9d83aaba2fd55d153de",
      "transactionType": "CALL",
      "contractName": null,
      "contractAddress": "0x5eb9cc76c3506942c1c0ead70e877dd5e4f00cb0",
      "function": "buy(address)",
      "arguments": [
        "0xC77f7fed3b5Cc8249aDc428c5F44C9063B9734b4"
      ],
      "transaction": {
        "from": "0xc77f7fed3b5cc8249adc428c5f44c9063b9734b4",
        "to": "0x5eb9cc76c3506942c1c0ead70e877dd5e4f00cb0",
        "gas": "0x1b30c",
        "value": "0xde0b6b3a7640000",
        "input": "0xf088d547000000000000000000000000c77f7fed3b5cc8249adc428c5f44c9063b9734b4",
        "nonce": "0x436",
        "chainId": "0xaa36a7"
      },
      "additionalContracts": [],
      "isFixedGasLimit": false
    }
  ],
  "receipts": [
    {
      "status": "0x1",
      "cumulativeGasUsed": "0xf89e61",
      "logs": [
        {
          "address": "0x5eb9cc76c3506942c1c0ead70e877dd5e4f00cb0",
          "topics": [
            "0xddf252ad1be2c89b69c2b068fc378daa952ba7f163c4a11628f55a4df523b3ef",
            "0x0000000000000000000000000000000000000000000000000000000000000000",
            "0x000000000000000000000000c77f7fed3b5cc8249adc428c5f44c9063b9734b4"
          ],
          "data": "0x00000000000000000000000000000000000000000000003574e3bde1e8ec4c23",
          "blockHash": "0x11aa764bba6ede5a9e3adddd207b50d446853ce9a3dc3e17427ce4eaedc63615",
          "blockNumber": "0x72504f",
          "transactionHash": "0xf843ea09fb1db8cdae3beb55fa46e3172bc291e48110c9d83aaba2fd55d153de",
          "transactionIndex": "0x8e",
          "logIndex": "0xbe",
          "removed": false
        },
        {
          "address": "0x5eb9cc76c3506942c1c0ead70e877dd5e4f00cb0",
          "topics": [
            "0xddf252ad1be2c89b69c2b068fc378daa952ba7f163c4a11628f55a4df523b3ef",
            "0x0000000000000000000000000000000000000000000000000000000000000000",
            "0x000000000000000000000000c77f7fed3b5cc8249adc428c5f44c9063b9734b4"
          ],
          "data": "0x0000000000000000000000000000000000000000000000002982c8987b6e1379",
          "blockHash": "0x11aa764bba6ede5a9e3adddd207b50d446853ce9a3dc3e17427ce4eaedc63615",
          "blockNumber": "0x72504f",
          "transactionHash": "0xf843ea09fb1db8cdae3beb55fa46e3172bc291e48110c9d83aaba2fd55d153de",
          "transactionIndex": "0x8e",
          "logIndex": "0xbf",
          "removed": false
        },
        {
          "address": "0x5eb9cc76c3506942c1c0ead70e877dd5e4f00cb0",
          "topics": [
            "0x4afcb4a87cdbd9974efdb92ee48bc8d7cd0ae4bf217004db3d080cbaee652ca7"
          ],
          "data": "0x000000000000000000000000000000000000000000000000000000006786b58000000000000000000000000000000000000000000000000000039117752dee340000000000000000000000000000000000000000000000000de0b6b3a7640000",
          "blockHash": "0x11aa764bba6ede5a9e3adddd207b50d446853ce9a3dc3e17427ce4eaedc63615",
          "blockNumber": "0x72504f",
          "transactionHash": "0xf843ea09fb1db8cdae3beb55fa46e3172bc291e48110c9d83aaba2fd55d153de",
          "transactionIndex": "0x8e",
          "logIndex": "0xc0",
          "removed": false
        }
      ],
      "logsBloom": "0x00000000000000000000000000000000000000000000000000000000000000000000000000000000000000000000000000000000000000004000000000000000000000000000000000000008000000000000000000000000000000000000000000000000020000000000000004000800020000000000000000000010000000000000000000000000000000000000000000000000000000000000010000000000000000000000000000000000000000004000000000000000000000000000020000000002000000800000008000000000000000000000080000000000000020000000000000000000000000000000000000000000000000000000000000000000",
      "type": "0x2",
      "transactionHash": "0xf843ea09fb1db8cdae3beb55fa46e3172bc291e48110c9d83aaba2fd55d153de",
      "transactionIndex": "0x8e",
      "blockHash": "0x11aa764bba6ede5a9e3adddd207b50d446853ce9a3dc3e17427ce4eaedc63615",
      "blockNumber": "0x72504f",
      "gasUsed": "0x13af8",
      "effectiveGasPrice": "0x272a763de",
      "from": "0xc77f7fed3b5cc8249adc428c5f44c9063b9734b4",
      "to": "0x5eb9cc76c3506942c1c0ead70e877dd5e4f00cb0",
      "contractAddress": null
    }
  ],
  "libraries": [],
  "pending": [],
  "returns": {},
  "timestamp": 1736881538,
  "chain": 11155111,
  "commit": "51a374b"
}