{
  "transactions": [
    {
      "hash": "0xc3d2305a52fe4979b72cfd642ee252cc0dc2231caec01c50c83bf5b7a35d3ddb",
      "transactionType": "CALL",
      "contractName": null,
      "contractAddress": "0xbf4a322f1496e5c3d34a9bcdb4c60567b38c7de2",
      "function": "sell(uint256)",
      "arguments": [
        "983326892848644137829"
      ],
      "transaction": {
        "from": "0xc77f7fed3b5cc8249adc428c5f44c9063b9734b4",
        "to": "0xbf4a322f1496e5c3d34a9bcdb4c60567b38c7de2",
        "gas": "0x16fea",
        "value": "0x0",
        "input": "0xe4849b320000000000000000000000000000000000000000000000354e66e7281c08a365",
        "nonce": "0xb21",
        "chainId": "0xaa36a7"
      },
      "additionalContracts": [],
      "isFixedGasLimit": false
    }
  ],
  "receipts": [
    {
      "status": "0x1",
      "cumulativeGasUsed": "0xd9ecb8",
      "logs": [
        {
          "address": "0xbf4a322f1496e5c3d34a9bcdb4c60567b38c7de2",
          "topics": [
            "0xddf252ad1be2c89b69c2b068fc378daa952ba7f163c4a11628f55a4df523b3ef",
            "0x000000000000000000000000c77f7fed3b5cc8249adc428c5f44c9063b9734b4",
            "0x0000000000000000000000000000000000000000000000000000000000000000"
          ],
          "data": "0x0000000000000000000000000000000000000000000000354e66e7281c08a365",
          "blockHash": "0x11a61e9cf1001381c1ed29baffcd9d57238f1b558a9896674eac043f28033e03",
          "blockNumber": "0x725b1c",
          "transactionHash": "0xc3d2305a52fe4979b72cfd642ee252cc0dc2231caec01c50c83bf5b7a35d3ddb",
          "transactionIndex": "0x62",
          "logIndex": "0x84",
          "removed": false
        },
        {
          "address": "0xbf4a322f1496e5c3d34a9bcdb4c60567b38c7de2",
          "topics": [
            "0x4afcb4a87cdbd9974efdb92ee48bc8d7cd0ae4bf217004db3d080cbaee652ca7"
          ],
          "data": "0x00000000000000000000000000000000000000000000000000000000678737ac0000000000000000000000000000000000000000000000000003967833e698c10000000000000000000000000000000000000000000000000dc7e3e9cd298441",
          "blockHash": "0x11a61e9cf1001381c1ed29baffcd9d57238f1b558a9896674eac043f28033e03",
          "blockNumber": "0x725b1c",
          "transactionHash": "0xc3d2305a52fe4979b72cfd642ee252cc0dc2231caec01c50c83bf5b7a35d3ddb",
          "transactionIndex": "0x62",
          "logIndex": "0x85",
          "removed": false
        }
      ],
      "logsBloom": "0x00000000000000000000000000000000000000000000000000000000000000000000000000000000000000000000000000000000000000004000000000000000000000000000000000000008000000000000001000000000000000000000000000000000020000000000000000000800020000000000000000000010000000000000000000000000000000000000000000000000000008000000010000000000000000000000000000000000000000004000000000000000000000000000000000000002000000800000000000001000000000000000080000000000000020000000000000000000000000000000000000000000000000000000000000000000",
      "type": "0x2",
      "transactionHash": "0xc3d2305a52fe4979b72cfd642ee252cc0dc2231caec01c50c83bf5b7a35d3ddb",
      "transactionIndex": "0x62",
      "blockHash": "0x11a61e9cf1001381c1ed29baffcd9d57238f1b558a9896674eac043f28033e03",
      "blockNumber": "0x725b1c",
      "gasUsed": "0xfb91",
      "effectiveGasPrice": "0x7497144b",
      "from": "0xc77f7fed3b5cc8249adc428c5f44c9063b9734b4",
      "to": "0xbf4a322f1496e5c3d34a9bcdb4c60567b38c7de2",
      "contractAddress": null
    }
  ],
  "libraries": [],
  "pending": [],
  "returns": {},
  "timestamp": 1736914862,
  "chain": 11155111,
  "commit": "51a374b"
}