{
  "transactions": [
    {
      "hash": "0x037f5eca094c6d80d67448f85adeb03b738453609f89870d66a1235d235cc014",
      "transactionType": "CALL",
      "contractName": null,
      "contractAddress": "0x270e88f8683660553e8ba4eb2ad7c91a1710d769",
      "function": "sell(uint256)",
      "arguments": [
        "960859001222511543095"
      ],
      "transaction": {
        "from": "0xc77f7fed3b5cc8249adc428c5f44c9063b9734b4",
        "to": "0x270e88f8683660553e8ba4eb2ad7c91a1710d769",
        "gas": "0x16fec",
        "value": "0x0",
        "input": "0xe4849b320000000000000000000000000000000000000000000000341698eac3406d4337",
        "nonce": "0x5a5",
        "chainId": "0xaa36a7"
      },
      "additionalContracts": [],
      "isFixedGasLimit": false
    }
  ],
  "receipts": [
    {
      "status": "0x1",
      "cumulativeGasUsed": "0x92fcee",
      "logs": [
        {
          "address": "0x270e88f8683660553e8ba4eb2ad7c91a1710d769",
          "topics": [
            "0xddf252ad1be2c89b69c2b068fc378daa952ba7f163c4a11628f55a4df523b3ef",
            "0x000000000000000000000000c77f7fed3b5cc8249adc428c5f44c9063b9734b4",
            "0x0000000000000000000000000000000000000000000000000000000000000000"
          ],
          "data": "0x0000000000000000000000000000000000000000000000341698eac3406d4337",
          "blockHash": "0x6f3b3f576428bd85cd2395124bb83295910ea3efac2ef14ad2a610eb98fa0585",
          "blockNumber": "0x72525e",
          "transactionHash": "0x037f5eca094c6d80d67448f85adeb03b738453609f89870d66a1235d235cc014",
          "transactionIndex": "0x50",
          "logIndex": "0x7e",
          "removed": false
        },
        {
          "address": "0x270e88f8683660553e8ba4eb2ad7c91a1710d769",
          "topics": [
            "0x4afcb4a87cdbd9974efdb92ee48bc8d7cd0ae4bf217004db3d080cbaee652ca7"
          ],
          "data": "0x000000000000000000000000000000000000000000000000000000006786ce580000000000000000000000000000000000000000000000000003ac368453fae30000000000000000000000000000000000000000000000000dc83f464b087616",
          "blockHash": "0x6f3b3f576428bd85cd2395124bb83295910ea3efac2ef14ad2a610eb98fa0585",
          "blockNumber": "0x72525e",
          "transactionHash": "0x037f5eca094c6d80d67448f85adeb03b738453609f89870d66a1235d235cc014",
          "transactionIndex": "0x50",
          "logIndex": "0x7f",
          "removed": false
        }
      ],
      "logsBloom": "0x00000000000000000000000000000000000000000000000000000000000000000000000000000000000000000000000020000000000000004000000000000000000000000000000000000008000000000000000000000000000000000000000000000000020000000000000000000800020000000000000000000010000000000000000000010000000000000000000000000000000000000000010000000000000000000000000000000000000000004000000000000000000000000000000000000002000000800000000000000000000000000000080000008000000020000000000000000000000000000000000000000000000000000000000000000000",
      "type": "0x2",
      "transactionHash": "0x037f5eca094c6d80d67448f85adeb03b738453609f89870d66a1235d235cc014",
      "transactionIndex": "0x50",
      "blockHash": "0x6f3b3f576428bd85cd2395124bb83295910ea3efac2ef14ad2a610eb98fa0585",
      "blockNumber": "0x72525e",
      "gasUsed": "0xfb93",
      "effectiveGasPrice": "0x589d069dc",
      "from": "0xc77f7fed3b5cc8249adc428c5f44c9063b9734b4",
      "to": "0x270e88f8683660553e8ba4eb2ad7c91a1710d769",
      "contractAddress": null
    }
  ],
  "libraries": [],
  "pending": [],
  "returns": {},
  "timestamp": 1736887898,
  "chain": 11155111,
  "commit": "51a374b"
}