{
  "transactions": [
    {
      "hash": "0x0c222c6d14b7d1f707ef8eecd287f40557cdb0beb67f326b25bcfabe89fc3697",
      "transactionType": "CALL",
      "contractName": null,
      "contractAddress": "0x270e88f8683660553e8ba4eb2ad7c91a1710d769",
      "function": "sell(uint256)",
      "arguments": [
        "750558557341018180742"
      ],
      "transaction": {
        "from": "0xc77f7fed3b5cc8249adc428c5f44c9063b9734b4",
        "to": "0x270e88f8683660553e8ba4eb2ad7c91a1710d769",
        "gas": "0x16fec",
        "value": "0x0",
        "input": "0xe4849b32000000000000000000000000000000000000000000000028b017a745a10b4c86",
        "nonce": "0x6c6",
        "chainId": "0xaa36a7"
      },
      "additionalContracts": [],
      "isFixedGasLimit": false
    }
  ],
  "receipts": [
    {
      "status": "0x1",
      "cumulativeGasUsed": "0x1072de8",
      "logs": [
        {
          "address": "0x270e88f8683660553e8ba4eb2ad7c91a1710d769",
          "topics": [
            "0xddf252ad1be2c89b69c2b068fc378daa952ba7f163c4a11628f55a4df523b3ef",
            "0x000000000000000000000000c77f7fed3b5cc8249adc428c5f44c9063b9734b4",
            "0x0000000000000000000000000000000000000000000000000000000000000000"
          ],
          "data": "0x000000000000000000000000000000000000000000000028b017a745a10b4c86",
          "blockHash": "0x24e5d9fb397b5de78d883029854c8a1ade19595ed5c640cc0f2ab4e92b6c8912",
          "blockNumber": "0x7253d4",
          "transactionHash": "0x0c222c6d14b7d1f707ef8eecd287f40557cdb0beb67f326b25bcfabe89fc3697",
          "transactionIndex": "0x5d",
          "logIndex": "0x91",
          "removed": false
        },
        {
          "address": "0x270e88f8683660553e8ba4eb2ad7c91a1710d769",
          "topics": [
            "0x4afcb4a87cdbd9974efdb92ee48bc8d7cd0ae4bf217004db3d080cbaee652ca7"
          ],
          "data": "0x000000000000000000000000000000000000000000000000000000006786dff80000000000000000000000000000000000000000000000000004b392482dfcb80000000000000000000000000000000000000000000000000dc82997aaf34d56",
          "blockHash": "0x24e5d9fb397b5de78d883029854c8a1ade19595ed5c640cc0f2ab4e92b6c8912",
          "blockNumber": "0x7253d4",
          "transactionHash": "0x0c222c6d14b7d1f707ef8eecd287f40557cdb0beb67f326b25bcfabe89fc3697",
          "transactionIndex": "0x5d",
          "logIndex": "0x92",
          "removed": false
        }
      ],
      "logsBloom": "0x00000000000000000000000000000000000000000000000000000000000000000000000000000000000000000000000020000000000000004000000000000000000000000000000000000008000000000000000000000000000000000000000000000000020000000000000000000800020000000000000000000010000000000000000000010000000000000000000000000000000000000000010000000000000000000000000000000000000000004000000000000000000000000000000000000002000000800000000000000000000000000000080000008000000020000000000000000000000000000000000000000000000000000000000000000000",
      "type": "0x2",
      "transactionHash": "0x0c222c6d14b7d1f707ef8eecd287f40557cdb0beb67f326b25bcfabe89fc3697",
      "transactionIndex": "0x5d",
      "blockHash": "0x24e5d9fb397b5de78d883029854c8a1ade19595ed5c640cc0f2ab4e92b6c8912",
      "blockNumber": "0x7253d4",
      "gasUsed": "0xfb93",
      "effectiveGasPrice": "0x176ffd0cf",
      "from": "0xc77f7fed3b5cc8249adc428c5f44c9063b9734b4",
      "to": "0x270e88f8683660553e8ba4eb2ad7c91a1710d769",
      "contractAddress": null
    }
  ],
  "libraries": [],
  "pending": [],
  "returns": {},
  "timestamp": 1736892410,
  "chain": 11155111,
  "commit": "51a374b"
}