{
  "transactions": [
    {
      "hash": "0x4d02b362f7111e73a8723f8e20d7deafa4790dab06f2c14f3a818315f9e0c4ec",
      "transactionType": "CALL",
      "contractName": null,
      "contractAddress": "0xbf4a322f1496e5c3d34a9bcdb4c60567b38c7de2",
      "function": "sell(uint256)",
      "arguments": [
        "974511866566719127614"
      ],
      "transaction": {
        "from": "0xc77f7fed3b5cc8249adc428c5f44c9063b9734b4",
        "to": "0xbf4a322f1496e5c3d34a9bcdb4c60567b38c7de2",
        "gas": "0x16fea",
        "value": "0x0",
        "input": "0xe4849b32000000000000000000000000000000000000000000000034d411a3751029403e",
        "nonce": "0xdb3",
        "chainId": "0xaa36a7"
      },
      "additionalContracts": [],
      "isFixedGasLimit": false
    }
  ],
  "receipts": [
    {
      "status": "0x1",
      "cumulativeGasUsed": "0x1604124",
      "logs": [
        {
          "address": "0xbf4a322f1496e5c3d34a9bcdb4c60567b38c7de2",
          "topics": [
            "0xddf252ad1be2c89b69c2b068fc378daa952ba7f163c4a11628f55a4df523b3ef",
            "0x000000000000000000000000c77f7fed3b5cc8249adc428c5f44c9063b9734b4",
            "0x0000000000000000000000000000000000000000000000000000000000000000"
          ],
          "data": "0x000000000000000000000000000000000000000000000034d411a3751029403e",
          "blockHash": "0x3cc166098d3a962561325266ab888b2672e33a8d97aa2aa9cd85f3a855618e4f",
          "blockNumber": "0x72668b",
          "transactionHash": "0x4d02b362f7111e73a8723f8e20d7deafa4790dab06f2c14f3a818315f9e0c4ec",
          "transactionIndex": "0x87",
          "logIndex": "0xee",
          "removed": false
        },
        {
          "address": "0xbf4a322f1496e5c3d34a9bcdb4c60567b38c7de2",
          "topics": [
            "0x4afcb4a87cdbd9974efdb92ee48bc8d7cd0ae4bf217004db3d080cbaee652ca7"
          ],
          "data": "0x000000000000000000000000000000000000000000000000000000006787c16400000000000000000000000000000000000000000000000000039ec703fb89320000000000000000000000000000000000000000000000000dc7e3d54e5ee18f",
          "blockHash": "0x3cc166098d3a962561325266ab888b2672e33a8d97aa2aa9cd85f3a855618e4f",
          "blockNumber": "0x72668b",
          "transactionHash": "0x4d02b362f7111e73a8723f8e20d7deafa4790dab06f2c14f3a818315f9e0c4ec",
          "transactionIndex": "0x87",
          "logIndex": "0xef",
          "removed": false
        }
      ],
      "logsBloom": "0x00000000000000000000000000000000000000000000000000000000000000000000000000000000000000000000000000000000000000004000000000000000000000000000000000000008000000000000001000000000000000000000000000000000020000000000000000000800020000000000000000000010000000000000000000000000000000000000000000000000000008000000010000000000000000000000000000000000000000004000000000000000000000000000000000000002000000800000000000001000000000000000080000000000000020000000000000000000000000000000000000000000000000000000000000000000",
      "type": "0x2",
      "transactionHash": "0x4d02b362f7111e73a8723f8e20d7deafa4790dab06f2c14f3a818315f9e0c4ec",
      "transactionIndex": "0x87",
      "blockHash": "0x3cc166098d3a962561325266ab888b2672e33a8d97aa2aa9cd85f3a855618e4f",
      "blockNumber": "0x72668b",
      "gasUsed": "0xfb91",
      "effectiveGasPrice": "0x86dd503a",
      "from": "0xc77f7fed3b5cc8249adc428c5f44c9063b9734b4",
      "to": "0xbf4a322f1496e5c3d34a9bcdb4c60567b38c7de2",
      "contractAddress": null
    }
  ],
  "libraries": [],
  "pending": [],
  "returns": {},
  "timestamp": 1736950117,
  "chain": 11155111,
  "commit": "51a374b"
}