{
  "transactions": [
    {
      "hash": "0xa8dd5068913da0d97d49ebfc0e951dda698bb40a9371028c5ef2fbbcca40188a",
      "transactionType": "CALL",
      "contractName": null,
      "contractAddress": "0x270e88f8683660553e8ba4eb2ad7c91a1710d769",
      "function": "buy(address)",
      "arguments": [
        "0xC77f7fed3b5Cc8249aDc428c5F44C9063B9734b4"
      ],
      "transaction": {
        "from": "0xc77f7fed3b5cc8249adc428c5f44c9063b9734b4",
        "to": "0x270e88f8683660553e8ba4eb2ad7c91a1710d769",
        "gas": "0x1b30c",
        "value": "0xde0b6b3a7640000",
        "input": "0xf088d547000000000000000000000000c77f7fed3b5cc8249adc428c5f44c9063b9734b4",
        "nonce": "0x78f",
        "chainId": "0xaa36a7"
      },
      "additionalContracts": [],
      "isFixedGasLimit": false
    }
  ],
  "receipts": [
    {
      "status": "0x1",
      "cumulativeGasUsed": "0x7e1c10",
      "logs": [
        {
          "address": "0x270e88f8683660553e8ba4eb2ad7c91a1710d769",
          "topics": [
            "0xddf252ad1be2c89b69c2b068fc378daa952ba7f163c4a11628f55a4df523b3ef",
            "0x0000000000000000000000000000000000000000000000000000000000000000",
            "0x000000000000000000000000c77f7fed3b5cc8249adc428c5f44c9063b9734b4"
          ],
          "data": "0x0000000000000000000000000000000000000000000000279761914bbf340a80",
          "blockHash": "0xedc086af50ee754f80cb3f2d98ca46188ad6efd214c677cdac5313c608affd58",
          "blockNumber": "0x7254c0",
          "transactionHash": "0xa8dd5068913da0d97d49ebfc0e951dda698bb40a9371028c5ef2fbbcca40188a",
          "transactionIndex": "0x33",
          "logIndex": "0x80",
          "removed": false
        },
        {
          "address": "0x270e88f8683660553e8ba4eb2ad7c91a1710d769",
          "topics": [
            "0xddf252ad1be2c89b69c2b068fc378daa952ba7f163c4a11628f55a4df523b3ef",
            "0x0000000000000000000000000000000000000000000000000000000000000000",
            "0x000000000000000000000000c77f7fed3b5cc8249adc428c5f44c9063b9734b4"
          ],
          "data": "0x0000000000000000000000000000000000000000000000001ebe781ac9880f20",
          "blockHash": "0xedc086af50ee754f80cb3f2d98ca46188ad6efd214c677cdac5313c608affd58",
          "blockNumber": "0x7254c0",
          "transactionHash": "0xa8dd5068913da0d97d49ebfc0e951dda698bb40a9371028c5ef2fbbcca40188a",
          "transactionIndex": "0x33",
          "logIndex": "0x81",
          "removed": false
        },
        {
          "address": "0x270e88f8683660553e8ba4eb2ad7c91a1710d769",
          "topics": [
            "0x4afcb4a87cdbd9974efdb92ee48bc8d7cd0ae4bf217004db3d080cbaee652ca7"
          ],
          "data": "0x000000000000000000000000000000000000000000000000000000006786eb080000000000000000000000000000000000000000000000000004d0f8444635fe0000000000000000000000000000000000000000000000000de0b6b3a7640000",
          "blockHash": "0xedc086af50ee754f80cb3f2d98ca46188ad6efd214c677cdac5313c608affd58",
          "blockNumber": "0x7254c0",
          "transactionHash": "0xa8dd5068913da0d97d49ebfc0e951dda698bb40a9371028c5ef2fbbcca40188a",
          "transactionIndex": "0x33",
          "logIndex": "0x82",
          "removed": false
        }
      ],
      "logsBloom": "0x00000000000000000000000000000000000000000000000000000000000000000000000000000000000000000000000020000000000000004000000000000000000000000000000000000008000000000000000000000000000000000000000000000000020000000000000000000800020000000000000000000010000000000000000000010000000000000000000000000000000000000000010000000000000000000000000000000000000000004000000000000000000000000000000000000002000000800000000000000000000000000000080000008000000020000000000000000000000000000000000000000000000000000000000000000000",
      "type": "0x2",
      "transactionHash": "0xa8dd5068913da0d97d49ebfc0e951dda698bb40a9371028c5ef2fbbcca40188a",
      "transactionIndex": "0x33",
      "blockHash": "0xedc086af50ee754f80cb3f2d98ca46188ad6efd214c677cdac5313c608affd58",
      "blockNumber": "0x7254c0",
      "gasUsed": "0x13af8",
      "effectiveGasPrice": "0xf4756169",
      "from": "0xc77f7fed3b5cc8249adc428c5f44c9063b9734b4",
      "to": "0x270e88f8683660553e8ba4eb2ad7c91a1710d769",
      "contractAddress": null
    }
  ],
  "libraries": [],
  "pending": [],
  "returns": {},
  "timestamp": 1736895241,
  "chain": 11155111,
  "commit": "51a374b"
}