{
  "transactions": [
    {
      "hash": "0x1d04a23538d22e2f536deee7d0e94cd363c7d7ccde28d95f98d59104d04fece2",
      "transactionType": "CALL",
      "contractName": null,
      "contractAddress": "0xae9054dfd2cecc1383f5ef353bca2ea371625db7",
      "function": "buy(address)",
      "arguments": [
        "0xC77f7fed3b5Cc8249aDc428c5F44C9063B9734b4"
      ],
      "transaction": {
        "from": "0xc77f7fed3b5cc8249adc428c5f44c9063b9734b4",
        "to": "0xae9054dfd2cecc1383f5ef353bca2ea371625db7",
        "gas": "0x16e87",
        "value": "0x16345785d8a0000",
        "input": "0xf088d547000000000000000000000000c77f7fed3b5cc8249adc428c5f44c9063b9734b4",
        "nonce": "0x2d",
        "chainId": "0xaa36a7"
      },
      "additionalContracts": [],
      "isFixedGasLimit": false
    }
  ],
  "receipts": [
    {
      "status": "0x1",
      "cumulativeGasUsed": "0xf2f4a1",
      "logs": [
        {
          "address": "0xae9054dfd2cecc1383f5ef353bca2ea371625db7",
          "topics": [
            "0xddf252ad1be2c89b69c2b068fc378daa952ba7f163c4a11628f55a4df523b3ef",
            "0x0000000000000000000000000000000000000000000000000000000000000000",
            "0x000000000000000000000000c77f7fed3b5cc8249adc428c5f44c9063b9734b4"
          ],
          "data": "0x0000000000000000000000000000000000000000000000055cf82578040e73b8",
          "blockHash": "0x59a4855a60c3b9f2d85ee6be35c473607fbdafa889c7f70998cad4a92046ffea",
          "blockNumber": "0x7051eb",
          "transactionHash": "0x1d04a23538d22e2f536deee7d0e94cd363c7d7ccde28d95f98d59104d04fece2",
          "transactionIndex": "0x8c",
          "logIndex": "0x8e",
          "removed": false
        },
        {
          "address": "0xae9054dfd2cecc1383f5ef353bca2ea371625db7",
          "topics": [
            "0xddf252ad1be2c89b69c2b068fc378daa952ba7f163c4a11628f55a4df523b3ef",
            "0x0000000000000000000000000000000000000000000000000000000000000000",
            "0x000000000000000000000000c77f7fed3b5cc8249adc428c5f44c9063b9734b4"
          ],
          "data": "0x000000000000000000000000000000000000000000000000042a2852955ef1ae",
          "blockHash": "0x59a4855a60c3b9f2d85ee6be35c473607fbdafa889c7f70998cad4a92046ffea",
          "blockNumber": "0x7051eb",
          "transactionHash": "0x1d04a23538d22e2f536deee7d0e94cd363c7d7ccde28d95f98d59104d04fece2",
          "transactionIndex": "0x8c",
          "logIndex": "0x8f",
          "removed": false
        },
        {
          "address": "0xae9054dfd2cecc1383f5ef353bca2ea371625db7",
          "topics": [
            "0x4afcb4a87cdbd9974efdb92ee48bc8d7cd0ae4bf217004db3d080cbaee652ca7"
          ],
          "data": "0x00000000000000000000000000000000000000000000000000000000676dc868000000000000000000000000000000000000000000000000000000003bae0d4000000000000000000000000000000000000000000000000010a741a462780000",
          "blockHash": "0x59a4855a60c3b9f2d85ee6be35c473607fbdafa889c7f70998cad4a92046ffea",
          "blockNumber": "0x7051eb",
          "transactionHash": "0x1d04a23538d22e2f536deee7d0e94cd363c7d7ccde28d95f98d59104d04fece2",
          "transactionIndex": "0x8c",
          "logIndex": "0x90",
          "removed": false
        }
      ],
      "logsBloom": "0x00000000000000000000000000000000000000000000000000000000000000000000000000000000000000000000000000000000000000004000000000000000000000008000000000000008000000000000000000000000000000000000000000004000020000000000000000000800020000000000000000000012000000000000000000000000000000000000000000000000000000000000010000000000000000000000000000000000000000004000000000000000000000000000000000000002000000800000000000000000000000000000080000000000000020000000000000000000000000000000000000000000000000000000000000000000",
      "type": "0x2",
      "transactionHash": "0x1d04a23538d22e2f536deee7d0e94cd363c7d7ccde28d95f98d59104d04fece2",
      "transactionIndex": "0x8c",
      "blockHash": "0x59a4855a60c3b9f2d85ee6be35c473607fbdafa889c7f70998cad4a92046ffea",
      "blockNumber": "0x7051eb",
      "gasUsed": "0x1095d",
      "effectiveGasPrice": "0x3b154a19",
      "from": "0xc77f7fed3b5cc8249adc428c5f44c9063b9734b4",
      "to": "0xae9054dfd2cecc1383f5ef353bca2ea371625db7",
      "contractAddress": null
    }
  ],
  "libraries": [],
  "pending": [],
  "returns": {},
  "timestamp": 1735247977,
  "chain": 11155111,
  "commit": "757761f"
}