{
  "transactions": [
    {
      "hash": "0x1989c8cbc8d6ec0c01cce4ee3f87e12e751f3c73386aec2a0a470120932e4dcb",
      "transactionType": "CALL",
      "contractName": null,
      "contractAddress": "0x270e88f8683660553e8ba4eb2ad7c91a1710d769",
      "function": "sell(uint256)",
      "arguments": [
        "733243444713947986842"
      ],
      "transaction": {
        "from": "0xc77f7fed3b5cc8249adc428c5f44c9063b9734b4",
        "to": "0x270e88f8683660553e8ba4eb2ad7c91a1710d769",
        "gas": "0x16fec",
        "value": "0x0",
        "input": "0xe4849b32000000000000000000000000000000000000000000000027bfcc0413baa4fb9a",
        "nonce": "0x788",
        "chainId": "0xaa36a7"
      },
      "additionalContracts": [],
      "isFixedGasLimit": false
    }
  ],
  "receipts": [
    {
      "status": "0x1",
      "cumulativeGasUsed": "0x5690a7",
      "logs": [
        {
          "address": "0x270e88f8683660553e8ba4eb2ad7c91a1710d769",
          "topics": [
            "0xddf252ad1be2c89b69c2b068fc378daa952ba7f163c4a11628f55a4df523b3ef",
            "0x000000000000000000000000c77f7fed3b5cc8249adc428c5f44c9063b9734b4",
            "0x0000000000000000000000000000000000000000000000000000000000000000"
          ],
          "data": "0x000000000000000000000000000000000000000000000027bfcc0413baa4fb9a",
          "blockHash": "0x08c882b8beedff2820f2cc67bcb6f53e1f782a47d633a39300e573e9524623e2",
          "blockNumber": "0x7254b8",
          "transactionHash": "0x1989c8cbc8d6ec0c01cce4ee3f87e12e751f3c73386aec2a0a470120932e4dcb",
          "transactionIndex": "0x51",
          "logIndex": "0x82",
          "removed": false
        },
        {
          "address": "0x270e88f8683660553e8ba4eb2ad7c91a1710d769",
          "topics": [
            "0x4afcb4a87cdbd9974efdb92ee48bc8d7cd0ae4bf217004db3d080cbaee652ca7"
          ],
          "data": "0x000000000000000000000000000000000000000000000000000000006786eaa80000000000000000000000000000000000000000000000000004cffc74cbf1c80000000000000000000000000000000000000000000000000dc827ccf18e7949",
          "blockHash": "0x08c882b8beedff2820f2cc67bcb6f53e1f782a47d633a39300e573e9524623e2",
          "blockNumber": "0x7254b8",
          "transactionHash": "0x1989c8cbc8d6ec0c01cce4ee3f87e12e751f3c73386aec2a0a470120932e4dcb",
          "transactionIndex": "0x51",
          "logIndex": "0x83",
          "removed": false
        }
      ],
      "logsBloom": "0x00000000000000000000000000000000000000000000000000000000000000000000000000000000000000000000000020000000000000004000000000000000000000000000000000000008000000000000000000000000000000000000000000000000020000000000000000000800020000000000000000000010000000000000000000010000000000000000000000000000000000000000010000000000000000000000000000000000000000004000000000000000000000000000000000000002000000800000000000000000000000000000080000008000000020000000000000000000000000000000000000000000000000000000000000000000",
      "type": "0x2",
      "transactionHash": "0x1989c8cbc8d6ec0c01cce4ee3f87e12e751f3c73386aec2a0a470120932e4dcb",
      "transactionIndex": "0x51",
      "blockHash": "0x08c882b8beedff2820f2cc67bcb6f53e1f782a47d633a39300e573e9524623e2",
      "blockNumber": "0x7254b8",
      "gasUsed": "0xfb93",
      "effectiveGasPrice": "0x1046265ed",
      "from": "0xc77f7fed3b5cc8249adc428c5f44c9063b9734b4",
      "to": "0x270e88f8683660553e8ba4eb2ad7c91a1710d769",
      "contractAddress": null
    }
  ],
  "libraries": [],
  "pending": [],
  "returns": {},
  "timestamp": 1736895144,
  "chain": 11155111,
  "commit": "51a374b"
}