{
  "transactions": [
    {
      "hash": "0x354801fac780bc66566d7638bd98f0818fbe5a103e5a6abe645d25d1a3154041",
      "transactionType": "CALL",
      "contractName": null,
      "contractAddress": "0x8aafd3ede9adb0ff97c7aebce82a919afb1c8764",
      "function": "sell(uint256)",
      "arguments": [
        "157287216399880362635"
      ],
      "transaction": {
        "from": "0xc77f7fed3b5cc8249adc428c5f44c9063b9734b4",
        "to": "0x8aafd3ede9adb0ff97c7aebce82a919afb1c8764",
        "gas": "0x17270",
        "value": "0x0",
        "input": "0xe4849b3200000000000000000000000000000000000000000000000886cc71f8e8dd1a8b",
        "nonce": "0x16d3",
        "chainId": "0xaa36a7"
      },
      "additionalContracts": [],
      "isFixedGasLimit": false
    }
  ],
  "receipts": [
    {
      "status": "0x1",
      "cumulativeGasUsed": "0xb2b11f",
      "logs": [
        {
          "address": "0x8aafd3ede9adb0ff97c7aebce82a919afb1c8764",
          "topics": [
            "0xddf252ad1be2c89b69c2b068fc378daa952ba7f163c4a11628f55a4df523b3ef",
            "0x000000000000000000000000c77f7fed3b5cc8249adc428c5f44c9063b9734b4",
            "0x0000000000000000000000000000000000000000000000000000000000000000"
          ],
          "data": "0x000000000000000000000000000000000000000000000008755612da3f109536",
          "blockHash": "0xdea7fc516d3c31133c2d8339a847d0a9c4bc048e8b86f5982248970b980fd671",
          "blockNumber": "0x731e8e",
          "transactionHash": "0x354801fac780bc66566d7638bd98f0818fbe5a103e5a6abe645d25d1a3154041",
          "transactionIndex": "0x5e",
          "logIndex": "0x8b",
          "removed": false
        },
        {
          "address": "0x8aafd3ede9adb0ff97c7aebce82a919afb1c8764",
          "topics": [
            "0xddf252ad1be2c89b69c2b068fc378daa952ba7f163c4a11628f55a4df523b3ef",
            "0x000000000000000000000000c77f7fed3b5cc8249adc428c5f44c9063b9734b4",
            "0x000000000000000000000000c77f7fed3b5cc8249adc428c5f44c9063b9734b4"
          ],
          "data": "0x00000000000000000000000000000000000000000000000011765f1ea9cc8555",
          "blockHash": "0xdea7fc516d3c31133c2d8339a847d0a9c4bc048e8b86f5982248970b980fd671",
          "blockNumber": "0x731e8e",
          "transactionHash": "0x354801fac780bc66566d7638bd98f0818fbe5a103e5a6abe645d25d1a3154041",
          "transactionIndex": "0x5e",
          "logIndex": "0x8c",
          "removed": false
        },
        {
          "address": "0x8aafd3ede9adb0ff97c7aebce82a919afb1c8764",
          "topics": [
            "0x4afcb4a87cdbd9974efdb92ee48bc8d7cd0ae4bf217004db3d080cbaee652ca7"
          ],
          "data": "0x0000000000000000000000000000000000000000000000000000000067906b90000000000000000000000000000000000000000000000000001688a9c0fab02c0000000000000000000000000000000000000000000000000dcc108e8086bbda",
          "blockHash": "0xdea7fc516d3c31133c2d8339a847d0a9c4bc048e8b86f5982248970b980fd671",
          "blockNumber": "0x731e8e",
          "transactionHash": "0x354801fac780bc66566d7638bd98f0818fbe5a103e5a6abe645d25d1a3154041",
          "transactionIndex": "0x5e",
          "logIndex": "0x8d",
          "removed": false
        }
      ],
      "logsBloom": "0x00000000000000000000000000000000000000000600000000000000000000000000000000000000000000000000000000000000000000004000000000000000000000000000004000000008000000000000000000000000000000000000000000000000020000000000000000000800020000000000000000000010000000000000000000000000000000000000000000000000000000000000010000000000000000000000000000000000000000004000000000000000000000000000000000000002000000800000000000000000000000000000080000000000000020000000000000000000000000000000000000000000000000000000000000000000",
      "type": "0x2",
      "transactionHash": "0x354801fac780bc66566d7638bd98f0818fbe5a103e5a6abe645d25d1a3154041",
      "transactionIndex": "0x5e",
      "blockHash": "0xdea7fc516d3c31133c2d8339a847d0a9c4bc048e8b86f5982248970b980fd671",
      "blockNumber": "0x731e8e",
      "gasUsed": "0xfd4b",
      "effectiveGasPrice": "0x484e4c4e",
      "from": "0xc77f7fed3b5cc8249adc428c5f44c9063b9734b4",
      "to": "0x8aafd3ede9adb0ff97c7aebce82a919afb1c8764",
      "contractAddress": null
    }
  ],
  "libraries": [],
  "pending": [],
  "returns": {},
  "timestamp": 1737517968,
  "chain": 11155111,
  "commit": "1d2fb70"
}