{
  "transactions": [
    {
      "hash": "0x1b1612a94e669526916ca044cc51a2a3f9a72ff928fd3a6e4b824904832445a5",
      "transactionType": "CALL",
      "contractName": null,
      "contractAddress": "0x8aafd3ede9adb0ff97c7aebce82a919afb1c8764",
      "function": "sell(uint256)",
      "arguments": [
        "1180749705128914170"
      ],
      "transaction": {
        "from": "0xc77f7fed3b5cc8249adc428c5f44c9063b9734b4",
        "to": "0x8aafd3ede9adb0ff97c7aebce82a919afb1c8764",
        "gas": "0x15dca",
        "value": "0x0",
        "input": "0xe4849b320000000000000000000000000000000000000000000000001062dd99d6db2cfa",
        "nonce": "0x1752",
        "chainId": "0xaa36a7"
      },
      "additionalContracts": [],
      "isFixedGasLimit": false
    }
  ],
  "receipts": [
    {
      "status": "0x1",
      "cumulativeGasUsed": "0x1f21eab",
      "logs": [
        {
          "address": "0x8aafd3ede9adb0ff97c7aebce82a919afb1c8764",
          "topics": [
            "0xddf252ad1be2c89b69c2b068fc378daa952ba7f163c4a11628f55a4df523b3ef",
            "0x000000000000000000000000c77f7fed3b5cc8249adc428c5f44c9063b9734b4",
            "0x0000000000000000000000000000000000000000000000000000000000000000"
          ],
          "data": "0x00000000000000000000000000000000000000000000000010414e8420e9ce69",
          "blockHash": "0x80d768865e6e59745121ea298b75ff80f5f079323a8dba9e97a5aa7c9b9c9a57",
          "blockNumber": "0x731f21",
          "transactionHash": "0x1b1612a94e669526916ca044cc51a2a3f9a72ff928fd3a6e4b824904832445a5",
          "transactionIndex": "0x49",
          "logIndex": "0x10e8",
          "removed": false
        },
        {
          "address": "0x8aafd3ede9adb0ff97c7aebce82a919afb1c8764",
          "topics": [
            "0xddf252ad1be2c89b69c2b068fc378daa952ba7f163c4a11628f55a4df523b3ef",
            "0x000000000000000000000000c77f7fed3b5cc8249adc428c5f44c9063b9734b4",
            "0x000000000000000000000000c77f7fed3b5cc8249adc428c5f44c9063b9734b4"
          ],
          "data": "0x00000000000000000000000000000000000000000000000000218f15b5f15e91",
          "blockHash": "0x80d768865e6e59745121ea298b75ff80f5f079323a8dba9e97a5aa7c9b9c9a57",
          "blockNumber": "0x731f21",
          "transactionHash": "0x1b1612a94e669526916ca044cc51a2a3f9a72ff928fd3a6e4b824904832445a5",
          "transactionIndex": "0x49",
          "logIndex": "0x10e9",
          "removed": false
        },
        {
          "address": "0x8aafd3ede9adb0ff97c7aebce82a919afb1c8764",
          "topics": [
            "0x4afcb4a87cdbd9974efdb92ee48bc8d7cd0ae4bf217004db3d080cbaee652ca7"
          ],
          "data": "0x0000000000000000000000000000000000000000000000000000000067907274000000000000000000000000000000000000000000000000001802020485bd07000000000000000000000000000000000000000000000000001c58b54d5d1923",
          "blockHash": "0x80d768865e6e59745121ea298b75ff80f5f079323a8dba9e97a5aa7c9b9c9a57",
          "blockNumber": "0x731f21",
          "transactionHash": "0x1b1612a94e669526916ca044cc51a2a3f9a72ff928fd3a6e4b824904832445a5",
          "transactionIndex": "0x49",
          "logIndex": "0x10ea",
          "removed": false
        }
      ],
      "logsBloom": "0x00000000000000000000000000000000000000000600000000000000000000000000000000000000000000000000000000000000000000004000000000000000000000000000004000000008000000000000000000000000000000000000000000000000020000000000000000000800020000000000000000000010000000000000000000000000000000000000000000000000000000000000010000000000000000000000000000000000000000004000000000000000000000000000000000000002000000800000000000000000000000000000080000000000000020000000000000000000000000000000000000000000000000000000000000000000",
      "type": "0x2",
      "transactionHash": "0x1b1612a94e669526916ca044cc51a2a3f9a72ff928fd3a6e4b824904832445a5",
      "transactionIndex": "0x49",
      "blockHash": "0x80d768865e6e59745121ea298b75ff80f5f079323a8dba9e97a5aa7c9b9c9a57",
      "blockNumber": "0x731f21",
      "gasUsed": "0xfd3f",
      "effectiveGasPrice": "0x4147710b",
      "from": "0xc77f7fed3b5cc8249adc428c5f44c9063b9734b4",
      "to": "0x8aafd3ede9adb0ff97c7aebce82a919afb1c8764",
      "contractAddress": null
    }
  ],
  "libraries": [],
  "pending": [],
  "returns": {},
  "timestamp": 1737519733,
  "chain": 11155111,
  "commit": "1d2fb70"
}