{
  "transactions": [
    {
      "hash": "0x0bca80d74845f1b33b5d88496bf8053413db2d5b33c7383388f95e383f8484b9",
      "transactionType": "CALL",
      "contractName": null,
      "contractAddress": "0xbf4a322f1496e5c3d34a9bcdb4c60567b38c7de2",
      "function": "buy(address)",
      "arguments": [
        "0xC77f7fed3b5Cc8249aDc428c5F44C9063B9734b4"
      ],
      "transaction": {
        "from": "0xc77f7fed3b5cc8249adc428c5f44c9063b9734b4",
        "to": "0xbf4a322f1496e5c3d34a9bcdb4c60567b38c7de2",
        "gas": "0x1b309",
        "value": "0xde0b6b3a7640000",
        "input": "0xf088d547000000000000000000000000c77f7fed3b5cc8249adc428c5f44c9063b9734b4",
        "nonce": "0xb1a",
        "chainId": "0xaa36a7"
      },
      "additionalContracts": [],
      "isFixedGasLimit": false
    }
  ],
  "receipts": [
    {
      "status": "0x1",
      "cumulativeGasUsed": "0xc88754",
      "logs": [
        {
          "address": "0xbf4a322f1496e5c3d34a9bcdb4c60567b38c7de2",
          "topics": [
            "0xddf252ad1be2c89b69c2b068fc378daa952ba7f163c4a11628f55a4df523b3ef",
            "0x0000000000000000000000000000000000000000000000000000000000000000",
            "0x000000000000000000000000c77f7fed3b5cc8249adc428c5f44c9063b9734b4"
          ],
          "data": "0x00000000000000000000000000000000000000000000003526415b098d1d59a6",
          "blockHash": "0x84e533cbd5c6ea3eaf5eb4b38eefc5371c552824544e90ed5c347d712ef99c05",
          "blockNumber": "0x725b14",
          "transactionHash": "0x0bca80d74845f1b33b5d88496bf8053413db2d5b33c7383388f95e383f8484b9",
          "transactionIndex": "0x4e",
          "logIndex": "0x8f",
          "removed": false
        },
        {
          "address": "0xbf4a322f1496e5c3d34a9bcdb4c60567b38c7de2",
          "topics": [
            "0xddf252ad1be2c89b69c2b068fc378daa952ba7f163c4a11628f55a4df523b3ef",
            "0x0000000000000000000000000000000000000000000000000000000000000000",
            "0x000000000000000000000000c77f7fed3b5cc8249adc428c5f44c9063b9734b4"
          ],
          "data": "0x0000000000000000000000000000000000000000000000002945b8aa071f2c76",
          "blockHash": "0x84e533cbd5c6ea3eaf5eb4b38eefc5371c552824544e90ed5c347d712ef99c05",
          "blockNumber": "0x725b14",
          "transactionHash": "0x0bca80d74845f1b33b5d88496bf8053413db2d5b33c7383388f95e383f8484b9",
          "transactionIndex": "0x4e",
          "logIndex": "0x90",
          "removed": false
        },
        {
          "address": "0xbf4a322f1496e5c3d34a9bcdb4c60567b38c7de2",
          "topics": [
            "0x4afcb4a87cdbd9974efdb92ee48bc8d7cd0ae4bf217004db3d080cbaee652ca7"
          ],
          "data": "0x000000000000000000000000000000000000000000000000000000006787374c00000000000000000000000000000000000000000000000000039660ac54ef1e0000000000000000000000000000000000000000000000000de0b6b3a7640000",
          "blockHash": "0x84e533cbd5c6ea3eaf5eb4b38eefc5371c552824544e90ed5c347d712ef99c05",
          "blockNumber": "0x725b14",
          "transactionHash": "0x0bca80d74845f1b33b5d88496bf8053413db2d5b33c7383388f95e383f8484b9",
          "transactionIndex": "0x4e",
          "logIndex": "0x91",
          "removed": false
        }
      ],
      "logsBloom": "0x00000000000000000000000000000000000000000000000000000000000000000000000000000000000000000000000000000000000000004000000000000000000000000000000000000008000000000000001000000000000000000000000000000000020000000000000000000800020000000000000000000010000000000000000000000000000000000000000000000000000008000000010000000000000000000000000000000000000000004000000000000000000000000000000000000002000000800000000000001000000000000000080000000000000020000000000000000000000000000000000000000000000000000000000000000000",
      "type": "0x2",
      "transactionHash": "0x0bca80d74845f1b33b5d88496bf8053413db2d5b33c7383388f95e383f8484b9",
      "transactionIndex": "0x4e",
      "blockHash": "0x84e533cbd5c6ea3eaf5eb4b38eefc5371c552824544e90ed5c347d712ef99c05",
      "blockNumber": "0x725b14",
      "gasUsed": "0x13af6",
      "effectiveGasPrice": "0x7d238694",
      "from": "0xc77f7fed3b5cc8249adc428c5f44c9063b9734b4",
      "to": "0xbf4a322f1496e5c3d34a9bcdb4c60567b38c7de2",
      "contractAddress": null
    }
  ],
  "libraries": [],
  "pending": [],
  "returns": {},
  "timestamp": 1736914766,
  "chain": 11155111,
  "commit": "51a374b"
}