{
  "transactions": [
    {
      "hash": "0x58b510dee01d55f8369e27ed3cbd61a421270aa3b9c5c9cabe7a2a596e7fe671",
      "transactionType": "CALL",
      "contractName": null,
      "contractAddress": "0x270e88f8683660553e8ba4eb2ad7c91a1710d769",
      "function": "buy(address)",
      "arguments": [
        "0xC77f7fed3b5Cc8249aDc428c5F44C9063B9734b4"
      ],
      "transaction": {
        "from": "0xc77f7fed3b5cc8249adc428c5f44c9063b9734b4",
        "to": "0x270e88f8683660553e8ba4eb2ad7c91a1710d769",
        "gas": "0x1b30c",
        "value": "0xde0b6b3a7640000",
        "input": "0xf088d547000000000000000000000000c77f7fed3b5cc8249adc428c5f44c9063b9734b4",
        "nonce": "0x765",
        "chainId": "0xaa36a7"
      },
      "additionalContracts": [],
      "isFixedGasLimit": false
    }
  ],
  "receipts": [
    {
      "status": "0x1",
      "cumulativeGasUsed": "0x681c4f",
      "logs": [
        {
          "address": "0x270e88f8683660553e8ba4eb2ad7c91a1710d769",
          "topics": [
            "0xddf252ad1be2c89b69c2b068fc378daa952ba7f163c4a11628f55a4df523b3ef",
            "0x0000000000000000000000000000000000000000000000000000000000000000",
            "0x000000000000000000000000c77f7fed3b5cc8249adc428c5f44c9063b9734b4"
          ],
          "data": "0x000000000000000000000000000000000000000000000027ca35a5ba6b08b85c",
          "blockHash": "0xcbb4f444e65697d4f4a71d2e4c40dc891b6d492d47fe69a9f12a7d5d45c596b3",
          "blockNumber": "0x72548e",
          "transactionHash": "0x58b510dee01d55f8369e27ed3cbd61a421270aa3b9c5c9cabe7a2a596e7fe671",
          "transactionIndex": "0x3d",
          "logIndex": "0x56",
          "removed": false
        },
        {
          "address": "0x270e88f8683660553e8ba4eb2ad7c91a1710d769",
          "topics": [
            "0xddf252ad1be2c89b69c2b068fc378daa952ba7f163c4a11628f55a4df523b3ef",
            "0x0000000000000000000000000000000000000000000000000000000000000000",
            "0x000000000000000000000000c77f7fed3b5cc8249adc428c5f44c9063b9734b4"
          ],
          "data": "0x0000000000000000000000000000000000000000000000001ee5f06daf1d5f26",
          "blockHash": "0xcbb4f444e65697d4f4a71d2e4c40dc891b6d492d47fe69a9f12a7d5d45c596b3",
          "blockNumber": "0x72548e",
          "transactionHash": "0x58b510dee01d55f8369e27ed3cbd61a421270aa3b9c5c9cabe7a2a596e7fe671",
          "transactionIndex": "0x3d",
          "logIndex": "0x57",
          "removed": false
        },
        {
          "address": "0x270e88f8683660553e8ba4eb2ad7c91a1710d769",
          "topics": [
            "0x4afcb4a87cdbd9974efdb92ee48bc8d7cd0ae4bf217004db3d080cbaee652ca7"
          ],
          "data": "0x000000000000000000000000000000000000000000000000000000006786e8b00000000000000000000000000000000000000000000000000004cad1609050d70000000000000000000000000000000000000000000000000de0b6b3a7640000",
          "blockHash": "0xcbb4f444e65697d4f4a71d2e4c40dc891b6d492d47fe69a9f12a7d5d45c596b3",
          "blockNumber": "0x72548e",
          "transactionHash": "0x58b510dee01d55f8369e27ed3cbd61a421270aa3b9c5c9cabe7a2a596e7fe671",
          "transactionIndex": "0x3d",
          "logIndex": "0x58",
          "removed": false
        }
      ],
      "logsBloom": "0x00000000000000000000000000000000000000000000000000000000000000000000000000000000000000000000000020000000000000004000000000000000000000000000000000000008000000000000000000000000000000000000000000000000020000000000000000000800020000000000000000000010000000000000000000010000000000000000000000000000000000000000010000000000000000000000000000000000000000004000000000000000000000000000000000000002000000800000000000000000000000000000080000008000000020000000000000000000000000000000000000000000000000000000000000000000",
      "type": "0x2",
      "transactionHash": "0x58b510dee01d55f8369e27ed3cbd61a421270aa3b9c5c9cabe7a2a596e7fe671",
      "transactionIndex": "0x3d",
      "blockHash": "0xcbb4f444e65697d4f4a71d2e4c40dc891b6d492d47fe69a9f12a7d5d45c596b3",
      "blockNumber": "0x72548e",
      "gasUsed": "0x13af8",
      "effectiveGasPrice": "0x148dc1c3b",
      "from": "0xc77f7fed3b5cc8249adc428c5f44c9063b9734b4",
      "to": "0x270e88f8683660553e8ba4eb2ad7c91a1710d769",
      "contractAddress": null
    }
  ],
  "libraries": [],
  "pending": [],
  "returns": {},
  "timestamp": 1736894641,
  "chain": 11155111,
  "commit": "51a374b"
}