{
  "transactions": [
    {
      "hash": "0x775e403969ba934c6452c918327035bd9a584da5f43f5f260ff01a2937bcac3f",
      "transactionType": "CALL",
      "contractName": null,
      "contractAddress": "0xbf4a322f1496e5c3d34a9bcdb4c60567b38c7de2",
      "function": "buy(address)",
      "arguments": [
        "0xC77f7fed3b5Cc8249aDc428c5F44C9063B9734b4"
      ],
      "transaction": {
        "from": "0xc77f7fed3b5cc8249adc428c5f44c9063b9734b4",
        "to": "0xbf4a322f1496e5c3d34a9bcdb4c60567b38c7de2",
        "gas": "0x1b309",
        "value": "0xde0b6b3a7640000",
        "input": "0xf088d547000000000000000000000000c77f7fed3b5cc8249adc428c5f44c9063b9734b4",
        "nonce": "0x934",
        "chainId": "0xaa36a7"
      },
      "additionalContracts": [],
      "isFixedGasLimit": false
    }
  ],
  "receipts": [
    {
      "status": "0x1",
      "cumulativeGasUsed": "0xe6573b",
      "logs": [
        {
          "address": "0xbf4a322f1496e5c3d34a9bcdb4c60567b38c7de2",
          "topics": [
            "0xddf252ad1be2c89b69c2b068fc378daa952ba7f163c4a11628f55a4df523b3ef",
            "0x0000000000000000000000000000000000000000000000000000000000000000",
            "0x000000000000000000000000c77f7fed3b5cc8249adc428c5f44c9063b9734b4"
          ],
          "data": "0x00000000000000000000000000000000000000000000003581c74a1078f568a0",
          "blockHash": "0x6dab707e10e34c4a928c7e4490a349904da0c471c784ed0417d2bc0ec7a29654",
          "blockNumber": "0x7258bd",
          "transactionHash": "0x775e403969ba934c6452c918327035bd9a584da5f43f5f260ff01a2937bcac3f",
          "transactionIndex": "0x77",
          "logIndex": "0x92",
          "removed": false
        },
        {
          "address": "0xbf4a322f1496e5c3d34a9bcdb4c60567b38c7de2",
          "topics": [
            "0xddf252ad1be2c89b69c2b068fc378daa952ba7f163c4a11628f55a4df523b3ef",
            "0x0000000000000000000000000000000000000000000000000000000000000000",
            "0x000000000000000000000000c77f7fed3b5cc8249adc428c5f44c9063b9734b4"
          ],
          "data": "0x000000000000000000000000000000000000000000000000298ccace8fbb0aee",
          "blockHash": "0x6dab707e10e34c4a928c7e4490a349904da0c471c784ed0417d2bc0ec7a29654",
          "blockNumber": "0x7258bd",
          "transactionHash": "0x775e403969ba934c6452c918327035bd9a584da5f43f5f260ff01a2937bcac3f",
          "transactionIndex": "0x77",
          "logIndex": "0x93",
          "removed": false
        },
        {
          "address": "0xbf4a322f1496e5c3d34a9bcdb4c60567b38c7de2",
          "topics": [
            "0x4afcb4a87cdbd9974efdb92ee48bc8d7cd0ae4bf217004db3d080cbaee652ca7"
          ],
          "data": "0x0000000000000000000000000000000000000000000000000000000067871b080000000000000000000000000000000000000000000000000003903dcfc340670000000000000000000000000000000000000000000000000de0b6b3a7640000",
          "blockHash": "0x6dab707e10e34c4a928c7e4490a349904da0c471c784ed0417d2bc0ec7a29654",
          "blockNumber": "0x7258bd",
          "transactionHash": "0x775e403969ba934c6452c918327035bd9a584da5f43f5f260ff01a2937bcac3f",
          "transactionIndex": "0x77",
          "logIndex": "0x94",
          "removed": false
        }
      ],
      "logsBloom": "0x00000000000000000000000000000000000000000000000000000000000000000000000000000000000000000000000000000000000000004000000000000000000000000000000000000008000000000000001000000000000000000000000000000000020000000000000000000800020000000000000000000010000000000000000000000000000000000000000000000000000008000000010000000000000000000000000000000000000000004000000000000000000000000000000000000002000000800000000000001000000000000000080000000000000020000000000000000000000000000000000000000000000000000000000000000000",
      "type": "0x2",
      "transactionHash": "0x775e403969ba934c6452c918327035bd9a584da5f43f5f260ff01a2937bcac3f",
      "transactionIndex": "0x77",
      "blockHash": "0x6dab707e10e34c4a928c7e4490a349904da0c471c784ed0417d2bc0ec7a29654",
      "blockNumber": "0x7258bd",
      "gasUsed": "0x13af6",
      "effectiveGasPrice": "0x54e3681b",
      "from": "0xc77f7fed3b5cc8249adc428c5f44c9063b9734b4",
      "to": "0xbf4a322f1496e5c3d34a9bcdb4c60567b38c7de2",
      "contractAddress": null
    }
  ],
  "libraries": [],
  "pending": [],
  "returns": {},
  "timestamp": 1736907531,
  "chain": 11155111,
  "commit": "51a374b"
}