{
  "transactions": [
    {
      "hash": "0x11639e6d9e3ea115b52af5ffde30bb2fd0d9c7f115430b1f906dc3bcb0217b2a",
      "transactionType": "CALL",
      "contractName": null,
      "contractAddress": "0x5eb9cc76c3506942c1c0ead70e877dd5e4f00cb0",
      "function": "sell(uint256)",
      "arguments": [
        "989120715445791236969"
      ],
      "transaction": {
        "from": "0xc77f7fed3b5cc8249adc428c5f44c9063b9734b4",
        "to": "0x5eb9cc76c3506942c1c0ead70e877dd5e4f00cb0",
        "gas": "0x16fec",
        "value": "0x0",
        "input": "0xe4849b320000000000000000000000000000000000000000000000359eceb21c9e9e2369",
        "nonce": "0x37f",
        "chainId": "0xaa36a7"
      },
      "additionalContracts": [],
      "isFixedGasLimit": false
    }
  ],
  "receipts": [
    {
      "status": "0x1",
      "cumulativeGasUsed": "0xcf723f",
      "logs": [
        {
          "address": "0x5eb9cc76c3506942c1c0ead70e877dd5e4f00cb0",
          "topics": [
            "0xddf252ad1be2c89b69c2b068fc378daa952ba7f163c4a11628f55a4df523b3ef",
            "0x000000000000000000000000c77f7fed3b5cc8249adc428c5f44c9063b9734b4",
            "0x0000000000000000000000000000000000000000000000000000000000000000"
          ],
          "data": "0x0000000000000000000000000000000000000000000000359eceb21c9e9e2369",
          "blockHash": "0x41acbf384fe7bb36f9630ab72171d17bd214d058b4f91938ad3cd7b561da0105",
          "blockNumber": "0x724f78",
          "transactionHash": "0x11639e6d9e3ea115b52af5ffde30bb2fd0d9c7f115430b1f906dc3bcb0217b2a",
          "transactionIndex": "0x70",
          "logIndex": "0x7c",
          "removed": false
        },
        {
          "address": "0x5eb9cc76c3506942c1c0ead70e877dd5e4f00cb0",
          "topics": [
            "0x4afcb4a87cdbd9974efdb92ee48bc8d7cd0ae4bf217004db3d080cbaee652ca7"
          ],
          "data": "0x000000000000000000000000000000000000000000000000000000006786ab5400000000000000000000000000000000000000000000000000039110939c13e20000000000000000000000000000000000000000000000000dc7db13320c4f08",
          "blockHash": "0x41acbf384fe7bb36f9630ab72171d17bd214d058b4f91938ad3cd7b561da0105",
          "blockNumber": "0x724f78",
          "transactionHash": "0x11639e6d9e3ea115b52af5ffde30bb2fd0d9c7f115430b1f906dc3bcb0217b2a",
          "transactionIndex": "0x70",
          "logIndex": "0x7d",
          "removed": false
        }
      ],
      "logsBloom": "0x00000000000000000000000000000000000000000000000000000000000000000000000000000000000000000000000000000000000000004000000000000000000000000000000000000008000000000000000000000000000000000000000000000000020000000000000004000800020000000000000000000010000000000000000000000000000000000000000000000000000000000000010000000000000000000000000000000000000000004000000000000000000000000000020000000002000000800000008000000000000000000000080000000000000020000000000000000000000000000000000000000000000000000000000000000000",
      "type": "0x2",
      "transactionHash": "0x11639e6d9e3ea115b52af5ffde30bb2fd0d9c7f115430b1f906dc3bcb0217b2a",
      "transactionIndex": "0x70",
      "blockHash": "0x41acbf384fe7bb36f9630ab72171d17bd214d058b4f91938ad3cd7b561da0105",
      "blockNumber": "0x724f78",
      "gasUsed": "0xfb93",
      "effectiveGasPrice": "0x5ba3adc25",
      "from": "0xc77f7fed3b5cc8249adc428c5f44c9063b9734b4",
      "to": "0x5eb9cc76c3506942c1c0ead70e877dd5e4f00cb0",
      "contractAddress": null
    }
  ],
  "libraries": [],
  "pending": [],
  "returns": {},
  "timestamp": 1736878933,
  "chain": 11155111,
  "commit": "51a374b"
}