{
  "transactions": [
    {
      "hash": "0x08a9a3948ea691f7506cb79e88c1d44ef35366bf97ff77691a0e3de87a59d6d5",
      "transactionType": "CALL",
      "contractName": null,
      "contractAddress": "0x8aafd3ede9adb0ff97c7aebce82a919afb1c8764",
      "function": "sell(uint256)",
      "arguments": [
        "472617"
      ],
      "transaction": {
        "from": "0xc77f7fed3b5cc8249adc428c5f44c9063b9734b4",
        "to": "0x8aafd3ede9adb0ff97c7aebce82a919afb1c8764",
        "gas": "0x16208",
        "value": "0x0",
        "input": "0xe4849b320000000000000000000000000000000000000000000000000000000000073629",
        "nonce": "0x1491",
        "chainId": "0xaa36a7"
      },
      "additionalContracts": [],
      "isFixedGasLimit": false
    }
  ],
  "receipts": [
    {
      "status": "0x1",
      "cumulativeGasUsed": "0x76444b",
      "logs": [
        {
          "address": "0x8aafd3ede9adb0ff97c7aebce82a919afb1c8764",
          "topics": [
            "0xddf252ad1be2c89b69c2b068fc378daa952ba7f163c4a11628f55a4df523b3ef",
            "0x000000000000000000000000c77f7fed3b5cc8249adc428c5f44c9063b9734b4",
            "0x0000000000000000000000000000000000000000000000000000000000000000"
          ],
          "data": "0x0000000000000000000000000000000000000000000000000000000000072765",
          "blockHash": "0x4517cac1c8a5b34429c4f15c0975a87932c95571cd11759675760df5b5ee2e95",
          "blockNumber": "0x731be3",
          "transactionHash": "0x08a9a3948ea691f7506cb79e88c1d44ef35366bf97ff77691a0e3de87a59d6d5",
          "transactionIndex": "0x52",
          "logIndex": "0x9e",
          "removed": false
        },
        {
          "address": "0x8aafd3ede9adb0ff97c7aebce82a919afb1c8764",
          "topics": [
            "0xddf252ad1be2c89b69c2b068fc378daa952ba7f163c4a11628f55a4df523b3ef",
            "0x000000000000000000000000c77f7fed3b5cc8249adc428c5f44c9063b9734b4",
            "0x000000000000000000000000c77f7fed3b5cc8249adc428c5f44c9063b9734b4"
          ],
          "data": "0x0000000000000000000000000000000000000000000000000000000000000ec4",
          "blockHash": "0x4517cac1c8a5b34429c4f15c0975a87932c95571cd11759675760df5b5ee2e95",
          "blockNumber": "0x731be3",
          "transactionHash": "0x08a9a3948ea691f7506cb79e88c1d44ef35366bf97ff77691a0e3de87a59d6d5",
          "transactionIndex": "0x52",
          "logIndex": "0x9f",
          "removed": false
        },
        {
          "address": "0x8aafd3ede9adb0ff97c7aebce82a919afb1c8764",
          "topics": [
            "0x4afcb4a87cdbd9974efdb92ee48bc8d7cd0ae4bf217004db3d080cbaee652ca7"
          ],
          "data": "0x0000000000000000000000000000000000000000000000000000000067904b80000000000000000000000000000000000000000000000000000fc1e718f0afec0000000000000000000000000000000000000000000000000000000000000830",
          "blockHash": "0x4517cac1c8a5b34429c4f15c0975a87932c95571cd11759675760df5b5ee2e95",
          "blockNumber": "0x731be3",
          "transactionHash": "0x08a9a3948ea691f7506cb79e88c1d44ef35366bf97ff77691a0e3de87a59d6d5",
          "transactionIndex": "0x52",
          "logIndex": "0xa0",
          "removed": false
        }
      ],
      "logsBloom": "0x00000000000000000000000000000000000000000600000000000000000000000000000000000000000000000000000000000000000000004000000000000000000000000000004000000008000000000000000000000000000000000000000000000000020000000000000000000800020000000000000000000010000000000000000000000000000000000000000000000000000000000000010000000000000000000000000000000000000000004000000000000000000000000000000000000002000000800000000000000000000000000000080000000000000020000000000000000000000000000000000000000000000000000000000000000000",
      "type": "0x2",
      "transactionHash": "0x08a9a3948ea691f7506cb79e88c1d44ef35366bf97ff77691a0e3de87a59d6d5",
      "transactionIndex": "0x52",
      "blockHash": "0x4517cac1c8a5b34429c4f15c0975a87932c95571cd11759675760df5b5ee2e95",
      "blockNumber": "0x731be3",
      "gasUsed": "0xf213",
      "effectiveGasPrice": "0x11b47ef46",
      "from": "0xc77f7fed3b5cc8249adc428c5f44c9063b9734b4",
      "to": "0x8aafd3ede9adb0ff97c7aebce82a919afb1c8764",
      "contractAddress": null
    }
  ],
  "libraries": [],
  "pending": [],
  "returns": {},
  "timestamp": 1737509762,
  "chain": 11155111,
  "commit": "1d2fb70"
}