{
  "transactions": [
    {
      "hash": "0x1b7fe60aae1a5eba002de72f2ad56750767a83cdfe43049bcdf6cc330d68020d",
      "transactionType": "CALL",
      "contractName": null,
      "contractAddress": "0x270e88f8683660553e8ba4eb2ad7c91a1710d769",
      "function": "sell(uint256)",
      "arguments": [
        "949334364782037274209"
      ],
      "transaction": {
        "from": "0xc77f7fed3b5cc8249adc428c5f44c9063b9734b4",
        "to": "0x270e88f8683660553e8ba4eb2ad7c91a1710d769",
        "gas": "0x16fec",
        "value": "0x0",
        "input": "0xe4849b3200000000000000000000000000000000000000000000003376a92efaf06f8e61",
        "nonce": "0x5f3",
        "chainId": "0xaa36a7"
      },
      "additionalContracts": [],
      "isFixedGasLimit": false
    }
  ],
  "receipts": [
    {
      "status": "0x1",
      "cumulativeGasUsed": "0x11f10ad",
      "logs": [
        {
          "address": "0x270e88f8683660553e8ba4eb2ad7c91a1710d769",
          "topics": [
            "0xddf252ad1be2c89b69c2b068fc378daa952ba7f163c4a11628f55a4df523b3ef",
            "0x000000000000000000000000c77f7fed3b5cc8249adc428c5f44c9063b9734b4",
            "0x0000000000000000000000000000000000000000000000000000000000000000"
          ],
          "data": "0x00000000000000000000000000000000000000000000003376a92efaf06f8e61",
          "blockHash": "0x0c684dc83d60a3c64ede31bb7ea2d9bdca00d38d44bc2f3c44cedc5f87af558b",
          "blockNumber": "0x7252b9",
          "transactionHash": "0x1b7fe60aae1a5eba002de72f2ad56750767a83cdfe43049bcdf6cc330d68020d",
          "transactionIndex": "0x58",
          "logIndex": "0xc6",
          "removed": false
        },
        {
          "address": "0x270e88f8683660553e8ba4eb2ad7c91a1710d769",
          "topics": [
            "0x4afcb4a87cdbd9974efdb92ee48bc8d7cd0ae4bf217004db3d080cbaee652ca7"
          ],
          "data": "0x000000000000000000000000000000000000000000000000000000006786d2b40000000000000000000000000000000000000000000000000003b79f928a712c0000000000000000000000000000000000000000000000000dc83e171b376c37",
          "blockHash": "0x0c684dc83d60a3c64ede31bb7ea2d9bdca00d38d44bc2f3c44cedc5f87af558b",
          "blockNumber": "0x7252b9",
          "transactionHash": "0x1b7fe60aae1a5eba002de72f2ad56750767a83cdfe43049bcdf6cc330d68020d",
          "transactionIndex": "0x58",
          "logIndex": "0xc7",
          "removed": false
        }
      ],
      "logsBloom": "0x00000000000000000000000000000000000000000000000000000000000000000000000000000000000000000000000020000000000000004000000000000000000000000000000000000008000000000000000000000000000000000000000000000000020000000000000000000800020000000000000000000010000000000000000000010000000000000000000000000000000000000000010000000000000000000000000000000000000000004000000000000000000000000000000000000002000000800000000000000000000000000000080000008000000020000000000000000000000000000000000000000000000000000000000000000000",
      "type": "0x2",
      "transactionHash": "0x1b7fe60aae1a5eba002de72f2ad56750767a83cdfe43049bcdf6cc330d68020d",
      "transactionIndex": "0x58",
      "blockHash": "0x0c684dc83d60a3c64ede31bb7ea2d9bdca00d38d44bc2f3c44cedc5f87af558b",
      "blockNumber": "0x7252b9",
      "gasUsed": "0xfb93",
      "effectiveGasPrice": "0x2cf49df6e",
      "from": "0xc77f7fed3b5cc8249adc428c5f44c9063b9734b4",
      "to": "0x270e88f8683660553e8ba4eb2ad7c91a1710d769",
      "contractAddress": null
    }
  ],
  "libraries": [],
  "pending": [],
  "returns": {},
  "timestamp": 1736889013,
  "chain": 11155111,
  "commit": "51a374b"
}