{
  "transactions": [
    {
      "hash": "0xe102c423b43482cd8ed178849935c9bb6788aee39a3aa91daa41517aba256ac4",
      "transactionType": "CALL",
      "contractName": null,
      "contractAddress": "0xbf4a322f1496e5c3d34a9bcdb4c60567b38c7de2",
      "function": "sell(uint256)",
      "arguments": [
        "976640767085179977771"
      ],
      "transaction": {
        "from": "0xc77f7fed3b5cc8249adc428c5f44c9063b9734b4",
        "to": "0xbf4a322f1496e5c3d34a9bcdb4c60567b38c7de2",
        "gas": "0x16fea",
        "value": "0x0",
        "input": "0xe4849b32000000000000000000000000000000000000000000000034f19d03330d2a402b",
        "nonce": "0xd13",
        "chainId": "0xaa36a7"
      },
      "additionalContracts": [],
      "isFixedGasLimit": false
    }
  ],
  "receipts": [
    {
      "status": "0x1",
      "cumulativeGasUsed": "0xb1c15b",
      "logs": [
        {
          "address": "0xbf4a322f1496e5c3d34a9bcdb4c60567b38c7de2",
          "topics": [
            "0xddf252ad1be2c89b69c2b068fc378daa952ba7f163c4a11628f55a4df523b3ef",
            "0x000000000000000000000000c77f7fed3b5cc8249adc428c5f44c9063b9734b4",
            "0x0000000000000000000000000000000000000000000000000000000000000000"
          ],
          "data": "0x000000000000000000000000000000000000000000000034f19d03330d2a402b",
          "blockHash": "0x0b4fb354e8940b0d428f2c0e8d28f39ecdf033bad1d4916ea1f9766b5f34e0f9",
          "blockNumber": "0x725d6e",
          "transactionHash": "0xe102c423b43482cd8ed178849935c9bb6788aee39a3aa91daa41517aba256ac4",
          "transactionIndex": "0x6d",
          "logIndex": "0xea",
          "removed": false
        },
        {
          "address": "0xbf4a322f1496e5c3d34a9bcdb4c60567b38c7de2",
          "topics": [
            "0x4afcb4a87cdbd9974efdb92ee48bc8d7cd0ae4bf217004db3d080cbaee652ca7"
          ],
          "data": "0x000000000000000000000000000000000000000000000000000000006787539c00000000000000000000000000000000000000000000000000039cc1db46caf90000000000000000000000000000000000000000000000000dc7e3da41868acb",
          "blockHash": "0x0b4fb354e8940b0d428f2c0e8d28f39ecdf033bad1d4916ea1f9766b5f34e0f9",
          "blockNumber": "0x725d6e",
          "transactionHash": "0xe102c423b43482cd8ed178849935c9bb6788aee39a3aa91daa41517aba256ac4",
          "transactionIndex": "0x6d",
          "logIndex": "0xeb",
          "removed": false
        }
      ],
      "logsBloom": "0x00000000000000000000000000000000000000000000000000000000000000000000000000000000000000000000000000000000000000004000000000000000000000000000000000000008000000000000001000000000000000000000000000000000020000000000000000000800020000000000000000000010000000000000000000000000000000000000000000000000000008000000010000000000000000000000000000000000000000004000000000000000000000000000000000000002000000800000000000001000000000000000080000000000000020000000000000000000000000000000000000000000000000000000000000000000",
      "type": "0x2",
      "transactionHash": "0xe102c423b43482cd8ed178849935c9bb6788aee39a3aa91daa41517aba256ac4",
      "transactionIndex": "0x6d",
      "blockHash": "0x0b4fb354e8940b0d428f2c0e8d28f39ecdf033bad1d4916ea1f9766b5f34e0f9",
      "blockNumber": "0x725d6e",
      "gasUsed": "0xfb91",
      "effectiveGasPrice": "0x28f541a52",
      "from": "0xc77f7fed3b5cc8249adc428c5f44c9063b9734b4",
      "to": "0xbf4a322f1496e5c3d34a9bcdb4c60567b38c7de2",
      "contractAddress": null
    }
  ],
  "libraries": [],
  "pending": [],
  "returns": {},
  "timestamp": 1736922014,
  "chain": 11155111,
  "commit": "51a374b"
}