{
  "transactions": [
    {
      "hash": "0xeda6d992ba09e639be1b8ed791f184ee0503c0e95e9fa501932c99f7db1fa826",
      "transactionType": "CALL",
      "contractName": null,
      "contractAddress": "0xbf4a322f1496e5c3d34a9bcdb4c60567b38c7de2",
      "function": "buy(address)",
      "arguments": [
        "0xC77f7fed3b5Cc8249aDc428c5F44C9063B9734b4"
      ],
      "transaction": {
        "from": "0xc77f7fed3b5cc8249adc428c5f44c9063b9734b4",
        "to": "0xbf4a322f1496e5c3d34a9bcdb4c60567b38c7de2",
        "gas": "0x1b309",
        "value": "0xde0b6b3a7640000",
        "input": "0xf088d547000000000000000000000000c77f7fed3b5cc8249adc428c5f44c9063b9734b4",
        "nonce": "0x97c",
        "chainId": "0xaa36a7"
      },
      "additionalContracts": [],
      "isFixedGasLimit": false
    }
  ],
  "receipts": [
    {
      "status": "0x1",
      "cumulativeGasUsed": "0x9a8c77",
      "logs": [
        {
          "address": "0xbf4a322f1496e5c3d34a9bcdb4c60567b38c7de2",
          "topics": [
            "0xddf252ad1be2c89b69c2b068fc378daa952ba7f163c4a11628f55a4df523b3ef",
            "0x0000000000000000000000000000000000000000000000000000000000000000",
            "0x000000000000000000000000c77f7fed3b5cc8249adc428c5f44c9063b9734b4"
          ],
          "data": "0x000000000000000000000000000000000000000000000035742452c5b8e9db1c",
          "blockHash": "0x0371916636d092c8d8281412e4dd951b15624d6041eb3b48baba6b980a4939e4",
          "blockNumber": "0x725919",
          "transactionHash": "0xeda6d992ba09e639be1b8ed791f184ee0503c0e95e9fa501932c99f7db1fa826",
          "transactionIndex": "0x55",
          "logIndex": "0x66",
          "removed": false
        },
        {
          "address": "0xbf4a322f1496e5c3d34a9bcdb4c60567b38c7de2",
          "topics": [
            "0xddf252ad1be2c89b69c2b068fc378daa952ba7f163c4a11628f55a4df523b3ef",
            "0x0000000000000000000000000000000000000000000000000000000000000000",
            "0x000000000000000000000000c77f7fed3b5cc8249adc428c5f44c9063b9734b4"
          ],
          "data": "0x000000000000000000000000000000000000000000000000298233f3e549fdaa",
          "blockHash": "0x0371916636d092c8d8281412e4dd951b15624d6041eb3b48baba6b980a4939e4",
          "blockNumber": "0x725919",
          "transactionHash": "0xeda6d992ba09e639be1b8ed791f184ee0503c0e95e9fa501932c99f7db1fa826",
          "transactionIndex": "0x55",
          "logIndex": "0x67",
          "removed": false
        },
        {
          "address": "0xbf4a322f1496e5c3d34a9bcdb4c60567b38c7de2",
          "topics": [
            "0x4afcb4a87cdbd9974efdb92ee48bc8d7cd0ae4bf217004db3d080cbaee652ca7"
          ],
          "data": "0x0000000000000000000000000000000000000000000000000000000067871f5800000000000000000000000000000000000000000000000000039126880ecf6e0000000000000000000000000000000000000000000000000de0b6b3a7640000",
          "blockHash": "0x0371916636d092c8d8281412e4dd951b15624d6041eb3b48baba6b980a4939e4",
          "blockNumber": "0x725919",
          "transactionHash": "0xeda6d992ba09e639be1b8ed791f184ee0503c0e95e9fa501932c99f7db1fa826",
          "transactionIndex": "0x55",
          "logIndex": "0x68",
          "removed": false
        }
      ],
      "logsBloom": "0x00000000000000000000000000000000000000000000000000000000000000000000000000000000000000000000000000000000000000004000000000000000000000000000000000000008000000000000001000000000000000000000000000000000020000000000000000000800020000000000000000000010000000000000000000000000000000000000000000000000000008000000010000000000000000000000000000000000000000004000000000000000000000000000000000000002000000800000000000001000000000000000080000000000000020000000000000000000000000000000000000000000000000000000000000000000",
      "type": "0x2",
      "transactionHash": "0xeda6d992ba09e639be1b8ed791f184ee0503c0e95e9fa501932c99f7db1fa826",
      "transactionIndex": "0x55",
      "blockHash": "0x0371916636d092c8d8281412e4dd951b15624d6041eb3b48baba6b980a4939e4",
      "blockNumber": "0x725919",
      "gasUsed": "0x13af6",
      "effectiveGasPrice": "0xb5daee11",
      "from": "0xc77f7fed3b5cc8249adc428c5f44c9063b9734b4",
      "to": "0xbf4a322f1496e5c3d34a9bcdb4c60567b38c7de2",
      "contractAddress": null
    }
  ],
  "libraries": [],
  "pending": [],
  "returns": {},
  "timestamp": 1736908633,
  "chain": 11155111,
  "commit": "51a374b"
}