{
  "transactions": [
    {
      "hash": "0x3dd3b51cabc15f64cf17d5cdeba216bb754820517066dda2f995a4243ee4cbf6",
      "transactionType": "CALL",
      "contractName": null,
      "contractAddress": "0xd7d369473c8a4c32c3ad70e84ce310a0b2642ad3",
      "function": "borrow(uint256,uint256)",
      "arguments": [
        "9999999999999990",
        "0"
      ],
      "transaction": {
        "from": "0xc77f7fed3b5cc8249adc428c5f44c9063b9734b4",
        "to": "0xd7d369473c8a4c32c3ad70e84ce310a0b2642ad3",
        "gas": "0x5dbfc",
        "value": "0x0",
        "input": "0x0ecbcdab000000000000000000000000000000000000000000000000002386f26fc0fff60000000000000000000000000000000000000000000000000000000000000000",
        "nonce": "0x1920",
        "chainId": "0xaa36a7"
      },
      "additionalContracts": [],
      "isFixedGasLimit": false
    }
  ],
  "receipts": [
    {
      "status": "0x1",
      "cumulativeGasUsed": "0xf9487c",
      "logs": [
        {
          "address": "0xd7d369473c8a4c32c3ad70e84ce310a0b2642ad3",
          "topics": [
            "0xddf252ad1be2c89b69c2b068fc378daa952ba7f163c4a11628f55a4df523b3ef",
            "0x000000000000000000000000c77f7fed3b5cc8249adc428c5f44c9063b9734b4",
            "0x000000000000000000000000d7d369473c8a4c32c3ad70e84ce310a0b2642ad3"
          ],
          "data": "0x0000000000000000000000000000000000000000000000008ac7230489e7ffff",
          "blockHash": "0x729de313c8d46b19b8c01fa9bc1e1df7512f6afa70b39b11dd67da7be5b9c82c",
          "blockNumber": "0x739ae6",
          "transactionHash": "0x3dd3b51cabc15f64cf17d5cdeba216bb754820517066dda2f995a4243ee4cbf6",
          "transactionIndex": "0x5c",
          "logIndex": "0x12a",
          "removed": false
        },
        {
          "address": "0xd7d369473c8a4c32c3ad70e84ce310a0b2642ad3",
          "topics": [
            "0x03bbe564cb1b78e43195eeadbde99e5b89b19345862807fcfb59f884e4165e25"
          ],
          "data": "0x00000000000000000000000038818e389773445cd73adbaa37b8b169f458c6e1000000000000000000000000000000000000000000000000000002ba7def2fff",
          "blockHash": "0x729de313c8d46b19b8c01fa9bc1e1df7512f6afa70b39b11dd67da7be5b9c82c",
          "blockNumber": "0x739ae6",
          "transactionHash": "0x3dd3b51cabc15f64cf17d5cdeba216bb754820517066dda2f995a4243ee4cbf6",
          "transactionIndex": "0x5c",
          "logIndex": "0x12b",
          "removed": false
        },
        {
          "address": "0xd7d369473c8a4c32c3ad70e84ce310a0b2642ad3",
          "topics": [
            "0x03bbe564cb1b78e43195eeadbde99e5b89b19345862807fcfb59f884e4165e25"
          ],
          "data": "0x000000000000000000000000c77f7fed3b5cc8249adc428c5f44c9063b9734b4000000000000000000000000000000000000000000000000002322e710d41ff7",
          "blockHash": "0x729de313c8d46b19b8c01fa9bc1e1df7512f6afa70b39b11dd67da7be5b9c82c",
          "blockNumber": "0x739ae6",
          "transactionHash": "0x3dd3b51cabc15f64cf17d5cdeba216bb754820517066dda2f995a4243ee4cbf6",
          "transactionIndex": "0x5c",
          "logIndex": "0x12c",
          "removed": false
        },
        {
          "address": "0xd7d369473c8a4c32c3ad70e84ce310a0b2642ad3",
          "topics": [
            "0xaec00f5213a37254bc68a26b0685d1a5b2bf513e1e587c94c7df7f4a62b56c9c"
          ],
          "data": "0x0000000000000000000000000000000000000000000000008ac7230489e7ffff00000000000000000000000000000000000000000000000000232bff5f46bff600000000000000000000000000000000000000000000000000232bff5f46bff60000000000000000000000000000000000000000000000008ac7230489e7ffff",
          "blockHash": "0x729de313c8d46b19b8c01fa9bc1e1df7512f6afa70b39b11dd67da7be5b9c82c",
          "blockNumber": "0x739ae6",
          "transactionHash": "0x3dd3b51cabc15f64cf17d5cdeba216bb754820517066dda2f995a4243ee4cbf6",
          "transactionIndex": "0x5c",
          "logIndex": "0x12d",
          "removed": false
        },
        {
          "address": "0xd7d369473c8a4c32c3ad70e84ce310a0b2642ad3",
          "topics": [
            "0x4afcb4a87cdbd9974efdb92ee48bc8d7cd0ae4bf217004db3d080cbaee652ca7"
          ],
          "data": "0x000000000000000000000000000000000000000000000000000000006796787400000000000000000000000000000000000000000000000000038e21a006d7fe000000000000000000000000000000000000000000000000000009184e729fff",
          "blockHash": "0x729de313c8d46b19b8c01fa9bc1e1df7512f6afa70b39b11dd67da7be5b9c82c",
          "blockNumber": "0x739ae6",
          "transactionHash": "0x3dd3b51cabc15f64cf17d5cdeba216bb754820517066dda2f995a4243ee4cbf6",
          "transactionIndex": "0x5c",
          "logIndex": "0x12e",
          "removed": false
        }
      ],
      "logsBloom": "0x00000002000000000000000000000100400000000000000000000000000000000008000000000000000000000000000000002000000000004000000000000000000000000000000000000008000000000000000000000000000000000000000000000000000000020000000000000000020000000000000000000010000000040000000000000000000010000000000000000000000000000000010000000040000000000000000000000400000000004000000000000000000000001000000000000002000000800000000000000000000000000000080000080000000000000000000000000000000000000000000000000000000000000000000000000000",
      "type": "0x2",
      "transactionHash": "0x3dd3b51cabc15f64cf17d5cdeba216bb754820517066dda2f995a4243ee4cbf6",
      "transactionIndex": "0x5c",
      "blockHash": "0x729de313c8d46b19b8c01fa9bc1e1df7512f6afa70b39b11dd67da7be5b9c82c",
      "blockNumber": "0x739ae6",
      "gasUsed": "0x401a2",
      "effectiveGasPrice": "0x29904a1e3",
      "from": "0xc77f7fed3b5cc8249adc428c5f44c9063b9734b4",
      "to": "0xd7d369473c8a4c32c3ad70e84ce310a0b2642ad3",
      "contractAddress": null
    }
  ],
  "libraries": [],
  "pending": [],
  "returns": {},
  "timestamp": 1737914485,
  "chain": 11155111,
  "commit": "f5162e9"
}