{
  "transactions": [
    {
      "hash": "0x6ec78baf7ab6580e948de7a77043469c7154a382572abb5ea222425612cc6548",
      "transactionType": "CALL",
      "contractName": null,
      "contractAddress": "0x8aafd3ede9adb0ff97c7aebce82a919afb1c8764",
      "function": "sell(uint256)",
      "arguments": [
        "380202491100886"
      ],
      "transaction": {
        "from": "0xc77f7fed3b5cc8249adc428c5f44c9063b9734b4",
        "to": "0x8aafd3ede9adb0ff97c7aebce82a919afb1c8764",
        "gas": "0x1724d",
        "value": "0x0",
        "input": "0xe4849b32000000000000000000000000000000000000000000000000000159caca6cbed6",
        "nonce": "0xf4c",
        "chainId": "0xaa36a7"
      },
      "additionalContracts": [],
      "isFixedGasLimit": false
    }
  ],
  "receipts": [
    {
      "status": "0x1",
      "cumulativeGasUsed": "0x108f09e",
      "logs": [
        {
          "address": "0x8aafd3ede9adb0ff97c7aebce82a919afb1c8764",
          "topics": [
            "0xddf252ad1be2c89b69c2b068fc378daa952ba7f163c4a11628f55a4df523b3ef",
            "0x000000000000000000000000c77f7fed3b5cc8249adc428c5f44c9063b9734b4",
            "0x0000000000000000000000000000000000000000000000000000000000000000"
          ],
          "data": "0x000000000000000000000000000000000000000000000000000157069bbfd7ef",
          "blockHash": "0x5a771d4b1787b62cb366a6d6c94dcdaaea4106d6ea3ca25d4f8f06d5d9706924",
          "blockNumber": "0x7315a7",
          "transactionHash": "0x6ec78baf7ab6580e948de7a77043469c7154a382572abb5ea222425612cc6548",
          "transactionIndex": "0xa3",
          "logIndex": "0xeb",
          "removed": false
        },
        {
          "address": "0x8aafd3ede9adb0ff97c7aebce82a919afb1c8764",
          "topics": [
            "0xddf252ad1be2c89b69c2b068fc378daa952ba7f163c4a11628f55a4df523b3ef",
            "0x000000000000000000000000c77f7fed3b5cc8249adc428c5f44c9063b9734b4",
            "0x000000000000000000000000c77f7fed3b5cc8249adc428c5f44c9063b9734b4"
          ],
          "data": "0x000000000000000000000000000000000000000000000000000002c42eace6e7",
          "blockHash": "0x5a771d4b1787b62cb366a6d6c94dcdaaea4106d6ea3ca25d4f8f06d5d9706924",
          "blockNumber": "0x7315a7",
          "transactionHash": "0x6ec78baf7ab6580e948de7a77043469c7154a382572abb5ea222425612cc6548",
          "transactionIndex": "0xa3",
          "logIndex": "0xec",
          "removed": false
        },
        {
          "address": "0x8aafd3ede9adb0ff97c7aebce82a919afb1c8764",
          "topics": [
            "0x4afcb4a87cdbd9974efdb92ee48bc8d7cd0ae4bf217004db3d080cbaee652ca7"
          ],
          "data": "0x00000000000000000000000000000000000000000000000000000000679000800000000000000000000000000000000000000000000000000004c087ad0defae000000000000000000000000000000000000000000000000000000766837a402",
          "blockHash": "0x5a771d4b1787b62cb366a6d6c94dcdaaea4106d6ea3ca25d4f8f06d5d9706924",
          "blockNumber": "0x7315a7",
          "transactionHash": "0x6ec78baf7ab6580e948de7a77043469c7154a382572abb5ea222425612cc6548",
          "transactionIndex": "0xa3",
          "logIndex": "0xed",
          "removed": false
        }
      ],
      "logsBloom": "0x00000000000000000000000000000000000000000600000000000000000000000000000000000000000000000000000000000000000000004000000000000000000000000000004000000008000000000000000000000000000000000000000000000000020000000000000000000800020000000000000000000010000000000000000000000000000000000000000000000000000000000000010000000000000000000000000000000000000000004000000000000000000000000000000000000002000000800000000000000000000000000000080000000000000020000000000000000000000000000000000000000000000000000000000000000000",
      "type": "0x2",
      "transactionHash": "0x6ec78baf7ab6580e948de7a77043469c7154a382572abb5ea222425612cc6548",
      "transactionIndex": "0xa3",
      "blockHash": "0x5a771d4b1787b62cb366a6d6c94dcdaaea4106d6ea3ca25d4f8f06d5d9706924",
      "blockNumber": "0x7315a7",
      "gasUsed": "0xfd33",
      "effectiveGasPrice": "0x757bf540",
      "from": "0xc77f7fed3b5cc8249adc428c5f44c9063b9734b4",
      "to": "0x8aafd3ede9adb0ff97c7aebce82a919afb1c8764",
      "contractAddress": null
    }
  ],
  "libraries": [],
  "pending": [],
  "returns": {},
  "timestamp": 1737490561,
  "chain": 11155111,
  "commit": "1d2fb70"
}