{
  "transactions": [
    {
      "hash": "0xe3a7fbfcb1af98b3c7ec1da1a7a31e7bd975b7884810cbeaf574d3155c8cc4fc",
      "transactionType": "CALL",
      "contractName": null,
      "contractAddress": "0x8aafd3ede9adb0ff97c7aebce82a919afb1c8764",
      "function": "sell(uint256)",
      "arguments": [
        "159029987890566"
      ],
      "transaction": {
        "from": "0xc77f7fed3b5cc8249adc428c5f44c9063b9734b4",
        "to": "0x8aafd3ede9adb0ff97c7aebce82a919afb1c8764",
        "gas": "0x15daa",
        "value": "0x0",
        "input": "0xe4849b32000000000000000000000000000000000000000000000000000090a30defd586",
        "nonce": "0x1313",
        "chainId": "0xaa36a7"
      },
      "additionalContracts": [],
      "isFixedGasLimit": false
    }
  ],
  "receipts": [
    {
      "status": "0x1",
      "cumulativeGasUsed": "0x163639e",
      "logs": [
        {
          "address": "0x8aafd3ede9adb0ff97c7aebce82a919afb1c8764",
          "topics": [
            "0xddf252ad1be2c89b69c2b068fc378daa952ba7f163c4a11628f55a4df523b3ef",
            "0x000000000000000000000000c77f7fed3b5cc8249adc428c5f44c9063b9734b4",
            "0x0000000000000000000000000000000000000000000000000000000000000000"
          ],
          "data": "0x00000000000000000000000000000000000000000000000000008f7ad68783f2",
          "blockHash": "0x8301a8dfe47800a78ba30f3abe9f19eb6b9b67ae042a737a2a9c90576e021513",
          "blockNumber": "0x731a20",
          "transactionHash": "0xe3a7fbfcb1af98b3c7ec1da1a7a31e7bd975b7884810cbeaf574d3155c8cc4fc",
          "transactionIndex": "0xe6",
          "logIndex": "0x12d",
          "removed": false
        },
        {
          "address": "0x8aafd3ede9adb0ff97c7aebce82a919afb1c8764",
          "topics": [
            "0xddf252ad1be2c89b69c2b068fc378daa952ba7f163c4a11628f55a4df523b3ef",
            "0x000000000000000000000000c77f7fed3b5cc8249adc428c5f44c9063b9734b4",
            "0x000000000000000000000000c77f7fed3b5cc8249adc428c5f44c9063b9734b4"
          ],
          "data": "0x0000000000000000000000000000000000000000000000000000012837685194",
          "blockHash": "0x8301a8dfe47800a78ba30f3abe9f19eb6b9b67ae042a737a2a9c90576e021513",
          "blockNumber": "0x731a20",
          "transactionHash": "0xe3a7fbfcb1af98b3c7ec1da1a7a31e7bd975b7884810cbeaf574d3155c8cc4fc",
          "transactionIndex": "0xe6",
          "logIndex": "0x12e",
          "removed": false
        },
        {
          "address": "0x8aafd3ede9adb0ff97c7aebce82a919afb1c8764",
          "topics": [
            "0x4afcb4a87cdbd9974efdb92ee48bc8d7cd0ae4bf217004db3d080cbaee652ca7"
          ],
          "data": "0x0000000000000000000000000000000000000000000000000000000067903650000000000000000000000000000000000000000000000000000b75905feaa4b3000000000000000000000000000000000000000000000000000000776e28a771",
          "blockHash": "0x8301a8dfe47800a78ba30f3abe9f19eb6b9b67ae042a737a2a9c90576e021513",
          "blockNumber": "0x731a20",
          "transactionHash": "0xe3a7fbfcb1af98b3c7ec1da1a7a31e7bd975b7884810cbeaf574d3155c8cc4fc",
          "transactionIndex": "0xe6",
          "logIndex": "0x12f",
          "removed": false
        }
      ],
      "logsBloom": "0x00000000000000000000000000000000000000000600000000000000000000000000000000000000000000000000000000000000000000004000000000000000000000000000004000000008000000000000000000000000000000000000000000000000020000000000000000000800020000000000000000000010000000000000000000000000000000000000000000000000000000000000010000000000000000000000000000000000000000004000000000000000000000000000000000000002000000800000000000000000000000000000080000000000000020000000000000000000000000000000000000000000000000000000000000000000",
      "type": "0x2",
      "transactionHash": "0xe3a7fbfcb1af98b3c7ec1da1a7a31e7bd975b7884810cbeaf574d3155c8cc4fc",
      "transactionIndex": "0xe6",
      "blockHash": "0x8301a8dfe47800a78ba30f3abe9f19eb6b9b67ae042a737a2a9c90576e021513",
      "blockNumber": "0x731a20",
      "gasUsed": "0xfd27",
      "effectiveGasPrice": "0x470da97c",
      "from": "0xc77f7fed3b5cc8249adc428c5f44c9063b9734b4",
      "to": "0x8aafd3ede9adb0ff97c7aebce82a919afb1c8764",
      "contractAddress": null
    }
  ],
  "libraries": [],
  "pending": [],
  "returns": {},
  "timestamp": 1737504337,
  "chain": 11155111,
  "commit": "1d2fb70"
}