{
  "transactions": [
    {
      "hash": "0x9e9aa3170d3bf21fc4a67c3d5f64d7a4cb453800a630fa1ead5dccefd0fb8f15",
      "transactionType": "CALL",
      "contractName": null,
      "contractAddress": "0x8aafd3ede9adb0ff97c7aebce82a919afb1c8764",
      "function": "sell(uint256)",
      "arguments": [
        "1333147777823365313"
      ],
      "transaction": {
        "from": "0xc77f7fed3b5cc8249adc428c5f44c9063b9734b4",
        "to": "0x8aafd3ede9adb0ff97c7aebce82a919afb1c8764",
        "gas": "0x15dca",
        "value": "0x0",
        "input": "0xe4849b3200000000000000000000000000000000000000000000000012804ad7324358c1",
        "nonce": "0x1668",
        "chainId": "0xaa36a7"
      },
      "additionalContracts": [],
      "isFixedGasLimit": false
    }
  ],
  "receipts": [
    {
      "status": "0x1",
      "cumulativeGasUsed": "0x8c24ae",
      "logs": [
        {
          "address": "0x8aafd3ede9adb0ff97c7aebce82a919afb1c8764",
          "topics": [
            "0xddf252ad1be2c89b69c2b068fc378daa952ba7f163c4a11628f55a4df523b3ef",
            "0x000000000000000000000000c77f7fed3b5cc8249adc428c5f44c9063b9734b4",
            "0x0000000000000000000000000000000000000000000000000000000000000000"
          ],
          "data": "0x000000000000000000000000000000000000000000000000125a66e9f46bc497",
          "blockHash": "0x04899fd0b1164a3371218a5a1dec8f329c411d22471fe6124ce9645dc314711d",
          "blockNumber": "0x731e17",
          "transactionHash": "0x9e9aa3170d3bf21fc4a67c3d5f64d7a4cb453800a630fa1ead5dccefd0fb8f15",
          "transactionIndex": "0x6b",
          "logIndex": "0x8e",
          "removed": false
        },
        {
          "address": "0x8aafd3ede9adb0ff97c7aebce82a919afb1c8764",
          "topics": [
            "0xddf252ad1be2c89b69c2b068fc378daa952ba7f163c4a11628f55a4df523b3ef",
            "0x000000000000000000000000c77f7fed3b5cc8249adc428c5f44c9063b9734b4",
            "0x000000000000000000000000c77f7fed3b5cc8249adc428c5f44c9063b9734b4"
          ],
          "data": "0x0000000000000000000000000000000000000000000000000025e3ed3dd7942a",
          "blockHash": "0x04899fd0b1164a3371218a5a1dec8f329c411d22471fe6124ce9645dc314711d",
          "blockNumber": "0x731e17",
          "transactionHash": "0x9e9aa3170d3bf21fc4a67c3d5f64d7a4cb453800a630fa1ead5dccefd0fb8f15",
          "transactionIndex": "0x6b",
          "logIndex": "0x8f",
          "removed": false
        },
        {
          "address": "0x8aafd3ede9adb0ff97c7aebce82a919afb1c8764",
          "topics": [
            "0x4afcb4a87cdbd9974efdb92ee48bc8d7cd0ae4bf217004db3d080cbaee652ca7"
          ],
          "data": "0x00000000000000000000000000000000000000000000000000000000679065fc0000000000000000000000000000000000000000000000000015465f2b564cf8000000000000000000000000000000000000000000000000001c5c9aea798cf4",
          "blockHash": "0x04899fd0b1164a3371218a5a1dec8f329c411d22471fe6124ce9645dc314711d",
          "blockNumber": "0x731e17",
          "transactionHash": "0x9e9aa3170d3bf21fc4a67c3d5f64d7a4cb453800a630fa1ead5dccefd0fb8f15",
          "transactionIndex": "0x6b",
          "logIndex": "0x90",
          "removed": false
        }
      ],
      "logsBloom": "0x00000000000000000000000000000000000000000600000000000000000000000000000000000000000000000000000000000000000000004000000000000000000000000000004000000008000000000000000000000000000000000000000000000000020000000000000000000800020000000000000000000010000000000000000000000000000000000000000000000000000000000000010000000000000000000000000000000000000000004000000000000000000000000000000000000002000000800000000000000000000000000000080000000000000020000000000000000000000000000000000000000000000000000000000000000000",
      "type": "0x2",
      "transactionHash": "0x9e9aa3170d3bf21fc4a67c3d5f64d7a4cb453800a630fa1ead5dccefd0fb8f15",
      "transactionIndex": "0x6b",
      "blockHash": "0x04899fd0b1164a3371218a5a1dec8f329c411d22471fe6124ce9645dc314711d",
      "blockNumber": "0x731e17",
      "gasUsed": "0xfd3f",
      "effectiveGasPrice": "0x3e62d0b0",
      "from": "0xc77f7fed3b5cc8249adc428c5f44c9063b9734b4",
      "to": "0x8aafd3ede9adb0ff97c7aebce82a919afb1c8764",
      "contractAddress": null
    }
  ],
  "libraries": [],
  "pending": [],
  "returns": {},
  "timestamp": 1737516541,
  "chain": 11155111,
  "commit": "1d2fb70"
}