{
  "transactions": [
    {
      "hash": "0xb77f5017f1c7a19301bc2a622b0f9a8061ebb0a49168f2ef591b05d047eeaf6a",
      "transactionType": "CALL",
      "contractName": null,
      "contractAddress": "0xbf4a322f1496e5c3d34a9bcdb4c60567b38c7de2",
      "function": "sell(uint256)",
      "arguments": [
        "987617165069080029150"
      ],
      "transaction": {
        "from": "0xc77f7fed3b5cc8249adc428c5f44c9063b9734b4",
        "to": "0xbf4a322f1496e5c3d34a9bcdb4c60567b38c7de2",
        "gas": "0x16fea",
        "value": "0x0",
        "input": "0xe4849b3200000000000000000000000000000000000000000000003589f10302a4d767de",
        "nonce": "0x9e5",
        "chainId": "0xaa36a7"
      },
      "additionalContracts": [],
      "isFixedGasLimit": false
    }
  ],
  "receipts": [
    {
      "status": "0x1",
      "cumulativeGasUsed": "0xbe5080",
      "logs": [
        {
          "address": "0xbf4a322f1496e5c3d34a9bcdb4c60567b38c7de2",
          "topics": [
            "0xddf252ad1be2c89b69c2b068fc378daa952ba7f163c4a11628f55a4df523b3ef",
            "0x000000000000000000000000c77f7fed3b5cc8249adc428c5f44c9063b9734b4",
            "0x0000000000000000000000000000000000000000000000000000000000000000"
          ],
          "data": "0x00000000000000000000000000000000000000000000003589f10302a4d767de",
          "blockHash": "0xdbdac19aae237aea5aa794e611c87f607e6c13af35ff58fcb3a89ce6100daab8",
          "blockNumber": "0x725999",
          "transactionHash": "0xb77f5017f1c7a19301bc2a622b0f9a8061ebb0a49168f2ef591b05d047eeaf6a",
          "transactionIndex": "0x7a",
          "logIndex": "0xba",
          "removed": false
        },
        {
          "address": "0xbf4a322f1496e5c3d34a9bcdb4c60567b38c7de2",
          "topics": [
            "0x4afcb4a87cdbd9974efdb92ee48bc8d7cd0ae4bf217004db3d080cbaee652ca7"
          ],
          "data": "0x00000000000000000000000000000000000000000000000000000000678725640000000000000000000000000000000000000000000000000003927ad19f0a790000000000000000000000000000000000000000000000000dc7e3f3c6ba26bf",
          "blockHash": "0xdbdac19aae237aea5aa794e611c87f607e6c13af35ff58fcb3a89ce6100daab8",
          "blockNumber": "0x725999",
          "transactionHash": "0xb77f5017f1c7a19301bc2a622b0f9a8061ebb0a49168f2ef591b05d047eeaf6a",
          "transactionIndex": "0x7a",
          "logIndex": "0xbb",
          "removed": false
        }
      ],
      "logsBloom": "0x00000000000000000000000000000000000000000000000000000000000000000000000000000000000000000000000000000000000000004000000000000000000000000000000000000008000000000000001000000000000000000000000000000000020000000000000000000800020000000000000000000010000000000000000000000000000000000000000000000000000008000000010000000000000000000000000000000000000000004000000000000000000000000000000000000002000000800000000000001000000000000000080000000000000020000000000000000000000000000000000000000000000000000000000000000000",
      "type": "0x2",
      "transactionHash": "0xb77f5017f1c7a19301bc2a622b0f9a8061ebb0a49168f2ef591b05d047eeaf6a",
      "transactionIndex": "0x7a",
      "blockHash": "0xdbdac19aae237aea5aa794e611c87f607e6c13af35ff58fcb3a89ce6100daab8",
      "blockNumber": "0x725999",
      "gasUsed": "0xfb91",
      "effectiveGasPrice": "0x1ff6fd272",
      "from": "0xc77f7fed3b5cc8249adc428c5f44c9063b9734b4",
      "to": "0xbf4a322f1496e5c3d34a9bcdb4c60567b38c7de2",
      "contractAddress": null
    }
  ],
  "libraries": [],
  "pending": [],
  "returns": {},
  "timestamp": 1736910184,
  "chain": 11155111,
  "commit": "51a374b"
}