{
  "transactions": [
    {
      "hash": "0xcdb9c8d74d1e3be56ddbf2ca5593d60eeac218ecfb21b9464510b086e95be5b4",
      "transactionType": "CALL",
      "contractName": null,
      "contractAddress": "0x8aafd3ede9adb0ff97c7aebce82a919afb1c8764",
      "function": "sell(uint256)",
      "arguments": [
        "368624841939738"
      ],
      "transaction": {
        "from": "0xc77f7fed3b5cc8249adc428c5f44c9063b9734b4",
        "to": "0x8aafd3ede9adb0ff97c7aebce82a919afb1c8764",
        "gas": "0x1724d",
        "value": "0x0",
        "input": "0xe4849b3200000000000000000000000000000000000000000000000000014f4328c25b1a",
        "nonce": "0x1008",
        "chainId": "0xaa36a7"
      },
      "additionalContracts": [],
      "isFixedGasLimit": false
    }
  ],
  "receipts": [
    {
      "status": "0x1",
      "cumulativeGasUsed": "0x9f1804",
      "logs": [
        {
          "address": "0x8aafd3ede9adb0ff97c7aebce82a919afb1c8764",
          "topics": [
            "0xddf252ad1be2c89b69c2b068fc378daa952ba7f163c4a11628f55a4df523b3ef",
            "0x000000000000000000000000c77f7fed3b5cc8249adc428c5f44c9063b9734b4",
            "0x0000000000000000000000000000000000000000000000000000000000000000"
          ],
          "data": "0x00000000000000000000000000000000000000000000000000014c948abcb47d",
          "blockHash": "0x3fe7d3774ca9ef9a42d0ecec51f0f6f1f3e8a892b570c2dec000106dc2f4033c",
          "blockNumber": "0x73167d",
          "transactionHash": "0xcdb9c8d74d1e3be56ddbf2ca5593d60eeac218ecfb21b9464510b086e95be5b4",
          "transactionIndex": "0x6d",
          "logIndex": "0x8f",
          "removed": false
        },
        {
          "address": "0x8aafd3ede9adb0ff97c7aebce82a919afb1c8764",
          "topics": [
            "0xddf252ad1be2c89b69c2b068fc378daa952ba7f163c4a11628f55a4df523b3ef",
            "0x000000000000000000000000c77f7fed3b5cc8249adc428c5f44c9063b9734b4",
            "0x000000000000000000000000c77f7fed3b5cc8249adc428c5f44c9063b9734b4"
          ],
          "data": "0x000000000000000000000000000000000000000000000000000002ae9e05a69d",
          "blockHash": "0x3fe7d3774ca9ef9a42d0ecec51f0f6f1f3e8a892b570c2dec000106dc2f4033c",
          "blockNumber": "0x73167d",
          "transactionHash": "0xcdb9c8d74d1e3be56ddbf2ca5593d60eeac218ecfb21b9464510b086e95be5b4",
          "transactionIndex": "0x6d",
          "logIndex": "0x90",
          "removed": false
        },
        {
          "address": "0x8aafd3ede9adb0ff97c7aebce82a919afb1c8764",
          "topics": [
            "0x4afcb4a87cdbd9974efdb92ee48bc8d7cd0ae4bf217004db3d080cbaee652ca7"
          ],
          "data": "0x0000000000000000000000000000000000000000000000000000000067900a880000000000000000000000000000000000000000000000000004e7da2618237700000000000000000000000000000000000000000000000000000076831fd120",
          "blockHash": "0x3fe7d3774ca9ef9a42d0ecec51f0f6f1f3e8a892b570c2dec000106dc2f4033c",
          "blockNumber": "0x73167d",
          "transactionHash": "0xcdb9c8d74d1e3be56ddbf2ca5593d60eeac218ecfb21b9464510b086e95be5b4",
          "transactionIndex": "0x6d",
          "logIndex": "0x91",
          "removed": false
        }
      ],
      "logsBloom": "0x00000000000000000000000000000000000000000600000000000000000000000000000000000000000000000000000000000000000000004000000000000000000000000000004000000008000000000000000000000000000000000000000000000000020000000000000000000800020000000000000000000010000000000000000000000000000000000000000000000000000000000000010000000000000000000000000000000000000000004000000000000000000000000000000000000002000000800000000000000000000000000000080000000000000020000000000000000000000000000000000000000000000000000000000000000000",
      "type": "0x2",
      "transactionHash": "0xcdb9c8d74d1e3be56ddbf2ca5593d60eeac218ecfb21b9464510b086e95be5b4",
      "transactionIndex": "0x6d",
      "blockHash": "0x3fe7d3774ca9ef9a42d0ecec51f0f6f1f3e8a892b570c2dec000106dc2f4033c",
      "blockNumber": "0x73167d",
      "gasUsed": "0xfd33",
      "effectiveGasPrice": "0x3cdd6b03",
      "from": "0xc77f7fed3b5cc8249adc428c5f44c9063b9734b4",
      "to": "0x8aafd3ede9adb0ff97c7aebce82a919afb1c8764",
      "contractAddress": null
    }
  ],
  "libraries": [],
  "pending": [],
  "returns": {},
  "timestamp": 1737493129,
  "chain": 11155111,
  "commit": "1d2fb70"
}