{
  "transactions": [
    {
      "hash": "0xc0acf987bbab3bb30c090672112565a5ec46d17b6b2422c20bc622e20f8ba076",
      "transactionType": "CALL",
      "contractName": null,
      "contractAddress": "0x8aafd3ede9adb0ff97c7aebce82a919afb1c8764",
      "function": "sell(uint256)",
      "arguments": [
        "48738892"
      ],
      "transaction": {
        "from": "0xc77f7fed3b5cc8249adc428c5f44c9063b9734b4",
        "to": "0x8aafd3ede9adb0ff97c7aebce82a919afb1c8764",
        "gas": "0x15d88",
        "value": "0x0",
        "input": "0xe4849b320000000000000000000000000000000000000000000000000000000002e7b24c",
        "nonce": "0x15b0",
        "chainId": "0xaa36a7"
      },
      "additionalContracts": [],
      "isFixedGasLimit": false
    }
  ],
  "receipts": [
    {
      "status": "0x1",
      "cumulativeGasUsed": "0x18d6773",
      "logs": [
        {
          "address": "0x8aafd3ede9adb0ff97c7aebce82a919afb1c8764",
          "topics": [
            "0xddf252ad1be2c89b69c2b068fc378daa952ba7f163c4a11628f55a4df523b3ef",
            "0x000000000000000000000000c77f7fed3b5cc8249adc428c5f44c9063b9734b4",
            "0x0000000000000000000000000000000000000000000000000000000000000000"
          ],
          "data": "0x0000000000000000000000000000000000000000000000000000000002e1bf35",
          "blockHash": "0x06b1ba7620e457fff3853f41d5cec5214421ee225385ee360cd5c80af8777c59",
          "blockNumber": "0x731d29",
          "transactionHash": "0xc0acf987bbab3bb30c090672112565a5ec46d17b6b2422c20bc622e20f8ba076",
          "transactionIndex": "0xe8",
          "logIndex": "0x177",
          "removed": false
        },
        {
          "address": "0x8aafd3ede9adb0ff97c7aebce82a919afb1c8764",
          "topics": [
            "0xddf252ad1be2c89b69c2b068fc378daa952ba7f163c4a11628f55a4df523b3ef",
            "0x000000000000000000000000c77f7fed3b5cc8249adc428c5f44c9063b9734b4",
            "0x000000000000000000000000c77f7fed3b5cc8249adc428c5f44c9063b9734b4"
          ],
          "data": "0x000000000000000000000000000000000000000000000000000000000005f317",
          "blockHash": "0x06b1ba7620e457fff3853f41d5cec5214421ee225385ee360cd5c80af8777c59",
          "blockNumber": "0x731d29",
          "transactionHash": "0xc0acf987bbab3bb30c090672112565a5ec46d17b6b2422c20bc622e20f8ba076",
          "transactionIndex": "0xe8",
          "logIndex": "0x178",
          "removed": false
        },
        {
          "address": "0x8aafd3ede9adb0ff97c7aebce82a919afb1c8764",
          "topics": [
            "0x4afcb4a87cdbd9974efdb92ee48bc8d7cd0ae4bf217004db3d080cbaee652ca7"
          ],
          "data": "0x0000000000000000000000000000000000000000000000000000000067905ad40000000000000000000000000000000000000000000000000013143827bf6b7d000000000000000000000000000000000000000000000000000000000003fe6c",
          "blockHash": "0x06b1ba7620e457fff3853f41d5cec5214421ee225385ee360cd5c80af8777c59",
          "blockNumber": "0x731d29",
          "transactionHash": "0xc0acf987bbab3bb30c090672112565a5ec46d17b6b2422c20bc622e20f8ba076",
          "transactionIndex": "0xe8",
          "logIndex": "0x179",
          "removed": false
        }
      ],
      "logsBloom": "0x00000000000000000000000000000000000000000600000000000000000000000000000000000000000000000000000000000000000000004000000000000000000000000000004000000008000000000000000000000000000000000000000000000000020000000000000000000800020000000000000000000010000000000000000000000000000000000000000000000000000000000000010000000000000000000000000000000000000000004000000000000000000000000000000000000002000000800000000000000000000000000000080000000000000020000000000000000000000000000000000000000000000000000000000000000000",
      "type": "0x2",
      "transactionHash": "0xc0acf987bbab3bb30c090672112565a5ec46d17b6b2422c20bc622e20f8ba076",
      "transactionIndex": "0xe8",
      "blockHash": "0x06b1ba7620e457fff3853f41d5cec5214421ee225385ee360cd5c80af8777c59",
      "blockNumber": "0x731d29",
      "gasUsed": "0xfd0f",
      "effectiveGasPrice": "0x449e629b",
      "from": "0xc77f7fed3b5cc8249adc428c5f44c9063b9734b4",
      "to": "0x8aafd3ede9adb0ff97c7aebce82a919afb1c8764",
      "contractAddress": null
    }
  ],
  "libraries": [],
  "pending": [],
  "returns": {},
  "timestamp": 1737513687,
  "chain": 11155111,
  "commit": "1d2fb70"
}