{
  "transactions": [
    {
      "hash": "0xc76191330a51b6c2712bbf66a06fc3a1157ca1dbbdc2da7c9566cfa8686c1295",
      "transactionType": "CALL",
      "contractName": null,
      "contractAddress": "0x8aafd3ede9adb0ff97c7aebce82a919afb1c8764",
      "function": "sell(uint256)",
      "arguments": [
        "11699"
      ],
      "transaction": {
        "from": "0xc77f7fed3b5cc8249adc428c5f44c9063b9734b4",
        "to": "0x8aafd3ede9adb0ff97c7aebce82a919afb1c8764",
        "gas": "0x14e4c",
        "value": "0x0",
        "input": "0xe4849b320000000000000000000000000000000000000000000000000000000000002db3",
        "nonce": "0x1125",
        "chainId": "0xaa36a7"
      },
      "additionalContracts": [],
      "isFixedGasLimit": false
    }
  ],
  "receipts": [
    {
      "status": "0x1",
      "cumulativeGasUsed": "0xac75ad",
      "logs": [
        {
          "address": "0x8aafd3ede9adb0ff97c7aebce82a919afb1c8764",
          "topics": [
            "0xddf252ad1be2c89b69c2b068fc378daa952ba7f163c4a11628f55a4df523b3ef",
            "0x000000000000000000000000c77f7fed3b5cc8249adc428c5f44c9063b9734b4",
            "0x0000000000000000000000000000000000000000000000000000000000000000"
          ],
          "data": "0x0000000000000000000000000000000000000000000000000000000000002d56",
          "blockHash": "0xbab5544f8936750911bacddddc424eeadca39fe09557ed99c7ebe67243981ad7",
          "blockNumber": "0x7317da",
          "transactionHash": "0xc76191330a51b6c2712bbf66a06fc3a1157ca1dbbdc2da7c9566cfa8686c1295",
          "transactionIndex": "0x92",
          "logIndex": "0x9e",
          "removed": false
        },
        {
          "address": "0x8aafd3ede9adb0ff97c7aebce82a919afb1c8764",
          "topics": [
            "0xddf252ad1be2c89b69c2b068fc378daa952ba7f163c4a11628f55a4df523b3ef",
            "0x000000000000000000000000c77f7fed3b5cc8249adc428c5f44c9063b9734b4",
            "0x000000000000000000000000c77f7fed3b5cc8249adc428c5f44c9063b9734b4"
          ],
          "data": "0x000000000000000000000000000000000000000000000000000000000000005d",
          "blockHash": "0xbab5544f8936750911bacddddc424eeadca39fe09557ed99c7ebe67243981ad7",
          "blockNumber": "0x7317da",
          "transactionHash": "0xc76191330a51b6c2712bbf66a06fc3a1157ca1dbbdc2da7c9566cfa8686c1295",
          "transactionIndex": "0x92",
          "logIndex": "0x9f",
          "removed": false
        },
        {
          "address": "0x8aafd3ede9adb0ff97c7aebce82a919afb1c8764",
          "topics": [
            "0x4afcb4a87cdbd9974efdb92ee48bc8d7cd0ae4bf217004db3d080cbaee652ca7"
          ],
          "data": "0x0000000000000000000000000000000000000000000000000000000067901afc00000000000000000000000000000000000000000000000000051084492f9cb60000000000000000000000000000000000000000000000000000000000000010",
          "blockHash": "0xbab5544f8936750911bacddddc424eeadca39fe09557ed99c7ebe67243981ad7",
          "blockNumber": "0x7317da",
          "transactionHash": "0xc76191330a51b6c2712bbf66a06fc3a1157ca1dbbdc2da7c9566cfa8686c1295",
          "transactionIndex": "0x92",
          "logIndex": "0xa0",
          "removed": false
        }
      ],
      "logsBloom": "0x00000000000000000000000000000000000000000600000000000000000000000000000000000000000000000000000000000000000000004000000000000000000000000000004000000008000000000000000000000000000000000000000000000000020000000000000000000800020000000000000000000010000000000000000000000000000000000000000000000000000000000000010000000000000000000000000000000000000000004000000000000000000000000000000000000002000000800000000000000000000000000000080000000000000020000000000000000000000000000000000000000000000000000000000000000000",
      "type": "0x2",
      "transactionHash": "0xc76191330a51b6c2712bbf66a06fc3a1157ca1dbbdc2da7c9566cfa8686c1295",
      "transactionIndex": "0x92",
      "blockHash": "0xbab5544f8936750911bacddddc424eeadca39fe09557ed99c7ebe67243981ad7",
      "blockNumber": "0x7317da",
      "gasUsed": "0xf207",
      "effectiveGasPrice": "0x447065cc",
      "from": "0xc77f7fed3b5cc8249adc428c5f44c9063b9734b4",
      "to": "0x8aafd3ede9adb0ff97c7aebce82a919afb1c8764",
      "contractAddress": null
    }
  ],
  "libraries": [],
  "pending": [],
  "returns": {},
  "timestamp": 1737497342,
  "chain": 11155111,
  "commit": "1d2fb70"
}