{
  "transactions": [
    {
      "hash": "0xfcaed66d4690f561d9415198225b21c36dd093dbd09d634ed19040bda612fecf",
      "transactionType": "CALL",
      "contractName": null,
      "contractAddress": "0x8aafd3ede9adb0ff97c7aebce82a919afb1c8764",
      "function": "buy(address)",
      "arguments": [
        "0xC77f7fed3b5Cc8249aDc428c5F44C9063B9734b4"
      ],
      "transaction": {
        "from": "0xc77f7fed3b5cc8249adc428c5f44c9063b9734b4",
        "to": "0x8aafd3ede9adb0ff97c7aebce82a919afb1c8764",
        "gas": "0x156ea",
        "value": "0xde0b6b3a7640000",
        "input": "0xf088d547000000000000000000000000c77f7fed3b5cc8249adc428c5f44c9063b9734b4",
        "nonce": "0x171a",
        "chainId": "0xaa36a7"
      },
      "additionalContracts": [],
      "isFixedGasLimit": false
    }
  ],
  "receipts": [
    {
      "status": "0x1",
      "cumulativeGasUsed": "0xb72614",
      "logs": [
        {
          "address": "0x8aafd3ede9adb0ff97c7aebce82a919afb1c8764",
          "topics": [
            "0xddf252ad1be2c89b69c2b068fc378daa952ba7f163c4a11628f55a4df523b3ef",
            "0x0000000000000000000000000000000000000000000000000000000000000000",
            "0x000000000000000000000000c77f7fed3b5cc8249adc428c5f44c9063b9734b4"
          ],
          "data": "0x0000000000000000000000000000000000000000000000083186191406a35d27",
          "blockHash": "0x9a2887b132749ecb3425ad41f03d1b492688f4e4b287caadb1b6dfd968f66d19",
          "blockNumber": "0x731ee0",
          "transactionHash": "0xfcaed66d4690f561d9415198225b21c36dd093dbd09d634ed19040bda612fecf",
          "transactionIndex": "0x7a",
          "logIndex": "0x85",
          "removed": false
        },
        {
          "address": "0x8aafd3ede9adb0ff97c7aebce82a919afb1c8764",
          "topics": [
            "0xddf252ad1be2c89b69c2b068fc378daa952ba7f163c4a11628f55a4df523b3ef",
            "0x0000000000000000000000000000000000000000000000000000000000000000",
            "0x000000000000000000000000c77f7fed3b5cc8249adc428c5f44c9063b9734b4"
          ],
          "data": "0x000000000000000000000000000000000000000000000000065ccc7dac435ee3",
          "blockHash": "0x9a2887b132749ecb3425ad41f03d1b492688f4e4b287caadb1b6dfd968f66d19",
          "blockNumber": "0x731ee0",
          "transactionHash": "0xfcaed66d4690f561d9415198225b21c36dd093dbd09d634ed19040bda612fecf",
          "transactionIndex": "0x7a",
          "logIndex": "0x86",
          "removed": false
        },
        {
          "address": "0x8aafd3ede9adb0ff97c7aebce82a919afb1c8764",
          "topics": [
            "0x4afcb4a87cdbd9974efdb92ee48bc8d7cd0ae4bf217004db3d080cbaee652ca7"
          ],
          "data": "0x0000000000000000000000000000000000000000000000000000000067906f6800000000000000000000000000000000000000000000000000174c2ecdaae1020000000000000000000000000000000000000000000000000de0b6b3a7640000",
          "blockHash": "0x9a2887b132749ecb3425ad41f03d1b492688f4e4b287caadb1b6dfd968f66d19",
          "blockNumber": "0x731ee0",
          "transactionHash": "0xfcaed66d4690f561d9415198225b21c36dd093dbd09d634ed19040bda612fecf",
          "transactionIndex": "0x7a",
          "logIndex": "0x87",
          "removed": false
        }
      ],
      "logsBloom": "0x00000000000000000000000000000000000000000600000000000000000000000000000000000000000000000000000000000000000000004000000000000000000000000000004000000008000000000000000000000000000000000000000000000000020000000000000000000800020000000000000000000010000000000000000000000000000000000000000000000000000000000000010000000000000000000000000000000000000000004000000000000000000000000000000000000002000000800000000000000000000000000000080000000000000020000000000000000000000000000000000000000000000000000000000000000000",
      "type": "0x2",
      "transactionHash": "0xfcaed66d4690f561d9415198225b21c36dd093dbd09d634ed19040bda612fecf",
      "transactionIndex": "0x7a",
      "blockHash": "0x9a2887b132749ecb3425ad41f03d1b492688f4e4b287caadb1b6dfd968f66d19",
      "blockNumber": "0x731ee0",
      "gasUsed": "0xf844",
      "effectiveGasPrice": "0x44f43636",
      "from": "0xc77f7fed3b5cc8249adc428c5f44c9063b9734b4",
      "to": "0x8aafd3ede9adb0ff97c7aebce82a919afb1c8764",
      "contractAddress": null
    }
  ],
  "libraries": [],
  "pending": [],
  "returns": {},
  "timestamp": 1737518953,
  "chain": 11155111,
  "commit": "1d2fb70"
}