{
  "transactions": [
    {
      "hash": "0x733f874967b23782deff309083434967b4d984726a557cfa9afb631c9c6b0fa1",
      "transactionType": "CALL",
      "contractName": null,
      "contractAddress": "0x8aafd3ede9adb0ff97c7aebce82a919afb1c8764",
      "function": "buy(address)",
      "arguments": [
        "0xC77f7fed3b5Cc8249aDc428c5F44C9063B9734b4"
      ],
      "transaction": {
        "from": "0xc77f7fed3b5cc8249adc428c5f44c9063b9734b4",
        "to": "0x8aafd3ede9adb0ff97c7aebce82a919afb1c8764",
        "gas": "0x156ea",
        "value": "0xde0b6b3a7640000",
        "input": "0xf088d547000000000000000000000000c77f7fed3b5cc8249adc428c5f44c9063b9734b4",
        "nonce": "0x122a",
        "chainId": "0xaa36a7"
      },
      "additionalContracts": [],
      "isFixedGasLimit": false
    }
  ],
  "receipts": [
    {
      "status": "0x1",
      "cumulativeGasUsed": "0x759ea5",
      "logs": [
        {
          "address": "0x8aafd3ede9adb0ff97c7aebce82a919afb1c8764",
          "topics": [
            "0xddf252ad1be2c89b69c2b068fc378daa952ba7f163c4a11628f55a4df523b3ef",
            "0x0000000000000000000000000000000000000000000000000000000000000000",
            "0x000000000000000000000000c77f7fed3b5cc8249adc428c5f44c9063b9734b4"
          ],
          "data": "0x00000000000000000000000000000000000000000000002494f076c3992b06ac",
          "blockHash": "0x2a0399623394b1554112c3bd96b7b9632213390a6073ddcf1a2572bcd3d6872b",
          "blockNumber": "0x731908",
          "transactionHash": "0x733f874967b23782deff309083434967b4d984726a557cfa9afb631c9c6b0fa1",
          "transactionIndex": "0x66",
          "logIndex": "0x82",
          "removed": false
        },
        {
          "address": "0x8aafd3ede9adb0ff97c7aebce82a919afb1c8764",
          "topics": [
            "0xddf252ad1be2c89b69c2b068fc378daa952ba7f163c4a11628f55a4df523b3ef",
            "0x0000000000000000000000000000000000000000000000000000000000000000",
            "0x000000000000000000000000c77f7fed3b5cc8249adc428c5f44c9063b9734b4"
          ],
          "data": "0x0000000000000000000000000000000000000000000000001c6831df3fba9588",
          "blockHash": "0x2a0399623394b1554112c3bd96b7b9632213390a6073ddcf1a2572bcd3d6872b",
          "blockNumber": "0x731908",
          "transactionHash": "0x733f874967b23782deff309083434967b4d984726a557cfa9afb631c9c6b0fa1",
          "transactionIndex": "0x66",
          "logIndex": "0x83",
          "removed": false
        },
        {
          "address": "0x8aafd3ede9adb0ff97c7aebce82a919afb1c8764",
          "topics": [
            "0x4afcb4a87cdbd9974efdb92ee48bc8d7cd0ae4bf217004db3d080cbaee652ca7"
          ],
          "data": "0x0000000000000000000000000000000000000000000000000000000067902930000000000000000000000000000000000000000000000000000536b3906e8b230000000000000000000000000000000000000000000000000de0b6b3a7640000",
          "blockHash": "0x2a0399623394b1554112c3bd96b7b9632213390a6073ddcf1a2572bcd3d6872b",
          "blockNumber": "0x731908",
          "transactionHash": "0x733f874967b23782deff309083434967b4d984726a557cfa9afb631c9c6b0fa1",
          "transactionIndex": "0x66",
          "logIndex": "0x84",
          "removed": false
        }
      ],
      "logsBloom": "0x00000000000000000000000000000000000000000600000000000000000000000000000000000000000000000000000000000000000000004000000000000000000000000000004000000008000000000000000000000000000000000000000000000000020000000000000000000800020000000000000000000010000000000000000000000000000000000000000000000000000000000000010000000000000000000000000000000000000000004000000000000000000000000000000000000002000000800000000000000000000000000000080000000000000020000000000000000000000000000000000000000000000000000000000000000000",
      "type": "0x2",
      "transactionHash": "0x733f874967b23782deff309083434967b4d984726a557cfa9afb631c9c6b0fa1",
      "transactionIndex": "0x66",
      "blockHash": "0x2a0399623394b1554112c3bd96b7b9632213390a6073ddcf1a2572bcd3d6872b",
      "blockNumber": "0x731908",
      "gasUsed": "0xf844",
      "effectiveGasPrice": "0x5737b8dd",
      "from": "0xc77f7fed3b5cc8249adc428c5f44c9063b9734b4",
      "to": "0x8aafd3ede9adb0ff97c7aebce82a919afb1c8764",
      "contractAddress": null
    }
  ],
  "libraries": [],
  "pending": [],
  "returns": {},
  "timestamp": 1737500977,
  "chain": 11155111,
  "commit": "1d2fb70"
}