{
  "transactions": [
    {
      "hash": "0x4efe645eb80f34d3df9aa2da993b590a27f75cf684010c1749c2df26d574a880",
      "transactionType": "CALL",
      "contractName": null,
      "contractAddress": "0x8aafd3ede9adb0ff97c7aebce82a919afb1c8764",
      "function": "sell(uint256)",
      "arguments": [
        "5438586673817185958"
      ],
      "transaction": {
        "from": "0xc77f7fed3b5cc8249adc428c5f44c9063b9734b4",
        "to": "0x8aafd3ede9adb0ff97c7aebce82a919afb1c8764",
        "gas": "0x15dca",
        "value": "0x0",
        "input": "0xe4849b320000000000000000000000000000000000000000000000004b79bdc3d50beea6",
        "nonce": "0x1204",
        "chainId": "0xaa36a7"
      },
      "additionalContracts": [],
      "isFixedGasLimit": false
    }
  ],
  "receipts": [
    {
      "status": "0x1",
      "cumulativeGasUsed": "0x7e3f7f",
      "logs": [
        {
          "address": "0x8aafd3ede9adb0ff97c7aebce82a919afb1c8764",
          "topics": [
            "0xddf252ad1be2c89b69c2b068fc378daa952ba7f163c4a11628f55a4df523b3ef",
            "0x000000000000000000000000c77f7fed3b5cc8249adc428c5f44c9063b9734b4",
            "0x0000000000000000000000000000000000000000000000000000000000000000"
          ],
          "data": "0x0000000000000000000000000000000000000000000000004adf2ad6bedcbb97",
          "blockHash": "0x84baeb4dcc4e30a185961f631d70df6d6a85a2da5daab569e0f3b7f8ef2307a0",
          "blockNumber": "0x7318df",
          "transactionHash": "0x4efe645eb80f34d3df9aa2da993b590a27f75cf684010c1749c2df26d574a880",
          "transactionIndex": "0x73",
          "logIndex": "0x98",
          "removed": false
        },
        {
          "address": "0x8aafd3ede9adb0ff97c7aebce82a919afb1c8764",
          "topics": [
            "0xddf252ad1be2c89b69c2b068fc378daa952ba7f163c4a11628f55a4df523b3ef",
            "0x000000000000000000000000c77f7fed3b5cc8249adc428c5f44c9063b9734b4",
            "0x000000000000000000000000c77f7fed3b5cc8249adc428c5f44c9063b9734b4"
          ],
          "data": "0x000000000000000000000000000000000000000000000000009a92ed162f330f",
          "blockHash": "0x84baeb4dcc4e30a185961f631d70df6d6a85a2da5daab569e0f3b7f8ef2307a0",
          "blockNumber": "0x7318df",
          "transactionHash": "0x4efe645eb80f34d3df9aa2da993b590a27f75cf684010c1749c2df26d574a880",
          "transactionIndex": "0x73",
          "logIndex": "0x99",
          "removed": false
        },
        {
          "address": "0x8aafd3ede9adb0ff97c7aebce82a919afb1c8764",
          "topics": [
            "0x4afcb4a87cdbd9974efdb92ee48bc8d7cd0ae4bf217004db3d080cbaee652ca7"
          ],
          "data": "0x0000000000000000000000000000000000000000000000000000000067902744000000000000000000000000000000000000000000000000000531ee91c46965000000000000000000000000000000000000000000000000001c40e7a7e45123",
          "blockHash": "0x84baeb4dcc4e30a185961f631d70df6d6a85a2da5daab569e0f3b7f8ef2307a0",
          "blockNumber": "0x7318df",
          "transactionHash": "0x4efe645eb80f34d3df9aa2da993b590a27f75cf684010c1749c2df26d574a880",
          "transactionIndex": "0x73",
          "logIndex": "0x9a",
          "removed": false
        }
      ],
      "logsBloom": "0x00000000000000000000000000000000000000000600000000000000000000000000000000000000000000000000000000000000000000004000000000000000000000000000004000000008000000000000000000000000000000000000000000000000020000000000000000000800020000000000000000000010000000000000000000000000000000000000000000000000000000000000010000000000000000000000000000000000000000004000000000000000000000000000000000000002000000800000000000000000000000000000080000000000000020000000000000000000000000000000000000000000000000000000000000000000",
      "type": "0x2",
      "transactionHash": "0x4efe645eb80f34d3df9aa2da993b590a27f75cf684010c1749c2df26d574a880",
      "transactionIndex": "0x73",
      "blockHash": "0x84baeb4dcc4e30a185961f631d70df6d6a85a2da5daab569e0f3b7f8ef2307a0",
      "blockNumber": "0x7318df",
      "gasUsed": "0xfd3f",
      "effectiveGasPrice": "0x407cb1ab",
      "from": "0xc77f7fed3b5cc8249adc428c5f44c9063b9734b4",
      "to": "0x8aafd3ede9adb0ff97c7aebce82a919afb1c8764",
      "contractAddress": null
    }
  ],
  "libraries": [],
  "pending": [],
  "returns": {},
  "timestamp": 1737500486,
  "chain": 11155111,
  "commit": "1d2fb70"
}