{
  "transactions": [
    {
      "hash": "0x7465aa50b15717161dfe8225315ddc23de98b045babb94ecc52692607eb35c92",
      "transactionType": "CALL",
      "contractName": null,
      "contractAddress": "0x8aafd3ede9adb0ff97c7aebce82a919afb1c8764",
      "function": "sell(uint256)",
      "arguments": [
        "749190221422"
      ],
      "transaction": {
        "from": "0xc77f7fed3b5cc8249adc428c5f44c9063b9734b4",
        "to": "0x8aafd3ede9adb0ff97c7aebce82a919afb1c8764",
        "gas": "0x1722a",
        "value": "0x0",
        "input": "0xe4849b32000000000000000000000000000000000000000000000000000000ae6f378e6e",
        "nonce": "0x15c9",
        "chainId": "0xaa36a7"
      },
      "additionalContracts": [],
      "isFixedGasLimit": false
    }
  ],
  "receipts": [
    {
      "status": "0x1",
      "cumulativeGasUsed": "0x8fd2de",
      "logs": [
        {
          "address": "0x8aafd3ede9adb0ff97c7aebce82a919afb1c8764",
          "topics": [
            "0xddf252ad1be2c89b69c2b068fc378daa952ba7f163c4a11628f55a4df523b3ef",
            "0x000000000000000000000000c77f7fed3b5cc8249adc428c5f44c9063b9734b4",
            "0x0000000000000000000000000000000000000000000000000000000000000000"
          ],
          "data": "0x000000000000000000000000000000000000000000000000000000ad09f9ac03",
          "blockHash": "0xc4c474a3908aa53744a8e2e3546b80dfe8327cc9b3f23f48cf07c8968a92972c",
          "blockNumber": "0x731d44",
          "transactionHash": "0x7465aa50b15717161dfe8225315ddc23de98b045babb94ecc52692607eb35c92",
          "transactionIndex": "0x5c",
          "logIndex": "0x67",
          "removed": false
        },
        {
          "address": "0x8aafd3ede9adb0ff97c7aebce82a919afb1c8764",
          "topics": [
            "0xddf252ad1be2c89b69c2b068fc378daa952ba7f163c4a11628f55a4df523b3ef",
            "0x000000000000000000000000c77f7fed3b5cc8249adc428c5f44c9063b9734b4",
            "0x000000000000000000000000c77f7fed3b5cc8249adc428c5f44c9063b9734b4"
          ],
          "data": "0x00000000000000000000000000000000000000000000000000000001653de26b",
          "blockHash": "0xc4c474a3908aa53744a8e2e3546b80dfe8327cc9b3f23f48cf07c8968a92972c",
          "blockNumber": "0x731d44",
          "transactionHash": "0x7465aa50b15717161dfe8225315ddc23de98b045babb94ecc52692607eb35c92",
          "transactionIndex": "0x5c",
          "logIndex": "0x68",
          "removed": false
        },
        {
          "address": "0x8aafd3ede9adb0ff97c7aebce82a919afb1c8764",
          "topics": [
            "0x4afcb4a87cdbd9974efdb92ee48bc8d7cd0ae4bf217004db3d080cbaee652ca7"
          ],
          "data": "0x0000000000000000000000000000000000000000000000000000000067905c1800000000000000000000000000000000000000000000000000136458b8c6d5b200000000000000000000000000000000000000000000000000000000f3be7dc2",
          "blockHash": "0xc4c474a3908aa53744a8e2e3546b80dfe8327cc9b3f23f48cf07c8968a92972c",
          "blockNumber": "0x731d44",
          "transactionHash": "0x7465aa50b15717161dfe8225315ddc23de98b045babb94ecc52692607eb35c92",
          "transactionIndex": "0x5c",
          "logIndex": "0x69",
          "removed": false
        }
      ],
      "logsBloom": "0x00000000000000000000000000000000000000000600000000000000000000000000000000000000000000000000000000000000000000004000000000000000000000000000004000000008000000000000000000000000000000000000000000000000020000000000000000000800020000000000000000000010000000000000000000000000000000000000000000000000000000000000010000000000000000000000000000000000000000004000000000000000000000000000000000000002000000800000000000000000000000000000080000000000000020000000000000000000000000000000000000000000000000000000000000000000",
      "type": "0x2",
      "transactionHash": "0x7465aa50b15717161dfe8225315ddc23de98b045babb94ecc52692607eb35c92",
      "transactionIndex": "0x5c",
      "blockHash": "0xc4c474a3908aa53744a8e2e3546b80dfe8327cc9b3f23f48cf07c8968a92972c",
      "blockNumber": "0x731d44",
      "gasUsed": "0xfd1b",
      "effectiveGasPrice": "0x6f1f3b94",
      "from": "0xc77f7fed3b5cc8249adc428c5f44c9063b9734b4",
      "to": "0x8aafd3ede9adb0ff97c7aebce82a919afb1c8764",
      "contractAddress": null
    }
  ],
  "libraries": [],
  "pending": [],
  "returns": {},
  "timestamp": 1737514011,
  "chain": 11155111,
  "commit": "1d2fb70"
}