{
  "transactions": [
    {
      "hash": "0x10e674d1450a1a6eec568e60f440ccd67dadf4dc3a27444e7a8a123a53285521",
      "transactionType": "CALL",
      "contractName": null,
      "contractAddress": "0x270e88f8683660553e8ba4eb2ad7c91a1710d769",
      "function": "buy(address)",
      "arguments": [
        "0xC77f7fed3b5Cc8249aDc428c5F44C9063B9734b4"
      ],
      "transaction": {
        "from": "0xc77f7fed3b5cc8249adc428c5f44c9063b9734b4",
        "to": "0x270e88f8683660553e8ba4eb2ad7c91a1710d769",
        "gas": "0x1b30c",
        "value": "0xde0b6b3a7640000",
        "input": "0xf088d547000000000000000000000000c77f7fed3b5cc8249adc428c5f44c9063b9734b4",
        "nonce": "0x630",
        "chainId": "0xaa36a7"
      },
      "additionalContracts": [],
      "isFixedGasLimit": false
    }
  ],
  "receipts": [
    {
      "status": "0x1",
      "cumulativeGasUsed": "0x16a5e70",
      "logs": [
        {
          "address": "0x270e88f8683660553e8ba4eb2ad7c91a1710d769",
          "topics": [
            "0xddf252ad1be2c89b69c2b068fc378daa952ba7f163c4a11628f55a4df523b3ef",
            "0x0000000000000000000000000000000000000000000000000000000000000000",
            "0x000000000000000000000000c77f7fed3b5cc8249adc428c5f44c9063b9734b4"
          ],
          "data": "0x000000000000000000000000000000000000000000000032d2c4ffac2862398c",
          "blockHash": "0x00ebd68669d310bfb739def9b551da7c3fc289095e8990fdb1070c9e4181c72d",
          "blockNumber": "0x725301",
          "transactionHash": "0x10e674d1450a1a6eec568e60f440ccd67dadf4dc3a27444e7a8a123a53285521",
          "transactionIndex": "0x57",
          "logIndex": "0xd4",
          "removed": false
        },
        {
          "address": "0x270e88f8683660553e8ba4eb2ad7c91a1710d769",
          "topics": [
            "0xddf252ad1be2c89b69c2b068fc378daa952ba7f163c4a11628f55a4df523b3ef",
            "0x0000000000000000000000000000000000000000000000000000000000000000",
            "0x000000000000000000000000c77f7fed3b5cc8249adc428c5f44c9063b9734b4"
          ],
          "data": "0x00000000000000000000000000000000000000000000000027774e6bd2ddb808",
          "blockHash": "0x00ebd68669d310bfb739def9b551da7c3fc289095e8990fdb1070c9e4181c72d",
          "blockNumber": "0x725301",
          "transactionHash": "0x10e674d1450a1a6eec568e60f440ccd67dadf4dc3a27444e7a8a123a53285521",
          "transactionIndex": "0x57",
          "logIndex": "0xd5",
          "removed": false
        },
        {
          "address": "0x270e88f8683660553e8ba4eb2ad7c91a1710d769",
          "topics": [
            "0x4afcb4a87cdbd9974efdb92ee48bc8d7cd0ae4bf217004db3d080cbaee652ca7"
          ],
          "data": "0x000000000000000000000000000000000000000000000000000000006786d6140000000000000000000000000000000000000000000000000003c08166f7f9a50000000000000000000000000000000000000000000000000de0b6b3a7640000",
          "blockHash": "0x00ebd68669d310bfb739def9b551da7c3fc289095e8990fdb1070c9e4181c72d",
          "blockNumber": "0x725301",
          "transactionHash": "0x10e674d1450a1a6eec568e60f440ccd67dadf4dc3a27444e7a8a123a53285521",
          "transactionIndex": "0x57",
          "logIndex": "0xd6",
          "removed": false
        }
      ],
      "logsBloom": "0x00000000000000000000000000000000000000000000000000000000000000000000000000000000000000000000000020000000000000004000000000000000000000000000000000000008000000000000000000000000000000000000000000000000020000000000000000000800020000000000000000000010000000000000000000010000000000000000000000000000000000000000010000000000000000000000000000000000000000004000000000000000000000000000000000000002000000800000000000000000000000000000080000008000000020000000000000000000000000000000000000000000000000000000000000000000",
      "type": "0x2",
      "transactionHash": "0x10e674d1450a1a6eec568e60f440ccd67dadf4dc3a27444e7a8a123a53285521",
      "transactionIndex": "0x57",
      "blockHash": "0x00ebd68669d310bfb739def9b551da7c3fc289095e8990fdb1070c9e4181c72d",
      "blockNumber": "0x725301",
      "gasUsed": "0x13af8",
      "effectiveGasPrice": "0x29a82d69f",
      "from": "0xc77f7fed3b5cc8249adc428c5f44c9063b9734b4",
      "to": "0x270e88f8683660553e8ba4eb2ad7c91a1710d769",
      "contractAddress": null
    }
  ],
  "libraries": [],
  "pending": [],
  "returns": {},
  "timestamp": 1736889876,
  "chain": 11155111,
  "commit": "51a374b"
}