{
  "transactions": [
    {
      "hash": "0x2681461c648357a1970323b23e7f1e4f80b52a863e77a4c9afa372789c644c98",
      "transactionType": "CALL",
      "contractName": null,
      "contractAddress": "0x8aafd3ede9adb0ff97c7aebce82a919afb1c8764",
      "function": "sell(uint256)",
      "arguments": [
        "673926068839050127108"
      ],
      "transaction": {
        "from": "0xc77f7fed3b5cc8249adc428c5f44c9063b9734b4",
        "to": "0x8aafd3ede9adb0ff97c7aebce82a919afb1c8764",
        "gas": "0x17270",
        "value": "0x0",
        "input": "0xe4849b32000000000000000000000000000000000000000000000024889a5cfeeb082704",
        "nonce": "0x1253",
        "chainId": "0xaa36a7"
      },
      "additionalContracts": [],
      "isFixedGasLimit": false
    }
  ],
  "receipts": [
    {
      "status": "0x1",
      "cumulativeGasUsed": "0xc38e50",
      "logs": [
        {
          "address": "0x8aafd3ede9adb0ff97c7aebce82a919afb1c8764",
          "topics": [
            "0xddf252ad1be2c89b69c2b068fc378daa952ba7f163c4a11628f55a4df523b3ef",
            "0x000000000000000000000000c77f7fed3b5cc8249adc428c5f44c9063b9734b4",
            "0x0000000000000000000000000000000000000000000000000000000000000000"
          ],
          "data": "0x0000000000000000000000000000000000000000000000243dc83b7bdad0ca8c",
          "blockHash": "0x9138d686d9de51e54f1a9738a0b1a8058d1cb7d2fc56c81aad673025422736ab",
          "blockNumber": "0x731937",
          "transactionHash": "0x2681461c648357a1970323b23e7f1e4f80b52a863e77a4c9afa372789c644c98",
          "transactionIndex": "0x88",
          "logIndex": "0xad",
          "removed": false
        },
        {
          "address": "0x8aafd3ede9adb0ff97c7aebce82a919afb1c8764",
          "topics": [
            "0xddf252ad1be2c89b69c2b068fc378daa952ba7f163c4a11628f55a4df523b3ef",
            "0x000000000000000000000000c77f7fed3b5cc8249adc428c5f44c9063b9734b4",
            "0x000000000000000000000000c77f7fed3b5cc8249adc428c5f44c9063b9734b4"
          ],
          "data": "0x0000000000000000000000000000000000000000000000004ad2218310375c78",
          "blockHash": "0x9138d686d9de51e54f1a9738a0b1a8058d1cb7d2fc56c81aad673025422736ab",
          "blockNumber": "0x731937",
          "transactionHash": "0x2681461c648357a1970323b23e7f1e4f80b52a863e77a4c9afa372789c644c98",
          "transactionIndex": "0x88",
          "logIndex": "0xae",
          "removed": false
        },
        {
          "address": "0x8aafd3ede9adb0ff97c7aebce82a919afb1c8764",
          "topics": [
            "0x4afcb4a87cdbd9974efdb92ee48bc8d7cd0ae4bf217004db3d080cbaee652ca7"
          ],
          "data": "0x0000000000000000000000000000000000000000000000000000000067902b6400000000000000000000000000000000000000000000000000053d8c7d2df8660000000000000000000000000000000000000000000000000dc8ef6fe2d90845",
          "blockHash": "0x9138d686d9de51e54f1a9738a0b1a8058d1cb7d2fc56c81aad673025422736ab",
          "blockNumber": "0x731937",
          "transactionHash": "0x2681461c648357a1970323b23e7f1e4f80b52a863e77a4c9afa372789c644c98",
          "transactionIndex": "0x88",
          "logIndex": "0xaf",
          "removed": false
        }
      ],
      "logsBloom": "0x00000000000000000000000000000000000000000600000000000000000000000000000000000000000000000000000000000000000000004000000000000000000000000000004000000008000000000000000000000000000000000000000000000000020000000000000000000800020000000000000000000010000000000000000000000000000000000000000000000000000000000000010000000000000000000000000000000000000000004000000000000000000000000000000000000002000000800000000000000000000000000000080000000000000020000000000000000000000000000000000000000000000000000000000000000000",
      "type": "0x2",
      "transactionHash": "0x2681461c648357a1970323b23e7f1e4f80b52a863e77a4c9afa372789c644c98",
      "transactionIndex": "0x88",
      "blockHash": "0x9138d686d9de51e54f1a9738a0b1a8058d1cb7d2fc56c81aad673025422736ab",
      "blockNumber": "0x731937",
      "gasUsed": "0xfd4b",
      "effectiveGasPrice": "0x3bce6436",
      "from": "0xc77f7fed3b5cc8249adc428c5f44c9063b9734b4",
      "to": "0x8aafd3ede9adb0ff97c7aebce82a919afb1c8764",
      "contractAddress": null
    }
  ],
  "libraries": [],
  "pending": [],
  "returns": {},
  "timestamp": 1737501541,
  "chain": 11155111,
  "commit": "1d2fb70"
}