{
  "transactions": [
    {
      "hash": "0x0d3c09a7b4d34c1315562b36fa29c50477323b60477d8443e636e0166f4f6d94",
      "transactionType": "CALL",
      "contractName": null,
      "contractAddress": "0x8aafd3ede9adb0ff97c7aebce82a919afb1c8764",
      "function": "sell(uint256)",
      "arguments": [
        "2075518740411315760"
      ],
      "transaction": {
        "from": "0xc77f7fed3b5cc8249adc428c5f44c9063b9734b4",
        "to": "0x8aafd3ede9adb0ff97c7aebce82a919afb1c8764",
        "gas": "0x15dca",
        "value": "0x0",
        "input": "0xe4849b320000000000000000000000000000000000000000000000001ccdb94c3ee1f630",
        "nonce": "0x13d7",
        "chainId": "0xaa36a7"
      },
      "additionalContracts": [],
      "isFixedGasLimit": false
    }
  ],
  "receipts": [
    {
      "status": "0x1",
      "cumulativeGasUsed": "0xed174e",
      "logs": [
        {
          "address": "0x8aafd3ede9adb0ff97c7aebce82a919afb1c8764",
          "topics": [
            "0xddf252ad1be2c89b69c2b068fc378daa952ba7f163c4a11628f55a4df523b3ef",
            "0x000000000000000000000000c77f7fed3b5cc8249adc428c5f44c9063b9734b4",
            "0x0000000000000000000000000000000000000000000000000000000000000000"
          ],
          "data": "0x0000000000000000000000000000000000000000000000001c92bbe954e85892",
          "blockHash": "0x45b1906bf67c568a43a6e00d0af25458dc99429100e8667038c35e43aaf3d13d",
          "blockNumber": "0x731b04",
          "transactionHash": "0x0d3c09a7b4d34c1315562b36fa29c50477323b60477d8443e636e0166f4f6d94",
          "transactionIndex": "0x69",
          "logIndex": "0x64",
          "removed": false
        },
        {
          "address": "0x8aafd3ede9adb0ff97c7aebce82a919afb1c8764",
          "topics": [
            "0xddf252ad1be2c89b69c2b068fc378daa952ba7f163c4a11628f55a4df523b3ef",
            "0x000000000000000000000000c77f7fed3b5cc8249adc428c5f44c9063b9734b4",
            "0x000000000000000000000000c77f7fed3b5cc8249adc428c5f44c9063b9734b4"
          ],
          "data": "0x000000000000000000000000000000000000000000000000003afd62e9f99d9e",
          "blockHash": "0x45b1906bf67c568a43a6e00d0af25458dc99429100e8667038c35e43aaf3d13d",
          "blockNumber": "0x731b04",
          "transactionHash": "0x0d3c09a7b4d34c1315562b36fa29c50477323b60477d8443e636e0166f4f6d94",
          "transactionIndex": "0x69",
          "logIndex": "0x65",
          "removed": false
        },
        {
          "address": "0x8aafd3ede9adb0ff97c7aebce82a919afb1c8764",
          "topics": [
            "0x4afcb4a87cdbd9974efdb92ee48bc8d7cd0ae4bf217004db3d080cbaee652ca7"
          ],
          "data": "0x0000000000000000000000000000000000000000000000000000000067904100000000000000000000000000000000000000000000000000000db34b1b24e53a000000000000000000000000000000000000000000000000001c6f1ecacc7fe8",
          "blockHash": "0x45b1906bf67c568a43a6e00d0af25458dc99429100e8667038c35e43aaf3d13d",
          "blockNumber": "0x731b04",
          "transactionHash": "0x0d3c09a7b4d34c1315562b36fa29c50477323b60477d8443e636e0166f4f6d94",
          "transactionIndex": "0x69",
          "logIndex": "0x66",
          "removed": false
        }
      ],
      "logsBloom": "0x00000000000000000000000000000000000000000600000000000000000000000000000000000000000000000000000000000000000000004000000000000000000000000000004000000008000000000000000000000000000000000000000000000000020000000000000000000800020000000000000000000010000000000000000000000000000000000000000000000000000000000000010000000000000000000000000000000000000000004000000000000000000000000000000000000002000000800000000000000000000000000000080000000000000020000000000000000000000000000000000000000000000000000000000000000000",
      "type": "0x2",
      "transactionHash": "0x0d3c09a7b4d34c1315562b36fa29c50477323b60477d8443e636e0166f4f6d94",
      "transactionIndex": "0x69",
      "blockHash": "0x45b1906bf67c568a43a6e00d0af25458dc99429100e8667038c35e43aaf3d13d",
      "blockNumber": "0x731b04",
      "gasUsed": "0xfd3f",
      "effectiveGasPrice": "0x8c3dc2b9",
      "from": "0xc77f7fed3b5cc8249adc428c5f44c9063b9734b4",
      "to": "0x8aafd3ede9adb0ff97c7aebce82a919afb1c8764",
      "contractAddress": null
    }
  ],
  "libraries": [],
  "pending": [],
  "returns": {},
  "timestamp": 1737507074,
  "chain": 11155111,
  "commit": "1d2fb70"
}