{
  "transactions": [
    {
      "hash": "0xae56fa4fae4a5f30a9dcb57c6087f56208460309e0ecfbacab41040ae090cf65",
      "transactionType": "CALL",
      "contractName": null,
      "contractAddress": "0x8aafd3ede9adb0ff97c7aebce82a919afb1c8764",
      "function": "sell(uint256)",
      "arguments": [
        "141957442528240310153"
      ],
      "transaction": {
        "from": "0xc77f7fed3b5cc8249adc428c5f44c9063b9734b4",
        "to": "0x8aafd3ede9adb0ff97c7aebce82a919afb1c8764",
        "gas": "0x17270",
        "value": "0x0",
        "input": "0xe4849b32000000000000000000000000000000000000000000000007b20e25db4eb19789",
        "nonce": "0x17a2",
        "chainId": "0xaa36a7"
      },
      "additionalContracts": [],
      "isFixedGasLimit": false
    }
  ],
  "receipts": [
    {
      "status": "0x1",
      "cumulativeGasUsed": "0x9f5d3a",
      "logs": [
        {
          "address": "0x8aafd3ede9adb0ff97c7aebce82a919afb1c8764",
          "topics": [
            "0xddf252ad1be2c89b69c2b068fc378daa952ba7f163c4a11628f55a4df523b3ef",
            "0x000000000000000000000000c77f7fed3b5cc8249adc428c5f44c9063b9734b4",
            "0x0000000000000000000000000000000000000000000000000000000000000000"
          ],
          "data": "0x000000000000000000000000000000000000000000000007a24b798595be81d8",
          "blockHash": "0x67a48b3f42783e40e43d4de8b11fa19637f64eacac9e5d544a4f07f6ee7b41ce",
          "blockNumber": "0x731f82",
          "transactionHash": "0xae56fa4fae4a5f30a9dcb57c6087f56208460309e0ecfbacab41040ae090cf65",
          "transactionIndex": "0x72",
          "logIndex": "0xa7",
          "removed": false
        },
        {
          "address": "0x8aafd3ede9adb0ff97c7aebce82a919afb1c8764",
          "topics": [
            "0xddf252ad1be2c89b69c2b068fc378daa952ba7f163c4a11628f55a4df523b3ef",
            "0x000000000000000000000000c77f7fed3b5cc8249adc428c5f44c9063b9734b4",
            "0x000000000000000000000000c77f7fed3b5cc8249adc428c5f44c9063b9734b4"
          ],
          "data": "0x0000000000000000000000000000000000000000000000000fc2ac55b8f315b1",
          "blockHash": "0x67a48b3f42783e40e43d4de8b11fa19637f64eacac9e5d544a4f07f6ee7b41ce",
          "blockNumber": "0x731f82",
          "transactionHash": "0xae56fa4fae4a5f30a9dcb57c6087f56208460309e0ecfbacab41040ae090cf65",
          "transactionIndex": "0x72",
          "logIndex": "0xa8",
          "removed": false
        },
        {
          "address": "0x8aafd3ede9adb0ff97c7aebce82a919afb1c8764",
          "topics": [
            "0x4afcb4a87cdbd9974efdb92ee48bc8d7cd0ae4bf217004db3d080cbaee652ca7"
          ],
          "data": "0x00000000000000000000000000000000000000000000000000000000679077000000000000000000000000000000000000000000000000000018f4d7487348480000000000000000000000000000000000000000000000000dcbb7d9f985b533",
          "blockHash": "0x67a48b3f42783e40e43d4de8b11fa19637f64eacac9e5d544a4f07f6ee7b41ce",
          "blockNumber": "0x731f82",
          "transactionHash": "0xae56fa4fae4a5f30a9dcb57c6087f56208460309e0ecfbacab41040ae090cf65",
          "transactionIndex": "0x72",
          "logIndex": "0xa9",
          "removed": false
        }
      ],
      "logsBloom": "0x00000000000000000000000000000000000000000600000000000000000000000000000000000000000000000000000000000000000000004000000000000000000000000000004000000008000000000000000000000000000000000000000000000000020000000000000000000800020000000000000000000010000000000000000000000000000000000000000000000000000000000000010000000000000000000000000000000000000000004000000000000000000000000000000000000002000000800000000000000000000000000000080000000000000020000000000000000000000000000000000000000000000000000000000000000000",
      "type": "0x2",
      "transactionHash": "0xae56fa4fae4a5f30a9dcb57c6087f56208460309e0ecfbacab41040ae090cf65",
      "transactionIndex": "0x72",
      "blockHash": "0x67a48b3f42783e40e43d4de8b11fa19637f64eacac9e5d544a4f07f6ee7b41ce",
      "blockNumber": "0x731f82",
      "gasUsed": "0xfd4b",
      "effectiveGasPrice": "0x4871fe3c",
      "from": "0xc77f7fed3b5cc8249adc428c5f44c9063b9734b4",
      "to": "0x8aafd3ede9adb0ff97c7aebce82a919afb1c8764",
      "contractAddress": null
    }
  ],
  "libraries": [],
  "pending": [],
  "returns": {},
  "timestamp": 1737520898,
  "chain": 11155111,
  "commit": "1d2fb70"
}