{
  "transactions": [
    {
      "hash": "0xe6ee0ffff4e321c0f0852cd88f530270a11988dba33b053a9408e4b251f94c04",
      "transactionType": "CALL",
      "contractName": null,
      "contractAddress": "0xd7bc75898e513accccf720a874d44dab5a4b6223",
      "function": "sell(uint256)",
      "arguments": [
        "9929992646342728714"
      ],
      "transaction": {
        "from": "0xc77f7fed3b5cc8249adc428c5f44c9063b9734b4",
        "to": "0xd7bc75898e513accccf720a874d44dab5a4b6223",
        "gas": "0x15b6b",
        "value": "0x0",
        "input": "0xe4849b3200000000000000000000000000000000000000000000000089ce6bb3537fdc0a",
        "nonce": "0xaf",
        "chainId": "0xaa36a7"
      },
      "additionalContracts": [],
      "isFixedGasLimit": false
    }
  ],
  "receipts": [
    {
      "status": "0x1",
      "cumulativeGasUsed": "0x4ed1ea",
      "logs": [
        {
          "address": "0xd7bc75898e513accccf720a874d44dab5a4b6223",
          "topics": [
            "0xddf252ad1be2c89b69c2b068fc378daa952ba7f163c4a11628f55a4df523b3ef",
            "0x000000000000000000000000c77f7fed3b5cc8249adc428c5f44c9063b9734b4",
            "0x0000000000000000000000000000000000000000000000000000000000000000"
          ],
          "data": "0x00000000000000000000000000000000000000000000000089ce6bb3537fdc0a",
          "blockHash": "0xb1831aeb8db35348a9017823e3dac712bf70c4dc30be0e7fe57a646c05658d57",
          "blockNumber": "0x723924",
          "transactionHash": "0xe6ee0ffff4e321c0f0852cd88f530270a11988dba33b053a9408e4b251f94c04",
          "transactionIndex": "0x2b",
          "logIndex": "0x3b",
          "removed": false
        },
        {
          "address": "0xd7bc75898e513accccf720a874d44dab5a4b6223",
          "topics": [
            "0x4afcb4a87cdbd9974efdb92ee48bc8d7cd0ae4bf217004db3d080cbaee652ca7"
          ],
          "data": "0x0000000000000000000000000000000000000000000000000000000067859ef800000000000000000000000000000000000000000000000000038d7f855cfb650000000000000000000000000000000000000000000000000023474f493d2799",
          "blockHash": "0xb1831aeb8db35348a9017823e3dac712bf70c4dc30be0e7fe57a646c05658d57",
          "blockNumber": "0x723924",
          "transactionHash": "0xe6ee0ffff4e321c0f0852cd88f530270a11988dba33b053a9408e4b251f94c04",
          "transactionIndex": "0x2b",
          "logIndex": "0x3c",
          "removed": false
        }
      ],
      "logsBloom": "0x00000000000000000000000000000000000000000000000000000000000000000000000000000000000000000000000000000000000000004000000000000000000000000000000000000008000000000000000000000000000000000000000000000000020000000000000000000800020000000000000000000010000000000000000000000000000000000000000000000000000000000000010000000000000000000000000000000000000000004000001000000000000000000000000000000002000000800000000000004000000000000000080000000000000020000000000000000000000000000000000000000000080000000000000000000000",
      "type": "0x2",
      "transactionHash": "0xe6ee0ffff4e321c0f0852cd88f530270a11988dba33b053a9408e4b251f94c04",
      "transactionIndex": "0x2b",
      "blockHash": "0xb1831aeb8db35348a9017823e3dac712bf70c4dc30be0e7fe57a646c05658d57",
      "blockNumber": "0x723924",
      "gasUsed": "0xfb87",
      "effectiveGasPrice": "0x30ec30a5",
      "from": "0xc77f7fed3b5cc8249adc428c5f44c9063b9734b4",
      "to": "0xd7bc75898e513accccf720a874d44dab5a4b6223",
      "contractAddress": null
    }
  ],
  "libraries": [],
  "pending": [],
  "returns": {},
  "timestamp": 1736810234,
  "chain": 11155111,
  "commit": "51a374b"
}