{
  "transactions": [
    {
      "hash": "0xd0cf2ac5692454c68342e172bf96a3c606187a181cec144f1c4997f422431d29",
      "transactionType": "CALL",
      "contractName": null,
      "contractAddress": "0xbf4a322f1496e5c3d34a9bcdb4c60567b38c7de2",
      "function": "buy(address)",
      "arguments": [
        "0xC77f7fed3b5Cc8249aDc428c5F44C9063B9734b4"
      ],
      "transaction": {
        "from": "0xc77f7fed3b5cc8249adc428c5f44c9063b9734b4",
        "to": "0xbf4a322f1496e5c3d34a9bcdb4c60567b38c7de2",
        "gas": "0x1b309",
        "value": "0xde0b6b3a7640000",
        "input": "0xf088d547000000000000000000000000c77f7fed3b5cc8249adc428c5f44c9063b9734b4",
        "nonce": "0xd5e",
        "chainId": "0xaa36a7"
      },
      "additionalContracts": [],
      "isFixedGasLimit": false
    }
  ],
  "receipts": [
    {
      "status": "0x1",
      "cumulativeGasUsed": "0x1ce5a56",
      "logs": [
        {
          "address": "0xbf4a322f1496e5c3d34a9bcdb4c60567b38c7de2",
          "topics": [
            "0xddf252ad1be2c89b69c2b068fc378daa952ba7f163c4a11628f55a4df523b3ef",
            "0x0000000000000000000000000000000000000000000000000000000000000000",
            "0x000000000000000000000000c77f7fed3b5cc8249adc428c5f44c9063b9734b4"
          ],
          "data": "0x000000000000000000000000000000000000000000000034ba9e2858fff76f51",
          "blockHash": "0x3910dfd3fd39a23e76cc3ae80941a64eac38d78fdcf5c784a78c3028d4f73523",
          "blockNumber": "0x725dc7",
          "transactionHash": "0xd0cf2ac5692454c68342e172bf96a3c606187a181cec144f1c4997f422431d29",
          "transactionIndex": "0xcd",
          "logIndex": "0x167",
          "removed": false
        },
        {
          "address": "0xbf4a322f1496e5c3d34a9bcdb4c60567b38c7de2",
          "topics": [
            "0xddf252ad1be2c89b69c2b068fc378daa952ba7f163c4a11628f55a4df523b3ef",
            "0x0000000000000000000000000000000000000000000000000000000000000000",
            "0x000000000000000000000000c77f7fed3b5cc8249adc428c5f44c9063b9734b4"
          ],
          "data": "0x00000000000000000000000000000000000000000000000028f2231cee8d19f0",
          "blockHash": "0x3910dfd3fd39a23e76cc3ae80941a64eac38d78fdcf5c784a78c3028d4f73523",
          "blockNumber": "0x725dc7",
          "transactionHash": "0xd0cf2ac5692454c68342e172bf96a3c606187a181cec144f1c4997f422431d29",
          "transactionIndex": "0xcd",
          "logIndex": "0x168",
          "removed": false
        },
        {
          "address": "0xbf4a322f1496e5c3d34a9bcdb4c60567b38c7de2",
          "topics": [
            "0x4afcb4a87cdbd9974efdb92ee48bc8d7cd0ae4bf217004db3d080cbaee652ca7"
          ],
          "data": "0x00000000000000000000000000000000000000000000000000000000678757c800000000000000000000000000000000000000000000000000039db35eee93460000000000000000000000000000000000000000000000000de0b6b3a7640000",
          "blockHash": "0x3910dfd3fd39a23e76cc3ae80941a64eac38d78fdcf5c784a78c3028d4f73523",
          "blockNumber": "0x725dc7",
          "transactionHash": "0xd0cf2ac5692454c68342e172bf96a3c606187a181cec144f1c4997f422431d29",
          "transactionIndex": "0xcd",
          "logIndex": "0x169",
          "removed": false
        }
      ],
      "logsBloom": "0x00000000000000000000000000000000000000000000000000000000000000000000000000000000000000000000000000000000000000004000000000000000000000000000000000000008000000000000001000000000000000000000000000000000020000000000000000000800020000000000000000000010000000000000000000000000000000000000000000000000000008000000010000000000000000000000000000000000000000004000000000000000000000000000000000000002000000800000000000001000000000000000080000000000000020000000000000000000000000000000000000000000000000000000000000000000",
      "type": "0x2",
      "transactionHash": "0xd0cf2ac5692454c68342e172bf96a3c606187a181cec144f1c4997f422431d29",
      "transactionIndex": "0xcd",
      "blockHash": "0x3910dfd3fd39a23e76cc3ae80941a64eac38d78fdcf5c784a78c3028d4f73523",
      "blockNumber": "0x725dc7",
      "gasUsed": "0x13af6",
      "effectiveGasPrice": "0x31b8fe174",
      "from": "0xc77f7fed3b5cc8249adc428c5f44c9063b9734b4",
      "to": "0xbf4a322f1496e5c3d34a9bcdb4c60567b38c7de2",
      "contractAddress": null
    }
  ],
  "libraries": [],
  "pending": [],
  "returns": {},
  "timestamp": 1736923081,
  "chain": 11155111,
  "commit": "51a374b"
}