{
  "transactions": [
    {
      "hash": "0xca408d845abbaf531a80d032d4d715e62c019eb2138d7367c70fda7a40dae78f",
      "transactionType": "CALL",
      "contractName": null,
      "contractAddress": "0x270e88f8683660553e8ba4eb2ad7c91a1710d769",
      "function": "buy(address)",
      "arguments": [
        "0xC77f7fed3b5Cc8249aDc428c5F44C9063B9734b4"
      ],
      "transaction": {
        "from": "0xc77f7fed3b5cc8249adc428c5f44c9063b9734b4",
        "to": "0x270e88f8683660553e8ba4eb2ad7c91a1710d769",
        "gas": "0x1b30c",
        "value": "0xde0b6b3a7640000",
        "input": "0xf088d547000000000000000000000000c77f7fed3b5cc8249adc428c5f44c9063b9734b4",
        "nonce": "0x66d",
        "chainId": "0xaa36a7"
      },
      "additionalContracts": [],
      "isFixedGasLimit": false
    }
  ],
  "receipts": [
    {
      "status": "0x1",
      "cumulativeGasUsed": "0x8b4eeb",
      "logs": [
        {
          "address": "0x270e88f8683660553e8ba4eb2ad7c91a1710d769",
          "topics": [
            "0xddf252ad1be2c89b69c2b068fc378daa952ba7f163c4a11628f55a4df523b3ef",
            "0x0000000000000000000000000000000000000000000000000000000000000000",
            "0x000000000000000000000000c77f7fed3b5cc8249adc428c5f44c9063b9734b4"
          ],
          "data": "0x00000000000000000000000000000000000000000000002901066523fba9ac47",
          "blockHash": "0x244acfd54335f01a8232e1b88fc35ba54f4917e44455fc5de2ee4505c304c68e",
          "blockNumber": "0x725367",
          "transactionHash": "0xca408d845abbaf531a80d032d4d715e62c019eb2138d7367c70fda7a40dae78f",
          "transactionIndex": "0x3d",
          "logIndex": "0x7b",
          "removed": false
        },
        {
          "address": "0x270e88f8683660553e8ba4eb2ad7c91a1710d769",
          "topics": [
            "0xddf252ad1be2c89b69c2b068fc378daa952ba7f163c4a11628f55a4df523b3ef",
            "0x0000000000000000000000000000000000000000000000000000000000000000",
            "0x000000000000000000000000c77f7fed3b5cc8249adc428c5f44c9063b9734b4"
          ],
          "data": "0x0000000000000000000000000000000000000000000000001fd74c466e9ca506",
          "blockHash": "0x244acfd54335f01a8232e1b88fc35ba54f4917e44455fc5de2ee4505c304c68e",
          "blockNumber": "0x725367",
          "transactionHash": "0xca408d845abbaf531a80d032d4d715e62c019eb2138d7367c70fda7a40dae78f",
          "transactionIndex": "0x3d",
          "logIndex": "0x7c",
          "removed": false
        },
        {
          "address": "0x270e88f8683660553e8ba4eb2ad7c91a1710d769",
          "topics": [
            "0x4afcb4a87cdbd9974efdb92ee48bc8d7cd0ae4bf217004db3d080cbaee652ca7"
          ],
          "data": "0x000000000000000000000000000000000000000000000000000000006786dadc0000000000000000000000000000000000000000000000000004a67ebaf09c900000000000000000000000000000000000000000000000000de0b6b3a7640000",
          "blockHash": "0x244acfd54335f01a8232e1b88fc35ba54f4917e44455fc5de2ee4505c304c68e",
          "blockNumber": "0x725367",
          "transactionHash": "0xca408d845abbaf531a80d032d4d715e62c019eb2138d7367c70fda7a40dae78f",
          "transactionIndex": "0x3d",
          "logIndex": "0x7d",
          "removed": false
        }
      ],
      "logsBloom": "0x00000000000000000000000000000000000000000000000000000000000000000000000000000000000000000000000020000000000000004000000000000000000000000000000000000008000000000000000000000000000000000000000000000000020000000000000000000800020000000000000000000010000000000000000000010000000000000000000000000000000000000000010000000000000000000000000000000000000000004000000000000000000000000000000000000002000000800000000000000000000000000000080000008000000020000000000000000000000000000000000000000000000000000000000000000000",
      "type": "0x2",
      "transactionHash": "0xca408d845abbaf531a80d032d4d715e62c019eb2138d7367c70fda7a40dae78f",
      "transactionIndex": "0x3d",
      "blockHash": "0x244acfd54335f01a8232e1b88fc35ba54f4917e44455fc5de2ee4505c304c68e",
      "blockNumber": "0x725367",
      "gasUsed": "0x13af8",
      "effectiveGasPrice": "0x2c1c900e0",
      "from": "0xc77f7fed3b5cc8249adc428c5f44c9063b9734b4",
      "to": "0x270e88f8683660553e8ba4eb2ad7c91a1710d769",
      "contractAddress": null
    }
  ],
  "libraries": [],
  "pending": [],
  "returns": {},
  "timestamp": 1736891101,
  "chain": 11155111,
  "commit": "51a374b"
}