{
  "transactions": [
    {
      "hash": "0xc7378972c931de24df3604525d69ba3575294c8dc259a786ee79af581efd1726",
      "transactionType": "CALL",
      "contractName": null,
      "contractAddress": "0x5eb9cc76c3506942c1c0ead70e877dd5e4f00cb0",
      "function": "sell(uint256)",
      "arguments": [
        "989086294880627791106"
      ],
      "transaction": {
        "from": "0xc77f7fed3b5cc8249adc428c5f44c9063b9734b4",
        "to": "0x5eb9cc76c3506942c1c0ead70e877dd5e4f00cb0",
        "gas": "0x16fec",
        "value": "0x0",
        "input": "0xe4849b320000000000000000000000000000000000000000000000359e5468ca47151502",
        "nonce": "0x457",
        "chainId": "0xaa36a7"
      },
      "additionalContracts": [],
      "isFixedGasLimit": false
    }
  ],
  "receipts": [
    {
      "status": "0x1",
      "cumulativeGasUsed": "0x1378fe8",
      "logs": [
        {
          "address": "0x5eb9cc76c3506942c1c0ead70e877dd5e4f00cb0",
          "topics": [
            "0xddf252ad1be2c89b69c2b068fc378daa952ba7f163c4a11628f55a4df523b3ef",
            "0x000000000000000000000000c77f7fed3b5cc8249adc428c5f44c9063b9734b4",
            "0x0000000000000000000000000000000000000000000000000000000000000000"
          ],
          "data": "0x0000000000000000000000000000000000000000000000359e5468ca47151502",
          "blockHash": "0x0a95157cb9f7b929393101bfcbb119e73774b699c60632d2f054820d56a531f2",
          "blockNumber": "0x72507a",
          "transactionHash": "0xc7378972c931de24df3604525d69ba3575294c8dc259a786ee79af581efd1726",
          "transactionIndex": "0x9f",
          "logIndex": "0xe6",
          "removed": false
        },
        {
          "address": "0x5eb9cc76c3506942c1c0ead70e877dd5e4f00cb0",
          "topics": [
            "0x4afcb4a87cdbd9974efdb92ee48bc8d7cd0ae4bf217004db3d080cbaee652ca7"
          ],
          "data": "0x000000000000000000000000000000000000000000000000000000006786b78400000000000000000000000000000000000000000000000000039118b603bcb40000000000000000000000000000000000000000000000000dc7db1331cf0fd3",
          "blockHash": "0x0a95157cb9f7b929393101bfcbb119e73774b699c60632d2f054820d56a531f2",
          "blockNumber": "0x72507a",
          "transactionHash": "0xc7378972c931de24df3604525d69ba3575294c8dc259a786ee79af581efd1726",
          "transactionIndex": "0x9f",
          "logIndex": "0xe7",
          "removed": false
        }
      ],
      "logsBloom": "0x00000000000000000000000000000000000000000000000000000000000000000000000000000000000000000000000000000000000000004000000000000000000000000000000000000008000000000000000000000000000000000000000000000000020000000000000004000800020000000000000000000010000000000000000000000000000000000000000000000000000000000000010000000000000000000000000000000000000000004000000000000000000000000000020000000002000000800000008000000000000000000000080000000000000020000000000000000000000000000000000000000000000000000000000000000000",
      "type": "0x2",
      "transactionHash": "0xc7378972c931de24df3604525d69ba3575294c8dc259a786ee79af581efd1726",
      "transactionIndex": "0x9f",
      "blockHash": "0x0a95157cb9f7b929393101bfcbb119e73774b699c60632d2f054820d56a531f2",
      "blockNumber": "0x72507a",
      "gasUsed": "0xfb93",
      "effectiveGasPrice": "0x205ff9973",
      "from": "0xc77f7fed3b5cc8249adc428c5f44c9063b9734b4",
      "to": "0x5eb9cc76c3506942c1c0ead70e877dd5e4f00cb0",
      "contractAddress": null
    }
  ],
  "libraries": [],
  "pending": [],
  "returns": {},
  "timestamp": 1736882053,
  "chain": 11155111,
  "commit": "51a374b"
}