{
  "transactions": [
    {
      "hash": "0x0bdf5032e67e288e15d5d367a968b430530b610f6e914fe3b38287106a6302bb",
      "transactionType": "CALL",
      "contractName": null,
      "contractAddress": "0x8aafd3ede9adb0ff97c7aebce82a919afb1c8764",
      "function": "sell(uint256)",
      "arguments": [
        "47538128684780713"
      ],
      "transaction": {
        "from": "0xc77f7fed3b5cc8249adc428c5f44c9063b9734b4",
        "to": "0x8aafd3ede9adb0ff97c7aebce82a919afb1c8764",
        "gas": "0x1724d",
        "value": "0x0",
        "input": "0xe4849b3200000000000000000000000000000000000000000000000000a8e3ad198b0ca9",
        "nonce": "0xf41",
        "chainId": "0xaa36a7"
      },
      "additionalContracts": [],
      "isFixedGasLimit": false
    }
  ],
  "receipts": [
    {
      "status": "0x1",
      "cumulativeGasUsed": "0x10ca119",
      "logs": [
        {
          "address": "0x8aafd3ede9adb0ff97c7aebce82a919afb1c8764",
          "topics": [
            "0xddf252ad1be2c89b69c2b068fc378daa952ba7f163c4a11628f55a4df523b3ef",
            "0x000000000000000000000000c77f7fed3b5cc8249adc428c5f44c9063b9734b4",
            "0x0000000000000000000000000000000000000000000000000000000000000000"
          ],
          "data": "0x00000000000000000000000000000000000000000000000000a789ca6f5ad544",
          "blockHash": "0x3cd60d3eac469fd658282767e577bf1275d4c502143ac9183037d5333ee6262f",
          "blockNumber": "0x73159b",
          "transactionHash": "0x0bdf5032e67e288e15d5d367a968b430530b610f6e914fe3b38287106a6302bb",
          "transactionIndex": "0x96",
          "logIndex": "0xea",
          "removed": false
        },
        {
          "address": "0x8aafd3ede9adb0ff97c7aebce82a919afb1c8764",
          "topics": [
            "0xddf252ad1be2c89b69c2b068fc378daa952ba7f163c4a11628f55a4df523b3ef",
            "0x000000000000000000000000c77f7fed3b5cc8249adc428c5f44c9063b9734b4",
            "0x000000000000000000000000c77f7fed3b5cc8249adc428c5f44c9063b9734b4"
          ],
          "data": "0x000000000000000000000000000000000000000000000000000159e2aa303765",
          "blockHash": "0x3cd60d3eac469fd658282767e577bf1275d4c502143ac9183037d5333ee6262f",
          "blockNumber": "0x73159b",
          "transactionHash": "0x0bdf5032e67e288e15d5d367a968b430530b610f6e914fe3b38287106a6302bb",
          "transactionIndex": "0x96",
          "logIndex": "0xeb",
          "removed": false
        },
        {
          "address": "0x8aafd3ede9adb0ff97c7aebce82a919afb1c8764",
          "topics": [
            "0x4afcb4a87cdbd9974efdb92ee48bc8d7cd0ae4bf217004db3d080cbaee652ca7"
          ],
          "data": "0x00000000000000000000000000000000000000000000000000000000678ffff00000000000000000000000000000000000000000000000000004c033bad94621000000000000000000000000000000000000000000000000000039d0e3659026",
          "blockHash": "0x3cd60d3eac469fd658282767e577bf1275d4c502143ac9183037d5333ee6262f",
          "blockNumber": "0x73159b",
          "transactionHash": "0x0bdf5032e67e288e15d5d367a968b430530b610f6e914fe3b38287106a6302bb",
          "transactionIndex": "0x96",
          "logIndex": "0xec",
          "removed": false
        }
      ],
      "logsBloom": "0x00000000000000000000000000000000000000000600000000000000000000000000000000000000000000000000000000000000000000004000000000000000000000000000004000000008000000000000000000000000000000000000000000000000020000000000000000000800020000000000000000000010000000000000000000000000000000000000000000000000000000000000010000000000000000000000000000000000000000004000000000000000000000000000000000000002000000800000000000000000000000000000080000000000000020000000000000000000000000000000000000000000000000000000000000000000",
      "type": "0x2",
      "transactionHash": "0x0bdf5032e67e288e15d5d367a968b430530b610f6e914fe3b38287106a6302bb",
      "transactionIndex": "0x96",
      "blockHash": "0x3cd60d3eac469fd658282767e577bf1275d4c502143ac9183037d5333ee6262f",
      "blockNumber": "0x73159b",
      "gasUsed": "0xfd33",
      "effectiveGasPrice": "0x673eacad",
      "from": "0xc77f7fed3b5cc8249adc428c5f44c9063b9734b4",
      "to": "0x8aafd3ede9adb0ff97c7aebce82a919afb1c8764",
      "contractAddress": null
    }
  ],
  "libraries": [],
  "pending": [],
  "returns": {},
  "timestamp": 1737490417,
  "chain": 11155111,
  "commit": "1d2fb70"
}