{
  "transactions": [
    {
      "hash": "0xa9f5a52b6a05f6a3688dda37bcf8352da573ccdf673e0e2c12755b232065700e",
      "transactionType": "CALL",
      "contractName": null,
      "contractAddress": "0x5eb9cc76c3506942c1c0ead70e877dd5e4f00cb0",
      "function": "buy(address)",
      "arguments": [
        "0xC77f7fed3b5Cc8249aDc428c5F44C9063B9734b4"
      ],
      "transaction": {
        "from": "0xc77f7fed3b5cc8249adc428c5f44c9063b9734b4",
        "to": "0x5eb9cc76c3506942c1c0ead70e877dd5e4f00cb0",
        "gas": "0x1b30c",
        "value": "0xde0b6b3a7640000",
        "input": "0xf088d547000000000000000000000000c77f7fed3b5cc8249adc428c5f44c9063b9734b4",
        "nonce": "0x2ba",
        "chainId": "0xaa36a7"
      },
      "additionalContracts": [],
      "isFixedGasLimit": false
    }
  ],
  "receipts": [
    {
      "status": "0x1",
      "cumulativeGasUsed": "0xe42011",
      "logs": [
        {
          "address": "0x5eb9cc76c3506942c1c0ead70e877dd5e4f00cb0",
          "topics": [
            "0xddf252ad1be2c89b69c2b068fc378daa952ba7f163c4a11628f55a4df523b3ef",
            "0x0000000000000000000000000000000000000000000000000000000000000000",
            "0x000000000000000000000000c77f7fed3b5cc8249adc428c5f44c9063b9734b4"
          ],
          "data": "0x00000000000000000000000000000000000000000000003575ba3b85ed5a18ac",
          "blockHash": "0xee0706a59196140fa4b53f8c45b36fb02a308d20e36536bee9d06bc70d9c4a57",
          "blockNumber": "0x724e95",
          "transactionHash": "0xa9f5a52b6a05f6a3688dda37bcf8352da573ccdf673e0e2c12755b232065700e",
          "transactionIndex": "0x5f",
          "logIndex": "0xd5",
          "removed": false
        },
        {
          "address": "0x5eb9cc76c3506942c1c0ead70e877dd5e4f00cb0",
          "topics": [
            "0xddf252ad1be2c89b69c2b068fc378daa952ba7f163c4a11628f55a4df523b3ef",
            "0x0000000000000000000000000000000000000000000000000000000000000000",
            "0x000000000000000000000000c77f7fed3b5cc8249adc428c5f44c9063b9734b4"
          ],
          "data": "0x00000000000000000000000000000000000000000000000029836f27b0ec5ee7",
          "blockHash": "0xee0706a59196140fa4b53f8c45b36fb02a308d20e36536bee9d06bc70d9c4a57",
          "blockNumber": "0x724e95",
          "transactionHash": "0xa9f5a52b6a05f6a3688dda37bcf8352da573ccdf673e0e2c12755b232065700e",
          "transactionIndex": "0x5f",
          "logIndex": "0xd6",
          "removed": false
        },
        {
          "address": "0x5eb9cc76c3506942c1c0ead70e877dd5e4f00cb0",
          "topics": [
            "0x4afcb4a87cdbd9974efdb92ee48bc8d7cd0ae4bf217004db3d080cbaee652ca7"
          ],
          "data": "0x000000000000000000000000000000000000000000000000000000006786a0b00000000000000000000000000000000000000000000000000003910925b074a30000000000000000000000000000000000000000000000000de0b6b3a7640000",
          "blockHash": "0xee0706a59196140fa4b53f8c45b36fb02a308d20e36536bee9d06bc70d9c4a57",
          "blockNumber": "0x724e95",
          "transactionHash": "0xa9f5a52b6a05f6a3688dda37bcf8352da573ccdf673e0e2c12755b232065700e",
          "transactionIndex": "0x5f",
          "logIndex": "0xd7",
          "removed": false
        }
      ],
      "logsBloom": "0x00000000000000000000000000000000000000000000000000000000000000000000000000000000000000000000000000000000000000004000000000000000000000000000000000000008000000000000000000000000000000000000000000000000020000000000000004000800020000000000000000000010000000000000000000000000000000000000000000000000000000000000010000000000000000000000000000000000000000004000000000000000000000000000020000000002000000800000008000000000000000000000080000000000000020000000000000000000000000000000000000000000000000000000000000000000",
      "type": "0x2",
      "transactionHash": "0xa9f5a52b6a05f6a3688dda37bcf8352da573ccdf673e0e2c12755b232065700e",
      "transactionIndex": "0x5f",
      "blockHash": "0xee0706a59196140fa4b53f8c45b36fb02a308d20e36536bee9d06bc70d9c4a57",
      "blockNumber": "0x724e95",
      "gasUsed": "0x13af8",
      "effectiveGasPrice": "0x4840ebb0a",
      "from": "0xc77f7fed3b5cc8249adc428c5f44c9063b9734b4",
      "to": "0x5eb9cc76c3506942c1c0ead70e877dd5e4f00cb0",
      "contractAddress": null
    }
  ],
  "libraries": [],
  "pending": [],
  "returns": {},
  "timestamp": 1736876210,
  "chain": 11155111,
  "commit": "51a374b"
}