{
  "transactions": [
    {
      "hash": "0xc96d4c05851498de3b9c3871fca9dff10392ae0ba9a90e6f4abe98ab39e3446c",
      "transactionType": "CALL",
      "contractName": null,
      "contractAddress": "0x5eb9cc76c3506942c1c0ead70e877dd5e4f00cb0",
      "function": "buy(address)",
      "arguments": [
        "0xC77f7fed3b5Cc8249aDc428c5F44C9063B9734b4"
      ],
      "transaction": {
        "from": "0xc77f7fed3b5cc8249adc428c5f44c9063b9734b4",
        "to": "0x5eb9cc76c3506942c1c0ead70e877dd5e4f00cb0",
        "gas": "0x1b30c",
        "value": "0xde0b6b3a7640000",
        "input": "0xf088d547000000000000000000000000c77f7fed3b5cc8249adc428c5f44c9063b9734b4",
        "nonce": "0x29a",
        "chainId": "0xaa36a7"
      },
      "additionalContracts": [],
      "isFixedGasLimit": false
    }
  ],
  "receipts": [
    {
      "status": "0x1",
      "cumulativeGasUsed": "0x14e47cb",
      "logs": [
        {
          "address": "0x5eb9cc76c3506942c1c0ead70e877dd5e4f00cb0",
          "topics": [
            "0xddf252ad1be2c89b69c2b068fc378daa952ba7f163c4a11628f55a4df523b3ef",
            "0x0000000000000000000000000000000000000000000000000000000000000000",
            "0x000000000000000000000000c77f7fed3b5cc8249adc428c5f44c9063b9734b4"
          ],
          "data": "0x00000000000000000000000000000000000000000000003575cc4bccc22da46a",
          "blockHash": "0x4333e92960b3f88ae3dd4a13d3ebb63edcfe0fa94008c52f3a07ee08397fb1e2",
          "blockNumber": "0x724e70",
          "transactionHash": "0xc96d4c05851498de3b9c3871fca9dff10392ae0ba9a90e6f4abe98ab39e3446c",
          "transactionIndex": "0x9c",
          "logIndex": "0x129",
          "removed": false
        },
        {
          "address": "0x5eb9cc76c3506942c1c0ead70e877dd5e4f00cb0",
          "topics": [
            "0xddf252ad1be2c89b69c2b068fc378daa952ba7f163c4a11628f55a4df523b3ef",
            "0x0000000000000000000000000000000000000000000000000000000000000000",
            "0x000000000000000000000000c77f7fed3b5cc8249adc428c5f44c9063b9734b4"
          ],
          "data": "0x00000000000000000000000000000000000000000000000029837d2e998506d7",
          "blockHash": "0x4333e92960b3f88ae3dd4a13d3ebb63edcfe0fa94008c52f3a07ee08397fb1e2",
          "blockNumber": "0x724e70",
          "transactionHash": "0xc96d4c05851498de3b9c3871fca9dff10392ae0ba9a90e6f4abe98ab39e3446c",
          "transactionIndex": "0x9c",
          "logIndex": "0x12a",
          "removed": false
        },
        {
          "address": "0x5eb9cc76c3506942c1c0ead70e877dd5e4f00cb0",
          "topics": [
            "0x4afcb4a87cdbd9974efdb92ee48bc8d7cd0ae4bf217004db3d080cbaee652ca7"
          ],
          "data": "0x0000000000000000000000000000000000000000000000000000000067869ef400000000000000000000000000000000000000000000000000039107f12f52270000000000000000000000000000000000000000000000000de0b6b3a7640000",
          "blockHash": "0x4333e92960b3f88ae3dd4a13d3ebb63edcfe0fa94008c52f3a07ee08397fb1e2",
          "blockNumber": "0x724e70",
          "transactionHash": "0xc96d4c05851498de3b9c3871fca9dff10392ae0ba9a90e6f4abe98ab39e3446c",
          "transactionIndex": "0x9c",
          "logIndex": "0x12b",
          "removed": false
        }
      ],
      "logsBloom": "0x00000000000000000000000000000000000000000000000000000000000000000000000000000000000000000000000000000000000000004000000000000000000000000000000000000008000000000000000000000000000000000000000000000000020000000000000004000800020000000000000000000010000000000000000000000000000000000000000000000000000000000000010000000000000000000000000000000000000000004000000000000000000000000000020000000002000000800000008000000000000000000000080000000000000020000000000000000000000000000000000000000000000000000000000000000000",
      "type": "0x2",
      "transactionHash": "0xc96d4c05851498de3b9c3871fca9dff10392ae0ba9a90e6f4abe98ab39e3446c",
      "transactionIndex": "0x9c",
      "blockHash": "0x4333e92960b3f88ae3dd4a13d3ebb63edcfe0fa94008c52f3a07ee08397fb1e2",
      "blockNumber": "0x724e70",
      "gasUsed": "0x13af8",
      "effectiveGasPrice": "0x4614d6114",
      "from": "0xc77f7fed3b5cc8249adc428c5f44c9063b9734b4",
      "to": "0x5eb9cc76c3506942c1c0ead70e877dd5e4f00cb0",
      "contractAddress": null
    }
  ],
  "libraries": [],
  "pending": [],
  "returns": {},
  "timestamp": 1736875765,
  "chain": 11155111,
  "commit": "51a374b"
}