{
  "transactions": [
    {
      "hash": "0x051e784ca547af9c37d97d7bb256db501d96232bead9fcbf9167a713cfd54c9b",
      "transactionType": "CALL",
      "contractName": null,
      "contractAddress": "0x68fa5dd1657101c163b0d0ffbaccb226c4d6cc12",
      "function": "buy(address)",
      "arguments": [
        "0xC77f7fed3b5Cc8249aDc428c5F44C9063B9734b4"
      ],
      "transaction": {
        "from": "0xc77f7fed3b5cc8249adc428c5f44c9063b9734b4",
        "to": "0x68fa5dd1657101c163b0d0ffbaccb226c4d6cc12",
        "gas": "0x1b2c8",
        "value": "0xde0b6b3a7640000",
        "input": "0xf088d547000000000000000000000000c77f7fed3b5cc8249adc428c5f44c9063b9734b4",
        "nonce": "0x17dd",
        "chainId": "0xaa36a7"
      },
      "additionalContracts": [],
      "isFixedGasLimit": false
    }
  ],
  "receipts": [
    {
      "status": "0x1",
      "cumulativeGasUsed": "0xdf5f97",
      "logs": [
        {
          "address": "0x68fa5dd1657101c163b0d0ffbaccb226c4d6cc12",
          "topics": [
            "0xddf252ad1be2c89b69c2b068fc378daa952ba7f163c4a11628f55a4df523b3ef",
            "0x0000000000000000000000000000000000000000000000000000000000000000",
            "0x000000000000000000000000c77f7fed3b5cc8249adc428c5f44c9063b9734b4"
          ],
          "data": "0x000000000000000000000000000000000000000000000035ab028ac154c71b30",
          "blockHash": "0x96d6043bbc72d991a08727c361f1acb2172f789ee0abb02561362c0a9925dacb",
          "blockNumber": "0x734aa8",
          "transactionHash": "0x051e784ca547af9c37d97d7bb256db501d96232bead9fcbf9167a713cfd54c9b",
          "transactionIndex": "0x8a",
          "logIndex": "0xca",
          "removed": false
        },
        {
          "address": "0x68fa5dd1657101c163b0d0ffbaccb226c4d6cc12",
          "topics": [
            "0xddf252ad1be2c89b69c2b068fc378daa952ba7f163c4a11628f55a4df523b3ef",
            "0x0000000000000000000000000000000000000000000000000000000000000000",
            "0x000000000000000000000000c77f7fed3b5cc8249adc428c5f44c9063b9734b4"
          ],
          "data": "0x00000000000000000000000000000000000000000000000029accf52156cec36",
          "blockHash": "0x96d6043bbc72d991a08727c361f1acb2172f789ee0abb02561362c0a9925dacb",
          "blockNumber": "0x734aa8",
          "transactionHash": "0x051e784ca547af9c37d97d7bb256db501d96232bead9fcbf9167a713cfd54c9b",
          "transactionIndex": "0x8a",
          "logIndex": "0xcb",
          "removed": false
        },
        {
          "address": "0x68fa5dd1657101c163b0d0ffbaccb226c4d6cc12",
          "topics": [
            "0x4afcb4a87cdbd9974efdb92ee48bc8d7cd0ae4bf217004db3d080cbaee652ca7"
          ],
          "data": "0x0000000000000000000000000000000000000000000000000000000067928c34000000000000000000000000000000000000000000000000000393d6e1a1f5be0000000000000000000000000000000000000000000000000de0b6b3a7640000",
          "blockHash": "0x96d6043bbc72d991a08727c361f1acb2172f789ee0abb02561362c0a9925dacb",
          "blockNumber": "0x734aa8",
          "transactionHash": "0x051e784ca547af9c37d97d7bb256db501d96232bead9fcbf9167a713cfd54c9b",
          "transactionIndex": "0x8a",
          "logIndex": "0xcc",
          "removed": false
        }
      ],
      "logsBloom": "0x00000000000000000000000000010000000000000000000000000000000000000000000000000000000000000000000000000000000000004000000000000000000000000000000000000008000000000000000000000000000000000000000000000000020000000000000000000800020000000000000000000010000000000000000000000000000000000000000000000000000000000000810000000000000000000000000000000000000000004000000000000000000000000000000000000002000000800000000000000000000000000000080000000000000020000000000000000000000000000000000000000000000000040000000000000000",
      "type": "0x2",
      "transactionHash": "0x051e784ca547af9c37d97d7bb256db501d96232bead9fcbf9167a713cfd54c9b",
      "transactionIndex": "0x8a",
      "blockHash": "0x96d6043bbc72d991a08727c361f1acb2172f789ee0abb02561362c0a9925dacb",
      "blockNumber": "0x734aa8",
      "gasUsed": "0x13ac7",
      "effectiveGasPrice": "0x552ce029b",
      "from": "0xc77f7fed3b5cc8249adc428c5f44c9063b9734b4",
      "to": "0x68fa5dd1657101c163b0d0ffbaccb226c4d6cc12",
      "contractAddress": null
    }
  ],
  "libraries": [],
  "pending": [],
  "returns": {},
  "timestamp": 1737657397,
  "chain": 11155111,
  "commit": "f5162e9"
}