{
  "transactions": [
    {
      "hash": "0x1df189ac004af6e4004eadecc6862f50e0c36ed43d3dba03e7e86873b3590182",
      "transactionType": "CALL",
      "contractName": null,
      "contractAddress": "0x5eb9cc76c3506942c1c0ead70e877dd5e4f00cb0",
      "function": "buy(address)",
      "arguments": [
        "0xC77f7fed3b5Cc8249aDc428c5F44C9063B9734b4"
      ],
      "transaction": {
        "from": "0xc77f7fed3b5cc8249adc428c5f44c9063b9734b4",
        "to": "0x5eb9cc76c3506942c1c0ead70e877dd5e4f00cb0",
        "gas": "0x156c8",
        "value": "0xde0b6b3a7640000",
        "input": "0xf088d547000000000000000000000000c77f7fed3b5cc8249adc428c5f44c9063b9734b4",
        "nonce": "0x1ad",
        "chainId": "0xaa36a7"
      },
      "additionalContracts": [],
      "isFixedGasLimit": false
    }
  ],
  "receipts": [
    {
      "status": "0x1",
      "cumulativeGasUsed": "0x58ab6d",
      "logs": [
        {
          "address": "0x5eb9cc76c3506942c1c0ead70e877dd5e4f00cb0",
          "topics": [
            "0xddf252ad1be2c89b69c2b068fc378daa952ba7f163c4a11628f55a4df523b3ef",
            "0x0000000000000000000000000000000000000000000000000000000000000000",
            "0x000000000000000000000000c77f7fed3b5cc8249adc428c5f44c9063b9734b4"
          ],
          "data": "0x000000000000000000000000000000000000000000000035a373d22dd678b82e",
          "blockHash": "0x0faced4f760cf2563eec3a1de9b773eadf14423f8c047e81d4b1c69fc5f2c94e",
          "blockNumber": "0x723c96",
          "transactionHash": "0x1df189ac004af6e4004eadecc6862f50e0c36ed43d3dba03e7e86873b3590182",
          "transactionIndex": "0x48",
          "logIndex": "0x5c",
          "removed": false
        },
        {
          "address": "0x5eb9cc76c3506942c1c0ead70e877dd5e4f00cb0",
          "topics": [
            "0xddf252ad1be2c89b69c2b068fc378daa952ba7f163c4a11628f55a4df523b3ef",
            "0x0000000000000000000000000000000000000000000000000000000000000000",
            "0x000000000000000000000000c77f7fed3b5cc8249adc428c5f44c9063b9734b4"
          ],
          "data": "0x00000000000000000000000000000000000000000000000029a6f0f19c2ebda5",
          "blockHash": "0x0faced4f760cf2563eec3a1de9b773eadf14423f8c047e81d4b1c69fc5f2c94e",
          "blockNumber": "0x723c96",
          "transactionHash": "0x1df189ac004af6e4004eadecc6862f50e0c36ed43d3dba03e7e86873b3590182",
          "transactionIndex": "0x48",
          "logIndex": "0x5d",
          "removed": false
        },
        {
          "address": "0x5eb9cc76c3506942c1c0ead70e877dd5e4f00cb0",
          "topics": [
            "0x4afcb4a87cdbd9974efdb92ee48bc8d7cd0ae4bf217004db3d080cbaee652ca7"
          ],
          "data": "0x000000000000000000000000000000000000000000000000000000006785c85c00000000000000000000000000000000000000000000000000038dfed0dead840000000000000000000000000000000000000000000000000de0b6b3a7640000",
          "blockHash": "0x0faced4f760cf2563eec3a1de9b773eadf14423f8c047e81d4b1c69fc5f2c94e",
          "blockNumber": "0x723c96",
          "transactionHash": "0x1df189ac004af6e4004eadecc6862f50e0c36ed43d3dba03e7e86873b3590182",
          "transactionIndex": "0x48",
          "logIndex": "0x5e",
          "removed": false
        }
      ],
      "logsBloom": "0x00000000000000000000000000000000000000000000000000000000000000000000000000000000000000000000000000000000000000004000000000000000000000000000000000000008000000000000000000000000000000000000000000000000020000000000000004000800020000000000000000000010000000000000000000000000000000000000000000000000000000000000010000000000000000000000000000000000000000004000000000000000000000000000020000000002000000800000008000000000000000000000080000000000000020000000000000000000000000000000000000000000000000000000000000000000",
      "type": "0x2",
      "transactionHash": "0x1df189ac004af6e4004eadecc6862f50e0c36ed43d3dba03e7e86873b3590182",
      "transactionIndex": "0x48",
      "blockHash": "0x0faced4f760cf2563eec3a1de9b773eadf14423f8c047e81d4b1c69fc5f2c94e",
      "blockNumber": "0x723c96",
      "gasUsed": "0xf82c",
      "effectiveGasPrice": "0x1d56b4caf",
      "from": "0xc77f7fed3b5cc8249adc428c5f44c9063b9734b4",
      "to": "0x5eb9cc76c3506942c1c0ead70e877dd5e4f00cb0",
      "contractAddress": null
    }
  ],
  "libraries": [],
  "pending": [],
  "returns": {},
  "timestamp": 1736820829,
  "chain": 11155111,
  "commit": "51a374b"
}