{
  "transactions": [
    {
      "hash": "0x48ed29ca16e4d0150180309f1518ae29a857060e31f7918c2fe81c52f4e71e56",
      "transactionType": "CALL",
      "contractName": null,
      "contractAddress": "0xcf440b3a823449ec0d9b413bd183a81e44da5441",
      "function": "buy(address)",
      "arguments": [
        "0xF66076775AD1f36dd12C1f1b10C21d1aadf0D6dE"
      ],
      "transaction": {
        "from": "0xf66076775ad1f36dd12c1f1b10c21d1aadf0d6de",
        "to": "0xcf440b3a823449ec0d9b413bd183a81e44da5441",
        "gas": "0x2000d",
        "value": "0x2386f26fc10000",
        "input": "0xf088d547000000000000000000000000f66076775ad1f36dd12c1f1b10c21d1aadf0d6de",
        "nonce": "0x77",
        "chainId": "0xaa36a7"
      },
      "additionalContracts": [],
      "isFixedGasLimit": false
    },
    {
      "hash": "0x33130ff1bb76f198c30bd4d20ff52433069471960e596f448bddec0dcf492fe0",
      "transactionType": "CALL",
      "contractName": null,
      "contractAddress": "0xcf440b3a823449ec0d9b413bd183a81e44da5441",
      "function": "borrow(uint256,uint256)",
      "arguments": [
        "9949748743718592",
        "0"
      ],
      "transaction": {
        "from": "0xf66076775ad1f36dd12c1f1b10c21d1aadf0d6de",
        "to": "0xcf440b3a823449ec0d9b413bd183a81e44da5441",
        "gas": "0x52ca3",
        "value": "0x0",
        "input": "0x0ecbcdab0000000000000000000000000000000000000000000000000023593e677946c00000000000000000000000000000000000000000000000000000000000000000",
        "nonce": "0x78",
        "chainId": "0xaa36a7"
      },
      "additionalContracts": [],
      "isFixedGasLimit": false
    }
  ],
  "receipts": [
    {
      "status": "0x1",
      "cumulativeGasUsed": "0xc395db",
      "logs": [
        {
          "address": "0xcf440b3a823449ec0d9b413bd183a81e44da5441",
          "topics": [
            "0xddf252ad1be2c89b69c2b068fc378daa952ba7f163c4a11628f55a4df523b3ef",
            "0x0000000000000000000000000000000000000000000000000000000000000000",
            "0x000000000000000000000000f66076775ad1f36dd12c1f1b10c21d1aadf0d6de"
          ],
          "data": "0x0000000000000000000000000000000000000000000000008963dd8c2c5e26ac",
          "blockHash": "0x5096a85a1d3e4b537f9500be42ad53ea3c54b3ea5b9ced0bc3383f12eb14e9f4",
          "blockNumber": "0x73d79f",
          "transactionHash": "0x48ed29ca16e4d0150180309f1518ae29a857060e31f7918c2fe81c52f4e71e56",
          "transactionIndex": "0x69",
          "logIndex": "0xb8",
          "removed": false
        },
        {
          "address": "0xcf440b3a823449ec0d9b413bd183a81e44da5441",
          "topics": [
            "0x4afcb4a87cdbd9974efdb92ee48bc8d7cd0ae4bf217004db3d080cbaee652ca7"
          ],
          "data": "0x0000000000000000000000000000000000000000000000000000000067995f0000000000000000000000000000000000000000000000000000039210a59a78eb000000000000000000000000000000000000000000000000002386f26fc10000",
          "blockHash": "0x5096a85a1d3e4b537f9500be42ad53ea3c54b3ea5b9ced0bc3383f12eb14e9f4",
          "blockNumber": "0x73d79f",
          "transactionHash": "0x48ed29ca16e4d0150180309f1518ae29a857060e31f7918c2fe81c52f4e71e56",
          "transactionIndex": "0x69",
          "logIndex": "0xb9",
          "removed": false
        }
      ],
      "logsBloom": "0x00000000000000040000000000000000000000000000000004000000000000000000000000000000000000000000000000000000000000004000000000000000000000000000000000000008000000000040000000000000000000000000000000000000420000000000000000000800220000000000000000000010000000000000000000000000000000000000000000000000000000000000000000000000000000000000000000000000000000004000000000000000000000000000000000000002000000000000000000000000000000000000000000000020000020000000000000000000000000000000000000000000000000000000000000000000",
      "type": "0x2",
      "transactionHash": "0x48ed29ca16e4d0150180309f1518ae29a857060e31f7918c2fe81c52f4e71e56",
      "transactionIndex": "0x69",
      "blockHash": "0x5096a85a1d3e4b537f9500be42ad53ea3c54b3ea5b9ced0bc3383f12eb14e9f4",
      "blockNumber": "0x73d79f",
      "gasUsed": "0x172b8",
      "effectiveGasPrice": "0x4a95d3ca",
      "from": "0xf66076775ad1f36dd12c1f1b10c21d1aadf0d6de",
      "to": "0xcf440b3a823449ec0d9b413bd183a81e44da5441",
      "contractAddress": null
    },
    {
      "status": "0x1",
      "cumulativeGasUsed": "0xc754df",
      "logs": [
        {
          "address": "0xcf440b3a823449ec0d9b413bd183a81e44da5441",
          "topics": [
            "0xddf252ad1be2c89b69c2b068fc378daa952ba7f163c4a11628f55a4df523b3ef",
            "0x000000000000000000000000f66076775ad1f36dd12c1f1b10c21d1aadf0d6de",
            "0x000000000000000000000000cf440b3a823449ec0d9b413bd183a81e44da5441"
          ],
          "data": "0x0000000000000000000000000000000000000000000000008963dd8c2c5e22eb",
          "blockHash": "0x5096a85a1d3e4b537f9500be42ad53ea3c54b3ea5b9ced0bc3383f12eb14e9f4",
          "blockNumber": "0x73d79f",
          "transactionHash": "0x33130ff1bb76f198c30bd4d20ff52433069471960e596f448bddec0dcf492fe0",
          "transactionIndex": "0x6a",
          "logIndex": "0xba",
          "removed": false
        },
        {
          "address": "0xcf440b3a823449ec0d9b413bd183a81e44da5441",
          "topics": [
            "0x03bbe564cb1b78e43195eeadbde99e5b89b19345862807fcfb59f884e4165e25"
          ],
          "data": "0x000000000000000000000000f66076775ad1f36dd12c1f1b10c21d1aadf0d6de0000000000000000000000000000000000000000000000000022f5b3bbd6eb18",
          "blockHash": "0x5096a85a1d3e4b537f9500be42ad53ea3c54b3ea5b9ced0bc3383f12eb14e9f4",
          "blockNumber": "0x73d79f",
          "transactionHash": "0x33130ff1bb76f198c30bd4d20ff52433069471960e596f448bddec0dcf492fe0",
          "transactionIndex": "0x6a",
          "logIndex": "0xbb",
          "removed": false
        },
        {
          "address": "0xcf440b3a823449ec0d9b413bd183a81e44da5441",
          "topics": [
            "0x03bbe564cb1b78e43195eeadbde99e5b89b19345862807fcfb59f884e4165e25"
          ],
          "data": "0x00000000000000000000000038818e389773445cd73adbaa37b8b169f458c6e1000000000000000000000000000000000000000000000000000002b6fb5f310b",
          "blockHash": "0x5096a85a1d3e4b537f9500be42ad53ea3c54b3ea5b9ced0bc3383f12eb14e9f4",
          "blockNumber": "0x73d79f",
          "transactionHash": "0x33130ff1bb76f198c30bd4d20ff52433069471960e596f448bddec0dcf492fe0",
          "transactionIndex": "0x6a",
          "logIndex": "0xbc",
          "removed": false
        },
        {
          "address": "0xcf440b3a823449ec0d9b413bd183a81e44da5441",
          "topics": [
            "0xaec00f5213a37254bc68a26b0685d1a5b2bf513e1e587c94c7df7f4a62b56c9c"
          ],
          "data": "0x0000000000000000000000000000000000000000000000008963dd8c2c5e22eb0000000000000000000000000000000000000000000000000022fec05714393e0000000000000000000000000000000000000000000000000022fec05714393e0000000000000000000000000000000000000000000000008963dd8c2c5e22eb",
          "blockHash": "0x5096a85a1d3e4b537f9500be42ad53ea3c54b3ea5b9ced0bc3383f12eb14e9f4",
          "blockNumber": "0x73d79f",
          "transactionHash": "0x33130ff1bb76f198c30bd4d20ff52433069471960e596f448bddec0dcf492fe0",
          "transactionIndex": "0x6a",
          "logIndex": "0xbd",
          "removed": false
        },
        {
          "address": "0xcf440b3a823449ec0d9b413bd183a81e44da5441",
          "topics": [
            "0x4afcb4a87cdbd9974efdb92ee48bc8d7cd0ae4bf217004db3d080cbaee652ca7"
          ],
          "data": "0x0000000000000000000000000000000000000000000000000000000067995f000000000000000000000000000000000000000000000000000003926222b3c8db0000000000000000000000000000000000000000000000000000090c9b3d4e26",
          "blockHash": "0x5096a85a1d3e4b537f9500be42ad53ea3c54b3ea5b9ced0bc3383f12eb14e9f4",
          "blockNumber": "0x73d79f",
          "transactionHash": "0x33130ff1bb76f198c30bd4d20ff52433069471960e596f448bddec0dcf492fe0",
          "transactionIndex": "0x6a",
          "logIndex": "0xbe",
          "removed": false
        }
      ],
      "logsBloom": "0x00000000000000040000000000000100400000000000000004000000000000000008000000020000000000000000000000002000000000004000000000000000000000000000000000000008000000000040000000000000000000000000000000000000400000000000000000000000220004000000000000000010000000000000000010000000000000000000000000000000000000000000000000000000000000000000000000000400000000004000000000000000000000001000000000000002000000000000000000000000000000000000000000000020000000000000000000000000000000000000000000000000000000000000000000000000",
      "type": "0x2",
      "transactionHash": "0x33130ff1bb76f198c30bd4d20ff52433069471960e596f448bddec0dcf492fe0",
      "transactionIndex": "0x6a",
      "blockHash": "0x5096a85a1d3e4b537f9500be42ad53ea3c54b3ea5b9ced0bc3383f12eb14e9f4",
      "blockNumber": "0x73d79f",
      "gasUsed": "0x3bf04",
      "effectiveGasPrice": "0x4a95d3ca",
      "from": "0xf66076775ad1f36dd12c1f1b10c21d1aadf0d6de",
      "to": "0xcf440b3a823449ec0d9b413bd183a81e44da5441",
      "contractAddress": null
    }
  ],
  "libraries": [],
  "pending": [],
  "returns": {},
  "timestamp": 1738104579,
  "chain": 11155111,
  "commit": "b6e395f"
}