{
  "transactions": [
    {
      "hash": "0x550e9ed0ae975259d7e38e0dd627dd56d68fb90ea5a7dc94566a07471ae12cef",
      "transactionType": "CALL",
      "contractName": null,
      "contractAddress": "0x270e88f8683660553e8ba4eb2ad7c91a1710d769",
      "function": "sell(uint256)",
      "arguments": [
        "978213649434441000884"
      ],
      "transaction": {
        "from": "0xc77f7fed3b5cc8249adc428c5f44c9063b9734b4",
        "to": "0x270e88f8683660553e8ba4eb2ad7c91a1710d769",
        "gas": "0x16fec",
        "value": "0x0",
        "input": "0xe4849b320000000000000000000000000000000000000000000000350771035cd259a7b4",
        "nonce": "0x533",
        "chainId": "0xaa36a7"
      },
      "additionalContracts": [],
      "isFixedGasLimit": false
    }
  ],
  "receipts": [
    {
      "status": "0x1",
      "cumulativeGasUsed": "0xaf06b2",
      "logs": [
        {
          "address": "0x270e88f8683660553e8ba4eb2ad7c91a1710d769",
          "topics": [
            "0xddf252ad1be2c89b69c2b068fc378daa952ba7f163c4a11628f55a4df523b3ef",
            "0x000000000000000000000000c77f7fed3b5cc8249adc428c5f44c9063b9734b4",
            "0x0000000000000000000000000000000000000000000000000000000000000000"
          ],
          "data": "0x0000000000000000000000000000000000000000000000350771035cd259a7b4",
          "blockHash": "0x2f349c325fb52ee1f250d67073ceb889f643d142314063a6b6295fce10521444",
          "blockNumber": "0x7251cd",
          "transactionHash": "0x550e9ed0ae975259d7e38e0dd627dd56d68fb90ea5a7dc94566a07471ae12cef",
          "transactionIndex": "0x5a",
          "logIndex": "0xe2",
          "removed": false
        },
        {
          "address": "0x270e88f8683660553e8ba4eb2ad7c91a1710d769",
          "topics": [
            "0x4afcb4a87cdbd9974efdb92ee48bc8d7cd0ae4bf217004db3d080cbaee652ca7"
          ],
          "data": "0x000000000000000000000000000000000000000000000000000000006786c78000000000000000000000000000000000000000000000000000039b89a32ba8c20000000000000000000000000000000000000000000000000dc8410ea34def0e",
          "blockHash": "0x2f349c325fb52ee1f250d67073ceb889f643d142314063a6b6295fce10521444",
          "blockNumber": "0x7251cd",
          "transactionHash": "0x550e9ed0ae975259d7e38e0dd627dd56d68fb90ea5a7dc94566a07471ae12cef",
          "transactionIndex": "0x5a",
          "logIndex": "0xe3",
          "removed": false
        }
      ],
      "logsBloom": "0x00000000000000000000000000000000000000000000000000000000000000000000000000000000000000000000000020000000000000004000000000000000000000000000000000000008000000000000000000000000000000000000000000000000020000000000000000000800020000000000000000000010000000000000000000010000000000000000000000000000000000000000010000000000000000000000000000000000000000004000000000000000000000000000000000000002000000800000000000000000000000000000080000008000000020000000000000000000000000000000000000000000000000000000000000000000",
      "type": "0x2",
      "transactionHash": "0x550e9ed0ae975259d7e38e0dd627dd56d68fb90ea5a7dc94566a07471ae12cef",
      "transactionIndex": "0x5a",
      "blockHash": "0x2f349c325fb52ee1f250d67073ceb889f643d142314063a6b6295fce10521444",
      "blockNumber": "0x7251cd",
      "gasUsed": "0xfb93",
      "effectiveGasPrice": "0x425bdb7d8",
      "from": "0xc77f7fed3b5cc8249adc428c5f44c9063b9734b4",
      "to": "0x270e88f8683660553e8ba4eb2ad7c91a1710d769",
      "contractAddress": null
    }
  ],
  "libraries": [],
  "pending": [],
  "returns": {},
  "timestamp": 1736886146,
  "chain": 11155111,
  "commit": "51a374b"
}