{
  "transactions": [
    {
      "hash": "0x51025ff29f48f78a9420d1a7dac3b22fc5c02d6a57dd1b2f1e655912c7a67b9e",
      "transactionType": "CALL",
      "contractName": null,
      "contractAddress": "0x270e88f8683660553e8ba4eb2ad7c91a1710d769",
      "function": "buy(address)",
      "arguments": [
        "0xC77f7fed3b5Cc8249aDc428c5F44C9063B9734b4"
      ],
      "transaction": {
        "from": "0xc77f7fed3b5cc8249adc428c5f44c9063b9734b4",
        "to": "0x270e88f8683660553e8ba4eb2ad7c91a1710d769",
        "gas": "0x1b30c",
        "value": "0xde0b6b3a7640000",
        "input": "0xf088d547000000000000000000000000c77f7fed3b5cc8249adc428c5f44c9063b9734b4",
        "nonce": "0x73b",
        "chainId": "0xaa36a7"
      },
      "additionalContracts": [],
      "isFixedGasLimit": false
    }
  ],
  "receipts": [
    {
      "status": "0x1",
      "cumulativeGasUsed": "0x5edcd6",
      "logs": [
        {
          "address": "0x270e88f8683660553e8ba4eb2ad7c91a1710d769",
          "topics": [
            "0xddf252ad1be2c89b69c2b068fc378daa952ba7f163c4a11628f55a4df523b3ef",
            "0x0000000000000000000000000000000000000000000000000000000000000000",
            "0x000000000000000000000000c77f7fed3b5cc8249adc428c5f44c9063b9734b4"
          ],
          "data": "0x000000000000000000000000000000000000000000000027fd8c9c76d5031d34",
          "blockHash": "0x24ac6c20e3099f2a32584e90b8907431697288393e053237011706bbd2ea3361",
          "blockNumber": "0x72545c",
          "transactionHash": "0x51025ff29f48f78a9420d1a7dac3b22fc5c02d6a57dd1b2f1e655912c7a67b9e",
          "transactionIndex": "0x2f",
          "logIndex": "0x57",
          "removed": false
        },
        {
          "address": "0x270e88f8683660553e8ba4eb2ad7c91a1710d769",
          "topics": [
            "0xddf252ad1be2c89b69c2b068fc378daa952ba7f163c4a11628f55a4df523b3ef",
            "0x0000000000000000000000000000000000000000000000000000000000000000",
            "0x000000000000000000000000c77f7fed3b5cc8249adc428c5f44c9063b9734b4"
          ],
          "data": "0x0000000000000000000000000000000000000000000000001f0dce635e59baee",
          "blockHash": "0x24ac6c20e3099f2a32584e90b8907431697288393e053237011706bbd2ea3361",
          "blockNumber": "0x72545c",
          "transactionHash": "0x51025ff29f48f78a9420d1a7dac3b22fc5c02d6a57dd1b2f1e655912c7a67b9e",
          "transactionIndex": "0x2f",
          "logIndex": "0x58",
          "removed": false
        },
        {
          "address": "0x270e88f8683660553e8ba4eb2ad7c91a1710d769",
          "topics": [
            "0x4afcb4a87cdbd9974efdb92ee48bc8d7cd0ae4bf217004db3d080cbaee652ca7"
          ],
          "data": "0x000000000000000000000000000000000000000000000000000000006786e6580000000000000000000000000000000000000000000000000004c4aa8581e0140000000000000000000000000000000000000000000000000de0b6b3a7640000",
          "blockHash": "0x24ac6c20e3099f2a32584e90b8907431697288393e053237011706bbd2ea3361",
          "blockNumber": "0x72545c",
          "transactionHash": "0x51025ff29f48f78a9420d1a7dac3b22fc5c02d6a57dd1b2f1e655912c7a67b9e",
          "transactionIndex": "0x2f",
          "logIndex": "0x59",
          "removed": false
        }
      ],
      "logsBloom": "0x00000000000000000000000000000000000000000000000000000000000000000000000000000000000000000000000020000000000000004000000000000000000000000000000000000008000000000000000000000000000000000000000000000000020000000000000000000800020000000000000000000010000000000000000000010000000000000000000000000000000000000000010000000000000000000000000000000000000000004000000000000000000000000000000000000002000000800000000000000000000000000000080000008000000020000000000000000000000000000000000000000000000000000000000000000000",
      "type": "0x2",
      "transactionHash": "0x51025ff29f48f78a9420d1a7dac3b22fc5c02d6a57dd1b2f1e655912c7a67b9e",
      "transactionIndex": "0x2f",
      "blockHash": "0x24ac6c20e3099f2a32584e90b8907431697288393e053237011706bbd2ea3361",
      "blockNumber": "0x72545c",
      "gasUsed": "0x13af8",
      "effectiveGasPrice": "0x137a1eecf",
      "from": "0xc77f7fed3b5cc8249adc428c5f44c9063b9734b4",
      "to": "0x270e88f8683660553e8ba4eb2ad7c91a1710d769",
      "contractAddress": null
    }
  ],
  "libraries": [],
  "pending": [],
  "returns": {},
  "timestamp": 1736894041,
  "chain": 11155111,
  "commit": "51a374b"
}