{
  "transactions": [
    {
      "hash": "0xb8521edc1166429a29e91b6baa63332d0382219c741ba4bbdc26e68f1f0c88f7",
      "transactionType": "CALL",
      "contractName": null,
      "contractAddress": "0x8aafd3ede9adb0ff97c7aebce82a919afb1c8764",
      "function": "sell(uint256)",
      "arguments": [
        "187649842"
      ],
      "transaction": {
        "from": "0xc77f7fed3b5cc8249adc428c5f44c9063b9734b4",
        "to": "0x8aafd3ede9adb0ff97c7aebce82a919afb1c8764",
        "gas": "0x14e6c",
        "value": "0x0",
        "input": "0xe4849b32000000000000000000000000000000000000000000000000000000000b2f4f32",
        "nonce": "0x103d",
        "chainId": "0xaa36a7"
      },
      "additionalContracts": [],
      "isFixedGasLimit": false
    }
  ],
  "receipts": [
    {
      "status": "0x1",
      "cumulativeGasUsed": "0xa68f92",
      "logs": [
        {
          "address": "0x8aafd3ede9adb0ff97c7aebce82a919afb1c8764",
          "topics": [
            "0xddf252ad1be2c89b69c2b068fc378daa952ba7f163c4a11628f55a4df523b3ef",
            "0x000000000000000000000000c77f7fed3b5cc8249adc428c5f44c9063b9734b4",
            "0x0000000000000000000000000000000000000000000000000000000000000000"
          ],
          "data": "0x000000000000000000000000000000000000000000000000000000000b186724",
          "blockHash": "0x609d58b965d26b6c906dc39a69954fd516162cfd1b73e81f82aec0dbcab3e627",
          "blockNumber": "0x7316bc",
          "transactionHash": "0xb8521edc1166429a29e91b6baa63332d0382219c741ba4bbdc26e68f1f0c88f7",
          "transactionIndex": "0x7a",
          "logIndex": "0x8b",
          "removed": false
        },
        {
          "address": "0x8aafd3ede9adb0ff97c7aebce82a919afb1c8764",
          "topics": [
            "0xddf252ad1be2c89b69c2b068fc378daa952ba7f163c4a11628f55a4df523b3ef",
            "0x000000000000000000000000c77f7fed3b5cc8249adc428c5f44c9063b9734b4",
            "0x000000000000000000000000c77f7fed3b5cc8249adc428c5f44c9063b9734b4"
          ],
          "data": "0x000000000000000000000000000000000000000000000000000000000016e80e",
          "blockHash": "0x609d58b965d26b6c906dc39a69954fd516162cfd1b73e81f82aec0dbcab3e627",
          "blockNumber": "0x7316bc",
          "transactionHash": "0xb8521edc1166429a29e91b6baa63332d0382219c741ba4bbdc26e68f1f0c88f7",
          "transactionIndex": "0x7a",
          "logIndex": "0x8c",
          "removed": false
        },
        {
          "address": "0x8aafd3ede9adb0ff97c7aebce82a919afb1c8764",
          "topics": [
            "0x4afcb4a87cdbd9974efdb92ee48bc8d7cd0ae4bf217004db3d080cbaee652ca7"
          ],
          "data": "0x0000000000000000000000000000000000000000000000000000000067900d880000000000000000000000000000000000000000000000000004ef1cc9407a6a000000000000000000000000000000000000000000000000000000000003fa01",
          "blockHash": "0x609d58b965d26b6c906dc39a69954fd516162cfd1b73e81f82aec0dbcab3e627",
          "blockNumber": "0x7316bc",
          "transactionHash": "0xb8521edc1166429a29e91b6baa63332d0382219c741ba4bbdc26e68f1f0c88f7",
          "transactionIndex": "0x7a",
          "logIndex": "0x8d",
          "removed": false
        }
      ],
      "logsBloom": "0x00000000000000000000000000000000000000000600000000000000000000000000000000000000000000000000000000000000000000004000000000000000000000000000004000000008000000000000000000000000000000000000000000000000020000000000000000000800020000000000000000000010000000000000000000000000000000000000000000000000000000000000010000000000000000000000000000000000000000004000000000000000000000000000000000000002000000800000000000000000000000000000080000000000000020000000000000000000000000000000000000000000000000000000000000000000",
      "type": "0x2",
      "transactionHash": "0xb8521edc1166429a29e91b6baa63332d0382219c741ba4bbdc26e68f1f0c88f7",
      "transactionIndex": "0x7a",
      "blockHash": "0x609d58b965d26b6c906dc39a69954fd516162cfd1b73e81f82aec0dbcab3e627",
      "blockNumber": "0x7316bc",
      "gasUsed": "0xf21f",
      "effectiveGasPrice": "0x4d5187d8",
      "from": "0xc77f7fed3b5cc8249adc428c5f44c9063b9734b4",
      "to": "0x8aafd3ede9adb0ff97c7aebce82a919afb1c8764",
      "contractAddress": null
    }
  ],
  "libraries": [],
  "pending": [],
  "returns": {},
  "timestamp": 1737493898,
  "chain": 11155111,
  "commit": "1d2fb70"
}