{
  "transactions": [
    {
      "hash": "0x316dfa7c449893b79c304ee8ff37675ddbda5a73894944412c39bfb7747bfbd5",
      "transactionType": "CALL",
      "contractName": null,
      "contractAddress": "0xbf4a322f1496e5c3d34a9bcdb4c60567b38c7de2",
      "function": "sell(uint256)",
      "arguments": [
        "987235503690602372945"
      ],
      "transaction": {
        "from": "0xc77f7fed3b5cc8249adc428c5f44c9063b9734b4",
        "to": "0xbf4a322f1496e5c3d34a9bcdb4c60567b38c7de2",
        "gas": "0x16fea",
        "value": "0x0",
        "input": "0xe4849b3200000000000000000000000000000000000000000000003584a514023c31df51",
        "nonce": "0xa01",
        "chainId": "0xaa36a7"
      },
      "additionalContracts": [],
      "isFixedGasLimit": false
    }
  ],
  "receipts": [
    {
      "status": "0x1",
      "cumulativeGasUsed": "0x149aa27",
      "logs": [
        {
          "address": "0xbf4a322f1496e5c3d34a9bcdb4c60567b38c7de2",
          "topics": [
            "0xddf252ad1be2c89b69c2b068fc378daa952ba7f163c4a11628f55a4df523b3ef",
            "0x000000000000000000000000c77f7fed3b5cc8249adc428c5f44c9063b9734b4",
            "0x0000000000000000000000000000000000000000000000000000000000000000"
          ],
          "data": "0x00000000000000000000000000000000000000000000003584a514023c31df51",
          "blockHash": "0xe01751ea59bc095f1eb8e05645ae012ff92e0be4baaafed8a86d80976e809d5c",
          "blockNumber": "0x7259bd",
          "transactionHash": "0x316dfa7c449893b79c304ee8ff37675ddbda5a73894944412c39bfb7747bfbd5",
          "transactionIndex": "0xc8",
          "logIndex": "0x125",
          "removed": false
        },
        {
          "address": "0xbf4a322f1496e5c3d34a9bcdb4c60567b38c7de2",
          "topics": [
            "0x4afcb4a87cdbd9974efdb92ee48bc8d7cd0ae4bf217004db3d080cbaee652ca7"
          ],
          "data": "0x0000000000000000000000000000000000000000000000000000000067872720000000000000000000000000000000000000000000000000000392d552348b270000000000000000000000000000000000000000000000000dc7e3f2e390638e",
          "blockHash": "0xe01751ea59bc095f1eb8e05645ae012ff92e0be4baaafed8a86d80976e809d5c",
          "blockNumber": "0x7259bd",
          "transactionHash": "0x316dfa7c449893b79c304ee8ff37675ddbda5a73894944412c39bfb7747bfbd5",
          "transactionIndex": "0xc8",
          "logIndex": "0x126",
          "removed": false
        }
      ],
      "logsBloom": "0x00000000000000000000000000000000000000000000000000000000000000000000000000000000000000000000000000000000000000004000000000000000000000000000000000000008000000000000001000000000000000000000000000000000020000000000000000000800020000000000000000000010000000000000000000000000000000000000000000000000000008000000010000000000000000000000000000000000000000004000000000000000000000000000000000000002000000800000000000001000000000000000080000000000000020000000000000000000000000000000000000000000000000000000000000000000",
      "type": "0x2",
      "transactionHash": "0x316dfa7c449893b79c304ee8ff37675ddbda5a73894944412c39bfb7747bfbd5",
      "transactionIndex": "0xc8",
      "blockHash": "0xe01751ea59bc095f1eb8e05645ae012ff92e0be4baaafed8a86d80976e809d5c",
      "blockNumber": "0x7259bd",
      "gasUsed": "0xfb91",
      "effectiveGasPrice": "0x3749f73c1",
      "from": "0xc77f7fed3b5cc8249adc428c5f44c9063b9734b4",
      "to": "0xbf4a322f1496e5c3d34a9bcdb4c60567b38c7de2",
      "contractAddress": null
    }
  ],
  "libraries": [],
  "pending": [],
  "returns": {},
  "timestamp": 1736910626,
  "chain": 11155111,
  "commit": "51a374b"
}