{
  "transactions": [
    {
      "hash": "0x529d929f7d0aece536afbe92696e6e85f415d982ed91ce2676f690fe890d7d8c",
      "transactionType": "CALL",
      "contractName": null,
      "contractAddress": "0x270e88f8683660553e8ba4eb2ad7c91a1710d769",
      "function": "sell(uint256)",
      "arguments": [
        "721572806748091450168"
      ],
      "transaction": {
        "from": "0xc77f7fed3b5cc8249adc428c5f44c9063b9734b4",
        "to": "0x270e88f8683660553e8ba4eb2ad7c91a1710d769",
        "gas": "0x16fec",
        "value": "0x0",
        "input": "0xe4849b320000000000000000000000000000000000000000000000271dd594ae49940338",
        "nonce": "0x810",
        "chainId": "0xaa36a7"
      },
      "additionalContracts": [],
      "isFixedGasLimit": false
    }
  ],
  "receipts": [
    {
      "status": "0x1",
      "cumulativeGasUsed": "0x6caf17",
      "logs": [
        {
          "address": "0x270e88f8683660553e8ba4eb2ad7c91a1710d769",
          "topics": [
            "0xddf252ad1be2c89b69c2b068fc378daa952ba7f163c4a11628f55a4df523b3ef",
            "0x000000000000000000000000c77f7fed3b5cc8249adc428c5f44c9063b9734b4",
            "0x0000000000000000000000000000000000000000000000000000000000000000"
          ],
          "data": "0x0000000000000000000000000000000000000000000000271dd594ae49940338",
          "blockHash": "0x8030b46db287fe681646417a810da1d42eeddc460e53f684a8a0718d571d2025",
          "blockNumber": "0x725552",
          "transactionHash": "0x529d929f7d0aece536afbe92696e6e85f415d982ed91ce2676f690fe890d7d8c",
          "transactionIndex": "0x4f",
          "logIndex": "0x6d",
          "removed": false
        },
        {
          "address": "0x270e88f8683660553e8ba4eb2ad7c91a1710d769",
          "topics": [
            "0x4afcb4a87cdbd9974efdb92ee48bc8d7cd0ae4bf217004db3d080cbaee652ca7"
          ],
          "data": "0x000000000000000000000000000000000000000000000000000000006786f1e00000000000000000000000000000000000000000000000000004e3e84e5770d00000000000000000000000000000000000000000000000000dc826979bf4c1dd",
          "blockHash": "0x8030b46db287fe681646417a810da1d42eeddc460e53f684a8a0718d571d2025",
          "blockNumber": "0x725552",
          "transactionHash": "0x529d929f7d0aece536afbe92696e6e85f415d982ed91ce2676f690fe890d7d8c",
          "transactionIndex": "0x4f",
          "logIndex": "0x6e",
          "removed": false
        }
      ],
      "logsBloom": "0x00000000000000000000000000000000000000000000000000000000000000000000000000000000000000000000000020000000000000004000000000000000000000000000000000000008000000000000000000000000000000000000000000000000020000000000000000000800020000000000000000000010000000000000000000010000000000000000000000000000000000000000010000000000000000000000000000000000000000004000000000000000000000000000000000000002000000800000000000000000000000000000080000008000000020000000000000000000000000000000000000000000000000000000000000000000",
      "type": "0x2",
      "transactionHash": "0x529d929f7d0aece536afbe92696e6e85f415d982ed91ce2676f690fe890d7d8c",
      "transactionIndex": "0x4f",
      "blockHash": "0x8030b46db287fe681646417a810da1d42eeddc460e53f684a8a0718d571d2025",
      "blockNumber": "0x725552",
      "gasUsed": "0xfb93",
      "effectiveGasPrice": "0x89602cc7",
      "from": "0xc77f7fed3b5cc8249adc428c5f44c9063b9734b4",
      "to": "0x270e88f8683660553e8ba4eb2ad7c91a1710d769",
      "contractAddress": null
    }
  ],
  "libraries": [],
  "pending": [],
  "returns": {},
  "timestamp": 1736896993,
  "chain": 11155111,
  "commit": "51a374b"
}