{
  "transactions": [
    {
      "hash": "0x3b4dc720698e779944d70b18ef8f696beba683b5a4bf6dd726878cd43aad7bd2",
      "transactionType": "CALL",
      "contractName": null,
      "contractAddress": "0x5eb9cc76c3506942c1c0ead70e877dd5e4f00cb0",
      "function": "sell(uint256)",
      "arguments": [
        "989154819664618180780"
      ],
      "transaction": {
        "from": "0xc77f7fed3b5cc8249adc428c5f44c9063b9734b4",
        "to": "0x5eb9cc76c3506942c1c0ead70e877dd5e4f00cb0",
        "gas": "0x16fec",
        "value": "0x0",
        "input": "0xe4849b320000000000000000000000000000000000000000000000359f47dbb7d723d0ac",
        "nonce": "0x2a9",
        "chainId": "0xaa36a7"
      },
      "additionalContracts": [],
      "isFixedGasLimit": false
    }
  ],
  "receipts": [
    {
      "status": "0x1",
      "cumulativeGasUsed": "0xedfc04",
      "logs": [
        {
          "address": "0x5eb9cc76c3506942c1c0ead70e877dd5e4f00cb0",
          "topics": [
            "0xddf252ad1be2c89b69c2b068fc378daa952ba7f163c4a11628f55a4df523b3ef",
            "0x000000000000000000000000c77f7fed3b5cc8249adc428c5f44c9063b9734b4",
            "0x0000000000000000000000000000000000000000000000000000000000000000"
          ],
          "data": "0x0000000000000000000000000000000000000000000000359f47dbb7d723d0ac",
          "blockHash": "0x787332fea8f8ed4444d859e36fbdab50d989c3d4f45fbee1ebf1f4801ff22855",
          "blockNumber": "0x724e82",
          "transactionHash": "0x3b4dc720698e779944d70b18ef8f696beba683b5a4bf6dd726878cd43aad7bd2",
          "transactionIndex": "0x4b",
          "logIndex": "0x89",
          "removed": false
        },
        {
          "address": "0x5eb9cc76c3506942c1c0ead70e877dd5e4f00cb0",
          "topics": [
            "0x4afcb4a87cdbd9974efdb92ee48bc8d7cd0ae4bf217004db3d080cbaee652ca7"
          ],
          "data": "0x0000000000000000000000000000000000000000000000000000000067869fcc00000000000000000000000000000000000000000000000000039108847c7d3f0000000000000000000000000000000000000000000000000dc7db133248fe24",
          "blockHash": "0x787332fea8f8ed4444d859e36fbdab50d989c3d4f45fbee1ebf1f4801ff22855",
          "blockNumber": "0x724e82",
          "transactionHash": "0x3b4dc720698e779944d70b18ef8f696beba683b5a4bf6dd726878cd43aad7bd2",
          "transactionIndex": "0x4b",
          "logIndex": "0x8a",
          "removed": false
        }
      ],
      "logsBloom": "0x00000000000000000000000000000000000000000000000000000000000000000000000000000000000000000000000000000000000000004000000000000000000000000000000000000008000000000000000000000000000000000000000000000000020000000000000004000800020000000000000000000010000000000000000000000000000000000000000000000000000000000000010000000000000000000000000000000000000000004000000000000000000000000000020000000002000000800000008000000000000000000000080000000000000020000000000000000000000000000000000000000000000000000000000000000000",
      "type": "0x2",
      "transactionHash": "0x3b4dc720698e779944d70b18ef8f696beba683b5a4bf6dd726878cd43aad7bd2",
      "transactionIndex": "0x4b",
      "blockHash": "0x787332fea8f8ed4444d859e36fbdab50d989c3d4f45fbee1ebf1f4801ff22855",
      "blockNumber": "0x724e82",
      "gasUsed": "0xfb93",
      "effectiveGasPrice": "0x447171f3d",
      "from": "0xc77f7fed3b5cc8249adc428c5f44c9063b9734b4",
      "to": "0x5eb9cc76c3506942c1c0ead70e877dd5e4f00cb0",
      "contractAddress": null
    }
  ],
  "libraries": [],
  "pending": [],
  "returns": {},
  "timestamp": 1736875981,
  "chain": 11155111,
  "commit": "51a374b"
}