{
  "transactions": [
    {
      "hash": "0x7bc79edb80d14c5ea70e3f127ab425c83889ba3bff300ad59cc2695240e6f973",
      "transactionType": "CALL",
      "contractName": null,
      "contractAddress": "0x270e88f8683660553e8ba4eb2ad7c91a1710d769",
      "function": "buy(address)",
      "arguments": [
        "0xC77f7fed3b5Cc8249aDc428c5F44C9063B9734b4"
      ],
      "transaction": {
        "from": "0xc77f7fed3b5cc8249adc428c5f44c9063b9734b4",
        "to": "0x270e88f8683660553e8ba4eb2ad7c91a1710d769",
        "gas": "0x1b30c",
        "value": "0xde0b6b3a7640000",
        "input": "0xf088d547000000000000000000000000c77f7fed3b5cc8249adc428c5f44c9063b9734b4",
        "nonce": "0x803",
        "chainId": "0xaa36a7"
      },
      "additionalContracts": [],
      "isFixedGasLimit": false
    }
  ],
  "receipts": [
    {
      "status": "0x1",
      "cumulativeGasUsed": "0x48e636",
      "logs": [
        {
          "address": "0x270e88f8683660553e8ba4eb2ad7c91a1710d769",
          "topics": [
            "0xddf252ad1be2c89b69c2b068fc378daa952ba7f163c4a11628f55a4df523b3ef",
            "0x0000000000000000000000000000000000000000000000000000000000000000",
            "0x000000000000000000000000c77f7fed3b5cc8249adc428c5f44c9063b9734b4"
          ],
          "data": "0x0000000000000000000000000000000000000000000000270d97813c0c5952fa",
          "blockHash": "0x152bd967f2674f174b86e5e93a74cf285c9cbde8194babf11db8b90cd86be3e5",
          "blockNumber": "0x725540",
          "transactionHash": "0x7bc79edb80d14c5ea70e3f127ab425c83889ba3bff300ad59cc2695240e6f973",
          "transactionIndex": "0x3a",
          "logIndex": "0x4a",
          "removed": false
        },
        {
          "address": "0x270e88f8683660553e8ba4eb2ad7c91a1710d769",
          "topics": [
            "0xddf252ad1be2c89b69c2b068fc378daa952ba7f163c4a11628f55a4df523b3ef",
            "0x0000000000000000000000000000000000000000000000000000000000000000",
            "0x000000000000000000000000c77f7fed3b5cc8249adc428c5f44c9063b9734b4"
          ],
          "data": "0x0000000000000000000000000000000000000000000000001e5378977b67ca6c",
          "blockHash": "0x152bd967f2674f174b86e5e93a74cf285c9cbde8194babf11db8b90cd86be3e5",
          "blockNumber": "0x725540",
          "transactionHash": "0x7bc79edb80d14c5ea70e3f127ab425c83889ba3bff300ad59cc2695240e6f973",
          "transactionIndex": "0x3a",
          "logIndex": "0x4b",
          "removed": false
        },
        {
          "address": "0x270e88f8683660553e8ba4eb2ad7c91a1710d769",
          "topics": [
            "0x4afcb4a87cdbd9974efdb92ee48bc8d7cd0ae4bf217004db3d080cbaee652ca7"
          ],
          "data": "0x000000000000000000000000000000000000000000000000000000006786f1080000000000000000000000000000000000000000000000000004e1f6226766640000000000000000000000000000000000000000000000000de0b6b3a7640000",
          "blockHash": "0x152bd967f2674f174b86e5e93a74cf285c9cbde8194babf11db8b90cd86be3e5",
          "blockNumber": "0x725540",
          "transactionHash": "0x7bc79edb80d14c5ea70e3f127ab425c83889ba3bff300ad59cc2695240e6f973",
          "transactionIndex": "0x3a",
          "logIndex": "0x4c",
          "removed": false
        }
      ],
      "logsBloom": "0x00000000000000000000000000000000000000000000000000000000000000000000000000000000000000000000000020000000000000004000000000000000000000000000000000000008000000000000000000000000000000000000000000000000020000000000000000000800020000000000000000000010000000000000000000010000000000000000000000000000000000000000010000000000000000000000000000000000000000004000000000000000000000000000000000000002000000800000000000000000000000000000080000008000000020000000000000000000000000000000000000000000000000000000000000000000",
      "type": "0x2",
      "transactionHash": "0x7bc79edb80d14c5ea70e3f127ab425c83889ba3bff300ad59cc2695240e6f973",
      "transactionIndex": "0x3a",
      "blockHash": "0x152bd967f2674f174b86e5e93a74cf285c9cbde8194babf11db8b90cd86be3e5",
      "blockNumber": "0x725540",
      "gasUsed": "0x13af8",
      "effectiveGasPrice": "0x9970a342",
      "from": "0xc77f7fed3b5cc8249adc428c5f44c9063b9734b4",
      "to": "0x270e88f8683660553e8ba4eb2ad7c91a1710d769",
      "contractAddress": null
    }
  ],
  "libraries": [],
  "pending": [],
  "returns": {},
  "timestamp": 1736896778,
  "chain": 11155111,
  "commit": "51a374b"
}