{
  "transactions": [
    {
      "hash": "0x39f63b91942f13f422c8316b9f2b83046165f0712bf15faefa5a37560005d452",
      "transactionType": "CALL",
      "contractName": null,
      "contractAddress": "0x8aafd3ede9adb0ff97c7aebce82a919afb1c8764",
      "function": "sell(uint256)",
      "arguments": [
        "59469245"
      ],
      "transaction": {
        "from": "0xc77f7fed3b5cc8249adc428c5f44c9063b9734b4",
        "to": "0x8aafd3ede9adb0ff97c7aebce82a919afb1c8764",
        "gas": "0x15d88",
        "value": "0x0",
        "input": "0xe4849b3200000000000000000000000000000000000000000000000000000000038b6dbd",
        "nonce": "0x1487",
        "chainId": "0xaa36a7"
      },
      "additionalContracts": [],
      "isFixedGasLimit": false
    }
  ],
  "receipts": [
    {
      "status": "0x1",
      "cumulativeGasUsed": "0x1359547",
      "logs": [
        {
          "address": "0x8aafd3ede9adb0ff97c7aebce82a919afb1c8764",
          "topics": [
            "0xddf252ad1be2c89b69c2b068fc378daa952ba7f163c4a11628f55a4df523b3ef",
            "0x000000000000000000000000c77f7fed3b5cc8249adc428c5f44c9063b9734b4",
            "0x0000000000000000000000000000000000000000000000000000000000000000"
          ],
          "data": "0x0000000000000000000000000000000000000000000000000000000003842b54",
          "blockHash": "0xef5d6463d9a9becc604981d0fceaeff0656ff90fb1e783502fb6e79bc5b4d769",
          "blockNumber": "0x731bd6",
          "transactionHash": "0x39f63b91942f13f422c8316b9f2b83046165f0712bf15faefa5a37560005d452",
          "transactionIndex": "0xb7",
          "logIndex": "0xa1",
          "removed": false
        },
        {
          "address": "0x8aafd3ede9adb0ff97c7aebce82a919afb1c8764",
          "topics": [
            "0xddf252ad1be2c89b69c2b068fc378daa952ba7f163c4a11628f55a4df523b3ef",
            "0x000000000000000000000000c77f7fed3b5cc8249adc428c5f44c9063b9734b4",
            "0x000000000000000000000000c77f7fed3b5cc8249adc428c5f44c9063b9734b4"
          ],
          "data": "0x0000000000000000000000000000000000000000000000000000000000074269",
          "blockHash": "0xef5d6463d9a9becc604981d0fceaeff0656ff90fb1e783502fb6e79bc5b4d769",
          "blockNumber": "0x731bd6",
          "transactionHash": "0x39f63b91942f13f422c8316b9f2b83046165f0712bf15faefa5a37560005d452",
          "transactionIndex": "0xb7",
          "logIndex": "0xa2",
          "removed": false
        },
        {
          "address": "0x8aafd3ede9adb0ff97c7aebce82a919afb1c8764",
          "topics": [
            "0x4afcb4a87cdbd9974efdb92ee48bc8d7cd0ae4bf217004db3d080cbaee652ca7"
          ],
          "data": "0x0000000000000000000000000000000000000000000000000000000067904ae4000000000000000000000000000000000000000000000000000fa77968ce0362000000000000000000000000000000000000000000000000000000000003ff95",
          "blockHash": "0xef5d6463d9a9becc604981d0fceaeff0656ff90fb1e783502fb6e79bc5b4d769",
          "blockNumber": "0x731bd6",
          "transactionHash": "0x39f63b91942f13f422c8316b9f2b83046165f0712bf15faefa5a37560005d452",
          "transactionIndex": "0xb7",
          "logIndex": "0xa3",
          "removed": false
        }
      ],
      "logsBloom": "0x00000000000000000000000000000000000000000600000000000000000000000000000000000000000000000000000000000000000000004000000000000000000000000000004000000008000000000000000000000000000000000000000000000000020000000000000000000800020000000000000000000010000000000000000000000000000000000000000000000000000000000000010000000000000000000000000000000000000000004000000000000000000000000000000000000002000000800000000000000000000000000000080000000000000020000000000000000000000000000000000000000000000000000000000000000000",
      "type": "0x2",
      "transactionHash": "0x39f63b91942f13f422c8316b9f2b83046165f0712bf15faefa5a37560005d452",
      "transactionIndex": "0xb7",
      "blockHash": "0xef5d6463d9a9becc604981d0fceaeff0656ff90fb1e783502fb6e79bc5b4d769",
      "blockNumber": "0x731bd6",
      "gasUsed": "0xfd0f",
      "effectiveGasPrice": "0xfd142a8d",
      "from": "0xc77f7fed3b5cc8249adc428c5f44c9063b9734b4",
      "to": "0x8aafd3ede9adb0ff97c7aebce82a919afb1c8764",
      "contractAddress": null
    }
  ],
  "libraries": [],
  "pending": [],
  "returns": {},
  "timestamp": 1737509606,
  "chain": 11155111,
  "commit": "1d2fb70"
}