{
  "transactions": [
    {
      "hash": "0x42893f7b9ad0a9bd112231a90bae3ca10942f53a70fd8a5dbf6a372543cc054c",
      "transactionType": "CALL",
      "contractName": null,
      "contractAddress": "0xbf4a322f1496e5c3d34a9bcdb4c60567b38c7de2",
      "function": "buy(address)",
      "arguments": [
        "0xC77f7fed3b5Cc8249aDc428c5F44C9063B9734b4"
      ],
      "transaction": {
        "from": "0xc77f7fed3b5cc8249adc428c5f44c9063b9734b4",
        "to": "0xbf4a322f1496e5c3d34a9bcdb4c60567b38c7de2",
        "gas": "0x1b309",
        "value": "0xde0b6b3a7640000",
        "input": "0xf088d547000000000000000000000000c77f7fed3b5cc8249adc428c5f44c9063b9734b4",
        "nonce": "0xd9e",
        "chainId": "0xaa36a7"
      },
      "additionalContracts": [],
      "isFixedGasLimit": false
    }
  ],
  "receipts": [
    {
      "status": "0x1",
      "cumulativeGasUsed": "0x1273501",
      "logs": [
        {
          "address": "0xbf4a322f1496e5c3d34a9bcdb4c60567b38c7de2",
          "topics": [
            "0xddf252ad1be2c89b69c2b068fc378daa952ba7f163c4a11628f55a4df523b3ef",
            "0x0000000000000000000000000000000000000000000000000000000000000000",
            "0x000000000000000000000000c77f7fed3b5cc8249adc428c5f44c9063b9734b4"
          ],
          "data": "0x000000000000000000000000000000000000000000000034aed843102ec2628a",
          "blockHash": "0xd1bdb9f2fbfc3b611afd9b0c6d0ac5a488e5e59fbd4d380bf2d9575293d9e17b",
          "blockNumber": "0x726674",
          "transactionHash": "0x42893f7b9ad0a9bd112231a90bae3ca10942f53a70fd8a5dbf6a372543cc054c",
          "transactionIndex": "0xb7",
          "logIndex": "0xfc",
          "removed": false
        },
        {
          "address": "0xbf4a322f1496e5c3d34a9bcdb4c60567b38c7de2",
          "topics": [
            "0xddf252ad1be2c89b69c2b068fc378daa952ba7f163c4a11628f55a4df523b3ef",
            "0x0000000000000000000000000000000000000000000000000000000000000000",
            "0x000000000000000000000000c77f7fed3b5cc8249adc428c5f44c9063b9734b4"
          ],
          "data": "0x00000000000000000000000000000000000000000000000028e8feb861fc31c7",
          "blockHash": "0xd1bdb9f2fbfc3b611afd9b0c6d0ac5a488e5e59fbd4d380bf2d9575293d9e17b",
          "blockNumber": "0x726674",
          "transactionHash": "0x42893f7b9ad0a9bd112231a90bae3ca10942f53a70fd8a5dbf6a372543cc054c",
          "transactionIndex": "0xb7",
          "logIndex": "0xfd",
          "removed": false
        },
        {
          "address": "0xbf4a322f1496e5c3d34a9bcdb4c60567b38c7de2",
          "topics": [
            "0x4afcb4a87cdbd9974efdb92ee48bc8d7cd0ae4bf217004db3d080cbaee652ca7"
          ],
          "data": "0x000000000000000000000000000000000000000000000000000000006787c04400000000000000000000000000000000000000000000000000039e823c063e4f0000000000000000000000000000000000000000000000000de0b6b3a7640000",
          "blockHash": "0xd1bdb9f2fbfc3b611afd9b0c6d0ac5a488e5e59fbd4d380bf2d9575293d9e17b",
          "blockNumber": "0x726674",
          "transactionHash": "0x42893f7b9ad0a9bd112231a90bae3ca10942f53a70fd8a5dbf6a372543cc054c",
          "transactionIndex": "0xb7",
          "logIndex": "0xfe",
          "removed": false
        }
      ],
      "logsBloom": "0x00000000000000000000000000000000000000000000000000000000000000000000000000000000000000000000000000000000000000004000000000000000000000000000000000000008000000000000001000000000000000000000000000000000020000000000000000000800020000000000000000000010000000000000000000000000000000000000000000000000000008000000010000000000000000000000000000000000000000004000000000000000000000000000000000000002000000800000000000001000000000000000080000000000000020000000000000000000000000000000000000000000000000000000000000000000",
      "type": "0x2",
      "transactionHash": "0x42893f7b9ad0a9bd112231a90bae3ca10942f53a70fd8a5dbf6a372543cc054c",
      "transactionIndex": "0xb7",
      "blockHash": "0xd1bdb9f2fbfc3b611afd9b0c6d0ac5a488e5e59fbd4d380bf2d9575293d9e17b",
      "blockNumber": "0x726674",
      "gasUsed": "0x13af6",
      "effectiveGasPrice": "0x8c4d2a8c",
      "from": "0xc77f7fed3b5cc8249adc428c5f44c9063b9734b4",
      "to": "0xbf4a322f1496e5c3d34a9bcdb4c60567b38c7de2",
      "contractAddress": null
    }
  ],
  "libraries": [],
  "pending": [],
  "returns": {},
  "timestamp": 1736949830,
  "chain": 11155111,
  "commit": "51a374b"
}