{
  "transactions": [
    {
      "hash": "0x6b2df7b507489271f1fea148d8d375cffefb09835a7f0d2c398f83eec2426fe1",
      "transactionType": "CALL",
      "contractName": null,
      "contractAddress": "0x270e88f8683660553e8ba4eb2ad7c91a1710d769",
      "function": "buy(address)",
      "arguments": [
        "0xC77f7fed3b5Cc8249aDc428c5F44C9063B9734b4"
      ],
      "transaction": {
        "from": "0xc77f7fed3b5cc8249adc428c5f44c9063b9734b4",
        "to": "0x270e88f8683660553e8ba4eb2ad7c91a1710d769",
        "gas": "0x1b30c",
        "value": "0xde0b6b3a7640000",
        "input": "0xf088d547000000000000000000000000c77f7fed3b5cc8249adc428c5f44c9063b9734b4",
        "nonce": "0x7c3",
        "chainId": "0xaa36a7"
      },
      "additionalContracts": [],
      "isFixedGasLimit": false
    }
  ],
  "receipts": [
    {
      "status": "0x1",
      "cumulativeGasUsed": "0x51cff5",
      "logs": [
        {
          "address": "0x270e88f8683660553e8ba4eb2ad7c91a1710d769",
          "topics": [
            "0xddf252ad1be2c89b69c2b068fc378daa952ba7f163c4a11628f55a4df523b3ef",
            "0x0000000000000000000000000000000000000000000000000000000000000000",
            "0x000000000000000000000000c77f7fed3b5cc8249adc428c5f44c9063b9734b4"
          ],
          "data": "0x0000000000000000000000000000000000000000000000275925cf522c70a3d7",
          "blockHash": "0x6a3ea335cdaa6c2c8ff69da81ddd406ffde7764db9c8a750cf5d41c28bfc1d15",
          "blockNumber": "0x7254fb",
          "transactionHash": "0x6b2df7b507489271f1fea148d8d375cffefb09835a7f0d2c398f83eec2426fe1",
          "transactionIndex": "0x38",
          "logIndex": "0x4b",
          "removed": false
        },
        {
          "address": "0x270e88f8683660553e8ba4eb2ad7c91a1710d769",
          "topics": [
            "0xddf252ad1be2c89b69c2b068fc378daa952ba7f163c4a11628f55a4df523b3ef",
            "0x0000000000000000000000000000000000000000000000000000000000000000",
            "0x000000000000000000000000c77f7fed3b5cc8249adc428c5f44c9063b9734b4"
          ],
          "data": "0x0000000000000000000000000000000000000000000000001e8e248d24c38ff6",
          "blockHash": "0x6a3ea335cdaa6c2c8ff69da81ddd406ffde7764db9c8a750cf5d41c28bfc1d15",
          "blockNumber": "0x7254fb",
          "transactionHash": "0x6b2df7b507489271f1fea148d8d375cffefb09835a7f0d2c398f83eec2426fe1",
          "transactionIndex": "0x38",
          "logIndex": "0x4c",
          "removed": false
        },
        {
          "address": "0x270e88f8683660553e8ba4eb2ad7c91a1710d769",
          "topics": [
            "0x4afcb4a87cdbd9974efdb92ee48bc8d7cd0ae4bf217004db3d080cbaee652ca7"
          ],
          "data": "0x000000000000000000000000000000000000000000000000000000006786edcc0000000000000000000000000000000000000000000000000004d8962d1ccc180000000000000000000000000000000000000000000000000de0b6b3a7640000",
          "blockHash": "0x6a3ea335cdaa6c2c8ff69da81ddd406ffde7764db9c8a750cf5d41c28bfc1d15",
          "blockNumber": "0x7254fb",
          "transactionHash": "0x6b2df7b507489271f1fea148d8d375cffefb09835a7f0d2c398f83eec2426fe1",
          "transactionIndex": "0x38",
          "logIndex": "0x4d",
          "removed": false
        }
      ],
      "logsBloom": "0x00000000000000000000000000000000000000000000000000000000000000000000000000000000000000000000000020000000000000004000000000000000000000000000000000000008000000000000000000000000000000000000000000000000020000000000000000000800020000000000000000000010000000000000000000010000000000000000000000000000000000000000010000000000000000000000000000000000000000004000000000000000000000000000000000000002000000800000000000000000000000000000080000008000000020000000000000000000000000000000000000000000000000000000000000000000",
      "type": "0x2",
      "transactionHash": "0x6b2df7b507489271f1fea148d8d375cffefb09835a7f0d2c398f83eec2426fe1",
      "transactionIndex": "0x38",
      "blockHash": "0x6a3ea335cdaa6c2c8ff69da81ddd406ffde7764db9c8a750cf5d41c28bfc1d15",
      "blockNumber": "0x7254fb",
      "gasUsed": "0x13af8",
      "effectiveGasPrice": "0xcf3fbdff",
      "from": "0xc77f7fed3b5cc8249adc428c5f44c9063b9734b4",
      "to": "0x270e88f8683660553e8ba4eb2ad7c91a1710d769",
      "contractAddress": null
    }
  ],
  "libraries": [],
  "pending": [],
  "returns": {},
  "timestamp": 1736895949,
  "chain": 11155111,
  "commit": "51a374b"
}