{
  "transactions": [
    {
      "hash": "0xaf844caf844d7649bbf23ec0d5a5fa933027cf0217bbe2471f0ca6ef38a4e8af",
      "transactionType": "CALL",
      "contractName": null,
      "contractAddress": "0x3451438d7029162f8920018a49d325ef6367d8ae",
      "function": "borrow(uint256,uint256)",
      "arguments": [
        "9999999999999990",
        "0"
      ],
      "transaction": {
        "from": "0xc77f7fed3b5cc8249adc428c5f44c9063b9734b4",
        "to": "0x3451438d7029162f8920018a49d325ef6367d8ae",
        "gas": "0x5d0d5",
        "value": "0x0",
        "input": "0x0ecbcdab000000000000000000000000000000000000000000000000002386f26fc0fff60000000000000000000000000000000000000000000000000000000000000000",
        "nonce": "0x1883",
        "chainId": "0xaa36a7"
      },
      "additionalContracts": [],
      "isFixedGasLimit": false
    }
  ],
  "receipts": [
    {
      "status": "0x1",
      "cumulativeGasUsed": "0x99db13",
      "logs": [
        {
          "address": "0x3451438d7029162f8920018a49d325ef6367d8ae",
          "topics": [
            "0xddf252ad1be2c89b69c2b068fc378daa952ba7f163c4a11628f55a4df523b3ef",
            "0x000000000000000000000000c77f7fed3b5cc8249adc428c5f44c9063b9734b4",
            "0x0000000000000000000000003451438d7029162f8920018a49d325ef6367d8ae"
          ],
          "data": "0x0000000000000000000000000000000000000000000000008ac7230489e7ffff",
          "blockHash": "0xf6f889c13738ce5de8160f50b069a3fe527f1e24c5d7ece415d01390253fe171",
          "blockNumber": "0x737f10",
          "transactionHash": "0xaf844caf844d7649bbf23ec0d5a5fa933027cf0217bbe2471f0ca6ef38a4e8af",
          "transactionIndex": "0x61",
          "logIndex": "0xbe",
          "removed": false
        },
        {
          "address": "0x3451438d7029162f8920018a49d325ef6367d8ae",
          "topics": [
            "0xddf252ad1be2c89b69c2b068fc378daa952ba7f163c4a11628f55a4df523b3ef",
            "0x0000000000000000000000003451438d7029162f8920018a49d325ef6367d8ae",
            "0x000000000000000000000000c77f7fed3b5cc8249adc428c5f44c9063b9734b4"
          ],
          "data": "0x000000000000000000000000000000000000000000000000000aa87bee537ed6",
          "blockHash": "0xf6f889c13738ce5de8160f50b069a3fe527f1e24c5d7ece415d01390253fe171",
          "blockNumber": "0x737f10",
          "transactionHash": "0xaf844caf844d7649bbf23ec0d5a5fa933027cf0217bbe2471f0ca6ef38a4e8af",
          "transactionIndex": "0x61",
          "logIndex": "0xbf",
          "removed": false
        },
        {
          "address": "0x3451438d7029162f8920018a49d325ef6367d8ae",
          "topics": [
            "0xddf252ad1be2c89b69c2b068fc378daa952ba7f163c4a11628f55a4df523b3ef",
            "0x0000000000000000000000003451438d7029162f8920018a49d325ef6367d8ae",
            "0x0000000000000000000000000000000000000000000000000000000000000000"
          ],
          "data": "0x0000000000000000000000000000000000000000000000000018de76816d7d4b",
          "blockHash": "0xf6f889c13738ce5de8160f50b069a3fe527f1e24c5d7ece415d01390253fe171",
          "blockNumber": "0x737f10",
          "transactionHash": "0xaf844caf844d7649bbf23ec0d5a5fa933027cf0217bbe2471f0ca6ef38a4e8af",
          "transactionIndex": "0x61",
          "logIndex": "0xc0",
          "removed": false
        },
        {
          "address": "0x3451438d7029162f8920018a49d325ef6367d8ae",
          "topics": [
            "0x03bbe564cb1b78e43195eeadbde99e5b89b19345862807fcfb59f884e4165e25"
          ],
          "data": "0x000000000000000000000000c77f7fed3b5cc8249adc428c5f44c9063b9734b4000000000000000000000000000000000000000000000000002386f26fc0fff6",
          "blockHash": "0xf6f889c13738ce5de8160f50b069a3fe527f1e24c5d7ece415d01390253fe171",
          "blockNumber": "0x737f10",
          "transactionHash": "0xaf844caf844d7649bbf23ec0d5a5fa933027cf0217bbe2471f0ca6ef38a4e8af",
          "transactionIndex": "0x61",
          "logIndex": "0xc1",
          "removed": false
        },
        {
          "address": "0x3451438d7029162f8920018a49d325ef6367d8ae",
          "topics": [
            "0xaec00f5213a37254bc68a26b0685d1a5b2bf513e1e587c94c7df7f4a62b56c9c"
          ],
          "data": "0x0000000000000000000000000000000000000000000000008aa39c121a2703de000000000000000000000000000000000000000000000000002322fe594b07f7000000000000000000000000000000000000000000000000002322fe594b07f70000000000000000000000000000000000000000000000008aa39c121a2703de",
          "blockHash": "0xf6f889c13738ce5de8160f50b069a3fe527f1e24c5d7ece415d01390253fe171",
          "blockNumber": "0x737f10",
          "transactionHash": "0xaf844caf844d7649bbf23ec0d5a5fa933027cf0217bbe2471f0ca6ef38a4e8af",
          "transactionIndex": "0x61",
          "logIndex": "0xc2",
          "removed": false
        },
        {
          "address": "0x3451438d7029162f8920018a49d325ef6367d8ae",
          "topics": [
            "0x4afcb4a87cdbd9974efdb92ee48bc8d7cd0ae4bf217004db3d080cbaee652ca7"
          ],
          "data": "0x0000000000000000000000000000000000000000000000000000000067951ad0000000000000000000000000000000000000000000000000000384212358ffbf000000000000000000000000000000000000000000000000000009184e729fff",
          "blockHash": "0xf6f889c13738ce5de8160f50b069a3fe527f1e24c5d7ece415d01390253fe171",
          "blockNumber": "0x737f10",
          "transactionHash": "0xaf844caf844d7649bbf23ec0d5a5fa933027cf0217bbe2471f0ca6ef38a4e8af",
          "transactionIndex": "0x61",
          "logIndex": "0xc3",
          "removed": false
        }
      ],
      "logsBloom": "0x00000000000008000000000000000100400000000000000000000000000000000008000200000000000000000000000000002000000000004000100000000000000000000000000000000008000000000000000000000000000000000000000000000000020000000000000000000800020000000000000000000010000000000000000000000000000000000000000000001000000000000000010000000000000000000000000000000400000000004000000000000000000000001000000000000002000000800000000000000000000000000000080000000000000020000000000000000000020000000002000000000000000000000000000000000000",
      "type": "0x2",
      "transactionHash": "0xaf844caf844d7649bbf23ec0d5a5fa933027cf0217bbe2471f0ca6ef38a4e8af",
      "transactionIndex": "0x61",
      "blockHash": "0xf6f889c13738ce5de8160f50b069a3fe527f1e24c5d7ece415d01390253fe171",
      "blockNumber": "0x737f10",
      "gasUsed": "0x3fa02",
      "effectiveGasPrice": "0x4f1594eeb",
      "from": "0xc77f7fed3b5cc8249adc428c5f44c9063b9734b4",
      "to": "0x3451438d7029162f8920018a49d325ef6367d8ae",
      "contractAddress": null
    }
  ],
  "libraries": [],
  "pending": [],
  "returns": {},
  "timestamp": 1737824976,
  "chain": 11155111,
  "commit": "f5162e9"
}