{
  "transactions": [
    {
      "hash": "0x5ff9ef62b7ebfec17f3225fc0b109a90c29ed33988c7f8c69c7b23a245c5f85c",
      "transactionType": "CALL",
      "contractName": null,
      "contractAddress": "0x8aafd3ede9adb0ff97c7aebce82a919afb1c8764",
      "function": "sell(uint256)",
      "arguments": [
        "22673194610"
      ],
      "transaction": {
        "from": "0xc77f7fed3b5cc8249adc428c5f44c9063b9734b4",
        "to": "0x8aafd3ede9adb0ff97c7aebce82a919afb1c8764",
        "gas": "0x1722a",
        "value": "0x0",
        "input": "0xe4849b3200000000000000000000000000000000000000000000000000000005476d7e72",
        "nonce": "0x1168",
        "chainId": "0xaa36a7"
      },
      "additionalContracts": [],
      "isFixedGasLimit": false
    }
  ],
  "receipts": [
    {
      "status": "0x1",
      "cumulativeGasUsed": "0xfce208",
      "logs": [
        {
          "address": "0x8aafd3ede9adb0ff97c7aebce82a919afb1c8764",
          "topics": [
            "0xddf252ad1be2c89b69c2b068fc378daa952ba7f163c4a11628f55a4df523b3ef",
            "0x000000000000000000000000c77f7fed3b5cc8249adc428c5f44c9063b9734b4",
            "0x0000000000000000000000000000000000000000000000000000000000000000"
          ],
          "data": "0x000000000000000000000000000000000000000000000000000000053c9dc51e",
          "blockHash": "0xa5272a8b42c63005daec9afcbff21fc15a22d24ff6eead51a0bad0356bff5987",
          "blockNumber": "0x731826",
          "transactionHash": "0x5ff9ef62b7ebfec17f3225fc0b109a90c29ed33988c7f8c69c7b23a245c5f85c",
          "transactionIndex": "0x76",
          "logIndex": "0x86f",
          "removed": false
        },
        {
          "address": "0x8aafd3ede9adb0ff97c7aebce82a919afb1c8764",
          "topics": [
            "0xddf252ad1be2c89b69c2b068fc378daa952ba7f163c4a11628f55a4df523b3ef",
            "0x000000000000000000000000c77f7fed3b5cc8249adc428c5f44c9063b9734b4",
            "0x000000000000000000000000c77f7fed3b5cc8249adc428c5f44c9063b9734b4"
          ],
          "data": "0x000000000000000000000000000000000000000000000000000000000acfb954",
          "blockHash": "0xa5272a8b42c63005daec9afcbff21fc15a22d24ff6eead51a0bad0356bff5987",
          "blockNumber": "0x731826",
          "transactionHash": "0x5ff9ef62b7ebfec17f3225fc0b109a90c29ed33988c7f8c69c7b23a245c5f85c",
          "transactionIndex": "0x76",
          "logIndex": "0x870",
          "removed": false
        },
        {
          "address": "0x8aafd3ede9adb0ff97c7aebce82a919afb1c8764",
          "topics": [
            "0x4afcb4a87cdbd9974efdb92ee48bc8d7cd0ae4bf217004db3d080cbaee652ca7"
          ],
          "data": "0x0000000000000000000000000000000000000000000000000000000067901e8c00000000000000000000000000000000000000000000000000051aaf7a7c4f550000000000000000000000000000000000000000000000000000000001f10dda",
          "blockHash": "0xa5272a8b42c63005daec9afcbff21fc15a22d24ff6eead51a0bad0356bff5987",
          "blockNumber": "0x731826",
          "transactionHash": "0x5ff9ef62b7ebfec17f3225fc0b109a90c29ed33988c7f8c69c7b23a245c5f85c",
          "transactionIndex": "0x76",
          "logIndex": "0x871",
          "removed": false
        }
      ],
      "logsBloom": "0x00000000000000000000000000000000000000000600000000000000000000000000000000000000000000000000000000000000000000004000000000000000000000000000004000000008000000000000000000000000000000000000000000000000020000000000000000000800020000000000000000000010000000000000000000000000000000000000000000000000000000000000010000000000000000000000000000000000000000004000000000000000000000000000000000000002000000800000000000000000000000000000080000000000000020000000000000000000000000000000000000000000000000000000000000000000",
      "type": "0x2",
      "transactionHash": "0x5ff9ef62b7ebfec17f3225fc0b109a90c29ed33988c7f8c69c7b23a245c5f85c",
      "transactionIndex": "0x76",
      "blockHash": "0xa5272a8b42c63005daec9afcbff21fc15a22d24ff6eead51a0bad0356bff5987",
      "blockNumber": "0x731826",
      "gasUsed": "0xfd1b",
      "effectiveGasPrice": "0x412ea8de",
      "from": "0xc77f7fed3b5cc8249adc428c5f44c9063b9734b4",
      "to": "0x8aafd3ede9adb0ff97c7aebce82a919afb1c8764",
      "contractAddress": null
    }
  ],
  "libraries": [],
  "pending": [],
  "returns": {},
  "timestamp": 1737498253,
  "chain": 11155111,
  "commit": "1d2fb70"
}