{
  "transactions": [
    {
      "hash": "0xb6d4890957f7c3547208832c8c127be361d2e220dcd22e9bc8634bea2628850f",
      "transactionType": "CALL",
      "contractName": null,
      "contractAddress": "0xbf4a322f1496e5c3d34a9bcdb4c60567b38c7de2",
      "function": "sell(uint256)",
      "arguments": [
        "979100527762584803583"
      ],
      "transaction": {
        "from": "0xc77f7fed3b5cc8249adc428c5f44c9063b9734b4",
        "to": "0xbf4a322f1496e5c3d34a9bcdb4c60567b38c7de2",
        "gas": "0x16fea",
        "value": "0x0",
        "input": "0xe4849b3200000000000000000000000000000000000000000000003513bfd680ce5a98ff",
        "nonce": "0xc5b",
        "chainId": "0xaa36a7"
      },
      "additionalContracts": [],
      "isFixedGasLimit": false
    }
  ],
  "receipts": [
    {
      "status": "0x1",
      "cumulativeGasUsed": "0x99d3e5",
      "logs": [
        {
          "address": "0xbf4a322f1496e5c3d34a9bcdb4c60567b38c7de2",
          "topics": [
            "0xddf252ad1be2c89b69c2b068fc378daa952ba7f163c4a11628f55a4df523b3ef",
            "0x000000000000000000000000c77f7fed3b5cc8249adc428c5f44c9063b9734b4",
            "0x0000000000000000000000000000000000000000000000000000000000000000"
          ],
          "data": "0x00000000000000000000000000000000000000000000003513bfd680ce5a98ff",
          "blockHash": "0xd2e24ddca31e11ab8c6f2d069b8df05cec1dfe9eef123bd7d9da6ee483382a75",
          "blockNumber": "0x725c94",
          "transactionHash": "0xb6d4890957f7c3547208832c8c127be361d2e220dcd22e9bc8634bea2628850f",
          "transactionIndex": "0x51",
          "logIndex": "0x76",
          "removed": false
        },
        {
          "address": "0xbf4a322f1496e5c3d34a9bcdb4c60567b38c7de2",
          "topics": [
            "0x4afcb4a87cdbd9974efdb92ee48bc8d7cd0ae4bf217004db3d080cbaee652ca7"
          ],
          "data": "0x000000000000000000000000000000000000000000000000000000006787496400000000000000000000000000000000000000000000000000039a6f1fd796730000000000000000000000000000000000000000000000000dc7e3dff99aa18e",
          "blockHash": "0xd2e24ddca31e11ab8c6f2d069b8df05cec1dfe9eef123bd7d9da6ee483382a75",
          "blockNumber": "0x725c94",
          "transactionHash": "0xb6d4890957f7c3547208832c8c127be361d2e220dcd22e9bc8634bea2628850f",
          "transactionIndex": "0x51",
          "logIndex": "0x77",
          "removed": false
        }
      ],
      "logsBloom": "0x00000000000000000000000000000000000000000000000000000000000000000000000000000000000000000000000000000000000000004000000000000000000000000000000000000008000000000000001000000000000000000000000000000000020000000000000000000800020000000000000000000010000000000000000000000000000000000000000000000000000008000000010000000000000000000000000000000000000000004000000000000000000000000000000000000002000000800000000000001000000000000000080000000000000020000000000000000000000000000000000000000000000000000000000000000000",
      "type": "0x2",
      "transactionHash": "0xb6d4890957f7c3547208832c8c127be361d2e220dcd22e9bc8634bea2628850f",
      "transactionIndex": "0x51",
      "blockHash": "0xd2e24ddca31e11ab8c6f2d069b8df05cec1dfe9eef123bd7d9da6ee483382a75",
      "blockNumber": "0x725c94",
      "gasUsed": "0xfb91",
      "effectiveGasPrice": "0x25763c38b",
      "from": "0xc77f7fed3b5cc8249adc428c5f44c9063b9734b4",
      "to": "0xbf4a322f1496e5c3d34a9bcdb4c60567b38c7de2",
      "contractAddress": null
    }
  ],
  "libraries": [],
  "pending": [],
  "returns": {},
  "timestamp": 1736919397,
  "chain": 11155111,
  "commit": "51a374b"
}