{
  "transactions": [
    {
      "hash": "0x232da2e7e7a2a1622a29f9b4ea66a358a62398714e6f4ff455e1295c1bcd94cc",
      "transactionType": "CALL",
      "contractName": null,
      "contractAddress": "0x8aafd3ede9adb0ff97c7aebce82a919afb1c8764",
      "function": "sell(uint256)",
      "arguments": [
        "263404239105032181145"
      ],
      "transaction": {
        "from": "0xc77f7fed3b5cc8249adc428c5f44c9063b9734b4",
        "to": "0x8aafd3ede9adb0ff97c7aebce82a919afb1c8764",
        "gas": "0x17270",
        "value": "0x0",
        "input": "0xe4849b3200000000000000000000000000000000000000000000000e4777d7e3fb7fd599",
        "nonce": "0x13c4",
        "chainId": "0xaa36a7"
      },
      "additionalContracts": [],
      "isFixedGasLimit": false
    }
  ],
  "receipts": [
    {
      "status": "0x1",
      "cumulativeGasUsed": "0x8cd9de",
      "logs": [
        {
          "address": "0x8aafd3ede9adb0ff97c7aebce82a919afb1c8764",
          "topics": [
            "0xddf252ad1be2c89b69c2b068fc378daa952ba7f163c4a11628f55a4df523b3ef",
            "0x000000000000000000000000c77f7fed3b5cc8249adc428c5f44c9063b9734b4",
            "0x0000000000000000000000000000000000000000000000000000000000000000"
          ],
          "data": "0x00000000000000000000000000000000000000000000000e2a3971cfb9ffd5f0",
          "blockHash": "0x6aae4cae4af40b75ed110646bff28e433c56130e29085f0c2ba8ca0db20e9f29",
          "blockNumber": "0x731aef",
          "transactionHash": "0x232da2e7e7a2a1622a29f9b4ea66a358a62398714e6f4ff455e1295c1bcd94cc",
          "transactionIndex": "0x71",
          "logIndex": "0xa4",
          "removed": false
        },
        {
          "address": "0x8aafd3ede9adb0ff97c7aebce82a919afb1c8764",
          "topics": [
            "0xddf252ad1be2c89b69c2b068fc378daa952ba7f163c4a11628f55a4df523b3ef",
            "0x000000000000000000000000c77f7fed3b5cc8249adc428c5f44c9063b9734b4",
            "0x000000000000000000000000c77f7fed3b5cc8249adc428c5f44c9063b9734b4"
          ],
          "data": "0x0000000000000000000000000000000000000000000000001d3e6614417fffa9",
          "blockHash": "0x6aae4cae4af40b75ed110646bff28e433c56130e29085f0c2ba8ca0db20e9f29",
          "blockNumber": "0x731aef",
          "transactionHash": "0x232da2e7e7a2a1622a29f9b4ea66a358a62398714e6f4ff455e1295c1bcd94cc",
          "transactionIndex": "0x71",
          "logIndex": "0xa5",
          "removed": false
        },
        {
          "address": "0x8aafd3ede9adb0ff97c7aebce82a919afb1c8764",
          "topics": [
            "0x4afcb4a87cdbd9974efdb92ee48bc8d7cd0ae4bf217004db3d080cbaee652ca7"
          ],
          "data": "0x0000000000000000000000000000000000000000000000000000000067904004000000000000000000000000000000000000000000000000000d7eb76f18cacf0000000000000000000000000000000000000000000000000dce2e8bcffa204f",
          "blockHash": "0x6aae4cae4af40b75ed110646bff28e433c56130e29085f0c2ba8ca0db20e9f29",
          "blockNumber": "0x731aef",
          "transactionHash": "0x232da2e7e7a2a1622a29f9b4ea66a358a62398714e6f4ff455e1295c1bcd94cc",
          "transactionIndex": "0x71",
          "logIndex": "0xa6",
          "removed": false
        }
      ],
      "logsBloom": "0x00000000000000000000000000000000000000000600000000000000000000000000000000000000000000000000000000000000000000004000000000000000000000000000004000000008000000000000000000000000000000000000000000000000020000000000000000000800020000000000000000000010000000000000000000000000000000000000000000000000000000000000010000000000000000000000000000000000000000004000000000000000000000000000000000000002000000800000000000000000000000000000080000000000000020000000000000000000000000000000000000000000000000000000000000000000",
      "type": "0x2",
      "transactionHash": "0x232da2e7e7a2a1622a29f9b4ea66a358a62398714e6f4ff455e1295c1bcd94cc",
      "transactionIndex": "0x71",
      "blockHash": "0x6aae4cae4af40b75ed110646bff28e433c56130e29085f0c2ba8ca0db20e9f29",
      "blockNumber": "0x731aef",
      "gasUsed": "0xfd4b",
      "effectiveGasPrice": "0x89810cd2",
      "from": "0xc77f7fed3b5cc8249adc428c5f44c9063b9734b4",
      "to": "0x8aafd3ede9adb0ff97c7aebce82a919afb1c8764",
      "contractAddress": null
    }
  ],
  "libraries": [],
  "pending": [],
  "returns": {},
  "timestamp": 1737506821,
  "chain": 11155111,
  "commit": "1d2fb70"
}