{
  "transactions": [
    {
      "hash": "0xfe9a81badd4bc70356dfa14a8e8f0ade4cfd834d30f01fa8f508385b5529f256",
      "transactionType": "CALL",
      "contractName": null,
      "contractAddress": "0x5eb9cc76c3506942c1c0ead70e877dd5e4f00cb0",
      "function": "buy(address)",
      "arguments": [
        "0xC77f7fed3b5Cc8249aDc428c5F44C9063B9734b4"
      ],
      "transaction": {
        "from": "0xc77f7fed3b5cc8249adc428c5f44c9063b9734b4",
        "to": "0x5eb9cc76c3506942c1c0ead70e877dd5e4f00cb0",
        "gas": "0x1b30c",
        "value": "0xde0b6b3a7640000",
        "input": "0xf088d547000000000000000000000000c77f7fed3b5cc8249adc428c5f44c9063b9734b4",
        "nonce": "0x404",
        "chainId": "0xaa36a7"
      },
      "additionalContracts": [],
      "isFixedGasLimit": false
    }
  ],
  "receipts": [
    {
      "status": "0x1",
      "cumulativeGasUsed": "0xe483be",
      "logs": [
        {
          "address": "0x5eb9cc76c3506942c1c0ead70e877dd5e4f00cb0",
          "topics": [
            "0xddf252ad1be2c89b69c2b068fc378daa952ba7f163c4a11628f55a4df523b3ef",
            "0x0000000000000000000000000000000000000000000000000000000000000000",
            "0x000000000000000000000000c77f7fed3b5cc8249adc428c5f44c9063b9734b4"
          ],
          "data": "0x00000000000000000000000000000000000000000000003574fff67378c95e50",
          "blockHash": "0xeff627a34e8be92bcf8e573e1bc5478c3c088a7156e524ed467ed90acabf5b44",
          "blockNumber": "0x72500f",
          "transactionHash": "0xfe9a81badd4bc70356dfa14a8e8f0ade4cfd834d30f01fa8f508385b5529f256",
          "transactionIndex": "0x86",
          "logIndex": "0xd9",
          "removed": false
        },
        {
          "address": "0x5eb9cc76c3506942c1c0ead70e877dd5e4f00cb0",
          "topics": [
            "0xddf252ad1be2c89b69c2b068fc378daa952ba7f163c4a11628f55a4df523b3ef",
            "0x0000000000000000000000000000000000000000000000000000000000000000",
            "0x000000000000000000000000c77f7fed3b5cc8249adc428c5f44c9063b9734b4"
          ],
          "data": "0x0000000000000000000000000000000000000000000000002982de829b29235c",
          "blockHash": "0xeff627a34e8be92bcf8e573e1bc5478c3c088a7156e524ed467ed90acabf5b44",
          "blockNumber": "0x72500f",
          "transactionHash": "0xfe9a81badd4bc70356dfa14a8e8f0ade4cfd834d30f01fa8f508385b5529f256",
          "transactionIndex": "0x86",
          "logIndex": "0xda",
          "removed": false
        },
        {
          "address": "0x5eb9cc76c3506942c1c0ead70e877dd5e4f00cb0",
          "topics": [
            "0x4afcb4a87cdbd9974efdb92ee48bc8d7cd0ae4bf217004db3d080cbaee652ca7"
          ],
          "data": "0x000000000000000000000000000000000000000000000000000000006786b280000000000000000000000000000000000000000000000000000391159324284f0000000000000000000000000000000000000000000000000de0b6b3a7640000",
          "blockHash": "0xeff627a34e8be92bcf8e573e1bc5478c3c088a7156e524ed467ed90acabf5b44",
          "blockNumber": "0x72500f",
          "transactionHash": "0xfe9a81badd4bc70356dfa14a8e8f0ade4cfd834d30f01fa8f508385b5529f256",
          "transactionIndex": "0x86",
          "logIndex": "0xdb",
          "removed": false
        }
      ],
      "logsBloom": "0x00000000000000000000000000000000000000000000000000000000000000000000000000000000000000000000000000000000000000004000000000000000000000000000000000000008000000000000000000000000000000000000000000000000020000000000000004000800020000000000000000000010000000000000000000000000000000000000000000000000000000000000010000000000000000000000000000000000000000004000000000000000000000000000020000000002000000800000008000000000000000000000080000000000000020000000000000000000000000000000000000000000000000000000000000000000",
      "type": "0x2",
      "transactionHash": "0xfe9a81badd4bc70356dfa14a8e8f0ade4cfd834d30f01fa8f508385b5529f256",
      "transactionIndex": "0x86",
      "blockHash": "0xeff627a34e8be92bcf8e573e1bc5478c3c088a7156e524ed467ed90acabf5b44",
      "blockNumber": "0x72500f",
      "gasUsed": "0x13af8",
      "effectiveGasPrice": "0x336386f8c",
      "from": "0xc77f7fed3b5cc8249adc428c5f44c9063b9734b4",
      "to": "0x5eb9cc76c3506942c1c0ead70e877dd5e4f00cb0",
      "contractAddress": null
    }
  ],
  "libraries": [],
  "pending": [],
  "returns": {},
  "timestamp": 1736880768,
  "chain": 11155111,
  "commit": "51a374b"
}