{
  "transactions": [
    {
      "hash": "0xa9c01d9976208f94b0ec0f77261707705f0a3fa837e45364690b75a04dbb9aaf",
      "transactionType": "CALL",
      "contractName": null,
      "contractAddress": "0x270e88f8683660553e8ba4eb2ad7c91a1710d769",
      "function": "buy(address)",
      "arguments": [
        "0xC77f7fed3b5Cc8249aDc428c5F44C9063B9734b4"
      ],
      "transaction": {
        "from": "0xc77f7fed3b5cc8249adc428c5f44c9063b9734b4",
        "to": "0x270e88f8683660553e8ba4eb2ad7c91a1710d769",
        "gas": "0x1b30c",
        "value": "0xde0b6b3a7640000",
        "input": "0xf088d547000000000000000000000000c77f7fed3b5cc8249adc428c5f44c9063b9734b4",
        "nonce": "0x580",
        "chainId": "0xaa36a7"
      },
      "additionalContracts": [],
      "isFixedGasLimit": false
    }
  ],
  "receipts": [
    {
      "status": "0x1",
      "cumulativeGasUsed": "0xfcf633",
      "logs": [
        {
          "address": "0x270e88f8683660553e8ba4eb2ad7c91a1710d769",
          "topics": [
            "0xddf252ad1be2c89b69c2b068fc378daa952ba7f163c4a11628f55a4df523b3ef",
            "0x0000000000000000000000000000000000000000000000000000000000000000",
            "0x000000000000000000000000c77f7fed3b5cc8249adc428c5f44c9063b9734b4"
          ],
          "data": "0x000000000000000000000000000000000000000000000034392ca127a4c55bac",
          "blockHash": "0x5c1a779136f0de2954a9ba77ca75d1c3d9fb897903b7c5fe62e5dfbe1c5a1444",
          "blockNumber": "0x72522d",
          "transactionHash": "0xa9c01d9976208f94b0ec0f77261707705f0a3fa837e45364690b75a04dbb9aaf",
          "transactionIndex": "0x56",
          "logIndex": "0x90",
          "removed": false
        },
        {
          "address": "0x270e88f8683660553e8ba4eb2ad7c91a1710d769",
          "topics": [
            "0xddf252ad1be2c89b69c2b068fc378daa952ba7f163c4a11628f55a4df523b3ef",
            "0x0000000000000000000000000000000000000000000000000000000000000000",
            "0x000000000000000000000000c77f7fed3b5cc8249adc428c5f44c9063b9734b4"
          ],
          "data": "0x000000000000000000000000000000000000000000000000288d9eb12f80dfd3",
          "blockHash": "0x5c1a779136f0de2954a9ba77ca75d1c3d9fb897903b7c5fe62e5dfbe1c5a1444",
          "blockNumber": "0x72522d",
          "transactionHash": "0xa9c01d9976208f94b0ec0f77261707705f0a3fa837e45364690b75a04dbb9aaf",
          "transactionIndex": "0x56",
          "logIndex": "0x91",
          "removed": false
        },
        {
          "address": "0x270e88f8683660553e8ba4eb2ad7c91a1710d769",
          "topics": [
            "0x4afcb4a87cdbd9974efdb92ee48bc8d7cd0ae4bf217004db3d080cbaee652ca7"
          ],
          "data": "0x000000000000000000000000000000000000000000000000000000006786cc0c0000000000000000000000000000000000000000000000000003a6c23b2f4ad30000000000000000000000000000000000000000000000000de0b6b3a7640000",
          "blockHash": "0x5c1a779136f0de2954a9ba77ca75d1c3d9fb897903b7c5fe62e5dfbe1c5a1444",
          "blockNumber": "0x72522d",
          "transactionHash": "0xa9c01d9976208f94b0ec0f77261707705f0a3fa837e45364690b75a04dbb9aaf",
          "transactionIndex": "0x56",
          "logIndex": "0x92",
          "removed": false
        }
      ],
      "logsBloom": "0x00000000000000000000000000000000000000000000000000000000000000000000000000000000000000000000000020000000000000004000000000000000000000000000000000000008000000000000000000000000000000000000000000000000020000000000000000000800020000000000000000000010000000000000000000010000000000000000000000000000000000000000010000000000000000000000000000000000000000004000000000000000000000000000000000000002000000800000000000000000000000000000080000008000000020000000000000000000000000000000000000000000000000000000000000000000",
      "type": "0x2",
      "transactionHash": "0xa9c01d9976208f94b0ec0f77261707705f0a3fa837e45364690b75a04dbb9aaf",
      "transactionIndex": "0x56",
      "blockHash": "0x5c1a779136f0de2954a9ba77ca75d1c3d9fb897903b7c5fe62e5dfbe1c5a1444",
      "blockNumber": "0x72522d",
      "gasUsed": "0x13af8",
      "effectiveGasPrice": "0x3e537f685",
      "from": "0xc77f7fed3b5cc8249adc428c5f44c9063b9734b4",
      "to": "0x270e88f8683660553e8ba4eb2ad7c91a1710d769",
      "contractAddress": null
    }
  ],
  "libraries": [],
  "pending": [],
  "returns": {},
  "timestamp": 1736887308,
  "chain": 11155111,
  "commit": "51a374b"
}