{
  "transactions": [
    {
      "hash": "0xc5e1a2c2dcb27da29d66847b50ebe5e4f646dbdfe891e7a089579b4408dc1800",
      "transactionType": "CALL",
      "contractName": null,
      "contractAddress": "0xbf4a322f1496e5c3d34a9bcdb4c60567b38c7de2",
      "function": "sell(uint256)",
      "arguments": [
        "977441504195072909347"
      ],
      "transaction": {
        "from": "0xc77f7fed3b5cc8249adc428c5f44c9063b9734b4",
        "to": "0xbf4a322f1496e5c3d34a9bcdb4c60567b38c7de2",
        "gas": "0x16fea",
        "value": "0x0",
        "input": "0xe4849b32000000000000000000000000000000000000000000000034fcb9cd5bbece6023",
        "nonce": "0xcd7",
        "chainId": "0xaa36a7"
      },
      "additionalContracts": [],
      "isFixedGasLimit": false
    }
  ],
  "receipts": [
    {
      "status": "0x1",
      "cumulativeGasUsed": "0x7f0049",
      "logs": [
        {
          "address": "0xbf4a322f1496e5c3d34a9bcdb4c60567b38c7de2",
          "topics": [
            "0xddf252ad1be2c89b69c2b068fc378daa952ba7f163c4a11628f55a4df523b3ef",
            "0x000000000000000000000000c77f7fed3b5cc8249adc428c5f44c9063b9734b4",
            "0x0000000000000000000000000000000000000000000000000000000000000000"
          ],
          "data": "0x000000000000000000000000000000000000000000000034fcb9cd5bbece6023",
          "blockHash": "0xb1b9c5b9dd882eb70ae60123525ec73d20369b8bac113d1b4b017389c6998484",
          "blockNumber": "0x725d28",
          "transactionHash": "0xc5e1a2c2dcb27da29d66847b50ebe5e4f646dbdfe891e7a089579b4408dc1800",
          "transactionIndex": "0x3e",
          "logIndex": "0x57",
          "removed": false
        },
        {
          "address": "0xbf4a322f1496e5c3d34a9bcdb4c60567b38c7de2",
          "topics": [
            "0x4afcb4a87cdbd9974efdb92ee48bc8d7cd0ae4bf217004db3d080cbaee652ca7"
          ],
          "data": "0x000000000000000000000000000000000000000000000000000000006787505400000000000000000000000000000000000000000000000000039bffec0c7b510000000000000000000000000000000000000000000000000dc7e3dc1e228401",
          "blockHash": "0xb1b9c5b9dd882eb70ae60123525ec73d20369b8bac113d1b4b017389c6998484",
          "blockNumber": "0x725d28",
          "transactionHash": "0xc5e1a2c2dcb27da29d66847b50ebe5e4f646dbdfe891e7a089579b4408dc1800",
          "transactionIndex": "0x3e",
          "logIndex": "0x58",
          "removed": false
        }
      ],
      "logsBloom": "0x00000000000000000000000000000000000000000000000000000000000000000000000000000000000000000000000000000000000000004000000000000000000000000000000000000008000000000000001000000000000000000000000000000000020000000000000000000800020000000000000000000010000000000000000000000000000000000000000000000000000008000000010000000000000000000000000000000000000000004000000000000000000000000000000000000002000000800000000000001000000000000000080000000000000020000000000000000000000000000000000000000000000000000000000000000000",
      "type": "0x2",
      "transactionHash": "0xc5e1a2c2dcb27da29d66847b50ebe5e4f646dbdfe891e7a089579b4408dc1800",
      "transactionIndex": "0x3e",
      "blockHash": "0xb1b9c5b9dd882eb70ae60123525ec73d20369b8bac113d1b4b017389c6998484",
      "blockNumber": "0x725d28",
      "gasUsed": "0xfb91",
      "effectiveGasPrice": "0x6028c12bc",
      "from": "0xc77f7fed3b5cc8249adc428c5f44c9063b9734b4",
      "to": "0xbf4a322f1496e5c3d34a9bcdb4c60567b38c7de2",
      "contractAddress": null
    }
  ],
  "libraries": [],
  "pending": [],
  "returns": {},
  "timestamp": 1736921173,
  "chain": 11155111,
  "commit": "51a374b"
}