{
  "transactions": [
    {
      "hash": "0xf0f0cba4e114a9b764852102db569c01562018211e66e6364f49e22f036ae9e4",
      "transactionType": "CALL",
      "contractName": null,
      "contractAddress": "0x8aafd3ede9adb0ff97c7aebce82a919afb1c8764",
      "function": "sell(uint256)",
      "arguments": [
        "23058109177"
      ],
      "transaction": {
        "from": "0xc77f7fed3b5cc8249adc428c5f44c9063b9734b4",
        "to": "0x8aafd3ede9adb0ff97c7aebce82a919afb1c8764",
        "gas": "0x1722a",
        "value": "0x0",
        "input": "0xe4849b32000000000000000000000000000000000000000000000000000000055e5ed2f9",
        "nonce": "0x10d2",
        "chainId": "0xaa36a7"
      },
      "additionalContracts": [],
      "isFixedGasLimit": false
    }
  ],
  "receipts": [
    {
      "status": "0x1",
      "cumulativeGasUsed": "0x8b8c79",
      "logs": [
        {
          "address": "0x8aafd3ede9adb0ff97c7aebce82a919afb1c8764",
          "topics": [
            "0xddf252ad1be2c89b69c2b068fc378daa952ba7f163c4a11628f55a4df523b3ef",
            "0x000000000000000000000000c77f7fed3b5cc8249adc428c5f44c9063b9734b4",
            "0x0000000000000000000000000000000000000000000000000000000000000000"
          ],
          "data": "0x0000000000000000000000000000000000000000000000000000000553601d10",
          "blockHash": "0xa560925a1bc2796f2f8c4c15b982f166b45e33f11b57c2787fe57528cca3be55",
          "blockNumber": "0x731772",
          "transactionHash": "0xf0f0cba4e114a9b764852102db569c01562018211e66e6364f49e22f036ae9e4",
          "transactionIndex": "0x7e",
          "logIndex": "0x80",
          "removed": false
        },
        {
          "address": "0x8aafd3ede9adb0ff97c7aebce82a919afb1c8764",
          "topics": [
            "0xddf252ad1be2c89b69c2b068fc378daa952ba7f163c4a11628f55a4df523b3ef",
            "0x000000000000000000000000c77f7fed3b5cc8249adc428c5f44c9063b9734b4",
            "0x000000000000000000000000c77f7fed3b5cc8249adc428c5f44c9063b9734b4"
          ],
          "data": "0x000000000000000000000000000000000000000000000000000000000afeb5e9",
          "blockHash": "0xa560925a1bc2796f2f8c4c15b982f166b45e33f11b57c2787fe57528cca3be55",
          "blockNumber": "0x731772",
          "transactionHash": "0xf0f0cba4e114a9b764852102db569c01562018211e66e6364f49e22f036ae9e4",
          "transactionIndex": "0x7e",
          "logIndex": "0x81",
          "removed": false
        },
        {
          "address": "0x8aafd3ede9adb0ff97c7aebce82a919afb1c8764",
          "topics": [
            "0x4afcb4a87cdbd9974efdb92ee48bc8d7cd0ae4bf217004db3d080cbaee652ca7"
          ],
          "data": "0x000000000000000000000000000000000000000000000000000000006790161c000000000000000000000000000000000000000000000000000504e586c6ffdc0000000000000000000000000000000000000000000000000000000001f11039",
          "blockHash": "0xa560925a1bc2796f2f8c4c15b982f166b45e33f11b57c2787fe57528cca3be55",
          "blockNumber": "0x731772",
          "transactionHash": "0xf0f0cba4e114a9b764852102db569c01562018211e66e6364f49e22f036ae9e4",
          "transactionIndex": "0x7e",
          "logIndex": "0x82",
          "removed": false
        }
      ],
      "logsBloom": "0x00000000000000000000000000000000000000000600000000000000000000000000000000000000000000000000000000000000000000004000000000000000000000000000004000000008000000000000000000000000000000000000000000000000020000000000000000000800020000000000000000000010000000000000000000000000000000000000000000000000000000000000010000000000000000000000000000000000000000004000000000000000000000000000000000000002000000800000000000000000000000000000080000000000000020000000000000000000000000000000000000000000000000000000000000000000",
      "type": "0x2",
      "transactionHash": "0xf0f0cba4e114a9b764852102db569c01562018211e66e6364f49e22f036ae9e4",
      "transactionIndex": "0x7e",
      "blockHash": "0xa560925a1bc2796f2f8c4c15b982f166b45e33f11b57c2787fe57528cca3be55",
      "blockNumber": "0x731772",
      "gasUsed": "0xfd1b",
      "effectiveGasPrice": "0x4beb1d7a",
      "from": "0xc77f7fed3b5cc8249adc428c5f44c9063b9734b4",
      "to": "0x8aafd3ede9adb0ff97c7aebce82a919afb1c8764",
      "contractAddress": null
    }
  ],
  "libraries": [],
  "pending": [],
  "returns": {},
  "timestamp": 1737496093,
  "chain": 11155111,
  "commit": "1d2fb70"
}