{
  "transactions": [
    {
      "hash": "0x71466264f95fbb0bd6256eb4bf96142204b5f2643001a3d40ebf131b7c2d47d9",
      "transactionType": "CALL",
      "contractName": null,
      "contractAddress": "0x5eb9cc76c3506942c1c0ead70e877dd5e4f00cb0",
      "function": "buy(address)",
      "arguments": [
        "0xC77f7fed3b5Cc8249aDc428c5F44C9063B9734b4"
      ],
      "transaction": {
        "from": "0xc77f7fed3b5cc8249adc428c5f44c9063b9734b4",
        "to": "0x5eb9cc76c3506942c1c0ead70e877dd5e4f00cb0",
        "gas": "0x156c8",
        "value": "0xde0b6b3a7640000",
        "input": "0xf088d547000000000000000000000000c77f7fed3b5cc8249adc428c5f44c9063b9734b4",
        "nonce": "0x1e0",
        "chainId": "0xaa36a7"
      },
      "additionalContracts": [],
      "isFixedGasLimit": false
    }
  ],
  "receipts": [
    {
      "status": "0x1",
      "cumulativeGasUsed": "0x144c8cc",
      "logs": [
        {
          "address": "0x5eb9cc76c3506942c1c0ead70e877dd5e4f00cb0",
          "topics": [
            "0xddf252ad1be2c89b69c2b068fc378daa952ba7f163c4a11628f55a4df523b3ef",
            "0x0000000000000000000000000000000000000000000000000000000000000000",
            "0x000000000000000000000000c77f7fed3b5cc8249adc428c5f44c9063b9734b4"
          ],
          "data": "0x000000000000000000000000000000000000000000000035a35ef307ab29100d",
          "blockHash": "0x43e19ed214e26790cf3fdcfd11a44da9a3ac239cdedad9ba7a080c07b6ad221b",
          "blockNumber": "0x723cd3",
          "transactionHash": "0x71466264f95fbb0bd6256eb4bf96142204b5f2643001a3d40ebf131b7c2d47d9",
          "transactionIndex": "0x5b",
          "logIndex": "0xa8",
          "removed": false
        },
        {
          "address": "0x5eb9cc76c3506942c1c0ead70e877dd5e4f00cb0",
          "topics": [
            "0xddf252ad1be2c89b69c2b068fc378daa952ba7f163c4a11628f55a4df523b3ef",
            "0x0000000000000000000000000000000000000000000000000000000000000000",
            "0x000000000000000000000000c77f7fed3b5cc8249adc428c5f44c9063b9734b4"
          ],
          "data": "0x00000000000000000000000000000000000000000000000029a6e0bc78f9a3f7",
          "blockHash": "0x43e19ed214e26790cf3fdcfd11a44da9a3ac239cdedad9ba7a080c07b6ad221b",
          "blockNumber": "0x723cd3",
          "transactionHash": "0x71466264f95fbb0bd6256eb4bf96142204b5f2643001a3d40ebf131b7c2d47d9",
          "transactionIndex": "0x5b",
          "logIndex": "0xa9",
          "removed": false
        },
        {
          "address": "0x5eb9cc76c3506942c1c0ead70e877dd5e4f00cb0",
          "topics": [
            "0x4afcb4a87cdbd9974efdb92ee48bc8d7cd0ae4bf217004db3d080cbaee652ca7"
          ],
          "data": "0x000000000000000000000000000000000000000000000000000000006785cb3800000000000000000000000000000000000000000000000000038e0032f6122c0000000000000000000000000000000000000000000000000de0b6b3a7640000",
          "blockHash": "0x43e19ed214e26790cf3fdcfd11a44da9a3ac239cdedad9ba7a080c07b6ad221b",
          "blockNumber": "0x723cd3",
          "transactionHash": "0x71466264f95fbb0bd6256eb4bf96142204b5f2643001a3d40ebf131b7c2d47d9",
          "transactionIndex": "0x5b",
          "logIndex": "0xaa",
          "removed": false
        }
      ],
      "logsBloom": "0x00000000000000000000000000000000000000000000000000000000000000000000000000000000000000000000000000000000000000004000000000000000000000000000000000000008000000000000000000000000000000000000000000000000020000000000000004000800020000000000000000000010000000000000000000000000000000000000000000000000000000000000010000000000000000000000000000000000000000004000000000000000000000000000020000000002000000800000008000000000000000000000080000000000000020000000000000000000000000000000000000000000000000000000000000000000",
      "type": "0x2",
      "transactionHash": "0x71466264f95fbb0bd6256eb4bf96142204b5f2643001a3d40ebf131b7c2d47d9",
      "transactionIndex": "0x5b",
      "blockHash": "0x43e19ed214e26790cf3fdcfd11a44da9a3ac239cdedad9ba7a080c07b6ad221b",
      "blockNumber": "0x723cd3",
      "gasUsed": "0xf82c",
      "effectiveGasPrice": "0x1b900774b",
      "from": "0xc77f7fed3b5cc8249adc428c5f44c9063b9734b4",
      "to": "0x5eb9cc76c3506942c1c0ead70e877dd5e4f00cb0",
      "contractAddress": null
    }
  ],
  "libraries": [],
  "pending": [],
  "returns": {},
  "timestamp": 1736821561,
  "chain": 11155111,
  "commit": "51a374b"
}