{
  "transactions": [
    {
      "hash": "0xb5f454e6d3f71411036495daec8e79677aff81c1b3b674829e84b352af3ea952",
      "transactionType": "CALL",
      "contractName": null,
      "contractAddress": "0xbf4a322f1496e5c3d34a9bcdb4c60567b38c7de2",
      "function": "sell(uint256)",
      "arguments": [
        "977842365216178247240"
      ],
      "transaction": {
        "from": "0xc77f7fed3b5cc8249adc428c5f44c9063b9734b4",
        "to": "0xbf4a322f1496e5c3d34a9bcdb4c60567b38c7de2",
        "gas": "0x16fea",
        "value": "0x0",
        "input": "0xe4849b320000000000000000000000000000000000000000000000350249f2554e171648",
        "nonce": "0xcb9",
        "chainId": "0xaa36a7"
      },
      "additionalContracts": [],
      "isFixedGasLimit": false
    }
  ],
  "receipts": [
    {
      "status": "0x1",
      "cumulativeGasUsed": "0xe6939a",
      "logs": [
        {
          "address": "0xbf4a322f1496e5c3d34a9bcdb4c60567b38c7de2",
          "topics": [
            "0xddf252ad1be2c89b69c2b068fc378daa952ba7f163c4a11628f55a4df523b3ef",
            "0x000000000000000000000000c77f7fed3b5cc8249adc428c5f44c9063b9734b4",
            "0x0000000000000000000000000000000000000000000000000000000000000000"
          ],
          "data": "0x0000000000000000000000000000000000000000000000350249f2554e171648",
          "blockHash": "0xc7dd4939801263405aaabca6ffdf4475aa632965395e5ab54ef979c49c4284a7",
          "blockNumber": "0x725d07",
          "transactionHash": "0xb5f454e6d3f71411036495daec8e79677aff81c1b3b674829e84b352af3ea952",
          "transactionIndex": "0x86",
          "logIndex": "0xb3",
          "removed": false
        },
        {
          "address": "0xbf4a322f1496e5c3d34a9bcdb4c60567b38c7de2",
          "topics": [
            "0x4afcb4a87cdbd9974efdb92ee48bc8d7cd0ae4bf217004db3d080cbaee652ca7"
          ],
          "data": "0x0000000000000000000000000000000000000000000000000000000067874ec800000000000000000000000000000000000000000000000000039b9ef471445f0000000000000000000000000000000000000000000000000dc7e3dd0cbb6fd2",
          "blockHash": "0xc7dd4939801263405aaabca6ffdf4475aa632965395e5ab54ef979c49c4284a7",
          "blockNumber": "0x725d07",
          "transactionHash": "0xb5f454e6d3f71411036495daec8e79677aff81c1b3b674829e84b352af3ea952",
          "transactionIndex": "0x86",
          "logIndex": "0xb4",
          "removed": false
        }
      ],
      "logsBloom": "0x00000000000000000000000000000000000000000000000000000000000000000000000000000000000000000000000000000000000000004000000000000000000000000000000000000008000000000000001000000000000000000000000000000000020000000000000000000800020000000000000000000010000000000000000000000000000000000000000000000000000008000000010000000000000000000000000000000000000000004000000000000000000000000000000000000002000000800000000000001000000000000000080000000000000020000000000000000000000000000000000000000000000000000000000000000000",
      "type": "0x2",
      "transactionHash": "0xb5f454e6d3f71411036495daec8e79677aff81c1b3b674829e84b352af3ea952",
      "transactionIndex": "0x86",
      "blockHash": "0xc7dd4939801263405aaabca6ffdf4475aa632965395e5ab54ef979c49c4284a7",
      "blockNumber": "0x725d07",
      "gasUsed": "0xfb91",
      "effectiveGasPrice": "0x1f7eb4df3",
      "from": "0xc77f7fed3b5cc8249adc428c5f44c9063b9734b4",
      "to": "0xbf4a322f1496e5c3d34a9bcdb4c60567b38c7de2",
      "contractAddress": null
    }
  ],
  "libraries": [],
  "pending": [],
  "returns": {},
  "timestamp": 1736920778,
  "chain": 11155111,
  "commit": "51a374b"
}