{
  "transactions": [
    {
      "hash": "0x63c2f4ffea48e325b58b70993fb174d86d2a53aea6ad92597209f49c7dca523b",
      "transactionType": "CALL",
      "contractName": null,
      "contractAddress": "0xbf4a322f1496e5c3d34a9bcdb4c60567b38c7de2",
      "function": "sell(uint256)",
      "arguments": [
        "988108306275112101360"
      ],
      "transaction": {
        "from": "0xc77f7fed3b5cc8249adc428c5f44c9063b9734b4",
        "to": "0xbf4a322f1496e5c3d34a9bcdb4c60567b38c7de2",
        "gas": "0x16fea",
        "value": "0x0",
        "input": "0xe4849b3200000000000000000000000000000000000000000000003590c1e555c4f0a5f0",
        "nonce": "0x9c1",
        "chainId": "0xaa36a7"
      },
      "additionalContracts": [],
      "isFixedGasLimit": false
    }
  ],
  "receipts": [
    {
      "status": "0x1",
      "cumulativeGasUsed": "0xb3765a",
      "logs": [
        {
          "address": "0xbf4a322f1496e5c3d34a9bcdb4c60567b38c7de2",
          "topics": [
            "0xddf252ad1be2c89b69c2b068fc378daa952ba7f163c4a11628f55a4df523b3ef",
            "0x000000000000000000000000c77f7fed3b5cc8249adc428c5f44c9063b9734b4",
            "0x0000000000000000000000000000000000000000000000000000000000000000"
          ],
          "data": "0x00000000000000000000000000000000000000000000003590c1e555c4f0a5f0",
          "blockHash": "0x9b6374882aa296876cd70d59da14062fb3e21acb8b5c1ab10a73539c2ac0852f",
          "blockNumber": "0x72596d",
          "transactionHash": "0x63c2f4ffea48e325b58b70993fb174d86d2a53aea6ad92597209f49c7dca523b",
          "transactionIndex": "0x57",
          "logIndex": "0x79",
          "removed": false
        },
        {
          "address": "0xbf4a322f1496e5c3d34a9bcdb4c60567b38c7de2",
          "topics": [
            "0x4afcb4a87cdbd9974efdb92ee48bc8d7cd0ae4bf217004db3d080cbaee652ca7"
          ],
          "data": "0x0000000000000000000000000000000000000000000000000000000067872348000000000000000000000000000000000000000000000000000392067572cce50000000000000000000000000000000000000000000000000dc7e3f4eb0d445b",
          "blockHash": "0x9b6374882aa296876cd70d59da14062fb3e21acb8b5c1ab10a73539c2ac0852f",
          "blockNumber": "0x72596d",
          "transactionHash": "0x63c2f4ffea48e325b58b70993fb174d86d2a53aea6ad92597209f49c7dca523b",
          "transactionIndex": "0x57",
          "logIndex": "0x7a",
          "removed": false
        }
      ],
      "logsBloom": "0x00000000000000000000000000000000000000000000000000000000000000000000000000000000000000000000000000000000000000004000000000000000000000000000000000000008000000000000001000000000000000000000000000000000020000000000000000000800020000000000000000000010000000000000000000000000000000000000000000000000000008000000010000000000000000000000000000000000000000004000000000000000000000000000000000000002000000800000000000001000000000000000080000000000000020000000000000000000000000000000000000000000000000000000000000000000",
      "type": "0x2",
      "transactionHash": "0x63c2f4ffea48e325b58b70993fb174d86d2a53aea6ad92597209f49c7dca523b",
      "transactionIndex": "0x57",
      "blockHash": "0x9b6374882aa296876cd70d59da14062fb3e21acb8b5c1ab10a73539c2ac0852f",
      "blockNumber": "0x72596d",
      "gasUsed": "0xfb91",
      "effectiveGasPrice": "0x2c0dfd908",
      "from": "0xc77f7fed3b5cc8249adc428c5f44c9063b9734b4",
      "to": "0xbf4a322f1496e5c3d34a9bcdb4c60567b38c7de2",
      "contractAddress": null
    }
  ],
  "libraries": [],
  "pending": [],
  "returns": {},
  "timestamp": 1736909641,
  "chain": 11155111,
  "commit": "51a374b"
}