{
  "transactions": [
    {
      "hash": "0xf49c160a637d51541187affa15c3f4371ac20990b06a69d7d041925de711c888",
      "transactionType": "CALL",
      "contractName": null,
      "contractAddress": "0x8aafd3ede9adb0ff97c7aebce82a919afb1c8764",
      "function": "sell(uint256)",
      "arguments": [
        "11443"
      ],
      "transaction": {
        "from": "0xc77f7fed3b5cc8249adc428c5f44c9063b9734b4",
        "to": "0x8aafd3ede9adb0ff97c7aebce82a919afb1c8764",
        "gas": "0x14e4c",
        "value": "0x0",
        "input": "0xe4849b320000000000000000000000000000000000000000000000000000000000002cb3",
        "nonce": "0x11ed",
        "chainId": "0xaa36a7"
      },
      "additionalContracts": [],
      "isFixedGasLimit": false
    }
  ],
  "receipts": [
    {
      "status": "0x1",
      "cumulativeGasUsed": "0xb3c8b3",
      "logs": [
        {
          "address": "0x8aafd3ede9adb0ff97c7aebce82a919afb1c8764",
          "topics": [
            "0xddf252ad1be2c89b69c2b068fc378daa952ba7f163c4a11628f55a4df523b3ef",
            "0x000000000000000000000000c77f7fed3b5cc8249adc428c5f44c9063b9734b4",
            "0x0000000000000000000000000000000000000000000000000000000000000000"
          ],
          "data": "0x0000000000000000000000000000000000000000000000000000000000002c58",
          "blockHash": "0xc1b92e74d96c2cd7713e8fd4cf04c5c3b0ee487ceba89162fa2268fa063866d0",
          "blockNumber": "0x7318c5",
          "transactionHash": "0xf49c160a637d51541187affa15c3f4371ac20990b06a69d7d041925de711c888",
          "transactionIndex": "0x82",
          "logIndex": "0x9b",
          "removed": false
        },
        {
          "address": "0x8aafd3ede9adb0ff97c7aebce82a919afb1c8764",
          "topics": [
            "0xddf252ad1be2c89b69c2b068fc378daa952ba7f163c4a11628f55a4df523b3ef",
            "0x000000000000000000000000c77f7fed3b5cc8249adc428c5f44c9063b9734b4",
            "0x000000000000000000000000c77f7fed3b5cc8249adc428c5f44c9063b9734b4"
          ],
          "data": "0x000000000000000000000000000000000000000000000000000000000000005b",
          "blockHash": "0xc1b92e74d96c2cd7713e8fd4cf04c5c3b0ee487ceba89162fa2268fa063866d0",
          "blockNumber": "0x7318c5",
          "transactionHash": "0xf49c160a637d51541187affa15c3f4371ac20990b06a69d7d041925de711c888",
          "transactionIndex": "0x82",
          "logIndex": "0x9c",
          "removed": false
        },
        {
          "address": "0x8aafd3ede9adb0ff97c7aebce82a919afb1c8764",
          "topics": [
            "0x4afcb4a87cdbd9974efdb92ee48bc8d7cd0ae4bf217004db3d080cbaee652ca7"
          ],
          "data": "0x000000000000000000000000000000000000000000000000000000006790260c00000000000000000000000000000000000000000000000000052d92a773181d0000000000000000000000000000000000000000000000000000000000000010",
          "blockHash": "0xc1b92e74d96c2cd7713e8fd4cf04c5c3b0ee487ceba89162fa2268fa063866d0",
          "blockNumber": "0x7318c5",
          "transactionHash": "0xf49c160a637d51541187affa15c3f4371ac20990b06a69d7d041925de711c888",
          "transactionIndex": "0x82",
          "logIndex": "0x9d",
          "removed": false
        }
      ],
      "logsBloom": "0x00000000000000000000000000000000000000000600000000000000000000000000000000000000000000000000000000000000000000004000000000000000000000000000004000000008000000000000000000000000000000000000000000000000020000000000000000000800020000000000000000000010000000000000000000000000000000000000000000000000000000000000010000000000000000000000000000000000000000004000000000000000000000000000000000000002000000800000000000000000000000000000080000000000000020000000000000000000000000000000000000000000000000000000000000000000",
      "type": "0x2",
      "transactionHash": "0xf49c160a637d51541187affa15c3f4371ac20990b06a69d7d041925de711c888",
      "transactionIndex": "0x82",
      "blockHash": "0xc1b92e74d96c2cd7713e8fd4cf04c5c3b0ee487ceba89162fa2268fa063866d0",
      "blockNumber": "0x7318c5",
      "gasUsed": "0xf207",
      "effectiveGasPrice": "0x4822bae5",
      "from": "0xc77f7fed3b5cc8249adc428c5f44c9063b9734b4",
      "to": "0x8aafd3ede9adb0ff97c7aebce82a919afb1c8764",
      "contractAddress": null
    }
  ],
  "libraries": [],
  "pending": [],
  "returns": {},
  "timestamp": 1737500173,
  "chain": 11155111,
  "commit": "1d2fb70"
}