{
  "transactions": [
    {
      "hash": "0x3225f77779f8b6c7b849d9901fc51d082e532fc6cea32b4a8572346169dbb964",
      "transactionType": "CALL",
      "contractName": null,
      "contractAddress": "0xd7bc75898e513accccf720a874d44dab5a4b6223",
      "function": "buy(address)",
      "arguments": [
        "0xC77f7fed3b5Cc8249aDc428c5F44C9063B9734b4"
      ],
      "transaction": {
        "from": "0xc77f7fed3b5cc8249adc428c5f44c9063b9734b4",
        "to": "0xd7bc75898e513accccf720a874d44dab5a4b6223",
        "gas": "0x1b30c",
        "value": "0x2386f26fc10000",
        "input": "0xf088d547000000000000000000000000c77f7fed3b5cc8249adc428c5f44c9063b9734b4",
        "nonce": "0x116",
        "chainId": "0xaa36a7"
      },
      "additionalContracts": [],
      "isFixedGasLimit": false
    }
  ],
  "receipts": [
    {
      "status": "0x1",
      "cumulativeGasUsed": "0x65e14b",
      "logs": [
        {
          "address": "0xd7bc75898e513accccf720a874d44dab5a4b6223",
          "topics": [
            "0xddf252ad1be2c89b69c2b068fc378daa952ba7f163c4a11628f55a4df523b3ef",
            "0x0000000000000000000000000000000000000000000000000000000000000000",
            "0x000000000000000000000000c77f7fed3b5cc8249adc428c5f44c9063b9734b4"
          ],
          "data": "0x0000000000000000000000000000000000000000000000008963ba22d2c6e29f",
          "blockHash": "0xc6df7702751085893bab10545a17a8340dbc4da7a963d2bb9449c8444e742a66",
          "blockNumber": "0x7239ac",
          "transactionHash": "0x3225f77779f8b6c7b849d9901fc51d082e532fc6cea32b4a8572346169dbb964",
          "transactionIndex": "0x3e",
          "logIndex": "0x55",
          "removed": false
        },
        {
          "address": "0xd7bc75898e513accccf720a874d44dab5a4b6223",
          "topics": [
            "0xddf252ad1be2c89b69c2b068fc378daa952ba7f163c4a11628f55a4df523b3ef",
            "0x0000000000000000000000000000000000000000000000000000000000000000",
            "0x000000000000000000000000c77f7fed3b5cc8249adc428c5f44c9063b9734b4"
          ],
          "data": "0x000000000000000000000000000000000000000000000000006ab00bb8fb1506",
          "blockHash": "0xc6df7702751085893bab10545a17a8340dbc4da7a963d2bb9449c8444e742a66",
          "blockNumber": "0x7239ac",
          "transactionHash": "0x3225f77779f8b6c7b849d9901fc51d082e532fc6cea32b4a8572346169dbb964",
          "transactionIndex": "0x3e",
          "logIndex": "0x56",
          "removed": false
        },
        {
          "address": "0xd7bc75898e513accccf720a874d44dab5a4b6223",
          "topics": [
            "0x4afcb4a87cdbd9974efdb92ee48bc8d7cd0ae4bf217004db3d080cbaee652ca7"
          ],
          "data": "0x000000000000000000000000000000000000000000000000000000006785a56400000000000000000000000000000000000000000000000000038d7f8f434f3b000000000000000000000000000000000000000000000000002386f26fc10000",
          "blockHash": "0xc6df7702751085893bab10545a17a8340dbc4da7a963d2bb9449c8444e742a66",
          "blockNumber": "0x7239ac",
          "transactionHash": "0x3225f77779f8b6c7b849d9901fc51d082e532fc6cea32b4a8572346169dbb964",
          "transactionIndex": "0x3e",
          "logIndex": "0x57",
          "removed": false
        }
      ],
      "logsBloom": "0x00000000000000000000000000000000000000000000000000000000000000000000000000000000000000000000000000000000000000004000000000000000000000000000000000000008000000000000000000000000000000000000000000000000020000000000000000000800020000000000000000000010000000000000000000000000000000000000000000000000000000000000010000000000000000000000000000000000000000004000001000000000000000000000000000000002000000800000000000004000000000000000080000000000000020000000000000000000000000000000000000000000080000000000000000000000",
      "type": "0x2",
      "transactionHash": "0x3225f77779f8b6c7b849d9901fc51d082e532fc6cea32b4a8572346169dbb964",
      "transactionIndex": "0x3e",
      "blockHash": "0xc6df7702751085893bab10545a17a8340dbc4da7a963d2bb9449c8444e742a66",
      "blockNumber": "0x7239ac",
      "gasUsed": "0x13af8",
      "effectiveGasPrice": "0x193b2e27c",
      "from": "0xc77f7fed3b5cc8249adc428c5f44c9063b9734b4",
      "to": "0xd7bc75898e513accccf720a874d44dab5a4b6223",
      "contractAddress": null
    }
  ],
  "libraries": [],
  "pending": [],
  "returns": {},
  "timestamp": 1736811877,
  "chain": 11155111,
  "commit": "51a374b"
}