{
  "transactions": [
    {
      "hash": "0x0c1286814642f3ffd538bdbfbf0b12ed33599cef55efdadc46f221645ce7f6bb",
      "transactionType": "CALL",
      "contractName": null,
      "contractAddress": "0xbf4a322f1496e5c3d34a9bcdb4c60567b38c7de2",
      "function": "buy(address)",
      "arguments": [
        "0xC77f7fed3b5Cc8249aDc428c5F44C9063B9734b4"
      ],
      "transaction": {
        "from": "0xc77f7fed3b5cc8249adc428c5f44c9063b9734b4",
        "to": "0xbf4a322f1496e5c3d34a9bcdb4c60567b38c7de2",
        "gas": "0x1b309",
        "value": "0xde0b6b3a7640000",
        "input": "0xf088d547000000000000000000000000c77f7fed3b5cc8249adc428c5f44c9063b9734b4",
        "nonce": "0x91e",
        "chainId": "0xaa36a7"
      },
      "additionalContracts": [],
      "isFixedGasLimit": false
    }
  ],
  "receipts": [
    {
      "status": "0x1",
      "cumulativeGasUsed": "0x156fc1b",
      "logs": [
        {
          "address": "0xbf4a322f1496e5c3d34a9bcdb4c60567b38c7de2",
          "topics": [
            "0xddf252ad1be2c89b69c2b068fc378daa952ba7f163c4a11628f55a4df523b3ef",
            "0x0000000000000000000000000000000000000000000000000000000000000000",
            "0x000000000000000000000000c77f7fed3b5cc8249adc428c5f44c9063b9734b4"
          ],
          "data": "0x00000000000000000000000000000000000000000000003585f35c7879bfd3af",
          "blockHash": "0xdfe638a0c476dd2d1fd53b45b740bdb0749abe1af7adcd37cf147113da02e9ef",
          "blockNumber": "0x7258a1",
          "transactionHash": "0x0c1286814642f3ffd538bdbfbf0b12ed33599cef55efdadc46f221645ce7f6bb",
          "transactionIndex": "0x69",
          "logIndex": "0x84",
          "removed": false
        },
        {
          "address": "0xbf4a322f1496e5c3d34a9bcdb4c60567b38c7de2",
          "topics": [
            "0xddf252ad1be2c89b69c2b068fc378daa952ba7f163c4a11628f55a4df523b3ef",
            "0x0000000000000000000000000000000000000000000000000000000000000000",
            "0x000000000000000000000000c77f7fed3b5cc8249adc428c5f44c9063b9734b4"
          ],
          "data": "0x000000000000000000000000000000000000000000000000299008337e111f3e",
          "blockHash": "0xdfe638a0c476dd2d1fd53b45b740bdb0749abe1af7adcd37cf147113da02e9ef",
          "blockNumber": "0x7258a1",
          "transactionHash": "0x0c1286814642f3ffd538bdbfbf0b12ed33599cef55efdadc46f221645ce7f6bb",
          "transactionIndex": "0x69",
          "logIndex": "0x85",
          "removed": false
        },
        {
          "address": "0xbf4a322f1496e5c3d34a9bcdb4c60567b38c7de2",
          "topics": [
            "0x4afcb4a87cdbd9974efdb92ee48bc8d7cd0ae4bf217004db3d080cbaee652ca7"
          ],
          "data": "0x00000000000000000000000000000000000000000000000000000000678719b800000000000000000000000000000000000000000000000000038ff6b3e693ee0000000000000000000000000000000000000000000000000de0b6b3a7640000",
          "blockHash": "0xdfe638a0c476dd2d1fd53b45b740bdb0749abe1af7adcd37cf147113da02e9ef",
          "blockNumber": "0x7258a1",
          "transactionHash": "0x0c1286814642f3ffd538bdbfbf0b12ed33599cef55efdadc46f221645ce7f6bb",
          "transactionIndex": "0x69",
          "logIndex": "0x86",
          "removed": false
        }
      ],
      "logsBloom": "0x00000000000000000000000000000000000000000000000000000000000000000000000000000000000000000000000000000000000000004000000000000000000000000000000000000008000000000000001000000000000000000000000000000000020000000000000000000800020000000000000000000010000000000000000000000000000000000000000000000000000008000000010000000000000000000000000000000000000000004000000000000000000000000000000000000002000000800000000000001000000000000000080000000000000020000000000000000000000000000000000000000000000000000000000000000000",
      "type": "0x2",
      "transactionHash": "0x0c1286814642f3ffd538bdbfbf0b12ed33599cef55efdadc46f221645ce7f6bb",
      "transactionIndex": "0x69",
      "blockHash": "0xdfe638a0c476dd2d1fd53b45b740bdb0749abe1af7adcd37cf147113da02e9ef",
      "blockNumber": "0x7258a1",
      "gasUsed": "0x13af6",
      "effectiveGasPrice": "0x533c4480",
      "from": "0xc77f7fed3b5cc8249adc428c5f44c9063b9734b4",
      "to": "0xbf4a322f1496e5c3d34a9bcdb4c60567b38c7de2",
      "contractAddress": null
    }
  ],
  "libraries": [],
  "pending": [],
  "returns": {},
  "timestamp": 1736907195,
  "chain": 11155111,
  "commit": "51a374b"
}