{
  "transactions": [
    {
      "hash": "0x7f291f2ab533b77c145edcfdb96b21df625832e36c1c6d3f74fc4ebbda88f76b",
      "transactionType": "CALL",
      "contractName": null,
      "contractAddress": "0xbf4a322f1496e5c3d34a9bcdb4c60567b38c7de2",
      "function": "sell(uint256)",
      "arguments": [
        "990297077782606337491"
      ],
      "transaction": {
        "from": "0xc77f7fed3b5cc8249adc428c5f44c9063b9734b4",
        "to": "0xbf4a322f1496e5c3d34a9bcdb4c60567b38c7de2",
        "gas": "0x16fea",
        "value": "0x0",
        "input": "0xe4849b32000000000000000000000000000000000000000000000035af21f96caba155d3",
        "nonce": "0x921",
        "chainId": "0xaa36a7"
      },
      "additionalContracts": [],
      "isFixedGasLimit": false
    }
  ],
  "receipts": [
    {
      "status": "0x1",
      "cumulativeGasUsed": "0x12f9cc5",
      "logs": [
        {
          "address": "0xbf4a322f1496e5c3d34a9bcdb4c60567b38c7de2",
          "topics": [
            "0xddf252ad1be2c89b69c2b068fc378daa952ba7f163c4a11628f55a4df523b3ef",
            "0x000000000000000000000000c77f7fed3b5cc8249adc428c5f44c9063b9734b4",
            "0x0000000000000000000000000000000000000000000000000000000000000000"
          ],
          "data": "0x000000000000000000000000000000000000000000000035af21f96caba155d3",
          "blockHash": "0x394e1251c0308af42a0bc8621f6f343c3dc85ff93e9359767587dd07536bc278",
          "blockNumber": "0x7258a7",
          "transactionHash": "0x7f291f2ab533b77c145edcfdb96b21df625832e36c1c6d3f74fc4ebbda88f76b",
          "transactionIndex": "0x65",
          "logIndex": "0x96",
          "removed": false
        },
        {
          "address": "0xbf4a322f1496e5c3d34a9bcdb4c60567b38c7de2",
          "topics": [
            "0x4afcb4a87cdbd9974efdb92ee48bc8d7cd0ae4bf217004db3d080cbaee652ca7"
          ],
          "data": "0x0000000000000000000000000000000000000000000000000000000067871a00000000000000000000000000000000000000000000000000000390014da8cd2d0000000000000000000000000000000000000000000000000dc7e3fa01cacaf5",
          "blockHash": "0x394e1251c0308af42a0bc8621f6f343c3dc85ff93e9359767587dd07536bc278",
          "blockNumber": "0x7258a7",
          "transactionHash": "0x7f291f2ab533b77c145edcfdb96b21df625832e36c1c6d3f74fc4ebbda88f76b",
          "transactionIndex": "0x65",
          "logIndex": "0x97",
          "removed": false
        }
      ],
      "logsBloom": "0x00000000000000000000000000000000000000000000000000000000000000000000000000000000000000000000000000000000000000004000000000000000000000000000000000000008000000000000001000000000000000000000000000000000020000000000000000000800020000000000000000000010000000000000000000000000000000000000000000000000000008000000010000000000000000000000000000000000000000004000000000000000000000000000000000000002000000800000000000001000000000000000080000000000000020000000000000000000000000000000000000000000000000000000000000000000",
      "type": "0x2",
      "transactionHash": "0x7f291f2ab533b77c145edcfdb96b21df625832e36c1c6d3f74fc4ebbda88f76b",
      "transactionIndex": "0x65",
      "blockHash": "0x394e1251c0308af42a0bc8621f6f343c3dc85ff93e9359767587dd07536bc278",
      "blockNumber": "0x7258a7",
      "gasUsed": "0xfb91",
      "effectiveGasPrice": "0x5744eed4",
      "from": "0xc77f7fed3b5cc8249adc428c5f44c9063b9734b4",
      "to": "0xbf4a322f1496e5c3d34a9bcdb4c60567b38c7de2",
      "contractAddress": null
    }
  ],
  "libraries": [],
  "pending": [],
  "returns": {},
  "timestamp": 1736907265,
  "chain": 11155111,
  "commit": "51a374b"
}