{
  "transactions": [
    {
      "hash": "0x53de093b6d3b6e7b272b0a32d421a364ac26f2e9536199e11190dc1ee1b5f91e",
      "transactionType": "CALL",
      "contractName": null,
      "contractAddress": "0x8aafd3ede9adb0ff97c7aebce82a919afb1c8764",
      "function": "buy(address)",
      "arguments": [
        "0xC77f7fed3b5Cc8249aDc428c5F44C9063B9734b4"
      ],
      "transaction": {
        "from": "0xc77f7fed3b5cc8249adc428c5f44c9063b9734b4",
        "to": "0x8aafd3ede9adb0ff97c7aebce82a919afb1c8764",
        "gas": "0x156ea",
        "value": "0xde0b6b3a7640000",
        "input": "0xf088d547000000000000000000000000c77f7fed3b5cc8249adc428c5f44c9063b9734b4",
        "nonce": "0x118a",
        "chainId": "0xaa36a7"
      },
      "additionalContracts": [],
      "isFixedGasLimit": false
    }
  ],
  "receipts": [
    {
      "status": "0x1",
      "cumulativeGasUsed": "0x127fda2",
      "logs": [
        {
          "address": "0x8aafd3ede9adb0ff97c7aebce82a919afb1c8764",
          "topics": [
            "0xddf252ad1be2c89b69c2b068fc378daa952ba7f163c4a11628f55a4df523b3ef",
            "0x0000000000000000000000000000000000000000000000000000000000000000",
            "0x000000000000000000000000c77f7fed3b5cc8249adc428c5f44c9063b9734b4"
          ],
          "data": "0x0000000000000000000000000000000000000000000000253affada8fdfbf80a",
          "blockHash": "0x7c94bd627d4e5118a6f5c276081a0868c98ca43bd762ef484f282088213b4491",
          "blockNumber": "0x73184d",
          "transactionHash": "0x53de093b6d3b6e7b272b0a32d421a364ac26f2e9536199e11190dc1ee1b5f91e",
          "transactionIndex": "0xc9",
          "logIndex": "0x134",
          "removed": false
        },
        {
          "address": "0x8aafd3ede9adb0ff97c7aebce82a919afb1c8764",
          "topics": [
            "0xddf252ad1be2c89b69c2b068fc378daa952ba7f163c4a11628f55a4df523b3ef",
            "0x0000000000000000000000000000000000000000000000000000000000000000",
            "0x000000000000000000000000c77f7fed3b5cc8249adc428c5f44c9063b9734b4"
          ],
          "data": "0x0000000000000000000000000000000000000000000000001ce92547b688a46a",
          "blockHash": "0x7c94bd627d4e5118a6f5c276081a0868c98ca43bd762ef484f282088213b4491",
          "blockNumber": "0x73184d",
          "transactionHash": "0x53de093b6d3b6e7b272b0a32d421a364ac26f2e9536199e11190dc1ee1b5f91e",
          "transactionIndex": "0xc9",
          "logIndex": "0x135",
          "removed": false
        },
        {
          "address": "0x8aafd3ede9adb0ff97c7aebce82a919afb1c8764",
          "topics": [
            "0x4afcb4a87cdbd9974efdb92ee48bc8d7cd0ae4bf217004db3d080cbaee652ca7"
          ],
          "data": "0x000000000000000000000000000000000000000000000000000000006790206c00000000000000000000000000000000000000000000000000051f74212c77350000000000000000000000000000000000000000000000000de0b6b3a7640000",
          "blockHash": "0x7c94bd627d4e5118a6f5c276081a0868c98ca43bd762ef484f282088213b4491",
          "blockNumber": "0x73184d",
          "transactionHash": "0x53de093b6d3b6e7b272b0a32d421a364ac26f2e9536199e11190dc1ee1b5f91e",
          "transactionIndex": "0xc9",
          "logIndex": "0x136",
          "removed": false
        }
      ],
      "logsBloom": "0x00000000000000000000000000000000000000000600000000000000000000000000000000000000000000000000000000000000000000004000000000000000000000000000004000000008000000000000000000000000000000000000000000000000020000000000000000000800020000000000000000000010000000000000000000000000000000000000000000000000000000000000010000000000000000000000000000000000000000004000000000000000000000000000000000000002000000800000000000000000000000000000080000000000000020000000000000000000000000000000000000000000000000000000000000000000",
      "type": "0x2",
      "transactionHash": "0x53de093b6d3b6e7b272b0a32d421a364ac26f2e9536199e11190dc1ee1b5f91e",
      "transactionIndex": "0xc9",
      "blockHash": "0x7c94bd627d4e5118a6f5c276081a0868c98ca43bd762ef484f282088213b4491",
      "blockNumber": "0x73184d",
      "gasUsed": "0xf844",
      "effectiveGasPrice": "0x3dd21141",
      "from": "0xc77f7fed3b5cc8249adc428c5f44c9063b9734b4",
      "to": "0x8aafd3ede9adb0ff97c7aebce82a919afb1c8764",
      "contractAddress": null
    }
  ],
  "libraries": [],
  "pending": [],
  "returns": {},
  "timestamp": 1737498735,
  "chain": 11155111,
  "commit": "1d2fb70"
}