{
  "transactions": [
    {
      "hash": "0x89b561932ce80266695c865e7753c531c7d41db00b121b0f38456240479c73c3",
      "transactionType": "CALL",
      "contractName": null,
      "contractAddress": "0x5eb9cc76c3506942c1c0ead70e877dd5e4f00cb0",
      "function": "buy(address)",
      "arguments": [
        "0xC77f7fed3b5Cc8249aDc428c5F44C9063B9734b4"
      ],
      "transaction": {
        "from": "0xc77f7fed3b5cc8249adc428c5f44c9063b9734b4",
        "to": "0x5eb9cc76c3506942c1c0ead70e877dd5e4f00cb0",
        "gas": "0x156c8",
        "value": "0x2386f26fc10000",
        "input": "0xf088d547000000000000000000000000c77f7fed3b5cc8249adc428c5f44c9063b9734b4",
        "nonce": "0x124",
        "chainId": "0xaa36a7"
      },
      "additionalContracts": [],
      "isFixedGasLimit": false
    }
  ],
  "receipts": [
    {
      "status": "0x1",
      "cumulativeGasUsed": "0xc230e2",
      "logs": [
        {
          "address": "0x5eb9cc76c3506942c1c0ead70e877dd5e4f00cb0",
          "topics": [
            "0xddf252ad1be2c89b69c2b068fc378daa952ba7f163c4a11628f55a4df523b3ef",
            "0x0000000000000000000000000000000000000000000000000000000000000000",
            "0x000000000000000000000000c77f7fed3b5cc8249adc428c5f44c9063b9734b4"
          ],
          "data": "0x0000000000000000000000000000000000000000000000008963dd841bf40b2e",
          "blockHash": "0xbcf6e97a385a7ac70ae79c1eee7213da8a07b16371de4c50f98e58da1d581113",
          "blockNumber": "0x723b01",
          "transactionHash": "0x89b561932ce80266695c865e7753c531c7d41db00b121b0f38456240479c73c3",
          "transactionIndex": "0x6c",
          "logIndex": "0xbf",
          "removed": false
        },
        {
          "address": "0x5eb9cc76c3506942c1c0ead70e877dd5e4f00cb0",
          "topics": [
            "0xddf252ad1be2c89b69c2b068fc378daa952ba7f163c4a11628f55a4df523b3ef",
            "0x0000000000000000000000000000000000000000000000000000000000000000",
            "0x000000000000000000000000c77f7fed3b5cc8249adc428c5f44c9063b9734b4"
          ],
          "data": "0x000000000000000000000000000000000000000000000000006ab0273245ae53",
          "blockHash": "0xbcf6e97a385a7ac70ae79c1eee7213da8a07b16371de4c50f98e58da1d581113",
          "blockNumber": "0x723b01",
          "transactionHash": "0x89b561932ce80266695c865e7753c531c7d41db00b121b0f38456240479c73c3",
          "transactionIndex": "0x6c",
          "logIndex": "0xc0",
          "removed": false
        },
        {
          "address": "0x5eb9cc76c3506942c1c0ead70e877dd5e4f00cb0",
          "topics": [
            "0x4afcb4a87cdbd9974efdb92ee48bc8d7cd0ae4bf217004db3d080cbaee652ca7"
          ],
          "data": "0x000000000000000000000000000000000000000000000000000000006785b56000000000000000000000000000000000000000000000000000038d7ea50dad55000000000000000000000000000000000000000000000000002386f26fc10000",
          "blockHash": "0xbcf6e97a385a7ac70ae79c1eee7213da8a07b16371de4c50f98e58da1d581113",
          "blockNumber": "0x723b01",
          "transactionHash": "0x89b561932ce80266695c865e7753c531c7d41db00b121b0f38456240479c73c3",
          "transactionIndex": "0x6c",
          "logIndex": "0xc1",
          "removed": false
        }
      ],
      "logsBloom": "0x00000000000000000000000000000000000000000000000000000000000000000000000000000000000000000000000000000000000000004000000000000000000000000000000000000008000000000000000000000000000000000000000000000000020000000000000004000800020000000000000000000010000000000000000000000000000000000000000000000000000000000000010000000000000000000000000000000000000000004000000000000000000000000000020000000002000000800000008000000000000000000000080000000000000020000000000000000000000000000000000000000000000000000000000000000000",
      "type": "0x2",
      "transactionHash": "0x89b561932ce80266695c865e7753c531c7d41db00b121b0f38456240479c73c3",
      "transactionIndex": "0x6c",
      "blockHash": "0xbcf6e97a385a7ac70ae79c1eee7213da8a07b16371de4c50f98e58da1d581113",
      "blockNumber": "0x723b01",
      "gasUsed": "0xf82c",
      "effectiveGasPrice": "0x25702791c",
      "from": "0xc77f7fed3b5cc8249adc428c5f44c9063b9734b4",
      "to": "0x5eb9cc76c3506942c1c0ead70e877dd5e4f00cb0",
      "contractAddress": null
    }
  ],
  "libraries": [],
  "pending": [],
  "returns": {},
  "timestamp": 1736815969,
  "chain": 11155111,
  "commit": "51a374b"
}