{
  "transactions": [
    {
      "hash": "0x2716b069b22a2b2e7e4310c04700970e6d0b3d05b29be5d0b0dd22ab48401862",
      "transactionType": "CALL",
      "contractName": null,
      "contractAddress": "0x5eb9cc76c3506942c1c0ead70e877dd5e4f00cb0",
      "function": "buy(address)",
      "arguments": [
        "0xC77f7fed3b5Cc8249aDc428c5F44C9063B9734b4"
      ],
      "transaction": {
        "from": "0xc77f7fed3b5cc8249adc428c5f44c9063b9734b4",
        "to": "0x5eb9cc76c3506942c1c0ead70e877dd5e4f00cb0",
        "gas": "0x1b30c",
        "value": "0xde0b6b3a7640000",
        "input": "0xf088d547000000000000000000000000c77f7fed3b5cc8249adc428c5f44c9063b9734b4",
        "nonce": "0x28e",
        "chainId": "0xaa36a7"
      },
      "additionalContracts": [],
      "isFixedGasLimit": false
    }
  ],
  "receipts": [
    {
      "status": "0x1",
      "cumulativeGasUsed": "0xd378e5",
      "logs": [
        {
          "address": "0x5eb9cc76c3506942c1c0ead70e877dd5e4f00cb0",
          "topics": [
            "0xddf252ad1be2c89b69c2b068fc378daa952ba7f163c4a11628f55a4df523b3ef",
            "0x0000000000000000000000000000000000000000000000000000000000000000",
            "0x000000000000000000000000c77f7fed3b5cc8249adc428c5f44c9063b9734b4"
          ],
          "data": "0x00000000000000000000000000000000000000000000003575d311ea77a6a0a0",
          "blockHash": "0xcd760d0a211f8553eac02a53abb0aaac6299c421df18a456c7927733552457db",
          "blockNumber": "0x724e5d",
          "transactionHash": "0x2716b069b22a2b2e7e4310c04700970e6d0b3d05b29be5d0b0dd22ab48401862",
          "transactionIndex": "0x66",
          "logIndex": "0xde",
          "removed": false
        },
        {
          "address": "0x5eb9cc76c3506942c1c0ead70e877dd5e4f00cb0",
          "topics": [
            "0xddf252ad1be2c89b69c2b068fc378daa952ba7f163c4a11628f55a4df523b3ef",
            "0x0000000000000000000000000000000000000000000000000000000000000000",
            "0x000000000000000000000000c77f7fed3b5cc8249adc428c5f44c9063b9734b4"
          ],
          "data": "0x00000000000000000000000000000000000000000000000029838271332fe5b6",
          "blockHash": "0xcd760d0a211f8553eac02a53abb0aaac6299c421df18a456c7927733552457db",
          "blockNumber": "0x724e5d",
          "transactionHash": "0x2716b069b22a2b2e7e4310c04700970e6d0b3d05b29be5d0b0dd22ab48401862",
          "transactionIndex": "0x66",
          "logIndex": "0xdf",
          "removed": false
        },
        {
          "address": "0x5eb9cc76c3506942c1c0ead70e877dd5e4f00cb0",
          "topics": [
            "0x4afcb4a87cdbd9974efdb92ee48bc8d7cd0ae4bf217004db3d080cbaee652ca7"
          ],
          "data": "0x0000000000000000000000000000000000000000000000000000000067869e10000000000000000000000000000000000000000000000000000391077d7ee5380000000000000000000000000000000000000000000000000de0b6b3a7640000",
          "blockHash": "0xcd760d0a211f8553eac02a53abb0aaac6299c421df18a456c7927733552457db",
          "blockNumber": "0x724e5d",
          "transactionHash": "0x2716b069b22a2b2e7e4310c04700970e6d0b3d05b29be5d0b0dd22ab48401862",
          "transactionIndex": "0x66",
          "logIndex": "0xe0",
          "removed": false
        }
      ],
      "logsBloom": "0x00000000000000000000000000000000000000000000000000000000000000000000000000000000000000000000000000000000000000004000000000000000000000000000000000000008000000000000000000000000000000000000000000000000020000000000000004000800020000000000000000000010000000000000000000000000000000000000000000000000000000000000010000000000000000000000000000000000000000004000000000000000000000000000020000000002000000800000008000000000000000000000080000000000000020000000000000000000000000000000000000000000000000000000000000000000",
      "type": "0x2",
      "transactionHash": "0x2716b069b22a2b2e7e4310c04700970e6d0b3d05b29be5d0b0dd22ab48401862",
      "transactionIndex": "0x66",
      "blockHash": "0xcd760d0a211f8553eac02a53abb0aaac6299c421df18a456c7927733552457db",
      "blockNumber": "0x724e5d",
      "gasUsed": "0x13af8",
      "effectiveGasPrice": "0x3e9fa1ff6",
      "from": "0xc77f7fed3b5cc8249adc428c5f44c9063b9734b4",
      "to": "0x5eb9cc76c3506942c1c0ead70e877dd5e4f00cb0",
      "contractAddress": null
    }
  ],
  "libraries": [],
  "pending": [],
  "returns": {},
  "timestamp": 1736875536,
  "chain": 11155111,
  "commit": "51a374b"
}