{
  "transactions": [
    {
      "hash": "0x1c7e86d44db2946f96fc602435f5712da6e8bb68ebbe6ea56e111a7f4956fe4d",
      "transactionType": "CALL",
      "contractName": null,
      "contractAddress": "0xbf4a322f1496e5c3d34a9bcdb4c60567b38c7de2",
      "function": "sell(uint256)",
      "arguments": [
        "974140262603405436330"
      ],
      "transaction": {
        "from": "0xc77f7fed3b5cc8249adc428c5f44c9063b9734b4",
        "to": "0xbf4a322f1496e5c3d34a9bcdb4c60567b38c7de2",
        "gas": "0x16fea",
        "value": "0x0",
        "input": "0xe4849b32000000000000000000000000000000000000000000000034cee96f9f19b8a5aa",
        "nonce": "0xdcf",
        "chainId": "0xaa36a7"
      },
      "additionalContracts": [],
      "isFixedGasLimit": false
    }
  ],
  "receipts": [
    {
      "status": "0x1",
      "cumulativeGasUsed": "0x15717c6",
      "logs": [
        {
          "address": "0xbf4a322f1496e5c3d34a9bcdb4c60567b38c7de2",
          "topics": [
            "0xddf252ad1be2c89b69c2b068fc378daa952ba7f163c4a11628f55a4df523b3ef",
            "0x000000000000000000000000c77f7fed3b5cc8249adc428c5f44c9063b9734b4",
            "0x0000000000000000000000000000000000000000000000000000000000000000"
          ],
          "data": "0x000000000000000000000000000000000000000000000034cee96f9f19b8a5aa",
          "blockHash": "0xa8af7bc20bd06b597595f1788be9e1534987848e485e07c4c8b8ebd6bcbf4365",
          "blockNumber": "0x7266ad",
          "transactionHash": "0x1c7e86d44db2946f96fc602435f5712da6e8bb68ebbe6ea56e111a7f4956fe4d",
          "transactionIndex": "0x56",
          "logIndex": "0x93",
          "removed": false
        },
        {
          "address": "0xbf4a322f1496e5c3d34a9bcdb4c60567b38c7de2",
          "topics": [
            "0x4afcb4a87cdbd9974efdb92ee48bc8d7cd0ae4bf217004db3d080cbaee652ca7"
          ],
          "data": "0x000000000000000000000000000000000000000000000000000000006787c32000000000000000000000000000000000000000000000000000039f2184b888720000000000000000000000000000000000000000000000000dc7e3d4712f727d",
          "blockHash": "0xa8af7bc20bd06b597595f1788be9e1534987848e485e07c4c8b8ebd6bcbf4365",
          "blockNumber": "0x7266ad",
          "transactionHash": "0x1c7e86d44db2946f96fc602435f5712da6e8bb68ebbe6ea56e111a7f4956fe4d",
          "transactionIndex": "0x56",
          "logIndex": "0x94",
          "removed": false
        }
      ],
      "logsBloom": "0x00000000000000000000000000000000000000000000000000000000000000000000000000000000000000000000000000000000000000004000000000000000000000000000000000000008000000000000001000000000000000000000000000000000020000000000000000000800020000000000000000000010000000000000000000000000000000000000000000000000000008000000010000000000000000000000000000000000000000004000000000000000000000000000000000000002000000800000000000001000000000000000080000000000000020000000000000000000000000000000000000000000000000000000000000000000",
      "type": "0x2",
      "transactionHash": "0x1c7e86d44db2946f96fc602435f5712da6e8bb68ebbe6ea56e111a7f4956fe4d",
      "transactionIndex": "0x56",
      "blockHash": "0xa8af7bc20bd06b597595f1788be9e1534987848e485e07c4c8b8ebd6bcbf4365",
      "blockNumber": "0x7266ad",
      "gasUsed": "0xfb91",
      "effectiveGasPrice": "0x1582df13e",
      "from": "0xc77f7fed3b5cc8249adc428c5f44c9063b9734b4",
      "to": "0xbf4a322f1496e5c3d34a9bcdb4c60567b38c7de2",
      "contractAddress": null
    }
  ],
  "libraries": [],
  "pending": [],
  "returns": {},
  "timestamp": 1736950562,
  "chain": 11155111,
  "commit": "51a374b"
}