{
  "transactions": [
    {
      "hash": "0xe57d6191b58135e2a47c7240579b04deaab44b60bfc2fa16210992b1947a3d20",
      "transactionType": "CALL",
      "contractName": null,
      "contractAddress": "0xbf4a322f1496e5c3d34a9bcdb4c60567b38c7de2",
      "function": "sell(uint256)",
      "arguments": [
        "977548368336050037861"
      ],
      "transaction": {
        "from": "0xc77f7fed3b5cc8249adc428c5f44c9063b9734b4",
        "to": "0xbf4a322f1496e5c3d34a9bcdb4c60567b38c7de2",
        "gas": "0x16fea",
        "value": "0x0",
        "input": "0xe4849b32000000000000000000000000000000000000000000000034fe3575ba78f9a465",
        "nonce": "0xccf",
        "chainId": "0xaa36a7"
      },
      "additionalContracts": [],
      "isFixedGasLimit": false
    }
  ],
  "receipts": [
    {
      "status": "0x1",
      "cumulativeGasUsed": "0x1207849",
      "logs": [
        {
          "address": "0xbf4a322f1496e5c3d34a9bcdb4c60567b38c7de2",
          "topics": [
            "0xddf252ad1be2c89b69c2b068fc378daa952ba7f163c4a11628f55a4df523b3ef",
            "0x000000000000000000000000c77f7fed3b5cc8249adc428c5f44c9063b9734b4",
            "0x0000000000000000000000000000000000000000000000000000000000000000"
          ],
          "data": "0x000000000000000000000000000000000000000000000034fe3575ba78f9a465",
          "blockHash": "0x8312baeac3071524de5d2440797ff0528db0cd59fb5d5f57231e83ef35975425",
          "blockNumber": "0x725d1f",
          "transactionHash": "0xe57d6191b58135e2a47c7240579b04deaab44b60bfc2fa16210992b1947a3d20",
          "transactionIndex": "0x84",
          "logIndex": "0xb9",
          "removed": false
        },
        {
          "address": "0xbf4a322f1496e5c3d34a9bcdb4c60567b38c7de2",
          "topics": [
            "0x4afcb4a87cdbd9974efdb92ee48bc8d7cd0ae4bf217004db3d080cbaee652ca7"
          ],
          "data": "0x0000000000000000000000000000000000000000000000000000000067874fe800000000000000000000000000000000000000000000000000039be6106b7f750000000000000000000000000000000000000000000000000dc7e3dc5dbddf44",
          "blockHash": "0x8312baeac3071524de5d2440797ff0528db0cd59fb5d5f57231e83ef35975425",
          "blockNumber": "0x725d1f",
          "transactionHash": "0xe57d6191b58135e2a47c7240579b04deaab44b60bfc2fa16210992b1947a3d20",
          "transactionIndex": "0x84",
          "logIndex": "0xba",
          "removed": false
        }
      ],
      "logsBloom": "0x00000000000000000000000000000000000000000000000000000000000000000000000000000000000000000000000000000000000000004000000000000000000000000000000000000008000000000000001000000000000000000000000000000000020000000000000000000800020000000000000000000010000000000000000000000000000000000000000000000000000008000000010000000000000000000000000000000000000000004000000000000000000000000000000000000002000000800000000000001000000000000000080000000000000020000000000000000000000000000000000000000000000000000000000000000000",
      "type": "0x2",
      "transactionHash": "0xe57d6191b58135e2a47c7240579b04deaab44b60bfc2fa16210992b1947a3d20",
      "transactionIndex": "0x84",
      "blockHash": "0x8312baeac3071524de5d2440797ff0528db0cd59fb5d5f57231e83ef35975425",
      "blockNumber": "0x725d1f",
      "gasUsed": "0xfb91",
      "effectiveGasPrice": "0x481586284",
      "from": "0xc77f7fed3b5cc8249adc428c5f44c9063b9734b4",
      "to": "0xbf4a322f1496e5c3d34a9bcdb4c60567b38c7de2",
      "contractAddress": null
    }
  ],
  "libraries": [],
  "pending": [],
  "returns": {},
  "timestamp": 1736921065,
  "chain": 11155111,
  "commit": "51a374b"
}