{
  "transactions": [
    {
      "hash": "0xafb9ef623799a27a0646e936803c2a495955ab477a64934ca98eb40f700cadf2",
      "transactionType": "CALL",
      "contractName": null,
      "contractAddress": "0x8aafd3ede9adb0ff97c7aebce82a919afb1c8764",
      "function": "sell(uint256)",
      "arguments": [
        "719137976991170348664"
      ],
      "transaction": {
        "from": "0xc77f7fed3b5cc8249adc428c5f44c9063b9734b4",
        "to": "0x8aafd3ede9adb0ff97c7aebce82a919afb1c8764",
        "gas": "0x17270",
        "value": "0x0",
        "input": "0xe4849b32000000000000000000000000000000000000000000000026fc0b53eacbbec678",
        "nonce": "0x100f",
        "chainId": "0xaa36a7"
      },
      "additionalContracts": [],
      "isFixedGasLimit": false
    }
  ],
  "receipts": [
    {
      "status": "0x1",
      "cumulativeGasUsed": "0xb8305c",
      "logs": [
        {
          "address": "0x8aafd3ede9adb0ff97c7aebce82a919afb1c8764",
          "topics": [
            "0xddf252ad1be2c89b69c2b068fc378daa952ba7f163c4a11628f55a4df523b3ef",
            "0x000000000000000000000000c77f7fed3b5cc8249adc428c5f44c9063b9734b4",
            "0x0000000000000000000000000000000000000000000000000000000000000000"
          ],
          "data": "0x000000000000000000000000000000000000000000000026ac34327a5354cd13",
          "blockHash": "0x61e27107f22e1078d059da828d05fe2d7ef52c177232ae4b3431bb27f3ead2f5",
          "blockNumber": "0x731686",
          "transactionHash": "0xafb9ef623799a27a0646e936803c2a495955ab477a64934ca98eb40f700cadf2",
          "transactionIndex": "0x75",
          "logIndex": "0x90",
          "removed": false
        },
        {
          "address": "0x8aafd3ede9adb0ff97c7aebce82a919afb1c8764",
          "topics": [
            "0xddf252ad1be2c89b69c2b068fc378daa952ba7f163c4a11628f55a4df523b3ef",
            "0x000000000000000000000000c77f7fed3b5cc8249adc428c5f44c9063b9734b4",
            "0x000000000000000000000000c77f7fed3b5cc8249adc428c5f44c9063b9734b4"
          ],
          "data": "0x0000000000000000000000000000000000000000000000004fd721707869f965",
          "blockHash": "0x61e27107f22e1078d059da828d05fe2d7ef52c177232ae4b3431bb27f3ead2f5",
          "blockNumber": "0x731686",
          "transactionHash": "0xafb9ef623799a27a0646e936803c2a495955ab477a64934ca98eb40f700cadf2",
          "transactionIndex": "0x75",
          "logIndex": "0x91",
          "removed": false
        },
        {
          "address": "0x8aafd3ede9adb0ff97c7aebce82a919afb1c8764",
          "topics": [
            "0x4afcb4a87cdbd9974efdb92ee48bc8d7cd0ae4bf217004db3d080cbaee652ca7"
          ],
          "data": "0x0000000000000000000000000000000000000000000000000000000067900af40000000000000000000000000000000000000000000000000004e94bb9fc00e80000000000000000000000000000000000000000000000000dc901208d1e7943",
          "blockHash": "0x61e27107f22e1078d059da828d05fe2d7ef52c177232ae4b3431bb27f3ead2f5",
          "blockNumber": "0x731686",
          "transactionHash": "0xafb9ef623799a27a0646e936803c2a495955ab477a64934ca98eb40f700cadf2",
          "transactionIndex": "0x75",
          "logIndex": "0x92",
          "removed": false
        }
      ],
      "logsBloom": "0x00000000000000000000000000000000000000000600000000000000000000000000000000000000000000000000000000000000000000004000000000000000000000000000004000000008000000000000000000000000000000000000000000000000020000000000000000000800020000000000000000000010000000000000000000000000000000000000000000000000000000000000010000000000000000000000000000000000000000004000000000000000000000000000000000000002000000800000000000000000000000000000080000000000000020000000000000000000000000000000000000000000000000000000000000000000",
      "type": "0x2",
      "transactionHash": "0xafb9ef623799a27a0646e936803c2a495955ab477a64934ca98eb40f700cadf2",
      "transactionIndex": "0x75",
      "blockHash": "0x61e27107f22e1078d059da828d05fe2d7ef52c177232ae4b3431bb27f3ead2f5",
      "blockNumber": "0x731686",
      "gasUsed": "0xfd4b",
      "effectiveGasPrice": "0x415501cf",
      "from": "0xc77f7fed3b5cc8249adc428c5f44c9063b9734b4",
      "to": "0x8aafd3ede9adb0ff97c7aebce82a919afb1c8764",
      "contractAddress": null
    }
  ],
  "libraries": [],
  "pending": [],
  "returns": {},
  "timestamp": 1737493238,
  "chain": 11155111,
  "commit": "1d2fb70"
}