{
  "transactions": [
    {
      "hash": "0x984f20a1f0f799b832c767d9760264690027c3a65b2ed67cdd9d50961fa0ea91",
      "transactionType": "CALL",
      "contractName": null,
      "contractAddress": "0x5eb9cc76c3506942c1c0ead70e877dd5e4f00cb0",
      "function": "buy(address)",
      "arguments": [
        "0xC77f7fed3b5Cc8249aDc428c5F44C9063B9734b4"
      ],
      "transaction": {
        "from": "0xc77f7fed3b5cc8249adc428c5f44c9063b9734b4",
        "to": "0x5eb9cc76c3506942c1c0ead70e877dd5e4f00cb0",
        "gas": "0x156c8",
        "value": "0xde0b6b3a7640000",
        "input": "0xf088d547000000000000000000000000c77f7fed3b5cc8249adc428c5f44c9063b9734b4",
        "nonce": "0x220",
        "chainId": "0xaa36a7"
      },
      "additionalContracts": [],
      "isFixedGasLimit": false
    }
  ],
  "receipts": [
    {
      "status": "0x1",
      "cumulativeGasUsed": "0xb64cfc",
      "logs": [
        {
          "address": "0x5eb9cc76c3506942c1c0ead70e877dd5e4f00cb0",
          "topics": [
            "0xddf252ad1be2c89b69c2b068fc378daa952ba7f163c4a11628f55a4df523b3ef",
            "0x0000000000000000000000000000000000000000000000000000000000000000",
            "0x000000000000000000000000c77f7fed3b5cc8249adc428c5f44c9063b9734b4"
          ],
          "data": "0x0000000000000000000000000000000000000000000000357c40e28736b1a9ac",
          "blockHash": "0x1c8b553c8b80c5336496a24a3f5346994c334f005db627d648eac33f102e0b38",
          "blockNumber": "0x724db3",
          "transactionHash": "0x984f20a1f0f799b832c767d9760264690027c3a65b2ed67cdd9d50961fa0ea91",
          "transactionIndex": "0x68",
          "logIndex": "0x93",
          "removed": false
        },
        {
          "address": "0x5eb9cc76c3506942c1c0ead70e877dd5e4f00cb0",
          "topics": [
            "0xddf252ad1be2c89b69c2b068fc378daa952ba7f163c4a11628f55a4df523b3ef",
            "0x0000000000000000000000000000000000000000000000000000000000000000",
            "0x000000000000000000000000c77f7fed3b5cc8249adc428c5f44c9063b9734b4"
          ],
          "data": "0x000000000000000000000000000000000000000000000000298880793d25aa3d",
          "blockHash": "0x1c8b553c8b80c5336496a24a3f5346994c334f005db627d648eac33f102e0b38",
          "blockNumber": "0x724db3",
          "transactionHash": "0x984f20a1f0f799b832c767d9760264690027c3a65b2ed67cdd9d50961fa0ea91",
          "transactionIndex": "0x68",
          "logIndex": "0x94",
          "removed": false
        },
        {
          "address": "0x5eb9cc76c3506942c1c0ead70e877dd5e4f00cb0",
          "topics": [
            "0x4afcb4a87cdbd9974efdb92ee48bc8d7cd0ae4bf217004db3d080cbaee652ca7"
          ],
          "data": "0x000000000000000000000000000000000000000000000000000000006786961800000000000000000000000000000000000000000000000000039099bdf366e30000000000000000000000000000000000000000000000000de0b6b3a7640000",
          "blockHash": "0x1c8b553c8b80c5336496a24a3f5346994c334f005db627d648eac33f102e0b38",
          "blockNumber": "0x724db3",
          "transactionHash": "0x984f20a1f0f799b832c767d9760264690027c3a65b2ed67cdd9d50961fa0ea91",
          "transactionIndex": "0x68",
          "logIndex": "0x95",
          "removed": false
        }
      ],
      "logsBloom": "0x00000000000000000000000000000000000000000000000000000000000000000000000000000000000000000000000000000000000000004000000000000000000000000000000000000008000000000000000000000000000000000000000000000000020000000000000004000800020000000000000000000010000000000000000000000000000000000000000000000000000000000000010000000000000000000000000000000000000000004000000000000000000000000000020000000002000000800000008000000000000000000000080000000000000020000000000000000000000000000000000000000000000000000000000000000000",
      "type": "0x2",
      "transactionHash": "0x984f20a1f0f799b832c767d9760264690027c3a65b2ed67cdd9d50961fa0ea91",
      "transactionIndex": "0x68",
      "blockHash": "0x1c8b553c8b80c5336496a24a3f5346994c334f005db627d648eac33f102e0b38",
      "blockNumber": "0x724db3",
      "gasUsed": "0xf82c",
      "effectiveGasPrice": "0x3e54b19c7",
      "from": "0xc77f7fed3b5cc8249adc428c5f44c9063b9734b4",
      "to": "0x5eb9cc76c3506942c1c0ead70e877dd5e4f00cb0",
      "contractAddress": null
    }
  ],
  "libraries": [],
  "pending": [],
  "returns": {},
  "timestamp": 1736873496,
  "chain": 11155111,
  "commit": "51a374b"
}