{
  "transactions": [
    {
      "hash": "0x4b4c7856d44110c1ba719f360abb48ef79312de0f3d8d730c09c1d4a501e1a11",
      "transactionType": "CALL",
      "contractName": null,
      "contractAddress": "0x270e88f8683660553e8ba4eb2ad7c91a1710d769",
      "function": "sell(uint256)",
      "arguments": [
        "979144384784800399881"
      ],
      "transaction": {
        "from": "0xc77f7fed3b5cc8249adc428c5f44c9063b9734b4",
        "to": "0x270e88f8683660553e8ba4eb2ad7c91a1710d769",
        "gas": "0x16fec",
        "value": "0x0",
        "input": "0xe4849b32000000000000000000000000000000000000000000000035145ba63b846bc209",
        "nonce": "0x52d",
        "chainId": "0xaa36a7"
      },
      "additionalContracts": [],
      "isFixedGasLimit": false
    }
  ],
  "receipts": [
    {
      "status": "0x1",
      "cumulativeGasUsed": "0x86accd",
      "logs": [
        {
          "address": "0x270e88f8683660553e8ba4eb2ad7c91a1710d769",
          "topics": [
            "0xddf252ad1be2c89b69c2b068fc378daa952ba7f163c4a11628f55a4df523b3ef",
            "0x000000000000000000000000c77f7fed3b5cc8249adc428c5f44c9063b9734b4",
            "0x0000000000000000000000000000000000000000000000000000000000000000"
          ],
          "data": "0x000000000000000000000000000000000000000000000035145ba63b846bc209",
          "blockHash": "0xc2dcb61ffd7523bf24cf3f2e2511d09dd4098c3d79629ecbf13d3b676c550961",
          "blockNumber": "0x7251c7",
          "transactionHash": "0x4b4c7856d44110c1ba719f360abb48ef79312de0f3d8d730c09c1d4a501e1a11",
          "transactionIndex": "0x4b",
          "logIndex": "0x83",
          "removed": false
        },
        {
          "address": "0x270e88f8683660553e8ba4eb2ad7c91a1710d769",
          "topics": [
            "0x4afcb4a87cdbd9974efdb92ee48bc8d7cd0ae4bf217004db3d080cbaee652ca7"
          ],
          "data": "0x000000000000000000000000000000000000000000000000000000006786c73800000000000000000000000000000000000000000000000000039aa8f8b0c8930000000000000000000000000000000000000000000000000dc841271abfb3d8",
          "blockHash": "0xc2dcb61ffd7523bf24cf3f2e2511d09dd4098c3d79629ecbf13d3b676c550961",
          "blockNumber": "0x7251c7",
          "transactionHash": "0x4b4c7856d44110c1ba719f360abb48ef79312de0f3d8d730c09c1d4a501e1a11",
          "transactionIndex": "0x4b",
          "logIndex": "0x84",
          "removed": false
        }
      ],
      "logsBloom": "0x00000000000000000000000000000000000000000000000000000000000000000000000000000000000000000000000020000000000000004000000000000000000000000000000000000008000000000000000000000000000000000000000000000000020000000000000000000800020000000000000000000010000000000000000000010000000000000000000000000000000000000000010000000000000000000000000000000000000000004000000000000000000000000000000000000002000000800000000000000000000000000000080000008000000020000000000000000000000000000000000000000000000000000000000000000000",
      "type": "0x2",
      "transactionHash": "0x4b4c7856d44110c1ba719f360abb48ef79312de0f3d8d730c09c1d4a501e1a11",
      "transactionIndex": "0x4b",
      "blockHash": "0xc2dcb61ffd7523bf24cf3f2e2511d09dd4098c3d79629ecbf13d3b676c550961",
      "blockNumber": "0x7251c7",
      "gasUsed": "0xfb93",
      "effectiveGasPrice": "0x4776b8ada",
      "from": "0xc77f7fed3b5cc8249adc428c5f44c9063b9734b4",
      "to": "0x270e88f8683660553e8ba4eb2ad7c91a1710d769",
      "contractAddress": null
    }
  ],
  "libraries": [],
  "pending": [],
  "returns": {},
  "timestamp": 1736886075,
  "chain": 11155111,
  "commit": "51a374b"
}