{
  "transactions": [
    {
      "hash": "0x65b3e56913666431ecbe85da5060ffe4e253e5ac28c5962ba9ae7d483c4eacab",
      "transactionType": "CALL",
      "contractName": null,
      "contractAddress": "0x5eb9cc76c3506942c1c0ead70e877dd5e4f00cb0",
      "function": "sell(uint256)",
      "arguments": [
        "989138245357994546929"
      ],
      "transaction": {
        "from": "0xc77f7fed3b5cc8249adc428c5f44c9063b9734b4",
        "to": "0x5eb9cc76c3506942c1c0ead70e877dd5e4f00cb0",
        "gas": "0x16fec",
        "value": "0x0",
        "input": "0xe4849b320000000000000000000000000000000000000000000000359f0cf9795c7096f1",
        "nonce": "0x311",
        "chainId": "0xaa36a7"
      },
      "additionalContracts": [],
      "isFixedGasLimit": false
    }
  ],
  "receipts": [
    {
      "status": "0x1",
      "cumulativeGasUsed": "0xd10444",
      "logs": [
        {
          "address": "0x5eb9cc76c3506942c1c0ead70e877dd5e4f00cb0",
          "topics": [
            "0xddf252ad1be2c89b69c2b068fc378daa952ba7f163c4a11628f55a4df523b3ef",
            "0x000000000000000000000000c77f7fed3b5cc8249adc428c5f44c9063b9734b4",
            "0x0000000000000000000000000000000000000000000000000000000000000000"
          ],
          "data": "0x0000000000000000000000000000000000000000000000359f0cf9795c7096f1",
          "blockHash": "0x6bdef00f3f16765d98d38d10e81538fb329c16087c7adc426c91dd44b811760c",
          "blockNumber": "0x724ef6",
          "transactionHash": "0x65b3e56913666431ecbe85da5060ffe4e253e5ac28c5962ba9ae7d483c4eacab",
          "transactionIndex": "0x5f",
          "logIndex": "0x71",
          "removed": false
        },
        {
          "address": "0x5eb9cc76c3506942c1c0ead70e877dd5e4f00cb0",
          "topics": [
            "0x4afcb4a87cdbd9974efdb92ee48bc8d7cd0ae4bf217004db3d080cbaee652ca7"
          ],
          "data": "0x000000000000000000000000000000000000000000000000000000006786a53c0000000000000000000000000000000000000000000000000003910c6f202d540000000000000000000000000000000000000000000000000dc7db13322b803c",
          "blockHash": "0x6bdef00f3f16765d98d38d10e81538fb329c16087c7adc426c91dd44b811760c",
          "blockNumber": "0x724ef6",
          "transactionHash": "0x65b3e56913666431ecbe85da5060ffe4e253e5ac28c5962ba9ae7d483c4eacab",
          "transactionIndex": "0x5f",
          "logIndex": "0x72",
          "removed": false
        }
      ],
      "logsBloom": "0x00000000000000000000000000000000000000000000000000000000000000000000000000000000000000000000000000000000000000004000000000000000000000000000000000000008000000000000000000000000000000000000000000000000020000000000000004000800020000000000000000000010000000000000000000000000000000000000000000000000000000000000010000000000000000000000000000000000000000004000000000000000000000000000020000000002000000800000008000000000000000000000080000000000000020000000000000000000000000000000000000000000000000000000000000000000",
      "type": "0x2",
      "transactionHash": "0x65b3e56913666431ecbe85da5060ffe4e253e5ac28c5962ba9ae7d483c4eacab",
      "transactionIndex": "0x5f",
      "blockHash": "0x6bdef00f3f16765d98d38d10e81538fb329c16087c7adc426c91dd44b811760c",
      "blockNumber": "0x724ef6",
      "gasUsed": "0xfb93",
      "effectiveGasPrice": "0x692f097e1",
      "from": "0xc77f7fed3b5cc8249adc428c5f44c9063b9734b4",
      "to": "0x5eb9cc76c3506942c1c0ead70e877dd5e4f00cb0",
      "contractAddress": null
    }
  ],
  "libraries": [],
  "pending": [],
  "returns": {},
  "timestamp": 1736877373,
  "chain": 11155111,
  "commit": "51a374b"
}