{
  "transactions": [
    {
      "hash": "0xe6737ec9c89503620e06ae6a9d37ea5792aeeba7c1021236fdcd0eda415724e1",
      "transactionType": "CALL",
      "contractName": null,
      "contractAddress": "0x8aafd3ede9adb0ff97c7aebce82a919afb1c8764",
      "function": "sell(uint256)",
      "arguments": [
        "1197400284193"
      ],
      "transaction": {
        "from": "0xc77f7fed3b5cc8249adc428c5f44c9063b9734b4",
        "to": "0x8aafd3ede9adb0ff97c7aebce82a919afb1c8764",
        "gas": "0x15daa",
        "value": "0x0",
        "input": "0xe4849b3200000000000000000000000000000000000000000000000000000116ca9e5c21",
        "nonce": "0x1353",
        "chainId": "0xaa36a7"
      },
      "additionalContracts": [],
      "isFixedGasLimit": false
    }
  ],
  "receipts": [
    {
      "status": "0x1",
      "cumulativeGasUsed": "0xbfa6ce",
      "logs": [
        {
          "address": "0x8aafd3ede9adb0ff97c7aebce82a919afb1c8764",
          "topics": [
            "0xddf252ad1be2c89b69c2b068fc378daa952ba7f163c4a11628f55a4df523b3ef",
            "0x000000000000000000000000c77f7fed3b5cc8249adc428c5f44c9063b9734b4",
            "0x0000000000000000000000000000000000000000000000000000000000000000"
          ],
          "data": "0x000000000000000000000000000000000000000000000000000001148fa75540",
          "blockHash": "0x9754a299d76c7a6735e60047fd915483c1f79bf90862adbf102d6f71e62141bc",
          "blockNumber": "0x731a6e",
          "transactionHash": "0xe6737ec9c89503620e06ae6a9d37ea5792aeeba7c1021236fdcd0eda415724e1",
          "transactionIndex": "0x7e",
          "logIndex": "0x9a",
          "removed": false
        },
        {
          "address": "0x8aafd3ede9adb0ff97c7aebce82a919afb1c8764",
          "topics": [
            "0xddf252ad1be2c89b69c2b068fc378daa952ba7f163c4a11628f55a4df523b3ef",
            "0x000000000000000000000000c77f7fed3b5cc8249adc428c5f44c9063b9734b4",
            "0x000000000000000000000000c77f7fed3b5cc8249adc428c5f44c9063b9734b4"
          ],
          "data": "0x000000000000000000000000000000000000000000000000000000023af706e1",
          "blockHash": "0x9754a299d76c7a6735e60047fd915483c1f79bf90862adbf102d6f71e62141bc",
          "blockNumber": "0x731a6e",
          "transactionHash": "0xe6737ec9c89503620e06ae6a9d37ea5792aeeba7c1021236fdcd0eda415724e1",
          "transactionIndex": "0x7e",
          "logIndex": "0x9b",
          "removed": false
        },
        {
          "address": "0x8aafd3ede9adb0ff97c7aebce82a919afb1c8764",
          "topics": [
            "0x4afcb4a87cdbd9974efdb92ee48bc8d7cd0ae4bf217004db3d080cbaee652ca7"
          ],
          "data": "0x00000000000000000000000000000000000000000000000000000000679039f8000000000000000000000000000000000000000000000000000c2b66634fdbdd00000000000000000000000000000000000000000000000000000000f479677d",
          "blockHash": "0x9754a299d76c7a6735e60047fd915483c1f79bf90862adbf102d6f71e62141bc",
          "blockNumber": "0x731a6e",
          "transactionHash": "0xe6737ec9c89503620e06ae6a9d37ea5792aeeba7c1021236fdcd0eda415724e1",
          "transactionIndex": "0x7e",
          "logIndex": "0x9c",
          "removed": false
        }
      ],
      "logsBloom": "0x00000000000000000000000000000000000000000600000000000000000000000000000000000000000000000000000000000000000000004000000000000000000000000000004000000008000000000000000000000000000000000000000000000000020000000000000000000800020000000000000000000010000000000000000000000000000000000000000000000000000000000000010000000000000000000000000000000000000000004000000000000000000000000000000000000002000000800000000000000000000000000000080000000000000020000000000000000000000000000000000000000000000000000000000000000000",
      "type": "0x2",
      "transactionHash": "0xe6737ec9c89503620e06ae6a9d37ea5792aeeba7c1021236fdcd0eda415724e1",
      "transactionIndex": "0x7e",
      "blockHash": "0x9754a299d76c7a6735e60047fd915483c1f79bf90862adbf102d6f71e62141bc",
      "blockNumber": "0x731a6e",
      "gasUsed": "0xfd27",
      "effectiveGasPrice": "0x3d08ba4a",
      "from": "0xc77f7fed3b5cc8249adc428c5f44c9063b9734b4",
      "to": "0x8aafd3ede9adb0ff97c7aebce82a919afb1c8764",
      "contractAddress": null
    }
  ],
  "libraries": [],
  "pending": [],
  "returns": {},
  "timestamp": 1737505274,
  "chain": 11155111,
  "commit": "1d2fb70"
}