{
  "transactions": [
    {
      "hash": "0x5b300248b15107f14c865e85e0e4cc50f9224b6e535a36680caa893e93b4d6a0",
      "transactionType": "CALL",
      "contractName": null,
      "contractAddress": "0xbf4a322f1496e5c3d34a9bcdb4c60567b38c7de2",
      "function": "sell(uint256)",
      "arguments": [
        "980335059150856569546"
      ],
      "transaction": {
        "from": "0xc77f7fed3b5cc8249adc428c5f44c9063b9734b4",
        "to": "0xbf4a322f1496e5c3d34a9bcdb4c60567b38c7de2",
        "gas": "0x16fea",
        "value": "0x0",
        "input": "0xe4849b3200000000000000000000000000000000000000000000003524e1c6428c5cc2ca",
        "nonce": "0xbff",
        "chainId": "0xaa36a7"
      },
      "additionalContracts": [],
      "isFixedGasLimit": false
    }
  ],
  "receipts": [
    {
      "status": "0x1",
      "cumulativeGasUsed": "0x14c2763",
      "logs": [
        {
          "address": "0xbf4a322f1496e5c3d34a9bcdb4c60567b38c7de2",
          "topics": [
            "0xddf252ad1be2c89b69c2b068fc378daa952ba7f163c4a11628f55a4df523b3ef",
            "0x000000000000000000000000c77f7fed3b5cc8249adc428c5f44c9063b9734b4",
            "0x0000000000000000000000000000000000000000000000000000000000000000"
          ],
          "data": "0x00000000000000000000000000000000000000000000003524e1c6428c5cc2ca",
          "blockHash": "0x66c41a4e90641462723577fca5ec8a9745c675058cf60a1ef00fa6e1f325f5f5",
          "blockNumber": "0x725c27",
          "transactionHash": "0x5b300248b15107f14c865e85e0e4cc50f9224b6e535a36680caa893e93b4d6a0",
          "transactionIndex": "0x8d",
          "logIndex": "0x104",
          "removed": false
        },
        {
          "address": "0xbf4a322f1496e5c3d34a9bcdb4c60567b38c7de2",
          "topics": [
            "0x4afcb4a87cdbd9974efdb92ee48bc8d7cd0ae4bf217004db3d080cbaee652ca7"
          ],
          "data": "0x000000000000000000000000000000000000000000000000000000006787443000000000000000000000000000000000000000000000000000039945c2324a470000000000000000000000000000000000000000000000000dc7e3e2d86861e1",
          "blockHash": "0x66c41a4e90641462723577fca5ec8a9745c675058cf60a1ef00fa6e1f325f5f5",
          "blockNumber": "0x725c27",
          "transactionHash": "0x5b300248b15107f14c865e85e0e4cc50f9224b6e535a36680caa893e93b4d6a0",
          "transactionIndex": "0x8d",
          "logIndex": "0x105",
          "removed": false
        }
      ],
      "logsBloom": "0x00000000000000000000000000000000000000000000000000000000000000000000000000000000000000000000000000000000000000004000000000000000000000000000000000000008000000000000001000000000000000000000000000000000020000000000000000000800020000000000000000000010000000000000000000000000000000000000000000000000000008000000010000000000000000000000000000000000000000004000000000000000000000000000000000000002000000800000000000001000000000000000080000000000000020000000000000000000000000000000000000000000000000000000000000000000",
      "type": "0x2",
      "transactionHash": "0x5b300248b15107f14c865e85e0e4cc50f9224b6e535a36680caa893e93b4d6a0",
      "transactionIndex": "0x8d",
      "blockHash": "0x66c41a4e90641462723577fca5ec8a9745c675058cf60a1ef00fa6e1f325f5f5",
      "blockNumber": "0x725c27",
      "gasUsed": "0xfb91",
      "effectiveGasPrice": "0xe279b2cb",
      "from": "0xc77f7fed3b5cc8249adc428c5f44c9063b9734b4",
      "to": "0xbf4a322f1496e5c3d34a9bcdb4c60567b38c7de2",
      "contractAddress": null
    }
  ],
  "libraries": [],
  "pending": [],
  "returns": {},
  "timestamp": 1736918066,
  "chain": 11155111,
  "commit": "51a374b"
}