{
  "transactions": [
    {
      "hash": "0x579803281999c0cf1dd5bbbb1332edecd0ccec4de7de541cf81f13dcc5aeab7c",
      "transactionType": "CALL",
      "contractName": null,
      "contractAddress": "0xd7bc75898e513accccf720a874d44dab5a4b6223",
      "function": "buy(address)",
      "arguments": [
        "0xC77f7fed3b5Cc8249aDc428c5F44C9063B9734b4"
      ],
      "transaction": {
        "from": "0xc77f7fed3b5cc8249adc428c5f44c9063b9734b4",
        "to": "0xd7bc75898e513accccf720a874d44dab5a4b6223",
        "gas": "0x1b30c",
        "value": "0x2386f26fc10000",
        "input": "0xf088d547000000000000000000000000c77f7fed3b5cc8249adc428c5f44c9063b9734b4",
        "nonce": "0xb6",
        "chainId": "0xaa36a7"
      },
      "additionalContracts": [],
      "isFixedGasLimit": false
    }
  ],
  "receipts": [
    {
      "status": "0x1",
      "cumulativeGasUsed": "0x20275ca",
      "logs": [
        {
          "address": "0xd7bc75898e513accccf720a874d44dab5a4b6223",
          "topics": [
            "0xddf252ad1be2c89b69c2b068fc378daa952ba7f163c4a11628f55a4df523b3ef",
            "0x0000000000000000000000000000000000000000000000000000000000000000",
            "0x000000000000000000000000c77f7fed3b5cc8249adc428c5f44c9063b9734b4"
          ],
          "data": "0x0000000000000000000000000000000000000000000000008963bb889cb3c04d",
          "blockHash": "0x2acf63cb5ea57fd28a7271700511c0790c3c2951164b31b790d555c1a4fde8b1",
          "blockNumber": "0x72392d",
          "transactionHash": "0x579803281999c0cf1dd5bbbb1332edecd0ccec4de7de541cf81f13dcc5aeab7c",
          "transactionIndex": "0x38",
          "logIndex": "0x2ed",
          "removed": false
        },
        {
          "address": "0xd7bc75898e513accccf720a874d44dab5a4b6223",
          "topics": [
            "0xddf252ad1be2c89b69c2b068fc378daa952ba7f163c4a11628f55a4df523b3ef",
            "0x0000000000000000000000000000000000000000000000000000000000000000",
            "0x000000000000000000000000c77f7fed3b5cc8249adc428c5f44c9063b9734b4"
          ],
          "data": "0x000000000000000000000000000000000000000000000000006ab00cced0e3ac",
          "blockHash": "0x2acf63cb5ea57fd28a7271700511c0790c3c2951164b31b790d555c1a4fde8b1",
          "blockNumber": "0x72392d",
          "transactionHash": "0x579803281999c0cf1dd5bbbb1332edecd0ccec4de7de541cf81f13dcc5aeab7c",
          "transactionIndex": "0x38",
          "logIndex": "0x2ee",
          "removed": false
        },
        {
          "address": "0xd7bc75898e513accccf720a874d44dab5a4b6223",
          "topics": [
            "0x4afcb4a87cdbd9974efdb92ee48bc8d7cd0ae4bf217004db3d080cbaee652ca7"
          ],
          "data": "0x0000000000000000000000000000000000000000000000000000000067859f6400000000000000000000000000000000000000000000000000038d7f8602cd46000000000000000000000000000000000000000000000000002386f26fc10000",
          "blockHash": "0x2acf63cb5ea57fd28a7271700511c0790c3c2951164b31b790d555c1a4fde8b1",
          "blockNumber": "0x72392d",
          "transactionHash": "0x579803281999c0cf1dd5bbbb1332edecd0ccec4de7de541cf81f13dcc5aeab7c",
          "transactionIndex": "0x38",
          "logIndex": "0x2ef",
          "removed": false
        }
      ],
      "logsBloom": "0x00000000000000000000000000000000000000000000000000000000000000000000000000000000000000000000000000000000000000004000000000000000000000000000000000000008000000000000000000000000000000000000000000000000020000000000000000000800020000000000000000000010000000000000000000000000000000000000000000000000000000000000010000000000000000000000000000000000000000004000001000000000000000000000000000000002000000800000000000004000000000000000080000000000000020000000000000000000000000000000000000000000080000000000000000000000",
      "type": "0x2",
      "transactionHash": "0x579803281999c0cf1dd5bbbb1332edecd0ccec4de7de541cf81f13dcc5aeab7c",
      "transactionIndex": "0x38",
      "blockHash": "0x2acf63cb5ea57fd28a7271700511c0790c3c2951164b31b790d555c1a4fde8b1",
      "blockNumber": "0x72392d",
      "gasUsed": "0x13af8",
      "effectiveGasPrice": "0x63607f4",
      "from": "0xc77f7fed3b5cc8249adc428c5f44c9063b9734b4",
      "to": "0xd7bc75898e513accccf720a874d44dab5a4b6223",
      "contractAddress": null
    }
  ],
  "libraries": [],
  "pending": [],
  "returns": {},
  "timestamp": 1736810341,
  "chain": 11155111,
  "commit": "51a374b"
}