{
  "transactions": [
    {
      "hash": "0xc500a10e5e3d52101bd33d28277d13304ddd47437428a47aa63c0685d8c2815f",
      "transactionType": "CALL",
      "contractName": null,
      "contractAddress": "0xfed6459acca8450360f0618ae4ea8c2da07cfdba",
      "function": "borrow(uint256,uint256)",
      "arguments": [
        "9999999999999990",
        "0"
      ],
      "transaction": {
        "from": "0xc77f7fed3b5cc8249adc428c5f44c9063b9734b4",
        "to": "0xfed6459acca8450360f0618ae4ea8c2da07cfdba",
        "gas": "0x5dbfc",
        "value": "0x0",
        "input": "0x0ecbcdab000000000000000000000000000000000000000000000000002386f26fc0fff60000000000000000000000000000000000000000000000000000000000000000",
        "nonce": "0x1943",
        "chainId": "0xaa36a7"
      },
      "additionalContracts": [],
      "isFixedGasLimit": false
    }
  ],
  "receipts": [
    {
      "status": "0x1",
      "cumulativeGasUsed": "0x682769",
      "logs": [
        {
          "address": "0xfed6459acca8450360f0618ae4ea8c2da07cfdba",
          "topics": [
            "0xddf252ad1be2c89b69c2b068fc378daa952ba7f163c4a11628f55a4df523b3ef",
            "0x000000000000000000000000c77f7fed3b5cc8249adc428c5f44c9063b9734b4",
            "0x000000000000000000000000fed6459acca8450360f0618ae4ea8c2da07cfdba"
          ],
          "data": "0x0000000000000000000000000000000000000000000000008ac7230489e7ffff",
          "blockHash": "0x507eba608d7abf477218c8c2b33ed69872edd156ae6b50a99a1ace24592764b4",
          "blockNumber": "0x73bab8",
          "transactionHash": "0xc500a10e5e3d52101bd33d28277d13304ddd47437428a47aa63c0685d8c2815f",
          "transactionIndex": "0x3d",
          "logIndex": "0x6a",
          "removed": false
        },
        {
          "address": "0xfed6459acca8450360f0618ae4ea8c2da07cfdba",
          "topics": [
            "0x03bbe564cb1b78e43195eeadbde99e5b89b19345862807fcfb59f884e4165e25"
          ],
          "data": "0x00000000000000000000000038818e389773445cd73adbaa37b8b169f458c6e1000000000000000000000000000000000000000000000000000002ba7def2fff",
          "blockHash": "0x507eba608d7abf477218c8c2b33ed69872edd156ae6b50a99a1ace24592764b4",
          "blockNumber": "0x73bab8",
          "transactionHash": "0xc500a10e5e3d52101bd33d28277d13304ddd47437428a47aa63c0685d8c2815f",
          "transactionIndex": "0x3d",
          "logIndex": "0x6b",
          "removed": false
        },
        {
          "address": "0xfed6459acca8450360f0618ae4ea8c2da07cfdba",
          "topics": [
            "0x03bbe564cb1b78e43195eeadbde99e5b89b19345862807fcfb59f884e4165e25"
          ],
          "data": "0x000000000000000000000000c77f7fed3b5cc8249adc428c5f44c9063b9734b4000000000000000000000000000000000000000000000000002322e710d41ff7",
          "blockHash": "0x507eba608d7abf477218c8c2b33ed69872edd156ae6b50a99a1ace24592764b4",
          "blockNumber": "0x73bab8",
          "transactionHash": "0xc500a10e5e3d52101bd33d28277d13304ddd47437428a47aa63c0685d8c2815f",
          "transactionIndex": "0x3d",
          "logIndex": "0x6c",
          "removed": false
        },
        {
          "address": "0xfed6459acca8450360f0618ae4ea8c2da07cfdba",
          "topics": [
            "0xaec00f5213a37254bc68a26b0685d1a5b2bf513e1e587c94c7df7f4a62b56c9c"
          ],
          "data": "0x0000000000000000000000000000000000000000000000008ac7230489e7ffff00000000000000000000000000000000000000000000000000232bff5f46bff600000000000000000000000000000000000000000000000000232bff5f46bff60000000000000000000000000000000000000000000000008ac7230489e7ffff",
          "blockHash": "0x507eba608d7abf477218c8c2b33ed69872edd156ae6b50a99a1ace24592764b4",
          "blockNumber": "0x73bab8",
          "transactionHash": "0xc500a10e5e3d52101bd33d28277d13304ddd47437428a47aa63c0685d8c2815f",
          "transactionIndex": "0x3d",
          "logIndex": "0x6d",
          "removed": false
        },
        {
          "address": "0xfed6459acca8450360f0618ae4ea8c2da07cfdba",
          "topics": [
            "0x4afcb4a87cdbd9974efdb92ee48bc8d7cd0ae4bf217004db3d080cbaee652ca7"
          ],
          "data": "0x00000000000000000000000000000000000000000000000000000000679803a800000000000000000000000000000000000000000000000000038e21a006d7fe000000000000000000000000000000000000000000000000000009184e729fff",
          "blockHash": "0x507eba608d7abf477218c8c2b33ed69872edd156ae6b50a99a1ace24592764b4",
          "blockNumber": "0x73bab8",
          "transactionHash": "0xc500a10e5e3d52101bd33d28277d13304ddd47437428a47aa63c0685d8c2815f",
          "transactionIndex": "0x3d",
          "logIndex": "0x6e",
          "removed": false
        }
      ],
      "logsBloom": "0x00000000000000000000000000000100400000000000000000000000000000000008080000000000000000000000000000002000000000004000000000000000000000000000000000000008000010000000000000000000000000000000000000000000000000000000000000000000020000000200001040000010000000000000000000000000000000000000000000000000000000000000010000000000000000000000000000000400000000004000000000000000000000001100000000000002000000800000000000000000000000000000080000000000000000000000000000000000000000000000000000000000000000000000000000000000",
      "type": "0x2",
      "transactionHash": "0xc500a10e5e3d52101bd33d28277d13304ddd47437428a47aa63c0685d8c2815f",
      "transactionIndex": "0x3d",
      "blockHash": "0x507eba608d7abf477218c8c2b33ed69872edd156ae6b50a99a1ace24592764b4",
      "blockNumber": "0x73bab8",
      "gasUsed": "0x401a2",
      "effectiveGasPrice": "0x54b0d548",
      "from": "0xc77f7fed3b5cc8249adc428c5f44c9063b9734b4",
      "to": "0xfed6459acca8450360f0618ae4ea8c2da07cfdba",
      "contractAddress": null
    }
  ],
  "libraries": [],
  "pending": [],
  "returns": {},
  "timestamp": 1738015657,
  "chain": 11155111,
  "commit": "f5162e9"
}