{
  "transactions": [
    {
      "hash": "0x7244cb5e1ec928457c026ca20be903e827f5dc9e07d58091ea66a8b216d92dc3",
      "transactionType": "CALL",
      "contractName": null,
      "contractAddress": "0xbf4a322f1496e5c3d34a9bcdb4c60567b38c7de2",
      "function": "sell(uint256)",
      "arguments": [
        "973609891025907082197"
      ],
      "transaction": {
        "from": "0xc77f7fed3b5cc8249adc428c5f44c9063b9734b4",
        "to": "0xbf4a322f1496e5c3d34a9bcdb4c60567b38c7de2",
        "gas": "0x16fea",
        "value": "0x0",
        "input": "0xe4849b32000000000000000000000000000000000000000000000034c78d2d7b55f7e3d5",
        "nonce": "0xdf7",
        "chainId": "0xaa36a7"
      },
      "additionalContracts": [],
      "isFixedGasLimit": false
    }
  ],
  "receipts": [
    {
      "status": "0x1",
      "cumulativeGasUsed": "0xd19b41",
      "logs": [
        {
          "address": "0xbf4a322f1496e5c3d34a9bcdb4c60567b38c7de2",
          "topics": [
            "0xddf252ad1be2c89b69c2b068fc378daa952ba7f163c4a11628f55a4df523b3ef",
            "0x000000000000000000000000c77f7fed3b5cc8249adc428c5f44c9063b9734b4",
            "0x0000000000000000000000000000000000000000000000000000000000000000"
          ],
          "data": "0x000000000000000000000000000000000000000000000034c78d2d7b55f7e3d5",
          "blockHash": "0x747a37a7b8d8d5db8b112d3e8127787d2c369cd30e9b9a6c6312b79fe9132a3c",
          "blockNumber": "0x7266db",
          "transactionHash": "0x7244cb5e1ec928457c026ca20be903e827f5dc9e07d58091ea66a8b216d92dc3",
          "transactionIndex": "0x60",
          "logIndex": "0x9d",
          "removed": false
        },
        {
          "address": "0xbf4a322f1496e5c3d34a9bcdb4c60567b38c7de2",
          "topics": [
            "0x4afcb4a87cdbd9974efdb92ee48bc8d7cd0ae4bf217004db3d080cbaee652ca7"
          ],
          "data": "0x000000000000000000000000000000000000000000000000000000006787c57800000000000000000000000000000000000000000000000000039fa2ceed0aef0000000000000000000000000000000000000000000000000dc7e3d3357f9309",
          "blockHash": "0x747a37a7b8d8d5db8b112d3e8127787d2c369cd30e9b9a6c6312b79fe9132a3c",
          "blockNumber": "0x7266db",
          "transactionHash": "0x7244cb5e1ec928457c026ca20be903e827f5dc9e07d58091ea66a8b216d92dc3",
          "transactionIndex": "0x60",
          "logIndex": "0x9e",
          "removed": false
        }
      ],
      "logsBloom": "0x00000000000000000000000000000000000000000000000000000000000000000000000000000000000000000000000000000000000000004000000000000000000000000000000000000008000000000000001000000000000000000000000000000000020000000000000000000800020000000000000000000010000000000000000000000000000000000000000000000000000008000000010000000000000000000000000000000000000000004000000000000000000000000000000000000002000000800000000000001000000000000000080000000000000020000000000000000000000000000000000000000000000000000000000000000000",
      "type": "0x2",
      "transactionHash": "0x7244cb5e1ec928457c026ca20be903e827f5dc9e07d58091ea66a8b216d92dc3",
      "transactionIndex": "0x60",
      "blockHash": "0x747a37a7b8d8d5db8b112d3e8127787d2c369cd30e9b9a6c6312b79fe9132a3c",
      "blockNumber": "0x7266db",
      "gasUsed": "0xfb91",
      "effectiveGasPrice": "0x2ea2bcb08",
      "from": "0xc77f7fed3b5cc8249adc428c5f44c9063b9734b4",
      "to": "0xbf4a322f1496e5c3d34a9bcdb4c60567b38c7de2",
      "contractAddress": null
    }
  ],
  "libraries": [],
  "pending": [],
  "returns": {},
  "timestamp": 1736951162,
  "chain": 11155111,
  "commit": "51a374b"
}