{
  "transactions": [
    {
      "hash": "0x79a7eb4479f8bf05ff0a7f9592bde3400e3ecaaee60bbad9117a2d85e44f71f5",
      "transactionType": "CALL",
      "contractName": null,
      "contractAddress": "0x270e88f8683660553e8ba4eb2ad7c91a1710d769",
      "function": "sell(uint256)",
      "arguments": [
        "743499646814542215106"
      ],
      "transaction": {
        "from": "0xc77f7fed3b5cc8249adc428c5f44c9063b9734b4",
        "to": "0x270e88f8683660553e8ba4eb2ad7c91a1710d769",
        "gas": "0x16fec",
        "value": "0x0",
        "input": "0xe4849b320000000000000000000000000000000000000000000000284e215d8c412db7c2",
        "nonce": "0x714",
        "chainId": "0xaa36a7"
      },
      "additionalContracts": [],
      "isFixedGasLimit": false
    }
  ],
  "receipts": [
    {
      "status": "0x1",
      "cumulativeGasUsed": "0x7cc433",
      "logs": [
        {
          "address": "0x270e88f8683660553e8ba4eb2ad7c91a1710d769",
          "topics": [
            "0xddf252ad1be2c89b69c2b068fc378daa952ba7f163c4a11628f55a4df523b3ef",
            "0x000000000000000000000000c77f7fed3b5cc8249adc428c5f44c9063b9734b4",
            "0x0000000000000000000000000000000000000000000000000000000000000000"
          ],
          "data": "0x0000000000000000000000000000000000000000000000284e215d8c412db7c2",
          "blockHash": "0x80393393e83eff66bd2a69516e0c857b133083db9d46488c4644b746591e71d3",
          "blockNumber": "0x72542c",
          "transactionHash": "0x79a7eb4479f8bf05ff0a7f9592bde3400e3ecaaee60bbad9117a2d85e44f71f5",
          "transactionIndex": "0x51",
          "logIndex": "0x79",
          "removed": false
        },
        {
          "address": "0x270e88f8683660553e8ba4eb2ad7c91a1710d769",
          "topics": [
            "0x4afcb4a87cdbd9974efdb92ee48bc8d7cd0ae4bf217004db3d080cbaee652ca7"
          ],
          "data": "0x000000000000000000000000000000000000000000000000000000006786e4180000000000000000000000000000000000000000000000000004befedca0c3c20000000000000000000000000000000000000000000000000dc828dcb0909c79",
          "blockHash": "0x80393393e83eff66bd2a69516e0c857b133083db9d46488c4644b746591e71d3",
          "blockNumber": "0x72542c",
          "transactionHash": "0x79a7eb4479f8bf05ff0a7f9592bde3400e3ecaaee60bbad9117a2d85e44f71f5",
          "transactionIndex": "0x51",
          "logIndex": "0x7a",
          "removed": false
        }
      ],
      "logsBloom": "0x00000000000000000000000000000000000000000000000000000000000000000000000000000000000000000000000020000000000000004000000000000000000000000000000000000008000000000000000000000000000000000000000000000000020000000000000000000800020000000000000000000010000000000000000000010000000000000000000000000000000000000000010000000000000000000000000000000000000000004000000000000000000000000000000000000002000000800000000000000000000000000000080000008000000020000000000000000000000000000000000000000000000000000000000000000000",
      "type": "0x2",
      "transactionHash": "0x79a7eb4479f8bf05ff0a7f9592bde3400e3ecaaee60bbad9117a2d85e44f71f5",
      "transactionIndex": "0x51",
      "blockHash": "0x80393393e83eff66bd2a69516e0c857b133083db9d46488c4644b746591e71d3",
      "blockNumber": "0x72542c",
      "gasUsed": "0xfb93",
      "effectiveGasPrice": "0x12a8a250d",
      "from": "0xc77f7fed3b5cc8249adc428c5f44c9063b9734b4",
      "to": "0x270e88f8683660553e8ba4eb2ad7c91a1710d769",
      "contractAddress": null
    }
  ],
  "libraries": [],
  "pending": [],
  "returns": {},
  "timestamp": 1736893465,
  "chain": 11155111,
  "commit": "51a374b"
}