{
  "transactions": [
    {
      "hash": "0xe70bd6734dd62d7f8a468b32550ae8fed5831cd3de96589e695559a7706ebd7a",
      "transactionType": "CALL",
      "contractName": null,
      "contractAddress": "0x8aafd3ede9adb0ff97c7aebce82a919afb1c8764",
      "function": "buy(address)",
      "arguments": [
        "0xC77f7fed3b5Cc8249aDc428c5F44C9063B9734b4"
      ],
      "transaction": {
        "from": "0xc77f7fed3b5cc8249adc428c5f44c9063b9734b4",
        "to": "0x8aafd3ede9adb0ff97c7aebce82a919afb1c8764",
        "gas": "0x156ea",
        "value": "0xde0b6b3a7640000",
        "input": "0xf088d547000000000000000000000000c77f7fed3b5cc8249adc428c5f44c9063b9734b4",
        "nonce": "0x1384",
        "chainId": "0xaa36a7"
      },
      "additionalContracts": [],
      "isFixedGasLimit": false
    }
  ],
  "receipts": [
    {
      "status": "0x1",
      "cumulativeGasUsed": "0xc7ea49",
      "logs": [
        {
          "address": "0x8aafd3ede9adb0ff97c7aebce82a919afb1c8764",
          "topics": [
            "0xddf252ad1be2c89b69c2b068fc378daa952ba7f163c4a11628f55a4df523b3ef",
            "0x0000000000000000000000000000000000000000000000000000000000000000",
            "0x000000000000000000000000c77f7fed3b5cc8249adc428c5f44c9063b9734b4"
          ],
          "data": "0x00000000000000000000000000000000000000000000000f09df49967fcc27c0",
          "blockHash": "0xfb3896572d9f819e68b4670cea2153d5894d5d4b5a96934af57a54caf51af07c",
          "blockNumber": "0x731aa8",
          "transactionHash": "0xe70bd6734dd62d7f8a468b32550ae8fed5831cd3de96589e695559a7706ebd7a",
          "transactionIndex": "0x86",
          "logIndex": "0x80",
          "removed": false
        },
        {
          "address": "0x8aafd3ede9adb0ff97c7aebce82a919afb1c8764",
          "topics": [
            "0xddf252ad1be2c89b69c2b068fc378daa952ba7f163c4a11628f55a4df523b3ef",
            "0x0000000000000000000000000000000000000000000000000000000000000000",
            "0x000000000000000000000000c77f7fed3b5cc8249adc428c5f44c9063b9734b4"
          ],
          "data": "0x0000000000000000000000000000000000000000000000000bad8e9dc44ca851",
          "blockHash": "0xfb3896572d9f819e68b4670cea2153d5894d5d4b5a96934af57a54caf51af07c",
          "blockNumber": "0x731aa8",
          "transactionHash": "0xe70bd6734dd62d7f8a468b32550ae8fed5831cd3de96589e695559a7706ebd7a",
          "transactionIndex": "0x86",
          "logIndex": "0x81",
          "removed": false
        },
        {
          "address": "0x8aafd3ede9adb0ff97c7aebce82a919afb1c8764",
          "topics": [
            "0x4afcb4a87cdbd9974efdb92ee48bc8d7cd0ae4bf217004db3d080cbaee652ca7"
          ],
          "data": "0x0000000000000000000000000000000000000000000000000000000067903cb0000000000000000000000000000000000000000000000000000cb3c4bf1a7b880000000000000000000000000000000000000000000000000de0b6b3a7640000",
          "blockHash": "0xfb3896572d9f819e68b4670cea2153d5894d5d4b5a96934af57a54caf51af07c",
          "blockNumber": "0x731aa8",
          "transactionHash": "0xe70bd6734dd62d7f8a468b32550ae8fed5831cd3de96589e695559a7706ebd7a",
          "transactionIndex": "0x86",
          "logIndex": "0x82",
          "removed": false
        }
      ],
      "logsBloom": "0x00000000000000000000000000000000000000000600000000000000000000000000000000000000000000000000000000000000000000004000000000000000000000000000004000000008000000000000000000000000000000000000000000000000020000000000000000000800020000000000000000000010000000000000000000000000000000000000000000000000000000000000010000000000000000000000000000000000000000004000000000000000000000000000000000000002000000800000000000000000000000000000080000000000000020000000000000000000000000000000000000000000000000000000000000000000",
      "type": "0x2",
      "transactionHash": "0xe70bd6734dd62d7f8a468b32550ae8fed5831cd3de96589e695559a7706ebd7a",
      "transactionIndex": "0x86",
      "blockHash": "0xfb3896572d9f819e68b4670cea2153d5894d5d4b5a96934af57a54caf51af07c",
      "blockNumber": "0x731aa8",
      "gasUsed": "0xf844",
      "effectiveGasPrice": "0x758ed4bb",
      "from": "0xc77f7fed3b5cc8249adc428c5f44c9063b9734b4",
      "to": "0x8aafd3ede9adb0ff97c7aebce82a919afb1c8764",
      "contractAddress": null
    }
  ],
  "libraries": [],
  "pending": [],
  "returns": {},
  "timestamp": 1737505969,
  "chain": 11155111,
  "commit": "1d2fb70"
}