{
  "transactions": [
    {
      "hash": "0xe78765f80e39e658db1fb77dffc282283e35244decf564faf28c4773530a77a3",
      "transactionType": "CALL",
      "contractName": null,
      "contractAddress": "0x5eb9cc76c3506942c1c0ead70e877dd5e4f00cb0",
      "function": "sell(uint256)",
      "arguments": [
        "989088207071400169075"
      ],
      "transaction": {
        "from": "0xc77f7fed3b5cc8249adc428c5f44c9063b9734b4",
        "to": "0x5eb9cc76c3506942c1c0ead70e877dd5e4f00cb0",
        "gas": "0x16fec",
        "value": "0x0",
        "input": "0xe4849b320000000000000000000000000000000000000000000000359e5b33eae2d00e73",
        "nonce": "0x44b",
        "chainId": "0xaa36a7"
      },
      "additionalContracts": [],
      "isFixedGasLimit": false
    }
  ],
  "receipts": [
    {
      "status": "0x1",
      "cumulativeGasUsed": "0x9c7149",
      "logs": [
        {
          "address": "0x5eb9cc76c3506942c1c0ead70e877dd5e4f00cb0",
          "topics": [
            "0xddf252ad1be2c89b69c2b068fc378daa952ba7f163c4a11628f55a4df523b3ef",
            "0x000000000000000000000000c77f7fed3b5cc8249adc428c5f44c9063b9734b4",
            "0x0000000000000000000000000000000000000000000000000000000000000000"
          ],
          "data": "0x0000000000000000000000000000000000000000000000359e5b33eae2d00e73",
          "blockHash": "0x16dc339a04991241fa772d1d426c094c993e3e68cf946d7d94100293c9224a5a",
          "blockNumber": "0x72506c",
          "transactionHash": "0xe78765f80e39e658db1fb77dffc282283e35244decf564faf28c4773530a77a3",
          "transactionIndex": "0x5e",
          "logIndex": "0x75",
          "removed": false
        },
        {
          "address": "0x5eb9cc76c3506942c1c0ead70e877dd5e4f00cb0",
          "topics": [
            "0x4afcb4a87cdbd9974efdb92ee48bc8d7cd0ae4bf217004db3d080cbaee652ca7"
          ],
          "data": "0x000000000000000000000000000000000000000000000000000000006786b6dc0000000000000000000000000000000000000000000000000003911842534fc50000000000000000000000000000000000000000000000000dc7db1331d276dd",
          "blockHash": "0x16dc339a04991241fa772d1d426c094c993e3e68cf946d7d94100293c9224a5a",
          "blockNumber": "0x72506c",
          "transactionHash": "0xe78765f80e39e658db1fb77dffc282283e35244decf564faf28c4773530a77a3",
          "transactionIndex": "0x5e",
          "logIndex": "0x76",
          "removed": false
        }
      ],
      "logsBloom": "0x00000000000000000000000000000000000000000000000000000000000000000000000000000000000000000000000000000000000000004000000000000000000000000000000000000008000000000000000000000000000000000000000000000000020000000000000004000800020000000000000000000010000000000000000000000000000000000000000000000000000000000000010000000000000000000000000000000000000000004000000000000000000000000000020000000002000000800000008000000000000000000000080000000000000020000000000000000000000000000000000000000000000000000000000000000000",
      "type": "0x2",
      "transactionHash": "0xe78765f80e39e658db1fb77dffc282283e35244decf564faf28c4773530a77a3",
      "transactionIndex": "0x5e",
      "blockHash": "0x16dc339a04991241fa772d1d426c094c993e3e68cf946d7d94100293c9224a5a",
      "blockNumber": "0x72506c",
      "gasUsed": "0xfb93",
      "effectiveGasPrice": "0x279967564",
      "from": "0xc77f7fed3b5cc8249adc428c5f44c9063b9734b4",
      "to": "0x5eb9cc76c3506942c1c0ead70e877dd5e4f00cb0",
      "contractAddress": null
    }
  ],
  "libraries": [],
  "pending": [],
  "returns": {},
  "timestamp": 1736881885,
  "chain": 11155111,
  "commit": "51a374b"
}