{
  "transactions": [
    {
      "hash": "0x501640cc2227d053199f3232b9f8e0bea2c9e4a680e8934e2b62dcf0d632632e",
      "transactionType": "CALL",
      "contractName": null,
      "contractAddress": "0xbf4a322f1496e5c3d34a9bcdb4c60567b38c7de2",
      "function": "buy(address)",
      "arguments": [
        "0xC77f7fed3b5Cc8249aDc428c5F44C9063B9734b4"
      ],
      "transaction": {
        "from": "0xc77f7fed3b5cc8249adc428c5f44c9063b9734b4",
        "to": "0xbf4a322f1496e5c3d34a9bcdb4c60567b38c7de2",
        "gas": "0x1b309",
        "value": "0xde0b6b3a7640000",
        "input": "0xf088d547000000000000000000000000c77f7fed3b5cc8249adc428c5f44c9063b9734b4",
        "nonce": "0x918",
        "chainId": "0xaa36a7"
      },
      "additionalContracts": [],
      "isFixedGasLimit": false
    }
  ],
  "receipts": [
    {
      "status": "0x1",
      "cumulativeGasUsed": "0xf3103f",
      "logs": [
        {
          "address": "0xbf4a322f1496e5c3d34a9bcdb4c60567b38c7de2",
          "topics": [
            "0xddf252ad1be2c89b69c2b068fc378daa952ba7f163c4a11628f55a4df523b3ef",
            "0x0000000000000000000000000000000000000000000000000000000000000000",
            "0x000000000000000000000000c77f7fed3b5cc8249adc428c5f44c9063b9734b4"
          ],
          "data": "0x0000000000000000000000000000000000000000000000358716c4362a597bef",
          "blockHash": "0x0098ce5ee9f0c3c957f2bb711d25ee4e20071507b7fd6c144f33b8911c4e90d9",
          "blockNumber": "0x725899",
          "transactionHash": "0x501640cc2227d053199f3232b9f8e0bea2c9e4a680e8934e2b62dcf0d632632e",
          "transactionIndex": "0x65",
          "logIndex": "0x8d",
          "removed": false
        },
        {
          "address": "0xbf4a322f1496e5c3d34a9bcdb4c60567b38c7de2",
          "topics": [
            "0xddf252ad1be2c89b69c2b068fc378daa952ba7f163c4a11628f55a4df523b3ef",
            "0x0000000000000000000000000000000000000000000000000000000000000000",
            "0x000000000000000000000000c77f7fed3b5cc8249adc428c5f44c9063b9734b4"
          ],
          "data": "0x0000000000000000000000000000000000000000000000002990ea7cbc643222",
          "blockHash": "0x0098ce5ee9f0c3c957f2bb711d25ee4e20071507b7fd6c144f33b8911c4e90d9",
          "blockNumber": "0x725899",
          "transactionHash": "0x501640cc2227d053199f3232b9f8e0bea2c9e4a680e8934e2b62dcf0d632632e",
          "transactionIndex": "0x65",
          "logIndex": "0x8e",
          "removed": false
        },
        {
          "address": "0xbf4a322f1496e5c3d34a9bcdb4c60567b38c7de2",
          "topics": [
            "0x4afcb4a87cdbd9974efdb92ee48bc8d7cd0ae4bf217004db3d080cbaee652ca7"
          ],
          "data": "0x000000000000000000000000000000000000000000000000000000006787195800000000000000000000000000000000000000000000000000038fe34f36278b0000000000000000000000000000000000000000000000000de0b6b3a7640000",
          "blockHash": "0x0098ce5ee9f0c3c957f2bb711d25ee4e20071507b7fd6c144f33b8911c4e90d9",
          "blockNumber": "0x725899",
          "transactionHash": "0x501640cc2227d053199f3232b9f8e0bea2c9e4a680e8934e2b62dcf0d632632e",
          "transactionIndex": "0x65",
          "logIndex": "0x8f",
          "removed": false
        }
      ],
      "logsBloom": "0x00000000000000000000000000000000000000000000000000000000000000000000000000000000000000000000000000000000000000004000000000000000000000000000000000000008000000000000001000000000000000000000000000000000020000000000000000000800020000000000000000000010000000000000000000000000000000000000000000000000000008000000010000000000000000000000000000000000000000004000000000000000000000000000000000000002000000800000000000001000000000000000080000000000000020000000000000000000000000000000000000000000000000000000000000000000",
      "type": "0x2",
      "transactionHash": "0x501640cc2227d053199f3232b9f8e0bea2c9e4a680e8934e2b62dcf0d632632e",
      "transactionIndex": "0x65",
      "blockHash": "0x0098ce5ee9f0c3c957f2bb711d25ee4e20071507b7fd6c144f33b8911c4e90d9",
      "blockNumber": "0x725899",
      "gasUsed": "0x13af6",
      "effectiveGasPrice": "0x4237f1e7",
      "from": "0xc77f7fed3b5cc8249adc428c5f44c9063b9734b4",
      "to": "0xbf4a322f1496e5c3d34a9bcdb4c60567b38c7de2",
      "contractAddress": null
    }
  ],
  "libraries": [],
  "pending": [],
  "returns": {},
  "timestamp": 1736907099,
  "chain": 11155111,
  "commit": "51a374b"
}