{
  "transactions": [
    {
      "hash": "0x3ca4933c33af8c1e43e4f6aa03ce0cd7f11d3ced564bfb7795b0bdd435c56351",
      "transactionType": "CALL",
      "contractName": null,
      "contractAddress": "0xbf4a322f1496e5c3d34a9bcdb4c60567b38c7de2",
      "function": "sell(uint256)",
      "arguments": [
        "980093275556558443633"
      ],
      "transaction": {
        "from": "0xc77f7fed3b5cc8249adc428c5f44c9063b9734b4",
        "to": "0xbf4a322f1496e5c3d34a9bcdb4c60567b38c7de2",
        "gas": "0x16fea",
        "value": "0x0",
        "input": "0xe4849b320000000000000000000000000000000000000000000000352186c95ca9b49471",
        "nonce": "0xc11",
        "chainId": "0xaa36a7"
      },
      "additionalContracts": [],
      "isFixedGasLimit": false
    }
  ],
  "receipts": [
    {
      "status": "0x1",
      "cumulativeGasUsed": "0xd89414",
      "logs": [
        {
          "address": "0xbf4a322f1496e5c3d34a9bcdb4c60567b38c7de2",
          "topics": [
            "0xddf252ad1be2c89b69c2b068fc378daa952ba7f163c4a11628f55a4df523b3ef",
            "0x000000000000000000000000c77f7fed3b5cc8249adc428c5f44c9063b9734b4",
            "0x0000000000000000000000000000000000000000000000000000000000000000"
          ],
          "data": "0x0000000000000000000000000000000000000000000000352186c95ca9b49471",
          "blockHash": "0x063791aa0526628f800638d5e4092d46a8543294e9c0f96465c29c8b058a9632",
          "blockNumber": "0x725c3c",
          "transactionHash": "0x3ca4933c33af8c1e43e4f6aa03ce0cd7f11d3ced564bfb7795b0bdd435c56351",
          "transactionIndex": "0x46",
          "logIndex": "0xa2",
          "removed": false
        },
        {
          "address": "0xbf4a322f1496e5c3d34a9bcdb4c60567b38c7de2",
          "topics": [
            "0x4afcb4a87cdbd9974efdb92ee48bc8d7cd0ae4bf217004db3d080cbaee652ca7"
          ],
          "data": "0x000000000000000000000000000000000000000000000000000000006787452c0000000000000000000000000000000000000000000000000003997ff0573bd40000000000000000000000000000000000000000000000000dc7e3e2487f0b89",
          "blockHash": "0x063791aa0526628f800638d5e4092d46a8543294e9c0f96465c29c8b058a9632",
          "blockNumber": "0x725c3c",
          "transactionHash": "0x3ca4933c33af8c1e43e4f6aa03ce0cd7f11d3ced564bfb7795b0bdd435c56351",
          "transactionIndex": "0x46",
          "logIndex": "0xa3",
          "removed": false
        }
      ],
      "logsBloom": "0x00000000000000000000000000000000000000000000000000000000000000000000000000000000000000000000000000000000000000004000000000000000000000000000000000000008000000000000001000000000000000000000000000000000020000000000000000000800020000000000000000000010000000000000000000000000000000000000000000000000000008000000010000000000000000000000000000000000000000004000000000000000000000000000000000000002000000800000000000001000000000000000080000000000000020000000000000000000000000000000000000000000000000000000000000000000",
      "type": "0x2",
      "transactionHash": "0x3ca4933c33af8c1e43e4f6aa03ce0cd7f11d3ced564bfb7795b0bdd435c56351",
      "transactionIndex": "0x46",
      "blockHash": "0x063791aa0526628f800638d5e4092d46a8543294e9c0f96465c29c8b058a9632",
      "blockNumber": "0x725c3c",
      "gasUsed": "0xfb91",
      "effectiveGasPrice": "0x125048888",
      "from": "0xc77f7fed3b5cc8249adc428c5f44c9063b9734b4",
      "to": "0xbf4a322f1496e5c3d34a9bcdb4c60567b38c7de2",
      "contractAddress": null
    }
  ],
  "libraries": [],
  "pending": [],
  "returns": {},
  "timestamp": 1736918317,
  "chain": 11155111,
  "commit": "51a374b"
}