{
  "transactions": [
    {
      "hash": "0x8b4da57653a4ae62bb2de2752b8ae018d3f91d787777711d586f7ee0ccef7b8d",
      "transactionType": "CALL",
      "contractName": null,
      "contractAddress": "0x270e88f8683660553e8ba4eb2ad7c91a1710d769",
      "function": "buy(address)",
      "arguments": [
        "0xC77f7fed3b5Cc8249aDc428c5F44C9063B9734b4"
      ],
      "transaction": {
        "from": "0xc77f7fed3b5cc8249adc428c5f44c9063b9734b4",
        "to": "0x270e88f8683660553e8ba4eb2ad7c91a1710d769",
        "gas": "0x1b30c",
        "value": "0xde0b6b3a7640000",
        "input": "0xf088d547000000000000000000000000c77f7fed3b5cc8249adc428c5f44c9063b9734b4",
        "nonce": "0x813",
        "chainId": "0xaa36a7"
      },
      "additionalContracts": [],
      "isFixedGasLimit": false
    }
  ],
  "receipts": [
    {
      "status": "0x1",
      "cumulativeGasUsed": "0xebcafc",
      "logs": [
        {
          "address": "0x270e88f8683660553e8ba4eb2ad7c91a1710d769",
          "topics": [
            "0xddf252ad1be2c89b69c2b068fc378daa952ba7f163c4a11628f55a4df523b3ef",
            "0x0000000000000000000000000000000000000000000000000000000000000000",
            "0x000000000000000000000000c77f7fed3b5cc8249adc428c5f44c9063b9734b4"
          ],
          "data": "0x000000000000000000000000000000000000000000000026fae11645bd788809",
          "blockHash": "0x03d43d018ef57e3e00f5e396931abdc65ac727383b49662be74964812ae28285",
          "blockNumber": "0x725556",
          "transactionHash": "0x8b4da57653a4ae62bb2de2752b8ae018d3f91d787777711d586f7ee0ccef7b8d",
          "transactionIndex": "0xa5",
          "logIndex": "0xde",
          "removed": false
        },
        {
          "address": "0x270e88f8683660553e8ba4eb2ad7c91a1710d769",
          "topics": [
            "0xddf252ad1be2c89b69c2b068fc378daa952ba7f163c4a11628f55a4df523b3ef",
            "0x0000000000000000000000000000000000000000000000000000000000000000",
            "0x000000000000000000000000c77f7fed3b5cc8249adc428c5f44c9063b9734b4"
          ],
          "data": "0x0000000000000000000000000000000000000000000000001e44f0ab3c4453ef",
          "blockHash": "0x03d43d018ef57e3e00f5e396931abdc65ac727383b49662be74964812ae28285",
          "blockNumber": "0x725556",
          "transactionHash": "0x8b4da57653a4ae62bb2de2752b8ae018d3f91d787777711d586f7ee0ccef7b8d",
          "transactionIndex": "0xa5",
          "logIndex": "0xdf",
          "removed": false
        },
        {
          "address": "0x270e88f8683660553e8ba4eb2ad7c91a1710d769",
          "topics": [
            "0x4afcb4a87cdbd9974efdb92ee48bc8d7cd0ae4bf217004db3d080cbaee652ca7"
          ],
          "data": "0x000000000000000000000000000000000000000000000000000000006786f2100000000000000000000000000000000000000000000000000004e44e22c3a2f30000000000000000000000000000000000000000000000000de0b6b3a7640000",
          "blockHash": "0x03d43d018ef57e3e00f5e396931abdc65ac727383b49662be74964812ae28285",
          "blockNumber": "0x725556",
          "transactionHash": "0x8b4da57653a4ae62bb2de2752b8ae018d3f91d787777711d586f7ee0ccef7b8d",
          "transactionIndex": "0xa5",
          "logIndex": "0xe0",
          "removed": false
        }
      ],
      "logsBloom": "0x00000000000000000000000000000000000000000000000000000000000000000000000000000000000000000000000020000000000000004000000000000000000000000000000000000008000000000000000000000000000000000000000000000000020000000000000000000800020000000000000000000010000000000000000000010000000000000000000000000000000000000000010000000000000000000000000000000000000000004000000000000000000000000000000000000002000000800000000000000000000000000000080000008000000020000000000000000000000000000000000000000000000000000000000000000000",
      "type": "0x2",
      "transactionHash": "0x8b4da57653a4ae62bb2de2752b8ae018d3f91d787777711d586f7ee0ccef7b8d",
      "transactionIndex": "0xa5",
      "blockHash": "0x03d43d018ef57e3e00f5e396931abdc65ac727383b49662be74964812ae28285",
      "blockNumber": "0x725556",
      "gasUsed": "0x13af8",
      "effectiveGasPrice": "0x7bd07f6f",
      "from": "0xc77f7fed3b5cc8249adc428c5f44c9063b9734b4",
      "to": "0x270e88f8683660553e8ba4eb2ad7c91a1710d769",
      "contractAddress": null
    }
  ],
  "libraries": [],
  "pending": [],
  "returns": {},
  "timestamp": 1736897042,
  "chain": 11155111,
  "commit": "51a374b"
}