{
  "transactions": [
    {
      "hash": "0x0cb3606029776d6629a920c22b368e38ad6b7f5ad1c0c8a574cc9c635269baea",
      "transactionType": "CALL",
      "contractName": null,
      "contractAddress": "0xb34dddfec921b9762ff284a8758e2223092b32ad",
      "function": "buy(address)",
      "arguments": [
        "0xC77f7fed3b5Cc8249aDc428c5F44C9063B9734b4"
      ],
      "transaction": {
        "from": "0xc77f7fed3b5cc8249adc428c5f44c9063b9734b4",
        "to": "0xb34dddfec921b9762ff284a8758e2223092b32ad",
        "gas": "0x1b2c8",
        "value": "0xde0b6b3a7640000",
        "input": "0xf088d547000000000000000000000000c77f7fed3b5cc8249adc428c5f44c9063b9734b4",
        "nonce": "0x17e5",
        "chainId": "0xaa36a7"
      },
      "additionalContracts": [],
      "isFixedGasLimit": false
    }
  ],
  "receipts": [
    {
      "status": "0x1",
      "cumulativeGasUsed": "0xa97856",
      "logs": [
        {
          "address": "0xb34dddfec921b9762ff284a8758e2223092b32ad",
          "topics": [
            "0xddf252ad1be2c89b69c2b068fc378daa952ba7f163c4a11628f55a4df523b3ef",
            "0x0000000000000000000000000000000000000000000000000000000000000000",
            "0x000000000000000000000000c77f7fed3b5cc8249adc428c5f44c9063b9734b4"
          ],
          "data": "0x000000000000000000000000000000000000000000000035ab028ac154c71b30",
          "blockHash": "0x4e6e62cdd11d3bb296e3ed3c274249102bec95b1ebb0d23b92923f25e3c12429",
          "blockNumber": "0x734ae2",
          "transactionHash": "0x0cb3606029776d6629a920c22b368e38ad6b7f5ad1c0c8a574cc9c635269baea",
          "transactionIndex": "0x87",
          "logIndex": "0xb6",
          "removed": false
        },
        {
          "address": "0xb34dddfec921b9762ff284a8758e2223092b32ad",
          "topics": [
            "0xddf252ad1be2c89b69c2b068fc378daa952ba7f163c4a11628f55a4df523b3ef",
            "0x0000000000000000000000000000000000000000000000000000000000000000",
            "0x000000000000000000000000c77f7fed3b5cc8249adc428c5f44c9063b9734b4"
          ],
          "data": "0x00000000000000000000000000000000000000000000000029accf52156cec36",
          "blockHash": "0x4e6e62cdd11d3bb296e3ed3c274249102bec95b1ebb0d23b92923f25e3c12429",
          "blockNumber": "0x734ae2",
          "transactionHash": "0x0cb3606029776d6629a920c22b368e38ad6b7f5ad1c0c8a574cc9c635269baea",
          "transactionIndex": "0x87",
          "logIndex": "0xb7",
          "removed": false
        },
        {
          "address": "0xb34dddfec921b9762ff284a8758e2223092b32ad",
          "topics": [
            "0x4afcb4a87cdbd9974efdb92ee48bc8d7cd0ae4bf217004db3d080cbaee652ca7"
          ],
          "data": "0x0000000000000000000000000000000000000000000000000000000067928f04000000000000000000000000000000000000000000000000000393d6e1a1f5be0000000000000000000000000000000000000000000000000de0b6b3a7640000",
          "blockHash": "0x4e6e62cdd11d3bb296e3ed3c274249102bec95b1ebb0d23b92923f25e3c12429",
          "blockNumber": "0x734ae2",
          "transactionHash": "0x0cb3606029776d6629a920c22b368e38ad6b7f5ad1c0c8a574cc9c635269baea",
          "transactionIndex": "0x87",
          "logIndex": "0xb8",
          "removed": false
        }
      ],
      "logsBloom": "0x00000000000000000000800000000000000000000000000000000000000000000000000000000000000000000000000000000000000000004000000000000000000000000000000000000008000000000000000000000000000000000000000000000000020000000000000000000800020000000000000800000010000000000000000000000000000000000000000000000000000000000000010000000000000400000000000000000000000000004000000000000000000000000000000000000002000000800000000000000000000000000000080000000000000020000000000000000000000000000000000000000000000000000000000000000000",
      "type": "0x2",
      "transactionHash": "0x0cb3606029776d6629a920c22b368e38ad6b7f5ad1c0c8a574cc9c635269baea",
      "transactionIndex": "0x87",
      "blockHash": "0x4e6e62cdd11d3bb296e3ed3c274249102bec95b1ebb0d23b92923f25e3c12429",
      "blockNumber": "0x734ae2",
      "gasUsed": "0x13ac7",
      "effectiveGasPrice": "0x46582b5d2",
      "from": "0xc77f7fed3b5cc8249adc428c5f44c9063b9734b4",
      "to": "0xb34dddfec921b9762ff284a8758e2223092b32ad",
      "contractAddress": null
    }
  ],
  "libraries": [],
  "pending": [],
  "returns": {},
  "timestamp": 1737658117,
  "chain": 11155111,
  "commit": "f5162e9"
}