{
  "transactions": [
    {
      "hash": "0xa775d5d08e393a908b654b3c5fd409efa931fecbff52383b41e0cef6535985cd",
      "transactionType": "CALL",
      "contractName": null,
      "contractAddress": "0x270e88f8683660553e8ba4eb2ad7c91a1710d769",
      "function": "sell(uint256)",
      "arguments": [
        "824730972037508978025"
      ],
      "transaction": {
        "from": "0xc77f7fed3b5cc8249adc428c5f44c9063b9734b4",
        "to": "0x270e88f8683660553e8ba4eb2ad7c91a1710d769",
        "gas": "0x16fec",
        "value": "0x0",
        "input": "0xe4849b3200000000000000000000000000000000000000000000002cb5710174c6575569",
        "nonce": "0x64f",
        "chainId": "0xaa36a7"
      },
      "additionalContracts": [],
      "isFixedGasLimit": false
    }
  ],
  "receipts": [
    {
      "status": "0x1",
      "cumulativeGasUsed": "0x774181",
      "logs": [
        {
          "address": "0x270e88f8683660553e8ba4eb2ad7c91a1710d769",
          "topics": [
            "0xddf252ad1be2c89b69c2b068fc378daa952ba7f163c4a11628f55a4df523b3ef",
            "0x000000000000000000000000c77f7fed3b5cc8249adc428c5f44c9063b9734b4",
            "0x0000000000000000000000000000000000000000000000000000000000000000"
          ],
          "data": "0x00000000000000000000000000000000000000000000002cb5710174c6575569",
          "blockHash": "0xb9f0666bddf9f5fdac6855479f4f844dee8b30f110a2c306cb97c46c1a13cfa7",
          "blockNumber": "0x72533a",
          "transactionHash": "0xa775d5d08e393a908b654b3c5fd409efa931fecbff52383b41e0cef6535985cd",
          "transactionIndex": "0x47",
          "logIndex": "0x70",
          "removed": false
        },
        {
          "address": "0x270e88f8683660553e8ba4eb2ad7c91a1710d769",
          "topics": [
            "0x4afcb4a87cdbd9974efdb92ee48bc8d7cd0ae4bf217004db3d080cbaee652ca7"
          ],
          "data": "0x000000000000000000000000000000000000000000000000000000006786d8c000000000000000000000000000000000000000000000000000044714dda8998b0000000000000000000000000000000000000000000000000dc7e0f96e8eab5a",
          "blockHash": "0xb9f0666bddf9f5fdac6855479f4f844dee8b30f110a2c306cb97c46c1a13cfa7",
          "blockNumber": "0x72533a",
          "transactionHash": "0xa775d5d08e393a908b654b3c5fd409efa931fecbff52383b41e0cef6535985cd",
          "transactionIndex": "0x47",
          "logIndex": "0x71",
          "removed": false
        }
      ],
      "logsBloom": "0x00000000000000000000000000000000000000000000000000000000000000000000000000000000000000000000000020000000000000004000000000000000000000000000000000000008000000000000000000000000000000000000000000000000020000000000000000000800020000000000000000000010000000000000000000010000000000000000000000000000000000000000010000000000000000000000000000000000000000004000000000000000000000000000000000000002000000800000000000000000000000000000080000008000000020000000000000000000000000000000000000000000000000000000000000000000",
      "type": "0x2",
      "transactionHash": "0xa775d5d08e393a908b654b3c5fd409efa931fecbff52383b41e0cef6535985cd",
      "transactionIndex": "0x47",
      "blockHash": "0xb9f0666bddf9f5fdac6855479f4f844dee8b30f110a2c306cb97c46c1a13cfa7",
      "blockNumber": "0x72533a",
      "gasUsed": "0xfb93",
      "effectiveGasPrice": "0x1be9a6bc0",
      "from": "0xc77f7fed3b5cc8249adc428c5f44c9063b9734b4",
      "to": "0x270e88f8683660553e8ba4eb2ad7c91a1710d769",
      "contractAddress": null
    }
  ],
  "libraries": [],
  "pending": [],
  "returns": {},
  "timestamp": 1736890561,
  "chain": 11155111,
  "commit": "51a374b"
}