{
  "transactions": [
    {
      "hash": "0x9551aae302d164b6475bd304905ca8c8aa43e368d400e981c571e4929f2f3e4f",
      "transactionType": "CALL",
      "contractName": null,
      "contractAddress": "0x8aafd3ede9adb0ff97c7aebce82a919afb1c8764",
      "function": "sell(uint256)",
      "arguments": [
        "6000660691218484396"
      ],
      "transaction": {
        "from": "0xc77f7fed3b5cc8249adc428c5f44c9063b9734b4",
        "to": "0x8aafd3ede9adb0ff97c7aebce82a919afb1c8764",
        "gas": "0x15dca",
        "value": "0x0",
        "input": "0xe4849b320000000000000000000000000000000000000000000000005346a11b15ba4cac",
        "nonce": "0xe57",
        "chainId": "0xaa36a7"
      },
      "additionalContracts": [],
      "isFixedGasLimit": false
    }
  ],
  "receipts": [
    {
      "status": "0x1",
      "cumulativeGasUsed": "0x102a428",
      "logs": [
        {
          "address": "0x8aafd3ede9adb0ff97c7aebce82a919afb1c8764",
          "topics": [
            "0xddf252ad1be2c89b69c2b068fc378daa952ba7f163c4a11628f55a4df523b3ef",
            "0x000000000000000000000000c77f7fed3b5cc8249adc428c5f44c9063b9734b4",
            "0x0000000000000000000000000000000000000000000000000000000000000000"
          ],
          "data": "0x000000000000000000000000000000000000000000000000529c148d8e62cb09",
          "blockHash": "0x6ebe5fd72713d8e340dfa940eb33f7b86f567ea0b19e4142232cd4109725c44a",
          "blockNumber": "0x7313a9",
          "transactionHash": "0x9551aae302d164b6475bd304905ca8c8aa43e368d400e981c571e4929f2f3e4f",
          "transactionIndex": "0x9b",
          "logIndex": "0x11a",
          "removed": false
        },
        {
          "address": "0x8aafd3ede9adb0ff97c7aebce82a919afb1c8764",
          "topics": [
            "0xddf252ad1be2c89b69c2b068fc378daa952ba7f163c4a11628f55a4df523b3ef",
            "0x000000000000000000000000c77f7fed3b5cc8249adc428c5f44c9063b9734b4",
            "0x000000000000000000000000c77f7fed3b5cc8249adc428c5f44c9063b9734b4"
          ],
          "data": "0x00000000000000000000000000000000000000000000000000aa8c8d875781a3",
          "blockHash": "0x6ebe5fd72713d8e340dfa940eb33f7b86f567ea0b19e4142232cd4109725c44a",
          "blockNumber": "0x7313a9",
          "transactionHash": "0x9551aae302d164b6475bd304905ca8c8aa43e368d400e981c571e4929f2f3e4f",
          "transactionIndex": "0x9b",
          "logIndex": "0x11b",
          "removed": false
        },
        {
          "address": "0x8aafd3ede9adb0ff97c7aebce82a919afb1c8764",
          "topics": [
            "0x4afcb4a87cdbd9974efdb92ee48bc8d7cd0ae4bf217004db3d080cbaee652ca7"
          ],
          "data": "0x00000000000000000000000000000000000000000000000000000000678fe8800000000000000000000000000000000000000000000000000004b4752d6107e8000000000000000000000000000000000000000000000000001c3b872cb01470",
          "blockHash": "0x6ebe5fd72713d8e340dfa940eb33f7b86f567ea0b19e4142232cd4109725c44a",
          "blockNumber": "0x7313a9",
          "transactionHash": "0x9551aae302d164b6475bd304905ca8c8aa43e368d400e981c571e4929f2f3e4f",
          "transactionIndex": "0x9b",
          "logIndex": "0x11c",
          "removed": false
        }
      ],
      "logsBloom": "0x00000000000000000000000000000000000000000600000000000000000000000000000000000000000000000000000000000000000000004000000000000000000000000000004000000008000000000000000000000000000000000000000000000000020000000000000000000800020000000000000000000010000000000000000000000000000000000000000000000000000000000000010000000000000000000000000000000000000000004000000000000000000000000000000000000002000000800000000000000000000000000000080000000000000020000000000000000000000000000000000000000000000000000000000000000000",
      "type": "0x2",
      "transactionHash": "0x9551aae302d164b6475bd304905ca8c8aa43e368d400e981c571e4929f2f3e4f",
      "transactionIndex": "0x9b",
      "blockHash": "0x6ebe5fd72713d8e340dfa940eb33f7b86f567ea0b19e4142232cd4109725c44a",
      "blockNumber": "0x7313a9",
      "gasUsed": "0xfd3f",
      "effectiveGasPrice": "0x7f36272d",
      "from": "0xc77f7fed3b5cc8249adc428c5f44c9063b9734b4",
      "to": "0x8aafd3ede9adb0ff97c7aebce82a919afb1c8764",
      "contractAddress": null
    }
  ],
  "libraries": [],
  "pending": [],
  "returns": {},
  "timestamp": 1737484417,
  "chain": 11155111,
  "commit": "51a374b"
}