{
  "transactions": [
    {
      "hash": "0x78a3ddd9f0bf8810fe924af1ae3b0b6d6398254390cc4632a086c240e0b1d81c",
      "transactionType": "CALL",
      "contractName": null,
      "contractAddress": "0x270e88f8683660553e8ba4eb2ad7c91a1710d769",
      "function": "buy(address)",
      "arguments": [
        "0xC77f7fed3b5Cc8249aDc428c5F44C9063B9734b4"
      ],
      "transaction": {
        "from": "0xc77f7fed3b5cc8249adc428c5f44c9063b9734b4",
        "to": "0x270e88f8683660553e8ba4eb2ad7c91a1710d769",
        "gas": "0x1b30c",
        "value": "0xde0b6b3a7640000",
        "input": "0xf088d547000000000000000000000000c77f7fed3b5cc8249adc428c5f44c9063b9734b4",
        "nonce": "0x80b",
        "chainId": "0xaa36a7"
      },
      "additionalContracts": [],
      "isFixedGasLimit": false
    }
  ],
  "receipts": [
    {
      "status": "0x1",
      "cumulativeGasUsed": "0x201a7bf",
      "logs": [
        {
          "address": "0x270e88f8683660553e8ba4eb2ad7c91a1710d769",
          "topics": [
            "0xddf252ad1be2c89b69c2b068fc378daa952ba7f163c4a11628f55a4df523b3ef",
            "0x0000000000000000000000000000000000000000000000000000000000000000",
            "0x000000000000000000000000c77f7fed3b5cc8249adc428c5f44c9063b9734b4"
          ],
          "data": "0x000000000000000000000000000000000000000000000027043a0e94e2c49fb1",
          "blockHash": "0x9e8516d7e8a4d5fe1fefc0c4e433122d928bcd64c10fc0619f112ea963b5aa6c",
          "blockNumber": "0x72554c",
          "transactionHash": "0x78a3ddd9f0bf8810fe924af1ae3b0b6d6398254390cc4632a086c240e0b1d81c",
          "transactionIndex": "0x5e",
          "logIndex": "0xd3",
          "removed": false
        },
        {
          "address": "0x270e88f8683660553e8ba4eb2ad7c91a1710d769",
          "topics": [
            "0xddf252ad1be2c89b69c2b068fc378daa952ba7f163c4a11628f55a4df523b3ef",
            "0x0000000000000000000000000000000000000000000000000000000000000000",
            "0x000000000000000000000000c77f7fed3b5cc8249adc428c5f44c9063b9734b4"
          ],
          "data": "0x0000000000000000000000000000000000000000000000001e4c32e4456d39cc",
          "blockHash": "0x9e8516d7e8a4d5fe1fefc0c4e433122d928bcd64c10fc0619f112ea963b5aa6c",
          "blockNumber": "0x72554c",
          "transactionHash": "0x78a3ddd9f0bf8810fe924af1ae3b0b6d6398254390cc4632a086c240e0b1d81c",
          "transactionIndex": "0x5e",
          "logIndex": "0xd4",
          "removed": false
        },
        {
          "address": "0x270e88f8683660553e8ba4eb2ad7c91a1710d769",
          "topics": [
            "0x4afcb4a87cdbd9974efdb92ee48bc8d7cd0ae4bf217004db3d080cbaee652ca7"
          ],
          "data": "0x000000000000000000000000000000000000000000000000000000006786f1980000000000000000000000000000000000000000000000000004e322226edac20000000000000000000000000000000000000000000000000de0b6b3a7640000",
          "blockHash": "0x9e8516d7e8a4d5fe1fefc0c4e433122d928bcd64c10fc0619f112ea963b5aa6c",
          "blockNumber": "0x72554c",
          "transactionHash": "0x78a3ddd9f0bf8810fe924af1ae3b0b6d6398254390cc4632a086c240e0b1d81c",
          "transactionIndex": "0x5e",
          "logIndex": "0xd5",
          "removed": false
        }
      ],
      "logsBloom": "0x00000000000000000000000000000000000000000000000000000000000000000000000000000000000000000000000020000000000000004000000000000000000000000000000000000008000000000000000000000000000000000000000000000000020000000000000000000800020000000000000000000010000000000000000000010000000000000000000000000000000000000000010000000000000000000000000000000000000000004000000000000000000000000000000000000002000000800000000000000000000000000000080000008000000020000000000000000000000000000000000000000000000000000000000000000000",
      "type": "0x2",
      "transactionHash": "0x78a3ddd9f0bf8810fe924af1ae3b0b6d6398254390cc4632a086c240e0b1d81c",
      "transactionIndex": "0x5e",
      "blockHash": "0x9e8516d7e8a4d5fe1fefc0c4e433122d928bcd64c10fc0619f112ea963b5aa6c",
      "blockNumber": "0x72554c",
      "gasUsed": "0x13af8",
      "effectiveGasPrice": "0x84ba18d4",
      "from": "0xc77f7fed3b5cc8249adc428c5f44c9063b9734b4",
      "to": "0x270e88f8683660553e8ba4eb2ad7c91a1710d769",
      "contractAddress": null
    }
  ],
  "libraries": [],
  "pending": [],
  "returns": {},
  "timestamp": 1736896921,
  "chain": 11155111,
  "commit": "51a374b"
}