{
  "transactions": [
    {
      "hash": "0xfedeaeb8b3861ac46e11660258766a1ce6113f3bff8058b8752a8bc515e505b2",
      "transactionType": "CALL",
      "contractName": null,
      "contractAddress": "0x5eb9cc76c3506942c1c0ead70e877dd5e4f00cb0",
      "function": "buy(address)",
      "arguments": [
        "0xC77f7fed3b5Cc8249aDc428c5F44C9063B9734b4"
      ],
      "transaction": {
        "from": "0xc77f7fed3b5cc8249adc428c5f44c9063b9734b4",
        "to": "0x5eb9cc76c3506942c1c0ead70e877dd5e4f00cb0",
        "gas": "0x156c8",
        "value": "0xde0b6b3a7640000",
        "input": "0xf088d547000000000000000000000000c77f7fed3b5cc8249adc428c5f44c9063b9734b4",
        "nonce": "0x1ba",
        "chainId": "0xaa36a7"
      },
      "additionalContracts": [],
      "isFixedGasLimit": false
    }
  ],
  "receipts": [
    {
      "status": "0x1",
      "cumulativeGasUsed": "0xad4575",
      "logs": [
        {
          "address": "0x5eb9cc76c3506942c1c0ead70e877dd5e4f00cb0",
          "topics": [
            "0xddf252ad1be2c89b69c2b068fc378daa952ba7f163c4a11628f55a4df523b3ef",
            "0x0000000000000000000000000000000000000000000000000000000000000000",
            "0x000000000000000000000000c77f7fed3b5cc8249adc428c5f44c9063b9734b4"
          ],
          "data": "0x000000000000000000000000000000000000000000000035a36e7fc42788de4d",
          "blockHash": "0xcc96a617a119cfc1b7203f45f94156d036d14b504568ab0ec7c2622849994a59",
          "blockNumber": "0x723ca5",
          "transactionHash": "0xfedeaeb8b3861ac46e11660258766a1ce6113f3bff8058b8752a8bc515e505b2",
          "transactionIndex": "0x5d",
          "logIndex": "0x90",
          "removed": false
        },
        {
          "address": "0x5eb9cc76c3506942c1c0ead70e877dd5e4f00cb0",
          "topics": [
            "0xddf252ad1be2c89b69c2b068fc378daa952ba7f163c4a11628f55a4df523b3ef",
            "0x0000000000000000000000000000000000000000000000000000000000000000",
            "0x000000000000000000000000c77f7fed3b5cc8249adc428c5f44c9063b9734b4"
          ],
          "data": "0x00000000000000000000000000000000000000000000000029a6eccfa66a29e0",
          "blockHash": "0xcc96a617a119cfc1b7203f45f94156d036d14b504568ab0ec7c2622849994a59",
          "blockNumber": "0x723ca5",
          "transactionHash": "0xfedeaeb8b3861ac46e11660258766a1ce6113f3bff8058b8752a8bc515e505b2",
          "transactionIndex": "0x5d",
          "logIndex": "0x91",
          "removed": false
        },
        {
          "address": "0x5eb9cc76c3506942c1c0ead70e877dd5e4f00cb0",
          "topics": [
            "0x4afcb4a87cdbd9974efdb92ee48bc8d7cd0ae4bf217004db3d080cbaee652ca7"
          ],
          "data": "0x000000000000000000000000000000000000000000000000000000006785c91000000000000000000000000000000000000000000000000000038dff2b28216a0000000000000000000000000000000000000000000000000de0b6b3a7640000",
          "blockHash": "0xcc96a617a119cfc1b7203f45f94156d036d14b504568ab0ec7c2622849994a59",
          "blockNumber": "0x723ca5",
          "transactionHash": "0xfedeaeb8b3861ac46e11660258766a1ce6113f3bff8058b8752a8bc515e505b2",
          "transactionIndex": "0x5d",
          "logIndex": "0x92",
          "removed": false
        }
      ],
      "logsBloom": "0x00000000000000000000000000000000000000000000000000000000000000000000000000000000000000000000000000000000000000004000000000000000000000000000000000000008000000000000000000000000000000000000000000000000020000000000000004000800020000000000000000000010000000000000000000000000000000000000000000000000000000000000010000000000000000000000000000000000000000004000000000000000000000000000020000000002000000800000008000000000000000000000080000000000000020000000000000000000000000000000000000000000000000000000000000000000",
      "type": "0x2",
      "transactionHash": "0xfedeaeb8b3861ac46e11660258766a1ce6113f3bff8058b8752a8bc515e505b2",
      "transactionIndex": "0x5d",
      "blockHash": "0xcc96a617a119cfc1b7203f45f94156d036d14b504568ab0ec7c2622849994a59",
      "blockNumber": "0x723ca5",
      "gasUsed": "0xf82c",
      "effectiveGasPrice": "0x1ad53b801",
      "from": "0xc77f7fed3b5cc8249adc428c5f44c9063b9734b4",
      "to": "0x5eb9cc76c3506942c1c0ead70e877dd5e4f00cb0",
      "contractAddress": null
    }
  ],
  "libraries": [],
  "pending": [],
  "returns": {},
  "timestamp": 1736821010,
  "chain": 11155111,
  "commit": "51a374b"
}