{
  "transactions": [
    {
      "hash": "0x0534143038c1bbe8b6cc6296d37e8cb30b0106913d5e3d9bccb49ae40c7a2c2e",
      "transactionType": "CALL",
      "contractName": null,
      "contractAddress": "0x8aafd3ede9adb0ff97c7aebce82a919afb1c8764",
      "function": "sell(uint256)",
      "arguments": [
        "182809758"
      ],
      "transaction": {
        "from": "0xc77f7fed3b5cc8249adc428c5f44c9063b9734b4",
        "to": "0x8aafd3ede9adb0ff97c7aebce82a919afb1c8764",
        "gas": "0x14e6c",
        "value": "0x0",
        "input": "0xe4849b32000000000000000000000000000000000000000000000000000000000ae5749e",
        "nonce": "0x1123",
        "chainId": "0xaa36a7"
      },
      "additionalContracts": [],
      "isFixedGasLimit": false
    }
  ],
  "receipts": [
    {
      "status": "0x1",
      "cumulativeGasUsed": "0xc7fdea",
      "logs": [
        {
          "address": "0x8aafd3ede9adb0ff97c7aebce82a919afb1c8764",
          "topics": [
            "0xddf252ad1be2c89b69c2b068fc378daa952ba7f163c4a11628f55a4df523b3ef",
            "0x000000000000000000000000c77f7fed3b5cc8249adc428c5f44c9063b9734b4",
            "0x0000000000000000000000000000000000000000000000000000000000000000"
          ],
          "data": "0x000000000000000000000000000000000000000000000000000000000acf23d0",
          "blockHash": "0x4e1fc8d530571e17b6efd54c81c739d369f4e5546714e8b1986f557f0a5c5d9f",
          "blockNumber": "0x7317d8",
          "transactionHash": "0x0534143038c1bbe8b6cc6296d37e8cb30b0106913d5e3d9bccb49ae40c7a2c2e",
          "transactionIndex": "0x90",
          "logIndex": "0xa0",
          "removed": false
        },
        {
          "address": "0x8aafd3ede9adb0ff97c7aebce82a919afb1c8764",
          "topics": [
            "0xddf252ad1be2c89b69c2b068fc378daa952ba7f163c4a11628f55a4df523b3ef",
            "0x000000000000000000000000c77f7fed3b5cc8249adc428c5f44c9063b9734b4",
            "0x000000000000000000000000c77f7fed3b5cc8249adc428c5f44c9063b9734b4"
          ],
          "data": "0x00000000000000000000000000000000000000000000000000000000001650ce",
          "blockHash": "0x4e1fc8d530571e17b6efd54c81c739d369f4e5546714e8b1986f557f0a5c5d9f",
          "blockNumber": "0x7317d8",
          "transactionHash": "0x0534143038c1bbe8b6cc6296d37e8cb30b0106913d5e3d9bccb49ae40c7a2c2e",
          "transactionIndex": "0x90",
          "logIndex": "0xa1",
          "removed": false
        },
        {
          "address": "0x8aafd3ede9adb0ff97c7aebce82a919afb1c8764",
          "topics": [
            "0x4afcb4a87cdbd9974efdb92ee48bc8d7cd0ae4bf217004db3d080cbaee652ca7"
          ],
          "data": "0x0000000000000000000000000000000000000000000000000000000067901ae400000000000000000000000000000000000000000000000000051084492f9cb6000000000000000000000000000000000000000000000000000000000003f9f9",
          "blockHash": "0x4e1fc8d530571e17b6efd54c81c739d369f4e5546714e8b1986f557f0a5c5d9f",
          "blockNumber": "0x7317d8",
          "transactionHash": "0x0534143038c1bbe8b6cc6296d37e8cb30b0106913d5e3d9bccb49ae40c7a2c2e",
          "transactionIndex": "0x90",
          "logIndex": "0xa2",
          "removed": false
        }
      ],
      "logsBloom": "0x00000000000000000000000000000000000000000600000000000000000000000000000000000000000000000000000000000000000000004000000000000000000000000000004000000008000000000000000000000000000000000000000000000000020000000000000000000800020000000000000000000010000000000000000000000000000000000000000000000000000000000000010000000000000000000000000000000000000000004000000000000000000000000000000000000002000000800000000000000000000000000000080000000000000020000000000000000000000000000000000000000000000000000000000000000000",
      "type": "0x2",
      "transactionHash": "0x0534143038c1bbe8b6cc6296d37e8cb30b0106913d5e3d9bccb49ae40c7a2c2e",
      "transactionIndex": "0x90",
      "blockHash": "0x4e1fc8d530571e17b6efd54c81c739d369f4e5546714e8b1986f557f0a5c5d9f",
      "blockNumber": "0x7317d8",
      "gasUsed": "0xf21f",
      "effectiveGasPrice": "0x48ddff47",
      "from": "0xc77f7fed3b5cc8249adc428c5f44c9063b9734b4",
      "to": "0x8aafd3ede9adb0ff97c7aebce82a919afb1c8764",
      "contractAddress": null
    }
  ],
  "libraries": [],
  "pending": [],
  "returns": {},
  "timestamp": 1737497318,
  "chain": 11155111,
  "commit": "1d2fb70"
}