{
  "transactions": [
    {
      "hash": "0x47f225209a2e0f73999b12552c001dbbec532b3e93f9e856c1e0ac461547570a",
      "transactionType": "CALL",
      "contractName": null,
      "contractAddress": "0x8aafd3ede9adb0ff97c7aebce82a919afb1c8764",
      "function": "sell(uint256)",
      "arguments": [
        "3032625613592"
      ],
      "transaction": {
        "from": "0xc77f7fed3b5cc8249adc428c5f44c9063b9734b4",
        "to": "0x8aafd3ede9adb0ff97c7aebce82a919afb1c8764",
        "gas": "0x15daa",
        "value": "0x0",
        "input": "0xe4849b32000000000000000000000000000000000000000000000000000002c216928b18",
        "nonce": "0xfbb",
        "chainId": "0xaa36a7"
      },
      "additionalContracts": [],
      "isFixedGasLimit": false
    }
  ],
  "receipts": [
    {
      "status": "0x1",
      "cumulativeGasUsed": "0xb56887",
      "logs": [
        {
          "address": "0x8aafd3ede9adb0ff97c7aebce82a919afb1c8764",
          "topics": [
            "0xddf252ad1be2c89b69c2b068fc378daa952ba7f163c4a11628f55a4df523b3ef",
            "0x000000000000000000000000c77f7fed3b5cc8249adc428c5f44c9063b9734b4",
            "0x0000000000000000000000000000000000000000000000000000000000000000"
          ],
          "data": "0x000000000000000000000000000000000000000000000000000002bc7080fcac",
          "blockHash": "0x1699ae80fbf9f257f246e363c41a9b296621afdf609b286452fb8bb5dec485a3",
          "blockNumber": "0x731627",
          "transactionHash": "0x47f225209a2e0f73999b12552c001dbbec532b3e93f9e856c1e0ac461547570a",
          "transactionIndex": "0x82",
          "logIndex": "0xb4",
          "removed": false
        },
        {
          "address": "0x8aafd3ede9adb0ff97c7aebce82a919afb1c8764",
          "topics": [
            "0xddf252ad1be2c89b69c2b068fc378daa952ba7f163c4a11628f55a4df523b3ef",
            "0x000000000000000000000000c77f7fed3b5cc8249adc428c5f44c9063b9734b4",
            "0x000000000000000000000000c77f7fed3b5cc8249adc428c5f44c9063b9734b4"
          ],
          "data": "0x00000000000000000000000000000000000000000000000000000005a6118e6c",
          "blockHash": "0x1699ae80fbf9f257f246e363c41a9b296621afdf609b286452fb8bb5dec485a3",
          "blockNumber": "0x731627",
          "transactionHash": "0x47f225209a2e0f73999b12552c001dbbec532b3e93f9e856c1e0ac461547570a",
          "transactionIndex": "0x82",
          "logIndex": "0xb5",
          "removed": false
        },
        {
          "address": "0x8aafd3ede9adb0ff97c7aebce82a919afb1c8764",
          "topics": [
            "0x4afcb4a87cdbd9974efdb92ee48bc8d7cd0ae4bf217004db3d080cbaee652ca7"
          ],
          "data": "0x00000000000000000000000000000000000000000000000000000000679006800000000000000000000000000000000000000000000000000004c42316747eb500000000000000000000000000000000000000000000000000000000f27f5f2e",
          "blockHash": "0x1699ae80fbf9f257f246e363c41a9b296621afdf609b286452fb8bb5dec485a3",
          "blockNumber": "0x731627",
          "transactionHash": "0x47f225209a2e0f73999b12552c001dbbec532b3e93f9e856c1e0ac461547570a",
          "transactionIndex": "0x82",
          "logIndex": "0xb6",
          "removed": false
        }
      ],
      "logsBloom": "0x00000000000000000000000000000000000000000600000000000000000000000000000000000000000000000000000000000000000000004000000000000000000000000000004000000008000000000000000000000000000000000000000000000000020000000000000000000800020000000000000000000010000000000000000000000000000000000000000000000000000000000000010000000000000000000000000000000000000000004000000000000000000000000000000000000002000000800000000000000000000000000000080000000000000020000000000000000000000000000000000000000000000000000000000000000000",
      "type": "0x2",
      "transactionHash": "0x47f225209a2e0f73999b12552c001dbbec532b3e93f9e856c1e0ac461547570a",
      "transactionIndex": "0x82",
      "blockHash": "0x1699ae80fbf9f257f246e363c41a9b296621afdf609b286452fb8bb5dec485a3",
      "blockNumber": "0x731627",
      "gasUsed": "0xfd27",
      "effectiveGasPrice": "0x6d5d8fe6",
      "from": "0xc77f7fed3b5cc8249adc428c5f44c9063b9734b4",
      "to": "0x8aafd3ede9adb0ff97c7aebce82a919afb1c8764",
      "contractAddress": null
    }
  ],
  "libraries": [],
  "pending": [],
  "returns": {},
  "timestamp": 1737492098,
  "chain": 11155111,
  "commit": "1d2fb70"
}