{
  "transactions": [
    {
      "hash": "0xd63b4c7ab184ab3dbc375ce05ba05dea9f01b3553563c95b23e9de6b59624b59",
      "transactionType": "CALL",
      "contractName": null,
      "contractAddress": "0xd7bc75898e513accccf720a874d44dab5a4b6223",
      "function": "buy(address)",
      "arguments": [
        "0xC77f7fed3b5Cc8249aDc428c5F44C9063B9734b4"
      ],
      "transaction": {
        "from": "0xc77f7fed3b5cc8249adc428c5f44c9063b9734b4",
        "to": "0xd7bc75898e513accccf720a874d44dab5a4b6223",
        "gas": "0x1b30c",
        "value": "0x2386f26fc10000",
        "input": "0xf088d547000000000000000000000000c77f7fed3b5cc8249adc428c5f44c9063b9734b4",
        "nonce": "0x11c",
        "chainId": "0xaa36a7"
      },
      "additionalContracts": [],
      "isFixedGasLimit": false
    }
  ],
  "receipts": [
    {
      "status": "0x1",
      "cumulativeGasUsed": "0x9d64f2",
      "logs": [
        {
          "address": "0xd7bc75898e513accccf720a874d44dab5a4b6223",
          "topics": [
            "0xddf252ad1be2c89b69c2b068fc378daa952ba7f163c4a11628f55a4df523b3ef",
            "0x0000000000000000000000000000000000000000000000000000000000000000",
            "0x000000000000000000000000c77f7fed3b5cc8249adc428c5f44c9063b9734b4"
          ],
          "data": "0x0000000000000000000000000000000000000000000000008963ba0c762852a5",
          "blockHash": "0xeb29971a41458267ada38ed52cf8b86c94a6194458c38cf4e2bbfc9dd0d29c52",
          "blockNumber": "0x7239b3",
          "transactionHash": "0xd63b4c7ab184ab3dbc375ce05ba05dea9f01b3553563c95b23e9de6b59624b59",
          "transactionIndex": "0x36",
          "logIndex": "0x5c",
          "removed": false
        },
        {
          "address": "0xd7bc75898e513accccf720a874d44dab5a4b6223",
          "topics": [
            "0xddf252ad1be2c89b69c2b068fc378daa952ba7f163c4a11628f55a4df523b3ef",
            "0x0000000000000000000000000000000000000000000000000000000000000000",
            "0x000000000000000000000000c77f7fed3b5cc8249adc428c5f44c9063b9734b4"
          ],
          "data": "0x000000000000000000000000000000000000000000000000006ab00ba79db84c",
          "blockHash": "0xeb29971a41458267ada38ed52cf8b86c94a6194458c38cf4e2bbfc9dd0d29c52",
          "blockNumber": "0x7239b3",
          "transactionHash": "0xd63b4c7ab184ab3dbc375ce05ba05dea9f01b3553563c95b23e9de6b59624b59",
          "transactionIndex": "0x36",
          "logIndex": "0x5d",
          "removed": false
        },
        {
          "address": "0xd7bc75898e513accccf720a874d44dab5a4b6223",
          "topics": [
            "0x4afcb4a87cdbd9974efdb92ee48bc8d7cd0ae4bf217004db3d080cbaee652ca7"
          ],
          "data": "0x000000000000000000000000000000000000000000000000000000006785a5b800000000000000000000000000000000000000000000000000038d7f8fd7575a000000000000000000000000000000000000000000000000002386f26fc10000",
          "blockHash": "0xeb29971a41458267ada38ed52cf8b86c94a6194458c38cf4e2bbfc9dd0d29c52",
          "blockNumber": "0x7239b3",
          "transactionHash": "0xd63b4c7ab184ab3dbc375ce05ba05dea9f01b3553563c95b23e9de6b59624b59",
          "transactionIndex": "0x36",
          "logIndex": "0x5e",
          "removed": false
        }
      ],
      "logsBloom": "0x00000000000000000000000000000000000000000000000000000000000000000000000000000000000000000000000000000000000000004000000000000000000000000000000000000008000000000000000000000000000000000000000000000000020000000000000000000800020000000000000000000010000000000000000000000000000000000000000000000000000000000000010000000000000000000000000000000000000000004000001000000000000000000000000000000002000000800000000000004000000000000000080000000000000020000000000000000000000000000000000000000000080000000000000000000000",
      "type": "0x2",
      "transactionHash": "0xd63b4c7ab184ab3dbc375ce05ba05dea9f01b3553563c95b23e9de6b59624b59",
      "transactionIndex": "0x36",
      "blockHash": "0xeb29971a41458267ada38ed52cf8b86c94a6194458c38cf4e2bbfc9dd0d29c52",
      "blockNumber": "0x7239b3",
      "gasUsed": "0x13af8",
      "effectiveGasPrice": "0x1a5ba7131",
      "from": "0xc77f7fed3b5cc8249adc428c5f44c9063b9734b4",
      "to": "0xd7bc75898e513accccf720a874d44dab5a4b6223",
      "contractAddress": null
    }
  ],
  "libraries": [],
  "pending": [],
  "returns": {},
  "timestamp": 1736811961,
  "chain": 11155111,
  "commit": "51a374b"
}