{
  "transactions": [
    {
      "hash": "0xf6ceea830cc4f4017e0a141b330fc0d8fc463c640617aecee272fdbe54848253",
      "transactionType": "CALL",
      "contractName": null,
      "contractAddress": "0x8aafd3ede9adb0ff97c7aebce82a919afb1c8764",
      "function": "sell(uint256)",
      "arguments": [
        "3030995986410"
      ],
      "transaction": {
        "from": "0xc77f7fed3b5cc8249adc428c5f44c9063b9734b4",
        "to": "0x8aafd3ede9adb0ff97c7aebce82a919afb1c8764",
        "gas": "0x15daa",
        "value": "0x0",
        "input": "0xe4849b32000000000000000000000000000000000000000000000000000002c1b57067ea",
        "nonce": "0xfcf",
        "chainId": "0xaa36a7"
      },
      "additionalContracts": [],
      "isFixedGasLimit": false
    }
  ],
  "receipts": [
    {
      "status": "0x1",
      "cumulativeGasUsed": "0x9bb16b",
      "logs": [
        {
          "address": "0x8aafd3ede9adb0ff97c7aebce82a919afb1c8764",
          "topics": [
            "0xddf252ad1be2c89b69c2b068fc378daa952ba7f163c4a11628f55a4df523b3ef",
            "0x000000000000000000000000c77f7fed3b5cc8249adc428c5f44c9063b9734b4",
            "0x0000000000000000000000000000000000000000000000000000000000000000"
          ],
          "data": "0x000000000000000000000000000000000000000000000000000002bc1025c757",
          "blockHash": "0x8c572efccf593f185ccd8a97e7424f387b3777a5db4c303deb02a964bc7ad952",
          "blockNumber": "0x73163c",
          "transactionHash": "0xf6ceea830cc4f4017e0a141b330fc0d8fc463c640617aecee272fdbe54848253",
          "transactionIndex": "0x7b",
          "logIndex": "0x95",
          "removed": false
        },
        {
          "address": "0x8aafd3ede9adb0ff97c7aebce82a919afb1c8764",
          "topics": [
            "0xddf252ad1be2c89b69c2b068fc378daa952ba7f163c4a11628f55a4df523b3ef",
            "0x000000000000000000000000c77f7fed3b5cc8249adc428c5f44c9063b9734b4",
            "0x000000000000000000000000c77f7fed3b5cc8249adc428c5f44c9063b9734b4"
          ],
          "data": "0x00000000000000000000000000000000000000000000000000000005a54aa093",
          "blockHash": "0x8c572efccf593f185ccd8a97e7424f387b3777a5db4c303deb02a964bc7ad952",
          "blockNumber": "0x73163c",
          "transactionHash": "0xf6ceea830cc4f4017e0a141b330fc0d8fc463c640617aecee272fdbe54848253",
          "transactionIndex": "0x7b",
          "logIndex": "0x96",
          "removed": false
        },
        {
          "address": "0x8aafd3ede9adb0ff97c7aebce82a919afb1c8764",
          "topics": [
            "0x4afcb4a87cdbd9974efdb92ee48bc8d7cd0ae4bf217004db3d080cbaee652ca7"
          ],
          "data": "0x000000000000000000000000000000000000000000000000000000006790077c0000000000000000000000000000000000000000000000000004c4cafb504bfa00000000000000000000000000000000000000000000000000000000f27f5ce5",
          "blockHash": "0x8c572efccf593f185ccd8a97e7424f387b3777a5db4c303deb02a964bc7ad952",
          "blockNumber": "0x73163c",
          "transactionHash": "0xf6ceea830cc4f4017e0a141b330fc0d8fc463c640617aecee272fdbe54848253",
          "transactionIndex": "0x7b",
          "logIndex": "0x97",
          "removed": false
        }
      ],
      "logsBloom": "0x00000000000000000000000000000000000000000600000000000000000000000000000000000000000000000000000000000000000000004000000000000000000000000000004000000008000000000000000000000000000000000000000000000000020000000000000000000800020000000000000000000010000000000000000000000000000000000000000000000000000000000000010000000000000000000000000000000000000000004000000000000000000000000000000000000002000000800000000000000000000000000000080000000000000020000000000000000000000000000000000000000000000000000000000000000000",
      "type": "0x2",
      "transactionHash": "0xf6ceea830cc4f4017e0a141b330fc0d8fc463c640617aecee272fdbe54848253",
      "transactionIndex": "0x7b",
      "blockHash": "0x8c572efccf593f185ccd8a97e7424f387b3777a5db4c303deb02a964bc7ad952",
      "blockNumber": "0x73163c",
      "gasUsed": "0xfd27",
      "effectiveGasPrice": "0x5d291604",
      "from": "0xc77f7fed3b5cc8249adc428c5f44c9063b9734b4",
      "to": "0x8aafd3ede9adb0ff97c7aebce82a919afb1c8764",
      "contractAddress": null
    }
  ],
  "libraries": [],
  "pending": [],
  "returns": {},
  "timestamp": 1737492350,
  "chain": 11155111,
  "commit": "1d2fb70"
}