{
  "transactions": [
    {
      "hash": "0x8d110f5f712155b590274c8e171b3b0ad5eaf697d0a12bc6bd986b18985ca631",
      "transactionType": "CALL",
      "contractName": null,
      "contractAddress": "0xbf4a322f1496e5c3d34a9bcdb4c60567b38c7de2",
      "function": "sell(uint256)",
      "arguments": [
        "984978840037796355223"
      ],
      "transaction": {
        "from": "0xc77f7fed3b5cc8249adc428c5f44c9063b9734b4",
        "to": "0xbf4a322f1496e5c3d34a9bcdb4c60567b38c7de2",
        "gas": "0x16fea",
        "value": "0x0",
        "input": "0xe4849b320000000000000000000000000000000000000000000000356553cc5f71281c97",
        "nonce": "0xaa7",
        "chainId": "0xaa36a7"
      },
      "additionalContracts": [],
      "isFixedGasLimit": false
    }
  ],
  "receipts": [
    {
      "status": "0x1",
      "cumulativeGasUsed": "0xbab002",
      "logs": [
        {
          "address": "0xbf4a322f1496e5c3d34a9bcdb4c60567b38c7de2",
          "topics": [
            "0xddf252ad1be2c89b69c2b068fc378daa952ba7f163c4a11628f55a4df523b3ef",
            "0x000000000000000000000000c77f7fed3b5cc8249adc428c5f44c9063b9734b4",
            "0x0000000000000000000000000000000000000000000000000000000000000000"
          ],
          "data": "0x0000000000000000000000000000000000000000000000356553cc5f71281c97",
          "blockHash": "0x8156ffae379cae5c8ad043882402b4bf65b60b845ec357029085405cf2497ee2",
          "blockNumber": "0x725a90",
          "transactionHash": "0x8d110f5f712155b590274c8e171b3b0ad5eaf697d0a12bc6bd986b18985ca631",
          "transactionIndex": "0x55",
          "logIndex": "0x8a",
          "removed": false
        },
        {
          "address": "0xbf4a322f1496e5c3d34a9bcdb4c60567b38c7de2",
          "topics": [
            "0x4afcb4a87cdbd9974efdb92ee48bc8d7cd0ae4bf217004db3d080cbaee652ca7"
          ],
          "data": "0x0000000000000000000000000000000000000000000000000000000067873110000000000000000000000000000000000000000000000000000394eddee70b680000000000000000000000000000000000000000000000000dc7e3eda46724d4",
          "blockHash": "0x8156ffae379cae5c8ad043882402b4bf65b60b845ec357029085405cf2497ee2",
          "blockNumber": "0x725a90",
          "transactionHash": "0x8d110f5f712155b590274c8e171b3b0ad5eaf697d0a12bc6bd986b18985ca631",
          "transactionIndex": "0x55",
          "logIndex": "0x8b",
          "removed": false
        }
      ],
      "logsBloom": "0x00000000000000000000000000000000000000000000000000000000000000000000000000000000000000000000000000000000000000004000000000000000000000000000000000000008000000000000001000000000000000000000000000000000020000000000000000000800020000000000000000000010000000000000000000000000000000000000000000000000000008000000010000000000000000000000000000000000000000004000000000000000000000000000000000000002000000800000000000001000000000000000080000000000000020000000000000000000000000000000000000000000000000000000000000000000",
      "type": "0x2",
      "transactionHash": "0x8d110f5f712155b590274c8e171b3b0ad5eaf697d0a12bc6bd986b18985ca631",
      "transactionIndex": "0x55",
      "blockHash": "0x8156ffae379cae5c8ad043882402b4bf65b60b845ec357029085405cf2497ee2",
      "blockNumber": "0x725a90",
      "gasUsed": "0xfb91",
      "effectiveGasPrice": "0x1ab771d0a",
      "from": "0xc77f7fed3b5cc8249adc428c5f44c9063b9734b4",
      "to": "0xbf4a322f1496e5c3d34a9bcdb4c60567b38c7de2",
      "contractAddress": null
    }
  ],
  "libraries": [],
  "pending": [],
  "returns": {},
  "timestamp": 1736913168,
  "chain": 11155111,
  "commit": "51a374b"
}