{
  "transactions": [
    {
      "hash": "0xda8a79d76a2dbcf38f6b05a9b147a5f2cf21e05dd3161988652d020105cb35cb",
      "transactionType": "CALL",
      "contractName": null,
      "contractAddress": "0xd7bc75898e513accccf720a874d44dab5a4b6223",
      "function": "sell(uint256)",
      "arguments": [
        "9929991393993859863"
      ],
      "transaction": {
        "from": "0xc77f7fed3b5cc8249adc428c5f44c9063b9734b4",
        "to": "0xd7bc75898e513accccf720a874d44dab5a4b6223",
        "gas": "0x15b6b",
        "value": "0x0",
        "input": "0xe4849b3200000000000000000000000000000000000000000000000089ce6a8fbdb0a317",
        "nonce": "0xfd",
        "chainId": "0xaa36a7"
      },
      "additionalContracts": [],
      "isFixedGasLimit": false
    }
  ],
  "receipts": [
    {
      "status": "0x1",
      "cumulativeGasUsed": "0x1ff0163",
      "logs": [
        {
          "address": "0xd7bc75898e513accccf720a874d44dab5a4b6223",
          "topics": [
            "0xddf252ad1be2c89b69c2b068fc378daa952ba7f163c4a11628f55a4df523b3ef",
            "0x000000000000000000000000c77f7fed3b5cc8249adc428c5f44c9063b9734b4",
            "0x0000000000000000000000000000000000000000000000000000000000000000"
          ],
          "data": "0x00000000000000000000000000000000000000000000000089ce6a8fbdb0a317",
          "blockHash": "0xf87ce11c991194ba1c8650005ef981cf461a597e61b038a3f3dac3fc29a5189c",
          "blockNumber": "0x72398f",
          "transactionHash": "0xda8a79d76a2dbcf38f6b05a9b147a5f2cf21e05dd3161988652d020105cb35cb",
          "transactionIndex": "0x18",
          "logIndex": "0x333",
          "removed": false
        },
        {
          "address": "0xd7bc75898e513accccf720a874d44dab5a4b6223",
          "topics": [
            "0x4afcb4a87cdbd9974efdb92ee48bc8d7cd0ae4bf217004db3d080cbaee652ca7"
          ],
          "data": "0x000000000000000000000000000000000000000000000000000000006785a40800000000000000000000000000000000000000000000000000038d7f8ce164fb0000000000000000000000000000000000000000000000000023474f493d2797",
          "blockHash": "0xf87ce11c991194ba1c8650005ef981cf461a597e61b038a3f3dac3fc29a5189c",
          "blockNumber": "0x72398f",
          "transactionHash": "0xda8a79d76a2dbcf38f6b05a9b147a5f2cf21e05dd3161988652d020105cb35cb",
          "transactionIndex": "0x18",
          "logIndex": "0x334",
          "removed": false
        }
      ],
      "logsBloom": "0x00000000000000000000000000000000000000000000000000000000000000000000000000000000000000000000000000000000000000004000000000000000000000000000000000000008000000000000000000000000000000000000000000000000020000000000000000000800020000000000000000000010000000000000000000000000000000000000000000000000000000000000010000000000000000000000000000000000000000004000001000000000000000000000000000000002000000800000000000004000000000000000080000000000000020000000000000000000000000000000000000000000080000000000000000000000",
      "type": "0x2",
      "transactionHash": "0xda8a79d76a2dbcf38f6b05a9b147a5f2cf21e05dd3161988652d020105cb35cb",
      "transactionIndex": "0x18",
      "blockHash": "0xf87ce11c991194ba1c8650005ef981cf461a597e61b038a3f3dac3fc29a5189c",
      "blockNumber": "0x72398f",
      "gasUsed": "0xfb87",
      "effectiveGasPrice": "0x219f3c2e4",
      "from": "0xc77f7fed3b5cc8249adc428c5f44c9063b9734b4",
      "to": "0xd7bc75898e513accccf720a874d44dab5a4b6223",
      "contractAddress": null
    }
  ],
  "libraries": [],
  "pending": [],
  "returns": {},
  "timestamp": 1736811529,
  "chain": 11155111,
  "commit": "51a374b"
}