{
  "transactions": [
    {
      "hash": "0x3d9063653e069889d9f8a4837435754f25e3b9ffbdc0ce2001ddceeb542fad8c",
      "transactionType": "CALL",
      "contractName": null,
      "contractAddress": "0x8aafd3ede9adb0ff97c7aebce82a919afb1c8764",
      "function": "sell(uint256)",
      "arguments": [
        "331407"
      ],
      "transaction": {
        "from": "0xc77f7fed3b5cc8249adc428c5f44c9063b9734b4",
        "to": "0x8aafd3ede9adb0ff97c7aebce82a919afb1c8764",
        "gas": "0x16208",
        "value": "0x0",
        "input": "0xe4849b320000000000000000000000000000000000000000000000000000000000050e8f",
        "nonce": "0x16d1",
        "chainId": "0xaa36a7"
      },
      "additionalContracts": [],
      "isFixedGasLimit": false
    }
  ],
  "receipts": [
    {
      "status": "0x1",
      "cumulativeGasUsed": "0xbd7831",
      "logs": [
        {
          "address": "0x8aafd3ede9adb0ff97c7aebce82a919afb1c8764",
          "topics": [
            "0xddf252ad1be2c89b69c2b068fc378daa952ba7f163c4a11628f55a4df523b3ef",
            "0x000000000000000000000000c77f7fed3b5cc8249adc428c5f44c9063b9734b4",
            "0x0000000000000000000000000000000000000000000000000000000000000000"
          ],
          "data": "0x0000000000000000000000000000000000000000000000000000000000050434",
          "blockHash": "0x3e3a494113fffebf47d15676f7dd9d256ae9e6d700fb25a0a760d65414d78f3a",
          "blockNumber": "0x731e8c",
          "transactionHash": "0x3d9063653e069889d9f8a4837435754f25e3b9ffbdc0ce2001ddceeb542fad8c",
          "transactionIndex": "0x69",
          "logIndex": "0xd9",
          "removed": false
        },
        {
          "address": "0x8aafd3ede9adb0ff97c7aebce82a919afb1c8764",
          "topics": [
            "0xddf252ad1be2c89b69c2b068fc378daa952ba7f163c4a11628f55a4df523b3ef",
            "0x000000000000000000000000c77f7fed3b5cc8249adc428c5f44c9063b9734b4",
            "0x000000000000000000000000c77f7fed3b5cc8249adc428c5f44c9063b9734b4"
          ],
          "data": "0x0000000000000000000000000000000000000000000000000000000000000a5b",
          "blockHash": "0x3e3a494113fffebf47d15676f7dd9d256ae9e6d700fb25a0a760d65414d78f3a",
          "blockNumber": "0x731e8c",
          "transactionHash": "0x3d9063653e069889d9f8a4837435754f25e3b9ffbdc0ce2001ddceeb542fad8c",
          "transactionIndex": "0x69",
          "logIndex": "0xda",
          "removed": false
        },
        {
          "address": "0x8aafd3ede9adb0ff97c7aebce82a919afb1c8764",
          "topics": [
            "0x4afcb4a87cdbd9974efdb92ee48bc8d7cd0ae4bf217004db3d080cbaee652ca7"
          ],
          "data": "0x0000000000000000000000000000000000000000000000000000000067906b7800000000000000000000000000000000000000000000000000166dec19a797e1000000000000000000000000000000000000000000000000000000000000082c",
          "blockHash": "0x3e3a494113fffebf47d15676f7dd9d256ae9e6d700fb25a0a760d65414d78f3a",
          "blockNumber": "0x731e8c",
          "transactionHash": "0x3d9063653e069889d9f8a4837435754f25e3b9ffbdc0ce2001ddceeb542fad8c",
          "transactionIndex": "0x69",
          "logIndex": "0xdb",
          "removed": false
        }
      ],
      "logsBloom": "0x00000000000000000000000000000000000000000600000000000000000000000000000000000000000000000000000000000000000000004000000000000000000000000000004000000008000000000000000000000000000000000000000000000000020000000000000000000800020000000000000000000010000000000000000000000000000000000000000000000000000000000000010000000000000000000000000000000000000000004000000000000000000000000000000000000002000000800000000000000000000000000000080000000000000020000000000000000000000000000000000000000000000000000000000000000000",
      "type": "0x2",
      "transactionHash": "0x3d9063653e069889d9f8a4837435754f25e3b9ffbdc0ce2001ddceeb542fad8c",
      "transactionIndex": "0x69",
      "blockHash": "0x3e3a494113fffebf47d15676f7dd9d256ae9e6d700fb25a0a760d65414d78f3a",
      "blockNumber": "0x731e8c",
      "gasUsed": "0xf213",
      "effectiveGasPrice": "0x470ef61d",
      "from": "0xc77f7fed3b5cc8249adc428c5f44c9063b9734b4",
      "to": "0x8aafd3ede9adb0ff97c7aebce82a919afb1c8764",
      "contractAddress": null
    }
  ],
  "libraries": [],
  "pending": [],
  "returns": {},
  "timestamp": 1737517944,
  "chain": 11155111,
  "commit": "1d2fb70"
}