{
  "transactions": [
    {
      "hash": "0x8a100dc7ab919059da004dc6e7097cfc1a27a4cbba916d8302e14a6f098b24ad",
      "transactionType": "CALL",
      "contractName": null,
      "contractAddress": "0x8aafd3ede9adb0ff97c7aebce82a919afb1c8764",
      "function": "sell(uint256)",
      "arguments": [
        "47512500989143859"
      ],
      "transaction": {
        "from": "0xc77f7fed3b5cc8249adc428c5f44c9063b9734b4",
        "to": "0x8aafd3ede9adb0ff97c7aebce82a919afb1c8764",
        "gas": "0x1724d",
        "value": "0x0",
        "input": "0xe4849b3200000000000000000000000000000000000000000000000000a8cc5e2fd92b33",
        "nonce": "0xf55",
        "chainId": "0xaa36a7"
      },
      "additionalContracts": [],
      "isFixedGasLimit": false
    }
  ],
  "receipts": [
    {
      "status": "0x1",
      "cumulativeGasUsed": "0xcb63ee",
      "logs": [
        {
          "address": "0x8aafd3ede9adb0ff97c7aebce82a919afb1c8764",
          "topics": [
            "0xddf252ad1be2c89b69c2b068fc378daa952ba7f163c4a11628f55a4df523b3ef",
            "0x000000000000000000000000c77f7fed3b5cc8249adc428c5f44c9063b9734b4",
            "0x0000000000000000000000000000000000000000000000000000000000000000"
          ],
          "data": "0x00000000000000000000000000000000000000000000000000a772ab41e5c475",
          "blockHash": "0x617e41e33a60342938a812db30e80464fe228c635cc30b116fe291867b03960d",
          "blockNumber": "0x7315b0",
          "transactionHash": "0x8a100dc7ab919059da004dc6e7097cfc1a27a4cbba916d8302e14a6f098b24ad",
          "transactionIndex": "0x84",
          "logIndex": "0xdc",
          "removed": false
        },
        {
          "address": "0x8aafd3ede9adb0ff97c7aebce82a919afb1c8764",
          "topics": [
            "0xddf252ad1be2c89b69c2b068fc378daa952ba7f163c4a11628f55a4df523b3ef",
            "0x000000000000000000000000c77f7fed3b5cc8249adc428c5f44c9063b9734b4",
            "0x000000000000000000000000c77f7fed3b5cc8249adc428c5f44c9063b9734b4"
          ],
          "data": "0x000000000000000000000000000000000000000000000000000159b2edf366be",
          "blockHash": "0x617e41e33a60342938a812db30e80464fe228c635cc30b116fe291867b03960d",
          "blockNumber": "0x7315b0",
          "transactionHash": "0x8a100dc7ab919059da004dc6e7097cfc1a27a4cbba916d8302e14a6f098b24ad",
          "transactionIndex": "0x84",
          "logIndex": "0xdd",
          "removed": false
        },
        {
          "address": "0x8aafd3ede9adb0ff97c7aebce82a919afb1c8764",
          "topics": [
            "0x4afcb4a87cdbd9974efdb92ee48bc8d7cd0ae4bf217004db3d080cbaee652ca7"
          ],
          "data": "0x00000000000000000000000000000000000000000000000000000000679000ec0000000000000000000000000000000000000000000000000004c0db9f436087000000000000000000000000000000000000000000000000000039d0e2d907e4",
          "blockHash": "0x617e41e33a60342938a812db30e80464fe228c635cc30b116fe291867b03960d",
          "blockNumber": "0x7315b0",
          "transactionHash": "0x8a100dc7ab919059da004dc6e7097cfc1a27a4cbba916d8302e14a6f098b24ad",
          "transactionIndex": "0x84",
          "logIndex": "0xde",
          "removed": false
        }
      ],
      "logsBloom": "0x00000000000000000000000000000000000000000600000000000000000000000000000000000000000000000000000000000000000000004000000000000000000000000000004000000008000000000000000000000000000000000000000000000000020000000000000000000800020000000000000000000010000000000000000000000000000000000000000000000000000000000000010000000000000000000000000000000000000000004000000000000000000000000000000000000002000000800000000000000000000000000000080000000000000020000000000000000000000000000000000000000000000000000000000000000000",
      "type": "0x2",
      "transactionHash": "0x8a100dc7ab919059da004dc6e7097cfc1a27a4cbba916d8302e14a6f098b24ad",
      "transactionIndex": "0x84",
      "blockHash": "0x617e41e33a60342938a812db30e80464fe228c635cc30b116fe291867b03960d",
      "blockNumber": "0x7315b0",
      "gasUsed": "0xfd33",
      "effectiveGasPrice": "0x75ecae5e",
      "from": "0xc77f7fed3b5cc8249adc428c5f44c9063b9734b4",
      "to": "0x8aafd3ede9adb0ff97c7aebce82a919afb1c8764",
      "contractAddress": null
    }
  ],
  "libraries": [],
  "pending": [],
  "returns": {},
  "timestamp": 1737490669,
  "chain": 11155111,
  "commit": "1d2fb70"
}