{
  "transactions": [
    {
      "hash": "0xa53fb3f403742bd486c704e7db0f557b4b816833b891c72116b03bd088cb4f21",
      "transactionType": "CALL",
      "contractName": null,
      "contractAddress": "0x5eb9cc76c3506942c1c0ead70e877dd5e4f00cb0",
      "function": "sell(uint256)",
      "arguments": [
        "989155775891562593408"
      ],
      "transaction": {
        "from": "0xc77f7fed3b5cc8249adc428c5f44c9063b9734b4",
        "to": "0x5eb9cc76c3506942c1c0ead70e877dd5e4f00cb0",
        "gas": "0x16fec",
        "value": "0x0",
        "input": "0xe4849b320000000000000000000000000000000000000000000000359f4b4166c67c7c80",
        "nonce": "0x2a3",
        "chainId": "0xaa36a7"
      },
      "additionalContracts": [],
      "isFixedGasLimit": false
    }
  ],
  "receipts": [
    {
      "status": "0x1",
      "cumulativeGasUsed": "0xbd2d5c",
      "logs": [
        {
          "address": "0x5eb9cc76c3506942c1c0ead70e877dd5e4f00cb0",
          "topics": [
            "0xddf252ad1be2c89b69c2b068fc378daa952ba7f163c4a11628f55a4df523b3ef",
            "0x000000000000000000000000c77f7fed3b5cc8249adc428c5f44c9063b9734b4",
            "0x0000000000000000000000000000000000000000000000000000000000000000"
          ],
          "data": "0x0000000000000000000000000000000000000000000000359f4b4166c67c7c80",
          "blockHash": "0xceee6971e40c6acddbd25db9c4fc0bbeb97abefef91b2063a9e2faa8feaaf65b",
          "blockNumber": "0x724e79",
          "transactionHash": "0xa53fb3f403742bd486c704e7db0f557b4b816833b891c72116b03bd088cb4f21",
          "transactionIndex": "0x58",
          "logIndex": "0x87",
          "removed": false
        },
        {
          "address": "0x5eb9cc76c3506942c1c0ead70e877dd5e4f00cb0",
          "topics": [
            "0x4afcb4a87cdbd9974efdb92ee48bc8d7cd0ae4bf217004db3d080cbaee652ca7"
          ],
          "data": "0x0000000000000000000000000000000000000000000000000000000067869f60000000000000000000000000000000000000000000000000000391084aa446c80000000000000000000000000000000000000000000000000dc7db13324ab1b8",
          "blockHash": "0xceee6971e40c6acddbd25db9c4fc0bbeb97abefef91b2063a9e2faa8feaaf65b",
          "blockNumber": "0x724e79",
          "transactionHash": "0xa53fb3f403742bd486c704e7db0f557b4b816833b891c72116b03bd088cb4f21",
          "transactionIndex": "0x58",
          "logIndex": "0x88",
          "removed": false
        }
      ],
      "logsBloom": "0x00000000000000000000000000000000000000000000000000000000000000000000000000000000000000000000000000000000000000004000000000000000000000000000000000000008000000000000000000000000000000000000000000000000020000000000000004000800020000000000000000000010000000000000000000000000000000000000000000000000000000000000010000000000000000000000000000000000000000004000000000000000000000000000020000000002000000800000008000000000000000000000080000000000000020000000000000000000000000000000000000000000000000000000000000000000",
      "type": "0x2",
      "transactionHash": "0xa53fb3f403742bd486c704e7db0f557b4b816833b891c72116b03bd088cb4f21",
      "transactionIndex": "0x58",
      "blockHash": "0xceee6971e40c6acddbd25db9c4fc0bbeb97abefef91b2063a9e2faa8feaaf65b",
      "blockNumber": "0x724e79",
      "gasUsed": "0xfb93",
      "effectiveGasPrice": "0x430fe4b7f",
      "from": "0xc77f7fed3b5cc8249adc428c5f44c9063b9734b4",
      "to": "0x5eb9cc76c3506942c1c0ead70e877dd5e4f00cb0",
      "contractAddress": null
    }
  ],
  "libraries": [],
  "pending": [],
  "returns": {},
  "timestamp": 1736875873,
  "chain": 11155111,
  "commit": "51a374b"
}