{
  "transactions": [
    {
      "hash": "0xce006fcc8b7b20d26199a918a5307c503bfdc001abfd8617f7896ee3680bae29",
      "transactionType": "CALL",
      "contractName": null,
      "contractAddress": "0x0907ee43932cb5b84fec241a3b1c20f0eb8965ac",
      "function": "borrowMore(uint256)",
      "arguments": [
        "1000"
      ],
      "transaction": {
        "from": "0xc77f7fed3b5cc8249adc428c5f44c9063b9734b4",
        "to": "0x0907ee43932cb5b84fec241a3b1c20f0eb8965ac",
        "gas": "0x1b6b8",
        "value": "0x0",
        "input": "0x9d0bf2e900000000000000000000000000000000000000000000000000000000000003e8",
        "nonce": "0x191a",
        "chainId": "0xaa36a7"
      },
      "additionalContracts": [],
      "isFixedGasLimit": false
    }
  ],
  "receipts": [
    {
      "status": "0x1",
      "cumulativeGasUsed": "0xd818f6",
      "logs": [
        {
          "address": "0x0907ee43932cb5b84fec241a3b1c20f0eb8965ac",
          "topics": [
            "0x03bbe564cb1b78e43195eeadbde99e5b89b19345862807fcfb59f884e4165e25"
          ],
          "data": "0x00000000000000000000000038818e389773445cd73adbaa37b8b169f458c6e10000000000000000000000000000000000000000000000000000000000000000",
          "blockHash": "0xb6e61a617b0320ca21447b84afe0493bca0be8fadffa506b29cf9e40c26d31f2",
          "blockNumber": "0x739aaa",
          "transactionHash": "0xce006fcc8b7b20d26199a918a5307c503bfdc001abfd8617f7896ee3680bae29",
          "transactionIndex": "0x84",
          "logIndex": "0xe9",
          "removed": false
        },
        {
          "address": "0x0907ee43932cb5b84fec241a3b1c20f0eb8965ac",
          "topics": [
            "0x03bbe564cb1b78e43195eeadbde99e5b89b19345862807fcfb59f884e4165e25"
          ],
          "data": "0x000000000000000000000000c77f7fed3b5cc8249adc428c5f44c9063b9734b400000000000000000000000000000000000000000000000000000000000003dd",
          "blockHash": "0xb6e61a617b0320ca21447b84afe0493bca0be8fadffa506b29cf9e40c26d31f2",
          "blockNumber": "0x739aaa",
          "transactionHash": "0xce006fcc8b7b20d26199a918a5307c503bfdc001abfd8617f7896ee3680bae29",
          "transactionIndex": "0x84",
          "logIndex": "0xea",
          "removed": false
        },
        {
          "address": "0x0907ee43932cb5b84fec241a3b1c20f0eb8965ac",
          "topics": [
            "0xaec00f5213a37254bc68a26b0685d1a5b2bf513e1e587c94c7df7f4a62b56c9c"
          ],
          "data": "0x0000000000000000000000000000000000000000000000008ac7230489e7ffff00000000000000000000000000000000000000000000000000232bff5f46c3de00000000000000000000000000000000000000000000000000232bff5f46c3de0000000000000000000000000000000000000000000000008ac7230489e7ffff",
          "blockHash": "0xb6e61a617b0320ca21447b84afe0493bca0be8fadffa506b29cf9e40c26d31f2",
          "blockNumber": "0x739aaa",
          "transactionHash": "0xce006fcc8b7b20d26199a918a5307c503bfdc001abfd8617f7896ee3680bae29",
          "transactionIndex": "0x84",
          "logIndex": "0xeb",
          "removed": false
        },
        {
          "address": "0x0907ee43932cb5b84fec241a3b1c20f0eb8965ac",
          "topics": [
            "0x4afcb4a87cdbd9974efdb92ee48bc8d7cd0ae4bf217004db3d080cbaee652ca7"
          ],
          "data": "0x000000000000000000000000000000000000000000000000000000006796759800000000000000000000000000000000000000000000000000038e21a006d8000000000000000000000000000000000000000000000000000000000000000001",
          "blockHash": "0xb6e61a617b0320ca21447b84afe0493bca0be8fadffa506b29cf9e40c26d31f2",
          "blockNumber": "0x739aaa",
          "transactionHash": "0xce006fcc8b7b20d26199a918a5307c503bfdc001abfd8617f7896ee3680bae29",
          "transactionIndex": "0x84",
          "logIndex": "0xec",
          "removed": false
        }
      ],
      "logsBloom": "0x00000000000000000000000000000100400000000000000000000000000000000008000000000000200000000000000000002000000000004000000000000000000000000000000000000000000000000000000000000000000000000000000000000000000000000000002000000000020000000000000000000000000000000000000000000000000000000000000000000000000000000000000000000000000000000000040000000400000000004000000000000000000000001000000000000000000000000000000000000000000000000000000000000000000000000000000000000000000000000000000000000000000000000000000000000000",
      "type": "0x2",
      "transactionHash": "0xce006fcc8b7b20d26199a918a5307c503bfdc001abfd8617f7896ee3680bae29",
      "transactionIndex": "0x84",
      "blockHash": "0xb6e61a617b0320ca21447b84afe0493bca0be8fadffa506b29cf9e40c26d31f2",
      "blockNumber": "0x739aaa",
      "gasUsed": "0x13da0",
      "effectiveGasPrice": "0x3347f9ca6",
      "from": "0xc77f7fed3b5cc8249adc428c5f44c9063b9734b4",
      "to": "0x0907ee43932cb5b84fec241a3b1c20f0eb8965ac",
      "contractAddress": null
    }
  ],
  "libraries": [],
  "pending": [],
  "returns": {},
  "timestamp": 1737913754,
  "chain": 11155111,
  "commit": "f5162e9"
}