{
  "transactions": [
    {
      "hash": "0xf598f53b8787fcd2f29401eddb5c6c1f32d08fbc6bd949a46d7fb7871f10ada4",
      "transactionType": "CALL",
      "contractName": null,
      "contractAddress": "0x270e88f8683660553e8ba4eb2ad7c91a1710d769",
      "function": "sell(uint256)",
      "arguments": [
        "824685317252372959094"
      ],
      "transaction": {
        "from": "0xc77f7fed3b5cc8249adc428c5f44c9063b9734b4",
        "to": "0x270e88f8683660553e8ba4eb2ad7c91a1710d769",
        "gas": "0x16fec",
        "value": "0x0",
        "input": "0xe4849b3200000000000000000000000000000000000000000000002cb4ceceabc4030f76",
        "nonce": "0x655",
        "chainId": "0xaa36a7"
      },
      "additionalContracts": [],
      "isFixedGasLimit": false
    }
  ],
  "receipts": [
    {
      "status": "0x1",
      "cumulativeGasUsed": "0x781424",
      "logs": [
        {
          "address": "0x270e88f8683660553e8ba4eb2ad7c91a1710d769",
          "topics": [
            "0xddf252ad1be2c89b69c2b068fc378daa952ba7f163c4a11628f55a4df523b3ef",
            "0x000000000000000000000000c77f7fed3b5cc8249adc428c5f44c9063b9734b4",
            "0x0000000000000000000000000000000000000000000000000000000000000000"
          ],
          "data": "0x00000000000000000000000000000000000000000000002cb4ceceabc4030f76",
          "blockHash": "0x43bb79c533b92db6359d783fb74ab8fffe8cbca54ffaea83c826ec5069cc2730",
          "blockNumber": "0x725341",
          "transactionHash": "0xf598f53b8787fcd2f29401eddb5c6c1f32d08fbc6bd949a46d7fb7871f10ada4",
          "transactionIndex": "0x4a",
          "logIndex": "0x8c",
          "removed": false
        },
        {
          "address": "0x270e88f8683660553e8ba4eb2ad7c91a1710d769",
          "topics": [
            "0x4afcb4a87cdbd9974efdb92ee48bc8d7cd0ae4bf217004db3d080cbaee652ca7"
          ],
          "data": "0x000000000000000000000000000000000000000000000000000000006786d9140000000000000000000000000000000000000000000000000004472462a38a850000000000000000000000000000000000000000000000000dc7e0f958cb87cc",
          "blockHash": "0x43bb79c533b92db6359d783fb74ab8fffe8cbca54ffaea83c826ec5069cc2730",
          "blockNumber": "0x725341",
          "transactionHash": "0xf598f53b8787fcd2f29401eddb5c6c1f32d08fbc6bd949a46d7fb7871f10ada4",
          "transactionIndex": "0x4a",
          "logIndex": "0x8d",
          "removed": false
        }
      ],
      "logsBloom": "0x00000000000000000000000000000000000000000000000000000000000000000000000000000000000000000000000020000000000000004000000000000000000000000000000000000008000000000000000000000000000000000000000000000000020000000000000000000800020000000000000000000010000000000000000000010000000000000000000000000000000000000000010000000000000000000000000000000000000000004000000000000000000000000000000000000002000000800000000000000000000000000000080000008000000020000000000000000000000000000000000000000000000000000000000000000000",
      "type": "0x2",
      "transactionHash": "0xf598f53b8787fcd2f29401eddb5c6c1f32d08fbc6bd949a46d7fb7871f10ada4",
      "transactionIndex": "0x4a",
      "blockHash": "0x43bb79c533b92db6359d783fb74ab8fffe8cbca54ffaea83c826ec5069cc2730",
      "blockNumber": "0x725341",
      "gasUsed": "0xfb93",
      "effectiveGasPrice": "0x1944bb2cf",
      "from": "0xc77f7fed3b5cc8249adc428c5f44c9063b9734b4",
      "to": "0x270e88f8683660553e8ba4eb2ad7c91a1710d769",
      "contractAddress": null
    }
  ],
  "libraries": [],
  "pending": [],
  "returns": {},
  "timestamp": 1736890645,
  "chain": 11155111,
  "commit": "51a374b"
}