{
  "transactions": [
    {
      "hash": "0x80c9fed509bcb3acbcd2bf7f6c81fe3269a0ac13e438b78fce595fb7dfadefcd",
      "transactionType": "CALL",
      "contractName": null,
      "contractAddress": "0x8aafd3ede9adb0ff97c7aebce82a919afb1c8764",
      "function": "sell(uint256)",
      "arguments": [
        "8313428077"
      ],
      "transaction": {
        "from": "0xc77f7fed3b5cc8249adc428c5f44c9063b9734b4",
        "to": "0x8aafd3ede9adb0ff97c7aebce82a919afb1c8764",
        "gas": "0x1722a",
        "value": "0x0",
        "input": "0xe4849b3200000000000000000000000000000000000000000000000000000001ef84d86d",
        "nonce": "0x13f6",
        "chainId": "0xaa36a7"
      },
      "additionalContracts": [],
      "isFixedGasLimit": false
    }
  ],
  "receipts": [
    {
      "status": "0x1",
      "cumulativeGasUsed": "0x659d47",
      "logs": [
        {
          "address": "0x8aafd3ede9adb0ff97c7aebce82a919afb1c8764",
          "topics": [
            "0xddf252ad1be2c89b69c2b068fc378daa952ba7f163c4a11628f55a4df523b3ef",
            "0x000000000000000000000000c77f7fed3b5cc8249adc428c5f44c9063b9734b4",
            "0x0000000000000000000000000000000000000000000000000000000000000000"
          ],
          "data": "0x00000000000000000000000000000000000000000000000000000001eb8e05cd",
          "blockHash": "0xf3cd8a35c9f40811b632cab6e50ffd6b09303b093008344394b68ca60264e553",
          "blockNumber": "0x731b29",
          "transactionHash": "0x80c9fed509bcb3acbcd2bf7f6c81fe3269a0ac13e438b78fce595fb7dfadefcd",
          "transactionIndex": "0x3c",
          "logIndex": "0x55",
          "removed": false
        },
        {
          "address": "0x8aafd3ede9adb0ff97c7aebce82a919afb1c8764",
          "topics": [
            "0xddf252ad1be2c89b69c2b068fc378daa952ba7f163c4a11628f55a4df523b3ef",
            "0x000000000000000000000000c77f7fed3b5cc8249adc428c5f44c9063b9734b4",
            "0x000000000000000000000000c77f7fed3b5cc8249adc428c5f44c9063b9734b4"
          ],
          "data": "0x0000000000000000000000000000000000000000000000000000000003f6d2a0",
          "blockHash": "0xf3cd8a35c9f40811b632cab6e50ffd6b09303b093008344394b68ca60264e553",
          "blockNumber": "0x731b29",
          "transactionHash": "0x80c9fed509bcb3acbcd2bf7f6c81fe3269a0ac13e438b78fce595fb7dfadefcd",
          "transactionIndex": "0x3c",
          "logIndex": "0x56",
          "removed": false
        },
        {
          "address": "0x8aafd3ede9adb0ff97c7aebce82a919afb1c8764",
          "topics": [
            "0x4afcb4a87cdbd9974efdb92ee48bc8d7cd0ae4bf217004db3d080cbaee652ca7"
          ],
          "data": "0x00000000000000000000000000000000000000000000000000000000679042bc000000000000000000000000000000000000000000000000000e0201f997df100000000000000000000000000000000000000000000000000000000001f429a3",
          "blockHash": "0xf3cd8a35c9f40811b632cab6e50ffd6b09303b093008344394b68ca60264e553",
          "blockNumber": "0x731b29",
          "transactionHash": "0x80c9fed509bcb3acbcd2bf7f6c81fe3269a0ac13e438b78fce595fb7dfadefcd",
          "transactionIndex": "0x3c",
          "logIndex": "0x57",
          "removed": false
        }
      ],
      "logsBloom": "0x00000000000000000000000000000000000000000600000000000000000000000000000000000000000000000000000000000000000000004000000000000000000000000000004000000008000000000000000000000000000000000000000000000000020000000000000000000800020000000000000000000010000000000000000000000000000000000000000000000000000000000000010000000000000000000000000000000000000000004000000000000000000000000000000000000002000000800000000000000000000000000000080000000000000020000000000000000000000000000000000000000000000000000000000000000000",
      "type": "0x2",
      "transactionHash": "0x80c9fed509bcb3acbcd2bf7f6c81fe3269a0ac13e438b78fce595fb7dfadefcd",
      "transactionIndex": "0x3c",
      "blockHash": "0xf3cd8a35c9f40811b632cab6e50ffd6b09303b093008344394b68ca60264e553",
      "blockNumber": "0x731b29",
      "gasUsed": "0xfd1b",
      "effectiveGasPrice": "0xa943173a",
      "from": "0xc77f7fed3b5cc8249adc428c5f44c9063b9734b4",
      "to": "0x8aafd3ede9adb0ff97c7aebce82a919afb1c8764",
      "contractAddress": null
    }
  ],
  "libraries": [],
  "pending": [],
  "returns": {},
  "timestamp": 1737507517,
  "chain": 11155111,
  "commit": "1d2fb70"
}