{
  "transactions": [
    {
      "hash": "0xd5b01568e52aa26a043197a28557c074b96ed34348e113239fd9ba0532adba08",
      "transactionType": "CALL",
      "contractName": null,
      "contractAddress": "0x8aafd3ede9adb0ff97c7aebce82a919afb1c8764",
      "function": "sell(uint256)",
      "arguments": [
        "2420091877483985488"
      ],
      "transaction": {
        "from": "0xc77f7fed3b5cc8249adc428c5f44c9063b9734b4",
        "to": "0x8aafd3ede9adb0ff97c7aebce82a919afb1c8764",
        "gas": "0x15dca",
        "value": "0x0",
        "input": "0xe4849b320000000000000000000000000000000000000000000000002195e4bd893dba50",
        "nonce": "0x132c",
        "chainId": "0xaa36a7"
      },
      "additionalContracts": [],
      "isFixedGasLimit": false
    }
  ],
  "receipts": [
    {
      "status": "0x1",
      "cumulativeGasUsed": "0xbd6860",
      "logs": [
        {
          "address": "0x8aafd3ede9adb0ff97c7aebce82a919afb1c8764",
          "topics": [
            "0xddf252ad1be2c89b69c2b068fc378daa952ba7f163c4a11628f55a4df523b3ef",
            "0x000000000000000000000000c77f7fed3b5cc8249adc428c5f44c9063b9734b4",
            "0x0000000000000000000000000000000000000000000000000000000000000000"
          ],
          "data": "0x00000000000000000000000000000000000000000000000021511c4123ca8bc5",
          "blockHash": "0x9695c47691e8c15e87956e76804e0b3934671c7c35f7d2e12da058bd69cdb40c",
          "blockNumber": "0x731a3f",
          "transactionHash": "0xd5b01568e52aa26a043197a28557c074b96ed34348e113239fd9ba0532adba08",
          "transactionIndex": "0x8b",
          "logIndex": "0xd5",
          "removed": false
        },
        {
          "address": "0x8aafd3ede9adb0ff97c7aebce82a919afb1c8764",
          "topics": [
            "0xddf252ad1be2c89b69c2b068fc378daa952ba7f163c4a11628f55a4df523b3ef",
            "0x000000000000000000000000c77f7fed3b5cc8249adc428c5f44c9063b9734b4",
            "0x000000000000000000000000c77f7fed3b5cc8249adc428c5f44c9063b9734b4"
          ],
          "data": "0x0000000000000000000000000000000000000000000000000044c87c65732e8b",
          "blockHash": "0x9695c47691e8c15e87956e76804e0b3934671c7c35f7d2e12da058bd69cdb40c",
          "blockNumber": "0x731a3f",
          "transactionHash": "0xd5b01568e52aa26a043197a28557c074b96ed34348e113239fd9ba0532adba08",
          "transactionIndex": "0x8b",
          "logIndex": "0xd6",
          "removed": false
        },
        {
          "address": "0x8aafd3ede9adb0ff97c7aebce82a919afb1c8764",
          "topics": [
            "0x4afcb4a87cdbd9974efdb92ee48bc8d7cd0ae4bf217004db3d080cbaee652ca7"
          ],
          "data": "0x00000000000000000000000000000000000000000000000000000000679037c4000000000000000000000000000000000000000000000000000bc3678db28b68000000000000000000000000000000000000000000000000001c777cad18815e",
          "blockHash": "0x9695c47691e8c15e87956e76804e0b3934671c7c35f7d2e12da058bd69cdb40c",
          "blockNumber": "0x731a3f",
          "transactionHash": "0xd5b01568e52aa26a043197a28557c074b96ed34348e113239fd9ba0532adba08",
          "transactionIndex": "0x8b",
          "logIndex": "0xd7",
          "removed": false
        }
      ],
      "logsBloom": "0x00000000000000000000000000000000000000000600000000000000000000000000000000000000000000000000000000000000000000004000000000000000000000000000004000000008000000000000000000000000000000000000000000000000020000000000000000000800020000000000000000000010000000000000000000000000000000000000000000000000000000000000010000000000000000000000000000000000000000004000000000000000000000000000000000000002000000800000000000000000000000000000080000000000000020000000000000000000000000000000000000000000000000000000000000000000",
      "type": "0x2",
      "transactionHash": "0xd5b01568e52aa26a043197a28557c074b96ed34348e113239fd9ba0532adba08",
      "transactionIndex": "0x8b",
      "blockHash": "0x9695c47691e8c15e87956e76804e0b3934671c7c35f7d2e12da058bd69cdb40c",
      "blockNumber": "0x731a3f",
      "gasUsed": "0xfd3f",
      "effectiveGasPrice": "0x3ee43b03",
      "from": "0xc77f7fed3b5cc8249adc428c5f44c9063b9734b4",
      "to": "0x8aafd3ede9adb0ff97c7aebce82a919afb1c8764",
      "contractAddress": null
    }
  ],
  "libraries": [],
  "pending": [],
  "returns": {},
  "timestamp": 1737504709,
  "chain": 11155111,
  "commit": "1d2fb70"
}