{
  "transactions": [
    {
      "hash": "0xd39ccb767cc46c3bad61561573979221910cbe4e16d214998e7e56c3142166ff",
      "transactionType": "CALL",
      "contractName": null,
      "contractAddress": "0x8aafd3ede9adb0ff97c7aebce82a919afb1c8764",
      "function": "sell(uint256)",
      "arguments": [
        "9835873701723174"
      ],
      "transaction": {
        "from": "0xc77f7fed3b5cc8249adc428c5f44c9063b9734b4",
        "to": "0x8aafd3ede9adb0ff97c7aebce82a919afb1c8764",
        "gas": "0x1724d",
        "value": "0x0",
        "input": "0xe4849b320000000000000000000000000000000000000000000000000022f1acce0bfc26",
        "nonce": "0x1702",
        "chainId": "0xaa36a7"
      },
      "additionalContracts": [],
      "isFixedGasLimit": false
    }
  ],
  "receipts": [
    {
      "status": "0x1",
      "cumulativeGasUsed": "0xc68628",
      "logs": [
        {
          "address": "0x8aafd3ede9adb0ff97c7aebce82a919afb1c8764",
          "topics": [
            "0xddf252ad1be2c89b69c2b068fc378daa952ba7f163c4a11628f55a4df523b3ef",
            "0x000000000000000000000000c77f7fed3b5cc8249adc428c5f44c9063b9734b4",
            "0x0000000000000000000000000000000000000000000000000000000000000000"
          ],
          "data": "0x0000000000000000000000000000000000000000000000000022aa1c0ffb814d",
          "blockHash": "0xd6cb36856c6470c27fe65fa75871639f1ec511f81f4728aed578df23dddd2116",
          "blockNumber": "0x731ec6",
          "transactionHash": "0xd39ccb767cc46c3bad61561573979221910cbe4e16d214998e7e56c3142166ff",
          "transactionIndex": "0x88",
          "logIndex": "0xce",
          "removed": false
        },
        {
          "address": "0x8aafd3ede9adb0ff97c7aebce82a919afb1c8764",
          "topics": [
            "0xddf252ad1be2c89b69c2b068fc378daa952ba7f163c4a11628f55a4df523b3ef",
            "0x000000000000000000000000c77f7fed3b5cc8249adc428c5f44c9063b9734b4",
            "0x000000000000000000000000c77f7fed3b5cc8249adc428c5f44c9063b9734b4"
          ],
          "data": "0x00000000000000000000000000000000000000000000000000004790be107ad9",
          "blockHash": "0xd6cb36856c6470c27fe65fa75871639f1ec511f81f4728aed578df23dddd2116",
          "blockNumber": "0x731ec6",
          "transactionHash": "0xd39ccb767cc46c3bad61561573979221910cbe4e16d214998e7e56c3142166ff",
          "transactionIndex": "0x88",
          "logIndex": "0xcf",
          "removed": false
        },
        {
          "address": "0x8aafd3ede9adb0ff97c7aebce82a919afb1c8764",
          "topics": [
            "0x4afcb4a87cdbd9974efdb92ee48bc8d7cd0ae4bf217004db3d080cbaee652ca7"
          ],
          "data": "0x0000000000000000000000000000000000000000000000000000000067906e3000000000000000000000000000000000000000000000000000170f6a716b16ec00000000000000000000000000000000000000000000000000003a10b38a4cc3",
          "blockHash": "0xd6cb36856c6470c27fe65fa75871639f1ec511f81f4728aed578df23dddd2116",
          "blockNumber": "0x731ec6",
          "transactionHash": "0xd39ccb767cc46c3bad61561573979221910cbe4e16d214998e7e56c3142166ff",
          "transactionIndex": "0x88",
          "logIndex": "0xd0",
          "removed": false
        }
      ],
      "logsBloom": "0x00000000000000000000000000000000000000000600000000000000000000000000000000000000000000000000000000000000000000004000000000000000000000000000004000000008000000000000000000000000000000000000000000000000020000000000000000000800020000000000000000000010000000000000000000000000000000000000000000000000000000000000010000000000000000000000000000000000000000004000000000000000000000000000000000000002000000800000000000000000000000000000080000000000000020000000000000000000000000000000000000000000000000000000000000000000",
      "type": "0x2",
      "transactionHash": "0xd39ccb767cc46c3bad61561573979221910cbe4e16d214998e7e56c3142166ff",
      "transactionIndex": "0x88",
      "blockHash": "0xd6cb36856c6470c27fe65fa75871639f1ec511f81f4728aed578df23dddd2116",
      "blockNumber": "0x731ec6",
      "gasUsed": "0xfd33",
      "effectiveGasPrice": "0x772c945a",
      "from": "0xc77f7fed3b5cc8249adc428c5f44c9063b9734b4",
      "to": "0x8aafd3ede9adb0ff97c7aebce82a919afb1c8764",
      "contractAddress": null
    }
  ],
  "libraries": [],
  "pending": [],
  "returns": {},
  "timestamp": 1737518641,
  "chain": 11155111,
  "commit": "1d2fb70"
}