{
  "transactions": [
    {
      "hash": "0xde2a613e4b8ba820ad9caef39f991e847a642a624cca624d1b2b2a1fd32e0517",
      "transactionType": "CALL",
      "contractName": null,
      "contractAddress": "0x8aafd3ede9adb0ff97c7aebce82a919afb1c8764",
      "function": "sell(uint256)",
      "arguments": [
        "6884358575"
      ],
      "transaction": {
        "from": "0xc77f7fed3b5cc8249adc428c5f44c9063b9734b4",
        "to": "0x8aafd3ede9adb0ff97c7aebce82a919afb1c8764",
        "gas": "0x1722a",
        "value": "0x0",
        "input": "0xe4849b32000000000000000000000000000000000000000000000000000000019a56f9af",
        "nonce": "0x14f2",
        "chainId": "0xaa36a7"
      },
      "additionalContracts": [],
      "isFixedGasLimit": false
    }
  ],
  "receipts": [
    {
      "status": "0x1",
      "cumulativeGasUsed": "0x1254a89",
      "logs": [
        {
          "address": "0x8aafd3ede9adb0ff97c7aebce82a919afb1c8764",
          "topics": [
            "0xddf252ad1be2c89b69c2b068fc378daa952ba7f163c4a11628f55a4df523b3ef",
            "0x000000000000000000000000c77f7fed3b5cc8249adc428c5f44c9063b9734b4",
            "0x0000000000000000000000000000000000000000000000000000000000000000"
          ],
          "data": "0x00000000000000000000000000000000000000000000000000000001970e997b",
          "blockHash": "0x61e652af5dcd001437d999027472221bb638f67ccf69ea215659a3e3a962b8ef",
          "blockNumber": "0x731c52",
          "transactionHash": "0xde2a613e4b8ba820ad9caef39f991e847a642a624cca624d1b2b2a1fd32e0517",
          "transactionIndex": "0x9a",
          "logIndex": "0xe7",
          "removed": false
        },
        {
          "address": "0x8aafd3ede9adb0ff97c7aebce82a919afb1c8764",
          "topics": [
            "0xddf252ad1be2c89b69c2b068fc378daa952ba7f163c4a11628f55a4df523b3ef",
            "0x000000000000000000000000c77f7fed3b5cc8249adc428c5f44c9063b9734b4",
            "0x000000000000000000000000c77f7fed3b5cc8249adc428c5f44c9063b9734b4"
          ],
          "data": "0x0000000000000000000000000000000000000000000000000000000003486034",
          "blockHash": "0x61e652af5dcd001437d999027472221bb638f67ccf69ea215659a3e3a962b8ef",
          "blockNumber": "0x731c52",
          "transactionHash": "0xde2a613e4b8ba820ad9caef39f991e847a642a624cca624d1b2b2a1fd32e0517",
          "transactionIndex": "0x9a",
          "logIndex": "0xe8",
          "removed": false
        },
        {
          "address": "0x8aafd3ede9adb0ff97c7aebce82a919afb1c8764",
          "topics": [
            "0x4afcb4a87cdbd9974efdb92ee48bc8d7cd0ae4bf217004db3d080cbaee652ca7"
          ],
          "data": "0x00000000000000000000000000000000000000000000000000000000679050b40000000000000000000000000000000000000000000000000010e53ac925cb5e0000000000000000000000000000000000000000000000000000000001f390cc",
          "blockHash": "0x61e652af5dcd001437d999027472221bb638f67ccf69ea215659a3e3a962b8ef",
          "blockNumber": "0x731c52",
          "transactionHash": "0xde2a613e4b8ba820ad9caef39f991e847a642a624cca624d1b2b2a1fd32e0517",
          "transactionIndex": "0x9a",
          "logIndex": "0xe9",
          "removed": false
        }
      ],
      "logsBloom": "0x00000000000000000000000000000000000000000600000000000000000000000000000000000000000000000000000000000000000000004000000000000000000000000000004000000008000000000000000000000000000000000000000000000000020000000000000000000800020000000000000000000010000000000000000000000000000000000000000000000000000000000000010000000000000000000000000000000000000000004000000000000000000000000000000000000002000000800000000000000000000000000000080000000000000020000000000000000000000000000000000000000000000000000000000000000000",
      "type": "0x2",
      "transactionHash": "0xde2a613e4b8ba820ad9caef39f991e847a642a624cca624d1b2b2a1fd32e0517",
      "transactionIndex": "0x9a",
      "blockHash": "0x61e652af5dcd001437d999027472221bb638f67ccf69ea215659a3e3a962b8ef",
      "blockNumber": "0x731c52",
      "gasUsed": "0xfd1b",
      "effectiveGasPrice": "0x15772d30b",
      "from": "0xc77f7fed3b5cc8249adc428c5f44c9063b9734b4",
      "to": "0x8aafd3ede9adb0ff97c7aebce82a919afb1c8764",
      "contractAddress": null
    }
  ],
  "libraries": [],
  "pending": [],
  "returns": {},
  "timestamp": 1737511093,
  "chain": 11155111,
  "commit": "1d2fb70"
}