{
  "transactions": [
    {
      "hash": "0xe75826ba2b4befdd8669e9f04a34700189d0beebeda94bdfece9b9249b2bd551",
      "transactionType": "CALL",
      "contractName": null,
      "contractAddress": "0x5eb9cc76c3506942c1c0ead70e877dd5e4f00cb0",
      "function": "sell(uint256)",
      "arguments": [
        "989074821891257387576"
      ],
      "transaction": {
        "from": "0xc77f7fed3b5cc8249adc428c5f44c9063b9734b4",
        "to": "0x5eb9cc76c3506942c1c0ead70e877dd5e4f00cb0",
        "gas": "0x16fec",
        "value": "0x0",
        "input": "0xe4849b320000000000000000000000000000000000000000000000359e2ba62ac725ca38",
        "nonce": "0x49f",
        "chainId": "0xaa36a7"
      },
      "additionalContracts": [],
      "isFixedGasLimit": false
    }
  ],
  "receipts": [
    {
      "status": "0x1",
      "cumulativeGasUsed": "0x105b5ea",
      "logs": [
        {
          "address": "0x5eb9cc76c3506942c1c0ead70e877dd5e4f00cb0",
          "topics": [
            "0xddf252ad1be2c89b69c2b068fc378daa952ba7f163c4a11628f55a4df523b3ef",
            "0x000000000000000000000000c77f7fed3b5cc8249adc428c5f44c9063b9734b4",
            "0x0000000000000000000000000000000000000000000000000000000000000000"
          ],
          "data": "0x0000000000000000000000000000000000000000000000359e2ba62ac725ca38",
          "blockHash": "0x381605fa9b4652cf1013a6169f8e3244ec744fd253ddf20fbf9f274a1bc8f5f2",
          "blockNumber": "0x7250d9",
          "transactionHash": "0xe75826ba2b4befdd8669e9f04a34700189d0beebeda94bdfece9b9249b2bd551",
          "transactionIndex": "0x87",
          "logIndex": "0xe7",
          "removed": false
        },
        {
          "address": "0x5eb9cc76c3506942c1c0ead70e877dd5e4f00cb0",
          "topics": [
            "0x4afcb4a87cdbd9974efdb92ee48bc8d7cd0ae4bf217004db3d080cbaee652ca7"
          ],
          "data": "0x000000000000000000000000000000000000000000000000000000006786bc100000000000000000000000000000000000000000000000000003911b6c264a510000000000000000000000000000000000000000000000000dc7db1331baa5aa",
          "blockHash": "0x381605fa9b4652cf1013a6169f8e3244ec744fd253ddf20fbf9f274a1bc8f5f2",
          "blockNumber": "0x7250d9",
          "transactionHash": "0xe75826ba2b4befdd8669e9f04a34700189d0beebeda94bdfece9b9249b2bd551",
          "transactionIndex": "0x87",
          "logIndex": "0xe8",
          "removed": false
        }
      ],
      "logsBloom": "0x00000000000000000000000000000000000000000000000000000000000000000000000000000000000000000000000000000000000000004000000000000000000000000000000000000008000000000000000000000000000000000000000000000000020000000000000004000800020000000000000000000010000000000000000000000000000000000000000000000000000000000000010000000000000000000000000000000000000000004000000000000000000000000000020000000002000000800000008000000000000000000000080000000000000020000000000000000000000000000000000000000000000000000000000000000000",
      "type": "0x2",
      "transactionHash": "0xe75826ba2b4befdd8669e9f04a34700189d0beebeda94bdfece9b9249b2bd551",
      "transactionIndex": "0x87",
      "blockHash": "0x381605fa9b4652cf1013a6169f8e3244ec744fd253ddf20fbf9f274a1bc8f5f2",
      "blockNumber": "0x7250d9",
      "gasUsed": "0xfb93",
      "effectiveGasPrice": "0x244cce0f1",
      "from": "0xc77f7fed3b5cc8249adc428c5f44c9063b9734b4",
      "to": "0x5eb9cc76c3506942c1c0ead70e877dd5e4f00cb0",
      "contractAddress": null
    }
  ],
  "libraries": [],
  "pending": [],
  "returns": {},
  "timestamp": 1736883218,
  "chain": 11155111,
  "commit": "51a374b"
}