{
  "transactions": [
    {
      "hash": "0xd10c5509dae577d476f439737c370fbb401fa1987d176622b6f139ef0e131eae",
      "transactionType": "CALL",
      "contractName": null,
      "contractAddress": "0x5eb9cc76c3506942c1c0ead70e877dd5e4f00cb0",
      "function": "sell(uint256)",
      "arguments": [
        "989127408611666930741"
      ],
      "transaction": {
        "from": "0xc77f7fed3b5cc8249adc428c5f44c9063b9734b4",
        "to": "0x5eb9cc76c3506942c1c0ead70e877dd5e4f00cb0",
        "gas": "0x16fec",
        "value": "0x0",
        "input": "0xe4849b320000000000000000000000000000000000000000000000359ee67982bd0fac35",
        "nonce": "0x355",
        "chainId": "0xaa36a7"
      },
      "additionalContracts": [],
      "isFixedGasLimit": false
    }
  ],
  "receipts": [
    {
      "status": "0x1",
      "cumulativeGasUsed": "0xf4b225",
      "logs": [
        {
          "address": "0x5eb9cc76c3506942c1c0ead70e877dd5e4f00cb0",
          "topics": [
            "0xddf252ad1be2c89b69c2b068fc378daa952ba7f163c4a11628f55a4df523b3ef",
            "0x000000000000000000000000c77f7fed3b5cc8249adc428c5f44c9063b9734b4",
            "0x0000000000000000000000000000000000000000000000000000000000000000"
          ],
          "data": "0x0000000000000000000000000000000000000000000000359ee67982bd0fac35",
          "blockHash": "0x3879e4fb4f0492a483d52a51a65ce437ef85cbc65bdfe3727671dc8ac9371821",
          "blockNumber": "0x724f4a",
          "transactionHash": "0xd10c5509dae577d476f439737c370fbb401fa1987d176622b6f139ef0e131eae",
          "transactionIndex": "0x77",
          "logIndex": "0xaf",
          "removed": false
        },
        {
          "address": "0x5eb9cc76c3506942c1c0ead70e877dd5e4f00cb0",
          "topics": [
            "0x4afcb4a87cdbd9974efdb92ee48bc8d7cd0ae4bf217004db3d080cbaee652ca7"
          ],
          "data": "0x000000000000000000000000000000000000000000000000000000006786a92c0000000000000000000000000000000000000000000000000003910efeb2969e0000000000000000000000000000000000000000000000000dc7db13321837e5",
          "blockHash": "0x3879e4fb4f0492a483d52a51a65ce437ef85cbc65bdfe3727671dc8ac9371821",
          "blockNumber": "0x724f4a",
          "transactionHash": "0xd10c5509dae577d476f439737c370fbb401fa1987d176622b6f139ef0e131eae",
          "transactionIndex": "0x77",
          "logIndex": "0xb0",
          "removed": false
        }
      ],
      "logsBloom": "0x00000000000000000000000000000000000000000000000000000000000000000000000000000000000000000000000000000000000000004000000000000000000000000000000000000008000000000000000000000000000000000000000000000000020000000000000004000800020000000000000000000010000000000000000000000000000000000000000000000000000000000000010000000000000000000000000000000000000000004000000000000000000000000000020000000002000000800000008000000000000000000000080000000000000020000000000000000000000000000000000000000000000000000000000000000000",
      "type": "0x2",
      "transactionHash": "0xd10c5509dae577d476f439737c370fbb401fa1987d176622b6f139ef0e131eae",
      "transactionIndex": "0x77",
      "blockHash": "0x3879e4fb4f0492a483d52a51a65ce437ef85cbc65bdfe3727671dc8ac9371821",
      "blockNumber": "0x724f4a",
      "gasUsed": "0xfb93",
      "effectiveGasPrice": "0x5a285da65",
      "from": "0xc77f7fed3b5cc8249adc428c5f44c9063b9734b4",
      "to": "0x5eb9cc76c3506942c1c0ead70e877dd5e4f00cb0",
      "contractAddress": null
    }
  ],
  "libraries": [],
  "pending": [],
  "returns": {},
  "timestamp": 1736878382,
  "chain": 11155111,
  "commit": "51a374b"
}